{
	"contracts/Founding Citizens NFT Sale.sol": {
		"FoundingNFTSale": {
			"abi": [
				{
					"inputs": [],
					"stateMutability": "nonpayable",
					"type": "constructor"
				},
				{
					"anonymous": false,
					"inputs": [
						{
							"indexed": true,
							"internalType": "bytes32",
							"name": "role",
							"type": "bytes32"
						},
						{
							"indexed": true,
							"internalType": "bytes32",
							"name": "previousAdminRole",
							"type": "bytes32"
						},
						{
							"indexed": true,
							"internalType": "bytes32",
							"name": "newAdminRole",
							"type": "bytes32"
						}
					],
					"name": "RoleAdminChanged",
					"type": "event"
				},
				{
					"anonymous": false,
					"inputs": [
						{
							"indexed": true,
							"internalType": "bytes32",
							"name": "role",
							"type": "bytes32"
						},
						{
							"indexed": true,
							"internalType": "address",
							"name": "account",
							"type": "address"
						},
						{
							"indexed": true,
							"internalType": "address",
							"name": "sender",
							"type": "address"
						}
					],
					"name": "RoleGranted",
					"type": "event"
				},
				{
					"anonymous": false,
					"inputs": [
						{
							"indexed": true,
							"internalType": "bytes32",
							"name": "role",
							"type": "bytes32"
						},
						{
							"indexed": true,
							"internalType": "address",
							"name": "account",
							"type": "address"
						},
						{
							"indexed": true,
							"internalType": "address",
							"name": "sender",
							"type": "address"
						}
					],
					"name": "RoleRevoked",
					"type": "event"
				},
				{
					"inputs": [],
					"name": "DEFAULT_ADMIN_ROLE",
					"outputs": [
						{
							"internalType": "bytes32",
							"name": "",
							"type": "bytes32"
						}
					],
					"stateMutability": "view",
					"type": "function"
				},
				{
					"inputs": [],
					"name": "ERC1155storageContract",
					"outputs": [
						{
							"internalType": "contract IMintStorage",
							"name": "",
							"type": "address"
						}
					],
					"stateMutability": "view",
					"type": "function"
				},
				{
					"inputs": [],
					"name": "POST_SALE_MINTER_ROLE",
					"outputs": [
						{
							"internalType": "bytes32",
							"name": "",
							"type": "bytes32"
						}
					],
					"stateMutability": "view",
					"type": "function"
				},
				{
					"inputs": [],
					"name": "SALE_MANAGER_ROLE",
					"outputs": [
						{
							"internalType": "bytes32",
							"name": "",
							"type": "bytes32"
						}
					],
					"stateMutability": "view",
					"type": "function"
				},
				{
					"inputs": [],
					"name": "URI_MANAGER_ROLE",
					"outputs": [
						{
							"internalType": "bytes32",
							"name": "",
							"type": "bytes32"
						}
					],
					"stateMutability": "view",
					"type": "function"
				},
				{
					"inputs": [],
					"name": "buyNFT",
					"outputs": [],
					"stateMutability": "nonpayable",
					"type": "function"
				},
				{
					"inputs": [
						{
							"internalType": "uint256",
							"name": "discountRate",
							"type": "uint256"
						}
					],
					"name": "buyNftWithDiscount",
					"outputs": [],
					"stateMutability": "nonpayable",
					"type": "function"
				},
				{
					"inputs": [
						{
							"internalType": "address",
							"name": "prospectiveBuyer",
							"type": "address"
						},
						{
							"internalType": "uint256",
							"name": "discountRate",
							"type": "uint256"
						}
					],
					"name": "calculateCustomPrice",
					"outputs": [
						{
							"internalType": "uint256",
							"name": "",
							"type": "uint256"
						}
					],
					"stateMutability": "view",
					"type": "function"
				},
				{
					"inputs": [],
					"name": "getMaxSupply",
					"outputs": [
						{
							"internalType": "uint256",
							"name": "",
							"type": "uint256"
						}
					],
					"stateMutability": "view",
					"type": "function"
				},
				{
					"inputs": [],
					"name": "getNextUnusedToken",
					"outputs": [
						{
							"internalType": "uint256",
							"name": "",
							"type": "uint256"
						}
					],
					"stateMutability": "view",
					"type": "function"
				},
				{
					"inputs": [
						{
							"internalType": "bytes32",
							"name": "role",
							"type": "bytes32"
						}
					],
					"name": "getRoleAdmin",
					"outputs": [
						{
							"internalType": "bytes32",
							"name": "",
							"type": "bytes32"
						}
					],
					"stateMutability": "view",
					"type": "function"
				},
				{
					"inputs": [
						{
							"internalType": "bytes32",
							"name": "role",
							"type": "bytes32"
						},
						{
							"internalType": "address",
							"name": "account",
							"type": "address"
						}
					],
					"name": "grantRole",
					"outputs": [],
					"stateMutability": "nonpayable",
					"type": "function"
				},
				{
					"inputs": [
						{
							"internalType": "bytes32",
							"name": "role",
							"type": "bytes32"
						},
						{
							"internalType": "address",
							"name": "account",
							"type": "address"
						}
					],
					"name": "hasRole",
					"outputs": [
						{
							"internalType": "bool",
							"name": "",
							"type": "bool"
						}
					],
					"stateMutability": "view",
					"type": "function"
				},
				{
					"inputs": [],
					"name": "lastUpdate",
					"outputs": [
						{
							"internalType": "uint256",
							"name": "price",
							"type": "uint256"
						},
						{
							"internalType": "uint256",
							"name": "time",
							"type": "uint256"
						},
						{
							"internalType": "bool",
							"name": "saleIsLive",
							"type": "bool"
						}
					],
					"stateMutability": "view",
					"type": "function"
				},
				{
					"inputs": [
						{
							"internalType": "uint256",
							"name": "numberToMint",
							"type": "uint256"
						}
					],
					"name": "mintNextManyToTreasuryAddress",
					"outputs": [],
					"stateMutability": "nonpayable",
					"type": "function"
				},
				{
					"inputs": [],
					"name": "mintNextToTreasuryAddress",
					"outputs": [],
					"stateMutability": "nonpayable",
					"type": "function"
				},
				{
					"inputs": [],
					"name": "mintRemainderToTreasuryAddress",
					"outputs": [],
					"stateMutability": "nonpayable",
					"type": "function"
				},
				{
					"inputs": [
						{
							"internalType": "uint256[]",
							"name": "ids",
							"type": "uint256[]"
						},
						{
							"internalType": "string[]",
							"name": "uris",
							"type": "string[]"
						}
					],
					"name": "preLoadURIs",
					"outputs": [],
					"stateMutability": "nonpayable",
					"type": "function"
				},
				{
					"inputs": [],
					"name": "privilgedBuyerList",
					"outputs": [
						{
							"internalType": "contract IPrivilegedListStorage",
							"name": "",
							"type": "address"
						}
					],
					"stateMutability": "view",
					"type": "function"
				},
				{
					"inputs": [
						{
							"internalType": "bytes32",
							"name": "role",
							"type": "bytes32"
						},
						{
							"internalType": "address",
							"name": "account",
							"type": "address"
						}
					],
					"name": "renounceRole",
					"outputs": [],
					"stateMutability": "nonpayable",
					"type": "function"
				},
				{
					"inputs": [
						{
							"internalType": "bytes32",
							"name": "role",
							"type": "bytes32"
						},
						{
							"internalType": "address",
							"name": "account",
							"type": "address"
						}
					],
					"name": "revokeRole",
					"outputs": [],
					"stateMutability": "nonpayable",
					"type": "function"
				},
				{
					"inputs": [
						{
							"internalType": "uint256",
							"name": "unixTime",
							"type": "uint256"
						}
					],
					"name": "setEndTime",
					"outputs": [],
					"stateMutability": "nonpayable",
					"type": "function"
				},
				{
					"inputs": [
						{
							"internalType": "address",
							"name": "storageAddress",
							"type": "address"
						}
					],
					"name": "setStorageContractAddress",
					"outputs": [],
					"stateMutability": "nonpayable",
					"type": "function"
				},
				{
					"inputs": [
						{
							"internalType": "uint256",
							"name": "unixTime",
							"type": "uint256"
						}
					],
					"name": "setstartTime",
					"outputs": [],
					"stateMutability": "nonpayable",
					"type": "function"
				},
				{
					"inputs": [
						{
							"internalType": "bytes4",
							"name": "interfaceId",
							"type": "bytes4"
						}
					],
					"name": "supportsInterface",
					"outputs": [
						{
							"internalType": "bool",
							"name": "",
							"type": "bool"
						}
					],
					"stateMutability": "view",
					"type": "function"
				},
				{
					"inputs": [],
					"name": "treasuryAddress",
					"outputs": [
						{
							"internalType": "address",
							"name": "",
							"type": "address"
						}
					],
					"stateMutability": "view",
					"type": "function"
				},
				{
					"inputs": [
						{
							"internalType": "address",
							"name": "prospectiveBuyer",
							"type": "address"
						},
						{
							"internalType": "uint256",
							"name": "discountRate",
							"type": "uint256"
						}
					],
					"name": "updateAndCalculateCustomPrice",
					"outputs": [
						{
							"internalType": "uint256",
							"name": "",
							"type": "uint256"
						}
					],
					"stateMutability": "nonpayable",
					"type": "function"
				},
				{
					"inputs": [],
					"name": "usdcEscrowStorageContract",
					"outputs": [
						{
							"internalType": "contract IUsdcStorage",
							"name": "",
							"type": "address"
						}
					],
					"stateMutability": "view",
					"type": "function"
				}
			],
			"devdoc": {
				"kind": "dev",
				"methods": {
					"getRoleAdmin(bytes32)": {
						"details": "Returns the admin role that controls `role`. See {grantRole} and {revokeRole}. To change a role's admin, use {_setRoleAdmin}."
					},
					"grantRole(bytes32,address)": {
						"details": "Grants `role` to `account`. If `account` had not been already granted `role`, emits a {RoleGranted} event. Requirements: - the caller must have ``role``'s admin role."
					},
					"hasRole(bytes32,address)": {
						"details": "Returns `true` if `account` has been granted `role`."
					},
					"renounceRole(bytes32,address)": {
						"details": "Revokes `role` from the calling account. Roles are often managed via {grantRole} and {revokeRole}: this function's purpose is to provide a mechanism for accounts to lose their privileges if they are compromised (such as when a trusted device is misplaced). If the calling account had been revoked `role`, emits a {RoleRevoked} event. Requirements: - the caller must be `account`."
					},
					"revokeRole(bytes32,address)": {
						"details": "Revokes `role` from `account`. If `account` had been granted `role`, emits a {RoleRevoked} event. Requirements: - the caller must have ``role``'s admin role."
					},
					"supportsInterface(bytes4)": {
						"details": "See {IERC165-supportsInterface}."
					}
				},
				"version": 1
			},
			"evm": {
				"assembly": "    /* \"contracts/Founding Citizens NFT Sale.sol\":2898:9664  contract FoundingNFTSale is AccessControl {\r... */\n  mstore(0x40, 0x80)\n    /* \"contracts/Founding Citizens NFT Sale.sol\":3417:3427  1893484800 */\n  0x70dc4900\n    /* \"contracts/Founding Citizens NFT Sale.sol\":3399:3427  uint startTime  = 1893484800 */\n  0x05\n  sstore\n    /* \"contracts/Founding Citizens NFT Sale.sol\":3530:3540  1893484900 */\n  0x70dc4964\n    /* \"contracts/Founding Citizens NFT Sale.sol\":3512:3540  uint endTime    = 1893484900 */\n  0x06\n  sstore\n    /* \"contracts/Founding Citizens NFT Sale.sol\":3571:3576  10**6 */\n  0x0f4240\n    /* \"contracts/Founding Citizens NFT Sale.sol\":3601:3603  10 */\n  0x0a\n    /* \"contracts/Founding Citizens NFT Sale.sol\":3601:3611  10 * units */\n  tag_1\n  swap2\n  swap1\n  tag_2\n  jump\t// in\ntag_1:\n    /* \"contracts/Founding Citizens NFT Sale.sol\":3583:3611  uint startPrice = 10 * units */\n  0x07\n  sstore\n    /* \"contracts/Founding Citizens NFT Sale.sol\":3571:3576  10**6 */\n  0x0f4240\n    /* \"contracts/Founding Citizens NFT Sale.sol\":3667:3668  1 */\n  0x01\n    /* \"contracts/Founding Citizens NFT Sale.sol\":3667:3676  1 * units */\n  tag_3\n  swap2\n  swap1\n  tag_2\n  jump\t// in\ntag_3:\n    /* \"contracts/Founding Citizens NFT Sale.sol\":3651:3676  uint EndPrice = 1 * units */\n  0x08\n  sstore\n    /* \"contracts/Founding Citizens NFT Sale.sol\":3864:3901  Update(10000, block.timestamp, false) */\n  mload(0x40)\n  dup1\n  0x60\n  add\n  0x40\n  mstore\n  dup1\n    /* \"contracts/Founding Citizens NFT Sale.sol\":3871:3876  10000 */\n  0x2710\n    /* \"contracts/Founding Citizens NFT Sale.sol\":3864:3901  Update(10000, block.timestamp, false) */\n  dup2\n  mstore\n  0x20\n  add\n    /* \"contracts/Founding Citizens NFT Sale.sol\":3878:3893  block.timestamp */\n  timestamp\n    /* \"contracts/Founding Citizens NFT Sale.sol\":3864:3901  Update(10000, block.timestamp, false) */\n  dup2\n  mstore\n  0x20\n  add\n    /* \"contracts/Founding Citizens NFT Sale.sol\":3895:3900  false */\n  0x00\n    /* \"contracts/Founding Citizens NFT Sale.sol\":3864:3901  Update(10000, block.timestamp, false) */\n  iszero\n  iszero\n  dup2\n  mstore\n  pop\n    /* \"contracts/Founding Citizens NFT Sale.sol\":3837:3901  Update public lastUpdate = Update(10000, block.timestamp, false) */\n  0x09\n  0x00\n  dup3\n  add\n  mload\n  dup2\n  0x00\n  add\n  sstore\n  0x20\n  dup3\n  add\n  mload\n  dup2\n  0x01\n  add\n  sstore\n  0x40\n  dup3\n  add\n  mload\n  dup2\n  0x02\n  add\n  exp(0x0100, 0x00)\n  dup2\n  sload\n  dup2\n  0xff\n  mul\n  not\n  and\n  swap1\n  dup4\n  iszero\n  iszero\n  mul\n  or\n  swap1\n  sstore\n  pop\n  pop\n  pop\n    /* \"contracts/Founding Citizens NFT Sale.sol\":4263:4295  constructor() {\r... */\n  callvalue\n  dup1\n  iszero\n  tag_4\n  jumpi\n  0x00\n  dup1\n  revert\ntag_4:\n  pop\n    /* \"contracts/Founding Citizens NFT Sale.sol\":2898:9664  contract FoundingNFTSale is AccessControl {\r... */\n  jump(tag_7)\n    /* \"#utility.yul\":7:355   */\ntag_2:\n  0x00\n    /* \"#utility.yul\":70:90   */\n  tag_10\n    /* \"#utility.yul\":88:89   */\n  dup3\n    /* \"#utility.yul\":70:90   */\n  tag_11\n  jump\t// in\ntag_10:\n    /* \"#utility.yul\":65:90   */\n  swap2\n  pop\n    /* \"#utility.yul\":104:124   */\n  tag_12\n    /* \"#utility.yul\":122:123   */\n  dup4\n    /* \"#utility.yul\":104:124   */\n  tag_11\n  jump\t// in\ntag_12:\n    /* \"#utility.yul\":99:124   */\n  swap3\n  pop\n    /* \"#utility.yul\":292:293   */\n  dup2\n    /* \"#utility.yul\":224:290   */\n  0xffffffffffffffffffffffffffffffffffffffffffffffffffffffffffffffff\n    /* \"#utility.yul\":220:294   */\n  div\n    /* \"#utility.yul\":217:218   */\n  dup4\n    /* \"#utility.yul\":214:295   */\n  gt\n    /* \"#utility.yul\":209:210   */\n  dup3\n    /* \"#utility.yul\":202:211   */\n  iszero\n    /* \"#utility.yul\":195:212   */\n  iszero\n    /* \"#utility.yul\":191:296   */\n  and\n    /* \"#utility.yul\":188:190   */\n  iszero\n  tag_13\n  jumpi\n    /* \"#utility.yul\":299:317   */\n  tag_14\n  tag_15\n  jump\t// in\ntag_14:\n    /* \"#utility.yul\":188:190   */\ntag_13:\n    /* \"#utility.yul\":347:348   */\n  dup3\n    /* \"#utility.yul\":344:345   */\n  dup3\n    /* \"#utility.yul\":340:349   */\n  mul\n    /* \"#utility.yul\":329:349   */\n  swap1\n  pop\n    /* \"#utility.yul\":55:355   */\n  swap3\n  swap2\n  pop\n  pop\n  jump\t// out\n    /* \"#utility.yul\":361:438   */\ntag_11:\n  0x00\n    /* \"#utility.yul\":427:432   */\n  dup2\n    /* \"#utility.yul\":416:432   */\n  swap1\n  pop\n    /* \"#utility.yul\":406:438   */\n  swap2\n  swap1\n  pop\n  jump\t// out\n    /* \"#utility.yul\":444:624   */\ntag_15:\n    /* \"#utility.yul\":492:569   */\n  0x4e487b7100000000000000000000000000000000000000000000000000000000\n    /* \"#utility.yul\":489:490   */\n  0x00\n    /* \"#utility.yul\":482:570   */\n  mstore\n    /* \"#utility.yul\":589:593   */\n  0x11\n    /* \"#utility.yul\":586:587   */\n  0x04\n    /* \"#utility.yul\":579:594   */\n  mstore\n    /* \"#utility.yul\":613:617   */\n  0x24\n    /* \"#utility.yul\":610:611   */\n  0x00\n    /* \"#utility.yul\":603:618   */\n  revert\n    /* \"contracts/Founding Citizens NFT Sale.sol\":2898:9664  contract FoundingNFTSale is AccessControl {\r... */\ntag_7:\n  dataSize(sub_0)\n  dup1\n  dataOffset(sub_0)\n  0x00\n  codecopy\n  0x00\n  return\nstop\n\nsub_0: assembly {\n        /* \"contracts/Founding Citizens NFT Sale.sol\":2898:9664  contract FoundingNFTSale is AccessControl {\r... */\n      mstore(0x40, 0x80)\n      callvalue\n      dup1\n      iszero\n      tag_1\n      jumpi\n      0x00\n      dup1\n      revert\n    tag_1:\n      pop\n      jumpi(tag_2, lt(calldatasize, 0x04))\n      shr(0xe0, calldataload(0x00))\n      dup1\n      0x8c83faeb\n      gt\n      tag_31\n      jumpi\n      dup1\n      0xc0463711\n      gt\n      tag_32\n      jumpi\n      dup1\n      0xccb98ffc\n      gt\n      tag_33\n      jumpi\n      dup1\n      0xccb98ffc\n      eq\n      tag_27\n      jumpi\n      dup1\n      0xd547741f\n      eq\n      tag_28\n      jumpi\n      dup1\n      0xf121da92\n      eq\n      tag_29\n      jumpi\n      dup1\n      0xf715dfca\n      eq\n      tag_30\n      jumpi\n      jump(tag_2)\n    tag_33:\n      dup1\n      0xc0463711\n      eq\n      tag_24\n      jumpi\n      dup1\n      0xc5dae48f\n      eq\n      tag_25\n      jumpi\n      dup1\n      0xc5f956af\n      eq\n      tag_26\n      jumpi\n      jump(tag_2)\n    tag_32:\n      dup1\n      0xa217fddf\n      gt\n      tag_34\n      jumpi\n      dup1\n      0xa217fddf\n      eq\n      tag_20\n      jumpi\n      dup1\n      0xa77f0c48\n      eq\n      tag_21\n      jumpi\n      dup1\n      0xab6c0306\n      eq\n      tag_22\n      jumpi\n      dup1\n      0xbff29cee\n      eq\n      tag_23\n      jumpi\n      jump(tag_2)\n    tag_34:\n      dup1\n      0x8c83faeb\n      eq\n      tag_17\n      jumpi\n      dup1\n      0x91d14854\n      eq\n      tag_18\n      jumpi\n      dup1\n      0x944044a1\n      eq\n      tag_19\n      jumpi\n      jump(tag_2)\n    tag_31:\n      dup1\n      0x4c9b73da\n      gt\n      tag_35\n      jumpi\n      dup1\n      0x551b42a8\n      gt\n      tag_36\n      jumpi\n      dup1\n      0x551b42a8\n      eq\n      tag_13\n      jumpi\n      dup1\n      0x5ce7e721\n      eq\n      tag_14\n      jumpi\n      dup1\n      0x682d07d9\n      eq\n      tag_15\n      jumpi\n      dup1\n      0x68fc01a2\n      eq\n      tag_16\n      jumpi\n      jump(tag_2)\n    tag_36:\n      dup1\n      0x4c9b73da\n      eq\n      tag_10\n      jumpi\n      dup1\n      0x4e0ddff9\n      eq\n      tag_11\n      jumpi\n      dup1\n      0x51f7598c\n      eq\n      tag_12\n      jumpi\n      jump(tag_2)\n    tag_35:\n      dup1\n      0x2f2ff15d\n      gt\n      tag_37\n      jumpi\n      dup1\n      0x2f2ff15d\n      eq\n      tag_6\n      jumpi\n      dup1\n      0x36568abe\n      eq\n      tag_7\n      jumpi\n      dup1\n      0x432c7c5d\n      eq\n      tag_8\n      jumpi\n      dup1\n      0x4c0f38c2\n      eq\n      tag_9\n      jumpi\n      jump(tag_2)\n    tag_37:\n      dup1\n      0x01ffc9a7\n      eq\n      tag_3\n      jumpi\n      dup1\n      0x248a9ca3\n      eq\n      tag_4\n      jumpi\n      dup1\n      0x26116d47\n      eq\n      tag_5\n      jumpi\n    tag_2:\n      0x00\n      dup1\n      revert\n        /* \"@openzeppelin/contracts@4.4.2/access/AccessControl.sol\":2605:2807  function supportsInterface(bytes4 interfaceId) public view virtual override returns (bool) {... */\n    tag_3:\n      tag_38\n      0x04\n      dup1\n      calldatasize\n      sub\n      dup2\n      add\n      swap1\n      tag_39\n      swap2\n      swap1\n      tag_40\n      jump\t// in\n    tag_39:\n      tag_41\n      jump\t// in\n    tag_38:\n      mload(0x40)\n      tag_42\n      swap2\n      swap1\n      tag_43\n      jump\t// in\n    tag_42:\n      mload(0x40)\n      dup1\n      swap2\n      sub\n      swap1\n      return\n        /* \"@openzeppelin/contracts@4.4.2/access/AccessControl.sol\":3977:4098  function getRoleAdmin(bytes32 role) public view override returns (bytes32) {... */\n    tag_4:\n      tag_44\n      0x04\n      dup1\n      calldatasize\n      sub\n      dup2\n      add\n      swap1\n      tag_45\n      swap2\n      swap1\n      tag_46\n      jump\t// in\n    tag_45:\n      tag_47\n      jump\t// in\n    tag_44:\n      mload(0x40)\n      tag_48\n      swap2\n      swap1\n      tag_49\n      jump\t// in\n    tag_48:\n      mload(0x40)\n      dup1\n      swap2\n      sub\n      swap1\n      return\n        /* \"contracts/Founding Citizens NFT Sale.sol\":8317:8930  function mintNextToTreasuryAddress() public pushesUpdate {\r... */\n    tag_5:\n      tag_50\n      tag_51\n      jump\t// in\n    tag_50:\n      stop\n        /* \"@openzeppelin/contracts@4.4.2/access/AccessControl.sol\":4348:4493  function grantRole(bytes32 role, address account) public virtual override onlyRole(getRoleAdmin(role)) {... */\n    tag_6:\n      tag_52\n      0x04\n      dup1\n      calldatasize\n      sub\n      dup2\n      add\n      swap1\n      tag_53\n      swap2\n      swap1\n      tag_54\n      jump\t// in\n    tag_53:\n      tag_55\n      jump\t// in\n    tag_52:\n      stop\n        /* \"@openzeppelin/contracts@4.4.2/access/AccessControl.sol\":5365:5579  function renounceRole(bytes32 role, address account) public virtual override {... */\n    tag_7:\n      tag_56\n      0x04\n      dup1\n      calldatasize\n      sub\n      dup2\n      add\n      swap1\n      tag_57\n      swap2\n      swap1\n      tag_54\n      jump\t// in\n    tag_57:\n      tag_58\n      jump\t// in\n    tag_56:\n      stop\n        /* \"contracts/Founding Citizens NFT Sale.sol\":6778:6982  function updateAndCalculateCustomPrice(address prospectiveBuyer, uint discountRate) \r... */\n    tag_8:\n      tag_59\n      0x04\n      dup1\n      calldatasize\n      sub\n      dup2\n      add\n      swap1\n      tag_60\n      swap2\n      swap1\n      tag_61\n      jump\t// in\n    tag_60:\n      tag_62\n      jump\t// in\n    tag_59:\n      mload(0x40)\n      tag_63\n      swap2\n      swap1\n      tag_64\n      jump\t// in\n    tag_63:\n      mload(0x40)\n      dup1\n      swap2\n      sub\n      swap1\n      return\n        /* \"contracts/Founding Citizens NFT Sale.sol\":5617:5744  function getMaxSupply() public view returns(uint) {\r... */\n    tag_9:\n      tag_65\n      tag_66\n      jump\t// in\n    tag_65:\n      mload(0x40)\n      tag_67\n      swap2\n      swap1\n      tag_64\n      jump\t// in\n    tag_67:\n      mload(0x40)\n      dup1\n      swap2\n      sub\n      swap1\n      return\n        /* \"contracts/Founding Citizens NFT Sale.sol\":7315:7485  function buyNftWithDiscount(uint discountRate) public pushesUpdate {\r... */\n    tag_10:\n      tag_68\n      0x04\n      dup1\n      calldatasize\n      sub\n      dup2\n      add\n      swap1\n      tag_69\n      swap2\n      swap1\n      tag_70\n      jump\t// in\n    tag_69:\n      tag_71\n      jump\t// in\n    tag_68:\n      stop\n        /* \"contracts/Founding Citizens NFT Sale.sol\":8938:9661  function mintNextManyToTreasuryAddress(uint numberToMint) public pushesUpdate {\r... */\n    tag_11:\n      tag_72\n      0x04\n      dup1\n      calldatasize\n      sub\n      dup2\n      add\n      swap1\n      tag_73\n      swap2\n      swap1\n      tag_70\n      jump\t// in\n    tag_73:\n      tag_74\n      jump\t// in\n    tag_72:\n      stop\n        /* \"contracts/Founding Citizens NFT Sale.sol\":4802:4969  function setStorageContractAddress(address storageAddress) public onlyRole(DEFAULT_ADMIN_ROLE) {\r... */\n    tag_12:\n      tag_75\n      0x04\n      dup1\n      calldatasize\n      sub\n      dup2\n      add\n      swap1\n      tag_76\n      swap2\n      swap1\n      tag_77\n      jump\t// in\n    tag_76:\n      tag_78\n      jump\t// in\n    tag_75:\n      stop\n        /* \"contracts/Founding Citizens NFT Sale.sol\":3221:3295  bytes32 public constant SALE_MANAGER_ROLE = keccak256(\"SALE_MANAGER_ROLE\") */\n    tag_13:\n      tag_79\n      tag_80\n      jump\t// in\n    tag_79:\n      mload(0x40)\n      tag_81\n      swap2\n      swap1\n      tag_49\n      jump\t// in\n    tag_81:\n      mload(0x40)\n      dup1\n      swap2\n      sub\n      swap1\n      return\n        /* \"contracts/Founding Citizens NFT Sale.sol\":2996:3044  IPrivilegedListStorage public privilgedBuyerList */\n    tag_14:\n      tag_82\n      tag_83\n      jump\t// in\n    tag_82:\n      mload(0x40)\n      tag_84\n      swap2\n      swap1\n      tag_85\n      jump\t// in\n    tag_84:\n      mload(0x40)\n      dup1\n      swap2\n      sub\n      swap1\n      return\n        /* \"contracts/Founding Citizens NFT Sale.sol\":3142:3214  bytes32 public constant URI_MANAGER_ROLE = keccak256(\"URI_MANAGER_ROLE\") */\n    tag_15:\n      tag_86\n      tag_87\n      jump\t// in\n    tag_86:\n      mload(0x40)\n      tag_88\n      swap2\n      swap1\n      tag_49\n      jump\t// in\n    tag_88:\n      mload(0x40)\n      dup1\n      swap2\n      sub\n      swap1\n      return\n        /* \"contracts/Founding Citizens NFT Sale.sol\":5470:5609  function getNextUnusedToken() public view returns(uint) {\r... */\n    tag_16:\n      tag_89\n      tag_90\n      jump\t// in\n    tag_89:\n      mload(0x40)\n      tag_91\n      swap2\n      swap1\n      tag_64\n      jump\t// in\n    tag_91:\n      mload(0x40)\n      dup1\n      swap2\n      sub\n      swap1\n      return\n        /* \"contracts/Founding Citizens NFT Sale.sol\":2947:2989  IMintStorage public ERC1155storageContract */\n    tag_17:\n      tag_92\n      tag_93\n      jump\t// in\n    tag_92:\n      mload(0x40)\n      tag_94\n      swap2\n      swap1\n      tag_95\n      jump\t// in\n    tag_94:\n      mload(0x40)\n      dup1\n      swap2\n      sub\n      swap1\n      return\n        /* \"@openzeppelin/contracts@4.4.2/access/AccessControl.sol\":2894:3031  function hasRole(bytes32 role, address account) public view override returns (bool) {... */\n    tag_18:\n      tag_96\n      0x04\n      dup1\n      calldatasize\n      sub\n      dup2\n      add\n      swap1\n      tag_97\n      swap2\n      swap1\n      tag_54\n      jump\t// in\n    tag_97:\n      tag_98\n      jump\t// in\n    tag_96:\n      mload(0x40)\n      tag_99\n      swap2\n      swap1\n      tag_43\n      jump\t// in\n    tag_99:\n      mload(0x40)\n      dup1\n      swap2\n      sub\n      swap1\n      return\n        /* \"contracts/Founding Citizens NFT Sale.sol\":5752:6030  function setstartTime(uint unixTime) public {\r... */\n    tag_19:\n      tag_100\n      0x04\n      dup1\n      calldatasize\n      sub\n      dup2\n      add\n      swap1\n      tag_101\n      swap2\n      swap1\n      tag_70\n      jump\t// in\n    tag_101:\n      tag_102\n      jump\t// in\n    tag_100:\n      stop\n        /* \"@openzeppelin/contracts@4.4.2/access/AccessControl.sol\":2012:2061  bytes32 public constant DEFAULT_ADMIN_ROLE = 0x00 */\n    tag_20:\n      tag_103\n      tag_104\n      jump\t// in\n    tag_103:\n      mload(0x40)\n      tag_105\n      swap2\n      swap1\n      tag_49\n      jump\t// in\n    tag_105:\n      mload(0x40)\n      dup1\n      swap2\n      sub\n      swap1\n      return\n        /* \"contracts/Founding Citizens NFT Sale.sol\":3302:3384  bytes32 public constant POST_SALE_MINTER_ROLE = keccak256(\"POST_SALE_MINTER_ROLE\") */\n    tag_21:\n      tag_106\n      tag_107\n      jump\t// in\n    tag_106:\n      mload(0x40)\n      tag_108\n      swap2\n      swap1\n      tag_49\n      jump\t// in\n    tag_108:\n      mload(0x40)\n      dup1\n      swap2\n      sub\n      swap1\n      return\n        /* \"contracts/Founding Citizens NFT Sale.sol\":6320:6770  function calculateCustomPrice(address prospectiveBuyer, uint discountRate) \r... */\n    tag_22:\n      tag_109\n      0x04\n      dup1\n      calldatasize\n      sub\n      dup2\n      add\n      swap1\n      tag_110\n      swap2\n      swap1\n      tag_61\n      jump\t// in\n    tag_110:\n      tag_111\n      jump\t// in\n    tag_109:\n      mload(0x40)\n      tag_112\n      swap2\n      swap1\n      tag_64\n      jump\t// in\n    tag_112:\n      mload(0x40)\n      dup1\n      swap2\n      sub\n      swap1\n      return\n        /* \"contracts/Founding Citizens NFT Sale.sol\":7162:7307  function buyNFT() public pushesUpdate { //requires using existing balance\r... */\n    tag_23:\n      tag_113\n      tag_114\n      jump\t// in\n    tag_113:\n      stop\n        /* \"contracts/Founding Citizens NFT Sale.sol\":3837:3901  Update public lastUpdate = Update(10000, block.timestamp, false) */\n    tag_24:\n      tag_115\n      tag_116\n      jump\t// in\n    tag_115:\n      mload(0x40)\n      tag_117\n      swap4\n      swap3\n      swap2\n      swap1\n      tag_118\n      jump\t// in\n    tag_117:\n      mload(0x40)\n      dup1\n      swap2\n      sub\n      swap1\n      return\n        /* \"contracts/Founding Citizens NFT Sale.sol\":3051:3096  IUsdcStorage public usdcEscrowStorageContract */\n    tag_25:\n      tag_119\n      tag_120\n      jump\t// in\n    tag_119:\n      mload(0x40)\n      tag_121\n      swap2\n      swap1\n      tag_122\n      jump\t// in\n    tag_121:\n      mload(0x40)\n      dup1\n      swap2\n      sub\n      swap1\n      return\n        /* \"contracts/Founding Citizens NFT Sale.sol\":3103:3133  address public treasuryAddress */\n    tag_26:\n      tag_123\n      tag_124\n      jump\t// in\n    tag_123:\n      mload(0x40)\n      tag_125\n      swap2\n      swap1\n      tag_126\n      jump\t// in\n    tag_125:\n      mload(0x40)\n      dup1\n      swap2\n      sub\n      swap1\n      return\n        /* \"contracts/Founding Citizens NFT Sale.sol\":6038:6312  function setEndTime(uint unixTime) public {\r... */\n    tag_27:\n      tag_127\n      0x04\n      dup1\n      calldatasize\n      sub\n      dup2\n      add\n      swap1\n      tag_128\n      swap2\n      swap1\n      tag_70\n      jump\t// in\n    tag_128:\n      tag_129\n      jump\t// in\n    tag_127:\n      stop\n        /* \"@openzeppelin/contracts@4.4.2/access/AccessControl.sol\":4727:4874  function revokeRole(bytes32 role, address account) public virtual override onlyRole(getRoleAdmin(role)) {... */\n    tag_28:\n      tag_130\n      0x04\n      dup1\n      calldatasize\n      sub\n      dup2\n      add\n      swap1\n      tag_131\n      swap2\n      swap1\n      tag_54\n      jump\t// in\n    tag_131:\n      tag_132\n      jump\t// in\n    tag_130:\n      stop\n        /* \"contracts/Founding Citizens NFT Sale.sol\":5116:5462  function preLoadURIs(uint[] memory ids, string[] memory uris) \r... */\n    tag_29:\n      tag_133\n      0x04\n      dup1\n      calldatasize\n      sub\n      dup2\n      add\n      swap1\n      tag_134\n      swap2\n      swap1\n      tag_135\n      jump\t// in\n    tag_134:\n      tag_136\n      jump\t// in\n    tag_133:\n      stop\n        /* \"contracts/Founding Citizens NFT Sale.sol\":7686:8309  function mintRemainderToTreasuryAddress() external pushesUpdate {\r... */\n    tag_30:\n      tag_137\n      tag_138\n      jump\t// in\n    tag_137:\n      stop\n        /* \"@openzeppelin/contracts@4.4.2/access/AccessControl.sol\":2605:2807  function supportsInterface(bytes4 interfaceId) public view virtual override returns (bool) {... */\n    tag_41:\n        /* \"@openzeppelin/contracts@4.4.2/access/AccessControl.sol\":2690:2694  bool */\n      0x00\n        /* \"@openzeppelin/contracts@4.4.2/access/AccessControl.sol\":2728:2760  type(IAccessControl).interfaceId */\n      0x7965db0b00000000000000000000000000000000000000000000000000000000\n        /* \"@openzeppelin/contracts@4.4.2/access/AccessControl.sol\":2713:2760  interfaceId == type(IAccessControl).interfaceId */\n      not(0xffffffffffffffffffffffffffffffffffffffffffffffffffffffff)\n      and\n        /* \"@openzeppelin/contracts@4.4.2/access/AccessControl.sol\":2713:2724  interfaceId */\n      dup3\n        /* \"@openzeppelin/contracts@4.4.2/access/AccessControl.sol\":2713:2760  interfaceId == type(IAccessControl).interfaceId */\n      not(0xffffffffffffffffffffffffffffffffffffffffffffffffffffffff)\n      and\n      eq\n        /* \"@openzeppelin/contracts@4.4.2/access/AccessControl.sol\":2713:2800  interfaceId == type(IAccessControl).interfaceId || super.supportsInterface(interfaceId) */\n      dup1\n      tag_140\n      jumpi\n      pop\n        /* \"@openzeppelin/contracts@4.4.2/access/AccessControl.sol\":2764:2800  super.supportsInterface(interfaceId) */\n      tag_141\n        /* \"@openzeppelin/contracts@4.4.2/access/AccessControl.sol\":2788:2799  interfaceId */\n      dup3\n        /* \"@openzeppelin/contracts@4.4.2/access/AccessControl.sol\":2764:2787  super.supportsInterface */\n      tag_142\n        /* \"@openzeppelin/contracts@4.4.2/access/AccessControl.sol\":2764:2800  super.supportsInterface(interfaceId) */\n      jump\t// in\n    tag_141:\n        /* \"@openzeppelin/contracts@4.4.2/access/AccessControl.sol\":2713:2800  interfaceId == type(IAccessControl).interfaceId || super.supportsInterface(interfaceId) */\n    tag_140:\n        /* \"@openzeppelin/contracts@4.4.2/access/AccessControl.sol\":2706:2800  return interfaceId == type(IAccessControl).interfaceId || super.supportsInterface(interfaceId) */\n      swap1\n      pop\n        /* \"@openzeppelin/contracts@4.4.2/access/AccessControl.sol\":2605:2807  function supportsInterface(bytes4 interfaceId) public view virtual override returns (bool) {... */\n      swap2\n      swap1\n      pop\n      jump\t// out\n        /* \"@openzeppelin/contracts@4.4.2/access/AccessControl.sol\":3977:4098  function getRoleAdmin(bytes32 role) public view override returns (bytes32) {... */\n    tag_47:\n        /* \"@openzeppelin/contracts@4.4.2/access/AccessControl.sol\":4043:4050  bytes32 */\n      0x00\n        /* \"@openzeppelin/contracts@4.4.2/access/AccessControl.sol\":4069:4075  _roles */\n      dup1\n        /* \"@openzeppelin/contracts@4.4.2/access/AccessControl.sol\":4069:4081  _roles[role] */\n      0x00\n        /* \"@openzeppelin/contracts@4.4.2/access/AccessControl.sol\":4076:4080  role */\n      dup4\n        /* \"@openzeppelin/contracts@4.4.2/access/AccessControl.sol\":4069:4081  _roles[role] */\n      dup2\n      mstore\n      0x20\n      add\n      swap1\n      dup2\n      mstore\n      0x20\n      add\n      0x00\n      keccak256\n        /* \"@openzeppelin/contracts@4.4.2/access/AccessControl.sol\":4069:4091  _roles[role].adminRole */\n      0x01\n      add\n      sload\n        /* \"@openzeppelin/contracts@4.4.2/access/AccessControl.sol\":4062:4091  return _roles[role].adminRole */\n      swap1\n      pop\n        /* \"@openzeppelin/contracts@4.4.2/access/AccessControl.sol\":3977:4098  function getRoleAdmin(bytes32 role) public view override returns (bytes32) {... */\n      swap2\n      swap1\n      pop\n      jump\t// out\n        /* \"contracts/Founding Citizens NFT Sale.sol\":8317:8930  function mintNextToTreasuryAddress() public pushesUpdate {\r... */\n    tag_51:\n        /* \"contracts/Founding Citizens NFT Sale.sol\":4084:4097  updateState() */\n      tag_145\n        /* \"contracts/Founding Citizens NFT Sale.sol\":4084:4095  updateState */\n      tag_146\n        /* \"contracts/Founding Citizens NFT Sale.sol\":4084:4097  updateState() */\n      jump\t// in\n    tag_145:\n        /* \"contracts/Founding Citizens NFT Sale.sol\":8407:8451  hasRole(POST_SALE_MINTER_ROLE, _msgSender()) */\n      tag_148\n        /* \"contracts/Founding Citizens NFT Sale.sol\":3350:3384  keccak256(\"POST_SALE_MINTER_ROLE\") */\n      0xbd1d99152bdba889f82a18def1423aac13658b88b6ea933ffd0b3a6a1dd5cff9\n        /* \"contracts/Founding Citizens NFT Sale.sol\":8438:8450  _msgSender() */\n      tag_149\n        /* \"contracts/Founding Citizens NFT Sale.sol\":8438:8448  _msgSender */\n      tag_150\n        /* \"contracts/Founding Citizens NFT Sale.sol\":8438:8450  _msgSender() */\n      jump\t// in\n    tag_149:\n        /* \"contracts/Founding Citizens NFT Sale.sol\":8407:8414  hasRole */\n      tag_98\n        /* \"contracts/Founding Citizens NFT Sale.sol\":8407:8451  hasRole(POST_SALE_MINTER_ROLE, _msgSender()) */\n      jump\t// in\n    tag_148:\n        /* \"contracts/Founding Citizens NFT Sale.sol\":8407:8510  hasRole(POST_SALE_MINTER_ROLE, _msgSender()) || \r... */\n      dup1\n      tag_151\n      jumpi\n      pop\n        /* \"contracts/Founding Citizens NFT Sale.sol\":8469:8510  hasRole(DEFAULT_ADMIN_ROLE, _msgSender()) */\n      tag_152\n        /* \"@openzeppelin/contracts@4.4.2/access/AccessControl.sol\":2057:2061  0x00 */\n      0x00\n        /* \"contracts/Founding Citizens NFT Sale.sol\":8477:8495  DEFAULT_ADMIN_ROLE */\n      dup1\n      shl\n        /* \"contracts/Founding Citizens NFT Sale.sol\":8497:8509  _msgSender() */\n      tag_153\n        /* \"contracts/Founding Citizens NFT Sale.sol\":8497:8507  _msgSender */\n      tag_150\n        /* \"contracts/Founding Citizens NFT Sale.sol\":8497:8509  _msgSender() */\n      jump\t// in\n    tag_153:\n        /* \"contracts/Founding Citizens NFT Sale.sol\":8469:8476  hasRole */\n      tag_98\n        /* \"contracts/Founding Citizens NFT Sale.sol\":8469:8510  hasRole(DEFAULT_ADMIN_ROLE, _msgSender()) */\n      jump\t// in\n    tag_152:\n        /* \"contracts/Founding Citizens NFT Sale.sol\":8407:8510  hasRole(POST_SALE_MINTER_ROLE, _msgSender()) || \r... */\n    tag_151:\n        /* \"contracts/Founding Citizens NFT Sale.sol\":8385:8577  require(\r... */\n      tag_154\n      jumpi\n      mload(0x40)\n      0x08c379a000000000000000000000000000000000000000000000000000000000\n      dup2\n      mstore\n      0x04\n      add\n      tag_155\n      swap1\n      tag_156\n      jump\t// in\n    tag_155:\n      mload(0x40)\n      dup1\n      swap2\n      sub\n      swap1\n      revert\n    tag_154:\n        /* \"contracts/Founding Citizens NFT Sale.sol\":8628:8635  endTime */\n      sload(0x06)\n        /* \"contracts/Founding Citizens NFT Sale.sol\":8610:8625  block.timestamp */\n      timestamp\n        /* \"contracts/Founding Citizens NFT Sale.sol\":8610:8635  block.timestamp > endTime */\n      gt\n        /* \"contracts/Founding Citizens NFT Sale.sol\":8610:8661  block.timestamp > endTime && !lastUpdate.saleIsLive */\n      dup1\n      iszero\n      tag_157\n      jumpi\n      pop\n        /* \"contracts/Founding Citizens NFT Sale.sol\":8640:8650  lastUpdate */\n      0x09\n        /* \"contracts/Founding Citizens NFT Sale.sol\":8640:8661  lastUpdate.saleIsLive */\n      0x02\n      add\n      0x00\n      swap1\n      sload\n      swap1\n      0x0100\n      exp\n      swap1\n      div\n      0xff\n      and\n        /* \"contracts/Founding Citizens NFT Sale.sol\":8639:8661  !lastUpdate.saleIsLive */\n      iszero\n        /* \"contracts/Founding Citizens NFT Sale.sol\":8610:8661  block.timestamp > endTime && !lastUpdate.saleIsLive */\n    tag_157:\n        /* \"contracts/Founding Citizens NFT Sale.sol\":8588:8744  require(\r... */\n      tag_158\n      jumpi\n      mload(0x40)\n      0x08c379a000000000000000000000000000000000000000000000000000000000\n      dup2\n      mstore\n      0x04\n      add\n      tag_159\n      swap1\n      tag_160\n      jump\t// in\n    tag_159:\n      mload(0x40)\n      dup1\n      swap2\n      sub\n      swap1\n      revert\n    tag_158:\n        /* \"contracts/Founding Citizens NFT Sale.sol\":8755:8770  uint leftToMint */\n      0x00\n        /* \"contracts/Founding Citizens NFT Sale.sol\":8812:8813  1 */\n      0x01\n        /* \"contracts/Founding Citizens NFT Sale.sol\":8791:8811  getNextUnusedToken() */\n      tag_161\n        /* \"contracts/Founding Citizens NFT Sale.sol\":8791:8809  getNextUnusedToken */\n      tag_90\n        /* \"contracts/Founding Citizens NFT Sale.sol\":8791:8811  getNextUnusedToken() */\n      jump\t// in\n    tag_161:\n        /* \"contracts/Founding Citizens NFT Sale.sol\":8791:8813  getNextUnusedToken()-1 */\n      tag_162\n      swap2\n      swap1\n      tag_163\n      jump\t// in\n    tag_162:\n        /* \"contracts/Founding Citizens NFT Sale.sol\":8773:8787  getMaxSupply() */\n      tag_164\n        /* \"contracts/Founding Citizens NFT Sale.sol\":8773:8785  getMaxSupply */\n      tag_66\n        /* \"contracts/Founding Citizens NFT Sale.sol\":8773:8787  getMaxSupply() */\n      jump\t// in\n    tag_164:\n        /* \"contracts/Founding Citizens NFT Sale.sol\":8773:8814  getMaxSupply() - (getNextUnusedToken()-1) */\n      tag_165\n      swap2\n      swap1\n      tag_163\n      jump\t// in\n    tag_165:\n        /* \"contracts/Founding Citizens NFT Sale.sol\":8755:8814  uint leftToMint = getMaxSupply() - (getNextUnusedToken()-1) */\n      swap1\n      pop\n        /* \"contracts/Founding Citizens NFT Sale.sol\":8846:8847  0 */\n      0x00\n        /* \"contracts/Founding Citizens NFT Sale.sol\":8833:8843  leftToMint */\n      dup2\n        /* \"contracts/Founding Citizens NFT Sale.sol\":8833:8847  leftToMint > 0 */\n      gt\n        /* \"contracts/Founding Citizens NFT Sale.sol\":8825:8874  require(leftToMint > 0, \"No tokens left to mint\") */\n      tag_166\n      jumpi\n      mload(0x40)\n      0x08c379a000000000000000000000000000000000000000000000000000000000\n      dup2\n      mstore\n      0x04\n      add\n      tag_167\n      swap1\n      tag_168\n      jump\t// in\n    tag_167:\n      mload(0x40)\n      dup1\n      swap2\n      sub\n      swap1\n      revert\n    tag_166:\n        /* \"contracts/Founding Citizens NFT Sale.sol\":8885:8922  mintNextNftToAddress(treasuryAddress) */\n      tag_169\n        /* \"contracts/Founding Citizens NFT Sale.sol\":8906:8921  treasuryAddress */\n      0x04\n      0x00\n      swap1\n      sload\n      swap1\n      0x0100\n      exp\n      swap1\n      div\n      0xffffffffffffffffffffffffffffffffffffffff\n      and\n        /* \"contracts/Founding Citizens NFT Sale.sol\":8885:8905  mintNextNftToAddress */\n      tag_170\n        /* \"contracts/Founding Citizens NFT Sale.sol\":8885:8922  mintNextNftToAddress(treasuryAddress) */\n      jump\t// in\n    tag_169:\n        /* \"contracts/Founding Citizens NFT Sale.sol\":4108:4109  _ */\n      pop\n        /* \"contracts/Founding Citizens NFT Sale.sol\":8317:8930  function mintNextToTreasuryAddress() public pushesUpdate {\r... */\n      jump\t// out\n        /* \"@openzeppelin/contracts@4.4.2/access/AccessControl.sol\":4348:4493  function grantRole(bytes32 role, address account) public virtual override onlyRole(getRoleAdmin(role)) {... */\n    tag_55:\n        /* \"@openzeppelin/contracts@4.4.2/access/AccessControl.sol\":4431:4449  getRoleAdmin(role) */\n      tag_171\n        /* \"@openzeppelin/contracts@4.4.2/access/AccessControl.sol\":4444:4448  role */\n      dup3\n        /* \"@openzeppelin/contracts@4.4.2/access/AccessControl.sol\":4431:4443  getRoleAdmin */\n      tag_47\n        /* \"@openzeppelin/contracts@4.4.2/access/AccessControl.sol\":4431:4449  getRoleAdmin(role) */\n      jump\t// in\n    tag_171:\n        /* \"@openzeppelin/contracts@4.4.2/access/AccessControl.sol\":2490:2520  _checkRole(role, _msgSender()) */\n      tag_173\n        /* \"@openzeppelin/contracts@4.4.2/access/AccessControl.sol\":2501:2505  role */\n      dup2\n        /* \"@openzeppelin/contracts@4.4.2/access/AccessControl.sol\":2507:2519  _msgSender() */\n      tag_174\n        /* \"@openzeppelin/contracts@4.4.2/access/AccessControl.sol\":2507:2517  _msgSender */\n      tag_150\n        /* \"@openzeppelin/contracts@4.4.2/access/AccessControl.sol\":2507:2519  _msgSender() */\n      jump\t// in\n    tag_174:\n        /* \"@openzeppelin/contracts@4.4.2/access/AccessControl.sol\":2490:2500  _checkRole */\n      tag_175\n        /* \"@openzeppelin/contracts@4.4.2/access/AccessControl.sol\":2490:2520  _checkRole(role, _msgSender()) */\n      jump\t// in\n    tag_173:\n        /* \"@openzeppelin/contracts@4.4.2/access/AccessControl.sol\":4461:4486  _grantRole(role, account) */\n      tag_177\n        /* \"@openzeppelin/contracts@4.4.2/access/AccessControl.sol\":4472:4476  role */\n      dup4\n        /* \"@openzeppelin/contracts@4.4.2/access/AccessControl.sol\":4478:4485  account */\n      dup4\n        /* \"@openzeppelin/contracts@4.4.2/access/AccessControl.sol\":4461:4471  _grantRole */\n      tag_178\n        /* \"@openzeppelin/contracts@4.4.2/access/AccessControl.sol\":4461:4486  _grantRole(role, account) */\n      jump\t// in\n    tag_177:\n        /* \"@openzeppelin/contracts@4.4.2/access/AccessControl.sol\":4348:4493  function grantRole(bytes32 role, address account) public virtual override onlyRole(getRoleAdmin(role)) {... */\n      pop\n      pop\n      pop\n      jump\t// out\n        /* \"@openzeppelin/contracts@4.4.2/access/AccessControl.sol\":5365:5579  function renounceRole(bytes32 role, address account) public virtual override {... */\n    tag_58:\n        /* \"@openzeppelin/contracts@4.4.2/access/AccessControl.sol\":5471:5483  _msgSender() */\n      tag_180\n        /* \"@openzeppelin/contracts@4.4.2/access/AccessControl.sol\":5471:5481  _msgSender */\n      tag_150\n        /* \"@openzeppelin/contracts@4.4.2/access/AccessControl.sol\":5471:5483  _msgSender() */\n      jump\t// in\n    tag_180:\n        /* \"@openzeppelin/contracts@4.4.2/access/AccessControl.sol\":5460:5483  account == _msgSender() */\n      0xffffffffffffffffffffffffffffffffffffffff\n      and\n        /* \"@openzeppelin/contracts@4.4.2/access/AccessControl.sol\":5460:5467  account */\n      dup2\n        /* \"@openzeppelin/contracts@4.4.2/access/AccessControl.sol\":5460:5483  account == _msgSender() */\n      0xffffffffffffffffffffffffffffffffffffffff\n      and\n      eq\n        /* \"@openzeppelin/contracts@4.4.2/access/AccessControl.sol\":5452:5535  require(account == _msgSender(), \"AccessControl: can only renounce roles for self\") */\n      tag_181\n      jumpi\n      mload(0x40)\n      0x08c379a000000000000000000000000000000000000000000000000000000000\n      dup2\n      mstore\n      0x04\n      add\n      tag_182\n      swap1\n      tag_183\n      jump\t// in\n    tag_182:\n      mload(0x40)\n      dup1\n      swap2\n      sub\n      swap1\n      revert\n    tag_181:\n        /* \"@openzeppelin/contracts@4.4.2/access/AccessControl.sol\":5546:5572  _revokeRole(role, account) */\n      tag_184\n        /* \"@openzeppelin/contracts@4.4.2/access/AccessControl.sol\":5558:5562  role */\n      dup3\n        /* \"@openzeppelin/contracts@4.4.2/access/AccessControl.sol\":5564:5571  account */\n      dup3\n        /* \"@openzeppelin/contracts@4.4.2/access/AccessControl.sol\":5546:5557  _revokeRole */\n      tag_185\n        /* \"@openzeppelin/contracts@4.4.2/access/AccessControl.sol\":5546:5572  _revokeRole(role, account) */\n      jump\t// in\n    tag_184:\n        /* \"@openzeppelin/contracts@4.4.2/access/AccessControl.sol\":5365:5579  function renounceRole(bytes32 role, address account) public virtual override {... */\n      pop\n      pop\n      jump\t// out\n        /* \"contracts/Founding Citizens NFT Sale.sol\":6778:6982  function updateAndCalculateCustomPrice(address prospectiveBuyer, uint discountRate) \r... */\n    tag_62:\n        /* \"contracts/Founding Citizens NFT Sale.sol\":6898:6902  uint */\n      0x00\n        /* \"contracts/Founding Citizens NFT Sale.sol\":4084:4097  updateState() */\n      tag_187\n        /* \"contracts/Founding Citizens NFT Sale.sol\":4084:4095  updateState */\n      tag_146\n        /* \"contracts/Founding Citizens NFT Sale.sol\":4084:4097  updateState() */\n      jump\t// in\n    tag_187:\n        /* \"contracts/Founding Citizens NFT Sale.sol\":6922:6974  calculateCustomPrice(prospectiveBuyer, discountRate) */\n      tag_189\n        /* \"contracts/Founding Citizens NFT Sale.sol\":6943:6959  prospectiveBuyer */\n      dup4\n        /* \"contracts/Founding Citizens NFT Sale.sol\":6961:6973  discountRate */\n      dup4\n        /* \"contracts/Founding Citizens NFT Sale.sol\":6922:6942  calculateCustomPrice */\n      tag_111\n        /* \"contracts/Founding Citizens NFT Sale.sol\":6922:6974  calculateCustomPrice(prospectiveBuyer, discountRate) */\n      jump\t// in\n    tag_189:\n        /* \"contracts/Founding Citizens NFT Sale.sol\":6915:6974  return calculateCustomPrice(prospectiveBuyer, discountRate) */\n      swap1\n      pop\n        /* \"contracts/Founding Citizens NFT Sale.sol\":6778:6982  function updateAndCalculateCustomPrice(address prospectiveBuyer, uint discountRate) \r... */\n      swap3\n      swap2\n      pop\n      pop\n      jump\t// out\n        /* \"contracts/Founding Citizens NFT Sale.sol\":5617:5744  function getMaxSupply() public view returns(uint) {\r... */\n    tag_66:\n        /* \"contracts/Founding Citizens NFT Sale.sol\":5661:5665  uint */\n      0x00\n        /* \"contracts/Founding Citizens NFT Sale.sol\":5698:5720  ERC1155storageContract */\n      0x01\n      0x00\n      swap1\n      sload\n      swap1\n      0x0100\n      exp\n      swap1\n      div\n      0xffffffffffffffffffffffffffffffffffffffff\n      and\n        /* \"contracts/Founding Citizens NFT Sale.sol\":5685:5734  IMintStorage(ERC1155storageContract).getMaxSupply */\n      0xffffffffffffffffffffffffffffffffffffffff\n      and\n      0x4c0f38c2\n        /* \"contracts/Founding Citizens NFT Sale.sol\":5685:5736  IMintStorage(ERC1155storageContract).getMaxSupply() */\n      mload(0x40)\n      dup2\n      0xffffffff\n      and\n      0xe0\n      shl\n      dup2\n      mstore\n      0x04\n      add\n      0x20\n      mload(0x40)\n      dup1\n      dup4\n      sub\n      dup2\n      dup7\n      dup1\n      extcodesize\n      iszero\n      dup1\n      iszero\n      tag_191\n      jumpi\n      0x00\n      dup1\n      revert\n    tag_191:\n      pop\n      gas\n      staticcall\n      iszero\n      dup1\n      iszero\n      tag_193\n      jumpi\n      returndatasize\n      0x00\n      dup1\n      returndatacopy\n      revert(0x00, returndatasize)\n    tag_193:\n      pop\n      pop\n      pop\n      pop\n      mload(0x40)\n      returndatasize\n      not(0x1f)\n      0x1f\n      dup3\n      add\n      and\n      dup3\n      add\n      dup1\n      0x40\n      mstore\n      pop\n      dup2\n      add\n      swap1\n      tag_194\n      swap2\n      swap1\n      tag_195\n      jump\t// in\n    tag_194:\n        /* \"contracts/Founding Citizens NFT Sale.sol\":5678:5736  return IMintStorage(ERC1155storageContract).getMaxSupply() */\n      swap1\n      pop\n        /* \"contracts/Founding Citizens NFT Sale.sol\":5617:5744  function getMaxSupply() public view returns(uint) {\r... */\n      swap1\n      jump\t// out\n        /* \"contracts/Founding Citizens NFT Sale.sol\":7315:7485  function buyNftWithDiscount(uint discountRate) public pushesUpdate {\r... */\n    tag_71:\n        /* \"contracts/Founding Citizens NFT Sale.sol\":4084:4097  updateState() */\n      tag_197\n        /* \"contracts/Founding Citizens NFT Sale.sol\":4084:4095  updateState */\n      tag_146\n        /* \"contracts/Founding Citizens NFT Sale.sol\":4084:4097  updateState() */\n      jump\t// in\n    tag_197:\n        /* \"contracts/Founding Citizens NFT Sale.sol\":7393:7403  uint price */\n      0x00\n        /* \"contracts/Founding Citizens NFT Sale.sol\":7406:7452  calculateCustomPrice(msg.sender, discountRate) */\n      tag_199\n        /* \"contracts/Founding Citizens NFT Sale.sol\":7427:7437  msg.sender */\n      caller\n        /* \"contracts/Founding Citizens NFT Sale.sol\":7439:7451  discountRate */\n      dup4\n        /* \"contracts/Founding Citizens NFT Sale.sol\":7406:7426  calculateCustomPrice */\n      tag_111\n        /* \"contracts/Founding Citizens NFT Sale.sol\":7406:7452  calculateCustomPrice(msg.sender, discountRate) */\n      jump\t// in\n    tag_199:\n        /* \"contracts/Founding Citizens NFT Sale.sol\":7393:7452  uint price = calculateCustomPrice(msg.sender, discountRate) */\n      swap1\n      pop\n        /* \"contracts/Founding Citizens NFT Sale.sol\":7463:7477  _buyNFT(price) */\n      tag_200\n        /* \"contracts/Founding Citizens NFT Sale.sol\":7471:7476  price */\n      dup2\n        /* \"contracts/Founding Citizens NFT Sale.sol\":7463:7470  _buyNFT */\n      tag_201\n        /* \"contracts/Founding Citizens NFT Sale.sol\":7463:7477  _buyNFT(price) */\n      jump\t// in\n    tag_200:\n        /* \"contracts/Founding Citizens NFT Sale.sol\":4108:4109  _ */\n      pop\n        /* \"contracts/Founding Citizens NFT Sale.sol\":7315:7485  function buyNftWithDiscount(uint discountRate) public pushesUpdate {\r... */\n      pop\n      jump\t// out\n        /* \"contracts/Founding Citizens NFT Sale.sol\":8938:9661  function mintNextManyToTreasuryAddress(uint numberToMint) public pushesUpdate {\r... */\n    tag_74:\n        /* \"contracts/Founding Citizens NFT Sale.sol\":4084:4097  updateState() */\n      tag_203\n        /* \"contracts/Founding Citizens NFT Sale.sol\":4084:4095  updateState */\n      tag_146\n        /* \"contracts/Founding Citizens NFT Sale.sol\":4084:4097  updateState() */\n      jump\t// in\n    tag_203:\n        /* \"contracts/Founding Citizens NFT Sale.sol\":9049:9093  hasRole(POST_SALE_MINTER_ROLE, _msgSender()) */\n      tag_205\n        /* \"contracts/Founding Citizens NFT Sale.sol\":3350:3384  keccak256(\"POST_SALE_MINTER_ROLE\") */\n      0xbd1d99152bdba889f82a18def1423aac13658b88b6ea933ffd0b3a6a1dd5cff9\n        /* \"contracts/Founding Citizens NFT Sale.sol\":9080:9092  _msgSender() */\n      tag_206\n        /* \"contracts/Founding Citizens NFT Sale.sol\":9080:9090  _msgSender */\n      tag_150\n        /* \"contracts/Founding Citizens NFT Sale.sol\":9080:9092  _msgSender() */\n      jump\t// in\n    tag_206:\n        /* \"contracts/Founding Citizens NFT Sale.sol\":9049:9056  hasRole */\n      tag_98\n        /* \"contracts/Founding Citizens NFT Sale.sol\":9049:9093  hasRole(POST_SALE_MINTER_ROLE, _msgSender()) */\n      jump\t// in\n    tag_205:\n        /* \"contracts/Founding Citizens NFT Sale.sol\":9049:9152  hasRole(POST_SALE_MINTER_ROLE, _msgSender()) || \r... */\n      dup1\n      tag_207\n      jumpi\n      pop\n        /* \"contracts/Founding Citizens NFT Sale.sol\":9111:9152  hasRole(DEFAULT_ADMIN_ROLE, _msgSender()) */\n      tag_208\n        /* \"@openzeppelin/contracts@4.4.2/access/AccessControl.sol\":2057:2061  0x00 */\n      0x00\n        /* \"contracts/Founding Citizens NFT Sale.sol\":9119:9137  DEFAULT_ADMIN_ROLE */\n      dup1\n      shl\n        /* \"contracts/Founding Citizens NFT Sale.sol\":9139:9151  _msgSender() */\n      tag_209\n        /* \"contracts/Founding Citizens NFT Sale.sol\":9139:9149  _msgSender */\n      tag_150\n        /* \"contracts/Founding Citizens NFT Sale.sol\":9139:9151  _msgSender() */\n      jump\t// in\n    tag_209:\n        /* \"contracts/Founding Citizens NFT Sale.sol\":9111:9118  hasRole */\n      tag_98\n        /* \"contracts/Founding Citizens NFT Sale.sol\":9111:9152  hasRole(DEFAULT_ADMIN_ROLE, _msgSender()) */\n      jump\t// in\n    tag_208:\n        /* \"contracts/Founding Citizens NFT Sale.sol\":9049:9152  hasRole(POST_SALE_MINTER_ROLE, _msgSender()) || \r... */\n    tag_207:\n        /* \"contracts/Founding Citizens NFT Sale.sol\":9027:9219  require(\r... */\n      tag_210\n      jumpi\n      mload(0x40)\n      0x08c379a000000000000000000000000000000000000000000000000000000000\n      dup2\n      mstore\n      0x04\n      add\n      tag_211\n      swap1\n      tag_156\n      jump\t// in\n    tag_211:\n      mload(0x40)\n      dup1\n      swap2\n      sub\n      swap1\n      revert\n    tag_210:\n        /* \"contracts/Founding Citizens NFT Sale.sol\":9270:9277  endTime */\n      sload(0x06)\n        /* \"contracts/Founding Citizens NFT Sale.sol\":9252:9267  block.timestamp */\n      timestamp\n        /* \"contracts/Founding Citizens NFT Sale.sol\":9252:9277  block.timestamp > endTime */\n      gt\n        /* \"contracts/Founding Citizens NFT Sale.sol\":9252:9303  block.timestamp > endTime && !lastUpdate.saleIsLive */\n      dup1\n      iszero\n      tag_212\n      jumpi\n      pop\n        /* \"contracts/Founding Citizens NFT Sale.sol\":9282:9292  lastUpdate */\n      0x09\n        /* \"contracts/Founding Citizens NFT Sale.sol\":9282:9303  lastUpdate.saleIsLive */\n      0x02\n      add\n      0x00\n      swap1\n      sload\n      swap1\n      0x0100\n      exp\n      swap1\n      div\n      0xff\n      and\n        /* \"contracts/Founding Citizens NFT Sale.sol\":9281:9303  !lastUpdate.saleIsLive */\n      iszero\n        /* \"contracts/Founding Citizens NFT Sale.sol\":9252:9303  block.timestamp > endTime && !lastUpdate.saleIsLive */\n    tag_212:\n        /* \"contracts/Founding Citizens NFT Sale.sol\":9230:9386  require(\r... */\n      tag_213\n      jumpi\n      mload(0x40)\n      0x08c379a000000000000000000000000000000000000000000000000000000000\n      dup2\n      mstore\n      0x04\n      add\n      tag_214\n      swap1\n      tag_160\n      jump\t// in\n    tag_214:\n      mload(0x40)\n      dup1\n      swap2\n      sub\n      swap1\n      revert\n    tag_213:\n        /* \"contracts/Founding Citizens NFT Sale.sol\":9397:9412  uint leftToMint */\n      0x00\n        /* \"contracts/Founding Citizens NFT Sale.sol\":9454:9455  1 */\n      0x01\n        /* \"contracts/Founding Citizens NFT Sale.sol\":9433:9453  getNextUnusedToken() */\n      tag_215\n        /* \"contracts/Founding Citizens NFT Sale.sol\":9433:9451  getNextUnusedToken */\n      tag_90\n        /* \"contracts/Founding Citizens NFT Sale.sol\":9433:9453  getNextUnusedToken() */\n      jump\t// in\n    tag_215:\n        /* \"contracts/Founding Citizens NFT Sale.sol\":9433:9455  getNextUnusedToken()-1 */\n      tag_216\n      swap2\n      swap1\n      tag_163\n      jump\t// in\n    tag_216:\n        /* \"contracts/Founding Citizens NFT Sale.sol\":9415:9429  getMaxSupply() */\n      tag_217\n        /* \"contracts/Founding Citizens NFT Sale.sol\":9415:9427  getMaxSupply */\n      tag_66\n        /* \"contracts/Founding Citizens NFT Sale.sol\":9415:9429  getMaxSupply() */\n      jump\t// in\n    tag_217:\n        /* \"contracts/Founding Citizens NFT Sale.sol\":9415:9456  getMaxSupply() - (getNextUnusedToken()-1) */\n      tag_218\n      swap2\n      swap1\n      tag_163\n      jump\t// in\n    tag_218:\n        /* \"contracts/Founding Citizens NFT Sale.sol\":9397:9456  uint leftToMint = getMaxSupply() - (getNextUnusedToken()-1) */\n      swap1\n      pop\n        /* \"contracts/Founding Citizens NFT Sale.sol\":9480:9494  Math.max(2, 3) */\n      tag_219\n        /* \"contracts/Founding Citizens NFT Sale.sol\":9489:9490  2 */\n      0x02\n        /* \"contracts/Founding Citizens NFT Sale.sol\":9492:9493  3 */\n      0x03\n        /* \"contracts/Founding Citizens NFT Sale.sol\":9480:9488  Math.max */\n      tag_220\n        /* \"contracts/Founding Citizens NFT Sale.sol\":9480:9494  Math.max(2, 3) */\n      jump\t// in\n    tag_219:\n        /* \"contracts/Founding Citizens NFT Sale.sol\":9467:9494  leftToMint = Math.max(2, 3) */\n      swap1\n      pop\n        /* \"contracts/Founding Citizens NFT Sale.sol\":9505:9606  for (; leftToMint > 0; leftToMint--) {\r... */\n    tag_221:\n        /* \"contracts/Founding Citizens NFT Sale.sol\":9525:9526  0 */\n      0x00\n        /* \"contracts/Founding Citizens NFT Sale.sol\":9512:9522  leftToMint */\n      dup2\n        /* \"contracts/Founding Citizens NFT Sale.sol\":9512:9526  leftToMint > 0 */\n      gt\n        /* \"contracts/Founding Citizens NFT Sale.sol\":9505:9606  for (; leftToMint > 0; leftToMint--) {\r... */\n      iszero\n      tag_222\n      jumpi\n        /* \"contracts/Founding Citizens NFT Sale.sol\":9557:9594  mintNextNftToAddress(treasuryAddress) */\n      tag_224\n        /* \"contracts/Founding Citizens NFT Sale.sol\":9578:9593  treasuryAddress */\n      0x04\n      0x00\n      swap1\n      sload\n      swap1\n      0x0100\n      exp\n      swap1\n      div\n      0xffffffffffffffffffffffffffffffffffffffff\n      and\n        /* \"contracts/Founding Citizens NFT Sale.sol\":9557:9577  mintNextNftToAddress */\n      tag_170\n        /* \"contracts/Founding Citizens NFT Sale.sol\":9557:9594  mintNextNftToAddress(treasuryAddress) */\n      jump\t// in\n    tag_224:\n        /* \"contracts/Founding Citizens NFT Sale.sol\":9528:9540  leftToMint-- */\n      dup1\n      dup1\n      tag_225\n      swap1\n      tag_226\n      jump\t// in\n    tag_225:\n      swap2\n      pop\n      pop\n        /* \"contracts/Founding Citizens NFT Sale.sol\":9505:9606  for (; leftToMint > 0; leftToMint--) {\r... */\n      jump(tag_221)\n    tag_222:\n        /* \"contracts/Founding Citizens NFT Sale.sol\":9616:9653  mintNextNftToAddress(treasuryAddress) */\n      tag_227\n        /* \"contracts/Founding Citizens NFT Sale.sol\":9637:9652  treasuryAddress */\n      0x04\n      0x00\n      swap1\n      sload\n      swap1\n      0x0100\n      exp\n      swap1\n      div\n      0xffffffffffffffffffffffffffffffffffffffff\n      and\n        /* \"contracts/Founding Citizens NFT Sale.sol\":9616:9636  mintNextNftToAddress */\n      tag_170\n        /* \"contracts/Founding Citizens NFT Sale.sol\":9616:9653  mintNextNftToAddress(treasuryAddress) */\n      jump\t// in\n    tag_227:\n        /* \"contracts/Founding Citizens NFT Sale.sol\":4108:4109  _ */\n      pop\n        /* \"contracts/Founding Citizens NFT Sale.sol\":8938:9661  function mintNextManyToTreasuryAddress(uint numberToMint) public pushesUpdate {\r... */\n      pop\n      jump\t// out\n        /* \"contracts/Founding Citizens NFT Sale.sol\":4802:4969  function setStorageContractAddress(address storageAddress) public onlyRole(DEFAULT_ADMIN_ROLE) {\r... */\n    tag_78:\n        /* \"@openzeppelin/contracts@4.4.2/access/AccessControl.sol\":2057:2061  0x00 */\n      0x00\n        /* \"contracts/Founding Citizens NFT Sale.sol\":4877:4895  DEFAULT_ADMIN_ROLE */\n      dup1\n      shl\n        /* \"@openzeppelin/contracts@4.4.2/access/AccessControl.sol\":2490:2520  _checkRole(role, _msgSender()) */\n      tag_229\n        /* \"@openzeppelin/contracts@4.4.2/access/AccessControl.sol\":2501:2505  role */\n      dup2\n        /* \"@openzeppelin/contracts@4.4.2/access/AccessControl.sol\":2507:2519  _msgSender() */\n      tag_230\n        /* \"@openzeppelin/contracts@4.4.2/access/AccessControl.sol\":2507:2517  _msgSender */\n      tag_150\n        /* \"@openzeppelin/contracts@4.4.2/access/AccessControl.sol\":2507:2519  _msgSender() */\n      jump\t// in\n    tag_230:\n        /* \"@openzeppelin/contracts@4.4.2/access/AccessControl.sol\":2490:2500  _checkRole */\n      tag_175\n        /* \"@openzeppelin/contracts@4.4.2/access/AccessControl.sol\":2490:2520  _checkRole(role, _msgSender()) */\n      jump\t// in\n    tag_229:\n        /* \"contracts/Founding Citizens NFT Sale.sol\":4946:4960  storageAddress */\n      dup2\n        /* \"contracts/Founding Citizens NFT Sale.sol\":4908:4930  ERC1155storageContract */\n      0x01\n      0x00\n        /* \"contracts/Founding Citizens NFT Sale.sol\":4908:4961  ERC1155storageContract = IMintStorage(storageAddress) */\n      0x0100\n      exp\n      dup2\n      sload\n      dup2\n      0xffffffffffffffffffffffffffffffffffffffff\n      mul\n      not\n      and\n      swap1\n      dup4\n      0xffffffffffffffffffffffffffffffffffffffff\n      and\n      mul\n      or\n      swap1\n      sstore\n      pop\n        /* \"contracts/Founding Citizens NFT Sale.sol\":4802:4969  function setStorageContractAddress(address storageAddress) public onlyRole(DEFAULT_ADMIN_ROLE) {\r... */\n      pop\n      pop\n      jump\t// out\n        /* \"contracts/Founding Citizens NFT Sale.sol\":3221:3295  bytes32 public constant SALE_MANAGER_ROLE = keccak256(\"SALE_MANAGER_ROLE\") */\n    tag_80:\n        /* \"contracts/Founding Citizens NFT Sale.sol\":3265:3295  keccak256(\"SALE_MANAGER_ROLE\") */\n      0x988301af8238f779281a300de031815cd01b48e9f1ae47a0f91ed6584213624a\n        /* \"contracts/Founding Citizens NFT Sale.sol\":3221:3295  bytes32 public constant SALE_MANAGER_ROLE = keccak256(\"SALE_MANAGER_ROLE\") */\n      dup2\n      jump\t// out\n        /* \"contracts/Founding Citizens NFT Sale.sol\":2996:3044  IPrivilegedListStorage public privilgedBuyerList */\n    tag_83:\n      0x02\n      0x00\n      swap1\n      sload\n      swap1\n      0x0100\n      exp\n      swap1\n      div\n      0xffffffffffffffffffffffffffffffffffffffff\n      and\n      dup2\n      jump\t// out\n        /* \"contracts/Founding Citizens NFT Sale.sol\":3142:3214  bytes32 public constant URI_MANAGER_ROLE = keccak256(\"URI_MANAGER_ROLE\") */\n    tag_87:\n        /* \"contracts/Founding Citizens NFT Sale.sol\":3185:3214  keccak256(\"URI_MANAGER_ROLE\") */\n      0xa70a2d8710fed9f014c8c2af50c7c2f6b25748ae4cded822e03b7beed44cf3a8\n        /* \"contracts/Founding Citizens NFT Sale.sol\":3142:3214  bytes32 public constant URI_MANAGER_ROLE = keccak256(\"URI_MANAGER_ROLE\") */\n      dup2\n      jump\t// out\n        /* \"contracts/Founding Citizens NFT Sale.sol\":5470:5609  function getNextUnusedToken() public view returns(uint) {\r... */\n    tag_90:\n        /* \"contracts/Founding Citizens NFT Sale.sol\":5520:5524  uint */\n      0x00\n        /* \"contracts/Founding Citizens NFT Sale.sol\":5557:5579  ERC1155storageContract */\n      0x01\n      0x00\n      swap1\n      sload\n      swap1\n      0x0100\n      exp\n      swap1\n      div\n      0xffffffffffffffffffffffffffffffffffffffff\n      and\n        /* \"contracts/Founding Citizens NFT Sale.sol\":5544:5599  IMintStorage(ERC1155storageContract).getNextUnusedToken */\n      0xffffffffffffffffffffffffffffffffffffffff\n      and\n      0x68fc01a2\n        /* \"contracts/Founding Citizens NFT Sale.sol\":5544:5601  IMintStorage(ERC1155storageContract).getNextUnusedToken() */\n      mload(0x40)\n      dup2\n      0xffffffff\n      and\n      0xe0\n      shl\n      dup2\n      mstore\n      0x04\n      add\n      0x20\n      mload(0x40)\n      dup1\n      dup4\n      sub\n      dup2\n      dup7\n      dup1\n      extcodesize\n      iszero\n      dup1\n      iszero\n      tag_233\n      jumpi\n      0x00\n      dup1\n      revert\n    tag_233:\n      pop\n      gas\n      staticcall\n      iszero\n      dup1\n      iszero\n      tag_235\n      jumpi\n      returndatasize\n      0x00\n      dup1\n      returndatacopy\n      revert(0x00, returndatasize)\n    tag_235:\n      pop\n      pop\n      pop\n      pop\n      mload(0x40)\n      returndatasize\n      not(0x1f)\n      0x1f\n      dup3\n      add\n      and\n      dup3\n      add\n      dup1\n      0x40\n      mstore\n      pop\n      dup2\n      add\n      swap1\n      tag_236\n      swap2\n      swap1\n      tag_195\n      jump\t// in\n    tag_236:\n        /* \"contracts/Founding Citizens NFT Sale.sol\":5537:5601  return IMintStorage(ERC1155storageContract).getNextUnusedToken() */\n      swap1\n      pop\n        /* \"contracts/Founding Citizens NFT Sale.sol\":5470:5609  function getNextUnusedToken() public view returns(uint) {\r... */\n      swap1\n      jump\t// out\n        /* \"contracts/Founding Citizens NFT Sale.sol\":2947:2989  IMintStorage public ERC1155storageContract */\n    tag_93:\n      0x01\n      0x00\n      swap1\n      sload\n      swap1\n      0x0100\n      exp\n      swap1\n      div\n      0xffffffffffffffffffffffffffffffffffffffff\n      and\n      dup2\n      jump\t// out\n        /* \"@openzeppelin/contracts@4.4.2/access/AccessControl.sol\":2894:3031  function hasRole(bytes32 role, address account) public view override returns (bool) {... */\n    tag_98:\n        /* \"@openzeppelin/contracts@4.4.2/access/AccessControl.sol\":2972:2976  bool */\n      0x00\n        /* \"@openzeppelin/contracts@4.4.2/access/AccessControl.sol\":2995:3001  _roles */\n      dup1\n        /* \"@openzeppelin/contracts@4.4.2/access/AccessControl.sol\":2995:3007  _roles[role] */\n      0x00\n        /* \"@openzeppelin/contracts@4.4.2/access/AccessControl.sol\":3002:3006  role */\n      dup5\n        /* \"@openzeppelin/contracts@4.4.2/access/AccessControl.sol\":2995:3007  _roles[role] */\n      dup2\n      mstore\n      0x20\n      add\n      swap1\n      dup2\n      mstore\n      0x20\n      add\n      0x00\n      keccak256\n        /* \"@openzeppelin/contracts@4.4.2/access/AccessControl.sol\":2995:3015  _roles[role].members */\n      0x00\n      add\n        /* \"@openzeppelin/contracts@4.4.2/access/AccessControl.sol\":2995:3024  _roles[role].members[account] */\n      0x00\n        /* \"@openzeppelin/contracts@4.4.2/access/AccessControl.sol\":3016:3023  account */\n      dup4\n        /* \"@openzeppelin/contracts@4.4.2/access/AccessControl.sol\":2995:3024  _roles[role].members[account] */\n      0xffffffffffffffffffffffffffffffffffffffff\n      and\n      0xffffffffffffffffffffffffffffffffffffffff\n      and\n      dup2\n      mstore\n      0x20\n      add\n      swap1\n      dup2\n      mstore\n      0x20\n      add\n      0x00\n      keccak256\n      0x00\n      swap1\n      sload\n      swap1\n      0x0100\n      exp\n      swap1\n      div\n      0xff\n      and\n        /* \"@openzeppelin/contracts@4.4.2/access/AccessControl.sol\":2988:3024  return _roles[role].members[account] */\n      swap1\n      pop\n        /* \"@openzeppelin/contracts@4.4.2/access/AccessControl.sol\":2894:3031  function hasRole(bytes32 role, address account) public view override returns (bool) {... */\n      swap3\n      swap2\n      pop\n      pop\n      jump\t// out\n        /* \"contracts/Founding Citizens NFT Sale.sol\":5752:6030  function setstartTime(uint unixTime) public {\r... */\n    tag_102:\n        /* \"contracts/Founding Citizens NFT Sale.sol\":5829:5869  hasRole(SALE_MANAGER_ROLE, _msgSender()) */\n      tag_239\n        /* \"contracts/Founding Citizens NFT Sale.sol\":3265:3295  keccak256(\"SALE_MANAGER_ROLE\") */\n      0x988301af8238f779281a300de031815cd01b48e9f1ae47a0f91ed6584213624a\n        /* \"contracts/Founding Citizens NFT Sale.sol\":5856:5868  _msgSender() */\n      tag_240\n        /* \"contracts/Founding Citizens NFT Sale.sol\":5856:5866  _msgSender */\n      tag_150\n        /* \"contracts/Founding Citizens NFT Sale.sol\":5856:5868  _msgSender() */\n      jump\t// in\n    tag_240:\n        /* \"contracts/Founding Citizens NFT Sale.sol\":5829:5836  hasRole */\n      tag_98\n        /* \"contracts/Founding Citizens NFT Sale.sol\":5829:5869  hasRole(SALE_MANAGER_ROLE, _msgSender()) */\n      jump\t// in\n    tag_239:\n        /* \"contracts/Founding Citizens NFT Sale.sol\":5829:5928  hasRole(SALE_MANAGER_ROLE, _msgSender()) || \r... */\n      dup1\n      tag_241\n      jumpi\n      pop\n        /* \"contracts/Founding Citizens NFT Sale.sol\":5887:5928  hasRole(DEFAULT_ADMIN_ROLE, _msgSender()) */\n      tag_242\n        /* \"@openzeppelin/contracts@4.4.2/access/AccessControl.sol\":2057:2061  0x00 */\n      0x00\n        /* \"contracts/Founding Citizens NFT Sale.sol\":5895:5913  DEFAULT_ADMIN_ROLE */\n      dup1\n      shl\n        /* \"contracts/Founding Citizens NFT Sale.sol\":5915:5927  _msgSender() */\n      tag_243\n        /* \"contracts/Founding Citizens NFT Sale.sol\":5915:5925  _msgSender */\n      tag_150\n        /* \"contracts/Founding Citizens NFT Sale.sol\":5915:5927  _msgSender() */\n      jump\t// in\n    tag_243:\n        /* \"contracts/Founding Citizens NFT Sale.sol\":5887:5894  hasRole */\n      tag_98\n        /* \"contracts/Founding Citizens NFT Sale.sol\":5887:5928  hasRole(DEFAULT_ADMIN_ROLE, _msgSender()) */\n      jump\t// in\n    tag_242:\n        /* \"contracts/Founding Citizens NFT Sale.sol\":5829:5928  hasRole(SALE_MANAGER_ROLE, _msgSender()) || \r... */\n    tag_241:\n        /* \"contracts/Founding Citizens NFT Sale.sol\":5807:5991  require(\r... */\n      tag_244\n      jumpi\n      mload(0x40)\n      0x08c379a000000000000000000000000000000000000000000000000000000000\n      dup2\n      mstore\n      0x04\n      add\n      tag_245\n      swap1\n      tag_246\n      jump\t// in\n    tag_245:\n      mload(0x40)\n      dup1\n      swap2\n      sub\n      swap1\n      revert\n    tag_244:\n        /* \"contracts/Founding Citizens NFT Sale.sol\":6014:6022  unixTime */\n      dup1\n        /* \"contracts/Founding Citizens NFT Sale.sol\":6002:6011  startTime */\n      0x05\n        /* \"contracts/Founding Citizens NFT Sale.sol\":6002:6022  startTime = unixTime */\n      dup2\n      swap1\n      sstore\n      pop\n        /* \"contracts/Founding Citizens NFT Sale.sol\":5752:6030  function setstartTime(uint unixTime) public {\r... */\n      pop\n      jump\t// out\n        /* \"@openzeppelin/contracts@4.4.2/access/AccessControl.sol\":2012:2061  bytes32 public constant DEFAULT_ADMIN_ROLE = 0x00 */\n    tag_104:\n        /* \"@openzeppelin/contracts@4.4.2/access/AccessControl.sol\":2057:2061  0x00 */\n      0x00\n        /* \"@openzeppelin/contracts@4.4.2/access/AccessControl.sol\":2012:2061  bytes32 public constant DEFAULT_ADMIN_ROLE = 0x00 */\n      dup1\n      shl\n      dup2\n      jump\t// out\n        /* \"contracts/Founding Citizens NFT Sale.sol\":3302:3384  bytes32 public constant POST_SALE_MINTER_ROLE = keccak256(\"POST_SALE_MINTER_ROLE\") */\n    tag_107:\n        /* \"contracts/Founding Citizens NFT Sale.sol\":3350:3384  keccak256(\"POST_SALE_MINTER_ROLE\") */\n      0xbd1d99152bdba889f82a18def1423aac13658b88b6ea933ffd0b3a6a1dd5cff9\n        /* \"contracts/Founding Citizens NFT Sale.sol\":3302:3384  bytes32 public constant POST_SALE_MINTER_ROLE = keccak256(\"POST_SALE_MINTER_ROLE\") */\n      dup2\n      jump\t// out\n        /* \"contracts/Founding Citizens NFT Sale.sol\":6320:6770  function calculateCustomPrice(address prospectiveBuyer, uint discountRate) \r... */\n    tag_111:\n        /* \"contracts/Founding Citizens NFT Sale.sol\":6436:6440  uint */\n      0x00\n        /* \"contracts/Founding Citizens NFT Sale.sol\":3974:3989  block.timestamp */\n      timestamp\n        /* \"contracts/Founding Citizens NFT Sale.sol\":3955:3965  lastUpdate */\n      0x09\n        /* \"contracts/Founding Citizens NFT Sale.sol\":3955:3970  lastUpdate.time */\n      0x01\n      add\n      sload\n        /* \"contracts/Founding Citizens NFT Sale.sol\":3955:3989  lastUpdate.time == block.timestamp */\n      eq\n        /* \"contracts/Founding Citizens NFT Sale.sol\":3947:4021  require(lastUpdate.time == block.timestamp, \"timestamp is not up-to-date\") */\n      tag_248\n      jumpi\n      mload(0x40)\n      0x08c379a000000000000000000000000000000000000000000000000000000000\n      dup2\n      mstore\n      0x04\n      add\n      tag_249\n      swap1\n      tag_250\n      jump\t// in\n    tag_249:\n      mload(0x40)\n      dup1\n      swap2\n      sub\n      swap1\n      revert\n    tag_248:\n        /* \"contracts/Founding Citizens NFT Sale.sol\":6461:6479  privilgedBuyerList */\n      0x02\n      0x00\n      swap1\n      sload\n      swap1\n      0x0100\n      exp\n      swap1\n      div\n      0xffffffffffffffffffffffffffffffffffffffff\n      and\n        /* \"contracts/Founding Citizens NFT Sale.sol\":6461:6496  privilgedBuyerList.addressHasCoupon */\n      0xffffffffffffffffffffffffffffffffffffffff\n      and\n      0x2080179d\n        /* \"contracts/Founding Citizens NFT Sale.sol\":6497:6513  prospectiveBuyer */\n      dup5\n        /* \"contracts/Founding Citizens NFT Sale.sol\":6515:6527  discountRate */\n      dup5\n        /* \"contracts/Founding Citizens NFT Sale.sol\":6461:6528  privilgedBuyerList.addressHasCoupon(prospectiveBuyer, discountRate) */\n      mload(0x40)\n      dup4\n      0xffffffff\n      and\n      0xe0\n      shl\n      dup2\n      mstore\n      0x04\n      add\n      tag_252\n      swap3\n      swap2\n      swap1\n      tag_253\n      jump\t// in\n    tag_252:\n      0x20\n      mload(0x40)\n      dup1\n      dup4\n      sub\n      dup2\n      dup7\n      dup1\n      extcodesize\n      iszero\n      dup1\n      iszero\n      tag_254\n      jumpi\n      0x00\n      dup1\n      revert\n    tag_254:\n      pop\n      gas\n      staticcall\n      iszero\n      dup1\n      iszero\n      tag_256\n      jumpi\n      returndatasize\n      0x00\n      dup1\n      returndatacopy\n      revert(0x00, returndatasize)\n    tag_256:\n      pop\n      pop\n      pop\n      pop\n      mload(0x40)\n      returndatasize\n      not(0x1f)\n      0x1f\n      dup3\n      add\n      and\n      dup3\n      add\n      dup1\n      0x40\n      mstore\n      pop\n      dup2\n      add\n      swap1\n      tag_257\n      swap2\n      swap1\n      tag_258\n      jump\t// in\n    tag_257:\n        /* \"contracts/Founding Citizens NFT Sale.sol\":6580:6596  prospectiveBuyer */\n      dup4\n        /* \"contracts/Founding Citizens NFT Sale.sol\":6650:6662  discountRate */\n      dup4\n        /* \"contracts/Founding Citizens NFT Sale.sol\":6537:6668  abi.encodePacked(\r... */\n      add(0x20, mload(0x40))\n      tag_259\n      swap3\n      swap2\n      swap1\n      tag_260\n      jump\t// in\n    tag_259:\n      mload(0x40)\n      0x20\n      dup2\n      dup4\n      sub\n      sub\n      dup2\n      mstore\n      swap1\n      0x40\n      mstore\n        /* \"contracts/Founding Citizens NFT Sale.sol\":6453:6670  require(privilgedBuyerList.addressHasCoupon(prospectiveBuyer, discountRate), string(abi.encodePacked(\r... */\n      swap1\n      tag_261\n      jumpi\n      mload(0x40)\n      0x08c379a000000000000000000000000000000000000000000000000000000000\n      dup2\n      mstore\n      0x04\n      add\n      tag_262\n      swap2\n      swap1\n      tag_263\n      jump\t// in\n    tag_262:\n      mload(0x40)\n      dup1\n      swap2\n      sub\n      swap1\n      revert\n    tag_261:\n      pop\n        /* \"contracts/Founding Citizens NFT Sale.sol\":6681:6691  uint price */\n      0x00\n        /* \"contracts/Founding Citizens NFT Sale.sol\":6726:6738  discountRate */\n      dup3\n        /* \"contracts/Founding Citizens NFT Sale.sol\":6720:6723  100 */\n      0x64\n        /* \"contracts/Founding Citizens NFT Sale.sol\":6720:6738  100 - discountRate */\n      tag_264\n      swap2\n      swap1\n      tag_163\n      jump\t// in\n    tag_264:\n        /* \"contracts/Founding Citizens NFT Sale.sol\":6713:6716  100 */\n      0x64\n        /* \"contracts/Founding Citizens NFT Sale.sol\":6694:6704  lastUpdate */\n      0x09\n        /* \"contracts/Founding Citizens NFT Sale.sol\":6694:6710  lastUpdate.price */\n      0x00\n      add\n      sload\n        /* \"contracts/Founding Citizens NFT Sale.sol\":6694:6716  lastUpdate.price / 100 */\n      tag_265\n      swap2\n      swap1\n      tag_266\n      jump\t// in\n    tag_265:\n        /* \"contracts/Founding Citizens NFT Sale.sol\":6694:6739  lastUpdate.price / 100 * (100 - discountRate) */\n      tag_267\n      swap2\n      swap1\n      tag_268\n      jump\t// in\n    tag_267:\n        /* \"contracts/Founding Citizens NFT Sale.sol\":6681:6739  uint price = lastUpdate.price / 100 * (100 - discountRate) */\n      swap1\n      pop\n        /* \"contracts/Founding Citizens NFT Sale.sol\":6757:6762  price */\n      dup1\n        /* \"contracts/Founding Citizens NFT Sale.sol\":6750:6762  return price */\n      swap2\n      pop\n      pop\n        /* \"contracts/Founding Citizens NFT Sale.sol\":6320:6770  function calculateCustomPrice(address prospectiveBuyer, uint discountRate) \r... */\n      swap3\n      swap2\n      pop\n      pop\n      jump\t// out\n        /* \"contracts/Founding Citizens NFT Sale.sol\":7162:7307  function buyNFT() public pushesUpdate { //requires using existing balance\r... */\n    tag_114:\n        /* \"contracts/Founding Citizens NFT Sale.sol\":4084:4097  updateState() */\n      tag_270\n        /* \"contracts/Founding Citizens NFT Sale.sol\":4084:4095  updateState */\n      tag_146\n        /* \"contracts/Founding Citizens NFT Sale.sol\":4084:4097  updateState() */\n      jump\t// in\n    tag_270:\n        /* \"contracts/Founding Citizens NFT Sale.sol\":7245:7255  uint price */\n      0x00\n        /* \"contracts/Founding Citizens NFT Sale.sol\":7258:7268  lastUpdate */\n      0x09\n        /* \"contracts/Founding Citizens NFT Sale.sol\":7258:7274  lastUpdate.price */\n      0x00\n      add\n      sload\n        /* \"contracts/Founding Citizens NFT Sale.sol\":7245:7274  uint price = lastUpdate.price */\n      swap1\n      pop\n        /* \"contracts/Founding Citizens NFT Sale.sol\":7285:7299  _buyNFT(price) */\n      tag_272\n        /* \"contracts/Founding Citizens NFT Sale.sol\":7293:7298  price */\n      dup2\n        /* \"contracts/Founding Citizens NFT Sale.sol\":7285:7292  _buyNFT */\n      tag_201\n        /* \"contracts/Founding Citizens NFT Sale.sol\":7285:7299  _buyNFT(price) */\n      jump\t// in\n    tag_272:\n        /* \"contracts/Founding Citizens NFT Sale.sol\":4108:4109  _ */\n      pop\n        /* \"contracts/Founding Citizens NFT Sale.sol\":7162:7307  function buyNFT() public pushesUpdate { //requires using existing balance\r... */\n      jump\t// out\n        /* \"contracts/Founding Citizens NFT Sale.sol\":3837:3901  Update public lastUpdate = Update(10000, block.timestamp, false) */\n    tag_116:\n      0x09\n      dup1\n      0x00\n      add\n      sload\n      swap1\n      dup1\n      0x01\n      add\n      sload\n      swap1\n      dup1\n      0x02\n      add\n      0x00\n      swap1\n      sload\n      swap1\n      0x0100\n      exp\n      swap1\n      div\n      0xff\n      and\n      swap1\n      pop\n      dup4\n      jump\t// out\n        /* \"contracts/Founding Citizens NFT Sale.sol\":3051:3096  IUsdcStorage public usdcEscrowStorageContract */\n    tag_120:\n      0x03\n      0x00\n      swap1\n      sload\n      swap1\n      0x0100\n      exp\n      swap1\n      div\n      0xffffffffffffffffffffffffffffffffffffffff\n      and\n      dup2\n      jump\t// out\n        /* \"contracts/Founding Citizens NFT Sale.sol\":3103:3133  address public treasuryAddress */\n    tag_124:\n      0x04\n      0x00\n      swap1\n      sload\n      swap1\n      0x0100\n      exp\n      swap1\n      div\n      0xffffffffffffffffffffffffffffffffffffffff\n      and\n      dup2\n      jump\t// out\n        /* \"contracts/Founding Citizens NFT Sale.sol\":6038:6312  function setEndTime(uint unixTime) public {\r... */\n    tag_129:\n        /* \"contracts/Founding Citizens NFT Sale.sol\":6113:6153  hasRole(SALE_MANAGER_ROLE, _msgSender()) */\n      tag_274\n        /* \"contracts/Founding Citizens NFT Sale.sol\":3265:3295  keccak256(\"SALE_MANAGER_ROLE\") */\n      0x988301af8238f779281a300de031815cd01b48e9f1ae47a0f91ed6584213624a\n        /* \"contracts/Founding Citizens NFT Sale.sol\":6140:6152  _msgSender() */\n      tag_275\n        /* \"contracts/Founding Citizens NFT Sale.sol\":6140:6150  _msgSender */\n      tag_150\n        /* \"contracts/Founding Citizens NFT Sale.sol\":6140:6152  _msgSender() */\n      jump\t// in\n    tag_275:\n        /* \"contracts/Founding Citizens NFT Sale.sol\":6113:6120  hasRole */\n      tag_98\n        /* \"contracts/Founding Citizens NFT Sale.sol\":6113:6153  hasRole(SALE_MANAGER_ROLE, _msgSender()) */\n      jump\t// in\n    tag_274:\n        /* \"contracts/Founding Citizens NFT Sale.sol\":6113:6212  hasRole(SALE_MANAGER_ROLE, _msgSender()) || \r... */\n      dup1\n      tag_276\n      jumpi\n      pop\n        /* \"contracts/Founding Citizens NFT Sale.sol\":6171:6212  hasRole(DEFAULT_ADMIN_ROLE, _msgSender()) */\n      tag_277\n        /* \"@openzeppelin/contracts@4.4.2/access/AccessControl.sol\":2057:2061  0x00 */\n      0x00\n        /* \"contracts/Founding Citizens NFT Sale.sol\":6179:6197  DEFAULT_ADMIN_ROLE */\n      dup1\n      shl\n        /* \"contracts/Founding Citizens NFT Sale.sol\":6199:6211  _msgSender() */\n      tag_278\n        /* \"contracts/Founding Citizens NFT Sale.sol\":6199:6209  _msgSender */\n      tag_150\n        /* \"contracts/Founding Citizens NFT Sale.sol\":6199:6211  _msgSender() */\n      jump\t// in\n    tag_278:\n        /* \"contracts/Founding Citizens NFT Sale.sol\":6171:6178  hasRole */\n      tag_98\n        /* \"contracts/Founding Citizens NFT Sale.sol\":6171:6212  hasRole(DEFAULT_ADMIN_ROLE, _msgSender()) */\n      jump\t// in\n    tag_277:\n        /* \"contracts/Founding Citizens NFT Sale.sol\":6113:6212  hasRole(SALE_MANAGER_ROLE, _msgSender()) || \r... */\n    tag_276:\n        /* \"contracts/Founding Citizens NFT Sale.sol\":6091:6275  require(\r... */\n      tag_279\n      jumpi\n      mload(0x40)\n      0x08c379a000000000000000000000000000000000000000000000000000000000\n      dup2\n      mstore\n      0x04\n      add\n      tag_280\n      swap1\n      tag_246\n      jump\t// in\n    tag_280:\n      mload(0x40)\n      dup1\n      swap2\n      sub\n      swap1\n      revert\n    tag_279:\n        /* \"contracts/Founding Citizens NFT Sale.sol\":6296:6304  unixTime */\n      dup1\n        /* \"contracts/Founding Citizens NFT Sale.sol\":6286:6293  endTime */\n      0x06\n        /* \"contracts/Founding Citizens NFT Sale.sol\":6286:6304  endTime = unixTime */\n      dup2\n      swap1\n      sstore\n      pop\n        /* \"contracts/Founding Citizens NFT Sale.sol\":6038:6312  function setEndTime(uint unixTime) public {\r... */\n      pop\n      jump\t// out\n        /* \"@openzeppelin/contracts@4.4.2/access/AccessControl.sol\":4727:4874  function revokeRole(bytes32 role, address account) public virtual override onlyRole(getRoleAdmin(role)) {... */\n    tag_132:\n        /* \"@openzeppelin/contracts@4.4.2/access/AccessControl.sol\":4811:4829  getRoleAdmin(role) */\n      tag_281\n        /* \"@openzeppelin/contracts@4.4.2/access/AccessControl.sol\":4824:4828  role */\n      dup3\n        /* \"@openzeppelin/contracts@4.4.2/access/AccessControl.sol\":4811:4823  getRoleAdmin */\n      tag_47\n        /* \"@openzeppelin/contracts@4.4.2/access/AccessControl.sol\":4811:4829  getRoleAdmin(role) */\n      jump\t// in\n    tag_281:\n        /* \"@openzeppelin/contracts@4.4.2/access/AccessControl.sol\":2490:2520  _checkRole(role, _msgSender()) */\n      tag_283\n        /* \"@openzeppelin/contracts@4.4.2/access/AccessControl.sol\":2501:2505  role */\n      dup2\n        /* \"@openzeppelin/contracts@4.4.2/access/AccessControl.sol\":2507:2519  _msgSender() */\n      tag_284\n        /* \"@openzeppelin/contracts@4.4.2/access/AccessControl.sol\":2507:2517  _msgSender */\n      tag_150\n        /* \"@openzeppelin/contracts@4.4.2/access/AccessControl.sol\":2507:2519  _msgSender() */\n      jump\t// in\n    tag_284:\n        /* \"@openzeppelin/contracts@4.4.2/access/AccessControl.sol\":2490:2500  _checkRole */\n      tag_175\n        /* \"@openzeppelin/contracts@4.4.2/access/AccessControl.sol\":2490:2520  _checkRole(role, _msgSender()) */\n      jump\t// in\n    tag_283:\n        /* \"@openzeppelin/contracts@4.4.2/access/AccessControl.sol\":4841:4867  _revokeRole(role, account) */\n      tag_286\n        /* \"@openzeppelin/contracts@4.4.2/access/AccessControl.sol\":4853:4857  role */\n      dup4\n        /* \"@openzeppelin/contracts@4.4.2/access/AccessControl.sol\":4859:4866  account */\n      dup4\n        /* \"@openzeppelin/contracts@4.4.2/access/AccessControl.sol\":4841:4852  _revokeRole */\n      tag_185\n        /* \"@openzeppelin/contracts@4.4.2/access/AccessControl.sol\":4841:4867  _revokeRole(role, account) */\n      jump\t// in\n    tag_286:\n        /* \"@openzeppelin/contracts@4.4.2/access/AccessControl.sol\":4727:4874  function revokeRole(bytes32 role, address account) public virtual override onlyRole(getRoleAdmin(role)) {... */\n      pop\n      pop\n      pop\n      jump\t// out\n        /* \"contracts/Founding Citizens NFT Sale.sol\":5116:5462  function preLoadURIs(uint[] memory ids, string[] memory uris) \r... */\n    tag_136:\n        /* \"contracts/Founding Citizens NFT Sale.sol\":5224:5263  hasRole(URI_MANAGER_ROLE, _msgSender()) */\n      tag_288\n        /* \"contracts/Founding Citizens NFT Sale.sol\":3185:3214  keccak256(\"URI_MANAGER_ROLE\") */\n      0xa70a2d8710fed9f014c8c2af50c7c2f6b25748ae4cded822e03b7beed44cf3a8\n        /* \"contracts/Founding Citizens NFT Sale.sol\":5250:5262  _msgSender() */\n      tag_289\n        /* \"contracts/Founding Citizens NFT Sale.sol\":5250:5260  _msgSender */\n      tag_150\n        /* \"contracts/Founding Citizens NFT Sale.sol\":5250:5262  _msgSender() */\n      jump\t// in\n    tag_289:\n        /* \"contracts/Founding Citizens NFT Sale.sol\":5224:5231  hasRole */\n      tag_98\n        /* \"contracts/Founding Citizens NFT Sale.sol\":5224:5263  hasRole(URI_MANAGER_ROLE, _msgSender()) */\n      jump\t// in\n    tag_288:\n        /* \"contracts/Founding Citizens NFT Sale.sol\":5224:5322  hasRole(URI_MANAGER_ROLE, _msgSender()) || \r... */\n      dup1\n      tag_290\n      jumpi\n      pop\n        /* \"contracts/Founding Citizens NFT Sale.sol\":5281:5322  hasRole(DEFAULT_ADMIN_ROLE, _msgSender()) */\n      tag_291\n        /* \"@openzeppelin/contracts@4.4.2/access/AccessControl.sol\":2057:2061  0x00 */\n      0x00\n        /* \"contracts/Founding Citizens NFT Sale.sol\":5289:5307  DEFAULT_ADMIN_ROLE */\n      dup1\n      shl\n        /* \"contracts/Founding Citizens NFT Sale.sol\":5309:5321  _msgSender() */\n      tag_292\n        /* \"contracts/Founding Citizens NFT Sale.sol\":5309:5319  _msgSender */\n      tag_150\n        /* \"contracts/Founding Citizens NFT Sale.sol\":5309:5321  _msgSender() */\n      jump\t// in\n    tag_292:\n        /* \"contracts/Founding Citizens NFT Sale.sol\":5281:5288  hasRole */\n      tag_98\n        /* \"contracts/Founding Citizens NFT Sale.sol\":5281:5322  hasRole(DEFAULT_ADMIN_ROLE, _msgSender()) */\n      jump\t// in\n    tag_291:\n        /* \"contracts/Founding Citizens NFT Sale.sol\":5224:5322  hasRole(URI_MANAGER_ROLE, _msgSender()) || \r... */\n    tag_290:\n        /* \"contracts/Founding Citizens NFT Sale.sol\":5202:5384  require(\r... */\n      tag_293\n      jumpi\n      mload(0x40)\n      0x08c379a000000000000000000000000000000000000000000000000000000000\n      dup2\n      mstore\n      0x04\n      add\n      tag_294\n      swap1\n      tag_295\n      jump\t// in\n    tag_294:\n      mload(0x40)\n      dup1\n      swap2\n      sub\n      swap1\n      revert\n    tag_293:\n        /* \"contracts/Founding Citizens NFT Sale.sol\":5408:5430  ERC1155storageContract */\n      0x01\n      0x00\n      swap1\n      sload\n      swap1\n      0x0100\n      exp\n      swap1\n      div\n      0xffffffffffffffffffffffffffffffffffffffff\n      and\n        /* \"contracts/Founding Citizens NFT Sale.sol\":5395:5443  IMintStorage(ERC1155storageContract).preLoadURIs */\n      0xffffffffffffffffffffffffffffffffffffffff\n      and\n      0xf121da92\n        /* \"contracts/Founding Citizens NFT Sale.sol\":5444:5447  ids */\n      dup4\n        /* \"contracts/Founding Citizens NFT Sale.sol\":5449:5453  uris */\n      dup4\n        /* \"contracts/Founding Citizens NFT Sale.sol\":5395:5454  IMintStorage(ERC1155storageContract).preLoadURIs(ids, uris) */\n      mload(0x40)\n      dup4\n      0xffffffff\n      and\n      0xe0\n      shl\n      dup2\n      mstore\n      0x04\n      add\n      tag_296\n      swap3\n      swap2\n      swap1\n      tag_297\n      jump\t// in\n    tag_296:\n      0x00\n      mload(0x40)\n      dup1\n      dup4\n      sub\n      dup2\n      0x00\n      dup8\n      dup1\n      extcodesize\n      iszero\n      dup1\n      iszero\n      tag_298\n      jumpi\n      0x00\n      dup1\n      revert\n    tag_298:\n      pop\n      gas\n      call\n      iszero\n      dup1\n      iszero\n      tag_300\n      jumpi\n      returndatasize\n      0x00\n      dup1\n      returndatacopy\n      revert(0x00, returndatasize)\n    tag_300:\n      pop\n      pop\n      pop\n      pop\n        /* \"contracts/Founding Citizens NFT Sale.sol\":5116:5462  function preLoadURIs(uint[] memory ids, string[] memory uris) \r... */\n      pop\n      pop\n      jump\t// out\n        /* \"contracts/Founding Citizens NFT Sale.sol\":7686:8309  function mintRemainderToTreasuryAddress() external pushesUpdate {\r... */\n    tag_138:\n        /* \"contracts/Founding Citizens NFT Sale.sol\":4084:4097  updateState() */\n      tag_302\n        /* \"contracts/Founding Citizens NFT Sale.sol\":4084:4095  updateState */\n      tag_146\n        /* \"contracts/Founding Citizens NFT Sale.sol\":4084:4097  updateState() */\n      jump\t// in\n    tag_302:\n        /* \"contracts/Founding Citizens NFT Sale.sol\":7783:7827  hasRole(POST_SALE_MINTER_ROLE, _msgSender()) */\n      tag_304\n        /* \"contracts/Founding Citizens NFT Sale.sol\":3350:3384  keccak256(\"POST_SALE_MINTER_ROLE\") */\n      0xbd1d99152bdba889f82a18def1423aac13658b88b6ea933ffd0b3a6a1dd5cff9\n        /* \"contracts/Founding Citizens NFT Sale.sol\":7814:7826  _msgSender() */\n      tag_305\n        /* \"contracts/Founding Citizens NFT Sale.sol\":7814:7824  _msgSender */\n      tag_150\n        /* \"contracts/Founding Citizens NFT Sale.sol\":7814:7826  _msgSender() */\n      jump\t// in\n    tag_305:\n        /* \"contracts/Founding Citizens NFT Sale.sol\":7783:7790  hasRole */\n      tag_98\n        /* \"contracts/Founding Citizens NFT Sale.sol\":7783:7827  hasRole(POST_SALE_MINTER_ROLE, _msgSender()) */\n      jump\t// in\n    tag_304:\n        /* \"contracts/Founding Citizens NFT Sale.sol\":7783:7886  hasRole(POST_SALE_MINTER_ROLE, _msgSender()) || \r... */\n      dup1\n      tag_306\n      jumpi\n      pop\n        /* \"contracts/Founding Citizens NFT Sale.sol\":7845:7886  hasRole(DEFAULT_ADMIN_ROLE, _msgSender()) */\n      tag_307\n        /* \"@openzeppelin/contracts@4.4.2/access/AccessControl.sol\":2057:2061  0x00 */\n      0x00\n        /* \"contracts/Founding Citizens NFT Sale.sol\":7853:7871  DEFAULT_ADMIN_ROLE */\n      dup1\n      shl\n        /* \"contracts/Founding Citizens NFT Sale.sol\":7873:7885  _msgSender() */\n      tag_308\n        /* \"contracts/Founding Citizens NFT Sale.sol\":7873:7883  _msgSender */\n      tag_150\n        /* \"contracts/Founding Citizens NFT Sale.sol\":7873:7885  _msgSender() */\n      jump\t// in\n    tag_308:\n        /* \"contracts/Founding Citizens NFT Sale.sol\":7845:7852  hasRole */\n      tag_98\n        /* \"contracts/Founding Citizens NFT Sale.sol\":7845:7886  hasRole(DEFAULT_ADMIN_ROLE, _msgSender()) */\n      jump\t// in\n    tag_307:\n        /* \"contracts/Founding Citizens NFT Sale.sol\":7783:7886  hasRole(POST_SALE_MINTER_ROLE, _msgSender()) || \r... */\n    tag_306:\n        /* \"contracts/Founding Citizens NFT Sale.sol\":7761:7953  require(\r... */\n      tag_309\n      jumpi\n      mload(0x40)\n      0x08c379a000000000000000000000000000000000000000000000000000000000\n      dup2\n      mstore\n      0x04\n      add\n      tag_310\n      swap1\n      tag_156\n      jump\t// in\n    tag_310:\n      mload(0x40)\n      dup1\n      swap2\n      sub\n      swap1\n      revert\n    tag_309:\n        /* \"contracts/Founding Citizens NFT Sale.sol\":8004:8011  endTime */\n      sload(0x06)\n        /* \"contracts/Founding Citizens NFT Sale.sol\":7986:8001  block.timestamp */\n      timestamp\n        /* \"contracts/Founding Citizens NFT Sale.sol\":7986:8011  block.timestamp > endTime */\n      gt\n        /* \"contracts/Founding Citizens NFT Sale.sol\":7986:8037  block.timestamp > endTime && !lastUpdate.saleIsLive */\n      dup1\n      iszero\n      tag_311\n      jumpi\n      pop\n        /* \"contracts/Founding Citizens NFT Sale.sol\":8016:8026  lastUpdate */\n      0x09\n        /* \"contracts/Founding Citizens NFT Sale.sol\":8016:8037  lastUpdate.saleIsLive */\n      0x02\n      add\n      0x00\n      swap1\n      sload\n      swap1\n      0x0100\n      exp\n      swap1\n      div\n      0xff\n      and\n        /* \"contracts/Founding Citizens NFT Sale.sol\":8015:8037  !lastUpdate.saleIsLive */\n      iszero\n        /* \"contracts/Founding Citizens NFT Sale.sol\":7986:8037  block.timestamp > endTime && !lastUpdate.saleIsLive */\n    tag_311:\n        /* \"contracts/Founding Citizens NFT Sale.sol\":7964:8120  require(\r... */\n      tag_312\n      jumpi\n      mload(0x40)\n      0x08c379a000000000000000000000000000000000000000000000000000000000\n      dup2\n      mstore\n      0x04\n      add\n      tag_313\n      swap1\n      tag_160\n      jump\t// in\n    tag_313:\n      mload(0x40)\n      dup1\n      swap2\n      sub\n      swap1\n      revert\n    tag_312:\n        /* \"contracts/Founding Citizens NFT Sale.sol\":8131:8146  uint leftToMint */\n      0x00\n        /* \"contracts/Founding Citizens NFT Sale.sol\":8188:8189  1 */\n      0x01\n        /* \"contracts/Founding Citizens NFT Sale.sol\":8167:8187  getNextUnusedToken() */\n      tag_314\n        /* \"contracts/Founding Citizens NFT Sale.sol\":8167:8185  getNextUnusedToken */\n      tag_90\n        /* \"contracts/Founding Citizens NFT Sale.sol\":8167:8187  getNextUnusedToken() */\n      jump\t// in\n    tag_314:\n        /* \"contracts/Founding Citizens NFT Sale.sol\":8167:8189  getNextUnusedToken()-1 */\n      tag_315\n      swap2\n      swap1\n      tag_163\n      jump\t// in\n    tag_315:\n        /* \"contracts/Founding Citizens NFT Sale.sol\":8149:8163  getMaxSupply() */\n      tag_316\n        /* \"contracts/Founding Citizens NFT Sale.sol\":8149:8161  getMaxSupply */\n      tag_66\n        /* \"contracts/Founding Citizens NFT Sale.sol\":8149:8163  getMaxSupply() */\n      jump\t// in\n    tag_316:\n        /* \"contracts/Founding Citizens NFT Sale.sol\":8149:8190  getMaxSupply() - (getNextUnusedToken()-1) */\n      tag_317\n      swap2\n      swap1\n      tag_163\n      jump\t// in\n    tag_317:\n        /* \"contracts/Founding Citizens NFT Sale.sol\":8131:8190  uint leftToMint = getMaxSupply() - (getNextUnusedToken()-1) */\n      swap1\n      pop\n        /* \"contracts/Founding Citizens NFT Sale.sol\":8201:8302  for (; leftToMint > 0; leftToMint--) {\r... */\n    tag_318:\n        /* \"contracts/Founding Citizens NFT Sale.sol\":8221:8222  0 */\n      0x00\n        /* \"contracts/Founding Citizens NFT Sale.sol\":8208:8218  leftToMint */\n      dup2\n        /* \"contracts/Founding Citizens NFT Sale.sol\":8208:8222  leftToMint > 0 */\n      gt\n        /* \"contracts/Founding Citizens NFT Sale.sol\":8201:8302  for (; leftToMint > 0; leftToMint--) {\r... */\n      iszero\n      tag_319\n      jumpi\n        /* \"contracts/Founding Citizens NFT Sale.sol\":8253:8290  mintNextNftToAddress(treasuryAddress) */\n      tag_321\n        /* \"contracts/Founding Citizens NFT Sale.sol\":8274:8289  treasuryAddress */\n      0x04\n      0x00\n      swap1\n      sload\n      swap1\n      0x0100\n      exp\n      swap1\n      div\n      0xffffffffffffffffffffffffffffffffffffffff\n      and\n        /* \"contracts/Founding Citizens NFT Sale.sol\":8253:8273  mintNextNftToAddress */\n      tag_170\n        /* \"contracts/Founding Citizens NFT Sale.sol\":8253:8290  mintNextNftToAddress(treasuryAddress) */\n      jump\t// in\n    tag_321:\n        /* \"contracts/Founding Citizens NFT Sale.sol\":8224:8236  leftToMint-- */\n      dup1\n      dup1\n      tag_322\n      swap1\n      tag_226\n      jump\t// in\n    tag_322:\n      swap2\n      pop\n      pop\n        /* \"contracts/Founding Citizens NFT Sale.sol\":8201:8302  for (; leftToMint > 0; leftToMint--) {\r... */\n      jump(tag_318)\n    tag_319:\n        /* \"contracts/Founding Citizens NFT Sale.sol\":4108:4109  _ */\n      pop\n        /* \"contracts/Founding Citizens NFT Sale.sol\":7686:8309  function mintRemainderToTreasuryAddress() external pushesUpdate {\r... */\n      jump\t// out\n        /* \"@openzeppelin/contracts@4.4.2/utils/introspection/ERC165.sol\":829:984  function supportsInterface(bytes4 interfaceId) public view virtual override returns (bool) {... */\n    tag_142:\n        /* \"@openzeppelin/contracts@4.4.2/utils/introspection/ERC165.sol\":914:918  bool */\n      0x00\n        /* \"@openzeppelin/contracts@4.4.2/utils/introspection/ERC165.sol\":952:977  type(IERC165).interfaceId */\n      0x01ffc9a700000000000000000000000000000000000000000000000000000000\n        /* \"@openzeppelin/contracts@4.4.2/utils/introspection/ERC165.sol\":937:977  interfaceId == type(IERC165).interfaceId */\n      not(0xffffffffffffffffffffffffffffffffffffffffffffffffffffffff)\n      and\n        /* \"@openzeppelin/contracts@4.4.2/utils/introspection/ERC165.sol\":937:948  interfaceId */\n      dup3\n        /* \"@openzeppelin/contracts@4.4.2/utils/introspection/ERC165.sol\":937:977  interfaceId == type(IERC165).interfaceId */\n      not(0xffffffffffffffffffffffffffffffffffffffffffffffffffffffff)\n      and\n      eq\n        /* \"@openzeppelin/contracts@4.4.2/utils/introspection/ERC165.sol\":930:977  return interfaceId == type(IERC165).interfaceId */\n      swap1\n      pop\n        /* \"@openzeppelin/contracts@4.4.2/utils/introspection/ERC165.sol\":829:984  function supportsInterface(bytes4 interfaceId) public view virtual override returns (bool) {... */\n      swap2\n      swap1\n      pop\n      jump\t// out\n        /* \"contracts/Founding Citizens NFT Sale.sol\":4303:4794  function updateState() internal requiresConsistentState {\r... */\n    tag_146:\n        /* \"contracts/Founding Citizens NFT Sale.sol\":4192:4199  endTime */\n      sload(0x06)\n        /* \"contracts/Founding Citizens NFT Sale.sol\":4179:4188  startTime */\n      sload(0x05)\n        /* \"contracts/Founding Citizens NFT Sale.sol\":4179:4199  startTime <= endTime */\n      gt\n      iszero\n        /* \"contracts/Founding Citizens NFT Sale.sol\":4171:4235  require(startTime <= endTime, \"startTime is later than endTime\") */\n      tag_325\n      jumpi\n      mload(0x40)\n      0x08c379a000000000000000000000000000000000000000000000000000000000\n      dup2\n      mstore\n      0x04\n      add\n      tag_326\n      swap1\n      tag_327\n      jump\t// in\n    tag_326:\n      mload(0x40)\n      dup1\n      swap2\n      sub\n      swap1\n      revert\n    tag_325:\n        /* \"contracts/Founding Citizens NFT Sale.sol\":3571:3576  10**6 */\n      0x0f4240\n        /* \"contracts/Founding Citizens NFT Sale.sol\":3724:3725  1 */\n      0x01\n        /* \"contracts/Founding Citizens NFT Sale.sol\":3724:3733  1 * units */\n      tag_329\n      swap2\n      swap1\n      tag_268\n      jump\t// in\n    tag_329:\n        /* \"contracts/Founding Citizens NFT Sale.sol\":4459:4461  60 */\n      0x3c\n        /* \"contracts/Founding Citizens NFT Sale.sol\":4446:4455  startTime */\n      sload(0x05)\n        /* \"contracts/Founding Citizens NFT Sale.sol\":4428:4443  block.timestamp */\n      timestamp\n        /* \"contracts/Founding Citizens NFT Sale.sol\":4428:4455  block.timestamp - startTime */\n      tag_330\n      swap2\n      swap1\n      tag_163\n      jump\t// in\n    tag_330:\n        /* \"contracts/Founding Citizens NFT Sale.sol\":4427:4461  (block.timestamp - startTime) / 60 */\n      tag_331\n      swap2\n      swap1\n      tag_266\n      jump\t// in\n    tag_331:\n        /* \"contracts/Founding Citizens NFT Sale.sol\":4427:4486  (block.timestamp - startTime) / 60 * priceDescresePerMinute */\n      tag_332\n      swap2\n      swap1\n      tag_268\n      jump\t// in\n    tag_332:\n        /* \"contracts/Founding Citizens NFT Sale.sol\":4413:4423  startPrice */\n      sload(0x07)\n        /* \"contracts/Founding Citizens NFT Sale.sol\":4413:4487  startPrice - ((block.timestamp - startTime) / 60 * priceDescresePerMinute) */\n      tag_333\n      swap2\n      swap1\n      tag_163\n      jump\t// in\n    tag_333:\n        /* \"contracts/Founding Citizens NFT Sale.sol\":4394:4404  lastUpdate */\n      0x09\n        /* \"contracts/Founding Citizens NFT Sale.sol\":4394:4410  lastUpdate.price */\n      0x00\n      add\n        /* \"contracts/Founding Citizens NFT Sale.sol\":4394:4487  lastUpdate.price = startPrice - ((block.timestamp - startTime) / 60 * priceDescresePerMinute) */\n      dup2\n      swap1\n      sstore\n      pop\n        /* \"contracts/Founding Citizens NFT Sale.sol\":4541:4556  block.timestamp */\n      timestamp\n        /* \"contracts/Founding Citizens NFT Sale.sol\":4523:4533  lastUpdate */\n      0x09\n        /* \"contracts/Founding Citizens NFT Sale.sol\":4523:4538  lastUpdate.time */\n      0x01\n      add\n        /* \"contracts/Founding Citizens NFT Sale.sol\":4523:4556  lastUpdate.time = block.timestamp */\n      dup2\n      swap1\n      sstore\n      pop\n        /* \"contracts/Founding Citizens NFT Sale.sol\":4629:4638  startTime */\n      sload(0x05)\n        /* \"contracts/Founding Citizens NFT Sale.sol\":4610:4625  block.timestamp */\n      timestamp\n        /* \"contracts/Founding Citizens NFT Sale.sol\":4610:4638  block.timestamp >= startTime */\n      lt\n      iszero\n        /* \"contracts/Founding Citizens NFT Sale.sol\":4610:4668  block.timestamp >= startTime && block.timestamp <= endTime */\n      dup1\n      iszero\n      tag_334\n      jumpi\n      pop\n        /* \"contracts/Founding Citizens NFT Sale.sol\":4661:4668  endTime */\n      sload(0x06)\n        /* \"contracts/Founding Citizens NFT Sale.sol\":4642:4657  block.timestamp */\n      timestamp\n        /* \"contracts/Founding Citizens NFT Sale.sol\":4642:4668  block.timestamp <= endTime */\n      gt\n      iszero\n        /* \"contracts/Founding Citizens NFT Sale.sol\":4610:4668  block.timestamp >= startTime && block.timestamp <= endTime */\n    tag_334:\n        /* \"contracts/Founding Citizens NFT Sale.sol\":4606:4787  if (block.timestamp >= startTime && block.timestamp <= endTime) {\r... */\n      iszero\n      tag_335\n      jumpi\n        /* \"contracts/Founding Citizens NFT Sale.sol\":4709:4713  true */\n      0x01\n        /* \"contracts/Founding Citizens NFT Sale.sol\":4685:4695  lastUpdate */\n      0x09\n        /* \"contracts/Founding Citizens NFT Sale.sol\":4685:4706  lastUpdate.saleIsLive */\n      0x02\n      add\n      0x00\n        /* \"contracts/Founding Citizens NFT Sale.sol\":4685:4713  lastUpdate.saleIsLive = true */\n      0x0100\n      exp\n      dup2\n      sload\n      dup2\n      0xff\n      mul\n      not\n      and\n      swap1\n      dup4\n      iszero\n      iszero\n      mul\n      or\n      swap1\n      sstore\n      pop\n        /* \"contracts/Founding Citizens NFT Sale.sol\":4606:4787  if (block.timestamp >= startTime && block.timestamp <= endTime) {\r... */\n      jump(tag_336)\n    tag_335:\n        /* \"contracts/Founding Citizens NFT Sale.sol\":4770:4775  false */\n      0x00\n        /* \"contracts/Founding Citizens NFT Sale.sol\":4746:4756  lastUpdate */\n      0x09\n        /* \"contracts/Founding Citizens NFT Sale.sol\":4746:4767  lastUpdate.saleIsLive */\n      0x02\n      add\n      0x00\n        /* \"contracts/Founding Citizens NFT Sale.sol\":4746:4775  lastUpdate.saleIsLive = false */\n      0x0100\n      exp\n      dup2\n      sload\n      dup2\n      0xff\n      mul\n      not\n      and\n      swap1\n      dup4\n      iszero\n      iszero\n      mul\n      or\n      swap1\n      sstore\n      pop\n        /* \"contracts/Founding Citizens NFT Sale.sol\":4606:4787  if (block.timestamp >= startTime && block.timestamp <= endTime) {\r... */\n    tag_336:\n        /* \"contracts/Founding Citizens NFT Sale.sol\":4303:4794  function updateState() internal requiresConsistentState {\r... */\n      jump\t// out\n        /* \"@openzeppelin/contracts@4.4.2/utils/Context.sol\":640:736  function _msgSender() internal view virtual returns (address) {... */\n    tag_150:\n        /* \"@openzeppelin/contracts@4.4.2/utils/Context.sol\":693:700  address */\n      0x00\n        /* \"@openzeppelin/contracts@4.4.2/utils/Context.sol\":719:729  msg.sender */\n      caller\n        /* \"@openzeppelin/contracts@4.4.2/utils/Context.sol\":712:729  return msg.sender */\n      swap1\n      pop\n        /* \"@openzeppelin/contracts@4.4.2/utils/Context.sol\":640:736  function _msgSender() internal view virtual returns (address) {... */\n      swap1\n      jump\t// out\n        /* \"contracts/Founding Citizens NFT Sale.sol\":4977:5108  function mintNextNftToAddress(address to) internal {\r... */\n    tag_170:\n        /* \"contracts/Founding Citizens NFT Sale.sol\":5052:5074  ERC1155storageContract */\n      0x01\n      0x00\n      swap1\n      sload\n      swap1\n      0x0100\n      exp\n      swap1\n      div\n      0xffffffffffffffffffffffffffffffffffffffff\n      and\n        /* \"contracts/Founding Citizens NFT Sale.sol\":5039:5096  IMintStorage(ERC1155storageContract).mintNextNftToAddress */\n      0xffffffffffffffffffffffffffffffffffffffff\n      and\n      0x55676590\n        /* \"contracts/Founding Citizens NFT Sale.sol\":5097:5099  to */\n      dup3\n        /* \"contracts/Founding Citizens NFT Sale.sol\":5039:5100  IMintStorage(ERC1155storageContract).mintNextNftToAddress(to) */\n      mload(0x40)\n      dup3\n      0xffffffff\n      and\n      0xe0\n      shl\n      dup2\n      mstore\n      0x04\n      add\n      tag_339\n      swap2\n      swap1\n      tag_126\n      jump\t// in\n    tag_339:\n      0x00\n      mload(0x40)\n      dup1\n      dup4\n      sub\n      dup2\n      0x00\n      dup8\n      dup1\n      extcodesize\n      iszero\n      dup1\n      iszero\n      tag_340\n      jumpi\n      0x00\n      dup1\n      revert\n    tag_340:\n      pop\n      gas\n      call\n      iszero\n      dup1\n      iszero\n      tag_342\n      jumpi\n      returndatasize\n      0x00\n      dup1\n      returndatacopy\n      revert(0x00, returndatasize)\n    tag_342:\n      pop\n      pop\n      pop\n      pop\n        /* \"contracts/Founding Citizens NFT Sale.sol\":4977:5108  function mintNextNftToAddress(address to) internal {\r... */\n      pop\n      jump\t// out\n        /* \"@openzeppelin/contracts@4.4.2/access/AccessControl.sol\":3312:3796  function _checkRole(bytes32 role, address account) internal view {... */\n    tag_175:\n        /* \"@openzeppelin/contracts@4.4.2/access/AccessControl.sol\":3392:3414  hasRole(role, account) */\n      tag_344\n        /* \"@openzeppelin/contracts@4.4.2/access/AccessControl.sol\":3400:3404  role */\n      dup3\n        /* \"@openzeppelin/contracts@4.4.2/access/AccessControl.sol\":3406:3413  account */\n      dup3\n        /* \"@openzeppelin/contracts@4.4.2/access/AccessControl.sol\":3392:3399  hasRole */\n      tag_98\n        /* \"@openzeppelin/contracts@4.4.2/access/AccessControl.sol\":3392:3414  hasRole(role, account) */\n      jump\t// in\n    tag_344:\n        /* \"@openzeppelin/contracts@4.4.2/access/AccessControl.sol\":3387:3790  if (!hasRole(role, account)) {... */\n      tag_345\n      jumpi\n        /* \"@openzeppelin/contracts@4.4.2/access/AccessControl.sol\":3575:3616  Strings.toHexString(uint160(account), 20) */\n      tag_346\n        /* \"@openzeppelin/contracts@4.4.2/access/AccessControl.sol\":3603:3610  account */\n      dup2\n        /* \"@openzeppelin/contracts@4.4.2/access/AccessControl.sol\":3575:3616  Strings.toHexString(uint160(account), 20) */\n      0xffffffffffffffffffffffffffffffffffffffff\n      and\n        /* \"@openzeppelin/contracts@4.4.2/access/AccessControl.sol\":3613:3615  20 */\n      0x14\n        /* \"@openzeppelin/contracts@4.4.2/access/AccessControl.sol\":3575:3594  Strings.toHexString */\n      tag_347\n        /* \"@openzeppelin/contracts@4.4.2/access/AccessControl.sol\":3575:3616  Strings.toHexString(uint160(account), 20) */\n      jump\t// in\n    tag_346:\n        /* \"@openzeppelin/contracts@4.4.2/access/AccessControl.sol\":3687:3725  Strings.toHexString(uint256(role), 32) */\n      tag_348\n        /* \"@openzeppelin/contracts@4.4.2/access/AccessControl.sol\":3715:3719  role */\n      dup4\n        /* \"@openzeppelin/contracts@4.4.2/access/AccessControl.sol\":3707:3720  uint256(role) */\n      0x00\n      shr\n        /* \"@openzeppelin/contracts@4.4.2/access/AccessControl.sol\":3722:3724  32 */\n      0x20\n        /* \"@openzeppelin/contracts@4.4.2/access/AccessControl.sol\":3687:3706  Strings.toHexString */\n      tag_347\n        /* \"@openzeppelin/contracts@4.4.2/access/AccessControl.sol\":3687:3725  Strings.toHexString(uint256(role), 32) */\n      jump\t// in\n    tag_348:\n        /* \"@openzeppelin/contracts@4.4.2/access/AccessControl.sol\":3482:3747  abi.encodePacked(... */\n      add(0x20, mload(0x40))\n      tag_349\n      swap3\n      swap2\n      swap1\n      tag_350\n      jump\t// in\n    tag_349:\n      mload(0x40)\n      0x20\n      dup2\n      dup4\n      sub\n      sub\n      dup2\n      mstore\n      swap1\n      0x40\n      mstore\n        /* \"@openzeppelin/contracts@4.4.2/access/AccessControl.sol\":3430:3779  revert(... */\n      mload(0x40)\n      0x08c379a000000000000000000000000000000000000000000000000000000000\n      dup2\n      mstore\n      0x04\n      add\n      tag_351\n      swap2\n      swap1\n      tag_263\n      jump\t// in\n    tag_351:\n      mload(0x40)\n      dup1\n      swap2\n      sub\n      swap1\n      revert\n        /* \"@openzeppelin/contracts@4.4.2/access/AccessControl.sol\":3387:3790  if (!hasRole(role, account)) {... */\n    tag_345:\n        /* \"@openzeppelin/contracts@4.4.2/access/AccessControl.sol\":3312:3796  function _checkRole(bytes32 role, address account) internal view {... */\n      pop\n      pop\n      jump\t// out\n        /* \"@openzeppelin/contracts@4.4.2/access/AccessControl.sol\":6822:7055  function _grantRole(bytes32 role, address account) internal virtual {... */\n    tag_178:\n        /* \"@openzeppelin/contracts@4.4.2/access/AccessControl.sol\":6905:6927  hasRole(role, account) */\n      tag_353\n        /* \"@openzeppelin/contracts@4.4.2/access/AccessControl.sol\":6913:6917  role */\n      dup3\n        /* \"@openzeppelin/contracts@4.4.2/access/AccessControl.sol\":6919:6926  account */\n      dup3\n        /* \"@openzeppelin/contracts@4.4.2/access/AccessControl.sol\":6905:6912  hasRole */\n      tag_98\n        /* \"@openzeppelin/contracts@4.4.2/access/AccessControl.sol\":6905:6927  hasRole(role, account) */\n      jump\t// in\n    tag_353:\n        /* \"@openzeppelin/contracts@4.4.2/access/AccessControl.sol\":6900:7049  if (!hasRole(role, account)) {... */\n      tag_354\n      jumpi\n        /* \"@openzeppelin/contracts@4.4.2/access/AccessControl.sol\":6975:6979  true */\n      0x01\n        /* \"@openzeppelin/contracts@4.4.2/access/AccessControl.sol\":6943:6949  _roles */\n      0x00\n        /* \"@openzeppelin/contracts@4.4.2/access/AccessControl.sol\":6943:6955  _roles[role] */\n      dup1\n        /* \"@openzeppelin/contracts@4.4.2/access/AccessControl.sol\":6950:6954  role */\n      dup5\n        /* \"@openzeppelin/contracts@4.4.2/access/AccessControl.sol\":6943:6955  _roles[role] */\n      dup2\n      mstore\n      0x20\n      add\n      swap1\n      dup2\n      mstore\n      0x20\n      add\n      0x00\n      keccak256\n        /* \"@openzeppelin/contracts@4.4.2/access/AccessControl.sol\":6943:6963  _roles[role].members */\n      0x00\n      add\n        /* \"@openzeppelin/contracts@4.4.2/access/AccessControl.sol\":6943:6972  _roles[role].members[account] */\n      0x00\n        /* \"@openzeppelin/contracts@4.4.2/access/AccessControl.sol\":6964:6971  account */\n      dup4\n        /* \"@openzeppelin/contracts@4.4.2/access/AccessControl.sol\":6943:6972  _roles[role].members[account] */\n      0xffffffffffffffffffffffffffffffffffffffff\n      and\n      0xffffffffffffffffffffffffffffffffffffffff\n      and\n      dup2\n      mstore\n      0x20\n      add\n      swap1\n      dup2\n      mstore\n      0x20\n      add\n      0x00\n      keccak256\n      0x00\n        /* \"@openzeppelin/contracts@4.4.2/access/AccessControl.sol\":6943:6979  _roles[role].members[account] = true */\n      0x0100\n      exp\n      dup2\n      sload\n      dup2\n      0xff\n      mul\n      not\n      and\n      swap1\n      dup4\n      iszero\n      iszero\n      mul\n      or\n      swap1\n      sstore\n      pop\n        /* \"@openzeppelin/contracts@4.4.2/access/AccessControl.sol\":7025:7037  _msgSender() */\n      tag_355\n        /* \"@openzeppelin/contracts@4.4.2/access/AccessControl.sol\":7025:7035  _msgSender */\n      tag_150\n        /* \"@openzeppelin/contracts@4.4.2/access/AccessControl.sol\":7025:7037  _msgSender() */\n      jump\t// in\n    tag_355:\n        /* \"@openzeppelin/contracts@4.4.2/access/AccessControl.sol\":6998:7038  RoleGranted(role, account, _msgSender()) */\n      0xffffffffffffffffffffffffffffffffffffffff\n      and\n        /* \"@openzeppelin/contracts@4.4.2/access/AccessControl.sol\":7016:7023  account */\n      dup2\n        /* \"@openzeppelin/contracts@4.4.2/access/AccessControl.sol\":6998:7038  RoleGranted(role, account, _msgSender()) */\n      0xffffffffffffffffffffffffffffffffffffffff\n      and\n        /* \"@openzeppelin/contracts@4.4.2/access/AccessControl.sol\":7010:7014  role */\n      dup4\n        /* \"@openzeppelin/contracts@4.4.2/access/AccessControl.sol\":6998:7038  RoleGranted(role, account, _msgSender()) */\n      0x2f8788117e7eff1d82e926ec794901d17c78024a50270940304540a733656f0d\n      mload(0x40)\n      mload(0x40)\n      dup1\n      swap2\n      sub\n      swap1\n      log4\n        /* \"@openzeppelin/contracts@4.4.2/access/AccessControl.sol\":6900:7049  if (!hasRole(role, account)) {... */\n    tag_354:\n        /* \"@openzeppelin/contracts@4.4.2/access/AccessControl.sol\":6822:7055  function _grantRole(bytes32 role, address account) internal virtual {... */\n      pop\n      pop\n      jump\t// out\n        /* \"@openzeppelin/contracts@4.4.2/access/AccessControl.sol\":7180:7414  function _revokeRole(bytes32 role, address account) internal virtual {... */\n    tag_185:\n        /* \"@openzeppelin/contracts@4.4.2/access/AccessControl.sol\":7263:7285  hasRole(role, account) */\n      tag_357\n        /* \"@openzeppelin/contracts@4.4.2/access/AccessControl.sol\":7271:7275  role */\n      dup3\n        /* \"@openzeppelin/contracts@4.4.2/access/AccessControl.sol\":7277:7284  account */\n      dup3\n        /* \"@openzeppelin/contracts@4.4.2/access/AccessControl.sol\":7263:7270  hasRole */\n      tag_98\n        /* \"@openzeppelin/contracts@4.4.2/access/AccessControl.sol\":7263:7285  hasRole(role, account) */\n      jump\t// in\n    tag_357:\n        /* \"@openzeppelin/contracts@4.4.2/access/AccessControl.sol\":7259:7408  if (hasRole(role, account)) {... */\n      iszero\n      tag_358\n      jumpi\n        /* \"@openzeppelin/contracts@4.4.2/access/AccessControl.sol\":7333:7338  false */\n      0x00\n        /* \"@openzeppelin/contracts@4.4.2/access/AccessControl.sol\":7301:7307  _roles */\n      dup1\n        /* \"@openzeppelin/contracts@4.4.2/access/AccessControl.sol\":7301:7313  _roles[role] */\n      0x00\n        /* \"@openzeppelin/contracts@4.4.2/access/AccessControl.sol\":7308:7312  role */\n      dup5\n        /* \"@openzeppelin/contracts@4.4.2/access/AccessControl.sol\":7301:7313  _roles[role] */\n      dup2\n      mstore\n      0x20\n      add\n      swap1\n      dup2\n      mstore\n      0x20\n      add\n      0x00\n      keccak256\n        /* \"@openzeppelin/contracts@4.4.2/access/AccessControl.sol\":7301:7321  _roles[role].members */\n      0x00\n      add\n        /* \"@openzeppelin/contracts@4.4.2/access/AccessControl.sol\":7301:7330  _roles[role].members[account] */\n      0x00\n        /* \"@openzeppelin/contracts@4.4.2/access/AccessControl.sol\":7322:7329  account */\n      dup4\n        /* \"@openzeppelin/contracts@4.4.2/access/AccessControl.sol\":7301:7330  _roles[role].members[account] */\n      0xffffffffffffffffffffffffffffffffffffffff\n      and\n      0xffffffffffffffffffffffffffffffffffffffff\n      and\n      dup2\n      mstore\n      0x20\n      add\n      swap1\n      dup2\n      mstore\n      0x20\n      add\n      0x00\n      keccak256\n      0x00\n        /* \"@openzeppelin/contracts@4.4.2/access/AccessControl.sol\":7301:7338  _roles[role].members[account] = false */\n      0x0100\n      exp\n      dup2\n      sload\n      dup2\n      0xff\n      mul\n      not\n      and\n      swap1\n      dup4\n      iszero\n      iszero\n      mul\n      or\n      swap1\n      sstore\n      pop\n        /* \"@openzeppelin/contracts@4.4.2/access/AccessControl.sol\":7384:7396  _msgSender() */\n      tag_359\n        /* \"@openzeppelin/contracts@4.4.2/access/AccessControl.sol\":7384:7394  _msgSender */\n      tag_150\n        /* \"@openzeppelin/contracts@4.4.2/access/AccessControl.sol\":7384:7396  _msgSender() */\n      jump\t// in\n    tag_359:\n        /* \"@openzeppelin/contracts@4.4.2/access/AccessControl.sol\":7357:7397  RoleRevoked(role, account, _msgSender()) */\n      0xffffffffffffffffffffffffffffffffffffffff\n      and\n        /* \"@openzeppelin/contracts@4.4.2/access/AccessControl.sol\":7375:7382  account */\n      dup2\n        /* \"@openzeppelin/contracts@4.4.2/access/AccessControl.sol\":7357:7397  RoleRevoked(role, account, _msgSender()) */\n      0xffffffffffffffffffffffffffffffffffffffff\n      and\n        /* \"@openzeppelin/contracts@4.4.2/access/AccessControl.sol\":7369:7373  role */\n      dup4\n        /* \"@openzeppelin/contracts@4.4.2/access/AccessControl.sol\":7357:7397  RoleRevoked(role, account, _msgSender()) */\n      0xf6391f5c32d9c69d2a47ea670b442974b53935d1edc7fd64eb21e047a839171b\n      mload(0x40)\n      mload(0x40)\n      dup1\n      swap2\n      sub\n      swap1\n      log4\n        /* \"@openzeppelin/contracts@4.4.2/access/AccessControl.sol\":7259:7408  if (hasRole(role, account)) {... */\n    tag_358:\n        /* \"@openzeppelin/contracts@4.4.2/access/AccessControl.sol\":7180:7414  function _revokeRole(bytes32 role, address account) internal virtual {... */\n      pop\n      pop\n      jump\t// out\n        /* \"contracts/Founding Citizens NFT Sale.sol\":6990:7154  function _buyNFT(uint price) internal {\r... */\n    tag_201:\n        /* \"contracts/Founding Citizens NFT Sale.sol\":7039:7064  usdcEscrowStorageContract */\n      0x03\n      0x00\n      swap1\n      sload\n      swap1\n      0x0100\n      exp\n      swap1\n      div\n      0xffffffffffffffffffffffffffffffffffffffff\n      and\n        /* \"contracts/Founding Citizens NFT Sale.sol\":7039:7084  usdcEscrowStorageContract.decreaseUsdcBalance */\n      0xffffffffffffffffffffffffffffffffffffffff\n      and\n      0x532b2913\n        /* \"contracts/Founding Citizens NFT Sale.sol\":7085:7095  msg.sender */\n      caller\n        /* \"contracts/Founding Citizens NFT Sale.sol\":7097:7102  price */\n      dup4\n        /* \"contracts/Founding Citizens NFT Sale.sol\":7039:7103  usdcEscrowStorageContract.decreaseUsdcBalance(msg.sender, price) */\n      mload(0x40)\n      dup4\n      0xffffffff\n      and\n      0xe0\n      shl\n      dup2\n      mstore\n      0x04\n      add\n      tag_361\n      swap3\n      swap2\n      swap1\n      tag_253\n      jump\t// in\n    tag_361:\n      0x00\n      mload(0x40)\n      dup1\n      dup4\n      sub\n      dup2\n      0x00\n      dup8\n      dup1\n      extcodesize\n      iszero\n      dup1\n      iszero\n      tag_362\n      jumpi\n      0x00\n      dup1\n      revert\n    tag_362:\n      pop\n      gas\n      call\n      iszero\n      dup1\n      iszero\n      tag_364\n      jumpi\n      returndatasize\n      0x00\n      dup1\n      returndatacopy\n      revert(0x00, returndatasize)\n    tag_364:\n      pop\n      pop\n      pop\n      pop\n        /* \"contracts/Founding Citizens NFT Sale.sol\":7114:7146  mintNextNftToAddress(msg.sender) */\n      tag_365\n        /* \"contracts/Founding Citizens NFT Sale.sol\":7135:7145  msg.sender */\n      caller\n        /* \"contracts/Founding Citizens NFT Sale.sol\":7114:7134  mintNextNftToAddress */\n      tag_170\n        /* \"contracts/Founding Citizens NFT Sale.sol\":7114:7146  mintNextNftToAddress(msg.sender) */\n      jump\t// in\n    tag_365:\n        /* \"contracts/Founding Citizens NFT Sale.sol\":6990:7154  function _buyNFT(uint price) internal {\r... */\n      pop\n      jump\t// out\n        /* \"@openzeppelin/contracts@4.4.2/utils/math/Math.sol\":270:375  function max(uint256 a, uint256 b) internal pure returns (uint256) {... */\n    tag_220:\n        /* \"@openzeppelin/contracts@4.4.2/utils/math/Math.sol\":328:335  uint256 */\n      0x00\n        /* \"@openzeppelin/contracts@4.4.2/utils/math/Math.sol\":359:360  b */\n      dup2\n        /* \"@openzeppelin/contracts@4.4.2/utils/math/Math.sol\":354:355  a */\n      dup4\n        /* \"@openzeppelin/contracts@4.4.2/utils/math/Math.sol\":354:360  a >= b */\n      lt\n      iszero\n        /* \"@openzeppelin/contracts@4.4.2/utils/math/Math.sol\":354:368  a >= b ? a : b */\n      tag_367\n      jumpi\n        /* \"@openzeppelin/contracts@4.4.2/utils/math/Math.sol\":367:368  b */\n      dup2\n        /* \"@openzeppelin/contracts@4.4.2/utils/math/Math.sol\":354:368  a >= b ? a : b */\n      jump(tag_368)\n    tag_367:\n        /* \"@openzeppelin/contracts@4.4.2/utils/math/Math.sol\":363:364  a */\n      dup3\n        /* \"@openzeppelin/contracts@4.4.2/utils/math/Math.sol\":354:368  a >= b ? a : b */\n    tag_368:\n        /* \"@openzeppelin/contracts@4.4.2/utils/math/Math.sol\":347:368  return a >= b ? a : b */\n      swap1\n      pop\n        /* \"@openzeppelin/contracts@4.4.2/utils/math/Math.sol\":270:375  function max(uint256 a, uint256 b) internal pure returns (uint256) {... */\n      swap3\n      swap2\n      pop\n      pop\n      jump\t// out\n        /* \"@openzeppelin/contracts@4.4.2/utils/Strings.sol\":1588:2029  function toHexString(uint256 value, uint256 length) internal pure returns (string memory) {... */\n    tag_347:\n        /* \"@openzeppelin/contracts@4.4.2/utils/Strings.sol\":1663:1676  string memory */\n      0x60\n        /* \"@openzeppelin/contracts@4.4.2/utils/Strings.sol\":1688:1707  bytes memory buffer */\n      0x00\n        /* \"@openzeppelin/contracts@4.4.2/utils/Strings.sol\":1733:1734  2 */\n      0x02\n        /* \"@openzeppelin/contracts@4.4.2/utils/Strings.sol\":1724:1730  length */\n      dup4\n        /* \"@openzeppelin/contracts@4.4.2/utils/Strings.sol\":1720:1721  2 */\n      0x02\n        /* \"@openzeppelin/contracts@4.4.2/utils/Strings.sol\":1720:1730  2 * length */\n      tag_370\n      swap2\n      swap1\n      tag_268\n      jump\t// in\n    tag_370:\n        /* \"@openzeppelin/contracts@4.4.2/utils/Strings.sol\":1720:1734  2 * length + 2 */\n      tag_371\n      swap2\n      swap1\n      tag_372\n      jump\t// in\n    tag_371:\n        /* \"@openzeppelin/contracts@4.4.2/utils/Strings.sol\":1710:1735  new bytes(2 * length + 2) */\n      0xffffffffffffffff\n      dup2\n      gt\n      iszero\n      tag_373\n      jumpi\n      mstore(0x00, 0x4e487b7100000000000000000000000000000000000000000000000000000000)\n      mstore(0x04, 0x41)\n      revert(0x00, 0x24)\n    tag_373:\n      mload(0x40)\n      swap1\n      dup1\n      dup3\n      mstore\n      dup1\n      0x1f\n      add\n      not(0x1f)\n      and\n      0x20\n      add\n      dup3\n      add\n      0x40\n      mstore\n      dup1\n      iszero\n      tag_374\n      jumpi\n      dup2\n      0x20\n      add\n      0x01\n      dup3\n      mul\n      dup1\n      calldatasize\n      dup4\n      calldatacopy\n      dup1\n      dup3\n      add\n      swap2\n      pop\n      pop\n      swap1\n      pop\n    tag_374:\n      pop\n        /* \"@openzeppelin/contracts@4.4.2/utils/Strings.sol\":1688:1735  bytes memory buffer = new bytes(2 * length + 2) */\n      swap1\n      pop\n        /* \"@openzeppelin/contracts@4.4.2/utils/Strings.sol\":1745:1760  buffer[0] = \"0\" */\n      0x3000000000000000000000000000000000000000000000000000000000000000\n        /* \"@openzeppelin/contracts@4.4.2/utils/Strings.sol\":1745:1751  buffer */\n      dup2\n        /* \"@openzeppelin/contracts@4.4.2/utils/Strings.sol\":1752:1753  0 */\n      0x00\n        /* \"@openzeppelin/contracts@4.4.2/utils/Strings.sol\":1745:1754  buffer[0] */\n      dup2\n      mload\n      dup2\n      lt\n      tag_375\n      jumpi\n      mstore(0x00, 0x4e487b7100000000000000000000000000000000000000000000000000000000)\n      mstore(0x04, 0x32)\n      revert(0x00, 0x24)\n    tag_375:\n      0x20\n      add\n      add\n        /* \"@openzeppelin/contracts@4.4.2/utils/Strings.sol\":1745:1760  buffer[0] = \"0\" */\n      swap1\n      not(0xffffffffffffffffffffffffffffffffffffffffffffffffffffffffffffff)\n      and\n      swap1\n      dup2\n      0x00\n      byte\n      swap1\n      mstore8\n      pop\n        /* \"@openzeppelin/contracts@4.4.2/utils/Strings.sol\":1770:1785  buffer[1] = \"x\" */\n      0x7800000000000000000000000000000000000000000000000000000000000000\n        /* \"@openzeppelin/contracts@4.4.2/utils/Strings.sol\":1770:1776  buffer */\n      dup2\n        /* \"@openzeppelin/contracts@4.4.2/utils/Strings.sol\":1777:1778  1 */\n      0x01\n        /* \"@openzeppelin/contracts@4.4.2/utils/Strings.sol\":1770:1779  buffer[1] */\n      dup2\n      mload\n      dup2\n      lt\n      tag_376\n      jumpi\n      mstore(0x00, 0x4e487b7100000000000000000000000000000000000000000000000000000000)\n      mstore(0x04, 0x32)\n      revert(0x00, 0x24)\n    tag_376:\n      0x20\n      add\n      add\n        /* \"@openzeppelin/contracts@4.4.2/utils/Strings.sol\":1770:1785  buffer[1] = \"x\" */\n      swap1\n      not(0xffffffffffffffffffffffffffffffffffffffffffffffffffffffffffffff)\n      and\n      swap1\n      dup2\n      0x00\n      byte\n      swap1\n      mstore8\n      pop\n        /* \"@openzeppelin/contracts@4.4.2/utils/Strings.sol\":1800:1809  uint256 i */\n      0x00\n        /* \"@openzeppelin/contracts@4.4.2/utils/Strings.sol\":1825:1826  1 */\n      0x01\n        /* \"@openzeppelin/contracts@4.4.2/utils/Strings.sol\":1816:1822  length */\n      dup5\n        /* \"@openzeppelin/contracts@4.4.2/utils/Strings.sol\":1812:1813  2 */\n      0x02\n        /* \"@openzeppelin/contracts@4.4.2/utils/Strings.sol\":1812:1822  2 * length */\n      tag_380\n      swap2\n      swap1\n      tag_268\n      jump\t// in\n    tag_380:\n        /* \"@openzeppelin/contracts@4.4.2/utils/Strings.sol\":1812:1826  2 * length + 1 */\n      tag_381\n      swap2\n      swap1\n      tag_372\n      jump\t// in\n    tag_381:\n        /* \"@openzeppelin/contracts@4.4.2/utils/Strings.sol\":1800:1826  uint256 i = 2 * length + 1 */\n      swap1\n      pop\n        /* \"@openzeppelin/contracts@4.4.2/utils/Strings.sol\":1795:1927  for (uint256 i = 2 * length + 1; i > 1; --i) {... */\n    tag_377:\n        /* \"@openzeppelin/contracts@4.4.2/utils/Strings.sol\":1832:1833  1 */\n      0x01\n        /* \"@openzeppelin/contracts@4.4.2/utils/Strings.sol\":1828:1829  i */\n      dup2\n        /* \"@openzeppelin/contracts@4.4.2/utils/Strings.sol\":1828:1833  i > 1 */\n      gt\n        /* \"@openzeppelin/contracts@4.4.2/utils/Strings.sol\":1795:1927  for (uint256 i = 2 * length + 1; i > 1; --i) {... */\n      iszero\n      tag_378\n      jumpi\n        /* \"@openzeppelin/contracts@4.4.2/utils/Strings.sol\":1866:1878  _HEX_SYMBOLS */\n      0x3031323334353637383961626364656600000000000000000000000000000000\n        /* \"@openzeppelin/contracts@4.4.2/utils/Strings.sol\":1887:1890  0xf */\n      0x0f\n        /* \"@openzeppelin/contracts@4.4.2/utils/Strings.sol\":1879:1884  value */\n      dup7\n        /* \"@openzeppelin/contracts@4.4.2/utils/Strings.sol\":1879:1890  value & 0xf */\n      and\n        /* \"@openzeppelin/contracts@4.4.2/utils/Strings.sol\":1866:1891  _HEX_SYMBOLS[value & 0xf] */\n      0x10\n      dup2\n      lt\n      tag_382\n      jumpi\n      mstore(0x00, 0x4e487b7100000000000000000000000000000000000000000000000000000000)\n      mstore(0x04, 0x32)\n      revert(0x00, 0x24)\n    tag_382:\n      byte\n      0xf8\n      shl\n        /* \"@openzeppelin/contracts@4.4.2/utils/Strings.sol\":1854:1860  buffer */\n      dup3\n        /* \"@openzeppelin/contracts@4.4.2/utils/Strings.sol\":1861:1862  i */\n      dup3\n        /* \"@openzeppelin/contracts@4.4.2/utils/Strings.sol\":1854:1863  buffer[i] */\n      dup2\n      mload\n      dup2\n      lt\n      tag_383\n      jumpi\n      mstore(0x00, 0x4e487b7100000000000000000000000000000000000000000000000000000000)\n      mstore(0x04, 0x32)\n      revert(0x00, 0x24)\n    tag_383:\n      0x20\n      add\n      add\n        /* \"@openzeppelin/contracts@4.4.2/utils/Strings.sol\":1854:1891  buffer[i] = _HEX_SYMBOLS[value & 0xf] */\n      swap1\n      not(0xffffffffffffffffffffffffffffffffffffffffffffffffffffffffffffff)\n      and\n      swap1\n      dup2\n      0x00\n      byte\n      swap1\n      mstore8\n      pop\n        /* \"@openzeppelin/contracts@4.4.2/utils/Strings.sol\":1915:1916  4 */\n      0x04\n        /* \"@openzeppelin/contracts@4.4.2/utils/Strings.sol\":1905:1916  value >>= 4 */\n      dup6\n      swap1\n      shr\n      swap5\n      pop\n        /* \"@openzeppelin/contracts@4.4.2/utils/Strings.sol\":1835:1838  --i */\n      dup1\n      tag_384\n      swap1\n      tag_226\n      jump\t// in\n    tag_384:\n      swap1\n      pop\n        /* \"@openzeppelin/contracts@4.4.2/utils/Strings.sol\":1795:1927  for (uint256 i = 2 * length + 1; i > 1; --i) {... */\n      jump(tag_377)\n    tag_378:\n      pop\n        /* \"@openzeppelin/contracts@4.4.2/utils/Strings.sol\":1953:1954  0 */\n      0x00\n        /* \"@openzeppelin/contracts@4.4.2/utils/Strings.sol\":1944:1949  value */\n      dup5\n        /* \"@openzeppelin/contracts@4.4.2/utils/Strings.sol\":1944:1954  value == 0 */\n      eq\n        /* \"@openzeppelin/contracts@4.4.2/utils/Strings.sol\":1936:1991  require(value == 0, \"Strings: hex length insufficient\") */\n      tag_385\n      jumpi\n      mload(0x40)\n      0x08c379a000000000000000000000000000000000000000000000000000000000\n      dup2\n      mstore\n      0x04\n      add\n      tag_386\n      swap1\n      tag_387\n      jump\t// in\n    tag_386:\n      mload(0x40)\n      dup1\n      swap2\n      sub\n      swap1\n      revert\n    tag_385:\n        /* \"@openzeppelin/contracts@4.4.2/utils/Strings.sol\":2015:2021  buffer */\n      dup1\n        /* \"@openzeppelin/contracts@4.4.2/utils/Strings.sol\":2001:2022  return string(buffer) */\n      swap2\n      pop\n      pop\n        /* \"@openzeppelin/contracts@4.4.2/utils/Strings.sol\":1588:2029  function toHexString(uint256 value, uint256 length) internal pure returns (string memory) {... */\n      swap3\n      swap2\n      pop\n      pop\n      jump\t// out\n        /* \"#utility.yul\":23:639   */\n    tag_389:\n      0x00\n        /* \"#utility.yul\":154:245   */\n      tag_391\n        /* \"#utility.yul\":170:244   */\n      tag_392\n        /* \"#utility.yul\":237:243   */\n      dup5\n        /* \"#utility.yul\":170:244   */\n      tag_393\n      jump\t// in\n    tag_392:\n        /* \"#utility.yul\":154:245   */\n      tag_394\n      jump\t// in\n    tag_391:\n        /* \"#utility.yul\":145:245   */\n      swap1\n      pop\n        /* \"#utility.yul\":265:270   */\n      dup1\n        /* \"#utility.yul\":293:299   */\n      dup4\n        /* \"#utility.yul\":286:291   */\n      dup3\n        /* \"#utility.yul\":279:300   */\n      mstore\n        /* \"#utility.yul\":319:323   */\n      0x20\n        /* \"#utility.yul\":312:317   */\n      dup3\n        /* \"#utility.yul\":308:324   */\n      add\n        /* \"#utility.yul\":301:324   */\n      swap1\n      pop\n        /* \"#utility.yul\":344:350   */\n      dup3\n        /* \"#utility.yul\":375:376   */\n      0x00\n        /* \"#utility.yul\":360:633   */\n    tag_395:\n        /* \"#utility.yul\":385:391   */\n      dup6\n        /* \"#utility.yul\":382:383   */\n      dup2\n        /* \"#utility.yul\":379:392   */\n      lt\n        /* \"#utility.yul\":360:633   */\n      iszero\n      tag_397\n      jumpi\n        /* \"#utility.yul\":477:480   */\n      dup2\n        /* \"#utility.yul\":464:481   */\n      calldataload\n        /* \"#utility.yul\":456:462   */\n      dup6\n        /* \"#utility.yul\":452:482   */\n      add\n        /* \"#utility.yul\":507:554   */\n      tag_398\n        /* \"#utility.yul\":550:553   */\n      dup9\n        /* \"#utility.yul\":538:548   */\n      dup3\n        /* \"#utility.yul\":507:554   */\n      tag_399\n      jump\t// in\n    tag_398:\n        /* \"#utility.yul\":502:505   */\n      dup5\n        /* \"#utility.yul\":495:555   */\n      mstore\n        /* \"#utility.yul\":584:588   */\n      0x20\n        /* \"#utility.yul\":579:582   */\n      dup5\n        /* \"#utility.yul\":575:589   */\n      add\n        /* \"#utility.yul\":568:589   */\n      swap4\n      pop\n        /* \"#utility.yul\":618:622   */\n      0x20\n        /* \"#utility.yul\":613:616   */\n      dup4\n        /* \"#utility.yul\":609:623   */\n      add\n        /* \"#utility.yul\":602:623   */\n      swap3\n      pop\n        /* \"#utility.yul\":420:633   */\n      pop\n        /* \"#utility.yul\":407:408   */\n      0x01\n        /* \"#utility.yul\":404:405   */\n      dup2\n        /* \"#utility.yul\":400:409   */\n      add\n        /* \"#utility.yul\":395:409   */\n      swap1\n      pop\n        /* \"#utility.yul\":360:633   */\n      jump(tag_395)\n    tag_397:\n        /* \"#utility.yul\":364:378   */\n      pop\n        /* \"#utility.yul\":135:639   */\n      pop\n      pop\n      swap4\n      swap3\n      pop\n      pop\n      pop\n      jump\t// out\n        /* \"#utility.yul\":662:1285   */\n    tag_400:\n      0x00\n        /* \"#utility.yul\":783:864   */\n      tag_402\n        /* \"#utility.yul\":799:863   */\n      tag_403\n        /* \"#utility.yul\":856:862   */\n      dup5\n        /* \"#utility.yul\":799:863   */\n      tag_404\n      jump\t// in\n    tag_403:\n        /* \"#utility.yul\":783:864   */\n      tag_394\n      jump\t// in\n    tag_402:\n        /* \"#utility.yul\":774:864   */\n      swap1\n      pop\n        /* \"#utility.yul\":884:889   */\n      dup1\n        /* \"#utility.yul\":912:918   */\n      dup4\n        /* \"#utility.yul\":905:910   */\n      dup3\n        /* \"#utility.yul\":898:919   */\n      mstore\n        /* \"#utility.yul\":938:942   */\n      0x20\n        /* \"#utility.yul\":931:936   */\n      dup3\n        /* \"#utility.yul\":927:943   */\n      add\n        /* \"#utility.yul\":920:943   */\n      swap1\n      pop\n        /* \"#utility.yul\":963:969   */\n      dup3\n        /* \"#utility.yul\":1013:1016   */\n      dup6\n        /* \"#utility.yul\":1005:1009   */\n      0x20\n        /* \"#utility.yul\":997:1003   */\n      dup7\n        /* \"#utility.yul\":993:1010   */\n      mul\n        /* \"#utility.yul\":988:991   */\n      dup3\n        /* \"#utility.yul\":984:1011   */\n      add\n        /* \"#utility.yul\":981:1017   */\n      gt\n        /* \"#utility.yul\":978:980   */\n      iszero\n      tag_405\n      jumpi\n        /* \"#utility.yul\":1030:1031   */\n      0x00\n        /* \"#utility.yul\":1027:1028   */\n      dup1\n        /* \"#utility.yul\":1020:1032   */\n      revert\n        /* \"#utility.yul\":978:980   */\n    tag_405:\n        /* \"#utility.yul\":1058:1059   */\n      0x00\n        /* \"#utility.yul\":1043:1279   */\n    tag_406:\n        /* \"#utility.yul\":1068:1074   */\n      dup6\n        /* \"#utility.yul\":1065:1066   */\n      dup2\n        /* \"#utility.yul\":1062:1075   */\n      lt\n        /* \"#utility.yul\":1043:1279   */\n      iszero\n      tag_408\n      jumpi\n        /* \"#utility.yul\":1135:1138   */\n      dup2\n        /* \"#utility.yul\":1163:1200   */\n      tag_409\n        /* \"#utility.yul\":1196:1199   */\n      dup9\n        /* \"#utility.yul\":1184:1194   */\n      dup3\n        /* \"#utility.yul\":1163:1200   */\n      tag_410\n      jump\t// in\n    tag_409:\n        /* \"#utility.yul\":1158:1161   */\n      dup5\n        /* \"#utility.yul\":1151:1201   */\n      mstore\n        /* \"#utility.yul\":1230:1234   */\n      0x20\n        /* \"#utility.yul\":1225:1228   */\n      dup5\n        /* \"#utility.yul\":1221:1235   */\n      add\n        /* \"#utility.yul\":1214:1235   */\n      swap4\n      pop\n        /* \"#utility.yul\":1264:1268   */\n      0x20\n        /* \"#utility.yul\":1259:1262   */\n      dup4\n        /* \"#utility.yul\":1255:1269   */\n      add\n        /* \"#utility.yul\":1248:1269   */\n      swap3\n      pop\n        /* \"#utility.yul\":1103:1279   */\n      pop\n        /* \"#utility.yul\":1090:1091   */\n      0x01\n        /* \"#utility.yul\":1087:1088   */\n      dup2\n        /* \"#utility.yul\":1083:1092   */\n      add\n        /* \"#utility.yul\":1078:1092   */\n      swap1\n      pop\n        /* \"#utility.yul\":1043:1279   */\n      jump(tag_406)\n    tag_408:\n        /* \"#utility.yul\":1047:1061   */\n      pop\n        /* \"#utility.yul\":764:1285   */\n      pop\n      pop\n      swap4\n      swap3\n      pop\n      pop\n      pop\n      jump\t// out\n        /* \"#utility.yul\":1291:1636   */\n    tag_411:\n      0x00\n        /* \"#utility.yul\":1394:1460   */\n      tag_413\n        /* \"#utility.yul\":1410:1459   */\n      tag_414\n        /* \"#utility.yul\":1452:1458   */\n      dup5\n        /* \"#utility.yul\":1410:1459   */\n      tag_415\n      jump\t// in\n    tag_414:\n        /* \"#utility.yul\":1394:1460   */\n      tag_394\n      jump\t// in\n    tag_413:\n        /* \"#utility.yul\":1385:1460   */\n      swap1\n      pop\n        /* \"#utility.yul\":1483:1489   */\n      dup3\n        /* \"#utility.yul\":1476:1481   */\n      dup2\n        /* \"#utility.yul\":1469:1490   */\n      mstore\n        /* \"#utility.yul\":1521:1525   */\n      0x20\n        /* \"#utility.yul\":1514:1519   */\n      dup2\n        /* \"#utility.yul\":1510:1526   */\n      add\n        /* \"#utility.yul\":1559:1562   */\n      dup5\n        /* \"#utility.yul\":1550:1556   */\n      dup5\n        /* \"#utility.yul\":1545:1548   */\n      dup5\n        /* \"#utility.yul\":1541:1557   */\n      add\n        /* \"#utility.yul\":1538:1563   */\n      gt\n        /* \"#utility.yul\":1535:1537   */\n      iszero\n      tag_416\n      jumpi\n        /* \"#utility.yul\":1576:1577   */\n      0x00\n        /* \"#utility.yul\":1573:1574   */\n      dup1\n        /* \"#utility.yul\":1566:1578   */\n      revert\n        /* \"#utility.yul\":1535:1537   */\n    tag_416:\n        /* \"#utility.yul\":1589:1630   */\n      tag_417\n        /* \"#utility.yul\":1623:1629   */\n      dup5\n        /* \"#utility.yul\":1618:1621   */\n      dup3\n        /* \"#utility.yul\":1613:1616   */\n      dup6\n        /* \"#utility.yul\":1589:1630   */\n      tag_418\n      jump\t// in\n    tag_417:\n        /* \"#utility.yul\":1375:1636   */\n      pop\n      swap4\n      swap3\n      pop\n      pop\n      pop\n      jump\t// out\n        /* \"#utility.yul\":1642:1781   */\n    tag_419:\n      0x00\n        /* \"#utility.yul\":1726:1732   */\n      dup2\n        /* \"#utility.yul\":1713:1733   */\n      calldataload\n        /* \"#utility.yul\":1704:1733   */\n      swap1\n      pop\n        /* \"#utility.yul\":1742:1775   */\n      tag_421\n        /* \"#utility.yul\":1769:1774   */\n      dup2\n        /* \"#utility.yul\":1742:1775   */\n      tag_422\n      jump\t// in\n    tag_421:\n        /* \"#utility.yul\":1694:1781   */\n      swap3\n      swap2\n      pop\n      pop\n      jump\t// out\n        /* \"#utility.yul\":1803:2126   */\n    tag_423:\n      0x00\n        /* \"#utility.yul\":1933:1936   */\n      dup3\n        /* \"#utility.yul\":1926:1930   */\n      0x1f\n        /* \"#utility.yul\":1918:1924   */\n      dup4\n        /* \"#utility.yul\":1914:1931   */\n      add\n        /* \"#utility.yul\":1910:1937   */\n      slt\n        /* \"#utility.yul\":1900:1902   */\n      tag_425\n      jumpi\n        /* \"#utility.yul\":1951:1952   */\n      0x00\n        /* \"#utility.yul\":1948:1949   */\n      dup1\n        /* \"#utility.yul\":1941:1953   */\n      revert\n        /* \"#utility.yul\":1900:1902   */\n    tag_425:\n        /* \"#utility.yul\":1991:1997   */\n      dup2\n        /* \"#utility.yul\":1978:1998   */\n      calldataload\n        /* \"#utility.yul\":2016:2120   */\n      tag_426\n        /* \"#utility.yul\":2116:2119   */\n      dup5\n        /* \"#utility.yul\":2108:2114   */\n      dup3\n        /* \"#utility.yul\":2101:2105   */\n      0x20\n        /* \"#utility.yul\":2093:2099   */\n      dup7\n        /* \"#utility.yul\":2089:2106   */\n      add\n        /* \"#utility.yul\":2016:2120   */\n      tag_389\n      jump\t// in\n    tag_426:\n        /* \"#utility.yul\":2007:2120   */\n      swap2\n      pop\n        /* \"#utility.yul\":1890:2126   */\n      pop\n      swap3\n      swap2\n      pop\n      pop\n      jump\t// out\n        /* \"#utility.yul\":2149:2452   */\n    tag_427:\n      0x00\n        /* \"#utility.yul\":2269:2272   */\n      dup3\n        /* \"#utility.yul\":2262:2266   */\n      0x1f\n        /* \"#utility.yul\":2254:2260   */\n      dup4\n        /* \"#utility.yul\":2250:2267   */\n      add\n        /* \"#utility.yul\":2246:2273   */\n      slt\n        /* \"#utility.yul\":2236:2238   */\n      tag_429\n      jumpi\n        /* \"#utility.yul\":2287:2288   */\n      0x00\n        /* \"#utility.yul\":2284:2285   */\n      dup1\n        /* \"#utility.yul\":2277:2289   */\n      revert\n        /* \"#utility.yul\":2236:2238   */\n    tag_429:\n        /* \"#utility.yul\":2327:2333   */\n      dup2\n        /* \"#utility.yul\":2314:2334   */\n      calldataload\n        /* \"#utility.yul\":2352:2446   */\n      tag_430\n        /* \"#utility.yul\":2442:2445   */\n      dup5\n        /* \"#utility.yul\":2434:2440   */\n      dup3\n        /* \"#utility.yul\":2427:2431   */\n      0x20\n        /* \"#utility.yul\":2419:2425   */\n      dup7\n        /* \"#utility.yul\":2415:2432   */\n      add\n        /* \"#utility.yul\":2352:2446   */\n      tag_400\n      jump\t// in\n    tag_430:\n        /* \"#utility.yul\":2343:2446   */\n      swap2\n      pop\n        /* \"#utility.yul\":2226:2452   */\n      pop\n      swap3\n      swap2\n      pop\n      pop\n      jump\t// out\n        /* \"#utility.yul\":2458:2595   */\n    tag_431:\n      0x00\n        /* \"#utility.yul\":2543:2549   */\n      dup2\n        /* \"#utility.yul\":2537:2550   */\n      mload\n        /* \"#utility.yul\":2528:2550   */\n      swap1\n      pop\n        /* \"#utility.yul\":2559:2589   */\n      tag_433\n        /* \"#utility.yul\":2583:2588   */\n      dup2\n        /* \"#utility.yul\":2559:2589   */\n      tag_434\n      jump\t// in\n    tag_433:\n        /* \"#utility.yul\":2518:2595   */\n      swap3\n      swap2\n      pop\n      pop\n      jump\t// out\n        /* \"#utility.yul\":2601:2740   */\n    tag_435:\n      0x00\n        /* \"#utility.yul\":2685:2691   */\n      dup2\n        /* \"#utility.yul\":2672:2692   */\n      calldataload\n        /* \"#utility.yul\":2663:2692   */\n      swap1\n      pop\n        /* \"#utility.yul\":2701:2734   */\n      tag_437\n        /* \"#utility.yul\":2728:2733   */\n      dup2\n        /* \"#utility.yul\":2701:2734   */\n      tag_438\n      jump\t// in\n    tag_437:\n        /* \"#utility.yul\":2653:2740   */\n      swap3\n      swap2\n      pop\n      pop\n      jump\t// out\n        /* \"#utility.yul\":2746:2883   */\n    tag_439:\n      0x00\n        /* \"#utility.yul\":2829:2835   */\n      dup2\n        /* \"#utility.yul\":2816:2836   */\n      calldataload\n        /* \"#utility.yul\":2807:2836   */\n      swap1\n      pop\n        /* \"#utility.yul\":2845:2877   */\n      tag_441\n        /* \"#utility.yul\":2871:2876   */\n      dup2\n        /* \"#utility.yul\":2845:2877   */\n      tag_442\n      jump\t// in\n    tag_441:\n        /* \"#utility.yul\":2797:2883   */\n      swap3\n      swap2\n      pop\n      pop\n      jump\t// out\n        /* \"#utility.yul\":2903:3176   */\n    tag_399:\n      0x00\n        /* \"#utility.yul\":3008:3011   */\n      dup3\n        /* \"#utility.yul\":3001:3005   */\n      0x1f\n        /* \"#utility.yul\":2993:2999   */\n      dup4\n        /* \"#utility.yul\":2989:3006   */\n      add\n        /* \"#utility.yul\":2985:3012   */\n      slt\n        /* \"#utility.yul\":2975:2977   */\n      tag_444\n      jumpi\n        /* \"#utility.yul\":3026:3027   */\n      0x00\n        /* \"#utility.yul\":3023:3024   */\n      dup1\n        /* \"#utility.yul\":3016:3028   */\n      revert\n        /* \"#utility.yul\":2975:2977   */\n    tag_444:\n        /* \"#utility.yul\":3066:3072   */\n      dup2\n        /* \"#utility.yul\":3053:3073   */\n      calldataload\n        /* \"#utility.yul\":3091:3170   */\n      tag_445\n        /* \"#utility.yul\":3166:3169   */\n      dup5\n        /* \"#utility.yul\":3158:3164   */\n      dup3\n        /* \"#utility.yul\":3151:3155   */\n      0x20\n        /* \"#utility.yul\":3143:3149   */\n      dup7\n        /* \"#utility.yul\":3139:3156   */\n      add\n        /* \"#utility.yul\":3091:3170   */\n      tag_411\n      jump\t// in\n    tag_445:\n        /* \"#utility.yul\":3082:3170   */\n      swap2\n      pop\n        /* \"#utility.yul\":2965:3176   */\n      pop\n      swap3\n      swap2\n      pop\n      pop\n      jump\t// out\n        /* \"#utility.yul\":3182:3321   */\n    tag_410:\n      0x00\n        /* \"#utility.yul\":3266:3272   */\n      dup2\n        /* \"#utility.yul\":3253:3273   */\n      calldataload\n        /* \"#utility.yul\":3244:3273   */\n      swap1\n      pop\n        /* \"#utility.yul\":3282:3315   */\n      tag_447\n        /* \"#utility.yul\":3309:3314   */\n      dup2\n        /* \"#utility.yul\":3282:3315   */\n      tag_448\n      jump\t// in\n    tag_447:\n        /* \"#utility.yul\":3234:3321   */\n      swap3\n      swap2\n      pop\n      pop\n      jump\t// out\n        /* \"#utility.yul\":3327:3470   */\n    tag_449:\n      0x00\n        /* \"#utility.yul\":3415:3421   */\n      dup2\n        /* \"#utility.yul\":3409:3422   */\n      mload\n        /* \"#utility.yul\":3400:3422   */\n      swap1\n      pop\n        /* \"#utility.yul\":3431:3464   */\n      tag_451\n        /* \"#utility.yul\":3458:3463   */\n      dup2\n        /* \"#utility.yul\":3431:3464   */\n      tag_448\n      jump\t// in\n    tag_451:\n        /* \"#utility.yul\":3390:3470   */\n      swap3\n      swap2\n      pop\n      pop\n      jump\t// out\n        /* \"#utility.yul\":3476:3738   */\n    tag_77:\n      0x00\n        /* \"#utility.yul\":3584:3586   */\n      0x20\n        /* \"#utility.yul\":3572:3581   */\n      dup3\n        /* \"#utility.yul\":3563:3570   */\n      dup5\n        /* \"#utility.yul\":3559:3582   */\n      sub\n        /* \"#utility.yul\":3555:3587   */\n      slt\n        /* \"#utility.yul\":3552:3554   */\n      iszero\n      tag_453\n      jumpi\n        /* \"#utility.yul\":3600:3601   */\n      0x00\n        /* \"#utility.yul\":3597:3598   */\n      dup1\n        /* \"#utility.yul\":3590:3602   */\n      revert\n        /* \"#utility.yul\":3552:3554   */\n    tag_453:\n        /* \"#utility.yul\":3643:3644   */\n      0x00\n        /* \"#utility.yul\":3668:3721   */\n      tag_454\n        /* \"#utility.yul\":3713:3720   */\n      dup5\n        /* \"#utility.yul\":3704:3710   */\n      dup3\n        /* \"#utility.yul\":3693:3702   */\n      dup6\n        /* \"#utility.yul\":3689:3711   */\n      add\n        /* \"#utility.yul\":3668:3721   */\n      tag_419\n      jump\t// in\n    tag_454:\n        /* \"#utility.yul\":3658:3721   */\n      swap2\n      pop\n        /* \"#utility.yul\":3614:3731   */\n      pop\n        /* \"#utility.yul\":3542:3738   */\n      swap3\n      swap2\n      pop\n      pop\n      jump\t// out\n        /* \"#utility.yul\":3744:4151   */\n    tag_61:\n      0x00\n      dup1\n        /* \"#utility.yul\":3869:3871   */\n      0x40\n        /* \"#utility.yul\":3857:3866   */\n      dup4\n        /* \"#utility.yul\":3848:3855   */\n      dup6\n        /* \"#utility.yul\":3844:3867   */\n      sub\n        /* \"#utility.yul\":3840:3872   */\n      slt\n        /* \"#utility.yul\":3837:3839   */\n      iszero\n      tag_456\n      jumpi\n        /* \"#utility.yul\":3885:3886   */\n      0x00\n        /* \"#utility.yul\":3882:3883   */\n      dup1\n        /* \"#utility.yul\":3875:3887   */\n      revert\n        /* \"#utility.yul\":3837:3839   */\n    tag_456:\n        /* \"#utility.yul\":3928:3929   */\n      0x00\n        /* \"#utility.yul\":3953:4006   */\n      tag_457\n        /* \"#utility.yul\":3998:4005   */\n      dup6\n        /* \"#utility.yul\":3989:3995   */\n      dup3\n        /* \"#utility.yul\":3978:3987   */\n      dup7\n        /* \"#utility.yul\":3974:3996   */\n      add\n        /* \"#utility.yul\":3953:4006   */\n      tag_419\n      jump\t// in\n    tag_457:\n        /* \"#utility.yul\":3943:4006   */\n      swap3\n      pop\n        /* \"#utility.yul\":3899:4016   */\n      pop\n        /* \"#utility.yul\":4055:4057   */\n      0x20\n        /* \"#utility.yul\":4081:4134   */\n      tag_458\n        /* \"#utility.yul\":4126:4133   */\n      dup6\n        /* \"#utility.yul\":4117:4123   */\n      dup3\n        /* \"#utility.yul\":4106:4115   */\n      dup7\n        /* \"#utility.yul\":4102:4124   */\n      add\n        /* \"#utility.yul\":4081:4134   */\n      tag_410\n      jump\t// in\n    tag_458:\n        /* \"#utility.yul\":4071:4134   */\n      swap2\n      pop\n        /* \"#utility.yul\":4026:4144   */\n      pop\n        /* \"#utility.yul\":3827:4151   */\n      swap3\n      pop\n      swap3\n      swap1\n      pop\n      jump\t// out\n        /* \"#utility.yul\":4157:4870   */\n    tag_135:\n      0x00\n      dup1\n        /* \"#utility.yul\":4342:4344   */\n      0x40\n        /* \"#utility.yul\":4330:4339   */\n      dup4\n        /* \"#utility.yul\":4321:4328   */\n      dup6\n        /* \"#utility.yul\":4317:4340   */\n      sub\n        /* \"#utility.yul\":4313:4345   */\n      slt\n        /* \"#utility.yul\":4310:4312   */\n      iszero\n      tag_460\n      jumpi\n        /* \"#utility.yul\":4358:4359   */\n      0x00\n        /* \"#utility.yul\":4355:4356   */\n      dup1\n        /* \"#utility.yul\":4348:4360   */\n      revert\n        /* \"#utility.yul\":4310:4312   */\n    tag_460:\n        /* \"#utility.yul\":4429:4430   */\n      0x00\n        /* \"#utility.yul\":4418:4427   */\n      dup4\n        /* \"#utility.yul\":4414:4431   */\n      add\n        /* \"#utility.yul\":4401:4432   */\n      calldataload\n        /* \"#utility.yul\":4459:4477   */\n      0xffffffffffffffff\n        /* \"#utility.yul\":4451:4457   */\n      dup2\n        /* \"#utility.yul\":4448:4478   */\n      gt\n        /* \"#utility.yul\":4445:4447   */\n      iszero\n      tag_461\n      jumpi\n        /* \"#utility.yul\":4491:4492   */\n      0x00\n        /* \"#utility.yul\":4488:4489   */\n      dup1\n        /* \"#utility.yul\":4481:4493   */\n      revert\n        /* \"#utility.yul\":4445:4447   */\n    tag_461:\n        /* \"#utility.yul\":4519:4597   */\n      tag_462\n        /* \"#utility.yul\":4589:4596   */\n      dup6\n        /* \"#utility.yul\":4580:4586   */\n      dup3\n        /* \"#utility.yul\":4569:4578   */\n      dup7\n        /* \"#utility.yul\":4565:4587   */\n      add\n        /* \"#utility.yul\":4519:4597   */\n      tag_427\n      jump\t// in\n    tag_462:\n        /* \"#utility.yul\":4509:4597   */\n      swap3\n      pop\n        /* \"#utility.yul\":4372:4607   */\n      pop\n        /* \"#utility.yul\":4674:4676   */\n      0x20\n        /* \"#utility.yul\":4663:4672   */\n      dup4\n        /* \"#utility.yul\":4659:4677   */\n      add\n        /* \"#utility.yul\":4646:4678   */\n      calldataload\n        /* \"#utility.yul\":4705:4723   */\n      0xffffffffffffffff\n        /* \"#utility.yul\":4697:4703   */\n      dup2\n        /* \"#utility.yul\":4694:4724   */\n      gt\n        /* \"#utility.yul\":4691:4693   */\n      iszero\n      tag_463\n      jumpi\n        /* \"#utility.yul\":4737:4738   */\n      0x00\n        /* \"#utility.yul\":4734:4735   */\n      dup1\n        /* \"#utility.yul\":4727:4739   */\n      revert\n        /* \"#utility.yul\":4691:4693   */\n    tag_463:\n        /* \"#utility.yul\":4765:4853   */\n      tag_464\n        /* \"#utility.yul\":4845:4852   */\n      dup6\n        /* \"#utility.yul\":4836:4842   */\n      dup3\n        /* \"#utility.yul\":4825:4834   */\n      dup7\n        /* \"#utility.yul\":4821:4843   */\n      add\n        /* \"#utility.yul\":4765:4853   */\n      tag_423\n      jump\t// in\n    tag_464:\n        /* \"#utility.yul\":4755:4853   */\n      swap2\n      pop\n        /* \"#utility.yul\":4617:4863   */\n      pop\n        /* \"#utility.yul\":4300:4870   */\n      swap3\n      pop\n      swap3\n      swap1\n      pop\n      jump\t// out\n        /* \"#utility.yul\":4876:5154   */\n    tag_258:\n      0x00\n        /* \"#utility.yul\":4992:4994   */\n      0x20\n        /* \"#utility.yul\":4980:4989   */\n      dup3\n        /* \"#utility.yul\":4971:4978   */\n      dup5\n        /* \"#utility.yul\":4967:4990   */\n      sub\n        /* \"#utility.yul\":4963:4995   */\n      slt\n        /* \"#utility.yul\":4960:4962   */\n      iszero\n      tag_466\n      jumpi\n        /* \"#utility.yul\":5008:5009   */\n      0x00\n        /* \"#utility.yul\":5005:5006   */\n      dup1\n        /* \"#utility.yul\":4998:5010   */\n      revert\n        /* \"#utility.yul\":4960:4962   */\n    tag_466:\n        /* \"#utility.yul\":5051:5052   */\n      0x00\n        /* \"#utility.yul\":5076:5137   */\n      tag_467\n        /* \"#utility.yul\":5129:5136   */\n      dup5\n        /* \"#utility.yul\":5120:5126   */\n      dup3\n        /* \"#utility.yul\":5109:5118   */\n      dup6\n        /* \"#utility.yul\":5105:5127   */\n      add\n        /* \"#utility.yul\":5076:5137   */\n      tag_431\n      jump\t// in\n    tag_467:\n        /* \"#utility.yul\":5066:5137   */\n      swap2\n      pop\n        /* \"#utility.yul\":5022:5147   */\n      pop\n        /* \"#utility.yul\":4950:5154   */\n      swap3\n      swap2\n      pop\n      pop\n      jump\t// out\n        /* \"#utility.yul\":5160:5422   */\n    tag_46:\n      0x00\n        /* \"#utility.yul\":5268:5270   */\n      0x20\n        /* \"#utility.yul\":5256:5265   */\n      dup3\n        /* \"#utility.yul\":5247:5254   */\n      dup5\n        /* \"#utility.yul\":5243:5266   */\n      sub\n        /* \"#utility.yul\":5239:5271   */\n      slt\n        /* \"#utility.yul\":5236:5238   */\n      iszero\n      tag_469\n      jumpi\n        /* \"#utility.yul\":5284:5285   */\n      0x00\n        /* \"#utility.yul\":5281:5282   */\n      dup1\n        /* \"#utility.yul\":5274:5286   */\n      revert\n        /* \"#utility.yul\":5236:5238   */\n    tag_469:\n        /* \"#utility.yul\":5327:5328   */\n      0x00\n        /* \"#utility.yul\":5352:5405   */\n      tag_470\n        /* \"#utility.yul\":5397:5404   */\n      dup5\n        /* \"#utility.yul\":5388:5394   */\n      dup3\n        /* \"#utility.yul\":5377:5386   */\n      dup6\n        /* \"#utility.yul\":5373:5395   */\n      add\n        /* \"#utility.yul\":5352:5405   */\n      tag_435\n      jump\t// in\n    tag_470:\n        /* \"#utility.yul\":5342:5405   */\n      swap2\n      pop\n        /* \"#utility.yul\":5298:5415   */\n      pop\n        /* \"#utility.yul\":5226:5422   */\n      swap3\n      swap2\n      pop\n      pop\n      jump\t// out\n        /* \"#utility.yul\":5428:5835   */\n    tag_54:\n      0x00\n      dup1\n        /* \"#utility.yul\":5553:5555   */\n      0x40\n        /* \"#utility.yul\":5541:5550   */\n      dup4\n        /* \"#utility.yul\":5532:5539   */\n      dup6\n        /* \"#utility.yul\":5528:5551   */\n      sub\n        /* \"#utility.yul\":5524:5556   */\n      slt\n        /* \"#utility.yul\":5521:5523   */\n      iszero\n      tag_472\n      jumpi\n        /* \"#utility.yul\":5569:5570   */\n      0x00\n        /* \"#utility.yul\":5566:5567   */\n      dup1\n        /* \"#utility.yul\":5559:5571   */\n      revert\n        /* \"#utility.yul\":5521:5523   */\n    tag_472:\n        /* \"#utility.yul\":5612:5613   */\n      0x00\n        /* \"#utility.yul\":5637:5690   */\n      tag_473\n        /* \"#utility.yul\":5682:5689   */\n      dup6\n        /* \"#utility.yul\":5673:5679   */\n      dup3\n        /* \"#utility.yul\":5662:5671   */\n      dup7\n        /* \"#utility.yul\":5658:5680   */\n      add\n        /* \"#utility.yul\":5637:5690   */\n      tag_435\n      jump\t// in\n    tag_473:\n        /* \"#utility.yul\":5627:5690   */\n      swap3\n      pop\n        /* \"#utility.yul\":5583:5700   */\n      pop\n        /* \"#utility.yul\":5739:5741   */\n      0x20\n        /* \"#utility.yul\":5765:5818   */\n      tag_474\n        /* \"#utility.yul\":5810:5817   */\n      dup6\n        /* \"#utility.yul\":5801:5807   */\n      dup3\n        /* \"#utility.yul\":5790:5799   */\n      dup7\n        /* \"#utility.yul\":5786:5808   */\n      add\n        /* \"#utility.yul\":5765:5818   */\n      tag_419\n      jump\t// in\n    tag_474:\n        /* \"#utility.yul\":5755:5818   */\n      swap2\n      pop\n        /* \"#utility.yul\":5710:5828   */\n      pop\n        /* \"#utility.yul\":5511:5835   */\n      swap3\n      pop\n      swap3\n      swap1\n      pop\n      jump\t// out\n        /* \"#utility.yul\":5841:6101   */\n    tag_40:\n      0x00\n        /* \"#utility.yul\":5948:5950   */\n      0x20\n        /* \"#utility.yul\":5936:5945   */\n      dup3\n        /* \"#utility.yul\":5927:5934   */\n      dup5\n        /* \"#utility.yul\":5923:5946   */\n      sub\n        /* \"#utility.yul\":5919:5951   */\n      slt\n        /* \"#utility.yul\":5916:5918   */\n      iszero\n      tag_476\n      jumpi\n        /* \"#utility.yul\":5964:5965   */\n      0x00\n        /* \"#utility.yul\":5961:5962   */\n      dup1\n        /* \"#utility.yul\":5954:5966   */\n      revert\n        /* \"#utility.yul\":5916:5918   */\n    tag_476:\n        /* \"#utility.yul\":6007:6008   */\n      0x00\n        /* \"#utility.yul\":6032:6084   */\n      tag_477\n        /* \"#utility.yul\":6076:6083   */\n      dup5\n        /* \"#utility.yul\":6067:6073   */\n      dup3\n        /* \"#utility.yul\":6056:6065   */\n      dup6\n        /* \"#utility.yul\":6052:6074   */\n      add\n        /* \"#utility.yul\":6032:6084   */\n      tag_439\n      jump\t// in\n    tag_477:\n        /* \"#utility.yul\":6022:6084   */\n      swap2\n      pop\n        /* \"#utility.yul\":5978:6094   */\n      pop\n        /* \"#utility.yul\":5906:6101   */\n      swap3\n      swap2\n      pop\n      pop\n      jump\t// out\n        /* \"#utility.yul\":6107:6369   */\n    tag_70:\n      0x00\n        /* \"#utility.yul\":6215:6217   */\n      0x20\n        /* \"#utility.yul\":6203:6212   */\n      dup3\n        /* \"#utility.yul\":6194:6201   */\n      dup5\n        /* \"#utility.yul\":6190:6213   */\n      sub\n        /* \"#utility.yul\":6186:6218   */\n      slt\n        /* \"#utility.yul\":6183:6185   */\n      iszero\n      tag_479\n      jumpi\n        /* \"#utility.yul\":6231:6232   */\n      0x00\n        /* \"#utility.yul\":6228:6229   */\n      dup1\n        /* \"#utility.yul\":6221:6233   */\n      revert\n        /* \"#utility.yul\":6183:6185   */\n    tag_479:\n        /* \"#utility.yul\":6274:6275   */\n      0x00\n        /* \"#utility.yul\":6299:6352   */\n      tag_480\n        /* \"#utility.yul\":6344:6351   */\n      dup5\n        /* \"#utility.yul\":6335:6341   */\n      dup3\n        /* \"#utility.yul\":6324:6333   */\n      dup6\n        /* \"#utility.yul\":6320:6342   */\n      add\n        /* \"#utility.yul\":6299:6352   */\n      tag_410\n      jump\t// in\n    tag_480:\n        /* \"#utility.yul\":6289:6352   */\n      swap2\n      pop\n        /* \"#utility.yul\":6245:6362   */\n      pop\n        /* \"#utility.yul\":6173:6369   */\n      swap3\n      swap2\n      pop\n      pop\n      jump\t// out\n        /* \"#utility.yul\":6375:6659   */\n    tag_195:\n      0x00\n        /* \"#utility.yul\":6494:6496   */\n      0x20\n        /* \"#utility.yul\":6482:6491   */\n      dup3\n        /* \"#utility.yul\":6473:6480   */\n      dup5\n        /* \"#utility.yul\":6469:6492   */\n      sub\n        /* \"#utility.yul\":6465:6497   */\n      slt\n        /* \"#utility.yul\":6462:6464   */\n      iszero\n      tag_482\n      jumpi\n        /* \"#utility.yul\":6510:6511   */\n      0x00\n        /* \"#utility.yul\":6507:6508   */\n      dup1\n        /* \"#utility.yul\":6500:6512   */\n      revert\n        /* \"#utility.yul\":6462:6464   */\n    tag_482:\n        /* \"#utility.yul\":6553:6554   */\n      0x00\n        /* \"#utility.yul\":6578:6642   */\n      tag_483\n        /* \"#utility.yul\":6634:6641   */\n      dup5\n        /* \"#utility.yul\":6625:6631   */\n      dup3\n        /* \"#utility.yul\":6614:6623   */\n      dup6\n        /* \"#utility.yul\":6610:6632   */\n      add\n        /* \"#utility.yul\":6578:6642   */\n      tag_449\n      jump\t// in\n    tag_483:\n        /* \"#utility.yul\":6568:6642   */\n      swap2\n      pop\n        /* \"#utility.yul\":6524:6652   */\n      pop\n        /* \"#utility.yul\":6452:6659   */\n      swap3\n      swap2\n      pop\n      pop\n      jump\t// out\n        /* \"#utility.yul\":6665:6861   */\n    tag_484:\n      0x00\n        /* \"#utility.yul\":6789:6855   */\n      tag_486\n        /* \"#utility.yul\":6851:6854   */\n      dup4\n        /* \"#utility.yul\":6843:6849   */\n      dup4\n        /* \"#utility.yul\":6789:6855   */\n      tag_487\n      jump\t// in\n    tag_486:\n        /* \"#utility.yul\":6775:6855   */\n      swap1\n      pop\n        /* \"#utility.yul\":6765:6861   */\n      swap3\n      swap2\n      pop\n      pop\n      jump\t// out\n        /* \"#utility.yul\":6867:7046   */\n    tag_488:\n      0x00\n        /* \"#utility.yul\":6957:7003   */\n      tag_490\n        /* \"#utility.yul\":6999:7002   */\n      dup4\n        /* \"#utility.yul\":6991:6997   */\n      dup4\n        /* \"#utility.yul\":6957:7003   */\n      tag_491\n      jump\t// in\n    tag_490:\n        /* \"#utility.yul\":7035:7039   */\n      0x20\n        /* \"#utility.yul\":7030:7033   */\n      dup4\n        /* \"#utility.yul\":7026:7040   */\n      add\n        /* \"#utility.yul\":7012:7040   */\n      swap1\n      pop\n        /* \"#utility.yul\":6947:7046   */\n      swap3\n      swap2\n      pop\n      pop\n      jump\t// out\n        /* \"#utility.yul\":7052:7170   */\n    tag_492:\n        /* \"#utility.yul\":7139:7163   */\n      tag_494\n        /* \"#utility.yul\":7157:7162   */\n      dup2\n        /* \"#utility.yul\":7139:7163   */\n      tag_495\n      jump\t// in\n    tag_494:\n        /* \"#utility.yul\":7134:7137   */\n      dup3\n        /* \"#utility.yul\":7127:7164   */\n      mstore\n        /* \"#utility.yul\":7117:7170   */\n      pop\n      pop\n      jump\t// out\n        /* \"#utility.yul\":7176:7333   */\n    tag_496:\n        /* \"#utility.yul\":7281:7326   */\n      tag_498\n        /* \"#utility.yul\":7301:7325   */\n      tag_499\n        /* \"#utility.yul\":7319:7324   */\n      dup3\n        /* \"#utility.yul\":7301:7325   */\n      tag_495\n      jump\t// in\n    tag_499:\n        /* \"#utility.yul\":7281:7326   */\n      tag_500\n      jump\t// in\n    tag_498:\n        /* \"#utility.yul\":7276:7279   */\n      dup3\n        /* \"#utility.yul\":7269:7327   */\n      mstore\n        /* \"#utility.yul\":7259:7333   */\n      pop\n      pop\n      jump\t// out\n        /* \"#utility.yul\":7367:8358   */\n    tag_501:\n      0x00\n        /* \"#utility.yul\":7535:7599   */\n      tag_503\n        /* \"#utility.yul\":7593:7598   */\n      dup3\n        /* \"#utility.yul\":7535:7599   */\n      tag_504\n      jump\t// in\n    tag_503:\n        /* \"#utility.yul\":7615:7711   */\n      tag_505\n        /* \"#utility.yul\":7704:7710   */\n      dup2\n        /* \"#utility.yul\":7699:7702   */\n      dup6\n        /* \"#utility.yul\":7615:7711   */\n      tag_506\n      jump\t// in\n    tag_505:\n        /* \"#utility.yul\":7608:7711   */\n      swap4\n      pop\n        /* \"#utility.yul\":7737:7740   */\n      dup4\n        /* \"#utility.yul\":7782:7786   */\n      0x20\n        /* \"#utility.yul\":7774:7780   */\n      dup3\n        /* \"#utility.yul\":7770:7787   */\n      mul\n        /* \"#utility.yul\":7765:7768   */\n      dup6\n        /* \"#utility.yul\":7761:7788   */\n      add\n        /* \"#utility.yul\":7812:7878   */\n      tag_507\n        /* \"#utility.yul\":7872:7877   */\n      dup6\n        /* \"#utility.yul\":7812:7878   */\n      tag_508\n      jump\t// in\n    tag_507:\n        /* \"#utility.yul\":7901:7908   */\n      dup1\n        /* \"#utility.yul\":7932:7933   */\n      0x00\n        /* \"#utility.yul\":7917:8313   */\n    tag_509:\n        /* \"#utility.yul\":7942:7948   */\n      dup6\n        /* \"#utility.yul\":7939:7940   */\n      dup2\n        /* \"#utility.yul\":7936:7949   */\n      lt\n        /* \"#utility.yul\":7917:8313   */\n      iszero\n      tag_511\n      jumpi\n        /* \"#utility.yul\":8013:8022   */\n      dup5\n        /* \"#utility.yul\":8007:8011   */\n      dup5\n        /* \"#utility.yul\":8003:8023   */\n      sub\n        /* \"#utility.yul\":7998:8001   */\n      dup10\n        /* \"#utility.yul\":7991:8024   */\n      mstore\n        /* \"#utility.yul\":8064:8070   */\n      dup2\n        /* \"#utility.yul\":8058:8071   */\n      mload\n        /* \"#utility.yul\":8092:8176   */\n      tag_512\n        /* \"#utility.yul\":8171:8175   */\n      dup6\n        /* \"#utility.yul\":8156:8169   */\n      dup3\n        /* \"#utility.yul\":8092:8176   */\n      tag_484\n      jump\t// in\n    tag_512:\n        /* \"#utility.yul\":8084:8176   */\n      swap5\n      pop\n        /* \"#utility.yul\":8199:8269   */\n      tag_513\n        /* \"#utility.yul\":8262:8268   */\n      dup4\n        /* \"#utility.yul\":8199:8269   */\n      tag_514\n      jump\t// in\n    tag_513:\n        /* \"#utility.yul\":8189:8269   */\n      swap3\n      pop\n        /* \"#utility.yul\":8298:8302   */\n      0x20\n        /* \"#utility.yul\":8293:8296   */\n      dup11\n        /* \"#utility.yul\":8289:8303   */\n      add\n        /* \"#utility.yul\":8282:8303   */\n      swap10\n      pop\n        /* \"#utility.yul\":7977:8313   */\n      pop\n        /* \"#utility.yul\":7964:7965   */\n      0x01\n        /* \"#utility.yul\":7961:7962   */\n      dup2\n        /* \"#utility.yul\":7957:7966   */\n      add\n        /* \"#utility.yul\":7952:7966   */\n      swap1\n      pop\n        /* \"#utility.yul\":7917:8313   */\n      jump(tag_509)\n    tag_511:\n        /* \"#utility.yul\":7921:7935   */\n      pop\n        /* \"#utility.yul\":8329:8333   */\n      dup3\n        /* \"#utility.yul\":8322:8333   */\n      swap8\n      pop\n        /* \"#utility.yul\":8349:8352   */\n      dup8\n        /* \"#utility.yul\":8342:8352   */\n      swap6\n      pop\n        /* \"#utility.yul\":7511:8358   */\n      pop\n      pop\n      pop\n      pop\n      pop\n      swap3\n      swap2\n      pop\n      pop\n      jump\t// out\n        /* \"#utility.yul\":8394:9126   */\n    tag_515:\n      0x00\n        /* \"#utility.yul\":8542:8596   */\n      tag_517\n        /* \"#utility.yul\":8590:8595   */\n      dup3\n        /* \"#utility.yul\":8542:8596   */\n      tag_518\n      jump\t// in\n    tag_517:\n        /* \"#utility.yul\":8612:8698   */\n      tag_519\n        /* \"#utility.yul\":8691:8697   */\n      dup2\n        /* \"#utility.yul\":8686:8689   */\n      dup6\n        /* \"#utility.yul\":8612:8698   */\n      tag_520\n      jump\t// in\n    tag_519:\n        /* \"#utility.yul\":8605:8698   */\n      swap4\n      pop\n        /* \"#utility.yul\":8722:8778   */\n      tag_521\n        /* \"#utility.yul\":8772:8777   */\n      dup4\n        /* \"#utility.yul\":8722:8778   */\n      tag_522\n      jump\t// in\n    tag_521:\n        /* \"#utility.yul\":8801:8808   */\n      dup1\n        /* \"#utility.yul\":8832:8833   */\n      0x00\n        /* \"#utility.yul\":8817:9101   */\n    tag_523:\n        /* \"#utility.yul\":8842:8848   */\n      dup4\n        /* \"#utility.yul\":8839:8840   */\n      dup2\n        /* \"#utility.yul\":8836:8849   */\n      lt\n        /* \"#utility.yul\":8817:9101   */\n      iszero\n      tag_525\n      jumpi\n        /* \"#utility.yul\":8918:8924   */\n      dup2\n        /* \"#utility.yul\":8912:8925   */\n      mload\n        /* \"#utility.yul\":8945:9008   */\n      tag_526\n        /* \"#utility.yul\":9004:9007   */\n      dup9\n        /* \"#utility.yul\":8989:9002   */\n      dup3\n        /* \"#utility.yul\":8945:9008   */\n      tag_488\n      jump\t// in\n    tag_526:\n        /* \"#utility.yul\":8938:9008   */\n      swap8\n      pop\n        /* \"#utility.yul\":9031:9091   */\n      tag_527\n        /* \"#utility.yul\":9084:9090   */\n      dup4\n        /* \"#utility.yul\":9031:9091   */\n      tag_528\n      jump\t// in\n    tag_527:\n        /* \"#utility.yul\":9021:9091   */\n      swap3\n      pop\n        /* \"#utility.yul\":8877:9101   */\n      pop\n        /* \"#utility.yul\":8864:8865   */\n      0x01\n        /* \"#utility.yul\":8861:8862   */\n      dup2\n        /* \"#utility.yul\":8857:8866   */\n      add\n        /* \"#utility.yul\":8852:8866   */\n      swap1\n      pop\n        /* \"#utility.yul\":8817:9101   */\n      jump(tag_523)\n    tag_525:\n        /* \"#utility.yul\":8821:8835   */\n      pop\n        /* \"#utility.yul\":9117:9120   */\n      dup6\n        /* \"#utility.yul\":9110:9120   */\n      swap4\n      pop\n        /* \"#utility.yul\":8518:9126   */\n      pop\n      pop\n      pop\n      swap3\n      swap2\n      pop\n      pop\n      jump\t// out\n        /* \"#utility.yul\":9132:9241   */\n    tag_529:\n        /* \"#utility.yul\":9213:9234   */\n      tag_531\n        /* \"#utility.yul\":9228:9233   */\n      dup2\n        /* \"#utility.yul\":9213:9234   */\n      tag_532\n      jump\t// in\n    tag_531:\n        /* \"#utility.yul\":9208:9211   */\n      dup3\n        /* \"#utility.yul\":9201:9235   */\n      mstore\n        /* \"#utility.yul\":9191:9241   */\n      pop\n      pop\n      jump\t// out\n        /* \"#utility.yul\":9247:9365   */\n    tag_533:\n        /* \"#utility.yul\":9334:9358   */\n      tag_535\n        /* \"#utility.yul\":9352:9357   */\n      dup2\n        /* \"#utility.yul\":9334:9358   */\n      tag_536\n      jump\t// in\n    tag_535:\n        /* \"#utility.yul\":9329:9332   */\n      dup3\n        /* \"#utility.yul\":9322:9359   */\n      mstore\n        /* \"#utility.yul\":9312:9365   */\n      pop\n      pop\n      jump\t// out\n        /* \"#utility.yul\":9371:9542   */\n    tag_537:\n        /* \"#utility.yul\":9478:9535   */\n      tag_539\n        /* \"#utility.yul\":9529:9534   */\n      dup2\n        /* \"#utility.yul\":9478:9535   */\n      tag_540\n      jump\t// in\n    tag_539:\n        /* \"#utility.yul\":9473:9476   */\n      dup3\n        /* \"#utility.yul\":9466:9536   */\n      mstore\n        /* \"#utility.yul\":9456:9542   */\n      pop\n      pop\n      jump\t// out\n        /* \"#utility.yul\":9548:9739   */\n    tag_541:\n        /* \"#utility.yul\":9665:9732   */\n      tag_543\n        /* \"#utility.yul\":9726:9731   */\n      dup2\n        /* \"#utility.yul\":9665:9732   */\n      tag_544\n      jump\t// in\n    tag_543:\n        /* \"#utility.yul\":9660:9663   */\n      dup3\n        /* \"#utility.yul\":9653:9733   */\n      mstore\n        /* \"#utility.yul\":9643:9739   */\n      pop\n      pop\n      jump\t// out\n        /* \"#utility.yul\":9745:9916   */\n    tag_545:\n        /* \"#utility.yul\":9852:9909   */\n      tag_547\n        /* \"#utility.yul\":9903:9908   */\n      dup2\n        /* \"#utility.yul\":9852:9909   */\n      tag_548\n      jump\t// in\n    tag_547:\n        /* \"#utility.yul\":9847:9850   */\n      dup3\n        /* \"#utility.yul\":9840:9910   */\n      mstore\n        /* \"#utility.yul\":9830:9916   */\n      pop\n      pop\n      jump\t// out\n        /* \"#utility.yul\":9922:10266   */\n    tag_487:\n      0x00\n        /* \"#utility.yul\":10028:10067   */\n      tag_550\n        /* \"#utility.yul\":10061:10066   */\n      dup3\n        /* \"#utility.yul\":10028:10067   */\n      tag_551\n      jump\t// in\n    tag_550:\n        /* \"#utility.yul\":10083:10144   */\n      tag_552\n        /* \"#utility.yul\":10137:10143   */\n      dup2\n        /* \"#utility.yul\":10132:10135   */\n      dup6\n        /* \"#utility.yul\":10083:10144   */\n      tag_553\n      jump\t// in\n    tag_552:\n        /* \"#utility.yul\":10076:10144   */\n      swap4\n      pop\n        /* \"#utility.yul\":10153:10205   */\n      tag_554\n        /* \"#utility.yul\":10198:10204   */\n      dup2\n        /* \"#utility.yul\":10193:10196   */\n      dup6\n        /* \"#utility.yul\":10186:10190   */\n      0x20\n        /* \"#utility.yul\":10179:10184   */\n      dup7\n        /* \"#utility.yul\":10175:10191   */\n      add\n        /* \"#utility.yul\":10153:10205   */\n      tag_555\n      jump\t// in\n    tag_554:\n        /* \"#utility.yul\":10230:10259   */\n      tag_556\n        /* \"#utility.yul\":10252:10258   */\n      dup2\n        /* \"#utility.yul\":10230:10259   */\n      tag_557\n      jump\t// in\n    tag_556:\n        /* \"#utility.yul\":10225:10228   */\n      dup5\n        /* \"#utility.yul\":10221:10260   */\n      add\n        /* \"#utility.yul\":10214:10260   */\n      swap2\n      pop\n        /* \"#utility.yul\":10004:10266   */\n      pop\n      swap3\n      swap2\n      pop\n      pop\n      jump\t// out\n        /* \"#utility.yul\":10272:10636   */\n    tag_558:\n      0x00\n        /* \"#utility.yul\":10388:10427   */\n      tag_560\n        /* \"#utility.yul\":10421:10426   */\n      dup3\n        /* \"#utility.yul\":10388:10427   */\n      tag_551\n      jump\t// in\n    tag_560:\n        /* \"#utility.yul\":10443:10514   */\n      tag_561\n        /* \"#utility.yul\":10507:10513   */\n      dup2\n        /* \"#utility.yul\":10502:10505   */\n      dup6\n        /* \"#utility.yul\":10443:10514   */\n      tag_562\n      jump\t// in\n    tag_561:\n        /* \"#utility.yul\":10436:10514   */\n      swap4\n      pop\n        /* \"#utility.yul\":10523:10575   */\n      tag_563\n        /* \"#utility.yul\":10568:10574   */\n      dup2\n        /* \"#utility.yul\":10563:10566   */\n      dup6\n        /* \"#utility.yul\":10556:10560   */\n      0x20\n        /* \"#utility.yul\":10549:10554   */\n      dup7\n        /* \"#utility.yul\":10545:10561   */\n      add\n        /* \"#utility.yul\":10523:10575   */\n      tag_555\n      jump\t// in\n    tag_563:\n        /* \"#utility.yul\":10600:10629   */\n      tag_564\n        /* \"#utility.yul\":10622:10628   */\n      dup2\n        /* \"#utility.yul\":10600:10629   */\n      tag_557\n      jump\t// in\n    tag_564:\n        /* \"#utility.yul\":10595:10598   */\n      dup5\n        /* \"#utility.yul\":10591:10630   */\n      add\n        /* \"#utility.yul\":10584:10630   */\n      swap2\n      pop\n        /* \"#utility.yul\":10364:10636   */\n      pop\n      swap3\n      swap2\n      pop\n      pop\n      jump\t// out\n        /* \"#utility.yul\":10642:11019   */\n    tag_565:\n      0x00\n        /* \"#utility.yul\":10776:10815   */\n      tag_567\n        /* \"#utility.yul\":10809:10814   */\n      dup3\n        /* \"#utility.yul\":10776:10815   */\n      tag_551\n      jump\t// in\n    tag_567:\n        /* \"#utility.yul\":10831:10920   */\n      tag_568\n        /* \"#utility.yul\":10913:10919   */\n      dup2\n        /* \"#utility.yul\":10908:10911   */\n      dup6\n        /* \"#utility.yul\":10831:10920   */\n      tag_569\n      jump\t// in\n    tag_568:\n        /* \"#utility.yul\":10824:10920   */\n      swap4\n      pop\n        /* \"#utility.yul\":10929:10981   */\n      tag_570\n        /* \"#utility.yul\":10974:10980   */\n      dup2\n        /* \"#utility.yul\":10969:10972   */\n      dup6\n        /* \"#utility.yul\":10962:10966   */\n      0x20\n        /* \"#utility.yul\":10955:10960   */\n      dup7\n        /* \"#utility.yul\":10951:10967   */\n      add\n        /* \"#utility.yul\":10929:10981   */\n      tag_555\n      jump\t// in\n    tag_570:\n        /* \"#utility.yul\":11006:11012   */\n      dup1\n        /* \"#utility.yul\":11001:11004   */\n      dup5\n        /* \"#utility.yul\":10997:11013   */\n      add\n        /* \"#utility.yul\":10990:11013   */\n      swap2\n      pop\n        /* \"#utility.yul\":10752:11019   */\n      pop\n      swap3\n      swap2\n      pop\n      pop\n      jump\t// out\n        /* \"#utility.yul\":11025:11391   */\n    tag_571:\n      0x00\n        /* \"#utility.yul\":11188:11255   */\n      tag_573\n        /* \"#utility.yul\":11252:11254   */\n      0x20\n        /* \"#utility.yul\":11247:11250   */\n      dup4\n        /* \"#utility.yul\":11188:11255   */\n      tag_562\n      jump\t// in\n    tag_573:\n        /* \"#utility.yul\":11181:11255   */\n      swap2\n      pop\n        /* \"#utility.yul\":11264:11357   */\n      tag_574\n        /* \"#utility.yul\":11353:11356   */\n      dup3\n        /* \"#utility.yul\":11264:11357   */\n      tag_575\n      jump\t// in\n    tag_574:\n        /* \"#utility.yul\":11382:11384   */\n      0x20\n        /* \"#utility.yul\":11377:11380   */\n      dup3\n        /* \"#utility.yul\":11373:11385   */\n      add\n        /* \"#utility.yul\":11366:11385   */\n      swap1\n      pop\n        /* \"#utility.yul\":11171:11391   */\n      swap2\n      swap1\n      pop\n      jump\t// out\n        /* \"#utility.yul\":11397:11797   */\n    tag_576:\n      0x00\n        /* \"#utility.yul\":11578:11662   */\n      tag_578\n        /* \"#utility.yul\":11660:11661   */\n      0x08\n        /* \"#utility.yul\":11655:11658   */\n      dup4\n        /* \"#utility.yul\":11578:11662   */\n      tag_569\n      jump\t// in\n    tag_578:\n        /* \"#utility.yul\":11571:11662   */\n      swap2\n      pop\n        /* \"#utility.yul\":11671:11764   */\n      tag_579\n        /* \"#utility.yul\":11760:11763   */\n      dup3\n        /* \"#utility.yul\":11671:11764   */\n      tag_580\n      jump\t// in\n    tag_579:\n        /* \"#utility.yul\":11789:11790   */\n      0x08\n        /* \"#utility.yul\":11784:11787   */\n      dup3\n        /* \"#utility.yul\":11780:11791   */\n      add\n        /* \"#utility.yul\":11773:11791   */\n      swap1\n      pop\n        /* \"#utility.yul\":11561:11797   */\n      swap2\n      swap1\n      pop\n      jump\t// out\n        /* \"#utility.yul\":11803:12169   */\n    tag_581:\n      0x00\n        /* \"#utility.yul\":11966:12033   */\n      tag_583\n        /* \"#utility.yul\":12030:12032   */\n      0x36\n        /* \"#utility.yul\":12025:12028   */\n      dup4\n        /* \"#utility.yul\":11966:12033   */\n      tag_562\n      jump\t// in\n    tag_583:\n        /* \"#utility.yul\":11959:12033   */\n      swap2\n      pop\n        /* \"#utility.yul\":12042:12135   */\n      tag_584\n        /* \"#utility.yul\":12131:12134   */\n      dup3\n        /* \"#utility.yul\":12042:12135   */\n      tag_585\n      jump\t// in\n    tag_584:\n        /* \"#utility.yul\":12160:12162   */\n      0x40\n        /* \"#utility.yul\":12155:12158   */\n      dup3\n        /* \"#utility.yul\":12151:12163   */\n      add\n        /* \"#utility.yul\":12144:12163   */\n      swap1\n      pop\n        /* \"#utility.yul\":11949:12169   */\n      swap2\n      swap1\n      pop\n      jump\t// out\n        /* \"#utility.yul\":12175:12541   */\n    tag_586:\n      0x00\n        /* \"#utility.yul\":12338:12405   */\n      tag_588\n        /* \"#utility.yul\":12402:12404   */\n      0x1b\n        /* \"#utility.yul\":12397:12400   */\n      dup4\n        /* \"#utility.yul\":12338:12405   */\n      tag_562\n      jump\t// in\n    tag_588:\n        /* \"#utility.yul\":12331:12405   */\n      swap2\n      pop\n        /* \"#utility.yul\":12414:12507   */\n      tag_589\n        /* \"#utility.yul\":12503:12506   */\n      dup3\n        /* \"#utility.yul\":12414:12507   */\n      tag_590\n      jump\t// in\n    tag_589:\n        /* \"#utility.yul\":12532:12534   */\n      0x20\n        /* \"#utility.yul\":12527:12530   */\n      dup3\n        /* \"#utility.yul\":12523:12535   */\n      add\n        /* \"#utility.yul\":12516:12535   */\n      swap1\n      pop\n        /* \"#utility.yul\":12321:12541   */\n      swap2\n      swap1\n      pop\n      jump\t// out\n        /* \"#utility.yul\":12547:12913   */\n    tag_591:\n      0x00\n        /* \"#utility.yul\":12710:12777   */\n      tag_593\n        /* \"#utility.yul\":12774:12776   */\n      0x23\n        /* \"#utility.yul\":12769:12772   */\n      dup4\n        /* \"#utility.yul\":12710:12777   */\n      tag_562\n      jump\t// in\n    tag_593:\n        /* \"#utility.yul\":12703:12777   */\n      swap2\n      pop\n        /* \"#utility.yul\":12786:12879   */\n      tag_594\n        /* \"#utility.yul\":12875:12878   */\n      dup3\n        /* \"#utility.yul\":12786:12879   */\n      tag_595\n      jump\t// in\n    tag_594:\n        /* \"#utility.yul\":12904:12906   */\n      0x40\n        /* \"#utility.yul\":12899:12902   */\n      dup3\n        /* \"#utility.yul\":12895:12907   */\n      add\n        /* \"#utility.yul\":12888:12907   */\n      swap1\n      pop\n        /* \"#utility.yul\":12693:12913   */\n      swap2\n      swap1\n      pop\n      jump\t// out\n        /* \"#utility.yul\":12919:13285   */\n    tag_596:\n      0x00\n        /* \"#utility.yul\":13082:13149   */\n      tag_598\n        /* \"#utility.yul\":13146:13148   */\n      0x22\n        /* \"#utility.yul\":13141:13144   */\n      dup4\n        /* \"#utility.yul\":13082:13149   */\n      tag_562\n      jump\t// in\n    tag_598:\n        /* \"#utility.yul\":13075:13149   */\n      swap2\n      pop\n        /* \"#utility.yul\":13158:13251   */\n      tag_599\n        /* \"#utility.yul\":13247:13250   */\n      dup3\n        /* \"#utility.yul\":13158:13251   */\n      tag_600\n      jump\t// in\n    tag_599:\n        /* \"#utility.yul\":13276:13278   */\n      0x40\n        /* \"#utility.yul\":13271:13274   */\n      dup3\n        /* \"#utility.yul\":13267:13279   */\n      add\n        /* \"#utility.yul\":13260:13279   */\n      swap1\n      pop\n        /* \"#utility.yul\":13065:13285   */\n      swap2\n      swap1\n      pop\n      jump\t// out\n        /* \"#utility.yul\":13291:13691   */\n    tag_601:\n      0x00\n        /* \"#utility.yul\":13472:13556   */\n      tag_603\n        /* \"#utility.yul\":13554:13555   */\n      0x01\n        /* \"#utility.yul\":13549:13552   */\n      dup4\n        /* \"#utility.yul\":13472:13556   */\n      tag_569\n      jump\t// in\n    tag_603:\n        /* \"#utility.yul\":13465:13556   */\n      swap2\n      pop\n        /* \"#utility.yul\":13565:13658   */\n      tag_604\n        /* \"#utility.yul\":13654:13657   */\n      dup3\n        /* \"#utility.yul\":13565:13658   */\n      tag_605\n      jump\t// in\n    tag_604:\n        /* \"#utility.yul\":13683:13684   */\n      0x01\n        /* \"#utility.yul\":13678:13681   */\n      dup3\n        /* \"#utility.yul\":13674:13685   */\n      add\n        /* \"#utility.yul\":13667:13685   */\n      swap1\n      pop\n        /* \"#utility.yul\":13455:13691   */\n      swap2\n      swap1\n      pop\n      jump\t// out\n        /* \"#utility.yul\":13697:14099   */\n    tag_606:\n      0x00\n        /* \"#utility.yul\":13878:13963   */\n      tag_608\n        /* \"#utility.yul\":13960:13962   */\n      0x30\n        /* \"#utility.yul\":13955:13958   */\n      dup4\n        /* \"#utility.yul\":13878:13963   */\n      tag_569\n      jump\t// in\n    tag_608:\n        /* \"#utility.yul\":13871:13963   */\n      swap2\n      pop\n        /* \"#utility.yul\":13972:14065   */\n      tag_609\n        /* \"#utility.yul\":14061:14064   */\n      dup3\n        /* \"#utility.yul\":13972:14065   */\n      tag_610\n      jump\t// in\n    tag_609:\n        /* \"#utility.yul\":14090:14092   */\n      0x30\n        /* \"#utility.yul\":14085:14088   */\n      dup3\n        /* \"#utility.yul\":14081:14093   */\n      add\n        /* \"#utility.yul\":14074:14093   */\n      swap1\n      pop\n        /* \"#utility.yul\":13861:14099   */\n      swap2\n      swap1\n      pop\n      jump\t// out\n        /* \"#utility.yul\":14105:14471   */\n    tag_611:\n      0x00\n        /* \"#utility.yul\":14268:14335   */\n      tag_613\n        /* \"#utility.yul\":14332:14334   */\n      0x16\n        /* \"#utility.yul\":14327:14330   */\n      dup4\n        /* \"#utility.yul\":14268:14335   */\n      tag_562\n      jump\t// in\n    tag_613:\n        /* \"#utility.yul\":14261:14335   */\n      swap2\n      pop\n        /* \"#utility.yul\":14344:14437   */\n      tag_614\n        /* \"#utility.yul\":14433:14436   */\n      dup3\n        /* \"#utility.yul\":14344:14437   */\n      tag_615\n      jump\t// in\n    tag_614:\n        /* \"#utility.yul\":14462:14464   */\n      0x20\n        /* \"#utility.yul\":14457:14460   */\n      dup3\n        /* \"#utility.yul\":14453:14465   */\n      add\n        /* \"#utility.yul\":14446:14465   */\n      swap1\n      pop\n        /* \"#utility.yul\":14251:14471   */\n      swap2\n      swap1\n      pop\n      jump\t// out\n        /* \"#utility.yul\":14477:14843   */\n    tag_616:\n      0x00\n        /* \"#utility.yul\":14640:14707   */\n      tag_618\n        /* \"#utility.yul\":14704:14706   */\n      0x1f\n        /* \"#utility.yul\":14699:14702   */\n      dup4\n        /* \"#utility.yul\":14640:14707   */\n      tag_562\n      jump\t// in\n    tag_618:\n        /* \"#utility.yul\":14633:14707   */\n      swap2\n      pop\n        /* \"#utility.yul\":14716:14809   */\n      tag_619\n        /* \"#utility.yul\":14805:14808   */\n      dup3\n        /* \"#utility.yul\":14716:14809   */\n      tag_620\n      jump\t// in\n    tag_619:\n        /* \"#utility.yul\":14834:14836   */\n      0x20\n        /* \"#utility.yul\":14829:14832   */\n      dup3\n        /* \"#utility.yul\":14825:14837   */\n      add\n        /* \"#utility.yul\":14818:14837   */\n      swap1\n      pop\n        /* \"#utility.yul\":14623:14843   */\n      swap2\n      swap1\n      pop\n      jump\t// out\n        /* \"#utility.yul\":14849:15215   */\n    tag_621:\n      0x00\n        /* \"#utility.yul\":15012:15079   */\n      tag_623\n        /* \"#utility.yul\":15076:15078   */\n      0x27\n        /* \"#utility.yul\":15071:15074   */\n      dup4\n        /* \"#utility.yul\":15012:15079   */\n      tag_562\n      jump\t// in\n    tag_623:\n        /* \"#utility.yul\":15005:15079   */\n      swap2\n      pop\n        /* \"#utility.yul\":15088:15181   */\n      tag_624\n        /* \"#utility.yul\":15177:15180   */\n      dup3\n        /* \"#utility.yul\":15088:15181   */\n      tag_625\n      jump\t// in\n    tag_624:\n        /* \"#utility.yul\":15206:15208   */\n      0x40\n        /* \"#utility.yul\":15201:15204   */\n      dup3\n        /* \"#utility.yul\":15197:15209   */\n      add\n        /* \"#utility.yul\":15190:15209   */\n      swap1\n      pop\n        /* \"#utility.yul\":14995:15215   */\n      swap2\n      swap1\n      pop\n      jump\t// out\n        /* \"#utility.yul\":15221:15623   */\n    tag_626:\n      0x00\n        /* \"#utility.yul\":15402:15487   */\n      tag_628\n        /* \"#utility.yul\":15484:15486   */\n      0x17\n        /* \"#utility.yul\":15479:15482   */\n      dup4\n        /* \"#utility.yul\":15402:15487   */\n      tag_569\n      jump\t// in\n    tag_628:\n        /* \"#utility.yul\":15395:15487   */\n      swap2\n      pop\n        /* \"#utility.yul\":15496:15589   */\n      tag_629\n        /* \"#utility.yul\":15585:15588   */\n      dup3\n        /* \"#utility.yul\":15496:15589   */\n      tag_630\n      jump\t// in\n    tag_629:\n        /* \"#utility.yul\":15614:15616   */\n      0x17\n        /* \"#utility.yul\":15609:15612   */\n      dup3\n        /* \"#utility.yul\":15605:15617   */\n      add\n        /* \"#utility.yul\":15598:15617   */\n      swap1\n      pop\n        /* \"#utility.yul\":15385:15623   */\n      swap2\n      swap1\n      pop\n      jump\t// out\n        /* \"#utility.yul\":15629:16031   */\n    tag_631:\n      0x00\n        /* \"#utility.yul\":15810:15895   */\n      tag_633\n        /* \"#utility.yul\":15892:15894   */\n      0x11\n        /* \"#utility.yul\":15887:15890   */\n      dup4\n        /* \"#utility.yul\":15810:15895   */\n      tag_569\n      jump\t// in\n    tag_633:\n        /* \"#utility.yul\":15803:15895   */\n      swap2\n      pop\n        /* \"#utility.yul\":15904:15997   */\n      tag_634\n        /* \"#utility.yul\":15993:15996   */\n      dup3\n        /* \"#utility.yul\":15904:15997   */\n      tag_635\n      jump\t// in\n    tag_634:\n        /* \"#utility.yul\":16022:16024   */\n      0x11\n        /* \"#utility.yul\":16017:16020   */\n      dup3\n        /* \"#utility.yul\":16013:16025   */\n      add\n        /* \"#utility.yul\":16006:16025   */\n      swap1\n      pop\n        /* \"#utility.yul\":15793:16031   */\n      swap2\n      swap1\n      pop\n      jump\t// out\n        /* \"#utility.yul\":16037:16403   */\n    tag_636:\n      0x00\n        /* \"#utility.yul\":16200:16267   */\n      tag_638\n        /* \"#utility.yul\":16264:16266   */\n      0x2f\n        /* \"#utility.yul\":16259:16262   */\n      dup4\n        /* \"#utility.yul\":16200:16267   */\n      tag_562\n      jump\t// in\n    tag_638:\n        /* \"#utility.yul\":16193:16267   */\n      swap2\n      pop\n        /* \"#utility.yul\":16276:16369   */\n      tag_639\n        /* \"#utility.yul\":16365:16368   */\n      dup3\n        /* \"#utility.yul\":16276:16369   */\n      tag_640\n      jump\t// in\n    tag_639:\n        /* \"#utility.yul\":16394:16396   */\n      0x40\n        /* \"#utility.yul\":16389:16392   */\n      dup3\n        /* \"#utility.yul\":16385:16397   */\n      add\n        /* \"#utility.yul\":16378:16397   */\n      swap1\n      pop\n        /* \"#utility.yul\":16183:16403   */\n      swap2\n      swap1\n      pop\n      jump\t// out\n        /* \"#utility.yul\":16409:16517   */\n    tag_491:\n        /* \"#utility.yul\":16486:16510   */\n      tag_642\n        /* \"#utility.yul\":16504:16509   */\n      dup2\n        /* \"#utility.yul\":16486:16510   */\n      tag_643\n      jump\t// in\n    tag_642:\n        /* \"#utility.yul\":16481:16484   */\n      dup3\n        /* \"#utility.yul\":16474:16511   */\n      mstore\n        /* \"#utility.yul\":16464:16517   */\n      pop\n      pop\n      jump\t// out\n        /* \"#utility.yul\":16523:16641   */\n    tag_644:\n        /* \"#utility.yul\":16610:16634   */\n      tag_646\n        /* \"#utility.yul\":16628:16633   */\n      dup2\n        /* \"#utility.yul\":16610:16634   */\n      tag_643\n      jump\t// in\n    tag_646:\n        /* \"#utility.yul\":16605:16608   */\n      dup3\n        /* \"#utility.yul\":16598:16635   */\n      mstore\n        /* \"#utility.yul\":16588:16641   */\n      pop\n      pop\n      jump\t// out\n        /* \"#utility.yul\":16647:16804   */\n    tag_647:\n        /* \"#utility.yul\":16752:16797   */\n      tag_649\n        /* \"#utility.yul\":16772:16796   */\n      tag_650\n        /* \"#utility.yul\":16790:16795   */\n      dup3\n        /* \"#utility.yul\":16772:16796   */\n      tag_643\n      jump\t// in\n    tag_650:\n        /* \"#utility.yul\":16752:16797   */\n      tag_651\n      jump\t// in\n    tag_649:\n        /* \"#utility.yul\":16747:16750   */\n      dup3\n        /* \"#utility.yul\":16740:16798   */\n      mstore\n        /* \"#utility.yul\":16730:16804   */\n      pop\n      pop\n      jump\t// out\n        /* \"#utility.yul\":16810:18005   */\n    tag_260:\n      0x00\n        /* \"#utility.yul\":17275:17423   */\n      tag_653\n        /* \"#utility.yul\":17419:17422   */\n      dup3\n        /* \"#utility.yul\":17275:17423   */\n      tag_576\n      jump\t// in\n    tag_653:\n        /* \"#utility.yul\":17268:17423   */\n      swap2\n      pop\n        /* \"#utility.yul\":17433:17508   */\n      tag_654\n        /* \"#utility.yul\":17504:17507   */\n      dup3\n        /* \"#utility.yul\":17495:17501   */\n      dup6\n        /* \"#utility.yul\":17433:17508   */\n      tag_496\n      jump\t// in\n    tag_654:\n        /* \"#utility.yul\":17533:17535   */\n      0x14\n        /* \"#utility.yul\":17528:17531   */\n      dup3\n        /* \"#utility.yul\":17524:17536   */\n      add\n        /* \"#utility.yul\":17517:17536   */\n      swap2\n      pop\n        /* \"#utility.yul\":17553:17701   */\n      tag_655\n        /* \"#utility.yul\":17697:17700   */\n      dup3\n        /* \"#utility.yul\":17553:17701   */\n      tag_606\n      jump\t// in\n    tag_655:\n        /* \"#utility.yul\":17546:17701   */\n      swap2\n      pop\n        /* \"#utility.yul\":17711:17786   */\n      tag_656\n        /* \"#utility.yul\":17782:17785   */\n      dup3\n        /* \"#utility.yul\":17773:17779   */\n      dup5\n        /* \"#utility.yul\":17711:17786   */\n      tag_647\n      jump\t// in\n    tag_656:\n        /* \"#utility.yul\":17811:17813   */\n      0x20\n        /* \"#utility.yul\":17806:17809   */\n      dup3\n        /* \"#utility.yul\":17802:17814   */\n      add\n        /* \"#utility.yul\":17795:17814   */\n      swap2\n      pop\n        /* \"#utility.yul\":17831:17979   */\n      tag_657\n        /* \"#utility.yul\":17975:17978   */\n      dup3\n        /* \"#utility.yul\":17831:17979   */\n      tag_601\n      jump\t// in\n    tag_657:\n        /* \"#utility.yul\":17824:17979   */\n      swap2\n      pop\n        /* \"#utility.yul\":17996:17999   */\n      dup2\n        /* \"#utility.yul\":17989:17999   */\n      swap1\n      pop\n        /* \"#utility.yul\":17257:18005   */\n      swap4\n      swap3\n      pop\n      pop\n      pop\n      jump\t// out\n        /* \"#utility.yul\":18011:18978   */\n    tag_350:\n      0x00\n        /* \"#utility.yul\":18415:18563   */\n      tag_659\n        /* \"#utility.yul\":18559:18562   */\n      dup3\n        /* \"#utility.yul\":18415:18563   */\n      tag_626\n      jump\t// in\n    tag_659:\n        /* \"#utility.yul\":18408:18563   */\n      swap2\n      pop\n        /* \"#utility.yul\":18580:18675   */\n      tag_660\n        /* \"#utility.yul\":18671:18674   */\n      dup3\n        /* \"#utility.yul\":18662:18668   */\n      dup6\n        /* \"#utility.yul\":18580:18675   */\n      tag_565\n      jump\t// in\n    tag_660:\n        /* \"#utility.yul\":18573:18675   */\n      swap2\n      pop\n        /* \"#utility.yul\":18692:18840   */\n      tag_661\n        /* \"#utility.yul\":18836:18839   */\n      dup3\n        /* \"#utility.yul\":18692:18840   */\n      tag_631\n      jump\t// in\n    tag_661:\n        /* \"#utility.yul\":18685:18840   */\n      swap2\n      pop\n        /* \"#utility.yul\":18857:18952   */\n      tag_662\n        /* \"#utility.yul\":18948:18951   */\n      dup3\n        /* \"#utility.yul\":18939:18945   */\n      dup5\n        /* \"#utility.yul\":18857:18952   */\n      tag_565\n      jump\t// in\n    tag_662:\n        /* \"#utility.yul\":18850:18952   */\n      swap2\n      pop\n        /* \"#utility.yul\":18969:18972   */\n      dup2\n        /* \"#utility.yul\":18962:18972   */\n      swap1\n      pop\n        /* \"#utility.yul\":18397:18978   */\n      swap4\n      swap3\n      pop\n      pop\n      pop\n      jump\t// out\n        /* \"#utility.yul\":18984:19206   */\n    tag_126:\n      0x00\n        /* \"#utility.yul\":19115:19117   */\n      0x20\n        /* \"#utility.yul\":19104:19113   */\n      dup3\n        /* \"#utility.yul\":19100:19118   */\n      add\n        /* \"#utility.yul\":19092:19118   */\n      swap1\n      pop\n        /* \"#utility.yul\":19128:19199   */\n      tag_664\n        /* \"#utility.yul\":19196:19197   */\n      0x00\n        /* \"#utility.yul\":19185:19194   */\n      dup4\n        /* \"#utility.yul\":19181:19198   */\n      add\n        /* \"#utility.yul\":19172:19178   */\n      dup5\n        /* \"#utility.yul\":19128:19199   */\n      tag_492\n      jump\t// in\n    tag_664:\n        /* \"#utility.yul\":19082:19206   */\n      swap3\n      swap2\n      pop\n      pop\n      jump\t// out\n        /* \"#utility.yul\":19212:19544   */\n    tag_253:\n      0x00\n        /* \"#utility.yul\":19371:19373   */\n      0x40\n        /* \"#utility.yul\":19360:19369   */\n      dup3\n        /* \"#utility.yul\":19356:19374   */\n      add\n        /* \"#utility.yul\":19348:19374   */\n      swap1\n      pop\n        /* \"#utility.yul\":19384:19455   */\n      tag_666\n        /* \"#utility.yul\":19452:19453   */\n      0x00\n        /* \"#utility.yul\":19441:19450   */\n      dup4\n        /* \"#utility.yul\":19437:19454   */\n      add\n        /* \"#utility.yul\":19428:19434   */\n      dup6\n        /* \"#utility.yul\":19384:19455   */\n      tag_492\n      jump\t// in\n    tag_666:\n        /* \"#utility.yul\":19465:19537   */\n      tag_667\n        /* \"#utility.yul\":19533:19535   */\n      0x20\n        /* \"#utility.yul\":19522:19531   */\n      dup4\n        /* \"#utility.yul\":19518:19536   */\n      add\n        /* \"#utility.yul\":19509:19515   */\n      dup5\n        /* \"#utility.yul\":19465:19537   */\n      tag_644\n      jump\t// in\n    tag_667:\n        /* \"#utility.yul\":19338:19544   */\n      swap4\n      swap3\n      pop\n      pop\n      pop\n      jump\t// out\n        /* \"#utility.yul\":19550:20224   */\n    tag_297:\n      0x00\n        /* \"#utility.yul\":19829:19831   */\n      0x40\n        /* \"#utility.yul\":19818:19827   */\n      dup3\n        /* \"#utility.yul\":19814:19832   */\n      add\n        /* \"#utility.yul\":19806:19832   */\n      swap1\n      pop\n        /* \"#utility.yul\":19878:19887   */\n      dup2\n        /* \"#utility.yul\":19872:19876   */\n      dup2\n        /* \"#utility.yul\":19868:19888   */\n      sub\n        /* \"#utility.yul\":19864:19865   */\n      0x00\n        /* \"#utility.yul\":19853:19862   */\n      dup4\n        /* \"#utility.yul\":19849:19866   */\n      add\n        /* \"#utility.yul\":19842:19889   */\n      mstore\n        /* \"#utility.yul\":19906:20014   */\n      tag_669\n        /* \"#utility.yul\":20009:20013   */\n      dup2\n        /* \"#utility.yul\":20000:20006   */\n      dup6\n        /* \"#utility.yul\":19906:20014   */\n      tag_515\n      jump\t// in\n    tag_669:\n        /* \"#utility.yul\":19898:20014   */\n      swap1\n      pop\n        /* \"#utility.yul\":20061:20070   */\n      dup2\n        /* \"#utility.yul\":20055:20059   */\n      dup2\n        /* \"#utility.yul\":20051:20071   */\n      sub\n        /* \"#utility.yul\":20046:20048   */\n      0x20\n        /* \"#utility.yul\":20035:20044   */\n      dup4\n        /* \"#utility.yul\":20031:20049   */\n      add\n        /* \"#utility.yul\":20024:20072   */\n      mstore\n        /* \"#utility.yul\":20089:20217   */\n      tag_670\n        /* \"#utility.yul\":20212:20216   */\n      dup2\n        /* \"#utility.yul\":20203:20209   */\n      dup5\n        /* \"#utility.yul\":20089:20217   */\n      tag_501\n      jump\t// in\n    tag_670:\n        /* \"#utility.yul\":20081:20217   */\n      swap1\n      pop\n        /* \"#utility.yul\":19796:20224   */\n      swap4\n      swap3\n      pop\n      pop\n      pop\n      jump\t// out\n        /* \"#utility.yul\":20230:20440   */\n    tag_43:\n      0x00\n        /* \"#utility.yul\":20355:20357   */\n      0x20\n        /* \"#utility.yul\":20344:20353   */\n      dup3\n        /* \"#utility.yul\":20340:20358   */\n      add\n        /* \"#utility.yul\":20332:20358   */\n      swap1\n      pop\n        /* \"#utility.yul\":20368:20433   */\n      tag_672\n        /* \"#utility.yul\":20430:20431   */\n      0x00\n        /* \"#utility.yul\":20419:20428   */\n      dup4\n        /* \"#utility.yul\":20415:20432   */\n      add\n        /* \"#utility.yul\":20406:20412   */\n      dup5\n        /* \"#utility.yul\":20368:20433   */\n      tag_529\n      jump\t// in\n    tag_672:\n        /* \"#utility.yul\":20322:20440   */\n      swap3\n      swap2\n      pop\n      pop\n      jump\t// out\n        /* \"#utility.yul\":20446:20668   */\n    tag_49:\n      0x00\n        /* \"#utility.yul\":20577:20579   */\n      0x20\n        /* \"#utility.yul\":20566:20575   */\n      dup3\n        /* \"#utility.yul\":20562:20580   */\n      add\n        /* \"#utility.yul\":20554:20580   */\n      swap1\n      pop\n        /* \"#utility.yul\":20590:20661   */\n      tag_674\n        /* \"#utility.yul\":20658:20659   */\n      0x00\n        /* \"#utility.yul\":20647:20656   */\n      dup4\n        /* \"#utility.yul\":20643:20660   */\n      add\n        /* \"#utility.yul\":20634:20640   */\n      dup5\n        /* \"#utility.yul\":20590:20661   */\n      tag_533\n      jump\t// in\n    tag_674:\n        /* \"#utility.yul\":20544:20668   */\n      swap3\n      swap2\n      pop\n      pop\n      jump\t// out\n        /* \"#utility.yul\":20674:20936   */\n    tag_95:\n      0x00\n        /* \"#utility.yul\":20825:20827   */\n      0x20\n        /* \"#utility.yul\":20814:20823   */\n      dup3\n        /* \"#utility.yul\":20810:20828   */\n      add\n        /* \"#utility.yul\":20802:20828   */\n      swap1\n      pop\n        /* \"#utility.yul\":20838:20929   */\n      tag_676\n        /* \"#utility.yul\":20926:20927   */\n      0x00\n        /* \"#utility.yul\":20915:20924   */\n      dup4\n        /* \"#utility.yul\":20911:20928   */\n      add\n        /* \"#utility.yul\":20902:20908   */\n      dup5\n        /* \"#utility.yul\":20838:20929   */\n      tag_537\n      jump\t// in\n    tag_676:\n        /* \"#utility.yul\":20792:20936   */\n      swap3\n      swap2\n      pop\n      pop\n      jump\t// out\n        /* \"#utility.yul\":20942:21224   */\n    tag_85:\n      0x00\n        /* \"#utility.yul\":21103:21105   */\n      0x20\n        /* \"#utility.yul\":21092:21101   */\n      dup3\n        /* \"#utility.yul\":21088:21106   */\n      add\n        /* \"#utility.yul\":21080:21106   */\n      swap1\n      pop\n        /* \"#utility.yul\":21116:21217   */\n      tag_678\n        /* \"#utility.yul\":21214:21215   */\n      0x00\n        /* \"#utility.yul\":21203:21212   */\n      dup4\n        /* \"#utility.yul\":21199:21216   */\n      add\n        /* \"#utility.yul\":21190:21196   */\n      dup5\n        /* \"#utility.yul\":21116:21217   */\n      tag_541\n      jump\t// in\n    tag_678:\n        /* \"#utility.yul\":21070:21224   */\n      swap3\n      swap2\n      pop\n      pop\n      jump\t// out\n        /* \"#utility.yul\":21230:21492   */\n    tag_122:\n      0x00\n        /* \"#utility.yul\":21381:21383   */\n      0x20\n        /* \"#utility.yul\":21370:21379   */\n      dup3\n        /* \"#utility.yul\":21366:21384   */\n      add\n        /* \"#utility.yul\":21358:21384   */\n      swap1\n      pop\n        /* \"#utility.yul\":21394:21485   */\n      tag_680\n        /* \"#utility.yul\":21482:21483   */\n      0x00\n        /* \"#utility.yul\":21471:21480   */\n      dup4\n        /* \"#utility.yul\":21467:21484   */\n      add\n        /* \"#utility.yul\":21458:21464   */\n      dup5\n        /* \"#utility.yul\":21394:21485   */\n      tag_545\n      jump\t// in\n    tag_680:\n        /* \"#utility.yul\":21348:21492   */\n      swap3\n      swap2\n      pop\n      pop\n      jump\t// out\n        /* \"#utility.yul\":21498:21811   */\n    tag_263:\n      0x00\n        /* \"#utility.yul\":21649:21651   */\n      0x20\n        /* \"#utility.yul\":21638:21647   */\n      dup3\n        /* \"#utility.yul\":21634:21652   */\n      add\n        /* \"#utility.yul\":21626:21652   */\n      swap1\n      pop\n        /* \"#utility.yul\":21698:21707   */\n      dup2\n        /* \"#utility.yul\":21692:21696   */\n      dup2\n        /* \"#utility.yul\":21688:21708   */\n      sub\n        /* \"#utility.yul\":21684:21685   */\n      0x00\n        /* \"#utility.yul\":21673:21682   */\n      dup4\n        /* \"#utility.yul\":21669:21686   */\n      add\n        /* \"#utility.yul\":21662:21709   */\n      mstore\n        /* \"#utility.yul\":21726:21804   */\n      tag_682\n        /* \"#utility.yul\":21799:21803   */\n      dup2\n        /* \"#utility.yul\":21790:21796   */\n      dup5\n        /* \"#utility.yul\":21726:21804   */\n      tag_558\n      jump\t// in\n    tag_682:\n        /* \"#utility.yul\":21718:21804   */\n      swap1\n      pop\n        /* \"#utility.yul\":21616:21811   */\n      swap3\n      swap2\n      pop\n      pop\n      jump\t// out\n        /* \"#utility.yul\":21817:22236   */\n    tag_387:\n      0x00\n        /* \"#utility.yul\":22021:22023   */\n      0x20\n        /* \"#utility.yul\":22010:22019   */\n      dup3\n        /* \"#utility.yul\":22006:22024   */\n      add\n        /* \"#utility.yul\":21998:22024   */\n      swap1\n      pop\n        /* \"#utility.yul\":22070:22079   */\n      dup2\n        /* \"#utility.yul\":22064:22068   */\n      dup2\n        /* \"#utility.yul\":22060:22080   */\n      sub\n        /* \"#utility.yul\":22056:22057   */\n      0x00\n        /* \"#utility.yul\":22045:22054   */\n      dup4\n        /* \"#utility.yul\":22041:22058   */\n      add\n        /* \"#utility.yul\":22034:22081   */\n      mstore\n        /* \"#utility.yul\":22098:22229   */\n      tag_684\n        /* \"#utility.yul\":22224:22228   */\n      dup2\n        /* \"#utility.yul\":22098:22229   */\n      tag_571\n      jump\t// in\n    tag_684:\n        /* \"#utility.yul\":22090:22229   */\n      swap1\n      pop\n        /* \"#utility.yul\":21988:22236   */\n      swap2\n      swap1\n      pop\n      jump\t// out\n        /* \"#utility.yul\":22242:22661   */\n    tag_160:\n      0x00\n        /* \"#utility.yul\":22446:22448   */\n      0x20\n        /* \"#utility.yul\":22435:22444   */\n      dup3\n        /* \"#utility.yul\":22431:22449   */\n      add\n        /* \"#utility.yul\":22423:22449   */\n      swap1\n      pop\n        /* \"#utility.yul\":22495:22504   */\n      dup2\n        /* \"#utility.yul\":22489:22493   */\n      dup2\n        /* \"#utility.yul\":22485:22505   */\n      sub\n        /* \"#utility.yul\":22481:22482   */\n      0x00\n        /* \"#utility.yul\":22470:22479   */\n      dup4\n        /* \"#utility.yul\":22466:22483   */\n      add\n        /* \"#utility.yul\":22459:22506   */\n      mstore\n        /* \"#utility.yul\":22523:22654   */\n      tag_686\n        /* \"#utility.yul\":22649:22653   */\n      dup2\n        /* \"#utility.yul\":22523:22654   */\n      tag_581\n      jump\t// in\n    tag_686:\n        /* \"#utility.yul\":22515:22654   */\n      swap1\n      pop\n        /* \"#utility.yul\":22413:22661   */\n      swap2\n      swap1\n      pop\n      jump\t// out\n        /* \"#utility.yul\":22667:23086   */\n    tag_250:\n      0x00\n        /* \"#utility.yul\":22871:22873   */\n      0x20\n        /* \"#utility.yul\":22860:22869   */\n      dup3\n        /* \"#utility.yul\":22856:22874   */\n      add\n        /* \"#utility.yul\":22848:22874   */\n      swap1\n      pop\n        /* \"#utility.yul\":22920:22929   */\n      dup2\n        /* \"#utility.yul\":22914:22918   */\n      dup2\n        /* \"#utility.yul\":22910:22930   */\n      sub\n        /* \"#utility.yul\":22906:22907   */\n      0x00\n        /* \"#utility.yul\":22895:22904   */\n      dup4\n        /* \"#utility.yul\":22891:22908   */\n      add\n        /* \"#utility.yul\":22884:22931   */\n      mstore\n        /* \"#utility.yul\":22948:23079   */\n      tag_688\n        /* \"#utility.yul\":23074:23078   */\n      dup2\n        /* \"#utility.yul\":22948:23079   */\n      tag_586\n      jump\t// in\n    tag_688:\n        /* \"#utility.yul\":22940:23079   */\n      swap1\n      pop\n        /* \"#utility.yul\":22838:23086   */\n      swap2\n      swap1\n      pop\n      jump\t// out\n        /* \"#utility.yul\":23092:23511   */\n    tag_246:\n      0x00\n        /* \"#utility.yul\":23296:23298   */\n      0x20\n        /* \"#utility.yul\":23285:23294   */\n      dup3\n        /* \"#utility.yul\":23281:23299   */\n      add\n        /* \"#utility.yul\":23273:23299   */\n      swap1\n      pop\n        /* \"#utility.yul\":23345:23354   */\n      dup2\n        /* \"#utility.yul\":23339:23343   */\n      dup2\n        /* \"#utility.yul\":23335:23355   */\n      sub\n        /* \"#utility.yul\":23331:23332   */\n      0x00\n        /* \"#utility.yul\":23320:23329   */\n      dup4\n        /* \"#utility.yul\":23316:23333   */\n      add\n        /* \"#utility.yul\":23309:23356   */\n      mstore\n        /* \"#utility.yul\":23373:23504   */\n      tag_690\n        /* \"#utility.yul\":23499:23503   */\n      dup2\n        /* \"#utility.yul\":23373:23504   */\n      tag_591\n      jump\t// in\n    tag_690:\n        /* \"#utility.yul\":23365:23504   */\n      swap1\n      pop\n        /* \"#utility.yul\":23263:23511   */\n      swap2\n      swap1\n      pop\n      jump\t// out\n        /* \"#utility.yul\":23517:23936   */\n    tag_295:\n      0x00\n        /* \"#utility.yul\":23721:23723   */\n      0x20\n        /* \"#utility.yul\":23710:23719   */\n      dup3\n        /* \"#utility.yul\":23706:23724   */\n      add\n        /* \"#utility.yul\":23698:23724   */\n      swap1\n      pop\n        /* \"#utility.yul\":23770:23779   */\n      dup2\n        /* \"#utility.yul\":23764:23768   */\n      dup2\n        /* \"#utility.yul\":23760:23780   */\n      sub\n        /* \"#utility.yul\":23756:23757   */\n      0x00\n        /* \"#utility.yul\":23745:23754   */\n      dup4\n        /* \"#utility.yul\":23741:23758   */\n      add\n        /* \"#utility.yul\":23734:23781   */\n      mstore\n        /* \"#utility.yul\":23798:23929   */\n      tag_692\n        /* \"#utility.yul\":23924:23928   */\n      dup2\n        /* \"#utility.yul\":23798:23929   */\n      tag_596\n      jump\t// in\n    tag_692:\n        /* \"#utility.yul\":23790:23929   */\n      swap1\n      pop\n        /* \"#utility.yul\":23688:23936   */\n      swap2\n      swap1\n      pop\n      jump\t// out\n        /* \"#utility.yul\":23942:24361   */\n    tag_168:\n      0x00\n        /* \"#utility.yul\":24146:24148   */\n      0x20\n        /* \"#utility.yul\":24135:24144   */\n      dup3\n        /* \"#utility.yul\":24131:24149   */\n      add\n        /* \"#utility.yul\":24123:24149   */\n      swap1\n      pop\n        /* \"#utility.yul\":24195:24204   */\n      dup2\n        /* \"#utility.yul\":24189:24193   */\n      dup2\n        /* \"#utility.yul\":24185:24205   */\n      sub\n        /* \"#utility.yul\":24181:24182   */\n      0x00\n        /* \"#utility.yul\":24170:24179   */\n      dup4\n        /* \"#utility.yul\":24166:24183   */\n      add\n        /* \"#utility.yul\":24159:24206   */\n      mstore\n        /* \"#utility.yul\":24223:24354   */\n      tag_694\n        /* \"#utility.yul\":24349:24353   */\n      dup2\n        /* \"#utility.yul\":24223:24354   */\n      tag_611\n      jump\t// in\n    tag_694:\n        /* \"#utility.yul\":24215:24354   */\n      swap1\n      pop\n        /* \"#utility.yul\":24113:24361   */\n      swap2\n      swap1\n      pop\n      jump\t// out\n        /* \"#utility.yul\":24367:24786   */\n    tag_327:\n      0x00\n        /* \"#utility.yul\":24571:24573   */\n      0x20\n        /* \"#utility.yul\":24560:24569   */\n      dup3\n        /* \"#utility.yul\":24556:24574   */\n      add\n        /* \"#utility.yul\":24548:24574   */\n      swap1\n      pop\n        /* \"#utility.yul\":24620:24629   */\n      dup2\n        /* \"#utility.yul\":24614:24618   */\n      dup2\n        /* \"#utility.yul\":24610:24630   */\n      sub\n        /* \"#utility.yul\":24606:24607   */\n      0x00\n        /* \"#utility.yul\":24595:24604   */\n      dup4\n        /* \"#utility.yul\":24591:24608   */\n      add\n        /* \"#utility.yul\":24584:24631   */\n      mstore\n        /* \"#utility.yul\":24648:24779   */\n      tag_696\n        /* \"#utility.yul\":24774:24778   */\n      dup2\n        /* \"#utility.yul\":24648:24779   */\n      tag_616\n      jump\t// in\n    tag_696:\n        /* \"#utility.yul\":24640:24779   */\n      swap1\n      pop\n        /* \"#utility.yul\":24538:24786   */\n      swap2\n      swap1\n      pop\n      jump\t// out\n        /* \"#utility.yul\":24792:25211   */\n    tag_156:\n      0x00\n        /* \"#utility.yul\":24996:24998   */\n      0x20\n        /* \"#utility.yul\":24985:24994   */\n      dup3\n        /* \"#utility.yul\":24981:24999   */\n      add\n        /* \"#utility.yul\":24973:24999   */\n      swap1\n      pop\n        /* \"#utility.yul\":25045:25054   */\n      dup2\n        /* \"#utility.yul\":25039:25043   */\n      dup2\n        /* \"#utility.yul\":25035:25055   */\n      sub\n        /* \"#utility.yul\":25031:25032   */\n      0x00\n        /* \"#utility.yul\":25020:25029   */\n      dup4\n        /* \"#utility.yul\":25016:25033   */\n      add\n        /* \"#utility.yul\":25009:25056   */\n      mstore\n        /* \"#utility.yul\":25073:25204   */\n      tag_698\n        /* \"#utility.yul\":25199:25203   */\n      dup2\n        /* \"#utility.yul\":25073:25204   */\n      tag_621\n      jump\t// in\n    tag_698:\n        /* \"#utility.yul\":25065:25204   */\n      swap1\n      pop\n        /* \"#utility.yul\":24963:25211   */\n      swap2\n      swap1\n      pop\n      jump\t// out\n        /* \"#utility.yul\":25217:25636   */\n    tag_183:\n      0x00\n        /* \"#utility.yul\":25421:25423   */\n      0x20\n        /* \"#utility.yul\":25410:25419   */\n      dup3\n        /* \"#utility.yul\":25406:25424   */\n      add\n        /* \"#utility.yul\":25398:25424   */\n      swap1\n      pop\n        /* \"#utility.yul\":25470:25479   */\n      dup2\n        /* \"#utility.yul\":25464:25468   */\n      dup2\n        /* \"#utility.yul\":25460:25480   */\n      sub\n        /* \"#utility.yul\":25456:25457   */\n      0x00\n        /* \"#utility.yul\":25445:25454   */\n      dup4\n        /* \"#utility.yul\":25441:25458   */\n      add\n        /* \"#utility.yul\":25434:25481   */\n      mstore\n        /* \"#utility.yul\":25498:25629   */\n      tag_700\n        /* \"#utility.yul\":25624:25628   */\n      dup2\n        /* \"#utility.yul\":25498:25629   */\n      tag_636\n      jump\t// in\n    tag_700:\n        /* \"#utility.yul\":25490:25629   */\n      swap1\n      pop\n        /* \"#utility.yul\":25388:25636   */\n      swap2\n      swap1\n      pop\n      jump\t// out\n        /* \"#utility.yul\":25642:25864   */\n    tag_64:\n      0x00\n        /* \"#utility.yul\":25773:25775   */\n      0x20\n        /* \"#utility.yul\":25762:25771   */\n      dup3\n        /* \"#utility.yul\":25758:25776   */\n      add\n        /* \"#utility.yul\":25750:25776   */\n      swap1\n      pop\n        /* \"#utility.yul\":25786:25857   */\n      tag_702\n        /* \"#utility.yul\":25854:25855   */\n      0x00\n        /* \"#utility.yul\":25843:25852   */\n      dup4\n        /* \"#utility.yul\":25839:25856   */\n      add\n        /* \"#utility.yul\":25830:25836   */\n      dup5\n        /* \"#utility.yul\":25786:25857   */\n      tag_644\n      jump\t// in\n    tag_702:\n        /* \"#utility.yul\":25740:25864   */\n      swap3\n      swap2\n      pop\n      pop\n      jump\t// out\n        /* \"#utility.yul\":25870:26300   */\n    tag_118:\n      0x00\n        /* \"#utility.yul\":26051:26053   */\n      0x60\n        /* \"#utility.yul\":26040:26049   */\n      dup3\n        /* \"#utility.yul\":26036:26054   */\n      add\n        /* \"#utility.yul\":26028:26054   */\n      swap1\n      pop\n        /* \"#utility.yul\":26064:26135   */\n      tag_704\n        /* \"#utility.yul\":26132:26133   */\n      0x00\n        /* \"#utility.yul\":26121:26130   */\n      dup4\n        /* \"#utility.yul\":26117:26134   */\n      add\n        /* \"#utility.yul\":26108:26114   */\n      dup7\n        /* \"#utility.yul\":26064:26135   */\n      tag_644\n      jump\t// in\n    tag_704:\n        /* \"#utility.yul\":26145:26217   */\n      tag_705\n        /* \"#utility.yul\":26213:26215   */\n      0x20\n        /* \"#utility.yul\":26202:26211   */\n      dup4\n        /* \"#utility.yul\":26198:26216   */\n      add\n        /* \"#utility.yul\":26189:26195   */\n      dup6\n        /* \"#utility.yul\":26145:26217   */\n      tag_644\n      jump\t// in\n    tag_705:\n        /* \"#utility.yul\":26227:26293   */\n      tag_706\n        /* \"#utility.yul\":26289:26291   */\n      0x40\n        /* \"#utility.yul\":26278:26287   */\n      dup4\n        /* \"#utility.yul\":26274:26292   */\n      add\n        /* \"#utility.yul\":26265:26271   */\n      dup5\n        /* \"#utility.yul\":26227:26293   */\n      tag_529\n      jump\t// in\n    tag_706:\n        /* \"#utility.yul\":26018:26300   */\n      swap5\n      swap4\n      pop\n      pop\n      pop\n      pop\n      jump\t// out\n        /* \"#utility.yul\":26306:26435   */\n    tag_394:\n      0x00\n        /* \"#utility.yul\":26367:26387   */\n      tag_708\n      tag_709\n      jump\t// in\n    tag_708:\n        /* \"#utility.yul\":26357:26387   */\n      swap1\n      pop\n        /* \"#utility.yul\":26396:26429   */\n      tag_710\n        /* \"#utility.yul\":26424:26428   */\n      dup3\n        /* \"#utility.yul\":26416:26422   */\n      dup3\n        /* \"#utility.yul\":26396:26429   */\n      tag_711\n      jump\t// in\n    tag_710:\n        /* \"#utility.yul\":26347:26435   */\n      swap2\n      swap1\n      pop\n      jump\t// out\n        /* \"#utility.yul\":26441:26516   */\n    tag_709:\n      0x00\n        /* \"#utility.yul\":26507:26509   */\n      0x40\n        /* \"#utility.yul\":26501:26510   */\n      mload\n        /* \"#utility.yul\":26491:26510   */\n      swap1\n      pop\n        /* \"#utility.yul\":26481:26516   */\n      swap1\n      jump\t// out\n        /* \"#utility.yul\":26522:26843   */\n    tag_393:\n      0x00\n        /* \"#utility.yul\":26699:26717   */\n      0xffffffffffffffff\n        /* \"#utility.yul\":26691:26697   */\n      dup3\n        /* \"#utility.yul\":26688:26718   */\n      gt\n        /* \"#utility.yul\":26685:26687   */\n      iszero\n      tag_714\n      jumpi\n        /* \"#utility.yul\":26721:26739   */\n      tag_715\n      tag_716\n      jump\t// in\n    tag_715:\n        /* \"#utility.yul\":26685:26687   */\n    tag_714:\n        /* \"#utility.yul\":26771:26775   */\n      0x20\n        /* \"#utility.yul\":26763:26769   */\n      dup3\n        /* \"#utility.yul\":26759:26776   */\n      mul\n        /* \"#utility.yul\":26751:26776   */\n      swap1\n      pop\n        /* \"#utility.yul\":26831:26835   */\n      0x20\n        /* \"#utility.yul\":26825:26829   */\n      dup2\n        /* \"#utility.yul\":26821:26836   */\n      add\n        /* \"#utility.yul\":26813:26836   */\n      swap1\n      pop\n        /* \"#utility.yul\":26614:26843   */\n      swap2\n      swap1\n      pop\n      jump\t// out\n        /* \"#utility.yul\":26849:27160   */\n    tag_404:\n      0x00\n        /* \"#utility.yul\":27016:27034   */\n      0xffffffffffffffff\n        /* \"#utility.yul\":27008:27014   */\n      dup3\n        /* \"#utility.yul\":27005:27035   */\n      gt\n        /* \"#utility.yul\":27002:27004   */\n      iszero\n      tag_718\n      jumpi\n        /* \"#utility.yul\":27038:27056   */\n      tag_719\n      tag_716\n      jump\t// in\n    tag_719:\n        /* \"#utility.yul\":27002:27004   */\n    tag_718:\n        /* \"#utility.yul\":27088:27092   */\n      0x20\n        /* \"#utility.yul\":27080:27086   */\n      dup3\n        /* \"#utility.yul\":27076:27093   */\n      mul\n        /* \"#utility.yul\":27068:27093   */\n      swap1\n      pop\n        /* \"#utility.yul\":27148:27152   */\n      0x20\n        /* \"#utility.yul\":27142:27146   */\n      dup2\n        /* \"#utility.yul\":27138:27153   */\n      add\n        /* \"#utility.yul\":27130:27153   */\n      swap1\n      pop\n        /* \"#utility.yul\":26931:27160   */\n      swap2\n      swap1\n      pop\n      jump\t// out\n        /* \"#utility.yul\":27166:27474   */\n    tag_415:\n      0x00\n        /* \"#utility.yul\":27318:27336   */\n      0xffffffffffffffff\n        /* \"#utility.yul\":27310:27316   */\n      dup3\n        /* \"#utility.yul\":27307:27337   */\n      gt\n        /* \"#utility.yul\":27304:27306   */\n      iszero\n      tag_721\n      jumpi\n        /* \"#utility.yul\":27340:27358   */\n      tag_722\n      tag_716\n      jump\t// in\n    tag_722:\n        /* \"#utility.yul\":27304:27306   */\n    tag_721:\n        /* \"#utility.yul\":27378:27407   */\n      tag_723\n        /* \"#utility.yul\":27400:27406   */\n      dup3\n        /* \"#utility.yul\":27378:27407   */\n      tag_557\n      jump\t// in\n    tag_723:\n        /* \"#utility.yul\":27370:27407   */\n      swap1\n      pop\n        /* \"#utility.yul\":27462:27466   */\n      0x20\n        /* \"#utility.yul\":27456:27460   */\n      dup2\n        /* \"#utility.yul\":27452:27467   */\n      add\n        /* \"#utility.yul\":27444:27467   */\n      swap1\n      pop\n        /* \"#utility.yul\":27233:27474   */\n      swap2\n      swap1\n      pop\n      jump\t// out\n        /* \"#utility.yul\":27480:27622   */\n    tag_508:\n      0x00\n        /* \"#utility.yul\":27580:27583   */\n      dup2\n        /* \"#utility.yul\":27572:27583   */\n      swap1\n      pop\n        /* \"#utility.yul\":27610:27614   */\n      0x20\n        /* \"#utility.yul\":27605:27608   */\n      dup3\n        /* \"#utility.yul\":27601:27615   */\n      add\n        /* \"#utility.yul\":27593:27615   */\n      swap1\n      pop\n        /* \"#utility.yul\":27562:27622   */\n      swap2\n      swap1\n      pop\n      jump\t// out\n        /* \"#utility.yul\":27628:27760   */\n    tag_522:\n      0x00\n        /* \"#utility.yul\":27718:27721   */\n      dup2\n        /* \"#utility.yul\":27710:27721   */\n      swap1\n      pop\n        /* \"#utility.yul\":27748:27752   */\n      0x20\n        /* \"#utility.yul\":27743:27746   */\n      dup3\n        /* \"#utility.yul\":27739:27753   */\n      add\n        /* \"#utility.yul\":27731:27753   */\n      swap1\n      pop\n        /* \"#utility.yul\":27700:27760   */\n      swap2\n      swap1\n      pop\n      jump\t// out\n        /* \"#utility.yul\":27766:27890   */\n    tag_504:\n      0x00\n        /* \"#utility.yul\":27877:27882   */\n      dup2\n        /* \"#utility.yul\":27871:27883   */\n      mload\n        /* \"#utility.yul\":27861:27883   */\n      swap1\n      pop\n        /* \"#utility.yul\":27850:27890   */\n      swap2\n      swap1\n      pop\n      jump\t// out\n        /* \"#utility.yul\":27896:28010   */\n    tag_518:\n      0x00\n        /* \"#utility.yul\":27997:28002   */\n      dup2\n        /* \"#utility.yul\":27991:28003   */\n      mload\n        /* \"#utility.yul\":27981:28003   */\n      swap1\n      pop\n        /* \"#utility.yul\":27970:28010   */\n      swap2\n      swap1\n      pop\n      jump\t// out\n        /* \"#utility.yul\":28016:28115   */\n    tag_551:\n      0x00\n        /* \"#utility.yul\":28102:28107   */\n      dup2\n        /* \"#utility.yul\":28096:28108   */\n      mload\n        /* \"#utility.yul\":28086:28108   */\n      swap1\n      pop\n        /* \"#utility.yul\":28075:28115   */\n      swap2\n      swap1\n      pop\n      jump\t// out\n        /* \"#utility.yul\":28121:28244   */\n    tag_514:\n      0x00\n        /* \"#utility.yul\":28233:28237   */\n      0x20\n        /* \"#utility.yul\":28228:28231   */\n      dup3\n        /* \"#utility.yul\":28224:28238   */\n      add\n        /* \"#utility.yul\":28216:28238   */\n      swap1\n      pop\n        /* \"#utility.yul\":28206:28244   */\n      swap2\n      swap1\n      pop\n      jump\t// out\n        /* \"#utility.yul\":28250:28363   */\n    tag_528:\n      0x00\n        /* \"#utility.yul\":28352:28356   */\n      0x20\n        /* \"#utility.yul\":28347:28350   */\n      dup3\n        /* \"#utility.yul\":28343:28357   */\n      add\n        /* \"#utility.yul\":28335:28357   */\n      swap1\n      pop\n        /* \"#utility.yul\":28325:28363   */\n      swap2\n      swap1\n      pop\n      jump\t// out\n        /* \"#utility.yul\":28369:28563   */\n    tag_506:\n      0x00\n        /* \"#utility.yul\":28512:28518   */\n      dup3\n        /* \"#utility.yul\":28507:28510   */\n      dup3\n        /* \"#utility.yul\":28500:28519   */\n      mstore\n        /* \"#utility.yul\":28552:28556   */\n      0x20\n        /* \"#utility.yul\":28547:28550   */\n      dup3\n        /* \"#utility.yul\":28543:28557   */\n      add\n        /* \"#utility.yul\":28528:28557   */\n      swap1\n      pop\n        /* \"#utility.yul\":28490:28563   */\n      swap3\n      swap2\n      pop\n      pop\n      jump\t// out\n        /* \"#utility.yul\":28569:28753   */\n    tag_520:\n      0x00\n        /* \"#utility.yul\":28702:28708   */\n      dup3\n        /* \"#utility.yul\":28697:28700   */\n      dup3\n        /* \"#utility.yul\":28690:28709   */\n      mstore\n        /* \"#utility.yul\":28742:28746   */\n      0x20\n        /* \"#utility.yul\":28737:28740   */\n      dup3\n        /* \"#utility.yul\":28733:28747   */\n      add\n        /* \"#utility.yul\":28718:28747   */\n      swap1\n      pop\n        /* \"#utility.yul\":28680:28753   */\n      swap3\n      swap2\n      pop\n      pop\n      jump\t// out\n        /* \"#utility.yul\":28759:28918   */\n    tag_553:\n      0x00\n        /* \"#utility.yul\":28867:28873   */\n      dup3\n        /* \"#utility.yul\":28862:28865   */\n      dup3\n        /* \"#utility.yul\":28855:28874   */\n      mstore\n        /* \"#utility.yul\":28907:28911   */\n      0x20\n        /* \"#utility.yul\":28902:28905   */\n      dup3\n        /* \"#utility.yul\":28898:28912   */\n      add\n        /* \"#utility.yul\":28883:28912   */\n      swap1\n      pop\n        /* \"#utility.yul\":28845:28918   */\n      swap3\n      swap2\n      pop\n      pop\n      jump\t// out\n        /* \"#utility.yul\":28924:29093   */\n    tag_562:\n      0x00\n        /* \"#utility.yul\":29042:29048   */\n      dup3\n        /* \"#utility.yul\":29037:29040   */\n      dup3\n        /* \"#utility.yul\":29030:29049   */\n      mstore\n        /* \"#utility.yul\":29082:29086   */\n      0x20\n        /* \"#utility.yul\":29077:29080   */\n      dup3\n        /* \"#utility.yul\":29073:29087   */\n      add\n        /* \"#utility.yul\":29058:29087   */\n      swap1\n      pop\n        /* \"#utility.yul\":29020:29093   */\n      swap3\n      swap2\n      pop\n      pop\n      jump\t// out\n        /* \"#utility.yul\":29099:29247   */\n    tag_569:\n      0x00\n        /* \"#utility.yul\":29238:29241   */\n      dup2\n        /* \"#utility.yul\":29223:29241   */\n      swap1\n      pop\n        /* \"#utility.yul\":29213:29247   */\n      swap3\n      swap2\n      pop\n      pop\n      jump\t// out\n        /* \"#utility.yul\":29253:29558   */\n    tag_372:\n      0x00\n        /* \"#utility.yul\":29312:29332   */\n      tag_737\n        /* \"#utility.yul\":29330:29331   */\n      dup3\n        /* \"#utility.yul\":29312:29332   */\n      tag_643\n      jump\t// in\n    tag_737:\n        /* \"#utility.yul\":29307:29332   */\n      swap2\n      pop\n        /* \"#utility.yul\":29346:29366   */\n      tag_738\n        /* \"#utility.yul\":29364:29365   */\n      dup4\n        /* \"#utility.yul\":29346:29366   */\n      tag_643\n      jump\t// in\n    tag_738:\n        /* \"#utility.yul\":29341:29366   */\n      swap3\n      pop\n        /* \"#utility.yul\":29500:29501   */\n      dup3\n        /* \"#utility.yul\":29432:29498   */\n      0xffffffffffffffffffffffffffffffffffffffffffffffffffffffffffffffff\n        /* \"#utility.yul\":29428:29502   */\n      sub\n        /* \"#utility.yul\":29425:29426   */\n      dup3\n        /* \"#utility.yul\":29422:29503   */\n      gt\n        /* \"#utility.yul\":29419:29421   */\n      iszero\n      tag_739\n      jumpi\n        /* \"#utility.yul\":29506:29524   */\n      tag_740\n      tag_741\n      jump\t// in\n    tag_740:\n        /* \"#utility.yul\":29419:29421   */\n    tag_739:\n        /* \"#utility.yul\":29550:29551   */\n      dup3\n        /* \"#utility.yul\":29547:29548   */\n      dup3\n        /* \"#utility.yul\":29543:29552   */\n      add\n        /* \"#utility.yul\":29536:29552   */\n      swap1\n      pop\n        /* \"#utility.yul\":29297:29558   */\n      swap3\n      swap2\n      pop\n      pop\n      jump\t// out\n        /* \"#utility.yul\":29564:29749   */\n    tag_266:\n      0x00\n        /* \"#utility.yul\":29621:29641   */\n      tag_743\n        /* \"#utility.yul\":29639:29640   */\n      dup3\n        /* \"#utility.yul\":29621:29641   */\n      tag_643\n      jump\t// in\n    tag_743:\n        /* \"#utility.yul\":29616:29641   */\n      swap2\n      pop\n        /* \"#utility.yul\":29655:29675   */\n      tag_744\n        /* \"#utility.yul\":29673:29674   */\n      dup4\n        /* \"#utility.yul\":29655:29675   */\n      tag_643\n      jump\t// in\n    tag_744:\n        /* \"#utility.yul\":29650:29675   */\n      swap3\n      pop\n        /* \"#utility.yul\":29694:29695   */\n      dup3\n        /* \"#utility.yul\":29684:29686   */\n      tag_745\n      jumpi\n        /* \"#utility.yul\":29699:29717   */\n      tag_746\n      tag_747\n      jump\t// in\n    tag_746:\n        /* \"#utility.yul\":29684:29686   */\n    tag_745:\n        /* \"#utility.yul\":29741:29742   */\n      dup3\n        /* \"#utility.yul\":29738:29739   */\n      dup3\n        /* \"#utility.yul\":29734:29743   */\n      div\n        /* \"#utility.yul\":29729:29743   */\n      swap1\n      pop\n        /* \"#utility.yul\":29606:29749   */\n      swap3\n      swap2\n      pop\n      pop\n      jump\t// out\n        /* \"#utility.yul\":29755:30103   */\n    tag_268:\n      0x00\n        /* \"#utility.yul\":29818:29838   */\n      tag_749\n        /* \"#utility.yul\":29836:29837   */\n      dup3\n        /* \"#utility.yul\":29818:29838   */\n      tag_643\n      jump\t// in\n    tag_749:\n        /* \"#utility.yul\":29813:29838   */\n      swap2\n      pop\n        /* \"#utility.yul\":29852:29872   */\n      tag_750\n        /* \"#utility.yul\":29870:29871   */\n      dup4\n        /* \"#utility.yul\":29852:29872   */\n      tag_643\n      jump\t// in\n    tag_750:\n        /* \"#utility.yul\":29847:29872   */\n      swap3\n      pop\n        /* \"#utility.yul\":30040:30041   */\n      dup2\n        /* \"#utility.yul\":29972:30038   */\n      0xffffffffffffffffffffffffffffffffffffffffffffffffffffffffffffffff\n        /* \"#utility.yul\":29968:30042   */\n      div\n        /* \"#utility.yul\":29965:29966   */\n      dup4\n        /* \"#utility.yul\":29962:30043   */\n      gt\n        /* \"#utility.yul\":29957:29958   */\n      dup3\n        /* \"#utility.yul\":29950:29959   */\n      iszero\n        /* \"#utility.yul\":29943:29960   */\n      iszero\n        /* \"#utility.yul\":29939:30044   */\n      and\n        /* \"#utility.yul\":29936:29938   */\n      iszero\n      tag_751\n      jumpi\n        /* \"#utility.yul\":30047:30065   */\n      tag_752\n      tag_741\n      jump\t// in\n    tag_752:\n        /* \"#utility.yul\":29936:29938   */\n    tag_751:\n        /* \"#utility.yul\":30095:30096   */\n      dup3\n        /* \"#utility.yul\":30092:30093   */\n      dup3\n        /* \"#utility.yul\":30088:30097   */\n      mul\n        /* \"#utility.yul\":30077:30097   */\n      swap1\n      pop\n        /* \"#utility.yul\":29803:30103   */\n      swap3\n      swap2\n      pop\n      pop\n      jump\t// out\n        /* \"#utility.yul\":30109:30300   */\n    tag_163:\n      0x00\n        /* \"#utility.yul\":30169:30189   */\n      tag_754\n        /* \"#utility.yul\":30187:30188   */\n      dup3\n        /* \"#utility.yul\":30169:30189   */\n      tag_643\n      jump\t// in\n    tag_754:\n        /* \"#utility.yul\":30164:30189   */\n      swap2\n      pop\n        /* \"#utility.yul\":30203:30223   */\n      tag_755\n        /* \"#utility.yul\":30221:30222   */\n      dup4\n        /* \"#utility.yul\":30203:30223   */\n      tag_643\n      jump\t// in\n    tag_755:\n        /* \"#utility.yul\":30198:30223   */\n      swap3\n      pop\n        /* \"#utility.yul\":30242:30243   */\n      dup3\n        /* \"#utility.yul\":30239:30240   */\n      dup3\n        /* \"#utility.yul\":30236:30244   */\n      lt\n        /* \"#utility.yul\":30233:30235   */\n      iszero\n      tag_756\n      jumpi\n        /* \"#utility.yul\":30247:30265   */\n      tag_757\n      tag_741\n      jump\t// in\n    tag_757:\n        /* \"#utility.yul\":30233:30235   */\n    tag_756:\n        /* \"#utility.yul\":30292:30293   */\n      dup3\n        /* \"#utility.yul\":30289:30290   */\n      dup3\n        /* \"#utility.yul\":30285:30294   */\n      sub\n        /* \"#utility.yul\":30277:30294   */\n      swap1\n      pop\n        /* \"#utility.yul\":30154:30300   */\n      swap3\n      swap2\n      pop\n      pop\n      jump\t// out\n        /* \"#utility.yul\":30306:30402   */\n    tag_495:\n      0x00\n        /* \"#utility.yul\":30372:30396   */\n      tag_759\n        /* \"#utility.yul\":30390:30395   */\n      dup3\n        /* \"#utility.yul\":30372:30396   */\n      tag_760\n      jump\t// in\n    tag_759:\n        /* \"#utility.yul\":30361:30396   */\n      swap1\n      pop\n        /* \"#utility.yul\":30351:30402   */\n      swap2\n      swap1\n      pop\n      jump\t// out\n        /* \"#utility.yul\":30408:30498   */\n    tag_532:\n      0x00\n        /* \"#utility.yul\":30485:30490   */\n      dup2\n        /* \"#utility.yul\":30478:30491   */\n      iszero\n        /* \"#utility.yul\":30471:30492   */\n      iszero\n        /* \"#utility.yul\":30460:30492   */\n      swap1\n      pop\n        /* \"#utility.yul\":30450:30498   */\n      swap2\n      swap1\n      pop\n      jump\t// out\n        /* \"#utility.yul\":30504:30581   */\n    tag_536:\n      0x00\n        /* \"#utility.yul\":30570:30575   */\n      dup2\n        /* \"#utility.yul\":30559:30575   */\n      swap1\n      pop\n        /* \"#utility.yul\":30549:30581   */\n      swap2\n      swap1\n      pop\n      jump\t// out\n        /* \"#utility.yul\":30587:30736   */\n    tag_763:\n      0x00\n        /* \"#utility.yul\":30663:30729   */\n      0xffffffff00000000000000000000000000000000000000000000000000000000\n        /* \"#utility.yul\":30656:30661   */\n      dup3\n        /* \"#utility.yul\":30652:30730   */\n      and\n        /* \"#utility.yul\":30641:30730   */\n      swap1\n      pop\n        /* \"#utility.yul\":30631:30736   */\n      swap2\n      swap1\n      pop\n      jump\t// out\n        /* \"#utility.yul\":30742:30868   */\n    tag_760:\n      0x00\n        /* \"#utility.yul\":30819:30861   */\n      0xffffffffffffffffffffffffffffffffffffffff\n        /* \"#utility.yul\":30812:30817   */\n      dup3\n        /* \"#utility.yul\":30808:30862   */\n      and\n        /* \"#utility.yul\":30797:30862   */\n      swap1\n      pop\n        /* \"#utility.yul\":30787:30868   */\n      swap2\n      swap1\n      pop\n      jump\t// out\n        /* \"#utility.yul\":30874:30951   */\n    tag_643:\n      0x00\n        /* \"#utility.yul\":30940:30945   */\n      dup2\n        /* \"#utility.yul\":30929:30945   */\n      swap1\n      pop\n        /* \"#utility.yul\":30919:30951   */\n      swap2\n      swap1\n      pop\n      jump\t// out\n        /* \"#utility.yul\":30957:31123   */\n    tag_540:\n      0x00\n        /* \"#utility.yul\":31060:31117   */\n      tag_768\n        /* \"#utility.yul\":31111:31116   */\n      dup3\n        /* \"#utility.yul\":31060:31117   */\n      tag_769\n      jump\t// in\n    tag_768:\n        /* \"#utility.yul\":31047:31117   */\n      swap1\n      pop\n        /* \"#utility.yul\":31037:31123   */\n      swap2\n      swap1\n      pop\n      jump\t// out\n        /* \"#utility.yul\":31129:31262   */\n    tag_769:\n      0x00\n        /* \"#utility.yul\":31232:31256   */\n      tag_771\n        /* \"#utility.yul\":31250:31255   */\n      dup3\n        /* \"#utility.yul\":31232:31256   */\n      tag_760\n      jump\t// in\n    tag_771:\n        /* \"#utility.yul\":31219:31256   */\n      swap1\n      pop\n        /* \"#utility.yul\":31209:31262   */\n      swap2\n      swap1\n      pop\n      jump\t// out\n        /* \"#utility.yul\":31268:31454   */\n    tag_544:\n      0x00\n        /* \"#utility.yul\":31381:31448   */\n      tag_773\n        /* \"#utility.yul\":31442:31447   */\n      dup3\n        /* \"#utility.yul\":31381:31448   */\n      tag_774\n      jump\t// in\n    tag_773:\n        /* \"#utility.yul\":31368:31448   */\n      swap1\n      pop\n        /* \"#utility.yul\":31358:31454   */\n      swap2\n      swap1\n      pop\n      jump\t// out\n        /* \"#utility.yul\":31460:31603   */\n    tag_774:\n      0x00\n        /* \"#utility.yul\":31573:31597   */\n      tag_776\n        /* \"#utility.yul\":31591:31596   */\n      dup3\n        /* \"#utility.yul\":31573:31597   */\n      tag_760\n      jump\t// in\n    tag_776:\n        /* \"#utility.yul\":31560:31597   */\n      swap1\n      pop\n        /* \"#utility.yul\":31550:31603   */\n      swap2\n      swap1\n      pop\n      jump\t// out\n        /* \"#utility.yul\":31609:31775   */\n    tag_548:\n      0x00\n        /* \"#utility.yul\":31712:31769   */\n      tag_778\n        /* \"#utility.yul\":31763:31768   */\n      dup3\n        /* \"#utility.yul\":31712:31769   */\n      tag_779\n      jump\t// in\n    tag_778:\n        /* \"#utility.yul\":31699:31769   */\n      swap1\n      pop\n        /* \"#utility.yul\":31689:31775   */\n      swap2\n      swap1\n      pop\n      jump\t// out\n        /* \"#utility.yul\":31781:31914   */\n    tag_779:\n      0x00\n        /* \"#utility.yul\":31884:31908   */\n      tag_781\n        /* \"#utility.yul\":31902:31907   */\n      dup3\n        /* \"#utility.yul\":31884:31908   */\n      tag_760\n      jump\t// in\n    tag_781:\n        /* \"#utility.yul\":31871:31908   */\n      swap1\n      pop\n        /* \"#utility.yul\":31861:31914   */\n      swap2\n      swap1\n      pop\n      jump\t// out\n        /* \"#utility.yul\":31920:32074   */\n    tag_418:\n        /* \"#utility.yul\":32004:32010   */\n      dup3\n        /* \"#utility.yul\":31999:32002   */\n      dup2\n        /* \"#utility.yul\":31994:31997   */\n      dup4\n        /* \"#utility.yul\":31981:32011   */\n      calldatacopy\n        /* \"#utility.yul\":32066:32067   */\n      0x00\n        /* \"#utility.yul\":32057:32063   */\n      dup4\n        /* \"#utility.yul\":32052:32055   */\n      dup4\n        /* \"#utility.yul\":32048:32064   */\n      add\n        /* \"#utility.yul\":32041:32068   */\n      mstore\n        /* \"#utility.yul\":31971:32074   */\n      pop\n      pop\n      pop\n      jump\t// out\n        /* \"#utility.yul\":32080:32387   */\n    tag_555:\n        /* \"#utility.yul\":32148:32149   */\n      0x00\n        /* \"#utility.yul\":32158:32271   */\n    tag_784:\n        /* \"#utility.yul\":32172:32178   */\n      dup4\n        /* \"#utility.yul\":32169:32170   */\n      dup2\n        /* \"#utility.yul\":32166:32179   */\n      lt\n        /* \"#utility.yul\":32158:32271   */\n      iszero\n      tag_786\n      jumpi\n        /* \"#utility.yul\":32257:32258   */\n      dup1\n        /* \"#utility.yul\":32252:32255   */\n      dup3\n        /* \"#utility.yul\":32248:32259   */\n      add\n        /* \"#utility.yul\":32242:32260   */\n      mload\n        /* \"#utility.yul\":32238:32239   */\n      dup2\n        /* \"#utility.yul\":32233:32236   */\n      dup5\n        /* \"#utility.yul\":32229:32240   */\n      add\n        /* \"#utility.yul\":32222:32261   */\n      mstore\n        /* \"#utility.yul\":32194:32196   */\n      0x20\n        /* \"#utility.yul\":32191:32192   */\n      dup2\n        /* \"#utility.yul\":32187:32197   */\n      add\n        /* \"#utility.yul\":32182:32197   */\n      swap1\n      pop\n        /* \"#utility.yul\":32158:32271   */\n      jump(tag_784)\n    tag_786:\n        /* \"#utility.yul\":32289:32295   */\n      dup4\n        /* \"#utility.yul\":32286:32287   */\n      dup2\n        /* \"#utility.yul\":32283:32296   */\n      gt\n        /* \"#utility.yul\":32280:32282   */\n      iszero\n      tag_787\n      jumpi\n        /* \"#utility.yul\":32369:32370   */\n      0x00\n        /* \"#utility.yul\":32360:32366   */\n      dup5\n        /* \"#utility.yul\":32355:32358   */\n      dup5\n        /* \"#utility.yul\":32351:32367   */\n      add\n        /* \"#utility.yul\":32344:32371   */\n      mstore\n        /* \"#utility.yul\":32280:32282   */\n    tag_787:\n        /* \"#utility.yul\":32129:32387   */\n      pop\n      pop\n      pop\n      pop\n      jump\t// out\n        /* \"#utility.yul\":32393:32564   */\n    tag_226:\n      0x00\n        /* \"#utility.yul\":32455:32479   */\n      tag_789\n        /* \"#utility.yul\":32473:32478   */\n      dup3\n        /* \"#utility.yul\":32455:32479   */\n      tag_643\n      jump\t// in\n    tag_789:\n        /* \"#utility.yul\":32446:32479   */\n      swap2\n      pop\n        /* \"#utility.yul\":32501:32505   */\n      0x00\n        /* \"#utility.yul\":32494:32499   */\n      dup3\n        /* \"#utility.yul\":32491:32506   */\n      eq\n        /* \"#utility.yul\":32488:32490   */\n      iszero\n      tag_790\n      jumpi\n        /* \"#utility.yul\":32509:32527   */\n      tag_791\n      tag_741\n      jump\t// in\n    tag_791:\n        /* \"#utility.yul\":32488:32490   */\n    tag_790:\n        /* \"#utility.yul\":32556:32557   */\n      0x01\n        /* \"#utility.yul\":32549:32554   */\n      dup3\n        /* \"#utility.yul\":32545:32558   */\n      sub\n        /* \"#utility.yul\":32538:32558   */\n      swap1\n      pop\n        /* \"#utility.yul\":32436:32564   */\n      swap2\n      swap1\n      pop\n      jump\t// out\n        /* \"#utility.yul\":32570:32851   */\n    tag_711:\n        /* \"#utility.yul\":32653:32680   */\n      tag_793\n        /* \"#utility.yul\":32675:32679   */\n      dup3\n        /* \"#utility.yul\":32653:32680   */\n      tag_557\n      jump\t// in\n    tag_793:\n        /* \"#utility.yul\":32645:32651   */\n      dup2\n        /* \"#utility.yul\":32641:32681   */\n      add\n        /* \"#utility.yul\":32783:32789   */\n      dup2\n        /* \"#utility.yul\":32771:32781   */\n      dup2\n        /* \"#utility.yul\":32768:32790   */\n      lt\n        /* \"#utility.yul\":32747:32765   */\n      0xffffffffffffffff\n        /* \"#utility.yul\":32735:32745   */\n      dup3\n        /* \"#utility.yul\":32732:32766   */\n      gt\n        /* \"#utility.yul\":32729:32791   */\n      or\n        /* \"#utility.yul\":32726:32728   */\n      iszero\n      tag_794\n      jumpi\n        /* \"#utility.yul\":32794:32812   */\n      tag_795\n      tag_716\n      jump\t// in\n    tag_795:\n        /* \"#utility.yul\":32726:32728   */\n    tag_794:\n        /* \"#utility.yul\":32834:32844   */\n      dup1\n        /* \"#utility.yul\":32830:32832   */\n      0x40\n        /* \"#utility.yul\":32823:32845   */\n      mstore\n        /* \"#utility.yul\":32613:32851   */\n      pop\n      pop\n      pop\n      jump\t// out\n        /* \"#utility.yul\":32857:32957   */\n    tag_500:\n      0x00\n        /* \"#utility.yul\":32925:32951   */\n      tag_797\n        /* \"#utility.yul\":32945:32950   */\n      dup3\n        /* \"#utility.yul\":32925:32951   */\n      tag_798\n      jump\t// in\n    tag_797:\n        /* \"#utility.yul\":32914:32951   */\n      swap1\n      pop\n        /* \"#utility.yul\":32904:32957   */\n      swap2\n      swap1\n      pop\n      jump\t// out\n        /* \"#utility.yul\":32963:33057   */\n    tag_798:\n      0x00\n        /* \"#utility.yul\":33031:33051   */\n      tag_800\n        /* \"#utility.yul\":33045:33050   */\n      dup3\n        /* \"#utility.yul\":33031:33051   */\n      tag_801\n      jump\t// in\n    tag_800:\n        /* \"#utility.yul\":33020:33051   */\n      swap1\n      pop\n        /* \"#utility.yul\":33010:33057   */\n      swap2\n      swap1\n      pop\n      jump\t// out\n        /* \"#utility.yul\":33063:33142   */\n    tag_651:\n      0x00\n        /* \"#utility.yul\":33131:33136   */\n      dup2\n        /* \"#utility.yul\":33120:33136   */\n      swap1\n      pop\n        /* \"#utility.yul\":33110:33142   */\n      swap2\n      swap1\n      pop\n      jump\t// out\n        /* \"#utility.yul\":33148:33328   */\n    tag_741:\n        /* \"#utility.yul\":33196:33273   */\n      0x4e487b7100000000000000000000000000000000000000000000000000000000\n        /* \"#utility.yul\":33193:33194   */\n      0x00\n        /* \"#utility.yul\":33186:33274   */\n      mstore\n        /* \"#utility.yul\":33293:33297   */\n      0x11\n        /* \"#utility.yul\":33290:33291   */\n      0x04\n        /* \"#utility.yul\":33283:33298   */\n      mstore\n        /* \"#utility.yul\":33317:33321   */\n      0x24\n        /* \"#utility.yul\":33314:33315   */\n      0x00\n        /* \"#utility.yul\":33307:33322   */\n      revert\n        /* \"#utility.yul\":33334:33514   */\n    tag_747:\n        /* \"#utility.yul\":33382:33459   */\n      0x4e487b7100000000000000000000000000000000000000000000000000000000\n        /* \"#utility.yul\":33379:33380   */\n      0x00\n        /* \"#utility.yul\":33372:33460   */\n      mstore\n        /* \"#utility.yul\":33479:33483   */\n      0x12\n        /* \"#utility.yul\":33476:33477   */\n      0x04\n        /* \"#utility.yul\":33469:33484   */\n      mstore\n        /* \"#utility.yul\":33503:33507   */\n      0x24\n        /* \"#utility.yul\":33500:33501   */\n      0x00\n        /* \"#utility.yul\":33493:33508   */\n      revert\n        /* \"#utility.yul\":33520:33700   */\n    tag_716:\n        /* \"#utility.yul\":33568:33645   */\n      0x4e487b7100000000000000000000000000000000000000000000000000000000\n        /* \"#utility.yul\":33565:33566   */\n      0x00\n        /* \"#utility.yul\":33558:33646   */\n      mstore\n        /* \"#utility.yul\":33665:33669   */\n      0x41\n        /* \"#utility.yul\":33662:33663   */\n      0x04\n        /* \"#utility.yul\":33655:33670   */\n      mstore\n        /* \"#utility.yul\":33689:33693   */\n      0x24\n        /* \"#utility.yul\":33686:33687   */\n      0x00\n        /* \"#utility.yul\":33679:33694   */\n      revert\n        /* \"#utility.yul\":33706:33808   */\n    tag_557:\n      0x00\n        /* \"#utility.yul\":33798:33800   */\n      0x1f\n        /* \"#utility.yul\":33794:33801   */\n      not\n        /* \"#utility.yul\":33789:33791   */\n      0x1f\n        /* \"#utility.yul\":33782:33787   */\n      dup4\n        /* \"#utility.yul\":33778:33792   */\n      add\n        /* \"#utility.yul\":33774:33802   */\n      and\n        /* \"#utility.yul\":33764:33802   */\n      swap1\n      pop\n        /* \"#utility.yul\":33754:33808   */\n      swap2\n      swap1\n      pop\n      jump\t// out\n        /* \"#utility.yul\":33814:33908   */\n    tag_801:\n      0x00\n        /* \"#utility.yul\":33895:33900   */\n      dup2\n        /* \"#utility.yul\":33891:33893   */\n      0x60\n        /* \"#utility.yul\":33887:33901   */\n      shl\n        /* \"#utility.yul\":33866:33901   */\n      swap1\n      pop\n        /* \"#utility.yul\":33856:33908   */\n      swap2\n      swap1\n      pop\n      jump\t// out\n        /* \"#utility.yul\":33914:34096   */\n    tag_575:\n        /* \"#utility.yul\":34054:34088   */\n      0x537472696e67733a20686578206c656e67746820696e73756666696369656e74\n        /* \"#utility.yul\":34050:34051   */\n      0x00\n        /* \"#utility.yul\":34042:34048   */\n      dup3\n        /* \"#utility.yul\":34038:34052   */\n      add\n        /* \"#utility.yul\":34031:34089   */\n      mstore\n        /* \"#utility.yul\":34020:34096   */\n      pop\n      jump\t// out\n        /* \"#utility.yul\":34102:34260   */\n    tag_580:\n        /* \"#utility.yul\":34242:34252   */\n      0x4164647265737320000000000000000000000000000000000000000000000000\n        /* \"#utility.yul\":34238:34239   */\n      0x00\n        /* \"#utility.yul\":34230:34236   */\n      dup3\n        /* \"#utility.yul\":34226:34240   */\n      add\n        /* \"#utility.yul\":34219:34253   */\n      mstore\n        /* \"#utility.yul\":34208:34260   */\n      pop\n      jump\t// out\n        /* \"#utility.yul\":34266:34507   */\n    tag_585:\n        /* \"#utility.yul\":34406:34440   */\n      0x43616e6e6f74206d696e7420746f207472656173757279206164647265737320\n        /* \"#utility.yul\":34402:34403   */\n      0x00\n        /* \"#utility.yul\":34394:34400   */\n      dup3\n        /* \"#utility.yul\":34390:34404   */\n      add\n        /* \"#utility.yul\":34383:34441   */\n      mstore\n        /* \"#utility.yul\":34475:34499   */\n      0x756e74696c2073616c652069732066696e697368656400000000000000000000\n        /* \"#utility.yul\":34470:34472   */\n      0x20\n        /* \"#utility.yul\":34462:34468   */\n      dup3\n        /* \"#utility.yul\":34458:34473   */\n      add\n        /* \"#utility.yul\":34451:34500   */\n      mstore\n        /* \"#utility.yul\":34372:34507   */\n      pop\n      jump\t// out\n        /* \"#utility.yul\":34513:34690   */\n    tag_590:\n        /* \"#utility.yul\":34653:34682   */\n      0x74696d657374616d70206973206e6f742075702d746f2d646174650000000000\n        /* \"#utility.yul\":34649:34650   */\n      0x00\n        /* \"#utility.yul\":34641:34647   */\n      dup3\n        /* \"#utility.yul\":34637:34651   */\n      add\n        /* \"#utility.yul\":34630:34683   */\n      mstore\n        /* \"#utility.yul\":34619:34690   */\n      pop\n      jump\t// out\n        /* \"#utility.yul\":34696:34918   */\n    tag_595:\n        /* \"#utility.yul\":34836:34870   */\n      0x53656e646572206973206e6f742053616c65204d616e61676572206f72204164\n        /* \"#utility.yul\":34832:34833   */\n      0x00\n        /* \"#utility.yul\":34824:34830   */\n      dup3\n        /* \"#utility.yul\":34820:34834   */\n      add\n        /* \"#utility.yul\":34813:34871   */\n      mstore\n        /* \"#utility.yul\":34905:34910   */\n      0x6d696e0000000000000000000000000000000000000000000000000000000000\n        /* \"#utility.yul\":34900:34902   */\n      0x20\n        /* \"#utility.yul\":34892:34898   */\n      dup3\n        /* \"#utility.yul\":34888:34903   */\n      add\n        /* \"#utility.yul\":34881:34911   */\n      mstore\n        /* \"#utility.yul\":34802:34918   */\n      pop\n      jump\t// out\n        /* \"#utility.yul\":34924:35145   */\n    tag_600:\n        /* \"#utility.yul\":35064:35098   */\n      0x53656e646572206973206e6f7420555249204d616e61676572206f722041646d\n        /* \"#utility.yul\":35060:35061   */\n      0x00\n        /* \"#utility.yul\":35052:35058   */\n      dup3\n        /* \"#utility.yul\":35048:35062   */\n      add\n        /* \"#utility.yul\":35041:35099   */\n      mstore\n        /* \"#utility.yul\":35133:35137   */\n      0x696e000000000000000000000000000000000000000000000000000000000000\n        /* \"#utility.yul\":35128:35130   */\n      0x20\n        /* \"#utility.yul\":35120:35126   */\n      dup3\n        /* \"#utility.yul\":35116:35131   */\n      add\n        /* \"#utility.yul\":35109:35138   */\n      mstore\n        /* \"#utility.yul\":35030:35145   */\n      pop\n      jump\t// out\n        /* \"#utility.yul\":35151:35302   */\n    tag_605:\n        /* \"#utility.yul\":35291:35294   */\n      0x2500000000000000000000000000000000000000000000000000000000000000\n        /* \"#utility.yul\":35287:35288   */\n      0x00\n        /* \"#utility.yul\":35279:35285   */\n      dup3\n        /* \"#utility.yul\":35275:35289   */\n      add\n        /* \"#utility.yul\":35268:35295   */\n      mstore\n        /* \"#utility.yul\":35257:35302   */\n      pop\n      jump\t// out\n        /* \"#utility.yul\":35308:35543   */\n    tag_610:\n        /* \"#utility.yul\":35448:35482   */\n      0x20646f6573206e6f742068617665206120636f75706f6e207769746820612064\n        /* \"#utility.yul\":35444:35445   */\n      0x00\n        /* \"#utility.yul\":35436:35442   */\n      dup3\n        /* \"#utility.yul\":35432:35446   */\n      add\n        /* \"#utility.yul\":35425:35483   */\n      mstore\n        /* \"#utility.yul\":35517:35535   */\n      0x6973636f756e742072617465206f662000000000000000000000000000000000\n        /* \"#utility.yul\":35512:35514   */\n      0x20\n        /* \"#utility.yul\":35504:35510   */\n      dup3\n        /* \"#utility.yul\":35500:35515   */\n      add\n        /* \"#utility.yul\":35493:35536   */\n      mstore\n        /* \"#utility.yul\":35414:35543   */\n      pop\n      jump\t// out\n        /* \"#utility.yul\":35549:35721   */\n    tag_615:\n        /* \"#utility.yul\":35689:35713   */\n      0x4e6f20746f6b656e73206c65667420746f206d696e7400000000000000000000\n        /* \"#utility.yul\":35685:35686   */\n      0x00\n        /* \"#utility.yul\":35677:35683   */\n      dup3\n        /* \"#utility.yul\":35673:35687   */\n      add\n        /* \"#utility.yul\":35666:35714   */\n      mstore\n        /* \"#utility.yul\":35655:35721   */\n      pop\n      jump\t// out\n        /* \"#utility.yul\":35727:35908   */\n    tag_620:\n        /* \"#utility.yul\":35867:35900   */\n      0x737461727454696d65206973206c61746572207468616e20656e6454696d6500\n        /* \"#utility.yul\":35863:35864   */\n      0x00\n        /* \"#utility.yul\":35855:35861   */\n      dup3\n        /* \"#utility.yul\":35851:35865   */\n      add\n        /* \"#utility.yul\":35844:35901   */\n      mstore\n        /* \"#utility.yul\":35833:35908   */\n      pop\n      jump\t// out\n        /* \"#utility.yul\":35914:36140   */\n    tag_625:\n        /* \"#utility.yul\":36054:36088   */\n      0x53656e646572206973206e6f7420506f73742d53616c65204d696e746572206f\n        /* \"#utility.yul\":36050:36051   */\n      0x00\n        /* \"#utility.yul\":36042:36048   */\n      dup3\n        /* \"#utility.yul\":36038:36052   */\n      add\n        /* \"#utility.yul\":36031:36089   */\n      mstore\n        /* \"#utility.yul\":36123:36132   */\n      0x722041646d696e00000000000000000000000000000000000000000000000000\n        /* \"#utility.yul\":36118:36120   */\n      0x20\n        /* \"#utility.yul\":36110:36116   */\n      dup3\n        /* \"#utility.yul\":36106:36121   */\n      add\n        /* \"#utility.yul\":36099:36133   */\n      mstore\n        /* \"#utility.yul\":36020:36140   */\n      pop\n      jump\t// out\n        /* \"#utility.yul\":36146:36319   */\n    tag_630:\n        /* \"#utility.yul\":36286:36311   */\n      0x416363657373436f6e74726f6c3a206163636f756e7420000000000000000000\n        /* \"#utility.yul\":36282:36283   */\n      0x00\n        /* \"#utility.yul\":36274:36280   */\n      dup3\n        /* \"#utility.yul\":36270:36284   */\n      add\n        /* \"#utility.yul\":36263:36312   */\n      mstore\n        /* \"#utility.yul\":36252:36319   */\n      pop\n      jump\t// out\n        /* \"#utility.yul\":36325:36492   */\n    tag_635:\n        /* \"#utility.yul\":36465:36484   */\n      0x206973206d697373696e6720726f6c6520000000000000000000000000000000\n        /* \"#utility.yul\":36461:36462   */\n      0x00\n        /* \"#utility.yul\":36453:36459   */\n      dup3\n        /* \"#utility.yul\":36449:36463   */\n      add\n        /* \"#utility.yul\":36442:36485   */\n      mstore\n        /* \"#utility.yul\":36431:36492   */\n      pop\n      jump\t// out\n        /* \"#utility.yul\":36498:36732   */\n    tag_640:\n        /* \"#utility.yul\":36638:36672   */\n      0x416363657373436f6e74726f6c3a2063616e206f6e6c792072656e6f756e6365\n        /* \"#utility.yul\":36634:36635   */\n      0x00\n        /* \"#utility.yul\":36626:36632   */\n      dup3\n        /* \"#utility.yul\":36622:36636   */\n      add\n        /* \"#utility.yul\":36615:36673   */\n      mstore\n        /* \"#utility.yul\":36707:36724   */\n      0x20726f6c657320666f722073656c660000000000000000000000000000000000\n        /* \"#utility.yul\":36702:36704   */\n      0x20\n        /* \"#utility.yul\":36694:36700   */\n      dup3\n        /* \"#utility.yul\":36690:36705   */\n      add\n        /* \"#utility.yul\":36683:36725   */\n      mstore\n        /* \"#utility.yul\":36604:36732   */\n      pop\n      jump\t// out\n        /* \"#utility.yul\":36738:36860   */\n    tag_422:\n        /* \"#utility.yul\":36811:36835   */\n      tag_823\n        /* \"#utility.yul\":36829:36834   */\n      dup2\n        /* \"#utility.yul\":36811:36835   */\n      tag_495\n      jump\t// in\n    tag_823:\n        /* \"#utility.yul\":36804:36809   */\n      dup2\n        /* \"#utility.yul\":36801:36836   */\n      eq\n        /* \"#utility.yul\":36791:36793   */\n      tag_824\n      jumpi\n        /* \"#utility.yul\":36850:36851   */\n      0x00\n        /* \"#utility.yul\":36847:36848   */\n      dup1\n        /* \"#utility.yul\":36840:36852   */\n      revert\n        /* \"#utility.yul\":36791:36793   */\n    tag_824:\n        /* \"#utility.yul\":36781:36860   */\n      pop\n      jump\t// out\n        /* \"#utility.yul\":36866:36982   */\n    tag_434:\n        /* \"#utility.yul\":36936:36957   */\n      tag_826\n        /* \"#utility.yul\":36951:36956   */\n      dup2\n        /* \"#utility.yul\":36936:36957   */\n      tag_532\n      jump\t// in\n    tag_826:\n        /* \"#utility.yul\":36929:36934   */\n      dup2\n        /* \"#utility.yul\":36926:36958   */\n      eq\n        /* \"#utility.yul\":36916:36918   */\n      tag_827\n      jumpi\n        /* \"#utility.yul\":36972:36973   */\n      0x00\n        /* \"#utility.yul\":36969:36970   */\n      dup1\n        /* \"#utility.yul\":36962:36974   */\n      revert\n        /* \"#utility.yul\":36916:36918   */\n    tag_827:\n        /* \"#utility.yul\":36906:36982   */\n      pop\n      jump\t// out\n        /* \"#utility.yul\":36988:37110   */\n    tag_438:\n        /* \"#utility.yul\":37061:37085   */\n      tag_829\n        /* \"#utility.yul\":37079:37084   */\n      dup2\n        /* \"#utility.yul\":37061:37085   */\n      tag_536\n      jump\t// in\n    tag_829:\n        /* \"#utility.yul\":37054:37059   */\n      dup2\n        /* \"#utility.yul\":37051:37086   */\n      eq\n        /* \"#utility.yul\":37041:37043   */\n      tag_830\n      jumpi\n        /* \"#utility.yul\":37100:37101   */\n      0x00\n        /* \"#utility.yul\":37097:37098   */\n      dup1\n        /* \"#utility.yul\":37090:37102   */\n      revert\n        /* \"#utility.yul\":37041:37043   */\n    tag_830:\n        /* \"#utility.yul\":37031:37110   */\n      pop\n      jump\t// out\n        /* \"#utility.yul\":37116:37236   */\n    tag_442:\n        /* \"#utility.yul\":37188:37211   */\n      tag_832\n        /* \"#utility.yul\":37205:37210   */\n      dup2\n        /* \"#utility.yul\":37188:37211   */\n      tag_763\n      jump\t// in\n    tag_832:\n        /* \"#utility.yul\":37181:37186   */\n      dup2\n        /* \"#utility.yul\":37178:37212   */\n      eq\n        /* \"#utility.yul\":37168:37170   */\n      tag_833\n      jumpi\n        /* \"#utility.yul\":37226:37227   */\n      0x00\n        /* \"#utility.yul\":37223:37224   */\n      dup1\n        /* \"#utility.yul\":37216:37228   */\n      revert\n        /* \"#utility.yul\":37168:37170   */\n    tag_833:\n        /* \"#utility.yul\":37158:37236   */\n      pop\n      jump\t// out\n        /* \"#utility.yul\":37242:37364   */\n    tag_448:\n        /* \"#utility.yul\":37315:37339   */\n      tag_835\n        /* \"#utility.yul\":37333:37338   */\n      dup2\n        /* \"#utility.yul\":37315:37339   */\n      tag_643\n      jump\t// in\n    tag_835:\n        /* \"#utility.yul\":37308:37313   */\n      dup2\n        /* \"#utility.yul\":37305:37340   */\n      eq\n        /* \"#utility.yul\":37295:37297   */\n      tag_836\n      jumpi\n        /* \"#utility.yul\":37354:37355   */\n      0x00\n        /* \"#utility.yul\":37351:37352   */\n      dup1\n        /* \"#utility.yul\":37344:37356   */\n      revert\n        /* \"#utility.yul\":37295:37297   */\n    tag_836:\n        /* \"#utility.yul\":37285:37364   */\n      pop\n      jump\t// out\n\n    auxdata: 0xa264697066735822122040f54c53282c336b6aa5574add269d5f869bf53ad92ac1240524c9c81114fe8464736f6c63430008010033\n}\n",
				"bytecode": {
					"linkReferences": {},
					"object": "60806040526370dc49006005556370dc4964600655620f4240600a620000269190620000aa565b600755620f424060016200003b9190620000aa565b60085560405180606001604052806127108152602001428152602001600015158152506009600082015181600001556020820151816001015560408201518160020160006101000a81548160ff0219169083151502179055505050348015620000a357600080fd5b5062000144565b6000620000b7826200010b565b9150620000c4836200010b565b9250817fffffffffffffffffffffffffffffffffffffffffffffffffffffffffffffffff04831182151516156200010057620000ff62000115565b5b828202905092915050565b6000819050919050565b7f4e487b7100000000000000000000000000000000000000000000000000000000600052601160045260246000fd5b612e6880620001546000396000f3fe608060405234801561001057600080fd5b50600436106101c45760003560e01c80638c83faeb116100f9578063c046371111610097578063ccb98ffc11610071578063ccb98ffc146104c1578063d547741f146104dd578063f121da92146104f9578063f715dfca14610515576101c4565b8063c046371114610465578063c5dae48f14610485578063c5f956af146104a3576101c4565b8063a217fddf116100d3578063a217fddf146103ef578063a77f0c481461040d578063ab6c03061461042b578063bff29cee1461045b576101c4565b80638c83faeb1461038557806391d14854146103a3578063944044a1146103d3576101c4565b80634c9b73da11610166578063551b42a811610140578063551b42a81461030d5780635ce7e7211461032b578063682d07d91461034957806368fc01a214610367576101c4565b80634c9b73da146102b95780634e0ddff9146102d557806351f7598c146102f1576101c4565b80632f2ff15d116101a25780632f2ff15d1461023357806336568abe1461024f578063432c7c5d1461026b5780634c0f38c21461029b576101c4565b806301ffc9a7146101c9578063248a9ca3146101f957806326116d4714610229575b600080fd5b6101e360048036038101906101de9190611e06565b61051f565b6040516101f091906123b5565b60405180910390f35b610213600480360381019061020e9190611da1565b610599565b60405161022091906123d0565b60405180910390f35b6102316105b8565b005b61024d60048036038101906102489190611dca565b610746565b005b61026960048036038101906102649190611dca565b61076f565b005b61028560048036038101906102809190611cd0565b6107f2565b604051610292919061257e565b60405180910390f35b6102a361080e565b6040516102b0919061257e565b60405180910390f35b6102d360048036038101906102ce9190611e2f565b6108b5565b005b6102ef60048036038101906102ea9190611e2f565b6108d8565b005b61030b60048036038101906103069190611ca7565b610a7a565b005b610315610ad4565b60405161032291906123d0565b60405180910390f35b610333610af8565b6040516103409190612406565b60405180910390f35b610351610b1e565b60405161035e91906123d0565b60405180910390f35b61036f610b42565b60405161037c919061257e565b60405180910390f35b61038d610be9565b60405161039a91906123eb565b60405180910390f35b6103bd60048036038101906103b89190611dca565b610c0f565b6040516103ca91906123b5565b60405180910390f35b6103ed60048036038101906103e89190611e2f565b610c79565b005b6103f7610d0e565b60405161040491906123d0565b60405180910390f35b610415610d15565b60405161042291906123d0565b60405180910390f35b61044560048036038101906104409190611cd0565b610d39565b604051610452919061257e565b60405180910390f35b610463610eca565b005b61046d610ee8565b60405161047c93929190612599565b60405180910390f35b61048d610f0d565b60405161049a9190612421565b60405180910390f35b6104ab610f33565b6040516104b8919061233a565b60405180910390f35b6104db60048036038101906104d69190611e2f565b610f59565b005b6104f760048036038101906104f29190611dca565b610fee565b005b610513600480360381019061050e9190611d0c565b611017565b005b61051d611135565b005b60007f7965db0b000000000000000000000000000000000000000000000000000000007bffffffffffffffffffffffffffffffffffffffffffffffffffffffff1916827bffffffffffffffffffffffffffffffffffffffffffffffffffffffff1916148061059257506105918261129d565b5b9050919050565b6000806000838152602001908152602001600020600101549050919050565b6105c0611307565b6105f17fbd1d99152bdba889f82a18def1423aac13658b88b6ea933ffd0b3a6a1dd5cff96105ec6113ff565b610c0f565b8061060c575061060b6000801b6106066113ff565b610c0f565b5b61064b576040517f08c379a00000000000000000000000000000000000000000000000000000000081526004016106429061253e565b60405180910390fd5b6006544211801561066c5750600960020160009054906101000a900460ff16155b6106ab576040517f08c379a00000000000000000000000000000000000000000000000000000000081526004016106a29061247e565b60405180910390fd5b600060016106b7610b42565b6106c19190612809565b6106c961080e565b6106d39190612809565b905060008111610718576040517f08c379a000000000000000000000000000000000000000000000000000000000815260040161070f906124fe565b60405180910390fd5b610743600460009054906101000a900473ffffffffffffffffffffffffffffffffffffffff16611407565b50565b61074f82610599565b6107608161075b6113ff565b611497565b61076a8383611534565b505050565b6107776113ff565b73ffffffffffffffffffffffffffffffffffffffff168173ffffffffffffffffffffffffffffffffffffffff16146107e4576040517f08c379a00000000000000000000000000000000000000000000000000000000081526004016107db9061255e565b60405180910390fd5b6107ee8282611614565b5050565b60006107fc611307565b6108068383610d39565b905092915050565b6000600160009054906101000a900473ffffffffffffffffffffffffffffffffffffffff1673ffffffffffffffffffffffffffffffffffffffff16634c0f38c26040518163ffffffff1660e01b815260040160206040518083038186803b15801561087857600080fd5b505afa15801561088c573d6000803e3d6000fd5b505050506040513d601f19601f820116820180604052508101906108b09190611e58565b905090565b6108bd611307565b60006108c93383610d39565b90506108d4816116f5565b5050565b6108e0611307565b6109117fbd1d99152bdba889f82a18def1423aac13658b88b6ea933ffd0b3a6a1dd5cff961090c6113ff565b610c0f565b8061092c575061092b6000801b6109266113ff565b610c0f565b5b61096b576040517f08c379a00000000000000000000000000000000000000000000000000000000081526004016109629061253e565b60405180910390fd5b6006544211801561098c5750600960020160009054906101000a900460ff16155b6109cb576040517f08c379a00000000000000000000000000000000000000000000000000000000081526004016109c29061247e565b60405180910390fd5b600060016109d7610b42565b6109e19190612809565b6109e961080e565b6109f39190612809565b9050610a0160026003611790565b90505b6000811115610a4b57610a38600460009054906101000a900473ffffffffffffffffffffffffffffffffffffffff16611407565b8080610a4390612969565b915050610a04565b610a76600460009054906101000a900473ffffffffffffffffffffffffffffffffffffffff16611407565b5050565b6000801b610a8f81610a8a6113ff565b611497565b81600160006101000a81548173ffffffffffffffffffffffffffffffffffffffff021916908373ffffffffffffffffffffffffffffffffffffffff1602179055505050565b7f988301af8238f779281a300de031815cd01b48e9f1ae47a0f91ed6584213624a81565b600260009054906101000a900473ffffffffffffffffffffffffffffffffffffffff1681565b7fa70a2d8710fed9f014c8c2af50c7c2f6b25748ae4cded822e03b7beed44cf3a881565b6000600160009054906101000a900473ffffffffffffffffffffffffffffffffffffffff1673ffffffffffffffffffffffffffffffffffffffff166368fc01a26040518163ffffffff1660e01b815260040160206040518083038186803b158015610bac57600080fd5b505afa158015610bc0573d6000803e3d6000fd5b505050506040513d601f19601f82011682018060405250810190610be49190611e58565b905090565b600160009054906101000a900473ffffffffffffffffffffffffffffffffffffffff1681565b600080600084815260200190815260200160002060000160008373ffffffffffffffffffffffffffffffffffffffff1673ffffffffffffffffffffffffffffffffffffffff16815260200190815260200160002060009054906101000a900460ff16905092915050565b610caa7f988301af8238f779281a300de031815cd01b48e9f1ae47a0f91ed6584213624a610ca56113ff565b610c0f565b80610cc55750610cc46000801b610cbf6113ff565b610c0f565b5b610d04576040517f08c379a0000000000000000000000000000000000000000000000000000000008152600401610cfb906124be565b60405180910390fd5b8060058190555050565b6000801b81565b7fbd1d99152bdba889f82a18def1423aac13658b88b6ea933ffd0b3a6a1dd5cff981565b60004260096001015414610d82576040517f08c379a0000000000000000000000000000000000000000000000000000000008152600401610d799061249e565b60405180910390fd5b600260009054906101000a900473ffffffffffffffffffffffffffffffffffffffff1673ffffffffffffffffffffffffffffffffffffffff16632080179d84846040518363ffffffff1660e01b8152600401610ddf929190612355565b60206040518083038186803b158015610df757600080fd5b505afa158015610e0b573d6000803e3d6000fd5b505050506040513d601f19601f82011682018060405250810190610e2f9190611d78565b8383604051602001610e429291906122b3565b60405160208183030381529060405290610e92576040517f08c379a0000000000000000000000000000000000000000000000000000000008152600401610e89919061243c565b60405180910390fd5b506000826064610ea29190612809565b6064600960000154610eb4919061277e565b610ebe91906127af565b90508091505092915050565b610ed2611307565b60006009600001549050610ee5816116f5565b50565b60098060000154908060010154908060020160009054906101000a900460ff16905083565b600360009054906101000a900473ffffffffffffffffffffffffffffffffffffffff1681565b600460009054906101000a900473ffffffffffffffffffffffffffffffffffffffff1681565b610f8a7f988301af8238f779281a300de031815cd01b48e9f1ae47a0f91ed6584213624a610f856113ff565b610c0f565b80610fa55750610fa46000801b610f9f6113ff565b610c0f565b5b610fe4576040517f08c379a0000000000000000000000000000000000000000000000000000000008152600401610fdb906124be565b60405180910390fd5b8060068190555050565b610ff782610599565b611008816110036113ff565b611497565b6110128383611614565b505050565b6110487fa70a2d8710fed9f014c8c2af50c7c2f6b25748ae4cded822e03b7beed44cf3a86110436113ff565b610c0f565b8061106357506110626000801b61105d6113ff565b610c0f565b5b6110a2576040517f08c379a0000000000000000000000000000000000000000000000000000000008152600401611099906124de565b60405180910390fd5b600160009054906101000a900473ffffffffffffffffffffffffffffffffffffffff1673ffffffffffffffffffffffffffffffffffffffff1663f121da9283836040518363ffffffff1660e01b81526004016110ff92919061237e565b600060405180830381600087803b15801561111957600080fd5b505af115801561112d573d6000803e3d6000fd5b505050505050565b61113d611307565b61116e7fbd1d99152bdba889f82a18def1423aac13658b88b6ea933ffd0b3a6a1dd5cff96111696113ff565b610c0f565b8061118957506111886000801b6111836113ff565b610c0f565b5b6111c8576040517f08c379a00000000000000000000000000000000000000000000000000000000081526004016111bf9061253e565b60405180910390fd5b600654421180156111e95750600960020160009054906101000a900460ff16155b611228576040517f08c379a000000000000000000000000000000000000000000000000000000000815260040161121f9061247e565b60405180910390fd5b60006001611234610b42565b61123e9190612809565b61124661080e565b6112509190612809565b90505b600081111561129a57611287600460009054906101000a900473ffffffffffffffffffffffffffffffffffffffff16611407565b808061129290612969565b915050611253565b50565b60007f01ffc9a7000000000000000000000000000000000000000000000000000000007bffffffffffffffffffffffffffffffffffffffffffffffffffffffff1916827bffffffffffffffffffffffffffffffffffffffffffffffffffffffff1916149050919050565b600654600554111561134e576040517f08c379a00000000000000000000000000000000000000000000000000000000081526004016113459061251e565b60405180910390fd5b620f4240600161135e91906127af565b603c6005544261136e9190612809565b611378919061277e565b61138291906127af565b60075461138f9190612809565b6009600001819055504260096001018190555060055442101580156113b657506006544211155b156113de576001600960020160006101000a81548160ff0219169083151502179055506113fd565b6000600960020160006101000a81548160ff0219169083151502179055505b565b600033905090565b600160009054906101000a900473ffffffffffffffffffffffffffffffffffffffff1673ffffffffffffffffffffffffffffffffffffffff166355676590826040518263ffffffff1660e01b8152600401611462919061233a565b600060405180830381600087803b15801561147c57600080fd5b505af1158015611490573d6000803e3d6000fd5b5050505050565b6114a18282610c0f565b611530576114c68173ffffffffffffffffffffffffffffffffffffffff1660146117aa565b6114d48360001c60206117aa565b6040516020016114e5929190612300565b6040516020818303038152906040526040517f08c379a0000000000000000000000000000000000000000000000000000000008152600401611527919061243c565b60405180910390fd5b5050565b61153e8282610c0f565b61161057600160008084815260200190815260200160002060000160008373ffffffffffffffffffffffffffffffffffffffff1673ffffffffffffffffffffffffffffffffffffffff16815260200190815260200160002060006101000a81548160ff0219169083151502179055506115b56113ff565b73ffffffffffffffffffffffffffffffffffffffff168173ffffffffffffffffffffffffffffffffffffffff16837f2f8788117e7eff1d82e926ec794901d17c78024a50270940304540a733656f0d60405160405180910390a45b5050565b61161e8282610c0f565b156116f157600080600084815260200190815260200160002060000160008373ffffffffffffffffffffffffffffffffffffffff1673ffffffffffffffffffffffffffffffffffffffff16815260200190815260200160002060006101000a81548160ff0219169083151502179055506116966113ff565b73ffffffffffffffffffffffffffffffffffffffff168173ffffffffffffffffffffffffffffffffffffffff16837ff6391f5c32d9c69d2a47ea670b442974b53935d1edc7fd64eb21e047a839171b60405160405180910390a45b5050565b600360009054906101000a900473ffffffffffffffffffffffffffffffffffffffff1673ffffffffffffffffffffffffffffffffffffffff1663532b291333836040518363ffffffff1660e01b8152600401611752929190612355565b600060405180830381600087803b15801561176c57600080fd5b505af1158015611780573d6000803e3d6000fd5b5050505061178d33611407565b50565b6000818310156117a057816117a2565b825b905092915050565b6060600060028360026117bd91906127af565b6117c79190612728565b67ffffffffffffffff811115611806577f4e487b7100000000000000000000000000000000000000000000000000000000600052604160045260246000fd5b6040519080825280601f01601f1916602001820160405280156118385781602001600182028036833780820191505090505b5090507f300000000000000000000000000000000000000000000000000000000000000081600081518110611896577f4e487b7100000000000000000000000000000000000000000000000000000000600052603260045260246000fd5b60200101907effffffffffffffffffffffffffffffffffffffffffffffffffffffffffffff1916908160001a9053507f780000000000000000000000000000000000000000000000000000000000000081600181518110611920577f4e487b7100000000000000000000000000000000000000000000000000000000600052603260045260246000fd5b60200101907effffffffffffffffffffffffffffffffffffffffffffffffffffffffffffff1916908160001a9053506000600184600261196091906127af565b61196a9190612728565b90505b6001811115611a56577f3031323334353637383961626364656600000000000000000000000000000000600f8616601081106119d2577f4e487b7100000000000000000000000000000000000000000000000000000000600052603260045260246000fd5b1a60f81b828281518110611a0f577f4e487b7100000000000000000000000000000000000000000000000000000000600052603260045260246000fd5b60200101907effffffffffffffffffffffffffffffffffffffffffffffffffffffffffffff1916908160001a905350600485901c945080611a4f90612969565b905061196d565b5060008414611a9a576040517f08c379a0000000000000000000000000000000000000000000000000000000008152600401611a919061245e565b60405180910390fd5b8091505092915050565b6000611ab7611ab2846125f5565b6125d0565b9050808382526020820190508260005b85811015611af75781358501611add8882611c53565b845260208401935060208301925050600181019050611ac7565b5050509392505050565b6000611b14611b0f84612621565b6125d0565b90508083825260208201905082856020860282011115611b3357600080fd5b60005b85811015611b635781611b498882611c7d565b845260208401935060208301925050600181019050611b36565b5050509392505050565b6000611b80611b7b8461264d565b6125d0565b905082815260208101848484011115611b9857600080fd5b611ba3848285612927565b509392505050565b600081359050611bba81612dbf565b92915050565b600082601f830112611bd157600080fd5b8135611be1848260208601611aa4565b91505092915050565b600082601f830112611bfb57600080fd5b8135611c0b848260208601611b01565b91505092915050565b600081519050611c2381612dd6565b92915050565b600081359050611c3881612ded565b92915050565b600081359050611c4d81612e04565b92915050565b600082601f830112611c6457600080fd5b8135611c74848260208601611b6d565b91505092915050565b600081359050611c8c81612e1b565b92915050565b600081519050611ca181612e1b565b92915050565b600060208284031215611cb957600080fd5b6000611cc784828501611bab565b91505092915050565b60008060408385031215611ce357600080fd5b6000611cf185828601611bab565b9250506020611d0285828601611c7d565b9150509250929050565b60008060408385031215611d1f57600080fd5b600083013567ffffffffffffffff811115611d3957600080fd5b611d4585828601611bea565b925050602083013567ffffffffffffffff811115611d6257600080fd5b611d6e85828601611bc0565b9150509250929050565b600060208284031215611d8a57600080fd5b6000611d9884828501611c14565b91505092915050565b600060208284031215611db357600080fd5b6000611dc184828501611c29565b91505092915050565b60008060408385031215611ddd57600080fd5b6000611deb85828601611c29565b9250506020611dfc85828601611bab565b9150509250929050565b600060208284031215611e1857600080fd5b6000611e2684828501611c3e565b91505092915050565b600060208284031215611e4157600080fd5b6000611e4f84828501611c7d565b91505092915050565b600060208284031215611e6a57600080fd5b6000611e7884828501611c92565b91505092915050565b6000611e8d8383611ff1565b905092915050565b6000611ea1838361227e565b60208301905092915050565b611eb68161283d565b82525050565b611ecd611ec88261283d565b6129c4565b82525050565b6000611ede8261269e565b611ee881856126d9565b935083602082028501611efa8561267e565b8060005b85811015611f365784840389528151611f178582611e81565b9450611f22836126bf565b925060208a01995050600181019050611efe565b50829750879550505050505092915050565b6000611f53826126a9565b611f5d81856126ea565b9350611f688361268e565b8060005b83811015611f99578151611f808882611e95565b9750611f8b836126cc565b925050600181019050611f6c565b5085935050505092915050565b611faf8161284f565b82525050565b611fbe8161285b565b82525050565b611fcd816128bb565b82525050565b611fdc816128df565b82525050565b611feb81612903565b82525050565b6000611ffc826126b4565b61200681856126fb565b9350612016818560208601612936565b61201f81612a7f565b840191505092915050565b6000612035826126b4565b61203f818561270c565b935061204f818560208601612936565b61205881612a7f565b840191505092915050565b600061206e826126b4565b612078818561271d565b9350612088818560208601612936565b80840191505092915050565b60006120a160208361270c565b91506120ac82612a9d565b602082019050919050565b60006120c460088361271d565b91506120cf82612ac6565b600882019050919050565b60006120e760368361270c565b91506120f282612aef565b604082019050919050565b600061210a601b8361270c565b915061211582612b3e565b602082019050919050565b600061212d60238361270c565b915061213882612b67565b604082019050919050565b600061215060228361270c565b915061215b82612bb6565b604082019050919050565b600061217360018361271d565b915061217e82612c05565b600182019050919050565b600061219660308361271d565b91506121a182612c2e565b603082019050919050565b60006121b960168361270c565b91506121c482612c7d565b602082019050919050565b60006121dc601f8361270c565b91506121e782612ca6565b602082019050919050565b60006121ff60278361270c565b915061220a82612ccf565b604082019050919050565b600061222260178361271d565b915061222d82612d1e565b601782019050919050565b600061224560118361271d565b915061225082612d47565b601182019050919050565b6000612268602f8361270c565b915061227382612d70565b604082019050919050565b612287816128b1565b82525050565b612296816128b1565b82525050565b6122ad6122a8826128b1565b6129e8565b82525050565b60006122be826120b7565b91506122ca8285611ebc565b6014820191506122d982612189565b91506122e5828461229c565b6020820191506122f482612166565b91508190509392505050565b600061230b82612215565b91506123178285612063565b915061232282612238565b915061232e8284612063565b91508190509392505050565b600060208201905061234f6000830184611ead565b92915050565b600060408201905061236a6000830185611ead565b612377602083018461228d565b9392505050565b600060408201905081810360008301526123988185611f48565b905081810360208301526123ac8184611ed3565b90509392505050565b60006020820190506123ca6000830184611fa6565b92915050565b60006020820190506123e56000830184611fb5565b92915050565b60006020820190506124006000830184611fc4565b92915050565b600060208201905061241b6000830184611fd3565b92915050565b60006020820190506124366000830184611fe2565b92915050565b60006020820190508181036000830152612456818461202a565b905092915050565b6000602082019050818103600083015261247781612094565b9050919050565b60006020820190508181036000830152612497816120da565b9050919050565b600060208201905081810360008301526124b7816120fd565b9050919050565b600060208201905081810360008301526124d781612120565b9050919050565b600060208201905081810360008301526124f781612143565b9050919050565b60006020820190508181036000830152612517816121ac565b9050919050565b60006020820190508181036000830152612537816121cf565b9050919050565b60006020820190508181036000830152612557816121f2565b9050919050565b600060208201905081810360008301526125778161225b565b9050919050565b6000602082019050612593600083018461228d565b92915050565b60006060820190506125ae600083018661228d565b6125bb602083018561228d565b6125c86040830184611fa6565b949350505050565b60006125da6125eb565b90506125e68282612993565b919050565b6000604051905090565b600067ffffffffffffffff8211156126105761260f612a50565b5b602082029050602081019050919050565b600067ffffffffffffffff82111561263c5761263b612a50565b5b602082029050602081019050919050565b600067ffffffffffffffff82111561266857612667612a50565b5b61267182612a7f565b9050602081019050919050565b6000819050602082019050919050565b6000819050602082019050919050565b600081519050919050565b600081519050919050565b600081519050919050565b6000602082019050919050565b6000602082019050919050565b600082825260208201905092915050565b600082825260208201905092915050565b600082825260208201905092915050565b600082825260208201905092915050565b600081905092915050565b6000612733826128b1565b915061273e836128b1565b9250827fffffffffffffffffffffffffffffffffffffffffffffffffffffffffffffffff03821115612773576127726129f2565b5b828201905092915050565b6000612789826128b1565b9150612794836128b1565b9250826127a4576127a3612a21565b5b828204905092915050565b60006127ba826128b1565b91506127c5836128b1565b9250817fffffffffffffffffffffffffffffffffffffffffffffffffffffffffffffffff04831182151516156127fe576127fd6129f2565b5b828202905092915050565b6000612814826128b1565b915061281f836128b1565b925082821015612832576128316129f2565b5b828203905092915050565b600061284882612891565b9050919050565b60008115159050919050565b6000819050919050565b60007fffffffff0000000000000000000000000000000000000000000000000000000082169050919050565b600073ffffffffffffffffffffffffffffffffffffffff82169050919050565b6000819050919050565b60006128c6826128cd565b9050919050565b60006128d882612891565b9050919050565b60006128ea826128f1565b9050919050565b60006128fc82612891565b9050919050565b600061290e82612915565b9050919050565b600061292082612891565b9050919050565b82818337600083830152505050565b60005b83811015612954578082015181840152602081019050612939565b83811115612963576000848401525b50505050565b6000612974826128b1565b91506000821415612988576129876129f2565b5b600182039050919050565b61299c82612a7f565b810181811067ffffffffffffffff821117156129bb576129ba612a50565b5b80604052505050565b60006129cf826129d6565b9050919050565b60006129e182612a90565b9050919050565b6000819050919050565b7f4e487b7100000000000000000000000000000000000000000000000000000000600052601160045260246000fd5b7f4e487b7100000000000000000000000000000000000000000000000000000000600052601260045260246000fd5b7f4e487b7100000000000000000000000000000000000000000000000000000000600052604160045260246000fd5b6000601f19601f8301169050919050565b60008160601b9050919050565b7f537472696e67733a20686578206c656e67746820696e73756666696369656e74600082015250565b7f4164647265737320000000000000000000000000000000000000000000000000600082015250565b7f43616e6e6f74206d696e7420746f20747265617375727920616464726573732060008201527f756e74696c2073616c652069732066696e697368656400000000000000000000602082015250565b7f74696d657374616d70206973206e6f742075702d746f2d646174650000000000600082015250565b7f53656e646572206973206e6f742053616c65204d616e61676572206f7220416460008201527f6d696e0000000000000000000000000000000000000000000000000000000000602082015250565b7f53656e646572206973206e6f7420555249204d616e61676572206f722041646d60008201527f696e000000000000000000000000000000000000000000000000000000000000602082015250565b7f2500000000000000000000000000000000000000000000000000000000000000600082015250565b7f20646f6573206e6f742068617665206120636f75706f6e20776974682061206460008201527f6973636f756e742072617465206f662000000000000000000000000000000000602082015250565b7f4e6f20746f6b656e73206c65667420746f206d696e7400000000000000000000600082015250565b7f737461727454696d65206973206c61746572207468616e20656e6454696d6500600082015250565b7f53656e646572206973206e6f7420506f73742d53616c65204d696e746572206f60008201527f722041646d696e00000000000000000000000000000000000000000000000000602082015250565b7f416363657373436f6e74726f6c3a206163636f756e7420000000000000000000600082015250565b7f206973206d697373696e6720726f6c6520000000000000000000000000000000600082015250565b7f416363657373436f6e74726f6c3a2063616e206f6e6c792072656e6f756e636560008201527f20726f6c657320666f722073656c660000000000000000000000000000000000602082015250565b612dc88161283d565b8114612dd357600080fd5b50565b612ddf8161284f565b8114612dea57600080fd5b50565b612df68161285b565b8114612e0157600080fd5b50565b612e0d81612865565b8114612e1857600080fd5b50565b612e24816128b1565b8114612e2f57600080fd5b5056fea264697066735822122040f54c53282c336b6aa5574add269d5f869bf53ad92ac1240524c9c81114fe8464736f6c63430008010033",
					"opcodes": "PUSH1 0x80 PUSH1 0x40 MSTORE PUSH4 0x70DC4900 PUSH1 0x5 SSTORE PUSH4 0x70DC4964 PUSH1 0x6 SSTORE PUSH3 0xF4240 PUSH1 0xA PUSH3 0x26 SWAP2 SWAP1 PUSH3 0xAA JUMP JUMPDEST PUSH1 0x7 SSTORE PUSH3 0xF4240 PUSH1 0x1 PUSH3 0x3B SWAP2 SWAP1 PUSH3 0xAA JUMP JUMPDEST PUSH1 0x8 SSTORE PUSH1 0x40 MLOAD DUP1 PUSH1 0x60 ADD PUSH1 0x40 MSTORE DUP1 PUSH2 0x2710 DUP2 MSTORE PUSH1 0x20 ADD TIMESTAMP DUP2 MSTORE PUSH1 0x20 ADD PUSH1 0x0 ISZERO ISZERO DUP2 MSTORE POP PUSH1 0x9 PUSH1 0x0 DUP3 ADD MLOAD DUP2 PUSH1 0x0 ADD SSTORE PUSH1 0x20 DUP3 ADD MLOAD DUP2 PUSH1 0x1 ADD SSTORE PUSH1 0x40 DUP3 ADD MLOAD DUP2 PUSH1 0x2 ADD PUSH1 0x0 PUSH2 0x100 EXP DUP2 SLOAD DUP2 PUSH1 0xFF MUL NOT AND SWAP1 DUP4 ISZERO ISZERO MUL OR SWAP1 SSTORE POP POP POP CALLVALUE DUP1 ISZERO PUSH3 0xA3 JUMPI PUSH1 0x0 DUP1 REVERT JUMPDEST POP PUSH3 0x144 JUMP JUMPDEST PUSH1 0x0 PUSH3 0xB7 DUP3 PUSH3 0x10B JUMP JUMPDEST SWAP2 POP PUSH3 0xC4 DUP4 PUSH3 0x10B JUMP JUMPDEST SWAP3 POP DUP2 PUSH32 0xFFFFFFFFFFFFFFFFFFFFFFFFFFFFFFFFFFFFFFFFFFFFFFFFFFFFFFFFFFFFFFFF DIV DUP4 GT DUP3 ISZERO ISZERO AND ISZERO PUSH3 0x100 JUMPI PUSH3 0xFF PUSH3 0x115 JUMP JUMPDEST JUMPDEST DUP3 DUP3 MUL SWAP1 POP SWAP3 SWAP2 POP POP JUMP JUMPDEST PUSH1 0x0 DUP2 SWAP1 POP SWAP2 SWAP1 POP JUMP JUMPDEST PUSH32 0x4E487B7100000000000000000000000000000000000000000000000000000000 PUSH1 0x0 MSTORE PUSH1 0x11 PUSH1 0x4 MSTORE PUSH1 0x24 PUSH1 0x0 REVERT JUMPDEST PUSH2 0x2E68 DUP1 PUSH3 0x154 PUSH1 0x0 CODECOPY PUSH1 0x0 RETURN INVALID PUSH1 0x80 PUSH1 0x40 MSTORE CALLVALUE DUP1 ISZERO PUSH2 0x10 JUMPI PUSH1 0x0 DUP1 REVERT JUMPDEST POP PUSH1 0x4 CALLDATASIZE LT PUSH2 0x1C4 JUMPI PUSH1 0x0 CALLDATALOAD PUSH1 0xE0 SHR DUP1 PUSH4 0x8C83FAEB GT PUSH2 0xF9 JUMPI DUP1 PUSH4 0xC0463711 GT PUSH2 0x97 JUMPI DUP1 PUSH4 0xCCB98FFC GT PUSH2 0x71 JUMPI DUP1 PUSH4 0xCCB98FFC EQ PUSH2 0x4C1 JUMPI DUP1 PUSH4 0xD547741F EQ PUSH2 0x4DD JUMPI DUP1 PUSH4 0xF121DA92 EQ PUSH2 0x4F9 JUMPI DUP1 PUSH4 0xF715DFCA EQ PUSH2 0x515 JUMPI PUSH2 0x1C4 JUMP JUMPDEST DUP1 PUSH4 0xC0463711 EQ PUSH2 0x465 JUMPI DUP1 PUSH4 0xC5DAE48F EQ PUSH2 0x485 JUMPI DUP1 PUSH4 0xC5F956AF EQ PUSH2 0x4A3 JUMPI PUSH2 0x1C4 JUMP JUMPDEST DUP1 PUSH4 0xA217FDDF GT PUSH2 0xD3 JUMPI DUP1 PUSH4 0xA217FDDF EQ PUSH2 0x3EF JUMPI DUP1 PUSH4 0xA77F0C48 EQ PUSH2 0x40D JUMPI DUP1 PUSH4 0xAB6C0306 EQ PUSH2 0x42B JUMPI DUP1 PUSH4 0xBFF29CEE EQ PUSH2 0x45B JUMPI PUSH2 0x1C4 JUMP JUMPDEST DUP1 PUSH4 0x8C83FAEB EQ PUSH2 0x385 JUMPI DUP1 PUSH4 0x91D14854 EQ PUSH2 0x3A3 JUMPI DUP1 PUSH4 0x944044A1 EQ PUSH2 0x3D3 JUMPI PUSH2 0x1C4 JUMP JUMPDEST DUP1 PUSH4 0x4C9B73DA GT PUSH2 0x166 JUMPI DUP1 PUSH4 0x551B42A8 GT PUSH2 0x140 JUMPI DUP1 PUSH4 0x551B42A8 EQ PUSH2 0x30D JUMPI DUP1 PUSH4 0x5CE7E721 EQ PUSH2 0x32B JUMPI DUP1 PUSH4 0x682D07D9 EQ PUSH2 0x349 JUMPI DUP1 PUSH4 0x68FC01A2 EQ PUSH2 0x367 JUMPI PUSH2 0x1C4 JUMP JUMPDEST DUP1 PUSH4 0x4C9B73DA EQ PUSH2 0x2B9 JUMPI DUP1 PUSH4 0x4E0DDFF9 EQ PUSH2 0x2D5 JUMPI DUP1 PUSH4 0x51F7598C EQ PUSH2 0x2F1 JUMPI PUSH2 0x1C4 JUMP JUMPDEST DUP1 PUSH4 0x2F2FF15D GT PUSH2 0x1A2 JUMPI DUP1 PUSH4 0x2F2FF15D EQ PUSH2 0x233 JUMPI DUP1 PUSH4 0x36568ABE EQ PUSH2 0x24F JUMPI DUP1 PUSH4 0x432C7C5D EQ PUSH2 0x26B JUMPI DUP1 PUSH4 0x4C0F38C2 EQ PUSH2 0x29B JUMPI PUSH2 0x1C4 JUMP JUMPDEST DUP1 PUSH4 0x1FFC9A7 EQ PUSH2 0x1C9 JUMPI DUP1 PUSH4 0x248A9CA3 EQ PUSH2 0x1F9 JUMPI DUP1 PUSH4 0x26116D47 EQ PUSH2 0x229 JUMPI JUMPDEST PUSH1 0x0 DUP1 REVERT JUMPDEST PUSH2 0x1E3 PUSH1 0x4 DUP1 CALLDATASIZE SUB DUP2 ADD SWAP1 PUSH2 0x1DE SWAP2 SWAP1 PUSH2 0x1E06 JUMP JUMPDEST PUSH2 0x51F JUMP JUMPDEST PUSH1 0x40 MLOAD PUSH2 0x1F0 SWAP2 SWAP1 PUSH2 0x23B5 JUMP JUMPDEST PUSH1 0x40 MLOAD DUP1 SWAP2 SUB SWAP1 RETURN JUMPDEST PUSH2 0x213 PUSH1 0x4 DUP1 CALLDATASIZE SUB DUP2 ADD SWAP1 PUSH2 0x20E SWAP2 SWAP1 PUSH2 0x1DA1 JUMP JUMPDEST PUSH2 0x599 JUMP JUMPDEST PUSH1 0x40 MLOAD PUSH2 0x220 SWAP2 SWAP1 PUSH2 0x23D0 JUMP JUMPDEST PUSH1 0x40 MLOAD DUP1 SWAP2 SUB SWAP1 RETURN JUMPDEST PUSH2 0x231 PUSH2 0x5B8 JUMP JUMPDEST STOP JUMPDEST PUSH2 0x24D PUSH1 0x4 DUP1 CALLDATASIZE SUB DUP2 ADD SWAP1 PUSH2 0x248 SWAP2 SWAP1 PUSH2 0x1DCA JUMP JUMPDEST PUSH2 0x746 JUMP JUMPDEST STOP JUMPDEST PUSH2 0x269 PUSH1 0x4 DUP1 CALLDATASIZE SUB DUP2 ADD SWAP1 PUSH2 0x264 SWAP2 SWAP1 PUSH2 0x1DCA JUMP JUMPDEST PUSH2 0x76F JUMP JUMPDEST STOP JUMPDEST PUSH2 0x285 PUSH1 0x4 DUP1 CALLDATASIZE SUB DUP2 ADD SWAP1 PUSH2 0x280 SWAP2 SWAP1 PUSH2 0x1CD0 JUMP JUMPDEST PUSH2 0x7F2 JUMP JUMPDEST PUSH1 0x40 MLOAD PUSH2 0x292 SWAP2 SWAP1 PUSH2 0x257E JUMP JUMPDEST PUSH1 0x40 MLOAD DUP1 SWAP2 SUB SWAP1 RETURN JUMPDEST PUSH2 0x2A3 PUSH2 0x80E JUMP JUMPDEST PUSH1 0x40 MLOAD PUSH2 0x2B0 SWAP2 SWAP1 PUSH2 0x257E JUMP JUMPDEST PUSH1 0x40 MLOAD DUP1 SWAP2 SUB SWAP1 RETURN JUMPDEST PUSH2 0x2D3 PUSH1 0x4 DUP1 CALLDATASIZE SUB DUP2 ADD SWAP1 PUSH2 0x2CE SWAP2 SWAP1 PUSH2 0x1E2F JUMP JUMPDEST PUSH2 0x8B5 JUMP JUMPDEST STOP JUMPDEST PUSH2 0x2EF PUSH1 0x4 DUP1 CALLDATASIZE SUB DUP2 ADD SWAP1 PUSH2 0x2EA SWAP2 SWAP1 PUSH2 0x1E2F JUMP JUMPDEST PUSH2 0x8D8 JUMP JUMPDEST STOP JUMPDEST PUSH2 0x30B PUSH1 0x4 DUP1 CALLDATASIZE SUB DUP2 ADD SWAP1 PUSH2 0x306 SWAP2 SWAP1 PUSH2 0x1CA7 JUMP JUMPDEST PUSH2 0xA7A JUMP JUMPDEST STOP JUMPDEST PUSH2 0x315 PUSH2 0xAD4 JUMP JUMPDEST PUSH1 0x40 MLOAD PUSH2 0x322 SWAP2 SWAP1 PUSH2 0x23D0 JUMP JUMPDEST PUSH1 0x40 MLOAD DUP1 SWAP2 SUB SWAP1 RETURN JUMPDEST PUSH2 0x333 PUSH2 0xAF8 JUMP JUMPDEST PUSH1 0x40 MLOAD PUSH2 0x340 SWAP2 SWAP1 PUSH2 0x2406 JUMP JUMPDEST PUSH1 0x40 MLOAD DUP1 SWAP2 SUB SWAP1 RETURN JUMPDEST PUSH2 0x351 PUSH2 0xB1E JUMP JUMPDEST PUSH1 0x40 MLOAD PUSH2 0x35E SWAP2 SWAP1 PUSH2 0x23D0 JUMP JUMPDEST PUSH1 0x40 MLOAD DUP1 SWAP2 SUB SWAP1 RETURN JUMPDEST PUSH2 0x36F PUSH2 0xB42 JUMP JUMPDEST PUSH1 0x40 MLOAD PUSH2 0x37C SWAP2 SWAP1 PUSH2 0x257E JUMP JUMPDEST PUSH1 0x40 MLOAD DUP1 SWAP2 SUB SWAP1 RETURN JUMPDEST PUSH2 0x38D PUSH2 0xBE9 JUMP JUMPDEST PUSH1 0x40 MLOAD PUSH2 0x39A SWAP2 SWAP1 PUSH2 0x23EB JUMP JUMPDEST PUSH1 0x40 MLOAD DUP1 SWAP2 SUB SWAP1 RETURN JUMPDEST PUSH2 0x3BD PUSH1 0x4 DUP1 CALLDATASIZE SUB DUP2 ADD SWAP1 PUSH2 0x3B8 SWAP2 SWAP1 PUSH2 0x1DCA JUMP JUMPDEST PUSH2 0xC0F JUMP JUMPDEST PUSH1 0x40 MLOAD PUSH2 0x3CA SWAP2 SWAP1 PUSH2 0x23B5 JUMP JUMPDEST PUSH1 0x40 MLOAD DUP1 SWAP2 SUB SWAP1 RETURN JUMPDEST PUSH2 0x3ED PUSH1 0x4 DUP1 CALLDATASIZE SUB DUP2 ADD SWAP1 PUSH2 0x3E8 SWAP2 SWAP1 PUSH2 0x1E2F JUMP JUMPDEST PUSH2 0xC79 JUMP JUMPDEST STOP JUMPDEST PUSH2 0x3F7 PUSH2 0xD0E JUMP JUMPDEST PUSH1 0x40 MLOAD PUSH2 0x404 SWAP2 SWAP1 PUSH2 0x23D0 JUMP JUMPDEST PUSH1 0x40 MLOAD DUP1 SWAP2 SUB SWAP1 RETURN JUMPDEST PUSH2 0x415 PUSH2 0xD15 JUMP JUMPDEST PUSH1 0x40 MLOAD PUSH2 0x422 SWAP2 SWAP1 PUSH2 0x23D0 JUMP JUMPDEST PUSH1 0x40 MLOAD DUP1 SWAP2 SUB SWAP1 RETURN JUMPDEST PUSH2 0x445 PUSH1 0x4 DUP1 CALLDATASIZE SUB DUP2 ADD SWAP1 PUSH2 0x440 SWAP2 SWAP1 PUSH2 0x1CD0 JUMP JUMPDEST PUSH2 0xD39 JUMP JUMPDEST PUSH1 0x40 MLOAD PUSH2 0x452 SWAP2 SWAP1 PUSH2 0x257E JUMP JUMPDEST PUSH1 0x40 MLOAD DUP1 SWAP2 SUB SWAP1 RETURN JUMPDEST PUSH2 0x463 PUSH2 0xECA JUMP JUMPDEST STOP JUMPDEST PUSH2 0x46D PUSH2 0xEE8 JUMP JUMPDEST PUSH1 0x40 MLOAD PUSH2 0x47C SWAP4 SWAP3 SWAP2 SWAP1 PUSH2 0x2599 JUMP JUMPDEST PUSH1 0x40 MLOAD DUP1 SWAP2 SUB SWAP1 RETURN JUMPDEST PUSH2 0x48D PUSH2 0xF0D JUMP JUMPDEST PUSH1 0x40 MLOAD PUSH2 0x49A SWAP2 SWAP1 PUSH2 0x2421 JUMP JUMPDEST PUSH1 0x40 MLOAD DUP1 SWAP2 SUB SWAP1 RETURN JUMPDEST PUSH2 0x4AB PUSH2 0xF33 JUMP JUMPDEST PUSH1 0x40 MLOAD PUSH2 0x4B8 SWAP2 SWAP1 PUSH2 0x233A JUMP JUMPDEST PUSH1 0x40 MLOAD DUP1 SWAP2 SUB SWAP1 RETURN JUMPDEST PUSH2 0x4DB PUSH1 0x4 DUP1 CALLDATASIZE SUB DUP2 ADD SWAP1 PUSH2 0x4D6 SWAP2 SWAP1 PUSH2 0x1E2F JUMP JUMPDEST PUSH2 0xF59 JUMP JUMPDEST STOP JUMPDEST PUSH2 0x4F7 PUSH1 0x4 DUP1 CALLDATASIZE SUB DUP2 ADD SWAP1 PUSH2 0x4F2 SWAP2 SWAP1 PUSH2 0x1DCA JUMP JUMPDEST PUSH2 0xFEE JUMP JUMPDEST STOP JUMPDEST PUSH2 0x513 PUSH1 0x4 DUP1 CALLDATASIZE SUB DUP2 ADD SWAP1 PUSH2 0x50E SWAP2 SWAP1 PUSH2 0x1D0C JUMP JUMPDEST PUSH2 0x1017 JUMP JUMPDEST STOP JUMPDEST PUSH2 0x51D PUSH2 0x1135 JUMP JUMPDEST STOP JUMPDEST PUSH1 0x0 PUSH32 0x7965DB0B00000000000000000000000000000000000000000000000000000000 PUSH28 0xFFFFFFFFFFFFFFFFFFFFFFFFFFFFFFFFFFFFFFFFFFFFFFFFFFFFFFFF NOT AND DUP3 PUSH28 0xFFFFFFFFFFFFFFFFFFFFFFFFFFFFFFFFFFFFFFFFFFFFFFFFFFFFFFFF NOT AND EQ DUP1 PUSH2 0x592 JUMPI POP PUSH2 0x591 DUP3 PUSH2 0x129D JUMP JUMPDEST JUMPDEST SWAP1 POP SWAP2 SWAP1 POP JUMP JUMPDEST PUSH1 0x0 DUP1 PUSH1 0x0 DUP4 DUP2 MSTORE PUSH1 0x20 ADD SWAP1 DUP2 MSTORE PUSH1 0x20 ADD PUSH1 0x0 KECCAK256 PUSH1 0x1 ADD SLOAD SWAP1 POP SWAP2 SWAP1 POP JUMP JUMPDEST PUSH2 0x5C0 PUSH2 0x1307 JUMP JUMPDEST PUSH2 0x5F1 PUSH32 0xBD1D99152BDBA889F82A18DEF1423AAC13658B88B6EA933FFD0B3A6A1DD5CFF9 PUSH2 0x5EC PUSH2 0x13FF JUMP JUMPDEST PUSH2 0xC0F JUMP JUMPDEST DUP1 PUSH2 0x60C JUMPI POP PUSH2 0x60B PUSH1 0x0 DUP1 SHL PUSH2 0x606 PUSH2 0x13FF JUMP JUMPDEST PUSH2 0xC0F JUMP JUMPDEST JUMPDEST PUSH2 0x64B JUMPI PUSH1 0x40 MLOAD PUSH32 0x8C379A000000000000000000000000000000000000000000000000000000000 DUP2 MSTORE PUSH1 0x4 ADD PUSH2 0x642 SWAP1 PUSH2 0x253E JUMP JUMPDEST PUSH1 0x40 MLOAD DUP1 SWAP2 SUB SWAP1 REVERT JUMPDEST PUSH1 0x6 SLOAD TIMESTAMP GT DUP1 ISZERO PUSH2 0x66C JUMPI POP PUSH1 0x9 PUSH1 0x2 ADD PUSH1 0x0 SWAP1 SLOAD SWAP1 PUSH2 0x100 EXP SWAP1 DIV PUSH1 0xFF AND ISZERO JUMPDEST PUSH2 0x6AB JUMPI PUSH1 0x40 MLOAD PUSH32 0x8C379A000000000000000000000000000000000000000000000000000000000 DUP2 MSTORE PUSH1 0x4 ADD PUSH2 0x6A2 SWAP1 PUSH2 0x247E JUMP JUMPDEST PUSH1 0x40 MLOAD DUP1 SWAP2 SUB SWAP1 REVERT JUMPDEST PUSH1 0x0 PUSH1 0x1 PUSH2 0x6B7 PUSH2 0xB42 JUMP JUMPDEST PUSH2 0x6C1 SWAP2 SWAP1 PUSH2 0x2809 JUMP JUMPDEST PUSH2 0x6C9 PUSH2 0x80E JUMP JUMPDEST PUSH2 0x6D3 SWAP2 SWAP1 PUSH2 0x2809 JUMP JUMPDEST SWAP1 POP PUSH1 0x0 DUP2 GT PUSH2 0x718 JUMPI PUSH1 0x40 MLOAD PUSH32 0x8C379A000000000000000000000000000000000000000000000000000000000 DUP2 MSTORE PUSH1 0x4 ADD PUSH2 0x70F SWAP1 PUSH2 0x24FE JUMP JUMPDEST PUSH1 0x40 MLOAD DUP1 SWAP2 SUB SWAP1 REVERT JUMPDEST PUSH2 0x743 PUSH1 0x4 PUSH1 0x0 SWAP1 SLOAD SWAP1 PUSH2 0x100 EXP SWAP1 DIV PUSH20 0xFFFFFFFFFFFFFFFFFFFFFFFFFFFFFFFFFFFFFFFF AND PUSH2 0x1407 JUMP JUMPDEST POP JUMP JUMPDEST PUSH2 0x74F DUP3 PUSH2 0x599 JUMP JUMPDEST PUSH2 0x760 DUP2 PUSH2 0x75B PUSH2 0x13FF JUMP JUMPDEST PUSH2 0x1497 JUMP JUMPDEST PUSH2 0x76A DUP4 DUP4 PUSH2 0x1534 JUMP JUMPDEST POP POP POP JUMP JUMPDEST PUSH2 0x777 PUSH2 0x13FF JUMP JUMPDEST PUSH20 0xFFFFFFFFFFFFFFFFFFFFFFFFFFFFFFFFFFFFFFFF AND DUP2 PUSH20 0xFFFFFFFFFFFFFFFFFFFFFFFFFFFFFFFFFFFFFFFF AND EQ PUSH2 0x7E4 JUMPI PUSH1 0x40 MLOAD PUSH32 0x8C379A000000000000000000000000000000000000000000000000000000000 DUP2 MSTORE PUSH1 0x4 ADD PUSH2 0x7DB SWAP1 PUSH2 0x255E JUMP JUMPDEST PUSH1 0x40 MLOAD DUP1 SWAP2 SUB SWAP1 REVERT JUMPDEST PUSH2 0x7EE DUP3 DUP3 PUSH2 0x1614 JUMP JUMPDEST POP POP JUMP JUMPDEST PUSH1 0x0 PUSH2 0x7FC PUSH2 0x1307 JUMP JUMPDEST PUSH2 0x806 DUP4 DUP4 PUSH2 0xD39 JUMP JUMPDEST SWAP1 POP SWAP3 SWAP2 POP POP JUMP JUMPDEST PUSH1 0x0 PUSH1 0x1 PUSH1 0x0 SWAP1 SLOAD SWAP1 PUSH2 0x100 EXP SWAP1 DIV PUSH20 0xFFFFFFFFFFFFFFFFFFFFFFFFFFFFFFFFFFFFFFFF AND PUSH20 0xFFFFFFFFFFFFFFFFFFFFFFFFFFFFFFFFFFFFFFFF AND PUSH4 0x4C0F38C2 PUSH1 0x40 MLOAD DUP2 PUSH4 0xFFFFFFFF AND PUSH1 0xE0 SHL DUP2 MSTORE PUSH1 0x4 ADD PUSH1 0x20 PUSH1 0x40 MLOAD DUP1 DUP4 SUB DUP2 DUP7 DUP1 EXTCODESIZE ISZERO DUP1 ISZERO PUSH2 0x878 JUMPI PUSH1 0x0 DUP1 REVERT JUMPDEST POP GAS STATICCALL ISZERO DUP1 ISZERO PUSH2 0x88C JUMPI RETURNDATASIZE PUSH1 0x0 DUP1 RETURNDATACOPY RETURNDATASIZE PUSH1 0x0 REVERT JUMPDEST POP POP POP POP PUSH1 0x40 MLOAD RETURNDATASIZE PUSH1 0x1F NOT PUSH1 0x1F DUP3 ADD AND DUP3 ADD DUP1 PUSH1 0x40 MSTORE POP DUP2 ADD SWAP1 PUSH2 0x8B0 SWAP2 SWAP1 PUSH2 0x1E58 JUMP JUMPDEST SWAP1 POP SWAP1 JUMP JUMPDEST PUSH2 0x8BD PUSH2 0x1307 JUMP JUMPDEST PUSH1 0x0 PUSH2 0x8C9 CALLER DUP4 PUSH2 0xD39 JUMP JUMPDEST SWAP1 POP PUSH2 0x8D4 DUP2 PUSH2 0x16F5 JUMP JUMPDEST POP POP JUMP JUMPDEST PUSH2 0x8E0 PUSH2 0x1307 JUMP JUMPDEST PUSH2 0x911 PUSH32 0xBD1D99152BDBA889F82A18DEF1423AAC13658B88B6EA933FFD0B3A6A1DD5CFF9 PUSH2 0x90C PUSH2 0x13FF JUMP JUMPDEST PUSH2 0xC0F JUMP JUMPDEST DUP1 PUSH2 0x92C JUMPI POP PUSH2 0x92B PUSH1 0x0 DUP1 SHL PUSH2 0x926 PUSH2 0x13FF JUMP JUMPDEST PUSH2 0xC0F JUMP JUMPDEST JUMPDEST PUSH2 0x96B JUMPI PUSH1 0x40 MLOAD PUSH32 0x8C379A000000000000000000000000000000000000000000000000000000000 DUP2 MSTORE PUSH1 0x4 ADD PUSH2 0x962 SWAP1 PUSH2 0x253E JUMP JUMPDEST PUSH1 0x40 MLOAD DUP1 SWAP2 SUB SWAP1 REVERT JUMPDEST PUSH1 0x6 SLOAD TIMESTAMP GT DUP1 ISZERO PUSH2 0x98C JUMPI POP PUSH1 0x9 PUSH1 0x2 ADD PUSH1 0x0 SWAP1 SLOAD SWAP1 PUSH2 0x100 EXP SWAP1 DIV PUSH1 0xFF AND ISZERO JUMPDEST PUSH2 0x9CB JUMPI PUSH1 0x40 MLOAD PUSH32 0x8C379A000000000000000000000000000000000000000000000000000000000 DUP2 MSTORE PUSH1 0x4 ADD PUSH2 0x9C2 SWAP1 PUSH2 0x247E JUMP JUMPDEST PUSH1 0x40 MLOAD DUP1 SWAP2 SUB SWAP1 REVERT JUMPDEST PUSH1 0x0 PUSH1 0x1 PUSH2 0x9D7 PUSH2 0xB42 JUMP JUMPDEST PUSH2 0x9E1 SWAP2 SWAP1 PUSH2 0x2809 JUMP JUMPDEST PUSH2 0x9E9 PUSH2 0x80E JUMP JUMPDEST PUSH2 0x9F3 SWAP2 SWAP1 PUSH2 0x2809 JUMP JUMPDEST SWAP1 POP PUSH2 0xA01 PUSH1 0x2 PUSH1 0x3 PUSH2 0x1790 JUMP JUMPDEST SWAP1 POP JUMPDEST PUSH1 0x0 DUP2 GT ISZERO PUSH2 0xA4B JUMPI PUSH2 0xA38 PUSH1 0x4 PUSH1 0x0 SWAP1 SLOAD SWAP1 PUSH2 0x100 EXP SWAP1 DIV PUSH20 0xFFFFFFFFFFFFFFFFFFFFFFFFFFFFFFFFFFFFFFFF AND PUSH2 0x1407 JUMP JUMPDEST DUP1 DUP1 PUSH2 0xA43 SWAP1 PUSH2 0x2969 JUMP JUMPDEST SWAP2 POP POP PUSH2 0xA04 JUMP JUMPDEST PUSH2 0xA76 PUSH1 0x4 PUSH1 0x0 SWAP1 SLOAD SWAP1 PUSH2 0x100 EXP SWAP1 DIV PUSH20 0xFFFFFFFFFFFFFFFFFFFFFFFFFFFFFFFFFFFFFFFF AND PUSH2 0x1407 JUMP JUMPDEST POP POP JUMP JUMPDEST PUSH1 0x0 DUP1 SHL PUSH2 0xA8F DUP2 PUSH2 0xA8A PUSH2 0x13FF JUMP JUMPDEST PUSH2 0x1497 JUMP JUMPDEST DUP2 PUSH1 0x1 PUSH1 0x0 PUSH2 0x100 EXP DUP2 SLOAD DUP2 PUSH20 0xFFFFFFFFFFFFFFFFFFFFFFFFFFFFFFFFFFFFFFFF MUL NOT AND SWAP1 DUP4 PUSH20 0xFFFFFFFFFFFFFFFFFFFFFFFFFFFFFFFFFFFFFFFF AND MUL OR SWAP1 SSTORE POP POP POP JUMP JUMPDEST PUSH32 0x988301AF8238F779281A300DE031815CD01B48E9F1AE47A0F91ED6584213624A DUP2 JUMP JUMPDEST PUSH1 0x2 PUSH1 0x0 SWAP1 SLOAD SWAP1 PUSH2 0x100 EXP SWAP1 DIV PUSH20 0xFFFFFFFFFFFFFFFFFFFFFFFFFFFFFFFFFFFFFFFF AND DUP2 JUMP JUMPDEST PUSH32 0xA70A2D8710FED9F014C8C2AF50C7C2F6B25748AE4CDED822E03B7BEED44CF3A8 DUP2 JUMP JUMPDEST PUSH1 0x0 PUSH1 0x1 PUSH1 0x0 SWAP1 SLOAD SWAP1 PUSH2 0x100 EXP SWAP1 DIV PUSH20 0xFFFFFFFFFFFFFFFFFFFFFFFFFFFFFFFFFFFFFFFF AND PUSH20 0xFFFFFFFFFFFFFFFFFFFFFFFFFFFFFFFFFFFFFFFF AND PUSH4 0x68FC01A2 PUSH1 0x40 MLOAD DUP2 PUSH4 0xFFFFFFFF AND PUSH1 0xE0 SHL DUP2 MSTORE PUSH1 0x4 ADD PUSH1 0x20 PUSH1 0x40 MLOAD DUP1 DUP4 SUB DUP2 DUP7 DUP1 EXTCODESIZE ISZERO DUP1 ISZERO PUSH2 0xBAC JUMPI PUSH1 0x0 DUP1 REVERT JUMPDEST POP GAS STATICCALL ISZERO DUP1 ISZERO PUSH2 0xBC0 JUMPI RETURNDATASIZE PUSH1 0x0 DUP1 RETURNDATACOPY RETURNDATASIZE PUSH1 0x0 REVERT JUMPDEST POP POP POP POP PUSH1 0x40 MLOAD RETURNDATASIZE PUSH1 0x1F NOT PUSH1 0x1F DUP3 ADD AND DUP3 ADD DUP1 PUSH1 0x40 MSTORE POP DUP2 ADD SWAP1 PUSH2 0xBE4 SWAP2 SWAP1 PUSH2 0x1E58 JUMP JUMPDEST SWAP1 POP SWAP1 JUMP JUMPDEST PUSH1 0x1 PUSH1 0x0 SWAP1 SLOAD SWAP1 PUSH2 0x100 EXP SWAP1 DIV PUSH20 0xFFFFFFFFFFFFFFFFFFFFFFFFFFFFFFFFFFFFFFFF AND DUP2 JUMP JUMPDEST PUSH1 0x0 DUP1 PUSH1 0x0 DUP5 DUP2 MSTORE PUSH1 0x20 ADD SWAP1 DUP2 MSTORE PUSH1 0x20 ADD PUSH1 0x0 KECCAK256 PUSH1 0x0 ADD PUSH1 0x0 DUP4 PUSH20 0xFFFFFFFFFFFFFFFFFFFFFFFFFFFFFFFFFFFFFFFF AND PUSH20 0xFFFFFFFFFFFFFFFFFFFFFFFFFFFFFFFFFFFFFFFF AND DUP2 MSTORE PUSH1 0x20 ADD SWAP1 DUP2 MSTORE PUSH1 0x20 ADD PUSH1 0x0 KECCAK256 PUSH1 0x0 SWAP1 SLOAD SWAP1 PUSH2 0x100 EXP SWAP1 DIV PUSH1 0xFF AND SWAP1 POP SWAP3 SWAP2 POP POP JUMP JUMPDEST PUSH2 0xCAA PUSH32 0x988301AF8238F779281A300DE031815CD01B48E9F1AE47A0F91ED6584213624A PUSH2 0xCA5 PUSH2 0x13FF JUMP JUMPDEST PUSH2 0xC0F JUMP JUMPDEST DUP1 PUSH2 0xCC5 JUMPI POP PUSH2 0xCC4 PUSH1 0x0 DUP1 SHL PUSH2 0xCBF PUSH2 0x13FF JUMP JUMPDEST PUSH2 0xC0F JUMP JUMPDEST JUMPDEST PUSH2 0xD04 JUMPI PUSH1 0x40 MLOAD PUSH32 0x8C379A000000000000000000000000000000000000000000000000000000000 DUP2 MSTORE PUSH1 0x4 ADD PUSH2 0xCFB SWAP1 PUSH2 0x24BE JUMP JUMPDEST PUSH1 0x40 MLOAD DUP1 SWAP2 SUB SWAP1 REVERT JUMPDEST DUP1 PUSH1 0x5 DUP2 SWAP1 SSTORE POP POP JUMP JUMPDEST PUSH1 0x0 DUP1 SHL DUP2 JUMP JUMPDEST PUSH32 0xBD1D99152BDBA889F82A18DEF1423AAC13658B88B6EA933FFD0B3A6A1DD5CFF9 DUP2 JUMP JUMPDEST PUSH1 0x0 TIMESTAMP PUSH1 0x9 PUSH1 0x1 ADD SLOAD EQ PUSH2 0xD82 JUMPI PUSH1 0x40 MLOAD PUSH32 0x8C379A000000000000000000000000000000000000000000000000000000000 DUP2 MSTORE PUSH1 0x4 ADD PUSH2 0xD79 SWAP1 PUSH2 0x249E JUMP JUMPDEST PUSH1 0x40 MLOAD DUP1 SWAP2 SUB SWAP1 REVERT JUMPDEST PUSH1 0x2 PUSH1 0x0 SWAP1 SLOAD SWAP1 PUSH2 0x100 EXP SWAP1 DIV PUSH20 0xFFFFFFFFFFFFFFFFFFFFFFFFFFFFFFFFFFFFFFFF AND PUSH20 0xFFFFFFFFFFFFFFFFFFFFFFFFFFFFFFFFFFFFFFFF AND PUSH4 0x2080179D DUP5 DUP5 PUSH1 0x40 MLOAD DUP4 PUSH4 0xFFFFFFFF AND PUSH1 0xE0 SHL DUP2 MSTORE PUSH1 0x4 ADD PUSH2 0xDDF SWAP3 SWAP2 SWAP1 PUSH2 0x2355 JUMP JUMPDEST PUSH1 0x20 PUSH1 0x40 MLOAD DUP1 DUP4 SUB DUP2 DUP7 DUP1 EXTCODESIZE ISZERO DUP1 ISZERO PUSH2 0xDF7 JUMPI PUSH1 0x0 DUP1 REVERT JUMPDEST POP GAS STATICCALL ISZERO DUP1 ISZERO PUSH2 0xE0B JUMPI RETURNDATASIZE PUSH1 0x0 DUP1 RETURNDATACOPY RETURNDATASIZE PUSH1 0x0 REVERT JUMPDEST POP POP POP POP PUSH1 0x40 MLOAD RETURNDATASIZE PUSH1 0x1F NOT PUSH1 0x1F DUP3 ADD AND DUP3 ADD DUP1 PUSH1 0x40 MSTORE POP DUP2 ADD SWAP1 PUSH2 0xE2F SWAP2 SWAP1 PUSH2 0x1D78 JUMP JUMPDEST DUP4 DUP4 PUSH1 0x40 MLOAD PUSH1 0x20 ADD PUSH2 0xE42 SWAP3 SWAP2 SWAP1 PUSH2 0x22B3 JUMP JUMPDEST PUSH1 0x40 MLOAD PUSH1 0x20 DUP2 DUP4 SUB SUB DUP2 MSTORE SWAP1 PUSH1 0x40 MSTORE SWAP1 PUSH2 0xE92 JUMPI PUSH1 0x40 MLOAD PUSH32 0x8C379A000000000000000000000000000000000000000000000000000000000 DUP2 MSTORE PUSH1 0x4 ADD PUSH2 0xE89 SWAP2 SWAP1 PUSH2 0x243C JUMP JUMPDEST PUSH1 0x40 MLOAD DUP1 SWAP2 SUB SWAP1 REVERT JUMPDEST POP PUSH1 0x0 DUP3 PUSH1 0x64 PUSH2 0xEA2 SWAP2 SWAP1 PUSH2 0x2809 JUMP JUMPDEST PUSH1 0x64 PUSH1 0x9 PUSH1 0x0 ADD SLOAD PUSH2 0xEB4 SWAP2 SWAP1 PUSH2 0x277E JUMP JUMPDEST PUSH2 0xEBE SWAP2 SWAP1 PUSH2 0x27AF JUMP JUMPDEST SWAP1 POP DUP1 SWAP2 POP POP SWAP3 SWAP2 POP POP JUMP JUMPDEST PUSH2 0xED2 PUSH2 0x1307 JUMP JUMPDEST PUSH1 0x0 PUSH1 0x9 PUSH1 0x0 ADD SLOAD SWAP1 POP PUSH2 0xEE5 DUP2 PUSH2 0x16F5 JUMP JUMPDEST POP JUMP JUMPDEST PUSH1 0x9 DUP1 PUSH1 0x0 ADD SLOAD SWAP1 DUP1 PUSH1 0x1 ADD SLOAD SWAP1 DUP1 PUSH1 0x2 ADD PUSH1 0x0 SWAP1 SLOAD SWAP1 PUSH2 0x100 EXP SWAP1 DIV PUSH1 0xFF AND SWAP1 POP DUP4 JUMP JUMPDEST PUSH1 0x3 PUSH1 0x0 SWAP1 SLOAD SWAP1 PUSH2 0x100 EXP SWAP1 DIV PUSH20 0xFFFFFFFFFFFFFFFFFFFFFFFFFFFFFFFFFFFFFFFF AND DUP2 JUMP JUMPDEST PUSH1 0x4 PUSH1 0x0 SWAP1 SLOAD SWAP1 PUSH2 0x100 EXP SWAP1 DIV PUSH20 0xFFFFFFFFFFFFFFFFFFFFFFFFFFFFFFFFFFFFFFFF AND DUP2 JUMP JUMPDEST PUSH2 0xF8A PUSH32 0x988301AF8238F779281A300DE031815CD01B48E9F1AE47A0F91ED6584213624A PUSH2 0xF85 PUSH2 0x13FF JUMP JUMPDEST PUSH2 0xC0F JUMP JUMPDEST DUP1 PUSH2 0xFA5 JUMPI POP PUSH2 0xFA4 PUSH1 0x0 DUP1 SHL PUSH2 0xF9F PUSH2 0x13FF JUMP JUMPDEST PUSH2 0xC0F JUMP JUMPDEST JUMPDEST PUSH2 0xFE4 JUMPI PUSH1 0x40 MLOAD PUSH32 0x8C379A000000000000000000000000000000000000000000000000000000000 DUP2 MSTORE PUSH1 0x4 ADD PUSH2 0xFDB SWAP1 PUSH2 0x24BE JUMP JUMPDEST PUSH1 0x40 MLOAD DUP1 SWAP2 SUB SWAP1 REVERT JUMPDEST DUP1 PUSH1 0x6 DUP2 SWAP1 SSTORE POP POP JUMP JUMPDEST PUSH2 0xFF7 DUP3 PUSH2 0x599 JUMP JUMPDEST PUSH2 0x1008 DUP2 PUSH2 0x1003 PUSH2 0x13FF JUMP JUMPDEST PUSH2 0x1497 JUMP JUMPDEST PUSH2 0x1012 DUP4 DUP4 PUSH2 0x1614 JUMP JUMPDEST POP POP POP JUMP JUMPDEST PUSH2 0x1048 PUSH32 0xA70A2D8710FED9F014C8C2AF50C7C2F6B25748AE4CDED822E03B7BEED44CF3A8 PUSH2 0x1043 PUSH2 0x13FF JUMP JUMPDEST PUSH2 0xC0F JUMP JUMPDEST DUP1 PUSH2 0x1063 JUMPI POP PUSH2 0x1062 PUSH1 0x0 DUP1 SHL PUSH2 0x105D PUSH2 0x13FF JUMP JUMPDEST PUSH2 0xC0F JUMP JUMPDEST JUMPDEST PUSH2 0x10A2 JUMPI PUSH1 0x40 MLOAD PUSH32 0x8C379A000000000000000000000000000000000000000000000000000000000 DUP2 MSTORE PUSH1 0x4 ADD PUSH2 0x1099 SWAP1 PUSH2 0x24DE JUMP JUMPDEST PUSH1 0x40 MLOAD DUP1 SWAP2 SUB SWAP1 REVERT JUMPDEST PUSH1 0x1 PUSH1 0x0 SWAP1 SLOAD SWAP1 PUSH2 0x100 EXP SWAP1 DIV PUSH20 0xFFFFFFFFFFFFFFFFFFFFFFFFFFFFFFFFFFFFFFFF AND PUSH20 0xFFFFFFFFFFFFFFFFFFFFFFFFFFFFFFFFFFFFFFFF AND PUSH4 0xF121DA92 DUP4 DUP4 PUSH1 0x40 MLOAD DUP4 PUSH4 0xFFFFFFFF AND PUSH1 0xE0 SHL DUP2 MSTORE PUSH1 0x4 ADD PUSH2 0x10FF SWAP3 SWAP2 SWAP1 PUSH2 0x237E JUMP JUMPDEST PUSH1 0x0 PUSH1 0x40 MLOAD DUP1 DUP4 SUB DUP2 PUSH1 0x0 DUP8 DUP1 EXTCODESIZE ISZERO DUP1 ISZERO PUSH2 0x1119 JUMPI PUSH1 0x0 DUP1 REVERT JUMPDEST POP GAS CALL ISZERO DUP1 ISZERO PUSH2 0x112D JUMPI RETURNDATASIZE PUSH1 0x0 DUP1 RETURNDATACOPY RETURNDATASIZE PUSH1 0x0 REVERT JUMPDEST POP POP POP POP POP POP JUMP JUMPDEST PUSH2 0x113D PUSH2 0x1307 JUMP JUMPDEST PUSH2 0x116E PUSH32 0xBD1D99152BDBA889F82A18DEF1423AAC13658B88B6EA933FFD0B3A6A1DD5CFF9 PUSH2 0x1169 PUSH2 0x13FF JUMP JUMPDEST PUSH2 0xC0F JUMP JUMPDEST DUP1 PUSH2 0x1189 JUMPI POP PUSH2 0x1188 PUSH1 0x0 DUP1 SHL PUSH2 0x1183 PUSH2 0x13FF JUMP JUMPDEST PUSH2 0xC0F JUMP JUMPDEST JUMPDEST PUSH2 0x11C8 JUMPI PUSH1 0x40 MLOAD PUSH32 0x8C379A000000000000000000000000000000000000000000000000000000000 DUP2 MSTORE PUSH1 0x4 ADD PUSH2 0x11BF SWAP1 PUSH2 0x253E JUMP JUMPDEST PUSH1 0x40 MLOAD DUP1 SWAP2 SUB SWAP1 REVERT JUMPDEST PUSH1 0x6 SLOAD TIMESTAMP GT DUP1 ISZERO PUSH2 0x11E9 JUMPI POP PUSH1 0x9 PUSH1 0x2 ADD PUSH1 0x0 SWAP1 SLOAD SWAP1 PUSH2 0x100 EXP SWAP1 DIV PUSH1 0xFF AND ISZERO JUMPDEST PUSH2 0x1228 JUMPI PUSH1 0x40 MLOAD PUSH32 0x8C379A000000000000000000000000000000000000000000000000000000000 DUP2 MSTORE PUSH1 0x4 ADD PUSH2 0x121F SWAP1 PUSH2 0x247E JUMP JUMPDEST PUSH1 0x40 MLOAD DUP1 SWAP2 SUB SWAP1 REVERT JUMPDEST PUSH1 0x0 PUSH1 0x1 PUSH2 0x1234 PUSH2 0xB42 JUMP JUMPDEST PUSH2 0x123E SWAP2 SWAP1 PUSH2 0x2809 JUMP JUMPDEST PUSH2 0x1246 PUSH2 0x80E JUMP JUMPDEST PUSH2 0x1250 SWAP2 SWAP1 PUSH2 0x2809 JUMP JUMPDEST SWAP1 POP JUMPDEST PUSH1 0x0 DUP2 GT ISZERO PUSH2 0x129A JUMPI PUSH2 0x1287 PUSH1 0x4 PUSH1 0x0 SWAP1 SLOAD SWAP1 PUSH2 0x100 EXP SWAP1 DIV PUSH20 0xFFFFFFFFFFFFFFFFFFFFFFFFFFFFFFFFFFFFFFFF AND PUSH2 0x1407 JUMP JUMPDEST DUP1 DUP1 PUSH2 0x1292 SWAP1 PUSH2 0x2969 JUMP JUMPDEST SWAP2 POP POP PUSH2 0x1253 JUMP JUMPDEST POP JUMP JUMPDEST PUSH1 0x0 PUSH32 0x1FFC9A700000000000000000000000000000000000000000000000000000000 PUSH28 0xFFFFFFFFFFFFFFFFFFFFFFFFFFFFFFFFFFFFFFFFFFFFFFFFFFFFFFFF NOT AND DUP3 PUSH28 0xFFFFFFFFFFFFFFFFFFFFFFFFFFFFFFFFFFFFFFFFFFFFFFFFFFFFFFFF NOT AND EQ SWAP1 POP SWAP2 SWAP1 POP JUMP JUMPDEST PUSH1 0x6 SLOAD PUSH1 0x5 SLOAD GT ISZERO PUSH2 0x134E JUMPI PUSH1 0x40 MLOAD PUSH32 0x8C379A000000000000000000000000000000000000000000000000000000000 DUP2 MSTORE PUSH1 0x4 ADD PUSH2 0x1345 SWAP1 PUSH2 0x251E JUMP JUMPDEST PUSH1 0x40 MLOAD DUP1 SWAP2 SUB SWAP1 REVERT JUMPDEST PUSH3 0xF4240 PUSH1 0x1 PUSH2 0x135E SWAP2 SWAP1 PUSH2 0x27AF JUMP JUMPDEST PUSH1 0x3C PUSH1 0x5 SLOAD TIMESTAMP PUSH2 0x136E SWAP2 SWAP1 PUSH2 0x2809 JUMP JUMPDEST PUSH2 0x1378 SWAP2 SWAP1 PUSH2 0x277E JUMP JUMPDEST PUSH2 0x1382 SWAP2 SWAP1 PUSH2 0x27AF JUMP JUMPDEST PUSH1 0x7 SLOAD PUSH2 0x138F SWAP2 SWAP1 PUSH2 0x2809 JUMP JUMPDEST PUSH1 0x9 PUSH1 0x0 ADD DUP2 SWAP1 SSTORE POP TIMESTAMP PUSH1 0x9 PUSH1 0x1 ADD DUP2 SWAP1 SSTORE POP PUSH1 0x5 SLOAD TIMESTAMP LT ISZERO DUP1 ISZERO PUSH2 0x13B6 JUMPI POP PUSH1 0x6 SLOAD TIMESTAMP GT ISZERO JUMPDEST ISZERO PUSH2 0x13DE JUMPI PUSH1 0x1 PUSH1 0x9 PUSH1 0x2 ADD PUSH1 0x0 PUSH2 0x100 EXP DUP2 SLOAD DUP2 PUSH1 0xFF MUL NOT AND SWAP1 DUP4 ISZERO ISZERO MUL OR SWAP1 SSTORE POP PUSH2 0x13FD JUMP JUMPDEST PUSH1 0x0 PUSH1 0x9 PUSH1 0x2 ADD PUSH1 0x0 PUSH2 0x100 EXP DUP2 SLOAD DUP2 PUSH1 0xFF MUL NOT AND SWAP1 DUP4 ISZERO ISZERO MUL OR SWAP1 SSTORE POP JUMPDEST JUMP JUMPDEST PUSH1 0x0 CALLER SWAP1 POP SWAP1 JUMP JUMPDEST PUSH1 0x1 PUSH1 0x0 SWAP1 SLOAD SWAP1 PUSH2 0x100 EXP SWAP1 DIV PUSH20 0xFFFFFFFFFFFFFFFFFFFFFFFFFFFFFFFFFFFFFFFF AND PUSH20 0xFFFFFFFFFFFFFFFFFFFFFFFFFFFFFFFFFFFFFFFF AND PUSH4 0x55676590 DUP3 PUSH1 0x40 MLOAD DUP3 PUSH4 0xFFFFFFFF AND PUSH1 0xE0 SHL DUP2 MSTORE PUSH1 0x4 ADD PUSH2 0x1462 SWAP2 SWAP1 PUSH2 0x233A JUMP JUMPDEST PUSH1 0x0 PUSH1 0x40 MLOAD DUP1 DUP4 SUB DUP2 PUSH1 0x0 DUP8 DUP1 EXTCODESIZE ISZERO DUP1 ISZERO PUSH2 0x147C JUMPI PUSH1 0x0 DUP1 REVERT JUMPDEST POP GAS CALL ISZERO DUP1 ISZERO PUSH2 0x1490 JUMPI RETURNDATASIZE PUSH1 0x0 DUP1 RETURNDATACOPY RETURNDATASIZE PUSH1 0x0 REVERT JUMPDEST POP POP POP POP POP JUMP JUMPDEST PUSH2 0x14A1 DUP3 DUP3 PUSH2 0xC0F JUMP JUMPDEST PUSH2 0x1530 JUMPI PUSH2 0x14C6 DUP2 PUSH20 0xFFFFFFFFFFFFFFFFFFFFFFFFFFFFFFFFFFFFFFFF AND PUSH1 0x14 PUSH2 0x17AA JUMP JUMPDEST PUSH2 0x14D4 DUP4 PUSH1 0x0 SHR PUSH1 0x20 PUSH2 0x17AA JUMP JUMPDEST PUSH1 0x40 MLOAD PUSH1 0x20 ADD PUSH2 0x14E5 SWAP3 SWAP2 SWAP1 PUSH2 0x2300 JUMP JUMPDEST PUSH1 0x40 MLOAD PUSH1 0x20 DUP2 DUP4 SUB SUB DUP2 MSTORE SWAP1 PUSH1 0x40 MSTORE PUSH1 0x40 MLOAD PUSH32 0x8C379A000000000000000000000000000000000000000000000000000000000 DUP2 MSTORE PUSH1 0x4 ADD PUSH2 0x1527 SWAP2 SWAP1 PUSH2 0x243C JUMP JUMPDEST PUSH1 0x40 MLOAD DUP1 SWAP2 SUB SWAP1 REVERT JUMPDEST POP POP JUMP JUMPDEST PUSH2 0x153E DUP3 DUP3 PUSH2 0xC0F JUMP JUMPDEST PUSH2 0x1610 JUMPI PUSH1 0x1 PUSH1 0x0 DUP1 DUP5 DUP2 MSTORE PUSH1 0x20 ADD SWAP1 DUP2 MSTORE PUSH1 0x20 ADD PUSH1 0x0 KECCAK256 PUSH1 0x0 ADD PUSH1 0x0 DUP4 PUSH20 0xFFFFFFFFFFFFFFFFFFFFFFFFFFFFFFFFFFFFFFFF AND PUSH20 0xFFFFFFFFFFFFFFFFFFFFFFFFFFFFFFFFFFFFFFFF AND DUP2 MSTORE PUSH1 0x20 ADD SWAP1 DUP2 MSTORE PUSH1 0x20 ADD PUSH1 0x0 KECCAK256 PUSH1 0x0 PUSH2 0x100 EXP DUP2 SLOAD DUP2 PUSH1 0xFF MUL NOT AND SWAP1 DUP4 ISZERO ISZERO MUL OR SWAP1 SSTORE POP PUSH2 0x15B5 PUSH2 0x13FF JUMP JUMPDEST PUSH20 0xFFFFFFFFFFFFFFFFFFFFFFFFFFFFFFFFFFFFFFFF AND DUP2 PUSH20 0xFFFFFFFFFFFFFFFFFFFFFFFFFFFFFFFFFFFFFFFF AND DUP4 PUSH32 0x2F8788117E7EFF1D82E926EC794901D17C78024A50270940304540A733656F0D PUSH1 0x40 MLOAD PUSH1 0x40 MLOAD DUP1 SWAP2 SUB SWAP1 LOG4 JUMPDEST POP POP JUMP JUMPDEST PUSH2 0x161E DUP3 DUP3 PUSH2 0xC0F JUMP JUMPDEST ISZERO PUSH2 0x16F1 JUMPI PUSH1 0x0 DUP1 PUSH1 0x0 DUP5 DUP2 MSTORE PUSH1 0x20 ADD SWAP1 DUP2 MSTORE PUSH1 0x20 ADD PUSH1 0x0 KECCAK256 PUSH1 0x0 ADD PUSH1 0x0 DUP4 PUSH20 0xFFFFFFFFFFFFFFFFFFFFFFFFFFFFFFFFFFFFFFFF AND PUSH20 0xFFFFFFFFFFFFFFFFFFFFFFFFFFFFFFFFFFFFFFFF AND DUP2 MSTORE PUSH1 0x20 ADD SWAP1 DUP2 MSTORE PUSH1 0x20 ADD PUSH1 0x0 KECCAK256 PUSH1 0x0 PUSH2 0x100 EXP DUP2 SLOAD DUP2 PUSH1 0xFF MUL NOT AND SWAP1 DUP4 ISZERO ISZERO MUL OR SWAP1 SSTORE POP PUSH2 0x1696 PUSH2 0x13FF JUMP JUMPDEST PUSH20 0xFFFFFFFFFFFFFFFFFFFFFFFFFFFFFFFFFFFFFFFF AND DUP2 PUSH20 0xFFFFFFFFFFFFFFFFFFFFFFFFFFFFFFFFFFFFFFFF AND DUP4 PUSH32 0xF6391F5C32D9C69D2A47EA670B442974B53935D1EDC7FD64EB21E047A839171B PUSH1 0x40 MLOAD PUSH1 0x40 MLOAD DUP1 SWAP2 SUB SWAP1 LOG4 JUMPDEST POP POP JUMP JUMPDEST PUSH1 0x3 PUSH1 0x0 SWAP1 SLOAD SWAP1 PUSH2 0x100 EXP SWAP1 DIV PUSH20 0xFFFFFFFFFFFFFFFFFFFFFFFFFFFFFFFFFFFFFFFF AND PUSH20 0xFFFFFFFFFFFFFFFFFFFFFFFFFFFFFFFFFFFFFFFF AND PUSH4 0x532B2913 CALLER DUP4 PUSH1 0x40 MLOAD DUP4 PUSH4 0xFFFFFFFF AND PUSH1 0xE0 SHL DUP2 MSTORE PUSH1 0x4 ADD PUSH2 0x1752 SWAP3 SWAP2 SWAP1 PUSH2 0x2355 JUMP JUMPDEST PUSH1 0x0 PUSH1 0x40 MLOAD DUP1 DUP4 SUB DUP2 PUSH1 0x0 DUP8 DUP1 EXTCODESIZE ISZERO DUP1 ISZERO PUSH2 0x176C JUMPI PUSH1 0x0 DUP1 REVERT JUMPDEST POP GAS CALL ISZERO DUP1 ISZERO PUSH2 0x1780 JUMPI RETURNDATASIZE PUSH1 0x0 DUP1 RETURNDATACOPY RETURNDATASIZE PUSH1 0x0 REVERT JUMPDEST POP POP POP POP PUSH2 0x178D CALLER PUSH2 0x1407 JUMP JUMPDEST POP JUMP JUMPDEST PUSH1 0x0 DUP2 DUP4 LT ISZERO PUSH2 0x17A0 JUMPI DUP2 PUSH2 0x17A2 JUMP JUMPDEST DUP3 JUMPDEST SWAP1 POP SWAP3 SWAP2 POP POP JUMP JUMPDEST PUSH1 0x60 PUSH1 0x0 PUSH1 0x2 DUP4 PUSH1 0x2 PUSH2 0x17BD SWAP2 SWAP1 PUSH2 0x27AF JUMP JUMPDEST PUSH2 0x17C7 SWAP2 SWAP1 PUSH2 0x2728 JUMP JUMPDEST PUSH8 0xFFFFFFFFFFFFFFFF DUP2 GT ISZERO PUSH2 0x1806 JUMPI PUSH32 0x4E487B7100000000000000000000000000000000000000000000000000000000 PUSH1 0x0 MSTORE PUSH1 0x41 PUSH1 0x4 MSTORE PUSH1 0x24 PUSH1 0x0 REVERT JUMPDEST PUSH1 0x40 MLOAD SWAP1 DUP1 DUP3 MSTORE DUP1 PUSH1 0x1F ADD PUSH1 0x1F NOT AND PUSH1 0x20 ADD DUP3 ADD PUSH1 0x40 MSTORE DUP1 ISZERO PUSH2 0x1838 JUMPI DUP2 PUSH1 0x20 ADD PUSH1 0x1 DUP3 MUL DUP1 CALLDATASIZE DUP4 CALLDATACOPY DUP1 DUP3 ADD SWAP2 POP POP SWAP1 POP JUMPDEST POP SWAP1 POP PUSH32 0x3000000000000000000000000000000000000000000000000000000000000000 DUP2 PUSH1 0x0 DUP2 MLOAD DUP2 LT PUSH2 0x1896 JUMPI PUSH32 0x4E487B7100000000000000000000000000000000000000000000000000000000 PUSH1 0x0 MSTORE PUSH1 0x32 PUSH1 0x4 MSTORE PUSH1 0x24 PUSH1 0x0 REVERT JUMPDEST PUSH1 0x20 ADD ADD SWAP1 PUSH31 0xFFFFFFFFFFFFFFFFFFFFFFFFFFFFFFFFFFFFFFFFFFFFFFFFFFFFFFFFFFFFFF NOT AND SWAP1 DUP2 PUSH1 0x0 BYTE SWAP1 MSTORE8 POP PUSH32 0x7800000000000000000000000000000000000000000000000000000000000000 DUP2 PUSH1 0x1 DUP2 MLOAD DUP2 LT PUSH2 0x1920 JUMPI PUSH32 0x4E487B7100000000000000000000000000000000000000000000000000000000 PUSH1 0x0 MSTORE PUSH1 0x32 PUSH1 0x4 MSTORE PUSH1 0x24 PUSH1 0x0 REVERT JUMPDEST PUSH1 0x20 ADD ADD SWAP1 PUSH31 0xFFFFFFFFFFFFFFFFFFFFFFFFFFFFFFFFFFFFFFFFFFFFFFFFFFFFFFFFFFFFFF NOT AND SWAP1 DUP2 PUSH1 0x0 BYTE SWAP1 MSTORE8 POP PUSH1 0x0 PUSH1 0x1 DUP5 PUSH1 0x2 PUSH2 0x1960 SWAP2 SWAP1 PUSH2 0x27AF JUMP JUMPDEST PUSH2 0x196A SWAP2 SWAP1 PUSH2 0x2728 JUMP JUMPDEST SWAP1 POP JUMPDEST PUSH1 0x1 DUP2 GT ISZERO PUSH2 0x1A56 JUMPI PUSH32 0x3031323334353637383961626364656600000000000000000000000000000000 PUSH1 0xF DUP7 AND PUSH1 0x10 DUP2 LT PUSH2 0x19D2 JUMPI PUSH32 0x4E487B7100000000000000000000000000000000000000000000000000000000 PUSH1 0x0 MSTORE PUSH1 0x32 PUSH1 0x4 MSTORE PUSH1 0x24 PUSH1 0x0 REVERT JUMPDEST BYTE PUSH1 0xF8 SHL DUP3 DUP3 DUP2 MLOAD DUP2 LT PUSH2 0x1A0F JUMPI PUSH32 0x4E487B7100000000000000000000000000000000000000000000000000000000 PUSH1 0x0 MSTORE PUSH1 0x32 PUSH1 0x4 MSTORE PUSH1 0x24 PUSH1 0x0 REVERT JUMPDEST PUSH1 0x20 ADD ADD SWAP1 PUSH31 0xFFFFFFFFFFFFFFFFFFFFFFFFFFFFFFFFFFFFFFFFFFFFFFFFFFFFFFFFFFFFFF NOT AND SWAP1 DUP2 PUSH1 0x0 BYTE SWAP1 MSTORE8 POP PUSH1 0x4 DUP6 SWAP1 SHR SWAP5 POP DUP1 PUSH2 0x1A4F SWAP1 PUSH2 0x2969 JUMP JUMPDEST SWAP1 POP PUSH2 0x196D JUMP JUMPDEST POP PUSH1 0x0 DUP5 EQ PUSH2 0x1A9A JUMPI PUSH1 0x40 MLOAD PUSH32 0x8C379A000000000000000000000000000000000000000000000000000000000 DUP2 MSTORE PUSH1 0x4 ADD PUSH2 0x1A91 SWAP1 PUSH2 0x245E JUMP JUMPDEST PUSH1 0x40 MLOAD DUP1 SWAP2 SUB SWAP1 REVERT JUMPDEST DUP1 SWAP2 POP POP SWAP3 SWAP2 POP POP JUMP JUMPDEST PUSH1 0x0 PUSH2 0x1AB7 PUSH2 0x1AB2 DUP5 PUSH2 0x25F5 JUMP JUMPDEST PUSH2 0x25D0 JUMP JUMPDEST SWAP1 POP DUP1 DUP4 DUP3 MSTORE PUSH1 0x20 DUP3 ADD SWAP1 POP DUP3 PUSH1 0x0 JUMPDEST DUP6 DUP2 LT ISZERO PUSH2 0x1AF7 JUMPI DUP2 CALLDATALOAD DUP6 ADD PUSH2 0x1ADD DUP9 DUP3 PUSH2 0x1C53 JUMP JUMPDEST DUP5 MSTORE PUSH1 0x20 DUP5 ADD SWAP4 POP PUSH1 0x20 DUP4 ADD SWAP3 POP POP PUSH1 0x1 DUP2 ADD SWAP1 POP PUSH2 0x1AC7 JUMP JUMPDEST POP POP POP SWAP4 SWAP3 POP POP POP JUMP JUMPDEST PUSH1 0x0 PUSH2 0x1B14 PUSH2 0x1B0F DUP5 PUSH2 0x2621 JUMP JUMPDEST PUSH2 0x25D0 JUMP JUMPDEST SWAP1 POP DUP1 DUP4 DUP3 MSTORE PUSH1 0x20 DUP3 ADD SWAP1 POP DUP3 DUP6 PUSH1 0x20 DUP7 MUL DUP3 ADD GT ISZERO PUSH2 0x1B33 JUMPI PUSH1 0x0 DUP1 REVERT JUMPDEST PUSH1 0x0 JUMPDEST DUP6 DUP2 LT ISZERO PUSH2 0x1B63 JUMPI DUP2 PUSH2 0x1B49 DUP9 DUP3 PUSH2 0x1C7D JUMP JUMPDEST DUP5 MSTORE PUSH1 0x20 DUP5 ADD SWAP4 POP PUSH1 0x20 DUP4 ADD SWAP3 POP POP PUSH1 0x1 DUP2 ADD SWAP1 POP PUSH2 0x1B36 JUMP JUMPDEST POP POP POP SWAP4 SWAP3 POP POP POP JUMP JUMPDEST PUSH1 0x0 PUSH2 0x1B80 PUSH2 0x1B7B DUP5 PUSH2 0x264D JUMP JUMPDEST PUSH2 0x25D0 JUMP JUMPDEST SWAP1 POP DUP3 DUP2 MSTORE PUSH1 0x20 DUP2 ADD DUP5 DUP5 DUP5 ADD GT ISZERO PUSH2 0x1B98 JUMPI PUSH1 0x0 DUP1 REVERT JUMPDEST PUSH2 0x1BA3 DUP5 DUP3 DUP6 PUSH2 0x2927 JUMP JUMPDEST POP SWAP4 SWAP3 POP POP POP JUMP JUMPDEST PUSH1 0x0 DUP2 CALLDATALOAD SWAP1 POP PUSH2 0x1BBA DUP2 PUSH2 0x2DBF JUMP JUMPDEST SWAP3 SWAP2 POP POP JUMP JUMPDEST PUSH1 0x0 DUP3 PUSH1 0x1F DUP4 ADD SLT PUSH2 0x1BD1 JUMPI PUSH1 0x0 DUP1 REVERT JUMPDEST DUP2 CALLDATALOAD PUSH2 0x1BE1 DUP5 DUP3 PUSH1 0x20 DUP7 ADD PUSH2 0x1AA4 JUMP JUMPDEST SWAP2 POP POP SWAP3 SWAP2 POP POP JUMP JUMPDEST PUSH1 0x0 DUP3 PUSH1 0x1F DUP4 ADD SLT PUSH2 0x1BFB JUMPI PUSH1 0x0 DUP1 REVERT JUMPDEST DUP2 CALLDATALOAD PUSH2 0x1C0B DUP5 DUP3 PUSH1 0x20 DUP7 ADD PUSH2 0x1B01 JUMP JUMPDEST SWAP2 POP POP SWAP3 SWAP2 POP POP JUMP JUMPDEST PUSH1 0x0 DUP2 MLOAD SWAP1 POP PUSH2 0x1C23 DUP2 PUSH2 0x2DD6 JUMP JUMPDEST SWAP3 SWAP2 POP POP JUMP JUMPDEST PUSH1 0x0 DUP2 CALLDATALOAD SWAP1 POP PUSH2 0x1C38 DUP2 PUSH2 0x2DED JUMP JUMPDEST SWAP3 SWAP2 POP POP JUMP JUMPDEST PUSH1 0x0 DUP2 CALLDATALOAD SWAP1 POP PUSH2 0x1C4D DUP2 PUSH2 0x2E04 JUMP JUMPDEST SWAP3 SWAP2 POP POP JUMP JUMPDEST PUSH1 0x0 DUP3 PUSH1 0x1F DUP4 ADD SLT PUSH2 0x1C64 JUMPI PUSH1 0x0 DUP1 REVERT JUMPDEST DUP2 CALLDATALOAD PUSH2 0x1C74 DUP5 DUP3 PUSH1 0x20 DUP7 ADD PUSH2 0x1B6D JUMP JUMPDEST SWAP2 POP POP SWAP3 SWAP2 POP POP JUMP JUMPDEST PUSH1 0x0 DUP2 CALLDATALOAD SWAP1 POP PUSH2 0x1C8C DUP2 PUSH2 0x2E1B JUMP JUMPDEST SWAP3 SWAP2 POP POP JUMP JUMPDEST PUSH1 0x0 DUP2 MLOAD SWAP1 POP PUSH2 0x1CA1 DUP2 PUSH2 0x2E1B JUMP JUMPDEST SWAP3 SWAP2 POP POP JUMP JUMPDEST PUSH1 0x0 PUSH1 0x20 DUP3 DUP5 SUB SLT ISZERO PUSH2 0x1CB9 JUMPI PUSH1 0x0 DUP1 REVERT JUMPDEST PUSH1 0x0 PUSH2 0x1CC7 DUP5 DUP3 DUP6 ADD PUSH2 0x1BAB JUMP JUMPDEST SWAP2 POP POP SWAP3 SWAP2 POP POP JUMP JUMPDEST PUSH1 0x0 DUP1 PUSH1 0x40 DUP4 DUP6 SUB SLT ISZERO PUSH2 0x1CE3 JUMPI PUSH1 0x0 DUP1 REVERT JUMPDEST PUSH1 0x0 PUSH2 0x1CF1 DUP6 DUP3 DUP7 ADD PUSH2 0x1BAB JUMP JUMPDEST SWAP3 POP POP PUSH1 0x20 PUSH2 0x1D02 DUP6 DUP3 DUP7 ADD PUSH2 0x1C7D JUMP JUMPDEST SWAP2 POP POP SWAP3 POP SWAP3 SWAP1 POP JUMP JUMPDEST PUSH1 0x0 DUP1 PUSH1 0x40 DUP4 DUP6 SUB SLT ISZERO PUSH2 0x1D1F JUMPI PUSH1 0x0 DUP1 REVERT JUMPDEST PUSH1 0x0 DUP4 ADD CALLDATALOAD PUSH8 0xFFFFFFFFFFFFFFFF DUP2 GT ISZERO PUSH2 0x1D39 JUMPI PUSH1 0x0 DUP1 REVERT JUMPDEST PUSH2 0x1D45 DUP6 DUP3 DUP7 ADD PUSH2 0x1BEA JUMP JUMPDEST SWAP3 POP POP PUSH1 0x20 DUP4 ADD CALLDATALOAD PUSH8 0xFFFFFFFFFFFFFFFF DUP2 GT ISZERO PUSH2 0x1D62 JUMPI PUSH1 0x0 DUP1 REVERT JUMPDEST PUSH2 0x1D6E DUP6 DUP3 DUP7 ADD PUSH2 0x1BC0 JUMP JUMPDEST SWAP2 POP POP SWAP3 POP SWAP3 SWAP1 POP JUMP JUMPDEST PUSH1 0x0 PUSH1 0x20 DUP3 DUP5 SUB SLT ISZERO PUSH2 0x1D8A JUMPI PUSH1 0x0 DUP1 REVERT JUMPDEST PUSH1 0x0 PUSH2 0x1D98 DUP5 DUP3 DUP6 ADD PUSH2 0x1C14 JUMP JUMPDEST SWAP2 POP POP SWAP3 SWAP2 POP POP JUMP JUMPDEST PUSH1 0x0 PUSH1 0x20 DUP3 DUP5 SUB SLT ISZERO PUSH2 0x1DB3 JUMPI PUSH1 0x0 DUP1 REVERT JUMPDEST PUSH1 0x0 PUSH2 0x1DC1 DUP5 DUP3 DUP6 ADD PUSH2 0x1C29 JUMP JUMPDEST SWAP2 POP POP SWAP3 SWAP2 POP POP JUMP JUMPDEST PUSH1 0x0 DUP1 PUSH1 0x40 DUP4 DUP6 SUB SLT ISZERO PUSH2 0x1DDD JUMPI PUSH1 0x0 DUP1 REVERT JUMPDEST PUSH1 0x0 PUSH2 0x1DEB DUP6 DUP3 DUP7 ADD PUSH2 0x1C29 JUMP JUMPDEST SWAP3 POP POP PUSH1 0x20 PUSH2 0x1DFC DUP6 DUP3 DUP7 ADD PUSH2 0x1BAB JUMP JUMPDEST SWAP2 POP POP SWAP3 POP SWAP3 SWAP1 POP JUMP JUMPDEST PUSH1 0x0 PUSH1 0x20 DUP3 DUP5 SUB SLT ISZERO PUSH2 0x1E18 JUMPI PUSH1 0x0 DUP1 REVERT JUMPDEST PUSH1 0x0 PUSH2 0x1E26 DUP5 DUP3 DUP6 ADD PUSH2 0x1C3E JUMP JUMPDEST SWAP2 POP POP SWAP3 SWAP2 POP POP JUMP JUMPDEST PUSH1 0x0 PUSH1 0x20 DUP3 DUP5 SUB SLT ISZERO PUSH2 0x1E41 JUMPI PUSH1 0x0 DUP1 REVERT JUMPDEST PUSH1 0x0 PUSH2 0x1E4F DUP5 DUP3 DUP6 ADD PUSH2 0x1C7D JUMP JUMPDEST SWAP2 POP POP SWAP3 SWAP2 POP POP JUMP JUMPDEST PUSH1 0x0 PUSH1 0x20 DUP3 DUP5 SUB SLT ISZERO PUSH2 0x1E6A JUMPI PUSH1 0x0 DUP1 REVERT JUMPDEST PUSH1 0x0 PUSH2 0x1E78 DUP5 DUP3 DUP6 ADD PUSH2 0x1C92 JUMP JUMPDEST SWAP2 POP POP SWAP3 SWAP2 POP POP JUMP JUMPDEST PUSH1 0x0 PUSH2 0x1E8D DUP4 DUP4 PUSH2 0x1FF1 JUMP JUMPDEST SWAP1 POP SWAP3 SWAP2 POP POP JUMP JUMPDEST PUSH1 0x0 PUSH2 0x1EA1 DUP4 DUP4 PUSH2 0x227E JUMP JUMPDEST PUSH1 0x20 DUP4 ADD SWAP1 POP SWAP3 SWAP2 POP POP JUMP JUMPDEST PUSH2 0x1EB6 DUP2 PUSH2 0x283D JUMP JUMPDEST DUP3 MSTORE POP POP JUMP JUMPDEST PUSH2 0x1ECD PUSH2 0x1EC8 DUP3 PUSH2 0x283D JUMP JUMPDEST PUSH2 0x29C4 JUMP JUMPDEST DUP3 MSTORE POP POP JUMP JUMPDEST PUSH1 0x0 PUSH2 0x1EDE DUP3 PUSH2 0x269E JUMP JUMPDEST PUSH2 0x1EE8 DUP2 DUP6 PUSH2 0x26D9 JUMP JUMPDEST SWAP4 POP DUP4 PUSH1 0x20 DUP3 MUL DUP6 ADD PUSH2 0x1EFA DUP6 PUSH2 0x267E JUMP JUMPDEST DUP1 PUSH1 0x0 JUMPDEST DUP6 DUP2 LT ISZERO PUSH2 0x1F36 JUMPI DUP5 DUP5 SUB DUP10 MSTORE DUP2 MLOAD PUSH2 0x1F17 DUP6 DUP3 PUSH2 0x1E81 JUMP JUMPDEST SWAP5 POP PUSH2 0x1F22 DUP4 PUSH2 0x26BF JUMP JUMPDEST SWAP3 POP PUSH1 0x20 DUP11 ADD SWAP10 POP POP PUSH1 0x1 DUP2 ADD SWAP1 POP PUSH2 0x1EFE JUMP JUMPDEST POP DUP3 SWAP8 POP DUP8 SWAP6 POP POP POP POP POP POP SWAP3 SWAP2 POP POP JUMP JUMPDEST PUSH1 0x0 PUSH2 0x1F53 DUP3 PUSH2 0x26A9 JUMP JUMPDEST PUSH2 0x1F5D DUP2 DUP6 PUSH2 0x26EA JUMP JUMPDEST SWAP4 POP PUSH2 0x1F68 DUP4 PUSH2 0x268E JUMP JUMPDEST DUP1 PUSH1 0x0 JUMPDEST DUP4 DUP2 LT ISZERO PUSH2 0x1F99 JUMPI DUP2 MLOAD PUSH2 0x1F80 DUP9 DUP3 PUSH2 0x1E95 JUMP JUMPDEST SWAP8 POP PUSH2 0x1F8B DUP4 PUSH2 0x26CC JUMP JUMPDEST SWAP3 POP POP PUSH1 0x1 DUP2 ADD SWAP1 POP PUSH2 0x1F6C JUMP JUMPDEST POP DUP6 SWAP4 POP POP POP POP SWAP3 SWAP2 POP POP JUMP JUMPDEST PUSH2 0x1FAF DUP2 PUSH2 0x284F JUMP JUMPDEST DUP3 MSTORE POP POP JUMP JUMPDEST PUSH2 0x1FBE DUP2 PUSH2 0x285B JUMP JUMPDEST DUP3 MSTORE POP POP JUMP JUMPDEST PUSH2 0x1FCD DUP2 PUSH2 0x28BB JUMP JUMPDEST DUP3 MSTORE POP POP JUMP JUMPDEST PUSH2 0x1FDC DUP2 PUSH2 0x28DF JUMP JUMPDEST DUP3 MSTORE POP POP JUMP JUMPDEST PUSH2 0x1FEB DUP2 PUSH2 0x2903 JUMP JUMPDEST DUP3 MSTORE POP POP JUMP JUMPDEST PUSH1 0x0 PUSH2 0x1FFC DUP3 PUSH2 0x26B4 JUMP JUMPDEST PUSH2 0x2006 DUP2 DUP6 PUSH2 0x26FB JUMP JUMPDEST SWAP4 POP PUSH2 0x2016 DUP2 DUP6 PUSH1 0x20 DUP7 ADD PUSH2 0x2936 JUMP JUMPDEST PUSH2 0x201F DUP2 PUSH2 0x2A7F JUMP JUMPDEST DUP5 ADD SWAP2 POP POP SWAP3 SWAP2 POP POP JUMP JUMPDEST PUSH1 0x0 PUSH2 0x2035 DUP3 PUSH2 0x26B4 JUMP JUMPDEST PUSH2 0x203F DUP2 DUP6 PUSH2 0x270C JUMP JUMPDEST SWAP4 POP PUSH2 0x204F DUP2 DUP6 PUSH1 0x20 DUP7 ADD PUSH2 0x2936 JUMP JUMPDEST PUSH2 0x2058 DUP2 PUSH2 0x2A7F JUMP JUMPDEST DUP5 ADD SWAP2 POP POP SWAP3 SWAP2 POP POP JUMP JUMPDEST PUSH1 0x0 PUSH2 0x206E DUP3 PUSH2 0x26B4 JUMP JUMPDEST PUSH2 0x2078 DUP2 DUP6 PUSH2 0x271D JUMP JUMPDEST SWAP4 POP PUSH2 0x2088 DUP2 DUP6 PUSH1 0x20 DUP7 ADD PUSH2 0x2936 JUMP JUMPDEST DUP1 DUP5 ADD SWAP2 POP POP SWAP3 SWAP2 POP POP JUMP JUMPDEST PUSH1 0x0 PUSH2 0x20A1 PUSH1 0x20 DUP4 PUSH2 0x270C JUMP JUMPDEST SWAP2 POP PUSH2 0x20AC DUP3 PUSH2 0x2A9D JUMP JUMPDEST PUSH1 0x20 DUP3 ADD SWAP1 POP SWAP2 SWAP1 POP JUMP JUMPDEST PUSH1 0x0 PUSH2 0x20C4 PUSH1 0x8 DUP4 PUSH2 0x271D JUMP JUMPDEST SWAP2 POP PUSH2 0x20CF DUP3 PUSH2 0x2AC6 JUMP JUMPDEST PUSH1 0x8 DUP3 ADD SWAP1 POP SWAP2 SWAP1 POP JUMP JUMPDEST PUSH1 0x0 PUSH2 0x20E7 PUSH1 0x36 DUP4 PUSH2 0x270C JUMP JUMPDEST SWAP2 POP PUSH2 0x20F2 DUP3 PUSH2 0x2AEF JUMP JUMPDEST PUSH1 0x40 DUP3 ADD SWAP1 POP SWAP2 SWAP1 POP JUMP JUMPDEST PUSH1 0x0 PUSH2 0x210A PUSH1 0x1B DUP4 PUSH2 0x270C JUMP JUMPDEST SWAP2 POP PUSH2 0x2115 DUP3 PUSH2 0x2B3E JUMP JUMPDEST PUSH1 0x20 DUP3 ADD SWAP1 POP SWAP2 SWAP1 POP JUMP JUMPDEST PUSH1 0x0 PUSH2 0x212D PUSH1 0x23 DUP4 PUSH2 0x270C JUMP JUMPDEST SWAP2 POP PUSH2 0x2138 DUP3 PUSH2 0x2B67 JUMP JUMPDEST PUSH1 0x40 DUP3 ADD SWAP1 POP SWAP2 SWAP1 POP JUMP JUMPDEST PUSH1 0x0 PUSH2 0x2150 PUSH1 0x22 DUP4 PUSH2 0x270C JUMP JUMPDEST SWAP2 POP PUSH2 0x215B DUP3 PUSH2 0x2BB6 JUMP JUMPDEST PUSH1 0x40 DUP3 ADD SWAP1 POP SWAP2 SWAP1 POP JUMP JUMPDEST PUSH1 0x0 PUSH2 0x2173 PUSH1 0x1 DUP4 PUSH2 0x271D JUMP JUMPDEST SWAP2 POP PUSH2 0x217E DUP3 PUSH2 0x2C05 JUMP JUMPDEST PUSH1 0x1 DUP3 ADD SWAP1 POP SWAP2 SWAP1 POP JUMP JUMPDEST PUSH1 0x0 PUSH2 0x2196 PUSH1 0x30 DUP4 PUSH2 0x271D JUMP JUMPDEST SWAP2 POP PUSH2 0x21A1 DUP3 PUSH2 0x2C2E JUMP JUMPDEST PUSH1 0x30 DUP3 ADD SWAP1 POP SWAP2 SWAP1 POP JUMP JUMPDEST PUSH1 0x0 PUSH2 0x21B9 PUSH1 0x16 DUP4 PUSH2 0x270C JUMP JUMPDEST SWAP2 POP PUSH2 0x21C4 DUP3 PUSH2 0x2C7D JUMP JUMPDEST PUSH1 0x20 DUP3 ADD SWAP1 POP SWAP2 SWAP1 POP JUMP JUMPDEST PUSH1 0x0 PUSH2 0x21DC PUSH1 0x1F DUP4 PUSH2 0x270C JUMP JUMPDEST SWAP2 POP PUSH2 0x21E7 DUP3 PUSH2 0x2CA6 JUMP JUMPDEST PUSH1 0x20 DUP3 ADD SWAP1 POP SWAP2 SWAP1 POP JUMP JUMPDEST PUSH1 0x0 PUSH2 0x21FF PUSH1 0x27 DUP4 PUSH2 0x270C JUMP JUMPDEST SWAP2 POP PUSH2 0x220A DUP3 PUSH2 0x2CCF JUMP JUMPDEST PUSH1 0x40 DUP3 ADD SWAP1 POP SWAP2 SWAP1 POP JUMP JUMPDEST PUSH1 0x0 PUSH2 0x2222 PUSH1 0x17 DUP4 PUSH2 0x271D JUMP JUMPDEST SWAP2 POP PUSH2 0x222D DUP3 PUSH2 0x2D1E JUMP JUMPDEST PUSH1 0x17 DUP3 ADD SWAP1 POP SWAP2 SWAP1 POP JUMP JUMPDEST PUSH1 0x0 PUSH2 0x2245 PUSH1 0x11 DUP4 PUSH2 0x271D JUMP JUMPDEST SWAP2 POP PUSH2 0x2250 DUP3 PUSH2 0x2D47 JUMP JUMPDEST PUSH1 0x11 DUP3 ADD SWAP1 POP SWAP2 SWAP1 POP JUMP JUMPDEST PUSH1 0x0 PUSH2 0x2268 PUSH1 0x2F DUP4 PUSH2 0x270C JUMP JUMPDEST SWAP2 POP PUSH2 0x2273 DUP3 PUSH2 0x2D70 JUMP JUMPDEST PUSH1 0x40 DUP3 ADD SWAP1 POP SWAP2 SWAP1 POP JUMP JUMPDEST PUSH2 0x2287 DUP2 PUSH2 0x28B1 JUMP JUMPDEST DUP3 MSTORE POP POP JUMP JUMPDEST PUSH2 0x2296 DUP2 PUSH2 0x28B1 JUMP JUMPDEST DUP3 MSTORE POP POP JUMP JUMPDEST PUSH2 0x22AD PUSH2 0x22A8 DUP3 PUSH2 0x28B1 JUMP JUMPDEST PUSH2 0x29E8 JUMP JUMPDEST DUP3 MSTORE POP POP JUMP JUMPDEST PUSH1 0x0 PUSH2 0x22BE DUP3 PUSH2 0x20B7 JUMP JUMPDEST SWAP2 POP PUSH2 0x22CA DUP3 DUP6 PUSH2 0x1EBC JUMP JUMPDEST PUSH1 0x14 DUP3 ADD SWAP2 POP PUSH2 0x22D9 DUP3 PUSH2 0x2189 JUMP JUMPDEST SWAP2 POP PUSH2 0x22E5 DUP3 DUP5 PUSH2 0x229C JUMP JUMPDEST PUSH1 0x20 DUP3 ADD SWAP2 POP PUSH2 0x22F4 DUP3 PUSH2 0x2166 JUMP JUMPDEST SWAP2 POP DUP2 SWAP1 POP SWAP4 SWAP3 POP POP POP JUMP JUMPDEST PUSH1 0x0 PUSH2 0x230B DUP3 PUSH2 0x2215 JUMP JUMPDEST SWAP2 POP PUSH2 0x2317 DUP3 DUP6 PUSH2 0x2063 JUMP JUMPDEST SWAP2 POP PUSH2 0x2322 DUP3 PUSH2 0x2238 JUMP JUMPDEST SWAP2 POP PUSH2 0x232E DUP3 DUP5 PUSH2 0x2063 JUMP JUMPDEST SWAP2 POP DUP2 SWAP1 POP SWAP4 SWAP3 POP POP POP JUMP JUMPDEST PUSH1 0x0 PUSH1 0x20 DUP3 ADD SWAP1 POP PUSH2 0x234F PUSH1 0x0 DUP4 ADD DUP5 PUSH2 0x1EAD JUMP JUMPDEST SWAP3 SWAP2 POP POP JUMP JUMPDEST PUSH1 0x0 PUSH1 0x40 DUP3 ADD SWAP1 POP PUSH2 0x236A PUSH1 0x0 DUP4 ADD DUP6 PUSH2 0x1EAD JUMP JUMPDEST PUSH2 0x2377 PUSH1 0x20 DUP4 ADD DUP5 PUSH2 0x228D JUMP JUMPDEST SWAP4 SWAP3 POP POP POP JUMP JUMPDEST PUSH1 0x0 PUSH1 0x40 DUP3 ADD SWAP1 POP DUP2 DUP2 SUB PUSH1 0x0 DUP4 ADD MSTORE PUSH2 0x2398 DUP2 DUP6 PUSH2 0x1F48 JUMP JUMPDEST SWAP1 POP DUP2 DUP2 SUB PUSH1 0x20 DUP4 ADD MSTORE PUSH2 0x23AC DUP2 DUP5 PUSH2 0x1ED3 JUMP JUMPDEST SWAP1 POP SWAP4 SWAP3 POP POP POP JUMP JUMPDEST PUSH1 0x0 PUSH1 0x20 DUP3 ADD SWAP1 POP PUSH2 0x23CA PUSH1 0x0 DUP4 ADD DUP5 PUSH2 0x1FA6 JUMP JUMPDEST SWAP3 SWAP2 POP POP JUMP JUMPDEST PUSH1 0x0 PUSH1 0x20 DUP3 ADD SWAP1 POP PUSH2 0x23E5 PUSH1 0x0 DUP4 ADD DUP5 PUSH2 0x1FB5 JUMP JUMPDEST SWAP3 SWAP2 POP POP JUMP JUMPDEST PUSH1 0x0 PUSH1 0x20 DUP3 ADD SWAP1 POP PUSH2 0x2400 PUSH1 0x0 DUP4 ADD DUP5 PUSH2 0x1FC4 JUMP JUMPDEST SWAP3 SWAP2 POP POP JUMP JUMPDEST PUSH1 0x0 PUSH1 0x20 DUP3 ADD SWAP1 POP PUSH2 0x241B PUSH1 0x0 DUP4 ADD DUP5 PUSH2 0x1FD3 JUMP JUMPDEST SWAP3 SWAP2 POP POP JUMP JUMPDEST PUSH1 0x0 PUSH1 0x20 DUP3 ADD SWAP1 POP PUSH2 0x2436 PUSH1 0x0 DUP4 ADD DUP5 PUSH2 0x1FE2 JUMP JUMPDEST SWAP3 SWAP2 POP POP JUMP JUMPDEST PUSH1 0x0 PUSH1 0x20 DUP3 ADD SWAP1 POP DUP2 DUP2 SUB PUSH1 0x0 DUP4 ADD MSTORE PUSH2 0x2456 DUP2 DUP5 PUSH2 0x202A JUMP JUMPDEST SWAP1 POP SWAP3 SWAP2 POP POP JUMP JUMPDEST PUSH1 0x0 PUSH1 0x20 DUP3 ADD SWAP1 POP DUP2 DUP2 SUB PUSH1 0x0 DUP4 ADD MSTORE PUSH2 0x2477 DUP2 PUSH2 0x2094 JUMP JUMPDEST SWAP1 POP SWAP2 SWAP1 POP JUMP JUMPDEST PUSH1 0x0 PUSH1 0x20 DUP3 ADD SWAP1 POP DUP2 DUP2 SUB PUSH1 0x0 DUP4 ADD MSTORE PUSH2 0x2497 DUP2 PUSH2 0x20DA JUMP JUMPDEST SWAP1 POP SWAP2 SWAP1 POP JUMP JUMPDEST PUSH1 0x0 PUSH1 0x20 DUP3 ADD SWAP1 POP DUP2 DUP2 SUB PUSH1 0x0 DUP4 ADD MSTORE PUSH2 0x24B7 DUP2 PUSH2 0x20FD JUMP JUMPDEST SWAP1 POP SWAP2 SWAP1 POP JUMP JUMPDEST PUSH1 0x0 PUSH1 0x20 DUP3 ADD SWAP1 POP DUP2 DUP2 SUB PUSH1 0x0 DUP4 ADD MSTORE PUSH2 0x24D7 DUP2 PUSH2 0x2120 JUMP JUMPDEST SWAP1 POP SWAP2 SWAP1 POP JUMP JUMPDEST PUSH1 0x0 PUSH1 0x20 DUP3 ADD SWAP1 POP DUP2 DUP2 SUB PUSH1 0x0 DUP4 ADD MSTORE PUSH2 0x24F7 DUP2 PUSH2 0x2143 JUMP JUMPDEST SWAP1 POP SWAP2 SWAP1 POP JUMP JUMPDEST PUSH1 0x0 PUSH1 0x20 DUP3 ADD SWAP1 POP DUP2 DUP2 SUB PUSH1 0x0 DUP4 ADD MSTORE PUSH2 0x2517 DUP2 PUSH2 0x21AC JUMP JUMPDEST SWAP1 POP SWAP2 SWAP1 POP JUMP JUMPDEST PUSH1 0x0 PUSH1 0x20 DUP3 ADD SWAP1 POP DUP2 DUP2 SUB PUSH1 0x0 DUP4 ADD MSTORE PUSH2 0x2537 DUP2 PUSH2 0x21CF JUMP JUMPDEST SWAP1 POP SWAP2 SWAP1 POP JUMP JUMPDEST PUSH1 0x0 PUSH1 0x20 DUP3 ADD SWAP1 POP DUP2 DUP2 SUB PUSH1 0x0 DUP4 ADD MSTORE PUSH2 0x2557 DUP2 PUSH2 0x21F2 JUMP JUMPDEST SWAP1 POP SWAP2 SWAP1 POP JUMP JUMPDEST PUSH1 0x0 PUSH1 0x20 DUP3 ADD SWAP1 POP DUP2 DUP2 SUB PUSH1 0x0 DUP4 ADD MSTORE PUSH2 0x2577 DUP2 PUSH2 0x225B JUMP JUMPDEST SWAP1 POP SWAP2 SWAP1 POP JUMP JUMPDEST PUSH1 0x0 PUSH1 0x20 DUP3 ADD SWAP1 POP PUSH2 0x2593 PUSH1 0x0 DUP4 ADD DUP5 PUSH2 0x228D JUMP JUMPDEST SWAP3 SWAP2 POP POP JUMP JUMPDEST PUSH1 0x0 PUSH1 0x60 DUP3 ADD SWAP1 POP PUSH2 0x25AE PUSH1 0x0 DUP4 ADD DUP7 PUSH2 0x228D JUMP JUMPDEST PUSH2 0x25BB PUSH1 0x20 DUP4 ADD DUP6 PUSH2 0x228D JUMP JUMPDEST PUSH2 0x25C8 PUSH1 0x40 DUP4 ADD DUP5 PUSH2 0x1FA6 JUMP JUMPDEST SWAP5 SWAP4 POP POP POP POP JUMP JUMPDEST PUSH1 0x0 PUSH2 0x25DA PUSH2 0x25EB JUMP JUMPDEST SWAP1 POP PUSH2 0x25E6 DUP3 DUP3 PUSH2 0x2993 JUMP JUMPDEST SWAP2 SWAP1 POP JUMP JUMPDEST PUSH1 0x0 PUSH1 0x40 MLOAD SWAP1 POP SWAP1 JUMP JUMPDEST PUSH1 0x0 PUSH8 0xFFFFFFFFFFFFFFFF DUP3 GT ISZERO PUSH2 0x2610 JUMPI PUSH2 0x260F PUSH2 0x2A50 JUMP JUMPDEST JUMPDEST PUSH1 0x20 DUP3 MUL SWAP1 POP PUSH1 0x20 DUP2 ADD SWAP1 POP SWAP2 SWAP1 POP JUMP JUMPDEST PUSH1 0x0 PUSH8 0xFFFFFFFFFFFFFFFF DUP3 GT ISZERO PUSH2 0x263C JUMPI PUSH2 0x263B PUSH2 0x2A50 JUMP JUMPDEST JUMPDEST PUSH1 0x20 DUP3 MUL SWAP1 POP PUSH1 0x20 DUP2 ADD SWAP1 POP SWAP2 SWAP1 POP JUMP JUMPDEST PUSH1 0x0 PUSH8 0xFFFFFFFFFFFFFFFF DUP3 GT ISZERO PUSH2 0x2668 JUMPI PUSH2 0x2667 PUSH2 0x2A50 JUMP JUMPDEST JUMPDEST PUSH2 0x2671 DUP3 PUSH2 0x2A7F JUMP JUMPDEST SWAP1 POP PUSH1 0x20 DUP2 ADD SWAP1 POP SWAP2 SWAP1 POP JUMP JUMPDEST PUSH1 0x0 DUP2 SWAP1 POP PUSH1 0x20 DUP3 ADD SWAP1 POP SWAP2 SWAP1 POP JUMP JUMPDEST PUSH1 0x0 DUP2 SWAP1 POP PUSH1 0x20 DUP3 ADD SWAP1 POP SWAP2 SWAP1 POP JUMP JUMPDEST PUSH1 0x0 DUP2 MLOAD SWAP1 POP SWAP2 SWAP1 POP JUMP JUMPDEST PUSH1 0x0 DUP2 MLOAD SWAP1 POP SWAP2 SWAP1 POP JUMP JUMPDEST PUSH1 0x0 DUP2 MLOAD SWAP1 POP SWAP2 SWAP1 POP JUMP JUMPDEST PUSH1 0x0 PUSH1 0x20 DUP3 ADD SWAP1 POP SWAP2 SWAP1 POP JUMP JUMPDEST PUSH1 0x0 PUSH1 0x20 DUP3 ADD SWAP1 POP SWAP2 SWAP1 POP JUMP JUMPDEST PUSH1 0x0 DUP3 DUP3 MSTORE PUSH1 0x20 DUP3 ADD SWAP1 POP SWAP3 SWAP2 POP POP JUMP JUMPDEST PUSH1 0x0 DUP3 DUP3 MSTORE PUSH1 0x20 DUP3 ADD SWAP1 POP SWAP3 SWAP2 POP POP JUMP JUMPDEST PUSH1 0x0 DUP3 DUP3 MSTORE PUSH1 0x20 DUP3 ADD SWAP1 POP SWAP3 SWAP2 POP POP JUMP JUMPDEST PUSH1 0x0 DUP3 DUP3 MSTORE PUSH1 0x20 DUP3 ADD SWAP1 POP SWAP3 SWAP2 POP POP JUMP JUMPDEST PUSH1 0x0 DUP2 SWAP1 POP SWAP3 SWAP2 POP POP JUMP JUMPDEST PUSH1 0x0 PUSH2 0x2733 DUP3 PUSH2 0x28B1 JUMP JUMPDEST SWAP2 POP PUSH2 0x273E DUP4 PUSH2 0x28B1 JUMP JUMPDEST SWAP3 POP DUP3 PUSH32 0xFFFFFFFFFFFFFFFFFFFFFFFFFFFFFFFFFFFFFFFFFFFFFFFFFFFFFFFFFFFFFFFF SUB DUP3 GT ISZERO PUSH2 0x2773 JUMPI PUSH2 0x2772 PUSH2 0x29F2 JUMP JUMPDEST JUMPDEST DUP3 DUP3 ADD SWAP1 POP SWAP3 SWAP2 POP POP JUMP JUMPDEST PUSH1 0x0 PUSH2 0x2789 DUP3 PUSH2 0x28B1 JUMP JUMPDEST SWAP2 POP PUSH2 0x2794 DUP4 PUSH2 0x28B1 JUMP JUMPDEST SWAP3 POP DUP3 PUSH2 0x27A4 JUMPI PUSH2 0x27A3 PUSH2 0x2A21 JUMP JUMPDEST JUMPDEST DUP3 DUP3 DIV SWAP1 POP SWAP3 SWAP2 POP POP JUMP JUMPDEST PUSH1 0x0 PUSH2 0x27BA DUP3 PUSH2 0x28B1 JUMP JUMPDEST SWAP2 POP PUSH2 0x27C5 DUP4 PUSH2 0x28B1 JUMP JUMPDEST SWAP3 POP DUP2 PUSH32 0xFFFFFFFFFFFFFFFFFFFFFFFFFFFFFFFFFFFFFFFFFFFFFFFFFFFFFFFFFFFFFFFF DIV DUP4 GT DUP3 ISZERO ISZERO AND ISZERO PUSH2 0x27FE JUMPI PUSH2 0x27FD PUSH2 0x29F2 JUMP JUMPDEST JUMPDEST DUP3 DUP3 MUL SWAP1 POP SWAP3 SWAP2 POP POP JUMP JUMPDEST PUSH1 0x0 PUSH2 0x2814 DUP3 PUSH2 0x28B1 JUMP JUMPDEST SWAP2 POP PUSH2 0x281F DUP4 PUSH2 0x28B1 JUMP JUMPDEST SWAP3 POP DUP3 DUP3 LT ISZERO PUSH2 0x2832 JUMPI PUSH2 0x2831 PUSH2 0x29F2 JUMP JUMPDEST JUMPDEST DUP3 DUP3 SUB SWAP1 POP SWAP3 SWAP2 POP POP JUMP JUMPDEST PUSH1 0x0 PUSH2 0x2848 DUP3 PUSH2 0x2891 JUMP JUMPDEST SWAP1 POP SWAP2 SWAP1 POP JUMP JUMPDEST PUSH1 0x0 DUP2 ISZERO ISZERO SWAP1 POP SWAP2 SWAP1 POP JUMP JUMPDEST PUSH1 0x0 DUP2 SWAP1 POP SWAP2 SWAP1 POP JUMP JUMPDEST PUSH1 0x0 PUSH32 0xFFFFFFFF00000000000000000000000000000000000000000000000000000000 DUP3 AND SWAP1 POP SWAP2 SWAP1 POP JUMP JUMPDEST PUSH1 0x0 PUSH20 0xFFFFFFFFFFFFFFFFFFFFFFFFFFFFFFFFFFFFFFFF DUP3 AND SWAP1 POP SWAP2 SWAP1 POP JUMP JUMPDEST PUSH1 0x0 DUP2 SWAP1 POP SWAP2 SWAP1 POP JUMP JUMPDEST PUSH1 0x0 PUSH2 0x28C6 DUP3 PUSH2 0x28CD JUMP JUMPDEST SWAP1 POP SWAP2 SWAP1 POP JUMP JUMPDEST PUSH1 0x0 PUSH2 0x28D8 DUP3 PUSH2 0x2891 JUMP JUMPDEST SWAP1 POP SWAP2 SWAP1 POP JUMP JUMPDEST PUSH1 0x0 PUSH2 0x28EA DUP3 PUSH2 0x28F1 JUMP JUMPDEST SWAP1 POP SWAP2 SWAP1 POP JUMP JUMPDEST PUSH1 0x0 PUSH2 0x28FC DUP3 PUSH2 0x2891 JUMP JUMPDEST SWAP1 POP SWAP2 SWAP1 POP JUMP JUMPDEST PUSH1 0x0 PUSH2 0x290E DUP3 PUSH2 0x2915 JUMP JUMPDEST SWAP1 POP SWAP2 SWAP1 POP JUMP JUMPDEST PUSH1 0x0 PUSH2 0x2920 DUP3 PUSH2 0x2891 JUMP JUMPDEST SWAP1 POP SWAP2 SWAP1 POP JUMP JUMPDEST DUP3 DUP2 DUP4 CALLDATACOPY PUSH1 0x0 DUP4 DUP4 ADD MSTORE POP POP POP JUMP JUMPDEST PUSH1 0x0 JUMPDEST DUP4 DUP2 LT ISZERO PUSH2 0x2954 JUMPI DUP1 DUP3 ADD MLOAD DUP2 DUP5 ADD MSTORE PUSH1 0x20 DUP2 ADD SWAP1 POP PUSH2 0x2939 JUMP JUMPDEST DUP4 DUP2 GT ISZERO PUSH2 0x2963 JUMPI PUSH1 0x0 DUP5 DUP5 ADD MSTORE JUMPDEST POP POP POP POP JUMP JUMPDEST PUSH1 0x0 PUSH2 0x2974 DUP3 PUSH2 0x28B1 JUMP JUMPDEST SWAP2 POP PUSH1 0x0 DUP3 EQ ISZERO PUSH2 0x2988 JUMPI PUSH2 0x2987 PUSH2 0x29F2 JUMP JUMPDEST JUMPDEST PUSH1 0x1 DUP3 SUB SWAP1 POP SWAP2 SWAP1 POP JUMP JUMPDEST PUSH2 0x299C DUP3 PUSH2 0x2A7F JUMP JUMPDEST DUP2 ADD DUP2 DUP2 LT PUSH8 0xFFFFFFFFFFFFFFFF DUP3 GT OR ISZERO PUSH2 0x29BB JUMPI PUSH2 0x29BA PUSH2 0x2A50 JUMP JUMPDEST JUMPDEST DUP1 PUSH1 0x40 MSTORE POP POP POP JUMP JUMPDEST PUSH1 0x0 PUSH2 0x29CF DUP3 PUSH2 0x29D6 JUMP JUMPDEST SWAP1 POP SWAP2 SWAP1 POP JUMP JUMPDEST PUSH1 0x0 PUSH2 0x29E1 DUP3 PUSH2 0x2A90 JUMP JUMPDEST SWAP1 POP SWAP2 SWAP1 POP JUMP JUMPDEST PUSH1 0x0 DUP2 SWAP1 POP SWAP2 SWAP1 POP JUMP JUMPDEST PUSH32 0x4E487B7100000000000000000000000000000000000000000000000000000000 PUSH1 0x0 MSTORE PUSH1 0x11 PUSH1 0x4 MSTORE PUSH1 0x24 PUSH1 0x0 REVERT JUMPDEST PUSH32 0x4E487B7100000000000000000000000000000000000000000000000000000000 PUSH1 0x0 MSTORE PUSH1 0x12 PUSH1 0x4 MSTORE PUSH1 0x24 PUSH1 0x0 REVERT JUMPDEST PUSH32 0x4E487B7100000000000000000000000000000000000000000000000000000000 PUSH1 0x0 MSTORE PUSH1 0x41 PUSH1 0x4 MSTORE PUSH1 0x24 PUSH1 0x0 REVERT JUMPDEST PUSH1 0x0 PUSH1 0x1F NOT PUSH1 0x1F DUP4 ADD AND SWAP1 POP SWAP2 SWAP1 POP JUMP JUMPDEST PUSH1 0x0 DUP2 PUSH1 0x60 SHL SWAP1 POP SWAP2 SWAP1 POP JUMP JUMPDEST PUSH32 0x537472696E67733A20686578206C656E67746820696E73756666696369656E74 PUSH1 0x0 DUP3 ADD MSTORE POP JUMP JUMPDEST PUSH32 0x4164647265737320000000000000000000000000000000000000000000000000 PUSH1 0x0 DUP3 ADD MSTORE POP JUMP JUMPDEST PUSH32 0x43616E6E6F74206D696E7420746F207472656173757279206164647265737320 PUSH1 0x0 DUP3 ADD MSTORE PUSH32 0x756E74696C2073616C652069732066696E697368656400000000000000000000 PUSH1 0x20 DUP3 ADD MSTORE POP JUMP JUMPDEST PUSH32 0x74696D657374616D70206973206E6F742075702D746F2D646174650000000000 PUSH1 0x0 DUP3 ADD MSTORE POP JUMP JUMPDEST PUSH32 0x53656E646572206973206E6F742053616C65204D616E61676572206F72204164 PUSH1 0x0 DUP3 ADD MSTORE PUSH32 0x6D696E0000000000000000000000000000000000000000000000000000000000 PUSH1 0x20 DUP3 ADD MSTORE POP JUMP JUMPDEST PUSH32 0x53656E646572206973206E6F7420555249204D616E61676572206F722041646D PUSH1 0x0 DUP3 ADD MSTORE PUSH32 0x696E000000000000000000000000000000000000000000000000000000000000 PUSH1 0x20 DUP3 ADD MSTORE POP JUMP JUMPDEST PUSH32 0x2500000000000000000000000000000000000000000000000000000000000000 PUSH1 0x0 DUP3 ADD MSTORE POP JUMP JUMPDEST PUSH32 0x20646F6573206E6F742068617665206120636F75706F6E207769746820612064 PUSH1 0x0 DUP3 ADD MSTORE PUSH32 0x6973636F756E742072617465206F662000000000000000000000000000000000 PUSH1 0x20 DUP3 ADD MSTORE POP JUMP JUMPDEST PUSH32 0x4E6F20746F6B656E73206C65667420746F206D696E7400000000000000000000 PUSH1 0x0 DUP3 ADD MSTORE POP JUMP JUMPDEST PUSH32 0x737461727454696D65206973206C61746572207468616E20656E6454696D6500 PUSH1 0x0 DUP3 ADD MSTORE POP JUMP JUMPDEST PUSH32 0x53656E646572206973206E6F7420506F73742D53616C65204D696E746572206F PUSH1 0x0 DUP3 ADD MSTORE PUSH32 0x722041646D696E00000000000000000000000000000000000000000000000000 PUSH1 0x20 DUP3 ADD MSTORE POP JUMP JUMPDEST PUSH32 0x416363657373436F6E74726F6C3A206163636F756E7420000000000000000000 PUSH1 0x0 DUP3 ADD MSTORE POP JUMP JUMPDEST PUSH32 0x206973206D697373696E6720726F6C6520000000000000000000000000000000 PUSH1 0x0 DUP3 ADD MSTORE POP JUMP JUMPDEST PUSH32 0x416363657373436F6E74726F6C3A2063616E206F6E6C792072656E6F756E6365 PUSH1 0x0 DUP3 ADD MSTORE PUSH32 0x20726F6C657320666F722073656C660000000000000000000000000000000000 PUSH1 0x20 DUP3 ADD MSTORE POP JUMP JUMPDEST PUSH2 0x2DC8 DUP2 PUSH2 0x283D JUMP JUMPDEST DUP2 EQ PUSH2 0x2DD3 JUMPI PUSH1 0x0 DUP1 REVERT JUMPDEST POP JUMP JUMPDEST PUSH2 0x2DDF DUP2 PUSH2 0x284F JUMP JUMPDEST DUP2 EQ PUSH2 0x2DEA JUMPI PUSH1 0x0 DUP1 REVERT JUMPDEST POP JUMP JUMPDEST PUSH2 0x2DF6 DUP2 PUSH2 0x285B JUMP JUMPDEST DUP2 EQ PUSH2 0x2E01 JUMPI PUSH1 0x0 DUP1 REVERT JUMPDEST POP JUMP JUMPDEST PUSH2 0x2E0D DUP2 PUSH2 0x2865 JUMP JUMPDEST DUP2 EQ PUSH2 0x2E18 JUMPI PUSH1 0x0 DUP1 REVERT JUMPDEST POP JUMP JUMPDEST PUSH2 0x2E24 DUP2 PUSH2 0x28B1 JUMP JUMPDEST DUP2 EQ PUSH2 0x2E2F JUMPI PUSH1 0x0 DUP1 REVERT JUMPDEST POP JUMP INVALID LOG2 PUSH5 0x6970667358 0x22 SLT KECCAK256 BLOCKHASH CREATE2 0x4C MSTORE8 0x28 0x2C CALLER PUSH12 0x6AA5574ADD269D5F869BF53A 0xD9 0x2A 0xC1 0x24 SDIV 0x24 0xC9 0xC8 GT EQ INVALID DUP5 PUSH5 0x736F6C6343 STOP ADDMOD ADD STOP CALLER "
				},
				"gasEstimates": {
					"creation": {
						"codeDepositCost": "2376000",
						"executionCost": "infinite",
						"totalCost": "infinite"
					},
					"external": {
						"DEFAULT_ADMIN_ROLE()": "380",
						"ERC1155storageContract()": "1303",
						"POST_SALE_MINTER_ROLE()": "396",
						"SALE_MANAGER_ROLE()": "374",
						"URI_MANAGER_ROLE()": "418",
						"buyNFT()": "infinite",
						"buyNftWithDiscount(uint256)": "infinite",
						"calculateCustomPrice(address,uint256)": "infinite",
						"getMaxSupply()": "infinite",
						"getNextUnusedToken()": "infinite",
						"getRoleAdmin(bytes32)": "infinite",
						"grantRole(bytes32,address)": "infinite",
						"hasRole(bytes32,address)": "1908",
						"lastUpdate()": "infinite",
						"mintNextManyToTreasuryAddress(uint256)": "infinite",
						"mintNextToTreasuryAddress()": "infinite",
						"mintRemainderToTreasuryAddress()": "infinite",
						"preLoadURIs(uint256[],string[])": "infinite",
						"privilgedBuyerList()": "1324",
						"renounceRole(bytes32,address)": "infinite",
						"revokeRole(bytes32,address)": "infinite",
						"setEndTime(uint256)": "infinite",
						"setStorageContractAddress(address)": "infinite",
						"setstartTime(uint256)": "infinite",
						"supportsInterface(bytes4)": "774",
						"treasuryAddress()": "1303",
						"updateAndCalculateCustomPrice(address,uint256)": "infinite",
						"usdcEscrowStorageContract()": "1324"
					},
					"internal": {
						"_buyNFT(uint256)": "infinite",
						"mintNextNftToAddress(address)": "infinite",
						"updateState()": "infinite"
					}
				},
				"methodIdentifiers": {
					"DEFAULT_ADMIN_ROLE()": "a217fddf",
					"ERC1155storageContract()": "8c83faeb",
					"POST_SALE_MINTER_ROLE()": "a77f0c48",
					"SALE_MANAGER_ROLE()": "551b42a8",
					"URI_MANAGER_ROLE()": "682d07d9",
					"buyNFT()": "bff29cee",
					"buyNftWithDiscount(uint256)": "4c9b73da",
					"calculateCustomPrice(address,uint256)": "ab6c0306",
					"getMaxSupply()": "4c0f38c2",
					"getNextUnusedToken()": "68fc01a2",
					"getRoleAdmin(bytes32)": "248a9ca3",
					"grantRole(bytes32,address)": "2f2ff15d",
					"hasRole(bytes32,address)": "91d14854",
					"lastUpdate()": "c0463711",
					"mintNextManyToTreasuryAddress(uint256)": "4e0ddff9",
					"mintNextToTreasuryAddress()": "26116d47",
					"mintRemainderToTreasuryAddress()": "f715dfca",
					"preLoadURIs(uint256[],string[])": "f121da92",
					"privilgedBuyerList()": "5ce7e721",
					"renounceRole(bytes32,address)": "36568abe",
					"revokeRole(bytes32,address)": "d547741f",
					"setEndTime(uint256)": "ccb98ffc",
					"setStorageContractAddress(address)": "51f7598c",
					"setstartTime(uint256)": "944044a1",
					"supportsInterface(bytes4)": "01ffc9a7",
					"treasuryAddress()": "c5f956af",
					"updateAndCalculateCustomPrice(address,uint256)": "432c7c5d",
					"usdcEscrowStorageContract()": "c5dae48f"
				}
			},
			"storageLayout": {
				"storage": [
					{
						"astId": 24,
						"contract": "contracts/Founding Citizens NFT Sale.sol:FoundingNFTSale",
						"label": "_roles",
						"offset": 0,
						"slot": "0",
						"type": "t_mapping(t_bytes32,t_struct(RoleData)19_storage)"
					},
					{
						"astId": 826,
						"contract": "contracts/Founding Citizens NFT Sale.sol:FoundingNFTSale",
						"label": "ERC1155storageContract",
						"offset": 0,
						"slot": "1",
						"type": "t_contract(IMintStorage)759"
					},
					{
						"astId": 829,
						"contract": "contracts/Founding Citizens NFT Sale.sol:FoundingNFTSale",
						"label": "privilgedBuyerList",
						"offset": 0,
						"slot": "2",
						"type": "t_contract(IPrivilegedListStorage)790"
					},
					{
						"astId": 832,
						"contract": "contracts/Founding Citizens NFT Sale.sol:FoundingNFTSale",
						"label": "usdcEscrowStorageContract",
						"offset": 0,
						"slot": "3",
						"type": "t_contract(IUsdcStorage)821"
					},
					{
						"astId": 834,
						"contract": "contracts/Founding Citizens NFT Sale.sol:FoundingNFTSale",
						"label": "treasuryAddress",
						"offset": 0,
						"slot": "4",
						"type": "t_address"
					},
					{
						"astId": 852,
						"contract": "contracts/Founding Citizens NFT Sale.sol:FoundingNFTSale",
						"label": "startTime",
						"offset": 0,
						"slot": "5",
						"type": "t_uint256"
					},
					{
						"astId": 855,
						"contract": "contracts/Founding Citizens NFT Sale.sol:FoundingNFTSale",
						"label": "endTime",
						"offset": 0,
						"slot": "6",
						"type": "t_uint256"
					},
					{
						"astId": 865,
						"contract": "contracts/Founding Citizens NFT Sale.sol:FoundingNFTSale",
						"label": "startPrice",
						"offset": 0,
						"slot": "7",
						"type": "t_uint256"
					},
					{
						"astId": 870,
						"contract": "contracts/Founding Citizens NFT Sale.sol:FoundingNFTSale",
						"label": "EndPrice",
						"offset": 0,
						"slot": "8",
						"type": "t_uint256"
					},
					{
						"astId": 891,
						"contract": "contracts/Founding Citizens NFT Sale.sol:FoundingNFTSale",
						"label": "lastUpdate",
						"offset": 0,
						"slot": "9",
						"type": "t_struct(Update)882_storage"
					}
				],
				"types": {
					"t_address": {
						"encoding": "inplace",
						"label": "address",
						"numberOfBytes": "20"
					},
					"t_bool": {
						"encoding": "inplace",
						"label": "bool",
						"numberOfBytes": "1"
					},
					"t_bytes32": {
						"encoding": "inplace",
						"label": "bytes32",
						"numberOfBytes": "32"
					},
					"t_contract(IMintStorage)759": {
						"encoding": "inplace",
						"label": "contract IMintStorage",
						"numberOfBytes": "20"
					},
					"t_contract(IPrivilegedListStorage)790": {
						"encoding": "inplace",
						"label": "contract IPrivilegedListStorage",
						"numberOfBytes": "20"
					},
					"t_contract(IUsdcStorage)821": {
						"encoding": "inplace",
						"label": "contract IUsdcStorage",
						"numberOfBytes": "20"
					},
					"t_mapping(t_address,t_bool)": {
						"encoding": "mapping",
						"key": "t_address",
						"label": "mapping(address => bool)",
						"numberOfBytes": "32",
						"value": "t_bool"
					},
					"t_mapping(t_bytes32,t_struct(RoleData)19_storage)": {
						"encoding": "mapping",
						"key": "t_bytes32",
						"label": "mapping(bytes32 => struct AccessControl.RoleData)",
						"numberOfBytes": "32",
						"value": "t_struct(RoleData)19_storage"
					},
					"t_struct(RoleData)19_storage": {
						"encoding": "inplace",
						"label": "struct AccessControl.RoleData",
						"members": [
							{
								"astId": 16,
								"contract": "contracts/Founding Citizens NFT Sale.sol:FoundingNFTSale",
								"label": "members",
								"offset": 0,
								"slot": "0",
								"type": "t_mapping(t_address,t_bool)"
							},
							{
								"astId": 18,
								"contract": "contracts/Founding Citizens NFT Sale.sol:FoundingNFTSale",
								"label": "adminRole",
								"offset": 0,
								"slot": "1",
								"type": "t_bytes32"
							}
						],
						"numberOfBytes": "64"
					},
					"t_struct(Update)882_storage": {
						"encoding": "inplace",
						"label": "struct FoundingNFTSale.Update",
						"members": [
							{
								"astId": 877,
								"contract": "contracts/Founding Citizens NFT Sale.sol:FoundingNFTSale",
								"label": "price",
								"offset": 0,
								"slot": "0",
								"type": "t_uint256"
							},
							{
								"astId": 879,
								"contract": "contracts/Founding Citizens NFT Sale.sol:FoundingNFTSale",
								"label": "time",
								"offset": 0,
								"slot": "1",
								"type": "t_uint256"
							},
							{
								"astId": 881,
								"contract": "contracts/Founding Citizens NFT Sale.sol:FoundingNFTSale",
								"label": "saleIsLive",
								"offset": 0,
								"slot": "2",
								"type": "t_bool"
							}
						],
						"numberOfBytes": "96"
					},
					"t_uint256": {
						"encoding": "inplace",
						"label": "uint256",
						"numberOfBytes": "32"
					}
				}
			},
			"userdoc": {
				"kind": "user",
				"methods": {},
				"version": 1
			}
		}
	}
}