{
	"contracts/Founding Citizens NFT Sale.sol": {
		"FoundingNFTSale": {
			"abi": [
				{
					"inputs": [],
					"stateMutability": "nonpayable",
					"type": "constructor"
				},
				{
					"anonymous": false,
					"inputs": [
						{
							"indexed": true,
							"internalType": "bytes32",
							"name": "role",
							"type": "bytes32"
						},
						{
							"indexed": true,
							"internalType": "bytes32",
							"name": "previousAdminRole",
							"type": "bytes32"
						},
						{
							"indexed": true,
							"internalType": "bytes32",
							"name": "newAdminRole",
							"type": "bytes32"
						}
					],
					"name": "RoleAdminChanged",
					"type": "event"
				},
				{
					"anonymous": false,
					"inputs": [
						{
							"indexed": true,
							"internalType": "bytes32",
							"name": "role",
							"type": "bytes32"
						},
						{
							"indexed": true,
							"internalType": "address",
							"name": "account",
							"type": "address"
						},
						{
							"indexed": true,
							"internalType": "address",
							"name": "sender",
							"type": "address"
						}
					],
					"name": "RoleGranted",
					"type": "event"
				},
				{
					"anonymous": false,
					"inputs": [
						{
							"indexed": true,
							"internalType": "bytes32",
							"name": "role",
							"type": "bytes32"
						},
						{
							"indexed": true,
							"internalType": "address",
							"name": "account",
							"type": "address"
						},
						{
							"indexed": true,
							"internalType": "address",
							"name": "sender",
							"type": "address"
						}
					],
					"name": "RoleRevoked",
					"type": "event"
				},
				{
					"inputs": [],
					"name": "DEFAULT_ADMIN_ROLE",
					"outputs": [
						{
							"internalType": "bytes32",
							"name": "",
							"type": "bytes32"
						}
					],
					"stateMutability": "view",
					"type": "function"
				},
				{
					"inputs": [],
					"name": "ERC1155storageContract",
					"outputs": [
						{
							"internalType": "contract IMintStorage",
							"name": "",
							"type": "address"
						}
					],
					"stateMutability": "view",
					"type": "function"
				},
				{
					"inputs": [],
					"name": "SALE_MANAGER_ROLE",
					"outputs": [
						{
							"internalType": "bytes32",
							"name": "",
							"type": "bytes32"
						}
					],
					"stateMutability": "view",
					"type": "function"
				},
				{
					"inputs": [],
					"name": "URI_MANAGER_ROLE",
					"outputs": [
						{
							"internalType": "bytes32",
							"name": "",
							"type": "bytes32"
						}
					],
					"stateMutability": "view",
					"type": "function"
				},
				{
					"inputs": [],
					"name": "buyNFT",
					"outputs": [],
					"stateMutability": "nonpayable",
					"type": "function"
				},
				{
					"inputs": [
						{
							"internalType": "uint256",
							"name": "discountRate",
							"type": "uint256"
						}
					],
					"name": "buyNftWithDiscount",
					"outputs": [],
					"stateMutability": "nonpayable",
					"type": "function"
				},
				{
					"inputs": [
						{
							"internalType": "address",
							"name": "prospectiveBuyer",
							"type": "address"
						},
						{
							"internalType": "uint256",
							"name": "discountRate",
							"type": "uint256"
						}
					],
					"name": "calculateCustomPrice",
					"outputs": [
						{
							"internalType": "uint256",
							"name": "",
							"type": "uint256"
						}
					],
					"stateMutability": "view",
					"type": "function"
				},
				{
					"inputs": [],
					"name": "getMaxSupply",
					"outputs": [
						{
							"internalType": "uint256",
							"name": "",
							"type": "uint256"
						}
					],
					"stateMutability": "view",
					"type": "function"
				},
				{
					"inputs": [],
					"name": "getNextUnusedToken",
					"outputs": [
						{
							"internalType": "uint256",
							"name": "",
							"type": "uint256"
						}
					],
					"stateMutability": "view",
					"type": "function"
				},
				{
					"inputs": [
						{
							"internalType": "bytes32",
							"name": "role",
							"type": "bytes32"
						}
					],
					"name": "getRoleAdmin",
					"outputs": [
						{
							"internalType": "bytes32",
							"name": "",
							"type": "bytes32"
						}
					],
					"stateMutability": "view",
					"type": "function"
				},
				{
					"inputs": [
						{
							"internalType": "bytes32",
							"name": "role",
							"type": "bytes32"
						},
						{
							"internalType": "address",
							"name": "account",
							"type": "address"
						}
					],
					"name": "grantRole",
					"outputs": [],
					"stateMutability": "nonpayable",
					"type": "function"
				},
				{
					"inputs": [
						{
							"internalType": "bytes32",
							"name": "role",
							"type": "bytes32"
						},
						{
							"internalType": "address",
							"name": "account",
							"type": "address"
						}
					],
					"name": "hasRole",
					"outputs": [
						{
							"internalType": "bool",
							"name": "",
							"type": "bool"
						}
					],
					"stateMutability": "view",
					"type": "function"
				},
				{
					"inputs": [],
					"name": "lastUpdate",
					"outputs": [
						{
							"internalType": "uint256",
							"name": "price",
							"type": "uint256"
						},
						{
							"internalType": "uint256",
							"name": "time",
							"type": "uint256"
						},
						{
							"internalType": "bool",
							"name": "saleIsLive",
							"type": "bool"
						}
					],
					"stateMutability": "view",
					"type": "function"
				},
				{
					"inputs": [],
					"name": "mintToTreasuryAddress",
					"outputs": [],
					"stateMutability": "nonpayable",
					"type": "function"
				},
				{
					"inputs": [
						{
							"internalType": "uint256[]",
							"name": "ids",
							"type": "uint256[]"
						},
						{
							"internalType": "string[]",
							"name": "uris",
							"type": "string[]"
						}
					],
					"name": "preLoadURIs",
					"outputs": [],
					"stateMutability": "nonpayable",
					"type": "function"
				},
				{
					"inputs": [],
					"name": "privilgedBuyerList",
					"outputs": [
						{
							"internalType": "contract IPrivilegedListStorage",
							"name": "",
							"type": "address"
						}
					],
					"stateMutability": "view",
					"type": "function"
				},
				{
					"inputs": [
						{
							"internalType": "bytes32",
							"name": "role",
							"type": "bytes32"
						},
						{
							"internalType": "address",
							"name": "account",
							"type": "address"
						}
					],
					"name": "renounceRole",
					"outputs": [],
					"stateMutability": "nonpayable",
					"type": "function"
				},
				{
					"inputs": [
						{
							"internalType": "bytes32",
							"name": "role",
							"type": "bytes32"
						},
						{
							"internalType": "address",
							"name": "account",
							"type": "address"
						}
					],
					"name": "revokeRole",
					"outputs": [],
					"stateMutability": "nonpayable",
					"type": "function"
				},
				{
					"inputs": [
						{
							"internalType": "uint256",
							"name": "unixTime",
							"type": "uint256"
						}
					],
					"name": "setEndTime",
					"outputs": [],
					"stateMutability": "nonpayable",
					"type": "function"
				},
				{
					"inputs": [
						{
							"internalType": "address",
							"name": "storageAddress",
							"type": "address"
						}
					],
					"name": "setStorageContractAddress",
					"outputs": [],
					"stateMutability": "nonpayable",
					"type": "function"
				},
				{
					"inputs": [
						{
							"internalType": "uint256",
							"name": "unixTime",
							"type": "uint256"
						}
					],
					"name": "setstartTime",
					"outputs": [],
					"stateMutability": "nonpayable",
					"type": "function"
				},
				{
					"inputs": [
						{
							"internalType": "bytes4",
							"name": "interfaceId",
							"type": "bytes4"
						}
					],
					"name": "supportsInterface",
					"outputs": [
						{
							"internalType": "bool",
							"name": "",
							"type": "bool"
						}
					],
					"stateMutability": "view",
					"type": "function"
				},
				{
					"inputs": [],
					"name": "temp",
					"outputs": [],
					"stateMutability": "nonpayable",
					"type": "function"
				},
				{
					"inputs": [
						{
							"internalType": "uint256",
							"name": "",
							"type": "uint256"
						}
					],
					"name": "temp1",
					"outputs": [
						{
							"internalType": "string",
							"name": "",
							"type": "string"
						}
					],
					"stateMutability": "view",
					"type": "function"
				},
				{
					"inputs": [],
					"name": "treasuryAddress",
					"outputs": [
						{
							"internalType": "address",
							"name": "",
							"type": "address"
						}
					],
					"stateMutability": "view",
					"type": "function"
				},
				{
					"inputs": [],
					"name": "usdcEscrowStorageContract",
					"outputs": [
						{
							"internalType": "contract IUsdcStorage",
							"name": "",
							"type": "address"
						}
					],
					"stateMutability": "view",
					"type": "function"
				}
			],
			"devdoc": {
				"kind": "dev",
				"methods": {
					"getRoleAdmin(bytes32)": {
						"details": "Returns the admin role that controls `role`. See {grantRole} and {revokeRole}. To change a role's admin, use {_setRoleAdmin}."
					},
					"grantRole(bytes32,address)": {
						"details": "Grants `role` to `account`. If `account` had not been already granted `role`, emits a {RoleGranted} event. Requirements: - the caller must have ``role``'s admin role."
					},
					"hasRole(bytes32,address)": {
						"details": "Returns `true` if `account` has been granted `role`."
					},
					"renounceRole(bytes32,address)": {
						"details": "Revokes `role` from the calling account. Roles are often managed via {grantRole} and {revokeRole}: this function's purpose is to provide a mechanism for accounts to lose their privileges if they are compromised (such as when a trusted device is misplaced). If the calling account had been revoked `role`, emits a {RoleRevoked} event. Requirements: - the caller must be `account`."
					},
					"revokeRole(bytes32,address)": {
						"details": "Revokes `role` from `account`. If `account` had been granted `role`, emits a {RoleRevoked} event. Requirements: - the caller must have ``role``'s admin role."
					},
					"supportsInterface(bytes4)": {
						"details": "See {IERC165-supportsInterface}."
					}
				},
				"version": 1
			},
			"evm": {
				"assembly": "    /* \"contracts/Founding Citizens NFT Sale.sol\":2827:7578  contract FoundingNFTSale is AccessControlExtension {\r... */\n  mstore(0x40, 0x80)\n    /* \"contracts/Founding Citizens NFT Sale.sol\":3266:3276  1893484800 */\n  0x70dc4900\n    /* \"contracts/Founding Citizens NFT Sale.sol\":3248:3276  uint startTime  = 1893484800 */\n  0x05\n  sstore\n    /* \"contracts/Founding Citizens NFT Sale.sol\":3379:3389  1893484900 */\n  0x70dc4964\n    /* \"contracts/Founding Citizens NFT Sale.sol\":3361:3389  uint endTime    = 1893484900 */\n  0x06\n  sstore\n    /* \"contracts/Founding Citizens NFT Sale.sol\":3420:3425  10**6 */\n  0x0f4240\n    /* \"contracts/Founding Citizens NFT Sale.sol\":3450:3452  10 */\n  0x0a\n    /* \"contracts/Founding Citizens NFT Sale.sol\":3450:3460  10 * units */\n  tag_1\n  swap2\n  swap1\n  tag_2\n  jump\t// in\ntag_1:\n    /* \"contracts/Founding Citizens NFT Sale.sol\":3432:3460  uint startPrice = 10 * units */\n  0x07\n  sstore\n    /* \"contracts/Founding Citizens NFT Sale.sol\":3420:3425  10**6 */\n  0x0f4240\n    /* \"contracts/Founding Citizens NFT Sale.sol\":3516:3517  1 */\n  0x01\n    /* \"contracts/Founding Citizens NFT Sale.sol\":3516:3525  1 * units */\n  tag_3\n  swap2\n  swap1\n  tag_2\n  jump\t// in\ntag_3:\n    /* \"contracts/Founding Citizens NFT Sale.sol\":3500:3525  uint EndPrice = 1 * units */\n  0x08\n  sstore\n    /* \"contracts/Founding Citizens NFT Sale.sol\":3739:3776  Update(10000, block.timestamp, false) */\n  mload(0x40)\n  dup1\n  0x60\n  add\n  0x40\n  mstore\n  dup1\n    /* \"contracts/Founding Citizens NFT Sale.sol\":3746:3751  10000 */\n  0x2710\n    /* \"contracts/Founding Citizens NFT Sale.sol\":3739:3776  Update(10000, block.timestamp, false) */\n  dup2\n  mstore\n  0x20\n  add\n    /* \"contracts/Founding Citizens NFT Sale.sol\":3753:3768  block.timestamp */\n  timestamp\n    /* \"contracts/Founding Citizens NFT Sale.sol\":3739:3776  Update(10000, block.timestamp, false) */\n  dup2\n  mstore\n  0x20\n  add\n    /* \"contracts/Founding Citizens NFT Sale.sol\":3770:3775  false */\n  0x00\n    /* \"contracts/Founding Citizens NFT Sale.sol\":3739:3776  Update(10000, block.timestamp, false) */\n  iszero\n  iszero\n  dup2\n  mstore\n  pop\n    /* \"contracts/Founding Citizens NFT Sale.sol\":3712:3776  Update public lastUpdate = Update(10000, block.timestamp, false) */\n  0x0a\n  0x00\n  dup3\n  add\n  mload\n  dup2\n  0x00\n  add\n  sstore\n  0x20\n  dup3\n  add\n  mload\n  dup2\n  0x01\n  add\n  sstore\n  0x40\n  dup3\n  add\n  mload\n  dup2\n  0x02\n  add\n  exp(0x0100, 0x00)\n  dup2\n  sload\n  dup2\n  0xff\n  mul\n  not\n  and\n  swap1\n  dup4\n  iszero\n  iszero\n  mul\n  or\n  swap1\n  sstore\n  pop\n  pop\n  pop\n    /* \"contracts/Founding Citizens NFT Sale.sol\":4138:4170  constructor() {\r... */\n  callvalue\n  dup1\n  iszero\n  tag_4\n  jumpi\n  0x00\n  dup1\n  revert\ntag_4:\n  pop\n    /* \"contracts/Founding Citizens NFT Sale.sol\":2827:7578  contract FoundingNFTSale is AccessControlExtension {\r... */\n  jump(tag_7)\n    /* \"#utility.yul\":7:355   */\ntag_2:\n  0x00\n    /* \"#utility.yul\":70:90   */\n  tag_10\n    /* \"#utility.yul\":88:89   */\n  dup3\n    /* \"#utility.yul\":70:90   */\n  tag_11\n  jump\t// in\ntag_10:\n    /* \"#utility.yul\":65:90   */\n  swap2\n  pop\n    /* \"#utility.yul\":104:124   */\n  tag_12\n    /* \"#utility.yul\":122:123   */\n  dup4\n    /* \"#utility.yul\":104:124   */\n  tag_11\n  jump\t// in\ntag_12:\n    /* \"#utility.yul\":99:124   */\n  swap3\n  pop\n    /* \"#utility.yul\":292:293   */\n  dup2\n    /* \"#utility.yul\":224:290   */\n  0xffffffffffffffffffffffffffffffffffffffffffffffffffffffffffffffff\n    /* \"#utility.yul\":220:294   */\n  div\n    /* \"#utility.yul\":217:218   */\n  dup4\n    /* \"#utility.yul\":214:295   */\n  gt\n    /* \"#utility.yul\":209:210   */\n  dup3\n    /* \"#utility.yul\":202:211   */\n  iszero\n    /* \"#utility.yul\":195:212   */\n  iszero\n    /* \"#utility.yul\":191:296   */\n  and\n    /* \"#utility.yul\":188:190   */\n  iszero\n  tag_13\n  jumpi\n    /* \"#utility.yul\":299:317   */\n  tag_14\n  tag_15\n  jump\t// in\ntag_14:\n    /* \"#utility.yul\":188:190   */\ntag_13:\n    /* \"#utility.yul\":347:348   */\n  dup3\n    /* \"#utility.yul\":344:345   */\n  dup3\n    /* \"#utility.yul\":340:349   */\n  mul\n    /* \"#utility.yul\":329:349   */\n  swap1\n  pop\n    /* \"#utility.yul\":55:355   */\n  swap3\n  swap2\n  pop\n  pop\n  jump\t// out\n    /* \"#utility.yul\":361:438   */\ntag_11:\n  0x00\n    /* \"#utility.yul\":427:432   */\n  dup2\n    /* \"#utility.yul\":416:432   */\n  swap1\n  pop\n    /* \"#utility.yul\":406:438   */\n  swap2\n  swap1\n  pop\n  jump\t// out\n    /* \"#utility.yul\":444:624   */\ntag_15:\n    /* \"#utility.yul\":492:569   */\n  0x4e487b7100000000000000000000000000000000000000000000000000000000\n    /* \"#utility.yul\":489:490   */\n  0x00\n    /* \"#utility.yul\":482:570   */\n  mstore\n    /* \"#utility.yul\":589:593   */\n  0x11\n    /* \"#utility.yul\":586:587   */\n  0x04\n    /* \"#utility.yul\":579:594   */\n  mstore\n    /* \"#utility.yul\":613:617   */\n  0x24\n    /* \"#utility.yul\":610:611   */\n  0x00\n    /* \"#utility.yul\":603:618   */\n  revert\n    /* \"contracts/Founding Citizens NFT Sale.sol\":2827:7578  contract FoundingNFTSale is AccessControlExtension {\r... */\ntag_7:\n  dataSize(sub_0)\n  dup1\n  dataOffset(sub_0)\n  0x00\n  codecopy\n  0x00\n  return\nstop\n\nsub_0: assembly {\n        /* \"contracts/Founding Citizens NFT Sale.sol\":2827:7578  contract FoundingNFTSale is AccessControlExtension {\r... */\n      mstore(0x40, 0x80)\n      callvalue\n      dup1\n      iszero\n      tag_1\n      jumpi\n      0x00\n      dup1\n      revert\n    tag_1:\n      pop\n      jumpi(tag_2, lt(calldatasize, 0x04))\n      shr(0xe0, calldataload(0x00))\n      dup1\n      0x8c83faeb\n      gt\n      tag_29\n      jumpi\n      dup1\n      0xbff29cee\n      gt\n      tag_30\n      jumpi\n      dup1\n      0xc5f956af\n      gt\n      tag_31\n      jumpi\n      dup1\n      0xc5f956af\n      eq\n      tag_25\n      jumpi\n      dup1\n      0xccb98ffc\n      eq\n      tag_26\n      jumpi\n      dup1\n      0xd547741f\n      eq\n      tag_27\n      jumpi\n      dup1\n      0xf121da92\n      eq\n      tag_28\n      jumpi\n      jump(tag_2)\n    tag_31:\n      dup1\n      0xbff29cee\n      eq\n      tag_22\n      jumpi\n      dup1\n      0xc0463711\n      eq\n      tag_23\n      jumpi\n      dup1\n      0xc5dae48f\n      eq\n      tag_24\n      jumpi\n      jump(tag_2)\n    tag_30:\n      dup1\n      0x8c83faeb\n      eq\n      tag_16\n      jumpi\n      dup1\n      0x91232f18\n      eq\n      tag_17\n      jumpi\n      dup1\n      0x91d14854\n      eq\n      tag_18\n      jumpi\n      dup1\n      0x944044a1\n      eq\n      tag_19\n      jumpi\n      dup1\n      0xa217fddf\n      eq\n      tag_20\n      jumpi\n      dup1\n      0xab6c0306\n      eq\n      tag_21\n      jumpi\n      jump(tag_2)\n    tag_29:\n      dup1\n      0x4c9b73da\n      gt\n      tag_32\n      jumpi\n      dup1\n      0x5ce7e721\n      gt\n      tag_33\n      jumpi\n      dup1\n      0x5ce7e721\n      eq\n      tag_12\n      jumpi\n      dup1\n      0x673402e5\n      eq\n      tag_13\n      jumpi\n      dup1\n      0x682d07d9\n      eq\n      tag_14\n      jumpi\n      dup1\n      0x68fc01a2\n      eq\n      tag_15\n      jumpi\n      jump(tag_2)\n    tag_33:\n      dup1\n      0x4c9b73da\n      eq\n      tag_9\n      jumpi\n      dup1\n      0x51f7598c\n      eq\n      tag_10\n      jumpi\n      dup1\n      0x551b42a8\n      eq\n      tag_11\n      jumpi\n      jump(tag_2)\n    tag_32:\n      dup1\n      0x01ffc9a7\n      eq\n      tag_3\n      jumpi\n      dup1\n      0x1c7a9b65\n      eq\n      tag_4\n      jumpi\n      dup1\n      0x248a9ca3\n      eq\n      tag_5\n      jumpi\n      dup1\n      0x2f2ff15d\n      eq\n      tag_6\n      jumpi\n      dup1\n      0x36568abe\n      eq\n      tag_7\n      jumpi\n      dup1\n      0x4c0f38c2\n      eq\n      tag_8\n      jumpi\n    tag_2:\n      0x00\n      dup1\n      revert\n        /* \"@openzeppelin/contracts@4.4.2/access/AccessControl.sol\":2605:2807  function supportsInterface(bytes4 interfaceId) public view virtual override returns (bool) {... */\n    tag_3:\n      tag_34\n      0x04\n      dup1\n      calldatasize\n      sub\n      dup2\n      add\n      swap1\n      tag_35\n      swap2\n      swap1\n      tag_36\n      jump\t// in\n    tag_35:\n      tag_37\n      jump\t// in\n    tag_34:\n      mload(0x40)\n      tag_38\n      swap2\n      swap1\n      tag_39\n      jump\t// in\n    tag_38:\n      mload(0x40)\n      dup1\n      swap2\n      sub\n      swap1\n      return\n        /* \"contracts/Founding Citizens NFT Sale.sol\":3587:3608  string[] public temp1 */\n    tag_4:\n      tag_40\n      0x04\n      dup1\n      calldatasize\n      sub\n      dup2\n      add\n      swap1\n      tag_41\n      swap2\n      swap1\n      tag_42\n      jump\t// in\n    tag_41:\n      tag_43\n      jump\t// in\n    tag_40:\n      mload(0x40)\n      tag_44\n      swap2\n      swap1\n      tag_45\n      jump\t// in\n    tag_44:\n      mload(0x40)\n      dup1\n      swap2\n      sub\n      swap1\n      return\n        /* \"@openzeppelin/contracts@4.4.2/access/AccessControl.sol\":3977:4098  function getRoleAdmin(bytes32 role) public view override returns (bytes32) {... */\n    tag_5:\n      tag_46\n      0x04\n      dup1\n      calldatasize\n      sub\n      dup2\n      add\n      swap1\n      tag_47\n      swap2\n      swap1\n      tag_48\n      jump\t// in\n    tag_47:\n      tag_49\n      jump\t// in\n    tag_46:\n      mload(0x40)\n      tag_50\n      swap2\n      swap1\n      tag_51\n      jump\t// in\n    tag_50:\n      mload(0x40)\n      dup1\n      swap2\n      sub\n      swap1\n      return\n        /* \"@openzeppelin/contracts@4.4.2/access/AccessControl.sol\":4348:4493  function grantRole(bytes32 role, address account) public virtual override onlyRole(getRoleAdmin(role)) {... */\n    tag_6:\n      tag_52\n      0x04\n      dup1\n      calldatasize\n      sub\n      dup2\n      add\n      swap1\n      tag_53\n      swap2\n      swap1\n      tag_54\n      jump\t// in\n    tag_53:\n      tag_55\n      jump\t// in\n    tag_52:\n      stop\n        /* \"@openzeppelin/contracts@4.4.2/access/AccessControl.sol\":5365:5579  function renounceRole(bytes32 role, address account) public virtual override {... */\n    tag_7:\n      tag_56\n      0x04\n      dup1\n      calldatasize\n      sub\n      dup2\n      add\n      swap1\n      tag_57\n      swap2\n      swap1\n      tag_54\n      jump\t// in\n    tag_57:\n      tag_58\n      jump\t// in\n    tag_56:\n      stop\n        /* \"contracts/Founding Citizens NFT Sale.sol\":5500:5627  function getMaxSupply() public view returns(uint) {\r... */\n    tag_8:\n      tag_59\n      tag_60\n      jump\t// in\n    tag_59:\n      mload(0x40)\n      tag_61\n      swap2\n      swap1\n      tag_62\n      jump\t// in\n    tag_61:\n      mload(0x40)\n      dup1\n      swap2\n      sub\n      swap1\n      return\n        /* \"contracts/Founding Citizens NFT Sale.sol\":6986:7156  function buyNftWithDiscount(uint discountRate) public pushesUpdate {\r... */\n    tag_9:\n      tag_63\n      0x04\n      dup1\n      calldatasize\n      sub\n      dup2\n      add\n      swap1\n      tag_64\n      swap2\n      swap1\n      tag_42\n      jump\t// in\n    tag_64:\n      tag_65\n      jump\t// in\n    tag_63:\n      stop\n        /* \"contracts/Founding Citizens NFT Sale.sol\":4677:4844  function setStorageContractAddress(address storageAddress) public onlyRole(DEFAULT_ADMIN_ROLE) {\r... */\n    tag_10:\n      tag_66\n      0x04\n      dup1\n      calldatasize\n      sub\n      dup2\n      add\n      swap1\n      tag_67\n      swap2\n      swap1\n      tag_68\n      jump\t// in\n    tag_67:\n      tag_69\n      jump\t// in\n    tag_66:\n      stop\n        /* \"contracts/Founding Citizens NFT Sale.sol\":3159:3233  bytes32 public constant SALE_MANAGER_ROLE = keccak256(\"SALE_MANAGER_ROLE\") */\n    tag_11:\n      tag_70\n      tag_71\n      jump\t// in\n    tag_70:\n      mload(0x40)\n      tag_72\n      swap2\n      swap1\n      tag_51\n      jump\t// in\n    tag_72:\n      mload(0x40)\n      dup1\n      swap2\n      sub\n      swap1\n      return\n        /* \"contracts/Founding Citizens NFT Sale.sol\":2934:2982  IPrivilegedListStorage public privilgedBuyerList */\n    tag_12:\n      tag_73\n      tag_74\n      jump\t// in\n    tag_73:\n      mload(0x40)\n      tag_75\n      swap2\n      swap1\n      tag_76\n      jump\t// in\n    tag_75:\n      mload(0x40)\n      dup1\n      swap2\n      sub\n      swap1\n      return\n        /* \"contracts/Founding Citizens NFT Sale.sol\":4852:4989  function temp() public /*returns(string[] memory)*/ {\r... */\n    tag_13:\n      tag_77\n      tag_78\n      jump\t// in\n    tag_77:\n      stop\n        /* \"contracts/Founding Citizens NFT Sale.sol\":3080:3152  bytes32 public constant URI_MANAGER_ROLE = keccak256(\"URI_MANAGER_ROLE\") */\n    tag_14:\n      tag_79\n      tag_80\n      jump\t// in\n    tag_79:\n      mload(0x40)\n      tag_81\n      swap2\n      swap1\n      tag_51\n      jump\t// in\n    tag_81:\n      mload(0x40)\n      dup1\n      swap2\n      sub\n      swap1\n      return\n        /* \"contracts/Founding Citizens NFT Sale.sol\":5353:5492  function getNextUnusedToken() public view returns(uint) {\r... */\n    tag_15:\n      tag_82\n      tag_83\n      jump\t// in\n    tag_82:\n      mload(0x40)\n      tag_84\n      swap2\n      swap1\n      tag_62\n      jump\t// in\n    tag_84:\n      mload(0x40)\n      dup1\n      swap2\n      sub\n      swap1\n      return\n        /* \"contracts/Founding Citizens NFT Sale.sol\":2885:2927  IMintStorage public ERC1155storageContract */\n    tag_16:\n      tag_85\n      tag_86\n      jump\t// in\n    tag_85:\n      mload(0x40)\n      tag_87\n      swap2\n      swap1\n      tag_88\n      jump\t// in\n    tag_87:\n      mload(0x40)\n      dup1\n      swap2\n      sub\n      swap1\n      return\n        /* \"contracts/Founding Citizens NFT Sale.sol\":7164:7575  function mintToTreasuryAddress() public requiresUpdate {\r... */\n    tag_17:\n      tag_89\n      tag_90\n      jump\t// in\n    tag_89:\n      stop\n        /* \"@openzeppelin/contracts@4.4.2/access/AccessControl.sol\":2894:3031  function hasRole(bytes32 role, address account) public view override returns (bool) {... */\n    tag_18:\n      tag_91\n      0x04\n      dup1\n      calldatasize\n      sub\n      dup2\n      add\n      swap1\n      tag_92\n      swap2\n      swap1\n      tag_54\n      jump\t// in\n    tag_92:\n      tag_93\n      jump\t// in\n    tag_91:\n      mload(0x40)\n      tag_94\n      swap2\n      swap1\n      tag_39\n      jump\t// in\n    tag_94:\n      mload(0x40)\n      dup1\n      swap2\n      sub\n      swap1\n      return\n        /* \"contracts/Founding Citizens NFT Sale.sol\":5635:5913  function setstartTime(uint unixTime) public {\r... */\n    tag_19:\n      tag_95\n      0x04\n      dup1\n      calldatasize\n      sub\n      dup2\n      add\n      swap1\n      tag_96\n      swap2\n      swap1\n      tag_42\n      jump\t// in\n    tag_96:\n      tag_97\n      jump\t// in\n    tag_95:\n      stop\n        /* \"@openzeppelin/contracts@4.4.2/access/AccessControl.sol\":2012:2061  bytes32 public constant DEFAULT_ADMIN_ROLE = 0x00 */\n    tag_20:\n      tag_98\n      tag_99\n      jump\t// in\n    tag_98:\n      mload(0x40)\n      tag_100\n      swap2\n      swap1\n      tag_51\n      jump\t// in\n    tag_100:\n      mload(0x40)\n      dup1\n      swap2\n      sub\n      swap1\n      return\n        /* \"contracts/Founding Citizens NFT Sale.sol\":6203:6653  function calculateCustomPrice(address prospectiveBuyer, uint discountRate) \r... */\n    tag_21:\n      tag_101\n      0x04\n      dup1\n      calldatasize\n      sub\n      dup2\n      add\n      swap1\n      tag_102\n      swap2\n      swap1\n      tag_103\n      jump\t// in\n    tag_102:\n      tag_104\n      jump\t// in\n    tag_101:\n      mload(0x40)\n      tag_105\n      swap2\n      swap1\n      tag_62\n      jump\t// in\n    tag_105:\n      mload(0x40)\n      dup1\n      swap2\n      sub\n      swap1\n      return\n        /* \"contracts/Founding Citizens NFT Sale.sol\":6833:6978  function buyNFT() public pushesUpdate { //requires using existing balance\r... */\n    tag_22:\n      tag_106\n      tag_107\n      jump\t// in\n    tag_106:\n      stop\n        /* \"contracts/Founding Citizens NFT Sale.sol\":3712:3776  Update public lastUpdate = Update(10000, block.timestamp, false) */\n    tag_23:\n      tag_108\n      tag_109\n      jump\t// in\n    tag_108:\n      mload(0x40)\n      tag_110\n      swap4\n      swap3\n      swap2\n      swap1\n      tag_111\n      jump\t// in\n    tag_110:\n      mload(0x40)\n      dup1\n      swap2\n      sub\n      swap1\n      return\n        /* \"contracts/Founding Citizens NFT Sale.sol\":2989:3034  IUsdcStorage public usdcEscrowStorageContract */\n    tag_24:\n      tag_112\n      tag_113\n      jump\t// in\n    tag_112:\n      mload(0x40)\n      tag_114\n      swap2\n      swap1\n      tag_115\n      jump\t// in\n    tag_114:\n      mload(0x40)\n      dup1\n      swap2\n      sub\n      swap1\n      return\n        /* \"contracts/Founding Citizens NFT Sale.sol\":3041:3071  address public treasuryAddress */\n    tag_25:\n      tag_116\n      tag_117\n      jump\t// in\n    tag_116:\n      mload(0x40)\n      tag_118\n      swap2\n      swap1\n      tag_119\n      jump\t// in\n    tag_118:\n      mload(0x40)\n      dup1\n      swap2\n      sub\n      swap1\n      return\n        /* \"contracts/Founding Citizens NFT Sale.sol\":5921:6195  function setEndTime(uint unixTime) public {\r... */\n    tag_26:\n      tag_120\n      0x04\n      dup1\n      calldatasize\n      sub\n      dup2\n      add\n      swap1\n      tag_121\n      swap2\n      swap1\n      tag_42\n      jump\t// in\n    tag_121:\n      tag_122\n      jump\t// in\n    tag_120:\n      stop\n        /* \"@openzeppelin/contracts@4.4.2/access/AccessControl.sol\":4727:4874  function revokeRole(bytes32 role, address account) public virtual override onlyRole(getRoleAdmin(role)) {... */\n    tag_27:\n      tag_123\n      0x04\n      dup1\n      calldatasize\n      sub\n      dup2\n      add\n      swap1\n      tag_124\n      swap2\n      swap1\n      tag_54\n      jump\t// in\n    tag_124:\n      tag_125\n      jump\t// in\n    tag_123:\n      stop\n        /* \"contracts/Founding Citizens NFT Sale.sol\":5191:5345  function preLoadURIs(uint[] memory ids, string[] memory uris) \r... */\n    tag_28:\n      tag_126\n      0x04\n      dup1\n      calldatasize\n      sub\n      dup2\n      add\n      swap1\n      tag_127\n      swap2\n      swap1\n      tag_128\n      jump\t// in\n    tag_127:\n      tag_129\n      jump\t// in\n    tag_126:\n      stop\n        /* \"@openzeppelin/contracts@4.4.2/access/AccessControl.sol\":2605:2807  function supportsInterface(bytes4 interfaceId) public view virtual override returns (bool) {... */\n    tag_37:\n        /* \"@openzeppelin/contracts@4.4.2/access/AccessControl.sol\":2690:2694  bool */\n      0x00\n        /* \"@openzeppelin/contracts@4.4.2/access/AccessControl.sol\":2728:2760  type(IAccessControl).interfaceId */\n      0x7965db0b00000000000000000000000000000000000000000000000000000000\n        /* \"@openzeppelin/contracts@4.4.2/access/AccessControl.sol\":2713:2760  interfaceId == type(IAccessControl).interfaceId */\n      not(0xffffffffffffffffffffffffffffffffffffffffffffffffffffffff)\n      and\n        /* \"@openzeppelin/contracts@4.4.2/access/AccessControl.sol\":2713:2724  interfaceId */\n      dup3\n        /* \"@openzeppelin/contracts@4.4.2/access/AccessControl.sol\":2713:2760  interfaceId == type(IAccessControl).interfaceId */\n      not(0xffffffffffffffffffffffffffffffffffffffffffffffffffffffff)\n      and\n      eq\n        /* \"@openzeppelin/contracts@4.4.2/access/AccessControl.sol\":2713:2800  interfaceId == type(IAccessControl).interfaceId || super.supportsInterface(interfaceId) */\n      dup1\n      tag_131\n      jumpi\n      pop\n        /* \"@openzeppelin/contracts@4.4.2/access/AccessControl.sol\":2764:2800  super.supportsInterface(interfaceId) */\n      tag_132\n        /* \"@openzeppelin/contracts@4.4.2/access/AccessControl.sol\":2788:2799  interfaceId */\n      dup3\n        /* \"@openzeppelin/contracts@4.4.2/access/AccessControl.sol\":2764:2787  super.supportsInterface */\n      tag_133\n        /* \"@openzeppelin/contracts@4.4.2/access/AccessControl.sol\":2764:2800  super.supportsInterface(interfaceId) */\n      jump\t// in\n    tag_132:\n        /* \"@openzeppelin/contracts@4.4.2/access/AccessControl.sol\":2713:2800  interfaceId == type(IAccessControl).interfaceId || super.supportsInterface(interfaceId) */\n    tag_131:\n        /* \"@openzeppelin/contracts@4.4.2/access/AccessControl.sol\":2706:2800  return interfaceId == type(IAccessControl).interfaceId || super.supportsInterface(interfaceId) */\n      swap1\n      pop\n        /* \"@openzeppelin/contracts@4.4.2/access/AccessControl.sol\":2605:2807  function supportsInterface(bytes4 interfaceId) public view virtual override returns (bool) {... */\n      swap2\n      swap1\n      pop\n      jump\t// out\n        /* \"contracts/Founding Citizens NFT Sale.sol\":3587:3608  string[] public temp1 */\n    tag_43:\n      0x09\n      dup2\n      dup2\n      sload\n      dup2\n      lt\n      tag_134\n      jumpi\n      0x00\n      dup1\n      revert\n    tag_134:\n      swap1\n      0x00\n      mstore\n      keccak256(0x00, 0x20)\n      add\n      0x00\n      swap2\n      pop\n      swap1\n      pop\n      dup1\n      sload\n      tag_136\n      swap1\n      tag_137\n      jump\t// in\n    tag_136:\n      dup1\n      0x1f\n      add\n      0x20\n      dup1\n      swap2\n      div\n      mul\n      0x20\n      add\n      mload(0x40)\n      swap1\n      dup2\n      add\n      0x40\n      mstore\n      dup1\n      swap3\n      swap2\n      swap1\n      dup2\n      dup2\n      mstore\n      0x20\n      add\n      dup3\n      dup1\n      sload\n      tag_138\n      swap1\n      tag_137\n      jump\t// in\n    tag_138:\n      dup1\n      iszero\n      tag_139\n      jumpi\n      dup1\n      0x1f\n      lt\n      tag_140\n      jumpi\n      0x0100\n      dup1\n      dup4\n      sload\n      div\n      mul\n      dup4\n      mstore\n      swap2\n      0x20\n      add\n      swap2\n      jump(tag_139)\n    tag_140:\n      dup3\n      add\n      swap2\n      swap1\n      0x00\n      mstore\n      keccak256(0x00, 0x20)\n      swap1\n    tag_141:\n      dup2\n      sload\n      dup2\n      mstore\n      swap1\n      0x01\n      add\n      swap1\n      0x20\n      add\n      dup1\n      dup4\n      gt\n      tag_141\n      jumpi\n      dup3\n      swap1\n      sub\n      0x1f\n      and\n      dup3\n      add\n      swap2\n    tag_139:\n      pop\n      pop\n      pop\n      pop\n      pop\n      dup2\n      jump\t// out\n        /* \"@openzeppelin/contracts@4.4.2/access/AccessControl.sol\":3977:4098  function getRoleAdmin(bytes32 role) public view override returns (bytes32) {... */\n    tag_49:\n        /* \"@openzeppelin/contracts@4.4.2/access/AccessControl.sol\":4043:4050  bytes32 */\n      0x00\n        /* \"@openzeppelin/contracts@4.4.2/access/AccessControl.sol\":4069:4075  _roles */\n      dup1\n        /* \"@openzeppelin/contracts@4.4.2/access/AccessControl.sol\":4069:4081  _roles[role] */\n      0x00\n        /* \"@openzeppelin/contracts@4.4.2/access/AccessControl.sol\":4076:4080  role */\n      dup4\n        /* \"@openzeppelin/contracts@4.4.2/access/AccessControl.sol\":4069:4081  _roles[role] */\n      dup2\n      mstore\n      0x20\n      add\n      swap1\n      dup2\n      mstore\n      0x20\n      add\n      0x00\n      keccak256\n        /* \"@openzeppelin/contracts@4.4.2/access/AccessControl.sol\":4069:4091  _roles[role].adminRole */\n      0x01\n      add\n      sload\n        /* \"@openzeppelin/contracts@4.4.2/access/AccessControl.sol\":4062:4091  return _roles[role].adminRole */\n      swap1\n      pop\n        /* \"@openzeppelin/contracts@4.4.2/access/AccessControl.sol\":3977:4098  function getRoleAdmin(bytes32 role) public view override returns (bytes32) {... */\n      swap2\n      swap1\n      pop\n      jump\t// out\n        /* \"@openzeppelin/contracts@4.4.2/access/AccessControl.sol\":4348:4493  function grantRole(bytes32 role, address account) public virtual override onlyRole(getRoleAdmin(role)) {... */\n    tag_55:\n        /* \"@openzeppelin/contracts@4.4.2/access/AccessControl.sol\":4431:4449  getRoleAdmin(role) */\n      tag_143\n        /* \"@openzeppelin/contracts@4.4.2/access/AccessControl.sol\":4444:4448  role */\n      dup3\n        /* \"@openzeppelin/contracts@4.4.2/access/AccessControl.sol\":4431:4443  getRoleAdmin */\n      tag_49\n        /* \"@openzeppelin/contracts@4.4.2/access/AccessControl.sol\":4431:4449  getRoleAdmin(role) */\n      jump\t// in\n    tag_143:\n        /* \"@openzeppelin/contracts@4.4.2/access/AccessControl.sol\":2490:2520  _checkRole(role, _msgSender()) */\n      tag_145\n        /* \"@openzeppelin/contracts@4.4.2/access/AccessControl.sol\":2501:2505  role */\n      dup2\n        /* \"@openzeppelin/contracts@4.4.2/access/AccessControl.sol\":2507:2519  _msgSender() */\n      tag_146\n        /* \"@openzeppelin/contracts@4.4.2/access/AccessControl.sol\":2507:2517  _msgSender */\n      tag_147\n        /* \"@openzeppelin/contracts@4.4.2/access/AccessControl.sol\":2507:2519  _msgSender() */\n      jump\t// in\n    tag_146:\n        /* \"@openzeppelin/contracts@4.4.2/access/AccessControl.sol\":2490:2500  _checkRole */\n      tag_148\n        /* \"@openzeppelin/contracts@4.4.2/access/AccessControl.sol\":2490:2520  _checkRole(role, _msgSender()) */\n      jump\t// in\n    tag_145:\n        /* \"@openzeppelin/contracts@4.4.2/access/AccessControl.sol\":4461:4486  _grantRole(role, account) */\n      tag_150\n        /* \"@openzeppelin/contracts@4.4.2/access/AccessControl.sol\":4472:4476  role */\n      dup4\n        /* \"@openzeppelin/contracts@4.4.2/access/AccessControl.sol\":4478:4485  account */\n      dup4\n        /* \"@openzeppelin/contracts@4.4.2/access/AccessControl.sol\":4461:4471  _grantRole */\n      tag_151\n        /* \"@openzeppelin/contracts@4.4.2/access/AccessControl.sol\":4461:4486  _grantRole(role, account) */\n      jump\t// in\n    tag_150:\n        /* \"@openzeppelin/contracts@4.4.2/access/AccessControl.sol\":4348:4493  function grantRole(bytes32 role, address account) public virtual override onlyRole(getRoleAdmin(role)) {... */\n      pop\n      pop\n      pop\n      jump\t// out\n        /* \"@openzeppelin/contracts@4.4.2/access/AccessControl.sol\":5365:5579  function renounceRole(bytes32 role, address account) public virtual override {... */\n    tag_58:\n        /* \"@openzeppelin/contracts@4.4.2/access/AccessControl.sol\":5471:5483  _msgSender() */\n      tag_153\n        /* \"@openzeppelin/contracts@4.4.2/access/AccessControl.sol\":5471:5481  _msgSender */\n      tag_147\n        /* \"@openzeppelin/contracts@4.4.2/access/AccessControl.sol\":5471:5483  _msgSender() */\n      jump\t// in\n    tag_153:\n        /* \"@openzeppelin/contracts@4.4.2/access/AccessControl.sol\":5460:5483  account == _msgSender() */\n      0xffffffffffffffffffffffffffffffffffffffff\n      and\n        /* \"@openzeppelin/contracts@4.4.2/access/AccessControl.sol\":5460:5467  account */\n      dup2\n        /* \"@openzeppelin/contracts@4.4.2/access/AccessControl.sol\":5460:5483  account == _msgSender() */\n      0xffffffffffffffffffffffffffffffffffffffff\n      and\n      eq\n        /* \"@openzeppelin/contracts@4.4.2/access/AccessControl.sol\":5452:5535  require(account == _msgSender(), \"AccessControl: can only renounce roles for self\") */\n      tag_154\n      jumpi\n      mload(0x40)\n      0x08c379a000000000000000000000000000000000000000000000000000000000\n      dup2\n      mstore\n      0x04\n      add\n      tag_155\n      swap1\n      tag_156\n      jump\t// in\n    tag_155:\n      mload(0x40)\n      dup1\n      swap2\n      sub\n      swap1\n      revert\n    tag_154:\n        /* \"@openzeppelin/contracts@4.4.2/access/AccessControl.sol\":5546:5572  _revokeRole(role, account) */\n      tag_157\n        /* \"@openzeppelin/contracts@4.4.2/access/AccessControl.sol\":5558:5562  role */\n      dup3\n        /* \"@openzeppelin/contracts@4.4.2/access/AccessControl.sol\":5564:5571  account */\n      dup3\n        /* \"@openzeppelin/contracts@4.4.2/access/AccessControl.sol\":5546:5557  _revokeRole */\n      tag_158\n        /* \"@openzeppelin/contracts@4.4.2/access/AccessControl.sol\":5546:5572  _revokeRole(role, account) */\n      jump\t// in\n    tag_157:\n        /* \"@openzeppelin/contracts@4.4.2/access/AccessControl.sol\":5365:5579  function renounceRole(bytes32 role, address account) public virtual override {... */\n      pop\n      pop\n      jump\t// out\n        /* \"contracts/Founding Citizens NFT Sale.sol\":5500:5627  function getMaxSupply() public view returns(uint) {\r... */\n    tag_60:\n        /* \"contracts/Founding Citizens NFT Sale.sol\":5544:5548  uint */\n      0x00\n        /* \"contracts/Founding Citizens NFT Sale.sol\":5581:5603  ERC1155storageContract */\n      0x01\n      0x00\n      swap1\n      sload\n      swap1\n      0x0100\n      exp\n      swap1\n      div\n      0xffffffffffffffffffffffffffffffffffffffff\n      and\n        /* \"contracts/Founding Citizens NFT Sale.sol\":5568:5617  IMintStorage(ERC1155storageContract).getMaxSupply */\n      0xffffffffffffffffffffffffffffffffffffffff\n      and\n      0x4c0f38c2\n        /* \"contracts/Founding Citizens NFT Sale.sol\":5568:5619  IMintStorage(ERC1155storageContract).getMaxSupply() */\n      mload(0x40)\n      dup2\n      0xffffffff\n      and\n      0xe0\n      shl\n      dup2\n      mstore\n      0x04\n      add\n      0x20\n      mload(0x40)\n      dup1\n      dup4\n      sub\n      dup2\n      dup7\n      dup1\n      extcodesize\n      iszero\n      dup1\n      iszero\n      tag_160\n      jumpi\n      0x00\n      dup1\n      revert\n    tag_160:\n      pop\n      gas\n      staticcall\n      iszero\n      dup1\n      iszero\n      tag_162\n      jumpi\n      returndatasize\n      0x00\n      dup1\n      returndatacopy\n      revert(0x00, returndatasize)\n    tag_162:\n      pop\n      pop\n      pop\n      pop\n      mload(0x40)\n      returndatasize\n      not(0x1f)\n      0x1f\n      dup3\n      add\n      and\n      dup3\n      add\n      dup1\n      0x40\n      mstore\n      pop\n      dup2\n      add\n      swap1\n      tag_163\n      swap2\n      swap1\n      tag_164\n      jump\t// in\n    tag_163:\n        /* \"contracts/Founding Citizens NFT Sale.sol\":5561:5619  return IMintStorage(ERC1155storageContract).getMaxSupply() */\n      swap1\n      pop\n        /* \"contracts/Founding Citizens NFT Sale.sol\":5500:5627  function getMaxSupply() public view returns(uint) {\r... */\n      swap1\n      jump\t// out\n        /* \"contracts/Founding Citizens NFT Sale.sol\":6986:7156  function buyNftWithDiscount(uint discountRate) public pushesUpdate {\r... */\n    tag_65:\n        /* \"contracts/Founding Citizens NFT Sale.sol\":3959:3972  updateState() */\n      tag_166\n        /* \"contracts/Founding Citizens NFT Sale.sol\":3959:3970  updateState */\n      tag_167\n        /* \"contracts/Founding Citizens NFT Sale.sol\":3959:3972  updateState() */\n      jump\t// in\n    tag_166:\n        /* \"contracts/Founding Citizens NFT Sale.sol\":7064:7074  uint price */\n      0x00\n        /* \"contracts/Founding Citizens NFT Sale.sol\":7077:7123  calculateCustomPrice(msg.sender, discountRate) */\n      tag_169\n        /* \"contracts/Founding Citizens NFT Sale.sol\":7098:7108  msg.sender */\n      caller\n        /* \"contracts/Founding Citizens NFT Sale.sol\":7110:7122  discountRate */\n      dup4\n        /* \"contracts/Founding Citizens NFT Sale.sol\":7077:7097  calculateCustomPrice */\n      tag_104\n        /* \"contracts/Founding Citizens NFT Sale.sol\":7077:7123  calculateCustomPrice(msg.sender, discountRate) */\n      jump\t// in\n    tag_169:\n        /* \"contracts/Founding Citizens NFT Sale.sol\":7064:7123  uint price = calculateCustomPrice(msg.sender, discountRate) */\n      swap1\n      pop\n        /* \"contracts/Founding Citizens NFT Sale.sol\":7134:7148  _buyNFT(price) */\n      tag_170\n        /* \"contracts/Founding Citizens NFT Sale.sol\":7142:7147  price */\n      dup2\n        /* \"contracts/Founding Citizens NFT Sale.sol\":7134:7141  _buyNFT */\n      tag_171\n        /* \"contracts/Founding Citizens NFT Sale.sol\":7134:7148  _buyNFT(price) */\n      jump\t// in\n    tag_170:\n        /* \"contracts/Founding Citizens NFT Sale.sol\":3983:3984  _ */\n      pop\n        /* \"contracts/Founding Citizens NFT Sale.sol\":6986:7156  function buyNftWithDiscount(uint discountRate) public pushesUpdate {\r... */\n      pop\n      jump\t// out\n        /* \"contracts/Founding Citizens NFT Sale.sol\":4677:4844  function setStorageContractAddress(address storageAddress) public onlyRole(DEFAULT_ADMIN_ROLE) {\r... */\n    tag_69:\n        /* \"@openzeppelin/contracts@4.4.2/access/AccessControl.sol\":2057:2061  0x00 */\n      0x00\n        /* \"contracts/Founding Citizens NFT Sale.sol\":4752:4770  DEFAULT_ADMIN_ROLE */\n      dup1\n      shl\n        /* \"@openzeppelin/contracts@4.4.2/access/AccessControl.sol\":2490:2520  _checkRole(role, _msgSender()) */\n      tag_173\n        /* \"@openzeppelin/contracts@4.4.2/access/AccessControl.sol\":2501:2505  role */\n      dup2\n        /* \"@openzeppelin/contracts@4.4.2/access/AccessControl.sol\":2507:2519  _msgSender() */\n      tag_174\n        /* \"@openzeppelin/contracts@4.4.2/access/AccessControl.sol\":2507:2517  _msgSender */\n      tag_147\n        /* \"@openzeppelin/contracts@4.4.2/access/AccessControl.sol\":2507:2519  _msgSender() */\n      jump\t// in\n    tag_174:\n        /* \"@openzeppelin/contracts@4.4.2/access/AccessControl.sol\":2490:2500  _checkRole */\n      tag_148\n        /* \"@openzeppelin/contracts@4.4.2/access/AccessControl.sol\":2490:2520  _checkRole(role, _msgSender()) */\n      jump\t// in\n    tag_173:\n        /* \"contracts/Founding Citizens NFT Sale.sol\":4821:4835  storageAddress */\n      dup2\n        /* \"contracts/Founding Citizens NFT Sale.sol\":4783:4805  ERC1155storageContract */\n      0x01\n      0x00\n        /* \"contracts/Founding Citizens NFT Sale.sol\":4783:4836  ERC1155storageContract = IMintStorage(storageAddress) */\n      0x0100\n      exp\n      dup2\n      sload\n      dup2\n      0xffffffffffffffffffffffffffffffffffffffff\n      mul\n      not\n      and\n      swap1\n      dup4\n      0xffffffffffffffffffffffffffffffffffffffff\n      and\n      mul\n      or\n      swap1\n      sstore\n      pop\n        /* \"contracts/Founding Citizens NFT Sale.sol\":4677:4844  function setStorageContractAddress(address storageAddress) public onlyRole(DEFAULT_ADMIN_ROLE) {\r... */\n      pop\n      pop\n      jump\t// out\n        /* \"contracts/Founding Citizens NFT Sale.sol\":3159:3233  bytes32 public constant SALE_MANAGER_ROLE = keccak256(\"SALE_MANAGER_ROLE\") */\n    tag_71:\n        /* \"contracts/Founding Citizens NFT Sale.sol\":3203:3233  keccak256(\"SALE_MANAGER_ROLE\") */\n      0x988301af8238f779281a300de031815cd01b48e9f1ae47a0f91ed6584213624a\n        /* \"contracts/Founding Citizens NFT Sale.sol\":3159:3233  bytes32 public constant SALE_MANAGER_ROLE = keccak256(\"SALE_MANAGER_ROLE\") */\n      dup2\n      jump\t// out\n        /* \"contracts/Founding Citizens NFT Sale.sol\":2934:2982  IPrivilegedListStorage public privilgedBuyerList */\n    tag_74:\n      0x02\n      0x00\n      swap1\n      sload\n      swap1\n      0x0100\n      exp\n      swap1\n      div\n      0xffffffffffffffffffffffffffffffffffffffff\n      and\n      dup2\n      jump\t// out\n        /* \"contracts/Founding Citizens NFT Sale.sol\":4852:4989  function temp() public /*returns(string[] memory)*/ {\r... */\n    tag_78:\n        /* \"contracts/Founding Citizens NFT Sale.sol\":4915:4929  temp1[0] = \"J\" */\n      mload(0x40)\n      dup1\n      0x40\n      add\n      0x40\n      mstore\n      dup1\n      0x01\n      dup2\n      mstore\n      0x20\n      add\n      0x4a00000000000000000000000000000000000000000000000000000000000000\n      dup2\n      mstore\n      pop\n        /* \"contracts/Founding Citizens NFT Sale.sol\":4915:4920  temp1 */\n      0x09\n        /* \"contracts/Founding Citizens NFT Sale.sol\":4921:4922  0 */\n      0x00\n        /* \"contracts/Founding Citizens NFT Sale.sol\":4915:4923  temp1[0] */\n      dup2\n      sload\n      dup2\n      lt\n      tag_177\n      jumpi\n      mstore(0x00, 0x4e487b7100000000000000000000000000000000000000000000000000000000)\n      mstore(0x04, 0x32)\n      revert(0x00, 0x24)\n    tag_177:\n      swap1\n      0x00\n      mstore\n      keccak256(0x00, 0x20)\n      add\n        /* \"contracts/Founding Citizens NFT Sale.sol\":4915:4929  temp1[0] = \"J\" */\n      swap1\n      dup1\n      mload\n      swap1\n      0x20\n      add\n      swap1\n      tag_179\n      swap3\n      swap2\n      swap1\n      tag_180\n      jump\t// in\n    tag_179:\n      pop\n        /* \"contracts/Founding Citizens NFT Sale.sol\":4852:4989  function temp() public /*returns(string[] memory)*/ {\r... */\n      jump\t// out\n        /* \"contracts/Founding Citizens NFT Sale.sol\":3080:3152  bytes32 public constant URI_MANAGER_ROLE = keccak256(\"URI_MANAGER_ROLE\") */\n    tag_80:\n        /* \"contracts/Founding Citizens NFT Sale.sol\":3123:3152  keccak256(\"URI_MANAGER_ROLE\") */\n      0xa70a2d8710fed9f014c8c2af50c7c2f6b25748ae4cded822e03b7beed44cf3a8\n        /* \"contracts/Founding Citizens NFT Sale.sol\":3080:3152  bytes32 public constant URI_MANAGER_ROLE = keccak256(\"URI_MANAGER_ROLE\") */\n      dup2\n      jump\t// out\n        /* \"contracts/Founding Citizens NFT Sale.sol\":5353:5492  function getNextUnusedToken() public view returns(uint) {\r... */\n    tag_83:\n        /* \"contracts/Founding Citizens NFT Sale.sol\":5403:5407  uint */\n      0x00\n        /* \"contracts/Founding Citizens NFT Sale.sol\":5440:5462  ERC1155storageContract */\n      0x01\n      0x00\n      swap1\n      sload\n      swap1\n      0x0100\n      exp\n      swap1\n      div\n      0xffffffffffffffffffffffffffffffffffffffff\n      and\n        /* \"contracts/Founding Citizens NFT Sale.sol\":5427:5482  IMintStorage(ERC1155storageContract).getNextUnusedToken */\n      0xffffffffffffffffffffffffffffffffffffffff\n      and\n      0x68fc01a2\n        /* \"contracts/Founding Citizens NFT Sale.sol\":5427:5484  IMintStorage(ERC1155storageContract).getNextUnusedToken() */\n      mload(0x40)\n      dup2\n      0xffffffff\n      and\n      0xe0\n      shl\n      dup2\n      mstore\n      0x04\n      add\n      0x20\n      mload(0x40)\n      dup1\n      dup4\n      sub\n      dup2\n      dup7\n      dup1\n      extcodesize\n      iszero\n      dup1\n      iszero\n      tag_182\n      jumpi\n      0x00\n      dup1\n      revert\n    tag_182:\n      pop\n      gas\n      staticcall\n      iszero\n      dup1\n      iszero\n      tag_184\n      jumpi\n      returndatasize\n      0x00\n      dup1\n      returndatacopy\n      revert(0x00, returndatasize)\n    tag_184:\n      pop\n      pop\n      pop\n      pop\n      mload(0x40)\n      returndatasize\n      not(0x1f)\n      0x1f\n      dup3\n      add\n      and\n      dup3\n      add\n      dup1\n      0x40\n      mstore\n      pop\n      dup2\n      add\n      swap1\n      tag_185\n      swap2\n      swap1\n      tag_164\n      jump\t// in\n    tag_185:\n        /* \"contracts/Founding Citizens NFT Sale.sol\":5420:5484  return IMintStorage(ERC1155storageContract).getNextUnusedToken() */\n      swap1\n      pop\n        /* \"contracts/Founding Citizens NFT Sale.sol\":5353:5492  function getNextUnusedToken() public view returns(uint) {\r... */\n      swap1\n      jump\t// out\n        /* \"contracts/Founding Citizens NFT Sale.sol\":2885:2927  IMintStorage public ERC1155storageContract */\n    tag_86:\n      0x01\n      0x00\n      swap1\n      sload\n      swap1\n      0x0100\n      exp\n      swap1\n      div\n      0xffffffffffffffffffffffffffffffffffffffff\n      and\n      dup2\n      jump\t// out\n        /* \"contracts/Founding Citizens NFT Sale.sol\":7164:7575  function mintToTreasuryAddress() public requiresUpdate {\r... */\n    tag_90:\n        /* \"contracts/Founding Citizens NFT Sale.sol\":3849:3864  block.timestamp */\n      timestamp\n        /* \"contracts/Founding Citizens NFT Sale.sol\":3830:3840  lastUpdate */\n      0x0a\n        /* \"contracts/Founding Citizens NFT Sale.sol\":3830:3845  lastUpdate.time */\n      0x01\n      add\n      sload\n        /* \"contracts/Founding Citizens NFT Sale.sol\":3830:3864  lastUpdate.time == block.timestamp */\n      eq\n        /* \"contracts/Founding Citizens NFT Sale.sol\":3822:3896  require(lastUpdate.time == block.timestamp, \"timestamp is not up-to-date\") */\n      tag_187\n      jumpi\n      mload(0x40)\n      0x08c379a000000000000000000000000000000000000000000000000000000000\n      dup2\n      mstore\n      0x04\n      add\n      tag_188\n      swap1\n      tag_189\n      jump\t// in\n    tag_188:\n      mload(0x40)\n      dup1\n      swap2\n      sub\n      swap1\n      revert\n    tag_187:\n        /* \"contracts/Founding Citizens NFT Sale.sol\":7270:7277  endTime */\n      sload(0x06)\n        /* \"contracts/Founding Citizens NFT Sale.sol\":7252:7267  block.timestamp */\n      timestamp\n        /* \"contracts/Founding Citizens NFT Sale.sol\":7252:7277  block.timestamp > endTime */\n      gt\n        /* \"contracts/Founding Citizens NFT Sale.sol\":7252:7303  block.timestamp > endTime && !lastUpdate.saleIsLive */\n      dup1\n      iszero\n      tag_191\n      jumpi\n      pop\n        /* \"contracts/Founding Citizens NFT Sale.sol\":7282:7292  lastUpdate */\n      0x0a\n        /* \"contracts/Founding Citizens NFT Sale.sol\":7282:7303  lastUpdate.saleIsLive */\n      0x02\n      add\n      0x00\n      swap1\n      sload\n      swap1\n      0x0100\n      exp\n      swap1\n      div\n      0xff\n      and\n        /* \"contracts/Founding Citizens NFT Sale.sol\":7281:7303  !lastUpdate.saleIsLive */\n      iszero\n        /* \"contracts/Founding Citizens NFT Sale.sol\":7252:7303  block.timestamp > endTime && !lastUpdate.saleIsLive */\n    tag_191:\n        /* \"contracts/Founding Citizens NFT Sale.sol\":7230:7386  require(\r... */\n      tag_192\n      jumpi\n      mload(0x40)\n      0x08c379a000000000000000000000000000000000000000000000000000000000\n      dup2\n      mstore\n      0x04\n      add\n      tag_193\n      swap1\n      tag_194\n      jump\t// in\n    tag_193:\n      mload(0x40)\n      dup1\n      swap2\n      sub\n      swap1\n      revert\n    tag_192:\n        /* \"contracts/Founding Citizens NFT Sale.sol\":7397:7412  uint leftToMint */\n      0x00\n        /* \"contracts/Founding Citizens NFT Sale.sol\":7454:7455  1 */\n      0x01\n        /* \"contracts/Founding Citizens NFT Sale.sol\":7433:7453  getNextUnusedToken() */\n      tag_195\n        /* \"contracts/Founding Citizens NFT Sale.sol\":7433:7451  getNextUnusedToken */\n      tag_83\n        /* \"contracts/Founding Citizens NFT Sale.sol\":7433:7453  getNextUnusedToken() */\n      jump\t// in\n    tag_195:\n        /* \"contracts/Founding Citizens NFT Sale.sol\":7433:7455  getNextUnusedToken()-1 */\n      tag_196\n      swap2\n      swap1\n      tag_197\n      jump\t// in\n    tag_196:\n        /* \"contracts/Founding Citizens NFT Sale.sol\":7415:7429  getMaxSupply() */\n      tag_198\n        /* \"contracts/Founding Citizens NFT Sale.sol\":7415:7427  getMaxSupply */\n      tag_60\n        /* \"contracts/Founding Citizens NFT Sale.sol\":7415:7429  getMaxSupply() */\n      jump\t// in\n    tag_198:\n        /* \"contracts/Founding Citizens NFT Sale.sol\":7415:7456  getMaxSupply() - (getNextUnusedToken()-1) */\n      tag_199\n      swap2\n      swap1\n      tag_197\n      jump\t// in\n    tag_199:\n        /* \"contracts/Founding Citizens NFT Sale.sol\":7397:7456  uint leftToMint = getMaxSupply() - (getNextUnusedToken()-1) */\n      swap1\n      pop\n        /* \"contracts/Founding Citizens NFT Sale.sol\":7467:7568  for (; leftToMint > 0; leftToMint--) {\r... */\n    tag_200:\n        /* \"contracts/Founding Citizens NFT Sale.sol\":7487:7488  0 */\n      0x00\n        /* \"contracts/Founding Citizens NFT Sale.sol\":7474:7484  leftToMint */\n      dup2\n        /* \"contracts/Founding Citizens NFT Sale.sol\":7474:7488  leftToMint > 0 */\n      gt\n        /* \"contracts/Founding Citizens NFT Sale.sol\":7467:7568  for (; leftToMint > 0; leftToMint--) {\r... */\n      iszero\n      tag_201\n      jumpi\n        /* \"contracts/Founding Citizens NFT Sale.sol\":7519:7556  mintNextNftToAddress(treasuryAddress) */\n      tag_203\n        /* \"contracts/Founding Citizens NFT Sale.sol\":7540:7555  treasuryAddress */\n      0x04\n      0x00\n      swap1\n      sload\n      swap1\n      0x0100\n      exp\n      swap1\n      div\n      0xffffffffffffffffffffffffffffffffffffffff\n      and\n        /* \"contracts/Founding Citizens NFT Sale.sol\":7519:7539  mintNextNftToAddress */\n      tag_204\n        /* \"contracts/Founding Citizens NFT Sale.sol\":7519:7556  mintNextNftToAddress(treasuryAddress) */\n      jump\t// in\n    tag_203:\n        /* \"contracts/Founding Citizens NFT Sale.sol\":7490:7502  leftToMint-- */\n      dup1\n      dup1\n      tag_205\n      swap1\n      tag_206\n      jump\t// in\n    tag_205:\n      swap2\n      pop\n      pop\n        /* \"contracts/Founding Citizens NFT Sale.sol\":7467:7568  for (; leftToMint > 0; leftToMint--) {\r... */\n      jump(tag_200)\n    tag_201:\n        /* \"contracts/Founding Citizens NFT Sale.sol\":3907:3908  _ */\n      pop\n        /* \"contracts/Founding Citizens NFT Sale.sol\":7164:7575  function mintToTreasuryAddress() public requiresUpdate {\r... */\n      jump\t// out\n        /* \"@openzeppelin/contracts@4.4.2/access/AccessControl.sol\":2894:3031  function hasRole(bytes32 role, address account) public view override returns (bool) {... */\n    tag_93:\n        /* \"@openzeppelin/contracts@4.4.2/access/AccessControl.sol\":2972:2976  bool */\n      0x00\n        /* \"@openzeppelin/contracts@4.4.2/access/AccessControl.sol\":2995:3001  _roles */\n      dup1\n        /* \"@openzeppelin/contracts@4.4.2/access/AccessControl.sol\":2995:3007  _roles[role] */\n      0x00\n        /* \"@openzeppelin/contracts@4.4.2/access/AccessControl.sol\":3002:3006  role */\n      dup5\n        /* \"@openzeppelin/contracts@4.4.2/access/AccessControl.sol\":2995:3007  _roles[role] */\n      dup2\n      mstore\n      0x20\n      add\n      swap1\n      dup2\n      mstore\n      0x20\n      add\n      0x00\n      keccak256\n        /* \"@openzeppelin/contracts@4.4.2/access/AccessControl.sol\":2995:3015  _roles[role].members */\n      0x00\n      add\n        /* \"@openzeppelin/contracts@4.4.2/access/AccessControl.sol\":2995:3024  _roles[role].members[account] */\n      0x00\n        /* \"@openzeppelin/contracts@4.4.2/access/AccessControl.sol\":3016:3023  account */\n      dup4\n        /* \"@openzeppelin/contracts@4.4.2/access/AccessControl.sol\":2995:3024  _roles[role].members[account] */\n      0xffffffffffffffffffffffffffffffffffffffff\n      and\n      0xffffffffffffffffffffffffffffffffffffffff\n      and\n      dup2\n      mstore\n      0x20\n      add\n      swap1\n      dup2\n      mstore\n      0x20\n      add\n      0x00\n      keccak256\n      0x00\n      swap1\n      sload\n      swap1\n      0x0100\n      exp\n      swap1\n      div\n      0xff\n      and\n        /* \"@openzeppelin/contracts@4.4.2/access/AccessControl.sol\":2988:3024  return _roles[role].members[account] */\n      swap1\n      pop\n        /* \"@openzeppelin/contracts@4.4.2/access/AccessControl.sol\":2894:3031  function hasRole(bytes32 role, address account) public view override returns (bool) {... */\n      swap3\n      swap2\n      pop\n      pop\n      jump\t// out\n        /* \"contracts/Founding Citizens NFT Sale.sol\":5635:5913  function setstartTime(uint unixTime) public {\r... */\n    tag_97:\n        /* \"contracts/Founding Citizens NFT Sale.sol\":5712:5752  hasRole(SALE_MANAGER_ROLE, _msgSender()) */\n      tag_209\n        /* \"contracts/Founding Citizens NFT Sale.sol\":3203:3233  keccak256(\"SALE_MANAGER_ROLE\") */\n      0x988301af8238f779281a300de031815cd01b48e9f1ae47a0f91ed6584213624a\n        /* \"contracts/Founding Citizens NFT Sale.sol\":5739:5751  _msgSender() */\n      tag_210\n        /* \"contracts/Founding Citizens NFT Sale.sol\":5739:5749  _msgSender */\n      tag_147\n        /* \"contracts/Founding Citizens NFT Sale.sol\":5739:5751  _msgSender() */\n      jump\t// in\n    tag_210:\n        /* \"contracts/Founding Citizens NFT Sale.sol\":5712:5719  hasRole */\n      tag_93\n        /* \"contracts/Founding Citizens NFT Sale.sol\":5712:5752  hasRole(SALE_MANAGER_ROLE, _msgSender()) */\n      jump\t// in\n    tag_209:\n        /* \"contracts/Founding Citizens NFT Sale.sol\":5712:5811  hasRole(SALE_MANAGER_ROLE, _msgSender()) || \r... */\n      dup1\n      tag_211\n      jumpi\n      pop\n        /* \"contracts/Founding Citizens NFT Sale.sol\":5770:5811  hasRole(DEFAULT_ADMIN_ROLE, _msgSender()) */\n      tag_212\n        /* \"@openzeppelin/contracts@4.4.2/access/AccessControl.sol\":2057:2061  0x00 */\n      0x00\n        /* \"contracts/Founding Citizens NFT Sale.sol\":5778:5796  DEFAULT_ADMIN_ROLE */\n      dup1\n      shl\n        /* \"contracts/Founding Citizens NFT Sale.sol\":5798:5810  _msgSender() */\n      tag_213\n        /* \"contracts/Founding Citizens NFT Sale.sol\":5798:5808  _msgSender */\n      tag_147\n        /* \"contracts/Founding Citizens NFT Sale.sol\":5798:5810  _msgSender() */\n      jump\t// in\n    tag_213:\n        /* \"contracts/Founding Citizens NFT Sale.sol\":5770:5777  hasRole */\n      tag_93\n        /* \"contracts/Founding Citizens NFT Sale.sol\":5770:5811  hasRole(DEFAULT_ADMIN_ROLE, _msgSender()) */\n      jump\t// in\n    tag_212:\n        /* \"contracts/Founding Citizens NFT Sale.sol\":5712:5811  hasRole(SALE_MANAGER_ROLE, _msgSender()) || \r... */\n    tag_211:\n        /* \"contracts/Founding Citizens NFT Sale.sol\":5690:5874  require(\r... */\n      tag_214\n      jumpi\n      mload(0x40)\n      0x08c379a000000000000000000000000000000000000000000000000000000000\n      dup2\n      mstore\n      0x04\n      add\n      tag_215\n      swap1\n      tag_216\n      jump\t// in\n    tag_215:\n      mload(0x40)\n      dup1\n      swap2\n      sub\n      swap1\n      revert\n    tag_214:\n        /* \"contracts/Founding Citizens NFT Sale.sol\":5897:5905  unixTime */\n      dup1\n        /* \"contracts/Founding Citizens NFT Sale.sol\":5885:5894  startTime */\n      0x05\n        /* \"contracts/Founding Citizens NFT Sale.sol\":5885:5905  startTime = unixTime */\n      dup2\n      swap1\n      sstore\n      pop\n        /* \"contracts/Founding Citizens NFT Sale.sol\":5635:5913  function setstartTime(uint unixTime) public {\r... */\n      pop\n      jump\t// out\n        /* \"@openzeppelin/contracts@4.4.2/access/AccessControl.sol\":2012:2061  bytes32 public constant DEFAULT_ADMIN_ROLE = 0x00 */\n    tag_99:\n        /* \"@openzeppelin/contracts@4.4.2/access/AccessControl.sol\":2057:2061  0x00 */\n      0x00\n        /* \"@openzeppelin/contracts@4.4.2/access/AccessControl.sol\":2012:2061  bytes32 public constant DEFAULT_ADMIN_ROLE = 0x00 */\n      dup1\n      shl\n      dup2\n      jump\t// out\n        /* \"contracts/Founding Citizens NFT Sale.sol\":6203:6653  function calculateCustomPrice(address prospectiveBuyer, uint discountRate) \r... */\n    tag_104:\n        /* \"contracts/Founding Citizens NFT Sale.sol\":6319:6323  uint */\n      0x00\n        /* \"contracts/Founding Citizens NFT Sale.sol\":3849:3864  block.timestamp */\n      timestamp\n        /* \"contracts/Founding Citizens NFT Sale.sol\":3830:3840  lastUpdate */\n      0x0a\n        /* \"contracts/Founding Citizens NFT Sale.sol\":3830:3845  lastUpdate.time */\n      0x01\n      add\n      sload\n        /* \"contracts/Founding Citizens NFT Sale.sol\":3830:3864  lastUpdate.time == block.timestamp */\n      eq\n        /* \"contracts/Founding Citizens NFT Sale.sol\":3822:3896  require(lastUpdate.time == block.timestamp, \"timestamp is not up-to-date\") */\n      tag_218\n      jumpi\n      mload(0x40)\n      0x08c379a000000000000000000000000000000000000000000000000000000000\n      dup2\n      mstore\n      0x04\n      add\n      tag_219\n      swap1\n      tag_189\n      jump\t// in\n    tag_219:\n      mload(0x40)\n      dup1\n      swap2\n      sub\n      swap1\n      revert\n    tag_218:\n        /* \"contracts/Founding Citizens NFT Sale.sol\":6344:6362  privilgedBuyerList */\n      0x02\n      0x00\n      swap1\n      sload\n      swap1\n      0x0100\n      exp\n      swap1\n      div\n      0xffffffffffffffffffffffffffffffffffffffff\n      and\n        /* \"contracts/Founding Citizens NFT Sale.sol\":6344:6379  privilgedBuyerList.addressHasCoupon */\n      0xffffffffffffffffffffffffffffffffffffffff\n      and\n      0x2080179d\n        /* \"contracts/Founding Citizens NFT Sale.sol\":6380:6396  prospectiveBuyer */\n      dup5\n        /* \"contracts/Founding Citizens NFT Sale.sol\":6398:6410  discountRate */\n      dup5\n        /* \"contracts/Founding Citizens NFT Sale.sol\":6344:6411  privilgedBuyerList.addressHasCoupon(prospectiveBuyer, discountRate) */\n      mload(0x40)\n      dup4\n      0xffffffff\n      and\n      0xe0\n      shl\n      dup2\n      mstore\n      0x04\n      add\n      tag_221\n      swap3\n      swap2\n      swap1\n      tag_222\n      jump\t// in\n    tag_221:\n      0x20\n      mload(0x40)\n      dup1\n      dup4\n      sub\n      dup2\n      dup7\n      dup1\n      extcodesize\n      iszero\n      dup1\n      iszero\n      tag_223\n      jumpi\n      0x00\n      dup1\n      revert\n    tag_223:\n      pop\n      gas\n      staticcall\n      iszero\n      dup1\n      iszero\n      tag_225\n      jumpi\n      returndatasize\n      0x00\n      dup1\n      returndatacopy\n      revert(0x00, returndatasize)\n    tag_225:\n      pop\n      pop\n      pop\n      pop\n      mload(0x40)\n      returndatasize\n      not(0x1f)\n      0x1f\n      dup3\n      add\n      and\n      dup3\n      add\n      dup1\n      0x40\n      mstore\n      pop\n      dup2\n      add\n      swap1\n      tag_226\n      swap2\n      swap1\n      tag_227\n      jump\t// in\n    tag_226:\n        /* \"contracts/Founding Citizens NFT Sale.sol\":6463:6479  prospectiveBuyer */\n      dup4\n        /* \"contracts/Founding Citizens NFT Sale.sol\":6533:6545  discountRate */\n      dup4\n        /* \"contracts/Founding Citizens NFT Sale.sol\":6420:6551  abi.encodePacked(\r... */\n      add(0x20, mload(0x40))\n      tag_228\n      swap3\n      swap2\n      swap1\n      tag_229\n      jump\t// in\n    tag_228:\n      mload(0x40)\n      0x20\n      dup2\n      dup4\n      sub\n      sub\n      dup2\n      mstore\n      swap1\n      0x40\n      mstore\n        /* \"contracts/Founding Citizens NFT Sale.sol\":6336:6553  require(privilgedBuyerList.addressHasCoupon(prospectiveBuyer, discountRate), string(abi.encodePacked(\r... */\n      swap1\n      tag_230\n      jumpi\n      mload(0x40)\n      0x08c379a000000000000000000000000000000000000000000000000000000000\n      dup2\n      mstore\n      0x04\n      add\n      tag_231\n      swap2\n      swap1\n      tag_45\n      jump\t// in\n    tag_231:\n      mload(0x40)\n      dup1\n      swap2\n      sub\n      swap1\n      revert\n    tag_230:\n      pop\n        /* \"contracts/Founding Citizens NFT Sale.sol\":6564:6574  uint price */\n      0x00\n        /* \"contracts/Founding Citizens NFT Sale.sol\":6609:6621  discountRate */\n      dup3\n        /* \"contracts/Founding Citizens NFT Sale.sol\":6603:6606  100 */\n      0x64\n        /* \"contracts/Founding Citizens NFT Sale.sol\":6603:6621  100 - discountRate */\n      tag_232\n      swap2\n      swap1\n      tag_197\n      jump\t// in\n    tag_232:\n        /* \"contracts/Founding Citizens NFT Sale.sol\":6596:6599  100 */\n      0x64\n        /* \"contracts/Founding Citizens NFT Sale.sol\":6577:6587  lastUpdate */\n      0x0a\n        /* \"contracts/Founding Citizens NFT Sale.sol\":6577:6593  lastUpdate.price */\n      0x00\n      add\n      sload\n        /* \"contracts/Founding Citizens NFT Sale.sol\":6577:6599  lastUpdate.price / 100 */\n      tag_233\n      swap2\n      swap1\n      tag_234\n      jump\t// in\n    tag_233:\n        /* \"contracts/Founding Citizens NFT Sale.sol\":6577:6622  lastUpdate.price / 100 * (100 - discountRate) */\n      tag_235\n      swap2\n      swap1\n      tag_236\n      jump\t// in\n    tag_235:\n        /* \"contracts/Founding Citizens NFT Sale.sol\":6564:6622  uint price = lastUpdate.price / 100 * (100 - discountRate) */\n      swap1\n      pop\n        /* \"contracts/Founding Citizens NFT Sale.sol\":6640:6645  price */\n      dup1\n        /* \"contracts/Founding Citizens NFT Sale.sol\":6633:6645  return price */\n      swap2\n      pop\n      pop\n        /* \"contracts/Founding Citizens NFT Sale.sol\":6203:6653  function calculateCustomPrice(address prospectiveBuyer, uint discountRate) \r... */\n      swap3\n      swap2\n      pop\n      pop\n      jump\t// out\n        /* \"contracts/Founding Citizens NFT Sale.sol\":6833:6978  function buyNFT() public pushesUpdate { //requires using existing balance\r... */\n    tag_107:\n        /* \"contracts/Founding Citizens NFT Sale.sol\":3959:3972  updateState() */\n      tag_238\n        /* \"contracts/Founding Citizens NFT Sale.sol\":3959:3970  updateState */\n      tag_167\n        /* \"contracts/Founding Citizens NFT Sale.sol\":3959:3972  updateState() */\n      jump\t// in\n    tag_238:\n        /* \"contracts/Founding Citizens NFT Sale.sol\":6916:6926  uint price */\n      0x00\n        /* \"contracts/Founding Citizens NFT Sale.sol\":6929:6939  lastUpdate */\n      0x0a\n        /* \"contracts/Founding Citizens NFT Sale.sol\":6929:6945  lastUpdate.price */\n      0x00\n      add\n      sload\n        /* \"contracts/Founding Citizens NFT Sale.sol\":6916:6945  uint price = lastUpdate.price */\n      swap1\n      pop\n        /* \"contracts/Founding Citizens NFT Sale.sol\":6956:6970  _buyNFT(price) */\n      tag_240\n        /* \"contracts/Founding Citizens NFT Sale.sol\":6964:6969  price */\n      dup2\n        /* \"contracts/Founding Citizens NFT Sale.sol\":6956:6963  _buyNFT */\n      tag_171\n        /* \"contracts/Founding Citizens NFT Sale.sol\":6956:6970  _buyNFT(price) */\n      jump\t// in\n    tag_240:\n        /* \"contracts/Founding Citizens NFT Sale.sol\":3983:3984  _ */\n      pop\n        /* \"contracts/Founding Citizens NFT Sale.sol\":6833:6978  function buyNFT() public pushesUpdate { //requires using existing balance\r... */\n      jump\t// out\n        /* \"contracts/Founding Citizens NFT Sale.sol\":3712:3776  Update public lastUpdate = Update(10000, block.timestamp, false) */\n    tag_109:\n      0x0a\n      dup1\n      0x00\n      add\n      sload\n      swap1\n      dup1\n      0x01\n      add\n      sload\n      swap1\n      dup1\n      0x02\n      add\n      0x00\n      swap1\n      sload\n      swap1\n      0x0100\n      exp\n      swap1\n      div\n      0xff\n      and\n      swap1\n      pop\n      dup4\n      jump\t// out\n        /* \"contracts/Founding Citizens NFT Sale.sol\":2989:3034  IUsdcStorage public usdcEscrowStorageContract */\n    tag_113:\n      0x03\n      0x00\n      swap1\n      sload\n      swap1\n      0x0100\n      exp\n      swap1\n      div\n      0xffffffffffffffffffffffffffffffffffffffff\n      and\n      dup2\n      jump\t// out\n        /* \"contracts/Founding Citizens NFT Sale.sol\":3041:3071  address public treasuryAddress */\n    tag_117:\n      0x04\n      0x00\n      swap1\n      sload\n      swap1\n      0x0100\n      exp\n      swap1\n      div\n      0xffffffffffffffffffffffffffffffffffffffff\n      and\n      dup2\n      jump\t// out\n        /* \"contracts/Founding Citizens NFT Sale.sol\":5921:6195  function setEndTime(uint unixTime) public {\r... */\n    tag_122:\n        /* \"contracts/Founding Citizens NFT Sale.sol\":5996:6036  hasRole(SALE_MANAGER_ROLE, _msgSender()) */\n      tag_242\n        /* \"contracts/Founding Citizens NFT Sale.sol\":3203:3233  keccak256(\"SALE_MANAGER_ROLE\") */\n      0x988301af8238f779281a300de031815cd01b48e9f1ae47a0f91ed6584213624a\n        /* \"contracts/Founding Citizens NFT Sale.sol\":6023:6035  _msgSender() */\n      tag_243\n        /* \"contracts/Founding Citizens NFT Sale.sol\":6023:6033  _msgSender */\n      tag_147\n        /* \"contracts/Founding Citizens NFT Sale.sol\":6023:6035  _msgSender() */\n      jump\t// in\n    tag_243:\n        /* \"contracts/Founding Citizens NFT Sale.sol\":5996:6003  hasRole */\n      tag_93\n        /* \"contracts/Founding Citizens NFT Sale.sol\":5996:6036  hasRole(SALE_MANAGER_ROLE, _msgSender()) */\n      jump\t// in\n    tag_242:\n        /* \"contracts/Founding Citizens NFT Sale.sol\":5996:6095  hasRole(SALE_MANAGER_ROLE, _msgSender()) || \r... */\n      dup1\n      tag_244\n      jumpi\n      pop\n        /* \"contracts/Founding Citizens NFT Sale.sol\":6054:6095  hasRole(DEFAULT_ADMIN_ROLE, _msgSender()) */\n      tag_245\n        /* \"@openzeppelin/contracts@4.4.2/access/AccessControl.sol\":2057:2061  0x00 */\n      0x00\n        /* \"contracts/Founding Citizens NFT Sale.sol\":6062:6080  DEFAULT_ADMIN_ROLE */\n      dup1\n      shl\n        /* \"contracts/Founding Citizens NFT Sale.sol\":6082:6094  _msgSender() */\n      tag_246\n        /* \"contracts/Founding Citizens NFT Sale.sol\":6082:6092  _msgSender */\n      tag_147\n        /* \"contracts/Founding Citizens NFT Sale.sol\":6082:6094  _msgSender() */\n      jump\t// in\n    tag_246:\n        /* \"contracts/Founding Citizens NFT Sale.sol\":6054:6061  hasRole */\n      tag_93\n        /* \"contracts/Founding Citizens NFT Sale.sol\":6054:6095  hasRole(DEFAULT_ADMIN_ROLE, _msgSender()) */\n      jump\t// in\n    tag_245:\n        /* \"contracts/Founding Citizens NFT Sale.sol\":5996:6095  hasRole(SALE_MANAGER_ROLE, _msgSender()) || \r... */\n    tag_244:\n        /* \"contracts/Founding Citizens NFT Sale.sol\":5974:6158  require(\r... */\n      tag_247\n      jumpi\n      mload(0x40)\n      0x08c379a000000000000000000000000000000000000000000000000000000000\n      dup2\n      mstore\n      0x04\n      add\n      tag_248\n      swap1\n      tag_216\n      jump\t// in\n    tag_248:\n      mload(0x40)\n      dup1\n      swap2\n      sub\n      swap1\n      revert\n    tag_247:\n        /* \"contracts/Founding Citizens NFT Sale.sol\":6179:6187  unixTime */\n      dup1\n        /* \"contracts/Founding Citizens NFT Sale.sol\":6169:6176  endTime */\n      0x06\n        /* \"contracts/Founding Citizens NFT Sale.sol\":6169:6187  endTime = unixTime */\n      dup2\n      swap1\n      sstore\n      pop\n        /* \"contracts/Founding Citizens NFT Sale.sol\":5921:6195  function setEndTime(uint unixTime) public {\r... */\n      pop\n      jump\t// out\n        /* \"@openzeppelin/contracts@4.4.2/access/AccessControl.sol\":4727:4874  function revokeRole(bytes32 role, address account) public virtual override onlyRole(getRoleAdmin(role)) {... */\n    tag_125:\n        /* \"@openzeppelin/contracts@4.4.2/access/AccessControl.sol\":4811:4829  getRoleAdmin(role) */\n      tag_249\n        /* \"@openzeppelin/contracts@4.4.2/access/AccessControl.sol\":4824:4828  role */\n      dup3\n        /* \"@openzeppelin/contracts@4.4.2/access/AccessControl.sol\":4811:4823  getRoleAdmin */\n      tag_49\n        /* \"@openzeppelin/contracts@4.4.2/access/AccessControl.sol\":4811:4829  getRoleAdmin(role) */\n      jump\t// in\n    tag_249:\n        /* \"@openzeppelin/contracts@4.4.2/access/AccessControl.sol\":2490:2520  _checkRole(role, _msgSender()) */\n      tag_251\n        /* \"@openzeppelin/contracts@4.4.2/access/AccessControl.sol\":2501:2505  role */\n      dup2\n        /* \"@openzeppelin/contracts@4.4.2/access/AccessControl.sol\":2507:2519  _msgSender() */\n      tag_252\n        /* \"@openzeppelin/contracts@4.4.2/access/AccessControl.sol\":2507:2517  _msgSender */\n      tag_147\n        /* \"@openzeppelin/contracts@4.4.2/access/AccessControl.sol\":2507:2519  _msgSender() */\n      jump\t// in\n    tag_252:\n        /* \"@openzeppelin/contracts@4.4.2/access/AccessControl.sol\":2490:2500  _checkRole */\n      tag_148\n        /* \"@openzeppelin/contracts@4.4.2/access/AccessControl.sol\":2490:2520  _checkRole(role, _msgSender()) */\n      jump\t// in\n    tag_251:\n        /* \"@openzeppelin/contracts@4.4.2/access/AccessControl.sol\":4841:4867  _revokeRole(role, account) */\n      tag_254\n        /* \"@openzeppelin/contracts@4.4.2/access/AccessControl.sol\":4853:4857  role */\n      dup4\n        /* \"@openzeppelin/contracts@4.4.2/access/AccessControl.sol\":4859:4866  account */\n      dup4\n        /* \"@openzeppelin/contracts@4.4.2/access/AccessControl.sol\":4841:4852  _revokeRole */\n      tag_158\n        /* \"@openzeppelin/contracts@4.4.2/access/AccessControl.sol\":4841:4867  _revokeRole(role, account) */\n      jump\t// in\n    tag_254:\n        /* \"@openzeppelin/contracts@4.4.2/access/AccessControl.sol\":4727:4874  function revokeRole(bytes32 role, address account) public virtual override onlyRole(getRoleAdmin(role)) {... */\n      pop\n      pop\n      pop\n      jump\t// out\n        /* \"contracts/Founding Citizens NFT Sale.sol\":5191:5345  function preLoadURIs(uint[] memory ids, string[] memory uris) \r... */\n    tag_129:\n        /* \"contracts/Founding Citizens NFT Sale.sol\":5291:5313  ERC1155storageContract */\n      0x01\n      0x00\n      swap1\n      sload\n      swap1\n      0x0100\n      exp\n      swap1\n      div\n      0xffffffffffffffffffffffffffffffffffffffff\n      and\n        /* \"contracts/Founding Citizens NFT Sale.sol\":5278:5326  IMintStorage(ERC1155storageContract).preLoadURIs */\n      0xffffffffffffffffffffffffffffffffffffffff\n      and\n      0xf121da92\n        /* \"contracts/Founding Citizens NFT Sale.sol\":5327:5330  ids */\n      dup4\n        /* \"contracts/Founding Citizens NFT Sale.sol\":5332:5336  uris */\n      dup4\n        /* \"contracts/Founding Citizens NFT Sale.sol\":5278:5337  IMintStorage(ERC1155storageContract).preLoadURIs(ids, uris) */\n      mload(0x40)\n      dup4\n      0xffffffff\n      and\n      0xe0\n      shl\n      dup2\n      mstore\n      0x04\n      add\n      tag_256\n      swap3\n      swap2\n      swap1\n      tag_257\n      jump\t// in\n    tag_256:\n      0x00\n      mload(0x40)\n      dup1\n      dup4\n      sub\n      dup2\n      0x00\n      dup8\n      dup1\n      extcodesize\n      iszero\n      dup1\n      iszero\n      tag_258\n      jumpi\n      0x00\n      dup1\n      revert\n    tag_258:\n      pop\n      gas\n      call\n      iszero\n      dup1\n      iszero\n      tag_260\n      jumpi\n      returndatasize\n      0x00\n      dup1\n      returndatacopy\n      revert(0x00, returndatasize)\n    tag_260:\n      pop\n      pop\n      pop\n      pop\n        /* \"contracts/Founding Citizens NFT Sale.sol\":5191:5345  function preLoadURIs(uint[] memory ids, string[] memory uris) \r... */\n      pop\n      pop\n      jump\t// out\n        /* \"@openzeppelin/contracts@4.4.2/utils/introspection/ERC165.sol\":829:984  function supportsInterface(bytes4 interfaceId) public view virtual override returns (bool) {... */\n    tag_133:\n        /* \"@openzeppelin/contracts@4.4.2/utils/introspection/ERC165.sol\":914:918  bool */\n      0x00\n        /* \"@openzeppelin/contracts@4.4.2/utils/introspection/ERC165.sol\":952:977  type(IERC165).interfaceId */\n      0x01ffc9a700000000000000000000000000000000000000000000000000000000\n        /* \"@openzeppelin/contracts@4.4.2/utils/introspection/ERC165.sol\":937:977  interfaceId == type(IERC165).interfaceId */\n      not(0xffffffffffffffffffffffffffffffffffffffffffffffffffffffff)\n      and\n        /* \"@openzeppelin/contracts@4.4.2/utils/introspection/ERC165.sol\":937:948  interfaceId */\n      dup3\n        /* \"@openzeppelin/contracts@4.4.2/utils/introspection/ERC165.sol\":937:977  interfaceId == type(IERC165).interfaceId */\n      not(0xffffffffffffffffffffffffffffffffffffffffffffffffffffffff)\n      and\n      eq\n        /* \"@openzeppelin/contracts@4.4.2/utils/introspection/ERC165.sol\":930:977  return interfaceId == type(IERC165).interfaceId */\n      swap1\n      pop\n        /* \"@openzeppelin/contracts@4.4.2/utils/introspection/ERC165.sol\":829:984  function supportsInterface(bytes4 interfaceId) public view virtual override returns (bool) {... */\n      swap2\n      swap1\n      pop\n      jump\t// out\n        /* \"@openzeppelin/contracts@4.4.2/utils/Context.sol\":640:736  function _msgSender() internal view virtual returns (address) {... */\n    tag_147:\n        /* \"@openzeppelin/contracts@4.4.2/utils/Context.sol\":693:700  address */\n      0x00\n        /* \"@openzeppelin/contracts@4.4.2/utils/Context.sol\":719:729  msg.sender */\n      caller\n        /* \"@openzeppelin/contracts@4.4.2/utils/Context.sol\":712:729  return msg.sender */\n      swap1\n      pop\n        /* \"@openzeppelin/contracts@4.4.2/utils/Context.sol\":640:736  function _msgSender() internal view virtual returns (address) {... */\n      swap1\n      jump\t// out\n        /* \"@openzeppelin/contracts@4.4.2/access/AccessControl.sol\":3312:3796  function _checkRole(bytes32 role, address account) internal view {... */\n    tag_148:\n        /* \"@openzeppelin/contracts@4.4.2/access/AccessControl.sol\":3392:3414  hasRole(role, account) */\n      tag_264\n        /* \"@openzeppelin/contracts@4.4.2/access/AccessControl.sol\":3400:3404  role */\n      dup3\n        /* \"@openzeppelin/contracts@4.4.2/access/AccessControl.sol\":3406:3413  account */\n      dup3\n        /* \"@openzeppelin/contracts@4.4.2/access/AccessControl.sol\":3392:3399  hasRole */\n      tag_93\n        /* \"@openzeppelin/contracts@4.4.2/access/AccessControl.sol\":3392:3414  hasRole(role, account) */\n      jump\t// in\n    tag_264:\n        /* \"@openzeppelin/contracts@4.4.2/access/AccessControl.sol\":3387:3790  if (!hasRole(role, account)) {... */\n      tag_265\n      jumpi\n        /* \"@openzeppelin/contracts@4.4.2/access/AccessControl.sol\":3575:3616  Strings.toHexString(uint160(account), 20) */\n      tag_266\n        /* \"@openzeppelin/contracts@4.4.2/access/AccessControl.sol\":3603:3610  account */\n      dup2\n        /* \"@openzeppelin/contracts@4.4.2/access/AccessControl.sol\":3575:3616  Strings.toHexString(uint160(account), 20) */\n      0xffffffffffffffffffffffffffffffffffffffff\n      and\n        /* \"@openzeppelin/contracts@4.4.2/access/AccessControl.sol\":3613:3615  20 */\n      0x14\n        /* \"@openzeppelin/contracts@4.4.2/access/AccessControl.sol\":3575:3594  Strings.toHexString */\n      tag_267\n        /* \"@openzeppelin/contracts@4.4.2/access/AccessControl.sol\":3575:3616  Strings.toHexString(uint160(account), 20) */\n      jump\t// in\n    tag_266:\n        /* \"@openzeppelin/contracts@4.4.2/access/AccessControl.sol\":3687:3725  Strings.toHexString(uint256(role), 32) */\n      tag_268\n        /* \"@openzeppelin/contracts@4.4.2/access/AccessControl.sol\":3715:3719  role */\n      dup4\n        /* \"@openzeppelin/contracts@4.4.2/access/AccessControl.sol\":3707:3720  uint256(role) */\n      0x00\n      shr\n        /* \"@openzeppelin/contracts@4.4.2/access/AccessControl.sol\":3722:3724  32 */\n      0x20\n        /* \"@openzeppelin/contracts@4.4.2/access/AccessControl.sol\":3687:3706  Strings.toHexString */\n      tag_267\n        /* \"@openzeppelin/contracts@4.4.2/access/AccessControl.sol\":3687:3725  Strings.toHexString(uint256(role), 32) */\n      jump\t// in\n    tag_268:\n        /* \"@openzeppelin/contracts@4.4.2/access/AccessControl.sol\":3482:3747  abi.encodePacked(... */\n      add(0x20, mload(0x40))\n      tag_269\n      swap3\n      swap2\n      swap1\n      tag_270\n      jump\t// in\n    tag_269:\n      mload(0x40)\n      0x20\n      dup2\n      dup4\n      sub\n      sub\n      dup2\n      mstore\n      swap1\n      0x40\n      mstore\n        /* \"@openzeppelin/contracts@4.4.2/access/AccessControl.sol\":3430:3779  revert(... */\n      mload(0x40)\n      0x08c379a000000000000000000000000000000000000000000000000000000000\n      dup2\n      mstore\n      0x04\n      add\n      tag_271\n      swap2\n      swap1\n      tag_45\n      jump\t// in\n    tag_271:\n      mload(0x40)\n      dup1\n      swap2\n      sub\n      swap1\n      revert\n        /* \"@openzeppelin/contracts@4.4.2/access/AccessControl.sol\":3387:3790  if (!hasRole(role, account)) {... */\n    tag_265:\n        /* \"@openzeppelin/contracts@4.4.2/access/AccessControl.sol\":3312:3796  function _checkRole(bytes32 role, address account) internal view {... */\n      pop\n      pop\n      jump\t// out\n        /* \"@openzeppelin/contracts@4.4.2/access/AccessControl.sol\":6822:7055  function _grantRole(bytes32 role, address account) internal virtual {... */\n    tag_151:\n        /* \"@openzeppelin/contracts@4.4.2/access/AccessControl.sol\":6905:6927  hasRole(role, account) */\n      tag_273\n        /* \"@openzeppelin/contracts@4.4.2/access/AccessControl.sol\":6913:6917  role */\n      dup3\n        /* \"@openzeppelin/contracts@4.4.2/access/AccessControl.sol\":6919:6926  account */\n      dup3\n        /* \"@openzeppelin/contracts@4.4.2/access/AccessControl.sol\":6905:6912  hasRole */\n      tag_93\n        /* \"@openzeppelin/contracts@4.4.2/access/AccessControl.sol\":6905:6927  hasRole(role, account) */\n      jump\t// in\n    tag_273:\n        /* \"@openzeppelin/contracts@4.4.2/access/AccessControl.sol\":6900:7049  if (!hasRole(role, account)) {... */\n      tag_274\n      jumpi\n        /* \"@openzeppelin/contracts@4.4.2/access/AccessControl.sol\":6975:6979  true */\n      0x01\n        /* \"@openzeppelin/contracts@4.4.2/access/AccessControl.sol\":6943:6949  _roles */\n      0x00\n        /* \"@openzeppelin/contracts@4.4.2/access/AccessControl.sol\":6943:6955  _roles[role] */\n      dup1\n        /* \"@openzeppelin/contracts@4.4.2/access/AccessControl.sol\":6950:6954  role */\n      dup5\n        /* \"@openzeppelin/contracts@4.4.2/access/AccessControl.sol\":6943:6955  _roles[role] */\n      dup2\n      mstore\n      0x20\n      add\n      swap1\n      dup2\n      mstore\n      0x20\n      add\n      0x00\n      keccak256\n        /* \"@openzeppelin/contracts@4.4.2/access/AccessControl.sol\":6943:6963  _roles[role].members */\n      0x00\n      add\n        /* \"@openzeppelin/contracts@4.4.2/access/AccessControl.sol\":6943:6972  _roles[role].members[account] */\n      0x00\n        /* \"@openzeppelin/contracts@4.4.2/access/AccessControl.sol\":6964:6971  account */\n      dup4\n        /* \"@openzeppelin/contracts@4.4.2/access/AccessControl.sol\":6943:6972  _roles[role].members[account] */\n      0xffffffffffffffffffffffffffffffffffffffff\n      and\n      0xffffffffffffffffffffffffffffffffffffffff\n      and\n      dup2\n      mstore\n      0x20\n      add\n      swap1\n      dup2\n      mstore\n      0x20\n      add\n      0x00\n      keccak256\n      0x00\n        /* \"@openzeppelin/contracts@4.4.2/access/AccessControl.sol\":6943:6979  _roles[role].members[account] = true */\n      0x0100\n      exp\n      dup2\n      sload\n      dup2\n      0xff\n      mul\n      not\n      and\n      swap1\n      dup4\n      iszero\n      iszero\n      mul\n      or\n      swap1\n      sstore\n      pop\n        /* \"@openzeppelin/contracts@4.4.2/access/AccessControl.sol\":7025:7037  _msgSender() */\n      tag_275\n        /* \"@openzeppelin/contracts@4.4.2/access/AccessControl.sol\":7025:7035  _msgSender */\n      tag_147\n        /* \"@openzeppelin/contracts@4.4.2/access/AccessControl.sol\":7025:7037  _msgSender() */\n      jump\t// in\n    tag_275:\n        /* \"@openzeppelin/contracts@4.4.2/access/AccessControl.sol\":6998:7038  RoleGranted(role, account, _msgSender()) */\n      0xffffffffffffffffffffffffffffffffffffffff\n      and\n        /* \"@openzeppelin/contracts@4.4.2/access/AccessControl.sol\":7016:7023  account */\n      dup2\n        /* \"@openzeppelin/contracts@4.4.2/access/AccessControl.sol\":6998:7038  RoleGranted(role, account, _msgSender()) */\n      0xffffffffffffffffffffffffffffffffffffffff\n      and\n        /* \"@openzeppelin/contracts@4.4.2/access/AccessControl.sol\":7010:7014  role */\n      dup4\n        /* \"@openzeppelin/contracts@4.4.2/access/AccessControl.sol\":6998:7038  RoleGranted(role, account, _msgSender()) */\n      0x2f8788117e7eff1d82e926ec794901d17c78024a50270940304540a733656f0d\n      mload(0x40)\n      mload(0x40)\n      dup1\n      swap2\n      sub\n      swap1\n      log4\n        /* \"@openzeppelin/contracts@4.4.2/access/AccessControl.sol\":6900:7049  if (!hasRole(role, account)) {... */\n    tag_274:\n        /* \"@openzeppelin/contracts@4.4.2/access/AccessControl.sol\":6822:7055  function _grantRole(bytes32 role, address account) internal virtual {... */\n      pop\n      pop\n      jump\t// out\n        /* \"@openzeppelin/contracts@4.4.2/access/AccessControl.sol\":7180:7414  function _revokeRole(bytes32 role, address account) internal virtual {... */\n    tag_158:\n        /* \"@openzeppelin/contracts@4.4.2/access/AccessControl.sol\":7263:7285  hasRole(role, account) */\n      tag_277\n        /* \"@openzeppelin/contracts@4.4.2/access/AccessControl.sol\":7271:7275  role */\n      dup3\n        /* \"@openzeppelin/contracts@4.4.2/access/AccessControl.sol\":7277:7284  account */\n      dup3\n        /* \"@openzeppelin/contracts@4.4.2/access/AccessControl.sol\":7263:7270  hasRole */\n      tag_93\n        /* \"@openzeppelin/contracts@4.4.2/access/AccessControl.sol\":7263:7285  hasRole(role, account) */\n      jump\t// in\n    tag_277:\n        /* \"@openzeppelin/contracts@4.4.2/access/AccessControl.sol\":7259:7408  if (hasRole(role, account)) {... */\n      iszero\n      tag_278\n      jumpi\n        /* \"@openzeppelin/contracts@4.4.2/access/AccessControl.sol\":7333:7338  false */\n      0x00\n        /* \"@openzeppelin/contracts@4.4.2/access/AccessControl.sol\":7301:7307  _roles */\n      dup1\n        /* \"@openzeppelin/contracts@4.4.2/access/AccessControl.sol\":7301:7313  _roles[role] */\n      0x00\n        /* \"@openzeppelin/contracts@4.4.2/access/AccessControl.sol\":7308:7312  role */\n      dup5\n        /* \"@openzeppelin/contracts@4.4.2/access/AccessControl.sol\":7301:7313  _roles[role] */\n      dup2\n      mstore\n      0x20\n      add\n      swap1\n      dup2\n      mstore\n      0x20\n      add\n      0x00\n      keccak256\n        /* \"@openzeppelin/contracts@4.4.2/access/AccessControl.sol\":7301:7321  _roles[role].members */\n      0x00\n      add\n        /* \"@openzeppelin/contracts@4.4.2/access/AccessControl.sol\":7301:7330  _roles[role].members[account] */\n      0x00\n        /* \"@openzeppelin/contracts@4.4.2/access/AccessControl.sol\":7322:7329  account */\n      dup4\n        /* \"@openzeppelin/contracts@4.4.2/access/AccessControl.sol\":7301:7330  _roles[role].members[account] */\n      0xffffffffffffffffffffffffffffffffffffffff\n      and\n      0xffffffffffffffffffffffffffffffffffffffff\n      and\n      dup2\n      mstore\n      0x20\n      add\n      swap1\n      dup2\n      mstore\n      0x20\n      add\n      0x00\n      keccak256\n      0x00\n        /* \"@openzeppelin/contracts@4.4.2/access/AccessControl.sol\":7301:7338  _roles[role].members[account] = false */\n      0x0100\n      exp\n      dup2\n      sload\n      dup2\n      0xff\n      mul\n      not\n      and\n      swap1\n      dup4\n      iszero\n      iszero\n      mul\n      or\n      swap1\n      sstore\n      pop\n        /* \"@openzeppelin/contracts@4.4.2/access/AccessControl.sol\":7384:7396  _msgSender() */\n      tag_279\n        /* \"@openzeppelin/contracts@4.4.2/access/AccessControl.sol\":7384:7394  _msgSender */\n      tag_147\n        /* \"@openzeppelin/contracts@4.4.2/access/AccessControl.sol\":7384:7396  _msgSender() */\n      jump\t// in\n    tag_279:\n        /* \"@openzeppelin/contracts@4.4.2/access/AccessControl.sol\":7357:7397  RoleRevoked(role, account, _msgSender()) */\n      0xffffffffffffffffffffffffffffffffffffffff\n      and\n        /* \"@openzeppelin/contracts@4.4.2/access/AccessControl.sol\":7375:7382  account */\n      dup2\n        /* \"@openzeppelin/contracts@4.4.2/access/AccessControl.sol\":7357:7397  RoleRevoked(role, account, _msgSender()) */\n      0xffffffffffffffffffffffffffffffffffffffff\n      and\n        /* \"@openzeppelin/contracts@4.4.2/access/AccessControl.sol\":7369:7373  role */\n      dup4\n        /* \"@openzeppelin/contracts@4.4.2/access/AccessControl.sol\":7357:7397  RoleRevoked(role, account, _msgSender()) */\n      0xf6391f5c32d9c69d2a47ea670b442974b53935d1edc7fd64eb21e047a839171b\n      mload(0x40)\n      mload(0x40)\n      dup1\n      swap2\n      sub\n      swap1\n      log4\n        /* \"@openzeppelin/contracts@4.4.2/access/AccessControl.sol\":7259:7408  if (hasRole(role, account)) {... */\n    tag_278:\n        /* \"@openzeppelin/contracts@4.4.2/access/AccessControl.sol\":7180:7414  function _revokeRole(bytes32 role, address account) internal virtual {... */\n      pop\n      pop\n      jump\t// out\n        /* \"contracts/Founding Citizens NFT Sale.sol\":4178:4669  function updateState() internal requiresConsistentState {\r... */\n    tag_167:\n        /* \"contracts/Founding Citizens NFT Sale.sol\":4067:4074  endTime */\n      sload(0x06)\n        /* \"contracts/Founding Citizens NFT Sale.sol\":4054:4063  startTime */\n      sload(0x05)\n        /* \"contracts/Founding Citizens NFT Sale.sol\":4054:4074  startTime <= endTime */\n      gt\n      iszero\n        /* \"contracts/Founding Citizens NFT Sale.sol\":4046:4110  require(startTime <= endTime, \"startTime is later than endTime\") */\n      tag_281\n      jumpi\n      mload(0x40)\n      0x08c379a000000000000000000000000000000000000000000000000000000000\n      dup2\n      mstore\n      0x04\n      add\n      tag_282\n      swap1\n      tag_283\n      jump\t// in\n    tag_282:\n      mload(0x40)\n      dup1\n      swap2\n      sub\n      swap1\n      revert\n    tag_281:\n        /* \"contracts/Founding Citizens NFT Sale.sol\":3420:3425  10**6 */\n      0x0f4240\n        /* \"contracts/Founding Citizens NFT Sale.sol\":3573:3574  1 */\n      0x01\n        /* \"contracts/Founding Citizens NFT Sale.sol\":3573:3582  1 * units */\n      tag_285\n      swap2\n      swap1\n      tag_236\n      jump\t// in\n    tag_285:\n        /* \"contracts/Founding Citizens NFT Sale.sol\":4334:4336  60 */\n      0x3c\n        /* \"contracts/Founding Citizens NFT Sale.sol\":4321:4330  startTime */\n      sload(0x05)\n        /* \"contracts/Founding Citizens NFT Sale.sol\":4303:4318  block.timestamp */\n      timestamp\n        /* \"contracts/Founding Citizens NFT Sale.sol\":4303:4330  block.timestamp - startTime */\n      tag_286\n      swap2\n      swap1\n      tag_197\n      jump\t// in\n    tag_286:\n        /* \"contracts/Founding Citizens NFT Sale.sol\":4302:4336  (block.timestamp - startTime) / 60 */\n      tag_287\n      swap2\n      swap1\n      tag_234\n      jump\t// in\n    tag_287:\n        /* \"contracts/Founding Citizens NFT Sale.sol\":4302:4361  (block.timestamp - startTime) / 60 * priceDescresePerMinute */\n      tag_288\n      swap2\n      swap1\n      tag_236\n      jump\t// in\n    tag_288:\n        /* \"contracts/Founding Citizens NFT Sale.sol\":4288:4298  startPrice */\n      sload(0x07)\n        /* \"contracts/Founding Citizens NFT Sale.sol\":4288:4362  startPrice - ((block.timestamp - startTime) / 60 * priceDescresePerMinute) */\n      tag_289\n      swap2\n      swap1\n      tag_197\n      jump\t// in\n    tag_289:\n        /* \"contracts/Founding Citizens NFT Sale.sol\":4269:4279  lastUpdate */\n      0x0a\n        /* \"contracts/Founding Citizens NFT Sale.sol\":4269:4285  lastUpdate.price */\n      0x00\n      add\n        /* \"contracts/Founding Citizens NFT Sale.sol\":4269:4362  lastUpdate.price = startPrice - ((block.timestamp - startTime) / 60 * priceDescresePerMinute) */\n      dup2\n      swap1\n      sstore\n      pop\n        /* \"contracts/Founding Citizens NFT Sale.sol\":4416:4431  block.timestamp */\n      timestamp\n        /* \"contracts/Founding Citizens NFT Sale.sol\":4398:4408  lastUpdate */\n      0x0a\n        /* \"contracts/Founding Citizens NFT Sale.sol\":4398:4413  lastUpdate.time */\n      0x01\n      add\n        /* \"contracts/Founding Citizens NFT Sale.sol\":4398:4431  lastUpdate.time = block.timestamp */\n      dup2\n      swap1\n      sstore\n      pop\n        /* \"contracts/Founding Citizens NFT Sale.sol\":4504:4513  startTime */\n      sload(0x05)\n        /* \"contracts/Founding Citizens NFT Sale.sol\":4485:4500  block.timestamp */\n      timestamp\n        /* \"contracts/Founding Citizens NFT Sale.sol\":4485:4513  block.timestamp >= startTime */\n      lt\n      iszero\n        /* \"contracts/Founding Citizens NFT Sale.sol\":4485:4543  block.timestamp >= startTime && block.timestamp <= endTime */\n      dup1\n      iszero\n      tag_290\n      jumpi\n      pop\n        /* \"contracts/Founding Citizens NFT Sale.sol\":4536:4543  endTime */\n      sload(0x06)\n        /* \"contracts/Founding Citizens NFT Sale.sol\":4517:4532  block.timestamp */\n      timestamp\n        /* \"contracts/Founding Citizens NFT Sale.sol\":4517:4543  block.timestamp <= endTime */\n      gt\n      iszero\n        /* \"contracts/Founding Citizens NFT Sale.sol\":4485:4543  block.timestamp >= startTime && block.timestamp <= endTime */\n    tag_290:\n        /* \"contracts/Founding Citizens NFT Sale.sol\":4481:4662  if (block.timestamp >= startTime && block.timestamp <= endTime) {\r... */\n      iszero\n      tag_291\n      jumpi\n        /* \"contracts/Founding Citizens NFT Sale.sol\":4584:4588  true */\n      0x01\n        /* \"contracts/Founding Citizens NFT Sale.sol\":4560:4570  lastUpdate */\n      0x0a\n        /* \"contracts/Founding Citizens NFT Sale.sol\":4560:4581  lastUpdate.saleIsLive */\n      0x02\n      add\n      0x00\n        /* \"contracts/Founding Citizens NFT Sale.sol\":4560:4588  lastUpdate.saleIsLive = true */\n      0x0100\n      exp\n      dup2\n      sload\n      dup2\n      0xff\n      mul\n      not\n      and\n      swap1\n      dup4\n      iszero\n      iszero\n      mul\n      or\n      swap1\n      sstore\n      pop\n        /* \"contracts/Founding Citizens NFT Sale.sol\":4481:4662  if (block.timestamp >= startTime && block.timestamp <= endTime) {\r... */\n      jump(tag_292)\n    tag_291:\n        /* \"contracts/Founding Citizens NFT Sale.sol\":4645:4650  false */\n      0x00\n        /* \"contracts/Founding Citizens NFT Sale.sol\":4621:4631  lastUpdate */\n      0x0a\n        /* \"contracts/Founding Citizens NFT Sale.sol\":4621:4642  lastUpdate.saleIsLive */\n      0x02\n      add\n      0x00\n        /* \"contracts/Founding Citizens NFT Sale.sol\":4621:4650  lastUpdate.saleIsLive = false */\n      0x0100\n      exp\n      dup2\n      sload\n      dup2\n      0xff\n      mul\n      not\n      and\n      swap1\n      dup4\n      iszero\n      iszero\n      mul\n      or\n      swap1\n      sstore\n      pop\n        /* \"contracts/Founding Citizens NFT Sale.sol\":4481:4662  if (block.timestamp >= startTime && block.timestamp <= endTime) {\r... */\n    tag_292:\n        /* \"contracts/Founding Citizens NFT Sale.sol\":4178:4669  function updateState() internal requiresConsistentState {\r... */\n      jump\t// out\n        /* \"contracts/Founding Citizens NFT Sale.sol\":6661:6825  function _buyNFT(uint price) internal {\r... */\n    tag_171:\n        /* \"contracts/Founding Citizens NFT Sale.sol\":6710:6735  usdcEscrowStorageContract */\n      0x03\n      0x00\n      swap1\n      sload\n      swap1\n      0x0100\n      exp\n      swap1\n      div\n      0xffffffffffffffffffffffffffffffffffffffff\n      and\n        /* \"contracts/Founding Citizens NFT Sale.sol\":6710:6755  usdcEscrowStorageContract.decreaseUsdcBalance */\n      0xffffffffffffffffffffffffffffffffffffffff\n      and\n      0x532b2913\n        /* \"contracts/Founding Citizens NFT Sale.sol\":6756:6766  msg.sender */\n      caller\n        /* \"contracts/Founding Citizens NFT Sale.sol\":6768:6773  price */\n      dup4\n        /* \"contracts/Founding Citizens NFT Sale.sol\":6710:6774  usdcEscrowStorageContract.decreaseUsdcBalance(msg.sender, price) */\n      mload(0x40)\n      dup4\n      0xffffffff\n      and\n      0xe0\n      shl\n      dup2\n      mstore\n      0x04\n      add\n      tag_294\n      swap3\n      swap2\n      swap1\n      tag_222\n      jump\t// in\n    tag_294:\n      0x00\n      mload(0x40)\n      dup1\n      dup4\n      sub\n      dup2\n      0x00\n      dup8\n      dup1\n      extcodesize\n      iszero\n      dup1\n      iszero\n      tag_295\n      jumpi\n      0x00\n      dup1\n      revert\n    tag_295:\n      pop\n      gas\n      call\n      iszero\n      dup1\n      iszero\n      tag_297\n      jumpi\n      returndatasize\n      0x00\n      dup1\n      returndatacopy\n      revert(0x00, returndatasize)\n    tag_297:\n      pop\n      pop\n      pop\n      pop\n        /* \"contracts/Founding Citizens NFT Sale.sol\":6785:6817  mintNextNftToAddress(msg.sender) */\n      tag_298\n        /* \"contracts/Founding Citizens NFT Sale.sol\":6806:6816  msg.sender */\n      caller\n        /* \"contracts/Founding Citizens NFT Sale.sol\":6785:6805  mintNextNftToAddress */\n      tag_204\n        /* \"contracts/Founding Citizens NFT Sale.sol\":6785:6817  mintNextNftToAddress(msg.sender) */\n      jump\t// in\n    tag_298:\n        /* \"contracts/Founding Citizens NFT Sale.sol\":6661:6825  function _buyNFT(uint price) internal {\r... */\n      pop\n      jump\t// out\n        /* \"contracts/Founding Citizens NFT Sale.sol\":4997:5128  function mintNextNftToAddress(address to) internal {\r... */\n    tag_204:\n        /* \"contracts/Founding Citizens NFT Sale.sol\":5072:5094  ERC1155storageContract */\n      0x01\n      0x00\n      swap1\n      sload\n      swap1\n      0x0100\n      exp\n      swap1\n      div\n      0xffffffffffffffffffffffffffffffffffffffff\n      and\n        /* \"contracts/Founding Citizens NFT Sale.sol\":5059:5116  IMintStorage(ERC1155storageContract).mintNextNftToAddress */\n      0xffffffffffffffffffffffffffffffffffffffff\n      and\n      0x55676590\n        /* \"contracts/Founding Citizens NFT Sale.sol\":5117:5119  to */\n      dup3\n        /* \"contracts/Founding Citizens NFT Sale.sol\":5059:5120  IMintStorage(ERC1155storageContract).mintNextNftToAddress(to) */\n      mload(0x40)\n      dup3\n      0xffffffff\n      and\n      0xe0\n      shl\n      dup2\n      mstore\n      0x04\n      add\n      tag_300\n      swap2\n      swap1\n      tag_119\n      jump\t// in\n    tag_300:\n      0x00\n      mload(0x40)\n      dup1\n      dup4\n      sub\n      dup2\n      0x00\n      dup8\n      dup1\n      extcodesize\n      iszero\n      dup1\n      iszero\n      tag_301\n      jumpi\n      0x00\n      dup1\n      revert\n    tag_301:\n      pop\n      gas\n      call\n      iszero\n      dup1\n      iszero\n      tag_303\n      jumpi\n      returndatasize\n      0x00\n      dup1\n      returndatacopy\n      revert(0x00, returndatasize)\n    tag_303:\n      pop\n      pop\n      pop\n      pop\n        /* \"contracts/Founding Citizens NFT Sale.sol\":4997:5128  function mintNextNftToAddress(address to) internal {\r... */\n      pop\n      jump\t// out\n        /* \"@openzeppelin/contracts@4.4.2/utils/Strings.sol\":1588:2029  function toHexString(uint256 value, uint256 length) internal pure returns (string memory) {... */\n    tag_267:\n        /* \"@openzeppelin/contracts@4.4.2/utils/Strings.sol\":1663:1676  string memory */\n      0x60\n        /* \"@openzeppelin/contracts@4.4.2/utils/Strings.sol\":1688:1707  bytes memory buffer */\n      0x00\n        /* \"@openzeppelin/contracts@4.4.2/utils/Strings.sol\":1733:1734  2 */\n      0x02\n        /* \"@openzeppelin/contracts@4.4.2/utils/Strings.sol\":1724:1730  length */\n      dup4\n        /* \"@openzeppelin/contracts@4.4.2/utils/Strings.sol\":1720:1721  2 */\n      0x02\n        /* \"@openzeppelin/contracts@4.4.2/utils/Strings.sol\":1720:1730  2 * length */\n      tag_305\n      swap2\n      swap1\n      tag_236\n      jump\t// in\n    tag_305:\n        /* \"@openzeppelin/contracts@4.4.2/utils/Strings.sol\":1720:1734  2 * length + 2 */\n      tag_306\n      swap2\n      swap1\n      tag_307\n      jump\t// in\n    tag_306:\n        /* \"@openzeppelin/contracts@4.4.2/utils/Strings.sol\":1710:1735  new bytes(2 * length + 2) */\n      0xffffffffffffffff\n      dup2\n      gt\n      iszero\n      tag_308\n      jumpi\n      mstore(0x00, 0x4e487b7100000000000000000000000000000000000000000000000000000000)\n      mstore(0x04, 0x41)\n      revert(0x00, 0x24)\n    tag_308:\n      mload(0x40)\n      swap1\n      dup1\n      dup3\n      mstore\n      dup1\n      0x1f\n      add\n      not(0x1f)\n      and\n      0x20\n      add\n      dup3\n      add\n      0x40\n      mstore\n      dup1\n      iszero\n      tag_309\n      jumpi\n      dup2\n      0x20\n      add\n      0x01\n      dup3\n      mul\n      dup1\n      calldatasize\n      dup4\n      calldatacopy\n      dup1\n      dup3\n      add\n      swap2\n      pop\n      pop\n      swap1\n      pop\n    tag_309:\n      pop\n        /* \"@openzeppelin/contracts@4.4.2/utils/Strings.sol\":1688:1735  bytes memory buffer = new bytes(2 * length + 2) */\n      swap1\n      pop\n        /* \"@openzeppelin/contracts@4.4.2/utils/Strings.sol\":1745:1760  buffer[0] = \"0\" */\n      0x3000000000000000000000000000000000000000000000000000000000000000\n        /* \"@openzeppelin/contracts@4.4.2/utils/Strings.sol\":1745:1751  buffer */\n      dup2\n        /* \"@openzeppelin/contracts@4.4.2/utils/Strings.sol\":1752:1753  0 */\n      0x00\n        /* \"@openzeppelin/contracts@4.4.2/utils/Strings.sol\":1745:1754  buffer[0] */\n      dup2\n      mload\n      dup2\n      lt\n      tag_310\n      jumpi\n      mstore(0x00, 0x4e487b7100000000000000000000000000000000000000000000000000000000)\n      mstore(0x04, 0x32)\n      revert(0x00, 0x24)\n    tag_310:\n      0x20\n      add\n      add\n        /* \"@openzeppelin/contracts@4.4.2/utils/Strings.sol\":1745:1760  buffer[0] = \"0\" */\n      swap1\n      not(0xffffffffffffffffffffffffffffffffffffffffffffffffffffffffffffff)\n      and\n      swap1\n      dup2\n      0x00\n      byte\n      swap1\n      mstore8\n      pop\n        /* \"@openzeppelin/contracts@4.4.2/utils/Strings.sol\":1770:1785  buffer[1] = \"x\" */\n      0x7800000000000000000000000000000000000000000000000000000000000000\n        /* \"@openzeppelin/contracts@4.4.2/utils/Strings.sol\":1770:1776  buffer */\n      dup2\n        /* \"@openzeppelin/contracts@4.4.2/utils/Strings.sol\":1777:1778  1 */\n      0x01\n        /* \"@openzeppelin/contracts@4.4.2/utils/Strings.sol\":1770:1779  buffer[1] */\n      dup2\n      mload\n      dup2\n      lt\n      tag_311\n      jumpi\n      mstore(0x00, 0x4e487b7100000000000000000000000000000000000000000000000000000000)\n      mstore(0x04, 0x32)\n      revert(0x00, 0x24)\n    tag_311:\n      0x20\n      add\n      add\n        /* \"@openzeppelin/contracts@4.4.2/utils/Strings.sol\":1770:1785  buffer[1] = \"x\" */\n      swap1\n      not(0xffffffffffffffffffffffffffffffffffffffffffffffffffffffffffffff)\n      and\n      swap1\n      dup2\n      0x00\n      byte\n      swap1\n      mstore8\n      pop\n        /* \"@openzeppelin/contracts@4.4.2/utils/Strings.sol\":1800:1809  uint256 i */\n      0x00\n        /* \"@openzeppelin/contracts@4.4.2/utils/Strings.sol\":1825:1826  1 */\n      0x01\n        /* \"@openzeppelin/contracts@4.4.2/utils/Strings.sol\":1816:1822  length */\n      dup5\n        /* \"@openzeppelin/contracts@4.4.2/utils/Strings.sol\":1812:1813  2 */\n      0x02\n        /* \"@openzeppelin/contracts@4.4.2/utils/Strings.sol\":1812:1822  2 * length */\n      tag_315\n      swap2\n      swap1\n      tag_236\n      jump\t// in\n    tag_315:\n        /* \"@openzeppelin/contracts@4.4.2/utils/Strings.sol\":1812:1826  2 * length + 1 */\n      tag_316\n      swap2\n      swap1\n      tag_307\n      jump\t// in\n    tag_316:\n        /* \"@openzeppelin/contracts@4.4.2/utils/Strings.sol\":1800:1826  uint256 i = 2 * length + 1 */\n      swap1\n      pop\n        /* \"@openzeppelin/contracts@4.4.2/utils/Strings.sol\":1795:1927  for (uint256 i = 2 * length + 1; i > 1; --i) {... */\n    tag_312:\n        /* \"@openzeppelin/contracts@4.4.2/utils/Strings.sol\":1832:1833  1 */\n      0x01\n        /* \"@openzeppelin/contracts@4.4.2/utils/Strings.sol\":1828:1829  i */\n      dup2\n        /* \"@openzeppelin/contracts@4.4.2/utils/Strings.sol\":1828:1833  i > 1 */\n      gt\n        /* \"@openzeppelin/contracts@4.4.2/utils/Strings.sol\":1795:1927  for (uint256 i = 2 * length + 1; i > 1; --i) {... */\n      iszero\n      tag_313\n      jumpi\n        /* \"@openzeppelin/contracts@4.4.2/utils/Strings.sol\":1866:1878  _HEX_SYMBOLS */\n      0x3031323334353637383961626364656600000000000000000000000000000000\n        /* \"@openzeppelin/contracts@4.4.2/utils/Strings.sol\":1887:1890  0xf */\n      0x0f\n        /* \"@openzeppelin/contracts@4.4.2/utils/Strings.sol\":1879:1884  value */\n      dup7\n        /* \"@openzeppelin/contracts@4.4.2/utils/Strings.sol\":1879:1890  value & 0xf */\n      and\n        /* \"@openzeppelin/contracts@4.4.2/utils/Strings.sol\":1866:1891  _HEX_SYMBOLS[value & 0xf] */\n      0x10\n      dup2\n      lt\n      tag_317\n      jumpi\n      mstore(0x00, 0x4e487b7100000000000000000000000000000000000000000000000000000000)\n      mstore(0x04, 0x32)\n      revert(0x00, 0x24)\n    tag_317:\n      byte\n      0xf8\n      shl\n        /* \"@openzeppelin/contracts@4.4.2/utils/Strings.sol\":1854:1860  buffer */\n      dup3\n        /* \"@openzeppelin/contracts@4.4.2/utils/Strings.sol\":1861:1862  i */\n      dup3\n        /* \"@openzeppelin/contracts@4.4.2/utils/Strings.sol\":1854:1863  buffer[i] */\n      dup2\n      mload\n      dup2\n      lt\n      tag_318\n      jumpi\n      mstore(0x00, 0x4e487b7100000000000000000000000000000000000000000000000000000000)\n      mstore(0x04, 0x32)\n      revert(0x00, 0x24)\n    tag_318:\n      0x20\n      add\n      add\n        /* \"@openzeppelin/contracts@4.4.2/utils/Strings.sol\":1854:1891  buffer[i] = _HEX_SYMBOLS[value & 0xf] */\n      swap1\n      not(0xffffffffffffffffffffffffffffffffffffffffffffffffffffffffffffff)\n      and\n      swap1\n      dup2\n      0x00\n      byte\n      swap1\n      mstore8\n      pop\n        /* \"@openzeppelin/contracts@4.4.2/utils/Strings.sol\":1915:1916  4 */\n      0x04\n        /* \"@openzeppelin/contracts@4.4.2/utils/Strings.sol\":1905:1916  value >>= 4 */\n      dup6\n      swap1\n      shr\n      swap5\n      pop\n        /* \"@openzeppelin/contracts@4.4.2/utils/Strings.sol\":1835:1838  --i */\n      dup1\n      tag_319\n      swap1\n      tag_206\n      jump\t// in\n    tag_319:\n      swap1\n      pop\n        /* \"@openzeppelin/contracts@4.4.2/utils/Strings.sol\":1795:1927  for (uint256 i = 2 * length + 1; i > 1; --i) {... */\n      jump(tag_312)\n    tag_313:\n      pop\n        /* \"@openzeppelin/contracts@4.4.2/utils/Strings.sol\":1953:1954  0 */\n      0x00\n        /* \"@openzeppelin/contracts@4.4.2/utils/Strings.sol\":1944:1949  value */\n      dup5\n        /* \"@openzeppelin/contracts@4.4.2/utils/Strings.sol\":1944:1954  value == 0 */\n      eq\n        /* \"@openzeppelin/contracts@4.4.2/utils/Strings.sol\":1936:1991  require(value == 0, \"Strings: hex length insufficient\") */\n      tag_320\n      jumpi\n      mload(0x40)\n      0x08c379a000000000000000000000000000000000000000000000000000000000\n      dup2\n      mstore\n      0x04\n      add\n      tag_321\n      swap1\n      tag_322\n      jump\t// in\n    tag_321:\n      mload(0x40)\n      dup1\n      swap2\n      sub\n      swap1\n      revert\n    tag_320:\n        /* \"@openzeppelin/contracts@4.4.2/utils/Strings.sol\":2015:2021  buffer */\n      dup1\n        /* \"@openzeppelin/contracts@4.4.2/utils/Strings.sol\":2001:2022  return string(buffer) */\n      swap2\n      pop\n      pop\n        /* \"@openzeppelin/contracts@4.4.2/utils/Strings.sol\":1588:2029  function toHexString(uint256 value, uint256 length) internal pure returns (string memory) {... */\n      swap3\n      swap2\n      pop\n      pop\n      jump\t// out\n    tag_180:\n      dup3\n      dup1\n      sload\n      tag_323\n      swap1\n      tag_137\n      jump\t// in\n    tag_323:\n      swap1\n      0x00\n      mstore\n      keccak256(0x00, 0x20)\n      swap1\n      0x1f\n      add\n      0x20\n      swap1\n      div\n      dup2\n      add\n      swap3\n      dup3\n      tag_325\n      jumpi\n      0x00\n      dup6\n      sstore\n      jump(tag_324)\n    tag_325:\n      dup3\n      0x1f\n      lt\n      tag_326\n      jumpi\n      dup1\n      mload\n      not(0xff)\n      and\n      dup4\n      dup1\n      add\n      or\n      dup6\n      sstore\n      jump(tag_324)\n    tag_326:\n      dup3\n      dup1\n      add\n      0x01\n      add\n      dup6\n      sstore\n      dup3\n      iszero\n      tag_324\n      jumpi\n      swap2\n      dup3\n      add\n    tag_327:\n      dup3\n      dup2\n      gt\n      iszero\n      tag_328\n      jumpi\n      dup3\n      mload\n      dup3\n      sstore\n      swap2\n      0x20\n      add\n      swap2\n      swap1\n      0x01\n      add\n      swap1\n      jump(tag_327)\n    tag_328:\n    tag_324:\n      pop\n      swap1\n      pop\n      tag_329\n      swap2\n      swap1\n      tag_330\n      jump\t// in\n    tag_329:\n      pop\n      swap1\n      jump\t// out\n    tag_330:\n    tag_331:\n      dup1\n      dup3\n      gt\n      iszero\n      tag_332\n      jumpi\n      0x00\n      dup2\n      0x00\n      swap1\n      sstore\n      pop\n      0x01\n      add\n      jump(tag_331)\n    tag_332:\n      pop\n      swap1\n      jump\t// out\n        /* \"#utility.yul\":23:639   */\n    tag_334:\n      0x00\n        /* \"#utility.yul\":154:245   */\n      tag_336\n        /* \"#utility.yul\":170:244   */\n      tag_337\n        /* \"#utility.yul\":237:243   */\n      dup5\n        /* \"#utility.yul\":170:244   */\n      tag_338\n      jump\t// in\n    tag_337:\n        /* \"#utility.yul\":154:245   */\n      tag_339\n      jump\t// in\n    tag_336:\n        /* \"#utility.yul\":145:245   */\n      swap1\n      pop\n        /* \"#utility.yul\":265:270   */\n      dup1\n        /* \"#utility.yul\":293:299   */\n      dup4\n        /* \"#utility.yul\":286:291   */\n      dup3\n        /* \"#utility.yul\":279:300   */\n      mstore\n        /* \"#utility.yul\":319:323   */\n      0x20\n        /* \"#utility.yul\":312:317   */\n      dup3\n        /* \"#utility.yul\":308:324   */\n      add\n        /* \"#utility.yul\":301:324   */\n      swap1\n      pop\n        /* \"#utility.yul\":344:350   */\n      dup3\n        /* \"#utility.yul\":375:376   */\n      0x00\n        /* \"#utility.yul\":360:633   */\n    tag_340:\n        /* \"#utility.yul\":385:391   */\n      dup6\n        /* \"#utility.yul\":382:383   */\n      dup2\n        /* \"#utility.yul\":379:392   */\n      lt\n        /* \"#utility.yul\":360:633   */\n      iszero\n      tag_342\n      jumpi\n        /* \"#utility.yul\":477:480   */\n      dup2\n        /* \"#utility.yul\":464:481   */\n      calldataload\n        /* \"#utility.yul\":456:462   */\n      dup6\n        /* \"#utility.yul\":452:482   */\n      add\n        /* \"#utility.yul\":507:554   */\n      tag_343\n        /* \"#utility.yul\":550:553   */\n      dup9\n        /* \"#utility.yul\":538:548   */\n      dup3\n        /* \"#utility.yul\":507:554   */\n      tag_344\n      jump\t// in\n    tag_343:\n        /* \"#utility.yul\":502:505   */\n      dup5\n        /* \"#utility.yul\":495:555   */\n      mstore\n        /* \"#utility.yul\":584:588   */\n      0x20\n        /* \"#utility.yul\":579:582   */\n      dup5\n        /* \"#utility.yul\":575:589   */\n      add\n        /* \"#utility.yul\":568:589   */\n      swap4\n      pop\n        /* \"#utility.yul\":618:622   */\n      0x20\n        /* \"#utility.yul\":613:616   */\n      dup4\n        /* \"#utility.yul\":609:623   */\n      add\n        /* \"#utility.yul\":602:623   */\n      swap3\n      pop\n        /* \"#utility.yul\":420:633   */\n      pop\n        /* \"#utility.yul\":407:408   */\n      0x01\n        /* \"#utility.yul\":404:405   */\n      dup2\n        /* \"#utility.yul\":400:409   */\n      add\n        /* \"#utility.yul\":395:409   */\n      swap1\n      pop\n        /* \"#utility.yul\":360:633   */\n      jump(tag_340)\n    tag_342:\n        /* \"#utility.yul\":364:378   */\n      pop\n        /* \"#utility.yul\":135:639   */\n      pop\n      pop\n      swap4\n      swap3\n      pop\n      pop\n      pop\n      jump\t// out\n        /* \"#utility.yul\":662:1285   */\n    tag_345:\n      0x00\n        /* \"#utility.yul\":783:864   */\n      tag_347\n        /* \"#utility.yul\":799:863   */\n      tag_348\n        /* \"#utility.yul\":856:862   */\n      dup5\n        /* \"#utility.yul\":799:863   */\n      tag_349\n      jump\t// in\n    tag_348:\n        /* \"#utility.yul\":783:864   */\n      tag_339\n      jump\t// in\n    tag_347:\n        /* \"#utility.yul\":774:864   */\n      swap1\n      pop\n        /* \"#utility.yul\":884:889   */\n      dup1\n        /* \"#utility.yul\":912:918   */\n      dup4\n        /* \"#utility.yul\":905:910   */\n      dup3\n        /* \"#utility.yul\":898:919   */\n      mstore\n        /* \"#utility.yul\":938:942   */\n      0x20\n        /* \"#utility.yul\":931:936   */\n      dup3\n        /* \"#utility.yul\":927:943   */\n      add\n        /* \"#utility.yul\":920:943   */\n      swap1\n      pop\n        /* \"#utility.yul\":963:969   */\n      dup3\n        /* \"#utility.yul\":1013:1016   */\n      dup6\n        /* \"#utility.yul\":1005:1009   */\n      0x20\n        /* \"#utility.yul\":997:1003   */\n      dup7\n        /* \"#utility.yul\":993:1010   */\n      mul\n        /* \"#utility.yul\":988:991   */\n      dup3\n        /* \"#utility.yul\":984:1011   */\n      add\n        /* \"#utility.yul\":981:1017   */\n      gt\n        /* \"#utility.yul\":978:980   */\n      iszero\n      tag_350\n      jumpi\n        /* \"#utility.yul\":1030:1031   */\n      0x00\n        /* \"#utility.yul\":1027:1028   */\n      dup1\n        /* \"#utility.yul\":1020:1032   */\n      revert\n        /* \"#utility.yul\":978:980   */\n    tag_350:\n        /* \"#utility.yul\":1058:1059   */\n      0x00\n        /* \"#utility.yul\":1043:1279   */\n    tag_351:\n        /* \"#utility.yul\":1068:1074   */\n      dup6\n        /* \"#utility.yul\":1065:1066   */\n      dup2\n        /* \"#utility.yul\":1062:1075   */\n      lt\n        /* \"#utility.yul\":1043:1279   */\n      iszero\n      tag_353\n      jumpi\n        /* \"#utility.yul\":1135:1138   */\n      dup2\n        /* \"#utility.yul\":1163:1200   */\n      tag_354\n        /* \"#utility.yul\":1196:1199   */\n      dup9\n        /* \"#utility.yul\":1184:1194   */\n      dup3\n        /* \"#utility.yul\":1163:1200   */\n      tag_355\n      jump\t// in\n    tag_354:\n        /* \"#utility.yul\":1158:1161   */\n      dup5\n        /* \"#utility.yul\":1151:1201   */\n      mstore\n        /* \"#utility.yul\":1230:1234   */\n      0x20\n        /* \"#utility.yul\":1225:1228   */\n      dup5\n        /* \"#utility.yul\":1221:1235   */\n      add\n        /* \"#utility.yul\":1214:1235   */\n      swap4\n      pop\n        /* \"#utility.yul\":1264:1268   */\n      0x20\n        /* \"#utility.yul\":1259:1262   */\n      dup4\n        /* \"#utility.yul\":1255:1269   */\n      add\n        /* \"#utility.yul\":1248:1269   */\n      swap3\n      pop\n        /* \"#utility.yul\":1103:1279   */\n      pop\n        /* \"#utility.yul\":1090:1091   */\n      0x01\n        /* \"#utility.yul\":1087:1088   */\n      dup2\n        /* \"#utility.yul\":1083:1092   */\n      add\n        /* \"#utility.yul\":1078:1092   */\n      swap1\n      pop\n        /* \"#utility.yul\":1043:1279   */\n      jump(tag_351)\n    tag_353:\n        /* \"#utility.yul\":1047:1061   */\n      pop\n        /* \"#utility.yul\":764:1285   */\n      pop\n      pop\n      swap4\n      swap3\n      pop\n      pop\n      pop\n      jump\t// out\n        /* \"#utility.yul\":1291:1636   */\n    tag_356:\n      0x00\n        /* \"#utility.yul\":1394:1460   */\n      tag_358\n        /* \"#utility.yul\":1410:1459   */\n      tag_359\n        /* \"#utility.yul\":1452:1458   */\n      dup5\n        /* \"#utility.yul\":1410:1459   */\n      tag_360\n      jump\t// in\n    tag_359:\n        /* \"#utility.yul\":1394:1460   */\n      tag_339\n      jump\t// in\n    tag_358:\n        /* \"#utility.yul\":1385:1460   */\n      swap1\n      pop\n        /* \"#utility.yul\":1483:1489   */\n      dup3\n        /* \"#utility.yul\":1476:1481   */\n      dup2\n        /* \"#utility.yul\":1469:1490   */\n      mstore\n        /* \"#utility.yul\":1521:1525   */\n      0x20\n        /* \"#utility.yul\":1514:1519   */\n      dup2\n        /* \"#utility.yul\":1510:1526   */\n      add\n        /* \"#utility.yul\":1559:1562   */\n      dup5\n        /* \"#utility.yul\":1550:1556   */\n      dup5\n        /* \"#utility.yul\":1545:1548   */\n      dup5\n        /* \"#utility.yul\":1541:1557   */\n      add\n        /* \"#utility.yul\":1538:1563   */\n      gt\n        /* \"#utility.yul\":1535:1537   */\n      iszero\n      tag_361\n      jumpi\n        /* \"#utility.yul\":1576:1577   */\n      0x00\n        /* \"#utility.yul\":1573:1574   */\n      dup1\n        /* \"#utility.yul\":1566:1578   */\n      revert\n        /* \"#utility.yul\":1535:1537   */\n    tag_361:\n        /* \"#utility.yul\":1589:1630   */\n      tag_362\n        /* \"#utility.yul\":1623:1629   */\n      dup5\n        /* \"#utility.yul\":1618:1621   */\n      dup3\n        /* \"#utility.yul\":1613:1616   */\n      dup6\n        /* \"#utility.yul\":1589:1630   */\n      tag_363\n      jump\t// in\n    tag_362:\n        /* \"#utility.yul\":1375:1636   */\n      pop\n      swap4\n      swap3\n      pop\n      pop\n      pop\n      jump\t// out\n        /* \"#utility.yul\":1642:1781   */\n    tag_364:\n      0x00\n        /* \"#utility.yul\":1726:1732   */\n      dup2\n        /* \"#utility.yul\":1713:1733   */\n      calldataload\n        /* \"#utility.yul\":1704:1733   */\n      swap1\n      pop\n        /* \"#utility.yul\":1742:1775   */\n      tag_366\n        /* \"#utility.yul\":1769:1774   */\n      dup2\n        /* \"#utility.yul\":1742:1775   */\n      tag_367\n      jump\t// in\n    tag_366:\n        /* \"#utility.yul\":1694:1781   */\n      swap3\n      swap2\n      pop\n      pop\n      jump\t// out\n        /* \"#utility.yul\":1803:2126   */\n    tag_368:\n      0x00\n        /* \"#utility.yul\":1933:1936   */\n      dup3\n        /* \"#utility.yul\":1926:1930   */\n      0x1f\n        /* \"#utility.yul\":1918:1924   */\n      dup4\n        /* \"#utility.yul\":1914:1931   */\n      add\n        /* \"#utility.yul\":1910:1937   */\n      slt\n        /* \"#utility.yul\":1900:1902   */\n      tag_370\n      jumpi\n        /* \"#utility.yul\":1951:1952   */\n      0x00\n        /* \"#utility.yul\":1948:1949   */\n      dup1\n        /* \"#utility.yul\":1941:1953   */\n      revert\n        /* \"#utility.yul\":1900:1902   */\n    tag_370:\n        /* \"#utility.yul\":1991:1997   */\n      dup2\n        /* \"#utility.yul\":1978:1998   */\n      calldataload\n        /* \"#utility.yul\":2016:2120   */\n      tag_371\n        /* \"#utility.yul\":2116:2119   */\n      dup5\n        /* \"#utility.yul\":2108:2114   */\n      dup3\n        /* \"#utility.yul\":2101:2105   */\n      0x20\n        /* \"#utility.yul\":2093:2099   */\n      dup7\n        /* \"#utility.yul\":2089:2106   */\n      add\n        /* \"#utility.yul\":2016:2120   */\n      tag_334\n      jump\t// in\n    tag_371:\n        /* \"#utility.yul\":2007:2120   */\n      swap2\n      pop\n        /* \"#utility.yul\":1890:2126   */\n      pop\n      swap3\n      swap2\n      pop\n      pop\n      jump\t// out\n        /* \"#utility.yul\":2149:2452   */\n    tag_372:\n      0x00\n        /* \"#utility.yul\":2269:2272   */\n      dup3\n        /* \"#utility.yul\":2262:2266   */\n      0x1f\n        /* \"#utility.yul\":2254:2260   */\n      dup4\n        /* \"#utility.yul\":2250:2267   */\n      add\n        /* \"#utility.yul\":2246:2273   */\n      slt\n        /* \"#utility.yul\":2236:2238   */\n      tag_374\n      jumpi\n        /* \"#utility.yul\":2287:2288   */\n      0x00\n        /* \"#utility.yul\":2284:2285   */\n      dup1\n        /* \"#utility.yul\":2277:2289   */\n      revert\n        /* \"#utility.yul\":2236:2238   */\n    tag_374:\n        /* \"#utility.yul\":2327:2333   */\n      dup2\n        /* \"#utility.yul\":2314:2334   */\n      calldataload\n        /* \"#utility.yul\":2352:2446   */\n      tag_375\n        /* \"#utility.yul\":2442:2445   */\n      dup5\n        /* \"#utility.yul\":2434:2440   */\n      dup3\n        /* \"#utility.yul\":2427:2431   */\n      0x20\n        /* \"#utility.yul\":2419:2425   */\n      dup7\n        /* \"#utility.yul\":2415:2432   */\n      add\n        /* \"#utility.yul\":2352:2446   */\n      tag_345\n      jump\t// in\n    tag_375:\n        /* \"#utility.yul\":2343:2446   */\n      swap2\n      pop\n        /* \"#utility.yul\":2226:2452   */\n      pop\n      swap3\n      swap2\n      pop\n      pop\n      jump\t// out\n        /* \"#utility.yul\":2458:2595   */\n    tag_376:\n      0x00\n        /* \"#utility.yul\":2543:2549   */\n      dup2\n        /* \"#utility.yul\":2537:2550   */\n      mload\n        /* \"#utility.yul\":2528:2550   */\n      swap1\n      pop\n        /* \"#utility.yul\":2559:2589   */\n      tag_378\n        /* \"#utility.yul\":2583:2588   */\n      dup2\n        /* \"#utility.yul\":2559:2589   */\n      tag_379\n      jump\t// in\n    tag_378:\n        /* \"#utility.yul\":2518:2595   */\n      swap3\n      swap2\n      pop\n      pop\n      jump\t// out\n        /* \"#utility.yul\":2601:2740   */\n    tag_380:\n      0x00\n        /* \"#utility.yul\":2685:2691   */\n      dup2\n        /* \"#utility.yul\":2672:2692   */\n      calldataload\n        /* \"#utility.yul\":2663:2692   */\n      swap1\n      pop\n        /* \"#utility.yul\":2701:2734   */\n      tag_382\n        /* \"#utility.yul\":2728:2733   */\n      dup2\n        /* \"#utility.yul\":2701:2734   */\n      tag_383\n      jump\t// in\n    tag_382:\n        /* \"#utility.yul\":2653:2740   */\n      swap3\n      swap2\n      pop\n      pop\n      jump\t// out\n        /* \"#utility.yul\":2746:2883   */\n    tag_384:\n      0x00\n        /* \"#utility.yul\":2829:2835   */\n      dup2\n        /* \"#utility.yul\":2816:2836   */\n      calldataload\n        /* \"#utility.yul\":2807:2836   */\n      swap1\n      pop\n        /* \"#utility.yul\":2845:2877   */\n      tag_386\n        /* \"#utility.yul\":2871:2876   */\n      dup2\n        /* \"#utility.yul\":2845:2877   */\n      tag_387\n      jump\t// in\n    tag_386:\n        /* \"#utility.yul\":2797:2883   */\n      swap3\n      swap2\n      pop\n      pop\n      jump\t// out\n        /* \"#utility.yul\":2903:3176   */\n    tag_344:\n      0x00\n        /* \"#utility.yul\":3008:3011   */\n      dup3\n        /* \"#utility.yul\":3001:3005   */\n      0x1f\n        /* \"#utility.yul\":2993:2999   */\n      dup4\n        /* \"#utility.yul\":2989:3006   */\n      add\n        /* \"#utility.yul\":2985:3012   */\n      slt\n        /* \"#utility.yul\":2975:2977   */\n      tag_389\n      jumpi\n        /* \"#utility.yul\":3026:3027   */\n      0x00\n        /* \"#utility.yul\":3023:3024   */\n      dup1\n        /* \"#utility.yul\":3016:3028   */\n      revert\n        /* \"#utility.yul\":2975:2977   */\n    tag_389:\n        /* \"#utility.yul\":3066:3072   */\n      dup2\n        /* \"#utility.yul\":3053:3073   */\n      calldataload\n        /* \"#utility.yul\":3091:3170   */\n      tag_390\n        /* \"#utility.yul\":3166:3169   */\n      dup5\n        /* \"#utility.yul\":3158:3164   */\n      dup3\n        /* \"#utility.yul\":3151:3155   */\n      0x20\n        /* \"#utility.yul\":3143:3149   */\n      dup7\n        /* \"#utility.yul\":3139:3156   */\n      add\n        /* \"#utility.yul\":3091:3170   */\n      tag_356\n      jump\t// in\n    tag_390:\n        /* \"#utility.yul\":3082:3170   */\n      swap2\n      pop\n        /* \"#utility.yul\":2965:3176   */\n      pop\n      swap3\n      swap2\n      pop\n      pop\n      jump\t// out\n        /* \"#utility.yul\":3182:3321   */\n    tag_355:\n      0x00\n        /* \"#utility.yul\":3266:3272   */\n      dup2\n        /* \"#utility.yul\":3253:3273   */\n      calldataload\n        /* \"#utility.yul\":3244:3273   */\n      swap1\n      pop\n        /* \"#utility.yul\":3282:3315   */\n      tag_392\n        /* \"#utility.yul\":3309:3314   */\n      dup2\n        /* \"#utility.yul\":3282:3315   */\n      tag_393\n      jump\t// in\n    tag_392:\n        /* \"#utility.yul\":3234:3321   */\n      swap3\n      swap2\n      pop\n      pop\n      jump\t// out\n        /* \"#utility.yul\":3327:3470   */\n    tag_394:\n      0x00\n        /* \"#utility.yul\":3415:3421   */\n      dup2\n        /* \"#utility.yul\":3409:3422   */\n      mload\n        /* \"#utility.yul\":3400:3422   */\n      swap1\n      pop\n        /* \"#utility.yul\":3431:3464   */\n      tag_396\n        /* \"#utility.yul\":3458:3463   */\n      dup2\n        /* \"#utility.yul\":3431:3464   */\n      tag_393\n      jump\t// in\n    tag_396:\n        /* \"#utility.yul\":3390:3470   */\n      swap3\n      swap2\n      pop\n      pop\n      jump\t// out\n        /* \"#utility.yul\":3476:3738   */\n    tag_68:\n      0x00\n        /* \"#utility.yul\":3584:3586   */\n      0x20\n        /* \"#utility.yul\":3572:3581   */\n      dup3\n        /* \"#utility.yul\":3563:3570   */\n      dup5\n        /* \"#utility.yul\":3559:3582   */\n      sub\n        /* \"#utility.yul\":3555:3587   */\n      slt\n        /* \"#utility.yul\":3552:3554   */\n      iszero\n      tag_398\n      jumpi\n        /* \"#utility.yul\":3600:3601   */\n      0x00\n        /* \"#utility.yul\":3597:3598   */\n      dup1\n        /* \"#utility.yul\":3590:3602   */\n      revert\n        /* \"#utility.yul\":3552:3554   */\n    tag_398:\n        /* \"#utility.yul\":3643:3644   */\n      0x00\n        /* \"#utility.yul\":3668:3721   */\n      tag_399\n        /* \"#utility.yul\":3713:3720   */\n      dup5\n        /* \"#utility.yul\":3704:3710   */\n      dup3\n        /* \"#utility.yul\":3693:3702   */\n      dup6\n        /* \"#utility.yul\":3689:3711   */\n      add\n        /* \"#utility.yul\":3668:3721   */\n      tag_364\n      jump\t// in\n    tag_399:\n        /* \"#utility.yul\":3658:3721   */\n      swap2\n      pop\n        /* \"#utility.yul\":3614:3731   */\n      pop\n        /* \"#utility.yul\":3542:3738   */\n      swap3\n      swap2\n      pop\n      pop\n      jump\t// out\n        /* \"#utility.yul\":3744:4151   */\n    tag_103:\n      0x00\n      dup1\n        /* \"#utility.yul\":3869:3871   */\n      0x40\n        /* \"#utility.yul\":3857:3866   */\n      dup4\n        /* \"#utility.yul\":3848:3855   */\n      dup6\n        /* \"#utility.yul\":3844:3867   */\n      sub\n        /* \"#utility.yul\":3840:3872   */\n      slt\n        /* \"#utility.yul\":3837:3839   */\n      iszero\n      tag_401\n      jumpi\n        /* \"#utility.yul\":3885:3886   */\n      0x00\n        /* \"#utility.yul\":3882:3883   */\n      dup1\n        /* \"#utility.yul\":3875:3887   */\n      revert\n        /* \"#utility.yul\":3837:3839   */\n    tag_401:\n        /* \"#utility.yul\":3928:3929   */\n      0x00\n        /* \"#utility.yul\":3953:4006   */\n      tag_402\n        /* \"#utility.yul\":3998:4005   */\n      dup6\n        /* \"#utility.yul\":3989:3995   */\n      dup3\n        /* \"#utility.yul\":3978:3987   */\n      dup7\n        /* \"#utility.yul\":3974:3996   */\n      add\n        /* \"#utility.yul\":3953:4006   */\n      tag_364\n      jump\t// in\n    tag_402:\n        /* \"#utility.yul\":3943:4006   */\n      swap3\n      pop\n        /* \"#utility.yul\":3899:4016   */\n      pop\n        /* \"#utility.yul\":4055:4057   */\n      0x20\n        /* \"#utility.yul\":4081:4134   */\n      tag_403\n        /* \"#utility.yul\":4126:4133   */\n      dup6\n        /* \"#utility.yul\":4117:4123   */\n      dup3\n        /* \"#utility.yul\":4106:4115   */\n      dup7\n        /* \"#utility.yul\":4102:4124   */\n      add\n        /* \"#utility.yul\":4081:4134   */\n      tag_355\n      jump\t// in\n    tag_403:\n        /* \"#utility.yul\":4071:4134   */\n      swap2\n      pop\n        /* \"#utility.yul\":4026:4144   */\n      pop\n        /* \"#utility.yul\":3827:4151   */\n      swap3\n      pop\n      swap3\n      swap1\n      pop\n      jump\t// out\n        /* \"#utility.yul\":4157:4870   */\n    tag_128:\n      0x00\n      dup1\n        /* \"#utility.yul\":4342:4344   */\n      0x40\n        /* \"#utility.yul\":4330:4339   */\n      dup4\n        /* \"#utility.yul\":4321:4328   */\n      dup6\n        /* \"#utility.yul\":4317:4340   */\n      sub\n        /* \"#utility.yul\":4313:4345   */\n      slt\n        /* \"#utility.yul\":4310:4312   */\n      iszero\n      tag_405\n      jumpi\n        /* \"#utility.yul\":4358:4359   */\n      0x00\n        /* \"#utility.yul\":4355:4356   */\n      dup1\n        /* \"#utility.yul\":4348:4360   */\n      revert\n        /* \"#utility.yul\":4310:4312   */\n    tag_405:\n        /* \"#utility.yul\":4429:4430   */\n      0x00\n        /* \"#utility.yul\":4418:4427   */\n      dup4\n        /* \"#utility.yul\":4414:4431   */\n      add\n        /* \"#utility.yul\":4401:4432   */\n      calldataload\n        /* \"#utility.yul\":4459:4477   */\n      0xffffffffffffffff\n        /* \"#utility.yul\":4451:4457   */\n      dup2\n        /* \"#utility.yul\":4448:4478   */\n      gt\n        /* \"#utility.yul\":4445:4447   */\n      iszero\n      tag_406\n      jumpi\n        /* \"#utility.yul\":4491:4492   */\n      0x00\n        /* \"#utility.yul\":4488:4489   */\n      dup1\n        /* \"#utility.yul\":4481:4493   */\n      revert\n        /* \"#utility.yul\":4445:4447   */\n    tag_406:\n        /* \"#utility.yul\":4519:4597   */\n      tag_407\n        /* \"#utility.yul\":4589:4596   */\n      dup6\n        /* \"#utility.yul\":4580:4586   */\n      dup3\n        /* \"#utility.yul\":4569:4578   */\n      dup7\n        /* \"#utility.yul\":4565:4587   */\n      add\n        /* \"#utility.yul\":4519:4597   */\n      tag_372\n      jump\t// in\n    tag_407:\n        /* \"#utility.yul\":4509:4597   */\n      swap3\n      pop\n        /* \"#utility.yul\":4372:4607   */\n      pop\n        /* \"#utility.yul\":4674:4676   */\n      0x20\n        /* \"#utility.yul\":4663:4672   */\n      dup4\n        /* \"#utility.yul\":4659:4677   */\n      add\n        /* \"#utility.yul\":4646:4678   */\n      calldataload\n        /* \"#utility.yul\":4705:4723   */\n      0xffffffffffffffff\n        /* \"#utility.yul\":4697:4703   */\n      dup2\n        /* \"#utility.yul\":4694:4724   */\n      gt\n        /* \"#utility.yul\":4691:4693   */\n      iszero\n      tag_408\n      jumpi\n        /* \"#utility.yul\":4737:4738   */\n      0x00\n        /* \"#utility.yul\":4734:4735   */\n      dup1\n        /* \"#utility.yul\":4727:4739   */\n      revert\n        /* \"#utility.yul\":4691:4693   */\n    tag_408:\n        /* \"#utility.yul\":4765:4853   */\n      tag_409\n        /* \"#utility.yul\":4845:4852   */\n      dup6\n        /* \"#utility.yul\":4836:4842   */\n      dup3\n        /* \"#utility.yul\":4825:4834   */\n      dup7\n        /* \"#utility.yul\":4821:4843   */\n      add\n        /* \"#utility.yul\":4765:4853   */\n      tag_368\n      jump\t// in\n    tag_409:\n        /* \"#utility.yul\":4755:4853   */\n      swap2\n      pop\n        /* \"#utility.yul\":4617:4863   */\n      pop\n        /* \"#utility.yul\":4300:4870   */\n      swap3\n      pop\n      swap3\n      swap1\n      pop\n      jump\t// out\n        /* \"#utility.yul\":4876:5154   */\n    tag_227:\n      0x00\n        /* \"#utility.yul\":4992:4994   */\n      0x20\n        /* \"#utility.yul\":4980:4989   */\n      dup3\n        /* \"#utility.yul\":4971:4978   */\n      dup5\n        /* \"#utility.yul\":4967:4990   */\n      sub\n        /* \"#utility.yul\":4963:4995   */\n      slt\n        /* \"#utility.yul\":4960:4962   */\n      iszero\n      tag_411\n      jumpi\n        /* \"#utility.yul\":5008:5009   */\n      0x00\n        /* \"#utility.yul\":5005:5006   */\n      dup1\n        /* \"#utility.yul\":4998:5010   */\n      revert\n        /* \"#utility.yul\":4960:4962   */\n    tag_411:\n        /* \"#utility.yul\":5051:5052   */\n      0x00\n        /* \"#utility.yul\":5076:5137   */\n      tag_412\n        /* \"#utility.yul\":5129:5136   */\n      dup5\n        /* \"#utility.yul\":5120:5126   */\n      dup3\n        /* \"#utility.yul\":5109:5118   */\n      dup6\n        /* \"#utility.yul\":5105:5127   */\n      add\n        /* \"#utility.yul\":5076:5137   */\n      tag_376\n      jump\t// in\n    tag_412:\n        /* \"#utility.yul\":5066:5137   */\n      swap2\n      pop\n        /* \"#utility.yul\":5022:5147   */\n      pop\n        /* \"#utility.yul\":4950:5154   */\n      swap3\n      swap2\n      pop\n      pop\n      jump\t// out\n        /* \"#utility.yul\":5160:5422   */\n    tag_48:\n      0x00\n        /* \"#utility.yul\":5268:5270   */\n      0x20\n        /* \"#utility.yul\":5256:5265   */\n      dup3\n        /* \"#utility.yul\":5247:5254   */\n      dup5\n        /* \"#utility.yul\":5243:5266   */\n      sub\n        /* \"#utility.yul\":5239:5271   */\n      slt\n        /* \"#utility.yul\":5236:5238   */\n      iszero\n      tag_414\n      jumpi\n        /* \"#utility.yul\":5284:5285   */\n      0x00\n        /* \"#utility.yul\":5281:5282   */\n      dup1\n        /* \"#utility.yul\":5274:5286   */\n      revert\n        /* \"#utility.yul\":5236:5238   */\n    tag_414:\n        /* \"#utility.yul\":5327:5328   */\n      0x00\n        /* \"#utility.yul\":5352:5405   */\n      tag_415\n        /* \"#utility.yul\":5397:5404   */\n      dup5\n        /* \"#utility.yul\":5388:5394   */\n      dup3\n        /* \"#utility.yul\":5377:5386   */\n      dup6\n        /* \"#utility.yul\":5373:5395   */\n      add\n        /* \"#utility.yul\":5352:5405   */\n      tag_380\n      jump\t// in\n    tag_415:\n        /* \"#utility.yul\":5342:5405   */\n      swap2\n      pop\n        /* \"#utility.yul\":5298:5415   */\n      pop\n        /* \"#utility.yul\":5226:5422   */\n      swap3\n      swap2\n      pop\n      pop\n      jump\t// out\n        /* \"#utility.yul\":5428:5835   */\n    tag_54:\n      0x00\n      dup1\n        /* \"#utility.yul\":5553:5555   */\n      0x40\n        /* \"#utility.yul\":5541:5550   */\n      dup4\n        /* \"#utility.yul\":5532:5539   */\n      dup6\n        /* \"#utility.yul\":5528:5551   */\n      sub\n        /* \"#utility.yul\":5524:5556   */\n      slt\n        /* \"#utility.yul\":5521:5523   */\n      iszero\n      tag_417\n      jumpi\n        /* \"#utility.yul\":5569:5570   */\n      0x00\n        /* \"#utility.yul\":5566:5567   */\n      dup1\n        /* \"#utility.yul\":5559:5571   */\n      revert\n        /* \"#utility.yul\":5521:5523   */\n    tag_417:\n        /* \"#utility.yul\":5612:5613   */\n      0x00\n        /* \"#utility.yul\":5637:5690   */\n      tag_418\n        /* \"#utility.yul\":5682:5689   */\n      dup6\n        /* \"#utility.yul\":5673:5679   */\n      dup3\n        /* \"#utility.yul\":5662:5671   */\n      dup7\n        /* \"#utility.yul\":5658:5680   */\n      add\n        /* \"#utility.yul\":5637:5690   */\n      tag_380\n      jump\t// in\n    tag_418:\n        /* \"#utility.yul\":5627:5690   */\n      swap3\n      pop\n        /* \"#utility.yul\":5583:5700   */\n      pop\n        /* \"#utility.yul\":5739:5741   */\n      0x20\n        /* \"#utility.yul\":5765:5818   */\n      tag_419\n        /* \"#utility.yul\":5810:5817   */\n      dup6\n        /* \"#utility.yul\":5801:5807   */\n      dup3\n        /* \"#utility.yul\":5790:5799   */\n      dup7\n        /* \"#utility.yul\":5786:5808   */\n      add\n        /* \"#utility.yul\":5765:5818   */\n      tag_364\n      jump\t// in\n    tag_419:\n        /* \"#utility.yul\":5755:5818   */\n      swap2\n      pop\n        /* \"#utility.yul\":5710:5828   */\n      pop\n        /* \"#utility.yul\":5511:5835   */\n      swap3\n      pop\n      swap3\n      swap1\n      pop\n      jump\t// out\n        /* \"#utility.yul\":5841:6101   */\n    tag_36:\n      0x00\n        /* \"#utility.yul\":5948:5950   */\n      0x20\n        /* \"#utility.yul\":5936:5945   */\n      dup3\n        /* \"#utility.yul\":5927:5934   */\n      dup5\n        /* \"#utility.yul\":5923:5946   */\n      sub\n        /* \"#utility.yul\":5919:5951   */\n      slt\n        /* \"#utility.yul\":5916:5918   */\n      iszero\n      tag_421\n      jumpi\n        /* \"#utility.yul\":5964:5965   */\n      0x00\n        /* \"#utility.yul\":5961:5962   */\n      dup1\n        /* \"#utility.yul\":5954:5966   */\n      revert\n        /* \"#utility.yul\":5916:5918   */\n    tag_421:\n        /* \"#utility.yul\":6007:6008   */\n      0x00\n        /* \"#utility.yul\":6032:6084   */\n      tag_422\n        /* \"#utility.yul\":6076:6083   */\n      dup5\n        /* \"#utility.yul\":6067:6073   */\n      dup3\n        /* \"#utility.yul\":6056:6065   */\n      dup6\n        /* \"#utility.yul\":6052:6074   */\n      add\n        /* \"#utility.yul\":6032:6084   */\n      tag_384\n      jump\t// in\n    tag_422:\n        /* \"#utility.yul\":6022:6084   */\n      swap2\n      pop\n        /* \"#utility.yul\":5978:6094   */\n      pop\n        /* \"#utility.yul\":5906:6101   */\n      swap3\n      swap2\n      pop\n      pop\n      jump\t// out\n        /* \"#utility.yul\":6107:6369   */\n    tag_42:\n      0x00\n        /* \"#utility.yul\":6215:6217   */\n      0x20\n        /* \"#utility.yul\":6203:6212   */\n      dup3\n        /* \"#utility.yul\":6194:6201   */\n      dup5\n        /* \"#utility.yul\":6190:6213   */\n      sub\n        /* \"#utility.yul\":6186:6218   */\n      slt\n        /* \"#utility.yul\":6183:6185   */\n      iszero\n      tag_424\n      jumpi\n        /* \"#utility.yul\":6231:6232   */\n      0x00\n        /* \"#utility.yul\":6228:6229   */\n      dup1\n        /* \"#utility.yul\":6221:6233   */\n      revert\n        /* \"#utility.yul\":6183:6185   */\n    tag_424:\n        /* \"#utility.yul\":6274:6275   */\n      0x00\n        /* \"#utility.yul\":6299:6352   */\n      tag_425\n        /* \"#utility.yul\":6344:6351   */\n      dup5\n        /* \"#utility.yul\":6335:6341   */\n      dup3\n        /* \"#utility.yul\":6324:6333   */\n      dup6\n        /* \"#utility.yul\":6320:6342   */\n      add\n        /* \"#utility.yul\":6299:6352   */\n      tag_355\n      jump\t// in\n    tag_425:\n        /* \"#utility.yul\":6289:6352   */\n      swap2\n      pop\n        /* \"#utility.yul\":6245:6362   */\n      pop\n        /* \"#utility.yul\":6173:6369   */\n      swap3\n      swap2\n      pop\n      pop\n      jump\t// out\n        /* \"#utility.yul\":6375:6659   */\n    tag_164:\n      0x00\n        /* \"#utility.yul\":6494:6496   */\n      0x20\n        /* \"#utility.yul\":6482:6491   */\n      dup3\n        /* \"#utility.yul\":6473:6480   */\n      dup5\n        /* \"#utility.yul\":6469:6492   */\n      sub\n        /* \"#utility.yul\":6465:6497   */\n      slt\n        /* \"#utility.yul\":6462:6464   */\n      iszero\n      tag_427\n      jumpi\n        /* \"#utility.yul\":6510:6511   */\n      0x00\n        /* \"#utility.yul\":6507:6508   */\n      dup1\n        /* \"#utility.yul\":6500:6512   */\n      revert\n        /* \"#utility.yul\":6462:6464   */\n    tag_427:\n        /* \"#utility.yul\":6553:6554   */\n      0x00\n        /* \"#utility.yul\":6578:6642   */\n      tag_428\n        /* \"#utility.yul\":6634:6641   */\n      dup5\n        /* \"#utility.yul\":6625:6631   */\n      dup3\n        /* \"#utility.yul\":6614:6623   */\n      dup6\n        /* \"#utility.yul\":6610:6632   */\n      add\n        /* \"#utility.yul\":6578:6642   */\n      tag_394\n      jump\t// in\n    tag_428:\n        /* \"#utility.yul\":6568:6642   */\n      swap2\n      pop\n        /* \"#utility.yul\":6524:6652   */\n      pop\n        /* \"#utility.yul\":6452:6659   */\n      swap3\n      swap2\n      pop\n      pop\n      jump\t// out\n        /* \"#utility.yul\":6665:6861   */\n    tag_429:\n      0x00\n        /* \"#utility.yul\":6789:6855   */\n      tag_431\n        /* \"#utility.yul\":6851:6854   */\n      dup4\n        /* \"#utility.yul\":6843:6849   */\n      dup4\n        /* \"#utility.yul\":6789:6855   */\n      tag_432\n      jump\t// in\n    tag_431:\n        /* \"#utility.yul\":6775:6855   */\n      swap1\n      pop\n        /* \"#utility.yul\":6765:6861   */\n      swap3\n      swap2\n      pop\n      pop\n      jump\t// out\n        /* \"#utility.yul\":6867:7046   */\n    tag_433:\n      0x00\n        /* \"#utility.yul\":6957:7003   */\n      tag_435\n        /* \"#utility.yul\":6999:7002   */\n      dup4\n        /* \"#utility.yul\":6991:6997   */\n      dup4\n        /* \"#utility.yul\":6957:7003   */\n      tag_436\n      jump\t// in\n    tag_435:\n        /* \"#utility.yul\":7035:7039   */\n      0x20\n        /* \"#utility.yul\":7030:7033   */\n      dup4\n        /* \"#utility.yul\":7026:7040   */\n      add\n        /* \"#utility.yul\":7012:7040   */\n      swap1\n      pop\n        /* \"#utility.yul\":6947:7046   */\n      swap3\n      swap2\n      pop\n      pop\n      jump\t// out\n        /* \"#utility.yul\":7052:7170   */\n    tag_437:\n        /* \"#utility.yul\":7139:7163   */\n      tag_439\n        /* \"#utility.yul\":7157:7162   */\n      dup2\n        /* \"#utility.yul\":7139:7163   */\n      tag_440\n      jump\t// in\n    tag_439:\n        /* \"#utility.yul\":7134:7137   */\n      dup3\n        /* \"#utility.yul\":7127:7164   */\n      mstore\n        /* \"#utility.yul\":7117:7170   */\n      pop\n      pop\n      jump\t// out\n        /* \"#utility.yul\":7176:7333   */\n    tag_441:\n        /* \"#utility.yul\":7281:7326   */\n      tag_443\n        /* \"#utility.yul\":7301:7325   */\n      tag_444\n        /* \"#utility.yul\":7319:7324   */\n      dup3\n        /* \"#utility.yul\":7301:7325   */\n      tag_440\n      jump\t// in\n    tag_444:\n        /* \"#utility.yul\":7281:7326   */\n      tag_445\n      jump\t// in\n    tag_443:\n        /* \"#utility.yul\":7276:7279   */\n      dup3\n        /* \"#utility.yul\":7269:7327   */\n      mstore\n        /* \"#utility.yul\":7259:7333   */\n      pop\n      pop\n      jump\t// out\n        /* \"#utility.yul\":7367:8358   */\n    tag_446:\n      0x00\n        /* \"#utility.yul\":7535:7599   */\n      tag_448\n        /* \"#utility.yul\":7593:7598   */\n      dup3\n        /* \"#utility.yul\":7535:7599   */\n      tag_449\n      jump\t// in\n    tag_448:\n        /* \"#utility.yul\":7615:7711   */\n      tag_450\n        /* \"#utility.yul\":7704:7710   */\n      dup2\n        /* \"#utility.yul\":7699:7702   */\n      dup6\n        /* \"#utility.yul\":7615:7711   */\n      tag_451\n      jump\t// in\n    tag_450:\n        /* \"#utility.yul\":7608:7711   */\n      swap4\n      pop\n        /* \"#utility.yul\":7737:7740   */\n      dup4\n        /* \"#utility.yul\":7782:7786   */\n      0x20\n        /* \"#utility.yul\":7774:7780   */\n      dup3\n        /* \"#utility.yul\":7770:7787   */\n      mul\n        /* \"#utility.yul\":7765:7768   */\n      dup6\n        /* \"#utility.yul\":7761:7788   */\n      add\n        /* \"#utility.yul\":7812:7878   */\n      tag_452\n        /* \"#utility.yul\":7872:7877   */\n      dup6\n        /* \"#utility.yul\":7812:7878   */\n      tag_453\n      jump\t// in\n    tag_452:\n        /* \"#utility.yul\":7901:7908   */\n      dup1\n        /* \"#utility.yul\":7932:7933   */\n      0x00\n        /* \"#utility.yul\":7917:8313   */\n    tag_454:\n        /* \"#utility.yul\":7942:7948   */\n      dup6\n        /* \"#utility.yul\":7939:7940   */\n      dup2\n        /* \"#utility.yul\":7936:7949   */\n      lt\n        /* \"#utility.yul\":7917:8313   */\n      iszero\n      tag_456\n      jumpi\n        /* \"#utility.yul\":8013:8022   */\n      dup5\n        /* \"#utility.yul\":8007:8011   */\n      dup5\n        /* \"#utility.yul\":8003:8023   */\n      sub\n        /* \"#utility.yul\":7998:8001   */\n      dup10\n        /* \"#utility.yul\":7991:8024   */\n      mstore\n        /* \"#utility.yul\":8064:8070   */\n      dup2\n        /* \"#utility.yul\":8058:8071   */\n      mload\n        /* \"#utility.yul\":8092:8176   */\n      tag_457\n        /* \"#utility.yul\":8171:8175   */\n      dup6\n        /* \"#utility.yul\":8156:8169   */\n      dup3\n        /* \"#utility.yul\":8092:8176   */\n      tag_429\n      jump\t// in\n    tag_457:\n        /* \"#utility.yul\":8084:8176   */\n      swap5\n      pop\n        /* \"#utility.yul\":8199:8269   */\n      tag_458\n        /* \"#utility.yul\":8262:8268   */\n      dup4\n        /* \"#utility.yul\":8199:8269   */\n      tag_459\n      jump\t// in\n    tag_458:\n        /* \"#utility.yul\":8189:8269   */\n      swap3\n      pop\n        /* \"#utility.yul\":8298:8302   */\n      0x20\n        /* \"#utility.yul\":8293:8296   */\n      dup11\n        /* \"#utility.yul\":8289:8303   */\n      add\n        /* \"#utility.yul\":8282:8303   */\n      swap10\n      pop\n        /* \"#utility.yul\":7977:8313   */\n      pop\n        /* \"#utility.yul\":7964:7965   */\n      0x01\n        /* \"#utility.yul\":7961:7962   */\n      dup2\n        /* \"#utility.yul\":7957:7966   */\n      add\n        /* \"#utility.yul\":7952:7966   */\n      swap1\n      pop\n        /* \"#utility.yul\":7917:8313   */\n      jump(tag_454)\n    tag_456:\n        /* \"#utility.yul\":7921:7935   */\n      pop\n        /* \"#utility.yul\":8329:8333   */\n      dup3\n        /* \"#utility.yul\":8322:8333   */\n      swap8\n      pop\n        /* \"#utility.yul\":8349:8352   */\n      dup8\n        /* \"#utility.yul\":8342:8352   */\n      swap6\n      pop\n        /* \"#utility.yul\":7511:8358   */\n      pop\n      pop\n      pop\n      pop\n      pop\n      swap3\n      swap2\n      pop\n      pop\n      jump\t// out\n        /* \"#utility.yul\":8394:9126   */\n    tag_460:\n      0x00\n        /* \"#utility.yul\":8542:8596   */\n      tag_462\n        /* \"#utility.yul\":8590:8595   */\n      dup3\n        /* \"#utility.yul\":8542:8596   */\n      tag_463\n      jump\t// in\n    tag_462:\n        /* \"#utility.yul\":8612:8698   */\n      tag_464\n        /* \"#utility.yul\":8691:8697   */\n      dup2\n        /* \"#utility.yul\":8686:8689   */\n      dup6\n        /* \"#utility.yul\":8612:8698   */\n      tag_465\n      jump\t// in\n    tag_464:\n        /* \"#utility.yul\":8605:8698   */\n      swap4\n      pop\n        /* \"#utility.yul\":8722:8778   */\n      tag_466\n        /* \"#utility.yul\":8772:8777   */\n      dup4\n        /* \"#utility.yul\":8722:8778   */\n      tag_467\n      jump\t// in\n    tag_466:\n        /* \"#utility.yul\":8801:8808   */\n      dup1\n        /* \"#utility.yul\":8832:8833   */\n      0x00\n        /* \"#utility.yul\":8817:9101   */\n    tag_468:\n        /* \"#utility.yul\":8842:8848   */\n      dup4\n        /* \"#utility.yul\":8839:8840   */\n      dup2\n        /* \"#utility.yul\":8836:8849   */\n      lt\n        /* \"#utility.yul\":8817:9101   */\n      iszero\n      tag_470\n      jumpi\n        /* \"#utility.yul\":8918:8924   */\n      dup2\n        /* \"#utility.yul\":8912:8925   */\n      mload\n        /* \"#utility.yul\":8945:9008   */\n      tag_471\n        /* \"#utility.yul\":9004:9007   */\n      dup9\n        /* \"#utility.yul\":8989:9002   */\n      dup3\n        /* \"#utility.yul\":8945:9008   */\n      tag_433\n      jump\t// in\n    tag_471:\n        /* \"#utility.yul\":8938:9008   */\n      swap8\n      pop\n        /* \"#utility.yul\":9031:9091   */\n      tag_472\n        /* \"#utility.yul\":9084:9090   */\n      dup4\n        /* \"#utility.yul\":9031:9091   */\n      tag_473\n      jump\t// in\n    tag_472:\n        /* \"#utility.yul\":9021:9091   */\n      swap3\n      pop\n        /* \"#utility.yul\":8877:9101   */\n      pop\n        /* \"#utility.yul\":8864:8865   */\n      0x01\n        /* \"#utility.yul\":8861:8862   */\n      dup2\n        /* \"#utility.yul\":8857:8866   */\n      add\n        /* \"#utility.yul\":8852:8866   */\n      swap1\n      pop\n        /* \"#utility.yul\":8817:9101   */\n      jump(tag_468)\n    tag_470:\n        /* \"#utility.yul\":8821:8835   */\n      pop\n        /* \"#utility.yul\":9117:9120   */\n      dup6\n        /* \"#utility.yul\":9110:9120   */\n      swap4\n      pop\n        /* \"#utility.yul\":8518:9126   */\n      pop\n      pop\n      pop\n      swap3\n      swap2\n      pop\n      pop\n      jump\t// out\n        /* \"#utility.yul\":9132:9241   */\n    tag_474:\n        /* \"#utility.yul\":9213:9234   */\n      tag_476\n        /* \"#utility.yul\":9228:9233   */\n      dup2\n        /* \"#utility.yul\":9213:9234   */\n      tag_477\n      jump\t// in\n    tag_476:\n        /* \"#utility.yul\":9208:9211   */\n      dup3\n        /* \"#utility.yul\":9201:9235   */\n      mstore\n        /* \"#utility.yul\":9191:9241   */\n      pop\n      pop\n      jump\t// out\n        /* \"#utility.yul\":9247:9365   */\n    tag_478:\n        /* \"#utility.yul\":9334:9358   */\n      tag_480\n        /* \"#utility.yul\":9352:9357   */\n      dup2\n        /* \"#utility.yul\":9334:9358   */\n      tag_481\n      jump\t// in\n    tag_480:\n        /* \"#utility.yul\":9329:9332   */\n      dup3\n        /* \"#utility.yul\":9322:9359   */\n      mstore\n        /* \"#utility.yul\":9312:9365   */\n      pop\n      pop\n      jump\t// out\n        /* \"#utility.yul\":9371:9542   */\n    tag_482:\n        /* \"#utility.yul\":9478:9535   */\n      tag_484\n        /* \"#utility.yul\":9529:9534   */\n      dup2\n        /* \"#utility.yul\":9478:9535   */\n      tag_485\n      jump\t// in\n    tag_484:\n        /* \"#utility.yul\":9473:9476   */\n      dup3\n        /* \"#utility.yul\":9466:9536   */\n      mstore\n        /* \"#utility.yul\":9456:9542   */\n      pop\n      pop\n      jump\t// out\n        /* \"#utility.yul\":9548:9739   */\n    tag_486:\n        /* \"#utility.yul\":9665:9732   */\n      tag_488\n        /* \"#utility.yul\":9726:9731   */\n      dup2\n        /* \"#utility.yul\":9665:9732   */\n      tag_489\n      jump\t// in\n    tag_488:\n        /* \"#utility.yul\":9660:9663   */\n      dup3\n        /* \"#utility.yul\":9653:9733   */\n      mstore\n        /* \"#utility.yul\":9643:9739   */\n      pop\n      pop\n      jump\t// out\n        /* \"#utility.yul\":9745:9916   */\n    tag_490:\n        /* \"#utility.yul\":9852:9909   */\n      tag_492\n        /* \"#utility.yul\":9903:9908   */\n      dup2\n        /* \"#utility.yul\":9852:9909   */\n      tag_493\n      jump\t// in\n    tag_492:\n        /* \"#utility.yul\":9847:9850   */\n      dup3\n        /* \"#utility.yul\":9840:9910   */\n      mstore\n        /* \"#utility.yul\":9830:9916   */\n      pop\n      pop\n      jump\t// out\n        /* \"#utility.yul\":9922:10266   */\n    tag_432:\n      0x00\n        /* \"#utility.yul\":10028:10067   */\n      tag_495\n        /* \"#utility.yul\":10061:10066   */\n      dup3\n        /* \"#utility.yul\":10028:10067   */\n      tag_496\n      jump\t// in\n    tag_495:\n        /* \"#utility.yul\":10083:10144   */\n      tag_497\n        /* \"#utility.yul\":10137:10143   */\n      dup2\n        /* \"#utility.yul\":10132:10135   */\n      dup6\n        /* \"#utility.yul\":10083:10144   */\n      tag_498\n      jump\t// in\n    tag_497:\n        /* \"#utility.yul\":10076:10144   */\n      swap4\n      pop\n        /* \"#utility.yul\":10153:10205   */\n      tag_499\n        /* \"#utility.yul\":10198:10204   */\n      dup2\n        /* \"#utility.yul\":10193:10196   */\n      dup6\n        /* \"#utility.yul\":10186:10190   */\n      0x20\n        /* \"#utility.yul\":10179:10184   */\n      dup7\n        /* \"#utility.yul\":10175:10191   */\n      add\n        /* \"#utility.yul\":10153:10205   */\n      tag_500\n      jump\t// in\n    tag_499:\n        /* \"#utility.yul\":10230:10259   */\n      tag_501\n        /* \"#utility.yul\":10252:10258   */\n      dup2\n        /* \"#utility.yul\":10230:10259   */\n      tag_502\n      jump\t// in\n    tag_501:\n        /* \"#utility.yul\":10225:10228   */\n      dup5\n        /* \"#utility.yul\":10221:10260   */\n      add\n        /* \"#utility.yul\":10214:10260   */\n      swap2\n      pop\n        /* \"#utility.yul\":10004:10266   */\n      pop\n      swap3\n      swap2\n      pop\n      pop\n      jump\t// out\n        /* \"#utility.yul\":10272:10636   */\n    tag_503:\n      0x00\n        /* \"#utility.yul\":10388:10427   */\n      tag_505\n        /* \"#utility.yul\":10421:10426   */\n      dup3\n        /* \"#utility.yul\":10388:10427   */\n      tag_496\n      jump\t// in\n    tag_505:\n        /* \"#utility.yul\":10443:10514   */\n      tag_506\n        /* \"#utility.yul\":10507:10513   */\n      dup2\n        /* \"#utility.yul\":10502:10505   */\n      dup6\n        /* \"#utility.yul\":10443:10514   */\n      tag_507\n      jump\t// in\n    tag_506:\n        /* \"#utility.yul\":10436:10514   */\n      swap4\n      pop\n        /* \"#utility.yul\":10523:10575   */\n      tag_508\n        /* \"#utility.yul\":10568:10574   */\n      dup2\n        /* \"#utility.yul\":10563:10566   */\n      dup6\n        /* \"#utility.yul\":10556:10560   */\n      0x20\n        /* \"#utility.yul\":10549:10554   */\n      dup7\n        /* \"#utility.yul\":10545:10561   */\n      add\n        /* \"#utility.yul\":10523:10575   */\n      tag_500\n      jump\t// in\n    tag_508:\n        /* \"#utility.yul\":10600:10629   */\n      tag_509\n        /* \"#utility.yul\":10622:10628   */\n      dup2\n        /* \"#utility.yul\":10600:10629   */\n      tag_502\n      jump\t// in\n    tag_509:\n        /* \"#utility.yul\":10595:10598   */\n      dup5\n        /* \"#utility.yul\":10591:10630   */\n      add\n        /* \"#utility.yul\":10584:10630   */\n      swap2\n      pop\n        /* \"#utility.yul\":10364:10636   */\n      pop\n      swap3\n      swap2\n      pop\n      pop\n      jump\t// out\n        /* \"#utility.yul\":10642:11019   */\n    tag_510:\n      0x00\n        /* \"#utility.yul\":10776:10815   */\n      tag_512\n        /* \"#utility.yul\":10809:10814   */\n      dup3\n        /* \"#utility.yul\":10776:10815   */\n      tag_496\n      jump\t// in\n    tag_512:\n        /* \"#utility.yul\":10831:10920   */\n      tag_513\n        /* \"#utility.yul\":10913:10919   */\n      dup2\n        /* \"#utility.yul\":10908:10911   */\n      dup6\n        /* \"#utility.yul\":10831:10920   */\n      tag_514\n      jump\t// in\n    tag_513:\n        /* \"#utility.yul\":10824:10920   */\n      swap4\n      pop\n        /* \"#utility.yul\":10929:10981   */\n      tag_515\n        /* \"#utility.yul\":10974:10980   */\n      dup2\n        /* \"#utility.yul\":10969:10972   */\n      dup6\n        /* \"#utility.yul\":10962:10966   */\n      0x20\n        /* \"#utility.yul\":10955:10960   */\n      dup7\n        /* \"#utility.yul\":10951:10967   */\n      add\n        /* \"#utility.yul\":10929:10981   */\n      tag_500\n      jump\t// in\n    tag_515:\n        /* \"#utility.yul\":11006:11012   */\n      dup1\n        /* \"#utility.yul\":11001:11004   */\n      dup5\n        /* \"#utility.yul\":10997:11013   */\n      add\n        /* \"#utility.yul\":10990:11013   */\n      swap2\n      pop\n        /* \"#utility.yul\":10752:11019   */\n      pop\n      swap3\n      swap2\n      pop\n      pop\n      jump\t// out\n        /* \"#utility.yul\":11025:11391   */\n    tag_516:\n      0x00\n        /* \"#utility.yul\":11188:11255   */\n      tag_518\n        /* \"#utility.yul\":11252:11254   */\n      0x20\n        /* \"#utility.yul\":11247:11250   */\n      dup4\n        /* \"#utility.yul\":11188:11255   */\n      tag_507\n      jump\t// in\n    tag_518:\n        /* \"#utility.yul\":11181:11255   */\n      swap2\n      pop\n        /* \"#utility.yul\":11264:11357   */\n      tag_519\n        /* \"#utility.yul\":11353:11356   */\n      dup3\n        /* \"#utility.yul\":11264:11357   */\n      tag_520\n      jump\t// in\n    tag_519:\n        /* \"#utility.yul\":11382:11384   */\n      0x20\n        /* \"#utility.yul\":11377:11380   */\n      dup3\n        /* \"#utility.yul\":11373:11385   */\n      add\n        /* \"#utility.yul\":11366:11385   */\n      swap1\n      pop\n        /* \"#utility.yul\":11171:11391   */\n      swap2\n      swap1\n      pop\n      jump\t// out\n        /* \"#utility.yul\":11397:11797   */\n    tag_521:\n      0x00\n        /* \"#utility.yul\":11578:11662   */\n      tag_523\n        /* \"#utility.yul\":11660:11661   */\n      0x08\n        /* \"#utility.yul\":11655:11658   */\n      dup4\n        /* \"#utility.yul\":11578:11662   */\n      tag_514\n      jump\t// in\n    tag_523:\n        /* \"#utility.yul\":11571:11662   */\n      swap2\n      pop\n        /* \"#utility.yul\":11671:11764   */\n      tag_524\n        /* \"#utility.yul\":11760:11763   */\n      dup3\n        /* \"#utility.yul\":11671:11764   */\n      tag_525\n      jump\t// in\n    tag_524:\n        /* \"#utility.yul\":11789:11790   */\n      0x08\n        /* \"#utility.yul\":11784:11787   */\n      dup3\n        /* \"#utility.yul\":11780:11791   */\n      add\n        /* \"#utility.yul\":11773:11791   */\n      swap1\n      pop\n        /* \"#utility.yul\":11561:11797   */\n      swap2\n      swap1\n      pop\n      jump\t// out\n        /* \"#utility.yul\":11803:12169   */\n    tag_526:\n      0x00\n        /* \"#utility.yul\":11966:12033   */\n      tag_528\n        /* \"#utility.yul\":12030:12032   */\n      0x36\n        /* \"#utility.yul\":12025:12028   */\n      dup4\n        /* \"#utility.yul\":11966:12033   */\n      tag_507\n      jump\t// in\n    tag_528:\n        /* \"#utility.yul\":11959:12033   */\n      swap2\n      pop\n        /* \"#utility.yul\":12042:12135   */\n      tag_529\n        /* \"#utility.yul\":12131:12134   */\n      dup3\n        /* \"#utility.yul\":12042:12135   */\n      tag_530\n      jump\t// in\n    tag_529:\n        /* \"#utility.yul\":12160:12162   */\n      0x40\n        /* \"#utility.yul\":12155:12158   */\n      dup3\n        /* \"#utility.yul\":12151:12163   */\n      add\n        /* \"#utility.yul\":12144:12163   */\n      swap1\n      pop\n        /* \"#utility.yul\":11949:12169   */\n      swap2\n      swap1\n      pop\n      jump\t// out\n        /* \"#utility.yul\":12175:12541   */\n    tag_531:\n      0x00\n        /* \"#utility.yul\":12338:12405   */\n      tag_533\n        /* \"#utility.yul\":12402:12404   */\n      0x1b\n        /* \"#utility.yul\":12397:12400   */\n      dup4\n        /* \"#utility.yul\":12338:12405   */\n      tag_507\n      jump\t// in\n    tag_533:\n        /* \"#utility.yul\":12331:12405   */\n      swap2\n      pop\n        /* \"#utility.yul\":12414:12507   */\n      tag_534\n        /* \"#utility.yul\":12503:12506   */\n      dup3\n        /* \"#utility.yul\":12414:12507   */\n      tag_535\n      jump\t// in\n    tag_534:\n        /* \"#utility.yul\":12532:12534   */\n      0x20\n        /* \"#utility.yul\":12527:12530   */\n      dup3\n        /* \"#utility.yul\":12523:12535   */\n      add\n        /* \"#utility.yul\":12516:12535   */\n      swap1\n      pop\n        /* \"#utility.yul\":12321:12541   */\n      swap2\n      swap1\n      pop\n      jump\t// out\n        /* \"#utility.yul\":12547:12913   */\n    tag_536:\n      0x00\n        /* \"#utility.yul\":12710:12777   */\n      tag_538\n        /* \"#utility.yul\":12774:12776   */\n      0x23\n        /* \"#utility.yul\":12769:12772   */\n      dup4\n        /* \"#utility.yul\":12710:12777   */\n      tag_507\n      jump\t// in\n    tag_538:\n        /* \"#utility.yul\":12703:12777   */\n      swap2\n      pop\n        /* \"#utility.yul\":12786:12879   */\n      tag_539\n        /* \"#utility.yul\":12875:12878   */\n      dup3\n        /* \"#utility.yul\":12786:12879   */\n      tag_540\n      jump\t// in\n    tag_539:\n        /* \"#utility.yul\":12904:12906   */\n      0x40\n        /* \"#utility.yul\":12899:12902   */\n      dup3\n        /* \"#utility.yul\":12895:12907   */\n      add\n        /* \"#utility.yul\":12888:12907   */\n      swap1\n      pop\n        /* \"#utility.yul\":12693:12913   */\n      swap2\n      swap1\n      pop\n      jump\t// out\n        /* \"#utility.yul\":12919:13319   */\n    tag_541:\n      0x00\n        /* \"#utility.yul\":13100:13184   */\n      tag_543\n        /* \"#utility.yul\":13182:13183   */\n      0x01\n        /* \"#utility.yul\":13177:13180   */\n      dup4\n        /* \"#utility.yul\":13100:13184   */\n      tag_514\n      jump\t// in\n    tag_543:\n        /* \"#utility.yul\":13093:13184   */\n      swap2\n      pop\n        /* \"#utility.yul\":13193:13286   */\n      tag_544\n        /* \"#utility.yul\":13282:13285   */\n      dup3\n        /* \"#utility.yul\":13193:13286   */\n      tag_545\n      jump\t// in\n    tag_544:\n        /* \"#utility.yul\":13311:13312   */\n      0x01\n        /* \"#utility.yul\":13306:13309   */\n      dup3\n        /* \"#utility.yul\":13302:13313   */\n      add\n        /* \"#utility.yul\":13295:13313   */\n      swap1\n      pop\n        /* \"#utility.yul\":13083:13319   */\n      swap2\n      swap1\n      pop\n      jump\t// out\n        /* \"#utility.yul\":13325:13727   */\n    tag_546:\n      0x00\n        /* \"#utility.yul\":13506:13591   */\n      tag_548\n        /* \"#utility.yul\":13588:13590   */\n      0x30\n        /* \"#utility.yul\":13583:13586   */\n      dup4\n        /* \"#utility.yul\":13506:13591   */\n      tag_514\n      jump\t// in\n    tag_548:\n        /* \"#utility.yul\":13499:13591   */\n      swap2\n      pop\n        /* \"#utility.yul\":13600:13693   */\n      tag_549\n        /* \"#utility.yul\":13689:13692   */\n      dup3\n        /* \"#utility.yul\":13600:13693   */\n      tag_550\n      jump\t// in\n    tag_549:\n        /* \"#utility.yul\":13718:13720   */\n      0x30\n        /* \"#utility.yul\":13713:13716   */\n      dup3\n        /* \"#utility.yul\":13709:13721   */\n      add\n        /* \"#utility.yul\":13702:13721   */\n      swap1\n      pop\n        /* \"#utility.yul\":13489:13727   */\n      swap2\n      swap1\n      pop\n      jump\t// out\n        /* \"#utility.yul\":13733:14099   */\n    tag_551:\n      0x00\n        /* \"#utility.yul\":13896:13963   */\n      tag_553\n        /* \"#utility.yul\":13960:13962   */\n      0x1f\n        /* \"#utility.yul\":13955:13958   */\n      dup4\n        /* \"#utility.yul\":13896:13963   */\n      tag_507\n      jump\t// in\n    tag_553:\n        /* \"#utility.yul\":13889:13963   */\n      swap2\n      pop\n        /* \"#utility.yul\":13972:14065   */\n      tag_554\n        /* \"#utility.yul\":14061:14064   */\n      dup3\n        /* \"#utility.yul\":13972:14065   */\n      tag_555\n      jump\t// in\n    tag_554:\n        /* \"#utility.yul\":14090:14092   */\n      0x20\n        /* \"#utility.yul\":14085:14088   */\n      dup3\n        /* \"#utility.yul\":14081:14093   */\n      add\n        /* \"#utility.yul\":14074:14093   */\n      swap1\n      pop\n        /* \"#utility.yul\":13879:14099   */\n      swap2\n      swap1\n      pop\n      jump\t// out\n        /* \"#utility.yul\":14105:14507   */\n    tag_556:\n      0x00\n        /* \"#utility.yul\":14286:14371   */\n      tag_558\n        /* \"#utility.yul\":14368:14370   */\n      0x17\n        /* \"#utility.yul\":14363:14366   */\n      dup4\n        /* \"#utility.yul\":14286:14371   */\n      tag_514\n      jump\t// in\n    tag_558:\n        /* \"#utility.yul\":14279:14371   */\n      swap2\n      pop\n        /* \"#utility.yul\":14380:14473   */\n      tag_559\n        /* \"#utility.yul\":14469:14472   */\n      dup3\n        /* \"#utility.yul\":14380:14473   */\n      tag_560\n      jump\t// in\n    tag_559:\n        /* \"#utility.yul\":14498:14500   */\n      0x17\n        /* \"#utility.yul\":14493:14496   */\n      dup3\n        /* \"#utility.yul\":14489:14501   */\n      add\n        /* \"#utility.yul\":14482:14501   */\n      swap1\n      pop\n        /* \"#utility.yul\":14269:14507   */\n      swap2\n      swap1\n      pop\n      jump\t// out\n        /* \"#utility.yul\":14513:14915   */\n    tag_561:\n      0x00\n        /* \"#utility.yul\":14694:14779   */\n      tag_563\n        /* \"#utility.yul\":14776:14778   */\n      0x11\n        /* \"#utility.yul\":14771:14774   */\n      dup4\n        /* \"#utility.yul\":14694:14779   */\n      tag_514\n      jump\t// in\n    tag_563:\n        /* \"#utility.yul\":14687:14779   */\n      swap2\n      pop\n        /* \"#utility.yul\":14788:14881   */\n      tag_564\n        /* \"#utility.yul\":14877:14880   */\n      dup3\n        /* \"#utility.yul\":14788:14881   */\n      tag_565\n      jump\t// in\n    tag_564:\n        /* \"#utility.yul\":14906:14908   */\n      0x11\n        /* \"#utility.yul\":14901:14904   */\n      dup3\n        /* \"#utility.yul\":14897:14909   */\n      add\n        /* \"#utility.yul\":14890:14909   */\n      swap1\n      pop\n        /* \"#utility.yul\":14677:14915   */\n      swap2\n      swap1\n      pop\n      jump\t// out\n        /* \"#utility.yul\":14921:15287   */\n    tag_566:\n      0x00\n        /* \"#utility.yul\":15084:15151   */\n      tag_568\n        /* \"#utility.yul\":15148:15150   */\n      0x2f\n        /* \"#utility.yul\":15143:15146   */\n      dup4\n        /* \"#utility.yul\":15084:15151   */\n      tag_507\n      jump\t// in\n    tag_568:\n        /* \"#utility.yul\":15077:15151   */\n      swap2\n      pop\n        /* \"#utility.yul\":15160:15253   */\n      tag_569\n        /* \"#utility.yul\":15249:15252   */\n      dup3\n        /* \"#utility.yul\":15160:15253   */\n      tag_570\n      jump\t// in\n    tag_569:\n        /* \"#utility.yul\":15278:15280   */\n      0x40\n        /* \"#utility.yul\":15273:15276   */\n      dup3\n        /* \"#utility.yul\":15269:15281   */\n      add\n        /* \"#utility.yul\":15262:15281   */\n      swap1\n      pop\n        /* \"#utility.yul\":15067:15287   */\n      swap2\n      swap1\n      pop\n      jump\t// out\n        /* \"#utility.yul\":15293:15401   */\n    tag_436:\n        /* \"#utility.yul\":15370:15394   */\n      tag_572\n        /* \"#utility.yul\":15388:15393   */\n      dup2\n        /* \"#utility.yul\":15370:15394   */\n      tag_573\n      jump\t// in\n    tag_572:\n        /* \"#utility.yul\":15365:15368   */\n      dup3\n        /* \"#utility.yul\":15358:15395   */\n      mstore\n        /* \"#utility.yul\":15348:15401   */\n      pop\n      pop\n      jump\t// out\n        /* \"#utility.yul\":15407:15525   */\n    tag_574:\n        /* \"#utility.yul\":15494:15518   */\n      tag_576\n        /* \"#utility.yul\":15512:15517   */\n      dup2\n        /* \"#utility.yul\":15494:15518   */\n      tag_573\n      jump\t// in\n    tag_576:\n        /* \"#utility.yul\":15489:15492   */\n      dup3\n        /* \"#utility.yul\":15482:15519   */\n      mstore\n        /* \"#utility.yul\":15472:15525   */\n      pop\n      pop\n      jump\t// out\n        /* \"#utility.yul\":15531:15688   */\n    tag_577:\n        /* \"#utility.yul\":15636:15681   */\n      tag_579\n        /* \"#utility.yul\":15656:15680   */\n      tag_580\n        /* \"#utility.yul\":15674:15679   */\n      dup3\n        /* \"#utility.yul\":15656:15680   */\n      tag_573\n      jump\t// in\n    tag_580:\n        /* \"#utility.yul\":15636:15681   */\n      tag_581\n      jump\t// in\n    tag_579:\n        /* \"#utility.yul\":15631:15634   */\n      dup3\n        /* \"#utility.yul\":15624:15682   */\n      mstore\n        /* \"#utility.yul\":15614:15688   */\n      pop\n      pop\n      jump\t// out\n        /* \"#utility.yul\":15694:16889   */\n    tag_229:\n      0x00\n        /* \"#utility.yul\":16159:16307   */\n      tag_583\n        /* \"#utility.yul\":16303:16306   */\n      dup3\n        /* \"#utility.yul\":16159:16307   */\n      tag_521\n      jump\t// in\n    tag_583:\n        /* \"#utility.yul\":16152:16307   */\n      swap2\n      pop\n        /* \"#utility.yul\":16317:16392   */\n      tag_584\n        /* \"#utility.yul\":16388:16391   */\n      dup3\n        /* \"#utility.yul\":16379:16385   */\n      dup6\n        /* \"#utility.yul\":16317:16392   */\n      tag_441\n      jump\t// in\n    tag_584:\n        /* \"#utility.yul\":16417:16419   */\n      0x14\n        /* \"#utility.yul\":16412:16415   */\n      dup3\n        /* \"#utility.yul\":16408:16420   */\n      add\n        /* \"#utility.yul\":16401:16420   */\n      swap2\n      pop\n        /* \"#utility.yul\":16437:16585   */\n      tag_585\n        /* \"#utility.yul\":16581:16584   */\n      dup3\n        /* \"#utility.yul\":16437:16585   */\n      tag_546\n      jump\t// in\n    tag_585:\n        /* \"#utility.yul\":16430:16585   */\n      swap2\n      pop\n        /* \"#utility.yul\":16595:16670   */\n      tag_586\n        /* \"#utility.yul\":16666:16669   */\n      dup3\n        /* \"#utility.yul\":16657:16663   */\n      dup5\n        /* \"#utility.yul\":16595:16670   */\n      tag_577\n      jump\t// in\n    tag_586:\n        /* \"#utility.yul\":16695:16697   */\n      0x20\n        /* \"#utility.yul\":16690:16693   */\n      dup3\n        /* \"#utility.yul\":16686:16698   */\n      add\n        /* \"#utility.yul\":16679:16698   */\n      swap2\n      pop\n        /* \"#utility.yul\":16715:16863   */\n      tag_587\n        /* \"#utility.yul\":16859:16862   */\n      dup3\n        /* \"#utility.yul\":16715:16863   */\n      tag_541\n      jump\t// in\n    tag_587:\n        /* \"#utility.yul\":16708:16863   */\n      swap2\n      pop\n        /* \"#utility.yul\":16880:16883   */\n      dup2\n        /* \"#utility.yul\":16873:16883   */\n      swap1\n      pop\n        /* \"#utility.yul\":16141:16889   */\n      swap4\n      swap3\n      pop\n      pop\n      pop\n      jump\t// out\n        /* \"#utility.yul\":16895:17862   */\n    tag_270:\n      0x00\n        /* \"#utility.yul\":17299:17447   */\n      tag_589\n        /* \"#utility.yul\":17443:17446   */\n      dup3\n        /* \"#utility.yul\":17299:17447   */\n      tag_556\n      jump\t// in\n    tag_589:\n        /* \"#utility.yul\":17292:17447   */\n      swap2\n      pop\n        /* \"#utility.yul\":17464:17559   */\n      tag_590\n        /* \"#utility.yul\":17555:17558   */\n      dup3\n        /* \"#utility.yul\":17546:17552   */\n      dup6\n        /* \"#utility.yul\":17464:17559   */\n      tag_510\n      jump\t// in\n    tag_590:\n        /* \"#utility.yul\":17457:17559   */\n      swap2\n      pop\n        /* \"#utility.yul\":17576:17724   */\n      tag_591\n        /* \"#utility.yul\":17720:17723   */\n      dup3\n        /* \"#utility.yul\":17576:17724   */\n      tag_561\n      jump\t// in\n    tag_591:\n        /* \"#utility.yul\":17569:17724   */\n      swap2\n      pop\n        /* \"#utility.yul\":17741:17836   */\n      tag_592\n        /* \"#utility.yul\":17832:17835   */\n      dup3\n        /* \"#utility.yul\":17823:17829   */\n      dup5\n        /* \"#utility.yul\":17741:17836   */\n      tag_510\n      jump\t// in\n    tag_592:\n        /* \"#utility.yul\":17734:17836   */\n      swap2\n      pop\n        /* \"#utility.yul\":17853:17856   */\n      dup2\n        /* \"#utility.yul\":17846:17856   */\n      swap1\n      pop\n        /* \"#utility.yul\":17281:17862   */\n      swap4\n      swap3\n      pop\n      pop\n      pop\n      jump\t// out\n        /* \"#utility.yul\":17868:18090   */\n    tag_119:\n      0x00\n        /* \"#utility.yul\":17999:18001   */\n      0x20\n        /* \"#utility.yul\":17988:17997   */\n      dup3\n        /* \"#utility.yul\":17984:18002   */\n      add\n        /* \"#utility.yul\":17976:18002   */\n      swap1\n      pop\n        /* \"#utility.yul\":18012:18083   */\n      tag_594\n        /* \"#utility.yul\":18080:18081   */\n      0x00\n        /* \"#utility.yul\":18069:18078   */\n      dup4\n        /* \"#utility.yul\":18065:18082   */\n      add\n        /* \"#utility.yul\":18056:18062   */\n      dup5\n        /* \"#utility.yul\":18012:18083   */\n      tag_437\n      jump\t// in\n    tag_594:\n        /* \"#utility.yul\":17966:18090   */\n      swap3\n      swap2\n      pop\n      pop\n      jump\t// out\n        /* \"#utility.yul\":18096:18428   */\n    tag_222:\n      0x00\n        /* \"#utility.yul\":18255:18257   */\n      0x40\n        /* \"#utility.yul\":18244:18253   */\n      dup3\n        /* \"#utility.yul\":18240:18258   */\n      add\n        /* \"#utility.yul\":18232:18258   */\n      swap1\n      pop\n        /* \"#utility.yul\":18268:18339   */\n      tag_596\n        /* \"#utility.yul\":18336:18337   */\n      0x00\n        /* \"#utility.yul\":18325:18334   */\n      dup4\n        /* \"#utility.yul\":18321:18338   */\n      add\n        /* \"#utility.yul\":18312:18318   */\n      dup6\n        /* \"#utility.yul\":18268:18339   */\n      tag_437\n      jump\t// in\n    tag_596:\n        /* \"#utility.yul\":18349:18421   */\n      tag_597\n        /* \"#utility.yul\":18417:18419   */\n      0x20\n        /* \"#utility.yul\":18406:18415   */\n      dup4\n        /* \"#utility.yul\":18402:18420   */\n      add\n        /* \"#utility.yul\":18393:18399   */\n      dup5\n        /* \"#utility.yul\":18349:18421   */\n      tag_574\n      jump\t// in\n    tag_597:\n        /* \"#utility.yul\":18222:18428   */\n      swap4\n      swap3\n      pop\n      pop\n      pop\n      jump\t// out\n        /* \"#utility.yul\":18434:19108   */\n    tag_257:\n      0x00\n        /* \"#utility.yul\":18713:18715   */\n      0x40\n        /* \"#utility.yul\":18702:18711   */\n      dup3\n        /* \"#utility.yul\":18698:18716   */\n      add\n        /* \"#utility.yul\":18690:18716   */\n      swap1\n      pop\n        /* \"#utility.yul\":18762:18771   */\n      dup2\n        /* \"#utility.yul\":18756:18760   */\n      dup2\n        /* \"#utility.yul\":18752:18772   */\n      sub\n        /* \"#utility.yul\":18748:18749   */\n      0x00\n        /* \"#utility.yul\":18737:18746   */\n      dup4\n        /* \"#utility.yul\":18733:18750   */\n      add\n        /* \"#utility.yul\":18726:18773   */\n      mstore\n        /* \"#utility.yul\":18790:18898   */\n      tag_599\n        /* \"#utility.yul\":18893:18897   */\n      dup2\n        /* \"#utility.yul\":18884:18890   */\n      dup6\n        /* \"#utility.yul\":18790:18898   */\n      tag_460\n      jump\t// in\n    tag_599:\n        /* \"#utility.yul\":18782:18898   */\n      swap1\n      pop\n        /* \"#utility.yul\":18945:18954   */\n      dup2\n        /* \"#utility.yul\":18939:18943   */\n      dup2\n        /* \"#utility.yul\":18935:18955   */\n      sub\n        /* \"#utility.yul\":18930:18932   */\n      0x20\n        /* \"#utility.yul\":18919:18928   */\n      dup4\n        /* \"#utility.yul\":18915:18933   */\n      add\n        /* \"#utility.yul\":18908:18956   */\n      mstore\n        /* \"#utility.yul\":18973:19101   */\n      tag_600\n        /* \"#utility.yul\":19096:19100   */\n      dup2\n        /* \"#utility.yul\":19087:19093   */\n      dup5\n        /* \"#utility.yul\":18973:19101   */\n      tag_446\n      jump\t// in\n    tag_600:\n        /* \"#utility.yul\":18965:19101   */\n      swap1\n      pop\n        /* \"#utility.yul\":18680:19108   */\n      swap4\n      swap3\n      pop\n      pop\n      pop\n      jump\t// out\n        /* \"#utility.yul\":19114:19324   */\n    tag_39:\n      0x00\n        /* \"#utility.yul\":19239:19241   */\n      0x20\n        /* \"#utility.yul\":19228:19237   */\n      dup3\n        /* \"#utility.yul\":19224:19242   */\n      add\n        /* \"#utility.yul\":19216:19242   */\n      swap1\n      pop\n        /* \"#utility.yul\":19252:19317   */\n      tag_602\n        /* \"#utility.yul\":19314:19315   */\n      0x00\n        /* \"#utility.yul\":19303:19312   */\n      dup4\n        /* \"#utility.yul\":19299:19316   */\n      add\n        /* \"#utility.yul\":19290:19296   */\n      dup5\n        /* \"#utility.yul\":19252:19317   */\n      tag_474\n      jump\t// in\n    tag_602:\n        /* \"#utility.yul\":19206:19324   */\n      swap3\n      swap2\n      pop\n      pop\n      jump\t// out\n        /* \"#utility.yul\":19330:19552   */\n    tag_51:\n      0x00\n        /* \"#utility.yul\":19461:19463   */\n      0x20\n        /* \"#utility.yul\":19450:19459   */\n      dup3\n        /* \"#utility.yul\":19446:19464   */\n      add\n        /* \"#utility.yul\":19438:19464   */\n      swap1\n      pop\n        /* \"#utility.yul\":19474:19545   */\n      tag_604\n        /* \"#utility.yul\":19542:19543   */\n      0x00\n        /* \"#utility.yul\":19531:19540   */\n      dup4\n        /* \"#utility.yul\":19527:19544   */\n      add\n        /* \"#utility.yul\":19518:19524   */\n      dup5\n        /* \"#utility.yul\":19474:19545   */\n      tag_478\n      jump\t// in\n    tag_604:\n        /* \"#utility.yul\":19428:19552   */\n      swap3\n      swap2\n      pop\n      pop\n      jump\t// out\n        /* \"#utility.yul\":19558:19820   */\n    tag_88:\n      0x00\n        /* \"#utility.yul\":19709:19711   */\n      0x20\n        /* \"#utility.yul\":19698:19707   */\n      dup3\n        /* \"#utility.yul\":19694:19712   */\n      add\n        /* \"#utility.yul\":19686:19712   */\n      swap1\n      pop\n        /* \"#utility.yul\":19722:19813   */\n      tag_606\n        /* \"#utility.yul\":19810:19811   */\n      0x00\n        /* \"#utility.yul\":19799:19808   */\n      dup4\n        /* \"#utility.yul\":19795:19812   */\n      add\n        /* \"#utility.yul\":19786:19792   */\n      dup5\n        /* \"#utility.yul\":19722:19813   */\n      tag_482\n      jump\t// in\n    tag_606:\n        /* \"#utility.yul\":19676:19820   */\n      swap3\n      swap2\n      pop\n      pop\n      jump\t// out\n        /* \"#utility.yul\":19826:20108   */\n    tag_76:\n      0x00\n        /* \"#utility.yul\":19987:19989   */\n      0x20\n        /* \"#utility.yul\":19976:19985   */\n      dup3\n        /* \"#utility.yul\":19972:19990   */\n      add\n        /* \"#utility.yul\":19964:19990   */\n      swap1\n      pop\n        /* \"#utility.yul\":20000:20101   */\n      tag_608\n        /* \"#utility.yul\":20098:20099   */\n      0x00\n        /* \"#utility.yul\":20087:20096   */\n      dup4\n        /* \"#utility.yul\":20083:20100   */\n      add\n        /* \"#utility.yul\":20074:20080   */\n      dup5\n        /* \"#utility.yul\":20000:20101   */\n      tag_486\n      jump\t// in\n    tag_608:\n        /* \"#utility.yul\":19954:20108   */\n      swap3\n      swap2\n      pop\n      pop\n      jump\t// out\n        /* \"#utility.yul\":20114:20376   */\n    tag_115:\n      0x00\n        /* \"#utility.yul\":20265:20267   */\n      0x20\n        /* \"#utility.yul\":20254:20263   */\n      dup3\n        /* \"#utility.yul\":20250:20268   */\n      add\n        /* \"#utility.yul\":20242:20268   */\n      swap1\n      pop\n        /* \"#utility.yul\":20278:20369   */\n      tag_610\n        /* \"#utility.yul\":20366:20367   */\n      0x00\n        /* \"#utility.yul\":20355:20364   */\n      dup4\n        /* \"#utility.yul\":20351:20368   */\n      add\n        /* \"#utility.yul\":20342:20348   */\n      dup5\n        /* \"#utility.yul\":20278:20369   */\n      tag_490\n      jump\t// in\n    tag_610:\n        /* \"#utility.yul\":20232:20376   */\n      swap3\n      swap2\n      pop\n      pop\n      jump\t// out\n        /* \"#utility.yul\":20382:20695   */\n    tag_45:\n      0x00\n        /* \"#utility.yul\":20533:20535   */\n      0x20\n        /* \"#utility.yul\":20522:20531   */\n      dup3\n        /* \"#utility.yul\":20518:20536   */\n      add\n        /* \"#utility.yul\":20510:20536   */\n      swap1\n      pop\n        /* \"#utility.yul\":20582:20591   */\n      dup2\n        /* \"#utility.yul\":20576:20580   */\n      dup2\n        /* \"#utility.yul\":20572:20592   */\n      sub\n        /* \"#utility.yul\":20568:20569   */\n      0x00\n        /* \"#utility.yul\":20557:20566   */\n      dup4\n        /* \"#utility.yul\":20553:20570   */\n      add\n        /* \"#utility.yul\":20546:20593   */\n      mstore\n        /* \"#utility.yul\":20610:20688   */\n      tag_612\n        /* \"#utility.yul\":20683:20687   */\n      dup2\n        /* \"#utility.yul\":20674:20680   */\n      dup5\n        /* \"#utility.yul\":20610:20688   */\n      tag_503\n      jump\t// in\n    tag_612:\n        /* \"#utility.yul\":20602:20688   */\n      swap1\n      pop\n        /* \"#utility.yul\":20500:20695   */\n      swap3\n      swap2\n      pop\n      pop\n      jump\t// out\n        /* \"#utility.yul\":20701:21120   */\n    tag_322:\n      0x00\n        /* \"#utility.yul\":20905:20907   */\n      0x20\n        /* \"#utility.yul\":20894:20903   */\n      dup3\n        /* \"#utility.yul\":20890:20908   */\n      add\n        /* \"#utility.yul\":20882:20908   */\n      swap1\n      pop\n        /* \"#utility.yul\":20954:20963   */\n      dup2\n        /* \"#utility.yul\":20948:20952   */\n      dup2\n        /* \"#utility.yul\":20944:20964   */\n      sub\n        /* \"#utility.yul\":20940:20941   */\n      0x00\n        /* \"#utility.yul\":20929:20938   */\n      dup4\n        /* \"#utility.yul\":20925:20942   */\n      add\n        /* \"#utility.yul\":20918:20965   */\n      mstore\n        /* \"#utility.yul\":20982:21113   */\n      tag_614\n        /* \"#utility.yul\":21108:21112   */\n      dup2\n        /* \"#utility.yul\":20982:21113   */\n      tag_516\n      jump\t// in\n    tag_614:\n        /* \"#utility.yul\":20974:21113   */\n      swap1\n      pop\n        /* \"#utility.yul\":20872:21120   */\n      swap2\n      swap1\n      pop\n      jump\t// out\n        /* \"#utility.yul\":21126:21545   */\n    tag_194:\n      0x00\n        /* \"#utility.yul\":21330:21332   */\n      0x20\n        /* \"#utility.yul\":21319:21328   */\n      dup3\n        /* \"#utility.yul\":21315:21333   */\n      add\n        /* \"#utility.yul\":21307:21333   */\n      swap1\n      pop\n        /* \"#utility.yul\":21379:21388   */\n      dup2\n        /* \"#utility.yul\":21373:21377   */\n      dup2\n        /* \"#utility.yul\":21369:21389   */\n      sub\n        /* \"#utility.yul\":21365:21366   */\n      0x00\n        /* \"#utility.yul\":21354:21363   */\n      dup4\n        /* \"#utility.yul\":21350:21367   */\n      add\n        /* \"#utility.yul\":21343:21390   */\n      mstore\n        /* \"#utility.yul\":21407:21538   */\n      tag_616\n        /* \"#utility.yul\":21533:21537   */\n      dup2\n        /* \"#utility.yul\":21407:21538   */\n      tag_526\n      jump\t// in\n    tag_616:\n        /* \"#utility.yul\":21399:21538   */\n      swap1\n      pop\n        /* \"#utility.yul\":21297:21545   */\n      swap2\n      swap1\n      pop\n      jump\t// out\n        /* \"#utility.yul\":21551:21970   */\n    tag_189:\n      0x00\n        /* \"#utility.yul\":21755:21757   */\n      0x20\n        /* \"#utility.yul\":21744:21753   */\n      dup3\n        /* \"#utility.yul\":21740:21758   */\n      add\n        /* \"#utility.yul\":21732:21758   */\n      swap1\n      pop\n        /* \"#utility.yul\":21804:21813   */\n      dup2\n        /* \"#utility.yul\":21798:21802   */\n      dup2\n        /* \"#utility.yul\":21794:21814   */\n      sub\n        /* \"#utility.yul\":21790:21791   */\n      0x00\n        /* \"#utility.yul\":21779:21788   */\n      dup4\n        /* \"#utility.yul\":21775:21792   */\n      add\n        /* \"#utility.yul\":21768:21815   */\n      mstore\n        /* \"#utility.yul\":21832:21963   */\n      tag_618\n        /* \"#utility.yul\":21958:21962   */\n      dup2\n        /* \"#utility.yul\":21832:21963   */\n      tag_531\n      jump\t// in\n    tag_618:\n        /* \"#utility.yul\":21824:21963   */\n      swap1\n      pop\n        /* \"#utility.yul\":21722:21970   */\n      swap2\n      swap1\n      pop\n      jump\t// out\n        /* \"#utility.yul\":21976:22395   */\n    tag_216:\n      0x00\n        /* \"#utility.yul\":22180:22182   */\n      0x20\n        /* \"#utility.yul\":22169:22178   */\n      dup3\n        /* \"#utility.yul\":22165:22183   */\n      add\n        /* \"#utility.yul\":22157:22183   */\n      swap1\n      pop\n        /* \"#utility.yul\":22229:22238   */\n      dup2\n        /* \"#utility.yul\":22223:22227   */\n      dup2\n        /* \"#utility.yul\":22219:22239   */\n      sub\n        /* \"#utility.yul\":22215:22216   */\n      0x00\n        /* \"#utility.yul\":22204:22213   */\n      dup4\n        /* \"#utility.yul\":22200:22217   */\n      add\n        /* \"#utility.yul\":22193:22240   */\n      mstore\n        /* \"#utility.yul\":22257:22388   */\n      tag_620\n        /* \"#utility.yul\":22383:22387   */\n      dup2\n        /* \"#utility.yul\":22257:22388   */\n      tag_536\n      jump\t// in\n    tag_620:\n        /* \"#utility.yul\":22249:22388   */\n      swap1\n      pop\n        /* \"#utility.yul\":22147:22395   */\n      swap2\n      swap1\n      pop\n      jump\t// out\n        /* \"#utility.yul\":22401:22820   */\n    tag_283:\n      0x00\n        /* \"#utility.yul\":22605:22607   */\n      0x20\n        /* \"#utility.yul\":22594:22603   */\n      dup3\n        /* \"#utility.yul\":22590:22608   */\n      add\n        /* \"#utility.yul\":22582:22608   */\n      swap1\n      pop\n        /* \"#utility.yul\":22654:22663   */\n      dup2\n        /* \"#utility.yul\":22648:22652   */\n      dup2\n        /* \"#utility.yul\":22644:22664   */\n      sub\n        /* \"#utility.yul\":22640:22641   */\n      0x00\n        /* \"#utility.yul\":22629:22638   */\n      dup4\n        /* \"#utility.yul\":22625:22642   */\n      add\n        /* \"#utility.yul\":22618:22665   */\n      mstore\n        /* \"#utility.yul\":22682:22813   */\n      tag_622\n        /* \"#utility.yul\":22808:22812   */\n      dup2\n        /* \"#utility.yul\":22682:22813   */\n      tag_551\n      jump\t// in\n    tag_622:\n        /* \"#utility.yul\":22674:22813   */\n      swap1\n      pop\n        /* \"#utility.yul\":22572:22820   */\n      swap2\n      swap1\n      pop\n      jump\t// out\n        /* \"#utility.yul\":22826:23245   */\n    tag_156:\n      0x00\n        /* \"#utility.yul\":23030:23032   */\n      0x20\n        /* \"#utility.yul\":23019:23028   */\n      dup3\n        /* \"#utility.yul\":23015:23033   */\n      add\n        /* \"#utility.yul\":23007:23033   */\n      swap1\n      pop\n        /* \"#utility.yul\":23079:23088   */\n      dup2\n        /* \"#utility.yul\":23073:23077   */\n      dup2\n        /* \"#utility.yul\":23069:23089   */\n      sub\n        /* \"#utility.yul\":23065:23066   */\n      0x00\n        /* \"#utility.yul\":23054:23063   */\n      dup4\n        /* \"#utility.yul\":23050:23067   */\n      add\n        /* \"#utility.yul\":23043:23090   */\n      mstore\n        /* \"#utility.yul\":23107:23238   */\n      tag_624\n        /* \"#utility.yul\":23233:23237   */\n      dup2\n        /* \"#utility.yul\":23107:23238   */\n      tag_566\n      jump\t// in\n    tag_624:\n        /* \"#utility.yul\":23099:23238   */\n      swap1\n      pop\n        /* \"#utility.yul\":22997:23245   */\n      swap2\n      swap1\n      pop\n      jump\t// out\n        /* \"#utility.yul\":23251:23473   */\n    tag_62:\n      0x00\n        /* \"#utility.yul\":23382:23384   */\n      0x20\n        /* \"#utility.yul\":23371:23380   */\n      dup3\n        /* \"#utility.yul\":23367:23385   */\n      add\n        /* \"#utility.yul\":23359:23385   */\n      swap1\n      pop\n        /* \"#utility.yul\":23395:23466   */\n      tag_626\n        /* \"#utility.yul\":23463:23464   */\n      0x00\n        /* \"#utility.yul\":23452:23461   */\n      dup4\n        /* \"#utility.yul\":23448:23465   */\n      add\n        /* \"#utility.yul\":23439:23445   */\n      dup5\n        /* \"#utility.yul\":23395:23466   */\n      tag_574\n      jump\t// in\n    tag_626:\n        /* \"#utility.yul\":23349:23473   */\n      swap3\n      swap2\n      pop\n      pop\n      jump\t// out\n        /* \"#utility.yul\":23479:23909   */\n    tag_111:\n      0x00\n        /* \"#utility.yul\":23660:23662   */\n      0x60\n        /* \"#utility.yul\":23649:23658   */\n      dup3\n        /* \"#utility.yul\":23645:23663   */\n      add\n        /* \"#utility.yul\":23637:23663   */\n      swap1\n      pop\n        /* \"#utility.yul\":23673:23744   */\n      tag_628\n        /* \"#utility.yul\":23741:23742   */\n      0x00\n        /* \"#utility.yul\":23730:23739   */\n      dup4\n        /* \"#utility.yul\":23726:23743   */\n      add\n        /* \"#utility.yul\":23717:23723   */\n      dup7\n        /* \"#utility.yul\":23673:23744   */\n      tag_574\n      jump\t// in\n    tag_628:\n        /* \"#utility.yul\":23754:23826   */\n      tag_629\n        /* \"#utility.yul\":23822:23824   */\n      0x20\n        /* \"#utility.yul\":23811:23820   */\n      dup4\n        /* \"#utility.yul\":23807:23825   */\n      add\n        /* \"#utility.yul\":23798:23804   */\n      dup6\n        /* \"#utility.yul\":23754:23826   */\n      tag_574\n      jump\t// in\n    tag_629:\n        /* \"#utility.yul\":23836:23902   */\n      tag_630\n        /* \"#utility.yul\":23898:23900   */\n      0x40\n        /* \"#utility.yul\":23887:23896   */\n      dup4\n        /* \"#utility.yul\":23883:23901   */\n      add\n        /* \"#utility.yul\":23874:23880   */\n      dup5\n        /* \"#utility.yul\":23836:23902   */\n      tag_474\n      jump\t// in\n    tag_630:\n        /* \"#utility.yul\":23627:23909   */\n      swap5\n      swap4\n      pop\n      pop\n      pop\n      pop\n      jump\t// out\n        /* \"#utility.yul\":23915:24044   */\n    tag_339:\n      0x00\n        /* \"#utility.yul\":23976:23996   */\n      tag_632\n      tag_633\n      jump\t// in\n    tag_632:\n        /* \"#utility.yul\":23966:23996   */\n      swap1\n      pop\n        /* \"#utility.yul\":24005:24038   */\n      tag_634\n        /* \"#utility.yul\":24033:24037   */\n      dup3\n        /* \"#utility.yul\":24025:24031   */\n      dup3\n        /* \"#utility.yul\":24005:24038   */\n      tag_635\n      jump\t// in\n    tag_634:\n        /* \"#utility.yul\":23956:24044   */\n      swap2\n      swap1\n      pop\n      jump\t// out\n        /* \"#utility.yul\":24050:24125   */\n    tag_633:\n      0x00\n        /* \"#utility.yul\":24116:24118   */\n      0x40\n        /* \"#utility.yul\":24110:24119   */\n      mload\n        /* \"#utility.yul\":24100:24119   */\n      swap1\n      pop\n        /* \"#utility.yul\":24090:24125   */\n      swap1\n      jump\t// out\n        /* \"#utility.yul\":24131:24452   */\n    tag_338:\n      0x00\n        /* \"#utility.yul\":24308:24326   */\n      0xffffffffffffffff\n        /* \"#utility.yul\":24300:24306   */\n      dup3\n        /* \"#utility.yul\":24297:24327   */\n      gt\n        /* \"#utility.yul\":24294:24296   */\n      iszero\n      tag_638\n      jumpi\n        /* \"#utility.yul\":24330:24348   */\n      tag_639\n      tag_640\n      jump\t// in\n    tag_639:\n        /* \"#utility.yul\":24294:24296   */\n    tag_638:\n        /* \"#utility.yul\":24380:24384   */\n      0x20\n        /* \"#utility.yul\":24372:24378   */\n      dup3\n        /* \"#utility.yul\":24368:24385   */\n      mul\n        /* \"#utility.yul\":24360:24385   */\n      swap1\n      pop\n        /* \"#utility.yul\":24440:24444   */\n      0x20\n        /* \"#utility.yul\":24434:24438   */\n      dup2\n        /* \"#utility.yul\":24430:24445   */\n      add\n        /* \"#utility.yul\":24422:24445   */\n      swap1\n      pop\n        /* \"#utility.yul\":24223:24452   */\n      swap2\n      swap1\n      pop\n      jump\t// out\n        /* \"#utility.yul\":24458:24769   */\n    tag_349:\n      0x00\n        /* \"#utility.yul\":24625:24643   */\n      0xffffffffffffffff\n        /* \"#utility.yul\":24617:24623   */\n      dup3\n        /* \"#utility.yul\":24614:24644   */\n      gt\n        /* \"#utility.yul\":24611:24613   */\n      iszero\n      tag_642\n      jumpi\n        /* \"#utility.yul\":24647:24665   */\n      tag_643\n      tag_640\n      jump\t// in\n    tag_643:\n        /* \"#utility.yul\":24611:24613   */\n    tag_642:\n        /* \"#utility.yul\":24697:24701   */\n      0x20\n        /* \"#utility.yul\":24689:24695   */\n      dup3\n        /* \"#utility.yul\":24685:24702   */\n      mul\n        /* \"#utility.yul\":24677:24702   */\n      swap1\n      pop\n        /* \"#utility.yul\":24757:24761   */\n      0x20\n        /* \"#utility.yul\":24751:24755   */\n      dup2\n        /* \"#utility.yul\":24747:24762   */\n      add\n        /* \"#utility.yul\":24739:24762   */\n      swap1\n      pop\n        /* \"#utility.yul\":24540:24769   */\n      swap2\n      swap1\n      pop\n      jump\t// out\n        /* \"#utility.yul\":24775:25083   */\n    tag_360:\n      0x00\n        /* \"#utility.yul\":24927:24945   */\n      0xffffffffffffffff\n        /* \"#utility.yul\":24919:24925   */\n      dup3\n        /* \"#utility.yul\":24916:24946   */\n      gt\n        /* \"#utility.yul\":24913:24915   */\n      iszero\n      tag_645\n      jumpi\n        /* \"#utility.yul\":24949:24967   */\n      tag_646\n      tag_640\n      jump\t// in\n    tag_646:\n        /* \"#utility.yul\":24913:24915   */\n    tag_645:\n        /* \"#utility.yul\":24987:25016   */\n      tag_647\n        /* \"#utility.yul\":25009:25015   */\n      dup3\n        /* \"#utility.yul\":24987:25016   */\n      tag_502\n      jump\t// in\n    tag_647:\n        /* \"#utility.yul\":24979:25016   */\n      swap1\n      pop\n        /* \"#utility.yul\":25071:25075   */\n      0x20\n        /* \"#utility.yul\":25065:25069   */\n      dup2\n        /* \"#utility.yul\":25061:25076   */\n      add\n        /* \"#utility.yul\":25053:25076   */\n      swap1\n      pop\n        /* \"#utility.yul\":24842:25083   */\n      swap2\n      swap1\n      pop\n      jump\t// out\n        /* \"#utility.yul\":25089:25231   */\n    tag_453:\n      0x00\n        /* \"#utility.yul\":25189:25192   */\n      dup2\n        /* \"#utility.yul\":25181:25192   */\n      swap1\n      pop\n        /* \"#utility.yul\":25219:25223   */\n      0x20\n        /* \"#utility.yul\":25214:25217   */\n      dup3\n        /* \"#utility.yul\":25210:25224   */\n      add\n        /* \"#utility.yul\":25202:25224   */\n      swap1\n      pop\n        /* \"#utility.yul\":25171:25231   */\n      swap2\n      swap1\n      pop\n      jump\t// out\n        /* \"#utility.yul\":25237:25369   */\n    tag_467:\n      0x00\n        /* \"#utility.yul\":25327:25330   */\n      dup2\n        /* \"#utility.yul\":25319:25330   */\n      swap1\n      pop\n        /* \"#utility.yul\":25357:25361   */\n      0x20\n        /* \"#utility.yul\":25352:25355   */\n      dup3\n        /* \"#utility.yul\":25348:25362   */\n      add\n        /* \"#utility.yul\":25340:25362   */\n      swap1\n      pop\n        /* \"#utility.yul\":25309:25369   */\n      swap2\n      swap1\n      pop\n      jump\t// out\n        /* \"#utility.yul\":25375:25499   */\n    tag_449:\n      0x00\n        /* \"#utility.yul\":25486:25491   */\n      dup2\n        /* \"#utility.yul\":25480:25492   */\n      mload\n        /* \"#utility.yul\":25470:25492   */\n      swap1\n      pop\n        /* \"#utility.yul\":25459:25499   */\n      swap2\n      swap1\n      pop\n      jump\t// out\n        /* \"#utility.yul\":25505:25619   */\n    tag_463:\n      0x00\n        /* \"#utility.yul\":25606:25611   */\n      dup2\n        /* \"#utility.yul\":25600:25612   */\n      mload\n        /* \"#utility.yul\":25590:25612   */\n      swap1\n      pop\n        /* \"#utility.yul\":25579:25619   */\n      swap2\n      swap1\n      pop\n      jump\t// out\n        /* \"#utility.yul\":25625:25724   */\n    tag_496:\n      0x00\n        /* \"#utility.yul\":25711:25716   */\n      dup2\n        /* \"#utility.yul\":25705:25717   */\n      mload\n        /* \"#utility.yul\":25695:25717   */\n      swap1\n      pop\n        /* \"#utility.yul\":25684:25724   */\n      swap2\n      swap1\n      pop\n      jump\t// out\n        /* \"#utility.yul\":25730:25853   */\n    tag_459:\n      0x00\n        /* \"#utility.yul\":25842:25846   */\n      0x20\n        /* \"#utility.yul\":25837:25840   */\n      dup3\n        /* \"#utility.yul\":25833:25847   */\n      add\n        /* \"#utility.yul\":25825:25847   */\n      swap1\n      pop\n        /* \"#utility.yul\":25815:25853   */\n      swap2\n      swap1\n      pop\n      jump\t// out\n        /* \"#utility.yul\":25859:25972   */\n    tag_473:\n      0x00\n        /* \"#utility.yul\":25961:25965   */\n      0x20\n        /* \"#utility.yul\":25956:25959   */\n      dup3\n        /* \"#utility.yul\":25952:25966   */\n      add\n        /* \"#utility.yul\":25944:25966   */\n      swap1\n      pop\n        /* \"#utility.yul\":25934:25972   */\n      swap2\n      swap1\n      pop\n      jump\t// out\n        /* \"#utility.yul\":25978:26172   */\n    tag_451:\n      0x00\n        /* \"#utility.yul\":26121:26127   */\n      dup3\n        /* \"#utility.yul\":26116:26119   */\n      dup3\n        /* \"#utility.yul\":26109:26128   */\n      mstore\n        /* \"#utility.yul\":26161:26165   */\n      0x20\n        /* \"#utility.yul\":26156:26159   */\n      dup3\n        /* \"#utility.yul\":26152:26166   */\n      add\n        /* \"#utility.yul\":26137:26166   */\n      swap1\n      pop\n        /* \"#utility.yul\":26099:26172   */\n      swap3\n      swap2\n      pop\n      pop\n      jump\t// out\n        /* \"#utility.yul\":26178:26362   */\n    tag_465:\n      0x00\n        /* \"#utility.yul\":26311:26317   */\n      dup3\n        /* \"#utility.yul\":26306:26309   */\n      dup3\n        /* \"#utility.yul\":26299:26318   */\n      mstore\n        /* \"#utility.yul\":26351:26355   */\n      0x20\n        /* \"#utility.yul\":26346:26349   */\n      dup3\n        /* \"#utility.yul\":26342:26356   */\n      add\n        /* \"#utility.yul\":26327:26356   */\n      swap1\n      pop\n        /* \"#utility.yul\":26289:26362   */\n      swap3\n      swap2\n      pop\n      pop\n      jump\t// out\n        /* \"#utility.yul\":26368:26527   */\n    tag_498:\n      0x00\n        /* \"#utility.yul\":26476:26482   */\n      dup3\n        /* \"#utility.yul\":26471:26474   */\n      dup3\n        /* \"#utility.yul\":26464:26483   */\n      mstore\n        /* \"#utility.yul\":26516:26520   */\n      0x20\n        /* \"#utility.yul\":26511:26514   */\n      dup3\n        /* \"#utility.yul\":26507:26521   */\n      add\n        /* \"#utility.yul\":26492:26521   */\n      swap1\n      pop\n        /* \"#utility.yul\":26454:26527   */\n      swap3\n      swap2\n      pop\n      pop\n      jump\t// out\n        /* \"#utility.yul\":26533:26702   */\n    tag_507:\n      0x00\n        /* \"#utility.yul\":26651:26657   */\n      dup3\n        /* \"#utility.yul\":26646:26649   */\n      dup3\n        /* \"#utility.yul\":26639:26658   */\n      mstore\n        /* \"#utility.yul\":26691:26695   */\n      0x20\n        /* \"#utility.yul\":26686:26689   */\n      dup3\n        /* \"#utility.yul\":26682:26696   */\n      add\n        /* \"#utility.yul\":26667:26696   */\n      swap1\n      pop\n        /* \"#utility.yul\":26629:26702   */\n      swap3\n      swap2\n      pop\n      pop\n      jump\t// out\n        /* \"#utility.yul\":26708:26856   */\n    tag_514:\n      0x00\n        /* \"#utility.yul\":26847:26850   */\n      dup2\n        /* \"#utility.yul\":26832:26850   */\n      swap1\n      pop\n        /* \"#utility.yul\":26822:26856   */\n      swap3\n      swap2\n      pop\n      pop\n      jump\t// out\n        /* \"#utility.yul\":26862:27167   */\n    tag_307:\n      0x00\n        /* \"#utility.yul\":26921:26941   */\n      tag_661\n        /* \"#utility.yul\":26939:26940   */\n      dup3\n        /* \"#utility.yul\":26921:26941   */\n      tag_573\n      jump\t// in\n    tag_661:\n        /* \"#utility.yul\":26916:26941   */\n      swap2\n      pop\n        /* \"#utility.yul\":26955:26975   */\n      tag_662\n        /* \"#utility.yul\":26973:26974   */\n      dup4\n        /* \"#utility.yul\":26955:26975   */\n      tag_573\n      jump\t// in\n    tag_662:\n        /* \"#utility.yul\":26950:26975   */\n      swap3\n      pop\n        /* \"#utility.yul\":27109:27110   */\n      dup3\n        /* \"#utility.yul\":27041:27107   */\n      0xffffffffffffffffffffffffffffffffffffffffffffffffffffffffffffffff\n        /* \"#utility.yul\":27037:27111   */\n      sub\n        /* \"#utility.yul\":27034:27035   */\n      dup3\n        /* \"#utility.yul\":27031:27112   */\n      gt\n        /* \"#utility.yul\":27028:27030   */\n      iszero\n      tag_663\n      jumpi\n        /* \"#utility.yul\":27115:27133   */\n      tag_664\n      tag_665\n      jump\t// in\n    tag_664:\n        /* \"#utility.yul\":27028:27030   */\n    tag_663:\n        /* \"#utility.yul\":27159:27160   */\n      dup3\n        /* \"#utility.yul\":27156:27157   */\n      dup3\n        /* \"#utility.yul\":27152:27161   */\n      add\n        /* \"#utility.yul\":27145:27161   */\n      swap1\n      pop\n        /* \"#utility.yul\":26906:27167   */\n      swap3\n      swap2\n      pop\n      pop\n      jump\t// out\n        /* \"#utility.yul\":27173:27358   */\n    tag_234:\n      0x00\n        /* \"#utility.yul\":27230:27250   */\n      tag_667\n        /* \"#utility.yul\":27248:27249   */\n      dup3\n        /* \"#utility.yul\":27230:27250   */\n      tag_573\n      jump\t// in\n    tag_667:\n        /* \"#utility.yul\":27225:27250   */\n      swap2\n      pop\n        /* \"#utility.yul\":27264:27284   */\n      tag_668\n        /* \"#utility.yul\":27282:27283   */\n      dup4\n        /* \"#utility.yul\":27264:27284   */\n      tag_573\n      jump\t// in\n    tag_668:\n        /* \"#utility.yul\":27259:27284   */\n      swap3\n      pop\n        /* \"#utility.yul\":27303:27304   */\n      dup3\n        /* \"#utility.yul\":27293:27295   */\n      tag_669\n      jumpi\n        /* \"#utility.yul\":27308:27326   */\n      tag_670\n      tag_671\n      jump\t// in\n    tag_670:\n        /* \"#utility.yul\":27293:27295   */\n    tag_669:\n        /* \"#utility.yul\":27350:27351   */\n      dup3\n        /* \"#utility.yul\":27347:27348   */\n      dup3\n        /* \"#utility.yul\":27343:27352   */\n      div\n        /* \"#utility.yul\":27338:27352   */\n      swap1\n      pop\n        /* \"#utility.yul\":27215:27358   */\n      swap3\n      swap2\n      pop\n      pop\n      jump\t// out\n        /* \"#utility.yul\":27364:27712   */\n    tag_236:\n      0x00\n        /* \"#utility.yul\":27427:27447   */\n      tag_673\n        /* \"#utility.yul\":27445:27446   */\n      dup3\n        /* \"#utility.yul\":27427:27447   */\n      tag_573\n      jump\t// in\n    tag_673:\n        /* \"#utility.yul\":27422:27447   */\n      swap2\n      pop\n        /* \"#utility.yul\":27461:27481   */\n      tag_674\n        /* \"#utility.yul\":27479:27480   */\n      dup4\n        /* \"#utility.yul\":27461:27481   */\n      tag_573\n      jump\t// in\n    tag_674:\n        /* \"#utility.yul\":27456:27481   */\n      swap3\n      pop\n        /* \"#utility.yul\":27649:27650   */\n      dup2\n        /* \"#utility.yul\":27581:27647   */\n      0xffffffffffffffffffffffffffffffffffffffffffffffffffffffffffffffff\n        /* \"#utility.yul\":27577:27651   */\n      div\n        /* \"#utility.yul\":27574:27575   */\n      dup4\n        /* \"#utility.yul\":27571:27652   */\n      gt\n        /* \"#utility.yul\":27566:27567   */\n      dup3\n        /* \"#utility.yul\":27559:27568   */\n      iszero\n        /* \"#utility.yul\":27552:27569   */\n      iszero\n        /* \"#utility.yul\":27548:27653   */\n      and\n        /* \"#utility.yul\":27545:27547   */\n      iszero\n      tag_675\n      jumpi\n        /* \"#utility.yul\":27656:27674   */\n      tag_676\n      tag_665\n      jump\t// in\n    tag_676:\n        /* \"#utility.yul\":27545:27547   */\n    tag_675:\n        /* \"#utility.yul\":27704:27705   */\n      dup3\n        /* \"#utility.yul\":27701:27702   */\n      dup3\n        /* \"#utility.yul\":27697:27706   */\n      mul\n        /* \"#utility.yul\":27686:27706   */\n      swap1\n      pop\n        /* \"#utility.yul\":27412:27712   */\n      swap3\n      swap2\n      pop\n      pop\n      jump\t// out\n        /* \"#utility.yul\":27718:27909   */\n    tag_197:\n      0x00\n        /* \"#utility.yul\":27778:27798   */\n      tag_678\n        /* \"#utility.yul\":27796:27797   */\n      dup3\n        /* \"#utility.yul\":27778:27798   */\n      tag_573\n      jump\t// in\n    tag_678:\n        /* \"#utility.yul\":27773:27798   */\n      swap2\n      pop\n        /* \"#utility.yul\":27812:27832   */\n      tag_679\n        /* \"#utility.yul\":27830:27831   */\n      dup4\n        /* \"#utility.yul\":27812:27832   */\n      tag_573\n      jump\t// in\n    tag_679:\n        /* \"#utility.yul\":27807:27832   */\n      swap3\n      pop\n        /* \"#utility.yul\":27851:27852   */\n      dup3\n        /* \"#utility.yul\":27848:27849   */\n      dup3\n        /* \"#utility.yul\":27845:27853   */\n      lt\n        /* \"#utility.yul\":27842:27844   */\n      iszero\n      tag_680\n      jumpi\n        /* \"#utility.yul\":27856:27874   */\n      tag_681\n      tag_665\n      jump\t// in\n    tag_681:\n        /* \"#utility.yul\":27842:27844   */\n    tag_680:\n        /* \"#utility.yul\":27901:27902   */\n      dup3\n        /* \"#utility.yul\":27898:27899   */\n      dup3\n        /* \"#utility.yul\":27894:27903   */\n      sub\n        /* \"#utility.yul\":27886:27903   */\n      swap1\n      pop\n        /* \"#utility.yul\":27763:27909   */\n      swap3\n      swap2\n      pop\n      pop\n      jump\t// out\n        /* \"#utility.yul\":27915:28011   */\n    tag_440:\n      0x00\n        /* \"#utility.yul\":27981:28005   */\n      tag_683\n        /* \"#utility.yul\":27999:28004   */\n      dup3\n        /* \"#utility.yul\":27981:28005   */\n      tag_684\n      jump\t// in\n    tag_683:\n        /* \"#utility.yul\":27970:28005   */\n      swap1\n      pop\n        /* \"#utility.yul\":27960:28011   */\n      swap2\n      swap1\n      pop\n      jump\t// out\n        /* \"#utility.yul\":28017:28107   */\n    tag_477:\n      0x00\n        /* \"#utility.yul\":28094:28099   */\n      dup2\n        /* \"#utility.yul\":28087:28100   */\n      iszero\n        /* \"#utility.yul\":28080:28101   */\n      iszero\n        /* \"#utility.yul\":28069:28101   */\n      swap1\n      pop\n        /* \"#utility.yul\":28059:28107   */\n      swap2\n      swap1\n      pop\n      jump\t// out\n        /* \"#utility.yul\":28113:28190   */\n    tag_481:\n      0x00\n        /* \"#utility.yul\":28179:28184   */\n      dup2\n        /* \"#utility.yul\":28168:28184   */\n      swap1\n      pop\n        /* \"#utility.yul\":28158:28190   */\n      swap2\n      swap1\n      pop\n      jump\t// out\n        /* \"#utility.yul\":28196:28345   */\n    tag_687:\n      0x00\n        /* \"#utility.yul\":28272:28338   */\n      0xffffffff00000000000000000000000000000000000000000000000000000000\n        /* \"#utility.yul\":28265:28270   */\n      dup3\n        /* \"#utility.yul\":28261:28339   */\n      and\n        /* \"#utility.yul\":28250:28339   */\n      swap1\n      pop\n        /* \"#utility.yul\":28240:28345   */\n      swap2\n      swap1\n      pop\n      jump\t// out\n        /* \"#utility.yul\":28351:28477   */\n    tag_684:\n      0x00\n        /* \"#utility.yul\":28428:28470   */\n      0xffffffffffffffffffffffffffffffffffffffff\n        /* \"#utility.yul\":28421:28426   */\n      dup3\n        /* \"#utility.yul\":28417:28471   */\n      and\n        /* \"#utility.yul\":28406:28471   */\n      swap1\n      pop\n        /* \"#utility.yul\":28396:28477   */\n      swap2\n      swap1\n      pop\n      jump\t// out\n        /* \"#utility.yul\":28483:28560   */\n    tag_573:\n      0x00\n        /* \"#utility.yul\":28549:28554   */\n      dup2\n        /* \"#utility.yul\":28538:28554   */\n      swap1\n      pop\n        /* \"#utility.yul\":28528:28560   */\n      swap2\n      swap1\n      pop\n      jump\t// out\n        /* \"#utility.yul\":28566:28732   */\n    tag_485:\n      0x00\n        /* \"#utility.yul\":28669:28726   */\n      tag_692\n        /* \"#utility.yul\":28720:28725   */\n      dup3\n        /* \"#utility.yul\":28669:28726   */\n      tag_693\n      jump\t// in\n    tag_692:\n        /* \"#utility.yul\":28656:28726   */\n      swap1\n      pop\n        /* \"#utility.yul\":28646:28732   */\n      swap2\n      swap1\n      pop\n      jump\t// out\n        /* \"#utility.yul\":28738:28871   */\n    tag_693:\n      0x00\n        /* \"#utility.yul\":28841:28865   */\n      tag_695\n        /* \"#utility.yul\":28859:28864   */\n      dup3\n        /* \"#utility.yul\":28841:28865   */\n      tag_684\n      jump\t// in\n    tag_695:\n        /* \"#utility.yul\":28828:28865   */\n      swap1\n      pop\n        /* \"#utility.yul\":28818:28871   */\n      swap2\n      swap1\n      pop\n      jump\t// out\n        /* \"#utility.yul\":28877:29063   */\n    tag_489:\n      0x00\n        /* \"#utility.yul\":28990:29057   */\n      tag_697\n        /* \"#utility.yul\":29051:29056   */\n      dup3\n        /* \"#utility.yul\":28990:29057   */\n      tag_698\n      jump\t// in\n    tag_697:\n        /* \"#utility.yul\":28977:29057   */\n      swap1\n      pop\n        /* \"#utility.yul\":28967:29063   */\n      swap2\n      swap1\n      pop\n      jump\t// out\n        /* \"#utility.yul\":29069:29212   */\n    tag_698:\n      0x00\n        /* \"#utility.yul\":29182:29206   */\n      tag_700\n        /* \"#utility.yul\":29200:29205   */\n      dup3\n        /* \"#utility.yul\":29182:29206   */\n      tag_684\n      jump\t// in\n    tag_700:\n        /* \"#utility.yul\":29169:29206   */\n      swap1\n      pop\n        /* \"#utility.yul\":29159:29212   */\n      swap2\n      swap1\n      pop\n      jump\t// out\n        /* \"#utility.yul\":29218:29384   */\n    tag_493:\n      0x00\n        /* \"#utility.yul\":29321:29378   */\n      tag_702\n        /* \"#utility.yul\":29372:29377   */\n      dup3\n        /* \"#utility.yul\":29321:29378   */\n      tag_703\n      jump\t// in\n    tag_702:\n        /* \"#utility.yul\":29308:29378   */\n      swap1\n      pop\n        /* \"#utility.yul\":29298:29384   */\n      swap2\n      swap1\n      pop\n      jump\t// out\n        /* \"#utility.yul\":29390:29523   */\n    tag_703:\n      0x00\n        /* \"#utility.yul\":29493:29517   */\n      tag_705\n        /* \"#utility.yul\":29511:29516   */\n      dup3\n        /* \"#utility.yul\":29493:29517   */\n      tag_684\n      jump\t// in\n    tag_705:\n        /* \"#utility.yul\":29480:29517   */\n      swap1\n      pop\n        /* \"#utility.yul\":29470:29523   */\n      swap2\n      swap1\n      pop\n      jump\t// out\n        /* \"#utility.yul\":29529:29683   */\n    tag_363:\n        /* \"#utility.yul\":29613:29619   */\n      dup3\n        /* \"#utility.yul\":29608:29611   */\n      dup2\n        /* \"#utility.yul\":29603:29606   */\n      dup4\n        /* \"#utility.yul\":29590:29620   */\n      calldatacopy\n        /* \"#utility.yul\":29675:29676   */\n      0x00\n        /* \"#utility.yul\":29666:29672   */\n      dup4\n        /* \"#utility.yul\":29661:29664   */\n      dup4\n        /* \"#utility.yul\":29657:29673   */\n      add\n        /* \"#utility.yul\":29650:29677   */\n      mstore\n        /* \"#utility.yul\":29580:29683   */\n      pop\n      pop\n      pop\n      jump\t// out\n        /* \"#utility.yul\":29689:29996   */\n    tag_500:\n        /* \"#utility.yul\":29757:29758   */\n      0x00\n        /* \"#utility.yul\":29767:29880   */\n    tag_708:\n        /* \"#utility.yul\":29781:29787   */\n      dup4\n        /* \"#utility.yul\":29778:29779   */\n      dup2\n        /* \"#utility.yul\":29775:29788   */\n      lt\n        /* \"#utility.yul\":29767:29880   */\n      iszero\n      tag_710\n      jumpi\n        /* \"#utility.yul\":29866:29867   */\n      dup1\n        /* \"#utility.yul\":29861:29864   */\n      dup3\n        /* \"#utility.yul\":29857:29868   */\n      add\n        /* \"#utility.yul\":29851:29869   */\n      mload\n        /* \"#utility.yul\":29847:29848   */\n      dup2\n        /* \"#utility.yul\":29842:29845   */\n      dup5\n        /* \"#utility.yul\":29838:29849   */\n      add\n        /* \"#utility.yul\":29831:29870   */\n      mstore\n        /* \"#utility.yul\":29803:29805   */\n      0x20\n        /* \"#utility.yul\":29800:29801   */\n      dup2\n        /* \"#utility.yul\":29796:29806   */\n      add\n        /* \"#utility.yul\":29791:29806   */\n      swap1\n      pop\n        /* \"#utility.yul\":29767:29880   */\n      jump(tag_708)\n    tag_710:\n        /* \"#utility.yul\":29898:29904   */\n      dup4\n        /* \"#utility.yul\":29895:29896   */\n      dup2\n        /* \"#utility.yul\":29892:29905   */\n      gt\n        /* \"#utility.yul\":29889:29891   */\n      iszero\n      tag_711\n      jumpi\n        /* \"#utility.yul\":29978:29979   */\n      0x00\n        /* \"#utility.yul\":29969:29975   */\n      dup5\n        /* \"#utility.yul\":29964:29967   */\n      dup5\n        /* \"#utility.yul\":29960:29976   */\n      add\n        /* \"#utility.yul\":29953:29980   */\n      mstore\n        /* \"#utility.yul\":29889:29891   */\n    tag_711:\n        /* \"#utility.yul\":29738:29996   */\n      pop\n      pop\n      pop\n      pop\n      jump\t// out\n        /* \"#utility.yul\":30002:30173   */\n    tag_206:\n      0x00\n        /* \"#utility.yul\":30064:30088   */\n      tag_713\n        /* \"#utility.yul\":30082:30087   */\n      dup3\n        /* \"#utility.yul\":30064:30088   */\n      tag_573\n      jump\t// in\n    tag_713:\n        /* \"#utility.yul\":30055:30088   */\n      swap2\n      pop\n        /* \"#utility.yul\":30110:30114   */\n      0x00\n        /* \"#utility.yul\":30103:30108   */\n      dup3\n        /* \"#utility.yul\":30100:30115   */\n      eq\n        /* \"#utility.yul\":30097:30099   */\n      iszero\n      tag_714\n      jumpi\n        /* \"#utility.yul\":30118:30136   */\n      tag_715\n      tag_665\n      jump\t// in\n    tag_715:\n        /* \"#utility.yul\":30097:30099   */\n    tag_714:\n        /* \"#utility.yul\":30165:30166   */\n      0x01\n        /* \"#utility.yul\":30158:30163   */\n      dup3\n        /* \"#utility.yul\":30154:30167   */\n      sub\n        /* \"#utility.yul\":30147:30167   */\n      swap1\n      pop\n        /* \"#utility.yul\":30045:30173   */\n      swap2\n      swap1\n      pop\n      jump\t// out\n        /* \"#utility.yul\":30179:30499   */\n    tag_137:\n      0x00\n        /* \"#utility.yul\":30260:30261   */\n      0x02\n        /* \"#utility.yul\":30254:30258   */\n      dup3\n        /* \"#utility.yul\":30250:30262   */\n      div\n        /* \"#utility.yul\":30240:30262   */\n      swap1\n      pop\n        /* \"#utility.yul\":30307:30308   */\n      0x01\n        /* \"#utility.yul\":30301:30305   */\n      dup3\n        /* \"#utility.yul\":30297:30309   */\n      and\n        /* \"#utility.yul\":30328:30346   */\n      dup1\n        /* \"#utility.yul\":30318:30320   */\n      tag_717\n      jumpi\n        /* \"#utility.yul\":30384:30388   */\n      0x7f\n        /* \"#utility.yul\":30376:30382   */\n      dup3\n        /* \"#utility.yul\":30372:30389   */\n      and\n        /* \"#utility.yul\":30362:30389   */\n      swap2\n      pop\n        /* \"#utility.yul\":30318:30320   */\n    tag_717:\n        /* \"#utility.yul\":30446:30448   */\n      0x20\n        /* \"#utility.yul\":30438:30444   */\n      dup3\n        /* \"#utility.yul\":30435:30449   */\n      lt\n        /* \"#utility.yul\":30415:30433   */\n      dup2\n        /* \"#utility.yul\":30412:30450   */\n      eq\n        /* \"#utility.yul\":30409:30411   */\n      iszero\n      tag_718\n      jumpi\n        /* \"#utility.yul\":30465:30483   */\n      tag_719\n      tag_720\n      jump\t// in\n    tag_719:\n        /* \"#utility.yul\":30409:30411   */\n    tag_718:\n        /* \"#utility.yul\":30230:30499   */\n      pop\n      swap2\n      swap1\n      pop\n      jump\t// out\n        /* \"#utility.yul\":30505:30786   */\n    tag_635:\n        /* \"#utility.yul\":30588:30615   */\n      tag_722\n        /* \"#utility.yul\":30610:30614   */\n      dup3\n        /* \"#utility.yul\":30588:30615   */\n      tag_502\n      jump\t// in\n    tag_722:\n        /* \"#utility.yul\":30580:30586   */\n      dup2\n        /* \"#utility.yul\":30576:30616   */\n      add\n        /* \"#utility.yul\":30718:30724   */\n      dup2\n        /* \"#utility.yul\":30706:30716   */\n      dup2\n        /* \"#utility.yul\":30703:30725   */\n      lt\n        /* \"#utility.yul\":30682:30700   */\n      0xffffffffffffffff\n        /* \"#utility.yul\":30670:30680   */\n      dup3\n        /* \"#utility.yul\":30667:30701   */\n      gt\n        /* \"#utility.yul\":30664:30726   */\n      or\n        /* \"#utility.yul\":30661:30663   */\n      iszero\n      tag_723\n      jumpi\n        /* \"#utility.yul\":30729:30747   */\n      tag_724\n      tag_640\n      jump\t// in\n    tag_724:\n        /* \"#utility.yul\":30661:30663   */\n    tag_723:\n        /* \"#utility.yul\":30769:30779   */\n      dup1\n        /* \"#utility.yul\":30765:30767   */\n      0x40\n        /* \"#utility.yul\":30758:30780   */\n      mstore\n        /* \"#utility.yul\":30548:30786   */\n      pop\n      pop\n      pop\n      jump\t// out\n        /* \"#utility.yul\":30792:30892   */\n    tag_445:\n      0x00\n        /* \"#utility.yul\":30860:30886   */\n      tag_726\n        /* \"#utility.yul\":30880:30885   */\n      dup3\n        /* \"#utility.yul\":30860:30886   */\n      tag_727\n      jump\t// in\n    tag_726:\n        /* \"#utility.yul\":30849:30886   */\n      swap1\n      pop\n        /* \"#utility.yul\":30839:30892   */\n      swap2\n      swap1\n      pop\n      jump\t// out\n        /* \"#utility.yul\":30898:30992   */\n    tag_727:\n      0x00\n        /* \"#utility.yul\":30966:30986   */\n      tag_729\n        /* \"#utility.yul\":30980:30985   */\n      dup3\n        /* \"#utility.yul\":30966:30986   */\n      tag_730\n      jump\t// in\n    tag_729:\n        /* \"#utility.yul\":30955:30986   */\n      swap1\n      pop\n        /* \"#utility.yul\":30945:30992   */\n      swap2\n      swap1\n      pop\n      jump\t// out\n        /* \"#utility.yul\":30998:31077   */\n    tag_581:\n      0x00\n        /* \"#utility.yul\":31066:31071   */\n      dup2\n        /* \"#utility.yul\":31055:31071   */\n      swap1\n      pop\n        /* \"#utility.yul\":31045:31077   */\n      swap2\n      swap1\n      pop\n      jump\t// out\n        /* \"#utility.yul\":31083:31263   */\n    tag_665:\n        /* \"#utility.yul\":31131:31208   */\n      0x4e487b7100000000000000000000000000000000000000000000000000000000\n        /* \"#utility.yul\":31128:31129   */\n      0x00\n        /* \"#utility.yul\":31121:31209   */\n      mstore\n        /* \"#utility.yul\":31228:31232   */\n      0x11\n        /* \"#utility.yul\":31225:31226   */\n      0x04\n        /* \"#utility.yul\":31218:31233   */\n      mstore\n        /* \"#utility.yul\":31252:31256   */\n      0x24\n        /* \"#utility.yul\":31249:31250   */\n      0x00\n        /* \"#utility.yul\":31242:31257   */\n      revert\n        /* \"#utility.yul\":31269:31449   */\n    tag_671:\n        /* \"#utility.yul\":31317:31394   */\n      0x4e487b7100000000000000000000000000000000000000000000000000000000\n        /* \"#utility.yul\":31314:31315   */\n      0x00\n        /* \"#utility.yul\":31307:31395   */\n      mstore\n        /* \"#utility.yul\":31414:31418   */\n      0x12\n        /* \"#utility.yul\":31411:31412   */\n      0x04\n        /* \"#utility.yul\":31404:31419   */\n      mstore\n        /* \"#utility.yul\":31438:31442   */\n      0x24\n        /* \"#utility.yul\":31435:31436   */\n      0x00\n        /* \"#utility.yul\":31428:31443   */\n      revert\n        /* \"#utility.yul\":31455:31635   */\n    tag_720:\n        /* \"#utility.yul\":31503:31580   */\n      0x4e487b7100000000000000000000000000000000000000000000000000000000\n        /* \"#utility.yul\":31500:31501   */\n      0x00\n        /* \"#utility.yul\":31493:31581   */\n      mstore\n        /* \"#utility.yul\":31600:31604   */\n      0x22\n        /* \"#utility.yul\":31597:31598   */\n      0x04\n        /* \"#utility.yul\":31590:31605   */\n      mstore\n        /* \"#utility.yul\":31624:31628   */\n      0x24\n        /* \"#utility.yul\":31621:31622   */\n      0x00\n        /* \"#utility.yul\":31614:31629   */\n      revert\n        /* \"#utility.yul\":31641:31821   */\n    tag_640:\n        /* \"#utility.yul\":31689:31766   */\n      0x4e487b7100000000000000000000000000000000000000000000000000000000\n        /* \"#utility.yul\":31686:31687   */\n      0x00\n        /* \"#utility.yul\":31679:31767   */\n      mstore\n        /* \"#utility.yul\":31786:31790   */\n      0x41\n        /* \"#utility.yul\":31783:31784   */\n      0x04\n        /* \"#utility.yul\":31776:31791   */\n      mstore\n        /* \"#utility.yul\":31810:31814   */\n      0x24\n        /* \"#utility.yul\":31807:31808   */\n      0x00\n        /* \"#utility.yul\":31800:31815   */\n      revert\n        /* \"#utility.yul\":31827:31929   */\n    tag_502:\n      0x00\n        /* \"#utility.yul\":31919:31921   */\n      0x1f\n        /* \"#utility.yul\":31915:31922   */\n      not\n        /* \"#utility.yul\":31910:31912   */\n      0x1f\n        /* \"#utility.yul\":31903:31908   */\n      dup4\n        /* \"#utility.yul\":31899:31913   */\n      add\n        /* \"#utility.yul\":31895:31923   */\n      and\n        /* \"#utility.yul\":31885:31923   */\n      swap1\n      pop\n        /* \"#utility.yul\":31875:31929   */\n      swap2\n      swap1\n      pop\n      jump\t// out\n        /* \"#utility.yul\":31935:32029   */\n    tag_730:\n      0x00\n        /* \"#utility.yul\":32016:32021   */\n      dup2\n        /* \"#utility.yul\":32012:32014   */\n      0x60\n        /* \"#utility.yul\":32008:32022   */\n      shl\n        /* \"#utility.yul\":31987:32022   */\n      swap1\n      pop\n        /* \"#utility.yul\":31977:32029   */\n      swap2\n      swap1\n      pop\n      jump\t// out\n        /* \"#utility.yul\":32035:32217   */\n    tag_520:\n        /* \"#utility.yul\":32175:32209   */\n      0x537472696e67733a20686578206c656e67746820696e73756666696369656e74\n        /* \"#utility.yul\":32171:32172   */\n      0x00\n        /* \"#utility.yul\":32163:32169   */\n      dup3\n        /* \"#utility.yul\":32159:32173   */\n      add\n        /* \"#utility.yul\":32152:32210   */\n      mstore\n        /* \"#utility.yul\":32141:32217   */\n      pop\n      jump\t// out\n        /* \"#utility.yul\":32223:32381   */\n    tag_525:\n        /* \"#utility.yul\":32363:32373   */\n      0x4164647265737320000000000000000000000000000000000000000000000000\n        /* \"#utility.yul\":32359:32360   */\n      0x00\n        /* \"#utility.yul\":32351:32357   */\n      dup3\n        /* \"#utility.yul\":32347:32361   */\n      add\n        /* \"#utility.yul\":32340:32374   */\n      mstore\n        /* \"#utility.yul\":32329:32381   */\n      pop\n      jump\t// out\n        /* \"#utility.yul\":32387:32628   */\n    tag_530:\n        /* \"#utility.yul\":32527:32561   */\n      0x43616e6e6f74206d696e7420746f207472656173757279206164647265737320\n        /* \"#utility.yul\":32523:32524   */\n      0x00\n        /* \"#utility.yul\":32515:32521   */\n      dup3\n        /* \"#utility.yul\":32511:32525   */\n      add\n        /* \"#utility.yul\":32504:32562   */\n      mstore\n        /* \"#utility.yul\":32596:32620   */\n      0x756e74696c2073616c652069732066696e697368656400000000000000000000\n        /* \"#utility.yul\":32591:32593   */\n      0x20\n        /* \"#utility.yul\":32583:32589   */\n      dup3\n        /* \"#utility.yul\":32579:32594   */\n      add\n        /* \"#utility.yul\":32572:32621   */\n      mstore\n        /* \"#utility.yul\":32493:32628   */\n      pop\n      jump\t// out\n        /* \"#utility.yul\":32634:32811   */\n    tag_535:\n        /* \"#utility.yul\":32774:32803   */\n      0x74696d657374616d70206973206e6f742075702d746f2d646174650000000000\n        /* \"#utility.yul\":32770:32771   */\n      0x00\n        /* \"#utility.yul\":32762:32768   */\n      dup3\n        /* \"#utility.yul\":32758:32772   */\n      add\n        /* \"#utility.yul\":32751:32804   */\n      mstore\n        /* \"#utility.yul\":32740:32811   */\n      pop\n      jump\t// out\n        /* \"#utility.yul\":32817:33039   */\n    tag_540:\n        /* \"#utility.yul\":32957:32991   */\n      0x53656e646572206973206e6f742053616c65204d616e61676572206f72204164\n        /* \"#utility.yul\":32953:32954   */\n      0x00\n        /* \"#utility.yul\":32945:32951   */\n      dup3\n        /* \"#utility.yul\":32941:32955   */\n      add\n        /* \"#utility.yul\":32934:32992   */\n      mstore\n        /* \"#utility.yul\":33026:33031   */\n      0x6d696e0000000000000000000000000000000000000000000000000000000000\n        /* \"#utility.yul\":33021:33023   */\n      0x20\n        /* \"#utility.yul\":33013:33019   */\n      dup3\n        /* \"#utility.yul\":33009:33024   */\n      add\n        /* \"#utility.yul\":33002:33032   */\n      mstore\n        /* \"#utility.yul\":32923:33039   */\n      pop\n      jump\t// out\n        /* \"#utility.yul\":33045:33196   */\n    tag_545:\n        /* \"#utility.yul\":33185:33188   */\n      0x2500000000000000000000000000000000000000000000000000000000000000\n        /* \"#utility.yul\":33181:33182   */\n      0x00\n        /* \"#utility.yul\":33173:33179   */\n      dup3\n        /* \"#utility.yul\":33169:33183   */\n      add\n        /* \"#utility.yul\":33162:33189   */\n      mstore\n        /* \"#utility.yul\":33151:33196   */\n      pop\n      jump\t// out\n        /* \"#utility.yul\":33202:33437   */\n    tag_550:\n        /* \"#utility.yul\":33342:33376   */\n      0x20646f6573206e6f742068617665206120636f75706f6e207769746820612064\n        /* \"#utility.yul\":33338:33339   */\n      0x00\n        /* \"#utility.yul\":33330:33336   */\n      dup3\n        /* \"#utility.yul\":33326:33340   */\n      add\n        /* \"#utility.yul\":33319:33377   */\n      mstore\n        /* \"#utility.yul\":33411:33429   */\n      0x6973636f756e742072617465206f662000000000000000000000000000000000\n        /* \"#utility.yul\":33406:33408   */\n      0x20\n        /* \"#utility.yul\":33398:33404   */\n      dup3\n        /* \"#utility.yul\":33394:33409   */\n      add\n        /* \"#utility.yul\":33387:33430   */\n      mstore\n        /* \"#utility.yul\":33308:33437   */\n      pop\n      jump\t// out\n        /* \"#utility.yul\":33443:33624   */\n    tag_555:\n        /* \"#utility.yul\":33583:33616   */\n      0x737461727454696d65206973206c61746572207468616e20656e6454696d6500\n        /* \"#utility.yul\":33579:33580   */\n      0x00\n        /* \"#utility.yul\":33571:33577   */\n      dup3\n        /* \"#utility.yul\":33567:33581   */\n      add\n        /* \"#utility.yul\":33560:33617   */\n      mstore\n        /* \"#utility.yul\":33549:33624   */\n      pop\n      jump\t// out\n        /* \"#utility.yul\":33630:33803   */\n    tag_560:\n        /* \"#utility.yul\":33770:33795   */\n      0x416363657373436f6e74726f6c3a206163636f756e7420000000000000000000\n        /* \"#utility.yul\":33766:33767   */\n      0x00\n        /* \"#utility.yul\":33758:33764   */\n      dup3\n        /* \"#utility.yul\":33754:33768   */\n      add\n        /* \"#utility.yul\":33747:33796   */\n      mstore\n        /* \"#utility.yul\":33736:33803   */\n      pop\n      jump\t// out\n        /* \"#utility.yul\":33809:33976   */\n    tag_565:\n        /* \"#utility.yul\":33949:33968   */\n      0x206973206d697373696e6720726f6c6520000000000000000000000000000000\n        /* \"#utility.yul\":33945:33946   */\n      0x00\n        /* \"#utility.yul\":33937:33943   */\n      dup3\n        /* \"#utility.yul\":33933:33947   */\n      add\n        /* \"#utility.yul\":33926:33969   */\n      mstore\n        /* \"#utility.yul\":33915:33976   */\n      pop\n      jump\t// out\n        /* \"#utility.yul\":33982:34216   */\n    tag_570:\n        /* \"#utility.yul\":34122:34156   */\n      0x416363657373436f6e74726f6c3a2063616e206f6e6c792072656e6f756e6365\n        /* \"#utility.yul\":34118:34119   */\n      0x00\n        /* \"#utility.yul\":34110:34116   */\n      dup3\n        /* \"#utility.yul\":34106:34120   */\n      add\n        /* \"#utility.yul\":34099:34157   */\n      mstore\n        /* \"#utility.yul\":34191:34208   */\n      0x20726f6c657320666f722073656c660000000000000000000000000000000000\n        /* \"#utility.yul\":34186:34188   */\n      0x20\n        /* \"#utility.yul\":34178:34184   */\n      dup3\n        /* \"#utility.yul\":34174:34189   */\n      add\n        /* \"#utility.yul\":34167:34209   */\n      mstore\n        /* \"#utility.yul\":34088:34216   */\n      pop\n      jump\t// out\n        /* \"#utility.yul\":34222:34344   */\n    tag_367:\n        /* \"#utility.yul\":34295:34319   */\n      tag_750\n        /* \"#utility.yul\":34313:34318   */\n      dup2\n        /* \"#utility.yul\":34295:34319   */\n      tag_440\n      jump\t// in\n    tag_750:\n        /* \"#utility.yul\":34288:34293   */\n      dup2\n        /* \"#utility.yul\":34285:34320   */\n      eq\n        /* \"#utility.yul\":34275:34277   */\n      tag_751\n      jumpi\n        /* \"#utility.yul\":34334:34335   */\n      0x00\n        /* \"#utility.yul\":34331:34332   */\n      dup1\n        /* \"#utility.yul\":34324:34336   */\n      revert\n        /* \"#utility.yul\":34275:34277   */\n    tag_751:\n        /* \"#utility.yul\":34265:34344   */\n      pop\n      jump\t// out\n        /* \"#utility.yul\":34350:34466   */\n    tag_379:\n        /* \"#utility.yul\":34420:34441   */\n      tag_753\n        /* \"#utility.yul\":34435:34440   */\n      dup2\n        /* \"#utility.yul\":34420:34441   */\n      tag_477\n      jump\t// in\n    tag_753:\n        /* \"#utility.yul\":34413:34418   */\n      dup2\n        /* \"#utility.yul\":34410:34442   */\n      eq\n        /* \"#utility.yul\":34400:34402   */\n      tag_754\n      jumpi\n        /* \"#utility.yul\":34456:34457   */\n      0x00\n        /* \"#utility.yul\":34453:34454   */\n      dup1\n        /* \"#utility.yul\":34446:34458   */\n      revert\n        /* \"#utility.yul\":34400:34402   */\n    tag_754:\n        /* \"#utility.yul\":34390:34466   */\n      pop\n      jump\t// out\n        /* \"#utility.yul\":34472:34594   */\n    tag_383:\n        /* \"#utility.yul\":34545:34569   */\n      tag_756\n        /* \"#utility.yul\":34563:34568   */\n      dup2\n        /* \"#utility.yul\":34545:34569   */\n      tag_481\n      jump\t// in\n    tag_756:\n        /* \"#utility.yul\":34538:34543   */\n      dup2\n        /* \"#utility.yul\":34535:34570   */\n      eq\n        /* \"#utility.yul\":34525:34527   */\n      tag_757\n      jumpi\n        /* \"#utility.yul\":34584:34585   */\n      0x00\n        /* \"#utility.yul\":34581:34582   */\n      dup1\n        /* \"#utility.yul\":34574:34586   */\n      revert\n        /* \"#utility.yul\":34525:34527   */\n    tag_757:\n        /* \"#utility.yul\":34515:34594   */\n      pop\n      jump\t// out\n        /* \"#utility.yul\":34600:34720   */\n    tag_387:\n        /* \"#utility.yul\":34672:34695   */\n      tag_759\n        /* \"#utility.yul\":34689:34694   */\n      dup2\n        /* \"#utility.yul\":34672:34695   */\n      tag_687\n      jump\t// in\n    tag_759:\n        /* \"#utility.yul\":34665:34670   */\n      dup2\n        /* \"#utility.yul\":34662:34696   */\n      eq\n        /* \"#utility.yul\":34652:34654   */\n      tag_760\n      jumpi\n        /* \"#utility.yul\":34710:34711   */\n      0x00\n        /* \"#utility.yul\":34707:34708   */\n      dup1\n        /* \"#utility.yul\":34700:34712   */\n      revert\n        /* \"#utility.yul\":34652:34654   */\n    tag_760:\n        /* \"#utility.yul\":34642:34720   */\n      pop\n      jump\t// out\n        /* \"#utility.yul\":34726:34848   */\n    tag_393:\n        /* \"#utility.yul\":34799:34823   */\n      tag_762\n        /* \"#utility.yul\":34817:34822   */\n      dup2\n        /* \"#utility.yul\":34799:34823   */\n      tag_573\n      jump\t// in\n    tag_762:\n        /* \"#utility.yul\":34792:34797   */\n      dup2\n        /* \"#utility.yul\":34789:34824   */\n      eq\n        /* \"#utility.yul\":34779:34781   */\n      tag_763\n      jumpi\n        /* \"#utility.yul\":34838:34839   */\n      0x00\n        /* \"#utility.yul\":34835:34836   */\n      dup1\n        /* \"#utility.yul\":34828:34840   */\n      revert\n        /* \"#utility.yul\":34779:34781   */\n    tag_763:\n        /* \"#utility.yul\":34769:34848   */\n      pop\n      jump\t// out\n\n    auxdata: 0xa2646970667358221220ecb9338e8e14ee6533baa0054f09c1948e22383566bfa64b12395654d322df2b64736f6c63430008010033\n}\n",
				"bytecode": {
					"linkReferences": {},
					"object": "60806040526370dc49006005556370dc4964600655620f4240600a620000269190620000aa565b600755620f424060016200003b9190620000aa565b6008556040518060600160405280612710815260200142815260200160001515815250600a600082015181600001556020820151816001015560408201518160020160006101000a81548160ff0219169083151502179055505050348015620000a357600080fd5b5062000144565b6000620000b7826200010b565b9150620000c4836200010b565b9250817fffffffffffffffffffffffffffffffffffffffffffffffffffffffffffffffff04831182151516156200010057620000ff62000115565b5b828202905092915050565b6000819050919050565b7f4e487b7100000000000000000000000000000000000000000000000000000000600052601160045260246000fd5b612a4880620001546000396000f3fe608060405234801561001057600080fd5b506004361061018e5760003560e01c80638c83faeb116100de578063bff29cee11610097578063c5f956af11610071578063c5f956af1461043d578063ccb98ffc1461045b578063d547741f14610477578063f121da92146104935761018e565b8063bff29cee146103f5578063c0463711146103ff578063c5dae48f1461041f5761018e565b80638c83faeb1461033357806391232f181461035157806391d148541461035b578063944044a11461038b578063a217fddf146103a7578063ab6c0306146103c55761018e565b80634c9b73da1161014b5780635ce7e721116101255780635ce7e721146102cf578063673402e5146102ed578063682d07d9146102f757806368fc01a2146103155761018e565b80634c9b73da1461027957806351f7598c14610295578063551b42a8146102b15761018e565b806301ffc9a7146101935780631c7a9b65146101c3578063248a9ca3146101f35780632f2ff15d1461022357806336568abe1461023f5780634c0f38c21461025b575b600080fd5b6101ad60048036038101906101a89190611b15565b6104af565b6040516101ba919061205b565b60405180910390f35b6101dd60048036038101906101d89190611b3e565b610529565b6040516101ea91906120e2565b60405180910390f35b61020d60048036038101906102089190611ab0565b6105d5565b60405161021a9190612076565b60405180910390f35b61023d60048036038101906102389190611ad9565b6105f4565b005b61025960048036038101906102549190611ad9565b61061d565b005b6102636106a0565b60405161027091906121c4565b60405180910390f35b610293600480360381019061028e9190611b3e565b610747565b005b6102af60048036038101906102aa91906119b6565b61076a565b005b6102b96107c4565b6040516102c69190612076565b60405180910390f35b6102d76107e8565b6040516102e491906120ac565b60405180910390f35b6102f561080e565b005b6102ff61089f565b60405161030c9190612076565b60405180910390f35b61031d6108c3565b60405161032a91906121c4565b60405180910390f35b61033b61096a565b6040516103489190612091565b60405180910390f35b610359610990565b005b61037560048036038101906103709190611ad9565b610aac565b604051610382919061205b565b60405180910390f35b6103a560048036038101906103a09190611b3e565b610b16565b005b6103af610bab565b6040516103bc9190612076565b60405180910390f35b6103df60048036038101906103da91906119df565b610bb2565b6040516103ec91906121c4565b60405180910390f35b6103fd610d43565b005b610407610d61565b604051610416939291906121df565b60405180910390f35b610427610d86565b60405161043491906120c7565b60405180910390f35b610445610dac565b6040516104529190611fe0565b60405180910390f35b61047560048036038101906104709190611b3e565b610dd2565b005b610491600480360381019061048c9190611ad9565b610e67565b005b6104ad60048036038101906104a89190611a1b565b610e90565b005b60007f7965db0b000000000000000000000000000000000000000000000000000000007bffffffffffffffffffffffffffffffffffffffffffffffffffffffff1916827bffffffffffffffffffffffffffffffffffffffffffffffffffffffff19161480610522575061052182610f23565b5b9050919050565b6009818154811061053957600080fd5b906000526020600020016000915090508054610554906125d9565b80601f0160208091040260200160405190810160405280929190818152602001828054610580906125d9565b80156105cd5780601f106105a2576101008083540402835291602001916105cd565b820191906000526020600020905b8154815290600101906020018083116105b057829003601f168201915b505050505081565b6000806000838152602001908152602001600020600101549050919050565b6105fd826105d5565b61060e81610609610f8d565b610f95565b6106188383611032565b505050565b610625610f8d565b73ffffffffffffffffffffffffffffffffffffffff168173ffffffffffffffffffffffffffffffffffffffff1614610692576040517f08c379a0000000000000000000000000000000000000000000000000000000008152600401610689906121a4565b60405180910390fd5b61069c8282611112565b5050565b6000600160009054906101000a900473ffffffffffffffffffffffffffffffffffffffff1673ffffffffffffffffffffffffffffffffffffffff16634c0f38c26040518163ffffffff1660e01b815260040160206040518083038186803b15801561070a57600080fd5b505afa15801561071e573d6000803e3d6000fd5b505050506040513d601f19601f820116820180604052508101906107429190611b67565b905090565b61074f6111f3565b600061075b3383610bb2565b9050610766816112eb565b5050565b6000801b61077f8161077a610f8d565b610f95565b81600160006101000a81548173ffffffffffffffffffffffffffffffffffffffff021916908373ffffffffffffffffffffffffffffffffffffffff1602179055505050565b7f988301af8238f779281a300de031815cd01b48e9f1ae47a0f91ed6584213624a81565b600260009054906101000a900473ffffffffffffffffffffffffffffffffffffffff1681565b6040518060400160405280600181526020017f4a00000000000000000000000000000000000000000000000000000000000000815250600960008154811061087f577f4e487b7100000000000000000000000000000000000000000000000000000000600052603260045260246000fd5b90600052602060002001908051906020019061089c929190611710565b50565b7fa70a2d8710fed9f014c8c2af50c7c2f6b25748ae4cded822e03b7beed44cf3a881565b6000600160009054906101000a900473ffffffffffffffffffffffffffffffffffffffff1673ffffffffffffffffffffffffffffffffffffffff166368fc01a26040518163ffffffff1660e01b815260040160206040518083038186803b15801561092d57600080fd5b505afa158015610941573d6000803e3d6000fd5b505050506040513d601f19601f820116820180604052508101906109659190611b67565b905090565b600160009054906101000a900473ffffffffffffffffffffffffffffffffffffffff1681565b42600a60010154146109d7576040517f08c379a00000000000000000000000000000000000000000000000000000000081526004016109ce90612144565b60405180910390fd5b600654421180156109f85750600a60020160009054906101000a900460ff16155b610a37576040517f08c379a0000000000000000000000000000000000000000000000000000000008152600401610a2e90612124565b60405180910390fd5b60006001610a436108c3565b610a4d919061244f565b610a556106a0565b610a5f919061244f565b90505b6000811115610aa957610a96600460009054906101000a900473ffffffffffffffffffffffffffffffffffffffff16611386565b8080610aa1906125af565b915050610a62565b50565b600080600084815260200190815260200160002060000160008373ffffffffffffffffffffffffffffffffffffffff1673ffffffffffffffffffffffffffffffffffffffff16815260200190815260200160002060009054906101000a900460ff16905092915050565b610b477f988301af8238f779281a300de031815cd01b48e9f1ae47a0f91ed6584213624a610b42610f8d565b610aac565b80610b625750610b616000801b610b5c610f8d565b610aac565b5b610ba1576040517f08c379a0000000000000000000000000000000000000000000000000000000008152600401610b9890612164565b60405180910390fd5b8060058190555050565b6000801b81565b600042600a6001015414610bfb576040517f08c379a0000000000000000000000000000000000000000000000000000000008152600401610bf290612144565b60405180910390fd5b600260009054906101000a900473ffffffffffffffffffffffffffffffffffffffff1673ffffffffffffffffffffffffffffffffffffffff16632080179d84846040518363ffffffff1660e01b8152600401610c58929190611ffb565b60206040518083038186803b158015610c7057600080fd5b505afa158015610c84573d6000803e3d6000fd5b505050506040513d601f19601f82011682018060405250810190610ca89190611a87565b8383604051602001610cbb929190611f59565b60405160208183030381529060405290610d0b576040517f08c379a0000000000000000000000000000000000000000000000000000000008152600401610d0291906120e2565b60405180910390fd5b506000826064610d1b919061244f565b6064600a60000154610d2d91906123c4565b610d3791906123f5565b90508091505092915050565b610d4b6111f3565b6000600a600001549050610d5e816112eb565b50565b600a8060000154908060010154908060020160009054906101000a900460ff16905083565b600360009054906101000a900473ffffffffffffffffffffffffffffffffffffffff1681565b600460009054906101000a900473ffffffffffffffffffffffffffffffffffffffff1681565b610e037f988301af8238f779281a300de031815cd01b48e9f1ae47a0f91ed6584213624a610dfe610f8d565b610aac565b80610e1e5750610e1d6000801b610e18610f8d565b610aac565b5b610e5d576040517f08c379a0000000000000000000000000000000000000000000000000000000008152600401610e5490612164565b60405180910390fd5b8060068190555050565b610e70826105d5565b610e8181610e7c610f8d565b610f95565b610e8b8383611112565b505050565b600160009054906101000a900473ffffffffffffffffffffffffffffffffffffffff1673ffffffffffffffffffffffffffffffffffffffff1663f121da9283836040518363ffffffff1660e01b8152600401610eed929190612024565b600060405180830381600087803b158015610f0757600080fd5b505af1158015610f1b573d6000803e3d6000fd5b505050505050565b60007f01ffc9a7000000000000000000000000000000000000000000000000000000007bffffffffffffffffffffffffffffffffffffffffffffffffffffffff1916827bffffffffffffffffffffffffffffffffffffffffffffffffffffffff1916149050919050565b600033905090565b610f9f8282610aac565b61102e57610fc48173ffffffffffffffffffffffffffffffffffffffff166014611416565b610fd28360001c6020611416565b604051602001610fe3929190611fa6565b6040516020818303038152906040526040517f08c379a000000000000000000000000000000000000000000000000000000000815260040161102591906120e2565b60405180910390fd5b5050565b61103c8282610aac565b61110e57600160008084815260200190815260200160002060000160008373ffffffffffffffffffffffffffffffffffffffff1673ffffffffffffffffffffffffffffffffffffffff16815260200190815260200160002060006101000a81548160ff0219169083151502179055506110b3610f8d565b73ffffffffffffffffffffffffffffffffffffffff168173ffffffffffffffffffffffffffffffffffffffff16837f2f8788117e7eff1d82e926ec794901d17c78024a50270940304540a733656f0d60405160405180910390a45b5050565b61111c8282610aac565b156111ef57600080600084815260200190815260200160002060000160008373ffffffffffffffffffffffffffffffffffffffff1673ffffffffffffffffffffffffffffffffffffffff16815260200190815260200160002060006101000a81548160ff021916908315150217905550611194610f8d565b73ffffffffffffffffffffffffffffffffffffffff168173ffffffffffffffffffffffffffffffffffffffff16837ff6391f5c32d9c69d2a47ea670b442974b53935d1edc7fd64eb21e047a839171b60405160405180910390a45b5050565b600654600554111561123a576040517f08c379a000000000000000000000000000000000000000000000000000000000815260040161123190612184565b60405180910390fd5b620f4240600161124a91906123f5565b603c6005544261125a919061244f565b61126491906123c4565b61126e91906123f5565b60075461127b919061244f565b600a6000018190555042600a6001018190555060055442101580156112a257506006544211155b156112ca576001600a60020160006101000a81548160ff0219169083151502179055506112e9565b6000600a60020160006101000a81548160ff0219169083151502179055505b565b600360009054906101000a900473ffffffffffffffffffffffffffffffffffffffff1673ffffffffffffffffffffffffffffffffffffffff1663532b291333836040518363ffffffff1660e01b8152600401611348929190611ffb565b600060405180830381600087803b15801561136257600080fd5b505af1158015611376573d6000803e3d6000fd5b5050505061138333611386565b50565b600160009054906101000a900473ffffffffffffffffffffffffffffffffffffffff1673ffffffffffffffffffffffffffffffffffffffff166355676590826040518263ffffffff1660e01b81526004016113e19190611fe0565b600060405180830381600087803b1580156113fb57600080fd5b505af115801561140f573d6000803e3d6000fd5b5050505050565b60606000600283600261142991906123f5565b611433919061236e565b67ffffffffffffffff811115611472577f4e487b7100000000000000000000000000000000000000000000000000000000600052604160045260246000fd5b6040519080825280601f01601f1916602001820160405280156114a45781602001600182028036833780820191505090505b5090507f300000000000000000000000000000000000000000000000000000000000000081600081518110611502577f4e487b7100000000000000000000000000000000000000000000000000000000600052603260045260246000fd5b60200101907effffffffffffffffffffffffffffffffffffffffffffffffffffffffffffff1916908160001a9053507f78000000000000000000000000000000000000000000000000000000000000008160018151811061158c577f4e487b7100000000000000000000000000000000000000000000000000000000600052603260045260246000fd5b60200101907effffffffffffffffffffffffffffffffffffffffffffffffffffffffffffff1916908160001a905350600060018460026115cc91906123f5565b6115d6919061236e565b90505b60018111156116c2577f3031323334353637383961626364656600000000000000000000000000000000600f86166010811061163e577f4e487b7100000000000000000000000000000000000000000000000000000000600052603260045260246000fd5b1a60f81b82828151811061167b577f4e487b7100000000000000000000000000000000000000000000000000000000600052603260045260246000fd5b60200101907effffffffffffffffffffffffffffffffffffffffffffffffffffffffffffff1916908160001a905350600485901c9450806116bb906125af565b90506115d9565b5060008414611706576040517f08c379a00000000000000000000000000000000000000000000000000000000081526004016116fd90612104565b60405180910390fd5b8091505092915050565b82805461171c906125d9565b90600052602060002090601f01602090048101928261173e5760008555611785565b82601f1061175757805160ff1916838001178555611785565b82800160010185558215611785579182015b82811115611784578251825591602001919060010190611769565b5b5090506117929190611796565b5090565b5b808211156117af576000816000905550600101611797565b5090565b60006117c66117c18461223b565b612216565b9050808382526020820190508260005b8581101561180657813585016117ec8882611962565b8452602084019350602083019250506001810190506117d6565b5050509392505050565b600061182361181e84612267565b612216565b9050808382526020820190508285602086028201111561184257600080fd5b60005b858110156118725781611858888261198c565b845260208401935060208301925050600181019050611845565b5050509392505050565b600061188f61188a84612293565b612216565b9050828152602081018484840111156118a757600080fd5b6118b284828561256d565b509392505050565b6000813590506118c98161299f565b92915050565b600082601f8301126118e057600080fd5b81356118f08482602086016117b3565b91505092915050565b600082601f83011261190a57600080fd5b813561191a848260208601611810565b91505092915050565b600081519050611932816129b6565b92915050565b600081359050611947816129cd565b92915050565b60008135905061195c816129e4565b92915050565b600082601f83011261197357600080fd5b813561198384826020860161187c565b91505092915050565b60008135905061199b816129fb565b92915050565b6000815190506119b0816129fb565b92915050565b6000602082840312156119c857600080fd5b60006119d6848285016118ba565b91505092915050565b600080604083850312156119f257600080fd5b6000611a00858286016118ba565b9250506020611a118582860161198c565b9150509250929050565b60008060408385031215611a2e57600080fd5b600083013567ffffffffffffffff811115611a4857600080fd5b611a54858286016118f9565b925050602083013567ffffffffffffffff811115611a7157600080fd5b611a7d858286016118cf565b9150509250929050565b600060208284031215611a9957600080fd5b6000611aa784828501611923565b91505092915050565b600060208284031215611ac257600080fd5b6000611ad084828501611938565b91505092915050565b60008060408385031215611aec57600080fd5b6000611afa85828601611938565b9250506020611b0b858286016118ba565b9150509250929050565b600060208284031215611b2757600080fd5b6000611b358482850161194d565b91505092915050565b600060208284031215611b5057600080fd5b6000611b5e8482850161198c565b91505092915050565b600060208284031215611b7957600080fd5b6000611b87848285016119a1565b91505092915050565b6000611b9c8383611d00565b905092915050565b6000611bb08383611f24565b60208301905092915050565b611bc581612483565b82525050565b611bdc611bd782612483565b61263c565b82525050565b6000611bed826122e4565b611bf7818561231f565b935083602082028501611c09856122c4565b8060005b85811015611c455784840389528151611c268582611b90565b9450611c3183612305565b925060208a01995050600181019050611c0d565b50829750879550505050505092915050565b6000611c62826122ef565b611c6c8185612330565b9350611c77836122d4565b8060005b83811015611ca8578151611c8f8882611ba4565b9750611c9a83612312565b925050600181019050611c7b565b5085935050505092915050565b611cbe81612495565b82525050565b611ccd816124a1565b82525050565b611cdc81612501565b82525050565b611ceb81612525565b82525050565b611cfa81612549565b82525050565b6000611d0b826122fa565b611d158185612341565b9350611d2581856020860161257c565b611d2e81612726565b840191505092915050565b6000611d44826122fa565b611d4e8185612352565b9350611d5e81856020860161257c565b611d6781612726565b840191505092915050565b6000611d7d826122fa565b611d878185612363565b9350611d9781856020860161257c565b80840191505092915050565b6000611db0602083612352565b9150611dbb82612744565b602082019050919050565b6000611dd3600883612363565b9150611dde8261276d565b600882019050919050565b6000611df6603683612352565b9150611e0182612796565b604082019050919050565b6000611e19601b83612352565b9150611e24826127e5565b602082019050919050565b6000611e3c602383612352565b9150611e478261280e565b604082019050919050565b6000611e5f600183612363565b9150611e6a8261285d565b600182019050919050565b6000611e82603083612363565b9150611e8d82612886565b603082019050919050565b6000611ea5601f83612352565b9150611eb0826128d5565b602082019050919050565b6000611ec8601783612363565b9150611ed3826128fe565b601782019050919050565b6000611eeb601183612363565b9150611ef682612927565b601182019050919050565b6000611f0e602f83612352565b9150611f1982612950565b604082019050919050565b611f2d816124f7565b82525050565b611f3c816124f7565b82525050565b611f53611f4e826124f7565b612660565b82525050565b6000611f6482611dc6565b9150611f708285611bcb565b601482019150611f7f82611e75565b9150611f8b8284611f42565b602082019150611f9a82611e52565b91508190509392505050565b6000611fb182611ebb565b9150611fbd8285611d72565b9150611fc882611ede565b9150611fd48284611d72565b91508190509392505050565b6000602082019050611ff56000830184611bbc565b92915050565b60006040820190506120106000830185611bbc565b61201d6020830184611f33565b9392505050565b6000604082019050818103600083015261203e8185611c57565b905081810360208301526120528184611be2565b90509392505050565b60006020820190506120706000830184611cb5565b92915050565b600060208201905061208b6000830184611cc4565b92915050565b60006020820190506120a66000830184611cd3565b92915050565b60006020820190506120c16000830184611ce2565b92915050565b60006020820190506120dc6000830184611cf1565b92915050565b600060208201905081810360008301526120fc8184611d39565b905092915050565b6000602082019050818103600083015261211d81611da3565b9050919050565b6000602082019050818103600083015261213d81611de9565b9050919050565b6000602082019050818103600083015261215d81611e0c565b9050919050565b6000602082019050818103600083015261217d81611e2f565b9050919050565b6000602082019050818103600083015261219d81611e98565b9050919050565b600060208201905081810360008301526121bd81611f01565b9050919050565b60006020820190506121d96000830184611f33565b92915050565b60006060820190506121f46000830186611f33565b6122016020830185611f33565b61220e6040830184611cb5565b949350505050565b6000612220612231565b905061222c828261260b565b919050565b6000604051905090565b600067ffffffffffffffff821115612256576122556126f7565b5b602082029050602081019050919050565b600067ffffffffffffffff821115612282576122816126f7565b5b602082029050602081019050919050565b600067ffffffffffffffff8211156122ae576122ad6126f7565b5b6122b782612726565b9050602081019050919050565b6000819050602082019050919050565b6000819050602082019050919050565b600081519050919050565b600081519050919050565b600081519050919050565b6000602082019050919050565b6000602082019050919050565b600082825260208201905092915050565b600082825260208201905092915050565b600082825260208201905092915050565b600082825260208201905092915050565b600081905092915050565b6000612379826124f7565b9150612384836124f7565b9250827fffffffffffffffffffffffffffffffffffffffffffffffffffffffffffffffff038211156123b9576123b861266a565b5b828201905092915050565b60006123cf826124f7565b91506123da836124f7565b9250826123ea576123e9612699565b5b828204905092915050565b6000612400826124f7565b915061240b836124f7565b9250817fffffffffffffffffffffffffffffffffffffffffffffffffffffffffffffffff04831182151516156124445761244361266a565b5b828202905092915050565b600061245a826124f7565b9150612465836124f7565b9250828210156124785761247761266a565b5b828203905092915050565b600061248e826124d7565b9050919050565b60008115159050919050565b6000819050919050565b60007fffffffff0000000000000000000000000000000000000000000000000000000082169050919050565b600073ffffffffffffffffffffffffffffffffffffffff82169050919050565b6000819050919050565b600061250c82612513565b9050919050565b600061251e826124d7565b9050919050565b600061253082612537565b9050919050565b6000612542826124d7565b9050919050565b60006125548261255b565b9050919050565b6000612566826124d7565b9050919050565b82818337600083830152505050565b60005b8381101561259a57808201518184015260208101905061257f565b838111156125a9576000848401525b50505050565b60006125ba826124f7565b915060008214156125ce576125cd61266a565b5b600182039050919050565b600060028204905060018216806125f157607f821691505b60208210811415612605576126046126c8565b5b50919050565b61261482612726565b810181811067ffffffffffffffff82111715612633576126326126f7565b5b80604052505050565b60006126478261264e565b9050919050565b600061265982612737565b9050919050565b6000819050919050565b7f4e487b7100000000000000000000000000000000000000000000000000000000600052601160045260246000fd5b7f4e487b7100000000000000000000000000000000000000000000000000000000600052601260045260246000fd5b7f4e487b7100000000000000000000000000000000000000000000000000000000600052602260045260246000fd5b7f4e487b7100000000000000000000000000000000000000000000000000000000600052604160045260246000fd5b6000601f19601f8301169050919050565b60008160601b9050919050565b7f537472696e67733a20686578206c656e67746820696e73756666696369656e74600082015250565b7f4164647265737320000000000000000000000000000000000000000000000000600082015250565b7f43616e6e6f74206d696e7420746f20747265617375727920616464726573732060008201527f756e74696c2073616c652069732066696e697368656400000000000000000000602082015250565b7f74696d657374616d70206973206e6f742075702d746f2d646174650000000000600082015250565b7f53656e646572206973206e6f742053616c65204d616e61676572206f7220416460008201527f6d696e0000000000000000000000000000000000000000000000000000000000602082015250565b7f2500000000000000000000000000000000000000000000000000000000000000600082015250565b7f20646f6573206e6f742068617665206120636f75706f6e20776974682061206460008201527f6973636f756e742072617465206f662000000000000000000000000000000000602082015250565b7f737461727454696d65206973206c61746572207468616e20656e6454696d6500600082015250565b7f416363657373436f6e74726f6c3a206163636f756e7420000000000000000000600082015250565b7f206973206d697373696e6720726f6c6520000000000000000000000000000000600082015250565b7f416363657373436f6e74726f6c3a2063616e206f6e6c792072656e6f756e636560008201527f20726f6c657320666f722073656c660000000000000000000000000000000000602082015250565b6129a881612483565b81146129b357600080fd5b50565b6129bf81612495565b81146129ca57600080fd5b50565b6129d6816124a1565b81146129e157600080fd5b50565b6129ed816124ab565b81146129f857600080fd5b50565b612a04816124f7565b8114612a0f57600080fd5b5056fea2646970667358221220ecb9338e8e14ee6533baa0054f09c1948e22383566bfa64b12395654d322df2b64736f6c63430008010033",
					"opcodes": "PUSH1 0x80 PUSH1 0x40 MSTORE PUSH4 0x70DC4900 PUSH1 0x5 SSTORE PUSH4 0x70DC4964 PUSH1 0x6 SSTORE PUSH3 0xF4240 PUSH1 0xA PUSH3 0x26 SWAP2 SWAP1 PUSH3 0xAA JUMP JUMPDEST PUSH1 0x7 SSTORE PUSH3 0xF4240 PUSH1 0x1 PUSH3 0x3B SWAP2 SWAP1 PUSH3 0xAA JUMP JUMPDEST PUSH1 0x8 SSTORE PUSH1 0x40 MLOAD DUP1 PUSH1 0x60 ADD PUSH1 0x40 MSTORE DUP1 PUSH2 0x2710 DUP2 MSTORE PUSH1 0x20 ADD TIMESTAMP DUP2 MSTORE PUSH1 0x20 ADD PUSH1 0x0 ISZERO ISZERO DUP2 MSTORE POP PUSH1 0xA PUSH1 0x0 DUP3 ADD MLOAD DUP2 PUSH1 0x0 ADD SSTORE PUSH1 0x20 DUP3 ADD MLOAD DUP2 PUSH1 0x1 ADD SSTORE PUSH1 0x40 DUP3 ADD MLOAD DUP2 PUSH1 0x2 ADD PUSH1 0x0 PUSH2 0x100 EXP DUP2 SLOAD DUP2 PUSH1 0xFF MUL NOT AND SWAP1 DUP4 ISZERO ISZERO MUL OR SWAP1 SSTORE POP POP POP CALLVALUE DUP1 ISZERO PUSH3 0xA3 JUMPI PUSH1 0x0 DUP1 REVERT JUMPDEST POP PUSH3 0x144 JUMP JUMPDEST PUSH1 0x0 PUSH3 0xB7 DUP3 PUSH3 0x10B JUMP JUMPDEST SWAP2 POP PUSH3 0xC4 DUP4 PUSH3 0x10B JUMP JUMPDEST SWAP3 POP DUP2 PUSH32 0xFFFFFFFFFFFFFFFFFFFFFFFFFFFFFFFFFFFFFFFFFFFFFFFFFFFFFFFFFFFFFFFF DIV DUP4 GT DUP3 ISZERO ISZERO AND ISZERO PUSH3 0x100 JUMPI PUSH3 0xFF PUSH3 0x115 JUMP JUMPDEST JUMPDEST DUP3 DUP3 MUL SWAP1 POP SWAP3 SWAP2 POP POP JUMP JUMPDEST PUSH1 0x0 DUP2 SWAP1 POP SWAP2 SWAP1 POP JUMP JUMPDEST PUSH32 0x4E487B7100000000000000000000000000000000000000000000000000000000 PUSH1 0x0 MSTORE PUSH1 0x11 PUSH1 0x4 MSTORE PUSH1 0x24 PUSH1 0x0 REVERT JUMPDEST PUSH2 0x2A48 DUP1 PUSH3 0x154 PUSH1 0x0 CODECOPY PUSH1 0x0 RETURN INVALID PUSH1 0x80 PUSH1 0x40 MSTORE CALLVALUE DUP1 ISZERO PUSH2 0x10 JUMPI PUSH1 0x0 DUP1 REVERT JUMPDEST POP PUSH1 0x4 CALLDATASIZE LT PUSH2 0x18E JUMPI PUSH1 0x0 CALLDATALOAD PUSH1 0xE0 SHR DUP1 PUSH4 0x8C83FAEB GT PUSH2 0xDE JUMPI DUP1 PUSH4 0xBFF29CEE GT PUSH2 0x97 JUMPI DUP1 PUSH4 0xC5F956AF GT PUSH2 0x71 JUMPI DUP1 PUSH4 0xC5F956AF EQ PUSH2 0x43D JUMPI DUP1 PUSH4 0xCCB98FFC EQ PUSH2 0x45B JUMPI DUP1 PUSH4 0xD547741F EQ PUSH2 0x477 JUMPI DUP1 PUSH4 0xF121DA92 EQ PUSH2 0x493 JUMPI PUSH2 0x18E JUMP JUMPDEST DUP1 PUSH4 0xBFF29CEE EQ PUSH2 0x3F5 JUMPI DUP1 PUSH4 0xC0463711 EQ PUSH2 0x3FF JUMPI DUP1 PUSH4 0xC5DAE48F EQ PUSH2 0x41F JUMPI PUSH2 0x18E JUMP JUMPDEST DUP1 PUSH4 0x8C83FAEB EQ PUSH2 0x333 JUMPI DUP1 PUSH4 0x91232F18 EQ PUSH2 0x351 JUMPI DUP1 PUSH4 0x91D14854 EQ PUSH2 0x35B JUMPI DUP1 PUSH4 0x944044A1 EQ PUSH2 0x38B JUMPI DUP1 PUSH4 0xA217FDDF EQ PUSH2 0x3A7 JUMPI DUP1 PUSH4 0xAB6C0306 EQ PUSH2 0x3C5 JUMPI PUSH2 0x18E JUMP JUMPDEST DUP1 PUSH4 0x4C9B73DA GT PUSH2 0x14B JUMPI DUP1 PUSH4 0x5CE7E721 GT PUSH2 0x125 JUMPI DUP1 PUSH4 0x5CE7E721 EQ PUSH2 0x2CF JUMPI DUP1 PUSH4 0x673402E5 EQ PUSH2 0x2ED JUMPI DUP1 PUSH4 0x682D07D9 EQ PUSH2 0x2F7 JUMPI DUP1 PUSH4 0x68FC01A2 EQ PUSH2 0x315 JUMPI PUSH2 0x18E JUMP JUMPDEST DUP1 PUSH4 0x4C9B73DA EQ PUSH2 0x279 JUMPI DUP1 PUSH4 0x51F7598C EQ PUSH2 0x295 JUMPI DUP1 PUSH4 0x551B42A8 EQ PUSH2 0x2B1 JUMPI PUSH2 0x18E JUMP JUMPDEST DUP1 PUSH4 0x1FFC9A7 EQ PUSH2 0x193 JUMPI DUP1 PUSH4 0x1C7A9B65 EQ PUSH2 0x1C3 JUMPI DUP1 PUSH4 0x248A9CA3 EQ PUSH2 0x1F3 JUMPI DUP1 PUSH4 0x2F2FF15D EQ PUSH2 0x223 JUMPI DUP1 PUSH4 0x36568ABE EQ PUSH2 0x23F JUMPI DUP1 PUSH4 0x4C0F38C2 EQ PUSH2 0x25B JUMPI JUMPDEST PUSH1 0x0 DUP1 REVERT JUMPDEST PUSH2 0x1AD PUSH1 0x4 DUP1 CALLDATASIZE SUB DUP2 ADD SWAP1 PUSH2 0x1A8 SWAP2 SWAP1 PUSH2 0x1B15 JUMP JUMPDEST PUSH2 0x4AF JUMP JUMPDEST PUSH1 0x40 MLOAD PUSH2 0x1BA SWAP2 SWAP1 PUSH2 0x205B JUMP JUMPDEST PUSH1 0x40 MLOAD DUP1 SWAP2 SUB SWAP1 RETURN JUMPDEST PUSH2 0x1DD PUSH1 0x4 DUP1 CALLDATASIZE SUB DUP2 ADD SWAP1 PUSH2 0x1D8 SWAP2 SWAP1 PUSH2 0x1B3E JUMP JUMPDEST PUSH2 0x529 JUMP JUMPDEST PUSH1 0x40 MLOAD PUSH2 0x1EA SWAP2 SWAP1 PUSH2 0x20E2 JUMP JUMPDEST PUSH1 0x40 MLOAD DUP1 SWAP2 SUB SWAP1 RETURN JUMPDEST PUSH2 0x20D PUSH1 0x4 DUP1 CALLDATASIZE SUB DUP2 ADD SWAP1 PUSH2 0x208 SWAP2 SWAP1 PUSH2 0x1AB0 JUMP JUMPDEST PUSH2 0x5D5 JUMP JUMPDEST PUSH1 0x40 MLOAD PUSH2 0x21A SWAP2 SWAP1 PUSH2 0x2076 JUMP JUMPDEST PUSH1 0x40 MLOAD DUP1 SWAP2 SUB SWAP1 RETURN JUMPDEST PUSH2 0x23D PUSH1 0x4 DUP1 CALLDATASIZE SUB DUP2 ADD SWAP1 PUSH2 0x238 SWAP2 SWAP1 PUSH2 0x1AD9 JUMP JUMPDEST PUSH2 0x5F4 JUMP JUMPDEST STOP JUMPDEST PUSH2 0x259 PUSH1 0x4 DUP1 CALLDATASIZE SUB DUP2 ADD SWAP1 PUSH2 0x254 SWAP2 SWAP1 PUSH2 0x1AD9 JUMP JUMPDEST PUSH2 0x61D JUMP JUMPDEST STOP JUMPDEST PUSH2 0x263 PUSH2 0x6A0 JUMP JUMPDEST PUSH1 0x40 MLOAD PUSH2 0x270 SWAP2 SWAP1 PUSH2 0x21C4 JUMP JUMPDEST PUSH1 0x40 MLOAD DUP1 SWAP2 SUB SWAP1 RETURN JUMPDEST PUSH2 0x293 PUSH1 0x4 DUP1 CALLDATASIZE SUB DUP2 ADD SWAP1 PUSH2 0x28E SWAP2 SWAP1 PUSH2 0x1B3E JUMP JUMPDEST PUSH2 0x747 JUMP JUMPDEST STOP JUMPDEST PUSH2 0x2AF PUSH1 0x4 DUP1 CALLDATASIZE SUB DUP2 ADD SWAP1 PUSH2 0x2AA SWAP2 SWAP1 PUSH2 0x19B6 JUMP JUMPDEST PUSH2 0x76A JUMP JUMPDEST STOP JUMPDEST PUSH2 0x2B9 PUSH2 0x7C4 JUMP JUMPDEST PUSH1 0x40 MLOAD PUSH2 0x2C6 SWAP2 SWAP1 PUSH2 0x2076 JUMP JUMPDEST PUSH1 0x40 MLOAD DUP1 SWAP2 SUB SWAP1 RETURN JUMPDEST PUSH2 0x2D7 PUSH2 0x7E8 JUMP JUMPDEST PUSH1 0x40 MLOAD PUSH2 0x2E4 SWAP2 SWAP1 PUSH2 0x20AC JUMP JUMPDEST PUSH1 0x40 MLOAD DUP1 SWAP2 SUB SWAP1 RETURN JUMPDEST PUSH2 0x2F5 PUSH2 0x80E JUMP JUMPDEST STOP JUMPDEST PUSH2 0x2FF PUSH2 0x89F JUMP JUMPDEST PUSH1 0x40 MLOAD PUSH2 0x30C SWAP2 SWAP1 PUSH2 0x2076 JUMP JUMPDEST PUSH1 0x40 MLOAD DUP1 SWAP2 SUB SWAP1 RETURN JUMPDEST PUSH2 0x31D PUSH2 0x8C3 JUMP JUMPDEST PUSH1 0x40 MLOAD PUSH2 0x32A SWAP2 SWAP1 PUSH2 0x21C4 JUMP JUMPDEST PUSH1 0x40 MLOAD DUP1 SWAP2 SUB SWAP1 RETURN JUMPDEST PUSH2 0x33B PUSH2 0x96A JUMP JUMPDEST PUSH1 0x40 MLOAD PUSH2 0x348 SWAP2 SWAP1 PUSH2 0x2091 JUMP JUMPDEST PUSH1 0x40 MLOAD DUP1 SWAP2 SUB SWAP1 RETURN JUMPDEST PUSH2 0x359 PUSH2 0x990 JUMP JUMPDEST STOP JUMPDEST PUSH2 0x375 PUSH1 0x4 DUP1 CALLDATASIZE SUB DUP2 ADD SWAP1 PUSH2 0x370 SWAP2 SWAP1 PUSH2 0x1AD9 JUMP JUMPDEST PUSH2 0xAAC JUMP JUMPDEST PUSH1 0x40 MLOAD PUSH2 0x382 SWAP2 SWAP1 PUSH2 0x205B JUMP JUMPDEST PUSH1 0x40 MLOAD DUP1 SWAP2 SUB SWAP1 RETURN JUMPDEST PUSH2 0x3A5 PUSH1 0x4 DUP1 CALLDATASIZE SUB DUP2 ADD SWAP1 PUSH2 0x3A0 SWAP2 SWAP1 PUSH2 0x1B3E JUMP JUMPDEST PUSH2 0xB16 JUMP JUMPDEST STOP JUMPDEST PUSH2 0x3AF PUSH2 0xBAB JUMP JUMPDEST PUSH1 0x40 MLOAD PUSH2 0x3BC SWAP2 SWAP1 PUSH2 0x2076 JUMP JUMPDEST PUSH1 0x40 MLOAD DUP1 SWAP2 SUB SWAP1 RETURN JUMPDEST PUSH2 0x3DF PUSH1 0x4 DUP1 CALLDATASIZE SUB DUP2 ADD SWAP1 PUSH2 0x3DA SWAP2 SWAP1 PUSH2 0x19DF JUMP JUMPDEST PUSH2 0xBB2 JUMP JUMPDEST PUSH1 0x40 MLOAD PUSH2 0x3EC SWAP2 SWAP1 PUSH2 0x21C4 JUMP JUMPDEST PUSH1 0x40 MLOAD DUP1 SWAP2 SUB SWAP1 RETURN JUMPDEST PUSH2 0x3FD PUSH2 0xD43 JUMP JUMPDEST STOP JUMPDEST PUSH2 0x407 PUSH2 0xD61 JUMP JUMPDEST PUSH1 0x40 MLOAD PUSH2 0x416 SWAP4 SWAP3 SWAP2 SWAP1 PUSH2 0x21DF JUMP JUMPDEST PUSH1 0x40 MLOAD DUP1 SWAP2 SUB SWAP1 RETURN JUMPDEST PUSH2 0x427 PUSH2 0xD86 JUMP JUMPDEST PUSH1 0x40 MLOAD PUSH2 0x434 SWAP2 SWAP1 PUSH2 0x20C7 JUMP JUMPDEST PUSH1 0x40 MLOAD DUP1 SWAP2 SUB SWAP1 RETURN JUMPDEST PUSH2 0x445 PUSH2 0xDAC JUMP JUMPDEST PUSH1 0x40 MLOAD PUSH2 0x452 SWAP2 SWAP1 PUSH2 0x1FE0 JUMP JUMPDEST PUSH1 0x40 MLOAD DUP1 SWAP2 SUB SWAP1 RETURN JUMPDEST PUSH2 0x475 PUSH1 0x4 DUP1 CALLDATASIZE SUB DUP2 ADD SWAP1 PUSH2 0x470 SWAP2 SWAP1 PUSH2 0x1B3E JUMP JUMPDEST PUSH2 0xDD2 JUMP JUMPDEST STOP JUMPDEST PUSH2 0x491 PUSH1 0x4 DUP1 CALLDATASIZE SUB DUP2 ADD SWAP1 PUSH2 0x48C SWAP2 SWAP1 PUSH2 0x1AD9 JUMP JUMPDEST PUSH2 0xE67 JUMP JUMPDEST STOP JUMPDEST PUSH2 0x4AD PUSH1 0x4 DUP1 CALLDATASIZE SUB DUP2 ADD SWAP1 PUSH2 0x4A8 SWAP2 SWAP1 PUSH2 0x1A1B JUMP JUMPDEST PUSH2 0xE90 JUMP JUMPDEST STOP JUMPDEST PUSH1 0x0 PUSH32 0x7965DB0B00000000000000000000000000000000000000000000000000000000 PUSH28 0xFFFFFFFFFFFFFFFFFFFFFFFFFFFFFFFFFFFFFFFFFFFFFFFFFFFFFFFF NOT AND DUP3 PUSH28 0xFFFFFFFFFFFFFFFFFFFFFFFFFFFFFFFFFFFFFFFFFFFFFFFFFFFFFFFF NOT AND EQ DUP1 PUSH2 0x522 JUMPI POP PUSH2 0x521 DUP3 PUSH2 0xF23 JUMP JUMPDEST JUMPDEST SWAP1 POP SWAP2 SWAP1 POP JUMP JUMPDEST PUSH1 0x9 DUP2 DUP2 SLOAD DUP2 LT PUSH2 0x539 JUMPI PUSH1 0x0 DUP1 REVERT JUMPDEST SWAP1 PUSH1 0x0 MSTORE PUSH1 0x20 PUSH1 0x0 KECCAK256 ADD PUSH1 0x0 SWAP2 POP SWAP1 POP DUP1 SLOAD PUSH2 0x554 SWAP1 PUSH2 0x25D9 JUMP JUMPDEST DUP1 PUSH1 0x1F ADD PUSH1 0x20 DUP1 SWAP2 DIV MUL PUSH1 0x20 ADD PUSH1 0x40 MLOAD SWAP1 DUP2 ADD PUSH1 0x40 MSTORE DUP1 SWAP3 SWAP2 SWAP1 DUP2 DUP2 MSTORE PUSH1 0x20 ADD DUP3 DUP1 SLOAD PUSH2 0x580 SWAP1 PUSH2 0x25D9 JUMP JUMPDEST DUP1 ISZERO PUSH2 0x5CD JUMPI DUP1 PUSH1 0x1F LT PUSH2 0x5A2 JUMPI PUSH2 0x100 DUP1 DUP4 SLOAD DIV MUL DUP4 MSTORE SWAP2 PUSH1 0x20 ADD SWAP2 PUSH2 0x5CD JUMP JUMPDEST DUP3 ADD SWAP2 SWAP1 PUSH1 0x0 MSTORE PUSH1 0x20 PUSH1 0x0 KECCAK256 SWAP1 JUMPDEST DUP2 SLOAD DUP2 MSTORE SWAP1 PUSH1 0x1 ADD SWAP1 PUSH1 0x20 ADD DUP1 DUP4 GT PUSH2 0x5B0 JUMPI DUP3 SWAP1 SUB PUSH1 0x1F AND DUP3 ADD SWAP2 JUMPDEST POP POP POP POP POP DUP2 JUMP JUMPDEST PUSH1 0x0 DUP1 PUSH1 0x0 DUP4 DUP2 MSTORE PUSH1 0x20 ADD SWAP1 DUP2 MSTORE PUSH1 0x20 ADD PUSH1 0x0 KECCAK256 PUSH1 0x1 ADD SLOAD SWAP1 POP SWAP2 SWAP1 POP JUMP JUMPDEST PUSH2 0x5FD DUP3 PUSH2 0x5D5 JUMP JUMPDEST PUSH2 0x60E DUP2 PUSH2 0x609 PUSH2 0xF8D JUMP JUMPDEST PUSH2 0xF95 JUMP JUMPDEST PUSH2 0x618 DUP4 DUP4 PUSH2 0x1032 JUMP JUMPDEST POP POP POP JUMP JUMPDEST PUSH2 0x625 PUSH2 0xF8D JUMP JUMPDEST PUSH20 0xFFFFFFFFFFFFFFFFFFFFFFFFFFFFFFFFFFFFFFFF AND DUP2 PUSH20 0xFFFFFFFFFFFFFFFFFFFFFFFFFFFFFFFFFFFFFFFF AND EQ PUSH2 0x692 JUMPI PUSH1 0x40 MLOAD PUSH32 0x8C379A000000000000000000000000000000000000000000000000000000000 DUP2 MSTORE PUSH1 0x4 ADD PUSH2 0x689 SWAP1 PUSH2 0x21A4 JUMP JUMPDEST PUSH1 0x40 MLOAD DUP1 SWAP2 SUB SWAP1 REVERT JUMPDEST PUSH2 0x69C DUP3 DUP3 PUSH2 0x1112 JUMP JUMPDEST POP POP JUMP JUMPDEST PUSH1 0x0 PUSH1 0x1 PUSH1 0x0 SWAP1 SLOAD SWAP1 PUSH2 0x100 EXP SWAP1 DIV PUSH20 0xFFFFFFFFFFFFFFFFFFFFFFFFFFFFFFFFFFFFFFFF AND PUSH20 0xFFFFFFFFFFFFFFFFFFFFFFFFFFFFFFFFFFFFFFFF AND PUSH4 0x4C0F38C2 PUSH1 0x40 MLOAD DUP2 PUSH4 0xFFFFFFFF AND PUSH1 0xE0 SHL DUP2 MSTORE PUSH1 0x4 ADD PUSH1 0x20 PUSH1 0x40 MLOAD DUP1 DUP4 SUB DUP2 DUP7 DUP1 EXTCODESIZE ISZERO DUP1 ISZERO PUSH2 0x70A JUMPI PUSH1 0x0 DUP1 REVERT JUMPDEST POP GAS STATICCALL ISZERO DUP1 ISZERO PUSH2 0x71E JUMPI RETURNDATASIZE PUSH1 0x0 DUP1 RETURNDATACOPY RETURNDATASIZE PUSH1 0x0 REVERT JUMPDEST POP POP POP POP PUSH1 0x40 MLOAD RETURNDATASIZE PUSH1 0x1F NOT PUSH1 0x1F DUP3 ADD AND DUP3 ADD DUP1 PUSH1 0x40 MSTORE POP DUP2 ADD SWAP1 PUSH2 0x742 SWAP2 SWAP1 PUSH2 0x1B67 JUMP JUMPDEST SWAP1 POP SWAP1 JUMP JUMPDEST PUSH2 0x74F PUSH2 0x11F3 JUMP JUMPDEST PUSH1 0x0 PUSH2 0x75B CALLER DUP4 PUSH2 0xBB2 JUMP JUMPDEST SWAP1 POP PUSH2 0x766 DUP2 PUSH2 0x12EB JUMP JUMPDEST POP POP JUMP JUMPDEST PUSH1 0x0 DUP1 SHL PUSH2 0x77F DUP2 PUSH2 0x77A PUSH2 0xF8D JUMP JUMPDEST PUSH2 0xF95 JUMP JUMPDEST DUP2 PUSH1 0x1 PUSH1 0x0 PUSH2 0x100 EXP DUP2 SLOAD DUP2 PUSH20 0xFFFFFFFFFFFFFFFFFFFFFFFFFFFFFFFFFFFFFFFF MUL NOT AND SWAP1 DUP4 PUSH20 0xFFFFFFFFFFFFFFFFFFFFFFFFFFFFFFFFFFFFFFFF AND MUL OR SWAP1 SSTORE POP POP POP JUMP JUMPDEST PUSH32 0x988301AF8238F779281A300DE031815CD01B48E9F1AE47A0F91ED6584213624A DUP2 JUMP JUMPDEST PUSH1 0x2 PUSH1 0x0 SWAP1 SLOAD SWAP1 PUSH2 0x100 EXP SWAP1 DIV PUSH20 0xFFFFFFFFFFFFFFFFFFFFFFFFFFFFFFFFFFFFFFFF AND DUP2 JUMP JUMPDEST PUSH1 0x40 MLOAD DUP1 PUSH1 0x40 ADD PUSH1 0x40 MSTORE DUP1 PUSH1 0x1 DUP2 MSTORE PUSH1 0x20 ADD PUSH32 0x4A00000000000000000000000000000000000000000000000000000000000000 DUP2 MSTORE POP PUSH1 0x9 PUSH1 0x0 DUP2 SLOAD DUP2 LT PUSH2 0x87F JUMPI PUSH32 0x4E487B7100000000000000000000000000000000000000000000000000000000 PUSH1 0x0 MSTORE PUSH1 0x32 PUSH1 0x4 MSTORE PUSH1 0x24 PUSH1 0x0 REVERT JUMPDEST SWAP1 PUSH1 0x0 MSTORE PUSH1 0x20 PUSH1 0x0 KECCAK256 ADD SWAP1 DUP1 MLOAD SWAP1 PUSH1 0x20 ADD SWAP1 PUSH2 0x89C SWAP3 SWAP2 SWAP1 PUSH2 0x1710 JUMP JUMPDEST POP JUMP JUMPDEST PUSH32 0xA70A2D8710FED9F014C8C2AF50C7C2F6B25748AE4CDED822E03B7BEED44CF3A8 DUP2 JUMP JUMPDEST PUSH1 0x0 PUSH1 0x1 PUSH1 0x0 SWAP1 SLOAD SWAP1 PUSH2 0x100 EXP SWAP1 DIV PUSH20 0xFFFFFFFFFFFFFFFFFFFFFFFFFFFFFFFFFFFFFFFF AND PUSH20 0xFFFFFFFFFFFFFFFFFFFFFFFFFFFFFFFFFFFFFFFF AND PUSH4 0x68FC01A2 PUSH1 0x40 MLOAD DUP2 PUSH4 0xFFFFFFFF AND PUSH1 0xE0 SHL DUP2 MSTORE PUSH1 0x4 ADD PUSH1 0x20 PUSH1 0x40 MLOAD DUP1 DUP4 SUB DUP2 DUP7 DUP1 EXTCODESIZE ISZERO DUP1 ISZERO PUSH2 0x92D JUMPI PUSH1 0x0 DUP1 REVERT JUMPDEST POP GAS STATICCALL ISZERO DUP1 ISZERO PUSH2 0x941 JUMPI RETURNDATASIZE PUSH1 0x0 DUP1 RETURNDATACOPY RETURNDATASIZE PUSH1 0x0 REVERT JUMPDEST POP POP POP POP PUSH1 0x40 MLOAD RETURNDATASIZE PUSH1 0x1F NOT PUSH1 0x1F DUP3 ADD AND DUP3 ADD DUP1 PUSH1 0x40 MSTORE POP DUP2 ADD SWAP1 PUSH2 0x965 SWAP2 SWAP1 PUSH2 0x1B67 JUMP JUMPDEST SWAP1 POP SWAP1 JUMP JUMPDEST PUSH1 0x1 PUSH1 0x0 SWAP1 SLOAD SWAP1 PUSH2 0x100 EXP SWAP1 DIV PUSH20 0xFFFFFFFFFFFFFFFFFFFFFFFFFFFFFFFFFFFFFFFF AND DUP2 JUMP JUMPDEST TIMESTAMP PUSH1 0xA PUSH1 0x1 ADD SLOAD EQ PUSH2 0x9D7 JUMPI PUSH1 0x40 MLOAD PUSH32 0x8C379A000000000000000000000000000000000000000000000000000000000 DUP2 MSTORE PUSH1 0x4 ADD PUSH2 0x9CE SWAP1 PUSH2 0x2144 JUMP JUMPDEST PUSH1 0x40 MLOAD DUP1 SWAP2 SUB SWAP1 REVERT JUMPDEST PUSH1 0x6 SLOAD TIMESTAMP GT DUP1 ISZERO PUSH2 0x9F8 JUMPI POP PUSH1 0xA PUSH1 0x2 ADD PUSH1 0x0 SWAP1 SLOAD SWAP1 PUSH2 0x100 EXP SWAP1 DIV PUSH1 0xFF AND ISZERO JUMPDEST PUSH2 0xA37 JUMPI PUSH1 0x40 MLOAD PUSH32 0x8C379A000000000000000000000000000000000000000000000000000000000 DUP2 MSTORE PUSH1 0x4 ADD PUSH2 0xA2E SWAP1 PUSH2 0x2124 JUMP JUMPDEST PUSH1 0x40 MLOAD DUP1 SWAP2 SUB SWAP1 REVERT JUMPDEST PUSH1 0x0 PUSH1 0x1 PUSH2 0xA43 PUSH2 0x8C3 JUMP JUMPDEST PUSH2 0xA4D SWAP2 SWAP1 PUSH2 0x244F JUMP JUMPDEST PUSH2 0xA55 PUSH2 0x6A0 JUMP JUMPDEST PUSH2 0xA5F SWAP2 SWAP1 PUSH2 0x244F JUMP JUMPDEST SWAP1 POP JUMPDEST PUSH1 0x0 DUP2 GT ISZERO PUSH2 0xAA9 JUMPI PUSH2 0xA96 PUSH1 0x4 PUSH1 0x0 SWAP1 SLOAD SWAP1 PUSH2 0x100 EXP SWAP1 DIV PUSH20 0xFFFFFFFFFFFFFFFFFFFFFFFFFFFFFFFFFFFFFFFF AND PUSH2 0x1386 JUMP JUMPDEST DUP1 DUP1 PUSH2 0xAA1 SWAP1 PUSH2 0x25AF JUMP JUMPDEST SWAP2 POP POP PUSH2 0xA62 JUMP JUMPDEST POP JUMP JUMPDEST PUSH1 0x0 DUP1 PUSH1 0x0 DUP5 DUP2 MSTORE PUSH1 0x20 ADD SWAP1 DUP2 MSTORE PUSH1 0x20 ADD PUSH1 0x0 KECCAK256 PUSH1 0x0 ADD PUSH1 0x0 DUP4 PUSH20 0xFFFFFFFFFFFFFFFFFFFFFFFFFFFFFFFFFFFFFFFF AND PUSH20 0xFFFFFFFFFFFFFFFFFFFFFFFFFFFFFFFFFFFFFFFF AND DUP2 MSTORE PUSH1 0x20 ADD SWAP1 DUP2 MSTORE PUSH1 0x20 ADD PUSH1 0x0 KECCAK256 PUSH1 0x0 SWAP1 SLOAD SWAP1 PUSH2 0x100 EXP SWAP1 DIV PUSH1 0xFF AND SWAP1 POP SWAP3 SWAP2 POP POP JUMP JUMPDEST PUSH2 0xB47 PUSH32 0x988301AF8238F779281A300DE031815CD01B48E9F1AE47A0F91ED6584213624A PUSH2 0xB42 PUSH2 0xF8D JUMP JUMPDEST PUSH2 0xAAC JUMP JUMPDEST DUP1 PUSH2 0xB62 JUMPI POP PUSH2 0xB61 PUSH1 0x0 DUP1 SHL PUSH2 0xB5C PUSH2 0xF8D JUMP JUMPDEST PUSH2 0xAAC JUMP JUMPDEST JUMPDEST PUSH2 0xBA1 JUMPI PUSH1 0x40 MLOAD PUSH32 0x8C379A000000000000000000000000000000000000000000000000000000000 DUP2 MSTORE PUSH1 0x4 ADD PUSH2 0xB98 SWAP1 PUSH2 0x2164 JUMP JUMPDEST PUSH1 0x40 MLOAD DUP1 SWAP2 SUB SWAP1 REVERT JUMPDEST DUP1 PUSH1 0x5 DUP2 SWAP1 SSTORE POP POP JUMP JUMPDEST PUSH1 0x0 DUP1 SHL DUP2 JUMP JUMPDEST PUSH1 0x0 TIMESTAMP PUSH1 0xA PUSH1 0x1 ADD SLOAD EQ PUSH2 0xBFB JUMPI PUSH1 0x40 MLOAD PUSH32 0x8C379A000000000000000000000000000000000000000000000000000000000 DUP2 MSTORE PUSH1 0x4 ADD PUSH2 0xBF2 SWAP1 PUSH2 0x2144 JUMP JUMPDEST PUSH1 0x40 MLOAD DUP1 SWAP2 SUB SWAP1 REVERT JUMPDEST PUSH1 0x2 PUSH1 0x0 SWAP1 SLOAD SWAP1 PUSH2 0x100 EXP SWAP1 DIV PUSH20 0xFFFFFFFFFFFFFFFFFFFFFFFFFFFFFFFFFFFFFFFF AND PUSH20 0xFFFFFFFFFFFFFFFFFFFFFFFFFFFFFFFFFFFFFFFF AND PUSH4 0x2080179D DUP5 DUP5 PUSH1 0x40 MLOAD DUP4 PUSH4 0xFFFFFFFF AND PUSH1 0xE0 SHL DUP2 MSTORE PUSH1 0x4 ADD PUSH2 0xC58 SWAP3 SWAP2 SWAP1 PUSH2 0x1FFB JUMP JUMPDEST PUSH1 0x20 PUSH1 0x40 MLOAD DUP1 DUP4 SUB DUP2 DUP7 DUP1 EXTCODESIZE ISZERO DUP1 ISZERO PUSH2 0xC70 JUMPI PUSH1 0x0 DUP1 REVERT JUMPDEST POP GAS STATICCALL ISZERO DUP1 ISZERO PUSH2 0xC84 JUMPI RETURNDATASIZE PUSH1 0x0 DUP1 RETURNDATACOPY RETURNDATASIZE PUSH1 0x0 REVERT JUMPDEST POP POP POP POP PUSH1 0x40 MLOAD RETURNDATASIZE PUSH1 0x1F NOT PUSH1 0x1F DUP3 ADD AND DUP3 ADD DUP1 PUSH1 0x40 MSTORE POP DUP2 ADD SWAP1 PUSH2 0xCA8 SWAP2 SWAP1 PUSH2 0x1A87 JUMP JUMPDEST DUP4 DUP4 PUSH1 0x40 MLOAD PUSH1 0x20 ADD PUSH2 0xCBB SWAP3 SWAP2 SWAP1 PUSH2 0x1F59 JUMP JUMPDEST PUSH1 0x40 MLOAD PUSH1 0x20 DUP2 DUP4 SUB SUB DUP2 MSTORE SWAP1 PUSH1 0x40 MSTORE SWAP1 PUSH2 0xD0B JUMPI PUSH1 0x40 MLOAD PUSH32 0x8C379A000000000000000000000000000000000000000000000000000000000 DUP2 MSTORE PUSH1 0x4 ADD PUSH2 0xD02 SWAP2 SWAP1 PUSH2 0x20E2 JUMP JUMPDEST PUSH1 0x40 MLOAD DUP1 SWAP2 SUB SWAP1 REVERT JUMPDEST POP PUSH1 0x0 DUP3 PUSH1 0x64 PUSH2 0xD1B SWAP2 SWAP1 PUSH2 0x244F JUMP JUMPDEST PUSH1 0x64 PUSH1 0xA PUSH1 0x0 ADD SLOAD PUSH2 0xD2D SWAP2 SWAP1 PUSH2 0x23C4 JUMP JUMPDEST PUSH2 0xD37 SWAP2 SWAP1 PUSH2 0x23F5 JUMP JUMPDEST SWAP1 POP DUP1 SWAP2 POP POP SWAP3 SWAP2 POP POP JUMP JUMPDEST PUSH2 0xD4B PUSH2 0x11F3 JUMP JUMPDEST PUSH1 0x0 PUSH1 0xA PUSH1 0x0 ADD SLOAD SWAP1 POP PUSH2 0xD5E DUP2 PUSH2 0x12EB JUMP JUMPDEST POP JUMP JUMPDEST PUSH1 0xA DUP1 PUSH1 0x0 ADD SLOAD SWAP1 DUP1 PUSH1 0x1 ADD SLOAD SWAP1 DUP1 PUSH1 0x2 ADD PUSH1 0x0 SWAP1 SLOAD SWAP1 PUSH2 0x100 EXP SWAP1 DIV PUSH1 0xFF AND SWAP1 POP DUP4 JUMP JUMPDEST PUSH1 0x3 PUSH1 0x0 SWAP1 SLOAD SWAP1 PUSH2 0x100 EXP SWAP1 DIV PUSH20 0xFFFFFFFFFFFFFFFFFFFFFFFFFFFFFFFFFFFFFFFF AND DUP2 JUMP JUMPDEST PUSH1 0x4 PUSH1 0x0 SWAP1 SLOAD SWAP1 PUSH2 0x100 EXP SWAP1 DIV PUSH20 0xFFFFFFFFFFFFFFFFFFFFFFFFFFFFFFFFFFFFFFFF AND DUP2 JUMP JUMPDEST PUSH2 0xE03 PUSH32 0x988301AF8238F779281A300DE031815CD01B48E9F1AE47A0F91ED6584213624A PUSH2 0xDFE PUSH2 0xF8D JUMP JUMPDEST PUSH2 0xAAC JUMP JUMPDEST DUP1 PUSH2 0xE1E JUMPI POP PUSH2 0xE1D PUSH1 0x0 DUP1 SHL PUSH2 0xE18 PUSH2 0xF8D JUMP JUMPDEST PUSH2 0xAAC JUMP JUMPDEST JUMPDEST PUSH2 0xE5D JUMPI PUSH1 0x40 MLOAD PUSH32 0x8C379A000000000000000000000000000000000000000000000000000000000 DUP2 MSTORE PUSH1 0x4 ADD PUSH2 0xE54 SWAP1 PUSH2 0x2164 JUMP JUMPDEST PUSH1 0x40 MLOAD DUP1 SWAP2 SUB SWAP1 REVERT JUMPDEST DUP1 PUSH1 0x6 DUP2 SWAP1 SSTORE POP POP JUMP JUMPDEST PUSH2 0xE70 DUP3 PUSH2 0x5D5 JUMP JUMPDEST PUSH2 0xE81 DUP2 PUSH2 0xE7C PUSH2 0xF8D JUMP JUMPDEST PUSH2 0xF95 JUMP JUMPDEST PUSH2 0xE8B DUP4 DUP4 PUSH2 0x1112 JUMP JUMPDEST POP POP POP JUMP JUMPDEST PUSH1 0x1 PUSH1 0x0 SWAP1 SLOAD SWAP1 PUSH2 0x100 EXP SWAP1 DIV PUSH20 0xFFFFFFFFFFFFFFFFFFFFFFFFFFFFFFFFFFFFFFFF AND PUSH20 0xFFFFFFFFFFFFFFFFFFFFFFFFFFFFFFFFFFFFFFFF AND PUSH4 0xF121DA92 DUP4 DUP4 PUSH1 0x40 MLOAD DUP4 PUSH4 0xFFFFFFFF AND PUSH1 0xE0 SHL DUP2 MSTORE PUSH1 0x4 ADD PUSH2 0xEED SWAP3 SWAP2 SWAP1 PUSH2 0x2024 JUMP JUMPDEST PUSH1 0x0 PUSH1 0x40 MLOAD DUP1 DUP4 SUB DUP2 PUSH1 0x0 DUP8 DUP1 EXTCODESIZE ISZERO DUP1 ISZERO PUSH2 0xF07 JUMPI PUSH1 0x0 DUP1 REVERT JUMPDEST POP GAS CALL ISZERO DUP1 ISZERO PUSH2 0xF1B JUMPI RETURNDATASIZE PUSH1 0x0 DUP1 RETURNDATACOPY RETURNDATASIZE PUSH1 0x0 REVERT JUMPDEST POP POP POP POP POP POP JUMP JUMPDEST PUSH1 0x0 PUSH32 0x1FFC9A700000000000000000000000000000000000000000000000000000000 PUSH28 0xFFFFFFFFFFFFFFFFFFFFFFFFFFFFFFFFFFFFFFFFFFFFFFFFFFFFFFFF NOT AND DUP3 PUSH28 0xFFFFFFFFFFFFFFFFFFFFFFFFFFFFFFFFFFFFFFFFFFFFFFFFFFFFFFFF NOT AND EQ SWAP1 POP SWAP2 SWAP1 POP JUMP JUMPDEST PUSH1 0x0 CALLER SWAP1 POP SWAP1 JUMP JUMPDEST PUSH2 0xF9F DUP3 DUP3 PUSH2 0xAAC JUMP JUMPDEST PUSH2 0x102E JUMPI PUSH2 0xFC4 DUP2 PUSH20 0xFFFFFFFFFFFFFFFFFFFFFFFFFFFFFFFFFFFFFFFF AND PUSH1 0x14 PUSH2 0x1416 JUMP JUMPDEST PUSH2 0xFD2 DUP4 PUSH1 0x0 SHR PUSH1 0x20 PUSH2 0x1416 JUMP JUMPDEST PUSH1 0x40 MLOAD PUSH1 0x20 ADD PUSH2 0xFE3 SWAP3 SWAP2 SWAP1 PUSH2 0x1FA6 JUMP JUMPDEST PUSH1 0x40 MLOAD PUSH1 0x20 DUP2 DUP4 SUB SUB DUP2 MSTORE SWAP1 PUSH1 0x40 MSTORE PUSH1 0x40 MLOAD PUSH32 0x8C379A000000000000000000000000000000000000000000000000000000000 DUP2 MSTORE PUSH1 0x4 ADD PUSH2 0x1025 SWAP2 SWAP1 PUSH2 0x20E2 JUMP JUMPDEST PUSH1 0x40 MLOAD DUP1 SWAP2 SUB SWAP1 REVERT JUMPDEST POP POP JUMP JUMPDEST PUSH2 0x103C DUP3 DUP3 PUSH2 0xAAC JUMP JUMPDEST PUSH2 0x110E JUMPI PUSH1 0x1 PUSH1 0x0 DUP1 DUP5 DUP2 MSTORE PUSH1 0x20 ADD SWAP1 DUP2 MSTORE PUSH1 0x20 ADD PUSH1 0x0 KECCAK256 PUSH1 0x0 ADD PUSH1 0x0 DUP4 PUSH20 0xFFFFFFFFFFFFFFFFFFFFFFFFFFFFFFFFFFFFFFFF AND PUSH20 0xFFFFFFFFFFFFFFFFFFFFFFFFFFFFFFFFFFFFFFFF AND DUP2 MSTORE PUSH1 0x20 ADD SWAP1 DUP2 MSTORE PUSH1 0x20 ADD PUSH1 0x0 KECCAK256 PUSH1 0x0 PUSH2 0x100 EXP DUP2 SLOAD DUP2 PUSH1 0xFF MUL NOT AND SWAP1 DUP4 ISZERO ISZERO MUL OR SWAP1 SSTORE POP PUSH2 0x10B3 PUSH2 0xF8D JUMP JUMPDEST PUSH20 0xFFFFFFFFFFFFFFFFFFFFFFFFFFFFFFFFFFFFFFFF AND DUP2 PUSH20 0xFFFFFFFFFFFFFFFFFFFFFFFFFFFFFFFFFFFFFFFF AND DUP4 PUSH32 0x2F8788117E7EFF1D82E926EC794901D17C78024A50270940304540A733656F0D PUSH1 0x40 MLOAD PUSH1 0x40 MLOAD DUP1 SWAP2 SUB SWAP1 LOG4 JUMPDEST POP POP JUMP JUMPDEST PUSH2 0x111C DUP3 DUP3 PUSH2 0xAAC JUMP JUMPDEST ISZERO PUSH2 0x11EF JUMPI PUSH1 0x0 DUP1 PUSH1 0x0 DUP5 DUP2 MSTORE PUSH1 0x20 ADD SWAP1 DUP2 MSTORE PUSH1 0x20 ADD PUSH1 0x0 KECCAK256 PUSH1 0x0 ADD PUSH1 0x0 DUP4 PUSH20 0xFFFFFFFFFFFFFFFFFFFFFFFFFFFFFFFFFFFFFFFF AND PUSH20 0xFFFFFFFFFFFFFFFFFFFFFFFFFFFFFFFFFFFFFFFF AND DUP2 MSTORE PUSH1 0x20 ADD SWAP1 DUP2 MSTORE PUSH1 0x20 ADD PUSH1 0x0 KECCAK256 PUSH1 0x0 PUSH2 0x100 EXP DUP2 SLOAD DUP2 PUSH1 0xFF MUL NOT AND SWAP1 DUP4 ISZERO ISZERO MUL OR SWAP1 SSTORE POP PUSH2 0x1194 PUSH2 0xF8D JUMP JUMPDEST PUSH20 0xFFFFFFFFFFFFFFFFFFFFFFFFFFFFFFFFFFFFFFFF AND DUP2 PUSH20 0xFFFFFFFFFFFFFFFFFFFFFFFFFFFFFFFFFFFFFFFF AND DUP4 PUSH32 0xF6391F5C32D9C69D2A47EA670B442974B53935D1EDC7FD64EB21E047A839171B PUSH1 0x40 MLOAD PUSH1 0x40 MLOAD DUP1 SWAP2 SUB SWAP1 LOG4 JUMPDEST POP POP JUMP JUMPDEST PUSH1 0x6 SLOAD PUSH1 0x5 SLOAD GT ISZERO PUSH2 0x123A JUMPI PUSH1 0x40 MLOAD PUSH32 0x8C379A000000000000000000000000000000000000000000000000000000000 DUP2 MSTORE PUSH1 0x4 ADD PUSH2 0x1231 SWAP1 PUSH2 0x2184 JUMP JUMPDEST PUSH1 0x40 MLOAD DUP1 SWAP2 SUB SWAP1 REVERT JUMPDEST PUSH3 0xF4240 PUSH1 0x1 PUSH2 0x124A SWAP2 SWAP1 PUSH2 0x23F5 JUMP JUMPDEST PUSH1 0x3C PUSH1 0x5 SLOAD TIMESTAMP PUSH2 0x125A SWAP2 SWAP1 PUSH2 0x244F JUMP JUMPDEST PUSH2 0x1264 SWAP2 SWAP1 PUSH2 0x23C4 JUMP JUMPDEST PUSH2 0x126E SWAP2 SWAP1 PUSH2 0x23F5 JUMP JUMPDEST PUSH1 0x7 SLOAD PUSH2 0x127B SWAP2 SWAP1 PUSH2 0x244F JUMP JUMPDEST PUSH1 0xA PUSH1 0x0 ADD DUP2 SWAP1 SSTORE POP TIMESTAMP PUSH1 0xA PUSH1 0x1 ADD DUP2 SWAP1 SSTORE POP PUSH1 0x5 SLOAD TIMESTAMP LT ISZERO DUP1 ISZERO PUSH2 0x12A2 JUMPI POP PUSH1 0x6 SLOAD TIMESTAMP GT ISZERO JUMPDEST ISZERO PUSH2 0x12CA JUMPI PUSH1 0x1 PUSH1 0xA PUSH1 0x2 ADD PUSH1 0x0 PUSH2 0x100 EXP DUP2 SLOAD DUP2 PUSH1 0xFF MUL NOT AND SWAP1 DUP4 ISZERO ISZERO MUL OR SWAP1 SSTORE POP PUSH2 0x12E9 JUMP JUMPDEST PUSH1 0x0 PUSH1 0xA PUSH1 0x2 ADD PUSH1 0x0 PUSH2 0x100 EXP DUP2 SLOAD DUP2 PUSH1 0xFF MUL NOT AND SWAP1 DUP4 ISZERO ISZERO MUL OR SWAP1 SSTORE POP JUMPDEST JUMP JUMPDEST PUSH1 0x3 PUSH1 0x0 SWAP1 SLOAD SWAP1 PUSH2 0x100 EXP SWAP1 DIV PUSH20 0xFFFFFFFFFFFFFFFFFFFFFFFFFFFFFFFFFFFFFFFF AND PUSH20 0xFFFFFFFFFFFFFFFFFFFFFFFFFFFFFFFFFFFFFFFF AND PUSH4 0x532B2913 CALLER DUP4 PUSH1 0x40 MLOAD DUP4 PUSH4 0xFFFFFFFF AND PUSH1 0xE0 SHL DUP2 MSTORE PUSH1 0x4 ADD PUSH2 0x1348 SWAP3 SWAP2 SWAP1 PUSH2 0x1FFB JUMP JUMPDEST PUSH1 0x0 PUSH1 0x40 MLOAD DUP1 DUP4 SUB DUP2 PUSH1 0x0 DUP8 DUP1 EXTCODESIZE ISZERO DUP1 ISZERO PUSH2 0x1362 JUMPI PUSH1 0x0 DUP1 REVERT JUMPDEST POP GAS CALL ISZERO DUP1 ISZERO PUSH2 0x1376 JUMPI RETURNDATASIZE PUSH1 0x0 DUP1 RETURNDATACOPY RETURNDATASIZE PUSH1 0x0 REVERT JUMPDEST POP POP POP POP PUSH2 0x1383 CALLER PUSH2 0x1386 JUMP JUMPDEST POP JUMP JUMPDEST PUSH1 0x1 PUSH1 0x0 SWAP1 SLOAD SWAP1 PUSH2 0x100 EXP SWAP1 DIV PUSH20 0xFFFFFFFFFFFFFFFFFFFFFFFFFFFFFFFFFFFFFFFF AND PUSH20 0xFFFFFFFFFFFFFFFFFFFFFFFFFFFFFFFFFFFFFFFF AND PUSH4 0x55676590 DUP3 PUSH1 0x40 MLOAD DUP3 PUSH4 0xFFFFFFFF AND PUSH1 0xE0 SHL DUP2 MSTORE PUSH1 0x4 ADD PUSH2 0x13E1 SWAP2 SWAP1 PUSH2 0x1FE0 JUMP JUMPDEST PUSH1 0x0 PUSH1 0x40 MLOAD DUP1 DUP4 SUB DUP2 PUSH1 0x0 DUP8 DUP1 EXTCODESIZE ISZERO DUP1 ISZERO PUSH2 0x13FB JUMPI PUSH1 0x0 DUP1 REVERT JUMPDEST POP GAS CALL ISZERO DUP1 ISZERO PUSH2 0x140F JUMPI RETURNDATASIZE PUSH1 0x0 DUP1 RETURNDATACOPY RETURNDATASIZE PUSH1 0x0 REVERT JUMPDEST POP POP POP POP POP JUMP JUMPDEST PUSH1 0x60 PUSH1 0x0 PUSH1 0x2 DUP4 PUSH1 0x2 PUSH2 0x1429 SWAP2 SWAP1 PUSH2 0x23F5 JUMP JUMPDEST PUSH2 0x1433 SWAP2 SWAP1 PUSH2 0x236E JUMP JUMPDEST PUSH8 0xFFFFFFFFFFFFFFFF DUP2 GT ISZERO PUSH2 0x1472 JUMPI PUSH32 0x4E487B7100000000000000000000000000000000000000000000000000000000 PUSH1 0x0 MSTORE PUSH1 0x41 PUSH1 0x4 MSTORE PUSH1 0x24 PUSH1 0x0 REVERT JUMPDEST PUSH1 0x40 MLOAD SWAP1 DUP1 DUP3 MSTORE DUP1 PUSH1 0x1F ADD PUSH1 0x1F NOT AND PUSH1 0x20 ADD DUP3 ADD PUSH1 0x40 MSTORE DUP1 ISZERO PUSH2 0x14A4 JUMPI DUP2 PUSH1 0x20 ADD PUSH1 0x1 DUP3 MUL DUP1 CALLDATASIZE DUP4 CALLDATACOPY DUP1 DUP3 ADD SWAP2 POP POP SWAP1 POP JUMPDEST POP SWAP1 POP PUSH32 0x3000000000000000000000000000000000000000000000000000000000000000 DUP2 PUSH1 0x0 DUP2 MLOAD DUP2 LT PUSH2 0x1502 JUMPI PUSH32 0x4E487B7100000000000000000000000000000000000000000000000000000000 PUSH1 0x0 MSTORE PUSH1 0x32 PUSH1 0x4 MSTORE PUSH1 0x24 PUSH1 0x0 REVERT JUMPDEST PUSH1 0x20 ADD ADD SWAP1 PUSH31 0xFFFFFFFFFFFFFFFFFFFFFFFFFFFFFFFFFFFFFFFFFFFFFFFFFFFFFFFFFFFFFF NOT AND SWAP1 DUP2 PUSH1 0x0 BYTE SWAP1 MSTORE8 POP PUSH32 0x7800000000000000000000000000000000000000000000000000000000000000 DUP2 PUSH1 0x1 DUP2 MLOAD DUP2 LT PUSH2 0x158C JUMPI PUSH32 0x4E487B7100000000000000000000000000000000000000000000000000000000 PUSH1 0x0 MSTORE PUSH1 0x32 PUSH1 0x4 MSTORE PUSH1 0x24 PUSH1 0x0 REVERT JUMPDEST PUSH1 0x20 ADD ADD SWAP1 PUSH31 0xFFFFFFFFFFFFFFFFFFFFFFFFFFFFFFFFFFFFFFFFFFFFFFFFFFFFFFFFFFFFFF NOT AND SWAP1 DUP2 PUSH1 0x0 BYTE SWAP1 MSTORE8 POP PUSH1 0x0 PUSH1 0x1 DUP5 PUSH1 0x2 PUSH2 0x15CC SWAP2 SWAP1 PUSH2 0x23F5 JUMP JUMPDEST PUSH2 0x15D6 SWAP2 SWAP1 PUSH2 0x236E JUMP JUMPDEST SWAP1 POP JUMPDEST PUSH1 0x1 DUP2 GT ISZERO PUSH2 0x16C2 JUMPI PUSH32 0x3031323334353637383961626364656600000000000000000000000000000000 PUSH1 0xF DUP7 AND PUSH1 0x10 DUP2 LT PUSH2 0x163E JUMPI PUSH32 0x4E487B7100000000000000000000000000000000000000000000000000000000 PUSH1 0x0 MSTORE PUSH1 0x32 PUSH1 0x4 MSTORE PUSH1 0x24 PUSH1 0x0 REVERT JUMPDEST BYTE PUSH1 0xF8 SHL DUP3 DUP3 DUP2 MLOAD DUP2 LT PUSH2 0x167B JUMPI PUSH32 0x4E487B7100000000000000000000000000000000000000000000000000000000 PUSH1 0x0 MSTORE PUSH1 0x32 PUSH1 0x4 MSTORE PUSH1 0x24 PUSH1 0x0 REVERT JUMPDEST PUSH1 0x20 ADD ADD SWAP1 PUSH31 0xFFFFFFFFFFFFFFFFFFFFFFFFFFFFFFFFFFFFFFFFFFFFFFFFFFFFFFFFFFFFFF NOT AND SWAP1 DUP2 PUSH1 0x0 BYTE SWAP1 MSTORE8 POP PUSH1 0x4 DUP6 SWAP1 SHR SWAP5 POP DUP1 PUSH2 0x16BB SWAP1 PUSH2 0x25AF JUMP JUMPDEST SWAP1 POP PUSH2 0x15D9 JUMP JUMPDEST POP PUSH1 0x0 DUP5 EQ PUSH2 0x1706 JUMPI PUSH1 0x40 MLOAD PUSH32 0x8C379A000000000000000000000000000000000000000000000000000000000 DUP2 MSTORE PUSH1 0x4 ADD PUSH2 0x16FD SWAP1 PUSH2 0x2104 JUMP JUMPDEST PUSH1 0x40 MLOAD DUP1 SWAP2 SUB SWAP1 REVERT JUMPDEST DUP1 SWAP2 POP POP SWAP3 SWAP2 POP POP JUMP JUMPDEST DUP3 DUP1 SLOAD PUSH2 0x171C SWAP1 PUSH2 0x25D9 JUMP JUMPDEST SWAP1 PUSH1 0x0 MSTORE PUSH1 0x20 PUSH1 0x0 KECCAK256 SWAP1 PUSH1 0x1F ADD PUSH1 0x20 SWAP1 DIV DUP2 ADD SWAP3 DUP3 PUSH2 0x173E JUMPI PUSH1 0x0 DUP6 SSTORE PUSH2 0x1785 JUMP JUMPDEST DUP3 PUSH1 0x1F LT PUSH2 0x1757 JUMPI DUP1 MLOAD PUSH1 0xFF NOT AND DUP4 DUP1 ADD OR DUP6 SSTORE PUSH2 0x1785 JUMP JUMPDEST DUP3 DUP1 ADD PUSH1 0x1 ADD DUP6 SSTORE DUP3 ISZERO PUSH2 0x1785 JUMPI SWAP2 DUP3 ADD JUMPDEST DUP3 DUP2 GT ISZERO PUSH2 0x1784 JUMPI DUP3 MLOAD DUP3 SSTORE SWAP2 PUSH1 0x20 ADD SWAP2 SWAP1 PUSH1 0x1 ADD SWAP1 PUSH2 0x1769 JUMP JUMPDEST JUMPDEST POP SWAP1 POP PUSH2 0x1792 SWAP2 SWAP1 PUSH2 0x1796 JUMP JUMPDEST POP SWAP1 JUMP JUMPDEST JUMPDEST DUP1 DUP3 GT ISZERO PUSH2 0x17AF JUMPI PUSH1 0x0 DUP2 PUSH1 0x0 SWAP1 SSTORE POP PUSH1 0x1 ADD PUSH2 0x1797 JUMP JUMPDEST POP SWAP1 JUMP JUMPDEST PUSH1 0x0 PUSH2 0x17C6 PUSH2 0x17C1 DUP5 PUSH2 0x223B JUMP JUMPDEST PUSH2 0x2216 JUMP JUMPDEST SWAP1 POP DUP1 DUP4 DUP3 MSTORE PUSH1 0x20 DUP3 ADD SWAP1 POP DUP3 PUSH1 0x0 JUMPDEST DUP6 DUP2 LT ISZERO PUSH2 0x1806 JUMPI DUP2 CALLDATALOAD DUP6 ADD PUSH2 0x17EC DUP9 DUP3 PUSH2 0x1962 JUMP JUMPDEST DUP5 MSTORE PUSH1 0x20 DUP5 ADD SWAP4 POP PUSH1 0x20 DUP4 ADD SWAP3 POP POP PUSH1 0x1 DUP2 ADD SWAP1 POP PUSH2 0x17D6 JUMP JUMPDEST POP POP POP SWAP4 SWAP3 POP POP POP JUMP JUMPDEST PUSH1 0x0 PUSH2 0x1823 PUSH2 0x181E DUP5 PUSH2 0x2267 JUMP JUMPDEST PUSH2 0x2216 JUMP JUMPDEST SWAP1 POP DUP1 DUP4 DUP3 MSTORE PUSH1 0x20 DUP3 ADD SWAP1 POP DUP3 DUP6 PUSH1 0x20 DUP7 MUL DUP3 ADD GT ISZERO PUSH2 0x1842 JUMPI PUSH1 0x0 DUP1 REVERT JUMPDEST PUSH1 0x0 JUMPDEST DUP6 DUP2 LT ISZERO PUSH2 0x1872 JUMPI DUP2 PUSH2 0x1858 DUP9 DUP3 PUSH2 0x198C JUMP JUMPDEST DUP5 MSTORE PUSH1 0x20 DUP5 ADD SWAP4 POP PUSH1 0x20 DUP4 ADD SWAP3 POP POP PUSH1 0x1 DUP2 ADD SWAP1 POP PUSH2 0x1845 JUMP JUMPDEST POP POP POP SWAP4 SWAP3 POP POP POP JUMP JUMPDEST PUSH1 0x0 PUSH2 0x188F PUSH2 0x188A DUP5 PUSH2 0x2293 JUMP JUMPDEST PUSH2 0x2216 JUMP JUMPDEST SWAP1 POP DUP3 DUP2 MSTORE PUSH1 0x20 DUP2 ADD DUP5 DUP5 DUP5 ADD GT ISZERO PUSH2 0x18A7 JUMPI PUSH1 0x0 DUP1 REVERT JUMPDEST PUSH2 0x18B2 DUP5 DUP3 DUP6 PUSH2 0x256D JUMP JUMPDEST POP SWAP4 SWAP3 POP POP POP JUMP JUMPDEST PUSH1 0x0 DUP2 CALLDATALOAD SWAP1 POP PUSH2 0x18C9 DUP2 PUSH2 0x299F JUMP JUMPDEST SWAP3 SWAP2 POP POP JUMP JUMPDEST PUSH1 0x0 DUP3 PUSH1 0x1F DUP4 ADD SLT PUSH2 0x18E0 JUMPI PUSH1 0x0 DUP1 REVERT JUMPDEST DUP2 CALLDATALOAD PUSH2 0x18F0 DUP5 DUP3 PUSH1 0x20 DUP7 ADD PUSH2 0x17B3 JUMP JUMPDEST SWAP2 POP POP SWAP3 SWAP2 POP POP JUMP JUMPDEST PUSH1 0x0 DUP3 PUSH1 0x1F DUP4 ADD SLT PUSH2 0x190A JUMPI PUSH1 0x0 DUP1 REVERT JUMPDEST DUP2 CALLDATALOAD PUSH2 0x191A DUP5 DUP3 PUSH1 0x20 DUP7 ADD PUSH2 0x1810 JUMP JUMPDEST SWAP2 POP POP SWAP3 SWAP2 POP POP JUMP JUMPDEST PUSH1 0x0 DUP2 MLOAD SWAP1 POP PUSH2 0x1932 DUP2 PUSH2 0x29B6 JUMP JUMPDEST SWAP3 SWAP2 POP POP JUMP JUMPDEST PUSH1 0x0 DUP2 CALLDATALOAD SWAP1 POP PUSH2 0x1947 DUP2 PUSH2 0x29CD JUMP JUMPDEST SWAP3 SWAP2 POP POP JUMP JUMPDEST PUSH1 0x0 DUP2 CALLDATALOAD SWAP1 POP PUSH2 0x195C DUP2 PUSH2 0x29E4 JUMP JUMPDEST SWAP3 SWAP2 POP POP JUMP JUMPDEST PUSH1 0x0 DUP3 PUSH1 0x1F DUP4 ADD SLT PUSH2 0x1973 JUMPI PUSH1 0x0 DUP1 REVERT JUMPDEST DUP2 CALLDATALOAD PUSH2 0x1983 DUP5 DUP3 PUSH1 0x20 DUP7 ADD PUSH2 0x187C JUMP JUMPDEST SWAP2 POP POP SWAP3 SWAP2 POP POP JUMP JUMPDEST PUSH1 0x0 DUP2 CALLDATALOAD SWAP1 POP PUSH2 0x199B DUP2 PUSH2 0x29FB JUMP JUMPDEST SWAP3 SWAP2 POP POP JUMP JUMPDEST PUSH1 0x0 DUP2 MLOAD SWAP1 POP PUSH2 0x19B0 DUP2 PUSH2 0x29FB JUMP JUMPDEST SWAP3 SWAP2 POP POP JUMP JUMPDEST PUSH1 0x0 PUSH1 0x20 DUP3 DUP5 SUB SLT ISZERO PUSH2 0x19C8 JUMPI PUSH1 0x0 DUP1 REVERT JUMPDEST PUSH1 0x0 PUSH2 0x19D6 DUP5 DUP3 DUP6 ADD PUSH2 0x18BA JUMP JUMPDEST SWAP2 POP POP SWAP3 SWAP2 POP POP JUMP JUMPDEST PUSH1 0x0 DUP1 PUSH1 0x40 DUP4 DUP6 SUB SLT ISZERO PUSH2 0x19F2 JUMPI PUSH1 0x0 DUP1 REVERT JUMPDEST PUSH1 0x0 PUSH2 0x1A00 DUP6 DUP3 DUP7 ADD PUSH2 0x18BA JUMP JUMPDEST SWAP3 POP POP PUSH1 0x20 PUSH2 0x1A11 DUP6 DUP3 DUP7 ADD PUSH2 0x198C JUMP JUMPDEST SWAP2 POP POP SWAP3 POP SWAP3 SWAP1 POP JUMP JUMPDEST PUSH1 0x0 DUP1 PUSH1 0x40 DUP4 DUP6 SUB SLT ISZERO PUSH2 0x1A2E JUMPI PUSH1 0x0 DUP1 REVERT JUMPDEST PUSH1 0x0 DUP4 ADD CALLDATALOAD PUSH8 0xFFFFFFFFFFFFFFFF DUP2 GT ISZERO PUSH2 0x1A48 JUMPI PUSH1 0x0 DUP1 REVERT JUMPDEST PUSH2 0x1A54 DUP6 DUP3 DUP7 ADD PUSH2 0x18F9 JUMP JUMPDEST SWAP3 POP POP PUSH1 0x20 DUP4 ADD CALLDATALOAD PUSH8 0xFFFFFFFFFFFFFFFF DUP2 GT ISZERO PUSH2 0x1A71 JUMPI PUSH1 0x0 DUP1 REVERT JUMPDEST PUSH2 0x1A7D DUP6 DUP3 DUP7 ADD PUSH2 0x18CF JUMP JUMPDEST SWAP2 POP POP SWAP3 POP SWAP3 SWAP1 POP JUMP JUMPDEST PUSH1 0x0 PUSH1 0x20 DUP3 DUP5 SUB SLT ISZERO PUSH2 0x1A99 JUMPI PUSH1 0x0 DUP1 REVERT JUMPDEST PUSH1 0x0 PUSH2 0x1AA7 DUP5 DUP3 DUP6 ADD PUSH2 0x1923 JUMP JUMPDEST SWAP2 POP POP SWAP3 SWAP2 POP POP JUMP JUMPDEST PUSH1 0x0 PUSH1 0x20 DUP3 DUP5 SUB SLT ISZERO PUSH2 0x1AC2 JUMPI PUSH1 0x0 DUP1 REVERT JUMPDEST PUSH1 0x0 PUSH2 0x1AD0 DUP5 DUP3 DUP6 ADD PUSH2 0x1938 JUMP JUMPDEST SWAP2 POP POP SWAP3 SWAP2 POP POP JUMP JUMPDEST PUSH1 0x0 DUP1 PUSH1 0x40 DUP4 DUP6 SUB SLT ISZERO PUSH2 0x1AEC JUMPI PUSH1 0x0 DUP1 REVERT JUMPDEST PUSH1 0x0 PUSH2 0x1AFA DUP6 DUP3 DUP7 ADD PUSH2 0x1938 JUMP JUMPDEST SWAP3 POP POP PUSH1 0x20 PUSH2 0x1B0B DUP6 DUP3 DUP7 ADD PUSH2 0x18BA JUMP JUMPDEST SWAP2 POP POP SWAP3 POP SWAP3 SWAP1 POP JUMP JUMPDEST PUSH1 0x0 PUSH1 0x20 DUP3 DUP5 SUB SLT ISZERO PUSH2 0x1B27 JUMPI PUSH1 0x0 DUP1 REVERT JUMPDEST PUSH1 0x0 PUSH2 0x1B35 DUP5 DUP3 DUP6 ADD PUSH2 0x194D JUMP JUMPDEST SWAP2 POP POP SWAP3 SWAP2 POP POP JUMP JUMPDEST PUSH1 0x0 PUSH1 0x20 DUP3 DUP5 SUB SLT ISZERO PUSH2 0x1B50 JUMPI PUSH1 0x0 DUP1 REVERT JUMPDEST PUSH1 0x0 PUSH2 0x1B5E DUP5 DUP3 DUP6 ADD PUSH2 0x198C JUMP JUMPDEST SWAP2 POP POP SWAP3 SWAP2 POP POP JUMP JUMPDEST PUSH1 0x0 PUSH1 0x20 DUP3 DUP5 SUB SLT ISZERO PUSH2 0x1B79 JUMPI PUSH1 0x0 DUP1 REVERT JUMPDEST PUSH1 0x0 PUSH2 0x1B87 DUP5 DUP3 DUP6 ADD PUSH2 0x19A1 JUMP JUMPDEST SWAP2 POP POP SWAP3 SWAP2 POP POP JUMP JUMPDEST PUSH1 0x0 PUSH2 0x1B9C DUP4 DUP4 PUSH2 0x1D00 JUMP JUMPDEST SWAP1 POP SWAP3 SWAP2 POP POP JUMP JUMPDEST PUSH1 0x0 PUSH2 0x1BB0 DUP4 DUP4 PUSH2 0x1F24 JUMP JUMPDEST PUSH1 0x20 DUP4 ADD SWAP1 POP SWAP3 SWAP2 POP POP JUMP JUMPDEST PUSH2 0x1BC5 DUP2 PUSH2 0x2483 JUMP JUMPDEST DUP3 MSTORE POP POP JUMP JUMPDEST PUSH2 0x1BDC PUSH2 0x1BD7 DUP3 PUSH2 0x2483 JUMP JUMPDEST PUSH2 0x263C JUMP JUMPDEST DUP3 MSTORE POP POP JUMP JUMPDEST PUSH1 0x0 PUSH2 0x1BED DUP3 PUSH2 0x22E4 JUMP JUMPDEST PUSH2 0x1BF7 DUP2 DUP6 PUSH2 0x231F JUMP JUMPDEST SWAP4 POP DUP4 PUSH1 0x20 DUP3 MUL DUP6 ADD PUSH2 0x1C09 DUP6 PUSH2 0x22C4 JUMP JUMPDEST DUP1 PUSH1 0x0 JUMPDEST DUP6 DUP2 LT ISZERO PUSH2 0x1C45 JUMPI DUP5 DUP5 SUB DUP10 MSTORE DUP2 MLOAD PUSH2 0x1C26 DUP6 DUP3 PUSH2 0x1B90 JUMP JUMPDEST SWAP5 POP PUSH2 0x1C31 DUP4 PUSH2 0x2305 JUMP JUMPDEST SWAP3 POP PUSH1 0x20 DUP11 ADD SWAP10 POP POP PUSH1 0x1 DUP2 ADD SWAP1 POP PUSH2 0x1C0D JUMP JUMPDEST POP DUP3 SWAP8 POP DUP8 SWAP6 POP POP POP POP POP POP SWAP3 SWAP2 POP POP JUMP JUMPDEST PUSH1 0x0 PUSH2 0x1C62 DUP3 PUSH2 0x22EF JUMP JUMPDEST PUSH2 0x1C6C DUP2 DUP6 PUSH2 0x2330 JUMP JUMPDEST SWAP4 POP PUSH2 0x1C77 DUP4 PUSH2 0x22D4 JUMP JUMPDEST DUP1 PUSH1 0x0 JUMPDEST DUP4 DUP2 LT ISZERO PUSH2 0x1CA8 JUMPI DUP2 MLOAD PUSH2 0x1C8F DUP9 DUP3 PUSH2 0x1BA4 JUMP JUMPDEST SWAP8 POP PUSH2 0x1C9A DUP4 PUSH2 0x2312 JUMP JUMPDEST SWAP3 POP POP PUSH1 0x1 DUP2 ADD SWAP1 POP PUSH2 0x1C7B JUMP JUMPDEST POP DUP6 SWAP4 POP POP POP POP SWAP3 SWAP2 POP POP JUMP JUMPDEST PUSH2 0x1CBE DUP2 PUSH2 0x2495 JUMP JUMPDEST DUP3 MSTORE POP POP JUMP JUMPDEST PUSH2 0x1CCD DUP2 PUSH2 0x24A1 JUMP JUMPDEST DUP3 MSTORE POP POP JUMP JUMPDEST PUSH2 0x1CDC DUP2 PUSH2 0x2501 JUMP JUMPDEST DUP3 MSTORE POP POP JUMP JUMPDEST PUSH2 0x1CEB DUP2 PUSH2 0x2525 JUMP JUMPDEST DUP3 MSTORE POP POP JUMP JUMPDEST PUSH2 0x1CFA DUP2 PUSH2 0x2549 JUMP JUMPDEST DUP3 MSTORE POP POP JUMP JUMPDEST PUSH1 0x0 PUSH2 0x1D0B DUP3 PUSH2 0x22FA JUMP JUMPDEST PUSH2 0x1D15 DUP2 DUP6 PUSH2 0x2341 JUMP JUMPDEST SWAP4 POP PUSH2 0x1D25 DUP2 DUP6 PUSH1 0x20 DUP7 ADD PUSH2 0x257C JUMP JUMPDEST PUSH2 0x1D2E DUP2 PUSH2 0x2726 JUMP JUMPDEST DUP5 ADD SWAP2 POP POP SWAP3 SWAP2 POP POP JUMP JUMPDEST PUSH1 0x0 PUSH2 0x1D44 DUP3 PUSH2 0x22FA JUMP JUMPDEST PUSH2 0x1D4E DUP2 DUP6 PUSH2 0x2352 JUMP JUMPDEST SWAP4 POP PUSH2 0x1D5E DUP2 DUP6 PUSH1 0x20 DUP7 ADD PUSH2 0x257C JUMP JUMPDEST PUSH2 0x1D67 DUP2 PUSH2 0x2726 JUMP JUMPDEST DUP5 ADD SWAP2 POP POP SWAP3 SWAP2 POP POP JUMP JUMPDEST PUSH1 0x0 PUSH2 0x1D7D DUP3 PUSH2 0x22FA JUMP JUMPDEST PUSH2 0x1D87 DUP2 DUP6 PUSH2 0x2363 JUMP JUMPDEST SWAP4 POP PUSH2 0x1D97 DUP2 DUP6 PUSH1 0x20 DUP7 ADD PUSH2 0x257C JUMP JUMPDEST DUP1 DUP5 ADD SWAP2 POP POP SWAP3 SWAP2 POP POP JUMP JUMPDEST PUSH1 0x0 PUSH2 0x1DB0 PUSH1 0x20 DUP4 PUSH2 0x2352 JUMP JUMPDEST SWAP2 POP PUSH2 0x1DBB DUP3 PUSH2 0x2744 JUMP JUMPDEST PUSH1 0x20 DUP3 ADD SWAP1 POP SWAP2 SWAP1 POP JUMP JUMPDEST PUSH1 0x0 PUSH2 0x1DD3 PUSH1 0x8 DUP4 PUSH2 0x2363 JUMP JUMPDEST SWAP2 POP PUSH2 0x1DDE DUP3 PUSH2 0x276D JUMP JUMPDEST PUSH1 0x8 DUP3 ADD SWAP1 POP SWAP2 SWAP1 POP JUMP JUMPDEST PUSH1 0x0 PUSH2 0x1DF6 PUSH1 0x36 DUP4 PUSH2 0x2352 JUMP JUMPDEST SWAP2 POP PUSH2 0x1E01 DUP3 PUSH2 0x2796 JUMP JUMPDEST PUSH1 0x40 DUP3 ADD SWAP1 POP SWAP2 SWAP1 POP JUMP JUMPDEST PUSH1 0x0 PUSH2 0x1E19 PUSH1 0x1B DUP4 PUSH2 0x2352 JUMP JUMPDEST SWAP2 POP PUSH2 0x1E24 DUP3 PUSH2 0x27E5 JUMP JUMPDEST PUSH1 0x20 DUP3 ADD SWAP1 POP SWAP2 SWAP1 POP JUMP JUMPDEST PUSH1 0x0 PUSH2 0x1E3C PUSH1 0x23 DUP4 PUSH2 0x2352 JUMP JUMPDEST SWAP2 POP PUSH2 0x1E47 DUP3 PUSH2 0x280E JUMP JUMPDEST PUSH1 0x40 DUP3 ADD SWAP1 POP SWAP2 SWAP1 POP JUMP JUMPDEST PUSH1 0x0 PUSH2 0x1E5F PUSH1 0x1 DUP4 PUSH2 0x2363 JUMP JUMPDEST SWAP2 POP PUSH2 0x1E6A DUP3 PUSH2 0x285D JUMP JUMPDEST PUSH1 0x1 DUP3 ADD SWAP1 POP SWAP2 SWAP1 POP JUMP JUMPDEST PUSH1 0x0 PUSH2 0x1E82 PUSH1 0x30 DUP4 PUSH2 0x2363 JUMP JUMPDEST SWAP2 POP PUSH2 0x1E8D DUP3 PUSH2 0x2886 JUMP JUMPDEST PUSH1 0x30 DUP3 ADD SWAP1 POP SWAP2 SWAP1 POP JUMP JUMPDEST PUSH1 0x0 PUSH2 0x1EA5 PUSH1 0x1F DUP4 PUSH2 0x2352 JUMP JUMPDEST SWAP2 POP PUSH2 0x1EB0 DUP3 PUSH2 0x28D5 JUMP JUMPDEST PUSH1 0x20 DUP3 ADD SWAP1 POP SWAP2 SWAP1 POP JUMP JUMPDEST PUSH1 0x0 PUSH2 0x1EC8 PUSH1 0x17 DUP4 PUSH2 0x2363 JUMP JUMPDEST SWAP2 POP PUSH2 0x1ED3 DUP3 PUSH2 0x28FE JUMP JUMPDEST PUSH1 0x17 DUP3 ADD SWAP1 POP SWAP2 SWAP1 POP JUMP JUMPDEST PUSH1 0x0 PUSH2 0x1EEB PUSH1 0x11 DUP4 PUSH2 0x2363 JUMP JUMPDEST SWAP2 POP PUSH2 0x1EF6 DUP3 PUSH2 0x2927 JUMP JUMPDEST PUSH1 0x11 DUP3 ADD SWAP1 POP SWAP2 SWAP1 POP JUMP JUMPDEST PUSH1 0x0 PUSH2 0x1F0E PUSH1 0x2F DUP4 PUSH2 0x2352 JUMP JUMPDEST SWAP2 POP PUSH2 0x1F19 DUP3 PUSH2 0x2950 JUMP JUMPDEST PUSH1 0x40 DUP3 ADD SWAP1 POP SWAP2 SWAP1 POP JUMP JUMPDEST PUSH2 0x1F2D DUP2 PUSH2 0x24F7 JUMP JUMPDEST DUP3 MSTORE POP POP JUMP JUMPDEST PUSH2 0x1F3C DUP2 PUSH2 0x24F7 JUMP JUMPDEST DUP3 MSTORE POP POP JUMP JUMPDEST PUSH2 0x1F53 PUSH2 0x1F4E DUP3 PUSH2 0x24F7 JUMP JUMPDEST PUSH2 0x2660 JUMP JUMPDEST DUP3 MSTORE POP POP JUMP JUMPDEST PUSH1 0x0 PUSH2 0x1F64 DUP3 PUSH2 0x1DC6 JUMP JUMPDEST SWAP2 POP PUSH2 0x1F70 DUP3 DUP6 PUSH2 0x1BCB JUMP JUMPDEST PUSH1 0x14 DUP3 ADD SWAP2 POP PUSH2 0x1F7F DUP3 PUSH2 0x1E75 JUMP JUMPDEST SWAP2 POP PUSH2 0x1F8B DUP3 DUP5 PUSH2 0x1F42 JUMP JUMPDEST PUSH1 0x20 DUP3 ADD SWAP2 POP PUSH2 0x1F9A DUP3 PUSH2 0x1E52 JUMP JUMPDEST SWAP2 POP DUP2 SWAP1 POP SWAP4 SWAP3 POP POP POP JUMP JUMPDEST PUSH1 0x0 PUSH2 0x1FB1 DUP3 PUSH2 0x1EBB JUMP JUMPDEST SWAP2 POP PUSH2 0x1FBD DUP3 DUP6 PUSH2 0x1D72 JUMP JUMPDEST SWAP2 POP PUSH2 0x1FC8 DUP3 PUSH2 0x1EDE JUMP JUMPDEST SWAP2 POP PUSH2 0x1FD4 DUP3 DUP5 PUSH2 0x1D72 JUMP JUMPDEST SWAP2 POP DUP2 SWAP1 POP SWAP4 SWAP3 POP POP POP JUMP JUMPDEST PUSH1 0x0 PUSH1 0x20 DUP3 ADD SWAP1 POP PUSH2 0x1FF5 PUSH1 0x0 DUP4 ADD DUP5 PUSH2 0x1BBC JUMP JUMPDEST SWAP3 SWAP2 POP POP JUMP JUMPDEST PUSH1 0x0 PUSH1 0x40 DUP3 ADD SWAP1 POP PUSH2 0x2010 PUSH1 0x0 DUP4 ADD DUP6 PUSH2 0x1BBC JUMP JUMPDEST PUSH2 0x201D PUSH1 0x20 DUP4 ADD DUP5 PUSH2 0x1F33 JUMP JUMPDEST SWAP4 SWAP3 POP POP POP JUMP JUMPDEST PUSH1 0x0 PUSH1 0x40 DUP3 ADD SWAP1 POP DUP2 DUP2 SUB PUSH1 0x0 DUP4 ADD MSTORE PUSH2 0x203E DUP2 DUP6 PUSH2 0x1C57 JUMP JUMPDEST SWAP1 POP DUP2 DUP2 SUB PUSH1 0x20 DUP4 ADD MSTORE PUSH2 0x2052 DUP2 DUP5 PUSH2 0x1BE2 JUMP JUMPDEST SWAP1 POP SWAP4 SWAP3 POP POP POP JUMP JUMPDEST PUSH1 0x0 PUSH1 0x20 DUP3 ADD SWAP1 POP PUSH2 0x2070 PUSH1 0x0 DUP4 ADD DUP5 PUSH2 0x1CB5 JUMP JUMPDEST SWAP3 SWAP2 POP POP JUMP JUMPDEST PUSH1 0x0 PUSH1 0x20 DUP3 ADD SWAP1 POP PUSH2 0x208B PUSH1 0x0 DUP4 ADD DUP5 PUSH2 0x1CC4 JUMP JUMPDEST SWAP3 SWAP2 POP POP JUMP JUMPDEST PUSH1 0x0 PUSH1 0x20 DUP3 ADD SWAP1 POP PUSH2 0x20A6 PUSH1 0x0 DUP4 ADD DUP5 PUSH2 0x1CD3 JUMP JUMPDEST SWAP3 SWAP2 POP POP JUMP JUMPDEST PUSH1 0x0 PUSH1 0x20 DUP3 ADD SWAP1 POP PUSH2 0x20C1 PUSH1 0x0 DUP4 ADD DUP5 PUSH2 0x1CE2 JUMP JUMPDEST SWAP3 SWAP2 POP POP JUMP JUMPDEST PUSH1 0x0 PUSH1 0x20 DUP3 ADD SWAP1 POP PUSH2 0x20DC PUSH1 0x0 DUP4 ADD DUP5 PUSH2 0x1CF1 JUMP JUMPDEST SWAP3 SWAP2 POP POP JUMP JUMPDEST PUSH1 0x0 PUSH1 0x20 DUP3 ADD SWAP1 POP DUP2 DUP2 SUB PUSH1 0x0 DUP4 ADD MSTORE PUSH2 0x20FC DUP2 DUP5 PUSH2 0x1D39 JUMP JUMPDEST SWAP1 POP SWAP3 SWAP2 POP POP JUMP JUMPDEST PUSH1 0x0 PUSH1 0x20 DUP3 ADD SWAP1 POP DUP2 DUP2 SUB PUSH1 0x0 DUP4 ADD MSTORE PUSH2 0x211D DUP2 PUSH2 0x1DA3 JUMP JUMPDEST SWAP1 POP SWAP2 SWAP1 POP JUMP JUMPDEST PUSH1 0x0 PUSH1 0x20 DUP3 ADD SWAP1 POP DUP2 DUP2 SUB PUSH1 0x0 DUP4 ADD MSTORE PUSH2 0x213D DUP2 PUSH2 0x1DE9 JUMP JUMPDEST SWAP1 POP SWAP2 SWAP1 POP JUMP JUMPDEST PUSH1 0x0 PUSH1 0x20 DUP3 ADD SWAP1 POP DUP2 DUP2 SUB PUSH1 0x0 DUP4 ADD MSTORE PUSH2 0x215D DUP2 PUSH2 0x1E0C JUMP JUMPDEST SWAP1 POP SWAP2 SWAP1 POP JUMP JUMPDEST PUSH1 0x0 PUSH1 0x20 DUP3 ADD SWAP1 POP DUP2 DUP2 SUB PUSH1 0x0 DUP4 ADD MSTORE PUSH2 0x217D DUP2 PUSH2 0x1E2F JUMP JUMPDEST SWAP1 POP SWAP2 SWAP1 POP JUMP JUMPDEST PUSH1 0x0 PUSH1 0x20 DUP3 ADD SWAP1 POP DUP2 DUP2 SUB PUSH1 0x0 DUP4 ADD MSTORE PUSH2 0x219D DUP2 PUSH2 0x1E98 JUMP JUMPDEST SWAP1 POP SWAP2 SWAP1 POP JUMP JUMPDEST PUSH1 0x0 PUSH1 0x20 DUP3 ADD SWAP1 POP DUP2 DUP2 SUB PUSH1 0x0 DUP4 ADD MSTORE PUSH2 0x21BD DUP2 PUSH2 0x1F01 JUMP JUMPDEST SWAP1 POP SWAP2 SWAP1 POP JUMP JUMPDEST PUSH1 0x0 PUSH1 0x20 DUP3 ADD SWAP1 POP PUSH2 0x21D9 PUSH1 0x0 DUP4 ADD DUP5 PUSH2 0x1F33 JUMP JUMPDEST SWAP3 SWAP2 POP POP JUMP JUMPDEST PUSH1 0x0 PUSH1 0x60 DUP3 ADD SWAP1 POP PUSH2 0x21F4 PUSH1 0x0 DUP4 ADD DUP7 PUSH2 0x1F33 JUMP JUMPDEST PUSH2 0x2201 PUSH1 0x20 DUP4 ADD DUP6 PUSH2 0x1F33 JUMP JUMPDEST PUSH2 0x220E PUSH1 0x40 DUP4 ADD DUP5 PUSH2 0x1CB5 JUMP JUMPDEST SWAP5 SWAP4 POP POP POP POP JUMP JUMPDEST PUSH1 0x0 PUSH2 0x2220 PUSH2 0x2231 JUMP JUMPDEST SWAP1 POP PUSH2 0x222C DUP3 DUP3 PUSH2 0x260B JUMP JUMPDEST SWAP2 SWAP1 POP JUMP JUMPDEST PUSH1 0x0 PUSH1 0x40 MLOAD SWAP1 POP SWAP1 JUMP JUMPDEST PUSH1 0x0 PUSH8 0xFFFFFFFFFFFFFFFF DUP3 GT ISZERO PUSH2 0x2256 JUMPI PUSH2 0x2255 PUSH2 0x26F7 JUMP JUMPDEST JUMPDEST PUSH1 0x20 DUP3 MUL SWAP1 POP PUSH1 0x20 DUP2 ADD SWAP1 POP SWAP2 SWAP1 POP JUMP JUMPDEST PUSH1 0x0 PUSH8 0xFFFFFFFFFFFFFFFF DUP3 GT ISZERO PUSH2 0x2282 JUMPI PUSH2 0x2281 PUSH2 0x26F7 JUMP JUMPDEST JUMPDEST PUSH1 0x20 DUP3 MUL SWAP1 POP PUSH1 0x20 DUP2 ADD SWAP1 POP SWAP2 SWAP1 POP JUMP JUMPDEST PUSH1 0x0 PUSH8 0xFFFFFFFFFFFFFFFF DUP3 GT ISZERO PUSH2 0x22AE JUMPI PUSH2 0x22AD PUSH2 0x26F7 JUMP JUMPDEST JUMPDEST PUSH2 0x22B7 DUP3 PUSH2 0x2726 JUMP JUMPDEST SWAP1 POP PUSH1 0x20 DUP2 ADD SWAP1 POP SWAP2 SWAP1 POP JUMP JUMPDEST PUSH1 0x0 DUP2 SWAP1 POP PUSH1 0x20 DUP3 ADD SWAP1 POP SWAP2 SWAP1 POP JUMP JUMPDEST PUSH1 0x0 DUP2 SWAP1 POP PUSH1 0x20 DUP3 ADD SWAP1 POP SWAP2 SWAP1 POP JUMP JUMPDEST PUSH1 0x0 DUP2 MLOAD SWAP1 POP SWAP2 SWAP1 POP JUMP JUMPDEST PUSH1 0x0 DUP2 MLOAD SWAP1 POP SWAP2 SWAP1 POP JUMP JUMPDEST PUSH1 0x0 DUP2 MLOAD SWAP1 POP SWAP2 SWAP1 POP JUMP JUMPDEST PUSH1 0x0 PUSH1 0x20 DUP3 ADD SWAP1 POP SWAP2 SWAP1 POP JUMP JUMPDEST PUSH1 0x0 PUSH1 0x20 DUP3 ADD SWAP1 POP SWAP2 SWAP1 POP JUMP JUMPDEST PUSH1 0x0 DUP3 DUP3 MSTORE PUSH1 0x20 DUP3 ADD SWAP1 POP SWAP3 SWAP2 POP POP JUMP JUMPDEST PUSH1 0x0 DUP3 DUP3 MSTORE PUSH1 0x20 DUP3 ADD SWAP1 POP SWAP3 SWAP2 POP POP JUMP JUMPDEST PUSH1 0x0 DUP3 DUP3 MSTORE PUSH1 0x20 DUP3 ADD SWAP1 POP SWAP3 SWAP2 POP POP JUMP JUMPDEST PUSH1 0x0 DUP3 DUP3 MSTORE PUSH1 0x20 DUP3 ADD SWAP1 POP SWAP3 SWAP2 POP POP JUMP JUMPDEST PUSH1 0x0 DUP2 SWAP1 POP SWAP3 SWAP2 POP POP JUMP JUMPDEST PUSH1 0x0 PUSH2 0x2379 DUP3 PUSH2 0x24F7 JUMP JUMPDEST SWAP2 POP PUSH2 0x2384 DUP4 PUSH2 0x24F7 JUMP JUMPDEST SWAP3 POP DUP3 PUSH32 0xFFFFFFFFFFFFFFFFFFFFFFFFFFFFFFFFFFFFFFFFFFFFFFFFFFFFFFFFFFFFFFFF SUB DUP3 GT ISZERO PUSH2 0x23B9 JUMPI PUSH2 0x23B8 PUSH2 0x266A JUMP JUMPDEST JUMPDEST DUP3 DUP3 ADD SWAP1 POP SWAP3 SWAP2 POP POP JUMP JUMPDEST PUSH1 0x0 PUSH2 0x23CF DUP3 PUSH2 0x24F7 JUMP JUMPDEST SWAP2 POP PUSH2 0x23DA DUP4 PUSH2 0x24F7 JUMP JUMPDEST SWAP3 POP DUP3 PUSH2 0x23EA JUMPI PUSH2 0x23E9 PUSH2 0x2699 JUMP JUMPDEST JUMPDEST DUP3 DUP3 DIV SWAP1 POP SWAP3 SWAP2 POP POP JUMP JUMPDEST PUSH1 0x0 PUSH2 0x2400 DUP3 PUSH2 0x24F7 JUMP JUMPDEST SWAP2 POP PUSH2 0x240B DUP4 PUSH2 0x24F7 JUMP JUMPDEST SWAP3 POP DUP2 PUSH32 0xFFFFFFFFFFFFFFFFFFFFFFFFFFFFFFFFFFFFFFFFFFFFFFFFFFFFFFFFFFFFFFFF DIV DUP4 GT DUP3 ISZERO ISZERO AND ISZERO PUSH2 0x2444 JUMPI PUSH2 0x2443 PUSH2 0x266A JUMP JUMPDEST JUMPDEST DUP3 DUP3 MUL SWAP1 POP SWAP3 SWAP2 POP POP JUMP JUMPDEST PUSH1 0x0 PUSH2 0x245A DUP3 PUSH2 0x24F7 JUMP JUMPDEST SWAP2 POP PUSH2 0x2465 DUP4 PUSH2 0x24F7 JUMP JUMPDEST SWAP3 POP DUP3 DUP3 LT ISZERO PUSH2 0x2478 JUMPI PUSH2 0x2477 PUSH2 0x266A JUMP JUMPDEST JUMPDEST DUP3 DUP3 SUB SWAP1 POP SWAP3 SWAP2 POP POP JUMP JUMPDEST PUSH1 0x0 PUSH2 0x248E DUP3 PUSH2 0x24D7 JUMP JUMPDEST SWAP1 POP SWAP2 SWAP1 POP JUMP JUMPDEST PUSH1 0x0 DUP2 ISZERO ISZERO SWAP1 POP SWAP2 SWAP1 POP JUMP JUMPDEST PUSH1 0x0 DUP2 SWAP1 POP SWAP2 SWAP1 POP JUMP JUMPDEST PUSH1 0x0 PUSH32 0xFFFFFFFF00000000000000000000000000000000000000000000000000000000 DUP3 AND SWAP1 POP SWAP2 SWAP1 POP JUMP JUMPDEST PUSH1 0x0 PUSH20 0xFFFFFFFFFFFFFFFFFFFFFFFFFFFFFFFFFFFFFFFF DUP3 AND SWAP1 POP SWAP2 SWAP1 POP JUMP JUMPDEST PUSH1 0x0 DUP2 SWAP1 POP SWAP2 SWAP1 POP JUMP JUMPDEST PUSH1 0x0 PUSH2 0x250C DUP3 PUSH2 0x2513 JUMP JUMPDEST SWAP1 POP SWAP2 SWAP1 POP JUMP JUMPDEST PUSH1 0x0 PUSH2 0x251E DUP3 PUSH2 0x24D7 JUMP JUMPDEST SWAP1 POP SWAP2 SWAP1 POP JUMP JUMPDEST PUSH1 0x0 PUSH2 0x2530 DUP3 PUSH2 0x2537 JUMP JUMPDEST SWAP1 POP SWAP2 SWAP1 POP JUMP JUMPDEST PUSH1 0x0 PUSH2 0x2542 DUP3 PUSH2 0x24D7 JUMP JUMPDEST SWAP1 POP SWAP2 SWAP1 POP JUMP JUMPDEST PUSH1 0x0 PUSH2 0x2554 DUP3 PUSH2 0x255B JUMP JUMPDEST SWAP1 POP SWAP2 SWAP1 POP JUMP JUMPDEST PUSH1 0x0 PUSH2 0x2566 DUP3 PUSH2 0x24D7 JUMP JUMPDEST SWAP1 POP SWAP2 SWAP1 POP JUMP JUMPDEST DUP3 DUP2 DUP4 CALLDATACOPY PUSH1 0x0 DUP4 DUP4 ADD MSTORE POP POP POP JUMP JUMPDEST PUSH1 0x0 JUMPDEST DUP4 DUP2 LT ISZERO PUSH2 0x259A JUMPI DUP1 DUP3 ADD MLOAD DUP2 DUP5 ADD MSTORE PUSH1 0x20 DUP2 ADD SWAP1 POP PUSH2 0x257F JUMP JUMPDEST DUP4 DUP2 GT ISZERO PUSH2 0x25A9 JUMPI PUSH1 0x0 DUP5 DUP5 ADD MSTORE JUMPDEST POP POP POP POP JUMP JUMPDEST PUSH1 0x0 PUSH2 0x25BA DUP3 PUSH2 0x24F7 JUMP JUMPDEST SWAP2 POP PUSH1 0x0 DUP3 EQ ISZERO PUSH2 0x25CE JUMPI PUSH2 0x25CD PUSH2 0x266A JUMP JUMPDEST JUMPDEST PUSH1 0x1 DUP3 SUB SWAP1 POP SWAP2 SWAP1 POP JUMP JUMPDEST PUSH1 0x0 PUSH1 0x2 DUP3 DIV SWAP1 POP PUSH1 0x1 DUP3 AND DUP1 PUSH2 0x25F1 JUMPI PUSH1 0x7F DUP3 AND SWAP2 POP JUMPDEST PUSH1 0x20 DUP3 LT DUP2 EQ ISZERO PUSH2 0x2605 JUMPI PUSH2 0x2604 PUSH2 0x26C8 JUMP JUMPDEST JUMPDEST POP SWAP2 SWAP1 POP JUMP JUMPDEST PUSH2 0x2614 DUP3 PUSH2 0x2726 JUMP JUMPDEST DUP2 ADD DUP2 DUP2 LT PUSH8 0xFFFFFFFFFFFFFFFF DUP3 GT OR ISZERO PUSH2 0x2633 JUMPI PUSH2 0x2632 PUSH2 0x26F7 JUMP JUMPDEST JUMPDEST DUP1 PUSH1 0x40 MSTORE POP POP POP JUMP JUMPDEST PUSH1 0x0 PUSH2 0x2647 DUP3 PUSH2 0x264E JUMP JUMPDEST SWAP1 POP SWAP2 SWAP1 POP JUMP JUMPDEST PUSH1 0x0 PUSH2 0x2659 DUP3 PUSH2 0x2737 JUMP JUMPDEST SWAP1 POP SWAP2 SWAP1 POP JUMP JUMPDEST PUSH1 0x0 DUP2 SWAP1 POP SWAP2 SWAP1 POP JUMP JUMPDEST PUSH32 0x4E487B7100000000000000000000000000000000000000000000000000000000 PUSH1 0x0 MSTORE PUSH1 0x11 PUSH1 0x4 MSTORE PUSH1 0x24 PUSH1 0x0 REVERT JUMPDEST PUSH32 0x4E487B7100000000000000000000000000000000000000000000000000000000 PUSH1 0x0 MSTORE PUSH1 0x12 PUSH1 0x4 MSTORE PUSH1 0x24 PUSH1 0x0 REVERT JUMPDEST PUSH32 0x4E487B7100000000000000000000000000000000000000000000000000000000 PUSH1 0x0 MSTORE PUSH1 0x22 PUSH1 0x4 MSTORE PUSH1 0x24 PUSH1 0x0 REVERT JUMPDEST PUSH32 0x4E487B7100000000000000000000000000000000000000000000000000000000 PUSH1 0x0 MSTORE PUSH1 0x41 PUSH1 0x4 MSTORE PUSH1 0x24 PUSH1 0x0 REVERT JUMPDEST PUSH1 0x0 PUSH1 0x1F NOT PUSH1 0x1F DUP4 ADD AND SWAP1 POP SWAP2 SWAP1 POP JUMP JUMPDEST PUSH1 0x0 DUP2 PUSH1 0x60 SHL SWAP1 POP SWAP2 SWAP1 POP JUMP JUMPDEST PUSH32 0x537472696E67733A20686578206C656E67746820696E73756666696369656E74 PUSH1 0x0 DUP3 ADD MSTORE POP JUMP JUMPDEST PUSH32 0x4164647265737320000000000000000000000000000000000000000000000000 PUSH1 0x0 DUP3 ADD MSTORE POP JUMP JUMPDEST PUSH32 0x43616E6E6F74206D696E7420746F207472656173757279206164647265737320 PUSH1 0x0 DUP3 ADD MSTORE PUSH32 0x756E74696C2073616C652069732066696E697368656400000000000000000000 PUSH1 0x20 DUP3 ADD MSTORE POP JUMP JUMPDEST PUSH32 0x74696D657374616D70206973206E6F742075702D746F2D646174650000000000 PUSH1 0x0 DUP3 ADD MSTORE POP JUMP JUMPDEST PUSH32 0x53656E646572206973206E6F742053616C65204D616E61676572206F72204164 PUSH1 0x0 DUP3 ADD MSTORE PUSH32 0x6D696E0000000000000000000000000000000000000000000000000000000000 PUSH1 0x20 DUP3 ADD MSTORE POP JUMP JUMPDEST PUSH32 0x2500000000000000000000000000000000000000000000000000000000000000 PUSH1 0x0 DUP3 ADD MSTORE POP JUMP JUMPDEST PUSH32 0x20646F6573206E6F742068617665206120636F75706F6E207769746820612064 PUSH1 0x0 DUP3 ADD MSTORE PUSH32 0x6973636F756E742072617465206F662000000000000000000000000000000000 PUSH1 0x20 DUP3 ADD MSTORE POP JUMP JUMPDEST PUSH32 0x737461727454696D65206973206C61746572207468616E20656E6454696D6500 PUSH1 0x0 DUP3 ADD MSTORE POP JUMP JUMPDEST PUSH32 0x416363657373436F6E74726F6C3A206163636F756E7420000000000000000000 PUSH1 0x0 DUP3 ADD MSTORE POP JUMP JUMPDEST PUSH32 0x206973206D697373696E6720726F6C6520000000000000000000000000000000 PUSH1 0x0 DUP3 ADD MSTORE POP JUMP JUMPDEST PUSH32 0x416363657373436F6E74726F6C3A2063616E206F6E6C792072656E6F756E6365 PUSH1 0x0 DUP3 ADD MSTORE PUSH32 0x20726F6C657320666F722073656C660000000000000000000000000000000000 PUSH1 0x20 DUP3 ADD MSTORE POP JUMP JUMPDEST PUSH2 0x29A8 DUP2 PUSH2 0x2483 JUMP JUMPDEST DUP2 EQ PUSH2 0x29B3 JUMPI PUSH1 0x0 DUP1 REVERT JUMPDEST POP JUMP JUMPDEST PUSH2 0x29BF DUP2 PUSH2 0x2495 JUMP JUMPDEST DUP2 EQ PUSH2 0x29CA JUMPI PUSH1 0x0 DUP1 REVERT JUMPDEST POP JUMP JUMPDEST PUSH2 0x29D6 DUP2 PUSH2 0x24A1 JUMP JUMPDEST DUP2 EQ PUSH2 0x29E1 JUMPI PUSH1 0x0 DUP1 REVERT JUMPDEST POP JUMP JUMPDEST PUSH2 0x29ED DUP2 PUSH2 0x24AB JUMP JUMPDEST DUP2 EQ PUSH2 0x29F8 JUMPI PUSH1 0x0 DUP1 REVERT JUMPDEST POP JUMP JUMPDEST PUSH2 0x2A04 DUP2 PUSH2 0x24F7 JUMP JUMPDEST DUP2 EQ PUSH2 0x2A0F JUMPI PUSH1 0x0 DUP1 REVERT JUMPDEST POP JUMP INVALID LOG2 PUSH5 0x6970667358 0x22 SLT KECCAK256 0xEC 0xB9 CALLER DUP15 DUP15 EQ 0xEE PUSH6 0x33BAA0054F09 0xC1 SWAP5 DUP15 0x22 CODESIZE CALLDATALOAD PUSH7 0xBFA64B12395654 0xD3 0x22 0xDF 0x2B PUSH5 0x736F6C6343 STOP ADDMOD ADD STOP CALLER "
				},
				"gasEstimates": {
					"creation": {
						"codeDepositCost": "2164800",
						"executionCost": "infinite",
						"totalCost": "infinite"
					},
					"external": {
						"DEFAULT_ADMIN_ROLE()": "446",
						"ERC1155storageContract()": "1280",
						"SALE_MANAGER_ROLE()": "419",
						"URI_MANAGER_ROLE()": "418",
						"buyNFT()": "infinite",
						"buyNftWithDiscount(uint256)": "infinite",
						"calculateCustomPrice(address,uint256)": "infinite",
						"getMaxSupply()": "infinite",
						"getNextUnusedToken()": "infinite",
						"getRoleAdmin(bytes32)": "infinite",
						"grantRole(bytes32,address)": "infinite",
						"hasRole(bytes32,address)": "1907",
						"lastUpdate()": "infinite",
						"mintToTreasuryAddress()": "infinite",
						"preLoadURIs(uint256[],string[])": "infinite",
						"privilgedBuyerList()": "1302",
						"renounceRole(bytes32,address)": "infinite",
						"revokeRole(bytes32,address)": "infinite",
						"setEndTime(uint256)": "infinite",
						"setStorageContractAddress(address)": "infinite",
						"setstartTime(uint256)": "infinite",
						"supportsInterface(bytes4)": "751",
						"temp()": "infinite",
						"temp1(uint256)": "infinite",
						"treasuryAddress()": "1258",
						"usdcEscrowStorageContract()": "1346"
					},
					"internal": {
						"_buyNFT(uint256)": "infinite",
						"mintNextNftToAddress(address)": "infinite",
						"updateState()": "infinite"
					}
				},
				"methodIdentifiers": {
					"DEFAULT_ADMIN_ROLE()": "a217fddf",
					"ERC1155storageContract()": "8c83faeb",
					"SALE_MANAGER_ROLE()": "551b42a8",
					"URI_MANAGER_ROLE()": "682d07d9",
					"buyNFT()": "bff29cee",
					"buyNftWithDiscount(uint256)": "4c9b73da",
					"calculateCustomPrice(address,uint256)": "ab6c0306",
					"getMaxSupply()": "4c0f38c2",
					"getNextUnusedToken()": "68fc01a2",
					"getRoleAdmin(bytes32)": "248a9ca3",
					"grantRole(bytes32,address)": "2f2ff15d",
					"hasRole(bytes32,address)": "91d14854",
					"lastUpdate()": "c0463711",
					"mintToTreasuryAddress()": "91232f18",
					"preLoadURIs(uint256[],string[])": "f121da92",
					"privilgedBuyerList()": "5ce7e721",
					"renounceRole(bytes32,address)": "36568abe",
					"revokeRole(bytes32,address)": "d547741f",
					"setEndTime(uint256)": "ccb98ffc",
					"setStorageContractAddress(address)": "51f7598c",
					"setstartTime(uint256)": "944044a1",
					"supportsInterface(bytes4)": "01ffc9a7",
					"temp()": "673402e5",
					"temp1(uint256)": "1c7a9b65",
					"treasuryAddress()": "c5f956af",
					"usdcEscrowStorageContract()": "c5dae48f"
				}
			},
			"storageLayout": {
				"storage": [
					{
						"astId": 24,
						"contract": "contracts/Founding Citizens NFT Sale.sol:FoundingNFTSale",
						"label": "_roles",
						"offset": 0,
						"slot": "0",
						"type": "t_mapping(t_bytes32,t_struct(RoleData)19_storage)"
					},
					{
						"astId": 835,
						"contract": "contracts/Founding Citizens NFT Sale.sol:FoundingNFTSale",
						"label": "ERC1155storageContract",
						"offset": 0,
						"slot": "1",
						"type": "t_contract(IMintStorage)768"
					},
					{
						"astId": 838,
						"contract": "contracts/Founding Citizens NFT Sale.sol:FoundingNFTSale",
						"label": "privilgedBuyerList",
						"offset": 0,
						"slot": "2",
						"type": "t_contract(IPrivilegedListStorage)799"
					},
					{
						"astId": 841,
						"contract": "contracts/Founding Citizens NFT Sale.sol:FoundingNFTSale",
						"label": "usdcEscrowStorageContract",
						"offset": 0,
						"slot": "3",
						"type": "t_contract(IUsdcStorage)830"
					},
					{
						"astId": 843,
						"contract": "contracts/Founding Citizens NFT Sale.sol:FoundingNFTSale",
						"label": "treasuryAddress",
						"offset": 0,
						"slot": "4",
						"type": "t_address"
					},
					{
						"astId": 856,
						"contract": "contracts/Founding Citizens NFT Sale.sol:FoundingNFTSale",
						"label": "startTime",
						"offset": 0,
						"slot": "5",
						"type": "t_uint256"
					},
					{
						"astId": 859,
						"contract": "contracts/Founding Citizens NFT Sale.sol:FoundingNFTSale",
						"label": "endTime",
						"offset": 0,
						"slot": "6",
						"type": "t_uint256"
					},
					{
						"astId": 869,
						"contract": "contracts/Founding Citizens NFT Sale.sol:FoundingNFTSale",
						"label": "startPrice",
						"offset": 0,
						"slot": "7",
						"type": "t_uint256"
					},
					{
						"astId": 874,
						"contract": "contracts/Founding Citizens NFT Sale.sol:FoundingNFTSale",
						"label": "EndPrice",
						"offset": 0,
						"slot": "8",
						"type": "t_uint256"
					},
					{
						"astId": 882,
						"contract": "contracts/Founding Citizens NFT Sale.sol:FoundingNFTSale",
						"label": "temp1",
						"offset": 0,
						"slot": "9",
						"type": "t_array(t_string_storage)dyn_storage"
					},
					{
						"astId": 898,
						"contract": "contracts/Founding Citizens NFT Sale.sol:FoundingNFTSale",
						"label": "lastUpdate",
						"offset": 0,
						"slot": "10",
						"type": "t_struct(Update)889_storage"
					}
				],
				"types": {
					"t_address": {
						"encoding": "inplace",
						"label": "address",
						"numberOfBytes": "20"
					},
					"t_array(t_string_storage)dyn_storage": {
						"base": "t_string_storage",
						"encoding": "dynamic_array",
						"label": "string[]",
						"numberOfBytes": "32"
					},
					"t_bool": {
						"encoding": "inplace",
						"label": "bool",
						"numberOfBytes": "1"
					},
					"t_bytes32": {
						"encoding": "inplace",
						"label": "bytes32",
						"numberOfBytes": "32"
					},
					"t_contract(IMintStorage)768": {
						"encoding": "inplace",
						"label": "contract IMintStorage",
						"numberOfBytes": "20"
					},
					"t_contract(IPrivilegedListStorage)799": {
						"encoding": "inplace",
						"label": "contract IPrivilegedListStorage",
						"numberOfBytes": "20"
					},
					"t_contract(IUsdcStorage)830": {
						"encoding": "inplace",
						"label": "contract IUsdcStorage",
						"numberOfBytes": "20"
					},
					"t_mapping(t_address,t_bool)": {
						"encoding": "mapping",
						"key": "t_address",
						"label": "mapping(address => bool)",
						"numberOfBytes": "32",
						"value": "t_bool"
					},
					"t_mapping(t_bytes32,t_struct(RoleData)19_storage)": {
						"encoding": "mapping",
						"key": "t_bytes32",
						"label": "mapping(bytes32 => struct AccessControl.RoleData)",
						"numberOfBytes": "32",
						"value": "t_struct(RoleData)19_storage"
					},
					"t_string_storage": {
						"encoding": "bytes",
						"label": "string",
						"numberOfBytes": "32"
					},
					"t_struct(RoleData)19_storage": {
						"encoding": "inplace",
						"label": "struct AccessControl.RoleData",
						"members": [
							{
								"astId": 16,
								"contract": "contracts/Founding Citizens NFT Sale.sol:FoundingNFTSale",
								"label": "members",
								"offset": 0,
								"slot": "0",
								"type": "t_mapping(t_address,t_bool)"
							},
							{
								"astId": 18,
								"contract": "contracts/Founding Citizens NFT Sale.sol:FoundingNFTSale",
								"label": "adminRole",
								"offset": 0,
								"slot": "1",
								"type": "t_bytes32"
							}
						],
						"numberOfBytes": "64"
					},
					"t_struct(Update)889_storage": {
						"encoding": "inplace",
						"label": "struct FoundingNFTSale.Update",
						"members": [
							{
								"astId": 884,
								"contract": "contracts/Founding Citizens NFT Sale.sol:FoundingNFTSale",
								"label": "price",
								"offset": 0,
								"slot": "0",
								"type": "t_uint256"
							},
							{
								"astId": 886,
								"contract": "contracts/Founding Citizens NFT Sale.sol:FoundingNFTSale",
								"label": "time",
								"offset": 0,
								"slot": "1",
								"type": "t_uint256"
							},
							{
								"astId": 888,
								"contract": "contracts/Founding Citizens NFT Sale.sol:FoundingNFTSale",
								"label": "saleIsLive",
								"offset": 0,
								"slot": "2",
								"type": "t_bool"
							}
						],
						"numberOfBytes": "96"
					},
					"t_uint256": {
						"encoding": "inplace",
						"label": "uint256",
						"numberOfBytes": "32"
					}
				}
			},
			"userdoc": {
				"kind": "user",
				"methods": {},
				"version": 1
			}
		}
	}
}