{
	"contracts/Founding Citizens NFT Sale Privileged Buyers List Storage.sol": {
		"PrivilegedListStorage": {
			"abi": [
				{
					"anonymous": false,
					"inputs": [
						{
							"indexed": true,
							"internalType": "address",
							"name": "previousOwner",
							"type": "address"
						},
						{
							"indexed": true,
							"internalType": "address",
							"name": "newOwner",
							"type": "address"
						}
					],
					"name": "OwnershipTransferred",
					"type": "event"
				},
				{
					"inputs": [
						{
							"internalType": "address",
							"name": "address_",
							"type": "address"
						}
					],
					"name": "addAddress",
					"outputs": [],
					"stateMutability": "nonpayable",
					"type": "function"
				},
				{
					"inputs": [
						{
							"internalType": "address",
							"name": "address_",
							"type": "address"
						},
						{
							"internalType": "uint256",
							"name": "discountRate",
							"type": "uint256"
						},
						{
							"internalType": "uint256",
							"name": "numberOfUses",
							"type": "uint256"
						}
					],
					"name": "addCoupon",
					"outputs": [],
					"stateMutability": "nonpayable",
					"type": "function"
				},
				{
					"inputs": [
						{
							"internalType": "address",
							"name": "address_",
							"type": "address"
						}
					],
					"name": "addressExists",
					"outputs": [
						{
							"internalType": "bool",
							"name": "",
							"type": "bool"
						}
					],
					"stateMutability": "view",
					"type": "function"
				},
				{
					"inputs": [
						{
							"internalType": "address",
							"name": "address_",
							"type": "address"
						}
					],
					"name": "addressHasCoupon",
					"outputs": [
						{
							"internalType": "bool",
							"name": "",
							"type": "bool"
						}
					],
					"stateMutability": "view",
					"type": "function"
				},
				{
					"inputs": [],
					"name": "addressList",
					"outputs": [
						{
							"internalType": "uint256",
							"name": "length",
							"type": "uint256"
						}
					],
					"stateMutability": "view",
					"type": "function"
				},
				{
					"inputs": [
						{
							"internalType": "address",
							"name": "address_",
							"type": "address"
						}
					],
					"name": "couponListLength",
					"outputs": [
						{
							"internalType": "uint256",
							"name": "",
							"type": "uint256"
						}
					],
					"stateMutability": "view",
					"type": "function"
				},
				{
					"inputs": [
						{
							"internalType": "address",
							"name": "address_",
							"type": "address"
						}
					],
					"name": "idOf",
					"outputs": [
						{
							"internalType": "uint256",
							"name": "",
							"type": "uint256"
						}
					],
					"stateMutability": "view",
					"type": "function"
				},
				{
					"inputs": [],
					"name": "owner",
					"outputs": [
						{
							"internalType": "address",
							"name": "",
							"type": "address"
						}
					],
					"stateMutability": "view",
					"type": "function"
				},
				{
					"inputs": [
						{
							"internalType": "address",
							"name": "address_",
							"type": "address"
						},
						{
							"internalType": "uint256",
							"name": "discountRate",
							"type": "uint256"
						},
						{
							"internalType": "uint256",
							"name": "numberOfUses",
							"type": "uint256"
						}
					],
					"name": "reduceCouponUses",
					"outputs": [],
					"stateMutability": "nonpayable",
					"type": "function"
				},
				{
					"inputs": [
						{
							"internalType": "address",
							"name": "address_",
							"type": "address"
						}
					],
					"name": "removeAddress",
					"outputs": [],
					"stateMutability": "nonpayable",
					"type": "function"
				},
				{
					"inputs": [
						{
							"internalType": "address",
							"name": "address_",
							"type": "address"
						},
						{
							"internalType": "uint256",
							"name": "id",
							"type": "uint256"
						}
					],
					"name": "removeCoupon",
					"outputs": [],
					"stateMutability": "nonpayable",
					"type": "function"
				},
				{
					"inputs": [],
					"name": "renounceOwnership",
					"outputs": [],
					"stateMutability": "nonpayable",
					"type": "function"
				},
				{
					"inputs": [
						{
							"internalType": "address",
							"name": "newOwner",
							"type": "address"
						}
					],
					"name": "transferOwnership",
					"outputs": [],
					"stateMutability": "nonpayable",
					"type": "function"
				},
				{
					"inputs": [
						{
							"internalType": "address",
							"name": "address_",
							"type": "address"
						},
						{
							"internalType": "uint256",
							"name": "discountRate",
							"type": "uint256"
						}
					],
					"name": "useCoupon",
					"outputs": [],
					"stateMutability": "nonpayable",
					"type": "function"
				}
			],
			"devdoc": {
				"kind": "dev",
				"methods": {
					"owner()": {
						"details": "Returns the address of the current owner."
					},
					"renounceOwnership()": {
						"details": "Leaves the contract without owner. It will not be possible to call `onlyOwner` functions anymore. Can only be called by the current owner. NOTE: Renouncing ownership will leave the contract without an owner, thereby removing any functionality that is only available to the owner."
					},
					"transferOwnership(address)": {
						"details": "Transfers ownership of the contract to a new account (`newOwner`). Can only be called by the current owner."
					}
				},
				"version": 1
			},
			"evm": {
				"assembly": "    /* \"contracts/Founding Citizens NFT Sale Privileged Buyers List Storage.sol\":1746:6905  contract PrivilegedListStorage is Ownable {\r... */\n  mstore(0x40, 0x80)\n  callvalue\n  dup1\n  iszero\n  tag_1\n  jumpi\n  0x00\n  dup1\n  revert\ntag_1:\n  pop\n    /* \"@openzeppelin/contracts@4.4.2/access/Ownable.sol\":921:953  _transferOwnership(_msgSender()) */\n  tag_4\n    /* \"@openzeppelin/contracts@4.4.2/access/Ownable.sol\":940:952  _msgSender() */\n  tag_5\n    /* \"@openzeppelin/contracts@4.4.2/access/Ownable.sol\":940:950  _msgSender */\n  shl(0x20, tag_6)\n    /* \"@openzeppelin/contracts@4.4.2/access/Ownable.sol\":940:952  _msgSender() */\n  0x20\n  shr\n  jump\t// in\ntag_5:\n    /* \"@openzeppelin/contracts@4.4.2/access/Ownable.sol\":921:939  _transferOwnership */\n  shl(0x20, tag_7)\n    /* \"@openzeppelin/contracts@4.4.2/access/Ownable.sol\":921:953  _transferOwnership(_msgSender()) */\n  0x20\n  shr\n  jump\t// in\ntag_4:\n    /* \"contracts/Founding Citizens NFT Sale Privileged Buyers List Storage.sol\":1746:6905  contract PrivilegedListStorage is Ownable {\r... */\n  jump(tag_8)\n    /* \"@openzeppelin/contracts@4.4.2/utils/Context.sol\":640:736  function _msgSender() internal view virtual returns (address) {... */\ntag_6:\n    /* \"@openzeppelin/contracts@4.4.2/utils/Context.sol\":693:700  address */\n  0x00\n    /* \"@openzeppelin/contracts@4.4.2/utils/Context.sol\":719:729  msg.sender */\n  caller\n    /* \"@openzeppelin/contracts@4.4.2/utils/Context.sol\":712:729  return msg.sender */\n  swap1\n  pop\n    /* \"@openzeppelin/contracts@4.4.2/utils/Context.sol\":640:736  function _msgSender() internal view virtual returns (address) {... */\n  swap1\n  jump\t// out\n    /* \"@openzeppelin/contracts@4.4.2/access/Ownable.sol\":2270:2457  function _transferOwnership(address newOwner) internal virtual {... */\ntag_7:\n    /* \"@openzeppelin/contracts@4.4.2/access/Ownable.sol\":2343:2359  address oldOwner */\n  0x00\n    /* \"@openzeppelin/contracts@4.4.2/access/Ownable.sol\":2362:2368  _owner */\n  dup1\n  0x00\n  swap1\n  sload\n  swap1\n  0x0100\n  exp\n  swap1\n  div\n  0xffffffffffffffffffffffffffffffffffffffff\n  and\n    /* \"@openzeppelin/contracts@4.4.2/access/Ownable.sol\":2343:2368  address oldOwner = _owner */\n  swap1\n  pop\n    /* \"@openzeppelin/contracts@4.4.2/access/Ownable.sol\":2387:2395  newOwner */\n  dup2\n    /* \"@openzeppelin/contracts@4.4.2/access/Ownable.sol\":2378:2384  _owner */\n  0x00\n  dup1\n    /* \"@openzeppelin/contracts@4.4.2/access/Ownable.sol\":2378:2395  _owner = newOwner */\n  0x0100\n  exp\n  dup2\n  sload\n  dup2\n  0xffffffffffffffffffffffffffffffffffffffff\n  mul\n  not\n  and\n  swap1\n  dup4\n  0xffffffffffffffffffffffffffffffffffffffff\n  and\n  mul\n  or\n  swap1\n  sstore\n  pop\n    /* \"@openzeppelin/contracts@4.4.2/access/Ownable.sol\":2441:2449  newOwner */\n  dup2\n    /* \"@openzeppelin/contracts@4.4.2/access/Ownable.sol\":2410:2450  OwnershipTransferred(oldOwner, newOwner) */\n  0xffffffffffffffffffffffffffffffffffffffff\n  and\n    /* \"@openzeppelin/contracts@4.4.2/access/Ownable.sol\":2431:2439  oldOwner */\n  dup2\n    /* \"@openzeppelin/contracts@4.4.2/access/Ownable.sol\":2410:2450  OwnershipTransferred(oldOwner, newOwner) */\n  0xffffffffffffffffffffffffffffffffffffffff\n  and\n  0x8be0079c531659141344cd1fd0a4f28419497f9722a3daafe3b4186f6b6457e0\n  mload(0x40)\n  mload(0x40)\n  dup1\n  swap2\n  sub\n  swap1\n  log3\n    /* \"@openzeppelin/contracts@4.4.2/access/Ownable.sol\":2270:2457  function _transferOwnership(address newOwner) internal virtual {... */\n  pop\n  pop\n  jump\t// out\n    /* \"contracts/Founding Citizens NFT Sale Privileged Buyers List Storage.sol\":1746:6905  contract PrivilegedListStorage is Ownable {\r... */\ntag_8:\n  dataSize(sub_0)\n  dup1\n  dataOffset(sub_0)\n  0x00\n  codecopy\n  0x00\n  return\nstop\n\nsub_0: assembly {\n        /* \"contracts/Founding Citizens NFT Sale Privileged Buyers List Storage.sol\":1746:6905  contract PrivilegedListStorage is Ownable {\r... */\n      mstore(0x40, 0x80)\n      callvalue\n      dup1\n      iszero\n      tag_1\n      jumpi\n      0x00\n      dup1\n      revert\n    tag_1:\n      pop\n      jumpi(tag_2, lt(calldatasize, 0x04))\n      shr(0xe0, calldataload(0x00))\n      dup1\n      0xa5025222\n      gt\n      tag_17\n      jumpi\n      dup1\n      0xd94fe832\n      gt\n      tag_18\n      jumpi\n      dup1\n      0xd94fe832\n      eq\n      tag_13\n      jumpi\n      dup1\n      0xe5bf7ffc\n      eq\n      tag_14\n      jumpi\n      dup1\n      0xf2fde38b\n      eq\n      tag_15\n      jumpi\n      dup1\n      0xf76da2a8\n      eq\n      tag_16\n      jumpi\n      jump(tag_2)\n    tag_18:\n      dup1\n      0xa5025222\n      eq\n      tag_10\n      jumpi\n      dup1\n      0xc18ab7a2\n      eq\n      tag_11\n      jumpi\n      dup1\n      0xc1eb6dfd\n      eq\n      tag_12\n      jumpi\n      jump(tag_2)\n    tag_17:\n      dup1\n      0x4ba79dfe\n      gt\n      tag_19\n      jumpi\n      dup1\n      0x4ba79dfe\n      eq\n      tag_6\n      jumpi\n      dup1\n      0x715018a6\n      eq\n      tag_7\n      jumpi\n      dup1\n      0x838324d9\n      eq\n      tag_8\n      jumpi\n      dup1\n      0x8da5cb5b\n      eq\n      tag_9\n      jumpi\n      jump(tag_2)\n    tag_19:\n      dup1\n      0x38eada1c\n      eq\n      tag_3\n      jumpi\n      dup1\n      0x3c25c06b\n      eq\n      tag_4\n      jumpi\n      dup1\n      0x3edfcd2c\n      eq\n      tag_5\n      jumpi\n    tag_2:\n      0x00\n      dup1\n      revert\n        /* \"contracts/Founding Citizens NFT Sale Privileged Buyers List Storage.sol\":3028:3295  function addAddress(address address_) public onlyOwner {\r... */\n    tag_3:\n      tag_20\n      0x04\n      dup1\n      calldatasize\n      sub\n      dup2\n      add\n      swap1\n      tag_21\n      swap2\n      swap1\n      tag_22\n      jump\t// in\n    tag_21:\n      tag_23\n      jump\t// in\n    tag_20:\n      stop\n        /* \"contracts/Founding Citizens NFT Sale Privileged Buyers List Storage.sol\":6296:6431  function useCoupon(address address_, uint discountRate) public onlyOwner {\r... */\n    tag_4:\n      tag_24\n      0x04\n      dup1\n      calldatasize\n      sub\n      dup2\n      add\n      swap1\n      tag_25\n      swap2\n      swap1\n      tag_26\n      jump\t// in\n    tag_25:\n      tag_27\n      jump\t// in\n    tag_24:\n      stop\n        /* \"contracts/Founding Citizens NFT Sale Privileged Buyers List Storage.sol\":4073:4783  function addCoupon(address address_, uint discountRate, uint numberOfUses) public onlyOwner {\r... */\n    tag_5:\n      tag_28\n      0x04\n      dup1\n      calldatasize\n      sub\n      dup2\n      add\n      swap1\n      tag_29\n      swap2\n      swap1\n      tag_30\n      jump\t// in\n    tag_29:\n      tag_31\n      jump\t// in\n    tag_28:\n      stop\n        /* \"contracts/Founding Citizens NFT Sale Privileged Buyers List Storage.sol\":3507:4065  function removeAddress(address address_) public onlyOwner {\r... */\n    tag_6:\n      tag_32\n      0x04\n      dup1\n      calldatasize\n      sub\n      dup2\n      add\n      swap1\n      tag_33\n      swap2\n      swap1\n      tag_22\n      jump\t// in\n    tag_33:\n      tag_34\n      jump\t// in\n    tag_32:\n      stop\n        /* \"@openzeppelin/contracts@4.4.2/access/Ownable.sol\":1668:1769  function renounceOwnership() public virtual onlyOwner {... */\n    tag_7:\n      tag_35\n      tag_36\n      jump\t// in\n    tag_35:\n      stop\n        /* \"contracts/Founding Citizens NFT Sale Privileged Buyers List Storage.sol\":2599:2741  function couponListLength(address address_) public view returns(uint) {\r... */\n    tag_8:\n      tag_37\n      0x04\n      dup1\n      calldatasize\n      sub\n      dup2\n      add\n      swap1\n      tag_38\n      swap2\n      swap1\n      tag_22\n      jump\t// in\n    tag_38:\n      tag_39\n      jump\t// in\n    tag_37:\n      mload(0x40)\n      tag_40\n      swap2\n      swap1\n      tag_41\n      jump\t// in\n    tag_40:\n      mload(0x40)\n      dup1\n      swap2\n      sub\n      swap1\n      return\n        /* \"@openzeppelin/contracts@4.4.2/access/Ownable.sol\":1036:1121  function owner() public view virtual returns (address) {... */\n    tag_9:\n      tag_42\n      tag_43\n      jump\t// in\n    tag_42:\n      mload(0x40)\n      tag_44\n      swap2\n      swap1\n      tag_45\n      jump\t// in\n    tag_44:\n      mload(0x40)\n      dup1\n      swap2\n      sub\n      swap1\n      return\n        /* \"contracts/Founding Citizens NFT Sale Privileged Buyers List Storage.sol\":2749:2863  function addressExists(address address_) public view returns(bool) {\r... */\n    tag_10:\n      tag_46\n      0x04\n      dup1\n      calldatasize\n      sub\n      dup2\n      add\n      swap1\n      tag_47\n      swap2\n      swap1\n      tag_22\n      jump\t// in\n    tag_47:\n      tag_48\n      jump\t// in\n    tag_46:\n      mload(0x40)\n      tag_49\n      swap2\n      swap1\n      tag_50\n      jump\t// in\n    tag_49:\n      mload(0x40)\n      dup1\n      swap2\n      sub\n      swap1\n      return\n        /* \"contracts/Founding Citizens NFT Sale Privileged Buyers List Storage.sol\":5888:6288  function reduceCouponUses(address address_, uint discountRate, uint numberOfUses) public onlyOwner { \r... */\n    tag_11:\n      tag_51\n      0x04\n      dup1\n      calldatasize\n      sub\n      dup2\n      add\n      swap1\n      tag_52\n      swap2\n      swap1\n      tag_30\n      jump\t// in\n    tag_52:\n      tag_53\n      jump\t// in\n    tag_51:\n      stop\n        /* \"contracts/Founding Citizens NFT Sale Privileged Buyers List Storage.sol\":2443:2473  AddressList public addressList */\n    tag_12:\n      tag_54\n      tag_55\n      jump\t// in\n    tag_54:\n      mload(0x40)\n      tag_56\n      swap2\n      swap1\n      tag_41\n      jump\t// in\n    tag_56:\n      mload(0x40)\n      dup1\n      swap2\n      sub\n      swap1\n      return\n        /* \"contracts/Founding Citizens NFT Sale Privileged Buyers List Storage.sol\":2482:2591  function idOf(address address_) public view returns(uint) {\r... */\n    tag_13:\n      tag_57\n      0x04\n      dup1\n      calldatasize\n      sub\n      dup2\n      add\n      swap1\n      tag_58\n      swap2\n      swap1\n      tag_22\n      jump\t// in\n    tag_58:\n      tag_59\n      jump\t// in\n    tag_57:\n      mload(0x40)\n      tag_60\n      swap2\n      swap1\n      tag_41\n      jump\t// in\n    tag_60:\n      mload(0x40)\n      dup1\n      swap2\n      sub\n      swap1\n      return\n        /* \"contracts/Founding Citizens NFT Sale Privileged Buyers List Storage.sol\":4791:5171  function removeCoupon(address address_, uint id) public onlyOwner {\r... */\n    tag_14:\n      tag_61\n      0x04\n      dup1\n      calldatasize\n      sub\n      dup2\n      add\n      swap1\n      tag_62\n      swap2\n      swap1\n      tag_26\n      jump\t// in\n    tag_62:\n      tag_63\n      jump\t// in\n    tag_61:\n      stop\n        /* \"@openzeppelin/contracts@4.4.2/access/Ownable.sol\":1918:2116  function transferOwnership(address newOwner) public virtual onlyOwner {... */\n    tag_15:\n      tag_64\n      0x04\n      dup1\n      calldatasize\n      sub\n      dup2\n      add\n      swap1\n      tag_65\n      swap2\n      swap1\n      tag_22\n      jump\t// in\n    tag_65:\n      tag_66\n      jump\t// in\n    tag_64:\n      stop\n        /* \"contracts/Founding Citizens NFT Sale Privileged Buyers List Storage.sol\":2871:3020  function addressHasCoupon(address address_) public view returns(bool) {\r... */\n    tag_16:\n      tag_67\n      0x04\n      dup1\n      calldatasize\n      sub\n      dup2\n      add\n      swap1\n      tag_68\n      swap2\n      swap1\n      tag_22\n      jump\t// in\n    tag_68:\n      tag_69\n      jump\t// in\n    tag_67:\n      mload(0x40)\n      tag_70\n      swap2\n      swap1\n      tag_50\n      jump\t// in\n    tag_70:\n      mload(0x40)\n      dup1\n      swap2\n      sub\n      swap1\n      return\n        /* \"contracts/Founding Citizens NFT Sale Privileged Buyers List Storage.sol\":3028:3295  function addAddress(address address_) public onlyOwner {\r... */\n    tag_23:\n        /* \"@openzeppelin/contracts@4.4.2/access/Ownable.sol\":1259:1271  _msgSender() */\n      tag_72\n        /* \"@openzeppelin/contracts@4.4.2/access/Ownable.sol\":1259:1269  _msgSender */\n      tag_73\n        /* \"@openzeppelin/contracts@4.4.2/access/Ownable.sol\":1259:1271  _msgSender() */\n      jump\t// in\n    tag_72:\n        /* \"@openzeppelin/contracts@4.4.2/access/Ownable.sol\":1248:1271  owner() == _msgSender() */\n      0xffffffffffffffffffffffffffffffffffffffff\n      and\n        /* \"@openzeppelin/contracts@4.4.2/access/Ownable.sol\":1248:1255  owner() */\n      tag_74\n        /* \"@openzeppelin/contracts@4.4.2/access/Ownable.sol\":1248:1253  owner */\n      tag_43\n        /* \"@openzeppelin/contracts@4.4.2/access/Ownable.sol\":1248:1255  owner() */\n      jump\t// in\n    tag_74:\n        /* \"@openzeppelin/contracts@4.4.2/access/Ownable.sol\":1248:1271  owner() == _msgSender() */\n      0xffffffffffffffffffffffffffffffffffffffff\n      and\n      eq\n        /* \"@openzeppelin/contracts@4.4.2/access/Ownable.sol\":1240:1308  require(owner() == _msgSender(), \"Ownable: caller is not the owner\") */\n      tag_75\n      jumpi\n      mload(0x40)\n      0x08c379a000000000000000000000000000000000000000000000000000000000\n      dup2\n      mstore\n      0x04\n      add\n      tag_76\n      swap1\n      tag_77\n      jump\t// in\n    tag_76:\n      mload(0x40)\n      dup1\n      swap2\n      sub\n      swap1\n      revert\n    tag_75:\n        /* \"contracts/Founding Citizens NFT Sale Privileged Buyers List Storage.sol\":3094:3105  addressList */\n      0x01\n        /* \"contracts/Founding Citizens NFT Sale Privileged Buyers List Storage.sol\":3094:3112  addressList.length */\n      0x00\n      add\n      0x00\n        /* \"contracts/Founding Citizens NFT Sale Privileged Buyers List Storage.sol\":3094:3114  addressList.length++ */\n      dup2\n      sload\n      dup1\n      swap3\n      swap2\n      swap1\n      tag_79\n      swap1\n      tag_80\n      jump\t// in\n    tag_79:\n      swap2\n      swap1\n      pop\n      sstore\n      pop\n        /* \"contracts/Founding Citizens NFT Sale Privileged Buyers List Storage.sol\":3169:3177  address_ */\n      dup1\n        /* \"contracts/Founding Citizens NFT Sale Privileged Buyers List Storage.sol\":3125:3136  addressList */\n      0x01\n        /* \"contracts/Founding Citizens NFT Sale Privileged Buyers List Storage.sol\":3125:3146  addressList.addresses */\n      dup1\n      add\n        /* \"contracts/Founding Citizens NFT Sale Privileged Buyers List Storage.sol\":3125:3166  addressList.addresses[addressList.length] */\n      0x00\n        /* \"contracts/Founding Citizens NFT Sale Privileged Buyers List Storage.sol\":3147:3158  addressList */\n      0x01\n        /* \"contracts/Founding Citizens NFT Sale Privileged Buyers List Storage.sol\":3147:3165  addressList.length */\n      0x00\n      add\n      sload\n        /* \"contracts/Founding Citizens NFT Sale Privileged Buyers List Storage.sol\":3125:3166  addressList.addresses[addressList.length] */\n      dup2\n      mstore\n      0x20\n      add\n      swap1\n      dup2\n      mstore\n      0x20\n      add\n      0x00\n      keccak256\n      0x00\n        /* \"contracts/Founding Citizens NFT Sale Privileged Buyers List Storage.sol\":3125:3177  addressList.addresses[addressList.length] = address_ */\n      0x0100\n      exp\n      dup2\n      sload\n      dup2\n      0xffffffffffffffffffffffffffffffffffffffff\n      mul\n      not\n      and\n      swap1\n      dup4\n      0xffffffffffffffffffffffffffffffffffffffff\n      and\n      mul\n      or\n      swap1\n      sstore\n      pop\n        /* \"contracts/Founding Citizens NFT Sale Privileged Buyers List Storage.sol\":3269:3280  addressList */\n      0x01\n        /* \"contracts/Founding Citizens NFT Sale Privileged Buyers List Storage.sol\":3269:3287  addressList.length */\n      0x00\n      add\n      sload\n        /* \"contracts/Founding Citizens NFT Sale Privileged Buyers List Storage.sol\":3241:3252  addressList */\n      0x01\n        /* \"contracts/Founding Citizens NFT Sale Privileged Buyers List Storage.sol\":3241:3256  addressList.ids */\n      0x02\n      add\n        /* \"contracts/Founding Citizens NFT Sale Privileged Buyers List Storage.sol\":3241:3266  addressList.ids[address_] */\n      0x00\n        /* \"contracts/Founding Citizens NFT Sale Privileged Buyers List Storage.sol\":3257:3265  address_ */\n      dup4\n        /* \"contracts/Founding Citizens NFT Sale Privileged Buyers List Storage.sol\":3241:3266  addressList.ids[address_] */\n      0xffffffffffffffffffffffffffffffffffffffff\n      and\n      0xffffffffffffffffffffffffffffffffffffffff\n      and\n      dup2\n      mstore\n      0x20\n      add\n      swap1\n      dup2\n      mstore\n      0x20\n      add\n      0x00\n      keccak256\n        /* \"contracts/Founding Citizens NFT Sale Privileged Buyers List Storage.sol\":3241:3287  addressList.ids[address_] = addressList.length */\n      dup2\n      swap1\n      sstore\n      pop\n        /* \"contracts/Founding Citizens NFT Sale Privileged Buyers List Storage.sol\":3028:3295  function addAddress(address address_) public onlyOwner {\r... */\n      pop\n      jump\t// out\n        /* \"contracts/Founding Citizens NFT Sale Privileged Buyers List Storage.sol\":6296:6431  function useCoupon(address address_, uint discountRate) public onlyOwner {\r... */\n    tag_27:\n        /* \"@openzeppelin/contracts@4.4.2/access/Ownable.sol\":1259:1271  _msgSender() */\n      tag_82\n        /* \"@openzeppelin/contracts@4.4.2/access/Ownable.sol\":1259:1269  _msgSender */\n      tag_73\n        /* \"@openzeppelin/contracts@4.4.2/access/Ownable.sol\":1259:1271  _msgSender() */\n      jump\t// in\n    tag_82:\n        /* \"@openzeppelin/contracts@4.4.2/access/Ownable.sol\":1248:1271  owner() == _msgSender() */\n      0xffffffffffffffffffffffffffffffffffffffff\n      and\n        /* \"@openzeppelin/contracts@4.4.2/access/Ownable.sol\":1248:1255  owner() */\n      tag_83\n        /* \"@openzeppelin/contracts@4.4.2/access/Ownable.sol\":1248:1253  owner */\n      tag_43\n        /* \"@openzeppelin/contracts@4.4.2/access/Ownable.sol\":1248:1255  owner() */\n      jump\t// in\n    tag_83:\n        /* \"@openzeppelin/contracts@4.4.2/access/Ownable.sol\":1248:1271  owner() == _msgSender() */\n      0xffffffffffffffffffffffffffffffffffffffff\n      and\n      eq\n        /* \"@openzeppelin/contracts@4.4.2/access/Ownable.sol\":1240:1308  require(owner() == _msgSender(), \"Ownable: caller is not the owner\") */\n      tag_84\n      jumpi\n      mload(0x40)\n      0x08c379a000000000000000000000000000000000000000000000000000000000\n      dup2\n      mstore\n      0x04\n      add\n      tag_85\n      swap1\n      tag_77\n      jump\t// in\n    tag_85:\n      mload(0x40)\n      dup1\n      swap2\n      sub\n      swap1\n      revert\n    tag_84:\n        /* \"contracts/Founding Citizens NFT Sale Privileged Buyers List Storage.sol\":6380:6423  reduceCouponUses(address_, discountRate, 1) */\n      tag_87\n        /* \"contracts/Founding Citizens NFT Sale Privileged Buyers List Storage.sol\":6397:6405  address_ */\n      dup3\n        /* \"contracts/Founding Citizens NFT Sale Privileged Buyers List Storage.sol\":6407:6419  discountRate */\n      dup3\n        /* \"contracts/Founding Citizens NFT Sale Privileged Buyers List Storage.sol\":6421:6422  1 */\n      0x01\n        /* \"contracts/Founding Citizens NFT Sale Privileged Buyers List Storage.sol\":6380:6396  reduceCouponUses */\n      tag_53\n        /* \"contracts/Founding Citizens NFT Sale Privileged Buyers List Storage.sol\":6380:6423  reduceCouponUses(address_, discountRate, 1) */\n      jump\t// in\n    tag_87:\n        /* \"contracts/Founding Citizens NFT Sale Privileged Buyers List Storage.sol\":6296:6431  function useCoupon(address address_, uint discountRate) public onlyOwner {\r... */\n      pop\n      pop\n      jump\t// out\n        /* \"contracts/Founding Citizens NFT Sale Privileged Buyers List Storage.sol\":4073:4783  function addCoupon(address address_, uint discountRate, uint numberOfUses) public onlyOwner {\r... */\n    tag_31:\n        /* \"@openzeppelin/contracts@4.4.2/access/Ownable.sol\":1259:1271  _msgSender() */\n      tag_89\n        /* \"@openzeppelin/contracts@4.4.2/access/Ownable.sol\":1259:1269  _msgSender */\n      tag_73\n        /* \"@openzeppelin/contracts@4.4.2/access/Ownable.sol\":1259:1271  _msgSender() */\n      jump\t// in\n    tag_89:\n        /* \"@openzeppelin/contracts@4.4.2/access/Ownable.sol\":1248:1271  owner() == _msgSender() */\n      0xffffffffffffffffffffffffffffffffffffffff\n      and\n        /* \"@openzeppelin/contracts@4.4.2/access/Ownable.sol\":1248:1255  owner() */\n      tag_90\n        /* \"@openzeppelin/contracts@4.4.2/access/Ownable.sol\":1248:1253  owner */\n      tag_43\n        /* \"@openzeppelin/contracts@4.4.2/access/Ownable.sol\":1248:1255  owner() */\n      jump\t// in\n    tag_90:\n        /* \"@openzeppelin/contracts@4.4.2/access/Ownable.sol\":1248:1271  owner() == _msgSender() */\n      0xffffffffffffffffffffffffffffffffffffffff\n      and\n      eq\n        /* \"@openzeppelin/contracts@4.4.2/access/Ownable.sol\":1240:1308  require(owner() == _msgSender(), \"Ownable: caller is not the owner\") */\n      tag_91\n      jumpi\n      mload(0x40)\n      0x08c379a000000000000000000000000000000000000000000000000000000000\n      dup2\n      mstore\n      0x04\n      add\n      tag_92\n      swap1\n      tag_77\n      jump\t// in\n    tag_92:\n      mload(0x40)\n      dup1\n      swap2\n      sub\n      swap1\n      revert\n    tag_91:\n        /* \"contracts/Founding Citizens NFT Sale Privileged Buyers List Storage.sol\":4181:4204  addressExists(address_) */\n      tag_94\n        /* \"contracts/Founding Citizens NFT Sale Privileged Buyers List Storage.sol\":4195:4203  address_ */\n      dup4\n        /* \"contracts/Founding Citizens NFT Sale Privileged Buyers List Storage.sol\":4181:4194  addressExists */\n      tag_48\n        /* \"contracts/Founding Citizens NFT Sale Privileged Buyers List Storage.sol\":4181:4204  addressExists(address_) */\n      jump\t// in\n    tag_94:\n        /* \"contracts/Founding Citizens NFT Sale Privileged Buyers List Storage.sol\":4176:4253  if (!addressExists(address_)) {\r... */\n      tag_95\n      jumpi\n        /* \"contracts/Founding Citizens NFT Sale Privileged Buyers List Storage.sol\":4221:4241  addAddress(address_) */\n      tag_96\n        /* \"contracts/Founding Citizens NFT Sale Privileged Buyers List Storage.sol\":4232:4240  address_ */\n      dup4\n        /* \"contracts/Founding Citizens NFT Sale Privileged Buyers List Storage.sol\":4221:4231  addAddress */\n      tag_23\n        /* \"contracts/Founding Citizens NFT Sale Privileged Buyers List Storage.sol\":4221:4241  addAddress(address_) */\n      jump\t// in\n    tag_96:\n        /* \"contracts/Founding Citizens NFT Sale Privileged Buyers List Storage.sol\":4176:4253  if (!addressExists(address_)) {\r... */\n    tag_95:\n        /* \"contracts/Founding Citizens NFT Sale Privileged Buyers List Storage.sol\":4334:4345  addressList */\n      0x01\n        /* \"contracts/Founding Citizens NFT Sale Privileged Buyers List Storage.sol\":4334:4357  addressList.couponLists */\n      0x03\n      add\n        /* \"contracts/Founding Citizens NFT Sale Privileged Buyers List Storage.sol\":4334:4373  addressList.couponLists[idOf(address_)] */\n      0x00\n        /* \"contracts/Founding Citizens NFT Sale Privileged Buyers List Storage.sol\":4358:4372  idOf(address_) */\n      tag_97\n        /* \"contracts/Founding Citizens NFT Sale Privileged Buyers List Storage.sol\":4363:4371  address_ */\n      dup6\n        /* \"contracts/Founding Citizens NFT Sale Privileged Buyers List Storage.sol\":4358:4362  idOf */\n      tag_59\n        /* \"contracts/Founding Citizens NFT Sale Privileged Buyers List Storage.sol\":4358:4372  idOf(address_) */\n      jump\t// in\n    tag_97:\n        /* \"contracts/Founding Citizens NFT Sale Privileged Buyers List Storage.sol\":4334:4373  addressList.couponLists[idOf(address_)] */\n      dup2\n      mstore\n      0x20\n      add\n      swap1\n      dup2\n      mstore\n      0x20\n      add\n      0x00\n      keccak256\n        /* \"contracts/Founding Citizens NFT Sale Privileged Buyers List Storage.sol\":4334:4380  addressList.couponLists[idOf(address_)].length */\n      0x00\n      add\n      0x00\n        /* \"contracts/Founding Citizens NFT Sale Privileged Buyers List Storage.sol\":4334:4382  addressList.couponLists[idOf(address_)].length++ */\n      dup2\n      sload\n      dup1\n      swap3\n      swap2\n      swap1\n      tag_98\n      swap1\n      tag_80\n      jump\t// in\n    tag_98:\n      swap2\n      swap1\n      pop\n      sstore\n      pop\n        /* \"contracts/Founding Citizens NFT Sale Privileged Buyers List Storage.sol\":4617:4629  discountRate */\n      dup2\n        /* \"contracts/Founding Citizens NFT Sale Privileged Buyers List Storage.sol\":4494:4505  addressList */\n      0x01\n        /* \"contracts/Founding Citizens NFT Sale Privileged Buyers List Storage.sol\":4494:4517  addressList.couponLists */\n      0x03\n      add\n        /* \"contracts/Founding Citizens NFT Sale Privileged Buyers List Storage.sol\":4494:4533  addressList.couponLists[idOf(address_)] */\n      0x00\n        /* \"contracts/Founding Citizens NFT Sale Privileged Buyers List Storage.sol\":4518:4532  idOf(address_) */\n      tag_99\n        /* \"contracts/Founding Citizens NFT Sale Privileged Buyers List Storage.sol\":4523:4531  address_ */\n      dup7\n        /* \"contracts/Founding Citizens NFT Sale Privileged Buyers List Storage.sol\":4518:4522  idOf */\n      tag_59\n        /* \"contracts/Founding Citizens NFT Sale Privileged Buyers List Storage.sol\":4518:4532  idOf(address_) */\n      jump\t// in\n    tag_99:\n        /* \"contracts/Founding Citizens NFT Sale Privileged Buyers List Storage.sol\":4494:4533  addressList.couponLists[idOf(address_)] */\n      dup2\n      mstore\n      0x20\n      add\n      swap1\n      dup2\n      mstore\n      0x20\n      add\n      0x00\n      keccak256\n        /* \"contracts/Founding Citizens NFT Sale Privileged Buyers List Storage.sol\":4494:4555  addressList.couponLists[idOf(address_)]\r... */\n      0x01\n      add\n        /* \"contracts/Founding Citizens NFT Sale Privileged Buyers List Storage.sol\":4494:4583  addressList.couponLists[idOf(address_)]\r... */\n      0x00\n        /* \"contracts/Founding Citizens NFT Sale Privileged Buyers List Storage.sol\":4556:4582  couponListLength(address_) */\n      tag_100\n        /* \"contracts/Founding Citizens NFT Sale Privileged Buyers List Storage.sol\":4573:4581  address_ */\n      dup7\n        /* \"contracts/Founding Citizens NFT Sale Privileged Buyers List Storage.sol\":4556:4572  couponListLength */\n      tag_39\n        /* \"contracts/Founding Citizens NFT Sale Privileged Buyers List Storage.sol\":4556:4582  couponListLength(address_) */\n      jump\t// in\n    tag_100:\n        /* \"contracts/Founding Citizens NFT Sale Privileged Buyers List Storage.sol\":4494:4583  addressList.couponLists[idOf(address_)]\r... */\n      dup2\n      mstore\n      0x20\n      add\n      swap1\n      dup2\n      mstore\n      0x20\n      add\n      0x00\n      keccak256\n        /* \"contracts/Founding Citizens NFT Sale Privileged Buyers List Storage.sol\":4494:4614  addressList.couponLists[idOf(address_)]\r... */\n      0x00\n      add\n        /* \"contracts/Founding Citizens NFT Sale Privileged Buyers List Storage.sol\":4494:4629  addressList.couponLists[idOf(address_)]\r... */\n      dup2\n      swap1\n      sstore\n      pop\n        /* \"contracts/Founding Citizens NFT Sale Privileged Buyers List Storage.sol\":4763:4775  numberOfUses */\n      dup1\n        /* \"contracts/Founding Citizens NFT Sale Privileged Buyers List Storage.sol\":4640:4651  addressList */\n      0x01\n        /* \"contracts/Founding Citizens NFT Sale Privileged Buyers List Storage.sol\":4640:4663  addressList.couponLists */\n      0x03\n      add\n        /* \"contracts/Founding Citizens NFT Sale Privileged Buyers List Storage.sol\":4640:4679  addressList.couponLists[idOf(address_)] */\n      0x00\n        /* \"contracts/Founding Citizens NFT Sale Privileged Buyers List Storage.sol\":4664:4678  idOf(address_) */\n      tag_101\n        /* \"contracts/Founding Citizens NFT Sale Privileged Buyers List Storage.sol\":4669:4677  address_ */\n      dup7\n        /* \"contracts/Founding Citizens NFT Sale Privileged Buyers List Storage.sol\":4664:4668  idOf */\n      tag_59\n        /* \"contracts/Founding Citizens NFT Sale Privileged Buyers List Storage.sol\":4664:4678  idOf(address_) */\n      jump\t// in\n    tag_101:\n        /* \"contracts/Founding Citizens NFT Sale Privileged Buyers List Storage.sol\":4640:4679  addressList.couponLists[idOf(address_)] */\n      dup2\n      mstore\n      0x20\n      add\n      swap1\n      dup2\n      mstore\n      0x20\n      add\n      0x00\n      keccak256\n        /* \"contracts/Founding Citizens NFT Sale Privileged Buyers List Storage.sol\":4640:4701  addressList.couponLists[idOf(address_)].\r... */\n      0x01\n      add\n        /* \"contracts/Founding Citizens NFT Sale Privileged Buyers List Storage.sol\":4640:4729  addressList.couponLists[idOf(address_)].\r... */\n      0x00\n        /* \"contracts/Founding Citizens NFT Sale Privileged Buyers List Storage.sol\":4702:4728  couponListLength(address_) */\n      tag_102\n        /* \"contracts/Founding Citizens NFT Sale Privileged Buyers List Storage.sol\":4719:4727  address_ */\n      dup7\n        /* \"contracts/Founding Citizens NFT Sale Privileged Buyers List Storage.sol\":4702:4718  couponListLength */\n      tag_39\n        /* \"contracts/Founding Citizens NFT Sale Privileged Buyers List Storage.sol\":4702:4728  couponListLength(address_) */\n      jump\t// in\n    tag_102:\n        /* \"contracts/Founding Citizens NFT Sale Privileged Buyers List Storage.sol\":4640:4729  addressList.couponLists[idOf(address_)].\r... */\n      dup2\n      mstore\n      0x20\n      add\n      swap1\n      dup2\n      mstore\n      0x20\n      add\n      0x00\n      keccak256\n        /* \"contracts/Founding Citizens NFT Sale Privileged Buyers List Storage.sol\":4640:4760  addressList.couponLists[idOf(address_)].\r... */\n      0x01\n      add\n        /* \"contracts/Founding Citizens NFT Sale Privileged Buyers List Storage.sol\":4640:4775  addressList.couponLists[idOf(address_)].\r... */\n      dup2\n      swap1\n      sstore\n      pop\n        /* \"contracts/Founding Citizens NFT Sale Privileged Buyers List Storage.sol\":4073:4783  function addCoupon(address address_, uint discountRate, uint numberOfUses) public onlyOwner {\r... */\n      pop\n      pop\n      pop\n      jump\t// out\n        /* \"contracts/Founding Citizens NFT Sale Privileged Buyers List Storage.sol\":3507:4065  function removeAddress(address address_) public onlyOwner {\r... */\n    tag_34:\n        /* \"@openzeppelin/contracts@4.4.2/access/Ownable.sol\":1259:1271  _msgSender() */\n      tag_104\n        /* \"@openzeppelin/contracts@4.4.2/access/Ownable.sol\":1259:1269  _msgSender */\n      tag_73\n        /* \"@openzeppelin/contracts@4.4.2/access/Ownable.sol\":1259:1271  _msgSender() */\n      jump\t// in\n    tag_104:\n        /* \"@openzeppelin/contracts@4.4.2/access/Ownable.sol\":1248:1271  owner() == _msgSender() */\n      0xffffffffffffffffffffffffffffffffffffffff\n      and\n        /* \"@openzeppelin/contracts@4.4.2/access/Ownable.sol\":1248:1255  owner() */\n      tag_105\n        /* \"@openzeppelin/contracts@4.4.2/access/Ownable.sol\":1248:1253  owner */\n      tag_43\n        /* \"@openzeppelin/contracts@4.4.2/access/Ownable.sol\":1248:1255  owner() */\n      jump\t// in\n    tag_105:\n        /* \"@openzeppelin/contracts@4.4.2/access/Ownable.sol\":1248:1271  owner() == _msgSender() */\n      0xffffffffffffffffffffffffffffffffffffffff\n      and\n      eq\n        /* \"@openzeppelin/contracts@4.4.2/access/Ownable.sol\":1240:1308  require(owner() == _msgSender(), \"Ownable: caller is not the owner\") */\n      tag_106\n      jumpi\n      mload(0x40)\n      0x08c379a000000000000000000000000000000000000000000000000000000000\n      dup2\n      mstore\n      0x04\n      add\n      tag_107\n      swap1\n      tag_77\n      jump\t// in\n    tag_107:\n      mload(0x40)\n      dup1\n      swap2\n      sub\n      swap1\n      revert\n    tag_106:\n        /* \"contracts/Founding Citizens NFT Sale Privileged Buyers List Storage.sol\":3586:3601  uint _toRemove1 */\n      0x00\n        /* \"contracts/Founding Citizens NFT Sale Privileged Buyers List Storage.sol\":3604:3618  idOf(address_) */\n      tag_109\n        /* \"contracts/Founding Citizens NFT Sale Privileged Buyers List Storage.sol\":3609:3617  address_ */\n      dup3\n        /* \"contracts/Founding Citizens NFT Sale Privileged Buyers List Storage.sol\":3604:3608  idOf */\n      tag_59\n        /* \"contracts/Founding Citizens NFT Sale Privileged Buyers List Storage.sol\":3604:3618  idOf(address_) */\n      jump\t// in\n    tag_109:\n        /* \"contracts/Founding Citizens NFT Sale Privileged Buyers List Storage.sol\":3586:3618  uint _toRemove1 = idOf(address_) */\n      swap1\n      pop\n        /* \"contracts/Founding Citizens NFT Sale Privileged Buyers List Storage.sol\":3629:3647  address _toRemove2 */\n      0x00\n        /* \"contracts/Founding Citizens NFT Sale Privileged Buyers List Storage.sol\":3650:3658  address_ */\n      dup3\n        /* \"contracts/Founding Citizens NFT Sale Privileged Buyers List Storage.sol\":3629:3658  address _toRemove2 = address_ */\n      swap1\n      pop\n        /* \"contracts/Founding Citizens NFT Sale Privileged Buyers List Storage.sol\":3671:3684  uint _toMove1 */\n      0x00\n        /* \"contracts/Founding Citizens NFT Sale Privileged Buyers List Storage.sol\":3687:3698  addressList */\n      0x01\n        /* \"contracts/Founding Citizens NFT Sale Privileged Buyers List Storage.sol\":3687:3705  addressList.length */\n      0x00\n      add\n      sload\n        /* \"contracts/Founding Citizens NFT Sale Privileged Buyers List Storage.sol\":3671:3705  uint _toMove1 = addressList.length */\n      swap1\n      pop\n        /* \"contracts/Founding Citizens NFT Sale Privileged Buyers List Storage.sol\":3716:3732  address _toMove2 */\n      0x00\n        /* \"contracts/Founding Citizens NFT Sale Privileged Buyers List Storage.sol\":3735:3746  addressList */\n      0x01\n        /* \"contracts/Founding Citizens NFT Sale Privileged Buyers List Storage.sol\":3735:3756  addressList.addresses */\n      dup1\n      add\n        /* \"contracts/Founding Citizens NFT Sale Privileged Buyers List Storage.sol\":3735:3776  addressList.addresses[addressList.length] */\n      0x00\n        /* \"contracts/Founding Citizens NFT Sale Privileged Buyers List Storage.sol\":3757:3768  addressList */\n      0x01\n        /* \"contracts/Founding Citizens NFT Sale Privileged Buyers List Storage.sol\":3757:3775  addressList.length */\n      0x00\n      add\n      sload\n        /* \"contracts/Founding Citizens NFT Sale Privileged Buyers List Storage.sol\":3735:3776  addressList.addresses[addressList.length] */\n      dup2\n      mstore\n      0x20\n      add\n      swap1\n      dup2\n      mstore\n      0x20\n      add\n      0x00\n      keccak256\n      0x00\n      swap1\n      sload\n      swap1\n      0x0100\n      exp\n      swap1\n      div\n      0xffffffffffffffffffffffffffffffffffffffff\n      and\n        /* \"contracts/Founding Citizens NFT Sale Privileged Buyers List Storage.sol\":3716:3776  address _toMove2 = addressList.addresses[addressList.length] */\n      swap1\n      pop\n        /* \"contracts/Founding Citizens NFT Sale Privileged Buyers List Storage.sol\":3825:3836  addressList */\n      0x01\n        /* \"contracts/Founding Citizens NFT Sale Privileged Buyers List Storage.sol\":3825:3846  addressList.addresses */\n      dup1\n      add\n        /* \"contracts/Founding Citizens NFT Sale Privileged Buyers List Storage.sol\":3825:3856  addressList.addresses[_toMove1] */\n      0x00\n        /* \"contracts/Founding Citizens NFT Sale Privileged Buyers List Storage.sol\":3847:3855  _toMove1 */\n      dup4\n        /* \"contracts/Founding Citizens NFT Sale Privileged Buyers List Storage.sol\":3825:3856  addressList.addresses[_toMove1] */\n      dup2\n      mstore\n      0x20\n      add\n      swap1\n      dup2\n      mstore\n      0x20\n      add\n      0x00\n      keccak256\n      0x00\n      swap1\n      sload\n      swap1\n      0x0100\n      exp\n      swap1\n      div\n      0xffffffffffffffffffffffffffffffffffffffff\n      and\n        /* \"contracts/Founding Citizens NFT Sale Privileged Buyers List Storage.sol\":3789:3800  addressList */\n      0x01\n        /* \"contracts/Founding Citizens NFT Sale Privileged Buyers List Storage.sol\":3789:3810  addressList.addresses */\n      dup1\n      add\n        /* \"contracts/Founding Citizens NFT Sale Privileged Buyers List Storage.sol\":3789:3822  addressList.addresses[_toRemove1] */\n      0x00\n        /* \"contracts/Founding Citizens NFT Sale Privileged Buyers List Storage.sol\":3811:3821  _toRemove1 */\n      dup7\n        /* \"contracts/Founding Citizens NFT Sale Privileged Buyers List Storage.sol\":3789:3822  addressList.addresses[_toRemove1] */\n      dup2\n      mstore\n      0x20\n      add\n      swap1\n      dup2\n      mstore\n      0x20\n      add\n      0x00\n      keccak256\n      0x00\n        /* \"contracts/Founding Citizens NFT Sale Privileged Buyers List Storage.sol\":3789:3856  addressList.addresses[_toRemove1] = addressList.addresses[_toMove1] */\n      0x0100\n      exp\n      dup2\n      sload\n      dup2\n      0xffffffffffffffffffffffffffffffffffffffff\n      mul\n      not\n      and\n      swap1\n      dup4\n      0xffffffffffffffffffffffffffffffffffffffff\n      and\n      mul\n      or\n      swap1\n      sstore\n      pop\n        /* \"contracts/Founding Citizens NFT Sale Privileged Buyers List Storage.sol\":3874:3885  addressList */\n      0x01\n        /* \"contracts/Founding Citizens NFT Sale Privileged Buyers List Storage.sol\":3874:3895  addressList.addresses */\n      dup1\n      add\n        /* \"contracts/Founding Citizens NFT Sale Privileged Buyers List Storage.sol\":3874:3905  addressList.addresses[_toMove1] */\n      0x00\n        /* \"contracts/Founding Citizens NFT Sale Privileged Buyers List Storage.sol\":3896:3904  _toMove1 */\n      dup4\n        /* \"contracts/Founding Citizens NFT Sale Privileged Buyers List Storage.sol\":3874:3905  addressList.addresses[_toMove1] */\n      dup2\n      mstore\n      0x20\n      add\n      swap1\n      dup2\n      mstore\n      0x20\n      add\n      0x00\n      keccak256\n      0x00\n        /* \"contracts/Founding Citizens NFT Sale Privileged Buyers List Storage.sol\":3867:3905  delete addressList.addresses[_toMove1] */\n      0x0100\n      exp\n      dup2\n      sload\n      swap1\n      0xffffffffffffffffffffffffffffffffffffffff\n      mul\n      not\n      and\n      swap1\n      sstore\n        /* \"contracts/Founding Citizens NFT Sale Privileged Buyers List Storage.sol\":3948:3959  addressList */\n      0x01\n        /* \"contracts/Founding Citizens NFT Sale Privileged Buyers List Storage.sol\":3948:3963  addressList.ids */\n      0x02\n      add\n        /* \"contracts/Founding Citizens NFT Sale Privileged Buyers List Storage.sol\":3948:3973  addressList.ids[_toMove2] */\n      0x00\n        /* \"contracts/Founding Citizens NFT Sale Privileged Buyers List Storage.sol\":3964:3972  _toMove2 */\n      dup3\n        /* \"contracts/Founding Citizens NFT Sale Privileged Buyers List Storage.sol\":3948:3973  addressList.ids[_toMove2] */\n      0xffffffffffffffffffffffffffffffffffffffff\n      and\n      0xffffffffffffffffffffffffffffffffffffffff\n      and\n      dup2\n      mstore\n      0x20\n      add\n      swap1\n      dup2\n      mstore\n      0x20\n      add\n      0x00\n      keccak256\n      sload\n        /* \"contracts/Founding Citizens NFT Sale Privileged Buyers List Storage.sol\":3918:3929  addressList */\n      0x01\n        /* \"contracts/Founding Citizens NFT Sale Privileged Buyers List Storage.sol\":3918:3933  addressList.ids */\n      0x02\n      add\n        /* \"contracts/Founding Citizens NFT Sale Privileged Buyers List Storage.sol\":3918:3945  addressList.ids[_toRemove2] */\n      0x00\n        /* \"contracts/Founding Citizens NFT Sale Privileged Buyers List Storage.sol\":3934:3944  _toRemove2 */\n      dup6\n        /* \"contracts/Founding Citizens NFT Sale Privileged Buyers List Storage.sol\":3918:3945  addressList.ids[_toRemove2] */\n      0xffffffffffffffffffffffffffffffffffffffff\n      and\n      0xffffffffffffffffffffffffffffffffffffffff\n      and\n      dup2\n      mstore\n      0x20\n      add\n      swap1\n      dup2\n      mstore\n      0x20\n      add\n      0x00\n      keccak256\n        /* \"contracts/Founding Citizens NFT Sale Privileged Buyers List Storage.sol\":3918:3973  addressList.ids[_toRemove2] = addressList.ids[_toMove2] */\n      dup2\n      swap1\n      sstore\n      pop\n        /* \"contracts/Founding Citizens NFT Sale Privileged Buyers List Storage.sol\":3991:4002  addressList */\n      0x01\n        /* \"contracts/Founding Citizens NFT Sale Privileged Buyers List Storage.sol\":3991:4006  addressList.ids */\n      0x02\n      add\n        /* \"contracts/Founding Citizens NFT Sale Privileged Buyers List Storage.sol\":3991:4016  addressList.ids[_toMove2] */\n      0x00\n        /* \"contracts/Founding Citizens NFT Sale Privileged Buyers List Storage.sol\":4007:4015  _toMove2 */\n      dup3\n        /* \"contracts/Founding Citizens NFT Sale Privileged Buyers List Storage.sol\":3991:4016  addressList.ids[_toMove2] */\n      0xffffffffffffffffffffffffffffffffffffffff\n      and\n      0xffffffffffffffffffffffffffffffffffffffff\n      and\n      dup2\n      mstore\n      0x20\n      add\n      swap1\n      dup2\n      mstore\n      0x20\n      add\n      0x00\n      keccak256\n        /* \"contracts/Founding Citizens NFT Sale Privileged Buyers List Storage.sol\":3984:4016  delete addressList.ids[_toMove2] */\n      0x00\n      swap1\n      sstore\n        /* \"contracts/Founding Citizens NFT Sale Privileged Buyers List Storage.sol\":4037:4048  addressList */\n      0x01\n        /* \"contracts/Founding Citizens NFT Sale Privileged Buyers List Storage.sol\":4037:4055  addressList.length */\n      0x00\n      add\n      0x00\n        /* \"contracts/Founding Citizens NFT Sale Privileged Buyers List Storage.sol\":4037:4057  addressList.length-- */\n      dup2\n      sload\n      dup1\n      swap3\n      swap2\n      swap1\n      tag_110\n      swap1\n      tag_111\n      jump\t// in\n    tag_110:\n      swap2\n      swap1\n      pop\n      sstore\n      pop\n        /* \"@openzeppelin/contracts@4.4.2/access/Ownable.sol\":1318:1319  _ */\n      pop\n      pop\n      pop\n      pop\n        /* \"contracts/Founding Citizens NFT Sale Privileged Buyers List Storage.sol\":3507:4065  function removeAddress(address address_) public onlyOwner {\r... */\n      pop\n      jump\t// out\n        /* \"@openzeppelin/contracts@4.4.2/access/Ownable.sol\":1668:1769  function renounceOwnership() public virtual onlyOwner {... */\n    tag_36:\n        /* \"@openzeppelin/contracts@4.4.2/access/Ownable.sol\":1259:1271  _msgSender() */\n      tag_113\n        /* \"@openzeppelin/contracts@4.4.2/access/Ownable.sol\":1259:1269  _msgSender */\n      tag_73\n        /* \"@openzeppelin/contracts@4.4.2/access/Ownable.sol\":1259:1271  _msgSender() */\n      jump\t// in\n    tag_113:\n        /* \"@openzeppelin/contracts@4.4.2/access/Ownable.sol\":1248:1271  owner() == _msgSender() */\n      0xffffffffffffffffffffffffffffffffffffffff\n      and\n        /* \"@openzeppelin/contracts@4.4.2/access/Ownable.sol\":1248:1255  owner() */\n      tag_114\n        /* \"@openzeppelin/contracts@4.4.2/access/Ownable.sol\":1248:1253  owner */\n      tag_43\n        /* \"@openzeppelin/contracts@4.4.2/access/Ownable.sol\":1248:1255  owner() */\n      jump\t// in\n    tag_114:\n        /* \"@openzeppelin/contracts@4.4.2/access/Ownable.sol\":1248:1271  owner() == _msgSender() */\n      0xffffffffffffffffffffffffffffffffffffffff\n      and\n      eq\n        /* \"@openzeppelin/contracts@4.4.2/access/Ownable.sol\":1240:1308  require(owner() == _msgSender(), \"Ownable: caller is not the owner\") */\n      tag_115\n      jumpi\n      mload(0x40)\n      0x08c379a000000000000000000000000000000000000000000000000000000000\n      dup2\n      mstore\n      0x04\n      add\n      tag_116\n      swap1\n      tag_77\n      jump\t// in\n    tag_116:\n      mload(0x40)\n      dup1\n      swap2\n      sub\n      swap1\n      revert\n    tag_115:\n        /* \"@openzeppelin/contracts@4.4.2/access/Ownable.sol\":1732:1762  _transferOwnership(address(0)) */\n      tag_118\n        /* \"@openzeppelin/contracts@4.4.2/access/Ownable.sol\":1759:1760  0 */\n      0x00\n        /* \"@openzeppelin/contracts@4.4.2/access/Ownable.sol\":1732:1750  _transferOwnership */\n      tag_119\n        /* \"@openzeppelin/contracts@4.4.2/access/Ownable.sol\":1732:1762  _transferOwnership(address(0)) */\n      jump\t// in\n    tag_118:\n        /* \"@openzeppelin/contracts@4.4.2/access/Ownable.sol\":1668:1769  function renounceOwnership() public virtual onlyOwner {... */\n      jump\t// out\n        /* \"contracts/Founding Citizens NFT Sale Privileged Buyers List Storage.sol\":2599:2741  function couponListLength(address address_) public view returns(uint) {\r... */\n    tag_39:\n        /* \"contracts/Founding Citizens NFT Sale Privileged Buyers List Storage.sol\":2663:2667  uint */\n      0x00\n        /* \"contracts/Founding Citizens NFT Sale Privileged Buyers List Storage.sol\":2687:2698  addressList */\n      0x01\n        /* \"contracts/Founding Citizens NFT Sale Privileged Buyers List Storage.sol\":2687:2710  addressList.couponLists */\n      0x03\n      add\n        /* \"contracts/Founding Citizens NFT Sale Privileged Buyers List Storage.sol\":2687:2726  addressList.couponLists[idOf(address_)] */\n      0x00\n        /* \"contracts/Founding Citizens NFT Sale Privileged Buyers List Storage.sol\":2711:2725  idOf(address_) */\n      tag_121\n        /* \"contracts/Founding Citizens NFT Sale Privileged Buyers List Storage.sol\":2716:2724  address_ */\n      dup5\n        /* \"contracts/Founding Citizens NFT Sale Privileged Buyers List Storage.sol\":2711:2715  idOf */\n      tag_59\n        /* \"contracts/Founding Citizens NFT Sale Privileged Buyers List Storage.sol\":2711:2725  idOf(address_) */\n      jump\t// in\n    tag_121:\n        /* \"contracts/Founding Citizens NFT Sale Privileged Buyers List Storage.sol\":2687:2726  addressList.couponLists[idOf(address_)] */\n      dup2\n      mstore\n      0x20\n      add\n      swap1\n      dup2\n      mstore\n      0x20\n      add\n      0x00\n      keccak256\n        /* \"contracts/Founding Citizens NFT Sale Privileged Buyers List Storage.sol\":2687:2733  addressList.couponLists[idOf(address_)].length */\n      0x00\n      add\n      sload\n        /* \"contracts/Founding Citizens NFT Sale Privileged Buyers List Storage.sol\":2680:2733  return addressList.couponLists[idOf(address_)].length */\n      swap1\n      pop\n        /* \"contracts/Founding Citizens NFT Sale Privileged Buyers List Storage.sol\":2599:2741  function couponListLength(address address_) public view returns(uint) {\r... */\n      swap2\n      swap1\n      pop\n      jump\t// out\n        /* \"@openzeppelin/contracts@4.4.2/access/Ownable.sol\":1036:1121  function owner() public view virtual returns (address) {... */\n    tag_43:\n        /* \"@openzeppelin/contracts@4.4.2/access/Ownable.sol\":1082:1089  address */\n      0x00\n        /* \"@openzeppelin/contracts@4.4.2/access/Ownable.sol\":1108:1114  _owner */\n      dup1\n      0x00\n      swap1\n      sload\n      swap1\n      0x0100\n      exp\n      swap1\n      div\n      0xffffffffffffffffffffffffffffffffffffffff\n      and\n        /* \"@openzeppelin/contracts@4.4.2/access/Ownable.sol\":1101:1114  return _owner */\n      swap1\n      pop\n        /* \"@openzeppelin/contracts@4.4.2/access/Ownable.sol\":1036:1121  function owner() public view virtual returns (address) {... */\n      swap1\n      jump\t// out\n        /* \"contracts/Founding Citizens NFT Sale Privileged Buyers List Storage.sol\":2749:2863  function addressExists(address address_) public view returns(bool) {\r... */\n    tag_48:\n        /* \"contracts/Founding Citizens NFT Sale Privileged Buyers List Storage.sol\":2810:2814  bool */\n      0x00\n        /* \"contracts/Founding Citizens NFT Sale Privileged Buyers List Storage.sol\":2853:2854  0 */\n      dup1\n        /* \"contracts/Founding Citizens NFT Sale Privileged Buyers List Storage.sol\":2835:2849  idOf(address_) */\n      tag_124\n        /* \"contracts/Founding Citizens NFT Sale Privileged Buyers List Storage.sol\":2840:2848  address_ */\n      dup4\n        /* \"contracts/Founding Citizens NFT Sale Privileged Buyers List Storage.sol\":2835:2839  idOf */\n      tag_59\n        /* \"contracts/Founding Citizens NFT Sale Privileged Buyers List Storage.sol\":2835:2849  idOf(address_) */\n      jump\t// in\n    tag_124:\n        /* \"contracts/Founding Citizens NFT Sale Privileged Buyers List Storage.sol\":2835:2854  idOf(address_) == 0 */\n      eq\n        /* \"contracts/Founding Citizens NFT Sale Privileged Buyers List Storage.sol\":2827:2855  return (idOf(address_) == 0) */\n      swap1\n      pop\n        /* \"contracts/Founding Citizens NFT Sale Privileged Buyers List Storage.sol\":2749:2863  function addressExists(address address_) public view returns(bool) {\r... */\n      swap2\n      swap1\n      pop\n      jump\t// out\n        /* \"contracts/Founding Citizens NFT Sale Privileged Buyers List Storage.sol\":5888:6288  function reduceCouponUses(address address_, uint discountRate, uint numberOfUses) public onlyOwner { \r... */\n    tag_53:\n        /* \"@openzeppelin/contracts@4.4.2/access/Ownable.sol\":1259:1271  _msgSender() */\n      tag_126\n        /* \"@openzeppelin/contracts@4.4.2/access/Ownable.sol\":1259:1269  _msgSender */\n      tag_73\n        /* \"@openzeppelin/contracts@4.4.2/access/Ownable.sol\":1259:1271  _msgSender() */\n      jump\t// in\n    tag_126:\n        /* \"@openzeppelin/contracts@4.4.2/access/Ownable.sol\":1248:1271  owner() == _msgSender() */\n      0xffffffffffffffffffffffffffffffffffffffff\n      and\n        /* \"@openzeppelin/contracts@4.4.2/access/Ownable.sol\":1248:1255  owner() */\n      tag_127\n        /* \"@openzeppelin/contracts@4.4.2/access/Ownable.sol\":1248:1253  owner */\n      tag_43\n        /* \"@openzeppelin/contracts@4.4.2/access/Ownable.sol\":1248:1255  owner() */\n      jump\t// in\n    tag_127:\n        /* \"@openzeppelin/contracts@4.4.2/access/Ownable.sol\":1248:1271  owner() == _msgSender() */\n      0xffffffffffffffffffffffffffffffffffffffff\n      and\n      eq\n        /* \"@openzeppelin/contracts@4.4.2/access/Ownable.sol\":1240:1308  require(owner() == _msgSender(), \"Ownable: caller is not the owner\") */\n      tag_128\n      jumpi\n      mload(0x40)\n      0x08c379a000000000000000000000000000000000000000000000000000000000\n      dup2\n      mstore\n      0x04\n      add\n      tag_129\n      swap1\n      tag_77\n      jump\t// in\n    tag_129:\n      mload(0x40)\n      dup1\n      swap2\n      sub\n      swap1\n      revert\n    tag_128:\n        /* \"contracts/Founding Citizens NFT Sale Privileged Buyers List Storage.sol\":6004:6010  uint i */\n      0x00\n        /* \"contracts/Founding Citizens NFT Sale Privileged Buyers List Storage.sol\":5999:6281  for (uint i = 0; i < couponListLength(address_); i++) {\r... */\n    tag_131:\n        /* \"contracts/Founding Citizens NFT Sale Privileged Buyers List Storage.sol\":6020:6046  couponListLength(address_) */\n      tag_134\n        /* \"contracts/Founding Citizens NFT Sale Privileged Buyers List Storage.sol\":6037:6045  address_ */\n      dup5\n        /* \"contracts/Founding Citizens NFT Sale Privileged Buyers List Storage.sol\":6020:6036  couponListLength */\n      tag_39\n        /* \"contracts/Founding Citizens NFT Sale Privileged Buyers List Storage.sol\":6020:6046  couponListLength(address_) */\n      jump\t// in\n    tag_134:\n        /* \"contracts/Founding Citizens NFT Sale Privileged Buyers List Storage.sol\":6016:6017  i */\n      dup2\n        /* \"contracts/Founding Citizens NFT Sale Privileged Buyers List Storage.sol\":6016:6046  i < couponListLength(address_) */\n      lt\n        /* \"contracts/Founding Citizens NFT Sale Privileged Buyers List Storage.sol\":5999:6281  for (uint i = 0; i < couponListLength(address_); i++) {\r... */\n      iszero\n      tag_132\n      jumpi\n        /* \"contracts/Founding Citizens NFT Sale Privileged Buyers List Storage.sol\":6139:6151  discountRate */\n      dup3\n        /* \"contracts/Founding Citizens NFT Sale Privileged Buyers List Storage.sol\":6072:6083  addressList */\n      0x01\n        /* \"contracts/Founding Citizens NFT Sale Privileged Buyers List Storage.sol\":6072:6095  addressList.couponLists */\n      0x03\n      add\n        /* \"contracts/Founding Citizens NFT Sale Privileged Buyers List Storage.sol\":6072:6111  addressList.couponLists[idOf(address_)] */\n      0x00\n        /* \"contracts/Founding Citizens NFT Sale Privileged Buyers List Storage.sol\":6096:6110  idOf(address_) */\n      tag_135\n        /* \"contracts/Founding Citizens NFT Sale Privileged Buyers List Storage.sol\":6101:6109  address_ */\n      dup8\n        /* \"contracts/Founding Citizens NFT Sale Privileged Buyers List Storage.sol\":6096:6100  idOf */\n      tag_59\n        /* \"contracts/Founding Citizens NFT Sale Privileged Buyers List Storage.sol\":6096:6110  idOf(address_) */\n      jump\t// in\n    tag_135:\n        /* \"contracts/Founding Citizens NFT Sale Privileged Buyers List Storage.sol\":6072:6111  addressList.couponLists[idOf(address_)] */\n      dup2\n      mstore\n      0x20\n      add\n      swap1\n      dup2\n      mstore\n      0x20\n      add\n      0x00\n      keccak256\n        /* \"contracts/Founding Citizens NFT Sale Privileged Buyers List Storage.sol\":6072:6119  addressList.couponLists[idOf(address_)].coupons */\n      0x01\n      add\n        /* \"contracts/Founding Citizens NFT Sale Privileged Buyers List Storage.sol\":6072:6122  addressList.couponLists[idOf(address_)].coupons[i] */\n      0x00\n        /* \"contracts/Founding Citizens NFT Sale Privileged Buyers List Storage.sol\":6120:6121  i */\n      dup4\n        /* \"contracts/Founding Citizens NFT Sale Privileged Buyers List Storage.sol\":6072:6122  addressList.couponLists[idOf(address_)].coupons[i] */\n      dup2\n      mstore\n      0x20\n      add\n      swap1\n      dup2\n      mstore\n      0x20\n      add\n      0x00\n      keccak256\n        /* \"contracts/Founding Citizens NFT Sale Privileged Buyers List Storage.sol\":6072:6135  addressList.couponLists[idOf(address_)].coupons[i].discountRate */\n      0x00\n      add\n      sload\n        /* \"contracts/Founding Citizens NFT Sale Privileged Buyers List Storage.sol\":6072:6151  addressList.couponLists[idOf(address_)].coupons[i].discountRate == discountRate */\n      eq\n        /* \"contracts/Founding Citizens NFT Sale Privileged Buyers List Storage.sol\":6068:6270  if (addressList.couponLists[idOf(address_)].coupons[i].discountRate == discountRate) \r... */\n      iszero\n      tag_136\n      jumpi\n        /* \"contracts/Founding Citizens NFT Sale Privileged Buyers List Storage.sol\":6186:6230  _reduceCouponUses(address_, i, numberOfUses) */\n      tag_137\n        /* \"contracts/Founding Citizens NFT Sale Privileged Buyers List Storage.sol\":6204:6212  address_ */\n      dup5\n        /* \"contracts/Founding Citizens NFT Sale Privileged Buyers List Storage.sol\":6214:6215  i */\n      dup3\n        /* \"contracts/Founding Citizens NFT Sale Privileged Buyers List Storage.sol\":6217:6229  numberOfUses */\n      dup5\n        /* \"contracts/Founding Citizens NFT Sale Privileged Buyers List Storage.sol\":6186:6203  _reduceCouponUses */\n      tag_138\n        /* \"contracts/Founding Citizens NFT Sale Privileged Buyers List Storage.sol\":6186:6230  _reduceCouponUses(address_, i, numberOfUses) */\n      jump\t// in\n    tag_137:\n        /* \"contracts/Founding Citizens NFT Sale Privileged Buyers List Storage.sol\":6249:6254  break */\n      jump(tag_132)\n        /* \"contracts/Founding Citizens NFT Sale Privileged Buyers List Storage.sol\":6068:6270  if (addressList.couponLists[idOf(address_)].coupons[i].discountRate == discountRate) \r... */\n    tag_136:\n        /* \"contracts/Founding Citizens NFT Sale Privileged Buyers List Storage.sol\":6048:6051  i++ */\n      dup1\n      dup1\n      tag_139\n      swap1\n      tag_80\n      jump\t// in\n    tag_139:\n      swap2\n      pop\n      pop\n        /* \"contracts/Founding Citizens NFT Sale Privileged Buyers List Storage.sol\":5999:6281  for (uint i = 0; i < couponListLength(address_); i++) {\r... */\n      jump(tag_131)\n    tag_132:\n      pop\n        /* \"contracts/Founding Citizens NFT Sale Privileged Buyers List Storage.sol\":5888:6288  function reduceCouponUses(address address_, uint discountRate, uint numberOfUses) public onlyOwner { \r... */\n      pop\n      pop\n      pop\n      jump\t// out\n        /* \"contracts/Founding Citizens NFT Sale Privileged Buyers List Storage.sol\":2443:2473  AddressList public addressList */\n    tag_55:\n      0x01\n      dup1\n      0x00\n      add\n      sload\n      swap1\n      pop\n      dup2\n      jump\t// out\n        /* \"contracts/Founding Citizens NFT Sale Privileged Buyers List Storage.sol\":2482:2591  function idOf(address address_) public view returns(uint) {\r... */\n    tag_59:\n        /* \"contracts/Founding Citizens NFT Sale Privileged Buyers List Storage.sol\":2534:2538  uint */\n      0x00\n        /* \"contracts/Founding Citizens NFT Sale Privileged Buyers List Storage.sol\":2558:2569  addressList */\n      0x01\n        /* \"contracts/Founding Citizens NFT Sale Privileged Buyers List Storage.sol\":2558:2573  addressList.ids */\n      0x02\n      add\n        /* \"contracts/Founding Citizens NFT Sale Privileged Buyers List Storage.sol\":2558:2583  addressList.ids[address_] */\n      0x00\n        /* \"contracts/Founding Citizens NFT Sale Privileged Buyers List Storage.sol\":2574:2582  address_ */\n      dup4\n        /* \"contracts/Founding Citizens NFT Sale Privileged Buyers List Storage.sol\":2558:2583  addressList.ids[address_] */\n      0xffffffffffffffffffffffffffffffffffffffff\n      and\n      0xffffffffffffffffffffffffffffffffffffffff\n      and\n      dup2\n      mstore\n      0x20\n      add\n      swap1\n      dup2\n      mstore\n      0x20\n      add\n      0x00\n      keccak256\n      sload\n        /* \"contracts/Founding Citizens NFT Sale Privileged Buyers List Storage.sol\":2551:2583  return addressList.ids[address_] */\n      swap1\n      pop\n        /* \"contracts/Founding Citizens NFT Sale Privileged Buyers List Storage.sol\":2482:2591  function idOf(address address_) public view returns(uint) {\r... */\n      swap2\n      swap1\n      pop\n      jump\t// out\n        /* \"contracts/Founding Citizens NFT Sale Privileged Buyers List Storage.sol\":4791:5171  function removeCoupon(address address_, uint id) public onlyOwner {\r... */\n    tag_63:\n        /* \"@openzeppelin/contracts@4.4.2/access/Ownable.sol\":1259:1271  _msgSender() */\n      tag_142\n        /* \"@openzeppelin/contracts@4.4.2/access/Ownable.sol\":1259:1269  _msgSender */\n      tag_73\n        /* \"@openzeppelin/contracts@4.4.2/access/Ownable.sol\":1259:1271  _msgSender() */\n      jump\t// in\n    tag_142:\n        /* \"@openzeppelin/contracts@4.4.2/access/Ownable.sol\":1248:1271  owner() == _msgSender() */\n      0xffffffffffffffffffffffffffffffffffffffff\n      and\n        /* \"@openzeppelin/contracts@4.4.2/access/Ownable.sol\":1248:1255  owner() */\n      tag_143\n        /* \"@openzeppelin/contracts@4.4.2/access/Ownable.sol\":1248:1253  owner */\n      tag_43\n        /* \"@openzeppelin/contracts@4.4.2/access/Ownable.sol\":1248:1255  owner() */\n      jump\t// in\n    tag_143:\n        /* \"@openzeppelin/contracts@4.4.2/access/Ownable.sol\":1248:1271  owner() == _msgSender() */\n      0xffffffffffffffffffffffffffffffffffffffff\n      and\n      eq\n        /* \"@openzeppelin/contracts@4.4.2/access/Ownable.sol\":1240:1308  require(owner() == _msgSender(), \"Ownable: caller is not the owner\") */\n      tag_144\n      jumpi\n      mload(0x40)\n      0x08c379a000000000000000000000000000000000000000000000000000000000\n      dup2\n      mstore\n      0x04\n      add\n      tag_145\n      swap1\n      tag_77\n      jump\t// in\n    tag_145:\n      mload(0x40)\n      dup1\n      swap2\n      sub\n      swap1\n      revert\n    tag_144:\n        /* \"contracts/Founding Citizens NFT Sale Privileged Buyers List Storage.sol\":4936:4947  addressList */\n      0x01\n        /* \"contracts/Founding Citizens NFT Sale Privileged Buyers List Storage.sol\":4936:4959  addressList.couponLists */\n      0x03\n      add\n        /* \"contracts/Founding Citizens NFT Sale Privileged Buyers List Storage.sol\":4936:4975  addressList.couponLists[idOf(address_)] */\n      0x00\n        /* \"contracts/Founding Citizens NFT Sale Privileged Buyers List Storage.sol\":4960:4974  idOf(address_) */\n      tag_147\n        /* \"contracts/Founding Citizens NFT Sale Privileged Buyers List Storage.sol\":4965:4973  address_ */\n      dup5\n        /* \"contracts/Founding Citizens NFT Sale Privileged Buyers List Storage.sol\":4960:4964  idOf */\n      tag_59\n        /* \"contracts/Founding Citizens NFT Sale Privileged Buyers List Storage.sol\":4960:4974  idOf(address_) */\n      jump\t// in\n    tag_147:\n        /* \"contracts/Founding Citizens NFT Sale Privileged Buyers List Storage.sol\":4936:4975  addressList.couponLists[idOf(address_)] */\n      dup2\n      mstore\n      0x20\n      add\n      swap1\n      dup2\n      mstore\n      0x20\n      add\n      0x00\n      keccak256\n        /* \"contracts/Founding Citizens NFT Sale Privileged Buyers List Storage.sol\":4936:4983  addressList.couponLists[idOf(address_)].coupons */\n      0x01\n      add\n        /* \"contracts/Founding Citizens NFT Sale Privileged Buyers List Storage.sol\":4936:5011  addressList.couponLists[idOf(address_)].coupons[couponListLength(address_)] */\n      0x00\n        /* \"contracts/Founding Citizens NFT Sale Privileged Buyers List Storage.sol\":4984:5010  couponListLength(address_) */\n      tag_148\n        /* \"contracts/Founding Citizens NFT Sale Privileged Buyers List Storage.sol\":5001:5009  address_ */\n      dup5\n        /* \"contracts/Founding Citizens NFT Sale Privileged Buyers List Storage.sol\":4984:5000  couponListLength */\n      tag_39\n        /* \"contracts/Founding Citizens NFT Sale Privileged Buyers List Storage.sol\":4984:5010  couponListLength(address_) */\n      jump\t// in\n    tag_148:\n        /* \"contracts/Founding Citizens NFT Sale Privileged Buyers List Storage.sol\":4936:5011  addressList.couponLists[idOf(address_)].coupons[couponListLength(address_)] */\n      dup2\n      mstore\n      0x20\n      add\n      swap1\n      dup2\n      mstore\n      0x20\n      add\n      0x00\n      keccak256\n        /* \"contracts/Founding Citizens NFT Sale Privileged Buyers List Storage.sol\":4868:4879  addressList */\n      0x01\n        /* \"contracts/Founding Citizens NFT Sale Privileged Buyers List Storage.sol\":4868:4891  addressList.couponLists */\n      0x03\n      add\n        /* \"contracts/Founding Citizens NFT Sale Privileged Buyers List Storage.sol\":4868:4907  addressList.couponLists[idOf(address_)] */\n      0x00\n        /* \"contracts/Founding Citizens NFT Sale Privileged Buyers List Storage.sol\":4892:4906  idOf(address_) */\n      tag_149\n        /* \"contracts/Founding Citizens NFT Sale Privileged Buyers List Storage.sol\":4897:4905  address_ */\n      dup6\n        /* \"contracts/Founding Citizens NFT Sale Privileged Buyers List Storage.sol\":4892:4896  idOf */\n      tag_59\n        /* \"contracts/Founding Citizens NFT Sale Privileged Buyers List Storage.sol\":4892:4906  idOf(address_) */\n      jump\t// in\n    tag_149:\n        /* \"contracts/Founding Citizens NFT Sale Privileged Buyers List Storage.sol\":4868:4907  addressList.couponLists[idOf(address_)] */\n      dup2\n      mstore\n      0x20\n      add\n      swap1\n      dup2\n      mstore\n      0x20\n      add\n      0x00\n      keccak256\n        /* \"contracts/Founding Citizens NFT Sale Privileged Buyers List Storage.sol\":4868:4915  addressList.couponLists[idOf(address_)].coupons */\n      0x01\n      add\n        /* \"contracts/Founding Citizens NFT Sale Privileged Buyers List Storage.sol\":4868:4919  addressList.couponLists[idOf(address_)].coupons[id] */\n      0x00\n        /* \"contracts/Founding Citizens NFT Sale Privileged Buyers List Storage.sol\":4916:4918  id */\n      dup4\n        /* \"contracts/Founding Citizens NFT Sale Privileged Buyers List Storage.sol\":4868:4919  addressList.couponLists[idOf(address_)].coupons[id] */\n      dup2\n      mstore\n      0x20\n      add\n      swap1\n      dup2\n      mstore\n      0x20\n      add\n      0x00\n      keccak256\n        /* \"contracts/Founding Citizens NFT Sale Privileged Buyers List Storage.sol\":4868:5011  addressList.couponLists[idOf(address_)].coupons[id] = \r... */\n      0x00\n      dup3\n      add\n      sload\n      dup2\n      0x00\n      add\n      sstore\n      0x01\n      dup3\n      add\n      sload\n      dup2\n      0x01\n      add\n      sstore\n      swap1\n      pop\n      pop\n        /* \"contracts/Founding Citizens NFT Sale Privileged Buyers List Storage.sol\":5029:5040  addressList */\n      0x01\n        /* \"contracts/Founding Citizens NFT Sale Privileged Buyers List Storage.sol\":5029:5052  addressList.couponLists */\n      0x03\n      add\n        /* \"contracts/Founding Citizens NFT Sale Privileged Buyers List Storage.sol\":5029:5068  addressList.couponLists[idOf(address_)] */\n      0x00\n        /* \"contracts/Founding Citizens NFT Sale Privileged Buyers List Storage.sol\":5053:5067  idOf(address_) */\n      tag_150\n        /* \"contracts/Founding Citizens NFT Sale Privileged Buyers List Storage.sol\":5058:5066  address_ */\n      dup5\n        /* \"contracts/Founding Citizens NFT Sale Privileged Buyers List Storage.sol\":5053:5057  idOf */\n      tag_59\n        /* \"contracts/Founding Citizens NFT Sale Privileged Buyers List Storage.sol\":5053:5067  idOf(address_) */\n      jump\t// in\n    tag_150:\n        /* \"contracts/Founding Citizens NFT Sale Privileged Buyers List Storage.sol\":5029:5068  addressList.couponLists[idOf(address_)] */\n      dup2\n      mstore\n      0x20\n      add\n      swap1\n      dup2\n      mstore\n      0x20\n      add\n      0x00\n      keccak256\n        /* \"contracts/Founding Citizens NFT Sale Privileged Buyers List Storage.sol\":5029:5076  addressList.couponLists[idOf(address_)].coupons */\n      0x01\n      add\n        /* \"contracts/Founding Citizens NFT Sale Privileged Buyers List Storage.sol\":5029:5104  addressList.couponLists[idOf(address_)].coupons[couponListLength(address_)] */\n      0x00\n        /* \"contracts/Founding Citizens NFT Sale Privileged Buyers List Storage.sol\":5077:5103  couponListLength(address_) */\n      tag_151\n        /* \"contracts/Founding Citizens NFT Sale Privileged Buyers List Storage.sol\":5094:5102  address_ */\n      dup5\n        /* \"contracts/Founding Citizens NFT Sale Privileged Buyers List Storage.sol\":5077:5093  couponListLength */\n      tag_39\n        /* \"contracts/Founding Citizens NFT Sale Privileged Buyers List Storage.sol\":5077:5103  couponListLength(address_) */\n      jump\t// in\n    tag_151:\n        /* \"contracts/Founding Citizens NFT Sale Privileged Buyers List Storage.sol\":5029:5104  addressList.couponLists[idOf(address_)].coupons[couponListLength(address_)] */\n      dup2\n      mstore\n      0x20\n      add\n      swap1\n      dup2\n      mstore\n      0x20\n      add\n      0x00\n      keccak256\n      0x00\n        /* \"contracts/Founding Citizens NFT Sale Privileged Buyers List Storage.sol\":5022:5104  delete addressList.couponLists[idOf(address_)].coupons[couponListLength(address_)] */\n      dup1\n      dup3\n      add\n      0x00\n      swap1\n      sstore\n      0x01\n      dup3\n      add\n      0x00\n      swap1\n      sstore\n      pop\n      pop\n        /* \"contracts/Founding Citizens NFT Sale Privileged Buyers List Storage.sol\":5115:5126  addressList */\n      0x01\n        /* \"contracts/Founding Citizens NFT Sale Privileged Buyers List Storage.sol\":5115:5138  addressList.couponLists */\n      0x03\n      add\n        /* \"contracts/Founding Citizens NFT Sale Privileged Buyers List Storage.sol\":5115:5154  addressList.couponLists[idOf(address_)] */\n      0x00\n        /* \"contracts/Founding Citizens NFT Sale Privileged Buyers List Storage.sol\":5139:5153  idOf(address_) */\n      tag_152\n        /* \"contracts/Founding Citizens NFT Sale Privileged Buyers List Storage.sol\":5144:5152  address_ */\n      dup5\n        /* \"contracts/Founding Citizens NFT Sale Privileged Buyers List Storage.sol\":5139:5143  idOf */\n      tag_59\n        /* \"contracts/Founding Citizens NFT Sale Privileged Buyers List Storage.sol\":5139:5153  idOf(address_) */\n      jump\t// in\n    tag_152:\n        /* \"contracts/Founding Citizens NFT Sale Privileged Buyers List Storage.sol\":5115:5154  addressList.couponLists[idOf(address_)] */\n      dup2\n      mstore\n      0x20\n      add\n      swap1\n      dup2\n      mstore\n      0x20\n      add\n      0x00\n      keccak256\n        /* \"contracts/Founding Citizens NFT Sale Privileged Buyers List Storage.sol\":5115:5161  addressList.couponLists[idOf(address_)].length */\n      0x00\n      add\n      0x00\n        /* \"contracts/Founding Citizens NFT Sale Privileged Buyers List Storage.sol\":5115:5163  addressList.couponLists[idOf(address_)].length-- */\n      dup2\n      sload\n      dup1\n      swap3\n      swap2\n      swap1\n      tag_153\n      swap1\n      tag_111\n      jump\t// in\n    tag_153:\n      swap2\n      swap1\n      pop\n      sstore\n      pop\n        /* \"contracts/Founding Citizens NFT Sale Privileged Buyers List Storage.sol\":4791:5171  function removeCoupon(address address_, uint id) public onlyOwner {\r... */\n      pop\n      pop\n      jump\t// out\n        /* \"@openzeppelin/contracts@4.4.2/access/Ownable.sol\":1918:2116  function transferOwnership(address newOwner) public virtual onlyOwner {... */\n    tag_66:\n        /* \"@openzeppelin/contracts@4.4.2/access/Ownable.sol\":1259:1271  _msgSender() */\n      tag_155\n        /* \"@openzeppelin/contracts@4.4.2/access/Ownable.sol\":1259:1269  _msgSender */\n      tag_73\n        /* \"@openzeppelin/contracts@4.4.2/access/Ownable.sol\":1259:1271  _msgSender() */\n      jump\t// in\n    tag_155:\n        /* \"@openzeppelin/contracts@4.4.2/access/Ownable.sol\":1248:1271  owner() == _msgSender() */\n      0xffffffffffffffffffffffffffffffffffffffff\n      and\n        /* \"@openzeppelin/contracts@4.4.2/access/Ownable.sol\":1248:1255  owner() */\n      tag_156\n        /* \"@openzeppelin/contracts@4.4.2/access/Ownable.sol\":1248:1253  owner */\n      tag_43\n        /* \"@openzeppelin/contracts@4.4.2/access/Ownable.sol\":1248:1255  owner() */\n      jump\t// in\n    tag_156:\n        /* \"@openzeppelin/contracts@4.4.2/access/Ownable.sol\":1248:1271  owner() == _msgSender() */\n      0xffffffffffffffffffffffffffffffffffffffff\n      and\n      eq\n        /* \"@openzeppelin/contracts@4.4.2/access/Ownable.sol\":1240:1308  require(owner() == _msgSender(), \"Ownable: caller is not the owner\") */\n      tag_157\n      jumpi\n      mload(0x40)\n      0x08c379a000000000000000000000000000000000000000000000000000000000\n      dup2\n      mstore\n      0x04\n      add\n      tag_158\n      swap1\n      tag_77\n      jump\t// in\n    tag_158:\n      mload(0x40)\n      dup1\n      swap2\n      sub\n      swap1\n      revert\n    tag_157:\n        /* \"@openzeppelin/contracts@4.4.2/access/Ownable.sol\":2026:2027  0 */\n      0x00\n        /* \"@openzeppelin/contracts@4.4.2/access/Ownable.sol\":2006:2028  newOwner != address(0) */\n      0xffffffffffffffffffffffffffffffffffffffff\n      and\n        /* \"@openzeppelin/contracts@4.4.2/access/Ownable.sol\":2006:2014  newOwner */\n      dup2\n        /* \"@openzeppelin/contracts@4.4.2/access/Ownable.sol\":2006:2028  newOwner != address(0) */\n      0xffffffffffffffffffffffffffffffffffffffff\n      and\n      eq\n      iszero\n        /* \"@openzeppelin/contracts@4.4.2/access/Ownable.sol\":1998:2071  require(newOwner != address(0), \"Ownable: new owner is the zero address\") */\n      tag_160\n      jumpi\n      mload(0x40)\n      0x08c379a000000000000000000000000000000000000000000000000000000000\n      dup2\n      mstore\n      0x04\n      add\n      tag_161\n      swap1\n      tag_162\n      jump\t// in\n    tag_161:\n      mload(0x40)\n      dup1\n      swap2\n      sub\n      swap1\n      revert\n    tag_160:\n        /* \"@openzeppelin/contracts@4.4.2/access/Ownable.sol\":2081:2109  _transferOwnership(newOwner) */\n      tag_163\n        /* \"@openzeppelin/contracts@4.4.2/access/Ownable.sol\":2100:2108  newOwner */\n      dup2\n        /* \"@openzeppelin/contracts@4.4.2/access/Ownable.sol\":2081:2099  _transferOwnership */\n      tag_119\n        /* \"@openzeppelin/contracts@4.4.2/access/Ownable.sol\":2081:2109  _transferOwnership(newOwner) */\n      jump\t// in\n    tag_163:\n        /* \"@openzeppelin/contracts@4.4.2/access/Ownable.sol\":1918:2116  function transferOwnership(address newOwner) public virtual onlyOwner {... */\n      pop\n      jump\t// out\n        /* \"contracts/Founding Citizens NFT Sale Privileged Buyers List Storage.sol\":2871:3020  function addressHasCoupon(address address_) public view returns(bool) {\r... */\n    tag_69:\n        /* \"contracts/Founding Citizens NFT Sale Privileged Buyers List Storage.sol\":2935:2939  bool */\n      0x00\n        /* \"contracts/Founding Citizens NFT Sale Privileged Buyers List Storage.sol\":3010:3011  0 */\n      dup1\n        /* \"contracts/Founding Citizens NFT Sale Privileged Buyers List Storage.sol\":2960:2971  addressList */\n      0x01\n        /* \"contracts/Founding Citizens NFT Sale Privileged Buyers List Storage.sol\":2960:2983  addressList.couponLists */\n      0x03\n      add\n        /* \"contracts/Founding Citizens NFT Sale Privileged Buyers List Storage.sol\":2960:2999  addressList.couponLists[idOf(address_)] */\n      0x00\n        /* \"contracts/Founding Citizens NFT Sale Privileged Buyers List Storage.sol\":2984:2998  idOf(address_) */\n      tag_165\n        /* \"contracts/Founding Citizens NFT Sale Privileged Buyers List Storage.sol\":2989:2997  address_ */\n      dup6\n        /* \"contracts/Founding Citizens NFT Sale Privileged Buyers List Storage.sol\":2984:2988  idOf */\n      tag_59\n        /* \"contracts/Founding Citizens NFT Sale Privileged Buyers List Storage.sol\":2984:2998  idOf(address_) */\n      jump\t// in\n    tag_165:\n        /* \"contracts/Founding Citizens NFT Sale Privileged Buyers List Storage.sol\":2960:2999  addressList.couponLists[idOf(address_)] */\n      dup2\n      mstore\n      0x20\n      add\n      swap1\n      dup2\n      mstore\n      0x20\n      add\n      0x00\n      keccak256\n        /* \"contracts/Founding Citizens NFT Sale Privileged Buyers List Storage.sol\":2960:3006  addressList.couponLists[idOf(address_)].length */\n      0x00\n      add\n      sload\n        /* \"contracts/Founding Citizens NFT Sale Privileged Buyers List Storage.sol\":2960:3011  addressList.couponLists[idOf(address_)].length == 0 */\n      eq\n        /* \"contracts/Founding Citizens NFT Sale Privileged Buyers List Storage.sol\":2952:3012  return (addressList.couponLists[idOf(address_)].length == 0) */\n      swap1\n      pop\n        /* \"contracts/Founding Citizens NFT Sale Privileged Buyers List Storage.sol\":2871:3020  function addressHasCoupon(address address_) public view returns(bool) {\r... */\n      swap2\n      swap1\n      pop\n      jump\t// out\n        /* \"@openzeppelin/contracts@4.4.2/utils/Context.sol\":640:736  function _msgSender() internal view virtual returns (address) {... */\n    tag_73:\n        /* \"@openzeppelin/contracts@4.4.2/utils/Context.sol\":693:700  address */\n      0x00\n        /* \"@openzeppelin/contracts@4.4.2/utils/Context.sol\":719:729  msg.sender */\n      caller\n        /* \"@openzeppelin/contracts@4.4.2/utils/Context.sol\":712:729  return msg.sender */\n      swap1\n      pop\n        /* \"@openzeppelin/contracts@4.4.2/utils/Context.sol\":640:736  function _msgSender() internal view virtual returns (address) {... */\n      swap1\n      jump\t// out\n        /* \"@openzeppelin/contracts@4.4.2/access/Ownable.sol\":2270:2457  function _transferOwnership(address newOwner) internal virtual {... */\n    tag_119:\n        /* \"@openzeppelin/contracts@4.4.2/access/Ownable.sol\":2343:2359  address oldOwner */\n      0x00\n        /* \"@openzeppelin/contracts@4.4.2/access/Ownable.sol\":2362:2368  _owner */\n      dup1\n      0x00\n      swap1\n      sload\n      swap1\n      0x0100\n      exp\n      swap1\n      div\n      0xffffffffffffffffffffffffffffffffffffffff\n      and\n        /* \"@openzeppelin/contracts@4.4.2/access/Ownable.sol\":2343:2368  address oldOwner = _owner */\n      swap1\n      pop\n        /* \"@openzeppelin/contracts@4.4.2/access/Ownable.sol\":2387:2395  newOwner */\n      dup2\n        /* \"@openzeppelin/contracts@4.4.2/access/Ownable.sol\":2378:2384  _owner */\n      0x00\n      dup1\n        /* \"@openzeppelin/contracts@4.4.2/access/Ownable.sol\":2378:2395  _owner = newOwner */\n      0x0100\n      exp\n      dup2\n      sload\n      dup2\n      0xffffffffffffffffffffffffffffffffffffffff\n      mul\n      not\n      and\n      swap1\n      dup4\n      0xffffffffffffffffffffffffffffffffffffffff\n      and\n      mul\n      or\n      swap1\n      sstore\n      pop\n        /* \"@openzeppelin/contracts@4.4.2/access/Ownable.sol\":2441:2449  newOwner */\n      dup2\n        /* \"@openzeppelin/contracts@4.4.2/access/Ownable.sol\":2410:2450  OwnershipTransferred(oldOwner, newOwner) */\n      0xffffffffffffffffffffffffffffffffffffffff\n      and\n        /* \"@openzeppelin/contracts@4.4.2/access/Ownable.sol\":2431:2439  oldOwner */\n      dup2\n        /* \"@openzeppelin/contracts@4.4.2/access/Ownable.sol\":2410:2450  OwnershipTransferred(oldOwner, newOwner) */\n      0xffffffffffffffffffffffffffffffffffffffff\n      and\n      0x8be0079c531659141344cd1fd0a4f28419497f9722a3daafe3b4186f6b6457e0\n      mload(0x40)\n      mload(0x40)\n      dup1\n      swap2\n      sub\n      swap1\n      log3\n        /* \"@openzeppelin/contracts@4.4.2/access/Ownable.sol\":2270:2457  function _transferOwnership(address newOwner) internal virtual {... */\n      pop\n      pop\n      jump\t// out\n        /* \"contracts/Founding Citizens NFT Sale Privileged Buyers List Storage.sol\":5179:5880  function _reduceCouponUses(address address_, uint id, uint numberOfUses) internal {\r... */\n    tag_138:\n        /* \"contracts/Founding Citizens NFT Sale Privileged Buyers List Storage.sol\":5272:5286  bool condition */\n      0x00\n        /* \"contracts/Founding Citizens NFT Sale Privileged Buyers List Storage.sol\":5358:5370  numberOfUses */\n      dup2\n        /* \"contracts/Founding Citizens NFT Sale Privileged Buyers List Storage.sol\":5290:5301  addressList */\n      0x01\n        /* \"contracts/Founding Citizens NFT Sale Privileged Buyers List Storage.sol\":5290:5313  addressList.couponLists */\n      0x03\n      add\n        /* \"contracts/Founding Citizens NFT Sale Privileged Buyers List Storage.sol\":5290:5329  addressList.couponLists[idOf(address_)] */\n      0x00\n        /* \"contracts/Founding Citizens NFT Sale Privileged Buyers List Storage.sol\":5314:5328  idOf(address_) */\n      tag_169\n        /* \"contracts/Founding Citizens NFT Sale Privileged Buyers List Storage.sol\":5319:5327  address_ */\n      dup8\n        /* \"contracts/Founding Citizens NFT Sale Privileged Buyers List Storage.sol\":5314:5318  idOf */\n      tag_59\n        /* \"contracts/Founding Citizens NFT Sale Privileged Buyers List Storage.sol\":5314:5328  idOf(address_) */\n      jump\t// in\n    tag_169:\n        /* \"contracts/Founding Citizens NFT Sale Privileged Buyers List Storage.sol\":5290:5329  addressList.couponLists[idOf(address_)] */\n      dup2\n      mstore\n      0x20\n      add\n      swap1\n      dup2\n      mstore\n      0x20\n      add\n      0x00\n      keccak256\n        /* \"contracts/Founding Citizens NFT Sale Privileged Buyers List Storage.sol\":5290:5337  addressList.couponLists[idOf(address_)].coupons */\n      0x01\n      add\n        /* \"contracts/Founding Citizens NFT Sale Privileged Buyers List Storage.sol\":5290:5341  addressList.couponLists[idOf(address_)].coupons[id] */\n      0x00\n        /* \"contracts/Founding Citizens NFT Sale Privileged Buyers List Storage.sol\":5338:5340  id */\n      dup6\n        /* \"contracts/Founding Citizens NFT Sale Privileged Buyers List Storage.sol\":5290:5341  addressList.couponLists[idOf(address_)].coupons[id] */\n      dup2\n      mstore\n      0x20\n      add\n      swap1\n      dup2\n      mstore\n      0x20\n      add\n      0x00\n      keccak256\n        /* \"contracts/Founding Citizens NFT Sale Privileged Buyers List Storage.sol\":5290:5354  addressList.couponLists[idOf(address_)].coupons[id].numberOfUses */\n      0x01\n      add\n      sload\n        /* \"contracts/Founding Citizens NFT Sale Privileged Buyers List Storage.sol\":5290:5370  addressList.couponLists[idOf(address_)].coupons[id].numberOfUses >= numberOfUses */\n      lt\n      iszero\n        /* \"contracts/Founding Citizens NFT Sale Privileged Buyers List Storage.sol\":5272:5371  bool condition = (addressList.couponLists[idOf(address_)].coupons[id].numberOfUses >= numberOfUses) */\n      swap1\n      pop\n        /* \"contracts/Founding Citizens NFT Sale Privileged Buyers List Storage.sol\":5382:5404  string memory errorMsg */\n      0x00\n        /* \"contracts/Founding Citizens NFT Sale Privileged Buyers List Storage.sol\":5538:5549  addressList */\n      0x01\n        /* \"contracts/Founding Citizens NFT Sale Privileged Buyers List Storage.sol\":5538:5561  addressList.couponLists */\n      0x03\n      add\n        /* \"contracts/Founding Citizens NFT Sale Privileged Buyers List Storage.sol\":5538:5577  addressList.couponLists[idOf(address_)] */\n      0x00\n        /* \"contracts/Founding Citizens NFT Sale Privileged Buyers List Storage.sol\":5562:5576  idOf(address_) */\n      tag_170\n        /* \"contracts/Founding Citizens NFT Sale Privileged Buyers List Storage.sol\":5567:5575  address_ */\n      dup8\n        /* \"contracts/Founding Citizens NFT Sale Privileged Buyers List Storage.sol\":5562:5566  idOf */\n      tag_59\n        /* \"contracts/Founding Citizens NFT Sale Privileged Buyers List Storage.sol\":5562:5576  idOf(address_) */\n      jump\t// in\n    tag_170:\n        /* \"contracts/Founding Citizens NFT Sale Privileged Buyers List Storage.sol\":5538:5577  addressList.couponLists[idOf(address_)] */\n      dup2\n      mstore\n      0x20\n      add\n      swap1\n      dup2\n      mstore\n      0x20\n      add\n      0x00\n      keccak256\n        /* \"contracts/Founding Citizens NFT Sale Privileged Buyers List Storage.sol\":5538:5585  addressList.couponLists[idOf(address_)].coupons */\n      0x01\n      add\n        /* \"contracts/Founding Citizens NFT Sale Privileged Buyers List Storage.sol\":5538:5589  addressList.couponLists[idOf(address_)].coupons[id] */\n      0x00\n        /* \"contracts/Founding Citizens NFT Sale Privileged Buyers List Storage.sol\":5586:5588  id */\n      dup6\n        /* \"contracts/Founding Citizens NFT Sale Privileged Buyers List Storage.sol\":5538:5589  addressList.couponLists[idOf(address_)].coupons[id] */\n      dup2\n      mstore\n      0x20\n      add\n      swap1\n      dup2\n      mstore\n      0x20\n      add\n      0x00\n      keccak256\n        /* \"contracts/Founding Citizens NFT Sale Privileged Buyers List Storage.sol\":5538:5602  addressList.couponLists[idOf(address_)].coupons[id].numberOfUses */\n      0x01\n      add\n      sload\n        /* \"contracts/Founding Citizens NFT Sale Privileged Buyers List Storage.sol\":5414:5603  abi.encodePacked(\r... */\n      add(0x20, mload(0x40))\n      tag_171\n      swap2\n      swap1\n      tag_172\n      jump\t// in\n    tag_171:\n      mload(0x40)\n      0x20\n      dup2\n      dup4\n      sub\n      sub\n      dup2\n      mstore\n      swap1\n      0x40\n      mstore\n        /* \"contracts/Founding Citizens NFT Sale Privileged Buyers List Storage.sol\":5382:5604  string memory errorMsg = string(abi.encodePacked(\r... */\n      swap1\n      pop\n        /* \"contracts/Founding Citizens NFT Sale Privileged Buyers List Storage.sol\":5623:5632  condition */\n      dup2\n        /* \"contracts/Founding Citizens NFT Sale Privileged Buyers List Storage.sol\":5634:5642  errorMsg */\n      dup2\n        /* \"contracts/Founding Citizens NFT Sale Privileged Buyers List Storage.sol\":5615:5643  require(condition, errorMsg) */\n      swap1\n      tag_173\n      jumpi\n      mload(0x40)\n      0x08c379a000000000000000000000000000000000000000000000000000000000\n      dup2\n      mstore\n      0x04\n      add\n      tag_174\n      swap2\n      swap1\n      tag_175\n      jump\t// in\n    tag_174:\n      mload(0x40)\n      dup1\n      swap2\n      sub\n      swap1\n      revert\n    tag_173:\n      pop\n        /* \"contracts/Founding Citizens NFT Sale Privileged Buyers List Storage.sol\":5722:5734  numberOfUses */\n      dup3\n        /* \"contracts/Founding Citizens NFT Sale Privileged Buyers List Storage.sol\":5654:5665  addressList */\n      0x01\n        /* \"contracts/Founding Citizens NFT Sale Privileged Buyers List Storage.sol\":5654:5677  addressList.couponLists */\n      0x03\n      add\n        /* \"contracts/Founding Citizens NFT Sale Privileged Buyers List Storage.sol\":5654:5693  addressList.couponLists[idOf(address_)] */\n      0x00\n        /* \"contracts/Founding Citizens NFT Sale Privileged Buyers List Storage.sol\":5678:5692  idOf(address_) */\n      tag_176\n        /* \"contracts/Founding Citizens NFT Sale Privileged Buyers List Storage.sol\":5683:5691  address_ */\n      dup9\n        /* \"contracts/Founding Citizens NFT Sale Privileged Buyers List Storage.sol\":5678:5682  idOf */\n      tag_59\n        /* \"contracts/Founding Citizens NFT Sale Privileged Buyers List Storage.sol\":5678:5692  idOf(address_) */\n      jump\t// in\n    tag_176:\n        /* \"contracts/Founding Citizens NFT Sale Privileged Buyers List Storage.sol\":5654:5693  addressList.couponLists[idOf(address_)] */\n      dup2\n      mstore\n      0x20\n      add\n      swap1\n      dup2\n      mstore\n      0x20\n      add\n      0x00\n      keccak256\n        /* \"contracts/Founding Citizens NFT Sale Privileged Buyers List Storage.sol\":5654:5701  addressList.couponLists[idOf(address_)].coupons */\n      0x01\n      add\n        /* \"contracts/Founding Citizens NFT Sale Privileged Buyers List Storage.sol\":5654:5705  addressList.couponLists[idOf(address_)].coupons[id] */\n      0x00\n        /* \"contracts/Founding Citizens NFT Sale Privileged Buyers List Storage.sol\":5702:5704  id */\n      dup7\n        /* \"contracts/Founding Citizens NFT Sale Privileged Buyers List Storage.sol\":5654:5705  addressList.couponLists[idOf(address_)].coupons[id] */\n      dup2\n      mstore\n      0x20\n      add\n      swap1\n      dup2\n      mstore\n      0x20\n      add\n      0x00\n      keccak256\n        /* \"contracts/Founding Citizens NFT Sale Privileged Buyers List Storage.sol\":5654:5718  addressList.couponLists[idOf(address_)].coupons[id].numberOfUses */\n      0x01\n      add\n      0x00\n        /* \"contracts/Founding Citizens NFT Sale Privileged Buyers List Storage.sol\":5654:5734  addressList.couponLists[idOf(address_)].coupons[id].numberOfUses -= numberOfUses */\n      dup3\n      dup3\n      sload\n      tag_177\n      swap2\n      swap1\n      tag_178\n      jump\t// in\n    tag_177:\n      swap3\n      pop\n      pop\n      dup2\n      swap1\n      sstore\n      pop\n        /* \"contracts/Founding Citizens NFT Sale Privileged Buyers List Storage.sol\":5817:5818  0 */\n      0x00\n        /* \"contracts/Founding Citizens NFT Sale Privileged Buyers List Storage.sol\":5749:5760  addressList */\n      0x01\n        /* \"contracts/Founding Citizens NFT Sale Privileged Buyers List Storage.sol\":5749:5772  addressList.couponLists */\n      0x03\n      add\n        /* \"contracts/Founding Citizens NFT Sale Privileged Buyers List Storage.sol\":5749:5788  addressList.couponLists[idOf(address_)] */\n      0x00\n        /* \"contracts/Founding Citizens NFT Sale Privileged Buyers List Storage.sol\":5773:5787  idOf(address_) */\n      tag_179\n        /* \"contracts/Founding Citizens NFT Sale Privileged Buyers List Storage.sol\":5778:5786  address_ */\n      dup9\n        /* \"contracts/Founding Citizens NFT Sale Privileged Buyers List Storage.sol\":5773:5777  idOf */\n      tag_59\n        /* \"contracts/Founding Citizens NFT Sale Privileged Buyers List Storage.sol\":5773:5787  idOf(address_) */\n      jump\t// in\n    tag_179:\n        /* \"contracts/Founding Citizens NFT Sale Privileged Buyers List Storage.sol\":5749:5788  addressList.couponLists[idOf(address_)] */\n      dup2\n      mstore\n      0x20\n      add\n      swap1\n      dup2\n      mstore\n      0x20\n      add\n      0x00\n      keccak256\n        /* \"contracts/Founding Citizens NFT Sale Privileged Buyers List Storage.sol\":5749:5796  addressList.couponLists[idOf(address_)].coupons */\n      0x01\n      add\n        /* \"contracts/Founding Citizens NFT Sale Privileged Buyers List Storage.sol\":5749:5800  addressList.couponLists[idOf(address_)].coupons[id] */\n      0x00\n        /* \"contracts/Founding Citizens NFT Sale Privileged Buyers List Storage.sol\":5797:5799  id */\n      dup7\n        /* \"contracts/Founding Citizens NFT Sale Privileged Buyers List Storage.sol\":5749:5800  addressList.couponLists[idOf(address_)].coupons[id] */\n      dup2\n      mstore\n      0x20\n      add\n      swap1\n      dup2\n      mstore\n      0x20\n      add\n      0x00\n      keccak256\n        /* \"contracts/Founding Citizens NFT Sale Privileged Buyers List Storage.sol\":5749:5813  addressList.couponLists[idOf(address_)].coupons[id].numberOfUses */\n      0x01\n      add\n      sload\n        /* \"contracts/Founding Citizens NFT Sale Privileged Buyers List Storage.sol\":5749:5818  addressList.couponLists[idOf(address_)].coupons[id].numberOfUses <= 0 */\n      gt\n        /* \"contracts/Founding Citizens NFT Sale Privileged Buyers List Storage.sol\":5745:5873  if (addressList.couponLists[idOf(address_)].coupons[id].numberOfUses <= 0) {\r... */\n      tag_180\n      jumpi\n        /* \"contracts/Founding Citizens NFT Sale Privileged Buyers List Storage.sol\":5835:5861  removeCoupon(address_, id) */\n      tag_181\n        /* \"contracts/Founding Citizens NFT Sale Privileged Buyers List Storage.sol\":5848:5856  address_ */\n      dup6\n        /* \"contracts/Founding Citizens NFT Sale Privileged Buyers List Storage.sol\":5858:5860  id */\n      dup6\n        /* \"contracts/Founding Citizens NFT Sale Privileged Buyers List Storage.sol\":5835:5847  removeCoupon */\n      tag_63\n        /* \"contracts/Founding Citizens NFT Sale Privileged Buyers List Storage.sol\":5835:5861  removeCoupon(address_, id) */\n      jump\t// in\n    tag_181:\n        /* \"contracts/Founding Citizens NFT Sale Privileged Buyers List Storage.sol\":5745:5873  if (addressList.couponLists[idOf(address_)].coupons[id].numberOfUses <= 0) {\r... */\n    tag_180:\n        /* \"contracts/Founding Citizens NFT Sale Privileged Buyers List Storage.sol\":5179:5880  function _reduceCouponUses(address address_, uint id, uint numberOfUses) internal {\r... */\n      pop\n      pop\n      pop\n      pop\n      pop\n      jump\t// out\n        /* \"#utility.yul\":7:146   */\n    tag_183:\n      0x00\n        /* \"#utility.yul\":91:97   */\n      dup2\n        /* \"#utility.yul\":78:98   */\n      calldataload\n        /* \"#utility.yul\":69:98   */\n      swap1\n      pop\n        /* \"#utility.yul\":107:140   */\n      tag_185\n        /* \"#utility.yul\":134:139   */\n      dup2\n        /* \"#utility.yul\":107:140   */\n      tag_186\n      jump\t// in\n    tag_185:\n        /* \"#utility.yul\":59:146   */\n      swap3\n      swap2\n      pop\n      pop\n      jump\t// out\n        /* \"#utility.yul\":152:291   */\n    tag_187:\n      0x00\n        /* \"#utility.yul\":236:242   */\n      dup2\n        /* \"#utility.yul\":223:243   */\n      calldataload\n        /* \"#utility.yul\":214:243   */\n      swap1\n      pop\n        /* \"#utility.yul\":252:285   */\n      tag_189\n        /* \"#utility.yul\":279:284   */\n      dup2\n        /* \"#utility.yul\":252:285   */\n      tag_190\n      jump\t// in\n    tag_189:\n        /* \"#utility.yul\":204:291   */\n      swap3\n      swap2\n      pop\n      pop\n      jump\t// out\n        /* \"#utility.yul\":297:559   */\n    tag_22:\n      0x00\n        /* \"#utility.yul\":405:407   */\n      0x20\n        /* \"#utility.yul\":393:402   */\n      dup3\n        /* \"#utility.yul\":384:391   */\n      dup5\n        /* \"#utility.yul\":380:403   */\n      sub\n        /* \"#utility.yul\":376:408   */\n      slt\n        /* \"#utility.yul\":373:375   */\n      iszero\n      tag_192\n      jumpi\n        /* \"#utility.yul\":421:422   */\n      0x00\n        /* \"#utility.yul\":418:419   */\n      dup1\n        /* \"#utility.yul\":411:423   */\n      revert\n        /* \"#utility.yul\":373:375   */\n    tag_192:\n        /* \"#utility.yul\":464:465   */\n      0x00\n        /* \"#utility.yul\":489:542   */\n      tag_193\n        /* \"#utility.yul\":534:541   */\n      dup5\n        /* \"#utility.yul\":525:531   */\n      dup3\n        /* \"#utility.yul\":514:523   */\n      dup6\n        /* \"#utility.yul\":510:532   */\n      add\n        /* \"#utility.yul\":489:542   */\n      tag_183\n      jump\t// in\n    tag_193:\n        /* \"#utility.yul\":479:542   */\n      swap2\n      pop\n        /* \"#utility.yul\":435:552   */\n      pop\n        /* \"#utility.yul\":363:559   */\n      swap3\n      swap2\n      pop\n      pop\n      jump\t// out\n        /* \"#utility.yul\":565:972   */\n    tag_26:\n      0x00\n      dup1\n        /* \"#utility.yul\":690:692   */\n      0x40\n        /* \"#utility.yul\":678:687   */\n      dup4\n        /* \"#utility.yul\":669:676   */\n      dup6\n        /* \"#utility.yul\":665:688   */\n      sub\n        /* \"#utility.yul\":661:693   */\n      slt\n        /* \"#utility.yul\":658:660   */\n      iszero\n      tag_195\n      jumpi\n        /* \"#utility.yul\":706:707   */\n      0x00\n        /* \"#utility.yul\":703:704   */\n      dup1\n        /* \"#utility.yul\":696:708   */\n      revert\n        /* \"#utility.yul\":658:660   */\n    tag_195:\n        /* \"#utility.yul\":749:750   */\n      0x00\n        /* \"#utility.yul\":774:827   */\n      tag_196\n        /* \"#utility.yul\":819:826   */\n      dup6\n        /* \"#utility.yul\":810:816   */\n      dup3\n        /* \"#utility.yul\":799:808   */\n      dup7\n        /* \"#utility.yul\":795:817   */\n      add\n        /* \"#utility.yul\":774:827   */\n      tag_183\n      jump\t// in\n    tag_196:\n        /* \"#utility.yul\":764:827   */\n      swap3\n      pop\n        /* \"#utility.yul\":720:837   */\n      pop\n        /* \"#utility.yul\":876:878   */\n      0x20\n        /* \"#utility.yul\":902:955   */\n      tag_197\n        /* \"#utility.yul\":947:954   */\n      dup6\n        /* \"#utility.yul\":938:944   */\n      dup3\n        /* \"#utility.yul\":927:936   */\n      dup7\n        /* \"#utility.yul\":923:945   */\n      add\n        /* \"#utility.yul\":902:955   */\n      tag_187\n      jump\t// in\n    tag_197:\n        /* \"#utility.yul\":892:955   */\n      swap2\n      pop\n        /* \"#utility.yul\":847:965   */\n      pop\n        /* \"#utility.yul\":648:972   */\n      swap3\n      pop\n      swap3\n      swap1\n      pop\n      jump\t// out\n        /* \"#utility.yul\":978:1530   */\n    tag_30:\n      0x00\n      dup1\n      0x00\n        /* \"#utility.yul\":1120:1122   */\n      0x60\n        /* \"#utility.yul\":1108:1117   */\n      dup5\n        /* \"#utility.yul\":1099:1106   */\n      dup7\n        /* \"#utility.yul\":1095:1118   */\n      sub\n        /* \"#utility.yul\":1091:1123   */\n      slt\n        /* \"#utility.yul\":1088:1090   */\n      iszero\n      tag_199\n      jumpi\n        /* \"#utility.yul\":1136:1137   */\n      0x00\n        /* \"#utility.yul\":1133:1134   */\n      dup1\n        /* \"#utility.yul\":1126:1138   */\n      revert\n        /* \"#utility.yul\":1088:1090   */\n    tag_199:\n        /* \"#utility.yul\":1179:1180   */\n      0x00\n        /* \"#utility.yul\":1204:1257   */\n      tag_200\n        /* \"#utility.yul\":1249:1256   */\n      dup7\n        /* \"#utility.yul\":1240:1246   */\n      dup3\n        /* \"#utility.yul\":1229:1238   */\n      dup8\n        /* \"#utility.yul\":1225:1247   */\n      add\n        /* \"#utility.yul\":1204:1257   */\n      tag_183\n      jump\t// in\n    tag_200:\n        /* \"#utility.yul\":1194:1257   */\n      swap4\n      pop\n        /* \"#utility.yul\":1150:1267   */\n      pop\n        /* \"#utility.yul\":1306:1308   */\n      0x20\n        /* \"#utility.yul\":1332:1385   */\n      tag_201\n        /* \"#utility.yul\":1377:1384   */\n      dup7\n        /* \"#utility.yul\":1368:1374   */\n      dup3\n        /* \"#utility.yul\":1357:1366   */\n      dup8\n        /* \"#utility.yul\":1353:1375   */\n      add\n        /* \"#utility.yul\":1332:1385   */\n      tag_187\n      jump\t// in\n    tag_201:\n        /* \"#utility.yul\":1322:1385   */\n      swap3\n      pop\n        /* \"#utility.yul\":1277:1395   */\n      pop\n        /* \"#utility.yul\":1434:1436   */\n      0x40\n        /* \"#utility.yul\":1460:1513   */\n      tag_202\n        /* \"#utility.yul\":1505:1512   */\n      dup7\n        /* \"#utility.yul\":1496:1502   */\n      dup3\n        /* \"#utility.yul\":1485:1494   */\n      dup8\n        /* \"#utility.yul\":1481:1503   */\n      add\n        /* \"#utility.yul\":1460:1513   */\n      tag_187\n      jump\t// in\n    tag_202:\n        /* \"#utility.yul\":1450:1513   */\n      swap2\n      pop\n        /* \"#utility.yul\":1405:1523   */\n      pop\n        /* \"#utility.yul\":1078:1530   */\n      swap3\n      pop\n      swap3\n      pop\n      swap3\n      jump\t// out\n        /* \"#utility.yul\":1536:1654   */\n    tag_203:\n        /* \"#utility.yul\":1623:1647   */\n      tag_205\n        /* \"#utility.yul\":1641:1646   */\n      dup2\n        /* \"#utility.yul\":1623:1647   */\n      tag_206\n      jump\t// in\n    tag_205:\n        /* \"#utility.yul\":1618:1621   */\n      dup3\n        /* \"#utility.yul\":1611:1648   */\n      mstore\n        /* \"#utility.yul\":1601:1654   */\n      pop\n      pop\n      jump\t// out\n        /* \"#utility.yul\":1660:1769   */\n    tag_207:\n        /* \"#utility.yul\":1741:1762   */\n      tag_209\n        /* \"#utility.yul\":1756:1761   */\n      dup2\n        /* \"#utility.yul\":1741:1762   */\n      tag_210\n      jump\t// in\n    tag_209:\n        /* \"#utility.yul\":1736:1739   */\n      dup3\n        /* \"#utility.yul\":1729:1763   */\n      mstore\n        /* \"#utility.yul\":1719:1769   */\n      pop\n      pop\n      jump\t// out\n        /* \"#utility.yul\":1775:2139   */\n    tag_211:\n      0x00\n        /* \"#utility.yul\":1891:1930   */\n      tag_213\n        /* \"#utility.yul\":1924:1929   */\n      dup3\n        /* \"#utility.yul\":1891:1930   */\n      tag_214\n      jump\t// in\n    tag_213:\n        /* \"#utility.yul\":1946:2017   */\n      tag_215\n        /* \"#utility.yul\":2010:2016   */\n      dup2\n        /* \"#utility.yul\":2005:2008   */\n      dup6\n        /* \"#utility.yul\":1946:2017   */\n      tag_216\n      jump\t// in\n    tag_215:\n        /* \"#utility.yul\":1939:2017   */\n      swap4\n      pop\n        /* \"#utility.yul\":2026:2078   */\n      tag_217\n        /* \"#utility.yul\":2071:2077   */\n      dup2\n        /* \"#utility.yul\":2066:2069   */\n      dup6\n        /* \"#utility.yul\":2059:2063   */\n      0x20\n        /* \"#utility.yul\":2052:2057   */\n      dup7\n        /* \"#utility.yul\":2048:2064   */\n      add\n        /* \"#utility.yul\":2026:2078   */\n      tag_218\n      jump\t// in\n    tag_217:\n        /* \"#utility.yul\":2103:2132   */\n      tag_219\n        /* \"#utility.yul\":2125:2131   */\n      dup2\n        /* \"#utility.yul\":2103:2132   */\n      tag_220\n      jump\t// in\n    tag_219:\n        /* \"#utility.yul\":2098:2101   */\n      dup5\n        /* \"#utility.yul\":2094:2133   */\n      add\n        /* \"#utility.yul\":2087:2133   */\n      swap2\n      pop\n        /* \"#utility.yul\":1867:2139   */\n      pop\n      swap3\n      swap2\n      pop\n      pop\n      jump\t// out\n        /* \"#utility.yul\":2145:2511   */\n    tag_221:\n      0x00\n        /* \"#utility.yul\":2308:2375   */\n      tag_223\n        /* \"#utility.yul\":2372:2374   */\n      0x26\n        /* \"#utility.yul\":2367:2370   */\n      dup4\n        /* \"#utility.yul\":2308:2375   */\n      tag_216\n      jump\t// in\n    tag_223:\n        /* \"#utility.yul\":2301:2375   */\n      swap2\n      pop\n        /* \"#utility.yul\":2384:2477   */\n      tag_224\n        /* \"#utility.yul\":2473:2476   */\n      dup3\n        /* \"#utility.yul\":2384:2477   */\n      tag_225\n      jump\t// in\n    tag_224:\n        /* \"#utility.yul\":2502:2504   */\n      0x40\n        /* \"#utility.yul\":2497:2500   */\n      dup3\n        /* \"#utility.yul\":2493:2505   */\n      add\n        /* \"#utility.yul\":2486:2505   */\n      swap1\n      pop\n        /* \"#utility.yul\":2291:2511   */\n      swap2\n      swap1\n      pop\n      jump\t// out\n        /* \"#utility.yul\":2517:2883   */\n    tag_226:\n      0x00\n        /* \"#utility.yul\":2680:2747   */\n      tag_228\n        /* \"#utility.yul\":2744:2746   */\n      0x20\n        /* \"#utility.yul\":2739:2742   */\n      dup4\n        /* \"#utility.yul\":2680:2747   */\n      tag_216\n      jump\t// in\n    tag_228:\n        /* \"#utility.yul\":2673:2747   */\n      swap2\n      pop\n        /* \"#utility.yul\":2756:2849   */\n      tag_229\n        /* \"#utility.yul\":2845:2848   */\n      dup3\n        /* \"#utility.yul\":2756:2849   */\n      tag_230\n      jump\t// in\n    tag_229:\n        /* \"#utility.yul\":2874:2876   */\n      0x20\n        /* \"#utility.yul\":2869:2872   */\n      dup3\n        /* \"#utility.yul\":2865:2877   */\n      add\n        /* \"#utility.yul\":2858:2877   */\n      swap1\n      pop\n        /* \"#utility.yul\":2663:2883   */\n      swap2\n      swap1\n      pop\n      jump\t// out\n        /* \"#utility.yul\":2889:3291   */\n    tag_231:\n      0x00\n        /* \"#utility.yul\":3070:3155   */\n      tag_233\n        /* \"#utility.yul\":3152:3154   */\n      0x4b\n        /* \"#utility.yul\":3147:3150   */\n      dup4\n        /* \"#utility.yul\":3070:3155   */\n      tag_234\n      jump\t// in\n    tag_233:\n        /* \"#utility.yul\":3063:3155   */\n      swap2\n      pop\n        /* \"#utility.yul\":3164:3257   */\n      tag_235\n        /* \"#utility.yul\":3253:3256   */\n      dup3\n        /* \"#utility.yul\":3164:3257   */\n      tag_236\n      jump\t// in\n    tag_235:\n        /* \"#utility.yul\":3282:3284   */\n      0x4b\n        /* \"#utility.yul\":3277:3280   */\n      dup3\n        /* \"#utility.yul\":3273:3285   */\n      add\n        /* \"#utility.yul\":3266:3285   */\n      swap1\n      pop\n        /* \"#utility.yul\":3053:3291   */\n      swap2\n      swap1\n      pop\n      jump\t// out\n        /* \"#utility.yul\":3297:3415   */\n    tag_237:\n        /* \"#utility.yul\":3384:3408   */\n      tag_239\n        /* \"#utility.yul\":3402:3407   */\n      dup2\n        /* \"#utility.yul\":3384:3408   */\n      tag_240\n      jump\t// in\n    tag_239:\n        /* \"#utility.yul\":3379:3382   */\n      dup3\n        /* \"#utility.yul\":3372:3409   */\n      mstore\n        /* \"#utility.yul\":3362:3415   */\n      pop\n      pop\n      jump\t// out\n        /* \"#utility.yul\":3421:3578   */\n    tag_241:\n        /* \"#utility.yul\":3526:3571   */\n      tag_243\n        /* \"#utility.yul\":3546:3570   */\n      tag_244\n        /* \"#utility.yul\":3564:3569   */\n      dup3\n        /* \"#utility.yul\":3546:3570   */\n      tag_240\n      jump\t// in\n    tag_244:\n        /* \"#utility.yul\":3526:3571   */\n      tag_245\n      jump\t// in\n    tag_243:\n        /* \"#utility.yul\":3521:3524   */\n      dup3\n        /* \"#utility.yul\":3514:3572   */\n      mstore\n        /* \"#utility.yul\":3504:3578   */\n      pop\n      pop\n      jump\t// out\n        /* \"#utility.yul\":3584:4106   */\n    tag_172:\n      0x00\n        /* \"#utility.yul\":3819:3967   */\n      tag_247\n        /* \"#utility.yul\":3963:3966   */\n      dup3\n        /* \"#utility.yul\":3819:3967   */\n      tag_231\n      jump\t// in\n    tag_247:\n        /* \"#utility.yul\":3812:3967   */\n      swap2\n      pop\n        /* \"#utility.yul\":3977:4052   */\n      tag_248\n        /* \"#utility.yul\":4048:4051   */\n      dup3\n        /* \"#utility.yul\":4039:4045   */\n      dup5\n        /* \"#utility.yul\":3977:4052   */\n      tag_241\n      jump\t// in\n    tag_248:\n        /* \"#utility.yul\":4077:4079   */\n      0x20\n        /* \"#utility.yul\":4072:4075   */\n      dup3\n        /* \"#utility.yul\":4068:4080   */\n      add\n        /* \"#utility.yul\":4061:4080   */\n      swap2\n      pop\n        /* \"#utility.yul\":4097:4100   */\n      dup2\n        /* \"#utility.yul\":4090:4100   */\n      swap1\n      pop\n        /* \"#utility.yul\":3801:4106   */\n      swap3\n      swap2\n      pop\n      pop\n      jump\t// out\n        /* \"#utility.yul\":4112:4334   */\n    tag_45:\n      0x00\n        /* \"#utility.yul\":4243:4245   */\n      0x20\n        /* \"#utility.yul\":4232:4241   */\n      dup3\n        /* \"#utility.yul\":4228:4246   */\n      add\n        /* \"#utility.yul\":4220:4246   */\n      swap1\n      pop\n        /* \"#utility.yul\":4256:4327   */\n      tag_250\n        /* \"#utility.yul\":4324:4325   */\n      0x00\n        /* \"#utility.yul\":4313:4322   */\n      dup4\n        /* \"#utility.yul\":4309:4326   */\n      add\n        /* \"#utility.yul\":4300:4306   */\n      dup5\n        /* \"#utility.yul\":4256:4327   */\n      tag_203\n      jump\t// in\n    tag_250:\n        /* \"#utility.yul\":4210:4334   */\n      swap3\n      swap2\n      pop\n      pop\n      jump\t// out\n        /* \"#utility.yul\":4340:4550   */\n    tag_50:\n      0x00\n        /* \"#utility.yul\":4465:4467   */\n      0x20\n        /* \"#utility.yul\":4454:4463   */\n      dup3\n        /* \"#utility.yul\":4450:4468   */\n      add\n        /* \"#utility.yul\":4442:4468   */\n      swap1\n      pop\n        /* \"#utility.yul\":4478:4543   */\n      tag_252\n        /* \"#utility.yul\":4540:4541   */\n      0x00\n        /* \"#utility.yul\":4529:4538   */\n      dup4\n        /* \"#utility.yul\":4525:4542   */\n      add\n        /* \"#utility.yul\":4516:4522   */\n      dup5\n        /* \"#utility.yul\":4478:4543   */\n      tag_207\n      jump\t// in\n    tag_252:\n        /* \"#utility.yul\":4432:4550   */\n      swap3\n      swap2\n      pop\n      pop\n      jump\t// out\n        /* \"#utility.yul\":4556:4869   */\n    tag_175:\n      0x00\n        /* \"#utility.yul\":4707:4709   */\n      0x20\n        /* \"#utility.yul\":4696:4705   */\n      dup3\n        /* \"#utility.yul\":4692:4710   */\n      add\n        /* \"#utility.yul\":4684:4710   */\n      swap1\n      pop\n        /* \"#utility.yul\":4756:4765   */\n      dup2\n        /* \"#utility.yul\":4750:4754   */\n      dup2\n        /* \"#utility.yul\":4746:4766   */\n      sub\n        /* \"#utility.yul\":4742:4743   */\n      0x00\n        /* \"#utility.yul\":4731:4740   */\n      dup4\n        /* \"#utility.yul\":4727:4744   */\n      add\n        /* \"#utility.yul\":4720:4767   */\n      mstore\n        /* \"#utility.yul\":4784:4862   */\n      tag_254\n        /* \"#utility.yul\":4857:4861   */\n      dup2\n        /* \"#utility.yul\":4848:4854   */\n      dup5\n        /* \"#utility.yul\":4784:4862   */\n      tag_211\n      jump\t// in\n    tag_254:\n        /* \"#utility.yul\":4776:4862   */\n      swap1\n      pop\n        /* \"#utility.yul\":4674:4869   */\n      swap3\n      swap2\n      pop\n      pop\n      jump\t// out\n        /* \"#utility.yul\":4875:5294   */\n    tag_162:\n      0x00\n        /* \"#utility.yul\":5079:5081   */\n      0x20\n        /* \"#utility.yul\":5068:5077   */\n      dup3\n        /* \"#utility.yul\":5064:5082   */\n      add\n        /* \"#utility.yul\":5056:5082   */\n      swap1\n      pop\n        /* \"#utility.yul\":5128:5137   */\n      dup2\n        /* \"#utility.yul\":5122:5126   */\n      dup2\n        /* \"#utility.yul\":5118:5138   */\n      sub\n        /* \"#utility.yul\":5114:5115   */\n      0x00\n        /* \"#utility.yul\":5103:5112   */\n      dup4\n        /* \"#utility.yul\":5099:5116   */\n      add\n        /* \"#utility.yul\":5092:5139   */\n      mstore\n        /* \"#utility.yul\":5156:5287   */\n      tag_256\n        /* \"#utility.yul\":5282:5286   */\n      dup2\n        /* \"#utility.yul\":5156:5287   */\n      tag_221\n      jump\t// in\n    tag_256:\n        /* \"#utility.yul\":5148:5287   */\n      swap1\n      pop\n        /* \"#utility.yul\":5046:5294   */\n      swap2\n      swap1\n      pop\n      jump\t// out\n        /* \"#utility.yul\":5300:5719   */\n    tag_77:\n      0x00\n        /* \"#utility.yul\":5504:5506   */\n      0x20\n        /* \"#utility.yul\":5493:5502   */\n      dup3\n        /* \"#utility.yul\":5489:5507   */\n      add\n        /* \"#utility.yul\":5481:5507   */\n      swap1\n      pop\n        /* \"#utility.yul\":5553:5562   */\n      dup2\n        /* \"#utility.yul\":5547:5551   */\n      dup2\n        /* \"#utility.yul\":5543:5563   */\n      sub\n        /* \"#utility.yul\":5539:5540   */\n      0x00\n        /* \"#utility.yul\":5528:5537   */\n      dup4\n        /* \"#utility.yul\":5524:5541   */\n      add\n        /* \"#utility.yul\":5517:5564   */\n      mstore\n        /* \"#utility.yul\":5581:5712   */\n      tag_258\n        /* \"#utility.yul\":5707:5711   */\n      dup2\n        /* \"#utility.yul\":5581:5712   */\n      tag_226\n      jump\t// in\n    tag_258:\n        /* \"#utility.yul\":5573:5712   */\n      swap1\n      pop\n        /* \"#utility.yul\":5471:5719   */\n      swap2\n      swap1\n      pop\n      jump\t// out\n        /* \"#utility.yul\":5725:5947   */\n    tag_41:\n      0x00\n        /* \"#utility.yul\":5856:5858   */\n      0x20\n        /* \"#utility.yul\":5845:5854   */\n      dup3\n        /* \"#utility.yul\":5841:5859   */\n      add\n        /* \"#utility.yul\":5833:5859   */\n      swap1\n      pop\n        /* \"#utility.yul\":5869:5940   */\n      tag_260\n        /* \"#utility.yul\":5937:5938   */\n      0x00\n        /* \"#utility.yul\":5926:5935   */\n      dup4\n        /* \"#utility.yul\":5922:5939   */\n      add\n        /* \"#utility.yul\":5913:5919   */\n      dup5\n        /* \"#utility.yul\":5869:5940   */\n      tag_237\n      jump\t// in\n    tag_260:\n        /* \"#utility.yul\":5823:5947   */\n      swap3\n      swap2\n      pop\n      pop\n      jump\t// out\n        /* \"#utility.yul\":5953:6052   */\n    tag_214:\n      0x00\n        /* \"#utility.yul\":6039:6044   */\n      dup2\n        /* \"#utility.yul\":6033:6045   */\n      mload\n        /* \"#utility.yul\":6023:6045   */\n      swap1\n      pop\n        /* \"#utility.yul\":6012:6052   */\n      swap2\n      swap1\n      pop\n      jump\t// out\n        /* \"#utility.yul\":6058:6227   */\n    tag_216:\n      0x00\n        /* \"#utility.yul\":6176:6182   */\n      dup3\n        /* \"#utility.yul\":6171:6174   */\n      dup3\n        /* \"#utility.yul\":6164:6183   */\n      mstore\n        /* \"#utility.yul\":6216:6220   */\n      0x20\n        /* \"#utility.yul\":6211:6214   */\n      dup3\n        /* \"#utility.yul\":6207:6221   */\n      add\n        /* \"#utility.yul\":6192:6221   */\n      swap1\n      pop\n        /* \"#utility.yul\":6154:6227   */\n      swap3\n      swap2\n      pop\n      pop\n      jump\t// out\n        /* \"#utility.yul\":6233:6381   */\n    tag_234:\n      0x00\n        /* \"#utility.yul\":6372:6375   */\n      dup2\n        /* \"#utility.yul\":6357:6375   */\n      swap1\n      pop\n        /* \"#utility.yul\":6347:6381   */\n      swap3\n      swap2\n      pop\n      pop\n      jump\t// out\n        /* \"#utility.yul\":6387:6578   */\n    tag_178:\n      0x00\n        /* \"#utility.yul\":6447:6467   */\n      tag_265\n        /* \"#utility.yul\":6465:6466   */\n      dup3\n        /* \"#utility.yul\":6447:6467   */\n      tag_240\n      jump\t// in\n    tag_265:\n        /* \"#utility.yul\":6442:6467   */\n      swap2\n      pop\n        /* \"#utility.yul\":6481:6501   */\n      tag_266\n        /* \"#utility.yul\":6499:6500   */\n      dup4\n        /* \"#utility.yul\":6481:6501   */\n      tag_240\n      jump\t// in\n    tag_266:\n        /* \"#utility.yul\":6476:6501   */\n      swap3\n      pop\n        /* \"#utility.yul\":6520:6521   */\n      dup3\n        /* \"#utility.yul\":6517:6518   */\n      dup3\n        /* \"#utility.yul\":6514:6522   */\n      lt\n        /* \"#utility.yul\":6511:6513   */\n      iszero\n      tag_267\n      jumpi\n        /* \"#utility.yul\":6525:6543   */\n      tag_268\n      tag_269\n      jump\t// in\n    tag_268:\n        /* \"#utility.yul\":6511:6513   */\n    tag_267:\n        /* \"#utility.yul\":6570:6571   */\n      dup3\n        /* \"#utility.yul\":6567:6568   */\n      dup3\n        /* \"#utility.yul\":6563:6572   */\n      sub\n        /* \"#utility.yul\":6555:6572   */\n      swap1\n      pop\n        /* \"#utility.yul\":6432:6578   */\n      swap3\n      swap2\n      pop\n      pop\n      jump\t// out\n        /* \"#utility.yul\":6584:6680   */\n    tag_206:\n      0x00\n        /* \"#utility.yul\":6650:6674   */\n      tag_271\n        /* \"#utility.yul\":6668:6673   */\n      dup3\n        /* \"#utility.yul\":6650:6674   */\n      tag_272\n      jump\t// in\n    tag_271:\n        /* \"#utility.yul\":6639:6674   */\n      swap1\n      pop\n        /* \"#utility.yul\":6629:6680   */\n      swap2\n      swap1\n      pop\n      jump\t// out\n        /* \"#utility.yul\":6686:6776   */\n    tag_210:\n      0x00\n        /* \"#utility.yul\":6763:6768   */\n      dup2\n        /* \"#utility.yul\":6756:6769   */\n      iszero\n        /* \"#utility.yul\":6749:6770   */\n      iszero\n        /* \"#utility.yul\":6738:6770   */\n      swap1\n      pop\n        /* \"#utility.yul\":6728:6776   */\n      swap2\n      swap1\n      pop\n      jump\t// out\n        /* \"#utility.yul\":6782:6908   */\n    tag_272:\n      0x00\n        /* \"#utility.yul\":6859:6901   */\n      0xffffffffffffffffffffffffffffffffffffffff\n        /* \"#utility.yul\":6852:6857   */\n      dup3\n        /* \"#utility.yul\":6848:6902   */\n      and\n        /* \"#utility.yul\":6837:6902   */\n      swap1\n      pop\n        /* \"#utility.yul\":6827:6908   */\n      swap2\n      swap1\n      pop\n      jump\t// out\n        /* \"#utility.yul\":6914:6991   */\n    tag_240:\n      0x00\n        /* \"#utility.yul\":6980:6985   */\n      dup2\n        /* \"#utility.yul\":6969:6985   */\n      swap1\n      pop\n        /* \"#utility.yul\":6959:6991   */\n      swap2\n      swap1\n      pop\n      jump\t// out\n        /* \"#utility.yul\":6997:7304   */\n    tag_218:\n        /* \"#utility.yul\":7065:7066   */\n      0x00\n        /* \"#utility.yul\":7075:7188   */\n    tag_277:\n        /* \"#utility.yul\":7089:7095   */\n      dup4\n        /* \"#utility.yul\":7086:7087   */\n      dup2\n        /* \"#utility.yul\":7083:7096   */\n      lt\n        /* \"#utility.yul\":7075:7188   */\n      iszero\n      tag_279\n      jumpi\n        /* \"#utility.yul\":7174:7175   */\n      dup1\n        /* \"#utility.yul\":7169:7172   */\n      dup3\n        /* \"#utility.yul\":7165:7176   */\n      add\n        /* \"#utility.yul\":7159:7177   */\n      mload\n        /* \"#utility.yul\":7155:7156   */\n      dup2\n        /* \"#utility.yul\":7150:7153   */\n      dup5\n        /* \"#utility.yul\":7146:7157   */\n      add\n        /* \"#utility.yul\":7139:7178   */\n      mstore\n        /* \"#utility.yul\":7111:7113   */\n      0x20\n        /* \"#utility.yul\":7108:7109   */\n      dup2\n        /* \"#utility.yul\":7104:7114   */\n      add\n        /* \"#utility.yul\":7099:7114   */\n      swap1\n      pop\n        /* \"#utility.yul\":7075:7188   */\n      jump(tag_277)\n    tag_279:\n        /* \"#utility.yul\":7206:7212   */\n      dup4\n        /* \"#utility.yul\":7203:7204   */\n      dup2\n        /* \"#utility.yul\":7200:7213   */\n      gt\n        /* \"#utility.yul\":7197:7199   */\n      iszero\n      tag_280\n      jumpi\n        /* \"#utility.yul\":7286:7287   */\n      0x00\n        /* \"#utility.yul\":7277:7283   */\n      dup5\n        /* \"#utility.yul\":7272:7275   */\n      dup5\n        /* \"#utility.yul\":7268:7284   */\n      add\n        /* \"#utility.yul\":7261:7288   */\n      mstore\n        /* \"#utility.yul\":7197:7199   */\n    tag_280:\n        /* \"#utility.yul\":7046:7304   */\n      pop\n      pop\n      pop\n      pop\n      jump\t// out\n        /* \"#utility.yul\":7310:7481   */\n    tag_111:\n      0x00\n        /* \"#utility.yul\":7372:7396   */\n      tag_282\n        /* \"#utility.yul\":7390:7395   */\n      dup3\n        /* \"#utility.yul\":7372:7396   */\n      tag_240\n      jump\t// in\n    tag_282:\n        /* \"#utility.yul\":7363:7396   */\n      swap2\n      pop\n        /* \"#utility.yul\":7418:7422   */\n      0x00\n        /* \"#utility.yul\":7411:7416   */\n      dup3\n        /* \"#utility.yul\":7408:7423   */\n      eq\n        /* \"#utility.yul\":7405:7407   */\n      iszero\n      tag_283\n      jumpi\n        /* \"#utility.yul\":7426:7444   */\n      tag_284\n      tag_269\n      jump\t// in\n    tag_284:\n        /* \"#utility.yul\":7405:7407   */\n    tag_283:\n        /* \"#utility.yul\":7473:7474   */\n      0x01\n        /* \"#utility.yul\":7466:7471   */\n      dup3\n        /* \"#utility.yul\":7462:7475   */\n      sub\n        /* \"#utility.yul\":7455:7475   */\n      swap1\n      pop\n        /* \"#utility.yul\":7353:7481   */\n      swap2\n      swap1\n      pop\n      jump\t// out\n        /* \"#utility.yul\":7487:7720   */\n    tag_80:\n      0x00\n        /* \"#utility.yul\":7549:7573   */\n      tag_286\n        /* \"#utility.yul\":7567:7572   */\n      dup3\n        /* \"#utility.yul\":7549:7573   */\n      tag_240\n      jump\t// in\n    tag_286:\n        /* \"#utility.yul\":7540:7573   */\n      swap2\n      pop\n        /* \"#utility.yul\":7595:7661   */\n      0xffffffffffffffffffffffffffffffffffffffffffffffffffffffffffffffff\n        /* \"#utility.yul\":7588:7593   */\n      dup3\n        /* \"#utility.yul\":7585:7662   */\n      eq\n        /* \"#utility.yul\":7582:7584   */\n      iszero\n      tag_287\n      jumpi\n        /* \"#utility.yul\":7665:7683   */\n      tag_288\n      tag_269\n      jump\t// in\n    tag_288:\n        /* \"#utility.yul\":7582:7584   */\n    tag_287:\n        /* \"#utility.yul\":7712:7713   */\n      0x01\n        /* \"#utility.yul\":7705:7710   */\n      dup3\n        /* \"#utility.yul\":7701:7714   */\n      add\n        /* \"#utility.yul\":7694:7714   */\n      swap1\n      pop\n        /* \"#utility.yul\":7530:7720   */\n      swap2\n      swap1\n      pop\n      jump\t// out\n        /* \"#utility.yul\":7726:7805   */\n    tag_245:\n      0x00\n        /* \"#utility.yul\":7794:7799   */\n      dup2\n        /* \"#utility.yul\":7783:7799   */\n      swap1\n      pop\n        /* \"#utility.yul\":7773:7805   */\n      swap2\n      swap1\n      pop\n      jump\t// out\n        /* \"#utility.yul\":7811:7991   */\n    tag_269:\n        /* \"#utility.yul\":7859:7936   */\n      0x4e487b7100000000000000000000000000000000000000000000000000000000\n        /* \"#utility.yul\":7856:7857   */\n      0x00\n        /* \"#utility.yul\":7849:7937   */\n      mstore\n        /* \"#utility.yul\":7956:7960   */\n      0x11\n        /* \"#utility.yul\":7953:7954   */\n      0x04\n        /* \"#utility.yul\":7946:7961   */\n      mstore\n        /* \"#utility.yul\":7980:7984   */\n      0x24\n        /* \"#utility.yul\":7977:7978   */\n      0x00\n        /* \"#utility.yul\":7970:7985   */\n      revert\n        /* \"#utility.yul\":7997:8099   */\n    tag_220:\n      0x00\n        /* \"#utility.yul\":8089:8091   */\n      0x1f\n        /* \"#utility.yul\":8085:8092   */\n      not\n        /* \"#utility.yul\":8080:8082   */\n      0x1f\n        /* \"#utility.yul\":8073:8078   */\n      dup4\n        /* \"#utility.yul\":8069:8083   */\n      add\n        /* \"#utility.yul\":8065:8093   */\n      and\n        /* \"#utility.yul\":8055:8093   */\n      swap1\n      pop\n        /* \"#utility.yul\":8045:8099   */\n      swap2\n      swap1\n      pop\n      jump\t// out\n        /* \"#utility.yul\":8105:8330   */\n    tag_225:\n        /* \"#utility.yul\":8245:8279   */\n      0x4f776e61626c653a206e6577206f776e657220697320746865207a65726f2061\n        /* \"#utility.yul\":8241:8242   */\n      0x00\n        /* \"#utility.yul\":8233:8239   */\n      dup3\n        /* \"#utility.yul\":8229:8243   */\n      add\n        /* \"#utility.yul\":8222:8280   */\n      mstore\n        /* \"#utility.yul\":8314:8322   */\n      0x6464726573730000000000000000000000000000000000000000000000000000\n        /* \"#utility.yul\":8309:8311   */\n      0x20\n        /* \"#utility.yul\":8301:8307   */\n      dup3\n        /* \"#utility.yul\":8297:8312   */\n      add\n        /* \"#utility.yul\":8290:8323   */\n      mstore\n        /* \"#utility.yul\":8211:8330   */\n      pop\n      jump\t// out\n        /* \"#utility.yul\":8336:8518   */\n    tag_230:\n        /* \"#utility.yul\":8476:8510   */\n      0x4f776e61626c653a2063616c6c6572206973206e6f7420746865206f776e6572\n        /* \"#utility.yul\":8472:8473   */\n      0x00\n        /* \"#utility.yul\":8464:8470   */\n      dup3\n        /* \"#utility.yul\":8460:8474   */\n      add\n        /* \"#utility.yul\":8453:8511   */\n      mstore\n        /* \"#utility.yul\":8442:8518   */\n      pop\n      jump\t// out\n        /* \"#utility.yul\":8524:8823   */\n    tag_236:\n        /* \"#utility.yul\":8664:8698   */\n      0x43616e6e6f742072656475636520636f75706f6e2075736573206279206d6f72\n        /* \"#utility.yul\":8660:8661   */\n      0x00\n        /* \"#utility.yul\":8652:8658   */\n      dup3\n        /* \"#utility.yul\":8648:8662   */\n      add\n        /* \"#utility.yul\":8641:8699   */\n      mstore\n        /* \"#utility.yul\":8733:8767   */\n      0x65207468616e20746865206e756d626572206f66207573657320666f72207468\n        /* \"#utility.yul\":8728:8730   */\n      0x20\n        /* \"#utility.yul\":8720:8726   */\n      dup3\n        /* \"#utility.yul\":8716:8731   */\n      add\n        /* \"#utility.yul\":8709:8768   */\n      mstore\n        /* \"#utility.yul\":8802:8815   */\n      0x697320636f75706f6e3a20000000000000000000000000000000000000000000\n        /* \"#utility.yul\":8797:8799   */\n      0x40\n        /* \"#utility.yul\":8789:8795   */\n      dup3\n        /* \"#utility.yul\":8785:8800   */\n      add\n        /* \"#utility.yul\":8778:8816   */\n      mstore\n        /* \"#utility.yul\":8630:8823   */\n      pop\n      jump\t// out\n        /* \"#utility.yul\":8829:8951   */\n    tag_186:\n        /* \"#utility.yul\":8902:8926   */\n      tag_296\n        /* \"#utility.yul\":8920:8925   */\n      dup2\n        /* \"#utility.yul\":8902:8926   */\n      tag_206\n      jump\t// in\n    tag_296:\n        /* \"#utility.yul\":8895:8900   */\n      dup2\n        /* \"#utility.yul\":8892:8927   */\n      eq\n        /* \"#utility.yul\":8882:8884   */\n      tag_297\n      jumpi\n        /* \"#utility.yul\":8941:8942   */\n      0x00\n        /* \"#utility.yul\":8938:8939   */\n      dup1\n        /* \"#utility.yul\":8931:8943   */\n      revert\n        /* \"#utility.yul\":8882:8884   */\n    tag_297:\n        /* \"#utility.yul\":8872:8951   */\n      pop\n      jump\t// out\n        /* \"#utility.yul\":8957:9079   */\n    tag_190:\n        /* \"#utility.yul\":9030:9054   */\n      tag_299\n        /* \"#utility.yul\":9048:9053   */\n      dup2\n        /* \"#utility.yul\":9030:9054   */\n      tag_240\n      jump\t// in\n    tag_299:\n        /* \"#utility.yul\":9023:9028   */\n      dup2\n        /* \"#utility.yul\":9020:9055   */\n      eq\n        /* \"#utility.yul\":9010:9012   */\n      tag_300\n      jumpi\n        /* \"#utility.yul\":9069:9070   */\n      0x00\n        /* \"#utility.yul\":9066:9067   */\n      dup1\n        /* \"#utility.yul\":9059:9071   */\n      revert\n        /* \"#utility.yul\":9010:9012   */\n    tag_300:\n        /* \"#utility.yul\":9000:9079   */\n      pop\n      jump\t// out\n\n    auxdata: 0xa2646970667358221220fec02e55040e8ec76e3efb01e6c2d1de576fb30d6604ae8d4883010cd6c3c3df64736f6c63430008010033\n}\n",
				"bytecode": {
					"linkReferences": {},
					"object": "608060405234801561001057600080fd5b5061002d61002261003260201b60201c565b61003a60201b60201c565b6100fe565b600033905090565b60008060009054906101000a900473ffffffffffffffffffffffffffffffffffffffff169050816000806101000a81548173ffffffffffffffffffffffffffffffffffffffff021916908373ffffffffffffffffffffffffffffffffffffffff1602179055508173ffffffffffffffffffffffffffffffffffffffff168173ffffffffffffffffffffffffffffffffffffffff167f8be0079c531659141344cd1fd0a4f28419497f9722a3daafe3b4186f6b6457e060405160405180910390a35050565b61150b8061010d6000396000f3fe608060405234801561001057600080fd5b50600436106100ea5760003560e01c8063a50252221161008c578063d94fe83211610066578063d94fe83214610221578063e5bf7ffc14610251578063f2fde38b1461026d578063f76da2a814610289576100ea565b8063a5025222146101b7578063c18ab7a2146101e7578063c1eb6dfd14610203576100ea565b80634ba79dfe116100c85780634ba79dfe14610143578063715018a61461015f578063838324d9146101695780638da5cb5b14610199576100ea565b806338eada1c146100ef5780633c25c06b1461010b5780633edfcd2c14610127575b600080fd5b61010960048036038101906101049190610fb4565b6102b9565b005b61012560048036038101906101209190610fdd565b6103f8565b005b610141600480360381019061013c9190611019565b610484565b005b61015d60048036038101906101589190610fb4565b6105d7565b005b610167610860565b005b610183600480360381019061017e9190610fb4565b6108e8565b604051610190919061120c565b60405180910390f35b6101a1610913565b6040516101ae9190611174565b60405180910390f35b6101d160048036038101906101cc9190610fb4565b61093c565b6040516101de919061118f565b60405180910390f35b61020160048036038101906101fc9190611019565b610950565b005b61020b610a45565b604051610218919061120c565b60405180910390f35b61023b60048036038101906102369190610fb4565b610a51565b604051610248919061120c565b60405180910390f35b61026b60048036038101906102669190610fdd565b610a9d565b005b61028760048036038101906102829190610fb4565b610c24565b005b6102a3600480360381019061029e9190610fb4565b610d1c565b6040516102b0919061118f565b60405180910390f35b6102c1610d49565b73ffffffffffffffffffffffffffffffffffffffff166102df610913565b73ffffffffffffffffffffffffffffffffffffffff1614610335576040517f08c379a000000000000000000000000000000000000000000000000000000000815260040161032c906111ec565b60405180910390fd5b6001600001600081548092919061034b90611327565b919050555080600180016000600160000154815260200190815260200160002060006101000a81548173ffffffffffffffffffffffffffffffffffffffff021916908373ffffffffffffffffffffffffffffffffffffffff160217905550600160000154600160020160008373ffffffffffffffffffffffffffffffffffffffff1673ffffffffffffffffffffffffffffffffffffffff1681526020019081526020016000208190555050565b610400610d49565b73ffffffffffffffffffffffffffffffffffffffff1661041e610913565b73ffffffffffffffffffffffffffffffffffffffff1614610474576040517f08c379a000000000000000000000000000000000000000000000000000000000815260040161046b906111ec565b60405180910390fd5b61048082826001610950565b5050565b61048c610d49565b73ffffffffffffffffffffffffffffffffffffffff166104aa610913565b73ffffffffffffffffffffffffffffffffffffffff1614610500576040517f08c379a00000000000000000000000000000000000000000000000000000000081526004016104f7906111ec565b60405180910390fd5b6105098361093c565b61051757610516836102b9565b5b6001600301600061052785610a51565b8152602001908152602001600020600001600081548092919061054990611327565b9190505550816001600301600061055f86610a51565b8152602001908152602001600020600101600061057b866108e8565b81526020019081526020016000206000018190555080600160030160006105a186610a51565b815260200190815260200160002060010160006105bd866108e8565b815260200190815260200160002060010181905550505050565b6105df610d49565b73ffffffffffffffffffffffffffffffffffffffff166105fd610913565b73ffffffffffffffffffffffffffffffffffffffff1614610653576040517f08c379a000000000000000000000000000000000000000000000000000000000815260040161064a906111ec565b60405180910390fd5b600061065e82610a51565b90506000829050600060016000015490506000600180016000600160000154815260200190815260200160002060009054906101000a900473ffffffffffffffffffffffffffffffffffffffff16905060018001600083815260200190815260200160002060009054906101000a900473ffffffffffffffffffffffffffffffffffffffff1660018001600086815260200190815260200160002060006101000a81548173ffffffffffffffffffffffffffffffffffffffff021916908373ffffffffffffffffffffffffffffffffffffffff16021790555060018001600083815260200190815260200160002060006101000a81549073ffffffffffffffffffffffffffffffffffffffff0219169055600160020160008273ffffffffffffffffffffffffffffffffffffffff1673ffffffffffffffffffffffffffffffffffffffff16815260200190815260200160002054600160020160008573ffffffffffffffffffffffffffffffffffffffff1673ffffffffffffffffffffffffffffffffffffffff16815260200190815260200160002081905550600160020160008273ffffffffffffffffffffffffffffffffffffffff1673ffffffffffffffffffffffffffffffffffffffff1681526020019081526020016000206000905560016000016000815480929190610854906112fd565b91905055505050505050565b610868610d49565b73ffffffffffffffffffffffffffffffffffffffff16610886610913565b73ffffffffffffffffffffffffffffffffffffffff16146108dc576040517f08c379a00000000000000000000000000000000000000000000000000000000081526004016108d3906111ec565b60405180910390fd5b6108e66000610d51565b565b6000600160030160006108fa84610a51565b8152602001908152602001600020600001549050919050565b60008060009054906101000a900473ffffffffffffffffffffffffffffffffffffffff16905090565b60008061094883610a51565b149050919050565b610958610d49565b73ffffffffffffffffffffffffffffffffffffffff16610976610913565b73ffffffffffffffffffffffffffffffffffffffff16146109cc576040517f08c379a00000000000000000000000000000000000000000000000000000000081526004016109c3906111ec565b60405180910390fd5b60005b6109d8846108e8565b811015610a3f5782600160030160006109f087610a51565b81526020019081526020016000206001016000838152602001908152602001600020600001541415610a2c57610a27848284610e15565b610a3f565b8080610a3790611327565b9150506109cf565b50505050565b60018060000154905081565b6000600160020160008373ffffffffffffffffffffffffffffffffffffffff1673ffffffffffffffffffffffffffffffffffffffff168152602001908152602001600020549050919050565b610aa5610d49565b73ffffffffffffffffffffffffffffffffffffffff16610ac3610913565b73ffffffffffffffffffffffffffffffffffffffff1614610b19576040517f08c379a0000000000000000000000000000000000000000000000000000000008152600401610b10906111ec565b60405180910390fd5b60016003016000610b2984610a51565b81526020019081526020016000206001016000610b45846108e8565b815260200190815260200160002060016003016000610b6385610a51565b81526020019081526020016000206001016000838152602001908152602001600020600082015481600001556001820154816001015590505060016003016000610bac84610a51565b81526020019081526020016000206001016000610bc8846108e8565b81526020019081526020016000206000808201600090556001820160009055505060016003016000610bf984610a51565b81526020019081526020016000206000016000815480929190610c1b906112fd565b91905055505050565b610c2c610d49565b73ffffffffffffffffffffffffffffffffffffffff16610c4a610913565b73ffffffffffffffffffffffffffffffffffffffff1614610ca0576040517f08c379a0000000000000000000000000000000000000000000000000000000008152600401610c97906111ec565b60405180910390fd5b600073ffffffffffffffffffffffffffffffffffffffff168173ffffffffffffffffffffffffffffffffffffffff161415610d10576040517f08c379a0000000000000000000000000000000000000000000000000000000008152600401610d07906111cc565b60405180910390fd5b610d1981610d51565b50565b60008060016003016000610d2f85610a51565b815260200190815260200160002060000154149050919050565b600033905090565b60008060009054906101000a900473ffffffffffffffffffffffffffffffffffffffff169050816000806101000a81548173ffffffffffffffffffffffffffffffffffffffff021916908373ffffffffffffffffffffffffffffffffffffffff1602179055508173ffffffffffffffffffffffffffffffffffffffff168173ffffffffffffffffffffffffffffffffffffffff167f8be0079c531659141344cd1fd0a4f28419497f9722a3daafe3b4186f6b6457e060405160405180910390a35050565b60008160016003016000610e2887610a51565b815260200190815260200160002060010160008581526020019081526020016000206001015410159050600060016003016000610e6487610a51565b8152602001908152602001600020600101600085815260200190815260200160002060010154604051602001610e9a919061114e565b6040516020818303038152906040529050818190610eee576040517f08c379a0000000000000000000000000000000000000000000000000000000008152600401610ee591906111aa565b60405180910390fd5b508260016003016000610f0088610a51565b815260200190815260200160002060010160008681526020019081526020016000206001016000828254610f34919061124e565b92505081905550600060016003016000610f4d88610a51565b815260200190815260200160002060010160008681526020019081526020016000206001015411610f8357610f828585610a9d565b5b5050505050565b600081359050610f99816114a7565b92915050565b600081359050610fae816114be565b92915050565b600060208284031215610fc657600080fd5b6000610fd484828501610f8a565b91505092915050565b60008060408385031215610ff057600080fd5b6000610ffe85828601610f8a565b925050602061100f85828601610f9f565b9150509250929050565b60008060006060848603121561102e57600080fd5b600061103c86828701610f8a565b935050602061104d86828701610f9f565b925050604061105e86828701610f9f565b9150509250925092565b61107181611282565b82525050565b61108081611294565b82525050565b600061109182611227565b61109b8185611232565b93506110ab8185602086016112ca565b6110b4816113a9565b840191505092915050565b60006110cc602683611232565b91506110d7826113ba565b604082019050919050565b60006110ef602083611232565b91506110fa82611409565b602082019050919050565b6000611112604b83611243565b915061111d82611432565b604b82019050919050565b611131816112c0565b82525050565b611148611143826112c0565b611370565b82525050565b600061115982611105565b91506111658284611137565b60208201915081905092915050565b60006020820190506111896000830184611068565b92915050565b60006020820190506111a46000830184611077565b92915050565b600060208201905081810360008301526111c48184611086565b905092915050565b600060208201905081810360008301526111e5816110bf565b9050919050565b60006020820190508181036000830152611205816110e2565b9050919050565b60006020820190506112216000830184611128565b92915050565b600081519050919050565b600082825260208201905092915050565b600081905092915050565b6000611259826112c0565b9150611264836112c0565b9250828210156112775761127661137a565b5b828203905092915050565b600061128d826112a0565b9050919050565b60008115159050919050565b600073ffffffffffffffffffffffffffffffffffffffff82169050919050565b6000819050919050565b60005b838110156112e85780820151818401526020810190506112cd565b838111156112f7576000848401525b50505050565b6000611308826112c0565b9150600082141561131c5761131b61137a565b5b600182039050919050565b6000611332826112c0565b91507fffffffffffffffffffffffffffffffffffffffffffffffffffffffffffffffff8214156113655761136461137a565b5b600182019050919050565b6000819050919050565b7f4e487b7100000000000000000000000000000000000000000000000000000000600052601160045260246000fd5b6000601f19601f8301169050919050565b7f4f776e61626c653a206e6577206f776e657220697320746865207a65726f206160008201527f6464726573730000000000000000000000000000000000000000000000000000602082015250565b7f4f776e61626c653a2063616c6c6572206973206e6f7420746865206f776e6572600082015250565b7f43616e6e6f742072656475636520636f75706f6e2075736573206279206d6f7260008201527f65207468616e20746865206e756d626572206f66207573657320666f7220746860208201527f697320636f75706f6e3a20000000000000000000000000000000000000000000604082015250565b6114b081611282565b81146114bb57600080fd5b50565b6114c7816112c0565b81146114d257600080fd5b5056fea2646970667358221220fec02e55040e8ec76e3efb01e6c2d1de576fb30d6604ae8d4883010cd6c3c3df64736f6c63430008010033",
					"opcodes": "PUSH1 0x80 PUSH1 0x40 MSTORE CALLVALUE DUP1 ISZERO PUSH2 0x10 JUMPI PUSH1 0x0 DUP1 REVERT JUMPDEST POP PUSH2 0x2D PUSH2 0x22 PUSH2 0x32 PUSH1 0x20 SHL PUSH1 0x20 SHR JUMP JUMPDEST PUSH2 0x3A PUSH1 0x20 SHL PUSH1 0x20 SHR JUMP JUMPDEST PUSH2 0xFE JUMP JUMPDEST PUSH1 0x0 CALLER SWAP1 POP SWAP1 JUMP JUMPDEST PUSH1 0x0 DUP1 PUSH1 0x0 SWAP1 SLOAD SWAP1 PUSH2 0x100 EXP SWAP1 DIV PUSH20 0xFFFFFFFFFFFFFFFFFFFFFFFFFFFFFFFFFFFFFFFF AND SWAP1 POP DUP2 PUSH1 0x0 DUP1 PUSH2 0x100 EXP DUP2 SLOAD DUP2 PUSH20 0xFFFFFFFFFFFFFFFFFFFFFFFFFFFFFFFFFFFFFFFF MUL NOT AND SWAP1 DUP4 PUSH20 0xFFFFFFFFFFFFFFFFFFFFFFFFFFFFFFFFFFFFFFFF AND MUL OR SWAP1 SSTORE POP DUP2 PUSH20 0xFFFFFFFFFFFFFFFFFFFFFFFFFFFFFFFFFFFFFFFF AND DUP2 PUSH20 0xFFFFFFFFFFFFFFFFFFFFFFFFFFFFFFFFFFFFFFFF AND PUSH32 0x8BE0079C531659141344CD1FD0A4F28419497F9722A3DAAFE3B4186F6B6457E0 PUSH1 0x40 MLOAD PUSH1 0x40 MLOAD DUP1 SWAP2 SUB SWAP1 LOG3 POP POP JUMP JUMPDEST PUSH2 0x150B DUP1 PUSH2 0x10D PUSH1 0x0 CODECOPY PUSH1 0x0 RETURN INVALID PUSH1 0x80 PUSH1 0x40 MSTORE CALLVALUE DUP1 ISZERO PUSH2 0x10 JUMPI PUSH1 0x0 DUP1 REVERT JUMPDEST POP PUSH1 0x4 CALLDATASIZE LT PUSH2 0xEA JUMPI PUSH1 0x0 CALLDATALOAD PUSH1 0xE0 SHR DUP1 PUSH4 0xA5025222 GT PUSH2 0x8C JUMPI DUP1 PUSH4 0xD94FE832 GT PUSH2 0x66 JUMPI DUP1 PUSH4 0xD94FE832 EQ PUSH2 0x221 JUMPI DUP1 PUSH4 0xE5BF7FFC EQ PUSH2 0x251 JUMPI DUP1 PUSH4 0xF2FDE38B EQ PUSH2 0x26D JUMPI DUP1 PUSH4 0xF76DA2A8 EQ PUSH2 0x289 JUMPI PUSH2 0xEA JUMP JUMPDEST DUP1 PUSH4 0xA5025222 EQ PUSH2 0x1B7 JUMPI DUP1 PUSH4 0xC18AB7A2 EQ PUSH2 0x1E7 JUMPI DUP1 PUSH4 0xC1EB6DFD EQ PUSH2 0x203 JUMPI PUSH2 0xEA JUMP JUMPDEST DUP1 PUSH4 0x4BA79DFE GT PUSH2 0xC8 JUMPI DUP1 PUSH4 0x4BA79DFE EQ PUSH2 0x143 JUMPI DUP1 PUSH4 0x715018A6 EQ PUSH2 0x15F JUMPI DUP1 PUSH4 0x838324D9 EQ PUSH2 0x169 JUMPI DUP1 PUSH4 0x8DA5CB5B EQ PUSH2 0x199 JUMPI PUSH2 0xEA JUMP JUMPDEST DUP1 PUSH4 0x38EADA1C EQ PUSH2 0xEF JUMPI DUP1 PUSH4 0x3C25C06B EQ PUSH2 0x10B JUMPI DUP1 PUSH4 0x3EDFCD2C EQ PUSH2 0x127 JUMPI JUMPDEST PUSH1 0x0 DUP1 REVERT JUMPDEST PUSH2 0x109 PUSH1 0x4 DUP1 CALLDATASIZE SUB DUP2 ADD SWAP1 PUSH2 0x104 SWAP2 SWAP1 PUSH2 0xFB4 JUMP JUMPDEST PUSH2 0x2B9 JUMP JUMPDEST STOP JUMPDEST PUSH2 0x125 PUSH1 0x4 DUP1 CALLDATASIZE SUB DUP2 ADD SWAP1 PUSH2 0x120 SWAP2 SWAP1 PUSH2 0xFDD JUMP JUMPDEST PUSH2 0x3F8 JUMP JUMPDEST STOP JUMPDEST PUSH2 0x141 PUSH1 0x4 DUP1 CALLDATASIZE SUB DUP2 ADD SWAP1 PUSH2 0x13C SWAP2 SWAP1 PUSH2 0x1019 JUMP JUMPDEST PUSH2 0x484 JUMP JUMPDEST STOP JUMPDEST PUSH2 0x15D PUSH1 0x4 DUP1 CALLDATASIZE SUB DUP2 ADD SWAP1 PUSH2 0x158 SWAP2 SWAP1 PUSH2 0xFB4 JUMP JUMPDEST PUSH2 0x5D7 JUMP JUMPDEST STOP JUMPDEST PUSH2 0x167 PUSH2 0x860 JUMP JUMPDEST STOP JUMPDEST PUSH2 0x183 PUSH1 0x4 DUP1 CALLDATASIZE SUB DUP2 ADD SWAP1 PUSH2 0x17E SWAP2 SWAP1 PUSH2 0xFB4 JUMP JUMPDEST PUSH2 0x8E8 JUMP JUMPDEST PUSH1 0x40 MLOAD PUSH2 0x190 SWAP2 SWAP1 PUSH2 0x120C JUMP JUMPDEST PUSH1 0x40 MLOAD DUP1 SWAP2 SUB SWAP1 RETURN JUMPDEST PUSH2 0x1A1 PUSH2 0x913 JUMP JUMPDEST PUSH1 0x40 MLOAD PUSH2 0x1AE SWAP2 SWAP1 PUSH2 0x1174 JUMP JUMPDEST PUSH1 0x40 MLOAD DUP1 SWAP2 SUB SWAP1 RETURN JUMPDEST PUSH2 0x1D1 PUSH1 0x4 DUP1 CALLDATASIZE SUB DUP2 ADD SWAP1 PUSH2 0x1CC SWAP2 SWAP1 PUSH2 0xFB4 JUMP JUMPDEST PUSH2 0x93C JUMP JUMPDEST PUSH1 0x40 MLOAD PUSH2 0x1DE SWAP2 SWAP1 PUSH2 0x118F JUMP JUMPDEST PUSH1 0x40 MLOAD DUP1 SWAP2 SUB SWAP1 RETURN JUMPDEST PUSH2 0x201 PUSH1 0x4 DUP1 CALLDATASIZE SUB DUP2 ADD SWAP1 PUSH2 0x1FC SWAP2 SWAP1 PUSH2 0x1019 JUMP JUMPDEST PUSH2 0x950 JUMP JUMPDEST STOP JUMPDEST PUSH2 0x20B PUSH2 0xA45 JUMP JUMPDEST PUSH1 0x40 MLOAD PUSH2 0x218 SWAP2 SWAP1 PUSH2 0x120C JUMP JUMPDEST PUSH1 0x40 MLOAD DUP1 SWAP2 SUB SWAP1 RETURN JUMPDEST PUSH2 0x23B PUSH1 0x4 DUP1 CALLDATASIZE SUB DUP2 ADD SWAP1 PUSH2 0x236 SWAP2 SWAP1 PUSH2 0xFB4 JUMP JUMPDEST PUSH2 0xA51 JUMP JUMPDEST PUSH1 0x40 MLOAD PUSH2 0x248 SWAP2 SWAP1 PUSH2 0x120C JUMP JUMPDEST PUSH1 0x40 MLOAD DUP1 SWAP2 SUB SWAP1 RETURN JUMPDEST PUSH2 0x26B PUSH1 0x4 DUP1 CALLDATASIZE SUB DUP2 ADD SWAP1 PUSH2 0x266 SWAP2 SWAP1 PUSH2 0xFDD JUMP JUMPDEST PUSH2 0xA9D JUMP JUMPDEST STOP JUMPDEST PUSH2 0x287 PUSH1 0x4 DUP1 CALLDATASIZE SUB DUP2 ADD SWAP1 PUSH2 0x282 SWAP2 SWAP1 PUSH2 0xFB4 JUMP JUMPDEST PUSH2 0xC24 JUMP JUMPDEST STOP JUMPDEST PUSH2 0x2A3 PUSH1 0x4 DUP1 CALLDATASIZE SUB DUP2 ADD SWAP1 PUSH2 0x29E SWAP2 SWAP1 PUSH2 0xFB4 JUMP JUMPDEST PUSH2 0xD1C JUMP JUMPDEST PUSH1 0x40 MLOAD PUSH2 0x2B0 SWAP2 SWAP1 PUSH2 0x118F JUMP JUMPDEST PUSH1 0x40 MLOAD DUP1 SWAP2 SUB SWAP1 RETURN JUMPDEST PUSH2 0x2C1 PUSH2 0xD49 JUMP JUMPDEST PUSH20 0xFFFFFFFFFFFFFFFFFFFFFFFFFFFFFFFFFFFFFFFF AND PUSH2 0x2DF PUSH2 0x913 JUMP JUMPDEST PUSH20 0xFFFFFFFFFFFFFFFFFFFFFFFFFFFFFFFFFFFFFFFF AND EQ PUSH2 0x335 JUMPI PUSH1 0x40 MLOAD PUSH32 0x8C379A000000000000000000000000000000000000000000000000000000000 DUP2 MSTORE PUSH1 0x4 ADD PUSH2 0x32C SWAP1 PUSH2 0x11EC JUMP JUMPDEST PUSH1 0x40 MLOAD DUP1 SWAP2 SUB SWAP1 REVERT JUMPDEST PUSH1 0x1 PUSH1 0x0 ADD PUSH1 0x0 DUP2 SLOAD DUP1 SWAP3 SWAP2 SWAP1 PUSH2 0x34B SWAP1 PUSH2 0x1327 JUMP JUMPDEST SWAP2 SWAP1 POP SSTORE POP DUP1 PUSH1 0x1 DUP1 ADD PUSH1 0x0 PUSH1 0x1 PUSH1 0x0 ADD SLOAD DUP2 MSTORE PUSH1 0x20 ADD SWAP1 DUP2 MSTORE PUSH1 0x20 ADD PUSH1 0x0 KECCAK256 PUSH1 0x0 PUSH2 0x100 EXP DUP2 SLOAD DUP2 PUSH20 0xFFFFFFFFFFFFFFFFFFFFFFFFFFFFFFFFFFFFFFFF MUL NOT AND SWAP1 DUP4 PUSH20 0xFFFFFFFFFFFFFFFFFFFFFFFFFFFFFFFFFFFFFFFF AND MUL OR SWAP1 SSTORE POP PUSH1 0x1 PUSH1 0x0 ADD SLOAD PUSH1 0x1 PUSH1 0x2 ADD PUSH1 0x0 DUP4 PUSH20 0xFFFFFFFFFFFFFFFFFFFFFFFFFFFFFFFFFFFFFFFF AND PUSH20 0xFFFFFFFFFFFFFFFFFFFFFFFFFFFFFFFFFFFFFFFF AND DUP2 MSTORE PUSH1 0x20 ADD SWAP1 DUP2 MSTORE PUSH1 0x20 ADD PUSH1 0x0 KECCAK256 DUP2 SWAP1 SSTORE POP POP JUMP JUMPDEST PUSH2 0x400 PUSH2 0xD49 JUMP JUMPDEST PUSH20 0xFFFFFFFFFFFFFFFFFFFFFFFFFFFFFFFFFFFFFFFF AND PUSH2 0x41E PUSH2 0x913 JUMP JUMPDEST PUSH20 0xFFFFFFFFFFFFFFFFFFFFFFFFFFFFFFFFFFFFFFFF AND EQ PUSH2 0x474 JUMPI PUSH1 0x40 MLOAD PUSH32 0x8C379A000000000000000000000000000000000000000000000000000000000 DUP2 MSTORE PUSH1 0x4 ADD PUSH2 0x46B SWAP1 PUSH2 0x11EC JUMP JUMPDEST PUSH1 0x40 MLOAD DUP1 SWAP2 SUB SWAP1 REVERT JUMPDEST PUSH2 0x480 DUP3 DUP3 PUSH1 0x1 PUSH2 0x950 JUMP JUMPDEST POP POP JUMP JUMPDEST PUSH2 0x48C PUSH2 0xD49 JUMP JUMPDEST PUSH20 0xFFFFFFFFFFFFFFFFFFFFFFFFFFFFFFFFFFFFFFFF AND PUSH2 0x4AA PUSH2 0x913 JUMP JUMPDEST PUSH20 0xFFFFFFFFFFFFFFFFFFFFFFFFFFFFFFFFFFFFFFFF AND EQ PUSH2 0x500 JUMPI PUSH1 0x40 MLOAD PUSH32 0x8C379A000000000000000000000000000000000000000000000000000000000 DUP2 MSTORE PUSH1 0x4 ADD PUSH2 0x4F7 SWAP1 PUSH2 0x11EC JUMP JUMPDEST PUSH1 0x40 MLOAD DUP1 SWAP2 SUB SWAP1 REVERT JUMPDEST PUSH2 0x509 DUP4 PUSH2 0x93C JUMP JUMPDEST PUSH2 0x517 JUMPI PUSH2 0x516 DUP4 PUSH2 0x2B9 JUMP JUMPDEST JUMPDEST PUSH1 0x1 PUSH1 0x3 ADD PUSH1 0x0 PUSH2 0x527 DUP6 PUSH2 0xA51 JUMP JUMPDEST DUP2 MSTORE PUSH1 0x20 ADD SWAP1 DUP2 MSTORE PUSH1 0x20 ADD PUSH1 0x0 KECCAK256 PUSH1 0x0 ADD PUSH1 0x0 DUP2 SLOAD DUP1 SWAP3 SWAP2 SWAP1 PUSH2 0x549 SWAP1 PUSH2 0x1327 JUMP JUMPDEST SWAP2 SWAP1 POP SSTORE POP DUP2 PUSH1 0x1 PUSH1 0x3 ADD PUSH1 0x0 PUSH2 0x55F DUP7 PUSH2 0xA51 JUMP JUMPDEST DUP2 MSTORE PUSH1 0x20 ADD SWAP1 DUP2 MSTORE PUSH1 0x20 ADD PUSH1 0x0 KECCAK256 PUSH1 0x1 ADD PUSH1 0x0 PUSH2 0x57B DUP7 PUSH2 0x8E8 JUMP JUMPDEST DUP2 MSTORE PUSH1 0x20 ADD SWAP1 DUP2 MSTORE PUSH1 0x20 ADD PUSH1 0x0 KECCAK256 PUSH1 0x0 ADD DUP2 SWAP1 SSTORE POP DUP1 PUSH1 0x1 PUSH1 0x3 ADD PUSH1 0x0 PUSH2 0x5A1 DUP7 PUSH2 0xA51 JUMP JUMPDEST DUP2 MSTORE PUSH1 0x20 ADD SWAP1 DUP2 MSTORE PUSH1 0x20 ADD PUSH1 0x0 KECCAK256 PUSH1 0x1 ADD PUSH1 0x0 PUSH2 0x5BD DUP7 PUSH2 0x8E8 JUMP JUMPDEST DUP2 MSTORE PUSH1 0x20 ADD SWAP1 DUP2 MSTORE PUSH1 0x20 ADD PUSH1 0x0 KECCAK256 PUSH1 0x1 ADD DUP2 SWAP1 SSTORE POP POP POP POP JUMP JUMPDEST PUSH2 0x5DF PUSH2 0xD49 JUMP JUMPDEST PUSH20 0xFFFFFFFFFFFFFFFFFFFFFFFFFFFFFFFFFFFFFFFF AND PUSH2 0x5FD PUSH2 0x913 JUMP JUMPDEST PUSH20 0xFFFFFFFFFFFFFFFFFFFFFFFFFFFFFFFFFFFFFFFF AND EQ PUSH2 0x653 JUMPI PUSH1 0x40 MLOAD PUSH32 0x8C379A000000000000000000000000000000000000000000000000000000000 DUP2 MSTORE PUSH1 0x4 ADD PUSH2 0x64A SWAP1 PUSH2 0x11EC JUMP JUMPDEST PUSH1 0x40 MLOAD DUP1 SWAP2 SUB SWAP1 REVERT JUMPDEST PUSH1 0x0 PUSH2 0x65E DUP3 PUSH2 0xA51 JUMP JUMPDEST SWAP1 POP PUSH1 0x0 DUP3 SWAP1 POP PUSH1 0x0 PUSH1 0x1 PUSH1 0x0 ADD SLOAD SWAP1 POP PUSH1 0x0 PUSH1 0x1 DUP1 ADD PUSH1 0x0 PUSH1 0x1 PUSH1 0x0 ADD SLOAD DUP2 MSTORE PUSH1 0x20 ADD SWAP1 DUP2 MSTORE PUSH1 0x20 ADD PUSH1 0x0 KECCAK256 PUSH1 0x0 SWAP1 SLOAD SWAP1 PUSH2 0x100 EXP SWAP1 DIV PUSH20 0xFFFFFFFFFFFFFFFFFFFFFFFFFFFFFFFFFFFFFFFF AND SWAP1 POP PUSH1 0x1 DUP1 ADD PUSH1 0x0 DUP4 DUP2 MSTORE PUSH1 0x20 ADD SWAP1 DUP2 MSTORE PUSH1 0x20 ADD PUSH1 0x0 KECCAK256 PUSH1 0x0 SWAP1 SLOAD SWAP1 PUSH2 0x100 EXP SWAP1 DIV PUSH20 0xFFFFFFFFFFFFFFFFFFFFFFFFFFFFFFFFFFFFFFFF AND PUSH1 0x1 DUP1 ADD PUSH1 0x0 DUP7 DUP2 MSTORE PUSH1 0x20 ADD SWAP1 DUP2 MSTORE PUSH1 0x20 ADD PUSH1 0x0 KECCAK256 PUSH1 0x0 PUSH2 0x100 EXP DUP2 SLOAD DUP2 PUSH20 0xFFFFFFFFFFFFFFFFFFFFFFFFFFFFFFFFFFFFFFFF MUL NOT AND SWAP1 DUP4 PUSH20 0xFFFFFFFFFFFFFFFFFFFFFFFFFFFFFFFFFFFFFFFF AND MUL OR SWAP1 SSTORE POP PUSH1 0x1 DUP1 ADD PUSH1 0x0 DUP4 DUP2 MSTORE PUSH1 0x20 ADD SWAP1 DUP2 MSTORE PUSH1 0x20 ADD PUSH1 0x0 KECCAK256 PUSH1 0x0 PUSH2 0x100 EXP DUP2 SLOAD SWAP1 PUSH20 0xFFFFFFFFFFFFFFFFFFFFFFFFFFFFFFFFFFFFFFFF MUL NOT AND SWAP1 SSTORE PUSH1 0x1 PUSH1 0x2 ADD PUSH1 0x0 DUP3 PUSH20 0xFFFFFFFFFFFFFFFFFFFFFFFFFFFFFFFFFFFFFFFF AND PUSH20 0xFFFFFFFFFFFFFFFFFFFFFFFFFFFFFFFFFFFFFFFF AND DUP2 MSTORE PUSH1 0x20 ADD SWAP1 DUP2 MSTORE PUSH1 0x20 ADD PUSH1 0x0 KECCAK256 SLOAD PUSH1 0x1 PUSH1 0x2 ADD PUSH1 0x0 DUP6 PUSH20 0xFFFFFFFFFFFFFFFFFFFFFFFFFFFFFFFFFFFFFFFF AND PUSH20 0xFFFFFFFFFFFFFFFFFFFFFFFFFFFFFFFFFFFFFFFF AND DUP2 MSTORE PUSH1 0x20 ADD SWAP1 DUP2 MSTORE PUSH1 0x20 ADD PUSH1 0x0 KECCAK256 DUP2 SWAP1 SSTORE POP PUSH1 0x1 PUSH1 0x2 ADD PUSH1 0x0 DUP3 PUSH20 0xFFFFFFFFFFFFFFFFFFFFFFFFFFFFFFFFFFFFFFFF AND PUSH20 0xFFFFFFFFFFFFFFFFFFFFFFFFFFFFFFFFFFFFFFFF AND DUP2 MSTORE PUSH1 0x20 ADD SWAP1 DUP2 MSTORE PUSH1 0x20 ADD PUSH1 0x0 KECCAK256 PUSH1 0x0 SWAP1 SSTORE PUSH1 0x1 PUSH1 0x0 ADD PUSH1 0x0 DUP2 SLOAD DUP1 SWAP3 SWAP2 SWAP1 PUSH2 0x854 SWAP1 PUSH2 0x12FD JUMP JUMPDEST SWAP2 SWAP1 POP SSTORE POP POP POP POP POP POP JUMP JUMPDEST PUSH2 0x868 PUSH2 0xD49 JUMP JUMPDEST PUSH20 0xFFFFFFFFFFFFFFFFFFFFFFFFFFFFFFFFFFFFFFFF AND PUSH2 0x886 PUSH2 0x913 JUMP JUMPDEST PUSH20 0xFFFFFFFFFFFFFFFFFFFFFFFFFFFFFFFFFFFFFFFF AND EQ PUSH2 0x8DC JUMPI PUSH1 0x40 MLOAD PUSH32 0x8C379A000000000000000000000000000000000000000000000000000000000 DUP2 MSTORE PUSH1 0x4 ADD PUSH2 0x8D3 SWAP1 PUSH2 0x11EC JUMP JUMPDEST PUSH1 0x40 MLOAD DUP1 SWAP2 SUB SWAP1 REVERT JUMPDEST PUSH2 0x8E6 PUSH1 0x0 PUSH2 0xD51 JUMP JUMPDEST JUMP JUMPDEST PUSH1 0x0 PUSH1 0x1 PUSH1 0x3 ADD PUSH1 0x0 PUSH2 0x8FA DUP5 PUSH2 0xA51 JUMP JUMPDEST DUP2 MSTORE PUSH1 0x20 ADD SWAP1 DUP2 MSTORE PUSH1 0x20 ADD PUSH1 0x0 KECCAK256 PUSH1 0x0 ADD SLOAD SWAP1 POP SWAP2 SWAP1 POP JUMP JUMPDEST PUSH1 0x0 DUP1 PUSH1 0x0 SWAP1 SLOAD SWAP1 PUSH2 0x100 EXP SWAP1 DIV PUSH20 0xFFFFFFFFFFFFFFFFFFFFFFFFFFFFFFFFFFFFFFFF AND SWAP1 POP SWAP1 JUMP JUMPDEST PUSH1 0x0 DUP1 PUSH2 0x948 DUP4 PUSH2 0xA51 JUMP JUMPDEST EQ SWAP1 POP SWAP2 SWAP1 POP JUMP JUMPDEST PUSH2 0x958 PUSH2 0xD49 JUMP JUMPDEST PUSH20 0xFFFFFFFFFFFFFFFFFFFFFFFFFFFFFFFFFFFFFFFF AND PUSH2 0x976 PUSH2 0x913 JUMP JUMPDEST PUSH20 0xFFFFFFFFFFFFFFFFFFFFFFFFFFFFFFFFFFFFFFFF AND EQ PUSH2 0x9CC JUMPI PUSH1 0x40 MLOAD PUSH32 0x8C379A000000000000000000000000000000000000000000000000000000000 DUP2 MSTORE PUSH1 0x4 ADD PUSH2 0x9C3 SWAP1 PUSH2 0x11EC JUMP JUMPDEST PUSH1 0x40 MLOAD DUP1 SWAP2 SUB SWAP1 REVERT JUMPDEST PUSH1 0x0 JUMPDEST PUSH2 0x9D8 DUP5 PUSH2 0x8E8 JUMP JUMPDEST DUP2 LT ISZERO PUSH2 0xA3F JUMPI DUP3 PUSH1 0x1 PUSH1 0x3 ADD PUSH1 0x0 PUSH2 0x9F0 DUP8 PUSH2 0xA51 JUMP JUMPDEST DUP2 MSTORE PUSH1 0x20 ADD SWAP1 DUP2 MSTORE PUSH1 0x20 ADD PUSH1 0x0 KECCAK256 PUSH1 0x1 ADD PUSH1 0x0 DUP4 DUP2 MSTORE PUSH1 0x20 ADD SWAP1 DUP2 MSTORE PUSH1 0x20 ADD PUSH1 0x0 KECCAK256 PUSH1 0x0 ADD SLOAD EQ ISZERO PUSH2 0xA2C JUMPI PUSH2 0xA27 DUP5 DUP3 DUP5 PUSH2 0xE15 JUMP JUMPDEST PUSH2 0xA3F JUMP JUMPDEST DUP1 DUP1 PUSH2 0xA37 SWAP1 PUSH2 0x1327 JUMP JUMPDEST SWAP2 POP POP PUSH2 0x9CF JUMP JUMPDEST POP POP POP POP JUMP JUMPDEST PUSH1 0x1 DUP1 PUSH1 0x0 ADD SLOAD SWAP1 POP DUP2 JUMP JUMPDEST PUSH1 0x0 PUSH1 0x1 PUSH1 0x2 ADD PUSH1 0x0 DUP4 PUSH20 0xFFFFFFFFFFFFFFFFFFFFFFFFFFFFFFFFFFFFFFFF AND PUSH20 0xFFFFFFFFFFFFFFFFFFFFFFFFFFFFFFFFFFFFFFFF AND DUP2 MSTORE PUSH1 0x20 ADD SWAP1 DUP2 MSTORE PUSH1 0x20 ADD PUSH1 0x0 KECCAK256 SLOAD SWAP1 POP SWAP2 SWAP1 POP JUMP JUMPDEST PUSH2 0xAA5 PUSH2 0xD49 JUMP JUMPDEST PUSH20 0xFFFFFFFFFFFFFFFFFFFFFFFFFFFFFFFFFFFFFFFF AND PUSH2 0xAC3 PUSH2 0x913 JUMP JUMPDEST PUSH20 0xFFFFFFFFFFFFFFFFFFFFFFFFFFFFFFFFFFFFFFFF AND EQ PUSH2 0xB19 JUMPI PUSH1 0x40 MLOAD PUSH32 0x8C379A000000000000000000000000000000000000000000000000000000000 DUP2 MSTORE PUSH1 0x4 ADD PUSH2 0xB10 SWAP1 PUSH2 0x11EC JUMP JUMPDEST PUSH1 0x40 MLOAD DUP1 SWAP2 SUB SWAP1 REVERT JUMPDEST PUSH1 0x1 PUSH1 0x3 ADD PUSH1 0x0 PUSH2 0xB29 DUP5 PUSH2 0xA51 JUMP JUMPDEST DUP2 MSTORE PUSH1 0x20 ADD SWAP1 DUP2 MSTORE PUSH1 0x20 ADD PUSH1 0x0 KECCAK256 PUSH1 0x1 ADD PUSH1 0x0 PUSH2 0xB45 DUP5 PUSH2 0x8E8 JUMP JUMPDEST DUP2 MSTORE PUSH1 0x20 ADD SWAP1 DUP2 MSTORE PUSH1 0x20 ADD PUSH1 0x0 KECCAK256 PUSH1 0x1 PUSH1 0x3 ADD PUSH1 0x0 PUSH2 0xB63 DUP6 PUSH2 0xA51 JUMP JUMPDEST DUP2 MSTORE PUSH1 0x20 ADD SWAP1 DUP2 MSTORE PUSH1 0x20 ADD PUSH1 0x0 KECCAK256 PUSH1 0x1 ADD PUSH1 0x0 DUP4 DUP2 MSTORE PUSH1 0x20 ADD SWAP1 DUP2 MSTORE PUSH1 0x20 ADD PUSH1 0x0 KECCAK256 PUSH1 0x0 DUP3 ADD SLOAD DUP2 PUSH1 0x0 ADD SSTORE PUSH1 0x1 DUP3 ADD SLOAD DUP2 PUSH1 0x1 ADD SSTORE SWAP1 POP POP PUSH1 0x1 PUSH1 0x3 ADD PUSH1 0x0 PUSH2 0xBAC DUP5 PUSH2 0xA51 JUMP JUMPDEST DUP2 MSTORE PUSH1 0x20 ADD SWAP1 DUP2 MSTORE PUSH1 0x20 ADD PUSH1 0x0 KECCAK256 PUSH1 0x1 ADD PUSH1 0x0 PUSH2 0xBC8 DUP5 PUSH2 0x8E8 JUMP JUMPDEST DUP2 MSTORE PUSH1 0x20 ADD SWAP1 DUP2 MSTORE PUSH1 0x20 ADD PUSH1 0x0 KECCAK256 PUSH1 0x0 DUP1 DUP3 ADD PUSH1 0x0 SWAP1 SSTORE PUSH1 0x1 DUP3 ADD PUSH1 0x0 SWAP1 SSTORE POP POP PUSH1 0x1 PUSH1 0x3 ADD PUSH1 0x0 PUSH2 0xBF9 DUP5 PUSH2 0xA51 JUMP JUMPDEST DUP2 MSTORE PUSH1 0x20 ADD SWAP1 DUP2 MSTORE PUSH1 0x20 ADD PUSH1 0x0 KECCAK256 PUSH1 0x0 ADD PUSH1 0x0 DUP2 SLOAD DUP1 SWAP3 SWAP2 SWAP1 PUSH2 0xC1B SWAP1 PUSH2 0x12FD JUMP JUMPDEST SWAP2 SWAP1 POP SSTORE POP POP POP JUMP JUMPDEST PUSH2 0xC2C PUSH2 0xD49 JUMP JUMPDEST PUSH20 0xFFFFFFFFFFFFFFFFFFFFFFFFFFFFFFFFFFFFFFFF AND PUSH2 0xC4A PUSH2 0x913 JUMP JUMPDEST PUSH20 0xFFFFFFFFFFFFFFFFFFFFFFFFFFFFFFFFFFFFFFFF AND EQ PUSH2 0xCA0 JUMPI PUSH1 0x40 MLOAD PUSH32 0x8C379A000000000000000000000000000000000000000000000000000000000 DUP2 MSTORE PUSH1 0x4 ADD PUSH2 0xC97 SWAP1 PUSH2 0x11EC JUMP JUMPDEST PUSH1 0x40 MLOAD DUP1 SWAP2 SUB SWAP1 REVERT JUMPDEST PUSH1 0x0 PUSH20 0xFFFFFFFFFFFFFFFFFFFFFFFFFFFFFFFFFFFFFFFF AND DUP2 PUSH20 0xFFFFFFFFFFFFFFFFFFFFFFFFFFFFFFFFFFFFFFFF AND EQ ISZERO PUSH2 0xD10 JUMPI PUSH1 0x40 MLOAD PUSH32 0x8C379A000000000000000000000000000000000000000000000000000000000 DUP2 MSTORE PUSH1 0x4 ADD PUSH2 0xD07 SWAP1 PUSH2 0x11CC JUMP JUMPDEST PUSH1 0x40 MLOAD DUP1 SWAP2 SUB SWAP1 REVERT JUMPDEST PUSH2 0xD19 DUP2 PUSH2 0xD51 JUMP JUMPDEST POP JUMP JUMPDEST PUSH1 0x0 DUP1 PUSH1 0x1 PUSH1 0x3 ADD PUSH1 0x0 PUSH2 0xD2F DUP6 PUSH2 0xA51 JUMP JUMPDEST DUP2 MSTORE PUSH1 0x20 ADD SWAP1 DUP2 MSTORE PUSH1 0x20 ADD PUSH1 0x0 KECCAK256 PUSH1 0x0 ADD SLOAD EQ SWAP1 POP SWAP2 SWAP1 POP JUMP JUMPDEST PUSH1 0x0 CALLER SWAP1 POP SWAP1 JUMP JUMPDEST PUSH1 0x0 DUP1 PUSH1 0x0 SWAP1 SLOAD SWAP1 PUSH2 0x100 EXP SWAP1 DIV PUSH20 0xFFFFFFFFFFFFFFFFFFFFFFFFFFFFFFFFFFFFFFFF AND SWAP1 POP DUP2 PUSH1 0x0 DUP1 PUSH2 0x100 EXP DUP2 SLOAD DUP2 PUSH20 0xFFFFFFFFFFFFFFFFFFFFFFFFFFFFFFFFFFFFFFFF MUL NOT AND SWAP1 DUP4 PUSH20 0xFFFFFFFFFFFFFFFFFFFFFFFFFFFFFFFFFFFFFFFF AND MUL OR SWAP1 SSTORE POP DUP2 PUSH20 0xFFFFFFFFFFFFFFFFFFFFFFFFFFFFFFFFFFFFFFFF AND DUP2 PUSH20 0xFFFFFFFFFFFFFFFFFFFFFFFFFFFFFFFFFFFFFFFF AND PUSH32 0x8BE0079C531659141344CD1FD0A4F28419497F9722A3DAAFE3B4186F6B6457E0 PUSH1 0x40 MLOAD PUSH1 0x40 MLOAD DUP1 SWAP2 SUB SWAP1 LOG3 POP POP JUMP JUMPDEST PUSH1 0x0 DUP2 PUSH1 0x1 PUSH1 0x3 ADD PUSH1 0x0 PUSH2 0xE28 DUP8 PUSH2 0xA51 JUMP JUMPDEST DUP2 MSTORE PUSH1 0x20 ADD SWAP1 DUP2 MSTORE PUSH1 0x20 ADD PUSH1 0x0 KECCAK256 PUSH1 0x1 ADD PUSH1 0x0 DUP6 DUP2 MSTORE PUSH1 0x20 ADD SWAP1 DUP2 MSTORE PUSH1 0x20 ADD PUSH1 0x0 KECCAK256 PUSH1 0x1 ADD SLOAD LT ISZERO SWAP1 POP PUSH1 0x0 PUSH1 0x1 PUSH1 0x3 ADD PUSH1 0x0 PUSH2 0xE64 DUP8 PUSH2 0xA51 JUMP JUMPDEST DUP2 MSTORE PUSH1 0x20 ADD SWAP1 DUP2 MSTORE PUSH1 0x20 ADD PUSH1 0x0 KECCAK256 PUSH1 0x1 ADD PUSH1 0x0 DUP6 DUP2 MSTORE PUSH1 0x20 ADD SWAP1 DUP2 MSTORE PUSH1 0x20 ADD PUSH1 0x0 KECCAK256 PUSH1 0x1 ADD SLOAD PUSH1 0x40 MLOAD PUSH1 0x20 ADD PUSH2 0xE9A SWAP2 SWAP1 PUSH2 0x114E JUMP JUMPDEST PUSH1 0x40 MLOAD PUSH1 0x20 DUP2 DUP4 SUB SUB DUP2 MSTORE SWAP1 PUSH1 0x40 MSTORE SWAP1 POP DUP2 DUP2 SWAP1 PUSH2 0xEEE JUMPI PUSH1 0x40 MLOAD PUSH32 0x8C379A000000000000000000000000000000000000000000000000000000000 DUP2 MSTORE PUSH1 0x4 ADD PUSH2 0xEE5 SWAP2 SWAP1 PUSH2 0x11AA JUMP JUMPDEST PUSH1 0x40 MLOAD DUP1 SWAP2 SUB SWAP1 REVERT JUMPDEST POP DUP3 PUSH1 0x1 PUSH1 0x3 ADD PUSH1 0x0 PUSH2 0xF00 DUP9 PUSH2 0xA51 JUMP JUMPDEST DUP2 MSTORE PUSH1 0x20 ADD SWAP1 DUP2 MSTORE PUSH1 0x20 ADD PUSH1 0x0 KECCAK256 PUSH1 0x1 ADD PUSH1 0x0 DUP7 DUP2 MSTORE PUSH1 0x20 ADD SWAP1 DUP2 MSTORE PUSH1 0x20 ADD PUSH1 0x0 KECCAK256 PUSH1 0x1 ADD PUSH1 0x0 DUP3 DUP3 SLOAD PUSH2 0xF34 SWAP2 SWAP1 PUSH2 0x124E JUMP JUMPDEST SWAP3 POP POP DUP2 SWAP1 SSTORE POP PUSH1 0x0 PUSH1 0x1 PUSH1 0x3 ADD PUSH1 0x0 PUSH2 0xF4D DUP9 PUSH2 0xA51 JUMP JUMPDEST DUP2 MSTORE PUSH1 0x20 ADD SWAP1 DUP2 MSTORE PUSH1 0x20 ADD PUSH1 0x0 KECCAK256 PUSH1 0x1 ADD PUSH1 0x0 DUP7 DUP2 MSTORE PUSH1 0x20 ADD SWAP1 DUP2 MSTORE PUSH1 0x20 ADD PUSH1 0x0 KECCAK256 PUSH1 0x1 ADD SLOAD GT PUSH2 0xF83 JUMPI PUSH2 0xF82 DUP6 DUP6 PUSH2 0xA9D JUMP JUMPDEST JUMPDEST POP POP POP POP POP JUMP JUMPDEST PUSH1 0x0 DUP2 CALLDATALOAD SWAP1 POP PUSH2 0xF99 DUP2 PUSH2 0x14A7 JUMP JUMPDEST SWAP3 SWAP2 POP POP JUMP JUMPDEST PUSH1 0x0 DUP2 CALLDATALOAD SWAP1 POP PUSH2 0xFAE DUP2 PUSH2 0x14BE JUMP JUMPDEST SWAP3 SWAP2 POP POP JUMP JUMPDEST PUSH1 0x0 PUSH1 0x20 DUP3 DUP5 SUB SLT ISZERO PUSH2 0xFC6 JUMPI PUSH1 0x0 DUP1 REVERT JUMPDEST PUSH1 0x0 PUSH2 0xFD4 DUP5 DUP3 DUP6 ADD PUSH2 0xF8A JUMP JUMPDEST SWAP2 POP POP SWAP3 SWAP2 POP POP JUMP JUMPDEST PUSH1 0x0 DUP1 PUSH1 0x40 DUP4 DUP6 SUB SLT ISZERO PUSH2 0xFF0 JUMPI PUSH1 0x0 DUP1 REVERT JUMPDEST PUSH1 0x0 PUSH2 0xFFE DUP6 DUP3 DUP7 ADD PUSH2 0xF8A JUMP JUMPDEST SWAP3 POP POP PUSH1 0x20 PUSH2 0x100F DUP6 DUP3 DUP7 ADD PUSH2 0xF9F JUMP JUMPDEST SWAP2 POP POP SWAP3 POP SWAP3 SWAP1 POP JUMP JUMPDEST PUSH1 0x0 DUP1 PUSH1 0x0 PUSH1 0x60 DUP5 DUP7 SUB SLT ISZERO PUSH2 0x102E JUMPI PUSH1 0x0 DUP1 REVERT JUMPDEST PUSH1 0x0 PUSH2 0x103C DUP7 DUP3 DUP8 ADD PUSH2 0xF8A JUMP JUMPDEST SWAP4 POP POP PUSH1 0x20 PUSH2 0x104D DUP7 DUP3 DUP8 ADD PUSH2 0xF9F JUMP JUMPDEST SWAP3 POP POP PUSH1 0x40 PUSH2 0x105E DUP7 DUP3 DUP8 ADD PUSH2 0xF9F JUMP JUMPDEST SWAP2 POP POP SWAP3 POP SWAP3 POP SWAP3 JUMP JUMPDEST PUSH2 0x1071 DUP2 PUSH2 0x1282 JUMP JUMPDEST DUP3 MSTORE POP POP JUMP JUMPDEST PUSH2 0x1080 DUP2 PUSH2 0x1294 JUMP JUMPDEST DUP3 MSTORE POP POP JUMP JUMPDEST PUSH1 0x0 PUSH2 0x1091 DUP3 PUSH2 0x1227 JUMP JUMPDEST PUSH2 0x109B DUP2 DUP6 PUSH2 0x1232 JUMP JUMPDEST SWAP4 POP PUSH2 0x10AB DUP2 DUP6 PUSH1 0x20 DUP7 ADD PUSH2 0x12CA JUMP JUMPDEST PUSH2 0x10B4 DUP2 PUSH2 0x13A9 JUMP JUMPDEST DUP5 ADD SWAP2 POP POP SWAP3 SWAP2 POP POP JUMP JUMPDEST PUSH1 0x0 PUSH2 0x10CC PUSH1 0x26 DUP4 PUSH2 0x1232 JUMP JUMPDEST SWAP2 POP PUSH2 0x10D7 DUP3 PUSH2 0x13BA JUMP JUMPDEST PUSH1 0x40 DUP3 ADD SWAP1 POP SWAP2 SWAP1 POP JUMP JUMPDEST PUSH1 0x0 PUSH2 0x10EF PUSH1 0x20 DUP4 PUSH2 0x1232 JUMP JUMPDEST SWAP2 POP PUSH2 0x10FA DUP3 PUSH2 0x1409 JUMP JUMPDEST PUSH1 0x20 DUP3 ADD SWAP1 POP SWAP2 SWAP1 POP JUMP JUMPDEST PUSH1 0x0 PUSH2 0x1112 PUSH1 0x4B DUP4 PUSH2 0x1243 JUMP JUMPDEST SWAP2 POP PUSH2 0x111D DUP3 PUSH2 0x1432 JUMP JUMPDEST PUSH1 0x4B DUP3 ADD SWAP1 POP SWAP2 SWAP1 POP JUMP JUMPDEST PUSH2 0x1131 DUP2 PUSH2 0x12C0 JUMP JUMPDEST DUP3 MSTORE POP POP JUMP JUMPDEST PUSH2 0x1148 PUSH2 0x1143 DUP3 PUSH2 0x12C0 JUMP JUMPDEST PUSH2 0x1370 JUMP JUMPDEST DUP3 MSTORE POP POP JUMP JUMPDEST PUSH1 0x0 PUSH2 0x1159 DUP3 PUSH2 0x1105 JUMP JUMPDEST SWAP2 POP PUSH2 0x1165 DUP3 DUP5 PUSH2 0x1137 JUMP JUMPDEST PUSH1 0x20 DUP3 ADD SWAP2 POP DUP2 SWAP1 POP SWAP3 SWAP2 POP POP JUMP JUMPDEST PUSH1 0x0 PUSH1 0x20 DUP3 ADD SWAP1 POP PUSH2 0x1189 PUSH1 0x0 DUP4 ADD DUP5 PUSH2 0x1068 JUMP JUMPDEST SWAP3 SWAP2 POP POP JUMP JUMPDEST PUSH1 0x0 PUSH1 0x20 DUP3 ADD SWAP1 POP PUSH2 0x11A4 PUSH1 0x0 DUP4 ADD DUP5 PUSH2 0x1077 JUMP JUMPDEST SWAP3 SWAP2 POP POP JUMP JUMPDEST PUSH1 0x0 PUSH1 0x20 DUP3 ADD SWAP1 POP DUP2 DUP2 SUB PUSH1 0x0 DUP4 ADD MSTORE PUSH2 0x11C4 DUP2 DUP5 PUSH2 0x1086 JUMP JUMPDEST SWAP1 POP SWAP3 SWAP2 POP POP JUMP JUMPDEST PUSH1 0x0 PUSH1 0x20 DUP3 ADD SWAP1 POP DUP2 DUP2 SUB PUSH1 0x0 DUP4 ADD MSTORE PUSH2 0x11E5 DUP2 PUSH2 0x10BF JUMP JUMPDEST SWAP1 POP SWAP2 SWAP1 POP JUMP JUMPDEST PUSH1 0x0 PUSH1 0x20 DUP3 ADD SWAP1 POP DUP2 DUP2 SUB PUSH1 0x0 DUP4 ADD MSTORE PUSH2 0x1205 DUP2 PUSH2 0x10E2 JUMP JUMPDEST SWAP1 POP SWAP2 SWAP1 POP JUMP JUMPDEST PUSH1 0x0 PUSH1 0x20 DUP3 ADD SWAP1 POP PUSH2 0x1221 PUSH1 0x0 DUP4 ADD DUP5 PUSH2 0x1128 JUMP JUMPDEST SWAP3 SWAP2 POP POP JUMP JUMPDEST PUSH1 0x0 DUP2 MLOAD SWAP1 POP SWAP2 SWAP1 POP JUMP JUMPDEST PUSH1 0x0 DUP3 DUP3 MSTORE PUSH1 0x20 DUP3 ADD SWAP1 POP SWAP3 SWAP2 POP POP JUMP JUMPDEST PUSH1 0x0 DUP2 SWAP1 POP SWAP3 SWAP2 POP POP JUMP JUMPDEST PUSH1 0x0 PUSH2 0x1259 DUP3 PUSH2 0x12C0 JUMP JUMPDEST SWAP2 POP PUSH2 0x1264 DUP4 PUSH2 0x12C0 JUMP JUMPDEST SWAP3 POP DUP3 DUP3 LT ISZERO PUSH2 0x1277 JUMPI PUSH2 0x1276 PUSH2 0x137A JUMP JUMPDEST JUMPDEST DUP3 DUP3 SUB SWAP1 POP SWAP3 SWAP2 POP POP JUMP JUMPDEST PUSH1 0x0 PUSH2 0x128D DUP3 PUSH2 0x12A0 JUMP JUMPDEST SWAP1 POP SWAP2 SWAP1 POP JUMP JUMPDEST PUSH1 0x0 DUP2 ISZERO ISZERO SWAP1 POP SWAP2 SWAP1 POP JUMP JUMPDEST PUSH1 0x0 PUSH20 0xFFFFFFFFFFFFFFFFFFFFFFFFFFFFFFFFFFFFFFFF DUP3 AND SWAP1 POP SWAP2 SWAP1 POP JUMP JUMPDEST PUSH1 0x0 DUP2 SWAP1 POP SWAP2 SWAP1 POP JUMP JUMPDEST PUSH1 0x0 JUMPDEST DUP4 DUP2 LT ISZERO PUSH2 0x12E8 JUMPI DUP1 DUP3 ADD MLOAD DUP2 DUP5 ADD MSTORE PUSH1 0x20 DUP2 ADD SWAP1 POP PUSH2 0x12CD JUMP JUMPDEST DUP4 DUP2 GT ISZERO PUSH2 0x12F7 JUMPI PUSH1 0x0 DUP5 DUP5 ADD MSTORE JUMPDEST POP POP POP POP JUMP JUMPDEST PUSH1 0x0 PUSH2 0x1308 DUP3 PUSH2 0x12C0 JUMP JUMPDEST SWAP2 POP PUSH1 0x0 DUP3 EQ ISZERO PUSH2 0x131C JUMPI PUSH2 0x131B PUSH2 0x137A JUMP JUMPDEST JUMPDEST PUSH1 0x1 DUP3 SUB SWAP1 POP SWAP2 SWAP1 POP JUMP JUMPDEST PUSH1 0x0 PUSH2 0x1332 DUP3 PUSH2 0x12C0 JUMP JUMPDEST SWAP2 POP PUSH32 0xFFFFFFFFFFFFFFFFFFFFFFFFFFFFFFFFFFFFFFFFFFFFFFFFFFFFFFFFFFFFFFFF DUP3 EQ ISZERO PUSH2 0x1365 JUMPI PUSH2 0x1364 PUSH2 0x137A JUMP JUMPDEST JUMPDEST PUSH1 0x1 DUP3 ADD SWAP1 POP SWAP2 SWAP1 POP JUMP JUMPDEST PUSH1 0x0 DUP2 SWAP1 POP SWAP2 SWAP1 POP JUMP JUMPDEST PUSH32 0x4E487B7100000000000000000000000000000000000000000000000000000000 PUSH1 0x0 MSTORE PUSH1 0x11 PUSH1 0x4 MSTORE PUSH1 0x24 PUSH1 0x0 REVERT JUMPDEST PUSH1 0x0 PUSH1 0x1F NOT PUSH1 0x1F DUP4 ADD AND SWAP1 POP SWAP2 SWAP1 POP JUMP JUMPDEST PUSH32 0x4F776E61626C653A206E6577206F776E657220697320746865207A65726F2061 PUSH1 0x0 DUP3 ADD MSTORE PUSH32 0x6464726573730000000000000000000000000000000000000000000000000000 PUSH1 0x20 DUP3 ADD MSTORE POP JUMP JUMPDEST PUSH32 0x4F776E61626C653A2063616C6C6572206973206E6F7420746865206F776E6572 PUSH1 0x0 DUP3 ADD MSTORE POP JUMP JUMPDEST PUSH32 0x43616E6E6F742072656475636520636F75706F6E2075736573206279206D6F72 PUSH1 0x0 DUP3 ADD MSTORE PUSH32 0x65207468616E20746865206E756D626572206F66207573657320666F72207468 PUSH1 0x20 DUP3 ADD MSTORE PUSH32 0x697320636F75706F6E3A20000000000000000000000000000000000000000000 PUSH1 0x40 DUP3 ADD MSTORE POP JUMP JUMPDEST PUSH2 0x14B0 DUP2 PUSH2 0x1282 JUMP JUMPDEST DUP2 EQ PUSH2 0x14BB JUMPI PUSH1 0x0 DUP1 REVERT JUMPDEST POP JUMP JUMPDEST PUSH2 0x14C7 DUP2 PUSH2 0x12C0 JUMP JUMPDEST DUP2 EQ PUSH2 0x14D2 JUMPI PUSH1 0x0 DUP1 REVERT JUMPDEST POP JUMP INVALID LOG2 PUSH5 0x6970667358 0x22 SLT KECCAK256 INVALID 0xC0 0x2E SSTORE DIV 0xE DUP15 0xC7 PUSH15 0x3EFB01E6C2D1DE576FB30D6604AE8D 0x48 DUP4 ADD 0xC 0xD6 0xC3 0xC3 0xDF PUSH5 0x736F6C6343 STOP ADDMOD ADD STOP CALLER "
				},
				"gasEstimates": {
					"creation": {
						"codeDepositCost": "1077400",
						"executionCost": "infinite",
						"totalCost": "infinite"
					},
					"external": {
						"addAddress(address)": "65058",
						"addCoupon(address,uint256,uint256)": "infinite",
						"addressExists(address)": "1625",
						"addressHasCoupon(address)": "2580",
						"addressList()": "1210",
						"couponListLength(address)": "2547",
						"idOf(address)": "1569",
						"owner()": "1311",
						"reduceCouponUses(address,uint256,uint256)": "infinite",
						"removeAddress(address)": "94815",
						"removeCoupon(address,uint256)": "infinite",
						"renounceOwnership()": "24419",
						"transferOwnership(address)": "24789",
						"useCoupon(address,uint256)": "infinite"
					},
					"internal": {
						"_initList()": "infinite",
						"_reduceCouponUses(address,uint256,uint256)": "infinite"
					}
				},
				"methodIdentifiers": {
					"addAddress(address)": "38eada1c",
					"addCoupon(address,uint256,uint256)": "3edfcd2c",
					"addressExists(address)": "a5025222",
					"addressHasCoupon(address)": "f76da2a8",
					"addressList()": "c1eb6dfd",
					"couponListLength(address)": "838324d9",
					"idOf(address)": "d94fe832",
					"owner()": "8da5cb5b",
					"reduceCouponUses(address,uint256,uint256)": "c18ab7a2",
					"removeAddress(address)": "4ba79dfe",
					"removeCoupon(address,uint256)": "e5bf7ffc",
					"renounceOwnership()": "715018a6",
					"transferOwnership(address)": "f2fde38b",
					"useCoupon(address,uint256)": "3c25c06b"
				}
			},
			"storageLayout": {
				"storage": [
					{
						"astId": 7,
						"contract": "contracts/Founding Citizens NFT Sale Privileged Buyers List Storage.sol:PrivilegedListStorage",
						"label": "_owner",
						"offset": 0,
						"slot": "0",
						"type": "t_address"
					},
					{
						"astId": 166,
						"contract": "contracts/Founding Citizens NFT Sale Privileged Buyers List Storage.sol:PrivilegedListStorage",
						"label": "addressList",
						"offset": 0,
						"slot": "1",
						"type": "t_struct(AddressList)163_storage"
					}
				],
				"types": {
					"t_address": {
						"encoding": "inplace",
						"label": "address",
						"numberOfBytes": "20"
					},
					"t_mapping(t_address,t_uint256)": {
						"encoding": "mapping",
						"key": "t_address",
						"label": "mapping(address => uint256)",
						"numberOfBytes": "32",
						"value": "t_uint256"
					},
					"t_mapping(t_uint256,t_address)": {
						"encoding": "mapping",
						"key": "t_uint256",
						"label": "mapping(uint256 => address)",
						"numberOfBytes": "32",
						"value": "t_address"
					},
					"t_mapping(t_uint256,t_struct(Coupon)136_storage)": {
						"encoding": "mapping",
						"key": "t_uint256",
						"label": "mapping(uint256 => struct PrivilegedListStorage.Coupon)",
						"numberOfBytes": "32",
						"value": "t_struct(Coupon)136_storage"
					},
					"t_mapping(t_uint256,t_struct(CouponList)147_storage)": {
						"encoding": "mapping",
						"key": "t_uint256",
						"label": "mapping(uint256 => struct PrivilegedListStorage.CouponList)",
						"numberOfBytes": "32",
						"value": "t_struct(CouponList)147_storage"
					},
					"t_struct(AddressList)163_storage": {
						"encoding": "inplace",
						"label": "struct PrivilegedListStorage.AddressList",
						"members": [
							{
								"astId": 149,
								"contract": "contracts/Founding Citizens NFT Sale Privileged Buyers List Storage.sol:PrivilegedListStorage",
								"label": "length",
								"offset": 0,
								"slot": "0",
								"type": "t_uint256"
							},
							{
								"astId": 153,
								"contract": "contracts/Founding Citizens NFT Sale Privileged Buyers List Storage.sol:PrivilegedListStorage",
								"label": "addresses",
								"offset": 0,
								"slot": "1",
								"type": "t_mapping(t_uint256,t_address)"
							},
							{
								"astId": 157,
								"contract": "contracts/Founding Citizens NFT Sale Privileged Buyers List Storage.sol:PrivilegedListStorage",
								"label": "ids",
								"offset": 0,
								"slot": "2",
								"type": "t_mapping(t_address,t_uint256)"
							},
							{
								"astId": 162,
								"contract": "contracts/Founding Citizens NFT Sale Privileged Buyers List Storage.sol:PrivilegedListStorage",
								"label": "couponLists",
								"offset": 0,
								"slot": "3",
								"type": "t_mapping(t_uint256,t_struct(CouponList)147_storage)"
							}
						],
						"numberOfBytes": "128"
					},
					"t_struct(Coupon)136_storage": {
						"encoding": "inplace",
						"label": "struct PrivilegedListStorage.Coupon",
						"members": [
							{
								"astId": 133,
								"contract": "contracts/Founding Citizens NFT Sale Privileged Buyers List Storage.sol:PrivilegedListStorage",
								"label": "discountRate",
								"offset": 0,
								"slot": "0",
								"type": "t_uint256"
							},
							{
								"astId": 135,
								"contract": "contracts/Founding Citizens NFT Sale Privileged Buyers List Storage.sol:PrivilegedListStorage",
								"label": "numberOfUses",
								"offset": 0,
								"slot": "1",
								"type": "t_uint256"
							}
						],
						"numberOfBytes": "64"
					},
					"t_struct(CouponList)147_storage": {
						"encoding": "inplace",
						"label": "struct PrivilegedListStorage.CouponList",
						"members": [
							{
								"astId": 141,
								"contract": "contracts/Founding Citizens NFT Sale Privileged Buyers List Storage.sol:PrivilegedListStorage",
								"label": "length",
								"offset": 0,
								"slot": "0",
								"type": "t_uint256"
							},
							{
								"astId": 146,
								"contract": "contracts/Founding Citizens NFT Sale Privileged Buyers List Storage.sol:PrivilegedListStorage",
								"label": "coupons",
								"offset": 0,
								"slot": "1",
								"type": "t_mapping(t_uint256,t_struct(Coupon)136_storage)"
							}
						],
						"numberOfBytes": "64"
					},
					"t_uint256": {
						"encoding": "inplace",
						"label": "uint256",
						"numberOfBytes": "32"
					}
				}
			},
			"userdoc": {
				"kind": "user",
				"methods": {},
				"version": 1
			}
		}
	}
}