{
	"contracts/Founding Citizens NFT Sale Privileged Buyers List Storage.sol": {
		"PrivilegedListStorage": {
			"abi": [
				{
					"inputs": [],
					"name": "addresses",
					"outputs": [
						{
							"internalType": "uint256",
							"name": "length",
							"type": "uint256"
						}
					],
					"stateMutability": "view",
					"type": "function"
				}
			],
			"devdoc": {
				"kind": "dev",
				"methods": {},
				"version": 1
			},
			"evm": {
				"assembly": "    /* \"contracts/Founding Citizens NFT Sale Privileged Buyers List Storage.sol\":1746:3970  contract PrivilegedListStorage {\r... */\n  mstore(0x40, 0x80)\n  callvalue\n  dup1\n  iszero\n  tag_1\n  jumpi\n  0x00\n  dup1\n  revert\ntag_1:\n  pop\n  dataSize(sub_0)\n  dup1\n  dataOffset(sub_0)\n  0x00\n  codecopy\n  0x00\n  return\nstop\n\nsub_0: assembly {\n        /* \"contracts/Founding Citizens NFT Sale Privileged Buyers List Storage.sol\":1746:3970  contract PrivilegedListStorage {\r... */\n      mstore(0x40, 0x80)\n      callvalue\n      dup1\n      iszero\n      tag_1\n      jumpi\n      0x00\n      dup1\n      revert\n    tag_1:\n      pop\n      jumpi(tag_2, lt(calldatasize, 0x04))\n      shr(0xe0, calldataload(0x00))\n      dup1\n      0xda0321cd\n      eq\n      tag_3\n      jumpi\n    tag_2:\n      0x00\n      dup1\n      revert\n        /* \"contracts/Founding Citizens NFT Sale Privileged Buyers List Storage.sol\":2396:2424  AddressList public addresses */\n    tag_3:\n      tag_4\n      tag_5\n      jump\t// in\n    tag_4:\n      mload(0x40)\n      tag_6\n      swap2\n      swap1\n      tag_7\n      jump\t// in\n    tag_6:\n      mload(0x40)\n      dup1\n      swap2\n      sub\n      swap1\n      return\n    tag_5:\n      0x00\n      dup1\n      0x00\n      add\n      sload\n      swap1\n      pop\n      dup2\n      jump\t// out\n        /* \"#utility.yul\":7:125   */\n    tag_9:\n        /* \"#utility.yul\":94:118   */\n      tag_11\n        /* \"#utility.yul\":112:117   */\n      dup2\n        /* \"#utility.yul\":94:118   */\n      tag_12\n      jump\t// in\n    tag_11:\n        /* \"#utility.yul\":89:92   */\n      dup3\n        /* \"#utility.yul\":82:119   */\n      mstore\n        /* \"#utility.yul\":72:125   */\n      pop\n      pop\n      jump\t// out\n        /* \"#utility.yul\":131:353   */\n    tag_7:\n      0x00\n        /* \"#utility.yul\":262:264   */\n      0x20\n        /* \"#utility.yul\":251:260   */\n      dup3\n        /* \"#utility.yul\":247:265   */\n      add\n        /* \"#utility.yul\":239:265   */\n      swap1\n      pop\n        /* \"#utility.yul\":275:346   */\n      tag_14\n        /* \"#utility.yul\":343:344   */\n      0x00\n        /* \"#utility.yul\":332:341   */\n      dup4\n        /* \"#utility.yul\":328:345   */\n      add\n        /* \"#utility.yul\":319:325   */\n      dup5\n        /* \"#utility.yul\":275:346   */\n      tag_9\n      jump\t// in\n    tag_14:\n        /* \"#utility.yul\":229:353   */\n      swap3\n      swap2\n      pop\n      pop\n      jump\t// out\n        /* \"#utility.yul\":359:436   */\n    tag_12:\n      0x00\n        /* \"#utility.yul\":425:430   */\n      dup2\n        /* \"#utility.yul\":414:430   */\n      swap1\n      pop\n        /* \"#utility.yul\":404:436   */\n      swap2\n      swap1\n      pop\n      jump\t// out\n\n    auxdata: 0xa26469706673582212205ee86aaa800e3e5aff1e3e345a3529398757151806ec0f4e063cc34a0ccddadb64736f6c63430008010033\n}\n",
				"bytecode": {
					"linkReferences": {},
					"object": "608060405234801561001057600080fd5b5060b98061001f6000396000f3fe6080604052348015600f57600080fd5b506004361060285760003560e01c8063da0321cd14602d575b600080fd5b60336047565b604051603e91906060565b60405180910390f35b60008060000154905081565b605a816079565b82525050565b6000602082019050607360008301846053565b92915050565b600081905091905056fea26469706673582212205ee86aaa800e3e5aff1e3e345a3529398757151806ec0f4e063cc34a0ccddadb64736f6c63430008010033",
					"opcodes": "PUSH1 0x80 PUSH1 0x40 MSTORE CALLVALUE DUP1 ISZERO PUSH2 0x10 JUMPI PUSH1 0x0 DUP1 REVERT JUMPDEST POP PUSH1 0xB9 DUP1 PUSH2 0x1F PUSH1 0x0 CODECOPY PUSH1 0x0 RETURN INVALID PUSH1 0x80 PUSH1 0x40 MSTORE CALLVALUE DUP1 ISZERO PUSH1 0xF JUMPI PUSH1 0x0 DUP1 REVERT JUMPDEST POP PUSH1 0x4 CALLDATASIZE LT PUSH1 0x28 JUMPI PUSH1 0x0 CALLDATALOAD PUSH1 0xE0 SHR DUP1 PUSH4 0xDA0321CD EQ PUSH1 0x2D JUMPI JUMPDEST PUSH1 0x0 DUP1 REVERT JUMPDEST PUSH1 0x33 PUSH1 0x47 JUMP JUMPDEST PUSH1 0x40 MLOAD PUSH1 0x3E SWAP2 SWAP1 PUSH1 0x60 JUMP JUMPDEST PUSH1 0x40 MLOAD DUP1 SWAP2 SUB SWAP1 RETURN JUMPDEST PUSH1 0x0 DUP1 PUSH1 0x0 ADD SLOAD SWAP1 POP DUP2 JUMP JUMPDEST PUSH1 0x5A DUP2 PUSH1 0x79 JUMP JUMPDEST DUP3 MSTORE POP POP JUMP JUMPDEST PUSH1 0x0 PUSH1 0x20 DUP3 ADD SWAP1 POP PUSH1 0x73 PUSH1 0x0 DUP4 ADD DUP5 PUSH1 0x53 JUMP JUMPDEST SWAP3 SWAP2 POP POP JUMP JUMPDEST PUSH1 0x0 DUP2 SWAP1 POP SWAP2 SWAP1 POP JUMP INVALID LOG2 PUSH5 0x6970667358 0x22 SLT KECCAK256 0x5E 0xE8 PUSH11 0xAA800E3E5AFF1E3E345A35 0x29 CODECOPY DUP8 JUMPI ISZERO XOR MOD 0xEC 0xF 0x4E MOD EXTCODECOPY 0xC3 0x4A 0xC 0xCD 0xDA 0xDB PUSH5 0x736F6C6343 STOP ADDMOD ADD STOP CALLER "
				},
				"gasEstimates": {
					"creation": {
						"codeDepositCost": "37000",
						"executionCost": "87",
						"totalCost": "37087"
					},
					"external": {
						"addresses()": "1121"
					},
					"internal": {
						"_initidToAddress()": "infinite",
						"addAddress(address)": "infinite",
						"removeAddress(address)": "infinite"
					}
				},
				"methodIdentifiers": {
					"addresses()": "da0321cd"
				}
			},
			"storageLayout": {
				"storage": [
					{
						"astId": 161,
						"contract": "contracts/Founding Citizens NFT Sale Privileged Buyers List Storage.sol:PrivilegedListStorage",
						"label": "addresses",
						"offset": 0,
						"slot": "0",
						"type": "t_struct(AddressList)158_storage"
					}
				],
				"types": {
					"t_address": {
						"encoding": "inplace",
						"label": "address",
						"numberOfBytes": "20"
					},
					"t_mapping(t_address,t_uint256)": {
						"encoding": "mapping",
						"key": "t_address",
						"label": "mapping(address => uint256)",
						"numberOfBytes": "32",
						"value": "t_uint256"
					},
					"t_mapping(t_uint256,t_address)": {
						"encoding": "mapping",
						"key": "t_uint256",
						"label": "mapping(uint256 => address)",
						"numberOfBytes": "32",
						"value": "t_address"
					},
					"t_mapping(t_uint256,t_struct(Coupon)134_storage)": {
						"encoding": "mapping",
						"key": "t_uint256",
						"label": "mapping(uint256 => struct PrivilegedListStorage.Coupon)",
						"numberOfBytes": "32",
						"value": "t_struct(Coupon)134_storage"
					},
					"t_mapping(t_uint256,t_struct(CouponList)142_storage)": {
						"encoding": "mapping",
						"key": "t_uint256",
						"label": "mapping(uint256 => struct PrivilegedListStorage.CouponList)",
						"numberOfBytes": "32",
						"value": "t_struct(CouponList)142_storage"
					},
					"t_struct(AddressList)158_storage": {
						"encoding": "inplace",
						"label": "struct PrivilegedListStorage.AddressList",
						"members": [
							{
								"astId": 144,
								"contract": "contracts/Founding Citizens NFT Sale Privileged Buyers List Storage.sol:PrivilegedListStorage",
								"label": "length",
								"offset": 0,
								"slot": "0",
								"type": "t_uint256"
							},
							{
								"astId": 148,
								"contract": "contracts/Founding Citizens NFT Sale Privileged Buyers List Storage.sol:PrivilegedListStorage",
								"label": "idToAddress",
								"offset": 0,
								"slot": "1",
								"type": "t_mapping(t_uint256,t_address)"
							},
							{
								"astId": 152,
								"contract": "contracts/Founding Citizens NFT Sale Privileged Buyers List Storage.sol:PrivilegedListStorage",
								"label": "addressToId",
								"offset": 0,
								"slot": "2",
								"type": "t_mapping(t_address,t_uint256)"
							},
							{
								"astId": 157,
								"contract": "contracts/Founding Citizens NFT Sale Privileged Buyers List Storage.sol:PrivilegedListStorage",
								"label": "couponList",
								"offset": 0,
								"slot": "3",
								"type": "t_mapping(t_uint256,t_struct(CouponList)142_storage)"
							}
						],
						"numberOfBytes": "128"
					},
					"t_struct(Coupon)134_storage": {
						"encoding": "inplace",
						"label": "struct PrivilegedListStorage.Coupon",
						"members": [
							{
								"astId": 131,
								"contract": "contracts/Founding Citizens NFT Sale Privileged Buyers List Storage.sol:PrivilegedListStorage",
								"label": "discountRate",
								"offset": 0,
								"slot": "0",
								"type": "t_uint256"
							},
							{
								"astId": 133,
								"contract": "contracts/Founding Citizens NFT Sale Privileged Buyers List Storage.sol:PrivilegedListStorage",
								"label": "numberOfUses",
								"offset": 0,
								"slot": "1",
								"type": "t_uint256"
							}
						],
						"numberOfBytes": "64"
					},
					"t_struct(CouponList)142_storage": {
						"encoding": "inplace",
						"label": "struct PrivilegedListStorage.CouponList",
						"members": [
							{
								"astId": 136,
								"contract": "contracts/Founding Citizens NFT Sale Privileged Buyers List Storage.sol:PrivilegedListStorage",
								"label": "length",
								"offset": 0,
								"slot": "0",
								"type": "t_uint256"
							},
							{
								"astId": 141,
								"contract": "contracts/Founding Citizens NFT Sale Privileged Buyers List Storage.sol:PrivilegedListStorage",
								"label": "idToCoupon",
								"offset": 0,
								"slot": "1",
								"type": "t_mapping(t_uint256,t_struct(Coupon)134_storage)"
							}
						],
						"numberOfBytes": "64"
					},
					"t_uint256": {
						"encoding": "inplace",
						"label": "uint256",
						"numberOfBytes": "32"
					}
				}
			},
			"userdoc": {
				"kind": "user",
				"methods": {},
				"version": 1
			}
		}
	}
}