{
	"contracts/Moderated Uris.sol": {
		"ModeratedUris": {
			"abi": [
				{
					"anonymous": false,
					"inputs": [
						{
							"indexed": true,
							"internalType": "bytes32",
							"name": "role",
							"type": "bytes32"
						},
						{
							"indexed": true,
							"internalType": "bytes32",
							"name": "previousAdminRole",
							"type": "bytes32"
						},
						{
							"indexed": true,
							"internalType": "bytes32",
							"name": "newAdminRole",
							"type": "bytes32"
						}
					],
					"name": "RoleAdminChanged",
					"type": "event"
				},
				{
					"anonymous": false,
					"inputs": [
						{
							"indexed": true,
							"internalType": "bytes32",
							"name": "role",
							"type": "bytes32"
						},
						{
							"indexed": true,
							"internalType": "address",
							"name": "account",
							"type": "address"
						},
						{
							"indexed": true,
							"internalType": "address",
							"name": "sender",
							"type": "address"
						}
					],
					"name": "RoleGranted",
					"type": "event"
				},
				{
					"anonymous": false,
					"inputs": [
						{
							"indexed": true,
							"internalType": "bytes32",
							"name": "role",
							"type": "bytes32"
						},
						{
							"indexed": true,
							"internalType": "address",
							"name": "account",
							"type": "address"
						},
						{
							"indexed": true,
							"internalType": "address",
							"name": "sender",
							"type": "address"
						}
					],
					"name": "RoleRevoked",
					"type": "event"
				},
				{
					"inputs": [],
					"name": "COUPON_USER_ROLE",
					"outputs": [
						{
							"internalType": "bytes32",
							"name": "",
							"type": "bytes32"
						}
					],
					"stateMutability": "view",
					"type": "function"
				},
				{
					"inputs": [],
					"name": "DEFAULT_ADMIN_ROLE",
					"outputs": [
						{
							"internalType": "bytes32",
							"name": "",
							"type": "bytes32"
						}
					],
					"stateMutability": "view",
					"type": "function"
				},
				{
					"inputs": [],
					"name": "URI_ADDER_ROLE",
					"outputs": [
						{
							"internalType": "bytes32",
							"name": "",
							"type": "bytes32"
						}
					],
					"stateMutability": "view",
					"type": "function"
				},
				{
					"inputs": [],
					"name": "URI_MANAGER_ROLE",
					"outputs": [
						{
							"internalType": "bytes32",
							"name": "",
							"type": "bytes32"
						}
					],
					"stateMutability": "view",
					"type": "function"
				},
				{
					"inputs": [
						{
							"internalType": "string",
							"name": "metadata_uri",
							"type": "string"
						}
					],
					"name": "approveMetadatForAll",
					"outputs": [],
					"stateMutability": "nonpayable",
					"type": "function"
				},
				{
					"inputs": [
						{
							"internalType": "uint256",
							"name": "id",
							"type": "uint256"
						},
						{
							"internalType": "string",
							"name": "metadata_uri",
							"type": "string"
						}
					],
					"name": "approveMetadatForId",
					"outputs": [],
					"stateMutability": "nonpayable",
					"type": "function"
				},
				{
					"inputs": [
						{
							"internalType": "string",
							"name": "metadata_uri",
							"type": "string"
						}
					],
					"name": "getAllApprovedIdsForMetadata",
					"outputs": [
						{
							"internalType": "uint256[]",
							"name": "",
							"type": "uint256[]"
						}
					],
					"stateMutability": "view",
					"type": "function"
				},
				{
					"inputs": [
						{
							"internalType": "uint256",
							"name": "id",
							"type": "uint256"
						},
						{
							"internalType": "bool",
							"name": "includeGloballyApproved",
							"type": "bool"
						}
					],
					"name": "getAllApprovedMetadatasForId",
					"outputs": [
						{
							"internalType": "string[]",
							"name": "",
							"type": "string[]"
						}
					],
					"stateMutability": "view",
					"type": "function"
				},
				{
					"inputs": [],
					"name": "getAllGloballyApprovedMetadata",
					"outputs": [
						{
							"internalType": "string[]",
							"name": "",
							"type": "string[]"
						}
					],
					"stateMutability": "view",
					"type": "function"
				},
				{
					"inputs": [
						{
							"internalType": "bytes32",
							"name": "role",
							"type": "bytes32"
						}
					],
					"name": "getRoleAdmin",
					"outputs": [
						{
							"internalType": "bytes32",
							"name": "",
							"type": "bytes32"
						}
					],
					"stateMutability": "view",
					"type": "function"
				},
				{
					"inputs": [
						{
							"internalType": "bytes32",
							"name": "role",
							"type": "bytes32"
						},
						{
							"internalType": "address",
							"name": "account",
							"type": "address"
						}
					],
					"name": "grantRole",
					"outputs": [],
					"stateMutability": "nonpayable",
					"type": "function"
				},
				{
					"inputs": [
						{
							"internalType": "bytes32",
							"name": "role",
							"type": "bytes32"
						},
						{
							"internalType": "address",
							"name": "account",
							"type": "address"
						}
					],
					"name": "hasRole",
					"outputs": [
						{
							"internalType": "bool",
							"name": "",
							"type": "bool"
						}
					],
					"stateMutability": "view",
					"type": "function"
				},
				{
					"inputs": [
						{
							"internalType": "string",
							"name": "metadata_uri",
							"type": "string"
						}
					],
					"name": "isMetadataApprovedForAll",
					"outputs": [
						{
							"internalType": "bool",
							"name": "",
							"type": "bool"
						}
					],
					"stateMutability": "view",
					"type": "function"
				},
				{
					"inputs": [
						{
							"internalType": "uint256",
							"name": "id",
							"type": "uint256"
						},
						{
							"internalType": "string",
							"name": "metadata_uri",
							"type": "string"
						}
					],
					"name": "isMetadataApprovedForId",
					"outputs": [
						{
							"internalType": "bool",
							"name": "",
							"type": "bool"
						}
					],
					"stateMutability": "view",
					"type": "function"
				},
				{
					"inputs": [],
					"name": "makeApprovedUriListsAppendOnly",
					"outputs": [],
					"stateMutability": "nonpayable",
					"type": "function"
				},
				{
					"inputs": [
						{
							"internalType": "bytes32",
							"name": "role",
							"type": "bytes32"
						},
						{
							"internalType": "address",
							"name": "account",
							"type": "address"
						}
					],
					"name": "renounceRole",
					"outputs": [],
					"stateMutability": "nonpayable",
					"type": "function"
				},
				{
					"inputs": [
						{
							"internalType": "bytes32",
							"name": "role",
							"type": "bytes32"
						},
						{
							"internalType": "address",
							"name": "account",
							"type": "address"
						}
					],
					"name": "revokeRole",
					"outputs": [],
					"stateMutability": "nonpayable",
					"type": "function"
				},
				{
					"inputs": [
						{
							"internalType": "bytes4",
							"name": "interfaceId",
							"type": "bytes4"
						}
					],
					"name": "supportsInterface",
					"outputs": [
						{
							"internalType": "bool",
							"name": "",
							"type": "bool"
						}
					],
					"stateMutability": "view",
					"type": "function"
				},
				{
					"inputs": [
						{
							"internalType": "uint256",
							"name": "id",
							"type": "uint256"
						}
					],
					"name": "unapproveAllMetadataForId",
					"outputs": [],
					"stateMutability": "nonpayable",
					"type": "function"
				},
				{
					"inputs": [
						{
							"internalType": "uint256",
							"name": "id",
							"type": "uint256"
						},
						{
							"internalType": "string",
							"name": "metadata_uri",
							"type": "string"
						}
					],
					"name": "unapproveMetadatForId",
					"outputs": [],
					"stateMutability": "nonpayable",
					"type": "function"
				},
				{
					"inputs": [
						{
							"internalType": "string",
							"name": "metadata_uri",
							"type": "string"
						}
					],
					"name": "unapproveMetadataForAll",
					"outputs": [],
					"stateMutability": "nonpayable",
					"type": "function"
				}
			],
			"devdoc": {
				"kind": "dev",
				"methods": {
					"getRoleAdmin(bytes32)": {
						"details": "Returns the admin role that controls `role`. See {grantRole} and {revokeRole}. To change a role's admin, use {_setRoleAdmin}."
					},
					"grantRole(bytes32,address)": {
						"details": "Grants `role` to `account`. If `account` had not been already granted `role`, emits a {RoleGranted} event. Requirements: - the caller must have ``role``'s admin role."
					},
					"hasRole(bytes32,address)": {
						"details": "Returns `true` if `account` has been granted `role`."
					},
					"renounceRole(bytes32,address)": {
						"details": "Revokes `role` from the calling account. Roles are often managed via {grantRole} and {revokeRole}: this function's purpose is to provide a mechanism for accounts to lose their privileges if they are compromised (such as when a trusted device is misplaced). If the calling account had been revoked `role`, emits a {RoleRevoked} event. Requirements: - the caller must be `account`."
					},
					"revokeRole(bytes32,address)": {
						"details": "Revokes `role` from `account`. If `account` had been granted `role`, emits a {RoleRevoked} event. Requirements: - the caller must have ``role``'s admin role."
					},
					"supportsInterface(bytes4)": {
						"details": "See {IERC165-supportsInterface}."
					}
				},
				"version": 1
			},
			"evm": {
				"assembly": "    /* \"contracts/Moderated Uris.sol\":130:12652  contract ModeratedUris is AccessControl {\r... */\n  mstore(0x40, 0x80)\n  callvalue\n  dup1\n  iszero\n  tag_1\n  jumpi\n  0x00\n  dup1\n  revert\ntag_1:\n  pop\n  dataSize(sub_0)\n  dup1\n  dataOffset(sub_0)\n  0x00\n  codecopy\n  0x00\n  return\nstop\n\nsub_0: assembly {\n        /* \"contracts/Moderated Uris.sol\":130:12652  contract ModeratedUris is AccessControl {\r... */\n      mstore(0x40, 0x80)\n      callvalue\n      dup1\n      iszero\n      tag_1\n      jumpi\n      0x00\n      dup1\n      revert\n    tag_1:\n      pop\n      jumpi(tag_2, lt(calldatasize, 0x04))\n      shr(0xe0, calldataload(0x00))\n      dup1\n      0x682d07d9\n      gt\n      tag_24\n      jumpi\n      dup1\n      0xb5a92ce5\n      gt\n      tag_25\n      jumpi\n      dup1\n      0xb5a92ce5\n      eq\n      tag_18\n      jumpi\n      dup1\n      0xc53dfdac\n      eq\n      tag_19\n      jumpi\n      dup1\n      0xcebdbea7\n      eq\n      tag_20\n      jumpi\n      dup1\n      0xd547741f\n      eq\n      tag_21\n      jumpi\n      dup1\n      0xdd1e1656\n      eq\n      tag_22\n      jumpi\n      dup1\n      0xe85eaaff\n      eq\n      tag_23\n      jumpi\n      jump(tag_2)\n    tag_25:\n      dup1\n      0x682d07d9\n      eq\n      tag_13\n      jumpi\n      dup1\n      0x68f9dbe1\n      eq\n      tag_14\n      jumpi\n      dup1\n      0x6d3cc82d\n      eq\n      tag_15\n      jumpi\n      dup1\n      0x91d14854\n      eq\n      tag_16\n      jumpi\n      dup1\n      0xa217fddf\n      eq\n      tag_17\n      jumpi\n      jump(tag_2)\n    tag_24:\n      dup1\n      0x2f2ff15d\n      gt\n      tag_26\n      jumpi\n      dup1\n      0x2f2ff15d\n      eq\n      tag_8\n      jumpi\n      dup1\n      0x33e06e7c\n      eq\n      tag_9\n      jumpi\n      dup1\n      0x36568abe\n      eq\n      tag_10\n      jumpi\n      dup1\n      0x3a2aa22b\n      eq\n      tag_11\n      jumpi\n      dup1\n      0x3d88cf3d\n      eq\n      tag_12\n      jumpi\n      jump(tag_2)\n    tag_26:\n      dup1\n      0x01ffc9a7\n      eq\n      tag_3\n      jumpi\n      dup1\n      0x15fda194\n      eq\n      tag_4\n      jumpi\n      dup1\n      0x248a9ca3\n      eq\n      tag_5\n      jumpi\n      dup1\n      0x263d336c\n      eq\n      tag_6\n      jumpi\n      dup1\n      0x29cb0531\n      eq\n      tag_7\n      jumpi\n    tag_2:\n      0x00\n      dup1\n      revert\n        /* \"@openzeppelin/contracts@4.4.2/access/AccessControl.sol\":2605:2807  function supportsInterface(bytes4 interfaceId) public view virtual override returns (bool) {... */\n    tag_3:\n      tag_27\n      0x04\n      dup1\n      calldatasize\n      sub\n      dup2\n      add\n      swap1\n      tag_28\n      swap2\n      swap1\n      tag_29\n      jump\t// in\n    tag_28:\n      tag_30\n      jump\t// in\n    tag_27:\n      mload(0x40)\n      tag_31\n      swap2\n      swap1\n      tag_32\n      jump\t// in\n    tag_31:\n      mload(0x40)\n      dup1\n      swap2\n      sub\n      swap1\n      return\n        /* \"contracts/Moderated Uris.sol\":11484:11823  function unapproveMetadatForId(uint id, string memory metadata_uri) \r... */\n    tag_4:\n      tag_33\n      0x04\n      dup1\n      calldatasize\n      sub\n      dup2\n      add\n      swap1\n      tag_34\n      swap2\n      swap1\n      tag_35\n      jump\t// in\n    tag_34:\n      tag_36\n      jump\t// in\n    tag_33:\n      stop\n        /* \"@openzeppelin/contracts@4.4.2/access/AccessControl.sol\":3977:4098  function getRoleAdmin(bytes32 role) public view override returns (bytes32) {... */\n    tag_5:\n      tag_37\n      0x04\n      dup1\n      calldatasize\n      sub\n      dup2\n      add\n      swap1\n      tag_38\n      swap2\n      swap1\n      tag_39\n      jump\t// in\n    tag_38:\n      tag_40\n      jump\t// in\n    tag_37:\n      mload(0x40)\n      tag_41\n      swap2\n      swap1\n      tag_42\n      jump\t// in\n    tag_41:\n      mload(0x40)\n      dup1\n      swap2\n      sub\n      swap1\n      return\n        /* \"contracts/Moderated Uris.sol\":333:405  bytes32 public constant COUPON_USER_ROLE = keccak256(\"COUPON_USER_ROLE\") */\n    tag_6:\n      tag_43\n      tag_44\n      jump\t// in\n    tag_43:\n      mload(0x40)\n      tag_45\n      swap2\n      swap1\n      tag_42\n      jump\t// in\n    tag_45:\n      mload(0x40)\n      dup1\n      swap2\n      sub\n      swap1\n      return\n        /* \"contracts/Moderated Uris.sol\":11907:12235  function unapproveMetadataForAll(string memory metadata_uri) \r... */\n    tag_7:\n      tag_46\n      0x04\n      dup1\n      calldatasize\n      sub\n      dup2\n      add\n      swap1\n      tag_47\n      swap2\n      swap1\n      tag_48\n      jump\t// in\n    tag_47:\n      tag_49\n      jump\t// in\n    tag_46:\n      stop\n        /* \"@openzeppelin/contracts@4.4.2/access/AccessControl.sol\":4348:4493  function grantRole(bytes32 role, address account) public virtual override onlyRole(getRoleAdmin(role)) {... */\n    tag_8:\n      tag_50\n      0x04\n      dup1\n      calldatasize\n      sub\n      dup2\n      add\n      swap1\n      tag_51\n      swap2\n      swap1\n      tag_52\n      jump\t// in\n    tag_51:\n      tag_53\n      jump\t// in\n    tag_50:\n      stop\n        /* \"contracts/Moderated Uris.sol\":11034:11415  function approveMetadatForAll(string memory metadata_uri) \r... */\n    tag_9:\n      tag_54\n      0x04\n      dup1\n      calldatasize\n      sub\n      dup2\n      add\n      swap1\n      tag_55\n      swap2\n      swap1\n      tag_48\n      jump\t// in\n    tag_55:\n      tag_56\n      jump\t// in\n    tag_54:\n      stop\n        /* \"@openzeppelin/contracts@4.4.2/access/AccessControl.sol\":5365:5579  function renounceRole(bytes32 role, address account) public virtual override {... */\n    tag_10:\n      tag_57\n      0x04\n      dup1\n      calldatasize\n      sub\n      dup2\n      add\n      swap1\n      tag_58\n      swap2\n      swap1\n      tag_52\n      jump\t// in\n    tag_58:\n      tag_59\n      jump\t// in\n    tag_57:\n      stop\n        /* \"contracts/Moderated Uris.sol\":9858:10004  function getAllGloballyApprovedMetadata() \r... */\n    tag_11:\n      tag_60\n      tag_61\n      jump\t// in\n    tag_60:\n      mload(0x40)\n      tag_62\n      swap2\n      swap1\n      tag_63\n      jump\t// in\n    tag_62:\n      mload(0x40)\n      dup1\n      swap2\n      sub\n      swap1\n      return\n        /* \"contracts/Moderated Uris.sol\":9694:9850  function isMetadataApprovedForAll(string memory metadata_uri)\r... */\n    tag_12:\n      tag_64\n      0x04\n      dup1\n      calldatasize\n      sub\n      dup2\n      add\n      swap1\n      tag_65\n      swap2\n      swap1\n      tag_48\n      jump\t// in\n    tag_65:\n      tag_66\n      jump\t// in\n    tag_64:\n      mload(0x40)\n      tag_67\n      swap2\n      swap1\n      tag_32\n      jump\t// in\n    tag_67:\n      mload(0x40)\n      dup1\n      swap2\n      sub\n      swap1\n      return\n        /* \"contracts/Moderated Uris.sol\":179:251  bytes32 public constant URI_MANAGER_ROLE = keccak256(\"URI_MANAGER_ROLE\") */\n    tag_13:\n      tag_68\n      tag_69\n      jump\t// in\n    tag_68:\n      mload(0x40)\n      tag_70\n      swap2\n      swap1\n      tag_42\n      jump\t// in\n    tag_70:\n      mload(0x40)\n      dup1\n      swap2\n      sub\n      swap1\n      return\n        /* \"contracts/Moderated Uris.sol\":10334:10512  function getAllApprovedIdsForMetadata(string memory metadata_uri) \r... */\n    tag_14:\n      tag_71\n      0x04\n      dup1\n      calldatasize\n      sub\n      dup2\n      add\n      swap1\n      tag_72\n      swap2\n      swap1\n      tag_48\n      jump\t// in\n    tag_72:\n      tag_73\n      jump\t// in\n    tag_71:\n      mload(0x40)\n      tag_74\n      swap2\n      swap1\n      tag_75\n      jump\t// in\n    tag_74:\n      mload(0x40)\n      dup1\n      swap2\n      sub\n      swap1\n      return\n        /* \"contracts/Moderated Uris.sol\":12354:12649  function unapproveAllMetadataForId(uint id) \r... */\n    tag_15:\n      tag_76\n      0x04\n      dup1\n      calldatasize\n      sub\n      dup2\n      add\n      swap1\n      tag_77\n      swap2\n      swap1\n      tag_78\n      jump\t// in\n    tag_77:\n      tag_79\n      jump\t// in\n    tag_76:\n      stop\n        /* \"@openzeppelin/contracts@4.4.2/access/AccessControl.sol\":2894:3031  function hasRole(bytes32 role, address account) public view override returns (bool) {... */\n    tag_16:\n      tag_80\n      0x04\n      dup1\n      calldatasize\n      sub\n      dup2\n      add\n      swap1\n      tag_81\n      swap2\n      swap1\n      tag_52\n      jump\t// in\n    tag_81:\n      tag_82\n      jump\t// in\n    tag_80:\n      mload(0x40)\n      tag_83\n      swap2\n      swap1\n      tag_32\n      jump\t// in\n    tag_83:\n      mload(0x40)\n      dup1\n      swap2\n      sub\n      swap1\n      return\n        /* \"@openzeppelin/contracts@4.4.2/access/AccessControl.sol\":2012:2061  bytes32 public constant DEFAULT_ADMIN_ROLE = 0x00 */\n    tag_17:\n      tag_84\n      tag_85\n      jump\t// in\n    tag_84:\n      mload(0x40)\n      tag_86\n      swap2\n      swap1\n      tag_42\n      jump\t// in\n    tag_86:\n      mload(0x40)\n      dup1\n      swap2\n      sub\n      swap1\n      return\n        /* \"contracts/Moderated Uris.sol\":258:326  bytes32 public constant URI_ADDER_ROLE = keccak256(\"URI_ADDER_ROLE\") */\n    tag_18:\n      tag_87\n      tag_88\n      jump\t// in\n    tag_87:\n      mload(0x40)\n      tag_89\n      swap2\n      swap1\n      tag_42\n      jump\t// in\n    tag_89:\n      mload(0x40)\n      dup1\n      swap2\n      sub\n      swap1\n      return\n        /* \"contracts/Moderated Uris.sol\":9288:9686  function isMetadataApprovedForId(uint id, string memory metadata_uri) \r... */\n    tag_19:\n      tag_90\n      0x04\n      dup1\n      calldatasize\n      sub\n      dup2\n      add\n      swap1\n      tag_91\n      swap2\n      swap1\n      tag_35\n      jump\t// in\n    tag_91:\n      tag_92\n      jump\t// in\n    tag_90:\n      mload(0x40)\n      tag_93\n      swap2\n      swap1\n      tag_32\n      jump\t// in\n    tag_93:\n      mload(0x40)\n      dup1\n      swap2\n      sub\n      swap1\n      return\n        /* \"contracts/Moderated Uris.sol\":10012:10326  function getAllApprovedMetadatasForId(uint id, bool includeGloballyApproved) \r... */\n    tag_20:\n      tag_94\n      0x04\n      dup1\n      calldatasize\n      sub\n      dup2\n      add\n      swap1\n      tag_95\n      swap2\n      swap1\n      tag_96\n      jump\t// in\n    tag_95:\n      tag_97\n      jump\t// in\n    tag_94:\n      mload(0x40)\n      tag_98\n      swap2\n      swap1\n      tag_63\n      jump\t// in\n    tag_98:\n      mload(0x40)\n      dup1\n      swap2\n      sub\n      swap1\n      return\n        /* \"@openzeppelin/contracts@4.4.2/access/AccessControl.sol\":4727:4874  function revokeRole(bytes32 role, address account) public virtual override onlyRole(getRoleAdmin(role)) {... */\n    tag_21:\n      tag_99\n      0x04\n      dup1\n      calldatasize\n      sub\n      dup2\n      add\n      swap1\n      tag_100\n      swap2\n      swap1\n      tag_52\n      jump\t// in\n    tag_100:\n      tag_101\n      jump\t// in\n    tag_99:\n      stop\n        /* \"contracts/Moderated Uris.sol\":499:624  function makeApprovedUriListsAppendOnly() public onlyRole(DEFAULT_ADMIN_ROLE) {\r... */\n    tag_22:\n      tag_102\n      tag_103\n      jump\t// in\n    tag_102:\n      stop\n        /* \"contracts/Moderated Uris.sol\":10578:10968  function approveMetadatForId(uint id, string memory metadata_uri) \r... */\n    tag_23:\n      tag_104\n      0x04\n      dup1\n      calldatasize\n      sub\n      dup2\n      add\n      swap1\n      tag_105\n      swap2\n      swap1\n      tag_35\n      jump\t// in\n    tag_105:\n      tag_106\n      jump\t// in\n    tag_104:\n      stop\n        /* \"@openzeppelin/contracts@4.4.2/access/AccessControl.sol\":2605:2807  function supportsInterface(bytes4 interfaceId) public view virtual override returns (bool) {... */\n    tag_30:\n        /* \"@openzeppelin/contracts@4.4.2/access/AccessControl.sol\":2690:2694  bool */\n      0x00\n        /* \"@openzeppelin/contracts@4.4.2/access/AccessControl.sol\":2728:2760  type(IAccessControl).interfaceId */\n      0x7965db0b00000000000000000000000000000000000000000000000000000000\n        /* \"@openzeppelin/contracts@4.4.2/access/AccessControl.sol\":2713:2760  interfaceId == type(IAccessControl).interfaceId */\n      not(0xffffffffffffffffffffffffffffffffffffffffffffffffffffffff)\n      and\n        /* \"@openzeppelin/contracts@4.4.2/access/AccessControl.sol\":2713:2724  interfaceId */\n      dup3\n        /* \"@openzeppelin/contracts@4.4.2/access/AccessControl.sol\":2713:2760  interfaceId == type(IAccessControl).interfaceId */\n      not(0xffffffffffffffffffffffffffffffffffffffffffffffffffffffff)\n      and\n      eq\n        /* \"@openzeppelin/contracts@4.4.2/access/AccessControl.sol\":2713:2800  interfaceId == type(IAccessControl).interfaceId || super.supportsInterface(interfaceId) */\n      dup1\n      tag_108\n      jumpi\n      pop\n        /* \"@openzeppelin/contracts@4.4.2/access/AccessControl.sol\":2764:2800  super.supportsInterface(interfaceId) */\n      tag_109\n        /* \"@openzeppelin/contracts@4.4.2/access/AccessControl.sol\":2788:2799  interfaceId */\n      dup3\n        /* \"@openzeppelin/contracts@4.4.2/access/AccessControl.sol\":2764:2787  super.supportsInterface */\n      tag_110\n        /* \"@openzeppelin/contracts@4.4.2/access/AccessControl.sol\":2764:2800  super.supportsInterface(interfaceId) */\n      jump\t// in\n    tag_109:\n        /* \"@openzeppelin/contracts@4.4.2/access/AccessControl.sol\":2713:2800  interfaceId == type(IAccessControl).interfaceId || super.supportsInterface(interfaceId) */\n    tag_108:\n        /* \"@openzeppelin/contracts@4.4.2/access/AccessControl.sol\":2706:2800  return interfaceId == type(IAccessControl).interfaceId || super.supportsInterface(interfaceId) */\n      swap1\n      pop\n        /* \"@openzeppelin/contracts@4.4.2/access/AccessControl.sol\":2605:2807  function supportsInterface(bytes4 interfaceId) public view virtual override returns (bool) {... */\n      swap2\n      swap1\n      pop\n      jump\t// out\n        /* \"contracts/Moderated Uris.sol\":11484:11823  function unapproveMetadatForId(uint id, string memory metadata_uri) \r... */\n    tag_36:\n        /* \"contracts/Moderated Uris.sol\":11598:11637  hasRole(URI_MANAGER_ROLE, _msgSender()) */\n      tag_112\n        /* \"contracts/Moderated Uris.sol\":222:251  keccak256(\"URI_MANAGER_ROLE\") */\n      0xa70a2d8710fed9f014c8c2af50c7c2f6b25748ae4cded822e03b7beed44cf3a8\n        /* \"contracts/Moderated Uris.sol\":11624:11636  _msgSender() */\n      tag_113\n        /* \"contracts/Moderated Uris.sol\":11624:11634  _msgSender */\n      tag_114\n        /* \"contracts/Moderated Uris.sol\":11624:11636  _msgSender() */\n      jump\t// in\n    tag_113:\n        /* \"contracts/Moderated Uris.sol\":11598:11605  hasRole */\n      tag_82\n        /* \"contracts/Moderated Uris.sol\":11598:11637  hasRole(URI_MANAGER_ROLE, _msgSender()) */\n      jump\t// in\n    tag_112:\n        /* \"contracts/Moderated Uris.sol\":11598:11696  hasRole(URI_MANAGER_ROLE, _msgSender()) || \r... */\n      dup1\n      tag_115\n      jumpi\n      pop\n        /* \"contracts/Moderated Uris.sol\":11655:11696  hasRole(DEFAULT_ADMIN_ROLE, _msgSender()) */\n      tag_116\n        /* \"@openzeppelin/contracts@4.4.2/access/AccessControl.sol\":2057:2061  0x00 */\n      0x00\n        /* \"contracts/Moderated Uris.sol\":11663:11681  DEFAULT_ADMIN_ROLE */\n      dup1\n      shl\n        /* \"contracts/Moderated Uris.sol\":11683:11695  _msgSender() */\n      tag_117\n        /* \"contracts/Moderated Uris.sol\":11683:11693  _msgSender */\n      tag_114\n        /* \"contracts/Moderated Uris.sol\":11683:11695  _msgSender() */\n      jump\t// in\n    tag_117:\n        /* \"contracts/Moderated Uris.sol\":11655:11662  hasRole */\n      tag_82\n        /* \"contracts/Moderated Uris.sol\":11655:11696  hasRole(DEFAULT_ADMIN_ROLE, _msgSender()) */\n      jump\t// in\n    tag_116:\n        /* \"contracts/Moderated Uris.sol\":11598:11696  hasRole(URI_MANAGER_ROLE, _msgSender()) || \r... */\n    tag_115:\n        /* \"contracts/Moderated Uris.sol\":11576:11758  require(\r... */\n      tag_118\n      jumpi\n      mload(0x40)\n      0x08c379a000000000000000000000000000000000000000000000000000000000\n      dup2\n      mstore\n      0x04\n      add\n      tag_119\n      swap1\n      tag_120\n      jump\t// in\n    tag_119:\n      mload(0x40)\n      dup1\n      swap2\n      sub\n      swap1\n      revert\n    tag_118:\n        /* \"contracts/Moderated Uris.sol\":11769:11815  _setIdUriPairApproval(id, metadata_uri, false) */\n      tag_121\n        /* \"contracts/Moderated Uris.sol\":11791:11793  id */\n      dup3\n        /* \"contracts/Moderated Uris.sol\":11795:11807  metadata_uri */\n      dup3\n        /* \"contracts/Moderated Uris.sol\":11809:11814  false */\n      0x00\n        /* \"contracts/Moderated Uris.sol\":11769:11790  _setIdUriPairApproval */\n      tag_122\n        /* \"contracts/Moderated Uris.sol\":11769:11815  _setIdUriPairApproval(id, metadata_uri, false) */\n      jump\t// in\n    tag_121:\n        /* \"contracts/Moderated Uris.sol\":11484:11823  function unapproveMetadatForId(uint id, string memory metadata_uri) \r... */\n      pop\n      pop\n      jump\t// out\n        /* \"@openzeppelin/contracts@4.4.2/access/AccessControl.sol\":3977:4098  function getRoleAdmin(bytes32 role) public view override returns (bytes32) {... */\n    tag_40:\n        /* \"@openzeppelin/contracts@4.4.2/access/AccessControl.sol\":4043:4050  bytes32 */\n      0x00\n        /* \"@openzeppelin/contracts@4.4.2/access/AccessControl.sol\":4069:4075  _roles */\n      dup1\n        /* \"@openzeppelin/contracts@4.4.2/access/AccessControl.sol\":4069:4081  _roles[role] */\n      0x00\n        /* \"@openzeppelin/contracts@4.4.2/access/AccessControl.sol\":4076:4080  role */\n      dup4\n        /* \"@openzeppelin/contracts@4.4.2/access/AccessControl.sol\":4069:4081  _roles[role] */\n      dup2\n      mstore\n      0x20\n      add\n      swap1\n      dup2\n      mstore\n      0x20\n      add\n      0x00\n      keccak256\n        /* \"@openzeppelin/contracts@4.4.2/access/AccessControl.sol\":4069:4091  _roles[role].adminRole */\n      0x01\n      add\n      sload\n        /* \"@openzeppelin/contracts@4.4.2/access/AccessControl.sol\":4062:4091  return _roles[role].adminRole */\n      swap1\n      pop\n        /* \"@openzeppelin/contracts@4.4.2/access/AccessControl.sol\":3977:4098  function getRoleAdmin(bytes32 role) public view override returns (bytes32) {... */\n      swap2\n      swap1\n      pop\n      jump\t// out\n        /* \"contracts/Moderated Uris.sol\":333:405  bytes32 public constant COUPON_USER_ROLE = keccak256(\"COUPON_USER_ROLE\") */\n    tag_44:\n        /* \"contracts/Moderated Uris.sol\":376:405  keccak256(\"COUPON_USER_ROLE\") */\n      0xad8e13ade6b5588e1a6049d70c1678b839105f007c5f6fb969ad8b1456160eac\n        /* \"contracts/Moderated Uris.sol\":333:405  bytes32 public constant COUPON_USER_ROLE = keccak256(\"COUPON_USER_ROLE\") */\n      dup2\n      jump\t// out\n        /* \"contracts/Moderated Uris.sol\":11907:12235  function unapproveMetadataForAll(string memory metadata_uri) \r... */\n    tag_49:\n        /* \"contracts/Moderated Uris.sol\":12014:12053  hasRole(URI_MANAGER_ROLE, _msgSender()) */\n      tag_125\n        /* \"contracts/Moderated Uris.sol\":222:251  keccak256(\"URI_MANAGER_ROLE\") */\n      0xa70a2d8710fed9f014c8c2af50c7c2f6b25748ae4cded822e03b7beed44cf3a8\n        /* \"contracts/Moderated Uris.sol\":12040:12052  _msgSender() */\n      tag_126\n        /* \"contracts/Moderated Uris.sol\":12040:12050  _msgSender */\n      tag_114\n        /* \"contracts/Moderated Uris.sol\":12040:12052  _msgSender() */\n      jump\t// in\n    tag_126:\n        /* \"contracts/Moderated Uris.sol\":12014:12021  hasRole */\n      tag_82\n        /* \"contracts/Moderated Uris.sol\":12014:12053  hasRole(URI_MANAGER_ROLE, _msgSender()) */\n      jump\t// in\n    tag_125:\n        /* \"contracts/Moderated Uris.sol\":12014:12112  hasRole(URI_MANAGER_ROLE, _msgSender()) || \r... */\n      dup1\n      tag_127\n      jumpi\n      pop\n        /* \"contracts/Moderated Uris.sol\":12071:12112  hasRole(DEFAULT_ADMIN_ROLE, _msgSender()) */\n      tag_128\n        /* \"@openzeppelin/contracts@4.4.2/access/AccessControl.sol\":2057:2061  0x00 */\n      0x00\n        /* \"contracts/Moderated Uris.sol\":12079:12097  DEFAULT_ADMIN_ROLE */\n      dup1\n      shl\n        /* \"contracts/Moderated Uris.sol\":12099:12111  _msgSender() */\n      tag_129\n        /* \"contracts/Moderated Uris.sol\":12099:12109  _msgSender */\n      tag_114\n        /* \"contracts/Moderated Uris.sol\":12099:12111  _msgSender() */\n      jump\t// in\n    tag_129:\n        /* \"contracts/Moderated Uris.sol\":12071:12078  hasRole */\n      tag_82\n        /* \"contracts/Moderated Uris.sol\":12071:12112  hasRole(DEFAULT_ADMIN_ROLE, _msgSender()) */\n      jump\t// in\n    tag_128:\n        /* \"contracts/Moderated Uris.sol\":12014:12112  hasRole(URI_MANAGER_ROLE, _msgSender()) || \r... */\n    tag_127:\n        /* \"contracts/Moderated Uris.sol\":11992:12174  require(\r... */\n      tag_130\n      jumpi\n      mload(0x40)\n      0x08c379a000000000000000000000000000000000000000000000000000000000\n      dup2\n      mstore\n      0x04\n      add\n      tag_131\n      swap1\n      tag_120\n      jump\t// in\n    tag_131:\n      mload(0x40)\n      dup1\n      swap2\n      sub\n      swap1\n      revert\n    tag_130:\n        /* \"contracts/Moderated Uris.sol\":12185:12227  _unapproveUriForAllIds(metadata_uri, true) */\n      tag_132\n        /* \"contracts/Moderated Uris.sol\":12208:12220  metadata_uri */\n      dup2\n        /* \"contracts/Moderated Uris.sol\":12222:12226  true */\n      0x01\n        /* \"contracts/Moderated Uris.sol\":12185:12207  _unapproveUriForAllIds */\n      tag_133\n        /* \"contracts/Moderated Uris.sol\":12185:12227  _unapproveUriForAllIds(metadata_uri, true) */\n      jump\t// in\n    tag_132:\n        /* \"contracts/Moderated Uris.sol\":11907:12235  function unapproveMetadataForAll(string memory metadata_uri) \r... */\n      pop\n      jump\t// out\n        /* \"@openzeppelin/contracts@4.4.2/access/AccessControl.sol\":4348:4493  function grantRole(bytes32 role, address account) public virtual override onlyRole(getRoleAdmin(role)) {... */\n    tag_53:\n        /* \"@openzeppelin/contracts@4.4.2/access/AccessControl.sol\":4431:4449  getRoleAdmin(role) */\n      tag_134\n        /* \"@openzeppelin/contracts@4.4.2/access/AccessControl.sol\":4444:4448  role */\n      dup3\n        /* \"@openzeppelin/contracts@4.4.2/access/AccessControl.sol\":4431:4443  getRoleAdmin */\n      tag_40\n        /* \"@openzeppelin/contracts@4.4.2/access/AccessControl.sol\":4431:4449  getRoleAdmin(role) */\n      jump\t// in\n    tag_134:\n        /* \"@openzeppelin/contracts@4.4.2/access/AccessControl.sol\":2490:2520  _checkRole(role, _msgSender()) */\n      tag_136\n        /* \"@openzeppelin/contracts@4.4.2/access/AccessControl.sol\":2501:2505  role */\n      dup2\n        /* \"@openzeppelin/contracts@4.4.2/access/AccessControl.sol\":2507:2519  _msgSender() */\n      tag_137\n        /* \"@openzeppelin/contracts@4.4.2/access/AccessControl.sol\":2507:2517  _msgSender */\n      tag_114\n        /* \"@openzeppelin/contracts@4.4.2/access/AccessControl.sol\":2507:2519  _msgSender() */\n      jump\t// in\n    tag_137:\n        /* \"@openzeppelin/contracts@4.4.2/access/AccessControl.sol\":2490:2500  _checkRole */\n      tag_138\n        /* \"@openzeppelin/contracts@4.4.2/access/AccessControl.sol\":2490:2520  _checkRole(role, _msgSender()) */\n      jump\t// in\n    tag_136:\n        /* \"@openzeppelin/contracts@4.4.2/access/AccessControl.sol\":4461:4486  _grantRole(role, account) */\n      tag_140\n        /* \"@openzeppelin/contracts@4.4.2/access/AccessControl.sol\":4472:4476  role */\n      dup4\n        /* \"@openzeppelin/contracts@4.4.2/access/AccessControl.sol\":4478:4485  account */\n      dup4\n        /* \"@openzeppelin/contracts@4.4.2/access/AccessControl.sol\":4461:4471  _grantRole */\n      tag_141\n        /* \"@openzeppelin/contracts@4.4.2/access/AccessControl.sol\":4461:4486  _grantRole(role, account) */\n      jump\t// in\n    tag_140:\n        /* \"@openzeppelin/contracts@4.4.2/access/AccessControl.sol\":4348:4493  function grantRole(bytes32 role, address account) public virtual override onlyRole(getRoleAdmin(role)) {... */\n      pop\n      pop\n      pop\n      jump\t// out\n        /* \"contracts/Moderated Uris.sol\":11034:11415  function approveMetadatForAll(string memory metadata_uri) \r... */\n    tag_56:\n        /* \"contracts/Moderated Uris.sol\":11138:11177  hasRole(URI_MANAGER_ROLE, _msgSender()) */\n      tag_143\n        /* \"contracts/Moderated Uris.sol\":222:251  keccak256(\"URI_MANAGER_ROLE\") */\n      0xa70a2d8710fed9f014c8c2af50c7c2f6b25748ae4cded822e03b7beed44cf3a8\n        /* \"contracts/Moderated Uris.sol\":11164:11176  _msgSender() */\n      tag_144\n        /* \"contracts/Moderated Uris.sol\":11164:11174  _msgSender */\n      tag_114\n        /* \"contracts/Moderated Uris.sol\":11164:11176  _msgSender() */\n      jump\t// in\n    tag_144:\n        /* \"contracts/Moderated Uris.sol\":11138:11145  hasRole */\n      tag_82\n        /* \"contracts/Moderated Uris.sol\":11138:11177  hasRole(URI_MANAGER_ROLE, _msgSender()) */\n      jump\t// in\n    tag_143:\n        /* \"contracts/Moderated Uris.sol\":11138:11232  hasRole(URI_MANAGER_ROLE, _msgSender()) || \r... */\n      dup1\n      tag_145\n      jumpi\n      pop\n        /* \"contracts/Moderated Uris.sol\":11195:11232  hasRole(URI_ADDER_ROLE, _msgSender()) */\n      tag_146\n        /* \"contracts/Moderated Uris.sol\":299:326  keccak256(\"URI_ADDER_ROLE\") */\n      0x59d7ee6b6a4d6cc1ade519e325968bd1178816ffd1a273fac3229469856403d2\n        /* \"contracts/Moderated Uris.sol\":11219:11231  _msgSender() */\n      tag_147\n        /* \"contracts/Moderated Uris.sol\":11219:11229  _msgSender */\n      tag_114\n        /* \"contracts/Moderated Uris.sol\":11219:11231  _msgSender() */\n      jump\t// in\n    tag_147:\n        /* \"contracts/Moderated Uris.sol\":11195:11202  hasRole */\n      tag_82\n        /* \"contracts/Moderated Uris.sol\":11195:11232  hasRole(URI_ADDER_ROLE, _msgSender()) */\n      jump\t// in\n    tag_146:\n        /* \"contracts/Moderated Uris.sol\":11138:11232  hasRole(URI_MANAGER_ROLE, _msgSender()) || \r... */\n    tag_145:\n        /* \"contracts/Moderated Uris.sol\":11138:11290  hasRole(URI_MANAGER_ROLE, _msgSender()) || \r... */\n      dup1\n      tag_148\n      jumpi\n      pop\n        /* \"contracts/Moderated Uris.sol\":11249:11290  hasRole(DEFAULT_ADMIN_ROLE, _msgSender()) */\n      tag_149\n        /* \"@openzeppelin/contracts@4.4.2/access/AccessControl.sol\":2057:2061  0x00 */\n      0x00\n        /* \"contracts/Moderated Uris.sol\":11257:11275  DEFAULT_ADMIN_ROLE */\n      dup1\n      shl\n        /* \"contracts/Moderated Uris.sol\":11277:11289  _msgSender() */\n      tag_150\n        /* \"contracts/Moderated Uris.sol\":11277:11287  _msgSender */\n      tag_114\n        /* \"contracts/Moderated Uris.sol\":11277:11289  _msgSender() */\n      jump\t// in\n    tag_150:\n        /* \"contracts/Moderated Uris.sol\":11249:11256  hasRole */\n      tag_82\n        /* \"contracts/Moderated Uris.sol\":11249:11290  hasRole(DEFAULT_ADMIN_ROLE, _msgSender()) */\n      jump\t// in\n    tag_149:\n        /* \"contracts/Moderated Uris.sol\":11138:11290  hasRole(URI_MANAGER_ROLE, _msgSender()) || \r... */\n    tag_148:\n        /* \"contracts/Moderated Uris.sol\":11116:11352  require(\r... */\n      tag_151\n      jumpi\n      mload(0x40)\n      0x08c379a000000000000000000000000000000000000000000000000000000000\n      dup2\n      mstore\n      0x04\n      add\n      tag_152\n      swap1\n      tag_120\n      jump\t// in\n    tag_152:\n      mload(0x40)\n      dup1\n      swap2\n      sub\n      swap1\n      revert\n    tag_151:\n        /* \"contracts/Moderated Uris.sol\":11363:11407  _setIdUriPairApproval(0, metadata_uri, true) */\n      tag_153\n        /* \"contracts/Moderated Uris.sol\":11385:11386  0 */\n      0x00\n        /* \"contracts/Moderated Uris.sol\":11388:11400  metadata_uri */\n      dup3\n        /* \"contracts/Moderated Uris.sol\":11402:11406  true */\n      0x01\n        /* \"contracts/Moderated Uris.sol\":11363:11384  _setIdUriPairApproval */\n      tag_122\n        /* \"contracts/Moderated Uris.sol\":11363:11407  _setIdUriPairApproval(0, metadata_uri, true) */\n      jump\t// in\n    tag_153:\n        /* \"contracts/Moderated Uris.sol\":11034:11415  function approveMetadatForAll(string memory metadata_uri) \r... */\n      pop\n      jump\t// out\n        /* \"@openzeppelin/contracts@4.4.2/access/AccessControl.sol\":5365:5579  function renounceRole(bytes32 role, address account) public virtual override {... */\n    tag_59:\n        /* \"@openzeppelin/contracts@4.4.2/access/AccessControl.sol\":5471:5483  _msgSender() */\n      tag_155\n        /* \"@openzeppelin/contracts@4.4.2/access/AccessControl.sol\":5471:5481  _msgSender */\n      tag_114\n        /* \"@openzeppelin/contracts@4.4.2/access/AccessControl.sol\":5471:5483  _msgSender() */\n      jump\t// in\n    tag_155:\n        /* \"@openzeppelin/contracts@4.4.2/access/AccessControl.sol\":5460:5483  account == _msgSender() */\n      0xffffffffffffffffffffffffffffffffffffffff\n      and\n        /* \"@openzeppelin/contracts@4.4.2/access/AccessControl.sol\":5460:5467  account */\n      dup2\n        /* \"@openzeppelin/contracts@4.4.2/access/AccessControl.sol\":5460:5483  account == _msgSender() */\n      0xffffffffffffffffffffffffffffffffffffffff\n      and\n      eq\n        /* \"@openzeppelin/contracts@4.4.2/access/AccessControl.sol\":5452:5535  require(account == _msgSender(), \"AccessControl: can only renounce roles for self\") */\n      tag_156\n      jumpi\n      mload(0x40)\n      0x08c379a000000000000000000000000000000000000000000000000000000000\n      dup2\n      mstore\n      0x04\n      add\n      tag_157\n      swap1\n      tag_158\n      jump\t// in\n    tag_157:\n      mload(0x40)\n      dup1\n      swap2\n      sub\n      swap1\n      revert\n    tag_156:\n        /* \"@openzeppelin/contracts@4.4.2/access/AccessControl.sol\":5546:5572  _revokeRole(role, account) */\n      tag_159\n        /* \"@openzeppelin/contracts@4.4.2/access/AccessControl.sol\":5558:5562  role */\n      dup3\n        /* \"@openzeppelin/contracts@4.4.2/access/AccessControl.sol\":5564:5571  account */\n      dup3\n        /* \"@openzeppelin/contracts@4.4.2/access/AccessControl.sol\":5546:5557  _revokeRole */\n      tag_160\n        /* \"@openzeppelin/contracts@4.4.2/access/AccessControl.sol\":5546:5572  _revokeRole(role, account) */\n      jump\t// in\n    tag_159:\n        /* \"@openzeppelin/contracts@4.4.2/access/AccessControl.sol\":5365:5579  function renounceRole(bytes32 role, address account) public virtual override {... */\n      pop\n      pop\n      jump\t// out\n        /* \"contracts/Moderated Uris.sol\":9858:10004  function getAllGloballyApprovedMetadata() \r... */\n    tag_61:\n        /* \"contracts/Moderated Uris.sol\":9926:9941  string[] memory */\n      0x60\n        /* \"contracts/Moderated Uris.sol\":9961:9996  _getAllApprovedUrisFromId(0, false) */\n      tag_162\n        /* \"contracts/Moderated Uris.sol\":9987:9988  0 */\n      0x00\n        /* \"contracts/Moderated Uris.sol\":9990:9995  false */\n      dup1\n        /* \"contracts/Moderated Uris.sol\":9961:9986  _getAllApprovedUrisFromId */\n      tag_163\n        /* \"contracts/Moderated Uris.sol\":9961:9996  _getAllApprovedUrisFromId(0, false) */\n      jump\t// in\n    tag_162:\n        /* \"contracts/Moderated Uris.sol\":9954:9996  return _getAllApprovedUrisFromId(0, false) */\n      swap1\n      pop\n        /* \"contracts/Moderated Uris.sol\":9858:10004  function getAllGloballyApprovedMetadata() \r... */\n      swap1\n      jump\t// out\n        /* \"contracts/Moderated Uris.sol\":9694:9850  function isMetadataApprovedForAll(string memory metadata_uri)\r... */\n    tag_66:\n        /* \"contracts/Moderated Uris.sol\":9781:9785  bool */\n      0x00\n        /* \"contracts/Moderated Uris.sol\":9805:9842  _isIdUriPairApproved(0, metadata_uri) */\n      tag_165\n        /* \"contracts/Moderated Uris.sol\":9826:9827  0 */\n      0x00\n        /* \"contracts/Moderated Uris.sol\":9829:9841  metadata_uri */\n      dup4\n        /* \"contracts/Moderated Uris.sol\":9805:9825  _isIdUriPairApproved */\n      tag_166\n        /* \"contracts/Moderated Uris.sol\":9805:9842  _isIdUriPairApproved(0, metadata_uri) */\n      jump\t// in\n    tag_165:\n        /* \"contracts/Moderated Uris.sol\":9798:9842  return _isIdUriPairApproved(0, metadata_uri) */\n      swap1\n      pop\n        /* \"contracts/Moderated Uris.sol\":9694:9850  function isMetadataApprovedForAll(string memory metadata_uri)\r... */\n      swap2\n      swap1\n      pop\n      jump\t// out\n        /* \"contracts/Moderated Uris.sol\":179:251  bytes32 public constant URI_MANAGER_ROLE = keccak256(\"URI_MANAGER_ROLE\") */\n    tag_69:\n        /* \"contracts/Moderated Uris.sol\":222:251  keccak256(\"URI_MANAGER_ROLE\") */\n      0xa70a2d8710fed9f014c8c2af50c7c2f6b25748ae4cded822e03b7beed44cf3a8\n        /* \"contracts/Moderated Uris.sol\":179:251  bytes32 public constant URI_MANAGER_ROLE = keccak256(\"URI_MANAGER_ROLE\") */\n      dup2\n      jump\t// out\n        /* \"contracts/Moderated Uris.sol\":10334:10512  function getAllApprovedIdsForMetadata(string memory metadata_uri) \r... */\n    tag_73:\n        /* \"contracts/Moderated Uris.sol\":10426:10439  uint[] memory */\n      0x60\n        /* \"contracts/Moderated Uris.sol\":10459:10504  _getAllApprovedIdsFromUri(metadata_uri, true) */\n      tag_168\n        /* \"contracts/Moderated Uris.sol\":10485:10497  metadata_uri */\n      dup3\n        /* \"contracts/Moderated Uris.sol\":10499:10503  true */\n      0x01\n        /* \"contracts/Moderated Uris.sol\":10459:10484  _getAllApprovedIdsFromUri */\n      tag_169\n        /* \"contracts/Moderated Uris.sol\":10459:10504  _getAllApprovedIdsFromUri(metadata_uri, true) */\n      jump\t// in\n    tag_168:\n        /* \"contracts/Moderated Uris.sol\":10452:10504  return _getAllApprovedIdsFromUri(metadata_uri, true) */\n      swap1\n      pop\n        /* \"contracts/Moderated Uris.sol\":10334:10512  function getAllApprovedIdsForMetadata(string memory metadata_uri) \r... */\n      swap2\n      swap1\n      pop\n      jump\t// out\n        /* \"contracts/Moderated Uris.sol\":12354:12649  function unapproveAllMetadataForId(uint id) \r... */\n    tag_79:\n        /* \"contracts/Moderated Uris.sol\":12444:12483  hasRole(URI_MANAGER_ROLE, _msgSender()) */\n      tag_171\n        /* \"contracts/Moderated Uris.sol\":222:251  keccak256(\"URI_MANAGER_ROLE\") */\n      0xa70a2d8710fed9f014c8c2af50c7c2f6b25748ae4cded822e03b7beed44cf3a8\n        /* \"contracts/Moderated Uris.sol\":12470:12482  _msgSender() */\n      tag_172\n        /* \"contracts/Moderated Uris.sol\":12470:12480  _msgSender */\n      tag_114\n        /* \"contracts/Moderated Uris.sol\":12470:12482  _msgSender() */\n      jump\t// in\n    tag_172:\n        /* \"contracts/Moderated Uris.sol\":12444:12451  hasRole */\n      tag_82\n        /* \"contracts/Moderated Uris.sol\":12444:12483  hasRole(URI_MANAGER_ROLE, _msgSender()) */\n      jump\t// in\n    tag_171:\n        /* \"contracts/Moderated Uris.sol\":12444:12542  hasRole(URI_MANAGER_ROLE, _msgSender()) || \r... */\n      dup1\n      tag_173\n      jumpi\n      pop\n        /* \"contracts/Moderated Uris.sol\":12501:12542  hasRole(DEFAULT_ADMIN_ROLE, _msgSender()) */\n      tag_174\n        /* \"@openzeppelin/contracts@4.4.2/access/AccessControl.sol\":2057:2061  0x00 */\n      0x00\n        /* \"contracts/Moderated Uris.sol\":12509:12527  DEFAULT_ADMIN_ROLE */\n      dup1\n      shl\n        /* \"contracts/Moderated Uris.sol\":12529:12541  _msgSender() */\n      tag_175\n        /* \"contracts/Moderated Uris.sol\":12529:12539  _msgSender */\n      tag_114\n        /* \"contracts/Moderated Uris.sol\":12529:12541  _msgSender() */\n      jump\t// in\n    tag_175:\n        /* \"contracts/Moderated Uris.sol\":12501:12508  hasRole */\n      tag_82\n        /* \"contracts/Moderated Uris.sol\":12501:12542  hasRole(DEFAULT_ADMIN_ROLE, _msgSender()) */\n      jump\t// in\n    tag_174:\n        /* \"contracts/Moderated Uris.sol\":12444:12542  hasRole(URI_MANAGER_ROLE, _msgSender()) || \r... */\n    tag_173:\n        /* \"contracts/Moderated Uris.sol\":12422:12604  require(\r... */\n      tag_176\n      jumpi\n      mload(0x40)\n      0x08c379a000000000000000000000000000000000000000000000000000000000\n      dup2\n      mstore\n      0x04\n      add\n      tag_177\n      swap1\n      tag_120\n      jump\t// in\n    tag_177:\n      mload(0x40)\n      dup1\n      swap2\n      sub\n      swap1\n      revert\n    tag_176:\n        /* \"contracts/Moderated Uris.sol\":12615:12641  _unapproveAllUrisForId(id) */\n      tag_178\n        /* \"contracts/Moderated Uris.sol\":12638:12640  id */\n      dup2\n        /* \"contracts/Moderated Uris.sol\":12615:12637  _unapproveAllUrisForId */\n      tag_179\n        /* \"contracts/Moderated Uris.sol\":12615:12641  _unapproveAllUrisForId(id) */\n      jump\t// in\n    tag_178:\n        /* \"contracts/Moderated Uris.sol\":12354:12649  function unapproveAllMetadataForId(uint id) \r... */\n      pop\n      jump\t// out\n        /* \"@openzeppelin/contracts@4.4.2/access/AccessControl.sol\":2894:3031  function hasRole(bytes32 role, address account) public view override returns (bool) {... */\n    tag_82:\n        /* \"@openzeppelin/contracts@4.4.2/access/AccessControl.sol\":2972:2976  bool */\n      0x00\n        /* \"@openzeppelin/contracts@4.4.2/access/AccessControl.sol\":2995:3001  _roles */\n      dup1\n        /* \"@openzeppelin/contracts@4.4.2/access/AccessControl.sol\":2995:3007  _roles[role] */\n      0x00\n        /* \"@openzeppelin/contracts@4.4.2/access/AccessControl.sol\":3002:3006  role */\n      dup5\n        /* \"@openzeppelin/contracts@4.4.2/access/AccessControl.sol\":2995:3007  _roles[role] */\n      dup2\n      mstore\n      0x20\n      add\n      swap1\n      dup2\n      mstore\n      0x20\n      add\n      0x00\n      keccak256\n        /* \"@openzeppelin/contracts@4.4.2/access/AccessControl.sol\":2995:3015  _roles[role].members */\n      0x00\n      add\n        /* \"@openzeppelin/contracts@4.4.2/access/AccessControl.sol\":2995:3024  _roles[role].members[account] */\n      0x00\n        /* \"@openzeppelin/contracts@4.4.2/access/AccessControl.sol\":3016:3023  account */\n      dup4\n        /* \"@openzeppelin/contracts@4.4.2/access/AccessControl.sol\":2995:3024  _roles[role].members[account] */\n      0xffffffffffffffffffffffffffffffffffffffff\n      and\n      0xffffffffffffffffffffffffffffffffffffffff\n      and\n      dup2\n      mstore\n      0x20\n      add\n      swap1\n      dup2\n      mstore\n      0x20\n      add\n      0x00\n      keccak256\n      0x00\n      swap1\n      sload\n      swap1\n      0x0100\n      exp\n      swap1\n      div\n      0xff\n      and\n        /* \"@openzeppelin/contracts@4.4.2/access/AccessControl.sol\":2988:3024  return _roles[role].members[account] */\n      swap1\n      pop\n        /* \"@openzeppelin/contracts@4.4.2/access/AccessControl.sol\":2894:3031  function hasRole(bytes32 role, address account) public view override returns (bool) {... */\n      swap3\n      swap2\n      pop\n      pop\n      jump\t// out\n        /* \"@openzeppelin/contracts@4.4.2/access/AccessControl.sol\":2012:2061  bytes32 public constant DEFAULT_ADMIN_ROLE = 0x00 */\n    tag_85:\n        /* \"@openzeppelin/contracts@4.4.2/access/AccessControl.sol\":2057:2061  0x00 */\n      0x00\n        /* \"@openzeppelin/contracts@4.4.2/access/AccessControl.sol\":2012:2061  bytes32 public constant DEFAULT_ADMIN_ROLE = 0x00 */\n      dup1\n      shl\n      dup2\n      jump\t// out\n        /* \"contracts/Moderated Uris.sol\":258:326  bytes32 public constant URI_ADDER_ROLE = keccak256(\"URI_ADDER_ROLE\") */\n    tag_88:\n        /* \"contracts/Moderated Uris.sol\":299:326  keccak256(\"URI_ADDER_ROLE\") */\n      0x59d7ee6b6a4d6cc1ade519e325968bd1178816ffd1a273fac3229469856403d2\n        /* \"contracts/Moderated Uris.sol\":258:326  bytes32 public constant URI_ADDER_ROLE = keccak256(\"URI_ADDER_ROLE\") */\n      dup2\n      jump\t// out\n        /* \"contracts/Moderated Uris.sol\":9288:9686  function isMetadataApprovedForId(uint id, string memory metadata_uri) \r... */\n    tag_92:\n        /* \"contracts/Moderated Uris.sol\":9384:9388  bool */\n      0x00\n        /* \"contracts/Moderated Uris.sol\":9406:9436  _entryExists(id, metadata_uri) */\n      tag_182\n        /* \"contracts/Moderated Uris.sol\":9419:9421  id */\n      dup4\n        /* \"contracts/Moderated Uris.sol\":9423:9435  metadata_uri */\n      dup4\n        /* \"contracts/Moderated Uris.sol\":9406:9418  _entryExists */\n      tag_183\n        /* \"contracts/Moderated Uris.sol\":9406:9436  _entryExists(id, metadata_uri) */\n      jump\t// in\n    tag_182:\n        /* \"contracts/Moderated Uris.sol\":9401:9679  if (!_entryExists(id, metadata_uri)) { \r... */\n      tag_184\n      jumpi\n        /* \"contracts/Moderated Uris.sol\":9461:9498  _isIdUriPairApproved(0, metadata_uri) */\n      tag_185\n        /* \"contracts/Moderated Uris.sol\":9482:9483  0 */\n      0x00\n        /* \"contracts/Moderated Uris.sol\":9485:9497  metadata_uri */\n      dup4\n        /* \"contracts/Moderated Uris.sol\":9461:9481  _isIdUriPairApproved */\n      tag_166\n        /* \"contracts/Moderated Uris.sol\":9461:9498  _isIdUriPairApproved(0, metadata_uri) */\n      jump\t// in\n    tag_185:\n        /* \"contracts/Moderated Uris.sol\":9454:9498  return _isIdUriPairApproved(0, metadata_uri) */\n      swap1\n      pop\n      jump(tag_181)\n        /* \"contracts/Moderated Uris.sol\":9401:9679  if (!_entryExists(id, metadata_uri)) { \r... */\n    tag_184:\n        /* \"contracts/Moderated Uris.sol\":9556:9594  _isIdUriPairApproved(id, metadata_uri) */\n      tag_187\n        /* \"contracts/Moderated Uris.sol\":9577:9579  id */\n      dup4\n        /* \"contracts/Moderated Uris.sol\":9581:9593  metadata_uri */\n      dup4\n        /* \"contracts/Moderated Uris.sol\":9556:9576  _isIdUriPairApproved */\n      tag_166\n        /* \"contracts/Moderated Uris.sol\":9556:9594  _isIdUriPairApproved(id, metadata_uri) */\n      jump\t// in\n    tag_187:\n        /* \"contracts/Moderated Uris.sol\":9556:9653  _isIdUriPairApproved(id, metadata_uri) || \r... */\n      dup1\n      tag_188\n      jumpi\n      pop\n        /* \"contracts/Moderated Uris.sol\":9616:9653  _isIdUriPairApproved(0, metadata_uri) */\n      tag_189\n        /* \"contracts/Moderated Uris.sol\":9637:9638  0 */\n      0x00\n        /* \"contracts/Moderated Uris.sol\":9640:9652  metadata_uri */\n      dup4\n        /* \"contracts/Moderated Uris.sol\":9616:9636  _isIdUriPairApproved */\n      tag_166\n        /* \"contracts/Moderated Uris.sol\":9616:9653  _isIdUriPairApproved(0, metadata_uri) */\n      jump\t// in\n    tag_189:\n        /* \"contracts/Moderated Uris.sol\":9556:9653  _isIdUriPairApproved(id, metadata_uri) || \r... */\n    tag_188:\n        /* \"contracts/Moderated Uris.sol\":9531:9653  return \r... */\n      swap1\n      pop\n        /* \"contracts/Moderated Uris.sol\":9288:9686  function isMetadataApprovedForId(uint id, string memory metadata_uri) \r... */\n    tag_181:\n      swap3\n      swap2\n      pop\n      pop\n      jump\t// out\n        /* \"contracts/Moderated Uris.sol\":10012:10326  function getAllApprovedMetadatasForId(uint id, bool includeGloballyApproved) \r... */\n    tag_97:\n        /* \"contracts/Moderated Uris.sol\":10115:10130  string[] memory */\n      0x60\n        /* \"contracts/Moderated Uris.sol\":10153:10154  0 */\n      0x00\n        /* \"contracts/Moderated Uris.sol\":10147:10149  id */\n      dup4\n        /* \"contracts/Moderated Uris.sol\":10147:10154  id == 0 */\n      eq\n        /* \"contracts/Moderated Uris.sol\":10143:10319  if (id == 0) {\r... */\n      iszero\n      tag_191\n      jumpi\n        /* \"contracts/Moderated Uris.sol\":10178:10213  _getAllApprovedUrisFromId(0, false) */\n      tag_192\n        /* \"contracts/Moderated Uris.sol\":10204:10205  0 */\n      0x00\n        /* \"contracts/Moderated Uris.sol\":10207:10212  false */\n      dup1\n        /* \"contracts/Moderated Uris.sol\":10178:10203  _getAllApprovedUrisFromId */\n      tag_163\n        /* \"contracts/Moderated Uris.sol\":10178:10213  _getAllApprovedUrisFromId(0, false) */\n      jump\t// in\n    tag_192:\n        /* \"contracts/Moderated Uris.sol\":10171:10213  return _getAllApprovedUrisFromId(0, false) */\n      swap1\n      pop\n      jump(tag_190)\n        /* \"contracts/Moderated Uris.sol\":10143:10319  if (id == 0) {\r... */\n    tag_191:\n        /* \"contracts/Moderated Uris.sol\":10253:10307  _getAllApprovedUrisFromId(id, includeGloballyApproved) */\n      tag_194\n        /* \"contracts/Moderated Uris.sol\":10279:10281  id */\n      dup4\n        /* \"contracts/Moderated Uris.sol\":10283:10306  includeGloballyApproved */\n      dup4\n        /* \"contracts/Moderated Uris.sol\":10253:10278  _getAllApprovedUrisFromId */\n      tag_163\n        /* \"contracts/Moderated Uris.sol\":10253:10307  _getAllApprovedUrisFromId(id, includeGloballyApproved) */\n      jump\t// in\n    tag_194:\n        /* \"contracts/Moderated Uris.sol\":10246:10307  return _getAllApprovedUrisFromId(id, includeGloballyApproved) */\n      swap1\n      pop\n        /* \"contracts/Moderated Uris.sol\":10012:10326  function getAllApprovedMetadatasForId(uint id, bool includeGloballyApproved) \r... */\n    tag_190:\n      swap3\n      swap2\n      pop\n      pop\n      jump\t// out\n        /* \"@openzeppelin/contracts@4.4.2/access/AccessControl.sol\":4727:4874  function revokeRole(bytes32 role, address account) public virtual override onlyRole(getRoleAdmin(role)) {... */\n    tag_101:\n        /* \"@openzeppelin/contracts@4.4.2/access/AccessControl.sol\":4811:4829  getRoleAdmin(role) */\n      tag_195\n        /* \"@openzeppelin/contracts@4.4.2/access/AccessControl.sol\":4824:4828  role */\n      dup3\n        /* \"@openzeppelin/contracts@4.4.2/access/AccessControl.sol\":4811:4823  getRoleAdmin */\n      tag_40\n        /* \"@openzeppelin/contracts@4.4.2/access/AccessControl.sol\":4811:4829  getRoleAdmin(role) */\n      jump\t// in\n    tag_195:\n        /* \"@openzeppelin/contracts@4.4.2/access/AccessControl.sol\":2490:2520  _checkRole(role, _msgSender()) */\n      tag_197\n        /* \"@openzeppelin/contracts@4.4.2/access/AccessControl.sol\":2501:2505  role */\n      dup2\n        /* \"@openzeppelin/contracts@4.4.2/access/AccessControl.sol\":2507:2519  _msgSender() */\n      tag_198\n        /* \"@openzeppelin/contracts@4.4.2/access/AccessControl.sol\":2507:2517  _msgSender */\n      tag_114\n        /* \"@openzeppelin/contracts@4.4.2/access/AccessControl.sol\":2507:2519  _msgSender() */\n      jump\t// in\n    tag_198:\n        /* \"@openzeppelin/contracts@4.4.2/access/AccessControl.sol\":2490:2500  _checkRole */\n      tag_138\n        /* \"@openzeppelin/contracts@4.4.2/access/AccessControl.sol\":2490:2520  _checkRole(role, _msgSender()) */\n      jump\t// in\n    tag_197:\n        /* \"@openzeppelin/contracts@4.4.2/access/AccessControl.sol\":4841:4867  _revokeRole(role, account) */\n      tag_200\n        /* \"@openzeppelin/contracts@4.4.2/access/AccessControl.sol\":4853:4857  role */\n      dup4\n        /* \"@openzeppelin/contracts@4.4.2/access/AccessControl.sol\":4859:4866  account */\n      dup4\n        /* \"@openzeppelin/contracts@4.4.2/access/AccessControl.sol\":4841:4852  _revokeRole */\n      tag_160\n        /* \"@openzeppelin/contracts@4.4.2/access/AccessControl.sol\":4841:4867  _revokeRole(role, account) */\n      jump\t// in\n    tag_200:\n        /* \"@openzeppelin/contracts@4.4.2/access/AccessControl.sol\":4727:4874  function revokeRole(bytes32 role, address account) public virtual override onlyRole(getRoleAdmin(role)) {... */\n      pop\n      pop\n      pop\n      jump\t// out\n        /* \"contracts/Moderated Uris.sol\":499:624  function makeApprovedUriListsAppendOnly() public onlyRole(DEFAULT_ADMIN_ROLE) {\r... */\n    tag_103:\n        /* \"@openzeppelin/contracts@4.4.2/access/AccessControl.sol\":2057:2061  0x00 */\n      0x00\n        /* \"contracts/Moderated Uris.sol\":557:575  DEFAULT_ADMIN_ROLE */\n      dup1\n      shl\n        /* \"@openzeppelin/contracts@4.4.2/access/AccessControl.sol\":2490:2520  _checkRole(role, _msgSender()) */\n      tag_202\n        /* \"@openzeppelin/contracts@4.4.2/access/AccessControl.sol\":2501:2505  role */\n      dup2\n        /* \"@openzeppelin/contracts@4.4.2/access/AccessControl.sol\":2507:2519  _msgSender() */\n      tag_203\n        /* \"@openzeppelin/contracts@4.4.2/access/AccessControl.sol\":2507:2517  _msgSender */\n      tag_114\n        /* \"@openzeppelin/contracts@4.4.2/access/AccessControl.sol\":2507:2519  _msgSender() */\n      jump\t// in\n    tag_203:\n        /* \"@openzeppelin/contracts@4.4.2/access/AccessControl.sol\":2490:2500  _checkRole */\n      tag_138\n        /* \"@openzeppelin/contracts@4.4.2/access/AccessControl.sol\":2490:2520  _checkRole(role, _msgSender()) */\n      jump\t// in\n    tag_202:\n        /* \"contracts/Moderated Uris.sol\":611:616  false */\n      0x00\n        /* \"contracts/Moderated Uris.sol\":588:608  canRevokeUriApproval */\n      0x01\n      0x00\n        /* \"contracts/Moderated Uris.sol\":588:616  canRevokeUriApproval = false */\n      0x0100\n      exp\n      dup2\n      sload\n      dup2\n      0xff\n      mul\n      not\n      and\n      swap1\n      dup4\n      iszero\n      iszero\n      mul\n      or\n      swap1\n      sstore\n      pop\n        /* \"contracts/Moderated Uris.sol\":499:624  function makeApprovedUriListsAppendOnly() public onlyRole(DEFAULT_ADMIN_ROLE) {\r... */\n      pop\n      jump\t// out\n        /* \"contracts/Moderated Uris.sol\":10578:10968  function approveMetadatForId(uint id, string memory metadata_uri) \r... */\n    tag_106:\n        /* \"contracts/Moderated Uris.sol\":10690:10729  hasRole(URI_MANAGER_ROLE, _msgSender()) */\n      tag_206\n        /* \"contracts/Moderated Uris.sol\":222:251  keccak256(\"URI_MANAGER_ROLE\") */\n      0xa70a2d8710fed9f014c8c2af50c7c2f6b25748ae4cded822e03b7beed44cf3a8\n        /* \"contracts/Moderated Uris.sol\":10716:10728  _msgSender() */\n      tag_207\n        /* \"contracts/Moderated Uris.sol\":10716:10726  _msgSender */\n      tag_114\n        /* \"contracts/Moderated Uris.sol\":10716:10728  _msgSender() */\n      jump\t// in\n    tag_207:\n        /* \"contracts/Moderated Uris.sol\":10690:10697  hasRole */\n      tag_82\n        /* \"contracts/Moderated Uris.sol\":10690:10729  hasRole(URI_MANAGER_ROLE, _msgSender()) */\n      jump\t// in\n    tag_206:\n        /* \"contracts/Moderated Uris.sol\":10690:10784  hasRole(URI_MANAGER_ROLE, _msgSender()) || \r... */\n      dup1\n      tag_208\n      jumpi\n      pop\n        /* \"contracts/Moderated Uris.sol\":10747:10784  hasRole(URI_ADDER_ROLE, _msgSender()) */\n      tag_209\n        /* \"contracts/Moderated Uris.sol\":299:326  keccak256(\"URI_ADDER_ROLE\") */\n      0x59d7ee6b6a4d6cc1ade519e325968bd1178816ffd1a273fac3229469856403d2\n        /* \"contracts/Moderated Uris.sol\":10771:10783  _msgSender() */\n      tag_210\n        /* \"contracts/Moderated Uris.sol\":10771:10781  _msgSender */\n      tag_114\n        /* \"contracts/Moderated Uris.sol\":10771:10783  _msgSender() */\n      jump\t// in\n    tag_210:\n        /* \"contracts/Moderated Uris.sol\":10747:10754  hasRole */\n      tag_82\n        /* \"contracts/Moderated Uris.sol\":10747:10784  hasRole(URI_ADDER_ROLE, _msgSender()) */\n      jump\t// in\n    tag_209:\n        /* \"contracts/Moderated Uris.sol\":10690:10784  hasRole(URI_MANAGER_ROLE, _msgSender()) || \r... */\n    tag_208:\n        /* \"contracts/Moderated Uris.sol\":10690:10842  hasRole(URI_MANAGER_ROLE, _msgSender()) || \r... */\n      dup1\n      tag_211\n      jumpi\n      pop\n        /* \"contracts/Moderated Uris.sol\":10801:10842  hasRole(DEFAULT_ADMIN_ROLE, _msgSender()) */\n      tag_212\n        /* \"@openzeppelin/contracts@4.4.2/access/AccessControl.sol\":2057:2061  0x00 */\n      0x00\n        /* \"contracts/Moderated Uris.sol\":10809:10827  DEFAULT_ADMIN_ROLE */\n      dup1\n      shl\n        /* \"contracts/Moderated Uris.sol\":10829:10841  _msgSender() */\n      tag_213\n        /* \"contracts/Moderated Uris.sol\":10829:10839  _msgSender */\n      tag_114\n        /* \"contracts/Moderated Uris.sol\":10829:10841  _msgSender() */\n      jump\t// in\n    tag_213:\n        /* \"contracts/Moderated Uris.sol\":10801:10808  hasRole */\n      tag_82\n        /* \"contracts/Moderated Uris.sol\":10801:10842  hasRole(DEFAULT_ADMIN_ROLE, _msgSender()) */\n      jump\t// in\n    tag_212:\n        /* \"contracts/Moderated Uris.sol\":10690:10842  hasRole(URI_MANAGER_ROLE, _msgSender()) || \r... */\n    tag_211:\n        /* \"contracts/Moderated Uris.sol\":10668:10904  require(\r... */\n      tag_214\n      jumpi\n      mload(0x40)\n      0x08c379a000000000000000000000000000000000000000000000000000000000\n      dup2\n      mstore\n      0x04\n      add\n      tag_215\n      swap1\n      tag_120\n      jump\t// in\n    tag_215:\n      mload(0x40)\n      dup1\n      swap2\n      sub\n      swap1\n      revert\n    tag_214:\n        /* \"contracts/Moderated Uris.sol\":10915:10960  _setIdUriPairApproval(id, metadata_uri, true) */\n      tag_216\n        /* \"contracts/Moderated Uris.sol\":10937:10939  id */\n      dup3\n        /* \"contracts/Moderated Uris.sol\":10941:10953  metadata_uri */\n      dup3\n        /* \"contracts/Moderated Uris.sol\":10955:10959  true */\n      0x01\n        /* \"contracts/Moderated Uris.sol\":10915:10936  _setIdUriPairApproval */\n      tag_122\n        /* \"contracts/Moderated Uris.sol\":10915:10960  _setIdUriPairApproval(id, metadata_uri, true) */\n      jump\t// in\n    tag_216:\n        /* \"contracts/Moderated Uris.sol\":10578:10968  function approveMetadatForId(uint id, string memory metadata_uri) \r... */\n      pop\n      pop\n      jump\t// out\n        /* \"@openzeppelin/contracts@4.4.2/utils/introspection/ERC165.sol\":829:984  function supportsInterface(bytes4 interfaceId) public view virtual override returns (bool) {... */\n    tag_110:\n        /* \"@openzeppelin/contracts@4.4.2/utils/introspection/ERC165.sol\":914:918  bool */\n      0x00\n        /* \"@openzeppelin/contracts@4.4.2/utils/introspection/ERC165.sol\":952:977  type(IERC165).interfaceId */\n      0x01ffc9a700000000000000000000000000000000000000000000000000000000\n        /* \"@openzeppelin/contracts@4.4.2/utils/introspection/ERC165.sol\":937:977  interfaceId == type(IERC165).interfaceId */\n      not(0xffffffffffffffffffffffffffffffffffffffffffffffffffffffff)\n      and\n        /* \"@openzeppelin/contracts@4.4.2/utils/introspection/ERC165.sol\":937:948  interfaceId */\n      dup3\n        /* \"@openzeppelin/contracts@4.4.2/utils/introspection/ERC165.sol\":937:977  interfaceId == type(IERC165).interfaceId */\n      not(0xffffffffffffffffffffffffffffffffffffffffffffffffffffffff)\n      and\n      eq\n        /* \"@openzeppelin/contracts@4.4.2/utils/introspection/ERC165.sol\":930:977  return interfaceId == type(IERC165).interfaceId */\n      swap1\n      pop\n        /* \"@openzeppelin/contracts@4.4.2/utils/introspection/ERC165.sol\":829:984  function supportsInterface(bytes4 interfaceId) public view virtual override returns (bool) {... */\n      swap2\n      swap1\n      pop\n      jump\t// out\n        /* \"@openzeppelin/contracts@4.4.2/utils/Context.sol\":640:736  function _msgSender() internal view virtual returns (address) {... */\n    tag_114:\n        /* \"@openzeppelin/contracts@4.4.2/utils/Context.sol\":693:700  address */\n      0x00\n        /* \"@openzeppelin/contracts@4.4.2/utils/Context.sol\":719:729  msg.sender */\n      caller\n        /* \"@openzeppelin/contracts@4.4.2/utils/Context.sol\":712:729  return msg.sender */\n      swap1\n      pop\n        /* \"@openzeppelin/contracts@4.4.2/utils/Context.sol\":640:736  function _msgSender() internal view virtual returns (address) {... */\n      swap1\n      jump\t// out\n        /* \"contracts/Moderated Uris.sol\":9013:9278  function _setIdUriPairApproval(uint id, string memory uri, bool approved) \r... */\n    tag_122:\n        /* \"contracts/Moderated Uris.sol\":9117:9138  _entryExists(id, uri) */\n      tag_220\n        /* \"contracts/Moderated Uris.sol\":9130:9132  id */\n      dup4\n        /* \"contracts/Moderated Uris.sol\":9134:9137  uri */\n      dup4\n        /* \"contracts/Moderated Uris.sol\":9117:9129  _entryExists */\n      tag_183\n        /* \"contracts/Moderated Uris.sol\":9117:9138  _entryExists(id, uri) */\n      jump\t// in\n    tag_220:\n        /* \"contracts/Moderated Uris.sol\":9112:9271  if (!_entryExists(id, uri)) { \r... */\n      tag_221\n      jumpi\n        /* \"contracts/Moderated Uris.sol\":9156:9185  _makeEntry(id, uri, approved) */\n      tag_222\n        /* \"contracts/Moderated Uris.sol\":9167:9169  id */\n      dup4\n        /* \"contracts/Moderated Uris.sol\":9171:9174  uri */\n      dup4\n        /* \"contracts/Moderated Uris.sol\":9176:9184  approved */\n      dup4\n        /* \"contracts/Moderated Uris.sol\":9156:9166  _makeEntry */\n      tag_223\n        /* \"contracts/Moderated Uris.sol\":9156:9185  _makeEntry(id, uri, approved) */\n      jump\t// in\n    tag_222:\n        /* \"contracts/Moderated Uris.sol\":9112:9271  if (!_entryExists(id, uri)) { \r... */\n      jump(tag_224)\n    tag_221:\n        /* \"contracts/Moderated Uris.sol\":9228:9259  _updateEntry(id, uri, approved) */\n      tag_225\n        /* \"contracts/Moderated Uris.sol\":9241:9243  id */\n      dup4\n        /* \"contracts/Moderated Uris.sol\":9245:9248  uri */\n      dup4\n        /* \"contracts/Moderated Uris.sol\":9250:9258  approved */\n      dup4\n        /* \"contracts/Moderated Uris.sol\":9228:9240  _updateEntry */\n      tag_226\n        /* \"contracts/Moderated Uris.sol\":9228:9259  _updateEntry(id, uri, approved) */\n      jump\t// in\n    tag_225:\n        /* \"contracts/Moderated Uris.sol\":9112:9271  if (!_entryExists(id, uri)) { \r... */\n    tag_224:\n        /* \"contracts/Moderated Uris.sol\":9013:9278  function _setIdUriPairApproval(uint id, string memory uri, bool approved) \r... */\n      pop\n      pop\n      pop\n      jump\t// out\n        /* \"contracts/Moderated Uris.sol\":8160:8566  function _unapproveUriForAllIds(\r... */\n    tag_133:\n        /* \"contracts/Moderated Uris.sol\":8291:8301  uint count */\n      0x00\n        /* \"contracts/Moderated Uris.sol\":8286:8559  for (uint count = 0; count < _state.indexesWithUri[uri].length; count++) {\r... */\n    tag_228:\n        /* \"contracts/Moderated Uris.sol\":8315:8321  _state */\n      0x02\n        /* \"contracts/Moderated Uris.sol\":8315:8336  _state.indexesWithUri */\n      dup1\n      add\n        /* \"contracts/Moderated Uris.sol\":8337:8340  uri */\n      dup4\n        /* \"contracts/Moderated Uris.sol\":8315:8341  _state.indexesWithUri[uri] */\n      mload(0x40)\n      tag_231\n      swap2\n      swap1\n      tag_232\n      jump\t// in\n    tag_231:\n      swap1\n      dup2\n      mstore\n      0x20\n      add\n      mload(0x40)\n      dup1\n      swap2\n      sub\n      swap1\n      keccak256\n        /* \"contracts/Moderated Uris.sol\":8315:8348  _state.indexesWithUri[uri].length */\n      dup1\n      sload\n      swap1\n      pop\n        /* \"contracts/Moderated Uris.sol\":8307:8312  count */\n      dup2\n        /* \"contracts/Moderated Uris.sol\":8307:8348  count < _state.indexesWithUri[uri].length */\n      lt\n        /* \"contracts/Moderated Uris.sol\":8286:8559  for (uint count = 0; count < _state.indexesWithUri[uri].length; count++) {\r... */\n      iszero\n      tag_229\n      jumpi\n        /* \"contracts/Moderated Uris.sol\":8374:8380  uint i */\n      0x00\n        /* \"contracts/Moderated Uris.sol\":8383:8389  _state */\n      0x02\n        /* \"contracts/Moderated Uris.sol\":8383:8404  _state.indexesWithUri */\n      dup1\n      add\n        /* \"contracts/Moderated Uris.sol\":8405:8408  uri */\n      dup5\n        /* \"contracts/Moderated Uris.sol\":8383:8409  _state.indexesWithUri[uri] */\n      mload(0x40)\n      tag_233\n      swap2\n      swap1\n      tag_232\n      jump\t// in\n    tag_233:\n      swap1\n      dup2\n      mstore\n      0x20\n      add\n      mload(0x40)\n      dup1\n      swap2\n      sub\n      swap1\n      keccak256\n        /* \"contracts/Moderated Uris.sol\":8410:8415  count */\n      dup3\n        /* \"contracts/Moderated Uris.sol\":8383:8416  _state.indexesWithUri[uri][count] */\n      dup2\n      sload\n      dup2\n      lt\n      tag_234\n      jumpi\n      mstore(0x00, 0x4e487b7100000000000000000000000000000000000000000000000000000000)\n      mstore(0x04, 0x32)\n      revert(0x00, 0x24)\n    tag_234:\n      swap1\n      0x00\n      mstore\n      keccak256(0x00, 0x20)\n      add\n      sload\n        /* \"contracts/Moderated Uris.sol\":8374:8416  uint i = _state.indexesWithUri[uri][count] */\n      swap1\n      pop\n        /* \"contracts/Moderated Uris.sol\":8435:8458  includeGloballyApproved */\n      dup3\n        /* \"contracts/Moderated Uris.sol\":8435:8487  includeGloballyApproved || !__entryIsGlobal(i, true) */\n      dup1\n      tag_236\n      jumpi\n      pop\n        /* \"contracts/Moderated Uris.sol\":8463:8487  __entryIsGlobal(i, true) */\n      tag_237\n        /* \"contracts/Moderated Uris.sol\":8479:8480  i */\n      dup2\n        /* \"contracts/Moderated Uris.sol\":8482:8486  true */\n      0x01\n        /* \"contracts/Moderated Uris.sol\":8463:8478  __entryIsGlobal */\n      tag_238\n        /* \"contracts/Moderated Uris.sol\":8463:8487  __entryIsGlobal(i, true) */\n      jump\t// in\n    tag_237:\n        /* \"contracts/Moderated Uris.sol\":8462:8487  !__entryIsGlobal(i, true) */\n      iszero\n        /* \"contracts/Moderated Uris.sol\":8435:8487  includeGloballyApproved || !__entryIsGlobal(i, true) */\n    tag_236:\n        /* \"contracts/Moderated Uris.sol\":8431:8547  if (includeGloballyApproved || !__entryIsGlobal(i, true)) {\r... */\n      iszero\n      tag_239\n      jumpi\n        /* \"contracts/Moderated Uris.sol\":8508:8531  __updateEntry(i, false) */\n      tag_240\n        /* \"contracts/Moderated Uris.sol\":8522:8523  i */\n      dup2\n        /* \"contracts/Moderated Uris.sol\":8525:8530  false */\n      0x00\n        /* \"contracts/Moderated Uris.sol\":8508:8521  __updateEntry */\n      tag_241\n        /* \"contracts/Moderated Uris.sol\":8508:8531  __updateEntry(i, false) */\n      jump\t// in\n    tag_240:\n        /* \"contracts/Moderated Uris.sol\":8431:8547  if (includeGloballyApproved || !__entryIsGlobal(i, true)) {\r... */\n    tag_239:\n        /* \"contracts/Moderated Uris.sol\":8286:8559  for (uint count = 0; count < _state.indexesWithUri[uri].length; count++) {\r... */\n      pop\n        /* \"contracts/Moderated Uris.sol\":8350:8357  count++ */\n      dup1\n      dup1\n      tag_242\n      swap1\n      tag_243\n      jump\t// in\n    tag_242:\n      swap2\n      pop\n      pop\n        /* \"contracts/Moderated Uris.sol\":8286:8559  for (uint count = 0; count < _state.indexesWithUri[uri].length; count++) {\r... */\n      jump(tag_228)\n    tag_229:\n      pop\n        /* \"contracts/Moderated Uris.sol\":8160:8566  function _unapproveUriForAllIds(\r... */\n      pop\n      pop\n      jump\t// out\n        /* \"@openzeppelin/contracts@4.4.2/access/AccessControl.sol\":3312:3796  function _checkRole(bytes32 role, address account) internal view {... */\n    tag_138:\n        /* \"@openzeppelin/contracts@4.4.2/access/AccessControl.sol\":3392:3414  hasRole(role, account) */\n      tag_245\n        /* \"@openzeppelin/contracts@4.4.2/access/AccessControl.sol\":3400:3404  role */\n      dup3\n        /* \"@openzeppelin/contracts@4.4.2/access/AccessControl.sol\":3406:3413  account */\n      dup3\n        /* \"@openzeppelin/contracts@4.4.2/access/AccessControl.sol\":3392:3399  hasRole */\n      tag_82\n        /* \"@openzeppelin/contracts@4.4.2/access/AccessControl.sol\":3392:3414  hasRole(role, account) */\n      jump\t// in\n    tag_245:\n        /* \"@openzeppelin/contracts@4.4.2/access/AccessControl.sol\":3387:3790  if (!hasRole(role, account)) {... */\n      tag_246\n      jumpi\n        /* \"@openzeppelin/contracts@4.4.2/access/AccessControl.sol\":3575:3616  Strings.toHexString(uint160(account), 20) */\n      tag_247\n        /* \"@openzeppelin/contracts@4.4.2/access/AccessControl.sol\":3603:3610  account */\n      dup2\n        /* \"@openzeppelin/contracts@4.4.2/access/AccessControl.sol\":3575:3616  Strings.toHexString(uint160(account), 20) */\n      0xffffffffffffffffffffffffffffffffffffffff\n      and\n        /* \"@openzeppelin/contracts@4.4.2/access/AccessControl.sol\":3613:3615  20 */\n      0x14\n        /* \"@openzeppelin/contracts@4.4.2/access/AccessControl.sol\":3575:3594  Strings.toHexString */\n      tag_248\n        /* \"@openzeppelin/contracts@4.4.2/access/AccessControl.sol\":3575:3616  Strings.toHexString(uint160(account), 20) */\n      jump\t// in\n    tag_247:\n        /* \"@openzeppelin/contracts@4.4.2/access/AccessControl.sol\":3687:3725  Strings.toHexString(uint256(role), 32) */\n      tag_249\n        /* \"@openzeppelin/contracts@4.4.2/access/AccessControl.sol\":3715:3719  role */\n      dup4\n        /* \"@openzeppelin/contracts@4.4.2/access/AccessControl.sol\":3707:3720  uint256(role) */\n      0x00\n      shr\n        /* \"@openzeppelin/contracts@4.4.2/access/AccessControl.sol\":3722:3724  32 */\n      0x20\n        /* \"@openzeppelin/contracts@4.4.2/access/AccessControl.sol\":3687:3706  Strings.toHexString */\n      tag_248\n        /* \"@openzeppelin/contracts@4.4.2/access/AccessControl.sol\":3687:3725  Strings.toHexString(uint256(role), 32) */\n      jump\t// in\n    tag_249:\n        /* \"@openzeppelin/contracts@4.4.2/access/AccessControl.sol\":3482:3747  abi.encodePacked(... */\n      add(0x20, mload(0x40))\n      tag_250\n      swap3\n      swap2\n      swap1\n      tag_251\n      jump\t// in\n    tag_250:\n      mload(0x40)\n      0x20\n      dup2\n      dup4\n      sub\n      sub\n      dup2\n      mstore\n      swap1\n      0x40\n      mstore\n        /* \"@openzeppelin/contracts@4.4.2/access/AccessControl.sol\":3430:3779  revert(... */\n      mload(0x40)\n      0x08c379a000000000000000000000000000000000000000000000000000000000\n      dup2\n      mstore\n      0x04\n      add\n      tag_252\n      swap2\n      swap1\n      tag_253\n      jump\t// in\n    tag_252:\n      mload(0x40)\n      dup1\n      swap2\n      sub\n      swap1\n      revert\n        /* \"@openzeppelin/contracts@4.4.2/access/AccessControl.sol\":3387:3790  if (!hasRole(role, account)) {... */\n    tag_246:\n        /* \"@openzeppelin/contracts@4.4.2/access/AccessControl.sol\":3312:3796  function _checkRole(bytes32 role, address account) internal view {... */\n      pop\n      pop\n      jump\t// out\n        /* \"@openzeppelin/contracts@4.4.2/access/AccessControl.sol\":6822:7055  function _grantRole(bytes32 role, address account) internal virtual {... */\n    tag_141:\n        /* \"@openzeppelin/contracts@4.4.2/access/AccessControl.sol\":6905:6927  hasRole(role, account) */\n      tag_255\n        /* \"@openzeppelin/contracts@4.4.2/access/AccessControl.sol\":6913:6917  role */\n      dup3\n        /* \"@openzeppelin/contracts@4.4.2/access/AccessControl.sol\":6919:6926  account */\n      dup3\n        /* \"@openzeppelin/contracts@4.4.2/access/AccessControl.sol\":6905:6912  hasRole */\n      tag_82\n        /* \"@openzeppelin/contracts@4.4.2/access/AccessControl.sol\":6905:6927  hasRole(role, account) */\n      jump\t// in\n    tag_255:\n        /* \"@openzeppelin/contracts@4.4.2/access/AccessControl.sol\":6900:7049  if (!hasRole(role, account)) {... */\n      tag_256\n      jumpi\n        /* \"@openzeppelin/contracts@4.4.2/access/AccessControl.sol\":6975:6979  true */\n      0x01\n        /* \"@openzeppelin/contracts@4.4.2/access/AccessControl.sol\":6943:6949  _roles */\n      0x00\n        /* \"@openzeppelin/contracts@4.4.2/access/AccessControl.sol\":6943:6955  _roles[role] */\n      dup1\n        /* \"@openzeppelin/contracts@4.4.2/access/AccessControl.sol\":6950:6954  role */\n      dup5\n        /* \"@openzeppelin/contracts@4.4.2/access/AccessControl.sol\":6943:6955  _roles[role] */\n      dup2\n      mstore\n      0x20\n      add\n      swap1\n      dup2\n      mstore\n      0x20\n      add\n      0x00\n      keccak256\n        /* \"@openzeppelin/contracts@4.4.2/access/AccessControl.sol\":6943:6963  _roles[role].members */\n      0x00\n      add\n        /* \"@openzeppelin/contracts@4.4.2/access/AccessControl.sol\":6943:6972  _roles[role].members[account] */\n      0x00\n        /* \"@openzeppelin/contracts@4.4.2/access/AccessControl.sol\":6964:6971  account */\n      dup4\n        /* \"@openzeppelin/contracts@4.4.2/access/AccessControl.sol\":6943:6972  _roles[role].members[account] */\n      0xffffffffffffffffffffffffffffffffffffffff\n      and\n      0xffffffffffffffffffffffffffffffffffffffff\n      and\n      dup2\n      mstore\n      0x20\n      add\n      swap1\n      dup2\n      mstore\n      0x20\n      add\n      0x00\n      keccak256\n      0x00\n        /* \"@openzeppelin/contracts@4.4.2/access/AccessControl.sol\":6943:6979  _roles[role].members[account] = true */\n      0x0100\n      exp\n      dup2\n      sload\n      dup2\n      0xff\n      mul\n      not\n      and\n      swap1\n      dup4\n      iszero\n      iszero\n      mul\n      or\n      swap1\n      sstore\n      pop\n        /* \"@openzeppelin/contracts@4.4.2/access/AccessControl.sol\":7025:7037  _msgSender() */\n      tag_257\n        /* \"@openzeppelin/contracts@4.4.2/access/AccessControl.sol\":7025:7035  _msgSender */\n      tag_114\n        /* \"@openzeppelin/contracts@4.4.2/access/AccessControl.sol\":7025:7037  _msgSender() */\n      jump\t// in\n    tag_257:\n        /* \"@openzeppelin/contracts@4.4.2/access/AccessControl.sol\":6998:7038  RoleGranted(role, account, _msgSender()) */\n      0xffffffffffffffffffffffffffffffffffffffff\n      and\n        /* \"@openzeppelin/contracts@4.4.2/access/AccessControl.sol\":7016:7023  account */\n      dup2\n        /* \"@openzeppelin/contracts@4.4.2/access/AccessControl.sol\":6998:7038  RoleGranted(role, account, _msgSender()) */\n      0xffffffffffffffffffffffffffffffffffffffff\n      and\n        /* \"@openzeppelin/contracts@4.4.2/access/AccessControl.sol\":7010:7014  role */\n      dup4\n        /* \"@openzeppelin/contracts@4.4.2/access/AccessControl.sol\":6998:7038  RoleGranted(role, account, _msgSender()) */\n      0x2f8788117e7eff1d82e926ec794901d17c78024a50270940304540a733656f0d\n      mload(0x40)\n      mload(0x40)\n      dup1\n      swap2\n      sub\n      swap1\n      log4\n        /* \"@openzeppelin/contracts@4.4.2/access/AccessControl.sol\":6900:7049  if (!hasRole(role, account)) {... */\n    tag_256:\n        /* \"@openzeppelin/contracts@4.4.2/access/AccessControl.sol\":6822:7055  function _grantRole(bytes32 role, address account) internal virtual {... */\n      pop\n      pop\n      jump\t// out\n        /* \"@openzeppelin/contracts@4.4.2/access/AccessControl.sol\":7180:7414  function _revokeRole(bytes32 role, address account) internal virtual {... */\n    tag_160:\n        /* \"@openzeppelin/contracts@4.4.2/access/AccessControl.sol\":7263:7285  hasRole(role, account) */\n      tag_259\n        /* \"@openzeppelin/contracts@4.4.2/access/AccessControl.sol\":7271:7275  role */\n      dup3\n        /* \"@openzeppelin/contracts@4.4.2/access/AccessControl.sol\":7277:7284  account */\n      dup3\n        /* \"@openzeppelin/contracts@4.4.2/access/AccessControl.sol\":7263:7270  hasRole */\n      tag_82\n        /* \"@openzeppelin/contracts@4.4.2/access/AccessControl.sol\":7263:7285  hasRole(role, account) */\n      jump\t// in\n    tag_259:\n        /* \"@openzeppelin/contracts@4.4.2/access/AccessControl.sol\":7259:7408  if (hasRole(role, account)) {... */\n      iszero\n      tag_260\n      jumpi\n        /* \"@openzeppelin/contracts@4.4.2/access/AccessControl.sol\":7333:7338  false */\n      0x00\n        /* \"@openzeppelin/contracts@4.4.2/access/AccessControl.sol\":7301:7307  _roles */\n      dup1\n        /* \"@openzeppelin/contracts@4.4.2/access/AccessControl.sol\":7301:7313  _roles[role] */\n      0x00\n        /* \"@openzeppelin/contracts@4.4.2/access/AccessControl.sol\":7308:7312  role */\n      dup5\n        /* \"@openzeppelin/contracts@4.4.2/access/AccessControl.sol\":7301:7313  _roles[role] */\n      dup2\n      mstore\n      0x20\n      add\n      swap1\n      dup2\n      mstore\n      0x20\n      add\n      0x00\n      keccak256\n        /* \"@openzeppelin/contracts@4.4.2/access/AccessControl.sol\":7301:7321  _roles[role].members */\n      0x00\n      add\n        /* \"@openzeppelin/contracts@4.4.2/access/AccessControl.sol\":7301:7330  _roles[role].members[account] */\n      0x00\n        /* \"@openzeppelin/contracts@4.4.2/access/AccessControl.sol\":7322:7329  account */\n      dup4\n        /* \"@openzeppelin/contracts@4.4.2/access/AccessControl.sol\":7301:7330  _roles[role].members[account] */\n      0xffffffffffffffffffffffffffffffffffffffff\n      and\n      0xffffffffffffffffffffffffffffffffffffffff\n      and\n      dup2\n      mstore\n      0x20\n      add\n      swap1\n      dup2\n      mstore\n      0x20\n      add\n      0x00\n      keccak256\n      0x00\n        /* \"@openzeppelin/contracts@4.4.2/access/AccessControl.sol\":7301:7338  _roles[role].members[account] = false */\n      0x0100\n      exp\n      dup2\n      sload\n      dup2\n      0xff\n      mul\n      not\n      and\n      swap1\n      dup4\n      iszero\n      iszero\n      mul\n      or\n      swap1\n      sstore\n      pop\n        /* \"@openzeppelin/contracts@4.4.2/access/AccessControl.sol\":7384:7396  _msgSender() */\n      tag_261\n        /* \"@openzeppelin/contracts@4.4.2/access/AccessControl.sol\":7384:7394  _msgSender */\n      tag_114\n        /* \"@openzeppelin/contracts@4.4.2/access/AccessControl.sol\":7384:7396  _msgSender() */\n      jump\t// in\n    tag_261:\n        /* \"@openzeppelin/contracts@4.4.2/access/AccessControl.sol\":7357:7397  RoleRevoked(role, account, _msgSender()) */\n      0xffffffffffffffffffffffffffffffffffffffff\n      and\n        /* \"@openzeppelin/contracts@4.4.2/access/AccessControl.sol\":7375:7382  account */\n      dup2\n        /* \"@openzeppelin/contracts@4.4.2/access/AccessControl.sol\":7357:7397  RoleRevoked(role, account, _msgSender()) */\n      0xffffffffffffffffffffffffffffffffffffffff\n      and\n        /* \"@openzeppelin/contracts@4.4.2/access/AccessControl.sol\":7369:7373  role */\n      dup4\n        /* \"@openzeppelin/contracts@4.4.2/access/AccessControl.sol\":7357:7397  RoleRevoked(role, account, _msgSender()) */\n      0xf6391f5c32d9c69d2a47ea670b442974b53935d1edc7fd64eb21e047a839171b\n      mload(0x40)\n      mload(0x40)\n      dup1\n      swap2\n      sub\n      swap1\n      log4\n        /* \"@openzeppelin/contracts@4.4.2/access/AccessControl.sol\":7259:7408  if (hasRole(role, account)) {... */\n    tag_260:\n        /* \"@openzeppelin/contracts@4.4.2/access/AccessControl.sol\":7180:7414  function _revokeRole(bytes32 role, address account) internal virtual {... */\n      pop\n      pop\n      jump\t// out\n        /* \"contracts/Moderated Uris.sol\":6122:6787  function _getAllApprovedUrisFromId(uint id, bool includeGloballyApproved) \r... */\n    tag_163:\n        /* \"contracts/Moderated Uris.sol\":6223:6238  string[] memory */\n      0x60\n        /* \"contracts/Moderated Uris.sol\":6251:6274  string[] memory results */\n      dup1\n        /* \"contracts/Moderated Uris.sol\":6289:6312  includeGloballyApproved */\n      dup3\n        /* \"contracts/Moderated Uris.sol\":6285:6386  if (includeGloballyApproved) {\r... */\n      iszero\n      tag_263\n      jumpi\n        /* \"contracts/Moderated Uris.sol\":6339:6374  _getAllApprovedUrisFromId(0, false) */\n      tag_264\n        /* \"contracts/Moderated Uris.sol\":6365:6366  0 */\n      0x00\n        /* \"contracts/Moderated Uris.sol\":6368:6373  false */\n      dup1\n        /* \"contracts/Moderated Uris.sol\":6339:6364  _getAllApprovedUrisFromId */\n      tag_163\n        /* \"contracts/Moderated Uris.sol\":6339:6374  _getAllApprovedUrisFromId(0, false) */\n      jump\t// in\n    tag_264:\n        /* \"contracts/Moderated Uris.sol\":6329:6374  results = _getAllApprovedUrisFromId(0, false) */\n      swap1\n      pop\n        /* \"contracts/Moderated Uris.sol\":6285:6386  if (includeGloballyApproved) {\r... */\n    tag_263:\n        /* \"contracts/Moderated Uris.sol\":6396:6412  uint returnCount */\n      0x00\n        /* \"contracts/Moderated Uris.sol\":6415:6422  results */\n      dup2\n        /* \"contracts/Moderated Uris.sol\":6415:6429  results.length */\n      mload\n        /* \"contracts/Moderated Uris.sol\":6396:6429  uint returnCount = results.length */\n      swap1\n      pop\n        /* \"contracts/Moderated Uris.sol\":6445:6455  uint count */\n      0x00\n        /* \"contracts/Moderated Uris.sol\":6440:6755  for (uint count = 0; count < _state.indexesWithId[id].length; count++) {\r... */\n    tag_265:\n        /* \"contracts/Moderated Uris.sol\":6469:6475  _state */\n      0x02\n        /* \"contracts/Moderated Uris.sol\":6469:6489  _state.indexesWithId */\n      0x03\n      add\n        /* \"contracts/Moderated Uris.sol\":6469:6493  _state.indexesWithId[id] */\n      0x00\n        /* \"contracts/Moderated Uris.sol\":6490:6492  id */\n      dup8\n        /* \"contracts/Moderated Uris.sol\":6469:6493  _state.indexesWithId[id] */\n      dup2\n      mstore\n      0x20\n      add\n      swap1\n      dup2\n      mstore\n      0x20\n      add\n      0x00\n      keccak256\n        /* \"contracts/Moderated Uris.sol\":6469:6500  _state.indexesWithId[id].length */\n      dup1\n      sload\n      swap1\n      pop\n        /* \"contracts/Moderated Uris.sol\":6461:6466  count */\n      dup2\n        /* \"contracts/Moderated Uris.sol\":6461:6500  count < _state.indexesWithId[id].length */\n      lt\n        /* \"contracts/Moderated Uris.sol\":6440:6755  for (uint count = 0; count < _state.indexesWithId[id].length; count++) {\r... */\n      iszero\n      tag_266\n      jumpi\n        /* \"contracts/Moderated Uris.sol\":6526:6532  uint i */\n      0x00\n        /* \"contracts/Moderated Uris.sol\":6535:6541  _state */\n      0x02\n        /* \"contracts/Moderated Uris.sol\":6535:6555  _state.indexesWithId */\n      0x03\n      add\n        /* \"contracts/Moderated Uris.sol\":6535:6559  _state.indexesWithId[id] */\n      0x00\n        /* \"contracts/Moderated Uris.sol\":6556:6558  id */\n      dup9\n        /* \"contracts/Moderated Uris.sol\":6535:6559  _state.indexesWithId[id] */\n      dup2\n      mstore\n      0x20\n      add\n      swap1\n      dup2\n      mstore\n      0x20\n      add\n      0x00\n      keccak256\n        /* \"contracts/Moderated Uris.sol\":6560:6565  count */\n      dup3\n        /* \"contracts/Moderated Uris.sol\":6535:6566  _state.indexesWithId[id][count] */\n      dup2\n      sload\n      dup2\n      lt\n      tag_268\n      jumpi\n      mstore(0x00, 0x4e487b7100000000000000000000000000000000000000000000000000000000)\n      mstore(0x04, 0x32)\n      revert(0x00, 0x24)\n    tag_268:\n      swap1\n      0x00\n      mstore\n      keccak256(0x00, 0x20)\n      add\n      sload\n        /* \"contracts/Moderated Uris.sol\":6526:6566  uint i = _state.indexesWithId[id][count] */\n      swap1\n      pop\n        /* \"contracts/Moderated Uris.sol\":6581:6595  Entry memory e */\n      0x00\n        /* \"contracts/Moderated Uris.sol\":6598:6618  __getEntry(i, false) */\n      tag_270\n        /* \"contracts/Moderated Uris.sol\":6609:6610  i */\n      dup3\n        /* \"contracts/Moderated Uris.sol\":6612:6617  false */\n      0x00\n        /* \"contracts/Moderated Uris.sol\":6598:6608  __getEntry */\n      tag_271\n        /* \"contracts/Moderated Uris.sol\":6598:6618  __getEntry(i, false) */\n      jump\t// in\n    tag_270:\n        /* \"contracts/Moderated Uris.sol\":6581:6618  Entry memory e = __getEntry(i, false) */\n      swap1\n      pop\n        /* \"contracts/Moderated Uris.sol\":6637:6638  e */\n      dup1\n        /* \"contracts/Moderated Uris.sol\":6637:6647  e.approved */\n      0x60\n      add\n      mload\n        /* \"contracts/Moderated Uris.sol\":6633:6744  if (e.approved) {\r... */\n      iszero\n      tag_272\n      jumpi\n        /* \"contracts/Moderated Uris.sol\":6691:6692  e */\n      dup1\n        /* \"contracts/Moderated Uris.sol\":6691:6696  e.uri */\n      0x40\n      add\n      mload\n        /* \"contracts/Moderated Uris.sol\":6668:6675  results */\n      dup6\n        /* \"contracts/Moderated Uris.sol\":6676:6687  returnCount */\n      dup6\n        /* \"contracts/Moderated Uris.sol\":6668:6688  results[returnCount] */\n      dup2\n      mload\n      dup2\n      lt\n      tag_273\n      jumpi\n      mstore(0x00, 0x4e487b7100000000000000000000000000000000000000000000000000000000)\n      mstore(0x04, 0x32)\n      revert(0x00, 0x24)\n    tag_273:\n      0x20\n      mul\n      0x20\n      add\n      add\n        /* \"contracts/Moderated Uris.sol\":6668:6696  results[returnCount] = e.uri */\n      dup2\n      swap1\n      mstore\n      pop\n        /* \"contracts/Moderated Uris.sol\":6715:6728  returnCount++ */\n      dup4\n      dup1\n      tag_274\n      swap1\n      tag_243\n      jump\t// in\n    tag_274:\n      swap5\n      pop\n      pop\n        /* \"contracts/Moderated Uris.sol\":6633:6744  if (e.approved) {\r... */\n    tag_272:\n        /* \"contracts/Moderated Uris.sol\":6440:6755  for (uint count = 0; count < _state.indexesWithId[id].length; count++) {\r... */\n      pop\n      pop\n        /* \"contracts/Moderated Uris.sol\":6502:6509  count++ */\n      dup1\n      dup1\n      tag_275\n      swap1\n      tag_243\n      jump\t// in\n    tag_275:\n      swap2\n      pop\n      pop\n        /* \"contracts/Moderated Uris.sol\":6440:6755  for (uint count = 0; count < _state.indexesWithId[id].length; count++) {\r... */\n      jump(tag_265)\n    tag_266:\n      pop\n        /* \"contracts/Moderated Uris.sol\":6772:6779  results */\n      dup2\n        /* \"contracts/Moderated Uris.sol\":6765:6779  return results */\n      swap3\n      pop\n      pop\n      pop\n        /* \"contracts/Moderated Uris.sol\":6122:6787  function _getAllApprovedUrisFromId(uint id, bool includeGloballyApproved) \r... */\n      swap3\n      swap2\n      pop\n      pop\n      jump\t// out\n        /* \"contracts/Moderated Uris.sol\":5265:5415  function _isIdUriPairApproved(uint id, string memory uri)\r... */\n    tag_166:\n        /* \"contracts/Moderated Uris.sol\":5349:5353  bool */\n      0x00\n        /* \"contracts/Moderated Uris.sol\":5373:5398  _getEntry(id, uri, false) */\n      tag_277\n        /* \"contracts/Moderated Uris.sol\":5383:5385  id */\n      dup4\n        /* \"contracts/Moderated Uris.sol\":5387:5390  uri */\n      dup4\n        /* \"contracts/Moderated Uris.sol\":5392:5397  false */\n      0x00\n        /* \"contracts/Moderated Uris.sol\":5373:5382  _getEntry */\n      tag_278\n        /* \"contracts/Moderated Uris.sol\":5373:5398  _getEntry(id, uri, false) */\n      jump\t// in\n    tag_277:\n        /* \"contracts/Moderated Uris.sol\":5373:5407  _getEntry(id, uri, false).approved */\n      0x60\n      add\n      mload\n        /* \"contracts/Moderated Uris.sol\":5366:5407  return _getEntry(id, uri, false).approved */\n      swap1\n      pop\n        /* \"contracts/Moderated Uris.sol\":5265:5415  function _isIdUriPairApproved(uint id, string memory uri)\r... */\n      swap3\n      swap2\n      pop\n      pop\n      jump\t// out\n        /* \"contracts/Moderated Uris.sol\":7378:8152  function _getAllApprovedIdsFromUri(\r... */\n    tag_169:\n        /* \"contracts/Moderated Uris.sol\":7509:7522  uint[] memory */\n      0x60\n        /* \"contracts/Moderated Uris.sol\":7535:7556  uint[] memory results */\n      dup1\n        /* \"contracts/Moderated Uris.sol\":7585:7608  includeGloballyApproved */\n      dup3\n        /* \"contracts/Moderated Uris.sol\":7585:7646  includeGloballyApproved && \r... */\n      dup1\n      iszero\n      tag_280\n      jumpi\n      pop\n        /* \"contracts/Moderated Uris.sol\":7626:7646  _entryExists(0, uri) */\n      tag_281\n        /* \"contracts/Moderated Uris.sol\":7639:7640  0 */\n      0x00\n        /* \"contracts/Moderated Uris.sol\":7642:7645  uri */\n      dup6\n        /* \"contracts/Moderated Uris.sol\":7626:7638  _entryExists */\n      tag_183\n        /* \"contracts/Moderated Uris.sol\":7626:7646  _entryExists(0, uri) */\n      jump\t// in\n    tag_281:\n        /* \"contracts/Moderated Uris.sol\":7585:7646  includeGloballyApproved && \r... */\n    tag_280:\n        /* \"contracts/Moderated Uris.sol\":7585:7695  includeGloballyApproved && \r... */\n      dup1\n      iszero\n      tag_282\n      jumpi\n      pop\n        /* \"contracts/Moderated Uris.sol\":7663:7686  _getEntry(0, uri, true) */\n      tag_283\n        /* \"contracts/Moderated Uris.sol\":7673:7674  0 */\n      0x00\n        /* \"contracts/Moderated Uris.sol\":7676:7679  uri */\n      dup6\n        /* \"contracts/Moderated Uris.sol\":7681:7685  true */\n      0x01\n        /* \"contracts/Moderated Uris.sol\":7663:7672  _getEntry */\n      tag_278\n        /* \"contracts/Moderated Uris.sol\":7663:7686  _getEntry(0, uri, true) */\n      jump\t// in\n    tag_283:\n        /* \"contracts/Moderated Uris.sol\":7663:7695  _getEntry(0, uri, true).approved */\n      0x60\n      add\n      mload\n        /* \"contracts/Moderated Uris.sol\":7585:7695  includeGloballyApproved && \r... */\n    tag_282:\n        /* \"contracts/Moderated Uris.sol\":7567:7748  if (\r... */\n      iszero\n      tag_284\n      jumpi\n        /* \"contracts/Moderated Uris.sol\":7735:7736  0 */\n      0x00\n        /* \"contracts/Moderated Uris.sol\":7722:7729  results */\n      dup2\n        /* \"contracts/Moderated Uris.sol\":7730:7731  0 */\n      0x00\n        /* \"contracts/Moderated Uris.sol\":7722:7732  results[0] */\n      dup2\n      mload\n      dup2\n      lt\n      tag_285\n      jumpi\n      mstore(0x00, 0x4e487b7100000000000000000000000000000000000000000000000000000000)\n      mstore(0x04, 0x32)\n      revert(0x00, 0x24)\n    tag_285:\n      0x20\n      mul\n      0x20\n      add\n      add\n        /* \"contracts/Moderated Uris.sol\":7722:7736  results[0] = 0 */\n      dup2\n      dup2\n      mstore\n      pop\n      pop\n        /* \"contracts/Moderated Uris.sol\":7567:7748  if (\r... */\n    tag_284:\n        /* \"contracts/Moderated Uris.sol\":7758:7774  uint returnCount */\n      0x00\n        /* \"contracts/Moderated Uris.sol\":7777:7784  results */\n      dup2\n        /* \"contracts/Moderated Uris.sol\":7777:7791  results.length */\n      mload\n        /* \"contracts/Moderated Uris.sol\":7758:7791  uint returnCount = results.length */\n      swap1\n      pop\n        /* \"contracts/Moderated Uris.sol\":7807:7817  uint count */\n      0x00\n        /* \"contracts/Moderated Uris.sol\":7802:8120  for (uint count = 0; count < _state.indexesWithUri[uri].length; count++) {\r... */\n    tag_286:\n        /* \"contracts/Moderated Uris.sol\":7831:7837  _state */\n      0x02\n        /* \"contracts/Moderated Uris.sol\":7831:7852  _state.indexesWithUri */\n      dup1\n      add\n        /* \"contracts/Moderated Uris.sol\":7853:7856  uri */\n      dup7\n        /* \"contracts/Moderated Uris.sol\":7831:7857  _state.indexesWithUri[uri] */\n      mload(0x40)\n      tag_289\n      swap2\n      swap1\n      tag_232\n      jump\t// in\n    tag_289:\n      swap1\n      dup2\n      mstore\n      0x20\n      add\n      mload(0x40)\n      dup1\n      swap2\n      sub\n      swap1\n      keccak256\n        /* \"contracts/Moderated Uris.sol\":7831:7864  _state.indexesWithUri[uri].length */\n      dup1\n      sload\n      swap1\n      pop\n        /* \"contracts/Moderated Uris.sol\":7823:7828  count */\n      dup2\n        /* \"contracts/Moderated Uris.sol\":7823:7864  count < _state.indexesWithUri[uri].length */\n      lt\n        /* \"contracts/Moderated Uris.sol\":7802:8120  for (uint count = 0; count < _state.indexesWithUri[uri].length; count++) {\r... */\n      iszero\n      tag_287\n      jumpi\n        /* \"contracts/Moderated Uris.sol\":7890:7896  uint i */\n      0x00\n        /* \"contracts/Moderated Uris.sol\":7899:7905  _state */\n      0x02\n        /* \"contracts/Moderated Uris.sol\":7899:7920  _state.indexesWithUri */\n      dup1\n      add\n        /* \"contracts/Moderated Uris.sol\":7921:7924  uri */\n      dup8\n        /* \"contracts/Moderated Uris.sol\":7899:7925  _state.indexesWithUri[uri] */\n      mload(0x40)\n      tag_290\n      swap2\n      swap1\n      tag_232\n      jump\t// in\n    tag_290:\n      swap1\n      dup2\n      mstore\n      0x20\n      add\n      mload(0x40)\n      dup1\n      swap2\n      sub\n      swap1\n      keccak256\n        /* \"contracts/Moderated Uris.sol\":7926:7931  count */\n      dup3\n        /* \"contracts/Moderated Uris.sol\":7899:7932  _state.indexesWithUri[uri][count] */\n      dup2\n      sload\n      dup2\n      lt\n      tag_291\n      jumpi\n      mstore(0x00, 0x4e487b7100000000000000000000000000000000000000000000000000000000)\n      mstore(0x04, 0x32)\n      revert(0x00, 0x24)\n    tag_291:\n      swap1\n      0x00\n      mstore\n      keccak256(0x00, 0x20)\n      add\n      sload\n        /* \"contracts/Moderated Uris.sol\":7890:7932  uint i = _state.indexesWithUri[uri][count] */\n      swap1\n      pop\n        /* \"contracts/Moderated Uris.sol\":7947:7961  Entry memory e */\n      0x00\n        /* \"contracts/Moderated Uris.sol\":7964:7984  __getEntry(i, false) */\n      tag_293\n        /* \"contracts/Moderated Uris.sol\":7975:7976  i */\n      dup3\n        /* \"contracts/Moderated Uris.sol\":7978:7983  false */\n      0x00\n        /* \"contracts/Moderated Uris.sol\":7964:7974  __getEntry */\n      tag_271\n        /* \"contracts/Moderated Uris.sol\":7964:7984  __getEntry(i, false) */\n      jump\t// in\n    tag_293:\n        /* \"contracts/Moderated Uris.sol\":7947:7984  Entry memory e = __getEntry(i, false) */\n      swap1\n      pop\n        /* \"contracts/Moderated Uris.sol\":8003:8004  e */\n      dup1\n        /* \"contracts/Moderated Uris.sol\":8003:8013  e.approved */\n      0x60\n      add\n      mload\n        /* \"contracts/Moderated Uris.sol\":7999:8109  if (e.approved) {\r... */\n      iszero\n      tag_294\n      jumpi\n        /* \"contracts/Moderated Uris.sol\":8057:8058  e */\n      dup1\n        /* \"contracts/Moderated Uris.sol\":8057:8061  e.id */\n      0x20\n      add\n      mload\n        /* \"contracts/Moderated Uris.sol\":8034:8041  results */\n      dup6\n        /* \"contracts/Moderated Uris.sol\":8042:8053  returnCount */\n      dup6\n        /* \"contracts/Moderated Uris.sol\":8034:8054  results[returnCount] */\n      dup2\n      mload\n      dup2\n      lt\n      tag_295\n      jumpi\n      mstore(0x00, 0x4e487b7100000000000000000000000000000000000000000000000000000000)\n      mstore(0x04, 0x32)\n      revert(0x00, 0x24)\n    tag_295:\n      0x20\n      mul\n      0x20\n      add\n      add\n        /* \"contracts/Moderated Uris.sol\":8034:8061  results[returnCount] = e.id */\n      dup2\n      dup2\n      mstore\n      pop\n      pop\n        /* \"contracts/Moderated Uris.sol\":8080:8093  returnCount++ */\n      dup4\n      dup1\n      tag_296\n      swap1\n      tag_243\n      jump\t// in\n    tag_296:\n      swap5\n      pop\n      pop\n        /* \"contracts/Moderated Uris.sol\":7999:8109  if (e.approved) {\r... */\n    tag_294:\n        /* \"contracts/Moderated Uris.sol\":7802:8120  for (uint count = 0; count < _state.indexesWithUri[uri].length; count++) {\r... */\n      pop\n      pop\n        /* \"contracts/Moderated Uris.sol\":7866:7873  count++ */\n      dup1\n      dup1\n      tag_297\n      swap1\n      tag_243\n      jump\t// in\n    tag_297:\n      swap2\n      pop\n      pop\n        /* \"contracts/Moderated Uris.sol\":7802:8120  for (uint count = 0; count < _state.indexesWithUri[uri].length; count++) {\r... */\n      jump(tag_286)\n    tag_287:\n      pop\n        /* \"contracts/Moderated Uris.sol\":8137:8144  results */\n      dup2\n        /* \"contracts/Moderated Uris.sol\":8130:8144  return results */\n      swap3\n      pop\n      pop\n      pop\n        /* \"contracts/Moderated Uris.sol\":7378:8152  function _getAllApprovedIdsFromUri(\r... */\n      swap3\n      swap2\n      pop\n      pop\n      jump\t// out\n        /* \"contracts/Moderated Uris.sol\":8574:8823  function _unapproveAllUrisForId(uint id) \r... */\n    tag_179:\n        /* \"contracts/Moderated Uris.sol\":8645:8655  uint count */\n      0x00\n        /* \"contracts/Moderated Uris.sol\":8640:8816  for (uint count = 0; count < _state.indexesWithId[id].length; count++) {\r... */\n    tag_299:\n        /* \"contracts/Moderated Uris.sol\":8669:8675  _state */\n      0x02\n        /* \"contracts/Moderated Uris.sol\":8669:8689  _state.indexesWithId */\n      0x03\n      add\n        /* \"contracts/Moderated Uris.sol\":8669:8693  _state.indexesWithId[id] */\n      0x00\n        /* \"contracts/Moderated Uris.sol\":8690:8692  id */\n      dup4\n        /* \"contracts/Moderated Uris.sol\":8669:8693  _state.indexesWithId[id] */\n      dup2\n      mstore\n      0x20\n      add\n      swap1\n      dup2\n      mstore\n      0x20\n      add\n      0x00\n      keccak256\n        /* \"contracts/Moderated Uris.sol\":8669:8700  _state.indexesWithId[id].length */\n      dup1\n      sload\n      swap1\n      pop\n        /* \"contracts/Moderated Uris.sol\":8661:8666  count */\n      dup2\n        /* \"contracts/Moderated Uris.sol\":8661:8700  count < _state.indexesWithId[id].length */\n      lt\n        /* \"contracts/Moderated Uris.sol\":8640:8816  for (uint count = 0; count < _state.indexesWithId[id].length; count++) {\r... */\n      iszero\n      tag_300\n      jumpi\n        /* \"contracts/Moderated Uris.sol\":8726:8732  uint i */\n      0x00\n        /* \"contracts/Moderated Uris.sol\":8735:8741  _state */\n      0x02\n        /* \"contracts/Moderated Uris.sol\":8735:8755  _state.indexesWithId */\n      0x03\n      add\n        /* \"contracts/Moderated Uris.sol\":8735:8759  _state.indexesWithId[id] */\n      0x00\n        /* \"contracts/Moderated Uris.sol\":8756:8758  id */\n      dup5\n        /* \"contracts/Moderated Uris.sol\":8735:8759  _state.indexesWithId[id] */\n      dup2\n      mstore\n      0x20\n      add\n      swap1\n      dup2\n      mstore\n      0x20\n      add\n      0x00\n      keccak256\n        /* \"contracts/Moderated Uris.sol\":8760:8765  count */\n      dup3\n        /* \"contracts/Moderated Uris.sol\":8735:8766  _state.indexesWithId[id][count] */\n      dup2\n      sload\n      dup2\n      lt\n      tag_302\n      jumpi\n      mstore(0x00, 0x4e487b7100000000000000000000000000000000000000000000000000000000)\n      mstore(0x04, 0x32)\n      revert(0x00, 0x24)\n    tag_302:\n      swap1\n      0x00\n      mstore\n      keccak256(0x00, 0x20)\n      add\n      sload\n        /* \"contracts/Moderated Uris.sol\":8726:8766  uint i = _state.indexesWithId[id][count] */\n      swap1\n      pop\n        /* \"contracts/Moderated Uris.sol\":8781:8804  __updateEntry(i, false) */\n      tag_304\n        /* \"contracts/Moderated Uris.sol\":8795:8796  i */\n      dup2\n        /* \"contracts/Moderated Uris.sol\":8798:8803  false */\n      0x00\n        /* \"contracts/Moderated Uris.sol\":8781:8794  __updateEntry */\n      tag_241\n        /* \"contracts/Moderated Uris.sol\":8781:8804  __updateEntry(i, false) */\n      jump\t// in\n    tag_304:\n        /* \"contracts/Moderated Uris.sol\":8640:8816  for (uint count = 0; count < _state.indexesWithId[id].length; count++) {\r... */\n      pop\n        /* \"contracts/Moderated Uris.sol\":8702:8709  count++ */\n      dup1\n      dup1\n      tag_305\n      swap1\n      tag_243\n      jump\t// in\n    tag_305:\n      swap2\n      pop\n      pop\n        /* \"contracts/Moderated Uris.sol\":8640:8816  for (uint count = 0; count < _state.indexesWithId[id].length; count++) {\r... */\n      jump(tag_299)\n    tag_300:\n      pop\n        /* \"contracts/Moderated Uris.sol\":8574:8823  function _unapproveAllUrisForId(uint id) \r... */\n      pop\n      jump\t// out\n        /* \"contracts/Moderated Uris.sol\":3918:4121  function _entryExists(uint id, string memory uri)\r... */\n    tag_183:\n        /* \"contracts/Moderated Uris.sol\":3994:3998  bool */\n      0x00\n        /* \"contracts/Moderated Uris.sol\":4011:4017  uint i */\n      dup1\n        /* \"contracts/Moderated Uris.sol\":4020:4026  _state */\n      0x02\n        /* \"contracts/Moderated Uris.sol\":4020:4041  _state.indexWithIdUri */\n      0x01\n      add\n        /* \"contracts/Moderated Uris.sol\":4020:4079  _state.indexWithIdUri[keccak256(abi.encodePacked(id, uri))] */\n      0x00\n        /* \"contracts/Moderated Uris.sol\":4069:4071  id */\n      dup6\n        /* \"contracts/Moderated Uris.sol\":4073:4076  uri */\n      dup6\n        /* \"contracts/Moderated Uris.sol\":4052:4077  abi.encodePacked(id, uri) */\n      add(0x20, mload(0x40))\n      tag_307\n      swap3\n      swap2\n      swap1\n      tag_308\n      jump\t// in\n    tag_307:\n      mload(0x40)\n      0x20\n      dup2\n      dup4\n      sub\n      sub\n      dup2\n      mstore\n      swap1\n      0x40\n      mstore\n        /* \"contracts/Moderated Uris.sol\":4042:4078  keccak256(abi.encodePacked(id, uri)) */\n      dup1\n      mload\n      swap1\n      0x20\n      add\n      keccak256\n        /* \"contracts/Moderated Uris.sol\":4020:4079  _state.indexWithIdUri[keccak256(abi.encodePacked(id, uri))] */\n      dup2\n      mstore\n      0x20\n      add\n      swap1\n      dup2\n      mstore\n      0x20\n      add\n      0x00\n      keccak256\n      sload\n        /* \"contracts/Moderated Uris.sol\":4011:4079  uint i = _state.indexWithIdUri[keccak256(abi.encodePacked(id, uri))] */\n      swap1\n      pop\n        /* \"contracts/Moderated Uris.sol\":4097:4113  __entryExists(i) */\n      tag_309\n        /* \"contracts/Moderated Uris.sol\":4111:4112  i */\n      dup2\n        /* \"contracts/Moderated Uris.sol\":4097:4110  __entryExists */\n      tag_310\n        /* \"contracts/Moderated Uris.sol\":4097:4113  __entryExists(i) */\n      jump\t// in\n    tag_309:\n        /* \"contracts/Moderated Uris.sol\":4090:4113  return __entryExists(i) */\n      swap2\n      pop\n      pop\n        /* \"contracts/Moderated Uris.sol\":3918:4121  function _entryExists(uint id, string memory uri)\r... */\n      swap3\n      swap2\n      pop\n      pop\n      jump\t// out\n        /* \"contracts/Moderated Uris.sol\":4604:5046  function _makeEntry(uint id, string memory uri, bool approved) \r... */\n    tag_223:\n        /* \"contracts/Moderated Uris.sol\":4715:4736  _entryExists(id, uri) */\n      tag_312\n        /* \"contracts/Moderated Uris.sol\":4728:4730  id */\n      dup4\n        /* \"contracts/Moderated Uris.sol\":4732:4735  uri */\n      dup4\n        /* \"contracts/Moderated Uris.sol\":4715:4727  _entryExists */\n      tag_183\n        /* \"contracts/Moderated Uris.sol\":4715:4736  _entryExists(id, uri) */\n      jump\t// in\n    tag_312:\n        /* \"contracts/Moderated Uris.sol\":4714:4736  !_entryExists(id, uri) */\n      iszero\n        /* \"contracts/Moderated Uris.sol\":4692:4826  require(\r... */\n      tag_313\n      jumpi\n      mload(0x40)\n      0x08c379a000000000000000000000000000000000000000000000000000000000\n      dup2\n      mstore\n      0x04\n      add\n      tag_314\n      swap1\n      tag_315\n      jump\t// in\n    tag_314:\n      mload(0x40)\n      dup1\n      swap2\n      sub\n      swap1\n      revert\n    tag_313:\n        /* \"contracts/Moderated Uris.sol\":4837:4843  uint i */\n      0x00\n        /* \"contracts/Moderated Uris.sol\":4846:4876  __makeEntry(id, uri, approved) */\n      tag_316\n        /* \"contracts/Moderated Uris.sol\":4858:4860  id */\n      dup5\n        /* \"contracts/Moderated Uris.sol\":4862:4865  uri */\n      dup5\n        /* \"contracts/Moderated Uris.sol\":4867:4875  approved */\n      dup5\n        /* \"contracts/Moderated Uris.sol\":4846:4857  __makeEntry */\n      tag_317\n        /* \"contracts/Moderated Uris.sol\":4846:4876  __makeEntry(id, uri, approved) */\n      jump\t// in\n    tag_316:\n        /* \"contracts/Moderated Uris.sol\":4837:4876  uint i = __makeEntry(id, uri, approved) */\n      swap1\n      pop\n        /* \"contracts/Moderated Uris.sol\":4949:4950  i */\n      dup1\n        /* \"contracts/Moderated Uris.sol\":4887:4893  _state */\n      0x02\n        /* \"contracts/Moderated Uris.sol\":4887:4908  _state.indexWithIdUri */\n      0x01\n      add\n        /* \"contracts/Moderated Uris.sol\":4887:4946  _state.indexWithIdUri[keccak256(abi.encodePacked(id, uri))] */\n      0x00\n        /* \"contracts/Moderated Uris.sol\":4936:4938  id */\n      dup7\n        /* \"contracts/Moderated Uris.sol\":4940:4943  uri */\n      dup7\n        /* \"contracts/Moderated Uris.sol\":4919:4944  abi.encodePacked(id, uri) */\n      add(0x20, mload(0x40))\n      tag_318\n      swap3\n      swap2\n      swap1\n      tag_308\n      jump\t// in\n    tag_318:\n      mload(0x40)\n      0x20\n      dup2\n      dup4\n      sub\n      sub\n      dup2\n      mstore\n      swap1\n      0x40\n      mstore\n        /* \"contracts/Moderated Uris.sol\":4909:4945  keccak256(abi.encodePacked(id, uri)) */\n      dup1\n      mload\n      swap1\n      0x20\n      add\n      keccak256\n        /* \"contracts/Moderated Uris.sol\":4887:4946  _state.indexWithIdUri[keccak256(abi.encodePacked(id, uri))] */\n      dup2\n      mstore\n      0x20\n      add\n      swap1\n      dup2\n      mstore\n      0x20\n      add\n      0x00\n      keccak256\n        /* \"contracts/Moderated Uris.sol\":4887:4950  _state.indexWithIdUri[keccak256(abi.encodePacked(id, uri))] = i */\n      dup2\n      swap1\n      sstore\n      pop\n        /* \"contracts/Moderated Uris.sol\":4961:4967  _state */\n      0x02\n        /* \"contracts/Moderated Uris.sol\":4961:4981  _state.indexesWithId */\n      0x03\n      add\n        /* \"contracts/Moderated Uris.sol\":4961:4985  _state.indexesWithId[id] */\n      0x00\n        /* \"contracts/Moderated Uris.sol\":4982:4984  id */\n      dup6\n        /* \"contracts/Moderated Uris.sol\":4961:4985  _state.indexesWithId[id] */\n      dup2\n      mstore\n      0x20\n      add\n      swap1\n      dup2\n      mstore\n      0x20\n      add\n      0x00\n      keccak256\n        /* \"contracts/Moderated Uris.sol\":4991:4992  i */\n      dup2\n        /* \"contracts/Moderated Uris.sol\":4961:4993  _state.indexesWithId[id].push(i) */\n      swap1\n      dup1\n      0x01\n      dup2\n      sload\n      add\n      dup1\n      dup3\n      sstore\n      dup1\n      swap2\n      pop\n      pop\n      0x01\n      swap1\n      sub\n      swap1\n      0x00\n      mstore\n      keccak256(0x00, 0x20)\n      add\n      0x00\n      swap1\n      swap2\n      swap1\n      swap2\n      swap1\n      swap2\n      pop\n      sstore\n        /* \"contracts/Moderated Uris.sol\":5004:5010  _state */\n      0x02\n        /* \"contracts/Moderated Uris.sol\":5004:5025  _state.indexesWithUri */\n      dup1\n      add\n        /* \"contracts/Moderated Uris.sol\":5026:5029  uri */\n      dup4\n        /* \"contracts/Moderated Uris.sol\":5004:5030  _state.indexesWithUri[uri] */\n      mload(0x40)\n      tag_320\n      swap2\n      swap1\n      tag_232\n      jump\t// in\n    tag_320:\n      swap1\n      dup2\n      mstore\n      0x20\n      add\n      mload(0x40)\n      dup1\n      swap2\n      sub\n      swap1\n      keccak256\n        /* \"contracts/Moderated Uris.sol\":5036:5037  i */\n      dup2\n        /* \"contracts/Moderated Uris.sol\":5004:5038  _state.indexesWithUri[uri].push(i) */\n      swap1\n      dup1\n      0x01\n      dup2\n      sload\n      add\n      dup1\n      dup3\n      sstore\n      dup1\n      swap2\n      pop\n      pop\n      0x01\n      swap1\n      sub\n      swap1\n      0x00\n      mstore\n      keccak256(0x00, 0x20)\n      add\n      0x00\n      swap1\n      swap2\n      swap1\n      swap2\n      swap1\n      swap2\n      pop\n      sstore\n        /* \"contracts/Moderated Uris.sol\":4604:5046  function _makeEntry(uint id, string memory uri, bool approved) \r... */\n      pop\n      pop\n      pop\n      pop\n      jump\t// out\n        /* \"contracts/Moderated Uris.sol\":5054:5257  function _updateEntry(uint id, string memory uri, bool approved) \r... */\n    tag_226:\n        /* \"contracts/Moderated Uris.sol\":5144:5150  uint i */\n      0x00\n        /* \"contracts/Moderated Uris.sol\":5153:5159  _state */\n      0x02\n        /* \"contracts/Moderated Uris.sol\":5153:5174  _state.indexWithIdUri */\n      0x01\n      add\n        /* \"contracts/Moderated Uris.sol\":5153:5212  _state.indexWithIdUri[keccak256(abi.encodePacked(id, uri))] */\n      0x00\n        /* \"contracts/Moderated Uris.sol\":5202:5204  id */\n      dup6\n        /* \"contracts/Moderated Uris.sol\":5206:5209  uri */\n      dup6\n        /* \"contracts/Moderated Uris.sol\":5185:5210  abi.encodePacked(id, uri) */\n      add(0x20, mload(0x40))\n      tag_323\n      swap3\n      swap2\n      swap1\n      tag_308\n      jump\t// in\n    tag_323:\n      mload(0x40)\n      0x20\n      dup2\n      dup4\n      sub\n      sub\n      dup2\n      mstore\n      swap1\n      0x40\n      mstore\n        /* \"contracts/Moderated Uris.sol\":5175:5211  keccak256(abi.encodePacked(id, uri)) */\n      dup1\n      mload\n      swap1\n      0x20\n      add\n      keccak256\n        /* \"contracts/Moderated Uris.sol\":5153:5212  _state.indexWithIdUri[keccak256(abi.encodePacked(id, uri))] */\n      dup2\n      mstore\n      0x20\n      add\n      swap1\n      dup2\n      mstore\n      0x20\n      add\n      0x00\n      keccak256\n      sload\n        /* \"contracts/Moderated Uris.sol\":5144:5212  uint i = _state.indexWithIdUri[keccak256(abi.encodePacked(id, uri))] */\n      swap1\n      pop\n        /* \"contracts/Moderated Uris.sol\":5223:5249  __updateEntry(i, approved) */\n      tag_324\n        /* \"contracts/Moderated Uris.sol\":5237:5238  i */\n      dup2\n        /* \"contracts/Moderated Uris.sol\":5240:5248  approved */\n      dup4\n        /* \"contracts/Moderated Uris.sol\":5223:5236  __updateEntry */\n      tag_241\n        /* \"contracts/Moderated Uris.sol\":5223:5249  __updateEntry(i, approved) */\n      jump\t// in\n    tag_324:\n        /* \"contracts/Moderated Uris.sol\":5054:5257  function _updateEntry(uint id, string memory uri, bool approved) \r... */\n      pop\n      pop\n      pop\n      pop\n      jump\t// out\n        /* \"contracts/Moderated Uris.sol\":3674:3809  function __entryIsGlobal(uint i, bool checked)\r... */\n    tag_238:\n        /* \"contracts/Moderated Uris.sol\":3747:3751  bool */\n      0x00\n        /* \"contracts/Moderated Uris.sol\":3800:3801  0 */\n      dup1\n        /* \"contracts/Moderated Uris.sol\":3771:3793  __getEntry(i, checked) */\n      tag_326\n        /* \"contracts/Moderated Uris.sol\":3782:3783  i */\n      dup5\n        /* \"contracts/Moderated Uris.sol\":3785:3792  checked */\n      dup5\n        /* \"contracts/Moderated Uris.sol\":3771:3781  __getEntry */\n      tag_271\n        /* \"contracts/Moderated Uris.sol\":3771:3793  __getEntry(i, checked) */\n      jump\t// in\n    tag_326:\n        /* \"contracts/Moderated Uris.sol\":3771:3796  __getEntry(i, checked).id */\n      0x20\n      add\n      mload\n        /* \"contracts/Moderated Uris.sol\":3771:3801  __getEntry(i, checked).id == 0 */\n      eq\n        /* \"contracts/Moderated Uris.sol\":3764:3801  return __getEntry(i, checked).id == 0 */\n      swap1\n      pop\n        /* \"contracts/Moderated Uris.sol\":3674:3809  function __entryIsGlobal(uint i, bool checked)\r... */\n      swap3\n      swap2\n      pop\n      pop\n      jump\t// out\n        /* \"contracts/Moderated Uris.sol\":3054:3265  function __updateEntry(uint i, bool _approved)\r... */\n    tag_241:\n        /* \"contracts/Moderated Uris.sol\":3138:3139  0 */\n      0x00\n        /* \"contracts/Moderated Uris.sol\":3133:3134  i */\n      dup3\n        /* \"contracts/Moderated Uris.sol\":3133:3139  i != 0 */\n      eq\n      iszero\n        /* \"contracts/Moderated Uris.sol\":3125:3164  require(i != 0, \"ModeratedUris: ERR 2\") */\n      tag_328\n      jumpi\n      mload(0x40)\n      0x08c379a000000000000000000000000000000000000000000000000000000000\n      dup2\n      mstore\n      0x04\n      add\n      tag_329\n      swap1\n      tag_330\n      jump\t// in\n    tag_329:\n      mload(0x40)\n      dup1\n      swap2\n      sub\n      swap1\n      revert\n    tag_328:\n        /* \"contracts/Moderated Uris.sol\":3248:3257  _approved */\n      dup1\n        /* \"contracts/Moderated Uris.sol\":3219:3225  _state */\n      0x02\n        /* \"contracts/Moderated Uris.sol\":3219:3233  _state.entries */\n      0x00\n      add\n        /* \"contracts/Moderated Uris.sol\":3234:3235  i */\n      dup4\n        /* \"contracts/Moderated Uris.sol\":3219:3236  _state.entries[i] */\n      dup2\n      sload\n      dup2\n      lt\n      tag_331\n      jumpi\n      mstore(0x00, 0x4e487b7100000000000000000000000000000000000000000000000000000000)\n      mstore(0x04, 0x32)\n      revert(0x00, 0x24)\n    tag_331:\n      swap1\n      0x00\n      mstore\n      keccak256(0x00, 0x20)\n      swap1\n      0x04\n      mul\n      add\n        /* \"contracts/Moderated Uris.sol\":3219:3245  _state.entries[i].approved */\n      0x03\n      add\n      0x00\n        /* \"contracts/Moderated Uris.sol\":3219:3257  _state.entries[i].approved = _approved */\n      0x0100\n      exp\n      dup2\n      sload\n      dup2\n      0xff\n      mul\n      not\n      and\n      swap1\n      dup4\n      iszero\n      iszero\n      mul\n      or\n      swap1\n      sstore\n      pop\n        /* \"contracts/Moderated Uris.sol\":3054:3265  function __updateEntry(uint i, bool _approved)\r... */\n      pop\n      pop\n      jump\t// out\n        /* \"@openzeppelin/contracts@4.4.2/utils/Strings.sol\":1588:2029  function toHexString(uint256 value, uint256 length) internal pure returns (string memory) {... */\n    tag_248:\n        /* \"@openzeppelin/contracts@4.4.2/utils/Strings.sol\":1663:1676  string memory */\n      0x60\n        /* \"@openzeppelin/contracts@4.4.2/utils/Strings.sol\":1688:1707  bytes memory buffer */\n      0x00\n        /* \"@openzeppelin/contracts@4.4.2/utils/Strings.sol\":1733:1734  2 */\n      0x02\n        /* \"@openzeppelin/contracts@4.4.2/utils/Strings.sol\":1724:1730  length */\n      dup4\n        /* \"@openzeppelin/contracts@4.4.2/utils/Strings.sol\":1720:1721  2 */\n      0x02\n        /* \"@openzeppelin/contracts@4.4.2/utils/Strings.sol\":1720:1730  2 * length */\n      tag_334\n      swap2\n      swap1\n      tag_335\n      jump\t// in\n    tag_334:\n        /* \"@openzeppelin/contracts@4.4.2/utils/Strings.sol\":1720:1734  2 * length + 2 */\n      tag_336\n      swap2\n      swap1\n      tag_337\n      jump\t// in\n    tag_336:\n        /* \"@openzeppelin/contracts@4.4.2/utils/Strings.sol\":1710:1735  new bytes(2 * length + 2) */\n      0xffffffffffffffff\n      dup2\n      gt\n      iszero\n      tag_338\n      jumpi\n      mstore(0x00, 0x4e487b7100000000000000000000000000000000000000000000000000000000)\n      mstore(0x04, 0x41)\n      revert(0x00, 0x24)\n    tag_338:\n      mload(0x40)\n      swap1\n      dup1\n      dup3\n      mstore\n      dup1\n      0x1f\n      add\n      not(0x1f)\n      and\n      0x20\n      add\n      dup3\n      add\n      0x40\n      mstore\n      dup1\n      iszero\n      tag_339\n      jumpi\n      dup2\n      0x20\n      add\n      0x01\n      dup3\n      mul\n      dup1\n      calldatasize\n      dup4\n      calldatacopy\n      dup1\n      dup3\n      add\n      swap2\n      pop\n      pop\n      swap1\n      pop\n    tag_339:\n      pop\n        /* \"@openzeppelin/contracts@4.4.2/utils/Strings.sol\":1688:1735  bytes memory buffer = new bytes(2 * length + 2) */\n      swap1\n      pop\n        /* \"@openzeppelin/contracts@4.4.2/utils/Strings.sol\":1745:1760  buffer[0] = \"0\" */\n      0x3000000000000000000000000000000000000000000000000000000000000000\n        /* \"@openzeppelin/contracts@4.4.2/utils/Strings.sol\":1745:1751  buffer */\n      dup2\n        /* \"@openzeppelin/contracts@4.4.2/utils/Strings.sol\":1752:1753  0 */\n      0x00\n        /* \"@openzeppelin/contracts@4.4.2/utils/Strings.sol\":1745:1754  buffer[0] */\n      dup2\n      mload\n      dup2\n      lt\n      tag_340\n      jumpi\n      mstore(0x00, 0x4e487b7100000000000000000000000000000000000000000000000000000000)\n      mstore(0x04, 0x32)\n      revert(0x00, 0x24)\n    tag_340:\n      0x20\n      add\n      add\n        /* \"@openzeppelin/contracts@4.4.2/utils/Strings.sol\":1745:1760  buffer[0] = \"0\" */\n      swap1\n      not(0xffffffffffffffffffffffffffffffffffffffffffffffffffffffffffffff)\n      and\n      swap1\n      dup2\n      0x00\n      byte\n      swap1\n      mstore8\n      pop\n        /* \"@openzeppelin/contracts@4.4.2/utils/Strings.sol\":1770:1785  buffer[1] = \"x\" */\n      0x7800000000000000000000000000000000000000000000000000000000000000\n        /* \"@openzeppelin/contracts@4.4.2/utils/Strings.sol\":1770:1776  buffer */\n      dup2\n        /* \"@openzeppelin/contracts@4.4.2/utils/Strings.sol\":1777:1778  1 */\n      0x01\n        /* \"@openzeppelin/contracts@4.4.2/utils/Strings.sol\":1770:1779  buffer[1] */\n      dup2\n      mload\n      dup2\n      lt\n      tag_341\n      jumpi\n      mstore(0x00, 0x4e487b7100000000000000000000000000000000000000000000000000000000)\n      mstore(0x04, 0x32)\n      revert(0x00, 0x24)\n    tag_341:\n      0x20\n      add\n      add\n        /* \"@openzeppelin/contracts@4.4.2/utils/Strings.sol\":1770:1785  buffer[1] = \"x\" */\n      swap1\n      not(0xffffffffffffffffffffffffffffffffffffffffffffffffffffffffffffff)\n      and\n      swap1\n      dup2\n      0x00\n      byte\n      swap1\n      mstore8\n      pop\n        /* \"@openzeppelin/contracts@4.4.2/utils/Strings.sol\":1800:1809  uint256 i */\n      0x00\n        /* \"@openzeppelin/contracts@4.4.2/utils/Strings.sol\":1825:1826  1 */\n      0x01\n        /* \"@openzeppelin/contracts@4.4.2/utils/Strings.sol\":1816:1822  length */\n      dup5\n        /* \"@openzeppelin/contracts@4.4.2/utils/Strings.sol\":1812:1813  2 */\n      0x02\n        /* \"@openzeppelin/contracts@4.4.2/utils/Strings.sol\":1812:1822  2 * length */\n      tag_345\n      swap2\n      swap1\n      tag_335\n      jump\t// in\n    tag_345:\n        /* \"@openzeppelin/contracts@4.4.2/utils/Strings.sol\":1812:1826  2 * length + 1 */\n      tag_346\n      swap2\n      swap1\n      tag_337\n      jump\t// in\n    tag_346:\n        /* \"@openzeppelin/contracts@4.4.2/utils/Strings.sol\":1800:1826  uint256 i = 2 * length + 1 */\n      swap1\n      pop\n        /* \"@openzeppelin/contracts@4.4.2/utils/Strings.sol\":1795:1927  for (uint256 i = 2 * length + 1; i > 1; --i) {... */\n    tag_342:\n        /* \"@openzeppelin/contracts@4.4.2/utils/Strings.sol\":1832:1833  1 */\n      0x01\n        /* \"@openzeppelin/contracts@4.4.2/utils/Strings.sol\":1828:1829  i */\n      dup2\n        /* \"@openzeppelin/contracts@4.4.2/utils/Strings.sol\":1828:1833  i > 1 */\n      gt\n        /* \"@openzeppelin/contracts@4.4.2/utils/Strings.sol\":1795:1927  for (uint256 i = 2 * length + 1; i > 1; --i) {... */\n      iszero\n      tag_343\n      jumpi\n        /* \"@openzeppelin/contracts@4.4.2/utils/Strings.sol\":1866:1878  _HEX_SYMBOLS */\n      0x3031323334353637383961626364656600000000000000000000000000000000\n        /* \"@openzeppelin/contracts@4.4.2/utils/Strings.sol\":1887:1890  0xf */\n      0x0f\n        /* \"@openzeppelin/contracts@4.4.2/utils/Strings.sol\":1879:1884  value */\n      dup7\n        /* \"@openzeppelin/contracts@4.4.2/utils/Strings.sol\":1879:1890  value & 0xf */\n      and\n        /* \"@openzeppelin/contracts@4.4.2/utils/Strings.sol\":1866:1891  _HEX_SYMBOLS[value & 0xf] */\n      0x10\n      dup2\n      lt\n      tag_347\n      jumpi\n      mstore(0x00, 0x4e487b7100000000000000000000000000000000000000000000000000000000)\n      mstore(0x04, 0x32)\n      revert(0x00, 0x24)\n    tag_347:\n      byte\n      0xf8\n      shl\n        /* \"@openzeppelin/contracts@4.4.2/utils/Strings.sol\":1854:1860  buffer */\n      dup3\n        /* \"@openzeppelin/contracts@4.4.2/utils/Strings.sol\":1861:1862  i */\n      dup3\n        /* \"@openzeppelin/contracts@4.4.2/utils/Strings.sol\":1854:1863  buffer[i] */\n      dup2\n      mload\n      dup2\n      lt\n      tag_348\n      jumpi\n      mstore(0x00, 0x4e487b7100000000000000000000000000000000000000000000000000000000)\n      mstore(0x04, 0x32)\n      revert(0x00, 0x24)\n    tag_348:\n      0x20\n      add\n      add\n        /* \"@openzeppelin/contracts@4.4.2/utils/Strings.sol\":1854:1891  buffer[i] = _HEX_SYMBOLS[value & 0xf] */\n      swap1\n      not(0xffffffffffffffffffffffffffffffffffffffffffffffffffffffffffffff)\n      and\n      swap1\n      dup2\n      0x00\n      byte\n      swap1\n      mstore8\n      pop\n        /* \"@openzeppelin/contracts@4.4.2/utils/Strings.sol\":1915:1916  4 */\n      0x04\n        /* \"@openzeppelin/contracts@4.4.2/utils/Strings.sol\":1905:1916  value >>= 4 */\n      dup6\n      swap1\n      shr\n      swap5\n      pop\n        /* \"@openzeppelin/contracts@4.4.2/utils/Strings.sol\":1835:1838  --i */\n      dup1\n      tag_349\n      swap1\n      tag_350\n      jump\t// in\n    tag_349:\n      swap1\n      pop\n        /* \"@openzeppelin/contracts@4.4.2/utils/Strings.sol\":1795:1927  for (uint256 i = 2 * length + 1; i > 1; --i) {... */\n      jump(tag_342)\n    tag_343:\n      pop\n        /* \"@openzeppelin/contracts@4.4.2/utils/Strings.sol\":1953:1954  0 */\n      0x00\n        /* \"@openzeppelin/contracts@4.4.2/utils/Strings.sol\":1944:1949  value */\n      dup5\n        /* \"@openzeppelin/contracts@4.4.2/utils/Strings.sol\":1944:1954  value == 0 */\n      eq\n        /* \"@openzeppelin/contracts@4.4.2/utils/Strings.sol\":1936:1991  require(value == 0, \"Strings: hex length insufficient\") */\n      tag_351\n      jumpi\n      mload(0x40)\n      0x08c379a000000000000000000000000000000000000000000000000000000000\n      dup2\n      mstore\n      0x04\n      add\n      tag_352\n      swap1\n      tag_353\n      jump\t// in\n    tag_352:\n      mload(0x40)\n      dup1\n      swap2\n      sub\n      swap1\n      revert\n    tag_351:\n        /* \"@openzeppelin/contracts@4.4.2/utils/Strings.sol\":2015:2021  buffer */\n      dup1\n        /* \"@openzeppelin/contracts@4.4.2/utils/Strings.sol\":2001:2022  return string(buffer) */\n      swap2\n      pop\n      pop\n        /* \"@openzeppelin/contracts@4.4.2/utils/Strings.sol\":1588:2029  function toHexString(uint256 value, uint256 length) internal pure returns (string memory) {... */\n      swap3\n      swap2\n      pop\n      pop\n      jump\t// out\n        /* \"contracts/Moderated Uris.sol\":3399:3666  function __getEntry(uint i, bool checked) \r... */\n    tag_271:\n        /* \"contracts/Moderated Uris.sol\":3468:3480  Entry memory */\n      tag_354\n      tag_355\n      jump\t// in\n    tag_354:\n        /* \"contracts/Moderated Uris.sol\":3497:3504  checked */\n      dup2\n        /* \"contracts/Moderated Uris.sol\":3493:3624  if (checked) {\r... */\n      iszero\n      tag_357\n      jumpi\n        /* \"contracts/Moderated Uris.sol\":3534:3535  0 */\n      0x00\n        /* \"contracts/Moderated Uris.sol\":3529:3530  i */\n      dup4\n        /* \"contracts/Moderated Uris.sol\":3529:3535  i != 0 */\n      eq\n      iszero\n        /* \"contracts/Moderated Uris.sol\":3521:3560  require(i != 0, \"ModeratedUris: ERR 3\") */\n      tag_358\n      jumpi\n      mload(0x40)\n      0x08c379a000000000000000000000000000000000000000000000000000000000\n      dup2\n      mstore\n      0x04\n      add\n      tag_359\n      swap1\n      tag_360\n      jump\t// in\n    tag_359:\n      mload(0x40)\n      dup1\n      swap2\n      sub\n      swap1\n      revert\n    tag_358:\n        /* \"contracts/Moderated Uris.sol\":3493:3624  if (checked) {\r... */\n    tag_357:\n        /* \"contracts/Moderated Uris.sol\":3641:3647  _state */\n      0x02\n        /* \"contracts/Moderated Uris.sol\":3641:3655  _state.entries */\n      0x00\n      add\n        /* \"contracts/Moderated Uris.sol\":3656:3657  i */\n      dup4\n        /* \"contracts/Moderated Uris.sol\":3641:3658  _state.entries[i] */\n      dup2\n      sload\n      dup2\n      lt\n      tag_361\n      jumpi\n      mstore(0x00, 0x4e487b7100000000000000000000000000000000000000000000000000000000)\n      mstore(0x04, 0x32)\n      revert(0x00, 0x24)\n    tag_361:\n      swap1\n      0x00\n      mstore\n      keccak256(0x00, 0x20)\n      swap1\n      0x04\n      mul\n      add\n        /* \"contracts/Moderated Uris.sol\":3634:3658  return _state.entries[i] */\n      mload(0x40)\n      dup1\n      0x80\n      add\n      0x40\n      mstore\n      swap1\n      dup2\n      0x00\n      dup3\n      add\n      sload\n      dup2\n      mstore\n      0x20\n      add\n      0x01\n      dup3\n      add\n      sload\n      dup2\n      mstore\n      0x20\n      add\n      0x02\n      dup3\n      add\n      dup1\n      sload\n      tag_363\n      swap1\n      tag_364\n      jump\t// in\n    tag_363:\n      dup1\n      0x1f\n      add\n      0x20\n      dup1\n      swap2\n      div\n      mul\n      0x20\n      add\n      mload(0x40)\n      swap1\n      dup2\n      add\n      0x40\n      mstore\n      dup1\n      swap3\n      swap2\n      swap1\n      dup2\n      dup2\n      mstore\n      0x20\n      add\n      dup3\n      dup1\n      sload\n      tag_365\n      swap1\n      tag_364\n      jump\t// in\n    tag_365:\n      dup1\n      iszero\n      tag_366\n      jumpi\n      dup1\n      0x1f\n      lt\n      tag_367\n      jumpi\n      0x0100\n      dup1\n      dup4\n      sload\n      div\n      mul\n      dup4\n      mstore\n      swap2\n      0x20\n      add\n      swap2\n      jump(tag_366)\n    tag_367:\n      dup3\n      add\n      swap2\n      swap1\n      0x00\n      mstore\n      keccak256(0x00, 0x20)\n      swap1\n    tag_368:\n      dup2\n      sload\n      dup2\n      mstore\n      swap1\n      0x01\n      add\n      swap1\n      0x20\n      add\n      dup1\n      dup4\n      gt\n      tag_368\n      jumpi\n      dup3\n      swap1\n      sub\n      0x1f\n      and\n      dup3\n      add\n      swap2\n    tag_366:\n      pop\n      pop\n      pop\n      pop\n      pop\n      dup2\n      mstore\n      0x20\n      add\n      0x03\n      dup3\n      add\n      0x00\n      swap1\n      sload\n      swap1\n      0x0100\n      exp\n      swap1\n      div\n      0xff\n      and\n      iszero\n      iszero\n      iszero\n      iszero\n      dup2\n      mstore\n      pop\n      pop\n      swap1\n      pop\n        /* \"contracts/Moderated Uris.sol\":3399:3666  function __getEntry(uint i, bool checked) \r... */\n      swap3\n      swap2\n      pop\n      pop\n      jump\t// out\n        /* \"contracts/Moderated Uris.sol\":4367:4596  function _getEntry(uint id, string memory uri, bool checked) \r... */\n    tag_278:\n        /* \"contracts/Moderated Uris.sol\":4455:4467  Entry memory */\n      tag_369\n      tag_355\n      jump\t// in\n    tag_369:\n        /* \"contracts/Moderated Uris.sol\":4480:4486  uint i */\n      0x00\n        /* \"contracts/Moderated Uris.sol\":4489:4495  _state */\n      0x02\n        /* \"contracts/Moderated Uris.sol\":4489:4510  _state.indexWithIdUri */\n      0x01\n      add\n        /* \"contracts/Moderated Uris.sol\":4489:4548  _state.indexWithIdUri[keccak256(abi.encodePacked(id, uri))] */\n      0x00\n        /* \"contracts/Moderated Uris.sol\":4538:4540  id */\n      dup7\n        /* \"contracts/Moderated Uris.sol\":4542:4545  uri */\n      dup7\n        /* \"contracts/Moderated Uris.sol\":4521:4546  abi.encodePacked(id, uri) */\n      add(0x20, mload(0x40))\n      tag_371\n      swap3\n      swap2\n      swap1\n      tag_308\n      jump\t// in\n    tag_371:\n      mload(0x40)\n      0x20\n      dup2\n      dup4\n      sub\n      sub\n      dup2\n      mstore\n      swap1\n      0x40\n      mstore\n        /* \"contracts/Moderated Uris.sol\":4511:4547  keccak256(abi.encodePacked(id, uri)) */\n      dup1\n      mload\n      swap1\n      0x20\n      add\n      keccak256\n        /* \"contracts/Moderated Uris.sol\":4489:4548  _state.indexWithIdUri[keccak256(abi.encodePacked(id, uri))] */\n      dup2\n      mstore\n      0x20\n      add\n      swap1\n      dup2\n      mstore\n      0x20\n      add\n      0x00\n      keccak256\n      sload\n        /* \"contracts/Moderated Uris.sol\":4480:4548  uint i = _state.indexWithIdUri[keccak256(abi.encodePacked(id, uri))] */\n      swap1\n      pop\n        /* \"contracts/Moderated Uris.sol\":4566:4588  __getEntry(i, checked) */\n      tag_372\n        /* \"contracts/Moderated Uris.sol\":4577:4578  i */\n      dup2\n        /* \"contracts/Moderated Uris.sol\":4580:4587  checked */\n      dup5\n        /* \"contracts/Moderated Uris.sol\":4566:4576  __getEntry */\n      tag_271\n        /* \"contracts/Moderated Uris.sol\":4566:4588  __getEntry(i, checked) */\n      jump\t// in\n    tag_372:\n        /* \"contracts/Moderated Uris.sol\":4559:4588  return __getEntry(i, checked) */\n      swap2\n      pop\n      pop\n        /* \"contracts/Moderated Uris.sol\":4367:4596  function _getEntry(uint id, string memory uri, bool checked) \r... */\n      swap4\n      swap3\n      pop\n      pop\n      pop\n      jump\t// out\n        /* \"contracts/Moderated Uris.sol\":1897:1993  function __entryExists(uint i) \r... */\n    tag_310:\n        /* \"contracts/Moderated Uris.sol\":1955:1959  bool */\n      0x00\n        /* \"contracts/Moderated Uris.sol\":1984:1985  0 */\n      dup1\n        /* \"contracts/Moderated Uris.sol\":1979:1980  i */\n      dup3\n        /* \"contracts/Moderated Uris.sol\":1979:1985  i != 0 */\n      eq\n      iszero\n        /* \"contracts/Moderated Uris.sol\":1972:1985  return i != 0 */\n      swap1\n      pop\n        /* \"contracts/Moderated Uris.sol\":1897:1993  function __entryExists(uint i) \r... */\n      swap2\n      swap1\n      pop\n      jump\t// out\n        /* \"contracts/Moderated Uris.sol\":2150:3032  function __makeEntry(uint _id, string memory _uri, bool _approved) \r... */\n    tag_317:\n        /* \"contracts/Moderated Uris.sol\":2239:2243  uint */\n      0x00\n        /* \"contracts/Moderated Uris.sol\":2360:2361  0 */\n      dup1\n        /* \"contracts/Moderated Uris.sol\":2335:2341  _state */\n      0x02\n        /* \"contracts/Moderated Uris.sol\":2335:2349  _state.entries */\n      0x00\n      add\n        /* \"contracts/Moderated Uris.sol\":2335:2356  _state.entries.length */\n      dup1\n      sload\n      swap1\n      pop\n        /* \"contracts/Moderated Uris.sol\":2335:2361  _state.entries.length == 0 */\n      eq\n        /* \"contracts/Moderated Uris.sol\":2331:2546  if (_state.entries.length == 0) {\r... */\n      iszero\n      tag_375\n      jumpi\n        /* \"contracts/Moderated Uris.sol\":2398:2534  Entry({\r... */\n      mload(0x40)\n      dup1\n      0x80\n      add\n      0x40\n      mstore\n      dup1\n        /* \"contracts/Moderated Uris.sol\":2433:2434  0 */\n      0x00\n        /* \"contracts/Moderated Uris.sol\":2398:2534  Entry({\r... */\n      dup2\n      mstore\n      0x20\n      add\n        /* \"contracts/Moderated Uris.sol\":2457:2458  0 */\n      0x00\n        /* \"contracts/Moderated Uris.sol\":2398:2534  Entry({\r... */\n      dup2\n      mstore\n      0x20\n      add\n      mload(0x40)\n      dup1\n      0x20\n      add\n      0x40\n      mstore\n      dup1\n      0x00\n      dup2\n      mstore\n      pop\n      dup2\n      mstore\n      0x20\n      add\n        /* \"contracts/Moderated Uris.sol\":2513:2518  false */\n      0x00\n        /* \"contracts/Moderated Uris.sol\":2398:2534  Entry({\r... */\n      iszero\n      iszero\n      dup2\n      mstore\n      pop\n        /* \"contracts/Moderated Uris.sol\":2378:2384  _state */\n      0x02\n        /* \"contracts/Moderated Uris.sol\":2378:2392  _state.entries */\n      0x00\n      add\n        /* \"contracts/Moderated Uris.sol\":2393:2394  0 */\n      0x00\n        /* \"contracts/Moderated Uris.sol\":2378:2395  _state.entries[0] */\n      dup2\n      sload\n      dup2\n      lt\n      tag_376\n      jumpi\n      mstore(0x00, 0x4e487b7100000000000000000000000000000000000000000000000000000000)\n      mstore(0x04, 0x32)\n      revert(0x00, 0x24)\n    tag_376:\n      swap1\n      0x00\n      mstore\n      keccak256(0x00, 0x20)\n      swap1\n      0x04\n      mul\n      add\n        /* \"contracts/Moderated Uris.sol\":2378:2534  _state.entries[0] = Entry({\r... */\n      0x00\n      dup3\n      add\n      mload\n      dup2\n      0x00\n      add\n      sstore\n      0x20\n      dup3\n      add\n      mload\n      dup2\n      0x01\n      add\n      sstore\n      0x40\n      dup3\n      add\n      mload\n      dup2\n      0x02\n      add\n      swap1\n      dup1\n      mload\n      swap1\n      0x20\n      add\n      swap1\n      tag_378\n      swap3\n      swap2\n      swap1\n      tag_379\n      jump\t// in\n    tag_378:\n      pop\n      0x60\n      dup3\n      add\n      mload\n      dup2\n      0x03\n      add\n      exp(0x0100, 0x00)\n      dup2\n      sload\n      dup2\n      0xff\n      mul\n      not\n      and\n      swap1\n      dup4\n      iszero\n      iszero\n      mul\n      or\n      swap1\n      sstore\n      pop\n      swap1\n      pop\n      pop\n        /* \"contracts/Moderated Uris.sol\":2331:2546  if (_state.entries.length == 0) {\r... */\n    tag_375:\n        /* \"contracts/Moderated Uris.sol\":2614:2623  bytes(\"\") */\n      mload(0x40)\n      dup1\n      0x20\n      add\n      0x40\n      mstore\n      dup1\n      0x00\n      dup2\n      mstore\n      pop\n        /* \"contracts/Moderated Uris.sol\":2604:2624  keccak256(bytes(\"\")) */\n      dup1\n      mload\n      swap1\n      0x20\n      add\n      keccak256\n        /* \"contracts/Moderated Uris.sol\":2594:2598  _uri */\n      dup4\n        /* \"contracts/Moderated Uris.sol\":2578:2600  keccak256(bytes(_uri)) */\n      dup1\n      mload\n      swap1\n      0x20\n      add\n      keccak256\n        /* \"contracts/Moderated Uris.sol\":2578:2624  keccak256(bytes(_uri)) != keccak256(bytes(\"\")) */\n      eq\n      iszero\n        /* \"contracts/Moderated Uris.sol\":2556:2724  require(\r... */\n      tag_380\n      jumpi\n      mload(0x40)\n      0x08c379a000000000000000000000000000000000000000000000000000000000\n      dup2\n      mstore\n      0x04\n      add\n      tag_381\n      swap1\n      tag_382\n      jump\t// in\n    tag_381:\n      mload(0x40)\n      dup1\n      swap2\n      sub\n      swap1\n      revert\n    tag_380:\n        /* \"contracts/Moderated Uris.sol\":2735:2741  _state */\n      0x02\n        /* \"contracts/Moderated Uris.sol\":2735:2749  _state.entries */\n      0x00\n      add\n        /* \"contracts/Moderated Uris.sol\":2769:2933  Entry({\r... */\n      mload(0x40)\n      dup1\n      0x80\n      add\n      0x40\n      mstore\n      dup1\n        /* \"contracts/Moderated Uris.sol\":2804:2810  _state */\n      0x02\n        /* \"contracts/Moderated Uris.sol\":2804:2818  _state.entries */\n      0x00\n      add\n        /* \"contracts/Moderated Uris.sol\":2804:2825  _state.entries.length */\n      dup1\n      sload\n      swap1\n      pop\n        /* \"contracts/Moderated Uris.sol\":2769:2933  Entry({\r... */\n      dup2\n      mstore\n      0x20\n      add\n        /* \"contracts/Moderated Uris.sol\":2848:2851  _id */\n      dup7\n        /* \"contracts/Moderated Uris.sol\":2769:2933  Entry({\r... */\n      dup2\n      mstore\n      0x20\n      add\n        /* \"contracts/Moderated Uris.sol\":2875:2879  _uri */\n      dup6\n        /* \"contracts/Moderated Uris.sol\":2769:2933  Entry({\r... */\n      dup2\n      mstore\n      0x20\n      add\n        /* \"contracts/Moderated Uris.sol\":2908:2917  _approved */\n      dup5\n        /* \"contracts/Moderated Uris.sol\":2769:2933  Entry({\r... */\n      iszero\n      iszero\n      dup2\n      mstore\n      pop\n        /* \"contracts/Moderated Uris.sol\":2735:2944  _state.entries.push(\r... */\n      swap1\n      dup1\n      0x01\n      dup2\n      sload\n      add\n      dup1\n      dup3\n      sstore\n      dup1\n      swap2\n      pop\n      pop\n      0x01\n      swap1\n      sub\n      swap1\n      0x00\n      mstore\n      keccak256(0x00, 0x20)\n      swap1\n      0x04\n      mul\n      add\n      0x00\n      swap1\n      swap2\n      swap1\n      swap2\n      swap1\n      swap2\n      pop\n      0x00\n      dup3\n      add\n      mload\n      dup2\n      0x00\n      add\n      sstore\n      0x20\n      dup3\n      add\n      mload\n      dup2\n      0x01\n      add\n      sstore\n      0x40\n      dup3\n      add\n      mload\n      dup2\n      0x02\n      add\n      swap1\n      dup1\n      mload\n      swap1\n      0x20\n      add\n      swap1\n      tag_384\n      swap3\n      swap2\n      swap1\n      tag_379\n      jump\t// in\n    tag_384:\n      pop\n      0x60\n      dup3\n      add\n      mload\n      dup2\n      0x03\n      add\n      exp(0x0100, 0x00)\n      dup2\n      sload\n      dup2\n      0xff\n      mul\n      not\n      and\n      swap1\n      dup4\n      iszero\n      iszero\n      mul\n      or\n      swap1\n      sstore\n      pop\n      pop\n      pop\n        /* \"contracts/Moderated Uris.sol\":2984:2985  1 */\n      0x01\n        /* \"contracts/Moderated Uris.sol\":2962:2968  _state */\n      0x02\n        /* \"contracts/Moderated Uris.sol\":2962:2976  _state.entries */\n      0x00\n      add\n        /* \"contracts/Moderated Uris.sol\":2962:2983  _state.entries.length */\n      dup1\n      sload\n      swap1\n      pop\n        /* \"contracts/Moderated Uris.sol\":2962:2985  _state.entries.length-1 */\n      tag_385\n      swap2\n      swap1\n      tag_386\n      jump\t// in\n    tag_385:\n        /* \"contracts/Moderated Uris.sol\":2955:2985  return _state.entries.length-1 */\n      swap1\n      pop\n        /* \"contracts/Moderated Uris.sol\":2150:3032  function __makeEntry(uint _id, string memory _uri, bool _approved) \r... */\n      swap4\n      swap3\n      pop\n      pop\n      pop\n      jump\t// out\n    tag_355:\n      mload(0x40)\n      dup1\n      0x80\n      add\n      0x40\n      mstore\n      dup1\n      0x00\n      dup2\n      mstore\n      0x20\n      add\n      0x00\n      dup2\n      mstore\n      0x20\n      add\n      0x60\n      dup2\n      mstore\n      0x20\n      add\n      iszero(iszero(0x00))\n      dup2\n      mstore\n      pop\n      swap1\n      jump\t// out\n    tag_379:\n      dup3\n      dup1\n      sload\n      tag_387\n      swap1\n      tag_364\n      jump\t// in\n    tag_387:\n      swap1\n      0x00\n      mstore\n      keccak256(0x00, 0x20)\n      swap1\n      0x1f\n      add\n      0x20\n      swap1\n      div\n      dup2\n      add\n      swap3\n      dup3\n      tag_389\n      jumpi\n      0x00\n      dup6\n      sstore\n      jump(tag_388)\n    tag_389:\n      dup3\n      0x1f\n      lt\n      tag_390\n      jumpi\n      dup1\n      mload\n      not(0xff)\n      and\n      dup4\n      dup1\n      add\n      or\n      dup6\n      sstore\n      jump(tag_388)\n    tag_390:\n      dup3\n      dup1\n      add\n      0x01\n      add\n      dup6\n      sstore\n      dup3\n      iszero\n      tag_388\n      jumpi\n      swap2\n      dup3\n      add\n    tag_391:\n      dup3\n      dup2\n      gt\n      iszero\n      tag_392\n      jumpi\n      dup3\n      mload\n      dup3\n      sstore\n      swap2\n      0x20\n      add\n      swap2\n      swap1\n      0x01\n      add\n      swap1\n      jump(tag_391)\n    tag_392:\n    tag_388:\n      pop\n      swap1\n      pop\n      tag_393\n      swap2\n      swap1\n      tag_394\n      jump\t// in\n    tag_393:\n      pop\n      swap1\n      jump\t// out\n    tag_394:\n    tag_395:\n      dup1\n      dup3\n      gt\n      iszero\n      tag_396\n      jumpi\n      0x00\n      dup2\n      0x00\n      swap1\n      sstore\n      pop\n      0x01\n      add\n      jump(tag_395)\n    tag_396:\n      pop\n      swap1\n      jump\t// out\n        /* \"#utility.yul\":7:352   */\n    tag_398:\n      0x00\n        /* \"#utility.yul\":110:176   */\n      tag_400\n        /* \"#utility.yul\":126:175   */\n      tag_401\n        /* \"#utility.yul\":168:174   */\n      dup5\n        /* \"#utility.yul\":126:175   */\n      tag_402\n      jump\t// in\n    tag_401:\n        /* \"#utility.yul\":110:176   */\n      tag_403\n      jump\t// in\n    tag_400:\n        /* \"#utility.yul\":101:176   */\n      swap1\n      pop\n        /* \"#utility.yul\":199:205   */\n      dup3\n        /* \"#utility.yul\":192:197   */\n      dup2\n        /* \"#utility.yul\":185:206   */\n      mstore\n        /* \"#utility.yul\":237:241   */\n      0x20\n        /* \"#utility.yul\":230:235   */\n      dup2\n        /* \"#utility.yul\":226:242   */\n      add\n        /* \"#utility.yul\":275:278   */\n      dup5\n        /* \"#utility.yul\":266:272   */\n      dup5\n        /* \"#utility.yul\":261:264   */\n      dup5\n        /* \"#utility.yul\":257:273   */\n      add\n        /* \"#utility.yul\":254:279   */\n      gt\n        /* \"#utility.yul\":251:253   */\n      iszero\n      tag_404\n      jumpi\n        /* \"#utility.yul\":292:293   */\n      0x00\n        /* \"#utility.yul\":289:290   */\n      dup1\n        /* \"#utility.yul\":282:294   */\n      revert\n        /* \"#utility.yul\":251:253   */\n    tag_404:\n        /* \"#utility.yul\":305:346   */\n      tag_405\n        /* \"#utility.yul\":339:345   */\n      dup5\n        /* \"#utility.yul\":334:337   */\n      dup3\n        /* \"#utility.yul\":329:332   */\n      dup6\n        /* \"#utility.yul\":305:346   */\n      tag_406\n      jump\t// in\n    tag_405:\n        /* \"#utility.yul\":91:352   */\n      pop\n      swap4\n      swap3\n      pop\n      pop\n      pop\n      jump\t// out\n        /* \"#utility.yul\":358:497   */\n    tag_407:\n      0x00\n        /* \"#utility.yul\":442:448   */\n      dup2\n        /* \"#utility.yul\":429:449   */\n      calldataload\n        /* \"#utility.yul\":420:449   */\n      swap1\n      pop\n        /* \"#utility.yul\":458:491   */\n      tag_409\n        /* \"#utility.yul\":485:490   */\n      dup2\n        /* \"#utility.yul\":458:491   */\n      tag_410\n      jump\t// in\n    tag_409:\n        /* \"#utility.yul\":410:497   */\n      swap3\n      swap2\n      pop\n      pop\n      jump\t// out\n        /* \"#utility.yul\":503:636   */\n    tag_411:\n      0x00\n        /* \"#utility.yul\":584:590   */\n      dup2\n        /* \"#utility.yul\":571:591   */\n      calldataload\n        /* \"#utility.yul\":562:591   */\n      swap1\n      pop\n        /* \"#utility.yul\":600:630   */\n      tag_413\n        /* \"#utility.yul\":624:629   */\n      dup2\n        /* \"#utility.yul\":600:630   */\n      tag_414\n      jump\t// in\n    tag_413:\n        /* \"#utility.yul\":552:636   */\n      swap3\n      swap2\n      pop\n      pop\n      jump\t// out\n        /* \"#utility.yul\":642:781   */\n    tag_415:\n      0x00\n        /* \"#utility.yul\":726:732   */\n      dup2\n        /* \"#utility.yul\":713:733   */\n      calldataload\n        /* \"#utility.yul\":704:733   */\n      swap1\n      pop\n        /* \"#utility.yul\":742:775   */\n      tag_417\n        /* \"#utility.yul\":769:774   */\n      dup2\n        /* \"#utility.yul\":742:775   */\n      tag_418\n      jump\t// in\n    tag_417:\n        /* \"#utility.yul\":694:781   */\n      swap3\n      swap2\n      pop\n      pop\n      jump\t// out\n        /* \"#utility.yul\":787:924   */\n    tag_419:\n      0x00\n        /* \"#utility.yul\":870:876   */\n      dup2\n        /* \"#utility.yul\":857:877   */\n      calldataload\n        /* \"#utility.yul\":848:877   */\n      swap1\n      pop\n        /* \"#utility.yul\":886:918   */\n      tag_421\n        /* \"#utility.yul\":912:917   */\n      dup2\n        /* \"#utility.yul\":886:918   */\n      tag_422\n      jump\t// in\n    tag_421:\n        /* \"#utility.yul\":838:924   */\n      swap3\n      swap2\n      pop\n      pop\n      jump\t// out\n        /* \"#utility.yul\":944:1217   */\n    tag_423:\n      0x00\n        /* \"#utility.yul\":1049:1052   */\n      dup3\n        /* \"#utility.yul\":1042:1046   */\n      0x1f\n        /* \"#utility.yul\":1034:1040   */\n      dup4\n        /* \"#utility.yul\":1030:1047   */\n      add\n        /* \"#utility.yul\":1026:1053   */\n      slt\n        /* \"#utility.yul\":1016:1018   */\n      tag_425\n      jumpi\n        /* \"#utility.yul\":1067:1068   */\n      0x00\n        /* \"#utility.yul\":1064:1065   */\n      dup1\n        /* \"#utility.yul\":1057:1069   */\n      revert\n        /* \"#utility.yul\":1016:1018   */\n    tag_425:\n        /* \"#utility.yul\":1107:1113   */\n      dup2\n        /* \"#utility.yul\":1094:1114   */\n      calldataload\n        /* \"#utility.yul\":1132:1211   */\n      tag_426\n        /* \"#utility.yul\":1207:1210   */\n      dup5\n        /* \"#utility.yul\":1199:1205   */\n      dup3\n        /* \"#utility.yul\":1192:1196   */\n      0x20\n        /* \"#utility.yul\":1184:1190   */\n      dup7\n        /* \"#utility.yul\":1180:1197   */\n      add\n        /* \"#utility.yul\":1132:1211   */\n      tag_398\n      jump\t// in\n    tag_426:\n        /* \"#utility.yul\":1123:1211   */\n      swap2\n      pop\n        /* \"#utility.yul\":1006:1217   */\n      pop\n      swap3\n      swap2\n      pop\n      pop\n      jump\t// out\n        /* \"#utility.yul\":1223:1362   */\n    tag_427:\n      0x00\n        /* \"#utility.yul\":1307:1313   */\n      dup2\n        /* \"#utility.yul\":1294:1314   */\n      calldataload\n        /* \"#utility.yul\":1285:1314   */\n      swap1\n      pop\n        /* \"#utility.yul\":1323:1356   */\n      tag_429\n        /* \"#utility.yul\":1350:1355   */\n      dup2\n        /* \"#utility.yul\":1323:1356   */\n      tag_430\n      jump\t// in\n    tag_429:\n        /* \"#utility.yul\":1275:1362   */\n      swap3\n      swap2\n      pop\n      pop\n      jump\t// out\n        /* \"#utility.yul\":1368:1630   */\n    tag_39:\n      0x00\n        /* \"#utility.yul\":1476:1478   */\n      0x20\n        /* \"#utility.yul\":1464:1473   */\n      dup3\n        /* \"#utility.yul\":1455:1462   */\n      dup5\n        /* \"#utility.yul\":1451:1474   */\n      sub\n        /* \"#utility.yul\":1447:1479   */\n      slt\n        /* \"#utility.yul\":1444:1446   */\n      iszero\n      tag_432\n      jumpi\n        /* \"#utility.yul\":1492:1493   */\n      0x00\n        /* \"#utility.yul\":1489:1490   */\n      dup1\n        /* \"#utility.yul\":1482:1494   */\n      revert\n        /* \"#utility.yul\":1444:1446   */\n    tag_432:\n        /* \"#utility.yul\":1535:1536   */\n      0x00\n        /* \"#utility.yul\":1560:1613   */\n      tag_433\n        /* \"#utility.yul\":1605:1612   */\n      dup5\n        /* \"#utility.yul\":1596:1602   */\n      dup3\n        /* \"#utility.yul\":1585:1594   */\n      dup6\n        /* \"#utility.yul\":1581:1603   */\n      add\n        /* \"#utility.yul\":1560:1613   */\n      tag_415\n      jump\t// in\n    tag_433:\n        /* \"#utility.yul\":1550:1613   */\n      swap2\n      pop\n        /* \"#utility.yul\":1506:1623   */\n      pop\n        /* \"#utility.yul\":1434:1630   */\n      swap3\n      swap2\n      pop\n      pop\n      jump\t// out\n        /* \"#utility.yul\":1636:2043   */\n    tag_52:\n      0x00\n      dup1\n        /* \"#utility.yul\":1761:1763   */\n      0x40\n        /* \"#utility.yul\":1749:1758   */\n      dup4\n        /* \"#utility.yul\":1740:1747   */\n      dup6\n        /* \"#utility.yul\":1736:1759   */\n      sub\n        /* \"#utility.yul\":1732:1764   */\n      slt\n        /* \"#utility.yul\":1729:1731   */\n      iszero\n      tag_435\n      jumpi\n        /* \"#utility.yul\":1777:1778   */\n      0x00\n        /* \"#utility.yul\":1774:1775   */\n      dup1\n        /* \"#utility.yul\":1767:1779   */\n      revert\n        /* \"#utility.yul\":1729:1731   */\n    tag_435:\n        /* \"#utility.yul\":1820:1821   */\n      0x00\n        /* \"#utility.yul\":1845:1898   */\n      tag_436\n        /* \"#utility.yul\":1890:1897   */\n      dup6\n        /* \"#utility.yul\":1881:1887   */\n      dup3\n        /* \"#utility.yul\":1870:1879   */\n      dup7\n        /* \"#utility.yul\":1866:1888   */\n      add\n        /* \"#utility.yul\":1845:1898   */\n      tag_415\n      jump\t// in\n    tag_436:\n        /* \"#utility.yul\":1835:1898   */\n      swap3\n      pop\n        /* \"#utility.yul\":1791:1908   */\n      pop\n        /* \"#utility.yul\":1947:1949   */\n      0x20\n        /* \"#utility.yul\":1973:2026   */\n      tag_437\n        /* \"#utility.yul\":2018:2025   */\n      dup6\n        /* \"#utility.yul\":2009:2015   */\n      dup3\n        /* \"#utility.yul\":1998:2007   */\n      dup7\n        /* \"#utility.yul\":1994:2016   */\n      add\n        /* \"#utility.yul\":1973:2026   */\n      tag_407\n      jump\t// in\n    tag_437:\n        /* \"#utility.yul\":1963:2026   */\n      swap2\n      pop\n        /* \"#utility.yul\":1918:2036   */\n      pop\n        /* \"#utility.yul\":1719:2043   */\n      swap3\n      pop\n      swap3\n      swap1\n      pop\n      jump\t// out\n        /* \"#utility.yul\":2049:2309   */\n    tag_29:\n      0x00\n        /* \"#utility.yul\":2156:2158   */\n      0x20\n        /* \"#utility.yul\":2144:2153   */\n      dup3\n        /* \"#utility.yul\":2135:2142   */\n      dup5\n        /* \"#utility.yul\":2131:2154   */\n      sub\n        /* \"#utility.yul\":2127:2159   */\n      slt\n        /* \"#utility.yul\":2124:2126   */\n      iszero\n      tag_439\n      jumpi\n        /* \"#utility.yul\":2172:2173   */\n      0x00\n        /* \"#utility.yul\":2169:2170   */\n      dup1\n        /* \"#utility.yul\":2162:2174   */\n      revert\n        /* \"#utility.yul\":2124:2126   */\n    tag_439:\n        /* \"#utility.yul\":2215:2216   */\n      0x00\n        /* \"#utility.yul\":2240:2292   */\n      tag_440\n        /* \"#utility.yul\":2284:2291   */\n      dup5\n        /* \"#utility.yul\":2275:2281   */\n      dup3\n        /* \"#utility.yul\":2264:2273   */\n      dup6\n        /* \"#utility.yul\":2260:2282   */\n      add\n        /* \"#utility.yul\":2240:2292   */\n      tag_419\n      jump\t// in\n    tag_440:\n        /* \"#utility.yul\":2230:2292   */\n      swap2\n      pop\n        /* \"#utility.yul\":2186:2302   */\n      pop\n        /* \"#utility.yul\":2114:2309   */\n      swap3\n      swap2\n      pop\n      pop\n      jump\t// out\n        /* \"#utility.yul\":2315:2690   */\n    tag_48:\n      0x00\n        /* \"#utility.yul\":2433:2435   */\n      0x20\n        /* \"#utility.yul\":2421:2430   */\n      dup3\n        /* \"#utility.yul\":2412:2419   */\n      dup5\n        /* \"#utility.yul\":2408:2431   */\n      sub\n        /* \"#utility.yul\":2404:2436   */\n      slt\n        /* \"#utility.yul\":2401:2403   */\n      iszero\n      tag_442\n      jumpi\n        /* \"#utility.yul\":2449:2450   */\n      0x00\n        /* \"#utility.yul\":2446:2447   */\n      dup1\n        /* \"#utility.yul\":2439:2451   */\n      revert\n        /* \"#utility.yul\":2401:2403   */\n    tag_442:\n        /* \"#utility.yul\":2520:2521   */\n      0x00\n        /* \"#utility.yul\":2509:2518   */\n      dup3\n        /* \"#utility.yul\":2505:2522   */\n      add\n        /* \"#utility.yul\":2492:2523   */\n      calldataload\n        /* \"#utility.yul\":2550:2568   */\n      0xffffffffffffffff\n        /* \"#utility.yul\":2542:2548   */\n      dup2\n        /* \"#utility.yul\":2539:2569   */\n      gt\n        /* \"#utility.yul\":2536:2538   */\n      iszero\n      tag_443\n      jumpi\n        /* \"#utility.yul\":2582:2583   */\n      0x00\n        /* \"#utility.yul\":2579:2580   */\n      dup1\n        /* \"#utility.yul\":2572:2584   */\n      revert\n        /* \"#utility.yul\":2536:2538   */\n    tag_443:\n        /* \"#utility.yul\":2610:2673   */\n      tag_444\n        /* \"#utility.yul\":2665:2672   */\n      dup5\n        /* \"#utility.yul\":2656:2662   */\n      dup3\n        /* \"#utility.yul\":2645:2654   */\n      dup6\n        /* \"#utility.yul\":2641:2663   */\n      add\n        /* \"#utility.yul\":2610:2673   */\n      tag_423\n      jump\t// in\n    tag_444:\n        /* \"#utility.yul\":2600:2673   */\n      swap2\n      pop\n        /* \"#utility.yul\":2463:2683   */\n      pop\n        /* \"#utility.yul\":2391:2690   */\n      swap3\n      swap2\n      pop\n      pop\n      jump\t// out\n        /* \"#utility.yul\":2696:2958   */\n    tag_78:\n      0x00\n        /* \"#utility.yul\":2804:2806   */\n      0x20\n        /* \"#utility.yul\":2792:2801   */\n      dup3\n        /* \"#utility.yul\":2783:2790   */\n      dup5\n        /* \"#utility.yul\":2779:2802   */\n      sub\n        /* \"#utility.yul\":2775:2807   */\n      slt\n        /* \"#utility.yul\":2772:2774   */\n      iszero\n      tag_446\n      jumpi\n        /* \"#utility.yul\":2820:2821   */\n      0x00\n        /* \"#utility.yul\":2817:2818   */\n      dup1\n        /* \"#utility.yul\":2810:2822   */\n      revert\n        /* \"#utility.yul\":2772:2774   */\n    tag_446:\n        /* \"#utility.yul\":2863:2864   */\n      0x00\n        /* \"#utility.yul\":2888:2941   */\n      tag_447\n        /* \"#utility.yul\":2933:2940   */\n      dup5\n        /* \"#utility.yul\":2924:2930   */\n      dup3\n        /* \"#utility.yul\":2913:2922   */\n      dup6\n        /* \"#utility.yul\":2909:2931   */\n      add\n        /* \"#utility.yul\":2888:2941   */\n      tag_427\n      jump\t// in\n    tag_447:\n        /* \"#utility.yul\":2878:2941   */\n      swap2\n      pop\n        /* \"#utility.yul\":2834:2951   */\n      pop\n        /* \"#utility.yul\":2762:2958   */\n      swap3\n      swap2\n      pop\n      pop\n      jump\t// out\n        /* \"#utility.yul\":2964:3365   */\n    tag_96:\n      0x00\n      dup1\n        /* \"#utility.yul\":3086:3088   */\n      0x40\n        /* \"#utility.yul\":3074:3083   */\n      dup4\n        /* \"#utility.yul\":3065:3072   */\n      dup6\n        /* \"#utility.yul\":3061:3084   */\n      sub\n        /* \"#utility.yul\":3057:3089   */\n      slt\n        /* \"#utility.yul\":3054:3056   */\n      iszero\n      tag_449\n      jumpi\n        /* \"#utility.yul\":3102:3103   */\n      0x00\n        /* \"#utility.yul\":3099:3100   */\n      dup1\n        /* \"#utility.yul\":3092:3104   */\n      revert\n        /* \"#utility.yul\":3054:3056   */\n    tag_449:\n        /* \"#utility.yul\":3145:3146   */\n      0x00\n        /* \"#utility.yul\":3170:3223   */\n      tag_450\n        /* \"#utility.yul\":3215:3222   */\n      dup6\n        /* \"#utility.yul\":3206:3212   */\n      dup3\n        /* \"#utility.yul\":3195:3204   */\n      dup7\n        /* \"#utility.yul\":3191:3213   */\n      add\n        /* \"#utility.yul\":3170:3223   */\n      tag_427\n      jump\t// in\n    tag_450:\n        /* \"#utility.yul\":3160:3223   */\n      swap3\n      pop\n        /* \"#utility.yul\":3116:3233   */\n      pop\n        /* \"#utility.yul\":3272:3274   */\n      0x20\n        /* \"#utility.yul\":3298:3348   */\n      tag_451\n        /* \"#utility.yul\":3340:3347   */\n      dup6\n        /* \"#utility.yul\":3331:3337   */\n      dup3\n        /* \"#utility.yul\":3320:3329   */\n      dup7\n        /* \"#utility.yul\":3316:3338   */\n      add\n        /* \"#utility.yul\":3298:3348   */\n      tag_411\n      jump\t// in\n    tag_451:\n        /* \"#utility.yul\":3288:3348   */\n      swap2\n      pop\n        /* \"#utility.yul\":3243:3358   */\n      pop\n        /* \"#utility.yul\":3044:3365   */\n      swap3\n      pop\n      swap3\n      swap1\n      pop\n      jump\t// out\n        /* \"#utility.yul\":3371:3891   */\n    tag_35:\n      0x00\n      dup1\n        /* \"#utility.yul\":3506:3508   */\n      0x40\n        /* \"#utility.yul\":3494:3503   */\n      dup4\n        /* \"#utility.yul\":3485:3492   */\n      dup6\n        /* \"#utility.yul\":3481:3504   */\n      sub\n        /* \"#utility.yul\":3477:3509   */\n      slt\n        /* \"#utility.yul\":3474:3476   */\n      iszero\n      tag_453\n      jumpi\n        /* \"#utility.yul\":3522:3523   */\n      0x00\n        /* \"#utility.yul\":3519:3520   */\n      dup1\n        /* \"#utility.yul\":3512:3524   */\n      revert\n        /* \"#utility.yul\":3474:3476   */\n    tag_453:\n        /* \"#utility.yul\":3565:3566   */\n      0x00\n        /* \"#utility.yul\":3590:3643   */\n      tag_454\n        /* \"#utility.yul\":3635:3642   */\n      dup6\n        /* \"#utility.yul\":3626:3632   */\n      dup3\n        /* \"#utility.yul\":3615:3624   */\n      dup7\n        /* \"#utility.yul\":3611:3633   */\n      add\n        /* \"#utility.yul\":3590:3643   */\n      tag_427\n      jump\t// in\n    tag_454:\n        /* \"#utility.yul\":3580:3643   */\n      swap3\n      pop\n        /* \"#utility.yul\":3536:3653   */\n      pop\n        /* \"#utility.yul\":3720:3722   */\n      0x20\n        /* \"#utility.yul\":3709:3718   */\n      dup4\n        /* \"#utility.yul\":3705:3723   */\n      add\n        /* \"#utility.yul\":3692:3724   */\n      calldataload\n        /* \"#utility.yul\":3751:3769   */\n      0xffffffffffffffff\n        /* \"#utility.yul\":3743:3749   */\n      dup2\n        /* \"#utility.yul\":3740:3770   */\n      gt\n        /* \"#utility.yul\":3737:3739   */\n      iszero\n      tag_455\n      jumpi\n        /* \"#utility.yul\":3783:3784   */\n      0x00\n        /* \"#utility.yul\":3780:3781   */\n      dup1\n        /* \"#utility.yul\":3773:3785   */\n      revert\n        /* \"#utility.yul\":3737:3739   */\n    tag_455:\n        /* \"#utility.yul\":3811:3874   */\n      tag_456\n        /* \"#utility.yul\":3866:3873   */\n      dup6\n        /* \"#utility.yul\":3857:3863   */\n      dup3\n        /* \"#utility.yul\":3846:3855   */\n      dup7\n        /* \"#utility.yul\":3842:3864   */\n      add\n        /* \"#utility.yul\":3811:3874   */\n      tag_423\n      jump\t// in\n    tag_456:\n        /* \"#utility.yul\":3801:3874   */\n      swap2\n      pop\n        /* \"#utility.yul\":3663:3884   */\n      pop\n        /* \"#utility.yul\":3464:3891   */\n      swap3\n      pop\n      swap3\n      swap1\n      pop\n      jump\t// out\n        /* \"#utility.yul\":3897:4093   */\n    tag_457:\n      0x00\n        /* \"#utility.yul\":4021:4087   */\n      tag_459\n        /* \"#utility.yul\":4083:4086   */\n      dup4\n        /* \"#utility.yul\":4075:4081   */\n      dup4\n        /* \"#utility.yul\":4021:4087   */\n      tag_460\n      jump\t// in\n    tag_459:\n        /* \"#utility.yul\":4007:4087   */\n      swap1\n      pop\n        /* \"#utility.yul\":3997:4093   */\n      swap3\n      swap2\n      pop\n      pop\n      jump\t// out\n        /* \"#utility.yul\":4099:4278   */\n    tag_461:\n      0x00\n        /* \"#utility.yul\":4189:4235   */\n      tag_463\n        /* \"#utility.yul\":4231:4234   */\n      dup4\n        /* \"#utility.yul\":4223:4229   */\n      dup4\n        /* \"#utility.yul\":4189:4235   */\n      tag_464\n      jump\t// in\n    tag_463:\n        /* \"#utility.yul\":4267:4271   */\n      0x20\n        /* \"#utility.yul\":4262:4265   */\n      dup4\n        /* \"#utility.yul\":4258:4272   */\n      add\n        /* \"#utility.yul\":4244:4272   */\n      swap1\n      pop\n        /* \"#utility.yul\":4179:4278   */\n      swap3\n      swap2\n      pop\n      pop\n      jump\t// out\n        /* \"#utility.yul\":4312:5303   */\n    tag_465:\n      0x00\n        /* \"#utility.yul\":4480:4544   */\n      tag_467\n        /* \"#utility.yul\":4538:4543   */\n      dup3\n        /* \"#utility.yul\":4480:4544   */\n      tag_468\n      jump\t// in\n    tag_467:\n        /* \"#utility.yul\":4560:4656   */\n      tag_469\n        /* \"#utility.yul\":4649:4655   */\n      dup2\n        /* \"#utility.yul\":4644:4647   */\n      dup6\n        /* \"#utility.yul\":4560:4656   */\n      tag_470\n      jump\t// in\n    tag_469:\n        /* \"#utility.yul\":4553:4656   */\n      swap4\n      pop\n        /* \"#utility.yul\":4682:4685   */\n      dup4\n        /* \"#utility.yul\":4727:4731   */\n      0x20\n        /* \"#utility.yul\":4719:4725   */\n      dup3\n        /* \"#utility.yul\":4715:4732   */\n      mul\n        /* \"#utility.yul\":4710:4713   */\n      dup6\n        /* \"#utility.yul\":4706:4733   */\n      add\n        /* \"#utility.yul\":4757:4823   */\n      tag_471\n        /* \"#utility.yul\":4817:4822   */\n      dup6\n        /* \"#utility.yul\":4757:4823   */\n      tag_472\n      jump\t// in\n    tag_471:\n        /* \"#utility.yul\":4846:4853   */\n      dup1\n        /* \"#utility.yul\":4877:4878   */\n      0x00\n        /* \"#utility.yul\":4862:5258   */\n    tag_473:\n        /* \"#utility.yul\":4887:4893   */\n      dup6\n        /* \"#utility.yul\":4884:4885   */\n      dup2\n        /* \"#utility.yul\":4881:4894   */\n      lt\n        /* \"#utility.yul\":4862:5258   */\n      iszero\n      tag_475\n      jumpi\n        /* \"#utility.yul\":4958:4967   */\n      dup5\n        /* \"#utility.yul\":4952:4956   */\n      dup5\n        /* \"#utility.yul\":4948:4968   */\n      sub\n        /* \"#utility.yul\":4943:4946   */\n      dup10\n        /* \"#utility.yul\":4936:4969   */\n      mstore\n        /* \"#utility.yul\":5009:5015   */\n      dup2\n        /* \"#utility.yul\":5003:5016   */\n      mload\n        /* \"#utility.yul\":5037:5121   */\n      tag_476\n        /* \"#utility.yul\":5116:5120   */\n      dup6\n        /* \"#utility.yul\":5101:5114   */\n      dup3\n        /* \"#utility.yul\":5037:5121   */\n      tag_457\n      jump\t// in\n    tag_476:\n        /* \"#utility.yul\":5029:5121   */\n      swap5\n      pop\n        /* \"#utility.yul\":5144:5214   */\n      tag_477\n        /* \"#utility.yul\":5207:5213   */\n      dup4\n        /* \"#utility.yul\":5144:5214   */\n      tag_478\n      jump\t// in\n    tag_477:\n        /* \"#utility.yul\":5134:5214   */\n      swap3\n      pop\n        /* \"#utility.yul\":5243:5247   */\n      0x20\n        /* \"#utility.yul\":5238:5241   */\n      dup11\n        /* \"#utility.yul\":5234:5248   */\n      add\n        /* \"#utility.yul\":5227:5248   */\n      swap10\n      pop\n        /* \"#utility.yul\":4922:5258   */\n      pop\n        /* \"#utility.yul\":4909:4910   */\n      0x01\n        /* \"#utility.yul\":4906:4907   */\n      dup2\n        /* \"#utility.yul\":4902:4911   */\n      add\n        /* \"#utility.yul\":4897:4911   */\n      swap1\n      pop\n        /* \"#utility.yul\":4862:5258   */\n      jump(tag_473)\n    tag_475:\n        /* \"#utility.yul\":4866:4880   */\n      pop\n        /* \"#utility.yul\":5274:5278   */\n      dup3\n        /* \"#utility.yul\":5267:5278   */\n      swap8\n      pop\n        /* \"#utility.yul\":5294:5297   */\n      dup8\n        /* \"#utility.yul\":5287:5297   */\n      swap6\n      pop\n        /* \"#utility.yul\":4456:5303   */\n      pop\n      pop\n      pop\n      pop\n      pop\n      swap3\n      swap2\n      pop\n      pop\n      jump\t// out\n        /* \"#utility.yul\":5339:6071   */\n    tag_479:\n      0x00\n        /* \"#utility.yul\":5487:5541   */\n      tag_481\n        /* \"#utility.yul\":5535:5540   */\n      dup3\n        /* \"#utility.yul\":5487:5541   */\n      tag_482\n      jump\t// in\n    tag_481:\n        /* \"#utility.yul\":5557:5643   */\n      tag_483\n        /* \"#utility.yul\":5636:5642   */\n      dup2\n        /* \"#utility.yul\":5631:5634   */\n      dup6\n        /* \"#utility.yul\":5557:5643   */\n      tag_484\n      jump\t// in\n    tag_483:\n        /* \"#utility.yul\":5550:5643   */\n      swap4\n      pop\n        /* \"#utility.yul\":5667:5723   */\n      tag_485\n        /* \"#utility.yul\":5717:5722   */\n      dup4\n        /* \"#utility.yul\":5667:5723   */\n      tag_486\n      jump\t// in\n    tag_485:\n        /* \"#utility.yul\":5746:5753   */\n      dup1\n        /* \"#utility.yul\":5777:5778   */\n      0x00\n        /* \"#utility.yul\":5762:6046   */\n    tag_487:\n        /* \"#utility.yul\":5787:5793   */\n      dup4\n        /* \"#utility.yul\":5784:5785   */\n      dup2\n        /* \"#utility.yul\":5781:5794   */\n      lt\n        /* \"#utility.yul\":5762:6046   */\n      iszero\n      tag_489\n      jumpi\n        /* \"#utility.yul\":5863:5869   */\n      dup2\n        /* \"#utility.yul\":5857:5870   */\n      mload\n        /* \"#utility.yul\":5890:5953   */\n      tag_490\n        /* \"#utility.yul\":5949:5952   */\n      dup9\n        /* \"#utility.yul\":5934:5947   */\n      dup3\n        /* \"#utility.yul\":5890:5953   */\n      tag_461\n      jump\t// in\n    tag_490:\n        /* \"#utility.yul\":5883:5953   */\n      swap8\n      pop\n        /* \"#utility.yul\":5976:6036   */\n      tag_491\n        /* \"#utility.yul\":6029:6035   */\n      dup4\n        /* \"#utility.yul\":5976:6036   */\n      tag_492\n      jump\t// in\n    tag_491:\n        /* \"#utility.yul\":5966:6036   */\n      swap3\n      pop\n        /* \"#utility.yul\":5822:6046   */\n      pop\n        /* \"#utility.yul\":5809:5810   */\n      0x01\n        /* \"#utility.yul\":5806:5807   */\n      dup2\n        /* \"#utility.yul\":5802:5811   */\n      add\n        /* \"#utility.yul\":5797:5811   */\n      swap1\n      pop\n        /* \"#utility.yul\":5762:6046   */\n      jump(tag_487)\n    tag_489:\n        /* \"#utility.yul\":5766:5780   */\n      pop\n        /* \"#utility.yul\":6062:6065   */\n      dup6\n        /* \"#utility.yul\":6055:6065   */\n      swap4\n      pop\n        /* \"#utility.yul\":5463:6071   */\n      pop\n      pop\n      pop\n      swap3\n      swap2\n      pop\n      pop\n      jump\t// out\n        /* \"#utility.yul\":6077:6186   */\n    tag_493:\n        /* \"#utility.yul\":6158:6179   */\n      tag_495\n        /* \"#utility.yul\":6173:6178   */\n      dup2\n        /* \"#utility.yul\":6158:6179   */\n      tag_496\n      jump\t// in\n    tag_495:\n        /* \"#utility.yul\":6153:6156   */\n      dup3\n        /* \"#utility.yul\":6146:6180   */\n      mstore\n        /* \"#utility.yul\":6136:6186   */\n      pop\n      pop\n      jump\t// out\n        /* \"#utility.yul\":6192:6310   */\n    tag_497:\n        /* \"#utility.yul\":6279:6303   */\n      tag_499\n        /* \"#utility.yul\":6297:6302   */\n      dup2\n        /* \"#utility.yul\":6279:6303   */\n      tag_500\n      jump\t// in\n    tag_499:\n        /* \"#utility.yul\":6274:6277   */\n      dup3\n        /* \"#utility.yul\":6267:6304   */\n      mstore\n        /* \"#utility.yul\":6257:6310   */\n      pop\n      pop\n      jump\t// out\n        /* \"#utility.yul\":6316:6660   */\n    tag_460:\n      0x00\n        /* \"#utility.yul\":6422:6461   */\n      tag_502\n        /* \"#utility.yul\":6455:6460   */\n      dup3\n        /* \"#utility.yul\":6422:6461   */\n      tag_503\n      jump\t// in\n    tag_502:\n        /* \"#utility.yul\":6477:6538   */\n      tag_504\n        /* \"#utility.yul\":6531:6537   */\n      dup2\n        /* \"#utility.yul\":6526:6529   */\n      dup6\n        /* \"#utility.yul\":6477:6538   */\n      tag_505\n      jump\t// in\n    tag_504:\n        /* \"#utility.yul\":6470:6538   */\n      swap4\n      pop\n        /* \"#utility.yul\":6547:6599   */\n      tag_506\n        /* \"#utility.yul\":6592:6598   */\n      dup2\n        /* \"#utility.yul\":6587:6590   */\n      dup6\n        /* \"#utility.yul\":6580:6584   */\n      0x20\n        /* \"#utility.yul\":6573:6578   */\n      dup7\n        /* \"#utility.yul\":6569:6585   */\n      add\n        /* \"#utility.yul\":6547:6599   */\n      tag_507\n      jump\t// in\n    tag_506:\n        /* \"#utility.yul\":6624:6653   */\n      tag_508\n        /* \"#utility.yul\":6646:6652   */\n      dup2\n        /* \"#utility.yul\":6624:6653   */\n      tag_509\n      jump\t// in\n    tag_508:\n        /* \"#utility.yul\":6619:6622   */\n      dup5\n        /* \"#utility.yul\":6615:6654   */\n      add\n        /* \"#utility.yul\":6608:6654   */\n      swap2\n      pop\n        /* \"#utility.yul\":6398:6660   */\n      pop\n      swap3\n      swap2\n      pop\n      pop\n      jump\t// out\n        /* \"#utility.yul\":6666:7030   */\n    tag_510:\n      0x00\n        /* \"#utility.yul\":6782:6821   */\n      tag_512\n        /* \"#utility.yul\":6815:6820   */\n      dup3\n        /* \"#utility.yul\":6782:6821   */\n      tag_503\n      jump\t// in\n    tag_512:\n        /* \"#utility.yul\":6837:6908   */\n      tag_513\n        /* \"#utility.yul\":6901:6907   */\n      dup2\n        /* \"#utility.yul\":6896:6899   */\n      dup6\n        /* \"#utility.yul\":6837:6908   */\n      tag_514\n      jump\t// in\n    tag_513:\n        /* \"#utility.yul\":6830:6908   */\n      swap4\n      pop\n        /* \"#utility.yul\":6917:6969   */\n      tag_515\n        /* \"#utility.yul\":6962:6968   */\n      dup2\n        /* \"#utility.yul\":6957:6960   */\n      dup6\n        /* \"#utility.yul\":6950:6954   */\n      0x20\n        /* \"#utility.yul\":6943:6948   */\n      dup7\n        /* \"#utility.yul\":6939:6955   */\n      add\n        /* \"#utility.yul\":6917:6969   */\n      tag_507\n      jump\t// in\n    tag_515:\n        /* \"#utility.yul\":6994:7023   */\n      tag_516\n        /* \"#utility.yul\":7016:7022   */\n      dup2\n        /* \"#utility.yul\":6994:7023   */\n      tag_509\n      jump\t// in\n    tag_516:\n        /* \"#utility.yul\":6989:6992   */\n      dup5\n        /* \"#utility.yul\":6985:7024   */\n      add\n        /* \"#utility.yul\":6978:7024   */\n      swap2\n      pop\n        /* \"#utility.yul\":6758:7030   */\n      pop\n      swap3\n      swap2\n      pop\n      pop\n      jump\t// out\n        /* \"#utility.yul\":7036:7413   */\n    tag_517:\n      0x00\n        /* \"#utility.yul\":7170:7209   */\n      tag_519\n        /* \"#utility.yul\":7203:7208   */\n      dup3\n        /* \"#utility.yul\":7170:7209   */\n      tag_503\n      jump\t// in\n    tag_519:\n        /* \"#utility.yul\":7225:7314   */\n      tag_520\n        /* \"#utility.yul\":7307:7313   */\n      dup2\n        /* \"#utility.yul\":7302:7305   */\n      dup6\n        /* \"#utility.yul\":7225:7314   */\n      tag_521\n      jump\t// in\n    tag_520:\n        /* \"#utility.yul\":7218:7314   */\n      swap4\n      pop\n        /* \"#utility.yul\":7323:7375   */\n      tag_522\n        /* \"#utility.yul\":7368:7374   */\n      dup2\n        /* \"#utility.yul\":7363:7366   */\n      dup6\n        /* \"#utility.yul\":7356:7360   */\n      0x20\n        /* \"#utility.yul\":7349:7354   */\n      dup7\n        /* \"#utility.yul\":7345:7361   */\n      add\n        /* \"#utility.yul\":7323:7375   */\n      tag_507\n      jump\t// in\n    tag_522:\n        /* \"#utility.yul\":7400:7406   */\n      dup1\n        /* \"#utility.yul\":7395:7398   */\n      dup5\n        /* \"#utility.yul\":7391:7407   */\n      add\n        /* \"#utility.yul\":7384:7407   */\n      swap2\n      pop\n        /* \"#utility.yul\":7146:7413   */\n      pop\n      swap3\n      swap2\n      pop\n      pop\n      jump\t// out\n        /* \"#utility.yul\":7419:7785   */\n    tag_523:\n      0x00\n        /* \"#utility.yul\":7582:7649   */\n      tag_525\n        /* \"#utility.yul\":7646:7648   */\n      0x20\n        /* \"#utility.yul\":7641:7644   */\n      dup4\n        /* \"#utility.yul\":7582:7649   */\n      tag_514\n      jump\t// in\n    tag_525:\n        /* \"#utility.yul\":7575:7649   */\n      swap2\n      pop\n        /* \"#utility.yul\":7658:7751   */\n      tag_526\n        /* \"#utility.yul\":7747:7750   */\n      dup3\n        /* \"#utility.yul\":7658:7751   */\n      tag_527\n      jump\t// in\n    tag_526:\n        /* \"#utility.yul\":7776:7778   */\n      0x20\n        /* \"#utility.yul\":7771:7774   */\n      dup3\n        /* \"#utility.yul\":7767:7779   */\n      add\n        /* \"#utility.yul\":7760:7779   */\n      swap1\n      pop\n        /* \"#utility.yul\":7565:7785   */\n      swap2\n      swap1\n      pop\n      jump\t// out\n        /* \"#utility.yul\":7791:8157   */\n    tag_528:\n      0x00\n        /* \"#utility.yul\":7954:8021   */\n      tag_530\n        /* \"#utility.yul\":8018:8020   */\n      0x22\n        /* \"#utility.yul\":8013:8016   */\n      dup4\n        /* \"#utility.yul\":7954:8021   */\n      tag_514\n      jump\t// in\n    tag_530:\n        /* \"#utility.yul\":7947:8021   */\n      swap2\n      pop\n        /* \"#utility.yul\":8030:8123   */\n      tag_531\n        /* \"#utility.yul\":8119:8122   */\n      dup3\n        /* \"#utility.yul\":8030:8123   */\n      tag_532\n      jump\t// in\n    tag_531:\n        /* \"#utility.yul\":8148:8150   */\n      0x40\n        /* \"#utility.yul\":8143:8146   */\n      dup3\n        /* \"#utility.yul\":8139:8151   */\n      add\n        /* \"#utility.yul\":8132:8151   */\n      swap1\n      pop\n        /* \"#utility.yul\":7937:8157   */\n      swap2\n      swap1\n      pop\n      jump\t// out\n        /* \"#utility.yul\":8163:8529   */\n    tag_533:\n      0x00\n        /* \"#utility.yul\":8326:8393   */\n      tag_535\n        /* \"#utility.yul\":8390:8392   */\n      0x14\n        /* \"#utility.yul\":8385:8388   */\n      dup4\n        /* \"#utility.yul\":8326:8393   */\n      tag_514\n      jump\t// in\n    tag_535:\n        /* \"#utility.yul\":8319:8393   */\n      swap2\n      pop\n        /* \"#utility.yul\":8402:8495   */\n      tag_536\n        /* \"#utility.yul\":8491:8494   */\n      dup3\n        /* \"#utility.yul\":8402:8495   */\n      tag_537\n      jump\t// in\n    tag_536:\n        /* \"#utility.yul\":8520:8522   */\n      0x20\n        /* \"#utility.yul\":8515:8518   */\n      dup3\n        /* \"#utility.yul\":8511:8523   */\n      add\n        /* \"#utility.yul\":8504:8523   */\n      swap1\n      pop\n        /* \"#utility.yul\":8309:8529   */\n      swap2\n      swap1\n      pop\n      jump\t// out\n        /* \"#utility.yul\":8535:8901   */\n    tag_538:\n      0x00\n        /* \"#utility.yul\":8698:8765   */\n      tag_540\n        /* \"#utility.yul\":8762:8764   */\n      0x14\n        /* \"#utility.yul\":8757:8760   */\n      dup4\n        /* \"#utility.yul\":8698:8765   */\n      tag_514\n      jump\t// in\n    tag_540:\n        /* \"#utility.yul\":8691:8765   */\n      swap2\n      pop\n        /* \"#utility.yul\":8774:8867   */\n      tag_541\n        /* \"#utility.yul\":8863:8866   */\n      dup3\n        /* \"#utility.yul\":8774:8867   */\n      tag_542\n      jump\t// in\n    tag_541:\n        /* \"#utility.yul\":8892:8894   */\n      0x20\n        /* \"#utility.yul\":8887:8890   */\n      dup3\n        /* \"#utility.yul\":8883:8895   */\n      add\n        /* \"#utility.yul\":8876:8895   */\n      swap1\n      pop\n        /* \"#utility.yul\":8681:8901   */\n      swap2\n      swap1\n      pop\n      jump\t// out\n        /* \"#utility.yul\":8907:9273   */\n    tag_543:\n      0x00\n        /* \"#utility.yul\":9070:9137   */\n      tag_545\n        /* \"#utility.yul\":9134:9136   */\n      0x14\n        /* \"#utility.yul\":9129:9132   */\n      dup4\n        /* \"#utility.yul\":9070:9137   */\n      tag_514\n      jump\t// in\n    tag_545:\n        /* \"#utility.yul\":9063:9137   */\n      swap2\n      pop\n        /* \"#utility.yul\":9146:9239   */\n      tag_546\n        /* \"#utility.yul\":9235:9238   */\n      dup3\n        /* \"#utility.yul\":9146:9239   */\n      tag_547\n      jump\t// in\n    tag_546:\n        /* \"#utility.yul\":9264:9266   */\n      0x20\n        /* \"#utility.yul\":9259:9262   */\n      dup3\n        /* \"#utility.yul\":9255:9267   */\n      add\n        /* \"#utility.yul\":9248:9267   */\n      swap1\n      pop\n        /* \"#utility.yul\":9053:9273   */\n      swap2\n      swap1\n      pop\n      jump\t// out\n        /* \"#utility.yul\":9279:9645   */\n    tag_548:\n      0x00\n        /* \"#utility.yul\":9442:9509   */\n      tag_550\n        /* \"#utility.yul\":9506:9508   */\n      0x3d\n        /* \"#utility.yul\":9501:9504   */\n      dup4\n        /* \"#utility.yul\":9442:9509   */\n      tag_514\n      jump\t// in\n    tag_550:\n        /* \"#utility.yul\":9435:9509   */\n      swap2\n      pop\n        /* \"#utility.yul\":9518:9611   */\n      tag_551\n        /* \"#utility.yul\":9607:9610   */\n      dup3\n        /* \"#utility.yul\":9518:9611   */\n      tag_552\n      jump\t// in\n    tag_551:\n        /* \"#utility.yul\":9636:9638   */\n      0x40\n        /* \"#utility.yul\":9631:9634   */\n      dup3\n        /* \"#utility.yul\":9627:9639   */\n      add\n        /* \"#utility.yul\":9620:9639   */\n      swap1\n      pop\n        /* \"#utility.yul\":9425:9645   */\n      swap2\n      swap1\n      pop\n      jump\t// out\n        /* \"#utility.yul\":9651:10053   */\n    tag_553:\n      0x00\n        /* \"#utility.yul\":9832:9917   */\n      tag_555\n        /* \"#utility.yul\":9914:9916   */\n      0x17\n        /* \"#utility.yul\":9909:9912   */\n      dup4\n        /* \"#utility.yul\":9832:9917   */\n      tag_521\n      jump\t// in\n    tag_555:\n        /* \"#utility.yul\":9825:9917   */\n      swap2\n      pop\n        /* \"#utility.yul\":9926:10019   */\n      tag_556\n        /* \"#utility.yul\":10015:10018   */\n      dup3\n        /* \"#utility.yul\":9926:10019   */\n      tag_557\n      jump\t// in\n    tag_556:\n        /* \"#utility.yul\":10044:10046   */\n      0x17\n        /* \"#utility.yul\":10039:10042   */\n      dup3\n        /* \"#utility.yul\":10035:10047   */\n      add\n        /* \"#utility.yul\":10028:10047   */\n      swap1\n      pop\n        /* \"#utility.yul\":9815:10053   */\n      swap2\n      swap1\n      pop\n      jump\t// out\n        /* \"#utility.yul\":10059:10461   */\n    tag_558:\n      0x00\n        /* \"#utility.yul\":10240:10325   */\n      tag_560\n        /* \"#utility.yul\":10322:10324   */\n      0x11\n        /* \"#utility.yul\":10317:10320   */\n      dup4\n        /* \"#utility.yul\":10240:10325   */\n      tag_521\n      jump\t// in\n    tag_560:\n        /* \"#utility.yul\":10233:10325   */\n      swap2\n      pop\n        /* \"#utility.yul\":10334:10427   */\n      tag_561\n        /* \"#utility.yul\":10423:10426   */\n      dup3\n        /* \"#utility.yul\":10334:10427   */\n      tag_562\n      jump\t// in\n    tag_561:\n        /* \"#utility.yul\":10452:10454   */\n      0x11\n        /* \"#utility.yul\":10447:10450   */\n      dup3\n        /* \"#utility.yul\":10443:10455   */\n      add\n        /* \"#utility.yul\":10436:10455   */\n      swap1\n      pop\n        /* \"#utility.yul\":10223:10461   */\n      swap2\n      swap1\n      pop\n      jump\t// out\n        /* \"#utility.yul\":10467:10833   */\n    tag_563:\n      0x00\n        /* \"#utility.yul\":10630:10697   */\n      tag_565\n        /* \"#utility.yul\":10694:10696   */\n      0x2f\n        /* \"#utility.yul\":10689:10692   */\n      dup4\n        /* \"#utility.yul\":10630:10697   */\n      tag_514\n      jump\t// in\n    tag_565:\n        /* \"#utility.yul\":10623:10697   */\n      swap2\n      pop\n        /* \"#utility.yul\":10706:10799   */\n      tag_566\n        /* \"#utility.yul\":10795:10798   */\n      dup3\n        /* \"#utility.yul\":10706:10799   */\n      tag_567\n      jump\t// in\n    tag_566:\n        /* \"#utility.yul\":10824:10826   */\n      0x40\n        /* \"#utility.yul\":10819:10822   */\n      dup3\n        /* \"#utility.yul\":10815:10827   */\n      add\n        /* \"#utility.yul\":10808:10827   */\n      swap1\n      pop\n        /* \"#utility.yul\":10613:10833   */\n      swap2\n      swap1\n      pop\n      jump\t// out\n        /* \"#utility.yul\":10839:10947   */\n    tag_464:\n        /* \"#utility.yul\":10916:10940   */\n      tag_569\n        /* \"#utility.yul\":10934:10939   */\n      dup2\n        /* \"#utility.yul\":10916:10940   */\n      tag_570\n      jump\t// in\n    tag_569:\n        /* \"#utility.yul\":10911:10914   */\n      dup3\n        /* \"#utility.yul\":10904:10941   */\n      mstore\n        /* \"#utility.yul\":10894:10947   */\n      pop\n      pop\n      jump\t// out\n        /* \"#utility.yul\":10953:11110   */\n    tag_571:\n        /* \"#utility.yul\":11058:11103   */\n      tag_573\n        /* \"#utility.yul\":11078:11102   */\n      tag_574\n        /* \"#utility.yul\":11096:11101   */\n      dup3\n        /* \"#utility.yul\":11078:11102   */\n      tag_570\n      jump\t// in\n    tag_574:\n        /* \"#utility.yul\":11058:11103   */\n      tag_575\n      jump\t// in\n    tag_573:\n        /* \"#utility.yul\":11053:11056   */\n      dup3\n        /* \"#utility.yul\":11046:11104   */\n      mstore\n        /* \"#utility.yul\":11036:11110   */\n      pop\n      pop\n      jump\t// out\n        /* \"#utility.yul\":11116:11391   */\n    tag_232:\n      0x00\n        /* \"#utility.yul\":11270:11365   */\n      tag_577\n        /* \"#utility.yul\":11361:11364   */\n      dup3\n        /* \"#utility.yul\":11352:11358   */\n      dup5\n        /* \"#utility.yul\":11270:11365   */\n      tag_517\n      jump\t// in\n    tag_577:\n        /* \"#utility.yul\":11263:11365   */\n      swap2\n      pop\n        /* \"#utility.yul\":11382:11385   */\n      dup2\n        /* \"#utility.yul\":11375:11385   */\n      swap1\n      pop\n        /* \"#utility.yul\":11252:11391   */\n      swap3\n      swap2\n      pop\n      pop\n      jump\t// out\n        /* \"#utility.yul\":11397:12364   */\n    tag_251:\n      0x00\n        /* \"#utility.yul\":11801:11949   */\n      tag_579\n        /* \"#utility.yul\":11945:11948   */\n      dup3\n        /* \"#utility.yul\":11801:11949   */\n      tag_553\n      jump\t// in\n    tag_579:\n        /* \"#utility.yul\":11794:11949   */\n      swap2\n      pop\n        /* \"#utility.yul\":11966:12061   */\n      tag_580\n        /* \"#utility.yul\":12057:12060   */\n      dup3\n        /* \"#utility.yul\":12048:12054   */\n      dup6\n        /* \"#utility.yul\":11966:12061   */\n      tag_517\n      jump\t// in\n    tag_580:\n        /* \"#utility.yul\":11959:12061   */\n      swap2\n      pop\n        /* \"#utility.yul\":12078:12226   */\n      tag_581\n        /* \"#utility.yul\":12222:12225   */\n      dup3\n        /* \"#utility.yul\":12078:12226   */\n      tag_558\n      jump\t// in\n    tag_581:\n        /* \"#utility.yul\":12071:12226   */\n      swap2\n      pop\n        /* \"#utility.yul\":12243:12338   */\n      tag_582\n        /* \"#utility.yul\":12334:12337   */\n      dup3\n        /* \"#utility.yul\":12325:12331   */\n      dup5\n        /* \"#utility.yul\":12243:12338   */\n      tag_517\n      jump\t// in\n    tag_582:\n        /* \"#utility.yul\":12236:12338   */\n      swap2\n      pop\n        /* \"#utility.yul\":12355:12358   */\n      dup2\n        /* \"#utility.yul\":12348:12358   */\n      swap1\n      pop\n        /* \"#utility.yul\":11783:12364   */\n      swap4\n      swap3\n      pop\n      pop\n      pop\n      jump\t// out\n        /* \"#utility.yul\":12370:12786   */\n    tag_308:\n      0x00\n        /* \"#utility.yul\":12545:12620   */\n      tag_584\n        /* \"#utility.yul\":12616:12619   */\n      dup3\n        /* \"#utility.yul\":12607:12613   */\n      dup6\n        /* \"#utility.yul\":12545:12620   */\n      tag_571\n      jump\t// in\n    tag_584:\n        /* \"#utility.yul\":12645:12647   */\n      0x20\n        /* \"#utility.yul\":12640:12643   */\n      dup3\n        /* \"#utility.yul\":12636:12648   */\n      add\n        /* \"#utility.yul\":12629:12648   */\n      swap2\n      pop\n        /* \"#utility.yul\":12665:12760   */\n      tag_585\n        /* \"#utility.yul\":12756:12759   */\n      dup3\n        /* \"#utility.yul\":12747:12753   */\n      dup5\n        /* \"#utility.yul\":12665:12760   */\n      tag_517\n      jump\t// in\n    tag_585:\n        /* \"#utility.yul\":12658:12760   */\n      swap2\n      pop\n        /* \"#utility.yul\":12777:12780   */\n      dup2\n        /* \"#utility.yul\":12770:12780   */\n      swap1\n      pop\n        /* \"#utility.yul\":12534:12786   */\n      swap4\n      swap3\n      pop\n      pop\n      pop\n      jump\t// out\n        /* \"#utility.yul\":12792:13205   */\n    tag_63:\n      0x00\n        /* \"#utility.yul\":12993:12995   */\n      0x20\n        /* \"#utility.yul\":12982:12991   */\n      dup3\n        /* \"#utility.yul\":12978:12996   */\n      add\n        /* \"#utility.yul\":12970:12996   */\n      swap1\n      pop\n        /* \"#utility.yul\":13042:13051   */\n      dup2\n        /* \"#utility.yul\":13036:13040   */\n      dup2\n        /* \"#utility.yul\":13032:13052   */\n      sub\n        /* \"#utility.yul\":13028:13029   */\n      0x00\n        /* \"#utility.yul\":13017:13026   */\n      dup4\n        /* \"#utility.yul\":13013:13030   */\n      add\n        /* \"#utility.yul\":13006:13053   */\n      mstore\n        /* \"#utility.yul\":13070:13198   */\n      tag_587\n        /* \"#utility.yul\":13193:13197   */\n      dup2\n        /* \"#utility.yul\":13184:13190   */\n      dup5\n        /* \"#utility.yul\":13070:13198   */\n      tag_465\n      jump\t// in\n    tag_587:\n        /* \"#utility.yul\":13062:13198   */\n      swap1\n      pop\n        /* \"#utility.yul\":12960:13205   */\n      swap3\n      swap2\n      pop\n      pop\n      jump\t// out\n        /* \"#utility.yul\":13211:13584   */\n    tag_75:\n      0x00\n        /* \"#utility.yul\":13392:13394   */\n      0x20\n        /* \"#utility.yul\":13381:13390   */\n      dup3\n        /* \"#utility.yul\":13377:13395   */\n      add\n        /* \"#utility.yul\":13369:13395   */\n      swap1\n      pop\n        /* \"#utility.yul\":13441:13450   */\n      dup2\n        /* \"#utility.yul\":13435:13439   */\n      dup2\n        /* \"#utility.yul\":13431:13451   */\n      sub\n        /* \"#utility.yul\":13427:13428   */\n      0x00\n        /* \"#utility.yul\":13416:13425   */\n      dup4\n        /* \"#utility.yul\":13412:13429   */\n      add\n        /* \"#utility.yul\":13405:13452   */\n      mstore\n        /* \"#utility.yul\":13469:13577   */\n      tag_589\n        /* \"#utility.yul\":13572:13576   */\n      dup2\n        /* \"#utility.yul\":13563:13569   */\n      dup5\n        /* \"#utility.yul\":13469:13577   */\n      tag_479\n      jump\t// in\n    tag_589:\n        /* \"#utility.yul\":13461:13577   */\n      swap1\n      pop\n        /* \"#utility.yul\":13359:13584   */\n      swap3\n      swap2\n      pop\n      pop\n      jump\t// out\n        /* \"#utility.yul\":13590:13800   */\n    tag_32:\n      0x00\n        /* \"#utility.yul\":13715:13717   */\n      0x20\n        /* \"#utility.yul\":13704:13713   */\n      dup3\n        /* \"#utility.yul\":13700:13718   */\n      add\n        /* \"#utility.yul\":13692:13718   */\n      swap1\n      pop\n        /* \"#utility.yul\":13728:13793   */\n      tag_591\n        /* \"#utility.yul\":13790:13791   */\n      0x00\n        /* \"#utility.yul\":13779:13788   */\n      dup4\n        /* \"#utility.yul\":13775:13792   */\n      add\n        /* \"#utility.yul\":13766:13772   */\n      dup5\n        /* \"#utility.yul\":13728:13793   */\n      tag_493\n      jump\t// in\n    tag_591:\n        /* \"#utility.yul\":13682:13800   */\n      swap3\n      swap2\n      pop\n      pop\n      jump\t// out\n        /* \"#utility.yul\":13806:14028   */\n    tag_42:\n      0x00\n        /* \"#utility.yul\":13937:13939   */\n      0x20\n        /* \"#utility.yul\":13926:13935   */\n      dup3\n        /* \"#utility.yul\":13922:13940   */\n      add\n        /* \"#utility.yul\":13914:13940   */\n      swap1\n      pop\n        /* \"#utility.yul\":13950:14021   */\n      tag_593\n        /* \"#utility.yul\":14018:14019   */\n      0x00\n        /* \"#utility.yul\":14007:14016   */\n      dup4\n        /* \"#utility.yul\":14003:14020   */\n      add\n        /* \"#utility.yul\":13994:14000   */\n      dup5\n        /* \"#utility.yul\":13950:14021   */\n      tag_497\n      jump\t// in\n    tag_593:\n        /* \"#utility.yul\":13904:14028   */\n      swap3\n      swap2\n      pop\n      pop\n      jump\t// out\n        /* \"#utility.yul\":14034:14347   */\n    tag_253:\n      0x00\n        /* \"#utility.yul\":14185:14187   */\n      0x20\n        /* \"#utility.yul\":14174:14183   */\n      dup3\n        /* \"#utility.yul\":14170:14188   */\n      add\n        /* \"#utility.yul\":14162:14188   */\n      swap1\n      pop\n        /* \"#utility.yul\":14234:14243   */\n      dup2\n        /* \"#utility.yul\":14228:14232   */\n      dup2\n        /* \"#utility.yul\":14224:14244   */\n      sub\n        /* \"#utility.yul\":14220:14221   */\n      0x00\n        /* \"#utility.yul\":14209:14218   */\n      dup4\n        /* \"#utility.yul\":14205:14222   */\n      add\n        /* \"#utility.yul\":14198:14245   */\n      mstore\n        /* \"#utility.yul\":14262:14340   */\n      tag_595\n        /* \"#utility.yul\":14335:14339   */\n      dup2\n        /* \"#utility.yul\":14326:14332   */\n      dup5\n        /* \"#utility.yul\":14262:14340   */\n      tag_510\n      jump\t// in\n    tag_595:\n        /* \"#utility.yul\":14254:14340   */\n      swap1\n      pop\n        /* \"#utility.yul\":14152:14347   */\n      swap3\n      swap2\n      pop\n      pop\n      jump\t// out\n        /* \"#utility.yul\":14353:14772   */\n    tag_353:\n      0x00\n        /* \"#utility.yul\":14557:14559   */\n      0x20\n        /* \"#utility.yul\":14546:14555   */\n      dup3\n        /* \"#utility.yul\":14542:14560   */\n      add\n        /* \"#utility.yul\":14534:14560   */\n      swap1\n      pop\n        /* \"#utility.yul\":14606:14615   */\n      dup2\n        /* \"#utility.yul\":14600:14604   */\n      dup2\n        /* \"#utility.yul\":14596:14616   */\n      sub\n        /* \"#utility.yul\":14592:14593   */\n      0x00\n        /* \"#utility.yul\":14581:14590   */\n      dup4\n        /* \"#utility.yul\":14577:14594   */\n      add\n        /* \"#utility.yul\":14570:14617   */\n      mstore\n        /* \"#utility.yul\":14634:14765   */\n      tag_597\n        /* \"#utility.yul\":14760:14764   */\n      dup2\n        /* \"#utility.yul\":14634:14765   */\n      tag_523\n      jump\t// in\n    tag_597:\n        /* \"#utility.yul\":14626:14765   */\n      swap1\n      pop\n        /* \"#utility.yul\":14524:14772   */\n      swap2\n      swap1\n      pop\n      jump\t// out\n        /* \"#utility.yul\":14778:15197   */\n    tag_120:\n      0x00\n        /* \"#utility.yul\":14982:14984   */\n      0x20\n        /* \"#utility.yul\":14971:14980   */\n      dup3\n        /* \"#utility.yul\":14967:14985   */\n      add\n        /* \"#utility.yul\":14959:14985   */\n      swap1\n      pop\n        /* \"#utility.yul\":15031:15040   */\n      dup2\n        /* \"#utility.yul\":15025:15029   */\n      dup2\n        /* \"#utility.yul\":15021:15041   */\n      sub\n        /* \"#utility.yul\":15017:15018   */\n      0x00\n        /* \"#utility.yul\":15006:15015   */\n      dup4\n        /* \"#utility.yul\":15002:15019   */\n      add\n        /* \"#utility.yul\":14995:15042   */\n      mstore\n        /* \"#utility.yul\":15059:15190   */\n      tag_599\n        /* \"#utility.yul\":15185:15189   */\n      dup2\n        /* \"#utility.yul\":15059:15190   */\n      tag_528\n      jump\t// in\n    tag_599:\n        /* \"#utility.yul\":15051:15190   */\n      swap1\n      pop\n        /* \"#utility.yul\":14949:15197   */\n      swap2\n      swap1\n      pop\n      jump\t// out\n        /* \"#utility.yul\":15203:15622   */\n    tag_382:\n      0x00\n        /* \"#utility.yul\":15407:15409   */\n      0x20\n        /* \"#utility.yul\":15396:15405   */\n      dup3\n        /* \"#utility.yul\":15392:15410   */\n      add\n        /* \"#utility.yul\":15384:15410   */\n      swap1\n      pop\n        /* \"#utility.yul\":15456:15465   */\n      dup2\n        /* \"#utility.yul\":15450:15454   */\n      dup2\n        /* \"#utility.yul\":15446:15466   */\n      sub\n        /* \"#utility.yul\":15442:15443   */\n      0x00\n        /* \"#utility.yul\":15431:15440   */\n      dup4\n        /* \"#utility.yul\":15427:15444   */\n      add\n        /* \"#utility.yul\":15420:15467   */\n      mstore\n        /* \"#utility.yul\":15484:15615   */\n      tag_601\n        /* \"#utility.yul\":15610:15614   */\n      dup2\n        /* \"#utility.yul\":15484:15615   */\n      tag_533\n      jump\t// in\n    tag_601:\n        /* \"#utility.yul\":15476:15615   */\n      swap1\n      pop\n        /* \"#utility.yul\":15374:15622   */\n      swap2\n      swap1\n      pop\n      jump\t// out\n        /* \"#utility.yul\":15628:16047   */\n    tag_330:\n      0x00\n        /* \"#utility.yul\":15832:15834   */\n      0x20\n        /* \"#utility.yul\":15821:15830   */\n      dup3\n        /* \"#utility.yul\":15817:15835   */\n      add\n        /* \"#utility.yul\":15809:15835   */\n      swap1\n      pop\n        /* \"#utility.yul\":15881:15890   */\n      dup2\n        /* \"#utility.yul\":15875:15879   */\n      dup2\n        /* \"#utility.yul\":15871:15891   */\n      sub\n        /* \"#utility.yul\":15867:15868   */\n      0x00\n        /* \"#utility.yul\":15856:15865   */\n      dup4\n        /* \"#utility.yul\":15852:15869   */\n      add\n        /* \"#utility.yul\":15845:15892   */\n      mstore\n        /* \"#utility.yul\":15909:16040   */\n      tag_603\n        /* \"#utility.yul\":16035:16039   */\n      dup2\n        /* \"#utility.yul\":15909:16040   */\n      tag_538\n      jump\t// in\n    tag_603:\n        /* \"#utility.yul\":15901:16040   */\n      swap1\n      pop\n        /* \"#utility.yul\":15799:16047   */\n      swap2\n      swap1\n      pop\n      jump\t// out\n        /* \"#utility.yul\":16053:16472   */\n    tag_360:\n      0x00\n        /* \"#utility.yul\":16257:16259   */\n      0x20\n        /* \"#utility.yul\":16246:16255   */\n      dup3\n        /* \"#utility.yul\":16242:16260   */\n      add\n        /* \"#utility.yul\":16234:16260   */\n      swap1\n      pop\n        /* \"#utility.yul\":16306:16315   */\n      dup2\n        /* \"#utility.yul\":16300:16304   */\n      dup2\n        /* \"#utility.yul\":16296:16316   */\n      sub\n        /* \"#utility.yul\":16292:16293   */\n      0x00\n        /* \"#utility.yul\":16281:16290   */\n      dup4\n        /* \"#utility.yul\":16277:16294   */\n      add\n        /* \"#utility.yul\":16270:16317   */\n      mstore\n        /* \"#utility.yul\":16334:16465   */\n      tag_605\n        /* \"#utility.yul\":16460:16464   */\n      dup2\n        /* \"#utility.yul\":16334:16465   */\n      tag_543\n      jump\t// in\n    tag_605:\n        /* \"#utility.yul\":16326:16465   */\n      swap1\n      pop\n        /* \"#utility.yul\":16224:16472   */\n      swap2\n      swap1\n      pop\n      jump\t// out\n        /* \"#utility.yul\":16478:16897   */\n    tag_315:\n      0x00\n        /* \"#utility.yul\":16682:16684   */\n      0x20\n        /* \"#utility.yul\":16671:16680   */\n      dup3\n        /* \"#utility.yul\":16667:16685   */\n      add\n        /* \"#utility.yul\":16659:16685   */\n      swap1\n      pop\n        /* \"#utility.yul\":16731:16740   */\n      dup2\n        /* \"#utility.yul\":16725:16729   */\n      dup2\n        /* \"#utility.yul\":16721:16741   */\n      sub\n        /* \"#utility.yul\":16717:16718   */\n      0x00\n        /* \"#utility.yul\":16706:16715   */\n      dup4\n        /* \"#utility.yul\":16702:16719   */\n      add\n        /* \"#utility.yul\":16695:16742   */\n      mstore\n        /* \"#utility.yul\":16759:16890   */\n      tag_607\n        /* \"#utility.yul\":16885:16889   */\n      dup2\n        /* \"#utility.yul\":16759:16890   */\n      tag_548\n      jump\t// in\n    tag_607:\n        /* \"#utility.yul\":16751:16890   */\n      swap1\n      pop\n        /* \"#utility.yul\":16649:16897   */\n      swap2\n      swap1\n      pop\n      jump\t// out\n        /* \"#utility.yul\":16903:17322   */\n    tag_158:\n      0x00\n        /* \"#utility.yul\":17107:17109   */\n      0x20\n        /* \"#utility.yul\":17096:17105   */\n      dup3\n        /* \"#utility.yul\":17092:17110   */\n      add\n        /* \"#utility.yul\":17084:17110   */\n      swap1\n      pop\n        /* \"#utility.yul\":17156:17165   */\n      dup2\n        /* \"#utility.yul\":17150:17154   */\n      dup2\n        /* \"#utility.yul\":17146:17166   */\n      sub\n        /* \"#utility.yul\":17142:17143   */\n      0x00\n        /* \"#utility.yul\":17131:17140   */\n      dup4\n        /* \"#utility.yul\":17127:17144   */\n      add\n        /* \"#utility.yul\":17120:17167   */\n      mstore\n        /* \"#utility.yul\":17184:17315   */\n      tag_609\n        /* \"#utility.yul\":17310:17314   */\n      dup2\n        /* \"#utility.yul\":17184:17315   */\n      tag_563\n      jump\t// in\n    tag_609:\n        /* \"#utility.yul\":17176:17315   */\n      swap1\n      pop\n        /* \"#utility.yul\":17074:17322   */\n      swap2\n      swap1\n      pop\n      jump\t// out\n        /* \"#utility.yul\":17328:17457   */\n    tag_403:\n      0x00\n        /* \"#utility.yul\":17389:17409   */\n      tag_611\n      tag_612\n      jump\t// in\n    tag_611:\n        /* \"#utility.yul\":17379:17409   */\n      swap1\n      pop\n        /* \"#utility.yul\":17418:17451   */\n      tag_613\n        /* \"#utility.yul\":17446:17450   */\n      dup3\n        /* \"#utility.yul\":17438:17444   */\n      dup3\n        /* \"#utility.yul\":17418:17451   */\n      tag_614\n      jump\t// in\n    tag_613:\n        /* \"#utility.yul\":17369:17457   */\n      swap2\n      swap1\n      pop\n      jump\t// out\n        /* \"#utility.yul\":17463:17538   */\n    tag_612:\n      0x00\n        /* \"#utility.yul\":17529:17531   */\n      0x40\n        /* \"#utility.yul\":17523:17532   */\n      mload\n        /* \"#utility.yul\":17513:17532   */\n      swap1\n      pop\n        /* \"#utility.yul\":17503:17538   */\n      swap1\n      jump\t// out\n        /* \"#utility.yul\":17544:17852   */\n    tag_402:\n      0x00\n        /* \"#utility.yul\":17696:17714   */\n      0xffffffffffffffff\n        /* \"#utility.yul\":17688:17694   */\n      dup3\n        /* \"#utility.yul\":17685:17715   */\n      gt\n        /* \"#utility.yul\":17682:17684   */\n      iszero\n      tag_617\n      jumpi\n        /* \"#utility.yul\":17718:17736   */\n      tag_618\n      tag_619\n      jump\t// in\n    tag_618:\n        /* \"#utility.yul\":17682:17684   */\n    tag_617:\n        /* \"#utility.yul\":17756:17785   */\n      tag_620\n        /* \"#utility.yul\":17778:17784   */\n      dup3\n        /* \"#utility.yul\":17756:17785   */\n      tag_509\n      jump\t// in\n    tag_620:\n        /* \"#utility.yul\":17748:17785   */\n      swap1\n      pop\n        /* \"#utility.yul\":17840:17844   */\n      0x20\n        /* \"#utility.yul\":17834:17838   */\n      dup2\n        /* \"#utility.yul\":17830:17845   */\n      add\n        /* \"#utility.yul\":17822:17845   */\n      swap1\n      pop\n        /* \"#utility.yul\":17611:17852   */\n      swap2\n      swap1\n      pop\n      jump\t// out\n        /* \"#utility.yul\":17858:18000   */\n    tag_472:\n      0x00\n        /* \"#utility.yul\":17958:17961   */\n      dup2\n        /* \"#utility.yul\":17950:17961   */\n      swap1\n      pop\n        /* \"#utility.yul\":17988:17992   */\n      0x20\n        /* \"#utility.yul\":17983:17986   */\n      dup3\n        /* \"#utility.yul\":17979:17993   */\n      add\n        /* \"#utility.yul\":17971:17993   */\n      swap1\n      pop\n        /* \"#utility.yul\":17940:18000   */\n      swap2\n      swap1\n      pop\n      jump\t// out\n        /* \"#utility.yul\":18006:18138   */\n    tag_486:\n      0x00\n        /* \"#utility.yul\":18096:18099   */\n      dup2\n        /* \"#utility.yul\":18088:18099   */\n      swap1\n      pop\n        /* \"#utility.yul\":18126:18130   */\n      0x20\n        /* \"#utility.yul\":18121:18124   */\n      dup3\n        /* \"#utility.yul\":18117:18131   */\n      add\n        /* \"#utility.yul\":18109:18131   */\n      swap1\n      pop\n        /* \"#utility.yul\":18078:18138   */\n      swap2\n      swap1\n      pop\n      jump\t// out\n        /* \"#utility.yul\":18144:18268   */\n    tag_468:\n      0x00\n        /* \"#utility.yul\":18255:18260   */\n      dup2\n        /* \"#utility.yul\":18249:18261   */\n      mload\n        /* \"#utility.yul\":18239:18261   */\n      swap1\n      pop\n        /* \"#utility.yul\":18228:18268   */\n      swap2\n      swap1\n      pop\n      jump\t// out\n        /* \"#utility.yul\":18274:18388   */\n    tag_482:\n      0x00\n        /* \"#utility.yul\":18375:18380   */\n      dup2\n        /* \"#utility.yul\":18369:18381   */\n      mload\n        /* \"#utility.yul\":18359:18381   */\n      swap1\n      pop\n        /* \"#utility.yul\":18348:18388   */\n      swap2\n      swap1\n      pop\n      jump\t// out\n        /* \"#utility.yul\":18394:18493   */\n    tag_503:\n      0x00\n        /* \"#utility.yul\":18480:18485   */\n      dup2\n        /* \"#utility.yul\":18474:18486   */\n      mload\n        /* \"#utility.yul\":18464:18486   */\n      swap1\n      pop\n        /* \"#utility.yul\":18453:18493   */\n      swap2\n      swap1\n      pop\n      jump\t// out\n        /* \"#utility.yul\":18499:18622   */\n    tag_478:\n      0x00\n        /* \"#utility.yul\":18611:18615   */\n      0x20\n        /* \"#utility.yul\":18606:18609   */\n      dup3\n        /* \"#utility.yul\":18602:18616   */\n      add\n        /* \"#utility.yul\":18594:18616   */\n      swap1\n      pop\n        /* \"#utility.yul\":18584:18622   */\n      swap2\n      swap1\n      pop\n      jump\t// out\n        /* \"#utility.yul\":18628:18741   */\n    tag_492:\n      0x00\n        /* \"#utility.yul\":18730:18734   */\n      0x20\n        /* \"#utility.yul\":18725:18728   */\n      dup3\n        /* \"#utility.yul\":18721:18735   */\n      add\n        /* \"#utility.yul\":18713:18735   */\n      swap1\n      pop\n        /* \"#utility.yul\":18703:18741   */\n      swap2\n      swap1\n      pop\n      jump\t// out\n        /* \"#utility.yul\":18747:18941   */\n    tag_470:\n      0x00\n        /* \"#utility.yul\":18890:18896   */\n      dup3\n        /* \"#utility.yul\":18885:18888   */\n      dup3\n        /* \"#utility.yul\":18878:18897   */\n      mstore\n        /* \"#utility.yul\":18930:18934   */\n      0x20\n        /* \"#utility.yul\":18925:18928   */\n      dup3\n        /* \"#utility.yul\":18921:18935   */\n      add\n        /* \"#utility.yul\":18906:18935   */\n      swap1\n      pop\n        /* \"#utility.yul\":18868:18941   */\n      swap3\n      swap2\n      pop\n      pop\n      jump\t// out\n        /* \"#utility.yul\":18947:19131   */\n    tag_484:\n      0x00\n        /* \"#utility.yul\":19080:19086   */\n      dup3\n        /* \"#utility.yul\":19075:19078   */\n      dup3\n        /* \"#utility.yul\":19068:19087   */\n      mstore\n        /* \"#utility.yul\":19120:19124   */\n      0x20\n        /* \"#utility.yul\":19115:19118   */\n      dup3\n        /* \"#utility.yul\":19111:19125   */\n      add\n        /* \"#utility.yul\":19096:19125   */\n      swap1\n      pop\n        /* \"#utility.yul\":19058:19131   */\n      swap3\n      swap2\n      pop\n      pop\n      jump\t// out\n        /* \"#utility.yul\":19137:19296   */\n    tag_505:\n      0x00\n        /* \"#utility.yul\":19245:19251   */\n      dup3\n        /* \"#utility.yul\":19240:19243   */\n      dup3\n        /* \"#utility.yul\":19233:19252   */\n      mstore\n        /* \"#utility.yul\":19285:19289   */\n      0x20\n        /* \"#utility.yul\":19280:19283   */\n      dup3\n        /* \"#utility.yul\":19276:19290   */\n      add\n        /* \"#utility.yul\":19261:19290   */\n      swap1\n      pop\n        /* \"#utility.yul\":19223:19296   */\n      swap3\n      swap2\n      pop\n      pop\n      jump\t// out\n        /* \"#utility.yul\":19302:19471   */\n    tag_514:\n      0x00\n        /* \"#utility.yul\":19420:19426   */\n      dup3\n        /* \"#utility.yul\":19415:19418   */\n      dup3\n        /* \"#utility.yul\":19408:19427   */\n      mstore\n        /* \"#utility.yul\":19460:19464   */\n      0x20\n        /* \"#utility.yul\":19455:19458   */\n      dup3\n        /* \"#utility.yul\":19451:19465   */\n      add\n        /* \"#utility.yul\":19436:19465   */\n      swap1\n      pop\n        /* \"#utility.yul\":19398:19471   */\n      swap3\n      swap2\n      pop\n      pop\n      jump\t// out\n        /* \"#utility.yul\":19477:19625   */\n    tag_521:\n      0x00\n        /* \"#utility.yul\":19616:19619   */\n      dup2\n        /* \"#utility.yul\":19601:19619   */\n      swap1\n      pop\n        /* \"#utility.yul\":19591:19625   */\n      swap3\n      swap2\n      pop\n      pop\n      jump\t// out\n        /* \"#utility.yul\":19631:19936   */\n    tag_337:\n      0x00\n        /* \"#utility.yul\":19690:19710   */\n      tag_634\n        /* \"#utility.yul\":19708:19709   */\n      dup3\n        /* \"#utility.yul\":19690:19710   */\n      tag_570\n      jump\t// in\n    tag_634:\n        /* \"#utility.yul\":19685:19710   */\n      swap2\n      pop\n        /* \"#utility.yul\":19724:19744   */\n      tag_635\n        /* \"#utility.yul\":19742:19743   */\n      dup4\n        /* \"#utility.yul\":19724:19744   */\n      tag_570\n      jump\t// in\n    tag_635:\n        /* \"#utility.yul\":19719:19744   */\n      swap3\n      pop\n        /* \"#utility.yul\":19878:19879   */\n      dup3\n        /* \"#utility.yul\":19810:19876   */\n      0xffffffffffffffffffffffffffffffffffffffffffffffffffffffffffffffff\n        /* \"#utility.yul\":19806:19880   */\n      sub\n        /* \"#utility.yul\":19803:19804   */\n      dup3\n        /* \"#utility.yul\":19800:19881   */\n      gt\n        /* \"#utility.yul\":19797:19799   */\n      iszero\n      tag_636\n      jumpi\n        /* \"#utility.yul\":19884:19902   */\n      tag_637\n      tag_638\n      jump\t// in\n    tag_637:\n        /* \"#utility.yul\":19797:19799   */\n    tag_636:\n        /* \"#utility.yul\":19928:19929   */\n      dup3\n        /* \"#utility.yul\":19925:19926   */\n      dup3\n        /* \"#utility.yul\":19921:19930   */\n      add\n        /* \"#utility.yul\":19914:19930   */\n      swap1\n      pop\n        /* \"#utility.yul\":19675:19936   */\n      swap3\n      swap2\n      pop\n      pop\n      jump\t// out\n        /* \"#utility.yul\":19942:20290   */\n    tag_335:\n      0x00\n        /* \"#utility.yul\":20005:20025   */\n      tag_640\n        /* \"#utility.yul\":20023:20024   */\n      dup3\n        /* \"#utility.yul\":20005:20025   */\n      tag_570\n      jump\t// in\n    tag_640:\n        /* \"#utility.yul\":20000:20025   */\n      swap2\n      pop\n        /* \"#utility.yul\":20039:20059   */\n      tag_641\n        /* \"#utility.yul\":20057:20058   */\n      dup4\n        /* \"#utility.yul\":20039:20059   */\n      tag_570\n      jump\t// in\n    tag_641:\n        /* \"#utility.yul\":20034:20059   */\n      swap3\n      pop\n        /* \"#utility.yul\":20227:20228   */\n      dup2\n        /* \"#utility.yul\":20159:20225   */\n      0xffffffffffffffffffffffffffffffffffffffffffffffffffffffffffffffff\n        /* \"#utility.yul\":20155:20229   */\n      div\n        /* \"#utility.yul\":20152:20153   */\n      dup4\n        /* \"#utility.yul\":20149:20230   */\n      gt\n        /* \"#utility.yul\":20144:20145   */\n      dup3\n        /* \"#utility.yul\":20137:20146   */\n      iszero\n        /* \"#utility.yul\":20130:20147   */\n      iszero\n        /* \"#utility.yul\":20126:20231   */\n      and\n        /* \"#utility.yul\":20123:20125   */\n      iszero\n      tag_642\n      jumpi\n        /* \"#utility.yul\":20234:20252   */\n      tag_643\n      tag_638\n      jump\t// in\n    tag_643:\n        /* \"#utility.yul\":20123:20125   */\n    tag_642:\n        /* \"#utility.yul\":20282:20283   */\n      dup3\n        /* \"#utility.yul\":20279:20280   */\n      dup3\n        /* \"#utility.yul\":20275:20284   */\n      mul\n        /* \"#utility.yul\":20264:20284   */\n      swap1\n      pop\n        /* \"#utility.yul\":19990:20290   */\n      swap3\n      swap2\n      pop\n      pop\n      jump\t// out\n        /* \"#utility.yul\":20296:20487   */\n    tag_386:\n      0x00\n        /* \"#utility.yul\":20356:20376   */\n      tag_645\n        /* \"#utility.yul\":20374:20375   */\n      dup3\n        /* \"#utility.yul\":20356:20376   */\n      tag_570\n      jump\t// in\n    tag_645:\n        /* \"#utility.yul\":20351:20376   */\n      swap2\n      pop\n        /* \"#utility.yul\":20390:20410   */\n      tag_646\n        /* \"#utility.yul\":20408:20409   */\n      dup4\n        /* \"#utility.yul\":20390:20410   */\n      tag_570\n      jump\t// in\n    tag_646:\n        /* \"#utility.yul\":20385:20410   */\n      swap3\n      pop\n        /* \"#utility.yul\":20429:20430   */\n      dup3\n        /* \"#utility.yul\":20426:20427   */\n      dup3\n        /* \"#utility.yul\":20423:20431   */\n      lt\n        /* \"#utility.yul\":20420:20422   */\n      iszero\n      tag_647\n      jumpi\n        /* \"#utility.yul\":20434:20452   */\n      tag_648\n      tag_638\n      jump\t// in\n    tag_648:\n        /* \"#utility.yul\":20420:20422   */\n    tag_647:\n        /* \"#utility.yul\":20479:20480   */\n      dup3\n        /* \"#utility.yul\":20476:20477   */\n      dup3\n        /* \"#utility.yul\":20472:20481   */\n      sub\n        /* \"#utility.yul\":20464:20481   */\n      swap1\n      pop\n        /* \"#utility.yul\":20341:20487   */\n      swap3\n      swap2\n      pop\n      pop\n      jump\t// out\n        /* \"#utility.yul\":20493:20589   */\n    tag_649:\n      0x00\n        /* \"#utility.yul\":20559:20583   */\n      tag_651\n        /* \"#utility.yul\":20577:20582   */\n      dup3\n        /* \"#utility.yul\":20559:20583   */\n      tag_652\n      jump\t// in\n    tag_651:\n        /* \"#utility.yul\":20548:20583   */\n      swap1\n      pop\n        /* \"#utility.yul\":20538:20589   */\n      swap2\n      swap1\n      pop\n      jump\t// out\n        /* \"#utility.yul\":20595:20685   */\n    tag_496:\n      0x00\n        /* \"#utility.yul\":20672:20677   */\n      dup2\n        /* \"#utility.yul\":20665:20678   */\n      iszero\n        /* \"#utility.yul\":20658:20679   */\n      iszero\n        /* \"#utility.yul\":20647:20679   */\n      swap1\n      pop\n        /* \"#utility.yul\":20637:20685   */\n      swap2\n      swap1\n      pop\n      jump\t// out\n        /* \"#utility.yul\":20691:20768   */\n    tag_500:\n      0x00\n        /* \"#utility.yul\":20757:20762   */\n      dup2\n        /* \"#utility.yul\":20746:20762   */\n      swap1\n      pop\n        /* \"#utility.yul\":20736:20768   */\n      swap2\n      swap1\n      pop\n      jump\t// out\n        /* \"#utility.yul\":20774:20923   */\n    tag_655:\n      0x00\n        /* \"#utility.yul\":20850:20916   */\n      0xffffffff00000000000000000000000000000000000000000000000000000000\n        /* \"#utility.yul\":20843:20848   */\n      dup3\n        /* \"#utility.yul\":20839:20917   */\n      and\n        /* \"#utility.yul\":20828:20917   */\n      swap1\n      pop\n        /* \"#utility.yul\":20818:20923   */\n      swap2\n      swap1\n      pop\n      jump\t// out\n        /* \"#utility.yul\":20929:21055   */\n    tag_652:\n      0x00\n        /* \"#utility.yul\":21006:21048   */\n      0xffffffffffffffffffffffffffffffffffffffff\n        /* \"#utility.yul\":20999:21004   */\n      dup3\n        /* \"#utility.yul\":20995:21049   */\n      and\n        /* \"#utility.yul\":20984:21049   */\n      swap1\n      pop\n        /* \"#utility.yul\":20974:21055   */\n      swap2\n      swap1\n      pop\n      jump\t// out\n        /* \"#utility.yul\":21061:21138   */\n    tag_570:\n      0x00\n        /* \"#utility.yul\":21127:21132   */\n      dup2\n        /* \"#utility.yul\":21116:21132   */\n      swap1\n      pop\n        /* \"#utility.yul\":21106:21138   */\n      swap2\n      swap1\n      pop\n      jump\t// out\n        /* \"#utility.yul\":21144:21298   */\n    tag_406:\n        /* \"#utility.yul\":21228:21234   */\n      dup3\n        /* \"#utility.yul\":21223:21226   */\n      dup2\n        /* \"#utility.yul\":21218:21221   */\n      dup4\n        /* \"#utility.yul\":21205:21235   */\n      calldatacopy\n        /* \"#utility.yul\":21290:21291   */\n      0x00\n        /* \"#utility.yul\":21281:21287   */\n      dup4\n        /* \"#utility.yul\":21276:21279   */\n      dup4\n        /* \"#utility.yul\":21272:21288   */\n      add\n        /* \"#utility.yul\":21265:21292   */\n      mstore\n        /* \"#utility.yul\":21195:21298   */\n      pop\n      pop\n      pop\n      jump\t// out\n        /* \"#utility.yul\":21304:21611   */\n    tag_507:\n        /* \"#utility.yul\":21372:21373   */\n      0x00\n        /* \"#utility.yul\":21382:21495   */\n    tag_661:\n        /* \"#utility.yul\":21396:21402   */\n      dup4\n        /* \"#utility.yul\":21393:21394   */\n      dup2\n        /* \"#utility.yul\":21390:21403   */\n      lt\n        /* \"#utility.yul\":21382:21495   */\n      iszero\n      tag_663\n      jumpi\n        /* \"#utility.yul\":21481:21482   */\n      dup1\n        /* \"#utility.yul\":21476:21479   */\n      dup3\n        /* \"#utility.yul\":21472:21483   */\n      add\n        /* \"#utility.yul\":21466:21484   */\n      mload\n        /* \"#utility.yul\":21462:21463   */\n      dup2\n        /* \"#utility.yul\":21457:21460   */\n      dup5\n        /* \"#utility.yul\":21453:21464   */\n      add\n        /* \"#utility.yul\":21446:21485   */\n      mstore\n        /* \"#utility.yul\":21418:21420   */\n      0x20\n        /* \"#utility.yul\":21415:21416   */\n      dup2\n        /* \"#utility.yul\":21411:21421   */\n      add\n        /* \"#utility.yul\":21406:21421   */\n      swap1\n      pop\n        /* \"#utility.yul\":21382:21495   */\n      jump(tag_661)\n    tag_663:\n        /* \"#utility.yul\":21513:21519   */\n      dup4\n        /* \"#utility.yul\":21510:21511   */\n      dup2\n        /* \"#utility.yul\":21507:21520   */\n      gt\n        /* \"#utility.yul\":21504:21506   */\n      iszero\n      tag_664\n      jumpi\n        /* \"#utility.yul\":21593:21594   */\n      0x00\n        /* \"#utility.yul\":21584:21590   */\n      dup5\n        /* \"#utility.yul\":21579:21582   */\n      dup5\n        /* \"#utility.yul\":21575:21591   */\n      add\n        /* \"#utility.yul\":21568:21595   */\n      mstore\n        /* \"#utility.yul\":21504:21506   */\n    tag_664:\n        /* \"#utility.yul\":21353:21611   */\n      pop\n      pop\n      pop\n      pop\n      jump\t// out\n        /* \"#utility.yul\":21617:21788   */\n    tag_350:\n      0x00\n        /* \"#utility.yul\":21679:21703   */\n      tag_666\n        /* \"#utility.yul\":21697:21702   */\n      dup3\n        /* \"#utility.yul\":21679:21703   */\n      tag_570\n      jump\t// in\n    tag_666:\n        /* \"#utility.yul\":21670:21703   */\n      swap2\n      pop\n        /* \"#utility.yul\":21725:21729   */\n      0x00\n        /* \"#utility.yul\":21718:21723   */\n      dup3\n        /* \"#utility.yul\":21715:21730   */\n      eq\n        /* \"#utility.yul\":21712:21714   */\n      iszero\n      tag_667\n      jumpi\n        /* \"#utility.yul\":21733:21751   */\n      tag_668\n      tag_638\n      jump\t// in\n    tag_668:\n        /* \"#utility.yul\":21712:21714   */\n    tag_667:\n        /* \"#utility.yul\":21780:21781   */\n      0x01\n        /* \"#utility.yul\":21773:21778   */\n      dup3\n        /* \"#utility.yul\":21769:21782   */\n      sub\n        /* \"#utility.yul\":21762:21782   */\n      swap1\n      pop\n        /* \"#utility.yul\":21660:21788   */\n      swap2\n      swap1\n      pop\n      jump\t// out\n        /* \"#utility.yul\":21794:22114   */\n    tag_364:\n      0x00\n        /* \"#utility.yul\":21875:21876   */\n      0x02\n        /* \"#utility.yul\":21869:21873   */\n      dup3\n        /* \"#utility.yul\":21865:21877   */\n      div\n        /* \"#utility.yul\":21855:21877   */\n      swap1\n      pop\n        /* \"#utility.yul\":21922:21923   */\n      0x01\n        /* \"#utility.yul\":21916:21920   */\n      dup3\n        /* \"#utility.yul\":21912:21924   */\n      and\n        /* \"#utility.yul\":21943:21961   */\n      dup1\n        /* \"#utility.yul\":21933:21935   */\n      tag_670\n      jumpi\n        /* \"#utility.yul\":21999:22003   */\n      0x7f\n        /* \"#utility.yul\":21991:21997   */\n      dup3\n        /* \"#utility.yul\":21987:22004   */\n      and\n        /* \"#utility.yul\":21977:22004   */\n      swap2\n      pop\n        /* \"#utility.yul\":21933:21935   */\n    tag_670:\n        /* \"#utility.yul\":22061:22063   */\n      0x20\n        /* \"#utility.yul\":22053:22059   */\n      dup3\n        /* \"#utility.yul\":22050:22064   */\n      lt\n        /* \"#utility.yul\":22030:22048   */\n      dup2\n        /* \"#utility.yul\":22027:22065   */\n      eq\n        /* \"#utility.yul\":22024:22026   */\n      iszero\n      tag_671\n      jumpi\n        /* \"#utility.yul\":22080:22098   */\n      tag_672\n      tag_673\n      jump\t// in\n    tag_672:\n        /* \"#utility.yul\":22024:22026   */\n    tag_671:\n        /* \"#utility.yul\":21845:22114   */\n      pop\n      swap2\n      swap1\n      pop\n      jump\t// out\n        /* \"#utility.yul\":22120:22401   */\n    tag_614:\n        /* \"#utility.yul\":22203:22230   */\n      tag_675\n        /* \"#utility.yul\":22225:22229   */\n      dup3\n        /* \"#utility.yul\":22203:22230   */\n      tag_509\n      jump\t// in\n    tag_675:\n        /* \"#utility.yul\":22195:22201   */\n      dup2\n        /* \"#utility.yul\":22191:22231   */\n      add\n        /* \"#utility.yul\":22333:22339   */\n      dup2\n        /* \"#utility.yul\":22321:22331   */\n      dup2\n        /* \"#utility.yul\":22318:22340   */\n      lt\n        /* \"#utility.yul\":22297:22315   */\n      0xffffffffffffffff\n        /* \"#utility.yul\":22285:22295   */\n      dup3\n        /* \"#utility.yul\":22282:22316   */\n      gt\n        /* \"#utility.yul\":22279:22341   */\n      or\n        /* \"#utility.yul\":22276:22278   */\n      iszero\n      tag_676\n      jumpi\n        /* \"#utility.yul\":22344:22362   */\n      tag_677\n      tag_619\n      jump\t// in\n    tag_677:\n        /* \"#utility.yul\":22276:22278   */\n    tag_676:\n        /* \"#utility.yul\":22384:22394   */\n      dup1\n        /* \"#utility.yul\":22380:22382   */\n      0x40\n        /* \"#utility.yul\":22373:22395   */\n      mstore\n        /* \"#utility.yul\":22163:22401   */\n      pop\n      pop\n      pop\n      jump\t// out\n        /* \"#utility.yul\":22407:22640   */\n    tag_243:\n      0x00\n        /* \"#utility.yul\":22469:22493   */\n      tag_679\n        /* \"#utility.yul\":22487:22492   */\n      dup3\n        /* \"#utility.yul\":22469:22493   */\n      tag_570\n      jump\t// in\n    tag_679:\n        /* \"#utility.yul\":22460:22493   */\n      swap2\n      pop\n        /* \"#utility.yul\":22515:22581   */\n      0xffffffffffffffffffffffffffffffffffffffffffffffffffffffffffffffff\n        /* \"#utility.yul\":22508:22513   */\n      dup3\n        /* \"#utility.yul\":22505:22582   */\n      eq\n        /* \"#utility.yul\":22502:22504   */\n      iszero\n      tag_680\n      jumpi\n        /* \"#utility.yul\":22585:22603   */\n      tag_681\n      tag_638\n      jump\t// in\n    tag_681:\n        /* \"#utility.yul\":22502:22504   */\n    tag_680:\n        /* \"#utility.yul\":22632:22633   */\n      0x01\n        /* \"#utility.yul\":22625:22630   */\n      dup3\n        /* \"#utility.yul\":22621:22634   */\n      add\n        /* \"#utility.yul\":22614:22634   */\n      swap1\n      pop\n        /* \"#utility.yul\":22450:22640   */\n      swap2\n      swap1\n      pop\n      jump\t// out\n        /* \"#utility.yul\":22646:22725   */\n    tag_575:\n      0x00\n        /* \"#utility.yul\":22714:22719   */\n      dup2\n        /* \"#utility.yul\":22703:22719   */\n      swap1\n      pop\n        /* \"#utility.yul\":22693:22725   */\n      swap2\n      swap1\n      pop\n      jump\t// out\n        /* \"#utility.yul\":22731:22911   */\n    tag_638:\n        /* \"#utility.yul\":22779:22856   */\n      0x4e487b7100000000000000000000000000000000000000000000000000000000\n        /* \"#utility.yul\":22776:22777   */\n      0x00\n        /* \"#utility.yul\":22769:22857   */\n      mstore\n        /* \"#utility.yul\":22876:22880   */\n      0x11\n        /* \"#utility.yul\":22873:22874   */\n      0x04\n        /* \"#utility.yul\":22866:22881   */\n      mstore\n        /* \"#utility.yul\":22900:22904   */\n      0x24\n        /* \"#utility.yul\":22897:22898   */\n      0x00\n        /* \"#utility.yul\":22890:22905   */\n      revert\n        /* \"#utility.yul\":22917:23097   */\n    tag_673:\n        /* \"#utility.yul\":22965:23042   */\n      0x4e487b7100000000000000000000000000000000000000000000000000000000\n        /* \"#utility.yul\":22962:22963   */\n      0x00\n        /* \"#utility.yul\":22955:23043   */\n      mstore\n        /* \"#utility.yul\":23062:23066   */\n      0x22\n        /* \"#utility.yul\":23059:23060   */\n      0x04\n        /* \"#utility.yul\":23052:23067   */\n      mstore\n        /* \"#utility.yul\":23086:23090   */\n      0x24\n        /* \"#utility.yul\":23083:23084   */\n      0x00\n        /* \"#utility.yul\":23076:23091   */\n      revert\n        /* \"#utility.yul\":23103:23283   */\n    tag_619:\n        /* \"#utility.yul\":23151:23228   */\n      0x4e487b7100000000000000000000000000000000000000000000000000000000\n        /* \"#utility.yul\":23148:23149   */\n      0x00\n        /* \"#utility.yul\":23141:23229   */\n      mstore\n        /* \"#utility.yul\":23248:23252   */\n      0x41\n        /* \"#utility.yul\":23245:23246   */\n      0x04\n        /* \"#utility.yul\":23238:23253   */\n      mstore\n        /* \"#utility.yul\":23272:23276   */\n      0x24\n        /* \"#utility.yul\":23269:23270   */\n      0x00\n        /* \"#utility.yul\":23262:23277   */\n      revert\n        /* \"#utility.yul\":23289:23391   */\n    tag_509:\n      0x00\n        /* \"#utility.yul\":23381:23383   */\n      0x1f\n        /* \"#utility.yul\":23377:23384   */\n      not\n        /* \"#utility.yul\":23372:23374   */\n      0x1f\n        /* \"#utility.yul\":23365:23370   */\n      dup4\n        /* \"#utility.yul\":23361:23375   */\n      add\n        /* \"#utility.yul\":23357:23385   */\n      and\n        /* \"#utility.yul\":23347:23385   */\n      swap1\n      pop\n        /* \"#utility.yul\":23337:23391   */\n      swap2\n      swap1\n      pop\n      jump\t// out\n        /* \"#utility.yul\":23397:23579   */\n    tag_527:\n        /* \"#utility.yul\":23537:23571   */\n      0x537472696e67733a20686578206c656e67746820696e73756666696369656e74\n        /* \"#utility.yul\":23533:23534   */\n      0x00\n        /* \"#utility.yul\":23525:23531   */\n      dup3\n        /* \"#utility.yul\":23521:23535   */\n      add\n        /* \"#utility.yul\":23514:23572   */\n      mstore\n        /* \"#utility.yul\":23503:23579   */\n      pop\n      jump\t// out\n        /* \"#utility.yul\":23585:23806   */\n    tag_532:\n        /* \"#utility.yul\":23725:23759   */\n      0x53656e646572206973206e6f7420555249204d616e61676572206f722041646d\n        /* \"#utility.yul\":23721:23722   */\n      0x00\n        /* \"#utility.yul\":23713:23719   */\n      dup3\n        /* \"#utility.yul\":23709:23723   */\n      add\n        /* \"#utility.yul\":23702:23760   */\n      mstore\n        /* \"#utility.yul\":23794:23798   */\n      0x696e000000000000000000000000000000000000000000000000000000000000\n        /* \"#utility.yul\":23789:23791   */\n      0x20\n        /* \"#utility.yul\":23781:23787   */\n      dup3\n        /* \"#utility.yul\":23777:23792   */\n      add\n        /* \"#utility.yul\":23770:23799   */\n      mstore\n        /* \"#utility.yul\":23691:23806   */\n      pop\n      jump\t// out\n        /* \"#utility.yul\":23812:23982   */\n    tag_537:\n        /* \"#utility.yul\":23952:23974   */\n      0x4d6f64657261746564557269733a204552522031000000000000000000000000\n        /* \"#utility.yul\":23948:23949   */\n      0x00\n        /* \"#utility.yul\":23940:23946   */\n      dup3\n        /* \"#utility.yul\":23936:23950   */\n      add\n        /* \"#utility.yul\":23929:23975   */\n      mstore\n        /* \"#utility.yul\":23918:23982   */\n      pop\n      jump\t// out\n        /* \"#utility.yul\":23988:24158   */\n    tag_542:\n        /* \"#utility.yul\":24128:24150   */\n      0x4d6f64657261746564557269733a204552522032000000000000000000000000\n        /* \"#utility.yul\":24124:24125   */\n      0x00\n        /* \"#utility.yul\":24116:24122   */\n      dup3\n        /* \"#utility.yul\":24112:24126   */\n      add\n        /* \"#utility.yul\":24105:24151   */\n      mstore\n        /* \"#utility.yul\":24094:24158   */\n      pop\n      jump\t// out\n        /* \"#utility.yul\":24164:24334   */\n    tag_547:\n        /* \"#utility.yul\":24304:24326   */\n      0x4d6f64657261746564557269733a204552522033000000000000000000000000\n        /* \"#utility.yul\":24300:24301   */\n      0x00\n        /* \"#utility.yul\":24292:24298   */\n      dup3\n        /* \"#utility.yul\":24288:24302   */\n      add\n        /* \"#utility.yul\":24281:24327   */\n      mstore\n        /* \"#utility.yul\":24270:24334   */\n      pop\n      jump\t// out\n        /* \"#utility.yul\":24340:24588   */\n    tag_552:\n        /* \"#utility.yul\":24480:24514   */\n      0x4c313a205f6d616b65456e7472793a20656e7472792077697468206d61746368\n        /* \"#utility.yul\":24476:24477   */\n      0x00\n        /* \"#utility.yul\":24468:24474   */\n      dup3\n        /* \"#utility.yul\":24464:24478   */\n      add\n        /* \"#utility.yul\":24457:24515   */\n      mstore\n        /* \"#utility.yul\":24549:24580   */\n      0x696e6720696420616e642075726920616c726561647920657869737473000000\n        /* \"#utility.yul\":24544:24546   */\n      0x20\n        /* \"#utility.yul\":24536:24542   */\n      dup3\n        /* \"#utility.yul\":24532:24547   */\n      add\n        /* \"#utility.yul\":24525:24581   */\n      mstore\n        /* \"#utility.yul\":24446:24588   */\n      pop\n      jump\t// out\n        /* \"#utility.yul\":24594:24767   */\n    tag_557:\n        /* \"#utility.yul\":24734:24759   */\n      0x416363657373436f6e74726f6c3a206163636f756e7420000000000000000000\n        /* \"#utility.yul\":24730:24731   */\n      0x00\n        /* \"#utility.yul\":24722:24728   */\n      dup3\n        /* \"#utility.yul\":24718:24732   */\n      add\n        /* \"#utility.yul\":24711:24760   */\n      mstore\n        /* \"#utility.yul\":24700:24767   */\n      pop\n      jump\t// out\n        /* \"#utility.yul\":24773:24940   */\n    tag_562:\n        /* \"#utility.yul\":24913:24932   */\n      0x206973206d697373696e6720726f6c6520000000000000000000000000000000\n        /* \"#utility.yul\":24909:24910   */\n      0x00\n        /* \"#utility.yul\":24901:24907   */\n      dup3\n        /* \"#utility.yul\":24897:24911   */\n      add\n        /* \"#utility.yul\":24890:24933   */\n      mstore\n        /* \"#utility.yul\":24879:24940   */\n      pop\n      jump\t// out\n        /* \"#utility.yul\":24946:25180   */\n    tag_567:\n        /* \"#utility.yul\":25086:25120   */\n      0x416363657373436f6e74726f6c3a2063616e206f6e6c792072656e6f756e6365\n        /* \"#utility.yul\":25082:25083   */\n      0x00\n        /* \"#utility.yul\":25074:25080   */\n      dup3\n        /* \"#utility.yul\":25070:25084   */\n      add\n        /* \"#utility.yul\":25063:25121   */\n      mstore\n        /* \"#utility.yul\":25155:25172   */\n      0x20726f6c657320666f722073656c660000000000000000000000000000000000\n        /* \"#utility.yul\":25150:25152   */\n      0x20\n        /* \"#utility.yul\":25142:25148   */\n      dup3\n        /* \"#utility.yul\":25138:25153   */\n      add\n        /* \"#utility.yul\":25131:25173   */\n      mstore\n        /* \"#utility.yul\":25052:25180   */\n      pop\n      jump\t// out\n        /* \"#utility.yul\":25186:25308   */\n    tag_410:\n        /* \"#utility.yul\":25259:25283   */\n      tag_697\n        /* \"#utility.yul\":25277:25282   */\n      dup2\n        /* \"#utility.yul\":25259:25283   */\n      tag_649\n      jump\t// in\n    tag_697:\n        /* \"#utility.yul\":25252:25257   */\n      dup2\n        /* \"#utility.yul\":25249:25284   */\n      eq\n        /* \"#utility.yul\":25239:25241   */\n      tag_698\n      jumpi\n        /* \"#utility.yul\":25298:25299   */\n      0x00\n        /* \"#utility.yul\":25295:25296   */\n      dup1\n        /* \"#utility.yul\":25288:25300   */\n      revert\n        /* \"#utility.yul\":25239:25241   */\n    tag_698:\n        /* \"#utility.yul\":25229:25308   */\n      pop\n      jump\t// out\n        /* \"#utility.yul\":25314:25430   */\n    tag_414:\n        /* \"#utility.yul\":25384:25405   */\n      tag_700\n        /* \"#utility.yul\":25399:25404   */\n      dup2\n        /* \"#utility.yul\":25384:25405   */\n      tag_496\n      jump\t// in\n    tag_700:\n        /* \"#utility.yul\":25377:25382   */\n      dup2\n        /* \"#utility.yul\":25374:25406   */\n      eq\n        /* \"#utility.yul\":25364:25366   */\n      tag_701\n      jumpi\n        /* \"#utility.yul\":25420:25421   */\n      0x00\n        /* \"#utility.yul\":25417:25418   */\n      dup1\n        /* \"#utility.yul\":25410:25422   */\n      revert\n        /* \"#utility.yul\":25364:25366   */\n    tag_701:\n        /* \"#utility.yul\":25354:25430   */\n      pop\n      jump\t// out\n        /* \"#utility.yul\":25436:25558   */\n    tag_418:\n        /* \"#utility.yul\":25509:25533   */\n      tag_703\n        /* \"#utility.yul\":25527:25532   */\n      dup2\n        /* \"#utility.yul\":25509:25533   */\n      tag_500\n      jump\t// in\n    tag_703:\n        /* \"#utility.yul\":25502:25507   */\n      dup2\n        /* \"#utility.yul\":25499:25534   */\n      eq\n        /* \"#utility.yul\":25489:25491   */\n      tag_704\n      jumpi\n        /* \"#utility.yul\":25548:25549   */\n      0x00\n        /* \"#utility.yul\":25545:25546   */\n      dup1\n        /* \"#utility.yul\":25538:25550   */\n      revert\n        /* \"#utility.yul\":25489:25491   */\n    tag_704:\n        /* \"#utility.yul\":25479:25558   */\n      pop\n      jump\t// out\n        /* \"#utility.yul\":25564:25684   */\n    tag_422:\n        /* \"#utility.yul\":25636:25659   */\n      tag_706\n        /* \"#utility.yul\":25653:25658   */\n      dup2\n        /* \"#utility.yul\":25636:25659   */\n      tag_655\n      jump\t// in\n    tag_706:\n        /* \"#utility.yul\":25629:25634   */\n      dup2\n        /* \"#utility.yul\":25626:25660   */\n      eq\n        /* \"#utility.yul\":25616:25618   */\n      tag_707\n      jumpi\n        /* \"#utility.yul\":25674:25675   */\n      0x00\n        /* \"#utility.yul\":25671:25672   */\n      dup1\n        /* \"#utility.yul\":25664:25676   */\n      revert\n        /* \"#utility.yul\":25616:25618   */\n    tag_707:\n        /* \"#utility.yul\":25606:25684   */\n      pop\n      jump\t// out\n        /* \"#utility.yul\":25690:25812   */\n    tag_430:\n        /* \"#utility.yul\":25763:25787   */\n      tag_709\n        /* \"#utility.yul\":25781:25786   */\n      dup2\n        /* \"#utility.yul\":25763:25787   */\n      tag_570\n      jump\t// in\n    tag_709:\n        /* \"#utility.yul\":25756:25761   */\n      dup2\n        /* \"#utility.yul\":25753:25788   */\n      eq\n        /* \"#utility.yul\":25743:25745   */\n      tag_710\n      jumpi\n        /* \"#utility.yul\":25802:25803   */\n      0x00\n        /* \"#utility.yul\":25799:25800   */\n      dup1\n        /* \"#utility.yul\":25792:25804   */\n      revert\n        /* \"#utility.yul\":25743:25745   */\n    tag_710:\n        /* \"#utility.yul\":25733:25812   */\n      pop\n      jump\t// out\n\n    auxdata: 0xa2646970667358221220185e0ffbec7089a8d2eeec17cfe46970bedf9bac09fd4a7ffbaa458aa771002564736f6c63430008010033\n}\n",
				"bytecode": {
					"linkReferences": {},
					"object": "608060405234801561001057600080fd5b50612a83806100206000396000f3fe608060405234801561001057600080fd5b50600436106101375760003560e01c8063682d07d9116100b8578063b5a92ce51161007c578063b5a92ce51461034c578063c53dfdac1461036a578063cebdbea71461039a578063d547741f146103ca578063dd1e1656146103e6578063e85eaaff146103f057610137565b8063682d07d91461029457806368f9dbe1146102b25780636d3cc82d146102e257806391d14854146102fe578063a217fddf1461032e57610137565b80632f2ff15d116100ff5780632f2ff15d146101f257806333e06e7c1461020e57806336568abe1461022a5780633a2aa22b146102465780633d88cf3d1461026457610137565b806301ffc9a71461013c57806315fda1941461016c578063248a9ca314610188578063263d336c146101b857806329cb0531146101d6575b600080fd5b61015660048036038101906101519190611d9c565b61040c565b604051610163919061229d565b60405180910390f35b61018660048036038101906101819190611e6b565b610486565b005b6101a2600480360381019061019d9190611d37565b610521565b6040516101af91906122b8565b60405180910390f35b6101c0610540565b6040516101cd91906122b8565b60405180910390f35b6101f060048036038101906101eb9190611dc5565b610564565b005b61020c60048036038101906102079190611d60565b6105fd565b005b61022860048036038101906102239190611dc5565b610626565b005b610244600480360381019061023f9190611d60565b6106f9565b005b61024e61077c565b60405161025b9190612259565b60405180910390f35b61027e60048036038101906102799190611dc5565b61078e565b60405161028b919061229d565b60405180910390f35b61029c6107a2565b6040516102a991906122b8565b60405180910390f35b6102cc60048036038101906102c79190611dc5565b6107c6565b6040516102d9919061227b565b60405180910390f35b6102fc60048036038101906102f79190611e06565b6107da565b005b61031860048036038101906103139190611d60565b610871565b604051610325919061229d565b60405180910390f35b6103366108db565b60405161034391906122b8565b60405180910390f35b6103546108e2565b60405161036191906122b8565b60405180910390f35b610384600480360381019061037f9190611e6b565b610906565b604051610391919061229d565b60405180910390f35b6103b460048036038101906103af9190611e2f565b61094d565b6040516103c19190612259565b60405180910390f35b6103e460048036038101906103df9190611d60565b61097d565b005b6103ee6109a6565b005b61040a60048036038101906104059190611e6b565b6109d9565b005b60007f7965db0b000000000000000000000000000000000000000000000000000000007bffffffffffffffffffffffffffffffffffffffffffffffffffffffff1916827bffffffffffffffffffffffffffffffffffffffffffffffffffffffff1916148061047f575061047e82610aac565b5b9050919050565b6104b77fa70a2d8710fed9f014c8c2af50c7c2f6b25748ae4cded822e03b7beed44cf3a86104b2610b16565b610871565b806104d257506104d16000801b6104cc610b16565b610871565b5b610511576040517f08c379a000000000000000000000000000000000000000000000000000000000815260040161050890612315565b60405180910390fd5b61051d82826000610b1e565b5050565b6000806000838152602001908152602001600020600101549050919050565b7fad8e13ade6b5588e1a6049d70c1678b839105f007c5f6fb969ad8b1456160eac81565b6105957fa70a2d8710fed9f014c8c2af50c7c2f6b25748ae4cded822e03b7beed44cf3a8610590610b16565b610871565b806105b057506105af6000801b6105aa610b16565b610871565b5b6105ef576040517f08c379a00000000000000000000000000000000000000000000000000000000081526004016105e690612315565b60405180910390fd5b6105fa816001610b4d565b50565b61060682610521565b61061781610612610b16565b610c20565b6106218383610cbd565b505050565b6106577fa70a2d8710fed9f014c8c2af50c7c2f6b25748ae4cded822e03b7beed44cf3a8610652610b16565b610871565b8061068f575061068e7f59d7ee6b6a4d6cc1ade519e325968bd1178816ffd1a273fac3229469856403d2610689610b16565b610871565b5b806106aa57506106a96000801b6106a4610b16565b610871565b5b6106e9576040517f08c379a00000000000000000000000000000000000000000000000000000000081526004016106e090612315565b60405180910390fd5b6106f66000826001610b1e565b50565b610701610b16565b73ffffffffffffffffffffffffffffffffffffffff168173ffffffffffffffffffffffffffffffffffffffff161461076e576040517f08c379a0000000000000000000000000000000000000000000000000000000008152600401610765906123b5565b60405180910390fd5b6107788282610d9d565b5050565b6060610789600080610e7e565b905090565b600061079b600083610fae565b9050919050565b7fa70a2d8710fed9f014c8c2af50c7c2f6b25748ae4cded822e03b7beed44cf3a881565b60606107d3826001610fc8565b9050919050565b61080b7fa70a2d8710fed9f014c8c2af50c7c2f6b25748ae4cded822e03b7beed44cf3a8610806610b16565b610871565b8061082657506108256000801b610820610b16565b610871565b5b610865576040517f08c379a000000000000000000000000000000000000000000000000000000000815260040161085c90612315565b60405180910390fd5b61086e81611174565b50565b600080600084815260200190815260200160002060000160008373ffffffffffffffffffffffffffffffffffffffff1673ffffffffffffffffffffffffffffffffffffffff16815260200190815260200160002060009054906101000a900460ff16905092915050565b6000801b81565b7f59d7ee6b6a4d6cc1ade519e325968bd1178816ffd1a273fac3229469856403d281565b60006109128383611218565b61092857610921600083610fae565b9050610947565b6109328383610fae565b806109445750610943600083610fae565b5b90505b92915050565b6060600083141561096a57610963600080610e7e565b9050610977565b6109748383610e7e565b90505b92915050565b61098682610521565b61099781610992610b16565b610c20565b6109a18383610d9d565b505050565b6000801b6109bb816109b6610b16565b610c20565b6000600160006101000a81548160ff02191690831515021790555050565b610a0a7fa70a2d8710fed9f014c8c2af50c7c2f6b25748ae4cded822e03b7beed44cf3a8610a05610b16565b610871565b80610a425750610a417f59d7ee6b6a4d6cc1ade519e325968bd1178816ffd1a273fac3229469856403d2610a3c610b16565b610871565b5b80610a5d5750610a5c6000801b610a57610b16565b610871565b5b610a9c576040517f08c379a0000000000000000000000000000000000000000000000000000000008152600401610a9390612315565b60405180910390fd5b610aa882826001610b1e565b5050565b60007f01ffc9a7000000000000000000000000000000000000000000000000000000007bffffffffffffffffffffffffffffffffffffffffffffffffffffffff1916827bffffffffffffffffffffffffffffffffffffffffffffffffffffffff1916149050919050565b600033905090565b610b288383611218565b610b3c57610b3783838361126e565b610b48565b610b47838383611394565b5b505050565b60005b6002800183604051610b6291906121e0565b908152602001604051809103902080549050811015610c1b5760006002800184604051610b8f91906121e0565b90815260200160405180910390208281548110610bd5577f4e487b7100000000000000000000000000000000000000000000000000000000600052603260045260246000fd5b906000526020600020015490508280610bf65750610bf48160016113e7565b155b15610c0757610c06816000611401565b5b508080610c1390612706565b915050610b50565b505050565b610c2a8282610871565b610cb957610c4f8173ffffffffffffffffffffffffffffffffffffffff1660146114af565b610c5d8360001c60206114af565b604051602001610c6e9291906121f7565b6040516020818303038152906040526040517f08c379a0000000000000000000000000000000000000000000000000000000008152600401610cb091906122d3565b60405180910390fd5b5050565b610cc78282610871565b610d9957600160008084815260200190815260200160002060000160008373ffffffffffffffffffffffffffffffffffffffff1673ffffffffffffffffffffffffffffffffffffffff16815260200190815260200160002060006101000a81548160ff021916908315150217905550610d3e610b16565b73ffffffffffffffffffffffffffffffffffffffff168173ffffffffffffffffffffffffffffffffffffffff16837f2f8788117e7eff1d82e926ec794901d17c78024a50270940304540a733656f0d60405160405180910390a45b5050565b610da78282610871565b15610e7a57600080600084815260200190815260200160002060000160008373ffffffffffffffffffffffffffffffffffffffff1673ffffffffffffffffffffffffffffffffffffffff16815260200190815260200160002060006101000a81548160ff021916908315150217905550610e1f610b16565b73ffffffffffffffffffffffffffffffffffffffff168173ffffffffffffffffffffffffffffffffffffffff16837ff6391f5c32d9c69d2a47ea670b442974b53935d1edc7fd64eb21e047a839171b60405160405180910390a45b5050565b6060808215610e9557610e92600080610e7e565b90505b60008151905060005b6002600301600087815260200190815260200160002080549050811015610fa2576000600260030160008881526020019081526020016000208281548110610f0f577f4e487b7100000000000000000000000000000000000000000000000000000000600052603260045260246000fd5b906000526020600020015490506000610f298260006117a9565b9050806060015115610f8d578060400151858581518110610f73577f4e487b7100000000000000000000000000000000000000000000000000000000600052603260045260246000fd5b60200260200101819052508380610f8990612706565b9450505b50508080610f9a90612706565b915050610e9e565b50819250505092915050565b6000610fbc8383600061191b565b60600151905092915050565b606080828015610fdf5750610fde600085611218565b5b8015610ff85750610ff3600085600161191b565b606001515b1561104657600081600081518110611039577f4e487b7100000000000000000000000000000000000000000000000000000000600052603260045260246000fd5b6020026020010181815250505b60008151905060005b600280018660405161106191906121e0565b908152602001604051809103902080549050811015611168576000600280018760405161108e91906121e0565b908152602001604051809103902082815481106110d4577f4e487b7100000000000000000000000000000000000000000000000000000000600052603260045260246000fd5b9060005260206000200154905060006110ee8260006117a9565b9050806060015115611153578060200151858581518110611138577f4e487b7100000000000000000000000000000000000000000000000000000000600052603260045260246000fd5b602002602001018181525050838061114f90612706565b9450505b5050808061116090612706565b91505061104f565b50819250505092915050565b60005b60026003016000838152602001908152602001600020805490508110156112145760006002600301600084815260200190815260200160002082815481106111e8577f4e487b7100000000000000000000000000000000000000000000000000000000600052603260045260246000fd5b90600052602060002001549050611200816000611401565b50808061120c90612706565b915050611177565b5050565b600080600260010160008585604051602001611235929190612231565b6040516020818303038152906040528051906020012081526020019081526020016000205490506112658161197a565b91505092915050565b6112788383611218565b156112b8576040517f08c379a00000000000000000000000000000000000000000000000000000000081526004016112af90612395565b60405180910390fd5b60006112c5848484611987565b9050806002600101600086866040516020016112e2929190612231565b6040516020818303038152906040528051906020012081526020019081526020016000208190555060026003016000858152602001908152602001600020819080600181540180825580915050600190039060005260206000200160009091909190915055600280018360405161135991906121e0565b908152602001604051809103902081908060018154018082558091505060019003906000526020600020016000909190919091505550505050565b60006002600101600085856040516020016113b0929190612231565b6040516020818303038152906040528051906020012081526020019081526020016000205490506113e18183611401565b50505050565b6000806113f484846117a9565b6020015114905092915050565b6000821415611445576040517f08c379a000000000000000000000000000000000000000000000000000000000815260040161143c90612355565b60405180910390fd5b8060026000018381548110611483577f4e487b7100000000000000000000000000000000000000000000000000000000600052603260045260246000fd5b906000526020600020906004020160030160006101000a81548160ff0219169083151502179055505050565b6060600060028360026114c2919061252b565b6114cc91906124d5565b67ffffffffffffffff81111561150b577f4e487b7100000000000000000000000000000000000000000000000000000000600052604160045260246000fd5b6040519080825280601f01601f19166020018201604052801561153d5781602001600182028036833780820191505090505b5090507f30000000000000000000000000000000000000000000000000000000000000008160008151811061159b577f4e487b7100000000000000000000000000000000000000000000000000000000600052603260045260246000fd5b60200101907effffffffffffffffffffffffffffffffffffffffffffffffffffffffffffff1916908160001a9053507f780000000000000000000000000000000000000000000000000000000000000081600181518110611625577f4e487b7100000000000000000000000000000000000000000000000000000000600052603260045260246000fd5b60200101907effffffffffffffffffffffffffffffffffffffffffffffffffffffffffffff1916908160001a90535060006001846002611665919061252b565b61166f91906124d5565b90505b600181111561175b577f3031323334353637383961626364656600000000000000000000000000000000600f8616601081106116d7577f4e487b7100000000000000000000000000000000000000000000000000000000600052603260045260246000fd5b1a60f81b828281518110611714577f4e487b7100000000000000000000000000000000000000000000000000000000600052603260045260246000fd5b60200101907effffffffffffffffffffffffffffffffffffffffffffffffffffffffffffff1916908160001a905350600485901c94508061175490612679565b9050611672565b506000841461179f576040517f08c379a0000000000000000000000000000000000000000000000000000000008152600401611796906122f5565b60405180910390fd5b8091505092915050565b6117b1611b99565b81156117fc5760008314156117fb576040517f08c379a00000000000000000000000000000000000000000000000000000000081526004016117f290612375565b60405180910390fd5b5b60026000018381548110611839577f4e487b7100000000000000000000000000000000000000000000000000000000600052603260045260246000fd5b90600052602060002090600402016040518060800160405290816000820154815260200160018201548152602001600282018054611876906126a3565b80601f01602080910402602001604051908101604052809291908181526020018280546118a2906126a3565b80156118ef5780601f106118c4576101008083540402835291602001916118ef565b820191906000526020600020905b8154815290600101906020018083116118d257829003601f168201915b505050505081526020016003820160009054906101000a900460ff161515151581525050905092915050565b611923611b99565b600060026001016000868660405160200161193f929190612231565b60405160208183030381529060405280519060200120815260200190815260200160002054905061197081846117a9565b9150509392505050565b6000808214159050919050565b6000806002600001805490501415611a6f5760405180608001604052806000815260200160008152602001604051806020016040528060008152508152602001600015158152506002600001600081548110611a0c577f4e487b7100000000000000000000000000000000000000000000000000000000600052603260045260246000fd5b906000526020600020906004020160008201518160000155602082015181600101556040820151816002019080519060200190611a4a929190611bc3565b5060608201518160030160006101000a81548160ff0219169083151502179055509050505b604051806020016040528060008152508051906020012083805190602001201415611acf576040517f08c379a0000000000000000000000000000000000000000000000000000000008152600401611ac690612335565b60405180910390fd5b600260000160405180608001604052806002600001805490508152602001868152602001858152602001841515815250908060018154018082558091505060019003906000526020600020906004020160009091909190915060008201518160000155602082015181600101556040820151816002019080519060200190611b58929190611bc3565b5060608201518160030160006101000a81548160ff02191690831515021790555050506001600260000180549050611b909190612585565b90509392505050565b60405180608001604052806000815260200160008152602001606081526020016000151581525090565b828054611bcf906126a3565b90600052602060002090601f016020900481019282611bf15760008555611c38565b82601f10611c0a57805160ff1916838001178555611c38565b82800160010185558215611c38579182015b82811115611c37578251825591602001919060010190611c1c565b5b509050611c459190611c49565b5090565b5b80821115611c62576000816000905550600101611c4a565b5090565b6000611c79611c74846123fa565b6123d5565b905082815260208101848484011115611c9157600080fd5b611c9c848285612637565b509392505050565b600081359050611cb3816129da565b92915050565b600081359050611cc8816129f1565b92915050565b600081359050611cdd81612a08565b92915050565b600081359050611cf281612a1f565b92915050565b600082601f830112611d0957600080fd5b8135611d19848260208601611c66565b91505092915050565b600081359050611d3181612a36565b92915050565b600060208284031215611d4957600080fd5b6000611d5784828501611cce565b91505092915050565b60008060408385031215611d7357600080fd5b6000611d8185828601611cce565b9250506020611d9285828601611ca4565b9150509250929050565b600060208284031215611dae57600080fd5b6000611dbc84828501611ce3565b91505092915050565b600060208284031215611dd757600080fd5b600082013567ffffffffffffffff811115611df157600080fd5b611dfd84828501611cf8565b91505092915050565b600060208284031215611e1857600080fd5b6000611e2684828501611d22565b91505092915050565b60008060408385031215611e4257600080fd5b6000611e5085828601611d22565b9250506020611e6185828601611cb9565b9150509250929050565b60008060408385031215611e7e57600080fd5b6000611e8c85828601611d22565b925050602083013567ffffffffffffffff811115611ea957600080fd5b611eb585828601611cf8565b9150509250929050565b6000611ecb8383611fdc565b905092915050565b6000611edf83836121ba565b60208301905092915050565b6000611ef68261244b565b611f008185612486565b935083602082028501611f128561242b565b8060005b85811015611f4e5784840389528151611f2f8582611ebf565b9450611f3a8361246c565b925060208a01995050600181019050611f16565b50829750879550505050505092915050565b6000611f6b82612456565b611f758185612497565b9350611f808361243b565b8060005b83811015611fb1578151611f988882611ed3565b9750611fa383612479565b925050600181019050611f84565b5085935050505092915050565b611fc7816125cb565b82525050565b611fd6816125d7565b82525050565b6000611fe782612461565b611ff181856124a8565b9350612001818560208601612646565b61200a816127e6565b840191505092915050565b600061202082612461565b61202a81856124b9565b935061203a818560208601612646565b612043816127e6565b840191505092915050565b600061205982612461565b61206381856124ca565b9350612073818560208601612646565b80840191505092915050565b600061208c6020836124b9565b9150612097826127f7565b602082019050919050565b60006120af6022836124b9565b91506120ba82612820565b604082019050919050565b60006120d26014836124b9565b91506120dd8261286f565b602082019050919050565b60006120f56014836124b9565b915061210082612898565b602082019050919050565b60006121186014836124b9565b9150612123826128c1565b602082019050919050565b600061213b603d836124b9565b9150612146826128ea565b604082019050919050565b600061215e6017836124ca565b915061216982612939565b601782019050919050565b60006121816011836124ca565b915061218c82612962565b601182019050919050565b60006121a4602f836124b9565b91506121af8261298b565b604082019050919050565b6121c38161262d565b82525050565b6121da6121d58261262d565b61274f565b82525050565b60006121ec828461204e565b915081905092915050565b600061220282612151565b915061220e828561204e565b915061221982612174565b9150612225828461204e565b91508190509392505050565b600061223d82856121c9565b60208201915061224d828461204e565b91508190509392505050565b600060208201905081810360008301526122738184611eeb565b905092915050565b600060208201905081810360008301526122958184611f60565b905092915050565b60006020820190506122b26000830184611fbe565b92915050565b60006020820190506122cd6000830184611fcd565b92915050565b600060208201905081810360008301526122ed8184612015565b905092915050565b6000602082019050818103600083015261230e8161207f565b9050919050565b6000602082019050818103600083015261232e816120a2565b9050919050565b6000602082019050818103600083015261234e816120c5565b9050919050565b6000602082019050818103600083015261236e816120e8565b9050919050565b6000602082019050818103600083015261238e8161210b565b9050919050565b600060208201905081810360008301526123ae8161212e565b9050919050565b600060208201905081810360008301526123ce81612197565b9050919050565b60006123df6123f0565b90506123eb82826126d5565b919050565b6000604051905090565b600067ffffffffffffffff821115612415576124146127b7565b5b61241e826127e6565b9050602081019050919050565b6000819050602082019050919050565b6000819050602082019050919050565b600081519050919050565b600081519050919050565b600081519050919050565b6000602082019050919050565b6000602082019050919050565b600082825260208201905092915050565b600082825260208201905092915050565b600082825260208201905092915050565b600082825260208201905092915050565b600081905092915050565b60006124e08261262d565b91506124eb8361262d565b9250827fffffffffffffffffffffffffffffffffffffffffffffffffffffffffffffffff038211156125205761251f612759565b5b828201905092915050565b60006125368261262d565b91506125418361262d565b9250817fffffffffffffffffffffffffffffffffffffffffffffffffffffffffffffffff048311821515161561257a57612579612759565b5b828202905092915050565b60006125908261262d565b915061259b8361262d565b9250828210156125ae576125ad612759565b5b828203905092915050565b60006125c48261260d565b9050919050565b60008115159050919050565b6000819050919050565b60007fffffffff0000000000000000000000000000000000000000000000000000000082169050919050565b600073ffffffffffffffffffffffffffffffffffffffff82169050919050565b6000819050919050565b82818337600083830152505050565b60005b83811015612664578082015181840152602081019050612649565b83811115612673576000848401525b50505050565b60006126848261262d565b9150600082141561269857612697612759565b5b600182039050919050565b600060028204905060018216806126bb57607f821691505b602082108114156126cf576126ce612788565b5b50919050565b6126de826127e6565b810181811067ffffffffffffffff821117156126fd576126fc6127b7565b5b80604052505050565b60006127118261262d565b91507fffffffffffffffffffffffffffffffffffffffffffffffffffffffffffffffff82141561274457612743612759565b5b600182019050919050565b6000819050919050565b7f4e487b7100000000000000000000000000000000000000000000000000000000600052601160045260246000fd5b7f4e487b7100000000000000000000000000000000000000000000000000000000600052602260045260246000fd5b7f4e487b7100000000000000000000000000000000000000000000000000000000600052604160045260246000fd5b6000601f19601f8301169050919050565b7f537472696e67733a20686578206c656e67746820696e73756666696369656e74600082015250565b7f53656e646572206973206e6f7420555249204d616e61676572206f722041646d60008201527f696e000000000000000000000000000000000000000000000000000000000000602082015250565b7f4d6f64657261746564557269733a204552522031000000000000000000000000600082015250565b7f4d6f64657261746564557269733a204552522032000000000000000000000000600082015250565b7f4d6f64657261746564557269733a204552522033000000000000000000000000600082015250565b7f4c313a205f6d616b65456e7472793a20656e7472792077697468206d6174636860008201527f696e6720696420616e642075726920616c726561647920657869737473000000602082015250565b7f416363657373436f6e74726f6c3a206163636f756e7420000000000000000000600082015250565b7f206973206d697373696e6720726f6c6520000000000000000000000000000000600082015250565b7f416363657373436f6e74726f6c3a2063616e206f6e6c792072656e6f756e636560008201527f20726f6c657320666f722073656c660000000000000000000000000000000000602082015250565b6129e3816125b9565b81146129ee57600080fd5b50565b6129fa816125cb565b8114612a0557600080fd5b50565b612a11816125d7565b8114612a1c57600080fd5b50565b612a28816125e1565b8114612a3357600080fd5b50565b612a3f8161262d565b8114612a4a57600080fd5b5056fea2646970667358221220185e0ffbec7089a8d2eeec17cfe46970bedf9bac09fd4a7ffbaa458aa771002564736f6c63430008010033",
					"opcodes": "PUSH1 0x80 PUSH1 0x40 MSTORE CALLVALUE DUP1 ISZERO PUSH2 0x10 JUMPI PUSH1 0x0 DUP1 REVERT JUMPDEST POP PUSH2 0x2A83 DUP1 PUSH2 0x20 PUSH1 0x0 CODECOPY PUSH1 0x0 RETURN INVALID PUSH1 0x80 PUSH1 0x40 MSTORE CALLVALUE DUP1 ISZERO PUSH2 0x10 JUMPI PUSH1 0x0 DUP1 REVERT JUMPDEST POP PUSH1 0x4 CALLDATASIZE LT PUSH2 0x137 JUMPI PUSH1 0x0 CALLDATALOAD PUSH1 0xE0 SHR DUP1 PUSH4 0x682D07D9 GT PUSH2 0xB8 JUMPI DUP1 PUSH4 0xB5A92CE5 GT PUSH2 0x7C JUMPI DUP1 PUSH4 0xB5A92CE5 EQ PUSH2 0x34C JUMPI DUP1 PUSH4 0xC53DFDAC EQ PUSH2 0x36A JUMPI DUP1 PUSH4 0xCEBDBEA7 EQ PUSH2 0x39A JUMPI DUP1 PUSH4 0xD547741F EQ PUSH2 0x3CA JUMPI DUP1 PUSH4 0xDD1E1656 EQ PUSH2 0x3E6 JUMPI DUP1 PUSH4 0xE85EAAFF EQ PUSH2 0x3F0 JUMPI PUSH2 0x137 JUMP JUMPDEST DUP1 PUSH4 0x682D07D9 EQ PUSH2 0x294 JUMPI DUP1 PUSH4 0x68F9DBE1 EQ PUSH2 0x2B2 JUMPI DUP1 PUSH4 0x6D3CC82D EQ PUSH2 0x2E2 JUMPI DUP1 PUSH4 0x91D14854 EQ PUSH2 0x2FE JUMPI DUP1 PUSH4 0xA217FDDF EQ PUSH2 0x32E JUMPI PUSH2 0x137 JUMP JUMPDEST DUP1 PUSH4 0x2F2FF15D GT PUSH2 0xFF JUMPI DUP1 PUSH4 0x2F2FF15D EQ PUSH2 0x1F2 JUMPI DUP1 PUSH4 0x33E06E7C EQ PUSH2 0x20E JUMPI DUP1 PUSH4 0x36568ABE EQ PUSH2 0x22A JUMPI DUP1 PUSH4 0x3A2AA22B EQ PUSH2 0x246 JUMPI DUP1 PUSH4 0x3D88CF3D EQ PUSH2 0x264 JUMPI PUSH2 0x137 JUMP JUMPDEST DUP1 PUSH4 0x1FFC9A7 EQ PUSH2 0x13C JUMPI DUP1 PUSH4 0x15FDA194 EQ PUSH2 0x16C JUMPI DUP1 PUSH4 0x248A9CA3 EQ PUSH2 0x188 JUMPI DUP1 PUSH4 0x263D336C EQ PUSH2 0x1B8 JUMPI DUP1 PUSH4 0x29CB0531 EQ PUSH2 0x1D6 JUMPI JUMPDEST PUSH1 0x0 DUP1 REVERT JUMPDEST PUSH2 0x156 PUSH1 0x4 DUP1 CALLDATASIZE SUB DUP2 ADD SWAP1 PUSH2 0x151 SWAP2 SWAP1 PUSH2 0x1D9C JUMP JUMPDEST PUSH2 0x40C JUMP JUMPDEST PUSH1 0x40 MLOAD PUSH2 0x163 SWAP2 SWAP1 PUSH2 0x229D JUMP JUMPDEST PUSH1 0x40 MLOAD DUP1 SWAP2 SUB SWAP1 RETURN JUMPDEST PUSH2 0x186 PUSH1 0x4 DUP1 CALLDATASIZE SUB DUP2 ADD SWAP1 PUSH2 0x181 SWAP2 SWAP1 PUSH2 0x1E6B JUMP JUMPDEST PUSH2 0x486 JUMP JUMPDEST STOP JUMPDEST PUSH2 0x1A2 PUSH1 0x4 DUP1 CALLDATASIZE SUB DUP2 ADD SWAP1 PUSH2 0x19D SWAP2 SWAP1 PUSH2 0x1D37 JUMP JUMPDEST PUSH2 0x521 JUMP JUMPDEST PUSH1 0x40 MLOAD PUSH2 0x1AF SWAP2 SWAP1 PUSH2 0x22B8 JUMP JUMPDEST PUSH1 0x40 MLOAD DUP1 SWAP2 SUB SWAP1 RETURN JUMPDEST PUSH2 0x1C0 PUSH2 0x540 JUMP JUMPDEST PUSH1 0x40 MLOAD PUSH2 0x1CD SWAP2 SWAP1 PUSH2 0x22B8 JUMP JUMPDEST PUSH1 0x40 MLOAD DUP1 SWAP2 SUB SWAP1 RETURN JUMPDEST PUSH2 0x1F0 PUSH1 0x4 DUP1 CALLDATASIZE SUB DUP2 ADD SWAP1 PUSH2 0x1EB SWAP2 SWAP1 PUSH2 0x1DC5 JUMP JUMPDEST PUSH2 0x564 JUMP JUMPDEST STOP JUMPDEST PUSH2 0x20C PUSH1 0x4 DUP1 CALLDATASIZE SUB DUP2 ADD SWAP1 PUSH2 0x207 SWAP2 SWAP1 PUSH2 0x1D60 JUMP JUMPDEST PUSH2 0x5FD JUMP JUMPDEST STOP JUMPDEST PUSH2 0x228 PUSH1 0x4 DUP1 CALLDATASIZE SUB DUP2 ADD SWAP1 PUSH2 0x223 SWAP2 SWAP1 PUSH2 0x1DC5 JUMP JUMPDEST PUSH2 0x626 JUMP JUMPDEST STOP JUMPDEST PUSH2 0x244 PUSH1 0x4 DUP1 CALLDATASIZE SUB DUP2 ADD SWAP1 PUSH2 0x23F SWAP2 SWAP1 PUSH2 0x1D60 JUMP JUMPDEST PUSH2 0x6F9 JUMP JUMPDEST STOP JUMPDEST PUSH2 0x24E PUSH2 0x77C JUMP JUMPDEST PUSH1 0x40 MLOAD PUSH2 0x25B SWAP2 SWAP1 PUSH2 0x2259 JUMP JUMPDEST PUSH1 0x40 MLOAD DUP1 SWAP2 SUB SWAP1 RETURN JUMPDEST PUSH2 0x27E PUSH1 0x4 DUP1 CALLDATASIZE SUB DUP2 ADD SWAP1 PUSH2 0x279 SWAP2 SWAP1 PUSH2 0x1DC5 JUMP JUMPDEST PUSH2 0x78E JUMP JUMPDEST PUSH1 0x40 MLOAD PUSH2 0x28B SWAP2 SWAP1 PUSH2 0x229D JUMP JUMPDEST PUSH1 0x40 MLOAD DUP1 SWAP2 SUB SWAP1 RETURN JUMPDEST PUSH2 0x29C PUSH2 0x7A2 JUMP JUMPDEST PUSH1 0x40 MLOAD PUSH2 0x2A9 SWAP2 SWAP1 PUSH2 0x22B8 JUMP JUMPDEST PUSH1 0x40 MLOAD DUP1 SWAP2 SUB SWAP1 RETURN JUMPDEST PUSH2 0x2CC PUSH1 0x4 DUP1 CALLDATASIZE SUB DUP2 ADD SWAP1 PUSH2 0x2C7 SWAP2 SWAP1 PUSH2 0x1DC5 JUMP JUMPDEST PUSH2 0x7C6 JUMP JUMPDEST PUSH1 0x40 MLOAD PUSH2 0x2D9 SWAP2 SWAP1 PUSH2 0x227B JUMP JUMPDEST PUSH1 0x40 MLOAD DUP1 SWAP2 SUB SWAP1 RETURN JUMPDEST PUSH2 0x2FC PUSH1 0x4 DUP1 CALLDATASIZE SUB DUP2 ADD SWAP1 PUSH2 0x2F7 SWAP2 SWAP1 PUSH2 0x1E06 JUMP JUMPDEST PUSH2 0x7DA JUMP JUMPDEST STOP JUMPDEST PUSH2 0x318 PUSH1 0x4 DUP1 CALLDATASIZE SUB DUP2 ADD SWAP1 PUSH2 0x313 SWAP2 SWAP1 PUSH2 0x1D60 JUMP JUMPDEST PUSH2 0x871 JUMP JUMPDEST PUSH1 0x40 MLOAD PUSH2 0x325 SWAP2 SWAP1 PUSH2 0x229D JUMP JUMPDEST PUSH1 0x40 MLOAD DUP1 SWAP2 SUB SWAP1 RETURN JUMPDEST PUSH2 0x336 PUSH2 0x8DB JUMP JUMPDEST PUSH1 0x40 MLOAD PUSH2 0x343 SWAP2 SWAP1 PUSH2 0x22B8 JUMP JUMPDEST PUSH1 0x40 MLOAD DUP1 SWAP2 SUB SWAP1 RETURN JUMPDEST PUSH2 0x354 PUSH2 0x8E2 JUMP JUMPDEST PUSH1 0x40 MLOAD PUSH2 0x361 SWAP2 SWAP1 PUSH2 0x22B8 JUMP JUMPDEST PUSH1 0x40 MLOAD DUP1 SWAP2 SUB SWAP1 RETURN JUMPDEST PUSH2 0x384 PUSH1 0x4 DUP1 CALLDATASIZE SUB DUP2 ADD SWAP1 PUSH2 0x37F SWAP2 SWAP1 PUSH2 0x1E6B JUMP JUMPDEST PUSH2 0x906 JUMP JUMPDEST PUSH1 0x40 MLOAD PUSH2 0x391 SWAP2 SWAP1 PUSH2 0x229D JUMP JUMPDEST PUSH1 0x40 MLOAD DUP1 SWAP2 SUB SWAP1 RETURN JUMPDEST PUSH2 0x3B4 PUSH1 0x4 DUP1 CALLDATASIZE SUB DUP2 ADD SWAP1 PUSH2 0x3AF SWAP2 SWAP1 PUSH2 0x1E2F JUMP JUMPDEST PUSH2 0x94D JUMP JUMPDEST PUSH1 0x40 MLOAD PUSH2 0x3C1 SWAP2 SWAP1 PUSH2 0x2259 JUMP JUMPDEST PUSH1 0x40 MLOAD DUP1 SWAP2 SUB SWAP1 RETURN JUMPDEST PUSH2 0x3E4 PUSH1 0x4 DUP1 CALLDATASIZE SUB DUP2 ADD SWAP1 PUSH2 0x3DF SWAP2 SWAP1 PUSH2 0x1D60 JUMP JUMPDEST PUSH2 0x97D JUMP JUMPDEST STOP JUMPDEST PUSH2 0x3EE PUSH2 0x9A6 JUMP JUMPDEST STOP JUMPDEST PUSH2 0x40A PUSH1 0x4 DUP1 CALLDATASIZE SUB DUP2 ADD SWAP1 PUSH2 0x405 SWAP2 SWAP1 PUSH2 0x1E6B JUMP JUMPDEST PUSH2 0x9D9 JUMP JUMPDEST STOP JUMPDEST PUSH1 0x0 PUSH32 0x7965DB0B00000000000000000000000000000000000000000000000000000000 PUSH28 0xFFFFFFFFFFFFFFFFFFFFFFFFFFFFFFFFFFFFFFFFFFFFFFFFFFFFFFFF NOT AND DUP3 PUSH28 0xFFFFFFFFFFFFFFFFFFFFFFFFFFFFFFFFFFFFFFFFFFFFFFFFFFFFFFFF NOT AND EQ DUP1 PUSH2 0x47F JUMPI POP PUSH2 0x47E DUP3 PUSH2 0xAAC JUMP JUMPDEST JUMPDEST SWAP1 POP SWAP2 SWAP1 POP JUMP JUMPDEST PUSH2 0x4B7 PUSH32 0xA70A2D8710FED9F014C8C2AF50C7C2F6B25748AE4CDED822E03B7BEED44CF3A8 PUSH2 0x4B2 PUSH2 0xB16 JUMP JUMPDEST PUSH2 0x871 JUMP JUMPDEST DUP1 PUSH2 0x4D2 JUMPI POP PUSH2 0x4D1 PUSH1 0x0 DUP1 SHL PUSH2 0x4CC PUSH2 0xB16 JUMP JUMPDEST PUSH2 0x871 JUMP JUMPDEST JUMPDEST PUSH2 0x511 JUMPI PUSH1 0x40 MLOAD PUSH32 0x8C379A000000000000000000000000000000000000000000000000000000000 DUP2 MSTORE PUSH1 0x4 ADD PUSH2 0x508 SWAP1 PUSH2 0x2315 JUMP JUMPDEST PUSH1 0x40 MLOAD DUP1 SWAP2 SUB SWAP1 REVERT JUMPDEST PUSH2 0x51D DUP3 DUP3 PUSH1 0x0 PUSH2 0xB1E JUMP JUMPDEST POP POP JUMP JUMPDEST PUSH1 0x0 DUP1 PUSH1 0x0 DUP4 DUP2 MSTORE PUSH1 0x20 ADD SWAP1 DUP2 MSTORE PUSH1 0x20 ADD PUSH1 0x0 KECCAK256 PUSH1 0x1 ADD SLOAD SWAP1 POP SWAP2 SWAP1 POP JUMP JUMPDEST PUSH32 0xAD8E13ADE6B5588E1A6049D70C1678B839105F007C5F6FB969AD8B1456160EAC DUP2 JUMP JUMPDEST PUSH2 0x595 PUSH32 0xA70A2D8710FED9F014C8C2AF50C7C2F6B25748AE4CDED822E03B7BEED44CF3A8 PUSH2 0x590 PUSH2 0xB16 JUMP JUMPDEST PUSH2 0x871 JUMP JUMPDEST DUP1 PUSH2 0x5B0 JUMPI POP PUSH2 0x5AF PUSH1 0x0 DUP1 SHL PUSH2 0x5AA PUSH2 0xB16 JUMP JUMPDEST PUSH2 0x871 JUMP JUMPDEST JUMPDEST PUSH2 0x5EF JUMPI PUSH1 0x40 MLOAD PUSH32 0x8C379A000000000000000000000000000000000000000000000000000000000 DUP2 MSTORE PUSH1 0x4 ADD PUSH2 0x5E6 SWAP1 PUSH2 0x2315 JUMP JUMPDEST PUSH1 0x40 MLOAD DUP1 SWAP2 SUB SWAP1 REVERT JUMPDEST PUSH2 0x5FA DUP2 PUSH1 0x1 PUSH2 0xB4D JUMP JUMPDEST POP JUMP JUMPDEST PUSH2 0x606 DUP3 PUSH2 0x521 JUMP JUMPDEST PUSH2 0x617 DUP2 PUSH2 0x612 PUSH2 0xB16 JUMP JUMPDEST PUSH2 0xC20 JUMP JUMPDEST PUSH2 0x621 DUP4 DUP4 PUSH2 0xCBD JUMP JUMPDEST POP POP POP JUMP JUMPDEST PUSH2 0x657 PUSH32 0xA70A2D8710FED9F014C8C2AF50C7C2F6B25748AE4CDED822E03B7BEED44CF3A8 PUSH2 0x652 PUSH2 0xB16 JUMP JUMPDEST PUSH2 0x871 JUMP JUMPDEST DUP1 PUSH2 0x68F JUMPI POP PUSH2 0x68E PUSH32 0x59D7EE6B6A4D6CC1ADE519E325968BD1178816FFD1A273FAC3229469856403D2 PUSH2 0x689 PUSH2 0xB16 JUMP JUMPDEST PUSH2 0x871 JUMP JUMPDEST JUMPDEST DUP1 PUSH2 0x6AA JUMPI POP PUSH2 0x6A9 PUSH1 0x0 DUP1 SHL PUSH2 0x6A4 PUSH2 0xB16 JUMP JUMPDEST PUSH2 0x871 JUMP JUMPDEST JUMPDEST PUSH2 0x6E9 JUMPI PUSH1 0x40 MLOAD PUSH32 0x8C379A000000000000000000000000000000000000000000000000000000000 DUP2 MSTORE PUSH1 0x4 ADD PUSH2 0x6E0 SWAP1 PUSH2 0x2315 JUMP JUMPDEST PUSH1 0x40 MLOAD DUP1 SWAP2 SUB SWAP1 REVERT JUMPDEST PUSH2 0x6F6 PUSH1 0x0 DUP3 PUSH1 0x1 PUSH2 0xB1E JUMP JUMPDEST POP JUMP JUMPDEST PUSH2 0x701 PUSH2 0xB16 JUMP JUMPDEST PUSH20 0xFFFFFFFFFFFFFFFFFFFFFFFFFFFFFFFFFFFFFFFF AND DUP2 PUSH20 0xFFFFFFFFFFFFFFFFFFFFFFFFFFFFFFFFFFFFFFFF AND EQ PUSH2 0x76E JUMPI PUSH1 0x40 MLOAD PUSH32 0x8C379A000000000000000000000000000000000000000000000000000000000 DUP2 MSTORE PUSH1 0x4 ADD PUSH2 0x765 SWAP1 PUSH2 0x23B5 JUMP JUMPDEST PUSH1 0x40 MLOAD DUP1 SWAP2 SUB SWAP1 REVERT JUMPDEST PUSH2 0x778 DUP3 DUP3 PUSH2 0xD9D JUMP JUMPDEST POP POP JUMP JUMPDEST PUSH1 0x60 PUSH2 0x789 PUSH1 0x0 DUP1 PUSH2 0xE7E JUMP JUMPDEST SWAP1 POP SWAP1 JUMP JUMPDEST PUSH1 0x0 PUSH2 0x79B PUSH1 0x0 DUP4 PUSH2 0xFAE JUMP JUMPDEST SWAP1 POP SWAP2 SWAP1 POP JUMP JUMPDEST PUSH32 0xA70A2D8710FED9F014C8C2AF50C7C2F6B25748AE4CDED822E03B7BEED44CF3A8 DUP2 JUMP JUMPDEST PUSH1 0x60 PUSH2 0x7D3 DUP3 PUSH1 0x1 PUSH2 0xFC8 JUMP JUMPDEST SWAP1 POP SWAP2 SWAP1 POP JUMP JUMPDEST PUSH2 0x80B PUSH32 0xA70A2D8710FED9F014C8C2AF50C7C2F6B25748AE4CDED822E03B7BEED44CF3A8 PUSH2 0x806 PUSH2 0xB16 JUMP JUMPDEST PUSH2 0x871 JUMP JUMPDEST DUP1 PUSH2 0x826 JUMPI POP PUSH2 0x825 PUSH1 0x0 DUP1 SHL PUSH2 0x820 PUSH2 0xB16 JUMP JUMPDEST PUSH2 0x871 JUMP JUMPDEST JUMPDEST PUSH2 0x865 JUMPI PUSH1 0x40 MLOAD PUSH32 0x8C379A000000000000000000000000000000000000000000000000000000000 DUP2 MSTORE PUSH1 0x4 ADD PUSH2 0x85C SWAP1 PUSH2 0x2315 JUMP JUMPDEST PUSH1 0x40 MLOAD DUP1 SWAP2 SUB SWAP1 REVERT JUMPDEST PUSH2 0x86E DUP2 PUSH2 0x1174 JUMP JUMPDEST POP JUMP JUMPDEST PUSH1 0x0 DUP1 PUSH1 0x0 DUP5 DUP2 MSTORE PUSH1 0x20 ADD SWAP1 DUP2 MSTORE PUSH1 0x20 ADD PUSH1 0x0 KECCAK256 PUSH1 0x0 ADD PUSH1 0x0 DUP4 PUSH20 0xFFFFFFFFFFFFFFFFFFFFFFFFFFFFFFFFFFFFFFFF AND PUSH20 0xFFFFFFFFFFFFFFFFFFFFFFFFFFFFFFFFFFFFFFFF AND DUP2 MSTORE PUSH1 0x20 ADD SWAP1 DUP2 MSTORE PUSH1 0x20 ADD PUSH1 0x0 KECCAK256 PUSH1 0x0 SWAP1 SLOAD SWAP1 PUSH2 0x100 EXP SWAP1 DIV PUSH1 0xFF AND SWAP1 POP SWAP3 SWAP2 POP POP JUMP JUMPDEST PUSH1 0x0 DUP1 SHL DUP2 JUMP JUMPDEST PUSH32 0x59D7EE6B6A4D6CC1ADE519E325968BD1178816FFD1A273FAC3229469856403D2 DUP2 JUMP JUMPDEST PUSH1 0x0 PUSH2 0x912 DUP4 DUP4 PUSH2 0x1218 JUMP JUMPDEST PUSH2 0x928 JUMPI PUSH2 0x921 PUSH1 0x0 DUP4 PUSH2 0xFAE JUMP JUMPDEST SWAP1 POP PUSH2 0x947 JUMP JUMPDEST PUSH2 0x932 DUP4 DUP4 PUSH2 0xFAE JUMP JUMPDEST DUP1 PUSH2 0x944 JUMPI POP PUSH2 0x943 PUSH1 0x0 DUP4 PUSH2 0xFAE JUMP JUMPDEST JUMPDEST SWAP1 POP JUMPDEST SWAP3 SWAP2 POP POP JUMP JUMPDEST PUSH1 0x60 PUSH1 0x0 DUP4 EQ ISZERO PUSH2 0x96A JUMPI PUSH2 0x963 PUSH1 0x0 DUP1 PUSH2 0xE7E JUMP JUMPDEST SWAP1 POP PUSH2 0x977 JUMP JUMPDEST PUSH2 0x974 DUP4 DUP4 PUSH2 0xE7E JUMP JUMPDEST SWAP1 POP JUMPDEST SWAP3 SWAP2 POP POP JUMP JUMPDEST PUSH2 0x986 DUP3 PUSH2 0x521 JUMP JUMPDEST PUSH2 0x997 DUP2 PUSH2 0x992 PUSH2 0xB16 JUMP JUMPDEST PUSH2 0xC20 JUMP JUMPDEST PUSH2 0x9A1 DUP4 DUP4 PUSH2 0xD9D JUMP JUMPDEST POP POP POP JUMP JUMPDEST PUSH1 0x0 DUP1 SHL PUSH2 0x9BB DUP2 PUSH2 0x9B6 PUSH2 0xB16 JUMP JUMPDEST PUSH2 0xC20 JUMP JUMPDEST PUSH1 0x0 PUSH1 0x1 PUSH1 0x0 PUSH2 0x100 EXP DUP2 SLOAD DUP2 PUSH1 0xFF MUL NOT AND SWAP1 DUP4 ISZERO ISZERO MUL OR SWAP1 SSTORE POP POP JUMP JUMPDEST PUSH2 0xA0A PUSH32 0xA70A2D8710FED9F014C8C2AF50C7C2F6B25748AE4CDED822E03B7BEED44CF3A8 PUSH2 0xA05 PUSH2 0xB16 JUMP JUMPDEST PUSH2 0x871 JUMP JUMPDEST DUP1 PUSH2 0xA42 JUMPI POP PUSH2 0xA41 PUSH32 0x59D7EE6B6A4D6CC1ADE519E325968BD1178816FFD1A273FAC3229469856403D2 PUSH2 0xA3C PUSH2 0xB16 JUMP JUMPDEST PUSH2 0x871 JUMP JUMPDEST JUMPDEST DUP1 PUSH2 0xA5D JUMPI POP PUSH2 0xA5C PUSH1 0x0 DUP1 SHL PUSH2 0xA57 PUSH2 0xB16 JUMP JUMPDEST PUSH2 0x871 JUMP JUMPDEST JUMPDEST PUSH2 0xA9C JUMPI PUSH1 0x40 MLOAD PUSH32 0x8C379A000000000000000000000000000000000000000000000000000000000 DUP2 MSTORE PUSH1 0x4 ADD PUSH2 0xA93 SWAP1 PUSH2 0x2315 JUMP JUMPDEST PUSH1 0x40 MLOAD DUP1 SWAP2 SUB SWAP1 REVERT JUMPDEST PUSH2 0xAA8 DUP3 DUP3 PUSH1 0x1 PUSH2 0xB1E JUMP JUMPDEST POP POP JUMP JUMPDEST PUSH1 0x0 PUSH32 0x1FFC9A700000000000000000000000000000000000000000000000000000000 PUSH28 0xFFFFFFFFFFFFFFFFFFFFFFFFFFFFFFFFFFFFFFFFFFFFFFFFFFFFFFFF NOT AND DUP3 PUSH28 0xFFFFFFFFFFFFFFFFFFFFFFFFFFFFFFFFFFFFFFFFFFFFFFFFFFFFFFFF NOT AND EQ SWAP1 POP SWAP2 SWAP1 POP JUMP JUMPDEST PUSH1 0x0 CALLER SWAP1 POP SWAP1 JUMP JUMPDEST PUSH2 0xB28 DUP4 DUP4 PUSH2 0x1218 JUMP JUMPDEST PUSH2 0xB3C JUMPI PUSH2 0xB37 DUP4 DUP4 DUP4 PUSH2 0x126E JUMP JUMPDEST PUSH2 0xB48 JUMP JUMPDEST PUSH2 0xB47 DUP4 DUP4 DUP4 PUSH2 0x1394 JUMP JUMPDEST JUMPDEST POP POP POP JUMP JUMPDEST PUSH1 0x0 JUMPDEST PUSH1 0x2 DUP1 ADD DUP4 PUSH1 0x40 MLOAD PUSH2 0xB62 SWAP2 SWAP1 PUSH2 0x21E0 JUMP JUMPDEST SWAP1 DUP2 MSTORE PUSH1 0x20 ADD PUSH1 0x40 MLOAD DUP1 SWAP2 SUB SWAP1 KECCAK256 DUP1 SLOAD SWAP1 POP DUP2 LT ISZERO PUSH2 0xC1B JUMPI PUSH1 0x0 PUSH1 0x2 DUP1 ADD DUP5 PUSH1 0x40 MLOAD PUSH2 0xB8F SWAP2 SWAP1 PUSH2 0x21E0 JUMP JUMPDEST SWAP1 DUP2 MSTORE PUSH1 0x20 ADD PUSH1 0x40 MLOAD DUP1 SWAP2 SUB SWAP1 KECCAK256 DUP3 DUP2 SLOAD DUP2 LT PUSH2 0xBD5 JUMPI PUSH32 0x4E487B7100000000000000000000000000000000000000000000000000000000 PUSH1 0x0 MSTORE PUSH1 0x32 PUSH1 0x4 MSTORE PUSH1 0x24 PUSH1 0x0 REVERT JUMPDEST SWAP1 PUSH1 0x0 MSTORE PUSH1 0x20 PUSH1 0x0 KECCAK256 ADD SLOAD SWAP1 POP DUP3 DUP1 PUSH2 0xBF6 JUMPI POP PUSH2 0xBF4 DUP2 PUSH1 0x1 PUSH2 0x13E7 JUMP JUMPDEST ISZERO JUMPDEST ISZERO PUSH2 0xC07 JUMPI PUSH2 0xC06 DUP2 PUSH1 0x0 PUSH2 0x1401 JUMP JUMPDEST JUMPDEST POP DUP1 DUP1 PUSH2 0xC13 SWAP1 PUSH2 0x2706 JUMP JUMPDEST SWAP2 POP POP PUSH2 0xB50 JUMP JUMPDEST POP POP POP JUMP JUMPDEST PUSH2 0xC2A DUP3 DUP3 PUSH2 0x871 JUMP JUMPDEST PUSH2 0xCB9 JUMPI PUSH2 0xC4F DUP2 PUSH20 0xFFFFFFFFFFFFFFFFFFFFFFFFFFFFFFFFFFFFFFFF AND PUSH1 0x14 PUSH2 0x14AF JUMP JUMPDEST PUSH2 0xC5D DUP4 PUSH1 0x0 SHR PUSH1 0x20 PUSH2 0x14AF JUMP JUMPDEST PUSH1 0x40 MLOAD PUSH1 0x20 ADD PUSH2 0xC6E SWAP3 SWAP2 SWAP1 PUSH2 0x21F7 JUMP JUMPDEST PUSH1 0x40 MLOAD PUSH1 0x20 DUP2 DUP4 SUB SUB DUP2 MSTORE SWAP1 PUSH1 0x40 MSTORE PUSH1 0x40 MLOAD PUSH32 0x8C379A000000000000000000000000000000000000000000000000000000000 DUP2 MSTORE PUSH1 0x4 ADD PUSH2 0xCB0 SWAP2 SWAP1 PUSH2 0x22D3 JUMP JUMPDEST PUSH1 0x40 MLOAD DUP1 SWAP2 SUB SWAP1 REVERT JUMPDEST POP POP JUMP JUMPDEST PUSH2 0xCC7 DUP3 DUP3 PUSH2 0x871 JUMP JUMPDEST PUSH2 0xD99 JUMPI PUSH1 0x1 PUSH1 0x0 DUP1 DUP5 DUP2 MSTORE PUSH1 0x20 ADD SWAP1 DUP2 MSTORE PUSH1 0x20 ADD PUSH1 0x0 KECCAK256 PUSH1 0x0 ADD PUSH1 0x0 DUP4 PUSH20 0xFFFFFFFFFFFFFFFFFFFFFFFFFFFFFFFFFFFFFFFF AND PUSH20 0xFFFFFFFFFFFFFFFFFFFFFFFFFFFFFFFFFFFFFFFF AND DUP2 MSTORE PUSH1 0x20 ADD SWAP1 DUP2 MSTORE PUSH1 0x20 ADD PUSH1 0x0 KECCAK256 PUSH1 0x0 PUSH2 0x100 EXP DUP2 SLOAD DUP2 PUSH1 0xFF MUL NOT AND SWAP1 DUP4 ISZERO ISZERO MUL OR SWAP1 SSTORE POP PUSH2 0xD3E PUSH2 0xB16 JUMP JUMPDEST PUSH20 0xFFFFFFFFFFFFFFFFFFFFFFFFFFFFFFFFFFFFFFFF AND DUP2 PUSH20 0xFFFFFFFFFFFFFFFFFFFFFFFFFFFFFFFFFFFFFFFF AND DUP4 PUSH32 0x2F8788117E7EFF1D82E926EC794901D17C78024A50270940304540A733656F0D PUSH1 0x40 MLOAD PUSH1 0x40 MLOAD DUP1 SWAP2 SUB SWAP1 LOG4 JUMPDEST POP POP JUMP JUMPDEST PUSH2 0xDA7 DUP3 DUP3 PUSH2 0x871 JUMP JUMPDEST ISZERO PUSH2 0xE7A JUMPI PUSH1 0x0 DUP1 PUSH1 0x0 DUP5 DUP2 MSTORE PUSH1 0x20 ADD SWAP1 DUP2 MSTORE PUSH1 0x20 ADD PUSH1 0x0 KECCAK256 PUSH1 0x0 ADD PUSH1 0x0 DUP4 PUSH20 0xFFFFFFFFFFFFFFFFFFFFFFFFFFFFFFFFFFFFFFFF AND PUSH20 0xFFFFFFFFFFFFFFFFFFFFFFFFFFFFFFFFFFFFFFFF AND DUP2 MSTORE PUSH1 0x20 ADD SWAP1 DUP2 MSTORE PUSH1 0x20 ADD PUSH1 0x0 KECCAK256 PUSH1 0x0 PUSH2 0x100 EXP DUP2 SLOAD DUP2 PUSH1 0xFF MUL NOT AND SWAP1 DUP4 ISZERO ISZERO MUL OR SWAP1 SSTORE POP PUSH2 0xE1F PUSH2 0xB16 JUMP JUMPDEST PUSH20 0xFFFFFFFFFFFFFFFFFFFFFFFFFFFFFFFFFFFFFFFF AND DUP2 PUSH20 0xFFFFFFFFFFFFFFFFFFFFFFFFFFFFFFFFFFFFFFFF AND DUP4 PUSH32 0xF6391F5C32D9C69D2A47EA670B442974B53935D1EDC7FD64EB21E047A839171B PUSH1 0x40 MLOAD PUSH1 0x40 MLOAD DUP1 SWAP2 SUB SWAP1 LOG4 JUMPDEST POP POP JUMP JUMPDEST PUSH1 0x60 DUP1 DUP3 ISZERO PUSH2 0xE95 JUMPI PUSH2 0xE92 PUSH1 0x0 DUP1 PUSH2 0xE7E JUMP JUMPDEST SWAP1 POP JUMPDEST PUSH1 0x0 DUP2 MLOAD SWAP1 POP PUSH1 0x0 JUMPDEST PUSH1 0x2 PUSH1 0x3 ADD PUSH1 0x0 DUP8 DUP2 MSTORE PUSH1 0x20 ADD SWAP1 DUP2 MSTORE PUSH1 0x20 ADD PUSH1 0x0 KECCAK256 DUP1 SLOAD SWAP1 POP DUP2 LT ISZERO PUSH2 0xFA2 JUMPI PUSH1 0x0 PUSH1 0x2 PUSH1 0x3 ADD PUSH1 0x0 DUP9 DUP2 MSTORE PUSH1 0x20 ADD SWAP1 DUP2 MSTORE PUSH1 0x20 ADD PUSH1 0x0 KECCAK256 DUP3 DUP2 SLOAD DUP2 LT PUSH2 0xF0F JUMPI PUSH32 0x4E487B7100000000000000000000000000000000000000000000000000000000 PUSH1 0x0 MSTORE PUSH1 0x32 PUSH1 0x4 MSTORE PUSH1 0x24 PUSH1 0x0 REVERT JUMPDEST SWAP1 PUSH1 0x0 MSTORE PUSH1 0x20 PUSH1 0x0 KECCAK256 ADD SLOAD SWAP1 POP PUSH1 0x0 PUSH2 0xF29 DUP3 PUSH1 0x0 PUSH2 0x17A9 JUMP JUMPDEST SWAP1 POP DUP1 PUSH1 0x60 ADD MLOAD ISZERO PUSH2 0xF8D JUMPI DUP1 PUSH1 0x40 ADD MLOAD DUP6 DUP6 DUP2 MLOAD DUP2 LT PUSH2 0xF73 JUMPI PUSH32 0x4E487B7100000000000000000000000000000000000000000000000000000000 PUSH1 0x0 MSTORE PUSH1 0x32 PUSH1 0x4 MSTORE PUSH1 0x24 PUSH1 0x0 REVERT JUMPDEST PUSH1 0x20 MUL PUSH1 0x20 ADD ADD DUP2 SWAP1 MSTORE POP DUP4 DUP1 PUSH2 0xF89 SWAP1 PUSH2 0x2706 JUMP JUMPDEST SWAP5 POP POP JUMPDEST POP POP DUP1 DUP1 PUSH2 0xF9A SWAP1 PUSH2 0x2706 JUMP JUMPDEST SWAP2 POP POP PUSH2 0xE9E JUMP JUMPDEST POP DUP2 SWAP3 POP POP POP SWAP3 SWAP2 POP POP JUMP JUMPDEST PUSH1 0x0 PUSH2 0xFBC DUP4 DUP4 PUSH1 0x0 PUSH2 0x191B JUMP JUMPDEST PUSH1 0x60 ADD MLOAD SWAP1 POP SWAP3 SWAP2 POP POP JUMP JUMPDEST PUSH1 0x60 DUP1 DUP3 DUP1 ISZERO PUSH2 0xFDF JUMPI POP PUSH2 0xFDE PUSH1 0x0 DUP6 PUSH2 0x1218 JUMP JUMPDEST JUMPDEST DUP1 ISZERO PUSH2 0xFF8 JUMPI POP PUSH2 0xFF3 PUSH1 0x0 DUP6 PUSH1 0x1 PUSH2 0x191B JUMP JUMPDEST PUSH1 0x60 ADD MLOAD JUMPDEST ISZERO PUSH2 0x1046 JUMPI PUSH1 0x0 DUP2 PUSH1 0x0 DUP2 MLOAD DUP2 LT PUSH2 0x1039 JUMPI PUSH32 0x4E487B7100000000000000000000000000000000000000000000000000000000 PUSH1 0x0 MSTORE PUSH1 0x32 PUSH1 0x4 MSTORE PUSH1 0x24 PUSH1 0x0 REVERT JUMPDEST PUSH1 0x20 MUL PUSH1 0x20 ADD ADD DUP2 DUP2 MSTORE POP POP JUMPDEST PUSH1 0x0 DUP2 MLOAD SWAP1 POP PUSH1 0x0 JUMPDEST PUSH1 0x2 DUP1 ADD DUP7 PUSH1 0x40 MLOAD PUSH2 0x1061 SWAP2 SWAP1 PUSH2 0x21E0 JUMP JUMPDEST SWAP1 DUP2 MSTORE PUSH1 0x20 ADD PUSH1 0x40 MLOAD DUP1 SWAP2 SUB SWAP1 KECCAK256 DUP1 SLOAD SWAP1 POP DUP2 LT ISZERO PUSH2 0x1168 JUMPI PUSH1 0x0 PUSH1 0x2 DUP1 ADD DUP8 PUSH1 0x40 MLOAD PUSH2 0x108E SWAP2 SWAP1 PUSH2 0x21E0 JUMP JUMPDEST SWAP1 DUP2 MSTORE PUSH1 0x20 ADD PUSH1 0x40 MLOAD DUP1 SWAP2 SUB SWAP1 KECCAK256 DUP3 DUP2 SLOAD DUP2 LT PUSH2 0x10D4 JUMPI PUSH32 0x4E487B7100000000000000000000000000000000000000000000000000000000 PUSH1 0x0 MSTORE PUSH1 0x32 PUSH1 0x4 MSTORE PUSH1 0x24 PUSH1 0x0 REVERT JUMPDEST SWAP1 PUSH1 0x0 MSTORE PUSH1 0x20 PUSH1 0x0 KECCAK256 ADD SLOAD SWAP1 POP PUSH1 0x0 PUSH2 0x10EE DUP3 PUSH1 0x0 PUSH2 0x17A9 JUMP JUMPDEST SWAP1 POP DUP1 PUSH1 0x60 ADD MLOAD ISZERO PUSH2 0x1153 JUMPI DUP1 PUSH1 0x20 ADD MLOAD DUP6 DUP6 DUP2 MLOAD DUP2 LT PUSH2 0x1138 JUMPI PUSH32 0x4E487B7100000000000000000000000000000000000000000000000000000000 PUSH1 0x0 MSTORE PUSH1 0x32 PUSH1 0x4 MSTORE PUSH1 0x24 PUSH1 0x0 REVERT JUMPDEST PUSH1 0x20 MUL PUSH1 0x20 ADD ADD DUP2 DUP2 MSTORE POP POP DUP4 DUP1 PUSH2 0x114F SWAP1 PUSH2 0x2706 JUMP JUMPDEST SWAP5 POP POP JUMPDEST POP POP DUP1 DUP1 PUSH2 0x1160 SWAP1 PUSH2 0x2706 JUMP JUMPDEST SWAP2 POP POP PUSH2 0x104F JUMP JUMPDEST POP DUP2 SWAP3 POP POP POP SWAP3 SWAP2 POP POP JUMP JUMPDEST PUSH1 0x0 JUMPDEST PUSH1 0x2 PUSH1 0x3 ADD PUSH1 0x0 DUP4 DUP2 MSTORE PUSH1 0x20 ADD SWAP1 DUP2 MSTORE PUSH1 0x20 ADD PUSH1 0x0 KECCAK256 DUP1 SLOAD SWAP1 POP DUP2 LT ISZERO PUSH2 0x1214 JUMPI PUSH1 0x0 PUSH1 0x2 PUSH1 0x3 ADD PUSH1 0x0 DUP5 DUP2 MSTORE PUSH1 0x20 ADD SWAP1 DUP2 MSTORE PUSH1 0x20 ADD PUSH1 0x0 KECCAK256 DUP3 DUP2 SLOAD DUP2 LT PUSH2 0x11E8 JUMPI PUSH32 0x4E487B7100000000000000000000000000000000000000000000000000000000 PUSH1 0x0 MSTORE PUSH1 0x32 PUSH1 0x4 MSTORE PUSH1 0x24 PUSH1 0x0 REVERT JUMPDEST SWAP1 PUSH1 0x0 MSTORE PUSH1 0x20 PUSH1 0x0 KECCAK256 ADD SLOAD SWAP1 POP PUSH2 0x1200 DUP2 PUSH1 0x0 PUSH2 0x1401 JUMP JUMPDEST POP DUP1 DUP1 PUSH2 0x120C SWAP1 PUSH2 0x2706 JUMP JUMPDEST SWAP2 POP POP PUSH2 0x1177 JUMP JUMPDEST POP POP JUMP JUMPDEST PUSH1 0x0 DUP1 PUSH1 0x2 PUSH1 0x1 ADD PUSH1 0x0 DUP6 DUP6 PUSH1 0x40 MLOAD PUSH1 0x20 ADD PUSH2 0x1235 SWAP3 SWAP2 SWAP1 PUSH2 0x2231 JUMP JUMPDEST PUSH1 0x40 MLOAD PUSH1 0x20 DUP2 DUP4 SUB SUB DUP2 MSTORE SWAP1 PUSH1 0x40 MSTORE DUP1 MLOAD SWAP1 PUSH1 0x20 ADD KECCAK256 DUP2 MSTORE PUSH1 0x20 ADD SWAP1 DUP2 MSTORE PUSH1 0x20 ADD PUSH1 0x0 KECCAK256 SLOAD SWAP1 POP PUSH2 0x1265 DUP2 PUSH2 0x197A JUMP JUMPDEST SWAP2 POP POP SWAP3 SWAP2 POP POP JUMP JUMPDEST PUSH2 0x1278 DUP4 DUP4 PUSH2 0x1218 JUMP JUMPDEST ISZERO PUSH2 0x12B8 JUMPI PUSH1 0x40 MLOAD PUSH32 0x8C379A000000000000000000000000000000000000000000000000000000000 DUP2 MSTORE PUSH1 0x4 ADD PUSH2 0x12AF SWAP1 PUSH2 0x2395 JUMP JUMPDEST PUSH1 0x40 MLOAD DUP1 SWAP2 SUB SWAP1 REVERT JUMPDEST PUSH1 0x0 PUSH2 0x12C5 DUP5 DUP5 DUP5 PUSH2 0x1987 JUMP JUMPDEST SWAP1 POP DUP1 PUSH1 0x2 PUSH1 0x1 ADD PUSH1 0x0 DUP7 DUP7 PUSH1 0x40 MLOAD PUSH1 0x20 ADD PUSH2 0x12E2 SWAP3 SWAP2 SWAP1 PUSH2 0x2231 JUMP JUMPDEST PUSH1 0x40 MLOAD PUSH1 0x20 DUP2 DUP4 SUB SUB DUP2 MSTORE SWAP1 PUSH1 0x40 MSTORE DUP1 MLOAD SWAP1 PUSH1 0x20 ADD KECCAK256 DUP2 MSTORE PUSH1 0x20 ADD SWAP1 DUP2 MSTORE PUSH1 0x20 ADD PUSH1 0x0 KECCAK256 DUP2 SWAP1 SSTORE POP PUSH1 0x2 PUSH1 0x3 ADD PUSH1 0x0 DUP6 DUP2 MSTORE PUSH1 0x20 ADD SWAP1 DUP2 MSTORE PUSH1 0x20 ADD PUSH1 0x0 KECCAK256 DUP2 SWAP1 DUP1 PUSH1 0x1 DUP2 SLOAD ADD DUP1 DUP3 SSTORE DUP1 SWAP2 POP POP PUSH1 0x1 SWAP1 SUB SWAP1 PUSH1 0x0 MSTORE PUSH1 0x20 PUSH1 0x0 KECCAK256 ADD PUSH1 0x0 SWAP1 SWAP2 SWAP1 SWAP2 SWAP1 SWAP2 POP SSTORE PUSH1 0x2 DUP1 ADD DUP4 PUSH1 0x40 MLOAD PUSH2 0x1359 SWAP2 SWAP1 PUSH2 0x21E0 JUMP JUMPDEST SWAP1 DUP2 MSTORE PUSH1 0x20 ADD PUSH1 0x40 MLOAD DUP1 SWAP2 SUB SWAP1 KECCAK256 DUP2 SWAP1 DUP1 PUSH1 0x1 DUP2 SLOAD ADD DUP1 DUP3 SSTORE DUP1 SWAP2 POP POP PUSH1 0x1 SWAP1 SUB SWAP1 PUSH1 0x0 MSTORE PUSH1 0x20 PUSH1 0x0 KECCAK256 ADD PUSH1 0x0 SWAP1 SWAP2 SWAP1 SWAP2 SWAP1 SWAP2 POP SSTORE POP POP POP POP JUMP JUMPDEST PUSH1 0x0 PUSH1 0x2 PUSH1 0x1 ADD PUSH1 0x0 DUP6 DUP6 PUSH1 0x40 MLOAD PUSH1 0x20 ADD PUSH2 0x13B0 SWAP3 SWAP2 SWAP1 PUSH2 0x2231 JUMP JUMPDEST PUSH1 0x40 MLOAD PUSH1 0x20 DUP2 DUP4 SUB SUB DUP2 MSTORE SWAP1 PUSH1 0x40 MSTORE DUP1 MLOAD SWAP1 PUSH1 0x20 ADD KECCAK256 DUP2 MSTORE PUSH1 0x20 ADD SWAP1 DUP2 MSTORE PUSH1 0x20 ADD PUSH1 0x0 KECCAK256 SLOAD SWAP1 POP PUSH2 0x13E1 DUP2 DUP4 PUSH2 0x1401 JUMP JUMPDEST POP POP POP POP JUMP JUMPDEST PUSH1 0x0 DUP1 PUSH2 0x13F4 DUP5 DUP5 PUSH2 0x17A9 JUMP JUMPDEST PUSH1 0x20 ADD MLOAD EQ SWAP1 POP SWAP3 SWAP2 POP POP JUMP JUMPDEST PUSH1 0x0 DUP3 EQ ISZERO PUSH2 0x1445 JUMPI PUSH1 0x40 MLOAD PUSH32 0x8C379A000000000000000000000000000000000000000000000000000000000 DUP2 MSTORE PUSH1 0x4 ADD PUSH2 0x143C SWAP1 PUSH2 0x2355 JUMP JUMPDEST PUSH1 0x40 MLOAD DUP1 SWAP2 SUB SWAP1 REVERT JUMPDEST DUP1 PUSH1 0x2 PUSH1 0x0 ADD DUP4 DUP2 SLOAD DUP2 LT PUSH2 0x1483 JUMPI PUSH32 0x4E487B7100000000000000000000000000000000000000000000000000000000 PUSH1 0x0 MSTORE PUSH1 0x32 PUSH1 0x4 MSTORE PUSH1 0x24 PUSH1 0x0 REVERT JUMPDEST SWAP1 PUSH1 0x0 MSTORE PUSH1 0x20 PUSH1 0x0 KECCAK256 SWAP1 PUSH1 0x4 MUL ADD PUSH1 0x3 ADD PUSH1 0x0 PUSH2 0x100 EXP DUP2 SLOAD DUP2 PUSH1 0xFF MUL NOT AND SWAP1 DUP4 ISZERO ISZERO MUL OR SWAP1 SSTORE POP POP POP JUMP JUMPDEST PUSH1 0x60 PUSH1 0x0 PUSH1 0x2 DUP4 PUSH1 0x2 PUSH2 0x14C2 SWAP2 SWAP1 PUSH2 0x252B JUMP JUMPDEST PUSH2 0x14CC SWAP2 SWAP1 PUSH2 0x24D5 JUMP JUMPDEST PUSH8 0xFFFFFFFFFFFFFFFF DUP2 GT ISZERO PUSH2 0x150B JUMPI PUSH32 0x4E487B7100000000000000000000000000000000000000000000000000000000 PUSH1 0x0 MSTORE PUSH1 0x41 PUSH1 0x4 MSTORE PUSH1 0x24 PUSH1 0x0 REVERT JUMPDEST PUSH1 0x40 MLOAD SWAP1 DUP1 DUP3 MSTORE DUP1 PUSH1 0x1F ADD PUSH1 0x1F NOT AND PUSH1 0x20 ADD DUP3 ADD PUSH1 0x40 MSTORE DUP1 ISZERO PUSH2 0x153D JUMPI DUP2 PUSH1 0x20 ADD PUSH1 0x1 DUP3 MUL DUP1 CALLDATASIZE DUP4 CALLDATACOPY DUP1 DUP3 ADD SWAP2 POP POP SWAP1 POP JUMPDEST POP SWAP1 POP PUSH32 0x3000000000000000000000000000000000000000000000000000000000000000 DUP2 PUSH1 0x0 DUP2 MLOAD DUP2 LT PUSH2 0x159B JUMPI PUSH32 0x4E487B7100000000000000000000000000000000000000000000000000000000 PUSH1 0x0 MSTORE PUSH1 0x32 PUSH1 0x4 MSTORE PUSH1 0x24 PUSH1 0x0 REVERT JUMPDEST PUSH1 0x20 ADD ADD SWAP1 PUSH31 0xFFFFFFFFFFFFFFFFFFFFFFFFFFFFFFFFFFFFFFFFFFFFFFFFFFFFFFFFFFFFFF NOT AND SWAP1 DUP2 PUSH1 0x0 BYTE SWAP1 MSTORE8 POP PUSH32 0x7800000000000000000000000000000000000000000000000000000000000000 DUP2 PUSH1 0x1 DUP2 MLOAD DUP2 LT PUSH2 0x1625 JUMPI PUSH32 0x4E487B7100000000000000000000000000000000000000000000000000000000 PUSH1 0x0 MSTORE PUSH1 0x32 PUSH1 0x4 MSTORE PUSH1 0x24 PUSH1 0x0 REVERT JUMPDEST PUSH1 0x20 ADD ADD SWAP1 PUSH31 0xFFFFFFFFFFFFFFFFFFFFFFFFFFFFFFFFFFFFFFFFFFFFFFFFFFFFFFFFFFFFFF NOT AND SWAP1 DUP2 PUSH1 0x0 BYTE SWAP1 MSTORE8 POP PUSH1 0x0 PUSH1 0x1 DUP5 PUSH1 0x2 PUSH2 0x1665 SWAP2 SWAP1 PUSH2 0x252B JUMP JUMPDEST PUSH2 0x166F SWAP2 SWAP1 PUSH2 0x24D5 JUMP JUMPDEST SWAP1 POP JUMPDEST PUSH1 0x1 DUP2 GT ISZERO PUSH2 0x175B JUMPI PUSH32 0x3031323334353637383961626364656600000000000000000000000000000000 PUSH1 0xF DUP7 AND PUSH1 0x10 DUP2 LT PUSH2 0x16D7 JUMPI PUSH32 0x4E487B7100000000000000000000000000000000000000000000000000000000 PUSH1 0x0 MSTORE PUSH1 0x32 PUSH1 0x4 MSTORE PUSH1 0x24 PUSH1 0x0 REVERT JUMPDEST BYTE PUSH1 0xF8 SHL DUP3 DUP3 DUP2 MLOAD DUP2 LT PUSH2 0x1714 JUMPI PUSH32 0x4E487B7100000000000000000000000000000000000000000000000000000000 PUSH1 0x0 MSTORE PUSH1 0x32 PUSH1 0x4 MSTORE PUSH1 0x24 PUSH1 0x0 REVERT JUMPDEST PUSH1 0x20 ADD ADD SWAP1 PUSH31 0xFFFFFFFFFFFFFFFFFFFFFFFFFFFFFFFFFFFFFFFFFFFFFFFFFFFFFFFFFFFFFF NOT AND SWAP1 DUP2 PUSH1 0x0 BYTE SWAP1 MSTORE8 POP PUSH1 0x4 DUP6 SWAP1 SHR SWAP5 POP DUP1 PUSH2 0x1754 SWAP1 PUSH2 0x2679 JUMP JUMPDEST SWAP1 POP PUSH2 0x1672 JUMP JUMPDEST POP PUSH1 0x0 DUP5 EQ PUSH2 0x179F JUMPI PUSH1 0x40 MLOAD PUSH32 0x8C379A000000000000000000000000000000000000000000000000000000000 DUP2 MSTORE PUSH1 0x4 ADD PUSH2 0x1796 SWAP1 PUSH2 0x22F5 JUMP JUMPDEST PUSH1 0x40 MLOAD DUP1 SWAP2 SUB SWAP1 REVERT JUMPDEST DUP1 SWAP2 POP POP SWAP3 SWAP2 POP POP JUMP JUMPDEST PUSH2 0x17B1 PUSH2 0x1B99 JUMP JUMPDEST DUP2 ISZERO PUSH2 0x17FC JUMPI PUSH1 0x0 DUP4 EQ ISZERO PUSH2 0x17FB JUMPI PUSH1 0x40 MLOAD PUSH32 0x8C379A000000000000000000000000000000000000000000000000000000000 DUP2 MSTORE PUSH1 0x4 ADD PUSH2 0x17F2 SWAP1 PUSH2 0x2375 JUMP JUMPDEST PUSH1 0x40 MLOAD DUP1 SWAP2 SUB SWAP1 REVERT JUMPDEST JUMPDEST PUSH1 0x2 PUSH1 0x0 ADD DUP4 DUP2 SLOAD DUP2 LT PUSH2 0x1839 JUMPI PUSH32 0x4E487B7100000000000000000000000000000000000000000000000000000000 PUSH1 0x0 MSTORE PUSH1 0x32 PUSH1 0x4 MSTORE PUSH1 0x24 PUSH1 0x0 REVERT JUMPDEST SWAP1 PUSH1 0x0 MSTORE PUSH1 0x20 PUSH1 0x0 KECCAK256 SWAP1 PUSH1 0x4 MUL ADD PUSH1 0x40 MLOAD DUP1 PUSH1 0x80 ADD PUSH1 0x40 MSTORE SWAP1 DUP2 PUSH1 0x0 DUP3 ADD SLOAD DUP2 MSTORE PUSH1 0x20 ADD PUSH1 0x1 DUP3 ADD SLOAD DUP2 MSTORE PUSH1 0x20 ADD PUSH1 0x2 DUP3 ADD DUP1 SLOAD PUSH2 0x1876 SWAP1 PUSH2 0x26A3 JUMP JUMPDEST DUP1 PUSH1 0x1F ADD PUSH1 0x20 DUP1 SWAP2 DIV MUL PUSH1 0x20 ADD PUSH1 0x40 MLOAD SWAP1 DUP2 ADD PUSH1 0x40 MSTORE DUP1 SWAP3 SWAP2 SWAP1 DUP2 DUP2 MSTORE PUSH1 0x20 ADD DUP3 DUP1 SLOAD PUSH2 0x18A2 SWAP1 PUSH2 0x26A3 JUMP JUMPDEST DUP1 ISZERO PUSH2 0x18EF JUMPI DUP1 PUSH1 0x1F LT PUSH2 0x18C4 JUMPI PUSH2 0x100 DUP1 DUP4 SLOAD DIV MUL DUP4 MSTORE SWAP2 PUSH1 0x20 ADD SWAP2 PUSH2 0x18EF JUMP JUMPDEST DUP3 ADD SWAP2 SWAP1 PUSH1 0x0 MSTORE PUSH1 0x20 PUSH1 0x0 KECCAK256 SWAP1 JUMPDEST DUP2 SLOAD DUP2 MSTORE SWAP1 PUSH1 0x1 ADD SWAP1 PUSH1 0x20 ADD DUP1 DUP4 GT PUSH2 0x18D2 JUMPI DUP3 SWAP1 SUB PUSH1 0x1F AND DUP3 ADD SWAP2 JUMPDEST POP POP POP POP POP DUP2 MSTORE PUSH1 0x20 ADD PUSH1 0x3 DUP3 ADD PUSH1 0x0 SWAP1 SLOAD SWAP1 PUSH2 0x100 EXP SWAP1 DIV PUSH1 0xFF AND ISZERO ISZERO ISZERO ISZERO DUP2 MSTORE POP POP SWAP1 POP SWAP3 SWAP2 POP POP JUMP JUMPDEST PUSH2 0x1923 PUSH2 0x1B99 JUMP JUMPDEST PUSH1 0x0 PUSH1 0x2 PUSH1 0x1 ADD PUSH1 0x0 DUP7 DUP7 PUSH1 0x40 MLOAD PUSH1 0x20 ADD PUSH2 0x193F SWAP3 SWAP2 SWAP1 PUSH2 0x2231 JUMP JUMPDEST PUSH1 0x40 MLOAD PUSH1 0x20 DUP2 DUP4 SUB SUB DUP2 MSTORE SWAP1 PUSH1 0x40 MSTORE DUP1 MLOAD SWAP1 PUSH1 0x20 ADD KECCAK256 DUP2 MSTORE PUSH1 0x20 ADD SWAP1 DUP2 MSTORE PUSH1 0x20 ADD PUSH1 0x0 KECCAK256 SLOAD SWAP1 POP PUSH2 0x1970 DUP2 DUP5 PUSH2 0x17A9 JUMP JUMPDEST SWAP2 POP POP SWAP4 SWAP3 POP POP POP JUMP JUMPDEST PUSH1 0x0 DUP1 DUP3 EQ ISZERO SWAP1 POP SWAP2 SWAP1 POP JUMP JUMPDEST PUSH1 0x0 DUP1 PUSH1 0x2 PUSH1 0x0 ADD DUP1 SLOAD SWAP1 POP EQ ISZERO PUSH2 0x1A6F JUMPI PUSH1 0x40 MLOAD DUP1 PUSH1 0x80 ADD PUSH1 0x40 MSTORE DUP1 PUSH1 0x0 DUP2 MSTORE PUSH1 0x20 ADD PUSH1 0x0 DUP2 MSTORE PUSH1 0x20 ADD PUSH1 0x40 MLOAD DUP1 PUSH1 0x20 ADD PUSH1 0x40 MSTORE DUP1 PUSH1 0x0 DUP2 MSTORE POP DUP2 MSTORE PUSH1 0x20 ADD PUSH1 0x0 ISZERO ISZERO DUP2 MSTORE POP PUSH1 0x2 PUSH1 0x0 ADD PUSH1 0x0 DUP2 SLOAD DUP2 LT PUSH2 0x1A0C JUMPI PUSH32 0x4E487B7100000000000000000000000000000000000000000000000000000000 PUSH1 0x0 MSTORE PUSH1 0x32 PUSH1 0x4 MSTORE PUSH1 0x24 PUSH1 0x0 REVERT JUMPDEST SWAP1 PUSH1 0x0 MSTORE PUSH1 0x20 PUSH1 0x0 KECCAK256 SWAP1 PUSH1 0x4 MUL ADD PUSH1 0x0 DUP3 ADD MLOAD DUP2 PUSH1 0x0 ADD SSTORE PUSH1 0x20 DUP3 ADD MLOAD DUP2 PUSH1 0x1 ADD SSTORE PUSH1 0x40 DUP3 ADD MLOAD DUP2 PUSH1 0x2 ADD SWAP1 DUP1 MLOAD SWAP1 PUSH1 0x20 ADD SWAP1 PUSH2 0x1A4A SWAP3 SWAP2 SWAP1 PUSH2 0x1BC3 JUMP JUMPDEST POP PUSH1 0x60 DUP3 ADD MLOAD DUP2 PUSH1 0x3 ADD PUSH1 0x0 PUSH2 0x100 EXP DUP2 SLOAD DUP2 PUSH1 0xFF MUL NOT AND SWAP1 DUP4 ISZERO ISZERO MUL OR SWAP1 SSTORE POP SWAP1 POP POP JUMPDEST PUSH1 0x40 MLOAD DUP1 PUSH1 0x20 ADD PUSH1 0x40 MSTORE DUP1 PUSH1 0x0 DUP2 MSTORE POP DUP1 MLOAD SWAP1 PUSH1 0x20 ADD KECCAK256 DUP4 DUP1 MLOAD SWAP1 PUSH1 0x20 ADD KECCAK256 EQ ISZERO PUSH2 0x1ACF JUMPI PUSH1 0x40 MLOAD PUSH32 0x8C379A000000000000000000000000000000000000000000000000000000000 DUP2 MSTORE PUSH1 0x4 ADD PUSH2 0x1AC6 SWAP1 PUSH2 0x2335 JUMP JUMPDEST PUSH1 0x40 MLOAD DUP1 SWAP2 SUB SWAP1 REVERT JUMPDEST PUSH1 0x2 PUSH1 0x0 ADD PUSH1 0x40 MLOAD DUP1 PUSH1 0x80 ADD PUSH1 0x40 MSTORE DUP1 PUSH1 0x2 PUSH1 0x0 ADD DUP1 SLOAD SWAP1 POP DUP2 MSTORE PUSH1 0x20 ADD DUP7 DUP2 MSTORE PUSH1 0x20 ADD DUP6 DUP2 MSTORE PUSH1 0x20 ADD DUP5 ISZERO ISZERO DUP2 MSTORE POP SWAP1 DUP1 PUSH1 0x1 DUP2 SLOAD ADD DUP1 DUP3 SSTORE DUP1 SWAP2 POP POP PUSH1 0x1 SWAP1 SUB SWAP1 PUSH1 0x0 MSTORE PUSH1 0x20 PUSH1 0x0 KECCAK256 SWAP1 PUSH1 0x4 MUL ADD PUSH1 0x0 SWAP1 SWAP2 SWAP1 SWAP2 SWAP1 SWAP2 POP PUSH1 0x0 DUP3 ADD MLOAD DUP2 PUSH1 0x0 ADD SSTORE PUSH1 0x20 DUP3 ADD MLOAD DUP2 PUSH1 0x1 ADD SSTORE PUSH1 0x40 DUP3 ADD MLOAD DUP2 PUSH1 0x2 ADD SWAP1 DUP1 MLOAD SWAP1 PUSH1 0x20 ADD SWAP1 PUSH2 0x1B58 SWAP3 SWAP2 SWAP1 PUSH2 0x1BC3 JUMP JUMPDEST POP PUSH1 0x60 DUP3 ADD MLOAD DUP2 PUSH1 0x3 ADD PUSH1 0x0 PUSH2 0x100 EXP DUP2 SLOAD DUP2 PUSH1 0xFF MUL NOT AND SWAP1 DUP4 ISZERO ISZERO MUL OR SWAP1 SSTORE POP POP POP PUSH1 0x1 PUSH1 0x2 PUSH1 0x0 ADD DUP1 SLOAD SWAP1 POP PUSH2 0x1B90 SWAP2 SWAP1 PUSH2 0x2585 JUMP JUMPDEST SWAP1 POP SWAP4 SWAP3 POP POP POP JUMP JUMPDEST PUSH1 0x40 MLOAD DUP1 PUSH1 0x80 ADD PUSH1 0x40 MSTORE DUP1 PUSH1 0x0 DUP2 MSTORE PUSH1 0x20 ADD PUSH1 0x0 DUP2 MSTORE PUSH1 0x20 ADD PUSH1 0x60 DUP2 MSTORE PUSH1 0x20 ADD PUSH1 0x0 ISZERO ISZERO DUP2 MSTORE POP SWAP1 JUMP JUMPDEST DUP3 DUP1 SLOAD PUSH2 0x1BCF SWAP1 PUSH2 0x26A3 JUMP JUMPDEST SWAP1 PUSH1 0x0 MSTORE PUSH1 0x20 PUSH1 0x0 KECCAK256 SWAP1 PUSH1 0x1F ADD PUSH1 0x20 SWAP1 DIV DUP2 ADD SWAP3 DUP3 PUSH2 0x1BF1 JUMPI PUSH1 0x0 DUP6 SSTORE PUSH2 0x1C38 JUMP JUMPDEST DUP3 PUSH1 0x1F LT PUSH2 0x1C0A JUMPI DUP1 MLOAD PUSH1 0xFF NOT AND DUP4 DUP1 ADD OR DUP6 SSTORE PUSH2 0x1C38 JUMP JUMPDEST DUP3 DUP1 ADD PUSH1 0x1 ADD DUP6 SSTORE DUP3 ISZERO PUSH2 0x1C38 JUMPI SWAP2 DUP3 ADD JUMPDEST DUP3 DUP2 GT ISZERO PUSH2 0x1C37 JUMPI DUP3 MLOAD DUP3 SSTORE SWAP2 PUSH1 0x20 ADD SWAP2 SWAP1 PUSH1 0x1 ADD SWAP1 PUSH2 0x1C1C JUMP JUMPDEST JUMPDEST POP SWAP1 POP PUSH2 0x1C45 SWAP2 SWAP1 PUSH2 0x1C49 JUMP JUMPDEST POP SWAP1 JUMP JUMPDEST JUMPDEST DUP1 DUP3 GT ISZERO PUSH2 0x1C62 JUMPI PUSH1 0x0 DUP2 PUSH1 0x0 SWAP1 SSTORE POP PUSH1 0x1 ADD PUSH2 0x1C4A JUMP JUMPDEST POP SWAP1 JUMP JUMPDEST PUSH1 0x0 PUSH2 0x1C79 PUSH2 0x1C74 DUP5 PUSH2 0x23FA JUMP JUMPDEST PUSH2 0x23D5 JUMP JUMPDEST SWAP1 POP DUP3 DUP2 MSTORE PUSH1 0x20 DUP2 ADD DUP5 DUP5 DUP5 ADD GT ISZERO PUSH2 0x1C91 JUMPI PUSH1 0x0 DUP1 REVERT JUMPDEST PUSH2 0x1C9C DUP5 DUP3 DUP6 PUSH2 0x2637 JUMP JUMPDEST POP SWAP4 SWAP3 POP POP POP JUMP JUMPDEST PUSH1 0x0 DUP2 CALLDATALOAD SWAP1 POP PUSH2 0x1CB3 DUP2 PUSH2 0x29DA JUMP JUMPDEST SWAP3 SWAP2 POP POP JUMP JUMPDEST PUSH1 0x0 DUP2 CALLDATALOAD SWAP1 POP PUSH2 0x1CC8 DUP2 PUSH2 0x29F1 JUMP JUMPDEST SWAP3 SWAP2 POP POP JUMP JUMPDEST PUSH1 0x0 DUP2 CALLDATALOAD SWAP1 POP PUSH2 0x1CDD DUP2 PUSH2 0x2A08 JUMP JUMPDEST SWAP3 SWAP2 POP POP JUMP JUMPDEST PUSH1 0x0 DUP2 CALLDATALOAD SWAP1 POP PUSH2 0x1CF2 DUP2 PUSH2 0x2A1F JUMP JUMPDEST SWAP3 SWAP2 POP POP JUMP JUMPDEST PUSH1 0x0 DUP3 PUSH1 0x1F DUP4 ADD SLT PUSH2 0x1D09 JUMPI PUSH1 0x0 DUP1 REVERT JUMPDEST DUP2 CALLDATALOAD PUSH2 0x1D19 DUP5 DUP3 PUSH1 0x20 DUP7 ADD PUSH2 0x1C66 JUMP JUMPDEST SWAP2 POP POP SWAP3 SWAP2 POP POP JUMP JUMPDEST PUSH1 0x0 DUP2 CALLDATALOAD SWAP1 POP PUSH2 0x1D31 DUP2 PUSH2 0x2A36 JUMP JUMPDEST SWAP3 SWAP2 POP POP JUMP JUMPDEST PUSH1 0x0 PUSH1 0x20 DUP3 DUP5 SUB SLT ISZERO PUSH2 0x1D49 JUMPI PUSH1 0x0 DUP1 REVERT JUMPDEST PUSH1 0x0 PUSH2 0x1D57 DUP5 DUP3 DUP6 ADD PUSH2 0x1CCE JUMP JUMPDEST SWAP2 POP POP SWAP3 SWAP2 POP POP JUMP JUMPDEST PUSH1 0x0 DUP1 PUSH1 0x40 DUP4 DUP6 SUB SLT ISZERO PUSH2 0x1D73 JUMPI PUSH1 0x0 DUP1 REVERT JUMPDEST PUSH1 0x0 PUSH2 0x1D81 DUP6 DUP3 DUP7 ADD PUSH2 0x1CCE JUMP JUMPDEST SWAP3 POP POP PUSH1 0x20 PUSH2 0x1D92 DUP6 DUP3 DUP7 ADD PUSH2 0x1CA4 JUMP JUMPDEST SWAP2 POP POP SWAP3 POP SWAP3 SWAP1 POP JUMP JUMPDEST PUSH1 0x0 PUSH1 0x20 DUP3 DUP5 SUB SLT ISZERO PUSH2 0x1DAE JUMPI PUSH1 0x0 DUP1 REVERT JUMPDEST PUSH1 0x0 PUSH2 0x1DBC DUP5 DUP3 DUP6 ADD PUSH2 0x1CE3 JUMP JUMPDEST SWAP2 POP POP SWAP3 SWAP2 POP POP JUMP JUMPDEST PUSH1 0x0 PUSH1 0x20 DUP3 DUP5 SUB SLT ISZERO PUSH2 0x1DD7 JUMPI PUSH1 0x0 DUP1 REVERT JUMPDEST PUSH1 0x0 DUP3 ADD CALLDATALOAD PUSH8 0xFFFFFFFFFFFFFFFF DUP2 GT ISZERO PUSH2 0x1DF1 JUMPI PUSH1 0x0 DUP1 REVERT JUMPDEST PUSH2 0x1DFD DUP5 DUP3 DUP6 ADD PUSH2 0x1CF8 JUMP JUMPDEST SWAP2 POP POP SWAP3 SWAP2 POP POP JUMP JUMPDEST PUSH1 0x0 PUSH1 0x20 DUP3 DUP5 SUB SLT ISZERO PUSH2 0x1E18 JUMPI PUSH1 0x0 DUP1 REVERT JUMPDEST PUSH1 0x0 PUSH2 0x1E26 DUP5 DUP3 DUP6 ADD PUSH2 0x1D22 JUMP JUMPDEST SWAP2 POP POP SWAP3 SWAP2 POP POP JUMP JUMPDEST PUSH1 0x0 DUP1 PUSH1 0x40 DUP4 DUP6 SUB SLT ISZERO PUSH2 0x1E42 JUMPI PUSH1 0x0 DUP1 REVERT JUMPDEST PUSH1 0x0 PUSH2 0x1E50 DUP6 DUP3 DUP7 ADD PUSH2 0x1D22 JUMP JUMPDEST SWAP3 POP POP PUSH1 0x20 PUSH2 0x1E61 DUP6 DUP3 DUP7 ADD PUSH2 0x1CB9 JUMP JUMPDEST SWAP2 POP POP SWAP3 POP SWAP3 SWAP1 POP JUMP JUMPDEST PUSH1 0x0 DUP1 PUSH1 0x40 DUP4 DUP6 SUB SLT ISZERO PUSH2 0x1E7E JUMPI PUSH1 0x0 DUP1 REVERT JUMPDEST PUSH1 0x0 PUSH2 0x1E8C DUP6 DUP3 DUP7 ADD PUSH2 0x1D22 JUMP JUMPDEST SWAP3 POP POP PUSH1 0x20 DUP4 ADD CALLDATALOAD PUSH8 0xFFFFFFFFFFFFFFFF DUP2 GT ISZERO PUSH2 0x1EA9 JUMPI PUSH1 0x0 DUP1 REVERT JUMPDEST PUSH2 0x1EB5 DUP6 DUP3 DUP7 ADD PUSH2 0x1CF8 JUMP JUMPDEST SWAP2 POP POP SWAP3 POP SWAP3 SWAP1 POP JUMP JUMPDEST PUSH1 0x0 PUSH2 0x1ECB DUP4 DUP4 PUSH2 0x1FDC JUMP JUMPDEST SWAP1 POP SWAP3 SWAP2 POP POP JUMP JUMPDEST PUSH1 0x0 PUSH2 0x1EDF DUP4 DUP4 PUSH2 0x21BA JUMP JUMPDEST PUSH1 0x20 DUP4 ADD SWAP1 POP SWAP3 SWAP2 POP POP JUMP JUMPDEST PUSH1 0x0 PUSH2 0x1EF6 DUP3 PUSH2 0x244B JUMP JUMPDEST PUSH2 0x1F00 DUP2 DUP6 PUSH2 0x2486 JUMP JUMPDEST SWAP4 POP DUP4 PUSH1 0x20 DUP3 MUL DUP6 ADD PUSH2 0x1F12 DUP6 PUSH2 0x242B JUMP JUMPDEST DUP1 PUSH1 0x0 JUMPDEST DUP6 DUP2 LT ISZERO PUSH2 0x1F4E JUMPI DUP5 DUP5 SUB DUP10 MSTORE DUP2 MLOAD PUSH2 0x1F2F DUP6 DUP3 PUSH2 0x1EBF JUMP JUMPDEST SWAP5 POP PUSH2 0x1F3A DUP4 PUSH2 0x246C JUMP JUMPDEST SWAP3 POP PUSH1 0x20 DUP11 ADD SWAP10 POP POP PUSH1 0x1 DUP2 ADD SWAP1 POP PUSH2 0x1F16 JUMP JUMPDEST POP DUP3 SWAP8 POP DUP8 SWAP6 POP POP POP POP POP POP SWAP3 SWAP2 POP POP JUMP JUMPDEST PUSH1 0x0 PUSH2 0x1F6B DUP3 PUSH2 0x2456 JUMP JUMPDEST PUSH2 0x1F75 DUP2 DUP6 PUSH2 0x2497 JUMP JUMPDEST SWAP4 POP PUSH2 0x1F80 DUP4 PUSH2 0x243B JUMP JUMPDEST DUP1 PUSH1 0x0 JUMPDEST DUP4 DUP2 LT ISZERO PUSH2 0x1FB1 JUMPI DUP2 MLOAD PUSH2 0x1F98 DUP9 DUP3 PUSH2 0x1ED3 JUMP JUMPDEST SWAP8 POP PUSH2 0x1FA3 DUP4 PUSH2 0x2479 JUMP JUMPDEST SWAP3 POP POP PUSH1 0x1 DUP2 ADD SWAP1 POP PUSH2 0x1F84 JUMP JUMPDEST POP DUP6 SWAP4 POP POP POP POP SWAP3 SWAP2 POP POP JUMP JUMPDEST PUSH2 0x1FC7 DUP2 PUSH2 0x25CB JUMP JUMPDEST DUP3 MSTORE POP POP JUMP JUMPDEST PUSH2 0x1FD6 DUP2 PUSH2 0x25D7 JUMP JUMPDEST DUP3 MSTORE POP POP JUMP JUMPDEST PUSH1 0x0 PUSH2 0x1FE7 DUP3 PUSH2 0x2461 JUMP JUMPDEST PUSH2 0x1FF1 DUP2 DUP6 PUSH2 0x24A8 JUMP JUMPDEST SWAP4 POP PUSH2 0x2001 DUP2 DUP6 PUSH1 0x20 DUP7 ADD PUSH2 0x2646 JUMP JUMPDEST PUSH2 0x200A DUP2 PUSH2 0x27E6 JUMP JUMPDEST DUP5 ADD SWAP2 POP POP SWAP3 SWAP2 POP POP JUMP JUMPDEST PUSH1 0x0 PUSH2 0x2020 DUP3 PUSH2 0x2461 JUMP JUMPDEST PUSH2 0x202A DUP2 DUP6 PUSH2 0x24B9 JUMP JUMPDEST SWAP4 POP PUSH2 0x203A DUP2 DUP6 PUSH1 0x20 DUP7 ADD PUSH2 0x2646 JUMP JUMPDEST PUSH2 0x2043 DUP2 PUSH2 0x27E6 JUMP JUMPDEST DUP5 ADD SWAP2 POP POP SWAP3 SWAP2 POP POP JUMP JUMPDEST PUSH1 0x0 PUSH2 0x2059 DUP3 PUSH2 0x2461 JUMP JUMPDEST PUSH2 0x2063 DUP2 DUP6 PUSH2 0x24CA JUMP JUMPDEST SWAP4 POP PUSH2 0x2073 DUP2 DUP6 PUSH1 0x20 DUP7 ADD PUSH2 0x2646 JUMP JUMPDEST DUP1 DUP5 ADD SWAP2 POP POP SWAP3 SWAP2 POP POP JUMP JUMPDEST PUSH1 0x0 PUSH2 0x208C PUSH1 0x20 DUP4 PUSH2 0x24B9 JUMP JUMPDEST SWAP2 POP PUSH2 0x2097 DUP3 PUSH2 0x27F7 JUMP JUMPDEST PUSH1 0x20 DUP3 ADD SWAP1 POP SWAP2 SWAP1 POP JUMP JUMPDEST PUSH1 0x0 PUSH2 0x20AF PUSH1 0x22 DUP4 PUSH2 0x24B9 JUMP JUMPDEST SWAP2 POP PUSH2 0x20BA DUP3 PUSH2 0x2820 JUMP JUMPDEST PUSH1 0x40 DUP3 ADD SWAP1 POP SWAP2 SWAP1 POP JUMP JUMPDEST PUSH1 0x0 PUSH2 0x20D2 PUSH1 0x14 DUP4 PUSH2 0x24B9 JUMP JUMPDEST SWAP2 POP PUSH2 0x20DD DUP3 PUSH2 0x286F JUMP JUMPDEST PUSH1 0x20 DUP3 ADD SWAP1 POP SWAP2 SWAP1 POP JUMP JUMPDEST PUSH1 0x0 PUSH2 0x20F5 PUSH1 0x14 DUP4 PUSH2 0x24B9 JUMP JUMPDEST SWAP2 POP PUSH2 0x2100 DUP3 PUSH2 0x2898 JUMP JUMPDEST PUSH1 0x20 DUP3 ADD SWAP1 POP SWAP2 SWAP1 POP JUMP JUMPDEST PUSH1 0x0 PUSH2 0x2118 PUSH1 0x14 DUP4 PUSH2 0x24B9 JUMP JUMPDEST SWAP2 POP PUSH2 0x2123 DUP3 PUSH2 0x28C1 JUMP JUMPDEST PUSH1 0x20 DUP3 ADD SWAP1 POP SWAP2 SWAP1 POP JUMP JUMPDEST PUSH1 0x0 PUSH2 0x213B PUSH1 0x3D DUP4 PUSH2 0x24B9 JUMP JUMPDEST SWAP2 POP PUSH2 0x2146 DUP3 PUSH2 0x28EA JUMP JUMPDEST PUSH1 0x40 DUP3 ADD SWAP1 POP SWAP2 SWAP1 POP JUMP JUMPDEST PUSH1 0x0 PUSH2 0x215E PUSH1 0x17 DUP4 PUSH2 0x24CA JUMP JUMPDEST SWAP2 POP PUSH2 0x2169 DUP3 PUSH2 0x2939 JUMP JUMPDEST PUSH1 0x17 DUP3 ADD SWAP1 POP SWAP2 SWAP1 POP JUMP JUMPDEST PUSH1 0x0 PUSH2 0x2181 PUSH1 0x11 DUP4 PUSH2 0x24CA JUMP JUMPDEST SWAP2 POP PUSH2 0x218C DUP3 PUSH2 0x2962 JUMP JUMPDEST PUSH1 0x11 DUP3 ADD SWAP1 POP SWAP2 SWAP1 POP JUMP JUMPDEST PUSH1 0x0 PUSH2 0x21A4 PUSH1 0x2F DUP4 PUSH2 0x24B9 JUMP JUMPDEST SWAP2 POP PUSH2 0x21AF DUP3 PUSH2 0x298B JUMP JUMPDEST PUSH1 0x40 DUP3 ADD SWAP1 POP SWAP2 SWAP1 POP JUMP JUMPDEST PUSH2 0x21C3 DUP2 PUSH2 0x262D JUMP JUMPDEST DUP3 MSTORE POP POP JUMP JUMPDEST PUSH2 0x21DA PUSH2 0x21D5 DUP3 PUSH2 0x262D JUMP JUMPDEST PUSH2 0x274F JUMP JUMPDEST DUP3 MSTORE POP POP JUMP JUMPDEST PUSH1 0x0 PUSH2 0x21EC DUP3 DUP5 PUSH2 0x204E JUMP JUMPDEST SWAP2 POP DUP2 SWAP1 POP SWAP3 SWAP2 POP POP JUMP JUMPDEST PUSH1 0x0 PUSH2 0x2202 DUP3 PUSH2 0x2151 JUMP JUMPDEST SWAP2 POP PUSH2 0x220E DUP3 DUP6 PUSH2 0x204E JUMP JUMPDEST SWAP2 POP PUSH2 0x2219 DUP3 PUSH2 0x2174 JUMP JUMPDEST SWAP2 POP PUSH2 0x2225 DUP3 DUP5 PUSH2 0x204E JUMP JUMPDEST SWAP2 POP DUP2 SWAP1 POP SWAP4 SWAP3 POP POP POP JUMP JUMPDEST PUSH1 0x0 PUSH2 0x223D DUP3 DUP6 PUSH2 0x21C9 JUMP JUMPDEST PUSH1 0x20 DUP3 ADD SWAP2 POP PUSH2 0x224D DUP3 DUP5 PUSH2 0x204E JUMP JUMPDEST SWAP2 POP DUP2 SWAP1 POP SWAP4 SWAP3 POP POP POP JUMP JUMPDEST PUSH1 0x0 PUSH1 0x20 DUP3 ADD SWAP1 POP DUP2 DUP2 SUB PUSH1 0x0 DUP4 ADD MSTORE PUSH2 0x2273 DUP2 DUP5 PUSH2 0x1EEB JUMP JUMPDEST SWAP1 POP SWAP3 SWAP2 POP POP JUMP JUMPDEST PUSH1 0x0 PUSH1 0x20 DUP3 ADD SWAP1 POP DUP2 DUP2 SUB PUSH1 0x0 DUP4 ADD MSTORE PUSH2 0x2295 DUP2 DUP5 PUSH2 0x1F60 JUMP JUMPDEST SWAP1 POP SWAP3 SWAP2 POP POP JUMP JUMPDEST PUSH1 0x0 PUSH1 0x20 DUP3 ADD SWAP1 POP PUSH2 0x22B2 PUSH1 0x0 DUP4 ADD DUP5 PUSH2 0x1FBE JUMP JUMPDEST SWAP3 SWAP2 POP POP JUMP JUMPDEST PUSH1 0x0 PUSH1 0x20 DUP3 ADD SWAP1 POP PUSH2 0x22CD PUSH1 0x0 DUP4 ADD DUP5 PUSH2 0x1FCD JUMP JUMPDEST SWAP3 SWAP2 POP POP JUMP JUMPDEST PUSH1 0x0 PUSH1 0x20 DUP3 ADD SWAP1 POP DUP2 DUP2 SUB PUSH1 0x0 DUP4 ADD MSTORE PUSH2 0x22ED DUP2 DUP5 PUSH2 0x2015 JUMP JUMPDEST SWAP1 POP SWAP3 SWAP2 POP POP JUMP JUMPDEST PUSH1 0x0 PUSH1 0x20 DUP3 ADD SWAP1 POP DUP2 DUP2 SUB PUSH1 0x0 DUP4 ADD MSTORE PUSH2 0x230E DUP2 PUSH2 0x207F JUMP JUMPDEST SWAP1 POP SWAP2 SWAP1 POP JUMP JUMPDEST PUSH1 0x0 PUSH1 0x20 DUP3 ADD SWAP1 POP DUP2 DUP2 SUB PUSH1 0x0 DUP4 ADD MSTORE PUSH2 0x232E DUP2 PUSH2 0x20A2 JUMP JUMPDEST SWAP1 POP SWAP2 SWAP1 POP JUMP JUMPDEST PUSH1 0x0 PUSH1 0x20 DUP3 ADD SWAP1 POP DUP2 DUP2 SUB PUSH1 0x0 DUP4 ADD MSTORE PUSH2 0x234E DUP2 PUSH2 0x20C5 JUMP JUMPDEST SWAP1 POP SWAP2 SWAP1 POP JUMP JUMPDEST PUSH1 0x0 PUSH1 0x20 DUP3 ADD SWAP1 POP DUP2 DUP2 SUB PUSH1 0x0 DUP4 ADD MSTORE PUSH2 0x236E DUP2 PUSH2 0x20E8 JUMP JUMPDEST SWAP1 POP SWAP2 SWAP1 POP JUMP JUMPDEST PUSH1 0x0 PUSH1 0x20 DUP3 ADD SWAP1 POP DUP2 DUP2 SUB PUSH1 0x0 DUP4 ADD MSTORE PUSH2 0x238E DUP2 PUSH2 0x210B JUMP JUMPDEST SWAP1 POP SWAP2 SWAP1 POP JUMP JUMPDEST PUSH1 0x0 PUSH1 0x20 DUP3 ADD SWAP1 POP DUP2 DUP2 SUB PUSH1 0x0 DUP4 ADD MSTORE PUSH2 0x23AE DUP2 PUSH2 0x212E JUMP JUMPDEST SWAP1 POP SWAP2 SWAP1 POP JUMP JUMPDEST PUSH1 0x0 PUSH1 0x20 DUP3 ADD SWAP1 POP DUP2 DUP2 SUB PUSH1 0x0 DUP4 ADD MSTORE PUSH2 0x23CE DUP2 PUSH2 0x2197 JUMP JUMPDEST SWAP1 POP SWAP2 SWAP1 POP JUMP JUMPDEST PUSH1 0x0 PUSH2 0x23DF PUSH2 0x23F0 JUMP JUMPDEST SWAP1 POP PUSH2 0x23EB DUP3 DUP3 PUSH2 0x26D5 JUMP JUMPDEST SWAP2 SWAP1 POP JUMP JUMPDEST PUSH1 0x0 PUSH1 0x40 MLOAD SWAP1 POP SWAP1 JUMP JUMPDEST PUSH1 0x0 PUSH8 0xFFFFFFFFFFFFFFFF DUP3 GT ISZERO PUSH2 0x2415 JUMPI PUSH2 0x2414 PUSH2 0x27B7 JUMP JUMPDEST JUMPDEST PUSH2 0x241E DUP3 PUSH2 0x27E6 JUMP JUMPDEST SWAP1 POP PUSH1 0x20 DUP2 ADD SWAP1 POP SWAP2 SWAP1 POP JUMP JUMPDEST PUSH1 0x0 DUP2 SWAP1 POP PUSH1 0x20 DUP3 ADD SWAP1 POP SWAP2 SWAP1 POP JUMP JUMPDEST PUSH1 0x0 DUP2 SWAP1 POP PUSH1 0x20 DUP3 ADD SWAP1 POP SWAP2 SWAP1 POP JUMP JUMPDEST PUSH1 0x0 DUP2 MLOAD SWAP1 POP SWAP2 SWAP1 POP JUMP JUMPDEST PUSH1 0x0 DUP2 MLOAD SWAP1 POP SWAP2 SWAP1 POP JUMP JUMPDEST PUSH1 0x0 DUP2 MLOAD SWAP1 POP SWAP2 SWAP1 POP JUMP JUMPDEST PUSH1 0x0 PUSH1 0x20 DUP3 ADD SWAP1 POP SWAP2 SWAP1 POP JUMP JUMPDEST PUSH1 0x0 PUSH1 0x20 DUP3 ADD SWAP1 POP SWAP2 SWAP1 POP JUMP JUMPDEST PUSH1 0x0 DUP3 DUP3 MSTORE PUSH1 0x20 DUP3 ADD SWAP1 POP SWAP3 SWAP2 POP POP JUMP JUMPDEST PUSH1 0x0 DUP3 DUP3 MSTORE PUSH1 0x20 DUP3 ADD SWAP1 POP SWAP3 SWAP2 POP POP JUMP JUMPDEST PUSH1 0x0 DUP3 DUP3 MSTORE PUSH1 0x20 DUP3 ADD SWAP1 POP SWAP3 SWAP2 POP POP JUMP JUMPDEST PUSH1 0x0 DUP3 DUP3 MSTORE PUSH1 0x20 DUP3 ADD SWAP1 POP SWAP3 SWAP2 POP POP JUMP JUMPDEST PUSH1 0x0 DUP2 SWAP1 POP SWAP3 SWAP2 POP POP JUMP JUMPDEST PUSH1 0x0 PUSH2 0x24E0 DUP3 PUSH2 0x262D JUMP JUMPDEST SWAP2 POP PUSH2 0x24EB DUP4 PUSH2 0x262D JUMP JUMPDEST SWAP3 POP DUP3 PUSH32 0xFFFFFFFFFFFFFFFFFFFFFFFFFFFFFFFFFFFFFFFFFFFFFFFFFFFFFFFFFFFFFFFF SUB DUP3 GT ISZERO PUSH2 0x2520 JUMPI PUSH2 0x251F PUSH2 0x2759 JUMP JUMPDEST JUMPDEST DUP3 DUP3 ADD SWAP1 POP SWAP3 SWAP2 POP POP JUMP JUMPDEST PUSH1 0x0 PUSH2 0x2536 DUP3 PUSH2 0x262D JUMP JUMPDEST SWAP2 POP PUSH2 0x2541 DUP4 PUSH2 0x262D JUMP JUMPDEST SWAP3 POP DUP2 PUSH32 0xFFFFFFFFFFFFFFFFFFFFFFFFFFFFFFFFFFFFFFFFFFFFFFFFFFFFFFFFFFFFFFFF DIV DUP4 GT DUP3 ISZERO ISZERO AND ISZERO PUSH2 0x257A JUMPI PUSH2 0x2579 PUSH2 0x2759 JUMP JUMPDEST JUMPDEST DUP3 DUP3 MUL SWAP1 POP SWAP3 SWAP2 POP POP JUMP JUMPDEST PUSH1 0x0 PUSH2 0x2590 DUP3 PUSH2 0x262D JUMP JUMPDEST SWAP2 POP PUSH2 0x259B DUP4 PUSH2 0x262D JUMP JUMPDEST SWAP3 POP DUP3 DUP3 LT ISZERO PUSH2 0x25AE JUMPI PUSH2 0x25AD PUSH2 0x2759 JUMP JUMPDEST JUMPDEST DUP3 DUP3 SUB SWAP1 POP SWAP3 SWAP2 POP POP JUMP JUMPDEST PUSH1 0x0 PUSH2 0x25C4 DUP3 PUSH2 0x260D JUMP JUMPDEST SWAP1 POP SWAP2 SWAP1 POP JUMP JUMPDEST PUSH1 0x0 DUP2 ISZERO ISZERO SWAP1 POP SWAP2 SWAP1 POP JUMP JUMPDEST PUSH1 0x0 DUP2 SWAP1 POP SWAP2 SWAP1 POP JUMP JUMPDEST PUSH1 0x0 PUSH32 0xFFFFFFFF00000000000000000000000000000000000000000000000000000000 DUP3 AND SWAP1 POP SWAP2 SWAP1 POP JUMP JUMPDEST PUSH1 0x0 PUSH20 0xFFFFFFFFFFFFFFFFFFFFFFFFFFFFFFFFFFFFFFFF DUP3 AND SWAP1 POP SWAP2 SWAP1 POP JUMP JUMPDEST PUSH1 0x0 DUP2 SWAP1 POP SWAP2 SWAP1 POP JUMP JUMPDEST DUP3 DUP2 DUP4 CALLDATACOPY PUSH1 0x0 DUP4 DUP4 ADD MSTORE POP POP POP JUMP JUMPDEST PUSH1 0x0 JUMPDEST DUP4 DUP2 LT ISZERO PUSH2 0x2664 JUMPI DUP1 DUP3 ADD MLOAD DUP2 DUP5 ADD MSTORE PUSH1 0x20 DUP2 ADD SWAP1 POP PUSH2 0x2649 JUMP JUMPDEST DUP4 DUP2 GT ISZERO PUSH2 0x2673 JUMPI PUSH1 0x0 DUP5 DUP5 ADD MSTORE JUMPDEST POP POP POP POP JUMP JUMPDEST PUSH1 0x0 PUSH2 0x2684 DUP3 PUSH2 0x262D JUMP JUMPDEST SWAP2 POP PUSH1 0x0 DUP3 EQ ISZERO PUSH2 0x2698 JUMPI PUSH2 0x2697 PUSH2 0x2759 JUMP JUMPDEST JUMPDEST PUSH1 0x1 DUP3 SUB SWAP1 POP SWAP2 SWAP1 POP JUMP JUMPDEST PUSH1 0x0 PUSH1 0x2 DUP3 DIV SWAP1 POP PUSH1 0x1 DUP3 AND DUP1 PUSH2 0x26BB JUMPI PUSH1 0x7F DUP3 AND SWAP2 POP JUMPDEST PUSH1 0x20 DUP3 LT DUP2 EQ ISZERO PUSH2 0x26CF JUMPI PUSH2 0x26CE PUSH2 0x2788 JUMP JUMPDEST JUMPDEST POP SWAP2 SWAP1 POP JUMP JUMPDEST PUSH2 0x26DE DUP3 PUSH2 0x27E6 JUMP JUMPDEST DUP2 ADD DUP2 DUP2 LT PUSH8 0xFFFFFFFFFFFFFFFF DUP3 GT OR ISZERO PUSH2 0x26FD JUMPI PUSH2 0x26FC PUSH2 0x27B7 JUMP JUMPDEST JUMPDEST DUP1 PUSH1 0x40 MSTORE POP POP POP JUMP JUMPDEST PUSH1 0x0 PUSH2 0x2711 DUP3 PUSH2 0x262D JUMP JUMPDEST SWAP2 POP PUSH32 0xFFFFFFFFFFFFFFFFFFFFFFFFFFFFFFFFFFFFFFFFFFFFFFFFFFFFFFFFFFFFFFFF DUP3 EQ ISZERO PUSH2 0x2744 JUMPI PUSH2 0x2743 PUSH2 0x2759 JUMP JUMPDEST JUMPDEST PUSH1 0x1 DUP3 ADD SWAP1 POP SWAP2 SWAP1 POP JUMP JUMPDEST PUSH1 0x0 DUP2 SWAP1 POP SWAP2 SWAP1 POP JUMP JUMPDEST PUSH32 0x4E487B7100000000000000000000000000000000000000000000000000000000 PUSH1 0x0 MSTORE PUSH1 0x11 PUSH1 0x4 MSTORE PUSH1 0x24 PUSH1 0x0 REVERT JUMPDEST PUSH32 0x4E487B7100000000000000000000000000000000000000000000000000000000 PUSH1 0x0 MSTORE PUSH1 0x22 PUSH1 0x4 MSTORE PUSH1 0x24 PUSH1 0x0 REVERT JUMPDEST PUSH32 0x4E487B7100000000000000000000000000000000000000000000000000000000 PUSH1 0x0 MSTORE PUSH1 0x41 PUSH1 0x4 MSTORE PUSH1 0x24 PUSH1 0x0 REVERT JUMPDEST PUSH1 0x0 PUSH1 0x1F NOT PUSH1 0x1F DUP4 ADD AND SWAP1 POP SWAP2 SWAP1 POP JUMP JUMPDEST PUSH32 0x537472696E67733A20686578206C656E67746820696E73756666696369656E74 PUSH1 0x0 DUP3 ADD MSTORE POP JUMP JUMPDEST PUSH32 0x53656E646572206973206E6F7420555249204D616E61676572206F722041646D PUSH1 0x0 DUP3 ADD MSTORE PUSH32 0x696E000000000000000000000000000000000000000000000000000000000000 PUSH1 0x20 DUP3 ADD MSTORE POP JUMP JUMPDEST PUSH32 0x4D6F64657261746564557269733A204552522031000000000000000000000000 PUSH1 0x0 DUP3 ADD MSTORE POP JUMP JUMPDEST PUSH32 0x4D6F64657261746564557269733A204552522032000000000000000000000000 PUSH1 0x0 DUP3 ADD MSTORE POP JUMP JUMPDEST PUSH32 0x4D6F64657261746564557269733A204552522033000000000000000000000000 PUSH1 0x0 DUP3 ADD MSTORE POP JUMP JUMPDEST PUSH32 0x4C313A205F6D616B65456E7472793A20656E7472792077697468206D61746368 PUSH1 0x0 DUP3 ADD MSTORE PUSH32 0x696E6720696420616E642075726920616C726561647920657869737473000000 PUSH1 0x20 DUP3 ADD MSTORE POP JUMP JUMPDEST PUSH32 0x416363657373436F6E74726F6C3A206163636F756E7420000000000000000000 PUSH1 0x0 DUP3 ADD MSTORE POP JUMP JUMPDEST PUSH32 0x206973206D697373696E6720726F6C6520000000000000000000000000000000 PUSH1 0x0 DUP3 ADD MSTORE POP JUMP JUMPDEST PUSH32 0x416363657373436F6E74726F6C3A2063616E206F6E6C792072656E6F756E6365 PUSH1 0x0 DUP3 ADD MSTORE PUSH32 0x20726F6C657320666F722073656C660000000000000000000000000000000000 PUSH1 0x20 DUP3 ADD MSTORE POP JUMP JUMPDEST PUSH2 0x29E3 DUP2 PUSH2 0x25B9 JUMP JUMPDEST DUP2 EQ PUSH2 0x29EE JUMPI PUSH1 0x0 DUP1 REVERT JUMPDEST POP JUMP JUMPDEST PUSH2 0x29FA DUP2 PUSH2 0x25CB JUMP JUMPDEST DUP2 EQ PUSH2 0x2A05 JUMPI PUSH1 0x0 DUP1 REVERT JUMPDEST POP JUMP JUMPDEST PUSH2 0x2A11 DUP2 PUSH2 0x25D7 JUMP JUMPDEST DUP2 EQ PUSH2 0x2A1C JUMPI PUSH1 0x0 DUP1 REVERT JUMPDEST POP JUMP JUMPDEST PUSH2 0x2A28 DUP2 PUSH2 0x25E1 JUMP JUMPDEST DUP2 EQ PUSH2 0x2A33 JUMPI PUSH1 0x0 DUP1 REVERT JUMPDEST POP JUMP JUMPDEST PUSH2 0x2A3F DUP2 PUSH2 0x262D JUMP JUMPDEST DUP2 EQ PUSH2 0x2A4A JUMPI PUSH1 0x0 DUP1 REVERT JUMPDEST POP JUMP INVALID LOG2 PUSH5 0x6970667358 0x22 SLT KECCAK256 XOR 0x5E 0xF 0xFB 0xEC PUSH17 0x89A8D2EEEC17CFE46970BEDF9BAC09FD4A PUSH32 0xFBAA458AA771002564736F6C6343000801003300000000000000000000000000 "
				},
				"gasEstimates": {
					"creation": {
						"codeDepositCost": "2176600",
						"executionCost": "2324",
						"totalCost": "2178924"
					},
					"external": {
						"COUPON_USER_ROLE()": "419",
						"DEFAULT_ADMIN_ROLE()": "446",
						"URI_ADDER_ROLE()": "351",
						"URI_MANAGER_ROLE()": "352",
						"approveMetadatForAll(string)": "infinite",
						"approveMetadatForId(uint256,string)": "infinite",
						"getAllApprovedIdsForMetadata(string)": "infinite",
						"getAllApprovedMetadatasForId(uint256,bool)": "infinite",
						"getAllGloballyApprovedMetadata()": "infinite",
						"getRoleAdmin(bytes32)": "infinite",
						"grantRole(bytes32,address)": "infinite",
						"hasRole(bytes32,address)": "1929",
						"isMetadataApprovedForAll(string)": "infinite",
						"isMetadataApprovedForId(uint256,string)": "infinite",
						"makeApprovedUriListsAppendOnly()": "infinite",
						"renounceRole(bytes32,address)": "infinite",
						"revokeRole(bytes32,address)": "infinite",
						"supportsInterface(bytes4)": "751",
						"unapproveAllMetadataForId(uint256)": "infinite",
						"unapproveMetadatForId(uint256,string)": "infinite",
						"unapproveMetadataForAll(string)": "infinite"
					},
					"internal": {
						"__entryExists(uint256)": "37",
						"__entryIsGlobal(uint256,bool)": "infinite",
						"__getEntry(uint256,bool)": "infinite",
						"__makeEntry(uint256,string memory,bool)": "infinite",
						"__updateEntry(uint256,bool)": "infinite",
						"_entryExists(uint256,string memory)": "infinite",
						"_entryIsGlobal(uint256,string memory,bool)": "infinite",
						"_getAllApprovedIdsFromUri(string memory,bool)": "infinite",
						"_getAllApprovedUrisFromId(uint256,bool)": "infinite",
						"_getAllIdsFromUri(string memory,bool)": "infinite",
						"_getAllUrisFromId(uint256,bool)": "infinite",
						"_getEntry(uint256,string memory,bool)": "infinite",
						"_isIdUriPairApproved(uint256,string memory)": "infinite",
						"_makeEntry(uint256,string memory,bool)": "infinite",
						"_setIdUriPairApproval(uint256,string memory,bool)": "infinite",
						"_unapproveAllUrisForId(uint256)": "infinite",
						"_unapproveUriForAllIds(string memory,bool)": "infinite",
						"_updateEntry(uint256,string memory,bool)": "infinite"
					}
				},
				"methodIdentifiers": {
					"COUPON_USER_ROLE()": "263d336c",
					"DEFAULT_ADMIN_ROLE()": "a217fddf",
					"URI_ADDER_ROLE()": "b5a92ce5",
					"URI_MANAGER_ROLE()": "682d07d9",
					"approveMetadatForAll(string)": "33e06e7c",
					"approveMetadatForId(uint256,string)": "e85eaaff",
					"getAllApprovedIdsForMetadata(string)": "68f9dbe1",
					"getAllApprovedMetadatasForId(uint256,bool)": "cebdbea7",
					"getAllGloballyApprovedMetadata()": "3a2aa22b",
					"getRoleAdmin(bytes32)": "248a9ca3",
					"grantRole(bytes32,address)": "2f2ff15d",
					"hasRole(bytes32,address)": "91d14854",
					"isMetadataApprovedForAll(string)": "3d88cf3d",
					"isMetadataApprovedForId(uint256,string)": "c53dfdac",
					"makeApprovedUriListsAppendOnly()": "dd1e1656",
					"renounceRole(bytes32,address)": "36568abe",
					"revokeRole(bytes32,address)": "d547741f",
					"supportsInterface(bytes4)": "01ffc9a7",
					"unapproveAllMetadataForId(uint256)": "6d3cc82d",
					"unapproveMetadatForId(uint256,string)": "15fda194",
					"unapproveMetadataForAll(string)": "29cb0531"
				}
			},
			"storageLayout": {
				"storage": [
					{
						"astId": 24,
						"contract": "contracts/Moderated Uris.sol:ModeratedUris",
						"label": "_roles",
						"offset": 0,
						"slot": "0",
						"type": "t_mapping(t_bytes32,t_struct(RoleData)19_storage)"
					},
					{
						"astId": 664,
						"contract": "contracts/Moderated Uris.sol:ModeratedUris",
						"label": "canRevokeUriApproval",
						"offset": 0,
						"slot": "1",
						"type": "t_bool"
					},
					{
						"astId": 706,
						"contract": "contracts/Moderated Uris.sol:ModeratedUris",
						"label": "_state",
						"offset": 0,
						"slot": "2",
						"type": "t_struct(State)703_storage"
					}
				],
				"types": {
					"t_address": {
						"encoding": "inplace",
						"label": "address",
						"numberOfBytes": "20"
					},
					"t_array(t_struct(Entry)684_storage)dyn_storage": {
						"base": "t_struct(Entry)684_storage",
						"encoding": "dynamic_array",
						"label": "struct ModeratedUris.Entry[]",
						"numberOfBytes": "32"
					},
					"t_array(t_uint256)dyn_storage": {
						"base": "t_uint256",
						"encoding": "dynamic_array",
						"label": "uint256[]",
						"numberOfBytes": "32"
					},
					"t_bool": {
						"encoding": "inplace",
						"label": "bool",
						"numberOfBytes": "1"
					},
					"t_bytes32": {
						"encoding": "inplace",
						"label": "bytes32",
						"numberOfBytes": "32"
					},
					"t_mapping(t_address,t_bool)": {
						"encoding": "mapping",
						"key": "t_address",
						"label": "mapping(address => bool)",
						"numberOfBytes": "32",
						"value": "t_bool"
					},
					"t_mapping(t_bytes32,t_struct(RoleData)19_storage)": {
						"encoding": "mapping",
						"key": "t_bytes32",
						"label": "mapping(bytes32 => struct AccessControl.RoleData)",
						"numberOfBytes": "32",
						"value": "t_struct(RoleData)19_storage"
					},
					"t_mapping(t_bytes32,t_uint256)": {
						"encoding": "mapping",
						"key": "t_bytes32",
						"label": "mapping(bytes32 => uint256)",
						"numberOfBytes": "32",
						"value": "t_uint256"
					},
					"t_mapping(t_string_memory_ptr,t_array(t_uint256)dyn_storage)": {
						"encoding": "mapping",
						"key": "t_string_memory_ptr",
						"label": "mapping(string => uint256[])",
						"numberOfBytes": "32",
						"value": "t_array(t_uint256)dyn_storage"
					},
					"t_mapping(t_uint256,t_array(t_uint256)dyn_storage)": {
						"encoding": "mapping",
						"key": "t_uint256",
						"label": "mapping(uint256 => uint256[])",
						"numberOfBytes": "32",
						"value": "t_array(t_uint256)dyn_storage"
					},
					"t_string_memory_ptr": {
						"encoding": "bytes",
						"label": "string",
						"numberOfBytes": "32"
					},
					"t_string_storage": {
						"encoding": "bytes",
						"label": "string",
						"numberOfBytes": "32"
					},
					"t_struct(Entry)684_storage": {
						"encoding": "inplace",
						"label": "struct ModeratedUris.Entry",
						"members": [
							{
								"astId": 677,
								"contract": "contracts/Moderated Uris.sol:ModeratedUris",
								"label": "_entryID",
								"offset": 0,
								"slot": "0",
								"type": "t_uint256"
							},
							{
								"astId": 679,
								"contract": "contracts/Moderated Uris.sol:ModeratedUris",
								"label": "id",
								"offset": 0,
								"slot": "1",
								"type": "t_uint256"
							},
							{
								"astId": 681,
								"contract": "contracts/Moderated Uris.sol:ModeratedUris",
								"label": "uri",
								"offset": 0,
								"slot": "2",
								"type": "t_string_storage"
							},
							{
								"astId": 683,
								"contract": "contracts/Moderated Uris.sol:ModeratedUris",
								"label": "approved",
								"offset": 0,
								"slot": "3",
								"type": "t_bool"
							}
						],
						"numberOfBytes": "128"
					},
					"t_struct(RoleData)19_storage": {
						"encoding": "inplace",
						"label": "struct AccessControl.RoleData",
						"members": [
							{
								"astId": 16,
								"contract": "contracts/Moderated Uris.sol:ModeratedUris",
								"label": "members",
								"offset": 0,
								"slot": "0",
								"type": "t_mapping(t_address,t_bool)"
							},
							{
								"astId": 18,
								"contract": "contracts/Moderated Uris.sol:ModeratedUris",
								"label": "adminRole",
								"offset": 0,
								"slot": "1",
								"type": "t_bytes32"
							}
						],
						"numberOfBytes": "64"
					},
					"t_struct(State)703_storage": {
						"encoding": "inplace",
						"label": "struct ModeratedUris.State",
						"members": [
							{
								"astId": 688,
								"contract": "contracts/Moderated Uris.sol:ModeratedUris",
								"label": "entries",
								"offset": 0,
								"slot": "0",
								"type": "t_array(t_struct(Entry)684_storage)dyn_storage"
							},
							{
								"astId": 692,
								"contract": "contracts/Moderated Uris.sol:ModeratedUris",
								"label": "indexWithIdUri",
								"offset": 0,
								"slot": "1",
								"type": "t_mapping(t_bytes32,t_uint256)"
							},
							{
								"astId": 697,
								"contract": "contracts/Moderated Uris.sol:ModeratedUris",
								"label": "indexesWithUri",
								"offset": 0,
								"slot": "2",
								"type": "t_mapping(t_string_memory_ptr,t_array(t_uint256)dyn_storage)"
							},
							{
								"astId": 702,
								"contract": "contracts/Moderated Uris.sol:ModeratedUris",
								"label": "indexesWithId",
								"offset": 0,
								"slot": "3",
								"type": "t_mapping(t_uint256,t_array(t_uint256)dyn_storage)"
							}
						],
						"numberOfBytes": "128"
					},
					"t_uint256": {
						"encoding": "inplace",
						"label": "uint256",
						"numberOfBytes": "32"
					}
				}
			},
			"userdoc": {
				"kind": "user",
				"methods": {},
				"version": 1
			}
		}
	}
}