{
	"contracts/Founding Citizens NFT Sale Privileged Buyers List Storage.sol": {
		"PrivilegedListStorage": {
			"abi": [
				{
					"anonymous": false,
					"inputs": [
						{
							"indexed": true,
							"internalType": "bytes32",
							"name": "role",
							"type": "bytes32"
						},
						{
							"indexed": true,
							"internalType": "bytes32",
							"name": "previousAdminRole",
							"type": "bytes32"
						},
						{
							"indexed": true,
							"internalType": "bytes32",
							"name": "newAdminRole",
							"type": "bytes32"
						}
					],
					"name": "RoleAdminChanged",
					"type": "event"
				},
				{
					"anonymous": false,
					"inputs": [
						{
							"indexed": true,
							"internalType": "bytes32",
							"name": "role",
							"type": "bytes32"
						},
						{
							"indexed": true,
							"internalType": "address",
							"name": "account",
							"type": "address"
						},
						{
							"indexed": true,
							"internalType": "address",
							"name": "sender",
							"type": "address"
						}
					],
					"name": "RoleGranted",
					"type": "event"
				},
				{
					"anonymous": false,
					"inputs": [
						{
							"indexed": true,
							"internalType": "bytes32",
							"name": "role",
							"type": "bytes32"
						},
						{
							"indexed": true,
							"internalType": "address",
							"name": "account",
							"type": "address"
						},
						{
							"indexed": true,
							"internalType": "address",
							"name": "sender",
							"type": "address"
						}
					],
					"name": "RoleRevoked",
					"type": "event"
				},
				{
					"inputs": [],
					"name": "ADDRESS_MANAGER_ROLE",
					"outputs": [
						{
							"internalType": "bytes32",
							"name": "",
							"type": "bytes32"
						}
					],
					"stateMutability": "view",
					"type": "function"
				},
				{
					"inputs": [],
					"name": "COUPON_MANAGER_ROLE",
					"outputs": [
						{
							"internalType": "bytes32",
							"name": "",
							"type": "bytes32"
						}
					],
					"stateMutability": "view",
					"type": "function"
				},
				{
					"inputs": [],
					"name": "COUPON_USER_ROLE",
					"outputs": [
						{
							"internalType": "bytes32",
							"name": "",
							"type": "bytes32"
						}
					],
					"stateMutability": "view",
					"type": "function"
				},
				{
					"inputs": [],
					"name": "DEFAULT_ADMIN_ROLE",
					"outputs": [
						{
							"internalType": "bytes32",
							"name": "",
							"type": "bytes32"
						}
					],
					"stateMutability": "view",
					"type": "function"
				},
				{
					"inputs": [
						{
							"internalType": "address",
							"name": "address_",
							"type": "address"
						}
					],
					"name": "addAddress",
					"outputs": [],
					"stateMutability": "nonpayable",
					"type": "function"
				},
				{
					"inputs": [
						{
							"internalType": "address",
							"name": "address_",
							"type": "address"
						},
						{
							"internalType": "uint256",
							"name": "discountRate",
							"type": "uint256"
						},
						{
							"internalType": "uint256",
							"name": "numberOfUses",
							"type": "uint256"
						}
					],
					"name": "addCoupon",
					"outputs": [],
					"stateMutability": "nonpayable",
					"type": "function"
				},
				{
					"inputs": [
						{
							"internalType": "address",
							"name": "address_",
							"type": "address"
						}
					],
					"name": "addressExists",
					"outputs": [
						{
							"internalType": "bool",
							"name": "",
							"type": "bool"
						}
					],
					"stateMutability": "view",
					"type": "function"
				},
				{
					"inputs": [
						{
							"internalType": "address",
							"name": "address_",
							"type": "address"
						},
						{
							"internalType": "uint256",
							"name": "discountRate",
							"type": "uint256"
						}
					],
					"name": "addressHasCoupon",
					"outputs": [
						{
							"internalType": "bool",
							"name": "",
							"type": "bool"
						}
					],
					"stateMutability": "view",
					"type": "function"
				},
				{
					"inputs": [
						{
							"internalType": "address",
							"name": "address_",
							"type": "address"
						}
					],
					"name": "addressHasCoupon",
					"outputs": [
						{
							"internalType": "bool",
							"name": "",
							"type": "bool"
						}
					],
					"stateMutability": "view",
					"type": "function"
				},
				{
					"inputs": [],
					"name": "addressList",
					"outputs": [
						{
							"internalType": "uint256",
							"name": "length",
							"type": "uint256"
						}
					],
					"stateMutability": "view",
					"type": "function"
				},
				{
					"inputs": [
						{
							"internalType": "address",
							"name": "address_",
							"type": "address"
						}
					],
					"name": "couponListLength",
					"outputs": [
						{
							"internalType": "uint256",
							"name": "",
							"type": "uint256"
						}
					],
					"stateMutability": "view",
					"type": "function"
				},
				{
					"inputs": [
						{
							"internalType": "bytes32",
							"name": "role",
							"type": "bytes32"
						}
					],
					"name": "getRoleAdmin",
					"outputs": [
						{
							"internalType": "bytes32",
							"name": "",
							"type": "bytes32"
						}
					],
					"stateMutability": "view",
					"type": "function"
				},
				{
					"inputs": [
						{
							"internalType": "bytes32",
							"name": "role",
							"type": "bytes32"
						},
						{
							"internalType": "address",
							"name": "account",
							"type": "address"
						}
					],
					"name": "grantRole",
					"outputs": [],
					"stateMutability": "nonpayable",
					"type": "function"
				},
				{
					"inputs": [
						{
							"internalType": "bytes32",
							"name": "role",
							"type": "bytes32"
						},
						{
							"internalType": "address",
							"name": "account",
							"type": "address"
						}
					],
					"name": "hasRole",
					"outputs": [
						{
							"internalType": "bool",
							"name": "",
							"type": "bool"
						}
					],
					"stateMutability": "view",
					"type": "function"
				},
				{
					"inputs": [
						{
							"internalType": "address",
							"name": "address_",
							"type": "address"
						}
					],
					"name": "idOf",
					"outputs": [
						{
							"internalType": "uint256",
							"name": "",
							"type": "uint256"
						}
					],
					"stateMutability": "view",
					"type": "function"
				},
				{
					"inputs": [
						{
							"internalType": "address",
							"name": "address_",
							"type": "address"
						},
						{
							"internalType": "uint256",
							"name": "discountRate",
							"type": "uint256"
						},
						{
							"internalType": "uint256",
							"name": "numberOfUses",
							"type": "uint256"
						}
					],
					"name": "reduceCouponUses",
					"outputs": [],
					"stateMutability": "nonpayable",
					"type": "function"
				},
				{
					"inputs": [
						{
							"internalType": "address",
							"name": "address_",
							"type": "address"
						}
					],
					"name": "removeAddress",
					"outputs": [],
					"stateMutability": "nonpayable",
					"type": "function"
				},
				{
					"inputs": [
						{
							"internalType": "address",
							"name": "address_",
							"type": "address"
						},
						{
							"internalType": "uint256",
							"name": "id",
							"type": "uint256"
						}
					],
					"name": "removeCoupon",
					"outputs": [],
					"stateMutability": "nonpayable",
					"type": "function"
				},
				{
					"inputs": [
						{
							"internalType": "bytes32",
							"name": "role",
							"type": "bytes32"
						},
						{
							"internalType": "address",
							"name": "account",
							"type": "address"
						}
					],
					"name": "renounceRole",
					"outputs": [],
					"stateMutability": "nonpayable",
					"type": "function"
				},
				{
					"inputs": [
						{
							"internalType": "bytes32",
							"name": "role",
							"type": "bytes32"
						},
						{
							"internalType": "address",
							"name": "account",
							"type": "address"
						}
					],
					"name": "revokeRole",
					"outputs": [],
					"stateMutability": "nonpayable",
					"type": "function"
				},
				{
					"inputs": [
						{
							"internalType": "bytes4",
							"name": "interfaceId",
							"type": "bytes4"
						}
					],
					"name": "supportsInterface",
					"outputs": [
						{
							"internalType": "bool",
							"name": "",
							"type": "bool"
						}
					],
					"stateMutability": "view",
					"type": "function"
				},
				{
					"inputs": [
						{
							"internalType": "address",
							"name": "address_",
							"type": "address"
						},
						{
							"internalType": "uint256",
							"name": "discountRate",
							"type": "uint256"
						}
					],
					"name": "useCoupon",
					"outputs": [],
					"stateMutability": "nonpayable",
					"type": "function"
				}
			],
			"devdoc": {
				"kind": "dev",
				"methods": {
					"getRoleAdmin(bytes32)": {
						"details": "Returns the admin role that controls `role`. See {grantRole} and {revokeRole}. To change a role's admin, use {_setRoleAdmin}."
					},
					"grantRole(bytes32,address)": {
						"details": "Grants `role` to `account`. If `account` had not been already granted `role`, emits a {RoleGranted} event. Requirements: - the caller must have ``role``'s admin role."
					},
					"hasRole(bytes32,address)": {
						"details": "Returns `true` if `account` has been granted `role`."
					},
					"renounceRole(bytes32,address)": {
						"details": "Revokes `role` from the calling account. Roles are often managed via {grantRole} and {revokeRole}: this function's purpose is to provide a mechanism for accounts to lose their privileges if they are compromised (such as when a trusted device is misplaced). If the calling account had been revoked `role`, emits a {RoleRevoked} event. Requirements: - the caller must be `account`."
					},
					"revokeRole(bytes32,address)": {
						"details": "Revokes `role` from `account`. If `account` had been granted `role`, emits a {RoleRevoked} event. Requirements: - the caller must have ``role``'s admin role."
					},
					"supportsInterface(bytes4)": {
						"details": "See {IERC165-supportsInterface}."
					}
				},
				"version": 1
			},
			"evm": {
				"assembly": "    /* \"contracts/Founding Citizens NFT Sale Privileged Buyers List Storage.sol\":1765:9049  contract PrivilegedListStorage is AccessControl {\r... */\n  mstore(0x40, 0x80)\n  callvalue\n  dup1\n  iszero\n  tag_1\n  jumpi\n  0x00\n  dup1\n  revert\ntag_1:\n  pop\n  dataSize(sub_0)\n  dup1\n  dataOffset(sub_0)\n  0x00\n  codecopy\n  0x00\n  return\nstop\n\nsub_0: assembly {\n        /* \"contracts/Founding Citizens NFT Sale Privileged Buyers List Storage.sol\":1765:9049  contract PrivilegedListStorage is AccessControl {\r... */\n      mstore(0x40, 0x80)\n      callvalue\n      dup1\n      iszero\n      tag_1\n      jumpi\n      0x00\n      dup1\n      revert\n    tag_1:\n      pop\n      jumpi(tag_2, lt(calldatasize, 0x04))\n      shr(0xe0, calldataload(0x00))\n      dup1\n      0x838324d9\n      gt\n      tag_25\n      jumpi\n      dup1\n      0xc18ab7a2\n      gt\n      tag_26\n      jumpi\n      dup1\n      0xc18ab7a2\n      eq\n      tag_19\n      jumpi\n      dup1\n      0xc1eb6dfd\n      eq\n      tag_20\n      jumpi\n      dup1\n      0xd547741f\n      eq\n      tag_21\n      jumpi\n      dup1\n      0xd94fe832\n      eq\n      tag_22\n      jumpi\n      dup1\n      0xe5bf7ffc\n      eq\n      tag_23\n      jumpi\n      dup1\n      0xf76da2a8\n      eq\n      tag_24\n      jumpi\n      jump(tag_2)\n    tag_26:\n      dup1\n      0x838324d9\n      eq\n      tag_14\n      jumpi\n      dup1\n      0x91d14854\n      eq\n      tag_15\n      jumpi\n      dup1\n      0xa217fddf\n      eq\n      tag_16\n      jumpi\n      dup1\n      0xa41dd6e6\n      eq\n      tag_17\n      jumpi\n      dup1\n      0xa5025222\n      eq\n      tag_18\n      jumpi\n      jump(tag_2)\n    tag_25:\n      dup1\n      0x36568abe\n      gt\n      tag_27\n      jumpi\n      dup1\n      0x36568abe\n      eq\n      tag_8\n      jumpi\n      dup1\n      0x38eada1c\n      eq\n      tag_9\n      jumpi\n      dup1\n      0x3c25c06b\n      eq\n      tag_10\n      jumpi\n      dup1\n      0x3edfcd2c\n      eq\n      tag_11\n      jumpi\n      dup1\n      0x4ba79dfe\n      eq\n      tag_12\n      jumpi\n      dup1\n      0x5c3ed7ec\n      eq\n      tag_13\n      jumpi\n      jump(tag_2)\n    tag_27:\n      dup1\n      0x01ffc9a7\n      eq\n      tag_3\n      jumpi\n      dup1\n      0x2080179d\n      eq\n      tag_4\n      jumpi\n      dup1\n      0x248a9ca3\n      eq\n      tag_5\n      jumpi\n      dup1\n      0x263d336c\n      eq\n      tag_6\n      jumpi\n      dup1\n      0x2f2ff15d\n      eq\n      tag_7\n      jumpi\n    tag_2:\n      0x00\n      dup1\n      revert\n        /* \"@openzeppelin/contracts@4.4.2/access/AccessControl.sol\":2605:2807  function supportsInterface(bytes4 interfaceId) public view virtual override returns (bool) {... */\n    tag_3:\n      tag_28\n      0x04\n      dup1\n      calldatasize\n      sub\n      dup2\n      add\n      swap1\n      tag_29\n      swap2\n      swap1\n      tag_30\n      jump\t// in\n    tag_29:\n      tag_31\n      jump\t// in\n    tag_28:\n      mload(0x40)\n      tag_32\n      swap2\n      swap1\n      tag_33\n      jump\t// in\n    tag_32:\n      mload(0x40)\n      dup1\n      swap2\n      sub\n      swap1\n      return\n        /* \"contracts/Founding Citizens NFT Sale Privileged Buyers List Storage.sol\":3306:3661  function addressHasCoupon(address address_, uint discountRate) public view returns(bool) {\r... */\n    tag_4:\n      tag_34\n      0x04\n      dup1\n      calldatasize\n      sub\n      dup2\n      add\n      swap1\n      tag_35\n      swap2\n      swap1\n      tag_36\n      jump\t// in\n    tag_35:\n      tag_37\n      jump\t// in\n    tag_34:\n      mload(0x40)\n      tag_38\n      swap2\n      swap1\n      tag_33\n      jump\t// in\n    tag_38:\n      mload(0x40)\n      dup1\n      swap2\n      sub\n      swap1\n      return\n        /* \"@openzeppelin/contracts@4.4.2/access/AccessControl.sol\":3977:4098  function getRoleAdmin(bytes32 role) public view override returns (bytes32) {... */\n    tag_5:\n      tag_39\n      0x04\n      dup1\n      calldatasize\n      sub\n      dup2\n      add\n      swap1\n      tag_40\n      swap2\n      swap1\n      tag_41\n      jump\t// in\n    tag_40:\n      tag_42\n      jump\t// in\n    tag_39:\n      mload(0x40)\n      tag_43\n      swap2\n      swap1\n      tag_44\n      jump\t// in\n    tag_43:\n      mload(0x40)\n      dup1\n      swap2\n      sub\n      swap1\n      return\n        /* \"contracts/Founding Citizens NFT Sale Privileged Buyers List Storage.sol\":1994:2066  bytes32 public constant COUPON_USER_ROLE = keccak256(\"COUPON_USER_ROLE\") */\n    tag_6:\n      tag_45\n      tag_46\n      jump\t// in\n    tag_45:\n      mload(0x40)\n      tag_47\n      swap2\n      swap1\n      tag_44\n      jump\t// in\n    tag_47:\n      mload(0x40)\n      dup1\n      swap2\n      sub\n      swap1\n      return\n        /* \"@openzeppelin/contracts@4.4.2/access/AccessControl.sol\":4348:4493  function grantRole(bytes32 role, address account) public virtual override onlyRole(getRoleAdmin(role)) {... */\n    tag_7:\n      tag_48\n      0x04\n      dup1\n      calldatasize\n      sub\n      dup2\n      add\n      swap1\n      tag_49\n      swap2\n      swap1\n      tag_50\n      jump\t// in\n    tag_49:\n      tag_51\n      jump\t// in\n    tag_48:\n      stop\n        /* \"@openzeppelin/contracts@4.4.2/access/AccessControl.sol\":5365:5579  function renounceRole(bytes32 role, address account) public virtual override {... */\n    tag_8:\n      tag_52\n      0x04\n      dup1\n      calldatasize\n      sub\n      dup2\n      add\n      swap1\n      tag_53\n      swap2\n      swap1\n      tag_50\n      jump\t// in\n    tag_53:\n      tag_54\n      jump\t// in\n    tag_52:\n      stop\n        /* \"contracts/Founding Citizens NFT Sale Privileged Buyers List Storage.sol\":3669:4287  function addAddress(address address_) public {\r... */\n    tag_9:\n      tag_55\n      0x04\n      dup1\n      calldatasize\n      sub\n      dup2\n      add\n      swap1\n      tag_56\n      swap2\n      swap1\n      tag_57\n      jump\t// in\n    tag_56:\n      tag_58\n      jump\t// in\n    tag_55:\n      stop\n        /* \"contracts/Founding Citizens NFT Sale Privileged Buyers List Storage.sol\":8182:8575  function useCoupon(address address_, uint discountRate) public {\r... */\n    tag_10:\n      tag_59\n      0x04\n      dup1\n      calldatasize\n      sub\n      dup2\n      add\n      swap1\n      tag_60\n      swap2\n      swap1\n      tag_36\n      jump\t// in\n    tag_60:\n      tag_61\n      jump\t// in\n    tag_59:\n      stop\n        /* \"contracts/Founding Citizens NFT Sale Privileged Buyers List Storage.sol\":5256:6154  function addCoupon(address address_, uint discountRate, uint numberOfUses) public {\r... */\n    tag_11:\n      tag_62\n      0x04\n      dup1\n      calldatasize\n      sub\n      dup2\n      add\n      swap1\n      tag_63\n      swap2\n      swap1\n      tag_64\n      jump\t// in\n    tag_63:\n      tag_65\n      jump\t// in\n    tag_62:\n      stop\n        /* \"contracts/Founding Citizens NFT Sale Privileged Buyers List Storage.sol\":4499:5248  function removeAddress(address address_) public {\r... */\n    tag_12:\n      tag_66\n      0x04\n      dup1\n      calldatasize\n      sub\n      dup2\n      add\n      swap1\n      tag_67\n      swap2\n      swap1\n      tag_57\n      jump\t// in\n    tag_67:\n      tag_68\n      jump\t// in\n    tag_66:\n      stop\n        /* \"contracts/Founding Citizens NFT Sale Privileged Buyers List Storage.sol\":1822:1902  bytes32 public constant ADDRESS_MANAGER_ROLE = keccak256(\"ADDRESS_MANAGER_ROLE\") */\n    tag_13:\n      tag_69\n      tag_70\n      jump\t// in\n    tag_69:\n      mload(0x40)\n      tag_71\n      swap2\n      swap1\n      tag_44\n      jump\t// in\n    tag_71:\n      mload(0x40)\n      dup1\n      swap2\n      sub\n      swap1\n      return\n        /* \"contracts/Founding Citizens NFT Sale Privileged Buyers List Storage.sol\":2877:3019  function couponListLength(address address_) public view returns(uint) {\r... */\n    tag_14:\n      tag_72\n      0x04\n      dup1\n      calldatasize\n      sub\n      dup2\n      add\n      swap1\n      tag_73\n      swap2\n      swap1\n      tag_57\n      jump\t// in\n    tag_73:\n      tag_74\n      jump\t// in\n    tag_72:\n      mload(0x40)\n      tag_75\n      swap2\n      swap1\n      tag_76\n      jump\t// in\n    tag_75:\n      mload(0x40)\n      dup1\n      swap2\n      sub\n      swap1\n      return\n        /* \"@openzeppelin/contracts@4.4.2/access/AccessControl.sol\":2894:3031  function hasRole(bytes32 role, address account) public view override returns (bool) {... */\n    tag_15:\n      tag_77\n      0x04\n      dup1\n      calldatasize\n      sub\n      dup2\n      add\n      swap1\n      tag_78\n      swap2\n      swap1\n      tag_50\n      jump\t// in\n    tag_78:\n      tag_79\n      jump\t// in\n    tag_77:\n      mload(0x40)\n      tag_80\n      swap2\n      swap1\n      tag_33\n      jump\t// in\n    tag_80:\n      mload(0x40)\n      dup1\n      swap2\n      sub\n      swap1\n      return\n        /* \"@openzeppelin/contracts@4.4.2/access/AccessControl.sol\":2012:2061  bytes32 public constant DEFAULT_ADMIN_ROLE = 0x00 */\n    tag_16:\n      tag_81\n      tag_82\n      jump\t// in\n    tag_81:\n      mload(0x40)\n      tag_83\n      swap2\n      swap1\n      tag_44\n      jump\t// in\n    tag_83:\n      mload(0x40)\n      dup1\n      swap2\n      sub\n      swap1\n      return\n        /* \"contracts/Founding Citizens NFT Sale Privileged Buyers List Storage.sol\":1909:1987  bytes32 public constant COUPON_MANAGER_ROLE = keccak256(\"COUPON_MANAGER_ROLE\") */\n    tag_17:\n      tag_84\n      tag_85\n      jump\t// in\n    tag_84:\n      mload(0x40)\n      tag_86\n      swap2\n      swap1\n      tag_44\n      jump\t// in\n    tag_86:\n      mload(0x40)\n      dup1\n      swap2\n      sub\n      swap1\n      return\n        /* \"contracts/Founding Citizens NFT Sale Privileged Buyers List Storage.sol\":3027:3141  function addressExists(address address_) public view returns(bool) {\r... */\n    tag_18:\n      tag_87\n      0x04\n      dup1\n      calldatasize\n      sub\n      dup2\n      add\n      swap1\n      tag_88\n      swap2\n      swap1\n      tag_57\n      jump\t// in\n    tag_88:\n      tag_89\n      jump\t// in\n    tag_87:\n      mload(0x40)\n      tag_90\n      swap2\n      swap1\n      tag_33\n      jump\t// in\n    tag_90:\n      mload(0x40)\n      dup1\n      swap2\n      sub\n      swap1\n      return\n        /* \"contracts/Founding Citizens NFT Sale Privileged Buyers List Storage.sol\":7517:8174  function reduceCouponUses(address address_, uint discountRate, uint numberOfUses) public {\r... */\n    tag_19:\n      tag_91\n      0x04\n      dup1\n      calldatasize\n      sub\n      dup2\n      add\n      swap1\n      tag_92\n      swap2\n      swap1\n      tag_64\n      jump\t// in\n    tag_92:\n      tag_93\n      jump\t// in\n    tag_91:\n      stop\n        /* \"contracts/Founding Citizens NFT Sale Privileged Buyers List Storage.sol\":2721:2751  AddressList public addressList */\n    tag_20:\n      tag_94\n      tag_95\n      jump\t// in\n    tag_94:\n      mload(0x40)\n      tag_96\n      swap2\n      swap1\n      tag_76\n      jump\t// in\n    tag_96:\n      mload(0x40)\n      dup1\n      swap2\n      sub\n      swap1\n      return\n        /* \"@openzeppelin/contracts@4.4.2/access/AccessControl.sol\":4727:4874  function revokeRole(bytes32 role, address account) public virtual override onlyRole(getRoleAdmin(role)) {... */\n    tag_21:\n      tag_97\n      0x04\n      dup1\n      calldatasize\n      sub\n      dup2\n      add\n      swap1\n      tag_98\n      swap2\n      swap1\n      tag_50\n      jump\t// in\n    tag_98:\n      tag_99\n      jump\t// in\n    tag_97:\n      stop\n        /* \"contracts/Founding Citizens NFT Sale Privileged Buyers List Storage.sol\":2760:2869  function idOf(address address_) public view returns(uint) {\r... */\n    tag_22:\n      tag_100\n      0x04\n      dup1\n      calldatasize\n      sub\n      dup2\n      add\n      swap1\n      tag_101\n      swap2\n      swap1\n      tag_57\n      jump\t// in\n    tag_101:\n      tag_102\n      jump\t// in\n    tag_100:\n      mload(0x40)\n      tag_103\n      swap2\n      swap1\n      tag_76\n      jump\t// in\n    tag_103:\n      mload(0x40)\n      dup1\n      swap2\n      sub\n      swap1\n      return\n        /* \"contracts/Founding Citizens NFT Sale Privileged Buyers List Storage.sol\":6162:6800  function removeCoupon(address address_, uint id) public {\r... */\n    tag_23:\n      tag_104\n      0x04\n      dup1\n      calldatasize\n      sub\n      dup2\n      add\n      swap1\n      tag_105\n      swap2\n      swap1\n      tag_36\n      jump\t// in\n    tag_105:\n      tag_106\n      jump\t// in\n    tag_104:\n      stop\n        /* \"contracts/Founding Citizens NFT Sale Privileged Buyers List Storage.sol\":3149:3298  function addressHasCoupon(address address_) public view returns(bool) {\r... */\n    tag_24:\n      tag_107\n      0x04\n      dup1\n      calldatasize\n      sub\n      dup2\n      add\n      swap1\n      tag_108\n      swap2\n      swap1\n      tag_57\n      jump\t// in\n    tag_108:\n      tag_109\n      jump\t// in\n    tag_107:\n      mload(0x40)\n      tag_110\n      swap2\n      swap1\n      tag_33\n      jump\t// in\n    tag_110:\n      mload(0x40)\n      dup1\n      swap2\n      sub\n      swap1\n      return\n        /* \"@openzeppelin/contracts@4.4.2/access/AccessControl.sol\":2605:2807  function supportsInterface(bytes4 interfaceId) public view virtual override returns (bool) {... */\n    tag_31:\n        /* \"@openzeppelin/contracts@4.4.2/access/AccessControl.sol\":2690:2694  bool */\n      0x00\n        /* \"@openzeppelin/contracts@4.4.2/access/AccessControl.sol\":2728:2760  type(IAccessControl).interfaceId */\n      0x7965db0b00000000000000000000000000000000000000000000000000000000\n        /* \"@openzeppelin/contracts@4.4.2/access/AccessControl.sol\":2713:2760  interfaceId == type(IAccessControl).interfaceId */\n      not(0xffffffffffffffffffffffffffffffffffffffffffffffffffffffff)\n      and\n        /* \"@openzeppelin/contracts@4.4.2/access/AccessControl.sol\":2713:2724  interfaceId */\n      dup3\n        /* \"@openzeppelin/contracts@4.4.2/access/AccessControl.sol\":2713:2760  interfaceId == type(IAccessControl).interfaceId */\n      not(0xffffffffffffffffffffffffffffffffffffffffffffffffffffffff)\n      and\n      eq\n        /* \"@openzeppelin/contracts@4.4.2/access/AccessControl.sol\":2713:2800  interfaceId == type(IAccessControl).interfaceId || super.supportsInterface(interfaceId) */\n      dup1\n      tag_112\n      jumpi\n      pop\n        /* \"@openzeppelin/contracts@4.4.2/access/AccessControl.sol\":2764:2800  super.supportsInterface(interfaceId) */\n      tag_113\n        /* \"@openzeppelin/contracts@4.4.2/access/AccessControl.sol\":2788:2799  interfaceId */\n      dup3\n        /* \"@openzeppelin/contracts@4.4.2/access/AccessControl.sol\":2764:2787  super.supportsInterface */\n      tag_114\n        /* \"@openzeppelin/contracts@4.4.2/access/AccessControl.sol\":2764:2800  super.supportsInterface(interfaceId) */\n      jump\t// in\n    tag_113:\n        /* \"@openzeppelin/contracts@4.4.2/access/AccessControl.sol\":2713:2800  interfaceId == type(IAccessControl).interfaceId || super.supportsInterface(interfaceId) */\n    tag_112:\n        /* \"@openzeppelin/contracts@4.4.2/access/AccessControl.sol\":2706:2800  return interfaceId == type(IAccessControl).interfaceId || super.supportsInterface(interfaceId) */\n      swap1\n      pop\n        /* \"@openzeppelin/contracts@4.4.2/access/AccessControl.sol\":2605:2807  function supportsInterface(bytes4 interfaceId) public view virtual override returns (bool) {... */\n      swap2\n      swap1\n      pop\n      jump\t// out\n        /* \"contracts/Founding Citizens NFT Sale Privileged Buyers List Storage.sol\":3306:3661  function addressHasCoupon(address address_, uint discountRate) public view returns(bool) {\r... */\n    tag_37:\n        /* \"contracts/Founding Citizens NFT Sale Privileged Buyers List Storage.sol\":3389:3393  bool */\n      0x00\n        /* \"contracts/Founding Citizens NFT Sale Privileged Buyers List Storage.sol\":3411:3417  uint i */\n      dup1\n        /* \"contracts/Founding Citizens NFT Sale Privileged Buyers List Storage.sol\":3420:3421  0 */\n      0x00\n        /* \"contracts/Founding Citizens NFT Sale Privileged Buyers List Storage.sol\":3411:3421  uint i = 0 */\n      swap1\n      pop\n        /* \"contracts/Founding Citizens NFT Sale Privileged Buyers List Storage.sol\":3406:3631  for (uint i = 0; i < couponListLength(address_); i++) {\r... */\n    tag_116:\n        /* \"contracts/Founding Citizens NFT Sale Privileged Buyers List Storage.sol\":3427:3453  couponListLength(address_) */\n      tag_119\n        /* \"contracts/Founding Citizens NFT Sale Privileged Buyers List Storage.sol\":3444:3452  address_ */\n      dup5\n        /* \"contracts/Founding Citizens NFT Sale Privileged Buyers List Storage.sol\":3427:3443  couponListLength */\n      tag_74\n        /* \"contracts/Founding Citizens NFT Sale Privileged Buyers List Storage.sol\":3427:3453  couponListLength(address_) */\n      jump\t// in\n    tag_119:\n        /* \"contracts/Founding Citizens NFT Sale Privileged Buyers List Storage.sol\":3423:3424  i */\n      dup2\n        /* \"contracts/Founding Citizens NFT Sale Privileged Buyers List Storage.sol\":3423:3453  i < couponListLength(address_) */\n      lt\n        /* \"contracts/Founding Citizens NFT Sale Privileged Buyers List Storage.sol\":3406:3631  for (uint i = 0; i < couponListLength(address_); i++) {\r... */\n      iszero\n      tag_117\n      jumpi\n        /* \"contracts/Founding Citizens NFT Sale Privileged Buyers List Storage.sol\":3546:3558  discountRate */\n      dup3\n        /* \"contracts/Founding Citizens NFT Sale Privileged Buyers List Storage.sol\":3479:3490  addressList */\n      0x01\n        /* \"contracts/Founding Citizens NFT Sale Privileged Buyers List Storage.sol\":3479:3502  addressList.couponLists */\n      0x03\n      add\n        /* \"contracts/Founding Citizens NFT Sale Privileged Buyers List Storage.sol\":3479:3518  addressList.couponLists[idOf(address_)] */\n      0x00\n        /* \"contracts/Founding Citizens NFT Sale Privileged Buyers List Storage.sol\":3503:3517  idOf(address_) */\n      tag_120\n        /* \"contracts/Founding Citizens NFT Sale Privileged Buyers List Storage.sol\":3508:3516  address_ */\n      dup8\n        /* \"contracts/Founding Citizens NFT Sale Privileged Buyers List Storage.sol\":3503:3507  idOf */\n      tag_102\n        /* \"contracts/Founding Citizens NFT Sale Privileged Buyers List Storage.sol\":3503:3517  idOf(address_) */\n      jump\t// in\n    tag_120:\n        /* \"contracts/Founding Citizens NFT Sale Privileged Buyers List Storage.sol\":3479:3518  addressList.couponLists[idOf(address_)] */\n      dup2\n      mstore\n      0x20\n      add\n      swap1\n      dup2\n      mstore\n      0x20\n      add\n      0x00\n      keccak256\n        /* \"contracts/Founding Citizens NFT Sale Privileged Buyers List Storage.sol\":3479:3526  addressList.couponLists[idOf(address_)].coupons */\n      0x01\n      add\n        /* \"contracts/Founding Citizens NFT Sale Privileged Buyers List Storage.sol\":3479:3529  addressList.couponLists[idOf(address_)].coupons[i] */\n      0x00\n        /* \"contracts/Founding Citizens NFT Sale Privileged Buyers List Storage.sol\":3527:3528  i */\n      dup4\n        /* \"contracts/Founding Citizens NFT Sale Privileged Buyers List Storage.sol\":3479:3529  addressList.couponLists[idOf(address_)].coupons[i] */\n      dup2\n      mstore\n      0x20\n      add\n      swap1\n      dup2\n      mstore\n      0x20\n      add\n      0x00\n      keccak256\n        /* \"contracts/Founding Citizens NFT Sale Privileged Buyers List Storage.sol\":3479:3542  addressList.couponLists[idOf(address_)].coupons[i].discountRate */\n      0x00\n      add\n      sload\n        /* \"contracts/Founding Citizens NFT Sale Privileged Buyers List Storage.sol\":3479:3558  addressList.couponLists[idOf(address_)].coupons[i].discountRate == discountRate */\n      eq\n        /* \"contracts/Founding Citizens NFT Sale Privileged Buyers List Storage.sol\":3475:3620  if (addressList.couponLists[idOf(address_)].coupons[i].discountRate == discountRate) \r... */\n      iszero\n      tag_121\n      jumpi\n        /* \"contracts/Founding Citizens NFT Sale Privileged Buyers List Storage.sol\":3600:3604  true */\n      0x01\n        /* \"contracts/Founding Citizens NFT Sale Privileged Buyers List Storage.sol\":3593:3604  return true */\n      swap2\n      pop\n      pop\n      jump(tag_115)\n        /* \"contracts/Founding Citizens NFT Sale Privileged Buyers List Storage.sol\":3475:3620  if (addressList.couponLists[idOf(address_)].coupons[i].discountRate == discountRate) \r... */\n    tag_121:\n        /* \"contracts/Founding Citizens NFT Sale Privileged Buyers List Storage.sol\":3455:3458  i++ */\n      dup1\n      dup1\n      tag_122\n      swap1\n      tag_123\n      jump\t// in\n    tag_122:\n      swap2\n      pop\n      pop\n        /* \"contracts/Founding Citizens NFT Sale Privileged Buyers List Storage.sol\":3406:3631  for (uint i = 0; i < couponListLength(address_); i++) {\r... */\n      jump(tag_116)\n    tag_117:\n      pop\n        /* \"contracts/Founding Citizens NFT Sale Privileged Buyers List Storage.sol\":3648:3653  false */\n      0x00\n        /* \"contracts/Founding Citizens NFT Sale Privileged Buyers List Storage.sol\":3641:3653  return false */\n      swap1\n      pop\n        /* \"contracts/Founding Citizens NFT Sale Privileged Buyers List Storage.sol\":3306:3661  function addressHasCoupon(address address_, uint discountRate) public view returns(bool) {\r... */\n    tag_115:\n      swap3\n      swap2\n      pop\n      pop\n      jump\t// out\n        /* \"@openzeppelin/contracts@4.4.2/access/AccessControl.sol\":3977:4098  function getRoleAdmin(bytes32 role) public view override returns (bytes32) {... */\n    tag_42:\n        /* \"@openzeppelin/contracts@4.4.2/access/AccessControl.sol\":4043:4050  bytes32 */\n      0x00\n        /* \"@openzeppelin/contracts@4.4.2/access/AccessControl.sol\":4069:4075  _roles */\n      dup1\n        /* \"@openzeppelin/contracts@4.4.2/access/AccessControl.sol\":4069:4081  _roles[role] */\n      0x00\n        /* \"@openzeppelin/contracts@4.4.2/access/AccessControl.sol\":4076:4080  role */\n      dup4\n        /* \"@openzeppelin/contracts@4.4.2/access/AccessControl.sol\":4069:4081  _roles[role] */\n      dup2\n      mstore\n      0x20\n      add\n      swap1\n      dup2\n      mstore\n      0x20\n      add\n      0x00\n      keccak256\n        /* \"@openzeppelin/contracts@4.4.2/access/AccessControl.sol\":4069:4091  _roles[role].adminRole */\n      0x01\n      add\n      sload\n        /* \"@openzeppelin/contracts@4.4.2/access/AccessControl.sol\":4062:4091  return _roles[role].adminRole */\n      swap1\n      pop\n        /* \"@openzeppelin/contracts@4.4.2/access/AccessControl.sol\":3977:4098  function getRoleAdmin(bytes32 role) public view override returns (bytes32) {... */\n      swap2\n      swap1\n      pop\n      jump\t// out\n        /* \"contracts/Founding Citizens NFT Sale Privileged Buyers List Storage.sol\":1994:2066  bytes32 public constant COUPON_USER_ROLE = keccak256(\"COUPON_USER_ROLE\") */\n    tag_46:\n        /* \"contracts/Founding Citizens NFT Sale Privileged Buyers List Storage.sol\":2037:2066  keccak256(\"COUPON_USER_ROLE\") */\n      0xad8e13ade6b5588e1a6049d70c1678b839105f007c5f6fb969ad8b1456160eac\n        /* \"contracts/Founding Citizens NFT Sale Privileged Buyers List Storage.sol\":1994:2066  bytes32 public constant COUPON_USER_ROLE = keccak256(\"COUPON_USER_ROLE\") */\n      dup2\n      jump\t// out\n        /* \"@openzeppelin/contracts@4.4.2/access/AccessControl.sol\":4348:4493  function grantRole(bytes32 role, address account) public virtual override onlyRole(getRoleAdmin(role)) {... */\n    tag_51:\n        /* \"@openzeppelin/contracts@4.4.2/access/AccessControl.sol\":4431:4449  getRoleAdmin(role) */\n      tag_125\n        /* \"@openzeppelin/contracts@4.4.2/access/AccessControl.sol\":4444:4448  role */\n      dup3\n        /* \"@openzeppelin/contracts@4.4.2/access/AccessControl.sol\":4431:4443  getRoleAdmin */\n      tag_42\n        /* \"@openzeppelin/contracts@4.4.2/access/AccessControl.sol\":4431:4449  getRoleAdmin(role) */\n      jump\t// in\n    tag_125:\n        /* \"@openzeppelin/contracts@4.4.2/access/AccessControl.sol\":2490:2520  _checkRole(role, _msgSender()) */\n      tag_127\n        /* \"@openzeppelin/contracts@4.4.2/access/AccessControl.sol\":2501:2505  role */\n      dup2\n        /* \"@openzeppelin/contracts@4.4.2/access/AccessControl.sol\":2507:2519  _msgSender() */\n      tag_128\n        /* \"@openzeppelin/contracts@4.4.2/access/AccessControl.sol\":2507:2517  _msgSender */\n      tag_129\n        /* \"@openzeppelin/contracts@4.4.2/access/AccessControl.sol\":2507:2519  _msgSender() */\n      jump\t// in\n    tag_128:\n        /* \"@openzeppelin/contracts@4.4.2/access/AccessControl.sol\":2490:2500  _checkRole */\n      tag_130\n        /* \"@openzeppelin/contracts@4.4.2/access/AccessControl.sol\":2490:2520  _checkRole(role, _msgSender()) */\n      jump\t// in\n    tag_127:\n        /* \"@openzeppelin/contracts@4.4.2/access/AccessControl.sol\":4461:4486  _grantRole(role, account) */\n      tag_132\n        /* \"@openzeppelin/contracts@4.4.2/access/AccessControl.sol\":4472:4476  role */\n      dup4\n        /* \"@openzeppelin/contracts@4.4.2/access/AccessControl.sol\":4478:4485  account */\n      dup4\n        /* \"@openzeppelin/contracts@4.4.2/access/AccessControl.sol\":4461:4471  _grantRole */\n      tag_133\n        /* \"@openzeppelin/contracts@4.4.2/access/AccessControl.sol\":4461:4486  _grantRole(role, account) */\n      jump\t// in\n    tag_132:\n        /* \"@openzeppelin/contracts@4.4.2/access/AccessControl.sol\":4348:4493  function grantRole(bytes32 role, address account) public virtual override onlyRole(getRoleAdmin(role)) {... */\n      pop\n      pop\n      pop\n      jump\t// out\n        /* \"@openzeppelin/contracts@4.4.2/access/AccessControl.sol\":5365:5579  function renounceRole(bytes32 role, address account) public virtual override {... */\n    tag_54:\n        /* \"@openzeppelin/contracts@4.4.2/access/AccessControl.sol\":5471:5483  _msgSender() */\n      tag_135\n        /* \"@openzeppelin/contracts@4.4.2/access/AccessControl.sol\":5471:5481  _msgSender */\n      tag_129\n        /* \"@openzeppelin/contracts@4.4.2/access/AccessControl.sol\":5471:5483  _msgSender() */\n      jump\t// in\n    tag_135:\n        /* \"@openzeppelin/contracts@4.4.2/access/AccessControl.sol\":5460:5483  account == _msgSender() */\n      0xffffffffffffffffffffffffffffffffffffffff\n      and\n        /* \"@openzeppelin/contracts@4.4.2/access/AccessControl.sol\":5460:5467  account */\n      dup2\n        /* \"@openzeppelin/contracts@4.4.2/access/AccessControl.sol\":5460:5483  account == _msgSender() */\n      0xffffffffffffffffffffffffffffffffffffffff\n      and\n      eq\n        /* \"@openzeppelin/contracts@4.4.2/access/AccessControl.sol\":5452:5535  require(account == _msgSender(), \"AccessControl: can only renounce roles for self\") */\n      tag_136\n      jumpi\n      mload(0x40)\n      0x08c379a000000000000000000000000000000000000000000000000000000000\n      dup2\n      mstore\n      0x04\n      add\n      tag_137\n      swap1\n      tag_138\n      jump\t// in\n    tag_137:\n      mload(0x40)\n      dup1\n      swap2\n      sub\n      swap1\n      revert\n    tag_136:\n        /* \"@openzeppelin/contracts@4.4.2/access/AccessControl.sol\":5546:5572  _revokeRole(role, account) */\n      tag_139\n        /* \"@openzeppelin/contracts@4.4.2/access/AccessControl.sol\":5558:5562  role */\n      dup3\n        /* \"@openzeppelin/contracts@4.4.2/access/AccessControl.sol\":5564:5571  account */\n      dup3\n        /* \"@openzeppelin/contracts@4.4.2/access/AccessControl.sol\":5546:5557  _revokeRole */\n      tag_140\n        /* \"@openzeppelin/contracts@4.4.2/access/AccessControl.sol\":5546:5572  _revokeRole(role, account) */\n      jump\t// in\n    tag_139:\n        /* \"@openzeppelin/contracts@4.4.2/access/AccessControl.sol\":5365:5579  function renounceRole(bytes32 role, address account) public virtual override {... */\n      pop\n      pop\n      jump\t// out\n        /* \"contracts/Founding Citizens NFT Sale Privileged Buyers List Storage.sol\":3669:4287  function addAddress(address address_) public {\r... */\n    tag_58:\n        /* \"contracts/Founding Citizens NFT Sale Privileged Buyers List Storage.sol\":3747:3790  hasRole(ADDRESS_MANAGER_ROLE, _msgSender()) */\n      tag_142\n        /* \"contracts/Founding Citizens NFT Sale Privileged Buyers List Storage.sol\":1869:1902  keccak256(\"ADDRESS_MANAGER_ROLE\") */\n      0x94a986c75919e983aad44b3aa6d84ebcaddf91749edf743e3a487d1a49949a75\n        /* \"contracts/Founding Citizens NFT Sale Privileged Buyers List Storage.sol\":3777:3789  _msgSender() */\n      tag_143\n        /* \"contracts/Founding Citizens NFT Sale Privileged Buyers List Storage.sol\":3777:3787  _msgSender */\n      tag_129\n        /* \"contracts/Founding Citizens NFT Sale Privileged Buyers List Storage.sol\":3777:3789  _msgSender() */\n      jump\t// in\n    tag_143:\n        /* \"contracts/Founding Citizens NFT Sale Privileged Buyers List Storage.sol\":3747:3754  hasRole */\n      tag_79\n        /* \"contracts/Founding Citizens NFT Sale Privileged Buyers List Storage.sol\":3747:3790  hasRole(ADDRESS_MANAGER_ROLE, _msgSender()) */\n      jump\t// in\n    tag_142:\n        /* \"contracts/Founding Citizens NFT Sale Privileged Buyers List Storage.sol\":3747:3850  hasRole(ADDRESS_MANAGER_ROLE, _msgSender()) || \r... */\n      dup1\n      tag_144\n      jumpi\n      pop\n        /* \"contracts/Founding Citizens NFT Sale Privileged Buyers List Storage.sol\":3808:3850  hasRole(COUPON_MANAGER_ROLE, _msgSender()) */\n      tag_145\n        /* \"contracts/Founding Citizens NFT Sale Privileged Buyers List Storage.sol\":1955:1987  keccak256(\"COUPON_MANAGER_ROLE\") */\n      0x3ec4e68565b7b1587aaccbcf2b5911e829e236602dc6d0fe89c50e09bdd019b4\n        /* \"contracts/Founding Citizens NFT Sale Privileged Buyers List Storage.sol\":3837:3849  _msgSender() */\n      tag_146\n        /* \"contracts/Founding Citizens NFT Sale Privileged Buyers List Storage.sol\":3837:3847  _msgSender */\n      tag_129\n        /* \"contracts/Founding Citizens NFT Sale Privileged Buyers List Storage.sol\":3837:3849  _msgSender() */\n      jump\t// in\n    tag_146:\n        /* \"contracts/Founding Citizens NFT Sale Privileged Buyers List Storage.sol\":3808:3815  hasRole */\n      tag_79\n        /* \"contracts/Founding Citizens NFT Sale Privileged Buyers List Storage.sol\":3808:3850  hasRole(COUPON_MANAGER_ROLE, _msgSender()) */\n      jump\t// in\n    tag_145:\n        /* \"contracts/Founding Citizens NFT Sale Privileged Buyers List Storage.sol\":3747:3850  hasRole(ADDRESS_MANAGER_ROLE, _msgSender()) || \r... */\n    tag_144:\n        /* \"contracts/Founding Citizens NFT Sale Privileged Buyers List Storage.sol\":3747:3906  hasRole(ADDRESS_MANAGER_ROLE, _msgSender()) || \r... */\n      dup1\n      tag_147\n      jumpi\n      pop\n        /* \"contracts/Founding Citizens NFT Sale Privileged Buyers List Storage.sol\":3867:3906  hasRole(COUPON_USER_ROLE, _msgSender()) */\n      tag_148\n        /* \"contracts/Founding Citizens NFT Sale Privileged Buyers List Storage.sol\":2037:2066  keccak256(\"COUPON_USER_ROLE\") */\n      0xad8e13ade6b5588e1a6049d70c1678b839105f007c5f6fb969ad8b1456160eac\n        /* \"contracts/Founding Citizens NFT Sale Privileged Buyers List Storage.sol\":3893:3905  _msgSender() */\n      tag_149\n        /* \"contracts/Founding Citizens NFT Sale Privileged Buyers List Storage.sol\":3893:3903  _msgSender */\n      tag_129\n        /* \"contracts/Founding Citizens NFT Sale Privileged Buyers List Storage.sol\":3893:3905  _msgSender() */\n      jump\t// in\n    tag_149:\n        /* \"contracts/Founding Citizens NFT Sale Privileged Buyers List Storage.sol\":3867:3874  hasRole */\n      tag_79\n        /* \"contracts/Founding Citizens NFT Sale Privileged Buyers List Storage.sol\":3867:3906  hasRole(COUPON_USER_ROLE, _msgSender()) */\n      jump\t// in\n    tag_148:\n        /* \"contracts/Founding Citizens NFT Sale Privileged Buyers List Storage.sol\":3747:3906  hasRole(ADDRESS_MANAGER_ROLE, _msgSender()) || \r... */\n    tag_147:\n        /* \"contracts/Founding Citizens NFT Sale Privileged Buyers List Storage.sol\":3747:3964  hasRole(ADDRESS_MANAGER_ROLE, _msgSender()) || \r... */\n      dup1\n      tag_150\n      jumpi\n      pop\n        /* \"contracts/Founding Citizens NFT Sale Privileged Buyers List Storage.sol\":3923:3964  hasRole(DEFAULT_ADMIN_ROLE, _msgSender()) */\n      tag_151\n        /* \"@openzeppelin/contracts@4.4.2/access/AccessControl.sol\":2057:2061  0x00 */\n      0x00\n        /* \"contracts/Founding Citizens NFT Sale Privileged Buyers List Storage.sol\":3931:3949  DEFAULT_ADMIN_ROLE */\n      dup1\n      shl\n        /* \"contracts/Founding Citizens NFT Sale Privileged Buyers List Storage.sol\":3951:3963  _msgSender() */\n      tag_152\n        /* \"contracts/Founding Citizens NFT Sale Privileged Buyers List Storage.sol\":3951:3961  _msgSender */\n      tag_129\n        /* \"contracts/Founding Citizens NFT Sale Privileged Buyers List Storage.sol\":3951:3963  _msgSender() */\n      jump\t// in\n    tag_152:\n        /* \"contracts/Founding Citizens NFT Sale Privileged Buyers List Storage.sol\":3923:3930  hasRole */\n      tag_79\n        /* \"contracts/Founding Citizens NFT Sale Privileged Buyers List Storage.sol\":3923:3964  hasRole(DEFAULT_ADMIN_ROLE, _msgSender()) */\n      jump\t// in\n    tag_151:\n        /* \"contracts/Founding Citizens NFT Sale Privileged Buyers List Storage.sol\":3747:3964  hasRole(ADDRESS_MANAGER_ROLE, _msgSender()) || \r... */\n    tag_150:\n        /* \"contracts/Founding Citizens NFT Sale Privileged Buyers List Storage.sol\":3725:4075  require(\r... */\n      tag_153\n      jumpi\n      mload(0x40)\n      0x08c379a000000000000000000000000000000000000000000000000000000000\n      dup2\n      mstore\n      0x04\n      add\n      tag_154\n      swap1\n      tag_155\n      jump\t// in\n    tag_154:\n      mload(0x40)\n      dup1\n      swap2\n      sub\n      swap1\n      revert\n    tag_153:\n        /* \"contracts/Founding Citizens NFT Sale Privileged Buyers List Storage.sol\":4086:4097  addressList */\n      0x01\n        /* \"contracts/Founding Citizens NFT Sale Privileged Buyers List Storage.sol\":4086:4104  addressList.length */\n      0x00\n      add\n      0x00\n        /* \"contracts/Founding Citizens NFT Sale Privileged Buyers List Storage.sol\":4086:4106  addressList.length++ */\n      dup2\n      sload\n      dup1\n      swap3\n      swap2\n      swap1\n      tag_156\n      swap1\n      tag_123\n      jump\t// in\n    tag_156:\n      swap2\n      swap1\n      pop\n      sstore\n      pop\n        /* \"contracts/Founding Citizens NFT Sale Privileged Buyers List Storage.sol\":4161:4169  address_ */\n      dup1\n        /* \"contracts/Founding Citizens NFT Sale Privileged Buyers List Storage.sol\":4117:4128  addressList */\n      0x01\n        /* \"contracts/Founding Citizens NFT Sale Privileged Buyers List Storage.sol\":4117:4138  addressList.addresses */\n      dup1\n      add\n        /* \"contracts/Founding Citizens NFT Sale Privileged Buyers List Storage.sol\":4117:4158  addressList.addresses[addressList.length] */\n      0x00\n        /* \"contracts/Founding Citizens NFT Sale Privileged Buyers List Storage.sol\":4139:4150  addressList */\n      0x01\n        /* \"contracts/Founding Citizens NFT Sale Privileged Buyers List Storage.sol\":4139:4157  addressList.length */\n      0x00\n      add\n      sload\n        /* \"contracts/Founding Citizens NFT Sale Privileged Buyers List Storage.sol\":4117:4158  addressList.addresses[addressList.length] */\n      dup2\n      mstore\n      0x20\n      add\n      swap1\n      dup2\n      mstore\n      0x20\n      add\n      0x00\n      keccak256\n      0x00\n        /* \"contracts/Founding Citizens NFT Sale Privileged Buyers List Storage.sol\":4117:4169  addressList.addresses[addressList.length] = address_ */\n      0x0100\n      exp\n      dup2\n      sload\n      dup2\n      0xffffffffffffffffffffffffffffffffffffffff\n      mul\n      not\n      and\n      swap1\n      dup4\n      0xffffffffffffffffffffffffffffffffffffffff\n      and\n      mul\n      or\n      swap1\n      sstore\n      pop\n        /* \"contracts/Founding Citizens NFT Sale Privileged Buyers List Storage.sol\":4261:4272  addressList */\n      0x01\n        /* \"contracts/Founding Citizens NFT Sale Privileged Buyers List Storage.sol\":4261:4279  addressList.length */\n      0x00\n      add\n      sload\n        /* \"contracts/Founding Citizens NFT Sale Privileged Buyers List Storage.sol\":4233:4244  addressList */\n      0x01\n        /* \"contracts/Founding Citizens NFT Sale Privileged Buyers List Storage.sol\":4233:4248  addressList.ids */\n      0x02\n      add\n        /* \"contracts/Founding Citizens NFT Sale Privileged Buyers List Storage.sol\":4233:4258  addressList.ids[address_] */\n      0x00\n        /* \"contracts/Founding Citizens NFT Sale Privileged Buyers List Storage.sol\":4249:4257  address_ */\n      dup4\n        /* \"contracts/Founding Citizens NFT Sale Privileged Buyers List Storage.sol\":4233:4258  addressList.ids[address_] */\n      0xffffffffffffffffffffffffffffffffffffffff\n      and\n      0xffffffffffffffffffffffffffffffffffffffff\n      and\n      dup2\n      mstore\n      0x20\n      add\n      swap1\n      dup2\n      mstore\n      0x20\n      add\n      0x00\n      keccak256\n        /* \"contracts/Founding Citizens NFT Sale Privileged Buyers List Storage.sol\":4233:4279  addressList.ids[address_] = addressList.length */\n      dup2\n      swap1\n      sstore\n      pop\n        /* \"contracts/Founding Citizens NFT Sale Privileged Buyers List Storage.sol\":3669:4287  function addAddress(address address_) public {\r... */\n      pop\n      jump\t// out\n        /* \"contracts/Founding Citizens NFT Sale Privileged Buyers List Storage.sol\":8182:8575  function useCoupon(address address_, uint discountRate) public {\r... */\n    tag_61:\n        /* \"contracts/Founding Citizens NFT Sale Privileged Buyers List Storage.sol\":8278:8320  hasRole(COUPON_MANAGER_ROLE, _msgSender()) */\n      tag_158\n        /* \"contracts/Founding Citizens NFT Sale Privileged Buyers List Storage.sol\":1955:1987  keccak256(\"COUPON_MANAGER_ROLE\") */\n      0x3ec4e68565b7b1587aaccbcf2b5911e829e236602dc6d0fe89c50e09bdd019b4\n        /* \"contracts/Founding Citizens NFT Sale Privileged Buyers List Storage.sol\":8307:8319  _msgSender() */\n      tag_159\n        /* \"contracts/Founding Citizens NFT Sale Privileged Buyers List Storage.sol\":8307:8317  _msgSender */\n      tag_129\n        /* \"contracts/Founding Citizens NFT Sale Privileged Buyers List Storage.sol\":8307:8319  _msgSender() */\n      jump\t// in\n    tag_159:\n        /* \"contracts/Founding Citizens NFT Sale Privileged Buyers List Storage.sol\":8278:8285  hasRole */\n      tag_79\n        /* \"contracts/Founding Citizens NFT Sale Privileged Buyers List Storage.sol\":8278:8320  hasRole(COUPON_MANAGER_ROLE, _msgSender()) */\n      jump\t// in\n    tag_158:\n        /* \"contracts/Founding Citizens NFT Sale Privileged Buyers List Storage.sol\":8278:8376  hasRole(COUPON_MANAGER_ROLE, _msgSender()) ||\r... */\n      dup1\n      tag_160\n      jumpi\n      pop\n        /* \"contracts/Founding Citizens NFT Sale Privileged Buyers List Storage.sol\":8337:8376  hasRole(COUPON_USER_ROLE, _msgSender()) */\n      tag_161\n        /* \"contracts/Founding Citizens NFT Sale Privileged Buyers List Storage.sol\":2037:2066  keccak256(\"COUPON_USER_ROLE\") */\n      0xad8e13ade6b5588e1a6049d70c1678b839105f007c5f6fb969ad8b1456160eac\n        /* \"contracts/Founding Citizens NFT Sale Privileged Buyers List Storage.sol\":8363:8375  _msgSender() */\n      tag_162\n        /* \"contracts/Founding Citizens NFT Sale Privileged Buyers List Storage.sol\":8363:8373  _msgSender */\n      tag_129\n        /* \"contracts/Founding Citizens NFT Sale Privileged Buyers List Storage.sol\":8363:8375  _msgSender() */\n      jump\t// in\n    tag_162:\n        /* \"contracts/Founding Citizens NFT Sale Privileged Buyers List Storage.sol\":8337:8344  hasRole */\n      tag_79\n        /* \"contracts/Founding Citizens NFT Sale Privileged Buyers List Storage.sol\":8337:8376  hasRole(COUPON_USER_ROLE, _msgSender()) */\n      jump\t// in\n    tag_161:\n        /* \"contracts/Founding Citizens NFT Sale Privileged Buyers List Storage.sol\":8278:8376  hasRole(COUPON_MANAGER_ROLE, _msgSender()) ||\r... */\n    tag_160:\n        /* \"contracts/Founding Citizens NFT Sale Privileged Buyers List Storage.sol\":8278:8434  hasRole(COUPON_MANAGER_ROLE, _msgSender()) ||\r... */\n      dup1\n      tag_163\n      jumpi\n      pop\n        /* \"contracts/Founding Citizens NFT Sale Privileged Buyers List Storage.sol\":8393:8434  hasRole(DEFAULT_ADMIN_ROLE, _msgSender()) */\n      tag_164\n        /* \"@openzeppelin/contracts@4.4.2/access/AccessControl.sol\":2057:2061  0x00 */\n      0x00\n        /* \"contracts/Founding Citizens NFT Sale Privileged Buyers List Storage.sol\":8401:8419  DEFAULT_ADMIN_ROLE */\n      dup1\n      shl\n        /* \"contracts/Founding Citizens NFT Sale Privileged Buyers List Storage.sol\":8421:8433  _msgSender() */\n      tag_165\n        /* \"contracts/Founding Citizens NFT Sale Privileged Buyers List Storage.sol\":8421:8431  _msgSender */\n      tag_129\n        /* \"contracts/Founding Citizens NFT Sale Privileged Buyers List Storage.sol\":8421:8433  _msgSender() */\n      jump\t// in\n    tag_165:\n        /* \"contracts/Founding Citizens NFT Sale Privileged Buyers List Storage.sol\":8393:8400  hasRole */\n      tag_79\n        /* \"contracts/Founding Citizens NFT Sale Privileged Buyers List Storage.sol\":8393:8434  hasRole(DEFAULT_ADMIN_ROLE, _msgSender()) */\n      jump\t// in\n    tag_164:\n        /* \"contracts/Founding Citizens NFT Sale Privileged Buyers List Storage.sol\":8278:8434  hasRole(COUPON_MANAGER_ROLE, _msgSender()) ||\r... */\n    tag_163:\n        /* \"contracts/Founding Citizens NFT Sale Privileged Buyers List Storage.sol\":8256:8513  require(\r... */\n      tag_166\n      jumpi\n      mload(0x40)\n      0x08c379a000000000000000000000000000000000000000000000000000000000\n      dup2\n      mstore\n      0x04\n      add\n      tag_167\n      swap1\n      tag_168\n      jump\t// in\n    tag_167:\n      mload(0x40)\n      dup1\n      swap2\n      sub\n      swap1\n      revert\n    tag_166:\n        /* \"contracts/Founding Citizens NFT Sale Privileged Buyers List Storage.sol\":8524:8567  reduceCouponUses(address_, discountRate, 1) */\n      tag_169\n        /* \"contracts/Founding Citizens NFT Sale Privileged Buyers List Storage.sol\":8541:8549  address_ */\n      dup3\n        /* \"contracts/Founding Citizens NFT Sale Privileged Buyers List Storage.sol\":8551:8563  discountRate */\n      dup3\n        /* \"contracts/Founding Citizens NFT Sale Privileged Buyers List Storage.sol\":8565:8566  1 */\n      0x01\n        /* \"contracts/Founding Citizens NFT Sale Privileged Buyers List Storage.sol\":8524:8540  reduceCouponUses */\n      tag_93\n        /* \"contracts/Founding Citizens NFT Sale Privileged Buyers List Storage.sol\":8524:8567  reduceCouponUses(address_, discountRate, 1) */\n      jump\t// in\n    tag_169:\n        /* \"contracts/Founding Citizens NFT Sale Privileged Buyers List Storage.sol\":8182:8575  function useCoupon(address address_, uint discountRate) public {\r... */\n      pop\n      pop\n      jump\t// out\n        /* \"contracts/Founding Citizens NFT Sale Privileged Buyers List Storage.sol\":5256:6154  function addCoupon(address address_, uint discountRate, uint numberOfUses) public {\r... */\n    tag_65:\n        /* \"contracts/Founding Citizens NFT Sale Privileged Buyers List Storage.sol\":5371:5413  hasRole(COUPON_MANAGER_ROLE, _msgSender()) */\n      tag_171\n        /* \"contracts/Founding Citizens NFT Sale Privileged Buyers List Storage.sol\":1955:1987  keccak256(\"COUPON_MANAGER_ROLE\") */\n      0x3ec4e68565b7b1587aaccbcf2b5911e829e236602dc6d0fe89c50e09bdd019b4\n        /* \"contracts/Founding Citizens NFT Sale Privileged Buyers List Storage.sol\":5400:5412  _msgSender() */\n      tag_172\n        /* \"contracts/Founding Citizens NFT Sale Privileged Buyers List Storage.sol\":5400:5410  _msgSender */\n      tag_129\n        /* \"contracts/Founding Citizens NFT Sale Privileged Buyers List Storage.sol\":5400:5412  _msgSender() */\n      jump\t// in\n    tag_172:\n        /* \"contracts/Founding Citizens NFT Sale Privileged Buyers List Storage.sol\":5371:5378  hasRole */\n      tag_79\n        /* \"contracts/Founding Citizens NFT Sale Privileged Buyers List Storage.sol\":5371:5413  hasRole(COUPON_MANAGER_ROLE, _msgSender()) */\n      jump\t// in\n    tag_171:\n        /* \"contracts/Founding Citizens NFT Sale Privileged Buyers List Storage.sol\":5371:5471  hasRole(COUPON_MANAGER_ROLE, _msgSender()) ||\r... */\n      dup1\n      tag_173\n      jumpi\n      pop\n        /* \"contracts/Founding Citizens NFT Sale Privileged Buyers List Storage.sol\":5430:5471  hasRole(DEFAULT_ADMIN_ROLE, _msgSender()) */\n      tag_174\n        /* \"@openzeppelin/contracts@4.4.2/access/AccessControl.sol\":2057:2061  0x00 */\n      0x00\n        /* \"contracts/Founding Citizens NFT Sale Privileged Buyers List Storage.sol\":5438:5456  DEFAULT_ADMIN_ROLE */\n      dup1\n      shl\n        /* \"contracts/Founding Citizens NFT Sale Privileged Buyers List Storage.sol\":5458:5470  _msgSender() */\n      tag_175\n        /* \"contracts/Founding Citizens NFT Sale Privileged Buyers List Storage.sol\":5458:5468  _msgSender */\n      tag_129\n        /* \"contracts/Founding Citizens NFT Sale Privileged Buyers List Storage.sol\":5458:5470  _msgSender() */\n      jump\t// in\n    tag_175:\n        /* \"contracts/Founding Citizens NFT Sale Privileged Buyers List Storage.sol\":5430:5437  hasRole */\n      tag_79\n        /* \"contracts/Founding Citizens NFT Sale Privileged Buyers List Storage.sol\":5430:5471  hasRole(DEFAULT_ADMIN_ROLE, _msgSender()) */\n      jump\t// in\n    tag_174:\n        /* \"contracts/Founding Citizens NFT Sale Privileged Buyers List Storage.sol\":5371:5471  hasRole(COUPON_MANAGER_ROLE, _msgSender()) ||\r... */\n    tag_173:\n        /* \"contracts/Founding Citizens NFT Sale Privileged Buyers List Storage.sol\":5349:5536  require(\r... */\n      tag_176\n      jumpi\n      mload(0x40)\n      0x08c379a000000000000000000000000000000000000000000000000000000000\n      dup2\n      mstore\n      0x04\n      add\n      tag_177\n      swap1\n      tag_178\n      jump\t// in\n    tag_177:\n      mload(0x40)\n      dup1\n      swap2\n      sub\n      swap1\n      revert\n    tag_176:\n        /* \"contracts/Founding Citizens NFT Sale Privileged Buyers List Storage.sol\":5552:5575  addressExists(address_) */\n      tag_179\n        /* \"contracts/Founding Citizens NFT Sale Privileged Buyers List Storage.sol\":5566:5574  address_ */\n      dup4\n        /* \"contracts/Founding Citizens NFT Sale Privileged Buyers List Storage.sol\":5552:5565  addressExists */\n      tag_89\n        /* \"contracts/Founding Citizens NFT Sale Privileged Buyers List Storage.sol\":5552:5575  addressExists(address_) */\n      jump\t// in\n    tag_179:\n        /* \"contracts/Founding Citizens NFT Sale Privileged Buyers List Storage.sol\":5547:5624  if (!addressExists(address_)) {\r... */\n      tag_180\n      jumpi\n        /* \"contracts/Founding Citizens NFT Sale Privileged Buyers List Storage.sol\":5592:5612  addAddress(address_) */\n      tag_181\n        /* \"contracts/Founding Citizens NFT Sale Privileged Buyers List Storage.sol\":5603:5611  address_ */\n      dup4\n        /* \"contracts/Founding Citizens NFT Sale Privileged Buyers List Storage.sol\":5592:5602  addAddress */\n      tag_58\n        /* \"contracts/Founding Citizens NFT Sale Privileged Buyers List Storage.sol\":5592:5612  addAddress(address_) */\n      jump\t// in\n    tag_181:\n        /* \"contracts/Founding Citizens NFT Sale Privileged Buyers List Storage.sol\":5547:5624  if (!addressExists(address_)) {\r... */\n    tag_180:\n        /* \"contracts/Founding Citizens NFT Sale Privileged Buyers List Storage.sol\":5705:5716  addressList */\n      0x01\n        /* \"contracts/Founding Citizens NFT Sale Privileged Buyers List Storage.sol\":5705:5728  addressList.couponLists */\n      0x03\n      add\n        /* \"contracts/Founding Citizens NFT Sale Privileged Buyers List Storage.sol\":5705:5744  addressList.couponLists[idOf(address_)] */\n      0x00\n        /* \"contracts/Founding Citizens NFT Sale Privileged Buyers List Storage.sol\":5729:5743  idOf(address_) */\n      tag_182\n        /* \"contracts/Founding Citizens NFT Sale Privileged Buyers List Storage.sol\":5734:5742  address_ */\n      dup6\n        /* \"contracts/Founding Citizens NFT Sale Privileged Buyers List Storage.sol\":5729:5733  idOf */\n      tag_102\n        /* \"contracts/Founding Citizens NFT Sale Privileged Buyers List Storage.sol\":5729:5743  idOf(address_) */\n      jump\t// in\n    tag_182:\n        /* \"contracts/Founding Citizens NFT Sale Privileged Buyers List Storage.sol\":5705:5744  addressList.couponLists[idOf(address_)] */\n      dup2\n      mstore\n      0x20\n      add\n      swap1\n      dup2\n      mstore\n      0x20\n      add\n      0x00\n      keccak256\n        /* \"contracts/Founding Citizens NFT Sale Privileged Buyers List Storage.sol\":5705:5751  addressList.couponLists[idOf(address_)].length */\n      0x00\n      add\n      0x00\n        /* \"contracts/Founding Citizens NFT Sale Privileged Buyers List Storage.sol\":5705:5753  addressList.couponLists[idOf(address_)].length++ */\n      dup2\n      sload\n      dup1\n      swap3\n      swap2\n      swap1\n      tag_183\n      swap1\n      tag_123\n      jump\t// in\n    tag_183:\n      swap2\n      swap1\n      pop\n      sstore\n      pop\n        /* \"contracts/Founding Citizens NFT Sale Privileged Buyers List Storage.sol\":5988:6000  discountRate */\n      dup2\n        /* \"contracts/Founding Citizens NFT Sale Privileged Buyers List Storage.sol\":5865:5876  addressList */\n      0x01\n        /* \"contracts/Founding Citizens NFT Sale Privileged Buyers List Storage.sol\":5865:5888  addressList.couponLists */\n      0x03\n      add\n        /* \"contracts/Founding Citizens NFT Sale Privileged Buyers List Storage.sol\":5865:5904  addressList.couponLists[idOf(address_)] */\n      0x00\n        /* \"contracts/Founding Citizens NFT Sale Privileged Buyers List Storage.sol\":5889:5903  idOf(address_) */\n      tag_184\n        /* \"contracts/Founding Citizens NFT Sale Privileged Buyers List Storage.sol\":5894:5902  address_ */\n      dup7\n        /* \"contracts/Founding Citizens NFT Sale Privileged Buyers List Storage.sol\":5889:5893  idOf */\n      tag_102\n        /* \"contracts/Founding Citizens NFT Sale Privileged Buyers List Storage.sol\":5889:5903  idOf(address_) */\n      jump\t// in\n    tag_184:\n        /* \"contracts/Founding Citizens NFT Sale Privileged Buyers List Storage.sol\":5865:5904  addressList.couponLists[idOf(address_)] */\n      dup2\n      mstore\n      0x20\n      add\n      swap1\n      dup2\n      mstore\n      0x20\n      add\n      0x00\n      keccak256\n        /* \"contracts/Founding Citizens NFT Sale Privileged Buyers List Storage.sol\":5865:5926  addressList.couponLists[idOf(address_)]\r... */\n      0x01\n      add\n        /* \"contracts/Founding Citizens NFT Sale Privileged Buyers List Storage.sol\":5865:5954  addressList.couponLists[idOf(address_)]\r... */\n      0x00\n        /* \"contracts/Founding Citizens NFT Sale Privileged Buyers List Storage.sol\":5927:5953  couponListLength(address_) */\n      tag_185\n        /* \"contracts/Founding Citizens NFT Sale Privileged Buyers List Storage.sol\":5944:5952  address_ */\n      dup7\n        /* \"contracts/Founding Citizens NFT Sale Privileged Buyers List Storage.sol\":5927:5943  couponListLength */\n      tag_74\n        /* \"contracts/Founding Citizens NFT Sale Privileged Buyers List Storage.sol\":5927:5953  couponListLength(address_) */\n      jump\t// in\n    tag_185:\n        /* \"contracts/Founding Citizens NFT Sale Privileged Buyers List Storage.sol\":5865:5954  addressList.couponLists[idOf(address_)]\r... */\n      dup2\n      mstore\n      0x20\n      add\n      swap1\n      dup2\n      mstore\n      0x20\n      add\n      0x00\n      keccak256\n        /* \"contracts/Founding Citizens NFT Sale Privileged Buyers List Storage.sol\":5865:5985  addressList.couponLists[idOf(address_)]\r... */\n      0x00\n      add\n        /* \"contracts/Founding Citizens NFT Sale Privileged Buyers List Storage.sol\":5865:6000  addressList.couponLists[idOf(address_)]\r... */\n      dup2\n      swap1\n      sstore\n      pop\n        /* \"contracts/Founding Citizens NFT Sale Privileged Buyers List Storage.sol\":6134:6146  numberOfUses */\n      dup1\n        /* \"contracts/Founding Citizens NFT Sale Privileged Buyers List Storage.sol\":6011:6022  addressList */\n      0x01\n        /* \"contracts/Founding Citizens NFT Sale Privileged Buyers List Storage.sol\":6011:6034  addressList.couponLists */\n      0x03\n      add\n        /* \"contracts/Founding Citizens NFT Sale Privileged Buyers List Storage.sol\":6011:6050  addressList.couponLists[idOf(address_)] */\n      0x00\n        /* \"contracts/Founding Citizens NFT Sale Privileged Buyers List Storage.sol\":6035:6049  idOf(address_) */\n      tag_186\n        /* \"contracts/Founding Citizens NFT Sale Privileged Buyers List Storage.sol\":6040:6048  address_ */\n      dup7\n        /* \"contracts/Founding Citizens NFT Sale Privileged Buyers List Storage.sol\":6035:6039  idOf */\n      tag_102\n        /* \"contracts/Founding Citizens NFT Sale Privileged Buyers List Storage.sol\":6035:6049  idOf(address_) */\n      jump\t// in\n    tag_186:\n        /* \"contracts/Founding Citizens NFT Sale Privileged Buyers List Storage.sol\":6011:6050  addressList.couponLists[idOf(address_)] */\n      dup2\n      mstore\n      0x20\n      add\n      swap1\n      dup2\n      mstore\n      0x20\n      add\n      0x00\n      keccak256\n        /* \"contracts/Founding Citizens NFT Sale Privileged Buyers List Storage.sol\":6011:6072  addressList.couponLists[idOf(address_)].\r... */\n      0x01\n      add\n        /* \"contracts/Founding Citizens NFT Sale Privileged Buyers List Storage.sol\":6011:6100  addressList.couponLists[idOf(address_)].\r... */\n      0x00\n        /* \"contracts/Founding Citizens NFT Sale Privileged Buyers List Storage.sol\":6073:6099  couponListLength(address_) */\n      tag_187\n        /* \"contracts/Founding Citizens NFT Sale Privileged Buyers List Storage.sol\":6090:6098  address_ */\n      dup7\n        /* \"contracts/Founding Citizens NFT Sale Privileged Buyers List Storage.sol\":6073:6089  couponListLength */\n      tag_74\n        /* \"contracts/Founding Citizens NFT Sale Privileged Buyers List Storage.sol\":6073:6099  couponListLength(address_) */\n      jump\t// in\n    tag_187:\n        /* \"contracts/Founding Citizens NFT Sale Privileged Buyers List Storage.sol\":6011:6100  addressList.couponLists[idOf(address_)].\r... */\n      dup2\n      mstore\n      0x20\n      add\n      swap1\n      dup2\n      mstore\n      0x20\n      add\n      0x00\n      keccak256\n        /* \"contracts/Founding Citizens NFT Sale Privileged Buyers List Storage.sol\":6011:6131  addressList.couponLists[idOf(address_)].\r... */\n      0x01\n      add\n        /* \"contracts/Founding Citizens NFT Sale Privileged Buyers List Storage.sol\":6011:6146  addressList.couponLists[idOf(address_)].\r... */\n      dup2\n      swap1\n      sstore\n      pop\n        /* \"contracts/Founding Citizens NFT Sale Privileged Buyers List Storage.sol\":5256:6154  function addCoupon(address address_, uint discountRate, uint numberOfUses) public {\r... */\n      pop\n      pop\n      pop\n      jump\t// out\n        /* \"contracts/Founding Citizens NFT Sale Privileged Buyers List Storage.sol\":4499:5248  function removeAddress(address address_) public {\r... */\n    tag_68:\n        /* \"contracts/Founding Citizens NFT Sale Privileged Buyers List Storage.sol\":4580:4623  hasRole(ADDRESS_MANAGER_ROLE, _msgSender()) */\n      tag_189\n        /* \"contracts/Founding Citizens NFT Sale Privileged Buyers List Storage.sol\":1869:1902  keccak256(\"ADDRESS_MANAGER_ROLE\") */\n      0x94a986c75919e983aad44b3aa6d84ebcaddf91749edf743e3a487d1a49949a75\n        /* \"contracts/Founding Citizens NFT Sale Privileged Buyers List Storage.sol\":4610:4622  _msgSender() */\n      tag_190\n        /* \"contracts/Founding Citizens NFT Sale Privileged Buyers List Storage.sol\":4610:4620  _msgSender */\n      tag_129\n        /* \"contracts/Founding Citizens NFT Sale Privileged Buyers List Storage.sol\":4610:4622  _msgSender() */\n      jump\t// in\n    tag_190:\n        /* \"contracts/Founding Citizens NFT Sale Privileged Buyers List Storage.sol\":4580:4587  hasRole */\n      tag_79\n        /* \"contracts/Founding Citizens NFT Sale Privileged Buyers List Storage.sol\":4580:4623  hasRole(ADDRESS_MANAGER_ROLE, _msgSender()) */\n      jump\t// in\n    tag_189:\n        /* \"contracts/Founding Citizens NFT Sale Privileged Buyers List Storage.sol\":4580:4682  hasRole(ADDRESS_MANAGER_ROLE, _msgSender()) || \r... */\n      dup1\n      tag_191\n      jumpi\n      pop\n        /* \"contracts/Founding Citizens NFT Sale Privileged Buyers List Storage.sol\":4641:4682  hasRole(DEFAULT_ADMIN_ROLE, _msgSender()) */\n      tag_192\n        /* \"@openzeppelin/contracts@4.4.2/access/AccessControl.sol\":2057:2061  0x00 */\n      0x00\n        /* \"contracts/Founding Citizens NFT Sale Privileged Buyers List Storage.sol\":4649:4667  DEFAULT_ADMIN_ROLE */\n      dup1\n      shl\n        /* \"contracts/Founding Citizens NFT Sale Privileged Buyers List Storage.sol\":4669:4681  _msgSender() */\n      tag_193\n        /* \"contracts/Founding Citizens NFT Sale Privileged Buyers List Storage.sol\":4669:4679  _msgSender */\n      tag_129\n        /* \"contracts/Founding Citizens NFT Sale Privileged Buyers List Storage.sol\":4669:4681  _msgSender() */\n      jump\t// in\n    tag_193:\n        /* \"contracts/Founding Citizens NFT Sale Privileged Buyers List Storage.sol\":4641:4648  hasRole */\n      tag_79\n        /* \"contracts/Founding Citizens NFT Sale Privileged Buyers List Storage.sol\":4641:4682  hasRole(DEFAULT_ADMIN_ROLE, _msgSender()) */\n      jump\t// in\n    tag_192:\n        /* \"contracts/Founding Citizens NFT Sale Privileged Buyers List Storage.sol\":4580:4682  hasRole(ADDRESS_MANAGER_ROLE, _msgSender()) || \r... */\n    tag_191:\n        /* \"contracts/Founding Citizens NFT Sale Privileged Buyers List Storage.sol\":4558:4748  require(\r... */\n      tag_194\n      jumpi\n      mload(0x40)\n      0x08c379a000000000000000000000000000000000000000000000000000000000\n      dup2\n      mstore\n      0x04\n      add\n      tag_195\n      swap1\n      tag_196\n      jump\t// in\n    tag_195:\n      mload(0x40)\n      dup1\n      swap2\n      sub\n      swap1\n      revert\n    tag_194:\n        /* \"contracts/Founding Citizens NFT Sale Privileged Buyers List Storage.sol\":4769:4784  uint _toRemove1 */\n      0x00\n        /* \"contracts/Founding Citizens NFT Sale Privileged Buyers List Storage.sol\":4787:4801  idOf(address_) */\n      tag_197\n        /* \"contracts/Founding Citizens NFT Sale Privileged Buyers List Storage.sol\":4792:4800  address_ */\n      dup3\n        /* \"contracts/Founding Citizens NFT Sale Privileged Buyers List Storage.sol\":4787:4791  idOf */\n      tag_102\n        /* \"contracts/Founding Citizens NFT Sale Privileged Buyers List Storage.sol\":4787:4801  idOf(address_) */\n      jump\t// in\n    tag_197:\n        /* \"contracts/Founding Citizens NFT Sale Privileged Buyers List Storage.sol\":4769:4801  uint _toRemove1 = idOf(address_) */\n      swap1\n      pop\n        /* \"contracts/Founding Citizens NFT Sale Privileged Buyers List Storage.sol\":4812:4830  address _toRemove2 */\n      0x00\n        /* \"contracts/Founding Citizens NFT Sale Privileged Buyers List Storage.sol\":4833:4841  address_ */\n      dup3\n        /* \"contracts/Founding Citizens NFT Sale Privileged Buyers List Storage.sol\":4812:4841  address _toRemove2 = address_ */\n      swap1\n      pop\n        /* \"contracts/Founding Citizens NFT Sale Privileged Buyers List Storage.sol\":4854:4867  uint _toMove1 */\n      0x00\n        /* \"contracts/Founding Citizens NFT Sale Privileged Buyers List Storage.sol\":4870:4881  addressList */\n      0x01\n        /* \"contracts/Founding Citizens NFT Sale Privileged Buyers List Storage.sol\":4870:4888  addressList.length */\n      0x00\n      add\n      sload\n        /* \"contracts/Founding Citizens NFT Sale Privileged Buyers List Storage.sol\":4854:4888  uint _toMove1 = addressList.length */\n      swap1\n      pop\n        /* \"contracts/Founding Citizens NFT Sale Privileged Buyers List Storage.sol\":4899:4915  address _toMove2 */\n      0x00\n        /* \"contracts/Founding Citizens NFT Sale Privileged Buyers List Storage.sol\":4918:4929  addressList */\n      0x01\n        /* \"contracts/Founding Citizens NFT Sale Privileged Buyers List Storage.sol\":4918:4939  addressList.addresses */\n      dup1\n      add\n        /* \"contracts/Founding Citizens NFT Sale Privileged Buyers List Storage.sol\":4918:4959  addressList.addresses[addressList.length] */\n      0x00\n        /* \"contracts/Founding Citizens NFT Sale Privileged Buyers List Storage.sol\":4940:4951  addressList */\n      0x01\n        /* \"contracts/Founding Citizens NFT Sale Privileged Buyers List Storage.sol\":4940:4958  addressList.length */\n      0x00\n      add\n      sload\n        /* \"contracts/Founding Citizens NFT Sale Privileged Buyers List Storage.sol\":4918:4959  addressList.addresses[addressList.length] */\n      dup2\n      mstore\n      0x20\n      add\n      swap1\n      dup2\n      mstore\n      0x20\n      add\n      0x00\n      keccak256\n      0x00\n      swap1\n      sload\n      swap1\n      0x0100\n      exp\n      swap1\n      div\n      0xffffffffffffffffffffffffffffffffffffffff\n      and\n        /* \"contracts/Founding Citizens NFT Sale Privileged Buyers List Storage.sol\":4899:4959  address _toMove2 = addressList.addresses[addressList.length] */\n      swap1\n      pop\n        /* \"contracts/Founding Citizens NFT Sale Privileged Buyers List Storage.sol\":5008:5019  addressList */\n      0x01\n        /* \"contracts/Founding Citizens NFT Sale Privileged Buyers List Storage.sol\":5008:5029  addressList.addresses */\n      dup1\n      add\n        /* \"contracts/Founding Citizens NFT Sale Privileged Buyers List Storage.sol\":5008:5039  addressList.addresses[_toMove1] */\n      0x00\n        /* \"contracts/Founding Citizens NFT Sale Privileged Buyers List Storage.sol\":5030:5038  _toMove1 */\n      dup4\n        /* \"contracts/Founding Citizens NFT Sale Privileged Buyers List Storage.sol\":5008:5039  addressList.addresses[_toMove1] */\n      dup2\n      mstore\n      0x20\n      add\n      swap1\n      dup2\n      mstore\n      0x20\n      add\n      0x00\n      keccak256\n      0x00\n      swap1\n      sload\n      swap1\n      0x0100\n      exp\n      swap1\n      div\n      0xffffffffffffffffffffffffffffffffffffffff\n      and\n        /* \"contracts/Founding Citizens NFT Sale Privileged Buyers List Storage.sol\":4972:4983  addressList */\n      0x01\n        /* \"contracts/Founding Citizens NFT Sale Privileged Buyers List Storage.sol\":4972:4993  addressList.addresses */\n      dup1\n      add\n        /* \"contracts/Founding Citizens NFT Sale Privileged Buyers List Storage.sol\":4972:5005  addressList.addresses[_toRemove1] */\n      0x00\n        /* \"contracts/Founding Citizens NFT Sale Privileged Buyers List Storage.sol\":4994:5004  _toRemove1 */\n      dup7\n        /* \"contracts/Founding Citizens NFT Sale Privileged Buyers List Storage.sol\":4972:5005  addressList.addresses[_toRemove1] */\n      dup2\n      mstore\n      0x20\n      add\n      swap1\n      dup2\n      mstore\n      0x20\n      add\n      0x00\n      keccak256\n      0x00\n        /* \"contracts/Founding Citizens NFT Sale Privileged Buyers List Storage.sol\":4972:5039  addressList.addresses[_toRemove1] = addressList.addresses[_toMove1] */\n      0x0100\n      exp\n      dup2\n      sload\n      dup2\n      0xffffffffffffffffffffffffffffffffffffffff\n      mul\n      not\n      and\n      swap1\n      dup4\n      0xffffffffffffffffffffffffffffffffffffffff\n      and\n      mul\n      or\n      swap1\n      sstore\n      pop\n        /* \"contracts/Founding Citizens NFT Sale Privileged Buyers List Storage.sol\":5057:5068  addressList */\n      0x01\n        /* \"contracts/Founding Citizens NFT Sale Privileged Buyers List Storage.sol\":5057:5078  addressList.addresses */\n      dup1\n      add\n        /* \"contracts/Founding Citizens NFT Sale Privileged Buyers List Storage.sol\":5057:5088  addressList.addresses[_toMove1] */\n      0x00\n        /* \"contracts/Founding Citizens NFT Sale Privileged Buyers List Storage.sol\":5079:5087  _toMove1 */\n      dup4\n        /* \"contracts/Founding Citizens NFT Sale Privileged Buyers List Storage.sol\":5057:5088  addressList.addresses[_toMove1] */\n      dup2\n      mstore\n      0x20\n      add\n      swap1\n      dup2\n      mstore\n      0x20\n      add\n      0x00\n      keccak256\n      0x00\n        /* \"contracts/Founding Citizens NFT Sale Privileged Buyers List Storage.sol\":5050:5088  delete addressList.addresses[_toMove1] */\n      0x0100\n      exp\n      dup2\n      sload\n      swap1\n      0xffffffffffffffffffffffffffffffffffffffff\n      mul\n      not\n      and\n      swap1\n      sstore\n        /* \"contracts/Founding Citizens NFT Sale Privileged Buyers List Storage.sol\":5131:5142  addressList */\n      0x01\n        /* \"contracts/Founding Citizens NFT Sale Privileged Buyers List Storage.sol\":5131:5146  addressList.ids */\n      0x02\n      add\n        /* \"contracts/Founding Citizens NFT Sale Privileged Buyers List Storage.sol\":5131:5156  addressList.ids[_toMove2] */\n      0x00\n        /* \"contracts/Founding Citizens NFT Sale Privileged Buyers List Storage.sol\":5147:5155  _toMove2 */\n      dup3\n        /* \"contracts/Founding Citizens NFT Sale Privileged Buyers List Storage.sol\":5131:5156  addressList.ids[_toMove2] */\n      0xffffffffffffffffffffffffffffffffffffffff\n      and\n      0xffffffffffffffffffffffffffffffffffffffff\n      and\n      dup2\n      mstore\n      0x20\n      add\n      swap1\n      dup2\n      mstore\n      0x20\n      add\n      0x00\n      keccak256\n      sload\n        /* \"contracts/Founding Citizens NFT Sale Privileged Buyers List Storage.sol\":5101:5112  addressList */\n      0x01\n        /* \"contracts/Founding Citizens NFT Sale Privileged Buyers List Storage.sol\":5101:5116  addressList.ids */\n      0x02\n      add\n        /* \"contracts/Founding Citizens NFT Sale Privileged Buyers List Storage.sol\":5101:5128  addressList.ids[_toRemove2] */\n      0x00\n        /* \"contracts/Founding Citizens NFT Sale Privileged Buyers List Storage.sol\":5117:5127  _toRemove2 */\n      dup6\n        /* \"contracts/Founding Citizens NFT Sale Privileged Buyers List Storage.sol\":5101:5128  addressList.ids[_toRemove2] */\n      0xffffffffffffffffffffffffffffffffffffffff\n      and\n      0xffffffffffffffffffffffffffffffffffffffff\n      and\n      dup2\n      mstore\n      0x20\n      add\n      swap1\n      dup2\n      mstore\n      0x20\n      add\n      0x00\n      keccak256\n        /* \"contracts/Founding Citizens NFT Sale Privileged Buyers List Storage.sol\":5101:5156  addressList.ids[_toRemove2] = addressList.ids[_toMove2] */\n      dup2\n      swap1\n      sstore\n      pop\n        /* \"contracts/Founding Citizens NFT Sale Privileged Buyers List Storage.sol\":5174:5185  addressList */\n      0x01\n        /* \"contracts/Founding Citizens NFT Sale Privileged Buyers List Storage.sol\":5174:5189  addressList.ids */\n      0x02\n      add\n        /* \"contracts/Founding Citizens NFT Sale Privileged Buyers List Storage.sol\":5174:5199  addressList.ids[_toMove2] */\n      0x00\n        /* \"contracts/Founding Citizens NFT Sale Privileged Buyers List Storage.sol\":5190:5198  _toMove2 */\n      dup3\n        /* \"contracts/Founding Citizens NFT Sale Privileged Buyers List Storage.sol\":5174:5199  addressList.ids[_toMove2] */\n      0xffffffffffffffffffffffffffffffffffffffff\n      and\n      0xffffffffffffffffffffffffffffffffffffffff\n      and\n      dup2\n      mstore\n      0x20\n      add\n      swap1\n      dup2\n      mstore\n      0x20\n      add\n      0x00\n      keccak256\n        /* \"contracts/Founding Citizens NFT Sale Privileged Buyers List Storage.sol\":5167:5199  delete addressList.ids[_toMove2] */\n      0x00\n      swap1\n      sstore\n        /* \"contracts/Founding Citizens NFT Sale Privileged Buyers List Storage.sol\":5220:5231  addressList */\n      0x01\n        /* \"contracts/Founding Citizens NFT Sale Privileged Buyers List Storage.sol\":5220:5238  addressList.length */\n      0x00\n      add\n      0x00\n        /* \"contracts/Founding Citizens NFT Sale Privileged Buyers List Storage.sol\":5220:5240  addressList.length-- */\n      dup2\n      sload\n      dup1\n      swap3\n      swap2\n      swap1\n      tag_198\n      swap1\n      tag_199\n      jump\t// in\n    tag_198:\n      swap2\n      swap1\n      pop\n      sstore\n      pop\n        /* \"contracts/Founding Citizens NFT Sale Privileged Buyers List Storage.sol\":4499:5248  function removeAddress(address address_) public {\r... */\n      pop\n      pop\n      pop\n      pop\n      pop\n      jump\t// out\n        /* \"contracts/Founding Citizens NFT Sale Privileged Buyers List Storage.sol\":1822:1902  bytes32 public constant ADDRESS_MANAGER_ROLE = keccak256(\"ADDRESS_MANAGER_ROLE\") */\n    tag_70:\n        /* \"contracts/Founding Citizens NFT Sale Privileged Buyers List Storage.sol\":1869:1902  keccak256(\"ADDRESS_MANAGER_ROLE\") */\n      0x94a986c75919e983aad44b3aa6d84ebcaddf91749edf743e3a487d1a49949a75\n        /* \"contracts/Founding Citizens NFT Sale Privileged Buyers List Storage.sol\":1822:1902  bytes32 public constant ADDRESS_MANAGER_ROLE = keccak256(\"ADDRESS_MANAGER_ROLE\") */\n      dup2\n      jump\t// out\n        /* \"contracts/Founding Citizens NFT Sale Privileged Buyers List Storage.sol\":2877:3019  function couponListLength(address address_) public view returns(uint) {\r... */\n    tag_74:\n        /* \"contracts/Founding Citizens NFT Sale Privileged Buyers List Storage.sol\":2941:2945  uint */\n      0x00\n        /* \"contracts/Founding Citizens NFT Sale Privileged Buyers List Storage.sol\":2965:2976  addressList */\n      0x01\n        /* \"contracts/Founding Citizens NFT Sale Privileged Buyers List Storage.sol\":2965:2988  addressList.couponLists */\n      0x03\n      add\n        /* \"contracts/Founding Citizens NFT Sale Privileged Buyers List Storage.sol\":2965:3004  addressList.couponLists[idOf(address_)] */\n      0x00\n        /* \"contracts/Founding Citizens NFT Sale Privileged Buyers List Storage.sol\":2989:3003  idOf(address_) */\n      tag_201\n        /* \"contracts/Founding Citizens NFT Sale Privileged Buyers List Storage.sol\":2994:3002  address_ */\n      dup5\n        /* \"contracts/Founding Citizens NFT Sale Privileged Buyers List Storage.sol\":2989:2993  idOf */\n      tag_102\n        /* \"contracts/Founding Citizens NFT Sale Privileged Buyers List Storage.sol\":2989:3003  idOf(address_) */\n      jump\t// in\n    tag_201:\n        /* \"contracts/Founding Citizens NFT Sale Privileged Buyers List Storage.sol\":2965:3004  addressList.couponLists[idOf(address_)] */\n      dup2\n      mstore\n      0x20\n      add\n      swap1\n      dup2\n      mstore\n      0x20\n      add\n      0x00\n      keccak256\n        /* \"contracts/Founding Citizens NFT Sale Privileged Buyers List Storage.sol\":2965:3011  addressList.couponLists[idOf(address_)].length */\n      0x00\n      add\n      sload\n        /* \"contracts/Founding Citizens NFT Sale Privileged Buyers List Storage.sol\":2958:3011  return addressList.couponLists[idOf(address_)].length */\n      swap1\n      pop\n        /* \"contracts/Founding Citizens NFT Sale Privileged Buyers List Storage.sol\":2877:3019  function couponListLength(address address_) public view returns(uint) {\r... */\n      swap2\n      swap1\n      pop\n      jump\t// out\n        /* \"@openzeppelin/contracts@4.4.2/access/AccessControl.sol\":2894:3031  function hasRole(bytes32 role, address account) public view override returns (bool) {... */\n    tag_79:\n        /* \"@openzeppelin/contracts@4.4.2/access/AccessControl.sol\":2972:2976  bool */\n      0x00\n        /* \"@openzeppelin/contracts@4.4.2/access/AccessControl.sol\":2995:3001  _roles */\n      dup1\n        /* \"@openzeppelin/contracts@4.4.2/access/AccessControl.sol\":2995:3007  _roles[role] */\n      0x00\n        /* \"@openzeppelin/contracts@4.4.2/access/AccessControl.sol\":3002:3006  role */\n      dup5\n        /* \"@openzeppelin/contracts@4.4.2/access/AccessControl.sol\":2995:3007  _roles[role] */\n      dup2\n      mstore\n      0x20\n      add\n      swap1\n      dup2\n      mstore\n      0x20\n      add\n      0x00\n      keccak256\n        /* \"@openzeppelin/contracts@4.4.2/access/AccessControl.sol\":2995:3015  _roles[role].members */\n      0x00\n      add\n        /* \"@openzeppelin/contracts@4.4.2/access/AccessControl.sol\":2995:3024  _roles[role].members[account] */\n      0x00\n        /* \"@openzeppelin/contracts@4.4.2/access/AccessControl.sol\":3016:3023  account */\n      dup4\n        /* \"@openzeppelin/contracts@4.4.2/access/AccessControl.sol\":2995:3024  _roles[role].members[account] */\n      0xffffffffffffffffffffffffffffffffffffffff\n      and\n      0xffffffffffffffffffffffffffffffffffffffff\n      and\n      dup2\n      mstore\n      0x20\n      add\n      swap1\n      dup2\n      mstore\n      0x20\n      add\n      0x00\n      keccak256\n      0x00\n      swap1\n      sload\n      swap1\n      0x0100\n      exp\n      swap1\n      div\n      0xff\n      and\n        /* \"@openzeppelin/contracts@4.4.2/access/AccessControl.sol\":2988:3024  return _roles[role].members[account] */\n      swap1\n      pop\n        /* \"@openzeppelin/contracts@4.4.2/access/AccessControl.sol\":2894:3031  function hasRole(bytes32 role, address account) public view override returns (bool) {... */\n      swap3\n      swap2\n      pop\n      pop\n      jump\t// out\n        /* \"@openzeppelin/contracts@4.4.2/access/AccessControl.sol\":2012:2061  bytes32 public constant DEFAULT_ADMIN_ROLE = 0x00 */\n    tag_82:\n        /* \"@openzeppelin/contracts@4.4.2/access/AccessControl.sol\":2057:2061  0x00 */\n      0x00\n        /* \"@openzeppelin/contracts@4.4.2/access/AccessControl.sol\":2012:2061  bytes32 public constant DEFAULT_ADMIN_ROLE = 0x00 */\n      dup1\n      shl\n      dup2\n      jump\t// out\n        /* \"contracts/Founding Citizens NFT Sale Privileged Buyers List Storage.sol\":1909:1987  bytes32 public constant COUPON_MANAGER_ROLE = keccak256(\"COUPON_MANAGER_ROLE\") */\n    tag_85:\n        /* \"contracts/Founding Citizens NFT Sale Privileged Buyers List Storage.sol\":1955:1987  keccak256(\"COUPON_MANAGER_ROLE\") */\n      0x3ec4e68565b7b1587aaccbcf2b5911e829e236602dc6d0fe89c50e09bdd019b4\n        /* \"contracts/Founding Citizens NFT Sale Privileged Buyers List Storage.sol\":1909:1987  bytes32 public constant COUPON_MANAGER_ROLE = keccak256(\"COUPON_MANAGER_ROLE\") */\n      dup2\n      jump\t// out\n        /* \"contracts/Founding Citizens NFT Sale Privileged Buyers List Storage.sol\":3027:3141  function addressExists(address address_) public view returns(bool) {\r... */\n    tag_89:\n        /* \"contracts/Founding Citizens NFT Sale Privileged Buyers List Storage.sol\":3088:3092  bool */\n      0x00\n        /* \"contracts/Founding Citizens NFT Sale Privileged Buyers List Storage.sol\":3131:3132  0 */\n      dup1\n        /* \"contracts/Founding Citizens NFT Sale Privileged Buyers List Storage.sol\":3113:3127  idOf(address_) */\n      tag_204\n        /* \"contracts/Founding Citizens NFT Sale Privileged Buyers List Storage.sol\":3118:3126  address_ */\n      dup4\n        /* \"contracts/Founding Citizens NFT Sale Privileged Buyers List Storage.sol\":3113:3117  idOf */\n      tag_102\n        /* \"contracts/Founding Citizens NFT Sale Privileged Buyers List Storage.sol\":3113:3127  idOf(address_) */\n      jump\t// in\n    tag_204:\n        /* \"contracts/Founding Citizens NFT Sale Privileged Buyers List Storage.sol\":3113:3132  idOf(address_) == 0 */\n      eq\n        /* \"contracts/Founding Citizens NFT Sale Privileged Buyers List Storage.sol\":3105:3133  return (idOf(address_) == 0) */\n      swap1\n      pop\n        /* \"contracts/Founding Citizens NFT Sale Privileged Buyers List Storage.sol\":3027:3141  function addressExists(address address_) public view returns(bool) {\r... */\n      swap2\n      swap1\n      pop\n      jump\t// out\n        /* \"contracts/Founding Citizens NFT Sale Privileged Buyers List Storage.sol\":7517:8174  function reduceCouponUses(address address_, uint discountRate, uint numberOfUses) public {\r... */\n    tag_93:\n        /* \"contracts/Founding Citizens NFT Sale Privileged Buyers List Storage.sol\":7639:7681  hasRole(COUPON_MANAGER_ROLE, _msgSender()) */\n      tag_206\n        /* \"contracts/Founding Citizens NFT Sale Privileged Buyers List Storage.sol\":1955:1987  keccak256(\"COUPON_MANAGER_ROLE\") */\n      0x3ec4e68565b7b1587aaccbcf2b5911e829e236602dc6d0fe89c50e09bdd019b4\n        /* \"contracts/Founding Citizens NFT Sale Privileged Buyers List Storage.sol\":7668:7680  _msgSender() */\n      tag_207\n        /* \"contracts/Founding Citizens NFT Sale Privileged Buyers List Storage.sol\":7668:7678  _msgSender */\n      tag_129\n        /* \"contracts/Founding Citizens NFT Sale Privileged Buyers List Storage.sol\":7668:7680  _msgSender() */\n      jump\t// in\n    tag_207:\n        /* \"contracts/Founding Citizens NFT Sale Privileged Buyers List Storage.sol\":7639:7646  hasRole */\n      tag_79\n        /* \"contracts/Founding Citizens NFT Sale Privileged Buyers List Storage.sol\":7639:7681  hasRole(COUPON_MANAGER_ROLE, _msgSender()) */\n      jump\t// in\n    tag_206:\n        /* \"contracts/Founding Citizens NFT Sale Privileged Buyers List Storage.sol\":7639:7737  hasRole(COUPON_MANAGER_ROLE, _msgSender()) ||\r... */\n      dup1\n      tag_208\n      jumpi\n      pop\n        /* \"contracts/Founding Citizens NFT Sale Privileged Buyers List Storage.sol\":7698:7737  hasRole(COUPON_USER_ROLE, _msgSender()) */\n      tag_209\n        /* \"contracts/Founding Citizens NFT Sale Privileged Buyers List Storage.sol\":2037:2066  keccak256(\"COUPON_USER_ROLE\") */\n      0xad8e13ade6b5588e1a6049d70c1678b839105f007c5f6fb969ad8b1456160eac\n        /* \"contracts/Founding Citizens NFT Sale Privileged Buyers List Storage.sol\":7724:7736  _msgSender() */\n      tag_210\n        /* \"contracts/Founding Citizens NFT Sale Privileged Buyers List Storage.sol\":7724:7734  _msgSender */\n      tag_129\n        /* \"contracts/Founding Citizens NFT Sale Privileged Buyers List Storage.sol\":7724:7736  _msgSender() */\n      jump\t// in\n    tag_210:\n        /* \"contracts/Founding Citizens NFT Sale Privileged Buyers List Storage.sol\":7698:7705  hasRole */\n      tag_79\n        /* \"contracts/Founding Citizens NFT Sale Privileged Buyers List Storage.sol\":7698:7737  hasRole(COUPON_USER_ROLE, _msgSender()) */\n      jump\t// in\n    tag_209:\n        /* \"contracts/Founding Citizens NFT Sale Privileged Buyers List Storage.sol\":7639:7737  hasRole(COUPON_MANAGER_ROLE, _msgSender()) ||\r... */\n    tag_208:\n        /* \"contracts/Founding Citizens NFT Sale Privileged Buyers List Storage.sol\":7639:7795  hasRole(COUPON_MANAGER_ROLE, _msgSender()) ||\r... */\n      dup1\n      tag_211\n      jumpi\n      pop\n        /* \"contracts/Founding Citizens NFT Sale Privileged Buyers List Storage.sol\":7754:7795  hasRole(DEFAULT_ADMIN_ROLE, _msgSender()) */\n      tag_212\n        /* \"@openzeppelin/contracts@4.4.2/access/AccessControl.sol\":2057:2061  0x00 */\n      0x00\n        /* \"contracts/Founding Citizens NFT Sale Privileged Buyers List Storage.sol\":7762:7780  DEFAULT_ADMIN_ROLE */\n      dup1\n      shl\n        /* \"contracts/Founding Citizens NFT Sale Privileged Buyers List Storage.sol\":7782:7794  _msgSender() */\n      tag_213\n        /* \"contracts/Founding Citizens NFT Sale Privileged Buyers List Storage.sol\":7782:7792  _msgSender */\n      tag_129\n        /* \"contracts/Founding Citizens NFT Sale Privileged Buyers List Storage.sol\":7782:7794  _msgSender() */\n      jump\t// in\n    tag_213:\n        /* \"contracts/Founding Citizens NFT Sale Privileged Buyers List Storage.sol\":7754:7761  hasRole */\n      tag_79\n        /* \"contracts/Founding Citizens NFT Sale Privileged Buyers List Storage.sol\":7754:7795  hasRole(DEFAULT_ADMIN_ROLE, _msgSender()) */\n      jump\t// in\n    tag_212:\n        /* \"contracts/Founding Citizens NFT Sale Privileged Buyers List Storage.sol\":7639:7795  hasRole(COUPON_MANAGER_ROLE, _msgSender()) ||\r... */\n    tag_211:\n        /* \"contracts/Founding Citizens NFT Sale Privileged Buyers List Storage.sol\":7617:7874  require(\r... */\n      tag_214\n      jumpi\n      mload(0x40)\n      0x08c379a000000000000000000000000000000000000000000000000000000000\n      dup2\n      mstore\n      0x04\n      add\n      tag_215\n      swap1\n      tag_168\n      jump\t// in\n    tag_215:\n      mload(0x40)\n      dup1\n      swap2\n      sub\n      swap1\n      revert\n    tag_214:\n        /* \"contracts/Founding Citizens NFT Sale Privileged Buyers List Storage.sol\":7890:7896  uint i */\n      0x00\n        /* \"contracts/Founding Citizens NFT Sale Privileged Buyers List Storage.sol\":7885:8167  for (uint i = 0; i < couponListLength(address_); i++) {\r... */\n    tag_216:\n        /* \"contracts/Founding Citizens NFT Sale Privileged Buyers List Storage.sol\":7906:7932  couponListLength(address_) */\n      tag_219\n        /* \"contracts/Founding Citizens NFT Sale Privileged Buyers List Storage.sol\":7923:7931  address_ */\n      dup5\n        /* \"contracts/Founding Citizens NFT Sale Privileged Buyers List Storage.sol\":7906:7922  couponListLength */\n      tag_74\n        /* \"contracts/Founding Citizens NFT Sale Privileged Buyers List Storage.sol\":7906:7932  couponListLength(address_) */\n      jump\t// in\n    tag_219:\n        /* \"contracts/Founding Citizens NFT Sale Privileged Buyers List Storage.sol\":7902:7903  i */\n      dup2\n        /* \"contracts/Founding Citizens NFT Sale Privileged Buyers List Storage.sol\":7902:7932  i < couponListLength(address_) */\n      lt\n        /* \"contracts/Founding Citizens NFT Sale Privileged Buyers List Storage.sol\":7885:8167  for (uint i = 0; i < couponListLength(address_); i++) {\r... */\n      iszero\n      tag_217\n      jumpi\n        /* \"contracts/Founding Citizens NFT Sale Privileged Buyers List Storage.sol\":8025:8037  discountRate */\n      dup3\n        /* \"contracts/Founding Citizens NFT Sale Privileged Buyers List Storage.sol\":7958:7969  addressList */\n      0x01\n        /* \"contracts/Founding Citizens NFT Sale Privileged Buyers List Storage.sol\":7958:7981  addressList.couponLists */\n      0x03\n      add\n        /* \"contracts/Founding Citizens NFT Sale Privileged Buyers List Storage.sol\":7958:7997  addressList.couponLists[idOf(address_)] */\n      0x00\n        /* \"contracts/Founding Citizens NFT Sale Privileged Buyers List Storage.sol\":7982:7996  idOf(address_) */\n      tag_220\n        /* \"contracts/Founding Citizens NFT Sale Privileged Buyers List Storage.sol\":7987:7995  address_ */\n      dup8\n        /* \"contracts/Founding Citizens NFT Sale Privileged Buyers List Storage.sol\":7982:7986  idOf */\n      tag_102\n        /* \"contracts/Founding Citizens NFT Sale Privileged Buyers List Storage.sol\":7982:7996  idOf(address_) */\n      jump\t// in\n    tag_220:\n        /* \"contracts/Founding Citizens NFT Sale Privileged Buyers List Storage.sol\":7958:7997  addressList.couponLists[idOf(address_)] */\n      dup2\n      mstore\n      0x20\n      add\n      swap1\n      dup2\n      mstore\n      0x20\n      add\n      0x00\n      keccak256\n        /* \"contracts/Founding Citizens NFT Sale Privileged Buyers List Storage.sol\":7958:8005  addressList.couponLists[idOf(address_)].coupons */\n      0x01\n      add\n        /* \"contracts/Founding Citizens NFT Sale Privileged Buyers List Storage.sol\":7958:8008  addressList.couponLists[idOf(address_)].coupons[i] */\n      0x00\n        /* \"contracts/Founding Citizens NFT Sale Privileged Buyers List Storage.sol\":8006:8007  i */\n      dup4\n        /* \"contracts/Founding Citizens NFT Sale Privileged Buyers List Storage.sol\":7958:8008  addressList.couponLists[idOf(address_)].coupons[i] */\n      dup2\n      mstore\n      0x20\n      add\n      swap1\n      dup2\n      mstore\n      0x20\n      add\n      0x00\n      keccak256\n        /* \"contracts/Founding Citizens NFT Sale Privileged Buyers List Storage.sol\":7958:8021  addressList.couponLists[idOf(address_)].coupons[i].discountRate */\n      0x00\n      add\n      sload\n        /* \"contracts/Founding Citizens NFT Sale Privileged Buyers List Storage.sol\":7958:8037  addressList.couponLists[idOf(address_)].coupons[i].discountRate == discountRate */\n      eq\n        /* \"contracts/Founding Citizens NFT Sale Privileged Buyers List Storage.sol\":7954:8156  if (addressList.couponLists[idOf(address_)].coupons[i].discountRate == discountRate) \r... */\n      iszero\n      tag_221\n      jumpi\n        /* \"contracts/Founding Citizens NFT Sale Privileged Buyers List Storage.sol\":8072:8116  _reduceCouponUses(address_, i, numberOfUses) */\n      tag_222\n        /* \"contracts/Founding Citizens NFT Sale Privileged Buyers List Storage.sol\":8090:8098  address_ */\n      dup5\n        /* \"contracts/Founding Citizens NFT Sale Privileged Buyers List Storage.sol\":8100:8101  i */\n      dup3\n        /* \"contracts/Founding Citizens NFT Sale Privileged Buyers List Storage.sol\":8103:8115  numberOfUses */\n      dup5\n        /* \"contracts/Founding Citizens NFT Sale Privileged Buyers List Storage.sol\":8072:8089  _reduceCouponUses */\n      tag_223\n        /* \"contracts/Founding Citizens NFT Sale Privileged Buyers List Storage.sol\":8072:8116  _reduceCouponUses(address_, i, numberOfUses) */\n      jump\t// in\n    tag_222:\n        /* \"contracts/Founding Citizens NFT Sale Privileged Buyers List Storage.sol\":8135:8140  break */\n      jump(tag_217)\n        /* \"contracts/Founding Citizens NFT Sale Privileged Buyers List Storage.sol\":7954:8156  if (addressList.couponLists[idOf(address_)].coupons[i].discountRate == discountRate) \r... */\n    tag_221:\n        /* \"contracts/Founding Citizens NFT Sale Privileged Buyers List Storage.sol\":7934:7937  i++ */\n      dup1\n      dup1\n      tag_224\n      swap1\n      tag_123\n      jump\t// in\n    tag_224:\n      swap2\n      pop\n      pop\n        /* \"contracts/Founding Citizens NFT Sale Privileged Buyers List Storage.sol\":7885:8167  for (uint i = 0; i < couponListLength(address_); i++) {\r... */\n      jump(tag_216)\n    tag_217:\n      pop\n        /* \"contracts/Founding Citizens NFT Sale Privileged Buyers List Storage.sol\":7517:8174  function reduceCouponUses(address address_, uint discountRate, uint numberOfUses) public {\r... */\n      pop\n      pop\n      pop\n      jump\t// out\n        /* \"contracts/Founding Citizens NFT Sale Privileged Buyers List Storage.sol\":2721:2751  AddressList public addressList */\n    tag_95:\n      0x01\n      dup1\n      0x00\n      add\n      sload\n      swap1\n      pop\n      dup2\n      jump\t// out\n        /* \"@openzeppelin/contracts@4.4.2/access/AccessControl.sol\":4727:4874  function revokeRole(bytes32 role, address account) public virtual override onlyRole(getRoleAdmin(role)) {... */\n    tag_99:\n        /* \"@openzeppelin/contracts@4.4.2/access/AccessControl.sol\":4811:4829  getRoleAdmin(role) */\n      tag_225\n        /* \"@openzeppelin/contracts@4.4.2/access/AccessControl.sol\":4824:4828  role */\n      dup3\n        /* \"@openzeppelin/contracts@4.4.2/access/AccessControl.sol\":4811:4823  getRoleAdmin */\n      tag_42\n        /* \"@openzeppelin/contracts@4.4.2/access/AccessControl.sol\":4811:4829  getRoleAdmin(role) */\n      jump\t// in\n    tag_225:\n        /* \"@openzeppelin/contracts@4.4.2/access/AccessControl.sol\":2490:2520  _checkRole(role, _msgSender()) */\n      tag_227\n        /* \"@openzeppelin/contracts@4.4.2/access/AccessControl.sol\":2501:2505  role */\n      dup2\n        /* \"@openzeppelin/contracts@4.4.2/access/AccessControl.sol\":2507:2519  _msgSender() */\n      tag_228\n        /* \"@openzeppelin/contracts@4.4.2/access/AccessControl.sol\":2507:2517  _msgSender */\n      tag_129\n        /* \"@openzeppelin/contracts@4.4.2/access/AccessControl.sol\":2507:2519  _msgSender() */\n      jump\t// in\n    tag_228:\n        /* \"@openzeppelin/contracts@4.4.2/access/AccessControl.sol\":2490:2500  _checkRole */\n      tag_130\n        /* \"@openzeppelin/contracts@4.4.2/access/AccessControl.sol\":2490:2520  _checkRole(role, _msgSender()) */\n      jump\t// in\n    tag_227:\n        /* \"@openzeppelin/contracts@4.4.2/access/AccessControl.sol\":4841:4867  _revokeRole(role, account) */\n      tag_230\n        /* \"@openzeppelin/contracts@4.4.2/access/AccessControl.sol\":4853:4857  role */\n      dup4\n        /* \"@openzeppelin/contracts@4.4.2/access/AccessControl.sol\":4859:4866  account */\n      dup4\n        /* \"@openzeppelin/contracts@4.4.2/access/AccessControl.sol\":4841:4852  _revokeRole */\n      tag_140\n        /* \"@openzeppelin/contracts@4.4.2/access/AccessControl.sol\":4841:4867  _revokeRole(role, account) */\n      jump\t// in\n    tag_230:\n        /* \"@openzeppelin/contracts@4.4.2/access/AccessControl.sol\":4727:4874  function revokeRole(bytes32 role, address account) public virtual override onlyRole(getRoleAdmin(role)) {... */\n      pop\n      pop\n      pop\n      jump\t// out\n        /* \"contracts/Founding Citizens NFT Sale Privileged Buyers List Storage.sol\":2760:2869  function idOf(address address_) public view returns(uint) {\r... */\n    tag_102:\n        /* \"contracts/Founding Citizens NFT Sale Privileged Buyers List Storage.sol\":2812:2816  uint */\n      0x00\n        /* \"contracts/Founding Citizens NFT Sale Privileged Buyers List Storage.sol\":2836:2847  addressList */\n      0x01\n        /* \"contracts/Founding Citizens NFT Sale Privileged Buyers List Storage.sol\":2836:2851  addressList.ids */\n      0x02\n      add\n        /* \"contracts/Founding Citizens NFT Sale Privileged Buyers List Storage.sol\":2836:2861  addressList.ids[address_] */\n      0x00\n        /* \"contracts/Founding Citizens NFT Sale Privileged Buyers List Storage.sol\":2852:2860  address_ */\n      dup4\n        /* \"contracts/Founding Citizens NFT Sale Privileged Buyers List Storage.sol\":2836:2861  addressList.ids[address_] */\n      0xffffffffffffffffffffffffffffffffffffffff\n      and\n      0xffffffffffffffffffffffffffffffffffffffff\n      and\n      dup2\n      mstore\n      0x20\n      add\n      swap1\n      dup2\n      mstore\n      0x20\n      add\n      0x00\n      keccak256\n      sload\n        /* \"contracts/Founding Citizens NFT Sale Privileged Buyers List Storage.sol\":2829:2861  return addressList.ids[address_] */\n      swap1\n      pop\n        /* \"contracts/Founding Citizens NFT Sale Privileged Buyers List Storage.sol\":2760:2869  function idOf(address address_) public view returns(uint) {\r... */\n      swap2\n      swap1\n      pop\n      jump\t// out\n        /* \"contracts/Founding Citizens NFT Sale Privileged Buyers List Storage.sol\":6162:6800  function removeCoupon(address address_, uint id) public {\r... */\n    tag_106:\n        /* \"contracts/Founding Citizens NFT Sale Privileged Buyers List Storage.sol\":6251:6293  hasRole(COUPON_MANAGER_ROLE, _msgSender()) */\n      tag_233\n        /* \"contracts/Founding Citizens NFT Sale Privileged Buyers List Storage.sol\":1955:1987  keccak256(\"COUPON_MANAGER_ROLE\") */\n      0x3ec4e68565b7b1587aaccbcf2b5911e829e236602dc6d0fe89c50e09bdd019b4\n        /* \"contracts/Founding Citizens NFT Sale Privileged Buyers List Storage.sol\":6280:6292  _msgSender() */\n      tag_234\n        /* \"contracts/Founding Citizens NFT Sale Privileged Buyers List Storage.sol\":6280:6290  _msgSender */\n      tag_129\n        /* \"contracts/Founding Citizens NFT Sale Privileged Buyers List Storage.sol\":6280:6292  _msgSender() */\n      jump\t// in\n    tag_234:\n        /* \"contracts/Founding Citizens NFT Sale Privileged Buyers List Storage.sol\":6251:6258  hasRole */\n      tag_79\n        /* \"contracts/Founding Citizens NFT Sale Privileged Buyers List Storage.sol\":6251:6293  hasRole(COUPON_MANAGER_ROLE, _msgSender()) */\n      jump\t// in\n    tag_233:\n        /* \"contracts/Founding Citizens NFT Sale Privileged Buyers List Storage.sol\":6251:6349  hasRole(COUPON_MANAGER_ROLE, _msgSender()) ||\r... */\n      dup1\n      tag_235\n      jumpi\n      pop\n        /* \"contracts/Founding Citizens NFT Sale Privileged Buyers List Storage.sol\":6310:6349  hasRole(COUPON_USER_ROLE, _msgSender()) */\n      tag_236\n        /* \"contracts/Founding Citizens NFT Sale Privileged Buyers List Storage.sol\":2037:2066  keccak256(\"COUPON_USER_ROLE\") */\n      0xad8e13ade6b5588e1a6049d70c1678b839105f007c5f6fb969ad8b1456160eac\n        /* \"contracts/Founding Citizens NFT Sale Privileged Buyers List Storage.sol\":6336:6348  _msgSender() */\n      tag_237\n        /* \"contracts/Founding Citizens NFT Sale Privileged Buyers List Storage.sol\":6336:6346  _msgSender */\n      tag_129\n        /* \"contracts/Founding Citizens NFT Sale Privileged Buyers List Storage.sol\":6336:6348  _msgSender() */\n      jump\t// in\n    tag_237:\n        /* \"contracts/Founding Citizens NFT Sale Privileged Buyers List Storage.sol\":6310:6317  hasRole */\n      tag_79\n        /* \"contracts/Founding Citizens NFT Sale Privileged Buyers List Storage.sol\":6310:6349  hasRole(COUPON_USER_ROLE, _msgSender()) */\n      jump\t// in\n    tag_236:\n        /* \"contracts/Founding Citizens NFT Sale Privileged Buyers List Storage.sol\":6251:6349  hasRole(COUPON_MANAGER_ROLE, _msgSender()) ||\r... */\n    tag_235:\n        /* \"contracts/Founding Citizens NFT Sale Privileged Buyers List Storage.sol\":6251:6407  hasRole(COUPON_MANAGER_ROLE, _msgSender()) ||\r... */\n      dup1\n      tag_238\n      jumpi\n      pop\n        /* \"contracts/Founding Citizens NFT Sale Privileged Buyers List Storage.sol\":6366:6407  hasRole(DEFAULT_ADMIN_ROLE, _msgSender()) */\n      tag_239\n        /* \"@openzeppelin/contracts@4.4.2/access/AccessControl.sol\":2057:2061  0x00 */\n      0x00\n        /* \"contracts/Founding Citizens NFT Sale Privileged Buyers List Storage.sol\":6374:6392  DEFAULT_ADMIN_ROLE */\n      dup1\n      shl\n        /* \"contracts/Founding Citizens NFT Sale Privileged Buyers List Storage.sol\":6394:6406  _msgSender() */\n      tag_240\n        /* \"contracts/Founding Citizens NFT Sale Privileged Buyers List Storage.sol\":6394:6404  _msgSender */\n      tag_129\n        /* \"contracts/Founding Citizens NFT Sale Privileged Buyers List Storage.sol\":6394:6406  _msgSender() */\n      jump\t// in\n    tag_240:\n        /* \"contracts/Founding Citizens NFT Sale Privileged Buyers List Storage.sol\":6366:6373  hasRole */\n      tag_79\n        /* \"contracts/Founding Citizens NFT Sale Privileged Buyers List Storage.sol\":6366:6407  hasRole(DEFAULT_ADMIN_ROLE, _msgSender()) */\n      jump\t// in\n    tag_239:\n        /* \"contracts/Founding Citizens NFT Sale Privileged Buyers List Storage.sol\":6251:6407  hasRole(COUPON_MANAGER_ROLE, _msgSender()) ||\r... */\n    tag_238:\n        /* \"contracts/Founding Citizens NFT Sale Privileged Buyers List Storage.sol\":6229:6486  require(\r... */\n      tag_241\n      jumpi\n      mload(0x40)\n      0x08c379a000000000000000000000000000000000000000000000000000000000\n      dup2\n      mstore\n      0x04\n      add\n      tag_242\n      swap1\n      tag_168\n      jump\t// in\n    tag_242:\n      mload(0x40)\n      dup1\n      swap2\n      sub\n      swap1\n      revert\n    tag_241:\n        /* \"contracts/Founding Citizens NFT Sale Privileged Buyers List Storage.sol\":6565:6576  addressList */\n      0x01\n        /* \"contracts/Founding Citizens NFT Sale Privileged Buyers List Storage.sol\":6565:6588  addressList.couponLists */\n      0x03\n      add\n        /* \"contracts/Founding Citizens NFT Sale Privileged Buyers List Storage.sol\":6565:6604  addressList.couponLists[idOf(address_)] */\n      0x00\n        /* \"contracts/Founding Citizens NFT Sale Privileged Buyers List Storage.sol\":6589:6603  idOf(address_) */\n      tag_243\n        /* \"contracts/Founding Citizens NFT Sale Privileged Buyers List Storage.sol\":6594:6602  address_ */\n      dup5\n        /* \"contracts/Founding Citizens NFT Sale Privileged Buyers List Storage.sol\":6589:6593  idOf */\n      tag_102\n        /* \"contracts/Founding Citizens NFT Sale Privileged Buyers List Storage.sol\":6589:6603  idOf(address_) */\n      jump\t// in\n    tag_243:\n        /* \"contracts/Founding Citizens NFT Sale Privileged Buyers List Storage.sol\":6565:6604  addressList.couponLists[idOf(address_)] */\n      dup2\n      mstore\n      0x20\n      add\n      swap1\n      dup2\n      mstore\n      0x20\n      add\n      0x00\n      keccak256\n        /* \"contracts/Founding Citizens NFT Sale Privileged Buyers List Storage.sol\":6565:6612  addressList.couponLists[idOf(address_)].coupons */\n      0x01\n      add\n        /* \"contracts/Founding Citizens NFT Sale Privileged Buyers List Storage.sol\":6565:6640  addressList.couponLists[idOf(address_)].coupons[couponListLength(address_)] */\n      0x00\n        /* \"contracts/Founding Citizens NFT Sale Privileged Buyers List Storage.sol\":6613:6639  couponListLength(address_) */\n      tag_244\n        /* \"contracts/Founding Citizens NFT Sale Privileged Buyers List Storage.sol\":6630:6638  address_ */\n      dup5\n        /* \"contracts/Founding Citizens NFT Sale Privileged Buyers List Storage.sol\":6613:6629  couponListLength */\n      tag_74\n        /* \"contracts/Founding Citizens NFT Sale Privileged Buyers List Storage.sol\":6613:6639  couponListLength(address_) */\n      jump\t// in\n    tag_244:\n        /* \"contracts/Founding Citizens NFT Sale Privileged Buyers List Storage.sol\":6565:6640  addressList.couponLists[idOf(address_)].coupons[couponListLength(address_)] */\n      dup2\n      mstore\n      0x20\n      add\n      swap1\n      dup2\n      mstore\n      0x20\n      add\n      0x00\n      keccak256\n        /* \"contracts/Founding Citizens NFT Sale Privileged Buyers List Storage.sol\":6497:6508  addressList */\n      0x01\n        /* \"contracts/Founding Citizens NFT Sale Privileged Buyers List Storage.sol\":6497:6520  addressList.couponLists */\n      0x03\n      add\n        /* \"contracts/Founding Citizens NFT Sale Privileged Buyers List Storage.sol\":6497:6536  addressList.couponLists[idOf(address_)] */\n      0x00\n        /* \"contracts/Founding Citizens NFT Sale Privileged Buyers List Storage.sol\":6521:6535  idOf(address_) */\n      tag_245\n        /* \"contracts/Founding Citizens NFT Sale Privileged Buyers List Storage.sol\":6526:6534  address_ */\n      dup6\n        /* \"contracts/Founding Citizens NFT Sale Privileged Buyers List Storage.sol\":6521:6525  idOf */\n      tag_102\n        /* \"contracts/Founding Citizens NFT Sale Privileged Buyers List Storage.sol\":6521:6535  idOf(address_) */\n      jump\t// in\n    tag_245:\n        /* \"contracts/Founding Citizens NFT Sale Privileged Buyers List Storage.sol\":6497:6536  addressList.couponLists[idOf(address_)] */\n      dup2\n      mstore\n      0x20\n      add\n      swap1\n      dup2\n      mstore\n      0x20\n      add\n      0x00\n      keccak256\n        /* \"contracts/Founding Citizens NFT Sale Privileged Buyers List Storage.sol\":6497:6544  addressList.couponLists[idOf(address_)].coupons */\n      0x01\n      add\n        /* \"contracts/Founding Citizens NFT Sale Privileged Buyers List Storage.sol\":6497:6548  addressList.couponLists[idOf(address_)].coupons[id] */\n      0x00\n        /* \"contracts/Founding Citizens NFT Sale Privileged Buyers List Storage.sol\":6545:6547  id */\n      dup4\n        /* \"contracts/Founding Citizens NFT Sale Privileged Buyers List Storage.sol\":6497:6548  addressList.couponLists[idOf(address_)].coupons[id] */\n      dup2\n      mstore\n      0x20\n      add\n      swap1\n      dup2\n      mstore\n      0x20\n      add\n      0x00\n      keccak256\n        /* \"contracts/Founding Citizens NFT Sale Privileged Buyers List Storage.sol\":6497:6640  addressList.couponLists[idOf(address_)].coupons[id] = \r... */\n      0x00\n      dup3\n      add\n      sload\n      dup2\n      0x00\n      add\n      sstore\n      0x01\n      dup3\n      add\n      sload\n      dup2\n      0x01\n      add\n      sstore\n      swap1\n      pop\n      pop\n        /* \"contracts/Founding Citizens NFT Sale Privileged Buyers List Storage.sol\":6658:6669  addressList */\n      0x01\n        /* \"contracts/Founding Citizens NFT Sale Privileged Buyers List Storage.sol\":6658:6681  addressList.couponLists */\n      0x03\n      add\n        /* \"contracts/Founding Citizens NFT Sale Privileged Buyers List Storage.sol\":6658:6697  addressList.couponLists[idOf(address_)] */\n      0x00\n        /* \"contracts/Founding Citizens NFT Sale Privileged Buyers List Storage.sol\":6682:6696  idOf(address_) */\n      tag_246\n        /* \"contracts/Founding Citizens NFT Sale Privileged Buyers List Storage.sol\":6687:6695  address_ */\n      dup5\n        /* \"contracts/Founding Citizens NFT Sale Privileged Buyers List Storage.sol\":6682:6686  idOf */\n      tag_102\n        /* \"contracts/Founding Citizens NFT Sale Privileged Buyers List Storage.sol\":6682:6696  idOf(address_) */\n      jump\t// in\n    tag_246:\n        /* \"contracts/Founding Citizens NFT Sale Privileged Buyers List Storage.sol\":6658:6697  addressList.couponLists[idOf(address_)] */\n      dup2\n      mstore\n      0x20\n      add\n      swap1\n      dup2\n      mstore\n      0x20\n      add\n      0x00\n      keccak256\n        /* \"contracts/Founding Citizens NFT Sale Privileged Buyers List Storage.sol\":6658:6705  addressList.couponLists[idOf(address_)].coupons */\n      0x01\n      add\n        /* \"contracts/Founding Citizens NFT Sale Privileged Buyers List Storage.sol\":6658:6733  addressList.couponLists[idOf(address_)].coupons[couponListLength(address_)] */\n      0x00\n        /* \"contracts/Founding Citizens NFT Sale Privileged Buyers List Storage.sol\":6706:6732  couponListLength(address_) */\n      tag_247\n        /* \"contracts/Founding Citizens NFT Sale Privileged Buyers List Storage.sol\":6723:6731  address_ */\n      dup5\n        /* \"contracts/Founding Citizens NFT Sale Privileged Buyers List Storage.sol\":6706:6722  couponListLength */\n      tag_74\n        /* \"contracts/Founding Citizens NFT Sale Privileged Buyers List Storage.sol\":6706:6732  couponListLength(address_) */\n      jump\t// in\n    tag_247:\n        /* \"contracts/Founding Citizens NFT Sale Privileged Buyers List Storage.sol\":6658:6733  addressList.couponLists[idOf(address_)].coupons[couponListLength(address_)] */\n      dup2\n      mstore\n      0x20\n      add\n      swap1\n      dup2\n      mstore\n      0x20\n      add\n      0x00\n      keccak256\n      0x00\n        /* \"contracts/Founding Citizens NFT Sale Privileged Buyers List Storage.sol\":6651:6733  delete addressList.couponLists[idOf(address_)].coupons[couponListLength(address_)] */\n      dup1\n      dup3\n      add\n      0x00\n      swap1\n      sstore\n      0x01\n      dup3\n      add\n      0x00\n      swap1\n      sstore\n      pop\n      pop\n        /* \"contracts/Founding Citizens NFT Sale Privileged Buyers List Storage.sol\":6744:6755  addressList */\n      0x01\n        /* \"contracts/Founding Citizens NFT Sale Privileged Buyers List Storage.sol\":6744:6767  addressList.couponLists */\n      0x03\n      add\n        /* \"contracts/Founding Citizens NFT Sale Privileged Buyers List Storage.sol\":6744:6783  addressList.couponLists[idOf(address_)] */\n      0x00\n        /* \"contracts/Founding Citizens NFT Sale Privileged Buyers List Storage.sol\":6768:6782  idOf(address_) */\n      tag_248\n        /* \"contracts/Founding Citizens NFT Sale Privileged Buyers List Storage.sol\":6773:6781  address_ */\n      dup5\n        /* \"contracts/Founding Citizens NFT Sale Privileged Buyers List Storage.sol\":6768:6772  idOf */\n      tag_102\n        /* \"contracts/Founding Citizens NFT Sale Privileged Buyers List Storage.sol\":6768:6782  idOf(address_) */\n      jump\t// in\n    tag_248:\n        /* \"contracts/Founding Citizens NFT Sale Privileged Buyers List Storage.sol\":6744:6783  addressList.couponLists[idOf(address_)] */\n      dup2\n      mstore\n      0x20\n      add\n      swap1\n      dup2\n      mstore\n      0x20\n      add\n      0x00\n      keccak256\n        /* \"contracts/Founding Citizens NFT Sale Privileged Buyers List Storage.sol\":6744:6790  addressList.couponLists[idOf(address_)].length */\n      0x00\n      add\n      0x00\n        /* \"contracts/Founding Citizens NFT Sale Privileged Buyers List Storage.sol\":6744:6792  addressList.couponLists[idOf(address_)].length-- */\n      dup2\n      sload\n      dup1\n      swap3\n      swap2\n      swap1\n      tag_249\n      swap1\n      tag_199\n      jump\t// in\n    tag_249:\n      swap2\n      swap1\n      pop\n      sstore\n      pop\n        /* \"contracts/Founding Citizens NFT Sale Privileged Buyers List Storage.sol\":6162:6800  function removeCoupon(address address_, uint id) public {\r... */\n      pop\n      pop\n      jump\t// out\n        /* \"contracts/Founding Citizens NFT Sale Privileged Buyers List Storage.sol\":3149:3298  function addressHasCoupon(address address_) public view returns(bool) {\r... */\n    tag_109:\n        /* \"contracts/Founding Citizens NFT Sale Privileged Buyers List Storage.sol\":3213:3217  bool */\n      0x00\n        /* \"contracts/Founding Citizens NFT Sale Privileged Buyers List Storage.sol\":3288:3289  0 */\n      dup1\n        /* \"contracts/Founding Citizens NFT Sale Privileged Buyers List Storage.sol\":3238:3249  addressList */\n      0x01\n        /* \"contracts/Founding Citizens NFT Sale Privileged Buyers List Storage.sol\":3238:3261  addressList.couponLists */\n      0x03\n      add\n        /* \"contracts/Founding Citizens NFT Sale Privileged Buyers List Storage.sol\":3238:3277  addressList.couponLists[idOf(address_)] */\n      0x00\n        /* \"contracts/Founding Citizens NFT Sale Privileged Buyers List Storage.sol\":3262:3276  idOf(address_) */\n      tag_251\n        /* \"contracts/Founding Citizens NFT Sale Privileged Buyers List Storage.sol\":3267:3275  address_ */\n      dup6\n        /* \"contracts/Founding Citizens NFT Sale Privileged Buyers List Storage.sol\":3262:3266  idOf */\n      tag_102\n        /* \"contracts/Founding Citizens NFT Sale Privileged Buyers List Storage.sol\":3262:3276  idOf(address_) */\n      jump\t// in\n    tag_251:\n        /* \"contracts/Founding Citizens NFT Sale Privileged Buyers List Storage.sol\":3238:3277  addressList.couponLists[idOf(address_)] */\n      dup2\n      mstore\n      0x20\n      add\n      swap1\n      dup2\n      mstore\n      0x20\n      add\n      0x00\n      keccak256\n        /* \"contracts/Founding Citizens NFT Sale Privileged Buyers List Storage.sol\":3238:3284  addressList.couponLists[idOf(address_)].length */\n      0x00\n      add\n      sload\n        /* \"contracts/Founding Citizens NFT Sale Privileged Buyers List Storage.sol\":3238:3289  addressList.couponLists[idOf(address_)].length == 0 */\n      eq\n        /* \"contracts/Founding Citizens NFT Sale Privileged Buyers List Storage.sol\":3230:3290  return (addressList.couponLists[idOf(address_)].length == 0) */\n      swap1\n      pop\n        /* \"contracts/Founding Citizens NFT Sale Privileged Buyers List Storage.sol\":3149:3298  function addressHasCoupon(address address_) public view returns(bool) {\r... */\n      swap2\n      swap1\n      pop\n      jump\t// out\n        /* \"@openzeppelin/contracts@4.4.2/utils/introspection/ERC165.sol\":829:984  function supportsInterface(bytes4 interfaceId) public view virtual override returns (bool) {... */\n    tag_114:\n        /* \"@openzeppelin/contracts@4.4.2/utils/introspection/ERC165.sol\":914:918  bool */\n      0x00\n        /* \"@openzeppelin/contracts@4.4.2/utils/introspection/ERC165.sol\":952:977  type(IERC165).interfaceId */\n      0x01ffc9a700000000000000000000000000000000000000000000000000000000\n        /* \"@openzeppelin/contracts@4.4.2/utils/introspection/ERC165.sol\":937:977  interfaceId == type(IERC165).interfaceId */\n      not(0xffffffffffffffffffffffffffffffffffffffffffffffffffffffff)\n      and\n        /* \"@openzeppelin/contracts@4.4.2/utils/introspection/ERC165.sol\":937:948  interfaceId */\n      dup3\n        /* \"@openzeppelin/contracts@4.4.2/utils/introspection/ERC165.sol\":937:977  interfaceId == type(IERC165).interfaceId */\n      not(0xffffffffffffffffffffffffffffffffffffffffffffffffffffffff)\n      and\n      eq\n        /* \"@openzeppelin/contracts@4.4.2/utils/introspection/ERC165.sol\":930:977  return interfaceId == type(IERC165).interfaceId */\n      swap1\n      pop\n        /* \"@openzeppelin/contracts@4.4.2/utils/introspection/ERC165.sol\":829:984  function supportsInterface(bytes4 interfaceId) public view virtual override returns (bool) {... */\n      swap2\n      swap1\n      pop\n      jump\t// out\n        /* \"@openzeppelin/contracts@4.4.2/utils/Context.sol\":640:736  function _msgSender() internal view virtual returns (address) {... */\n    tag_129:\n        /* \"@openzeppelin/contracts@4.4.2/utils/Context.sol\":693:700  address */\n      0x00\n        /* \"@openzeppelin/contracts@4.4.2/utils/Context.sol\":719:729  msg.sender */\n      caller\n        /* \"@openzeppelin/contracts@4.4.2/utils/Context.sol\":712:729  return msg.sender */\n      swap1\n      pop\n        /* \"@openzeppelin/contracts@4.4.2/utils/Context.sol\":640:736  function _msgSender() internal view virtual returns (address) {... */\n      swap1\n      jump\t// out\n        /* \"@openzeppelin/contracts@4.4.2/access/AccessControl.sol\":3312:3796  function _checkRole(bytes32 role, address account) internal view {... */\n    tag_130:\n        /* \"@openzeppelin/contracts@4.4.2/access/AccessControl.sol\":3392:3414  hasRole(role, account) */\n      tag_255\n        /* \"@openzeppelin/contracts@4.4.2/access/AccessControl.sol\":3400:3404  role */\n      dup3\n        /* \"@openzeppelin/contracts@4.4.2/access/AccessControl.sol\":3406:3413  account */\n      dup3\n        /* \"@openzeppelin/contracts@4.4.2/access/AccessControl.sol\":3392:3399  hasRole */\n      tag_79\n        /* \"@openzeppelin/contracts@4.4.2/access/AccessControl.sol\":3392:3414  hasRole(role, account) */\n      jump\t// in\n    tag_255:\n        /* \"@openzeppelin/contracts@4.4.2/access/AccessControl.sol\":3387:3790  if (!hasRole(role, account)) {... */\n      tag_256\n      jumpi\n        /* \"@openzeppelin/contracts@4.4.2/access/AccessControl.sol\":3575:3616  Strings.toHexString(uint160(account), 20) */\n      tag_257\n        /* \"@openzeppelin/contracts@4.4.2/access/AccessControl.sol\":3603:3610  account */\n      dup2\n        /* \"@openzeppelin/contracts@4.4.2/access/AccessControl.sol\":3575:3616  Strings.toHexString(uint160(account), 20) */\n      0xffffffffffffffffffffffffffffffffffffffff\n      and\n        /* \"@openzeppelin/contracts@4.4.2/access/AccessControl.sol\":3613:3615  20 */\n      0x14\n        /* \"@openzeppelin/contracts@4.4.2/access/AccessControl.sol\":3575:3594  Strings.toHexString */\n      tag_258\n        /* \"@openzeppelin/contracts@4.4.2/access/AccessControl.sol\":3575:3616  Strings.toHexString(uint160(account), 20) */\n      jump\t// in\n    tag_257:\n        /* \"@openzeppelin/contracts@4.4.2/access/AccessControl.sol\":3687:3725  Strings.toHexString(uint256(role), 32) */\n      tag_259\n        /* \"@openzeppelin/contracts@4.4.2/access/AccessControl.sol\":3715:3719  role */\n      dup4\n        /* \"@openzeppelin/contracts@4.4.2/access/AccessControl.sol\":3707:3720  uint256(role) */\n      0x00\n      shr\n        /* \"@openzeppelin/contracts@4.4.2/access/AccessControl.sol\":3722:3724  32 */\n      0x20\n        /* \"@openzeppelin/contracts@4.4.2/access/AccessControl.sol\":3687:3706  Strings.toHexString */\n      tag_258\n        /* \"@openzeppelin/contracts@4.4.2/access/AccessControl.sol\":3687:3725  Strings.toHexString(uint256(role), 32) */\n      jump\t// in\n    tag_259:\n        /* \"@openzeppelin/contracts@4.4.2/access/AccessControl.sol\":3482:3747  abi.encodePacked(... */\n      add(0x20, mload(0x40))\n      tag_260\n      swap3\n      swap2\n      swap1\n      tag_261\n      jump\t// in\n    tag_260:\n      mload(0x40)\n      0x20\n      dup2\n      dup4\n      sub\n      sub\n      dup2\n      mstore\n      swap1\n      0x40\n      mstore\n        /* \"@openzeppelin/contracts@4.4.2/access/AccessControl.sol\":3430:3779  revert(... */\n      mload(0x40)\n      0x08c379a000000000000000000000000000000000000000000000000000000000\n      dup2\n      mstore\n      0x04\n      add\n      tag_262\n      swap2\n      swap1\n      tag_263\n      jump\t// in\n    tag_262:\n      mload(0x40)\n      dup1\n      swap2\n      sub\n      swap1\n      revert\n        /* \"@openzeppelin/contracts@4.4.2/access/AccessControl.sol\":3387:3790  if (!hasRole(role, account)) {... */\n    tag_256:\n        /* \"@openzeppelin/contracts@4.4.2/access/AccessControl.sol\":3312:3796  function _checkRole(bytes32 role, address account) internal view {... */\n      pop\n      pop\n      jump\t// out\n        /* \"@openzeppelin/contracts@4.4.2/access/AccessControl.sol\":6822:7055  function _grantRole(bytes32 role, address account) internal virtual {... */\n    tag_133:\n        /* \"@openzeppelin/contracts@4.4.2/access/AccessControl.sol\":6905:6927  hasRole(role, account) */\n      tag_265\n        /* \"@openzeppelin/contracts@4.4.2/access/AccessControl.sol\":6913:6917  role */\n      dup3\n        /* \"@openzeppelin/contracts@4.4.2/access/AccessControl.sol\":6919:6926  account */\n      dup3\n        /* \"@openzeppelin/contracts@4.4.2/access/AccessControl.sol\":6905:6912  hasRole */\n      tag_79\n        /* \"@openzeppelin/contracts@4.4.2/access/AccessControl.sol\":6905:6927  hasRole(role, account) */\n      jump\t// in\n    tag_265:\n        /* \"@openzeppelin/contracts@4.4.2/access/AccessControl.sol\":6900:7049  if (!hasRole(role, account)) {... */\n      tag_266\n      jumpi\n        /* \"@openzeppelin/contracts@4.4.2/access/AccessControl.sol\":6975:6979  true */\n      0x01\n        /* \"@openzeppelin/contracts@4.4.2/access/AccessControl.sol\":6943:6949  _roles */\n      0x00\n        /* \"@openzeppelin/contracts@4.4.2/access/AccessControl.sol\":6943:6955  _roles[role] */\n      dup1\n        /* \"@openzeppelin/contracts@4.4.2/access/AccessControl.sol\":6950:6954  role */\n      dup5\n        /* \"@openzeppelin/contracts@4.4.2/access/AccessControl.sol\":6943:6955  _roles[role] */\n      dup2\n      mstore\n      0x20\n      add\n      swap1\n      dup2\n      mstore\n      0x20\n      add\n      0x00\n      keccak256\n        /* \"@openzeppelin/contracts@4.4.2/access/AccessControl.sol\":6943:6963  _roles[role].members */\n      0x00\n      add\n        /* \"@openzeppelin/contracts@4.4.2/access/AccessControl.sol\":6943:6972  _roles[role].members[account] */\n      0x00\n        /* \"@openzeppelin/contracts@4.4.2/access/AccessControl.sol\":6964:6971  account */\n      dup4\n        /* \"@openzeppelin/contracts@4.4.2/access/AccessControl.sol\":6943:6972  _roles[role].members[account] */\n      0xffffffffffffffffffffffffffffffffffffffff\n      and\n      0xffffffffffffffffffffffffffffffffffffffff\n      and\n      dup2\n      mstore\n      0x20\n      add\n      swap1\n      dup2\n      mstore\n      0x20\n      add\n      0x00\n      keccak256\n      0x00\n        /* \"@openzeppelin/contracts@4.4.2/access/AccessControl.sol\":6943:6979  _roles[role].members[account] = true */\n      0x0100\n      exp\n      dup2\n      sload\n      dup2\n      0xff\n      mul\n      not\n      and\n      swap1\n      dup4\n      iszero\n      iszero\n      mul\n      or\n      swap1\n      sstore\n      pop\n        /* \"@openzeppelin/contracts@4.4.2/access/AccessControl.sol\":7025:7037  _msgSender() */\n      tag_267\n        /* \"@openzeppelin/contracts@4.4.2/access/AccessControl.sol\":7025:7035  _msgSender */\n      tag_129\n        /* \"@openzeppelin/contracts@4.4.2/access/AccessControl.sol\":7025:7037  _msgSender() */\n      jump\t// in\n    tag_267:\n        /* \"@openzeppelin/contracts@4.4.2/access/AccessControl.sol\":6998:7038  RoleGranted(role, account, _msgSender()) */\n      0xffffffffffffffffffffffffffffffffffffffff\n      and\n        /* \"@openzeppelin/contracts@4.4.2/access/AccessControl.sol\":7016:7023  account */\n      dup2\n        /* \"@openzeppelin/contracts@4.4.2/access/AccessControl.sol\":6998:7038  RoleGranted(role, account, _msgSender()) */\n      0xffffffffffffffffffffffffffffffffffffffff\n      and\n        /* \"@openzeppelin/contracts@4.4.2/access/AccessControl.sol\":7010:7014  role */\n      dup4\n        /* \"@openzeppelin/contracts@4.4.2/access/AccessControl.sol\":6998:7038  RoleGranted(role, account, _msgSender()) */\n      0x2f8788117e7eff1d82e926ec794901d17c78024a50270940304540a733656f0d\n      mload(0x40)\n      mload(0x40)\n      dup1\n      swap2\n      sub\n      swap1\n      log4\n        /* \"@openzeppelin/contracts@4.4.2/access/AccessControl.sol\":6900:7049  if (!hasRole(role, account)) {... */\n    tag_266:\n        /* \"@openzeppelin/contracts@4.4.2/access/AccessControl.sol\":6822:7055  function _grantRole(bytes32 role, address account) internal virtual {... */\n      pop\n      pop\n      jump\t// out\n        /* \"@openzeppelin/contracts@4.4.2/access/AccessControl.sol\":7180:7414  function _revokeRole(bytes32 role, address account) internal virtual {... */\n    tag_140:\n        /* \"@openzeppelin/contracts@4.4.2/access/AccessControl.sol\":7263:7285  hasRole(role, account) */\n      tag_269\n        /* \"@openzeppelin/contracts@4.4.2/access/AccessControl.sol\":7271:7275  role */\n      dup3\n        /* \"@openzeppelin/contracts@4.4.2/access/AccessControl.sol\":7277:7284  account */\n      dup3\n        /* \"@openzeppelin/contracts@4.4.2/access/AccessControl.sol\":7263:7270  hasRole */\n      tag_79\n        /* \"@openzeppelin/contracts@4.4.2/access/AccessControl.sol\":7263:7285  hasRole(role, account) */\n      jump\t// in\n    tag_269:\n        /* \"@openzeppelin/contracts@4.4.2/access/AccessControl.sol\":7259:7408  if (hasRole(role, account)) {... */\n      iszero\n      tag_270\n      jumpi\n        /* \"@openzeppelin/contracts@4.4.2/access/AccessControl.sol\":7333:7338  false */\n      0x00\n        /* \"@openzeppelin/contracts@4.4.2/access/AccessControl.sol\":7301:7307  _roles */\n      dup1\n        /* \"@openzeppelin/contracts@4.4.2/access/AccessControl.sol\":7301:7313  _roles[role] */\n      0x00\n        /* \"@openzeppelin/contracts@4.4.2/access/AccessControl.sol\":7308:7312  role */\n      dup5\n        /* \"@openzeppelin/contracts@4.4.2/access/AccessControl.sol\":7301:7313  _roles[role] */\n      dup2\n      mstore\n      0x20\n      add\n      swap1\n      dup2\n      mstore\n      0x20\n      add\n      0x00\n      keccak256\n        /* \"@openzeppelin/contracts@4.4.2/access/AccessControl.sol\":7301:7321  _roles[role].members */\n      0x00\n      add\n        /* \"@openzeppelin/contracts@4.4.2/access/AccessControl.sol\":7301:7330  _roles[role].members[account] */\n      0x00\n        /* \"@openzeppelin/contracts@4.4.2/access/AccessControl.sol\":7322:7329  account */\n      dup4\n        /* \"@openzeppelin/contracts@4.4.2/access/AccessControl.sol\":7301:7330  _roles[role].members[account] */\n      0xffffffffffffffffffffffffffffffffffffffff\n      and\n      0xffffffffffffffffffffffffffffffffffffffff\n      and\n      dup2\n      mstore\n      0x20\n      add\n      swap1\n      dup2\n      mstore\n      0x20\n      add\n      0x00\n      keccak256\n      0x00\n        /* \"@openzeppelin/contracts@4.4.2/access/AccessControl.sol\":7301:7338  _roles[role].members[account] = false */\n      0x0100\n      exp\n      dup2\n      sload\n      dup2\n      0xff\n      mul\n      not\n      and\n      swap1\n      dup4\n      iszero\n      iszero\n      mul\n      or\n      swap1\n      sstore\n      pop\n        /* \"@openzeppelin/contracts@4.4.2/access/AccessControl.sol\":7384:7396  _msgSender() */\n      tag_271\n        /* \"@openzeppelin/contracts@4.4.2/access/AccessControl.sol\":7384:7394  _msgSender */\n      tag_129\n        /* \"@openzeppelin/contracts@4.4.2/access/AccessControl.sol\":7384:7396  _msgSender() */\n      jump\t// in\n    tag_271:\n        /* \"@openzeppelin/contracts@4.4.2/access/AccessControl.sol\":7357:7397  RoleRevoked(role, account, _msgSender()) */\n      0xffffffffffffffffffffffffffffffffffffffff\n      and\n        /* \"@openzeppelin/contracts@4.4.2/access/AccessControl.sol\":7375:7382  account */\n      dup2\n        /* \"@openzeppelin/contracts@4.4.2/access/AccessControl.sol\":7357:7397  RoleRevoked(role, account, _msgSender()) */\n      0xffffffffffffffffffffffffffffffffffffffff\n      and\n        /* \"@openzeppelin/contracts@4.4.2/access/AccessControl.sol\":7369:7373  role */\n      dup4\n        /* \"@openzeppelin/contracts@4.4.2/access/AccessControl.sol\":7357:7397  RoleRevoked(role, account, _msgSender()) */\n      0xf6391f5c32d9c69d2a47ea670b442974b53935d1edc7fd64eb21e047a839171b\n      mload(0x40)\n      mload(0x40)\n      dup1\n      swap2\n      sub\n      swap1\n      log4\n        /* \"@openzeppelin/contracts@4.4.2/access/AccessControl.sol\":7259:7408  if (hasRole(role, account)) {... */\n    tag_270:\n        /* \"@openzeppelin/contracts@4.4.2/access/AccessControl.sol\":7180:7414  function _revokeRole(bytes32 role, address account) internal virtual {... */\n      pop\n      pop\n      jump\t// out\n        /* \"contracts/Founding Citizens NFT Sale Privileged Buyers List Storage.sol\":6808:7509  function _reduceCouponUses(address address_, uint id, uint numberOfUses) internal {\r... */\n    tag_223:\n        /* \"contracts/Founding Citizens NFT Sale Privileged Buyers List Storage.sol\":6901:6915  bool condition */\n      0x00\n        /* \"contracts/Founding Citizens NFT Sale Privileged Buyers List Storage.sol\":6987:6999  numberOfUses */\n      dup2\n        /* \"contracts/Founding Citizens NFT Sale Privileged Buyers List Storage.sol\":6919:6930  addressList */\n      0x01\n        /* \"contracts/Founding Citizens NFT Sale Privileged Buyers List Storage.sol\":6919:6942  addressList.couponLists */\n      0x03\n      add\n        /* \"contracts/Founding Citizens NFT Sale Privileged Buyers List Storage.sol\":6919:6958  addressList.couponLists[idOf(address_)] */\n      0x00\n        /* \"contracts/Founding Citizens NFT Sale Privileged Buyers List Storage.sol\":6943:6957  idOf(address_) */\n      tag_273\n        /* \"contracts/Founding Citizens NFT Sale Privileged Buyers List Storage.sol\":6948:6956  address_ */\n      dup8\n        /* \"contracts/Founding Citizens NFT Sale Privileged Buyers List Storage.sol\":6943:6947  idOf */\n      tag_102\n        /* \"contracts/Founding Citizens NFT Sale Privileged Buyers List Storage.sol\":6943:6957  idOf(address_) */\n      jump\t// in\n    tag_273:\n        /* \"contracts/Founding Citizens NFT Sale Privileged Buyers List Storage.sol\":6919:6958  addressList.couponLists[idOf(address_)] */\n      dup2\n      mstore\n      0x20\n      add\n      swap1\n      dup2\n      mstore\n      0x20\n      add\n      0x00\n      keccak256\n        /* \"contracts/Founding Citizens NFT Sale Privileged Buyers List Storage.sol\":6919:6966  addressList.couponLists[idOf(address_)].coupons */\n      0x01\n      add\n        /* \"contracts/Founding Citizens NFT Sale Privileged Buyers List Storage.sol\":6919:6970  addressList.couponLists[idOf(address_)].coupons[id] */\n      0x00\n        /* \"contracts/Founding Citizens NFT Sale Privileged Buyers List Storage.sol\":6967:6969  id */\n      dup6\n        /* \"contracts/Founding Citizens NFT Sale Privileged Buyers List Storage.sol\":6919:6970  addressList.couponLists[idOf(address_)].coupons[id] */\n      dup2\n      mstore\n      0x20\n      add\n      swap1\n      dup2\n      mstore\n      0x20\n      add\n      0x00\n      keccak256\n        /* \"contracts/Founding Citizens NFT Sale Privileged Buyers List Storage.sol\":6919:6983  addressList.couponLists[idOf(address_)].coupons[id].numberOfUses */\n      0x01\n      add\n      sload\n        /* \"contracts/Founding Citizens NFT Sale Privileged Buyers List Storage.sol\":6919:6999  addressList.couponLists[idOf(address_)].coupons[id].numberOfUses >= numberOfUses */\n      lt\n      iszero\n        /* \"contracts/Founding Citizens NFT Sale Privileged Buyers List Storage.sol\":6901:7000  bool condition = (addressList.couponLists[idOf(address_)].coupons[id].numberOfUses >= numberOfUses) */\n      swap1\n      pop\n        /* \"contracts/Founding Citizens NFT Sale Privileged Buyers List Storage.sol\":7011:7033  string memory errorMsg */\n      0x00\n        /* \"contracts/Founding Citizens NFT Sale Privileged Buyers List Storage.sol\":7167:7178  addressList */\n      0x01\n        /* \"contracts/Founding Citizens NFT Sale Privileged Buyers List Storage.sol\":7167:7190  addressList.couponLists */\n      0x03\n      add\n        /* \"contracts/Founding Citizens NFT Sale Privileged Buyers List Storage.sol\":7167:7206  addressList.couponLists[idOf(address_)] */\n      0x00\n        /* \"contracts/Founding Citizens NFT Sale Privileged Buyers List Storage.sol\":7191:7205  idOf(address_) */\n      tag_274\n        /* \"contracts/Founding Citizens NFT Sale Privileged Buyers List Storage.sol\":7196:7204  address_ */\n      dup8\n        /* \"contracts/Founding Citizens NFT Sale Privileged Buyers List Storage.sol\":7191:7195  idOf */\n      tag_102\n        /* \"contracts/Founding Citizens NFT Sale Privileged Buyers List Storage.sol\":7191:7205  idOf(address_) */\n      jump\t// in\n    tag_274:\n        /* \"contracts/Founding Citizens NFT Sale Privileged Buyers List Storage.sol\":7167:7206  addressList.couponLists[idOf(address_)] */\n      dup2\n      mstore\n      0x20\n      add\n      swap1\n      dup2\n      mstore\n      0x20\n      add\n      0x00\n      keccak256\n        /* \"contracts/Founding Citizens NFT Sale Privileged Buyers List Storage.sol\":7167:7214  addressList.couponLists[idOf(address_)].coupons */\n      0x01\n      add\n        /* \"contracts/Founding Citizens NFT Sale Privileged Buyers List Storage.sol\":7167:7218  addressList.couponLists[idOf(address_)].coupons[id] */\n      0x00\n        /* \"contracts/Founding Citizens NFT Sale Privileged Buyers List Storage.sol\":7215:7217  id */\n      dup6\n        /* \"contracts/Founding Citizens NFT Sale Privileged Buyers List Storage.sol\":7167:7218  addressList.couponLists[idOf(address_)].coupons[id] */\n      dup2\n      mstore\n      0x20\n      add\n      swap1\n      dup2\n      mstore\n      0x20\n      add\n      0x00\n      keccak256\n        /* \"contracts/Founding Citizens NFT Sale Privileged Buyers List Storage.sol\":7167:7231  addressList.couponLists[idOf(address_)].coupons[id].numberOfUses */\n      0x01\n      add\n      sload\n        /* \"contracts/Founding Citizens NFT Sale Privileged Buyers List Storage.sol\":7043:7232  abi.encodePacked(\r... */\n      add(0x20, mload(0x40))\n      tag_275\n      swap2\n      swap1\n      tag_276\n      jump\t// in\n    tag_275:\n      mload(0x40)\n      0x20\n      dup2\n      dup4\n      sub\n      sub\n      dup2\n      mstore\n      swap1\n      0x40\n      mstore\n        /* \"contracts/Founding Citizens NFT Sale Privileged Buyers List Storage.sol\":7011:7233  string memory errorMsg = string(abi.encodePacked(\r... */\n      swap1\n      pop\n        /* \"contracts/Founding Citizens NFT Sale Privileged Buyers List Storage.sol\":7252:7261  condition */\n      dup2\n        /* \"contracts/Founding Citizens NFT Sale Privileged Buyers List Storage.sol\":7263:7271  errorMsg */\n      dup2\n        /* \"contracts/Founding Citizens NFT Sale Privileged Buyers List Storage.sol\":7244:7272  require(condition, errorMsg) */\n      swap1\n      tag_277\n      jumpi\n      mload(0x40)\n      0x08c379a000000000000000000000000000000000000000000000000000000000\n      dup2\n      mstore\n      0x04\n      add\n      tag_278\n      swap2\n      swap1\n      tag_263\n      jump\t// in\n    tag_278:\n      mload(0x40)\n      dup1\n      swap2\n      sub\n      swap1\n      revert\n    tag_277:\n      pop\n        /* \"contracts/Founding Citizens NFT Sale Privileged Buyers List Storage.sol\":7351:7363  numberOfUses */\n      dup3\n        /* \"contracts/Founding Citizens NFT Sale Privileged Buyers List Storage.sol\":7283:7294  addressList */\n      0x01\n        /* \"contracts/Founding Citizens NFT Sale Privileged Buyers List Storage.sol\":7283:7306  addressList.couponLists */\n      0x03\n      add\n        /* \"contracts/Founding Citizens NFT Sale Privileged Buyers List Storage.sol\":7283:7322  addressList.couponLists[idOf(address_)] */\n      0x00\n        /* \"contracts/Founding Citizens NFT Sale Privileged Buyers List Storage.sol\":7307:7321  idOf(address_) */\n      tag_279\n        /* \"contracts/Founding Citizens NFT Sale Privileged Buyers List Storage.sol\":7312:7320  address_ */\n      dup9\n        /* \"contracts/Founding Citizens NFT Sale Privileged Buyers List Storage.sol\":7307:7311  idOf */\n      tag_102\n        /* \"contracts/Founding Citizens NFT Sale Privileged Buyers List Storage.sol\":7307:7321  idOf(address_) */\n      jump\t// in\n    tag_279:\n        /* \"contracts/Founding Citizens NFT Sale Privileged Buyers List Storage.sol\":7283:7322  addressList.couponLists[idOf(address_)] */\n      dup2\n      mstore\n      0x20\n      add\n      swap1\n      dup2\n      mstore\n      0x20\n      add\n      0x00\n      keccak256\n        /* \"contracts/Founding Citizens NFT Sale Privileged Buyers List Storage.sol\":7283:7330  addressList.couponLists[idOf(address_)].coupons */\n      0x01\n      add\n        /* \"contracts/Founding Citizens NFT Sale Privileged Buyers List Storage.sol\":7283:7334  addressList.couponLists[idOf(address_)].coupons[id] */\n      0x00\n        /* \"contracts/Founding Citizens NFT Sale Privileged Buyers List Storage.sol\":7331:7333  id */\n      dup7\n        /* \"contracts/Founding Citizens NFT Sale Privileged Buyers List Storage.sol\":7283:7334  addressList.couponLists[idOf(address_)].coupons[id] */\n      dup2\n      mstore\n      0x20\n      add\n      swap1\n      dup2\n      mstore\n      0x20\n      add\n      0x00\n      keccak256\n        /* \"contracts/Founding Citizens NFT Sale Privileged Buyers List Storage.sol\":7283:7347  addressList.couponLists[idOf(address_)].coupons[id].numberOfUses */\n      0x01\n      add\n      0x00\n        /* \"contracts/Founding Citizens NFT Sale Privileged Buyers List Storage.sol\":7283:7363  addressList.couponLists[idOf(address_)].coupons[id].numberOfUses -= numberOfUses */\n      dup3\n      dup3\n      sload\n      tag_280\n      swap2\n      swap1\n      tag_281\n      jump\t// in\n    tag_280:\n      swap3\n      pop\n      pop\n      dup2\n      swap1\n      sstore\n      pop\n        /* \"contracts/Founding Citizens NFT Sale Privileged Buyers List Storage.sol\":7446:7447  0 */\n      0x00\n        /* \"contracts/Founding Citizens NFT Sale Privileged Buyers List Storage.sol\":7378:7389  addressList */\n      0x01\n        /* \"contracts/Founding Citizens NFT Sale Privileged Buyers List Storage.sol\":7378:7401  addressList.couponLists */\n      0x03\n      add\n        /* \"contracts/Founding Citizens NFT Sale Privileged Buyers List Storage.sol\":7378:7417  addressList.couponLists[idOf(address_)] */\n      0x00\n        /* \"contracts/Founding Citizens NFT Sale Privileged Buyers List Storage.sol\":7402:7416  idOf(address_) */\n      tag_282\n        /* \"contracts/Founding Citizens NFT Sale Privileged Buyers List Storage.sol\":7407:7415  address_ */\n      dup9\n        /* \"contracts/Founding Citizens NFT Sale Privileged Buyers List Storage.sol\":7402:7406  idOf */\n      tag_102\n        /* \"contracts/Founding Citizens NFT Sale Privileged Buyers List Storage.sol\":7402:7416  idOf(address_) */\n      jump\t// in\n    tag_282:\n        /* \"contracts/Founding Citizens NFT Sale Privileged Buyers List Storage.sol\":7378:7417  addressList.couponLists[idOf(address_)] */\n      dup2\n      mstore\n      0x20\n      add\n      swap1\n      dup2\n      mstore\n      0x20\n      add\n      0x00\n      keccak256\n        /* \"contracts/Founding Citizens NFT Sale Privileged Buyers List Storage.sol\":7378:7425  addressList.couponLists[idOf(address_)].coupons */\n      0x01\n      add\n        /* \"contracts/Founding Citizens NFT Sale Privileged Buyers List Storage.sol\":7378:7429  addressList.couponLists[idOf(address_)].coupons[id] */\n      0x00\n        /* \"contracts/Founding Citizens NFT Sale Privileged Buyers List Storage.sol\":7426:7428  id */\n      dup7\n        /* \"contracts/Founding Citizens NFT Sale Privileged Buyers List Storage.sol\":7378:7429  addressList.couponLists[idOf(address_)].coupons[id] */\n      dup2\n      mstore\n      0x20\n      add\n      swap1\n      dup2\n      mstore\n      0x20\n      add\n      0x00\n      keccak256\n        /* \"contracts/Founding Citizens NFT Sale Privileged Buyers List Storage.sol\":7378:7442  addressList.couponLists[idOf(address_)].coupons[id].numberOfUses */\n      0x01\n      add\n      sload\n        /* \"contracts/Founding Citizens NFT Sale Privileged Buyers List Storage.sol\":7378:7447  addressList.couponLists[idOf(address_)].coupons[id].numberOfUses <= 0 */\n      gt\n        /* \"contracts/Founding Citizens NFT Sale Privileged Buyers List Storage.sol\":7374:7502  if (addressList.couponLists[idOf(address_)].coupons[id].numberOfUses <= 0) {\r... */\n      tag_283\n      jumpi\n        /* \"contracts/Founding Citizens NFT Sale Privileged Buyers List Storage.sol\":7464:7490  removeCoupon(address_, id) */\n      tag_284\n        /* \"contracts/Founding Citizens NFT Sale Privileged Buyers List Storage.sol\":7477:7485  address_ */\n      dup6\n        /* \"contracts/Founding Citizens NFT Sale Privileged Buyers List Storage.sol\":7487:7489  id */\n      dup6\n        /* \"contracts/Founding Citizens NFT Sale Privileged Buyers List Storage.sol\":7464:7476  removeCoupon */\n      tag_106\n        /* \"contracts/Founding Citizens NFT Sale Privileged Buyers List Storage.sol\":7464:7490  removeCoupon(address_, id) */\n      jump\t// in\n    tag_284:\n        /* \"contracts/Founding Citizens NFT Sale Privileged Buyers List Storage.sol\":7374:7502  if (addressList.couponLists[idOf(address_)].coupons[id].numberOfUses <= 0) {\r... */\n    tag_283:\n        /* \"contracts/Founding Citizens NFT Sale Privileged Buyers List Storage.sol\":6808:7509  function _reduceCouponUses(address address_, uint id, uint numberOfUses) internal {\r... */\n      pop\n      pop\n      pop\n      pop\n      pop\n      jump\t// out\n        /* \"@openzeppelin/contracts@4.4.2/utils/Strings.sol\":1588:2029  function toHexString(uint256 value, uint256 length) internal pure returns (string memory) {... */\n    tag_258:\n        /* \"@openzeppelin/contracts@4.4.2/utils/Strings.sol\":1663:1676  string memory */\n      0x60\n        /* \"@openzeppelin/contracts@4.4.2/utils/Strings.sol\":1688:1707  bytes memory buffer */\n      0x00\n        /* \"@openzeppelin/contracts@4.4.2/utils/Strings.sol\":1733:1734  2 */\n      0x02\n        /* \"@openzeppelin/contracts@4.4.2/utils/Strings.sol\":1724:1730  length */\n      dup4\n        /* \"@openzeppelin/contracts@4.4.2/utils/Strings.sol\":1720:1721  2 */\n      0x02\n        /* \"@openzeppelin/contracts@4.4.2/utils/Strings.sol\":1720:1730  2 * length */\n      tag_286\n      swap2\n      swap1\n      tag_287\n      jump\t// in\n    tag_286:\n        /* \"@openzeppelin/contracts@4.4.2/utils/Strings.sol\":1720:1734  2 * length + 2 */\n      tag_288\n      swap2\n      swap1\n      tag_289\n      jump\t// in\n    tag_288:\n        /* \"@openzeppelin/contracts@4.4.2/utils/Strings.sol\":1710:1735  new bytes(2 * length + 2) */\n      0xffffffffffffffff\n      dup2\n      gt\n      iszero\n      tag_290\n      jumpi\n      mstore(0x00, 0x4e487b7100000000000000000000000000000000000000000000000000000000)\n      mstore(0x04, 0x41)\n      revert(0x00, 0x24)\n    tag_290:\n      mload(0x40)\n      swap1\n      dup1\n      dup3\n      mstore\n      dup1\n      0x1f\n      add\n      not(0x1f)\n      and\n      0x20\n      add\n      dup3\n      add\n      0x40\n      mstore\n      dup1\n      iszero\n      tag_291\n      jumpi\n      dup2\n      0x20\n      add\n      0x01\n      dup3\n      mul\n      dup1\n      calldatasize\n      dup4\n      calldatacopy\n      dup1\n      dup3\n      add\n      swap2\n      pop\n      pop\n      swap1\n      pop\n    tag_291:\n      pop\n        /* \"@openzeppelin/contracts@4.4.2/utils/Strings.sol\":1688:1735  bytes memory buffer = new bytes(2 * length + 2) */\n      swap1\n      pop\n        /* \"@openzeppelin/contracts@4.4.2/utils/Strings.sol\":1745:1760  buffer[0] = \"0\" */\n      0x3000000000000000000000000000000000000000000000000000000000000000\n        /* \"@openzeppelin/contracts@4.4.2/utils/Strings.sol\":1745:1751  buffer */\n      dup2\n        /* \"@openzeppelin/contracts@4.4.2/utils/Strings.sol\":1752:1753  0 */\n      0x00\n        /* \"@openzeppelin/contracts@4.4.2/utils/Strings.sol\":1745:1754  buffer[0] */\n      dup2\n      mload\n      dup2\n      lt\n      tag_292\n      jumpi\n      mstore(0x00, 0x4e487b7100000000000000000000000000000000000000000000000000000000)\n      mstore(0x04, 0x32)\n      revert(0x00, 0x24)\n    tag_292:\n      0x20\n      add\n      add\n        /* \"@openzeppelin/contracts@4.4.2/utils/Strings.sol\":1745:1760  buffer[0] = \"0\" */\n      swap1\n      not(0xffffffffffffffffffffffffffffffffffffffffffffffffffffffffffffff)\n      and\n      swap1\n      dup2\n      0x00\n      byte\n      swap1\n      mstore8\n      pop\n        /* \"@openzeppelin/contracts@4.4.2/utils/Strings.sol\":1770:1785  buffer[1] = \"x\" */\n      0x7800000000000000000000000000000000000000000000000000000000000000\n        /* \"@openzeppelin/contracts@4.4.2/utils/Strings.sol\":1770:1776  buffer */\n      dup2\n        /* \"@openzeppelin/contracts@4.4.2/utils/Strings.sol\":1777:1778  1 */\n      0x01\n        /* \"@openzeppelin/contracts@4.4.2/utils/Strings.sol\":1770:1779  buffer[1] */\n      dup2\n      mload\n      dup2\n      lt\n      tag_293\n      jumpi\n      mstore(0x00, 0x4e487b7100000000000000000000000000000000000000000000000000000000)\n      mstore(0x04, 0x32)\n      revert(0x00, 0x24)\n    tag_293:\n      0x20\n      add\n      add\n        /* \"@openzeppelin/contracts@4.4.2/utils/Strings.sol\":1770:1785  buffer[1] = \"x\" */\n      swap1\n      not(0xffffffffffffffffffffffffffffffffffffffffffffffffffffffffffffff)\n      and\n      swap1\n      dup2\n      0x00\n      byte\n      swap1\n      mstore8\n      pop\n        /* \"@openzeppelin/contracts@4.4.2/utils/Strings.sol\":1800:1809  uint256 i */\n      0x00\n        /* \"@openzeppelin/contracts@4.4.2/utils/Strings.sol\":1825:1826  1 */\n      0x01\n        /* \"@openzeppelin/contracts@4.4.2/utils/Strings.sol\":1816:1822  length */\n      dup5\n        /* \"@openzeppelin/contracts@4.4.2/utils/Strings.sol\":1812:1813  2 */\n      0x02\n        /* \"@openzeppelin/contracts@4.4.2/utils/Strings.sol\":1812:1822  2 * length */\n      tag_297\n      swap2\n      swap1\n      tag_287\n      jump\t// in\n    tag_297:\n        /* \"@openzeppelin/contracts@4.4.2/utils/Strings.sol\":1812:1826  2 * length + 1 */\n      tag_298\n      swap2\n      swap1\n      tag_289\n      jump\t// in\n    tag_298:\n        /* \"@openzeppelin/contracts@4.4.2/utils/Strings.sol\":1800:1826  uint256 i = 2 * length + 1 */\n      swap1\n      pop\n        /* \"@openzeppelin/contracts@4.4.2/utils/Strings.sol\":1795:1927  for (uint256 i = 2 * length + 1; i > 1; --i) {... */\n    tag_294:\n        /* \"@openzeppelin/contracts@4.4.2/utils/Strings.sol\":1832:1833  1 */\n      0x01\n        /* \"@openzeppelin/contracts@4.4.2/utils/Strings.sol\":1828:1829  i */\n      dup2\n        /* \"@openzeppelin/contracts@4.4.2/utils/Strings.sol\":1828:1833  i > 1 */\n      gt\n        /* \"@openzeppelin/contracts@4.4.2/utils/Strings.sol\":1795:1927  for (uint256 i = 2 * length + 1; i > 1; --i) {... */\n      iszero\n      tag_295\n      jumpi\n        /* \"@openzeppelin/contracts@4.4.2/utils/Strings.sol\":1866:1878  _HEX_SYMBOLS */\n      0x3031323334353637383961626364656600000000000000000000000000000000\n        /* \"@openzeppelin/contracts@4.4.2/utils/Strings.sol\":1887:1890  0xf */\n      0x0f\n        /* \"@openzeppelin/contracts@4.4.2/utils/Strings.sol\":1879:1884  value */\n      dup7\n        /* \"@openzeppelin/contracts@4.4.2/utils/Strings.sol\":1879:1890  value & 0xf */\n      and\n        /* \"@openzeppelin/contracts@4.4.2/utils/Strings.sol\":1866:1891  _HEX_SYMBOLS[value & 0xf] */\n      0x10\n      dup2\n      lt\n      tag_299\n      jumpi\n      mstore(0x00, 0x4e487b7100000000000000000000000000000000000000000000000000000000)\n      mstore(0x04, 0x32)\n      revert(0x00, 0x24)\n    tag_299:\n      byte\n      0xf8\n      shl\n        /* \"@openzeppelin/contracts@4.4.2/utils/Strings.sol\":1854:1860  buffer */\n      dup3\n        /* \"@openzeppelin/contracts@4.4.2/utils/Strings.sol\":1861:1862  i */\n      dup3\n        /* \"@openzeppelin/contracts@4.4.2/utils/Strings.sol\":1854:1863  buffer[i] */\n      dup2\n      mload\n      dup2\n      lt\n      tag_300\n      jumpi\n      mstore(0x00, 0x4e487b7100000000000000000000000000000000000000000000000000000000)\n      mstore(0x04, 0x32)\n      revert(0x00, 0x24)\n    tag_300:\n      0x20\n      add\n      add\n        /* \"@openzeppelin/contracts@4.4.2/utils/Strings.sol\":1854:1891  buffer[i] = _HEX_SYMBOLS[value & 0xf] */\n      swap1\n      not(0xffffffffffffffffffffffffffffffffffffffffffffffffffffffffffffff)\n      and\n      swap1\n      dup2\n      0x00\n      byte\n      swap1\n      mstore8\n      pop\n        /* \"@openzeppelin/contracts@4.4.2/utils/Strings.sol\":1915:1916  4 */\n      0x04\n        /* \"@openzeppelin/contracts@4.4.2/utils/Strings.sol\":1905:1916  value >>= 4 */\n      dup6\n      swap1\n      shr\n      swap5\n      pop\n        /* \"@openzeppelin/contracts@4.4.2/utils/Strings.sol\":1835:1838  --i */\n      dup1\n      tag_301\n      swap1\n      tag_199\n      jump\t// in\n    tag_301:\n      swap1\n      pop\n        /* \"@openzeppelin/contracts@4.4.2/utils/Strings.sol\":1795:1927  for (uint256 i = 2 * length + 1; i > 1; --i) {... */\n      jump(tag_294)\n    tag_295:\n      pop\n        /* \"@openzeppelin/contracts@4.4.2/utils/Strings.sol\":1953:1954  0 */\n      0x00\n        /* \"@openzeppelin/contracts@4.4.2/utils/Strings.sol\":1944:1949  value */\n      dup5\n        /* \"@openzeppelin/contracts@4.4.2/utils/Strings.sol\":1944:1954  value == 0 */\n      eq\n        /* \"@openzeppelin/contracts@4.4.2/utils/Strings.sol\":1936:1991  require(value == 0, \"Strings: hex length insufficient\") */\n      tag_302\n      jumpi\n      mload(0x40)\n      0x08c379a000000000000000000000000000000000000000000000000000000000\n      dup2\n      mstore\n      0x04\n      add\n      tag_303\n      swap1\n      tag_304\n      jump\t// in\n    tag_303:\n      mload(0x40)\n      dup1\n      swap2\n      sub\n      swap1\n      revert\n    tag_302:\n        /* \"@openzeppelin/contracts@4.4.2/utils/Strings.sol\":2015:2021  buffer */\n      dup1\n        /* \"@openzeppelin/contracts@4.4.2/utils/Strings.sol\":2001:2022  return string(buffer) */\n      swap2\n      pop\n      pop\n        /* \"@openzeppelin/contracts@4.4.2/utils/Strings.sol\":1588:2029  function toHexString(uint256 value, uint256 length) internal pure returns (string memory) {... */\n      swap3\n      swap2\n      pop\n      pop\n      jump\t// out\n        /* \"#utility.yul\":7:146   */\n    tag_306:\n      0x00\n        /* \"#utility.yul\":91:97   */\n      dup2\n        /* \"#utility.yul\":78:98   */\n      calldataload\n        /* \"#utility.yul\":69:98   */\n      swap1\n      pop\n        /* \"#utility.yul\":107:140   */\n      tag_308\n        /* \"#utility.yul\":134:139   */\n      dup2\n        /* \"#utility.yul\":107:140   */\n      tag_309\n      jump\t// in\n    tag_308:\n        /* \"#utility.yul\":59:146   */\n      swap3\n      swap2\n      pop\n      pop\n      jump\t// out\n        /* \"#utility.yul\":152:291   */\n    tag_310:\n      0x00\n        /* \"#utility.yul\":236:242   */\n      dup2\n        /* \"#utility.yul\":223:243   */\n      calldataload\n        /* \"#utility.yul\":214:243   */\n      swap1\n      pop\n        /* \"#utility.yul\":252:285   */\n      tag_312\n        /* \"#utility.yul\":279:284   */\n      dup2\n        /* \"#utility.yul\":252:285   */\n      tag_313\n      jump\t// in\n    tag_312:\n        /* \"#utility.yul\":204:291   */\n      swap3\n      swap2\n      pop\n      pop\n      jump\t// out\n        /* \"#utility.yul\":297:434   */\n    tag_314:\n      0x00\n        /* \"#utility.yul\":380:386   */\n      dup2\n        /* \"#utility.yul\":367:387   */\n      calldataload\n        /* \"#utility.yul\":358:387   */\n      swap1\n      pop\n        /* \"#utility.yul\":396:428   */\n      tag_316\n        /* \"#utility.yul\":422:427   */\n      dup2\n        /* \"#utility.yul\":396:428   */\n      tag_317\n      jump\t// in\n    tag_316:\n        /* \"#utility.yul\":348:434   */\n      swap3\n      swap2\n      pop\n      pop\n      jump\t// out\n        /* \"#utility.yul\":440:579   */\n    tag_318:\n      0x00\n        /* \"#utility.yul\":524:530   */\n      dup2\n        /* \"#utility.yul\":511:531   */\n      calldataload\n        /* \"#utility.yul\":502:531   */\n      swap1\n      pop\n        /* \"#utility.yul\":540:573   */\n      tag_320\n        /* \"#utility.yul\":567:572   */\n      dup2\n        /* \"#utility.yul\":540:573   */\n      tag_321\n      jump\t// in\n    tag_320:\n        /* \"#utility.yul\":492:579   */\n      swap3\n      swap2\n      pop\n      pop\n      jump\t// out\n        /* \"#utility.yul\":585:847   */\n    tag_57:\n      0x00\n        /* \"#utility.yul\":693:695   */\n      0x20\n        /* \"#utility.yul\":681:690   */\n      dup3\n        /* \"#utility.yul\":672:679   */\n      dup5\n        /* \"#utility.yul\":668:691   */\n      sub\n        /* \"#utility.yul\":664:696   */\n      slt\n        /* \"#utility.yul\":661:663   */\n      iszero\n      tag_323\n      jumpi\n        /* \"#utility.yul\":709:710   */\n      0x00\n        /* \"#utility.yul\":706:707   */\n      dup1\n        /* \"#utility.yul\":699:711   */\n      revert\n        /* \"#utility.yul\":661:663   */\n    tag_323:\n        /* \"#utility.yul\":752:753   */\n      0x00\n        /* \"#utility.yul\":777:830   */\n      tag_324\n        /* \"#utility.yul\":822:829   */\n      dup5\n        /* \"#utility.yul\":813:819   */\n      dup3\n        /* \"#utility.yul\":802:811   */\n      dup6\n        /* \"#utility.yul\":798:820   */\n      add\n        /* \"#utility.yul\":777:830   */\n      tag_306\n      jump\t// in\n    tag_324:\n        /* \"#utility.yul\":767:830   */\n      swap2\n      pop\n        /* \"#utility.yul\":723:840   */\n      pop\n        /* \"#utility.yul\":651:847   */\n      swap3\n      swap2\n      pop\n      pop\n      jump\t// out\n        /* \"#utility.yul\":853:1260   */\n    tag_36:\n      0x00\n      dup1\n        /* \"#utility.yul\":978:980   */\n      0x40\n        /* \"#utility.yul\":966:975   */\n      dup4\n        /* \"#utility.yul\":957:964   */\n      dup6\n        /* \"#utility.yul\":953:976   */\n      sub\n        /* \"#utility.yul\":949:981   */\n      slt\n        /* \"#utility.yul\":946:948   */\n      iszero\n      tag_326\n      jumpi\n        /* \"#utility.yul\":994:995   */\n      0x00\n        /* \"#utility.yul\":991:992   */\n      dup1\n        /* \"#utility.yul\":984:996   */\n      revert\n        /* \"#utility.yul\":946:948   */\n    tag_326:\n        /* \"#utility.yul\":1037:1038   */\n      0x00\n        /* \"#utility.yul\":1062:1115   */\n      tag_327\n        /* \"#utility.yul\":1107:1114   */\n      dup6\n        /* \"#utility.yul\":1098:1104   */\n      dup3\n        /* \"#utility.yul\":1087:1096   */\n      dup7\n        /* \"#utility.yul\":1083:1105   */\n      add\n        /* \"#utility.yul\":1062:1115   */\n      tag_306\n      jump\t// in\n    tag_327:\n        /* \"#utility.yul\":1052:1115   */\n      swap3\n      pop\n        /* \"#utility.yul\":1008:1125   */\n      pop\n        /* \"#utility.yul\":1164:1166   */\n      0x20\n        /* \"#utility.yul\":1190:1243   */\n      tag_328\n        /* \"#utility.yul\":1235:1242   */\n      dup6\n        /* \"#utility.yul\":1226:1232   */\n      dup3\n        /* \"#utility.yul\":1215:1224   */\n      dup7\n        /* \"#utility.yul\":1211:1233   */\n      add\n        /* \"#utility.yul\":1190:1243   */\n      tag_318\n      jump\t// in\n    tag_328:\n        /* \"#utility.yul\":1180:1243   */\n      swap2\n      pop\n        /* \"#utility.yul\":1135:1253   */\n      pop\n        /* \"#utility.yul\":936:1260   */\n      swap3\n      pop\n      swap3\n      swap1\n      pop\n      jump\t// out\n        /* \"#utility.yul\":1266:1818   */\n    tag_64:\n      0x00\n      dup1\n      0x00\n        /* \"#utility.yul\":1408:1410   */\n      0x60\n        /* \"#utility.yul\":1396:1405   */\n      dup5\n        /* \"#utility.yul\":1387:1394   */\n      dup7\n        /* \"#utility.yul\":1383:1406   */\n      sub\n        /* \"#utility.yul\":1379:1411   */\n      slt\n        /* \"#utility.yul\":1376:1378   */\n      iszero\n      tag_330\n      jumpi\n        /* \"#utility.yul\":1424:1425   */\n      0x00\n        /* \"#utility.yul\":1421:1422   */\n      dup1\n        /* \"#utility.yul\":1414:1426   */\n      revert\n        /* \"#utility.yul\":1376:1378   */\n    tag_330:\n        /* \"#utility.yul\":1467:1468   */\n      0x00\n        /* \"#utility.yul\":1492:1545   */\n      tag_331\n        /* \"#utility.yul\":1537:1544   */\n      dup7\n        /* \"#utility.yul\":1528:1534   */\n      dup3\n        /* \"#utility.yul\":1517:1526   */\n      dup8\n        /* \"#utility.yul\":1513:1535   */\n      add\n        /* \"#utility.yul\":1492:1545   */\n      tag_306\n      jump\t// in\n    tag_331:\n        /* \"#utility.yul\":1482:1545   */\n      swap4\n      pop\n        /* \"#utility.yul\":1438:1555   */\n      pop\n        /* \"#utility.yul\":1594:1596   */\n      0x20\n        /* \"#utility.yul\":1620:1673   */\n      tag_332\n        /* \"#utility.yul\":1665:1672   */\n      dup7\n        /* \"#utility.yul\":1656:1662   */\n      dup3\n        /* \"#utility.yul\":1645:1654   */\n      dup8\n        /* \"#utility.yul\":1641:1663   */\n      add\n        /* \"#utility.yul\":1620:1673   */\n      tag_318\n      jump\t// in\n    tag_332:\n        /* \"#utility.yul\":1610:1673   */\n      swap3\n      pop\n        /* \"#utility.yul\":1565:1683   */\n      pop\n        /* \"#utility.yul\":1722:1724   */\n      0x40\n        /* \"#utility.yul\":1748:1801   */\n      tag_333\n        /* \"#utility.yul\":1793:1800   */\n      dup7\n        /* \"#utility.yul\":1784:1790   */\n      dup3\n        /* \"#utility.yul\":1773:1782   */\n      dup8\n        /* \"#utility.yul\":1769:1791   */\n      add\n        /* \"#utility.yul\":1748:1801   */\n      tag_318\n      jump\t// in\n    tag_333:\n        /* \"#utility.yul\":1738:1801   */\n      swap2\n      pop\n        /* \"#utility.yul\":1693:1811   */\n      pop\n        /* \"#utility.yul\":1366:1818   */\n      swap3\n      pop\n      swap3\n      pop\n      swap3\n      jump\t// out\n        /* \"#utility.yul\":1824:2086   */\n    tag_41:\n      0x00\n        /* \"#utility.yul\":1932:1934   */\n      0x20\n        /* \"#utility.yul\":1920:1929   */\n      dup3\n        /* \"#utility.yul\":1911:1918   */\n      dup5\n        /* \"#utility.yul\":1907:1930   */\n      sub\n        /* \"#utility.yul\":1903:1935   */\n      slt\n        /* \"#utility.yul\":1900:1902   */\n      iszero\n      tag_335\n      jumpi\n        /* \"#utility.yul\":1948:1949   */\n      0x00\n        /* \"#utility.yul\":1945:1946   */\n      dup1\n        /* \"#utility.yul\":1938:1950   */\n      revert\n        /* \"#utility.yul\":1900:1902   */\n    tag_335:\n        /* \"#utility.yul\":1991:1992   */\n      0x00\n        /* \"#utility.yul\":2016:2069   */\n      tag_336\n        /* \"#utility.yul\":2061:2068   */\n      dup5\n        /* \"#utility.yul\":2052:2058   */\n      dup3\n        /* \"#utility.yul\":2041:2050   */\n      dup6\n        /* \"#utility.yul\":2037:2059   */\n      add\n        /* \"#utility.yul\":2016:2069   */\n      tag_310\n      jump\t// in\n    tag_336:\n        /* \"#utility.yul\":2006:2069   */\n      swap2\n      pop\n        /* \"#utility.yul\":1962:2079   */\n      pop\n        /* \"#utility.yul\":1890:2086   */\n      swap3\n      swap2\n      pop\n      pop\n      jump\t// out\n        /* \"#utility.yul\":2092:2499   */\n    tag_50:\n      0x00\n      dup1\n        /* \"#utility.yul\":2217:2219   */\n      0x40\n        /* \"#utility.yul\":2205:2214   */\n      dup4\n        /* \"#utility.yul\":2196:2203   */\n      dup6\n        /* \"#utility.yul\":2192:2215   */\n      sub\n        /* \"#utility.yul\":2188:2220   */\n      slt\n        /* \"#utility.yul\":2185:2187   */\n      iszero\n      tag_338\n      jumpi\n        /* \"#utility.yul\":2233:2234   */\n      0x00\n        /* \"#utility.yul\":2230:2231   */\n      dup1\n        /* \"#utility.yul\":2223:2235   */\n      revert\n        /* \"#utility.yul\":2185:2187   */\n    tag_338:\n        /* \"#utility.yul\":2276:2277   */\n      0x00\n        /* \"#utility.yul\":2301:2354   */\n      tag_339\n        /* \"#utility.yul\":2346:2353   */\n      dup6\n        /* \"#utility.yul\":2337:2343   */\n      dup3\n        /* \"#utility.yul\":2326:2335   */\n      dup7\n        /* \"#utility.yul\":2322:2344   */\n      add\n        /* \"#utility.yul\":2301:2354   */\n      tag_310\n      jump\t// in\n    tag_339:\n        /* \"#utility.yul\":2291:2354   */\n      swap3\n      pop\n        /* \"#utility.yul\":2247:2364   */\n      pop\n        /* \"#utility.yul\":2403:2405   */\n      0x20\n        /* \"#utility.yul\":2429:2482   */\n      tag_340\n        /* \"#utility.yul\":2474:2481   */\n      dup6\n        /* \"#utility.yul\":2465:2471   */\n      dup3\n        /* \"#utility.yul\":2454:2463   */\n      dup7\n        /* \"#utility.yul\":2450:2472   */\n      add\n        /* \"#utility.yul\":2429:2482   */\n      tag_306\n      jump\t// in\n    tag_340:\n        /* \"#utility.yul\":2419:2482   */\n      swap2\n      pop\n        /* \"#utility.yul\":2374:2492   */\n      pop\n        /* \"#utility.yul\":2175:2499   */\n      swap3\n      pop\n      swap3\n      swap1\n      pop\n      jump\t// out\n        /* \"#utility.yul\":2505:2765   */\n    tag_30:\n      0x00\n        /* \"#utility.yul\":2612:2614   */\n      0x20\n        /* \"#utility.yul\":2600:2609   */\n      dup3\n        /* \"#utility.yul\":2591:2598   */\n      dup5\n        /* \"#utility.yul\":2587:2610   */\n      sub\n        /* \"#utility.yul\":2583:2615   */\n      slt\n        /* \"#utility.yul\":2580:2582   */\n      iszero\n      tag_342\n      jumpi\n        /* \"#utility.yul\":2628:2629   */\n      0x00\n        /* \"#utility.yul\":2625:2626   */\n      dup1\n        /* \"#utility.yul\":2618:2630   */\n      revert\n        /* \"#utility.yul\":2580:2582   */\n    tag_342:\n        /* \"#utility.yul\":2671:2672   */\n      0x00\n        /* \"#utility.yul\":2696:2748   */\n      tag_343\n        /* \"#utility.yul\":2740:2747   */\n      dup5\n        /* \"#utility.yul\":2731:2737   */\n      dup3\n        /* \"#utility.yul\":2720:2729   */\n      dup6\n        /* \"#utility.yul\":2716:2738   */\n      add\n        /* \"#utility.yul\":2696:2748   */\n      tag_314\n      jump\t// in\n    tag_343:\n        /* \"#utility.yul\":2686:2748   */\n      swap2\n      pop\n        /* \"#utility.yul\":2642:2758   */\n      pop\n        /* \"#utility.yul\":2570:2765   */\n      swap3\n      swap2\n      pop\n      pop\n      jump\t// out\n        /* \"#utility.yul\":2771:2880   */\n    tag_344:\n        /* \"#utility.yul\":2852:2873   */\n      tag_346\n        /* \"#utility.yul\":2867:2872   */\n      dup2\n        /* \"#utility.yul\":2852:2873   */\n      tag_347\n      jump\t// in\n    tag_346:\n        /* \"#utility.yul\":2847:2850   */\n      dup3\n        /* \"#utility.yul\":2840:2874   */\n      mstore\n        /* \"#utility.yul\":2830:2880   */\n      pop\n      pop\n      jump\t// out\n        /* \"#utility.yul\":2886:3004   */\n    tag_348:\n        /* \"#utility.yul\":2973:2997   */\n      tag_350\n        /* \"#utility.yul\":2991:2996   */\n      dup2\n        /* \"#utility.yul\":2973:2997   */\n      tag_351\n      jump\t// in\n    tag_350:\n        /* \"#utility.yul\":2968:2971   */\n      dup3\n        /* \"#utility.yul\":2961:2998   */\n      mstore\n        /* \"#utility.yul\":2951:3004   */\n      pop\n      pop\n      jump\t// out\n        /* \"#utility.yul\":3010:3374   */\n    tag_352:\n      0x00\n        /* \"#utility.yul\":3126:3165   */\n      tag_354\n        /* \"#utility.yul\":3159:3164   */\n      dup3\n        /* \"#utility.yul\":3126:3165   */\n      tag_355\n      jump\t// in\n    tag_354:\n        /* \"#utility.yul\":3181:3252   */\n      tag_356\n        /* \"#utility.yul\":3245:3251   */\n      dup2\n        /* \"#utility.yul\":3240:3243   */\n      dup6\n        /* \"#utility.yul\":3181:3252   */\n      tag_357\n      jump\t// in\n    tag_356:\n        /* \"#utility.yul\":3174:3252   */\n      swap4\n      pop\n        /* \"#utility.yul\":3261:3313   */\n      tag_358\n        /* \"#utility.yul\":3306:3312   */\n      dup2\n        /* \"#utility.yul\":3301:3304   */\n      dup6\n        /* \"#utility.yul\":3294:3298   */\n      0x20\n        /* \"#utility.yul\":3287:3292   */\n      dup7\n        /* \"#utility.yul\":3283:3299   */\n      add\n        /* \"#utility.yul\":3261:3313   */\n      tag_359\n      jump\t// in\n    tag_358:\n        /* \"#utility.yul\":3338:3367   */\n      tag_360\n        /* \"#utility.yul\":3360:3366   */\n      dup2\n        /* \"#utility.yul\":3338:3367   */\n      tag_361\n      jump\t// in\n    tag_360:\n        /* \"#utility.yul\":3333:3336   */\n      dup5\n        /* \"#utility.yul\":3329:3368   */\n      add\n        /* \"#utility.yul\":3322:3368   */\n      swap2\n      pop\n        /* \"#utility.yul\":3102:3374   */\n      pop\n      swap3\n      swap2\n      pop\n      pop\n      jump\t// out\n        /* \"#utility.yul\":3380:3757   */\n    tag_362:\n      0x00\n        /* \"#utility.yul\":3514:3553   */\n      tag_364\n        /* \"#utility.yul\":3547:3552   */\n      dup3\n        /* \"#utility.yul\":3514:3553   */\n      tag_355\n      jump\t// in\n    tag_364:\n        /* \"#utility.yul\":3569:3658   */\n      tag_365\n        /* \"#utility.yul\":3651:3657   */\n      dup2\n        /* \"#utility.yul\":3646:3649   */\n      dup6\n        /* \"#utility.yul\":3569:3658   */\n      tag_366\n      jump\t// in\n    tag_365:\n        /* \"#utility.yul\":3562:3658   */\n      swap4\n      pop\n        /* \"#utility.yul\":3667:3719   */\n      tag_367\n        /* \"#utility.yul\":3712:3718   */\n      dup2\n        /* \"#utility.yul\":3707:3710   */\n      dup6\n        /* \"#utility.yul\":3700:3704   */\n      0x20\n        /* \"#utility.yul\":3693:3698   */\n      dup7\n        /* \"#utility.yul\":3689:3705   */\n      add\n        /* \"#utility.yul\":3667:3719   */\n      tag_359\n      jump\t// in\n    tag_367:\n        /* \"#utility.yul\":3744:3750   */\n      dup1\n        /* \"#utility.yul\":3739:3742   */\n      dup5\n        /* \"#utility.yul\":3735:3751   */\n      add\n        /* \"#utility.yul\":3728:3751   */\n      swap2\n      pop\n        /* \"#utility.yul\":3490:3757   */\n      pop\n      swap3\n      swap2\n      pop\n      pop\n      jump\t// out\n        /* \"#utility.yul\":3763:4129   */\n    tag_368:\n      0x00\n        /* \"#utility.yul\":3926:3993   */\n      tag_370\n        /* \"#utility.yul\":3990:3992   */\n      0x20\n        /* \"#utility.yul\":3985:3988   */\n      dup4\n        /* \"#utility.yul\":3926:3993   */\n      tag_357\n      jump\t// in\n    tag_370:\n        /* \"#utility.yul\":3919:3993   */\n      swap2\n      pop\n        /* \"#utility.yul\":4002:4095   */\n      tag_371\n        /* \"#utility.yul\":4091:4094   */\n      dup3\n        /* \"#utility.yul\":4002:4095   */\n      tag_372\n      jump\t// in\n    tag_371:\n        /* \"#utility.yul\":4120:4122   */\n      0x20\n        /* \"#utility.yul\":4115:4118   */\n      dup3\n        /* \"#utility.yul\":4111:4123   */\n      add\n        /* \"#utility.yul\":4104:4123   */\n      swap1\n      pop\n        /* \"#utility.yul\":3909:4129   */\n      swap2\n      swap1\n      pop\n      jump\t// out\n        /* \"#utility.yul\":4135:4501   */\n    tag_373:\n      0x00\n        /* \"#utility.yul\":4298:4365   */\n      tag_375\n        /* \"#utility.yul\":4362:4364   */\n      0x26\n        /* \"#utility.yul\":4357:4360   */\n      dup4\n        /* \"#utility.yul\":4298:4365   */\n      tag_357\n      jump\t// in\n    tag_375:\n        /* \"#utility.yul\":4291:4365   */\n      swap2\n      pop\n        /* \"#utility.yul\":4374:4467   */\n      tag_376\n        /* \"#utility.yul\":4463:4466   */\n      dup3\n        /* \"#utility.yul\":4374:4467   */\n      tag_377\n      jump\t// in\n    tag_376:\n        /* \"#utility.yul\":4492:4494   */\n      0x40\n        /* \"#utility.yul\":4487:4490   */\n      dup3\n        /* \"#utility.yul\":4483:4495   */\n      add\n        /* \"#utility.yul\":4476:4495   */\n      swap1\n      pop\n        /* \"#utility.yul\":4281:4501   */\n      swap2\n      swap1\n      pop\n      jump\t// out\n        /* \"#utility.yul\":4507:4873   */\n    tag_378:\n      0x00\n        /* \"#utility.yul\":4670:4737   */\n      tag_380\n        /* \"#utility.yul\":4734:4736   */\n      0x25\n        /* \"#utility.yul\":4729:4732   */\n      dup4\n        /* \"#utility.yul\":4670:4737   */\n      tag_357\n      jump\t// in\n    tag_380:\n        /* \"#utility.yul\":4663:4737   */\n      swap2\n      pop\n        /* \"#utility.yul\":4746:4839   */\n      tag_381\n        /* \"#utility.yul\":4835:4838   */\n      dup3\n        /* \"#utility.yul\":4746:4839   */\n      tag_382\n      jump\t// in\n    tag_381:\n        /* \"#utility.yul\":4864:4866   */\n      0x40\n        /* \"#utility.yul\":4859:4862   */\n      dup3\n        /* \"#utility.yul\":4855:4867   */\n      add\n        /* \"#utility.yul\":4848:4867   */\n      swap1\n      pop\n        /* \"#utility.yul\":4653:4873   */\n      swap2\n      swap1\n      pop\n      jump\t// out\n        /* \"#utility.yul\":4879:5245   */\n    tag_383:\n      0x00\n        /* \"#utility.yul\":5042:5109   */\n      tag_385\n        /* \"#utility.yul\":5106:5108   */\n      0x53\n        /* \"#utility.yul\":5101:5104   */\n      dup4\n        /* \"#utility.yul\":5042:5109   */\n      tag_357\n      jump\t// in\n    tag_385:\n        /* \"#utility.yul\":5035:5109   */\n      swap2\n      pop\n        /* \"#utility.yul\":5118:5211   */\n      tag_386\n        /* \"#utility.yul\":5207:5210   */\n      dup3\n        /* \"#utility.yul\":5118:5211   */\n      tag_387\n      jump\t// in\n    tag_386:\n        /* \"#utility.yul\":5236:5238   */\n      0x60\n        /* \"#utility.yul\":5231:5234   */\n      dup3\n        /* \"#utility.yul\":5227:5239   */\n      add\n        /* \"#utility.yul\":5220:5239   */\n      swap1\n      pop\n        /* \"#utility.yul\":5025:5245   */\n      swap2\n      swap1\n      pop\n      jump\t// out\n        /* \"#utility.yul\":5251:5617   */\n    tag_388:\n      0x00\n        /* \"#utility.yul\":5414:5481   */\n      tag_390\n        /* \"#utility.yul\":5478:5480   */\n      0x33\n        /* \"#utility.yul\":5473:5476   */\n      dup4\n        /* \"#utility.yul\":5414:5481   */\n      tag_357\n      jump\t// in\n    tag_390:\n        /* \"#utility.yul\":5407:5481   */\n      swap2\n      pop\n        /* \"#utility.yul\":5490:5583   */\n      tag_391\n        /* \"#utility.yul\":5579:5582   */\n      dup3\n        /* \"#utility.yul\":5490:5583   */\n      tag_392\n      jump\t// in\n    tag_391:\n        /* \"#utility.yul\":5608:5610   */\n      0x40\n        /* \"#utility.yul\":5603:5606   */\n      dup3\n        /* \"#utility.yul\":5599:5611   */\n      add\n        /* \"#utility.yul\":5592:5611   */\n      swap1\n      pop\n        /* \"#utility.yul\":5397:5617   */\n      swap2\n      swap1\n      pop\n      jump\t// out\n        /* \"#utility.yul\":5623:6025   */\n    tag_393:\n      0x00\n        /* \"#utility.yul\":5804:5889   */\n      tag_395\n        /* \"#utility.yul\":5886:5888   */\n      0x17\n        /* \"#utility.yul\":5881:5884   */\n      dup4\n        /* \"#utility.yul\":5804:5889   */\n      tag_366\n      jump\t// in\n    tag_395:\n        /* \"#utility.yul\":5797:5889   */\n      swap2\n      pop\n        /* \"#utility.yul\":5898:5991   */\n      tag_396\n        /* \"#utility.yul\":5987:5990   */\n      dup3\n        /* \"#utility.yul\":5898:5991   */\n      tag_397\n      jump\t// in\n    tag_396:\n        /* \"#utility.yul\":6016:6018   */\n      0x17\n        /* \"#utility.yul\":6011:6014   */\n      dup3\n        /* \"#utility.yul\":6007:6019   */\n      add\n        /* \"#utility.yul\":6000:6019   */\n      swap1\n      pop\n        /* \"#utility.yul\":5787:6025   */\n      swap2\n      swap1\n      pop\n      jump\t// out\n        /* \"#utility.yul\":6031:6433   */\n    tag_398:\n      0x00\n        /* \"#utility.yul\":6212:6297   */\n      tag_400\n        /* \"#utility.yul\":6294:6296   */\n      0x4b\n        /* \"#utility.yul\":6289:6292   */\n      dup4\n        /* \"#utility.yul\":6212:6297   */\n      tag_366\n      jump\t// in\n    tag_400:\n        /* \"#utility.yul\":6205:6297   */\n      swap2\n      pop\n        /* \"#utility.yul\":6306:6399   */\n      tag_401\n        /* \"#utility.yul\":6395:6398   */\n      dup3\n        /* \"#utility.yul\":6306:6399   */\n      tag_402\n      jump\t// in\n    tag_401:\n        /* \"#utility.yul\":6424:6426   */\n      0x4b\n        /* \"#utility.yul\":6419:6422   */\n      dup3\n        /* \"#utility.yul\":6415:6427   */\n      add\n        /* \"#utility.yul\":6408:6427   */\n      swap1\n      pop\n        /* \"#utility.yul\":6195:6433   */\n      swap2\n      swap1\n      pop\n      jump\t// out\n        /* \"#utility.yul\":6439:6841   */\n    tag_403:\n      0x00\n        /* \"#utility.yul\":6620:6705   */\n      tag_405\n        /* \"#utility.yul\":6702:6704   */\n      0x11\n        /* \"#utility.yul\":6697:6700   */\n      dup4\n        /* \"#utility.yul\":6620:6705   */\n      tag_366\n      jump\t// in\n    tag_405:\n        /* \"#utility.yul\":6613:6705   */\n      swap2\n      pop\n        /* \"#utility.yul\":6714:6807   */\n      tag_406\n        /* \"#utility.yul\":6803:6806   */\n      dup3\n        /* \"#utility.yul\":6714:6807   */\n      tag_407\n      jump\t// in\n    tag_406:\n        /* \"#utility.yul\":6832:6834   */\n      0x11\n        /* \"#utility.yul\":6827:6830   */\n      dup3\n        /* \"#utility.yul\":6823:6835   */\n      add\n        /* \"#utility.yul\":6816:6835   */\n      swap1\n      pop\n        /* \"#utility.yul\":6603:6841   */\n      swap2\n      swap1\n      pop\n      jump\t// out\n        /* \"#utility.yul\":6847:7213   */\n    tag_408:\n      0x00\n        /* \"#utility.yul\":7010:7077   */\n      tag_410\n        /* \"#utility.yul\":7074:7076   */\n      0x2f\n        /* \"#utility.yul\":7069:7072   */\n      dup4\n        /* \"#utility.yul\":7010:7077   */\n      tag_357\n      jump\t// in\n    tag_410:\n        /* \"#utility.yul\":7003:7077   */\n      swap2\n      pop\n        /* \"#utility.yul\":7086:7179   */\n      tag_411\n        /* \"#utility.yul\":7175:7178   */\n      dup3\n        /* \"#utility.yul\":7086:7179   */\n      tag_412\n      jump\t// in\n    tag_411:\n        /* \"#utility.yul\":7204:7206   */\n      0x40\n        /* \"#utility.yul\":7199:7202   */\n      dup3\n        /* \"#utility.yul\":7195:7207   */\n      add\n        /* \"#utility.yul\":7188:7207   */\n      swap1\n      pop\n        /* \"#utility.yul\":6993:7213   */\n      swap2\n      swap1\n      pop\n      jump\t// out\n        /* \"#utility.yul\":7219:7337   */\n    tag_413:\n        /* \"#utility.yul\":7306:7330   */\n      tag_415\n        /* \"#utility.yul\":7324:7329   */\n      dup2\n        /* \"#utility.yul\":7306:7330   */\n      tag_416\n      jump\t// in\n    tag_415:\n        /* \"#utility.yul\":7301:7304   */\n      dup3\n        /* \"#utility.yul\":7294:7331   */\n      mstore\n        /* \"#utility.yul\":7284:7337   */\n      pop\n      pop\n      jump\t// out\n        /* \"#utility.yul\":7343:7500   */\n    tag_417:\n        /* \"#utility.yul\":7448:7493   */\n      tag_419\n        /* \"#utility.yul\":7468:7492   */\n      tag_420\n        /* \"#utility.yul\":7486:7491   */\n      dup3\n        /* \"#utility.yul\":7468:7492   */\n      tag_416\n      jump\t// in\n    tag_420:\n        /* \"#utility.yul\":7448:7493   */\n      tag_421\n      jump\t// in\n    tag_419:\n        /* \"#utility.yul\":7443:7446   */\n      dup3\n        /* \"#utility.yul\":7436:7494   */\n      mstore\n        /* \"#utility.yul\":7426:7500   */\n      pop\n      pop\n      jump\t// out\n        /* \"#utility.yul\":7506:8473   */\n    tag_261:\n      0x00\n        /* \"#utility.yul\":7910:8058   */\n      tag_423\n        /* \"#utility.yul\":8054:8057   */\n      dup3\n        /* \"#utility.yul\":7910:8058   */\n      tag_393\n      jump\t// in\n    tag_423:\n        /* \"#utility.yul\":7903:8058   */\n      swap2\n      pop\n        /* \"#utility.yul\":8075:8170   */\n      tag_424\n        /* \"#utility.yul\":8166:8169   */\n      dup3\n        /* \"#utility.yul\":8157:8163   */\n      dup6\n        /* \"#utility.yul\":8075:8170   */\n      tag_362\n      jump\t// in\n    tag_424:\n        /* \"#utility.yul\":8068:8170   */\n      swap2\n      pop\n        /* \"#utility.yul\":8187:8335   */\n      tag_425\n        /* \"#utility.yul\":8331:8334   */\n      dup3\n        /* \"#utility.yul\":8187:8335   */\n      tag_403\n      jump\t// in\n    tag_425:\n        /* \"#utility.yul\":8180:8335   */\n      swap2\n      pop\n        /* \"#utility.yul\":8352:8447   */\n      tag_426\n        /* \"#utility.yul\":8443:8446   */\n      dup3\n        /* \"#utility.yul\":8434:8440   */\n      dup5\n        /* \"#utility.yul\":8352:8447   */\n      tag_362\n      jump\t// in\n    tag_426:\n        /* \"#utility.yul\":8345:8447   */\n      swap2\n      pop\n        /* \"#utility.yul\":8464:8467   */\n      dup2\n        /* \"#utility.yul\":8457:8467   */\n      swap1\n      pop\n        /* \"#utility.yul\":7892:8473   */\n      swap4\n      swap3\n      pop\n      pop\n      pop\n      jump\t// out\n        /* \"#utility.yul\":8479:9001   */\n    tag_276:\n      0x00\n        /* \"#utility.yul\":8714:8862   */\n      tag_428\n        /* \"#utility.yul\":8858:8861   */\n      dup3\n        /* \"#utility.yul\":8714:8862   */\n      tag_398\n      jump\t// in\n    tag_428:\n        /* \"#utility.yul\":8707:8862   */\n      swap2\n      pop\n        /* \"#utility.yul\":8872:8947   */\n      tag_429\n        /* \"#utility.yul\":8943:8946   */\n      dup3\n        /* \"#utility.yul\":8934:8940   */\n      dup5\n        /* \"#utility.yul\":8872:8947   */\n      tag_417\n      jump\t// in\n    tag_429:\n        /* \"#utility.yul\":8972:8974   */\n      0x20\n        /* \"#utility.yul\":8967:8970   */\n      dup3\n        /* \"#utility.yul\":8963:8975   */\n      add\n        /* \"#utility.yul\":8956:8975   */\n      swap2\n      pop\n        /* \"#utility.yul\":8992:8995   */\n      dup2\n        /* \"#utility.yul\":8985:8995   */\n      swap1\n      pop\n        /* \"#utility.yul\":8696:9001   */\n      swap3\n      swap2\n      pop\n      pop\n      jump\t// out\n        /* \"#utility.yul\":9007:9217   */\n    tag_33:\n      0x00\n        /* \"#utility.yul\":9132:9134   */\n      0x20\n        /* \"#utility.yul\":9121:9130   */\n      dup3\n        /* \"#utility.yul\":9117:9135   */\n      add\n        /* \"#utility.yul\":9109:9135   */\n      swap1\n      pop\n        /* \"#utility.yul\":9145:9210   */\n      tag_431\n        /* \"#utility.yul\":9207:9208   */\n      0x00\n        /* \"#utility.yul\":9196:9205   */\n      dup4\n        /* \"#utility.yul\":9192:9209   */\n      add\n        /* \"#utility.yul\":9183:9189   */\n      dup5\n        /* \"#utility.yul\":9145:9210   */\n      tag_344\n      jump\t// in\n    tag_431:\n        /* \"#utility.yul\":9099:9217   */\n      swap3\n      swap2\n      pop\n      pop\n      jump\t// out\n        /* \"#utility.yul\":9223:9445   */\n    tag_44:\n      0x00\n        /* \"#utility.yul\":9354:9356   */\n      0x20\n        /* \"#utility.yul\":9343:9352   */\n      dup3\n        /* \"#utility.yul\":9339:9357   */\n      add\n        /* \"#utility.yul\":9331:9357   */\n      swap1\n      pop\n        /* \"#utility.yul\":9367:9438   */\n      tag_433\n        /* \"#utility.yul\":9435:9436   */\n      0x00\n        /* \"#utility.yul\":9424:9433   */\n      dup4\n        /* \"#utility.yul\":9420:9437   */\n      add\n        /* \"#utility.yul\":9411:9417   */\n      dup5\n        /* \"#utility.yul\":9367:9438   */\n      tag_348\n      jump\t// in\n    tag_433:\n        /* \"#utility.yul\":9321:9445   */\n      swap3\n      swap2\n      pop\n      pop\n      jump\t// out\n        /* \"#utility.yul\":9451:9764   */\n    tag_263:\n      0x00\n        /* \"#utility.yul\":9602:9604   */\n      0x20\n        /* \"#utility.yul\":9591:9600   */\n      dup3\n        /* \"#utility.yul\":9587:9605   */\n      add\n        /* \"#utility.yul\":9579:9605   */\n      swap1\n      pop\n        /* \"#utility.yul\":9651:9660   */\n      dup2\n        /* \"#utility.yul\":9645:9649   */\n      dup2\n        /* \"#utility.yul\":9641:9661   */\n      sub\n        /* \"#utility.yul\":9637:9638   */\n      0x00\n        /* \"#utility.yul\":9626:9635   */\n      dup4\n        /* \"#utility.yul\":9622:9639   */\n      add\n        /* \"#utility.yul\":9615:9662   */\n      mstore\n        /* \"#utility.yul\":9679:9757   */\n      tag_435\n        /* \"#utility.yul\":9752:9756   */\n      dup2\n        /* \"#utility.yul\":9743:9749   */\n      dup5\n        /* \"#utility.yul\":9679:9757   */\n      tag_352\n      jump\t// in\n    tag_435:\n        /* \"#utility.yul\":9671:9757   */\n      swap1\n      pop\n        /* \"#utility.yul\":9569:9764   */\n      swap3\n      swap2\n      pop\n      pop\n      jump\t// out\n        /* \"#utility.yul\":9770:10189   */\n    tag_304:\n      0x00\n        /* \"#utility.yul\":9974:9976   */\n      0x20\n        /* \"#utility.yul\":9963:9972   */\n      dup3\n        /* \"#utility.yul\":9959:9977   */\n      add\n        /* \"#utility.yul\":9951:9977   */\n      swap1\n      pop\n        /* \"#utility.yul\":10023:10032   */\n      dup2\n        /* \"#utility.yul\":10017:10021   */\n      dup2\n        /* \"#utility.yul\":10013:10033   */\n      sub\n        /* \"#utility.yul\":10009:10010   */\n      0x00\n        /* \"#utility.yul\":9998:10007   */\n      dup4\n        /* \"#utility.yul\":9994:10011   */\n      add\n        /* \"#utility.yul\":9987:10034   */\n      mstore\n        /* \"#utility.yul\":10051:10182   */\n      tag_437\n        /* \"#utility.yul\":10177:10181   */\n      dup2\n        /* \"#utility.yul\":10051:10182   */\n      tag_368\n      jump\t// in\n    tag_437:\n        /* \"#utility.yul\":10043:10182   */\n      swap1\n      pop\n        /* \"#utility.yul\":9941:10189   */\n      swap2\n      swap1\n      pop\n      jump\t// out\n        /* \"#utility.yul\":10195:10614   */\n    tag_196:\n      0x00\n        /* \"#utility.yul\":10399:10401   */\n      0x20\n        /* \"#utility.yul\":10388:10397   */\n      dup3\n        /* \"#utility.yul\":10384:10402   */\n      add\n        /* \"#utility.yul\":10376:10402   */\n      swap1\n      pop\n        /* \"#utility.yul\":10448:10457   */\n      dup2\n        /* \"#utility.yul\":10442:10446   */\n      dup2\n        /* \"#utility.yul\":10438:10458   */\n      sub\n        /* \"#utility.yul\":10434:10435   */\n      0x00\n        /* \"#utility.yul\":10423:10432   */\n      dup4\n        /* \"#utility.yul\":10419:10436   */\n      add\n        /* \"#utility.yul\":10412:10459   */\n      mstore\n        /* \"#utility.yul\":10476:10607   */\n      tag_439\n        /* \"#utility.yul\":10602:10606   */\n      dup2\n        /* \"#utility.yul\":10476:10607   */\n      tag_373\n      jump\t// in\n    tag_439:\n        /* \"#utility.yul\":10468:10607   */\n      swap1\n      pop\n        /* \"#utility.yul\":10366:10614   */\n      swap2\n      swap1\n      pop\n      jump\t// out\n        /* \"#utility.yul\":10620:11039   */\n    tag_178:\n      0x00\n        /* \"#utility.yul\":10824:10826   */\n      0x20\n        /* \"#utility.yul\":10813:10822   */\n      dup3\n        /* \"#utility.yul\":10809:10827   */\n      add\n        /* \"#utility.yul\":10801:10827   */\n      swap1\n      pop\n        /* \"#utility.yul\":10873:10882   */\n      dup2\n        /* \"#utility.yul\":10867:10871   */\n      dup2\n        /* \"#utility.yul\":10863:10883   */\n      sub\n        /* \"#utility.yul\":10859:10860   */\n      0x00\n        /* \"#utility.yul\":10848:10857   */\n      dup4\n        /* \"#utility.yul\":10844:10861   */\n      add\n        /* \"#utility.yul\":10837:10884   */\n      mstore\n        /* \"#utility.yul\":10901:11032   */\n      tag_441\n        /* \"#utility.yul\":11027:11031   */\n      dup2\n        /* \"#utility.yul\":10901:11032   */\n      tag_378\n      jump\t// in\n    tag_441:\n        /* \"#utility.yul\":10893:11032   */\n      swap1\n      pop\n        /* \"#utility.yul\":10791:11039   */\n      swap2\n      swap1\n      pop\n      jump\t// out\n        /* \"#utility.yul\":11045:11464   */\n    tag_155:\n      0x00\n        /* \"#utility.yul\":11249:11251   */\n      0x20\n        /* \"#utility.yul\":11238:11247   */\n      dup3\n        /* \"#utility.yul\":11234:11252   */\n      add\n        /* \"#utility.yul\":11226:11252   */\n      swap1\n      pop\n        /* \"#utility.yul\":11298:11307   */\n      dup2\n        /* \"#utility.yul\":11292:11296   */\n      dup2\n        /* \"#utility.yul\":11288:11308   */\n      sub\n        /* \"#utility.yul\":11284:11285   */\n      0x00\n        /* \"#utility.yul\":11273:11282   */\n      dup4\n        /* \"#utility.yul\":11269:11286   */\n      add\n        /* \"#utility.yul\":11262:11309   */\n      mstore\n        /* \"#utility.yul\":11326:11457   */\n      tag_443\n        /* \"#utility.yul\":11452:11456   */\n      dup2\n        /* \"#utility.yul\":11326:11457   */\n      tag_383\n      jump\t// in\n    tag_443:\n        /* \"#utility.yul\":11318:11457   */\n      swap1\n      pop\n        /* \"#utility.yul\":11216:11464   */\n      swap2\n      swap1\n      pop\n      jump\t// out\n        /* \"#utility.yul\":11470:11889   */\n    tag_168:\n      0x00\n        /* \"#utility.yul\":11674:11676   */\n      0x20\n        /* \"#utility.yul\":11663:11672   */\n      dup3\n        /* \"#utility.yul\":11659:11677   */\n      add\n        /* \"#utility.yul\":11651:11677   */\n      swap1\n      pop\n        /* \"#utility.yul\":11723:11732   */\n      dup2\n        /* \"#utility.yul\":11717:11721   */\n      dup2\n        /* \"#utility.yul\":11713:11733   */\n      sub\n        /* \"#utility.yul\":11709:11710   */\n      0x00\n        /* \"#utility.yul\":11698:11707   */\n      dup4\n        /* \"#utility.yul\":11694:11711   */\n      add\n        /* \"#utility.yul\":11687:11734   */\n      mstore\n        /* \"#utility.yul\":11751:11882   */\n      tag_445\n        /* \"#utility.yul\":11877:11881   */\n      dup2\n        /* \"#utility.yul\":11751:11882   */\n      tag_388\n      jump\t// in\n    tag_445:\n        /* \"#utility.yul\":11743:11882   */\n      swap1\n      pop\n        /* \"#utility.yul\":11641:11889   */\n      swap2\n      swap1\n      pop\n      jump\t// out\n        /* \"#utility.yul\":11895:12314   */\n    tag_138:\n      0x00\n        /* \"#utility.yul\":12099:12101   */\n      0x20\n        /* \"#utility.yul\":12088:12097   */\n      dup3\n        /* \"#utility.yul\":12084:12102   */\n      add\n        /* \"#utility.yul\":12076:12102   */\n      swap1\n      pop\n        /* \"#utility.yul\":12148:12157   */\n      dup2\n        /* \"#utility.yul\":12142:12146   */\n      dup2\n        /* \"#utility.yul\":12138:12158   */\n      sub\n        /* \"#utility.yul\":12134:12135   */\n      0x00\n        /* \"#utility.yul\":12123:12132   */\n      dup4\n        /* \"#utility.yul\":12119:12136   */\n      add\n        /* \"#utility.yul\":12112:12159   */\n      mstore\n        /* \"#utility.yul\":12176:12307   */\n      tag_447\n        /* \"#utility.yul\":12302:12306   */\n      dup2\n        /* \"#utility.yul\":12176:12307   */\n      tag_408\n      jump\t// in\n    tag_447:\n        /* \"#utility.yul\":12168:12307   */\n      swap1\n      pop\n        /* \"#utility.yul\":12066:12314   */\n      swap2\n      swap1\n      pop\n      jump\t// out\n        /* \"#utility.yul\":12320:12542   */\n    tag_76:\n      0x00\n        /* \"#utility.yul\":12451:12453   */\n      0x20\n        /* \"#utility.yul\":12440:12449   */\n      dup3\n        /* \"#utility.yul\":12436:12454   */\n      add\n        /* \"#utility.yul\":12428:12454   */\n      swap1\n      pop\n        /* \"#utility.yul\":12464:12535   */\n      tag_449\n        /* \"#utility.yul\":12532:12533   */\n      0x00\n        /* \"#utility.yul\":12521:12530   */\n      dup4\n        /* \"#utility.yul\":12517:12534   */\n      add\n        /* \"#utility.yul\":12508:12514   */\n      dup5\n        /* \"#utility.yul\":12464:12535   */\n      tag_413\n      jump\t// in\n    tag_449:\n        /* \"#utility.yul\":12418:12542   */\n      swap3\n      swap2\n      pop\n      pop\n      jump\t// out\n        /* \"#utility.yul\":12548:12647   */\n    tag_355:\n      0x00\n        /* \"#utility.yul\":12634:12639   */\n      dup2\n        /* \"#utility.yul\":12628:12640   */\n      mload\n        /* \"#utility.yul\":12618:12640   */\n      swap1\n      pop\n        /* \"#utility.yul\":12607:12647   */\n      swap2\n      swap1\n      pop\n      jump\t// out\n        /* \"#utility.yul\":12653:12822   */\n    tag_357:\n      0x00\n        /* \"#utility.yul\":12771:12777   */\n      dup3\n        /* \"#utility.yul\":12766:12769   */\n      dup3\n        /* \"#utility.yul\":12759:12778   */\n      mstore\n        /* \"#utility.yul\":12811:12815   */\n      0x20\n        /* \"#utility.yul\":12806:12809   */\n      dup3\n        /* \"#utility.yul\":12802:12816   */\n      add\n        /* \"#utility.yul\":12787:12816   */\n      swap1\n      pop\n        /* \"#utility.yul\":12749:12822   */\n      swap3\n      swap2\n      pop\n      pop\n      jump\t// out\n        /* \"#utility.yul\":12828:12976   */\n    tag_366:\n      0x00\n        /* \"#utility.yul\":12967:12970   */\n      dup2\n        /* \"#utility.yul\":12952:12970   */\n      swap1\n      pop\n        /* \"#utility.yul\":12942:12976   */\n      swap3\n      swap2\n      pop\n      pop\n      jump\t// out\n        /* \"#utility.yul\":12982:13287   */\n    tag_289:\n      0x00\n        /* \"#utility.yul\":13041:13061   */\n      tag_454\n        /* \"#utility.yul\":13059:13060   */\n      dup3\n        /* \"#utility.yul\":13041:13061   */\n      tag_416\n      jump\t// in\n    tag_454:\n        /* \"#utility.yul\":13036:13061   */\n      swap2\n      pop\n        /* \"#utility.yul\":13075:13095   */\n      tag_455\n        /* \"#utility.yul\":13093:13094   */\n      dup4\n        /* \"#utility.yul\":13075:13095   */\n      tag_416\n      jump\t// in\n    tag_455:\n        /* \"#utility.yul\":13070:13095   */\n      swap3\n      pop\n        /* \"#utility.yul\":13229:13230   */\n      dup3\n        /* \"#utility.yul\":13161:13227   */\n      0xffffffffffffffffffffffffffffffffffffffffffffffffffffffffffffffff\n        /* \"#utility.yul\":13157:13231   */\n      sub\n        /* \"#utility.yul\":13154:13155   */\n      dup3\n        /* \"#utility.yul\":13151:13232   */\n      gt\n        /* \"#utility.yul\":13148:13150   */\n      iszero\n      tag_456\n      jumpi\n        /* \"#utility.yul\":13235:13253   */\n      tag_457\n      tag_458\n      jump\t// in\n    tag_457:\n        /* \"#utility.yul\":13148:13150   */\n    tag_456:\n        /* \"#utility.yul\":13279:13280   */\n      dup3\n        /* \"#utility.yul\":13276:13277   */\n      dup3\n        /* \"#utility.yul\":13272:13281   */\n      add\n        /* \"#utility.yul\":13265:13281   */\n      swap1\n      pop\n        /* \"#utility.yul\":13026:13287   */\n      swap3\n      swap2\n      pop\n      pop\n      jump\t// out\n        /* \"#utility.yul\":13293:13641   */\n    tag_287:\n      0x00\n        /* \"#utility.yul\":13356:13376   */\n      tag_460\n        /* \"#utility.yul\":13374:13375   */\n      dup3\n        /* \"#utility.yul\":13356:13376   */\n      tag_416\n      jump\t// in\n    tag_460:\n        /* \"#utility.yul\":13351:13376   */\n      swap2\n      pop\n        /* \"#utility.yul\":13390:13410   */\n      tag_461\n        /* \"#utility.yul\":13408:13409   */\n      dup4\n        /* \"#utility.yul\":13390:13410   */\n      tag_416\n      jump\t// in\n    tag_461:\n        /* \"#utility.yul\":13385:13410   */\n      swap3\n      pop\n        /* \"#utility.yul\":13578:13579   */\n      dup2\n        /* \"#utility.yul\":13510:13576   */\n      0xffffffffffffffffffffffffffffffffffffffffffffffffffffffffffffffff\n        /* \"#utility.yul\":13506:13580   */\n      div\n        /* \"#utility.yul\":13503:13504   */\n      dup4\n        /* \"#utility.yul\":13500:13581   */\n      gt\n        /* \"#utility.yul\":13495:13496   */\n      dup3\n        /* \"#utility.yul\":13488:13497   */\n      iszero\n        /* \"#utility.yul\":13481:13498   */\n      iszero\n        /* \"#utility.yul\":13477:13582   */\n      and\n        /* \"#utility.yul\":13474:13476   */\n      iszero\n      tag_462\n      jumpi\n        /* \"#utility.yul\":13585:13603   */\n      tag_463\n      tag_458\n      jump\t// in\n    tag_463:\n        /* \"#utility.yul\":13474:13476   */\n    tag_462:\n        /* \"#utility.yul\":13633:13634   */\n      dup3\n        /* \"#utility.yul\":13630:13631   */\n      dup3\n        /* \"#utility.yul\":13626:13635   */\n      mul\n        /* \"#utility.yul\":13615:13635   */\n      swap1\n      pop\n        /* \"#utility.yul\":13341:13641   */\n      swap3\n      swap2\n      pop\n      pop\n      jump\t// out\n        /* \"#utility.yul\":13647:13838   */\n    tag_281:\n      0x00\n        /* \"#utility.yul\":13707:13727   */\n      tag_465\n        /* \"#utility.yul\":13725:13726   */\n      dup3\n        /* \"#utility.yul\":13707:13727   */\n      tag_416\n      jump\t// in\n    tag_465:\n        /* \"#utility.yul\":13702:13727   */\n      swap2\n      pop\n        /* \"#utility.yul\":13741:13761   */\n      tag_466\n        /* \"#utility.yul\":13759:13760   */\n      dup4\n        /* \"#utility.yul\":13741:13761   */\n      tag_416\n      jump\t// in\n    tag_466:\n        /* \"#utility.yul\":13736:13761   */\n      swap3\n      pop\n        /* \"#utility.yul\":13780:13781   */\n      dup3\n        /* \"#utility.yul\":13777:13778   */\n      dup3\n        /* \"#utility.yul\":13774:13782   */\n      lt\n        /* \"#utility.yul\":13771:13773   */\n      iszero\n      tag_467\n      jumpi\n        /* \"#utility.yul\":13785:13803   */\n      tag_468\n      tag_458\n      jump\t// in\n    tag_468:\n        /* \"#utility.yul\":13771:13773   */\n    tag_467:\n        /* \"#utility.yul\":13830:13831   */\n      dup3\n        /* \"#utility.yul\":13827:13828   */\n      dup3\n        /* \"#utility.yul\":13823:13832   */\n      sub\n        /* \"#utility.yul\":13815:13832   */\n      swap1\n      pop\n        /* \"#utility.yul\":13692:13838   */\n      swap3\n      swap2\n      pop\n      pop\n      jump\t// out\n        /* \"#utility.yul\":13844:13940   */\n    tag_469:\n      0x00\n        /* \"#utility.yul\":13910:13934   */\n      tag_471\n        /* \"#utility.yul\":13928:13933   */\n      dup3\n        /* \"#utility.yul\":13910:13934   */\n      tag_472\n      jump\t// in\n    tag_471:\n        /* \"#utility.yul\":13899:13934   */\n      swap1\n      pop\n        /* \"#utility.yul\":13889:13940   */\n      swap2\n      swap1\n      pop\n      jump\t// out\n        /* \"#utility.yul\":13946:14036   */\n    tag_347:\n      0x00\n        /* \"#utility.yul\":14023:14028   */\n      dup2\n        /* \"#utility.yul\":14016:14029   */\n      iszero\n        /* \"#utility.yul\":14009:14030   */\n      iszero\n        /* \"#utility.yul\":13998:14030   */\n      swap1\n      pop\n        /* \"#utility.yul\":13988:14036   */\n      swap2\n      swap1\n      pop\n      jump\t// out\n        /* \"#utility.yul\":14042:14119   */\n    tag_351:\n      0x00\n        /* \"#utility.yul\":14108:14113   */\n      dup2\n        /* \"#utility.yul\":14097:14113   */\n      swap1\n      pop\n        /* \"#utility.yul\":14087:14119   */\n      swap2\n      swap1\n      pop\n      jump\t// out\n        /* \"#utility.yul\":14125:14274   */\n    tag_475:\n      0x00\n        /* \"#utility.yul\":14201:14267   */\n      0xffffffff00000000000000000000000000000000000000000000000000000000\n        /* \"#utility.yul\":14194:14199   */\n      dup3\n        /* \"#utility.yul\":14190:14268   */\n      and\n        /* \"#utility.yul\":14179:14268   */\n      swap1\n      pop\n        /* \"#utility.yul\":14169:14274   */\n      swap2\n      swap1\n      pop\n      jump\t// out\n        /* \"#utility.yul\":14280:14406   */\n    tag_472:\n      0x00\n        /* \"#utility.yul\":14357:14399   */\n      0xffffffffffffffffffffffffffffffffffffffff\n        /* \"#utility.yul\":14350:14355   */\n      dup3\n        /* \"#utility.yul\":14346:14400   */\n      and\n        /* \"#utility.yul\":14335:14400   */\n      swap1\n      pop\n        /* \"#utility.yul\":14325:14406   */\n      swap2\n      swap1\n      pop\n      jump\t// out\n        /* \"#utility.yul\":14412:14489   */\n    tag_416:\n      0x00\n        /* \"#utility.yul\":14478:14483   */\n      dup2\n        /* \"#utility.yul\":14467:14483   */\n      swap1\n      pop\n        /* \"#utility.yul\":14457:14489   */\n      swap2\n      swap1\n      pop\n      jump\t// out\n        /* \"#utility.yul\":14495:14802   */\n    tag_359:\n        /* \"#utility.yul\":14563:14564   */\n      0x00\n        /* \"#utility.yul\":14573:14686   */\n    tag_480:\n        /* \"#utility.yul\":14587:14593   */\n      dup4\n        /* \"#utility.yul\":14584:14585   */\n      dup2\n        /* \"#utility.yul\":14581:14594   */\n      lt\n        /* \"#utility.yul\":14573:14686   */\n      iszero\n      tag_482\n      jumpi\n        /* \"#utility.yul\":14672:14673   */\n      dup1\n        /* \"#utility.yul\":14667:14670   */\n      dup3\n        /* \"#utility.yul\":14663:14674   */\n      add\n        /* \"#utility.yul\":14657:14675   */\n      mload\n        /* \"#utility.yul\":14653:14654   */\n      dup2\n        /* \"#utility.yul\":14648:14651   */\n      dup5\n        /* \"#utility.yul\":14644:14655   */\n      add\n        /* \"#utility.yul\":14637:14676   */\n      mstore\n        /* \"#utility.yul\":14609:14611   */\n      0x20\n        /* \"#utility.yul\":14606:14607   */\n      dup2\n        /* \"#utility.yul\":14602:14612   */\n      add\n        /* \"#utility.yul\":14597:14612   */\n      swap1\n      pop\n        /* \"#utility.yul\":14573:14686   */\n      jump(tag_480)\n    tag_482:\n        /* \"#utility.yul\":14704:14710   */\n      dup4\n        /* \"#utility.yul\":14701:14702   */\n      dup2\n        /* \"#utility.yul\":14698:14711   */\n      gt\n        /* \"#utility.yul\":14695:14697   */\n      iszero\n      tag_483\n      jumpi\n        /* \"#utility.yul\":14784:14785   */\n      0x00\n        /* \"#utility.yul\":14775:14781   */\n      dup5\n        /* \"#utility.yul\":14770:14773   */\n      dup5\n        /* \"#utility.yul\":14766:14782   */\n      add\n        /* \"#utility.yul\":14759:14786   */\n      mstore\n        /* \"#utility.yul\":14695:14697   */\n    tag_483:\n        /* \"#utility.yul\":14544:14802   */\n      pop\n      pop\n      pop\n      pop\n      jump\t// out\n        /* \"#utility.yul\":14808:14979   */\n    tag_199:\n      0x00\n        /* \"#utility.yul\":14870:14894   */\n      tag_485\n        /* \"#utility.yul\":14888:14893   */\n      dup3\n        /* \"#utility.yul\":14870:14894   */\n      tag_416\n      jump\t// in\n    tag_485:\n        /* \"#utility.yul\":14861:14894   */\n      swap2\n      pop\n        /* \"#utility.yul\":14916:14920   */\n      0x00\n        /* \"#utility.yul\":14909:14914   */\n      dup3\n        /* \"#utility.yul\":14906:14921   */\n      eq\n        /* \"#utility.yul\":14903:14905   */\n      iszero\n      tag_486\n      jumpi\n        /* \"#utility.yul\":14924:14942   */\n      tag_487\n      tag_458\n      jump\t// in\n    tag_487:\n        /* \"#utility.yul\":14903:14905   */\n    tag_486:\n        /* \"#utility.yul\":14971:14972   */\n      0x01\n        /* \"#utility.yul\":14964:14969   */\n      dup3\n        /* \"#utility.yul\":14960:14973   */\n      sub\n        /* \"#utility.yul\":14953:14973   */\n      swap1\n      pop\n        /* \"#utility.yul\":14851:14979   */\n      swap2\n      swap1\n      pop\n      jump\t// out\n        /* \"#utility.yul\":14985:15218   */\n    tag_123:\n      0x00\n        /* \"#utility.yul\":15047:15071   */\n      tag_489\n        /* \"#utility.yul\":15065:15070   */\n      dup3\n        /* \"#utility.yul\":15047:15071   */\n      tag_416\n      jump\t// in\n    tag_489:\n        /* \"#utility.yul\":15038:15071   */\n      swap2\n      pop\n        /* \"#utility.yul\":15093:15159   */\n      0xffffffffffffffffffffffffffffffffffffffffffffffffffffffffffffffff\n        /* \"#utility.yul\":15086:15091   */\n      dup3\n        /* \"#utility.yul\":15083:15160   */\n      eq\n        /* \"#utility.yul\":15080:15082   */\n      iszero\n      tag_490\n      jumpi\n        /* \"#utility.yul\":15163:15181   */\n      tag_491\n      tag_458\n      jump\t// in\n    tag_491:\n        /* \"#utility.yul\":15080:15082   */\n    tag_490:\n        /* \"#utility.yul\":15210:15211   */\n      0x01\n        /* \"#utility.yul\":15203:15208   */\n      dup3\n        /* \"#utility.yul\":15199:15212   */\n      add\n        /* \"#utility.yul\":15192:15212   */\n      swap1\n      pop\n        /* \"#utility.yul\":15028:15218   */\n      swap2\n      swap1\n      pop\n      jump\t// out\n        /* \"#utility.yul\":15224:15303   */\n    tag_421:\n      0x00\n        /* \"#utility.yul\":15292:15297   */\n      dup2\n        /* \"#utility.yul\":15281:15297   */\n      swap1\n      pop\n        /* \"#utility.yul\":15271:15303   */\n      swap2\n      swap1\n      pop\n      jump\t// out\n        /* \"#utility.yul\":15309:15489   */\n    tag_458:\n        /* \"#utility.yul\":15357:15434   */\n      0x4e487b7100000000000000000000000000000000000000000000000000000000\n        /* \"#utility.yul\":15354:15355   */\n      0x00\n        /* \"#utility.yul\":15347:15435   */\n      mstore\n        /* \"#utility.yul\":15454:15458   */\n      0x11\n        /* \"#utility.yul\":15451:15452   */\n      0x04\n        /* \"#utility.yul\":15444:15459   */\n      mstore\n        /* \"#utility.yul\":15478:15482   */\n      0x24\n        /* \"#utility.yul\":15475:15476   */\n      0x00\n        /* \"#utility.yul\":15468:15483   */\n      revert\n        /* \"#utility.yul\":15495:15597   */\n    tag_361:\n      0x00\n        /* \"#utility.yul\":15587:15589   */\n      0x1f\n        /* \"#utility.yul\":15583:15590   */\n      not\n        /* \"#utility.yul\":15578:15580   */\n      0x1f\n        /* \"#utility.yul\":15571:15576   */\n      dup4\n        /* \"#utility.yul\":15567:15581   */\n      add\n        /* \"#utility.yul\":15563:15591   */\n      and\n        /* \"#utility.yul\":15553:15591   */\n      swap1\n      pop\n        /* \"#utility.yul\":15543:15597   */\n      swap2\n      swap1\n      pop\n      jump\t// out\n        /* \"#utility.yul\":15603:15785   */\n    tag_372:\n        /* \"#utility.yul\":15743:15777   */\n      0x537472696e67733a20686578206c656e67746820696e73756666696369656e74\n        /* \"#utility.yul\":15739:15740   */\n      0x00\n        /* \"#utility.yul\":15731:15737   */\n      dup3\n        /* \"#utility.yul\":15727:15741   */\n      add\n        /* \"#utility.yul\":15720:15778   */\n      mstore\n        /* \"#utility.yul\":15709:15785   */\n      pop\n      jump\t// out\n        /* \"#utility.yul\":15791:16016   */\n    tag_377:\n        /* \"#utility.yul\":15931:15965   */\n      0x53656e646572206973206e6f742041646472657373204d616e61676572206f72\n        /* \"#utility.yul\":15927:15928   */\n      0x00\n        /* \"#utility.yul\":15919:15925   */\n      dup3\n        /* \"#utility.yul\":15915:15929   */\n      add\n        /* \"#utility.yul\":15908:15966   */\n      mstore\n        /* \"#utility.yul\":16000:16008   */\n      0x2041646d696e0000000000000000000000000000000000000000000000000000\n        /* \"#utility.yul\":15995:15997   */\n      0x20\n        /* \"#utility.yul\":15987:15993   */\n      dup3\n        /* \"#utility.yul\":15983:15998   */\n      add\n        /* \"#utility.yul\":15976:16009   */\n      mstore\n        /* \"#utility.yul\":15897:16016   */\n      pop\n      jump\t// out\n        /* \"#utility.yul\":16022:16246   */\n    tag_382:\n        /* \"#utility.yul\":16162:16196   */\n      0x53656e646572206973206e6f7420436f75706f6e204d616e61676572206f7220\n        /* \"#utility.yul\":16158:16159   */\n      0x00\n        /* \"#utility.yul\":16150:16156   */\n      dup3\n        /* \"#utility.yul\":16146:16160   */\n      add\n        /* \"#utility.yul\":16139:16197   */\n      mstore\n        /* \"#utility.yul\":16231:16238   */\n      0x41646d696e000000000000000000000000000000000000000000000000000000\n        /* \"#utility.yul\":16226:16228   */\n      0x20\n        /* \"#utility.yul\":16218:16224   */\n      dup3\n        /* \"#utility.yul\":16214:16229   */\n      add\n        /* \"#utility.yul\":16207:16239   */\n      mstore\n        /* \"#utility.yul\":16128:16246   */\n      pop\n      jump\t// out\n        /* \"#utility.yul\":16252:16559   */\n    tag_387:\n        /* \"#utility.yul\":16392:16426   */\n      0x53656e646572206973206e6f7420417070726f76656420526f6c653a20416464\n        /* \"#utility.yul\":16388:16389   */\n      0x00\n        /* \"#utility.yul\":16380:16386   */\n      dup3\n        /* \"#utility.yul\":16376:16390   */\n      add\n        /* \"#utility.yul\":16369:16427   */\n      mstore\n        /* \"#utility.yul\":16461:16495   */\n      0x72657373204d616e616765722c20436f75706f6e204d616e616765722c20436f\n        /* \"#utility.yul\":16456:16458   */\n      0x20\n        /* \"#utility.yul\":16448:16454   */\n      dup3\n        /* \"#utility.yul\":16444:16459   */\n      add\n        /* \"#utility.yul\":16437:16496   */\n      mstore\n        /* \"#utility.yul\":16530:16551   */\n      0x75706f6e20557365722c206f722041646d696e00000000000000000000000000\n        /* \"#utility.yul\":16525:16527   */\n      0x40\n        /* \"#utility.yul\":16517:16523   */\n      dup3\n        /* \"#utility.yul\":16513:16528   */\n      add\n        /* \"#utility.yul\":16506:16552   */\n      mstore\n        /* \"#utility.yul\":16358:16559   */\n      pop\n      jump\t// out\n        /* \"#utility.yul\":16565:16803   */\n    tag_392:\n        /* \"#utility.yul\":16705:16739   */\n      0x53656e646572206973206e6f7420436f75706f6e204d616e616765722c20436f\n        /* \"#utility.yul\":16701:16702   */\n      0x00\n        /* \"#utility.yul\":16693:16699   */\n      dup3\n        /* \"#utility.yul\":16689:16703   */\n      add\n        /* \"#utility.yul\":16682:16740   */\n      mstore\n        /* \"#utility.yul\":16774:16795   */\n      0x75706f6e20557365722c206f722041646d696e00000000000000000000000000\n        /* \"#utility.yul\":16769:16771   */\n      0x20\n        /* \"#utility.yul\":16761:16767   */\n      dup3\n        /* \"#utility.yul\":16757:16772   */\n      add\n        /* \"#utility.yul\":16750:16796   */\n      mstore\n        /* \"#utility.yul\":16671:16803   */\n      pop\n      jump\t// out\n        /* \"#utility.yul\":16809:16982   */\n    tag_397:\n        /* \"#utility.yul\":16949:16974   */\n      0x416363657373436f6e74726f6c3a206163636f756e7420000000000000000000\n        /* \"#utility.yul\":16945:16946   */\n      0x00\n        /* \"#utility.yul\":16937:16943   */\n      dup3\n        /* \"#utility.yul\":16933:16947   */\n      add\n        /* \"#utility.yul\":16926:16975   */\n      mstore\n        /* \"#utility.yul\":16915:16982   */\n      pop\n      jump\t// out\n        /* \"#utility.yul\":16988:17287   */\n    tag_402:\n        /* \"#utility.yul\":17128:17162   */\n      0x43616e6e6f742072656475636520636f75706f6e2075736573206279206d6f72\n        /* \"#utility.yul\":17124:17125   */\n      0x00\n        /* \"#utility.yul\":17116:17122   */\n      dup3\n        /* \"#utility.yul\":17112:17126   */\n      add\n        /* \"#utility.yul\":17105:17163   */\n      mstore\n        /* \"#utility.yul\":17197:17231   */\n      0x65207468616e20746865206e756d626572206f66207573657320666f72207468\n        /* \"#utility.yul\":17192:17194   */\n      0x20\n        /* \"#utility.yul\":17184:17190   */\n      dup3\n        /* \"#utility.yul\":17180:17195   */\n      add\n        /* \"#utility.yul\":17173:17232   */\n      mstore\n        /* \"#utility.yul\":17266:17279   */\n      0x697320636f75706f6e3a20000000000000000000000000000000000000000000\n        /* \"#utility.yul\":17261:17263   */\n      0x40\n        /* \"#utility.yul\":17253:17259   */\n      dup3\n        /* \"#utility.yul\":17249:17264   */\n      add\n        /* \"#utility.yul\":17242:17280   */\n      mstore\n        /* \"#utility.yul\":17094:17287   */\n      pop\n      jump\t// out\n        /* \"#utility.yul\":17293:17460   */\n    tag_407:\n        /* \"#utility.yul\":17433:17452   */\n      0x206973206d697373696e6720726f6c6520000000000000000000000000000000\n        /* \"#utility.yul\":17429:17430   */\n      0x00\n        /* \"#utility.yul\":17421:17427   */\n      dup3\n        /* \"#utility.yul\":17417:17431   */\n      add\n        /* \"#utility.yul\":17410:17453   */\n      mstore\n        /* \"#utility.yul\":17399:17460   */\n      pop\n      jump\t// out\n        /* \"#utility.yul\":17466:17700   */\n    tag_412:\n        /* \"#utility.yul\":17606:17640   */\n      0x416363657373436f6e74726f6c3a2063616e206f6e6c792072656e6f756e6365\n        /* \"#utility.yul\":17602:17603   */\n      0x00\n        /* \"#utility.yul\":17594:17600   */\n      dup3\n        /* \"#utility.yul\":17590:17604   */\n      add\n        /* \"#utility.yul\":17583:17641   */\n      mstore\n        /* \"#utility.yul\":17675:17692   */\n      0x20726f6c657320666f722073656c660000000000000000000000000000000000\n        /* \"#utility.yul\":17670:17672   */\n      0x20\n        /* \"#utility.yul\":17662:17668   */\n      dup3\n        /* \"#utility.yul\":17658:17673   */\n      add\n        /* \"#utility.yul\":17651:17693   */\n      mstore\n        /* \"#utility.yul\":17572:17700   */\n      pop\n      jump\t// out\n        /* \"#utility.yul\":17706:17828   */\n    tag_309:\n        /* \"#utility.yul\":17779:17803   */\n      tag_505\n        /* \"#utility.yul\":17797:17802   */\n      dup2\n        /* \"#utility.yul\":17779:17803   */\n      tag_469\n      jump\t// in\n    tag_505:\n        /* \"#utility.yul\":17772:17777   */\n      dup2\n        /* \"#utility.yul\":17769:17804   */\n      eq\n        /* \"#utility.yul\":17759:17761   */\n      tag_506\n      jumpi\n        /* \"#utility.yul\":17818:17819   */\n      0x00\n        /* \"#utility.yul\":17815:17816   */\n      dup1\n        /* \"#utility.yul\":17808:17820   */\n      revert\n        /* \"#utility.yul\":17759:17761   */\n    tag_506:\n        /* \"#utility.yul\":17749:17828   */\n      pop\n      jump\t// out\n        /* \"#utility.yul\":17834:17956   */\n    tag_313:\n        /* \"#utility.yul\":17907:17931   */\n      tag_508\n        /* \"#utility.yul\":17925:17930   */\n      dup2\n        /* \"#utility.yul\":17907:17931   */\n      tag_351\n      jump\t// in\n    tag_508:\n        /* \"#utility.yul\":17900:17905   */\n      dup2\n        /* \"#utility.yul\":17897:17932   */\n      eq\n        /* \"#utility.yul\":17887:17889   */\n      tag_509\n      jumpi\n        /* \"#utility.yul\":17946:17947   */\n      0x00\n        /* \"#utility.yul\":17943:17944   */\n      dup1\n        /* \"#utility.yul\":17936:17948   */\n      revert\n        /* \"#utility.yul\":17887:17889   */\n    tag_509:\n        /* \"#utility.yul\":17877:17956   */\n      pop\n      jump\t// out\n        /* \"#utility.yul\":17962:18082   */\n    tag_317:\n        /* \"#utility.yul\":18034:18057   */\n      tag_511\n        /* \"#utility.yul\":18051:18056   */\n      dup2\n        /* \"#utility.yul\":18034:18057   */\n      tag_475\n      jump\t// in\n    tag_511:\n        /* \"#utility.yul\":18027:18032   */\n      dup2\n        /* \"#utility.yul\":18024:18058   */\n      eq\n        /* \"#utility.yul\":18014:18016   */\n      tag_512\n      jumpi\n        /* \"#utility.yul\":18072:18073   */\n      0x00\n        /* \"#utility.yul\":18069:18070   */\n      dup1\n        /* \"#utility.yul\":18062:18074   */\n      revert\n        /* \"#utility.yul\":18014:18016   */\n    tag_512:\n        /* \"#utility.yul\":18004:18082   */\n      pop\n      jump\t// out\n        /* \"#utility.yul\":18088:18210   */\n    tag_321:\n        /* \"#utility.yul\":18161:18185   */\n      tag_514\n        /* \"#utility.yul\":18179:18184   */\n      dup2\n        /* \"#utility.yul\":18161:18185   */\n      tag_416\n      jump\t// in\n    tag_514:\n        /* \"#utility.yul\":18154:18159   */\n      dup2\n        /* \"#utility.yul\":18151:18186   */\n      eq\n        /* \"#utility.yul\":18141:18143   */\n      tag_515\n      jumpi\n        /* \"#utility.yul\":18200:18201   */\n      0x00\n        /* \"#utility.yul\":18197:18198   */\n      dup1\n        /* \"#utility.yul\":18190:18202   */\n      revert\n        /* \"#utility.yul\":18141:18143   */\n    tag_515:\n        /* \"#utility.yul\":18131:18210   */\n      pop\n      jump\t// out\n\n    auxdata: 0xa264697066735822122028c713ba6591844d92671493770fc8fa2f70a02d259a9d1e78e9797245b665c264736f6c63430008010033\n}\n",
				"bytecode": {
					"linkReferences": {},
					"object": "608060405234801561001057600080fd5b50612378806100206000396000f3fe608060405234801561001057600080fd5b50600436106101425760003560e01c8063838324d9116100b8578063c18ab7a21161007c578063c18ab7a214610387578063c1eb6dfd146103a3578063d547741f146103c1578063d94fe832146103dd578063e5bf7ffc1461040d578063f76da2a81461042957610142565b8063838324d9146102bb57806391d14854146102eb578063a217fddf1461031b578063a41dd6e614610339578063a50252221461035757610142565b806336568abe1161010a57806336568abe1461021157806338eada1c1461022d5780633c25c06b146102495780633edfcd2c146102655780634ba79dfe146102815780635c3ed7ec1461029d57610142565b806301ffc9a7146101475780632080179d14610177578063248a9ca3146101a7578063263d336c146101d75780632f2ff15d146101f5575b600080fd5b610161600480360381019061015c9190611a27565b610459565b60405161016e9190611c99565b60405180910390f35b610191600480360381019061018c9190611937565b6104d3565b60405161019e9190611c99565b60405180910390f35b6101c160048036038101906101bc91906119c2565b610551565b6040516101ce9190611cb4565b60405180910390f35b6101df610570565b6040516101ec9190611cb4565b60405180910390f35b61020f600480360381019061020a91906119eb565b610594565b005b61022b600480360381019061022691906119eb565b6105bd565b005b6102476004803603810190610242919061190e565b610640565b005b610263600480360381019061025e9190611937565b6107fe565b005b61027f600480360381019061027a9190611973565b6108d1565b005b61029b6004803603810190610296919061190e565b610a33565b005b6102a5610ccb565b6040516102b29190611cb4565b60405180910390f35b6102d560048036038101906102d0919061190e565b610cef565b6040516102e29190611db1565b60405180910390f35b610305600480360381019061030091906119eb565b610d1a565b6040516103129190611c99565b60405180910390f35b610323610d84565b6040516103309190611cb4565b60405180910390f35b610341610d8b565b60405161034e9190611cb4565b60405180910390f35b610371600480360381019061036c919061190e565b610daf565b60405161037e9190611c99565b60405180910390f35b6103a1600480360381019061039c9190611973565b610dc3565b005b6103ab610eff565b6040516103b89190611db1565b60405180910390f35b6103db60048036038101906103d691906119eb565b610f0b565b005b6103f760048036038101906103f2919061190e565b610f34565b6040516104049190611db1565b60405180910390f35b61042760048036038101906104229190611937565b610f80565b005b610443600480360381019061043e919061190e565b61114e565b6040516104509190611c99565b60405180910390f35b60007f7965db0b000000000000000000000000000000000000000000000000000000007bffffffffffffffffffffffffffffffffffffffffffffffffffffffff1916827bffffffffffffffffffffffffffffffffffffffffffffffffffffffff191614806104cc57506104cb8261117b565b5b9050919050565b600080600090505b6104e484610cef565b8110156105455782600160030160006104fc87610f34565b8152602001908152602001600020600101600083815260200190815260200160002060000154141561053257600191505061054b565b808061053d90611fb2565b9150506104db565b50600090505b92915050565b6000806000838152602001908152602001600020600101549050919050565b7fad8e13ade6b5588e1a6049d70c1678b839105f007c5f6fb969ad8b1456160eac81565b61059d82610551565b6105ae816105a96111e5565b6111ed565b6105b8838361128a565b505050565b6105c56111e5565b73ffffffffffffffffffffffffffffffffffffffff168173ffffffffffffffffffffffffffffffffffffffff1614610632576040517f08c379a000000000000000000000000000000000000000000000000000000000815260040161062990611d91565b60405180910390fd5b61063c828261136a565b5050565b6106717f94a986c75919e983aad44b3aa6d84ebcaddf91749edf743e3a487d1a49949a7561066c6111e5565b610d1a565b806106a957506106a87f3ec4e68565b7b1587aaccbcf2b5911e829e236602dc6d0fe89c50e09bdd019b46106a36111e5565b610d1a565b5b806106e157506106e07fad8e13ade6b5588e1a6049d70c1678b839105f007c5f6fb969ad8b1456160eac6106db6111e5565b610d1a565b5b806106fc57506106fb6000801b6106f66111e5565b610d1a565b5b61073b576040517f08c379a000000000000000000000000000000000000000000000000000000000815260040161073290611d51565b60405180910390fd5b6001600001600081548092919061075190611fb2565b919050555080600180016000600160000154815260200190815260200160002060006101000a81548173ffffffffffffffffffffffffffffffffffffffff021916908373ffffffffffffffffffffffffffffffffffffffff160217905550600160000154600160020160008373ffffffffffffffffffffffffffffffffffffffff1673ffffffffffffffffffffffffffffffffffffffff1681526020019081526020016000208190555050565b61082f7f3ec4e68565b7b1587aaccbcf2b5911e829e236602dc6d0fe89c50e09bdd019b461082a6111e5565b610d1a565b8061086757506108667fad8e13ade6b5588e1a6049d70c1678b839105f007c5f6fb969ad8b1456160eac6108616111e5565b610d1a565b5b8061088257506108816000801b61087c6111e5565b610d1a565b5b6108c1576040517f08c379a00000000000000000000000000000000000000000000000000000000081526004016108b890611d71565b60405180910390fd5b6108cd82826001610dc3565b5050565b6109027f3ec4e68565b7b1587aaccbcf2b5911e829e236602dc6d0fe89c50e09bdd019b46108fd6111e5565b610d1a565b8061091d575061091c6000801b6109176111e5565b610d1a565b5b61095c576040517f08c379a000000000000000000000000000000000000000000000000000000000815260040161095390611d31565b60405180910390fd5b61096583610daf565b6109735761097283610640565b5b6001600301600061098385610f34565b815260200190815260200160002060000160008154809291906109a590611fb2565b919050555081600160030160006109bb86610f34565b815260200190815260200160002060010160006109d786610cef565b81526020019081526020016000206000018190555080600160030160006109fd86610f34565b81526020019081526020016000206001016000610a1986610cef565b815260200190815260200160002060010181905550505050565b610a647f94a986c75919e983aad44b3aa6d84ebcaddf91749edf743e3a487d1a49949a75610a5f6111e5565b610d1a565b80610a7f5750610a7e6000801b610a796111e5565b610d1a565b5b610abe576040517f08c379a0000000000000000000000000000000000000000000000000000000008152600401610ab590611d11565b60405180910390fd5b6000610ac982610f34565b90506000829050600060016000015490506000600180016000600160000154815260200190815260200160002060009054906101000a900473ffffffffffffffffffffffffffffffffffffffff16905060018001600083815260200190815260200160002060009054906101000a900473ffffffffffffffffffffffffffffffffffffffff1660018001600086815260200190815260200160002060006101000a81548173ffffffffffffffffffffffffffffffffffffffff021916908373ffffffffffffffffffffffffffffffffffffffff16021790555060018001600083815260200190815260200160002060006101000a81549073ffffffffffffffffffffffffffffffffffffffff0219169055600160020160008273ffffffffffffffffffffffffffffffffffffffff1673ffffffffffffffffffffffffffffffffffffffff16815260200190815260200160002054600160020160008573ffffffffffffffffffffffffffffffffffffffff1673ffffffffffffffffffffffffffffffffffffffff16815260200190815260200160002081905550600160020160008273ffffffffffffffffffffffffffffffffffffffff1673ffffffffffffffffffffffffffffffffffffffff1681526020019081526020016000206000905560016000016000815480929190610cbf90611f88565b91905055505050505050565b7f94a986c75919e983aad44b3aa6d84ebcaddf91749edf743e3a487d1a49949a7581565b600060016003016000610d0184610f34565b8152602001908152602001600020600001549050919050565b600080600084815260200190815260200160002060000160008373ffffffffffffffffffffffffffffffffffffffff1673ffffffffffffffffffffffffffffffffffffffff16815260200190815260200160002060009054906101000a900460ff16905092915050565b6000801b81565b7f3ec4e68565b7b1587aaccbcf2b5911e829e236602dc6d0fe89c50e09bdd019b481565b600080610dbb83610f34565b149050919050565b610df47f3ec4e68565b7b1587aaccbcf2b5911e829e236602dc6d0fe89c50e09bdd019b4610def6111e5565b610d1a565b80610e2c5750610e2b7fad8e13ade6b5588e1a6049d70c1678b839105f007c5f6fb969ad8b1456160eac610e266111e5565b610d1a565b5b80610e475750610e466000801b610e416111e5565b610d1a565b5b610e86576040517f08c379a0000000000000000000000000000000000000000000000000000000008152600401610e7d90611d71565b60405180910390fd5b60005b610e9284610cef565b811015610ef9578260016003016000610eaa87610f34565b81526020019081526020016000206001016000838152602001908152602001600020600001541415610ee657610ee184828461144b565b610ef9565b8080610ef190611fb2565b915050610e89565b50505050565b60018060000154905081565b610f1482610551565b610f2581610f206111e5565b6111ed565b610f2f838361136a565b505050565b6000600160020160008373ffffffffffffffffffffffffffffffffffffffff1673ffffffffffffffffffffffffffffffffffffffff168152602001908152602001600020549050919050565b610fb17f3ec4e68565b7b1587aaccbcf2b5911e829e236602dc6d0fe89c50e09bdd019b4610fac6111e5565b610d1a565b80610fe95750610fe87fad8e13ade6b5588e1a6049d70c1678b839105f007c5f6fb969ad8b1456160eac610fe36111e5565b610d1a565b5b8061100457506110036000801b610ffe6111e5565b610d1a565b5b611043576040517f08c379a000000000000000000000000000000000000000000000000000000000815260040161103a90611d71565b60405180910390fd5b6001600301600061105384610f34565b8152602001908152602001600020600101600061106f84610cef565b81526020019081526020016000206001600301600061108d85610f34565b815260200190815260200160002060010160008381526020019081526020016000206000820154816000015560018201548160010155905050600160030160006110d684610f34565b815260200190815260200160002060010160006110f284610cef565b8152602001908152602001600020600080820160009055600182016000905550506001600301600061112384610f34565b8152602001908152602001600020600001600081548092919061114590611f88565b91905055505050565b6000806001600301600061116185610f34565b815260200190815260200160002060000154149050919050565b60007f01ffc9a7000000000000000000000000000000000000000000000000000000007bffffffffffffffffffffffffffffffffffffffffffffffffffffffff1916827bffffffffffffffffffffffffffffffffffffffffffffffffffffffff1916149050919050565b600033905090565b6111f78282610d1a565b6112865761121c8173ffffffffffffffffffffffffffffffffffffffff1660146115c0565b61122a8360001c60206115c0565b60405160200161123b929190611c39565b6040516020818303038152906040526040517f08c379a000000000000000000000000000000000000000000000000000000000815260040161127d9190611ccf565b60405180910390fd5b5050565b6112948282610d1a565b61136657600160008084815260200190815260200160002060000160008373ffffffffffffffffffffffffffffffffffffffff1673ffffffffffffffffffffffffffffffffffffffff16815260200190815260200160002060006101000a81548160ff02191690831515021790555061130b6111e5565b73ffffffffffffffffffffffffffffffffffffffff168173ffffffffffffffffffffffffffffffffffffffff16837f2f8788117e7eff1d82e926ec794901d17c78024a50270940304540a733656f0d60405160405180910390a45b5050565b6113748282610d1a565b1561144757600080600084815260200190815260200160002060000160008373ffffffffffffffffffffffffffffffffffffffff1673ffffffffffffffffffffffffffffffffffffffff16815260200190815260200160002060006101000a81548160ff0219169083151502179055506113ec6111e5565b73ffffffffffffffffffffffffffffffffffffffff168173ffffffffffffffffffffffffffffffffffffffff16837ff6391f5c32d9c69d2a47ea670b442974b53935d1edc7fd64eb21e047a839171b60405160405180910390a45b5050565b6000816001600301600061145e87610f34565b81526020019081526020016000206001016000858152602001908152602001600020600101541015905060006001600301600061149a87610f34565b81526020019081526020016000206001016000858152602001908152602001600020600101546040516020016114d09190611c73565b6040516020818303038152906040529050818190611524576040517f08c379a000000000000000000000000000000000000000000000000000000000815260040161151b9190611ccf565b60405180910390fd5b50826001600301600061153688610f34565b81526020019081526020016000206001016000868152602001908152602001600020600101600082825461156a9190611ea3565b9250508190555060006001600301600061158388610f34565b8152602001908152602001600020600101600086815260200190815260200160002060010154116115b9576115b88585610f80565b5b5050505050565b6060600060028360026115d39190611e49565b6115dd9190611df3565b67ffffffffffffffff81111561161c577f4e487b7100000000000000000000000000000000000000000000000000000000600052604160045260246000fd5b6040519080825280601f01601f19166020018201604052801561164e5781602001600182028036833780820191505090505b5090507f3000000000000000000000000000000000000000000000000000000000000000816000815181106116ac577f4e487b7100000000000000000000000000000000000000000000000000000000600052603260045260246000fd5b60200101907effffffffffffffffffffffffffffffffffffffffffffffffffffffffffffff1916908160001a9053507f780000000000000000000000000000000000000000000000000000000000000081600181518110611736577f4e487b7100000000000000000000000000000000000000000000000000000000600052603260045260246000fd5b60200101907effffffffffffffffffffffffffffffffffffffffffffffffffffffffffffff1916908160001a905350600060018460026117769190611e49565b6117809190611df3565b90505b600181111561186c577f3031323334353637383961626364656600000000000000000000000000000000600f8616601081106117e8577f4e487b7100000000000000000000000000000000000000000000000000000000600052603260045260246000fd5b1a60f81b828281518110611825577f4e487b7100000000000000000000000000000000000000000000000000000000600052603260045260246000fd5b60200101907effffffffffffffffffffffffffffffffffffffffffffffffffffffffffffff1916908160001a905350600485901c94508061186590611f88565b9050611783565b50600084146118b0576040517f08c379a00000000000000000000000000000000000000000000000000000000081526004016118a790611cf1565b60405180910390fd5b8091505092915050565b6000813590506118c9816122e6565b92915050565b6000813590506118de816122fd565b92915050565b6000813590506118f381612314565b92915050565b6000813590506119088161232b565b92915050565b60006020828403121561192057600080fd5b600061192e848285016118ba565b91505092915050565b6000806040838503121561194a57600080fd5b6000611958858286016118ba565b9250506020611969858286016118f9565b9150509250929050565b60008060006060848603121561198857600080fd5b6000611996868287016118ba565b93505060206119a7868287016118f9565b92505060406119b8868287016118f9565b9150509250925092565b6000602082840312156119d457600080fd5b60006119e2848285016118cf565b91505092915050565b600080604083850312156119fe57600080fd5b6000611a0c858286016118cf565b9250506020611a1d858286016118ba565b9150509250929050565b600060208284031215611a3957600080fd5b6000611a47848285016118e4565b91505092915050565b611a5981611ee9565b82525050565b611a6881611ef5565b82525050565b6000611a7982611dcc565b611a838185611dd7565b9350611a93818560208601611f55565b611a9c81612034565b840191505092915050565b6000611ab282611dcc565b611abc8185611de8565b9350611acc818560208601611f55565b80840191505092915050565b6000611ae5602083611dd7565b9150611af082612045565b602082019050919050565b6000611b08602683611dd7565b9150611b138261206e565b604082019050919050565b6000611b2b602583611dd7565b9150611b36826120bd565b604082019050919050565b6000611b4e605383611dd7565b9150611b598261210c565b606082019050919050565b6000611b71603383611dd7565b9150611b7c82612181565b604082019050919050565b6000611b94601783611de8565b9150611b9f826121d0565b601782019050919050565b6000611bb7604b83611de8565b9150611bc2826121f9565b604b82019050919050565b6000611bda601183611de8565b9150611be58261226e565b601182019050919050565b6000611bfd602f83611dd7565b9150611c0882612297565b604082019050919050565b611c1c81611f4b565b82525050565b611c33611c2e82611f4b565b611ffb565b82525050565b6000611c4482611b87565b9150611c508285611aa7565b9150611c5b82611bcd565b9150611c678284611aa7565b91508190509392505050565b6000611c7e82611baa565b9150611c8a8284611c22565b60208201915081905092915050565b6000602082019050611cae6000830184611a50565b92915050565b6000602082019050611cc96000830184611a5f565b92915050565b60006020820190508181036000830152611ce98184611a6e565b905092915050565b60006020820190508181036000830152611d0a81611ad8565b9050919050565b60006020820190508181036000830152611d2a81611afb565b9050919050565b60006020820190508181036000830152611d4a81611b1e565b9050919050565b60006020820190508181036000830152611d6a81611b41565b9050919050565b60006020820190508181036000830152611d8a81611b64565b9050919050565b60006020820190508181036000830152611daa81611bf0565b9050919050565b6000602082019050611dc66000830184611c13565b92915050565b600081519050919050565b600082825260208201905092915050565b600081905092915050565b6000611dfe82611f4b565b9150611e0983611f4b565b9250827fffffffffffffffffffffffffffffffffffffffffffffffffffffffffffffffff03821115611e3e57611e3d612005565b5b828201905092915050565b6000611e5482611f4b565b9150611e5f83611f4b565b9250817fffffffffffffffffffffffffffffffffffffffffffffffffffffffffffffffff0483118215151615611e9857611e97612005565b5b828202905092915050565b6000611eae82611f4b565b9150611eb983611f4b565b925082821015611ecc57611ecb612005565b5b828203905092915050565b6000611ee282611f2b565b9050919050565b60008115159050919050565b6000819050919050565b60007fffffffff0000000000000000000000000000000000000000000000000000000082169050919050565b600073ffffffffffffffffffffffffffffffffffffffff82169050919050565b6000819050919050565b60005b83811015611f73578082015181840152602081019050611f58565b83811115611f82576000848401525b50505050565b6000611f9382611f4b565b91506000821415611fa757611fa6612005565b5b600182039050919050565b6000611fbd82611f4b565b91507fffffffffffffffffffffffffffffffffffffffffffffffffffffffffffffffff821415611ff057611fef612005565b5b600182019050919050565b6000819050919050565b7f4e487b7100000000000000000000000000000000000000000000000000000000600052601160045260246000fd5b6000601f19601f8301169050919050565b7f537472696e67733a20686578206c656e67746820696e73756666696369656e74600082015250565b7f53656e646572206973206e6f742041646472657373204d616e61676572206f7260008201527f2041646d696e0000000000000000000000000000000000000000000000000000602082015250565b7f53656e646572206973206e6f7420436f75706f6e204d616e61676572206f722060008201527f41646d696e000000000000000000000000000000000000000000000000000000602082015250565b7f53656e646572206973206e6f7420417070726f76656420526f6c653a2041646460008201527f72657373204d616e616765722c20436f75706f6e204d616e616765722c20436f60208201527f75706f6e20557365722c206f722041646d696e00000000000000000000000000604082015250565b7f53656e646572206973206e6f7420436f75706f6e204d616e616765722c20436f60008201527f75706f6e20557365722c206f722041646d696e00000000000000000000000000602082015250565b7f416363657373436f6e74726f6c3a206163636f756e7420000000000000000000600082015250565b7f43616e6e6f742072656475636520636f75706f6e2075736573206279206d6f7260008201527f65207468616e20746865206e756d626572206f66207573657320666f7220746860208201527f697320636f75706f6e3a20000000000000000000000000000000000000000000604082015250565b7f206973206d697373696e6720726f6c6520000000000000000000000000000000600082015250565b7f416363657373436f6e74726f6c3a2063616e206f6e6c792072656e6f756e636560008201527f20726f6c657320666f722073656c660000000000000000000000000000000000602082015250565b6122ef81611ed7565b81146122fa57600080fd5b50565b61230681611ef5565b811461231157600080fd5b50565b61231d81611eff565b811461232857600080fd5b50565b61233481611f4b565b811461233f57600080fd5b5056fea264697066735822122028c713ba6591844d92671493770fc8fa2f70a02d259a9d1e78e9797245b665c264736f6c63430008010033",
					"opcodes": "PUSH1 0x80 PUSH1 0x40 MSTORE CALLVALUE DUP1 ISZERO PUSH2 0x10 JUMPI PUSH1 0x0 DUP1 REVERT JUMPDEST POP PUSH2 0x2378 DUP1 PUSH2 0x20 PUSH1 0x0 CODECOPY PUSH1 0x0 RETURN INVALID PUSH1 0x80 PUSH1 0x40 MSTORE CALLVALUE DUP1 ISZERO PUSH2 0x10 JUMPI PUSH1 0x0 DUP1 REVERT JUMPDEST POP PUSH1 0x4 CALLDATASIZE LT PUSH2 0x142 JUMPI PUSH1 0x0 CALLDATALOAD PUSH1 0xE0 SHR DUP1 PUSH4 0x838324D9 GT PUSH2 0xB8 JUMPI DUP1 PUSH4 0xC18AB7A2 GT PUSH2 0x7C JUMPI DUP1 PUSH4 0xC18AB7A2 EQ PUSH2 0x387 JUMPI DUP1 PUSH4 0xC1EB6DFD EQ PUSH2 0x3A3 JUMPI DUP1 PUSH4 0xD547741F EQ PUSH2 0x3C1 JUMPI DUP1 PUSH4 0xD94FE832 EQ PUSH2 0x3DD JUMPI DUP1 PUSH4 0xE5BF7FFC EQ PUSH2 0x40D JUMPI DUP1 PUSH4 0xF76DA2A8 EQ PUSH2 0x429 JUMPI PUSH2 0x142 JUMP JUMPDEST DUP1 PUSH4 0x838324D9 EQ PUSH2 0x2BB JUMPI DUP1 PUSH4 0x91D14854 EQ PUSH2 0x2EB JUMPI DUP1 PUSH4 0xA217FDDF EQ PUSH2 0x31B JUMPI DUP1 PUSH4 0xA41DD6E6 EQ PUSH2 0x339 JUMPI DUP1 PUSH4 0xA5025222 EQ PUSH2 0x357 JUMPI PUSH2 0x142 JUMP JUMPDEST DUP1 PUSH4 0x36568ABE GT PUSH2 0x10A JUMPI DUP1 PUSH4 0x36568ABE EQ PUSH2 0x211 JUMPI DUP1 PUSH4 0x38EADA1C EQ PUSH2 0x22D JUMPI DUP1 PUSH4 0x3C25C06B EQ PUSH2 0x249 JUMPI DUP1 PUSH4 0x3EDFCD2C EQ PUSH2 0x265 JUMPI DUP1 PUSH4 0x4BA79DFE EQ PUSH2 0x281 JUMPI DUP1 PUSH4 0x5C3ED7EC EQ PUSH2 0x29D JUMPI PUSH2 0x142 JUMP JUMPDEST DUP1 PUSH4 0x1FFC9A7 EQ PUSH2 0x147 JUMPI DUP1 PUSH4 0x2080179D EQ PUSH2 0x177 JUMPI DUP1 PUSH4 0x248A9CA3 EQ PUSH2 0x1A7 JUMPI DUP1 PUSH4 0x263D336C EQ PUSH2 0x1D7 JUMPI DUP1 PUSH4 0x2F2FF15D EQ PUSH2 0x1F5 JUMPI JUMPDEST PUSH1 0x0 DUP1 REVERT JUMPDEST PUSH2 0x161 PUSH1 0x4 DUP1 CALLDATASIZE SUB DUP2 ADD SWAP1 PUSH2 0x15C SWAP2 SWAP1 PUSH2 0x1A27 JUMP JUMPDEST PUSH2 0x459 JUMP JUMPDEST PUSH1 0x40 MLOAD PUSH2 0x16E SWAP2 SWAP1 PUSH2 0x1C99 JUMP JUMPDEST PUSH1 0x40 MLOAD DUP1 SWAP2 SUB SWAP1 RETURN JUMPDEST PUSH2 0x191 PUSH1 0x4 DUP1 CALLDATASIZE SUB DUP2 ADD SWAP1 PUSH2 0x18C SWAP2 SWAP1 PUSH2 0x1937 JUMP JUMPDEST PUSH2 0x4D3 JUMP JUMPDEST PUSH1 0x40 MLOAD PUSH2 0x19E SWAP2 SWAP1 PUSH2 0x1C99 JUMP JUMPDEST PUSH1 0x40 MLOAD DUP1 SWAP2 SUB SWAP1 RETURN JUMPDEST PUSH2 0x1C1 PUSH1 0x4 DUP1 CALLDATASIZE SUB DUP2 ADD SWAP1 PUSH2 0x1BC SWAP2 SWAP1 PUSH2 0x19C2 JUMP JUMPDEST PUSH2 0x551 JUMP JUMPDEST PUSH1 0x40 MLOAD PUSH2 0x1CE SWAP2 SWAP1 PUSH2 0x1CB4 JUMP JUMPDEST PUSH1 0x40 MLOAD DUP1 SWAP2 SUB SWAP1 RETURN JUMPDEST PUSH2 0x1DF PUSH2 0x570 JUMP JUMPDEST PUSH1 0x40 MLOAD PUSH2 0x1EC SWAP2 SWAP1 PUSH2 0x1CB4 JUMP JUMPDEST PUSH1 0x40 MLOAD DUP1 SWAP2 SUB SWAP1 RETURN JUMPDEST PUSH2 0x20F PUSH1 0x4 DUP1 CALLDATASIZE SUB DUP2 ADD SWAP1 PUSH2 0x20A SWAP2 SWAP1 PUSH2 0x19EB JUMP JUMPDEST PUSH2 0x594 JUMP JUMPDEST STOP JUMPDEST PUSH2 0x22B PUSH1 0x4 DUP1 CALLDATASIZE SUB DUP2 ADD SWAP1 PUSH2 0x226 SWAP2 SWAP1 PUSH2 0x19EB JUMP JUMPDEST PUSH2 0x5BD JUMP JUMPDEST STOP JUMPDEST PUSH2 0x247 PUSH1 0x4 DUP1 CALLDATASIZE SUB DUP2 ADD SWAP1 PUSH2 0x242 SWAP2 SWAP1 PUSH2 0x190E JUMP JUMPDEST PUSH2 0x640 JUMP JUMPDEST STOP JUMPDEST PUSH2 0x263 PUSH1 0x4 DUP1 CALLDATASIZE SUB DUP2 ADD SWAP1 PUSH2 0x25E SWAP2 SWAP1 PUSH2 0x1937 JUMP JUMPDEST PUSH2 0x7FE JUMP JUMPDEST STOP JUMPDEST PUSH2 0x27F PUSH1 0x4 DUP1 CALLDATASIZE SUB DUP2 ADD SWAP1 PUSH2 0x27A SWAP2 SWAP1 PUSH2 0x1973 JUMP JUMPDEST PUSH2 0x8D1 JUMP JUMPDEST STOP JUMPDEST PUSH2 0x29B PUSH1 0x4 DUP1 CALLDATASIZE SUB DUP2 ADD SWAP1 PUSH2 0x296 SWAP2 SWAP1 PUSH2 0x190E JUMP JUMPDEST PUSH2 0xA33 JUMP JUMPDEST STOP JUMPDEST PUSH2 0x2A5 PUSH2 0xCCB JUMP JUMPDEST PUSH1 0x40 MLOAD PUSH2 0x2B2 SWAP2 SWAP1 PUSH2 0x1CB4 JUMP JUMPDEST PUSH1 0x40 MLOAD DUP1 SWAP2 SUB SWAP1 RETURN JUMPDEST PUSH2 0x2D5 PUSH1 0x4 DUP1 CALLDATASIZE SUB DUP2 ADD SWAP1 PUSH2 0x2D0 SWAP2 SWAP1 PUSH2 0x190E JUMP JUMPDEST PUSH2 0xCEF JUMP JUMPDEST PUSH1 0x40 MLOAD PUSH2 0x2E2 SWAP2 SWAP1 PUSH2 0x1DB1 JUMP JUMPDEST PUSH1 0x40 MLOAD DUP1 SWAP2 SUB SWAP1 RETURN JUMPDEST PUSH2 0x305 PUSH1 0x4 DUP1 CALLDATASIZE SUB DUP2 ADD SWAP1 PUSH2 0x300 SWAP2 SWAP1 PUSH2 0x19EB JUMP JUMPDEST PUSH2 0xD1A JUMP JUMPDEST PUSH1 0x40 MLOAD PUSH2 0x312 SWAP2 SWAP1 PUSH2 0x1C99 JUMP JUMPDEST PUSH1 0x40 MLOAD DUP1 SWAP2 SUB SWAP1 RETURN JUMPDEST PUSH2 0x323 PUSH2 0xD84 JUMP JUMPDEST PUSH1 0x40 MLOAD PUSH2 0x330 SWAP2 SWAP1 PUSH2 0x1CB4 JUMP JUMPDEST PUSH1 0x40 MLOAD DUP1 SWAP2 SUB SWAP1 RETURN JUMPDEST PUSH2 0x341 PUSH2 0xD8B JUMP JUMPDEST PUSH1 0x40 MLOAD PUSH2 0x34E SWAP2 SWAP1 PUSH2 0x1CB4 JUMP JUMPDEST PUSH1 0x40 MLOAD DUP1 SWAP2 SUB SWAP1 RETURN JUMPDEST PUSH2 0x371 PUSH1 0x4 DUP1 CALLDATASIZE SUB DUP2 ADD SWAP1 PUSH2 0x36C SWAP2 SWAP1 PUSH2 0x190E JUMP JUMPDEST PUSH2 0xDAF JUMP JUMPDEST PUSH1 0x40 MLOAD PUSH2 0x37E SWAP2 SWAP1 PUSH2 0x1C99 JUMP JUMPDEST PUSH1 0x40 MLOAD DUP1 SWAP2 SUB SWAP1 RETURN JUMPDEST PUSH2 0x3A1 PUSH1 0x4 DUP1 CALLDATASIZE SUB DUP2 ADD SWAP1 PUSH2 0x39C SWAP2 SWAP1 PUSH2 0x1973 JUMP JUMPDEST PUSH2 0xDC3 JUMP JUMPDEST STOP JUMPDEST PUSH2 0x3AB PUSH2 0xEFF JUMP JUMPDEST PUSH1 0x40 MLOAD PUSH2 0x3B8 SWAP2 SWAP1 PUSH2 0x1DB1 JUMP JUMPDEST PUSH1 0x40 MLOAD DUP1 SWAP2 SUB SWAP1 RETURN JUMPDEST PUSH2 0x3DB PUSH1 0x4 DUP1 CALLDATASIZE SUB DUP2 ADD SWAP1 PUSH2 0x3D6 SWAP2 SWAP1 PUSH2 0x19EB JUMP JUMPDEST PUSH2 0xF0B JUMP JUMPDEST STOP JUMPDEST PUSH2 0x3F7 PUSH1 0x4 DUP1 CALLDATASIZE SUB DUP2 ADD SWAP1 PUSH2 0x3F2 SWAP2 SWAP1 PUSH2 0x190E JUMP JUMPDEST PUSH2 0xF34 JUMP JUMPDEST PUSH1 0x40 MLOAD PUSH2 0x404 SWAP2 SWAP1 PUSH2 0x1DB1 JUMP JUMPDEST PUSH1 0x40 MLOAD DUP1 SWAP2 SUB SWAP1 RETURN JUMPDEST PUSH2 0x427 PUSH1 0x4 DUP1 CALLDATASIZE SUB DUP2 ADD SWAP1 PUSH2 0x422 SWAP2 SWAP1 PUSH2 0x1937 JUMP JUMPDEST PUSH2 0xF80 JUMP JUMPDEST STOP JUMPDEST PUSH2 0x443 PUSH1 0x4 DUP1 CALLDATASIZE SUB DUP2 ADD SWAP1 PUSH2 0x43E SWAP2 SWAP1 PUSH2 0x190E JUMP JUMPDEST PUSH2 0x114E JUMP JUMPDEST PUSH1 0x40 MLOAD PUSH2 0x450 SWAP2 SWAP1 PUSH2 0x1C99 JUMP JUMPDEST PUSH1 0x40 MLOAD DUP1 SWAP2 SUB SWAP1 RETURN JUMPDEST PUSH1 0x0 PUSH32 0x7965DB0B00000000000000000000000000000000000000000000000000000000 PUSH28 0xFFFFFFFFFFFFFFFFFFFFFFFFFFFFFFFFFFFFFFFFFFFFFFFFFFFFFFFF NOT AND DUP3 PUSH28 0xFFFFFFFFFFFFFFFFFFFFFFFFFFFFFFFFFFFFFFFFFFFFFFFFFFFFFFFF NOT AND EQ DUP1 PUSH2 0x4CC JUMPI POP PUSH2 0x4CB DUP3 PUSH2 0x117B JUMP JUMPDEST JUMPDEST SWAP1 POP SWAP2 SWAP1 POP JUMP JUMPDEST PUSH1 0x0 DUP1 PUSH1 0x0 SWAP1 POP JUMPDEST PUSH2 0x4E4 DUP5 PUSH2 0xCEF JUMP JUMPDEST DUP2 LT ISZERO PUSH2 0x545 JUMPI DUP3 PUSH1 0x1 PUSH1 0x3 ADD PUSH1 0x0 PUSH2 0x4FC DUP8 PUSH2 0xF34 JUMP JUMPDEST DUP2 MSTORE PUSH1 0x20 ADD SWAP1 DUP2 MSTORE PUSH1 0x20 ADD PUSH1 0x0 KECCAK256 PUSH1 0x1 ADD PUSH1 0x0 DUP4 DUP2 MSTORE PUSH1 0x20 ADD SWAP1 DUP2 MSTORE PUSH1 0x20 ADD PUSH1 0x0 KECCAK256 PUSH1 0x0 ADD SLOAD EQ ISZERO PUSH2 0x532 JUMPI PUSH1 0x1 SWAP2 POP POP PUSH2 0x54B JUMP JUMPDEST DUP1 DUP1 PUSH2 0x53D SWAP1 PUSH2 0x1FB2 JUMP JUMPDEST SWAP2 POP POP PUSH2 0x4DB JUMP JUMPDEST POP PUSH1 0x0 SWAP1 POP JUMPDEST SWAP3 SWAP2 POP POP JUMP JUMPDEST PUSH1 0x0 DUP1 PUSH1 0x0 DUP4 DUP2 MSTORE PUSH1 0x20 ADD SWAP1 DUP2 MSTORE PUSH1 0x20 ADD PUSH1 0x0 KECCAK256 PUSH1 0x1 ADD SLOAD SWAP1 POP SWAP2 SWAP1 POP JUMP JUMPDEST PUSH32 0xAD8E13ADE6B5588E1A6049D70C1678B839105F007C5F6FB969AD8B1456160EAC DUP2 JUMP JUMPDEST PUSH2 0x59D DUP3 PUSH2 0x551 JUMP JUMPDEST PUSH2 0x5AE DUP2 PUSH2 0x5A9 PUSH2 0x11E5 JUMP JUMPDEST PUSH2 0x11ED JUMP JUMPDEST PUSH2 0x5B8 DUP4 DUP4 PUSH2 0x128A JUMP JUMPDEST POP POP POP JUMP JUMPDEST PUSH2 0x5C5 PUSH2 0x11E5 JUMP JUMPDEST PUSH20 0xFFFFFFFFFFFFFFFFFFFFFFFFFFFFFFFFFFFFFFFF AND DUP2 PUSH20 0xFFFFFFFFFFFFFFFFFFFFFFFFFFFFFFFFFFFFFFFF AND EQ PUSH2 0x632 JUMPI PUSH1 0x40 MLOAD PUSH32 0x8C379A000000000000000000000000000000000000000000000000000000000 DUP2 MSTORE PUSH1 0x4 ADD PUSH2 0x629 SWAP1 PUSH2 0x1D91 JUMP JUMPDEST PUSH1 0x40 MLOAD DUP1 SWAP2 SUB SWAP1 REVERT JUMPDEST PUSH2 0x63C DUP3 DUP3 PUSH2 0x136A JUMP JUMPDEST POP POP JUMP JUMPDEST PUSH2 0x671 PUSH32 0x94A986C75919E983AAD44B3AA6D84EBCADDF91749EDF743E3A487D1A49949A75 PUSH2 0x66C PUSH2 0x11E5 JUMP JUMPDEST PUSH2 0xD1A JUMP JUMPDEST DUP1 PUSH2 0x6A9 JUMPI POP PUSH2 0x6A8 PUSH32 0x3EC4E68565B7B1587AACCBCF2B5911E829E236602DC6D0FE89C50E09BDD019B4 PUSH2 0x6A3 PUSH2 0x11E5 JUMP JUMPDEST PUSH2 0xD1A JUMP JUMPDEST JUMPDEST DUP1 PUSH2 0x6E1 JUMPI POP PUSH2 0x6E0 PUSH32 0xAD8E13ADE6B5588E1A6049D70C1678B839105F007C5F6FB969AD8B1456160EAC PUSH2 0x6DB PUSH2 0x11E5 JUMP JUMPDEST PUSH2 0xD1A JUMP JUMPDEST JUMPDEST DUP1 PUSH2 0x6FC JUMPI POP PUSH2 0x6FB PUSH1 0x0 DUP1 SHL PUSH2 0x6F6 PUSH2 0x11E5 JUMP JUMPDEST PUSH2 0xD1A JUMP JUMPDEST JUMPDEST PUSH2 0x73B JUMPI PUSH1 0x40 MLOAD PUSH32 0x8C379A000000000000000000000000000000000000000000000000000000000 DUP2 MSTORE PUSH1 0x4 ADD PUSH2 0x732 SWAP1 PUSH2 0x1D51 JUMP JUMPDEST PUSH1 0x40 MLOAD DUP1 SWAP2 SUB SWAP1 REVERT JUMPDEST PUSH1 0x1 PUSH1 0x0 ADD PUSH1 0x0 DUP2 SLOAD DUP1 SWAP3 SWAP2 SWAP1 PUSH2 0x751 SWAP1 PUSH2 0x1FB2 JUMP JUMPDEST SWAP2 SWAP1 POP SSTORE POP DUP1 PUSH1 0x1 DUP1 ADD PUSH1 0x0 PUSH1 0x1 PUSH1 0x0 ADD SLOAD DUP2 MSTORE PUSH1 0x20 ADD SWAP1 DUP2 MSTORE PUSH1 0x20 ADD PUSH1 0x0 KECCAK256 PUSH1 0x0 PUSH2 0x100 EXP DUP2 SLOAD DUP2 PUSH20 0xFFFFFFFFFFFFFFFFFFFFFFFFFFFFFFFFFFFFFFFF MUL NOT AND SWAP1 DUP4 PUSH20 0xFFFFFFFFFFFFFFFFFFFFFFFFFFFFFFFFFFFFFFFF AND MUL OR SWAP1 SSTORE POP PUSH1 0x1 PUSH1 0x0 ADD SLOAD PUSH1 0x1 PUSH1 0x2 ADD PUSH1 0x0 DUP4 PUSH20 0xFFFFFFFFFFFFFFFFFFFFFFFFFFFFFFFFFFFFFFFF AND PUSH20 0xFFFFFFFFFFFFFFFFFFFFFFFFFFFFFFFFFFFFFFFF AND DUP2 MSTORE PUSH1 0x20 ADD SWAP1 DUP2 MSTORE PUSH1 0x20 ADD PUSH1 0x0 KECCAK256 DUP2 SWAP1 SSTORE POP POP JUMP JUMPDEST PUSH2 0x82F PUSH32 0x3EC4E68565B7B1587AACCBCF2B5911E829E236602DC6D0FE89C50E09BDD019B4 PUSH2 0x82A PUSH2 0x11E5 JUMP JUMPDEST PUSH2 0xD1A JUMP JUMPDEST DUP1 PUSH2 0x867 JUMPI POP PUSH2 0x866 PUSH32 0xAD8E13ADE6B5588E1A6049D70C1678B839105F007C5F6FB969AD8B1456160EAC PUSH2 0x861 PUSH2 0x11E5 JUMP JUMPDEST PUSH2 0xD1A JUMP JUMPDEST JUMPDEST DUP1 PUSH2 0x882 JUMPI POP PUSH2 0x881 PUSH1 0x0 DUP1 SHL PUSH2 0x87C PUSH2 0x11E5 JUMP JUMPDEST PUSH2 0xD1A JUMP JUMPDEST JUMPDEST PUSH2 0x8C1 JUMPI PUSH1 0x40 MLOAD PUSH32 0x8C379A000000000000000000000000000000000000000000000000000000000 DUP2 MSTORE PUSH1 0x4 ADD PUSH2 0x8B8 SWAP1 PUSH2 0x1D71 JUMP JUMPDEST PUSH1 0x40 MLOAD DUP1 SWAP2 SUB SWAP1 REVERT JUMPDEST PUSH2 0x8CD DUP3 DUP3 PUSH1 0x1 PUSH2 0xDC3 JUMP JUMPDEST POP POP JUMP JUMPDEST PUSH2 0x902 PUSH32 0x3EC4E68565B7B1587AACCBCF2B5911E829E236602DC6D0FE89C50E09BDD019B4 PUSH2 0x8FD PUSH2 0x11E5 JUMP JUMPDEST PUSH2 0xD1A JUMP JUMPDEST DUP1 PUSH2 0x91D JUMPI POP PUSH2 0x91C PUSH1 0x0 DUP1 SHL PUSH2 0x917 PUSH2 0x11E5 JUMP JUMPDEST PUSH2 0xD1A JUMP JUMPDEST JUMPDEST PUSH2 0x95C JUMPI PUSH1 0x40 MLOAD PUSH32 0x8C379A000000000000000000000000000000000000000000000000000000000 DUP2 MSTORE PUSH1 0x4 ADD PUSH2 0x953 SWAP1 PUSH2 0x1D31 JUMP JUMPDEST PUSH1 0x40 MLOAD DUP1 SWAP2 SUB SWAP1 REVERT JUMPDEST PUSH2 0x965 DUP4 PUSH2 0xDAF JUMP JUMPDEST PUSH2 0x973 JUMPI PUSH2 0x972 DUP4 PUSH2 0x640 JUMP JUMPDEST JUMPDEST PUSH1 0x1 PUSH1 0x3 ADD PUSH1 0x0 PUSH2 0x983 DUP6 PUSH2 0xF34 JUMP JUMPDEST DUP2 MSTORE PUSH1 0x20 ADD SWAP1 DUP2 MSTORE PUSH1 0x20 ADD PUSH1 0x0 KECCAK256 PUSH1 0x0 ADD PUSH1 0x0 DUP2 SLOAD DUP1 SWAP3 SWAP2 SWAP1 PUSH2 0x9A5 SWAP1 PUSH2 0x1FB2 JUMP JUMPDEST SWAP2 SWAP1 POP SSTORE POP DUP2 PUSH1 0x1 PUSH1 0x3 ADD PUSH1 0x0 PUSH2 0x9BB DUP7 PUSH2 0xF34 JUMP JUMPDEST DUP2 MSTORE PUSH1 0x20 ADD SWAP1 DUP2 MSTORE PUSH1 0x20 ADD PUSH1 0x0 KECCAK256 PUSH1 0x1 ADD PUSH1 0x0 PUSH2 0x9D7 DUP7 PUSH2 0xCEF JUMP JUMPDEST DUP2 MSTORE PUSH1 0x20 ADD SWAP1 DUP2 MSTORE PUSH1 0x20 ADD PUSH1 0x0 KECCAK256 PUSH1 0x0 ADD DUP2 SWAP1 SSTORE POP DUP1 PUSH1 0x1 PUSH1 0x3 ADD PUSH1 0x0 PUSH2 0x9FD DUP7 PUSH2 0xF34 JUMP JUMPDEST DUP2 MSTORE PUSH1 0x20 ADD SWAP1 DUP2 MSTORE PUSH1 0x20 ADD PUSH1 0x0 KECCAK256 PUSH1 0x1 ADD PUSH1 0x0 PUSH2 0xA19 DUP7 PUSH2 0xCEF JUMP JUMPDEST DUP2 MSTORE PUSH1 0x20 ADD SWAP1 DUP2 MSTORE PUSH1 0x20 ADD PUSH1 0x0 KECCAK256 PUSH1 0x1 ADD DUP2 SWAP1 SSTORE POP POP POP POP JUMP JUMPDEST PUSH2 0xA64 PUSH32 0x94A986C75919E983AAD44B3AA6D84EBCADDF91749EDF743E3A487D1A49949A75 PUSH2 0xA5F PUSH2 0x11E5 JUMP JUMPDEST PUSH2 0xD1A JUMP JUMPDEST DUP1 PUSH2 0xA7F JUMPI POP PUSH2 0xA7E PUSH1 0x0 DUP1 SHL PUSH2 0xA79 PUSH2 0x11E5 JUMP JUMPDEST PUSH2 0xD1A JUMP JUMPDEST JUMPDEST PUSH2 0xABE JUMPI PUSH1 0x40 MLOAD PUSH32 0x8C379A000000000000000000000000000000000000000000000000000000000 DUP2 MSTORE PUSH1 0x4 ADD PUSH2 0xAB5 SWAP1 PUSH2 0x1D11 JUMP JUMPDEST PUSH1 0x40 MLOAD DUP1 SWAP2 SUB SWAP1 REVERT JUMPDEST PUSH1 0x0 PUSH2 0xAC9 DUP3 PUSH2 0xF34 JUMP JUMPDEST SWAP1 POP PUSH1 0x0 DUP3 SWAP1 POP PUSH1 0x0 PUSH1 0x1 PUSH1 0x0 ADD SLOAD SWAP1 POP PUSH1 0x0 PUSH1 0x1 DUP1 ADD PUSH1 0x0 PUSH1 0x1 PUSH1 0x0 ADD SLOAD DUP2 MSTORE PUSH1 0x20 ADD SWAP1 DUP2 MSTORE PUSH1 0x20 ADD PUSH1 0x0 KECCAK256 PUSH1 0x0 SWAP1 SLOAD SWAP1 PUSH2 0x100 EXP SWAP1 DIV PUSH20 0xFFFFFFFFFFFFFFFFFFFFFFFFFFFFFFFFFFFFFFFF AND SWAP1 POP PUSH1 0x1 DUP1 ADD PUSH1 0x0 DUP4 DUP2 MSTORE PUSH1 0x20 ADD SWAP1 DUP2 MSTORE PUSH1 0x20 ADD PUSH1 0x0 KECCAK256 PUSH1 0x0 SWAP1 SLOAD SWAP1 PUSH2 0x100 EXP SWAP1 DIV PUSH20 0xFFFFFFFFFFFFFFFFFFFFFFFFFFFFFFFFFFFFFFFF AND PUSH1 0x1 DUP1 ADD PUSH1 0x0 DUP7 DUP2 MSTORE PUSH1 0x20 ADD SWAP1 DUP2 MSTORE PUSH1 0x20 ADD PUSH1 0x0 KECCAK256 PUSH1 0x0 PUSH2 0x100 EXP DUP2 SLOAD DUP2 PUSH20 0xFFFFFFFFFFFFFFFFFFFFFFFFFFFFFFFFFFFFFFFF MUL NOT AND SWAP1 DUP4 PUSH20 0xFFFFFFFFFFFFFFFFFFFFFFFFFFFFFFFFFFFFFFFF AND MUL OR SWAP1 SSTORE POP PUSH1 0x1 DUP1 ADD PUSH1 0x0 DUP4 DUP2 MSTORE PUSH1 0x20 ADD SWAP1 DUP2 MSTORE PUSH1 0x20 ADD PUSH1 0x0 KECCAK256 PUSH1 0x0 PUSH2 0x100 EXP DUP2 SLOAD SWAP1 PUSH20 0xFFFFFFFFFFFFFFFFFFFFFFFFFFFFFFFFFFFFFFFF MUL NOT AND SWAP1 SSTORE PUSH1 0x1 PUSH1 0x2 ADD PUSH1 0x0 DUP3 PUSH20 0xFFFFFFFFFFFFFFFFFFFFFFFFFFFFFFFFFFFFFFFF AND PUSH20 0xFFFFFFFFFFFFFFFFFFFFFFFFFFFFFFFFFFFFFFFF AND DUP2 MSTORE PUSH1 0x20 ADD SWAP1 DUP2 MSTORE PUSH1 0x20 ADD PUSH1 0x0 KECCAK256 SLOAD PUSH1 0x1 PUSH1 0x2 ADD PUSH1 0x0 DUP6 PUSH20 0xFFFFFFFFFFFFFFFFFFFFFFFFFFFFFFFFFFFFFFFF AND PUSH20 0xFFFFFFFFFFFFFFFFFFFFFFFFFFFFFFFFFFFFFFFF AND DUP2 MSTORE PUSH1 0x20 ADD SWAP1 DUP2 MSTORE PUSH1 0x20 ADD PUSH1 0x0 KECCAK256 DUP2 SWAP1 SSTORE POP PUSH1 0x1 PUSH1 0x2 ADD PUSH1 0x0 DUP3 PUSH20 0xFFFFFFFFFFFFFFFFFFFFFFFFFFFFFFFFFFFFFFFF AND PUSH20 0xFFFFFFFFFFFFFFFFFFFFFFFFFFFFFFFFFFFFFFFF AND DUP2 MSTORE PUSH1 0x20 ADD SWAP1 DUP2 MSTORE PUSH1 0x20 ADD PUSH1 0x0 KECCAK256 PUSH1 0x0 SWAP1 SSTORE PUSH1 0x1 PUSH1 0x0 ADD PUSH1 0x0 DUP2 SLOAD DUP1 SWAP3 SWAP2 SWAP1 PUSH2 0xCBF SWAP1 PUSH2 0x1F88 JUMP JUMPDEST SWAP2 SWAP1 POP SSTORE POP POP POP POP POP POP JUMP JUMPDEST PUSH32 0x94A986C75919E983AAD44B3AA6D84EBCADDF91749EDF743E3A487D1A49949A75 DUP2 JUMP JUMPDEST PUSH1 0x0 PUSH1 0x1 PUSH1 0x3 ADD PUSH1 0x0 PUSH2 0xD01 DUP5 PUSH2 0xF34 JUMP JUMPDEST DUP2 MSTORE PUSH1 0x20 ADD SWAP1 DUP2 MSTORE PUSH1 0x20 ADD PUSH1 0x0 KECCAK256 PUSH1 0x0 ADD SLOAD SWAP1 POP SWAP2 SWAP1 POP JUMP JUMPDEST PUSH1 0x0 DUP1 PUSH1 0x0 DUP5 DUP2 MSTORE PUSH1 0x20 ADD SWAP1 DUP2 MSTORE PUSH1 0x20 ADD PUSH1 0x0 KECCAK256 PUSH1 0x0 ADD PUSH1 0x0 DUP4 PUSH20 0xFFFFFFFFFFFFFFFFFFFFFFFFFFFFFFFFFFFFFFFF AND PUSH20 0xFFFFFFFFFFFFFFFFFFFFFFFFFFFFFFFFFFFFFFFF AND DUP2 MSTORE PUSH1 0x20 ADD SWAP1 DUP2 MSTORE PUSH1 0x20 ADD PUSH1 0x0 KECCAK256 PUSH1 0x0 SWAP1 SLOAD SWAP1 PUSH2 0x100 EXP SWAP1 DIV PUSH1 0xFF AND SWAP1 POP SWAP3 SWAP2 POP POP JUMP JUMPDEST PUSH1 0x0 DUP1 SHL DUP2 JUMP JUMPDEST PUSH32 0x3EC4E68565B7B1587AACCBCF2B5911E829E236602DC6D0FE89C50E09BDD019B4 DUP2 JUMP JUMPDEST PUSH1 0x0 DUP1 PUSH2 0xDBB DUP4 PUSH2 0xF34 JUMP JUMPDEST EQ SWAP1 POP SWAP2 SWAP1 POP JUMP JUMPDEST PUSH2 0xDF4 PUSH32 0x3EC4E68565B7B1587AACCBCF2B5911E829E236602DC6D0FE89C50E09BDD019B4 PUSH2 0xDEF PUSH2 0x11E5 JUMP JUMPDEST PUSH2 0xD1A JUMP JUMPDEST DUP1 PUSH2 0xE2C JUMPI POP PUSH2 0xE2B PUSH32 0xAD8E13ADE6B5588E1A6049D70C1678B839105F007C5F6FB969AD8B1456160EAC PUSH2 0xE26 PUSH2 0x11E5 JUMP JUMPDEST PUSH2 0xD1A JUMP JUMPDEST JUMPDEST DUP1 PUSH2 0xE47 JUMPI POP PUSH2 0xE46 PUSH1 0x0 DUP1 SHL PUSH2 0xE41 PUSH2 0x11E5 JUMP JUMPDEST PUSH2 0xD1A JUMP JUMPDEST JUMPDEST PUSH2 0xE86 JUMPI PUSH1 0x40 MLOAD PUSH32 0x8C379A000000000000000000000000000000000000000000000000000000000 DUP2 MSTORE PUSH1 0x4 ADD PUSH2 0xE7D SWAP1 PUSH2 0x1D71 JUMP JUMPDEST PUSH1 0x40 MLOAD DUP1 SWAP2 SUB SWAP1 REVERT JUMPDEST PUSH1 0x0 JUMPDEST PUSH2 0xE92 DUP5 PUSH2 0xCEF JUMP JUMPDEST DUP2 LT ISZERO PUSH2 0xEF9 JUMPI DUP3 PUSH1 0x1 PUSH1 0x3 ADD PUSH1 0x0 PUSH2 0xEAA DUP8 PUSH2 0xF34 JUMP JUMPDEST DUP2 MSTORE PUSH1 0x20 ADD SWAP1 DUP2 MSTORE PUSH1 0x20 ADD PUSH1 0x0 KECCAK256 PUSH1 0x1 ADD PUSH1 0x0 DUP4 DUP2 MSTORE PUSH1 0x20 ADD SWAP1 DUP2 MSTORE PUSH1 0x20 ADD PUSH1 0x0 KECCAK256 PUSH1 0x0 ADD SLOAD EQ ISZERO PUSH2 0xEE6 JUMPI PUSH2 0xEE1 DUP5 DUP3 DUP5 PUSH2 0x144B JUMP JUMPDEST PUSH2 0xEF9 JUMP JUMPDEST DUP1 DUP1 PUSH2 0xEF1 SWAP1 PUSH2 0x1FB2 JUMP JUMPDEST SWAP2 POP POP PUSH2 0xE89 JUMP JUMPDEST POP POP POP POP JUMP JUMPDEST PUSH1 0x1 DUP1 PUSH1 0x0 ADD SLOAD SWAP1 POP DUP2 JUMP JUMPDEST PUSH2 0xF14 DUP3 PUSH2 0x551 JUMP JUMPDEST PUSH2 0xF25 DUP2 PUSH2 0xF20 PUSH2 0x11E5 JUMP JUMPDEST PUSH2 0x11ED JUMP JUMPDEST PUSH2 0xF2F DUP4 DUP4 PUSH2 0x136A JUMP JUMPDEST POP POP POP JUMP JUMPDEST PUSH1 0x0 PUSH1 0x1 PUSH1 0x2 ADD PUSH1 0x0 DUP4 PUSH20 0xFFFFFFFFFFFFFFFFFFFFFFFFFFFFFFFFFFFFFFFF AND PUSH20 0xFFFFFFFFFFFFFFFFFFFFFFFFFFFFFFFFFFFFFFFF AND DUP2 MSTORE PUSH1 0x20 ADD SWAP1 DUP2 MSTORE PUSH1 0x20 ADD PUSH1 0x0 KECCAK256 SLOAD SWAP1 POP SWAP2 SWAP1 POP JUMP JUMPDEST PUSH2 0xFB1 PUSH32 0x3EC4E68565B7B1587AACCBCF2B5911E829E236602DC6D0FE89C50E09BDD019B4 PUSH2 0xFAC PUSH2 0x11E5 JUMP JUMPDEST PUSH2 0xD1A JUMP JUMPDEST DUP1 PUSH2 0xFE9 JUMPI POP PUSH2 0xFE8 PUSH32 0xAD8E13ADE6B5588E1A6049D70C1678B839105F007C5F6FB969AD8B1456160EAC PUSH2 0xFE3 PUSH2 0x11E5 JUMP JUMPDEST PUSH2 0xD1A JUMP JUMPDEST JUMPDEST DUP1 PUSH2 0x1004 JUMPI POP PUSH2 0x1003 PUSH1 0x0 DUP1 SHL PUSH2 0xFFE PUSH2 0x11E5 JUMP JUMPDEST PUSH2 0xD1A JUMP JUMPDEST JUMPDEST PUSH2 0x1043 JUMPI PUSH1 0x40 MLOAD PUSH32 0x8C379A000000000000000000000000000000000000000000000000000000000 DUP2 MSTORE PUSH1 0x4 ADD PUSH2 0x103A SWAP1 PUSH2 0x1D71 JUMP JUMPDEST PUSH1 0x40 MLOAD DUP1 SWAP2 SUB SWAP1 REVERT JUMPDEST PUSH1 0x1 PUSH1 0x3 ADD PUSH1 0x0 PUSH2 0x1053 DUP5 PUSH2 0xF34 JUMP JUMPDEST DUP2 MSTORE PUSH1 0x20 ADD SWAP1 DUP2 MSTORE PUSH1 0x20 ADD PUSH1 0x0 KECCAK256 PUSH1 0x1 ADD PUSH1 0x0 PUSH2 0x106F DUP5 PUSH2 0xCEF JUMP JUMPDEST DUP2 MSTORE PUSH1 0x20 ADD SWAP1 DUP2 MSTORE PUSH1 0x20 ADD PUSH1 0x0 KECCAK256 PUSH1 0x1 PUSH1 0x3 ADD PUSH1 0x0 PUSH2 0x108D DUP6 PUSH2 0xF34 JUMP JUMPDEST DUP2 MSTORE PUSH1 0x20 ADD SWAP1 DUP2 MSTORE PUSH1 0x20 ADD PUSH1 0x0 KECCAK256 PUSH1 0x1 ADD PUSH1 0x0 DUP4 DUP2 MSTORE PUSH1 0x20 ADD SWAP1 DUP2 MSTORE PUSH1 0x20 ADD PUSH1 0x0 KECCAK256 PUSH1 0x0 DUP3 ADD SLOAD DUP2 PUSH1 0x0 ADD SSTORE PUSH1 0x1 DUP3 ADD SLOAD DUP2 PUSH1 0x1 ADD SSTORE SWAP1 POP POP PUSH1 0x1 PUSH1 0x3 ADD PUSH1 0x0 PUSH2 0x10D6 DUP5 PUSH2 0xF34 JUMP JUMPDEST DUP2 MSTORE PUSH1 0x20 ADD SWAP1 DUP2 MSTORE PUSH1 0x20 ADD PUSH1 0x0 KECCAK256 PUSH1 0x1 ADD PUSH1 0x0 PUSH2 0x10F2 DUP5 PUSH2 0xCEF JUMP JUMPDEST DUP2 MSTORE PUSH1 0x20 ADD SWAP1 DUP2 MSTORE PUSH1 0x20 ADD PUSH1 0x0 KECCAK256 PUSH1 0x0 DUP1 DUP3 ADD PUSH1 0x0 SWAP1 SSTORE PUSH1 0x1 DUP3 ADD PUSH1 0x0 SWAP1 SSTORE POP POP PUSH1 0x1 PUSH1 0x3 ADD PUSH1 0x0 PUSH2 0x1123 DUP5 PUSH2 0xF34 JUMP JUMPDEST DUP2 MSTORE PUSH1 0x20 ADD SWAP1 DUP2 MSTORE PUSH1 0x20 ADD PUSH1 0x0 KECCAK256 PUSH1 0x0 ADD PUSH1 0x0 DUP2 SLOAD DUP1 SWAP3 SWAP2 SWAP1 PUSH2 0x1145 SWAP1 PUSH2 0x1F88 JUMP JUMPDEST SWAP2 SWAP1 POP SSTORE POP POP POP JUMP JUMPDEST PUSH1 0x0 DUP1 PUSH1 0x1 PUSH1 0x3 ADD PUSH1 0x0 PUSH2 0x1161 DUP6 PUSH2 0xF34 JUMP JUMPDEST DUP2 MSTORE PUSH1 0x20 ADD SWAP1 DUP2 MSTORE PUSH1 0x20 ADD PUSH1 0x0 KECCAK256 PUSH1 0x0 ADD SLOAD EQ SWAP1 POP SWAP2 SWAP1 POP JUMP JUMPDEST PUSH1 0x0 PUSH32 0x1FFC9A700000000000000000000000000000000000000000000000000000000 PUSH28 0xFFFFFFFFFFFFFFFFFFFFFFFFFFFFFFFFFFFFFFFFFFFFFFFFFFFFFFFF NOT AND DUP3 PUSH28 0xFFFFFFFFFFFFFFFFFFFFFFFFFFFFFFFFFFFFFFFFFFFFFFFFFFFFFFFF NOT AND EQ SWAP1 POP SWAP2 SWAP1 POP JUMP JUMPDEST PUSH1 0x0 CALLER SWAP1 POP SWAP1 JUMP JUMPDEST PUSH2 0x11F7 DUP3 DUP3 PUSH2 0xD1A JUMP JUMPDEST PUSH2 0x1286 JUMPI PUSH2 0x121C DUP2 PUSH20 0xFFFFFFFFFFFFFFFFFFFFFFFFFFFFFFFFFFFFFFFF AND PUSH1 0x14 PUSH2 0x15C0 JUMP JUMPDEST PUSH2 0x122A DUP4 PUSH1 0x0 SHR PUSH1 0x20 PUSH2 0x15C0 JUMP JUMPDEST PUSH1 0x40 MLOAD PUSH1 0x20 ADD PUSH2 0x123B SWAP3 SWAP2 SWAP1 PUSH2 0x1C39 JUMP JUMPDEST PUSH1 0x40 MLOAD PUSH1 0x20 DUP2 DUP4 SUB SUB DUP2 MSTORE SWAP1 PUSH1 0x40 MSTORE PUSH1 0x40 MLOAD PUSH32 0x8C379A000000000000000000000000000000000000000000000000000000000 DUP2 MSTORE PUSH1 0x4 ADD PUSH2 0x127D SWAP2 SWAP1 PUSH2 0x1CCF JUMP JUMPDEST PUSH1 0x40 MLOAD DUP1 SWAP2 SUB SWAP1 REVERT JUMPDEST POP POP JUMP JUMPDEST PUSH2 0x1294 DUP3 DUP3 PUSH2 0xD1A JUMP JUMPDEST PUSH2 0x1366 JUMPI PUSH1 0x1 PUSH1 0x0 DUP1 DUP5 DUP2 MSTORE PUSH1 0x20 ADD SWAP1 DUP2 MSTORE PUSH1 0x20 ADD PUSH1 0x0 KECCAK256 PUSH1 0x0 ADD PUSH1 0x0 DUP4 PUSH20 0xFFFFFFFFFFFFFFFFFFFFFFFFFFFFFFFFFFFFFFFF AND PUSH20 0xFFFFFFFFFFFFFFFFFFFFFFFFFFFFFFFFFFFFFFFF AND DUP2 MSTORE PUSH1 0x20 ADD SWAP1 DUP2 MSTORE PUSH1 0x20 ADD PUSH1 0x0 KECCAK256 PUSH1 0x0 PUSH2 0x100 EXP DUP2 SLOAD DUP2 PUSH1 0xFF MUL NOT AND SWAP1 DUP4 ISZERO ISZERO MUL OR SWAP1 SSTORE POP PUSH2 0x130B PUSH2 0x11E5 JUMP JUMPDEST PUSH20 0xFFFFFFFFFFFFFFFFFFFFFFFFFFFFFFFFFFFFFFFF AND DUP2 PUSH20 0xFFFFFFFFFFFFFFFFFFFFFFFFFFFFFFFFFFFFFFFF AND DUP4 PUSH32 0x2F8788117E7EFF1D82E926EC794901D17C78024A50270940304540A733656F0D PUSH1 0x40 MLOAD PUSH1 0x40 MLOAD DUP1 SWAP2 SUB SWAP1 LOG4 JUMPDEST POP POP JUMP JUMPDEST PUSH2 0x1374 DUP3 DUP3 PUSH2 0xD1A JUMP JUMPDEST ISZERO PUSH2 0x1447 JUMPI PUSH1 0x0 DUP1 PUSH1 0x0 DUP5 DUP2 MSTORE PUSH1 0x20 ADD SWAP1 DUP2 MSTORE PUSH1 0x20 ADD PUSH1 0x0 KECCAK256 PUSH1 0x0 ADD PUSH1 0x0 DUP4 PUSH20 0xFFFFFFFFFFFFFFFFFFFFFFFFFFFFFFFFFFFFFFFF AND PUSH20 0xFFFFFFFFFFFFFFFFFFFFFFFFFFFFFFFFFFFFFFFF AND DUP2 MSTORE PUSH1 0x20 ADD SWAP1 DUP2 MSTORE PUSH1 0x20 ADD PUSH1 0x0 KECCAK256 PUSH1 0x0 PUSH2 0x100 EXP DUP2 SLOAD DUP2 PUSH1 0xFF MUL NOT AND SWAP1 DUP4 ISZERO ISZERO MUL OR SWAP1 SSTORE POP PUSH2 0x13EC PUSH2 0x11E5 JUMP JUMPDEST PUSH20 0xFFFFFFFFFFFFFFFFFFFFFFFFFFFFFFFFFFFFFFFF AND DUP2 PUSH20 0xFFFFFFFFFFFFFFFFFFFFFFFFFFFFFFFFFFFFFFFF AND DUP4 PUSH32 0xF6391F5C32D9C69D2A47EA670B442974B53935D1EDC7FD64EB21E047A839171B PUSH1 0x40 MLOAD PUSH1 0x40 MLOAD DUP1 SWAP2 SUB SWAP1 LOG4 JUMPDEST POP POP JUMP JUMPDEST PUSH1 0x0 DUP2 PUSH1 0x1 PUSH1 0x3 ADD PUSH1 0x0 PUSH2 0x145E DUP8 PUSH2 0xF34 JUMP JUMPDEST DUP2 MSTORE PUSH1 0x20 ADD SWAP1 DUP2 MSTORE PUSH1 0x20 ADD PUSH1 0x0 KECCAK256 PUSH1 0x1 ADD PUSH1 0x0 DUP6 DUP2 MSTORE PUSH1 0x20 ADD SWAP1 DUP2 MSTORE PUSH1 0x20 ADD PUSH1 0x0 KECCAK256 PUSH1 0x1 ADD SLOAD LT ISZERO SWAP1 POP PUSH1 0x0 PUSH1 0x1 PUSH1 0x3 ADD PUSH1 0x0 PUSH2 0x149A DUP8 PUSH2 0xF34 JUMP JUMPDEST DUP2 MSTORE PUSH1 0x20 ADD SWAP1 DUP2 MSTORE PUSH1 0x20 ADD PUSH1 0x0 KECCAK256 PUSH1 0x1 ADD PUSH1 0x0 DUP6 DUP2 MSTORE PUSH1 0x20 ADD SWAP1 DUP2 MSTORE PUSH1 0x20 ADD PUSH1 0x0 KECCAK256 PUSH1 0x1 ADD SLOAD PUSH1 0x40 MLOAD PUSH1 0x20 ADD PUSH2 0x14D0 SWAP2 SWAP1 PUSH2 0x1C73 JUMP JUMPDEST PUSH1 0x40 MLOAD PUSH1 0x20 DUP2 DUP4 SUB SUB DUP2 MSTORE SWAP1 PUSH1 0x40 MSTORE SWAP1 POP DUP2 DUP2 SWAP1 PUSH2 0x1524 JUMPI PUSH1 0x40 MLOAD PUSH32 0x8C379A000000000000000000000000000000000000000000000000000000000 DUP2 MSTORE PUSH1 0x4 ADD PUSH2 0x151B SWAP2 SWAP1 PUSH2 0x1CCF JUMP JUMPDEST PUSH1 0x40 MLOAD DUP1 SWAP2 SUB SWAP1 REVERT JUMPDEST POP DUP3 PUSH1 0x1 PUSH1 0x3 ADD PUSH1 0x0 PUSH2 0x1536 DUP9 PUSH2 0xF34 JUMP JUMPDEST DUP2 MSTORE PUSH1 0x20 ADD SWAP1 DUP2 MSTORE PUSH1 0x20 ADD PUSH1 0x0 KECCAK256 PUSH1 0x1 ADD PUSH1 0x0 DUP7 DUP2 MSTORE PUSH1 0x20 ADD SWAP1 DUP2 MSTORE PUSH1 0x20 ADD PUSH1 0x0 KECCAK256 PUSH1 0x1 ADD PUSH1 0x0 DUP3 DUP3 SLOAD PUSH2 0x156A SWAP2 SWAP1 PUSH2 0x1EA3 JUMP JUMPDEST SWAP3 POP POP DUP2 SWAP1 SSTORE POP PUSH1 0x0 PUSH1 0x1 PUSH1 0x3 ADD PUSH1 0x0 PUSH2 0x1583 DUP9 PUSH2 0xF34 JUMP JUMPDEST DUP2 MSTORE PUSH1 0x20 ADD SWAP1 DUP2 MSTORE PUSH1 0x20 ADD PUSH1 0x0 KECCAK256 PUSH1 0x1 ADD PUSH1 0x0 DUP7 DUP2 MSTORE PUSH1 0x20 ADD SWAP1 DUP2 MSTORE PUSH1 0x20 ADD PUSH1 0x0 KECCAK256 PUSH1 0x1 ADD SLOAD GT PUSH2 0x15B9 JUMPI PUSH2 0x15B8 DUP6 DUP6 PUSH2 0xF80 JUMP JUMPDEST JUMPDEST POP POP POP POP POP JUMP JUMPDEST PUSH1 0x60 PUSH1 0x0 PUSH1 0x2 DUP4 PUSH1 0x2 PUSH2 0x15D3 SWAP2 SWAP1 PUSH2 0x1E49 JUMP JUMPDEST PUSH2 0x15DD SWAP2 SWAP1 PUSH2 0x1DF3 JUMP JUMPDEST PUSH8 0xFFFFFFFFFFFFFFFF DUP2 GT ISZERO PUSH2 0x161C JUMPI PUSH32 0x4E487B7100000000000000000000000000000000000000000000000000000000 PUSH1 0x0 MSTORE PUSH1 0x41 PUSH1 0x4 MSTORE PUSH1 0x24 PUSH1 0x0 REVERT JUMPDEST PUSH1 0x40 MLOAD SWAP1 DUP1 DUP3 MSTORE DUP1 PUSH1 0x1F ADD PUSH1 0x1F NOT AND PUSH1 0x20 ADD DUP3 ADD PUSH1 0x40 MSTORE DUP1 ISZERO PUSH2 0x164E JUMPI DUP2 PUSH1 0x20 ADD PUSH1 0x1 DUP3 MUL DUP1 CALLDATASIZE DUP4 CALLDATACOPY DUP1 DUP3 ADD SWAP2 POP POP SWAP1 POP JUMPDEST POP SWAP1 POP PUSH32 0x3000000000000000000000000000000000000000000000000000000000000000 DUP2 PUSH1 0x0 DUP2 MLOAD DUP2 LT PUSH2 0x16AC JUMPI PUSH32 0x4E487B7100000000000000000000000000000000000000000000000000000000 PUSH1 0x0 MSTORE PUSH1 0x32 PUSH1 0x4 MSTORE PUSH1 0x24 PUSH1 0x0 REVERT JUMPDEST PUSH1 0x20 ADD ADD SWAP1 PUSH31 0xFFFFFFFFFFFFFFFFFFFFFFFFFFFFFFFFFFFFFFFFFFFFFFFFFFFFFFFFFFFFFF NOT AND SWAP1 DUP2 PUSH1 0x0 BYTE SWAP1 MSTORE8 POP PUSH32 0x7800000000000000000000000000000000000000000000000000000000000000 DUP2 PUSH1 0x1 DUP2 MLOAD DUP2 LT PUSH2 0x1736 JUMPI PUSH32 0x4E487B7100000000000000000000000000000000000000000000000000000000 PUSH1 0x0 MSTORE PUSH1 0x32 PUSH1 0x4 MSTORE PUSH1 0x24 PUSH1 0x0 REVERT JUMPDEST PUSH1 0x20 ADD ADD SWAP1 PUSH31 0xFFFFFFFFFFFFFFFFFFFFFFFFFFFFFFFFFFFFFFFFFFFFFFFFFFFFFFFFFFFFFF NOT AND SWAP1 DUP2 PUSH1 0x0 BYTE SWAP1 MSTORE8 POP PUSH1 0x0 PUSH1 0x1 DUP5 PUSH1 0x2 PUSH2 0x1776 SWAP2 SWAP1 PUSH2 0x1E49 JUMP JUMPDEST PUSH2 0x1780 SWAP2 SWAP1 PUSH2 0x1DF3 JUMP JUMPDEST SWAP1 POP JUMPDEST PUSH1 0x1 DUP2 GT ISZERO PUSH2 0x186C JUMPI PUSH32 0x3031323334353637383961626364656600000000000000000000000000000000 PUSH1 0xF DUP7 AND PUSH1 0x10 DUP2 LT PUSH2 0x17E8 JUMPI PUSH32 0x4E487B7100000000000000000000000000000000000000000000000000000000 PUSH1 0x0 MSTORE PUSH1 0x32 PUSH1 0x4 MSTORE PUSH1 0x24 PUSH1 0x0 REVERT JUMPDEST BYTE PUSH1 0xF8 SHL DUP3 DUP3 DUP2 MLOAD DUP2 LT PUSH2 0x1825 JUMPI PUSH32 0x4E487B7100000000000000000000000000000000000000000000000000000000 PUSH1 0x0 MSTORE PUSH1 0x32 PUSH1 0x4 MSTORE PUSH1 0x24 PUSH1 0x0 REVERT JUMPDEST PUSH1 0x20 ADD ADD SWAP1 PUSH31 0xFFFFFFFFFFFFFFFFFFFFFFFFFFFFFFFFFFFFFFFFFFFFFFFFFFFFFFFFFFFFFF NOT AND SWAP1 DUP2 PUSH1 0x0 BYTE SWAP1 MSTORE8 POP PUSH1 0x4 DUP6 SWAP1 SHR SWAP5 POP DUP1 PUSH2 0x1865 SWAP1 PUSH2 0x1F88 JUMP JUMPDEST SWAP1 POP PUSH2 0x1783 JUMP JUMPDEST POP PUSH1 0x0 DUP5 EQ PUSH2 0x18B0 JUMPI PUSH1 0x40 MLOAD PUSH32 0x8C379A000000000000000000000000000000000000000000000000000000000 DUP2 MSTORE PUSH1 0x4 ADD PUSH2 0x18A7 SWAP1 PUSH2 0x1CF1 JUMP JUMPDEST PUSH1 0x40 MLOAD DUP1 SWAP2 SUB SWAP1 REVERT JUMPDEST DUP1 SWAP2 POP POP SWAP3 SWAP2 POP POP JUMP JUMPDEST PUSH1 0x0 DUP2 CALLDATALOAD SWAP1 POP PUSH2 0x18C9 DUP2 PUSH2 0x22E6 JUMP JUMPDEST SWAP3 SWAP2 POP POP JUMP JUMPDEST PUSH1 0x0 DUP2 CALLDATALOAD SWAP1 POP PUSH2 0x18DE DUP2 PUSH2 0x22FD JUMP JUMPDEST SWAP3 SWAP2 POP POP JUMP JUMPDEST PUSH1 0x0 DUP2 CALLDATALOAD SWAP1 POP PUSH2 0x18F3 DUP2 PUSH2 0x2314 JUMP JUMPDEST SWAP3 SWAP2 POP POP JUMP JUMPDEST PUSH1 0x0 DUP2 CALLDATALOAD SWAP1 POP PUSH2 0x1908 DUP2 PUSH2 0x232B JUMP JUMPDEST SWAP3 SWAP2 POP POP JUMP JUMPDEST PUSH1 0x0 PUSH1 0x20 DUP3 DUP5 SUB SLT ISZERO PUSH2 0x1920 JUMPI PUSH1 0x0 DUP1 REVERT JUMPDEST PUSH1 0x0 PUSH2 0x192E DUP5 DUP3 DUP6 ADD PUSH2 0x18BA JUMP JUMPDEST SWAP2 POP POP SWAP3 SWAP2 POP POP JUMP JUMPDEST PUSH1 0x0 DUP1 PUSH1 0x40 DUP4 DUP6 SUB SLT ISZERO PUSH2 0x194A JUMPI PUSH1 0x0 DUP1 REVERT JUMPDEST PUSH1 0x0 PUSH2 0x1958 DUP6 DUP3 DUP7 ADD PUSH2 0x18BA JUMP JUMPDEST SWAP3 POP POP PUSH1 0x20 PUSH2 0x1969 DUP6 DUP3 DUP7 ADD PUSH2 0x18F9 JUMP JUMPDEST SWAP2 POP POP SWAP3 POP SWAP3 SWAP1 POP JUMP JUMPDEST PUSH1 0x0 DUP1 PUSH1 0x0 PUSH1 0x60 DUP5 DUP7 SUB SLT ISZERO PUSH2 0x1988 JUMPI PUSH1 0x0 DUP1 REVERT JUMPDEST PUSH1 0x0 PUSH2 0x1996 DUP7 DUP3 DUP8 ADD PUSH2 0x18BA JUMP JUMPDEST SWAP4 POP POP PUSH1 0x20 PUSH2 0x19A7 DUP7 DUP3 DUP8 ADD PUSH2 0x18F9 JUMP JUMPDEST SWAP3 POP POP PUSH1 0x40 PUSH2 0x19B8 DUP7 DUP3 DUP8 ADD PUSH2 0x18F9 JUMP JUMPDEST SWAP2 POP POP SWAP3 POP SWAP3 POP SWAP3 JUMP JUMPDEST PUSH1 0x0 PUSH1 0x20 DUP3 DUP5 SUB SLT ISZERO PUSH2 0x19D4 JUMPI PUSH1 0x0 DUP1 REVERT JUMPDEST PUSH1 0x0 PUSH2 0x19E2 DUP5 DUP3 DUP6 ADD PUSH2 0x18CF JUMP JUMPDEST SWAP2 POP POP SWAP3 SWAP2 POP POP JUMP JUMPDEST PUSH1 0x0 DUP1 PUSH1 0x40 DUP4 DUP6 SUB SLT ISZERO PUSH2 0x19FE JUMPI PUSH1 0x0 DUP1 REVERT JUMPDEST PUSH1 0x0 PUSH2 0x1A0C DUP6 DUP3 DUP7 ADD PUSH2 0x18CF JUMP JUMPDEST SWAP3 POP POP PUSH1 0x20 PUSH2 0x1A1D DUP6 DUP3 DUP7 ADD PUSH2 0x18BA JUMP JUMPDEST SWAP2 POP POP SWAP3 POP SWAP3 SWAP1 POP JUMP JUMPDEST PUSH1 0x0 PUSH1 0x20 DUP3 DUP5 SUB SLT ISZERO PUSH2 0x1A39 JUMPI PUSH1 0x0 DUP1 REVERT JUMPDEST PUSH1 0x0 PUSH2 0x1A47 DUP5 DUP3 DUP6 ADD PUSH2 0x18E4 JUMP JUMPDEST SWAP2 POP POP SWAP3 SWAP2 POP POP JUMP JUMPDEST PUSH2 0x1A59 DUP2 PUSH2 0x1EE9 JUMP JUMPDEST DUP3 MSTORE POP POP JUMP JUMPDEST PUSH2 0x1A68 DUP2 PUSH2 0x1EF5 JUMP JUMPDEST DUP3 MSTORE POP POP JUMP JUMPDEST PUSH1 0x0 PUSH2 0x1A79 DUP3 PUSH2 0x1DCC JUMP JUMPDEST PUSH2 0x1A83 DUP2 DUP6 PUSH2 0x1DD7 JUMP JUMPDEST SWAP4 POP PUSH2 0x1A93 DUP2 DUP6 PUSH1 0x20 DUP7 ADD PUSH2 0x1F55 JUMP JUMPDEST PUSH2 0x1A9C DUP2 PUSH2 0x2034 JUMP JUMPDEST DUP5 ADD SWAP2 POP POP SWAP3 SWAP2 POP POP JUMP JUMPDEST PUSH1 0x0 PUSH2 0x1AB2 DUP3 PUSH2 0x1DCC JUMP JUMPDEST PUSH2 0x1ABC DUP2 DUP6 PUSH2 0x1DE8 JUMP JUMPDEST SWAP4 POP PUSH2 0x1ACC DUP2 DUP6 PUSH1 0x20 DUP7 ADD PUSH2 0x1F55 JUMP JUMPDEST DUP1 DUP5 ADD SWAP2 POP POP SWAP3 SWAP2 POP POP JUMP JUMPDEST PUSH1 0x0 PUSH2 0x1AE5 PUSH1 0x20 DUP4 PUSH2 0x1DD7 JUMP JUMPDEST SWAP2 POP PUSH2 0x1AF0 DUP3 PUSH2 0x2045 JUMP JUMPDEST PUSH1 0x20 DUP3 ADD SWAP1 POP SWAP2 SWAP1 POP JUMP JUMPDEST PUSH1 0x0 PUSH2 0x1B08 PUSH1 0x26 DUP4 PUSH2 0x1DD7 JUMP JUMPDEST SWAP2 POP PUSH2 0x1B13 DUP3 PUSH2 0x206E JUMP JUMPDEST PUSH1 0x40 DUP3 ADD SWAP1 POP SWAP2 SWAP1 POP JUMP JUMPDEST PUSH1 0x0 PUSH2 0x1B2B PUSH1 0x25 DUP4 PUSH2 0x1DD7 JUMP JUMPDEST SWAP2 POP PUSH2 0x1B36 DUP3 PUSH2 0x20BD JUMP JUMPDEST PUSH1 0x40 DUP3 ADD SWAP1 POP SWAP2 SWAP1 POP JUMP JUMPDEST PUSH1 0x0 PUSH2 0x1B4E PUSH1 0x53 DUP4 PUSH2 0x1DD7 JUMP JUMPDEST SWAP2 POP PUSH2 0x1B59 DUP3 PUSH2 0x210C JUMP JUMPDEST PUSH1 0x60 DUP3 ADD SWAP1 POP SWAP2 SWAP1 POP JUMP JUMPDEST PUSH1 0x0 PUSH2 0x1B71 PUSH1 0x33 DUP4 PUSH2 0x1DD7 JUMP JUMPDEST SWAP2 POP PUSH2 0x1B7C DUP3 PUSH2 0x2181 JUMP JUMPDEST PUSH1 0x40 DUP3 ADD SWAP1 POP SWAP2 SWAP1 POP JUMP JUMPDEST PUSH1 0x0 PUSH2 0x1B94 PUSH1 0x17 DUP4 PUSH2 0x1DE8 JUMP JUMPDEST SWAP2 POP PUSH2 0x1B9F DUP3 PUSH2 0x21D0 JUMP JUMPDEST PUSH1 0x17 DUP3 ADD SWAP1 POP SWAP2 SWAP1 POP JUMP JUMPDEST PUSH1 0x0 PUSH2 0x1BB7 PUSH1 0x4B DUP4 PUSH2 0x1DE8 JUMP JUMPDEST SWAP2 POP PUSH2 0x1BC2 DUP3 PUSH2 0x21F9 JUMP JUMPDEST PUSH1 0x4B DUP3 ADD SWAP1 POP SWAP2 SWAP1 POP JUMP JUMPDEST PUSH1 0x0 PUSH2 0x1BDA PUSH1 0x11 DUP4 PUSH2 0x1DE8 JUMP JUMPDEST SWAP2 POP PUSH2 0x1BE5 DUP3 PUSH2 0x226E JUMP JUMPDEST PUSH1 0x11 DUP3 ADD SWAP1 POP SWAP2 SWAP1 POP JUMP JUMPDEST PUSH1 0x0 PUSH2 0x1BFD PUSH1 0x2F DUP4 PUSH2 0x1DD7 JUMP JUMPDEST SWAP2 POP PUSH2 0x1C08 DUP3 PUSH2 0x2297 JUMP JUMPDEST PUSH1 0x40 DUP3 ADD SWAP1 POP SWAP2 SWAP1 POP JUMP JUMPDEST PUSH2 0x1C1C DUP2 PUSH2 0x1F4B JUMP JUMPDEST DUP3 MSTORE POP POP JUMP JUMPDEST PUSH2 0x1C33 PUSH2 0x1C2E DUP3 PUSH2 0x1F4B JUMP JUMPDEST PUSH2 0x1FFB JUMP JUMPDEST DUP3 MSTORE POP POP JUMP JUMPDEST PUSH1 0x0 PUSH2 0x1C44 DUP3 PUSH2 0x1B87 JUMP JUMPDEST SWAP2 POP PUSH2 0x1C50 DUP3 DUP6 PUSH2 0x1AA7 JUMP JUMPDEST SWAP2 POP PUSH2 0x1C5B DUP3 PUSH2 0x1BCD JUMP JUMPDEST SWAP2 POP PUSH2 0x1C67 DUP3 DUP5 PUSH2 0x1AA7 JUMP JUMPDEST SWAP2 POP DUP2 SWAP1 POP SWAP4 SWAP3 POP POP POP JUMP JUMPDEST PUSH1 0x0 PUSH2 0x1C7E DUP3 PUSH2 0x1BAA JUMP JUMPDEST SWAP2 POP PUSH2 0x1C8A DUP3 DUP5 PUSH2 0x1C22 JUMP JUMPDEST PUSH1 0x20 DUP3 ADD SWAP2 POP DUP2 SWAP1 POP SWAP3 SWAP2 POP POP JUMP JUMPDEST PUSH1 0x0 PUSH1 0x20 DUP3 ADD SWAP1 POP PUSH2 0x1CAE PUSH1 0x0 DUP4 ADD DUP5 PUSH2 0x1A50 JUMP JUMPDEST SWAP3 SWAP2 POP POP JUMP JUMPDEST PUSH1 0x0 PUSH1 0x20 DUP3 ADD SWAP1 POP PUSH2 0x1CC9 PUSH1 0x0 DUP4 ADD DUP5 PUSH2 0x1A5F JUMP JUMPDEST SWAP3 SWAP2 POP POP JUMP JUMPDEST PUSH1 0x0 PUSH1 0x20 DUP3 ADD SWAP1 POP DUP2 DUP2 SUB PUSH1 0x0 DUP4 ADD MSTORE PUSH2 0x1CE9 DUP2 DUP5 PUSH2 0x1A6E JUMP JUMPDEST SWAP1 POP SWAP3 SWAP2 POP POP JUMP JUMPDEST PUSH1 0x0 PUSH1 0x20 DUP3 ADD SWAP1 POP DUP2 DUP2 SUB PUSH1 0x0 DUP4 ADD MSTORE PUSH2 0x1D0A DUP2 PUSH2 0x1AD8 JUMP JUMPDEST SWAP1 POP SWAP2 SWAP1 POP JUMP JUMPDEST PUSH1 0x0 PUSH1 0x20 DUP3 ADD SWAP1 POP DUP2 DUP2 SUB PUSH1 0x0 DUP4 ADD MSTORE PUSH2 0x1D2A DUP2 PUSH2 0x1AFB JUMP JUMPDEST SWAP1 POP SWAP2 SWAP1 POP JUMP JUMPDEST PUSH1 0x0 PUSH1 0x20 DUP3 ADD SWAP1 POP DUP2 DUP2 SUB PUSH1 0x0 DUP4 ADD MSTORE PUSH2 0x1D4A DUP2 PUSH2 0x1B1E JUMP JUMPDEST SWAP1 POP SWAP2 SWAP1 POP JUMP JUMPDEST PUSH1 0x0 PUSH1 0x20 DUP3 ADD SWAP1 POP DUP2 DUP2 SUB PUSH1 0x0 DUP4 ADD MSTORE PUSH2 0x1D6A DUP2 PUSH2 0x1B41 JUMP JUMPDEST SWAP1 POP SWAP2 SWAP1 POP JUMP JUMPDEST PUSH1 0x0 PUSH1 0x20 DUP3 ADD SWAP1 POP DUP2 DUP2 SUB PUSH1 0x0 DUP4 ADD MSTORE PUSH2 0x1D8A DUP2 PUSH2 0x1B64 JUMP JUMPDEST SWAP1 POP SWAP2 SWAP1 POP JUMP JUMPDEST PUSH1 0x0 PUSH1 0x20 DUP3 ADD SWAP1 POP DUP2 DUP2 SUB PUSH1 0x0 DUP4 ADD MSTORE PUSH2 0x1DAA DUP2 PUSH2 0x1BF0 JUMP JUMPDEST SWAP1 POP SWAP2 SWAP1 POP JUMP JUMPDEST PUSH1 0x0 PUSH1 0x20 DUP3 ADD SWAP1 POP PUSH2 0x1DC6 PUSH1 0x0 DUP4 ADD DUP5 PUSH2 0x1C13 JUMP JUMPDEST SWAP3 SWAP2 POP POP JUMP JUMPDEST PUSH1 0x0 DUP2 MLOAD SWAP1 POP SWAP2 SWAP1 POP JUMP JUMPDEST PUSH1 0x0 DUP3 DUP3 MSTORE PUSH1 0x20 DUP3 ADD SWAP1 POP SWAP3 SWAP2 POP POP JUMP JUMPDEST PUSH1 0x0 DUP2 SWAP1 POP SWAP3 SWAP2 POP POP JUMP JUMPDEST PUSH1 0x0 PUSH2 0x1DFE DUP3 PUSH2 0x1F4B JUMP JUMPDEST SWAP2 POP PUSH2 0x1E09 DUP4 PUSH2 0x1F4B JUMP JUMPDEST SWAP3 POP DUP3 PUSH32 0xFFFFFFFFFFFFFFFFFFFFFFFFFFFFFFFFFFFFFFFFFFFFFFFFFFFFFFFFFFFFFFFF SUB DUP3 GT ISZERO PUSH2 0x1E3E JUMPI PUSH2 0x1E3D PUSH2 0x2005 JUMP JUMPDEST JUMPDEST DUP3 DUP3 ADD SWAP1 POP SWAP3 SWAP2 POP POP JUMP JUMPDEST PUSH1 0x0 PUSH2 0x1E54 DUP3 PUSH2 0x1F4B JUMP JUMPDEST SWAP2 POP PUSH2 0x1E5F DUP4 PUSH2 0x1F4B JUMP JUMPDEST SWAP3 POP DUP2 PUSH32 0xFFFFFFFFFFFFFFFFFFFFFFFFFFFFFFFFFFFFFFFFFFFFFFFFFFFFFFFFFFFFFFFF DIV DUP4 GT DUP3 ISZERO ISZERO AND ISZERO PUSH2 0x1E98 JUMPI PUSH2 0x1E97 PUSH2 0x2005 JUMP JUMPDEST JUMPDEST DUP3 DUP3 MUL SWAP1 POP SWAP3 SWAP2 POP POP JUMP JUMPDEST PUSH1 0x0 PUSH2 0x1EAE DUP3 PUSH2 0x1F4B JUMP JUMPDEST SWAP2 POP PUSH2 0x1EB9 DUP4 PUSH2 0x1F4B JUMP JUMPDEST SWAP3 POP DUP3 DUP3 LT ISZERO PUSH2 0x1ECC JUMPI PUSH2 0x1ECB PUSH2 0x2005 JUMP JUMPDEST JUMPDEST DUP3 DUP3 SUB SWAP1 POP SWAP3 SWAP2 POP POP JUMP JUMPDEST PUSH1 0x0 PUSH2 0x1EE2 DUP3 PUSH2 0x1F2B JUMP JUMPDEST SWAP1 POP SWAP2 SWAP1 POP JUMP JUMPDEST PUSH1 0x0 DUP2 ISZERO ISZERO SWAP1 POP SWAP2 SWAP1 POP JUMP JUMPDEST PUSH1 0x0 DUP2 SWAP1 POP SWAP2 SWAP1 POP JUMP JUMPDEST PUSH1 0x0 PUSH32 0xFFFFFFFF00000000000000000000000000000000000000000000000000000000 DUP3 AND SWAP1 POP SWAP2 SWAP1 POP JUMP JUMPDEST PUSH1 0x0 PUSH20 0xFFFFFFFFFFFFFFFFFFFFFFFFFFFFFFFFFFFFFFFF DUP3 AND SWAP1 POP SWAP2 SWAP1 POP JUMP JUMPDEST PUSH1 0x0 DUP2 SWAP1 POP SWAP2 SWAP1 POP JUMP JUMPDEST PUSH1 0x0 JUMPDEST DUP4 DUP2 LT ISZERO PUSH2 0x1F73 JUMPI DUP1 DUP3 ADD MLOAD DUP2 DUP5 ADD MSTORE PUSH1 0x20 DUP2 ADD SWAP1 POP PUSH2 0x1F58 JUMP JUMPDEST DUP4 DUP2 GT ISZERO PUSH2 0x1F82 JUMPI PUSH1 0x0 DUP5 DUP5 ADD MSTORE JUMPDEST POP POP POP POP JUMP JUMPDEST PUSH1 0x0 PUSH2 0x1F93 DUP3 PUSH2 0x1F4B JUMP JUMPDEST SWAP2 POP PUSH1 0x0 DUP3 EQ ISZERO PUSH2 0x1FA7 JUMPI PUSH2 0x1FA6 PUSH2 0x2005 JUMP JUMPDEST JUMPDEST PUSH1 0x1 DUP3 SUB SWAP1 POP SWAP2 SWAP1 POP JUMP JUMPDEST PUSH1 0x0 PUSH2 0x1FBD DUP3 PUSH2 0x1F4B JUMP JUMPDEST SWAP2 POP PUSH32 0xFFFFFFFFFFFFFFFFFFFFFFFFFFFFFFFFFFFFFFFFFFFFFFFFFFFFFFFFFFFFFFFF DUP3 EQ ISZERO PUSH2 0x1FF0 JUMPI PUSH2 0x1FEF PUSH2 0x2005 JUMP JUMPDEST JUMPDEST PUSH1 0x1 DUP3 ADD SWAP1 POP SWAP2 SWAP1 POP JUMP JUMPDEST PUSH1 0x0 DUP2 SWAP1 POP SWAP2 SWAP1 POP JUMP JUMPDEST PUSH32 0x4E487B7100000000000000000000000000000000000000000000000000000000 PUSH1 0x0 MSTORE PUSH1 0x11 PUSH1 0x4 MSTORE PUSH1 0x24 PUSH1 0x0 REVERT JUMPDEST PUSH1 0x0 PUSH1 0x1F NOT PUSH1 0x1F DUP4 ADD AND SWAP1 POP SWAP2 SWAP1 POP JUMP JUMPDEST PUSH32 0x537472696E67733A20686578206C656E67746820696E73756666696369656E74 PUSH1 0x0 DUP3 ADD MSTORE POP JUMP JUMPDEST PUSH32 0x53656E646572206973206E6F742041646472657373204D616E61676572206F72 PUSH1 0x0 DUP3 ADD MSTORE PUSH32 0x2041646D696E0000000000000000000000000000000000000000000000000000 PUSH1 0x20 DUP3 ADD MSTORE POP JUMP JUMPDEST PUSH32 0x53656E646572206973206E6F7420436F75706F6E204D616E61676572206F7220 PUSH1 0x0 DUP3 ADD MSTORE PUSH32 0x41646D696E000000000000000000000000000000000000000000000000000000 PUSH1 0x20 DUP3 ADD MSTORE POP JUMP JUMPDEST PUSH32 0x53656E646572206973206E6F7420417070726F76656420526F6C653A20416464 PUSH1 0x0 DUP3 ADD MSTORE PUSH32 0x72657373204D616E616765722C20436F75706F6E204D616E616765722C20436F PUSH1 0x20 DUP3 ADD MSTORE PUSH32 0x75706F6E20557365722C206F722041646D696E00000000000000000000000000 PUSH1 0x40 DUP3 ADD MSTORE POP JUMP JUMPDEST PUSH32 0x53656E646572206973206E6F7420436F75706F6E204D616E616765722C20436F PUSH1 0x0 DUP3 ADD MSTORE PUSH32 0x75706F6E20557365722C206F722041646D696E00000000000000000000000000 PUSH1 0x20 DUP3 ADD MSTORE POP JUMP JUMPDEST PUSH32 0x416363657373436F6E74726F6C3A206163636F756E7420000000000000000000 PUSH1 0x0 DUP3 ADD MSTORE POP JUMP JUMPDEST PUSH32 0x43616E6E6F742072656475636520636F75706F6E2075736573206279206D6F72 PUSH1 0x0 DUP3 ADD MSTORE PUSH32 0x65207468616E20746865206E756D626572206F66207573657320666F72207468 PUSH1 0x20 DUP3 ADD MSTORE PUSH32 0x697320636F75706F6E3A20000000000000000000000000000000000000000000 PUSH1 0x40 DUP3 ADD MSTORE POP JUMP JUMPDEST PUSH32 0x206973206D697373696E6720726F6C6520000000000000000000000000000000 PUSH1 0x0 DUP3 ADD MSTORE POP JUMP JUMPDEST PUSH32 0x416363657373436F6E74726F6C3A2063616E206F6E6C792072656E6F756E6365 PUSH1 0x0 DUP3 ADD MSTORE PUSH32 0x20726F6C657320666F722073656C660000000000000000000000000000000000 PUSH1 0x20 DUP3 ADD MSTORE POP JUMP JUMPDEST PUSH2 0x22EF DUP2 PUSH2 0x1ED7 JUMP JUMPDEST DUP2 EQ PUSH2 0x22FA JUMPI PUSH1 0x0 DUP1 REVERT JUMPDEST POP JUMP JUMPDEST PUSH2 0x2306 DUP2 PUSH2 0x1EF5 JUMP JUMPDEST DUP2 EQ PUSH2 0x2311 JUMPI PUSH1 0x0 DUP1 REVERT JUMPDEST POP JUMP JUMPDEST PUSH2 0x231D DUP2 PUSH2 0x1EFF JUMP JUMPDEST DUP2 EQ PUSH2 0x2328 JUMPI PUSH1 0x0 DUP1 REVERT JUMPDEST POP JUMP JUMPDEST PUSH2 0x2334 DUP2 PUSH2 0x1F4B JUMP JUMPDEST DUP2 EQ PUSH2 0x233F JUMPI PUSH1 0x0 DUP1 REVERT JUMPDEST POP JUMP INVALID LOG2 PUSH5 0x6970667358 0x22 SLT KECCAK256 0x28 0xC7 SGT 0xBA PUSH6 0x91844D926714 SWAP4 PUSH24 0xFC8FA2F70A02D259A9D1E78E9797245B665C264736F6C63 NUMBER STOP ADDMOD ADD STOP CALLER "
				},
				"gasEstimates": {
					"creation": {
						"codeDepositCost": "1816000",
						"executionCost": "1912",
						"totalCost": "1817912"
					},
					"external": {
						"ADDRESS_MANAGER_ROLE()": "462",
						"COUPON_MANAGER_ROLE()": "418",
						"COUPON_USER_ROLE()": "419",
						"DEFAULT_ADMIN_ROLE()": "402",
						"addAddress(address)": "infinite",
						"addCoupon(address,uint256,uint256)": "infinite",
						"addressExists(address)": "1713",
						"addressHasCoupon(address)": "2624",
						"addressHasCoupon(address,uint256)": "infinite",
						"addressList()": "1187",
						"couponListLength(address)": "2503",
						"getRoleAdmin(bytes32)": "infinite",
						"grantRole(bytes32,address)": "infinite",
						"hasRole(bytes32,address)": "1885",
						"idOf(address)": "1635",
						"reduceCouponUses(address,uint256,uint256)": "infinite",
						"removeAddress(address)": "infinite",
						"removeCoupon(address,uint256)": "infinite",
						"renounceRole(bytes32,address)": "infinite",
						"revokeRole(bytes32,address)": "infinite",
						"supportsInterface(bytes4)": "751",
						"useCoupon(address,uint256)": "infinite"
					},
					"internal": {
						"_initList()": "infinite",
						"_reduceCouponUses(address,uint256,uint256)": "infinite"
					}
				},
				"methodIdentifiers": {
					"ADDRESS_MANAGER_ROLE()": "5c3ed7ec",
					"COUPON_MANAGER_ROLE()": "a41dd6e6",
					"COUPON_USER_ROLE()": "263d336c",
					"DEFAULT_ADMIN_ROLE()": "a217fddf",
					"addAddress(address)": "38eada1c",
					"addCoupon(address,uint256,uint256)": "3edfcd2c",
					"addressExists(address)": "a5025222",
					"addressHasCoupon(address)": "f76da2a8",
					"addressHasCoupon(address,uint256)": "2080179d",
					"addressList()": "c1eb6dfd",
					"couponListLength(address)": "838324d9",
					"getRoleAdmin(bytes32)": "248a9ca3",
					"grantRole(bytes32,address)": "2f2ff15d",
					"hasRole(bytes32,address)": "91d14854",
					"idOf(address)": "d94fe832",
					"reduceCouponUses(address,uint256,uint256)": "c18ab7a2",
					"removeAddress(address)": "4ba79dfe",
					"removeCoupon(address,uint256)": "e5bf7ffc",
					"renounceRole(bytes32,address)": "36568abe",
					"revokeRole(bytes32,address)": "d547741f",
					"supportsInterface(bytes4)": "01ffc9a7",
					"useCoupon(address,uint256)": "3c25c06b"
				}
			},
			"storageLayout": {
				"storage": [
					{
						"astId": 24,
						"contract": "contracts/Founding Citizens NFT Sale Privileged Buyers List Storage.sol:PrivilegedListStorage",
						"label": "_roles",
						"offset": 0,
						"slot": "0",
						"type": "t_mapping(t_bytes32,t_struct(RoleData)19_storage)"
					},
					{
						"astId": 697,
						"contract": "contracts/Founding Citizens NFT Sale Privileged Buyers List Storage.sol:PrivilegedListStorage",
						"label": "addressList",
						"offset": 0,
						"slot": "1",
						"type": "t_struct(AddressList)694_storage"
					}
				],
				"types": {
					"t_address": {
						"encoding": "inplace",
						"label": "address",
						"numberOfBytes": "20"
					},
					"t_bool": {
						"encoding": "inplace",
						"label": "bool",
						"numberOfBytes": "1"
					},
					"t_bytes32": {
						"encoding": "inplace",
						"label": "bytes32",
						"numberOfBytes": "32"
					},
					"t_mapping(t_address,t_bool)": {
						"encoding": "mapping",
						"key": "t_address",
						"label": "mapping(address => bool)",
						"numberOfBytes": "32",
						"value": "t_bool"
					},
					"t_mapping(t_address,t_uint256)": {
						"encoding": "mapping",
						"key": "t_address",
						"label": "mapping(address => uint256)",
						"numberOfBytes": "32",
						"value": "t_uint256"
					},
					"t_mapping(t_bytes32,t_struct(RoleData)19_storage)": {
						"encoding": "mapping",
						"key": "t_bytes32",
						"label": "mapping(bytes32 => struct AccessControl.RoleData)",
						"numberOfBytes": "32",
						"value": "t_struct(RoleData)19_storage"
					},
					"t_mapping(t_uint256,t_address)": {
						"encoding": "mapping",
						"key": "t_uint256",
						"label": "mapping(uint256 => address)",
						"numberOfBytes": "32",
						"value": "t_address"
					},
					"t_mapping(t_uint256,t_struct(Coupon)667_storage)": {
						"encoding": "mapping",
						"key": "t_uint256",
						"label": "mapping(uint256 => struct PrivilegedListStorage.Coupon)",
						"numberOfBytes": "32",
						"value": "t_struct(Coupon)667_storage"
					},
					"t_mapping(t_uint256,t_struct(CouponList)678_storage)": {
						"encoding": "mapping",
						"key": "t_uint256",
						"label": "mapping(uint256 => struct PrivilegedListStorage.CouponList)",
						"numberOfBytes": "32",
						"value": "t_struct(CouponList)678_storage"
					},
					"t_struct(AddressList)694_storage": {
						"encoding": "inplace",
						"label": "struct PrivilegedListStorage.AddressList",
						"members": [
							{
								"astId": 680,
								"contract": "contracts/Founding Citizens NFT Sale Privileged Buyers List Storage.sol:PrivilegedListStorage",
								"label": "length",
								"offset": 0,
								"slot": "0",
								"type": "t_uint256"
							},
							{
								"astId": 684,
								"contract": "contracts/Founding Citizens NFT Sale Privileged Buyers List Storage.sol:PrivilegedListStorage",
								"label": "addresses",
								"offset": 0,
								"slot": "1",
								"type": "t_mapping(t_uint256,t_address)"
							},
							{
								"astId": 688,
								"contract": "contracts/Founding Citizens NFT Sale Privileged Buyers List Storage.sol:PrivilegedListStorage",
								"label": "ids",
								"offset": 0,
								"slot": "2",
								"type": "t_mapping(t_address,t_uint256)"
							},
							{
								"astId": 693,
								"contract": "contracts/Founding Citizens NFT Sale Privileged Buyers List Storage.sol:PrivilegedListStorage",
								"label": "couponLists",
								"offset": 0,
								"slot": "3",
								"type": "t_mapping(t_uint256,t_struct(CouponList)678_storage)"
							}
						],
						"numberOfBytes": "128"
					},
					"t_struct(Coupon)667_storage": {
						"encoding": "inplace",
						"label": "struct PrivilegedListStorage.Coupon",
						"members": [
							{
								"astId": 664,
								"contract": "contracts/Founding Citizens NFT Sale Privileged Buyers List Storage.sol:PrivilegedListStorage",
								"label": "discountRate",
								"offset": 0,
								"slot": "0",
								"type": "t_uint256"
							},
							{
								"astId": 666,
								"contract": "contracts/Founding Citizens NFT Sale Privileged Buyers List Storage.sol:PrivilegedListStorage",
								"label": "numberOfUses",
								"offset": 0,
								"slot": "1",
								"type": "t_uint256"
							}
						],
						"numberOfBytes": "64"
					},
					"t_struct(CouponList)678_storage": {
						"encoding": "inplace",
						"label": "struct PrivilegedListStorage.CouponList",
						"members": [
							{
								"astId": 672,
								"contract": "contracts/Founding Citizens NFT Sale Privileged Buyers List Storage.sol:PrivilegedListStorage",
								"label": "length",
								"offset": 0,
								"slot": "0",
								"type": "t_uint256"
							},
							{
								"astId": 677,
								"contract": "contracts/Founding Citizens NFT Sale Privileged Buyers List Storage.sol:PrivilegedListStorage",
								"label": "coupons",
								"offset": 0,
								"slot": "1",
								"type": "t_mapping(t_uint256,t_struct(Coupon)667_storage)"
							}
						],
						"numberOfBytes": "64"
					},
					"t_struct(RoleData)19_storage": {
						"encoding": "inplace",
						"label": "struct AccessControl.RoleData",
						"members": [
							{
								"astId": 16,
								"contract": "contracts/Founding Citizens NFT Sale Privileged Buyers List Storage.sol:PrivilegedListStorage",
								"label": "members",
								"offset": 0,
								"slot": "0",
								"type": "t_mapping(t_address,t_bool)"
							},
							{
								"astId": 18,
								"contract": "contracts/Founding Citizens NFT Sale Privileged Buyers List Storage.sol:PrivilegedListStorage",
								"label": "adminRole",
								"offset": 0,
								"slot": "1",
								"type": "t_bytes32"
							}
						],
						"numberOfBytes": "64"
					},
					"t_uint256": {
						"encoding": "inplace",
						"label": "uint256",
						"numberOfBytes": "32"
					}
				}
			},
			"userdoc": {
				"kind": "user",
				"methods": {},
				"version": 1
			}
		}
	}
}