{
	"contracts/USDC Escrow Storage.sol": {
		"UsdcEscrowStorage": {
			"abi": [
				{
					"anonymous": false,
					"inputs": [
						{
							"indexed": true,
							"internalType": "address",
							"name": "previousOwner",
							"type": "address"
						},
						{
							"indexed": true,
							"internalType": "address",
							"name": "newOwner",
							"type": "address"
						}
					],
					"name": "OwnershipTransferred",
					"type": "event"
				},
				{
					"inputs": [
						{
							"internalType": "address",
							"name": "address_",
							"type": "address"
						},
						{
							"internalType": "uint256",
							"name": "amount",
							"type": "uint256"
						}
					],
					"name": "decreaseUsdcBalance",
					"outputs": [],
					"stateMutability": "nonpayable",
					"type": "function"
				},
				{
					"inputs": [
						{
							"internalType": "address",
							"name": "address_",
							"type": "address"
						}
					],
					"name": "getUsdcBalance",
					"outputs": [
						{
							"internalType": "uint256",
							"name": "",
							"type": "uint256"
						}
					],
					"stateMutability": "view",
					"type": "function"
				},
				{
					"inputs": [
						{
							"internalType": "address",
							"name": "address_",
							"type": "address"
						},
						{
							"internalType": "uint256",
							"name": "amount",
							"type": "uint256"
						}
					],
					"name": "increaseUsdcBalance",
					"outputs": [],
					"stateMutability": "nonpayable",
					"type": "function"
				},
				{
					"inputs": [],
					"name": "owner",
					"outputs": [
						{
							"internalType": "address",
							"name": "",
							"type": "address"
						}
					],
					"stateMutability": "view",
					"type": "function"
				},
				{
					"inputs": [
						{
							"internalType": "uint256",
							"name": "amount",
							"type": "uint256"
						}
					],
					"name": "receiveUSDC",
					"outputs": [],
					"stateMutability": "nonpayable",
					"type": "function"
				},
				{
					"inputs": [
						{
							"internalType": "address",
							"name": "to",
							"type": "address"
						},
						{
							"internalType": "uint256",
							"name": "amount",
							"type": "uint256"
						}
					],
					"name": "refundUsdcTo",
					"outputs": [],
					"stateMutability": "nonpayable",
					"type": "function"
				},
				{
					"inputs": [],
					"name": "renounceOwnership",
					"outputs": [],
					"stateMutability": "nonpayable",
					"type": "function"
				},
				{
					"inputs": [
						{
							"internalType": "address",
							"name": "newOwner",
							"type": "address"
						}
					],
					"name": "transferOwnership",
					"outputs": [],
					"stateMutability": "nonpayable",
					"type": "function"
				},
				{
					"inputs": [
						{
							"internalType": "address",
							"name": "from",
							"type": "address"
						},
						{
							"internalType": "address",
							"name": "to",
							"type": "address"
						},
						{
							"internalType": "uint256",
							"name": "amount",
							"type": "uint256"
						}
					],
					"name": "transferUsdcBalance",
					"outputs": [],
					"stateMutability": "nonpayable",
					"type": "function"
				},
				{
					"inputs": [
						{
							"internalType": "address",
							"name": "",
							"type": "address"
						}
					],
					"name": "usdcBalances",
					"outputs": [
						{
							"internalType": "uint256",
							"name": "",
							"type": "uint256"
						}
					],
					"stateMutability": "view",
					"type": "function"
				}
			],
			"devdoc": {
				"kind": "dev",
				"methods": {
					"owner()": {
						"details": "Returns the address of the current owner."
					},
					"renounceOwnership()": {
						"details": "Leaves the contract without owner. It will not be possible to call `onlyOwner` functions anymore. Can only be called by the current owner. NOTE: Renouncing ownership will leave the contract without an owner, thereby removing any functionality that is only available to the owner."
					},
					"transferOwnership(address)": {
						"details": "Transfers ownership of the contract to a new account (`newOwner`). Can only be called by the current owner."
					}
				},
				"version": 1
			},
			"evm": {
				"assembly": "    /* \"contracts/USDC Escrow Storage.sol\":1759:3650  contract UsdcEscrowStorage is Ownable {\r... */\n  mstore(0x40, 0x80)\n    /* \"contracts/USDC Escrow Storage.sol\":1852:1894  0xe11A86849d99F524cAC3E7A0Ec1241828e332C62 */\n  0xe11a86849d99f524cac3e7a0ec1241828e332c62\n    /* \"contracts/USDC Escrow Storage.sol\":1902:1945  IERC20 usdcToken = IERC20(usdcTokenAddress) */\n  0x01\n  exp(0x0100, 0x00)\n  dup2\n  sload\n  dup2\n  0xffffffffffffffffffffffffffffffffffffffff\n  mul\n  not\n  and\n  swap1\n  dup4\n  0xffffffffffffffffffffffffffffffffffffffff\n  and\n  mul\n  or\n  swap1\n  sstore\n  pop\n    /* \"contracts/USDC Escrow Storage.sol\":1759:3650  contract UsdcEscrowStorage is Ownable {\r... */\n  callvalue\n  dup1\n  iszero\n  tag_1\n  jumpi\n  0x00\n  dup1\n  revert\ntag_1:\n  pop\n    /* \"@openzeppelin/contracts@4.4.2/access/Ownable.sol\":921:953  _transferOwnership(_msgSender()) */\n  tag_4\n    /* \"@openzeppelin/contracts@4.4.2/access/Ownable.sol\":940:952  _msgSender() */\n  tag_5\n    /* \"@openzeppelin/contracts@4.4.2/access/Ownable.sol\":940:950  _msgSender */\n  shl(0x20, tag_6)\n    /* \"@openzeppelin/contracts@4.4.2/access/Ownable.sol\":940:952  _msgSender() */\n  0x20\n  shr\n  jump\t// in\ntag_5:\n    /* \"@openzeppelin/contracts@4.4.2/access/Ownable.sol\":921:939  _transferOwnership */\n  shl(0x20, tag_7)\n    /* \"@openzeppelin/contracts@4.4.2/access/Ownable.sol\":921:953  _transferOwnership(_msgSender()) */\n  0x20\n  shr\n  jump\t// in\ntag_4:\n    /* \"contracts/USDC Escrow Storage.sol\":1759:3650  contract UsdcEscrowStorage is Ownable {\r... */\n  jump(tag_8)\n    /* \"@openzeppelin/contracts@4.4.2/utils/Context.sol\":640:736  function _msgSender() internal view virtual returns (address) {... */\ntag_6:\n    /* \"@openzeppelin/contracts@4.4.2/utils/Context.sol\":693:700  address */\n  0x00\n    /* \"@openzeppelin/contracts@4.4.2/utils/Context.sol\":719:729  msg.sender */\n  caller\n    /* \"@openzeppelin/contracts@4.4.2/utils/Context.sol\":712:729  return msg.sender */\n  swap1\n  pop\n    /* \"@openzeppelin/contracts@4.4.2/utils/Context.sol\":640:736  function _msgSender() internal view virtual returns (address) {... */\n  swap1\n  jump\t// out\n    /* \"@openzeppelin/contracts@4.4.2/access/Ownable.sol\":2270:2457  function _transferOwnership(address newOwner) internal virtual {... */\ntag_7:\n    /* \"@openzeppelin/contracts@4.4.2/access/Ownable.sol\":2343:2359  address oldOwner */\n  0x00\n    /* \"@openzeppelin/contracts@4.4.2/access/Ownable.sol\":2362:2368  _owner */\n  dup1\n  0x00\n  swap1\n  sload\n  swap1\n  0x0100\n  exp\n  swap1\n  div\n  0xffffffffffffffffffffffffffffffffffffffff\n  and\n    /* \"@openzeppelin/contracts@4.4.2/access/Ownable.sol\":2343:2368  address oldOwner = _owner */\n  swap1\n  pop\n    /* \"@openzeppelin/contracts@4.4.2/access/Ownable.sol\":2387:2395  newOwner */\n  dup2\n    /* \"@openzeppelin/contracts@4.4.2/access/Ownable.sol\":2378:2384  _owner */\n  0x00\n  dup1\n    /* \"@openzeppelin/contracts@4.4.2/access/Ownable.sol\":2378:2395  _owner = newOwner */\n  0x0100\n  exp\n  dup2\n  sload\n  dup2\n  0xffffffffffffffffffffffffffffffffffffffff\n  mul\n  not\n  and\n  swap1\n  dup4\n  0xffffffffffffffffffffffffffffffffffffffff\n  and\n  mul\n  or\n  swap1\n  sstore\n  pop\n    /* \"@openzeppelin/contracts@4.4.2/access/Ownable.sol\":2441:2449  newOwner */\n  dup2\n    /* \"@openzeppelin/contracts@4.4.2/access/Ownable.sol\":2410:2450  OwnershipTransferred(oldOwner, newOwner) */\n  0xffffffffffffffffffffffffffffffffffffffff\n  and\n    /* \"@openzeppelin/contracts@4.4.2/access/Ownable.sol\":2431:2439  oldOwner */\n  dup2\n    /* \"@openzeppelin/contracts@4.4.2/access/Ownable.sol\":2410:2450  OwnershipTransferred(oldOwner, newOwner) */\n  0xffffffffffffffffffffffffffffffffffffffff\n  and\n  0x8be0079c531659141344cd1fd0a4f28419497f9722a3daafe3b4186f6b6457e0\n  mload(0x40)\n  mload(0x40)\n  dup1\n  swap2\n  sub\n  swap1\n  log3\n    /* \"@openzeppelin/contracts@4.4.2/access/Ownable.sol\":2270:2457  function _transferOwnership(address newOwner) internal virtual {... */\n  pop\n  pop\n  jump\t// out\n    /* \"contracts/USDC Escrow Storage.sol\":1759:3650  contract UsdcEscrowStorage is Ownable {\r... */\ntag_8:\n  dataSize(sub_0)\n  dup1\n  dataOffset(sub_0)\n  0x00\n  codecopy\n  0x00\n  return\nstop\n\nsub_0: assembly {\n        /* \"contracts/USDC Escrow Storage.sol\":1759:3650  contract UsdcEscrowStorage is Ownable {\r... */\n      mstore(0x40, 0x80)\n      callvalue\n      dup1\n      iszero\n      tag_1\n      jumpi\n      0x00\n      dup1\n      revert\n    tag_1:\n      pop\n      jumpi(tag_2, lt(calldatasize, 0x04))\n      shr(0xe0, calldataload(0x00))\n      dup1\n      0x8da5cb5b\n      gt\n      tag_13\n      jumpi\n      dup1\n      0x8da5cb5b\n      eq\n      tag_8\n      jumpi\n      dup1\n      0xa99c68c5\n      eq\n      tag_9\n      jumpi\n      dup1\n      0xbf006f0e\n      eq\n      tag_10\n      jumpi\n      dup1\n      0xddb4acd0\n      eq\n      tag_11\n      jumpi\n      dup1\n      0xf2fde38b\n      eq\n      tag_12\n      jumpi\n      jump(tag_2)\n    tag_13:\n      dup1\n      0x441b1a44\n      eq\n      tag_3\n      jumpi\n      dup1\n      0x45ad5350\n      eq\n      tag_4\n      jumpi\n      dup1\n      0x532b2913\n      eq\n      tag_5\n      jumpi\n      dup1\n      0x69b49adc\n      eq\n      tag_6\n      jumpi\n      dup1\n      0x715018a6\n      eq\n      tag_7\n      jumpi\n    tag_2:\n      0x00\n      dup1\n      revert\n        /* \"contracts/USDC Escrow Storage.sol\":2763:2942  function transferUsdcBalance(address from, address to, uint amount) public onlyOwner {\r... */\n    tag_3:\n      tag_14\n      0x04\n      dup1\n      calldatasize\n      sub\n      dup2\n      add\n      swap1\n      tag_15\n      swap2\n      swap1\n      tag_16\n      jump\t// in\n    tag_15:\n      tag_17\n      jump\t// in\n    tag_14:\n      stop\n        /* \"contracts/USDC Escrow Storage.sol\":2465:2629  function refundUsdcTo(address to, uint amount) public {\r... */\n    tag_4:\n      tag_18\n      0x04\n      dup1\n      calldatasize\n      sub\n      dup2\n      add\n      swap1\n      tag_19\n      swap2\n      swap1\n      tag_20\n      jump\t// in\n    tag_19:\n      tag_21\n      jump\t// in\n    tag_18:\n      stop\n        /* \"contracts/USDC Escrow Storage.sol\":3194:3645  function decreaseUsdcBalance(address address_, uint amount) public onlyOwner {\r... */\n    tag_5:\n      tag_22\n      0x04\n      dup1\n      calldatasize\n      sub\n      dup2\n      add\n      swap1\n      tag_23\n      swap2\n      swap1\n      tag_20\n      jump\t// in\n    tag_23:\n      tag_24\n      jump\t// in\n    tag_22:\n      stop\n        /* \"contracts/USDC Escrow Storage.sol\":2637:2755  function getUsdcBalance(address address_) external view returns(uint) {\r... */\n    tag_6:\n      tag_25\n      0x04\n      dup1\n      calldatasize\n      sub\n      dup2\n      add\n      swap1\n      tag_26\n      swap2\n      swap1\n      tag_27\n      jump\t// in\n    tag_26:\n      tag_28\n      jump\t// in\n    tag_25:\n      mload(0x40)\n      tag_29\n      swap2\n      swap1\n      tag_30\n      jump\t// in\n    tag_29:\n      mload(0x40)\n      dup1\n      swap2\n      sub\n      swap1\n      return\n        /* \"@openzeppelin/contracts@4.4.2/access/Ownable.sol\":1668:1769  function renounceOwnership() public virtual onlyOwner {... */\n    tag_7:\n      tag_31\n      tag_32\n      jump\t// in\n    tag_31:\n      stop\n        /* \"@openzeppelin/contracts@4.4.2/access/Ownable.sol\":1036:1121  function owner() public view virtual returns (address) {... */\n    tag_8:\n      tag_33\n      tag_34\n      jump\t// in\n    tag_33:\n      mload(0x40)\n      tag_35\n      swap2\n      swap1\n      tag_36\n      jump\t// in\n    tag_35:\n      mload(0x40)\n      dup1\n      swap2\n      sub\n      swap1\n      return\n        /* \"contracts/USDC Escrow Storage.sol\":1952:1997  mapping (address => uint) public usdcBalances */\n    tag_9:\n      tag_37\n      0x04\n      dup1\n      calldatasize\n      sub\n      dup2\n      add\n      swap1\n      tag_38\n      swap2\n      swap1\n      tag_27\n      jump\t// in\n    tag_38:\n      tag_39\n      jump\t// in\n    tag_37:\n      mload(0x40)\n      tag_40\n      swap2\n      swap1\n      tag_30\n      jump\t// in\n    tag_40:\n      mload(0x40)\n      dup1\n      swap2\n      sub\n      swap1\n      return\n        /* \"contracts/USDC Escrow Storage.sol\":2950:3186  function increaseUsdcBalance(address address_, uint amount) public onlyOwner {\r... */\n    tag_10:\n      tag_41\n      0x04\n      dup1\n      calldatasize\n      sub\n      dup2\n      add\n      swap1\n      tag_42\n      swap2\n      swap1\n      tag_20\n      jump\t// in\n    tag_42:\n      tag_43\n      jump\t// in\n    tag_41:\n      stop\n        /* \"contracts/USDC Escrow Storage.sol\":2077:2396  function receiveUSDC(uint amount) public {\r... */\n    tag_11:\n      tag_44\n      0x04\n      dup1\n      calldatasize\n      sub\n      dup2\n      add\n      swap1\n      tag_45\n      swap2\n      swap1\n      tag_46\n      jump\t// in\n    tag_45:\n      tag_47\n      jump\t// in\n    tag_44:\n      stop\n        /* \"@openzeppelin/contracts@4.4.2/access/Ownable.sol\":1918:2116  function transferOwnership(address newOwner) public virtual onlyOwner {... */\n    tag_12:\n      tag_48\n      0x04\n      dup1\n      calldatasize\n      sub\n      dup2\n      add\n      swap1\n      tag_49\n      swap2\n      swap1\n      tag_27\n      jump\t// in\n    tag_49:\n      tag_50\n      jump\t// in\n    tag_48:\n      stop\n        /* \"contracts/USDC Escrow Storage.sol\":2763:2942  function transferUsdcBalance(address from, address to, uint amount) public onlyOwner {\r... */\n    tag_17:\n        /* \"@openzeppelin/contracts@4.4.2/access/Ownable.sol\":1259:1271  _msgSender() */\n      tag_52\n        /* \"@openzeppelin/contracts@4.4.2/access/Ownable.sol\":1259:1269  _msgSender */\n      tag_53\n        /* \"@openzeppelin/contracts@4.4.2/access/Ownable.sol\":1259:1271  _msgSender() */\n      jump\t// in\n    tag_52:\n        /* \"@openzeppelin/contracts@4.4.2/access/Ownable.sol\":1248:1271  owner() == _msgSender() */\n      0xffffffffffffffffffffffffffffffffffffffff\n      and\n        /* \"@openzeppelin/contracts@4.4.2/access/Ownable.sol\":1248:1255  owner() */\n      tag_54\n        /* \"@openzeppelin/contracts@4.4.2/access/Ownable.sol\":1248:1253  owner */\n      tag_34\n        /* \"@openzeppelin/contracts@4.4.2/access/Ownable.sol\":1248:1255  owner() */\n      jump\t// in\n    tag_54:\n        /* \"@openzeppelin/contracts@4.4.2/access/Ownable.sol\":1248:1271  owner() == _msgSender() */\n      0xffffffffffffffffffffffffffffffffffffffff\n      and\n      eq\n        /* \"@openzeppelin/contracts@4.4.2/access/Ownable.sol\":1240:1308  require(owner() == _msgSender(), \"Ownable: caller is not the owner\") */\n      tag_55\n      jumpi\n      mload(0x40)\n      0x08c379a000000000000000000000000000000000000000000000000000000000\n      dup2\n      mstore\n      0x04\n      add\n      tag_56\n      swap1\n      tag_57\n      jump\t// in\n    tag_56:\n      mload(0x40)\n      dup1\n      swap2\n      sub\n      swap1\n      revert\n    tag_55:\n        /* \"contracts/USDC Escrow Storage.sol\":2859:2892  decreaseUsdcBalance(from, amount) */\n      tag_59\n        /* \"contracts/USDC Escrow Storage.sol\":2879:2883  from */\n      dup4\n        /* \"contracts/USDC Escrow Storage.sol\":2885:2891  amount */\n      dup3\n        /* \"contracts/USDC Escrow Storage.sol\":2859:2878  decreaseUsdcBalance */\n      tag_24\n        /* \"contracts/USDC Escrow Storage.sol\":2859:2892  decreaseUsdcBalance(from, amount) */\n      jump\t// in\n    tag_59:\n        /* \"contracts/USDC Escrow Storage.sol\":2903:2934  increaseUsdcBalance(to, amount) */\n      tag_60\n        /* \"contracts/USDC Escrow Storage.sol\":2923:2925  to */\n      dup3\n        /* \"contracts/USDC Escrow Storage.sol\":2927:2933  amount */\n      dup3\n        /* \"contracts/USDC Escrow Storage.sol\":2903:2922  increaseUsdcBalance */\n      tag_43\n        /* \"contracts/USDC Escrow Storage.sol\":2903:2934  increaseUsdcBalance(to, amount) */\n      jump\t// in\n    tag_60:\n        /* \"contracts/USDC Escrow Storage.sol\":2763:2942  function transferUsdcBalance(address from, address to, uint amount) public onlyOwner {\r... */\n      pop\n      pop\n      pop\n      jump\t// out\n        /* \"contracts/USDC Escrow Storage.sol\":2465:2629  function refundUsdcTo(address to, uint amount) public {\r... */\n    tag_21:\n        /* \"contracts/USDC Escrow Storage.sol\":2530:2561  decreaseUsdcBalance(to, amount) */\n      tag_62\n        /* \"contracts/USDC Escrow Storage.sol\":2550:2552  to */\n      dup3\n        /* \"contracts/USDC Escrow Storage.sol\":2554:2560  amount */\n      dup3\n        /* \"contracts/USDC Escrow Storage.sol\":2530:2549  decreaseUsdcBalance */\n      tag_24\n        /* \"contracts/USDC Escrow Storage.sol\":2530:2561  decreaseUsdcBalance(to, amount) */\n      jump\t// in\n    tag_62:\n        /* \"contracts/USDC Escrow Storage.sol\":2572:2581  usdcToken */\n      0x01\n      0x00\n      swap1\n      sload\n      swap1\n      0x0100\n      exp\n      swap1\n      div\n      0xffffffffffffffffffffffffffffffffffffffff\n      and\n        /* \"contracts/USDC Escrow Storage.sol\":2572:2594  usdcToken.transferFrom */\n      0xffffffffffffffffffffffffffffffffffffffff\n      and\n      0x23b872dd\n        /* \"contracts/USDC Escrow Storage.sol\":2603:2607  this */\n      address\n        /* \"contracts/USDC Escrow Storage.sol\":2610:2612  to */\n      dup5\n        /* \"contracts/USDC Escrow Storage.sol\":2614:2620  amount */\n      dup5\n        /* \"contracts/USDC Escrow Storage.sol\":2572:2621  usdcToken.transferFrom(address(this), to, amount) */\n      mload(0x40)\n      dup5\n      0xffffffff\n      and\n      0xe0\n      shl\n      dup2\n      mstore\n      0x04\n      add\n      tag_63\n      swap4\n      swap3\n      swap2\n      swap1\n      tag_64\n      jump\t// in\n    tag_63:\n      0x20\n      mload(0x40)\n      dup1\n      dup4\n      sub\n      dup2\n      0x00\n      dup8\n      dup1\n      extcodesize\n      iszero\n      dup1\n      iszero\n      tag_65\n      jumpi\n      0x00\n      dup1\n      revert\n    tag_65:\n      pop\n      gas\n      call\n      iszero\n      dup1\n      iszero\n      tag_67\n      jumpi\n      returndatasize\n      0x00\n      dup1\n      returndatacopy\n      revert(0x00, returndatasize)\n    tag_67:\n      pop\n      pop\n      pop\n      pop\n      mload(0x40)\n      returndatasize\n      not(0x1f)\n      0x1f\n      dup3\n      add\n      and\n      dup3\n      add\n      dup1\n      0x40\n      mstore\n      pop\n      dup2\n      add\n      swap1\n      tag_68\n      swap2\n      swap1\n      tag_69\n      jump\t// in\n    tag_68:\n      pop\n        /* \"contracts/USDC Escrow Storage.sol\":2465:2629  function refundUsdcTo(address to, uint amount) public {\r... */\n      pop\n      pop\n      jump\t// out\n        /* \"contracts/USDC Escrow Storage.sol\":3194:3645  function decreaseUsdcBalance(address address_, uint amount) public onlyOwner {\r... */\n    tag_24:\n        /* \"@openzeppelin/contracts@4.4.2/access/Ownable.sol\":1259:1271  _msgSender() */\n      tag_71\n        /* \"@openzeppelin/contracts@4.4.2/access/Ownable.sol\":1259:1269  _msgSender */\n      tag_53\n        /* \"@openzeppelin/contracts@4.4.2/access/Ownable.sol\":1259:1271  _msgSender() */\n      jump\t// in\n    tag_71:\n        /* \"@openzeppelin/contracts@4.4.2/access/Ownable.sol\":1248:1271  owner() == _msgSender() */\n      0xffffffffffffffffffffffffffffffffffffffff\n      and\n        /* \"@openzeppelin/contracts@4.4.2/access/Ownable.sol\":1248:1255  owner() */\n      tag_72\n        /* \"@openzeppelin/contracts@4.4.2/access/Ownable.sol\":1248:1253  owner */\n      tag_34\n        /* \"@openzeppelin/contracts@4.4.2/access/Ownable.sol\":1248:1255  owner() */\n      jump\t// in\n    tag_72:\n        /* \"@openzeppelin/contracts@4.4.2/access/Ownable.sol\":1248:1271  owner() == _msgSender() */\n      0xffffffffffffffffffffffffffffffffffffffff\n      and\n      eq\n        /* \"@openzeppelin/contracts@4.4.2/access/Ownable.sol\":1240:1308  require(owner() == _msgSender(), \"Ownable: caller is not the owner\") */\n      tag_73\n      jumpi\n      mload(0x40)\n      0x08c379a000000000000000000000000000000000000000000000000000000000\n      dup2\n      mstore\n      0x04\n      add\n      tag_74\n      swap1\n      tag_57\n      jump\t// in\n    tag_74:\n      mload(0x40)\n      dup1\n      swap2\n      sub\n      swap1\n      revert\n    tag_73:\n        /* \"contracts/USDC Escrow Storage.sol\":3299:3300  0 */\n      0x00\n        /* \"contracts/USDC Escrow Storage.sol\":3290:3296  amount */\n      dup2\n        /* \"contracts/USDC Escrow Storage.sol\":3290:3300  amount > 0 */\n      gt\n        /* \"contracts/USDC Escrow Storage.sol\":3282:3379  require(amount > 0, \"must update the USDC balance with a (positive or negative) non-zero amount\") */\n      tag_76\n      jumpi\n      mload(0x40)\n      0x08c379a000000000000000000000000000000000000000000000000000000000\n      dup2\n      mstore\n      0x04\n      add\n      tag_77\n      swap1\n      tag_78\n      jump\t// in\n    tag_77:\n      mload(0x40)\n      dup1\n      swap2\n      sub\n      swap1\n      revert\n    tag_76:\n        /* \"contracts/USDC Escrow Storage.sol\":3408:3420  usdcBalances */\n      0x02\n        /* \"contracts/USDC Escrow Storage.sol\":3408:3430  usdcBalances[address_] */\n      0x00\n        /* \"contracts/USDC Escrow Storage.sol\":3421:3429  address_ */\n      dup4\n        /* \"contracts/USDC Escrow Storage.sol\":3408:3430  usdcBalances[address_] */\n      0xffffffffffffffffffffffffffffffffffffffff\n      and\n      0xffffffffffffffffffffffffffffffffffffffff\n      and\n      dup2\n      mstore\n      0x20\n      add\n      swap1\n      dup2\n      mstore\n      0x20\n      add\n      0x00\n      keccak256\n      sload\n        /* \"contracts/USDC Escrow Storage.sol\":3398:3404  amount */\n      dup2\n        /* \"contracts/USDC Escrow Storage.sol\":3398:3430  amount <= usdcBalances[address_] */\n      gt\n      iszero\n        /* \"contracts/USDC Escrow Storage.sol\":3506:3514  address_ */\n      dup3\n        /* \"contracts/USDC Escrow Storage.sol\":3569:3581  usdcBalances */\n      0x02\n        /* \"contracts/USDC Escrow Storage.sol\":3569:3591  usdcBalances[address_] */\n      0x00\n        /* \"contracts/USDC Escrow Storage.sol\":3582:3590  address_ */\n      dup6\n        /* \"contracts/USDC Escrow Storage.sol\":3569:3591  usdcBalances[address_] */\n      0xffffffffffffffffffffffffffffffffffffffff\n      and\n      0xffffffffffffffffffffffffffffffffffffffff\n      and\n      dup2\n      mstore\n      0x20\n      add\n      swap1\n      dup2\n      mstore\n      0x20\n      add\n      0x00\n      keccak256\n      sload\n        /* \"contracts/USDC Escrow Storage.sol\":3439:3592  abi.encodePacked(\r... */\n      add(0x20, mload(0x40))\n      tag_79\n      swap3\n      swap2\n      swap1\n      tag_80\n      jump\t// in\n    tag_79:\n      mload(0x40)\n      0x20\n      dup2\n      dup4\n      sub\n      sub\n      dup2\n      mstore\n      swap1\n      0x40\n      mstore\n        /* \"contracts/USDC Escrow Storage.sol\":3390:3594  require(amount <= usdcBalances[address_], string(abi.encodePacked(\r... */\n      swap1\n      tag_81\n      jumpi\n      mload(0x40)\n      0x08c379a000000000000000000000000000000000000000000000000000000000\n      dup2\n      mstore\n      0x04\n      add\n      tag_82\n      swap2\n      swap1\n      tag_83\n      jump\t// in\n    tag_82:\n      mload(0x40)\n      dup1\n      swap2\n      sub\n      swap1\n      revert\n    tag_81:\n      pop\n        /* \"contracts/USDC Escrow Storage.sol\":3631:3637  amount */\n      dup1\n        /* \"contracts/USDC Escrow Storage.sol\":3605:3617  usdcBalances */\n      0x02\n        /* \"contracts/USDC Escrow Storage.sol\":3605:3627  usdcBalances[address_] */\n      0x00\n        /* \"contracts/USDC Escrow Storage.sol\":3618:3626  address_ */\n      dup5\n        /* \"contracts/USDC Escrow Storage.sol\":3605:3627  usdcBalances[address_] */\n      0xffffffffffffffffffffffffffffffffffffffff\n      and\n      0xffffffffffffffffffffffffffffffffffffffff\n      and\n      dup2\n      mstore\n      0x20\n      add\n      swap1\n      dup2\n      mstore\n      0x20\n      add\n      0x00\n      keccak256\n      0x00\n        /* \"contracts/USDC Escrow Storage.sol\":3605:3637  usdcBalances[address_] -= amount */\n      dup3\n      dup3\n      sload\n      tag_84\n      swap2\n      swap1\n      tag_85\n      jump\t// in\n    tag_84:\n      swap3\n      pop\n      pop\n      dup2\n      swap1\n      sstore\n      pop\n        /* \"contracts/USDC Escrow Storage.sol\":3194:3645  function decreaseUsdcBalance(address address_, uint amount) public onlyOwner {\r... */\n      pop\n      pop\n      jump\t// out\n        /* \"contracts/USDC Escrow Storage.sol\":2637:2755  function getUsdcBalance(address address_) external view returns(uint) {\r... */\n    tag_28:\n        /* \"contracts/USDC Escrow Storage.sol\":2701:2705  uint */\n      0x00\n        /* \"contracts/USDC Escrow Storage.sol\":2725:2737  usdcBalances */\n      0x02\n        /* \"contracts/USDC Escrow Storage.sol\":2725:2747  usdcBalances[address_] */\n      0x00\n        /* \"contracts/USDC Escrow Storage.sol\":2738:2746  address_ */\n      dup4\n        /* \"contracts/USDC Escrow Storage.sol\":2725:2747  usdcBalances[address_] */\n      0xffffffffffffffffffffffffffffffffffffffff\n      and\n      0xffffffffffffffffffffffffffffffffffffffff\n      and\n      dup2\n      mstore\n      0x20\n      add\n      swap1\n      dup2\n      mstore\n      0x20\n      add\n      0x00\n      keccak256\n      sload\n        /* \"contracts/USDC Escrow Storage.sol\":2718:2747  return usdcBalances[address_] */\n      swap1\n      pop\n        /* \"contracts/USDC Escrow Storage.sol\":2637:2755  function getUsdcBalance(address address_) external view returns(uint) {\r... */\n      swap2\n      swap1\n      pop\n      jump\t// out\n        /* \"@openzeppelin/contracts@4.4.2/access/Ownable.sol\":1668:1769  function renounceOwnership() public virtual onlyOwner {... */\n    tag_32:\n        /* \"@openzeppelin/contracts@4.4.2/access/Ownable.sol\":1259:1271  _msgSender() */\n      tag_88\n        /* \"@openzeppelin/contracts@4.4.2/access/Ownable.sol\":1259:1269  _msgSender */\n      tag_53\n        /* \"@openzeppelin/contracts@4.4.2/access/Ownable.sol\":1259:1271  _msgSender() */\n      jump\t// in\n    tag_88:\n        /* \"@openzeppelin/contracts@4.4.2/access/Ownable.sol\":1248:1271  owner() == _msgSender() */\n      0xffffffffffffffffffffffffffffffffffffffff\n      and\n        /* \"@openzeppelin/contracts@4.4.2/access/Ownable.sol\":1248:1255  owner() */\n      tag_89\n        /* \"@openzeppelin/contracts@4.4.2/access/Ownable.sol\":1248:1253  owner */\n      tag_34\n        /* \"@openzeppelin/contracts@4.4.2/access/Ownable.sol\":1248:1255  owner() */\n      jump\t// in\n    tag_89:\n        /* \"@openzeppelin/contracts@4.4.2/access/Ownable.sol\":1248:1271  owner() == _msgSender() */\n      0xffffffffffffffffffffffffffffffffffffffff\n      and\n      eq\n        /* \"@openzeppelin/contracts@4.4.2/access/Ownable.sol\":1240:1308  require(owner() == _msgSender(), \"Ownable: caller is not the owner\") */\n      tag_90\n      jumpi\n      mload(0x40)\n      0x08c379a000000000000000000000000000000000000000000000000000000000\n      dup2\n      mstore\n      0x04\n      add\n      tag_91\n      swap1\n      tag_57\n      jump\t// in\n    tag_91:\n      mload(0x40)\n      dup1\n      swap2\n      sub\n      swap1\n      revert\n    tag_90:\n        /* \"@openzeppelin/contracts@4.4.2/access/Ownable.sol\":1732:1762  _transferOwnership(address(0)) */\n      tag_93\n        /* \"@openzeppelin/contracts@4.4.2/access/Ownable.sol\":1759:1760  0 */\n      0x00\n        /* \"@openzeppelin/contracts@4.4.2/access/Ownable.sol\":1732:1750  _transferOwnership */\n      tag_94\n        /* \"@openzeppelin/contracts@4.4.2/access/Ownable.sol\":1732:1762  _transferOwnership(address(0)) */\n      jump\t// in\n    tag_93:\n        /* \"@openzeppelin/contracts@4.4.2/access/Ownable.sol\":1668:1769  function renounceOwnership() public virtual onlyOwner {... */\n      jump\t// out\n        /* \"@openzeppelin/contracts@4.4.2/access/Ownable.sol\":1036:1121  function owner() public view virtual returns (address) {... */\n    tag_34:\n        /* \"@openzeppelin/contracts@4.4.2/access/Ownable.sol\":1082:1089  address */\n      0x00\n        /* \"@openzeppelin/contracts@4.4.2/access/Ownable.sol\":1108:1114  _owner */\n      dup1\n      0x00\n      swap1\n      sload\n      swap1\n      0x0100\n      exp\n      swap1\n      div\n      0xffffffffffffffffffffffffffffffffffffffff\n      and\n        /* \"@openzeppelin/contracts@4.4.2/access/Ownable.sol\":1101:1114  return _owner */\n      swap1\n      pop\n        /* \"@openzeppelin/contracts@4.4.2/access/Ownable.sol\":1036:1121  function owner() public view virtual returns (address) {... */\n      swap1\n      jump\t// out\n        /* \"contracts/USDC Escrow Storage.sol\":1952:1997  mapping (address => uint) public usdcBalances */\n    tag_39:\n      mstore(0x20, 0x02)\n      dup1\n      0x00\n      mstore\n      keccak256(0x00, 0x40)\n      0x00\n      swap2\n      pop\n      swap1\n      pop\n      sload\n      dup2\n      jump\t// out\n        /* \"contracts/USDC Escrow Storage.sol\":2950:3186  function increaseUsdcBalance(address address_, uint amount) public onlyOwner {\r... */\n    tag_43:\n        /* \"@openzeppelin/contracts@4.4.2/access/Ownable.sol\":1259:1271  _msgSender() */\n      tag_97\n        /* \"@openzeppelin/contracts@4.4.2/access/Ownable.sol\":1259:1269  _msgSender */\n      tag_53\n        /* \"@openzeppelin/contracts@4.4.2/access/Ownable.sol\":1259:1271  _msgSender() */\n      jump\t// in\n    tag_97:\n        /* \"@openzeppelin/contracts@4.4.2/access/Ownable.sol\":1248:1271  owner() == _msgSender() */\n      0xffffffffffffffffffffffffffffffffffffffff\n      and\n        /* \"@openzeppelin/contracts@4.4.2/access/Ownable.sol\":1248:1255  owner() */\n      tag_98\n        /* \"@openzeppelin/contracts@4.4.2/access/Ownable.sol\":1248:1253  owner */\n      tag_34\n        /* \"@openzeppelin/contracts@4.4.2/access/Ownable.sol\":1248:1255  owner() */\n      jump\t// in\n    tag_98:\n        /* \"@openzeppelin/contracts@4.4.2/access/Ownable.sol\":1248:1271  owner() == _msgSender() */\n      0xffffffffffffffffffffffffffffffffffffffff\n      and\n      eq\n        /* \"@openzeppelin/contracts@4.4.2/access/Ownable.sol\":1240:1308  require(owner() == _msgSender(), \"Ownable: caller is not the owner\") */\n      tag_99\n      jumpi\n      mload(0x40)\n      0x08c379a000000000000000000000000000000000000000000000000000000000\n      dup2\n      mstore\n      0x04\n      add\n      tag_100\n      swap1\n      tag_57\n      jump\t// in\n    tag_100:\n      mload(0x40)\n      dup1\n      swap2\n      sub\n      swap1\n      revert\n    tag_99:\n        /* \"contracts/USDC Escrow Storage.sol\":3055:3056  0 */\n      0x00\n        /* \"contracts/USDC Escrow Storage.sol\":3046:3052  amount */\n      dup2\n        /* \"contracts/USDC Escrow Storage.sol\":3046:3056  amount > 0 */\n      gt\n        /* \"contracts/USDC Escrow Storage.sol\":3038:3135  require(amount > 0, \"must update the USDC balance with a (positive or negative) non-zero amount\") */\n      tag_102\n      jumpi\n      mload(0x40)\n      0x08c379a000000000000000000000000000000000000000000000000000000000\n      dup2\n      mstore\n      0x04\n      add\n      tag_103\n      swap1\n      tag_78\n      jump\t// in\n    tag_103:\n      mload(0x40)\n      dup1\n      swap2\n      sub\n      swap1\n      revert\n    tag_102:\n        /* \"contracts/USDC Escrow Storage.sol\":3172:3178  amount */\n      dup1\n        /* \"contracts/USDC Escrow Storage.sol\":3146:3158  usdcBalances */\n      0x02\n        /* \"contracts/USDC Escrow Storage.sol\":3146:3168  usdcBalances[address_] */\n      0x00\n        /* \"contracts/USDC Escrow Storage.sol\":3159:3167  address_ */\n      dup5\n        /* \"contracts/USDC Escrow Storage.sol\":3146:3168  usdcBalances[address_] */\n      0xffffffffffffffffffffffffffffffffffffffff\n      and\n      0xffffffffffffffffffffffffffffffffffffffff\n      and\n      dup2\n      mstore\n      0x20\n      add\n      swap1\n      dup2\n      mstore\n      0x20\n      add\n      0x00\n      keccak256\n      0x00\n        /* \"contracts/USDC Escrow Storage.sol\":3146:3178  usdcBalances[address_] += amount */\n      dup3\n      dup3\n      sload\n      tag_104\n      swap2\n      swap1\n      tag_105\n      jump\t// in\n    tag_104:\n      swap3\n      pop\n      pop\n      dup2\n      swap1\n      sstore\n      pop\n        /* \"contracts/USDC Escrow Storage.sol\":2950:3186  function increaseUsdcBalance(address address_, uint amount) public onlyOwner {\r... */\n      pop\n      pop\n      jump\t// out\n        /* \"contracts/USDC Escrow Storage.sol\":2077:2396  function receiveUSDC(uint amount) public {\r... */\n    tag_47:\n        /* \"contracts/USDC Escrow Storage.sol\":2146:2147  0 */\n      0x00\n        /* \"contracts/USDC Escrow Storage.sol\":2137:2143  amount */\n      dup2\n        /* \"contracts/USDC Escrow Storage.sol\":2137:2147  amount > 0 */\n      gt\n        /* \"contracts/USDC Escrow Storage.sol\":2129:2195  require(amount > 0, \"amount transferred must be a positive value\") */\n      tag_107\n      jumpi\n      mload(0x40)\n      0x08c379a000000000000000000000000000000000000000000000000000000000\n      dup2\n      mstore\n      0x04\n      add\n      tag_108\n      swap1\n      tag_109\n      jump\t// in\n    tag_108:\n      mload(0x40)\n      dup1\n      swap2\n      sub\n      swap1\n      revert\n    tag_107:\n        /* \"contracts/USDC Escrow Storage.sol\":2286:2295  usdcToken */\n      0x01\n      0x00\n      swap1\n      sload\n      swap1\n      0x0100\n      exp\n      swap1\n      div\n      0xffffffffffffffffffffffffffffffffffffffff\n      and\n        /* \"contracts/USDC Escrow Storage.sol\":2286:2308  usdcToken.transferFrom */\n      0xffffffffffffffffffffffffffffffffffffffff\n      and\n      0x23b872dd\n        /* \"contracts/USDC Escrow Storage.sol\":2309:2319  msg.sender */\n      caller\n        /* \"contracts/USDC Escrow Storage.sol\":2329:2333  this */\n      address\n        /* \"contracts/USDC Escrow Storage.sol\":2336:2342  amount */\n      dup5\n        /* \"contracts/USDC Escrow Storage.sol\":2286:2343  usdcToken.transferFrom(msg.sender, address(this), amount) */\n      mload(0x40)\n      dup5\n      0xffffffff\n      and\n      0xe0\n      shl\n      dup2\n      mstore\n      0x04\n      add\n      tag_110\n      swap4\n      swap3\n      swap2\n      swap1\n      tag_64\n      jump\t// in\n    tag_110:\n      0x20\n      mload(0x40)\n      dup1\n      dup4\n      sub\n      dup2\n      0x00\n      dup8\n      dup1\n      extcodesize\n      iszero\n      dup1\n      iszero\n      tag_111\n      jumpi\n      0x00\n      dup1\n      revert\n    tag_111:\n      pop\n      gas\n      call\n      iszero\n      dup1\n      iszero\n      tag_113\n      jumpi\n      returndatasize\n      0x00\n      dup1\n      returndatacopy\n      revert(0x00, returndatasize)\n    tag_113:\n      pop\n      pop\n      pop\n      pop\n      mload(0x40)\n      returndatasize\n      not(0x1f)\n      0x1f\n      dup3\n      add\n      and\n      dup3\n      add\n      dup1\n      0x40\n      mstore\n      pop\n      dup2\n      add\n      swap1\n      tag_114\n      swap2\n      swap1\n      tag_69\n      jump\t// in\n    tag_114:\n      pop\n        /* \"contracts/USDC Escrow Storage.sol\":2382:2388  amount */\n      dup1\n        /* \"contracts/USDC Escrow Storage.sol\":2354:2366  usdcBalances */\n      0x02\n        /* \"contracts/USDC Escrow Storage.sol\":2354:2378  usdcBalances[msg.sender] */\n      0x00\n        /* \"contracts/USDC Escrow Storage.sol\":2367:2377  msg.sender */\n      caller\n        /* \"contracts/USDC Escrow Storage.sol\":2354:2378  usdcBalances[msg.sender] */\n      0xffffffffffffffffffffffffffffffffffffffff\n      and\n      0xffffffffffffffffffffffffffffffffffffffff\n      and\n      dup2\n      mstore\n      0x20\n      add\n      swap1\n      dup2\n      mstore\n      0x20\n      add\n      0x00\n      keccak256\n      0x00\n        /* \"contracts/USDC Escrow Storage.sol\":2354:2388  usdcBalances[msg.sender] += amount */\n      dup3\n      dup3\n      sload\n      tag_115\n      swap2\n      swap1\n      tag_105\n      jump\t// in\n    tag_115:\n      swap3\n      pop\n      pop\n      dup2\n      swap1\n      sstore\n      pop\n        /* \"contracts/USDC Escrow Storage.sol\":2077:2396  function receiveUSDC(uint amount) public {\r... */\n      pop\n      jump\t// out\n        /* \"@openzeppelin/contracts@4.4.2/access/Ownable.sol\":1918:2116  function transferOwnership(address newOwner) public virtual onlyOwner {... */\n    tag_50:\n        /* \"@openzeppelin/contracts@4.4.2/access/Ownable.sol\":1259:1271  _msgSender() */\n      tag_117\n        /* \"@openzeppelin/contracts@4.4.2/access/Ownable.sol\":1259:1269  _msgSender */\n      tag_53\n        /* \"@openzeppelin/contracts@4.4.2/access/Ownable.sol\":1259:1271  _msgSender() */\n      jump\t// in\n    tag_117:\n        /* \"@openzeppelin/contracts@4.4.2/access/Ownable.sol\":1248:1271  owner() == _msgSender() */\n      0xffffffffffffffffffffffffffffffffffffffff\n      and\n        /* \"@openzeppelin/contracts@4.4.2/access/Ownable.sol\":1248:1255  owner() */\n      tag_118\n        /* \"@openzeppelin/contracts@4.4.2/access/Ownable.sol\":1248:1253  owner */\n      tag_34\n        /* \"@openzeppelin/contracts@4.4.2/access/Ownable.sol\":1248:1255  owner() */\n      jump\t// in\n    tag_118:\n        /* \"@openzeppelin/contracts@4.4.2/access/Ownable.sol\":1248:1271  owner() == _msgSender() */\n      0xffffffffffffffffffffffffffffffffffffffff\n      and\n      eq\n        /* \"@openzeppelin/contracts@4.4.2/access/Ownable.sol\":1240:1308  require(owner() == _msgSender(), \"Ownable: caller is not the owner\") */\n      tag_119\n      jumpi\n      mload(0x40)\n      0x08c379a000000000000000000000000000000000000000000000000000000000\n      dup2\n      mstore\n      0x04\n      add\n      tag_120\n      swap1\n      tag_57\n      jump\t// in\n    tag_120:\n      mload(0x40)\n      dup1\n      swap2\n      sub\n      swap1\n      revert\n    tag_119:\n        /* \"@openzeppelin/contracts@4.4.2/access/Ownable.sol\":2026:2027  0 */\n      0x00\n        /* \"@openzeppelin/contracts@4.4.2/access/Ownable.sol\":2006:2028  newOwner != address(0) */\n      0xffffffffffffffffffffffffffffffffffffffff\n      and\n        /* \"@openzeppelin/contracts@4.4.2/access/Ownable.sol\":2006:2014  newOwner */\n      dup2\n        /* \"@openzeppelin/contracts@4.4.2/access/Ownable.sol\":2006:2028  newOwner != address(0) */\n      0xffffffffffffffffffffffffffffffffffffffff\n      and\n      eq\n      iszero\n        /* \"@openzeppelin/contracts@4.4.2/access/Ownable.sol\":1998:2071  require(newOwner != address(0), \"Ownable: new owner is the zero address\") */\n      tag_122\n      jumpi\n      mload(0x40)\n      0x08c379a000000000000000000000000000000000000000000000000000000000\n      dup2\n      mstore\n      0x04\n      add\n      tag_123\n      swap1\n      tag_124\n      jump\t// in\n    tag_123:\n      mload(0x40)\n      dup1\n      swap2\n      sub\n      swap1\n      revert\n    tag_122:\n        /* \"@openzeppelin/contracts@4.4.2/access/Ownable.sol\":2081:2109  _transferOwnership(newOwner) */\n      tag_125\n        /* \"@openzeppelin/contracts@4.4.2/access/Ownable.sol\":2100:2108  newOwner */\n      dup2\n        /* \"@openzeppelin/contracts@4.4.2/access/Ownable.sol\":2081:2099  _transferOwnership */\n      tag_94\n        /* \"@openzeppelin/contracts@4.4.2/access/Ownable.sol\":2081:2109  _transferOwnership(newOwner) */\n      jump\t// in\n    tag_125:\n        /* \"@openzeppelin/contracts@4.4.2/access/Ownable.sol\":1918:2116  function transferOwnership(address newOwner) public virtual onlyOwner {... */\n      pop\n      jump\t// out\n        /* \"@openzeppelin/contracts@4.4.2/utils/Context.sol\":640:736  function _msgSender() internal view virtual returns (address) {... */\n    tag_53:\n        /* \"@openzeppelin/contracts@4.4.2/utils/Context.sol\":693:700  address */\n      0x00\n        /* \"@openzeppelin/contracts@4.4.2/utils/Context.sol\":719:729  msg.sender */\n      caller\n        /* \"@openzeppelin/contracts@4.4.2/utils/Context.sol\":712:729  return msg.sender */\n      swap1\n      pop\n        /* \"@openzeppelin/contracts@4.4.2/utils/Context.sol\":640:736  function _msgSender() internal view virtual returns (address) {... */\n      swap1\n      jump\t// out\n        /* \"@openzeppelin/contracts@4.4.2/access/Ownable.sol\":2270:2457  function _transferOwnership(address newOwner) internal virtual {... */\n    tag_94:\n        /* \"@openzeppelin/contracts@4.4.2/access/Ownable.sol\":2343:2359  address oldOwner */\n      0x00\n        /* \"@openzeppelin/contracts@4.4.2/access/Ownable.sol\":2362:2368  _owner */\n      dup1\n      0x00\n      swap1\n      sload\n      swap1\n      0x0100\n      exp\n      swap1\n      div\n      0xffffffffffffffffffffffffffffffffffffffff\n      and\n        /* \"@openzeppelin/contracts@4.4.2/access/Ownable.sol\":2343:2368  address oldOwner = _owner */\n      swap1\n      pop\n        /* \"@openzeppelin/contracts@4.4.2/access/Ownable.sol\":2387:2395  newOwner */\n      dup2\n        /* \"@openzeppelin/contracts@4.4.2/access/Ownable.sol\":2378:2384  _owner */\n      0x00\n      dup1\n        /* \"@openzeppelin/contracts@4.4.2/access/Ownable.sol\":2378:2395  _owner = newOwner */\n      0x0100\n      exp\n      dup2\n      sload\n      dup2\n      0xffffffffffffffffffffffffffffffffffffffff\n      mul\n      not\n      and\n      swap1\n      dup4\n      0xffffffffffffffffffffffffffffffffffffffff\n      and\n      mul\n      or\n      swap1\n      sstore\n      pop\n        /* \"@openzeppelin/contracts@4.4.2/access/Ownable.sol\":2441:2449  newOwner */\n      dup2\n        /* \"@openzeppelin/contracts@4.4.2/access/Ownable.sol\":2410:2450  OwnershipTransferred(oldOwner, newOwner) */\n      0xffffffffffffffffffffffffffffffffffffffff\n      and\n        /* \"@openzeppelin/contracts@4.4.2/access/Ownable.sol\":2431:2439  oldOwner */\n      dup2\n        /* \"@openzeppelin/contracts@4.4.2/access/Ownable.sol\":2410:2450  OwnershipTransferred(oldOwner, newOwner) */\n      0xffffffffffffffffffffffffffffffffffffffff\n      and\n      0x8be0079c531659141344cd1fd0a4f28419497f9722a3daafe3b4186f6b6457e0\n      mload(0x40)\n      mload(0x40)\n      dup1\n      swap2\n      sub\n      swap1\n      log3\n        /* \"@openzeppelin/contracts@4.4.2/access/Ownable.sol\":2270:2457  function _transferOwnership(address newOwner) internal virtual {... */\n      pop\n      pop\n      jump\t// out\n        /* \"#utility.yul\":7:146   */\n    tag_129:\n      0x00\n        /* \"#utility.yul\":91:97   */\n      dup2\n        /* \"#utility.yul\":78:98   */\n      calldataload\n        /* \"#utility.yul\":69:98   */\n      swap1\n      pop\n        /* \"#utility.yul\":107:140   */\n      tag_131\n        /* \"#utility.yul\":134:139   */\n      dup2\n        /* \"#utility.yul\":107:140   */\n      tag_132\n      jump\t// in\n    tag_131:\n        /* \"#utility.yul\":59:146   */\n      swap3\n      swap2\n      pop\n      pop\n      jump\t// out\n        /* \"#utility.yul\":152:289   */\n    tag_133:\n      0x00\n        /* \"#utility.yul\":237:243   */\n      dup2\n        /* \"#utility.yul\":231:244   */\n      mload\n        /* \"#utility.yul\":222:244   */\n      swap1\n      pop\n        /* \"#utility.yul\":253:283   */\n      tag_135\n        /* \"#utility.yul\":277:282   */\n      dup2\n        /* \"#utility.yul\":253:283   */\n      tag_136\n      jump\t// in\n    tag_135:\n        /* \"#utility.yul\":212:289   */\n      swap3\n      swap2\n      pop\n      pop\n      jump\t// out\n        /* \"#utility.yul\":295:434   */\n    tag_137:\n      0x00\n        /* \"#utility.yul\":379:385   */\n      dup2\n        /* \"#utility.yul\":366:386   */\n      calldataload\n        /* \"#utility.yul\":357:386   */\n      swap1\n      pop\n        /* \"#utility.yul\":395:428   */\n      tag_139\n        /* \"#utility.yul\":422:427   */\n      dup2\n        /* \"#utility.yul\":395:428   */\n      tag_140\n      jump\t// in\n    tag_139:\n        /* \"#utility.yul\":347:434   */\n      swap3\n      swap2\n      pop\n      pop\n      jump\t// out\n        /* \"#utility.yul\":440:702   */\n    tag_27:\n      0x00\n        /* \"#utility.yul\":548:550   */\n      0x20\n        /* \"#utility.yul\":536:545   */\n      dup3\n        /* \"#utility.yul\":527:534   */\n      dup5\n        /* \"#utility.yul\":523:546   */\n      sub\n        /* \"#utility.yul\":519:551   */\n      slt\n        /* \"#utility.yul\":516:518   */\n      iszero\n      tag_142\n      jumpi\n        /* \"#utility.yul\":564:565   */\n      0x00\n        /* \"#utility.yul\":561:562   */\n      dup1\n        /* \"#utility.yul\":554:566   */\n      revert\n        /* \"#utility.yul\":516:518   */\n    tag_142:\n        /* \"#utility.yul\":607:608   */\n      0x00\n        /* \"#utility.yul\":632:685   */\n      tag_143\n        /* \"#utility.yul\":677:684   */\n      dup5\n        /* \"#utility.yul\":668:674   */\n      dup3\n        /* \"#utility.yul\":657:666   */\n      dup6\n        /* \"#utility.yul\":653:675   */\n      add\n        /* \"#utility.yul\":632:685   */\n      tag_129\n      jump\t// in\n    tag_143:\n        /* \"#utility.yul\":622:685   */\n      swap2\n      pop\n        /* \"#utility.yul\":578:695   */\n      pop\n        /* \"#utility.yul\":506:702   */\n      swap3\n      swap2\n      pop\n      pop\n      jump\t// out\n        /* \"#utility.yul\":708:1260   */\n    tag_16:\n      0x00\n      dup1\n      0x00\n        /* \"#utility.yul\":850:852   */\n      0x60\n        /* \"#utility.yul\":838:847   */\n      dup5\n        /* \"#utility.yul\":829:836   */\n      dup7\n        /* \"#utility.yul\":825:848   */\n      sub\n        /* \"#utility.yul\":821:853   */\n      slt\n        /* \"#utility.yul\":818:820   */\n      iszero\n      tag_145\n      jumpi\n        /* \"#utility.yul\":866:867   */\n      0x00\n        /* \"#utility.yul\":863:864   */\n      dup1\n        /* \"#utility.yul\":856:868   */\n      revert\n        /* \"#utility.yul\":818:820   */\n    tag_145:\n        /* \"#utility.yul\":909:910   */\n      0x00\n        /* \"#utility.yul\":934:987   */\n      tag_146\n        /* \"#utility.yul\":979:986   */\n      dup7\n        /* \"#utility.yul\":970:976   */\n      dup3\n        /* \"#utility.yul\":959:968   */\n      dup8\n        /* \"#utility.yul\":955:977   */\n      add\n        /* \"#utility.yul\":934:987   */\n      tag_129\n      jump\t// in\n    tag_146:\n        /* \"#utility.yul\":924:987   */\n      swap4\n      pop\n        /* \"#utility.yul\":880:997   */\n      pop\n        /* \"#utility.yul\":1036:1038   */\n      0x20\n        /* \"#utility.yul\":1062:1115   */\n      tag_147\n        /* \"#utility.yul\":1107:1114   */\n      dup7\n        /* \"#utility.yul\":1098:1104   */\n      dup3\n        /* \"#utility.yul\":1087:1096   */\n      dup8\n        /* \"#utility.yul\":1083:1105   */\n      add\n        /* \"#utility.yul\":1062:1115   */\n      tag_129\n      jump\t// in\n    tag_147:\n        /* \"#utility.yul\":1052:1115   */\n      swap3\n      pop\n        /* \"#utility.yul\":1007:1125   */\n      pop\n        /* \"#utility.yul\":1164:1166   */\n      0x40\n        /* \"#utility.yul\":1190:1243   */\n      tag_148\n        /* \"#utility.yul\":1235:1242   */\n      dup7\n        /* \"#utility.yul\":1226:1232   */\n      dup3\n        /* \"#utility.yul\":1215:1224   */\n      dup8\n        /* \"#utility.yul\":1211:1233   */\n      add\n        /* \"#utility.yul\":1190:1243   */\n      tag_137\n      jump\t// in\n    tag_148:\n        /* \"#utility.yul\":1180:1243   */\n      swap2\n      pop\n        /* \"#utility.yul\":1135:1253   */\n      pop\n        /* \"#utility.yul\":808:1260   */\n      swap3\n      pop\n      swap3\n      pop\n      swap3\n      jump\t// out\n        /* \"#utility.yul\":1266:1673   */\n    tag_20:\n      0x00\n      dup1\n        /* \"#utility.yul\":1391:1393   */\n      0x40\n        /* \"#utility.yul\":1379:1388   */\n      dup4\n        /* \"#utility.yul\":1370:1377   */\n      dup6\n        /* \"#utility.yul\":1366:1389   */\n      sub\n        /* \"#utility.yul\":1362:1394   */\n      slt\n        /* \"#utility.yul\":1359:1361   */\n      iszero\n      tag_150\n      jumpi\n        /* \"#utility.yul\":1407:1408   */\n      0x00\n        /* \"#utility.yul\":1404:1405   */\n      dup1\n        /* \"#utility.yul\":1397:1409   */\n      revert\n        /* \"#utility.yul\":1359:1361   */\n    tag_150:\n        /* \"#utility.yul\":1450:1451   */\n      0x00\n        /* \"#utility.yul\":1475:1528   */\n      tag_151\n        /* \"#utility.yul\":1520:1527   */\n      dup6\n        /* \"#utility.yul\":1511:1517   */\n      dup3\n        /* \"#utility.yul\":1500:1509   */\n      dup7\n        /* \"#utility.yul\":1496:1518   */\n      add\n        /* \"#utility.yul\":1475:1528   */\n      tag_129\n      jump\t// in\n    tag_151:\n        /* \"#utility.yul\":1465:1528   */\n      swap3\n      pop\n        /* \"#utility.yul\":1421:1538   */\n      pop\n        /* \"#utility.yul\":1577:1579   */\n      0x20\n        /* \"#utility.yul\":1603:1656   */\n      tag_152\n        /* \"#utility.yul\":1648:1655   */\n      dup6\n        /* \"#utility.yul\":1639:1645   */\n      dup3\n        /* \"#utility.yul\":1628:1637   */\n      dup7\n        /* \"#utility.yul\":1624:1646   */\n      add\n        /* \"#utility.yul\":1603:1656   */\n      tag_137\n      jump\t// in\n    tag_152:\n        /* \"#utility.yul\":1593:1656   */\n      swap2\n      pop\n        /* \"#utility.yul\":1548:1666   */\n      pop\n        /* \"#utility.yul\":1349:1673   */\n      swap3\n      pop\n      swap3\n      swap1\n      pop\n      jump\t// out\n        /* \"#utility.yul\":1679:1957   */\n    tag_69:\n      0x00\n        /* \"#utility.yul\":1795:1797   */\n      0x20\n        /* \"#utility.yul\":1783:1792   */\n      dup3\n        /* \"#utility.yul\":1774:1781   */\n      dup5\n        /* \"#utility.yul\":1770:1793   */\n      sub\n        /* \"#utility.yul\":1766:1798   */\n      slt\n        /* \"#utility.yul\":1763:1765   */\n      iszero\n      tag_154\n      jumpi\n        /* \"#utility.yul\":1811:1812   */\n      0x00\n        /* \"#utility.yul\":1808:1809   */\n      dup1\n        /* \"#utility.yul\":1801:1813   */\n      revert\n        /* \"#utility.yul\":1763:1765   */\n    tag_154:\n        /* \"#utility.yul\":1854:1855   */\n      0x00\n        /* \"#utility.yul\":1879:1940   */\n      tag_155\n        /* \"#utility.yul\":1932:1939   */\n      dup5\n        /* \"#utility.yul\":1923:1929   */\n      dup3\n        /* \"#utility.yul\":1912:1921   */\n      dup6\n        /* \"#utility.yul\":1908:1930   */\n      add\n        /* \"#utility.yul\":1879:1940   */\n      tag_133\n      jump\t// in\n    tag_155:\n        /* \"#utility.yul\":1869:1940   */\n      swap2\n      pop\n        /* \"#utility.yul\":1825:1950   */\n      pop\n        /* \"#utility.yul\":1753:1957   */\n      swap3\n      swap2\n      pop\n      pop\n      jump\t// out\n        /* \"#utility.yul\":1963:2225   */\n    tag_46:\n      0x00\n        /* \"#utility.yul\":2071:2073   */\n      0x20\n        /* \"#utility.yul\":2059:2068   */\n      dup3\n        /* \"#utility.yul\":2050:2057   */\n      dup5\n        /* \"#utility.yul\":2046:2069   */\n      sub\n        /* \"#utility.yul\":2042:2074   */\n      slt\n        /* \"#utility.yul\":2039:2041   */\n      iszero\n      tag_157\n      jumpi\n        /* \"#utility.yul\":2087:2088   */\n      0x00\n        /* \"#utility.yul\":2084:2085   */\n      dup1\n        /* \"#utility.yul\":2077:2089   */\n      revert\n        /* \"#utility.yul\":2039:2041   */\n    tag_157:\n        /* \"#utility.yul\":2130:2131   */\n      0x00\n        /* \"#utility.yul\":2155:2208   */\n      tag_158\n        /* \"#utility.yul\":2200:2207   */\n      dup5\n        /* \"#utility.yul\":2191:2197   */\n      dup3\n        /* \"#utility.yul\":2180:2189   */\n      dup6\n        /* \"#utility.yul\":2176:2198   */\n      add\n        /* \"#utility.yul\":2155:2208   */\n      tag_137\n      jump\t// in\n    tag_158:\n        /* \"#utility.yul\":2145:2208   */\n      swap2\n      pop\n        /* \"#utility.yul\":2101:2218   */\n      pop\n        /* \"#utility.yul\":2029:2225   */\n      swap3\n      swap2\n      pop\n      pop\n      jump\t// out\n        /* \"#utility.yul\":2231:2349   */\n    tag_159:\n        /* \"#utility.yul\":2318:2342   */\n      tag_161\n        /* \"#utility.yul\":2336:2341   */\n      dup2\n        /* \"#utility.yul\":2318:2342   */\n      tag_162\n      jump\t// in\n    tag_161:\n        /* \"#utility.yul\":2313:2316   */\n      dup3\n        /* \"#utility.yul\":2306:2343   */\n      mstore\n        /* \"#utility.yul\":2296:2349   */\n      pop\n      pop\n      jump\t// out\n        /* \"#utility.yul\":2355:2512   */\n    tag_163:\n        /* \"#utility.yul\":2460:2505   */\n      tag_165\n        /* \"#utility.yul\":2480:2504   */\n      tag_166\n        /* \"#utility.yul\":2498:2503   */\n      dup3\n        /* \"#utility.yul\":2480:2504   */\n      tag_162\n      jump\t// in\n    tag_166:\n        /* \"#utility.yul\":2460:2505   */\n      tag_167\n      jump\t// in\n    tag_165:\n        /* \"#utility.yul\":2455:2458   */\n      dup3\n        /* \"#utility.yul\":2448:2506   */\n      mstore\n        /* \"#utility.yul\":2438:2512   */\n      pop\n      pop\n      jump\t// out\n        /* \"#utility.yul\":2518:2882   */\n    tag_168:\n      0x00\n        /* \"#utility.yul\":2634:2673   */\n      tag_170\n        /* \"#utility.yul\":2667:2672   */\n      dup3\n        /* \"#utility.yul\":2634:2673   */\n      tag_171\n      jump\t// in\n    tag_170:\n        /* \"#utility.yul\":2689:2760   */\n      tag_172\n        /* \"#utility.yul\":2753:2759   */\n      dup2\n        /* \"#utility.yul\":2748:2751   */\n      dup6\n        /* \"#utility.yul\":2689:2760   */\n      tag_173\n      jump\t// in\n    tag_172:\n        /* \"#utility.yul\":2682:2760   */\n      swap4\n      pop\n        /* \"#utility.yul\":2769:2821   */\n      tag_174\n        /* \"#utility.yul\":2814:2820   */\n      dup2\n        /* \"#utility.yul\":2809:2812   */\n      dup6\n        /* \"#utility.yul\":2802:2806   */\n      0x20\n        /* \"#utility.yul\":2795:2800   */\n      dup7\n        /* \"#utility.yul\":2791:2807   */\n      add\n        /* \"#utility.yul\":2769:2821   */\n      tag_175\n      jump\t// in\n    tag_174:\n        /* \"#utility.yul\":2846:2875   */\n      tag_176\n        /* \"#utility.yul\":2868:2874   */\n      dup2\n        /* \"#utility.yul\":2846:2875   */\n      tag_177\n      jump\t// in\n    tag_176:\n        /* \"#utility.yul\":2841:2844   */\n      dup5\n        /* \"#utility.yul\":2837:2876   */\n      add\n        /* \"#utility.yul\":2830:2876   */\n      swap2\n      pop\n        /* \"#utility.yul\":2610:2882   */\n      pop\n      swap3\n      swap2\n      pop\n      pop\n      jump\t// out\n        /* \"#utility.yul\":2888:3254   */\n    tag_178:\n      0x00\n        /* \"#utility.yul\":3051:3118   */\n      tag_180\n        /* \"#utility.yul\":3115:3117   */\n      0x4a\n        /* \"#utility.yul\":3110:3113   */\n      dup4\n        /* \"#utility.yul\":3051:3118   */\n      tag_173\n      jump\t// in\n    tag_180:\n        /* \"#utility.yul\":3044:3118   */\n      swap2\n      pop\n        /* \"#utility.yul\":3127:3220   */\n      tag_181\n        /* \"#utility.yul\":3216:3219   */\n      dup3\n        /* \"#utility.yul\":3127:3220   */\n      tag_182\n      jump\t// in\n    tag_181:\n        /* \"#utility.yul\":3245:3247   */\n      0x60\n        /* \"#utility.yul\":3240:3243   */\n      dup3\n        /* \"#utility.yul\":3236:3248   */\n      add\n        /* \"#utility.yul\":3229:3248   */\n      swap1\n      pop\n        /* \"#utility.yul\":3034:3254   */\n      swap2\n      swap1\n      pop\n      jump\t// out\n        /* \"#utility.yul\":3260:3626   */\n    tag_183:\n      0x00\n        /* \"#utility.yul\":3423:3490   */\n      tag_185\n        /* \"#utility.yul\":3487:3489   */\n      0x26\n        /* \"#utility.yul\":3482:3485   */\n      dup4\n        /* \"#utility.yul\":3423:3490   */\n      tag_173\n      jump\t// in\n    tag_185:\n        /* \"#utility.yul\":3416:3490   */\n      swap2\n      pop\n        /* \"#utility.yul\":3499:3592   */\n      tag_186\n        /* \"#utility.yul\":3588:3591   */\n      dup3\n        /* \"#utility.yul\":3499:3592   */\n      tag_187\n      jump\t// in\n    tag_186:\n        /* \"#utility.yul\":3617:3619   */\n      0x40\n        /* \"#utility.yul\":3612:3615   */\n      dup3\n        /* \"#utility.yul\":3608:3620   */\n      add\n        /* \"#utility.yul\":3601:3620   */\n      swap1\n      pop\n        /* \"#utility.yul\":3406:3626   */\n      swap2\n      swap1\n      pop\n      jump\t// out\n        /* \"#utility.yul\":3632:4034   */\n    tag_188:\n      0x00\n        /* \"#utility.yul\":3813:3898   */\n      tag_190\n        /* \"#utility.yul\":3895:3897   */\n      0x20\n        /* \"#utility.yul\":3890:3893   */\n      dup4\n        /* \"#utility.yul\":3813:3898   */\n      tag_191\n      jump\t// in\n    tag_190:\n        /* \"#utility.yul\":3806:3898   */\n      swap2\n      pop\n        /* \"#utility.yul\":3907:4000   */\n      tag_192\n        /* \"#utility.yul\":3996:3999   */\n      dup3\n        /* \"#utility.yul\":3907:4000   */\n      tag_193\n      jump\t// in\n    tag_192:\n        /* \"#utility.yul\":4025:4027   */\n      0x20\n        /* \"#utility.yul\":4020:4023   */\n      dup3\n        /* \"#utility.yul\":4016:4028   */\n      add\n        /* \"#utility.yul\":4009:4028   */\n      swap1\n      pop\n        /* \"#utility.yul\":3796:4034   */\n      swap2\n      swap1\n      pop\n      jump\t// out\n        /* \"#utility.yul\":4040:4406   */\n    tag_194:\n      0x00\n        /* \"#utility.yul\":4203:4270   */\n      tag_196\n        /* \"#utility.yul\":4267:4269   */\n      0x20\n        /* \"#utility.yul\":4262:4265   */\n      dup4\n        /* \"#utility.yul\":4203:4270   */\n      tag_173\n      jump\t// in\n    tag_196:\n        /* \"#utility.yul\":4196:4270   */\n      swap2\n      pop\n        /* \"#utility.yul\":4279:4372   */\n      tag_197\n        /* \"#utility.yul\":4368:4371   */\n      dup3\n        /* \"#utility.yul\":4279:4372   */\n      tag_198\n      jump\t// in\n    tag_197:\n        /* \"#utility.yul\":4397:4399   */\n      0x20\n        /* \"#utility.yul\":4392:4395   */\n      dup3\n        /* \"#utility.yul\":4388:4400   */\n      add\n        /* \"#utility.yul\":4381:4400   */\n      swap1\n      pop\n        /* \"#utility.yul\":4186:4406   */\n      swap2\n      swap1\n      pop\n      jump\t// out\n        /* \"#utility.yul\":4412:4778   */\n    tag_199:\n      0x00\n        /* \"#utility.yul\":4575:4642   */\n      tag_201\n        /* \"#utility.yul\":4639:4641   */\n      0x2b\n        /* \"#utility.yul\":4634:4637   */\n      dup4\n        /* \"#utility.yul\":4575:4642   */\n      tag_173\n      jump\t// in\n    tag_201:\n        /* \"#utility.yul\":4568:4642   */\n      swap2\n      pop\n        /* \"#utility.yul\":4651:4744   */\n      tag_202\n        /* \"#utility.yul\":4740:4743   */\n      dup3\n        /* \"#utility.yul\":4651:4744   */\n      tag_203\n      jump\t// in\n    tag_202:\n        /* \"#utility.yul\":4769:4771   */\n      0x40\n        /* \"#utility.yul\":4764:4767   */\n      dup3\n        /* \"#utility.yul\":4760:4772   */\n      add\n        /* \"#utility.yul\":4753:4772   */\n      swap1\n      pop\n        /* \"#utility.yul\":4558:4778   */\n      swap2\n      swap1\n      pop\n      jump\t// out\n        /* \"#utility.yul\":4784:5186   */\n    tag_204:\n      0x00\n        /* \"#utility.yul\":4965:5050   */\n      tag_206\n        /* \"#utility.yul\":5047:5049   */\n      0x23\n        /* \"#utility.yul\":5042:5045   */\n      dup4\n        /* \"#utility.yul\":4965:5050   */\n      tag_191\n      jump\t// in\n    tag_206:\n        /* \"#utility.yul\":4958:5050   */\n      swap2\n      pop\n        /* \"#utility.yul\":5059:5152   */\n      tag_207\n        /* \"#utility.yul\":5148:5151   */\n      dup3\n        /* \"#utility.yul\":5059:5152   */\n      tag_208\n      jump\t// in\n    tag_207:\n        /* \"#utility.yul\":5177:5179   */\n      0x23\n        /* \"#utility.yul\":5172:5175   */\n      dup3\n        /* \"#utility.yul\":5168:5180   */\n      add\n        /* \"#utility.yul\":5161:5180   */\n      swap1\n      pop\n        /* \"#utility.yul\":4948:5186   */\n      swap2\n      swap1\n      pop\n      jump\t// out\n        /* \"#utility.yul\":5192:5310   */\n    tag_209:\n        /* \"#utility.yul\":5279:5303   */\n      tag_211\n        /* \"#utility.yul\":5297:5302   */\n      dup2\n        /* \"#utility.yul\":5279:5303   */\n      tag_212\n      jump\t// in\n    tag_211:\n        /* \"#utility.yul\":5274:5277   */\n      dup3\n        /* \"#utility.yul\":5267:5304   */\n      mstore\n        /* \"#utility.yul\":5257:5310   */\n      pop\n      pop\n      jump\t// out\n        /* \"#utility.yul\":5316:5473   */\n    tag_213:\n        /* \"#utility.yul\":5421:5466   */\n      tag_215\n        /* \"#utility.yul\":5441:5465   */\n      tag_216\n        /* \"#utility.yul\":5459:5464   */\n      dup3\n        /* \"#utility.yul\":5441:5465   */\n      tag_212\n      jump\t// in\n    tag_216:\n        /* \"#utility.yul\":5421:5466   */\n      tag_217\n      jump\t// in\n    tag_215:\n        /* \"#utility.yul\":5416:5419   */\n      dup3\n        /* \"#utility.yul\":5409:5467   */\n      mstore\n        /* \"#utility.yul\":5399:5473   */\n      pop\n      pop\n      jump\t// out\n        /* \"#utility.yul\":5479:6408   */\n    tag_80:\n      0x00\n        /* \"#utility.yul\":5843:5991   */\n      tag_219\n        /* \"#utility.yul\":5987:5990   */\n      dup3\n        /* \"#utility.yul\":5843:5991   */\n      tag_188\n      jump\t// in\n    tag_219:\n        /* \"#utility.yul\":5836:5991   */\n      swap2\n      pop\n        /* \"#utility.yul\":6001:6076   */\n      tag_220\n        /* \"#utility.yul\":6072:6075   */\n      dup3\n        /* \"#utility.yul\":6063:6069   */\n      dup6\n        /* \"#utility.yul\":6001:6076   */\n      tag_163\n      jump\t// in\n    tag_220:\n        /* \"#utility.yul\":6101:6103   */\n      0x14\n        /* \"#utility.yul\":6096:6099   */\n      dup3\n        /* \"#utility.yul\":6092:6104   */\n      add\n        /* \"#utility.yul\":6085:6104   */\n      swap2\n      pop\n        /* \"#utility.yul\":6121:6269   */\n      tag_221\n        /* \"#utility.yul\":6265:6268   */\n      dup3\n        /* \"#utility.yul\":6121:6269   */\n      tag_204\n      jump\t// in\n    tag_221:\n        /* \"#utility.yul\":6114:6269   */\n      swap2\n      pop\n        /* \"#utility.yul\":6279:6354   */\n      tag_222\n        /* \"#utility.yul\":6350:6353   */\n      dup3\n        /* \"#utility.yul\":6341:6347   */\n      dup5\n        /* \"#utility.yul\":6279:6354   */\n      tag_213\n      jump\t// in\n    tag_222:\n        /* \"#utility.yul\":6379:6381   */\n      0x20\n        /* \"#utility.yul\":6374:6377   */\n      dup3\n        /* \"#utility.yul\":6370:6382   */\n      add\n        /* \"#utility.yul\":6363:6382   */\n      swap2\n      pop\n        /* \"#utility.yul\":6399:6402   */\n      dup2\n        /* \"#utility.yul\":6392:6402   */\n      swap1\n      pop\n        /* \"#utility.yul\":5825:6408   */\n      swap4\n      swap3\n      pop\n      pop\n      pop\n      jump\t// out\n        /* \"#utility.yul\":6414:6636   */\n    tag_36:\n      0x00\n        /* \"#utility.yul\":6545:6547   */\n      0x20\n        /* \"#utility.yul\":6534:6543   */\n      dup3\n        /* \"#utility.yul\":6530:6548   */\n      add\n        /* \"#utility.yul\":6522:6548   */\n      swap1\n      pop\n        /* \"#utility.yul\":6558:6629   */\n      tag_224\n        /* \"#utility.yul\":6626:6627   */\n      0x00\n        /* \"#utility.yul\":6615:6624   */\n      dup4\n        /* \"#utility.yul\":6611:6628   */\n      add\n        /* \"#utility.yul\":6602:6608   */\n      dup5\n        /* \"#utility.yul\":6558:6629   */\n      tag_159\n      jump\t// in\n    tag_224:\n        /* \"#utility.yul\":6512:6636   */\n      swap3\n      swap2\n      pop\n      pop\n      jump\t// out\n        /* \"#utility.yul\":6642:7084   */\n    tag_64:\n      0x00\n        /* \"#utility.yul\":6829:6831   */\n      0x60\n        /* \"#utility.yul\":6818:6827   */\n      dup3\n        /* \"#utility.yul\":6814:6832   */\n      add\n        /* \"#utility.yul\":6806:6832   */\n      swap1\n      pop\n        /* \"#utility.yul\":6842:6913   */\n      tag_226\n        /* \"#utility.yul\":6910:6911   */\n      0x00\n        /* \"#utility.yul\":6899:6908   */\n      dup4\n        /* \"#utility.yul\":6895:6912   */\n      add\n        /* \"#utility.yul\":6886:6892   */\n      dup7\n        /* \"#utility.yul\":6842:6913   */\n      tag_159\n      jump\t// in\n    tag_226:\n        /* \"#utility.yul\":6923:6995   */\n      tag_227\n        /* \"#utility.yul\":6991:6993   */\n      0x20\n        /* \"#utility.yul\":6980:6989   */\n      dup4\n        /* \"#utility.yul\":6976:6994   */\n      add\n        /* \"#utility.yul\":6967:6973   */\n      dup6\n        /* \"#utility.yul\":6923:6995   */\n      tag_159\n      jump\t// in\n    tag_227:\n        /* \"#utility.yul\":7005:7077   */\n      tag_228\n        /* \"#utility.yul\":7073:7075   */\n      0x40\n        /* \"#utility.yul\":7062:7071   */\n      dup4\n        /* \"#utility.yul\":7058:7076   */\n      add\n        /* \"#utility.yul\":7049:7055   */\n      dup5\n        /* \"#utility.yul\":7005:7077   */\n      tag_209\n      jump\t// in\n    tag_228:\n        /* \"#utility.yul\":6796:7084   */\n      swap5\n      swap4\n      pop\n      pop\n      pop\n      pop\n      jump\t// out\n        /* \"#utility.yul\":7090:7403   */\n    tag_83:\n      0x00\n        /* \"#utility.yul\":7241:7243   */\n      0x20\n        /* \"#utility.yul\":7230:7239   */\n      dup3\n        /* \"#utility.yul\":7226:7244   */\n      add\n        /* \"#utility.yul\":7218:7244   */\n      swap1\n      pop\n        /* \"#utility.yul\":7290:7299   */\n      dup2\n        /* \"#utility.yul\":7284:7288   */\n      dup2\n        /* \"#utility.yul\":7280:7300   */\n      sub\n        /* \"#utility.yul\":7276:7277   */\n      0x00\n        /* \"#utility.yul\":7265:7274   */\n      dup4\n        /* \"#utility.yul\":7261:7278   */\n      add\n        /* \"#utility.yul\":7254:7301   */\n      mstore\n        /* \"#utility.yul\":7318:7396   */\n      tag_230\n        /* \"#utility.yul\":7391:7395   */\n      dup2\n        /* \"#utility.yul\":7382:7388   */\n      dup5\n        /* \"#utility.yul\":7318:7396   */\n      tag_168\n      jump\t// in\n    tag_230:\n        /* \"#utility.yul\":7310:7396   */\n      swap1\n      pop\n        /* \"#utility.yul\":7208:7403   */\n      swap3\n      swap2\n      pop\n      pop\n      jump\t// out\n        /* \"#utility.yul\":7409:7828   */\n    tag_78:\n      0x00\n        /* \"#utility.yul\":7613:7615   */\n      0x20\n        /* \"#utility.yul\":7602:7611   */\n      dup3\n        /* \"#utility.yul\":7598:7616   */\n      add\n        /* \"#utility.yul\":7590:7616   */\n      swap1\n      pop\n        /* \"#utility.yul\":7662:7671   */\n      dup2\n        /* \"#utility.yul\":7656:7660   */\n      dup2\n        /* \"#utility.yul\":7652:7672   */\n      sub\n        /* \"#utility.yul\":7648:7649   */\n      0x00\n        /* \"#utility.yul\":7637:7646   */\n      dup4\n        /* \"#utility.yul\":7633:7650   */\n      add\n        /* \"#utility.yul\":7626:7673   */\n      mstore\n        /* \"#utility.yul\":7690:7821   */\n      tag_232\n        /* \"#utility.yul\":7816:7820   */\n      dup2\n        /* \"#utility.yul\":7690:7821   */\n      tag_178\n      jump\t// in\n    tag_232:\n        /* \"#utility.yul\":7682:7821   */\n      swap1\n      pop\n        /* \"#utility.yul\":7580:7828   */\n      swap2\n      swap1\n      pop\n      jump\t// out\n        /* \"#utility.yul\":7834:8253   */\n    tag_124:\n      0x00\n        /* \"#utility.yul\":8038:8040   */\n      0x20\n        /* \"#utility.yul\":8027:8036   */\n      dup3\n        /* \"#utility.yul\":8023:8041   */\n      add\n        /* \"#utility.yul\":8015:8041   */\n      swap1\n      pop\n        /* \"#utility.yul\":8087:8096   */\n      dup2\n        /* \"#utility.yul\":8081:8085   */\n      dup2\n        /* \"#utility.yul\":8077:8097   */\n      sub\n        /* \"#utility.yul\":8073:8074   */\n      0x00\n        /* \"#utility.yul\":8062:8071   */\n      dup4\n        /* \"#utility.yul\":8058:8075   */\n      add\n        /* \"#utility.yul\":8051:8098   */\n      mstore\n        /* \"#utility.yul\":8115:8246   */\n      tag_234\n        /* \"#utility.yul\":8241:8245   */\n      dup2\n        /* \"#utility.yul\":8115:8246   */\n      tag_183\n      jump\t// in\n    tag_234:\n        /* \"#utility.yul\":8107:8246   */\n      swap1\n      pop\n        /* \"#utility.yul\":8005:8253   */\n      swap2\n      swap1\n      pop\n      jump\t// out\n        /* \"#utility.yul\":8259:8678   */\n    tag_57:\n      0x00\n        /* \"#utility.yul\":8463:8465   */\n      0x20\n        /* \"#utility.yul\":8452:8461   */\n      dup3\n        /* \"#utility.yul\":8448:8466   */\n      add\n        /* \"#utility.yul\":8440:8466   */\n      swap1\n      pop\n        /* \"#utility.yul\":8512:8521   */\n      dup2\n        /* \"#utility.yul\":8506:8510   */\n      dup2\n        /* \"#utility.yul\":8502:8522   */\n      sub\n        /* \"#utility.yul\":8498:8499   */\n      0x00\n        /* \"#utility.yul\":8487:8496   */\n      dup4\n        /* \"#utility.yul\":8483:8500   */\n      add\n        /* \"#utility.yul\":8476:8523   */\n      mstore\n        /* \"#utility.yul\":8540:8671   */\n      tag_236\n        /* \"#utility.yul\":8666:8670   */\n      dup2\n        /* \"#utility.yul\":8540:8671   */\n      tag_194\n      jump\t// in\n    tag_236:\n        /* \"#utility.yul\":8532:8671   */\n      swap1\n      pop\n        /* \"#utility.yul\":8430:8678   */\n      swap2\n      swap1\n      pop\n      jump\t// out\n        /* \"#utility.yul\":8684:9103   */\n    tag_109:\n      0x00\n        /* \"#utility.yul\":8888:8890   */\n      0x20\n        /* \"#utility.yul\":8877:8886   */\n      dup3\n        /* \"#utility.yul\":8873:8891   */\n      add\n        /* \"#utility.yul\":8865:8891   */\n      swap1\n      pop\n        /* \"#utility.yul\":8937:8946   */\n      dup2\n        /* \"#utility.yul\":8931:8935   */\n      dup2\n        /* \"#utility.yul\":8927:8947   */\n      sub\n        /* \"#utility.yul\":8923:8924   */\n      0x00\n        /* \"#utility.yul\":8912:8921   */\n      dup4\n        /* \"#utility.yul\":8908:8925   */\n      add\n        /* \"#utility.yul\":8901:8948   */\n      mstore\n        /* \"#utility.yul\":8965:9096   */\n      tag_238\n        /* \"#utility.yul\":9091:9095   */\n      dup2\n        /* \"#utility.yul\":8965:9096   */\n      tag_199\n      jump\t// in\n    tag_238:\n        /* \"#utility.yul\":8957:9096   */\n      swap1\n      pop\n        /* \"#utility.yul\":8855:9103   */\n      swap2\n      swap1\n      pop\n      jump\t// out\n        /* \"#utility.yul\":9109:9331   */\n    tag_30:\n      0x00\n        /* \"#utility.yul\":9240:9242   */\n      0x20\n        /* \"#utility.yul\":9229:9238   */\n      dup3\n        /* \"#utility.yul\":9225:9243   */\n      add\n        /* \"#utility.yul\":9217:9243   */\n      swap1\n      pop\n        /* \"#utility.yul\":9253:9324   */\n      tag_240\n        /* \"#utility.yul\":9321:9322   */\n      0x00\n        /* \"#utility.yul\":9310:9319   */\n      dup4\n        /* \"#utility.yul\":9306:9323   */\n      add\n        /* \"#utility.yul\":9297:9303   */\n      dup5\n        /* \"#utility.yul\":9253:9324   */\n      tag_209\n      jump\t// in\n    tag_240:\n        /* \"#utility.yul\":9207:9331   */\n      swap3\n      swap2\n      pop\n      pop\n      jump\t// out\n        /* \"#utility.yul\":9337:9436   */\n    tag_171:\n      0x00\n        /* \"#utility.yul\":9423:9428   */\n      dup2\n        /* \"#utility.yul\":9417:9429   */\n      mload\n        /* \"#utility.yul\":9407:9429   */\n      swap1\n      pop\n        /* \"#utility.yul\":9396:9436   */\n      swap2\n      swap1\n      pop\n      jump\t// out\n        /* \"#utility.yul\":9442:9611   */\n    tag_173:\n      0x00\n        /* \"#utility.yul\":9560:9566   */\n      dup3\n        /* \"#utility.yul\":9555:9558   */\n      dup3\n        /* \"#utility.yul\":9548:9567   */\n      mstore\n        /* \"#utility.yul\":9600:9604   */\n      0x20\n        /* \"#utility.yul\":9595:9598   */\n      dup3\n        /* \"#utility.yul\":9591:9605   */\n      add\n        /* \"#utility.yul\":9576:9605   */\n      swap1\n      pop\n        /* \"#utility.yul\":9538:9611   */\n      swap3\n      swap2\n      pop\n      pop\n      jump\t// out\n        /* \"#utility.yul\":9617:9765   */\n    tag_191:\n      0x00\n        /* \"#utility.yul\":9756:9759   */\n      dup2\n        /* \"#utility.yul\":9741:9759   */\n      swap1\n      pop\n        /* \"#utility.yul\":9731:9765   */\n      swap3\n      swap2\n      pop\n      pop\n      jump\t// out\n        /* \"#utility.yul\":9771:10076   */\n    tag_105:\n      0x00\n        /* \"#utility.yul\":9830:9850   */\n      tag_245\n        /* \"#utility.yul\":9848:9849   */\n      dup3\n        /* \"#utility.yul\":9830:9850   */\n      tag_212\n      jump\t// in\n    tag_245:\n        /* \"#utility.yul\":9825:9850   */\n      swap2\n      pop\n        /* \"#utility.yul\":9864:9884   */\n      tag_246\n        /* \"#utility.yul\":9882:9883   */\n      dup4\n        /* \"#utility.yul\":9864:9884   */\n      tag_212\n      jump\t// in\n    tag_246:\n        /* \"#utility.yul\":9859:9884   */\n      swap3\n      pop\n        /* \"#utility.yul\":10018:10019   */\n      dup3\n        /* \"#utility.yul\":9950:10016   */\n      0xffffffffffffffffffffffffffffffffffffffffffffffffffffffffffffffff\n        /* \"#utility.yul\":9946:10020   */\n      sub\n        /* \"#utility.yul\":9943:9944   */\n      dup3\n        /* \"#utility.yul\":9940:10021   */\n      gt\n        /* \"#utility.yul\":9937:9939   */\n      iszero\n      tag_247\n      jumpi\n        /* \"#utility.yul\":10024:10042   */\n      tag_248\n      tag_249\n      jump\t// in\n    tag_248:\n        /* \"#utility.yul\":9937:9939   */\n    tag_247:\n        /* \"#utility.yul\":10068:10069   */\n      dup3\n        /* \"#utility.yul\":10065:10066   */\n      dup3\n        /* \"#utility.yul\":10061:10070   */\n      add\n        /* \"#utility.yul\":10054:10070   */\n      swap1\n      pop\n        /* \"#utility.yul\":9815:10076   */\n      swap3\n      swap2\n      pop\n      pop\n      jump\t// out\n        /* \"#utility.yul\":10082:10273   */\n    tag_85:\n      0x00\n        /* \"#utility.yul\":10142:10162   */\n      tag_251\n        /* \"#utility.yul\":10160:10161   */\n      dup3\n        /* \"#utility.yul\":10142:10162   */\n      tag_212\n      jump\t// in\n    tag_251:\n        /* \"#utility.yul\":10137:10162   */\n      swap2\n      pop\n        /* \"#utility.yul\":10176:10196   */\n      tag_252\n        /* \"#utility.yul\":10194:10195   */\n      dup4\n        /* \"#utility.yul\":10176:10196   */\n      tag_212\n      jump\t// in\n    tag_252:\n        /* \"#utility.yul\":10171:10196   */\n      swap3\n      pop\n        /* \"#utility.yul\":10215:10216   */\n      dup3\n        /* \"#utility.yul\":10212:10213   */\n      dup3\n        /* \"#utility.yul\":10209:10217   */\n      lt\n        /* \"#utility.yul\":10206:10208   */\n      iszero\n      tag_253\n      jumpi\n        /* \"#utility.yul\":10220:10238   */\n      tag_254\n      tag_249\n      jump\t// in\n    tag_254:\n        /* \"#utility.yul\":10206:10208   */\n    tag_253:\n        /* \"#utility.yul\":10265:10266   */\n      dup3\n        /* \"#utility.yul\":10262:10263   */\n      dup3\n        /* \"#utility.yul\":10258:10267   */\n      sub\n        /* \"#utility.yul\":10250:10267   */\n      swap1\n      pop\n        /* \"#utility.yul\":10127:10273   */\n      swap3\n      swap2\n      pop\n      pop\n      jump\t// out\n        /* \"#utility.yul\":10279:10375   */\n    tag_162:\n      0x00\n        /* \"#utility.yul\":10345:10369   */\n      tag_256\n        /* \"#utility.yul\":10363:10368   */\n      dup3\n        /* \"#utility.yul\":10345:10369   */\n      tag_257\n      jump\t// in\n    tag_256:\n        /* \"#utility.yul\":10334:10369   */\n      swap1\n      pop\n        /* \"#utility.yul\":10324:10375   */\n      swap2\n      swap1\n      pop\n      jump\t// out\n        /* \"#utility.yul\":10381:10471   */\n    tag_258:\n      0x00\n        /* \"#utility.yul\":10458:10463   */\n      dup2\n        /* \"#utility.yul\":10451:10464   */\n      iszero\n        /* \"#utility.yul\":10444:10465   */\n      iszero\n        /* \"#utility.yul\":10433:10465   */\n      swap1\n      pop\n        /* \"#utility.yul\":10423:10471   */\n      swap2\n      swap1\n      pop\n      jump\t// out\n        /* \"#utility.yul\":10477:10603   */\n    tag_257:\n      0x00\n        /* \"#utility.yul\":10554:10596   */\n      0xffffffffffffffffffffffffffffffffffffffff\n        /* \"#utility.yul\":10547:10552   */\n      dup3\n        /* \"#utility.yul\":10543:10597   */\n      and\n        /* \"#utility.yul\":10532:10597   */\n      swap1\n      pop\n        /* \"#utility.yul\":10522:10603   */\n      swap2\n      swap1\n      pop\n      jump\t// out\n        /* \"#utility.yul\":10609:10686   */\n    tag_212:\n      0x00\n        /* \"#utility.yul\":10675:10680   */\n      dup2\n        /* \"#utility.yul\":10664:10680   */\n      swap1\n      pop\n        /* \"#utility.yul\":10654:10686   */\n      swap2\n      swap1\n      pop\n      jump\t// out\n        /* \"#utility.yul\":10692:10999   */\n    tag_175:\n        /* \"#utility.yul\":10760:10761   */\n      0x00\n        /* \"#utility.yul\":10770:10883   */\n    tag_263:\n        /* \"#utility.yul\":10784:10790   */\n      dup4\n        /* \"#utility.yul\":10781:10782   */\n      dup2\n        /* \"#utility.yul\":10778:10791   */\n      lt\n        /* \"#utility.yul\":10770:10883   */\n      iszero\n      tag_265\n      jumpi\n        /* \"#utility.yul\":10869:10870   */\n      dup1\n        /* \"#utility.yul\":10864:10867   */\n      dup3\n        /* \"#utility.yul\":10860:10871   */\n      add\n        /* \"#utility.yul\":10854:10872   */\n      mload\n        /* \"#utility.yul\":10850:10851   */\n      dup2\n        /* \"#utility.yul\":10845:10848   */\n      dup5\n        /* \"#utility.yul\":10841:10852   */\n      add\n        /* \"#utility.yul\":10834:10873   */\n      mstore\n        /* \"#utility.yul\":10806:10808   */\n      0x20\n        /* \"#utility.yul\":10803:10804   */\n      dup2\n        /* \"#utility.yul\":10799:10809   */\n      add\n        /* \"#utility.yul\":10794:10809   */\n      swap1\n      pop\n        /* \"#utility.yul\":10770:10883   */\n      jump(tag_263)\n    tag_265:\n        /* \"#utility.yul\":10901:10907   */\n      dup4\n        /* \"#utility.yul\":10898:10899   */\n      dup2\n        /* \"#utility.yul\":10895:10908   */\n      gt\n        /* \"#utility.yul\":10892:10894   */\n      iszero\n      tag_266\n      jumpi\n        /* \"#utility.yul\":10981:10982   */\n      0x00\n        /* \"#utility.yul\":10972:10978   */\n      dup5\n        /* \"#utility.yul\":10967:10970   */\n      dup5\n        /* \"#utility.yul\":10963:10979   */\n      add\n        /* \"#utility.yul\":10956:10983   */\n      mstore\n        /* \"#utility.yul\":10892:10894   */\n    tag_266:\n        /* \"#utility.yul\":10741:10999   */\n      pop\n      pop\n      pop\n      pop\n      jump\t// out\n        /* \"#utility.yul\":11005:11105   */\n    tag_167:\n      0x00\n        /* \"#utility.yul\":11073:11099   */\n      tag_268\n        /* \"#utility.yul\":11093:11098   */\n      dup3\n        /* \"#utility.yul\":11073:11099   */\n      tag_269\n      jump\t// in\n    tag_268:\n        /* \"#utility.yul\":11062:11099   */\n      swap1\n      pop\n        /* \"#utility.yul\":11052:11105   */\n      swap2\n      swap1\n      pop\n      jump\t// out\n        /* \"#utility.yul\":11111:11205   */\n    tag_269:\n      0x00\n        /* \"#utility.yul\":11179:11199   */\n      tag_271\n        /* \"#utility.yul\":11193:11198   */\n      dup3\n        /* \"#utility.yul\":11179:11199   */\n      tag_272\n      jump\t// in\n    tag_271:\n        /* \"#utility.yul\":11168:11199   */\n      swap1\n      pop\n        /* \"#utility.yul\":11158:11205   */\n      swap2\n      swap1\n      pop\n      jump\t// out\n        /* \"#utility.yul\":11211:11290   */\n    tag_217:\n      0x00\n        /* \"#utility.yul\":11279:11284   */\n      dup2\n        /* \"#utility.yul\":11268:11284   */\n      swap1\n      pop\n        /* \"#utility.yul\":11258:11290   */\n      swap2\n      swap1\n      pop\n      jump\t// out\n        /* \"#utility.yul\":11296:11476   */\n    tag_249:\n        /* \"#utility.yul\":11344:11421   */\n      0x4e487b7100000000000000000000000000000000000000000000000000000000\n        /* \"#utility.yul\":11341:11342   */\n      0x00\n        /* \"#utility.yul\":11334:11422   */\n      mstore\n        /* \"#utility.yul\":11441:11445   */\n      0x11\n        /* \"#utility.yul\":11438:11439   */\n      0x04\n        /* \"#utility.yul\":11431:11446   */\n      mstore\n        /* \"#utility.yul\":11465:11469   */\n      0x24\n        /* \"#utility.yul\":11462:11463   */\n      0x00\n        /* \"#utility.yul\":11455:11470   */\n      revert\n        /* \"#utility.yul\":11482:11584   */\n    tag_177:\n      0x00\n        /* \"#utility.yul\":11574:11576   */\n      0x1f\n        /* \"#utility.yul\":11570:11577   */\n      not\n        /* \"#utility.yul\":11565:11567   */\n      0x1f\n        /* \"#utility.yul\":11558:11563   */\n      dup4\n        /* \"#utility.yul\":11554:11568   */\n      add\n        /* \"#utility.yul\":11550:11578   */\n      and\n        /* \"#utility.yul\":11540:11578   */\n      swap1\n      pop\n        /* \"#utility.yul\":11530:11584   */\n      swap2\n      swap1\n      pop\n      jump\t// out\n        /* \"#utility.yul\":11590:11684   */\n    tag_272:\n      0x00\n        /* \"#utility.yul\":11671:11676   */\n      dup2\n        /* \"#utility.yul\":11667:11669   */\n      0x60\n        /* \"#utility.yul\":11663:11677   */\n      shl\n        /* \"#utility.yul\":11642:11677   */\n      swap1\n      pop\n        /* \"#utility.yul\":11632:11684   */\n      swap2\n      swap1\n      pop\n      jump\t// out\n        /* \"#utility.yul\":11690:11988   */\n    tag_182:\n        /* \"#utility.yul\":11830:11864   */\n      0x6d757374207570646174652074686520555344432062616c616e636520776974\n        /* \"#utility.yul\":11826:11827   */\n      0x00\n        /* \"#utility.yul\":11818:11824   */\n      dup3\n        /* \"#utility.yul\":11814:11828   */\n      add\n        /* \"#utility.yul\":11807:11865   */\n      mstore\n        /* \"#utility.yul\":11899:11933   */\n      0x6820612028706f736974697665206f72206e6567617469766529206e6f6e2d7a\n        /* \"#utility.yul\":11894:11896   */\n      0x20\n        /* \"#utility.yul\":11886:11892   */\n      dup3\n        /* \"#utility.yul\":11882:11897   */\n      add\n        /* \"#utility.yul\":11875:11934   */\n      mstore\n        /* \"#utility.yul\":11968:11980   */\n      0x65726f20616d6f756e7400000000000000000000000000000000000000000000\n        /* \"#utility.yul\":11963:11965   */\n      0x40\n        /* \"#utility.yul\":11955:11961   */\n      dup3\n        /* \"#utility.yul\":11951:11966   */\n      add\n        /* \"#utility.yul\":11944:11981   */\n      mstore\n        /* \"#utility.yul\":11796:11988   */\n      pop\n      jump\t// out\n        /* \"#utility.yul\":11994:12219   */\n    tag_187:\n        /* \"#utility.yul\":12134:12168   */\n      0x4f776e61626c653a206e6577206f776e657220697320746865207a65726f2061\n        /* \"#utility.yul\":12130:12131   */\n      0x00\n        /* \"#utility.yul\":12122:12128   */\n      dup3\n        /* \"#utility.yul\":12118:12132   */\n      add\n        /* \"#utility.yul\":12111:12169   */\n      mstore\n        /* \"#utility.yul\":12203:12211   */\n      0x6464726573730000000000000000000000000000000000000000000000000000\n        /* \"#utility.yul\":12198:12200   */\n      0x20\n        /* \"#utility.yul\":12190:12196   */\n      dup3\n        /* \"#utility.yul\":12186:12201   */\n      add\n        /* \"#utility.yul\":12179:12212   */\n      mstore\n        /* \"#utility.yul\":12100:12219   */\n      pop\n      jump\t// out\n        /* \"#utility.yul\":12225:12407   */\n    tag_193:\n        /* \"#utility.yul\":12365:12399   */\n      0x63616e6e6f7420646563726561736520555344432062616c616e6365206f6620\n        /* \"#utility.yul\":12361:12362   */\n      0x00\n        /* \"#utility.yul\":12353:12359   */\n      dup3\n        /* \"#utility.yul\":12349:12363   */\n      add\n        /* \"#utility.yul\":12342:12400   */\n      mstore\n        /* \"#utility.yul\":12331:12407   */\n      pop\n      jump\t// out\n        /* \"#utility.yul\":12413:12595   */\n    tag_198:\n        /* \"#utility.yul\":12553:12587   */\n      0x4f776e61626c653a2063616c6c6572206973206e6f7420746865206f776e6572\n        /* \"#utility.yul\":12549:12550   */\n      0x00\n        /* \"#utility.yul\":12541:12547   */\n      dup3\n        /* \"#utility.yul\":12537:12551   */\n      add\n        /* \"#utility.yul\":12530:12588   */\n      mstore\n        /* \"#utility.yul\":12519:12595   */\n      pop\n      jump\t// out\n        /* \"#utility.yul\":12601:12831   */\n    tag_203:\n        /* \"#utility.yul\":12741:12775   */\n      0x616d6f756e74207472616e73666572726564206d757374206265206120706f73\n        /* \"#utility.yul\":12737:12738   */\n      0x00\n        /* \"#utility.yul\":12729:12735   */\n      dup3\n        /* \"#utility.yul\":12725:12739   */\n      add\n        /* \"#utility.yul\":12718:12776   */\n      mstore\n        /* \"#utility.yul\":12810:12823   */\n      0x69746976652076616c7565000000000000000000000000000000000000000000\n        /* \"#utility.yul\":12805:12807   */\n      0x20\n        /* \"#utility.yul\":12797:12803   */\n      dup3\n        /* \"#utility.yul\":12793:12808   */\n      add\n        /* \"#utility.yul\":12786:12824   */\n      mstore\n        /* \"#utility.yul\":12707:12831   */\n      pop\n      jump\t// out\n        /* \"#utility.yul\":12837:13059   */\n    tag_208:\n        /* \"#utility.yul\":12977:13011   */\n      0x206279206d6f7265207468616e20746865206578697374696e672062616c616e\n        /* \"#utility.yul\":12973:12974   */\n      0x00\n        /* \"#utility.yul\":12965:12971   */\n      dup3\n        /* \"#utility.yul\":12961:12975   */\n      add\n        /* \"#utility.yul\":12954:13012   */\n      mstore\n        /* \"#utility.yul\":13046:13051   */\n      0x6365200000000000000000000000000000000000000000000000000000000000\n        /* \"#utility.yul\":13041:13043   */\n      0x20\n        /* \"#utility.yul\":13033:13039   */\n      dup3\n        /* \"#utility.yul\":13029:13044   */\n      add\n        /* \"#utility.yul\":13022:13052   */\n      mstore\n        /* \"#utility.yul\":12943:13059   */\n      pop\n      jump\t// out\n        /* \"#utility.yul\":13065:13187   */\n    tag_132:\n        /* \"#utility.yul\":13138:13162   */\n      tag_284\n        /* \"#utility.yul\":13156:13161   */\n      dup2\n        /* \"#utility.yul\":13138:13162   */\n      tag_162\n      jump\t// in\n    tag_284:\n        /* \"#utility.yul\":13131:13136   */\n      dup2\n        /* \"#utility.yul\":13128:13163   */\n      eq\n        /* \"#utility.yul\":13118:13120   */\n      tag_285\n      jumpi\n        /* \"#utility.yul\":13177:13178   */\n      0x00\n        /* \"#utility.yul\":13174:13175   */\n      dup1\n        /* \"#utility.yul\":13167:13179   */\n      revert\n        /* \"#utility.yul\":13118:13120   */\n    tag_285:\n        /* \"#utility.yul\":13108:13187   */\n      pop\n      jump\t// out\n        /* \"#utility.yul\":13193:13309   */\n    tag_136:\n        /* \"#utility.yul\":13263:13284   */\n      tag_287\n        /* \"#utility.yul\":13278:13283   */\n      dup2\n        /* \"#utility.yul\":13263:13284   */\n      tag_258\n      jump\t// in\n    tag_287:\n        /* \"#utility.yul\":13256:13261   */\n      dup2\n        /* \"#utility.yul\":13253:13285   */\n      eq\n        /* \"#utility.yul\":13243:13245   */\n      tag_288\n      jumpi\n        /* \"#utility.yul\":13299:13300   */\n      0x00\n        /* \"#utility.yul\":13296:13297   */\n      dup1\n        /* \"#utility.yul\":13289:13301   */\n      revert\n        /* \"#utility.yul\":13243:13245   */\n    tag_288:\n        /* \"#utility.yul\":13233:13309   */\n      pop\n      jump\t// out\n        /* \"#utility.yul\":13315:13437   */\n    tag_140:\n        /* \"#utility.yul\":13388:13412   */\n      tag_290\n        /* \"#utility.yul\":13406:13411   */\n      dup2\n        /* \"#utility.yul\":13388:13412   */\n      tag_212\n      jump\t// in\n    tag_290:\n        /* \"#utility.yul\":13381:13386   */\n      dup2\n        /* \"#utility.yul\":13378:13413   */\n      eq\n        /* \"#utility.yul\":13368:13370   */\n      tag_291\n      jumpi\n        /* \"#utility.yul\":13427:13428   */\n      0x00\n        /* \"#utility.yul\":13424:13425   */\n      dup1\n        /* \"#utility.yul\":13417:13429   */\n      revert\n        /* \"#utility.yul\":13368:13370   */\n    tag_291:\n        /* \"#utility.yul\":13358:13437   */\n      pop\n      jump\t// out\n\n    auxdata: 0xa26469706673582212201672f37002940cea31ceed8ba777d6622aa5aa86c02060dd472cb37c699cfdfb64736f6c63430008010033\n}\n",
				"bytecode": {
					"linkReferences": {},
					"object": "608060405273e11a86849d99f524cac3e7a0ec1241828e332c62600160006101000a81548173ffffffffffffffffffffffffffffffffffffffff021916908373ffffffffffffffffffffffffffffffffffffffff16021790555034801561006557600080fd5b5061008261007761008760201b60201c565b61008f60201b60201c565b610153565b600033905090565b60008060009054906101000a900473ffffffffffffffffffffffffffffffffffffffff169050816000806101000a81548173ffffffffffffffffffffffffffffffffffffffff021916908373ffffffffffffffffffffffffffffffffffffffff1602179055508173ffffffffffffffffffffffffffffffffffffffff168173ffffffffffffffffffffffffffffffffffffffff167f8be0079c531659141344cd1fd0a4f28419497f9722a3daafe3b4186f6b6457e060405160405180910390a35050565b611227806101626000396000f3fe608060405234801561001057600080fd5b506004361061009e5760003560e01c80638da5cb5b116100665780638da5cb5b14610131578063a99c68c51461014f578063bf006f0e1461017f578063ddb4acd01461019b578063f2fde38b146101b75761009e565b8063441b1a44146100a357806345ad5350146100bf578063532b2913146100db57806369b49adc146100f7578063715018a614610127575b600080fd5b6100bd60048036038101906100b89190610acc565b6101d3565b005b6100d960048036038101906100d49190610b1b565b610268565b005b6100f560048036038101906100f09190610b1b565b610328565b005b610111600480360381019061010c9190610aa3565b610527565b60405161011e9190610e36565b60405180910390f35b61012f610570565b005b6101396105f8565b6040516101469190610d42565b60405180910390f35b61016960048036038101906101649190610aa3565b610621565b6040516101769190610e36565b60405180910390f35b61019960048036038101906101949190610b1b565b610639565b005b6101b560048036038101906101b09190610b80565b610752565b005b6101d160048036038101906101cc9190610aa3565b6108a0565b005b6101db610998565b73ffffffffffffffffffffffffffffffffffffffff166101f96105f8565b73ffffffffffffffffffffffffffffffffffffffff161461024f576040517f08c379a000000000000000000000000000000000000000000000000000000000815260040161024690610df6565b60405180910390fd5b6102598382610328565b6102638282610639565b505050565b6102728282610328565b600160009054906101000a900473ffffffffffffffffffffffffffffffffffffffff1673ffffffffffffffffffffffffffffffffffffffff166323b872dd3084846040518463ffffffff1660e01b81526004016102d193929190610d5d565b602060405180830381600087803b1580156102eb57600080fd5b505af11580156102ff573d6000803e3d6000fd5b505050506040513d601f19601f820116820180604052508101906103239190610b57565b505050565b610330610998565b73ffffffffffffffffffffffffffffffffffffffff1661034e6105f8565b73ffffffffffffffffffffffffffffffffffffffff16146103a4576040517f08c379a000000000000000000000000000000000000000000000000000000000815260040161039b90610df6565b60405180910390fd5b600081116103e7576040517f08c379a00000000000000000000000000000000000000000000000000000000081526004016103de90610db6565b60405180910390fd5b600260008373ffffffffffffffffffffffffffffffffffffffff1673ffffffffffffffffffffffffffffffffffffffff1681526020019081526020016000205481111582600260008573ffffffffffffffffffffffffffffffffffffffff1673ffffffffffffffffffffffffffffffffffffffff1681526020019081526020016000205460405160200161047c929190610d00565b604051602081830303815290604052906104cc576040517f08c379a00000000000000000000000000000000000000000000000000000000081526004016104c39190610d94565b60405180910390fd5b5080600260008473ffffffffffffffffffffffffffffffffffffffff1673ffffffffffffffffffffffffffffffffffffffff168152602001908152602001600020600082825461051c9190610ece565b925050819055505050565b6000600260008373ffffffffffffffffffffffffffffffffffffffff1673ffffffffffffffffffffffffffffffffffffffff168152602001908152602001600020549050919050565b610578610998565b73ffffffffffffffffffffffffffffffffffffffff166105966105f8565b73ffffffffffffffffffffffffffffffffffffffff16146105ec576040517f08c379a00000000000000000000000000000000000000000000000000000000081526004016105e390610df6565b60405180910390fd5b6105f660006109a0565b565b60008060009054906101000a900473ffffffffffffffffffffffffffffffffffffffff16905090565b60026020528060005260406000206000915090505481565b610641610998565b73ffffffffffffffffffffffffffffffffffffffff1661065f6105f8565b73ffffffffffffffffffffffffffffffffffffffff16146106b5576040517f08c379a00000000000000000000000000000000000000000000000000000000081526004016106ac90610df6565b60405180910390fd5b600081116106f8576040517f08c379a00000000000000000000000000000000000000000000000000000000081526004016106ef90610db6565b60405180910390fd5b80600260008473ffffffffffffffffffffffffffffffffffffffff1673ffffffffffffffffffffffffffffffffffffffff16815260200190815260200160002060008282546107479190610e78565b925050819055505050565b60008111610795576040517f08c379a000000000000000000000000000000000000000000000000000000000815260040161078c90610e16565b60405180910390fd5b600160009054906101000a900473ffffffffffffffffffffffffffffffffffffffff1673ffffffffffffffffffffffffffffffffffffffff166323b872dd3330846040518463ffffffff1660e01b81526004016107f493929190610d5d565b602060405180830381600087803b15801561080e57600080fd5b505af1158015610822573d6000803e3d6000fd5b505050506040513d601f19601f820116820180604052508101906108469190610b57565b5080600260003373ffffffffffffffffffffffffffffffffffffffff1673ffffffffffffffffffffffffffffffffffffffff16815260200190815260200160002060008282546108969190610e78565b9250508190555050565b6108a8610998565b73ffffffffffffffffffffffffffffffffffffffff166108c66105f8565b73ffffffffffffffffffffffffffffffffffffffff161461091c576040517f08c379a000000000000000000000000000000000000000000000000000000000815260040161091390610df6565b60405180910390fd5b600073ffffffffffffffffffffffffffffffffffffffff168173ffffffffffffffffffffffffffffffffffffffff16141561098c576040517f08c379a000000000000000000000000000000000000000000000000000000000815260040161098390610dd6565b60405180910390fd5b610995816109a0565b50565b600033905090565b60008060009054906101000a900473ffffffffffffffffffffffffffffffffffffffff169050816000806101000a81548173ffffffffffffffffffffffffffffffffffffffff021916908373ffffffffffffffffffffffffffffffffffffffff1602179055508173ffffffffffffffffffffffffffffffffffffffff168173ffffffffffffffffffffffffffffffffffffffff167f8be0079c531659141344cd1fd0a4f28419497f9722a3daafe3b4186f6b6457e060405160405180910390a35050565b600081359050610a73816111ac565b92915050565b600081519050610a88816111c3565b92915050565b600081359050610a9d816111da565b92915050565b600060208284031215610ab557600080fd5b6000610ac384828501610a64565b91505092915050565b600080600060608486031215610ae157600080fd5b6000610aef86828701610a64565b9350506020610b0086828701610a64565b9250506040610b1186828701610a8e565b9150509250925092565b60008060408385031215610b2e57600080fd5b6000610b3c85828601610a64565b9250506020610b4d85828601610a8e565b9150509250929050565b600060208284031215610b6957600080fd5b6000610b7784828501610a79565b91505092915050565b600060208284031215610b9257600080fd5b6000610ba084828501610a8e565b91505092915050565b610bb281610f02565b82525050565b610bc9610bc482610f02565b610f7d565b82525050565b6000610bda82610e51565b610be48185610e5c565b9350610bf4818560208601610f4a565b610bfd81610fda565b840191505092915050565b6000610c15604a83610e5c565b9150610c2082610ff8565b606082019050919050565b6000610c38602683610e5c565b9150610c438261106d565b604082019050919050565b6000610c5b602083610e6d565b9150610c66826110bc565b602082019050919050565b6000610c7e602083610e5c565b9150610c89826110e5565b602082019050919050565b6000610ca1602b83610e5c565b9150610cac8261110e565b604082019050919050565b6000610cc4602383610e6d565b9150610ccf8261115d565b602382019050919050565b610ce381610f40565b82525050565b610cfa610cf582610f40565b610fa1565b82525050565b6000610d0b82610c4e565b9150610d178285610bb8565b601482019150610d2682610cb7565b9150610d328284610ce9565b6020820191508190509392505050565b6000602082019050610d576000830184610ba9565b92915050565b6000606082019050610d726000830186610ba9565b610d7f6020830185610ba9565b610d8c6040830184610cda565b949350505050565b60006020820190508181036000830152610dae8184610bcf565b905092915050565b60006020820190508181036000830152610dcf81610c08565b9050919050565b60006020820190508181036000830152610def81610c2b565b9050919050565b60006020820190508181036000830152610e0f81610c71565b9050919050565b60006020820190508181036000830152610e2f81610c94565b9050919050565b6000602082019050610e4b6000830184610cda565b92915050565b600081519050919050565b600082825260208201905092915050565b600081905092915050565b6000610e8382610f40565b9150610e8e83610f40565b9250827fffffffffffffffffffffffffffffffffffffffffffffffffffffffffffffffff03821115610ec357610ec2610fab565b5b828201905092915050565b6000610ed982610f40565b9150610ee483610f40565b925082821015610ef757610ef6610fab565b5b828203905092915050565b6000610f0d82610f20565b9050919050565b60008115159050919050565b600073ffffffffffffffffffffffffffffffffffffffff82169050919050565b6000819050919050565b60005b83811015610f68578082015181840152602081019050610f4d565b83811115610f77576000848401525b50505050565b6000610f8882610f8f565b9050919050565b6000610f9a82610feb565b9050919050565b6000819050919050565b7f4e487b7100000000000000000000000000000000000000000000000000000000600052601160045260246000fd5b6000601f19601f8301169050919050565b60008160601b9050919050565b7f6d757374207570646174652074686520555344432062616c616e63652077697460008201527f6820612028706f736974697665206f72206e6567617469766529206e6f6e2d7a60208201527f65726f20616d6f756e7400000000000000000000000000000000000000000000604082015250565b7f4f776e61626c653a206e6577206f776e657220697320746865207a65726f206160008201527f6464726573730000000000000000000000000000000000000000000000000000602082015250565b7f63616e6e6f7420646563726561736520555344432062616c616e6365206f6620600082015250565b7f4f776e61626c653a2063616c6c6572206973206e6f7420746865206f776e6572600082015250565b7f616d6f756e74207472616e73666572726564206d757374206265206120706f7360008201527f69746976652076616c7565000000000000000000000000000000000000000000602082015250565b7f206279206d6f7265207468616e20746865206578697374696e672062616c616e60008201527f6365200000000000000000000000000000000000000000000000000000000000602082015250565b6111b581610f02565b81146111c057600080fd5b50565b6111cc81610f14565b81146111d757600080fd5b50565b6111e381610f40565b81146111ee57600080fd5b5056fea26469706673582212201672f37002940cea31ceed8ba777d6622aa5aa86c02060dd472cb37c699cfdfb64736f6c63430008010033",
					"opcodes": "PUSH1 0x80 PUSH1 0x40 MSTORE PUSH20 0xE11A86849D99F524CAC3E7A0EC1241828E332C62 PUSH1 0x1 PUSH1 0x0 PUSH2 0x100 EXP DUP2 SLOAD DUP2 PUSH20 0xFFFFFFFFFFFFFFFFFFFFFFFFFFFFFFFFFFFFFFFF MUL NOT AND SWAP1 DUP4 PUSH20 0xFFFFFFFFFFFFFFFFFFFFFFFFFFFFFFFFFFFFFFFF AND MUL OR SWAP1 SSTORE POP CALLVALUE DUP1 ISZERO PUSH2 0x65 JUMPI PUSH1 0x0 DUP1 REVERT JUMPDEST POP PUSH2 0x82 PUSH2 0x77 PUSH2 0x87 PUSH1 0x20 SHL PUSH1 0x20 SHR JUMP JUMPDEST PUSH2 0x8F PUSH1 0x20 SHL PUSH1 0x20 SHR JUMP JUMPDEST PUSH2 0x153 JUMP JUMPDEST PUSH1 0x0 CALLER SWAP1 POP SWAP1 JUMP JUMPDEST PUSH1 0x0 DUP1 PUSH1 0x0 SWAP1 SLOAD SWAP1 PUSH2 0x100 EXP SWAP1 DIV PUSH20 0xFFFFFFFFFFFFFFFFFFFFFFFFFFFFFFFFFFFFFFFF AND SWAP1 POP DUP2 PUSH1 0x0 DUP1 PUSH2 0x100 EXP DUP2 SLOAD DUP2 PUSH20 0xFFFFFFFFFFFFFFFFFFFFFFFFFFFFFFFFFFFFFFFF MUL NOT AND SWAP1 DUP4 PUSH20 0xFFFFFFFFFFFFFFFFFFFFFFFFFFFFFFFFFFFFFFFF AND MUL OR SWAP1 SSTORE POP DUP2 PUSH20 0xFFFFFFFFFFFFFFFFFFFFFFFFFFFFFFFFFFFFFFFF AND DUP2 PUSH20 0xFFFFFFFFFFFFFFFFFFFFFFFFFFFFFFFFFFFFFFFF AND PUSH32 0x8BE0079C531659141344CD1FD0A4F28419497F9722A3DAAFE3B4186F6B6457E0 PUSH1 0x40 MLOAD PUSH1 0x40 MLOAD DUP1 SWAP2 SUB SWAP1 LOG3 POP POP JUMP JUMPDEST PUSH2 0x1227 DUP1 PUSH2 0x162 PUSH1 0x0 CODECOPY PUSH1 0x0 RETURN INVALID PUSH1 0x80 PUSH1 0x40 MSTORE CALLVALUE DUP1 ISZERO PUSH2 0x10 JUMPI PUSH1 0x0 DUP1 REVERT JUMPDEST POP PUSH1 0x4 CALLDATASIZE LT PUSH2 0x9E JUMPI PUSH1 0x0 CALLDATALOAD PUSH1 0xE0 SHR DUP1 PUSH4 0x8DA5CB5B GT PUSH2 0x66 JUMPI DUP1 PUSH4 0x8DA5CB5B EQ PUSH2 0x131 JUMPI DUP1 PUSH4 0xA99C68C5 EQ PUSH2 0x14F JUMPI DUP1 PUSH4 0xBF006F0E EQ PUSH2 0x17F JUMPI DUP1 PUSH4 0xDDB4ACD0 EQ PUSH2 0x19B JUMPI DUP1 PUSH4 0xF2FDE38B EQ PUSH2 0x1B7 JUMPI PUSH2 0x9E JUMP JUMPDEST DUP1 PUSH4 0x441B1A44 EQ PUSH2 0xA3 JUMPI DUP1 PUSH4 0x45AD5350 EQ PUSH2 0xBF JUMPI DUP1 PUSH4 0x532B2913 EQ PUSH2 0xDB JUMPI DUP1 PUSH4 0x69B49ADC EQ PUSH2 0xF7 JUMPI DUP1 PUSH4 0x715018A6 EQ PUSH2 0x127 JUMPI JUMPDEST PUSH1 0x0 DUP1 REVERT JUMPDEST PUSH2 0xBD PUSH1 0x4 DUP1 CALLDATASIZE SUB DUP2 ADD SWAP1 PUSH2 0xB8 SWAP2 SWAP1 PUSH2 0xACC JUMP JUMPDEST PUSH2 0x1D3 JUMP JUMPDEST STOP JUMPDEST PUSH2 0xD9 PUSH1 0x4 DUP1 CALLDATASIZE SUB DUP2 ADD SWAP1 PUSH2 0xD4 SWAP2 SWAP1 PUSH2 0xB1B JUMP JUMPDEST PUSH2 0x268 JUMP JUMPDEST STOP JUMPDEST PUSH2 0xF5 PUSH1 0x4 DUP1 CALLDATASIZE SUB DUP2 ADD SWAP1 PUSH2 0xF0 SWAP2 SWAP1 PUSH2 0xB1B JUMP JUMPDEST PUSH2 0x328 JUMP JUMPDEST STOP JUMPDEST PUSH2 0x111 PUSH1 0x4 DUP1 CALLDATASIZE SUB DUP2 ADD SWAP1 PUSH2 0x10C SWAP2 SWAP1 PUSH2 0xAA3 JUMP JUMPDEST PUSH2 0x527 JUMP JUMPDEST PUSH1 0x40 MLOAD PUSH2 0x11E SWAP2 SWAP1 PUSH2 0xE36 JUMP JUMPDEST PUSH1 0x40 MLOAD DUP1 SWAP2 SUB SWAP1 RETURN JUMPDEST PUSH2 0x12F PUSH2 0x570 JUMP JUMPDEST STOP JUMPDEST PUSH2 0x139 PUSH2 0x5F8 JUMP JUMPDEST PUSH1 0x40 MLOAD PUSH2 0x146 SWAP2 SWAP1 PUSH2 0xD42 JUMP JUMPDEST PUSH1 0x40 MLOAD DUP1 SWAP2 SUB SWAP1 RETURN JUMPDEST PUSH2 0x169 PUSH1 0x4 DUP1 CALLDATASIZE SUB DUP2 ADD SWAP1 PUSH2 0x164 SWAP2 SWAP1 PUSH2 0xAA3 JUMP JUMPDEST PUSH2 0x621 JUMP JUMPDEST PUSH1 0x40 MLOAD PUSH2 0x176 SWAP2 SWAP1 PUSH2 0xE36 JUMP JUMPDEST PUSH1 0x40 MLOAD DUP1 SWAP2 SUB SWAP1 RETURN JUMPDEST PUSH2 0x199 PUSH1 0x4 DUP1 CALLDATASIZE SUB DUP2 ADD SWAP1 PUSH2 0x194 SWAP2 SWAP1 PUSH2 0xB1B JUMP JUMPDEST PUSH2 0x639 JUMP JUMPDEST STOP JUMPDEST PUSH2 0x1B5 PUSH1 0x4 DUP1 CALLDATASIZE SUB DUP2 ADD SWAP1 PUSH2 0x1B0 SWAP2 SWAP1 PUSH2 0xB80 JUMP JUMPDEST PUSH2 0x752 JUMP JUMPDEST STOP JUMPDEST PUSH2 0x1D1 PUSH1 0x4 DUP1 CALLDATASIZE SUB DUP2 ADD SWAP1 PUSH2 0x1CC SWAP2 SWAP1 PUSH2 0xAA3 JUMP JUMPDEST PUSH2 0x8A0 JUMP JUMPDEST STOP JUMPDEST PUSH2 0x1DB PUSH2 0x998 JUMP JUMPDEST PUSH20 0xFFFFFFFFFFFFFFFFFFFFFFFFFFFFFFFFFFFFFFFF AND PUSH2 0x1F9 PUSH2 0x5F8 JUMP JUMPDEST PUSH20 0xFFFFFFFFFFFFFFFFFFFFFFFFFFFFFFFFFFFFFFFF AND EQ PUSH2 0x24F JUMPI PUSH1 0x40 MLOAD PUSH32 0x8C379A000000000000000000000000000000000000000000000000000000000 DUP2 MSTORE PUSH1 0x4 ADD PUSH2 0x246 SWAP1 PUSH2 0xDF6 JUMP JUMPDEST PUSH1 0x40 MLOAD DUP1 SWAP2 SUB SWAP1 REVERT JUMPDEST PUSH2 0x259 DUP4 DUP3 PUSH2 0x328 JUMP JUMPDEST PUSH2 0x263 DUP3 DUP3 PUSH2 0x639 JUMP JUMPDEST POP POP POP JUMP JUMPDEST PUSH2 0x272 DUP3 DUP3 PUSH2 0x328 JUMP JUMPDEST PUSH1 0x1 PUSH1 0x0 SWAP1 SLOAD SWAP1 PUSH2 0x100 EXP SWAP1 DIV PUSH20 0xFFFFFFFFFFFFFFFFFFFFFFFFFFFFFFFFFFFFFFFF AND PUSH20 0xFFFFFFFFFFFFFFFFFFFFFFFFFFFFFFFFFFFFFFFF AND PUSH4 0x23B872DD ADDRESS DUP5 DUP5 PUSH1 0x40 MLOAD DUP5 PUSH4 0xFFFFFFFF AND PUSH1 0xE0 SHL DUP2 MSTORE PUSH1 0x4 ADD PUSH2 0x2D1 SWAP4 SWAP3 SWAP2 SWAP1 PUSH2 0xD5D JUMP JUMPDEST PUSH1 0x20 PUSH1 0x40 MLOAD DUP1 DUP4 SUB DUP2 PUSH1 0x0 DUP8 DUP1 EXTCODESIZE ISZERO DUP1 ISZERO PUSH2 0x2EB JUMPI PUSH1 0x0 DUP1 REVERT JUMPDEST POP GAS CALL ISZERO DUP1 ISZERO PUSH2 0x2FF JUMPI RETURNDATASIZE PUSH1 0x0 DUP1 RETURNDATACOPY RETURNDATASIZE PUSH1 0x0 REVERT JUMPDEST POP POP POP POP PUSH1 0x40 MLOAD RETURNDATASIZE PUSH1 0x1F NOT PUSH1 0x1F DUP3 ADD AND DUP3 ADD DUP1 PUSH1 0x40 MSTORE POP DUP2 ADD SWAP1 PUSH2 0x323 SWAP2 SWAP1 PUSH2 0xB57 JUMP JUMPDEST POP POP POP JUMP JUMPDEST PUSH2 0x330 PUSH2 0x998 JUMP JUMPDEST PUSH20 0xFFFFFFFFFFFFFFFFFFFFFFFFFFFFFFFFFFFFFFFF AND PUSH2 0x34E PUSH2 0x5F8 JUMP JUMPDEST PUSH20 0xFFFFFFFFFFFFFFFFFFFFFFFFFFFFFFFFFFFFFFFF AND EQ PUSH2 0x3A4 JUMPI PUSH1 0x40 MLOAD PUSH32 0x8C379A000000000000000000000000000000000000000000000000000000000 DUP2 MSTORE PUSH1 0x4 ADD PUSH2 0x39B SWAP1 PUSH2 0xDF6 JUMP JUMPDEST PUSH1 0x40 MLOAD DUP1 SWAP2 SUB SWAP1 REVERT JUMPDEST PUSH1 0x0 DUP2 GT PUSH2 0x3E7 JUMPI PUSH1 0x40 MLOAD PUSH32 0x8C379A000000000000000000000000000000000000000000000000000000000 DUP2 MSTORE PUSH1 0x4 ADD PUSH2 0x3DE SWAP1 PUSH2 0xDB6 JUMP JUMPDEST PUSH1 0x40 MLOAD DUP1 SWAP2 SUB SWAP1 REVERT JUMPDEST PUSH1 0x2 PUSH1 0x0 DUP4 PUSH20 0xFFFFFFFFFFFFFFFFFFFFFFFFFFFFFFFFFFFFFFFF AND PUSH20 0xFFFFFFFFFFFFFFFFFFFFFFFFFFFFFFFFFFFFFFFF AND DUP2 MSTORE PUSH1 0x20 ADD SWAP1 DUP2 MSTORE PUSH1 0x20 ADD PUSH1 0x0 KECCAK256 SLOAD DUP2 GT ISZERO DUP3 PUSH1 0x2 PUSH1 0x0 DUP6 PUSH20 0xFFFFFFFFFFFFFFFFFFFFFFFFFFFFFFFFFFFFFFFF AND PUSH20 0xFFFFFFFFFFFFFFFFFFFFFFFFFFFFFFFFFFFFFFFF AND DUP2 MSTORE PUSH1 0x20 ADD SWAP1 DUP2 MSTORE PUSH1 0x20 ADD PUSH1 0x0 KECCAK256 SLOAD PUSH1 0x40 MLOAD PUSH1 0x20 ADD PUSH2 0x47C SWAP3 SWAP2 SWAP1 PUSH2 0xD00 JUMP JUMPDEST PUSH1 0x40 MLOAD PUSH1 0x20 DUP2 DUP4 SUB SUB DUP2 MSTORE SWAP1 PUSH1 0x40 MSTORE SWAP1 PUSH2 0x4CC JUMPI PUSH1 0x40 MLOAD PUSH32 0x8C379A000000000000000000000000000000000000000000000000000000000 DUP2 MSTORE PUSH1 0x4 ADD PUSH2 0x4C3 SWAP2 SWAP1 PUSH2 0xD94 JUMP JUMPDEST PUSH1 0x40 MLOAD DUP1 SWAP2 SUB SWAP1 REVERT JUMPDEST POP DUP1 PUSH1 0x2 PUSH1 0x0 DUP5 PUSH20 0xFFFFFFFFFFFFFFFFFFFFFFFFFFFFFFFFFFFFFFFF AND PUSH20 0xFFFFFFFFFFFFFFFFFFFFFFFFFFFFFFFFFFFFFFFF AND DUP2 MSTORE PUSH1 0x20 ADD SWAP1 DUP2 MSTORE PUSH1 0x20 ADD PUSH1 0x0 KECCAK256 PUSH1 0x0 DUP3 DUP3 SLOAD PUSH2 0x51C SWAP2 SWAP1 PUSH2 0xECE JUMP JUMPDEST SWAP3 POP POP DUP2 SWAP1 SSTORE POP POP POP JUMP JUMPDEST PUSH1 0x0 PUSH1 0x2 PUSH1 0x0 DUP4 PUSH20 0xFFFFFFFFFFFFFFFFFFFFFFFFFFFFFFFFFFFFFFFF AND PUSH20 0xFFFFFFFFFFFFFFFFFFFFFFFFFFFFFFFFFFFFFFFF AND DUP2 MSTORE PUSH1 0x20 ADD SWAP1 DUP2 MSTORE PUSH1 0x20 ADD PUSH1 0x0 KECCAK256 SLOAD SWAP1 POP SWAP2 SWAP1 POP JUMP JUMPDEST PUSH2 0x578 PUSH2 0x998 JUMP JUMPDEST PUSH20 0xFFFFFFFFFFFFFFFFFFFFFFFFFFFFFFFFFFFFFFFF AND PUSH2 0x596 PUSH2 0x5F8 JUMP JUMPDEST PUSH20 0xFFFFFFFFFFFFFFFFFFFFFFFFFFFFFFFFFFFFFFFF AND EQ PUSH2 0x5EC JUMPI PUSH1 0x40 MLOAD PUSH32 0x8C379A000000000000000000000000000000000000000000000000000000000 DUP2 MSTORE PUSH1 0x4 ADD PUSH2 0x5E3 SWAP1 PUSH2 0xDF6 JUMP JUMPDEST PUSH1 0x40 MLOAD DUP1 SWAP2 SUB SWAP1 REVERT JUMPDEST PUSH2 0x5F6 PUSH1 0x0 PUSH2 0x9A0 JUMP JUMPDEST JUMP JUMPDEST PUSH1 0x0 DUP1 PUSH1 0x0 SWAP1 SLOAD SWAP1 PUSH2 0x100 EXP SWAP1 DIV PUSH20 0xFFFFFFFFFFFFFFFFFFFFFFFFFFFFFFFFFFFFFFFF AND SWAP1 POP SWAP1 JUMP JUMPDEST PUSH1 0x2 PUSH1 0x20 MSTORE DUP1 PUSH1 0x0 MSTORE PUSH1 0x40 PUSH1 0x0 KECCAK256 PUSH1 0x0 SWAP2 POP SWAP1 POP SLOAD DUP2 JUMP JUMPDEST PUSH2 0x641 PUSH2 0x998 JUMP JUMPDEST PUSH20 0xFFFFFFFFFFFFFFFFFFFFFFFFFFFFFFFFFFFFFFFF AND PUSH2 0x65F PUSH2 0x5F8 JUMP JUMPDEST PUSH20 0xFFFFFFFFFFFFFFFFFFFFFFFFFFFFFFFFFFFFFFFF AND EQ PUSH2 0x6B5 JUMPI PUSH1 0x40 MLOAD PUSH32 0x8C379A000000000000000000000000000000000000000000000000000000000 DUP2 MSTORE PUSH1 0x4 ADD PUSH2 0x6AC SWAP1 PUSH2 0xDF6 JUMP JUMPDEST PUSH1 0x40 MLOAD DUP1 SWAP2 SUB SWAP1 REVERT JUMPDEST PUSH1 0x0 DUP2 GT PUSH2 0x6F8 JUMPI PUSH1 0x40 MLOAD PUSH32 0x8C379A000000000000000000000000000000000000000000000000000000000 DUP2 MSTORE PUSH1 0x4 ADD PUSH2 0x6EF SWAP1 PUSH2 0xDB6 JUMP JUMPDEST PUSH1 0x40 MLOAD DUP1 SWAP2 SUB SWAP1 REVERT JUMPDEST DUP1 PUSH1 0x2 PUSH1 0x0 DUP5 PUSH20 0xFFFFFFFFFFFFFFFFFFFFFFFFFFFFFFFFFFFFFFFF AND PUSH20 0xFFFFFFFFFFFFFFFFFFFFFFFFFFFFFFFFFFFFFFFF AND DUP2 MSTORE PUSH1 0x20 ADD SWAP1 DUP2 MSTORE PUSH1 0x20 ADD PUSH1 0x0 KECCAK256 PUSH1 0x0 DUP3 DUP3 SLOAD PUSH2 0x747 SWAP2 SWAP1 PUSH2 0xE78 JUMP JUMPDEST SWAP3 POP POP DUP2 SWAP1 SSTORE POP POP POP JUMP JUMPDEST PUSH1 0x0 DUP2 GT PUSH2 0x795 JUMPI PUSH1 0x40 MLOAD PUSH32 0x8C379A000000000000000000000000000000000000000000000000000000000 DUP2 MSTORE PUSH1 0x4 ADD PUSH2 0x78C SWAP1 PUSH2 0xE16 JUMP JUMPDEST PUSH1 0x40 MLOAD DUP1 SWAP2 SUB SWAP1 REVERT JUMPDEST PUSH1 0x1 PUSH1 0x0 SWAP1 SLOAD SWAP1 PUSH2 0x100 EXP SWAP1 DIV PUSH20 0xFFFFFFFFFFFFFFFFFFFFFFFFFFFFFFFFFFFFFFFF AND PUSH20 0xFFFFFFFFFFFFFFFFFFFFFFFFFFFFFFFFFFFFFFFF AND PUSH4 0x23B872DD CALLER ADDRESS DUP5 PUSH1 0x40 MLOAD DUP5 PUSH4 0xFFFFFFFF AND PUSH1 0xE0 SHL DUP2 MSTORE PUSH1 0x4 ADD PUSH2 0x7F4 SWAP4 SWAP3 SWAP2 SWAP1 PUSH2 0xD5D JUMP JUMPDEST PUSH1 0x20 PUSH1 0x40 MLOAD DUP1 DUP4 SUB DUP2 PUSH1 0x0 DUP8 DUP1 EXTCODESIZE ISZERO DUP1 ISZERO PUSH2 0x80E JUMPI PUSH1 0x0 DUP1 REVERT JUMPDEST POP GAS CALL ISZERO DUP1 ISZERO PUSH2 0x822 JUMPI RETURNDATASIZE PUSH1 0x0 DUP1 RETURNDATACOPY RETURNDATASIZE PUSH1 0x0 REVERT JUMPDEST POP POP POP POP PUSH1 0x40 MLOAD RETURNDATASIZE PUSH1 0x1F NOT PUSH1 0x1F DUP3 ADD AND DUP3 ADD DUP1 PUSH1 0x40 MSTORE POP DUP2 ADD SWAP1 PUSH2 0x846 SWAP2 SWAP1 PUSH2 0xB57 JUMP JUMPDEST POP DUP1 PUSH1 0x2 PUSH1 0x0 CALLER PUSH20 0xFFFFFFFFFFFFFFFFFFFFFFFFFFFFFFFFFFFFFFFF AND PUSH20 0xFFFFFFFFFFFFFFFFFFFFFFFFFFFFFFFFFFFFFFFF AND DUP2 MSTORE PUSH1 0x20 ADD SWAP1 DUP2 MSTORE PUSH1 0x20 ADD PUSH1 0x0 KECCAK256 PUSH1 0x0 DUP3 DUP3 SLOAD PUSH2 0x896 SWAP2 SWAP1 PUSH2 0xE78 JUMP JUMPDEST SWAP3 POP POP DUP2 SWAP1 SSTORE POP POP JUMP JUMPDEST PUSH2 0x8A8 PUSH2 0x998 JUMP JUMPDEST PUSH20 0xFFFFFFFFFFFFFFFFFFFFFFFFFFFFFFFFFFFFFFFF AND PUSH2 0x8C6 PUSH2 0x5F8 JUMP JUMPDEST PUSH20 0xFFFFFFFFFFFFFFFFFFFFFFFFFFFFFFFFFFFFFFFF AND EQ PUSH2 0x91C JUMPI PUSH1 0x40 MLOAD PUSH32 0x8C379A000000000000000000000000000000000000000000000000000000000 DUP2 MSTORE PUSH1 0x4 ADD PUSH2 0x913 SWAP1 PUSH2 0xDF6 JUMP JUMPDEST PUSH1 0x40 MLOAD DUP1 SWAP2 SUB SWAP1 REVERT JUMPDEST PUSH1 0x0 PUSH20 0xFFFFFFFFFFFFFFFFFFFFFFFFFFFFFFFFFFFFFFFF AND DUP2 PUSH20 0xFFFFFFFFFFFFFFFFFFFFFFFFFFFFFFFFFFFFFFFF AND EQ ISZERO PUSH2 0x98C JUMPI PUSH1 0x40 MLOAD PUSH32 0x8C379A000000000000000000000000000000000000000000000000000000000 DUP2 MSTORE PUSH1 0x4 ADD PUSH2 0x983 SWAP1 PUSH2 0xDD6 JUMP JUMPDEST PUSH1 0x40 MLOAD DUP1 SWAP2 SUB SWAP1 REVERT JUMPDEST PUSH2 0x995 DUP2 PUSH2 0x9A0 JUMP JUMPDEST POP JUMP JUMPDEST PUSH1 0x0 CALLER SWAP1 POP SWAP1 JUMP JUMPDEST PUSH1 0x0 DUP1 PUSH1 0x0 SWAP1 SLOAD SWAP1 PUSH2 0x100 EXP SWAP1 DIV PUSH20 0xFFFFFFFFFFFFFFFFFFFFFFFFFFFFFFFFFFFFFFFF AND SWAP1 POP DUP2 PUSH1 0x0 DUP1 PUSH2 0x100 EXP DUP2 SLOAD DUP2 PUSH20 0xFFFFFFFFFFFFFFFFFFFFFFFFFFFFFFFFFFFFFFFF MUL NOT AND SWAP1 DUP4 PUSH20 0xFFFFFFFFFFFFFFFFFFFFFFFFFFFFFFFFFFFFFFFF AND MUL OR SWAP1 SSTORE POP DUP2 PUSH20 0xFFFFFFFFFFFFFFFFFFFFFFFFFFFFFFFFFFFFFFFF AND DUP2 PUSH20 0xFFFFFFFFFFFFFFFFFFFFFFFFFFFFFFFFFFFFFFFF AND PUSH32 0x8BE0079C531659141344CD1FD0A4F28419497F9722A3DAAFE3B4186F6B6457E0 PUSH1 0x40 MLOAD PUSH1 0x40 MLOAD DUP1 SWAP2 SUB SWAP1 LOG3 POP POP JUMP JUMPDEST PUSH1 0x0 DUP2 CALLDATALOAD SWAP1 POP PUSH2 0xA73 DUP2 PUSH2 0x11AC JUMP JUMPDEST SWAP3 SWAP2 POP POP JUMP JUMPDEST PUSH1 0x0 DUP2 MLOAD SWAP1 POP PUSH2 0xA88 DUP2 PUSH2 0x11C3 JUMP JUMPDEST SWAP3 SWAP2 POP POP JUMP JUMPDEST PUSH1 0x0 DUP2 CALLDATALOAD SWAP1 POP PUSH2 0xA9D DUP2 PUSH2 0x11DA JUMP JUMPDEST SWAP3 SWAP2 POP POP JUMP JUMPDEST PUSH1 0x0 PUSH1 0x20 DUP3 DUP5 SUB SLT ISZERO PUSH2 0xAB5 JUMPI PUSH1 0x0 DUP1 REVERT JUMPDEST PUSH1 0x0 PUSH2 0xAC3 DUP5 DUP3 DUP6 ADD PUSH2 0xA64 JUMP JUMPDEST SWAP2 POP POP SWAP3 SWAP2 POP POP JUMP JUMPDEST PUSH1 0x0 DUP1 PUSH1 0x0 PUSH1 0x60 DUP5 DUP7 SUB SLT ISZERO PUSH2 0xAE1 JUMPI PUSH1 0x0 DUP1 REVERT JUMPDEST PUSH1 0x0 PUSH2 0xAEF DUP7 DUP3 DUP8 ADD PUSH2 0xA64 JUMP JUMPDEST SWAP4 POP POP PUSH1 0x20 PUSH2 0xB00 DUP7 DUP3 DUP8 ADD PUSH2 0xA64 JUMP JUMPDEST SWAP3 POP POP PUSH1 0x40 PUSH2 0xB11 DUP7 DUP3 DUP8 ADD PUSH2 0xA8E JUMP JUMPDEST SWAP2 POP POP SWAP3 POP SWAP3 POP SWAP3 JUMP JUMPDEST PUSH1 0x0 DUP1 PUSH1 0x40 DUP4 DUP6 SUB SLT ISZERO PUSH2 0xB2E JUMPI PUSH1 0x0 DUP1 REVERT JUMPDEST PUSH1 0x0 PUSH2 0xB3C DUP6 DUP3 DUP7 ADD PUSH2 0xA64 JUMP JUMPDEST SWAP3 POP POP PUSH1 0x20 PUSH2 0xB4D DUP6 DUP3 DUP7 ADD PUSH2 0xA8E JUMP JUMPDEST SWAP2 POP POP SWAP3 POP SWAP3 SWAP1 POP JUMP JUMPDEST PUSH1 0x0 PUSH1 0x20 DUP3 DUP5 SUB SLT ISZERO PUSH2 0xB69 JUMPI PUSH1 0x0 DUP1 REVERT JUMPDEST PUSH1 0x0 PUSH2 0xB77 DUP5 DUP3 DUP6 ADD PUSH2 0xA79 JUMP JUMPDEST SWAP2 POP POP SWAP3 SWAP2 POP POP JUMP JUMPDEST PUSH1 0x0 PUSH1 0x20 DUP3 DUP5 SUB SLT ISZERO PUSH2 0xB92 JUMPI PUSH1 0x0 DUP1 REVERT JUMPDEST PUSH1 0x0 PUSH2 0xBA0 DUP5 DUP3 DUP6 ADD PUSH2 0xA8E JUMP JUMPDEST SWAP2 POP POP SWAP3 SWAP2 POP POP JUMP JUMPDEST PUSH2 0xBB2 DUP2 PUSH2 0xF02 JUMP JUMPDEST DUP3 MSTORE POP POP JUMP JUMPDEST PUSH2 0xBC9 PUSH2 0xBC4 DUP3 PUSH2 0xF02 JUMP JUMPDEST PUSH2 0xF7D JUMP JUMPDEST DUP3 MSTORE POP POP JUMP JUMPDEST PUSH1 0x0 PUSH2 0xBDA DUP3 PUSH2 0xE51 JUMP JUMPDEST PUSH2 0xBE4 DUP2 DUP6 PUSH2 0xE5C JUMP JUMPDEST SWAP4 POP PUSH2 0xBF4 DUP2 DUP6 PUSH1 0x20 DUP7 ADD PUSH2 0xF4A JUMP JUMPDEST PUSH2 0xBFD DUP2 PUSH2 0xFDA JUMP JUMPDEST DUP5 ADD SWAP2 POP POP SWAP3 SWAP2 POP POP JUMP JUMPDEST PUSH1 0x0 PUSH2 0xC15 PUSH1 0x4A DUP4 PUSH2 0xE5C JUMP JUMPDEST SWAP2 POP PUSH2 0xC20 DUP3 PUSH2 0xFF8 JUMP JUMPDEST PUSH1 0x60 DUP3 ADD SWAP1 POP SWAP2 SWAP1 POP JUMP JUMPDEST PUSH1 0x0 PUSH2 0xC38 PUSH1 0x26 DUP4 PUSH2 0xE5C JUMP JUMPDEST SWAP2 POP PUSH2 0xC43 DUP3 PUSH2 0x106D JUMP JUMPDEST PUSH1 0x40 DUP3 ADD SWAP1 POP SWAP2 SWAP1 POP JUMP JUMPDEST PUSH1 0x0 PUSH2 0xC5B PUSH1 0x20 DUP4 PUSH2 0xE6D JUMP JUMPDEST SWAP2 POP PUSH2 0xC66 DUP3 PUSH2 0x10BC JUMP JUMPDEST PUSH1 0x20 DUP3 ADD SWAP1 POP SWAP2 SWAP1 POP JUMP JUMPDEST PUSH1 0x0 PUSH2 0xC7E PUSH1 0x20 DUP4 PUSH2 0xE5C JUMP JUMPDEST SWAP2 POP PUSH2 0xC89 DUP3 PUSH2 0x10E5 JUMP JUMPDEST PUSH1 0x20 DUP3 ADD SWAP1 POP SWAP2 SWAP1 POP JUMP JUMPDEST PUSH1 0x0 PUSH2 0xCA1 PUSH1 0x2B DUP4 PUSH2 0xE5C JUMP JUMPDEST SWAP2 POP PUSH2 0xCAC DUP3 PUSH2 0x110E JUMP JUMPDEST PUSH1 0x40 DUP3 ADD SWAP1 POP SWAP2 SWAP1 POP JUMP JUMPDEST PUSH1 0x0 PUSH2 0xCC4 PUSH1 0x23 DUP4 PUSH2 0xE6D JUMP JUMPDEST SWAP2 POP PUSH2 0xCCF DUP3 PUSH2 0x115D JUMP JUMPDEST PUSH1 0x23 DUP3 ADD SWAP1 POP SWAP2 SWAP1 POP JUMP JUMPDEST PUSH2 0xCE3 DUP2 PUSH2 0xF40 JUMP JUMPDEST DUP3 MSTORE POP POP JUMP JUMPDEST PUSH2 0xCFA PUSH2 0xCF5 DUP3 PUSH2 0xF40 JUMP JUMPDEST PUSH2 0xFA1 JUMP JUMPDEST DUP3 MSTORE POP POP JUMP JUMPDEST PUSH1 0x0 PUSH2 0xD0B DUP3 PUSH2 0xC4E JUMP JUMPDEST SWAP2 POP PUSH2 0xD17 DUP3 DUP6 PUSH2 0xBB8 JUMP JUMPDEST PUSH1 0x14 DUP3 ADD SWAP2 POP PUSH2 0xD26 DUP3 PUSH2 0xCB7 JUMP JUMPDEST SWAP2 POP PUSH2 0xD32 DUP3 DUP5 PUSH2 0xCE9 JUMP JUMPDEST PUSH1 0x20 DUP3 ADD SWAP2 POP DUP2 SWAP1 POP SWAP4 SWAP3 POP POP POP JUMP JUMPDEST PUSH1 0x0 PUSH1 0x20 DUP3 ADD SWAP1 POP PUSH2 0xD57 PUSH1 0x0 DUP4 ADD DUP5 PUSH2 0xBA9 JUMP JUMPDEST SWAP3 SWAP2 POP POP JUMP JUMPDEST PUSH1 0x0 PUSH1 0x60 DUP3 ADD SWAP1 POP PUSH2 0xD72 PUSH1 0x0 DUP4 ADD DUP7 PUSH2 0xBA9 JUMP JUMPDEST PUSH2 0xD7F PUSH1 0x20 DUP4 ADD DUP6 PUSH2 0xBA9 JUMP JUMPDEST PUSH2 0xD8C PUSH1 0x40 DUP4 ADD DUP5 PUSH2 0xCDA JUMP JUMPDEST SWAP5 SWAP4 POP POP POP POP JUMP JUMPDEST PUSH1 0x0 PUSH1 0x20 DUP3 ADD SWAP1 POP DUP2 DUP2 SUB PUSH1 0x0 DUP4 ADD MSTORE PUSH2 0xDAE DUP2 DUP5 PUSH2 0xBCF JUMP JUMPDEST SWAP1 POP SWAP3 SWAP2 POP POP JUMP JUMPDEST PUSH1 0x0 PUSH1 0x20 DUP3 ADD SWAP1 POP DUP2 DUP2 SUB PUSH1 0x0 DUP4 ADD MSTORE PUSH2 0xDCF DUP2 PUSH2 0xC08 JUMP JUMPDEST SWAP1 POP SWAP2 SWAP1 POP JUMP JUMPDEST PUSH1 0x0 PUSH1 0x20 DUP3 ADD SWAP1 POP DUP2 DUP2 SUB PUSH1 0x0 DUP4 ADD MSTORE PUSH2 0xDEF DUP2 PUSH2 0xC2B JUMP JUMPDEST SWAP1 POP SWAP2 SWAP1 POP JUMP JUMPDEST PUSH1 0x0 PUSH1 0x20 DUP3 ADD SWAP1 POP DUP2 DUP2 SUB PUSH1 0x0 DUP4 ADD MSTORE PUSH2 0xE0F DUP2 PUSH2 0xC71 JUMP JUMPDEST SWAP1 POP SWAP2 SWAP1 POP JUMP JUMPDEST PUSH1 0x0 PUSH1 0x20 DUP3 ADD SWAP1 POP DUP2 DUP2 SUB PUSH1 0x0 DUP4 ADD MSTORE PUSH2 0xE2F DUP2 PUSH2 0xC94 JUMP JUMPDEST SWAP1 POP SWAP2 SWAP1 POP JUMP JUMPDEST PUSH1 0x0 PUSH1 0x20 DUP3 ADD SWAP1 POP PUSH2 0xE4B PUSH1 0x0 DUP4 ADD DUP5 PUSH2 0xCDA JUMP JUMPDEST SWAP3 SWAP2 POP POP JUMP JUMPDEST PUSH1 0x0 DUP2 MLOAD SWAP1 POP SWAP2 SWAP1 POP JUMP JUMPDEST PUSH1 0x0 DUP3 DUP3 MSTORE PUSH1 0x20 DUP3 ADD SWAP1 POP SWAP3 SWAP2 POP POP JUMP JUMPDEST PUSH1 0x0 DUP2 SWAP1 POP SWAP3 SWAP2 POP POP JUMP JUMPDEST PUSH1 0x0 PUSH2 0xE83 DUP3 PUSH2 0xF40 JUMP JUMPDEST SWAP2 POP PUSH2 0xE8E DUP4 PUSH2 0xF40 JUMP JUMPDEST SWAP3 POP DUP3 PUSH32 0xFFFFFFFFFFFFFFFFFFFFFFFFFFFFFFFFFFFFFFFFFFFFFFFFFFFFFFFFFFFFFFFF SUB DUP3 GT ISZERO PUSH2 0xEC3 JUMPI PUSH2 0xEC2 PUSH2 0xFAB JUMP JUMPDEST JUMPDEST DUP3 DUP3 ADD SWAP1 POP SWAP3 SWAP2 POP POP JUMP JUMPDEST PUSH1 0x0 PUSH2 0xED9 DUP3 PUSH2 0xF40 JUMP JUMPDEST SWAP2 POP PUSH2 0xEE4 DUP4 PUSH2 0xF40 JUMP JUMPDEST SWAP3 POP DUP3 DUP3 LT ISZERO PUSH2 0xEF7 JUMPI PUSH2 0xEF6 PUSH2 0xFAB JUMP JUMPDEST JUMPDEST DUP3 DUP3 SUB SWAP1 POP SWAP3 SWAP2 POP POP JUMP JUMPDEST PUSH1 0x0 PUSH2 0xF0D DUP3 PUSH2 0xF20 JUMP JUMPDEST SWAP1 POP SWAP2 SWAP1 POP JUMP JUMPDEST PUSH1 0x0 DUP2 ISZERO ISZERO SWAP1 POP SWAP2 SWAP1 POP JUMP JUMPDEST PUSH1 0x0 PUSH20 0xFFFFFFFFFFFFFFFFFFFFFFFFFFFFFFFFFFFFFFFF DUP3 AND SWAP1 POP SWAP2 SWAP1 POP JUMP JUMPDEST PUSH1 0x0 DUP2 SWAP1 POP SWAP2 SWAP1 POP JUMP JUMPDEST PUSH1 0x0 JUMPDEST DUP4 DUP2 LT ISZERO PUSH2 0xF68 JUMPI DUP1 DUP3 ADD MLOAD DUP2 DUP5 ADD MSTORE PUSH1 0x20 DUP2 ADD SWAP1 POP PUSH2 0xF4D JUMP JUMPDEST DUP4 DUP2 GT ISZERO PUSH2 0xF77 JUMPI PUSH1 0x0 DUP5 DUP5 ADD MSTORE JUMPDEST POP POP POP POP JUMP JUMPDEST PUSH1 0x0 PUSH2 0xF88 DUP3 PUSH2 0xF8F JUMP JUMPDEST SWAP1 POP SWAP2 SWAP1 POP JUMP JUMPDEST PUSH1 0x0 PUSH2 0xF9A DUP3 PUSH2 0xFEB JUMP JUMPDEST SWAP1 POP SWAP2 SWAP1 POP JUMP JUMPDEST PUSH1 0x0 DUP2 SWAP1 POP SWAP2 SWAP1 POP JUMP JUMPDEST PUSH32 0x4E487B7100000000000000000000000000000000000000000000000000000000 PUSH1 0x0 MSTORE PUSH1 0x11 PUSH1 0x4 MSTORE PUSH1 0x24 PUSH1 0x0 REVERT JUMPDEST PUSH1 0x0 PUSH1 0x1F NOT PUSH1 0x1F DUP4 ADD AND SWAP1 POP SWAP2 SWAP1 POP JUMP JUMPDEST PUSH1 0x0 DUP2 PUSH1 0x60 SHL SWAP1 POP SWAP2 SWAP1 POP JUMP JUMPDEST PUSH32 0x6D757374207570646174652074686520555344432062616C616E636520776974 PUSH1 0x0 DUP3 ADD MSTORE PUSH32 0x6820612028706F736974697665206F72206E6567617469766529206E6F6E2D7A PUSH1 0x20 DUP3 ADD MSTORE PUSH32 0x65726F20616D6F756E7400000000000000000000000000000000000000000000 PUSH1 0x40 DUP3 ADD MSTORE POP JUMP JUMPDEST PUSH32 0x4F776E61626C653A206E6577206F776E657220697320746865207A65726F2061 PUSH1 0x0 DUP3 ADD MSTORE PUSH32 0x6464726573730000000000000000000000000000000000000000000000000000 PUSH1 0x20 DUP3 ADD MSTORE POP JUMP JUMPDEST PUSH32 0x63616E6E6F7420646563726561736520555344432062616C616E6365206F6620 PUSH1 0x0 DUP3 ADD MSTORE POP JUMP JUMPDEST PUSH32 0x4F776E61626C653A2063616C6C6572206973206E6F7420746865206F776E6572 PUSH1 0x0 DUP3 ADD MSTORE POP JUMP JUMPDEST PUSH32 0x616D6F756E74207472616E73666572726564206D757374206265206120706F73 PUSH1 0x0 DUP3 ADD MSTORE PUSH32 0x69746976652076616C7565000000000000000000000000000000000000000000 PUSH1 0x20 DUP3 ADD MSTORE POP JUMP JUMPDEST PUSH32 0x206279206D6F7265207468616E20746865206578697374696E672062616C616E PUSH1 0x0 DUP3 ADD MSTORE PUSH32 0x6365200000000000000000000000000000000000000000000000000000000000 PUSH1 0x20 DUP3 ADD MSTORE POP JUMP JUMPDEST PUSH2 0x11B5 DUP2 PUSH2 0xF02 JUMP JUMPDEST DUP2 EQ PUSH2 0x11C0 JUMPI PUSH1 0x0 DUP1 REVERT JUMPDEST POP JUMP JUMPDEST PUSH2 0x11CC DUP2 PUSH2 0xF14 JUMP JUMPDEST DUP2 EQ PUSH2 0x11D7 JUMPI PUSH1 0x0 DUP1 REVERT JUMPDEST POP JUMP JUMPDEST PUSH2 0x11E3 DUP2 PUSH2 0xF40 JUMP JUMPDEST DUP2 EQ PUSH2 0x11EE JUMPI PUSH1 0x0 DUP1 REVERT JUMPDEST POP JUMP INVALID LOG2 PUSH5 0x6970667358 0x22 SLT KECCAK256 AND PUSH19 0xF37002940CEA31CEED8BA777D6622AA5AA86C0 KECCAK256 PUSH1 0xDD SELFBALANCE 0x2C 0xB3 PUSH29 0x699CFDFB64736F6C634300080100330000000000000000000000000000 "
				},
				"gasEstimates": {
					"creation": {
						"codeDepositCost": "929400",
						"executionCost": "infinite",
						"totalCost": "infinite"
					},
					"external": {
						"decreaseUsdcBalance(address,uint256)": "infinite",
						"getUsdcBalance(address)": "1608",
						"increaseUsdcBalance(address,uint256)": "infinite",
						"owner()": "1222",
						"receiveUSDC(uint256)": "infinite",
						"refundUsdcTo(address,uint256)": "infinite",
						"renounceOwnership()": "24463",
						"transferOwnership(address)": "24811",
						"transferUsdcBalance(address,address,uint256)": "infinite",
						"usdcBalances(address)": "1536"
					}
				},
				"methodIdentifiers": {
					"decreaseUsdcBalance(address,uint256)": "532b2913",
					"getUsdcBalance(address)": "69b49adc",
					"increaseUsdcBalance(address,uint256)": "bf006f0e",
					"owner()": "8da5cb5b",
					"receiveUSDC(uint256)": "ddb4acd0",
					"refundUsdcTo(address,uint256)": "45ad5350",
					"renounceOwnership()": "715018a6",
					"transferOwnership(address)": "f2fde38b",
					"transferUsdcBalance(address,address,uint256)": "441b1a44",
					"usdcBalances(address)": "a99c68c5"
				}
			},
			"storageLayout": {
				"storage": [
					{
						"astId": 7,
						"contract": "contracts/USDC Escrow Storage.sol:UsdcEscrowStorage",
						"label": "_owner",
						"offset": 0,
						"slot": "0",
						"type": "t_address"
					},
					{
						"astId": 790,
						"contract": "contracts/USDC Escrow Storage.sol:UsdcEscrowStorage",
						"label": "usdcToken",
						"offset": 0,
						"slot": "1",
						"type": "t_contract(IERC20)728"
					},
					{
						"astId": 794,
						"contract": "contracts/USDC Escrow Storage.sol:UsdcEscrowStorage",
						"label": "usdcBalances",
						"offset": 0,
						"slot": "2",
						"type": "t_mapping(t_address,t_uint256)"
					}
				],
				"types": {
					"t_address": {
						"encoding": "inplace",
						"label": "address",
						"numberOfBytes": "20"
					},
					"t_contract(IERC20)728": {
						"encoding": "inplace",
						"label": "contract IERC20",
						"numberOfBytes": "20"
					},
					"t_mapping(t_address,t_uint256)": {
						"encoding": "mapping",
						"key": "t_address",
						"label": "mapping(address => uint256)",
						"numberOfBytes": "32",
						"value": "t_uint256"
					},
					"t_uint256": {
						"encoding": "inplace",
						"label": "uint256",
						"numberOfBytes": "32"
					}
				}
			},
			"userdoc": {
				"kind": "user",
				"methods": {},
				"version": 1
			}
		}
	}
}