{
	"contracts/Founding Citizens NFT Sale.sol": {
		"FoundingNFTSale": {
			"abi": [
				{
					"inputs": [],
					"stateMutability": "nonpayable",
					"type": "constructor"
				},
				{
					"anonymous": false,
					"inputs": [
						{
							"indexed": true,
							"internalType": "bytes32",
							"name": "role",
							"type": "bytes32"
						},
						{
							"indexed": true,
							"internalType": "bytes32",
							"name": "previousAdminRole",
							"type": "bytes32"
						},
						{
							"indexed": true,
							"internalType": "bytes32",
							"name": "newAdminRole",
							"type": "bytes32"
						}
					],
					"name": "RoleAdminChanged",
					"type": "event"
				},
				{
					"anonymous": false,
					"inputs": [
						{
							"indexed": true,
							"internalType": "bytes32",
							"name": "role",
							"type": "bytes32"
						},
						{
							"indexed": true,
							"internalType": "address",
							"name": "account",
							"type": "address"
						},
						{
							"indexed": true,
							"internalType": "address",
							"name": "sender",
							"type": "address"
						}
					],
					"name": "RoleGranted",
					"type": "event"
				},
				{
					"anonymous": false,
					"inputs": [
						{
							"indexed": true,
							"internalType": "bytes32",
							"name": "role",
							"type": "bytes32"
						},
						{
							"indexed": true,
							"internalType": "address",
							"name": "account",
							"type": "address"
						},
						{
							"indexed": true,
							"internalType": "address",
							"name": "sender",
							"type": "address"
						}
					],
					"name": "RoleRevoked",
					"type": "event"
				},
				{
					"inputs": [],
					"name": "DEFAULT_ADMIN_ROLE",
					"outputs": [
						{
							"internalType": "bytes32",
							"name": "",
							"type": "bytes32"
						}
					],
					"stateMutability": "view",
					"type": "function"
				},
				{
					"inputs": [],
					"name": "ERC1155storageContract",
					"outputs": [
						{
							"internalType": "contract IMintStorage",
							"name": "",
							"type": "address"
						}
					],
					"stateMutability": "view",
					"type": "function"
				},
				{
					"inputs": [],
					"name": "SALE_MANAGER_ROLE",
					"outputs": [
						{
							"internalType": "bytes32",
							"name": "",
							"type": "bytes32"
						}
					],
					"stateMutability": "view",
					"type": "function"
				},
				{
					"inputs": [],
					"name": "URI_MANAGER_ROLE",
					"outputs": [
						{
							"internalType": "bytes32",
							"name": "",
							"type": "bytes32"
						}
					],
					"stateMutability": "view",
					"type": "function"
				},
				{
					"inputs": [],
					"name": "buyNFT",
					"outputs": [],
					"stateMutability": "nonpayable",
					"type": "function"
				},
				{
					"inputs": [
						{
							"internalType": "uint256",
							"name": "discountRate",
							"type": "uint256"
						}
					],
					"name": "buyNftWithDiscount",
					"outputs": [],
					"stateMutability": "nonpayable",
					"type": "function"
				},
				{
					"inputs": [
						{
							"internalType": "address",
							"name": "prospectiveBuyer",
							"type": "address"
						},
						{
							"internalType": "uint256",
							"name": "discountRate",
							"type": "uint256"
						}
					],
					"name": "calculateCustomPrice",
					"outputs": [
						{
							"internalType": "uint256",
							"name": "",
							"type": "uint256"
						}
					],
					"stateMutability": "view",
					"type": "function"
				},
				{
					"inputs": [],
					"name": "getMaxSupply",
					"outputs": [
						{
							"internalType": "uint256",
							"name": "",
							"type": "uint256"
						}
					],
					"stateMutability": "view",
					"type": "function"
				},
				{
					"inputs": [],
					"name": "getNextUnusedToken",
					"outputs": [
						{
							"internalType": "uint256",
							"name": "",
							"type": "uint256"
						}
					],
					"stateMutability": "view",
					"type": "function"
				},
				{
					"inputs": [
						{
							"internalType": "bytes32",
							"name": "role",
							"type": "bytes32"
						}
					],
					"name": "getRoleAdmin",
					"outputs": [
						{
							"internalType": "bytes32",
							"name": "",
							"type": "bytes32"
						}
					],
					"stateMutability": "view",
					"type": "function"
				},
				{
					"inputs": [
						{
							"internalType": "bytes32",
							"name": "role",
							"type": "bytes32"
						},
						{
							"internalType": "address",
							"name": "account",
							"type": "address"
						}
					],
					"name": "grantRole",
					"outputs": [],
					"stateMutability": "nonpayable",
					"type": "function"
				},
				{
					"inputs": [
						{
							"internalType": "bytes32",
							"name": "role",
							"type": "bytes32"
						},
						{
							"internalType": "address",
							"name": "account",
							"type": "address"
						}
					],
					"name": "hasRole",
					"outputs": [
						{
							"internalType": "bool",
							"name": "",
							"type": "bool"
						}
					],
					"stateMutability": "view",
					"type": "function"
				},
				{
					"inputs": [],
					"name": "lastUpdate",
					"outputs": [
						{
							"internalType": "uint256",
							"name": "price",
							"type": "uint256"
						},
						{
							"internalType": "uint256",
							"name": "time",
							"type": "uint256"
						},
						{
							"internalType": "bool",
							"name": "saleIsLive",
							"type": "bool"
						}
					],
					"stateMutability": "view",
					"type": "function"
				},
				{
					"inputs": [],
					"name": "mintToTreasuryAddress",
					"outputs": [],
					"stateMutability": "nonpayable",
					"type": "function"
				},
				{
					"inputs": [
						{
							"internalType": "uint256[]",
							"name": "ids",
							"type": "uint256[]"
						},
						{
							"internalType": "string[]",
							"name": "uris",
							"type": "string[]"
						}
					],
					"name": "preLoadURIs",
					"outputs": [],
					"stateMutability": "nonpayable",
					"type": "function"
				},
				{
					"inputs": [],
					"name": "privilgedBuyerList",
					"outputs": [
						{
							"internalType": "contract IPrivilegedListStorage",
							"name": "",
							"type": "address"
						}
					],
					"stateMutability": "view",
					"type": "function"
				},
				{
					"inputs": [
						{
							"internalType": "bytes32",
							"name": "role",
							"type": "bytes32"
						},
						{
							"internalType": "address",
							"name": "account",
							"type": "address"
						}
					],
					"name": "renounceRole",
					"outputs": [],
					"stateMutability": "nonpayable",
					"type": "function"
				},
				{
					"inputs": [
						{
							"internalType": "bytes32",
							"name": "role",
							"type": "bytes32"
						},
						{
							"internalType": "address",
							"name": "account",
							"type": "address"
						}
					],
					"name": "revokeRole",
					"outputs": [],
					"stateMutability": "nonpayable",
					"type": "function"
				},
				{
					"inputs": [
						{
							"internalType": "uint256",
							"name": "unixTime",
							"type": "uint256"
						}
					],
					"name": "setEndTime",
					"outputs": [],
					"stateMutability": "nonpayable",
					"type": "function"
				},
				{
					"inputs": [
						{
							"internalType": "address",
							"name": "storageAddress",
							"type": "address"
						}
					],
					"name": "setStorageContractAddress",
					"outputs": [],
					"stateMutability": "nonpayable",
					"type": "function"
				},
				{
					"inputs": [
						{
							"internalType": "uint256",
							"name": "unixTime",
							"type": "uint256"
						}
					],
					"name": "setstartTime",
					"outputs": [],
					"stateMutability": "nonpayable",
					"type": "function"
				},
				{
					"inputs": [
						{
							"internalType": "bytes4",
							"name": "interfaceId",
							"type": "bytes4"
						}
					],
					"name": "supportsInterface",
					"outputs": [
						{
							"internalType": "bool",
							"name": "",
							"type": "bool"
						}
					],
					"stateMutability": "view",
					"type": "function"
				},
				{
					"inputs": [],
					"name": "temp",
					"outputs": [
						{
							"internalType": "string[]",
							"name": "",
							"type": "string[]"
						}
					],
					"stateMutability": "nonpayable",
					"type": "function"
				},
				{
					"inputs": [],
					"name": "treasuryAddress",
					"outputs": [
						{
							"internalType": "address",
							"name": "",
							"type": "address"
						}
					],
					"stateMutability": "view",
					"type": "function"
				},
				{
					"inputs": [],
					"name": "usdcEscrowStorageContract",
					"outputs": [
						{
							"internalType": "contract IUsdcStorage",
							"name": "",
							"type": "address"
						}
					],
					"stateMutability": "view",
					"type": "function"
				}
			],
			"devdoc": {
				"kind": "dev",
				"methods": {
					"getRoleAdmin(bytes32)": {
						"details": "Returns the admin role that controls `role`. See {grantRole} and {revokeRole}. To change a role's admin, use {_setRoleAdmin}."
					},
					"grantRole(bytes32,address)": {
						"details": "Grants `role` to `account`. If `account` had not been already granted `role`, emits a {RoleGranted} event. Requirements: - the caller must have ``role``'s admin role."
					},
					"hasRole(bytes32,address)": {
						"details": "Returns `true` if `account` has been granted `role`."
					},
					"renounceRole(bytes32,address)": {
						"details": "Revokes `role` from the calling account. Roles are often managed via {grantRole} and {revokeRole}: this function's purpose is to provide a mechanism for accounts to lose their privileges if they are compromised (such as when a trusted device is misplaced). If the calling account had been revoked `role`, emits a {RoleRevoked} event. Requirements: - the caller must be `account`."
					},
					"revokeRole(bytes32,address)": {
						"details": "Revokes `role` from `account`. If `account` had been granted `role`, emits a {RoleRevoked} event. Requirements: - the caller must have ``role``'s admin role."
					},
					"supportsInterface(bytes4)": {
						"details": "See {IERC165-supportsInterface}."
					}
				},
				"version": 1
			},
			"evm": {
				"assembly": "    /* \"contracts/Founding Citizens NFT Sale.sol\":2827:7576  contract FoundingNFTSale is AccessControlExtension {\r... */\n  mstore(0x40, 0x80)\n    /* \"contracts/Founding Citizens NFT Sale.sol\":3266:3276  1893484800 */\n  0x70dc4900\n    /* \"contracts/Founding Citizens NFT Sale.sol\":3248:3276  uint startTime  = 1893484800 */\n  0x05\n  sstore\n    /* \"contracts/Founding Citizens NFT Sale.sol\":3379:3389  1893484900 */\n  0x70dc4964\n    /* \"contracts/Founding Citizens NFT Sale.sol\":3361:3389  uint endTime    = 1893484900 */\n  0x06\n  sstore\n    /* \"contracts/Founding Citizens NFT Sale.sol\":3420:3425  10**6 */\n  0x0f4240\n    /* \"contracts/Founding Citizens NFT Sale.sol\":3450:3452  10 */\n  0x0a\n    /* \"contracts/Founding Citizens NFT Sale.sol\":3450:3460  10 * units */\n  tag_1\n  swap2\n  swap1\n  tag_2\n  jump\t// in\ntag_1:\n    /* \"contracts/Founding Citizens NFT Sale.sol\":3432:3460  uint startPrice = 10 * units */\n  0x07\n  sstore\n    /* \"contracts/Founding Citizens NFT Sale.sol\":3420:3425  10**6 */\n  0x0f4240\n    /* \"contracts/Founding Citizens NFT Sale.sol\":3516:3517  1 */\n  0x01\n    /* \"contracts/Founding Citizens NFT Sale.sol\":3516:3525  1 * units */\n  tag_3\n  swap2\n  swap1\n  tag_2\n  jump\t// in\ntag_3:\n    /* \"contracts/Founding Citizens NFT Sale.sol\":3500:3525  uint EndPrice = 1 * units */\n  0x08\n  sstore\n    /* \"contracts/Founding Citizens NFT Sale.sol\":3713:3750  Update(10000, block.timestamp, false) */\n  mload(0x40)\n  dup1\n  0x60\n  add\n  0x40\n  mstore\n  dup1\n    /* \"contracts/Founding Citizens NFT Sale.sol\":3720:3725  10000 */\n  0x2710\n    /* \"contracts/Founding Citizens NFT Sale.sol\":3713:3750  Update(10000, block.timestamp, false) */\n  dup2\n  mstore\n  0x20\n  add\n    /* \"contracts/Founding Citizens NFT Sale.sol\":3727:3742  block.timestamp */\n  timestamp\n    /* \"contracts/Founding Citizens NFT Sale.sol\":3713:3750  Update(10000, block.timestamp, false) */\n  dup2\n  mstore\n  0x20\n  add\n    /* \"contracts/Founding Citizens NFT Sale.sol\":3744:3749  false */\n  0x00\n    /* \"contracts/Founding Citizens NFT Sale.sol\":3713:3750  Update(10000, block.timestamp, false) */\n  iszero\n  iszero\n  dup2\n  mstore\n  pop\n    /* \"contracts/Founding Citizens NFT Sale.sol\":3686:3750  Update public lastUpdate = Update(10000, block.timestamp, false) */\n  0x09\n  0x00\n  dup3\n  add\n  mload\n  dup2\n  0x00\n  add\n  sstore\n  0x20\n  dup3\n  add\n  mload\n  dup2\n  0x01\n  add\n  sstore\n  0x40\n  dup3\n  add\n  mload\n  dup2\n  0x02\n  add\n  exp(0x0100, 0x00)\n  dup2\n  sload\n  dup2\n  0xff\n  mul\n  not\n  and\n  swap1\n  dup4\n  iszero\n  iszero\n  mul\n  or\n  swap1\n  sstore\n  pop\n  pop\n  pop\n    /* \"contracts/Founding Citizens NFT Sale.sol\":4112:4144  constructor() {\r... */\n  callvalue\n  dup1\n  iszero\n  tag_4\n  jumpi\n  0x00\n  dup1\n  revert\ntag_4:\n  pop\n    /* \"contracts/Founding Citizens NFT Sale.sol\":2827:7576  contract FoundingNFTSale is AccessControlExtension {\r... */\n  jump(tag_7)\n    /* \"#utility.yul\":7:355   */\ntag_2:\n  0x00\n    /* \"#utility.yul\":70:90   */\n  tag_10\n    /* \"#utility.yul\":88:89   */\n  dup3\n    /* \"#utility.yul\":70:90   */\n  tag_11\n  jump\t// in\ntag_10:\n    /* \"#utility.yul\":65:90   */\n  swap2\n  pop\n    /* \"#utility.yul\":104:124   */\n  tag_12\n    /* \"#utility.yul\":122:123   */\n  dup4\n    /* \"#utility.yul\":104:124   */\n  tag_11\n  jump\t// in\ntag_12:\n    /* \"#utility.yul\":99:124   */\n  swap3\n  pop\n    /* \"#utility.yul\":292:293   */\n  dup2\n    /* \"#utility.yul\":224:290   */\n  0xffffffffffffffffffffffffffffffffffffffffffffffffffffffffffffffff\n    /* \"#utility.yul\":220:294   */\n  div\n    /* \"#utility.yul\":217:218   */\n  dup4\n    /* \"#utility.yul\":214:295   */\n  gt\n    /* \"#utility.yul\":209:210   */\n  dup3\n    /* \"#utility.yul\":202:211   */\n  iszero\n    /* \"#utility.yul\":195:212   */\n  iszero\n    /* \"#utility.yul\":191:296   */\n  and\n    /* \"#utility.yul\":188:190   */\n  iszero\n  tag_13\n  jumpi\n    /* \"#utility.yul\":299:317   */\n  tag_14\n  tag_15\n  jump\t// in\ntag_14:\n    /* \"#utility.yul\":188:190   */\ntag_13:\n    /* \"#utility.yul\":347:348   */\n  dup3\n    /* \"#utility.yul\":344:345   */\n  dup3\n    /* \"#utility.yul\":340:349   */\n  mul\n    /* \"#utility.yul\":329:349   */\n  swap1\n  pop\n    /* \"#utility.yul\":55:355   */\n  swap3\n  swap2\n  pop\n  pop\n  jump\t// out\n    /* \"#utility.yul\":361:438   */\ntag_11:\n  0x00\n    /* \"#utility.yul\":427:432   */\n  dup2\n    /* \"#utility.yul\":416:432   */\n  swap1\n  pop\n    /* \"#utility.yul\":406:438   */\n  swap2\n  swap1\n  pop\n  jump\t// out\n    /* \"#utility.yul\":444:624   */\ntag_15:\n    /* \"#utility.yul\":492:569   */\n  0x4e487b7100000000000000000000000000000000000000000000000000000000\n    /* \"#utility.yul\":489:490   */\n  0x00\n    /* \"#utility.yul\":482:570   */\n  mstore\n    /* \"#utility.yul\":589:593   */\n  0x11\n    /* \"#utility.yul\":586:587   */\n  0x04\n    /* \"#utility.yul\":579:594   */\n  mstore\n    /* \"#utility.yul\":613:617   */\n  0x24\n    /* \"#utility.yul\":610:611   */\n  0x00\n    /* \"#utility.yul\":603:618   */\n  revert\n    /* \"contracts/Founding Citizens NFT Sale.sol\":2827:7576  contract FoundingNFTSale is AccessControlExtension {\r... */\ntag_7:\n  dataSize(sub_0)\n  dup1\n  dataOffset(sub_0)\n  0x00\n  codecopy\n  0x00\n  return\nstop\n\nsub_0: assembly {\n        /* \"contracts/Founding Citizens NFT Sale.sol\":2827:7576  contract FoundingNFTSale is AccessControlExtension {\r... */\n      mstore(0x40, 0x80)\n      callvalue\n      dup1\n      iszero\n      tag_1\n      jumpi\n      0x00\n      dup1\n      revert\n    tag_1:\n      pop\n      jumpi(tag_2, lt(calldatasize, 0x04))\n      shr(0xe0, calldataload(0x00))\n      dup1\n      0x8c83faeb\n      gt\n      tag_28\n      jumpi\n      dup1\n      0xbff29cee\n      gt\n      tag_29\n      jumpi\n      dup1\n      0xc5f956af\n      gt\n      tag_30\n      jumpi\n      dup1\n      0xc5f956af\n      eq\n      tag_24\n      jumpi\n      dup1\n      0xccb98ffc\n      eq\n      tag_25\n      jumpi\n      dup1\n      0xd547741f\n      eq\n      tag_26\n      jumpi\n      dup1\n      0xf121da92\n      eq\n      tag_27\n      jumpi\n      jump(tag_2)\n    tag_30:\n      dup1\n      0xbff29cee\n      eq\n      tag_21\n      jumpi\n      dup1\n      0xc0463711\n      eq\n      tag_22\n      jumpi\n      dup1\n      0xc5dae48f\n      eq\n      tag_23\n      jumpi\n      jump(tag_2)\n    tag_29:\n      dup1\n      0x8c83faeb\n      eq\n      tag_15\n      jumpi\n      dup1\n      0x91232f18\n      eq\n      tag_16\n      jumpi\n      dup1\n      0x91d14854\n      eq\n      tag_17\n      jumpi\n      dup1\n      0x944044a1\n      eq\n      tag_18\n      jumpi\n      dup1\n      0xa217fddf\n      eq\n      tag_19\n      jumpi\n      dup1\n      0xab6c0306\n      eq\n      tag_20\n      jumpi\n      jump(tag_2)\n    tag_28:\n      dup1\n      0x51f7598c\n      gt\n      tag_31\n      jumpi\n      dup1\n      0x51f7598c\n      eq\n      tag_9\n      jumpi\n      dup1\n      0x551b42a8\n      eq\n      tag_10\n      jumpi\n      dup1\n      0x5ce7e721\n      eq\n      tag_11\n      jumpi\n      dup1\n      0x673402e5\n      eq\n      tag_12\n      jumpi\n      dup1\n      0x682d07d9\n      eq\n      tag_13\n      jumpi\n      dup1\n      0x68fc01a2\n      eq\n      tag_14\n      jumpi\n      jump(tag_2)\n    tag_31:\n      dup1\n      0x01ffc9a7\n      eq\n      tag_3\n      jumpi\n      dup1\n      0x248a9ca3\n      eq\n      tag_4\n      jumpi\n      dup1\n      0x2f2ff15d\n      eq\n      tag_5\n      jumpi\n      dup1\n      0x36568abe\n      eq\n      tag_6\n      jumpi\n      dup1\n      0x4c0f38c2\n      eq\n      tag_7\n      jumpi\n      dup1\n      0x4c9b73da\n      eq\n      tag_8\n      jumpi\n    tag_2:\n      0x00\n      dup1\n      revert\n        /* \"@openzeppelin/contracts@4.4.2/access/AccessControl.sol\":2605:2807  function supportsInterface(bytes4 interfaceId) public view virtual override returns (bool) {... */\n    tag_3:\n      tag_32\n      0x04\n      dup1\n      calldatasize\n      sub\n      dup2\n      add\n      swap1\n      tag_33\n      swap2\n      swap1\n      tag_34\n      jump\t// in\n    tag_33:\n      tag_35\n      jump\t// in\n    tag_32:\n      mload(0x40)\n      tag_36\n      swap2\n      swap1\n      tag_37\n      jump\t// in\n    tag_36:\n      mload(0x40)\n      dup1\n      swap2\n      sub\n      swap1\n      return\n        /* \"@openzeppelin/contracts@4.4.2/access/AccessControl.sol\":3977:4098  function getRoleAdmin(bytes32 role) public view override returns (bytes32) {... */\n    tag_4:\n      tag_38\n      0x04\n      dup1\n      calldatasize\n      sub\n      dup2\n      add\n      swap1\n      tag_39\n      swap2\n      swap1\n      tag_40\n      jump\t// in\n    tag_39:\n      tag_41\n      jump\t// in\n    tag_38:\n      mload(0x40)\n      tag_42\n      swap2\n      swap1\n      tag_43\n      jump\t// in\n    tag_42:\n      mload(0x40)\n      dup1\n      swap2\n      sub\n      swap1\n      return\n        /* \"@openzeppelin/contracts@4.4.2/access/AccessControl.sol\":4348:4493  function grantRole(bytes32 role, address account) public virtual override onlyRole(getRoleAdmin(role)) {... */\n    tag_5:\n      tag_44\n      0x04\n      dup1\n      calldatasize\n      sub\n      dup2\n      add\n      swap1\n      tag_45\n      swap2\n      swap1\n      tag_46\n      jump\t// in\n    tag_45:\n      tag_47\n      jump\t// in\n    tag_44:\n      stop\n        /* \"@openzeppelin/contracts@4.4.2/access/AccessControl.sol\":5365:5579  function renounceRole(bytes32 role, address account) public virtual override {... */\n    tag_6:\n      tag_48\n      0x04\n      dup1\n      calldatasize\n      sub\n      dup2\n      add\n      swap1\n      tag_49\n      swap2\n      swap1\n      tag_46\n      jump\t// in\n    tag_49:\n      tag_50\n      jump\t// in\n    tag_48:\n      stop\n        /* \"contracts/Founding Citizens NFT Sale.sol\":5498:5625  function getMaxSupply() public view returns(uint) {\r... */\n    tag_7:\n      tag_51\n      tag_52\n      jump\t// in\n    tag_51:\n      mload(0x40)\n      tag_53\n      swap2\n      swap1\n      tag_54\n      jump\t// in\n    tag_53:\n      mload(0x40)\n      dup1\n      swap2\n      sub\n      swap1\n      return\n        /* \"contracts/Founding Citizens NFT Sale.sol\":6984:7154  function buyNftWithDiscount(uint discountRate) public pushesUpdate {\r... */\n    tag_8:\n      tag_55\n      0x04\n      dup1\n      calldatasize\n      sub\n      dup2\n      add\n      swap1\n      tag_56\n      swap2\n      swap1\n      tag_57\n      jump\t// in\n    tag_56:\n      tag_58\n      jump\t// in\n    tag_55:\n      stop\n        /* \"contracts/Founding Citizens NFT Sale.sol\":4651:4818  function setStorageContractAddress(address storageAddress) public onlyRole(DEFAULT_ADMIN_ROLE) {\r... */\n    tag_9:\n      tag_59\n      0x04\n      dup1\n      calldatasize\n      sub\n      dup2\n      add\n      swap1\n      tag_60\n      swap2\n      swap1\n      tag_61\n      jump\t// in\n    tag_60:\n      tag_62\n      jump\t// in\n    tag_59:\n      stop\n        /* \"contracts/Founding Citizens NFT Sale.sol\":3159:3233  bytes32 public constant SALE_MANAGER_ROLE = keccak256(\"SALE_MANAGER_ROLE\") */\n    tag_10:\n      tag_63\n      tag_64\n      jump\t// in\n    tag_63:\n      mload(0x40)\n      tag_65\n      swap2\n      swap1\n      tag_43\n      jump\t// in\n    tag_65:\n      mload(0x40)\n      dup1\n      swap2\n      sub\n      swap1\n      return\n        /* \"contracts/Founding Citizens NFT Sale.sol\":2934:2982  IPrivilegedListStorage public privilgedBuyerList */\n    tag_11:\n      tag_66\n      tag_67\n      jump\t// in\n    tag_66:\n      mload(0x40)\n      tag_68\n      swap2\n      swap1\n      tag_69\n      jump\t// in\n    tag_68:\n      mload(0x40)\n      dup1\n      swap2\n      sub\n      swap1\n      return\n        /* \"contracts/Founding Citizens NFT Sale.sol\":4826:4987  function temp() public returns(string[] memory) {\r... */\n    tag_12:\n      tag_70\n      tag_71\n      jump\t// in\n    tag_70:\n      mload(0x40)\n      tag_72\n      swap2\n      swap1\n      tag_73\n      jump\t// in\n    tag_72:\n      mload(0x40)\n      dup1\n      swap2\n      sub\n      swap1\n      return\n        /* \"contracts/Founding Citizens NFT Sale.sol\":3080:3152  bytes32 public constant URI_MANAGER_ROLE = keccak256(\"URI_MANAGER_ROLE\") */\n    tag_13:\n      tag_74\n      tag_75\n      jump\t// in\n    tag_74:\n      mload(0x40)\n      tag_76\n      swap2\n      swap1\n      tag_43\n      jump\t// in\n    tag_76:\n      mload(0x40)\n      dup1\n      swap2\n      sub\n      swap1\n      return\n        /* \"contracts/Founding Citizens NFT Sale.sol\":5351:5490  function getNextUnusedToken() public view returns(uint) {\r... */\n    tag_14:\n      tag_77\n      tag_78\n      jump\t// in\n    tag_77:\n      mload(0x40)\n      tag_79\n      swap2\n      swap1\n      tag_54\n      jump\t// in\n    tag_79:\n      mload(0x40)\n      dup1\n      swap2\n      sub\n      swap1\n      return\n        /* \"contracts/Founding Citizens NFT Sale.sol\":2885:2927  IMintStorage public ERC1155storageContract */\n    tag_15:\n      tag_80\n      tag_81\n      jump\t// in\n    tag_80:\n      mload(0x40)\n      tag_82\n      swap2\n      swap1\n      tag_83\n      jump\t// in\n    tag_82:\n      mload(0x40)\n      dup1\n      swap2\n      sub\n      swap1\n      return\n        /* \"contracts/Founding Citizens NFT Sale.sol\":7162:7573  function mintToTreasuryAddress() public requiresUpdate {\r... */\n    tag_16:\n      tag_84\n      tag_85\n      jump\t// in\n    tag_84:\n      stop\n        /* \"@openzeppelin/contracts@4.4.2/access/AccessControl.sol\":2894:3031  function hasRole(bytes32 role, address account) public view override returns (bool) {... */\n    tag_17:\n      tag_86\n      0x04\n      dup1\n      calldatasize\n      sub\n      dup2\n      add\n      swap1\n      tag_87\n      swap2\n      swap1\n      tag_46\n      jump\t// in\n    tag_87:\n      tag_88\n      jump\t// in\n    tag_86:\n      mload(0x40)\n      tag_89\n      swap2\n      swap1\n      tag_37\n      jump\t// in\n    tag_89:\n      mload(0x40)\n      dup1\n      swap2\n      sub\n      swap1\n      return\n        /* \"contracts/Founding Citizens NFT Sale.sol\":5633:5911  function setstartTime(uint unixTime) public {\r... */\n    tag_18:\n      tag_90\n      0x04\n      dup1\n      calldatasize\n      sub\n      dup2\n      add\n      swap1\n      tag_91\n      swap2\n      swap1\n      tag_57\n      jump\t// in\n    tag_91:\n      tag_92\n      jump\t// in\n    tag_90:\n      stop\n        /* \"@openzeppelin/contracts@4.4.2/access/AccessControl.sol\":2012:2061  bytes32 public constant DEFAULT_ADMIN_ROLE = 0x00 */\n    tag_19:\n      tag_93\n      tag_94\n      jump\t// in\n    tag_93:\n      mload(0x40)\n      tag_95\n      swap2\n      swap1\n      tag_43\n      jump\t// in\n    tag_95:\n      mload(0x40)\n      dup1\n      swap2\n      sub\n      swap1\n      return\n        /* \"contracts/Founding Citizens NFT Sale.sol\":6201:6651  function calculateCustomPrice(address prospectiveBuyer, uint discountRate) \r... */\n    tag_20:\n      tag_96\n      0x04\n      dup1\n      calldatasize\n      sub\n      dup2\n      add\n      swap1\n      tag_97\n      swap2\n      swap1\n      tag_98\n      jump\t// in\n    tag_97:\n      tag_99\n      jump\t// in\n    tag_96:\n      mload(0x40)\n      tag_100\n      swap2\n      swap1\n      tag_54\n      jump\t// in\n    tag_100:\n      mload(0x40)\n      dup1\n      swap2\n      sub\n      swap1\n      return\n        /* \"contracts/Founding Citizens NFT Sale.sol\":6831:6976  function buyNFT() public pushesUpdate { //requires using existing balance\r... */\n    tag_21:\n      tag_101\n      tag_102\n      jump\t// in\n    tag_101:\n      stop\n        /* \"contracts/Founding Citizens NFT Sale.sol\":3686:3750  Update public lastUpdate = Update(10000, block.timestamp, false) */\n    tag_22:\n      tag_103\n      tag_104\n      jump\t// in\n    tag_103:\n      mload(0x40)\n      tag_105\n      swap4\n      swap3\n      swap2\n      swap1\n      tag_106\n      jump\t// in\n    tag_105:\n      mload(0x40)\n      dup1\n      swap2\n      sub\n      swap1\n      return\n        /* \"contracts/Founding Citizens NFT Sale.sol\":2989:3034  IUsdcStorage public usdcEscrowStorageContract */\n    tag_23:\n      tag_107\n      tag_108\n      jump\t// in\n    tag_107:\n      mload(0x40)\n      tag_109\n      swap2\n      swap1\n      tag_110\n      jump\t// in\n    tag_109:\n      mload(0x40)\n      dup1\n      swap2\n      sub\n      swap1\n      return\n        /* \"contracts/Founding Citizens NFT Sale.sol\":3041:3071  address public treasuryAddress */\n    tag_24:\n      tag_111\n      tag_112\n      jump\t// in\n    tag_111:\n      mload(0x40)\n      tag_113\n      swap2\n      swap1\n      tag_114\n      jump\t// in\n    tag_113:\n      mload(0x40)\n      dup1\n      swap2\n      sub\n      swap1\n      return\n        /* \"contracts/Founding Citizens NFT Sale.sol\":5919:6193  function setEndTime(uint unixTime) public {\r... */\n    tag_25:\n      tag_115\n      0x04\n      dup1\n      calldatasize\n      sub\n      dup2\n      add\n      swap1\n      tag_116\n      swap2\n      swap1\n      tag_57\n      jump\t// in\n    tag_116:\n      tag_117\n      jump\t// in\n    tag_115:\n      stop\n        /* \"@openzeppelin/contracts@4.4.2/access/AccessControl.sol\":4727:4874  function revokeRole(bytes32 role, address account) public virtual override onlyRole(getRoleAdmin(role)) {... */\n    tag_26:\n      tag_118\n      0x04\n      dup1\n      calldatasize\n      sub\n      dup2\n      add\n      swap1\n      tag_119\n      swap2\n      swap1\n      tag_46\n      jump\t// in\n    tag_119:\n      tag_120\n      jump\t// in\n    tag_118:\n      stop\n        /* \"contracts/Founding Citizens NFT Sale.sol\":5189:5343  function preLoadURIs(uint[] memory ids, string[] memory uris) \r... */\n    tag_27:\n      tag_121\n      0x04\n      dup1\n      calldatasize\n      sub\n      dup2\n      add\n      swap1\n      tag_122\n      swap2\n      swap1\n      tag_123\n      jump\t// in\n    tag_122:\n      tag_124\n      jump\t// in\n    tag_121:\n      stop\n        /* \"@openzeppelin/contracts@4.4.2/access/AccessControl.sol\":2605:2807  function supportsInterface(bytes4 interfaceId) public view virtual override returns (bool) {... */\n    tag_35:\n        /* \"@openzeppelin/contracts@4.4.2/access/AccessControl.sol\":2690:2694  bool */\n      0x00\n        /* \"@openzeppelin/contracts@4.4.2/access/AccessControl.sol\":2728:2760  type(IAccessControl).interfaceId */\n      0x7965db0b00000000000000000000000000000000000000000000000000000000\n        /* \"@openzeppelin/contracts@4.4.2/access/AccessControl.sol\":2713:2760  interfaceId == type(IAccessControl).interfaceId */\n      not(0xffffffffffffffffffffffffffffffffffffffffffffffffffffffff)\n      and\n        /* \"@openzeppelin/contracts@4.4.2/access/AccessControl.sol\":2713:2724  interfaceId */\n      dup3\n        /* \"@openzeppelin/contracts@4.4.2/access/AccessControl.sol\":2713:2760  interfaceId == type(IAccessControl).interfaceId */\n      not(0xffffffffffffffffffffffffffffffffffffffffffffffffffffffff)\n      and\n      eq\n        /* \"@openzeppelin/contracts@4.4.2/access/AccessControl.sol\":2713:2800  interfaceId == type(IAccessControl).interfaceId || super.supportsInterface(interfaceId) */\n      dup1\n      tag_126\n      jumpi\n      pop\n        /* \"@openzeppelin/contracts@4.4.2/access/AccessControl.sol\":2764:2800  super.supportsInterface(interfaceId) */\n      tag_127\n        /* \"@openzeppelin/contracts@4.4.2/access/AccessControl.sol\":2788:2799  interfaceId */\n      dup3\n        /* \"@openzeppelin/contracts@4.4.2/access/AccessControl.sol\":2764:2787  super.supportsInterface */\n      tag_128\n        /* \"@openzeppelin/contracts@4.4.2/access/AccessControl.sol\":2764:2800  super.supportsInterface(interfaceId) */\n      jump\t// in\n    tag_127:\n        /* \"@openzeppelin/contracts@4.4.2/access/AccessControl.sol\":2713:2800  interfaceId == type(IAccessControl).interfaceId || super.supportsInterface(interfaceId) */\n    tag_126:\n        /* \"@openzeppelin/contracts@4.4.2/access/AccessControl.sol\":2706:2800  return interfaceId == type(IAccessControl).interfaceId || super.supportsInterface(interfaceId) */\n      swap1\n      pop\n        /* \"@openzeppelin/contracts@4.4.2/access/AccessControl.sol\":2605:2807  function supportsInterface(bytes4 interfaceId) public view virtual override returns (bool) {... */\n      swap2\n      swap1\n      pop\n      jump\t// out\n        /* \"@openzeppelin/contracts@4.4.2/access/AccessControl.sol\":3977:4098  function getRoleAdmin(bytes32 role) public view override returns (bytes32) {... */\n    tag_41:\n        /* \"@openzeppelin/contracts@4.4.2/access/AccessControl.sol\":4043:4050  bytes32 */\n      0x00\n        /* \"@openzeppelin/contracts@4.4.2/access/AccessControl.sol\":4069:4075  _roles */\n      dup1\n        /* \"@openzeppelin/contracts@4.4.2/access/AccessControl.sol\":4069:4081  _roles[role] */\n      0x00\n        /* \"@openzeppelin/contracts@4.4.2/access/AccessControl.sol\":4076:4080  role */\n      dup4\n        /* \"@openzeppelin/contracts@4.4.2/access/AccessControl.sol\":4069:4081  _roles[role] */\n      dup2\n      mstore\n      0x20\n      add\n      swap1\n      dup2\n      mstore\n      0x20\n      add\n      0x00\n      keccak256\n        /* \"@openzeppelin/contracts@4.4.2/access/AccessControl.sol\":4069:4091  _roles[role].adminRole */\n      0x01\n      add\n      sload\n        /* \"@openzeppelin/contracts@4.4.2/access/AccessControl.sol\":4062:4091  return _roles[role].adminRole */\n      swap1\n      pop\n        /* \"@openzeppelin/contracts@4.4.2/access/AccessControl.sol\":3977:4098  function getRoleAdmin(bytes32 role) public view override returns (bytes32) {... */\n      swap2\n      swap1\n      pop\n      jump\t// out\n        /* \"@openzeppelin/contracts@4.4.2/access/AccessControl.sol\":4348:4493  function grantRole(bytes32 role, address account) public virtual override onlyRole(getRoleAdmin(role)) {... */\n    tag_47:\n        /* \"@openzeppelin/contracts@4.4.2/access/AccessControl.sol\":4431:4449  getRoleAdmin(role) */\n      tag_130\n        /* \"@openzeppelin/contracts@4.4.2/access/AccessControl.sol\":4444:4448  role */\n      dup3\n        /* \"@openzeppelin/contracts@4.4.2/access/AccessControl.sol\":4431:4443  getRoleAdmin */\n      tag_41\n        /* \"@openzeppelin/contracts@4.4.2/access/AccessControl.sol\":4431:4449  getRoleAdmin(role) */\n      jump\t// in\n    tag_130:\n        /* \"@openzeppelin/contracts@4.4.2/access/AccessControl.sol\":2490:2520  _checkRole(role, _msgSender()) */\n      tag_132\n        /* \"@openzeppelin/contracts@4.4.2/access/AccessControl.sol\":2501:2505  role */\n      dup2\n        /* \"@openzeppelin/contracts@4.4.2/access/AccessControl.sol\":2507:2519  _msgSender() */\n      tag_133\n        /* \"@openzeppelin/contracts@4.4.2/access/AccessControl.sol\":2507:2517  _msgSender */\n      tag_134\n        /* \"@openzeppelin/contracts@4.4.2/access/AccessControl.sol\":2507:2519  _msgSender() */\n      jump\t// in\n    tag_133:\n        /* \"@openzeppelin/contracts@4.4.2/access/AccessControl.sol\":2490:2500  _checkRole */\n      tag_135\n        /* \"@openzeppelin/contracts@4.4.2/access/AccessControl.sol\":2490:2520  _checkRole(role, _msgSender()) */\n      jump\t// in\n    tag_132:\n        /* \"@openzeppelin/contracts@4.4.2/access/AccessControl.sol\":4461:4486  _grantRole(role, account) */\n      tag_137\n        /* \"@openzeppelin/contracts@4.4.2/access/AccessControl.sol\":4472:4476  role */\n      dup4\n        /* \"@openzeppelin/contracts@4.4.2/access/AccessControl.sol\":4478:4485  account */\n      dup4\n        /* \"@openzeppelin/contracts@4.4.2/access/AccessControl.sol\":4461:4471  _grantRole */\n      tag_138\n        /* \"@openzeppelin/contracts@4.4.2/access/AccessControl.sol\":4461:4486  _grantRole(role, account) */\n      jump\t// in\n    tag_137:\n        /* \"@openzeppelin/contracts@4.4.2/access/AccessControl.sol\":4348:4493  function grantRole(bytes32 role, address account) public virtual override onlyRole(getRoleAdmin(role)) {... */\n      pop\n      pop\n      pop\n      jump\t// out\n        /* \"@openzeppelin/contracts@4.4.2/access/AccessControl.sol\":5365:5579  function renounceRole(bytes32 role, address account) public virtual override {... */\n    tag_50:\n        /* \"@openzeppelin/contracts@4.4.2/access/AccessControl.sol\":5471:5483  _msgSender() */\n      tag_140\n        /* \"@openzeppelin/contracts@4.4.2/access/AccessControl.sol\":5471:5481  _msgSender */\n      tag_134\n        /* \"@openzeppelin/contracts@4.4.2/access/AccessControl.sol\":5471:5483  _msgSender() */\n      jump\t// in\n    tag_140:\n        /* \"@openzeppelin/contracts@4.4.2/access/AccessControl.sol\":5460:5483  account == _msgSender() */\n      0xffffffffffffffffffffffffffffffffffffffff\n      and\n        /* \"@openzeppelin/contracts@4.4.2/access/AccessControl.sol\":5460:5467  account */\n      dup2\n        /* \"@openzeppelin/contracts@4.4.2/access/AccessControl.sol\":5460:5483  account == _msgSender() */\n      0xffffffffffffffffffffffffffffffffffffffff\n      and\n      eq\n        /* \"@openzeppelin/contracts@4.4.2/access/AccessControl.sol\":5452:5535  require(account == _msgSender(), \"AccessControl: can only renounce roles for self\") */\n      tag_141\n      jumpi\n      mload(0x40)\n      0x08c379a000000000000000000000000000000000000000000000000000000000\n      dup2\n      mstore\n      0x04\n      add\n      tag_142\n      swap1\n      tag_143\n      jump\t// in\n    tag_142:\n      mload(0x40)\n      dup1\n      swap2\n      sub\n      swap1\n      revert\n    tag_141:\n        /* \"@openzeppelin/contracts@4.4.2/access/AccessControl.sol\":5546:5572  _revokeRole(role, account) */\n      tag_144\n        /* \"@openzeppelin/contracts@4.4.2/access/AccessControl.sol\":5558:5562  role */\n      dup3\n        /* \"@openzeppelin/contracts@4.4.2/access/AccessControl.sol\":5564:5571  account */\n      dup3\n        /* \"@openzeppelin/contracts@4.4.2/access/AccessControl.sol\":5546:5557  _revokeRole */\n      tag_145\n        /* \"@openzeppelin/contracts@4.4.2/access/AccessControl.sol\":5546:5572  _revokeRole(role, account) */\n      jump\t// in\n    tag_144:\n        /* \"@openzeppelin/contracts@4.4.2/access/AccessControl.sol\":5365:5579  function renounceRole(bytes32 role, address account) public virtual override {... */\n      pop\n      pop\n      jump\t// out\n        /* \"contracts/Founding Citizens NFT Sale.sol\":5498:5625  function getMaxSupply() public view returns(uint) {\r... */\n    tag_52:\n        /* \"contracts/Founding Citizens NFT Sale.sol\":5542:5546  uint */\n      0x00\n        /* \"contracts/Founding Citizens NFT Sale.sol\":5579:5601  ERC1155storageContract */\n      0x01\n      0x00\n      swap1\n      sload\n      swap1\n      0x0100\n      exp\n      swap1\n      div\n      0xffffffffffffffffffffffffffffffffffffffff\n      and\n        /* \"contracts/Founding Citizens NFT Sale.sol\":5566:5615  IMintStorage(ERC1155storageContract).getMaxSupply */\n      0xffffffffffffffffffffffffffffffffffffffff\n      and\n      0x4c0f38c2\n        /* \"contracts/Founding Citizens NFT Sale.sol\":5566:5617  IMintStorage(ERC1155storageContract).getMaxSupply() */\n      mload(0x40)\n      dup2\n      0xffffffff\n      and\n      0xe0\n      shl\n      dup2\n      mstore\n      0x04\n      add\n      0x20\n      mload(0x40)\n      dup1\n      dup4\n      sub\n      dup2\n      dup7\n      dup1\n      extcodesize\n      iszero\n      dup1\n      iszero\n      tag_147\n      jumpi\n      0x00\n      dup1\n      revert\n    tag_147:\n      pop\n      gas\n      staticcall\n      iszero\n      dup1\n      iszero\n      tag_149\n      jumpi\n      returndatasize\n      0x00\n      dup1\n      returndatacopy\n      revert(0x00, returndatasize)\n    tag_149:\n      pop\n      pop\n      pop\n      pop\n      mload(0x40)\n      returndatasize\n      not(0x1f)\n      0x1f\n      dup3\n      add\n      and\n      dup3\n      add\n      dup1\n      0x40\n      mstore\n      pop\n      dup2\n      add\n      swap1\n      tag_150\n      swap2\n      swap1\n      tag_151\n      jump\t// in\n    tag_150:\n        /* \"contracts/Founding Citizens NFT Sale.sol\":5559:5617  return IMintStorage(ERC1155storageContract).getMaxSupply() */\n      swap1\n      pop\n        /* \"contracts/Founding Citizens NFT Sale.sol\":5498:5625  function getMaxSupply() public view returns(uint) {\r... */\n      swap1\n      jump\t// out\n        /* \"contracts/Founding Citizens NFT Sale.sol\":6984:7154  function buyNftWithDiscount(uint discountRate) public pushesUpdate {\r... */\n    tag_58:\n        /* \"contracts/Founding Citizens NFT Sale.sol\":3933:3946  updateState() */\n      tag_153\n        /* \"contracts/Founding Citizens NFT Sale.sol\":3933:3944  updateState */\n      tag_154\n        /* \"contracts/Founding Citizens NFT Sale.sol\":3933:3946  updateState() */\n      jump\t// in\n    tag_153:\n        /* \"contracts/Founding Citizens NFT Sale.sol\":7062:7072  uint price */\n      0x00\n        /* \"contracts/Founding Citizens NFT Sale.sol\":7075:7121  calculateCustomPrice(msg.sender, discountRate) */\n      tag_156\n        /* \"contracts/Founding Citizens NFT Sale.sol\":7096:7106  msg.sender */\n      caller\n        /* \"contracts/Founding Citizens NFT Sale.sol\":7108:7120  discountRate */\n      dup4\n        /* \"contracts/Founding Citizens NFT Sale.sol\":7075:7095  calculateCustomPrice */\n      tag_99\n        /* \"contracts/Founding Citizens NFT Sale.sol\":7075:7121  calculateCustomPrice(msg.sender, discountRate) */\n      jump\t// in\n    tag_156:\n        /* \"contracts/Founding Citizens NFT Sale.sol\":7062:7121  uint price = calculateCustomPrice(msg.sender, discountRate) */\n      swap1\n      pop\n        /* \"contracts/Founding Citizens NFT Sale.sol\":7132:7146  _buyNFT(price) */\n      tag_157\n        /* \"contracts/Founding Citizens NFT Sale.sol\":7140:7145  price */\n      dup2\n        /* \"contracts/Founding Citizens NFT Sale.sol\":7132:7139  _buyNFT */\n      tag_158\n        /* \"contracts/Founding Citizens NFT Sale.sol\":7132:7146  _buyNFT(price) */\n      jump\t// in\n    tag_157:\n        /* \"contracts/Founding Citizens NFT Sale.sol\":3957:3958  _ */\n      pop\n        /* \"contracts/Founding Citizens NFT Sale.sol\":6984:7154  function buyNftWithDiscount(uint discountRate) public pushesUpdate {\r... */\n      pop\n      jump\t// out\n        /* \"contracts/Founding Citizens NFT Sale.sol\":4651:4818  function setStorageContractAddress(address storageAddress) public onlyRole(DEFAULT_ADMIN_ROLE) {\r... */\n    tag_62:\n        /* \"@openzeppelin/contracts@4.4.2/access/AccessControl.sol\":2057:2061  0x00 */\n      0x00\n        /* \"contracts/Founding Citizens NFT Sale.sol\":4726:4744  DEFAULT_ADMIN_ROLE */\n      dup1\n      shl\n        /* \"@openzeppelin/contracts@4.4.2/access/AccessControl.sol\":2490:2520  _checkRole(role, _msgSender()) */\n      tag_160\n        /* \"@openzeppelin/contracts@4.4.2/access/AccessControl.sol\":2501:2505  role */\n      dup2\n        /* \"@openzeppelin/contracts@4.4.2/access/AccessControl.sol\":2507:2519  _msgSender() */\n      tag_161\n        /* \"@openzeppelin/contracts@4.4.2/access/AccessControl.sol\":2507:2517  _msgSender */\n      tag_134\n        /* \"@openzeppelin/contracts@4.4.2/access/AccessControl.sol\":2507:2519  _msgSender() */\n      jump\t// in\n    tag_161:\n        /* \"@openzeppelin/contracts@4.4.2/access/AccessControl.sol\":2490:2500  _checkRole */\n      tag_135\n        /* \"@openzeppelin/contracts@4.4.2/access/AccessControl.sol\":2490:2520  _checkRole(role, _msgSender()) */\n      jump\t// in\n    tag_160:\n        /* \"contracts/Founding Citizens NFT Sale.sol\":4795:4809  storageAddress */\n      dup2\n        /* \"contracts/Founding Citizens NFT Sale.sol\":4757:4779  ERC1155storageContract */\n      0x01\n      0x00\n        /* \"contracts/Founding Citizens NFT Sale.sol\":4757:4810  ERC1155storageContract = IMintStorage(storageAddress) */\n      0x0100\n      exp\n      dup2\n      sload\n      dup2\n      0xffffffffffffffffffffffffffffffffffffffff\n      mul\n      not\n      and\n      swap1\n      dup4\n      0xffffffffffffffffffffffffffffffffffffffff\n      and\n      mul\n      or\n      swap1\n      sstore\n      pop\n        /* \"contracts/Founding Citizens NFT Sale.sol\":4651:4818  function setStorageContractAddress(address storageAddress) public onlyRole(DEFAULT_ADMIN_ROLE) {\r... */\n      pop\n      pop\n      jump\t// out\n        /* \"contracts/Founding Citizens NFT Sale.sol\":3159:3233  bytes32 public constant SALE_MANAGER_ROLE = keccak256(\"SALE_MANAGER_ROLE\") */\n    tag_64:\n        /* \"contracts/Founding Citizens NFT Sale.sol\":3203:3233  keccak256(\"SALE_MANAGER_ROLE\") */\n      0x988301af8238f779281a300de031815cd01b48e9f1ae47a0f91ed6584213624a\n        /* \"contracts/Founding Citizens NFT Sale.sol\":3159:3233  bytes32 public constant SALE_MANAGER_ROLE = keccak256(\"SALE_MANAGER_ROLE\") */\n      dup2\n      jump\t// out\n        /* \"contracts/Founding Citizens NFT Sale.sol\":2934:2982  IPrivilegedListStorage public privilgedBuyerList */\n    tag_67:\n      0x02\n      0x00\n      swap1\n      sload\n      swap1\n      0x0100\n      exp\n      swap1\n      div\n      0xffffffffffffffffffffffffffffffffffffffff\n      and\n      dup2\n      jump\t// out\n        /* \"contracts/Founding Citizens NFT Sale.sol\":4826:4987  function temp() public returns(string[] memory) {\r... */\n    tag_71:\n        /* \"contracts/Founding Citizens NFT Sale.sol\":4857:4872  string[] memory */\n      0x60\n        /* \"contracts/Founding Citizens NFT Sale.sol\":4885:4906  string[] memory temp1 */\n      dup1\n        /* \"contracts/Founding Citizens NFT Sale.sol\":4917:4931  temp1[0] = \"J\" */\n      mload(0x40)\n      dup1\n      0x40\n      add\n      0x40\n      mstore\n      dup1\n      0x01\n      dup2\n      mstore\n      0x20\n      add\n      0x4a00000000000000000000000000000000000000000000000000000000000000\n      dup2\n      mstore\n      pop\n        /* \"contracts/Founding Citizens NFT Sale.sol\":4917:4922  temp1 */\n      dup2\n        /* \"contracts/Founding Citizens NFT Sale.sol\":4923:4924  0 */\n      0x00\n        /* \"contracts/Founding Citizens NFT Sale.sol\":4917:4925  temp1[0] */\n      dup2\n      mload\n      dup2\n      lt\n      tag_164\n      jumpi\n      mstore(0x00, 0x4e487b7100000000000000000000000000000000000000000000000000000000)\n      mstore(0x04, 0x32)\n      revert(0x00, 0x24)\n    tag_164:\n      0x20\n      mul\n      0x20\n      add\n      add\n        /* \"contracts/Founding Citizens NFT Sale.sol\":4917:4931  temp1[0] = \"J\" */\n      dup2\n      swap1\n      mstore\n      pop\n        /* \"contracts/Founding Citizens NFT Sale.sol\":4942:4956  temp1[1] = \"K\" */\n      mload(0x40)\n      dup1\n      0x40\n      add\n      0x40\n      mstore\n      dup1\n      0x01\n      dup2\n      mstore\n      0x20\n      add\n      0x4b00000000000000000000000000000000000000000000000000000000000000\n      dup2\n      mstore\n      pop\n        /* \"contracts/Founding Citizens NFT Sale.sol\":4942:4947  temp1 */\n      dup2\n        /* \"contracts/Founding Citizens NFT Sale.sol\":4948:4949  1 */\n      0x01\n        /* \"contracts/Founding Citizens NFT Sale.sol\":4942:4950  temp1[1] */\n      dup2\n      mload\n      dup2\n      lt\n      tag_165\n      jumpi\n      mstore(0x00, 0x4e487b7100000000000000000000000000000000000000000000000000000000)\n      mstore(0x04, 0x32)\n      revert(0x00, 0x24)\n    tag_165:\n      0x20\n      mul\n      0x20\n      add\n      add\n        /* \"contracts/Founding Citizens NFT Sale.sol\":4942:4956  temp1[1] = \"K\" */\n      dup2\n      swap1\n      mstore\n      pop\n        /* \"contracts/Founding Citizens NFT Sale.sol\":4974:4979  temp1 */\n      dup1\n        /* \"contracts/Founding Citizens NFT Sale.sol\":4967:4979  return temp1 */\n      swap2\n      pop\n      pop\n        /* \"contracts/Founding Citizens NFT Sale.sol\":4826:4987  function temp() public returns(string[] memory) {\r... */\n      swap1\n      jump\t// out\n        /* \"contracts/Founding Citizens NFT Sale.sol\":3080:3152  bytes32 public constant URI_MANAGER_ROLE = keccak256(\"URI_MANAGER_ROLE\") */\n    tag_75:\n        /* \"contracts/Founding Citizens NFT Sale.sol\":3123:3152  keccak256(\"URI_MANAGER_ROLE\") */\n      0xa70a2d8710fed9f014c8c2af50c7c2f6b25748ae4cded822e03b7beed44cf3a8\n        /* \"contracts/Founding Citizens NFT Sale.sol\":3080:3152  bytes32 public constant URI_MANAGER_ROLE = keccak256(\"URI_MANAGER_ROLE\") */\n      dup2\n      jump\t// out\n        /* \"contracts/Founding Citizens NFT Sale.sol\":5351:5490  function getNextUnusedToken() public view returns(uint) {\r... */\n    tag_78:\n        /* \"contracts/Founding Citizens NFT Sale.sol\":5401:5405  uint */\n      0x00\n        /* \"contracts/Founding Citizens NFT Sale.sol\":5438:5460  ERC1155storageContract */\n      0x01\n      0x00\n      swap1\n      sload\n      swap1\n      0x0100\n      exp\n      swap1\n      div\n      0xffffffffffffffffffffffffffffffffffffffff\n      and\n        /* \"contracts/Founding Citizens NFT Sale.sol\":5425:5480  IMintStorage(ERC1155storageContract).getNextUnusedToken */\n      0xffffffffffffffffffffffffffffffffffffffff\n      and\n      0x68fc01a2\n        /* \"contracts/Founding Citizens NFT Sale.sol\":5425:5482  IMintStorage(ERC1155storageContract).getNextUnusedToken() */\n      mload(0x40)\n      dup2\n      0xffffffff\n      and\n      0xe0\n      shl\n      dup2\n      mstore\n      0x04\n      add\n      0x20\n      mload(0x40)\n      dup1\n      dup4\n      sub\n      dup2\n      dup7\n      dup1\n      extcodesize\n      iszero\n      dup1\n      iszero\n      tag_167\n      jumpi\n      0x00\n      dup1\n      revert\n    tag_167:\n      pop\n      gas\n      staticcall\n      iszero\n      dup1\n      iszero\n      tag_169\n      jumpi\n      returndatasize\n      0x00\n      dup1\n      returndatacopy\n      revert(0x00, returndatasize)\n    tag_169:\n      pop\n      pop\n      pop\n      pop\n      mload(0x40)\n      returndatasize\n      not(0x1f)\n      0x1f\n      dup3\n      add\n      and\n      dup3\n      add\n      dup1\n      0x40\n      mstore\n      pop\n      dup2\n      add\n      swap1\n      tag_170\n      swap2\n      swap1\n      tag_151\n      jump\t// in\n    tag_170:\n        /* \"contracts/Founding Citizens NFT Sale.sol\":5418:5482  return IMintStorage(ERC1155storageContract).getNextUnusedToken() */\n      swap1\n      pop\n        /* \"contracts/Founding Citizens NFT Sale.sol\":5351:5490  function getNextUnusedToken() public view returns(uint) {\r... */\n      swap1\n      jump\t// out\n        /* \"contracts/Founding Citizens NFT Sale.sol\":2885:2927  IMintStorage public ERC1155storageContract */\n    tag_81:\n      0x01\n      0x00\n      swap1\n      sload\n      swap1\n      0x0100\n      exp\n      swap1\n      div\n      0xffffffffffffffffffffffffffffffffffffffff\n      and\n      dup2\n      jump\t// out\n        /* \"contracts/Founding Citizens NFT Sale.sol\":7162:7573  function mintToTreasuryAddress() public requiresUpdate {\r... */\n    tag_85:\n        /* \"contracts/Founding Citizens NFT Sale.sol\":3823:3838  block.timestamp */\n      timestamp\n        /* \"contracts/Founding Citizens NFT Sale.sol\":3804:3814  lastUpdate */\n      0x09\n        /* \"contracts/Founding Citizens NFT Sale.sol\":3804:3819  lastUpdate.time */\n      0x01\n      add\n      sload\n        /* \"contracts/Founding Citizens NFT Sale.sol\":3804:3838  lastUpdate.time == block.timestamp */\n      eq\n        /* \"contracts/Founding Citizens NFT Sale.sol\":3796:3870  require(lastUpdate.time == block.timestamp, \"timestamp is not up-to-date\") */\n      tag_172\n      jumpi\n      mload(0x40)\n      0x08c379a000000000000000000000000000000000000000000000000000000000\n      dup2\n      mstore\n      0x04\n      add\n      tag_173\n      swap1\n      tag_174\n      jump\t// in\n    tag_173:\n      mload(0x40)\n      dup1\n      swap2\n      sub\n      swap1\n      revert\n    tag_172:\n        /* \"contracts/Founding Citizens NFT Sale.sol\":7268:7275  endTime */\n      sload(0x06)\n        /* \"contracts/Founding Citizens NFT Sale.sol\":7250:7265  block.timestamp */\n      timestamp\n        /* \"contracts/Founding Citizens NFT Sale.sol\":7250:7275  block.timestamp > endTime */\n      gt\n        /* \"contracts/Founding Citizens NFT Sale.sol\":7250:7301  block.timestamp > endTime && !lastUpdate.saleIsLive */\n      dup1\n      iszero\n      tag_176\n      jumpi\n      pop\n        /* \"contracts/Founding Citizens NFT Sale.sol\":7280:7290  lastUpdate */\n      0x09\n        /* \"contracts/Founding Citizens NFT Sale.sol\":7280:7301  lastUpdate.saleIsLive */\n      0x02\n      add\n      0x00\n      swap1\n      sload\n      swap1\n      0x0100\n      exp\n      swap1\n      div\n      0xff\n      and\n        /* \"contracts/Founding Citizens NFT Sale.sol\":7279:7301  !lastUpdate.saleIsLive */\n      iszero\n        /* \"contracts/Founding Citizens NFT Sale.sol\":7250:7301  block.timestamp > endTime && !lastUpdate.saleIsLive */\n    tag_176:\n        /* \"contracts/Founding Citizens NFT Sale.sol\":7228:7384  require(\r... */\n      tag_177\n      jumpi\n      mload(0x40)\n      0x08c379a000000000000000000000000000000000000000000000000000000000\n      dup2\n      mstore\n      0x04\n      add\n      tag_178\n      swap1\n      tag_179\n      jump\t// in\n    tag_178:\n      mload(0x40)\n      dup1\n      swap2\n      sub\n      swap1\n      revert\n    tag_177:\n        /* \"contracts/Founding Citizens NFT Sale.sol\":7395:7410  uint leftToMint */\n      0x00\n        /* \"contracts/Founding Citizens NFT Sale.sol\":7452:7453  1 */\n      0x01\n        /* \"contracts/Founding Citizens NFT Sale.sol\":7431:7451  getNextUnusedToken() */\n      tag_180\n        /* \"contracts/Founding Citizens NFT Sale.sol\":7431:7449  getNextUnusedToken */\n      tag_78\n        /* \"contracts/Founding Citizens NFT Sale.sol\":7431:7451  getNextUnusedToken() */\n      jump\t// in\n    tag_180:\n        /* \"contracts/Founding Citizens NFT Sale.sol\":7431:7453  getNextUnusedToken()-1 */\n      tag_181\n      swap2\n      swap1\n      tag_182\n      jump\t// in\n    tag_181:\n        /* \"contracts/Founding Citizens NFT Sale.sol\":7413:7427  getMaxSupply() */\n      tag_183\n        /* \"contracts/Founding Citizens NFT Sale.sol\":7413:7425  getMaxSupply */\n      tag_52\n        /* \"contracts/Founding Citizens NFT Sale.sol\":7413:7427  getMaxSupply() */\n      jump\t// in\n    tag_183:\n        /* \"contracts/Founding Citizens NFT Sale.sol\":7413:7454  getMaxSupply() - (getNextUnusedToken()-1) */\n      tag_184\n      swap2\n      swap1\n      tag_182\n      jump\t// in\n    tag_184:\n        /* \"contracts/Founding Citizens NFT Sale.sol\":7395:7454  uint leftToMint = getMaxSupply() - (getNextUnusedToken()-1) */\n      swap1\n      pop\n        /* \"contracts/Founding Citizens NFT Sale.sol\":7465:7566  for (; leftToMint > 0; leftToMint--) {\r... */\n    tag_185:\n        /* \"contracts/Founding Citizens NFT Sale.sol\":7485:7486  0 */\n      0x00\n        /* \"contracts/Founding Citizens NFT Sale.sol\":7472:7482  leftToMint */\n      dup2\n        /* \"contracts/Founding Citizens NFT Sale.sol\":7472:7486  leftToMint > 0 */\n      gt\n        /* \"contracts/Founding Citizens NFT Sale.sol\":7465:7566  for (; leftToMint > 0; leftToMint--) {\r... */\n      iszero\n      tag_186\n      jumpi\n        /* \"contracts/Founding Citizens NFT Sale.sol\":7517:7554  mintNextNftToAddress(treasuryAddress) */\n      tag_188\n        /* \"contracts/Founding Citizens NFT Sale.sol\":7538:7553  treasuryAddress */\n      0x04\n      0x00\n      swap1\n      sload\n      swap1\n      0x0100\n      exp\n      swap1\n      div\n      0xffffffffffffffffffffffffffffffffffffffff\n      and\n        /* \"contracts/Founding Citizens NFT Sale.sol\":7517:7537  mintNextNftToAddress */\n      tag_189\n        /* \"contracts/Founding Citizens NFT Sale.sol\":7517:7554  mintNextNftToAddress(treasuryAddress) */\n      jump\t// in\n    tag_188:\n        /* \"contracts/Founding Citizens NFT Sale.sol\":7488:7500  leftToMint-- */\n      dup1\n      dup1\n      tag_190\n      swap1\n      tag_191\n      jump\t// in\n    tag_190:\n      swap2\n      pop\n      pop\n        /* \"contracts/Founding Citizens NFT Sale.sol\":7465:7566  for (; leftToMint > 0; leftToMint--) {\r... */\n      jump(tag_185)\n    tag_186:\n        /* \"contracts/Founding Citizens NFT Sale.sol\":3881:3882  _ */\n      pop\n        /* \"contracts/Founding Citizens NFT Sale.sol\":7162:7573  function mintToTreasuryAddress() public requiresUpdate {\r... */\n      jump\t// out\n        /* \"@openzeppelin/contracts@4.4.2/access/AccessControl.sol\":2894:3031  function hasRole(bytes32 role, address account) public view override returns (bool) {... */\n    tag_88:\n        /* \"@openzeppelin/contracts@4.4.2/access/AccessControl.sol\":2972:2976  bool */\n      0x00\n        /* \"@openzeppelin/contracts@4.4.2/access/AccessControl.sol\":2995:3001  _roles */\n      dup1\n        /* \"@openzeppelin/contracts@4.4.2/access/AccessControl.sol\":2995:3007  _roles[role] */\n      0x00\n        /* \"@openzeppelin/contracts@4.4.2/access/AccessControl.sol\":3002:3006  role */\n      dup5\n        /* \"@openzeppelin/contracts@4.4.2/access/AccessControl.sol\":2995:3007  _roles[role] */\n      dup2\n      mstore\n      0x20\n      add\n      swap1\n      dup2\n      mstore\n      0x20\n      add\n      0x00\n      keccak256\n        /* \"@openzeppelin/contracts@4.4.2/access/AccessControl.sol\":2995:3015  _roles[role].members */\n      0x00\n      add\n        /* \"@openzeppelin/contracts@4.4.2/access/AccessControl.sol\":2995:3024  _roles[role].members[account] */\n      0x00\n        /* \"@openzeppelin/contracts@4.4.2/access/AccessControl.sol\":3016:3023  account */\n      dup4\n        /* \"@openzeppelin/contracts@4.4.2/access/AccessControl.sol\":2995:3024  _roles[role].members[account] */\n      0xffffffffffffffffffffffffffffffffffffffff\n      and\n      0xffffffffffffffffffffffffffffffffffffffff\n      and\n      dup2\n      mstore\n      0x20\n      add\n      swap1\n      dup2\n      mstore\n      0x20\n      add\n      0x00\n      keccak256\n      0x00\n      swap1\n      sload\n      swap1\n      0x0100\n      exp\n      swap1\n      div\n      0xff\n      and\n        /* \"@openzeppelin/contracts@4.4.2/access/AccessControl.sol\":2988:3024  return _roles[role].members[account] */\n      swap1\n      pop\n        /* \"@openzeppelin/contracts@4.4.2/access/AccessControl.sol\":2894:3031  function hasRole(bytes32 role, address account) public view override returns (bool) {... */\n      swap3\n      swap2\n      pop\n      pop\n      jump\t// out\n        /* \"contracts/Founding Citizens NFT Sale.sol\":5633:5911  function setstartTime(uint unixTime) public {\r... */\n    tag_92:\n        /* \"contracts/Founding Citizens NFT Sale.sol\":5710:5750  hasRole(SALE_MANAGER_ROLE, _msgSender()) */\n      tag_194\n        /* \"contracts/Founding Citizens NFT Sale.sol\":3203:3233  keccak256(\"SALE_MANAGER_ROLE\") */\n      0x988301af8238f779281a300de031815cd01b48e9f1ae47a0f91ed6584213624a\n        /* \"contracts/Founding Citizens NFT Sale.sol\":5737:5749  _msgSender() */\n      tag_195\n        /* \"contracts/Founding Citizens NFT Sale.sol\":5737:5747  _msgSender */\n      tag_134\n        /* \"contracts/Founding Citizens NFT Sale.sol\":5737:5749  _msgSender() */\n      jump\t// in\n    tag_195:\n        /* \"contracts/Founding Citizens NFT Sale.sol\":5710:5717  hasRole */\n      tag_88\n        /* \"contracts/Founding Citizens NFT Sale.sol\":5710:5750  hasRole(SALE_MANAGER_ROLE, _msgSender()) */\n      jump\t// in\n    tag_194:\n        /* \"contracts/Founding Citizens NFT Sale.sol\":5710:5809  hasRole(SALE_MANAGER_ROLE, _msgSender()) || \r... */\n      dup1\n      tag_196\n      jumpi\n      pop\n        /* \"contracts/Founding Citizens NFT Sale.sol\":5768:5809  hasRole(DEFAULT_ADMIN_ROLE, _msgSender()) */\n      tag_197\n        /* \"@openzeppelin/contracts@4.4.2/access/AccessControl.sol\":2057:2061  0x00 */\n      0x00\n        /* \"contracts/Founding Citizens NFT Sale.sol\":5776:5794  DEFAULT_ADMIN_ROLE */\n      dup1\n      shl\n        /* \"contracts/Founding Citizens NFT Sale.sol\":5796:5808  _msgSender() */\n      tag_198\n        /* \"contracts/Founding Citizens NFT Sale.sol\":5796:5806  _msgSender */\n      tag_134\n        /* \"contracts/Founding Citizens NFT Sale.sol\":5796:5808  _msgSender() */\n      jump\t// in\n    tag_198:\n        /* \"contracts/Founding Citizens NFT Sale.sol\":5768:5775  hasRole */\n      tag_88\n        /* \"contracts/Founding Citizens NFT Sale.sol\":5768:5809  hasRole(DEFAULT_ADMIN_ROLE, _msgSender()) */\n      jump\t// in\n    tag_197:\n        /* \"contracts/Founding Citizens NFT Sale.sol\":5710:5809  hasRole(SALE_MANAGER_ROLE, _msgSender()) || \r... */\n    tag_196:\n        /* \"contracts/Founding Citizens NFT Sale.sol\":5688:5872  require(\r... */\n      tag_199\n      jumpi\n      mload(0x40)\n      0x08c379a000000000000000000000000000000000000000000000000000000000\n      dup2\n      mstore\n      0x04\n      add\n      tag_200\n      swap1\n      tag_201\n      jump\t// in\n    tag_200:\n      mload(0x40)\n      dup1\n      swap2\n      sub\n      swap1\n      revert\n    tag_199:\n        /* \"contracts/Founding Citizens NFT Sale.sol\":5895:5903  unixTime */\n      dup1\n        /* \"contracts/Founding Citizens NFT Sale.sol\":5883:5892  startTime */\n      0x05\n        /* \"contracts/Founding Citizens NFT Sale.sol\":5883:5903  startTime = unixTime */\n      dup2\n      swap1\n      sstore\n      pop\n        /* \"contracts/Founding Citizens NFT Sale.sol\":5633:5911  function setstartTime(uint unixTime) public {\r... */\n      pop\n      jump\t// out\n        /* \"@openzeppelin/contracts@4.4.2/access/AccessControl.sol\":2012:2061  bytes32 public constant DEFAULT_ADMIN_ROLE = 0x00 */\n    tag_94:\n        /* \"@openzeppelin/contracts@4.4.2/access/AccessControl.sol\":2057:2061  0x00 */\n      0x00\n        /* \"@openzeppelin/contracts@4.4.2/access/AccessControl.sol\":2012:2061  bytes32 public constant DEFAULT_ADMIN_ROLE = 0x00 */\n      dup1\n      shl\n      dup2\n      jump\t// out\n        /* \"contracts/Founding Citizens NFT Sale.sol\":6201:6651  function calculateCustomPrice(address prospectiveBuyer, uint discountRate) \r... */\n    tag_99:\n        /* \"contracts/Founding Citizens NFT Sale.sol\":6317:6321  uint */\n      0x00\n        /* \"contracts/Founding Citizens NFT Sale.sol\":3823:3838  block.timestamp */\n      timestamp\n        /* \"contracts/Founding Citizens NFT Sale.sol\":3804:3814  lastUpdate */\n      0x09\n        /* \"contracts/Founding Citizens NFT Sale.sol\":3804:3819  lastUpdate.time */\n      0x01\n      add\n      sload\n        /* \"contracts/Founding Citizens NFT Sale.sol\":3804:3838  lastUpdate.time == block.timestamp */\n      eq\n        /* \"contracts/Founding Citizens NFT Sale.sol\":3796:3870  require(lastUpdate.time == block.timestamp, \"timestamp is not up-to-date\") */\n      tag_203\n      jumpi\n      mload(0x40)\n      0x08c379a000000000000000000000000000000000000000000000000000000000\n      dup2\n      mstore\n      0x04\n      add\n      tag_204\n      swap1\n      tag_174\n      jump\t// in\n    tag_204:\n      mload(0x40)\n      dup1\n      swap2\n      sub\n      swap1\n      revert\n    tag_203:\n        /* \"contracts/Founding Citizens NFT Sale.sol\":6342:6360  privilgedBuyerList */\n      0x02\n      0x00\n      swap1\n      sload\n      swap1\n      0x0100\n      exp\n      swap1\n      div\n      0xffffffffffffffffffffffffffffffffffffffff\n      and\n        /* \"contracts/Founding Citizens NFT Sale.sol\":6342:6377  privilgedBuyerList.addressHasCoupon */\n      0xffffffffffffffffffffffffffffffffffffffff\n      and\n      0x2080179d\n        /* \"contracts/Founding Citizens NFT Sale.sol\":6378:6394  prospectiveBuyer */\n      dup5\n        /* \"contracts/Founding Citizens NFT Sale.sol\":6396:6408  discountRate */\n      dup5\n        /* \"contracts/Founding Citizens NFT Sale.sol\":6342:6409  privilgedBuyerList.addressHasCoupon(prospectiveBuyer, discountRate) */\n      mload(0x40)\n      dup4\n      0xffffffff\n      and\n      0xe0\n      shl\n      dup2\n      mstore\n      0x04\n      add\n      tag_206\n      swap3\n      swap2\n      swap1\n      tag_207\n      jump\t// in\n    tag_206:\n      0x20\n      mload(0x40)\n      dup1\n      dup4\n      sub\n      dup2\n      dup7\n      dup1\n      extcodesize\n      iszero\n      dup1\n      iszero\n      tag_208\n      jumpi\n      0x00\n      dup1\n      revert\n    tag_208:\n      pop\n      gas\n      staticcall\n      iszero\n      dup1\n      iszero\n      tag_210\n      jumpi\n      returndatasize\n      0x00\n      dup1\n      returndatacopy\n      revert(0x00, returndatasize)\n    tag_210:\n      pop\n      pop\n      pop\n      pop\n      mload(0x40)\n      returndatasize\n      not(0x1f)\n      0x1f\n      dup3\n      add\n      and\n      dup3\n      add\n      dup1\n      0x40\n      mstore\n      pop\n      dup2\n      add\n      swap1\n      tag_211\n      swap2\n      swap1\n      tag_212\n      jump\t// in\n    tag_211:\n        /* \"contracts/Founding Citizens NFT Sale.sol\":6461:6477  prospectiveBuyer */\n      dup4\n        /* \"contracts/Founding Citizens NFT Sale.sol\":6531:6543  discountRate */\n      dup4\n        /* \"contracts/Founding Citizens NFT Sale.sol\":6418:6549  abi.encodePacked(\r... */\n      add(0x20, mload(0x40))\n      tag_213\n      swap3\n      swap2\n      swap1\n      tag_214\n      jump\t// in\n    tag_213:\n      mload(0x40)\n      0x20\n      dup2\n      dup4\n      sub\n      sub\n      dup2\n      mstore\n      swap1\n      0x40\n      mstore\n        /* \"contracts/Founding Citizens NFT Sale.sol\":6334:6551  require(privilgedBuyerList.addressHasCoupon(prospectiveBuyer, discountRate), string(abi.encodePacked(\r... */\n      swap1\n      tag_215\n      jumpi\n      mload(0x40)\n      0x08c379a000000000000000000000000000000000000000000000000000000000\n      dup2\n      mstore\n      0x04\n      add\n      tag_216\n      swap2\n      swap1\n      tag_217\n      jump\t// in\n    tag_216:\n      mload(0x40)\n      dup1\n      swap2\n      sub\n      swap1\n      revert\n    tag_215:\n      pop\n        /* \"contracts/Founding Citizens NFT Sale.sol\":6562:6572  uint price */\n      0x00\n        /* \"contracts/Founding Citizens NFT Sale.sol\":6607:6619  discountRate */\n      dup3\n        /* \"contracts/Founding Citizens NFT Sale.sol\":6601:6604  100 */\n      0x64\n        /* \"contracts/Founding Citizens NFT Sale.sol\":6601:6619  100 - discountRate */\n      tag_218\n      swap2\n      swap1\n      tag_182\n      jump\t// in\n    tag_218:\n        /* \"contracts/Founding Citizens NFT Sale.sol\":6594:6597  100 */\n      0x64\n        /* \"contracts/Founding Citizens NFT Sale.sol\":6575:6585  lastUpdate */\n      0x09\n        /* \"contracts/Founding Citizens NFT Sale.sol\":6575:6591  lastUpdate.price */\n      0x00\n      add\n      sload\n        /* \"contracts/Founding Citizens NFT Sale.sol\":6575:6597  lastUpdate.price / 100 */\n      tag_219\n      swap2\n      swap1\n      tag_220\n      jump\t// in\n    tag_219:\n        /* \"contracts/Founding Citizens NFT Sale.sol\":6575:6620  lastUpdate.price / 100 * (100 - discountRate) */\n      tag_221\n      swap2\n      swap1\n      tag_222\n      jump\t// in\n    tag_221:\n        /* \"contracts/Founding Citizens NFT Sale.sol\":6562:6620  uint price = lastUpdate.price / 100 * (100 - discountRate) */\n      swap1\n      pop\n        /* \"contracts/Founding Citizens NFT Sale.sol\":6638:6643  price */\n      dup1\n        /* \"contracts/Founding Citizens NFT Sale.sol\":6631:6643  return price */\n      swap2\n      pop\n      pop\n        /* \"contracts/Founding Citizens NFT Sale.sol\":6201:6651  function calculateCustomPrice(address prospectiveBuyer, uint discountRate) \r... */\n      swap3\n      swap2\n      pop\n      pop\n      jump\t// out\n        /* \"contracts/Founding Citizens NFT Sale.sol\":6831:6976  function buyNFT() public pushesUpdate { //requires using existing balance\r... */\n    tag_102:\n        /* \"contracts/Founding Citizens NFT Sale.sol\":3933:3946  updateState() */\n      tag_224\n        /* \"contracts/Founding Citizens NFT Sale.sol\":3933:3944  updateState */\n      tag_154\n        /* \"contracts/Founding Citizens NFT Sale.sol\":3933:3946  updateState() */\n      jump\t// in\n    tag_224:\n        /* \"contracts/Founding Citizens NFT Sale.sol\":6914:6924  uint price */\n      0x00\n        /* \"contracts/Founding Citizens NFT Sale.sol\":6927:6937  lastUpdate */\n      0x09\n        /* \"contracts/Founding Citizens NFT Sale.sol\":6927:6943  lastUpdate.price */\n      0x00\n      add\n      sload\n        /* \"contracts/Founding Citizens NFT Sale.sol\":6914:6943  uint price = lastUpdate.price */\n      swap1\n      pop\n        /* \"contracts/Founding Citizens NFT Sale.sol\":6954:6968  _buyNFT(price) */\n      tag_226\n        /* \"contracts/Founding Citizens NFT Sale.sol\":6962:6967  price */\n      dup2\n        /* \"contracts/Founding Citizens NFT Sale.sol\":6954:6961  _buyNFT */\n      tag_158\n        /* \"contracts/Founding Citizens NFT Sale.sol\":6954:6968  _buyNFT(price) */\n      jump\t// in\n    tag_226:\n        /* \"contracts/Founding Citizens NFT Sale.sol\":3957:3958  _ */\n      pop\n        /* \"contracts/Founding Citizens NFT Sale.sol\":6831:6976  function buyNFT() public pushesUpdate { //requires using existing balance\r... */\n      jump\t// out\n        /* \"contracts/Founding Citizens NFT Sale.sol\":3686:3750  Update public lastUpdate = Update(10000, block.timestamp, false) */\n    tag_104:\n      0x09\n      dup1\n      0x00\n      add\n      sload\n      swap1\n      dup1\n      0x01\n      add\n      sload\n      swap1\n      dup1\n      0x02\n      add\n      0x00\n      swap1\n      sload\n      swap1\n      0x0100\n      exp\n      swap1\n      div\n      0xff\n      and\n      swap1\n      pop\n      dup4\n      jump\t// out\n        /* \"contracts/Founding Citizens NFT Sale.sol\":2989:3034  IUsdcStorage public usdcEscrowStorageContract */\n    tag_108:\n      0x03\n      0x00\n      swap1\n      sload\n      swap1\n      0x0100\n      exp\n      swap1\n      div\n      0xffffffffffffffffffffffffffffffffffffffff\n      and\n      dup2\n      jump\t// out\n        /* \"contracts/Founding Citizens NFT Sale.sol\":3041:3071  address public treasuryAddress */\n    tag_112:\n      0x04\n      0x00\n      swap1\n      sload\n      swap1\n      0x0100\n      exp\n      swap1\n      div\n      0xffffffffffffffffffffffffffffffffffffffff\n      and\n      dup2\n      jump\t// out\n        /* \"contracts/Founding Citizens NFT Sale.sol\":5919:6193  function setEndTime(uint unixTime) public {\r... */\n    tag_117:\n        /* \"contracts/Founding Citizens NFT Sale.sol\":5994:6034  hasRole(SALE_MANAGER_ROLE, _msgSender()) */\n      tag_228\n        /* \"contracts/Founding Citizens NFT Sale.sol\":3203:3233  keccak256(\"SALE_MANAGER_ROLE\") */\n      0x988301af8238f779281a300de031815cd01b48e9f1ae47a0f91ed6584213624a\n        /* \"contracts/Founding Citizens NFT Sale.sol\":6021:6033  _msgSender() */\n      tag_229\n        /* \"contracts/Founding Citizens NFT Sale.sol\":6021:6031  _msgSender */\n      tag_134\n        /* \"contracts/Founding Citizens NFT Sale.sol\":6021:6033  _msgSender() */\n      jump\t// in\n    tag_229:\n        /* \"contracts/Founding Citizens NFT Sale.sol\":5994:6001  hasRole */\n      tag_88\n        /* \"contracts/Founding Citizens NFT Sale.sol\":5994:6034  hasRole(SALE_MANAGER_ROLE, _msgSender()) */\n      jump\t// in\n    tag_228:\n        /* \"contracts/Founding Citizens NFT Sale.sol\":5994:6093  hasRole(SALE_MANAGER_ROLE, _msgSender()) || \r... */\n      dup1\n      tag_230\n      jumpi\n      pop\n        /* \"contracts/Founding Citizens NFT Sale.sol\":6052:6093  hasRole(DEFAULT_ADMIN_ROLE, _msgSender()) */\n      tag_231\n        /* \"@openzeppelin/contracts@4.4.2/access/AccessControl.sol\":2057:2061  0x00 */\n      0x00\n        /* \"contracts/Founding Citizens NFT Sale.sol\":6060:6078  DEFAULT_ADMIN_ROLE */\n      dup1\n      shl\n        /* \"contracts/Founding Citizens NFT Sale.sol\":6080:6092  _msgSender() */\n      tag_232\n        /* \"contracts/Founding Citizens NFT Sale.sol\":6080:6090  _msgSender */\n      tag_134\n        /* \"contracts/Founding Citizens NFT Sale.sol\":6080:6092  _msgSender() */\n      jump\t// in\n    tag_232:\n        /* \"contracts/Founding Citizens NFT Sale.sol\":6052:6059  hasRole */\n      tag_88\n        /* \"contracts/Founding Citizens NFT Sale.sol\":6052:6093  hasRole(DEFAULT_ADMIN_ROLE, _msgSender()) */\n      jump\t// in\n    tag_231:\n        /* \"contracts/Founding Citizens NFT Sale.sol\":5994:6093  hasRole(SALE_MANAGER_ROLE, _msgSender()) || \r... */\n    tag_230:\n        /* \"contracts/Founding Citizens NFT Sale.sol\":5972:6156  require(\r... */\n      tag_233\n      jumpi\n      mload(0x40)\n      0x08c379a000000000000000000000000000000000000000000000000000000000\n      dup2\n      mstore\n      0x04\n      add\n      tag_234\n      swap1\n      tag_201\n      jump\t// in\n    tag_234:\n      mload(0x40)\n      dup1\n      swap2\n      sub\n      swap1\n      revert\n    tag_233:\n        /* \"contracts/Founding Citizens NFT Sale.sol\":6177:6185  unixTime */\n      dup1\n        /* \"contracts/Founding Citizens NFT Sale.sol\":6167:6174  endTime */\n      0x06\n        /* \"contracts/Founding Citizens NFT Sale.sol\":6167:6185  endTime = unixTime */\n      dup2\n      swap1\n      sstore\n      pop\n        /* \"contracts/Founding Citizens NFT Sale.sol\":5919:6193  function setEndTime(uint unixTime) public {\r... */\n      pop\n      jump\t// out\n        /* \"@openzeppelin/contracts@4.4.2/access/AccessControl.sol\":4727:4874  function revokeRole(bytes32 role, address account) public virtual override onlyRole(getRoleAdmin(role)) {... */\n    tag_120:\n        /* \"@openzeppelin/contracts@4.4.2/access/AccessControl.sol\":4811:4829  getRoleAdmin(role) */\n      tag_235\n        /* \"@openzeppelin/contracts@4.4.2/access/AccessControl.sol\":4824:4828  role */\n      dup3\n        /* \"@openzeppelin/contracts@4.4.2/access/AccessControl.sol\":4811:4823  getRoleAdmin */\n      tag_41\n        /* \"@openzeppelin/contracts@4.4.2/access/AccessControl.sol\":4811:4829  getRoleAdmin(role) */\n      jump\t// in\n    tag_235:\n        /* \"@openzeppelin/contracts@4.4.2/access/AccessControl.sol\":2490:2520  _checkRole(role, _msgSender()) */\n      tag_237\n        /* \"@openzeppelin/contracts@4.4.2/access/AccessControl.sol\":2501:2505  role */\n      dup2\n        /* \"@openzeppelin/contracts@4.4.2/access/AccessControl.sol\":2507:2519  _msgSender() */\n      tag_238\n        /* \"@openzeppelin/contracts@4.4.2/access/AccessControl.sol\":2507:2517  _msgSender */\n      tag_134\n        /* \"@openzeppelin/contracts@4.4.2/access/AccessControl.sol\":2507:2519  _msgSender() */\n      jump\t// in\n    tag_238:\n        /* \"@openzeppelin/contracts@4.4.2/access/AccessControl.sol\":2490:2500  _checkRole */\n      tag_135\n        /* \"@openzeppelin/contracts@4.4.2/access/AccessControl.sol\":2490:2520  _checkRole(role, _msgSender()) */\n      jump\t// in\n    tag_237:\n        /* \"@openzeppelin/contracts@4.4.2/access/AccessControl.sol\":4841:4867  _revokeRole(role, account) */\n      tag_240\n        /* \"@openzeppelin/contracts@4.4.2/access/AccessControl.sol\":4853:4857  role */\n      dup4\n        /* \"@openzeppelin/contracts@4.4.2/access/AccessControl.sol\":4859:4866  account */\n      dup4\n        /* \"@openzeppelin/contracts@4.4.2/access/AccessControl.sol\":4841:4852  _revokeRole */\n      tag_145\n        /* \"@openzeppelin/contracts@4.4.2/access/AccessControl.sol\":4841:4867  _revokeRole(role, account) */\n      jump\t// in\n    tag_240:\n        /* \"@openzeppelin/contracts@4.4.2/access/AccessControl.sol\":4727:4874  function revokeRole(bytes32 role, address account) public virtual override onlyRole(getRoleAdmin(role)) {... */\n      pop\n      pop\n      pop\n      jump\t// out\n        /* \"contracts/Founding Citizens NFT Sale.sol\":5189:5343  function preLoadURIs(uint[] memory ids, string[] memory uris) \r... */\n    tag_124:\n        /* \"contracts/Founding Citizens NFT Sale.sol\":5289:5311  ERC1155storageContract */\n      0x01\n      0x00\n      swap1\n      sload\n      swap1\n      0x0100\n      exp\n      swap1\n      div\n      0xffffffffffffffffffffffffffffffffffffffff\n      and\n        /* \"contracts/Founding Citizens NFT Sale.sol\":5276:5324  IMintStorage(ERC1155storageContract).preLoadURIs */\n      0xffffffffffffffffffffffffffffffffffffffff\n      and\n      0xf121da92\n        /* \"contracts/Founding Citizens NFT Sale.sol\":5325:5328  ids */\n      dup4\n        /* \"contracts/Founding Citizens NFT Sale.sol\":5330:5334  uris */\n      dup4\n        /* \"contracts/Founding Citizens NFT Sale.sol\":5276:5335  IMintStorage(ERC1155storageContract).preLoadURIs(ids, uris) */\n      mload(0x40)\n      dup4\n      0xffffffff\n      and\n      0xe0\n      shl\n      dup2\n      mstore\n      0x04\n      add\n      tag_242\n      swap3\n      swap2\n      swap1\n      tag_243\n      jump\t// in\n    tag_242:\n      0x00\n      mload(0x40)\n      dup1\n      dup4\n      sub\n      dup2\n      0x00\n      dup8\n      dup1\n      extcodesize\n      iszero\n      dup1\n      iszero\n      tag_244\n      jumpi\n      0x00\n      dup1\n      revert\n    tag_244:\n      pop\n      gas\n      call\n      iszero\n      dup1\n      iszero\n      tag_246\n      jumpi\n      returndatasize\n      0x00\n      dup1\n      returndatacopy\n      revert(0x00, returndatasize)\n    tag_246:\n      pop\n      pop\n      pop\n      pop\n        /* \"contracts/Founding Citizens NFT Sale.sol\":5189:5343  function preLoadURIs(uint[] memory ids, string[] memory uris) \r... */\n      pop\n      pop\n      jump\t// out\n        /* \"@openzeppelin/contracts@4.4.2/utils/introspection/ERC165.sol\":829:984  function supportsInterface(bytes4 interfaceId) public view virtual override returns (bool) {... */\n    tag_128:\n        /* \"@openzeppelin/contracts@4.4.2/utils/introspection/ERC165.sol\":914:918  bool */\n      0x00\n        /* \"@openzeppelin/contracts@4.4.2/utils/introspection/ERC165.sol\":952:977  type(IERC165).interfaceId */\n      0x01ffc9a700000000000000000000000000000000000000000000000000000000\n        /* \"@openzeppelin/contracts@4.4.2/utils/introspection/ERC165.sol\":937:977  interfaceId == type(IERC165).interfaceId */\n      not(0xffffffffffffffffffffffffffffffffffffffffffffffffffffffff)\n      and\n        /* \"@openzeppelin/contracts@4.4.2/utils/introspection/ERC165.sol\":937:948  interfaceId */\n      dup3\n        /* \"@openzeppelin/contracts@4.4.2/utils/introspection/ERC165.sol\":937:977  interfaceId == type(IERC165).interfaceId */\n      not(0xffffffffffffffffffffffffffffffffffffffffffffffffffffffff)\n      and\n      eq\n        /* \"@openzeppelin/contracts@4.4.2/utils/introspection/ERC165.sol\":930:977  return interfaceId == type(IERC165).interfaceId */\n      swap1\n      pop\n        /* \"@openzeppelin/contracts@4.4.2/utils/introspection/ERC165.sol\":829:984  function supportsInterface(bytes4 interfaceId) public view virtual override returns (bool) {... */\n      swap2\n      swap1\n      pop\n      jump\t// out\n        /* \"@openzeppelin/contracts@4.4.2/utils/Context.sol\":640:736  function _msgSender() internal view virtual returns (address) {... */\n    tag_134:\n        /* \"@openzeppelin/contracts@4.4.2/utils/Context.sol\":693:700  address */\n      0x00\n        /* \"@openzeppelin/contracts@4.4.2/utils/Context.sol\":719:729  msg.sender */\n      caller\n        /* \"@openzeppelin/contracts@4.4.2/utils/Context.sol\":712:729  return msg.sender */\n      swap1\n      pop\n        /* \"@openzeppelin/contracts@4.4.2/utils/Context.sol\":640:736  function _msgSender() internal view virtual returns (address) {... */\n      swap1\n      jump\t// out\n        /* \"@openzeppelin/contracts@4.4.2/access/AccessControl.sol\":3312:3796  function _checkRole(bytes32 role, address account) internal view {... */\n    tag_135:\n        /* \"@openzeppelin/contracts@4.4.2/access/AccessControl.sol\":3392:3414  hasRole(role, account) */\n      tag_250\n        /* \"@openzeppelin/contracts@4.4.2/access/AccessControl.sol\":3400:3404  role */\n      dup3\n        /* \"@openzeppelin/contracts@4.4.2/access/AccessControl.sol\":3406:3413  account */\n      dup3\n        /* \"@openzeppelin/contracts@4.4.2/access/AccessControl.sol\":3392:3399  hasRole */\n      tag_88\n        /* \"@openzeppelin/contracts@4.4.2/access/AccessControl.sol\":3392:3414  hasRole(role, account) */\n      jump\t// in\n    tag_250:\n        /* \"@openzeppelin/contracts@4.4.2/access/AccessControl.sol\":3387:3790  if (!hasRole(role, account)) {... */\n      tag_251\n      jumpi\n        /* \"@openzeppelin/contracts@4.4.2/access/AccessControl.sol\":3575:3616  Strings.toHexString(uint160(account), 20) */\n      tag_252\n        /* \"@openzeppelin/contracts@4.4.2/access/AccessControl.sol\":3603:3610  account */\n      dup2\n        /* \"@openzeppelin/contracts@4.4.2/access/AccessControl.sol\":3575:3616  Strings.toHexString(uint160(account), 20) */\n      0xffffffffffffffffffffffffffffffffffffffff\n      and\n        /* \"@openzeppelin/contracts@4.4.2/access/AccessControl.sol\":3613:3615  20 */\n      0x14\n        /* \"@openzeppelin/contracts@4.4.2/access/AccessControl.sol\":3575:3594  Strings.toHexString */\n      tag_253\n        /* \"@openzeppelin/contracts@4.4.2/access/AccessControl.sol\":3575:3616  Strings.toHexString(uint160(account), 20) */\n      jump\t// in\n    tag_252:\n        /* \"@openzeppelin/contracts@4.4.2/access/AccessControl.sol\":3687:3725  Strings.toHexString(uint256(role), 32) */\n      tag_254\n        /* \"@openzeppelin/contracts@4.4.2/access/AccessControl.sol\":3715:3719  role */\n      dup4\n        /* \"@openzeppelin/contracts@4.4.2/access/AccessControl.sol\":3707:3720  uint256(role) */\n      0x00\n      shr\n        /* \"@openzeppelin/contracts@4.4.2/access/AccessControl.sol\":3722:3724  32 */\n      0x20\n        /* \"@openzeppelin/contracts@4.4.2/access/AccessControl.sol\":3687:3706  Strings.toHexString */\n      tag_253\n        /* \"@openzeppelin/contracts@4.4.2/access/AccessControl.sol\":3687:3725  Strings.toHexString(uint256(role), 32) */\n      jump\t// in\n    tag_254:\n        /* \"@openzeppelin/contracts@4.4.2/access/AccessControl.sol\":3482:3747  abi.encodePacked(... */\n      add(0x20, mload(0x40))\n      tag_255\n      swap3\n      swap2\n      swap1\n      tag_256\n      jump\t// in\n    tag_255:\n      mload(0x40)\n      0x20\n      dup2\n      dup4\n      sub\n      sub\n      dup2\n      mstore\n      swap1\n      0x40\n      mstore\n        /* \"@openzeppelin/contracts@4.4.2/access/AccessControl.sol\":3430:3779  revert(... */\n      mload(0x40)\n      0x08c379a000000000000000000000000000000000000000000000000000000000\n      dup2\n      mstore\n      0x04\n      add\n      tag_257\n      swap2\n      swap1\n      tag_217\n      jump\t// in\n    tag_257:\n      mload(0x40)\n      dup1\n      swap2\n      sub\n      swap1\n      revert\n        /* \"@openzeppelin/contracts@4.4.2/access/AccessControl.sol\":3387:3790  if (!hasRole(role, account)) {... */\n    tag_251:\n        /* \"@openzeppelin/contracts@4.4.2/access/AccessControl.sol\":3312:3796  function _checkRole(bytes32 role, address account) internal view {... */\n      pop\n      pop\n      jump\t// out\n        /* \"@openzeppelin/contracts@4.4.2/access/AccessControl.sol\":6822:7055  function _grantRole(bytes32 role, address account) internal virtual {... */\n    tag_138:\n        /* \"@openzeppelin/contracts@4.4.2/access/AccessControl.sol\":6905:6927  hasRole(role, account) */\n      tag_259\n        /* \"@openzeppelin/contracts@4.4.2/access/AccessControl.sol\":6913:6917  role */\n      dup3\n        /* \"@openzeppelin/contracts@4.4.2/access/AccessControl.sol\":6919:6926  account */\n      dup3\n        /* \"@openzeppelin/contracts@4.4.2/access/AccessControl.sol\":6905:6912  hasRole */\n      tag_88\n        /* \"@openzeppelin/contracts@4.4.2/access/AccessControl.sol\":6905:6927  hasRole(role, account) */\n      jump\t// in\n    tag_259:\n        /* \"@openzeppelin/contracts@4.4.2/access/AccessControl.sol\":6900:7049  if (!hasRole(role, account)) {... */\n      tag_260\n      jumpi\n        /* \"@openzeppelin/contracts@4.4.2/access/AccessControl.sol\":6975:6979  true */\n      0x01\n        /* \"@openzeppelin/contracts@4.4.2/access/AccessControl.sol\":6943:6949  _roles */\n      0x00\n        /* \"@openzeppelin/contracts@4.4.2/access/AccessControl.sol\":6943:6955  _roles[role] */\n      dup1\n        /* \"@openzeppelin/contracts@4.4.2/access/AccessControl.sol\":6950:6954  role */\n      dup5\n        /* \"@openzeppelin/contracts@4.4.2/access/AccessControl.sol\":6943:6955  _roles[role] */\n      dup2\n      mstore\n      0x20\n      add\n      swap1\n      dup2\n      mstore\n      0x20\n      add\n      0x00\n      keccak256\n        /* \"@openzeppelin/contracts@4.4.2/access/AccessControl.sol\":6943:6963  _roles[role].members */\n      0x00\n      add\n        /* \"@openzeppelin/contracts@4.4.2/access/AccessControl.sol\":6943:6972  _roles[role].members[account] */\n      0x00\n        /* \"@openzeppelin/contracts@4.4.2/access/AccessControl.sol\":6964:6971  account */\n      dup4\n        /* \"@openzeppelin/contracts@4.4.2/access/AccessControl.sol\":6943:6972  _roles[role].members[account] */\n      0xffffffffffffffffffffffffffffffffffffffff\n      and\n      0xffffffffffffffffffffffffffffffffffffffff\n      and\n      dup2\n      mstore\n      0x20\n      add\n      swap1\n      dup2\n      mstore\n      0x20\n      add\n      0x00\n      keccak256\n      0x00\n        /* \"@openzeppelin/contracts@4.4.2/access/AccessControl.sol\":6943:6979  _roles[role].members[account] = true */\n      0x0100\n      exp\n      dup2\n      sload\n      dup2\n      0xff\n      mul\n      not\n      and\n      swap1\n      dup4\n      iszero\n      iszero\n      mul\n      or\n      swap1\n      sstore\n      pop\n        /* \"@openzeppelin/contracts@4.4.2/access/AccessControl.sol\":7025:7037  _msgSender() */\n      tag_261\n        /* \"@openzeppelin/contracts@4.4.2/access/AccessControl.sol\":7025:7035  _msgSender */\n      tag_134\n        /* \"@openzeppelin/contracts@4.4.2/access/AccessControl.sol\":7025:7037  _msgSender() */\n      jump\t// in\n    tag_261:\n        /* \"@openzeppelin/contracts@4.4.2/access/AccessControl.sol\":6998:7038  RoleGranted(role, account, _msgSender()) */\n      0xffffffffffffffffffffffffffffffffffffffff\n      and\n        /* \"@openzeppelin/contracts@4.4.2/access/AccessControl.sol\":7016:7023  account */\n      dup2\n        /* \"@openzeppelin/contracts@4.4.2/access/AccessControl.sol\":6998:7038  RoleGranted(role, account, _msgSender()) */\n      0xffffffffffffffffffffffffffffffffffffffff\n      and\n        /* \"@openzeppelin/contracts@4.4.2/access/AccessControl.sol\":7010:7014  role */\n      dup4\n        /* \"@openzeppelin/contracts@4.4.2/access/AccessControl.sol\":6998:7038  RoleGranted(role, account, _msgSender()) */\n      0x2f8788117e7eff1d82e926ec794901d17c78024a50270940304540a733656f0d\n      mload(0x40)\n      mload(0x40)\n      dup1\n      swap2\n      sub\n      swap1\n      log4\n        /* \"@openzeppelin/contracts@4.4.2/access/AccessControl.sol\":6900:7049  if (!hasRole(role, account)) {... */\n    tag_260:\n        /* \"@openzeppelin/contracts@4.4.2/access/AccessControl.sol\":6822:7055  function _grantRole(bytes32 role, address account) internal virtual {... */\n      pop\n      pop\n      jump\t// out\n        /* \"@openzeppelin/contracts@4.4.2/access/AccessControl.sol\":7180:7414  function _revokeRole(bytes32 role, address account) internal virtual {... */\n    tag_145:\n        /* \"@openzeppelin/contracts@4.4.2/access/AccessControl.sol\":7263:7285  hasRole(role, account) */\n      tag_263\n        /* \"@openzeppelin/contracts@4.4.2/access/AccessControl.sol\":7271:7275  role */\n      dup3\n        /* \"@openzeppelin/contracts@4.4.2/access/AccessControl.sol\":7277:7284  account */\n      dup3\n        /* \"@openzeppelin/contracts@4.4.2/access/AccessControl.sol\":7263:7270  hasRole */\n      tag_88\n        /* \"@openzeppelin/contracts@4.4.2/access/AccessControl.sol\":7263:7285  hasRole(role, account) */\n      jump\t// in\n    tag_263:\n        /* \"@openzeppelin/contracts@4.4.2/access/AccessControl.sol\":7259:7408  if (hasRole(role, account)) {... */\n      iszero\n      tag_264\n      jumpi\n        /* \"@openzeppelin/contracts@4.4.2/access/AccessControl.sol\":7333:7338  false */\n      0x00\n        /* \"@openzeppelin/contracts@4.4.2/access/AccessControl.sol\":7301:7307  _roles */\n      dup1\n        /* \"@openzeppelin/contracts@4.4.2/access/AccessControl.sol\":7301:7313  _roles[role] */\n      0x00\n        /* \"@openzeppelin/contracts@4.4.2/access/AccessControl.sol\":7308:7312  role */\n      dup5\n        /* \"@openzeppelin/contracts@4.4.2/access/AccessControl.sol\":7301:7313  _roles[role] */\n      dup2\n      mstore\n      0x20\n      add\n      swap1\n      dup2\n      mstore\n      0x20\n      add\n      0x00\n      keccak256\n        /* \"@openzeppelin/contracts@4.4.2/access/AccessControl.sol\":7301:7321  _roles[role].members */\n      0x00\n      add\n        /* \"@openzeppelin/contracts@4.4.2/access/AccessControl.sol\":7301:7330  _roles[role].members[account] */\n      0x00\n        /* \"@openzeppelin/contracts@4.4.2/access/AccessControl.sol\":7322:7329  account */\n      dup4\n        /* \"@openzeppelin/contracts@4.4.2/access/AccessControl.sol\":7301:7330  _roles[role].members[account] */\n      0xffffffffffffffffffffffffffffffffffffffff\n      and\n      0xffffffffffffffffffffffffffffffffffffffff\n      and\n      dup2\n      mstore\n      0x20\n      add\n      swap1\n      dup2\n      mstore\n      0x20\n      add\n      0x00\n      keccak256\n      0x00\n        /* \"@openzeppelin/contracts@4.4.2/access/AccessControl.sol\":7301:7338  _roles[role].members[account] = false */\n      0x0100\n      exp\n      dup2\n      sload\n      dup2\n      0xff\n      mul\n      not\n      and\n      swap1\n      dup4\n      iszero\n      iszero\n      mul\n      or\n      swap1\n      sstore\n      pop\n        /* \"@openzeppelin/contracts@4.4.2/access/AccessControl.sol\":7384:7396  _msgSender() */\n      tag_265\n        /* \"@openzeppelin/contracts@4.4.2/access/AccessControl.sol\":7384:7394  _msgSender */\n      tag_134\n        /* \"@openzeppelin/contracts@4.4.2/access/AccessControl.sol\":7384:7396  _msgSender() */\n      jump\t// in\n    tag_265:\n        /* \"@openzeppelin/contracts@4.4.2/access/AccessControl.sol\":7357:7397  RoleRevoked(role, account, _msgSender()) */\n      0xffffffffffffffffffffffffffffffffffffffff\n      and\n        /* \"@openzeppelin/contracts@4.4.2/access/AccessControl.sol\":7375:7382  account */\n      dup2\n        /* \"@openzeppelin/contracts@4.4.2/access/AccessControl.sol\":7357:7397  RoleRevoked(role, account, _msgSender()) */\n      0xffffffffffffffffffffffffffffffffffffffff\n      and\n        /* \"@openzeppelin/contracts@4.4.2/access/AccessControl.sol\":7369:7373  role */\n      dup4\n        /* \"@openzeppelin/contracts@4.4.2/access/AccessControl.sol\":7357:7397  RoleRevoked(role, account, _msgSender()) */\n      0xf6391f5c32d9c69d2a47ea670b442974b53935d1edc7fd64eb21e047a839171b\n      mload(0x40)\n      mload(0x40)\n      dup1\n      swap2\n      sub\n      swap1\n      log4\n        /* \"@openzeppelin/contracts@4.4.2/access/AccessControl.sol\":7259:7408  if (hasRole(role, account)) {... */\n    tag_264:\n        /* \"@openzeppelin/contracts@4.4.2/access/AccessControl.sol\":7180:7414  function _revokeRole(bytes32 role, address account) internal virtual {... */\n      pop\n      pop\n      jump\t// out\n        /* \"contracts/Founding Citizens NFT Sale.sol\":4152:4643  function updateState() internal requiresConsistentState {\r... */\n    tag_154:\n        /* \"contracts/Founding Citizens NFT Sale.sol\":4041:4048  endTime */\n      sload(0x06)\n        /* \"contracts/Founding Citizens NFT Sale.sol\":4028:4037  startTime */\n      sload(0x05)\n        /* \"contracts/Founding Citizens NFT Sale.sol\":4028:4048  startTime <= endTime */\n      gt\n      iszero\n        /* \"contracts/Founding Citizens NFT Sale.sol\":4020:4084  require(startTime <= endTime, \"startTime is later than endTime\") */\n      tag_267\n      jumpi\n      mload(0x40)\n      0x08c379a000000000000000000000000000000000000000000000000000000000\n      dup2\n      mstore\n      0x04\n      add\n      tag_268\n      swap1\n      tag_269\n      jump\t// in\n    tag_268:\n      mload(0x40)\n      dup1\n      swap2\n      sub\n      swap1\n      revert\n    tag_267:\n        /* \"contracts/Founding Citizens NFT Sale.sol\":3420:3425  10**6 */\n      0x0f4240\n        /* \"contracts/Founding Citizens NFT Sale.sol\":3573:3574  1 */\n      0x01\n        /* \"contracts/Founding Citizens NFT Sale.sol\":3573:3582  1 * units */\n      tag_271\n      swap2\n      swap1\n      tag_222\n      jump\t// in\n    tag_271:\n        /* \"contracts/Founding Citizens NFT Sale.sol\":4308:4310  60 */\n      0x3c\n        /* \"contracts/Founding Citizens NFT Sale.sol\":4295:4304  startTime */\n      sload(0x05)\n        /* \"contracts/Founding Citizens NFT Sale.sol\":4277:4292  block.timestamp */\n      timestamp\n        /* \"contracts/Founding Citizens NFT Sale.sol\":4277:4304  block.timestamp - startTime */\n      tag_272\n      swap2\n      swap1\n      tag_182\n      jump\t// in\n    tag_272:\n        /* \"contracts/Founding Citizens NFT Sale.sol\":4276:4310  (block.timestamp - startTime) / 60 */\n      tag_273\n      swap2\n      swap1\n      tag_220\n      jump\t// in\n    tag_273:\n        /* \"contracts/Founding Citizens NFT Sale.sol\":4276:4335  (block.timestamp - startTime) / 60 * priceDescresePerMinute */\n      tag_274\n      swap2\n      swap1\n      tag_222\n      jump\t// in\n    tag_274:\n        /* \"contracts/Founding Citizens NFT Sale.sol\":4262:4272  startPrice */\n      sload(0x07)\n        /* \"contracts/Founding Citizens NFT Sale.sol\":4262:4336  startPrice - ((block.timestamp - startTime) / 60 * priceDescresePerMinute) */\n      tag_275\n      swap2\n      swap1\n      tag_182\n      jump\t// in\n    tag_275:\n        /* \"contracts/Founding Citizens NFT Sale.sol\":4243:4253  lastUpdate */\n      0x09\n        /* \"contracts/Founding Citizens NFT Sale.sol\":4243:4259  lastUpdate.price */\n      0x00\n      add\n        /* \"contracts/Founding Citizens NFT Sale.sol\":4243:4336  lastUpdate.price = startPrice - ((block.timestamp - startTime) / 60 * priceDescresePerMinute) */\n      dup2\n      swap1\n      sstore\n      pop\n        /* \"contracts/Founding Citizens NFT Sale.sol\":4390:4405  block.timestamp */\n      timestamp\n        /* \"contracts/Founding Citizens NFT Sale.sol\":4372:4382  lastUpdate */\n      0x09\n        /* \"contracts/Founding Citizens NFT Sale.sol\":4372:4387  lastUpdate.time */\n      0x01\n      add\n        /* \"contracts/Founding Citizens NFT Sale.sol\":4372:4405  lastUpdate.time = block.timestamp */\n      dup2\n      swap1\n      sstore\n      pop\n        /* \"contracts/Founding Citizens NFT Sale.sol\":4478:4487  startTime */\n      sload(0x05)\n        /* \"contracts/Founding Citizens NFT Sale.sol\":4459:4474  block.timestamp */\n      timestamp\n        /* \"contracts/Founding Citizens NFT Sale.sol\":4459:4487  block.timestamp >= startTime */\n      lt\n      iszero\n        /* \"contracts/Founding Citizens NFT Sale.sol\":4459:4517  block.timestamp >= startTime && block.timestamp <= endTime */\n      dup1\n      iszero\n      tag_276\n      jumpi\n      pop\n        /* \"contracts/Founding Citizens NFT Sale.sol\":4510:4517  endTime */\n      sload(0x06)\n        /* \"contracts/Founding Citizens NFT Sale.sol\":4491:4506  block.timestamp */\n      timestamp\n        /* \"contracts/Founding Citizens NFT Sale.sol\":4491:4517  block.timestamp <= endTime */\n      gt\n      iszero\n        /* \"contracts/Founding Citizens NFT Sale.sol\":4459:4517  block.timestamp >= startTime && block.timestamp <= endTime */\n    tag_276:\n        /* \"contracts/Founding Citizens NFT Sale.sol\":4455:4636  if (block.timestamp >= startTime && block.timestamp <= endTime) {\r... */\n      iszero\n      tag_277\n      jumpi\n        /* \"contracts/Founding Citizens NFT Sale.sol\":4558:4562  true */\n      0x01\n        /* \"contracts/Founding Citizens NFT Sale.sol\":4534:4544  lastUpdate */\n      0x09\n        /* \"contracts/Founding Citizens NFT Sale.sol\":4534:4555  lastUpdate.saleIsLive */\n      0x02\n      add\n      0x00\n        /* \"contracts/Founding Citizens NFT Sale.sol\":4534:4562  lastUpdate.saleIsLive = true */\n      0x0100\n      exp\n      dup2\n      sload\n      dup2\n      0xff\n      mul\n      not\n      and\n      swap1\n      dup4\n      iszero\n      iszero\n      mul\n      or\n      swap1\n      sstore\n      pop\n        /* \"contracts/Founding Citizens NFT Sale.sol\":4455:4636  if (block.timestamp >= startTime && block.timestamp <= endTime) {\r... */\n      jump(tag_278)\n    tag_277:\n        /* \"contracts/Founding Citizens NFT Sale.sol\":4619:4624  false */\n      0x00\n        /* \"contracts/Founding Citizens NFT Sale.sol\":4595:4605  lastUpdate */\n      0x09\n        /* \"contracts/Founding Citizens NFT Sale.sol\":4595:4616  lastUpdate.saleIsLive */\n      0x02\n      add\n      0x00\n        /* \"contracts/Founding Citizens NFT Sale.sol\":4595:4624  lastUpdate.saleIsLive = false */\n      0x0100\n      exp\n      dup2\n      sload\n      dup2\n      0xff\n      mul\n      not\n      and\n      swap1\n      dup4\n      iszero\n      iszero\n      mul\n      or\n      swap1\n      sstore\n      pop\n        /* \"contracts/Founding Citizens NFT Sale.sol\":4455:4636  if (block.timestamp >= startTime && block.timestamp <= endTime) {\r... */\n    tag_278:\n        /* \"contracts/Founding Citizens NFT Sale.sol\":4152:4643  function updateState() internal requiresConsistentState {\r... */\n      jump\t// out\n        /* \"contracts/Founding Citizens NFT Sale.sol\":6659:6823  function _buyNFT(uint price) internal {\r... */\n    tag_158:\n        /* \"contracts/Founding Citizens NFT Sale.sol\":6708:6733  usdcEscrowStorageContract */\n      0x03\n      0x00\n      swap1\n      sload\n      swap1\n      0x0100\n      exp\n      swap1\n      div\n      0xffffffffffffffffffffffffffffffffffffffff\n      and\n        /* \"contracts/Founding Citizens NFT Sale.sol\":6708:6753  usdcEscrowStorageContract.decreaseUsdcBalance */\n      0xffffffffffffffffffffffffffffffffffffffff\n      and\n      0x532b2913\n        /* \"contracts/Founding Citizens NFT Sale.sol\":6754:6764  msg.sender */\n      caller\n        /* \"contracts/Founding Citizens NFT Sale.sol\":6766:6771  price */\n      dup4\n        /* \"contracts/Founding Citizens NFT Sale.sol\":6708:6772  usdcEscrowStorageContract.decreaseUsdcBalance(msg.sender, price) */\n      mload(0x40)\n      dup4\n      0xffffffff\n      and\n      0xe0\n      shl\n      dup2\n      mstore\n      0x04\n      add\n      tag_280\n      swap3\n      swap2\n      swap1\n      tag_207\n      jump\t// in\n    tag_280:\n      0x00\n      mload(0x40)\n      dup1\n      dup4\n      sub\n      dup2\n      0x00\n      dup8\n      dup1\n      extcodesize\n      iszero\n      dup1\n      iszero\n      tag_281\n      jumpi\n      0x00\n      dup1\n      revert\n    tag_281:\n      pop\n      gas\n      call\n      iszero\n      dup1\n      iszero\n      tag_283\n      jumpi\n      returndatasize\n      0x00\n      dup1\n      returndatacopy\n      revert(0x00, returndatasize)\n    tag_283:\n      pop\n      pop\n      pop\n      pop\n        /* \"contracts/Founding Citizens NFT Sale.sol\":6783:6815  mintNextNftToAddress(msg.sender) */\n      tag_284\n        /* \"contracts/Founding Citizens NFT Sale.sol\":6804:6814  msg.sender */\n      caller\n        /* \"contracts/Founding Citizens NFT Sale.sol\":6783:6803  mintNextNftToAddress */\n      tag_189\n        /* \"contracts/Founding Citizens NFT Sale.sol\":6783:6815  mintNextNftToAddress(msg.sender) */\n      jump\t// in\n    tag_284:\n        /* \"contracts/Founding Citizens NFT Sale.sol\":6659:6823  function _buyNFT(uint price) internal {\r... */\n      pop\n      jump\t// out\n        /* \"contracts/Founding Citizens NFT Sale.sol\":4995:5126  function mintNextNftToAddress(address to) internal {\r... */\n    tag_189:\n        /* \"contracts/Founding Citizens NFT Sale.sol\":5070:5092  ERC1155storageContract */\n      0x01\n      0x00\n      swap1\n      sload\n      swap1\n      0x0100\n      exp\n      swap1\n      div\n      0xffffffffffffffffffffffffffffffffffffffff\n      and\n        /* \"contracts/Founding Citizens NFT Sale.sol\":5057:5114  IMintStorage(ERC1155storageContract).mintNextNftToAddress */\n      0xffffffffffffffffffffffffffffffffffffffff\n      and\n      0x55676590\n        /* \"contracts/Founding Citizens NFT Sale.sol\":5115:5117  to */\n      dup3\n        /* \"contracts/Founding Citizens NFT Sale.sol\":5057:5118  IMintStorage(ERC1155storageContract).mintNextNftToAddress(to) */\n      mload(0x40)\n      dup3\n      0xffffffff\n      and\n      0xe0\n      shl\n      dup2\n      mstore\n      0x04\n      add\n      tag_286\n      swap2\n      swap1\n      tag_114\n      jump\t// in\n    tag_286:\n      0x00\n      mload(0x40)\n      dup1\n      dup4\n      sub\n      dup2\n      0x00\n      dup8\n      dup1\n      extcodesize\n      iszero\n      dup1\n      iszero\n      tag_287\n      jumpi\n      0x00\n      dup1\n      revert\n    tag_287:\n      pop\n      gas\n      call\n      iszero\n      dup1\n      iszero\n      tag_289\n      jumpi\n      returndatasize\n      0x00\n      dup1\n      returndatacopy\n      revert(0x00, returndatasize)\n    tag_289:\n      pop\n      pop\n      pop\n      pop\n        /* \"contracts/Founding Citizens NFT Sale.sol\":4995:5126  function mintNextNftToAddress(address to) internal {\r... */\n      pop\n      jump\t// out\n        /* \"@openzeppelin/contracts@4.4.2/utils/Strings.sol\":1588:2029  function toHexString(uint256 value, uint256 length) internal pure returns (string memory) {... */\n    tag_253:\n        /* \"@openzeppelin/contracts@4.4.2/utils/Strings.sol\":1663:1676  string memory */\n      0x60\n        /* \"@openzeppelin/contracts@4.4.2/utils/Strings.sol\":1688:1707  bytes memory buffer */\n      0x00\n        /* \"@openzeppelin/contracts@4.4.2/utils/Strings.sol\":1733:1734  2 */\n      0x02\n        /* \"@openzeppelin/contracts@4.4.2/utils/Strings.sol\":1724:1730  length */\n      dup4\n        /* \"@openzeppelin/contracts@4.4.2/utils/Strings.sol\":1720:1721  2 */\n      0x02\n        /* \"@openzeppelin/contracts@4.4.2/utils/Strings.sol\":1720:1730  2 * length */\n      tag_291\n      swap2\n      swap1\n      tag_222\n      jump\t// in\n    tag_291:\n        /* \"@openzeppelin/contracts@4.4.2/utils/Strings.sol\":1720:1734  2 * length + 2 */\n      tag_292\n      swap2\n      swap1\n      tag_293\n      jump\t// in\n    tag_292:\n        /* \"@openzeppelin/contracts@4.4.2/utils/Strings.sol\":1710:1735  new bytes(2 * length + 2) */\n      0xffffffffffffffff\n      dup2\n      gt\n      iszero\n      tag_294\n      jumpi\n      mstore(0x00, 0x4e487b7100000000000000000000000000000000000000000000000000000000)\n      mstore(0x04, 0x41)\n      revert(0x00, 0x24)\n    tag_294:\n      mload(0x40)\n      swap1\n      dup1\n      dup3\n      mstore\n      dup1\n      0x1f\n      add\n      not(0x1f)\n      and\n      0x20\n      add\n      dup3\n      add\n      0x40\n      mstore\n      dup1\n      iszero\n      tag_295\n      jumpi\n      dup2\n      0x20\n      add\n      0x01\n      dup3\n      mul\n      dup1\n      calldatasize\n      dup4\n      calldatacopy\n      dup1\n      dup3\n      add\n      swap2\n      pop\n      pop\n      swap1\n      pop\n    tag_295:\n      pop\n        /* \"@openzeppelin/contracts@4.4.2/utils/Strings.sol\":1688:1735  bytes memory buffer = new bytes(2 * length + 2) */\n      swap1\n      pop\n        /* \"@openzeppelin/contracts@4.4.2/utils/Strings.sol\":1745:1760  buffer[0] = \"0\" */\n      0x3000000000000000000000000000000000000000000000000000000000000000\n        /* \"@openzeppelin/contracts@4.4.2/utils/Strings.sol\":1745:1751  buffer */\n      dup2\n        /* \"@openzeppelin/contracts@4.4.2/utils/Strings.sol\":1752:1753  0 */\n      0x00\n        /* \"@openzeppelin/contracts@4.4.2/utils/Strings.sol\":1745:1754  buffer[0] */\n      dup2\n      mload\n      dup2\n      lt\n      tag_296\n      jumpi\n      mstore(0x00, 0x4e487b7100000000000000000000000000000000000000000000000000000000)\n      mstore(0x04, 0x32)\n      revert(0x00, 0x24)\n    tag_296:\n      0x20\n      add\n      add\n        /* \"@openzeppelin/contracts@4.4.2/utils/Strings.sol\":1745:1760  buffer[0] = \"0\" */\n      swap1\n      not(0xffffffffffffffffffffffffffffffffffffffffffffffffffffffffffffff)\n      and\n      swap1\n      dup2\n      0x00\n      byte\n      swap1\n      mstore8\n      pop\n        /* \"@openzeppelin/contracts@4.4.2/utils/Strings.sol\":1770:1785  buffer[1] = \"x\" */\n      0x7800000000000000000000000000000000000000000000000000000000000000\n        /* \"@openzeppelin/contracts@4.4.2/utils/Strings.sol\":1770:1776  buffer */\n      dup2\n        /* \"@openzeppelin/contracts@4.4.2/utils/Strings.sol\":1777:1778  1 */\n      0x01\n        /* \"@openzeppelin/contracts@4.4.2/utils/Strings.sol\":1770:1779  buffer[1] */\n      dup2\n      mload\n      dup2\n      lt\n      tag_297\n      jumpi\n      mstore(0x00, 0x4e487b7100000000000000000000000000000000000000000000000000000000)\n      mstore(0x04, 0x32)\n      revert(0x00, 0x24)\n    tag_297:\n      0x20\n      add\n      add\n        /* \"@openzeppelin/contracts@4.4.2/utils/Strings.sol\":1770:1785  buffer[1] = \"x\" */\n      swap1\n      not(0xffffffffffffffffffffffffffffffffffffffffffffffffffffffffffffff)\n      and\n      swap1\n      dup2\n      0x00\n      byte\n      swap1\n      mstore8\n      pop\n        /* \"@openzeppelin/contracts@4.4.2/utils/Strings.sol\":1800:1809  uint256 i */\n      0x00\n        /* \"@openzeppelin/contracts@4.4.2/utils/Strings.sol\":1825:1826  1 */\n      0x01\n        /* \"@openzeppelin/contracts@4.4.2/utils/Strings.sol\":1816:1822  length */\n      dup5\n        /* \"@openzeppelin/contracts@4.4.2/utils/Strings.sol\":1812:1813  2 */\n      0x02\n        /* \"@openzeppelin/contracts@4.4.2/utils/Strings.sol\":1812:1822  2 * length */\n      tag_301\n      swap2\n      swap1\n      tag_222\n      jump\t// in\n    tag_301:\n        /* \"@openzeppelin/contracts@4.4.2/utils/Strings.sol\":1812:1826  2 * length + 1 */\n      tag_302\n      swap2\n      swap1\n      tag_293\n      jump\t// in\n    tag_302:\n        /* \"@openzeppelin/contracts@4.4.2/utils/Strings.sol\":1800:1826  uint256 i = 2 * length + 1 */\n      swap1\n      pop\n        /* \"@openzeppelin/contracts@4.4.2/utils/Strings.sol\":1795:1927  for (uint256 i = 2 * length + 1; i > 1; --i) {... */\n    tag_298:\n        /* \"@openzeppelin/contracts@4.4.2/utils/Strings.sol\":1832:1833  1 */\n      0x01\n        /* \"@openzeppelin/contracts@4.4.2/utils/Strings.sol\":1828:1829  i */\n      dup2\n        /* \"@openzeppelin/contracts@4.4.2/utils/Strings.sol\":1828:1833  i > 1 */\n      gt\n        /* \"@openzeppelin/contracts@4.4.2/utils/Strings.sol\":1795:1927  for (uint256 i = 2 * length + 1; i > 1; --i) {... */\n      iszero\n      tag_299\n      jumpi\n        /* \"@openzeppelin/contracts@4.4.2/utils/Strings.sol\":1866:1878  _HEX_SYMBOLS */\n      0x3031323334353637383961626364656600000000000000000000000000000000\n        /* \"@openzeppelin/contracts@4.4.2/utils/Strings.sol\":1887:1890  0xf */\n      0x0f\n        /* \"@openzeppelin/contracts@4.4.2/utils/Strings.sol\":1879:1884  value */\n      dup7\n        /* \"@openzeppelin/contracts@4.4.2/utils/Strings.sol\":1879:1890  value & 0xf */\n      and\n        /* \"@openzeppelin/contracts@4.4.2/utils/Strings.sol\":1866:1891  _HEX_SYMBOLS[value & 0xf] */\n      0x10\n      dup2\n      lt\n      tag_303\n      jumpi\n      mstore(0x00, 0x4e487b7100000000000000000000000000000000000000000000000000000000)\n      mstore(0x04, 0x32)\n      revert(0x00, 0x24)\n    tag_303:\n      byte\n      0xf8\n      shl\n        /* \"@openzeppelin/contracts@4.4.2/utils/Strings.sol\":1854:1860  buffer */\n      dup3\n        /* \"@openzeppelin/contracts@4.4.2/utils/Strings.sol\":1861:1862  i */\n      dup3\n        /* \"@openzeppelin/contracts@4.4.2/utils/Strings.sol\":1854:1863  buffer[i] */\n      dup2\n      mload\n      dup2\n      lt\n      tag_304\n      jumpi\n      mstore(0x00, 0x4e487b7100000000000000000000000000000000000000000000000000000000)\n      mstore(0x04, 0x32)\n      revert(0x00, 0x24)\n    tag_304:\n      0x20\n      add\n      add\n        /* \"@openzeppelin/contracts@4.4.2/utils/Strings.sol\":1854:1891  buffer[i] = _HEX_SYMBOLS[value & 0xf] */\n      swap1\n      not(0xffffffffffffffffffffffffffffffffffffffffffffffffffffffffffffff)\n      and\n      swap1\n      dup2\n      0x00\n      byte\n      swap1\n      mstore8\n      pop\n        /* \"@openzeppelin/contracts@4.4.2/utils/Strings.sol\":1915:1916  4 */\n      0x04\n        /* \"@openzeppelin/contracts@4.4.2/utils/Strings.sol\":1905:1916  value >>= 4 */\n      dup6\n      swap1\n      shr\n      swap5\n      pop\n        /* \"@openzeppelin/contracts@4.4.2/utils/Strings.sol\":1835:1838  --i */\n      dup1\n      tag_305\n      swap1\n      tag_191\n      jump\t// in\n    tag_305:\n      swap1\n      pop\n        /* \"@openzeppelin/contracts@4.4.2/utils/Strings.sol\":1795:1927  for (uint256 i = 2 * length + 1; i > 1; --i) {... */\n      jump(tag_298)\n    tag_299:\n      pop\n        /* \"@openzeppelin/contracts@4.4.2/utils/Strings.sol\":1953:1954  0 */\n      0x00\n        /* \"@openzeppelin/contracts@4.4.2/utils/Strings.sol\":1944:1949  value */\n      dup5\n        /* \"@openzeppelin/contracts@4.4.2/utils/Strings.sol\":1944:1954  value == 0 */\n      eq\n        /* \"@openzeppelin/contracts@4.4.2/utils/Strings.sol\":1936:1991  require(value == 0, \"Strings: hex length insufficient\") */\n      tag_306\n      jumpi\n      mload(0x40)\n      0x08c379a000000000000000000000000000000000000000000000000000000000\n      dup2\n      mstore\n      0x04\n      add\n      tag_307\n      swap1\n      tag_308\n      jump\t// in\n    tag_307:\n      mload(0x40)\n      dup1\n      swap2\n      sub\n      swap1\n      revert\n    tag_306:\n        /* \"@openzeppelin/contracts@4.4.2/utils/Strings.sol\":2015:2021  buffer */\n      dup1\n        /* \"@openzeppelin/contracts@4.4.2/utils/Strings.sol\":2001:2022  return string(buffer) */\n      swap2\n      pop\n      pop\n        /* \"@openzeppelin/contracts@4.4.2/utils/Strings.sol\":1588:2029  function toHexString(uint256 value, uint256 length) internal pure returns (string memory) {... */\n      swap3\n      swap2\n      pop\n      pop\n      jump\t// out\n        /* \"#utility.yul\":23:639   */\n    tag_310:\n      0x00\n        /* \"#utility.yul\":154:245   */\n      tag_312\n        /* \"#utility.yul\":170:244   */\n      tag_313\n        /* \"#utility.yul\":237:243   */\n      dup5\n        /* \"#utility.yul\":170:244   */\n      tag_314\n      jump\t// in\n    tag_313:\n        /* \"#utility.yul\":154:245   */\n      tag_315\n      jump\t// in\n    tag_312:\n        /* \"#utility.yul\":145:245   */\n      swap1\n      pop\n        /* \"#utility.yul\":265:270   */\n      dup1\n        /* \"#utility.yul\":293:299   */\n      dup4\n        /* \"#utility.yul\":286:291   */\n      dup3\n        /* \"#utility.yul\":279:300   */\n      mstore\n        /* \"#utility.yul\":319:323   */\n      0x20\n        /* \"#utility.yul\":312:317   */\n      dup3\n        /* \"#utility.yul\":308:324   */\n      add\n        /* \"#utility.yul\":301:324   */\n      swap1\n      pop\n        /* \"#utility.yul\":344:350   */\n      dup3\n        /* \"#utility.yul\":375:376   */\n      0x00\n        /* \"#utility.yul\":360:633   */\n    tag_316:\n        /* \"#utility.yul\":385:391   */\n      dup6\n        /* \"#utility.yul\":382:383   */\n      dup2\n        /* \"#utility.yul\":379:392   */\n      lt\n        /* \"#utility.yul\":360:633   */\n      iszero\n      tag_318\n      jumpi\n        /* \"#utility.yul\":477:480   */\n      dup2\n        /* \"#utility.yul\":464:481   */\n      calldataload\n        /* \"#utility.yul\":456:462   */\n      dup6\n        /* \"#utility.yul\":452:482   */\n      add\n        /* \"#utility.yul\":507:554   */\n      tag_319\n        /* \"#utility.yul\":550:553   */\n      dup9\n        /* \"#utility.yul\":538:548   */\n      dup3\n        /* \"#utility.yul\":507:554   */\n      tag_320\n      jump\t// in\n    tag_319:\n        /* \"#utility.yul\":502:505   */\n      dup5\n        /* \"#utility.yul\":495:555   */\n      mstore\n        /* \"#utility.yul\":584:588   */\n      0x20\n        /* \"#utility.yul\":579:582   */\n      dup5\n        /* \"#utility.yul\":575:589   */\n      add\n        /* \"#utility.yul\":568:589   */\n      swap4\n      pop\n        /* \"#utility.yul\":618:622   */\n      0x20\n        /* \"#utility.yul\":613:616   */\n      dup4\n        /* \"#utility.yul\":609:623   */\n      add\n        /* \"#utility.yul\":602:623   */\n      swap3\n      pop\n        /* \"#utility.yul\":420:633   */\n      pop\n        /* \"#utility.yul\":407:408   */\n      0x01\n        /* \"#utility.yul\":404:405   */\n      dup2\n        /* \"#utility.yul\":400:409   */\n      add\n        /* \"#utility.yul\":395:409   */\n      swap1\n      pop\n        /* \"#utility.yul\":360:633   */\n      jump(tag_316)\n    tag_318:\n        /* \"#utility.yul\":364:378   */\n      pop\n        /* \"#utility.yul\":135:639   */\n      pop\n      pop\n      swap4\n      swap3\n      pop\n      pop\n      pop\n      jump\t// out\n        /* \"#utility.yul\":662:1285   */\n    tag_321:\n      0x00\n        /* \"#utility.yul\":783:864   */\n      tag_323\n        /* \"#utility.yul\":799:863   */\n      tag_324\n        /* \"#utility.yul\":856:862   */\n      dup5\n        /* \"#utility.yul\":799:863   */\n      tag_325\n      jump\t// in\n    tag_324:\n        /* \"#utility.yul\":783:864   */\n      tag_315\n      jump\t// in\n    tag_323:\n        /* \"#utility.yul\":774:864   */\n      swap1\n      pop\n        /* \"#utility.yul\":884:889   */\n      dup1\n        /* \"#utility.yul\":912:918   */\n      dup4\n        /* \"#utility.yul\":905:910   */\n      dup3\n        /* \"#utility.yul\":898:919   */\n      mstore\n        /* \"#utility.yul\":938:942   */\n      0x20\n        /* \"#utility.yul\":931:936   */\n      dup3\n        /* \"#utility.yul\":927:943   */\n      add\n        /* \"#utility.yul\":920:943   */\n      swap1\n      pop\n        /* \"#utility.yul\":963:969   */\n      dup3\n        /* \"#utility.yul\":1013:1016   */\n      dup6\n        /* \"#utility.yul\":1005:1009   */\n      0x20\n        /* \"#utility.yul\":997:1003   */\n      dup7\n        /* \"#utility.yul\":993:1010   */\n      mul\n        /* \"#utility.yul\":988:991   */\n      dup3\n        /* \"#utility.yul\":984:1011   */\n      add\n        /* \"#utility.yul\":981:1017   */\n      gt\n        /* \"#utility.yul\":978:980   */\n      iszero\n      tag_326\n      jumpi\n        /* \"#utility.yul\":1030:1031   */\n      0x00\n        /* \"#utility.yul\":1027:1028   */\n      dup1\n        /* \"#utility.yul\":1020:1032   */\n      revert\n        /* \"#utility.yul\":978:980   */\n    tag_326:\n        /* \"#utility.yul\":1058:1059   */\n      0x00\n        /* \"#utility.yul\":1043:1279   */\n    tag_327:\n        /* \"#utility.yul\":1068:1074   */\n      dup6\n        /* \"#utility.yul\":1065:1066   */\n      dup2\n        /* \"#utility.yul\":1062:1075   */\n      lt\n        /* \"#utility.yul\":1043:1279   */\n      iszero\n      tag_329\n      jumpi\n        /* \"#utility.yul\":1135:1138   */\n      dup2\n        /* \"#utility.yul\":1163:1200   */\n      tag_330\n        /* \"#utility.yul\":1196:1199   */\n      dup9\n        /* \"#utility.yul\":1184:1194   */\n      dup3\n        /* \"#utility.yul\":1163:1200   */\n      tag_331\n      jump\t// in\n    tag_330:\n        /* \"#utility.yul\":1158:1161   */\n      dup5\n        /* \"#utility.yul\":1151:1201   */\n      mstore\n        /* \"#utility.yul\":1230:1234   */\n      0x20\n        /* \"#utility.yul\":1225:1228   */\n      dup5\n        /* \"#utility.yul\":1221:1235   */\n      add\n        /* \"#utility.yul\":1214:1235   */\n      swap4\n      pop\n        /* \"#utility.yul\":1264:1268   */\n      0x20\n        /* \"#utility.yul\":1259:1262   */\n      dup4\n        /* \"#utility.yul\":1255:1269   */\n      add\n        /* \"#utility.yul\":1248:1269   */\n      swap3\n      pop\n        /* \"#utility.yul\":1103:1279   */\n      pop\n        /* \"#utility.yul\":1090:1091   */\n      0x01\n        /* \"#utility.yul\":1087:1088   */\n      dup2\n        /* \"#utility.yul\":1083:1092   */\n      add\n        /* \"#utility.yul\":1078:1092   */\n      swap1\n      pop\n        /* \"#utility.yul\":1043:1279   */\n      jump(tag_327)\n    tag_329:\n        /* \"#utility.yul\":1047:1061   */\n      pop\n        /* \"#utility.yul\":764:1285   */\n      pop\n      pop\n      swap4\n      swap3\n      pop\n      pop\n      pop\n      jump\t// out\n        /* \"#utility.yul\":1291:1636   */\n    tag_332:\n      0x00\n        /* \"#utility.yul\":1394:1460   */\n      tag_334\n        /* \"#utility.yul\":1410:1459   */\n      tag_335\n        /* \"#utility.yul\":1452:1458   */\n      dup5\n        /* \"#utility.yul\":1410:1459   */\n      tag_336\n      jump\t// in\n    tag_335:\n        /* \"#utility.yul\":1394:1460   */\n      tag_315\n      jump\t// in\n    tag_334:\n        /* \"#utility.yul\":1385:1460   */\n      swap1\n      pop\n        /* \"#utility.yul\":1483:1489   */\n      dup3\n        /* \"#utility.yul\":1476:1481   */\n      dup2\n        /* \"#utility.yul\":1469:1490   */\n      mstore\n        /* \"#utility.yul\":1521:1525   */\n      0x20\n        /* \"#utility.yul\":1514:1519   */\n      dup2\n        /* \"#utility.yul\":1510:1526   */\n      add\n        /* \"#utility.yul\":1559:1562   */\n      dup5\n        /* \"#utility.yul\":1550:1556   */\n      dup5\n        /* \"#utility.yul\":1545:1548   */\n      dup5\n        /* \"#utility.yul\":1541:1557   */\n      add\n        /* \"#utility.yul\":1538:1563   */\n      gt\n        /* \"#utility.yul\":1535:1537   */\n      iszero\n      tag_337\n      jumpi\n        /* \"#utility.yul\":1576:1577   */\n      0x00\n        /* \"#utility.yul\":1573:1574   */\n      dup1\n        /* \"#utility.yul\":1566:1578   */\n      revert\n        /* \"#utility.yul\":1535:1537   */\n    tag_337:\n        /* \"#utility.yul\":1589:1630   */\n      tag_338\n        /* \"#utility.yul\":1623:1629   */\n      dup5\n        /* \"#utility.yul\":1618:1621   */\n      dup3\n        /* \"#utility.yul\":1613:1616   */\n      dup6\n        /* \"#utility.yul\":1589:1630   */\n      tag_339\n      jump\t// in\n    tag_338:\n        /* \"#utility.yul\":1375:1636   */\n      pop\n      swap4\n      swap3\n      pop\n      pop\n      pop\n      jump\t// out\n        /* \"#utility.yul\":1642:1781   */\n    tag_340:\n      0x00\n        /* \"#utility.yul\":1726:1732   */\n      dup2\n        /* \"#utility.yul\":1713:1733   */\n      calldataload\n        /* \"#utility.yul\":1704:1733   */\n      swap1\n      pop\n        /* \"#utility.yul\":1742:1775   */\n      tag_342\n        /* \"#utility.yul\":1769:1774   */\n      dup2\n        /* \"#utility.yul\":1742:1775   */\n      tag_343\n      jump\t// in\n    tag_342:\n        /* \"#utility.yul\":1694:1781   */\n      swap3\n      swap2\n      pop\n      pop\n      jump\t// out\n        /* \"#utility.yul\":1803:2126   */\n    tag_344:\n      0x00\n        /* \"#utility.yul\":1933:1936   */\n      dup3\n        /* \"#utility.yul\":1926:1930   */\n      0x1f\n        /* \"#utility.yul\":1918:1924   */\n      dup4\n        /* \"#utility.yul\":1914:1931   */\n      add\n        /* \"#utility.yul\":1910:1937   */\n      slt\n        /* \"#utility.yul\":1900:1902   */\n      tag_346\n      jumpi\n        /* \"#utility.yul\":1951:1952   */\n      0x00\n        /* \"#utility.yul\":1948:1949   */\n      dup1\n        /* \"#utility.yul\":1941:1953   */\n      revert\n        /* \"#utility.yul\":1900:1902   */\n    tag_346:\n        /* \"#utility.yul\":1991:1997   */\n      dup2\n        /* \"#utility.yul\":1978:1998   */\n      calldataload\n        /* \"#utility.yul\":2016:2120   */\n      tag_347\n        /* \"#utility.yul\":2116:2119   */\n      dup5\n        /* \"#utility.yul\":2108:2114   */\n      dup3\n        /* \"#utility.yul\":2101:2105   */\n      0x20\n        /* \"#utility.yul\":2093:2099   */\n      dup7\n        /* \"#utility.yul\":2089:2106   */\n      add\n        /* \"#utility.yul\":2016:2120   */\n      tag_310\n      jump\t// in\n    tag_347:\n        /* \"#utility.yul\":2007:2120   */\n      swap2\n      pop\n        /* \"#utility.yul\":1890:2126   */\n      pop\n      swap3\n      swap2\n      pop\n      pop\n      jump\t// out\n        /* \"#utility.yul\":2149:2452   */\n    tag_348:\n      0x00\n        /* \"#utility.yul\":2269:2272   */\n      dup3\n        /* \"#utility.yul\":2262:2266   */\n      0x1f\n        /* \"#utility.yul\":2254:2260   */\n      dup4\n        /* \"#utility.yul\":2250:2267   */\n      add\n        /* \"#utility.yul\":2246:2273   */\n      slt\n        /* \"#utility.yul\":2236:2238   */\n      tag_350\n      jumpi\n        /* \"#utility.yul\":2287:2288   */\n      0x00\n        /* \"#utility.yul\":2284:2285   */\n      dup1\n        /* \"#utility.yul\":2277:2289   */\n      revert\n        /* \"#utility.yul\":2236:2238   */\n    tag_350:\n        /* \"#utility.yul\":2327:2333   */\n      dup2\n        /* \"#utility.yul\":2314:2334   */\n      calldataload\n        /* \"#utility.yul\":2352:2446   */\n      tag_351\n        /* \"#utility.yul\":2442:2445   */\n      dup5\n        /* \"#utility.yul\":2434:2440   */\n      dup3\n        /* \"#utility.yul\":2427:2431   */\n      0x20\n        /* \"#utility.yul\":2419:2425   */\n      dup7\n        /* \"#utility.yul\":2415:2432   */\n      add\n        /* \"#utility.yul\":2352:2446   */\n      tag_321\n      jump\t// in\n    tag_351:\n        /* \"#utility.yul\":2343:2446   */\n      swap2\n      pop\n        /* \"#utility.yul\":2226:2452   */\n      pop\n      swap3\n      swap2\n      pop\n      pop\n      jump\t// out\n        /* \"#utility.yul\":2458:2595   */\n    tag_352:\n      0x00\n        /* \"#utility.yul\":2543:2549   */\n      dup2\n        /* \"#utility.yul\":2537:2550   */\n      mload\n        /* \"#utility.yul\":2528:2550   */\n      swap1\n      pop\n        /* \"#utility.yul\":2559:2589   */\n      tag_354\n        /* \"#utility.yul\":2583:2588   */\n      dup2\n        /* \"#utility.yul\":2559:2589   */\n      tag_355\n      jump\t// in\n    tag_354:\n        /* \"#utility.yul\":2518:2595   */\n      swap3\n      swap2\n      pop\n      pop\n      jump\t// out\n        /* \"#utility.yul\":2601:2740   */\n    tag_356:\n      0x00\n        /* \"#utility.yul\":2685:2691   */\n      dup2\n        /* \"#utility.yul\":2672:2692   */\n      calldataload\n        /* \"#utility.yul\":2663:2692   */\n      swap1\n      pop\n        /* \"#utility.yul\":2701:2734   */\n      tag_358\n        /* \"#utility.yul\":2728:2733   */\n      dup2\n        /* \"#utility.yul\":2701:2734   */\n      tag_359\n      jump\t// in\n    tag_358:\n        /* \"#utility.yul\":2653:2740   */\n      swap3\n      swap2\n      pop\n      pop\n      jump\t// out\n        /* \"#utility.yul\":2746:2883   */\n    tag_360:\n      0x00\n        /* \"#utility.yul\":2829:2835   */\n      dup2\n        /* \"#utility.yul\":2816:2836   */\n      calldataload\n        /* \"#utility.yul\":2807:2836   */\n      swap1\n      pop\n        /* \"#utility.yul\":2845:2877   */\n      tag_362\n        /* \"#utility.yul\":2871:2876   */\n      dup2\n        /* \"#utility.yul\":2845:2877   */\n      tag_363\n      jump\t// in\n    tag_362:\n        /* \"#utility.yul\":2797:2883   */\n      swap3\n      swap2\n      pop\n      pop\n      jump\t// out\n        /* \"#utility.yul\":2903:3176   */\n    tag_320:\n      0x00\n        /* \"#utility.yul\":3008:3011   */\n      dup3\n        /* \"#utility.yul\":3001:3005   */\n      0x1f\n        /* \"#utility.yul\":2993:2999   */\n      dup4\n        /* \"#utility.yul\":2989:3006   */\n      add\n        /* \"#utility.yul\":2985:3012   */\n      slt\n        /* \"#utility.yul\":2975:2977   */\n      tag_365\n      jumpi\n        /* \"#utility.yul\":3026:3027   */\n      0x00\n        /* \"#utility.yul\":3023:3024   */\n      dup1\n        /* \"#utility.yul\":3016:3028   */\n      revert\n        /* \"#utility.yul\":2975:2977   */\n    tag_365:\n        /* \"#utility.yul\":3066:3072   */\n      dup2\n        /* \"#utility.yul\":3053:3073   */\n      calldataload\n        /* \"#utility.yul\":3091:3170   */\n      tag_366\n        /* \"#utility.yul\":3166:3169   */\n      dup5\n        /* \"#utility.yul\":3158:3164   */\n      dup3\n        /* \"#utility.yul\":3151:3155   */\n      0x20\n        /* \"#utility.yul\":3143:3149   */\n      dup7\n        /* \"#utility.yul\":3139:3156   */\n      add\n        /* \"#utility.yul\":3091:3170   */\n      tag_332\n      jump\t// in\n    tag_366:\n        /* \"#utility.yul\":3082:3170   */\n      swap2\n      pop\n        /* \"#utility.yul\":2965:3176   */\n      pop\n      swap3\n      swap2\n      pop\n      pop\n      jump\t// out\n        /* \"#utility.yul\":3182:3321   */\n    tag_331:\n      0x00\n        /* \"#utility.yul\":3266:3272   */\n      dup2\n        /* \"#utility.yul\":3253:3273   */\n      calldataload\n        /* \"#utility.yul\":3244:3273   */\n      swap1\n      pop\n        /* \"#utility.yul\":3282:3315   */\n      tag_368\n        /* \"#utility.yul\":3309:3314   */\n      dup2\n        /* \"#utility.yul\":3282:3315   */\n      tag_369\n      jump\t// in\n    tag_368:\n        /* \"#utility.yul\":3234:3321   */\n      swap3\n      swap2\n      pop\n      pop\n      jump\t// out\n        /* \"#utility.yul\":3327:3470   */\n    tag_370:\n      0x00\n        /* \"#utility.yul\":3415:3421   */\n      dup2\n        /* \"#utility.yul\":3409:3422   */\n      mload\n        /* \"#utility.yul\":3400:3422   */\n      swap1\n      pop\n        /* \"#utility.yul\":3431:3464   */\n      tag_372\n        /* \"#utility.yul\":3458:3463   */\n      dup2\n        /* \"#utility.yul\":3431:3464   */\n      tag_369\n      jump\t// in\n    tag_372:\n        /* \"#utility.yul\":3390:3470   */\n      swap3\n      swap2\n      pop\n      pop\n      jump\t// out\n        /* \"#utility.yul\":3476:3738   */\n    tag_61:\n      0x00\n        /* \"#utility.yul\":3584:3586   */\n      0x20\n        /* \"#utility.yul\":3572:3581   */\n      dup3\n        /* \"#utility.yul\":3563:3570   */\n      dup5\n        /* \"#utility.yul\":3559:3582   */\n      sub\n        /* \"#utility.yul\":3555:3587   */\n      slt\n        /* \"#utility.yul\":3552:3554   */\n      iszero\n      tag_374\n      jumpi\n        /* \"#utility.yul\":3600:3601   */\n      0x00\n        /* \"#utility.yul\":3597:3598   */\n      dup1\n        /* \"#utility.yul\":3590:3602   */\n      revert\n        /* \"#utility.yul\":3552:3554   */\n    tag_374:\n        /* \"#utility.yul\":3643:3644   */\n      0x00\n        /* \"#utility.yul\":3668:3721   */\n      tag_375\n        /* \"#utility.yul\":3713:3720   */\n      dup5\n        /* \"#utility.yul\":3704:3710   */\n      dup3\n        /* \"#utility.yul\":3693:3702   */\n      dup6\n        /* \"#utility.yul\":3689:3711   */\n      add\n        /* \"#utility.yul\":3668:3721   */\n      tag_340\n      jump\t// in\n    tag_375:\n        /* \"#utility.yul\":3658:3721   */\n      swap2\n      pop\n        /* \"#utility.yul\":3614:3731   */\n      pop\n        /* \"#utility.yul\":3542:3738   */\n      swap3\n      swap2\n      pop\n      pop\n      jump\t// out\n        /* \"#utility.yul\":3744:4151   */\n    tag_98:\n      0x00\n      dup1\n        /* \"#utility.yul\":3869:3871   */\n      0x40\n        /* \"#utility.yul\":3857:3866   */\n      dup4\n        /* \"#utility.yul\":3848:3855   */\n      dup6\n        /* \"#utility.yul\":3844:3867   */\n      sub\n        /* \"#utility.yul\":3840:3872   */\n      slt\n        /* \"#utility.yul\":3837:3839   */\n      iszero\n      tag_377\n      jumpi\n        /* \"#utility.yul\":3885:3886   */\n      0x00\n        /* \"#utility.yul\":3882:3883   */\n      dup1\n        /* \"#utility.yul\":3875:3887   */\n      revert\n        /* \"#utility.yul\":3837:3839   */\n    tag_377:\n        /* \"#utility.yul\":3928:3929   */\n      0x00\n        /* \"#utility.yul\":3953:4006   */\n      tag_378\n        /* \"#utility.yul\":3998:4005   */\n      dup6\n        /* \"#utility.yul\":3989:3995   */\n      dup3\n        /* \"#utility.yul\":3978:3987   */\n      dup7\n        /* \"#utility.yul\":3974:3996   */\n      add\n        /* \"#utility.yul\":3953:4006   */\n      tag_340\n      jump\t// in\n    tag_378:\n        /* \"#utility.yul\":3943:4006   */\n      swap3\n      pop\n        /* \"#utility.yul\":3899:4016   */\n      pop\n        /* \"#utility.yul\":4055:4057   */\n      0x20\n        /* \"#utility.yul\":4081:4134   */\n      tag_379\n        /* \"#utility.yul\":4126:4133   */\n      dup6\n        /* \"#utility.yul\":4117:4123   */\n      dup3\n        /* \"#utility.yul\":4106:4115   */\n      dup7\n        /* \"#utility.yul\":4102:4124   */\n      add\n        /* \"#utility.yul\":4081:4134   */\n      tag_331\n      jump\t// in\n    tag_379:\n        /* \"#utility.yul\":4071:4134   */\n      swap2\n      pop\n        /* \"#utility.yul\":4026:4144   */\n      pop\n        /* \"#utility.yul\":3827:4151   */\n      swap3\n      pop\n      swap3\n      swap1\n      pop\n      jump\t// out\n        /* \"#utility.yul\":4157:4870   */\n    tag_123:\n      0x00\n      dup1\n        /* \"#utility.yul\":4342:4344   */\n      0x40\n        /* \"#utility.yul\":4330:4339   */\n      dup4\n        /* \"#utility.yul\":4321:4328   */\n      dup6\n        /* \"#utility.yul\":4317:4340   */\n      sub\n        /* \"#utility.yul\":4313:4345   */\n      slt\n        /* \"#utility.yul\":4310:4312   */\n      iszero\n      tag_381\n      jumpi\n        /* \"#utility.yul\":4358:4359   */\n      0x00\n        /* \"#utility.yul\":4355:4356   */\n      dup1\n        /* \"#utility.yul\":4348:4360   */\n      revert\n        /* \"#utility.yul\":4310:4312   */\n    tag_381:\n        /* \"#utility.yul\":4429:4430   */\n      0x00\n        /* \"#utility.yul\":4418:4427   */\n      dup4\n        /* \"#utility.yul\":4414:4431   */\n      add\n        /* \"#utility.yul\":4401:4432   */\n      calldataload\n        /* \"#utility.yul\":4459:4477   */\n      0xffffffffffffffff\n        /* \"#utility.yul\":4451:4457   */\n      dup2\n        /* \"#utility.yul\":4448:4478   */\n      gt\n        /* \"#utility.yul\":4445:4447   */\n      iszero\n      tag_382\n      jumpi\n        /* \"#utility.yul\":4491:4492   */\n      0x00\n        /* \"#utility.yul\":4488:4489   */\n      dup1\n        /* \"#utility.yul\":4481:4493   */\n      revert\n        /* \"#utility.yul\":4445:4447   */\n    tag_382:\n        /* \"#utility.yul\":4519:4597   */\n      tag_383\n        /* \"#utility.yul\":4589:4596   */\n      dup6\n        /* \"#utility.yul\":4580:4586   */\n      dup3\n        /* \"#utility.yul\":4569:4578   */\n      dup7\n        /* \"#utility.yul\":4565:4587   */\n      add\n        /* \"#utility.yul\":4519:4597   */\n      tag_348\n      jump\t// in\n    tag_383:\n        /* \"#utility.yul\":4509:4597   */\n      swap3\n      pop\n        /* \"#utility.yul\":4372:4607   */\n      pop\n        /* \"#utility.yul\":4674:4676   */\n      0x20\n        /* \"#utility.yul\":4663:4672   */\n      dup4\n        /* \"#utility.yul\":4659:4677   */\n      add\n        /* \"#utility.yul\":4646:4678   */\n      calldataload\n        /* \"#utility.yul\":4705:4723   */\n      0xffffffffffffffff\n        /* \"#utility.yul\":4697:4703   */\n      dup2\n        /* \"#utility.yul\":4694:4724   */\n      gt\n        /* \"#utility.yul\":4691:4693   */\n      iszero\n      tag_384\n      jumpi\n        /* \"#utility.yul\":4737:4738   */\n      0x00\n        /* \"#utility.yul\":4734:4735   */\n      dup1\n        /* \"#utility.yul\":4727:4739   */\n      revert\n        /* \"#utility.yul\":4691:4693   */\n    tag_384:\n        /* \"#utility.yul\":4765:4853   */\n      tag_385\n        /* \"#utility.yul\":4845:4852   */\n      dup6\n        /* \"#utility.yul\":4836:4842   */\n      dup3\n        /* \"#utility.yul\":4825:4834   */\n      dup7\n        /* \"#utility.yul\":4821:4843   */\n      add\n        /* \"#utility.yul\":4765:4853   */\n      tag_344\n      jump\t// in\n    tag_385:\n        /* \"#utility.yul\":4755:4853   */\n      swap2\n      pop\n        /* \"#utility.yul\":4617:4863   */\n      pop\n        /* \"#utility.yul\":4300:4870   */\n      swap3\n      pop\n      swap3\n      swap1\n      pop\n      jump\t// out\n        /* \"#utility.yul\":4876:5154   */\n    tag_212:\n      0x00\n        /* \"#utility.yul\":4992:4994   */\n      0x20\n        /* \"#utility.yul\":4980:4989   */\n      dup3\n        /* \"#utility.yul\":4971:4978   */\n      dup5\n        /* \"#utility.yul\":4967:4990   */\n      sub\n        /* \"#utility.yul\":4963:4995   */\n      slt\n        /* \"#utility.yul\":4960:4962   */\n      iszero\n      tag_387\n      jumpi\n        /* \"#utility.yul\":5008:5009   */\n      0x00\n        /* \"#utility.yul\":5005:5006   */\n      dup1\n        /* \"#utility.yul\":4998:5010   */\n      revert\n        /* \"#utility.yul\":4960:4962   */\n    tag_387:\n        /* \"#utility.yul\":5051:5052   */\n      0x00\n        /* \"#utility.yul\":5076:5137   */\n      tag_388\n        /* \"#utility.yul\":5129:5136   */\n      dup5\n        /* \"#utility.yul\":5120:5126   */\n      dup3\n        /* \"#utility.yul\":5109:5118   */\n      dup6\n        /* \"#utility.yul\":5105:5127   */\n      add\n        /* \"#utility.yul\":5076:5137   */\n      tag_352\n      jump\t// in\n    tag_388:\n        /* \"#utility.yul\":5066:5137   */\n      swap2\n      pop\n        /* \"#utility.yul\":5022:5147   */\n      pop\n        /* \"#utility.yul\":4950:5154   */\n      swap3\n      swap2\n      pop\n      pop\n      jump\t// out\n        /* \"#utility.yul\":5160:5422   */\n    tag_40:\n      0x00\n        /* \"#utility.yul\":5268:5270   */\n      0x20\n        /* \"#utility.yul\":5256:5265   */\n      dup3\n        /* \"#utility.yul\":5247:5254   */\n      dup5\n        /* \"#utility.yul\":5243:5266   */\n      sub\n        /* \"#utility.yul\":5239:5271   */\n      slt\n        /* \"#utility.yul\":5236:5238   */\n      iszero\n      tag_390\n      jumpi\n        /* \"#utility.yul\":5284:5285   */\n      0x00\n        /* \"#utility.yul\":5281:5282   */\n      dup1\n        /* \"#utility.yul\":5274:5286   */\n      revert\n        /* \"#utility.yul\":5236:5238   */\n    tag_390:\n        /* \"#utility.yul\":5327:5328   */\n      0x00\n        /* \"#utility.yul\":5352:5405   */\n      tag_391\n        /* \"#utility.yul\":5397:5404   */\n      dup5\n        /* \"#utility.yul\":5388:5394   */\n      dup3\n        /* \"#utility.yul\":5377:5386   */\n      dup6\n        /* \"#utility.yul\":5373:5395   */\n      add\n        /* \"#utility.yul\":5352:5405   */\n      tag_356\n      jump\t// in\n    tag_391:\n        /* \"#utility.yul\":5342:5405   */\n      swap2\n      pop\n        /* \"#utility.yul\":5298:5415   */\n      pop\n        /* \"#utility.yul\":5226:5422   */\n      swap3\n      swap2\n      pop\n      pop\n      jump\t// out\n        /* \"#utility.yul\":5428:5835   */\n    tag_46:\n      0x00\n      dup1\n        /* \"#utility.yul\":5553:5555   */\n      0x40\n        /* \"#utility.yul\":5541:5550   */\n      dup4\n        /* \"#utility.yul\":5532:5539   */\n      dup6\n        /* \"#utility.yul\":5528:5551   */\n      sub\n        /* \"#utility.yul\":5524:5556   */\n      slt\n        /* \"#utility.yul\":5521:5523   */\n      iszero\n      tag_393\n      jumpi\n        /* \"#utility.yul\":5569:5570   */\n      0x00\n        /* \"#utility.yul\":5566:5567   */\n      dup1\n        /* \"#utility.yul\":5559:5571   */\n      revert\n        /* \"#utility.yul\":5521:5523   */\n    tag_393:\n        /* \"#utility.yul\":5612:5613   */\n      0x00\n        /* \"#utility.yul\":5637:5690   */\n      tag_394\n        /* \"#utility.yul\":5682:5689   */\n      dup6\n        /* \"#utility.yul\":5673:5679   */\n      dup3\n        /* \"#utility.yul\":5662:5671   */\n      dup7\n        /* \"#utility.yul\":5658:5680   */\n      add\n        /* \"#utility.yul\":5637:5690   */\n      tag_356\n      jump\t// in\n    tag_394:\n        /* \"#utility.yul\":5627:5690   */\n      swap3\n      pop\n        /* \"#utility.yul\":5583:5700   */\n      pop\n        /* \"#utility.yul\":5739:5741   */\n      0x20\n        /* \"#utility.yul\":5765:5818   */\n      tag_395\n        /* \"#utility.yul\":5810:5817   */\n      dup6\n        /* \"#utility.yul\":5801:5807   */\n      dup3\n        /* \"#utility.yul\":5790:5799   */\n      dup7\n        /* \"#utility.yul\":5786:5808   */\n      add\n        /* \"#utility.yul\":5765:5818   */\n      tag_340\n      jump\t// in\n    tag_395:\n        /* \"#utility.yul\":5755:5818   */\n      swap2\n      pop\n        /* \"#utility.yul\":5710:5828   */\n      pop\n        /* \"#utility.yul\":5511:5835   */\n      swap3\n      pop\n      swap3\n      swap1\n      pop\n      jump\t// out\n        /* \"#utility.yul\":5841:6101   */\n    tag_34:\n      0x00\n        /* \"#utility.yul\":5948:5950   */\n      0x20\n        /* \"#utility.yul\":5936:5945   */\n      dup3\n        /* \"#utility.yul\":5927:5934   */\n      dup5\n        /* \"#utility.yul\":5923:5946   */\n      sub\n        /* \"#utility.yul\":5919:5951   */\n      slt\n        /* \"#utility.yul\":5916:5918   */\n      iszero\n      tag_397\n      jumpi\n        /* \"#utility.yul\":5964:5965   */\n      0x00\n        /* \"#utility.yul\":5961:5962   */\n      dup1\n        /* \"#utility.yul\":5954:5966   */\n      revert\n        /* \"#utility.yul\":5916:5918   */\n    tag_397:\n        /* \"#utility.yul\":6007:6008   */\n      0x00\n        /* \"#utility.yul\":6032:6084   */\n      tag_398\n        /* \"#utility.yul\":6076:6083   */\n      dup5\n        /* \"#utility.yul\":6067:6073   */\n      dup3\n        /* \"#utility.yul\":6056:6065   */\n      dup6\n        /* \"#utility.yul\":6052:6074   */\n      add\n        /* \"#utility.yul\":6032:6084   */\n      tag_360\n      jump\t// in\n    tag_398:\n        /* \"#utility.yul\":6022:6084   */\n      swap2\n      pop\n        /* \"#utility.yul\":5978:6094   */\n      pop\n        /* \"#utility.yul\":5906:6101   */\n      swap3\n      swap2\n      pop\n      pop\n      jump\t// out\n        /* \"#utility.yul\":6107:6369   */\n    tag_57:\n      0x00\n        /* \"#utility.yul\":6215:6217   */\n      0x20\n        /* \"#utility.yul\":6203:6212   */\n      dup3\n        /* \"#utility.yul\":6194:6201   */\n      dup5\n        /* \"#utility.yul\":6190:6213   */\n      sub\n        /* \"#utility.yul\":6186:6218   */\n      slt\n        /* \"#utility.yul\":6183:6185   */\n      iszero\n      tag_400\n      jumpi\n        /* \"#utility.yul\":6231:6232   */\n      0x00\n        /* \"#utility.yul\":6228:6229   */\n      dup1\n        /* \"#utility.yul\":6221:6233   */\n      revert\n        /* \"#utility.yul\":6183:6185   */\n    tag_400:\n        /* \"#utility.yul\":6274:6275   */\n      0x00\n        /* \"#utility.yul\":6299:6352   */\n      tag_401\n        /* \"#utility.yul\":6344:6351   */\n      dup5\n        /* \"#utility.yul\":6335:6341   */\n      dup3\n        /* \"#utility.yul\":6324:6333   */\n      dup6\n        /* \"#utility.yul\":6320:6342   */\n      add\n        /* \"#utility.yul\":6299:6352   */\n      tag_331\n      jump\t// in\n    tag_401:\n        /* \"#utility.yul\":6289:6352   */\n      swap2\n      pop\n        /* \"#utility.yul\":6245:6362   */\n      pop\n        /* \"#utility.yul\":6173:6369   */\n      swap3\n      swap2\n      pop\n      pop\n      jump\t// out\n        /* \"#utility.yul\":6375:6659   */\n    tag_151:\n      0x00\n        /* \"#utility.yul\":6494:6496   */\n      0x20\n        /* \"#utility.yul\":6482:6491   */\n      dup3\n        /* \"#utility.yul\":6473:6480   */\n      dup5\n        /* \"#utility.yul\":6469:6492   */\n      sub\n        /* \"#utility.yul\":6465:6497   */\n      slt\n        /* \"#utility.yul\":6462:6464   */\n      iszero\n      tag_403\n      jumpi\n        /* \"#utility.yul\":6510:6511   */\n      0x00\n        /* \"#utility.yul\":6507:6508   */\n      dup1\n        /* \"#utility.yul\":6500:6512   */\n      revert\n        /* \"#utility.yul\":6462:6464   */\n    tag_403:\n        /* \"#utility.yul\":6553:6554   */\n      0x00\n        /* \"#utility.yul\":6578:6642   */\n      tag_404\n        /* \"#utility.yul\":6634:6641   */\n      dup5\n        /* \"#utility.yul\":6625:6631   */\n      dup3\n        /* \"#utility.yul\":6614:6623   */\n      dup6\n        /* \"#utility.yul\":6610:6632   */\n      add\n        /* \"#utility.yul\":6578:6642   */\n      tag_370\n      jump\t// in\n    tag_404:\n        /* \"#utility.yul\":6568:6642   */\n      swap2\n      pop\n        /* \"#utility.yul\":6524:6652   */\n      pop\n        /* \"#utility.yul\":6452:6659   */\n      swap3\n      swap2\n      pop\n      pop\n      jump\t// out\n        /* \"#utility.yul\":6665:6861   */\n    tag_405:\n      0x00\n        /* \"#utility.yul\":6789:6855   */\n      tag_407\n        /* \"#utility.yul\":6851:6854   */\n      dup4\n        /* \"#utility.yul\":6843:6849   */\n      dup4\n        /* \"#utility.yul\":6789:6855   */\n      tag_408\n      jump\t// in\n    tag_407:\n        /* \"#utility.yul\":6775:6855   */\n      swap1\n      pop\n        /* \"#utility.yul\":6765:6861   */\n      swap3\n      swap2\n      pop\n      pop\n      jump\t// out\n        /* \"#utility.yul\":6867:7046   */\n    tag_409:\n      0x00\n        /* \"#utility.yul\":6957:7003   */\n      tag_411\n        /* \"#utility.yul\":6999:7002   */\n      dup4\n        /* \"#utility.yul\":6991:6997   */\n      dup4\n        /* \"#utility.yul\":6957:7003   */\n      tag_412\n      jump\t// in\n    tag_411:\n        /* \"#utility.yul\":7035:7039   */\n      0x20\n        /* \"#utility.yul\":7030:7033   */\n      dup4\n        /* \"#utility.yul\":7026:7040   */\n      add\n        /* \"#utility.yul\":7012:7040   */\n      swap1\n      pop\n        /* \"#utility.yul\":6947:7046   */\n      swap3\n      swap2\n      pop\n      pop\n      jump\t// out\n        /* \"#utility.yul\":7052:7170   */\n    tag_413:\n        /* \"#utility.yul\":7139:7163   */\n      tag_415\n        /* \"#utility.yul\":7157:7162   */\n      dup2\n        /* \"#utility.yul\":7139:7163   */\n      tag_416\n      jump\t// in\n    tag_415:\n        /* \"#utility.yul\":7134:7137   */\n      dup3\n        /* \"#utility.yul\":7127:7164   */\n      mstore\n        /* \"#utility.yul\":7117:7170   */\n      pop\n      pop\n      jump\t// out\n        /* \"#utility.yul\":7176:7333   */\n    tag_417:\n        /* \"#utility.yul\":7281:7326   */\n      tag_419\n        /* \"#utility.yul\":7301:7325   */\n      tag_420\n        /* \"#utility.yul\":7319:7324   */\n      dup3\n        /* \"#utility.yul\":7301:7325   */\n      tag_416\n      jump\t// in\n    tag_420:\n        /* \"#utility.yul\":7281:7326   */\n      tag_421\n      jump\t// in\n    tag_419:\n        /* \"#utility.yul\":7276:7279   */\n      dup3\n        /* \"#utility.yul\":7269:7327   */\n      mstore\n        /* \"#utility.yul\":7259:7333   */\n      pop\n      pop\n      jump\t// out\n        /* \"#utility.yul\":7367:8358   */\n    tag_422:\n      0x00\n        /* \"#utility.yul\":7535:7599   */\n      tag_424\n        /* \"#utility.yul\":7593:7598   */\n      dup3\n        /* \"#utility.yul\":7535:7599   */\n      tag_425\n      jump\t// in\n    tag_424:\n        /* \"#utility.yul\":7615:7711   */\n      tag_426\n        /* \"#utility.yul\":7704:7710   */\n      dup2\n        /* \"#utility.yul\":7699:7702   */\n      dup6\n        /* \"#utility.yul\":7615:7711   */\n      tag_427\n      jump\t// in\n    tag_426:\n        /* \"#utility.yul\":7608:7711   */\n      swap4\n      pop\n        /* \"#utility.yul\":7737:7740   */\n      dup4\n        /* \"#utility.yul\":7782:7786   */\n      0x20\n        /* \"#utility.yul\":7774:7780   */\n      dup3\n        /* \"#utility.yul\":7770:7787   */\n      mul\n        /* \"#utility.yul\":7765:7768   */\n      dup6\n        /* \"#utility.yul\":7761:7788   */\n      add\n        /* \"#utility.yul\":7812:7878   */\n      tag_428\n        /* \"#utility.yul\":7872:7877   */\n      dup6\n        /* \"#utility.yul\":7812:7878   */\n      tag_429\n      jump\t// in\n    tag_428:\n        /* \"#utility.yul\":7901:7908   */\n      dup1\n        /* \"#utility.yul\":7932:7933   */\n      0x00\n        /* \"#utility.yul\":7917:8313   */\n    tag_430:\n        /* \"#utility.yul\":7942:7948   */\n      dup6\n        /* \"#utility.yul\":7939:7940   */\n      dup2\n        /* \"#utility.yul\":7936:7949   */\n      lt\n        /* \"#utility.yul\":7917:8313   */\n      iszero\n      tag_432\n      jumpi\n        /* \"#utility.yul\":8013:8022   */\n      dup5\n        /* \"#utility.yul\":8007:8011   */\n      dup5\n        /* \"#utility.yul\":8003:8023   */\n      sub\n        /* \"#utility.yul\":7998:8001   */\n      dup10\n        /* \"#utility.yul\":7991:8024   */\n      mstore\n        /* \"#utility.yul\":8064:8070   */\n      dup2\n        /* \"#utility.yul\":8058:8071   */\n      mload\n        /* \"#utility.yul\":8092:8176   */\n      tag_433\n        /* \"#utility.yul\":8171:8175   */\n      dup6\n        /* \"#utility.yul\":8156:8169   */\n      dup3\n        /* \"#utility.yul\":8092:8176   */\n      tag_405\n      jump\t// in\n    tag_433:\n        /* \"#utility.yul\":8084:8176   */\n      swap5\n      pop\n        /* \"#utility.yul\":8199:8269   */\n      tag_434\n        /* \"#utility.yul\":8262:8268   */\n      dup4\n        /* \"#utility.yul\":8199:8269   */\n      tag_435\n      jump\t// in\n    tag_434:\n        /* \"#utility.yul\":8189:8269   */\n      swap3\n      pop\n        /* \"#utility.yul\":8298:8302   */\n      0x20\n        /* \"#utility.yul\":8293:8296   */\n      dup11\n        /* \"#utility.yul\":8289:8303   */\n      add\n        /* \"#utility.yul\":8282:8303   */\n      swap10\n      pop\n        /* \"#utility.yul\":7977:8313   */\n      pop\n        /* \"#utility.yul\":7964:7965   */\n      0x01\n        /* \"#utility.yul\":7961:7962   */\n      dup2\n        /* \"#utility.yul\":7957:7966   */\n      add\n        /* \"#utility.yul\":7952:7966   */\n      swap1\n      pop\n        /* \"#utility.yul\":7917:8313   */\n      jump(tag_430)\n    tag_432:\n        /* \"#utility.yul\":7921:7935   */\n      pop\n        /* \"#utility.yul\":8329:8333   */\n      dup3\n        /* \"#utility.yul\":8322:8333   */\n      swap8\n      pop\n        /* \"#utility.yul\":8349:8352   */\n      dup8\n        /* \"#utility.yul\":8342:8352   */\n      swap6\n      pop\n        /* \"#utility.yul\":7511:8358   */\n      pop\n      pop\n      pop\n      pop\n      pop\n      swap3\n      swap2\n      pop\n      pop\n      jump\t// out\n        /* \"#utility.yul\":8394:9126   */\n    tag_436:\n      0x00\n        /* \"#utility.yul\":8542:8596   */\n      tag_438\n        /* \"#utility.yul\":8590:8595   */\n      dup3\n        /* \"#utility.yul\":8542:8596   */\n      tag_439\n      jump\t// in\n    tag_438:\n        /* \"#utility.yul\":8612:8698   */\n      tag_440\n        /* \"#utility.yul\":8691:8697   */\n      dup2\n        /* \"#utility.yul\":8686:8689   */\n      dup6\n        /* \"#utility.yul\":8612:8698   */\n      tag_441\n      jump\t// in\n    tag_440:\n        /* \"#utility.yul\":8605:8698   */\n      swap4\n      pop\n        /* \"#utility.yul\":8722:8778   */\n      tag_442\n        /* \"#utility.yul\":8772:8777   */\n      dup4\n        /* \"#utility.yul\":8722:8778   */\n      tag_443\n      jump\t// in\n    tag_442:\n        /* \"#utility.yul\":8801:8808   */\n      dup1\n        /* \"#utility.yul\":8832:8833   */\n      0x00\n        /* \"#utility.yul\":8817:9101   */\n    tag_444:\n        /* \"#utility.yul\":8842:8848   */\n      dup4\n        /* \"#utility.yul\":8839:8840   */\n      dup2\n        /* \"#utility.yul\":8836:8849   */\n      lt\n        /* \"#utility.yul\":8817:9101   */\n      iszero\n      tag_446\n      jumpi\n        /* \"#utility.yul\":8918:8924   */\n      dup2\n        /* \"#utility.yul\":8912:8925   */\n      mload\n        /* \"#utility.yul\":8945:9008   */\n      tag_447\n        /* \"#utility.yul\":9004:9007   */\n      dup9\n        /* \"#utility.yul\":8989:9002   */\n      dup3\n        /* \"#utility.yul\":8945:9008   */\n      tag_409\n      jump\t// in\n    tag_447:\n        /* \"#utility.yul\":8938:9008   */\n      swap8\n      pop\n        /* \"#utility.yul\":9031:9091   */\n      tag_448\n        /* \"#utility.yul\":9084:9090   */\n      dup4\n        /* \"#utility.yul\":9031:9091   */\n      tag_449\n      jump\t// in\n    tag_448:\n        /* \"#utility.yul\":9021:9091   */\n      swap3\n      pop\n        /* \"#utility.yul\":8877:9101   */\n      pop\n        /* \"#utility.yul\":8864:8865   */\n      0x01\n        /* \"#utility.yul\":8861:8862   */\n      dup2\n        /* \"#utility.yul\":8857:8866   */\n      add\n        /* \"#utility.yul\":8852:8866   */\n      swap1\n      pop\n        /* \"#utility.yul\":8817:9101   */\n      jump(tag_444)\n    tag_446:\n        /* \"#utility.yul\":8821:8835   */\n      pop\n        /* \"#utility.yul\":9117:9120   */\n      dup6\n        /* \"#utility.yul\":9110:9120   */\n      swap4\n      pop\n        /* \"#utility.yul\":8518:9126   */\n      pop\n      pop\n      pop\n      swap3\n      swap2\n      pop\n      pop\n      jump\t// out\n        /* \"#utility.yul\":9132:9241   */\n    tag_450:\n        /* \"#utility.yul\":9213:9234   */\n      tag_452\n        /* \"#utility.yul\":9228:9233   */\n      dup2\n        /* \"#utility.yul\":9213:9234   */\n      tag_453\n      jump\t// in\n    tag_452:\n        /* \"#utility.yul\":9208:9211   */\n      dup3\n        /* \"#utility.yul\":9201:9235   */\n      mstore\n        /* \"#utility.yul\":9191:9241   */\n      pop\n      pop\n      jump\t// out\n        /* \"#utility.yul\":9247:9365   */\n    tag_454:\n        /* \"#utility.yul\":9334:9358   */\n      tag_456\n        /* \"#utility.yul\":9352:9357   */\n      dup2\n        /* \"#utility.yul\":9334:9358   */\n      tag_457\n      jump\t// in\n    tag_456:\n        /* \"#utility.yul\":9329:9332   */\n      dup3\n        /* \"#utility.yul\":9322:9359   */\n      mstore\n        /* \"#utility.yul\":9312:9365   */\n      pop\n      pop\n      jump\t// out\n        /* \"#utility.yul\":9371:9542   */\n    tag_458:\n        /* \"#utility.yul\":9478:9535   */\n      tag_460\n        /* \"#utility.yul\":9529:9534   */\n      dup2\n        /* \"#utility.yul\":9478:9535   */\n      tag_461\n      jump\t// in\n    tag_460:\n        /* \"#utility.yul\":9473:9476   */\n      dup3\n        /* \"#utility.yul\":9466:9536   */\n      mstore\n        /* \"#utility.yul\":9456:9542   */\n      pop\n      pop\n      jump\t// out\n        /* \"#utility.yul\":9548:9739   */\n    tag_462:\n        /* \"#utility.yul\":9665:9732   */\n      tag_464\n        /* \"#utility.yul\":9726:9731   */\n      dup2\n        /* \"#utility.yul\":9665:9732   */\n      tag_465\n      jump\t// in\n    tag_464:\n        /* \"#utility.yul\":9660:9663   */\n      dup3\n        /* \"#utility.yul\":9653:9733   */\n      mstore\n        /* \"#utility.yul\":9643:9739   */\n      pop\n      pop\n      jump\t// out\n        /* \"#utility.yul\":9745:9916   */\n    tag_466:\n        /* \"#utility.yul\":9852:9909   */\n      tag_468\n        /* \"#utility.yul\":9903:9908   */\n      dup2\n        /* \"#utility.yul\":9852:9909   */\n      tag_469\n      jump\t// in\n    tag_468:\n        /* \"#utility.yul\":9847:9850   */\n      dup3\n        /* \"#utility.yul\":9840:9910   */\n      mstore\n        /* \"#utility.yul\":9830:9916   */\n      pop\n      pop\n      jump\t// out\n        /* \"#utility.yul\":9922:10266   */\n    tag_408:\n      0x00\n        /* \"#utility.yul\":10028:10067   */\n      tag_471\n        /* \"#utility.yul\":10061:10066   */\n      dup3\n        /* \"#utility.yul\":10028:10067   */\n      tag_472\n      jump\t// in\n    tag_471:\n        /* \"#utility.yul\":10083:10144   */\n      tag_473\n        /* \"#utility.yul\":10137:10143   */\n      dup2\n        /* \"#utility.yul\":10132:10135   */\n      dup6\n        /* \"#utility.yul\":10083:10144   */\n      tag_474\n      jump\t// in\n    tag_473:\n        /* \"#utility.yul\":10076:10144   */\n      swap4\n      pop\n        /* \"#utility.yul\":10153:10205   */\n      tag_475\n        /* \"#utility.yul\":10198:10204   */\n      dup2\n        /* \"#utility.yul\":10193:10196   */\n      dup6\n        /* \"#utility.yul\":10186:10190   */\n      0x20\n        /* \"#utility.yul\":10179:10184   */\n      dup7\n        /* \"#utility.yul\":10175:10191   */\n      add\n        /* \"#utility.yul\":10153:10205   */\n      tag_476\n      jump\t// in\n    tag_475:\n        /* \"#utility.yul\":10230:10259   */\n      tag_477\n        /* \"#utility.yul\":10252:10258   */\n      dup2\n        /* \"#utility.yul\":10230:10259   */\n      tag_478\n      jump\t// in\n    tag_477:\n        /* \"#utility.yul\":10225:10228   */\n      dup5\n        /* \"#utility.yul\":10221:10260   */\n      add\n        /* \"#utility.yul\":10214:10260   */\n      swap2\n      pop\n        /* \"#utility.yul\":10004:10266   */\n      pop\n      swap3\n      swap2\n      pop\n      pop\n      jump\t// out\n        /* \"#utility.yul\":10272:10636   */\n    tag_479:\n      0x00\n        /* \"#utility.yul\":10388:10427   */\n      tag_481\n        /* \"#utility.yul\":10421:10426   */\n      dup3\n        /* \"#utility.yul\":10388:10427   */\n      tag_472\n      jump\t// in\n    tag_481:\n        /* \"#utility.yul\":10443:10514   */\n      tag_482\n        /* \"#utility.yul\":10507:10513   */\n      dup2\n        /* \"#utility.yul\":10502:10505   */\n      dup6\n        /* \"#utility.yul\":10443:10514   */\n      tag_483\n      jump\t// in\n    tag_482:\n        /* \"#utility.yul\":10436:10514   */\n      swap4\n      pop\n        /* \"#utility.yul\":10523:10575   */\n      tag_484\n        /* \"#utility.yul\":10568:10574   */\n      dup2\n        /* \"#utility.yul\":10563:10566   */\n      dup6\n        /* \"#utility.yul\":10556:10560   */\n      0x20\n        /* \"#utility.yul\":10549:10554   */\n      dup7\n        /* \"#utility.yul\":10545:10561   */\n      add\n        /* \"#utility.yul\":10523:10575   */\n      tag_476\n      jump\t// in\n    tag_484:\n        /* \"#utility.yul\":10600:10629   */\n      tag_485\n        /* \"#utility.yul\":10622:10628   */\n      dup2\n        /* \"#utility.yul\":10600:10629   */\n      tag_478\n      jump\t// in\n    tag_485:\n        /* \"#utility.yul\":10595:10598   */\n      dup5\n        /* \"#utility.yul\":10591:10630   */\n      add\n        /* \"#utility.yul\":10584:10630   */\n      swap2\n      pop\n        /* \"#utility.yul\":10364:10636   */\n      pop\n      swap3\n      swap2\n      pop\n      pop\n      jump\t// out\n        /* \"#utility.yul\":10642:11019   */\n    tag_486:\n      0x00\n        /* \"#utility.yul\":10776:10815   */\n      tag_488\n        /* \"#utility.yul\":10809:10814   */\n      dup3\n        /* \"#utility.yul\":10776:10815   */\n      tag_472\n      jump\t// in\n    tag_488:\n        /* \"#utility.yul\":10831:10920   */\n      tag_489\n        /* \"#utility.yul\":10913:10919   */\n      dup2\n        /* \"#utility.yul\":10908:10911   */\n      dup6\n        /* \"#utility.yul\":10831:10920   */\n      tag_490\n      jump\t// in\n    tag_489:\n        /* \"#utility.yul\":10824:10920   */\n      swap4\n      pop\n        /* \"#utility.yul\":10929:10981   */\n      tag_491\n        /* \"#utility.yul\":10974:10980   */\n      dup2\n        /* \"#utility.yul\":10969:10972   */\n      dup6\n        /* \"#utility.yul\":10962:10966   */\n      0x20\n        /* \"#utility.yul\":10955:10960   */\n      dup7\n        /* \"#utility.yul\":10951:10967   */\n      add\n        /* \"#utility.yul\":10929:10981   */\n      tag_476\n      jump\t// in\n    tag_491:\n        /* \"#utility.yul\":11006:11012   */\n      dup1\n        /* \"#utility.yul\":11001:11004   */\n      dup5\n        /* \"#utility.yul\":10997:11013   */\n      add\n        /* \"#utility.yul\":10990:11013   */\n      swap2\n      pop\n        /* \"#utility.yul\":10752:11019   */\n      pop\n      swap3\n      swap2\n      pop\n      pop\n      jump\t// out\n        /* \"#utility.yul\":11025:11391   */\n    tag_492:\n      0x00\n        /* \"#utility.yul\":11188:11255   */\n      tag_494\n        /* \"#utility.yul\":11252:11254   */\n      0x20\n        /* \"#utility.yul\":11247:11250   */\n      dup4\n        /* \"#utility.yul\":11188:11255   */\n      tag_483\n      jump\t// in\n    tag_494:\n        /* \"#utility.yul\":11181:11255   */\n      swap2\n      pop\n        /* \"#utility.yul\":11264:11357   */\n      tag_495\n        /* \"#utility.yul\":11353:11356   */\n      dup3\n        /* \"#utility.yul\":11264:11357   */\n      tag_496\n      jump\t// in\n    tag_495:\n        /* \"#utility.yul\":11382:11384   */\n      0x20\n        /* \"#utility.yul\":11377:11380   */\n      dup3\n        /* \"#utility.yul\":11373:11385   */\n      add\n        /* \"#utility.yul\":11366:11385   */\n      swap1\n      pop\n        /* \"#utility.yul\":11171:11391   */\n      swap2\n      swap1\n      pop\n      jump\t// out\n        /* \"#utility.yul\":11397:11797   */\n    tag_497:\n      0x00\n        /* \"#utility.yul\":11578:11662   */\n      tag_499\n        /* \"#utility.yul\":11660:11661   */\n      0x08\n        /* \"#utility.yul\":11655:11658   */\n      dup4\n        /* \"#utility.yul\":11578:11662   */\n      tag_490\n      jump\t// in\n    tag_499:\n        /* \"#utility.yul\":11571:11662   */\n      swap2\n      pop\n        /* \"#utility.yul\":11671:11764   */\n      tag_500\n        /* \"#utility.yul\":11760:11763   */\n      dup3\n        /* \"#utility.yul\":11671:11764   */\n      tag_501\n      jump\t// in\n    tag_500:\n        /* \"#utility.yul\":11789:11790   */\n      0x08\n        /* \"#utility.yul\":11784:11787   */\n      dup3\n        /* \"#utility.yul\":11780:11791   */\n      add\n        /* \"#utility.yul\":11773:11791   */\n      swap1\n      pop\n        /* \"#utility.yul\":11561:11797   */\n      swap2\n      swap1\n      pop\n      jump\t// out\n        /* \"#utility.yul\":11803:12169   */\n    tag_502:\n      0x00\n        /* \"#utility.yul\":11966:12033   */\n      tag_504\n        /* \"#utility.yul\":12030:12032   */\n      0x36\n        /* \"#utility.yul\":12025:12028   */\n      dup4\n        /* \"#utility.yul\":11966:12033   */\n      tag_483\n      jump\t// in\n    tag_504:\n        /* \"#utility.yul\":11959:12033   */\n      swap2\n      pop\n        /* \"#utility.yul\":12042:12135   */\n      tag_505\n        /* \"#utility.yul\":12131:12134   */\n      dup3\n        /* \"#utility.yul\":12042:12135   */\n      tag_506\n      jump\t// in\n    tag_505:\n        /* \"#utility.yul\":12160:12162   */\n      0x40\n        /* \"#utility.yul\":12155:12158   */\n      dup3\n        /* \"#utility.yul\":12151:12163   */\n      add\n        /* \"#utility.yul\":12144:12163   */\n      swap1\n      pop\n        /* \"#utility.yul\":11949:12169   */\n      swap2\n      swap1\n      pop\n      jump\t// out\n        /* \"#utility.yul\":12175:12541   */\n    tag_507:\n      0x00\n        /* \"#utility.yul\":12338:12405   */\n      tag_509\n        /* \"#utility.yul\":12402:12404   */\n      0x1b\n        /* \"#utility.yul\":12397:12400   */\n      dup4\n        /* \"#utility.yul\":12338:12405   */\n      tag_483\n      jump\t// in\n    tag_509:\n        /* \"#utility.yul\":12331:12405   */\n      swap2\n      pop\n        /* \"#utility.yul\":12414:12507   */\n      tag_510\n        /* \"#utility.yul\":12503:12506   */\n      dup3\n        /* \"#utility.yul\":12414:12507   */\n      tag_511\n      jump\t// in\n    tag_510:\n        /* \"#utility.yul\":12532:12534   */\n      0x20\n        /* \"#utility.yul\":12527:12530   */\n      dup3\n        /* \"#utility.yul\":12523:12535   */\n      add\n        /* \"#utility.yul\":12516:12535   */\n      swap1\n      pop\n        /* \"#utility.yul\":12321:12541   */\n      swap2\n      swap1\n      pop\n      jump\t// out\n        /* \"#utility.yul\":12547:12913   */\n    tag_512:\n      0x00\n        /* \"#utility.yul\":12710:12777   */\n      tag_514\n        /* \"#utility.yul\":12774:12776   */\n      0x23\n        /* \"#utility.yul\":12769:12772   */\n      dup4\n        /* \"#utility.yul\":12710:12777   */\n      tag_483\n      jump\t// in\n    tag_514:\n        /* \"#utility.yul\":12703:12777   */\n      swap2\n      pop\n        /* \"#utility.yul\":12786:12879   */\n      tag_515\n        /* \"#utility.yul\":12875:12878   */\n      dup3\n        /* \"#utility.yul\":12786:12879   */\n      tag_516\n      jump\t// in\n    tag_515:\n        /* \"#utility.yul\":12904:12906   */\n      0x40\n        /* \"#utility.yul\":12899:12902   */\n      dup3\n        /* \"#utility.yul\":12895:12907   */\n      add\n        /* \"#utility.yul\":12888:12907   */\n      swap1\n      pop\n        /* \"#utility.yul\":12693:12913   */\n      swap2\n      swap1\n      pop\n      jump\t// out\n        /* \"#utility.yul\":12919:13319   */\n    tag_517:\n      0x00\n        /* \"#utility.yul\":13100:13184   */\n      tag_519\n        /* \"#utility.yul\":13182:13183   */\n      0x01\n        /* \"#utility.yul\":13177:13180   */\n      dup4\n        /* \"#utility.yul\":13100:13184   */\n      tag_490\n      jump\t// in\n    tag_519:\n        /* \"#utility.yul\":13093:13184   */\n      swap2\n      pop\n        /* \"#utility.yul\":13193:13286   */\n      tag_520\n        /* \"#utility.yul\":13282:13285   */\n      dup3\n        /* \"#utility.yul\":13193:13286   */\n      tag_521\n      jump\t// in\n    tag_520:\n        /* \"#utility.yul\":13311:13312   */\n      0x01\n        /* \"#utility.yul\":13306:13309   */\n      dup3\n        /* \"#utility.yul\":13302:13313   */\n      add\n        /* \"#utility.yul\":13295:13313   */\n      swap1\n      pop\n        /* \"#utility.yul\":13083:13319   */\n      swap2\n      swap1\n      pop\n      jump\t// out\n        /* \"#utility.yul\":13325:13727   */\n    tag_522:\n      0x00\n        /* \"#utility.yul\":13506:13591   */\n      tag_524\n        /* \"#utility.yul\":13588:13590   */\n      0x30\n        /* \"#utility.yul\":13583:13586   */\n      dup4\n        /* \"#utility.yul\":13506:13591   */\n      tag_490\n      jump\t// in\n    tag_524:\n        /* \"#utility.yul\":13499:13591   */\n      swap2\n      pop\n        /* \"#utility.yul\":13600:13693   */\n      tag_525\n        /* \"#utility.yul\":13689:13692   */\n      dup3\n        /* \"#utility.yul\":13600:13693   */\n      tag_526\n      jump\t// in\n    tag_525:\n        /* \"#utility.yul\":13718:13720   */\n      0x30\n        /* \"#utility.yul\":13713:13716   */\n      dup3\n        /* \"#utility.yul\":13709:13721   */\n      add\n        /* \"#utility.yul\":13702:13721   */\n      swap1\n      pop\n        /* \"#utility.yul\":13489:13727   */\n      swap2\n      swap1\n      pop\n      jump\t// out\n        /* \"#utility.yul\":13733:14099   */\n    tag_527:\n      0x00\n        /* \"#utility.yul\":13896:13963   */\n      tag_529\n        /* \"#utility.yul\":13960:13962   */\n      0x1f\n        /* \"#utility.yul\":13955:13958   */\n      dup4\n        /* \"#utility.yul\":13896:13963   */\n      tag_483\n      jump\t// in\n    tag_529:\n        /* \"#utility.yul\":13889:13963   */\n      swap2\n      pop\n        /* \"#utility.yul\":13972:14065   */\n      tag_530\n        /* \"#utility.yul\":14061:14064   */\n      dup3\n        /* \"#utility.yul\":13972:14065   */\n      tag_531\n      jump\t// in\n    tag_530:\n        /* \"#utility.yul\":14090:14092   */\n      0x20\n        /* \"#utility.yul\":14085:14088   */\n      dup3\n        /* \"#utility.yul\":14081:14093   */\n      add\n        /* \"#utility.yul\":14074:14093   */\n      swap1\n      pop\n        /* \"#utility.yul\":13879:14099   */\n      swap2\n      swap1\n      pop\n      jump\t// out\n        /* \"#utility.yul\":14105:14507   */\n    tag_532:\n      0x00\n        /* \"#utility.yul\":14286:14371   */\n      tag_534\n        /* \"#utility.yul\":14368:14370   */\n      0x17\n        /* \"#utility.yul\":14363:14366   */\n      dup4\n        /* \"#utility.yul\":14286:14371   */\n      tag_490\n      jump\t// in\n    tag_534:\n        /* \"#utility.yul\":14279:14371   */\n      swap2\n      pop\n        /* \"#utility.yul\":14380:14473   */\n      tag_535\n        /* \"#utility.yul\":14469:14472   */\n      dup3\n        /* \"#utility.yul\":14380:14473   */\n      tag_536\n      jump\t// in\n    tag_535:\n        /* \"#utility.yul\":14498:14500   */\n      0x17\n        /* \"#utility.yul\":14493:14496   */\n      dup3\n        /* \"#utility.yul\":14489:14501   */\n      add\n        /* \"#utility.yul\":14482:14501   */\n      swap1\n      pop\n        /* \"#utility.yul\":14269:14507   */\n      swap2\n      swap1\n      pop\n      jump\t// out\n        /* \"#utility.yul\":14513:14915   */\n    tag_537:\n      0x00\n        /* \"#utility.yul\":14694:14779   */\n      tag_539\n        /* \"#utility.yul\":14776:14778   */\n      0x11\n        /* \"#utility.yul\":14771:14774   */\n      dup4\n        /* \"#utility.yul\":14694:14779   */\n      tag_490\n      jump\t// in\n    tag_539:\n        /* \"#utility.yul\":14687:14779   */\n      swap2\n      pop\n        /* \"#utility.yul\":14788:14881   */\n      tag_540\n        /* \"#utility.yul\":14877:14880   */\n      dup3\n        /* \"#utility.yul\":14788:14881   */\n      tag_541\n      jump\t// in\n    tag_540:\n        /* \"#utility.yul\":14906:14908   */\n      0x11\n        /* \"#utility.yul\":14901:14904   */\n      dup3\n        /* \"#utility.yul\":14897:14909   */\n      add\n        /* \"#utility.yul\":14890:14909   */\n      swap1\n      pop\n        /* \"#utility.yul\":14677:14915   */\n      swap2\n      swap1\n      pop\n      jump\t// out\n        /* \"#utility.yul\":14921:15287   */\n    tag_542:\n      0x00\n        /* \"#utility.yul\":15084:15151   */\n      tag_544\n        /* \"#utility.yul\":15148:15150   */\n      0x2f\n        /* \"#utility.yul\":15143:15146   */\n      dup4\n        /* \"#utility.yul\":15084:15151   */\n      tag_483\n      jump\t// in\n    tag_544:\n        /* \"#utility.yul\":15077:15151   */\n      swap2\n      pop\n        /* \"#utility.yul\":15160:15253   */\n      tag_545\n        /* \"#utility.yul\":15249:15252   */\n      dup3\n        /* \"#utility.yul\":15160:15253   */\n      tag_546\n      jump\t// in\n    tag_545:\n        /* \"#utility.yul\":15278:15280   */\n      0x40\n        /* \"#utility.yul\":15273:15276   */\n      dup3\n        /* \"#utility.yul\":15269:15281   */\n      add\n        /* \"#utility.yul\":15262:15281   */\n      swap1\n      pop\n        /* \"#utility.yul\":15067:15287   */\n      swap2\n      swap1\n      pop\n      jump\t// out\n        /* \"#utility.yul\":15293:15401   */\n    tag_412:\n        /* \"#utility.yul\":15370:15394   */\n      tag_548\n        /* \"#utility.yul\":15388:15393   */\n      dup2\n        /* \"#utility.yul\":15370:15394   */\n      tag_549\n      jump\t// in\n    tag_548:\n        /* \"#utility.yul\":15365:15368   */\n      dup3\n        /* \"#utility.yul\":15358:15395   */\n      mstore\n        /* \"#utility.yul\":15348:15401   */\n      pop\n      pop\n      jump\t// out\n        /* \"#utility.yul\":15407:15525   */\n    tag_550:\n        /* \"#utility.yul\":15494:15518   */\n      tag_552\n        /* \"#utility.yul\":15512:15517   */\n      dup2\n        /* \"#utility.yul\":15494:15518   */\n      tag_549\n      jump\t// in\n    tag_552:\n        /* \"#utility.yul\":15489:15492   */\n      dup3\n        /* \"#utility.yul\":15482:15519   */\n      mstore\n        /* \"#utility.yul\":15472:15525   */\n      pop\n      pop\n      jump\t// out\n        /* \"#utility.yul\":15531:15688   */\n    tag_553:\n        /* \"#utility.yul\":15636:15681   */\n      tag_555\n        /* \"#utility.yul\":15656:15680   */\n      tag_556\n        /* \"#utility.yul\":15674:15679   */\n      dup3\n        /* \"#utility.yul\":15656:15680   */\n      tag_549\n      jump\t// in\n    tag_556:\n        /* \"#utility.yul\":15636:15681   */\n      tag_557\n      jump\t// in\n    tag_555:\n        /* \"#utility.yul\":15631:15634   */\n      dup3\n        /* \"#utility.yul\":15624:15682   */\n      mstore\n        /* \"#utility.yul\":15614:15688   */\n      pop\n      pop\n      jump\t// out\n        /* \"#utility.yul\":15694:16889   */\n    tag_214:\n      0x00\n        /* \"#utility.yul\":16159:16307   */\n      tag_559\n        /* \"#utility.yul\":16303:16306   */\n      dup3\n        /* \"#utility.yul\":16159:16307   */\n      tag_497\n      jump\t// in\n    tag_559:\n        /* \"#utility.yul\":16152:16307   */\n      swap2\n      pop\n        /* \"#utility.yul\":16317:16392   */\n      tag_560\n        /* \"#utility.yul\":16388:16391   */\n      dup3\n        /* \"#utility.yul\":16379:16385   */\n      dup6\n        /* \"#utility.yul\":16317:16392   */\n      tag_417\n      jump\t// in\n    tag_560:\n        /* \"#utility.yul\":16417:16419   */\n      0x14\n        /* \"#utility.yul\":16412:16415   */\n      dup3\n        /* \"#utility.yul\":16408:16420   */\n      add\n        /* \"#utility.yul\":16401:16420   */\n      swap2\n      pop\n        /* \"#utility.yul\":16437:16585   */\n      tag_561\n        /* \"#utility.yul\":16581:16584   */\n      dup3\n        /* \"#utility.yul\":16437:16585   */\n      tag_522\n      jump\t// in\n    tag_561:\n        /* \"#utility.yul\":16430:16585   */\n      swap2\n      pop\n        /* \"#utility.yul\":16595:16670   */\n      tag_562\n        /* \"#utility.yul\":16666:16669   */\n      dup3\n        /* \"#utility.yul\":16657:16663   */\n      dup5\n        /* \"#utility.yul\":16595:16670   */\n      tag_553\n      jump\t// in\n    tag_562:\n        /* \"#utility.yul\":16695:16697   */\n      0x20\n        /* \"#utility.yul\":16690:16693   */\n      dup3\n        /* \"#utility.yul\":16686:16698   */\n      add\n        /* \"#utility.yul\":16679:16698   */\n      swap2\n      pop\n        /* \"#utility.yul\":16715:16863   */\n      tag_563\n        /* \"#utility.yul\":16859:16862   */\n      dup3\n        /* \"#utility.yul\":16715:16863   */\n      tag_517\n      jump\t// in\n    tag_563:\n        /* \"#utility.yul\":16708:16863   */\n      swap2\n      pop\n        /* \"#utility.yul\":16880:16883   */\n      dup2\n        /* \"#utility.yul\":16873:16883   */\n      swap1\n      pop\n        /* \"#utility.yul\":16141:16889   */\n      swap4\n      swap3\n      pop\n      pop\n      pop\n      jump\t// out\n        /* \"#utility.yul\":16895:17862   */\n    tag_256:\n      0x00\n        /* \"#utility.yul\":17299:17447   */\n      tag_565\n        /* \"#utility.yul\":17443:17446   */\n      dup3\n        /* \"#utility.yul\":17299:17447   */\n      tag_532\n      jump\t// in\n    tag_565:\n        /* \"#utility.yul\":17292:17447   */\n      swap2\n      pop\n        /* \"#utility.yul\":17464:17559   */\n      tag_566\n        /* \"#utility.yul\":17555:17558   */\n      dup3\n        /* \"#utility.yul\":17546:17552   */\n      dup6\n        /* \"#utility.yul\":17464:17559   */\n      tag_486\n      jump\t// in\n    tag_566:\n        /* \"#utility.yul\":17457:17559   */\n      swap2\n      pop\n        /* \"#utility.yul\":17576:17724   */\n      tag_567\n        /* \"#utility.yul\":17720:17723   */\n      dup3\n        /* \"#utility.yul\":17576:17724   */\n      tag_537\n      jump\t// in\n    tag_567:\n        /* \"#utility.yul\":17569:17724   */\n      swap2\n      pop\n        /* \"#utility.yul\":17741:17836   */\n      tag_568\n        /* \"#utility.yul\":17832:17835   */\n      dup3\n        /* \"#utility.yul\":17823:17829   */\n      dup5\n        /* \"#utility.yul\":17741:17836   */\n      tag_486\n      jump\t// in\n    tag_568:\n        /* \"#utility.yul\":17734:17836   */\n      swap2\n      pop\n        /* \"#utility.yul\":17853:17856   */\n      dup2\n        /* \"#utility.yul\":17846:17856   */\n      swap1\n      pop\n        /* \"#utility.yul\":17281:17862   */\n      swap4\n      swap3\n      pop\n      pop\n      pop\n      jump\t// out\n        /* \"#utility.yul\":17868:18090   */\n    tag_114:\n      0x00\n        /* \"#utility.yul\":17999:18001   */\n      0x20\n        /* \"#utility.yul\":17988:17997   */\n      dup3\n        /* \"#utility.yul\":17984:18002   */\n      add\n        /* \"#utility.yul\":17976:18002   */\n      swap1\n      pop\n        /* \"#utility.yul\":18012:18083   */\n      tag_570\n        /* \"#utility.yul\":18080:18081   */\n      0x00\n        /* \"#utility.yul\":18069:18078   */\n      dup4\n        /* \"#utility.yul\":18065:18082   */\n      add\n        /* \"#utility.yul\":18056:18062   */\n      dup5\n        /* \"#utility.yul\":18012:18083   */\n      tag_413\n      jump\t// in\n    tag_570:\n        /* \"#utility.yul\":17966:18090   */\n      swap3\n      swap2\n      pop\n      pop\n      jump\t// out\n        /* \"#utility.yul\":18096:18428   */\n    tag_207:\n      0x00\n        /* \"#utility.yul\":18255:18257   */\n      0x40\n        /* \"#utility.yul\":18244:18253   */\n      dup3\n        /* \"#utility.yul\":18240:18258   */\n      add\n        /* \"#utility.yul\":18232:18258   */\n      swap1\n      pop\n        /* \"#utility.yul\":18268:18339   */\n      tag_572\n        /* \"#utility.yul\":18336:18337   */\n      0x00\n        /* \"#utility.yul\":18325:18334   */\n      dup4\n        /* \"#utility.yul\":18321:18338   */\n      add\n        /* \"#utility.yul\":18312:18318   */\n      dup6\n        /* \"#utility.yul\":18268:18339   */\n      tag_413\n      jump\t// in\n    tag_572:\n        /* \"#utility.yul\":18349:18421   */\n      tag_573\n        /* \"#utility.yul\":18417:18419   */\n      0x20\n        /* \"#utility.yul\":18406:18415   */\n      dup4\n        /* \"#utility.yul\":18402:18420   */\n      add\n        /* \"#utility.yul\":18393:18399   */\n      dup5\n        /* \"#utility.yul\":18349:18421   */\n      tag_550\n      jump\t// in\n    tag_573:\n        /* \"#utility.yul\":18222:18428   */\n      swap4\n      swap3\n      pop\n      pop\n      pop\n      jump\t// out\n        /* \"#utility.yul\":18434:18847   */\n    tag_73:\n      0x00\n        /* \"#utility.yul\":18635:18637   */\n      0x20\n        /* \"#utility.yul\":18624:18633   */\n      dup3\n        /* \"#utility.yul\":18620:18638   */\n      add\n        /* \"#utility.yul\":18612:18638   */\n      swap1\n      pop\n        /* \"#utility.yul\":18684:18693   */\n      dup2\n        /* \"#utility.yul\":18678:18682   */\n      dup2\n        /* \"#utility.yul\":18674:18694   */\n      sub\n        /* \"#utility.yul\":18670:18671   */\n      0x00\n        /* \"#utility.yul\":18659:18668   */\n      dup4\n        /* \"#utility.yul\":18655:18672   */\n      add\n        /* \"#utility.yul\":18648:18695   */\n      mstore\n        /* \"#utility.yul\":18712:18840   */\n      tag_575\n        /* \"#utility.yul\":18835:18839   */\n      dup2\n        /* \"#utility.yul\":18826:18832   */\n      dup5\n        /* \"#utility.yul\":18712:18840   */\n      tag_422\n      jump\t// in\n    tag_575:\n        /* \"#utility.yul\":18704:18840   */\n      swap1\n      pop\n        /* \"#utility.yul\":18602:18847   */\n      swap3\n      swap2\n      pop\n      pop\n      jump\t// out\n        /* \"#utility.yul\":18853:19527   */\n    tag_243:\n      0x00\n        /* \"#utility.yul\":19132:19134   */\n      0x40\n        /* \"#utility.yul\":19121:19130   */\n      dup3\n        /* \"#utility.yul\":19117:19135   */\n      add\n        /* \"#utility.yul\":19109:19135   */\n      swap1\n      pop\n        /* \"#utility.yul\":19181:19190   */\n      dup2\n        /* \"#utility.yul\":19175:19179   */\n      dup2\n        /* \"#utility.yul\":19171:19191   */\n      sub\n        /* \"#utility.yul\":19167:19168   */\n      0x00\n        /* \"#utility.yul\":19156:19165   */\n      dup4\n        /* \"#utility.yul\":19152:19169   */\n      add\n        /* \"#utility.yul\":19145:19192   */\n      mstore\n        /* \"#utility.yul\":19209:19317   */\n      tag_577\n        /* \"#utility.yul\":19312:19316   */\n      dup2\n        /* \"#utility.yul\":19303:19309   */\n      dup6\n        /* \"#utility.yul\":19209:19317   */\n      tag_436\n      jump\t// in\n    tag_577:\n        /* \"#utility.yul\":19201:19317   */\n      swap1\n      pop\n        /* \"#utility.yul\":19364:19373   */\n      dup2\n        /* \"#utility.yul\":19358:19362   */\n      dup2\n        /* \"#utility.yul\":19354:19374   */\n      sub\n        /* \"#utility.yul\":19349:19351   */\n      0x20\n        /* \"#utility.yul\":19338:19347   */\n      dup4\n        /* \"#utility.yul\":19334:19352   */\n      add\n        /* \"#utility.yul\":19327:19375   */\n      mstore\n        /* \"#utility.yul\":19392:19520   */\n      tag_578\n        /* \"#utility.yul\":19515:19519   */\n      dup2\n        /* \"#utility.yul\":19506:19512   */\n      dup5\n        /* \"#utility.yul\":19392:19520   */\n      tag_422\n      jump\t// in\n    tag_578:\n        /* \"#utility.yul\":19384:19520   */\n      swap1\n      pop\n        /* \"#utility.yul\":19099:19527   */\n      swap4\n      swap3\n      pop\n      pop\n      pop\n      jump\t// out\n        /* \"#utility.yul\":19533:19743   */\n    tag_37:\n      0x00\n        /* \"#utility.yul\":19658:19660   */\n      0x20\n        /* \"#utility.yul\":19647:19656   */\n      dup3\n        /* \"#utility.yul\":19643:19661   */\n      add\n        /* \"#utility.yul\":19635:19661   */\n      swap1\n      pop\n        /* \"#utility.yul\":19671:19736   */\n      tag_580\n        /* \"#utility.yul\":19733:19734   */\n      0x00\n        /* \"#utility.yul\":19722:19731   */\n      dup4\n        /* \"#utility.yul\":19718:19735   */\n      add\n        /* \"#utility.yul\":19709:19715   */\n      dup5\n        /* \"#utility.yul\":19671:19736   */\n      tag_450\n      jump\t// in\n    tag_580:\n        /* \"#utility.yul\":19625:19743   */\n      swap3\n      swap2\n      pop\n      pop\n      jump\t// out\n        /* \"#utility.yul\":19749:19971   */\n    tag_43:\n      0x00\n        /* \"#utility.yul\":19880:19882   */\n      0x20\n        /* \"#utility.yul\":19869:19878   */\n      dup3\n        /* \"#utility.yul\":19865:19883   */\n      add\n        /* \"#utility.yul\":19857:19883   */\n      swap1\n      pop\n        /* \"#utility.yul\":19893:19964   */\n      tag_582\n        /* \"#utility.yul\":19961:19962   */\n      0x00\n        /* \"#utility.yul\":19950:19959   */\n      dup4\n        /* \"#utility.yul\":19946:19963   */\n      add\n        /* \"#utility.yul\":19937:19943   */\n      dup5\n        /* \"#utility.yul\":19893:19964   */\n      tag_454\n      jump\t// in\n    tag_582:\n        /* \"#utility.yul\":19847:19971   */\n      swap3\n      swap2\n      pop\n      pop\n      jump\t// out\n        /* \"#utility.yul\":19977:20239   */\n    tag_83:\n      0x00\n        /* \"#utility.yul\":20128:20130   */\n      0x20\n        /* \"#utility.yul\":20117:20126   */\n      dup3\n        /* \"#utility.yul\":20113:20131   */\n      add\n        /* \"#utility.yul\":20105:20131   */\n      swap1\n      pop\n        /* \"#utility.yul\":20141:20232   */\n      tag_584\n        /* \"#utility.yul\":20229:20230   */\n      0x00\n        /* \"#utility.yul\":20218:20227   */\n      dup4\n        /* \"#utility.yul\":20214:20231   */\n      add\n        /* \"#utility.yul\":20205:20211   */\n      dup5\n        /* \"#utility.yul\":20141:20232   */\n      tag_458\n      jump\t// in\n    tag_584:\n        /* \"#utility.yul\":20095:20239   */\n      swap3\n      swap2\n      pop\n      pop\n      jump\t// out\n        /* \"#utility.yul\":20245:20527   */\n    tag_69:\n      0x00\n        /* \"#utility.yul\":20406:20408   */\n      0x20\n        /* \"#utility.yul\":20395:20404   */\n      dup3\n        /* \"#utility.yul\":20391:20409   */\n      add\n        /* \"#utility.yul\":20383:20409   */\n      swap1\n      pop\n        /* \"#utility.yul\":20419:20520   */\n      tag_586\n        /* \"#utility.yul\":20517:20518   */\n      0x00\n        /* \"#utility.yul\":20506:20515   */\n      dup4\n        /* \"#utility.yul\":20502:20519   */\n      add\n        /* \"#utility.yul\":20493:20499   */\n      dup5\n        /* \"#utility.yul\":20419:20520   */\n      tag_462\n      jump\t// in\n    tag_586:\n        /* \"#utility.yul\":20373:20527   */\n      swap3\n      swap2\n      pop\n      pop\n      jump\t// out\n        /* \"#utility.yul\":20533:20795   */\n    tag_110:\n      0x00\n        /* \"#utility.yul\":20684:20686   */\n      0x20\n        /* \"#utility.yul\":20673:20682   */\n      dup3\n        /* \"#utility.yul\":20669:20687   */\n      add\n        /* \"#utility.yul\":20661:20687   */\n      swap1\n      pop\n        /* \"#utility.yul\":20697:20788   */\n      tag_588\n        /* \"#utility.yul\":20785:20786   */\n      0x00\n        /* \"#utility.yul\":20774:20783   */\n      dup4\n        /* \"#utility.yul\":20770:20787   */\n      add\n        /* \"#utility.yul\":20761:20767   */\n      dup5\n        /* \"#utility.yul\":20697:20788   */\n      tag_466\n      jump\t// in\n    tag_588:\n        /* \"#utility.yul\":20651:20795   */\n      swap3\n      swap2\n      pop\n      pop\n      jump\t// out\n        /* \"#utility.yul\":20801:21114   */\n    tag_217:\n      0x00\n        /* \"#utility.yul\":20952:20954   */\n      0x20\n        /* \"#utility.yul\":20941:20950   */\n      dup3\n        /* \"#utility.yul\":20937:20955   */\n      add\n        /* \"#utility.yul\":20929:20955   */\n      swap1\n      pop\n        /* \"#utility.yul\":21001:21010   */\n      dup2\n        /* \"#utility.yul\":20995:20999   */\n      dup2\n        /* \"#utility.yul\":20991:21011   */\n      sub\n        /* \"#utility.yul\":20987:20988   */\n      0x00\n        /* \"#utility.yul\":20976:20985   */\n      dup4\n        /* \"#utility.yul\":20972:20989   */\n      add\n        /* \"#utility.yul\":20965:21012   */\n      mstore\n        /* \"#utility.yul\":21029:21107   */\n      tag_590\n        /* \"#utility.yul\":21102:21106   */\n      dup2\n        /* \"#utility.yul\":21093:21099   */\n      dup5\n        /* \"#utility.yul\":21029:21107   */\n      tag_479\n      jump\t// in\n    tag_590:\n        /* \"#utility.yul\":21021:21107   */\n      swap1\n      pop\n        /* \"#utility.yul\":20919:21114   */\n      swap3\n      swap2\n      pop\n      pop\n      jump\t// out\n        /* \"#utility.yul\":21120:21539   */\n    tag_308:\n      0x00\n        /* \"#utility.yul\":21324:21326   */\n      0x20\n        /* \"#utility.yul\":21313:21322   */\n      dup3\n        /* \"#utility.yul\":21309:21327   */\n      add\n        /* \"#utility.yul\":21301:21327   */\n      swap1\n      pop\n        /* \"#utility.yul\":21373:21382   */\n      dup2\n        /* \"#utility.yul\":21367:21371   */\n      dup2\n        /* \"#utility.yul\":21363:21383   */\n      sub\n        /* \"#utility.yul\":21359:21360   */\n      0x00\n        /* \"#utility.yul\":21348:21357   */\n      dup4\n        /* \"#utility.yul\":21344:21361   */\n      add\n        /* \"#utility.yul\":21337:21384   */\n      mstore\n        /* \"#utility.yul\":21401:21532   */\n      tag_592\n        /* \"#utility.yul\":21527:21531   */\n      dup2\n        /* \"#utility.yul\":21401:21532   */\n      tag_492\n      jump\t// in\n    tag_592:\n        /* \"#utility.yul\":21393:21532   */\n      swap1\n      pop\n        /* \"#utility.yul\":21291:21539   */\n      swap2\n      swap1\n      pop\n      jump\t// out\n        /* \"#utility.yul\":21545:21964   */\n    tag_179:\n      0x00\n        /* \"#utility.yul\":21749:21751   */\n      0x20\n        /* \"#utility.yul\":21738:21747   */\n      dup3\n        /* \"#utility.yul\":21734:21752   */\n      add\n        /* \"#utility.yul\":21726:21752   */\n      swap1\n      pop\n        /* \"#utility.yul\":21798:21807   */\n      dup2\n        /* \"#utility.yul\":21792:21796   */\n      dup2\n        /* \"#utility.yul\":21788:21808   */\n      sub\n        /* \"#utility.yul\":21784:21785   */\n      0x00\n        /* \"#utility.yul\":21773:21782   */\n      dup4\n        /* \"#utility.yul\":21769:21786   */\n      add\n        /* \"#utility.yul\":21762:21809   */\n      mstore\n        /* \"#utility.yul\":21826:21957   */\n      tag_594\n        /* \"#utility.yul\":21952:21956   */\n      dup2\n        /* \"#utility.yul\":21826:21957   */\n      tag_502\n      jump\t// in\n    tag_594:\n        /* \"#utility.yul\":21818:21957   */\n      swap1\n      pop\n        /* \"#utility.yul\":21716:21964   */\n      swap2\n      swap1\n      pop\n      jump\t// out\n        /* \"#utility.yul\":21970:22389   */\n    tag_174:\n      0x00\n        /* \"#utility.yul\":22174:22176   */\n      0x20\n        /* \"#utility.yul\":22163:22172   */\n      dup3\n        /* \"#utility.yul\":22159:22177   */\n      add\n        /* \"#utility.yul\":22151:22177   */\n      swap1\n      pop\n        /* \"#utility.yul\":22223:22232   */\n      dup2\n        /* \"#utility.yul\":22217:22221   */\n      dup2\n        /* \"#utility.yul\":22213:22233   */\n      sub\n        /* \"#utility.yul\":22209:22210   */\n      0x00\n        /* \"#utility.yul\":22198:22207   */\n      dup4\n        /* \"#utility.yul\":22194:22211   */\n      add\n        /* \"#utility.yul\":22187:22234   */\n      mstore\n        /* \"#utility.yul\":22251:22382   */\n      tag_596\n        /* \"#utility.yul\":22377:22381   */\n      dup2\n        /* \"#utility.yul\":22251:22382   */\n      tag_507\n      jump\t// in\n    tag_596:\n        /* \"#utility.yul\":22243:22382   */\n      swap1\n      pop\n        /* \"#utility.yul\":22141:22389   */\n      swap2\n      swap1\n      pop\n      jump\t// out\n        /* \"#utility.yul\":22395:22814   */\n    tag_201:\n      0x00\n        /* \"#utility.yul\":22599:22601   */\n      0x20\n        /* \"#utility.yul\":22588:22597   */\n      dup3\n        /* \"#utility.yul\":22584:22602   */\n      add\n        /* \"#utility.yul\":22576:22602   */\n      swap1\n      pop\n        /* \"#utility.yul\":22648:22657   */\n      dup2\n        /* \"#utility.yul\":22642:22646   */\n      dup2\n        /* \"#utility.yul\":22638:22658   */\n      sub\n        /* \"#utility.yul\":22634:22635   */\n      0x00\n        /* \"#utility.yul\":22623:22632   */\n      dup4\n        /* \"#utility.yul\":22619:22636   */\n      add\n        /* \"#utility.yul\":22612:22659   */\n      mstore\n        /* \"#utility.yul\":22676:22807   */\n      tag_598\n        /* \"#utility.yul\":22802:22806   */\n      dup2\n        /* \"#utility.yul\":22676:22807   */\n      tag_512\n      jump\t// in\n    tag_598:\n        /* \"#utility.yul\":22668:22807   */\n      swap1\n      pop\n        /* \"#utility.yul\":22566:22814   */\n      swap2\n      swap1\n      pop\n      jump\t// out\n        /* \"#utility.yul\":22820:23239   */\n    tag_269:\n      0x00\n        /* \"#utility.yul\":23024:23026   */\n      0x20\n        /* \"#utility.yul\":23013:23022   */\n      dup3\n        /* \"#utility.yul\":23009:23027   */\n      add\n        /* \"#utility.yul\":23001:23027   */\n      swap1\n      pop\n        /* \"#utility.yul\":23073:23082   */\n      dup2\n        /* \"#utility.yul\":23067:23071   */\n      dup2\n        /* \"#utility.yul\":23063:23083   */\n      sub\n        /* \"#utility.yul\":23059:23060   */\n      0x00\n        /* \"#utility.yul\":23048:23057   */\n      dup4\n        /* \"#utility.yul\":23044:23061   */\n      add\n        /* \"#utility.yul\":23037:23084   */\n      mstore\n        /* \"#utility.yul\":23101:23232   */\n      tag_600\n        /* \"#utility.yul\":23227:23231   */\n      dup2\n        /* \"#utility.yul\":23101:23232   */\n      tag_527\n      jump\t// in\n    tag_600:\n        /* \"#utility.yul\":23093:23232   */\n      swap1\n      pop\n        /* \"#utility.yul\":22991:23239   */\n      swap2\n      swap1\n      pop\n      jump\t// out\n        /* \"#utility.yul\":23245:23664   */\n    tag_143:\n      0x00\n        /* \"#utility.yul\":23449:23451   */\n      0x20\n        /* \"#utility.yul\":23438:23447   */\n      dup3\n        /* \"#utility.yul\":23434:23452   */\n      add\n        /* \"#utility.yul\":23426:23452   */\n      swap1\n      pop\n        /* \"#utility.yul\":23498:23507   */\n      dup2\n        /* \"#utility.yul\":23492:23496   */\n      dup2\n        /* \"#utility.yul\":23488:23508   */\n      sub\n        /* \"#utility.yul\":23484:23485   */\n      0x00\n        /* \"#utility.yul\":23473:23482   */\n      dup4\n        /* \"#utility.yul\":23469:23486   */\n      add\n        /* \"#utility.yul\":23462:23509   */\n      mstore\n        /* \"#utility.yul\":23526:23657   */\n      tag_602\n        /* \"#utility.yul\":23652:23656   */\n      dup2\n        /* \"#utility.yul\":23526:23657   */\n      tag_542\n      jump\t// in\n    tag_602:\n        /* \"#utility.yul\":23518:23657   */\n      swap1\n      pop\n        /* \"#utility.yul\":23416:23664   */\n      swap2\n      swap1\n      pop\n      jump\t// out\n        /* \"#utility.yul\":23670:23892   */\n    tag_54:\n      0x00\n        /* \"#utility.yul\":23801:23803   */\n      0x20\n        /* \"#utility.yul\":23790:23799   */\n      dup3\n        /* \"#utility.yul\":23786:23804   */\n      add\n        /* \"#utility.yul\":23778:23804   */\n      swap1\n      pop\n        /* \"#utility.yul\":23814:23885   */\n      tag_604\n        /* \"#utility.yul\":23882:23883   */\n      0x00\n        /* \"#utility.yul\":23871:23880   */\n      dup4\n        /* \"#utility.yul\":23867:23884   */\n      add\n        /* \"#utility.yul\":23858:23864   */\n      dup5\n        /* \"#utility.yul\":23814:23885   */\n      tag_550\n      jump\t// in\n    tag_604:\n        /* \"#utility.yul\":23768:23892   */\n      swap3\n      swap2\n      pop\n      pop\n      jump\t// out\n        /* \"#utility.yul\":23898:24328   */\n    tag_106:\n      0x00\n        /* \"#utility.yul\":24079:24081   */\n      0x60\n        /* \"#utility.yul\":24068:24077   */\n      dup3\n        /* \"#utility.yul\":24064:24082   */\n      add\n        /* \"#utility.yul\":24056:24082   */\n      swap1\n      pop\n        /* \"#utility.yul\":24092:24163   */\n      tag_606\n        /* \"#utility.yul\":24160:24161   */\n      0x00\n        /* \"#utility.yul\":24149:24158   */\n      dup4\n        /* \"#utility.yul\":24145:24162   */\n      add\n        /* \"#utility.yul\":24136:24142   */\n      dup7\n        /* \"#utility.yul\":24092:24163   */\n      tag_550\n      jump\t// in\n    tag_606:\n        /* \"#utility.yul\":24173:24245   */\n      tag_607\n        /* \"#utility.yul\":24241:24243   */\n      0x20\n        /* \"#utility.yul\":24230:24239   */\n      dup4\n        /* \"#utility.yul\":24226:24244   */\n      add\n        /* \"#utility.yul\":24217:24223   */\n      dup6\n        /* \"#utility.yul\":24173:24245   */\n      tag_550\n      jump\t// in\n    tag_607:\n        /* \"#utility.yul\":24255:24321   */\n      tag_608\n        /* \"#utility.yul\":24317:24319   */\n      0x40\n        /* \"#utility.yul\":24306:24315   */\n      dup4\n        /* \"#utility.yul\":24302:24320   */\n      add\n        /* \"#utility.yul\":24293:24299   */\n      dup5\n        /* \"#utility.yul\":24255:24321   */\n      tag_450\n      jump\t// in\n    tag_608:\n        /* \"#utility.yul\":24046:24328   */\n      swap5\n      swap4\n      pop\n      pop\n      pop\n      pop\n      jump\t// out\n        /* \"#utility.yul\":24334:24463   */\n    tag_315:\n      0x00\n        /* \"#utility.yul\":24395:24415   */\n      tag_610\n      tag_611\n      jump\t// in\n    tag_610:\n        /* \"#utility.yul\":24385:24415   */\n      swap1\n      pop\n        /* \"#utility.yul\":24424:24457   */\n      tag_612\n        /* \"#utility.yul\":24452:24456   */\n      dup3\n        /* \"#utility.yul\":24444:24450   */\n      dup3\n        /* \"#utility.yul\":24424:24457   */\n      tag_613\n      jump\t// in\n    tag_612:\n        /* \"#utility.yul\":24375:24463   */\n      swap2\n      swap1\n      pop\n      jump\t// out\n        /* \"#utility.yul\":24469:24544   */\n    tag_611:\n      0x00\n        /* \"#utility.yul\":24535:24537   */\n      0x40\n        /* \"#utility.yul\":24529:24538   */\n      mload\n        /* \"#utility.yul\":24519:24538   */\n      swap1\n      pop\n        /* \"#utility.yul\":24509:24544   */\n      swap1\n      jump\t// out\n        /* \"#utility.yul\":24550:24871   */\n    tag_314:\n      0x00\n        /* \"#utility.yul\":24727:24745   */\n      0xffffffffffffffff\n        /* \"#utility.yul\":24719:24725   */\n      dup3\n        /* \"#utility.yul\":24716:24746   */\n      gt\n        /* \"#utility.yul\":24713:24715   */\n      iszero\n      tag_616\n      jumpi\n        /* \"#utility.yul\":24749:24767   */\n      tag_617\n      tag_618\n      jump\t// in\n    tag_617:\n        /* \"#utility.yul\":24713:24715   */\n    tag_616:\n        /* \"#utility.yul\":24799:24803   */\n      0x20\n        /* \"#utility.yul\":24791:24797   */\n      dup3\n        /* \"#utility.yul\":24787:24804   */\n      mul\n        /* \"#utility.yul\":24779:24804   */\n      swap1\n      pop\n        /* \"#utility.yul\":24859:24863   */\n      0x20\n        /* \"#utility.yul\":24853:24857   */\n      dup2\n        /* \"#utility.yul\":24849:24864   */\n      add\n        /* \"#utility.yul\":24841:24864   */\n      swap1\n      pop\n        /* \"#utility.yul\":24642:24871   */\n      swap2\n      swap1\n      pop\n      jump\t// out\n        /* \"#utility.yul\":24877:25188   */\n    tag_325:\n      0x00\n        /* \"#utility.yul\":25044:25062   */\n      0xffffffffffffffff\n        /* \"#utility.yul\":25036:25042   */\n      dup3\n        /* \"#utility.yul\":25033:25063   */\n      gt\n        /* \"#utility.yul\":25030:25032   */\n      iszero\n      tag_620\n      jumpi\n        /* \"#utility.yul\":25066:25084   */\n      tag_621\n      tag_618\n      jump\t// in\n    tag_621:\n        /* \"#utility.yul\":25030:25032   */\n    tag_620:\n        /* \"#utility.yul\":25116:25120   */\n      0x20\n        /* \"#utility.yul\":25108:25114   */\n      dup3\n        /* \"#utility.yul\":25104:25121   */\n      mul\n        /* \"#utility.yul\":25096:25121   */\n      swap1\n      pop\n        /* \"#utility.yul\":25176:25180   */\n      0x20\n        /* \"#utility.yul\":25170:25174   */\n      dup2\n        /* \"#utility.yul\":25166:25181   */\n      add\n        /* \"#utility.yul\":25158:25181   */\n      swap1\n      pop\n        /* \"#utility.yul\":24959:25188   */\n      swap2\n      swap1\n      pop\n      jump\t// out\n        /* \"#utility.yul\":25194:25502   */\n    tag_336:\n      0x00\n        /* \"#utility.yul\":25346:25364   */\n      0xffffffffffffffff\n        /* \"#utility.yul\":25338:25344   */\n      dup3\n        /* \"#utility.yul\":25335:25365   */\n      gt\n        /* \"#utility.yul\":25332:25334   */\n      iszero\n      tag_623\n      jumpi\n        /* \"#utility.yul\":25368:25386   */\n      tag_624\n      tag_618\n      jump\t// in\n    tag_624:\n        /* \"#utility.yul\":25332:25334   */\n    tag_623:\n        /* \"#utility.yul\":25406:25435   */\n      tag_625\n        /* \"#utility.yul\":25428:25434   */\n      dup3\n        /* \"#utility.yul\":25406:25435   */\n      tag_478\n      jump\t// in\n    tag_625:\n        /* \"#utility.yul\":25398:25435   */\n      swap1\n      pop\n        /* \"#utility.yul\":25490:25494   */\n      0x20\n        /* \"#utility.yul\":25484:25488   */\n      dup2\n        /* \"#utility.yul\":25480:25495   */\n      add\n        /* \"#utility.yul\":25472:25495   */\n      swap1\n      pop\n        /* \"#utility.yul\":25261:25502   */\n      swap2\n      swap1\n      pop\n      jump\t// out\n        /* \"#utility.yul\":25508:25650   */\n    tag_429:\n      0x00\n        /* \"#utility.yul\":25608:25611   */\n      dup2\n        /* \"#utility.yul\":25600:25611   */\n      swap1\n      pop\n        /* \"#utility.yul\":25638:25642   */\n      0x20\n        /* \"#utility.yul\":25633:25636   */\n      dup3\n        /* \"#utility.yul\":25629:25643   */\n      add\n        /* \"#utility.yul\":25621:25643   */\n      swap1\n      pop\n        /* \"#utility.yul\":25590:25650   */\n      swap2\n      swap1\n      pop\n      jump\t// out\n        /* \"#utility.yul\":25656:25788   */\n    tag_443:\n      0x00\n        /* \"#utility.yul\":25746:25749   */\n      dup2\n        /* \"#utility.yul\":25738:25749   */\n      swap1\n      pop\n        /* \"#utility.yul\":25776:25780   */\n      0x20\n        /* \"#utility.yul\":25771:25774   */\n      dup3\n        /* \"#utility.yul\":25767:25781   */\n      add\n        /* \"#utility.yul\":25759:25781   */\n      swap1\n      pop\n        /* \"#utility.yul\":25728:25788   */\n      swap2\n      swap1\n      pop\n      jump\t// out\n        /* \"#utility.yul\":25794:25918   */\n    tag_425:\n      0x00\n        /* \"#utility.yul\":25905:25910   */\n      dup2\n        /* \"#utility.yul\":25899:25911   */\n      mload\n        /* \"#utility.yul\":25889:25911   */\n      swap1\n      pop\n        /* \"#utility.yul\":25878:25918   */\n      swap2\n      swap1\n      pop\n      jump\t// out\n        /* \"#utility.yul\":25924:26038   */\n    tag_439:\n      0x00\n        /* \"#utility.yul\":26025:26030   */\n      dup2\n        /* \"#utility.yul\":26019:26031   */\n      mload\n        /* \"#utility.yul\":26009:26031   */\n      swap1\n      pop\n        /* \"#utility.yul\":25998:26038   */\n      swap2\n      swap1\n      pop\n      jump\t// out\n        /* \"#utility.yul\":26044:26143   */\n    tag_472:\n      0x00\n        /* \"#utility.yul\":26130:26135   */\n      dup2\n        /* \"#utility.yul\":26124:26136   */\n      mload\n        /* \"#utility.yul\":26114:26136   */\n      swap1\n      pop\n        /* \"#utility.yul\":26103:26143   */\n      swap2\n      swap1\n      pop\n      jump\t// out\n        /* \"#utility.yul\":26149:26272   */\n    tag_435:\n      0x00\n        /* \"#utility.yul\":26261:26265   */\n      0x20\n        /* \"#utility.yul\":26256:26259   */\n      dup3\n        /* \"#utility.yul\":26252:26266   */\n      add\n        /* \"#utility.yul\":26244:26266   */\n      swap1\n      pop\n        /* \"#utility.yul\":26234:26272   */\n      swap2\n      swap1\n      pop\n      jump\t// out\n        /* \"#utility.yul\":26278:26391   */\n    tag_449:\n      0x00\n        /* \"#utility.yul\":26380:26384   */\n      0x20\n        /* \"#utility.yul\":26375:26378   */\n      dup3\n        /* \"#utility.yul\":26371:26385   */\n      add\n        /* \"#utility.yul\":26363:26385   */\n      swap1\n      pop\n        /* \"#utility.yul\":26353:26391   */\n      swap2\n      swap1\n      pop\n      jump\t// out\n        /* \"#utility.yul\":26397:26591   */\n    tag_427:\n      0x00\n        /* \"#utility.yul\":26540:26546   */\n      dup3\n        /* \"#utility.yul\":26535:26538   */\n      dup3\n        /* \"#utility.yul\":26528:26547   */\n      mstore\n        /* \"#utility.yul\":26580:26584   */\n      0x20\n        /* \"#utility.yul\":26575:26578   */\n      dup3\n        /* \"#utility.yul\":26571:26585   */\n      add\n        /* \"#utility.yul\":26556:26585   */\n      swap1\n      pop\n        /* \"#utility.yul\":26518:26591   */\n      swap3\n      swap2\n      pop\n      pop\n      jump\t// out\n        /* \"#utility.yul\":26597:26781   */\n    tag_441:\n      0x00\n        /* \"#utility.yul\":26730:26736   */\n      dup3\n        /* \"#utility.yul\":26725:26728   */\n      dup3\n        /* \"#utility.yul\":26718:26737   */\n      mstore\n        /* \"#utility.yul\":26770:26774   */\n      0x20\n        /* \"#utility.yul\":26765:26768   */\n      dup3\n        /* \"#utility.yul\":26761:26775   */\n      add\n        /* \"#utility.yul\":26746:26775   */\n      swap1\n      pop\n        /* \"#utility.yul\":26708:26781   */\n      swap3\n      swap2\n      pop\n      pop\n      jump\t// out\n        /* \"#utility.yul\":26787:26946   */\n    tag_474:\n      0x00\n        /* \"#utility.yul\":26895:26901   */\n      dup3\n        /* \"#utility.yul\":26890:26893   */\n      dup3\n        /* \"#utility.yul\":26883:26902   */\n      mstore\n        /* \"#utility.yul\":26935:26939   */\n      0x20\n        /* \"#utility.yul\":26930:26933   */\n      dup3\n        /* \"#utility.yul\":26926:26940   */\n      add\n        /* \"#utility.yul\":26911:26940   */\n      swap1\n      pop\n        /* \"#utility.yul\":26873:26946   */\n      swap3\n      swap2\n      pop\n      pop\n      jump\t// out\n        /* \"#utility.yul\":26952:27121   */\n    tag_483:\n      0x00\n        /* \"#utility.yul\":27070:27076   */\n      dup3\n        /* \"#utility.yul\":27065:27068   */\n      dup3\n        /* \"#utility.yul\":27058:27077   */\n      mstore\n        /* \"#utility.yul\":27110:27114   */\n      0x20\n        /* \"#utility.yul\":27105:27108   */\n      dup3\n        /* \"#utility.yul\":27101:27115   */\n      add\n        /* \"#utility.yul\":27086:27115   */\n      swap1\n      pop\n        /* \"#utility.yul\":27048:27121   */\n      swap3\n      swap2\n      pop\n      pop\n      jump\t// out\n        /* \"#utility.yul\":27127:27275   */\n    tag_490:\n      0x00\n        /* \"#utility.yul\":27266:27269   */\n      dup2\n        /* \"#utility.yul\":27251:27269   */\n      swap1\n      pop\n        /* \"#utility.yul\":27241:27275   */\n      swap3\n      swap2\n      pop\n      pop\n      jump\t// out\n        /* \"#utility.yul\":27281:27586   */\n    tag_293:\n      0x00\n        /* \"#utility.yul\":27340:27360   */\n      tag_639\n        /* \"#utility.yul\":27358:27359   */\n      dup3\n        /* \"#utility.yul\":27340:27360   */\n      tag_549\n      jump\t// in\n    tag_639:\n        /* \"#utility.yul\":27335:27360   */\n      swap2\n      pop\n        /* \"#utility.yul\":27374:27394   */\n      tag_640\n        /* \"#utility.yul\":27392:27393   */\n      dup4\n        /* \"#utility.yul\":27374:27394   */\n      tag_549\n      jump\t// in\n    tag_640:\n        /* \"#utility.yul\":27369:27394   */\n      swap3\n      pop\n        /* \"#utility.yul\":27528:27529   */\n      dup3\n        /* \"#utility.yul\":27460:27526   */\n      0xffffffffffffffffffffffffffffffffffffffffffffffffffffffffffffffff\n        /* \"#utility.yul\":27456:27530   */\n      sub\n        /* \"#utility.yul\":27453:27454   */\n      dup3\n        /* \"#utility.yul\":27450:27531   */\n      gt\n        /* \"#utility.yul\":27447:27449   */\n      iszero\n      tag_641\n      jumpi\n        /* \"#utility.yul\":27534:27552   */\n      tag_642\n      tag_643\n      jump\t// in\n    tag_642:\n        /* \"#utility.yul\":27447:27449   */\n    tag_641:\n        /* \"#utility.yul\":27578:27579   */\n      dup3\n        /* \"#utility.yul\":27575:27576   */\n      dup3\n        /* \"#utility.yul\":27571:27580   */\n      add\n        /* \"#utility.yul\":27564:27580   */\n      swap1\n      pop\n        /* \"#utility.yul\":27325:27586   */\n      swap3\n      swap2\n      pop\n      pop\n      jump\t// out\n        /* \"#utility.yul\":27592:27777   */\n    tag_220:\n      0x00\n        /* \"#utility.yul\":27649:27669   */\n      tag_645\n        /* \"#utility.yul\":27667:27668   */\n      dup3\n        /* \"#utility.yul\":27649:27669   */\n      tag_549\n      jump\t// in\n    tag_645:\n        /* \"#utility.yul\":27644:27669   */\n      swap2\n      pop\n        /* \"#utility.yul\":27683:27703   */\n      tag_646\n        /* \"#utility.yul\":27701:27702   */\n      dup4\n        /* \"#utility.yul\":27683:27703   */\n      tag_549\n      jump\t// in\n    tag_646:\n        /* \"#utility.yul\":27678:27703   */\n      swap3\n      pop\n        /* \"#utility.yul\":27722:27723   */\n      dup3\n        /* \"#utility.yul\":27712:27714   */\n      tag_647\n      jumpi\n        /* \"#utility.yul\":27727:27745   */\n      tag_648\n      tag_649\n      jump\t// in\n    tag_648:\n        /* \"#utility.yul\":27712:27714   */\n    tag_647:\n        /* \"#utility.yul\":27769:27770   */\n      dup3\n        /* \"#utility.yul\":27766:27767   */\n      dup3\n        /* \"#utility.yul\":27762:27771   */\n      div\n        /* \"#utility.yul\":27757:27771   */\n      swap1\n      pop\n        /* \"#utility.yul\":27634:27777   */\n      swap3\n      swap2\n      pop\n      pop\n      jump\t// out\n        /* \"#utility.yul\":27783:28131   */\n    tag_222:\n      0x00\n        /* \"#utility.yul\":27846:27866   */\n      tag_651\n        /* \"#utility.yul\":27864:27865   */\n      dup3\n        /* \"#utility.yul\":27846:27866   */\n      tag_549\n      jump\t// in\n    tag_651:\n        /* \"#utility.yul\":27841:27866   */\n      swap2\n      pop\n        /* \"#utility.yul\":27880:27900   */\n      tag_652\n        /* \"#utility.yul\":27898:27899   */\n      dup4\n        /* \"#utility.yul\":27880:27900   */\n      tag_549\n      jump\t// in\n    tag_652:\n        /* \"#utility.yul\":27875:27900   */\n      swap3\n      pop\n        /* \"#utility.yul\":28068:28069   */\n      dup2\n        /* \"#utility.yul\":28000:28066   */\n      0xffffffffffffffffffffffffffffffffffffffffffffffffffffffffffffffff\n        /* \"#utility.yul\":27996:28070   */\n      div\n        /* \"#utility.yul\":27993:27994   */\n      dup4\n        /* \"#utility.yul\":27990:28071   */\n      gt\n        /* \"#utility.yul\":27985:27986   */\n      dup3\n        /* \"#utility.yul\":27978:27987   */\n      iszero\n        /* \"#utility.yul\":27971:27988   */\n      iszero\n        /* \"#utility.yul\":27967:28072   */\n      and\n        /* \"#utility.yul\":27964:27966   */\n      iszero\n      tag_653\n      jumpi\n        /* \"#utility.yul\":28075:28093   */\n      tag_654\n      tag_643\n      jump\t// in\n    tag_654:\n        /* \"#utility.yul\":27964:27966   */\n    tag_653:\n        /* \"#utility.yul\":28123:28124   */\n      dup3\n        /* \"#utility.yul\":28120:28121   */\n      dup3\n        /* \"#utility.yul\":28116:28125   */\n      mul\n        /* \"#utility.yul\":28105:28125   */\n      swap1\n      pop\n        /* \"#utility.yul\":27831:28131   */\n      swap3\n      swap2\n      pop\n      pop\n      jump\t// out\n        /* \"#utility.yul\":28137:28328   */\n    tag_182:\n      0x00\n        /* \"#utility.yul\":28197:28217   */\n      tag_656\n        /* \"#utility.yul\":28215:28216   */\n      dup3\n        /* \"#utility.yul\":28197:28217   */\n      tag_549\n      jump\t// in\n    tag_656:\n        /* \"#utility.yul\":28192:28217   */\n      swap2\n      pop\n        /* \"#utility.yul\":28231:28251   */\n      tag_657\n        /* \"#utility.yul\":28249:28250   */\n      dup4\n        /* \"#utility.yul\":28231:28251   */\n      tag_549\n      jump\t// in\n    tag_657:\n        /* \"#utility.yul\":28226:28251   */\n      swap3\n      pop\n        /* \"#utility.yul\":28270:28271   */\n      dup3\n        /* \"#utility.yul\":28267:28268   */\n      dup3\n        /* \"#utility.yul\":28264:28272   */\n      lt\n        /* \"#utility.yul\":28261:28263   */\n      iszero\n      tag_658\n      jumpi\n        /* \"#utility.yul\":28275:28293   */\n      tag_659\n      tag_643\n      jump\t// in\n    tag_659:\n        /* \"#utility.yul\":28261:28263   */\n    tag_658:\n        /* \"#utility.yul\":28320:28321   */\n      dup3\n        /* \"#utility.yul\":28317:28318   */\n      dup3\n        /* \"#utility.yul\":28313:28322   */\n      sub\n        /* \"#utility.yul\":28305:28322   */\n      swap1\n      pop\n        /* \"#utility.yul\":28182:28328   */\n      swap3\n      swap2\n      pop\n      pop\n      jump\t// out\n        /* \"#utility.yul\":28334:28430   */\n    tag_416:\n      0x00\n        /* \"#utility.yul\":28400:28424   */\n      tag_661\n        /* \"#utility.yul\":28418:28423   */\n      dup3\n        /* \"#utility.yul\":28400:28424   */\n      tag_662\n      jump\t// in\n    tag_661:\n        /* \"#utility.yul\":28389:28424   */\n      swap1\n      pop\n        /* \"#utility.yul\":28379:28430   */\n      swap2\n      swap1\n      pop\n      jump\t// out\n        /* \"#utility.yul\":28436:28526   */\n    tag_453:\n      0x00\n        /* \"#utility.yul\":28513:28518   */\n      dup2\n        /* \"#utility.yul\":28506:28519   */\n      iszero\n        /* \"#utility.yul\":28499:28520   */\n      iszero\n        /* \"#utility.yul\":28488:28520   */\n      swap1\n      pop\n        /* \"#utility.yul\":28478:28526   */\n      swap2\n      swap1\n      pop\n      jump\t// out\n        /* \"#utility.yul\":28532:28609   */\n    tag_457:\n      0x00\n        /* \"#utility.yul\":28598:28603   */\n      dup2\n        /* \"#utility.yul\":28587:28603   */\n      swap1\n      pop\n        /* \"#utility.yul\":28577:28609   */\n      swap2\n      swap1\n      pop\n      jump\t// out\n        /* \"#utility.yul\":28615:28764   */\n    tag_665:\n      0x00\n        /* \"#utility.yul\":28691:28757   */\n      0xffffffff00000000000000000000000000000000000000000000000000000000\n        /* \"#utility.yul\":28684:28689   */\n      dup3\n        /* \"#utility.yul\":28680:28758   */\n      and\n        /* \"#utility.yul\":28669:28758   */\n      swap1\n      pop\n        /* \"#utility.yul\":28659:28764   */\n      swap2\n      swap1\n      pop\n      jump\t// out\n        /* \"#utility.yul\":28770:28896   */\n    tag_662:\n      0x00\n        /* \"#utility.yul\":28847:28889   */\n      0xffffffffffffffffffffffffffffffffffffffff\n        /* \"#utility.yul\":28840:28845   */\n      dup3\n        /* \"#utility.yul\":28836:28890   */\n      and\n        /* \"#utility.yul\":28825:28890   */\n      swap1\n      pop\n        /* \"#utility.yul\":28815:28896   */\n      swap2\n      swap1\n      pop\n      jump\t// out\n        /* \"#utility.yul\":28902:28979   */\n    tag_549:\n      0x00\n        /* \"#utility.yul\":28968:28973   */\n      dup2\n        /* \"#utility.yul\":28957:28973   */\n      swap1\n      pop\n        /* \"#utility.yul\":28947:28979   */\n      swap2\n      swap1\n      pop\n      jump\t// out\n        /* \"#utility.yul\":28985:29151   */\n    tag_461:\n      0x00\n        /* \"#utility.yul\":29088:29145   */\n      tag_670\n        /* \"#utility.yul\":29139:29144   */\n      dup3\n        /* \"#utility.yul\":29088:29145   */\n      tag_671\n      jump\t// in\n    tag_670:\n        /* \"#utility.yul\":29075:29145   */\n      swap1\n      pop\n        /* \"#utility.yul\":29065:29151   */\n      swap2\n      swap1\n      pop\n      jump\t// out\n        /* \"#utility.yul\":29157:29290   */\n    tag_671:\n      0x00\n        /* \"#utility.yul\":29260:29284   */\n      tag_673\n        /* \"#utility.yul\":29278:29283   */\n      dup3\n        /* \"#utility.yul\":29260:29284   */\n      tag_662\n      jump\t// in\n    tag_673:\n        /* \"#utility.yul\":29247:29284   */\n      swap1\n      pop\n        /* \"#utility.yul\":29237:29290   */\n      swap2\n      swap1\n      pop\n      jump\t// out\n        /* \"#utility.yul\":29296:29482   */\n    tag_465:\n      0x00\n        /* \"#utility.yul\":29409:29476   */\n      tag_675\n        /* \"#utility.yul\":29470:29475   */\n      dup3\n        /* \"#utility.yul\":29409:29476   */\n      tag_676\n      jump\t// in\n    tag_675:\n        /* \"#utility.yul\":29396:29476   */\n      swap1\n      pop\n        /* \"#utility.yul\":29386:29482   */\n      swap2\n      swap1\n      pop\n      jump\t// out\n        /* \"#utility.yul\":29488:29631   */\n    tag_676:\n      0x00\n        /* \"#utility.yul\":29601:29625   */\n      tag_678\n        /* \"#utility.yul\":29619:29624   */\n      dup3\n        /* \"#utility.yul\":29601:29625   */\n      tag_662\n      jump\t// in\n    tag_678:\n        /* \"#utility.yul\":29588:29625   */\n      swap1\n      pop\n        /* \"#utility.yul\":29578:29631   */\n      swap2\n      swap1\n      pop\n      jump\t// out\n        /* \"#utility.yul\":29637:29803   */\n    tag_469:\n      0x00\n        /* \"#utility.yul\":29740:29797   */\n      tag_680\n        /* \"#utility.yul\":29791:29796   */\n      dup3\n        /* \"#utility.yul\":29740:29797   */\n      tag_681\n      jump\t// in\n    tag_680:\n        /* \"#utility.yul\":29727:29797   */\n      swap1\n      pop\n        /* \"#utility.yul\":29717:29803   */\n      swap2\n      swap1\n      pop\n      jump\t// out\n        /* \"#utility.yul\":29809:29942   */\n    tag_681:\n      0x00\n        /* \"#utility.yul\":29912:29936   */\n      tag_683\n        /* \"#utility.yul\":29930:29935   */\n      dup3\n        /* \"#utility.yul\":29912:29936   */\n      tag_662\n      jump\t// in\n    tag_683:\n        /* \"#utility.yul\":29899:29936   */\n      swap1\n      pop\n        /* \"#utility.yul\":29889:29942   */\n      swap2\n      swap1\n      pop\n      jump\t// out\n        /* \"#utility.yul\":29948:30102   */\n    tag_339:\n        /* \"#utility.yul\":30032:30038   */\n      dup3\n        /* \"#utility.yul\":30027:30030   */\n      dup2\n        /* \"#utility.yul\":30022:30025   */\n      dup4\n        /* \"#utility.yul\":30009:30039   */\n      calldatacopy\n        /* \"#utility.yul\":30094:30095   */\n      0x00\n        /* \"#utility.yul\":30085:30091   */\n      dup4\n        /* \"#utility.yul\":30080:30083   */\n      dup4\n        /* \"#utility.yul\":30076:30092   */\n      add\n        /* \"#utility.yul\":30069:30096   */\n      mstore\n        /* \"#utility.yul\":29999:30102   */\n      pop\n      pop\n      pop\n      jump\t// out\n        /* \"#utility.yul\":30108:30415   */\n    tag_476:\n        /* \"#utility.yul\":30176:30177   */\n      0x00\n        /* \"#utility.yul\":30186:30299   */\n    tag_686:\n        /* \"#utility.yul\":30200:30206   */\n      dup4\n        /* \"#utility.yul\":30197:30198   */\n      dup2\n        /* \"#utility.yul\":30194:30207   */\n      lt\n        /* \"#utility.yul\":30186:30299   */\n      iszero\n      tag_688\n      jumpi\n        /* \"#utility.yul\":30285:30286   */\n      dup1\n        /* \"#utility.yul\":30280:30283   */\n      dup3\n        /* \"#utility.yul\":30276:30287   */\n      add\n        /* \"#utility.yul\":30270:30288   */\n      mload\n        /* \"#utility.yul\":30266:30267   */\n      dup2\n        /* \"#utility.yul\":30261:30264   */\n      dup5\n        /* \"#utility.yul\":30257:30268   */\n      add\n        /* \"#utility.yul\":30250:30289   */\n      mstore\n        /* \"#utility.yul\":30222:30224   */\n      0x20\n        /* \"#utility.yul\":30219:30220   */\n      dup2\n        /* \"#utility.yul\":30215:30225   */\n      add\n        /* \"#utility.yul\":30210:30225   */\n      swap1\n      pop\n        /* \"#utility.yul\":30186:30299   */\n      jump(tag_686)\n    tag_688:\n        /* \"#utility.yul\":30317:30323   */\n      dup4\n        /* \"#utility.yul\":30314:30315   */\n      dup2\n        /* \"#utility.yul\":30311:30324   */\n      gt\n        /* \"#utility.yul\":30308:30310   */\n      iszero\n      tag_689\n      jumpi\n        /* \"#utility.yul\":30397:30398   */\n      0x00\n        /* \"#utility.yul\":30388:30394   */\n      dup5\n        /* \"#utility.yul\":30383:30386   */\n      dup5\n        /* \"#utility.yul\":30379:30395   */\n      add\n        /* \"#utility.yul\":30372:30399   */\n      mstore\n        /* \"#utility.yul\":30308:30310   */\n    tag_689:\n        /* \"#utility.yul\":30157:30415   */\n      pop\n      pop\n      pop\n      pop\n      jump\t// out\n        /* \"#utility.yul\":30421:30592   */\n    tag_191:\n      0x00\n        /* \"#utility.yul\":30483:30507   */\n      tag_691\n        /* \"#utility.yul\":30501:30506   */\n      dup3\n        /* \"#utility.yul\":30483:30507   */\n      tag_549\n      jump\t// in\n    tag_691:\n        /* \"#utility.yul\":30474:30507   */\n      swap2\n      pop\n        /* \"#utility.yul\":30529:30533   */\n      0x00\n        /* \"#utility.yul\":30522:30527   */\n      dup3\n        /* \"#utility.yul\":30519:30534   */\n      eq\n        /* \"#utility.yul\":30516:30518   */\n      iszero\n      tag_692\n      jumpi\n        /* \"#utility.yul\":30537:30555   */\n      tag_693\n      tag_643\n      jump\t// in\n    tag_693:\n        /* \"#utility.yul\":30516:30518   */\n    tag_692:\n        /* \"#utility.yul\":30584:30585   */\n      0x01\n        /* \"#utility.yul\":30577:30582   */\n      dup3\n        /* \"#utility.yul\":30573:30586   */\n      sub\n        /* \"#utility.yul\":30566:30586   */\n      swap1\n      pop\n        /* \"#utility.yul\":30464:30592   */\n      swap2\n      swap1\n      pop\n      jump\t// out\n        /* \"#utility.yul\":30598:30879   */\n    tag_613:\n        /* \"#utility.yul\":30681:30708   */\n      tag_695\n        /* \"#utility.yul\":30703:30707   */\n      dup3\n        /* \"#utility.yul\":30681:30708   */\n      tag_478\n      jump\t// in\n    tag_695:\n        /* \"#utility.yul\":30673:30679   */\n      dup2\n        /* \"#utility.yul\":30669:30709   */\n      add\n        /* \"#utility.yul\":30811:30817   */\n      dup2\n        /* \"#utility.yul\":30799:30809   */\n      dup2\n        /* \"#utility.yul\":30796:30818   */\n      lt\n        /* \"#utility.yul\":30775:30793   */\n      0xffffffffffffffff\n        /* \"#utility.yul\":30763:30773   */\n      dup3\n        /* \"#utility.yul\":30760:30794   */\n      gt\n        /* \"#utility.yul\":30757:30819   */\n      or\n        /* \"#utility.yul\":30754:30756   */\n      iszero\n      tag_696\n      jumpi\n        /* \"#utility.yul\":30822:30840   */\n      tag_697\n      tag_618\n      jump\t// in\n    tag_697:\n        /* \"#utility.yul\":30754:30756   */\n    tag_696:\n        /* \"#utility.yul\":30862:30872   */\n      dup1\n        /* \"#utility.yul\":30858:30860   */\n      0x40\n        /* \"#utility.yul\":30851:30873   */\n      mstore\n        /* \"#utility.yul\":30641:30879   */\n      pop\n      pop\n      pop\n      jump\t// out\n        /* \"#utility.yul\":30885:30985   */\n    tag_421:\n      0x00\n        /* \"#utility.yul\":30953:30979   */\n      tag_699\n        /* \"#utility.yul\":30973:30978   */\n      dup3\n        /* \"#utility.yul\":30953:30979   */\n      tag_700\n      jump\t// in\n    tag_699:\n        /* \"#utility.yul\":30942:30979   */\n      swap1\n      pop\n        /* \"#utility.yul\":30932:30985   */\n      swap2\n      swap1\n      pop\n      jump\t// out\n        /* \"#utility.yul\":30991:31085   */\n    tag_700:\n      0x00\n        /* \"#utility.yul\":31059:31079   */\n      tag_702\n        /* \"#utility.yul\":31073:31078   */\n      dup3\n        /* \"#utility.yul\":31059:31079   */\n      tag_703\n      jump\t// in\n    tag_702:\n        /* \"#utility.yul\":31048:31079   */\n      swap1\n      pop\n        /* \"#utility.yul\":31038:31085   */\n      swap2\n      swap1\n      pop\n      jump\t// out\n        /* \"#utility.yul\":31091:31170   */\n    tag_557:\n      0x00\n        /* \"#utility.yul\":31159:31164   */\n      dup2\n        /* \"#utility.yul\":31148:31164   */\n      swap1\n      pop\n        /* \"#utility.yul\":31138:31170   */\n      swap2\n      swap1\n      pop\n      jump\t// out\n        /* \"#utility.yul\":31176:31356   */\n    tag_643:\n        /* \"#utility.yul\":31224:31301   */\n      0x4e487b7100000000000000000000000000000000000000000000000000000000\n        /* \"#utility.yul\":31221:31222   */\n      0x00\n        /* \"#utility.yul\":31214:31302   */\n      mstore\n        /* \"#utility.yul\":31321:31325   */\n      0x11\n        /* \"#utility.yul\":31318:31319   */\n      0x04\n        /* \"#utility.yul\":31311:31326   */\n      mstore\n        /* \"#utility.yul\":31345:31349   */\n      0x24\n        /* \"#utility.yul\":31342:31343   */\n      0x00\n        /* \"#utility.yul\":31335:31350   */\n      revert\n        /* \"#utility.yul\":31362:31542   */\n    tag_649:\n        /* \"#utility.yul\":31410:31487   */\n      0x4e487b7100000000000000000000000000000000000000000000000000000000\n        /* \"#utility.yul\":31407:31408   */\n      0x00\n        /* \"#utility.yul\":31400:31488   */\n      mstore\n        /* \"#utility.yul\":31507:31511   */\n      0x12\n        /* \"#utility.yul\":31504:31505   */\n      0x04\n        /* \"#utility.yul\":31497:31512   */\n      mstore\n        /* \"#utility.yul\":31531:31535   */\n      0x24\n        /* \"#utility.yul\":31528:31529   */\n      0x00\n        /* \"#utility.yul\":31521:31536   */\n      revert\n        /* \"#utility.yul\":31548:31728   */\n    tag_618:\n        /* \"#utility.yul\":31596:31673   */\n      0x4e487b7100000000000000000000000000000000000000000000000000000000\n        /* \"#utility.yul\":31593:31594   */\n      0x00\n        /* \"#utility.yul\":31586:31674   */\n      mstore\n        /* \"#utility.yul\":31693:31697   */\n      0x41\n        /* \"#utility.yul\":31690:31691   */\n      0x04\n        /* \"#utility.yul\":31683:31698   */\n      mstore\n        /* \"#utility.yul\":31717:31721   */\n      0x24\n        /* \"#utility.yul\":31714:31715   */\n      0x00\n        /* \"#utility.yul\":31707:31722   */\n      revert\n        /* \"#utility.yul\":31734:31836   */\n    tag_478:\n      0x00\n        /* \"#utility.yul\":31826:31828   */\n      0x1f\n        /* \"#utility.yul\":31822:31829   */\n      not\n        /* \"#utility.yul\":31817:31819   */\n      0x1f\n        /* \"#utility.yul\":31810:31815   */\n      dup4\n        /* \"#utility.yul\":31806:31820   */\n      add\n        /* \"#utility.yul\":31802:31830   */\n      and\n        /* \"#utility.yul\":31792:31830   */\n      swap1\n      pop\n        /* \"#utility.yul\":31782:31836   */\n      swap2\n      swap1\n      pop\n      jump\t// out\n        /* \"#utility.yul\":31842:31936   */\n    tag_703:\n      0x00\n        /* \"#utility.yul\":31923:31928   */\n      dup2\n        /* \"#utility.yul\":31919:31921   */\n      0x60\n        /* \"#utility.yul\":31915:31929   */\n      shl\n        /* \"#utility.yul\":31894:31929   */\n      swap1\n      pop\n        /* \"#utility.yul\":31884:31936   */\n      swap2\n      swap1\n      pop\n      jump\t// out\n        /* \"#utility.yul\":31942:32124   */\n    tag_496:\n        /* \"#utility.yul\":32082:32116   */\n      0x537472696e67733a20686578206c656e67746820696e73756666696369656e74\n        /* \"#utility.yul\":32078:32079   */\n      0x00\n        /* \"#utility.yul\":32070:32076   */\n      dup3\n        /* \"#utility.yul\":32066:32080   */\n      add\n        /* \"#utility.yul\":32059:32117   */\n      mstore\n        /* \"#utility.yul\":32048:32124   */\n      pop\n      jump\t// out\n        /* \"#utility.yul\":32130:32288   */\n    tag_501:\n        /* \"#utility.yul\":32270:32280   */\n      0x4164647265737320000000000000000000000000000000000000000000000000\n        /* \"#utility.yul\":32266:32267   */\n      0x00\n        /* \"#utility.yul\":32258:32264   */\n      dup3\n        /* \"#utility.yul\":32254:32268   */\n      add\n        /* \"#utility.yul\":32247:32281   */\n      mstore\n        /* \"#utility.yul\":32236:32288   */\n      pop\n      jump\t// out\n        /* \"#utility.yul\":32294:32535   */\n    tag_506:\n        /* \"#utility.yul\":32434:32468   */\n      0x43616e6e6f74206d696e7420746f207472656173757279206164647265737320\n        /* \"#utility.yul\":32430:32431   */\n      0x00\n        /* \"#utility.yul\":32422:32428   */\n      dup3\n        /* \"#utility.yul\":32418:32432   */\n      add\n        /* \"#utility.yul\":32411:32469   */\n      mstore\n        /* \"#utility.yul\":32503:32527   */\n      0x756e74696c2073616c652069732066696e697368656400000000000000000000\n        /* \"#utility.yul\":32498:32500   */\n      0x20\n        /* \"#utility.yul\":32490:32496   */\n      dup3\n        /* \"#utility.yul\":32486:32501   */\n      add\n        /* \"#utility.yul\":32479:32528   */\n      mstore\n        /* \"#utility.yul\":32400:32535   */\n      pop\n      jump\t// out\n        /* \"#utility.yul\":32541:32718   */\n    tag_511:\n        /* \"#utility.yul\":32681:32710   */\n      0x74696d657374616d70206973206e6f742075702d746f2d646174650000000000\n        /* \"#utility.yul\":32677:32678   */\n      0x00\n        /* \"#utility.yul\":32669:32675   */\n      dup3\n        /* \"#utility.yul\":32665:32679   */\n      add\n        /* \"#utility.yul\":32658:32711   */\n      mstore\n        /* \"#utility.yul\":32647:32718   */\n      pop\n      jump\t// out\n        /* \"#utility.yul\":32724:32946   */\n    tag_516:\n        /* \"#utility.yul\":32864:32898   */\n      0x53656e646572206973206e6f742053616c65204d616e61676572206f72204164\n        /* \"#utility.yul\":32860:32861   */\n      0x00\n        /* \"#utility.yul\":32852:32858   */\n      dup3\n        /* \"#utility.yul\":32848:32862   */\n      add\n        /* \"#utility.yul\":32841:32899   */\n      mstore\n        /* \"#utility.yul\":32933:32938   */\n      0x6d696e0000000000000000000000000000000000000000000000000000000000\n        /* \"#utility.yul\":32928:32930   */\n      0x20\n        /* \"#utility.yul\":32920:32926   */\n      dup3\n        /* \"#utility.yul\":32916:32931   */\n      add\n        /* \"#utility.yul\":32909:32939   */\n      mstore\n        /* \"#utility.yul\":32830:32946   */\n      pop\n      jump\t// out\n        /* \"#utility.yul\":32952:33103   */\n    tag_521:\n        /* \"#utility.yul\":33092:33095   */\n      0x2500000000000000000000000000000000000000000000000000000000000000\n        /* \"#utility.yul\":33088:33089   */\n      0x00\n        /* \"#utility.yul\":33080:33086   */\n      dup3\n        /* \"#utility.yul\":33076:33090   */\n      add\n        /* \"#utility.yul\":33069:33096   */\n      mstore\n        /* \"#utility.yul\":33058:33103   */\n      pop\n      jump\t// out\n        /* \"#utility.yul\":33109:33344   */\n    tag_526:\n        /* \"#utility.yul\":33249:33283   */\n      0x20646f6573206e6f742068617665206120636f75706f6e207769746820612064\n        /* \"#utility.yul\":33245:33246   */\n      0x00\n        /* \"#utility.yul\":33237:33243   */\n      dup3\n        /* \"#utility.yul\":33233:33247   */\n      add\n        /* \"#utility.yul\":33226:33284   */\n      mstore\n        /* \"#utility.yul\":33318:33336   */\n      0x6973636f756e742072617465206f662000000000000000000000000000000000\n        /* \"#utility.yul\":33313:33315   */\n      0x20\n        /* \"#utility.yul\":33305:33311   */\n      dup3\n        /* \"#utility.yul\":33301:33316   */\n      add\n        /* \"#utility.yul\":33294:33337   */\n      mstore\n        /* \"#utility.yul\":33215:33344   */\n      pop\n      jump\t// out\n        /* \"#utility.yul\":33350:33531   */\n    tag_531:\n        /* \"#utility.yul\":33490:33523   */\n      0x737461727454696d65206973206c61746572207468616e20656e6454696d6500\n        /* \"#utility.yul\":33486:33487   */\n      0x00\n        /* \"#utility.yul\":33478:33484   */\n      dup3\n        /* \"#utility.yul\":33474:33488   */\n      add\n        /* \"#utility.yul\":33467:33524   */\n      mstore\n        /* \"#utility.yul\":33456:33531   */\n      pop\n      jump\t// out\n        /* \"#utility.yul\":33537:33710   */\n    tag_536:\n        /* \"#utility.yul\":33677:33702   */\n      0x416363657373436f6e74726f6c3a206163636f756e7420000000000000000000\n        /* \"#utility.yul\":33673:33674   */\n      0x00\n        /* \"#utility.yul\":33665:33671   */\n      dup3\n        /* \"#utility.yul\":33661:33675   */\n      add\n        /* \"#utility.yul\":33654:33703   */\n      mstore\n        /* \"#utility.yul\":33643:33710   */\n      pop\n      jump\t// out\n        /* \"#utility.yul\":33716:33883   */\n    tag_541:\n        /* \"#utility.yul\":33856:33875   */\n      0x206973206d697373696e6720726f6c6520000000000000000000000000000000\n        /* \"#utility.yul\":33852:33853   */\n      0x00\n        /* \"#utility.yul\":33844:33850   */\n      dup3\n        /* \"#utility.yul\":33840:33854   */\n      add\n        /* \"#utility.yul\":33833:33876   */\n      mstore\n        /* \"#utility.yul\":33822:33883   */\n      pop\n      jump\t// out\n        /* \"#utility.yul\":33889:34123   */\n    tag_546:\n        /* \"#utility.yul\":34029:34063   */\n      0x416363657373436f6e74726f6c3a2063616e206f6e6c792072656e6f756e6365\n        /* \"#utility.yul\":34025:34026   */\n      0x00\n        /* \"#utility.yul\":34017:34023   */\n      dup3\n        /* \"#utility.yul\":34013:34027   */\n      add\n        /* \"#utility.yul\":34006:34064   */\n      mstore\n        /* \"#utility.yul\":34098:34115   */\n      0x20726f6c657320666f722073656c660000000000000000000000000000000000\n        /* \"#utility.yul\":34093:34095   */\n      0x20\n        /* \"#utility.yul\":34085:34091   */\n      dup3\n        /* \"#utility.yul\":34081:34096   */\n      add\n        /* \"#utility.yul\":34074:34116   */\n      mstore\n        /* \"#utility.yul\":33995:34123   */\n      pop\n      jump\t// out\n        /* \"#utility.yul\":34129:34251   */\n    tag_343:\n        /* \"#utility.yul\":34202:34226   */\n      tag_722\n        /* \"#utility.yul\":34220:34225   */\n      dup2\n        /* \"#utility.yul\":34202:34226   */\n      tag_416\n      jump\t// in\n    tag_722:\n        /* \"#utility.yul\":34195:34200   */\n      dup2\n        /* \"#utility.yul\":34192:34227   */\n      eq\n        /* \"#utility.yul\":34182:34184   */\n      tag_723\n      jumpi\n        /* \"#utility.yul\":34241:34242   */\n      0x00\n        /* \"#utility.yul\":34238:34239   */\n      dup1\n        /* \"#utility.yul\":34231:34243   */\n      revert\n        /* \"#utility.yul\":34182:34184   */\n    tag_723:\n        /* \"#utility.yul\":34172:34251   */\n      pop\n      jump\t// out\n        /* \"#utility.yul\":34257:34373   */\n    tag_355:\n        /* \"#utility.yul\":34327:34348   */\n      tag_725\n        /* \"#utility.yul\":34342:34347   */\n      dup2\n        /* \"#utility.yul\":34327:34348   */\n      tag_453\n      jump\t// in\n    tag_725:\n        /* \"#utility.yul\":34320:34325   */\n      dup2\n        /* \"#utility.yul\":34317:34349   */\n      eq\n        /* \"#utility.yul\":34307:34309   */\n      tag_726\n      jumpi\n        /* \"#utility.yul\":34363:34364   */\n      0x00\n        /* \"#utility.yul\":34360:34361   */\n      dup1\n        /* \"#utility.yul\":34353:34365   */\n      revert\n        /* \"#utility.yul\":34307:34309   */\n    tag_726:\n        /* \"#utility.yul\":34297:34373   */\n      pop\n      jump\t// out\n        /* \"#utility.yul\":34379:34501   */\n    tag_359:\n        /* \"#utility.yul\":34452:34476   */\n      tag_728\n        /* \"#utility.yul\":34470:34475   */\n      dup2\n        /* \"#utility.yul\":34452:34476   */\n      tag_457\n      jump\t// in\n    tag_728:\n        /* \"#utility.yul\":34445:34450   */\n      dup2\n        /* \"#utility.yul\":34442:34477   */\n      eq\n        /* \"#utility.yul\":34432:34434   */\n      tag_729\n      jumpi\n        /* \"#utility.yul\":34491:34492   */\n      0x00\n        /* \"#utility.yul\":34488:34489   */\n      dup1\n        /* \"#utility.yul\":34481:34493   */\n      revert\n        /* \"#utility.yul\":34432:34434   */\n    tag_729:\n        /* \"#utility.yul\":34422:34501   */\n      pop\n      jump\t// out\n        /* \"#utility.yul\":34507:34627   */\n    tag_363:\n        /* \"#utility.yul\":34579:34602   */\n      tag_731\n        /* \"#utility.yul\":34596:34601   */\n      dup2\n        /* \"#utility.yul\":34579:34602   */\n      tag_665\n      jump\t// in\n    tag_731:\n        /* \"#utility.yul\":34572:34577   */\n      dup2\n        /* \"#utility.yul\":34569:34603   */\n      eq\n        /* \"#utility.yul\":34559:34561   */\n      tag_732\n      jumpi\n        /* \"#utility.yul\":34617:34618   */\n      0x00\n        /* \"#utility.yul\":34614:34615   */\n      dup1\n        /* \"#utility.yul\":34607:34619   */\n      revert\n        /* \"#utility.yul\":34559:34561   */\n    tag_732:\n        /* \"#utility.yul\":34549:34627   */\n      pop\n      jump\t// out\n        /* \"#utility.yul\":34633:34755   */\n    tag_369:\n        /* \"#utility.yul\":34706:34730   */\n      tag_734\n        /* \"#utility.yul\":34724:34729   */\n      dup2\n        /* \"#utility.yul\":34706:34730   */\n      tag_549\n      jump\t// in\n    tag_734:\n        /* \"#utility.yul\":34699:34704   */\n      dup2\n        /* \"#utility.yul\":34696:34731   */\n      eq\n        /* \"#utility.yul\":34686:34688   */\n      tag_735\n      jumpi\n        /* \"#utility.yul\":34745:34746   */\n      0x00\n        /* \"#utility.yul\":34742:34743   */\n      dup1\n        /* \"#utility.yul\":34735:34747   */\n      revert\n        /* \"#utility.yul\":34686:34688   */\n    tag_735:\n        /* \"#utility.yul\":34676:34755   */\n      pop\n      jump\t// out\n\n    auxdata: 0xa2646970667358221220ee27a3c53eb80554ff4a63b9ca224e427c7e192c0dde6fec8fa410498de520d364736f6c63430008010033\n}\n",
				"bytecode": {
					"linkReferences": {},
					"object": "60806040526370dc49006005556370dc4964600655620f4240600a620000269190620000aa565b600755620f424060016200003b9190620000aa565b60085560405180606001604052806127108152602001428152602001600015158152506009600082015181600001556020820151816001015560408201518160020160006101000a81548160ff0219169083151502179055505050348015620000a357600080fd5b5062000144565b6000620000b7826200010b565b9150620000c4836200010b565b9250817fffffffffffffffffffffffffffffffffffffffffffffffffffffffffffffffff04831182151516156200010057620000ff62000115565b5b828202905092915050565b6000819050919050565b7f4e487b7100000000000000000000000000000000000000000000000000000000600052601160045260246000fd5b6128f280620001546000396000f3fe608060405234801561001057600080fd5b50600436106101735760003560e01c80638c83faeb116100de578063bff29cee11610097578063c5f956af11610071578063c5f956af14610406578063ccb98ffc14610424578063d547741f14610440578063f121da921461045c57610173565b8063bff29cee146103be578063c0463711146103c8578063c5dae48f146103e857610173565b80638c83faeb146102fc57806391232f181461031a57806391d1485414610324578063944044a114610354578063a217fddf14610370578063ab6c03061461038e57610173565b806351f7598c1161013057806351f7598c1461024a578063551b42a8146102665780635ce7e72114610284578063673402e5146102a2578063682d07d9146102c057806368fc01a2146102de57610173565b806301ffc9a714610178578063248a9ca3146101a85780632f2ff15d146101d857806336568abe146101f45780634c0f38c2146102105780634c9b73da1461022e575b600080fd5b610192600480360381019061018d91906119fe565b610478565b60405161019f9190611f66565b60405180910390f35b6101c260048036038101906101bd9190611999565b6104f2565b6040516101cf9190611f81565b60405180910390f35b6101f260048036038101906101ed91906119c2565b610511565b005b61020e600480360381019061020991906119c2565b61053a565b005b6102186105bd565b60405161022591906120cf565b60405180910390f35b61024860048036038101906102439190611a27565b610664565b005b610264600480360381019061025f919061189f565b610687565b005b61026e6106e1565b60405161027b9190611f81565b60405180910390f35b61028c610705565b6040516102999190611fb7565b60405180910390f35b6102aa61072b565b6040516102b79190611f0d565b60405180910390f35b6102c861082b565b6040516102d59190611f81565b60405180910390f35b6102e661084f565b6040516102f391906120cf565b60405180910390f35b6103046108f6565b6040516103119190611f9c565b60405180910390f35b61032261091c565b005b61033e600480360381019061033991906119c2565b610a38565b60405161034b9190611f66565b60405180910390f35b61036e60048036038101906103699190611a27565b610aa2565b005b610378610b37565b6040516103859190611f81565b60405180910390f35b6103a860048036038101906103a391906118c8565b610b3e565b6040516103b591906120cf565b60405180910390f35b6103c6610ccf565b005b6103d0610ced565b6040516103df939291906120ea565b60405180910390f35b6103f0610d12565b6040516103fd9190611fd2565b60405180910390f35b61040e610d38565b60405161041b9190611ec9565b60405180910390f35b61043e60048036038101906104399190611a27565b610d5e565b005b61045a600480360381019061045591906119c2565b610df3565b005b61047660048036038101906104719190611904565b610e1c565b005b60007f7965db0b000000000000000000000000000000000000000000000000000000007bffffffffffffffffffffffffffffffffffffffffffffffffffffffff1916827bffffffffffffffffffffffffffffffffffffffffffffffffffffffff191614806104eb57506104ea82610eaf565b5b9050919050565b6000806000838152602001908152602001600020600101549050919050565b61051a826104f2565b61052b81610526610f19565b610f21565b6105358383610fbe565b505050565b610542610f19565b73ffffffffffffffffffffffffffffffffffffffff168173ffffffffffffffffffffffffffffffffffffffff16146105af576040517f08c379a00000000000000000000000000000000000000000000000000000000081526004016105a6906120af565b60405180910390fd5b6105b9828261109e565b5050565b6000600160009054906101000a900473ffffffffffffffffffffffffffffffffffffffff1673ffffffffffffffffffffffffffffffffffffffff16634c0f38c26040518163ffffffff1660e01b815260040160206040518083038186803b15801561062757600080fd5b505afa15801561063b573d6000803e3d6000fd5b505050506040513d601f19601f8201168201806040525081019061065f9190611a50565b905090565b61066c61117f565b60006106783383610b3e565b905061068381611277565b5050565b6000801b61069c81610697610f19565b610f21565b81600160006101000a81548173ffffffffffffffffffffffffffffffffffffffff021916908373ffffffffffffffffffffffffffffffffffffffff1602179055505050565b7f988301af8238f779281a300de031815cd01b48e9f1ae47a0f91ed6584213624a81565b600260009054906101000a900473ffffffffffffffffffffffffffffffffffffffff1681565b6060806040518060400160405280600181526020017f4a000000000000000000000000000000000000000000000000000000000000008152508160008151811061079e577f4e487b7100000000000000000000000000000000000000000000000000000000600052603260045260246000fd5b60200260200101819052506040518060400160405280600181526020017f4b0000000000000000000000000000000000000000000000000000000000000081525081600181518110610819577f4e487b7100000000000000000000000000000000000000000000000000000000600052603260045260246000fd5b60200260200101819052508091505090565b7fa70a2d8710fed9f014c8c2af50c7c2f6b25748ae4cded822e03b7beed44cf3a881565b6000600160009054906101000a900473ffffffffffffffffffffffffffffffffffffffff1673ffffffffffffffffffffffffffffffffffffffff166368fc01a26040518163ffffffff1660e01b815260040160206040518083038186803b1580156108b957600080fd5b505afa1580156108cd573d6000803e3d6000fd5b505050506040513d601f19601f820116820180604052508101906108f19190611a50565b905090565b600160009054906101000a900473ffffffffffffffffffffffffffffffffffffffff1681565b4260096001015414610963576040517f08c379a000000000000000000000000000000000000000000000000000000000815260040161095a9061204f565b60405180910390fd5b600654421180156109845750600960020160009054906101000a900460ff16155b6109c3576040517f08c379a00000000000000000000000000000000000000000000000000000000081526004016109ba9061202f565b60405180910390fd5b600060016109cf61084f565b6109d9919061235a565b6109e16105bd565b6109eb919061235a565b90505b6000811115610a3557610a22600460009054906101000a900473ffffffffffffffffffffffffffffffffffffffff16611312565b8080610a2d906124ba565b9150506109ee565b50565b600080600084815260200190815260200160002060000160008373ffffffffffffffffffffffffffffffffffffffff1673ffffffffffffffffffffffffffffffffffffffff16815260200190815260200160002060009054906101000a900460ff16905092915050565b610ad37f988301af8238f779281a300de031815cd01b48e9f1ae47a0f91ed6584213624a610ace610f19565b610a38565b80610aee5750610aed6000801b610ae8610f19565b610a38565b5b610b2d576040517f08c379a0000000000000000000000000000000000000000000000000000000008152600401610b249061206f565b60405180910390fd5b8060058190555050565b6000801b81565b60004260096001015414610b87576040517f08c379a0000000000000000000000000000000000000000000000000000000008152600401610b7e9061204f565b60405180910390fd5b600260009054906101000a900473ffffffffffffffffffffffffffffffffffffffff1673ffffffffffffffffffffffffffffffffffffffff16632080179d84846040518363ffffffff1660e01b8152600401610be4929190611ee4565b60206040518083038186803b158015610bfc57600080fd5b505afa158015610c10573d6000803e3d6000fd5b505050506040513d601f19601f82011682018060405250810190610c349190611970565b8383604051602001610c47929190611e42565b60405160208183030381529060405290610c97576040517f08c379a0000000000000000000000000000000000000000000000000000000008152600401610c8e9190611fed565b60405180910390fd5b506000826064610ca7919061235a565b6064600960000154610cb991906122cf565b610cc39190612300565b90508091505092915050565b610cd761117f565b60006009600001549050610cea81611277565b50565b60098060000154908060010154908060020160009054906101000a900460ff16905083565b600360009054906101000a900473ffffffffffffffffffffffffffffffffffffffff1681565b600460009054906101000a900473ffffffffffffffffffffffffffffffffffffffff1681565b610d8f7f988301af8238f779281a300de031815cd01b48e9f1ae47a0f91ed6584213624a610d8a610f19565b610a38565b80610daa5750610da96000801b610da4610f19565b610a38565b5b610de9576040517f08c379a0000000000000000000000000000000000000000000000000000000008152600401610de09061206f565b60405180910390fd5b8060068190555050565b610dfc826104f2565b610e0d81610e08610f19565b610f21565b610e17838361109e565b505050565b600160009054906101000a900473ffffffffffffffffffffffffffffffffffffffff1673ffffffffffffffffffffffffffffffffffffffff1663f121da9283836040518363ffffffff1660e01b8152600401610e79929190611f2f565b600060405180830381600087803b158015610e9357600080fd5b505af1158015610ea7573d6000803e3d6000fd5b505050505050565b60007f01ffc9a7000000000000000000000000000000000000000000000000000000007bffffffffffffffffffffffffffffffffffffffffffffffffffffffff1916827bffffffffffffffffffffffffffffffffffffffffffffffffffffffff1916149050919050565b600033905090565b610f2b8282610a38565b610fba57610f508173ffffffffffffffffffffffffffffffffffffffff1660146113a2565b610f5e8360001c60206113a2565b604051602001610f6f929190611e8f565b6040516020818303038152906040526040517f08c379a0000000000000000000000000000000000000000000000000000000008152600401610fb19190611fed565b60405180910390fd5b5050565b610fc88282610a38565b61109a57600160008084815260200190815260200160002060000160008373ffffffffffffffffffffffffffffffffffffffff1673ffffffffffffffffffffffffffffffffffffffff16815260200190815260200160002060006101000a81548160ff02191690831515021790555061103f610f19565b73ffffffffffffffffffffffffffffffffffffffff168173ffffffffffffffffffffffffffffffffffffffff16837f2f8788117e7eff1d82e926ec794901d17c78024a50270940304540a733656f0d60405160405180910390a45b5050565b6110a88282610a38565b1561117b57600080600084815260200190815260200160002060000160008373ffffffffffffffffffffffffffffffffffffffff1673ffffffffffffffffffffffffffffffffffffffff16815260200190815260200160002060006101000a81548160ff021916908315150217905550611120610f19565b73ffffffffffffffffffffffffffffffffffffffff168173ffffffffffffffffffffffffffffffffffffffff16837ff6391f5c32d9c69d2a47ea670b442974b53935d1edc7fd64eb21e047a839171b60405160405180910390a45b5050565b60065460055411156111c6576040517f08c379a00000000000000000000000000000000000000000000000000000000081526004016111bd9061208f565b60405180910390fd5b620f424060016111d69190612300565b603c600554426111e6919061235a565b6111f091906122cf565b6111fa9190612300565b600754611207919061235a565b60096000018190555042600960010181905550600554421015801561122e57506006544211155b15611256576001600960020160006101000a81548160ff021916908315150217905550611275565b6000600960020160006101000a81548160ff0219169083151502179055505b565b600360009054906101000a900473ffffffffffffffffffffffffffffffffffffffff1673ffffffffffffffffffffffffffffffffffffffff1663532b291333836040518363ffffffff1660e01b81526004016112d4929190611ee4565b600060405180830381600087803b1580156112ee57600080fd5b505af1158015611302573d6000803e3d6000fd5b5050505061130f33611312565b50565b600160009054906101000a900473ffffffffffffffffffffffffffffffffffffffff1673ffffffffffffffffffffffffffffffffffffffff166355676590826040518263ffffffff1660e01b815260040161136d9190611ec9565b600060405180830381600087803b15801561138757600080fd5b505af115801561139b573d6000803e3d6000fd5b5050505050565b6060600060028360026113b59190612300565b6113bf9190612279565b67ffffffffffffffff8111156113fe577f4e487b7100000000000000000000000000000000000000000000000000000000600052604160045260246000fd5b6040519080825280601f01601f1916602001820160405280156114305781602001600182028036833780820191505090505b5090507f30000000000000000000000000000000000000000000000000000000000000008160008151811061148e577f4e487b7100000000000000000000000000000000000000000000000000000000600052603260045260246000fd5b60200101907effffffffffffffffffffffffffffffffffffffffffffffffffffffffffffff1916908160001a9053507f780000000000000000000000000000000000000000000000000000000000000081600181518110611518577f4e487b7100000000000000000000000000000000000000000000000000000000600052603260045260246000fd5b60200101907effffffffffffffffffffffffffffffffffffffffffffffffffffffffffffff1916908160001a905350600060018460026115589190612300565b6115629190612279565b90505b600181111561164e577f3031323334353637383961626364656600000000000000000000000000000000600f8616601081106115ca577f4e487b7100000000000000000000000000000000000000000000000000000000600052603260045260246000fd5b1a60f81b828281518110611607577f4e487b7100000000000000000000000000000000000000000000000000000000600052603260045260246000fd5b60200101907effffffffffffffffffffffffffffffffffffffffffffffffffffffffffffff1916908160001a905350600485901c945080611647906124ba565b9050611565565b5060008414611692576040517f08c379a00000000000000000000000000000000000000000000000000000000081526004016116899061200f565b60405180910390fd5b8091505092915050565b60006116af6116aa84612146565b612121565b9050808382526020820190508260005b858110156116ef57813585016116d5888261184b565b8452602084019350602083019250506001810190506116bf565b5050509392505050565b600061170c61170784612172565b612121565b9050808382526020820190508285602086028201111561172b57600080fd5b60005b8581101561175b57816117418882611875565b84526020840193506020830192505060018101905061172e565b5050509392505050565b60006117786117738461219e565b612121565b90508281526020810184848401111561179057600080fd5b61179b848285612478565b509392505050565b6000813590506117b281612849565b92915050565b600082601f8301126117c957600080fd5b81356117d984826020860161169c565b91505092915050565b600082601f8301126117f357600080fd5b81356118038482602086016116f9565b91505092915050565b60008151905061181b81612860565b92915050565b60008135905061183081612877565b92915050565b6000813590506118458161288e565b92915050565b600082601f83011261185c57600080fd5b813561186c848260208601611765565b91505092915050565b600081359050611884816128a5565b92915050565b600081519050611899816128a5565b92915050565b6000602082840312156118b157600080fd5b60006118bf848285016117a3565b91505092915050565b600080604083850312156118db57600080fd5b60006118e9858286016117a3565b92505060206118fa85828601611875565b9150509250929050565b6000806040838503121561191757600080fd5b600083013567ffffffffffffffff81111561193157600080fd5b61193d858286016117e2565b925050602083013567ffffffffffffffff81111561195a57600080fd5b611966858286016117b8565b9150509250929050565b60006020828403121561198257600080fd5b60006119908482850161180c565b91505092915050565b6000602082840312156119ab57600080fd5b60006119b984828501611821565b91505092915050565b600080604083850312156119d557600080fd5b60006119e385828601611821565b92505060206119f4858286016117a3565b9150509250929050565b600060208284031215611a1057600080fd5b6000611a1e84828501611836565b91505092915050565b600060208284031215611a3957600080fd5b6000611a4784828501611875565b91505092915050565b600060208284031215611a6257600080fd5b6000611a708482850161188a565b91505092915050565b6000611a858383611be9565b905092915050565b6000611a998383611e0d565b60208301905092915050565b611aae8161238e565b82525050565b611ac5611ac08261238e565b612515565b82525050565b6000611ad6826121ef565b611ae0818561222a565b935083602082028501611af2856121cf565b8060005b85811015611b2e5784840389528151611b0f8582611a79565b9450611b1a83612210565b925060208a01995050600181019050611af6565b50829750879550505050505092915050565b6000611b4b826121fa565b611b55818561223b565b9350611b60836121df565b8060005b83811015611b91578151611b788882611a8d565b9750611b838361221d565b925050600181019050611b64565b5085935050505092915050565b611ba7816123a0565b82525050565b611bb6816123ac565b82525050565b611bc58161240c565b82525050565b611bd481612430565b82525050565b611be381612454565b82525050565b6000611bf482612205565b611bfe818561224c565b9350611c0e818560208601612487565b611c17816125d0565b840191505092915050565b6000611c2d82612205565b611c37818561225d565b9350611c47818560208601612487565b611c50816125d0565b840191505092915050565b6000611c6682612205565b611c70818561226e565b9350611c80818560208601612487565b80840191505092915050565b6000611c9960208361225d565b9150611ca4826125ee565b602082019050919050565b6000611cbc60088361226e565b9150611cc782612617565b600882019050919050565b6000611cdf60368361225d565b9150611cea82612640565b604082019050919050565b6000611d02601b8361225d565b9150611d0d8261268f565b602082019050919050565b6000611d2560238361225d565b9150611d30826126b8565b604082019050919050565b6000611d4860018361226e565b9150611d5382612707565b600182019050919050565b6000611d6b60308361226e565b9150611d7682612730565b603082019050919050565b6000611d8e601f8361225d565b9150611d998261277f565b602082019050919050565b6000611db160178361226e565b9150611dbc826127a8565b601782019050919050565b6000611dd460118361226e565b9150611ddf826127d1565b601182019050919050565b6000611df7602f8361225d565b9150611e02826127fa565b604082019050919050565b611e1681612402565b82525050565b611e2581612402565b82525050565b611e3c611e3782612402565b612539565b82525050565b6000611e4d82611caf565b9150611e598285611ab4565b601482019150611e6882611d5e565b9150611e748284611e2b565b602082019150611e8382611d3b565b91508190509392505050565b6000611e9a82611da4565b9150611ea68285611c5b565b9150611eb182611dc7565b9150611ebd8284611c5b565b91508190509392505050565b6000602082019050611ede6000830184611aa5565b92915050565b6000604082019050611ef96000830185611aa5565b611f066020830184611e1c565b9392505050565b60006020820190508181036000830152611f278184611acb565b905092915050565b60006040820190508181036000830152611f498185611b40565b90508181036020830152611f5d8184611acb565b90509392505050565b6000602082019050611f7b6000830184611b9e565b92915050565b6000602082019050611f966000830184611bad565b92915050565b6000602082019050611fb16000830184611bbc565b92915050565b6000602082019050611fcc6000830184611bcb565b92915050565b6000602082019050611fe76000830184611bda565b92915050565b600060208201905081810360008301526120078184611c22565b905092915050565b6000602082019050818103600083015261202881611c8c565b9050919050565b6000602082019050818103600083015261204881611cd2565b9050919050565b6000602082019050818103600083015261206881611cf5565b9050919050565b6000602082019050818103600083015261208881611d18565b9050919050565b600060208201905081810360008301526120a881611d81565b9050919050565b600060208201905081810360008301526120c881611dea565b9050919050565b60006020820190506120e46000830184611e1c565b92915050565b60006060820190506120ff6000830186611e1c565b61210c6020830185611e1c565b6121196040830184611b9e565b949350505050565b600061212b61213c565b905061213782826124e4565b919050565b6000604051905090565b600067ffffffffffffffff821115612161576121606125a1565b5b602082029050602081019050919050565b600067ffffffffffffffff82111561218d5761218c6125a1565b5b602082029050602081019050919050565b600067ffffffffffffffff8211156121b9576121b86125a1565b5b6121c2826125d0565b9050602081019050919050565b6000819050602082019050919050565b6000819050602082019050919050565b600081519050919050565b600081519050919050565b600081519050919050565b6000602082019050919050565b6000602082019050919050565b600082825260208201905092915050565b600082825260208201905092915050565b600082825260208201905092915050565b600082825260208201905092915050565b600081905092915050565b600061228482612402565b915061228f83612402565b9250827fffffffffffffffffffffffffffffffffffffffffffffffffffffffffffffffff038211156122c4576122c3612543565b5b828201905092915050565b60006122da82612402565b91506122e583612402565b9250826122f5576122f4612572565b5b828204905092915050565b600061230b82612402565b915061231683612402565b9250817fffffffffffffffffffffffffffffffffffffffffffffffffffffffffffffffff048311821515161561234f5761234e612543565b5b828202905092915050565b600061236582612402565b915061237083612402565b92508282101561238357612382612543565b5b828203905092915050565b6000612399826123e2565b9050919050565b60008115159050919050565b6000819050919050565b60007fffffffff0000000000000000000000000000000000000000000000000000000082169050919050565b600073ffffffffffffffffffffffffffffffffffffffff82169050919050565b6000819050919050565b60006124178261241e565b9050919050565b6000612429826123e2565b9050919050565b600061243b82612442565b9050919050565b600061244d826123e2565b9050919050565b600061245f82612466565b9050919050565b6000612471826123e2565b9050919050565b82818337600083830152505050565b60005b838110156124a557808201518184015260208101905061248a565b838111156124b4576000848401525b50505050565b60006124c582612402565b915060008214156124d9576124d8612543565b5b600182039050919050565b6124ed826125d0565b810181811067ffffffffffffffff8211171561250c5761250b6125a1565b5b80604052505050565b600061252082612527565b9050919050565b6000612532826125e1565b9050919050565b6000819050919050565b7f4e487b7100000000000000000000000000000000000000000000000000000000600052601160045260246000fd5b7f4e487b7100000000000000000000000000000000000000000000000000000000600052601260045260246000fd5b7f4e487b7100000000000000000000000000000000000000000000000000000000600052604160045260246000fd5b6000601f19601f8301169050919050565b60008160601b9050919050565b7f537472696e67733a20686578206c656e67746820696e73756666696369656e74600082015250565b7f4164647265737320000000000000000000000000000000000000000000000000600082015250565b7f43616e6e6f74206d696e7420746f20747265617375727920616464726573732060008201527f756e74696c2073616c652069732066696e697368656400000000000000000000602082015250565b7f74696d657374616d70206973206e6f742075702d746f2d646174650000000000600082015250565b7f53656e646572206973206e6f742053616c65204d616e61676572206f7220416460008201527f6d696e0000000000000000000000000000000000000000000000000000000000602082015250565b7f2500000000000000000000000000000000000000000000000000000000000000600082015250565b7f20646f6573206e6f742068617665206120636f75706f6e20776974682061206460008201527f6973636f756e742072617465206f662000000000000000000000000000000000602082015250565b7f737461727454696d65206973206c61746572207468616e20656e6454696d6500600082015250565b7f416363657373436f6e74726f6c3a206163636f756e7420000000000000000000600082015250565b7f206973206d697373696e6720726f6c6520000000000000000000000000000000600082015250565b7f416363657373436f6e74726f6c3a2063616e206f6e6c792072656e6f756e636560008201527f20726f6c657320666f722073656c660000000000000000000000000000000000602082015250565b6128528161238e565b811461285d57600080fd5b50565b612869816123a0565b811461287457600080fd5b50565b612880816123ac565b811461288b57600080fd5b50565b612897816123b6565b81146128a257600080fd5b50565b6128ae81612402565b81146128b957600080fd5b5056fea2646970667358221220ee27a3c53eb80554ff4a63b9ca224e427c7e192c0dde6fec8fa410498de520d364736f6c63430008010033",
					"opcodes": "PUSH1 0x80 PUSH1 0x40 MSTORE PUSH4 0x70DC4900 PUSH1 0x5 SSTORE PUSH4 0x70DC4964 PUSH1 0x6 SSTORE PUSH3 0xF4240 PUSH1 0xA PUSH3 0x26 SWAP2 SWAP1 PUSH3 0xAA JUMP JUMPDEST PUSH1 0x7 SSTORE PUSH3 0xF4240 PUSH1 0x1 PUSH3 0x3B SWAP2 SWAP1 PUSH3 0xAA JUMP JUMPDEST PUSH1 0x8 SSTORE PUSH1 0x40 MLOAD DUP1 PUSH1 0x60 ADD PUSH1 0x40 MSTORE DUP1 PUSH2 0x2710 DUP2 MSTORE PUSH1 0x20 ADD TIMESTAMP DUP2 MSTORE PUSH1 0x20 ADD PUSH1 0x0 ISZERO ISZERO DUP2 MSTORE POP PUSH1 0x9 PUSH1 0x0 DUP3 ADD MLOAD DUP2 PUSH1 0x0 ADD SSTORE PUSH1 0x20 DUP3 ADD MLOAD DUP2 PUSH1 0x1 ADD SSTORE PUSH1 0x40 DUP3 ADD MLOAD DUP2 PUSH1 0x2 ADD PUSH1 0x0 PUSH2 0x100 EXP DUP2 SLOAD DUP2 PUSH1 0xFF MUL NOT AND SWAP1 DUP4 ISZERO ISZERO MUL OR SWAP1 SSTORE POP POP POP CALLVALUE DUP1 ISZERO PUSH3 0xA3 JUMPI PUSH1 0x0 DUP1 REVERT JUMPDEST POP PUSH3 0x144 JUMP JUMPDEST PUSH1 0x0 PUSH3 0xB7 DUP3 PUSH3 0x10B JUMP JUMPDEST SWAP2 POP PUSH3 0xC4 DUP4 PUSH3 0x10B JUMP JUMPDEST SWAP3 POP DUP2 PUSH32 0xFFFFFFFFFFFFFFFFFFFFFFFFFFFFFFFFFFFFFFFFFFFFFFFFFFFFFFFFFFFFFFFF DIV DUP4 GT DUP3 ISZERO ISZERO AND ISZERO PUSH3 0x100 JUMPI PUSH3 0xFF PUSH3 0x115 JUMP JUMPDEST JUMPDEST DUP3 DUP3 MUL SWAP1 POP SWAP3 SWAP2 POP POP JUMP JUMPDEST PUSH1 0x0 DUP2 SWAP1 POP SWAP2 SWAP1 POP JUMP JUMPDEST PUSH32 0x4E487B7100000000000000000000000000000000000000000000000000000000 PUSH1 0x0 MSTORE PUSH1 0x11 PUSH1 0x4 MSTORE PUSH1 0x24 PUSH1 0x0 REVERT JUMPDEST PUSH2 0x28F2 DUP1 PUSH3 0x154 PUSH1 0x0 CODECOPY PUSH1 0x0 RETURN INVALID PUSH1 0x80 PUSH1 0x40 MSTORE CALLVALUE DUP1 ISZERO PUSH2 0x10 JUMPI PUSH1 0x0 DUP1 REVERT JUMPDEST POP PUSH1 0x4 CALLDATASIZE LT PUSH2 0x173 JUMPI PUSH1 0x0 CALLDATALOAD PUSH1 0xE0 SHR DUP1 PUSH4 0x8C83FAEB GT PUSH2 0xDE JUMPI DUP1 PUSH4 0xBFF29CEE GT PUSH2 0x97 JUMPI DUP1 PUSH4 0xC5F956AF GT PUSH2 0x71 JUMPI DUP1 PUSH4 0xC5F956AF EQ PUSH2 0x406 JUMPI DUP1 PUSH4 0xCCB98FFC EQ PUSH2 0x424 JUMPI DUP1 PUSH4 0xD547741F EQ PUSH2 0x440 JUMPI DUP1 PUSH4 0xF121DA92 EQ PUSH2 0x45C JUMPI PUSH2 0x173 JUMP JUMPDEST DUP1 PUSH4 0xBFF29CEE EQ PUSH2 0x3BE JUMPI DUP1 PUSH4 0xC0463711 EQ PUSH2 0x3C8 JUMPI DUP1 PUSH4 0xC5DAE48F EQ PUSH2 0x3E8 JUMPI PUSH2 0x173 JUMP JUMPDEST DUP1 PUSH4 0x8C83FAEB EQ PUSH2 0x2FC JUMPI DUP1 PUSH4 0x91232F18 EQ PUSH2 0x31A JUMPI DUP1 PUSH4 0x91D14854 EQ PUSH2 0x324 JUMPI DUP1 PUSH4 0x944044A1 EQ PUSH2 0x354 JUMPI DUP1 PUSH4 0xA217FDDF EQ PUSH2 0x370 JUMPI DUP1 PUSH4 0xAB6C0306 EQ PUSH2 0x38E JUMPI PUSH2 0x173 JUMP JUMPDEST DUP1 PUSH4 0x51F7598C GT PUSH2 0x130 JUMPI DUP1 PUSH4 0x51F7598C EQ PUSH2 0x24A JUMPI DUP1 PUSH4 0x551B42A8 EQ PUSH2 0x266 JUMPI DUP1 PUSH4 0x5CE7E721 EQ PUSH2 0x284 JUMPI DUP1 PUSH4 0x673402E5 EQ PUSH2 0x2A2 JUMPI DUP1 PUSH4 0x682D07D9 EQ PUSH2 0x2C0 JUMPI DUP1 PUSH4 0x68FC01A2 EQ PUSH2 0x2DE JUMPI PUSH2 0x173 JUMP JUMPDEST DUP1 PUSH4 0x1FFC9A7 EQ PUSH2 0x178 JUMPI DUP1 PUSH4 0x248A9CA3 EQ PUSH2 0x1A8 JUMPI DUP1 PUSH4 0x2F2FF15D EQ PUSH2 0x1D8 JUMPI DUP1 PUSH4 0x36568ABE EQ PUSH2 0x1F4 JUMPI DUP1 PUSH4 0x4C0F38C2 EQ PUSH2 0x210 JUMPI DUP1 PUSH4 0x4C9B73DA EQ PUSH2 0x22E JUMPI JUMPDEST PUSH1 0x0 DUP1 REVERT JUMPDEST PUSH2 0x192 PUSH1 0x4 DUP1 CALLDATASIZE SUB DUP2 ADD SWAP1 PUSH2 0x18D SWAP2 SWAP1 PUSH2 0x19FE JUMP JUMPDEST PUSH2 0x478 JUMP JUMPDEST PUSH1 0x40 MLOAD PUSH2 0x19F SWAP2 SWAP1 PUSH2 0x1F66 JUMP JUMPDEST PUSH1 0x40 MLOAD DUP1 SWAP2 SUB SWAP1 RETURN JUMPDEST PUSH2 0x1C2 PUSH1 0x4 DUP1 CALLDATASIZE SUB DUP2 ADD SWAP1 PUSH2 0x1BD SWAP2 SWAP1 PUSH2 0x1999 JUMP JUMPDEST PUSH2 0x4F2 JUMP JUMPDEST PUSH1 0x40 MLOAD PUSH2 0x1CF SWAP2 SWAP1 PUSH2 0x1F81 JUMP JUMPDEST PUSH1 0x40 MLOAD DUP1 SWAP2 SUB SWAP1 RETURN JUMPDEST PUSH2 0x1F2 PUSH1 0x4 DUP1 CALLDATASIZE SUB DUP2 ADD SWAP1 PUSH2 0x1ED SWAP2 SWAP1 PUSH2 0x19C2 JUMP JUMPDEST PUSH2 0x511 JUMP JUMPDEST STOP JUMPDEST PUSH2 0x20E PUSH1 0x4 DUP1 CALLDATASIZE SUB DUP2 ADD SWAP1 PUSH2 0x209 SWAP2 SWAP1 PUSH2 0x19C2 JUMP JUMPDEST PUSH2 0x53A JUMP JUMPDEST STOP JUMPDEST PUSH2 0x218 PUSH2 0x5BD JUMP JUMPDEST PUSH1 0x40 MLOAD PUSH2 0x225 SWAP2 SWAP1 PUSH2 0x20CF JUMP JUMPDEST PUSH1 0x40 MLOAD DUP1 SWAP2 SUB SWAP1 RETURN JUMPDEST PUSH2 0x248 PUSH1 0x4 DUP1 CALLDATASIZE SUB DUP2 ADD SWAP1 PUSH2 0x243 SWAP2 SWAP1 PUSH2 0x1A27 JUMP JUMPDEST PUSH2 0x664 JUMP JUMPDEST STOP JUMPDEST PUSH2 0x264 PUSH1 0x4 DUP1 CALLDATASIZE SUB DUP2 ADD SWAP1 PUSH2 0x25F SWAP2 SWAP1 PUSH2 0x189F JUMP JUMPDEST PUSH2 0x687 JUMP JUMPDEST STOP JUMPDEST PUSH2 0x26E PUSH2 0x6E1 JUMP JUMPDEST PUSH1 0x40 MLOAD PUSH2 0x27B SWAP2 SWAP1 PUSH2 0x1F81 JUMP JUMPDEST PUSH1 0x40 MLOAD DUP1 SWAP2 SUB SWAP1 RETURN JUMPDEST PUSH2 0x28C PUSH2 0x705 JUMP JUMPDEST PUSH1 0x40 MLOAD PUSH2 0x299 SWAP2 SWAP1 PUSH2 0x1FB7 JUMP JUMPDEST PUSH1 0x40 MLOAD DUP1 SWAP2 SUB SWAP1 RETURN JUMPDEST PUSH2 0x2AA PUSH2 0x72B JUMP JUMPDEST PUSH1 0x40 MLOAD PUSH2 0x2B7 SWAP2 SWAP1 PUSH2 0x1F0D JUMP JUMPDEST PUSH1 0x40 MLOAD DUP1 SWAP2 SUB SWAP1 RETURN JUMPDEST PUSH2 0x2C8 PUSH2 0x82B JUMP JUMPDEST PUSH1 0x40 MLOAD PUSH2 0x2D5 SWAP2 SWAP1 PUSH2 0x1F81 JUMP JUMPDEST PUSH1 0x40 MLOAD DUP1 SWAP2 SUB SWAP1 RETURN JUMPDEST PUSH2 0x2E6 PUSH2 0x84F JUMP JUMPDEST PUSH1 0x40 MLOAD PUSH2 0x2F3 SWAP2 SWAP1 PUSH2 0x20CF JUMP JUMPDEST PUSH1 0x40 MLOAD DUP1 SWAP2 SUB SWAP1 RETURN JUMPDEST PUSH2 0x304 PUSH2 0x8F6 JUMP JUMPDEST PUSH1 0x40 MLOAD PUSH2 0x311 SWAP2 SWAP1 PUSH2 0x1F9C JUMP JUMPDEST PUSH1 0x40 MLOAD DUP1 SWAP2 SUB SWAP1 RETURN JUMPDEST PUSH2 0x322 PUSH2 0x91C JUMP JUMPDEST STOP JUMPDEST PUSH2 0x33E PUSH1 0x4 DUP1 CALLDATASIZE SUB DUP2 ADD SWAP1 PUSH2 0x339 SWAP2 SWAP1 PUSH2 0x19C2 JUMP JUMPDEST PUSH2 0xA38 JUMP JUMPDEST PUSH1 0x40 MLOAD PUSH2 0x34B SWAP2 SWAP1 PUSH2 0x1F66 JUMP JUMPDEST PUSH1 0x40 MLOAD DUP1 SWAP2 SUB SWAP1 RETURN JUMPDEST PUSH2 0x36E PUSH1 0x4 DUP1 CALLDATASIZE SUB DUP2 ADD SWAP1 PUSH2 0x369 SWAP2 SWAP1 PUSH2 0x1A27 JUMP JUMPDEST PUSH2 0xAA2 JUMP JUMPDEST STOP JUMPDEST PUSH2 0x378 PUSH2 0xB37 JUMP JUMPDEST PUSH1 0x40 MLOAD PUSH2 0x385 SWAP2 SWAP1 PUSH2 0x1F81 JUMP JUMPDEST PUSH1 0x40 MLOAD DUP1 SWAP2 SUB SWAP1 RETURN JUMPDEST PUSH2 0x3A8 PUSH1 0x4 DUP1 CALLDATASIZE SUB DUP2 ADD SWAP1 PUSH2 0x3A3 SWAP2 SWAP1 PUSH2 0x18C8 JUMP JUMPDEST PUSH2 0xB3E JUMP JUMPDEST PUSH1 0x40 MLOAD PUSH2 0x3B5 SWAP2 SWAP1 PUSH2 0x20CF JUMP JUMPDEST PUSH1 0x40 MLOAD DUP1 SWAP2 SUB SWAP1 RETURN JUMPDEST PUSH2 0x3C6 PUSH2 0xCCF JUMP JUMPDEST STOP JUMPDEST PUSH2 0x3D0 PUSH2 0xCED JUMP JUMPDEST PUSH1 0x40 MLOAD PUSH2 0x3DF SWAP4 SWAP3 SWAP2 SWAP1 PUSH2 0x20EA JUMP JUMPDEST PUSH1 0x40 MLOAD DUP1 SWAP2 SUB SWAP1 RETURN JUMPDEST PUSH2 0x3F0 PUSH2 0xD12 JUMP JUMPDEST PUSH1 0x40 MLOAD PUSH2 0x3FD SWAP2 SWAP1 PUSH2 0x1FD2 JUMP JUMPDEST PUSH1 0x40 MLOAD DUP1 SWAP2 SUB SWAP1 RETURN JUMPDEST PUSH2 0x40E PUSH2 0xD38 JUMP JUMPDEST PUSH1 0x40 MLOAD PUSH2 0x41B SWAP2 SWAP1 PUSH2 0x1EC9 JUMP JUMPDEST PUSH1 0x40 MLOAD DUP1 SWAP2 SUB SWAP1 RETURN JUMPDEST PUSH2 0x43E PUSH1 0x4 DUP1 CALLDATASIZE SUB DUP2 ADD SWAP1 PUSH2 0x439 SWAP2 SWAP1 PUSH2 0x1A27 JUMP JUMPDEST PUSH2 0xD5E JUMP JUMPDEST STOP JUMPDEST PUSH2 0x45A PUSH1 0x4 DUP1 CALLDATASIZE SUB DUP2 ADD SWAP1 PUSH2 0x455 SWAP2 SWAP1 PUSH2 0x19C2 JUMP JUMPDEST PUSH2 0xDF3 JUMP JUMPDEST STOP JUMPDEST PUSH2 0x476 PUSH1 0x4 DUP1 CALLDATASIZE SUB DUP2 ADD SWAP1 PUSH2 0x471 SWAP2 SWAP1 PUSH2 0x1904 JUMP JUMPDEST PUSH2 0xE1C JUMP JUMPDEST STOP JUMPDEST PUSH1 0x0 PUSH32 0x7965DB0B00000000000000000000000000000000000000000000000000000000 PUSH28 0xFFFFFFFFFFFFFFFFFFFFFFFFFFFFFFFFFFFFFFFFFFFFFFFFFFFFFFFF NOT AND DUP3 PUSH28 0xFFFFFFFFFFFFFFFFFFFFFFFFFFFFFFFFFFFFFFFFFFFFFFFFFFFFFFFF NOT AND EQ DUP1 PUSH2 0x4EB JUMPI POP PUSH2 0x4EA DUP3 PUSH2 0xEAF JUMP JUMPDEST JUMPDEST SWAP1 POP SWAP2 SWAP1 POP JUMP JUMPDEST PUSH1 0x0 DUP1 PUSH1 0x0 DUP4 DUP2 MSTORE PUSH1 0x20 ADD SWAP1 DUP2 MSTORE PUSH1 0x20 ADD PUSH1 0x0 KECCAK256 PUSH1 0x1 ADD SLOAD SWAP1 POP SWAP2 SWAP1 POP JUMP JUMPDEST PUSH2 0x51A DUP3 PUSH2 0x4F2 JUMP JUMPDEST PUSH2 0x52B DUP2 PUSH2 0x526 PUSH2 0xF19 JUMP JUMPDEST PUSH2 0xF21 JUMP JUMPDEST PUSH2 0x535 DUP4 DUP4 PUSH2 0xFBE JUMP JUMPDEST POP POP POP JUMP JUMPDEST PUSH2 0x542 PUSH2 0xF19 JUMP JUMPDEST PUSH20 0xFFFFFFFFFFFFFFFFFFFFFFFFFFFFFFFFFFFFFFFF AND DUP2 PUSH20 0xFFFFFFFFFFFFFFFFFFFFFFFFFFFFFFFFFFFFFFFF AND EQ PUSH2 0x5AF JUMPI PUSH1 0x40 MLOAD PUSH32 0x8C379A000000000000000000000000000000000000000000000000000000000 DUP2 MSTORE PUSH1 0x4 ADD PUSH2 0x5A6 SWAP1 PUSH2 0x20AF JUMP JUMPDEST PUSH1 0x40 MLOAD DUP1 SWAP2 SUB SWAP1 REVERT JUMPDEST PUSH2 0x5B9 DUP3 DUP3 PUSH2 0x109E JUMP JUMPDEST POP POP JUMP JUMPDEST PUSH1 0x0 PUSH1 0x1 PUSH1 0x0 SWAP1 SLOAD SWAP1 PUSH2 0x100 EXP SWAP1 DIV PUSH20 0xFFFFFFFFFFFFFFFFFFFFFFFFFFFFFFFFFFFFFFFF AND PUSH20 0xFFFFFFFFFFFFFFFFFFFFFFFFFFFFFFFFFFFFFFFF AND PUSH4 0x4C0F38C2 PUSH1 0x40 MLOAD DUP2 PUSH4 0xFFFFFFFF AND PUSH1 0xE0 SHL DUP2 MSTORE PUSH1 0x4 ADD PUSH1 0x20 PUSH1 0x40 MLOAD DUP1 DUP4 SUB DUP2 DUP7 DUP1 EXTCODESIZE ISZERO DUP1 ISZERO PUSH2 0x627 JUMPI PUSH1 0x0 DUP1 REVERT JUMPDEST POP GAS STATICCALL ISZERO DUP1 ISZERO PUSH2 0x63B JUMPI RETURNDATASIZE PUSH1 0x0 DUP1 RETURNDATACOPY RETURNDATASIZE PUSH1 0x0 REVERT JUMPDEST POP POP POP POP PUSH1 0x40 MLOAD RETURNDATASIZE PUSH1 0x1F NOT PUSH1 0x1F DUP3 ADD AND DUP3 ADD DUP1 PUSH1 0x40 MSTORE POP DUP2 ADD SWAP1 PUSH2 0x65F SWAP2 SWAP1 PUSH2 0x1A50 JUMP JUMPDEST SWAP1 POP SWAP1 JUMP JUMPDEST PUSH2 0x66C PUSH2 0x117F JUMP JUMPDEST PUSH1 0x0 PUSH2 0x678 CALLER DUP4 PUSH2 0xB3E JUMP JUMPDEST SWAP1 POP PUSH2 0x683 DUP2 PUSH2 0x1277 JUMP JUMPDEST POP POP JUMP JUMPDEST PUSH1 0x0 DUP1 SHL PUSH2 0x69C DUP2 PUSH2 0x697 PUSH2 0xF19 JUMP JUMPDEST PUSH2 0xF21 JUMP JUMPDEST DUP2 PUSH1 0x1 PUSH1 0x0 PUSH2 0x100 EXP DUP2 SLOAD DUP2 PUSH20 0xFFFFFFFFFFFFFFFFFFFFFFFFFFFFFFFFFFFFFFFF MUL NOT AND SWAP1 DUP4 PUSH20 0xFFFFFFFFFFFFFFFFFFFFFFFFFFFFFFFFFFFFFFFF AND MUL OR SWAP1 SSTORE POP POP POP JUMP JUMPDEST PUSH32 0x988301AF8238F779281A300DE031815CD01B48E9F1AE47A0F91ED6584213624A DUP2 JUMP JUMPDEST PUSH1 0x2 PUSH1 0x0 SWAP1 SLOAD SWAP1 PUSH2 0x100 EXP SWAP1 DIV PUSH20 0xFFFFFFFFFFFFFFFFFFFFFFFFFFFFFFFFFFFFFFFF AND DUP2 JUMP JUMPDEST PUSH1 0x60 DUP1 PUSH1 0x40 MLOAD DUP1 PUSH1 0x40 ADD PUSH1 0x40 MSTORE DUP1 PUSH1 0x1 DUP2 MSTORE PUSH1 0x20 ADD PUSH32 0x4A00000000000000000000000000000000000000000000000000000000000000 DUP2 MSTORE POP DUP2 PUSH1 0x0 DUP2 MLOAD DUP2 LT PUSH2 0x79E JUMPI PUSH32 0x4E487B7100000000000000000000000000000000000000000000000000000000 PUSH1 0x0 MSTORE PUSH1 0x32 PUSH1 0x4 MSTORE PUSH1 0x24 PUSH1 0x0 REVERT JUMPDEST PUSH1 0x20 MUL PUSH1 0x20 ADD ADD DUP2 SWAP1 MSTORE POP PUSH1 0x40 MLOAD DUP1 PUSH1 0x40 ADD PUSH1 0x40 MSTORE DUP1 PUSH1 0x1 DUP2 MSTORE PUSH1 0x20 ADD PUSH32 0x4B00000000000000000000000000000000000000000000000000000000000000 DUP2 MSTORE POP DUP2 PUSH1 0x1 DUP2 MLOAD DUP2 LT PUSH2 0x819 JUMPI PUSH32 0x4E487B7100000000000000000000000000000000000000000000000000000000 PUSH1 0x0 MSTORE PUSH1 0x32 PUSH1 0x4 MSTORE PUSH1 0x24 PUSH1 0x0 REVERT JUMPDEST PUSH1 0x20 MUL PUSH1 0x20 ADD ADD DUP2 SWAP1 MSTORE POP DUP1 SWAP2 POP POP SWAP1 JUMP JUMPDEST PUSH32 0xA70A2D8710FED9F014C8C2AF50C7C2F6B25748AE4CDED822E03B7BEED44CF3A8 DUP2 JUMP JUMPDEST PUSH1 0x0 PUSH1 0x1 PUSH1 0x0 SWAP1 SLOAD SWAP1 PUSH2 0x100 EXP SWAP1 DIV PUSH20 0xFFFFFFFFFFFFFFFFFFFFFFFFFFFFFFFFFFFFFFFF AND PUSH20 0xFFFFFFFFFFFFFFFFFFFFFFFFFFFFFFFFFFFFFFFF AND PUSH4 0x68FC01A2 PUSH1 0x40 MLOAD DUP2 PUSH4 0xFFFFFFFF AND PUSH1 0xE0 SHL DUP2 MSTORE PUSH1 0x4 ADD PUSH1 0x20 PUSH1 0x40 MLOAD DUP1 DUP4 SUB DUP2 DUP7 DUP1 EXTCODESIZE ISZERO DUP1 ISZERO PUSH2 0x8B9 JUMPI PUSH1 0x0 DUP1 REVERT JUMPDEST POP GAS STATICCALL ISZERO DUP1 ISZERO PUSH2 0x8CD JUMPI RETURNDATASIZE PUSH1 0x0 DUP1 RETURNDATACOPY RETURNDATASIZE PUSH1 0x0 REVERT JUMPDEST POP POP POP POP PUSH1 0x40 MLOAD RETURNDATASIZE PUSH1 0x1F NOT PUSH1 0x1F DUP3 ADD AND DUP3 ADD DUP1 PUSH1 0x40 MSTORE POP DUP2 ADD SWAP1 PUSH2 0x8F1 SWAP2 SWAP1 PUSH2 0x1A50 JUMP JUMPDEST SWAP1 POP SWAP1 JUMP JUMPDEST PUSH1 0x1 PUSH1 0x0 SWAP1 SLOAD SWAP1 PUSH2 0x100 EXP SWAP1 DIV PUSH20 0xFFFFFFFFFFFFFFFFFFFFFFFFFFFFFFFFFFFFFFFF AND DUP2 JUMP JUMPDEST TIMESTAMP PUSH1 0x9 PUSH1 0x1 ADD SLOAD EQ PUSH2 0x963 JUMPI PUSH1 0x40 MLOAD PUSH32 0x8C379A000000000000000000000000000000000000000000000000000000000 DUP2 MSTORE PUSH1 0x4 ADD PUSH2 0x95A SWAP1 PUSH2 0x204F JUMP JUMPDEST PUSH1 0x40 MLOAD DUP1 SWAP2 SUB SWAP1 REVERT JUMPDEST PUSH1 0x6 SLOAD TIMESTAMP GT DUP1 ISZERO PUSH2 0x984 JUMPI POP PUSH1 0x9 PUSH1 0x2 ADD PUSH1 0x0 SWAP1 SLOAD SWAP1 PUSH2 0x100 EXP SWAP1 DIV PUSH1 0xFF AND ISZERO JUMPDEST PUSH2 0x9C3 JUMPI PUSH1 0x40 MLOAD PUSH32 0x8C379A000000000000000000000000000000000000000000000000000000000 DUP2 MSTORE PUSH1 0x4 ADD PUSH2 0x9BA SWAP1 PUSH2 0x202F JUMP JUMPDEST PUSH1 0x40 MLOAD DUP1 SWAP2 SUB SWAP1 REVERT JUMPDEST PUSH1 0x0 PUSH1 0x1 PUSH2 0x9CF PUSH2 0x84F JUMP JUMPDEST PUSH2 0x9D9 SWAP2 SWAP1 PUSH2 0x235A JUMP JUMPDEST PUSH2 0x9E1 PUSH2 0x5BD JUMP JUMPDEST PUSH2 0x9EB SWAP2 SWAP1 PUSH2 0x235A JUMP JUMPDEST SWAP1 POP JUMPDEST PUSH1 0x0 DUP2 GT ISZERO PUSH2 0xA35 JUMPI PUSH2 0xA22 PUSH1 0x4 PUSH1 0x0 SWAP1 SLOAD SWAP1 PUSH2 0x100 EXP SWAP1 DIV PUSH20 0xFFFFFFFFFFFFFFFFFFFFFFFFFFFFFFFFFFFFFFFF AND PUSH2 0x1312 JUMP JUMPDEST DUP1 DUP1 PUSH2 0xA2D SWAP1 PUSH2 0x24BA JUMP JUMPDEST SWAP2 POP POP PUSH2 0x9EE JUMP JUMPDEST POP JUMP JUMPDEST PUSH1 0x0 DUP1 PUSH1 0x0 DUP5 DUP2 MSTORE PUSH1 0x20 ADD SWAP1 DUP2 MSTORE PUSH1 0x20 ADD PUSH1 0x0 KECCAK256 PUSH1 0x0 ADD PUSH1 0x0 DUP4 PUSH20 0xFFFFFFFFFFFFFFFFFFFFFFFFFFFFFFFFFFFFFFFF AND PUSH20 0xFFFFFFFFFFFFFFFFFFFFFFFFFFFFFFFFFFFFFFFF AND DUP2 MSTORE PUSH1 0x20 ADD SWAP1 DUP2 MSTORE PUSH1 0x20 ADD PUSH1 0x0 KECCAK256 PUSH1 0x0 SWAP1 SLOAD SWAP1 PUSH2 0x100 EXP SWAP1 DIV PUSH1 0xFF AND SWAP1 POP SWAP3 SWAP2 POP POP JUMP JUMPDEST PUSH2 0xAD3 PUSH32 0x988301AF8238F779281A300DE031815CD01B48E9F1AE47A0F91ED6584213624A PUSH2 0xACE PUSH2 0xF19 JUMP JUMPDEST PUSH2 0xA38 JUMP JUMPDEST DUP1 PUSH2 0xAEE JUMPI POP PUSH2 0xAED PUSH1 0x0 DUP1 SHL PUSH2 0xAE8 PUSH2 0xF19 JUMP JUMPDEST PUSH2 0xA38 JUMP JUMPDEST JUMPDEST PUSH2 0xB2D JUMPI PUSH1 0x40 MLOAD PUSH32 0x8C379A000000000000000000000000000000000000000000000000000000000 DUP2 MSTORE PUSH1 0x4 ADD PUSH2 0xB24 SWAP1 PUSH2 0x206F JUMP JUMPDEST PUSH1 0x40 MLOAD DUP1 SWAP2 SUB SWAP1 REVERT JUMPDEST DUP1 PUSH1 0x5 DUP2 SWAP1 SSTORE POP POP JUMP JUMPDEST PUSH1 0x0 DUP1 SHL DUP2 JUMP JUMPDEST PUSH1 0x0 TIMESTAMP PUSH1 0x9 PUSH1 0x1 ADD SLOAD EQ PUSH2 0xB87 JUMPI PUSH1 0x40 MLOAD PUSH32 0x8C379A000000000000000000000000000000000000000000000000000000000 DUP2 MSTORE PUSH1 0x4 ADD PUSH2 0xB7E SWAP1 PUSH2 0x204F JUMP JUMPDEST PUSH1 0x40 MLOAD DUP1 SWAP2 SUB SWAP1 REVERT JUMPDEST PUSH1 0x2 PUSH1 0x0 SWAP1 SLOAD SWAP1 PUSH2 0x100 EXP SWAP1 DIV PUSH20 0xFFFFFFFFFFFFFFFFFFFFFFFFFFFFFFFFFFFFFFFF AND PUSH20 0xFFFFFFFFFFFFFFFFFFFFFFFFFFFFFFFFFFFFFFFF AND PUSH4 0x2080179D DUP5 DUP5 PUSH1 0x40 MLOAD DUP4 PUSH4 0xFFFFFFFF AND PUSH1 0xE0 SHL DUP2 MSTORE PUSH1 0x4 ADD PUSH2 0xBE4 SWAP3 SWAP2 SWAP1 PUSH2 0x1EE4 JUMP JUMPDEST PUSH1 0x20 PUSH1 0x40 MLOAD DUP1 DUP4 SUB DUP2 DUP7 DUP1 EXTCODESIZE ISZERO DUP1 ISZERO PUSH2 0xBFC JUMPI PUSH1 0x0 DUP1 REVERT JUMPDEST POP GAS STATICCALL ISZERO DUP1 ISZERO PUSH2 0xC10 JUMPI RETURNDATASIZE PUSH1 0x0 DUP1 RETURNDATACOPY RETURNDATASIZE PUSH1 0x0 REVERT JUMPDEST POP POP POP POP PUSH1 0x40 MLOAD RETURNDATASIZE PUSH1 0x1F NOT PUSH1 0x1F DUP3 ADD AND DUP3 ADD DUP1 PUSH1 0x40 MSTORE POP DUP2 ADD SWAP1 PUSH2 0xC34 SWAP2 SWAP1 PUSH2 0x1970 JUMP JUMPDEST DUP4 DUP4 PUSH1 0x40 MLOAD PUSH1 0x20 ADD PUSH2 0xC47 SWAP3 SWAP2 SWAP1 PUSH2 0x1E42 JUMP JUMPDEST PUSH1 0x40 MLOAD PUSH1 0x20 DUP2 DUP4 SUB SUB DUP2 MSTORE SWAP1 PUSH1 0x40 MSTORE SWAP1 PUSH2 0xC97 JUMPI PUSH1 0x40 MLOAD PUSH32 0x8C379A000000000000000000000000000000000000000000000000000000000 DUP2 MSTORE PUSH1 0x4 ADD PUSH2 0xC8E SWAP2 SWAP1 PUSH2 0x1FED JUMP JUMPDEST PUSH1 0x40 MLOAD DUP1 SWAP2 SUB SWAP1 REVERT JUMPDEST POP PUSH1 0x0 DUP3 PUSH1 0x64 PUSH2 0xCA7 SWAP2 SWAP1 PUSH2 0x235A JUMP JUMPDEST PUSH1 0x64 PUSH1 0x9 PUSH1 0x0 ADD SLOAD PUSH2 0xCB9 SWAP2 SWAP1 PUSH2 0x22CF JUMP JUMPDEST PUSH2 0xCC3 SWAP2 SWAP1 PUSH2 0x2300 JUMP JUMPDEST SWAP1 POP DUP1 SWAP2 POP POP SWAP3 SWAP2 POP POP JUMP JUMPDEST PUSH2 0xCD7 PUSH2 0x117F JUMP JUMPDEST PUSH1 0x0 PUSH1 0x9 PUSH1 0x0 ADD SLOAD SWAP1 POP PUSH2 0xCEA DUP2 PUSH2 0x1277 JUMP JUMPDEST POP JUMP JUMPDEST PUSH1 0x9 DUP1 PUSH1 0x0 ADD SLOAD SWAP1 DUP1 PUSH1 0x1 ADD SLOAD SWAP1 DUP1 PUSH1 0x2 ADD PUSH1 0x0 SWAP1 SLOAD SWAP1 PUSH2 0x100 EXP SWAP1 DIV PUSH1 0xFF AND SWAP1 POP DUP4 JUMP JUMPDEST PUSH1 0x3 PUSH1 0x0 SWAP1 SLOAD SWAP1 PUSH2 0x100 EXP SWAP1 DIV PUSH20 0xFFFFFFFFFFFFFFFFFFFFFFFFFFFFFFFFFFFFFFFF AND DUP2 JUMP JUMPDEST PUSH1 0x4 PUSH1 0x0 SWAP1 SLOAD SWAP1 PUSH2 0x100 EXP SWAP1 DIV PUSH20 0xFFFFFFFFFFFFFFFFFFFFFFFFFFFFFFFFFFFFFFFF AND DUP2 JUMP JUMPDEST PUSH2 0xD8F PUSH32 0x988301AF8238F779281A300DE031815CD01B48E9F1AE47A0F91ED6584213624A PUSH2 0xD8A PUSH2 0xF19 JUMP JUMPDEST PUSH2 0xA38 JUMP JUMPDEST DUP1 PUSH2 0xDAA JUMPI POP PUSH2 0xDA9 PUSH1 0x0 DUP1 SHL PUSH2 0xDA4 PUSH2 0xF19 JUMP JUMPDEST PUSH2 0xA38 JUMP JUMPDEST JUMPDEST PUSH2 0xDE9 JUMPI PUSH1 0x40 MLOAD PUSH32 0x8C379A000000000000000000000000000000000000000000000000000000000 DUP2 MSTORE PUSH1 0x4 ADD PUSH2 0xDE0 SWAP1 PUSH2 0x206F JUMP JUMPDEST PUSH1 0x40 MLOAD DUP1 SWAP2 SUB SWAP1 REVERT JUMPDEST DUP1 PUSH1 0x6 DUP2 SWAP1 SSTORE POP POP JUMP JUMPDEST PUSH2 0xDFC DUP3 PUSH2 0x4F2 JUMP JUMPDEST PUSH2 0xE0D DUP2 PUSH2 0xE08 PUSH2 0xF19 JUMP JUMPDEST PUSH2 0xF21 JUMP JUMPDEST PUSH2 0xE17 DUP4 DUP4 PUSH2 0x109E JUMP JUMPDEST POP POP POP JUMP JUMPDEST PUSH1 0x1 PUSH1 0x0 SWAP1 SLOAD SWAP1 PUSH2 0x100 EXP SWAP1 DIV PUSH20 0xFFFFFFFFFFFFFFFFFFFFFFFFFFFFFFFFFFFFFFFF AND PUSH20 0xFFFFFFFFFFFFFFFFFFFFFFFFFFFFFFFFFFFFFFFF AND PUSH4 0xF121DA92 DUP4 DUP4 PUSH1 0x40 MLOAD DUP4 PUSH4 0xFFFFFFFF AND PUSH1 0xE0 SHL DUP2 MSTORE PUSH1 0x4 ADD PUSH2 0xE79 SWAP3 SWAP2 SWAP1 PUSH2 0x1F2F JUMP JUMPDEST PUSH1 0x0 PUSH1 0x40 MLOAD DUP1 DUP4 SUB DUP2 PUSH1 0x0 DUP8 DUP1 EXTCODESIZE ISZERO DUP1 ISZERO PUSH2 0xE93 JUMPI PUSH1 0x0 DUP1 REVERT JUMPDEST POP GAS CALL ISZERO DUP1 ISZERO PUSH2 0xEA7 JUMPI RETURNDATASIZE PUSH1 0x0 DUP1 RETURNDATACOPY RETURNDATASIZE PUSH1 0x0 REVERT JUMPDEST POP POP POP POP POP POP JUMP JUMPDEST PUSH1 0x0 PUSH32 0x1FFC9A700000000000000000000000000000000000000000000000000000000 PUSH28 0xFFFFFFFFFFFFFFFFFFFFFFFFFFFFFFFFFFFFFFFFFFFFFFFFFFFFFFFF NOT AND DUP3 PUSH28 0xFFFFFFFFFFFFFFFFFFFFFFFFFFFFFFFFFFFFFFFFFFFFFFFFFFFFFFFF NOT AND EQ SWAP1 POP SWAP2 SWAP1 POP JUMP JUMPDEST PUSH1 0x0 CALLER SWAP1 POP SWAP1 JUMP JUMPDEST PUSH2 0xF2B DUP3 DUP3 PUSH2 0xA38 JUMP JUMPDEST PUSH2 0xFBA JUMPI PUSH2 0xF50 DUP2 PUSH20 0xFFFFFFFFFFFFFFFFFFFFFFFFFFFFFFFFFFFFFFFF AND PUSH1 0x14 PUSH2 0x13A2 JUMP JUMPDEST PUSH2 0xF5E DUP4 PUSH1 0x0 SHR PUSH1 0x20 PUSH2 0x13A2 JUMP JUMPDEST PUSH1 0x40 MLOAD PUSH1 0x20 ADD PUSH2 0xF6F SWAP3 SWAP2 SWAP1 PUSH2 0x1E8F JUMP JUMPDEST PUSH1 0x40 MLOAD PUSH1 0x20 DUP2 DUP4 SUB SUB DUP2 MSTORE SWAP1 PUSH1 0x40 MSTORE PUSH1 0x40 MLOAD PUSH32 0x8C379A000000000000000000000000000000000000000000000000000000000 DUP2 MSTORE PUSH1 0x4 ADD PUSH2 0xFB1 SWAP2 SWAP1 PUSH2 0x1FED JUMP JUMPDEST PUSH1 0x40 MLOAD DUP1 SWAP2 SUB SWAP1 REVERT JUMPDEST POP POP JUMP JUMPDEST PUSH2 0xFC8 DUP3 DUP3 PUSH2 0xA38 JUMP JUMPDEST PUSH2 0x109A JUMPI PUSH1 0x1 PUSH1 0x0 DUP1 DUP5 DUP2 MSTORE PUSH1 0x20 ADD SWAP1 DUP2 MSTORE PUSH1 0x20 ADD PUSH1 0x0 KECCAK256 PUSH1 0x0 ADD PUSH1 0x0 DUP4 PUSH20 0xFFFFFFFFFFFFFFFFFFFFFFFFFFFFFFFFFFFFFFFF AND PUSH20 0xFFFFFFFFFFFFFFFFFFFFFFFFFFFFFFFFFFFFFFFF AND DUP2 MSTORE PUSH1 0x20 ADD SWAP1 DUP2 MSTORE PUSH1 0x20 ADD PUSH1 0x0 KECCAK256 PUSH1 0x0 PUSH2 0x100 EXP DUP2 SLOAD DUP2 PUSH1 0xFF MUL NOT AND SWAP1 DUP4 ISZERO ISZERO MUL OR SWAP1 SSTORE POP PUSH2 0x103F PUSH2 0xF19 JUMP JUMPDEST PUSH20 0xFFFFFFFFFFFFFFFFFFFFFFFFFFFFFFFFFFFFFFFF AND DUP2 PUSH20 0xFFFFFFFFFFFFFFFFFFFFFFFFFFFFFFFFFFFFFFFF AND DUP4 PUSH32 0x2F8788117E7EFF1D82E926EC794901D17C78024A50270940304540A733656F0D PUSH1 0x40 MLOAD PUSH1 0x40 MLOAD DUP1 SWAP2 SUB SWAP1 LOG4 JUMPDEST POP POP JUMP JUMPDEST PUSH2 0x10A8 DUP3 DUP3 PUSH2 0xA38 JUMP JUMPDEST ISZERO PUSH2 0x117B JUMPI PUSH1 0x0 DUP1 PUSH1 0x0 DUP5 DUP2 MSTORE PUSH1 0x20 ADD SWAP1 DUP2 MSTORE PUSH1 0x20 ADD PUSH1 0x0 KECCAK256 PUSH1 0x0 ADD PUSH1 0x0 DUP4 PUSH20 0xFFFFFFFFFFFFFFFFFFFFFFFFFFFFFFFFFFFFFFFF AND PUSH20 0xFFFFFFFFFFFFFFFFFFFFFFFFFFFFFFFFFFFFFFFF AND DUP2 MSTORE PUSH1 0x20 ADD SWAP1 DUP2 MSTORE PUSH1 0x20 ADD PUSH1 0x0 KECCAK256 PUSH1 0x0 PUSH2 0x100 EXP DUP2 SLOAD DUP2 PUSH1 0xFF MUL NOT AND SWAP1 DUP4 ISZERO ISZERO MUL OR SWAP1 SSTORE POP PUSH2 0x1120 PUSH2 0xF19 JUMP JUMPDEST PUSH20 0xFFFFFFFFFFFFFFFFFFFFFFFFFFFFFFFFFFFFFFFF AND DUP2 PUSH20 0xFFFFFFFFFFFFFFFFFFFFFFFFFFFFFFFFFFFFFFFF AND DUP4 PUSH32 0xF6391F5C32D9C69D2A47EA670B442974B53935D1EDC7FD64EB21E047A839171B PUSH1 0x40 MLOAD PUSH1 0x40 MLOAD DUP1 SWAP2 SUB SWAP1 LOG4 JUMPDEST POP POP JUMP JUMPDEST PUSH1 0x6 SLOAD PUSH1 0x5 SLOAD GT ISZERO PUSH2 0x11C6 JUMPI PUSH1 0x40 MLOAD PUSH32 0x8C379A000000000000000000000000000000000000000000000000000000000 DUP2 MSTORE PUSH1 0x4 ADD PUSH2 0x11BD SWAP1 PUSH2 0x208F JUMP JUMPDEST PUSH1 0x40 MLOAD DUP1 SWAP2 SUB SWAP1 REVERT JUMPDEST PUSH3 0xF4240 PUSH1 0x1 PUSH2 0x11D6 SWAP2 SWAP1 PUSH2 0x2300 JUMP JUMPDEST PUSH1 0x3C PUSH1 0x5 SLOAD TIMESTAMP PUSH2 0x11E6 SWAP2 SWAP1 PUSH2 0x235A JUMP JUMPDEST PUSH2 0x11F0 SWAP2 SWAP1 PUSH2 0x22CF JUMP JUMPDEST PUSH2 0x11FA SWAP2 SWAP1 PUSH2 0x2300 JUMP JUMPDEST PUSH1 0x7 SLOAD PUSH2 0x1207 SWAP2 SWAP1 PUSH2 0x235A JUMP JUMPDEST PUSH1 0x9 PUSH1 0x0 ADD DUP2 SWAP1 SSTORE POP TIMESTAMP PUSH1 0x9 PUSH1 0x1 ADD DUP2 SWAP1 SSTORE POP PUSH1 0x5 SLOAD TIMESTAMP LT ISZERO DUP1 ISZERO PUSH2 0x122E JUMPI POP PUSH1 0x6 SLOAD TIMESTAMP GT ISZERO JUMPDEST ISZERO PUSH2 0x1256 JUMPI PUSH1 0x1 PUSH1 0x9 PUSH1 0x2 ADD PUSH1 0x0 PUSH2 0x100 EXP DUP2 SLOAD DUP2 PUSH1 0xFF MUL NOT AND SWAP1 DUP4 ISZERO ISZERO MUL OR SWAP1 SSTORE POP PUSH2 0x1275 JUMP JUMPDEST PUSH1 0x0 PUSH1 0x9 PUSH1 0x2 ADD PUSH1 0x0 PUSH2 0x100 EXP DUP2 SLOAD DUP2 PUSH1 0xFF MUL NOT AND SWAP1 DUP4 ISZERO ISZERO MUL OR SWAP1 SSTORE POP JUMPDEST JUMP JUMPDEST PUSH1 0x3 PUSH1 0x0 SWAP1 SLOAD SWAP1 PUSH2 0x100 EXP SWAP1 DIV PUSH20 0xFFFFFFFFFFFFFFFFFFFFFFFFFFFFFFFFFFFFFFFF AND PUSH20 0xFFFFFFFFFFFFFFFFFFFFFFFFFFFFFFFFFFFFFFFF AND PUSH4 0x532B2913 CALLER DUP4 PUSH1 0x40 MLOAD DUP4 PUSH4 0xFFFFFFFF AND PUSH1 0xE0 SHL DUP2 MSTORE PUSH1 0x4 ADD PUSH2 0x12D4 SWAP3 SWAP2 SWAP1 PUSH2 0x1EE4 JUMP JUMPDEST PUSH1 0x0 PUSH1 0x40 MLOAD DUP1 DUP4 SUB DUP2 PUSH1 0x0 DUP8 DUP1 EXTCODESIZE ISZERO DUP1 ISZERO PUSH2 0x12EE JUMPI PUSH1 0x0 DUP1 REVERT JUMPDEST POP GAS CALL ISZERO DUP1 ISZERO PUSH2 0x1302 JUMPI RETURNDATASIZE PUSH1 0x0 DUP1 RETURNDATACOPY RETURNDATASIZE PUSH1 0x0 REVERT JUMPDEST POP POP POP POP PUSH2 0x130F CALLER PUSH2 0x1312 JUMP JUMPDEST POP JUMP JUMPDEST PUSH1 0x1 PUSH1 0x0 SWAP1 SLOAD SWAP1 PUSH2 0x100 EXP SWAP1 DIV PUSH20 0xFFFFFFFFFFFFFFFFFFFFFFFFFFFFFFFFFFFFFFFF AND PUSH20 0xFFFFFFFFFFFFFFFFFFFFFFFFFFFFFFFFFFFFFFFF AND PUSH4 0x55676590 DUP3 PUSH1 0x40 MLOAD DUP3 PUSH4 0xFFFFFFFF AND PUSH1 0xE0 SHL DUP2 MSTORE PUSH1 0x4 ADD PUSH2 0x136D SWAP2 SWAP1 PUSH2 0x1EC9 JUMP JUMPDEST PUSH1 0x0 PUSH1 0x40 MLOAD DUP1 DUP4 SUB DUP2 PUSH1 0x0 DUP8 DUP1 EXTCODESIZE ISZERO DUP1 ISZERO PUSH2 0x1387 JUMPI PUSH1 0x0 DUP1 REVERT JUMPDEST POP GAS CALL ISZERO DUP1 ISZERO PUSH2 0x139B JUMPI RETURNDATASIZE PUSH1 0x0 DUP1 RETURNDATACOPY RETURNDATASIZE PUSH1 0x0 REVERT JUMPDEST POP POP POP POP POP JUMP JUMPDEST PUSH1 0x60 PUSH1 0x0 PUSH1 0x2 DUP4 PUSH1 0x2 PUSH2 0x13B5 SWAP2 SWAP1 PUSH2 0x2300 JUMP JUMPDEST PUSH2 0x13BF SWAP2 SWAP1 PUSH2 0x2279 JUMP JUMPDEST PUSH8 0xFFFFFFFFFFFFFFFF DUP2 GT ISZERO PUSH2 0x13FE JUMPI PUSH32 0x4E487B7100000000000000000000000000000000000000000000000000000000 PUSH1 0x0 MSTORE PUSH1 0x41 PUSH1 0x4 MSTORE PUSH1 0x24 PUSH1 0x0 REVERT JUMPDEST PUSH1 0x40 MLOAD SWAP1 DUP1 DUP3 MSTORE DUP1 PUSH1 0x1F ADD PUSH1 0x1F NOT AND PUSH1 0x20 ADD DUP3 ADD PUSH1 0x40 MSTORE DUP1 ISZERO PUSH2 0x1430 JUMPI DUP2 PUSH1 0x20 ADD PUSH1 0x1 DUP3 MUL DUP1 CALLDATASIZE DUP4 CALLDATACOPY DUP1 DUP3 ADD SWAP2 POP POP SWAP1 POP JUMPDEST POP SWAP1 POP PUSH32 0x3000000000000000000000000000000000000000000000000000000000000000 DUP2 PUSH1 0x0 DUP2 MLOAD DUP2 LT PUSH2 0x148E JUMPI PUSH32 0x4E487B7100000000000000000000000000000000000000000000000000000000 PUSH1 0x0 MSTORE PUSH1 0x32 PUSH1 0x4 MSTORE PUSH1 0x24 PUSH1 0x0 REVERT JUMPDEST PUSH1 0x20 ADD ADD SWAP1 PUSH31 0xFFFFFFFFFFFFFFFFFFFFFFFFFFFFFFFFFFFFFFFFFFFFFFFFFFFFFFFFFFFFFF NOT AND SWAP1 DUP2 PUSH1 0x0 BYTE SWAP1 MSTORE8 POP PUSH32 0x7800000000000000000000000000000000000000000000000000000000000000 DUP2 PUSH1 0x1 DUP2 MLOAD DUP2 LT PUSH2 0x1518 JUMPI PUSH32 0x4E487B7100000000000000000000000000000000000000000000000000000000 PUSH1 0x0 MSTORE PUSH1 0x32 PUSH1 0x4 MSTORE PUSH1 0x24 PUSH1 0x0 REVERT JUMPDEST PUSH1 0x20 ADD ADD SWAP1 PUSH31 0xFFFFFFFFFFFFFFFFFFFFFFFFFFFFFFFFFFFFFFFFFFFFFFFFFFFFFFFFFFFFFF NOT AND SWAP1 DUP2 PUSH1 0x0 BYTE SWAP1 MSTORE8 POP PUSH1 0x0 PUSH1 0x1 DUP5 PUSH1 0x2 PUSH2 0x1558 SWAP2 SWAP1 PUSH2 0x2300 JUMP JUMPDEST PUSH2 0x1562 SWAP2 SWAP1 PUSH2 0x2279 JUMP JUMPDEST SWAP1 POP JUMPDEST PUSH1 0x1 DUP2 GT ISZERO PUSH2 0x164E JUMPI PUSH32 0x3031323334353637383961626364656600000000000000000000000000000000 PUSH1 0xF DUP7 AND PUSH1 0x10 DUP2 LT PUSH2 0x15CA JUMPI PUSH32 0x4E487B7100000000000000000000000000000000000000000000000000000000 PUSH1 0x0 MSTORE PUSH1 0x32 PUSH1 0x4 MSTORE PUSH1 0x24 PUSH1 0x0 REVERT JUMPDEST BYTE PUSH1 0xF8 SHL DUP3 DUP3 DUP2 MLOAD DUP2 LT PUSH2 0x1607 JUMPI PUSH32 0x4E487B7100000000000000000000000000000000000000000000000000000000 PUSH1 0x0 MSTORE PUSH1 0x32 PUSH1 0x4 MSTORE PUSH1 0x24 PUSH1 0x0 REVERT JUMPDEST PUSH1 0x20 ADD ADD SWAP1 PUSH31 0xFFFFFFFFFFFFFFFFFFFFFFFFFFFFFFFFFFFFFFFFFFFFFFFFFFFFFFFFFFFFFF NOT AND SWAP1 DUP2 PUSH1 0x0 BYTE SWAP1 MSTORE8 POP PUSH1 0x4 DUP6 SWAP1 SHR SWAP5 POP DUP1 PUSH2 0x1647 SWAP1 PUSH2 0x24BA JUMP JUMPDEST SWAP1 POP PUSH2 0x1565 JUMP JUMPDEST POP PUSH1 0x0 DUP5 EQ PUSH2 0x1692 JUMPI PUSH1 0x40 MLOAD PUSH32 0x8C379A000000000000000000000000000000000000000000000000000000000 DUP2 MSTORE PUSH1 0x4 ADD PUSH2 0x1689 SWAP1 PUSH2 0x200F JUMP JUMPDEST PUSH1 0x40 MLOAD DUP1 SWAP2 SUB SWAP1 REVERT JUMPDEST DUP1 SWAP2 POP POP SWAP3 SWAP2 POP POP JUMP JUMPDEST PUSH1 0x0 PUSH2 0x16AF PUSH2 0x16AA DUP5 PUSH2 0x2146 JUMP JUMPDEST PUSH2 0x2121 JUMP JUMPDEST SWAP1 POP DUP1 DUP4 DUP3 MSTORE PUSH1 0x20 DUP3 ADD SWAP1 POP DUP3 PUSH1 0x0 JUMPDEST DUP6 DUP2 LT ISZERO PUSH2 0x16EF JUMPI DUP2 CALLDATALOAD DUP6 ADD PUSH2 0x16D5 DUP9 DUP3 PUSH2 0x184B JUMP JUMPDEST DUP5 MSTORE PUSH1 0x20 DUP5 ADD SWAP4 POP PUSH1 0x20 DUP4 ADD SWAP3 POP POP PUSH1 0x1 DUP2 ADD SWAP1 POP PUSH2 0x16BF JUMP JUMPDEST POP POP POP SWAP4 SWAP3 POP POP POP JUMP JUMPDEST PUSH1 0x0 PUSH2 0x170C PUSH2 0x1707 DUP5 PUSH2 0x2172 JUMP JUMPDEST PUSH2 0x2121 JUMP JUMPDEST SWAP1 POP DUP1 DUP4 DUP3 MSTORE PUSH1 0x20 DUP3 ADD SWAP1 POP DUP3 DUP6 PUSH1 0x20 DUP7 MUL DUP3 ADD GT ISZERO PUSH2 0x172B JUMPI PUSH1 0x0 DUP1 REVERT JUMPDEST PUSH1 0x0 JUMPDEST DUP6 DUP2 LT ISZERO PUSH2 0x175B JUMPI DUP2 PUSH2 0x1741 DUP9 DUP3 PUSH2 0x1875 JUMP JUMPDEST DUP5 MSTORE PUSH1 0x20 DUP5 ADD SWAP4 POP PUSH1 0x20 DUP4 ADD SWAP3 POP POP PUSH1 0x1 DUP2 ADD SWAP1 POP PUSH2 0x172E JUMP JUMPDEST POP POP POP SWAP4 SWAP3 POP POP POP JUMP JUMPDEST PUSH1 0x0 PUSH2 0x1778 PUSH2 0x1773 DUP5 PUSH2 0x219E JUMP JUMPDEST PUSH2 0x2121 JUMP JUMPDEST SWAP1 POP DUP3 DUP2 MSTORE PUSH1 0x20 DUP2 ADD DUP5 DUP5 DUP5 ADD GT ISZERO PUSH2 0x1790 JUMPI PUSH1 0x0 DUP1 REVERT JUMPDEST PUSH2 0x179B DUP5 DUP3 DUP6 PUSH2 0x2478 JUMP JUMPDEST POP SWAP4 SWAP3 POP POP POP JUMP JUMPDEST PUSH1 0x0 DUP2 CALLDATALOAD SWAP1 POP PUSH2 0x17B2 DUP2 PUSH2 0x2849 JUMP JUMPDEST SWAP3 SWAP2 POP POP JUMP JUMPDEST PUSH1 0x0 DUP3 PUSH1 0x1F DUP4 ADD SLT PUSH2 0x17C9 JUMPI PUSH1 0x0 DUP1 REVERT JUMPDEST DUP2 CALLDATALOAD PUSH2 0x17D9 DUP5 DUP3 PUSH1 0x20 DUP7 ADD PUSH2 0x169C JUMP JUMPDEST SWAP2 POP POP SWAP3 SWAP2 POP POP JUMP JUMPDEST PUSH1 0x0 DUP3 PUSH1 0x1F DUP4 ADD SLT PUSH2 0x17F3 JUMPI PUSH1 0x0 DUP1 REVERT JUMPDEST DUP2 CALLDATALOAD PUSH2 0x1803 DUP5 DUP3 PUSH1 0x20 DUP7 ADD PUSH2 0x16F9 JUMP JUMPDEST SWAP2 POP POP SWAP3 SWAP2 POP POP JUMP JUMPDEST PUSH1 0x0 DUP2 MLOAD SWAP1 POP PUSH2 0x181B DUP2 PUSH2 0x2860 JUMP JUMPDEST SWAP3 SWAP2 POP POP JUMP JUMPDEST PUSH1 0x0 DUP2 CALLDATALOAD SWAP1 POP PUSH2 0x1830 DUP2 PUSH2 0x2877 JUMP JUMPDEST SWAP3 SWAP2 POP POP JUMP JUMPDEST PUSH1 0x0 DUP2 CALLDATALOAD SWAP1 POP PUSH2 0x1845 DUP2 PUSH2 0x288E JUMP JUMPDEST SWAP3 SWAP2 POP POP JUMP JUMPDEST PUSH1 0x0 DUP3 PUSH1 0x1F DUP4 ADD SLT PUSH2 0x185C JUMPI PUSH1 0x0 DUP1 REVERT JUMPDEST DUP2 CALLDATALOAD PUSH2 0x186C DUP5 DUP3 PUSH1 0x20 DUP7 ADD PUSH2 0x1765 JUMP JUMPDEST SWAP2 POP POP SWAP3 SWAP2 POP POP JUMP JUMPDEST PUSH1 0x0 DUP2 CALLDATALOAD SWAP1 POP PUSH2 0x1884 DUP2 PUSH2 0x28A5 JUMP JUMPDEST SWAP3 SWAP2 POP POP JUMP JUMPDEST PUSH1 0x0 DUP2 MLOAD SWAP1 POP PUSH2 0x1899 DUP2 PUSH2 0x28A5 JUMP JUMPDEST SWAP3 SWAP2 POP POP JUMP JUMPDEST PUSH1 0x0 PUSH1 0x20 DUP3 DUP5 SUB SLT ISZERO PUSH2 0x18B1 JUMPI PUSH1 0x0 DUP1 REVERT JUMPDEST PUSH1 0x0 PUSH2 0x18BF DUP5 DUP3 DUP6 ADD PUSH2 0x17A3 JUMP JUMPDEST SWAP2 POP POP SWAP3 SWAP2 POP POP JUMP JUMPDEST PUSH1 0x0 DUP1 PUSH1 0x40 DUP4 DUP6 SUB SLT ISZERO PUSH2 0x18DB JUMPI PUSH1 0x0 DUP1 REVERT JUMPDEST PUSH1 0x0 PUSH2 0x18E9 DUP6 DUP3 DUP7 ADD PUSH2 0x17A3 JUMP JUMPDEST SWAP3 POP POP PUSH1 0x20 PUSH2 0x18FA DUP6 DUP3 DUP7 ADD PUSH2 0x1875 JUMP JUMPDEST SWAP2 POP POP SWAP3 POP SWAP3 SWAP1 POP JUMP JUMPDEST PUSH1 0x0 DUP1 PUSH1 0x40 DUP4 DUP6 SUB SLT ISZERO PUSH2 0x1917 JUMPI PUSH1 0x0 DUP1 REVERT JUMPDEST PUSH1 0x0 DUP4 ADD CALLDATALOAD PUSH8 0xFFFFFFFFFFFFFFFF DUP2 GT ISZERO PUSH2 0x1931 JUMPI PUSH1 0x0 DUP1 REVERT JUMPDEST PUSH2 0x193D DUP6 DUP3 DUP7 ADD PUSH2 0x17E2 JUMP JUMPDEST SWAP3 POP POP PUSH1 0x20 DUP4 ADD CALLDATALOAD PUSH8 0xFFFFFFFFFFFFFFFF DUP2 GT ISZERO PUSH2 0x195A JUMPI PUSH1 0x0 DUP1 REVERT JUMPDEST PUSH2 0x1966 DUP6 DUP3 DUP7 ADD PUSH2 0x17B8 JUMP JUMPDEST SWAP2 POP POP SWAP3 POP SWAP3 SWAP1 POP JUMP JUMPDEST PUSH1 0x0 PUSH1 0x20 DUP3 DUP5 SUB SLT ISZERO PUSH2 0x1982 JUMPI PUSH1 0x0 DUP1 REVERT JUMPDEST PUSH1 0x0 PUSH2 0x1990 DUP5 DUP3 DUP6 ADD PUSH2 0x180C JUMP JUMPDEST SWAP2 POP POP SWAP3 SWAP2 POP POP JUMP JUMPDEST PUSH1 0x0 PUSH1 0x20 DUP3 DUP5 SUB SLT ISZERO PUSH2 0x19AB JUMPI PUSH1 0x0 DUP1 REVERT JUMPDEST PUSH1 0x0 PUSH2 0x19B9 DUP5 DUP3 DUP6 ADD PUSH2 0x1821 JUMP JUMPDEST SWAP2 POP POP SWAP3 SWAP2 POP POP JUMP JUMPDEST PUSH1 0x0 DUP1 PUSH1 0x40 DUP4 DUP6 SUB SLT ISZERO PUSH2 0x19D5 JUMPI PUSH1 0x0 DUP1 REVERT JUMPDEST PUSH1 0x0 PUSH2 0x19E3 DUP6 DUP3 DUP7 ADD PUSH2 0x1821 JUMP JUMPDEST SWAP3 POP POP PUSH1 0x20 PUSH2 0x19F4 DUP6 DUP3 DUP7 ADD PUSH2 0x17A3 JUMP JUMPDEST SWAP2 POP POP SWAP3 POP SWAP3 SWAP1 POP JUMP JUMPDEST PUSH1 0x0 PUSH1 0x20 DUP3 DUP5 SUB SLT ISZERO PUSH2 0x1A10 JUMPI PUSH1 0x0 DUP1 REVERT JUMPDEST PUSH1 0x0 PUSH2 0x1A1E DUP5 DUP3 DUP6 ADD PUSH2 0x1836 JUMP JUMPDEST SWAP2 POP POP SWAP3 SWAP2 POP POP JUMP JUMPDEST PUSH1 0x0 PUSH1 0x20 DUP3 DUP5 SUB SLT ISZERO PUSH2 0x1A39 JUMPI PUSH1 0x0 DUP1 REVERT JUMPDEST PUSH1 0x0 PUSH2 0x1A47 DUP5 DUP3 DUP6 ADD PUSH2 0x1875 JUMP JUMPDEST SWAP2 POP POP SWAP3 SWAP2 POP POP JUMP JUMPDEST PUSH1 0x0 PUSH1 0x20 DUP3 DUP5 SUB SLT ISZERO PUSH2 0x1A62 JUMPI PUSH1 0x0 DUP1 REVERT JUMPDEST PUSH1 0x0 PUSH2 0x1A70 DUP5 DUP3 DUP6 ADD PUSH2 0x188A JUMP JUMPDEST SWAP2 POP POP SWAP3 SWAP2 POP POP JUMP JUMPDEST PUSH1 0x0 PUSH2 0x1A85 DUP4 DUP4 PUSH2 0x1BE9 JUMP JUMPDEST SWAP1 POP SWAP3 SWAP2 POP POP JUMP JUMPDEST PUSH1 0x0 PUSH2 0x1A99 DUP4 DUP4 PUSH2 0x1E0D JUMP JUMPDEST PUSH1 0x20 DUP4 ADD SWAP1 POP SWAP3 SWAP2 POP POP JUMP JUMPDEST PUSH2 0x1AAE DUP2 PUSH2 0x238E JUMP JUMPDEST DUP3 MSTORE POP POP JUMP JUMPDEST PUSH2 0x1AC5 PUSH2 0x1AC0 DUP3 PUSH2 0x238E JUMP JUMPDEST PUSH2 0x2515 JUMP JUMPDEST DUP3 MSTORE POP POP JUMP JUMPDEST PUSH1 0x0 PUSH2 0x1AD6 DUP3 PUSH2 0x21EF JUMP JUMPDEST PUSH2 0x1AE0 DUP2 DUP6 PUSH2 0x222A JUMP JUMPDEST SWAP4 POP DUP4 PUSH1 0x20 DUP3 MUL DUP6 ADD PUSH2 0x1AF2 DUP6 PUSH2 0x21CF JUMP JUMPDEST DUP1 PUSH1 0x0 JUMPDEST DUP6 DUP2 LT ISZERO PUSH2 0x1B2E JUMPI DUP5 DUP5 SUB DUP10 MSTORE DUP2 MLOAD PUSH2 0x1B0F DUP6 DUP3 PUSH2 0x1A79 JUMP JUMPDEST SWAP5 POP PUSH2 0x1B1A DUP4 PUSH2 0x2210 JUMP JUMPDEST SWAP3 POP PUSH1 0x20 DUP11 ADD SWAP10 POP POP PUSH1 0x1 DUP2 ADD SWAP1 POP PUSH2 0x1AF6 JUMP JUMPDEST POP DUP3 SWAP8 POP DUP8 SWAP6 POP POP POP POP POP POP SWAP3 SWAP2 POP POP JUMP JUMPDEST PUSH1 0x0 PUSH2 0x1B4B DUP3 PUSH2 0x21FA JUMP JUMPDEST PUSH2 0x1B55 DUP2 DUP6 PUSH2 0x223B JUMP JUMPDEST SWAP4 POP PUSH2 0x1B60 DUP4 PUSH2 0x21DF JUMP JUMPDEST DUP1 PUSH1 0x0 JUMPDEST DUP4 DUP2 LT ISZERO PUSH2 0x1B91 JUMPI DUP2 MLOAD PUSH2 0x1B78 DUP9 DUP3 PUSH2 0x1A8D JUMP JUMPDEST SWAP8 POP PUSH2 0x1B83 DUP4 PUSH2 0x221D JUMP JUMPDEST SWAP3 POP POP PUSH1 0x1 DUP2 ADD SWAP1 POP PUSH2 0x1B64 JUMP JUMPDEST POP DUP6 SWAP4 POP POP POP POP SWAP3 SWAP2 POP POP JUMP JUMPDEST PUSH2 0x1BA7 DUP2 PUSH2 0x23A0 JUMP JUMPDEST DUP3 MSTORE POP POP JUMP JUMPDEST PUSH2 0x1BB6 DUP2 PUSH2 0x23AC JUMP JUMPDEST DUP3 MSTORE POP POP JUMP JUMPDEST PUSH2 0x1BC5 DUP2 PUSH2 0x240C JUMP JUMPDEST DUP3 MSTORE POP POP JUMP JUMPDEST PUSH2 0x1BD4 DUP2 PUSH2 0x2430 JUMP JUMPDEST DUP3 MSTORE POP POP JUMP JUMPDEST PUSH2 0x1BE3 DUP2 PUSH2 0x2454 JUMP JUMPDEST DUP3 MSTORE POP POP JUMP JUMPDEST PUSH1 0x0 PUSH2 0x1BF4 DUP3 PUSH2 0x2205 JUMP JUMPDEST PUSH2 0x1BFE DUP2 DUP6 PUSH2 0x224C JUMP JUMPDEST SWAP4 POP PUSH2 0x1C0E DUP2 DUP6 PUSH1 0x20 DUP7 ADD PUSH2 0x2487 JUMP JUMPDEST PUSH2 0x1C17 DUP2 PUSH2 0x25D0 JUMP JUMPDEST DUP5 ADD SWAP2 POP POP SWAP3 SWAP2 POP POP JUMP JUMPDEST PUSH1 0x0 PUSH2 0x1C2D DUP3 PUSH2 0x2205 JUMP JUMPDEST PUSH2 0x1C37 DUP2 DUP6 PUSH2 0x225D JUMP JUMPDEST SWAP4 POP PUSH2 0x1C47 DUP2 DUP6 PUSH1 0x20 DUP7 ADD PUSH2 0x2487 JUMP JUMPDEST PUSH2 0x1C50 DUP2 PUSH2 0x25D0 JUMP JUMPDEST DUP5 ADD SWAP2 POP POP SWAP3 SWAP2 POP POP JUMP JUMPDEST PUSH1 0x0 PUSH2 0x1C66 DUP3 PUSH2 0x2205 JUMP JUMPDEST PUSH2 0x1C70 DUP2 DUP6 PUSH2 0x226E JUMP JUMPDEST SWAP4 POP PUSH2 0x1C80 DUP2 DUP6 PUSH1 0x20 DUP7 ADD PUSH2 0x2487 JUMP JUMPDEST DUP1 DUP5 ADD SWAP2 POP POP SWAP3 SWAP2 POP POP JUMP JUMPDEST PUSH1 0x0 PUSH2 0x1C99 PUSH1 0x20 DUP4 PUSH2 0x225D JUMP JUMPDEST SWAP2 POP PUSH2 0x1CA4 DUP3 PUSH2 0x25EE JUMP JUMPDEST PUSH1 0x20 DUP3 ADD SWAP1 POP SWAP2 SWAP1 POP JUMP JUMPDEST PUSH1 0x0 PUSH2 0x1CBC PUSH1 0x8 DUP4 PUSH2 0x226E JUMP JUMPDEST SWAP2 POP PUSH2 0x1CC7 DUP3 PUSH2 0x2617 JUMP JUMPDEST PUSH1 0x8 DUP3 ADD SWAP1 POP SWAP2 SWAP1 POP JUMP JUMPDEST PUSH1 0x0 PUSH2 0x1CDF PUSH1 0x36 DUP4 PUSH2 0x225D JUMP JUMPDEST SWAP2 POP PUSH2 0x1CEA DUP3 PUSH2 0x2640 JUMP JUMPDEST PUSH1 0x40 DUP3 ADD SWAP1 POP SWAP2 SWAP1 POP JUMP JUMPDEST PUSH1 0x0 PUSH2 0x1D02 PUSH1 0x1B DUP4 PUSH2 0x225D JUMP JUMPDEST SWAP2 POP PUSH2 0x1D0D DUP3 PUSH2 0x268F JUMP JUMPDEST PUSH1 0x20 DUP3 ADD SWAP1 POP SWAP2 SWAP1 POP JUMP JUMPDEST PUSH1 0x0 PUSH2 0x1D25 PUSH1 0x23 DUP4 PUSH2 0x225D JUMP JUMPDEST SWAP2 POP PUSH2 0x1D30 DUP3 PUSH2 0x26B8 JUMP JUMPDEST PUSH1 0x40 DUP3 ADD SWAP1 POP SWAP2 SWAP1 POP JUMP JUMPDEST PUSH1 0x0 PUSH2 0x1D48 PUSH1 0x1 DUP4 PUSH2 0x226E JUMP JUMPDEST SWAP2 POP PUSH2 0x1D53 DUP3 PUSH2 0x2707 JUMP JUMPDEST PUSH1 0x1 DUP3 ADD SWAP1 POP SWAP2 SWAP1 POP JUMP JUMPDEST PUSH1 0x0 PUSH2 0x1D6B PUSH1 0x30 DUP4 PUSH2 0x226E JUMP JUMPDEST SWAP2 POP PUSH2 0x1D76 DUP3 PUSH2 0x2730 JUMP JUMPDEST PUSH1 0x30 DUP3 ADD SWAP1 POP SWAP2 SWAP1 POP JUMP JUMPDEST PUSH1 0x0 PUSH2 0x1D8E PUSH1 0x1F DUP4 PUSH2 0x225D JUMP JUMPDEST SWAP2 POP PUSH2 0x1D99 DUP3 PUSH2 0x277F JUMP JUMPDEST PUSH1 0x20 DUP3 ADD SWAP1 POP SWAP2 SWAP1 POP JUMP JUMPDEST PUSH1 0x0 PUSH2 0x1DB1 PUSH1 0x17 DUP4 PUSH2 0x226E JUMP JUMPDEST SWAP2 POP PUSH2 0x1DBC DUP3 PUSH2 0x27A8 JUMP JUMPDEST PUSH1 0x17 DUP3 ADD SWAP1 POP SWAP2 SWAP1 POP JUMP JUMPDEST PUSH1 0x0 PUSH2 0x1DD4 PUSH1 0x11 DUP4 PUSH2 0x226E JUMP JUMPDEST SWAP2 POP PUSH2 0x1DDF DUP3 PUSH2 0x27D1 JUMP JUMPDEST PUSH1 0x11 DUP3 ADD SWAP1 POP SWAP2 SWAP1 POP JUMP JUMPDEST PUSH1 0x0 PUSH2 0x1DF7 PUSH1 0x2F DUP4 PUSH2 0x225D JUMP JUMPDEST SWAP2 POP PUSH2 0x1E02 DUP3 PUSH2 0x27FA JUMP JUMPDEST PUSH1 0x40 DUP3 ADD SWAP1 POP SWAP2 SWAP1 POP JUMP JUMPDEST PUSH2 0x1E16 DUP2 PUSH2 0x2402 JUMP JUMPDEST DUP3 MSTORE POP POP JUMP JUMPDEST PUSH2 0x1E25 DUP2 PUSH2 0x2402 JUMP JUMPDEST DUP3 MSTORE POP POP JUMP JUMPDEST PUSH2 0x1E3C PUSH2 0x1E37 DUP3 PUSH2 0x2402 JUMP JUMPDEST PUSH2 0x2539 JUMP JUMPDEST DUP3 MSTORE POP POP JUMP JUMPDEST PUSH1 0x0 PUSH2 0x1E4D DUP3 PUSH2 0x1CAF JUMP JUMPDEST SWAP2 POP PUSH2 0x1E59 DUP3 DUP6 PUSH2 0x1AB4 JUMP JUMPDEST PUSH1 0x14 DUP3 ADD SWAP2 POP PUSH2 0x1E68 DUP3 PUSH2 0x1D5E JUMP JUMPDEST SWAP2 POP PUSH2 0x1E74 DUP3 DUP5 PUSH2 0x1E2B JUMP JUMPDEST PUSH1 0x20 DUP3 ADD SWAP2 POP PUSH2 0x1E83 DUP3 PUSH2 0x1D3B JUMP JUMPDEST SWAP2 POP DUP2 SWAP1 POP SWAP4 SWAP3 POP POP POP JUMP JUMPDEST PUSH1 0x0 PUSH2 0x1E9A DUP3 PUSH2 0x1DA4 JUMP JUMPDEST SWAP2 POP PUSH2 0x1EA6 DUP3 DUP6 PUSH2 0x1C5B JUMP JUMPDEST SWAP2 POP PUSH2 0x1EB1 DUP3 PUSH2 0x1DC7 JUMP JUMPDEST SWAP2 POP PUSH2 0x1EBD DUP3 DUP5 PUSH2 0x1C5B JUMP JUMPDEST SWAP2 POP DUP2 SWAP1 POP SWAP4 SWAP3 POP POP POP JUMP JUMPDEST PUSH1 0x0 PUSH1 0x20 DUP3 ADD SWAP1 POP PUSH2 0x1EDE PUSH1 0x0 DUP4 ADD DUP5 PUSH2 0x1AA5 JUMP JUMPDEST SWAP3 SWAP2 POP POP JUMP JUMPDEST PUSH1 0x0 PUSH1 0x40 DUP3 ADD SWAP1 POP PUSH2 0x1EF9 PUSH1 0x0 DUP4 ADD DUP6 PUSH2 0x1AA5 JUMP JUMPDEST PUSH2 0x1F06 PUSH1 0x20 DUP4 ADD DUP5 PUSH2 0x1E1C JUMP JUMPDEST SWAP4 SWAP3 POP POP POP JUMP JUMPDEST PUSH1 0x0 PUSH1 0x20 DUP3 ADD SWAP1 POP DUP2 DUP2 SUB PUSH1 0x0 DUP4 ADD MSTORE PUSH2 0x1F27 DUP2 DUP5 PUSH2 0x1ACB JUMP JUMPDEST SWAP1 POP SWAP3 SWAP2 POP POP JUMP JUMPDEST PUSH1 0x0 PUSH1 0x40 DUP3 ADD SWAP1 POP DUP2 DUP2 SUB PUSH1 0x0 DUP4 ADD MSTORE PUSH2 0x1F49 DUP2 DUP6 PUSH2 0x1B40 JUMP JUMPDEST SWAP1 POP DUP2 DUP2 SUB PUSH1 0x20 DUP4 ADD MSTORE PUSH2 0x1F5D DUP2 DUP5 PUSH2 0x1ACB JUMP JUMPDEST SWAP1 POP SWAP4 SWAP3 POP POP POP JUMP JUMPDEST PUSH1 0x0 PUSH1 0x20 DUP3 ADD SWAP1 POP PUSH2 0x1F7B PUSH1 0x0 DUP4 ADD DUP5 PUSH2 0x1B9E JUMP JUMPDEST SWAP3 SWAP2 POP POP JUMP JUMPDEST PUSH1 0x0 PUSH1 0x20 DUP3 ADD SWAP1 POP PUSH2 0x1F96 PUSH1 0x0 DUP4 ADD DUP5 PUSH2 0x1BAD JUMP JUMPDEST SWAP3 SWAP2 POP POP JUMP JUMPDEST PUSH1 0x0 PUSH1 0x20 DUP3 ADD SWAP1 POP PUSH2 0x1FB1 PUSH1 0x0 DUP4 ADD DUP5 PUSH2 0x1BBC JUMP JUMPDEST SWAP3 SWAP2 POP POP JUMP JUMPDEST PUSH1 0x0 PUSH1 0x20 DUP3 ADD SWAP1 POP PUSH2 0x1FCC PUSH1 0x0 DUP4 ADD DUP5 PUSH2 0x1BCB JUMP JUMPDEST SWAP3 SWAP2 POP POP JUMP JUMPDEST PUSH1 0x0 PUSH1 0x20 DUP3 ADD SWAP1 POP PUSH2 0x1FE7 PUSH1 0x0 DUP4 ADD DUP5 PUSH2 0x1BDA JUMP JUMPDEST SWAP3 SWAP2 POP POP JUMP JUMPDEST PUSH1 0x0 PUSH1 0x20 DUP3 ADD SWAP1 POP DUP2 DUP2 SUB PUSH1 0x0 DUP4 ADD MSTORE PUSH2 0x2007 DUP2 DUP5 PUSH2 0x1C22 JUMP JUMPDEST SWAP1 POP SWAP3 SWAP2 POP POP JUMP JUMPDEST PUSH1 0x0 PUSH1 0x20 DUP3 ADD SWAP1 POP DUP2 DUP2 SUB PUSH1 0x0 DUP4 ADD MSTORE PUSH2 0x2028 DUP2 PUSH2 0x1C8C JUMP JUMPDEST SWAP1 POP SWAP2 SWAP1 POP JUMP JUMPDEST PUSH1 0x0 PUSH1 0x20 DUP3 ADD SWAP1 POP DUP2 DUP2 SUB PUSH1 0x0 DUP4 ADD MSTORE PUSH2 0x2048 DUP2 PUSH2 0x1CD2 JUMP JUMPDEST SWAP1 POP SWAP2 SWAP1 POP JUMP JUMPDEST PUSH1 0x0 PUSH1 0x20 DUP3 ADD SWAP1 POP DUP2 DUP2 SUB PUSH1 0x0 DUP4 ADD MSTORE PUSH2 0x2068 DUP2 PUSH2 0x1CF5 JUMP JUMPDEST SWAP1 POP SWAP2 SWAP1 POP JUMP JUMPDEST PUSH1 0x0 PUSH1 0x20 DUP3 ADD SWAP1 POP DUP2 DUP2 SUB PUSH1 0x0 DUP4 ADD MSTORE PUSH2 0x2088 DUP2 PUSH2 0x1D18 JUMP JUMPDEST SWAP1 POP SWAP2 SWAP1 POP JUMP JUMPDEST PUSH1 0x0 PUSH1 0x20 DUP3 ADD SWAP1 POP DUP2 DUP2 SUB PUSH1 0x0 DUP4 ADD MSTORE PUSH2 0x20A8 DUP2 PUSH2 0x1D81 JUMP JUMPDEST SWAP1 POP SWAP2 SWAP1 POP JUMP JUMPDEST PUSH1 0x0 PUSH1 0x20 DUP3 ADD SWAP1 POP DUP2 DUP2 SUB PUSH1 0x0 DUP4 ADD MSTORE PUSH2 0x20C8 DUP2 PUSH2 0x1DEA JUMP JUMPDEST SWAP1 POP SWAP2 SWAP1 POP JUMP JUMPDEST PUSH1 0x0 PUSH1 0x20 DUP3 ADD SWAP1 POP PUSH2 0x20E4 PUSH1 0x0 DUP4 ADD DUP5 PUSH2 0x1E1C JUMP JUMPDEST SWAP3 SWAP2 POP POP JUMP JUMPDEST PUSH1 0x0 PUSH1 0x60 DUP3 ADD SWAP1 POP PUSH2 0x20FF PUSH1 0x0 DUP4 ADD DUP7 PUSH2 0x1E1C JUMP JUMPDEST PUSH2 0x210C PUSH1 0x20 DUP4 ADD DUP6 PUSH2 0x1E1C JUMP JUMPDEST PUSH2 0x2119 PUSH1 0x40 DUP4 ADD DUP5 PUSH2 0x1B9E JUMP JUMPDEST SWAP5 SWAP4 POP POP POP POP JUMP JUMPDEST PUSH1 0x0 PUSH2 0x212B PUSH2 0x213C JUMP JUMPDEST SWAP1 POP PUSH2 0x2137 DUP3 DUP3 PUSH2 0x24E4 JUMP JUMPDEST SWAP2 SWAP1 POP JUMP JUMPDEST PUSH1 0x0 PUSH1 0x40 MLOAD SWAP1 POP SWAP1 JUMP JUMPDEST PUSH1 0x0 PUSH8 0xFFFFFFFFFFFFFFFF DUP3 GT ISZERO PUSH2 0x2161 JUMPI PUSH2 0x2160 PUSH2 0x25A1 JUMP JUMPDEST JUMPDEST PUSH1 0x20 DUP3 MUL SWAP1 POP PUSH1 0x20 DUP2 ADD SWAP1 POP SWAP2 SWAP1 POP JUMP JUMPDEST PUSH1 0x0 PUSH8 0xFFFFFFFFFFFFFFFF DUP3 GT ISZERO PUSH2 0x218D JUMPI PUSH2 0x218C PUSH2 0x25A1 JUMP JUMPDEST JUMPDEST PUSH1 0x20 DUP3 MUL SWAP1 POP PUSH1 0x20 DUP2 ADD SWAP1 POP SWAP2 SWAP1 POP JUMP JUMPDEST PUSH1 0x0 PUSH8 0xFFFFFFFFFFFFFFFF DUP3 GT ISZERO PUSH2 0x21B9 JUMPI PUSH2 0x21B8 PUSH2 0x25A1 JUMP JUMPDEST JUMPDEST PUSH2 0x21C2 DUP3 PUSH2 0x25D0 JUMP JUMPDEST SWAP1 POP PUSH1 0x20 DUP2 ADD SWAP1 POP SWAP2 SWAP1 POP JUMP JUMPDEST PUSH1 0x0 DUP2 SWAP1 POP PUSH1 0x20 DUP3 ADD SWAP1 POP SWAP2 SWAP1 POP JUMP JUMPDEST PUSH1 0x0 DUP2 SWAP1 POP PUSH1 0x20 DUP3 ADD SWAP1 POP SWAP2 SWAP1 POP JUMP JUMPDEST PUSH1 0x0 DUP2 MLOAD SWAP1 POP SWAP2 SWAP1 POP JUMP JUMPDEST PUSH1 0x0 DUP2 MLOAD SWAP1 POP SWAP2 SWAP1 POP JUMP JUMPDEST PUSH1 0x0 DUP2 MLOAD SWAP1 POP SWAP2 SWAP1 POP JUMP JUMPDEST PUSH1 0x0 PUSH1 0x20 DUP3 ADD SWAP1 POP SWAP2 SWAP1 POP JUMP JUMPDEST PUSH1 0x0 PUSH1 0x20 DUP3 ADD SWAP1 POP SWAP2 SWAP1 POP JUMP JUMPDEST PUSH1 0x0 DUP3 DUP3 MSTORE PUSH1 0x20 DUP3 ADD SWAP1 POP SWAP3 SWAP2 POP POP JUMP JUMPDEST PUSH1 0x0 DUP3 DUP3 MSTORE PUSH1 0x20 DUP3 ADD SWAP1 POP SWAP3 SWAP2 POP POP JUMP JUMPDEST PUSH1 0x0 DUP3 DUP3 MSTORE PUSH1 0x20 DUP3 ADD SWAP1 POP SWAP3 SWAP2 POP POP JUMP JUMPDEST PUSH1 0x0 DUP3 DUP3 MSTORE PUSH1 0x20 DUP3 ADD SWAP1 POP SWAP3 SWAP2 POP POP JUMP JUMPDEST PUSH1 0x0 DUP2 SWAP1 POP SWAP3 SWAP2 POP POP JUMP JUMPDEST PUSH1 0x0 PUSH2 0x2284 DUP3 PUSH2 0x2402 JUMP JUMPDEST SWAP2 POP PUSH2 0x228F DUP4 PUSH2 0x2402 JUMP JUMPDEST SWAP3 POP DUP3 PUSH32 0xFFFFFFFFFFFFFFFFFFFFFFFFFFFFFFFFFFFFFFFFFFFFFFFFFFFFFFFFFFFFFFFF SUB DUP3 GT ISZERO PUSH2 0x22C4 JUMPI PUSH2 0x22C3 PUSH2 0x2543 JUMP JUMPDEST JUMPDEST DUP3 DUP3 ADD SWAP1 POP SWAP3 SWAP2 POP POP JUMP JUMPDEST PUSH1 0x0 PUSH2 0x22DA DUP3 PUSH2 0x2402 JUMP JUMPDEST SWAP2 POP PUSH2 0x22E5 DUP4 PUSH2 0x2402 JUMP JUMPDEST SWAP3 POP DUP3 PUSH2 0x22F5 JUMPI PUSH2 0x22F4 PUSH2 0x2572 JUMP JUMPDEST JUMPDEST DUP3 DUP3 DIV SWAP1 POP SWAP3 SWAP2 POP POP JUMP JUMPDEST PUSH1 0x0 PUSH2 0x230B DUP3 PUSH2 0x2402 JUMP JUMPDEST SWAP2 POP PUSH2 0x2316 DUP4 PUSH2 0x2402 JUMP JUMPDEST SWAP3 POP DUP2 PUSH32 0xFFFFFFFFFFFFFFFFFFFFFFFFFFFFFFFFFFFFFFFFFFFFFFFFFFFFFFFFFFFFFFFF DIV DUP4 GT DUP3 ISZERO ISZERO AND ISZERO PUSH2 0x234F JUMPI PUSH2 0x234E PUSH2 0x2543 JUMP JUMPDEST JUMPDEST DUP3 DUP3 MUL SWAP1 POP SWAP3 SWAP2 POP POP JUMP JUMPDEST PUSH1 0x0 PUSH2 0x2365 DUP3 PUSH2 0x2402 JUMP JUMPDEST SWAP2 POP PUSH2 0x2370 DUP4 PUSH2 0x2402 JUMP JUMPDEST SWAP3 POP DUP3 DUP3 LT ISZERO PUSH2 0x2383 JUMPI PUSH2 0x2382 PUSH2 0x2543 JUMP JUMPDEST JUMPDEST DUP3 DUP3 SUB SWAP1 POP SWAP3 SWAP2 POP POP JUMP JUMPDEST PUSH1 0x0 PUSH2 0x2399 DUP3 PUSH2 0x23E2 JUMP JUMPDEST SWAP1 POP SWAP2 SWAP1 POP JUMP JUMPDEST PUSH1 0x0 DUP2 ISZERO ISZERO SWAP1 POP SWAP2 SWAP1 POP JUMP JUMPDEST PUSH1 0x0 DUP2 SWAP1 POP SWAP2 SWAP1 POP JUMP JUMPDEST PUSH1 0x0 PUSH32 0xFFFFFFFF00000000000000000000000000000000000000000000000000000000 DUP3 AND SWAP1 POP SWAP2 SWAP1 POP JUMP JUMPDEST PUSH1 0x0 PUSH20 0xFFFFFFFFFFFFFFFFFFFFFFFFFFFFFFFFFFFFFFFF DUP3 AND SWAP1 POP SWAP2 SWAP1 POP JUMP JUMPDEST PUSH1 0x0 DUP2 SWAP1 POP SWAP2 SWAP1 POP JUMP JUMPDEST PUSH1 0x0 PUSH2 0x2417 DUP3 PUSH2 0x241E JUMP JUMPDEST SWAP1 POP SWAP2 SWAP1 POP JUMP JUMPDEST PUSH1 0x0 PUSH2 0x2429 DUP3 PUSH2 0x23E2 JUMP JUMPDEST SWAP1 POP SWAP2 SWAP1 POP JUMP JUMPDEST PUSH1 0x0 PUSH2 0x243B DUP3 PUSH2 0x2442 JUMP JUMPDEST SWAP1 POP SWAP2 SWAP1 POP JUMP JUMPDEST PUSH1 0x0 PUSH2 0x244D DUP3 PUSH2 0x23E2 JUMP JUMPDEST SWAP1 POP SWAP2 SWAP1 POP JUMP JUMPDEST PUSH1 0x0 PUSH2 0x245F DUP3 PUSH2 0x2466 JUMP JUMPDEST SWAP1 POP SWAP2 SWAP1 POP JUMP JUMPDEST PUSH1 0x0 PUSH2 0x2471 DUP3 PUSH2 0x23E2 JUMP JUMPDEST SWAP1 POP SWAP2 SWAP1 POP JUMP JUMPDEST DUP3 DUP2 DUP4 CALLDATACOPY PUSH1 0x0 DUP4 DUP4 ADD MSTORE POP POP POP JUMP JUMPDEST PUSH1 0x0 JUMPDEST DUP4 DUP2 LT ISZERO PUSH2 0x24A5 JUMPI DUP1 DUP3 ADD MLOAD DUP2 DUP5 ADD MSTORE PUSH1 0x20 DUP2 ADD SWAP1 POP PUSH2 0x248A JUMP JUMPDEST DUP4 DUP2 GT ISZERO PUSH2 0x24B4 JUMPI PUSH1 0x0 DUP5 DUP5 ADD MSTORE JUMPDEST POP POP POP POP JUMP JUMPDEST PUSH1 0x0 PUSH2 0x24C5 DUP3 PUSH2 0x2402 JUMP JUMPDEST SWAP2 POP PUSH1 0x0 DUP3 EQ ISZERO PUSH2 0x24D9 JUMPI PUSH2 0x24D8 PUSH2 0x2543 JUMP JUMPDEST JUMPDEST PUSH1 0x1 DUP3 SUB SWAP1 POP SWAP2 SWAP1 POP JUMP JUMPDEST PUSH2 0x24ED DUP3 PUSH2 0x25D0 JUMP JUMPDEST DUP2 ADD DUP2 DUP2 LT PUSH8 0xFFFFFFFFFFFFFFFF DUP3 GT OR ISZERO PUSH2 0x250C JUMPI PUSH2 0x250B PUSH2 0x25A1 JUMP JUMPDEST JUMPDEST DUP1 PUSH1 0x40 MSTORE POP POP POP JUMP JUMPDEST PUSH1 0x0 PUSH2 0x2520 DUP3 PUSH2 0x2527 JUMP JUMPDEST SWAP1 POP SWAP2 SWAP1 POP JUMP JUMPDEST PUSH1 0x0 PUSH2 0x2532 DUP3 PUSH2 0x25E1 JUMP JUMPDEST SWAP1 POP SWAP2 SWAP1 POP JUMP JUMPDEST PUSH1 0x0 DUP2 SWAP1 POP SWAP2 SWAP1 POP JUMP JUMPDEST PUSH32 0x4E487B7100000000000000000000000000000000000000000000000000000000 PUSH1 0x0 MSTORE PUSH1 0x11 PUSH1 0x4 MSTORE PUSH1 0x24 PUSH1 0x0 REVERT JUMPDEST PUSH32 0x4E487B7100000000000000000000000000000000000000000000000000000000 PUSH1 0x0 MSTORE PUSH1 0x12 PUSH1 0x4 MSTORE PUSH1 0x24 PUSH1 0x0 REVERT JUMPDEST PUSH32 0x4E487B7100000000000000000000000000000000000000000000000000000000 PUSH1 0x0 MSTORE PUSH1 0x41 PUSH1 0x4 MSTORE PUSH1 0x24 PUSH1 0x0 REVERT JUMPDEST PUSH1 0x0 PUSH1 0x1F NOT PUSH1 0x1F DUP4 ADD AND SWAP1 POP SWAP2 SWAP1 POP JUMP JUMPDEST PUSH1 0x0 DUP2 PUSH1 0x60 SHL SWAP1 POP SWAP2 SWAP1 POP JUMP JUMPDEST PUSH32 0x537472696E67733A20686578206C656E67746820696E73756666696369656E74 PUSH1 0x0 DUP3 ADD MSTORE POP JUMP JUMPDEST PUSH32 0x4164647265737320000000000000000000000000000000000000000000000000 PUSH1 0x0 DUP3 ADD MSTORE POP JUMP JUMPDEST PUSH32 0x43616E6E6F74206D696E7420746F207472656173757279206164647265737320 PUSH1 0x0 DUP3 ADD MSTORE PUSH32 0x756E74696C2073616C652069732066696E697368656400000000000000000000 PUSH1 0x20 DUP3 ADD MSTORE POP JUMP JUMPDEST PUSH32 0x74696D657374616D70206973206E6F742075702D746F2D646174650000000000 PUSH1 0x0 DUP3 ADD MSTORE POP JUMP JUMPDEST PUSH32 0x53656E646572206973206E6F742053616C65204D616E61676572206F72204164 PUSH1 0x0 DUP3 ADD MSTORE PUSH32 0x6D696E0000000000000000000000000000000000000000000000000000000000 PUSH1 0x20 DUP3 ADD MSTORE POP JUMP JUMPDEST PUSH32 0x2500000000000000000000000000000000000000000000000000000000000000 PUSH1 0x0 DUP3 ADD MSTORE POP JUMP JUMPDEST PUSH32 0x20646F6573206E6F742068617665206120636F75706F6E207769746820612064 PUSH1 0x0 DUP3 ADD MSTORE PUSH32 0x6973636F756E742072617465206F662000000000000000000000000000000000 PUSH1 0x20 DUP3 ADD MSTORE POP JUMP JUMPDEST PUSH32 0x737461727454696D65206973206C61746572207468616E20656E6454696D6500 PUSH1 0x0 DUP3 ADD MSTORE POP JUMP JUMPDEST PUSH32 0x416363657373436F6E74726F6C3A206163636F756E7420000000000000000000 PUSH1 0x0 DUP3 ADD MSTORE POP JUMP JUMPDEST PUSH32 0x206973206D697373696E6720726F6C6520000000000000000000000000000000 PUSH1 0x0 DUP3 ADD MSTORE POP JUMP JUMPDEST PUSH32 0x416363657373436F6E74726F6C3A2063616E206F6E6C792072656E6F756E6365 PUSH1 0x0 DUP3 ADD MSTORE PUSH32 0x20726F6C657320666F722073656C660000000000000000000000000000000000 PUSH1 0x20 DUP3 ADD MSTORE POP JUMP JUMPDEST PUSH2 0x2852 DUP2 PUSH2 0x238E JUMP JUMPDEST DUP2 EQ PUSH2 0x285D JUMPI PUSH1 0x0 DUP1 REVERT JUMPDEST POP JUMP JUMPDEST PUSH2 0x2869 DUP2 PUSH2 0x23A0 JUMP JUMPDEST DUP2 EQ PUSH2 0x2874 JUMPI PUSH1 0x0 DUP1 REVERT JUMPDEST POP JUMP JUMPDEST PUSH2 0x2880 DUP2 PUSH2 0x23AC JUMP JUMPDEST DUP2 EQ PUSH2 0x288B JUMPI PUSH1 0x0 DUP1 REVERT JUMPDEST POP JUMP JUMPDEST PUSH2 0x2897 DUP2 PUSH2 0x23B6 JUMP JUMPDEST DUP2 EQ PUSH2 0x28A2 JUMPI PUSH1 0x0 DUP1 REVERT JUMPDEST POP JUMP JUMPDEST PUSH2 0x28AE DUP2 PUSH2 0x2402 JUMP JUMPDEST DUP2 EQ PUSH2 0x28B9 JUMPI PUSH1 0x0 DUP1 REVERT JUMPDEST POP JUMP INVALID LOG2 PUSH5 0x6970667358 0x22 SLT KECCAK256 0xEE 0x27 LOG3 0xC5 RETURNDATACOPY 0xB8 SDIV SLOAD SELFDESTRUCT 0x4A PUSH4 0xB9CA224E TIMESTAMP PUSH29 0x7E192C0DDE6FEC8FA410498DE520D364736F6C63430008010033000000 "
				},
				"gasEstimates": {
					"creation": {
						"codeDepositCost": "2096400",
						"executionCost": "infinite",
						"totalCost": "infinite"
					},
					"external": {
						"DEFAULT_ADMIN_ROLE()": "446",
						"ERC1155storageContract()": "1280",
						"SALE_MANAGER_ROLE()": "374",
						"URI_MANAGER_ROLE()": "440",
						"buyNFT()": "infinite",
						"buyNftWithDiscount(uint256)": "infinite",
						"calculateCustomPrice(address,uint256)": "infinite",
						"getMaxSupply()": "infinite",
						"getNextUnusedToken()": "infinite",
						"getRoleAdmin(bytes32)": "infinite",
						"grantRole(bytes32,address)": "infinite",
						"hasRole(bytes32,address)": "1907",
						"lastUpdate()": "infinite",
						"mintToTreasuryAddress()": "infinite",
						"preLoadURIs(uint256[],string[])": "infinite",
						"privilgedBuyerList()": "1324",
						"renounceRole(bytes32,address)": "infinite",
						"revokeRole(bytes32,address)": "infinite",
						"setEndTime(uint256)": "infinite",
						"setStorageContractAddress(address)": "infinite",
						"setstartTime(uint256)": "infinite",
						"supportsInterface(bytes4)": "751",
						"temp()": "infinite",
						"treasuryAddress()": "1258",
						"usdcEscrowStorageContract()": "1346"
					},
					"internal": {
						"_buyNFT(uint256)": "infinite",
						"mintNextNftToAddress(address)": "infinite",
						"updateState()": "infinite"
					}
				},
				"methodIdentifiers": {
					"DEFAULT_ADMIN_ROLE()": "a217fddf",
					"ERC1155storageContract()": "8c83faeb",
					"SALE_MANAGER_ROLE()": "551b42a8",
					"URI_MANAGER_ROLE()": "682d07d9",
					"buyNFT()": "bff29cee",
					"buyNftWithDiscount(uint256)": "4c9b73da",
					"calculateCustomPrice(address,uint256)": "ab6c0306",
					"getMaxSupply()": "4c0f38c2",
					"getNextUnusedToken()": "68fc01a2",
					"getRoleAdmin(bytes32)": "248a9ca3",
					"grantRole(bytes32,address)": "2f2ff15d",
					"hasRole(bytes32,address)": "91d14854",
					"lastUpdate()": "c0463711",
					"mintToTreasuryAddress()": "91232f18",
					"preLoadURIs(uint256[],string[])": "f121da92",
					"privilgedBuyerList()": "5ce7e721",
					"renounceRole(bytes32,address)": "36568abe",
					"revokeRole(bytes32,address)": "d547741f",
					"setEndTime(uint256)": "ccb98ffc",
					"setStorageContractAddress(address)": "51f7598c",
					"setstartTime(uint256)": "944044a1",
					"supportsInterface(bytes4)": "01ffc9a7",
					"temp()": "673402e5",
					"treasuryAddress()": "c5f956af",
					"usdcEscrowStorageContract()": "c5dae48f"
				}
			},
			"storageLayout": {
				"storage": [
					{
						"astId": 24,
						"contract": "contracts/Founding Citizens NFT Sale.sol:FoundingNFTSale",
						"label": "_roles",
						"offset": 0,
						"slot": "0",
						"type": "t_mapping(t_bytes32,t_struct(RoleData)19_storage)"
					},
					{
						"astId": 835,
						"contract": "contracts/Founding Citizens NFT Sale.sol:FoundingNFTSale",
						"label": "ERC1155storageContract",
						"offset": 0,
						"slot": "1",
						"type": "t_contract(IMintStorage)768"
					},
					{
						"astId": 838,
						"contract": "contracts/Founding Citizens NFT Sale.sol:FoundingNFTSale",
						"label": "privilgedBuyerList",
						"offset": 0,
						"slot": "2",
						"type": "t_contract(IPrivilegedListStorage)799"
					},
					{
						"astId": 841,
						"contract": "contracts/Founding Citizens NFT Sale.sol:FoundingNFTSale",
						"label": "usdcEscrowStorageContract",
						"offset": 0,
						"slot": "3",
						"type": "t_contract(IUsdcStorage)830"
					},
					{
						"astId": 843,
						"contract": "contracts/Founding Citizens NFT Sale.sol:FoundingNFTSale",
						"label": "treasuryAddress",
						"offset": 0,
						"slot": "4",
						"type": "t_address"
					},
					{
						"astId": 856,
						"contract": "contracts/Founding Citizens NFT Sale.sol:FoundingNFTSale",
						"label": "startTime",
						"offset": 0,
						"slot": "5",
						"type": "t_uint256"
					},
					{
						"astId": 859,
						"contract": "contracts/Founding Citizens NFT Sale.sol:FoundingNFTSale",
						"label": "endTime",
						"offset": 0,
						"slot": "6",
						"type": "t_uint256"
					},
					{
						"astId": 869,
						"contract": "contracts/Founding Citizens NFT Sale.sol:FoundingNFTSale",
						"label": "startPrice",
						"offset": 0,
						"slot": "7",
						"type": "t_uint256"
					},
					{
						"astId": 874,
						"contract": "contracts/Founding Citizens NFT Sale.sol:FoundingNFTSale",
						"label": "EndPrice",
						"offset": 0,
						"slot": "8",
						"type": "t_uint256"
					},
					{
						"astId": 895,
						"contract": "contracts/Founding Citizens NFT Sale.sol:FoundingNFTSale",
						"label": "lastUpdate",
						"offset": 0,
						"slot": "9",
						"type": "t_struct(Update)886_storage"
					}
				],
				"types": {
					"t_address": {
						"encoding": "inplace",
						"label": "address",
						"numberOfBytes": "20"
					},
					"t_bool": {
						"encoding": "inplace",
						"label": "bool",
						"numberOfBytes": "1"
					},
					"t_bytes32": {
						"encoding": "inplace",
						"label": "bytes32",
						"numberOfBytes": "32"
					},
					"t_contract(IMintStorage)768": {
						"encoding": "inplace",
						"label": "contract IMintStorage",
						"numberOfBytes": "20"
					},
					"t_contract(IPrivilegedListStorage)799": {
						"encoding": "inplace",
						"label": "contract IPrivilegedListStorage",
						"numberOfBytes": "20"
					},
					"t_contract(IUsdcStorage)830": {
						"encoding": "inplace",
						"label": "contract IUsdcStorage",
						"numberOfBytes": "20"
					},
					"t_mapping(t_address,t_bool)": {
						"encoding": "mapping",
						"key": "t_address",
						"label": "mapping(address => bool)",
						"numberOfBytes": "32",
						"value": "t_bool"
					},
					"t_mapping(t_bytes32,t_struct(RoleData)19_storage)": {
						"encoding": "mapping",
						"key": "t_bytes32",
						"label": "mapping(bytes32 => struct AccessControl.RoleData)",
						"numberOfBytes": "32",
						"value": "t_struct(RoleData)19_storage"
					},
					"t_struct(RoleData)19_storage": {
						"encoding": "inplace",
						"label": "struct AccessControl.RoleData",
						"members": [
							{
								"astId": 16,
								"contract": "contracts/Founding Citizens NFT Sale.sol:FoundingNFTSale",
								"label": "members",
								"offset": 0,
								"slot": "0",
								"type": "t_mapping(t_address,t_bool)"
							},
							{
								"astId": 18,
								"contract": "contracts/Founding Citizens NFT Sale.sol:FoundingNFTSale",
								"label": "adminRole",
								"offset": 0,
								"slot": "1",
								"type": "t_bytes32"
							}
						],
						"numberOfBytes": "64"
					},
					"t_struct(Update)886_storage": {
						"encoding": "inplace",
						"label": "struct FoundingNFTSale.Update",
						"members": [
							{
								"astId": 881,
								"contract": "contracts/Founding Citizens NFT Sale.sol:FoundingNFTSale",
								"label": "price",
								"offset": 0,
								"slot": "0",
								"type": "t_uint256"
							},
							{
								"astId": 883,
								"contract": "contracts/Founding Citizens NFT Sale.sol:FoundingNFTSale",
								"label": "time",
								"offset": 0,
								"slot": "1",
								"type": "t_uint256"
							},
							{
								"astId": 885,
								"contract": "contracts/Founding Citizens NFT Sale.sol:FoundingNFTSale",
								"label": "saleIsLive",
								"offset": 0,
								"slot": "2",
								"type": "t_bool"
							}
						],
						"numberOfBytes": "96"
					},
					"t_uint256": {
						"encoding": "inplace",
						"label": "uint256",
						"numberOfBytes": "32"
					}
				}
			},
			"userdoc": {
				"kind": "user",
				"methods": {},
				"version": 1
			}
		}
	}
}