{
	"contracts/Founding Citizens NFT Sale.sol": {
		"FoundingNFTSale": {
			"abi": [
				{
					"inputs": [],
					"stateMutability": "nonpayable",
					"type": "constructor"
				},
				{
					"anonymous": false,
					"inputs": [
						{
							"indexed": true,
							"internalType": "address",
							"name": "previousOwner",
							"type": "address"
						},
						{
							"indexed": true,
							"internalType": "address",
							"name": "newOwner",
							"type": "address"
						}
					],
					"name": "OwnershipTransferred",
					"type": "event"
				},
				{
					"inputs": [],
					"name": "ERC1155storageContract",
					"outputs": [
						{
							"internalType": "contract IMintStorage",
							"name": "",
							"type": "address"
						}
					],
					"stateMutability": "view",
					"type": "function"
				},
				{
					"inputs": [],
					"name": "buyNFT",
					"outputs": [],
					"stateMutability": "nonpayable",
					"type": "function"
				},
				{
					"inputs": [
						{
							"internalType": "address",
							"name": "prospectiveBuyer",
							"type": "address"
						}
					],
					"name": "calculateCustomPrice",
					"outputs": [
						{
							"internalType": "uint256",
							"name": "",
							"type": "uint256"
						}
					],
					"stateMutability": "nonpayable",
					"type": "function"
				},
				{
					"inputs": [],
					"name": "getMaxSupply",
					"outputs": [
						{
							"internalType": "uint256",
							"name": "",
							"type": "uint256"
						}
					],
					"stateMutability": "view",
					"type": "function"
				},
				{
					"inputs": [],
					"name": "getNextUnusedToken",
					"outputs": [
						{
							"internalType": "uint256",
							"name": "",
							"type": "uint256"
						}
					],
					"stateMutability": "view",
					"type": "function"
				},
				{
					"inputs": [],
					"name": "lastUpdate",
					"outputs": [
						{
							"internalType": "uint256",
							"name": "price",
							"type": "uint256"
						},
						{
							"internalType": "uint256",
							"name": "time",
							"type": "uint256"
						},
						{
							"internalType": "bool",
							"name": "saleIsLive",
							"type": "bool"
						}
					],
					"stateMutability": "view",
					"type": "function"
				},
				{
					"inputs": [],
					"name": "mintToTreasuryAddress",
					"outputs": [],
					"stateMutability": "nonpayable",
					"type": "function"
				},
				{
					"inputs": [],
					"name": "owner",
					"outputs": [
						{
							"internalType": "address",
							"name": "",
							"type": "address"
						}
					],
					"stateMutability": "view",
					"type": "function"
				},
				{
					"inputs": [
						{
							"internalType": "uint256[]",
							"name": "ids",
							"type": "uint256[]"
						},
						{
							"internalType": "string[]",
							"name": "uris",
							"type": "string[]"
						}
					],
					"name": "preLoadURIs",
					"outputs": [],
					"stateMutability": "nonpayable",
					"type": "function"
				},
				{
					"inputs": [],
					"name": "privilgedBuyerList",
					"outputs": [
						{
							"internalType": "contract IPrivilegedListStorage",
							"name": "",
							"type": "address"
						}
					],
					"stateMutability": "view",
					"type": "function"
				},
				{
					"inputs": [],
					"name": "renounceOwnership",
					"outputs": [],
					"stateMutability": "nonpayable",
					"type": "function"
				},
				{
					"inputs": [
						{
							"internalType": "address",
							"name": "storageAddress",
							"type": "address"
						}
					],
					"name": "setStorageContractAddress",
					"outputs": [],
					"stateMutability": "nonpayable",
					"type": "function"
				},
				{
					"inputs": [
						{
							"internalType": "uint256",
							"name": "unixTime",
							"type": "uint256"
						}
					],
					"name": "setendTime",
					"outputs": [],
					"stateMutability": "nonpayable",
					"type": "function"
				},
				{
					"inputs": [
						{
							"internalType": "uint256",
							"name": "unixTime",
							"type": "uint256"
						}
					],
					"name": "setstartTime",
					"outputs": [],
					"stateMutability": "nonpayable",
					"type": "function"
				},
				{
					"inputs": [
						{
							"internalType": "address",
							"name": "newOwner",
							"type": "address"
						}
					],
					"name": "transferOwnership",
					"outputs": [],
					"stateMutability": "nonpayable",
					"type": "function"
				},
				{
					"inputs": [],
					"name": "treasuryAddress",
					"outputs": [
						{
							"internalType": "address",
							"name": "",
							"type": "address"
						}
					],
					"stateMutability": "view",
					"type": "function"
				},
				{
					"inputs": [],
					"name": "usdcEscrowStorageContract",
					"outputs": [
						{
							"internalType": "contract IUsdcStorage",
							"name": "",
							"type": "address"
						}
					],
					"stateMutability": "view",
					"type": "function"
				}
			],
			"devdoc": {
				"kind": "dev",
				"methods": {
					"owner()": {
						"details": "Returns the address of the current owner."
					},
					"renounceOwnership()": {
						"details": "Leaves the contract without owner. It will not be possible to call `onlyOwner` functions anymore. Can only be called by the current owner. NOTE: Renouncing ownership will leave the contract without an owner, thereby removing any functionality that is only available to the owner."
					},
					"transferOwnership(address)": {
						"details": "Transfers ownership of the contract to a new account (`newOwner`). Can only be called by the current owner."
					}
				},
				"version": 1
			},
			"evm": {
				"assembly": "    /* \"contracts/Founding Citizens NFT Sale.sol\":2748:5930  contract FoundingNFTSale is Ownable {\r... */\n  mstore(0x40, 0x80)\n    /* \"contracts/Founding Citizens NFT Sale.sol\":3004:3014  1893484800 */\n  0x70dc4900\n    /* \"contracts/Founding Citizens NFT Sale.sol\":2986:3014  uint startTime  = 1893484800 */\n  0x05\n  sstore\n    /* \"contracts/Founding Citizens NFT Sale.sol\":3117:3127  1893484900 */\n  0x70dc4964\n    /* \"contracts/Founding Citizens NFT Sale.sol\":3099:3127  uint endTime    = 1893484900 */\n  0x06\n  sstore\n    /* \"contracts/Founding Citizens NFT Sale.sol\":3154:3156  10 */\n  0x0a\n    /* \"contracts/Founding Citizens NFT Sale.sol\":3136:3156  uint startPrice = 10 */\n  0x07\n  sstore\n    /* \"contracts/Founding Citizens NFT Sale.sol\":3212:3213  1 */\n  0x01\n    /* \"contracts/Founding Citizens NFT Sale.sol\":3196:3213  uint EndPrice = 1 */\n  0x08\n  sstore\n    /* \"contracts/Founding Citizens NFT Sale.sol\":3393:3430  Update(10000, block.timestamp, false) */\n  mload(0x40)\n  dup1\n  0x60\n  add\n  0x40\n  mstore\n  dup1\n    /* \"contracts/Founding Citizens NFT Sale.sol\":3400:3405  10000 */\n  0x2710\n    /* \"contracts/Founding Citizens NFT Sale.sol\":3393:3430  Update(10000, block.timestamp, false) */\n  dup2\n  mstore\n  0x20\n  add\n    /* \"contracts/Founding Citizens NFT Sale.sol\":3407:3422  block.timestamp */\n  timestamp\n    /* \"contracts/Founding Citizens NFT Sale.sol\":3393:3430  Update(10000, block.timestamp, false) */\n  dup2\n  mstore\n  0x20\n  add\n    /* \"contracts/Founding Citizens NFT Sale.sol\":3424:3429  false */\n  0x00\n    /* \"contracts/Founding Citizens NFT Sale.sol\":3393:3430  Update(10000, block.timestamp, false) */\n  iszero\n  iszero\n  dup2\n  mstore\n  pop\n    /* \"contracts/Founding Citizens NFT Sale.sol\":3366:3430  Update public lastUpdate = Update(10000, block.timestamp, false) */\n  0x09\n  0x00\n  dup3\n  add\n  mload\n  dup2\n  0x00\n  add\n  sstore\n  0x20\n  dup3\n  add\n  mload\n  dup2\n  0x01\n  add\n  sstore\n  0x40\n  dup3\n  add\n  mload\n  dup2\n  0x02\n  add\n  exp(0x0100, 0x00)\n  dup2\n  sload\n  dup2\n  0xff\n  mul\n  not\n  and\n  swap1\n  dup4\n  iszero\n  iszero\n  mul\n  or\n  swap1\n  sstore\n  pop\n  pop\n  pop\n    /* \"contracts/Founding Citizens NFT Sale.sol\":3655:3687  constructor() {\r... */\n  callvalue\n  dup1\n  iszero\n  tag_1\n  jumpi\n  0x00\n  dup1\n  revert\ntag_1:\n  pop\n    /* \"@openzeppelin/contracts@4.4.2/access/Ownable.sol\":921:953  _transferOwnership(_msgSender()) */\n  tag_5\n    /* \"@openzeppelin/contracts@4.4.2/access/Ownable.sol\":940:952  _msgSender() */\n  tag_6\n    /* \"@openzeppelin/contracts@4.4.2/access/Ownable.sol\":940:950  _msgSender */\n  shl(0x20, tag_7)\n    /* \"@openzeppelin/contracts@4.4.2/access/Ownable.sol\":940:952  _msgSender() */\n  0x20\n  shr\n  jump\t// in\ntag_6:\n    /* \"@openzeppelin/contracts@4.4.2/access/Ownable.sol\":921:939  _transferOwnership */\n  shl(0x20, tag_8)\n    /* \"@openzeppelin/contracts@4.4.2/access/Ownable.sol\":921:953  _transferOwnership(_msgSender()) */\n  0x20\n  shr\n  jump\t// in\ntag_5:\n    /* \"contracts/Founding Citizens NFT Sale.sol\":2748:5930  contract FoundingNFTSale is Ownable {\r... */\n  jump(tag_10)\n    /* \"@openzeppelin/contracts@4.4.2/utils/Context.sol\":640:736  function _msgSender() internal view virtual returns (address) {... */\ntag_7:\n    /* \"@openzeppelin/contracts@4.4.2/utils/Context.sol\":693:700  address */\n  0x00\n    /* \"@openzeppelin/contracts@4.4.2/utils/Context.sol\":719:729  msg.sender */\n  caller\n    /* \"@openzeppelin/contracts@4.4.2/utils/Context.sol\":712:729  return msg.sender */\n  swap1\n  pop\n    /* \"@openzeppelin/contracts@4.4.2/utils/Context.sol\":640:736  function _msgSender() internal view virtual returns (address) {... */\n  swap1\n  jump\t// out\n    /* \"@openzeppelin/contracts@4.4.2/access/Ownable.sol\":2270:2457  function _transferOwnership(address newOwner) internal virtual {... */\ntag_8:\n    /* \"@openzeppelin/contracts@4.4.2/access/Ownable.sol\":2343:2359  address oldOwner */\n  0x00\n    /* \"@openzeppelin/contracts@4.4.2/access/Ownable.sol\":2362:2368  _owner */\n  dup1\n  0x00\n  swap1\n  sload\n  swap1\n  0x0100\n  exp\n  swap1\n  div\n  0xffffffffffffffffffffffffffffffffffffffff\n  and\n    /* \"@openzeppelin/contracts@4.4.2/access/Ownable.sol\":2343:2368  address oldOwner = _owner */\n  swap1\n  pop\n    /* \"@openzeppelin/contracts@4.4.2/access/Ownable.sol\":2387:2395  newOwner */\n  dup2\n    /* \"@openzeppelin/contracts@4.4.2/access/Ownable.sol\":2378:2384  _owner */\n  0x00\n  dup1\n    /* \"@openzeppelin/contracts@4.4.2/access/Ownable.sol\":2378:2395  _owner = newOwner */\n  0x0100\n  exp\n  dup2\n  sload\n  dup2\n  0xffffffffffffffffffffffffffffffffffffffff\n  mul\n  not\n  and\n  swap1\n  dup4\n  0xffffffffffffffffffffffffffffffffffffffff\n  and\n  mul\n  or\n  swap1\n  sstore\n  pop\n    /* \"@openzeppelin/contracts@4.4.2/access/Ownable.sol\":2441:2449  newOwner */\n  dup2\n    /* \"@openzeppelin/contracts@4.4.2/access/Ownable.sol\":2410:2450  OwnershipTransferred(oldOwner, newOwner) */\n  0xffffffffffffffffffffffffffffffffffffffff\n  and\n    /* \"@openzeppelin/contracts@4.4.2/access/Ownable.sol\":2431:2439  oldOwner */\n  dup2\n    /* \"@openzeppelin/contracts@4.4.2/access/Ownable.sol\":2410:2450  OwnershipTransferred(oldOwner, newOwner) */\n  0xffffffffffffffffffffffffffffffffffffffff\n  and\n  0x8be0079c531659141344cd1fd0a4f28419497f9722a3daafe3b4186f6b6457e0\n  mload(0x40)\n  mload(0x40)\n  dup1\n  swap2\n  sub\n  swap1\n  log3\n    /* \"@openzeppelin/contracts@4.4.2/access/Ownable.sol\":2270:2457  function _transferOwnership(address newOwner) internal virtual {... */\n  pop\n  pop\n  jump\t// out\n    /* \"contracts/Founding Citizens NFT Sale.sol\":2748:5930  contract FoundingNFTSale is Ownable {\r... */\ntag_10:\n  dataSize(sub_0)\n  dup1\n  dataOffset(sub_0)\n  0x00\n  codecopy\n  0x00\n  return\nstop\n\nsub_0: assembly {\n        /* \"contracts/Founding Citizens NFT Sale.sol\":2748:5930  contract FoundingNFTSale is Ownable {\r... */\n      mstore(0x40, 0x80)\n      callvalue\n      dup1\n      iszero\n      tag_1\n      jumpi\n      0x00\n      dup1\n      revert\n    tag_1:\n      pop\n      jumpi(tag_2, lt(calldatasize, 0x04))\n      shr(0xe0, calldataload(0x00))\n      dup1\n      0x91232f18\n      gt\n      tag_20\n      jumpi\n      dup1\n      0xc0463711\n      gt\n      tag_21\n      jumpi\n      dup1\n      0xc0463711\n      eq\n      tag_15\n      jumpi\n      dup1\n      0xc5dae48f\n      eq\n      tag_16\n      jumpi\n      dup1\n      0xc5f956af\n      eq\n      tag_17\n      jumpi\n      dup1\n      0xf121da92\n      eq\n      tag_18\n      jumpi\n      dup1\n      0xf2fde38b\n      eq\n      tag_19\n      jumpi\n      jump(tag_2)\n    tag_21:\n      dup1\n      0x91232f18\n      eq\n      tag_11\n      jumpi\n      dup1\n      0x944044a1\n      eq\n      tag_12\n      jumpi\n      dup1\n      0xb79d283f\n      eq\n      tag_13\n      jumpi\n      dup1\n      0xbff29cee\n      eq\n      tag_14\n      jumpi\n      jump(tag_2)\n    tag_20:\n      dup1\n      0x715018a6\n      gt\n      tag_22\n      jumpi\n      dup1\n      0x715018a6\n      eq\n      tag_7\n      jumpi\n      dup1\n      0x7a6a23fd\n      eq\n      tag_8\n      jumpi\n      dup1\n      0x8c83faeb\n      eq\n      tag_9\n      jumpi\n      dup1\n      0x8da5cb5b\n      eq\n      tag_10\n      jumpi\n      jump(tag_2)\n    tag_22:\n      dup1\n      0x4c0f38c2\n      eq\n      tag_3\n      jumpi\n      dup1\n      0x51f7598c\n      eq\n      tag_4\n      jumpi\n      dup1\n      0x5ce7e721\n      eq\n      tag_5\n      jumpi\n      dup1\n      0x68fc01a2\n      eq\n      tag_6\n      jumpi\n    tag_2:\n      0x00\n      dup1\n      revert\n        /* \"contracts/Founding Citizens NFT Sale.sol\":4801:4928  function getMaxSupply() public view returns(uint) {\r... */\n    tag_3:\n      tag_23\n      tag_24\n      jump\t// in\n    tag_23:\n      mload(0x40)\n      tag_25\n      swap2\n      swap1\n      tag_26\n      jump\t// in\n    tag_25:\n      mload(0x40)\n      dup1\n      swap2\n      sub\n      swap1\n      return\n        /* \"contracts/Founding Citizens NFT Sale.sol\":4194:4342  function setStorageContractAddress(address storageAddress) public onlyOwner {\r... */\n    tag_4:\n      tag_27\n      0x04\n      dup1\n      calldatasize\n      sub\n      dup2\n      add\n      swap1\n      tag_28\n      swap2\n      swap1\n      tag_29\n      jump\t// in\n    tag_28:\n      tag_30\n      jump\t// in\n    tag_27:\n      stop\n        /* \"contracts/Founding Citizens NFT Sale.sol\":2840:2888  IPrivilegedListStorage public privilgedBuyerList */\n    tag_5:\n      tag_31\n      tag_32\n      jump\t// in\n    tag_31:\n      mload(0x40)\n      tag_33\n      swap2\n      swap1\n      tag_34\n      jump\t// in\n    tag_33:\n      mload(0x40)\n      dup1\n      swap2\n      sub\n      swap1\n      return\n        /* \"contracts/Founding Citizens NFT Sale.sol\":4654:4793  function getNextUnusedToken() public view returns(uint) {\r... */\n    tag_6:\n      tag_35\n      tag_36\n      jump\t// in\n    tag_35:\n      mload(0x40)\n      tag_37\n      swap2\n      swap1\n      tag_26\n      jump\t// in\n    tag_37:\n      mload(0x40)\n      dup1\n      swap2\n      sub\n      swap1\n      return\n        /* \"@openzeppelin/contracts@4.4.2/access/Ownable.sol\":1668:1769  function renounceOwnership() public virtual onlyOwner {... */\n    tag_7:\n      tag_38\n      tag_39\n      jump\t// in\n    tag_38:\n      stop\n        /* \"contracts/Founding Citizens NFT Sale.sol\":5134:5278  function calculateCustomPrice(address prospectiveBuyer) public requiresUpdate returns(uint) {\r... */\n    tag_8:\n      tag_40\n      0x04\n      dup1\n      calldatasize\n      sub\n      dup2\n      add\n      swap1\n      tag_41\n      swap2\n      swap1\n      tag_29\n      jump\t// in\n    tag_41:\n      tag_42\n      jump\t// in\n    tag_40:\n      mload(0x40)\n      tag_43\n      swap2\n      swap1\n      tag_26\n      jump\t// in\n    tag_43:\n      mload(0x40)\n      dup1\n      swap2\n      sub\n      swap1\n      return\n        /* \"contracts/Founding Citizens NFT Sale.sol\":2791:2833  IMintStorage public ERC1155storageContract */\n    tag_9:\n      tag_44\n      tag_45\n      jump\t// in\n    tag_44:\n      mload(0x40)\n      tag_46\n      swap2\n      swap1\n      tag_47\n      jump\t// in\n    tag_46:\n      mload(0x40)\n      dup1\n      swap2\n      sub\n      swap1\n      return\n        /* \"@openzeppelin/contracts@4.4.2/access/Ownable.sol\":1036:1121  function owner() public view virtual returns (address) {... */\n    tag_10:\n      tag_48\n      tag_49\n      jump\t// in\n    tag_48:\n      mload(0x40)\n      tag_50\n      swap2\n      swap1\n      tag_51\n      jump\t// in\n    tag_50:\n      mload(0x40)\n      dup1\n      swap2\n      sub\n      swap1\n      return\n        /* \"contracts/Founding Citizens NFT Sale.sol\":5554:5927  function mintToTreasuryAddress() public requiresUpdate {\r... */\n    tag_11:\n      tag_52\n      tag_53\n      jump\t// in\n    tag_52:\n      stop\n        /* \"contracts/Founding Citizens NFT Sale.sol\":4936:5029  function setstartTime(uint unixTime) public onlyOwner {\r... */\n    tag_12:\n      tag_54\n      0x04\n      dup1\n      calldatasize\n      sub\n      dup2\n      add\n      swap1\n      tag_55\n      swap2\n      swap1\n      tag_56\n      jump\t// in\n    tag_55:\n      tag_57\n      jump\t// in\n    tag_54:\n      stop\n        /* \"contracts/Founding Citizens NFT Sale.sol\":5037:5126  function setendTime(uint unixTime) public onlyOwner {\r... */\n    tag_13:\n      tag_58\n      0x04\n      dup1\n      calldatasize\n      sub\n      dup2\n      add\n      swap1\n      tag_59\n      swap2\n      swap1\n      tag_56\n      jump\t// in\n    tag_59:\n      tag_60\n      jump\t// in\n    tag_58:\n      stop\n        /* \"contracts/Founding Citizens NFT Sale.sol\":5290:5546  function buyNFT() public requiresUpdate { //requires using existing balance\r... */\n    tag_14:\n      tag_61\n      tag_62\n      jump\t// in\n    tag_61:\n      stop\n        /* \"contracts/Founding Citizens NFT Sale.sol\":3366:3430  Update public lastUpdate = Update(10000, block.timestamp, false) */\n    tag_15:\n      tag_63\n      tag_64\n      jump\t// in\n    tag_63:\n      mload(0x40)\n      tag_65\n      swap4\n      swap3\n      swap2\n      swap1\n      tag_66\n      jump\t// in\n    tag_65:\n      mload(0x40)\n      dup1\n      swap2\n      sub\n      swap1\n      return\n        /* \"contracts/Founding Citizens NFT Sale.sol\":2895:2940  IUsdcStorage public usdcEscrowStorageContract */\n    tag_16:\n      tag_67\n      tag_68\n      jump\t// in\n    tag_67:\n      mload(0x40)\n      tag_69\n      swap2\n      swap1\n      tag_70\n      jump\t// in\n    tag_69:\n      mload(0x40)\n      dup1\n      swap2\n      sub\n      swap1\n      return\n        /* \"contracts/Founding Citizens NFT Sale.sol\":2947:2977  address public treasuryAddress */\n    tag_17:\n      tag_71\n      tag_72\n      jump\t// in\n    tag_71:\n      mload(0x40)\n      tag_73\n      swap2\n      swap1\n      tag_51\n      jump\t// in\n    tag_73:\n      mload(0x40)\n      dup1\n      swap2\n      sub\n      swap1\n      return\n        /* \"contracts/Founding Citizens NFT Sale.sol\":4489:4646  function preLoadURIs(uint[] memory ids, string[] memory uris) public onlyOwner {\r... */\n    tag_18:\n      tag_74\n      0x04\n      dup1\n      calldatasize\n      sub\n      dup2\n      add\n      swap1\n      tag_75\n      swap2\n      swap1\n      tag_76\n      jump\t// in\n    tag_75:\n      tag_77\n      jump\t// in\n    tag_74:\n      stop\n        /* \"@openzeppelin/contracts@4.4.2/access/Ownable.sol\":1918:2116  function transferOwnership(address newOwner) public virtual onlyOwner {... */\n    tag_19:\n      tag_78\n      0x04\n      dup1\n      calldatasize\n      sub\n      dup2\n      add\n      swap1\n      tag_79\n      swap2\n      swap1\n      tag_29\n      jump\t// in\n    tag_79:\n      tag_80\n      jump\t// in\n    tag_78:\n      stop\n        /* \"contracts/Founding Citizens NFT Sale.sol\":4801:4928  function getMaxSupply() public view returns(uint) {\r... */\n    tag_24:\n        /* \"contracts/Founding Citizens NFT Sale.sol\":4845:4849  uint */\n      0x00\n        /* \"contracts/Founding Citizens NFT Sale.sol\":4882:4904  ERC1155storageContract */\n      0x01\n      0x00\n      swap1\n      sload\n      swap1\n      0x0100\n      exp\n      swap1\n      div\n      0xffffffffffffffffffffffffffffffffffffffff\n      and\n        /* \"contracts/Founding Citizens NFT Sale.sol\":4869:4918  IMintStorage(ERC1155storageContract).getMaxSupply */\n      0xffffffffffffffffffffffffffffffffffffffff\n      and\n      0x4c0f38c2\n        /* \"contracts/Founding Citizens NFT Sale.sol\":4869:4920  IMintStorage(ERC1155storageContract).getMaxSupply() */\n      mload(0x40)\n      dup2\n      0xffffffff\n      and\n      0xe0\n      shl\n      dup2\n      mstore\n      0x04\n      add\n      0x20\n      mload(0x40)\n      dup1\n      dup4\n      sub\n      dup2\n      dup7\n      dup1\n      extcodesize\n      iszero\n      dup1\n      iszero\n      tag_82\n      jumpi\n      0x00\n      dup1\n      revert\n    tag_82:\n      pop\n      gas\n      staticcall\n      iszero\n      dup1\n      iszero\n      tag_84\n      jumpi\n      returndatasize\n      0x00\n      dup1\n      returndatacopy\n      revert(0x00, returndatasize)\n    tag_84:\n      pop\n      pop\n      pop\n      pop\n      mload(0x40)\n      returndatasize\n      not(0x1f)\n      0x1f\n      dup3\n      add\n      and\n      dup3\n      add\n      dup1\n      0x40\n      mstore\n      pop\n      dup2\n      add\n      swap1\n      tag_85\n      swap2\n      swap1\n      tag_86\n      jump\t// in\n    tag_85:\n        /* \"contracts/Founding Citizens NFT Sale.sol\":4862:4920  return IMintStorage(ERC1155storageContract).getMaxSupply() */\n      swap1\n      pop\n        /* \"contracts/Founding Citizens NFT Sale.sol\":4801:4928  function getMaxSupply() public view returns(uint) {\r... */\n      swap1\n      jump\t// out\n        /* \"contracts/Founding Citizens NFT Sale.sol\":4194:4342  function setStorageContractAddress(address storageAddress) public onlyOwner {\r... */\n    tag_30:\n        /* \"@openzeppelin/contracts@4.4.2/access/Ownable.sol\":1259:1271  _msgSender() */\n      tag_88\n        /* \"@openzeppelin/contracts@4.4.2/access/Ownable.sol\":1259:1269  _msgSender */\n      tag_89\n        /* \"@openzeppelin/contracts@4.4.2/access/Ownable.sol\":1259:1271  _msgSender() */\n      jump\t// in\n    tag_88:\n        /* \"@openzeppelin/contracts@4.4.2/access/Ownable.sol\":1248:1271  owner() == _msgSender() */\n      0xffffffffffffffffffffffffffffffffffffffff\n      and\n        /* \"@openzeppelin/contracts@4.4.2/access/Ownable.sol\":1248:1255  owner() */\n      tag_90\n        /* \"@openzeppelin/contracts@4.4.2/access/Ownable.sol\":1248:1253  owner */\n      tag_49\n        /* \"@openzeppelin/contracts@4.4.2/access/Ownable.sol\":1248:1255  owner() */\n      jump\t// in\n    tag_90:\n        /* \"@openzeppelin/contracts@4.4.2/access/Ownable.sol\":1248:1271  owner() == _msgSender() */\n      0xffffffffffffffffffffffffffffffffffffffff\n      and\n      eq\n        /* \"@openzeppelin/contracts@4.4.2/access/Ownable.sol\":1240:1308  require(owner() == _msgSender(), \"Ownable: caller is not the owner\") */\n      tag_91\n      jumpi\n      mload(0x40)\n      0x08c379a000000000000000000000000000000000000000000000000000000000\n      dup2\n      mstore\n      0x04\n      add\n      tag_92\n      swap1\n      tag_93\n      jump\t// in\n    tag_92:\n      mload(0x40)\n      dup1\n      swap2\n      sub\n      swap1\n      revert\n    tag_91:\n        /* \"contracts/Founding Citizens NFT Sale.sol\":4319:4333  storageAddress */\n      dup1\n        /* \"contracts/Founding Citizens NFT Sale.sol\":4281:4303  ERC1155storageContract */\n      0x01\n      0x00\n        /* \"contracts/Founding Citizens NFT Sale.sol\":4281:4334  ERC1155storageContract = IMintStorage(storageAddress) */\n      0x0100\n      exp\n      dup2\n      sload\n      dup2\n      0xffffffffffffffffffffffffffffffffffffffff\n      mul\n      not\n      and\n      swap1\n      dup4\n      0xffffffffffffffffffffffffffffffffffffffff\n      and\n      mul\n      or\n      swap1\n      sstore\n      pop\n        /* \"contracts/Founding Citizens NFT Sale.sol\":4194:4342  function setStorageContractAddress(address storageAddress) public onlyOwner {\r... */\n      pop\n      jump\t// out\n        /* \"contracts/Founding Citizens NFT Sale.sol\":2840:2888  IPrivilegedListStorage public privilgedBuyerList */\n    tag_32:\n      0x02\n      0x00\n      swap1\n      sload\n      swap1\n      0x0100\n      exp\n      swap1\n      div\n      0xffffffffffffffffffffffffffffffffffffffff\n      and\n      dup2\n      jump\t// out\n        /* \"contracts/Founding Citizens NFT Sale.sol\":4654:4793  function getNextUnusedToken() public view returns(uint) {\r... */\n    tag_36:\n        /* \"contracts/Founding Citizens NFT Sale.sol\":4704:4708  uint */\n      0x00\n        /* \"contracts/Founding Citizens NFT Sale.sol\":4741:4763  ERC1155storageContract */\n      0x01\n      0x00\n      swap1\n      sload\n      swap1\n      0x0100\n      exp\n      swap1\n      div\n      0xffffffffffffffffffffffffffffffffffffffff\n      and\n        /* \"contracts/Founding Citizens NFT Sale.sol\":4728:4783  IMintStorage(ERC1155storageContract).getNextUnusedToken */\n      0xffffffffffffffffffffffffffffffffffffffff\n      and\n      0x68fc01a2\n        /* \"contracts/Founding Citizens NFT Sale.sol\":4728:4785  IMintStorage(ERC1155storageContract).getNextUnusedToken() */\n      mload(0x40)\n      dup2\n      0xffffffff\n      and\n      0xe0\n      shl\n      dup2\n      mstore\n      0x04\n      add\n      0x20\n      mload(0x40)\n      dup1\n      dup4\n      sub\n      dup2\n      dup7\n      dup1\n      extcodesize\n      iszero\n      dup1\n      iszero\n      tag_96\n      jumpi\n      0x00\n      dup1\n      revert\n    tag_96:\n      pop\n      gas\n      staticcall\n      iszero\n      dup1\n      iszero\n      tag_98\n      jumpi\n      returndatasize\n      0x00\n      dup1\n      returndatacopy\n      revert(0x00, returndatasize)\n    tag_98:\n      pop\n      pop\n      pop\n      pop\n      mload(0x40)\n      returndatasize\n      not(0x1f)\n      0x1f\n      dup3\n      add\n      and\n      dup3\n      add\n      dup1\n      0x40\n      mstore\n      pop\n      dup2\n      add\n      swap1\n      tag_99\n      swap2\n      swap1\n      tag_86\n      jump\t// in\n    tag_99:\n        /* \"contracts/Founding Citizens NFT Sale.sol\":4721:4785  return IMintStorage(ERC1155storageContract).getNextUnusedToken() */\n      swap1\n      pop\n        /* \"contracts/Founding Citizens NFT Sale.sol\":4654:4793  function getNextUnusedToken() public view returns(uint) {\r... */\n      swap1\n      jump\t// out\n        /* \"@openzeppelin/contracts@4.4.2/access/Ownable.sol\":1668:1769  function renounceOwnership() public virtual onlyOwner {... */\n    tag_39:\n        /* \"@openzeppelin/contracts@4.4.2/access/Ownable.sol\":1259:1271  _msgSender() */\n      tag_101\n        /* \"@openzeppelin/contracts@4.4.2/access/Ownable.sol\":1259:1269  _msgSender */\n      tag_89\n        /* \"@openzeppelin/contracts@4.4.2/access/Ownable.sol\":1259:1271  _msgSender() */\n      jump\t// in\n    tag_101:\n        /* \"@openzeppelin/contracts@4.4.2/access/Ownable.sol\":1248:1271  owner() == _msgSender() */\n      0xffffffffffffffffffffffffffffffffffffffff\n      and\n        /* \"@openzeppelin/contracts@4.4.2/access/Ownable.sol\":1248:1255  owner() */\n      tag_102\n        /* \"@openzeppelin/contracts@4.4.2/access/Ownable.sol\":1248:1253  owner */\n      tag_49\n        /* \"@openzeppelin/contracts@4.4.2/access/Ownable.sol\":1248:1255  owner() */\n      jump\t// in\n    tag_102:\n        /* \"@openzeppelin/contracts@4.4.2/access/Ownable.sol\":1248:1271  owner() == _msgSender() */\n      0xffffffffffffffffffffffffffffffffffffffff\n      and\n      eq\n        /* \"@openzeppelin/contracts@4.4.2/access/Ownable.sol\":1240:1308  require(owner() == _msgSender(), \"Ownable: caller is not the owner\") */\n      tag_103\n      jumpi\n      mload(0x40)\n      0x08c379a000000000000000000000000000000000000000000000000000000000\n      dup2\n      mstore\n      0x04\n      add\n      tag_104\n      swap1\n      tag_93\n      jump\t// in\n    tag_104:\n      mload(0x40)\n      dup1\n      swap2\n      sub\n      swap1\n      revert\n    tag_103:\n        /* \"@openzeppelin/contracts@4.4.2/access/Ownable.sol\":1732:1762  _transferOwnership(address(0)) */\n      tag_106\n        /* \"@openzeppelin/contracts@4.4.2/access/Ownable.sol\":1759:1760  0 */\n      0x00\n        /* \"@openzeppelin/contracts@4.4.2/access/Ownable.sol\":1732:1750  _transferOwnership */\n      tag_107\n        /* \"@openzeppelin/contracts@4.4.2/access/Ownable.sol\":1732:1762  _transferOwnership(address(0)) */\n      jump\t// in\n    tag_106:\n        /* \"@openzeppelin/contracts@4.4.2/access/Ownable.sol\":1668:1769  function renounceOwnership() public virtual onlyOwner {... */\n      jump\t// out\n        /* \"contracts/Founding Citizens NFT Sale.sol\":5134:5278  function calculateCustomPrice(address prospectiveBuyer) public requiresUpdate returns(uint) {\r... */\n    tag_42:\n        /* \"contracts/Founding Citizens NFT Sale.sol\":5220:5224  uint */\n      0x00\n        /* \"contracts/Founding Citizens NFT Sale.sol\":3476:3489  updateState() */\n      tag_109\n        /* \"contracts/Founding Citizens NFT Sale.sol\":3476:3487  updateState */\n      tag_110\n        /* \"contracts/Founding Citizens NFT Sale.sol\":3476:3489  updateState() */\n      jump\t// in\n    tag_109:\n        /* \"contracts/Founding Citizens NFT Sale.sol\":5237:5247  uint price */\n      0x00\n        /* \"contracts/Founding Citizens NFT Sale.sol\":5265:5270  price */\n      dup1\n        /* \"contracts/Founding Citizens NFT Sale.sol\":5258:5270  return price */\n      swap2\n      pop\n      pop\n        /* \"contracts/Founding Citizens NFT Sale.sol\":5134:5278  function calculateCustomPrice(address prospectiveBuyer) public requiresUpdate returns(uint) {\r... */\n      swap2\n      swap1\n      pop\n      jump\t// out\n        /* \"contracts/Founding Citizens NFT Sale.sol\":2791:2833  IMintStorage public ERC1155storageContract */\n    tag_45:\n      0x01\n      0x00\n      swap1\n      sload\n      swap1\n      0x0100\n      exp\n      swap1\n      div\n      0xffffffffffffffffffffffffffffffffffffffff\n      and\n      dup2\n      jump\t// out\n        /* \"@openzeppelin/contracts@4.4.2/access/Ownable.sol\":1036:1121  function owner() public view virtual returns (address) {... */\n    tag_49:\n        /* \"@openzeppelin/contracts@4.4.2/access/Ownable.sol\":1082:1089  address */\n      0x00\n        /* \"@openzeppelin/contracts@4.4.2/access/Ownable.sol\":1108:1114  _owner */\n      dup1\n      0x00\n      swap1\n      sload\n      swap1\n      0x0100\n      exp\n      swap1\n      div\n      0xffffffffffffffffffffffffffffffffffffffff\n      and\n        /* \"@openzeppelin/contracts@4.4.2/access/Ownable.sol\":1101:1114  return _owner */\n      swap1\n      pop\n        /* \"@openzeppelin/contracts@4.4.2/access/Ownable.sol\":1036:1121  function owner() public view virtual returns (address) {... */\n      swap1\n      jump\t// out\n        /* \"contracts/Founding Citizens NFT Sale.sol\":5554:5927  function mintToTreasuryAddress() public requiresUpdate {\r... */\n    tag_53:\n        /* \"contracts/Founding Citizens NFT Sale.sol\":3476:3489  updateState() */\n      tag_114\n        /* \"contracts/Founding Citizens NFT Sale.sol\":3476:3487  updateState */\n      tag_110\n        /* \"contracts/Founding Citizens NFT Sale.sol\":3476:3489  updateState() */\n      jump\t// in\n    tag_114:\n        /* \"contracts/Founding Citizens NFT Sale.sol\":5646:5653  endTime */\n      sload(0x06)\n        /* \"contracts/Founding Citizens NFT Sale.sol\":5628:5643  block.timestamp */\n      timestamp\n        /* \"contracts/Founding Citizens NFT Sale.sol\":5628:5653  block.timestamp > endTime */\n      gt\n        /* \"contracts/Founding Citizens NFT Sale.sol\":5628:5679  block.timestamp > endTime && !lastUpdate.saleIsLive */\n      dup1\n      iszero\n      tag_116\n      jumpi\n      pop\n        /* \"contracts/Founding Citizens NFT Sale.sol\":5658:5668  lastUpdate */\n      0x09\n        /* \"contracts/Founding Citizens NFT Sale.sol\":5658:5679  lastUpdate.saleIsLive */\n      0x02\n      add\n      0x00\n      swap1\n      sload\n      swap1\n      0x0100\n      exp\n      swap1\n      div\n      0xff\n      and\n        /* \"contracts/Founding Citizens NFT Sale.sol\":5657:5679  !lastUpdate.saleIsLive */\n      iszero\n        /* \"contracts/Founding Citizens NFT Sale.sol\":5628:5679  block.timestamp > endTime && !lastUpdate.saleIsLive */\n    tag_116:\n        /* \"contracts/Founding Citizens NFT Sale.sol\":5620:5738  require(block.timestamp > endTime && !lastUpdate.saleIsLive, \"Cannot mint to treasury address until sale is finished\") */\n      tag_117\n      jumpi\n      mload(0x40)\n      0x08c379a000000000000000000000000000000000000000000000000000000000\n      dup2\n      mstore\n      0x04\n      add\n      tag_118\n      swap1\n      tag_119\n      jump\t// in\n    tag_118:\n      mload(0x40)\n      dup1\n      swap2\n      sub\n      swap1\n      revert\n    tag_117:\n        /* \"contracts/Founding Citizens NFT Sale.sol\":5749:5764  uint leftToMint */\n      0x00\n        /* \"contracts/Founding Citizens NFT Sale.sol\":5806:5807  1 */\n      0x01\n        /* \"contracts/Founding Citizens NFT Sale.sol\":5785:5805  getNextUnusedToken() */\n      tag_120\n        /* \"contracts/Founding Citizens NFT Sale.sol\":5785:5803  getNextUnusedToken */\n      tag_36\n        /* \"contracts/Founding Citizens NFT Sale.sol\":5785:5805  getNextUnusedToken() */\n      jump\t// in\n    tag_120:\n        /* \"contracts/Founding Citizens NFT Sale.sol\":5785:5807  getNextUnusedToken()-1 */\n      tag_121\n      swap2\n      swap1\n      tag_122\n      jump\t// in\n    tag_121:\n        /* \"contracts/Founding Citizens NFT Sale.sol\":5767:5781  getMaxSupply() */\n      tag_123\n        /* \"contracts/Founding Citizens NFT Sale.sol\":5767:5779  getMaxSupply */\n      tag_24\n        /* \"contracts/Founding Citizens NFT Sale.sol\":5767:5781  getMaxSupply() */\n      jump\t// in\n    tag_123:\n        /* \"contracts/Founding Citizens NFT Sale.sol\":5767:5808  getMaxSupply() - (getNextUnusedToken()-1) */\n      tag_124\n      swap2\n      swap1\n      tag_122\n      jump\t// in\n    tag_124:\n        /* \"contracts/Founding Citizens NFT Sale.sol\":5749:5808  uint leftToMint = getMaxSupply() - (getNextUnusedToken()-1) */\n      swap1\n      pop\n        /* \"contracts/Founding Citizens NFT Sale.sol\":5819:5920  for (; leftToMint > 0; leftToMint--) {\r... */\n    tag_125:\n        /* \"contracts/Founding Citizens NFT Sale.sol\":5839:5840  0 */\n      0x00\n        /* \"contracts/Founding Citizens NFT Sale.sol\":5826:5836  leftToMint */\n      dup2\n        /* \"contracts/Founding Citizens NFT Sale.sol\":5826:5840  leftToMint > 0 */\n      gt\n        /* \"contracts/Founding Citizens NFT Sale.sol\":5819:5920  for (; leftToMint > 0; leftToMint--) {\r... */\n      iszero\n      tag_126\n      jumpi\n        /* \"contracts/Founding Citizens NFT Sale.sol\":5871:5908  mintNextNftToAddress(treasuryAddress) */\n      tag_128\n        /* \"contracts/Founding Citizens NFT Sale.sol\":5892:5907  treasuryAddress */\n      0x04\n      0x00\n      swap1\n      sload\n      swap1\n      0x0100\n      exp\n      swap1\n      div\n      0xffffffffffffffffffffffffffffffffffffffff\n      and\n        /* \"contracts/Founding Citizens NFT Sale.sol\":5871:5891  mintNextNftToAddress */\n      tag_129\n        /* \"contracts/Founding Citizens NFT Sale.sol\":5871:5908  mintNextNftToAddress(treasuryAddress) */\n      jump\t// in\n    tag_128:\n        /* \"contracts/Founding Citizens NFT Sale.sol\":5842:5854  leftToMint-- */\n      dup1\n      dup1\n      tag_130\n      swap1\n      tag_131\n      jump\t// in\n    tag_130:\n      swap2\n      pop\n      pop\n        /* \"contracts/Founding Citizens NFT Sale.sol\":5819:5920  for (; leftToMint > 0; leftToMint--) {\r... */\n      jump(tag_125)\n    tag_126:\n        /* \"contracts/Founding Citizens NFT Sale.sol\":3500:3501  _ */\n      pop\n        /* \"contracts/Founding Citizens NFT Sale.sol\":5554:5927  function mintToTreasuryAddress() public requiresUpdate {\r... */\n      jump\t// out\n        /* \"contracts/Founding Citizens NFT Sale.sol\":4936:5029  function setstartTime(uint unixTime) public onlyOwner {\r... */\n    tag_57:\n        /* \"@openzeppelin/contracts@4.4.2/access/Ownable.sol\":1259:1271  _msgSender() */\n      tag_133\n        /* \"@openzeppelin/contracts@4.4.2/access/Ownable.sol\":1259:1269  _msgSender */\n      tag_89\n        /* \"@openzeppelin/contracts@4.4.2/access/Ownable.sol\":1259:1271  _msgSender() */\n      jump\t// in\n    tag_133:\n        /* \"@openzeppelin/contracts@4.4.2/access/Ownable.sol\":1248:1271  owner() == _msgSender() */\n      0xffffffffffffffffffffffffffffffffffffffff\n      and\n        /* \"@openzeppelin/contracts@4.4.2/access/Ownable.sol\":1248:1255  owner() */\n      tag_134\n        /* \"@openzeppelin/contracts@4.4.2/access/Ownable.sol\":1248:1253  owner */\n      tag_49\n        /* \"@openzeppelin/contracts@4.4.2/access/Ownable.sol\":1248:1255  owner() */\n      jump\t// in\n    tag_134:\n        /* \"@openzeppelin/contracts@4.4.2/access/Ownable.sol\":1248:1271  owner() == _msgSender() */\n      0xffffffffffffffffffffffffffffffffffffffff\n      and\n      eq\n        /* \"@openzeppelin/contracts@4.4.2/access/Ownable.sol\":1240:1308  require(owner() == _msgSender(), \"Ownable: caller is not the owner\") */\n      tag_135\n      jumpi\n      mload(0x40)\n      0x08c379a000000000000000000000000000000000000000000000000000000000\n      dup2\n      mstore\n      0x04\n      add\n      tag_136\n      swap1\n      tag_93\n      jump\t// in\n    tag_136:\n      mload(0x40)\n      dup1\n      swap2\n      sub\n      swap1\n      revert\n    tag_135:\n        /* \"contracts/Founding Citizens NFT Sale.sol\":5013:5021  unixTime */\n      dup1\n        /* \"contracts/Founding Citizens NFT Sale.sol\":5001:5010  startTime */\n      0x05\n        /* \"contracts/Founding Citizens NFT Sale.sol\":5001:5021  startTime = unixTime */\n      dup2\n      swap1\n      sstore\n      pop\n        /* \"contracts/Founding Citizens NFT Sale.sol\":4936:5029  function setstartTime(uint unixTime) public onlyOwner {\r... */\n      pop\n      jump\t// out\n        /* \"contracts/Founding Citizens NFT Sale.sol\":5037:5126  function setendTime(uint unixTime) public onlyOwner {\r... */\n    tag_60:\n        /* \"@openzeppelin/contracts@4.4.2/access/Ownable.sol\":1259:1271  _msgSender() */\n      tag_139\n        /* \"@openzeppelin/contracts@4.4.2/access/Ownable.sol\":1259:1269  _msgSender */\n      tag_89\n        /* \"@openzeppelin/contracts@4.4.2/access/Ownable.sol\":1259:1271  _msgSender() */\n      jump\t// in\n    tag_139:\n        /* \"@openzeppelin/contracts@4.4.2/access/Ownable.sol\":1248:1271  owner() == _msgSender() */\n      0xffffffffffffffffffffffffffffffffffffffff\n      and\n        /* \"@openzeppelin/contracts@4.4.2/access/Ownable.sol\":1248:1255  owner() */\n      tag_140\n        /* \"@openzeppelin/contracts@4.4.2/access/Ownable.sol\":1248:1253  owner */\n      tag_49\n        /* \"@openzeppelin/contracts@4.4.2/access/Ownable.sol\":1248:1255  owner() */\n      jump\t// in\n    tag_140:\n        /* \"@openzeppelin/contracts@4.4.2/access/Ownable.sol\":1248:1271  owner() == _msgSender() */\n      0xffffffffffffffffffffffffffffffffffffffff\n      and\n      eq\n        /* \"@openzeppelin/contracts@4.4.2/access/Ownable.sol\":1240:1308  require(owner() == _msgSender(), \"Ownable: caller is not the owner\") */\n      tag_141\n      jumpi\n      mload(0x40)\n      0x08c379a000000000000000000000000000000000000000000000000000000000\n      dup2\n      mstore\n      0x04\n      add\n      tag_142\n      swap1\n      tag_93\n      jump\t// in\n    tag_142:\n      mload(0x40)\n      dup1\n      swap2\n      sub\n      swap1\n      revert\n    tag_141:\n        /* \"contracts/Founding Citizens NFT Sale.sol\":5110:5118  unixTime */\n      dup1\n        /* \"contracts/Founding Citizens NFT Sale.sol\":5100:5107  endTime */\n      0x06\n        /* \"contracts/Founding Citizens NFT Sale.sol\":5100:5118  endTime = unixTime */\n      dup2\n      swap1\n      sstore\n      pop\n        /* \"contracts/Founding Citizens NFT Sale.sol\":5037:5126  function setendTime(uint unixTime) public onlyOwner {\r... */\n      pop\n      jump\t// out\n        /* \"contracts/Founding Citizens NFT Sale.sol\":5290:5546  function buyNFT() public requiresUpdate { //requires using existing balance\r... */\n    tag_62:\n        /* \"contracts/Founding Citizens NFT Sale.sol\":3476:3489  updateState() */\n      tag_145\n        /* \"contracts/Founding Citizens NFT Sale.sol\":3476:3487  updateState */\n      tag_110\n        /* \"contracts/Founding Citizens NFT Sale.sol\":3476:3489  updateState() */\n      jump\t// in\n    tag_145:\n        /* \"contracts/Founding Citizens NFT Sale.sol\":5375:5385  uint price */\n      0x00\n        /* \"contracts/Founding Citizens NFT Sale.sol\":5388:5420  calculateCustomPrice(msg.sender) */\n      tag_147\n        /* \"contracts/Founding Citizens NFT Sale.sol\":5409:5419  msg.sender */\n      caller\n        /* \"contracts/Founding Citizens NFT Sale.sol\":5388:5408  calculateCustomPrice */\n      tag_42\n        /* \"contracts/Founding Citizens NFT Sale.sol\":5388:5420  calculateCustomPrice(msg.sender) */\n      jump\t// in\n    tag_147:\n        /* \"contracts/Founding Citizens NFT Sale.sol\":5375:5420  uint price = calculateCustomPrice(msg.sender) */\n      swap1\n      pop\n        /* \"contracts/Founding Citizens NFT Sale.sol\":5431:5456  usdcEscrowStorageContract */\n      0x03\n      0x00\n      swap1\n      sload\n      swap1\n      0x0100\n      exp\n      swap1\n      div\n      0xffffffffffffffffffffffffffffffffffffffff\n      and\n        /* \"contracts/Founding Citizens NFT Sale.sol\":5431:5476  usdcEscrowStorageContract.decreaseUsdcBalance */\n      0xffffffffffffffffffffffffffffffffffffffff\n      and\n      0x532b2913\n        /* \"contracts/Founding Citizens NFT Sale.sol\":5477:5487  msg.sender */\n      caller\n        /* \"contracts/Founding Citizens NFT Sale.sol\":5489:5494  price */\n      dup4\n        /* \"contracts/Founding Citizens NFT Sale.sol\":5431:5495  usdcEscrowStorageContract.decreaseUsdcBalance(msg.sender, price) */\n      mload(0x40)\n      dup4\n      0xffffffff\n      and\n      0xe0\n      shl\n      dup2\n      mstore\n      0x04\n      add\n      tag_148\n      swap3\n      swap2\n      swap1\n      tag_149\n      jump\t// in\n    tag_148:\n      0x00\n      mload(0x40)\n      dup1\n      dup4\n      sub\n      dup2\n      0x00\n      dup8\n      dup1\n      extcodesize\n      iszero\n      dup1\n      iszero\n      tag_150\n      jumpi\n      0x00\n      dup1\n      revert\n    tag_150:\n      pop\n      gas\n      call\n      iszero\n      dup1\n      iszero\n      tag_152\n      jumpi\n      returndatasize\n      0x00\n      dup1\n      returndatacopy\n      revert(0x00, returndatasize)\n    tag_152:\n      pop\n      pop\n      pop\n      pop\n        /* \"contracts/Founding Citizens NFT Sale.sol\":5506:5538  mintNextNftToAddress(msg.sender) */\n      tag_153\n        /* \"contracts/Founding Citizens NFT Sale.sol\":5527:5537  msg.sender */\n      caller\n        /* \"contracts/Founding Citizens NFT Sale.sol\":5506:5526  mintNextNftToAddress */\n      tag_129\n        /* \"contracts/Founding Citizens NFT Sale.sol\":5506:5538  mintNextNftToAddress(msg.sender) */\n      jump\t// in\n    tag_153:\n        /* \"contracts/Founding Citizens NFT Sale.sol\":3500:3501  _ */\n      pop\n        /* \"contracts/Founding Citizens NFT Sale.sol\":5290:5546  function buyNFT() public requiresUpdate { //requires using existing balance\r... */\n      jump\t// out\n        /* \"contracts/Founding Citizens NFT Sale.sol\":3366:3430  Update public lastUpdate = Update(10000, block.timestamp, false) */\n    tag_64:\n      0x09\n      dup1\n      0x00\n      add\n      sload\n      swap1\n      dup1\n      0x01\n      add\n      sload\n      swap1\n      dup1\n      0x02\n      add\n      0x00\n      swap1\n      sload\n      swap1\n      0x0100\n      exp\n      swap1\n      div\n      0xff\n      and\n      swap1\n      pop\n      dup4\n      jump\t// out\n        /* \"contracts/Founding Citizens NFT Sale.sol\":2895:2940  IUsdcStorage public usdcEscrowStorageContract */\n    tag_68:\n      0x03\n      0x00\n      swap1\n      sload\n      swap1\n      0x0100\n      exp\n      swap1\n      div\n      0xffffffffffffffffffffffffffffffffffffffff\n      and\n      dup2\n      jump\t// out\n        /* \"contracts/Founding Citizens NFT Sale.sol\":2947:2977  address public treasuryAddress */\n    tag_72:\n      0x04\n      0x00\n      swap1\n      sload\n      swap1\n      0x0100\n      exp\n      swap1\n      div\n      0xffffffffffffffffffffffffffffffffffffffff\n      and\n      dup2\n      jump\t// out\n        /* \"contracts/Founding Citizens NFT Sale.sol\":4489:4646  function preLoadURIs(uint[] memory ids, string[] memory uris) public onlyOwner {\r... */\n    tag_77:\n        /* \"@openzeppelin/contracts@4.4.2/access/Ownable.sol\":1259:1271  _msgSender() */\n      tag_155\n        /* \"@openzeppelin/contracts@4.4.2/access/Ownable.sol\":1259:1269  _msgSender */\n      tag_89\n        /* \"@openzeppelin/contracts@4.4.2/access/Ownable.sol\":1259:1271  _msgSender() */\n      jump\t// in\n    tag_155:\n        /* \"@openzeppelin/contracts@4.4.2/access/Ownable.sol\":1248:1271  owner() == _msgSender() */\n      0xffffffffffffffffffffffffffffffffffffffff\n      and\n        /* \"@openzeppelin/contracts@4.4.2/access/Ownable.sol\":1248:1255  owner() */\n      tag_156\n        /* \"@openzeppelin/contracts@4.4.2/access/Ownable.sol\":1248:1253  owner */\n      tag_49\n        /* \"@openzeppelin/contracts@4.4.2/access/Ownable.sol\":1248:1255  owner() */\n      jump\t// in\n    tag_156:\n        /* \"@openzeppelin/contracts@4.4.2/access/Ownable.sol\":1248:1271  owner() == _msgSender() */\n      0xffffffffffffffffffffffffffffffffffffffff\n      and\n      eq\n        /* \"@openzeppelin/contracts@4.4.2/access/Ownable.sol\":1240:1308  require(owner() == _msgSender(), \"Ownable: caller is not the owner\") */\n      tag_157\n      jumpi\n      mload(0x40)\n      0x08c379a000000000000000000000000000000000000000000000000000000000\n      dup2\n      mstore\n      0x04\n      add\n      tag_158\n      swap1\n      tag_93\n      jump\t// in\n    tag_158:\n      mload(0x40)\n      dup1\n      swap2\n      sub\n      swap1\n      revert\n    tag_157:\n        /* \"contracts/Founding Citizens NFT Sale.sol\":4592:4614  ERC1155storageContract */\n      0x01\n      0x00\n      swap1\n      sload\n      swap1\n      0x0100\n      exp\n      swap1\n      div\n      0xffffffffffffffffffffffffffffffffffffffff\n      and\n        /* \"contracts/Founding Citizens NFT Sale.sol\":4579:4627  IMintStorage(ERC1155storageContract).preLoadURIs */\n      0xffffffffffffffffffffffffffffffffffffffff\n      and\n      0xf121da92\n        /* \"contracts/Founding Citizens NFT Sale.sol\":4628:4631  ids */\n      dup4\n        /* \"contracts/Founding Citizens NFT Sale.sol\":4633:4637  uris */\n      dup4\n        /* \"contracts/Founding Citizens NFT Sale.sol\":4579:4638  IMintStorage(ERC1155storageContract).preLoadURIs(ids, uris) */\n      mload(0x40)\n      dup4\n      0xffffffff\n      and\n      0xe0\n      shl\n      dup2\n      mstore\n      0x04\n      add\n      tag_160\n      swap3\n      swap2\n      swap1\n      tag_161\n      jump\t// in\n    tag_160:\n      0x00\n      mload(0x40)\n      dup1\n      dup4\n      sub\n      dup2\n      0x00\n      dup8\n      dup1\n      extcodesize\n      iszero\n      dup1\n      iszero\n      tag_162\n      jumpi\n      0x00\n      dup1\n      revert\n    tag_162:\n      pop\n      gas\n      call\n      iszero\n      dup1\n      iszero\n      tag_164\n      jumpi\n      returndatasize\n      0x00\n      dup1\n      returndatacopy\n      revert(0x00, returndatasize)\n    tag_164:\n      pop\n      pop\n      pop\n      pop\n        /* \"contracts/Founding Citizens NFT Sale.sol\":4489:4646  function preLoadURIs(uint[] memory ids, string[] memory uris) public onlyOwner {\r... */\n      pop\n      pop\n      jump\t// out\n        /* \"@openzeppelin/contracts@4.4.2/access/Ownable.sol\":1918:2116  function transferOwnership(address newOwner) public virtual onlyOwner {... */\n    tag_80:\n        /* \"@openzeppelin/contracts@4.4.2/access/Ownable.sol\":1259:1271  _msgSender() */\n      tag_166\n        /* \"@openzeppelin/contracts@4.4.2/access/Ownable.sol\":1259:1269  _msgSender */\n      tag_89\n        /* \"@openzeppelin/contracts@4.4.2/access/Ownable.sol\":1259:1271  _msgSender() */\n      jump\t// in\n    tag_166:\n        /* \"@openzeppelin/contracts@4.4.2/access/Ownable.sol\":1248:1271  owner() == _msgSender() */\n      0xffffffffffffffffffffffffffffffffffffffff\n      and\n        /* \"@openzeppelin/contracts@4.4.2/access/Ownable.sol\":1248:1255  owner() */\n      tag_167\n        /* \"@openzeppelin/contracts@4.4.2/access/Ownable.sol\":1248:1253  owner */\n      tag_49\n        /* \"@openzeppelin/contracts@4.4.2/access/Ownable.sol\":1248:1255  owner() */\n      jump\t// in\n    tag_167:\n        /* \"@openzeppelin/contracts@4.4.2/access/Ownable.sol\":1248:1271  owner() == _msgSender() */\n      0xffffffffffffffffffffffffffffffffffffffff\n      and\n      eq\n        /* \"@openzeppelin/contracts@4.4.2/access/Ownable.sol\":1240:1308  require(owner() == _msgSender(), \"Ownable: caller is not the owner\") */\n      tag_168\n      jumpi\n      mload(0x40)\n      0x08c379a000000000000000000000000000000000000000000000000000000000\n      dup2\n      mstore\n      0x04\n      add\n      tag_169\n      swap1\n      tag_93\n      jump\t// in\n    tag_169:\n      mload(0x40)\n      dup1\n      swap2\n      sub\n      swap1\n      revert\n    tag_168:\n        /* \"@openzeppelin/contracts@4.4.2/access/Ownable.sol\":2026:2027  0 */\n      0x00\n        /* \"@openzeppelin/contracts@4.4.2/access/Ownable.sol\":2006:2028  newOwner != address(0) */\n      0xffffffffffffffffffffffffffffffffffffffff\n      and\n        /* \"@openzeppelin/contracts@4.4.2/access/Ownable.sol\":2006:2014  newOwner */\n      dup2\n        /* \"@openzeppelin/contracts@4.4.2/access/Ownable.sol\":2006:2028  newOwner != address(0) */\n      0xffffffffffffffffffffffffffffffffffffffff\n      and\n      eq\n      iszero\n        /* \"@openzeppelin/contracts@4.4.2/access/Ownable.sol\":1998:2071  require(newOwner != address(0), \"Ownable: new owner is the zero address\") */\n      tag_171\n      jumpi\n      mload(0x40)\n      0x08c379a000000000000000000000000000000000000000000000000000000000\n      dup2\n      mstore\n      0x04\n      add\n      tag_172\n      swap1\n      tag_173\n      jump\t// in\n    tag_172:\n      mload(0x40)\n      dup1\n      swap2\n      sub\n      swap1\n      revert\n    tag_171:\n        /* \"@openzeppelin/contracts@4.4.2/access/Ownable.sol\":2081:2109  _transferOwnership(newOwner) */\n      tag_174\n        /* \"@openzeppelin/contracts@4.4.2/access/Ownable.sol\":2100:2108  newOwner */\n      dup2\n        /* \"@openzeppelin/contracts@4.4.2/access/Ownable.sol\":2081:2099  _transferOwnership */\n      tag_107\n        /* \"@openzeppelin/contracts@4.4.2/access/Ownable.sol\":2081:2109  _transferOwnership(newOwner) */\n      jump\t// in\n    tag_174:\n        /* \"@openzeppelin/contracts@4.4.2/access/Ownable.sol\":1918:2116  function transferOwnership(address newOwner) public virtual onlyOwner {... */\n      pop\n      jump\t// out\n        /* \"@openzeppelin/contracts@4.4.2/utils/Context.sol\":640:736  function _msgSender() internal view virtual returns (address) {... */\n    tag_89:\n        /* \"@openzeppelin/contracts@4.4.2/utils/Context.sol\":693:700  address */\n      0x00\n        /* \"@openzeppelin/contracts@4.4.2/utils/Context.sol\":719:729  msg.sender */\n      caller\n        /* \"@openzeppelin/contracts@4.4.2/utils/Context.sol\":712:729  return msg.sender */\n      swap1\n      pop\n        /* \"@openzeppelin/contracts@4.4.2/utils/Context.sol\":640:736  function _msgSender() internal view virtual returns (address) {... */\n      swap1\n      jump\t// out\n        /* \"@openzeppelin/contracts@4.4.2/access/Ownable.sol\":2270:2457  function _transferOwnership(address newOwner) internal virtual {... */\n    tag_107:\n        /* \"@openzeppelin/contracts@4.4.2/access/Ownable.sol\":2343:2359  address oldOwner */\n      0x00\n        /* \"@openzeppelin/contracts@4.4.2/access/Ownable.sol\":2362:2368  _owner */\n      dup1\n      0x00\n      swap1\n      sload\n      swap1\n      0x0100\n      exp\n      swap1\n      div\n      0xffffffffffffffffffffffffffffffffffffffff\n      and\n        /* \"@openzeppelin/contracts@4.4.2/access/Ownable.sol\":2343:2368  address oldOwner = _owner */\n      swap1\n      pop\n        /* \"@openzeppelin/contracts@4.4.2/access/Ownable.sol\":2387:2395  newOwner */\n      dup2\n        /* \"@openzeppelin/contracts@4.4.2/access/Ownable.sol\":2378:2384  _owner */\n      0x00\n      dup1\n        /* \"@openzeppelin/contracts@4.4.2/access/Ownable.sol\":2378:2395  _owner = newOwner */\n      0x0100\n      exp\n      dup2\n      sload\n      dup2\n      0xffffffffffffffffffffffffffffffffffffffff\n      mul\n      not\n      and\n      swap1\n      dup4\n      0xffffffffffffffffffffffffffffffffffffffff\n      and\n      mul\n      or\n      swap1\n      sstore\n      pop\n        /* \"@openzeppelin/contracts@4.4.2/access/Ownable.sol\":2441:2449  newOwner */\n      dup2\n        /* \"@openzeppelin/contracts@4.4.2/access/Ownable.sol\":2410:2450  OwnershipTransferred(oldOwner, newOwner) */\n      0xffffffffffffffffffffffffffffffffffffffff\n      and\n        /* \"@openzeppelin/contracts@4.4.2/access/Ownable.sol\":2431:2439  oldOwner */\n      dup2\n        /* \"@openzeppelin/contracts@4.4.2/access/Ownable.sol\":2410:2450  OwnershipTransferred(oldOwner, newOwner) */\n      0xffffffffffffffffffffffffffffffffffffffff\n      and\n      0x8be0079c531659141344cd1fd0a4f28419497f9722a3daafe3b4186f6b6457e0\n      mload(0x40)\n      mload(0x40)\n      dup1\n      swap2\n      sub\n      swap1\n      log3\n        /* \"@openzeppelin/contracts@4.4.2/access/Ownable.sol\":2270:2457  function _transferOwnership(address newOwner) internal virtual {... */\n      pop\n      pop\n      jump\t// out\n        /* \"contracts/Founding Citizens NFT Sale.sol\":3695:4186  function updateState() internal requiresConsistentState {\r... */\n    tag_110:\n        /* \"contracts/Founding Citizens NFT Sale.sol\":3584:3591  endTime */\n      sload(0x06)\n        /* \"contracts/Founding Citizens NFT Sale.sol\":3571:3580  startTime */\n      sload(0x05)\n        /* \"contracts/Founding Citizens NFT Sale.sol\":3571:3591  startTime <= endTime */\n      gt\n      iszero\n        /* \"contracts/Founding Citizens NFT Sale.sol\":3563:3627  require(startTime <= endTime, \"startTime is later than endTime\") */\n      tag_178\n      jumpi\n      mload(0x40)\n      0x08c379a000000000000000000000000000000000000000000000000000000000\n      dup2\n      mstore\n      0x04\n      add\n      tag_179\n      swap1\n      tag_180\n      jump\t// in\n    tag_179:\n      mload(0x40)\n      dup1\n      swap2\n      sub\n      swap1\n      revert\n    tag_178:\n        /* \"contracts/Founding Citizens NFT Sale.sol\":3261:3262  1 */\n      0x01\n        /* \"contracts/Founding Citizens NFT Sale.sol\":3851:3853  60 */\n      0x3c\n        /* \"contracts/Founding Citizens NFT Sale.sol\":3838:3847  startTime */\n      sload(0x05)\n        /* \"contracts/Founding Citizens NFT Sale.sol\":3820:3835  block.timestamp */\n      timestamp\n        /* \"contracts/Founding Citizens NFT Sale.sol\":3820:3847  block.timestamp - startTime */\n      tag_182\n      swap2\n      swap1\n      tag_122\n      jump\t// in\n    tag_182:\n        /* \"contracts/Founding Citizens NFT Sale.sol\":3819:3853  (block.timestamp - startTime) / 60 */\n      tag_183\n      swap2\n      swap1\n      tag_184\n      jump\t// in\n    tag_183:\n        /* \"contracts/Founding Citizens NFT Sale.sol\":3819:3878  (block.timestamp - startTime) / 60 * priceDescresePerMinute */\n      tag_185\n      swap2\n      swap1\n      tag_186\n      jump\t// in\n    tag_185:\n        /* \"contracts/Founding Citizens NFT Sale.sol\":3805:3815  startPrice */\n      sload(0x07)\n        /* \"contracts/Founding Citizens NFT Sale.sol\":3805:3879  startPrice - ((block.timestamp - startTime) / 60 * priceDescresePerMinute) */\n      tag_187\n      swap2\n      swap1\n      tag_122\n      jump\t// in\n    tag_187:\n        /* \"contracts/Founding Citizens NFT Sale.sol\":3786:3796  lastUpdate */\n      0x09\n        /* \"contracts/Founding Citizens NFT Sale.sol\":3786:3802  lastUpdate.price */\n      0x00\n      add\n        /* \"contracts/Founding Citizens NFT Sale.sol\":3786:3879  lastUpdate.price = startPrice - ((block.timestamp - startTime) / 60 * priceDescresePerMinute) */\n      dup2\n      swap1\n      sstore\n      pop\n        /* \"contracts/Founding Citizens NFT Sale.sol\":3933:3948  block.timestamp */\n      timestamp\n        /* \"contracts/Founding Citizens NFT Sale.sol\":3915:3925  lastUpdate */\n      0x09\n        /* \"contracts/Founding Citizens NFT Sale.sol\":3915:3930  lastUpdate.time */\n      0x01\n      add\n        /* \"contracts/Founding Citizens NFT Sale.sol\":3915:3948  lastUpdate.time = block.timestamp */\n      dup2\n      swap1\n      sstore\n      pop\n        /* \"contracts/Founding Citizens NFT Sale.sol\":4021:4030  startTime */\n      sload(0x05)\n        /* \"contracts/Founding Citizens NFT Sale.sol\":4002:4017  block.timestamp */\n      timestamp\n        /* \"contracts/Founding Citizens NFT Sale.sol\":4002:4030  block.timestamp >= startTime */\n      lt\n      iszero\n        /* \"contracts/Founding Citizens NFT Sale.sol\":4002:4060  block.timestamp >= startTime && block.timestamp <= endTime */\n      dup1\n      iszero\n      tag_188\n      jumpi\n      pop\n        /* \"contracts/Founding Citizens NFT Sale.sol\":4053:4060  endTime */\n      sload(0x06)\n        /* \"contracts/Founding Citizens NFT Sale.sol\":4034:4049  block.timestamp */\n      timestamp\n        /* \"contracts/Founding Citizens NFT Sale.sol\":4034:4060  block.timestamp <= endTime */\n      gt\n      iszero\n        /* \"contracts/Founding Citizens NFT Sale.sol\":4002:4060  block.timestamp >= startTime && block.timestamp <= endTime */\n    tag_188:\n        /* \"contracts/Founding Citizens NFT Sale.sol\":3998:4179  if (block.timestamp >= startTime && block.timestamp <= endTime) {\r... */\n      iszero\n      tag_189\n      jumpi\n        /* \"contracts/Founding Citizens NFT Sale.sol\":4101:4105  true */\n      0x01\n        /* \"contracts/Founding Citizens NFT Sale.sol\":4077:4087  lastUpdate */\n      0x09\n        /* \"contracts/Founding Citizens NFT Sale.sol\":4077:4098  lastUpdate.saleIsLive */\n      0x02\n      add\n      0x00\n        /* \"contracts/Founding Citizens NFT Sale.sol\":4077:4105  lastUpdate.saleIsLive = true */\n      0x0100\n      exp\n      dup2\n      sload\n      dup2\n      0xff\n      mul\n      not\n      and\n      swap1\n      dup4\n      iszero\n      iszero\n      mul\n      or\n      swap1\n      sstore\n      pop\n        /* \"contracts/Founding Citizens NFT Sale.sol\":3998:4179  if (block.timestamp >= startTime && block.timestamp <= endTime) {\r... */\n      jump(tag_190)\n    tag_189:\n        /* \"contracts/Founding Citizens NFT Sale.sol\":4162:4167  false */\n      0x00\n        /* \"contracts/Founding Citizens NFT Sale.sol\":4138:4148  lastUpdate */\n      0x09\n        /* \"contracts/Founding Citizens NFT Sale.sol\":4138:4159  lastUpdate.saleIsLive */\n      0x02\n      add\n      0x00\n        /* \"contracts/Founding Citizens NFT Sale.sol\":4138:4167  lastUpdate.saleIsLive = false */\n      0x0100\n      exp\n      dup2\n      sload\n      dup2\n      0xff\n      mul\n      not\n      and\n      swap1\n      dup4\n      iszero\n      iszero\n      mul\n      or\n      swap1\n      sstore\n      pop\n        /* \"contracts/Founding Citizens NFT Sale.sol\":3998:4179  if (block.timestamp >= startTime && block.timestamp <= endTime) {\r... */\n    tag_190:\n        /* \"contracts/Founding Citizens NFT Sale.sol\":3695:4186  function updateState() internal requiresConsistentState {\r... */\n      jump\t// out\n        /* \"contracts/Founding Citizens NFT Sale.sol\":4350:4481  function mintNextNftToAddress(address to) internal {\r... */\n    tag_129:\n        /* \"contracts/Founding Citizens NFT Sale.sol\":4425:4447  ERC1155storageContract */\n      0x01\n      0x00\n      swap1\n      sload\n      swap1\n      0x0100\n      exp\n      swap1\n      div\n      0xffffffffffffffffffffffffffffffffffffffff\n      and\n        /* \"contracts/Founding Citizens NFT Sale.sol\":4412:4469  IMintStorage(ERC1155storageContract).mintNextNftToAddress */\n      0xffffffffffffffffffffffffffffffffffffffff\n      and\n      0x55676590\n        /* \"contracts/Founding Citizens NFT Sale.sol\":4470:4472  to */\n      dup3\n        /* \"contracts/Founding Citizens NFT Sale.sol\":4412:4473  IMintStorage(ERC1155storageContract).mintNextNftToAddress(to) */\n      mload(0x40)\n      dup3\n      0xffffffff\n      and\n      0xe0\n      shl\n      dup2\n      mstore\n      0x04\n      add\n      tag_192\n      swap2\n      swap1\n      tag_51\n      jump\t// in\n    tag_192:\n      0x00\n      mload(0x40)\n      dup1\n      dup4\n      sub\n      dup2\n      0x00\n      dup8\n      dup1\n      extcodesize\n      iszero\n      dup1\n      iszero\n      tag_193\n      jumpi\n      0x00\n      dup1\n      revert\n    tag_193:\n      pop\n      gas\n      call\n      iszero\n      dup1\n      iszero\n      tag_195\n      jumpi\n      returndatasize\n      0x00\n      dup1\n      returndatacopy\n      revert(0x00, returndatasize)\n    tag_195:\n      pop\n      pop\n      pop\n      pop\n        /* \"contracts/Founding Citizens NFT Sale.sol\":4350:4481  function mintNextNftToAddress(address to) internal {\r... */\n      pop\n      jump\t// out\n        /* \"#utility.yul\":23:639   */\n    tag_197:\n      0x00\n        /* \"#utility.yul\":154:245   */\n      tag_199\n        /* \"#utility.yul\":170:244   */\n      tag_200\n        /* \"#utility.yul\":237:243   */\n      dup5\n        /* \"#utility.yul\":170:244   */\n      tag_201\n      jump\t// in\n    tag_200:\n        /* \"#utility.yul\":154:245   */\n      tag_202\n      jump\t// in\n    tag_199:\n        /* \"#utility.yul\":145:245   */\n      swap1\n      pop\n        /* \"#utility.yul\":265:270   */\n      dup1\n        /* \"#utility.yul\":293:299   */\n      dup4\n        /* \"#utility.yul\":286:291   */\n      dup3\n        /* \"#utility.yul\":279:300   */\n      mstore\n        /* \"#utility.yul\":319:323   */\n      0x20\n        /* \"#utility.yul\":312:317   */\n      dup3\n        /* \"#utility.yul\":308:324   */\n      add\n        /* \"#utility.yul\":301:324   */\n      swap1\n      pop\n        /* \"#utility.yul\":344:350   */\n      dup3\n        /* \"#utility.yul\":375:376   */\n      0x00\n        /* \"#utility.yul\":360:633   */\n    tag_203:\n        /* \"#utility.yul\":385:391   */\n      dup6\n        /* \"#utility.yul\":382:383   */\n      dup2\n        /* \"#utility.yul\":379:392   */\n      lt\n        /* \"#utility.yul\":360:633   */\n      iszero\n      tag_205\n      jumpi\n        /* \"#utility.yul\":477:480   */\n      dup2\n        /* \"#utility.yul\":464:481   */\n      calldataload\n        /* \"#utility.yul\":456:462   */\n      dup6\n        /* \"#utility.yul\":452:482   */\n      add\n        /* \"#utility.yul\":507:554   */\n      tag_206\n        /* \"#utility.yul\":550:553   */\n      dup9\n        /* \"#utility.yul\":538:548   */\n      dup3\n        /* \"#utility.yul\":507:554   */\n      tag_207\n      jump\t// in\n    tag_206:\n        /* \"#utility.yul\":502:505   */\n      dup5\n        /* \"#utility.yul\":495:555   */\n      mstore\n        /* \"#utility.yul\":584:588   */\n      0x20\n        /* \"#utility.yul\":579:582   */\n      dup5\n        /* \"#utility.yul\":575:589   */\n      add\n        /* \"#utility.yul\":568:589   */\n      swap4\n      pop\n        /* \"#utility.yul\":618:622   */\n      0x20\n        /* \"#utility.yul\":613:616   */\n      dup4\n        /* \"#utility.yul\":609:623   */\n      add\n        /* \"#utility.yul\":602:623   */\n      swap3\n      pop\n        /* \"#utility.yul\":420:633   */\n      pop\n        /* \"#utility.yul\":407:408   */\n      0x01\n        /* \"#utility.yul\":404:405   */\n      dup2\n        /* \"#utility.yul\":400:409   */\n      add\n        /* \"#utility.yul\":395:409   */\n      swap1\n      pop\n        /* \"#utility.yul\":360:633   */\n      jump(tag_203)\n    tag_205:\n        /* \"#utility.yul\":364:378   */\n      pop\n        /* \"#utility.yul\":135:639   */\n      pop\n      pop\n      swap4\n      swap3\n      pop\n      pop\n      pop\n      jump\t// out\n        /* \"#utility.yul\":662:1285   */\n    tag_208:\n      0x00\n        /* \"#utility.yul\":783:864   */\n      tag_210\n        /* \"#utility.yul\":799:863   */\n      tag_211\n        /* \"#utility.yul\":856:862   */\n      dup5\n        /* \"#utility.yul\":799:863   */\n      tag_212\n      jump\t// in\n    tag_211:\n        /* \"#utility.yul\":783:864   */\n      tag_202\n      jump\t// in\n    tag_210:\n        /* \"#utility.yul\":774:864   */\n      swap1\n      pop\n        /* \"#utility.yul\":884:889   */\n      dup1\n        /* \"#utility.yul\":912:918   */\n      dup4\n        /* \"#utility.yul\":905:910   */\n      dup3\n        /* \"#utility.yul\":898:919   */\n      mstore\n        /* \"#utility.yul\":938:942   */\n      0x20\n        /* \"#utility.yul\":931:936   */\n      dup3\n        /* \"#utility.yul\":927:943   */\n      add\n        /* \"#utility.yul\":920:943   */\n      swap1\n      pop\n        /* \"#utility.yul\":963:969   */\n      dup3\n        /* \"#utility.yul\":1013:1016   */\n      dup6\n        /* \"#utility.yul\":1005:1009   */\n      0x20\n        /* \"#utility.yul\":997:1003   */\n      dup7\n        /* \"#utility.yul\":993:1010   */\n      mul\n        /* \"#utility.yul\":988:991   */\n      dup3\n        /* \"#utility.yul\":984:1011   */\n      add\n        /* \"#utility.yul\":981:1017   */\n      gt\n        /* \"#utility.yul\":978:980   */\n      iszero\n      tag_213\n      jumpi\n        /* \"#utility.yul\":1030:1031   */\n      0x00\n        /* \"#utility.yul\":1027:1028   */\n      dup1\n        /* \"#utility.yul\":1020:1032   */\n      revert\n        /* \"#utility.yul\":978:980   */\n    tag_213:\n        /* \"#utility.yul\":1058:1059   */\n      0x00\n        /* \"#utility.yul\":1043:1279   */\n    tag_214:\n        /* \"#utility.yul\":1068:1074   */\n      dup6\n        /* \"#utility.yul\":1065:1066   */\n      dup2\n        /* \"#utility.yul\":1062:1075   */\n      lt\n        /* \"#utility.yul\":1043:1279   */\n      iszero\n      tag_216\n      jumpi\n        /* \"#utility.yul\":1135:1138   */\n      dup2\n        /* \"#utility.yul\":1163:1200   */\n      tag_217\n        /* \"#utility.yul\":1196:1199   */\n      dup9\n        /* \"#utility.yul\":1184:1194   */\n      dup3\n        /* \"#utility.yul\":1163:1200   */\n      tag_218\n      jump\t// in\n    tag_217:\n        /* \"#utility.yul\":1158:1161   */\n      dup5\n        /* \"#utility.yul\":1151:1201   */\n      mstore\n        /* \"#utility.yul\":1230:1234   */\n      0x20\n        /* \"#utility.yul\":1225:1228   */\n      dup5\n        /* \"#utility.yul\":1221:1235   */\n      add\n        /* \"#utility.yul\":1214:1235   */\n      swap4\n      pop\n        /* \"#utility.yul\":1264:1268   */\n      0x20\n        /* \"#utility.yul\":1259:1262   */\n      dup4\n        /* \"#utility.yul\":1255:1269   */\n      add\n        /* \"#utility.yul\":1248:1269   */\n      swap3\n      pop\n        /* \"#utility.yul\":1103:1279   */\n      pop\n        /* \"#utility.yul\":1090:1091   */\n      0x01\n        /* \"#utility.yul\":1087:1088   */\n      dup2\n        /* \"#utility.yul\":1083:1092   */\n      add\n        /* \"#utility.yul\":1078:1092   */\n      swap1\n      pop\n        /* \"#utility.yul\":1043:1279   */\n      jump(tag_214)\n    tag_216:\n        /* \"#utility.yul\":1047:1061   */\n      pop\n        /* \"#utility.yul\":764:1285   */\n      pop\n      pop\n      swap4\n      swap3\n      pop\n      pop\n      pop\n      jump\t// out\n        /* \"#utility.yul\":1291:1636   */\n    tag_219:\n      0x00\n        /* \"#utility.yul\":1394:1460   */\n      tag_221\n        /* \"#utility.yul\":1410:1459   */\n      tag_222\n        /* \"#utility.yul\":1452:1458   */\n      dup5\n        /* \"#utility.yul\":1410:1459   */\n      tag_223\n      jump\t// in\n    tag_222:\n        /* \"#utility.yul\":1394:1460   */\n      tag_202\n      jump\t// in\n    tag_221:\n        /* \"#utility.yul\":1385:1460   */\n      swap1\n      pop\n        /* \"#utility.yul\":1483:1489   */\n      dup3\n        /* \"#utility.yul\":1476:1481   */\n      dup2\n        /* \"#utility.yul\":1469:1490   */\n      mstore\n        /* \"#utility.yul\":1521:1525   */\n      0x20\n        /* \"#utility.yul\":1514:1519   */\n      dup2\n        /* \"#utility.yul\":1510:1526   */\n      add\n        /* \"#utility.yul\":1559:1562   */\n      dup5\n        /* \"#utility.yul\":1550:1556   */\n      dup5\n        /* \"#utility.yul\":1545:1548   */\n      dup5\n        /* \"#utility.yul\":1541:1557   */\n      add\n        /* \"#utility.yul\":1538:1563   */\n      gt\n        /* \"#utility.yul\":1535:1537   */\n      iszero\n      tag_224\n      jumpi\n        /* \"#utility.yul\":1576:1577   */\n      0x00\n        /* \"#utility.yul\":1573:1574   */\n      dup1\n        /* \"#utility.yul\":1566:1578   */\n      revert\n        /* \"#utility.yul\":1535:1537   */\n    tag_224:\n        /* \"#utility.yul\":1589:1630   */\n      tag_225\n        /* \"#utility.yul\":1623:1629   */\n      dup5\n        /* \"#utility.yul\":1618:1621   */\n      dup3\n        /* \"#utility.yul\":1613:1616   */\n      dup6\n        /* \"#utility.yul\":1589:1630   */\n      tag_226\n      jump\t// in\n    tag_225:\n        /* \"#utility.yul\":1375:1636   */\n      pop\n      swap4\n      swap3\n      pop\n      pop\n      pop\n      jump\t// out\n        /* \"#utility.yul\":1642:1781   */\n    tag_227:\n      0x00\n        /* \"#utility.yul\":1726:1732   */\n      dup2\n        /* \"#utility.yul\":1713:1733   */\n      calldataload\n        /* \"#utility.yul\":1704:1733   */\n      swap1\n      pop\n        /* \"#utility.yul\":1742:1775   */\n      tag_229\n        /* \"#utility.yul\":1769:1774   */\n      dup2\n        /* \"#utility.yul\":1742:1775   */\n      tag_230\n      jump\t// in\n    tag_229:\n        /* \"#utility.yul\":1694:1781   */\n      swap3\n      swap2\n      pop\n      pop\n      jump\t// out\n        /* \"#utility.yul\":1803:2126   */\n    tag_231:\n      0x00\n        /* \"#utility.yul\":1933:1936   */\n      dup3\n        /* \"#utility.yul\":1926:1930   */\n      0x1f\n        /* \"#utility.yul\":1918:1924   */\n      dup4\n        /* \"#utility.yul\":1914:1931   */\n      add\n        /* \"#utility.yul\":1910:1937   */\n      slt\n        /* \"#utility.yul\":1900:1902   */\n      tag_233\n      jumpi\n        /* \"#utility.yul\":1951:1952   */\n      0x00\n        /* \"#utility.yul\":1948:1949   */\n      dup1\n        /* \"#utility.yul\":1941:1953   */\n      revert\n        /* \"#utility.yul\":1900:1902   */\n    tag_233:\n        /* \"#utility.yul\":1991:1997   */\n      dup2\n        /* \"#utility.yul\":1978:1998   */\n      calldataload\n        /* \"#utility.yul\":2016:2120   */\n      tag_234\n        /* \"#utility.yul\":2116:2119   */\n      dup5\n        /* \"#utility.yul\":2108:2114   */\n      dup3\n        /* \"#utility.yul\":2101:2105   */\n      0x20\n        /* \"#utility.yul\":2093:2099   */\n      dup7\n        /* \"#utility.yul\":2089:2106   */\n      add\n        /* \"#utility.yul\":2016:2120   */\n      tag_197\n      jump\t// in\n    tag_234:\n        /* \"#utility.yul\":2007:2120   */\n      swap2\n      pop\n        /* \"#utility.yul\":1890:2126   */\n      pop\n      swap3\n      swap2\n      pop\n      pop\n      jump\t// out\n        /* \"#utility.yul\":2149:2452   */\n    tag_235:\n      0x00\n        /* \"#utility.yul\":2269:2272   */\n      dup3\n        /* \"#utility.yul\":2262:2266   */\n      0x1f\n        /* \"#utility.yul\":2254:2260   */\n      dup4\n        /* \"#utility.yul\":2250:2267   */\n      add\n        /* \"#utility.yul\":2246:2273   */\n      slt\n        /* \"#utility.yul\":2236:2238   */\n      tag_237\n      jumpi\n        /* \"#utility.yul\":2287:2288   */\n      0x00\n        /* \"#utility.yul\":2284:2285   */\n      dup1\n        /* \"#utility.yul\":2277:2289   */\n      revert\n        /* \"#utility.yul\":2236:2238   */\n    tag_237:\n        /* \"#utility.yul\":2327:2333   */\n      dup2\n        /* \"#utility.yul\":2314:2334   */\n      calldataload\n        /* \"#utility.yul\":2352:2446   */\n      tag_238\n        /* \"#utility.yul\":2442:2445   */\n      dup5\n        /* \"#utility.yul\":2434:2440   */\n      dup3\n        /* \"#utility.yul\":2427:2431   */\n      0x20\n        /* \"#utility.yul\":2419:2425   */\n      dup7\n        /* \"#utility.yul\":2415:2432   */\n      add\n        /* \"#utility.yul\":2352:2446   */\n      tag_208\n      jump\t// in\n    tag_238:\n        /* \"#utility.yul\":2343:2446   */\n      swap2\n      pop\n        /* \"#utility.yul\":2226:2452   */\n      pop\n      swap3\n      swap2\n      pop\n      pop\n      jump\t// out\n        /* \"#utility.yul\":2472:2745   */\n    tag_207:\n      0x00\n        /* \"#utility.yul\":2577:2580   */\n      dup3\n        /* \"#utility.yul\":2570:2574   */\n      0x1f\n        /* \"#utility.yul\":2562:2568   */\n      dup4\n        /* \"#utility.yul\":2558:2575   */\n      add\n        /* \"#utility.yul\":2554:2581   */\n      slt\n        /* \"#utility.yul\":2544:2546   */\n      tag_240\n      jumpi\n        /* \"#utility.yul\":2595:2596   */\n      0x00\n        /* \"#utility.yul\":2592:2593   */\n      dup1\n        /* \"#utility.yul\":2585:2597   */\n      revert\n        /* \"#utility.yul\":2544:2546   */\n    tag_240:\n        /* \"#utility.yul\":2635:2641   */\n      dup2\n        /* \"#utility.yul\":2622:2642   */\n      calldataload\n        /* \"#utility.yul\":2660:2739   */\n      tag_241\n        /* \"#utility.yul\":2735:2738   */\n      dup5\n        /* \"#utility.yul\":2727:2733   */\n      dup3\n        /* \"#utility.yul\":2720:2724   */\n      0x20\n        /* \"#utility.yul\":2712:2718   */\n      dup7\n        /* \"#utility.yul\":2708:2725   */\n      add\n        /* \"#utility.yul\":2660:2739   */\n      tag_219\n      jump\t// in\n    tag_241:\n        /* \"#utility.yul\":2651:2739   */\n      swap2\n      pop\n        /* \"#utility.yul\":2534:2745   */\n      pop\n      swap3\n      swap2\n      pop\n      pop\n      jump\t// out\n        /* \"#utility.yul\":2751:2890   */\n    tag_218:\n      0x00\n        /* \"#utility.yul\":2835:2841   */\n      dup2\n        /* \"#utility.yul\":2822:2842   */\n      calldataload\n        /* \"#utility.yul\":2813:2842   */\n      swap1\n      pop\n        /* \"#utility.yul\":2851:2884   */\n      tag_243\n        /* \"#utility.yul\":2878:2883   */\n      dup2\n        /* \"#utility.yul\":2851:2884   */\n      tag_244\n      jump\t// in\n    tag_243:\n        /* \"#utility.yul\":2803:2890   */\n      swap3\n      swap2\n      pop\n      pop\n      jump\t// out\n        /* \"#utility.yul\":2896:3039   */\n    tag_245:\n      0x00\n        /* \"#utility.yul\":2984:2990   */\n      dup2\n        /* \"#utility.yul\":2978:2991   */\n      mload\n        /* \"#utility.yul\":2969:2991   */\n      swap1\n      pop\n        /* \"#utility.yul\":3000:3033   */\n      tag_247\n        /* \"#utility.yul\":3027:3032   */\n      dup2\n        /* \"#utility.yul\":3000:3033   */\n      tag_244\n      jump\t// in\n    tag_247:\n        /* \"#utility.yul\":2959:3039   */\n      swap3\n      swap2\n      pop\n      pop\n      jump\t// out\n        /* \"#utility.yul\":3045:3307   */\n    tag_29:\n      0x00\n        /* \"#utility.yul\":3153:3155   */\n      0x20\n        /* \"#utility.yul\":3141:3150   */\n      dup3\n        /* \"#utility.yul\":3132:3139   */\n      dup5\n        /* \"#utility.yul\":3128:3151   */\n      sub\n        /* \"#utility.yul\":3124:3156   */\n      slt\n        /* \"#utility.yul\":3121:3123   */\n      iszero\n      tag_249\n      jumpi\n        /* \"#utility.yul\":3169:3170   */\n      0x00\n        /* \"#utility.yul\":3166:3167   */\n      dup1\n        /* \"#utility.yul\":3159:3171   */\n      revert\n        /* \"#utility.yul\":3121:3123   */\n    tag_249:\n        /* \"#utility.yul\":3212:3213   */\n      0x00\n        /* \"#utility.yul\":3237:3290   */\n      tag_250\n        /* \"#utility.yul\":3282:3289   */\n      dup5\n        /* \"#utility.yul\":3273:3279   */\n      dup3\n        /* \"#utility.yul\":3262:3271   */\n      dup6\n        /* \"#utility.yul\":3258:3280   */\n      add\n        /* \"#utility.yul\":3237:3290   */\n      tag_227\n      jump\t// in\n    tag_250:\n        /* \"#utility.yul\":3227:3290   */\n      swap2\n      pop\n        /* \"#utility.yul\":3183:3300   */\n      pop\n        /* \"#utility.yul\":3111:3307   */\n      swap3\n      swap2\n      pop\n      pop\n      jump\t// out\n        /* \"#utility.yul\":3313:4026   */\n    tag_76:\n      0x00\n      dup1\n        /* \"#utility.yul\":3498:3500   */\n      0x40\n        /* \"#utility.yul\":3486:3495   */\n      dup4\n        /* \"#utility.yul\":3477:3484   */\n      dup6\n        /* \"#utility.yul\":3473:3496   */\n      sub\n        /* \"#utility.yul\":3469:3501   */\n      slt\n        /* \"#utility.yul\":3466:3468   */\n      iszero\n      tag_252\n      jumpi\n        /* \"#utility.yul\":3514:3515   */\n      0x00\n        /* \"#utility.yul\":3511:3512   */\n      dup1\n        /* \"#utility.yul\":3504:3516   */\n      revert\n        /* \"#utility.yul\":3466:3468   */\n    tag_252:\n        /* \"#utility.yul\":3585:3586   */\n      0x00\n        /* \"#utility.yul\":3574:3583   */\n      dup4\n        /* \"#utility.yul\":3570:3587   */\n      add\n        /* \"#utility.yul\":3557:3588   */\n      calldataload\n        /* \"#utility.yul\":3615:3633   */\n      0xffffffffffffffff\n        /* \"#utility.yul\":3607:3613   */\n      dup2\n        /* \"#utility.yul\":3604:3634   */\n      gt\n        /* \"#utility.yul\":3601:3603   */\n      iszero\n      tag_253\n      jumpi\n        /* \"#utility.yul\":3647:3648   */\n      0x00\n        /* \"#utility.yul\":3644:3645   */\n      dup1\n        /* \"#utility.yul\":3637:3649   */\n      revert\n        /* \"#utility.yul\":3601:3603   */\n    tag_253:\n        /* \"#utility.yul\":3675:3753   */\n      tag_254\n        /* \"#utility.yul\":3745:3752   */\n      dup6\n        /* \"#utility.yul\":3736:3742   */\n      dup3\n        /* \"#utility.yul\":3725:3734   */\n      dup7\n        /* \"#utility.yul\":3721:3743   */\n      add\n        /* \"#utility.yul\":3675:3753   */\n      tag_235\n      jump\t// in\n    tag_254:\n        /* \"#utility.yul\":3665:3753   */\n      swap3\n      pop\n        /* \"#utility.yul\":3528:3763   */\n      pop\n        /* \"#utility.yul\":3830:3832   */\n      0x20\n        /* \"#utility.yul\":3819:3828   */\n      dup4\n        /* \"#utility.yul\":3815:3833   */\n      add\n        /* \"#utility.yul\":3802:3834   */\n      calldataload\n        /* \"#utility.yul\":3861:3879   */\n      0xffffffffffffffff\n        /* \"#utility.yul\":3853:3859   */\n      dup2\n        /* \"#utility.yul\":3850:3880   */\n      gt\n        /* \"#utility.yul\":3847:3849   */\n      iszero\n      tag_255\n      jumpi\n        /* \"#utility.yul\":3893:3894   */\n      0x00\n        /* \"#utility.yul\":3890:3891   */\n      dup1\n        /* \"#utility.yul\":3883:3895   */\n      revert\n        /* \"#utility.yul\":3847:3849   */\n    tag_255:\n        /* \"#utility.yul\":3921:4009   */\n      tag_256\n        /* \"#utility.yul\":4001:4008   */\n      dup6\n        /* \"#utility.yul\":3992:3998   */\n      dup3\n        /* \"#utility.yul\":3981:3990   */\n      dup7\n        /* \"#utility.yul\":3977:3999   */\n      add\n        /* \"#utility.yul\":3921:4009   */\n      tag_231\n      jump\t// in\n    tag_256:\n        /* \"#utility.yul\":3911:4009   */\n      swap2\n      pop\n        /* \"#utility.yul\":3773:4019   */\n      pop\n        /* \"#utility.yul\":3456:4026   */\n      swap3\n      pop\n      swap3\n      swap1\n      pop\n      jump\t// out\n        /* \"#utility.yul\":4032:4294   */\n    tag_56:\n      0x00\n        /* \"#utility.yul\":4140:4142   */\n      0x20\n        /* \"#utility.yul\":4128:4137   */\n      dup3\n        /* \"#utility.yul\":4119:4126   */\n      dup5\n        /* \"#utility.yul\":4115:4138   */\n      sub\n        /* \"#utility.yul\":4111:4143   */\n      slt\n        /* \"#utility.yul\":4108:4110   */\n      iszero\n      tag_258\n      jumpi\n        /* \"#utility.yul\":4156:4157   */\n      0x00\n        /* \"#utility.yul\":4153:4154   */\n      dup1\n        /* \"#utility.yul\":4146:4158   */\n      revert\n        /* \"#utility.yul\":4108:4110   */\n    tag_258:\n        /* \"#utility.yul\":4199:4200   */\n      0x00\n        /* \"#utility.yul\":4224:4277   */\n      tag_259\n        /* \"#utility.yul\":4269:4276   */\n      dup5\n        /* \"#utility.yul\":4260:4266   */\n      dup3\n        /* \"#utility.yul\":4249:4258   */\n      dup6\n        /* \"#utility.yul\":4245:4267   */\n      add\n        /* \"#utility.yul\":4224:4277   */\n      tag_218\n      jump\t// in\n    tag_259:\n        /* \"#utility.yul\":4214:4277   */\n      swap2\n      pop\n        /* \"#utility.yul\":4170:4287   */\n      pop\n        /* \"#utility.yul\":4098:4294   */\n      swap3\n      swap2\n      pop\n      pop\n      jump\t// out\n        /* \"#utility.yul\":4300:4584   */\n    tag_86:\n      0x00\n        /* \"#utility.yul\":4419:4421   */\n      0x20\n        /* \"#utility.yul\":4407:4416   */\n      dup3\n        /* \"#utility.yul\":4398:4405   */\n      dup5\n        /* \"#utility.yul\":4394:4417   */\n      sub\n        /* \"#utility.yul\":4390:4422   */\n      slt\n        /* \"#utility.yul\":4387:4389   */\n      iszero\n      tag_261\n      jumpi\n        /* \"#utility.yul\":4435:4436   */\n      0x00\n        /* \"#utility.yul\":4432:4433   */\n      dup1\n        /* \"#utility.yul\":4425:4437   */\n      revert\n        /* \"#utility.yul\":4387:4389   */\n    tag_261:\n        /* \"#utility.yul\":4478:4479   */\n      0x00\n        /* \"#utility.yul\":4503:4567   */\n      tag_262\n        /* \"#utility.yul\":4559:4566   */\n      dup5\n        /* \"#utility.yul\":4550:4556   */\n      dup3\n        /* \"#utility.yul\":4539:4548   */\n      dup6\n        /* \"#utility.yul\":4535:4557   */\n      add\n        /* \"#utility.yul\":4503:4567   */\n      tag_245\n      jump\t// in\n    tag_262:\n        /* \"#utility.yul\":4493:4567   */\n      swap2\n      pop\n        /* \"#utility.yul\":4449:4577   */\n      pop\n        /* \"#utility.yul\":4377:4584   */\n      swap3\n      swap2\n      pop\n      pop\n      jump\t// out\n        /* \"#utility.yul\":4590:4786   */\n    tag_263:\n      0x00\n        /* \"#utility.yul\":4714:4780   */\n      tag_265\n        /* \"#utility.yul\":4776:4779   */\n      dup4\n        /* \"#utility.yul\":4768:4774   */\n      dup4\n        /* \"#utility.yul\":4714:4780   */\n      tag_266\n      jump\t// in\n    tag_265:\n        /* \"#utility.yul\":4700:4780   */\n      swap1\n      pop\n        /* \"#utility.yul\":4690:4786   */\n      swap3\n      swap2\n      pop\n      pop\n      jump\t// out\n        /* \"#utility.yul\":4792:4971   */\n    tag_267:\n      0x00\n        /* \"#utility.yul\":4882:4928   */\n      tag_269\n        /* \"#utility.yul\":4924:4927   */\n      dup4\n        /* \"#utility.yul\":4916:4922   */\n      dup4\n        /* \"#utility.yul\":4882:4928   */\n      tag_270\n      jump\t// in\n    tag_269:\n        /* \"#utility.yul\":4960:4964   */\n      0x20\n        /* \"#utility.yul\":4955:4958   */\n      dup4\n        /* \"#utility.yul\":4951:4965   */\n      add\n        /* \"#utility.yul\":4937:4965   */\n      swap1\n      pop\n        /* \"#utility.yul\":4872:4971   */\n      swap3\n      swap2\n      pop\n      pop\n      jump\t// out\n        /* \"#utility.yul\":4977:5095   */\n    tag_271:\n        /* \"#utility.yul\":5064:5088   */\n      tag_273\n        /* \"#utility.yul\":5082:5087   */\n      dup2\n        /* \"#utility.yul\":5064:5088   */\n      tag_274\n      jump\t// in\n    tag_273:\n        /* \"#utility.yul\":5059:5062   */\n      dup3\n        /* \"#utility.yul\":5052:5089   */\n      mstore\n        /* \"#utility.yul\":5042:5095   */\n      pop\n      pop\n      jump\t// out\n        /* \"#utility.yul\":5129:6120   */\n    tag_275:\n      0x00\n        /* \"#utility.yul\":5297:5361   */\n      tag_277\n        /* \"#utility.yul\":5355:5360   */\n      dup3\n        /* \"#utility.yul\":5297:5361   */\n      tag_278\n      jump\t// in\n    tag_277:\n        /* \"#utility.yul\":5377:5473   */\n      tag_279\n        /* \"#utility.yul\":5466:5472   */\n      dup2\n        /* \"#utility.yul\":5461:5464   */\n      dup6\n        /* \"#utility.yul\":5377:5473   */\n      tag_280\n      jump\t// in\n    tag_279:\n        /* \"#utility.yul\":5370:5473   */\n      swap4\n      pop\n        /* \"#utility.yul\":5499:5502   */\n      dup4\n        /* \"#utility.yul\":5544:5548   */\n      0x20\n        /* \"#utility.yul\":5536:5542   */\n      dup3\n        /* \"#utility.yul\":5532:5549   */\n      mul\n        /* \"#utility.yul\":5527:5530   */\n      dup6\n        /* \"#utility.yul\":5523:5550   */\n      add\n        /* \"#utility.yul\":5574:5640   */\n      tag_281\n        /* \"#utility.yul\":5634:5639   */\n      dup6\n        /* \"#utility.yul\":5574:5640   */\n      tag_282\n      jump\t// in\n    tag_281:\n        /* \"#utility.yul\":5663:5670   */\n      dup1\n        /* \"#utility.yul\":5694:5695   */\n      0x00\n        /* \"#utility.yul\":5679:6075   */\n    tag_283:\n        /* \"#utility.yul\":5704:5710   */\n      dup6\n        /* \"#utility.yul\":5701:5702   */\n      dup2\n        /* \"#utility.yul\":5698:5711   */\n      lt\n        /* \"#utility.yul\":5679:6075   */\n      iszero\n      tag_285\n      jumpi\n        /* \"#utility.yul\":5775:5784   */\n      dup5\n        /* \"#utility.yul\":5769:5773   */\n      dup5\n        /* \"#utility.yul\":5765:5785   */\n      sub\n        /* \"#utility.yul\":5760:5763   */\n      dup10\n        /* \"#utility.yul\":5753:5786   */\n      mstore\n        /* \"#utility.yul\":5826:5832   */\n      dup2\n        /* \"#utility.yul\":5820:5833   */\n      mload\n        /* \"#utility.yul\":5854:5938   */\n      tag_286\n        /* \"#utility.yul\":5933:5937   */\n      dup6\n        /* \"#utility.yul\":5918:5931   */\n      dup3\n        /* \"#utility.yul\":5854:5938   */\n      tag_263\n      jump\t// in\n    tag_286:\n        /* \"#utility.yul\":5846:5938   */\n      swap5\n      pop\n        /* \"#utility.yul\":5961:6031   */\n      tag_287\n        /* \"#utility.yul\":6024:6030   */\n      dup4\n        /* \"#utility.yul\":5961:6031   */\n      tag_288\n      jump\t// in\n    tag_287:\n        /* \"#utility.yul\":5951:6031   */\n      swap3\n      pop\n        /* \"#utility.yul\":6060:6064   */\n      0x20\n        /* \"#utility.yul\":6055:6058   */\n      dup11\n        /* \"#utility.yul\":6051:6065   */\n      add\n        /* \"#utility.yul\":6044:6065   */\n      swap10\n      pop\n        /* \"#utility.yul\":5739:6075   */\n      pop\n        /* \"#utility.yul\":5726:5727   */\n      0x01\n        /* \"#utility.yul\":5723:5724   */\n      dup2\n        /* \"#utility.yul\":5719:5728   */\n      add\n        /* \"#utility.yul\":5714:5728   */\n      swap1\n      pop\n        /* \"#utility.yul\":5679:6075   */\n      jump(tag_283)\n    tag_285:\n        /* \"#utility.yul\":5683:5697   */\n      pop\n        /* \"#utility.yul\":6091:6095   */\n      dup3\n        /* \"#utility.yul\":6084:6095   */\n      swap8\n      pop\n        /* \"#utility.yul\":6111:6114   */\n      dup8\n        /* \"#utility.yul\":6104:6114   */\n      swap6\n      pop\n        /* \"#utility.yul\":5273:6120   */\n      pop\n      pop\n      pop\n      pop\n      pop\n      swap3\n      swap2\n      pop\n      pop\n      jump\t// out\n        /* \"#utility.yul\":6156:6888   */\n    tag_289:\n      0x00\n        /* \"#utility.yul\":6304:6358   */\n      tag_291\n        /* \"#utility.yul\":6352:6357   */\n      dup3\n        /* \"#utility.yul\":6304:6358   */\n      tag_292\n      jump\t// in\n    tag_291:\n        /* \"#utility.yul\":6374:6460   */\n      tag_293\n        /* \"#utility.yul\":6453:6459   */\n      dup2\n        /* \"#utility.yul\":6448:6451   */\n      dup6\n        /* \"#utility.yul\":6374:6460   */\n      tag_294\n      jump\t// in\n    tag_293:\n        /* \"#utility.yul\":6367:6460   */\n      swap4\n      pop\n        /* \"#utility.yul\":6484:6540   */\n      tag_295\n        /* \"#utility.yul\":6534:6539   */\n      dup4\n        /* \"#utility.yul\":6484:6540   */\n      tag_296\n      jump\t// in\n    tag_295:\n        /* \"#utility.yul\":6563:6570   */\n      dup1\n        /* \"#utility.yul\":6594:6595   */\n      0x00\n        /* \"#utility.yul\":6579:6863   */\n    tag_297:\n        /* \"#utility.yul\":6604:6610   */\n      dup4\n        /* \"#utility.yul\":6601:6602   */\n      dup2\n        /* \"#utility.yul\":6598:6611   */\n      lt\n        /* \"#utility.yul\":6579:6863   */\n      iszero\n      tag_299\n      jumpi\n        /* \"#utility.yul\":6680:6686   */\n      dup2\n        /* \"#utility.yul\":6674:6687   */\n      mload\n        /* \"#utility.yul\":6707:6770   */\n      tag_300\n        /* \"#utility.yul\":6766:6769   */\n      dup9\n        /* \"#utility.yul\":6751:6764   */\n      dup3\n        /* \"#utility.yul\":6707:6770   */\n      tag_267\n      jump\t// in\n    tag_300:\n        /* \"#utility.yul\":6700:6770   */\n      swap8\n      pop\n        /* \"#utility.yul\":6793:6853   */\n      tag_301\n        /* \"#utility.yul\":6846:6852   */\n      dup4\n        /* \"#utility.yul\":6793:6853   */\n      tag_302\n      jump\t// in\n    tag_301:\n        /* \"#utility.yul\":6783:6853   */\n      swap3\n      pop\n        /* \"#utility.yul\":6639:6863   */\n      pop\n        /* \"#utility.yul\":6626:6627   */\n      0x01\n        /* \"#utility.yul\":6623:6624   */\n      dup2\n        /* \"#utility.yul\":6619:6628   */\n      add\n        /* \"#utility.yul\":6614:6628   */\n      swap1\n      pop\n        /* \"#utility.yul\":6579:6863   */\n      jump(tag_297)\n    tag_299:\n        /* \"#utility.yul\":6583:6597   */\n      pop\n        /* \"#utility.yul\":6879:6882   */\n      dup6\n        /* \"#utility.yul\":6872:6882   */\n      swap4\n      pop\n        /* \"#utility.yul\":6280:6888   */\n      pop\n      pop\n      pop\n      swap3\n      swap2\n      pop\n      pop\n      jump\t// out\n        /* \"#utility.yul\":6894:7003   */\n    tag_303:\n        /* \"#utility.yul\":6975:6996   */\n      tag_305\n        /* \"#utility.yul\":6990:6995   */\n      dup2\n        /* \"#utility.yul\":6975:6996   */\n      tag_306\n      jump\t// in\n    tag_305:\n        /* \"#utility.yul\":6970:6973   */\n      dup3\n        /* \"#utility.yul\":6963:6997   */\n      mstore\n        /* \"#utility.yul\":6953:7003   */\n      pop\n      pop\n      jump\t// out\n        /* \"#utility.yul\":7009:7180   */\n    tag_307:\n        /* \"#utility.yul\":7116:7173   */\n      tag_309\n        /* \"#utility.yul\":7167:7172   */\n      dup2\n        /* \"#utility.yul\":7116:7173   */\n      tag_310\n      jump\t// in\n    tag_309:\n        /* \"#utility.yul\":7111:7114   */\n      dup3\n        /* \"#utility.yul\":7104:7174   */\n      mstore\n        /* \"#utility.yul\":7094:7180   */\n      pop\n      pop\n      jump\t// out\n        /* \"#utility.yul\":7186:7377   */\n    tag_311:\n        /* \"#utility.yul\":7303:7370   */\n      tag_313\n        /* \"#utility.yul\":7364:7369   */\n      dup2\n        /* \"#utility.yul\":7303:7370   */\n      tag_314\n      jump\t// in\n    tag_313:\n        /* \"#utility.yul\":7298:7301   */\n      dup3\n        /* \"#utility.yul\":7291:7371   */\n      mstore\n        /* \"#utility.yul\":7281:7377   */\n      pop\n      pop\n      jump\t// out\n        /* \"#utility.yul\":7383:7554   */\n    tag_315:\n        /* \"#utility.yul\":7490:7547   */\n      tag_317\n        /* \"#utility.yul\":7541:7546   */\n      dup2\n        /* \"#utility.yul\":7490:7547   */\n      tag_318\n      jump\t// in\n    tag_317:\n        /* \"#utility.yul\":7485:7488   */\n      dup3\n        /* \"#utility.yul\":7478:7548   */\n      mstore\n        /* \"#utility.yul\":7468:7554   */\n      pop\n      pop\n      jump\t// out\n        /* \"#utility.yul\":7560:7904   */\n    tag_266:\n      0x00\n        /* \"#utility.yul\":7666:7705   */\n      tag_320\n        /* \"#utility.yul\":7699:7704   */\n      dup3\n        /* \"#utility.yul\":7666:7705   */\n      tag_321\n      jump\t// in\n    tag_320:\n        /* \"#utility.yul\":7721:7782   */\n      tag_322\n        /* \"#utility.yul\":7775:7781   */\n      dup2\n        /* \"#utility.yul\":7770:7773   */\n      dup6\n        /* \"#utility.yul\":7721:7782   */\n      tag_323\n      jump\t// in\n    tag_322:\n        /* \"#utility.yul\":7714:7782   */\n      swap4\n      pop\n        /* \"#utility.yul\":7791:7843   */\n      tag_324\n        /* \"#utility.yul\":7836:7842   */\n      dup2\n        /* \"#utility.yul\":7831:7834   */\n      dup6\n        /* \"#utility.yul\":7824:7828   */\n      0x20\n        /* \"#utility.yul\":7817:7822   */\n      dup7\n        /* \"#utility.yul\":7813:7829   */\n      add\n        /* \"#utility.yul\":7791:7843   */\n      tag_325\n      jump\t// in\n    tag_324:\n        /* \"#utility.yul\":7868:7897   */\n      tag_326\n        /* \"#utility.yul\":7890:7896   */\n      dup2\n        /* \"#utility.yul\":7868:7897   */\n      tag_327\n      jump\t// in\n    tag_326:\n        /* \"#utility.yul\":7863:7866   */\n      dup5\n        /* \"#utility.yul\":7859:7898   */\n      add\n        /* \"#utility.yul\":7852:7898   */\n      swap2\n      pop\n        /* \"#utility.yul\":7642:7904   */\n      pop\n      swap3\n      swap2\n      pop\n      pop\n      jump\t// out\n        /* \"#utility.yul\":7910:8276   */\n    tag_328:\n      0x00\n        /* \"#utility.yul\":8073:8140   */\n      tag_330\n        /* \"#utility.yul\":8137:8139   */\n      0x36\n        /* \"#utility.yul\":8132:8135   */\n      dup4\n        /* \"#utility.yul\":8073:8140   */\n      tag_331\n      jump\t// in\n    tag_330:\n        /* \"#utility.yul\":8066:8140   */\n      swap2\n      pop\n        /* \"#utility.yul\":8149:8242   */\n      tag_332\n        /* \"#utility.yul\":8238:8241   */\n      dup3\n        /* \"#utility.yul\":8149:8242   */\n      tag_333\n      jump\t// in\n    tag_332:\n        /* \"#utility.yul\":8267:8269   */\n      0x40\n        /* \"#utility.yul\":8262:8265   */\n      dup3\n        /* \"#utility.yul\":8258:8270   */\n      add\n        /* \"#utility.yul\":8251:8270   */\n      swap1\n      pop\n        /* \"#utility.yul\":8056:8276   */\n      swap2\n      swap1\n      pop\n      jump\t// out\n        /* \"#utility.yul\":8282:8648   */\n    tag_334:\n      0x00\n        /* \"#utility.yul\":8445:8512   */\n      tag_336\n        /* \"#utility.yul\":8509:8511   */\n      0x26\n        /* \"#utility.yul\":8504:8507   */\n      dup4\n        /* \"#utility.yul\":8445:8512   */\n      tag_331\n      jump\t// in\n    tag_336:\n        /* \"#utility.yul\":8438:8512   */\n      swap2\n      pop\n        /* \"#utility.yul\":8521:8614   */\n      tag_337\n        /* \"#utility.yul\":8610:8613   */\n      dup3\n        /* \"#utility.yul\":8521:8614   */\n      tag_338\n      jump\t// in\n    tag_337:\n        /* \"#utility.yul\":8639:8641   */\n      0x40\n        /* \"#utility.yul\":8634:8637   */\n      dup3\n        /* \"#utility.yul\":8630:8642   */\n      add\n        /* \"#utility.yul\":8623:8642   */\n      swap1\n      pop\n        /* \"#utility.yul\":8428:8648   */\n      swap2\n      swap1\n      pop\n      jump\t// out\n        /* \"#utility.yul\":8654:9020   */\n    tag_339:\n      0x00\n        /* \"#utility.yul\":8817:8884   */\n      tag_341\n        /* \"#utility.yul\":8881:8883   */\n      0x1f\n        /* \"#utility.yul\":8876:8879   */\n      dup4\n        /* \"#utility.yul\":8817:8884   */\n      tag_331\n      jump\t// in\n    tag_341:\n        /* \"#utility.yul\":8810:8884   */\n      swap2\n      pop\n        /* \"#utility.yul\":8893:8986   */\n      tag_342\n        /* \"#utility.yul\":8982:8985   */\n      dup3\n        /* \"#utility.yul\":8893:8986   */\n      tag_343\n      jump\t// in\n    tag_342:\n        /* \"#utility.yul\":9011:9013   */\n      0x20\n        /* \"#utility.yul\":9006:9009   */\n      dup3\n        /* \"#utility.yul\":9002:9014   */\n      add\n        /* \"#utility.yul\":8995:9014   */\n      swap1\n      pop\n        /* \"#utility.yul\":8800:9020   */\n      swap2\n      swap1\n      pop\n      jump\t// out\n        /* \"#utility.yul\":9026:9392   */\n    tag_344:\n      0x00\n        /* \"#utility.yul\":9189:9256   */\n      tag_346\n        /* \"#utility.yul\":9253:9255   */\n      0x20\n        /* \"#utility.yul\":9248:9251   */\n      dup4\n        /* \"#utility.yul\":9189:9256   */\n      tag_331\n      jump\t// in\n    tag_346:\n        /* \"#utility.yul\":9182:9256   */\n      swap2\n      pop\n        /* \"#utility.yul\":9265:9358   */\n      tag_347\n        /* \"#utility.yul\":9354:9357   */\n      dup3\n        /* \"#utility.yul\":9265:9358   */\n      tag_348\n      jump\t// in\n    tag_347:\n        /* \"#utility.yul\":9383:9385   */\n      0x20\n        /* \"#utility.yul\":9378:9381   */\n      dup3\n        /* \"#utility.yul\":9374:9386   */\n      add\n        /* \"#utility.yul\":9367:9386   */\n      swap1\n      pop\n        /* \"#utility.yul\":9172:9392   */\n      swap2\n      swap1\n      pop\n      jump\t// out\n        /* \"#utility.yul\":9398:9506   */\n    tag_270:\n        /* \"#utility.yul\":9475:9499   */\n      tag_350\n        /* \"#utility.yul\":9493:9498   */\n      dup2\n        /* \"#utility.yul\":9475:9499   */\n      tag_351\n      jump\t// in\n    tag_350:\n        /* \"#utility.yul\":9470:9473   */\n      dup3\n        /* \"#utility.yul\":9463:9500   */\n      mstore\n        /* \"#utility.yul\":9453:9506   */\n      pop\n      pop\n      jump\t// out\n        /* \"#utility.yul\":9512:9630   */\n    tag_352:\n        /* \"#utility.yul\":9599:9623   */\n      tag_354\n        /* \"#utility.yul\":9617:9622   */\n      dup2\n        /* \"#utility.yul\":9599:9623   */\n      tag_351\n      jump\t// in\n    tag_354:\n        /* \"#utility.yul\":9594:9597   */\n      dup3\n        /* \"#utility.yul\":9587:9624   */\n      mstore\n        /* \"#utility.yul\":9577:9630   */\n      pop\n      pop\n      jump\t// out\n        /* \"#utility.yul\":9636:9858   */\n    tag_51:\n      0x00\n        /* \"#utility.yul\":9767:9769   */\n      0x20\n        /* \"#utility.yul\":9756:9765   */\n      dup3\n        /* \"#utility.yul\":9752:9770   */\n      add\n        /* \"#utility.yul\":9744:9770   */\n      swap1\n      pop\n        /* \"#utility.yul\":9780:9851   */\n      tag_356\n        /* \"#utility.yul\":9848:9849   */\n      0x00\n        /* \"#utility.yul\":9837:9846   */\n      dup4\n        /* \"#utility.yul\":9833:9850   */\n      add\n        /* \"#utility.yul\":9824:9830   */\n      dup5\n        /* \"#utility.yul\":9780:9851   */\n      tag_271\n      jump\t// in\n    tag_356:\n        /* \"#utility.yul\":9734:9858   */\n      swap3\n      swap2\n      pop\n      pop\n      jump\t// out\n        /* \"#utility.yul\":9864:10196   */\n    tag_149:\n      0x00\n        /* \"#utility.yul\":10023:10025   */\n      0x40\n        /* \"#utility.yul\":10012:10021   */\n      dup3\n        /* \"#utility.yul\":10008:10026   */\n      add\n        /* \"#utility.yul\":10000:10026   */\n      swap1\n      pop\n        /* \"#utility.yul\":10036:10107   */\n      tag_358\n        /* \"#utility.yul\":10104:10105   */\n      0x00\n        /* \"#utility.yul\":10093:10102   */\n      dup4\n        /* \"#utility.yul\":10089:10106   */\n      add\n        /* \"#utility.yul\":10080:10086   */\n      dup6\n        /* \"#utility.yul\":10036:10107   */\n      tag_271\n      jump\t// in\n    tag_358:\n        /* \"#utility.yul\":10117:10189   */\n      tag_359\n        /* \"#utility.yul\":10185:10187   */\n      0x20\n        /* \"#utility.yul\":10174:10183   */\n      dup4\n        /* \"#utility.yul\":10170:10188   */\n      add\n        /* \"#utility.yul\":10161:10167   */\n      dup5\n        /* \"#utility.yul\":10117:10189   */\n      tag_352\n      jump\t// in\n    tag_359:\n        /* \"#utility.yul\":9990:10196   */\n      swap4\n      swap3\n      pop\n      pop\n      pop\n      jump\t// out\n        /* \"#utility.yul\":10202:10876   */\n    tag_161:\n      0x00\n        /* \"#utility.yul\":10481:10483   */\n      0x40\n        /* \"#utility.yul\":10470:10479   */\n      dup3\n        /* \"#utility.yul\":10466:10484   */\n      add\n        /* \"#utility.yul\":10458:10484   */\n      swap1\n      pop\n        /* \"#utility.yul\":10530:10539   */\n      dup2\n        /* \"#utility.yul\":10524:10528   */\n      dup2\n        /* \"#utility.yul\":10520:10540   */\n      sub\n        /* \"#utility.yul\":10516:10517   */\n      0x00\n        /* \"#utility.yul\":10505:10514   */\n      dup4\n        /* \"#utility.yul\":10501:10518   */\n      add\n        /* \"#utility.yul\":10494:10541   */\n      mstore\n        /* \"#utility.yul\":10558:10666   */\n      tag_361\n        /* \"#utility.yul\":10661:10665   */\n      dup2\n        /* \"#utility.yul\":10652:10658   */\n      dup6\n        /* \"#utility.yul\":10558:10666   */\n      tag_289\n      jump\t// in\n    tag_361:\n        /* \"#utility.yul\":10550:10666   */\n      swap1\n      pop\n        /* \"#utility.yul\":10713:10722   */\n      dup2\n        /* \"#utility.yul\":10707:10711   */\n      dup2\n        /* \"#utility.yul\":10703:10723   */\n      sub\n        /* \"#utility.yul\":10698:10700   */\n      0x20\n        /* \"#utility.yul\":10687:10696   */\n      dup4\n        /* \"#utility.yul\":10683:10701   */\n      add\n        /* \"#utility.yul\":10676:10724   */\n      mstore\n        /* \"#utility.yul\":10741:10869   */\n      tag_362\n        /* \"#utility.yul\":10864:10868   */\n      dup2\n        /* \"#utility.yul\":10855:10861   */\n      dup5\n        /* \"#utility.yul\":10741:10869   */\n      tag_275\n      jump\t// in\n    tag_362:\n        /* \"#utility.yul\":10733:10869   */\n      swap1\n      pop\n        /* \"#utility.yul\":10448:10876   */\n      swap4\n      swap3\n      pop\n      pop\n      pop\n      jump\t// out\n        /* \"#utility.yul\":10882:11144   */\n    tag_47:\n      0x00\n        /* \"#utility.yul\":11033:11035   */\n      0x20\n        /* \"#utility.yul\":11022:11031   */\n      dup3\n        /* \"#utility.yul\":11018:11036   */\n      add\n        /* \"#utility.yul\":11010:11036   */\n      swap1\n      pop\n        /* \"#utility.yul\":11046:11137   */\n      tag_364\n        /* \"#utility.yul\":11134:11135   */\n      0x00\n        /* \"#utility.yul\":11123:11132   */\n      dup4\n        /* \"#utility.yul\":11119:11136   */\n      add\n        /* \"#utility.yul\":11110:11116   */\n      dup5\n        /* \"#utility.yul\":11046:11137   */\n      tag_307\n      jump\t// in\n    tag_364:\n        /* \"#utility.yul\":11000:11144   */\n      swap3\n      swap2\n      pop\n      pop\n      jump\t// out\n        /* \"#utility.yul\":11150:11432   */\n    tag_34:\n      0x00\n        /* \"#utility.yul\":11311:11313   */\n      0x20\n        /* \"#utility.yul\":11300:11309   */\n      dup3\n        /* \"#utility.yul\":11296:11314   */\n      add\n        /* \"#utility.yul\":11288:11314   */\n      swap1\n      pop\n        /* \"#utility.yul\":11324:11425   */\n      tag_366\n        /* \"#utility.yul\":11422:11423   */\n      0x00\n        /* \"#utility.yul\":11411:11420   */\n      dup4\n        /* \"#utility.yul\":11407:11424   */\n      add\n        /* \"#utility.yul\":11398:11404   */\n      dup5\n        /* \"#utility.yul\":11324:11425   */\n      tag_311\n      jump\t// in\n    tag_366:\n        /* \"#utility.yul\":11278:11432   */\n      swap3\n      swap2\n      pop\n      pop\n      jump\t// out\n        /* \"#utility.yul\":11438:11700   */\n    tag_70:\n      0x00\n        /* \"#utility.yul\":11589:11591   */\n      0x20\n        /* \"#utility.yul\":11578:11587   */\n      dup3\n        /* \"#utility.yul\":11574:11592   */\n      add\n        /* \"#utility.yul\":11566:11592   */\n      swap1\n      pop\n        /* \"#utility.yul\":11602:11693   */\n      tag_368\n        /* \"#utility.yul\":11690:11691   */\n      0x00\n        /* \"#utility.yul\":11679:11688   */\n      dup4\n        /* \"#utility.yul\":11675:11692   */\n      add\n        /* \"#utility.yul\":11666:11672   */\n      dup5\n        /* \"#utility.yul\":11602:11693   */\n      tag_315\n      jump\t// in\n    tag_368:\n        /* \"#utility.yul\":11556:11700   */\n      swap3\n      swap2\n      pop\n      pop\n      jump\t// out\n        /* \"#utility.yul\":11706:12125   */\n    tag_119:\n      0x00\n        /* \"#utility.yul\":11910:11912   */\n      0x20\n        /* \"#utility.yul\":11899:11908   */\n      dup3\n        /* \"#utility.yul\":11895:11913   */\n      add\n        /* \"#utility.yul\":11887:11913   */\n      swap1\n      pop\n        /* \"#utility.yul\":11959:11968   */\n      dup2\n        /* \"#utility.yul\":11953:11957   */\n      dup2\n        /* \"#utility.yul\":11949:11969   */\n      sub\n        /* \"#utility.yul\":11945:11946   */\n      0x00\n        /* \"#utility.yul\":11934:11943   */\n      dup4\n        /* \"#utility.yul\":11930:11947   */\n      add\n        /* \"#utility.yul\":11923:11970   */\n      mstore\n        /* \"#utility.yul\":11987:12118   */\n      tag_370\n        /* \"#utility.yul\":12113:12117   */\n      dup2\n        /* \"#utility.yul\":11987:12118   */\n      tag_328\n      jump\t// in\n    tag_370:\n        /* \"#utility.yul\":11979:12118   */\n      swap1\n      pop\n        /* \"#utility.yul\":11877:12125   */\n      swap2\n      swap1\n      pop\n      jump\t// out\n        /* \"#utility.yul\":12131:12550   */\n    tag_173:\n      0x00\n        /* \"#utility.yul\":12335:12337   */\n      0x20\n        /* \"#utility.yul\":12324:12333   */\n      dup3\n        /* \"#utility.yul\":12320:12338   */\n      add\n        /* \"#utility.yul\":12312:12338   */\n      swap1\n      pop\n        /* \"#utility.yul\":12384:12393   */\n      dup2\n        /* \"#utility.yul\":12378:12382   */\n      dup2\n        /* \"#utility.yul\":12374:12394   */\n      sub\n        /* \"#utility.yul\":12370:12371   */\n      0x00\n        /* \"#utility.yul\":12359:12368   */\n      dup4\n        /* \"#utility.yul\":12355:12372   */\n      add\n        /* \"#utility.yul\":12348:12395   */\n      mstore\n        /* \"#utility.yul\":12412:12543   */\n      tag_372\n        /* \"#utility.yul\":12538:12542   */\n      dup2\n        /* \"#utility.yul\":12412:12543   */\n      tag_334\n      jump\t// in\n    tag_372:\n        /* \"#utility.yul\":12404:12543   */\n      swap1\n      pop\n        /* \"#utility.yul\":12302:12550   */\n      swap2\n      swap1\n      pop\n      jump\t// out\n        /* \"#utility.yul\":12556:12975   */\n    tag_180:\n      0x00\n        /* \"#utility.yul\":12760:12762   */\n      0x20\n        /* \"#utility.yul\":12749:12758   */\n      dup3\n        /* \"#utility.yul\":12745:12763   */\n      add\n        /* \"#utility.yul\":12737:12763   */\n      swap1\n      pop\n        /* \"#utility.yul\":12809:12818   */\n      dup2\n        /* \"#utility.yul\":12803:12807   */\n      dup2\n        /* \"#utility.yul\":12799:12819   */\n      sub\n        /* \"#utility.yul\":12795:12796   */\n      0x00\n        /* \"#utility.yul\":12784:12793   */\n      dup4\n        /* \"#utility.yul\":12780:12797   */\n      add\n        /* \"#utility.yul\":12773:12820   */\n      mstore\n        /* \"#utility.yul\":12837:12968   */\n      tag_374\n        /* \"#utility.yul\":12963:12967   */\n      dup2\n        /* \"#utility.yul\":12837:12968   */\n      tag_339\n      jump\t// in\n    tag_374:\n        /* \"#utility.yul\":12829:12968   */\n      swap1\n      pop\n        /* \"#utility.yul\":12727:12975   */\n      swap2\n      swap1\n      pop\n      jump\t// out\n        /* \"#utility.yul\":12981:13400   */\n    tag_93:\n      0x00\n        /* \"#utility.yul\":13185:13187   */\n      0x20\n        /* \"#utility.yul\":13174:13183   */\n      dup3\n        /* \"#utility.yul\":13170:13188   */\n      add\n        /* \"#utility.yul\":13162:13188   */\n      swap1\n      pop\n        /* \"#utility.yul\":13234:13243   */\n      dup2\n        /* \"#utility.yul\":13228:13232   */\n      dup2\n        /* \"#utility.yul\":13224:13244   */\n      sub\n        /* \"#utility.yul\":13220:13221   */\n      0x00\n        /* \"#utility.yul\":13209:13218   */\n      dup4\n        /* \"#utility.yul\":13205:13222   */\n      add\n        /* \"#utility.yul\":13198:13245   */\n      mstore\n        /* \"#utility.yul\":13262:13393   */\n      tag_376\n        /* \"#utility.yul\":13388:13392   */\n      dup2\n        /* \"#utility.yul\":13262:13393   */\n      tag_344\n      jump\t// in\n    tag_376:\n        /* \"#utility.yul\":13254:13393   */\n      swap1\n      pop\n        /* \"#utility.yul\":13152:13400   */\n      swap2\n      swap1\n      pop\n      jump\t// out\n        /* \"#utility.yul\":13406:13628   */\n    tag_26:\n      0x00\n        /* \"#utility.yul\":13537:13539   */\n      0x20\n        /* \"#utility.yul\":13526:13535   */\n      dup3\n        /* \"#utility.yul\":13522:13540   */\n      add\n        /* \"#utility.yul\":13514:13540   */\n      swap1\n      pop\n        /* \"#utility.yul\":13550:13621   */\n      tag_378\n        /* \"#utility.yul\":13618:13619   */\n      0x00\n        /* \"#utility.yul\":13607:13616   */\n      dup4\n        /* \"#utility.yul\":13603:13620   */\n      add\n        /* \"#utility.yul\":13594:13600   */\n      dup5\n        /* \"#utility.yul\":13550:13621   */\n      tag_352\n      jump\t// in\n    tag_378:\n        /* \"#utility.yul\":13504:13628   */\n      swap3\n      swap2\n      pop\n      pop\n      jump\t// out\n        /* \"#utility.yul\":13634:14064   */\n    tag_66:\n      0x00\n        /* \"#utility.yul\":13815:13817   */\n      0x60\n        /* \"#utility.yul\":13804:13813   */\n      dup3\n        /* \"#utility.yul\":13800:13818   */\n      add\n        /* \"#utility.yul\":13792:13818   */\n      swap1\n      pop\n        /* \"#utility.yul\":13828:13899   */\n      tag_380\n        /* \"#utility.yul\":13896:13897   */\n      0x00\n        /* \"#utility.yul\":13885:13894   */\n      dup4\n        /* \"#utility.yul\":13881:13898   */\n      add\n        /* \"#utility.yul\":13872:13878   */\n      dup7\n        /* \"#utility.yul\":13828:13899   */\n      tag_352\n      jump\t// in\n    tag_380:\n        /* \"#utility.yul\":13909:13981   */\n      tag_381\n        /* \"#utility.yul\":13977:13979   */\n      0x20\n        /* \"#utility.yul\":13966:13975   */\n      dup4\n        /* \"#utility.yul\":13962:13980   */\n      add\n        /* \"#utility.yul\":13953:13959   */\n      dup6\n        /* \"#utility.yul\":13909:13981   */\n      tag_352\n      jump\t// in\n    tag_381:\n        /* \"#utility.yul\":13991:14057   */\n      tag_382\n        /* \"#utility.yul\":14053:14055   */\n      0x40\n        /* \"#utility.yul\":14042:14051   */\n      dup4\n        /* \"#utility.yul\":14038:14056   */\n      add\n        /* \"#utility.yul\":14029:14035   */\n      dup5\n        /* \"#utility.yul\":13991:14057   */\n      tag_303\n      jump\t// in\n    tag_382:\n        /* \"#utility.yul\":13782:14064   */\n      swap5\n      swap4\n      pop\n      pop\n      pop\n      pop\n      jump\t// out\n        /* \"#utility.yul\":14070:14199   */\n    tag_202:\n      0x00\n        /* \"#utility.yul\":14131:14151   */\n      tag_384\n      tag_385\n      jump\t// in\n    tag_384:\n        /* \"#utility.yul\":14121:14151   */\n      swap1\n      pop\n        /* \"#utility.yul\":14160:14193   */\n      tag_386\n        /* \"#utility.yul\":14188:14192   */\n      dup3\n        /* \"#utility.yul\":14180:14186   */\n      dup3\n        /* \"#utility.yul\":14160:14193   */\n      tag_387\n      jump\t// in\n    tag_386:\n        /* \"#utility.yul\":14111:14199   */\n      swap2\n      swap1\n      pop\n      jump\t// out\n        /* \"#utility.yul\":14205:14280   */\n    tag_385:\n      0x00\n        /* \"#utility.yul\":14271:14273   */\n      0x40\n        /* \"#utility.yul\":14265:14274   */\n      mload\n        /* \"#utility.yul\":14255:14274   */\n      swap1\n      pop\n        /* \"#utility.yul\":14245:14280   */\n      swap1\n      jump\t// out\n        /* \"#utility.yul\":14286:14607   */\n    tag_201:\n      0x00\n        /* \"#utility.yul\":14463:14481   */\n      0xffffffffffffffff\n        /* \"#utility.yul\":14455:14461   */\n      dup3\n        /* \"#utility.yul\":14452:14482   */\n      gt\n        /* \"#utility.yul\":14449:14451   */\n      iszero\n      tag_390\n      jumpi\n        /* \"#utility.yul\":14485:14503   */\n      tag_391\n      tag_392\n      jump\t// in\n    tag_391:\n        /* \"#utility.yul\":14449:14451   */\n    tag_390:\n        /* \"#utility.yul\":14535:14539   */\n      0x20\n        /* \"#utility.yul\":14527:14533   */\n      dup3\n        /* \"#utility.yul\":14523:14540   */\n      mul\n        /* \"#utility.yul\":14515:14540   */\n      swap1\n      pop\n        /* \"#utility.yul\":14595:14599   */\n      0x20\n        /* \"#utility.yul\":14589:14593   */\n      dup2\n        /* \"#utility.yul\":14585:14600   */\n      add\n        /* \"#utility.yul\":14577:14600   */\n      swap1\n      pop\n        /* \"#utility.yul\":14378:14607   */\n      swap2\n      swap1\n      pop\n      jump\t// out\n        /* \"#utility.yul\":14613:14924   */\n    tag_212:\n      0x00\n        /* \"#utility.yul\":14780:14798   */\n      0xffffffffffffffff\n        /* \"#utility.yul\":14772:14778   */\n      dup3\n        /* \"#utility.yul\":14769:14799   */\n      gt\n        /* \"#utility.yul\":14766:14768   */\n      iszero\n      tag_394\n      jumpi\n        /* \"#utility.yul\":14802:14820   */\n      tag_395\n      tag_392\n      jump\t// in\n    tag_395:\n        /* \"#utility.yul\":14766:14768   */\n    tag_394:\n        /* \"#utility.yul\":14852:14856   */\n      0x20\n        /* \"#utility.yul\":14844:14850   */\n      dup3\n        /* \"#utility.yul\":14840:14857   */\n      mul\n        /* \"#utility.yul\":14832:14857   */\n      swap1\n      pop\n        /* \"#utility.yul\":14912:14916   */\n      0x20\n        /* \"#utility.yul\":14906:14910   */\n      dup2\n        /* \"#utility.yul\":14902:14917   */\n      add\n        /* \"#utility.yul\":14894:14917   */\n      swap1\n      pop\n        /* \"#utility.yul\":14695:14924   */\n      swap2\n      swap1\n      pop\n      jump\t// out\n        /* \"#utility.yul\":14930:15238   */\n    tag_223:\n      0x00\n        /* \"#utility.yul\":15082:15100   */\n      0xffffffffffffffff\n        /* \"#utility.yul\":15074:15080   */\n      dup3\n        /* \"#utility.yul\":15071:15101   */\n      gt\n        /* \"#utility.yul\":15068:15070   */\n      iszero\n      tag_397\n      jumpi\n        /* \"#utility.yul\":15104:15122   */\n      tag_398\n      tag_392\n      jump\t// in\n    tag_398:\n        /* \"#utility.yul\":15068:15070   */\n    tag_397:\n        /* \"#utility.yul\":15142:15171   */\n      tag_399\n        /* \"#utility.yul\":15164:15170   */\n      dup3\n        /* \"#utility.yul\":15142:15171   */\n      tag_327\n      jump\t// in\n    tag_399:\n        /* \"#utility.yul\":15134:15171   */\n      swap1\n      pop\n        /* \"#utility.yul\":15226:15230   */\n      0x20\n        /* \"#utility.yul\":15220:15224   */\n      dup2\n        /* \"#utility.yul\":15216:15231   */\n      add\n        /* \"#utility.yul\":15208:15231   */\n      swap1\n      pop\n        /* \"#utility.yul\":14997:15238   */\n      swap2\n      swap1\n      pop\n      jump\t// out\n        /* \"#utility.yul\":15244:15386   */\n    tag_282:\n      0x00\n        /* \"#utility.yul\":15344:15347   */\n      dup2\n        /* \"#utility.yul\":15336:15347   */\n      swap1\n      pop\n        /* \"#utility.yul\":15374:15378   */\n      0x20\n        /* \"#utility.yul\":15369:15372   */\n      dup3\n        /* \"#utility.yul\":15365:15379   */\n      add\n        /* \"#utility.yul\":15357:15379   */\n      swap1\n      pop\n        /* \"#utility.yul\":15326:15386   */\n      swap2\n      swap1\n      pop\n      jump\t// out\n        /* \"#utility.yul\":15392:15524   */\n    tag_296:\n      0x00\n        /* \"#utility.yul\":15482:15485   */\n      dup2\n        /* \"#utility.yul\":15474:15485   */\n      swap1\n      pop\n        /* \"#utility.yul\":15512:15516   */\n      0x20\n        /* \"#utility.yul\":15507:15510   */\n      dup3\n        /* \"#utility.yul\":15503:15517   */\n      add\n        /* \"#utility.yul\":15495:15517   */\n      swap1\n      pop\n        /* \"#utility.yul\":15464:15524   */\n      swap2\n      swap1\n      pop\n      jump\t// out\n        /* \"#utility.yul\":15530:15654   */\n    tag_278:\n      0x00\n        /* \"#utility.yul\":15641:15646   */\n      dup2\n        /* \"#utility.yul\":15635:15647   */\n      mload\n        /* \"#utility.yul\":15625:15647   */\n      swap1\n      pop\n        /* \"#utility.yul\":15614:15654   */\n      swap2\n      swap1\n      pop\n      jump\t// out\n        /* \"#utility.yul\":15660:15774   */\n    tag_292:\n      0x00\n        /* \"#utility.yul\":15761:15766   */\n      dup2\n        /* \"#utility.yul\":15755:15767   */\n      mload\n        /* \"#utility.yul\":15745:15767   */\n      swap1\n      pop\n        /* \"#utility.yul\":15734:15774   */\n      swap2\n      swap1\n      pop\n      jump\t// out\n        /* \"#utility.yul\":15780:15879   */\n    tag_321:\n      0x00\n        /* \"#utility.yul\":15866:15871   */\n      dup2\n        /* \"#utility.yul\":15860:15872   */\n      mload\n        /* \"#utility.yul\":15850:15872   */\n      swap1\n      pop\n        /* \"#utility.yul\":15839:15879   */\n      swap2\n      swap1\n      pop\n      jump\t// out\n        /* \"#utility.yul\":15885:16008   */\n    tag_288:\n      0x00\n        /* \"#utility.yul\":15997:16001   */\n      0x20\n        /* \"#utility.yul\":15992:15995   */\n      dup3\n        /* \"#utility.yul\":15988:16002   */\n      add\n        /* \"#utility.yul\":15980:16002   */\n      swap1\n      pop\n        /* \"#utility.yul\":15970:16008   */\n      swap2\n      swap1\n      pop\n      jump\t// out\n        /* \"#utility.yul\":16014:16127   */\n    tag_302:\n      0x00\n        /* \"#utility.yul\":16116:16120   */\n      0x20\n        /* \"#utility.yul\":16111:16114   */\n      dup3\n        /* \"#utility.yul\":16107:16121   */\n      add\n        /* \"#utility.yul\":16099:16121   */\n      swap1\n      pop\n        /* \"#utility.yul\":16089:16127   */\n      swap2\n      swap1\n      pop\n      jump\t// out\n        /* \"#utility.yul\":16133:16327   */\n    tag_280:\n      0x00\n        /* \"#utility.yul\":16276:16282   */\n      dup3\n        /* \"#utility.yul\":16271:16274   */\n      dup3\n        /* \"#utility.yul\":16264:16283   */\n      mstore\n        /* \"#utility.yul\":16316:16320   */\n      0x20\n        /* \"#utility.yul\":16311:16314   */\n      dup3\n        /* \"#utility.yul\":16307:16321   */\n      add\n        /* \"#utility.yul\":16292:16321   */\n      swap1\n      pop\n        /* \"#utility.yul\":16254:16327   */\n      swap3\n      swap2\n      pop\n      pop\n      jump\t// out\n        /* \"#utility.yul\":16333:16517   */\n    tag_294:\n      0x00\n        /* \"#utility.yul\":16466:16472   */\n      dup3\n        /* \"#utility.yul\":16461:16464   */\n      dup3\n        /* \"#utility.yul\":16454:16473   */\n      mstore\n        /* \"#utility.yul\":16506:16510   */\n      0x20\n        /* \"#utility.yul\":16501:16504   */\n      dup3\n        /* \"#utility.yul\":16497:16511   */\n      add\n        /* \"#utility.yul\":16482:16511   */\n      swap1\n      pop\n        /* \"#utility.yul\":16444:16517   */\n      swap3\n      swap2\n      pop\n      pop\n      jump\t// out\n        /* \"#utility.yul\":16523:16682   */\n    tag_323:\n      0x00\n        /* \"#utility.yul\":16631:16637   */\n      dup3\n        /* \"#utility.yul\":16626:16629   */\n      dup3\n        /* \"#utility.yul\":16619:16638   */\n      mstore\n        /* \"#utility.yul\":16671:16675   */\n      0x20\n        /* \"#utility.yul\":16666:16669   */\n      dup3\n        /* \"#utility.yul\":16662:16676   */\n      add\n        /* \"#utility.yul\":16647:16676   */\n      swap1\n      pop\n        /* \"#utility.yul\":16609:16682   */\n      swap3\n      swap2\n      pop\n      pop\n      jump\t// out\n        /* \"#utility.yul\":16688:16857   */\n    tag_331:\n      0x00\n        /* \"#utility.yul\":16806:16812   */\n      dup3\n        /* \"#utility.yul\":16801:16804   */\n      dup3\n        /* \"#utility.yul\":16794:16813   */\n      mstore\n        /* \"#utility.yul\":16846:16850   */\n      0x20\n        /* \"#utility.yul\":16841:16844   */\n      dup3\n        /* \"#utility.yul\":16837:16851   */\n      add\n        /* \"#utility.yul\":16822:16851   */\n      swap1\n      pop\n        /* \"#utility.yul\":16784:16857   */\n      swap3\n      swap2\n      pop\n      pop\n      jump\t// out\n        /* \"#utility.yul\":16863:17048   */\n    tag_184:\n      0x00\n        /* \"#utility.yul\":16920:16940   */\n      tag_412\n        /* \"#utility.yul\":16938:16939   */\n      dup3\n        /* \"#utility.yul\":16920:16940   */\n      tag_351\n      jump\t// in\n    tag_412:\n        /* \"#utility.yul\":16915:16940   */\n      swap2\n      pop\n        /* \"#utility.yul\":16954:16974   */\n      tag_413\n        /* \"#utility.yul\":16972:16973   */\n      dup4\n        /* \"#utility.yul\":16954:16974   */\n      tag_351\n      jump\t// in\n    tag_413:\n        /* \"#utility.yul\":16949:16974   */\n      swap3\n      pop\n        /* \"#utility.yul\":16993:16994   */\n      dup3\n        /* \"#utility.yul\":16983:16985   */\n      tag_414\n      jumpi\n        /* \"#utility.yul\":16998:17016   */\n      tag_415\n      tag_416\n      jump\t// in\n    tag_415:\n        /* \"#utility.yul\":16983:16985   */\n    tag_414:\n        /* \"#utility.yul\":17040:17041   */\n      dup3\n        /* \"#utility.yul\":17037:17038   */\n      dup3\n        /* \"#utility.yul\":17033:17042   */\n      div\n        /* \"#utility.yul\":17028:17042   */\n      swap1\n      pop\n        /* \"#utility.yul\":16905:17048   */\n      swap3\n      swap2\n      pop\n      pop\n      jump\t// out\n        /* \"#utility.yul\":17054:17402   */\n    tag_186:\n      0x00\n        /* \"#utility.yul\":17117:17137   */\n      tag_418\n        /* \"#utility.yul\":17135:17136   */\n      dup3\n        /* \"#utility.yul\":17117:17137   */\n      tag_351\n      jump\t// in\n    tag_418:\n        /* \"#utility.yul\":17112:17137   */\n      swap2\n      pop\n        /* \"#utility.yul\":17151:17171   */\n      tag_419\n        /* \"#utility.yul\":17169:17170   */\n      dup4\n        /* \"#utility.yul\":17151:17171   */\n      tag_351\n      jump\t// in\n    tag_419:\n        /* \"#utility.yul\":17146:17171   */\n      swap3\n      pop\n        /* \"#utility.yul\":17339:17340   */\n      dup2\n        /* \"#utility.yul\":17271:17337   */\n      0xffffffffffffffffffffffffffffffffffffffffffffffffffffffffffffffff\n        /* \"#utility.yul\":17267:17341   */\n      div\n        /* \"#utility.yul\":17264:17265   */\n      dup4\n        /* \"#utility.yul\":17261:17342   */\n      gt\n        /* \"#utility.yul\":17256:17257   */\n      dup3\n        /* \"#utility.yul\":17249:17258   */\n      iszero\n        /* \"#utility.yul\":17242:17259   */\n      iszero\n        /* \"#utility.yul\":17238:17343   */\n      and\n        /* \"#utility.yul\":17235:17237   */\n      iszero\n      tag_420\n      jumpi\n        /* \"#utility.yul\":17346:17364   */\n      tag_421\n      tag_422\n      jump\t// in\n    tag_421:\n        /* \"#utility.yul\":17235:17237   */\n    tag_420:\n        /* \"#utility.yul\":17394:17395   */\n      dup3\n        /* \"#utility.yul\":17391:17392   */\n      dup3\n        /* \"#utility.yul\":17387:17396   */\n      mul\n        /* \"#utility.yul\":17376:17396   */\n      swap1\n      pop\n        /* \"#utility.yul\":17102:17402   */\n      swap3\n      swap2\n      pop\n      pop\n      jump\t// out\n        /* \"#utility.yul\":17408:17599   */\n    tag_122:\n      0x00\n        /* \"#utility.yul\":17468:17488   */\n      tag_424\n        /* \"#utility.yul\":17486:17487   */\n      dup3\n        /* \"#utility.yul\":17468:17488   */\n      tag_351\n      jump\t// in\n    tag_424:\n        /* \"#utility.yul\":17463:17488   */\n      swap2\n      pop\n        /* \"#utility.yul\":17502:17522   */\n      tag_425\n        /* \"#utility.yul\":17520:17521   */\n      dup4\n        /* \"#utility.yul\":17502:17522   */\n      tag_351\n      jump\t// in\n    tag_425:\n        /* \"#utility.yul\":17497:17522   */\n      swap3\n      pop\n        /* \"#utility.yul\":17541:17542   */\n      dup3\n        /* \"#utility.yul\":17538:17539   */\n      dup3\n        /* \"#utility.yul\":17535:17543   */\n      lt\n        /* \"#utility.yul\":17532:17534   */\n      iszero\n      tag_426\n      jumpi\n        /* \"#utility.yul\":17546:17564   */\n      tag_427\n      tag_422\n      jump\t// in\n    tag_427:\n        /* \"#utility.yul\":17532:17534   */\n    tag_426:\n        /* \"#utility.yul\":17591:17592   */\n      dup3\n        /* \"#utility.yul\":17588:17589   */\n      dup3\n        /* \"#utility.yul\":17584:17593   */\n      sub\n        /* \"#utility.yul\":17576:17593   */\n      swap1\n      pop\n        /* \"#utility.yul\":17453:17599   */\n      swap3\n      swap2\n      pop\n      pop\n      jump\t// out\n        /* \"#utility.yul\":17605:17701   */\n    tag_274:\n      0x00\n        /* \"#utility.yul\":17671:17695   */\n      tag_429\n        /* \"#utility.yul\":17689:17694   */\n      dup3\n        /* \"#utility.yul\":17671:17695   */\n      tag_430\n      jump\t// in\n    tag_429:\n        /* \"#utility.yul\":17660:17695   */\n      swap1\n      pop\n        /* \"#utility.yul\":17650:17701   */\n      swap2\n      swap1\n      pop\n      jump\t// out\n        /* \"#utility.yul\":17707:17797   */\n    tag_306:\n      0x00\n        /* \"#utility.yul\":17784:17789   */\n      dup2\n        /* \"#utility.yul\":17777:17790   */\n      iszero\n        /* \"#utility.yul\":17770:17791   */\n      iszero\n        /* \"#utility.yul\":17759:17791   */\n      swap1\n      pop\n        /* \"#utility.yul\":17749:17797   */\n      swap2\n      swap1\n      pop\n      jump\t// out\n        /* \"#utility.yul\":17803:17929   */\n    tag_430:\n      0x00\n        /* \"#utility.yul\":17880:17922   */\n      0xffffffffffffffffffffffffffffffffffffffff\n        /* \"#utility.yul\":17873:17878   */\n      dup3\n        /* \"#utility.yul\":17869:17923   */\n      and\n        /* \"#utility.yul\":17858:17923   */\n      swap1\n      pop\n        /* \"#utility.yul\":17848:17929   */\n      swap2\n      swap1\n      pop\n      jump\t// out\n        /* \"#utility.yul\":17935:18012   */\n    tag_351:\n      0x00\n        /* \"#utility.yul\":18001:18006   */\n      dup2\n        /* \"#utility.yul\":17990:18006   */\n      swap1\n      pop\n        /* \"#utility.yul\":17980:18012   */\n      swap2\n      swap1\n      pop\n      jump\t// out\n        /* \"#utility.yul\":18018:18184   */\n    tag_310:\n      0x00\n        /* \"#utility.yul\":18121:18178   */\n      tag_435\n        /* \"#utility.yul\":18172:18177   */\n      dup3\n        /* \"#utility.yul\":18121:18178   */\n      tag_436\n      jump\t// in\n    tag_435:\n        /* \"#utility.yul\":18108:18178   */\n      swap1\n      pop\n        /* \"#utility.yul\":18098:18184   */\n      swap2\n      swap1\n      pop\n      jump\t// out\n        /* \"#utility.yul\":18190:18323   */\n    tag_436:\n      0x00\n        /* \"#utility.yul\":18293:18317   */\n      tag_438\n        /* \"#utility.yul\":18311:18316   */\n      dup3\n        /* \"#utility.yul\":18293:18317   */\n      tag_430\n      jump\t// in\n    tag_438:\n        /* \"#utility.yul\":18280:18317   */\n      swap1\n      pop\n        /* \"#utility.yul\":18270:18323   */\n      swap2\n      swap1\n      pop\n      jump\t// out\n        /* \"#utility.yul\":18329:18515   */\n    tag_314:\n      0x00\n        /* \"#utility.yul\":18442:18509   */\n      tag_440\n        /* \"#utility.yul\":18503:18508   */\n      dup3\n        /* \"#utility.yul\":18442:18509   */\n      tag_441\n      jump\t// in\n    tag_440:\n        /* \"#utility.yul\":18429:18509   */\n      swap1\n      pop\n        /* \"#utility.yul\":18419:18515   */\n      swap2\n      swap1\n      pop\n      jump\t// out\n        /* \"#utility.yul\":18521:18664   */\n    tag_441:\n      0x00\n        /* \"#utility.yul\":18634:18658   */\n      tag_443\n        /* \"#utility.yul\":18652:18657   */\n      dup3\n        /* \"#utility.yul\":18634:18658   */\n      tag_430\n      jump\t// in\n    tag_443:\n        /* \"#utility.yul\":18621:18658   */\n      swap1\n      pop\n        /* \"#utility.yul\":18611:18664   */\n      swap2\n      swap1\n      pop\n      jump\t// out\n        /* \"#utility.yul\":18670:18836   */\n    tag_318:\n      0x00\n        /* \"#utility.yul\":18773:18830   */\n      tag_445\n        /* \"#utility.yul\":18824:18829   */\n      dup3\n        /* \"#utility.yul\":18773:18830   */\n      tag_446\n      jump\t// in\n    tag_445:\n        /* \"#utility.yul\":18760:18830   */\n      swap1\n      pop\n        /* \"#utility.yul\":18750:18836   */\n      swap2\n      swap1\n      pop\n      jump\t// out\n        /* \"#utility.yul\":18842:18975   */\n    tag_446:\n      0x00\n        /* \"#utility.yul\":18945:18969   */\n      tag_448\n        /* \"#utility.yul\":18963:18968   */\n      dup3\n        /* \"#utility.yul\":18945:18969   */\n      tag_430\n      jump\t// in\n    tag_448:\n        /* \"#utility.yul\":18932:18969   */\n      swap1\n      pop\n        /* \"#utility.yul\":18922:18975   */\n      swap2\n      swap1\n      pop\n      jump\t// out\n        /* \"#utility.yul\":18981:19135   */\n    tag_226:\n        /* \"#utility.yul\":19065:19071   */\n      dup3\n        /* \"#utility.yul\":19060:19063   */\n      dup2\n        /* \"#utility.yul\":19055:19058   */\n      dup4\n        /* \"#utility.yul\":19042:19072   */\n      calldatacopy\n        /* \"#utility.yul\":19127:19128   */\n      0x00\n        /* \"#utility.yul\":19118:19124   */\n      dup4\n        /* \"#utility.yul\":19113:19116   */\n      dup4\n        /* \"#utility.yul\":19109:19125   */\n      add\n        /* \"#utility.yul\":19102:19129   */\n      mstore\n        /* \"#utility.yul\":19032:19135   */\n      pop\n      pop\n      pop\n      jump\t// out\n        /* \"#utility.yul\":19141:19448   */\n    tag_325:\n        /* \"#utility.yul\":19209:19210   */\n      0x00\n        /* \"#utility.yul\":19219:19332   */\n    tag_451:\n        /* \"#utility.yul\":19233:19239   */\n      dup4\n        /* \"#utility.yul\":19230:19231   */\n      dup2\n        /* \"#utility.yul\":19227:19240   */\n      lt\n        /* \"#utility.yul\":19219:19332   */\n      iszero\n      tag_453\n      jumpi\n        /* \"#utility.yul\":19318:19319   */\n      dup1\n        /* \"#utility.yul\":19313:19316   */\n      dup3\n        /* \"#utility.yul\":19309:19320   */\n      add\n        /* \"#utility.yul\":19303:19321   */\n      mload\n        /* \"#utility.yul\":19299:19300   */\n      dup2\n        /* \"#utility.yul\":19294:19297   */\n      dup5\n        /* \"#utility.yul\":19290:19301   */\n      add\n        /* \"#utility.yul\":19283:19322   */\n      mstore\n        /* \"#utility.yul\":19255:19257   */\n      0x20\n        /* \"#utility.yul\":19252:19253   */\n      dup2\n        /* \"#utility.yul\":19248:19258   */\n      add\n        /* \"#utility.yul\":19243:19258   */\n      swap1\n      pop\n        /* \"#utility.yul\":19219:19332   */\n      jump(tag_451)\n    tag_453:\n        /* \"#utility.yul\":19350:19356   */\n      dup4\n        /* \"#utility.yul\":19347:19348   */\n      dup2\n        /* \"#utility.yul\":19344:19357   */\n      gt\n        /* \"#utility.yul\":19341:19343   */\n      iszero\n      tag_454\n      jumpi\n        /* \"#utility.yul\":19430:19431   */\n      0x00\n        /* \"#utility.yul\":19421:19427   */\n      dup5\n        /* \"#utility.yul\":19416:19419   */\n      dup5\n        /* \"#utility.yul\":19412:19428   */\n      add\n        /* \"#utility.yul\":19405:19432   */\n      mstore\n        /* \"#utility.yul\":19341:19343   */\n    tag_454:\n        /* \"#utility.yul\":19190:19448   */\n      pop\n      pop\n      pop\n      pop\n      jump\t// out\n        /* \"#utility.yul\":19454:19625   */\n    tag_131:\n      0x00\n        /* \"#utility.yul\":19516:19540   */\n      tag_456\n        /* \"#utility.yul\":19534:19539   */\n      dup3\n        /* \"#utility.yul\":19516:19540   */\n      tag_351\n      jump\t// in\n    tag_456:\n        /* \"#utility.yul\":19507:19540   */\n      swap2\n      pop\n        /* \"#utility.yul\":19562:19566   */\n      0x00\n        /* \"#utility.yul\":19555:19560   */\n      dup3\n        /* \"#utility.yul\":19552:19567   */\n      eq\n        /* \"#utility.yul\":19549:19551   */\n      iszero\n      tag_457\n      jumpi\n        /* \"#utility.yul\":19570:19588   */\n      tag_458\n      tag_422\n      jump\t// in\n    tag_458:\n        /* \"#utility.yul\":19549:19551   */\n    tag_457:\n        /* \"#utility.yul\":19617:19618   */\n      0x01\n        /* \"#utility.yul\":19610:19615   */\n      dup3\n        /* \"#utility.yul\":19606:19619   */\n      sub\n        /* \"#utility.yul\":19599:19619   */\n      swap1\n      pop\n        /* \"#utility.yul\":19497:19625   */\n      swap2\n      swap1\n      pop\n      jump\t// out\n        /* \"#utility.yul\":19631:19912   */\n    tag_387:\n        /* \"#utility.yul\":19714:19741   */\n      tag_460\n        /* \"#utility.yul\":19736:19740   */\n      dup3\n        /* \"#utility.yul\":19714:19741   */\n      tag_327\n      jump\t// in\n    tag_460:\n        /* \"#utility.yul\":19706:19712   */\n      dup2\n        /* \"#utility.yul\":19702:19742   */\n      add\n        /* \"#utility.yul\":19844:19850   */\n      dup2\n        /* \"#utility.yul\":19832:19842   */\n      dup2\n        /* \"#utility.yul\":19829:19851   */\n      lt\n        /* \"#utility.yul\":19808:19826   */\n      0xffffffffffffffff\n        /* \"#utility.yul\":19796:19806   */\n      dup3\n        /* \"#utility.yul\":19793:19827   */\n      gt\n        /* \"#utility.yul\":19790:19852   */\n      or\n        /* \"#utility.yul\":19787:19789   */\n      iszero\n      tag_461\n      jumpi\n        /* \"#utility.yul\":19855:19873   */\n      tag_462\n      tag_392\n      jump\t// in\n    tag_462:\n        /* \"#utility.yul\":19787:19789   */\n    tag_461:\n        /* \"#utility.yul\":19895:19905   */\n      dup1\n        /* \"#utility.yul\":19891:19893   */\n      0x40\n        /* \"#utility.yul\":19884:19906   */\n      mstore\n        /* \"#utility.yul\":19674:19912   */\n      pop\n      pop\n      pop\n      jump\t// out\n        /* \"#utility.yul\":19918:20098   */\n    tag_422:\n        /* \"#utility.yul\":19966:20043   */\n      0x4e487b7100000000000000000000000000000000000000000000000000000000\n        /* \"#utility.yul\":19963:19964   */\n      0x00\n        /* \"#utility.yul\":19956:20044   */\n      mstore\n        /* \"#utility.yul\":20063:20067   */\n      0x11\n        /* \"#utility.yul\":20060:20061   */\n      0x04\n        /* \"#utility.yul\":20053:20068   */\n      mstore\n        /* \"#utility.yul\":20087:20091   */\n      0x24\n        /* \"#utility.yul\":20084:20085   */\n      0x00\n        /* \"#utility.yul\":20077:20092   */\n      revert\n        /* \"#utility.yul\":20104:20284   */\n    tag_416:\n        /* \"#utility.yul\":20152:20229   */\n      0x4e487b7100000000000000000000000000000000000000000000000000000000\n        /* \"#utility.yul\":20149:20150   */\n      0x00\n        /* \"#utility.yul\":20142:20230   */\n      mstore\n        /* \"#utility.yul\":20249:20253   */\n      0x12\n        /* \"#utility.yul\":20246:20247   */\n      0x04\n        /* \"#utility.yul\":20239:20254   */\n      mstore\n        /* \"#utility.yul\":20273:20277   */\n      0x24\n        /* \"#utility.yul\":20270:20271   */\n      0x00\n        /* \"#utility.yul\":20263:20278   */\n      revert\n        /* \"#utility.yul\":20290:20470   */\n    tag_392:\n        /* \"#utility.yul\":20338:20415   */\n      0x4e487b7100000000000000000000000000000000000000000000000000000000\n        /* \"#utility.yul\":20335:20336   */\n      0x00\n        /* \"#utility.yul\":20328:20416   */\n      mstore\n        /* \"#utility.yul\":20435:20439   */\n      0x41\n        /* \"#utility.yul\":20432:20433   */\n      0x04\n        /* \"#utility.yul\":20425:20440   */\n      mstore\n        /* \"#utility.yul\":20459:20463   */\n      0x24\n        /* \"#utility.yul\":20456:20457   */\n      0x00\n        /* \"#utility.yul\":20449:20464   */\n      revert\n        /* \"#utility.yul\":20476:20578   */\n    tag_327:\n      0x00\n        /* \"#utility.yul\":20568:20570   */\n      0x1f\n        /* \"#utility.yul\":20564:20571   */\n      not\n        /* \"#utility.yul\":20559:20561   */\n      0x1f\n        /* \"#utility.yul\":20552:20557   */\n      dup4\n        /* \"#utility.yul\":20548:20562   */\n      add\n        /* \"#utility.yul\":20544:20572   */\n      and\n        /* \"#utility.yul\":20534:20572   */\n      swap1\n      pop\n        /* \"#utility.yul\":20524:20578   */\n      swap2\n      swap1\n      pop\n      jump\t// out\n        /* \"#utility.yul\":20584:20825   */\n    tag_333:\n        /* \"#utility.yul\":20724:20758   */\n      0x43616e6e6f74206d696e7420746f207472656173757279206164647265737320\n        /* \"#utility.yul\":20720:20721   */\n      0x00\n        /* \"#utility.yul\":20712:20718   */\n      dup3\n        /* \"#utility.yul\":20708:20722   */\n      add\n        /* \"#utility.yul\":20701:20759   */\n      mstore\n        /* \"#utility.yul\":20793:20817   */\n      0x756e74696c2073616c652069732066696e697368656400000000000000000000\n        /* \"#utility.yul\":20788:20790   */\n      0x20\n        /* \"#utility.yul\":20780:20786   */\n      dup3\n        /* \"#utility.yul\":20776:20791   */\n      add\n        /* \"#utility.yul\":20769:20818   */\n      mstore\n        /* \"#utility.yul\":20690:20825   */\n      pop\n      jump\t// out\n        /* \"#utility.yul\":20831:21056   */\n    tag_338:\n        /* \"#utility.yul\":20971:21005   */\n      0x4f776e61626c653a206e6577206f776e657220697320746865207a65726f2061\n        /* \"#utility.yul\":20967:20968   */\n      0x00\n        /* \"#utility.yul\":20959:20965   */\n      dup3\n        /* \"#utility.yul\":20955:20969   */\n      add\n        /* \"#utility.yul\":20948:21006   */\n      mstore\n        /* \"#utility.yul\":21040:21048   */\n      0x6464726573730000000000000000000000000000000000000000000000000000\n        /* \"#utility.yul\":21035:21037   */\n      0x20\n        /* \"#utility.yul\":21027:21033   */\n      dup3\n        /* \"#utility.yul\":21023:21038   */\n      add\n        /* \"#utility.yul\":21016:21049   */\n      mstore\n        /* \"#utility.yul\":20937:21056   */\n      pop\n      jump\t// out\n        /* \"#utility.yul\":21062:21243   */\n    tag_343:\n        /* \"#utility.yul\":21202:21235   */\n      0x737461727454696d65206973206c61746572207468616e20656e6454696d6500\n        /* \"#utility.yul\":21198:21199   */\n      0x00\n        /* \"#utility.yul\":21190:21196   */\n      dup3\n        /* \"#utility.yul\":21186:21200   */\n      add\n        /* \"#utility.yul\":21179:21236   */\n      mstore\n        /* \"#utility.yul\":21168:21243   */\n      pop\n      jump\t// out\n        /* \"#utility.yul\":21249:21431   */\n    tag_348:\n        /* \"#utility.yul\":21389:21423   */\n      0x4f776e61626c653a2063616c6c6572206973206e6f7420746865206f776e6572\n        /* \"#utility.yul\":21385:21386   */\n      0x00\n        /* \"#utility.yul\":21377:21383   */\n      dup3\n        /* \"#utility.yul\":21373:21387   */\n      add\n        /* \"#utility.yul\":21366:21424   */\n      mstore\n        /* \"#utility.yul\":21355:21431   */\n      pop\n      jump\t// out\n        /* \"#utility.yul\":21437:21559   */\n    tag_230:\n        /* \"#utility.yul\":21510:21534   */\n      tag_472\n        /* \"#utility.yul\":21528:21533   */\n      dup2\n        /* \"#utility.yul\":21510:21534   */\n      tag_274\n      jump\t// in\n    tag_472:\n        /* \"#utility.yul\":21503:21508   */\n      dup2\n        /* \"#utility.yul\":21500:21535   */\n      eq\n        /* \"#utility.yul\":21490:21492   */\n      tag_473\n      jumpi\n        /* \"#utility.yul\":21549:21550   */\n      0x00\n        /* \"#utility.yul\":21546:21547   */\n      dup1\n        /* \"#utility.yul\":21539:21551   */\n      revert\n        /* \"#utility.yul\":21490:21492   */\n    tag_473:\n        /* \"#utility.yul\":21480:21559   */\n      pop\n      jump\t// out\n        /* \"#utility.yul\":21565:21687   */\n    tag_244:\n        /* \"#utility.yul\":21638:21662   */\n      tag_475\n        /* \"#utility.yul\":21656:21661   */\n      dup2\n        /* \"#utility.yul\":21638:21662   */\n      tag_351\n      jump\t// in\n    tag_475:\n        /* \"#utility.yul\":21631:21636   */\n      dup2\n        /* \"#utility.yul\":21628:21663   */\n      eq\n        /* \"#utility.yul\":21618:21620   */\n      tag_476\n      jumpi\n        /* \"#utility.yul\":21677:21678   */\n      0x00\n        /* \"#utility.yul\":21674:21675   */\n      dup1\n        /* \"#utility.yul\":21667:21679   */\n      revert\n        /* \"#utility.yul\":21618:21620   */\n    tag_476:\n        /* \"#utility.yul\":21608:21687   */\n      pop\n      jump\t// out\n\n    auxdata: 0xa2646970667358221220b70bc29573f4b3be4964a400ebbfd63efc37fee67112be8dfe25ca6b9ecfa0f064736f6c63430008010033\n}\n",
				"bytecode": {
					"linkReferences": {},
					"object": "60806040526370dc49006005556370dc4964600655600a600755600160085560405180606001604052806127108152602001428152602001600015158152506009600082015181600001556020820151816001015560408201518160020160006101000a81548160ff021916908315150217905550505034801561008257600080fd5b5061009f6100946100a460201b60201c565b6100ac60201b60201c565b610170565b600033905090565b60008060009054906101000a900473ffffffffffffffffffffffffffffffffffffffff169050816000806101000a81548173ffffffffffffffffffffffffffffffffffffffff021916908373ffffffffffffffffffffffffffffffffffffffff1602179055508173ffffffffffffffffffffffffffffffffffffffff168173ffffffffffffffffffffffffffffffffffffffff167f8be0079c531659141344cd1fd0a4f28419497f9722a3daafe3b4186f6b6457e060405160405180910390a35050565b6119188061017f6000396000f3fe608060405234801561001057600080fd5b506004361061010b5760003560e01c806391232f18116100a2578063c046371111610071578063c046371114610248578063c5dae48f14610268578063c5f956af14610286578063f121da92146102a4578063f2fde38b146102c05761010b565b806391232f18146101fc578063944044a114610206578063b79d283f14610222578063bff29cee1461023e5761010b565b8063715018a6116100de578063715018a6146101865780637a6a23fd146101905780638c83faeb146101c05780638da5cb5b146101de5761010b565b80634c0f38c21461011057806351f7598c1461012e5780635ce7e7211461014a57806368fc01a214610168575b600080fd5b6101186102dc565b6040516101259190611377565b60405180910390f35b61014860048036038101906101439190610f17565b610383565b005b610152610443565b60405161015f91906112c1565b60405180910390f35b610170610469565b60405161017d9190611377565b60405180910390f35b61018e610510565b005b6101aa60048036038101906101a59190610f17565b610598565b6040516101b79190611377565b60405180910390f35b6101c86105ad565b6040516101d591906112a6565b60405180910390f35b6101e66105d3565b6040516101f3919061122b565b60405180910390f35b6102046105fc565b005b610220600480360381019061021b9190610fac565b6106d9565b005b61023c60048036038101906102379190610fac565b61075f565b005b6102466107e5565b005b610250610895565b60405161025f93929190611392565b60405180910390f35b6102706108ba565b60405161027d91906112dc565b60405180910390f35b61028e6108e0565b60405161029b919061122b565b60405180910390f35b6102be60048036038101906102b99190610f40565b610906565b005b6102da60048036038101906102d59190610f17565b610a15565b005b6000600160009054906101000a900473ffffffffffffffffffffffffffffffffffffffff1673ffffffffffffffffffffffffffffffffffffffff16634c0f38c26040518163ffffffff1660e01b815260040160206040518083038186803b15801561034657600080fd5b505afa15801561035a573d6000803e3d6000fd5b505050506040513d601f19601f8201168201806040525081019061037e9190610fd5565b905090565b61038b610b0d565b73ffffffffffffffffffffffffffffffffffffffff166103a96105d3565b73ffffffffffffffffffffffffffffffffffffffff16146103ff576040517f08c379a00000000000000000000000000000000000000000000000000000000081526004016103f690611357565b60405180910390fd5b80600160006101000a81548173ffffffffffffffffffffffffffffffffffffffff021916908373ffffffffffffffffffffffffffffffffffffffff16021790555050565b600260009054906101000a900473ffffffffffffffffffffffffffffffffffffffff1681565b6000600160009054906101000a900473ffffffffffffffffffffffffffffffffffffffff1673ffffffffffffffffffffffffffffffffffffffff166368fc01a26040518163ffffffff1660e01b815260040160206040518083038186803b1580156104d357600080fd5b505afa1580156104e7573d6000803e3d6000fd5b505050506040513d601f19601f8201168201806040525081019061050b9190610fd5565b905090565b610518610b0d565b73ffffffffffffffffffffffffffffffffffffffff166105366105d3565b73ffffffffffffffffffffffffffffffffffffffff161461058c576040517f08c379a000000000000000000000000000000000000000000000000000000000815260040161058390611357565b60405180910390fd5b6105966000610b15565b565b60006105a2610bd9565b600080915050919050565b600160009054906101000a900473ffffffffffffffffffffffffffffffffffffffff1681565b60008060009054906101000a900473ffffffffffffffffffffffffffffffffffffffff16905090565b610604610bd9565b600654421180156106255750600960020160009054906101000a900460ff16155b610664576040517f08c379a000000000000000000000000000000000000000000000000000000000815260040161065b906112f7565b60405180910390fd5b60006001610670610469565b61067a91906115a1565b6106826102dc565b61068c91906115a1565b90505b60008111156106d6576106c3600460009054906101000a900473ffffffffffffffffffffffffffffffffffffffff16610cc3565b80806106ce906116cb565b91505061068f565b50565b6106e1610b0d565b73ffffffffffffffffffffffffffffffffffffffff166106ff6105d3565b73ffffffffffffffffffffffffffffffffffffffff1614610755576040517f08c379a000000000000000000000000000000000000000000000000000000000815260040161074c90611357565b60405180910390fd5b8060058190555050565b610767610b0d565b73ffffffffffffffffffffffffffffffffffffffff166107856105d3565b73ffffffffffffffffffffffffffffffffffffffff16146107db576040517f08c379a00000000000000000000000000000000000000000000000000000000081526004016107d290611357565b60405180910390fd5b8060068190555050565b6107ed610bd9565b60006107f833610598565b9050600360009054906101000a900473ffffffffffffffffffffffffffffffffffffffff1673ffffffffffffffffffffffffffffffffffffffff1663532b291333836040518363ffffffff1660e01b8152600401610857929190611246565b600060405180830381600087803b15801561087157600080fd5b505af1158015610885573d6000803e3d6000fd5b5050505061089233610cc3565b50565b60098060000154908060010154908060020160009054906101000a900460ff16905083565b600360009054906101000a900473ffffffffffffffffffffffffffffffffffffffff1681565b600460009054906101000a900473ffffffffffffffffffffffffffffffffffffffff1681565b61090e610b0d565b73ffffffffffffffffffffffffffffffffffffffff1661092c6105d3565b73ffffffffffffffffffffffffffffffffffffffff1614610982576040517f08c379a000000000000000000000000000000000000000000000000000000000815260040161097990611357565b60405180910390fd5b600160009054906101000a900473ffffffffffffffffffffffffffffffffffffffff1673ffffffffffffffffffffffffffffffffffffffff1663f121da9283836040518363ffffffff1660e01b81526004016109df92919061126f565b600060405180830381600087803b1580156109f957600080fd5b505af1158015610a0d573d6000803e3d6000fd5b505050505050565b610a1d610b0d565b73ffffffffffffffffffffffffffffffffffffffff16610a3b6105d3565b73ffffffffffffffffffffffffffffffffffffffff1614610a91576040517f08c379a0000000000000000000000000000000000000000000000000000000008152600401610a8890611357565b60405180910390fd5b600073ffffffffffffffffffffffffffffffffffffffff168173ffffffffffffffffffffffffffffffffffffffff161415610b01576040517f08c379a0000000000000000000000000000000000000000000000000000000008152600401610af890611317565b60405180910390fd5b610b0a81610b15565b50565b600033905090565b60008060009054906101000a900473ffffffffffffffffffffffffffffffffffffffff169050816000806101000a81548173ffffffffffffffffffffffffffffffffffffffff021916908373ffffffffffffffffffffffffffffffffffffffff1602179055508173ffffffffffffffffffffffffffffffffffffffff168173ffffffffffffffffffffffffffffffffffffffff167f8be0079c531659141344cd1fd0a4f28419497f9722a3daafe3b4186f6b6457e060405160405180910390a35050565b6006546005541115610c20576040517f08c379a0000000000000000000000000000000000000000000000000000000008152600401610c1790611337565b60405180910390fd5b6001603c60055442610c3291906115a1565b610c3c9190611516565b610c469190611547565b600754610c5391906115a1565b600960000181905550426009600101819055506005544210158015610c7a57506006544211155b15610ca2576001600960020160006101000a81548160ff021916908315150217905550610cc1565b6000600960020160006101000a81548160ff0219169083151502179055505b565b600160009054906101000a900473ffffffffffffffffffffffffffffffffffffffff1673ffffffffffffffffffffffffffffffffffffffff166355676590826040518263ffffffff1660e01b8152600401610d1e919061122b565b600060405180830381600087803b158015610d3857600080fd5b505af1158015610d4c573d6000803e3d6000fd5b5050505050565b6000610d66610d61846113ee565b6113c9565b9050808382526020820190508260005b85811015610da65781358501610d8c8882610ec3565b845260208401935060208301925050600181019050610d76565b5050509392505050565b6000610dc3610dbe8461141a565b6113c9565b90508083825260208201905082856020860282011115610de257600080fd5b60005b85811015610e125781610df88882610eed565b845260208401935060208301925050600181019050610de5565b5050509392505050565b6000610e2f610e2a84611446565b6113c9565b905082815260208101848484011115610e4757600080fd5b610e52848285611689565b509392505050565b600081359050610e69816118b4565b92915050565b600082601f830112610e8057600080fd5b8135610e90848260208601610d53565b91505092915050565b600082601f830112610eaa57600080fd5b8135610eba848260208601610db0565b91505092915050565b600082601f830112610ed457600080fd5b8135610ee4848260208601610e1c565b91505092915050565b600081359050610efc816118cb565b92915050565b600081519050610f11816118cb565b92915050565b600060208284031215610f2957600080fd5b6000610f3784828501610e5a565b91505092915050565b60008060408385031215610f5357600080fd5b600083013567ffffffffffffffff811115610f6d57600080fd5b610f7985828601610e99565b925050602083013567ffffffffffffffff811115610f9657600080fd5b610fa285828601610e6f565b9150509250929050565b600060208284031215610fbe57600080fd5b6000610fcc84828501610eed565b91505092915050565b600060208284031215610fe757600080fd5b6000610ff584828501610f02565b91505092915050565b600061100a8383611148565b905092915050565b600061101e838361120d565b60208301905092915050565b611033816115d5565b82525050565b600061104482611497565b61104e81856114d2565b93508360208202850161106085611477565b8060005b8581101561109c578484038952815161107d8582610ffe565b9450611088836114b8565b925060208a01995050600181019050611064565b50829750879550505050505092915050565b60006110b9826114a2565b6110c381856114e3565b93506110ce83611487565b8060005b838110156110ff5781516110e68882611012565b97506110f1836114c5565b9250506001810190506110d2565b5085935050505092915050565b611115816115e7565b82525050565b6111248161161d565b82525050565b61113381611641565b82525050565b61114281611665565b82525050565b6000611153826114ad565b61115d81856114f4565b935061116d818560208601611698565b611176816117b3565b840191505092915050565b600061118e603683611505565b9150611199826117c4565b604082019050919050565b60006111b1602683611505565b91506111bc82611813565b604082019050919050565b60006111d4601f83611505565b91506111df82611862565b602082019050919050565b60006111f7602083611505565b91506112028261188b565b602082019050919050565b61121681611613565b82525050565b61122581611613565b82525050565b6000602082019050611240600083018461102a565b92915050565b600060408201905061125b600083018561102a565b611268602083018461121c565b9392505050565b6000604082019050818103600083015261128981856110ae565b9050818103602083015261129d8184611039565b90509392505050565b60006020820190506112bb600083018461111b565b92915050565b60006020820190506112d6600083018461112a565b92915050565b60006020820190506112f16000830184611139565b92915050565b6000602082019050818103600083015261131081611181565b9050919050565b60006020820190508181036000830152611330816111a4565b9050919050565b60006020820190508181036000830152611350816111c7565b9050919050565b60006020820190508181036000830152611370816111ea565b9050919050565b600060208201905061138c600083018461121c565b92915050565b60006060820190506113a7600083018661121c565b6113b4602083018561121c565b6113c1604083018461110c565b949350505050565b60006113d36113e4565b90506113df82826116f5565b919050565b6000604051905090565b600067ffffffffffffffff82111561140957611408611784565b5b602082029050602081019050919050565b600067ffffffffffffffff82111561143557611434611784565b5b602082029050602081019050919050565b600067ffffffffffffffff82111561146157611460611784565b5b61146a826117b3565b9050602081019050919050565b6000819050602082019050919050565b6000819050602082019050919050565b600081519050919050565b600081519050919050565b600081519050919050565b6000602082019050919050565b6000602082019050919050565b600082825260208201905092915050565b600082825260208201905092915050565b600082825260208201905092915050565b600082825260208201905092915050565b600061152182611613565b915061152c83611613565b92508261153c5761153b611755565b5b828204905092915050565b600061155282611613565b915061155d83611613565b9250817fffffffffffffffffffffffffffffffffffffffffffffffffffffffffffffffff048311821515161561159657611595611726565b5b828202905092915050565b60006115ac82611613565b91506115b783611613565b9250828210156115ca576115c9611726565b5b828203905092915050565b60006115e0826115f3565b9050919050565b60008115159050919050565b600073ffffffffffffffffffffffffffffffffffffffff82169050919050565b6000819050919050565b60006116288261162f565b9050919050565b600061163a826115f3565b9050919050565b600061164c82611653565b9050919050565b600061165e826115f3565b9050919050565b600061167082611677565b9050919050565b6000611682826115f3565b9050919050565b82818337600083830152505050565b60005b838110156116b657808201518184015260208101905061169b565b838111156116c5576000848401525b50505050565b60006116d682611613565b915060008214156116ea576116e9611726565b5b600182039050919050565b6116fe826117b3565b810181811067ffffffffffffffff8211171561171d5761171c611784565b5b80604052505050565b7f4e487b7100000000000000000000000000000000000000000000000000000000600052601160045260246000fd5b7f4e487b7100000000000000000000000000000000000000000000000000000000600052601260045260246000fd5b7f4e487b7100000000000000000000000000000000000000000000000000000000600052604160045260246000fd5b6000601f19601f8301169050919050565b7f43616e6e6f74206d696e7420746f20747265617375727920616464726573732060008201527f756e74696c2073616c652069732066696e697368656400000000000000000000602082015250565b7f4f776e61626c653a206e6577206f776e657220697320746865207a65726f206160008201527f6464726573730000000000000000000000000000000000000000000000000000602082015250565b7f737461727454696d65206973206c61746572207468616e20656e6454696d6500600082015250565b7f4f776e61626c653a2063616c6c6572206973206e6f7420746865206f776e6572600082015250565b6118bd816115d5565b81146118c857600080fd5b50565b6118d481611613565b81146118df57600080fd5b5056fea2646970667358221220b70bc29573f4b3be4964a400ebbfd63efc37fee67112be8dfe25ca6b9ecfa0f064736f6c63430008010033",
					"opcodes": "PUSH1 0x80 PUSH1 0x40 MSTORE PUSH4 0x70DC4900 PUSH1 0x5 SSTORE PUSH4 0x70DC4964 PUSH1 0x6 SSTORE PUSH1 0xA PUSH1 0x7 SSTORE PUSH1 0x1 PUSH1 0x8 SSTORE PUSH1 0x40 MLOAD DUP1 PUSH1 0x60 ADD PUSH1 0x40 MSTORE DUP1 PUSH2 0x2710 DUP2 MSTORE PUSH1 0x20 ADD TIMESTAMP DUP2 MSTORE PUSH1 0x20 ADD PUSH1 0x0 ISZERO ISZERO DUP2 MSTORE POP PUSH1 0x9 PUSH1 0x0 DUP3 ADD MLOAD DUP2 PUSH1 0x0 ADD SSTORE PUSH1 0x20 DUP3 ADD MLOAD DUP2 PUSH1 0x1 ADD SSTORE PUSH1 0x40 DUP3 ADD MLOAD DUP2 PUSH1 0x2 ADD PUSH1 0x0 PUSH2 0x100 EXP DUP2 SLOAD DUP2 PUSH1 0xFF MUL NOT AND SWAP1 DUP4 ISZERO ISZERO MUL OR SWAP1 SSTORE POP POP POP CALLVALUE DUP1 ISZERO PUSH2 0x82 JUMPI PUSH1 0x0 DUP1 REVERT JUMPDEST POP PUSH2 0x9F PUSH2 0x94 PUSH2 0xA4 PUSH1 0x20 SHL PUSH1 0x20 SHR JUMP JUMPDEST PUSH2 0xAC PUSH1 0x20 SHL PUSH1 0x20 SHR JUMP JUMPDEST PUSH2 0x170 JUMP JUMPDEST PUSH1 0x0 CALLER SWAP1 POP SWAP1 JUMP JUMPDEST PUSH1 0x0 DUP1 PUSH1 0x0 SWAP1 SLOAD SWAP1 PUSH2 0x100 EXP SWAP1 DIV PUSH20 0xFFFFFFFFFFFFFFFFFFFFFFFFFFFFFFFFFFFFFFFF AND SWAP1 POP DUP2 PUSH1 0x0 DUP1 PUSH2 0x100 EXP DUP2 SLOAD DUP2 PUSH20 0xFFFFFFFFFFFFFFFFFFFFFFFFFFFFFFFFFFFFFFFF MUL NOT AND SWAP1 DUP4 PUSH20 0xFFFFFFFFFFFFFFFFFFFFFFFFFFFFFFFFFFFFFFFF AND MUL OR SWAP1 SSTORE POP DUP2 PUSH20 0xFFFFFFFFFFFFFFFFFFFFFFFFFFFFFFFFFFFFFFFF AND DUP2 PUSH20 0xFFFFFFFFFFFFFFFFFFFFFFFFFFFFFFFFFFFFFFFF AND PUSH32 0x8BE0079C531659141344CD1FD0A4F28419497F9722A3DAAFE3B4186F6B6457E0 PUSH1 0x40 MLOAD PUSH1 0x40 MLOAD DUP1 SWAP2 SUB SWAP1 LOG3 POP POP JUMP JUMPDEST PUSH2 0x1918 DUP1 PUSH2 0x17F PUSH1 0x0 CODECOPY PUSH1 0x0 RETURN INVALID PUSH1 0x80 PUSH1 0x40 MSTORE CALLVALUE DUP1 ISZERO PUSH2 0x10 JUMPI PUSH1 0x0 DUP1 REVERT JUMPDEST POP PUSH1 0x4 CALLDATASIZE LT PUSH2 0x10B JUMPI PUSH1 0x0 CALLDATALOAD PUSH1 0xE0 SHR DUP1 PUSH4 0x91232F18 GT PUSH2 0xA2 JUMPI DUP1 PUSH4 0xC0463711 GT PUSH2 0x71 JUMPI DUP1 PUSH4 0xC0463711 EQ PUSH2 0x248 JUMPI DUP1 PUSH4 0xC5DAE48F EQ PUSH2 0x268 JUMPI DUP1 PUSH4 0xC5F956AF EQ PUSH2 0x286 JUMPI DUP1 PUSH4 0xF121DA92 EQ PUSH2 0x2A4 JUMPI DUP1 PUSH4 0xF2FDE38B EQ PUSH2 0x2C0 JUMPI PUSH2 0x10B JUMP JUMPDEST DUP1 PUSH4 0x91232F18 EQ PUSH2 0x1FC JUMPI DUP1 PUSH4 0x944044A1 EQ PUSH2 0x206 JUMPI DUP1 PUSH4 0xB79D283F EQ PUSH2 0x222 JUMPI DUP1 PUSH4 0xBFF29CEE EQ PUSH2 0x23E JUMPI PUSH2 0x10B JUMP JUMPDEST DUP1 PUSH4 0x715018A6 GT PUSH2 0xDE JUMPI DUP1 PUSH4 0x715018A6 EQ PUSH2 0x186 JUMPI DUP1 PUSH4 0x7A6A23FD EQ PUSH2 0x190 JUMPI DUP1 PUSH4 0x8C83FAEB EQ PUSH2 0x1C0 JUMPI DUP1 PUSH4 0x8DA5CB5B EQ PUSH2 0x1DE JUMPI PUSH2 0x10B JUMP JUMPDEST DUP1 PUSH4 0x4C0F38C2 EQ PUSH2 0x110 JUMPI DUP1 PUSH4 0x51F7598C EQ PUSH2 0x12E JUMPI DUP1 PUSH4 0x5CE7E721 EQ PUSH2 0x14A JUMPI DUP1 PUSH4 0x68FC01A2 EQ PUSH2 0x168 JUMPI JUMPDEST PUSH1 0x0 DUP1 REVERT JUMPDEST PUSH2 0x118 PUSH2 0x2DC JUMP JUMPDEST PUSH1 0x40 MLOAD PUSH2 0x125 SWAP2 SWAP1 PUSH2 0x1377 JUMP JUMPDEST PUSH1 0x40 MLOAD DUP1 SWAP2 SUB SWAP1 RETURN JUMPDEST PUSH2 0x148 PUSH1 0x4 DUP1 CALLDATASIZE SUB DUP2 ADD SWAP1 PUSH2 0x143 SWAP2 SWAP1 PUSH2 0xF17 JUMP JUMPDEST PUSH2 0x383 JUMP JUMPDEST STOP JUMPDEST PUSH2 0x152 PUSH2 0x443 JUMP JUMPDEST PUSH1 0x40 MLOAD PUSH2 0x15F SWAP2 SWAP1 PUSH2 0x12C1 JUMP JUMPDEST PUSH1 0x40 MLOAD DUP1 SWAP2 SUB SWAP1 RETURN JUMPDEST PUSH2 0x170 PUSH2 0x469 JUMP JUMPDEST PUSH1 0x40 MLOAD PUSH2 0x17D SWAP2 SWAP1 PUSH2 0x1377 JUMP JUMPDEST PUSH1 0x40 MLOAD DUP1 SWAP2 SUB SWAP1 RETURN JUMPDEST PUSH2 0x18E PUSH2 0x510 JUMP JUMPDEST STOP JUMPDEST PUSH2 0x1AA PUSH1 0x4 DUP1 CALLDATASIZE SUB DUP2 ADD SWAP1 PUSH2 0x1A5 SWAP2 SWAP1 PUSH2 0xF17 JUMP JUMPDEST PUSH2 0x598 JUMP JUMPDEST PUSH1 0x40 MLOAD PUSH2 0x1B7 SWAP2 SWAP1 PUSH2 0x1377 JUMP JUMPDEST PUSH1 0x40 MLOAD DUP1 SWAP2 SUB SWAP1 RETURN JUMPDEST PUSH2 0x1C8 PUSH2 0x5AD JUMP JUMPDEST PUSH1 0x40 MLOAD PUSH2 0x1D5 SWAP2 SWAP1 PUSH2 0x12A6 JUMP JUMPDEST PUSH1 0x40 MLOAD DUP1 SWAP2 SUB SWAP1 RETURN JUMPDEST PUSH2 0x1E6 PUSH2 0x5D3 JUMP JUMPDEST PUSH1 0x40 MLOAD PUSH2 0x1F3 SWAP2 SWAP1 PUSH2 0x122B JUMP JUMPDEST PUSH1 0x40 MLOAD DUP1 SWAP2 SUB SWAP1 RETURN JUMPDEST PUSH2 0x204 PUSH2 0x5FC JUMP JUMPDEST STOP JUMPDEST PUSH2 0x220 PUSH1 0x4 DUP1 CALLDATASIZE SUB DUP2 ADD SWAP1 PUSH2 0x21B SWAP2 SWAP1 PUSH2 0xFAC JUMP JUMPDEST PUSH2 0x6D9 JUMP JUMPDEST STOP JUMPDEST PUSH2 0x23C PUSH1 0x4 DUP1 CALLDATASIZE SUB DUP2 ADD SWAP1 PUSH2 0x237 SWAP2 SWAP1 PUSH2 0xFAC JUMP JUMPDEST PUSH2 0x75F JUMP JUMPDEST STOP JUMPDEST PUSH2 0x246 PUSH2 0x7E5 JUMP JUMPDEST STOP JUMPDEST PUSH2 0x250 PUSH2 0x895 JUMP JUMPDEST PUSH1 0x40 MLOAD PUSH2 0x25F SWAP4 SWAP3 SWAP2 SWAP1 PUSH2 0x1392 JUMP JUMPDEST PUSH1 0x40 MLOAD DUP1 SWAP2 SUB SWAP1 RETURN JUMPDEST PUSH2 0x270 PUSH2 0x8BA JUMP JUMPDEST PUSH1 0x40 MLOAD PUSH2 0x27D SWAP2 SWAP1 PUSH2 0x12DC JUMP JUMPDEST PUSH1 0x40 MLOAD DUP1 SWAP2 SUB SWAP1 RETURN JUMPDEST PUSH2 0x28E PUSH2 0x8E0 JUMP JUMPDEST PUSH1 0x40 MLOAD PUSH2 0x29B SWAP2 SWAP1 PUSH2 0x122B JUMP JUMPDEST PUSH1 0x40 MLOAD DUP1 SWAP2 SUB SWAP1 RETURN JUMPDEST PUSH2 0x2BE PUSH1 0x4 DUP1 CALLDATASIZE SUB DUP2 ADD SWAP1 PUSH2 0x2B9 SWAP2 SWAP1 PUSH2 0xF40 JUMP JUMPDEST PUSH2 0x906 JUMP JUMPDEST STOP JUMPDEST PUSH2 0x2DA PUSH1 0x4 DUP1 CALLDATASIZE SUB DUP2 ADD SWAP1 PUSH2 0x2D5 SWAP2 SWAP1 PUSH2 0xF17 JUMP JUMPDEST PUSH2 0xA15 JUMP JUMPDEST STOP JUMPDEST PUSH1 0x0 PUSH1 0x1 PUSH1 0x0 SWAP1 SLOAD SWAP1 PUSH2 0x100 EXP SWAP1 DIV PUSH20 0xFFFFFFFFFFFFFFFFFFFFFFFFFFFFFFFFFFFFFFFF AND PUSH20 0xFFFFFFFFFFFFFFFFFFFFFFFFFFFFFFFFFFFFFFFF AND PUSH4 0x4C0F38C2 PUSH1 0x40 MLOAD DUP2 PUSH4 0xFFFFFFFF AND PUSH1 0xE0 SHL DUP2 MSTORE PUSH1 0x4 ADD PUSH1 0x20 PUSH1 0x40 MLOAD DUP1 DUP4 SUB DUP2 DUP7 DUP1 EXTCODESIZE ISZERO DUP1 ISZERO PUSH2 0x346 JUMPI PUSH1 0x0 DUP1 REVERT JUMPDEST POP GAS STATICCALL ISZERO DUP1 ISZERO PUSH2 0x35A JUMPI RETURNDATASIZE PUSH1 0x0 DUP1 RETURNDATACOPY RETURNDATASIZE PUSH1 0x0 REVERT JUMPDEST POP POP POP POP PUSH1 0x40 MLOAD RETURNDATASIZE PUSH1 0x1F NOT PUSH1 0x1F DUP3 ADD AND DUP3 ADD DUP1 PUSH1 0x40 MSTORE POP DUP2 ADD SWAP1 PUSH2 0x37E SWAP2 SWAP1 PUSH2 0xFD5 JUMP JUMPDEST SWAP1 POP SWAP1 JUMP JUMPDEST PUSH2 0x38B PUSH2 0xB0D JUMP JUMPDEST PUSH20 0xFFFFFFFFFFFFFFFFFFFFFFFFFFFFFFFFFFFFFFFF AND PUSH2 0x3A9 PUSH2 0x5D3 JUMP JUMPDEST PUSH20 0xFFFFFFFFFFFFFFFFFFFFFFFFFFFFFFFFFFFFFFFF AND EQ PUSH2 0x3FF JUMPI PUSH1 0x40 MLOAD PUSH32 0x8C379A000000000000000000000000000000000000000000000000000000000 DUP2 MSTORE PUSH1 0x4 ADD PUSH2 0x3F6 SWAP1 PUSH2 0x1357 JUMP JUMPDEST PUSH1 0x40 MLOAD DUP1 SWAP2 SUB SWAP1 REVERT JUMPDEST DUP1 PUSH1 0x1 PUSH1 0x0 PUSH2 0x100 EXP DUP2 SLOAD DUP2 PUSH20 0xFFFFFFFFFFFFFFFFFFFFFFFFFFFFFFFFFFFFFFFF MUL NOT AND SWAP1 DUP4 PUSH20 0xFFFFFFFFFFFFFFFFFFFFFFFFFFFFFFFFFFFFFFFF AND MUL OR SWAP1 SSTORE POP POP JUMP JUMPDEST PUSH1 0x2 PUSH1 0x0 SWAP1 SLOAD SWAP1 PUSH2 0x100 EXP SWAP1 DIV PUSH20 0xFFFFFFFFFFFFFFFFFFFFFFFFFFFFFFFFFFFFFFFF AND DUP2 JUMP JUMPDEST PUSH1 0x0 PUSH1 0x1 PUSH1 0x0 SWAP1 SLOAD SWAP1 PUSH2 0x100 EXP SWAP1 DIV PUSH20 0xFFFFFFFFFFFFFFFFFFFFFFFFFFFFFFFFFFFFFFFF AND PUSH20 0xFFFFFFFFFFFFFFFFFFFFFFFFFFFFFFFFFFFFFFFF AND PUSH4 0x68FC01A2 PUSH1 0x40 MLOAD DUP2 PUSH4 0xFFFFFFFF AND PUSH1 0xE0 SHL DUP2 MSTORE PUSH1 0x4 ADD PUSH1 0x20 PUSH1 0x40 MLOAD DUP1 DUP4 SUB DUP2 DUP7 DUP1 EXTCODESIZE ISZERO DUP1 ISZERO PUSH2 0x4D3 JUMPI PUSH1 0x0 DUP1 REVERT JUMPDEST POP GAS STATICCALL ISZERO DUP1 ISZERO PUSH2 0x4E7 JUMPI RETURNDATASIZE PUSH1 0x0 DUP1 RETURNDATACOPY RETURNDATASIZE PUSH1 0x0 REVERT JUMPDEST POP POP POP POP PUSH1 0x40 MLOAD RETURNDATASIZE PUSH1 0x1F NOT PUSH1 0x1F DUP3 ADD AND DUP3 ADD DUP1 PUSH1 0x40 MSTORE POP DUP2 ADD SWAP1 PUSH2 0x50B SWAP2 SWAP1 PUSH2 0xFD5 JUMP JUMPDEST SWAP1 POP SWAP1 JUMP JUMPDEST PUSH2 0x518 PUSH2 0xB0D JUMP JUMPDEST PUSH20 0xFFFFFFFFFFFFFFFFFFFFFFFFFFFFFFFFFFFFFFFF AND PUSH2 0x536 PUSH2 0x5D3 JUMP JUMPDEST PUSH20 0xFFFFFFFFFFFFFFFFFFFFFFFFFFFFFFFFFFFFFFFF AND EQ PUSH2 0x58C JUMPI PUSH1 0x40 MLOAD PUSH32 0x8C379A000000000000000000000000000000000000000000000000000000000 DUP2 MSTORE PUSH1 0x4 ADD PUSH2 0x583 SWAP1 PUSH2 0x1357 JUMP JUMPDEST PUSH1 0x40 MLOAD DUP1 SWAP2 SUB SWAP1 REVERT JUMPDEST PUSH2 0x596 PUSH1 0x0 PUSH2 0xB15 JUMP JUMPDEST JUMP JUMPDEST PUSH1 0x0 PUSH2 0x5A2 PUSH2 0xBD9 JUMP JUMPDEST PUSH1 0x0 DUP1 SWAP2 POP POP SWAP2 SWAP1 POP JUMP JUMPDEST PUSH1 0x1 PUSH1 0x0 SWAP1 SLOAD SWAP1 PUSH2 0x100 EXP SWAP1 DIV PUSH20 0xFFFFFFFFFFFFFFFFFFFFFFFFFFFFFFFFFFFFFFFF AND DUP2 JUMP JUMPDEST PUSH1 0x0 DUP1 PUSH1 0x0 SWAP1 SLOAD SWAP1 PUSH2 0x100 EXP SWAP1 DIV PUSH20 0xFFFFFFFFFFFFFFFFFFFFFFFFFFFFFFFFFFFFFFFF AND SWAP1 POP SWAP1 JUMP JUMPDEST PUSH2 0x604 PUSH2 0xBD9 JUMP JUMPDEST PUSH1 0x6 SLOAD TIMESTAMP GT DUP1 ISZERO PUSH2 0x625 JUMPI POP PUSH1 0x9 PUSH1 0x2 ADD PUSH1 0x0 SWAP1 SLOAD SWAP1 PUSH2 0x100 EXP SWAP1 DIV PUSH1 0xFF AND ISZERO JUMPDEST PUSH2 0x664 JUMPI PUSH1 0x40 MLOAD PUSH32 0x8C379A000000000000000000000000000000000000000000000000000000000 DUP2 MSTORE PUSH1 0x4 ADD PUSH2 0x65B SWAP1 PUSH2 0x12F7 JUMP JUMPDEST PUSH1 0x40 MLOAD DUP1 SWAP2 SUB SWAP1 REVERT JUMPDEST PUSH1 0x0 PUSH1 0x1 PUSH2 0x670 PUSH2 0x469 JUMP JUMPDEST PUSH2 0x67A SWAP2 SWAP1 PUSH2 0x15A1 JUMP JUMPDEST PUSH2 0x682 PUSH2 0x2DC JUMP JUMPDEST PUSH2 0x68C SWAP2 SWAP1 PUSH2 0x15A1 JUMP JUMPDEST SWAP1 POP JUMPDEST PUSH1 0x0 DUP2 GT ISZERO PUSH2 0x6D6 JUMPI PUSH2 0x6C3 PUSH1 0x4 PUSH1 0x0 SWAP1 SLOAD SWAP1 PUSH2 0x100 EXP SWAP1 DIV PUSH20 0xFFFFFFFFFFFFFFFFFFFFFFFFFFFFFFFFFFFFFFFF AND PUSH2 0xCC3 JUMP JUMPDEST DUP1 DUP1 PUSH2 0x6CE SWAP1 PUSH2 0x16CB JUMP JUMPDEST SWAP2 POP POP PUSH2 0x68F JUMP JUMPDEST POP JUMP JUMPDEST PUSH2 0x6E1 PUSH2 0xB0D JUMP JUMPDEST PUSH20 0xFFFFFFFFFFFFFFFFFFFFFFFFFFFFFFFFFFFFFFFF AND PUSH2 0x6FF PUSH2 0x5D3 JUMP JUMPDEST PUSH20 0xFFFFFFFFFFFFFFFFFFFFFFFFFFFFFFFFFFFFFFFF AND EQ PUSH2 0x755 JUMPI PUSH1 0x40 MLOAD PUSH32 0x8C379A000000000000000000000000000000000000000000000000000000000 DUP2 MSTORE PUSH1 0x4 ADD PUSH2 0x74C SWAP1 PUSH2 0x1357 JUMP JUMPDEST PUSH1 0x40 MLOAD DUP1 SWAP2 SUB SWAP1 REVERT JUMPDEST DUP1 PUSH1 0x5 DUP2 SWAP1 SSTORE POP POP JUMP JUMPDEST PUSH2 0x767 PUSH2 0xB0D JUMP JUMPDEST PUSH20 0xFFFFFFFFFFFFFFFFFFFFFFFFFFFFFFFFFFFFFFFF AND PUSH2 0x785 PUSH2 0x5D3 JUMP JUMPDEST PUSH20 0xFFFFFFFFFFFFFFFFFFFFFFFFFFFFFFFFFFFFFFFF AND EQ PUSH2 0x7DB JUMPI PUSH1 0x40 MLOAD PUSH32 0x8C379A000000000000000000000000000000000000000000000000000000000 DUP2 MSTORE PUSH1 0x4 ADD PUSH2 0x7D2 SWAP1 PUSH2 0x1357 JUMP JUMPDEST PUSH1 0x40 MLOAD DUP1 SWAP2 SUB SWAP1 REVERT JUMPDEST DUP1 PUSH1 0x6 DUP2 SWAP1 SSTORE POP POP JUMP JUMPDEST PUSH2 0x7ED PUSH2 0xBD9 JUMP JUMPDEST PUSH1 0x0 PUSH2 0x7F8 CALLER PUSH2 0x598 JUMP JUMPDEST SWAP1 POP PUSH1 0x3 PUSH1 0x0 SWAP1 SLOAD SWAP1 PUSH2 0x100 EXP SWAP1 DIV PUSH20 0xFFFFFFFFFFFFFFFFFFFFFFFFFFFFFFFFFFFFFFFF AND PUSH20 0xFFFFFFFFFFFFFFFFFFFFFFFFFFFFFFFFFFFFFFFF AND PUSH4 0x532B2913 CALLER DUP4 PUSH1 0x40 MLOAD DUP4 PUSH4 0xFFFFFFFF AND PUSH1 0xE0 SHL DUP2 MSTORE PUSH1 0x4 ADD PUSH2 0x857 SWAP3 SWAP2 SWAP1 PUSH2 0x1246 JUMP JUMPDEST PUSH1 0x0 PUSH1 0x40 MLOAD DUP1 DUP4 SUB DUP2 PUSH1 0x0 DUP8 DUP1 EXTCODESIZE ISZERO DUP1 ISZERO PUSH2 0x871 JUMPI PUSH1 0x0 DUP1 REVERT JUMPDEST POP GAS CALL ISZERO DUP1 ISZERO PUSH2 0x885 JUMPI RETURNDATASIZE PUSH1 0x0 DUP1 RETURNDATACOPY RETURNDATASIZE PUSH1 0x0 REVERT JUMPDEST POP POP POP POP PUSH2 0x892 CALLER PUSH2 0xCC3 JUMP JUMPDEST POP JUMP JUMPDEST PUSH1 0x9 DUP1 PUSH1 0x0 ADD SLOAD SWAP1 DUP1 PUSH1 0x1 ADD SLOAD SWAP1 DUP1 PUSH1 0x2 ADD PUSH1 0x0 SWAP1 SLOAD SWAP1 PUSH2 0x100 EXP SWAP1 DIV PUSH1 0xFF AND SWAP1 POP DUP4 JUMP JUMPDEST PUSH1 0x3 PUSH1 0x0 SWAP1 SLOAD SWAP1 PUSH2 0x100 EXP SWAP1 DIV PUSH20 0xFFFFFFFFFFFFFFFFFFFFFFFFFFFFFFFFFFFFFFFF AND DUP2 JUMP JUMPDEST PUSH1 0x4 PUSH1 0x0 SWAP1 SLOAD SWAP1 PUSH2 0x100 EXP SWAP1 DIV PUSH20 0xFFFFFFFFFFFFFFFFFFFFFFFFFFFFFFFFFFFFFFFF AND DUP2 JUMP JUMPDEST PUSH2 0x90E PUSH2 0xB0D JUMP JUMPDEST PUSH20 0xFFFFFFFFFFFFFFFFFFFFFFFFFFFFFFFFFFFFFFFF AND PUSH2 0x92C PUSH2 0x5D3 JUMP JUMPDEST PUSH20 0xFFFFFFFFFFFFFFFFFFFFFFFFFFFFFFFFFFFFFFFF AND EQ PUSH2 0x982 JUMPI PUSH1 0x40 MLOAD PUSH32 0x8C379A000000000000000000000000000000000000000000000000000000000 DUP2 MSTORE PUSH1 0x4 ADD PUSH2 0x979 SWAP1 PUSH2 0x1357 JUMP JUMPDEST PUSH1 0x40 MLOAD DUP1 SWAP2 SUB SWAP1 REVERT JUMPDEST PUSH1 0x1 PUSH1 0x0 SWAP1 SLOAD SWAP1 PUSH2 0x100 EXP SWAP1 DIV PUSH20 0xFFFFFFFFFFFFFFFFFFFFFFFFFFFFFFFFFFFFFFFF AND PUSH20 0xFFFFFFFFFFFFFFFFFFFFFFFFFFFFFFFFFFFFFFFF AND PUSH4 0xF121DA92 DUP4 DUP4 PUSH1 0x40 MLOAD DUP4 PUSH4 0xFFFFFFFF AND PUSH1 0xE0 SHL DUP2 MSTORE PUSH1 0x4 ADD PUSH2 0x9DF SWAP3 SWAP2 SWAP1 PUSH2 0x126F JUMP JUMPDEST PUSH1 0x0 PUSH1 0x40 MLOAD DUP1 DUP4 SUB DUP2 PUSH1 0x0 DUP8 DUP1 EXTCODESIZE ISZERO DUP1 ISZERO PUSH2 0x9F9 JUMPI PUSH1 0x0 DUP1 REVERT JUMPDEST POP GAS CALL ISZERO DUP1 ISZERO PUSH2 0xA0D JUMPI RETURNDATASIZE PUSH1 0x0 DUP1 RETURNDATACOPY RETURNDATASIZE PUSH1 0x0 REVERT JUMPDEST POP POP POP POP POP POP JUMP JUMPDEST PUSH2 0xA1D PUSH2 0xB0D JUMP JUMPDEST PUSH20 0xFFFFFFFFFFFFFFFFFFFFFFFFFFFFFFFFFFFFFFFF AND PUSH2 0xA3B PUSH2 0x5D3 JUMP JUMPDEST PUSH20 0xFFFFFFFFFFFFFFFFFFFFFFFFFFFFFFFFFFFFFFFF AND EQ PUSH2 0xA91 JUMPI PUSH1 0x40 MLOAD PUSH32 0x8C379A000000000000000000000000000000000000000000000000000000000 DUP2 MSTORE PUSH1 0x4 ADD PUSH2 0xA88 SWAP1 PUSH2 0x1357 JUMP JUMPDEST PUSH1 0x40 MLOAD DUP1 SWAP2 SUB SWAP1 REVERT JUMPDEST PUSH1 0x0 PUSH20 0xFFFFFFFFFFFFFFFFFFFFFFFFFFFFFFFFFFFFFFFF AND DUP2 PUSH20 0xFFFFFFFFFFFFFFFFFFFFFFFFFFFFFFFFFFFFFFFF AND EQ ISZERO PUSH2 0xB01 JUMPI PUSH1 0x40 MLOAD PUSH32 0x8C379A000000000000000000000000000000000000000000000000000000000 DUP2 MSTORE PUSH1 0x4 ADD PUSH2 0xAF8 SWAP1 PUSH2 0x1317 JUMP JUMPDEST PUSH1 0x40 MLOAD DUP1 SWAP2 SUB SWAP1 REVERT JUMPDEST PUSH2 0xB0A DUP2 PUSH2 0xB15 JUMP JUMPDEST POP JUMP JUMPDEST PUSH1 0x0 CALLER SWAP1 POP SWAP1 JUMP JUMPDEST PUSH1 0x0 DUP1 PUSH1 0x0 SWAP1 SLOAD SWAP1 PUSH2 0x100 EXP SWAP1 DIV PUSH20 0xFFFFFFFFFFFFFFFFFFFFFFFFFFFFFFFFFFFFFFFF AND SWAP1 POP DUP2 PUSH1 0x0 DUP1 PUSH2 0x100 EXP DUP2 SLOAD DUP2 PUSH20 0xFFFFFFFFFFFFFFFFFFFFFFFFFFFFFFFFFFFFFFFF MUL NOT AND SWAP1 DUP4 PUSH20 0xFFFFFFFFFFFFFFFFFFFFFFFFFFFFFFFFFFFFFFFF AND MUL OR SWAP1 SSTORE POP DUP2 PUSH20 0xFFFFFFFFFFFFFFFFFFFFFFFFFFFFFFFFFFFFFFFF AND DUP2 PUSH20 0xFFFFFFFFFFFFFFFFFFFFFFFFFFFFFFFFFFFFFFFF AND PUSH32 0x8BE0079C531659141344CD1FD0A4F28419497F9722A3DAAFE3B4186F6B6457E0 PUSH1 0x40 MLOAD PUSH1 0x40 MLOAD DUP1 SWAP2 SUB SWAP1 LOG3 POP POP JUMP JUMPDEST PUSH1 0x6 SLOAD PUSH1 0x5 SLOAD GT ISZERO PUSH2 0xC20 JUMPI PUSH1 0x40 MLOAD PUSH32 0x8C379A000000000000000000000000000000000000000000000000000000000 DUP2 MSTORE PUSH1 0x4 ADD PUSH2 0xC17 SWAP1 PUSH2 0x1337 JUMP JUMPDEST PUSH1 0x40 MLOAD DUP1 SWAP2 SUB SWAP1 REVERT JUMPDEST PUSH1 0x1 PUSH1 0x3C PUSH1 0x5 SLOAD TIMESTAMP PUSH2 0xC32 SWAP2 SWAP1 PUSH2 0x15A1 JUMP JUMPDEST PUSH2 0xC3C SWAP2 SWAP1 PUSH2 0x1516 JUMP JUMPDEST PUSH2 0xC46 SWAP2 SWAP1 PUSH2 0x1547 JUMP JUMPDEST PUSH1 0x7 SLOAD PUSH2 0xC53 SWAP2 SWAP1 PUSH2 0x15A1 JUMP JUMPDEST PUSH1 0x9 PUSH1 0x0 ADD DUP2 SWAP1 SSTORE POP TIMESTAMP PUSH1 0x9 PUSH1 0x1 ADD DUP2 SWAP1 SSTORE POP PUSH1 0x5 SLOAD TIMESTAMP LT ISZERO DUP1 ISZERO PUSH2 0xC7A JUMPI POP PUSH1 0x6 SLOAD TIMESTAMP GT ISZERO JUMPDEST ISZERO PUSH2 0xCA2 JUMPI PUSH1 0x1 PUSH1 0x9 PUSH1 0x2 ADD PUSH1 0x0 PUSH2 0x100 EXP DUP2 SLOAD DUP2 PUSH1 0xFF MUL NOT AND SWAP1 DUP4 ISZERO ISZERO MUL OR SWAP1 SSTORE POP PUSH2 0xCC1 JUMP JUMPDEST PUSH1 0x0 PUSH1 0x9 PUSH1 0x2 ADD PUSH1 0x0 PUSH2 0x100 EXP DUP2 SLOAD DUP2 PUSH1 0xFF MUL NOT AND SWAP1 DUP4 ISZERO ISZERO MUL OR SWAP1 SSTORE POP JUMPDEST JUMP JUMPDEST PUSH1 0x1 PUSH1 0x0 SWAP1 SLOAD SWAP1 PUSH2 0x100 EXP SWAP1 DIV PUSH20 0xFFFFFFFFFFFFFFFFFFFFFFFFFFFFFFFFFFFFFFFF AND PUSH20 0xFFFFFFFFFFFFFFFFFFFFFFFFFFFFFFFFFFFFFFFF AND PUSH4 0x55676590 DUP3 PUSH1 0x40 MLOAD DUP3 PUSH4 0xFFFFFFFF AND PUSH1 0xE0 SHL DUP2 MSTORE PUSH1 0x4 ADD PUSH2 0xD1E SWAP2 SWAP1 PUSH2 0x122B JUMP JUMPDEST PUSH1 0x0 PUSH1 0x40 MLOAD DUP1 DUP4 SUB DUP2 PUSH1 0x0 DUP8 DUP1 EXTCODESIZE ISZERO DUP1 ISZERO PUSH2 0xD38 JUMPI PUSH1 0x0 DUP1 REVERT JUMPDEST POP GAS CALL ISZERO DUP1 ISZERO PUSH2 0xD4C JUMPI RETURNDATASIZE PUSH1 0x0 DUP1 RETURNDATACOPY RETURNDATASIZE PUSH1 0x0 REVERT JUMPDEST POP POP POP POP POP JUMP JUMPDEST PUSH1 0x0 PUSH2 0xD66 PUSH2 0xD61 DUP5 PUSH2 0x13EE JUMP JUMPDEST PUSH2 0x13C9 JUMP JUMPDEST SWAP1 POP DUP1 DUP4 DUP3 MSTORE PUSH1 0x20 DUP3 ADD SWAP1 POP DUP3 PUSH1 0x0 JUMPDEST DUP6 DUP2 LT ISZERO PUSH2 0xDA6 JUMPI DUP2 CALLDATALOAD DUP6 ADD PUSH2 0xD8C DUP9 DUP3 PUSH2 0xEC3 JUMP JUMPDEST DUP5 MSTORE PUSH1 0x20 DUP5 ADD SWAP4 POP PUSH1 0x20 DUP4 ADD SWAP3 POP POP PUSH1 0x1 DUP2 ADD SWAP1 POP PUSH2 0xD76 JUMP JUMPDEST POP POP POP SWAP4 SWAP3 POP POP POP JUMP JUMPDEST PUSH1 0x0 PUSH2 0xDC3 PUSH2 0xDBE DUP5 PUSH2 0x141A JUMP JUMPDEST PUSH2 0x13C9 JUMP JUMPDEST SWAP1 POP DUP1 DUP4 DUP3 MSTORE PUSH1 0x20 DUP3 ADD SWAP1 POP DUP3 DUP6 PUSH1 0x20 DUP7 MUL DUP3 ADD GT ISZERO PUSH2 0xDE2 JUMPI PUSH1 0x0 DUP1 REVERT JUMPDEST PUSH1 0x0 JUMPDEST DUP6 DUP2 LT ISZERO PUSH2 0xE12 JUMPI DUP2 PUSH2 0xDF8 DUP9 DUP3 PUSH2 0xEED JUMP JUMPDEST DUP5 MSTORE PUSH1 0x20 DUP5 ADD SWAP4 POP PUSH1 0x20 DUP4 ADD SWAP3 POP POP PUSH1 0x1 DUP2 ADD SWAP1 POP PUSH2 0xDE5 JUMP JUMPDEST POP POP POP SWAP4 SWAP3 POP POP POP JUMP JUMPDEST PUSH1 0x0 PUSH2 0xE2F PUSH2 0xE2A DUP5 PUSH2 0x1446 JUMP JUMPDEST PUSH2 0x13C9 JUMP JUMPDEST SWAP1 POP DUP3 DUP2 MSTORE PUSH1 0x20 DUP2 ADD DUP5 DUP5 DUP5 ADD GT ISZERO PUSH2 0xE47 JUMPI PUSH1 0x0 DUP1 REVERT JUMPDEST PUSH2 0xE52 DUP5 DUP3 DUP6 PUSH2 0x1689 JUMP JUMPDEST POP SWAP4 SWAP3 POP POP POP JUMP JUMPDEST PUSH1 0x0 DUP2 CALLDATALOAD SWAP1 POP PUSH2 0xE69 DUP2 PUSH2 0x18B4 JUMP JUMPDEST SWAP3 SWAP2 POP POP JUMP JUMPDEST PUSH1 0x0 DUP3 PUSH1 0x1F DUP4 ADD SLT PUSH2 0xE80 JUMPI PUSH1 0x0 DUP1 REVERT JUMPDEST DUP2 CALLDATALOAD PUSH2 0xE90 DUP5 DUP3 PUSH1 0x20 DUP7 ADD PUSH2 0xD53 JUMP JUMPDEST SWAP2 POP POP SWAP3 SWAP2 POP POP JUMP JUMPDEST PUSH1 0x0 DUP3 PUSH1 0x1F DUP4 ADD SLT PUSH2 0xEAA JUMPI PUSH1 0x0 DUP1 REVERT JUMPDEST DUP2 CALLDATALOAD PUSH2 0xEBA DUP5 DUP3 PUSH1 0x20 DUP7 ADD PUSH2 0xDB0 JUMP JUMPDEST SWAP2 POP POP SWAP3 SWAP2 POP POP JUMP JUMPDEST PUSH1 0x0 DUP3 PUSH1 0x1F DUP4 ADD SLT PUSH2 0xED4 JUMPI PUSH1 0x0 DUP1 REVERT JUMPDEST DUP2 CALLDATALOAD PUSH2 0xEE4 DUP5 DUP3 PUSH1 0x20 DUP7 ADD PUSH2 0xE1C JUMP JUMPDEST SWAP2 POP POP SWAP3 SWAP2 POP POP JUMP JUMPDEST PUSH1 0x0 DUP2 CALLDATALOAD SWAP1 POP PUSH2 0xEFC DUP2 PUSH2 0x18CB JUMP JUMPDEST SWAP3 SWAP2 POP POP JUMP JUMPDEST PUSH1 0x0 DUP2 MLOAD SWAP1 POP PUSH2 0xF11 DUP2 PUSH2 0x18CB JUMP JUMPDEST SWAP3 SWAP2 POP POP JUMP JUMPDEST PUSH1 0x0 PUSH1 0x20 DUP3 DUP5 SUB SLT ISZERO PUSH2 0xF29 JUMPI PUSH1 0x0 DUP1 REVERT JUMPDEST PUSH1 0x0 PUSH2 0xF37 DUP5 DUP3 DUP6 ADD PUSH2 0xE5A JUMP JUMPDEST SWAP2 POP POP SWAP3 SWAP2 POP POP JUMP JUMPDEST PUSH1 0x0 DUP1 PUSH1 0x40 DUP4 DUP6 SUB SLT ISZERO PUSH2 0xF53 JUMPI PUSH1 0x0 DUP1 REVERT JUMPDEST PUSH1 0x0 DUP4 ADD CALLDATALOAD PUSH8 0xFFFFFFFFFFFFFFFF DUP2 GT ISZERO PUSH2 0xF6D JUMPI PUSH1 0x0 DUP1 REVERT JUMPDEST PUSH2 0xF79 DUP6 DUP3 DUP7 ADD PUSH2 0xE99 JUMP JUMPDEST SWAP3 POP POP PUSH1 0x20 DUP4 ADD CALLDATALOAD PUSH8 0xFFFFFFFFFFFFFFFF DUP2 GT ISZERO PUSH2 0xF96 JUMPI PUSH1 0x0 DUP1 REVERT JUMPDEST PUSH2 0xFA2 DUP6 DUP3 DUP7 ADD PUSH2 0xE6F JUMP JUMPDEST SWAP2 POP POP SWAP3 POP SWAP3 SWAP1 POP JUMP JUMPDEST PUSH1 0x0 PUSH1 0x20 DUP3 DUP5 SUB SLT ISZERO PUSH2 0xFBE JUMPI PUSH1 0x0 DUP1 REVERT JUMPDEST PUSH1 0x0 PUSH2 0xFCC DUP5 DUP3 DUP6 ADD PUSH2 0xEED JUMP JUMPDEST SWAP2 POP POP SWAP3 SWAP2 POP POP JUMP JUMPDEST PUSH1 0x0 PUSH1 0x20 DUP3 DUP5 SUB SLT ISZERO PUSH2 0xFE7 JUMPI PUSH1 0x0 DUP1 REVERT JUMPDEST PUSH1 0x0 PUSH2 0xFF5 DUP5 DUP3 DUP6 ADD PUSH2 0xF02 JUMP JUMPDEST SWAP2 POP POP SWAP3 SWAP2 POP POP JUMP JUMPDEST PUSH1 0x0 PUSH2 0x100A DUP4 DUP4 PUSH2 0x1148 JUMP JUMPDEST SWAP1 POP SWAP3 SWAP2 POP POP JUMP JUMPDEST PUSH1 0x0 PUSH2 0x101E DUP4 DUP4 PUSH2 0x120D JUMP JUMPDEST PUSH1 0x20 DUP4 ADD SWAP1 POP SWAP3 SWAP2 POP POP JUMP JUMPDEST PUSH2 0x1033 DUP2 PUSH2 0x15D5 JUMP JUMPDEST DUP3 MSTORE POP POP JUMP JUMPDEST PUSH1 0x0 PUSH2 0x1044 DUP3 PUSH2 0x1497 JUMP JUMPDEST PUSH2 0x104E DUP2 DUP6 PUSH2 0x14D2 JUMP JUMPDEST SWAP4 POP DUP4 PUSH1 0x20 DUP3 MUL DUP6 ADD PUSH2 0x1060 DUP6 PUSH2 0x1477 JUMP JUMPDEST DUP1 PUSH1 0x0 JUMPDEST DUP6 DUP2 LT ISZERO PUSH2 0x109C JUMPI DUP5 DUP5 SUB DUP10 MSTORE DUP2 MLOAD PUSH2 0x107D DUP6 DUP3 PUSH2 0xFFE JUMP JUMPDEST SWAP5 POP PUSH2 0x1088 DUP4 PUSH2 0x14B8 JUMP JUMPDEST SWAP3 POP PUSH1 0x20 DUP11 ADD SWAP10 POP POP PUSH1 0x1 DUP2 ADD SWAP1 POP PUSH2 0x1064 JUMP JUMPDEST POP DUP3 SWAP8 POP DUP8 SWAP6 POP POP POP POP POP POP SWAP3 SWAP2 POP POP JUMP JUMPDEST PUSH1 0x0 PUSH2 0x10B9 DUP3 PUSH2 0x14A2 JUMP JUMPDEST PUSH2 0x10C3 DUP2 DUP6 PUSH2 0x14E3 JUMP JUMPDEST SWAP4 POP PUSH2 0x10CE DUP4 PUSH2 0x1487 JUMP JUMPDEST DUP1 PUSH1 0x0 JUMPDEST DUP4 DUP2 LT ISZERO PUSH2 0x10FF JUMPI DUP2 MLOAD PUSH2 0x10E6 DUP9 DUP3 PUSH2 0x1012 JUMP JUMPDEST SWAP8 POP PUSH2 0x10F1 DUP4 PUSH2 0x14C5 JUMP JUMPDEST SWAP3 POP POP PUSH1 0x1 DUP2 ADD SWAP1 POP PUSH2 0x10D2 JUMP JUMPDEST POP DUP6 SWAP4 POP POP POP POP SWAP3 SWAP2 POP POP JUMP JUMPDEST PUSH2 0x1115 DUP2 PUSH2 0x15E7 JUMP JUMPDEST DUP3 MSTORE POP POP JUMP JUMPDEST PUSH2 0x1124 DUP2 PUSH2 0x161D JUMP JUMPDEST DUP3 MSTORE POP POP JUMP JUMPDEST PUSH2 0x1133 DUP2 PUSH2 0x1641 JUMP JUMPDEST DUP3 MSTORE POP POP JUMP JUMPDEST PUSH2 0x1142 DUP2 PUSH2 0x1665 JUMP JUMPDEST DUP3 MSTORE POP POP JUMP JUMPDEST PUSH1 0x0 PUSH2 0x1153 DUP3 PUSH2 0x14AD JUMP JUMPDEST PUSH2 0x115D DUP2 DUP6 PUSH2 0x14F4 JUMP JUMPDEST SWAP4 POP PUSH2 0x116D DUP2 DUP6 PUSH1 0x20 DUP7 ADD PUSH2 0x1698 JUMP JUMPDEST PUSH2 0x1176 DUP2 PUSH2 0x17B3 JUMP JUMPDEST DUP5 ADD SWAP2 POP POP SWAP3 SWAP2 POP POP JUMP JUMPDEST PUSH1 0x0 PUSH2 0x118E PUSH1 0x36 DUP4 PUSH2 0x1505 JUMP JUMPDEST SWAP2 POP PUSH2 0x1199 DUP3 PUSH2 0x17C4 JUMP JUMPDEST PUSH1 0x40 DUP3 ADD SWAP1 POP SWAP2 SWAP1 POP JUMP JUMPDEST PUSH1 0x0 PUSH2 0x11B1 PUSH1 0x26 DUP4 PUSH2 0x1505 JUMP JUMPDEST SWAP2 POP PUSH2 0x11BC DUP3 PUSH2 0x1813 JUMP JUMPDEST PUSH1 0x40 DUP3 ADD SWAP1 POP SWAP2 SWAP1 POP JUMP JUMPDEST PUSH1 0x0 PUSH2 0x11D4 PUSH1 0x1F DUP4 PUSH2 0x1505 JUMP JUMPDEST SWAP2 POP PUSH2 0x11DF DUP3 PUSH2 0x1862 JUMP JUMPDEST PUSH1 0x20 DUP3 ADD SWAP1 POP SWAP2 SWAP1 POP JUMP JUMPDEST PUSH1 0x0 PUSH2 0x11F7 PUSH1 0x20 DUP4 PUSH2 0x1505 JUMP JUMPDEST SWAP2 POP PUSH2 0x1202 DUP3 PUSH2 0x188B JUMP JUMPDEST PUSH1 0x20 DUP3 ADD SWAP1 POP SWAP2 SWAP1 POP JUMP JUMPDEST PUSH2 0x1216 DUP2 PUSH2 0x1613 JUMP JUMPDEST DUP3 MSTORE POP POP JUMP JUMPDEST PUSH2 0x1225 DUP2 PUSH2 0x1613 JUMP JUMPDEST DUP3 MSTORE POP POP JUMP JUMPDEST PUSH1 0x0 PUSH1 0x20 DUP3 ADD SWAP1 POP PUSH2 0x1240 PUSH1 0x0 DUP4 ADD DUP5 PUSH2 0x102A JUMP JUMPDEST SWAP3 SWAP2 POP POP JUMP JUMPDEST PUSH1 0x0 PUSH1 0x40 DUP3 ADD SWAP1 POP PUSH2 0x125B PUSH1 0x0 DUP4 ADD DUP6 PUSH2 0x102A JUMP JUMPDEST PUSH2 0x1268 PUSH1 0x20 DUP4 ADD DUP5 PUSH2 0x121C JUMP JUMPDEST SWAP4 SWAP3 POP POP POP JUMP JUMPDEST PUSH1 0x0 PUSH1 0x40 DUP3 ADD SWAP1 POP DUP2 DUP2 SUB PUSH1 0x0 DUP4 ADD MSTORE PUSH2 0x1289 DUP2 DUP6 PUSH2 0x10AE JUMP JUMPDEST SWAP1 POP DUP2 DUP2 SUB PUSH1 0x20 DUP4 ADD MSTORE PUSH2 0x129D DUP2 DUP5 PUSH2 0x1039 JUMP JUMPDEST SWAP1 POP SWAP4 SWAP3 POP POP POP JUMP JUMPDEST PUSH1 0x0 PUSH1 0x20 DUP3 ADD SWAP1 POP PUSH2 0x12BB PUSH1 0x0 DUP4 ADD DUP5 PUSH2 0x111B JUMP JUMPDEST SWAP3 SWAP2 POP POP JUMP JUMPDEST PUSH1 0x0 PUSH1 0x20 DUP3 ADD SWAP1 POP PUSH2 0x12D6 PUSH1 0x0 DUP4 ADD DUP5 PUSH2 0x112A JUMP JUMPDEST SWAP3 SWAP2 POP POP JUMP JUMPDEST PUSH1 0x0 PUSH1 0x20 DUP3 ADD SWAP1 POP PUSH2 0x12F1 PUSH1 0x0 DUP4 ADD DUP5 PUSH2 0x1139 JUMP JUMPDEST SWAP3 SWAP2 POP POP JUMP JUMPDEST PUSH1 0x0 PUSH1 0x20 DUP3 ADD SWAP1 POP DUP2 DUP2 SUB PUSH1 0x0 DUP4 ADD MSTORE PUSH2 0x1310 DUP2 PUSH2 0x1181 JUMP JUMPDEST SWAP1 POP SWAP2 SWAP1 POP JUMP JUMPDEST PUSH1 0x0 PUSH1 0x20 DUP3 ADD SWAP1 POP DUP2 DUP2 SUB PUSH1 0x0 DUP4 ADD MSTORE PUSH2 0x1330 DUP2 PUSH2 0x11A4 JUMP JUMPDEST SWAP1 POP SWAP2 SWAP1 POP JUMP JUMPDEST PUSH1 0x0 PUSH1 0x20 DUP3 ADD SWAP1 POP DUP2 DUP2 SUB PUSH1 0x0 DUP4 ADD MSTORE PUSH2 0x1350 DUP2 PUSH2 0x11C7 JUMP JUMPDEST SWAP1 POP SWAP2 SWAP1 POP JUMP JUMPDEST PUSH1 0x0 PUSH1 0x20 DUP3 ADD SWAP1 POP DUP2 DUP2 SUB PUSH1 0x0 DUP4 ADD MSTORE PUSH2 0x1370 DUP2 PUSH2 0x11EA JUMP JUMPDEST SWAP1 POP SWAP2 SWAP1 POP JUMP JUMPDEST PUSH1 0x0 PUSH1 0x20 DUP3 ADD SWAP1 POP PUSH2 0x138C PUSH1 0x0 DUP4 ADD DUP5 PUSH2 0x121C JUMP JUMPDEST SWAP3 SWAP2 POP POP JUMP JUMPDEST PUSH1 0x0 PUSH1 0x60 DUP3 ADD SWAP1 POP PUSH2 0x13A7 PUSH1 0x0 DUP4 ADD DUP7 PUSH2 0x121C JUMP JUMPDEST PUSH2 0x13B4 PUSH1 0x20 DUP4 ADD DUP6 PUSH2 0x121C JUMP JUMPDEST PUSH2 0x13C1 PUSH1 0x40 DUP4 ADD DUP5 PUSH2 0x110C JUMP JUMPDEST SWAP5 SWAP4 POP POP POP POP JUMP JUMPDEST PUSH1 0x0 PUSH2 0x13D3 PUSH2 0x13E4 JUMP JUMPDEST SWAP1 POP PUSH2 0x13DF DUP3 DUP3 PUSH2 0x16F5 JUMP JUMPDEST SWAP2 SWAP1 POP JUMP JUMPDEST PUSH1 0x0 PUSH1 0x40 MLOAD SWAP1 POP SWAP1 JUMP JUMPDEST PUSH1 0x0 PUSH8 0xFFFFFFFFFFFFFFFF DUP3 GT ISZERO PUSH2 0x1409 JUMPI PUSH2 0x1408 PUSH2 0x1784 JUMP JUMPDEST JUMPDEST PUSH1 0x20 DUP3 MUL SWAP1 POP PUSH1 0x20 DUP2 ADD SWAP1 POP SWAP2 SWAP1 POP JUMP JUMPDEST PUSH1 0x0 PUSH8 0xFFFFFFFFFFFFFFFF DUP3 GT ISZERO PUSH2 0x1435 JUMPI PUSH2 0x1434 PUSH2 0x1784 JUMP JUMPDEST JUMPDEST PUSH1 0x20 DUP3 MUL SWAP1 POP PUSH1 0x20 DUP2 ADD SWAP1 POP SWAP2 SWAP1 POP JUMP JUMPDEST PUSH1 0x0 PUSH8 0xFFFFFFFFFFFFFFFF DUP3 GT ISZERO PUSH2 0x1461 JUMPI PUSH2 0x1460 PUSH2 0x1784 JUMP JUMPDEST JUMPDEST PUSH2 0x146A DUP3 PUSH2 0x17B3 JUMP JUMPDEST SWAP1 POP PUSH1 0x20 DUP2 ADD SWAP1 POP SWAP2 SWAP1 POP JUMP JUMPDEST PUSH1 0x0 DUP2 SWAP1 POP PUSH1 0x20 DUP3 ADD SWAP1 POP SWAP2 SWAP1 POP JUMP JUMPDEST PUSH1 0x0 DUP2 SWAP1 POP PUSH1 0x20 DUP3 ADD SWAP1 POP SWAP2 SWAP1 POP JUMP JUMPDEST PUSH1 0x0 DUP2 MLOAD SWAP1 POP SWAP2 SWAP1 POP JUMP JUMPDEST PUSH1 0x0 DUP2 MLOAD SWAP1 POP SWAP2 SWAP1 POP JUMP JUMPDEST PUSH1 0x0 DUP2 MLOAD SWAP1 POP SWAP2 SWAP1 POP JUMP JUMPDEST PUSH1 0x0 PUSH1 0x20 DUP3 ADD SWAP1 POP SWAP2 SWAP1 POP JUMP JUMPDEST PUSH1 0x0 PUSH1 0x20 DUP3 ADD SWAP1 POP SWAP2 SWAP1 POP JUMP JUMPDEST PUSH1 0x0 DUP3 DUP3 MSTORE PUSH1 0x20 DUP3 ADD SWAP1 POP SWAP3 SWAP2 POP POP JUMP JUMPDEST PUSH1 0x0 DUP3 DUP3 MSTORE PUSH1 0x20 DUP3 ADD SWAP1 POP SWAP3 SWAP2 POP POP JUMP JUMPDEST PUSH1 0x0 DUP3 DUP3 MSTORE PUSH1 0x20 DUP3 ADD SWAP1 POP SWAP3 SWAP2 POP POP JUMP JUMPDEST PUSH1 0x0 DUP3 DUP3 MSTORE PUSH1 0x20 DUP3 ADD SWAP1 POP SWAP3 SWAP2 POP POP JUMP JUMPDEST PUSH1 0x0 PUSH2 0x1521 DUP3 PUSH2 0x1613 JUMP JUMPDEST SWAP2 POP PUSH2 0x152C DUP4 PUSH2 0x1613 JUMP JUMPDEST SWAP3 POP DUP3 PUSH2 0x153C JUMPI PUSH2 0x153B PUSH2 0x1755 JUMP JUMPDEST JUMPDEST DUP3 DUP3 DIV SWAP1 POP SWAP3 SWAP2 POP POP JUMP JUMPDEST PUSH1 0x0 PUSH2 0x1552 DUP3 PUSH2 0x1613 JUMP JUMPDEST SWAP2 POP PUSH2 0x155D DUP4 PUSH2 0x1613 JUMP JUMPDEST SWAP3 POP DUP2 PUSH32 0xFFFFFFFFFFFFFFFFFFFFFFFFFFFFFFFFFFFFFFFFFFFFFFFFFFFFFFFFFFFFFFFF DIV DUP4 GT DUP3 ISZERO ISZERO AND ISZERO PUSH2 0x1596 JUMPI PUSH2 0x1595 PUSH2 0x1726 JUMP JUMPDEST JUMPDEST DUP3 DUP3 MUL SWAP1 POP SWAP3 SWAP2 POP POP JUMP JUMPDEST PUSH1 0x0 PUSH2 0x15AC DUP3 PUSH2 0x1613 JUMP JUMPDEST SWAP2 POP PUSH2 0x15B7 DUP4 PUSH2 0x1613 JUMP JUMPDEST SWAP3 POP DUP3 DUP3 LT ISZERO PUSH2 0x15CA JUMPI PUSH2 0x15C9 PUSH2 0x1726 JUMP JUMPDEST JUMPDEST DUP3 DUP3 SUB SWAP1 POP SWAP3 SWAP2 POP POP JUMP JUMPDEST PUSH1 0x0 PUSH2 0x15E0 DUP3 PUSH2 0x15F3 JUMP JUMPDEST SWAP1 POP SWAP2 SWAP1 POP JUMP JUMPDEST PUSH1 0x0 DUP2 ISZERO ISZERO SWAP1 POP SWAP2 SWAP1 POP JUMP JUMPDEST PUSH1 0x0 PUSH20 0xFFFFFFFFFFFFFFFFFFFFFFFFFFFFFFFFFFFFFFFF DUP3 AND SWAP1 POP SWAP2 SWAP1 POP JUMP JUMPDEST PUSH1 0x0 DUP2 SWAP1 POP SWAP2 SWAP1 POP JUMP JUMPDEST PUSH1 0x0 PUSH2 0x1628 DUP3 PUSH2 0x162F JUMP JUMPDEST SWAP1 POP SWAP2 SWAP1 POP JUMP JUMPDEST PUSH1 0x0 PUSH2 0x163A DUP3 PUSH2 0x15F3 JUMP JUMPDEST SWAP1 POP SWAP2 SWAP1 POP JUMP JUMPDEST PUSH1 0x0 PUSH2 0x164C DUP3 PUSH2 0x1653 JUMP JUMPDEST SWAP1 POP SWAP2 SWAP1 POP JUMP JUMPDEST PUSH1 0x0 PUSH2 0x165E DUP3 PUSH2 0x15F3 JUMP JUMPDEST SWAP1 POP SWAP2 SWAP1 POP JUMP JUMPDEST PUSH1 0x0 PUSH2 0x1670 DUP3 PUSH2 0x1677 JUMP JUMPDEST SWAP1 POP SWAP2 SWAP1 POP JUMP JUMPDEST PUSH1 0x0 PUSH2 0x1682 DUP3 PUSH2 0x15F3 JUMP JUMPDEST SWAP1 POP SWAP2 SWAP1 POP JUMP JUMPDEST DUP3 DUP2 DUP4 CALLDATACOPY PUSH1 0x0 DUP4 DUP4 ADD MSTORE POP POP POP JUMP JUMPDEST PUSH1 0x0 JUMPDEST DUP4 DUP2 LT ISZERO PUSH2 0x16B6 JUMPI DUP1 DUP3 ADD MLOAD DUP2 DUP5 ADD MSTORE PUSH1 0x20 DUP2 ADD SWAP1 POP PUSH2 0x169B JUMP JUMPDEST DUP4 DUP2 GT ISZERO PUSH2 0x16C5 JUMPI PUSH1 0x0 DUP5 DUP5 ADD MSTORE JUMPDEST POP POP POP POP JUMP JUMPDEST PUSH1 0x0 PUSH2 0x16D6 DUP3 PUSH2 0x1613 JUMP JUMPDEST SWAP2 POP PUSH1 0x0 DUP3 EQ ISZERO PUSH2 0x16EA JUMPI PUSH2 0x16E9 PUSH2 0x1726 JUMP JUMPDEST JUMPDEST PUSH1 0x1 DUP3 SUB SWAP1 POP SWAP2 SWAP1 POP JUMP JUMPDEST PUSH2 0x16FE DUP3 PUSH2 0x17B3 JUMP JUMPDEST DUP2 ADD DUP2 DUP2 LT PUSH8 0xFFFFFFFFFFFFFFFF DUP3 GT OR ISZERO PUSH2 0x171D JUMPI PUSH2 0x171C PUSH2 0x1784 JUMP JUMPDEST JUMPDEST DUP1 PUSH1 0x40 MSTORE POP POP POP JUMP JUMPDEST PUSH32 0x4E487B7100000000000000000000000000000000000000000000000000000000 PUSH1 0x0 MSTORE PUSH1 0x11 PUSH1 0x4 MSTORE PUSH1 0x24 PUSH1 0x0 REVERT JUMPDEST PUSH32 0x4E487B7100000000000000000000000000000000000000000000000000000000 PUSH1 0x0 MSTORE PUSH1 0x12 PUSH1 0x4 MSTORE PUSH1 0x24 PUSH1 0x0 REVERT JUMPDEST PUSH32 0x4E487B7100000000000000000000000000000000000000000000000000000000 PUSH1 0x0 MSTORE PUSH1 0x41 PUSH1 0x4 MSTORE PUSH1 0x24 PUSH1 0x0 REVERT JUMPDEST PUSH1 0x0 PUSH1 0x1F NOT PUSH1 0x1F DUP4 ADD AND SWAP1 POP SWAP2 SWAP1 POP JUMP JUMPDEST PUSH32 0x43616E6E6F74206D696E7420746F207472656173757279206164647265737320 PUSH1 0x0 DUP3 ADD MSTORE PUSH32 0x756E74696C2073616C652069732066696E697368656400000000000000000000 PUSH1 0x20 DUP3 ADD MSTORE POP JUMP JUMPDEST PUSH32 0x4F776E61626C653A206E6577206F776E657220697320746865207A65726F2061 PUSH1 0x0 DUP3 ADD MSTORE PUSH32 0x6464726573730000000000000000000000000000000000000000000000000000 PUSH1 0x20 DUP3 ADD MSTORE POP JUMP JUMPDEST PUSH32 0x737461727454696D65206973206C61746572207468616E20656E6454696D6500 PUSH1 0x0 DUP3 ADD MSTORE POP JUMP JUMPDEST PUSH32 0x4F776E61626C653A2063616C6C6572206973206E6F7420746865206F776E6572 PUSH1 0x0 DUP3 ADD MSTORE POP JUMP JUMPDEST PUSH2 0x18BD DUP2 PUSH2 0x15D5 JUMP JUMPDEST DUP2 EQ PUSH2 0x18C8 JUMPI PUSH1 0x0 DUP1 REVERT JUMPDEST POP JUMP JUMPDEST PUSH2 0x18D4 DUP2 PUSH2 0x1613 JUMP JUMPDEST DUP2 EQ PUSH2 0x18DF JUMPI PUSH1 0x0 DUP1 REVERT JUMPDEST POP JUMP INVALID LOG2 PUSH5 0x6970667358 0x22 SLT KECCAK256 0xB7 SIGNEXTEND 0xC2 SWAP6 PUSH20 0xF4B3BE4964A400EBBFD63EFC37FEE67112BE8DFE 0x25 0xCA PUSH12 0x9ECFA0F064736F6C63430008 ADD STOP CALLER "
				},
				"gasEstimates": {
					"creation": {
						"codeDepositCost": "1284800",
						"executionCost": "infinite",
						"totalCost": "infinite"
					},
					"external": {
						"ERC1155storageContract()": "1324",
						"buyNFT()": "infinite",
						"calculateCustomPrice(address)": "infinite",
						"getMaxSupply()": "infinite",
						"getNextUnusedToken()": "infinite",
						"lastUpdate()": "infinite",
						"mintToTreasuryAddress()": "infinite",
						"owner()": "1311",
						"preLoadURIs(uint256[],string[])": "infinite",
						"privilgedBuyerList()": "1325",
						"renounceOwnership()": "24397",
						"setStorageContractAddress(address)": "22308",
						"setendTime(uint256)": "21427",
						"setstartTime(uint256)": "21405",
						"transferOwnership(address)": "24833",
						"treasuryAddress()": "1280",
						"usdcEscrowStorageContract()": "1301"
					},
					"internal": {
						"mintNextNftToAddress(address)": "infinite",
						"updateState()": "infinite"
					}
				},
				"methodIdentifiers": {
					"ERC1155storageContract()": "8c83faeb",
					"buyNFT()": "bff29cee",
					"calculateCustomPrice(address)": "7a6a23fd",
					"getMaxSupply()": "4c0f38c2",
					"getNextUnusedToken()": "68fc01a2",
					"lastUpdate()": "c0463711",
					"mintToTreasuryAddress()": "91232f18",
					"owner()": "8da5cb5b",
					"preLoadURIs(uint256[],string[])": "f121da92",
					"privilgedBuyerList()": "5ce7e721",
					"renounceOwnership()": "715018a6",
					"setStorageContractAddress(address)": "51f7598c",
					"setendTime(uint256)": "b79d283f",
					"setstartTime(uint256)": "944044a1",
					"transferOwnership(address)": "f2fde38b",
					"treasuryAddress()": "c5f956af",
					"usdcEscrowStorageContract()": "c5dae48f"
				}
			},
			"storageLayout": {
				"storage": [
					{
						"astId": 7,
						"contract": "contracts/Founding Citizens NFT Sale.sol:FoundingNFTSale",
						"label": "_owner",
						"offset": 0,
						"slot": "0",
						"type": "t_address"
					},
					{
						"astId": 862,
						"contract": "contracts/Founding Citizens NFT Sale.sol:FoundingNFTSale",
						"label": "ERC1155storageContract",
						"offset": 0,
						"slot": "1",
						"type": "t_contract(IMintStorage)804"
					},
					{
						"astId": 865,
						"contract": "contracts/Founding Citizens NFT Sale.sol:FoundingNFTSale",
						"label": "privilgedBuyerList",
						"offset": 0,
						"slot": "2",
						"type": "t_contract(IPrivilegedListStorage)826"
					},
					{
						"astId": 868,
						"contract": "contracts/Founding Citizens NFT Sale.sol:FoundingNFTSale",
						"label": "usdcEscrowStorageContract",
						"offset": 0,
						"slot": "3",
						"type": "t_contract(IUsdcStorage)857"
					},
					{
						"astId": 870,
						"contract": "contracts/Founding Citizens NFT Sale.sol:FoundingNFTSale",
						"label": "treasuryAddress",
						"offset": 0,
						"slot": "4",
						"type": "t_address"
					},
					{
						"astId": 873,
						"contract": "contracts/Founding Citizens NFT Sale.sol:FoundingNFTSale",
						"label": "startTime",
						"offset": 0,
						"slot": "5",
						"type": "t_uint256"
					},
					{
						"astId": 876,
						"contract": "contracts/Founding Citizens NFT Sale.sol:FoundingNFTSale",
						"label": "endTime",
						"offset": 0,
						"slot": "6",
						"type": "t_uint256"
					},
					{
						"astId": 879,
						"contract": "contracts/Founding Citizens NFT Sale.sol:FoundingNFTSale",
						"label": "startPrice",
						"offset": 0,
						"slot": "7",
						"type": "t_uint256"
					},
					{
						"astId": 882,
						"contract": "contracts/Founding Citizens NFT Sale.sol:FoundingNFTSale",
						"label": "EndPrice",
						"offset": 0,
						"slot": "8",
						"type": "t_uint256"
					},
					{
						"astId": 901,
						"contract": "contracts/Founding Citizens NFT Sale.sol:FoundingNFTSale",
						"label": "lastUpdate",
						"offset": 0,
						"slot": "9",
						"type": "t_struct(Update)892_storage"
					}
				],
				"types": {
					"t_address": {
						"encoding": "inplace",
						"label": "address",
						"numberOfBytes": "20"
					},
					"t_bool": {
						"encoding": "inplace",
						"label": "bool",
						"numberOfBytes": "1"
					},
					"t_contract(IMintStorage)804": {
						"encoding": "inplace",
						"label": "contract IMintStorage",
						"numberOfBytes": "20"
					},
					"t_contract(IPrivilegedListStorage)826": {
						"encoding": "inplace",
						"label": "contract IPrivilegedListStorage",
						"numberOfBytes": "20"
					},
					"t_contract(IUsdcStorage)857": {
						"encoding": "inplace",
						"label": "contract IUsdcStorage",
						"numberOfBytes": "20"
					},
					"t_struct(Update)892_storage": {
						"encoding": "inplace",
						"label": "struct FoundingNFTSale.Update",
						"members": [
							{
								"astId": 887,
								"contract": "contracts/Founding Citizens NFT Sale.sol:FoundingNFTSale",
								"label": "price",
								"offset": 0,
								"slot": "0",
								"type": "t_uint256"
							},
							{
								"astId": 889,
								"contract": "contracts/Founding Citizens NFT Sale.sol:FoundingNFTSale",
								"label": "time",
								"offset": 0,
								"slot": "1",
								"type": "t_uint256"
							},
							{
								"astId": 891,
								"contract": "contracts/Founding Citizens NFT Sale.sol:FoundingNFTSale",
								"label": "saleIsLive",
								"offset": 0,
								"slot": "2",
								"type": "t_bool"
							}
						],
						"numberOfBytes": "96"
					},
					"t_uint256": {
						"encoding": "inplace",
						"label": "uint256",
						"numberOfBytes": "32"
					}
				}
			},
			"userdoc": {
				"kind": "user",
				"methods": {},
				"version": 1
			}
		}
	}
}