{
	"contracts/Founding Citizens NFT Sale.sol": {
		"FoundingNFTSale": {
			"abi": [
				{
					"inputs": [],
					"stateMutability": "nonpayable",
					"type": "constructor"
				},
				{
					"anonymous": false,
					"inputs": [
						{
							"indexed": true,
							"internalType": "bytes32",
							"name": "role",
							"type": "bytes32"
						},
						{
							"indexed": true,
							"internalType": "bytes32",
							"name": "previousAdminRole",
							"type": "bytes32"
						},
						{
							"indexed": true,
							"internalType": "bytes32",
							"name": "newAdminRole",
							"type": "bytes32"
						}
					],
					"name": "RoleAdminChanged",
					"type": "event"
				},
				{
					"anonymous": false,
					"inputs": [
						{
							"indexed": true,
							"internalType": "bytes32",
							"name": "role",
							"type": "bytes32"
						},
						{
							"indexed": true,
							"internalType": "address",
							"name": "account",
							"type": "address"
						},
						{
							"indexed": true,
							"internalType": "address",
							"name": "sender",
							"type": "address"
						}
					],
					"name": "RoleGranted",
					"type": "event"
				},
				{
					"anonymous": false,
					"inputs": [
						{
							"indexed": true,
							"internalType": "bytes32",
							"name": "role",
							"type": "bytes32"
						},
						{
							"indexed": true,
							"internalType": "address",
							"name": "account",
							"type": "address"
						},
						{
							"indexed": true,
							"internalType": "address",
							"name": "sender",
							"type": "address"
						}
					],
					"name": "RoleRevoked",
					"type": "event"
				},
				{
					"inputs": [],
					"name": "DEFAULT_ADMIN_ROLE",
					"outputs": [
						{
							"internalType": "bytes32",
							"name": "",
							"type": "bytes32"
						}
					],
					"stateMutability": "view",
					"type": "function"
				},
				{
					"inputs": [],
					"name": "ERC1155storageContract",
					"outputs": [
						{
							"internalType": "contract IMintStorage",
							"name": "",
							"type": "address"
						}
					],
					"stateMutability": "view",
					"type": "function"
				},
				{
					"inputs": [],
					"name": "SALE_MANAGER_ROLE",
					"outputs": [
						{
							"internalType": "bytes32",
							"name": "",
							"type": "bytes32"
						}
					],
					"stateMutability": "view",
					"type": "function"
				},
				{
					"inputs": [],
					"name": "URI_MANAGER_ROLE",
					"outputs": [
						{
							"internalType": "bytes32",
							"name": "",
							"type": "bytes32"
						}
					],
					"stateMutability": "view",
					"type": "function"
				},
				{
					"inputs": [],
					"name": "buyNFT",
					"outputs": [],
					"stateMutability": "nonpayable",
					"type": "function"
				},
				{
					"inputs": [
						{
							"internalType": "uint256",
							"name": "discountRate",
							"type": "uint256"
						}
					],
					"name": "buyNftWithDiscount",
					"outputs": [],
					"stateMutability": "nonpayable",
					"type": "function"
				},
				{
					"inputs": [
						{
							"internalType": "address",
							"name": "prospectiveBuyer",
							"type": "address"
						},
						{
							"internalType": "uint256",
							"name": "discountRate",
							"type": "uint256"
						}
					],
					"name": "calculateCustomPrice",
					"outputs": [
						{
							"internalType": "uint256",
							"name": "",
							"type": "uint256"
						}
					],
					"stateMutability": "view",
					"type": "function"
				},
				{
					"inputs": [],
					"name": "getMaxSupply",
					"outputs": [
						{
							"internalType": "uint256",
							"name": "",
							"type": "uint256"
						}
					],
					"stateMutability": "view",
					"type": "function"
				},
				{
					"inputs": [],
					"name": "getNextUnusedToken",
					"outputs": [
						{
							"internalType": "uint256",
							"name": "",
							"type": "uint256"
						}
					],
					"stateMutability": "view",
					"type": "function"
				},
				{
					"inputs": [
						{
							"internalType": "bytes32",
							"name": "role",
							"type": "bytes32"
						}
					],
					"name": "getRoleAdmin",
					"outputs": [
						{
							"internalType": "bytes32",
							"name": "",
							"type": "bytes32"
						}
					],
					"stateMutability": "view",
					"type": "function"
				},
				{
					"inputs": [
						{
							"internalType": "bytes32",
							"name": "role",
							"type": "bytes32"
						},
						{
							"internalType": "address",
							"name": "account",
							"type": "address"
						}
					],
					"name": "grantRole",
					"outputs": [],
					"stateMutability": "nonpayable",
					"type": "function"
				},
				{
					"inputs": [
						{
							"internalType": "bytes32",
							"name": "role",
							"type": "bytes32"
						},
						{
							"internalType": "address",
							"name": "account",
							"type": "address"
						}
					],
					"name": "hasRole",
					"outputs": [
						{
							"internalType": "bool",
							"name": "",
							"type": "bool"
						}
					],
					"stateMutability": "view",
					"type": "function"
				},
				{
					"inputs": [],
					"name": "lastUpdate",
					"outputs": [
						{
							"internalType": "uint256",
							"name": "price",
							"type": "uint256"
						},
						{
							"internalType": "uint256",
							"name": "time",
							"type": "uint256"
						},
						{
							"internalType": "bool",
							"name": "saleIsLive",
							"type": "bool"
						}
					],
					"stateMutability": "view",
					"type": "function"
				},
				{
					"inputs": [],
					"name": "mintToTreasuryAddress",
					"outputs": [],
					"stateMutability": "nonpayable",
					"type": "function"
				},
				{
					"inputs": [
						{
							"internalType": "uint256[]",
							"name": "ids",
							"type": "uint256[]"
						},
						{
							"internalType": "string[]",
							"name": "uris",
							"type": "string[]"
						}
					],
					"name": "preLoadURIs",
					"outputs": [],
					"stateMutability": "nonpayable",
					"type": "function"
				},
				{
					"inputs": [],
					"name": "privilgedBuyerList",
					"outputs": [
						{
							"internalType": "contract IPrivilegedListStorage",
							"name": "",
							"type": "address"
						}
					],
					"stateMutability": "view",
					"type": "function"
				},
				{
					"inputs": [
						{
							"internalType": "bytes32",
							"name": "role",
							"type": "bytes32"
						},
						{
							"internalType": "address",
							"name": "account",
							"type": "address"
						}
					],
					"name": "renounceRole",
					"outputs": [],
					"stateMutability": "nonpayable",
					"type": "function"
				},
				{
					"inputs": [
						{
							"internalType": "bytes32",
							"name": "role",
							"type": "bytes32"
						},
						{
							"internalType": "address",
							"name": "account",
							"type": "address"
						}
					],
					"name": "revokeRole",
					"outputs": [],
					"stateMutability": "nonpayable",
					"type": "function"
				},
				{
					"inputs": [
						{
							"internalType": "uint256",
							"name": "unixTime",
							"type": "uint256"
						}
					],
					"name": "setEndTime",
					"outputs": [],
					"stateMutability": "nonpayable",
					"type": "function"
				},
				{
					"inputs": [
						{
							"internalType": "address",
							"name": "storageAddress",
							"type": "address"
						}
					],
					"name": "setStorageContractAddress",
					"outputs": [],
					"stateMutability": "nonpayable",
					"type": "function"
				},
				{
					"inputs": [
						{
							"internalType": "uint256",
							"name": "unixTime",
							"type": "uint256"
						}
					],
					"name": "setstartTime",
					"outputs": [],
					"stateMutability": "nonpayable",
					"type": "function"
				},
				{
					"inputs": [
						{
							"internalType": "bytes4",
							"name": "interfaceId",
							"type": "bytes4"
						}
					],
					"name": "supportsInterface",
					"outputs": [
						{
							"internalType": "bool",
							"name": "",
							"type": "bool"
						}
					],
					"stateMutability": "view",
					"type": "function"
				},
				{
					"inputs": [],
					"name": "treasuryAddress",
					"outputs": [
						{
							"internalType": "address",
							"name": "",
							"type": "address"
						}
					],
					"stateMutability": "view",
					"type": "function"
				},
				{
					"inputs": [],
					"name": "usdcEscrowStorageContract",
					"outputs": [
						{
							"internalType": "contract IUsdcStorage",
							"name": "",
							"type": "address"
						}
					],
					"stateMutability": "view",
					"type": "function"
				}
			],
			"devdoc": {
				"kind": "dev",
				"methods": {
					"getRoleAdmin(bytes32)": {
						"details": "Returns the admin role that controls `role`. See {grantRole} and {revokeRole}. To change a role's admin, use {_setRoleAdmin}."
					},
					"grantRole(bytes32,address)": {
						"details": "Grants `role` to `account`. If `account` had not been already granted `role`, emits a {RoleGranted} event. Requirements: - the caller must have ``role``'s admin role."
					},
					"hasRole(bytes32,address)": {
						"details": "Returns `true` if `account` has been granted `role`."
					},
					"renounceRole(bytes32,address)": {
						"details": "Revokes `role` from the calling account. Roles are often managed via {grantRole} and {revokeRole}: this function's purpose is to provide a mechanism for accounts to lose their privileges if they are compromised (such as when a trusted device is misplaced). If the calling account had been revoked `role`, emits a {RoleRevoked} event. Requirements: - the caller must be `account`."
					},
					"revokeRole(bytes32,address)": {
						"details": "Revokes `role` from `account`. If `account` had been granted `role`, emits a {RoleRevoked} event. Requirements: - the caller must have ``role``'s admin role."
					},
					"supportsInterface(bytes4)": {
						"details": "See {IERC165-supportsInterface}."
					}
				},
				"version": 1
			},
			"evm": {
				"assembly": "    /* \"contracts/Founding Citizens NFT Sale.sol\":2827:7431  contract FoundingNFTSale is AccessControlExtension {\r... */\n  mstore(0x40, 0x80)\n    /* \"contracts/Founding Citizens NFT Sale.sol\":3266:3276  1893484800 */\n  0x70dc4900\n    /* \"contracts/Founding Citizens NFT Sale.sol\":3248:3276  uint startTime  = 1893484800 */\n  0x05\n  sstore\n    /* \"contracts/Founding Citizens NFT Sale.sol\":3379:3389  1893484900 */\n  0x70dc4964\n    /* \"contracts/Founding Citizens NFT Sale.sol\":3361:3389  uint endTime    = 1893484900 */\n  0x06\n  sstore\n    /* \"contracts/Founding Citizens NFT Sale.sol\":3420:3425  10**6 */\n  0x0f4240\n    /* \"contracts/Founding Citizens NFT Sale.sol\":3450:3452  10 */\n  0x0a\n    /* \"contracts/Founding Citizens NFT Sale.sol\":3450:3460  10 * units */\n  tag_1\n  swap2\n  swap1\n  tag_2\n  jump\t// in\ntag_1:\n    /* \"contracts/Founding Citizens NFT Sale.sol\":3432:3460  uint startPrice = 10 * units */\n  0x07\n  sstore\n    /* \"contracts/Founding Citizens NFT Sale.sol\":3420:3425  10**6 */\n  0x0f4240\n    /* \"contracts/Founding Citizens NFT Sale.sol\":3516:3517  1 */\n  0x01\n    /* \"contracts/Founding Citizens NFT Sale.sol\":3516:3525  1 * units */\n  tag_3\n  swap2\n  swap1\n  tag_2\n  jump\t// in\ntag_3:\n    /* \"contracts/Founding Citizens NFT Sale.sol\":3500:3525  uint EndPrice = 1 * units */\n  0x08\n  sstore\n    /* \"contracts/Founding Citizens NFT Sale.sol\":3713:3750  Update(10000, block.timestamp, false) */\n  mload(0x40)\n  dup1\n  0x60\n  add\n  0x40\n  mstore\n  dup1\n    /* \"contracts/Founding Citizens NFT Sale.sol\":3720:3725  10000 */\n  0x2710\n    /* \"contracts/Founding Citizens NFT Sale.sol\":3713:3750  Update(10000, block.timestamp, false) */\n  dup2\n  mstore\n  0x20\n  add\n    /* \"contracts/Founding Citizens NFT Sale.sol\":3727:3742  block.timestamp */\n  timestamp\n    /* \"contracts/Founding Citizens NFT Sale.sol\":3713:3750  Update(10000, block.timestamp, false) */\n  dup2\n  mstore\n  0x20\n  add\n    /* \"contracts/Founding Citizens NFT Sale.sol\":3744:3749  false */\n  0x00\n    /* \"contracts/Founding Citizens NFT Sale.sol\":3713:3750  Update(10000, block.timestamp, false) */\n  iszero\n  iszero\n  dup2\n  mstore\n  pop\n    /* \"contracts/Founding Citizens NFT Sale.sol\":3686:3750  Update public lastUpdate = Update(10000, block.timestamp, false) */\n  0x09\n  0x00\n  dup3\n  add\n  mload\n  dup2\n  0x00\n  add\n  sstore\n  0x20\n  dup3\n  add\n  mload\n  dup2\n  0x01\n  add\n  sstore\n  0x40\n  dup3\n  add\n  mload\n  dup2\n  0x02\n  add\n  exp(0x0100, 0x00)\n  dup2\n  sload\n  dup2\n  0xff\n  mul\n  not\n  and\n  swap1\n  dup4\n  iszero\n  iszero\n  mul\n  or\n  swap1\n  sstore\n  pop\n  pop\n  pop\n    /* \"contracts/Founding Citizens NFT Sale.sol\":4112:4144  constructor() {\r... */\n  callvalue\n  dup1\n  iszero\n  tag_4\n  jumpi\n  0x00\n  dup1\n  revert\ntag_4:\n  pop\n    /* \"contracts/Founding Citizens NFT Sale.sol\":2827:7431  contract FoundingNFTSale is AccessControlExtension {\r... */\n  jump(tag_7)\n    /* \"#utility.yul\":7:355   */\ntag_2:\n  0x00\n    /* \"#utility.yul\":70:90   */\n  tag_10\n    /* \"#utility.yul\":88:89   */\n  dup3\n    /* \"#utility.yul\":70:90   */\n  tag_11\n  jump\t// in\ntag_10:\n    /* \"#utility.yul\":65:90   */\n  swap2\n  pop\n    /* \"#utility.yul\":104:124   */\n  tag_12\n    /* \"#utility.yul\":122:123   */\n  dup4\n    /* \"#utility.yul\":104:124   */\n  tag_11\n  jump\t// in\ntag_12:\n    /* \"#utility.yul\":99:124   */\n  swap3\n  pop\n    /* \"#utility.yul\":292:293   */\n  dup2\n    /* \"#utility.yul\":224:290   */\n  0xffffffffffffffffffffffffffffffffffffffffffffffffffffffffffffffff\n    /* \"#utility.yul\":220:294   */\n  div\n    /* \"#utility.yul\":217:218   */\n  dup4\n    /* \"#utility.yul\":214:295   */\n  gt\n    /* \"#utility.yul\":209:210   */\n  dup3\n    /* \"#utility.yul\":202:211   */\n  iszero\n    /* \"#utility.yul\":195:212   */\n  iszero\n    /* \"#utility.yul\":191:296   */\n  and\n    /* \"#utility.yul\":188:190   */\n  iszero\n  tag_13\n  jumpi\n    /* \"#utility.yul\":299:317   */\n  tag_14\n  tag_15\n  jump\t// in\ntag_14:\n    /* \"#utility.yul\":188:190   */\ntag_13:\n    /* \"#utility.yul\":347:348   */\n  dup3\n    /* \"#utility.yul\":344:345   */\n  dup3\n    /* \"#utility.yul\":340:349   */\n  mul\n    /* \"#utility.yul\":329:349   */\n  swap1\n  pop\n    /* \"#utility.yul\":55:355   */\n  swap3\n  swap2\n  pop\n  pop\n  jump\t// out\n    /* \"#utility.yul\":361:438   */\ntag_11:\n  0x00\n    /* \"#utility.yul\":427:432   */\n  dup2\n    /* \"#utility.yul\":416:432   */\n  swap1\n  pop\n    /* \"#utility.yul\":406:438   */\n  swap2\n  swap1\n  pop\n  jump\t// out\n    /* \"#utility.yul\":444:624   */\ntag_15:\n    /* \"#utility.yul\":492:569   */\n  0x4e487b7100000000000000000000000000000000000000000000000000000000\n    /* \"#utility.yul\":489:490   */\n  0x00\n    /* \"#utility.yul\":482:570   */\n  mstore\n    /* \"#utility.yul\":589:593   */\n  0x11\n    /* \"#utility.yul\":586:587   */\n  0x04\n    /* \"#utility.yul\":579:594   */\n  mstore\n    /* \"#utility.yul\":613:617   */\n  0x24\n    /* \"#utility.yul\":610:611   */\n  0x00\n    /* \"#utility.yul\":603:618   */\n  revert\n    /* \"contracts/Founding Citizens NFT Sale.sol\":2827:7431  contract FoundingNFTSale is AccessControlExtension {\r... */\ntag_7:\n  dataSize(sub_0)\n  dup1\n  dataOffset(sub_0)\n  0x00\n  codecopy\n  0x00\n  return\nstop\n\nsub_0: assembly {\n        /* \"contracts/Founding Citizens NFT Sale.sol\":2827:7431  contract FoundingNFTSale is AccessControlExtension {\r... */\n      mstore(0x40, 0x80)\n      callvalue\n      dup1\n      iszero\n      tag_1\n      jumpi\n      0x00\n      dup1\n      revert\n    tag_1:\n      pop\n      jumpi(tag_2, lt(calldatasize, 0x04))\n      shr(0xe0, calldataload(0x00))\n      dup1\n      0x91232f18\n      gt\n      tag_27\n      jumpi\n      dup1\n      0xc0463711\n      gt\n      tag_28\n      jumpi\n      dup1\n      0xc0463711\n      eq\n      tag_21\n      jumpi\n      dup1\n      0xc5dae48f\n      eq\n      tag_22\n      jumpi\n      dup1\n      0xc5f956af\n      eq\n      tag_23\n      jumpi\n      dup1\n      0xccb98ffc\n      eq\n      tag_24\n      jumpi\n      dup1\n      0xd547741f\n      eq\n      tag_25\n      jumpi\n      dup1\n      0xf121da92\n      eq\n      tag_26\n      jumpi\n      jump(tag_2)\n    tag_28:\n      dup1\n      0x91232f18\n      eq\n      tag_15\n      jumpi\n      dup1\n      0x91d14854\n      eq\n      tag_16\n      jumpi\n      dup1\n      0x944044a1\n      eq\n      tag_17\n      jumpi\n      dup1\n      0xa217fddf\n      eq\n      tag_18\n      jumpi\n      dup1\n      0xab6c0306\n      eq\n      tag_19\n      jumpi\n      dup1\n      0xbff29cee\n      eq\n      tag_20\n      jumpi\n      jump(tag_2)\n    tag_27:\n      dup1\n      0x51f7598c\n      gt\n      tag_29\n      jumpi\n      dup1\n      0x51f7598c\n      eq\n      tag_9\n      jumpi\n      dup1\n      0x551b42a8\n      eq\n      tag_10\n      jumpi\n      dup1\n      0x5ce7e721\n      eq\n      tag_11\n      jumpi\n      dup1\n      0x682d07d9\n      eq\n      tag_12\n      jumpi\n      dup1\n      0x68fc01a2\n      eq\n      tag_13\n      jumpi\n      dup1\n      0x8c83faeb\n      eq\n      tag_14\n      jumpi\n      jump(tag_2)\n    tag_29:\n      dup1\n      0x01ffc9a7\n      eq\n      tag_3\n      jumpi\n      dup1\n      0x248a9ca3\n      eq\n      tag_4\n      jumpi\n      dup1\n      0x2f2ff15d\n      eq\n      tag_5\n      jumpi\n      dup1\n      0x36568abe\n      eq\n      tag_6\n      jumpi\n      dup1\n      0x4c0f38c2\n      eq\n      tag_7\n      jumpi\n      dup1\n      0x4c9b73da\n      eq\n      tag_8\n      jumpi\n    tag_2:\n      0x00\n      dup1\n      revert\n        /* \"@openzeppelin/contracts@4.4.2/access/AccessControl.sol\":2605:2807  function supportsInterface(bytes4 interfaceId) public view virtual override returns (bool) {... */\n    tag_3:\n      tag_30\n      0x04\n      dup1\n      calldatasize\n      sub\n      dup2\n      add\n      swap1\n      tag_31\n      swap2\n      swap1\n      tag_32\n      jump\t// in\n    tag_31:\n      tag_33\n      jump\t// in\n    tag_30:\n      mload(0x40)\n      tag_34\n      swap2\n      swap1\n      tag_35\n      jump\t// in\n    tag_34:\n      mload(0x40)\n      dup1\n      swap2\n      sub\n      swap1\n      return\n        /* \"@openzeppelin/contracts@4.4.2/access/AccessControl.sol\":3977:4098  function getRoleAdmin(bytes32 role) public view override returns (bytes32) {... */\n    tag_4:\n      tag_36\n      0x04\n      dup1\n      calldatasize\n      sub\n      dup2\n      add\n      swap1\n      tag_37\n      swap2\n      swap1\n      tag_38\n      jump\t// in\n    tag_37:\n      tag_39\n      jump\t// in\n    tag_36:\n      mload(0x40)\n      tag_40\n      swap2\n      swap1\n      tag_41\n      jump\t// in\n    tag_40:\n      mload(0x40)\n      dup1\n      swap2\n      sub\n      swap1\n      return\n        /* \"@openzeppelin/contracts@4.4.2/access/AccessControl.sol\":4348:4493  function grantRole(bytes32 role, address account) public virtual override onlyRole(getRoleAdmin(role)) {... */\n    tag_5:\n      tag_42\n      0x04\n      dup1\n      calldatasize\n      sub\n      dup2\n      add\n      swap1\n      tag_43\n      swap2\n      swap1\n      tag_44\n      jump\t// in\n    tag_43:\n      tag_45\n      jump\t// in\n    tag_42:\n      stop\n        /* \"@openzeppelin/contracts@4.4.2/access/AccessControl.sol\":5365:5579  function renounceRole(bytes32 role, address account) public virtual override {... */\n    tag_6:\n      tag_46\n      0x04\n      dup1\n      calldatasize\n      sub\n      dup2\n      add\n      swap1\n      tag_47\n      swap2\n      swap1\n      tag_44\n      jump\t// in\n    tag_47:\n      tag_48\n      jump\t// in\n    tag_46:\n      stop\n        /* \"contracts/Founding Citizens NFT Sale.sol\":5353:5480  function getMaxSupply() public view returns(uint) {\r... */\n    tag_7:\n      tag_49\n      tag_50\n      jump\t// in\n    tag_49:\n      mload(0x40)\n      tag_51\n      swap2\n      swap1\n      tag_52\n      jump\t// in\n    tag_51:\n      mload(0x40)\n      dup1\n      swap2\n      sub\n      swap1\n      return\n        /* \"contracts/Founding Citizens NFT Sale.sol\":6839:7009  function buyNftWithDiscount(uint discountRate) public pushesUpdate {\r... */\n    tag_8:\n      tag_53\n      0x04\n      dup1\n      calldatasize\n      sub\n      dup2\n      add\n      swap1\n      tag_54\n      swap2\n      swap1\n      tag_55\n      jump\t// in\n    tag_54:\n      tag_56\n      jump\t// in\n    tag_53:\n      stop\n        /* \"contracts/Founding Citizens NFT Sale.sol\":4651:4818  function setStorageContractAddress(address storageAddress) public onlyRole(DEFAULT_ADMIN_ROLE) {\r... */\n    tag_9:\n      tag_57\n      0x04\n      dup1\n      calldatasize\n      sub\n      dup2\n      add\n      swap1\n      tag_58\n      swap2\n      swap1\n      tag_59\n      jump\t// in\n    tag_58:\n      tag_60\n      jump\t// in\n    tag_57:\n      stop\n        /* \"contracts/Founding Citizens NFT Sale.sol\":3159:3233  bytes32 public constant SALE_MANAGER_ROLE = keccak256(\"SALE_MANAGER_ROLE\") */\n    tag_10:\n      tag_61\n      tag_62\n      jump\t// in\n    tag_61:\n      mload(0x40)\n      tag_63\n      swap2\n      swap1\n      tag_41\n      jump\t// in\n    tag_63:\n      mload(0x40)\n      dup1\n      swap2\n      sub\n      swap1\n      return\n        /* \"contracts/Founding Citizens NFT Sale.sol\":2934:2982  IPrivilegedListStorage public privilgedBuyerList */\n    tag_11:\n      tag_64\n      tag_65\n      jump\t// in\n    tag_64:\n      mload(0x40)\n      tag_66\n      swap2\n      swap1\n      tag_67\n      jump\t// in\n    tag_66:\n      mload(0x40)\n      dup1\n      swap2\n      sub\n      swap1\n      return\n        /* \"contracts/Founding Citizens NFT Sale.sol\":3080:3152  bytes32 public constant URI_MANAGER_ROLE = keccak256(\"URI_MANAGER_ROLE\") */\n    tag_12:\n      tag_68\n      tag_69\n      jump\t// in\n    tag_68:\n      mload(0x40)\n      tag_70\n      swap2\n      swap1\n      tag_41\n      jump\t// in\n    tag_70:\n      mload(0x40)\n      dup1\n      swap2\n      sub\n      swap1\n      return\n        /* \"contracts/Founding Citizens NFT Sale.sol\":5206:5345  function getNextUnusedToken() public view returns(uint) {\r... */\n    tag_13:\n      tag_71\n      tag_72\n      jump\t// in\n    tag_71:\n      mload(0x40)\n      tag_73\n      swap2\n      swap1\n      tag_52\n      jump\t// in\n    tag_73:\n      mload(0x40)\n      dup1\n      swap2\n      sub\n      swap1\n      return\n        /* \"contracts/Founding Citizens NFT Sale.sol\":2885:2927  IMintStorage public ERC1155storageContract */\n    tag_14:\n      tag_74\n      tag_75\n      jump\t// in\n    tag_74:\n      mload(0x40)\n      tag_76\n      swap2\n      swap1\n      tag_77\n      jump\t// in\n    tag_76:\n      mload(0x40)\n      dup1\n      swap2\n      sub\n      swap1\n      return\n        /* \"contracts/Founding Citizens NFT Sale.sol\":7017:7428  function mintToTreasuryAddress() public requiresUpdate {\r... */\n    tag_15:\n      tag_78\n      tag_79\n      jump\t// in\n    tag_78:\n      stop\n        /* \"@openzeppelin/contracts@4.4.2/access/AccessControl.sol\":2894:3031  function hasRole(bytes32 role, address account) public view override returns (bool) {... */\n    tag_16:\n      tag_80\n      0x04\n      dup1\n      calldatasize\n      sub\n      dup2\n      add\n      swap1\n      tag_81\n      swap2\n      swap1\n      tag_44\n      jump\t// in\n    tag_81:\n      tag_82\n      jump\t// in\n    tag_80:\n      mload(0x40)\n      tag_83\n      swap2\n      swap1\n      tag_35\n      jump\t// in\n    tag_83:\n      mload(0x40)\n      dup1\n      swap2\n      sub\n      swap1\n      return\n        /* \"contracts/Founding Citizens NFT Sale.sol\":5488:5766  function setstartTime(uint unixTime) public {\r... */\n    tag_17:\n      tag_84\n      0x04\n      dup1\n      calldatasize\n      sub\n      dup2\n      add\n      swap1\n      tag_85\n      swap2\n      swap1\n      tag_55\n      jump\t// in\n    tag_85:\n      tag_86\n      jump\t// in\n    tag_84:\n      stop\n        /* \"@openzeppelin/contracts@4.4.2/access/AccessControl.sol\":2012:2061  bytes32 public constant DEFAULT_ADMIN_ROLE = 0x00 */\n    tag_18:\n      tag_87\n      tag_88\n      jump\t// in\n    tag_87:\n      mload(0x40)\n      tag_89\n      swap2\n      swap1\n      tag_41\n      jump\t// in\n    tag_89:\n      mload(0x40)\n      dup1\n      swap2\n      sub\n      swap1\n      return\n        /* \"contracts/Founding Citizens NFT Sale.sol\":6056:6506  function calculateCustomPrice(address prospectiveBuyer, uint discountRate) \r... */\n    tag_19:\n      tag_90\n      0x04\n      dup1\n      calldatasize\n      sub\n      dup2\n      add\n      swap1\n      tag_91\n      swap2\n      swap1\n      tag_92\n      jump\t// in\n    tag_91:\n      tag_93\n      jump\t// in\n    tag_90:\n      mload(0x40)\n      tag_94\n      swap2\n      swap1\n      tag_52\n      jump\t// in\n    tag_94:\n      mload(0x40)\n      dup1\n      swap2\n      sub\n      swap1\n      return\n        /* \"contracts/Founding Citizens NFT Sale.sol\":6686:6831  function buyNFT() public pushesUpdate { //requires using existing balance\r... */\n    tag_20:\n      tag_95\n      tag_96\n      jump\t// in\n    tag_95:\n      stop\n        /* \"contracts/Founding Citizens NFT Sale.sol\":3686:3750  Update public lastUpdate = Update(10000, block.timestamp, false) */\n    tag_21:\n      tag_97\n      tag_98\n      jump\t// in\n    tag_97:\n      mload(0x40)\n      tag_99\n      swap4\n      swap3\n      swap2\n      swap1\n      tag_100\n      jump\t// in\n    tag_99:\n      mload(0x40)\n      dup1\n      swap2\n      sub\n      swap1\n      return\n        /* \"contracts/Founding Citizens NFT Sale.sol\":2989:3034  IUsdcStorage public usdcEscrowStorageContract */\n    tag_22:\n      tag_101\n      tag_102\n      jump\t// in\n    tag_101:\n      mload(0x40)\n      tag_103\n      swap2\n      swap1\n      tag_104\n      jump\t// in\n    tag_103:\n      mload(0x40)\n      dup1\n      swap2\n      sub\n      swap1\n      return\n        /* \"contracts/Founding Citizens NFT Sale.sol\":3041:3071  address public treasuryAddress */\n    tag_23:\n      tag_105\n      tag_106\n      jump\t// in\n    tag_105:\n      mload(0x40)\n      tag_107\n      swap2\n      swap1\n      tag_108\n      jump\t// in\n    tag_107:\n      mload(0x40)\n      dup1\n      swap2\n      sub\n      swap1\n      return\n        /* \"contracts/Founding Citizens NFT Sale.sol\":5774:6048  function setEndTime(uint unixTime) public {\r... */\n    tag_24:\n      tag_109\n      0x04\n      dup1\n      calldatasize\n      sub\n      dup2\n      add\n      swap1\n      tag_110\n      swap2\n      swap1\n      tag_55\n      jump\t// in\n    tag_110:\n      tag_111\n      jump\t// in\n    tag_109:\n      stop\n        /* \"@openzeppelin/contracts@4.4.2/access/AccessControl.sol\":4727:4874  function revokeRole(bytes32 role, address account) public virtual override onlyRole(getRoleAdmin(role)) {... */\n    tag_25:\n      tag_112\n      0x04\n      dup1\n      calldatasize\n      sub\n      dup2\n      add\n      swap1\n      tag_113\n      swap2\n      swap1\n      tag_44\n      jump\t// in\n    tag_113:\n      tag_114\n      jump\t// in\n    tag_112:\n      stop\n        /* \"contracts/Founding Citizens NFT Sale.sol\":5044:5198  function preLoadURIs(uint[] memory ids, string[] memory uris) \r... */\n    tag_26:\n      tag_115\n      0x04\n      dup1\n      calldatasize\n      sub\n      dup2\n      add\n      swap1\n      tag_116\n      swap2\n      swap1\n      tag_117\n      jump\t// in\n    tag_116:\n      tag_118\n      jump\t// in\n    tag_115:\n      stop\n        /* \"@openzeppelin/contracts@4.4.2/access/AccessControl.sol\":2605:2807  function supportsInterface(bytes4 interfaceId) public view virtual override returns (bool) {... */\n    tag_33:\n        /* \"@openzeppelin/contracts@4.4.2/access/AccessControl.sol\":2690:2694  bool */\n      0x00\n        /* \"@openzeppelin/contracts@4.4.2/access/AccessControl.sol\":2728:2760  type(IAccessControl).interfaceId */\n      0x7965db0b00000000000000000000000000000000000000000000000000000000\n        /* \"@openzeppelin/contracts@4.4.2/access/AccessControl.sol\":2713:2760  interfaceId == type(IAccessControl).interfaceId */\n      not(0xffffffffffffffffffffffffffffffffffffffffffffffffffffffff)\n      and\n        /* \"@openzeppelin/contracts@4.4.2/access/AccessControl.sol\":2713:2724  interfaceId */\n      dup3\n        /* \"@openzeppelin/contracts@4.4.2/access/AccessControl.sol\":2713:2760  interfaceId == type(IAccessControl).interfaceId */\n      not(0xffffffffffffffffffffffffffffffffffffffffffffffffffffffff)\n      and\n      eq\n        /* \"@openzeppelin/contracts@4.4.2/access/AccessControl.sol\":2713:2800  interfaceId == type(IAccessControl).interfaceId || super.supportsInterface(interfaceId) */\n      dup1\n      tag_120\n      jumpi\n      pop\n        /* \"@openzeppelin/contracts@4.4.2/access/AccessControl.sol\":2764:2800  super.supportsInterface(interfaceId) */\n      tag_121\n        /* \"@openzeppelin/contracts@4.4.2/access/AccessControl.sol\":2788:2799  interfaceId */\n      dup3\n        /* \"@openzeppelin/contracts@4.4.2/access/AccessControl.sol\":2764:2787  super.supportsInterface */\n      tag_122\n        /* \"@openzeppelin/contracts@4.4.2/access/AccessControl.sol\":2764:2800  super.supportsInterface(interfaceId) */\n      jump\t// in\n    tag_121:\n        /* \"@openzeppelin/contracts@4.4.2/access/AccessControl.sol\":2713:2800  interfaceId == type(IAccessControl).interfaceId || super.supportsInterface(interfaceId) */\n    tag_120:\n        /* \"@openzeppelin/contracts@4.4.2/access/AccessControl.sol\":2706:2800  return interfaceId == type(IAccessControl).interfaceId || super.supportsInterface(interfaceId) */\n      swap1\n      pop\n        /* \"@openzeppelin/contracts@4.4.2/access/AccessControl.sol\":2605:2807  function supportsInterface(bytes4 interfaceId) public view virtual override returns (bool) {... */\n      swap2\n      swap1\n      pop\n      jump\t// out\n        /* \"@openzeppelin/contracts@4.4.2/access/AccessControl.sol\":3977:4098  function getRoleAdmin(bytes32 role) public view override returns (bytes32) {... */\n    tag_39:\n        /* \"@openzeppelin/contracts@4.4.2/access/AccessControl.sol\":4043:4050  bytes32 */\n      0x00\n        /* \"@openzeppelin/contracts@4.4.2/access/AccessControl.sol\":4069:4075  _roles */\n      dup1\n        /* \"@openzeppelin/contracts@4.4.2/access/AccessControl.sol\":4069:4081  _roles[role] */\n      0x00\n        /* \"@openzeppelin/contracts@4.4.2/access/AccessControl.sol\":4076:4080  role */\n      dup4\n        /* \"@openzeppelin/contracts@4.4.2/access/AccessControl.sol\":4069:4081  _roles[role] */\n      dup2\n      mstore\n      0x20\n      add\n      swap1\n      dup2\n      mstore\n      0x20\n      add\n      0x00\n      keccak256\n        /* \"@openzeppelin/contracts@4.4.2/access/AccessControl.sol\":4069:4091  _roles[role].adminRole */\n      0x01\n      add\n      sload\n        /* \"@openzeppelin/contracts@4.4.2/access/AccessControl.sol\":4062:4091  return _roles[role].adminRole */\n      swap1\n      pop\n        /* \"@openzeppelin/contracts@4.4.2/access/AccessControl.sol\":3977:4098  function getRoleAdmin(bytes32 role) public view override returns (bytes32) {... */\n      swap2\n      swap1\n      pop\n      jump\t// out\n        /* \"@openzeppelin/contracts@4.4.2/access/AccessControl.sol\":4348:4493  function grantRole(bytes32 role, address account) public virtual override onlyRole(getRoleAdmin(role)) {... */\n    tag_45:\n        /* \"@openzeppelin/contracts@4.4.2/access/AccessControl.sol\":4431:4449  getRoleAdmin(role) */\n      tag_124\n        /* \"@openzeppelin/contracts@4.4.2/access/AccessControl.sol\":4444:4448  role */\n      dup3\n        /* \"@openzeppelin/contracts@4.4.2/access/AccessControl.sol\":4431:4443  getRoleAdmin */\n      tag_39\n        /* \"@openzeppelin/contracts@4.4.2/access/AccessControl.sol\":4431:4449  getRoleAdmin(role) */\n      jump\t// in\n    tag_124:\n        /* \"@openzeppelin/contracts@4.4.2/access/AccessControl.sol\":2490:2520  _checkRole(role, _msgSender()) */\n      tag_126\n        /* \"@openzeppelin/contracts@4.4.2/access/AccessControl.sol\":2501:2505  role */\n      dup2\n        /* \"@openzeppelin/contracts@4.4.2/access/AccessControl.sol\":2507:2519  _msgSender() */\n      tag_127\n        /* \"@openzeppelin/contracts@4.4.2/access/AccessControl.sol\":2507:2517  _msgSender */\n      tag_128\n        /* \"@openzeppelin/contracts@4.4.2/access/AccessControl.sol\":2507:2519  _msgSender() */\n      jump\t// in\n    tag_127:\n        /* \"@openzeppelin/contracts@4.4.2/access/AccessControl.sol\":2490:2500  _checkRole */\n      tag_129\n        /* \"@openzeppelin/contracts@4.4.2/access/AccessControl.sol\":2490:2520  _checkRole(role, _msgSender()) */\n      jump\t// in\n    tag_126:\n        /* \"@openzeppelin/contracts@4.4.2/access/AccessControl.sol\":4461:4486  _grantRole(role, account) */\n      tag_131\n        /* \"@openzeppelin/contracts@4.4.2/access/AccessControl.sol\":4472:4476  role */\n      dup4\n        /* \"@openzeppelin/contracts@4.4.2/access/AccessControl.sol\":4478:4485  account */\n      dup4\n        /* \"@openzeppelin/contracts@4.4.2/access/AccessControl.sol\":4461:4471  _grantRole */\n      tag_132\n        /* \"@openzeppelin/contracts@4.4.2/access/AccessControl.sol\":4461:4486  _grantRole(role, account) */\n      jump\t// in\n    tag_131:\n        /* \"@openzeppelin/contracts@4.4.2/access/AccessControl.sol\":4348:4493  function grantRole(bytes32 role, address account) public virtual override onlyRole(getRoleAdmin(role)) {... */\n      pop\n      pop\n      pop\n      jump\t// out\n        /* \"@openzeppelin/contracts@4.4.2/access/AccessControl.sol\":5365:5579  function renounceRole(bytes32 role, address account) public virtual override {... */\n    tag_48:\n        /* \"@openzeppelin/contracts@4.4.2/access/AccessControl.sol\":5471:5483  _msgSender() */\n      tag_134\n        /* \"@openzeppelin/contracts@4.4.2/access/AccessControl.sol\":5471:5481  _msgSender */\n      tag_128\n        /* \"@openzeppelin/contracts@4.4.2/access/AccessControl.sol\":5471:5483  _msgSender() */\n      jump\t// in\n    tag_134:\n        /* \"@openzeppelin/contracts@4.4.2/access/AccessControl.sol\":5460:5483  account == _msgSender() */\n      0xffffffffffffffffffffffffffffffffffffffff\n      and\n        /* \"@openzeppelin/contracts@4.4.2/access/AccessControl.sol\":5460:5467  account */\n      dup2\n        /* \"@openzeppelin/contracts@4.4.2/access/AccessControl.sol\":5460:5483  account == _msgSender() */\n      0xffffffffffffffffffffffffffffffffffffffff\n      and\n      eq\n        /* \"@openzeppelin/contracts@4.4.2/access/AccessControl.sol\":5452:5535  require(account == _msgSender(), \"AccessControl: can only renounce roles for self\") */\n      tag_135\n      jumpi\n      mload(0x40)\n      0x08c379a000000000000000000000000000000000000000000000000000000000\n      dup2\n      mstore\n      0x04\n      add\n      tag_136\n      swap1\n      tag_137\n      jump\t// in\n    tag_136:\n      mload(0x40)\n      dup1\n      swap2\n      sub\n      swap1\n      revert\n    tag_135:\n        /* \"@openzeppelin/contracts@4.4.2/access/AccessControl.sol\":5546:5572  _revokeRole(role, account) */\n      tag_138\n        /* \"@openzeppelin/contracts@4.4.2/access/AccessControl.sol\":5558:5562  role */\n      dup3\n        /* \"@openzeppelin/contracts@4.4.2/access/AccessControl.sol\":5564:5571  account */\n      dup3\n        /* \"@openzeppelin/contracts@4.4.2/access/AccessControl.sol\":5546:5557  _revokeRole */\n      tag_139\n        /* \"@openzeppelin/contracts@4.4.2/access/AccessControl.sol\":5546:5572  _revokeRole(role, account) */\n      jump\t// in\n    tag_138:\n        /* \"@openzeppelin/contracts@4.4.2/access/AccessControl.sol\":5365:5579  function renounceRole(bytes32 role, address account) public virtual override {... */\n      pop\n      pop\n      jump\t// out\n        /* \"contracts/Founding Citizens NFT Sale.sol\":5353:5480  function getMaxSupply() public view returns(uint) {\r... */\n    tag_50:\n        /* \"contracts/Founding Citizens NFT Sale.sol\":5397:5401  uint */\n      0x00\n        /* \"contracts/Founding Citizens NFT Sale.sol\":5434:5456  ERC1155storageContract */\n      0x01\n      0x00\n      swap1\n      sload\n      swap1\n      0x0100\n      exp\n      swap1\n      div\n      0xffffffffffffffffffffffffffffffffffffffff\n      and\n        /* \"contracts/Founding Citizens NFT Sale.sol\":5421:5470  IMintStorage(ERC1155storageContract).getMaxSupply */\n      0xffffffffffffffffffffffffffffffffffffffff\n      and\n      0x4c0f38c2\n        /* \"contracts/Founding Citizens NFT Sale.sol\":5421:5472  IMintStorage(ERC1155storageContract).getMaxSupply() */\n      mload(0x40)\n      dup2\n      0xffffffff\n      and\n      0xe0\n      shl\n      dup2\n      mstore\n      0x04\n      add\n      0x20\n      mload(0x40)\n      dup1\n      dup4\n      sub\n      dup2\n      dup7\n      dup1\n      extcodesize\n      iszero\n      dup1\n      iszero\n      tag_141\n      jumpi\n      0x00\n      dup1\n      revert\n    tag_141:\n      pop\n      gas\n      staticcall\n      iszero\n      dup1\n      iszero\n      tag_143\n      jumpi\n      returndatasize\n      0x00\n      dup1\n      returndatacopy\n      revert(0x00, returndatasize)\n    tag_143:\n      pop\n      pop\n      pop\n      pop\n      mload(0x40)\n      returndatasize\n      not(0x1f)\n      0x1f\n      dup3\n      add\n      and\n      dup3\n      add\n      dup1\n      0x40\n      mstore\n      pop\n      dup2\n      add\n      swap1\n      tag_144\n      swap2\n      swap1\n      tag_145\n      jump\t// in\n    tag_144:\n        /* \"contracts/Founding Citizens NFT Sale.sol\":5414:5472  return IMintStorage(ERC1155storageContract).getMaxSupply() */\n      swap1\n      pop\n        /* \"contracts/Founding Citizens NFT Sale.sol\":5353:5480  function getMaxSupply() public view returns(uint) {\r... */\n      swap1\n      jump\t// out\n        /* \"contracts/Founding Citizens NFT Sale.sol\":6839:7009  function buyNftWithDiscount(uint discountRate) public pushesUpdate {\r... */\n    tag_56:\n        /* \"contracts/Founding Citizens NFT Sale.sol\":3933:3946  updateState() */\n      tag_147\n        /* \"contracts/Founding Citizens NFT Sale.sol\":3933:3944  updateState */\n      tag_148\n        /* \"contracts/Founding Citizens NFT Sale.sol\":3933:3946  updateState() */\n      jump\t// in\n    tag_147:\n        /* \"contracts/Founding Citizens NFT Sale.sol\":6917:6927  uint price */\n      0x00\n        /* \"contracts/Founding Citizens NFT Sale.sol\":6930:6976  calculateCustomPrice(msg.sender, discountRate) */\n      tag_150\n        /* \"contracts/Founding Citizens NFT Sale.sol\":6951:6961  msg.sender */\n      caller\n        /* \"contracts/Founding Citizens NFT Sale.sol\":6963:6975  discountRate */\n      dup4\n        /* \"contracts/Founding Citizens NFT Sale.sol\":6930:6950  calculateCustomPrice */\n      tag_93\n        /* \"contracts/Founding Citizens NFT Sale.sol\":6930:6976  calculateCustomPrice(msg.sender, discountRate) */\n      jump\t// in\n    tag_150:\n        /* \"contracts/Founding Citizens NFT Sale.sol\":6917:6976  uint price = calculateCustomPrice(msg.sender, discountRate) */\n      swap1\n      pop\n        /* \"contracts/Founding Citizens NFT Sale.sol\":6987:7001  _buyNFT(price) */\n      tag_151\n        /* \"contracts/Founding Citizens NFT Sale.sol\":6995:7000  price */\n      dup2\n        /* \"contracts/Founding Citizens NFT Sale.sol\":6987:6994  _buyNFT */\n      tag_152\n        /* \"contracts/Founding Citizens NFT Sale.sol\":6987:7001  _buyNFT(price) */\n      jump\t// in\n    tag_151:\n        /* \"contracts/Founding Citizens NFT Sale.sol\":3957:3958  _ */\n      pop\n        /* \"contracts/Founding Citizens NFT Sale.sol\":6839:7009  function buyNftWithDiscount(uint discountRate) public pushesUpdate {\r... */\n      pop\n      jump\t// out\n        /* \"contracts/Founding Citizens NFT Sale.sol\":4651:4818  function setStorageContractAddress(address storageAddress) public onlyRole(DEFAULT_ADMIN_ROLE) {\r... */\n    tag_60:\n        /* \"@openzeppelin/contracts@4.4.2/access/AccessControl.sol\":2057:2061  0x00 */\n      0x00\n        /* \"contracts/Founding Citizens NFT Sale.sol\":4726:4744  DEFAULT_ADMIN_ROLE */\n      dup1\n      shl\n        /* \"@openzeppelin/contracts@4.4.2/access/AccessControl.sol\":2490:2520  _checkRole(role, _msgSender()) */\n      tag_154\n        /* \"@openzeppelin/contracts@4.4.2/access/AccessControl.sol\":2501:2505  role */\n      dup2\n        /* \"@openzeppelin/contracts@4.4.2/access/AccessControl.sol\":2507:2519  _msgSender() */\n      tag_155\n        /* \"@openzeppelin/contracts@4.4.2/access/AccessControl.sol\":2507:2517  _msgSender */\n      tag_128\n        /* \"@openzeppelin/contracts@4.4.2/access/AccessControl.sol\":2507:2519  _msgSender() */\n      jump\t// in\n    tag_155:\n        /* \"@openzeppelin/contracts@4.4.2/access/AccessControl.sol\":2490:2500  _checkRole */\n      tag_129\n        /* \"@openzeppelin/contracts@4.4.2/access/AccessControl.sol\":2490:2520  _checkRole(role, _msgSender()) */\n      jump\t// in\n    tag_154:\n        /* \"contracts/Founding Citizens NFT Sale.sol\":4795:4809  storageAddress */\n      dup2\n        /* \"contracts/Founding Citizens NFT Sale.sol\":4757:4779  ERC1155storageContract */\n      0x01\n      0x00\n        /* \"contracts/Founding Citizens NFT Sale.sol\":4757:4810  ERC1155storageContract = IMintStorage(storageAddress) */\n      0x0100\n      exp\n      dup2\n      sload\n      dup2\n      0xffffffffffffffffffffffffffffffffffffffff\n      mul\n      not\n      and\n      swap1\n      dup4\n      0xffffffffffffffffffffffffffffffffffffffff\n      and\n      mul\n      or\n      swap1\n      sstore\n      pop\n        /* \"contracts/Founding Citizens NFT Sale.sol\":4651:4818  function setStorageContractAddress(address storageAddress) public onlyRole(DEFAULT_ADMIN_ROLE) {\r... */\n      pop\n      pop\n      jump\t// out\n        /* \"contracts/Founding Citizens NFT Sale.sol\":3159:3233  bytes32 public constant SALE_MANAGER_ROLE = keccak256(\"SALE_MANAGER_ROLE\") */\n    tag_62:\n        /* \"contracts/Founding Citizens NFT Sale.sol\":3203:3233  keccak256(\"SALE_MANAGER_ROLE\") */\n      0x988301af8238f779281a300de031815cd01b48e9f1ae47a0f91ed6584213624a\n        /* \"contracts/Founding Citizens NFT Sale.sol\":3159:3233  bytes32 public constant SALE_MANAGER_ROLE = keccak256(\"SALE_MANAGER_ROLE\") */\n      dup2\n      jump\t// out\n        /* \"contracts/Founding Citizens NFT Sale.sol\":2934:2982  IPrivilegedListStorage public privilgedBuyerList */\n    tag_65:\n      0x02\n      0x00\n      swap1\n      sload\n      swap1\n      0x0100\n      exp\n      swap1\n      div\n      0xffffffffffffffffffffffffffffffffffffffff\n      and\n      dup2\n      jump\t// out\n        /* \"contracts/Founding Citizens NFT Sale.sol\":3080:3152  bytes32 public constant URI_MANAGER_ROLE = keccak256(\"URI_MANAGER_ROLE\") */\n    tag_69:\n        /* \"contracts/Founding Citizens NFT Sale.sol\":3123:3152  keccak256(\"URI_MANAGER_ROLE\") */\n      0xa70a2d8710fed9f014c8c2af50c7c2f6b25748ae4cded822e03b7beed44cf3a8\n        /* \"contracts/Founding Citizens NFT Sale.sol\":3080:3152  bytes32 public constant URI_MANAGER_ROLE = keccak256(\"URI_MANAGER_ROLE\") */\n      dup2\n      jump\t// out\n        /* \"contracts/Founding Citizens NFT Sale.sol\":5206:5345  function getNextUnusedToken() public view returns(uint) {\r... */\n    tag_72:\n        /* \"contracts/Founding Citizens NFT Sale.sol\":5256:5260  uint */\n      0x00\n        /* \"contracts/Founding Citizens NFT Sale.sol\":5293:5315  ERC1155storageContract */\n      0x01\n      0x00\n      swap1\n      sload\n      swap1\n      0x0100\n      exp\n      swap1\n      div\n      0xffffffffffffffffffffffffffffffffffffffff\n      and\n        /* \"contracts/Founding Citizens NFT Sale.sol\":5280:5335  IMintStorage(ERC1155storageContract).getNextUnusedToken */\n      0xffffffffffffffffffffffffffffffffffffffff\n      and\n      0x68fc01a2\n        /* \"contracts/Founding Citizens NFT Sale.sol\":5280:5337  IMintStorage(ERC1155storageContract).getNextUnusedToken() */\n      mload(0x40)\n      dup2\n      0xffffffff\n      and\n      0xe0\n      shl\n      dup2\n      mstore\n      0x04\n      add\n      0x20\n      mload(0x40)\n      dup1\n      dup4\n      sub\n      dup2\n      dup7\n      dup1\n      extcodesize\n      iszero\n      dup1\n      iszero\n      tag_158\n      jumpi\n      0x00\n      dup1\n      revert\n    tag_158:\n      pop\n      gas\n      staticcall\n      iszero\n      dup1\n      iszero\n      tag_160\n      jumpi\n      returndatasize\n      0x00\n      dup1\n      returndatacopy\n      revert(0x00, returndatasize)\n    tag_160:\n      pop\n      pop\n      pop\n      pop\n      mload(0x40)\n      returndatasize\n      not(0x1f)\n      0x1f\n      dup3\n      add\n      and\n      dup3\n      add\n      dup1\n      0x40\n      mstore\n      pop\n      dup2\n      add\n      swap1\n      tag_161\n      swap2\n      swap1\n      tag_145\n      jump\t// in\n    tag_161:\n        /* \"contracts/Founding Citizens NFT Sale.sol\":5273:5337  return IMintStorage(ERC1155storageContract).getNextUnusedToken() */\n      swap1\n      pop\n        /* \"contracts/Founding Citizens NFT Sale.sol\":5206:5345  function getNextUnusedToken() public view returns(uint) {\r... */\n      swap1\n      jump\t// out\n        /* \"contracts/Founding Citizens NFT Sale.sol\":2885:2927  IMintStorage public ERC1155storageContract */\n    tag_75:\n      0x01\n      0x00\n      swap1\n      sload\n      swap1\n      0x0100\n      exp\n      swap1\n      div\n      0xffffffffffffffffffffffffffffffffffffffff\n      and\n      dup2\n      jump\t// out\n        /* \"contracts/Founding Citizens NFT Sale.sol\":7017:7428  function mintToTreasuryAddress() public requiresUpdate {\r... */\n    tag_79:\n        /* \"contracts/Founding Citizens NFT Sale.sol\":3823:3838  block.timestamp */\n      timestamp\n        /* \"contracts/Founding Citizens NFT Sale.sol\":3804:3814  lastUpdate */\n      0x09\n        /* \"contracts/Founding Citizens NFT Sale.sol\":3804:3819  lastUpdate.time */\n      0x01\n      add\n      sload\n        /* \"contracts/Founding Citizens NFT Sale.sol\":3804:3838  lastUpdate.time == block.timestamp */\n      eq\n        /* \"contracts/Founding Citizens NFT Sale.sol\":3796:3870  require(lastUpdate.time == block.timestamp, \"timestamp is not up-to-date\") */\n      tag_163\n      jumpi\n      mload(0x40)\n      0x08c379a000000000000000000000000000000000000000000000000000000000\n      dup2\n      mstore\n      0x04\n      add\n      tag_164\n      swap1\n      tag_165\n      jump\t// in\n    tag_164:\n      mload(0x40)\n      dup1\n      swap2\n      sub\n      swap1\n      revert\n    tag_163:\n        /* \"contracts/Founding Citizens NFT Sale.sol\":7123:7130  endTime */\n      sload(0x06)\n        /* \"contracts/Founding Citizens NFT Sale.sol\":7105:7120  block.timestamp */\n      timestamp\n        /* \"contracts/Founding Citizens NFT Sale.sol\":7105:7130  block.timestamp > endTime */\n      gt\n        /* \"contracts/Founding Citizens NFT Sale.sol\":7105:7156  block.timestamp > endTime && !lastUpdate.saleIsLive */\n      dup1\n      iszero\n      tag_167\n      jumpi\n      pop\n        /* \"contracts/Founding Citizens NFT Sale.sol\":7135:7145  lastUpdate */\n      0x09\n        /* \"contracts/Founding Citizens NFT Sale.sol\":7135:7156  lastUpdate.saleIsLive */\n      0x02\n      add\n      0x00\n      swap1\n      sload\n      swap1\n      0x0100\n      exp\n      swap1\n      div\n      0xff\n      and\n        /* \"contracts/Founding Citizens NFT Sale.sol\":7134:7156  !lastUpdate.saleIsLive */\n      iszero\n        /* \"contracts/Founding Citizens NFT Sale.sol\":7105:7156  block.timestamp > endTime && !lastUpdate.saleIsLive */\n    tag_167:\n        /* \"contracts/Founding Citizens NFT Sale.sol\":7083:7239  require(\r... */\n      tag_168\n      jumpi\n      mload(0x40)\n      0x08c379a000000000000000000000000000000000000000000000000000000000\n      dup2\n      mstore\n      0x04\n      add\n      tag_169\n      swap1\n      tag_170\n      jump\t// in\n    tag_169:\n      mload(0x40)\n      dup1\n      swap2\n      sub\n      swap1\n      revert\n    tag_168:\n        /* \"contracts/Founding Citizens NFT Sale.sol\":7250:7265  uint leftToMint */\n      0x00\n        /* \"contracts/Founding Citizens NFT Sale.sol\":7307:7308  1 */\n      0x01\n        /* \"contracts/Founding Citizens NFT Sale.sol\":7286:7306  getNextUnusedToken() */\n      tag_171\n        /* \"contracts/Founding Citizens NFT Sale.sol\":7286:7304  getNextUnusedToken */\n      tag_72\n        /* \"contracts/Founding Citizens NFT Sale.sol\":7286:7306  getNextUnusedToken() */\n      jump\t// in\n    tag_171:\n        /* \"contracts/Founding Citizens NFT Sale.sol\":7286:7308  getNextUnusedToken()-1 */\n      tag_172\n      swap2\n      swap1\n      tag_173\n      jump\t// in\n    tag_172:\n        /* \"contracts/Founding Citizens NFT Sale.sol\":7268:7282  getMaxSupply() */\n      tag_174\n        /* \"contracts/Founding Citizens NFT Sale.sol\":7268:7280  getMaxSupply */\n      tag_50\n        /* \"contracts/Founding Citizens NFT Sale.sol\":7268:7282  getMaxSupply() */\n      jump\t// in\n    tag_174:\n        /* \"contracts/Founding Citizens NFT Sale.sol\":7268:7309  getMaxSupply() - (getNextUnusedToken()-1) */\n      tag_175\n      swap2\n      swap1\n      tag_173\n      jump\t// in\n    tag_175:\n        /* \"contracts/Founding Citizens NFT Sale.sol\":7250:7309  uint leftToMint = getMaxSupply() - (getNextUnusedToken()-1) */\n      swap1\n      pop\n        /* \"contracts/Founding Citizens NFT Sale.sol\":7320:7421  for (; leftToMint > 0; leftToMint--) {\r... */\n    tag_176:\n        /* \"contracts/Founding Citizens NFT Sale.sol\":7340:7341  0 */\n      0x00\n        /* \"contracts/Founding Citizens NFT Sale.sol\":7327:7337  leftToMint */\n      dup2\n        /* \"contracts/Founding Citizens NFT Sale.sol\":7327:7341  leftToMint > 0 */\n      gt\n        /* \"contracts/Founding Citizens NFT Sale.sol\":7320:7421  for (; leftToMint > 0; leftToMint--) {\r... */\n      iszero\n      tag_177\n      jumpi\n        /* \"contracts/Founding Citizens NFT Sale.sol\":7372:7409  mintNextNftToAddress(treasuryAddress) */\n      tag_179\n        /* \"contracts/Founding Citizens NFT Sale.sol\":7393:7408  treasuryAddress */\n      0x04\n      0x00\n      swap1\n      sload\n      swap1\n      0x0100\n      exp\n      swap1\n      div\n      0xffffffffffffffffffffffffffffffffffffffff\n      and\n        /* \"contracts/Founding Citizens NFT Sale.sol\":7372:7392  mintNextNftToAddress */\n      tag_180\n        /* \"contracts/Founding Citizens NFT Sale.sol\":7372:7409  mintNextNftToAddress(treasuryAddress) */\n      jump\t// in\n    tag_179:\n        /* \"contracts/Founding Citizens NFT Sale.sol\":7343:7355  leftToMint-- */\n      dup1\n      dup1\n      tag_181\n      swap1\n      tag_182\n      jump\t// in\n    tag_181:\n      swap2\n      pop\n      pop\n        /* \"contracts/Founding Citizens NFT Sale.sol\":7320:7421  for (; leftToMint > 0; leftToMint--) {\r... */\n      jump(tag_176)\n    tag_177:\n        /* \"contracts/Founding Citizens NFT Sale.sol\":3881:3882  _ */\n      pop\n        /* \"contracts/Founding Citizens NFT Sale.sol\":7017:7428  function mintToTreasuryAddress() public requiresUpdate {\r... */\n      jump\t// out\n        /* \"@openzeppelin/contracts@4.4.2/access/AccessControl.sol\":2894:3031  function hasRole(bytes32 role, address account) public view override returns (bool) {... */\n    tag_82:\n        /* \"@openzeppelin/contracts@4.4.2/access/AccessControl.sol\":2972:2976  bool */\n      0x00\n        /* \"@openzeppelin/contracts@4.4.2/access/AccessControl.sol\":2995:3001  _roles */\n      dup1\n        /* \"@openzeppelin/contracts@4.4.2/access/AccessControl.sol\":2995:3007  _roles[role] */\n      0x00\n        /* \"@openzeppelin/contracts@4.4.2/access/AccessControl.sol\":3002:3006  role */\n      dup5\n        /* \"@openzeppelin/contracts@4.4.2/access/AccessControl.sol\":2995:3007  _roles[role] */\n      dup2\n      mstore\n      0x20\n      add\n      swap1\n      dup2\n      mstore\n      0x20\n      add\n      0x00\n      keccak256\n        /* \"@openzeppelin/contracts@4.4.2/access/AccessControl.sol\":2995:3015  _roles[role].members */\n      0x00\n      add\n        /* \"@openzeppelin/contracts@4.4.2/access/AccessControl.sol\":2995:3024  _roles[role].members[account] */\n      0x00\n        /* \"@openzeppelin/contracts@4.4.2/access/AccessControl.sol\":3016:3023  account */\n      dup4\n        /* \"@openzeppelin/contracts@4.4.2/access/AccessControl.sol\":2995:3024  _roles[role].members[account] */\n      0xffffffffffffffffffffffffffffffffffffffff\n      and\n      0xffffffffffffffffffffffffffffffffffffffff\n      and\n      dup2\n      mstore\n      0x20\n      add\n      swap1\n      dup2\n      mstore\n      0x20\n      add\n      0x00\n      keccak256\n      0x00\n      swap1\n      sload\n      swap1\n      0x0100\n      exp\n      swap1\n      div\n      0xff\n      and\n        /* \"@openzeppelin/contracts@4.4.2/access/AccessControl.sol\":2988:3024  return _roles[role].members[account] */\n      swap1\n      pop\n        /* \"@openzeppelin/contracts@4.4.2/access/AccessControl.sol\":2894:3031  function hasRole(bytes32 role, address account) public view override returns (bool) {... */\n      swap3\n      swap2\n      pop\n      pop\n      jump\t// out\n        /* \"contracts/Founding Citizens NFT Sale.sol\":5488:5766  function setstartTime(uint unixTime) public {\r... */\n    tag_86:\n        /* \"contracts/Founding Citizens NFT Sale.sol\":5565:5605  hasRole(SALE_MANAGER_ROLE, _msgSender()) */\n      tag_185\n        /* \"contracts/Founding Citizens NFT Sale.sol\":3203:3233  keccak256(\"SALE_MANAGER_ROLE\") */\n      0x988301af8238f779281a300de031815cd01b48e9f1ae47a0f91ed6584213624a\n        /* \"contracts/Founding Citizens NFT Sale.sol\":5592:5604  _msgSender() */\n      tag_186\n        /* \"contracts/Founding Citizens NFT Sale.sol\":5592:5602  _msgSender */\n      tag_128\n        /* \"contracts/Founding Citizens NFT Sale.sol\":5592:5604  _msgSender() */\n      jump\t// in\n    tag_186:\n        /* \"contracts/Founding Citizens NFT Sale.sol\":5565:5572  hasRole */\n      tag_82\n        /* \"contracts/Founding Citizens NFT Sale.sol\":5565:5605  hasRole(SALE_MANAGER_ROLE, _msgSender()) */\n      jump\t// in\n    tag_185:\n        /* \"contracts/Founding Citizens NFT Sale.sol\":5565:5664  hasRole(SALE_MANAGER_ROLE, _msgSender()) || \r... */\n      dup1\n      tag_187\n      jumpi\n      pop\n        /* \"contracts/Founding Citizens NFT Sale.sol\":5623:5664  hasRole(DEFAULT_ADMIN_ROLE, _msgSender()) */\n      tag_188\n        /* \"@openzeppelin/contracts@4.4.2/access/AccessControl.sol\":2057:2061  0x00 */\n      0x00\n        /* \"contracts/Founding Citizens NFT Sale.sol\":5631:5649  DEFAULT_ADMIN_ROLE */\n      dup1\n      shl\n        /* \"contracts/Founding Citizens NFT Sale.sol\":5651:5663  _msgSender() */\n      tag_189\n        /* \"contracts/Founding Citizens NFT Sale.sol\":5651:5661  _msgSender */\n      tag_128\n        /* \"contracts/Founding Citizens NFT Sale.sol\":5651:5663  _msgSender() */\n      jump\t// in\n    tag_189:\n        /* \"contracts/Founding Citizens NFT Sale.sol\":5623:5630  hasRole */\n      tag_82\n        /* \"contracts/Founding Citizens NFT Sale.sol\":5623:5664  hasRole(DEFAULT_ADMIN_ROLE, _msgSender()) */\n      jump\t// in\n    tag_188:\n        /* \"contracts/Founding Citizens NFT Sale.sol\":5565:5664  hasRole(SALE_MANAGER_ROLE, _msgSender()) || \r... */\n    tag_187:\n        /* \"contracts/Founding Citizens NFT Sale.sol\":5543:5727  require(\r... */\n      tag_190\n      jumpi\n      mload(0x40)\n      0x08c379a000000000000000000000000000000000000000000000000000000000\n      dup2\n      mstore\n      0x04\n      add\n      tag_191\n      swap1\n      tag_192\n      jump\t// in\n    tag_191:\n      mload(0x40)\n      dup1\n      swap2\n      sub\n      swap1\n      revert\n    tag_190:\n        /* \"contracts/Founding Citizens NFT Sale.sol\":5750:5758  unixTime */\n      dup1\n        /* \"contracts/Founding Citizens NFT Sale.sol\":5738:5747  startTime */\n      0x05\n        /* \"contracts/Founding Citizens NFT Sale.sol\":5738:5758  startTime = unixTime */\n      dup2\n      swap1\n      sstore\n      pop\n        /* \"contracts/Founding Citizens NFT Sale.sol\":5488:5766  function setstartTime(uint unixTime) public {\r... */\n      pop\n      jump\t// out\n        /* \"@openzeppelin/contracts@4.4.2/access/AccessControl.sol\":2012:2061  bytes32 public constant DEFAULT_ADMIN_ROLE = 0x00 */\n    tag_88:\n        /* \"@openzeppelin/contracts@4.4.2/access/AccessControl.sol\":2057:2061  0x00 */\n      0x00\n        /* \"@openzeppelin/contracts@4.4.2/access/AccessControl.sol\":2012:2061  bytes32 public constant DEFAULT_ADMIN_ROLE = 0x00 */\n      dup1\n      shl\n      dup2\n      jump\t// out\n        /* \"contracts/Founding Citizens NFT Sale.sol\":6056:6506  function calculateCustomPrice(address prospectiveBuyer, uint discountRate) \r... */\n    tag_93:\n        /* \"contracts/Founding Citizens NFT Sale.sol\":6172:6176  uint */\n      0x00\n        /* \"contracts/Founding Citizens NFT Sale.sol\":3823:3838  block.timestamp */\n      timestamp\n        /* \"contracts/Founding Citizens NFT Sale.sol\":3804:3814  lastUpdate */\n      0x09\n        /* \"contracts/Founding Citizens NFT Sale.sol\":3804:3819  lastUpdate.time */\n      0x01\n      add\n      sload\n        /* \"contracts/Founding Citizens NFT Sale.sol\":3804:3838  lastUpdate.time == block.timestamp */\n      eq\n        /* \"contracts/Founding Citizens NFT Sale.sol\":3796:3870  require(lastUpdate.time == block.timestamp, \"timestamp is not up-to-date\") */\n      tag_194\n      jumpi\n      mload(0x40)\n      0x08c379a000000000000000000000000000000000000000000000000000000000\n      dup2\n      mstore\n      0x04\n      add\n      tag_195\n      swap1\n      tag_165\n      jump\t// in\n    tag_195:\n      mload(0x40)\n      dup1\n      swap2\n      sub\n      swap1\n      revert\n    tag_194:\n        /* \"contracts/Founding Citizens NFT Sale.sol\":6197:6215  privilgedBuyerList */\n      0x02\n      0x00\n      swap1\n      sload\n      swap1\n      0x0100\n      exp\n      swap1\n      div\n      0xffffffffffffffffffffffffffffffffffffffff\n      and\n        /* \"contracts/Founding Citizens NFT Sale.sol\":6197:6232  privilgedBuyerList.addressHasCoupon */\n      0xffffffffffffffffffffffffffffffffffffffff\n      and\n      0x2080179d\n        /* \"contracts/Founding Citizens NFT Sale.sol\":6233:6249  prospectiveBuyer */\n      dup5\n        /* \"contracts/Founding Citizens NFT Sale.sol\":6251:6263  discountRate */\n      dup5\n        /* \"contracts/Founding Citizens NFT Sale.sol\":6197:6264  privilgedBuyerList.addressHasCoupon(prospectiveBuyer, discountRate) */\n      mload(0x40)\n      dup4\n      0xffffffff\n      and\n      0xe0\n      shl\n      dup2\n      mstore\n      0x04\n      add\n      tag_197\n      swap3\n      swap2\n      swap1\n      tag_198\n      jump\t// in\n    tag_197:\n      0x20\n      mload(0x40)\n      dup1\n      dup4\n      sub\n      dup2\n      dup7\n      dup1\n      extcodesize\n      iszero\n      dup1\n      iszero\n      tag_199\n      jumpi\n      0x00\n      dup1\n      revert\n    tag_199:\n      pop\n      gas\n      staticcall\n      iszero\n      dup1\n      iszero\n      tag_201\n      jumpi\n      returndatasize\n      0x00\n      dup1\n      returndatacopy\n      revert(0x00, returndatasize)\n    tag_201:\n      pop\n      pop\n      pop\n      pop\n      mload(0x40)\n      returndatasize\n      not(0x1f)\n      0x1f\n      dup3\n      add\n      and\n      dup3\n      add\n      dup1\n      0x40\n      mstore\n      pop\n      dup2\n      add\n      swap1\n      tag_202\n      swap2\n      swap1\n      tag_203\n      jump\t// in\n    tag_202:\n        /* \"contracts/Founding Citizens NFT Sale.sol\":6316:6332  prospectiveBuyer */\n      dup4\n        /* \"contracts/Founding Citizens NFT Sale.sol\":6386:6398  discountRate */\n      dup4\n        /* \"contracts/Founding Citizens NFT Sale.sol\":6273:6404  abi.encodePacked(\r... */\n      add(0x20, mload(0x40))\n      tag_204\n      swap3\n      swap2\n      swap1\n      tag_205\n      jump\t// in\n    tag_204:\n      mload(0x40)\n      0x20\n      dup2\n      dup4\n      sub\n      sub\n      dup2\n      mstore\n      swap1\n      0x40\n      mstore\n        /* \"contracts/Founding Citizens NFT Sale.sol\":6189:6406  require(privilgedBuyerList.addressHasCoupon(prospectiveBuyer, discountRate), string(abi.encodePacked(\r... */\n      swap1\n      tag_206\n      jumpi\n      mload(0x40)\n      0x08c379a000000000000000000000000000000000000000000000000000000000\n      dup2\n      mstore\n      0x04\n      add\n      tag_207\n      swap2\n      swap1\n      tag_208\n      jump\t// in\n    tag_207:\n      mload(0x40)\n      dup1\n      swap2\n      sub\n      swap1\n      revert\n    tag_206:\n      pop\n        /* \"contracts/Founding Citizens NFT Sale.sol\":6417:6427  uint price */\n      0x00\n        /* \"contracts/Founding Citizens NFT Sale.sol\":6462:6474  discountRate */\n      dup3\n        /* \"contracts/Founding Citizens NFT Sale.sol\":6456:6459  100 */\n      0x64\n        /* \"contracts/Founding Citizens NFT Sale.sol\":6456:6474  100 - discountRate */\n      tag_209\n      swap2\n      swap1\n      tag_173\n      jump\t// in\n    tag_209:\n        /* \"contracts/Founding Citizens NFT Sale.sol\":6449:6452  100 */\n      0x64\n        /* \"contracts/Founding Citizens NFT Sale.sol\":6430:6440  lastUpdate */\n      0x09\n        /* \"contracts/Founding Citizens NFT Sale.sol\":6430:6446  lastUpdate.price */\n      0x00\n      add\n      sload\n        /* \"contracts/Founding Citizens NFT Sale.sol\":6430:6452  lastUpdate.price / 100 */\n      tag_210\n      swap2\n      swap1\n      tag_211\n      jump\t// in\n    tag_210:\n        /* \"contracts/Founding Citizens NFT Sale.sol\":6430:6475  lastUpdate.price / 100 * (100 - discountRate) */\n      tag_212\n      swap2\n      swap1\n      tag_213\n      jump\t// in\n    tag_212:\n        /* \"contracts/Founding Citizens NFT Sale.sol\":6417:6475  uint price = lastUpdate.price / 100 * (100 - discountRate) */\n      swap1\n      pop\n        /* \"contracts/Founding Citizens NFT Sale.sol\":6493:6498  price */\n      dup1\n        /* \"contracts/Founding Citizens NFT Sale.sol\":6486:6498  return price */\n      swap2\n      pop\n      pop\n        /* \"contracts/Founding Citizens NFT Sale.sol\":6056:6506  function calculateCustomPrice(address prospectiveBuyer, uint discountRate) \r... */\n      swap3\n      swap2\n      pop\n      pop\n      jump\t// out\n        /* \"contracts/Founding Citizens NFT Sale.sol\":6686:6831  function buyNFT() public pushesUpdate { //requires using existing balance\r... */\n    tag_96:\n        /* \"contracts/Founding Citizens NFT Sale.sol\":3933:3946  updateState() */\n      tag_215\n        /* \"contracts/Founding Citizens NFT Sale.sol\":3933:3944  updateState */\n      tag_148\n        /* \"contracts/Founding Citizens NFT Sale.sol\":3933:3946  updateState() */\n      jump\t// in\n    tag_215:\n        /* \"contracts/Founding Citizens NFT Sale.sol\":6769:6779  uint price */\n      0x00\n        /* \"contracts/Founding Citizens NFT Sale.sol\":6782:6792  lastUpdate */\n      0x09\n        /* \"contracts/Founding Citizens NFT Sale.sol\":6782:6798  lastUpdate.price */\n      0x00\n      add\n      sload\n        /* \"contracts/Founding Citizens NFT Sale.sol\":6769:6798  uint price = lastUpdate.price */\n      swap1\n      pop\n        /* \"contracts/Founding Citizens NFT Sale.sol\":6809:6823  _buyNFT(price) */\n      tag_217\n        /* \"contracts/Founding Citizens NFT Sale.sol\":6817:6822  price */\n      dup2\n        /* \"contracts/Founding Citizens NFT Sale.sol\":6809:6816  _buyNFT */\n      tag_152\n        /* \"contracts/Founding Citizens NFT Sale.sol\":6809:6823  _buyNFT(price) */\n      jump\t// in\n    tag_217:\n        /* \"contracts/Founding Citizens NFT Sale.sol\":3957:3958  _ */\n      pop\n        /* \"contracts/Founding Citizens NFT Sale.sol\":6686:6831  function buyNFT() public pushesUpdate { //requires using existing balance\r... */\n      jump\t// out\n        /* \"contracts/Founding Citizens NFT Sale.sol\":3686:3750  Update public lastUpdate = Update(10000, block.timestamp, false) */\n    tag_98:\n      0x09\n      dup1\n      0x00\n      add\n      sload\n      swap1\n      dup1\n      0x01\n      add\n      sload\n      swap1\n      dup1\n      0x02\n      add\n      0x00\n      swap1\n      sload\n      swap1\n      0x0100\n      exp\n      swap1\n      div\n      0xff\n      and\n      swap1\n      pop\n      dup4\n      jump\t// out\n        /* \"contracts/Founding Citizens NFT Sale.sol\":2989:3034  IUsdcStorage public usdcEscrowStorageContract */\n    tag_102:\n      0x03\n      0x00\n      swap1\n      sload\n      swap1\n      0x0100\n      exp\n      swap1\n      div\n      0xffffffffffffffffffffffffffffffffffffffff\n      and\n      dup2\n      jump\t// out\n        /* \"contracts/Founding Citizens NFT Sale.sol\":3041:3071  address public treasuryAddress */\n    tag_106:\n      0x04\n      0x00\n      swap1\n      sload\n      swap1\n      0x0100\n      exp\n      swap1\n      div\n      0xffffffffffffffffffffffffffffffffffffffff\n      and\n      dup2\n      jump\t// out\n        /* \"contracts/Founding Citizens NFT Sale.sol\":5774:6048  function setEndTime(uint unixTime) public {\r... */\n    tag_111:\n        /* \"contracts/Founding Citizens NFT Sale.sol\":5849:5889  hasRole(SALE_MANAGER_ROLE, _msgSender()) */\n      tag_219\n        /* \"contracts/Founding Citizens NFT Sale.sol\":3203:3233  keccak256(\"SALE_MANAGER_ROLE\") */\n      0x988301af8238f779281a300de031815cd01b48e9f1ae47a0f91ed6584213624a\n        /* \"contracts/Founding Citizens NFT Sale.sol\":5876:5888  _msgSender() */\n      tag_220\n        /* \"contracts/Founding Citizens NFT Sale.sol\":5876:5886  _msgSender */\n      tag_128\n        /* \"contracts/Founding Citizens NFT Sale.sol\":5876:5888  _msgSender() */\n      jump\t// in\n    tag_220:\n        /* \"contracts/Founding Citizens NFT Sale.sol\":5849:5856  hasRole */\n      tag_82\n        /* \"contracts/Founding Citizens NFT Sale.sol\":5849:5889  hasRole(SALE_MANAGER_ROLE, _msgSender()) */\n      jump\t// in\n    tag_219:\n        /* \"contracts/Founding Citizens NFT Sale.sol\":5849:5948  hasRole(SALE_MANAGER_ROLE, _msgSender()) || \r... */\n      dup1\n      tag_221\n      jumpi\n      pop\n        /* \"contracts/Founding Citizens NFT Sale.sol\":5907:5948  hasRole(DEFAULT_ADMIN_ROLE, _msgSender()) */\n      tag_222\n        /* \"@openzeppelin/contracts@4.4.2/access/AccessControl.sol\":2057:2061  0x00 */\n      0x00\n        /* \"contracts/Founding Citizens NFT Sale.sol\":5915:5933  DEFAULT_ADMIN_ROLE */\n      dup1\n      shl\n        /* \"contracts/Founding Citizens NFT Sale.sol\":5935:5947  _msgSender() */\n      tag_223\n        /* \"contracts/Founding Citizens NFT Sale.sol\":5935:5945  _msgSender */\n      tag_128\n        /* \"contracts/Founding Citizens NFT Sale.sol\":5935:5947  _msgSender() */\n      jump\t// in\n    tag_223:\n        /* \"contracts/Founding Citizens NFT Sale.sol\":5907:5914  hasRole */\n      tag_82\n        /* \"contracts/Founding Citizens NFT Sale.sol\":5907:5948  hasRole(DEFAULT_ADMIN_ROLE, _msgSender()) */\n      jump\t// in\n    tag_222:\n        /* \"contracts/Founding Citizens NFT Sale.sol\":5849:5948  hasRole(SALE_MANAGER_ROLE, _msgSender()) || \r... */\n    tag_221:\n        /* \"contracts/Founding Citizens NFT Sale.sol\":5827:6011  require(\r... */\n      tag_224\n      jumpi\n      mload(0x40)\n      0x08c379a000000000000000000000000000000000000000000000000000000000\n      dup2\n      mstore\n      0x04\n      add\n      tag_225\n      swap1\n      tag_192\n      jump\t// in\n    tag_225:\n      mload(0x40)\n      dup1\n      swap2\n      sub\n      swap1\n      revert\n    tag_224:\n        /* \"contracts/Founding Citizens NFT Sale.sol\":6032:6040  unixTime */\n      dup1\n        /* \"contracts/Founding Citizens NFT Sale.sol\":6022:6029  endTime */\n      0x06\n        /* \"contracts/Founding Citizens NFT Sale.sol\":6022:6040  endTime = unixTime */\n      dup2\n      swap1\n      sstore\n      pop\n        /* \"contracts/Founding Citizens NFT Sale.sol\":5774:6048  function setEndTime(uint unixTime) public {\r... */\n      pop\n      jump\t// out\n        /* \"@openzeppelin/contracts@4.4.2/access/AccessControl.sol\":4727:4874  function revokeRole(bytes32 role, address account) public virtual override onlyRole(getRoleAdmin(role)) {... */\n    tag_114:\n        /* \"@openzeppelin/contracts@4.4.2/access/AccessControl.sol\":4811:4829  getRoleAdmin(role) */\n      tag_226\n        /* \"@openzeppelin/contracts@4.4.2/access/AccessControl.sol\":4824:4828  role */\n      dup3\n        /* \"@openzeppelin/contracts@4.4.2/access/AccessControl.sol\":4811:4823  getRoleAdmin */\n      tag_39\n        /* \"@openzeppelin/contracts@4.4.2/access/AccessControl.sol\":4811:4829  getRoleAdmin(role) */\n      jump\t// in\n    tag_226:\n        /* \"@openzeppelin/contracts@4.4.2/access/AccessControl.sol\":2490:2520  _checkRole(role, _msgSender()) */\n      tag_228\n        /* \"@openzeppelin/contracts@4.4.2/access/AccessControl.sol\":2501:2505  role */\n      dup2\n        /* \"@openzeppelin/contracts@4.4.2/access/AccessControl.sol\":2507:2519  _msgSender() */\n      tag_229\n        /* \"@openzeppelin/contracts@4.4.2/access/AccessControl.sol\":2507:2517  _msgSender */\n      tag_128\n        /* \"@openzeppelin/contracts@4.4.2/access/AccessControl.sol\":2507:2519  _msgSender() */\n      jump\t// in\n    tag_229:\n        /* \"@openzeppelin/contracts@4.4.2/access/AccessControl.sol\":2490:2500  _checkRole */\n      tag_129\n        /* \"@openzeppelin/contracts@4.4.2/access/AccessControl.sol\":2490:2520  _checkRole(role, _msgSender()) */\n      jump\t// in\n    tag_228:\n        /* \"@openzeppelin/contracts@4.4.2/access/AccessControl.sol\":4841:4867  _revokeRole(role, account) */\n      tag_231\n        /* \"@openzeppelin/contracts@4.4.2/access/AccessControl.sol\":4853:4857  role */\n      dup4\n        /* \"@openzeppelin/contracts@4.4.2/access/AccessControl.sol\":4859:4866  account */\n      dup4\n        /* \"@openzeppelin/contracts@4.4.2/access/AccessControl.sol\":4841:4852  _revokeRole */\n      tag_139\n        /* \"@openzeppelin/contracts@4.4.2/access/AccessControl.sol\":4841:4867  _revokeRole(role, account) */\n      jump\t// in\n    tag_231:\n        /* \"@openzeppelin/contracts@4.4.2/access/AccessControl.sol\":4727:4874  function revokeRole(bytes32 role, address account) public virtual override onlyRole(getRoleAdmin(role)) {... */\n      pop\n      pop\n      pop\n      jump\t// out\n        /* \"contracts/Founding Citizens NFT Sale.sol\":5044:5198  function preLoadURIs(uint[] memory ids, string[] memory uris) \r... */\n    tag_118:\n        /* \"contracts/Founding Citizens NFT Sale.sol\":5144:5166  ERC1155storageContract */\n      0x01\n      0x00\n      swap1\n      sload\n      swap1\n      0x0100\n      exp\n      swap1\n      div\n      0xffffffffffffffffffffffffffffffffffffffff\n      and\n        /* \"contracts/Founding Citizens NFT Sale.sol\":5131:5179  IMintStorage(ERC1155storageContract).preLoadURIs */\n      0xffffffffffffffffffffffffffffffffffffffff\n      and\n      0xf121da92\n        /* \"contracts/Founding Citizens NFT Sale.sol\":5180:5183  ids */\n      dup4\n        /* \"contracts/Founding Citizens NFT Sale.sol\":5185:5189  uris */\n      dup4\n        /* \"contracts/Founding Citizens NFT Sale.sol\":5131:5190  IMintStorage(ERC1155storageContract).preLoadURIs(ids, uris) */\n      mload(0x40)\n      dup4\n      0xffffffff\n      and\n      0xe0\n      shl\n      dup2\n      mstore\n      0x04\n      add\n      tag_233\n      swap3\n      swap2\n      swap1\n      tag_234\n      jump\t// in\n    tag_233:\n      0x00\n      mload(0x40)\n      dup1\n      dup4\n      sub\n      dup2\n      0x00\n      dup8\n      dup1\n      extcodesize\n      iszero\n      dup1\n      iszero\n      tag_235\n      jumpi\n      0x00\n      dup1\n      revert\n    tag_235:\n      pop\n      gas\n      call\n      iszero\n      dup1\n      iszero\n      tag_237\n      jumpi\n      returndatasize\n      0x00\n      dup1\n      returndatacopy\n      revert(0x00, returndatasize)\n    tag_237:\n      pop\n      pop\n      pop\n      pop\n        /* \"contracts/Founding Citizens NFT Sale.sol\":5044:5198  function preLoadURIs(uint[] memory ids, string[] memory uris) \r... */\n      pop\n      pop\n      jump\t// out\n        /* \"@openzeppelin/contracts@4.4.2/utils/introspection/ERC165.sol\":829:984  function supportsInterface(bytes4 interfaceId) public view virtual override returns (bool) {... */\n    tag_122:\n        /* \"@openzeppelin/contracts@4.4.2/utils/introspection/ERC165.sol\":914:918  bool */\n      0x00\n        /* \"@openzeppelin/contracts@4.4.2/utils/introspection/ERC165.sol\":952:977  type(IERC165).interfaceId */\n      0x01ffc9a700000000000000000000000000000000000000000000000000000000\n        /* \"@openzeppelin/contracts@4.4.2/utils/introspection/ERC165.sol\":937:977  interfaceId == type(IERC165).interfaceId */\n      not(0xffffffffffffffffffffffffffffffffffffffffffffffffffffffff)\n      and\n        /* \"@openzeppelin/contracts@4.4.2/utils/introspection/ERC165.sol\":937:948  interfaceId */\n      dup3\n        /* \"@openzeppelin/contracts@4.4.2/utils/introspection/ERC165.sol\":937:977  interfaceId == type(IERC165).interfaceId */\n      not(0xffffffffffffffffffffffffffffffffffffffffffffffffffffffff)\n      and\n      eq\n        /* \"@openzeppelin/contracts@4.4.2/utils/introspection/ERC165.sol\":930:977  return interfaceId == type(IERC165).interfaceId */\n      swap1\n      pop\n        /* \"@openzeppelin/contracts@4.4.2/utils/introspection/ERC165.sol\":829:984  function supportsInterface(bytes4 interfaceId) public view virtual override returns (bool) {... */\n      swap2\n      swap1\n      pop\n      jump\t// out\n        /* \"@openzeppelin/contracts@4.4.2/utils/Context.sol\":640:736  function _msgSender() internal view virtual returns (address) {... */\n    tag_128:\n        /* \"@openzeppelin/contracts@4.4.2/utils/Context.sol\":693:700  address */\n      0x00\n        /* \"@openzeppelin/contracts@4.4.2/utils/Context.sol\":719:729  msg.sender */\n      caller\n        /* \"@openzeppelin/contracts@4.4.2/utils/Context.sol\":712:729  return msg.sender */\n      swap1\n      pop\n        /* \"@openzeppelin/contracts@4.4.2/utils/Context.sol\":640:736  function _msgSender() internal view virtual returns (address) {... */\n      swap1\n      jump\t// out\n        /* \"@openzeppelin/contracts@4.4.2/access/AccessControl.sol\":3312:3796  function _checkRole(bytes32 role, address account) internal view {... */\n    tag_129:\n        /* \"@openzeppelin/contracts@4.4.2/access/AccessControl.sol\":3392:3414  hasRole(role, account) */\n      tag_241\n        /* \"@openzeppelin/contracts@4.4.2/access/AccessControl.sol\":3400:3404  role */\n      dup3\n        /* \"@openzeppelin/contracts@4.4.2/access/AccessControl.sol\":3406:3413  account */\n      dup3\n        /* \"@openzeppelin/contracts@4.4.2/access/AccessControl.sol\":3392:3399  hasRole */\n      tag_82\n        /* \"@openzeppelin/contracts@4.4.2/access/AccessControl.sol\":3392:3414  hasRole(role, account) */\n      jump\t// in\n    tag_241:\n        /* \"@openzeppelin/contracts@4.4.2/access/AccessControl.sol\":3387:3790  if (!hasRole(role, account)) {... */\n      tag_242\n      jumpi\n        /* \"@openzeppelin/contracts@4.4.2/access/AccessControl.sol\":3575:3616  Strings.toHexString(uint160(account), 20) */\n      tag_243\n        /* \"@openzeppelin/contracts@4.4.2/access/AccessControl.sol\":3603:3610  account */\n      dup2\n        /* \"@openzeppelin/contracts@4.4.2/access/AccessControl.sol\":3575:3616  Strings.toHexString(uint160(account), 20) */\n      0xffffffffffffffffffffffffffffffffffffffff\n      and\n        /* \"@openzeppelin/contracts@4.4.2/access/AccessControl.sol\":3613:3615  20 */\n      0x14\n        /* \"@openzeppelin/contracts@4.4.2/access/AccessControl.sol\":3575:3594  Strings.toHexString */\n      tag_244\n        /* \"@openzeppelin/contracts@4.4.2/access/AccessControl.sol\":3575:3616  Strings.toHexString(uint160(account), 20) */\n      jump\t// in\n    tag_243:\n        /* \"@openzeppelin/contracts@4.4.2/access/AccessControl.sol\":3687:3725  Strings.toHexString(uint256(role), 32) */\n      tag_245\n        /* \"@openzeppelin/contracts@4.4.2/access/AccessControl.sol\":3715:3719  role */\n      dup4\n        /* \"@openzeppelin/contracts@4.4.2/access/AccessControl.sol\":3707:3720  uint256(role) */\n      0x00\n      shr\n        /* \"@openzeppelin/contracts@4.4.2/access/AccessControl.sol\":3722:3724  32 */\n      0x20\n        /* \"@openzeppelin/contracts@4.4.2/access/AccessControl.sol\":3687:3706  Strings.toHexString */\n      tag_244\n        /* \"@openzeppelin/contracts@4.4.2/access/AccessControl.sol\":3687:3725  Strings.toHexString(uint256(role), 32) */\n      jump\t// in\n    tag_245:\n        /* \"@openzeppelin/contracts@4.4.2/access/AccessControl.sol\":3482:3747  abi.encodePacked(... */\n      add(0x20, mload(0x40))\n      tag_246\n      swap3\n      swap2\n      swap1\n      tag_247\n      jump\t// in\n    tag_246:\n      mload(0x40)\n      0x20\n      dup2\n      dup4\n      sub\n      sub\n      dup2\n      mstore\n      swap1\n      0x40\n      mstore\n        /* \"@openzeppelin/contracts@4.4.2/access/AccessControl.sol\":3430:3779  revert(... */\n      mload(0x40)\n      0x08c379a000000000000000000000000000000000000000000000000000000000\n      dup2\n      mstore\n      0x04\n      add\n      tag_248\n      swap2\n      swap1\n      tag_208\n      jump\t// in\n    tag_248:\n      mload(0x40)\n      dup1\n      swap2\n      sub\n      swap1\n      revert\n        /* \"@openzeppelin/contracts@4.4.2/access/AccessControl.sol\":3387:3790  if (!hasRole(role, account)) {... */\n    tag_242:\n        /* \"@openzeppelin/contracts@4.4.2/access/AccessControl.sol\":3312:3796  function _checkRole(bytes32 role, address account) internal view {... */\n      pop\n      pop\n      jump\t// out\n        /* \"@openzeppelin/contracts@4.4.2/access/AccessControl.sol\":6822:7055  function _grantRole(bytes32 role, address account) internal virtual {... */\n    tag_132:\n        /* \"@openzeppelin/contracts@4.4.2/access/AccessControl.sol\":6905:6927  hasRole(role, account) */\n      tag_250\n        /* \"@openzeppelin/contracts@4.4.2/access/AccessControl.sol\":6913:6917  role */\n      dup3\n        /* \"@openzeppelin/contracts@4.4.2/access/AccessControl.sol\":6919:6926  account */\n      dup3\n        /* \"@openzeppelin/contracts@4.4.2/access/AccessControl.sol\":6905:6912  hasRole */\n      tag_82\n        /* \"@openzeppelin/contracts@4.4.2/access/AccessControl.sol\":6905:6927  hasRole(role, account) */\n      jump\t// in\n    tag_250:\n        /* \"@openzeppelin/contracts@4.4.2/access/AccessControl.sol\":6900:7049  if (!hasRole(role, account)) {... */\n      tag_251\n      jumpi\n        /* \"@openzeppelin/contracts@4.4.2/access/AccessControl.sol\":6975:6979  true */\n      0x01\n        /* \"@openzeppelin/contracts@4.4.2/access/AccessControl.sol\":6943:6949  _roles */\n      0x00\n        /* \"@openzeppelin/contracts@4.4.2/access/AccessControl.sol\":6943:6955  _roles[role] */\n      dup1\n        /* \"@openzeppelin/contracts@4.4.2/access/AccessControl.sol\":6950:6954  role */\n      dup5\n        /* \"@openzeppelin/contracts@4.4.2/access/AccessControl.sol\":6943:6955  _roles[role] */\n      dup2\n      mstore\n      0x20\n      add\n      swap1\n      dup2\n      mstore\n      0x20\n      add\n      0x00\n      keccak256\n        /* \"@openzeppelin/contracts@4.4.2/access/AccessControl.sol\":6943:6963  _roles[role].members */\n      0x00\n      add\n        /* \"@openzeppelin/contracts@4.4.2/access/AccessControl.sol\":6943:6972  _roles[role].members[account] */\n      0x00\n        /* \"@openzeppelin/contracts@4.4.2/access/AccessControl.sol\":6964:6971  account */\n      dup4\n        /* \"@openzeppelin/contracts@4.4.2/access/AccessControl.sol\":6943:6972  _roles[role].members[account] */\n      0xffffffffffffffffffffffffffffffffffffffff\n      and\n      0xffffffffffffffffffffffffffffffffffffffff\n      and\n      dup2\n      mstore\n      0x20\n      add\n      swap1\n      dup2\n      mstore\n      0x20\n      add\n      0x00\n      keccak256\n      0x00\n        /* \"@openzeppelin/contracts@4.4.2/access/AccessControl.sol\":6943:6979  _roles[role].members[account] = true */\n      0x0100\n      exp\n      dup2\n      sload\n      dup2\n      0xff\n      mul\n      not\n      and\n      swap1\n      dup4\n      iszero\n      iszero\n      mul\n      or\n      swap1\n      sstore\n      pop\n        /* \"@openzeppelin/contracts@4.4.2/access/AccessControl.sol\":7025:7037  _msgSender() */\n      tag_252\n        /* \"@openzeppelin/contracts@4.4.2/access/AccessControl.sol\":7025:7035  _msgSender */\n      tag_128\n        /* \"@openzeppelin/contracts@4.4.2/access/AccessControl.sol\":7025:7037  _msgSender() */\n      jump\t// in\n    tag_252:\n        /* \"@openzeppelin/contracts@4.4.2/access/AccessControl.sol\":6998:7038  RoleGranted(role, account, _msgSender()) */\n      0xffffffffffffffffffffffffffffffffffffffff\n      and\n        /* \"@openzeppelin/contracts@4.4.2/access/AccessControl.sol\":7016:7023  account */\n      dup2\n        /* \"@openzeppelin/contracts@4.4.2/access/AccessControl.sol\":6998:7038  RoleGranted(role, account, _msgSender()) */\n      0xffffffffffffffffffffffffffffffffffffffff\n      and\n        /* \"@openzeppelin/contracts@4.4.2/access/AccessControl.sol\":7010:7014  role */\n      dup4\n        /* \"@openzeppelin/contracts@4.4.2/access/AccessControl.sol\":6998:7038  RoleGranted(role, account, _msgSender()) */\n      0x2f8788117e7eff1d82e926ec794901d17c78024a50270940304540a733656f0d\n      mload(0x40)\n      mload(0x40)\n      dup1\n      swap2\n      sub\n      swap1\n      log4\n        /* \"@openzeppelin/contracts@4.4.2/access/AccessControl.sol\":6900:7049  if (!hasRole(role, account)) {... */\n    tag_251:\n        /* \"@openzeppelin/contracts@4.4.2/access/AccessControl.sol\":6822:7055  function _grantRole(bytes32 role, address account) internal virtual {... */\n      pop\n      pop\n      jump\t// out\n        /* \"@openzeppelin/contracts@4.4.2/access/AccessControl.sol\":7180:7414  function _revokeRole(bytes32 role, address account) internal virtual {... */\n    tag_139:\n        /* \"@openzeppelin/contracts@4.4.2/access/AccessControl.sol\":7263:7285  hasRole(role, account) */\n      tag_254\n        /* \"@openzeppelin/contracts@4.4.2/access/AccessControl.sol\":7271:7275  role */\n      dup3\n        /* \"@openzeppelin/contracts@4.4.2/access/AccessControl.sol\":7277:7284  account */\n      dup3\n        /* \"@openzeppelin/contracts@4.4.2/access/AccessControl.sol\":7263:7270  hasRole */\n      tag_82\n        /* \"@openzeppelin/contracts@4.4.2/access/AccessControl.sol\":7263:7285  hasRole(role, account) */\n      jump\t// in\n    tag_254:\n        /* \"@openzeppelin/contracts@4.4.2/access/AccessControl.sol\":7259:7408  if (hasRole(role, account)) {... */\n      iszero\n      tag_255\n      jumpi\n        /* \"@openzeppelin/contracts@4.4.2/access/AccessControl.sol\":7333:7338  false */\n      0x00\n        /* \"@openzeppelin/contracts@4.4.2/access/AccessControl.sol\":7301:7307  _roles */\n      dup1\n        /* \"@openzeppelin/contracts@4.4.2/access/AccessControl.sol\":7301:7313  _roles[role] */\n      0x00\n        /* \"@openzeppelin/contracts@4.4.2/access/AccessControl.sol\":7308:7312  role */\n      dup5\n        /* \"@openzeppelin/contracts@4.4.2/access/AccessControl.sol\":7301:7313  _roles[role] */\n      dup2\n      mstore\n      0x20\n      add\n      swap1\n      dup2\n      mstore\n      0x20\n      add\n      0x00\n      keccak256\n        /* \"@openzeppelin/contracts@4.4.2/access/AccessControl.sol\":7301:7321  _roles[role].members */\n      0x00\n      add\n        /* \"@openzeppelin/contracts@4.4.2/access/AccessControl.sol\":7301:7330  _roles[role].members[account] */\n      0x00\n        /* \"@openzeppelin/contracts@4.4.2/access/AccessControl.sol\":7322:7329  account */\n      dup4\n        /* \"@openzeppelin/contracts@4.4.2/access/AccessControl.sol\":7301:7330  _roles[role].members[account] */\n      0xffffffffffffffffffffffffffffffffffffffff\n      and\n      0xffffffffffffffffffffffffffffffffffffffff\n      and\n      dup2\n      mstore\n      0x20\n      add\n      swap1\n      dup2\n      mstore\n      0x20\n      add\n      0x00\n      keccak256\n      0x00\n        /* \"@openzeppelin/contracts@4.4.2/access/AccessControl.sol\":7301:7338  _roles[role].members[account] = false */\n      0x0100\n      exp\n      dup2\n      sload\n      dup2\n      0xff\n      mul\n      not\n      and\n      swap1\n      dup4\n      iszero\n      iszero\n      mul\n      or\n      swap1\n      sstore\n      pop\n        /* \"@openzeppelin/contracts@4.4.2/access/AccessControl.sol\":7384:7396  _msgSender() */\n      tag_256\n        /* \"@openzeppelin/contracts@4.4.2/access/AccessControl.sol\":7384:7394  _msgSender */\n      tag_128\n        /* \"@openzeppelin/contracts@4.4.2/access/AccessControl.sol\":7384:7396  _msgSender() */\n      jump\t// in\n    tag_256:\n        /* \"@openzeppelin/contracts@4.4.2/access/AccessControl.sol\":7357:7397  RoleRevoked(role, account, _msgSender()) */\n      0xffffffffffffffffffffffffffffffffffffffff\n      and\n        /* \"@openzeppelin/contracts@4.4.2/access/AccessControl.sol\":7375:7382  account */\n      dup2\n        /* \"@openzeppelin/contracts@4.4.2/access/AccessControl.sol\":7357:7397  RoleRevoked(role, account, _msgSender()) */\n      0xffffffffffffffffffffffffffffffffffffffff\n      and\n        /* \"@openzeppelin/contracts@4.4.2/access/AccessControl.sol\":7369:7373  role */\n      dup4\n        /* \"@openzeppelin/contracts@4.4.2/access/AccessControl.sol\":7357:7397  RoleRevoked(role, account, _msgSender()) */\n      0xf6391f5c32d9c69d2a47ea670b442974b53935d1edc7fd64eb21e047a839171b\n      mload(0x40)\n      mload(0x40)\n      dup1\n      swap2\n      sub\n      swap1\n      log4\n        /* \"@openzeppelin/contracts@4.4.2/access/AccessControl.sol\":7259:7408  if (hasRole(role, account)) {... */\n    tag_255:\n        /* \"@openzeppelin/contracts@4.4.2/access/AccessControl.sol\":7180:7414  function _revokeRole(bytes32 role, address account) internal virtual {... */\n      pop\n      pop\n      jump\t// out\n        /* \"contracts/Founding Citizens NFT Sale.sol\":4152:4643  function updateState() internal requiresConsistentState {\r... */\n    tag_148:\n        /* \"contracts/Founding Citizens NFT Sale.sol\":4041:4048  endTime */\n      sload(0x06)\n        /* \"contracts/Founding Citizens NFT Sale.sol\":4028:4037  startTime */\n      sload(0x05)\n        /* \"contracts/Founding Citizens NFT Sale.sol\":4028:4048  startTime <= endTime */\n      gt\n      iszero\n        /* \"contracts/Founding Citizens NFT Sale.sol\":4020:4084  require(startTime <= endTime, \"startTime is later than endTime\") */\n      tag_258\n      jumpi\n      mload(0x40)\n      0x08c379a000000000000000000000000000000000000000000000000000000000\n      dup2\n      mstore\n      0x04\n      add\n      tag_259\n      swap1\n      tag_260\n      jump\t// in\n    tag_259:\n      mload(0x40)\n      dup1\n      swap2\n      sub\n      swap1\n      revert\n    tag_258:\n        /* \"contracts/Founding Citizens NFT Sale.sol\":3420:3425  10**6 */\n      0x0f4240\n        /* \"contracts/Founding Citizens NFT Sale.sol\":3573:3574  1 */\n      0x01\n        /* \"contracts/Founding Citizens NFT Sale.sol\":3573:3582  1 * units */\n      tag_262\n      swap2\n      swap1\n      tag_213\n      jump\t// in\n    tag_262:\n        /* \"contracts/Founding Citizens NFT Sale.sol\":4308:4310  60 */\n      0x3c\n        /* \"contracts/Founding Citizens NFT Sale.sol\":4295:4304  startTime */\n      sload(0x05)\n        /* \"contracts/Founding Citizens NFT Sale.sol\":4277:4292  block.timestamp */\n      timestamp\n        /* \"contracts/Founding Citizens NFT Sale.sol\":4277:4304  block.timestamp - startTime */\n      tag_263\n      swap2\n      swap1\n      tag_173\n      jump\t// in\n    tag_263:\n        /* \"contracts/Founding Citizens NFT Sale.sol\":4276:4310  (block.timestamp - startTime) / 60 */\n      tag_264\n      swap2\n      swap1\n      tag_211\n      jump\t// in\n    tag_264:\n        /* \"contracts/Founding Citizens NFT Sale.sol\":4276:4335  (block.timestamp - startTime) / 60 * priceDescresePerMinute */\n      tag_265\n      swap2\n      swap1\n      tag_213\n      jump\t// in\n    tag_265:\n        /* \"contracts/Founding Citizens NFT Sale.sol\":4262:4272  startPrice */\n      sload(0x07)\n        /* \"contracts/Founding Citizens NFT Sale.sol\":4262:4336  startPrice - ((block.timestamp - startTime) / 60 * priceDescresePerMinute) */\n      tag_266\n      swap2\n      swap1\n      tag_173\n      jump\t// in\n    tag_266:\n        /* \"contracts/Founding Citizens NFT Sale.sol\":4243:4253  lastUpdate */\n      0x09\n        /* \"contracts/Founding Citizens NFT Sale.sol\":4243:4259  lastUpdate.price */\n      0x00\n      add\n        /* \"contracts/Founding Citizens NFT Sale.sol\":4243:4336  lastUpdate.price = startPrice - ((block.timestamp - startTime) / 60 * priceDescresePerMinute) */\n      dup2\n      swap1\n      sstore\n      pop\n        /* \"contracts/Founding Citizens NFT Sale.sol\":4390:4405  block.timestamp */\n      timestamp\n        /* \"contracts/Founding Citizens NFT Sale.sol\":4372:4382  lastUpdate */\n      0x09\n        /* \"contracts/Founding Citizens NFT Sale.sol\":4372:4387  lastUpdate.time */\n      0x01\n      add\n        /* \"contracts/Founding Citizens NFT Sale.sol\":4372:4405  lastUpdate.time = block.timestamp */\n      dup2\n      swap1\n      sstore\n      pop\n        /* \"contracts/Founding Citizens NFT Sale.sol\":4478:4487  startTime */\n      sload(0x05)\n        /* \"contracts/Founding Citizens NFT Sale.sol\":4459:4474  block.timestamp */\n      timestamp\n        /* \"contracts/Founding Citizens NFT Sale.sol\":4459:4487  block.timestamp >= startTime */\n      lt\n      iszero\n        /* \"contracts/Founding Citizens NFT Sale.sol\":4459:4517  block.timestamp >= startTime && block.timestamp <= endTime */\n      dup1\n      iszero\n      tag_267\n      jumpi\n      pop\n        /* \"contracts/Founding Citizens NFT Sale.sol\":4510:4517  endTime */\n      sload(0x06)\n        /* \"contracts/Founding Citizens NFT Sale.sol\":4491:4506  block.timestamp */\n      timestamp\n        /* \"contracts/Founding Citizens NFT Sale.sol\":4491:4517  block.timestamp <= endTime */\n      gt\n      iszero\n        /* \"contracts/Founding Citizens NFT Sale.sol\":4459:4517  block.timestamp >= startTime && block.timestamp <= endTime */\n    tag_267:\n        /* \"contracts/Founding Citizens NFT Sale.sol\":4455:4636  if (block.timestamp >= startTime && block.timestamp <= endTime) {\r... */\n      iszero\n      tag_268\n      jumpi\n        /* \"contracts/Founding Citizens NFT Sale.sol\":4558:4562  true */\n      0x01\n        /* \"contracts/Founding Citizens NFT Sale.sol\":4534:4544  lastUpdate */\n      0x09\n        /* \"contracts/Founding Citizens NFT Sale.sol\":4534:4555  lastUpdate.saleIsLive */\n      0x02\n      add\n      0x00\n        /* \"contracts/Founding Citizens NFT Sale.sol\":4534:4562  lastUpdate.saleIsLive = true */\n      0x0100\n      exp\n      dup2\n      sload\n      dup2\n      0xff\n      mul\n      not\n      and\n      swap1\n      dup4\n      iszero\n      iszero\n      mul\n      or\n      swap1\n      sstore\n      pop\n        /* \"contracts/Founding Citizens NFT Sale.sol\":4455:4636  if (block.timestamp >= startTime && block.timestamp <= endTime) {\r... */\n      jump(tag_269)\n    tag_268:\n        /* \"contracts/Founding Citizens NFT Sale.sol\":4619:4624  false */\n      0x00\n        /* \"contracts/Founding Citizens NFT Sale.sol\":4595:4605  lastUpdate */\n      0x09\n        /* \"contracts/Founding Citizens NFT Sale.sol\":4595:4616  lastUpdate.saleIsLive */\n      0x02\n      add\n      0x00\n        /* \"contracts/Founding Citizens NFT Sale.sol\":4595:4624  lastUpdate.saleIsLive = false */\n      0x0100\n      exp\n      dup2\n      sload\n      dup2\n      0xff\n      mul\n      not\n      and\n      swap1\n      dup4\n      iszero\n      iszero\n      mul\n      or\n      swap1\n      sstore\n      pop\n        /* \"contracts/Founding Citizens NFT Sale.sol\":4455:4636  if (block.timestamp >= startTime && block.timestamp <= endTime) {\r... */\n    tag_269:\n        /* \"contracts/Founding Citizens NFT Sale.sol\":4152:4643  function updateState() internal requiresConsistentState {\r... */\n      jump\t// out\n        /* \"contracts/Founding Citizens NFT Sale.sol\":6514:6678  function _buyNFT(uint price) internal {\r... */\n    tag_152:\n        /* \"contracts/Founding Citizens NFT Sale.sol\":6563:6588  usdcEscrowStorageContract */\n      0x03\n      0x00\n      swap1\n      sload\n      swap1\n      0x0100\n      exp\n      swap1\n      div\n      0xffffffffffffffffffffffffffffffffffffffff\n      and\n        /* \"contracts/Founding Citizens NFT Sale.sol\":6563:6608  usdcEscrowStorageContract.decreaseUsdcBalance */\n      0xffffffffffffffffffffffffffffffffffffffff\n      and\n      0x532b2913\n        /* \"contracts/Founding Citizens NFT Sale.sol\":6609:6619  msg.sender */\n      caller\n        /* \"contracts/Founding Citizens NFT Sale.sol\":6621:6626  price */\n      dup4\n        /* \"contracts/Founding Citizens NFT Sale.sol\":6563:6627  usdcEscrowStorageContract.decreaseUsdcBalance(msg.sender, price) */\n      mload(0x40)\n      dup4\n      0xffffffff\n      and\n      0xe0\n      shl\n      dup2\n      mstore\n      0x04\n      add\n      tag_271\n      swap3\n      swap2\n      swap1\n      tag_198\n      jump\t// in\n    tag_271:\n      0x00\n      mload(0x40)\n      dup1\n      dup4\n      sub\n      dup2\n      0x00\n      dup8\n      dup1\n      extcodesize\n      iszero\n      dup1\n      iszero\n      tag_272\n      jumpi\n      0x00\n      dup1\n      revert\n    tag_272:\n      pop\n      gas\n      call\n      iszero\n      dup1\n      iszero\n      tag_274\n      jumpi\n      returndatasize\n      0x00\n      dup1\n      returndatacopy\n      revert(0x00, returndatasize)\n    tag_274:\n      pop\n      pop\n      pop\n      pop\n        /* \"contracts/Founding Citizens NFT Sale.sol\":6638:6670  mintNextNftToAddress(msg.sender) */\n      tag_275\n        /* \"contracts/Founding Citizens NFT Sale.sol\":6659:6669  msg.sender */\n      caller\n        /* \"contracts/Founding Citizens NFT Sale.sol\":6638:6658  mintNextNftToAddress */\n      tag_180\n        /* \"contracts/Founding Citizens NFT Sale.sol\":6638:6670  mintNextNftToAddress(msg.sender) */\n      jump\t// in\n    tag_275:\n        /* \"contracts/Founding Citizens NFT Sale.sol\":6514:6678  function _buyNFT(uint price) internal {\r... */\n      pop\n      jump\t// out\n        /* \"contracts/Founding Citizens NFT Sale.sol\":4826:5036  function mintNextNftToAddress(address to) internal {\r... */\n    tag_180:\n        /* \"contracts/Founding Citizens NFT Sale.sol\":4901:4923  ERC1155storageContract */\n      0x01\n      0x00\n      swap1\n      sload\n      swap1\n      0x0100\n      exp\n      swap1\n      div\n      0xffffffffffffffffffffffffffffffffffffffff\n      and\n        /* \"contracts/Founding Citizens NFT Sale.sol\":4888:4945  IMintStorage(ERC1155storageContract).mintNextNftToAddress */\n      0xffffffffffffffffffffffffffffffffffffffff\n      and\n      0x55676590\n        /* \"contracts/Founding Citizens NFT Sale.sol\":4946:4948  to */\n      dup3\n        /* \"contracts/Founding Citizens NFT Sale.sol\":4888:4949  IMintStorage(ERC1155storageContract).mintNextNftToAddress(to) */\n      mload(0x40)\n      dup3\n      0xffffffff\n      and\n      0xe0\n      shl\n      dup2\n      mstore\n      0x04\n      add\n      tag_277\n      swap2\n      swap1\n      tag_108\n      jump\t// in\n    tag_277:\n      0x00\n      mload(0x40)\n      dup1\n      dup4\n      sub\n      dup2\n      0x00\n      dup8\n      dup1\n      extcodesize\n      iszero\n      dup1\n      iszero\n      tag_278\n      jumpi\n      0x00\n      dup1\n      revert\n    tag_278:\n      pop\n      gas\n      call\n      iszero\n      dup1\n      iszero\n      tag_280\n      jumpi\n      returndatasize\n      0x00\n      dup1\n      returndatacopy\n      revert(0x00, returndatasize)\n    tag_280:\n      pop\n      pop\n      pop\n      pop\n        /* \"contracts/Founding Citizens NFT Sale.sol\":4960:4980  string[] memory temp */\n      0x60\n        /* \"contracts/Founding Citizens NFT Sale.sol\":4991:5004  temp[0] = \"J\" */\n      mload(0x40)\n      dup1\n      0x40\n      add\n      0x40\n      mstore\n      dup1\n      0x01\n      dup2\n      mstore\n      0x20\n      add\n      0x4a00000000000000000000000000000000000000000000000000000000000000\n      dup2\n      mstore\n      pop\n        /* \"contracts/Founding Citizens NFT Sale.sol\":4991:4995  temp */\n      dup2\n        /* \"contracts/Founding Citizens NFT Sale.sol\":4996:4997  0 */\n      0x00\n        /* \"contracts/Founding Citizens NFT Sale.sol\":4991:4998  temp[0] */\n      dup2\n      mload\n      dup2\n      lt\n      tag_281\n      jumpi\n      mstore(0x00, 0x4e487b7100000000000000000000000000000000000000000000000000000000)\n      mstore(0x04, 0x32)\n      revert(0x00, 0x24)\n    tag_281:\n      0x20\n      mul\n      0x20\n      add\n      add\n        /* \"contracts/Founding Citizens NFT Sale.sol\":4991:5004  temp[0] = \"J\" */\n      dup2\n      swap1\n      mstore\n      pop\n        /* \"contracts/Founding Citizens NFT Sale.sol\":5015:5028  temp[1] = \"K\" */\n      mload(0x40)\n      dup1\n      0x40\n      add\n      0x40\n      mstore\n      dup1\n      0x01\n      dup2\n      mstore\n      0x20\n      add\n      0x4b00000000000000000000000000000000000000000000000000000000000000\n      dup2\n      mstore\n      pop\n        /* \"contracts/Founding Citizens NFT Sale.sol\":5015:5019  temp */\n      dup2\n        /* \"contracts/Founding Citizens NFT Sale.sol\":5020:5021  1 */\n      0x01\n        /* \"contracts/Founding Citizens NFT Sale.sol\":5015:5022  temp[1] */\n      dup2\n      mload\n      dup2\n      lt\n      tag_282\n      jumpi\n      mstore(0x00, 0x4e487b7100000000000000000000000000000000000000000000000000000000)\n      mstore(0x04, 0x32)\n      revert(0x00, 0x24)\n    tag_282:\n      0x20\n      mul\n      0x20\n      add\n      add\n        /* \"contracts/Founding Citizens NFT Sale.sol\":5015:5028  temp[1] = \"K\" */\n      dup2\n      swap1\n      mstore\n      pop\n        /* \"contracts/Founding Citizens NFT Sale.sol\":4826:5036  function mintNextNftToAddress(address to) internal {\r... */\n      pop\n      pop\n      jump\t// out\n        /* \"@openzeppelin/contracts@4.4.2/utils/Strings.sol\":1588:2029  function toHexString(uint256 value, uint256 length) internal pure returns (string memory) {... */\n    tag_244:\n        /* \"@openzeppelin/contracts@4.4.2/utils/Strings.sol\":1663:1676  string memory */\n      0x60\n        /* \"@openzeppelin/contracts@4.4.2/utils/Strings.sol\":1688:1707  bytes memory buffer */\n      0x00\n        /* \"@openzeppelin/contracts@4.4.2/utils/Strings.sol\":1733:1734  2 */\n      0x02\n        /* \"@openzeppelin/contracts@4.4.2/utils/Strings.sol\":1724:1730  length */\n      dup4\n        /* \"@openzeppelin/contracts@4.4.2/utils/Strings.sol\":1720:1721  2 */\n      0x02\n        /* \"@openzeppelin/contracts@4.4.2/utils/Strings.sol\":1720:1730  2 * length */\n      tag_284\n      swap2\n      swap1\n      tag_213\n      jump\t// in\n    tag_284:\n        /* \"@openzeppelin/contracts@4.4.2/utils/Strings.sol\":1720:1734  2 * length + 2 */\n      tag_285\n      swap2\n      swap1\n      tag_286\n      jump\t// in\n    tag_285:\n        /* \"@openzeppelin/contracts@4.4.2/utils/Strings.sol\":1710:1735  new bytes(2 * length + 2) */\n      0xffffffffffffffff\n      dup2\n      gt\n      iszero\n      tag_287\n      jumpi\n      mstore(0x00, 0x4e487b7100000000000000000000000000000000000000000000000000000000)\n      mstore(0x04, 0x41)\n      revert(0x00, 0x24)\n    tag_287:\n      mload(0x40)\n      swap1\n      dup1\n      dup3\n      mstore\n      dup1\n      0x1f\n      add\n      not(0x1f)\n      and\n      0x20\n      add\n      dup3\n      add\n      0x40\n      mstore\n      dup1\n      iszero\n      tag_288\n      jumpi\n      dup2\n      0x20\n      add\n      0x01\n      dup3\n      mul\n      dup1\n      calldatasize\n      dup4\n      calldatacopy\n      dup1\n      dup3\n      add\n      swap2\n      pop\n      pop\n      swap1\n      pop\n    tag_288:\n      pop\n        /* \"@openzeppelin/contracts@4.4.2/utils/Strings.sol\":1688:1735  bytes memory buffer = new bytes(2 * length + 2) */\n      swap1\n      pop\n        /* \"@openzeppelin/contracts@4.4.2/utils/Strings.sol\":1745:1760  buffer[0] = \"0\" */\n      0x3000000000000000000000000000000000000000000000000000000000000000\n        /* \"@openzeppelin/contracts@4.4.2/utils/Strings.sol\":1745:1751  buffer */\n      dup2\n        /* \"@openzeppelin/contracts@4.4.2/utils/Strings.sol\":1752:1753  0 */\n      0x00\n        /* \"@openzeppelin/contracts@4.4.2/utils/Strings.sol\":1745:1754  buffer[0] */\n      dup2\n      mload\n      dup2\n      lt\n      tag_289\n      jumpi\n      mstore(0x00, 0x4e487b7100000000000000000000000000000000000000000000000000000000)\n      mstore(0x04, 0x32)\n      revert(0x00, 0x24)\n    tag_289:\n      0x20\n      add\n      add\n        /* \"@openzeppelin/contracts@4.4.2/utils/Strings.sol\":1745:1760  buffer[0] = \"0\" */\n      swap1\n      not(0xffffffffffffffffffffffffffffffffffffffffffffffffffffffffffffff)\n      and\n      swap1\n      dup2\n      0x00\n      byte\n      swap1\n      mstore8\n      pop\n        /* \"@openzeppelin/contracts@4.4.2/utils/Strings.sol\":1770:1785  buffer[1] = \"x\" */\n      0x7800000000000000000000000000000000000000000000000000000000000000\n        /* \"@openzeppelin/contracts@4.4.2/utils/Strings.sol\":1770:1776  buffer */\n      dup2\n        /* \"@openzeppelin/contracts@4.4.2/utils/Strings.sol\":1777:1778  1 */\n      0x01\n        /* \"@openzeppelin/contracts@4.4.2/utils/Strings.sol\":1770:1779  buffer[1] */\n      dup2\n      mload\n      dup2\n      lt\n      tag_290\n      jumpi\n      mstore(0x00, 0x4e487b7100000000000000000000000000000000000000000000000000000000)\n      mstore(0x04, 0x32)\n      revert(0x00, 0x24)\n    tag_290:\n      0x20\n      add\n      add\n        /* \"@openzeppelin/contracts@4.4.2/utils/Strings.sol\":1770:1785  buffer[1] = \"x\" */\n      swap1\n      not(0xffffffffffffffffffffffffffffffffffffffffffffffffffffffffffffff)\n      and\n      swap1\n      dup2\n      0x00\n      byte\n      swap1\n      mstore8\n      pop\n        /* \"@openzeppelin/contracts@4.4.2/utils/Strings.sol\":1800:1809  uint256 i */\n      0x00\n        /* \"@openzeppelin/contracts@4.4.2/utils/Strings.sol\":1825:1826  1 */\n      0x01\n        /* \"@openzeppelin/contracts@4.4.2/utils/Strings.sol\":1816:1822  length */\n      dup5\n        /* \"@openzeppelin/contracts@4.4.2/utils/Strings.sol\":1812:1813  2 */\n      0x02\n        /* \"@openzeppelin/contracts@4.4.2/utils/Strings.sol\":1812:1822  2 * length */\n      tag_294\n      swap2\n      swap1\n      tag_213\n      jump\t// in\n    tag_294:\n        /* \"@openzeppelin/contracts@4.4.2/utils/Strings.sol\":1812:1826  2 * length + 1 */\n      tag_295\n      swap2\n      swap1\n      tag_286\n      jump\t// in\n    tag_295:\n        /* \"@openzeppelin/contracts@4.4.2/utils/Strings.sol\":1800:1826  uint256 i = 2 * length + 1 */\n      swap1\n      pop\n        /* \"@openzeppelin/contracts@4.4.2/utils/Strings.sol\":1795:1927  for (uint256 i = 2 * length + 1; i > 1; --i) {... */\n    tag_291:\n        /* \"@openzeppelin/contracts@4.4.2/utils/Strings.sol\":1832:1833  1 */\n      0x01\n        /* \"@openzeppelin/contracts@4.4.2/utils/Strings.sol\":1828:1829  i */\n      dup2\n        /* \"@openzeppelin/contracts@4.4.2/utils/Strings.sol\":1828:1833  i > 1 */\n      gt\n        /* \"@openzeppelin/contracts@4.4.2/utils/Strings.sol\":1795:1927  for (uint256 i = 2 * length + 1; i > 1; --i) {... */\n      iszero\n      tag_292\n      jumpi\n        /* \"@openzeppelin/contracts@4.4.2/utils/Strings.sol\":1866:1878  _HEX_SYMBOLS */\n      0x3031323334353637383961626364656600000000000000000000000000000000\n        /* \"@openzeppelin/contracts@4.4.2/utils/Strings.sol\":1887:1890  0xf */\n      0x0f\n        /* \"@openzeppelin/contracts@4.4.2/utils/Strings.sol\":1879:1884  value */\n      dup7\n        /* \"@openzeppelin/contracts@4.4.2/utils/Strings.sol\":1879:1890  value & 0xf */\n      and\n        /* \"@openzeppelin/contracts@4.4.2/utils/Strings.sol\":1866:1891  _HEX_SYMBOLS[value & 0xf] */\n      0x10\n      dup2\n      lt\n      tag_296\n      jumpi\n      mstore(0x00, 0x4e487b7100000000000000000000000000000000000000000000000000000000)\n      mstore(0x04, 0x32)\n      revert(0x00, 0x24)\n    tag_296:\n      byte\n      0xf8\n      shl\n        /* \"@openzeppelin/contracts@4.4.2/utils/Strings.sol\":1854:1860  buffer */\n      dup3\n        /* \"@openzeppelin/contracts@4.4.2/utils/Strings.sol\":1861:1862  i */\n      dup3\n        /* \"@openzeppelin/contracts@4.4.2/utils/Strings.sol\":1854:1863  buffer[i] */\n      dup2\n      mload\n      dup2\n      lt\n      tag_297\n      jumpi\n      mstore(0x00, 0x4e487b7100000000000000000000000000000000000000000000000000000000)\n      mstore(0x04, 0x32)\n      revert(0x00, 0x24)\n    tag_297:\n      0x20\n      add\n      add\n        /* \"@openzeppelin/contracts@4.4.2/utils/Strings.sol\":1854:1891  buffer[i] = _HEX_SYMBOLS[value & 0xf] */\n      swap1\n      not(0xffffffffffffffffffffffffffffffffffffffffffffffffffffffffffffff)\n      and\n      swap1\n      dup2\n      0x00\n      byte\n      swap1\n      mstore8\n      pop\n        /* \"@openzeppelin/contracts@4.4.2/utils/Strings.sol\":1915:1916  4 */\n      0x04\n        /* \"@openzeppelin/contracts@4.4.2/utils/Strings.sol\":1905:1916  value >>= 4 */\n      dup6\n      swap1\n      shr\n      swap5\n      pop\n        /* \"@openzeppelin/contracts@4.4.2/utils/Strings.sol\":1835:1838  --i */\n      dup1\n      tag_298\n      swap1\n      tag_182\n      jump\t// in\n    tag_298:\n      swap1\n      pop\n        /* \"@openzeppelin/contracts@4.4.2/utils/Strings.sol\":1795:1927  for (uint256 i = 2 * length + 1; i > 1; --i) {... */\n      jump(tag_291)\n    tag_292:\n      pop\n        /* \"@openzeppelin/contracts@4.4.2/utils/Strings.sol\":1953:1954  0 */\n      0x00\n        /* \"@openzeppelin/contracts@4.4.2/utils/Strings.sol\":1944:1949  value */\n      dup5\n        /* \"@openzeppelin/contracts@4.4.2/utils/Strings.sol\":1944:1954  value == 0 */\n      eq\n        /* \"@openzeppelin/contracts@4.4.2/utils/Strings.sol\":1936:1991  require(value == 0, \"Strings: hex length insufficient\") */\n      tag_299\n      jumpi\n      mload(0x40)\n      0x08c379a000000000000000000000000000000000000000000000000000000000\n      dup2\n      mstore\n      0x04\n      add\n      tag_300\n      swap1\n      tag_301\n      jump\t// in\n    tag_300:\n      mload(0x40)\n      dup1\n      swap2\n      sub\n      swap1\n      revert\n    tag_299:\n        /* \"@openzeppelin/contracts@4.4.2/utils/Strings.sol\":2015:2021  buffer */\n      dup1\n        /* \"@openzeppelin/contracts@4.4.2/utils/Strings.sol\":2001:2022  return string(buffer) */\n      swap2\n      pop\n      pop\n        /* \"@openzeppelin/contracts@4.4.2/utils/Strings.sol\":1588:2029  function toHexString(uint256 value, uint256 length) internal pure returns (string memory) {... */\n      swap3\n      swap2\n      pop\n      pop\n      jump\t// out\n        /* \"#utility.yul\":23:639   */\n    tag_303:\n      0x00\n        /* \"#utility.yul\":154:245   */\n      tag_305\n        /* \"#utility.yul\":170:244   */\n      tag_306\n        /* \"#utility.yul\":237:243   */\n      dup5\n        /* \"#utility.yul\":170:244   */\n      tag_307\n      jump\t// in\n    tag_306:\n        /* \"#utility.yul\":154:245   */\n      tag_308\n      jump\t// in\n    tag_305:\n        /* \"#utility.yul\":145:245   */\n      swap1\n      pop\n        /* \"#utility.yul\":265:270   */\n      dup1\n        /* \"#utility.yul\":293:299   */\n      dup4\n        /* \"#utility.yul\":286:291   */\n      dup3\n        /* \"#utility.yul\":279:300   */\n      mstore\n        /* \"#utility.yul\":319:323   */\n      0x20\n        /* \"#utility.yul\":312:317   */\n      dup3\n        /* \"#utility.yul\":308:324   */\n      add\n        /* \"#utility.yul\":301:324   */\n      swap1\n      pop\n        /* \"#utility.yul\":344:350   */\n      dup3\n        /* \"#utility.yul\":375:376   */\n      0x00\n        /* \"#utility.yul\":360:633   */\n    tag_309:\n        /* \"#utility.yul\":385:391   */\n      dup6\n        /* \"#utility.yul\":382:383   */\n      dup2\n        /* \"#utility.yul\":379:392   */\n      lt\n        /* \"#utility.yul\":360:633   */\n      iszero\n      tag_311\n      jumpi\n        /* \"#utility.yul\":477:480   */\n      dup2\n        /* \"#utility.yul\":464:481   */\n      calldataload\n        /* \"#utility.yul\":456:462   */\n      dup6\n        /* \"#utility.yul\":452:482   */\n      add\n        /* \"#utility.yul\":507:554   */\n      tag_312\n        /* \"#utility.yul\":550:553   */\n      dup9\n        /* \"#utility.yul\":538:548   */\n      dup3\n        /* \"#utility.yul\":507:554   */\n      tag_313\n      jump\t// in\n    tag_312:\n        /* \"#utility.yul\":502:505   */\n      dup5\n        /* \"#utility.yul\":495:555   */\n      mstore\n        /* \"#utility.yul\":584:588   */\n      0x20\n        /* \"#utility.yul\":579:582   */\n      dup5\n        /* \"#utility.yul\":575:589   */\n      add\n        /* \"#utility.yul\":568:589   */\n      swap4\n      pop\n        /* \"#utility.yul\":618:622   */\n      0x20\n        /* \"#utility.yul\":613:616   */\n      dup4\n        /* \"#utility.yul\":609:623   */\n      add\n        /* \"#utility.yul\":602:623   */\n      swap3\n      pop\n        /* \"#utility.yul\":420:633   */\n      pop\n        /* \"#utility.yul\":407:408   */\n      0x01\n        /* \"#utility.yul\":404:405   */\n      dup2\n        /* \"#utility.yul\":400:409   */\n      add\n        /* \"#utility.yul\":395:409   */\n      swap1\n      pop\n        /* \"#utility.yul\":360:633   */\n      jump(tag_309)\n    tag_311:\n        /* \"#utility.yul\":364:378   */\n      pop\n        /* \"#utility.yul\":135:639   */\n      pop\n      pop\n      swap4\n      swap3\n      pop\n      pop\n      pop\n      jump\t// out\n        /* \"#utility.yul\":662:1285   */\n    tag_314:\n      0x00\n        /* \"#utility.yul\":783:864   */\n      tag_316\n        /* \"#utility.yul\":799:863   */\n      tag_317\n        /* \"#utility.yul\":856:862   */\n      dup5\n        /* \"#utility.yul\":799:863   */\n      tag_318\n      jump\t// in\n    tag_317:\n        /* \"#utility.yul\":783:864   */\n      tag_308\n      jump\t// in\n    tag_316:\n        /* \"#utility.yul\":774:864   */\n      swap1\n      pop\n        /* \"#utility.yul\":884:889   */\n      dup1\n        /* \"#utility.yul\":912:918   */\n      dup4\n        /* \"#utility.yul\":905:910   */\n      dup3\n        /* \"#utility.yul\":898:919   */\n      mstore\n        /* \"#utility.yul\":938:942   */\n      0x20\n        /* \"#utility.yul\":931:936   */\n      dup3\n        /* \"#utility.yul\":927:943   */\n      add\n        /* \"#utility.yul\":920:943   */\n      swap1\n      pop\n        /* \"#utility.yul\":963:969   */\n      dup3\n        /* \"#utility.yul\":1013:1016   */\n      dup6\n        /* \"#utility.yul\":1005:1009   */\n      0x20\n        /* \"#utility.yul\":997:1003   */\n      dup7\n        /* \"#utility.yul\":993:1010   */\n      mul\n        /* \"#utility.yul\":988:991   */\n      dup3\n        /* \"#utility.yul\":984:1011   */\n      add\n        /* \"#utility.yul\":981:1017   */\n      gt\n        /* \"#utility.yul\":978:980   */\n      iszero\n      tag_319\n      jumpi\n        /* \"#utility.yul\":1030:1031   */\n      0x00\n        /* \"#utility.yul\":1027:1028   */\n      dup1\n        /* \"#utility.yul\":1020:1032   */\n      revert\n        /* \"#utility.yul\":978:980   */\n    tag_319:\n        /* \"#utility.yul\":1058:1059   */\n      0x00\n        /* \"#utility.yul\":1043:1279   */\n    tag_320:\n        /* \"#utility.yul\":1068:1074   */\n      dup6\n        /* \"#utility.yul\":1065:1066   */\n      dup2\n        /* \"#utility.yul\":1062:1075   */\n      lt\n        /* \"#utility.yul\":1043:1279   */\n      iszero\n      tag_322\n      jumpi\n        /* \"#utility.yul\":1135:1138   */\n      dup2\n        /* \"#utility.yul\":1163:1200   */\n      tag_323\n        /* \"#utility.yul\":1196:1199   */\n      dup9\n        /* \"#utility.yul\":1184:1194   */\n      dup3\n        /* \"#utility.yul\":1163:1200   */\n      tag_324\n      jump\t// in\n    tag_323:\n        /* \"#utility.yul\":1158:1161   */\n      dup5\n        /* \"#utility.yul\":1151:1201   */\n      mstore\n        /* \"#utility.yul\":1230:1234   */\n      0x20\n        /* \"#utility.yul\":1225:1228   */\n      dup5\n        /* \"#utility.yul\":1221:1235   */\n      add\n        /* \"#utility.yul\":1214:1235   */\n      swap4\n      pop\n        /* \"#utility.yul\":1264:1268   */\n      0x20\n        /* \"#utility.yul\":1259:1262   */\n      dup4\n        /* \"#utility.yul\":1255:1269   */\n      add\n        /* \"#utility.yul\":1248:1269   */\n      swap3\n      pop\n        /* \"#utility.yul\":1103:1279   */\n      pop\n        /* \"#utility.yul\":1090:1091   */\n      0x01\n        /* \"#utility.yul\":1087:1088   */\n      dup2\n        /* \"#utility.yul\":1083:1092   */\n      add\n        /* \"#utility.yul\":1078:1092   */\n      swap1\n      pop\n        /* \"#utility.yul\":1043:1279   */\n      jump(tag_320)\n    tag_322:\n        /* \"#utility.yul\":1047:1061   */\n      pop\n        /* \"#utility.yul\":764:1285   */\n      pop\n      pop\n      swap4\n      swap3\n      pop\n      pop\n      pop\n      jump\t// out\n        /* \"#utility.yul\":1291:1636   */\n    tag_325:\n      0x00\n        /* \"#utility.yul\":1394:1460   */\n      tag_327\n        /* \"#utility.yul\":1410:1459   */\n      tag_328\n        /* \"#utility.yul\":1452:1458   */\n      dup5\n        /* \"#utility.yul\":1410:1459   */\n      tag_329\n      jump\t// in\n    tag_328:\n        /* \"#utility.yul\":1394:1460   */\n      tag_308\n      jump\t// in\n    tag_327:\n        /* \"#utility.yul\":1385:1460   */\n      swap1\n      pop\n        /* \"#utility.yul\":1483:1489   */\n      dup3\n        /* \"#utility.yul\":1476:1481   */\n      dup2\n        /* \"#utility.yul\":1469:1490   */\n      mstore\n        /* \"#utility.yul\":1521:1525   */\n      0x20\n        /* \"#utility.yul\":1514:1519   */\n      dup2\n        /* \"#utility.yul\":1510:1526   */\n      add\n        /* \"#utility.yul\":1559:1562   */\n      dup5\n        /* \"#utility.yul\":1550:1556   */\n      dup5\n        /* \"#utility.yul\":1545:1548   */\n      dup5\n        /* \"#utility.yul\":1541:1557   */\n      add\n        /* \"#utility.yul\":1538:1563   */\n      gt\n        /* \"#utility.yul\":1535:1537   */\n      iszero\n      tag_330\n      jumpi\n        /* \"#utility.yul\":1576:1577   */\n      0x00\n        /* \"#utility.yul\":1573:1574   */\n      dup1\n        /* \"#utility.yul\":1566:1578   */\n      revert\n        /* \"#utility.yul\":1535:1537   */\n    tag_330:\n        /* \"#utility.yul\":1589:1630   */\n      tag_331\n        /* \"#utility.yul\":1623:1629   */\n      dup5\n        /* \"#utility.yul\":1618:1621   */\n      dup3\n        /* \"#utility.yul\":1613:1616   */\n      dup6\n        /* \"#utility.yul\":1589:1630   */\n      tag_332\n      jump\t// in\n    tag_331:\n        /* \"#utility.yul\":1375:1636   */\n      pop\n      swap4\n      swap3\n      pop\n      pop\n      pop\n      jump\t// out\n        /* \"#utility.yul\":1642:1781   */\n    tag_333:\n      0x00\n        /* \"#utility.yul\":1726:1732   */\n      dup2\n        /* \"#utility.yul\":1713:1733   */\n      calldataload\n        /* \"#utility.yul\":1704:1733   */\n      swap1\n      pop\n        /* \"#utility.yul\":1742:1775   */\n      tag_335\n        /* \"#utility.yul\":1769:1774   */\n      dup2\n        /* \"#utility.yul\":1742:1775   */\n      tag_336\n      jump\t// in\n    tag_335:\n        /* \"#utility.yul\":1694:1781   */\n      swap3\n      swap2\n      pop\n      pop\n      jump\t// out\n        /* \"#utility.yul\":1803:2126   */\n    tag_337:\n      0x00\n        /* \"#utility.yul\":1933:1936   */\n      dup3\n        /* \"#utility.yul\":1926:1930   */\n      0x1f\n        /* \"#utility.yul\":1918:1924   */\n      dup4\n        /* \"#utility.yul\":1914:1931   */\n      add\n        /* \"#utility.yul\":1910:1937   */\n      slt\n        /* \"#utility.yul\":1900:1902   */\n      tag_339\n      jumpi\n        /* \"#utility.yul\":1951:1952   */\n      0x00\n        /* \"#utility.yul\":1948:1949   */\n      dup1\n        /* \"#utility.yul\":1941:1953   */\n      revert\n        /* \"#utility.yul\":1900:1902   */\n    tag_339:\n        /* \"#utility.yul\":1991:1997   */\n      dup2\n        /* \"#utility.yul\":1978:1998   */\n      calldataload\n        /* \"#utility.yul\":2016:2120   */\n      tag_340\n        /* \"#utility.yul\":2116:2119   */\n      dup5\n        /* \"#utility.yul\":2108:2114   */\n      dup3\n        /* \"#utility.yul\":2101:2105   */\n      0x20\n        /* \"#utility.yul\":2093:2099   */\n      dup7\n        /* \"#utility.yul\":2089:2106   */\n      add\n        /* \"#utility.yul\":2016:2120   */\n      tag_303\n      jump\t// in\n    tag_340:\n        /* \"#utility.yul\":2007:2120   */\n      swap2\n      pop\n        /* \"#utility.yul\":1890:2126   */\n      pop\n      swap3\n      swap2\n      pop\n      pop\n      jump\t// out\n        /* \"#utility.yul\":2149:2452   */\n    tag_341:\n      0x00\n        /* \"#utility.yul\":2269:2272   */\n      dup3\n        /* \"#utility.yul\":2262:2266   */\n      0x1f\n        /* \"#utility.yul\":2254:2260   */\n      dup4\n        /* \"#utility.yul\":2250:2267   */\n      add\n        /* \"#utility.yul\":2246:2273   */\n      slt\n        /* \"#utility.yul\":2236:2238   */\n      tag_343\n      jumpi\n        /* \"#utility.yul\":2287:2288   */\n      0x00\n        /* \"#utility.yul\":2284:2285   */\n      dup1\n        /* \"#utility.yul\":2277:2289   */\n      revert\n        /* \"#utility.yul\":2236:2238   */\n    tag_343:\n        /* \"#utility.yul\":2327:2333   */\n      dup2\n        /* \"#utility.yul\":2314:2334   */\n      calldataload\n        /* \"#utility.yul\":2352:2446   */\n      tag_344\n        /* \"#utility.yul\":2442:2445   */\n      dup5\n        /* \"#utility.yul\":2434:2440   */\n      dup3\n        /* \"#utility.yul\":2427:2431   */\n      0x20\n        /* \"#utility.yul\":2419:2425   */\n      dup7\n        /* \"#utility.yul\":2415:2432   */\n      add\n        /* \"#utility.yul\":2352:2446   */\n      tag_314\n      jump\t// in\n    tag_344:\n        /* \"#utility.yul\":2343:2446   */\n      swap2\n      pop\n        /* \"#utility.yul\":2226:2452   */\n      pop\n      swap3\n      swap2\n      pop\n      pop\n      jump\t// out\n        /* \"#utility.yul\":2458:2595   */\n    tag_345:\n      0x00\n        /* \"#utility.yul\":2543:2549   */\n      dup2\n        /* \"#utility.yul\":2537:2550   */\n      mload\n        /* \"#utility.yul\":2528:2550   */\n      swap1\n      pop\n        /* \"#utility.yul\":2559:2589   */\n      tag_347\n        /* \"#utility.yul\":2583:2588   */\n      dup2\n        /* \"#utility.yul\":2559:2589   */\n      tag_348\n      jump\t// in\n    tag_347:\n        /* \"#utility.yul\":2518:2595   */\n      swap3\n      swap2\n      pop\n      pop\n      jump\t// out\n        /* \"#utility.yul\":2601:2740   */\n    tag_349:\n      0x00\n        /* \"#utility.yul\":2685:2691   */\n      dup2\n        /* \"#utility.yul\":2672:2692   */\n      calldataload\n        /* \"#utility.yul\":2663:2692   */\n      swap1\n      pop\n        /* \"#utility.yul\":2701:2734   */\n      tag_351\n        /* \"#utility.yul\":2728:2733   */\n      dup2\n        /* \"#utility.yul\":2701:2734   */\n      tag_352\n      jump\t// in\n    tag_351:\n        /* \"#utility.yul\":2653:2740   */\n      swap3\n      swap2\n      pop\n      pop\n      jump\t// out\n        /* \"#utility.yul\":2746:2883   */\n    tag_353:\n      0x00\n        /* \"#utility.yul\":2829:2835   */\n      dup2\n        /* \"#utility.yul\":2816:2836   */\n      calldataload\n        /* \"#utility.yul\":2807:2836   */\n      swap1\n      pop\n        /* \"#utility.yul\":2845:2877   */\n      tag_355\n        /* \"#utility.yul\":2871:2876   */\n      dup2\n        /* \"#utility.yul\":2845:2877   */\n      tag_356\n      jump\t// in\n    tag_355:\n        /* \"#utility.yul\":2797:2883   */\n      swap3\n      swap2\n      pop\n      pop\n      jump\t// out\n        /* \"#utility.yul\":2903:3176   */\n    tag_313:\n      0x00\n        /* \"#utility.yul\":3008:3011   */\n      dup3\n        /* \"#utility.yul\":3001:3005   */\n      0x1f\n        /* \"#utility.yul\":2993:2999   */\n      dup4\n        /* \"#utility.yul\":2989:3006   */\n      add\n        /* \"#utility.yul\":2985:3012   */\n      slt\n        /* \"#utility.yul\":2975:2977   */\n      tag_358\n      jumpi\n        /* \"#utility.yul\":3026:3027   */\n      0x00\n        /* \"#utility.yul\":3023:3024   */\n      dup1\n        /* \"#utility.yul\":3016:3028   */\n      revert\n        /* \"#utility.yul\":2975:2977   */\n    tag_358:\n        /* \"#utility.yul\":3066:3072   */\n      dup2\n        /* \"#utility.yul\":3053:3073   */\n      calldataload\n        /* \"#utility.yul\":3091:3170   */\n      tag_359\n        /* \"#utility.yul\":3166:3169   */\n      dup5\n        /* \"#utility.yul\":3158:3164   */\n      dup3\n        /* \"#utility.yul\":3151:3155   */\n      0x20\n        /* \"#utility.yul\":3143:3149   */\n      dup7\n        /* \"#utility.yul\":3139:3156   */\n      add\n        /* \"#utility.yul\":3091:3170   */\n      tag_325\n      jump\t// in\n    tag_359:\n        /* \"#utility.yul\":3082:3170   */\n      swap2\n      pop\n        /* \"#utility.yul\":2965:3176   */\n      pop\n      swap3\n      swap2\n      pop\n      pop\n      jump\t// out\n        /* \"#utility.yul\":3182:3321   */\n    tag_324:\n      0x00\n        /* \"#utility.yul\":3266:3272   */\n      dup2\n        /* \"#utility.yul\":3253:3273   */\n      calldataload\n        /* \"#utility.yul\":3244:3273   */\n      swap1\n      pop\n        /* \"#utility.yul\":3282:3315   */\n      tag_361\n        /* \"#utility.yul\":3309:3314   */\n      dup2\n        /* \"#utility.yul\":3282:3315   */\n      tag_362\n      jump\t// in\n    tag_361:\n        /* \"#utility.yul\":3234:3321   */\n      swap3\n      swap2\n      pop\n      pop\n      jump\t// out\n        /* \"#utility.yul\":3327:3470   */\n    tag_363:\n      0x00\n        /* \"#utility.yul\":3415:3421   */\n      dup2\n        /* \"#utility.yul\":3409:3422   */\n      mload\n        /* \"#utility.yul\":3400:3422   */\n      swap1\n      pop\n        /* \"#utility.yul\":3431:3464   */\n      tag_365\n        /* \"#utility.yul\":3458:3463   */\n      dup2\n        /* \"#utility.yul\":3431:3464   */\n      tag_362\n      jump\t// in\n    tag_365:\n        /* \"#utility.yul\":3390:3470   */\n      swap3\n      swap2\n      pop\n      pop\n      jump\t// out\n        /* \"#utility.yul\":3476:3738   */\n    tag_59:\n      0x00\n        /* \"#utility.yul\":3584:3586   */\n      0x20\n        /* \"#utility.yul\":3572:3581   */\n      dup3\n        /* \"#utility.yul\":3563:3570   */\n      dup5\n        /* \"#utility.yul\":3559:3582   */\n      sub\n        /* \"#utility.yul\":3555:3587   */\n      slt\n        /* \"#utility.yul\":3552:3554   */\n      iszero\n      tag_367\n      jumpi\n        /* \"#utility.yul\":3600:3601   */\n      0x00\n        /* \"#utility.yul\":3597:3598   */\n      dup1\n        /* \"#utility.yul\":3590:3602   */\n      revert\n        /* \"#utility.yul\":3552:3554   */\n    tag_367:\n        /* \"#utility.yul\":3643:3644   */\n      0x00\n        /* \"#utility.yul\":3668:3721   */\n      tag_368\n        /* \"#utility.yul\":3713:3720   */\n      dup5\n        /* \"#utility.yul\":3704:3710   */\n      dup3\n        /* \"#utility.yul\":3693:3702   */\n      dup6\n        /* \"#utility.yul\":3689:3711   */\n      add\n        /* \"#utility.yul\":3668:3721   */\n      tag_333\n      jump\t// in\n    tag_368:\n        /* \"#utility.yul\":3658:3721   */\n      swap2\n      pop\n        /* \"#utility.yul\":3614:3731   */\n      pop\n        /* \"#utility.yul\":3542:3738   */\n      swap3\n      swap2\n      pop\n      pop\n      jump\t// out\n        /* \"#utility.yul\":3744:4151   */\n    tag_92:\n      0x00\n      dup1\n        /* \"#utility.yul\":3869:3871   */\n      0x40\n        /* \"#utility.yul\":3857:3866   */\n      dup4\n        /* \"#utility.yul\":3848:3855   */\n      dup6\n        /* \"#utility.yul\":3844:3867   */\n      sub\n        /* \"#utility.yul\":3840:3872   */\n      slt\n        /* \"#utility.yul\":3837:3839   */\n      iszero\n      tag_370\n      jumpi\n        /* \"#utility.yul\":3885:3886   */\n      0x00\n        /* \"#utility.yul\":3882:3883   */\n      dup1\n        /* \"#utility.yul\":3875:3887   */\n      revert\n        /* \"#utility.yul\":3837:3839   */\n    tag_370:\n        /* \"#utility.yul\":3928:3929   */\n      0x00\n        /* \"#utility.yul\":3953:4006   */\n      tag_371\n        /* \"#utility.yul\":3998:4005   */\n      dup6\n        /* \"#utility.yul\":3989:3995   */\n      dup3\n        /* \"#utility.yul\":3978:3987   */\n      dup7\n        /* \"#utility.yul\":3974:3996   */\n      add\n        /* \"#utility.yul\":3953:4006   */\n      tag_333\n      jump\t// in\n    tag_371:\n        /* \"#utility.yul\":3943:4006   */\n      swap3\n      pop\n        /* \"#utility.yul\":3899:4016   */\n      pop\n        /* \"#utility.yul\":4055:4057   */\n      0x20\n        /* \"#utility.yul\":4081:4134   */\n      tag_372\n        /* \"#utility.yul\":4126:4133   */\n      dup6\n        /* \"#utility.yul\":4117:4123   */\n      dup3\n        /* \"#utility.yul\":4106:4115   */\n      dup7\n        /* \"#utility.yul\":4102:4124   */\n      add\n        /* \"#utility.yul\":4081:4134   */\n      tag_324\n      jump\t// in\n    tag_372:\n        /* \"#utility.yul\":4071:4134   */\n      swap2\n      pop\n        /* \"#utility.yul\":4026:4144   */\n      pop\n        /* \"#utility.yul\":3827:4151   */\n      swap3\n      pop\n      swap3\n      swap1\n      pop\n      jump\t// out\n        /* \"#utility.yul\":4157:4870   */\n    tag_117:\n      0x00\n      dup1\n        /* \"#utility.yul\":4342:4344   */\n      0x40\n        /* \"#utility.yul\":4330:4339   */\n      dup4\n        /* \"#utility.yul\":4321:4328   */\n      dup6\n        /* \"#utility.yul\":4317:4340   */\n      sub\n        /* \"#utility.yul\":4313:4345   */\n      slt\n        /* \"#utility.yul\":4310:4312   */\n      iszero\n      tag_374\n      jumpi\n        /* \"#utility.yul\":4358:4359   */\n      0x00\n        /* \"#utility.yul\":4355:4356   */\n      dup1\n        /* \"#utility.yul\":4348:4360   */\n      revert\n        /* \"#utility.yul\":4310:4312   */\n    tag_374:\n        /* \"#utility.yul\":4429:4430   */\n      0x00\n        /* \"#utility.yul\":4418:4427   */\n      dup4\n        /* \"#utility.yul\":4414:4431   */\n      add\n        /* \"#utility.yul\":4401:4432   */\n      calldataload\n        /* \"#utility.yul\":4459:4477   */\n      0xffffffffffffffff\n        /* \"#utility.yul\":4451:4457   */\n      dup2\n        /* \"#utility.yul\":4448:4478   */\n      gt\n        /* \"#utility.yul\":4445:4447   */\n      iszero\n      tag_375\n      jumpi\n        /* \"#utility.yul\":4491:4492   */\n      0x00\n        /* \"#utility.yul\":4488:4489   */\n      dup1\n        /* \"#utility.yul\":4481:4493   */\n      revert\n        /* \"#utility.yul\":4445:4447   */\n    tag_375:\n        /* \"#utility.yul\":4519:4597   */\n      tag_376\n        /* \"#utility.yul\":4589:4596   */\n      dup6\n        /* \"#utility.yul\":4580:4586   */\n      dup3\n        /* \"#utility.yul\":4569:4578   */\n      dup7\n        /* \"#utility.yul\":4565:4587   */\n      add\n        /* \"#utility.yul\":4519:4597   */\n      tag_341\n      jump\t// in\n    tag_376:\n        /* \"#utility.yul\":4509:4597   */\n      swap3\n      pop\n        /* \"#utility.yul\":4372:4607   */\n      pop\n        /* \"#utility.yul\":4674:4676   */\n      0x20\n        /* \"#utility.yul\":4663:4672   */\n      dup4\n        /* \"#utility.yul\":4659:4677   */\n      add\n        /* \"#utility.yul\":4646:4678   */\n      calldataload\n        /* \"#utility.yul\":4705:4723   */\n      0xffffffffffffffff\n        /* \"#utility.yul\":4697:4703   */\n      dup2\n        /* \"#utility.yul\":4694:4724   */\n      gt\n        /* \"#utility.yul\":4691:4693   */\n      iszero\n      tag_377\n      jumpi\n        /* \"#utility.yul\":4737:4738   */\n      0x00\n        /* \"#utility.yul\":4734:4735   */\n      dup1\n        /* \"#utility.yul\":4727:4739   */\n      revert\n        /* \"#utility.yul\":4691:4693   */\n    tag_377:\n        /* \"#utility.yul\":4765:4853   */\n      tag_378\n        /* \"#utility.yul\":4845:4852   */\n      dup6\n        /* \"#utility.yul\":4836:4842   */\n      dup3\n        /* \"#utility.yul\":4825:4834   */\n      dup7\n        /* \"#utility.yul\":4821:4843   */\n      add\n        /* \"#utility.yul\":4765:4853   */\n      tag_337\n      jump\t// in\n    tag_378:\n        /* \"#utility.yul\":4755:4853   */\n      swap2\n      pop\n        /* \"#utility.yul\":4617:4863   */\n      pop\n        /* \"#utility.yul\":4300:4870   */\n      swap3\n      pop\n      swap3\n      swap1\n      pop\n      jump\t// out\n        /* \"#utility.yul\":4876:5154   */\n    tag_203:\n      0x00\n        /* \"#utility.yul\":4992:4994   */\n      0x20\n        /* \"#utility.yul\":4980:4989   */\n      dup3\n        /* \"#utility.yul\":4971:4978   */\n      dup5\n        /* \"#utility.yul\":4967:4990   */\n      sub\n        /* \"#utility.yul\":4963:4995   */\n      slt\n        /* \"#utility.yul\":4960:4962   */\n      iszero\n      tag_380\n      jumpi\n        /* \"#utility.yul\":5008:5009   */\n      0x00\n        /* \"#utility.yul\":5005:5006   */\n      dup1\n        /* \"#utility.yul\":4998:5010   */\n      revert\n        /* \"#utility.yul\":4960:4962   */\n    tag_380:\n        /* \"#utility.yul\":5051:5052   */\n      0x00\n        /* \"#utility.yul\":5076:5137   */\n      tag_381\n        /* \"#utility.yul\":5129:5136   */\n      dup5\n        /* \"#utility.yul\":5120:5126   */\n      dup3\n        /* \"#utility.yul\":5109:5118   */\n      dup6\n        /* \"#utility.yul\":5105:5127   */\n      add\n        /* \"#utility.yul\":5076:5137   */\n      tag_345\n      jump\t// in\n    tag_381:\n        /* \"#utility.yul\":5066:5137   */\n      swap2\n      pop\n        /* \"#utility.yul\":5022:5147   */\n      pop\n        /* \"#utility.yul\":4950:5154   */\n      swap3\n      swap2\n      pop\n      pop\n      jump\t// out\n        /* \"#utility.yul\":5160:5422   */\n    tag_38:\n      0x00\n        /* \"#utility.yul\":5268:5270   */\n      0x20\n        /* \"#utility.yul\":5256:5265   */\n      dup3\n        /* \"#utility.yul\":5247:5254   */\n      dup5\n        /* \"#utility.yul\":5243:5266   */\n      sub\n        /* \"#utility.yul\":5239:5271   */\n      slt\n        /* \"#utility.yul\":5236:5238   */\n      iszero\n      tag_383\n      jumpi\n        /* \"#utility.yul\":5284:5285   */\n      0x00\n        /* \"#utility.yul\":5281:5282   */\n      dup1\n        /* \"#utility.yul\":5274:5286   */\n      revert\n        /* \"#utility.yul\":5236:5238   */\n    tag_383:\n        /* \"#utility.yul\":5327:5328   */\n      0x00\n        /* \"#utility.yul\":5352:5405   */\n      tag_384\n        /* \"#utility.yul\":5397:5404   */\n      dup5\n        /* \"#utility.yul\":5388:5394   */\n      dup3\n        /* \"#utility.yul\":5377:5386   */\n      dup6\n        /* \"#utility.yul\":5373:5395   */\n      add\n        /* \"#utility.yul\":5352:5405   */\n      tag_349\n      jump\t// in\n    tag_384:\n        /* \"#utility.yul\":5342:5405   */\n      swap2\n      pop\n        /* \"#utility.yul\":5298:5415   */\n      pop\n        /* \"#utility.yul\":5226:5422   */\n      swap3\n      swap2\n      pop\n      pop\n      jump\t// out\n        /* \"#utility.yul\":5428:5835   */\n    tag_44:\n      0x00\n      dup1\n        /* \"#utility.yul\":5553:5555   */\n      0x40\n        /* \"#utility.yul\":5541:5550   */\n      dup4\n        /* \"#utility.yul\":5532:5539   */\n      dup6\n        /* \"#utility.yul\":5528:5551   */\n      sub\n        /* \"#utility.yul\":5524:5556   */\n      slt\n        /* \"#utility.yul\":5521:5523   */\n      iszero\n      tag_386\n      jumpi\n        /* \"#utility.yul\":5569:5570   */\n      0x00\n        /* \"#utility.yul\":5566:5567   */\n      dup1\n        /* \"#utility.yul\":5559:5571   */\n      revert\n        /* \"#utility.yul\":5521:5523   */\n    tag_386:\n        /* \"#utility.yul\":5612:5613   */\n      0x00\n        /* \"#utility.yul\":5637:5690   */\n      tag_387\n        /* \"#utility.yul\":5682:5689   */\n      dup6\n        /* \"#utility.yul\":5673:5679   */\n      dup3\n        /* \"#utility.yul\":5662:5671   */\n      dup7\n        /* \"#utility.yul\":5658:5680   */\n      add\n        /* \"#utility.yul\":5637:5690   */\n      tag_349\n      jump\t// in\n    tag_387:\n        /* \"#utility.yul\":5627:5690   */\n      swap3\n      pop\n        /* \"#utility.yul\":5583:5700   */\n      pop\n        /* \"#utility.yul\":5739:5741   */\n      0x20\n        /* \"#utility.yul\":5765:5818   */\n      tag_388\n        /* \"#utility.yul\":5810:5817   */\n      dup6\n        /* \"#utility.yul\":5801:5807   */\n      dup3\n        /* \"#utility.yul\":5790:5799   */\n      dup7\n        /* \"#utility.yul\":5786:5808   */\n      add\n        /* \"#utility.yul\":5765:5818   */\n      tag_333\n      jump\t// in\n    tag_388:\n        /* \"#utility.yul\":5755:5818   */\n      swap2\n      pop\n        /* \"#utility.yul\":5710:5828   */\n      pop\n        /* \"#utility.yul\":5511:5835   */\n      swap3\n      pop\n      swap3\n      swap1\n      pop\n      jump\t// out\n        /* \"#utility.yul\":5841:6101   */\n    tag_32:\n      0x00\n        /* \"#utility.yul\":5948:5950   */\n      0x20\n        /* \"#utility.yul\":5936:5945   */\n      dup3\n        /* \"#utility.yul\":5927:5934   */\n      dup5\n        /* \"#utility.yul\":5923:5946   */\n      sub\n        /* \"#utility.yul\":5919:5951   */\n      slt\n        /* \"#utility.yul\":5916:5918   */\n      iszero\n      tag_390\n      jumpi\n        /* \"#utility.yul\":5964:5965   */\n      0x00\n        /* \"#utility.yul\":5961:5962   */\n      dup1\n        /* \"#utility.yul\":5954:5966   */\n      revert\n        /* \"#utility.yul\":5916:5918   */\n    tag_390:\n        /* \"#utility.yul\":6007:6008   */\n      0x00\n        /* \"#utility.yul\":6032:6084   */\n      tag_391\n        /* \"#utility.yul\":6076:6083   */\n      dup5\n        /* \"#utility.yul\":6067:6073   */\n      dup3\n        /* \"#utility.yul\":6056:6065   */\n      dup6\n        /* \"#utility.yul\":6052:6074   */\n      add\n        /* \"#utility.yul\":6032:6084   */\n      tag_353\n      jump\t// in\n    tag_391:\n        /* \"#utility.yul\":6022:6084   */\n      swap2\n      pop\n        /* \"#utility.yul\":5978:6094   */\n      pop\n        /* \"#utility.yul\":5906:6101   */\n      swap3\n      swap2\n      pop\n      pop\n      jump\t// out\n        /* \"#utility.yul\":6107:6369   */\n    tag_55:\n      0x00\n        /* \"#utility.yul\":6215:6217   */\n      0x20\n        /* \"#utility.yul\":6203:6212   */\n      dup3\n        /* \"#utility.yul\":6194:6201   */\n      dup5\n        /* \"#utility.yul\":6190:6213   */\n      sub\n        /* \"#utility.yul\":6186:6218   */\n      slt\n        /* \"#utility.yul\":6183:6185   */\n      iszero\n      tag_393\n      jumpi\n        /* \"#utility.yul\":6231:6232   */\n      0x00\n        /* \"#utility.yul\":6228:6229   */\n      dup1\n        /* \"#utility.yul\":6221:6233   */\n      revert\n        /* \"#utility.yul\":6183:6185   */\n    tag_393:\n        /* \"#utility.yul\":6274:6275   */\n      0x00\n        /* \"#utility.yul\":6299:6352   */\n      tag_394\n        /* \"#utility.yul\":6344:6351   */\n      dup5\n        /* \"#utility.yul\":6335:6341   */\n      dup3\n        /* \"#utility.yul\":6324:6333   */\n      dup6\n        /* \"#utility.yul\":6320:6342   */\n      add\n        /* \"#utility.yul\":6299:6352   */\n      tag_324\n      jump\t// in\n    tag_394:\n        /* \"#utility.yul\":6289:6352   */\n      swap2\n      pop\n        /* \"#utility.yul\":6245:6362   */\n      pop\n        /* \"#utility.yul\":6173:6369   */\n      swap3\n      swap2\n      pop\n      pop\n      jump\t// out\n        /* \"#utility.yul\":6375:6659   */\n    tag_145:\n      0x00\n        /* \"#utility.yul\":6494:6496   */\n      0x20\n        /* \"#utility.yul\":6482:6491   */\n      dup3\n        /* \"#utility.yul\":6473:6480   */\n      dup5\n        /* \"#utility.yul\":6469:6492   */\n      sub\n        /* \"#utility.yul\":6465:6497   */\n      slt\n        /* \"#utility.yul\":6462:6464   */\n      iszero\n      tag_396\n      jumpi\n        /* \"#utility.yul\":6510:6511   */\n      0x00\n        /* \"#utility.yul\":6507:6508   */\n      dup1\n        /* \"#utility.yul\":6500:6512   */\n      revert\n        /* \"#utility.yul\":6462:6464   */\n    tag_396:\n        /* \"#utility.yul\":6553:6554   */\n      0x00\n        /* \"#utility.yul\":6578:6642   */\n      tag_397\n        /* \"#utility.yul\":6634:6641   */\n      dup5\n        /* \"#utility.yul\":6625:6631   */\n      dup3\n        /* \"#utility.yul\":6614:6623   */\n      dup6\n        /* \"#utility.yul\":6610:6632   */\n      add\n        /* \"#utility.yul\":6578:6642   */\n      tag_363\n      jump\t// in\n    tag_397:\n        /* \"#utility.yul\":6568:6642   */\n      swap2\n      pop\n        /* \"#utility.yul\":6524:6652   */\n      pop\n        /* \"#utility.yul\":6452:6659   */\n      swap3\n      swap2\n      pop\n      pop\n      jump\t// out\n        /* \"#utility.yul\":6665:6861   */\n    tag_398:\n      0x00\n        /* \"#utility.yul\":6789:6855   */\n      tag_400\n        /* \"#utility.yul\":6851:6854   */\n      dup4\n        /* \"#utility.yul\":6843:6849   */\n      dup4\n        /* \"#utility.yul\":6789:6855   */\n      tag_401\n      jump\t// in\n    tag_400:\n        /* \"#utility.yul\":6775:6855   */\n      swap1\n      pop\n        /* \"#utility.yul\":6765:6861   */\n      swap3\n      swap2\n      pop\n      pop\n      jump\t// out\n        /* \"#utility.yul\":6867:7046   */\n    tag_402:\n      0x00\n        /* \"#utility.yul\":6957:7003   */\n      tag_404\n        /* \"#utility.yul\":6999:7002   */\n      dup4\n        /* \"#utility.yul\":6991:6997   */\n      dup4\n        /* \"#utility.yul\":6957:7003   */\n      tag_405\n      jump\t// in\n    tag_404:\n        /* \"#utility.yul\":7035:7039   */\n      0x20\n        /* \"#utility.yul\":7030:7033   */\n      dup4\n        /* \"#utility.yul\":7026:7040   */\n      add\n        /* \"#utility.yul\":7012:7040   */\n      swap1\n      pop\n        /* \"#utility.yul\":6947:7046   */\n      swap3\n      swap2\n      pop\n      pop\n      jump\t// out\n        /* \"#utility.yul\":7052:7170   */\n    tag_406:\n        /* \"#utility.yul\":7139:7163   */\n      tag_408\n        /* \"#utility.yul\":7157:7162   */\n      dup2\n        /* \"#utility.yul\":7139:7163   */\n      tag_409\n      jump\t// in\n    tag_408:\n        /* \"#utility.yul\":7134:7137   */\n      dup3\n        /* \"#utility.yul\":7127:7164   */\n      mstore\n        /* \"#utility.yul\":7117:7170   */\n      pop\n      pop\n      jump\t// out\n        /* \"#utility.yul\":7176:7333   */\n    tag_410:\n        /* \"#utility.yul\":7281:7326   */\n      tag_412\n        /* \"#utility.yul\":7301:7325   */\n      tag_413\n        /* \"#utility.yul\":7319:7324   */\n      dup3\n        /* \"#utility.yul\":7301:7325   */\n      tag_409\n      jump\t// in\n    tag_413:\n        /* \"#utility.yul\":7281:7326   */\n      tag_414\n      jump\t// in\n    tag_412:\n        /* \"#utility.yul\":7276:7279   */\n      dup3\n        /* \"#utility.yul\":7269:7327   */\n      mstore\n        /* \"#utility.yul\":7259:7333   */\n      pop\n      pop\n      jump\t// out\n        /* \"#utility.yul\":7367:8358   */\n    tag_415:\n      0x00\n        /* \"#utility.yul\":7535:7599   */\n      tag_417\n        /* \"#utility.yul\":7593:7598   */\n      dup3\n        /* \"#utility.yul\":7535:7599   */\n      tag_418\n      jump\t// in\n    tag_417:\n        /* \"#utility.yul\":7615:7711   */\n      tag_419\n        /* \"#utility.yul\":7704:7710   */\n      dup2\n        /* \"#utility.yul\":7699:7702   */\n      dup6\n        /* \"#utility.yul\":7615:7711   */\n      tag_420\n      jump\t// in\n    tag_419:\n        /* \"#utility.yul\":7608:7711   */\n      swap4\n      pop\n        /* \"#utility.yul\":7737:7740   */\n      dup4\n        /* \"#utility.yul\":7782:7786   */\n      0x20\n        /* \"#utility.yul\":7774:7780   */\n      dup3\n        /* \"#utility.yul\":7770:7787   */\n      mul\n        /* \"#utility.yul\":7765:7768   */\n      dup6\n        /* \"#utility.yul\":7761:7788   */\n      add\n        /* \"#utility.yul\":7812:7878   */\n      tag_421\n        /* \"#utility.yul\":7872:7877   */\n      dup6\n        /* \"#utility.yul\":7812:7878   */\n      tag_422\n      jump\t// in\n    tag_421:\n        /* \"#utility.yul\":7901:7908   */\n      dup1\n        /* \"#utility.yul\":7932:7933   */\n      0x00\n        /* \"#utility.yul\":7917:8313   */\n    tag_423:\n        /* \"#utility.yul\":7942:7948   */\n      dup6\n        /* \"#utility.yul\":7939:7940   */\n      dup2\n        /* \"#utility.yul\":7936:7949   */\n      lt\n        /* \"#utility.yul\":7917:8313   */\n      iszero\n      tag_425\n      jumpi\n        /* \"#utility.yul\":8013:8022   */\n      dup5\n        /* \"#utility.yul\":8007:8011   */\n      dup5\n        /* \"#utility.yul\":8003:8023   */\n      sub\n        /* \"#utility.yul\":7998:8001   */\n      dup10\n        /* \"#utility.yul\":7991:8024   */\n      mstore\n        /* \"#utility.yul\":8064:8070   */\n      dup2\n        /* \"#utility.yul\":8058:8071   */\n      mload\n        /* \"#utility.yul\":8092:8176   */\n      tag_426\n        /* \"#utility.yul\":8171:8175   */\n      dup6\n        /* \"#utility.yul\":8156:8169   */\n      dup3\n        /* \"#utility.yul\":8092:8176   */\n      tag_398\n      jump\t// in\n    tag_426:\n        /* \"#utility.yul\":8084:8176   */\n      swap5\n      pop\n        /* \"#utility.yul\":8199:8269   */\n      tag_427\n        /* \"#utility.yul\":8262:8268   */\n      dup4\n        /* \"#utility.yul\":8199:8269   */\n      tag_428\n      jump\t// in\n    tag_427:\n        /* \"#utility.yul\":8189:8269   */\n      swap3\n      pop\n        /* \"#utility.yul\":8298:8302   */\n      0x20\n        /* \"#utility.yul\":8293:8296   */\n      dup11\n        /* \"#utility.yul\":8289:8303   */\n      add\n        /* \"#utility.yul\":8282:8303   */\n      swap10\n      pop\n        /* \"#utility.yul\":7977:8313   */\n      pop\n        /* \"#utility.yul\":7964:7965   */\n      0x01\n        /* \"#utility.yul\":7961:7962   */\n      dup2\n        /* \"#utility.yul\":7957:7966   */\n      add\n        /* \"#utility.yul\":7952:7966   */\n      swap1\n      pop\n        /* \"#utility.yul\":7917:8313   */\n      jump(tag_423)\n    tag_425:\n        /* \"#utility.yul\":7921:7935   */\n      pop\n        /* \"#utility.yul\":8329:8333   */\n      dup3\n        /* \"#utility.yul\":8322:8333   */\n      swap8\n      pop\n        /* \"#utility.yul\":8349:8352   */\n      dup8\n        /* \"#utility.yul\":8342:8352   */\n      swap6\n      pop\n        /* \"#utility.yul\":7511:8358   */\n      pop\n      pop\n      pop\n      pop\n      pop\n      swap3\n      swap2\n      pop\n      pop\n      jump\t// out\n        /* \"#utility.yul\":8394:9126   */\n    tag_429:\n      0x00\n        /* \"#utility.yul\":8542:8596   */\n      tag_431\n        /* \"#utility.yul\":8590:8595   */\n      dup3\n        /* \"#utility.yul\":8542:8596   */\n      tag_432\n      jump\t// in\n    tag_431:\n        /* \"#utility.yul\":8612:8698   */\n      tag_433\n        /* \"#utility.yul\":8691:8697   */\n      dup2\n        /* \"#utility.yul\":8686:8689   */\n      dup6\n        /* \"#utility.yul\":8612:8698   */\n      tag_434\n      jump\t// in\n    tag_433:\n        /* \"#utility.yul\":8605:8698   */\n      swap4\n      pop\n        /* \"#utility.yul\":8722:8778   */\n      tag_435\n        /* \"#utility.yul\":8772:8777   */\n      dup4\n        /* \"#utility.yul\":8722:8778   */\n      tag_436\n      jump\t// in\n    tag_435:\n        /* \"#utility.yul\":8801:8808   */\n      dup1\n        /* \"#utility.yul\":8832:8833   */\n      0x00\n        /* \"#utility.yul\":8817:9101   */\n    tag_437:\n        /* \"#utility.yul\":8842:8848   */\n      dup4\n        /* \"#utility.yul\":8839:8840   */\n      dup2\n        /* \"#utility.yul\":8836:8849   */\n      lt\n        /* \"#utility.yul\":8817:9101   */\n      iszero\n      tag_439\n      jumpi\n        /* \"#utility.yul\":8918:8924   */\n      dup2\n        /* \"#utility.yul\":8912:8925   */\n      mload\n        /* \"#utility.yul\":8945:9008   */\n      tag_440\n        /* \"#utility.yul\":9004:9007   */\n      dup9\n        /* \"#utility.yul\":8989:9002   */\n      dup3\n        /* \"#utility.yul\":8945:9008   */\n      tag_402\n      jump\t// in\n    tag_440:\n        /* \"#utility.yul\":8938:9008   */\n      swap8\n      pop\n        /* \"#utility.yul\":9031:9091   */\n      tag_441\n        /* \"#utility.yul\":9084:9090   */\n      dup4\n        /* \"#utility.yul\":9031:9091   */\n      tag_442\n      jump\t// in\n    tag_441:\n        /* \"#utility.yul\":9021:9091   */\n      swap3\n      pop\n        /* \"#utility.yul\":8877:9101   */\n      pop\n        /* \"#utility.yul\":8864:8865   */\n      0x01\n        /* \"#utility.yul\":8861:8862   */\n      dup2\n        /* \"#utility.yul\":8857:8866   */\n      add\n        /* \"#utility.yul\":8852:8866   */\n      swap1\n      pop\n        /* \"#utility.yul\":8817:9101   */\n      jump(tag_437)\n    tag_439:\n        /* \"#utility.yul\":8821:8835   */\n      pop\n        /* \"#utility.yul\":9117:9120   */\n      dup6\n        /* \"#utility.yul\":9110:9120   */\n      swap4\n      pop\n        /* \"#utility.yul\":8518:9126   */\n      pop\n      pop\n      pop\n      swap3\n      swap2\n      pop\n      pop\n      jump\t// out\n        /* \"#utility.yul\":9132:9241   */\n    tag_443:\n        /* \"#utility.yul\":9213:9234   */\n      tag_445\n        /* \"#utility.yul\":9228:9233   */\n      dup2\n        /* \"#utility.yul\":9213:9234   */\n      tag_446\n      jump\t// in\n    tag_445:\n        /* \"#utility.yul\":9208:9211   */\n      dup3\n        /* \"#utility.yul\":9201:9235   */\n      mstore\n        /* \"#utility.yul\":9191:9241   */\n      pop\n      pop\n      jump\t// out\n        /* \"#utility.yul\":9247:9365   */\n    tag_447:\n        /* \"#utility.yul\":9334:9358   */\n      tag_449\n        /* \"#utility.yul\":9352:9357   */\n      dup2\n        /* \"#utility.yul\":9334:9358   */\n      tag_450\n      jump\t// in\n    tag_449:\n        /* \"#utility.yul\":9329:9332   */\n      dup3\n        /* \"#utility.yul\":9322:9359   */\n      mstore\n        /* \"#utility.yul\":9312:9365   */\n      pop\n      pop\n      jump\t// out\n        /* \"#utility.yul\":9371:9542   */\n    tag_451:\n        /* \"#utility.yul\":9478:9535   */\n      tag_453\n        /* \"#utility.yul\":9529:9534   */\n      dup2\n        /* \"#utility.yul\":9478:9535   */\n      tag_454\n      jump\t// in\n    tag_453:\n        /* \"#utility.yul\":9473:9476   */\n      dup3\n        /* \"#utility.yul\":9466:9536   */\n      mstore\n        /* \"#utility.yul\":9456:9542   */\n      pop\n      pop\n      jump\t// out\n        /* \"#utility.yul\":9548:9739   */\n    tag_455:\n        /* \"#utility.yul\":9665:9732   */\n      tag_457\n        /* \"#utility.yul\":9726:9731   */\n      dup2\n        /* \"#utility.yul\":9665:9732   */\n      tag_458\n      jump\t// in\n    tag_457:\n        /* \"#utility.yul\":9660:9663   */\n      dup3\n        /* \"#utility.yul\":9653:9733   */\n      mstore\n        /* \"#utility.yul\":9643:9739   */\n      pop\n      pop\n      jump\t// out\n        /* \"#utility.yul\":9745:9916   */\n    tag_459:\n        /* \"#utility.yul\":9852:9909   */\n      tag_461\n        /* \"#utility.yul\":9903:9908   */\n      dup2\n        /* \"#utility.yul\":9852:9909   */\n      tag_462\n      jump\t// in\n    tag_461:\n        /* \"#utility.yul\":9847:9850   */\n      dup3\n        /* \"#utility.yul\":9840:9910   */\n      mstore\n        /* \"#utility.yul\":9830:9916   */\n      pop\n      pop\n      jump\t// out\n        /* \"#utility.yul\":9922:10266   */\n    tag_401:\n      0x00\n        /* \"#utility.yul\":10028:10067   */\n      tag_464\n        /* \"#utility.yul\":10061:10066   */\n      dup3\n        /* \"#utility.yul\":10028:10067   */\n      tag_465\n      jump\t// in\n    tag_464:\n        /* \"#utility.yul\":10083:10144   */\n      tag_466\n        /* \"#utility.yul\":10137:10143   */\n      dup2\n        /* \"#utility.yul\":10132:10135   */\n      dup6\n        /* \"#utility.yul\":10083:10144   */\n      tag_467\n      jump\t// in\n    tag_466:\n        /* \"#utility.yul\":10076:10144   */\n      swap4\n      pop\n        /* \"#utility.yul\":10153:10205   */\n      tag_468\n        /* \"#utility.yul\":10198:10204   */\n      dup2\n        /* \"#utility.yul\":10193:10196   */\n      dup6\n        /* \"#utility.yul\":10186:10190   */\n      0x20\n        /* \"#utility.yul\":10179:10184   */\n      dup7\n        /* \"#utility.yul\":10175:10191   */\n      add\n        /* \"#utility.yul\":10153:10205   */\n      tag_469\n      jump\t// in\n    tag_468:\n        /* \"#utility.yul\":10230:10259   */\n      tag_470\n        /* \"#utility.yul\":10252:10258   */\n      dup2\n        /* \"#utility.yul\":10230:10259   */\n      tag_471\n      jump\t// in\n    tag_470:\n        /* \"#utility.yul\":10225:10228   */\n      dup5\n        /* \"#utility.yul\":10221:10260   */\n      add\n        /* \"#utility.yul\":10214:10260   */\n      swap2\n      pop\n        /* \"#utility.yul\":10004:10266   */\n      pop\n      swap3\n      swap2\n      pop\n      pop\n      jump\t// out\n        /* \"#utility.yul\":10272:10636   */\n    tag_472:\n      0x00\n        /* \"#utility.yul\":10388:10427   */\n      tag_474\n        /* \"#utility.yul\":10421:10426   */\n      dup3\n        /* \"#utility.yul\":10388:10427   */\n      tag_465\n      jump\t// in\n    tag_474:\n        /* \"#utility.yul\":10443:10514   */\n      tag_475\n        /* \"#utility.yul\":10507:10513   */\n      dup2\n        /* \"#utility.yul\":10502:10505   */\n      dup6\n        /* \"#utility.yul\":10443:10514   */\n      tag_476\n      jump\t// in\n    tag_475:\n        /* \"#utility.yul\":10436:10514   */\n      swap4\n      pop\n        /* \"#utility.yul\":10523:10575   */\n      tag_477\n        /* \"#utility.yul\":10568:10574   */\n      dup2\n        /* \"#utility.yul\":10563:10566   */\n      dup6\n        /* \"#utility.yul\":10556:10560   */\n      0x20\n        /* \"#utility.yul\":10549:10554   */\n      dup7\n        /* \"#utility.yul\":10545:10561   */\n      add\n        /* \"#utility.yul\":10523:10575   */\n      tag_469\n      jump\t// in\n    tag_477:\n        /* \"#utility.yul\":10600:10629   */\n      tag_478\n        /* \"#utility.yul\":10622:10628   */\n      dup2\n        /* \"#utility.yul\":10600:10629   */\n      tag_471\n      jump\t// in\n    tag_478:\n        /* \"#utility.yul\":10595:10598   */\n      dup5\n        /* \"#utility.yul\":10591:10630   */\n      add\n        /* \"#utility.yul\":10584:10630   */\n      swap2\n      pop\n        /* \"#utility.yul\":10364:10636   */\n      pop\n      swap3\n      swap2\n      pop\n      pop\n      jump\t// out\n        /* \"#utility.yul\":10642:11019   */\n    tag_479:\n      0x00\n        /* \"#utility.yul\":10776:10815   */\n      tag_481\n        /* \"#utility.yul\":10809:10814   */\n      dup3\n        /* \"#utility.yul\":10776:10815   */\n      tag_465\n      jump\t// in\n    tag_481:\n        /* \"#utility.yul\":10831:10920   */\n      tag_482\n        /* \"#utility.yul\":10913:10919   */\n      dup2\n        /* \"#utility.yul\":10908:10911   */\n      dup6\n        /* \"#utility.yul\":10831:10920   */\n      tag_483\n      jump\t// in\n    tag_482:\n        /* \"#utility.yul\":10824:10920   */\n      swap4\n      pop\n        /* \"#utility.yul\":10929:10981   */\n      tag_484\n        /* \"#utility.yul\":10974:10980   */\n      dup2\n        /* \"#utility.yul\":10969:10972   */\n      dup6\n        /* \"#utility.yul\":10962:10966   */\n      0x20\n        /* \"#utility.yul\":10955:10960   */\n      dup7\n        /* \"#utility.yul\":10951:10967   */\n      add\n        /* \"#utility.yul\":10929:10981   */\n      tag_469\n      jump\t// in\n    tag_484:\n        /* \"#utility.yul\":11006:11012   */\n      dup1\n        /* \"#utility.yul\":11001:11004   */\n      dup5\n        /* \"#utility.yul\":10997:11013   */\n      add\n        /* \"#utility.yul\":10990:11013   */\n      swap2\n      pop\n        /* \"#utility.yul\":10752:11019   */\n      pop\n      swap3\n      swap2\n      pop\n      pop\n      jump\t// out\n        /* \"#utility.yul\":11025:11391   */\n    tag_485:\n      0x00\n        /* \"#utility.yul\":11188:11255   */\n      tag_487\n        /* \"#utility.yul\":11252:11254   */\n      0x20\n        /* \"#utility.yul\":11247:11250   */\n      dup4\n        /* \"#utility.yul\":11188:11255   */\n      tag_476\n      jump\t// in\n    tag_487:\n        /* \"#utility.yul\":11181:11255   */\n      swap2\n      pop\n        /* \"#utility.yul\":11264:11357   */\n      tag_488\n        /* \"#utility.yul\":11353:11356   */\n      dup3\n        /* \"#utility.yul\":11264:11357   */\n      tag_489\n      jump\t// in\n    tag_488:\n        /* \"#utility.yul\":11382:11384   */\n      0x20\n        /* \"#utility.yul\":11377:11380   */\n      dup3\n        /* \"#utility.yul\":11373:11385   */\n      add\n        /* \"#utility.yul\":11366:11385   */\n      swap1\n      pop\n        /* \"#utility.yul\":11171:11391   */\n      swap2\n      swap1\n      pop\n      jump\t// out\n        /* \"#utility.yul\":11397:11797   */\n    tag_490:\n      0x00\n        /* \"#utility.yul\":11578:11662   */\n      tag_492\n        /* \"#utility.yul\":11660:11661   */\n      0x08\n        /* \"#utility.yul\":11655:11658   */\n      dup4\n        /* \"#utility.yul\":11578:11662   */\n      tag_483\n      jump\t// in\n    tag_492:\n        /* \"#utility.yul\":11571:11662   */\n      swap2\n      pop\n        /* \"#utility.yul\":11671:11764   */\n      tag_493\n        /* \"#utility.yul\":11760:11763   */\n      dup3\n        /* \"#utility.yul\":11671:11764   */\n      tag_494\n      jump\t// in\n    tag_493:\n        /* \"#utility.yul\":11789:11790   */\n      0x08\n        /* \"#utility.yul\":11784:11787   */\n      dup3\n        /* \"#utility.yul\":11780:11791   */\n      add\n        /* \"#utility.yul\":11773:11791   */\n      swap1\n      pop\n        /* \"#utility.yul\":11561:11797   */\n      swap2\n      swap1\n      pop\n      jump\t// out\n        /* \"#utility.yul\":11803:12169   */\n    tag_495:\n      0x00\n        /* \"#utility.yul\":11966:12033   */\n      tag_497\n        /* \"#utility.yul\":12030:12032   */\n      0x36\n        /* \"#utility.yul\":12025:12028   */\n      dup4\n        /* \"#utility.yul\":11966:12033   */\n      tag_476\n      jump\t// in\n    tag_497:\n        /* \"#utility.yul\":11959:12033   */\n      swap2\n      pop\n        /* \"#utility.yul\":12042:12135   */\n      tag_498\n        /* \"#utility.yul\":12131:12134   */\n      dup3\n        /* \"#utility.yul\":12042:12135   */\n      tag_499\n      jump\t// in\n    tag_498:\n        /* \"#utility.yul\":12160:12162   */\n      0x40\n        /* \"#utility.yul\":12155:12158   */\n      dup3\n        /* \"#utility.yul\":12151:12163   */\n      add\n        /* \"#utility.yul\":12144:12163   */\n      swap1\n      pop\n        /* \"#utility.yul\":11949:12169   */\n      swap2\n      swap1\n      pop\n      jump\t// out\n        /* \"#utility.yul\":12175:12541   */\n    tag_500:\n      0x00\n        /* \"#utility.yul\":12338:12405   */\n      tag_502\n        /* \"#utility.yul\":12402:12404   */\n      0x1b\n        /* \"#utility.yul\":12397:12400   */\n      dup4\n        /* \"#utility.yul\":12338:12405   */\n      tag_476\n      jump\t// in\n    tag_502:\n        /* \"#utility.yul\":12331:12405   */\n      swap2\n      pop\n        /* \"#utility.yul\":12414:12507   */\n      tag_503\n        /* \"#utility.yul\":12503:12506   */\n      dup3\n        /* \"#utility.yul\":12414:12507   */\n      tag_504\n      jump\t// in\n    tag_503:\n        /* \"#utility.yul\":12532:12534   */\n      0x20\n        /* \"#utility.yul\":12527:12530   */\n      dup3\n        /* \"#utility.yul\":12523:12535   */\n      add\n        /* \"#utility.yul\":12516:12535   */\n      swap1\n      pop\n        /* \"#utility.yul\":12321:12541   */\n      swap2\n      swap1\n      pop\n      jump\t// out\n        /* \"#utility.yul\":12547:12913   */\n    tag_505:\n      0x00\n        /* \"#utility.yul\":12710:12777   */\n      tag_507\n        /* \"#utility.yul\":12774:12776   */\n      0x23\n        /* \"#utility.yul\":12769:12772   */\n      dup4\n        /* \"#utility.yul\":12710:12777   */\n      tag_476\n      jump\t// in\n    tag_507:\n        /* \"#utility.yul\":12703:12777   */\n      swap2\n      pop\n        /* \"#utility.yul\":12786:12879   */\n      tag_508\n        /* \"#utility.yul\":12875:12878   */\n      dup3\n        /* \"#utility.yul\":12786:12879   */\n      tag_509\n      jump\t// in\n    tag_508:\n        /* \"#utility.yul\":12904:12906   */\n      0x40\n        /* \"#utility.yul\":12899:12902   */\n      dup3\n        /* \"#utility.yul\":12895:12907   */\n      add\n        /* \"#utility.yul\":12888:12907   */\n      swap1\n      pop\n        /* \"#utility.yul\":12693:12913   */\n      swap2\n      swap1\n      pop\n      jump\t// out\n        /* \"#utility.yul\":12919:13319   */\n    tag_510:\n      0x00\n        /* \"#utility.yul\":13100:13184   */\n      tag_512\n        /* \"#utility.yul\":13182:13183   */\n      0x01\n        /* \"#utility.yul\":13177:13180   */\n      dup4\n        /* \"#utility.yul\":13100:13184   */\n      tag_483\n      jump\t// in\n    tag_512:\n        /* \"#utility.yul\":13093:13184   */\n      swap2\n      pop\n        /* \"#utility.yul\":13193:13286   */\n      tag_513\n        /* \"#utility.yul\":13282:13285   */\n      dup3\n        /* \"#utility.yul\":13193:13286   */\n      tag_514\n      jump\t// in\n    tag_513:\n        /* \"#utility.yul\":13311:13312   */\n      0x01\n        /* \"#utility.yul\":13306:13309   */\n      dup3\n        /* \"#utility.yul\":13302:13313   */\n      add\n        /* \"#utility.yul\":13295:13313   */\n      swap1\n      pop\n        /* \"#utility.yul\":13083:13319   */\n      swap2\n      swap1\n      pop\n      jump\t// out\n        /* \"#utility.yul\":13325:13727   */\n    tag_515:\n      0x00\n        /* \"#utility.yul\":13506:13591   */\n      tag_517\n        /* \"#utility.yul\":13588:13590   */\n      0x30\n        /* \"#utility.yul\":13583:13586   */\n      dup4\n        /* \"#utility.yul\":13506:13591   */\n      tag_483\n      jump\t// in\n    tag_517:\n        /* \"#utility.yul\":13499:13591   */\n      swap2\n      pop\n        /* \"#utility.yul\":13600:13693   */\n      tag_518\n        /* \"#utility.yul\":13689:13692   */\n      dup3\n        /* \"#utility.yul\":13600:13693   */\n      tag_519\n      jump\t// in\n    tag_518:\n        /* \"#utility.yul\":13718:13720   */\n      0x30\n        /* \"#utility.yul\":13713:13716   */\n      dup3\n        /* \"#utility.yul\":13709:13721   */\n      add\n        /* \"#utility.yul\":13702:13721   */\n      swap1\n      pop\n        /* \"#utility.yul\":13489:13727   */\n      swap2\n      swap1\n      pop\n      jump\t// out\n        /* \"#utility.yul\":13733:14099   */\n    tag_520:\n      0x00\n        /* \"#utility.yul\":13896:13963   */\n      tag_522\n        /* \"#utility.yul\":13960:13962   */\n      0x1f\n        /* \"#utility.yul\":13955:13958   */\n      dup4\n        /* \"#utility.yul\":13896:13963   */\n      tag_476\n      jump\t// in\n    tag_522:\n        /* \"#utility.yul\":13889:13963   */\n      swap2\n      pop\n        /* \"#utility.yul\":13972:14065   */\n      tag_523\n        /* \"#utility.yul\":14061:14064   */\n      dup3\n        /* \"#utility.yul\":13972:14065   */\n      tag_524\n      jump\t// in\n    tag_523:\n        /* \"#utility.yul\":14090:14092   */\n      0x20\n        /* \"#utility.yul\":14085:14088   */\n      dup3\n        /* \"#utility.yul\":14081:14093   */\n      add\n        /* \"#utility.yul\":14074:14093   */\n      swap1\n      pop\n        /* \"#utility.yul\":13879:14099   */\n      swap2\n      swap1\n      pop\n      jump\t// out\n        /* \"#utility.yul\":14105:14507   */\n    tag_525:\n      0x00\n        /* \"#utility.yul\":14286:14371   */\n      tag_527\n        /* \"#utility.yul\":14368:14370   */\n      0x17\n        /* \"#utility.yul\":14363:14366   */\n      dup4\n        /* \"#utility.yul\":14286:14371   */\n      tag_483\n      jump\t// in\n    tag_527:\n        /* \"#utility.yul\":14279:14371   */\n      swap2\n      pop\n        /* \"#utility.yul\":14380:14473   */\n      tag_528\n        /* \"#utility.yul\":14469:14472   */\n      dup3\n        /* \"#utility.yul\":14380:14473   */\n      tag_529\n      jump\t// in\n    tag_528:\n        /* \"#utility.yul\":14498:14500   */\n      0x17\n        /* \"#utility.yul\":14493:14496   */\n      dup3\n        /* \"#utility.yul\":14489:14501   */\n      add\n        /* \"#utility.yul\":14482:14501   */\n      swap1\n      pop\n        /* \"#utility.yul\":14269:14507   */\n      swap2\n      swap1\n      pop\n      jump\t// out\n        /* \"#utility.yul\":14513:14915   */\n    tag_530:\n      0x00\n        /* \"#utility.yul\":14694:14779   */\n      tag_532\n        /* \"#utility.yul\":14776:14778   */\n      0x11\n        /* \"#utility.yul\":14771:14774   */\n      dup4\n        /* \"#utility.yul\":14694:14779   */\n      tag_483\n      jump\t// in\n    tag_532:\n        /* \"#utility.yul\":14687:14779   */\n      swap2\n      pop\n        /* \"#utility.yul\":14788:14881   */\n      tag_533\n        /* \"#utility.yul\":14877:14880   */\n      dup3\n        /* \"#utility.yul\":14788:14881   */\n      tag_534\n      jump\t// in\n    tag_533:\n        /* \"#utility.yul\":14906:14908   */\n      0x11\n        /* \"#utility.yul\":14901:14904   */\n      dup3\n        /* \"#utility.yul\":14897:14909   */\n      add\n        /* \"#utility.yul\":14890:14909   */\n      swap1\n      pop\n        /* \"#utility.yul\":14677:14915   */\n      swap2\n      swap1\n      pop\n      jump\t// out\n        /* \"#utility.yul\":14921:15287   */\n    tag_535:\n      0x00\n        /* \"#utility.yul\":15084:15151   */\n      tag_537\n        /* \"#utility.yul\":15148:15150   */\n      0x2f\n        /* \"#utility.yul\":15143:15146   */\n      dup4\n        /* \"#utility.yul\":15084:15151   */\n      tag_476\n      jump\t// in\n    tag_537:\n        /* \"#utility.yul\":15077:15151   */\n      swap2\n      pop\n        /* \"#utility.yul\":15160:15253   */\n      tag_538\n        /* \"#utility.yul\":15249:15252   */\n      dup3\n        /* \"#utility.yul\":15160:15253   */\n      tag_539\n      jump\t// in\n    tag_538:\n        /* \"#utility.yul\":15278:15280   */\n      0x40\n        /* \"#utility.yul\":15273:15276   */\n      dup3\n        /* \"#utility.yul\":15269:15281   */\n      add\n        /* \"#utility.yul\":15262:15281   */\n      swap1\n      pop\n        /* \"#utility.yul\":15067:15287   */\n      swap2\n      swap1\n      pop\n      jump\t// out\n        /* \"#utility.yul\":15293:15401   */\n    tag_405:\n        /* \"#utility.yul\":15370:15394   */\n      tag_541\n        /* \"#utility.yul\":15388:15393   */\n      dup2\n        /* \"#utility.yul\":15370:15394   */\n      tag_542\n      jump\t// in\n    tag_541:\n        /* \"#utility.yul\":15365:15368   */\n      dup3\n        /* \"#utility.yul\":15358:15395   */\n      mstore\n        /* \"#utility.yul\":15348:15401   */\n      pop\n      pop\n      jump\t// out\n        /* \"#utility.yul\":15407:15525   */\n    tag_543:\n        /* \"#utility.yul\":15494:15518   */\n      tag_545\n        /* \"#utility.yul\":15512:15517   */\n      dup2\n        /* \"#utility.yul\":15494:15518   */\n      tag_542\n      jump\t// in\n    tag_545:\n        /* \"#utility.yul\":15489:15492   */\n      dup3\n        /* \"#utility.yul\":15482:15519   */\n      mstore\n        /* \"#utility.yul\":15472:15525   */\n      pop\n      pop\n      jump\t// out\n        /* \"#utility.yul\":15531:15688   */\n    tag_546:\n        /* \"#utility.yul\":15636:15681   */\n      tag_548\n        /* \"#utility.yul\":15656:15680   */\n      tag_549\n        /* \"#utility.yul\":15674:15679   */\n      dup3\n        /* \"#utility.yul\":15656:15680   */\n      tag_542\n      jump\t// in\n    tag_549:\n        /* \"#utility.yul\":15636:15681   */\n      tag_550\n      jump\t// in\n    tag_548:\n        /* \"#utility.yul\":15631:15634   */\n      dup3\n        /* \"#utility.yul\":15624:15682   */\n      mstore\n        /* \"#utility.yul\":15614:15688   */\n      pop\n      pop\n      jump\t// out\n        /* \"#utility.yul\":15694:16889   */\n    tag_205:\n      0x00\n        /* \"#utility.yul\":16159:16307   */\n      tag_552\n        /* \"#utility.yul\":16303:16306   */\n      dup3\n        /* \"#utility.yul\":16159:16307   */\n      tag_490\n      jump\t// in\n    tag_552:\n        /* \"#utility.yul\":16152:16307   */\n      swap2\n      pop\n        /* \"#utility.yul\":16317:16392   */\n      tag_553\n        /* \"#utility.yul\":16388:16391   */\n      dup3\n        /* \"#utility.yul\":16379:16385   */\n      dup6\n        /* \"#utility.yul\":16317:16392   */\n      tag_410\n      jump\t// in\n    tag_553:\n        /* \"#utility.yul\":16417:16419   */\n      0x14\n        /* \"#utility.yul\":16412:16415   */\n      dup3\n        /* \"#utility.yul\":16408:16420   */\n      add\n        /* \"#utility.yul\":16401:16420   */\n      swap2\n      pop\n        /* \"#utility.yul\":16437:16585   */\n      tag_554\n        /* \"#utility.yul\":16581:16584   */\n      dup3\n        /* \"#utility.yul\":16437:16585   */\n      tag_515\n      jump\t// in\n    tag_554:\n        /* \"#utility.yul\":16430:16585   */\n      swap2\n      pop\n        /* \"#utility.yul\":16595:16670   */\n      tag_555\n        /* \"#utility.yul\":16666:16669   */\n      dup3\n        /* \"#utility.yul\":16657:16663   */\n      dup5\n        /* \"#utility.yul\":16595:16670   */\n      tag_546\n      jump\t// in\n    tag_555:\n        /* \"#utility.yul\":16695:16697   */\n      0x20\n        /* \"#utility.yul\":16690:16693   */\n      dup3\n        /* \"#utility.yul\":16686:16698   */\n      add\n        /* \"#utility.yul\":16679:16698   */\n      swap2\n      pop\n        /* \"#utility.yul\":16715:16863   */\n      tag_556\n        /* \"#utility.yul\":16859:16862   */\n      dup3\n        /* \"#utility.yul\":16715:16863   */\n      tag_510\n      jump\t// in\n    tag_556:\n        /* \"#utility.yul\":16708:16863   */\n      swap2\n      pop\n        /* \"#utility.yul\":16880:16883   */\n      dup2\n        /* \"#utility.yul\":16873:16883   */\n      swap1\n      pop\n        /* \"#utility.yul\":16141:16889   */\n      swap4\n      swap3\n      pop\n      pop\n      pop\n      jump\t// out\n        /* \"#utility.yul\":16895:17862   */\n    tag_247:\n      0x00\n        /* \"#utility.yul\":17299:17447   */\n      tag_558\n        /* \"#utility.yul\":17443:17446   */\n      dup3\n        /* \"#utility.yul\":17299:17447   */\n      tag_525\n      jump\t// in\n    tag_558:\n        /* \"#utility.yul\":17292:17447   */\n      swap2\n      pop\n        /* \"#utility.yul\":17464:17559   */\n      tag_559\n        /* \"#utility.yul\":17555:17558   */\n      dup3\n        /* \"#utility.yul\":17546:17552   */\n      dup6\n        /* \"#utility.yul\":17464:17559   */\n      tag_479\n      jump\t// in\n    tag_559:\n        /* \"#utility.yul\":17457:17559   */\n      swap2\n      pop\n        /* \"#utility.yul\":17576:17724   */\n      tag_560\n        /* \"#utility.yul\":17720:17723   */\n      dup3\n        /* \"#utility.yul\":17576:17724   */\n      tag_530\n      jump\t// in\n    tag_560:\n        /* \"#utility.yul\":17569:17724   */\n      swap2\n      pop\n        /* \"#utility.yul\":17741:17836   */\n      tag_561\n        /* \"#utility.yul\":17832:17835   */\n      dup3\n        /* \"#utility.yul\":17823:17829   */\n      dup5\n        /* \"#utility.yul\":17741:17836   */\n      tag_479\n      jump\t// in\n    tag_561:\n        /* \"#utility.yul\":17734:17836   */\n      swap2\n      pop\n        /* \"#utility.yul\":17853:17856   */\n      dup2\n        /* \"#utility.yul\":17846:17856   */\n      swap1\n      pop\n        /* \"#utility.yul\":17281:17862   */\n      swap4\n      swap3\n      pop\n      pop\n      pop\n      jump\t// out\n        /* \"#utility.yul\":17868:18090   */\n    tag_108:\n      0x00\n        /* \"#utility.yul\":17999:18001   */\n      0x20\n        /* \"#utility.yul\":17988:17997   */\n      dup3\n        /* \"#utility.yul\":17984:18002   */\n      add\n        /* \"#utility.yul\":17976:18002   */\n      swap1\n      pop\n        /* \"#utility.yul\":18012:18083   */\n      tag_563\n        /* \"#utility.yul\":18080:18081   */\n      0x00\n        /* \"#utility.yul\":18069:18078   */\n      dup4\n        /* \"#utility.yul\":18065:18082   */\n      add\n        /* \"#utility.yul\":18056:18062   */\n      dup5\n        /* \"#utility.yul\":18012:18083   */\n      tag_406\n      jump\t// in\n    tag_563:\n        /* \"#utility.yul\":17966:18090   */\n      swap3\n      swap2\n      pop\n      pop\n      jump\t// out\n        /* \"#utility.yul\":18096:18428   */\n    tag_198:\n      0x00\n        /* \"#utility.yul\":18255:18257   */\n      0x40\n        /* \"#utility.yul\":18244:18253   */\n      dup3\n        /* \"#utility.yul\":18240:18258   */\n      add\n        /* \"#utility.yul\":18232:18258   */\n      swap1\n      pop\n        /* \"#utility.yul\":18268:18339   */\n      tag_565\n        /* \"#utility.yul\":18336:18337   */\n      0x00\n        /* \"#utility.yul\":18325:18334   */\n      dup4\n        /* \"#utility.yul\":18321:18338   */\n      add\n        /* \"#utility.yul\":18312:18318   */\n      dup6\n        /* \"#utility.yul\":18268:18339   */\n      tag_406\n      jump\t// in\n    tag_565:\n        /* \"#utility.yul\":18349:18421   */\n      tag_566\n        /* \"#utility.yul\":18417:18419   */\n      0x20\n        /* \"#utility.yul\":18406:18415   */\n      dup4\n        /* \"#utility.yul\":18402:18420   */\n      add\n        /* \"#utility.yul\":18393:18399   */\n      dup5\n        /* \"#utility.yul\":18349:18421   */\n      tag_543\n      jump\t// in\n    tag_566:\n        /* \"#utility.yul\":18222:18428   */\n      swap4\n      swap3\n      pop\n      pop\n      pop\n      jump\t// out\n        /* \"#utility.yul\":18434:19108   */\n    tag_234:\n      0x00\n        /* \"#utility.yul\":18713:18715   */\n      0x40\n        /* \"#utility.yul\":18702:18711   */\n      dup3\n        /* \"#utility.yul\":18698:18716   */\n      add\n        /* \"#utility.yul\":18690:18716   */\n      swap1\n      pop\n        /* \"#utility.yul\":18762:18771   */\n      dup2\n        /* \"#utility.yul\":18756:18760   */\n      dup2\n        /* \"#utility.yul\":18752:18772   */\n      sub\n        /* \"#utility.yul\":18748:18749   */\n      0x00\n        /* \"#utility.yul\":18737:18746   */\n      dup4\n        /* \"#utility.yul\":18733:18750   */\n      add\n        /* \"#utility.yul\":18726:18773   */\n      mstore\n        /* \"#utility.yul\":18790:18898   */\n      tag_568\n        /* \"#utility.yul\":18893:18897   */\n      dup2\n        /* \"#utility.yul\":18884:18890   */\n      dup6\n        /* \"#utility.yul\":18790:18898   */\n      tag_429\n      jump\t// in\n    tag_568:\n        /* \"#utility.yul\":18782:18898   */\n      swap1\n      pop\n        /* \"#utility.yul\":18945:18954   */\n      dup2\n        /* \"#utility.yul\":18939:18943   */\n      dup2\n        /* \"#utility.yul\":18935:18955   */\n      sub\n        /* \"#utility.yul\":18930:18932   */\n      0x20\n        /* \"#utility.yul\":18919:18928   */\n      dup4\n        /* \"#utility.yul\":18915:18933   */\n      add\n        /* \"#utility.yul\":18908:18956   */\n      mstore\n        /* \"#utility.yul\":18973:19101   */\n      tag_569\n        /* \"#utility.yul\":19096:19100   */\n      dup2\n        /* \"#utility.yul\":19087:19093   */\n      dup5\n        /* \"#utility.yul\":18973:19101   */\n      tag_415\n      jump\t// in\n    tag_569:\n        /* \"#utility.yul\":18965:19101   */\n      swap1\n      pop\n        /* \"#utility.yul\":18680:19108   */\n      swap4\n      swap3\n      pop\n      pop\n      pop\n      jump\t// out\n        /* \"#utility.yul\":19114:19324   */\n    tag_35:\n      0x00\n        /* \"#utility.yul\":19239:19241   */\n      0x20\n        /* \"#utility.yul\":19228:19237   */\n      dup3\n        /* \"#utility.yul\":19224:19242   */\n      add\n        /* \"#utility.yul\":19216:19242   */\n      swap1\n      pop\n        /* \"#utility.yul\":19252:19317   */\n      tag_571\n        /* \"#utility.yul\":19314:19315   */\n      0x00\n        /* \"#utility.yul\":19303:19312   */\n      dup4\n        /* \"#utility.yul\":19299:19316   */\n      add\n        /* \"#utility.yul\":19290:19296   */\n      dup5\n        /* \"#utility.yul\":19252:19317   */\n      tag_443\n      jump\t// in\n    tag_571:\n        /* \"#utility.yul\":19206:19324   */\n      swap3\n      swap2\n      pop\n      pop\n      jump\t// out\n        /* \"#utility.yul\":19330:19552   */\n    tag_41:\n      0x00\n        /* \"#utility.yul\":19461:19463   */\n      0x20\n        /* \"#utility.yul\":19450:19459   */\n      dup3\n        /* \"#utility.yul\":19446:19464   */\n      add\n        /* \"#utility.yul\":19438:19464   */\n      swap1\n      pop\n        /* \"#utility.yul\":19474:19545   */\n      tag_573\n        /* \"#utility.yul\":19542:19543   */\n      0x00\n        /* \"#utility.yul\":19531:19540   */\n      dup4\n        /* \"#utility.yul\":19527:19544   */\n      add\n        /* \"#utility.yul\":19518:19524   */\n      dup5\n        /* \"#utility.yul\":19474:19545   */\n      tag_447\n      jump\t// in\n    tag_573:\n        /* \"#utility.yul\":19428:19552   */\n      swap3\n      swap2\n      pop\n      pop\n      jump\t// out\n        /* \"#utility.yul\":19558:19820   */\n    tag_77:\n      0x00\n        /* \"#utility.yul\":19709:19711   */\n      0x20\n        /* \"#utility.yul\":19698:19707   */\n      dup3\n        /* \"#utility.yul\":19694:19712   */\n      add\n        /* \"#utility.yul\":19686:19712   */\n      swap1\n      pop\n        /* \"#utility.yul\":19722:19813   */\n      tag_575\n        /* \"#utility.yul\":19810:19811   */\n      0x00\n        /* \"#utility.yul\":19799:19808   */\n      dup4\n        /* \"#utility.yul\":19795:19812   */\n      add\n        /* \"#utility.yul\":19786:19792   */\n      dup5\n        /* \"#utility.yul\":19722:19813   */\n      tag_451\n      jump\t// in\n    tag_575:\n        /* \"#utility.yul\":19676:19820   */\n      swap3\n      swap2\n      pop\n      pop\n      jump\t// out\n        /* \"#utility.yul\":19826:20108   */\n    tag_67:\n      0x00\n        /* \"#utility.yul\":19987:19989   */\n      0x20\n        /* \"#utility.yul\":19976:19985   */\n      dup3\n        /* \"#utility.yul\":19972:19990   */\n      add\n        /* \"#utility.yul\":19964:19990   */\n      swap1\n      pop\n        /* \"#utility.yul\":20000:20101   */\n      tag_577\n        /* \"#utility.yul\":20098:20099   */\n      0x00\n        /* \"#utility.yul\":20087:20096   */\n      dup4\n        /* \"#utility.yul\":20083:20100   */\n      add\n        /* \"#utility.yul\":20074:20080   */\n      dup5\n        /* \"#utility.yul\":20000:20101   */\n      tag_455\n      jump\t// in\n    tag_577:\n        /* \"#utility.yul\":19954:20108   */\n      swap3\n      swap2\n      pop\n      pop\n      jump\t// out\n        /* \"#utility.yul\":20114:20376   */\n    tag_104:\n      0x00\n        /* \"#utility.yul\":20265:20267   */\n      0x20\n        /* \"#utility.yul\":20254:20263   */\n      dup3\n        /* \"#utility.yul\":20250:20268   */\n      add\n        /* \"#utility.yul\":20242:20268   */\n      swap1\n      pop\n        /* \"#utility.yul\":20278:20369   */\n      tag_579\n        /* \"#utility.yul\":20366:20367   */\n      0x00\n        /* \"#utility.yul\":20355:20364   */\n      dup4\n        /* \"#utility.yul\":20351:20368   */\n      add\n        /* \"#utility.yul\":20342:20348   */\n      dup5\n        /* \"#utility.yul\":20278:20369   */\n      tag_459\n      jump\t// in\n    tag_579:\n        /* \"#utility.yul\":20232:20376   */\n      swap3\n      swap2\n      pop\n      pop\n      jump\t// out\n        /* \"#utility.yul\":20382:20695   */\n    tag_208:\n      0x00\n        /* \"#utility.yul\":20533:20535   */\n      0x20\n        /* \"#utility.yul\":20522:20531   */\n      dup3\n        /* \"#utility.yul\":20518:20536   */\n      add\n        /* \"#utility.yul\":20510:20536   */\n      swap1\n      pop\n        /* \"#utility.yul\":20582:20591   */\n      dup2\n        /* \"#utility.yul\":20576:20580   */\n      dup2\n        /* \"#utility.yul\":20572:20592   */\n      sub\n        /* \"#utility.yul\":20568:20569   */\n      0x00\n        /* \"#utility.yul\":20557:20566   */\n      dup4\n        /* \"#utility.yul\":20553:20570   */\n      add\n        /* \"#utility.yul\":20546:20593   */\n      mstore\n        /* \"#utility.yul\":20610:20688   */\n      tag_581\n        /* \"#utility.yul\":20683:20687   */\n      dup2\n        /* \"#utility.yul\":20674:20680   */\n      dup5\n        /* \"#utility.yul\":20610:20688   */\n      tag_472\n      jump\t// in\n    tag_581:\n        /* \"#utility.yul\":20602:20688   */\n      swap1\n      pop\n        /* \"#utility.yul\":20500:20695   */\n      swap3\n      swap2\n      pop\n      pop\n      jump\t// out\n        /* \"#utility.yul\":20701:21120   */\n    tag_301:\n      0x00\n        /* \"#utility.yul\":20905:20907   */\n      0x20\n        /* \"#utility.yul\":20894:20903   */\n      dup3\n        /* \"#utility.yul\":20890:20908   */\n      add\n        /* \"#utility.yul\":20882:20908   */\n      swap1\n      pop\n        /* \"#utility.yul\":20954:20963   */\n      dup2\n        /* \"#utility.yul\":20948:20952   */\n      dup2\n        /* \"#utility.yul\":20944:20964   */\n      sub\n        /* \"#utility.yul\":20940:20941   */\n      0x00\n        /* \"#utility.yul\":20929:20938   */\n      dup4\n        /* \"#utility.yul\":20925:20942   */\n      add\n        /* \"#utility.yul\":20918:20965   */\n      mstore\n        /* \"#utility.yul\":20982:21113   */\n      tag_583\n        /* \"#utility.yul\":21108:21112   */\n      dup2\n        /* \"#utility.yul\":20982:21113   */\n      tag_485\n      jump\t// in\n    tag_583:\n        /* \"#utility.yul\":20974:21113   */\n      swap1\n      pop\n        /* \"#utility.yul\":20872:21120   */\n      swap2\n      swap1\n      pop\n      jump\t// out\n        /* \"#utility.yul\":21126:21545   */\n    tag_170:\n      0x00\n        /* \"#utility.yul\":21330:21332   */\n      0x20\n        /* \"#utility.yul\":21319:21328   */\n      dup3\n        /* \"#utility.yul\":21315:21333   */\n      add\n        /* \"#utility.yul\":21307:21333   */\n      swap1\n      pop\n        /* \"#utility.yul\":21379:21388   */\n      dup2\n        /* \"#utility.yul\":21373:21377   */\n      dup2\n        /* \"#utility.yul\":21369:21389   */\n      sub\n        /* \"#utility.yul\":21365:21366   */\n      0x00\n        /* \"#utility.yul\":21354:21363   */\n      dup4\n        /* \"#utility.yul\":21350:21367   */\n      add\n        /* \"#utility.yul\":21343:21390   */\n      mstore\n        /* \"#utility.yul\":21407:21538   */\n      tag_585\n        /* \"#utility.yul\":21533:21537   */\n      dup2\n        /* \"#utility.yul\":21407:21538   */\n      tag_495\n      jump\t// in\n    tag_585:\n        /* \"#utility.yul\":21399:21538   */\n      swap1\n      pop\n        /* \"#utility.yul\":21297:21545   */\n      swap2\n      swap1\n      pop\n      jump\t// out\n        /* \"#utility.yul\":21551:21970   */\n    tag_165:\n      0x00\n        /* \"#utility.yul\":21755:21757   */\n      0x20\n        /* \"#utility.yul\":21744:21753   */\n      dup3\n        /* \"#utility.yul\":21740:21758   */\n      add\n        /* \"#utility.yul\":21732:21758   */\n      swap1\n      pop\n        /* \"#utility.yul\":21804:21813   */\n      dup2\n        /* \"#utility.yul\":21798:21802   */\n      dup2\n        /* \"#utility.yul\":21794:21814   */\n      sub\n        /* \"#utility.yul\":21790:21791   */\n      0x00\n        /* \"#utility.yul\":21779:21788   */\n      dup4\n        /* \"#utility.yul\":21775:21792   */\n      add\n        /* \"#utility.yul\":21768:21815   */\n      mstore\n        /* \"#utility.yul\":21832:21963   */\n      tag_587\n        /* \"#utility.yul\":21958:21962   */\n      dup2\n        /* \"#utility.yul\":21832:21963   */\n      tag_500\n      jump\t// in\n    tag_587:\n        /* \"#utility.yul\":21824:21963   */\n      swap1\n      pop\n        /* \"#utility.yul\":21722:21970   */\n      swap2\n      swap1\n      pop\n      jump\t// out\n        /* \"#utility.yul\":21976:22395   */\n    tag_192:\n      0x00\n        /* \"#utility.yul\":22180:22182   */\n      0x20\n        /* \"#utility.yul\":22169:22178   */\n      dup3\n        /* \"#utility.yul\":22165:22183   */\n      add\n        /* \"#utility.yul\":22157:22183   */\n      swap1\n      pop\n        /* \"#utility.yul\":22229:22238   */\n      dup2\n        /* \"#utility.yul\":22223:22227   */\n      dup2\n        /* \"#utility.yul\":22219:22239   */\n      sub\n        /* \"#utility.yul\":22215:22216   */\n      0x00\n        /* \"#utility.yul\":22204:22213   */\n      dup4\n        /* \"#utility.yul\":22200:22217   */\n      add\n        /* \"#utility.yul\":22193:22240   */\n      mstore\n        /* \"#utility.yul\":22257:22388   */\n      tag_589\n        /* \"#utility.yul\":22383:22387   */\n      dup2\n        /* \"#utility.yul\":22257:22388   */\n      tag_505\n      jump\t// in\n    tag_589:\n        /* \"#utility.yul\":22249:22388   */\n      swap1\n      pop\n        /* \"#utility.yul\":22147:22395   */\n      swap2\n      swap1\n      pop\n      jump\t// out\n        /* \"#utility.yul\":22401:22820   */\n    tag_260:\n      0x00\n        /* \"#utility.yul\":22605:22607   */\n      0x20\n        /* \"#utility.yul\":22594:22603   */\n      dup3\n        /* \"#utility.yul\":22590:22608   */\n      add\n        /* \"#utility.yul\":22582:22608   */\n      swap1\n      pop\n        /* \"#utility.yul\":22654:22663   */\n      dup2\n        /* \"#utility.yul\":22648:22652   */\n      dup2\n        /* \"#utility.yul\":22644:22664   */\n      sub\n        /* \"#utility.yul\":22640:22641   */\n      0x00\n        /* \"#utility.yul\":22629:22638   */\n      dup4\n        /* \"#utility.yul\":22625:22642   */\n      add\n        /* \"#utility.yul\":22618:22665   */\n      mstore\n        /* \"#utility.yul\":22682:22813   */\n      tag_591\n        /* \"#utility.yul\":22808:22812   */\n      dup2\n        /* \"#utility.yul\":22682:22813   */\n      tag_520\n      jump\t// in\n    tag_591:\n        /* \"#utility.yul\":22674:22813   */\n      swap1\n      pop\n        /* \"#utility.yul\":22572:22820   */\n      swap2\n      swap1\n      pop\n      jump\t// out\n        /* \"#utility.yul\":22826:23245   */\n    tag_137:\n      0x00\n        /* \"#utility.yul\":23030:23032   */\n      0x20\n        /* \"#utility.yul\":23019:23028   */\n      dup3\n        /* \"#utility.yul\":23015:23033   */\n      add\n        /* \"#utility.yul\":23007:23033   */\n      swap1\n      pop\n        /* \"#utility.yul\":23079:23088   */\n      dup2\n        /* \"#utility.yul\":23073:23077   */\n      dup2\n        /* \"#utility.yul\":23069:23089   */\n      sub\n        /* \"#utility.yul\":23065:23066   */\n      0x00\n        /* \"#utility.yul\":23054:23063   */\n      dup4\n        /* \"#utility.yul\":23050:23067   */\n      add\n        /* \"#utility.yul\":23043:23090   */\n      mstore\n        /* \"#utility.yul\":23107:23238   */\n      tag_593\n        /* \"#utility.yul\":23233:23237   */\n      dup2\n        /* \"#utility.yul\":23107:23238   */\n      tag_535\n      jump\t// in\n    tag_593:\n        /* \"#utility.yul\":23099:23238   */\n      swap1\n      pop\n        /* \"#utility.yul\":22997:23245   */\n      swap2\n      swap1\n      pop\n      jump\t// out\n        /* \"#utility.yul\":23251:23473   */\n    tag_52:\n      0x00\n        /* \"#utility.yul\":23382:23384   */\n      0x20\n        /* \"#utility.yul\":23371:23380   */\n      dup3\n        /* \"#utility.yul\":23367:23385   */\n      add\n        /* \"#utility.yul\":23359:23385   */\n      swap1\n      pop\n        /* \"#utility.yul\":23395:23466   */\n      tag_595\n        /* \"#utility.yul\":23463:23464   */\n      0x00\n        /* \"#utility.yul\":23452:23461   */\n      dup4\n        /* \"#utility.yul\":23448:23465   */\n      add\n        /* \"#utility.yul\":23439:23445   */\n      dup5\n        /* \"#utility.yul\":23395:23466   */\n      tag_543\n      jump\t// in\n    tag_595:\n        /* \"#utility.yul\":23349:23473   */\n      swap3\n      swap2\n      pop\n      pop\n      jump\t// out\n        /* \"#utility.yul\":23479:23909   */\n    tag_100:\n      0x00\n        /* \"#utility.yul\":23660:23662   */\n      0x60\n        /* \"#utility.yul\":23649:23658   */\n      dup3\n        /* \"#utility.yul\":23645:23663   */\n      add\n        /* \"#utility.yul\":23637:23663   */\n      swap1\n      pop\n        /* \"#utility.yul\":23673:23744   */\n      tag_597\n        /* \"#utility.yul\":23741:23742   */\n      0x00\n        /* \"#utility.yul\":23730:23739   */\n      dup4\n        /* \"#utility.yul\":23726:23743   */\n      add\n        /* \"#utility.yul\":23717:23723   */\n      dup7\n        /* \"#utility.yul\":23673:23744   */\n      tag_543\n      jump\t// in\n    tag_597:\n        /* \"#utility.yul\":23754:23826   */\n      tag_598\n        /* \"#utility.yul\":23822:23824   */\n      0x20\n        /* \"#utility.yul\":23811:23820   */\n      dup4\n        /* \"#utility.yul\":23807:23825   */\n      add\n        /* \"#utility.yul\":23798:23804   */\n      dup6\n        /* \"#utility.yul\":23754:23826   */\n      tag_543\n      jump\t// in\n    tag_598:\n        /* \"#utility.yul\":23836:23902   */\n      tag_599\n        /* \"#utility.yul\":23898:23900   */\n      0x40\n        /* \"#utility.yul\":23887:23896   */\n      dup4\n        /* \"#utility.yul\":23883:23901   */\n      add\n        /* \"#utility.yul\":23874:23880   */\n      dup5\n        /* \"#utility.yul\":23836:23902   */\n      tag_443\n      jump\t// in\n    tag_599:\n        /* \"#utility.yul\":23627:23909   */\n      swap5\n      swap4\n      pop\n      pop\n      pop\n      pop\n      jump\t// out\n        /* \"#utility.yul\":23915:24044   */\n    tag_308:\n      0x00\n        /* \"#utility.yul\":23976:23996   */\n      tag_601\n      tag_602\n      jump\t// in\n    tag_601:\n        /* \"#utility.yul\":23966:23996   */\n      swap1\n      pop\n        /* \"#utility.yul\":24005:24038   */\n      tag_603\n        /* \"#utility.yul\":24033:24037   */\n      dup3\n        /* \"#utility.yul\":24025:24031   */\n      dup3\n        /* \"#utility.yul\":24005:24038   */\n      tag_604\n      jump\t// in\n    tag_603:\n        /* \"#utility.yul\":23956:24044   */\n      swap2\n      swap1\n      pop\n      jump\t// out\n        /* \"#utility.yul\":24050:24125   */\n    tag_602:\n      0x00\n        /* \"#utility.yul\":24116:24118   */\n      0x40\n        /* \"#utility.yul\":24110:24119   */\n      mload\n        /* \"#utility.yul\":24100:24119   */\n      swap1\n      pop\n        /* \"#utility.yul\":24090:24125   */\n      swap1\n      jump\t// out\n        /* \"#utility.yul\":24131:24452   */\n    tag_307:\n      0x00\n        /* \"#utility.yul\":24308:24326   */\n      0xffffffffffffffff\n        /* \"#utility.yul\":24300:24306   */\n      dup3\n        /* \"#utility.yul\":24297:24327   */\n      gt\n        /* \"#utility.yul\":24294:24296   */\n      iszero\n      tag_607\n      jumpi\n        /* \"#utility.yul\":24330:24348   */\n      tag_608\n      tag_609\n      jump\t// in\n    tag_608:\n        /* \"#utility.yul\":24294:24296   */\n    tag_607:\n        /* \"#utility.yul\":24380:24384   */\n      0x20\n        /* \"#utility.yul\":24372:24378   */\n      dup3\n        /* \"#utility.yul\":24368:24385   */\n      mul\n        /* \"#utility.yul\":24360:24385   */\n      swap1\n      pop\n        /* \"#utility.yul\":24440:24444   */\n      0x20\n        /* \"#utility.yul\":24434:24438   */\n      dup2\n        /* \"#utility.yul\":24430:24445   */\n      add\n        /* \"#utility.yul\":24422:24445   */\n      swap1\n      pop\n        /* \"#utility.yul\":24223:24452   */\n      swap2\n      swap1\n      pop\n      jump\t// out\n        /* \"#utility.yul\":24458:24769   */\n    tag_318:\n      0x00\n        /* \"#utility.yul\":24625:24643   */\n      0xffffffffffffffff\n        /* \"#utility.yul\":24617:24623   */\n      dup3\n        /* \"#utility.yul\":24614:24644   */\n      gt\n        /* \"#utility.yul\":24611:24613   */\n      iszero\n      tag_611\n      jumpi\n        /* \"#utility.yul\":24647:24665   */\n      tag_612\n      tag_609\n      jump\t// in\n    tag_612:\n        /* \"#utility.yul\":24611:24613   */\n    tag_611:\n        /* \"#utility.yul\":24697:24701   */\n      0x20\n        /* \"#utility.yul\":24689:24695   */\n      dup3\n        /* \"#utility.yul\":24685:24702   */\n      mul\n        /* \"#utility.yul\":24677:24702   */\n      swap1\n      pop\n        /* \"#utility.yul\":24757:24761   */\n      0x20\n        /* \"#utility.yul\":24751:24755   */\n      dup2\n        /* \"#utility.yul\":24747:24762   */\n      add\n        /* \"#utility.yul\":24739:24762   */\n      swap1\n      pop\n        /* \"#utility.yul\":24540:24769   */\n      swap2\n      swap1\n      pop\n      jump\t// out\n        /* \"#utility.yul\":24775:25083   */\n    tag_329:\n      0x00\n        /* \"#utility.yul\":24927:24945   */\n      0xffffffffffffffff\n        /* \"#utility.yul\":24919:24925   */\n      dup3\n        /* \"#utility.yul\":24916:24946   */\n      gt\n        /* \"#utility.yul\":24913:24915   */\n      iszero\n      tag_614\n      jumpi\n        /* \"#utility.yul\":24949:24967   */\n      tag_615\n      tag_609\n      jump\t// in\n    tag_615:\n        /* \"#utility.yul\":24913:24915   */\n    tag_614:\n        /* \"#utility.yul\":24987:25016   */\n      tag_616\n        /* \"#utility.yul\":25009:25015   */\n      dup3\n        /* \"#utility.yul\":24987:25016   */\n      tag_471\n      jump\t// in\n    tag_616:\n        /* \"#utility.yul\":24979:25016   */\n      swap1\n      pop\n        /* \"#utility.yul\":25071:25075   */\n      0x20\n        /* \"#utility.yul\":25065:25069   */\n      dup2\n        /* \"#utility.yul\":25061:25076   */\n      add\n        /* \"#utility.yul\":25053:25076   */\n      swap1\n      pop\n        /* \"#utility.yul\":24842:25083   */\n      swap2\n      swap1\n      pop\n      jump\t// out\n        /* \"#utility.yul\":25089:25231   */\n    tag_422:\n      0x00\n        /* \"#utility.yul\":25189:25192   */\n      dup2\n        /* \"#utility.yul\":25181:25192   */\n      swap1\n      pop\n        /* \"#utility.yul\":25219:25223   */\n      0x20\n        /* \"#utility.yul\":25214:25217   */\n      dup3\n        /* \"#utility.yul\":25210:25224   */\n      add\n        /* \"#utility.yul\":25202:25224   */\n      swap1\n      pop\n        /* \"#utility.yul\":25171:25231   */\n      swap2\n      swap1\n      pop\n      jump\t// out\n        /* \"#utility.yul\":25237:25369   */\n    tag_436:\n      0x00\n        /* \"#utility.yul\":25327:25330   */\n      dup2\n        /* \"#utility.yul\":25319:25330   */\n      swap1\n      pop\n        /* \"#utility.yul\":25357:25361   */\n      0x20\n        /* \"#utility.yul\":25352:25355   */\n      dup3\n        /* \"#utility.yul\":25348:25362   */\n      add\n        /* \"#utility.yul\":25340:25362   */\n      swap1\n      pop\n        /* \"#utility.yul\":25309:25369   */\n      swap2\n      swap1\n      pop\n      jump\t// out\n        /* \"#utility.yul\":25375:25499   */\n    tag_418:\n      0x00\n        /* \"#utility.yul\":25486:25491   */\n      dup2\n        /* \"#utility.yul\":25480:25492   */\n      mload\n        /* \"#utility.yul\":25470:25492   */\n      swap1\n      pop\n        /* \"#utility.yul\":25459:25499   */\n      swap2\n      swap1\n      pop\n      jump\t// out\n        /* \"#utility.yul\":25505:25619   */\n    tag_432:\n      0x00\n        /* \"#utility.yul\":25606:25611   */\n      dup2\n        /* \"#utility.yul\":25600:25612   */\n      mload\n        /* \"#utility.yul\":25590:25612   */\n      swap1\n      pop\n        /* \"#utility.yul\":25579:25619   */\n      swap2\n      swap1\n      pop\n      jump\t// out\n        /* \"#utility.yul\":25625:25724   */\n    tag_465:\n      0x00\n        /* \"#utility.yul\":25711:25716   */\n      dup2\n        /* \"#utility.yul\":25705:25717   */\n      mload\n        /* \"#utility.yul\":25695:25717   */\n      swap1\n      pop\n        /* \"#utility.yul\":25684:25724   */\n      swap2\n      swap1\n      pop\n      jump\t// out\n        /* \"#utility.yul\":25730:25853   */\n    tag_428:\n      0x00\n        /* \"#utility.yul\":25842:25846   */\n      0x20\n        /* \"#utility.yul\":25837:25840   */\n      dup3\n        /* \"#utility.yul\":25833:25847   */\n      add\n        /* \"#utility.yul\":25825:25847   */\n      swap1\n      pop\n        /* \"#utility.yul\":25815:25853   */\n      swap2\n      swap1\n      pop\n      jump\t// out\n        /* \"#utility.yul\":25859:25972   */\n    tag_442:\n      0x00\n        /* \"#utility.yul\":25961:25965   */\n      0x20\n        /* \"#utility.yul\":25956:25959   */\n      dup3\n        /* \"#utility.yul\":25952:25966   */\n      add\n        /* \"#utility.yul\":25944:25966   */\n      swap1\n      pop\n        /* \"#utility.yul\":25934:25972   */\n      swap2\n      swap1\n      pop\n      jump\t// out\n        /* \"#utility.yul\":25978:26172   */\n    tag_420:\n      0x00\n        /* \"#utility.yul\":26121:26127   */\n      dup3\n        /* \"#utility.yul\":26116:26119   */\n      dup3\n        /* \"#utility.yul\":26109:26128   */\n      mstore\n        /* \"#utility.yul\":26161:26165   */\n      0x20\n        /* \"#utility.yul\":26156:26159   */\n      dup3\n        /* \"#utility.yul\":26152:26166   */\n      add\n        /* \"#utility.yul\":26137:26166   */\n      swap1\n      pop\n        /* \"#utility.yul\":26099:26172   */\n      swap3\n      swap2\n      pop\n      pop\n      jump\t// out\n        /* \"#utility.yul\":26178:26362   */\n    tag_434:\n      0x00\n        /* \"#utility.yul\":26311:26317   */\n      dup3\n        /* \"#utility.yul\":26306:26309   */\n      dup3\n        /* \"#utility.yul\":26299:26318   */\n      mstore\n        /* \"#utility.yul\":26351:26355   */\n      0x20\n        /* \"#utility.yul\":26346:26349   */\n      dup3\n        /* \"#utility.yul\":26342:26356   */\n      add\n        /* \"#utility.yul\":26327:26356   */\n      swap1\n      pop\n        /* \"#utility.yul\":26289:26362   */\n      swap3\n      swap2\n      pop\n      pop\n      jump\t// out\n        /* \"#utility.yul\":26368:26527   */\n    tag_467:\n      0x00\n        /* \"#utility.yul\":26476:26482   */\n      dup3\n        /* \"#utility.yul\":26471:26474   */\n      dup3\n        /* \"#utility.yul\":26464:26483   */\n      mstore\n        /* \"#utility.yul\":26516:26520   */\n      0x20\n        /* \"#utility.yul\":26511:26514   */\n      dup3\n        /* \"#utility.yul\":26507:26521   */\n      add\n        /* \"#utility.yul\":26492:26521   */\n      swap1\n      pop\n        /* \"#utility.yul\":26454:26527   */\n      swap3\n      swap2\n      pop\n      pop\n      jump\t// out\n        /* \"#utility.yul\":26533:26702   */\n    tag_476:\n      0x00\n        /* \"#utility.yul\":26651:26657   */\n      dup3\n        /* \"#utility.yul\":26646:26649   */\n      dup3\n        /* \"#utility.yul\":26639:26658   */\n      mstore\n        /* \"#utility.yul\":26691:26695   */\n      0x20\n        /* \"#utility.yul\":26686:26689   */\n      dup3\n        /* \"#utility.yul\":26682:26696   */\n      add\n        /* \"#utility.yul\":26667:26696   */\n      swap1\n      pop\n        /* \"#utility.yul\":26629:26702   */\n      swap3\n      swap2\n      pop\n      pop\n      jump\t// out\n        /* \"#utility.yul\":26708:26856   */\n    tag_483:\n      0x00\n        /* \"#utility.yul\":26847:26850   */\n      dup2\n        /* \"#utility.yul\":26832:26850   */\n      swap1\n      pop\n        /* \"#utility.yul\":26822:26856   */\n      swap3\n      swap2\n      pop\n      pop\n      jump\t// out\n        /* \"#utility.yul\":26862:27167   */\n    tag_286:\n      0x00\n        /* \"#utility.yul\":26921:26941   */\n      tag_630\n        /* \"#utility.yul\":26939:26940   */\n      dup3\n        /* \"#utility.yul\":26921:26941   */\n      tag_542\n      jump\t// in\n    tag_630:\n        /* \"#utility.yul\":26916:26941   */\n      swap2\n      pop\n        /* \"#utility.yul\":26955:26975   */\n      tag_631\n        /* \"#utility.yul\":26973:26974   */\n      dup4\n        /* \"#utility.yul\":26955:26975   */\n      tag_542\n      jump\t// in\n    tag_631:\n        /* \"#utility.yul\":26950:26975   */\n      swap3\n      pop\n        /* \"#utility.yul\":27109:27110   */\n      dup3\n        /* \"#utility.yul\":27041:27107   */\n      0xffffffffffffffffffffffffffffffffffffffffffffffffffffffffffffffff\n        /* \"#utility.yul\":27037:27111   */\n      sub\n        /* \"#utility.yul\":27034:27035   */\n      dup3\n        /* \"#utility.yul\":27031:27112   */\n      gt\n        /* \"#utility.yul\":27028:27030   */\n      iszero\n      tag_632\n      jumpi\n        /* \"#utility.yul\":27115:27133   */\n      tag_633\n      tag_634\n      jump\t// in\n    tag_633:\n        /* \"#utility.yul\":27028:27030   */\n    tag_632:\n        /* \"#utility.yul\":27159:27160   */\n      dup3\n        /* \"#utility.yul\":27156:27157   */\n      dup3\n        /* \"#utility.yul\":27152:27161   */\n      add\n        /* \"#utility.yul\":27145:27161   */\n      swap1\n      pop\n        /* \"#utility.yul\":26906:27167   */\n      swap3\n      swap2\n      pop\n      pop\n      jump\t// out\n        /* \"#utility.yul\":27173:27358   */\n    tag_211:\n      0x00\n        /* \"#utility.yul\":27230:27250   */\n      tag_636\n        /* \"#utility.yul\":27248:27249   */\n      dup3\n        /* \"#utility.yul\":27230:27250   */\n      tag_542\n      jump\t// in\n    tag_636:\n        /* \"#utility.yul\":27225:27250   */\n      swap2\n      pop\n        /* \"#utility.yul\":27264:27284   */\n      tag_637\n        /* \"#utility.yul\":27282:27283   */\n      dup4\n        /* \"#utility.yul\":27264:27284   */\n      tag_542\n      jump\t// in\n    tag_637:\n        /* \"#utility.yul\":27259:27284   */\n      swap3\n      pop\n        /* \"#utility.yul\":27303:27304   */\n      dup3\n        /* \"#utility.yul\":27293:27295   */\n      tag_638\n      jumpi\n        /* \"#utility.yul\":27308:27326   */\n      tag_639\n      tag_640\n      jump\t// in\n    tag_639:\n        /* \"#utility.yul\":27293:27295   */\n    tag_638:\n        /* \"#utility.yul\":27350:27351   */\n      dup3\n        /* \"#utility.yul\":27347:27348   */\n      dup3\n        /* \"#utility.yul\":27343:27352   */\n      div\n        /* \"#utility.yul\":27338:27352   */\n      swap1\n      pop\n        /* \"#utility.yul\":27215:27358   */\n      swap3\n      swap2\n      pop\n      pop\n      jump\t// out\n        /* \"#utility.yul\":27364:27712   */\n    tag_213:\n      0x00\n        /* \"#utility.yul\":27427:27447   */\n      tag_642\n        /* \"#utility.yul\":27445:27446   */\n      dup3\n        /* \"#utility.yul\":27427:27447   */\n      tag_542\n      jump\t// in\n    tag_642:\n        /* \"#utility.yul\":27422:27447   */\n      swap2\n      pop\n        /* \"#utility.yul\":27461:27481   */\n      tag_643\n        /* \"#utility.yul\":27479:27480   */\n      dup4\n        /* \"#utility.yul\":27461:27481   */\n      tag_542\n      jump\t// in\n    tag_643:\n        /* \"#utility.yul\":27456:27481   */\n      swap3\n      pop\n        /* \"#utility.yul\":27649:27650   */\n      dup2\n        /* \"#utility.yul\":27581:27647   */\n      0xffffffffffffffffffffffffffffffffffffffffffffffffffffffffffffffff\n        /* \"#utility.yul\":27577:27651   */\n      div\n        /* \"#utility.yul\":27574:27575   */\n      dup4\n        /* \"#utility.yul\":27571:27652   */\n      gt\n        /* \"#utility.yul\":27566:27567   */\n      dup3\n        /* \"#utility.yul\":27559:27568   */\n      iszero\n        /* \"#utility.yul\":27552:27569   */\n      iszero\n        /* \"#utility.yul\":27548:27653   */\n      and\n        /* \"#utility.yul\":27545:27547   */\n      iszero\n      tag_644\n      jumpi\n        /* \"#utility.yul\":27656:27674   */\n      tag_645\n      tag_634\n      jump\t// in\n    tag_645:\n        /* \"#utility.yul\":27545:27547   */\n    tag_644:\n        /* \"#utility.yul\":27704:27705   */\n      dup3\n        /* \"#utility.yul\":27701:27702   */\n      dup3\n        /* \"#utility.yul\":27697:27706   */\n      mul\n        /* \"#utility.yul\":27686:27706   */\n      swap1\n      pop\n        /* \"#utility.yul\":27412:27712   */\n      swap3\n      swap2\n      pop\n      pop\n      jump\t// out\n        /* \"#utility.yul\":27718:27909   */\n    tag_173:\n      0x00\n        /* \"#utility.yul\":27778:27798   */\n      tag_647\n        /* \"#utility.yul\":27796:27797   */\n      dup3\n        /* \"#utility.yul\":27778:27798   */\n      tag_542\n      jump\t// in\n    tag_647:\n        /* \"#utility.yul\":27773:27798   */\n      swap2\n      pop\n        /* \"#utility.yul\":27812:27832   */\n      tag_648\n        /* \"#utility.yul\":27830:27831   */\n      dup4\n        /* \"#utility.yul\":27812:27832   */\n      tag_542\n      jump\t// in\n    tag_648:\n        /* \"#utility.yul\":27807:27832   */\n      swap3\n      pop\n        /* \"#utility.yul\":27851:27852   */\n      dup3\n        /* \"#utility.yul\":27848:27849   */\n      dup3\n        /* \"#utility.yul\":27845:27853   */\n      lt\n        /* \"#utility.yul\":27842:27844   */\n      iszero\n      tag_649\n      jumpi\n        /* \"#utility.yul\":27856:27874   */\n      tag_650\n      tag_634\n      jump\t// in\n    tag_650:\n        /* \"#utility.yul\":27842:27844   */\n    tag_649:\n        /* \"#utility.yul\":27901:27902   */\n      dup3\n        /* \"#utility.yul\":27898:27899   */\n      dup3\n        /* \"#utility.yul\":27894:27903   */\n      sub\n        /* \"#utility.yul\":27886:27903   */\n      swap1\n      pop\n        /* \"#utility.yul\":27763:27909   */\n      swap3\n      swap2\n      pop\n      pop\n      jump\t// out\n        /* \"#utility.yul\":27915:28011   */\n    tag_409:\n      0x00\n        /* \"#utility.yul\":27981:28005   */\n      tag_652\n        /* \"#utility.yul\":27999:28004   */\n      dup3\n        /* \"#utility.yul\":27981:28005   */\n      tag_653\n      jump\t// in\n    tag_652:\n        /* \"#utility.yul\":27970:28005   */\n      swap1\n      pop\n        /* \"#utility.yul\":27960:28011   */\n      swap2\n      swap1\n      pop\n      jump\t// out\n        /* \"#utility.yul\":28017:28107   */\n    tag_446:\n      0x00\n        /* \"#utility.yul\":28094:28099   */\n      dup2\n        /* \"#utility.yul\":28087:28100   */\n      iszero\n        /* \"#utility.yul\":28080:28101   */\n      iszero\n        /* \"#utility.yul\":28069:28101   */\n      swap1\n      pop\n        /* \"#utility.yul\":28059:28107   */\n      swap2\n      swap1\n      pop\n      jump\t// out\n        /* \"#utility.yul\":28113:28190   */\n    tag_450:\n      0x00\n        /* \"#utility.yul\":28179:28184   */\n      dup2\n        /* \"#utility.yul\":28168:28184   */\n      swap1\n      pop\n        /* \"#utility.yul\":28158:28190   */\n      swap2\n      swap1\n      pop\n      jump\t// out\n        /* \"#utility.yul\":28196:28345   */\n    tag_656:\n      0x00\n        /* \"#utility.yul\":28272:28338   */\n      0xffffffff00000000000000000000000000000000000000000000000000000000\n        /* \"#utility.yul\":28265:28270   */\n      dup3\n        /* \"#utility.yul\":28261:28339   */\n      and\n        /* \"#utility.yul\":28250:28339   */\n      swap1\n      pop\n        /* \"#utility.yul\":28240:28345   */\n      swap2\n      swap1\n      pop\n      jump\t// out\n        /* \"#utility.yul\":28351:28477   */\n    tag_653:\n      0x00\n        /* \"#utility.yul\":28428:28470   */\n      0xffffffffffffffffffffffffffffffffffffffff\n        /* \"#utility.yul\":28421:28426   */\n      dup3\n        /* \"#utility.yul\":28417:28471   */\n      and\n        /* \"#utility.yul\":28406:28471   */\n      swap1\n      pop\n        /* \"#utility.yul\":28396:28477   */\n      swap2\n      swap1\n      pop\n      jump\t// out\n        /* \"#utility.yul\":28483:28560   */\n    tag_542:\n      0x00\n        /* \"#utility.yul\":28549:28554   */\n      dup2\n        /* \"#utility.yul\":28538:28554   */\n      swap1\n      pop\n        /* \"#utility.yul\":28528:28560   */\n      swap2\n      swap1\n      pop\n      jump\t// out\n        /* \"#utility.yul\":28566:28732   */\n    tag_454:\n      0x00\n        /* \"#utility.yul\":28669:28726   */\n      tag_661\n        /* \"#utility.yul\":28720:28725   */\n      dup3\n        /* \"#utility.yul\":28669:28726   */\n      tag_662\n      jump\t// in\n    tag_661:\n        /* \"#utility.yul\":28656:28726   */\n      swap1\n      pop\n        /* \"#utility.yul\":28646:28732   */\n      swap2\n      swap1\n      pop\n      jump\t// out\n        /* \"#utility.yul\":28738:28871   */\n    tag_662:\n      0x00\n        /* \"#utility.yul\":28841:28865   */\n      tag_664\n        /* \"#utility.yul\":28859:28864   */\n      dup3\n        /* \"#utility.yul\":28841:28865   */\n      tag_653\n      jump\t// in\n    tag_664:\n        /* \"#utility.yul\":28828:28865   */\n      swap1\n      pop\n        /* \"#utility.yul\":28818:28871   */\n      swap2\n      swap1\n      pop\n      jump\t// out\n        /* \"#utility.yul\":28877:29063   */\n    tag_458:\n      0x00\n        /* \"#utility.yul\":28990:29057   */\n      tag_666\n        /* \"#utility.yul\":29051:29056   */\n      dup3\n        /* \"#utility.yul\":28990:29057   */\n      tag_667\n      jump\t// in\n    tag_666:\n        /* \"#utility.yul\":28977:29057   */\n      swap1\n      pop\n        /* \"#utility.yul\":28967:29063   */\n      swap2\n      swap1\n      pop\n      jump\t// out\n        /* \"#utility.yul\":29069:29212   */\n    tag_667:\n      0x00\n        /* \"#utility.yul\":29182:29206   */\n      tag_669\n        /* \"#utility.yul\":29200:29205   */\n      dup3\n        /* \"#utility.yul\":29182:29206   */\n      tag_653\n      jump\t// in\n    tag_669:\n        /* \"#utility.yul\":29169:29206   */\n      swap1\n      pop\n        /* \"#utility.yul\":29159:29212   */\n      swap2\n      swap1\n      pop\n      jump\t// out\n        /* \"#utility.yul\":29218:29384   */\n    tag_462:\n      0x00\n        /* \"#utility.yul\":29321:29378   */\n      tag_671\n        /* \"#utility.yul\":29372:29377   */\n      dup3\n        /* \"#utility.yul\":29321:29378   */\n      tag_672\n      jump\t// in\n    tag_671:\n        /* \"#utility.yul\":29308:29378   */\n      swap1\n      pop\n        /* \"#utility.yul\":29298:29384   */\n      swap2\n      swap1\n      pop\n      jump\t// out\n        /* \"#utility.yul\":29390:29523   */\n    tag_672:\n      0x00\n        /* \"#utility.yul\":29493:29517   */\n      tag_674\n        /* \"#utility.yul\":29511:29516   */\n      dup3\n        /* \"#utility.yul\":29493:29517   */\n      tag_653\n      jump\t// in\n    tag_674:\n        /* \"#utility.yul\":29480:29517   */\n      swap1\n      pop\n        /* \"#utility.yul\":29470:29523   */\n      swap2\n      swap1\n      pop\n      jump\t// out\n        /* \"#utility.yul\":29529:29683   */\n    tag_332:\n        /* \"#utility.yul\":29613:29619   */\n      dup3\n        /* \"#utility.yul\":29608:29611   */\n      dup2\n        /* \"#utility.yul\":29603:29606   */\n      dup4\n        /* \"#utility.yul\":29590:29620   */\n      calldatacopy\n        /* \"#utility.yul\":29675:29676   */\n      0x00\n        /* \"#utility.yul\":29666:29672   */\n      dup4\n        /* \"#utility.yul\":29661:29664   */\n      dup4\n        /* \"#utility.yul\":29657:29673   */\n      add\n        /* \"#utility.yul\":29650:29677   */\n      mstore\n        /* \"#utility.yul\":29580:29683   */\n      pop\n      pop\n      pop\n      jump\t// out\n        /* \"#utility.yul\":29689:29996   */\n    tag_469:\n        /* \"#utility.yul\":29757:29758   */\n      0x00\n        /* \"#utility.yul\":29767:29880   */\n    tag_677:\n        /* \"#utility.yul\":29781:29787   */\n      dup4\n        /* \"#utility.yul\":29778:29779   */\n      dup2\n        /* \"#utility.yul\":29775:29788   */\n      lt\n        /* \"#utility.yul\":29767:29880   */\n      iszero\n      tag_679\n      jumpi\n        /* \"#utility.yul\":29866:29867   */\n      dup1\n        /* \"#utility.yul\":29861:29864   */\n      dup3\n        /* \"#utility.yul\":29857:29868   */\n      add\n        /* \"#utility.yul\":29851:29869   */\n      mload\n        /* \"#utility.yul\":29847:29848   */\n      dup2\n        /* \"#utility.yul\":29842:29845   */\n      dup5\n        /* \"#utility.yul\":29838:29849   */\n      add\n        /* \"#utility.yul\":29831:29870   */\n      mstore\n        /* \"#utility.yul\":29803:29805   */\n      0x20\n        /* \"#utility.yul\":29800:29801   */\n      dup2\n        /* \"#utility.yul\":29796:29806   */\n      add\n        /* \"#utility.yul\":29791:29806   */\n      swap1\n      pop\n        /* \"#utility.yul\":29767:29880   */\n      jump(tag_677)\n    tag_679:\n        /* \"#utility.yul\":29898:29904   */\n      dup4\n        /* \"#utility.yul\":29895:29896   */\n      dup2\n        /* \"#utility.yul\":29892:29905   */\n      gt\n        /* \"#utility.yul\":29889:29891   */\n      iszero\n      tag_680\n      jumpi\n        /* \"#utility.yul\":29978:29979   */\n      0x00\n        /* \"#utility.yul\":29969:29975   */\n      dup5\n        /* \"#utility.yul\":29964:29967   */\n      dup5\n        /* \"#utility.yul\":29960:29976   */\n      add\n        /* \"#utility.yul\":29953:29980   */\n      mstore\n        /* \"#utility.yul\":29889:29891   */\n    tag_680:\n        /* \"#utility.yul\":29738:29996   */\n      pop\n      pop\n      pop\n      pop\n      jump\t// out\n        /* \"#utility.yul\":30002:30173   */\n    tag_182:\n      0x00\n        /* \"#utility.yul\":30064:30088   */\n      tag_682\n        /* \"#utility.yul\":30082:30087   */\n      dup3\n        /* \"#utility.yul\":30064:30088   */\n      tag_542\n      jump\t// in\n    tag_682:\n        /* \"#utility.yul\":30055:30088   */\n      swap2\n      pop\n        /* \"#utility.yul\":30110:30114   */\n      0x00\n        /* \"#utility.yul\":30103:30108   */\n      dup3\n        /* \"#utility.yul\":30100:30115   */\n      eq\n        /* \"#utility.yul\":30097:30099   */\n      iszero\n      tag_683\n      jumpi\n        /* \"#utility.yul\":30118:30136   */\n      tag_684\n      tag_634\n      jump\t// in\n    tag_684:\n        /* \"#utility.yul\":30097:30099   */\n    tag_683:\n        /* \"#utility.yul\":30165:30166   */\n      0x01\n        /* \"#utility.yul\":30158:30163   */\n      dup3\n        /* \"#utility.yul\":30154:30167   */\n      sub\n        /* \"#utility.yul\":30147:30167   */\n      swap1\n      pop\n        /* \"#utility.yul\":30045:30173   */\n      swap2\n      swap1\n      pop\n      jump\t// out\n        /* \"#utility.yul\":30179:30460   */\n    tag_604:\n        /* \"#utility.yul\":30262:30289   */\n      tag_686\n        /* \"#utility.yul\":30284:30288   */\n      dup3\n        /* \"#utility.yul\":30262:30289   */\n      tag_471\n      jump\t// in\n    tag_686:\n        /* \"#utility.yul\":30254:30260   */\n      dup2\n        /* \"#utility.yul\":30250:30290   */\n      add\n        /* \"#utility.yul\":30392:30398   */\n      dup2\n        /* \"#utility.yul\":30380:30390   */\n      dup2\n        /* \"#utility.yul\":30377:30399   */\n      lt\n        /* \"#utility.yul\":30356:30374   */\n      0xffffffffffffffff\n        /* \"#utility.yul\":30344:30354   */\n      dup3\n        /* \"#utility.yul\":30341:30375   */\n      gt\n        /* \"#utility.yul\":30338:30400   */\n      or\n        /* \"#utility.yul\":30335:30337   */\n      iszero\n      tag_687\n      jumpi\n        /* \"#utility.yul\":30403:30421   */\n      tag_688\n      tag_609\n      jump\t// in\n    tag_688:\n        /* \"#utility.yul\":30335:30337   */\n    tag_687:\n        /* \"#utility.yul\":30443:30453   */\n      dup1\n        /* \"#utility.yul\":30439:30441   */\n      0x40\n        /* \"#utility.yul\":30432:30454   */\n      mstore\n        /* \"#utility.yul\":30222:30460   */\n      pop\n      pop\n      pop\n      jump\t// out\n        /* \"#utility.yul\":30466:30566   */\n    tag_414:\n      0x00\n        /* \"#utility.yul\":30534:30560   */\n      tag_690\n        /* \"#utility.yul\":30554:30559   */\n      dup3\n        /* \"#utility.yul\":30534:30560   */\n      tag_691\n      jump\t// in\n    tag_690:\n        /* \"#utility.yul\":30523:30560   */\n      swap1\n      pop\n        /* \"#utility.yul\":30513:30566   */\n      swap2\n      swap1\n      pop\n      jump\t// out\n        /* \"#utility.yul\":30572:30666   */\n    tag_691:\n      0x00\n        /* \"#utility.yul\":30640:30660   */\n      tag_693\n        /* \"#utility.yul\":30654:30659   */\n      dup3\n        /* \"#utility.yul\":30640:30660   */\n      tag_694\n      jump\t// in\n    tag_693:\n        /* \"#utility.yul\":30629:30660   */\n      swap1\n      pop\n        /* \"#utility.yul\":30619:30666   */\n      swap2\n      swap1\n      pop\n      jump\t// out\n        /* \"#utility.yul\":30672:30751   */\n    tag_550:\n      0x00\n        /* \"#utility.yul\":30740:30745   */\n      dup2\n        /* \"#utility.yul\":30729:30745   */\n      swap1\n      pop\n        /* \"#utility.yul\":30719:30751   */\n      swap2\n      swap1\n      pop\n      jump\t// out\n        /* \"#utility.yul\":30757:30937   */\n    tag_634:\n        /* \"#utility.yul\":30805:30882   */\n      0x4e487b7100000000000000000000000000000000000000000000000000000000\n        /* \"#utility.yul\":30802:30803   */\n      0x00\n        /* \"#utility.yul\":30795:30883   */\n      mstore\n        /* \"#utility.yul\":30902:30906   */\n      0x11\n        /* \"#utility.yul\":30899:30900   */\n      0x04\n        /* \"#utility.yul\":30892:30907   */\n      mstore\n        /* \"#utility.yul\":30926:30930   */\n      0x24\n        /* \"#utility.yul\":30923:30924   */\n      0x00\n        /* \"#utility.yul\":30916:30931   */\n      revert\n        /* \"#utility.yul\":30943:31123   */\n    tag_640:\n        /* \"#utility.yul\":30991:31068   */\n      0x4e487b7100000000000000000000000000000000000000000000000000000000\n        /* \"#utility.yul\":30988:30989   */\n      0x00\n        /* \"#utility.yul\":30981:31069   */\n      mstore\n        /* \"#utility.yul\":31088:31092   */\n      0x12\n        /* \"#utility.yul\":31085:31086   */\n      0x04\n        /* \"#utility.yul\":31078:31093   */\n      mstore\n        /* \"#utility.yul\":31112:31116   */\n      0x24\n        /* \"#utility.yul\":31109:31110   */\n      0x00\n        /* \"#utility.yul\":31102:31117   */\n      revert\n        /* \"#utility.yul\":31129:31309   */\n    tag_609:\n        /* \"#utility.yul\":31177:31254   */\n      0x4e487b7100000000000000000000000000000000000000000000000000000000\n        /* \"#utility.yul\":31174:31175   */\n      0x00\n        /* \"#utility.yul\":31167:31255   */\n      mstore\n        /* \"#utility.yul\":31274:31278   */\n      0x41\n        /* \"#utility.yul\":31271:31272   */\n      0x04\n        /* \"#utility.yul\":31264:31279   */\n      mstore\n        /* \"#utility.yul\":31298:31302   */\n      0x24\n        /* \"#utility.yul\":31295:31296   */\n      0x00\n        /* \"#utility.yul\":31288:31303   */\n      revert\n        /* \"#utility.yul\":31315:31417   */\n    tag_471:\n      0x00\n        /* \"#utility.yul\":31407:31409   */\n      0x1f\n        /* \"#utility.yul\":31403:31410   */\n      not\n        /* \"#utility.yul\":31398:31400   */\n      0x1f\n        /* \"#utility.yul\":31391:31396   */\n      dup4\n        /* \"#utility.yul\":31387:31401   */\n      add\n        /* \"#utility.yul\":31383:31411   */\n      and\n        /* \"#utility.yul\":31373:31411   */\n      swap1\n      pop\n        /* \"#utility.yul\":31363:31417   */\n      swap2\n      swap1\n      pop\n      jump\t// out\n        /* \"#utility.yul\":31423:31517   */\n    tag_694:\n      0x00\n        /* \"#utility.yul\":31504:31509   */\n      dup2\n        /* \"#utility.yul\":31500:31502   */\n      0x60\n        /* \"#utility.yul\":31496:31510   */\n      shl\n        /* \"#utility.yul\":31475:31510   */\n      swap1\n      pop\n        /* \"#utility.yul\":31465:31517   */\n      swap2\n      swap1\n      pop\n      jump\t// out\n        /* \"#utility.yul\":31523:31705   */\n    tag_489:\n        /* \"#utility.yul\":31663:31697   */\n      0x537472696e67733a20686578206c656e67746820696e73756666696369656e74\n        /* \"#utility.yul\":31659:31660   */\n      0x00\n        /* \"#utility.yul\":31651:31657   */\n      dup3\n        /* \"#utility.yul\":31647:31661   */\n      add\n        /* \"#utility.yul\":31640:31698   */\n      mstore\n        /* \"#utility.yul\":31629:31705   */\n      pop\n      jump\t// out\n        /* \"#utility.yul\":31711:31869   */\n    tag_494:\n        /* \"#utility.yul\":31851:31861   */\n      0x4164647265737320000000000000000000000000000000000000000000000000\n        /* \"#utility.yul\":31847:31848   */\n      0x00\n        /* \"#utility.yul\":31839:31845   */\n      dup3\n        /* \"#utility.yul\":31835:31849   */\n      add\n        /* \"#utility.yul\":31828:31862   */\n      mstore\n        /* \"#utility.yul\":31817:31869   */\n      pop\n      jump\t// out\n        /* \"#utility.yul\":31875:32116   */\n    tag_499:\n        /* \"#utility.yul\":32015:32049   */\n      0x43616e6e6f74206d696e7420746f207472656173757279206164647265737320\n        /* \"#utility.yul\":32011:32012   */\n      0x00\n        /* \"#utility.yul\":32003:32009   */\n      dup3\n        /* \"#utility.yul\":31999:32013   */\n      add\n        /* \"#utility.yul\":31992:32050   */\n      mstore\n        /* \"#utility.yul\":32084:32108   */\n      0x756e74696c2073616c652069732066696e697368656400000000000000000000\n        /* \"#utility.yul\":32079:32081   */\n      0x20\n        /* \"#utility.yul\":32071:32077   */\n      dup3\n        /* \"#utility.yul\":32067:32082   */\n      add\n        /* \"#utility.yul\":32060:32109   */\n      mstore\n        /* \"#utility.yul\":31981:32116   */\n      pop\n      jump\t// out\n        /* \"#utility.yul\":32122:32299   */\n    tag_504:\n        /* \"#utility.yul\":32262:32291   */\n      0x74696d657374616d70206973206e6f742075702d746f2d646174650000000000\n        /* \"#utility.yul\":32258:32259   */\n      0x00\n        /* \"#utility.yul\":32250:32256   */\n      dup3\n        /* \"#utility.yul\":32246:32260   */\n      add\n        /* \"#utility.yul\":32239:32292   */\n      mstore\n        /* \"#utility.yul\":32228:32299   */\n      pop\n      jump\t// out\n        /* \"#utility.yul\":32305:32527   */\n    tag_509:\n        /* \"#utility.yul\":32445:32479   */\n      0x53656e646572206973206e6f742053616c65204d616e61676572206f72204164\n        /* \"#utility.yul\":32441:32442   */\n      0x00\n        /* \"#utility.yul\":32433:32439   */\n      dup3\n        /* \"#utility.yul\":32429:32443   */\n      add\n        /* \"#utility.yul\":32422:32480   */\n      mstore\n        /* \"#utility.yul\":32514:32519   */\n      0x6d696e0000000000000000000000000000000000000000000000000000000000\n        /* \"#utility.yul\":32509:32511   */\n      0x20\n        /* \"#utility.yul\":32501:32507   */\n      dup3\n        /* \"#utility.yul\":32497:32512   */\n      add\n        /* \"#utility.yul\":32490:32520   */\n      mstore\n        /* \"#utility.yul\":32411:32527   */\n      pop\n      jump\t// out\n        /* \"#utility.yul\":32533:32684   */\n    tag_514:\n        /* \"#utility.yul\":32673:32676   */\n      0x2500000000000000000000000000000000000000000000000000000000000000\n        /* \"#utility.yul\":32669:32670   */\n      0x00\n        /* \"#utility.yul\":32661:32667   */\n      dup3\n        /* \"#utility.yul\":32657:32671   */\n      add\n        /* \"#utility.yul\":32650:32677   */\n      mstore\n        /* \"#utility.yul\":32639:32684   */\n      pop\n      jump\t// out\n        /* \"#utility.yul\":32690:32925   */\n    tag_519:\n        /* \"#utility.yul\":32830:32864   */\n      0x20646f6573206e6f742068617665206120636f75706f6e207769746820612064\n        /* \"#utility.yul\":32826:32827   */\n      0x00\n        /* \"#utility.yul\":32818:32824   */\n      dup3\n        /* \"#utility.yul\":32814:32828   */\n      add\n        /* \"#utility.yul\":32807:32865   */\n      mstore\n        /* \"#utility.yul\":32899:32917   */\n      0x6973636f756e742072617465206f662000000000000000000000000000000000\n        /* \"#utility.yul\":32894:32896   */\n      0x20\n        /* \"#utility.yul\":32886:32892   */\n      dup3\n        /* \"#utility.yul\":32882:32897   */\n      add\n        /* \"#utility.yul\":32875:32918   */\n      mstore\n        /* \"#utility.yul\":32796:32925   */\n      pop\n      jump\t// out\n        /* \"#utility.yul\":32931:33112   */\n    tag_524:\n        /* \"#utility.yul\":33071:33104   */\n      0x737461727454696d65206973206c61746572207468616e20656e6454696d6500\n        /* \"#utility.yul\":33067:33068   */\n      0x00\n        /* \"#utility.yul\":33059:33065   */\n      dup3\n        /* \"#utility.yul\":33055:33069   */\n      add\n        /* \"#utility.yul\":33048:33105   */\n      mstore\n        /* \"#utility.yul\":33037:33112   */\n      pop\n      jump\t// out\n        /* \"#utility.yul\":33118:33291   */\n    tag_529:\n        /* \"#utility.yul\":33258:33283   */\n      0x416363657373436f6e74726f6c3a206163636f756e7420000000000000000000\n        /* \"#utility.yul\":33254:33255   */\n      0x00\n        /* \"#utility.yul\":33246:33252   */\n      dup3\n        /* \"#utility.yul\":33242:33256   */\n      add\n        /* \"#utility.yul\":33235:33284   */\n      mstore\n        /* \"#utility.yul\":33224:33291   */\n      pop\n      jump\t// out\n        /* \"#utility.yul\":33297:33464   */\n    tag_534:\n        /* \"#utility.yul\":33437:33456   */\n      0x206973206d697373696e6720726f6c6520000000000000000000000000000000\n        /* \"#utility.yul\":33433:33434   */\n      0x00\n        /* \"#utility.yul\":33425:33431   */\n      dup3\n        /* \"#utility.yul\":33421:33435   */\n      add\n        /* \"#utility.yul\":33414:33457   */\n      mstore\n        /* \"#utility.yul\":33403:33464   */\n      pop\n      jump\t// out\n        /* \"#utility.yul\":33470:33704   */\n    tag_539:\n        /* \"#utility.yul\":33610:33644   */\n      0x416363657373436f6e74726f6c3a2063616e206f6e6c792072656e6f756e6365\n        /* \"#utility.yul\":33606:33607   */\n      0x00\n        /* \"#utility.yul\":33598:33604   */\n      dup3\n        /* \"#utility.yul\":33594:33608   */\n      add\n        /* \"#utility.yul\":33587:33645   */\n      mstore\n        /* \"#utility.yul\":33679:33696   */\n      0x20726f6c657320666f722073656c660000000000000000000000000000000000\n        /* \"#utility.yul\":33674:33676   */\n      0x20\n        /* \"#utility.yul\":33666:33672   */\n      dup3\n        /* \"#utility.yul\":33662:33677   */\n      add\n        /* \"#utility.yul\":33655:33697   */\n      mstore\n        /* \"#utility.yul\":33576:33704   */\n      pop\n      jump\t// out\n        /* \"#utility.yul\":33710:33832   */\n    tag_336:\n        /* \"#utility.yul\":33783:33807   */\n      tag_713\n        /* \"#utility.yul\":33801:33806   */\n      dup2\n        /* \"#utility.yul\":33783:33807   */\n      tag_409\n      jump\t// in\n    tag_713:\n        /* \"#utility.yul\":33776:33781   */\n      dup2\n        /* \"#utility.yul\":33773:33808   */\n      eq\n        /* \"#utility.yul\":33763:33765   */\n      tag_714\n      jumpi\n        /* \"#utility.yul\":33822:33823   */\n      0x00\n        /* \"#utility.yul\":33819:33820   */\n      dup1\n        /* \"#utility.yul\":33812:33824   */\n      revert\n        /* \"#utility.yul\":33763:33765   */\n    tag_714:\n        /* \"#utility.yul\":33753:33832   */\n      pop\n      jump\t// out\n        /* \"#utility.yul\":33838:33954   */\n    tag_348:\n        /* \"#utility.yul\":33908:33929   */\n      tag_716\n        /* \"#utility.yul\":33923:33928   */\n      dup2\n        /* \"#utility.yul\":33908:33929   */\n      tag_446\n      jump\t// in\n    tag_716:\n        /* \"#utility.yul\":33901:33906   */\n      dup2\n        /* \"#utility.yul\":33898:33930   */\n      eq\n        /* \"#utility.yul\":33888:33890   */\n      tag_717\n      jumpi\n        /* \"#utility.yul\":33944:33945   */\n      0x00\n        /* \"#utility.yul\":33941:33942   */\n      dup1\n        /* \"#utility.yul\":33934:33946   */\n      revert\n        /* \"#utility.yul\":33888:33890   */\n    tag_717:\n        /* \"#utility.yul\":33878:33954   */\n      pop\n      jump\t// out\n        /* \"#utility.yul\":33960:34082   */\n    tag_352:\n        /* \"#utility.yul\":34033:34057   */\n      tag_719\n        /* \"#utility.yul\":34051:34056   */\n      dup2\n        /* \"#utility.yul\":34033:34057   */\n      tag_450\n      jump\t// in\n    tag_719:\n        /* \"#utility.yul\":34026:34031   */\n      dup2\n        /* \"#utility.yul\":34023:34058   */\n      eq\n        /* \"#utility.yul\":34013:34015   */\n      tag_720\n      jumpi\n        /* \"#utility.yul\":34072:34073   */\n      0x00\n        /* \"#utility.yul\":34069:34070   */\n      dup1\n        /* \"#utility.yul\":34062:34074   */\n      revert\n        /* \"#utility.yul\":34013:34015   */\n    tag_720:\n        /* \"#utility.yul\":34003:34082   */\n      pop\n      jump\t// out\n        /* \"#utility.yul\":34088:34208   */\n    tag_356:\n        /* \"#utility.yul\":34160:34183   */\n      tag_722\n        /* \"#utility.yul\":34177:34182   */\n      dup2\n        /* \"#utility.yul\":34160:34183   */\n      tag_656\n      jump\t// in\n    tag_722:\n        /* \"#utility.yul\":34153:34158   */\n      dup2\n        /* \"#utility.yul\":34150:34184   */\n      eq\n        /* \"#utility.yul\":34140:34142   */\n      tag_723\n      jumpi\n        /* \"#utility.yul\":34198:34199   */\n      0x00\n        /* \"#utility.yul\":34195:34196   */\n      dup1\n        /* \"#utility.yul\":34188:34200   */\n      revert\n        /* \"#utility.yul\":34140:34142   */\n    tag_723:\n        /* \"#utility.yul\":34130:34208   */\n      pop\n      jump\t// out\n        /* \"#utility.yul\":34214:34336   */\n    tag_362:\n        /* \"#utility.yul\":34287:34311   */\n      tag_725\n        /* \"#utility.yul\":34305:34310   */\n      dup2\n        /* \"#utility.yul\":34287:34311   */\n      tag_542\n      jump\t// in\n    tag_725:\n        /* \"#utility.yul\":34280:34285   */\n      dup2\n        /* \"#utility.yul\":34277:34312   */\n      eq\n        /* \"#utility.yul\":34267:34269   */\n      tag_726\n      jumpi\n        /* \"#utility.yul\":34326:34327   */\n      0x00\n        /* \"#utility.yul\":34323:34324   */\n      dup1\n        /* \"#utility.yul\":34316:34328   */\n      revert\n        /* \"#utility.yul\":34267:34269   */\n    tag_726:\n        /* \"#utility.yul\":34257:34336   */\n      pop\n      jump\t// out\n\n    auxdata: 0xa2646970667358221220c23bf13cd3cc901427646d374735dabab6c4ff9fa9aa16b7a73c48c608bfbbe264736f6c63430008010033\n}\n",
				"bytecode": {
					"linkReferences": {},
					"object": "60806040526370dc49006005556370dc4964600655620f4240600a620000269190620000aa565b600755620f424060016200003b9190620000aa565b60085560405180606001604052806127108152602001428152602001600015158152506009600082015181600001556020820151816001015560408201518160020160006101000a81548160ff0219169083151502179055505050348015620000a357600080fd5b5062000144565b6000620000b7826200010b565b9150620000c4836200010b565b9250817fffffffffffffffffffffffffffffffffffffffffffffffffffffffffffffffff04831182151516156200010057620000ff62000115565b5b828202905092915050565b6000819050919050565b7f4e487b7100000000000000000000000000000000000000000000000000000000600052601160045260246000fd5b61289080620001546000396000f3fe608060405234801561001057600080fd5b50600436106101585760003560e01c806391232f18116100c3578063c04637111161007c578063c04637111461038f578063c5dae48f146103af578063c5f956af146103cd578063ccb98ffc146103eb578063d547741f14610407578063f121da921461042357610158565b806391232f18146102e157806391d14854146102eb578063944044a11461031b578063a217fddf14610337578063ab6c030614610355578063bff29cee1461038557610158565b806351f7598c1161011557806351f7598c1461022f578063551b42a81461024b5780635ce7e72114610269578063682d07d91461028757806368fc01a2146102a55780638c83faeb146102c357610158565b806301ffc9a71461015d578063248a9ca31461018d5780632f2ff15d146101bd57806336568abe146101d95780634c0f38c2146101f55780634c9b73da14610213575b600080fd5b610177600480360381019061017291906119be565b61043f565b6040516101849190611f04565b60405180910390f35b6101a760048036038101906101a29190611959565b6104b9565b6040516101b49190611f1f565b60405180910390f35b6101d760048036038101906101d29190611982565b6104d8565b005b6101f360048036038101906101ee9190611982565b610501565b005b6101fd610584565b60405161020a919061206d565b60405180910390f35b61022d600480360381019061022891906119e7565b61062b565b005b6102496004803603810190610244919061185f565b61064e565b005b6102536106a8565b6040516102609190611f1f565b60405180910390f35b6102716106cc565b60405161027e9190611f55565b60405180910390f35b61028f6106f2565b60405161029c9190611f1f565b60405180910390f35b6102ad610716565b6040516102ba919061206d565b60405180910390f35b6102cb6107bd565b6040516102d89190611f3a565b60405180910390f35b6102e96107e3565b005b61030560048036038101906103009190611982565b6108ff565b6040516103129190611f04565b60405180910390f35b610335600480360381019061033091906119e7565b610969565b005b61033f6109fe565b60405161034c9190611f1f565b60405180910390f35b61036f600480360381019061036a9190611888565b610a05565b60405161037c919061206d565b60405180910390f35b61038d610b96565b005b610397610bb4565b6040516103a693929190612088565b60405180910390f35b6103b7610bd9565b6040516103c49190611f70565b60405180910390f35b6103d5610bff565b6040516103e29190611e89565b60405180910390f35b610405600480360381019061040091906119e7565b610c25565b005b610421600480360381019061041c9190611982565b610cba565b005b61043d600480360381019061043891906118c4565b610ce3565b005b60007f7965db0b000000000000000000000000000000000000000000000000000000007bffffffffffffffffffffffffffffffffffffffffffffffffffffffff1916827bffffffffffffffffffffffffffffffffffffffffffffffffffffffff191614806104b257506104b182610d76565b5b9050919050565b6000806000838152602001908152602001600020600101549050919050565b6104e1826104b9565b6104f2816104ed610de0565b610de8565b6104fc8383610e85565b505050565b610509610de0565b73ffffffffffffffffffffffffffffffffffffffff168173ffffffffffffffffffffffffffffffffffffffff1614610576576040517f08c379a000000000000000000000000000000000000000000000000000000000815260040161056d9061204d565b60405180910390fd5b6105808282610f65565b5050565b6000600160009054906101000a900473ffffffffffffffffffffffffffffffffffffffff1673ffffffffffffffffffffffffffffffffffffffff16634c0f38c26040518163ffffffff1660e01b815260040160206040518083038186803b1580156105ee57600080fd5b505afa158015610602573d6000803e3d6000fd5b505050506040513d601f19601f820116820180604052508101906106269190611a10565b905090565b610633611046565b600061063f3383610a05565b905061064a8161113e565b5050565b6000801b6106638161065e610de0565b610de8565b81600160006101000a81548173ffffffffffffffffffffffffffffffffffffffff021916908373ffffffffffffffffffffffffffffffffffffffff1602179055505050565b7f988301af8238f779281a300de031815cd01b48e9f1ae47a0f91ed6584213624a81565b600260009054906101000a900473ffffffffffffffffffffffffffffffffffffffff1681565b7fa70a2d8710fed9f014c8c2af50c7c2f6b25748ae4cded822e03b7beed44cf3a881565b6000600160009054906101000a900473ffffffffffffffffffffffffffffffffffffffff1673ffffffffffffffffffffffffffffffffffffffff166368fc01a26040518163ffffffff1660e01b815260040160206040518083038186803b15801561078057600080fd5b505afa158015610794573d6000803e3d6000fd5b505050506040513d601f19601f820116820180604052508101906107b89190611a10565b905090565b600160009054906101000a900473ffffffffffffffffffffffffffffffffffffffff1681565b426009600101541461082a576040517f08c379a000000000000000000000000000000000000000000000000000000000815260040161082190611fed565b60405180910390fd5b6006544211801561084b5750600960020160009054906101000a900460ff16155b61088a576040517f08c379a000000000000000000000000000000000000000000000000000000000815260040161088190611fcd565b60405180910390fd5b60006001610896610716565b6108a091906122f8565b6108a8610584565b6108b291906122f8565b90505b60008111156108fc576108e9600460009054906101000a900473ffffffffffffffffffffffffffffffffffffffff166111d9565b80806108f490612458565b9150506108b5565b50565b600080600084815260200190815260200160002060000160008373ffffffffffffffffffffffffffffffffffffffff1673ffffffffffffffffffffffffffffffffffffffff16815260200190815260200160002060009054906101000a900460ff16905092915050565b61099a7f988301af8238f779281a300de031815cd01b48e9f1ae47a0f91ed6584213624a610995610de0565b6108ff565b806109b557506109b46000801b6109af610de0565b6108ff565b5b6109f4576040517f08c379a00000000000000000000000000000000000000000000000000000000081526004016109eb9061200d565b60405180910390fd5b8060058190555050565b6000801b81565b60004260096001015414610a4e576040517f08c379a0000000000000000000000000000000000000000000000000000000008152600401610a4590611fed565b60405180910390fd5b600260009054906101000a900473ffffffffffffffffffffffffffffffffffffffff1673ffffffffffffffffffffffffffffffffffffffff16632080179d84846040518363ffffffff1660e01b8152600401610aab929190611ea4565b60206040518083038186803b158015610ac357600080fd5b505afa158015610ad7573d6000803e3d6000fd5b505050506040513d601f19601f82011682018060405250810190610afb9190611930565b8383604051602001610b0e929190611e02565b60405160208183030381529060405290610b5e576040517f08c379a0000000000000000000000000000000000000000000000000000000008152600401610b559190611f8b565b60405180910390fd5b506000826064610b6e91906122f8565b6064600960000154610b80919061226d565b610b8a919061229e565b90508091505092915050565b610b9e611046565b60006009600001549050610bb18161113e565b50565b60098060000154908060010154908060020160009054906101000a900460ff16905083565b600360009054906101000a900473ffffffffffffffffffffffffffffffffffffffff1681565b600460009054906101000a900473ffffffffffffffffffffffffffffffffffffffff1681565b610c567f988301af8238f779281a300de031815cd01b48e9f1ae47a0f91ed6584213624a610c51610de0565b6108ff565b80610c715750610c706000801b610c6b610de0565b6108ff565b5b610cb0576040517f08c379a0000000000000000000000000000000000000000000000000000000008152600401610ca79061200d565b60405180910390fd5b8060068190555050565b610cc3826104b9565b610cd481610ccf610de0565b610de8565b610cde8383610f65565b505050565b600160009054906101000a900473ffffffffffffffffffffffffffffffffffffffff1673ffffffffffffffffffffffffffffffffffffffff1663f121da9283836040518363ffffffff1660e01b8152600401610d40929190611ecd565b600060405180830381600087803b158015610d5a57600080fd5b505af1158015610d6e573d6000803e3d6000fd5b505050505050565b60007f01ffc9a7000000000000000000000000000000000000000000000000000000007bffffffffffffffffffffffffffffffffffffffffffffffffffffffff1916827bffffffffffffffffffffffffffffffffffffffffffffffffffffffff1916149050919050565b600033905090565b610df282826108ff565b610e8157610e178173ffffffffffffffffffffffffffffffffffffffff166014611362565b610e258360001c6020611362565b604051602001610e36929190611e4f565b6040516020818303038152906040526040517f08c379a0000000000000000000000000000000000000000000000000000000008152600401610e789190611f8b565b60405180910390fd5b5050565b610e8f82826108ff565b610f6157600160008084815260200190815260200160002060000160008373ffffffffffffffffffffffffffffffffffffffff1673ffffffffffffffffffffffffffffffffffffffff16815260200190815260200160002060006101000a81548160ff021916908315150217905550610f06610de0565b73ffffffffffffffffffffffffffffffffffffffff168173ffffffffffffffffffffffffffffffffffffffff16837f2f8788117e7eff1d82e926ec794901d17c78024a50270940304540a733656f0d60405160405180910390a45b5050565b610f6f82826108ff565b1561104257600080600084815260200190815260200160002060000160008373ffffffffffffffffffffffffffffffffffffffff1673ffffffffffffffffffffffffffffffffffffffff16815260200190815260200160002060006101000a81548160ff021916908315150217905550610fe7610de0565b73ffffffffffffffffffffffffffffffffffffffff168173ffffffffffffffffffffffffffffffffffffffff16837ff6391f5c32d9c69d2a47ea670b442974b53935d1edc7fd64eb21e047a839171b60405160405180910390a45b5050565b600654600554111561108d576040517f08c379a00000000000000000000000000000000000000000000000000000000081526004016110849061202d565b60405180910390fd5b620f4240600161109d919061229e565b603c600554426110ad91906122f8565b6110b7919061226d565b6110c1919061229e565b6007546110ce91906122f8565b6009600001819055504260096001018190555060055442101580156110f557506006544211155b1561111d576001600960020160006101000a81548160ff02191690831515021790555061113c565b6000600960020160006101000a81548160ff0219169083151502179055505b565b600360009054906101000a900473ffffffffffffffffffffffffffffffffffffffff1673ffffffffffffffffffffffffffffffffffffffff1663532b291333836040518363ffffffff1660e01b815260040161119b929190611ea4565b600060405180830381600087803b1580156111b557600080fd5b505af11580156111c9573d6000803e3d6000fd5b505050506111d6336111d9565b50565b600160009054906101000a900473ffffffffffffffffffffffffffffffffffffffff1673ffffffffffffffffffffffffffffffffffffffff166355676590826040518263ffffffff1660e01b81526004016112349190611e89565b600060405180830381600087803b15801561124e57600080fd5b505af1158015611262573d6000803e3d6000fd5b5050505060606040518060400160405280600181526020017f4a00000000000000000000000000000000000000000000000000000000000000815250816000815181106112d8577f4e487b7100000000000000000000000000000000000000000000000000000000600052603260045260246000fd5b60200260200101819052506040518060400160405280600181526020017f4b0000000000000000000000000000000000000000000000000000000000000081525081600181518110611353577f4e487b7100000000000000000000000000000000000000000000000000000000600052603260045260246000fd5b60200260200101819052505050565b606060006002836002611375919061229e565b61137f9190612217565b67ffffffffffffffff8111156113be577f4e487b7100000000000000000000000000000000000000000000000000000000600052604160045260246000fd5b6040519080825280601f01601f1916602001820160405280156113f05781602001600182028036833780820191505090505b5090507f30000000000000000000000000000000000000000000000000000000000000008160008151811061144e577f4e487b7100000000000000000000000000000000000000000000000000000000600052603260045260246000fd5b60200101907effffffffffffffffffffffffffffffffffffffffffffffffffffffffffffff1916908160001a9053507f7800000000000000000000000000000000000000000000000000000000000000816001815181106114d8577f4e487b7100000000000000000000000000000000000000000000000000000000600052603260045260246000fd5b60200101907effffffffffffffffffffffffffffffffffffffffffffffffffffffffffffff1916908160001a90535060006001846002611518919061229e565b6115229190612217565b90505b600181111561160e577f3031323334353637383961626364656600000000000000000000000000000000600f86166010811061158a577f4e487b7100000000000000000000000000000000000000000000000000000000600052603260045260246000fd5b1a60f81b8282815181106115c7577f4e487b7100000000000000000000000000000000000000000000000000000000600052603260045260246000fd5b60200101907effffffffffffffffffffffffffffffffffffffffffffffffffffffffffffff1916908160001a905350600485901c94508061160790612458565b9050611525565b5060008414611652576040517f08c379a000000000000000000000000000000000000000000000000000000000815260040161164990611fad565b60405180910390fd5b8091505092915050565b600061166f61166a846120e4565b6120bf565b9050808382526020820190508260005b858110156116af5781358501611695888261180b565b84526020840193506020830192505060018101905061167f565b5050509392505050565b60006116cc6116c784612110565b6120bf565b905080838252602082019050828560208602820111156116eb57600080fd5b60005b8581101561171b57816117018882611835565b8452602084019350602083019250506001810190506116ee565b5050509392505050565b60006117386117338461213c565b6120bf565b90508281526020810184848401111561175057600080fd5b61175b848285612416565b509392505050565b600081359050611772816127e7565b92915050565b600082601f83011261178957600080fd5b813561179984826020860161165c565b91505092915050565b600082601f8301126117b357600080fd5b81356117c38482602086016116b9565b91505092915050565b6000815190506117db816127fe565b92915050565b6000813590506117f081612815565b92915050565b6000813590506118058161282c565b92915050565b600082601f83011261181c57600080fd5b813561182c848260208601611725565b91505092915050565b60008135905061184481612843565b92915050565b60008151905061185981612843565b92915050565b60006020828403121561187157600080fd5b600061187f84828501611763565b91505092915050565b6000806040838503121561189b57600080fd5b60006118a985828601611763565b92505060206118ba85828601611835565b9150509250929050565b600080604083850312156118d757600080fd5b600083013567ffffffffffffffff8111156118f157600080fd5b6118fd858286016117a2565b925050602083013567ffffffffffffffff81111561191a57600080fd5b61192685828601611778565b9150509250929050565b60006020828403121561194257600080fd5b6000611950848285016117cc565b91505092915050565b60006020828403121561196b57600080fd5b6000611979848285016117e1565b91505092915050565b6000806040838503121561199557600080fd5b60006119a3858286016117e1565b92505060206119b485828601611763565b9150509250929050565b6000602082840312156119d057600080fd5b60006119de848285016117f6565b91505092915050565b6000602082840312156119f957600080fd5b6000611a0784828501611835565b91505092915050565b600060208284031215611a2257600080fd5b6000611a308482850161184a565b91505092915050565b6000611a458383611ba9565b905092915050565b6000611a598383611dcd565b60208301905092915050565b611a6e8161232c565b82525050565b611a85611a808261232c565b6124b3565b82525050565b6000611a968261218d565b611aa081856121c8565b935083602082028501611ab28561216d565b8060005b85811015611aee5784840389528151611acf8582611a39565b9450611ada836121ae565b925060208a01995050600181019050611ab6565b50829750879550505050505092915050565b6000611b0b82612198565b611b1581856121d9565b9350611b208361217d565b8060005b83811015611b51578151611b388882611a4d565b9750611b43836121bb565b925050600181019050611b24565b5085935050505092915050565b611b678161233e565b82525050565b611b768161234a565b82525050565b611b85816123aa565b82525050565b611b94816123ce565b82525050565b611ba3816123f2565b82525050565b6000611bb4826121a3565b611bbe81856121ea565b9350611bce818560208601612425565b611bd78161256e565b840191505092915050565b6000611bed826121a3565b611bf781856121fb565b9350611c07818560208601612425565b611c108161256e565b840191505092915050565b6000611c26826121a3565b611c30818561220c565b9350611c40818560208601612425565b80840191505092915050565b6000611c596020836121fb565b9150611c648261258c565b602082019050919050565b6000611c7c60088361220c565b9150611c87826125b5565b600882019050919050565b6000611c9f6036836121fb565b9150611caa826125de565b604082019050919050565b6000611cc2601b836121fb565b9150611ccd8261262d565b602082019050919050565b6000611ce56023836121fb565b9150611cf082612656565b604082019050919050565b6000611d0860018361220c565b9150611d13826126a5565b600182019050919050565b6000611d2b60308361220c565b9150611d36826126ce565b603082019050919050565b6000611d4e601f836121fb565b9150611d598261271d565b602082019050919050565b6000611d7160178361220c565b9150611d7c82612746565b601782019050919050565b6000611d9460118361220c565b9150611d9f8261276f565b601182019050919050565b6000611db7602f836121fb565b9150611dc282612798565b604082019050919050565b611dd6816123a0565b82525050565b611de5816123a0565b82525050565b611dfc611df7826123a0565b6124d7565b82525050565b6000611e0d82611c6f565b9150611e198285611a74565b601482019150611e2882611d1e565b9150611e348284611deb565b602082019150611e4382611cfb565b91508190509392505050565b6000611e5a82611d64565b9150611e668285611c1b565b9150611e7182611d87565b9150611e7d8284611c1b565b91508190509392505050565b6000602082019050611e9e6000830184611a65565b92915050565b6000604082019050611eb96000830185611a65565b611ec66020830184611ddc565b9392505050565b60006040820190508181036000830152611ee78185611b00565b90508181036020830152611efb8184611a8b565b90509392505050565b6000602082019050611f196000830184611b5e565b92915050565b6000602082019050611f346000830184611b6d565b92915050565b6000602082019050611f4f6000830184611b7c565b92915050565b6000602082019050611f6a6000830184611b8b565b92915050565b6000602082019050611f856000830184611b9a565b92915050565b60006020820190508181036000830152611fa58184611be2565b905092915050565b60006020820190508181036000830152611fc681611c4c565b9050919050565b60006020820190508181036000830152611fe681611c92565b9050919050565b6000602082019050818103600083015261200681611cb5565b9050919050565b6000602082019050818103600083015261202681611cd8565b9050919050565b6000602082019050818103600083015261204681611d41565b9050919050565b6000602082019050818103600083015261206681611daa565b9050919050565b60006020820190506120826000830184611ddc565b92915050565b600060608201905061209d6000830186611ddc565b6120aa6020830185611ddc565b6120b76040830184611b5e565b949350505050565b60006120c96120da565b90506120d58282612482565b919050565b6000604051905090565b600067ffffffffffffffff8211156120ff576120fe61253f565b5b602082029050602081019050919050565b600067ffffffffffffffff82111561212b5761212a61253f565b5b602082029050602081019050919050565b600067ffffffffffffffff8211156121575761215661253f565b5b6121608261256e565b9050602081019050919050565b6000819050602082019050919050565b6000819050602082019050919050565b600081519050919050565b600081519050919050565b600081519050919050565b6000602082019050919050565b6000602082019050919050565b600082825260208201905092915050565b600082825260208201905092915050565b600082825260208201905092915050565b600082825260208201905092915050565b600081905092915050565b6000612222826123a0565b915061222d836123a0565b9250827fffffffffffffffffffffffffffffffffffffffffffffffffffffffffffffffff03821115612262576122616124e1565b5b828201905092915050565b6000612278826123a0565b9150612283836123a0565b92508261229357612292612510565b5b828204905092915050565b60006122a9826123a0565b91506122b4836123a0565b9250817fffffffffffffffffffffffffffffffffffffffffffffffffffffffffffffffff04831182151516156122ed576122ec6124e1565b5b828202905092915050565b6000612303826123a0565b915061230e836123a0565b925082821015612321576123206124e1565b5b828203905092915050565b600061233782612380565b9050919050565b60008115159050919050565b6000819050919050565b60007fffffffff0000000000000000000000000000000000000000000000000000000082169050919050565b600073ffffffffffffffffffffffffffffffffffffffff82169050919050565b6000819050919050565b60006123b5826123bc565b9050919050565b60006123c782612380565b9050919050565b60006123d9826123e0565b9050919050565b60006123eb82612380565b9050919050565b60006123fd82612404565b9050919050565b600061240f82612380565b9050919050565b82818337600083830152505050565b60005b83811015612443578082015181840152602081019050612428565b83811115612452576000848401525b50505050565b6000612463826123a0565b91506000821415612477576124766124e1565b5b600182039050919050565b61248b8261256e565b810181811067ffffffffffffffff821117156124aa576124a961253f565b5b80604052505050565b60006124be826124c5565b9050919050565b60006124d08261257f565b9050919050565b6000819050919050565b7f4e487b7100000000000000000000000000000000000000000000000000000000600052601160045260246000fd5b7f4e487b7100000000000000000000000000000000000000000000000000000000600052601260045260246000fd5b7f4e487b7100000000000000000000000000000000000000000000000000000000600052604160045260246000fd5b6000601f19601f8301169050919050565b60008160601b9050919050565b7f537472696e67733a20686578206c656e67746820696e73756666696369656e74600082015250565b7f4164647265737320000000000000000000000000000000000000000000000000600082015250565b7f43616e6e6f74206d696e7420746f20747265617375727920616464726573732060008201527f756e74696c2073616c652069732066696e697368656400000000000000000000602082015250565b7f74696d657374616d70206973206e6f742075702d746f2d646174650000000000600082015250565b7f53656e646572206973206e6f742053616c65204d616e61676572206f7220416460008201527f6d696e0000000000000000000000000000000000000000000000000000000000602082015250565b7f2500000000000000000000000000000000000000000000000000000000000000600082015250565b7f20646f6573206e6f742068617665206120636f75706f6e20776974682061206460008201527f6973636f756e742072617465206f662000000000000000000000000000000000602082015250565b7f737461727454696d65206973206c61746572207468616e20656e6454696d6500600082015250565b7f416363657373436f6e74726f6c3a206163636f756e7420000000000000000000600082015250565b7f206973206d697373696e6720726f6c6520000000000000000000000000000000600082015250565b7f416363657373436f6e74726f6c3a2063616e206f6e6c792072656e6f756e636560008201527f20726f6c657320666f722073656c660000000000000000000000000000000000602082015250565b6127f08161232c565b81146127fb57600080fd5b50565b6128078161233e565b811461281257600080fd5b50565b61281e8161234a565b811461282957600080fd5b50565b61283581612354565b811461284057600080fd5b50565b61284c816123a0565b811461285757600080fd5b5056fea2646970667358221220c23bf13cd3cc901427646d374735dabab6c4ff9fa9aa16b7a73c48c608bfbbe264736f6c63430008010033",
					"opcodes": "PUSH1 0x80 PUSH1 0x40 MSTORE PUSH4 0x70DC4900 PUSH1 0x5 SSTORE PUSH4 0x70DC4964 PUSH1 0x6 SSTORE PUSH3 0xF4240 PUSH1 0xA PUSH3 0x26 SWAP2 SWAP1 PUSH3 0xAA JUMP JUMPDEST PUSH1 0x7 SSTORE PUSH3 0xF4240 PUSH1 0x1 PUSH3 0x3B SWAP2 SWAP1 PUSH3 0xAA JUMP JUMPDEST PUSH1 0x8 SSTORE PUSH1 0x40 MLOAD DUP1 PUSH1 0x60 ADD PUSH1 0x40 MSTORE DUP1 PUSH2 0x2710 DUP2 MSTORE PUSH1 0x20 ADD TIMESTAMP DUP2 MSTORE PUSH1 0x20 ADD PUSH1 0x0 ISZERO ISZERO DUP2 MSTORE POP PUSH1 0x9 PUSH1 0x0 DUP3 ADD MLOAD DUP2 PUSH1 0x0 ADD SSTORE PUSH1 0x20 DUP3 ADD MLOAD DUP2 PUSH1 0x1 ADD SSTORE PUSH1 0x40 DUP3 ADD MLOAD DUP2 PUSH1 0x2 ADD PUSH1 0x0 PUSH2 0x100 EXP DUP2 SLOAD DUP2 PUSH1 0xFF MUL NOT AND SWAP1 DUP4 ISZERO ISZERO MUL OR SWAP1 SSTORE POP POP POP CALLVALUE DUP1 ISZERO PUSH3 0xA3 JUMPI PUSH1 0x0 DUP1 REVERT JUMPDEST POP PUSH3 0x144 JUMP JUMPDEST PUSH1 0x0 PUSH3 0xB7 DUP3 PUSH3 0x10B JUMP JUMPDEST SWAP2 POP PUSH3 0xC4 DUP4 PUSH3 0x10B JUMP JUMPDEST SWAP3 POP DUP2 PUSH32 0xFFFFFFFFFFFFFFFFFFFFFFFFFFFFFFFFFFFFFFFFFFFFFFFFFFFFFFFFFFFFFFFF DIV DUP4 GT DUP3 ISZERO ISZERO AND ISZERO PUSH3 0x100 JUMPI PUSH3 0xFF PUSH3 0x115 JUMP JUMPDEST JUMPDEST DUP3 DUP3 MUL SWAP1 POP SWAP3 SWAP2 POP POP JUMP JUMPDEST PUSH1 0x0 DUP2 SWAP1 POP SWAP2 SWAP1 POP JUMP JUMPDEST PUSH32 0x4E487B7100000000000000000000000000000000000000000000000000000000 PUSH1 0x0 MSTORE PUSH1 0x11 PUSH1 0x4 MSTORE PUSH1 0x24 PUSH1 0x0 REVERT JUMPDEST PUSH2 0x2890 DUP1 PUSH3 0x154 PUSH1 0x0 CODECOPY PUSH1 0x0 RETURN INVALID PUSH1 0x80 PUSH1 0x40 MSTORE CALLVALUE DUP1 ISZERO PUSH2 0x10 JUMPI PUSH1 0x0 DUP1 REVERT JUMPDEST POP PUSH1 0x4 CALLDATASIZE LT PUSH2 0x158 JUMPI PUSH1 0x0 CALLDATALOAD PUSH1 0xE0 SHR DUP1 PUSH4 0x91232F18 GT PUSH2 0xC3 JUMPI DUP1 PUSH4 0xC0463711 GT PUSH2 0x7C JUMPI DUP1 PUSH4 0xC0463711 EQ PUSH2 0x38F JUMPI DUP1 PUSH4 0xC5DAE48F EQ PUSH2 0x3AF JUMPI DUP1 PUSH4 0xC5F956AF EQ PUSH2 0x3CD JUMPI DUP1 PUSH4 0xCCB98FFC EQ PUSH2 0x3EB JUMPI DUP1 PUSH4 0xD547741F EQ PUSH2 0x407 JUMPI DUP1 PUSH4 0xF121DA92 EQ PUSH2 0x423 JUMPI PUSH2 0x158 JUMP JUMPDEST DUP1 PUSH4 0x91232F18 EQ PUSH2 0x2E1 JUMPI DUP1 PUSH4 0x91D14854 EQ PUSH2 0x2EB JUMPI DUP1 PUSH4 0x944044A1 EQ PUSH2 0x31B JUMPI DUP1 PUSH4 0xA217FDDF EQ PUSH2 0x337 JUMPI DUP1 PUSH4 0xAB6C0306 EQ PUSH2 0x355 JUMPI DUP1 PUSH4 0xBFF29CEE EQ PUSH2 0x385 JUMPI PUSH2 0x158 JUMP JUMPDEST DUP1 PUSH4 0x51F7598C GT PUSH2 0x115 JUMPI DUP1 PUSH4 0x51F7598C EQ PUSH2 0x22F JUMPI DUP1 PUSH4 0x551B42A8 EQ PUSH2 0x24B JUMPI DUP1 PUSH4 0x5CE7E721 EQ PUSH2 0x269 JUMPI DUP1 PUSH4 0x682D07D9 EQ PUSH2 0x287 JUMPI DUP1 PUSH4 0x68FC01A2 EQ PUSH2 0x2A5 JUMPI DUP1 PUSH4 0x8C83FAEB EQ PUSH2 0x2C3 JUMPI PUSH2 0x158 JUMP JUMPDEST DUP1 PUSH4 0x1FFC9A7 EQ PUSH2 0x15D JUMPI DUP1 PUSH4 0x248A9CA3 EQ PUSH2 0x18D JUMPI DUP1 PUSH4 0x2F2FF15D EQ PUSH2 0x1BD JUMPI DUP1 PUSH4 0x36568ABE EQ PUSH2 0x1D9 JUMPI DUP1 PUSH4 0x4C0F38C2 EQ PUSH2 0x1F5 JUMPI DUP1 PUSH4 0x4C9B73DA EQ PUSH2 0x213 JUMPI JUMPDEST PUSH1 0x0 DUP1 REVERT JUMPDEST PUSH2 0x177 PUSH1 0x4 DUP1 CALLDATASIZE SUB DUP2 ADD SWAP1 PUSH2 0x172 SWAP2 SWAP1 PUSH2 0x19BE JUMP JUMPDEST PUSH2 0x43F JUMP JUMPDEST PUSH1 0x40 MLOAD PUSH2 0x184 SWAP2 SWAP1 PUSH2 0x1F04 JUMP JUMPDEST PUSH1 0x40 MLOAD DUP1 SWAP2 SUB SWAP1 RETURN JUMPDEST PUSH2 0x1A7 PUSH1 0x4 DUP1 CALLDATASIZE SUB DUP2 ADD SWAP1 PUSH2 0x1A2 SWAP2 SWAP1 PUSH2 0x1959 JUMP JUMPDEST PUSH2 0x4B9 JUMP JUMPDEST PUSH1 0x40 MLOAD PUSH2 0x1B4 SWAP2 SWAP1 PUSH2 0x1F1F JUMP JUMPDEST PUSH1 0x40 MLOAD DUP1 SWAP2 SUB SWAP1 RETURN JUMPDEST PUSH2 0x1D7 PUSH1 0x4 DUP1 CALLDATASIZE SUB DUP2 ADD SWAP1 PUSH2 0x1D2 SWAP2 SWAP1 PUSH2 0x1982 JUMP JUMPDEST PUSH2 0x4D8 JUMP JUMPDEST STOP JUMPDEST PUSH2 0x1F3 PUSH1 0x4 DUP1 CALLDATASIZE SUB DUP2 ADD SWAP1 PUSH2 0x1EE SWAP2 SWAP1 PUSH2 0x1982 JUMP JUMPDEST PUSH2 0x501 JUMP JUMPDEST STOP JUMPDEST PUSH2 0x1FD PUSH2 0x584 JUMP JUMPDEST PUSH1 0x40 MLOAD PUSH2 0x20A SWAP2 SWAP1 PUSH2 0x206D JUMP JUMPDEST PUSH1 0x40 MLOAD DUP1 SWAP2 SUB SWAP1 RETURN JUMPDEST PUSH2 0x22D PUSH1 0x4 DUP1 CALLDATASIZE SUB DUP2 ADD SWAP1 PUSH2 0x228 SWAP2 SWAP1 PUSH2 0x19E7 JUMP JUMPDEST PUSH2 0x62B JUMP JUMPDEST STOP JUMPDEST PUSH2 0x249 PUSH1 0x4 DUP1 CALLDATASIZE SUB DUP2 ADD SWAP1 PUSH2 0x244 SWAP2 SWAP1 PUSH2 0x185F JUMP JUMPDEST PUSH2 0x64E JUMP JUMPDEST STOP JUMPDEST PUSH2 0x253 PUSH2 0x6A8 JUMP JUMPDEST PUSH1 0x40 MLOAD PUSH2 0x260 SWAP2 SWAP1 PUSH2 0x1F1F JUMP JUMPDEST PUSH1 0x40 MLOAD DUP1 SWAP2 SUB SWAP1 RETURN JUMPDEST PUSH2 0x271 PUSH2 0x6CC JUMP JUMPDEST PUSH1 0x40 MLOAD PUSH2 0x27E SWAP2 SWAP1 PUSH2 0x1F55 JUMP JUMPDEST PUSH1 0x40 MLOAD DUP1 SWAP2 SUB SWAP1 RETURN JUMPDEST PUSH2 0x28F PUSH2 0x6F2 JUMP JUMPDEST PUSH1 0x40 MLOAD PUSH2 0x29C SWAP2 SWAP1 PUSH2 0x1F1F JUMP JUMPDEST PUSH1 0x40 MLOAD DUP1 SWAP2 SUB SWAP1 RETURN JUMPDEST PUSH2 0x2AD PUSH2 0x716 JUMP JUMPDEST PUSH1 0x40 MLOAD PUSH2 0x2BA SWAP2 SWAP1 PUSH2 0x206D JUMP JUMPDEST PUSH1 0x40 MLOAD DUP1 SWAP2 SUB SWAP1 RETURN JUMPDEST PUSH2 0x2CB PUSH2 0x7BD JUMP JUMPDEST PUSH1 0x40 MLOAD PUSH2 0x2D8 SWAP2 SWAP1 PUSH2 0x1F3A JUMP JUMPDEST PUSH1 0x40 MLOAD DUP1 SWAP2 SUB SWAP1 RETURN JUMPDEST PUSH2 0x2E9 PUSH2 0x7E3 JUMP JUMPDEST STOP JUMPDEST PUSH2 0x305 PUSH1 0x4 DUP1 CALLDATASIZE SUB DUP2 ADD SWAP1 PUSH2 0x300 SWAP2 SWAP1 PUSH2 0x1982 JUMP JUMPDEST PUSH2 0x8FF JUMP JUMPDEST PUSH1 0x40 MLOAD PUSH2 0x312 SWAP2 SWAP1 PUSH2 0x1F04 JUMP JUMPDEST PUSH1 0x40 MLOAD DUP1 SWAP2 SUB SWAP1 RETURN JUMPDEST PUSH2 0x335 PUSH1 0x4 DUP1 CALLDATASIZE SUB DUP2 ADD SWAP1 PUSH2 0x330 SWAP2 SWAP1 PUSH2 0x19E7 JUMP JUMPDEST PUSH2 0x969 JUMP JUMPDEST STOP JUMPDEST PUSH2 0x33F PUSH2 0x9FE JUMP JUMPDEST PUSH1 0x40 MLOAD PUSH2 0x34C SWAP2 SWAP1 PUSH2 0x1F1F JUMP JUMPDEST PUSH1 0x40 MLOAD DUP1 SWAP2 SUB SWAP1 RETURN JUMPDEST PUSH2 0x36F PUSH1 0x4 DUP1 CALLDATASIZE SUB DUP2 ADD SWAP1 PUSH2 0x36A SWAP2 SWAP1 PUSH2 0x1888 JUMP JUMPDEST PUSH2 0xA05 JUMP JUMPDEST PUSH1 0x40 MLOAD PUSH2 0x37C SWAP2 SWAP1 PUSH2 0x206D JUMP JUMPDEST PUSH1 0x40 MLOAD DUP1 SWAP2 SUB SWAP1 RETURN JUMPDEST PUSH2 0x38D PUSH2 0xB96 JUMP JUMPDEST STOP JUMPDEST PUSH2 0x397 PUSH2 0xBB4 JUMP JUMPDEST PUSH1 0x40 MLOAD PUSH2 0x3A6 SWAP4 SWAP3 SWAP2 SWAP1 PUSH2 0x2088 JUMP JUMPDEST PUSH1 0x40 MLOAD DUP1 SWAP2 SUB SWAP1 RETURN JUMPDEST PUSH2 0x3B7 PUSH2 0xBD9 JUMP JUMPDEST PUSH1 0x40 MLOAD PUSH2 0x3C4 SWAP2 SWAP1 PUSH2 0x1F70 JUMP JUMPDEST PUSH1 0x40 MLOAD DUP1 SWAP2 SUB SWAP1 RETURN JUMPDEST PUSH2 0x3D5 PUSH2 0xBFF JUMP JUMPDEST PUSH1 0x40 MLOAD PUSH2 0x3E2 SWAP2 SWAP1 PUSH2 0x1E89 JUMP JUMPDEST PUSH1 0x40 MLOAD DUP1 SWAP2 SUB SWAP1 RETURN JUMPDEST PUSH2 0x405 PUSH1 0x4 DUP1 CALLDATASIZE SUB DUP2 ADD SWAP1 PUSH2 0x400 SWAP2 SWAP1 PUSH2 0x19E7 JUMP JUMPDEST PUSH2 0xC25 JUMP JUMPDEST STOP JUMPDEST PUSH2 0x421 PUSH1 0x4 DUP1 CALLDATASIZE SUB DUP2 ADD SWAP1 PUSH2 0x41C SWAP2 SWAP1 PUSH2 0x1982 JUMP JUMPDEST PUSH2 0xCBA JUMP JUMPDEST STOP JUMPDEST PUSH2 0x43D PUSH1 0x4 DUP1 CALLDATASIZE SUB DUP2 ADD SWAP1 PUSH2 0x438 SWAP2 SWAP1 PUSH2 0x18C4 JUMP JUMPDEST PUSH2 0xCE3 JUMP JUMPDEST STOP JUMPDEST PUSH1 0x0 PUSH32 0x7965DB0B00000000000000000000000000000000000000000000000000000000 PUSH28 0xFFFFFFFFFFFFFFFFFFFFFFFFFFFFFFFFFFFFFFFFFFFFFFFFFFFFFFFF NOT AND DUP3 PUSH28 0xFFFFFFFFFFFFFFFFFFFFFFFFFFFFFFFFFFFFFFFFFFFFFFFFFFFFFFFF NOT AND EQ DUP1 PUSH2 0x4B2 JUMPI POP PUSH2 0x4B1 DUP3 PUSH2 0xD76 JUMP JUMPDEST JUMPDEST SWAP1 POP SWAP2 SWAP1 POP JUMP JUMPDEST PUSH1 0x0 DUP1 PUSH1 0x0 DUP4 DUP2 MSTORE PUSH1 0x20 ADD SWAP1 DUP2 MSTORE PUSH1 0x20 ADD PUSH1 0x0 KECCAK256 PUSH1 0x1 ADD SLOAD SWAP1 POP SWAP2 SWAP1 POP JUMP JUMPDEST PUSH2 0x4E1 DUP3 PUSH2 0x4B9 JUMP JUMPDEST PUSH2 0x4F2 DUP2 PUSH2 0x4ED PUSH2 0xDE0 JUMP JUMPDEST PUSH2 0xDE8 JUMP JUMPDEST PUSH2 0x4FC DUP4 DUP4 PUSH2 0xE85 JUMP JUMPDEST POP POP POP JUMP JUMPDEST PUSH2 0x509 PUSH2 0xDE0 JUMP JUMPDEST PUSH20 0xFFFFFFFFFFFFFFFFFFFFFFFFFFFFFFFFFFFFFFFF AND DUP2 PUSH20 0xFFFFFFFFFFFFFFFFFFFFFFFFFFFFFFFFFFFFFFFF AND EQ PUSH2 0x576 JUMPI PUSH1 0x40 MLOAD PUSH32 0x8C379A000000000000000000000000000000000000000000000000000000000 DUP2 MSTORE PUSH1 0x4 ADD PUSH2 0x56D SWAP1 PUSH2 0x204D JUMP JUMPDEST PUSH1 0x40 MLOAD DUP1 SWAP2 SUB SWAP1 REVERT JUMPDEST PUSH2 0x580 DUP3 DUP3 PUSH2 0xF65 JUMP JUMPDEST POP POP JUMP JUMPDEST PUSH1 0x0 PUSH1 0x1 PUSH1 0x0 SWAP1 SLOAD SWAP1 PUSH2 0x100 EXP SWAP1 DIV PUSH20 0xFFFFFFFFFFFFFFFFFFFFFFFFFFFFFFFFFFFFFFFF AND PUSH20 0xFFFFFFFFFFFFFFFFFFFFFFFFFFFFFFFFFFFFFFFF AND PUSH4 0x4C0F38C2 PUSH1 0x40 MLOAD DUP2 PUSH4 0xFFFFFFFF AND PUSH1 0xE0 SHL DUP2 MSTORE PUSH1 0x4 ADD PUSH1 0x20 PUSH1 0x40 MLOAD DUP1 DUP4 SUB DUP2 DUP7 DUP1 EXTCODESIZE ISZERO DUP1 ISZERO PUSH2 0x5EE JUMPI PUSH1 0x0 DUP1 REVERT JUMPDEST POP GAS STATICCALL ISZERO DUP1 ISZERO PUSH2 0x602 JUMPI RETURNDATASIZE PUSH1 0x0 DUP1 RETURNDATACOPY RETURNDATASIZE PUSH1 0x0 REVERT JUMPDEST POP POP POP POP PUSH1 0x40 MLOAD RETURNDATASIZE PUSH1 0x1F NOT PUSH1 0x1F DUP3 ADD AND DUP3 ADD DUP1 PUSH1 0x40 MSTORE POP DUP2 ADD SWAP1 PUSH2 0x626 SWAP2 SWAP1 PUSH2 0x1A10 JUMP JUMPDEST SWAP1 POP SWAP1 JUMP JUMPDEST PUSH2 0x633 PUSH2 0x1046 JUMP JUMPDEST PUSH1 0x0 PUSH2 0x63F CALLER DUP4 PUSH2 0xA05 JUMP JUMPDEST SWAP1 POP PUSH2 0x64A DUP2 PUSH2 0x113E JUMP JUMPDEST POP POP JUMP JUMPDEST PUSH1 0x0 DUP1 SHL PUSH2 0x663 DUP2 PUSH2 0x65E PUSH2 0xDE0 JUMP JUMPDEST PUSH2 0xDE8 JUMP JUMPDEST DUP2 PUSH1 0x1 PUSH1 0x0 PUSH2 0x100 EXP DUP2 SLOAD DUP2 PUSH20 0xFFFFFFFFFFFFFFFFFFFFFFFFFFFFFFFFFFFFFFFF MUL NOT AND SWAP1 DUP4 PUSH20 0xFFFFFFFFFFFFFFFFFFFFFFFFFFFFFFFFFFFFFFFF AND MUL OR SWAP1 SSTORE POP POP POP JUMP JUMPDEST PUSH32 0x988301AF8238F779281A300DE031815CD01B48E9F1AE47A0F91ED6584213624A DUP2 JUMP JUMPDEST PUSH1 0x2 PUSH1 0x0 SWAP1 SLOAD SWAP1 PUSH2 0x100 EXP SWAP1 DIV PUSH20 0xFFFFFFFFFFFFFFFFFFFFFFFFFFFFFFFFFFFFFFFF AND DUP2 JUMP JUMPDEST PUSH32 0xA70A2D8710FED9F014C8C2AF50C7C2F6B25748AE4CDED822E03B7BEED44CF3A8 DUP2 JUMP JUMPDEST PUSH1 0x0 PUSH1 0x1 PUSH1 0x0 SWAP1 SLOAD SWAP1 PUSH2 0x100 EXP SWAP1 DIV PUSH20 0xFFFFFFFFFFFFFFFFFFFFFFFFFFFFFFFFFFFFFFFF AND PUSH20 0xFFFFFFFFFFFFFFFFFFFFFFFFFFFFFFFFFFFFFFFF AND PUSH4 0x68FC01A2 PUSH1 0x40 MLOAD DUP2 PUSH4 0xFFFFFFFF AND PUSH1 0xE0 SHL DUP2 MSTORE PUSH1 0x4 ADD PUSH1 0x20 PUSH1 0x40 MLOAD DUP1 DUP4 SUB DUP2 DUP7 DUP1 EXTCODESIZE ISZERO DUP1 ISZERO PUSH2 0x780 JUMPI PUSH1 0x0 DUP1 REVERT JUMPDEST POP GAS STATICCALL ISZERO DUP1 ISZERO PUSH2 0x794 JUMPI RETURNDATASIZE PUSH1 0x0 DUP1 RETURNDATACOPY RETURNDATASIZE PUSH1 0x0 REVERT JUMPDEST POP POP POP POP PUSH1 0x40 MLOAD RETURNDATASIZE PUSH1 0x1F NOT PUSH1 0x1F DUP3 ADD AND DUP3 ADD DUP1 PUSH1 0x40 MSTORE POP DUP2 ADD SWAP1 PUSH2 0x7B8 SWAP2 SWAP1 PUSH2 0x1A10 JUMP JUMPDEST SWAP1 POP SWAP1 JUMP JUMPDEST PUSH1 0x1 PUSH1 0x0 SWAP1 SLOAD SWAP1 PUSH2 0x100 EXP SWAP1 DIV PUSH20 0xFFFFFFFFFFFFFFFFFFFFFFFFFFFFFFFFFFFFFFFF AND DUP2 JUMP JUMPDEST TIMESTAMP PUSH1 0x9 PUSH1 0x1 ADD SLOAD EQ PUSH2 0x82A JUMPI PUSH1 0x40 MLOAD PUSH32 0x8C379A000000000000000000000000000000000000000000000000000000000 DUP2 MSTORE PUSH1 0x4 ADD PUSH2 0x821 SWAP1 PUSH2 0x1FED JUMP JUMPDEST PUSH1 0x40 MLOAD DUP1 SWAP2 SUB SWAP1 REVERT JUMPDEST PUSH1 0x6 SLOAD TIMESTAMP GT DUP1 ISZERO PUSH2 0x84B JUMPI POP PUSH1 0x9 PUSH1 0x2 ADD PUSH1 0x0 SWAP1 SLOAD SWAP1 PUSH2 0x100 EXP SWAP1 DIV PUSH1 0xFF AND ISZERO JUMPDEST PUSH2 0x88A JUMPI PUSH1 0x40 MLOAD PUSH32 0x8C379A000000000000000000000000000000000000000000000000000000000 DUP2 MSTORE PUSH1 0x4 ADD PUSH2 0x881 SWAP1 PUSH2 0x1FCD JUMP JUMPDEST PUSH1 0x40 MLOAD DUP1 SWAP2 SUB SWAP1 REVERT JUMPDEST PUSH1 0x0 PUSH1 0x1 PUSH2 0x896 PUSH2 0x716 JUMP JUMPDEST PUSH2 0x8A0 SWAP2 SWAP1 PUSH2 0x22F8 JUMP JUMPDEST PUSH2 0x8A8 PUSH2 0x584 JUMP JUMPDEST PUSH2 0x8B2 SWAP2 SWAP1 PUSH2 0x22F8 JUMP JUMPDEST SWAP1 POP JUMPDEST PUSH1 0x0 DUP2 GT ISZERO PUSH2 0x8FC JUMPI PUSH2 0x8E9 PUSH1 0x4 PUSH1 0x0 SWAP1 SLOAD SWAP1 PUSH2 0x100 EXP SWAP1 DIV PUSH20 0xFFFFFFFFFFFFFFFFFFFFFFFFFFFFFFFFFFFFFFFF AND PUSH2 0x11D9 JUMP JUMPDEST DUP1 DUP1 PUSH2 0x8F4 SWAP1 PUSH2 0x2458 JUMP JUMPDEST SWAP2 POP POP PUSH2 0x8B5 JUMP JUMPDEST POP JUMP JUMPDEST PUSH1 0x0 DUP1 PUSH1 0x0 DUP5 DUP2 MSTORE PUSH1 0x20 ADD SWAP1 DUP2 MSTORE PUSH1 0x20 ADD PUSH1 0x0 KECCAK256 PUSH1 0x0 ADD PUSH1 0x0 DUP4 PUSH20 0xFFFFFFFFFFFFFFFFFFFFFFFFFFFFFFFFFFFFFFFF AND PUSH20 0xFFFFFFFFFFFFFFFFFFFFFFFFFFFFFFFFFFFFFFFF AND DUP2 MSTORE PUSH1 0x20 ADD SWAP1 DUP2 MSTORE PUSH1 0x20 ADD PUSH1 0x0 KECCAK256 PUSH1 0x0 SWAP1 SLOAD SWAP1 PUSH2 0x100 EXP SWAP1 DIV PUSH1 0xFF AND SWAP1 POP SWAP3 SWAP2 POP POP JUMP JUMPDEST PUSH2 0x99A PUSH32 0x988301AF8238F779281A300DE031815CD01B48E9F1AE47A0F91ED6584213624A PUSH2 0x995 PUSH2 0xDE0 JUMP JUMPDEST PUSH2 0x8FF JUMP JUMPDEST DUP1 PUSH2 0x9B5 JUMPI POP PUSH2 0x9B4 PUSH1 0x0 DUP1 SHL PUSH2 0x9AF PUSH2 0xDE0 JUMP JUMPDEST PUSH2 0x8FF JUMP JUMPDEST JUMPDEST PUSH2 0x9F4 JUMPI PUSH1 0x40 MLOAD PUSH32 0x8C379A000000000000000000000000000000000000000000000000000000000 DUP2 MSTORE PUSH1 0x4 ADD PUSH2 0x9EB SWAP1 PUSH2 0x200D JUMP JUMPDEST PUSH1 0x40 MLOAD DUP1 SWAP2 SUB SWAP1 REVERT JUMPDEST DUP1 PUSH1 0x5 DUP2 SWAP1 SSTORE POP POP JUMP JUMPDEST PUSH1 0x0 DUP1 SHL DUP2 JUMP JUMPDEST PUSH1 0x0 TIMESTAMP PUSH1 0x9 PUSH1 0x1 ADD SLOAD EQ PUSH2 0xA4E JUMPI PUSH1 0x40 MLOAD PUSH32 0x8C379A000000000000000000000000000000000000000000000000000000000 DUP2 MSTORE PUSH1 0x4 ADD PUSH2 0xA45 SWAP1 PUSH2 0x1FED JUMP JUMPDEST PUSH1 0x40 MLOAD DUP1 SWAP2 SUB SWAP1 REVERT JUMPDEST PUSH1 0x2 PUSH1 0x0 SWAP1 SLOAD SWAP1 PUSH2 0x100 EXP SWAP1 DIV PUSH20 0xFFFFFFFFFFFFFFFFFFFFFFFFFFFFFFFFFFFFFFFF AND PUSH20 0xFFFFFFFFFFFFFFFFFFFFFFFFFFFFFFFFFFFFFFFF AND PUSH4 0x2080179D DUP5 DUP5 PUSH1 0x40 MLOAD DUP4 PUSH4 0xFFFFFFFF AND PUSH1 0xE0 SHL DUP2 MSTORE PUSH1 0x4 ADD PUSH2 0xAAB SWAP3 SWAP2 SWAP1 PUSH2 0x1EA4 JUMP JUMPDEST PUSH1 0x20 PUSH1 0x40 MLOAD DUP1 DUP4 SUB DUP2 DUP7 DUP1 EXTCODESIZE ISZERO DUP1 ISZERO PUSH2 0xAC3 JUMPI PUSH1 0x0 DUP1 REVERT JUMPDEST POP GAS STATICCALL ISZERO DUP1 ISZERO PUSH2 0xAD7 JUMPI RETURNDATASIZE PUSH1 0x0 DUP1 RETURNDATACOPY RETURNDATASIZE PUSH1 0x0 REVERT JUMPDEST POP POP POP POP PUSH1 0x40 MLOAD RETURNDATASIZE PUSH1 0x1F NOT PUSH1 0x1F DUP3 ADD AND DUP3 ADD DUP1 PUSH1 0x40 MSTORE POP DUP2 ADD SWAP1 PUSH2 0xAFB SWAP2 SWAP1 PUSH2 0x1930 JUMP JUMPDEST DUP4 DUP4 PUSH1 0x40 MLOAD PUSH1 0x20 ADD PUSH2 0xB0E SWAP3 SWAP2 SWAP1 PUSH2 0x1E02 JUMP JUMPDEST PUSH1 0x40 MLOAD PUSH1 0x20 DUP2 DUP4 SUB SUB DUP2 MSTORE SWAP1 PUSH1 0x40 MSTORE SWAP1 PUSH2 0xB5E JUMPI PUSH1 0x40 MLOAD PUSH32 0x8C379A000000000000000000000000000000000000000000000000000000000 DUP2 MSTORE PUSH1 0x4 ADD PUSH2 0xB55 SWAP2 SWAP1 PUSH2 0x1F8B JUMP JUMPDEST PUSH1 0x40 MLOAD DUP1 SWAP2 SUB SWAP1 REVERT JUMPDEST POP PUSH1 0x0 DUP3 PUSH1 0x64 PUSH2 0xB6E SWAP2 SWAP1 PUSH2 0x22F8 JUMP JUMPDEST PUSH1 0x64 PUSH1 0x9 PUSH1 0x0 ADD SLOAD PUSH2 0xB80 SWAP2 SWAP1 PUSH2 0x226D JUMP JUMPDEST PUSH2 0xB8A SWAP2 SWAP1 PUSH2 0x229E JUMP JUMPDEST SWAP1 POP DUP1 SWAP2 POP POP SWAP3 SWAP2 POP POP JUMP JUMPDEST PUSH2 0xB9E PUSH2 0x1046 JUMP JUMPDEST PUSH1 0x0 PUSH1 0x9 PUSH1 0x0 ADD SLOAD SWAP1 POP PUSH2 0xBB1 DUP2 PUSH2 0x113E JUMP JUMPDEST POP JUMP JUMPDEST PUSH1 0x9 DUP1 PUSH1 0x0 ADD SLOAD SWAP1 DUP1 PUSH1 0x1 ADD SLOAD SWAP1 DUP1 PUSH1 0x2 ADD PUSH1 0x0 SWAP1 SLOAD SWAP1 PUSH2 0x100 EXP SWAP1 DIV PUSH1 0xFF AND SWAP1 POP DUP4 JUMP JUMPDEST PUSH1 0x3 PUSH1 0x0 SWAP1 SLOAD SWAP1 PUSH2 0x100 EXP SWAP1 DIV PUSH20 0xFFFFFFFFFFFFFFFFFFFFFFFFFFFFFFFFFFFFFFFF AND DUP2 JUMP JUMPDEST PUSH1 0x4 PUSH1 0x0 SWAP1 SLOAD SWAP1 PUSH2 0x100 EXP SWAP1 DIV PUSH20 0xFFFFFFFFFFFFFFFFFFFFFFFFFFFFFFFFFFFFFFFF AND DUP2 JUMP JUMPDEST PUSH2 0xC56 PUSH32 0x988301AF8238F779281A300DE031815CD01B48E9F1AE47A0F91ED6584213624A PUSH2 0xC51 PUSH2 0xDE0 JUMP JUMPDEST PUSH2 0x8FF JUMP JUMPDEST DUP1 PUSH2 0xC71 JUMPI POP PUSH2 0xC70 PUSH1 0x0 DUP1 SHL PUSH2 0xC6B PUSH2 0xDE0 JUMP JUMPDEST PUSH2 0x8FF JUMP JUMPDEST JUMPDEST PUSH2 0xCB0 JUMPI PUSH1 0x40 MLOAD PUSH32 0x8C379A000000000000000000000000000000000000000000000000000000000 DUP2 MSTORE PUSH1 0x4 ADD PUSH2 0xCA7 SWAP1 PUSH2 0x200D JUMP JUMPDEST PUSH1 0x40 MLOAD DUP1 SWAP2 SUB SWAP1 REVERT JUMPDEST DUP1 PUSH1 0x6 DUP2 SWAP1 SSTORE POP POP JUMP JUMPDEST PUSH2 0xCC3 DUP3 PUSH2 0x4B9 JUMP JUMPDEST PUSH2 0xCD4 DUP2 PUSH2 0xCCF PUSH2 0xDE0 JUMP JUMPDEST PUSH2 0xDE8 JUMP JUMPDEST PUSH2 0xCDE DUP4 DUP4 PUSH2 0xF65 JUMP JUMPDEST POP POP POP JUMP JUMPDEST PUSH1 0x1 PUSH1 0x0 SWAP1 SLOAD SWAP1 PUSH2 0x100 EXP SWAP1 DIV PUSH20 0xFFFFFFFFFFFFFFFFFFFFFFFFFFFFFFFFFFFFFFFF AND PUSH20 0xFFFFFFFFFFFFFFFFFFFFFFFFFFFFFFFFFFFFFFFF AND PUSH4 0xF121DA92 DUP4 DUP4 PUSH1 0x40 MLOAD DUP4 PUSH4 0xFFFFFFFF AND PUSH1 0xE0 SHL DUP2 MSTORE PUSH1 0x4 ADD PUSH2 0xD40 SWAP3 SWAP2 SWAP1 PUSH2 0x1ECD JUMP JUMPDEST PUSH1 0x0 PUSH1 0x40 MLOAD DUP1 DUP4 SUB DUP2 PUSH1 0x0 DUP8 DUP1 EXTCODESIZE ISZERO DUP1 ISZERO PUSH2 0xD5A JUMPI PUSH1 0x0 DUP1 REVERT JUMPDEST POP GAS CALL ISZERO DUP1 ISZERO PUSH2 0xD6E JUMPI RETURNDATASIZE PUSH1 0x0 DUP1 RETURNDATACOPY RETURNDATASIZE PUSH1 0x0 REVERT JUMPDEST POP POP POP POP POP POP JUMP JUMPDEST PUSH1 0x0 PUSH32 0x1FFC9A700000000000000000000000000000000000000000000000000000000 PUSH28 0xFFFFFFFFFFFFFFFFFFFFFFFFFFFFFFFFFFFFFFFFFFFFFFFFFFFFFFFF NOT AND DUP3 PUSH28 0xFFFFFFFFFFFFFFFFFFFFFFFFFFFFFFFFFFFFFFFFFFFFFFFFFFFFFFFF NOT AND EQ SWAP1 POP SWAP2 SWAP1 POP JUMP JUMPDEST PUSH1 0x0 CALLER SWAP1 POP SWAP1 JUMP JUMPDEST PUSH2 0xDF2 DUP3 DUP3 PUSH2 0x8FF JUMP JUMPDEST PUSH2 0xE81 JUMPI PUSH2 0xE17 DUP2 PUSH20 0xFFFFFFFFFFFFFFFFFFFFFFFFFFFFFFFFFFFFFFFF AND PUSH1 0x14 PUSH2 0x1362 JUMP JUMPDEST PUSH2 0xE25 DUP4 PUSH1 0x0 SHR PUSH1 0x20 PUSH2 0x1362 JUMP JUMPDEST PUSH1 0x40 MLOAD PUSH1 0x20 ADD PUSH2 0xE36 SWAP3 SWAP2 SWAP1 PUSH2 0x1E4F JUMP JUMPDEST PUSH1 0x40 MLOAD PUSH1 0x20 DUP2 DUP4 SUB SUB DUP2 MSTORE SWAP1 PUSH1 0x40 MSTORE PUSH1 0x40 MLOAD PUSH32 0x8C379A000000000000000000000000000000000000000000000000000000000 DUP2 MSTORE PUSH1 0x4 ADD PUSH2 0xE78 SWAP2 SWAP1 PUSH2 0x1F8B JUMP JUMPDEST PUSH1 0x40 MLOAD DUP1 SWAP2 SUB SWAP1 REVERT JUMPDEST POP POP JUMP JUMPDEST PUSH2 0xE8F DUP3 DUP3 PUSH2 0x8FF JUMP JUMPDEST PUSH2 0xF61 JUMPI PUSH1 0x1 PUSH1 0x0 DUP1 DUP5 DUP2 MSTORE PUSH1 0x20 ADD SWAP1 DUP2 MSTORE PUSH1 0x20 ADD PUSH1 0x0 KECCAK256 PUSH1 0x0 ADD PUSH1 0x0 DUP4 PUSH20 0xFFFFFFFFFFFFFFFFFFFFFFFFFFFFFFFFFFFFFFFF AND PUSH20 0xFFFFFFFFFFFFFFFFFFFFFFFFFFFFFFFFFFFFFFFF AND DUP2 MSTORE PUSH1 0x20 ADD SWAP1 DUP2 MSTORE PUSH1 0x20 ADD PUSH1 0x0 KECCAK256 PUSH1 0x0 PUSH2 0x100 EXP DUP2 SLOAD DUP2 PUSH1 0xFF MUL NOT AND SWAP1 DUP4 ISZERO ISZERO MUL OR SWAP1 SSTORE POP PUSH2 0xF06 PUSH2 0xDE0 JUMP JUMPDEST PUSH20 0xFFFFFFFFFFFFFFFFFFFFFFFFFFFFFFFFFFFFFFFF AND DUP2 PUSH20 0xFFFFFFFFFFFFFFFFFFFFFFFFFFFFFFFFFFFFFFFF AND DUP4 PUSH32 0x2F8788117E7EFF1D82E926EC794901D17C78024A50270940304540A733656F0D PUSH1 0x40 MLOAD PUSH1 0x40 MLOAD DUP1 SWAP2 SUB SWAP1 LOG4 JUMPDEST POP POP JUMP JUMPDEST PUSH2 0xF6F DUP3 DUP3 PUSH2 0x8FF JUMP JUMPDEST ISZERO PUSH2 0x1042 JUMPI PUSH1 0x0 DUP1 PUSH1 0x0 DUP5 DUP2 MSTORE PUSH1 0x20 ADD SWAP1 DUP2 MSTORE PUSH1 0x20 ADD PUSH1 0x0 KECCAK256 PUSH1 0x0 ADD PUSH1 0x0 DUP4 PUSH20 0xFFFFFFFFFFFFFFFFFFFFFFFFFFFFFFFFFFFFFFFF AND PUSH20 0xFFFFFFFFFFFFFFFFFFFFFFFFFFFFFFFFFFFFFFFF AND DUP2 MSTORE PUSH1 0x20 ADD SWAP1 DUP2 MSTORE PUSH1 0x20 ADD PUSH1 0x0 KECCAK256 PUSH1 0x0 PUSH2 0x100 EXP DUP2 SLOAD DUP2 PUSH1 0xFF MUL NOT AND SWAP1 DUP4 ISZERO ISZERO MUL OR SWAP1 SSTORE POP PUSH2 0xFE7 PUSH2 0xDE0 JUMP JUMPDEST PUSH20 0xFFFFFFFFFFFFFFFFFFFFFFFFFFFFFFFFFFFFFFFF AND DUP2 PUSH20 0xFFFFFFFFFFFFFFFFFFFFFFFFFFFFFFFFFFFFFFFF AND DUP4 PUSH32 0xF6391F5C32D9C69D2A47EA670B442974B53935D1EDC7FD64EB21E047A839171B PUSH1 0x40 MLOAD PUSH1 0x40 MLOAD DUP1 SWAP2 SUB SWAP1 LOG4 JUMPDEST POP POP JUMP JUMPDEST PUSH1 0x6 SLOAD PUSH1 0x5 SLOAD GT ISZERO PUSH2 0x108D JUMPI PUSH1 0x40 MLOAD PUSH32 0x8C379A000000000000000000000000000000000000000000000000000000000 DUP2 MSTORE PUSH1 0x4 ADD PUSH2 0x1084 SWAP1 PUSH2 0x202D JUMP JUMPDEST PUSH1 0x40 MLOAD DUP1 SWAP2 SUB SWAP1 REVERT JUMPDEST PUSH3 0xF4240 PUSH1 0x1 PUSH2 0x109D SWAP2 SWAP1 PUSH2 0x229E JUMP JUMPDEST PUSH1 0x3C PUSH1 0x5 SLOAD TIMESTAMP PUSH2 0x10AD SWAP2 SWAP1 PUSH2 0x22F8 JUMP JUMPDEST PUSH2 0x10B7 SWAP2 SWAP1 PUSH2 0x226D JUMP JUMPDEST PUSH2 0x10C1 SWAP2 SWAP1 PUSH2 0x229E JUMP JUMPDEST PUSH1 0x7 SLOAD PUSH2 0x10CE SWAP2 SWAP1 PUSH2 0x22F8 JUMP JUMPDEST PUSH1 0x9 PUSH1 0x0 ADD DUP2 SWAP1 SSTORE POP TIMESTAMP PUSH1 0x9 PUSH1 0x1 ADD DUP2 SWAP1 SSTORE POP PUSH1 0x5 SLOAD TIMESTAMP LT ISZERO DUP1 ISZERO PUSH2 0x10F5 JUMPI POP PUSH1 0x6 SLOAD TIMESTAMP GT ISZERO JUMPDEST ISZERO PUSH2 0x111D JUMPI PUSH1 0x1 PUSH1 0x9 PUSH1 0x2 ADD PUSH1 0x0 PUSH2 0x100 EXP DUP2 SLOAD DUP2 PUSH1 0xFF MUL NOT AND SWAP1 DUP4 ISZERO ISZERO MUL OR SWAP1 SSTORE POP PUSH2 0x113C JUMP JUMPDEST PUSH1 0x0 PUSH1 0x9 PUSH1 0x2 ADD PUSH1 0x0 PUSH2 0x100 EXP DUP2 SLOAD DUP2 PUSH1 0xFF MUL NOT AND SWAP1 DUP4 ISZERO ISZERO MUL OR SWAP1 SSTORE POP JUMPDEST JUMP JUMPDEST PUSH1 0x3 PUSH1 0x0 SWAP1 SLOAD SWAP1 PUSH2 0x100 EXP SWAP1 DIV PUSH20 0xFFFFFFFFFFFFFFFFFFFFFFFFFFFFFFFFFFFFFFFF AND PUSH20 0xFFFFFFFFFFFFFFFFFFFFFFFFFFFFFFFFFFFFFFFF AND PUSH4 0x532B2913 CALLER DUP4 PUSH1 0x40 MLOAD DUP4 PUSH4 0xFFFFFFFF AND PUSH1 0xE0 SHL DUP2 MSTORE PUSH1 0x4 ADD PUSH2 0x119B SWAP3 SWAP2 SWAP1 PUSH2 0x1EA4 JUMP JUMPDEST PUSH1 0x0 PUSH1 0x40 MLOAD DUP1 DUP4 SUB DUP2 PUSH1 0x0 DUP8 DUP1 EXTCODESIZE ISZERO DUP1 ISZERO PUSH2 0x11B5 JUMPI PUSH1 0x0 DUP1 REVERT JUMPDEST POP GAS CALL ISZERO DUP1 ISZERO PUSH2 0x11C9 JUMPI RETURNDATASIZE PUSH1 0x0 DUP1 RETURNDATACOPY RETURNDATASIZE PUSH1 0x0 REVERT JUMPDEST POP POP POP POP PUSH2 0x11D6 CALLER PUSH2 0x11D9 JUMP JUMPDEST POP JUMP JUMPDEST PUSH1 0x1 PUSH1 0x0 SWAP1 SLOAD SWAP1 PUSH2 0x100 EXP SWAP1 DIV PUSH20 0xFFFFFFFFFFFFFFFFFFFFFFFFFFFFFFFFFFFFFFFF AND PUSH20 0xFFFFFFFFFFFFFFFFFFFFFFFFFFFFFFFFFFFFFFFF AND PUSH4 0x55676590 DUP3 PUSH1 0x40 MLOAD DUP3 PUSH4 0xFFFFFFFF AND PUSH1 0xE0 SHL DUP2 MSTORE PUSH1 0x4 ADD PUSH2 0x1234 SWAP2 SWAP1 PUSH2 0x1E89 JUMP JUMPDEST PUSH1 0x0 PUSH1 0x40 MLOAD DUP1 DUP4 SUB DUP2 PUSH1 0x0 DUP8 DUP1 EXTCODESIZE ISZERO DUP1 ISZERO PUSH2 0x124E JUMPI PUSH1 0x0 DUP1 REVERT JUMPDEST POP GAS CALL ISZERO DUP1 ISZERO PUSH2 0x1262 JUMPI RETURNDATASIZE PUSH1 0x0 DUP1 RETURNDATACOPY RETURNDATASIZE PUSH1 0x0 REVERT JUMPDEST POP POP POP POP PUSH1 0x60 PUSH1 0x40 MLOAD DUP1 PUSH1 0x40 ADD PUSH1 0x40 MSTORE DUP1 PUSH1 0x1 DUP2 MSTORE PUSH1 0x20 ADD PUSH32 0x4A00000000000000000000000000000000000000000000000000000000000000 DUP2 MSTORE POP DUP2 PUSH1 0x0 DUP2 MLOAD DUP2 LT PUSH2 0x12D8 JUMPI PUSH32 0x4E487B7100000000000000000000000000000000000000000000000000000000 PUSH1 0x0 MSTORE PUSH1 0x32 PUSH1 0x4 MSTORE PUSH1 0x24 PUSH1 0x0 REVERT JUMPDEST PUSH1 0x20 MUL PUSH1 0x20 ADD ADD DUP2 SWAP1 MSTORE POP PUSH1 0x40 MLOAD DUP1 PUSH1 0x40 ADD PUSH1 0x40 MSTORE DUP1 PUSH1 0x1 DUP2 MSTORE PUSH1 0x20 ADD PUSH32 0x4B00000000000000000000000000000000000000000000000000000000000000 DUP2 MSTORE POP DUP2 PUSH1 0x1 DUP2 MLOAD DUP2 LT PUSH2 0x1353 JUMPI PUSH32 0x4E487B7100000000000000000000000000000000000000000000000000000000 PUSH1 0x0 MSTORE PUSH1 0x32 PUSH1 0x4 MSTORE PUSH1 0x24 PUSH1 0x0 REVERT JUMPDEST PUSH1 0x20 MUL PUSH1 0x20 ADD ADD DUP2 SWAP1 MSTORE POP POP POP JUMP JUMPDEST PUSH1 0x60 PUSH1 0x0 PUSH1 0x2 DUP4 PUSH1 0x2 PUSH2 0x1375 SWAP2 SWAP1 PUSH2 0x229E JUMP JUMPDEST PUSH2 0x137F SWAP2 SWAP1 PUSH2 0x2217 JUMP JUMPDEST PUSH8 0xFFFFFFFFFFFFFFFF DUP2 GT ISZERO PUSH2 0x13BE JUMPI PUSH32 0x4E487B7100000000000000000000000000000000000000000000000000000000 PUSH1 0x0 MSTORE PUSH1 0x41 PUSH1 0x4 MSTORE PUSH1 0x24 PUSH1 0x0 REVERT JUMPDEST PUSH1 0x40 MLOAD SWAP1 DUP1 DUP3 MSTORE DUP1 PUSH1 0x1F ADD PUSH1 0x1F NOT AND PUSH1 0x20 ADD DUP3 ADD PUSH1 0x40 MSTORE DUP1 ISZERO PUSH2 0x13F0 JUMPI DUP2 PUSH1 0x20 ADD PUSH1 0x1 DUP3 MUL DUP1 CALLDATASIZE DUP4 CALLDATACOPY DUP1 DUP3 ADD SWAP2 POP POP SWAP1 POP JUMPDEST POP SWAP1 POP PUSH32 0x3000000000000000000000000000000000000000000000000000000000000000 DUP2 PUSH1 0x0 DUP2 MLOAD DUP2 LT PUSH2 0x144E JUMPI PUSH32 0x4E487B7100000000000000000000000000000000000000000000000000000000 PUSH1 0x0 MSTORE PUSH1 0x32 PUSH1 0x4 MSTORE PUSH1 0x24 PUSH1 0x0 REVERT JUMPDEST PUSH1 0x20 ADD ADD SWAP1 PUSH31 0xFFFFFFFFFFFFFFFFFFFFFFFFFFFFFFFFFFFFFFFFFFFFFFFFFFFFFFFFFFFFFF NOT AND SWAP1 DUP2 PUSH1 0x0 BYTE SWAP1 MSTORE8 POP PUSH32 0x7800000000000000000000000000000000000000000000000000000000000000 DUP2 PUSH1 0x1 DUP2 MLOAD DUP2 LT PUSH2 0x14D8 JUMPI PUSH32 0x4E487B7100000000000000000000000000000000000000000000000000000000 PUSH1 0x0 MSTORE PUSH1 0x32 PUSH1 0x4 MSTORE PUSH1 0x24 PUSH1 0x0 REVERT JUMPDEST PUSH1 0x20 ADD ADD SWAP1 PUSH31 0xFFFFFFFFFFFFFFFFFFFFFFFFFFFFFFFFFFFFFFFFFFFFFFFFFFFFFFFFFFFFFF NOT AND SWAP1 DUP2 PUSH1 0x0 BYTE SWAP1 MSTORE8 POP PUSH1 0x0 PUSH1 0x1 DUP5 PUSH1 0x2 PUSH2 0x1518 SWAP2 SWAP1 PUSH2 0x229E JUMP JUMPDEST PUSH2 0x1522 SWAP2 SWAP1 PUSH2 0x2217 JUMP JUMPDEST SWAP1 POP JUMPDEST PUSH1 0x1 DUP2 GT ISZERO PUSH2 0x160E JUMPI PUSH32 0x3031323334353637383961626364656600000000000000000000000000000000 PUSH1 0xF DUP7 AND PUSH1 0x10 DUP2 LT PUSH2 0x158A JUMPI PUSH32 0x4E487B7100000000000000000000000000000000000000000000000000000000 PUSH1 0x0 MSTORE PUSH1 0x32 PUSH1 0x4 MSTORE PUSH1 0x24 PUSH1 0x0 REVERT JUMPDEST BYTE PUSH1 0xF8 SHL DUP3 DUP3 DUP2 MLOAD DUP2 LT PUSH2 0x15C7 JUMPI PUSH32 0x4E487B7100000000000000000000000000000000000000000000000000000000 PUSH1 0x0 MSTORE PUSH1 0x32 PUSH1 0x4 MSTORE PUSH1 0x24 PUSH1 0x0 REVERT JUMPDEST PUSH1 0x20 ADD ADD SWAP1 PUSH31 0xFFFFFFFFFFFFFFFFFFFFFFFFFFFFFFFFFFFFFFFFFFFFFFFFFFFFFFFFFFFFFF NOT AND SWAP1 DUP2 PUSH1 0x0 BYTE SWAP1 MSTORE8 POP PUSH1 0x4 DUP6 SWAP1 SHR SWAP5 POP DUP1 PUSH2 0x1607 SWAP1 PUSH2 0x2458 JUMP JUMPDEST SWAP1 POP PUSH2 0x1525 JUMP JUMPDEST POP PUSH1 0x0 DUP5 EQ PUSH2 0x1652 JUMPI PUSH1 0x40 MLOAD PUSH32 0x8C379A000000000000000000000000000000000000000000000000000000000 DUP2 MSTORE PUSH1 0x4 ADD PUSH2 0x1649 SWAP1 PUSH2 0x1FAD JUMP JUMPDEST PUSH1 0x40 MLOAD DUP1 SWAP2 SUB SWAP1 REVERT JUMPDEST DUP1 SWAP2 POP POP SWAP3 SWAP2 POP POP JUMP JUMPDEST PUSH1 0x0 PUSH2 0x166F PUSH2 0x166A DUP5 PUSH2 0x20E4 JUMP JUMPDEST PUSH2 0x20BF JUMP JUMPDEST SWAP1 POP DUP1 DUP4 DUP3 MSTORE PUSH1 0x20 DUP3 ADD SWAP1 POP DUP3 PUSH1 0x0 JUMPDEST DUP6 DUP2 LT ISZERO PUSH2 0x16AF JUMPI DUP2 CALLDATALOAD DUP6 ADD PUSH2 0x1695 DUP9 DUP3 PUSH2 0x180B JUMP JUMPDEST DUP5 MSTORE PUSH1 0x20 DUP5 ADD SWAP4 POP PUSH1 0x20 DUP4 ADD SWAP3 POP POP PUSH1 0x1 DUP2 ADD SWAP1 POP PUSH2 0x167F JUMP JUMPDEST POP POP POP SWAP4 SWAP3 POP POP POP JUMP JUMPDEST PUSH1 0x0 PUSH2 0x16CC PUSH2 0x16C7 DUP5 PUSH2 0x2110 JUMP JUMPDEST PUSH2 0x20BF JUMP JUMPDEST SWAP1 POP DUP1 DUP4 DUP3 MSTORE PUSH1 0x20 DUP3 ADD SWAP1 POP DUP3 DUP6 PUSH1 0x20 DUP7 MUL DUP3 ADD GT ISZERO PUSH2 0x16EB JUMPI PUSH1 0x0 DUP1 REVERT JUMPDEST PUSH1 0x0 JUMPDEST DUP6 DUP2 LT ISZERO PUSH2 0x171B JUMPI DUP2 PUSH2 0x1701 DUP9 DUP3 PUSH2 0x1835 JUMP JUMPDEST DUP5 MSTORE PUSH1 0x20 DUP5 ADD SWAP4 POP PUSH1 0x20 DUP4 ADD SWAP3 POP POP PUSH1 0x1 DUP2 ADD SWAP1 POP PUSH2 0x16EE JUMP JUMPDEST POP POP POP SWAP4 SWAP3 POP POP POP JUMP JUMPDEST PUSH1 0x0 PUSH2 0x1738 PUSH2 0x1733 DUP5 PUSH2 0x213C JUMP JUMPDEST PUSH2 0x20BF JUMP JUMPDEST SWAP1 POP DUP3 DUP2 MSTORE PUSH1 0x20 DUP2 ADD DUP5 DUP5 DUP5 ADD GT ISZERO PUSH2 0x1750 JUMPI PUSH1 0x0 DUP1 REVERT JUMPDEST PUSH2 0x175B DUP5 DUP3 DUP6 PUSH2 0x2416 JUMP JUMPDEST POP SWAP4 SWAP3 POP POP POP JUMP JUMPDEST PUSH1 0x0 DUP2 CALLDATALOAD SWAP1 POP PUSH2 0x1772 DUP2 PUSH2 0x27E7 JUMP JUMPDEST SWAP3 SWAP2 POP POP JUMP JUMPDEST PUSH1 0x0 DUP3 PUSH1 0x1F DUP4 ADD SLT PUSH2 0x1789 JUMPI PUSH1 0x0 DUP1 REVERT JUMPDEST DUP2 CALLDATALOAD PUSH2 0x1799 DUP5 DUP3 PUSH1 0x20 DUP7 ADD PUSH2 0x165C JUMP JUMPDEST SWAP2 POP POP SWAP3 SWAP2 POP POP JUMP JUMPDEST PUSH1 0x0 DUP3 PUSH1 0x1F DUP4 ADD SLT PUSH2 0x17B3 JUMPI PUSH1 0x0 DUP1 REVERT JUMPDEST DUP2 CALLDATALOAD PUSH2 0x17C3 DUP5 DUP3 PUSH1 0x20 DUP7 ADD PUSH2 0x16B9 JUMP JUMPDEST SWAP2 POP POP SWAP3 SWAP2 POP POP JUMP JUMPDEST PUSH1 0x0 DUP2 MLOAD SWAP1 POP PUSH2 0x17DB DUP2 PUSH2 0x27FE JUMP JUMPDEST SWAP3 SWAP2 POP POP JUMP JUMPDEST PUSH1 0x0 DUP2 CALLDATALOAD SWAP1 POP PUSH2 0x17F0 DUP2 PUSH2 0x2815 JUMP JUMPDEST SWAP3 SWAP2 POP POP JUMP JUMPDEST PUSH1 0x0 DUP2 CALLDATALOAD SWAP1 POP PUSH2 0x1805 DUP2 PUSH2 0x282C JUMP JUMPDEST SWAP3 SWAP2 POP POP JUMP JUMPDEST PUSH1 0x0 DUP3 PUSH1 0x1F DUP4 ADD SLT PUSH2 0x181C JUMPI PUSH1 0x0 DUP1 REVERT JUMPDEST DUP2 CALLDATALOAD PUSH2 0x182C DUP5 DUP3 PUSH1 0x20 DUP7 ADD PUSH2 0x1725 JUMP JUMPDEST SWAP2 POP POP SWAP3 SWAP2 POP POP JUMP JUMPDEST PUSH1 0x0 DUP2 CALLDATALOAD SWAP1 POP PUSH2 0x1844 DUP2 PUSH2 0x2843 JUMP JUMPDEST SWAP3 SWAP2 POP POP JUMP JUMPDEST PUSH1 0x0 DUP2 MLOAD SWAP1 POP PUSH2 0x1859 DUP2 PUSH2 0x2843 JUMP JUMPDEST SWAP3 SWAP2 POP POP JUMP JUMPDEST PUSH1 0x0 PUSH1 0x20 DUP3 DUP5 SUB SLT ISZERO PUSH2 0x1871 JUMPI PUSH1 0x0 DUP1 REVERT JUMPDEST PUSH1 0x0 PUSH2 0x187F DUP5 DUP3 DUP6 ADD PUSH2 0x1763 JUMP JUMPDEST SWAP2 POP POP SWAP3 SWAP2 POP POP JUMP JUMPDEST PUSH1 0x0 DUP1 PUSH1 0x40 DUP4 DUP6 SUB SLT ISZERO PUSH2 0x189B JUMPI PUSH1 0x0 DUP1 REVERT JUMPDEST PUSH1 0x0 PUSH2 0x18A9 DUP6 DUP3 DUP7 ADD PUSH2 0x1763 JUMP JUMPDEST SWAP3 POP POP PUSH1 0x20 PUSH2 0x18BA DUP6 DUP3 DUP7 ADD PUSH2 0x1835 JUMP JUMPDEST SWAP2 POP POP SWAP3 POP SWAP3 SWAP1 POP JUMP JUMPDEST PUSH1 0x0 DUP1 PUSH1 0x40 DUP4 DUP6 SUB SLT ISZERO PUSH2 0x18D7 JUMPI PUSH1 0x0 DUP1 REVERT JUMPDEST PUSH1 0x0 DUP4 ADD CALLDATALOAD PUSH8 0xFFFFFFFFFFFFFFFF DUP2 GT ISZERO PUSH2 0x18F1 JUMPI PUSH1 0x0 DUP1 REVERT JUMPDEST PUSH2 0x18FD DUP6 DUP3 DUP7 ADD PUSH2 0x17A2 JUMP JUMPDEST SWAP3 POP POP PUSH1 0x20 DUP4 ADD CALLDATALOAD PUSH8 0xFFFFFFFFFFFFFFFF DUP2 GT ISZERO PUSH2 0x191A JUMPI PUSH1 0x0 DUP1 REVERT JUMPDEST PUSH2 0x1926 DUP6 DUP3 DUP7 ADD PUSH2 0x1778 JUMP JUMPDEST SWAP2 POP POP SWAP3 POP SWAP3 SWAP1 POP JUMP JUMPDEST PUSH1 0x0 PUSH1 0x20 DUP3 DUP5 SUB SLT ISZERO PUSH2 0x1942 JUMPI PUSH1 0x0 DUP1 REVERT JUMPDEST PUSH1 0x0 PUSH2 0x1950 DUP5 DUP3 DUP6 ADD PUSH2 0x17CC JUMP JUMPDEST SWAP2 POP POP SWAP3 SWAP2 POP POP JUMP JUMPDEST PUSH1 0x0 PUSH1 0x20 DUP3 DUP5 SUB SLT ISZERO PUSH2 0x196B JUMPI PUSH1 0x0 DUP1 REVERT JUMPDEST PUSH1 0x0 PUSH2 0x1979 DUP5 DUP3 DUP6 ADD PUSH2 0x17E1 JUMP JUMPDEST SWAP2 POP POP SWAP3 SWAP2 POP POP JUMP JUMPDEST PUSH1 0x0 DUP1 PUSH1 0x40 DUP4 DUP6 SUB SLT ISZERO PUSH2 0x1995 JUMPI PUSH1 0x0 DUP1 REVERT JUMPDEST PUSH1 0x0 PUSH2 0x19A3 DUP6 DUP3 DUP7 ADD PUSH2 0x17E1 JUMP JUMPDEST SWAP3 POP POP PUSH1 0x20 PUSH2 0x19B4 DUP6 DUP3 DUP7 ADD PUSH2 0x1763 JUMP JUMPDEST SWAP2 POP POP SWAP3 POP SWAP3 SWAP1 POP JUMP JUMPDEST PUSH1 0x0 PUSH1 0x20 DUP3 DUP5 SUB SLT ISZERO PUSH2 0x19D0 JUMPI PUSH1 0x0 DUP1 REVERT JUMPDEST PUSH1 0x0 PUSH2 0x19DE DUP5 DUP3 DUP6 ADD PUSH2 0x17F6 JUMP JUMPDEST SWAP2 POP POP SWAP3 SWAP2 POP POP JUMP JUMPDEST PUSH1 0x0 PUSH1 0x20 DUP3 DUP5 SUB SLT ISZERO PUSH2 0x19F9 JUMPI PUSH1 0x0 DUP1 REVERT JUMPDEST PUSH1 0x0 PUSH2 0x1A07 DUP5 DUP3 DUP6 ADD PUSH2 0x1835 JUMP JUMPDEST SWAP2 POP POP SWAP3 SWAP2 POP POP JUMP JUMPDEST PUSH1 0x0 PUSH1 0x20 DUP3 DUP5 SUB SLT ISZERO PUSH2 0x1A22 JUMPI PUSH1 0x0 DUP1 REVERT JUMPDEST PUSH1 0x0 PUSH2 0x1A30 DUP5 DUP3 DUP6 ADD PUSH2 0x184A JUMP JUMPDEST SWAP2 POP POP SWAP3 SWAP2 POP POP JUMP JUMPDEST PUSH1 0x0 PUSH2 0x1A45 DUP4 DUP4 PUSH2 0x1BA9 JUMP JUMPDEST SWAP1 POP SWAP3 SWAP2 POP POP JUMP JUMPDEST PUSH1 0x0 PUSH2 0x1A59 DUP4 DUP4 PUSH2 0x1DCD JUMP JUMPDEST PUSH1 0x20 DUP4 ADD SWAP1 POP SWAP3 SWAP2 POP POP JUMP JUMPDEST PUSH2 0x1A6E DUP2 PUSH2 0x232C JUMP JUMPDEST DUP3 MSTORE POP POP JUMP JUMPDEST PUSH2 0x1A85 PUSH2 0x1A80 DUP3 PUSH2 0x232C JUMP JUMPDEST PUSH2 0x24B3 JUMP JUMPDEST DUP3 MSTORE POP POP JUMP JUMPDEST PUSH1 0x0 PUSH2 0x1A96 DUP3 PUSH2 0x218D JUMP JUMPDEST PUSH2 0x1AA0 DUP2 DUP6 PUSH2 0x21C8 JUMP JUMPDEST SWAP4 POP DUP4 PUSH1 0x20 DUP3 MUL DUP6 ADD PUSH2 0x1AB2 DUP6 PUSH2 0x216D JUMP JUMPDEST DUP1 PUSH1 0x0 JUMPDEST DUP6 DUP2 LT ISZERO PUSH2 0x1AEE JUMPI DUP5 DUP5 SUB DUP10 MSTORE DUP2 MLOAD PUSH2 0x1ACF DUP6 DUP3 PUSH2 0x1A39 JUMP JUMPDEST SWAP5 POP PUSH2 0x1ADA DUP4 PUSH2 0x21AE JUMP JUMPDEST SWAP3 POP PUSH1 0x20 DUP11 ADD SWAP10 POP POP PUSH1 0x1 DUP2 ADD SWAP1 POP PUSH2 0x1AB6 JUMP JUMPDEST POP DUP3 SWAP8 POP DUP8 SWAP6 POP POP POP POP POP POP SWAP3 SWAP2 POP POP JUMP JUMPDEST PUSH1 0x0 PUSH2 0x1B0B DUP3 PUSH2 0x2198 JUMP JUMPDEST PUSH2 0x1B15 DUP2 DUP6 PUSH2 0x21D9 JUMP JUMPDEST SWAP4 POP PUSH2 0x1B20 DUP4 PUSH2 0x217D JUMP JUMPDEST DUP1 PUSH1 0x0 JUMPDEST DUP4 DUP2 LT ISZERO PUSH2 0x1B51 JUMPI DUP2 MLOAD PUSH2 0x1B38 DUP9 DUP3 PUSH2 0x1A4D JUMP JUMPDEST SWAP8 POP PUSH2 0x1B43 DUP4 PUSH2 0x21BB JUMP JUMPDEST SWAP3 POP POP PUSH1 0x1 DUP2 ADD SWAP1 POP PUSH2 0x1B24 JUMP JUMPDEST POP DUP6 SWAP4 POP POP POP POP SWAP3 SWAP2 POP POP JUMP JUMPDEST PUSH2 0x1B67 DUP2 PUSH2 0x233E JUMP JUMPDEST DUP3 MSTORE POP POP JUMP JUMPDEST PUSH2 0x1B76 DUP2 PUSH2 0x234A JUMP JUMPDEST DUP3 MSTORE POP POP JUMP JUMPDEST PUSH2 0x1B85 DUP2 PUSH2 0x23AA JUMP JUMPDEST DUP3 MSTORE POP POP JUMP JUMPDEST PUSH2 0x1B94 DUP2 PUSH2 0x23CE JUMP JUMPDEST DUP3 MSTORE POP POP JUMP JUMPDEST PUSH2 0x1BA3 DUP2 PUSH2 0x23F2 JUMP JUMPDEST DUP3 MSTORE POP POP JUMP JUMPDEST PUSH1 0x0 PUSH2 0x1BB4 DUP3 PUSH2 0x21A3 JUMP JUMPDEST PUSH2 0x1BBE DUP2 DUP6 PUSH2 0x21EA JUMP JUMPDEST SWAP4 POP PUSH2 0x1BCE DUP2 DUP6 PUSH1 0x20 DUP7 ADD PUSH2 0x2425 JUMP JUMPDEST PUSH2 0x1BD7 DUP2 PUSH2 0x256E JUMP JUMPDEST DUP5 ADD SWAP2 POP POP SWAP3 SWAP2 POP POP JUMP JUMPDEST PUSH1 0x0 PUSH2 0x1BED DUP3 PUSH2 0x21A3 JUMP JUMPDEST PUSH2 0x1BF7 DUP2 DUP6 PUSH2 0x21FB JUMP JUMPDEST SWAP4 POP PUSH2 0x1C07 DUP2 DUP6 PUSH1 0x20 DUP7 ADD PUSH2 0x2425 JUMP JUMPDEST PUSH2 0x1C10 DUP2 PUSH2 0x256E JUMP JUMPDEST DUP5 ADD SWAP2 POP POP SWAP3 SWAP2 POP POP JUMP JUMPDEST PUSH1 0x0 PUSH2 0x1C26 DUP3 PUSH2 0x21A3 JUMP JUMPDEST PUSH2 0x1C30 DUP2 DUP6 PUSH2 0x220C JUMP JUMPDEST SWAP4 POP PUSH2 0x1C40 DUP2 DUP6 PUSH1 0x20 DUP7 ADD PUSH2 0x2425 JUMP JUMPDEST DUP1 DUP5 ADD SWAP2 POP POP SWAP3 SWAP2 POP POP JUMP JUMPDEST PUSH1 0x0 PUSH2 0x1C59 PUSH1 0x20 DUP4 PUSH2 0x21FB JUMP JUMPDEST SWAP2 POP PUSH2 0x1C64 DUP3 PUSH2 0x258C JUMP JUMPDEST PUSH1 0x20 DUP3 ADD SWAP1 POP SWAP2 SWAP1 POP JUMP JUMPDEST PUSH1 0x0 PUSH2 0x1C7C PUSH1 0x8 DUP4 PUSH2 0x220C JUMP JUMPDEST SWAP2 POP PUSH2 0x1C87 DUP3 PUSH2 0x25B5 JUMP JUMPDEST PUSH1 0x8 DUP3 ADD SWAP1 POP SWAP2 SWAP1 POP JUMP JUMPDEST PUSH1 0x0 PUSH2 0x1C9F PUSH1 0x36 DUP4 PUSH2 0x21FB JUMP JUMPDEST SWAP2 POP PUSH2 0x1CAA DUP3 PUSH2 0x25DE JUMP JUMPDEST PUSH1 0x40 DUP3 ADD SWAP1 POP SWAP2 SWAP1 POP JUMP JUMPDEST PUSH1 0x0 PUSH2 0x1CC2 PUSH1 0x1B DUP4 PUSH2 0x21FB JUMP JUMPDEST SWAP2 POP PUSH2 0x1CCD DUP3 PUSH2 0x262D JUMP JUMPDEST PUSH1 0x20 DUP3 ADD SWAP1 POP SWAP2 SWAP1 POP JUMP JUMPDEST PUSH1 0x0 PUSH2 0x1CE5 PUSH1 0x23 DUP4 PUSH2 0x21FB JUMP JUMPDEST SWAP2 POP PUSH2 0x1CF0 DUP3 PUSH2 0x2656 JUMP JUMPDEST PUSH1 0x40 DUP3 ADD SWAP1 POP SWAP2 SWAP1 POP JUMP JUMPDEST PUSH1 0x0 PUSH2 0x1D08 PUSH1 0x1 DUP4 PUSH2 0x220C JUMP JUMPDEST SWAP2 POP PUSH2 0x1D13 DUP3 PUSH2 0x26A5 JUMP JUMPDEST PUSH1 0x1 DUP3 ADD SWAP1 POP SWAP2 SWAP1 POP JUMP JUMPDEST PUSH1 0x0 PUSH2 0x1D2B PUSH1 0x30 DUP4 PUSH2 0x220C JUMP JUMPDEST SWAP2 POP PUSH2 0x1D36 DUP3 PUSH2 0x26CE JUMP JUMPDEST PUSH1 0x30 DUP3 ADD SWAP1 POP SWAP2 SWAP1 POP JUMP JUMPDEST PUSH1 0x0 PUSH2 0x1D4E PUSH1 0x1F DUP4 PUSH2 0x21FB JUMP JUMPDEST SWAP2 POP PUSH2 0x1D59 DUP3 PUSH2 0x271D JUMP JUMPDEST PUSH1 0x20 DUP3 ADD SWAP1 POP SWAP2 SWAP1 POP JUMP JUMPDEST PUSH1 0x0 PUSH2 0x1D71 PUSH1 0x17 DUP4 PUSH2 0x220C JUMP JUMPDEST SWAP2 POP PUSH2 0x1D7C DUP3 PUSH2 0x2746 JUMP JUMPDEST PUSH1 0x17 DUP3 ADD SWAP1 POP SWAP2 SWAP1 POP JUMP JUMPDEST PUSH1 0x0 PUSH2 0x1D94 PUSH1 0x11 DUP4 PUSH2 0x220C JUMP JUMPDEST SWAP2 POP PUSH2 0x1D9F DUP3 PUSH2 0x276F JUMP JUMPDEST PUSH1 0x11 DUP3 ADD SWAP1 POP SWAP2 SWAP1 POP JUMP JUMPDEST PUSH1 0x0 PUSH2 0x1DB7 PUSH1 0x2F DUP4 PUSH2 0x21FB JUMP JUMPDEST SWAP2 POP PUSH2 0x1DC2 DUP3 PUSH2 0x2798 JUMP JUMPDEST PUSH1 0x40 DUP3 ADD SWAP1 POP SWAP2 SWAP1 POP JUMP JUMPDEST PUSH2 0x1DD6 DUP2 PUSH2 0x23A0 JUMP JUMPDEST DUP3 MSTORE POP POP JUMP JUMPDEST PUSH2 0x1DE5 DUP2 PUSH2 0x23A0 JUMP JUMPDEST DUP3 MSTORE POP POP JUMP JUMPDEST PUSH2 0x1DFC PUSH2 0x1DF7 DUP3 PUSH2 0x23A0 JUMP JUMPDEST PUSH2 0x24D7 JUMP JUMPDEST DUP3 MSTORE POP POP JUMP JUMPDEST PUSH1 0x0 PUSH2 0x1E0D DUP3 PUSH2 0x1C6F JUMP JUMPDEST SWAP2 POP PUSH2 0x1E19 DUP3 DUP6 PUSH2 0x1A74 JUMP JUMPDEST PUSH1 0x14 DUP3 ADD SWAP2 POP PUSH2 0x1E28 DUP3 PUSH2 0x1D1E JUMP JUMPDEST SWAP2 POP PUSH2 0x1E34 DUP3 DUP5 PUSH2 0x1DEB JUMP JUMPDEST PUSH1 0x20 DUP3 ADD SWAP2 POP PUSH2 0x1E43 DUP3 PUSH2 0x1CFB JUMP JUMPDEST SWAP2 POP DUP2 SWAP1 POP SWAP4 SWAP3 POP POP POP JUMP JUMPDEST PUSH1 0x0 PUSH2 0x1E5A DUP3 PUSH2 0x1D64 JUMP JUMPDEST SWAP2 POP PUSH2 0x1E66 DUP3 DUP6 PUSH2 0x1C1B JUMP JUMPDEST SWAP2 POP PUSH2 0x1E71 DUP3 PUSH2 0x1D87 JUMP JUMPDEST SWAP2 POP PUSH2 0x1E7D DUP3 DUP5 PUSH2 0x1C1B JUMP JUMPDEST SWAP2 POP DUP2 SWAP1 POP SWAP4 SWAP3 POP POP POP JUMP JUMPDEST PUSH1 0x0 PUSH1 0x20 DUP3 ADD SWAP1 POP PUSH2 0x1E9E PUSH1 0x0 DUP4 ADD DUP5 PUSH2 0x1A65 JUMP JUMPDEST SWAP3 SWAP2 POP POP JUMP JUMPDEST PUSH1 0x0 PUSH1 0x40 DUP3 ADD SWAP1 POP PUSH2 0x1EB9 PUSH1 0x0 DUP4 ADD DUP6 PUSH2 0x1A65 JUMP JUMPDEST PUSH2 0x1EC6 PUSH1 0x20 DUP4 ADD DUP5 PUSH2 0x1DDC JUMP JUMPDEST SWAP4 SWAP3 POP POP POP JUMP JUMPDEST PUSH1 0x0 PUSH1 0x40 DUP3 ADD SWAP1 POP DUP2 DUP2 SUB PUSH1 0x0 DUP4 ADD MSTORE PUSH2 0x1EE7 DUP2 DUP6 PUSH2 0x1B00 JUMP JUMPDEST SWAP1 POP DUP2 DUP2 SUB PUSH1 0x20 DUP4 ADD MSTORE PUSH2 0x1EFB DUP2 DUP5 PUSH2 0x1A8B JUMP JUMPDEST SWAP1 POP SWAP4 SWAP3 POP POP POP JUMP JUMPDEST PUSH1 0x0 PUSH1 0x20 DUP3 ADD SWAP1 POP PUSH2 0x1F19 PUSH1 0x0 DUP4 ADD DUP5 PUSH2 0x1B5E JUMP JUMPDEST SWAP3 SWAP2 POP POP JUMP JUMPDEST PUSH1 0x0 PUSH1 0x20 DUP3 ADD SWAP1 POP PUSH2 0x1F34 PUSH1 0x0 DUP4 ADD DUP5 PUSH2 0x1B6D JUMP JUMPDEST SWAP3 SWAP2 POP POP JUMP JUMPDEST PUSH1 0x0 PUSH1 0x20 DUP3 ADD SWAP1 POP PUSH2 0x1F4F PUSH1 0x0 DUP4 ADD DUP5 PUSH2 0x1B7C JUMP JUMPDEST SWAP3 SWAP2 POP POP JUMP JUMPDEST PUSH1 0x0 PUSH1 0x20 DUP3 ADD SWAP1 POP PUSH2 0x1F6A PUSH1 0x0 DUP4 ADD DUP5 PUSH2 0x1B8B JUMP JUMPDEST SWAP3 SWAP2 POP POP JUMP JUMPDEST PUSH1 0x0 PUSH1 0x20 DUP3 ADD SWAP1 POP PUSH2 0x1F85 PUSH1 0x0 DUP4 ADD DUP5 PUSH2 0x1B9A JUMP JUMPDEST SWAP3 SWAP2 POP POP JUMP JUMPDEST PUSH1 0x0 PUSH1 0x20 DUP3 ADD SWAP1 POP DUP2 DUP2 SUB PUSH1 0x0 DUP4 ADD MSTORE PUSH2 0x1FA5 DUP2 DUP5 PUSH2 0x1BE2 JUMP JUMPDEST SWAP1 POP SWAP3 SWAP2 POP POP JUMP JUMPDEST PUSH1 0x0 PUSH1 0x20 DUP3 ADD SWAP1 POP DUP2 DUP2 SUB PUSH1 0x0 DUP4 ADD MSTORE PUSH2 0x1FC6 DUP2 PUSH2 0x1C4C JUMP JUMPDEST SWAP1 POP SWAP2 SWAP1 POP JUMP JUMPDEST PUSH1 0x0 PUSH1 0x20 DUP3 ADD SWAP1 POP DUP2 DUP2 SUB PUSH1 0x0 DUP4 ADD MSTORE PUSH2 0x1FE6 DUP2 PUSH2 0x1C92 JUMP JUMPDEST SWAP1 POP SWAP2 SWAP1 POP JUMP JUMPDEST PUSH1 0x0 PUSH1 0x20 DUP3 ADD SWAP1 POP DUP2 DUP2 SUB PUSH1 0x0 DUP4 ADD MSTORE PUSH2 0x2006 DUP2 PUSH2 0x1CB5 JUMP JUMPDEST SWAP1 POP SWAP2 SWAP1 POP JUMP JUMPDEST PUSH1 0x0 PUSH1 0x20 DUP3 ADD SWAP1 POP DUP2 DUP2 SUB PUSH1 0x0 DUP4 ADD MSTORE PUSH2 0x2026 DUP2 PUSH2 0x1CD8 JUMP JUMPDEST SWAP1 POP SWAP2 SWAP1 POP JUMP JUMPDEST PUSH1 0x0 PUSH1 0x20 DUP3 ADD SWAP1 POP DUP2 DUP2 SUB PUSH1 0x0 DUP4 ADD MSTORE PUSH2 0x2046 DUP2 PUSH2 0x1D41 JUMP JUMPDEST SWAP1 POP SWAP2 SWAP1 POP JUMP JUMPDEST PUSH1 0x0 PUSH1 0x20 DUP3 ADD SWAP1 POP DUP2 DUP2 SUB PUSH1 0x0 DUP4 ADD MSTORE PUSH2 0x2066 DUP2 PUSH2 0x1DAA JUMP JUMPDEST SWAP1 POP SWAP2 SWAP1 POP JUMP JUMPDEST PUSH1 0x0 PUSH1 0x20 DUP3 ADD SWAP1 POP PUSH2 0x2082 PUSH1 0x0 DUP4 ADD DUP5 PUSH2 0x1DDC JUMP JUMPDEST SWAP3 SWAP2 POP POP JUMP JUMPDEST PUSH1 0x0 PUSH1 0x60 DUP3 ADD SWAP1 POP PUSH2 0x209D PUSH1 0x0 DUP4 ADD DUP7 PUSH2 0x1DDC JUMP JUMPDEST PUSH2 0x20AA PUSH1 0x20 DUP4 ADD DUP6 PUSH2 0x1DDC JUMP JUMPDEST PUSH2 0x20B7 PUSH1 0x40 DUP4 ADD DUP5 PUSH2 0x1B5E JUMP JUMPDEST SWAP5 SWAP4 POP POP POP POP JUMP JUMPDEST PUSH1 0x0 PUSH2 0x20C9 PUSH2 0x20DA JUMP JUMPDEST SWAP1 POP PUSH2 0x20D5 DUP3 DUP3 PUSH2 0x2482 JUMP JUMPDEST SWAP2 SWAP1 POP JUMP JUMPDEST PUSH1 0x0 PUSH1 0x40 MLOAD SWAP1 POP SWAP1 JUMP JUMPDEST PUSH1 0x0 PUSH8 0xFFFFFFFFFFFFFFFF DUP3 GT ISZERO PUSH2 0x20FF JUMPI PUSH2 0x20FE PUSH2 0x253F JUMP JUMPDEST JUMPDEST PUSH1 0x20 DUP3 MUL SWAP1 POP PUSH1 0x20 DUP2 ADD SWAP1 POP SWAP2 SWAP1 POP JUMP JUMPDEST PUSH1 0x0 PUSH8 0xFFFFFFFFFFFFFFFF DUP3 GT ISZERO PUSH2 0x212B JUMPI PUSH2 0x212A PUSH2 0x253F JUMP JUMPDEST JUMPDEST PUSH1 0x20 DUP3 MUL SWAP1 POP PUSH1 0x20 DUP2 ADD SWAP1 POP SWAP2 SWAP1 POP JUMP JUMPDEST PUSH1 0x0 PUSH8 0xFFFFFFFFFFFFFFFF DUP3 GT ISZERO PUSH2 0x2157 JUMPI PUSH2 0x2156 PUSH2 0x253F JUMP JUMPDEST JUMPDEST PUSH2 0x2160 DUP3 PUSH2 0x256E JUMP JUMPDEST SWAP1 POP PUSH1 0x20 DUP2 ADD SWAP1 POP SWAP2 SWAP1 POP JUMP JUMPDEST PUSH1 0x0 DUP2 SWAP1 POP PUSH1 0x20 DUP3 ADD SWAP1 POP SWAP2 SWAP1 POP JUMP JUMPDEST PUSH1 0x0 DUP2 SWAP1 POP PUSH1 0x20 DUP3 ADD SWAP1 POP SWAP2 SWAP1 POP JUMP JUMPDEST PUSH1 0x0 DUP2 MLOAD SWAP1 POP SWAP2 SWAP1 POP JUMP JUMPDEST PUSH1 0x0 DUP2 MLOAD SWAP1 POP SWAP2 SWAP1 POP JUMP JUMPDEST PUSH1 0x0 DUP2 MLOAD SWAP1 POP SWAP2 SWAP1 POP JUMP JUMPDEST PUSH1 0x0 PUSH1 0x20 DUP3 ADD SWAP1 POP SWAP2 SWAP1 POP JUMP JUMPDEST PUSH1 0x0 PUSH1 0x20 DUP3 ADD SWAP1 POP SWAP2 SWAP1 POP JUMP JUMPDEST PUSH1 0x0 DUP3 DUP3 MSTORE PUSH1 0x20 DUP3 ADD SWAP1 POP SWAP3 SWAP2 POP POP JUMP JUMPDEST PUSH1 0x0 DUP3 DUP3 MSTORE PUSH1 0x20 DUP3 ADD SWAP1 POP SWAP3 SWAP2 POP POP JUMP JUMPDEST PUSH1 0x0 DUP3 DUP3 MSTORE PUSH1 0x20 DUP3 ADD SWAP1 POP SWAP3 SWAP2 POP POP JUMP JUMPDEST PUSH1 0x0 DUP3 DUP3 MSTORE PUSH1 0x20 DUP3 ADD SWAP1 POP SWAP3 SWAP2 POP POP JUMP JUMPDEST PUSH1 0x0 DUP2 SWAP1 POP SWAP3 SWAP2 POP POP JUMP JUMPDEST PUSH1 0x0 PUSH2 0x2222 DUP3 PUSH2 0x23A0 JUMP JUMPDEST SWAP2 POP PUSH2 0x222D DUP4 PUSH2 0x23A0 JUMP JUMPDEST SWAP3 POP DUP3 PUSH32 0xFFFFFFFFFFFFFFFFFFFFFFFFFFFFFFFFFFFFFFFFFFFFFFFFFFFFFFFFFFFFFFFF SUB DUP3 GT ISZERO PUSH2 0x2262 JUMPI PUSH2 0x2261 PUSH2 0x24E1 JUMP JUMPDEST JUMPDEST DUP3 DUP3 ADD SWAP1 POP SWAP3 SWAP2 POP POP JUMP JUMPDEST PUSH1 0x0 PUSH2 0x2278 DUP3 PUSH2 0x23A0 JUMP JUMPDEST SWAP2 POP PUSH2 0x2283 DUP4 PUSH2 0x23A0 JUMP JUMPDEST SWAP3 POP DUP3 PUSH2 0x2293 JUMPI PUSH2 0x2292 PUSH2 0x2510 JUMP JUMPDEST JUMPDEST DUP3 DUP3 DIV SWAP1 POP SWAP3 SWAP2 POP POP JUMP JUMPDEST PUSH1 0x0 PUSH2 0x22A9 DUP3 PUSH2 0x23A0 JUMP JUMPDEST SWAP2 POP PUSH2 0x22B4 DUP4 PUSH2 0x23A0 JUMP JUMPDEST SWAP3 POP DUP2 PUSH32 0xFFFFFFFFFFFFFFFFFFFFFFFFFFFFFFFFFFFFFFFFFFFFFFFFFFFFFFFFFFFFFFFF DIV DUP4 GT DUP3 ISZERO ISZERO AND ISZERO PUSH2 0x22ED JUMPI PUSH2 0x22EC PUSH2 0x24E1 JUMP JUMPDEST JUMPDEST DUP3 DUP3 MUL SWAP1 POP SWAP3 SWAP2 POP POP JUMP JUMPDEST PUSH1 0x0 PUSH2 0x2303 DUP3 PUSH2 0x23A0 JUMP JUMPDEST SWAP2 POP PUSH2 0x230E DUP4 PUSH2 0x23A0 JUMP JUMPDEST SWAP3 POP DUP3 DUP3 LT ISZERO PUSH2 0x2321 JUMPI PUSH2 0x2320 PUSH2 0x24E1 JUMP JUMPDEST JUMPDEST DUP3 DUP3 SUB SWAP1 POP SWAP3 SWAP2 POP POP JUMP JUMPDEST PUSH1 0x0 PUSH2 0x2337 DUP3 PUSH2 0x2380 JUMP JUMPDEST SWAP1 POP SWAP2 SWAP1 POP JUMP JUMPDEST PUSH1 0x0 DUP2 ISZERO ISZERO SWAP1 POP SWAP2 SWAP1 POP JUMP JUMPDEST PUSH1 0x0 DUP2 SWAP1 POP SWAP2 SWAP1 POP JUMP JUMPDEST PUSH1 0x0 PUSH32 0xFFFFFFFF00000000000000000000000000000000000000000000000000000000 DUP3 AND SWAP1 POP SWAP2 SWAP1 POP JUMP JUMPDEST PUSH1 0x0 PUSH20 0xFFFFFFFFFFFFFFFFFFFFFFFFFFFFFFFFFFFFFFFF DUP3 AND SWAP1 POP SWAP2 SWAP1 POP JUMP JUMPDEST PUSH1 0x0 DUP2 SWAP1 POP SWAP2 SWAP1 POP JUMP JUMPDEST PUSH1 0x0 PUSH2 0x23B5 DUP3 PUSH2 0x23BC JUMP JUMPDEST SWAP1 POP SWAP2 SWAP1 POP JUMP JUMPDEST PUSH1 0x0 PUSH2 0x23C7 DUP3 PUSH2 0x2380 JUMP JUMPDEST SWAP1 POP SWAP2 SWAP1 POP JUMP JUMPDEST PUSH1 0x0 PUSH2 0x23D9 DUP3 PUSH2 0x23E0 JUMP JUMPDEST SWAP1 POP SWAP2 SWAP1 POP JUMP JUMPDEST PUSH1 0x0 PUSH2 0x23EB DUP3 PUSH2 0x2380 JUMP JUMPDEST SWAP1 POP SWAP2 SWAP1 POP JUMP JUMPDEST PUSH1 0x0 PUSH2 0x23FD DUP3 PUSH2 0x2404 JUMP JUMPDEST SWAP1 POP SWAP2 SWAP1 POP JUMP JUMPDEST PUSH1 0x0 PUSH2 0x240F DUP3 PUSH2 0x2380 JUMP JUMPDEST SWAP1 POP SWAP2 SWAP1 POP JUMP JUMPDEST DUP3 DUP2 DUP4 CALLDATACOPY PUSH1 0x0 DUP4 DUP4 ADD MSTORE POP POP POP JUMP JUMPDEST PUSH1 0x0 JUMPDEST DUP4 DUP2 LT ISZERO PUSH2 0x2443 JUMPI DUP1 DUP3 ADD MLOAD DUP2 DUP5 ADD MSTORE PUSH1 0x20 DUP2 ADD SWAP1 POP PUSH2 0x2428 JUMP JUMPDEST DUP4 DUP2 GT ISZERO PUSH2 0x2452 JUMPI PUSH1 0x0 DUP5 DUP5 ADD MSTORE JUMPDEST POP POP POP POP JUMP JUMPDEST PUSH1 0x0 PUSH2 0x2463 DUP3 PUSH2 0x23A0 JUMP JUMPDEST SWAP2 POP PUSH1 0x0 DUP3 EQ ISZERO PUSH2 0x2477 JUMPI PUSH2 0x2476 PUSH2 0x24E1 JUMP JUMPDEST JUMPDEST PUSH1 0x1 DUP3 SUB SWAP1 POP SWAP2 SWAP1 POP JUMP JUMPDEST PUSH2 0x248B DUP3 PUSH2 0x256E JUMP JUMPDEST DUP2 ADD DUP2 DUP2 LT PUSH8 0xFFFFFFFFFFFFFFFF DUP3 GT OR ISZERO PUSH2 0x24AA JUMPI PUSH2 0x24A9 PUSH2 0x253F JUMP JUMPDEST JUMPDEST DUP1 PUSH1 0x40 MSTORE POP POP POP JUMP JUMPDEST PUSH1 0x0 PUSH2 0x24BE DUP3 PUSH2 0x24C5 JUMP JUMPDEST SWAP1 POP SWAP2 SWAP1 POP JUMP JUMPDEST PUSH1 0x0 PUSH2 0x24D0 DUP3 PUSH2 0x257F JUMP JUMPDEST SWAP1 POP SWAP2 SWAP1 POP JUMP JUMPDEST PUSH1 0x0 DUP2 SWAP1 POP SWAP2 SWAP1 POP JUMP JUMPDEST PUSH32 0x4E487B7100000000000000000000000000000000000000000000000000000000 PUSH1 0x0 MSTORE PUSH1 0x11 PUSH1 0x4 MSTORE PUSH1 0x24 PUSH1 0x0 REVERT JUMPDEST PUSH32 0x4E487B7100000000000000000000000000000000000000000000000000000000 PUSH1 0x0 MSTORE PUSH1 0x12 PUSH1 0x4 MSTORE PUSH1 0x24 PUSH1 0x0 REVERT JUMPDEST PUSH32 0x4E487B7100000000000000000000000000000000000000000000000000000000 PUSH1 0x0 MSTORE PUSH1 0x41 PUSH1 0x4 MSTORE PUSH1 0x24 PUSH1 0x0 REVERT JUMPDEST PUSH1 0x0 PUSH1 0x1F NOT PUSH1 0x1F DUP4 ADD AND SWAP1 POP SWAP2 SWAP1 POP JUMP JUMPDEST PUSH1 0x0 DUP2 PUSH1 0x60 SHL SWAP1 POP SWAP2 SWAP1 POP JUMP JUMPDEST PUSH32 0x537472696E67733A20686578206C656E67746820696E73756666696369656E74 PUSH1 0x0 DUP3 ADD MSTORE POP JUMP JUMPDEST PUSH32 0x4164647265737320000000000000000000000000000000000000000000000000 PUSH1 0x0 DUP3 ADD MSTORE POP JUMP JUMPDEST PUSH32 0x43616E6E6F74206D696E7420746F207472656173757279206164647265737320 PUSH1 0x0 DUP3 ADD MSTORE PUSH32 0x756E74696C2073616C652069732066696E697368656400000000000000000000 PUSH1 0x20 DUP3 ADD MSTORE POP JUMP JUMPDEST PUSH32 0x74696D657374616D70206973206E6F742075702D746F2D646174650000000000 PUSH1 0x0 DUP3 ADD MSTORE POP JUMP JUMPDEST PUSH32 0x53656E646572206973206E6F742053616C65204D616E61676572206F72204164 PUSH1 0x0 DUP3 ADD MSTORE PUSH32 0x6D696E0000000000000000000000000000000000000000000000000000000000 PUSH1 0x20 DUP3 ADD MSTORE POP JUMP JUMPDEST PUSH32 0x2500000000000000000000000000000000000000000000000000000000000000 PUSH1 0x0 DUP3 ADD MSTORE POP JUMP JUMPDEST PUSH32 0x20646F6573206E6F742068617665206120636F75706F6E207769746820612064 PUSH1 0x0 DUP3 ADD MSTORE PUSH32 0x6973636F756E742072617465206F662000000000000000000000000000000000 PUSH1 0x20 DUP3 ADD MSTORE POP JUMP JUMPDEST PUSH32 0x737461727454696D65206973206C61746572207468616E20656E6454696D6500 PUSH1 0x0 DUP3 ADD MSTORE POP JUMP JUMPDEST PUSH32 0x416363657373436F6E74726F6C3A206163636F756E7420000000000000000000 PUSH1 0x0 DUP3 ADD MSTORE POP JUMP JUMPDEST PUSH32 0x206973206D697373696E6720726F6C6520000000000000000000000000000000 PUSH1 0x0 DUP3 ADD MSTORE POP JUMP JUMPDEST PUSH32 0x416363657373436F6E74726F6C3A2063616E206F6E6C792072656E6F756E6365 PUSH1 0x0 DUP3 ADD MSTORE PUSH32 0x20726F6C657320666F722073656C660000000000000000000000000000000000 PUSH1 0x20 DUP3 ADD MSTORE POP JUMP JUMPDEST PUSH2 0x27F0 DUP2 PUSH2 0x232C JUMP JUMPDEST DUP2 EQ PUSH2 0x27FB JUMPI PUSH1 0x0 DUP1 REVERT JUMPDEST POP JUMP JUMPDEST PUSH2 0x2807 DUP2 PUSH2 0x233E JUMP JUMPDEST DUP2 EQ PUSH2 0x2812 JUMPI PUSH1 0x0 DUP1 REVERT JUMPDEST POP JUMP JUMPDEST PUSH2 0x281E DUP2 PUSH2 0x234A JUMP JUMPDEST DUP2 EQ PUSH2 0x2829 JUMPI PUSH1 0x0 DUP1 REVERT JUMPDEST POP JUMP JUMPDEST PUSH2 0x2835 DUP2 PUSH2 0x2354 JUMP JUMPDEST DUP2 EQ PUSH2 0x2840 JUMPI PUSH1 0x0 DUP1 REVERT JUMPDEST POP JUMP JUMPDEST PUSH2 0x284C DUP2 PUSH2 0x23A0 JUMP JUMPDEST DUP2 EQ PUSH2 0x2857 JUMPI PUSH1 0x0 DUP1 REVERT JUMPDEST POP JUMP INVALID LOG2 PUSH5 0x6970667358 0x22 SLT KECCAK256 0xC2 EXTCODESIZE CALL EXTCODECOPY 0xD3 0xCC SWAP1 EQ 0x27 PUSH5 0x6D374735DA 0xBA 0xB6 0xC4 SELFDESTRUCT SWAP16 0xA9 0xAA AND 0xB7 0xA7 EXTCODECOPY 0x48 0xC6 ADDMOD 0xBF 0xBB 0xE2 PUSH5 0x736F6C6343 STOP ADDMOD ADD STOP CALLER "
				},
				"gasEstimates": {
					"creation": {
						"codeDepositCost": "2076800",
						"executionCost": "infinite",
						"totalCost": "infinite"
					},
					"external": {
						"DEFAULT_ADMIN_ROLE()": "424",
						"ERC1155storageContract()": "1390",
						"SALE_MANAGER_ROLE()": "374",
						"URI_MANAGER_ROLE()": "418",
						"buyNFT()": "infinite",
						"buyNftWithDiscount(uint256)": "infinite",
						"calculateCustomPrice(address,uint256)": "infinite",
						"getMaxSupply()": "infinite",
						"getNextUnusedToken()": "infinite",
						"getRoleAdmin(bytes32)": "infinite",
						"grantRole(bytes32,address)": "infinite",
						"hasRole(bytes32,address)": "1885",
						"lastUpdate()": "infinite",
						"mintToTreasuryAddress()": "infinite",
						"preLoadURIs(uint256[],string[])": "infinite",
						"privilgedBuyerList()": "1324",
						"renounceRole(bytes32,address)": "infinite",
						"revokeRole(bytes32,address)": "infinite",
						"setEndTime(uint256)": "infinite",
						"setStorageContractAddress(address)": "infinite",
						"setstartTime(uint256)": "infinite",
						"supportsInterface(bytes4)": "751",
						"treasuryAddress()": "1280",
						"usdcEscrowStorageContract()": "1301"
					},
					"internal": {
						"_buyNFT(uint256)": "infinite",
						"mintNextNftToAddress(address)": "infinite",
						"updateState()": "infinite"
					}
				},
				"methodIdentifiers": {
					"DEFAULT_ADMIN_ROLE()": "a217fddf",
					"ERC1155storageContract()": "8c83faeb",
					"SALE_MANAGER_ROLE()": "551b42a8",
					"URI_MANAGER_ROLE()": "682d07d9",
					"buyNFT()": "bff29cee",
					"buyNftWithDiscount(uint256)": "4c9b73da",
					"calculateCustomPrice(address,uint256)": "ab6c0306",
					"getMaxSupply()": "4c0f38c2",
					"getNextUnusedToken()": "68fc01a2",
					"getRoleAdmin(bytes32)": "248a9ca3",
					"grantRole(bytes32,address)": "2f2ff15d",
					"hasRole(bytes32,address)": "91d14854",
					"lastUpdate()": "c0463711",
					"mintToTreasuryAddress()": "91232f18",
					"preLoadURIs(uint256[],string[])": "f121da92",
					"privilgedBuyerList()": "5ce7e721",
					"renounceRole(bytes32,address)": "36568abe",
					"revokeRole(bytes32,address)": "d547741f",
					"setEndTime(uint256)": "ccb98ffc",
					"setStorageContractAddress(address)": "51f7598c",
					"setstartTime(uint256)": "944044a1",
					"supportsInterface(bytes4)": "01ffc9a7",
					"treasuryAddress()": "c5f956af",
					"usdcEscrowStorageContract()": "c5dae48f"
				}
			},
			"storageLayout": {
				"storage": [
					{
						"astId": 24,
						"contract": "contracts/Founding Citizens NFT Sale.sol:FoundingNFTSale",
						"label": "_roles",
						"offset": 0,
						"slot": "0",
						"type": "t_mapping(t_bytes32,t_struct(RoleData)19_storage)"
					},
					{
						"astId": 835,
						"contract": "contracts/Founding Citizens NFT Sale.sol:FoundingNFTSale",
						"label": "ERC1155storageContract",
						"offset": 0,
						"slot": "1",
						"type": "t_contract(IMintStorage)768"
					},
					{
						"astId": 838,
						"contract": "contracts/Founding Citizens NFT Sale.sol:FoundingNFTSale",
						"label": "privilgedBuyerList",
						"offset": 0,
						"slot": "2",
						"type": "t_contract(IPrivilegedListStorage)799"
					},
					{
						"astId": 841,
						"contract": "contracts/Founding Citizens NFT Sale.sol:FoundingNFTSale",
						"label": "usdcEscrowStorageContract",
						"offset": 0,
						"slot": "3",
						"type": "t_contract(IUsdcStorage)830"
					},
					{
						"astId": 843,
						"contract": "contracts/Founding Citizens NFT Sale.sol:FoundingNFTSale",
						"label": "treasuryAddress",
						"offset": 0,
						"slot": "4",
						"type": "t_address"
					},
					{
						"astId": 856,
						"contract": "contracts/Founding Citizens NFT Sale.sol:FoundingNFTSale",
						"label": "startTime",
						"offset": 0,
						"slot": "5",
						"type": "t_uint256"
					},
					{
						"astId": 859,
						"contract": "contracts/Founding Citizens NFT Sale.sol:FoundingNFTSale",
						"label": "endTime",
						"offset": 0,
						"slot": "6",
						"type": "t_uint256"
					},
					{
						"astId": 869,
						"contract": "contracts/Founding Citizens NFT Sale.sol:FoundingNFTSale",
						"label": "startPrice",
						"offset": 0,
						"slot": "7",
						"type": "t_uint256"
					},
					{
						"astId": 874,
						"contract": "contracts/Founding Citizens NFT Sale.sol:FoundingNFTSale",
						"label": "EndPrice",
						"offset": 0,
						"slot": "8",
						"type": "t_uint256"
					},
					{
						"astId": 895,
						"contract": "contracts/Founding Citizens NFT Sale.sol:FoundingNFTSale",
						"label": "lastUpdate",
						"offset": 0,
						"slot": "9",
						"type": "t_struct(Update)886_storage"
					}
				],
				"types": {
					"t_address": {
						"encoding": "inplace",
						"label": "address",
						"numberOfBytes": "20"
					},
					"t_bool": {
						"encoding": "inplace",
						"label": "bool",
						"numberOfBytes": "1"
					},
					"t_bytes32": {
						"encoding": "inplace",
						"label": "bytes32",
						"numberOfBytes": "32"
					},
					"t_contract(IMintStorage)768": {
						"encoding": "inplace",
						"label": "contract IMintStorage",
						"numberOfBytes": "20"
					},
					"t_contract(IPrivilegedListStorage)799": {
						"encoding": "inplace",
						"label": "contract IPrivilegedListStorage",
						"numberOfBytes": "20"
					},
					"t_contract(IUsdcStorage)830": {
						"encoding": "inplace",
						"label": "contract IUsdcStorage",
						"numberOfBytes": "20"
					},
					"t_mapping(t_address,t_bool)": {
						"encoding": "mapping",
						"key": "t_address",
						"label": "mapping(address => bool)",
						"numberOfBytes": "32",
						"value": "t_bool"
					},
					"t_mapping(t_bytes32,t_struct(RoleData)19_storage)": {
						"encoding": "mapping",
						"key": "t_bytes32",
						"label": "mapping(bytes32 => struct AccessControl.RoleData)",
						"numberOfBytes": "32",
						"value": "t_struct(RoleData)19_storage"
					},
					"t_struct(RoleData)19_storage": {
						"encoding": "inplace",
						"label": "struct AccessControl.RoleData",
						"members": [
							{
								"astId": 16,
								"contract": "contracts/Founding Citizens NFT Sale.sol:FoundingNFTSale",
								"label": "members",
								"offset": 0,
								"slot": "0",
								"type": "t_mapping(t_address,t_bool)"
							},
							{
								"astId": 18,
								"contract": "contracts/Founding Citizens NFT Sale.sol:FoundingNFTSale",
								"label": "adminRole",
								"offset": 0,
								"slot": "1",
								"type": "t_bytes32"
							}
						],
						"numberOfBytes": "64"
					},
					"t_struct(Update)886_storage": {
						"encoding": "inplace",
						"label": "struct FoundingNFTSale.Update",
						"members": [
							{
								"astId": 881,
								"contract": "contracts/Founding Citizens NFT Sale.sol:FoundingNFTSale",
								"label": "price",
								"offset": 0,
								"slot": "0",
								"type": "t_uint256"
							},
							{
								"astId": 883,
								"contract": "contracts/Founding Citizens NFT Sale.sol:FoundingNFTSale",
								"label": "time",
								"offset": 0,
								"slot": "1",
								"type": "t_uint256"
							},
							{
								"astId": 885,
								"contract": "contracts/Founding Citizens NFT Sale.sol:FoundingNFTSale",
								"label": "saleIsLive",
								"offset": 0,
								"slot": "2",
								"type": "t_bool"
							}
						],
						"numberOfBytes": "96"
					},
					"t_uint256": {
						"encoding": "inplace",
						"label": "uint256",
						"numberOfBytes": "32"
					}
				}
			},
			"userdoc": {
				"kind": "user",
				"methods": {},
				"version": 1
			}
		}
	}
}