{
	"contracts/Founding Citizens NFT Sale.sol": {
		"FoundingNFTSale": {
			"abi": [
				{
					"anonymous": false,
					"inputs": [
						{
							"indexed": true,
							"internalType": "address",
							"name": "previousOwner",
							"type": "address"
						},
						{
							"indexed": true,
							"internalType": "address",
							"name": "newOwner",
							"type": "address"
						}
					],
					"name": "OwnershipTransferred",
					"type": "event"
				},
				{
					"inputs": [],
					"name": "buyNFT",
					"outputs": [],
					"stateMutability": "payable",
					"type": "function"
				},
				{
					"inputs": [],
					"name": "lastUpdate",
					"outputs": [
						{
							"internalType": "uint256",
							"name": "price",
							"type": "uint256"
						},
						{
							"internalType": "uint256",
							"name": "time",
							"type": "uint256"
						},
						{
							"internalType": "bool",
							"name": "saleIsLive",
							"type": "bool"
						}
					],
					"stateMutability": "view",
					"type": "function"
				},
				{
					"inputs": [],
					"name": "owner",
					"outputs": [
						{
							"internalType": "address",
							"name": "",
							"type": "address"
						}
					],
					"stateMutability": "view",
					"type": "function"
				},
				{
					"inputs": [
						{
							"internalType": "uint256[]",
							"name": "ids",
							"type": "uint256[]"
						},
						{
							"internalType": "string[]",
							"name": "uris",
							"type": "string[]"
						}
					],
					"name": "preLoadURIs",
					"outputs": [],
					"stateMutability": "nonpayable",
					"type": "function"
				},
				{
					"inputs": [],
					"name": "renounceOwnership",
					"outputs": [],
					"stateMutability": "nonpayable",
					"type": "function"
				},
				{
					"inputs": [
						{
							"internalType": "uint256",
							"name": "unixTime",
							"type": "uint256"
						}
					],
					"name": "setSaleEnd",
					"outputs": [],
					"stateMutability": "nonpayable",
					"type": "function"
				},
				{
					"inputs": [
						{
							"internalType": "uint256",
							"name": "unixTime",
							"type": "uint256"
						}
					],
					"name": "setSaleStart",
					"outputs": [],
					"stateMutability": "nonpayable",
					"type": "function"
				},
				{
					"inputs": [
						{
							"internalType": "address",
							"name": "storageAddress",
							"type": "address"
						}
					],
					"name": "setStorageContractAddress",
					"outputs": [],
					"stateMutability": "nonpayable",
					"type": "function"
				},
				{
					"inputs": [],
					"name": "storageContract",
					"outputs": [
						{
							"internalType": "address",
							"name": "",
							"type": "address"
						}
					],
					"stateMutability": "view",
					"type": "function"
				},
				{
					"inputs": [
						{
							"internalType": "address",
							"name": "newOwner",
							"type": "address"
						}
					],
					"name": "transferOwnership",
					"outputs": [],
					"stateMutability": "nonpayable",
					"type": "function"
				}
			],
			"devdoc": {
				"kind": "dev",
				"methods": {
					"owner()": {
						"details": "Returns the address of the current owner."
					},
					"renounceOwnership()": {
						"details": "Leaves the contract without owner. It will not be possible to call `onlyOwner` functions anymore. Can only be called by the current owner. NOTE: Renouncing ownership will leave the contract without an owner, thereby removing any functionality that is only available to the owner."
					},
					"transferOwnership(address)": {
						"details": "Transfers ownership of the contract to a new account (`newOwner`). Can only be called by the current owner."
					}
				},
				"version": 1
			},
			"evm": {
				"assembly": "    /* \"contracts/Founding Citizens NFT Sale.sol\":1959:3490  contract FoundingNFTSale is Ownable {\r... */\n  mstore(0x40, 0x80)\n    /* \"contracts/Founding Citizens NFT Sale.sol\":2058:2068  1893484800 */\n  0x70dc4900\n    /* \"contracts/Founding Citizens NFT Sale.sol\":2041:2068  uint saleStart = 1893484800 */\n  0x02\n  sstore\n    /* \"contracts/Founding Citizens NFT Sale.sol\":2296:2333  Update(10000, block.timestamp, false) */\n  mload(0x40)\n  dup1\n  0x60\n  add\n  0x40\n  mstore\n  dup1\n    /* \"contracts/Founding Citizens NFT Sale.sol\":2303:2308  10000 */\n  0x2710\n    /* \"contracts/Founding Citizens NFT Sale.sol\":2296:2333  Update(10000, block.timestamp, false) */\n  dup2\n  mstore\n  0x20\n  add\n    /* \"contracts/Founding Citizens NFT Sale.sol\":2310:2325  block.timestamp */\n  timestamp\n    /* \"contracts/Founding Citizens NFT Sale.sol\":2296:2333  Update(10000, block.timestamp, false) */\n  dup2\n  mstore\n  0x20\n  add\n    /* \"contracts/Founding Citizens NFT Sale.sol\":2327:2332  false */\n  0x00\n    /* \"contracts/Founding Citizens NFT Sale.sol\":2296:2333  Update(10000, block.timestamp, false) */\n  iszero\n  iszero\n  dup2\n  mstore\n  pop\n    /* \"contracts/Founding Citizens NFT Sale.sol\":2269:2333  Update public lastUpdate = Update(10000, block.timestamp, false) */\n  0x04\n  0x00\n  dup3\n  add\n  mload\n  dup2\n  0x00\n  add\n  sstore\n  0x20\n  dup3\n  add\n  mload\n  dup2\n  0x01\n  add\n  sstore\n  0x40\n  dup3\n  add\n  mload\n  dup2\n  0x02\n  add\n  exp(0x0100, 0x00)\n  dup2\n  sload\n  dup2\n  0xff\n  mul\n  not\n  and\n  swap1\n  dup4\n  iszero\n  iszero\n  mul\n  or\n  swap1\n  sstore\n  pop\n  pop\n  pop\n    /* \"contracts/Founding Citizens NFT Sale.sol\":1959:3490  contract FoundingNFTSale is Ownable {\r... */\n  callvalue\n  dup1\n  iszero\n  tag_1\n  jumpi\n  0x00\n  dup1\n  revert\ntag_1:\n  pop\n    /* \"@openzeppelin/contracts@4.4.2/access/Ownable.sol\":921:953  _transferOwnership(_msgSender()) */\n  tag_4\n    /* \"@openzeppelin/contracts@4.4.2/access/Ownable.sol\":940:952  _msgSender() */\n  tag_5\n    /* \"@openzeppelin/contracts@4.4.2/access/Ownable.sol\":940:950  _msgSender */\n  shl(0x20, tag_6)\n    /* \"@openzeppelin/contracts@4.4.2/access/Ownable.sol\":940:952  _msgSender() */\n  0x20\n  shr\n  jump\t// in\ntag_5:\n    /* \"@openzeppelin/contracts@4.4.2/access/Ownable.sol\":921:939  _transferOwnership */\n  shl(0x20, tag_7)\n    /* \"@openzeppelin/contracts@4.4.2/access/Ownable.sol\":921:953  _transferOwnership(_msgSender()) */\n  0x20\n  shr\n  jump\t// in\ntag_4:\n    /* \"contracts/Founding Citizens NFT Sale.sol\":1959:3490  contract FoundingNFTSale is Ownable {\r... */\n  jump(tag_8)\n    /* \"@openzeppelin/contracts@4.4.2/utils/Context.sol\":640:736  function _msgSender() internal view virtual returns (address) {... */\ntag_6:\n    /* \"@openzeppelin/contracts@4.4.2/utils/Context.sol\":693:700  address */\n  0x00\n    /* \"@openzeppelin/contracts@4.4.2/utils/Context.sol\":719:729  msg.sender */\n  caller\n    /* \"@openzeppelin/contracts@4.4.2/utils/Context.sol\":712:729  return msg.sender */\n  swap1\n  pop\n    /* \"@openzeppelin/contracts@4.4.2/utils/Context.sol\":640:736  function _msgSender() internal view virtual returns (address) {... */\n  swap1\n  jump\t// out\n    /* \"@openzeppelin/contracts@4.4.2/access/Ownable.sol\":2270:2457  function _transferOwnership(address newOwner) internal virtual {... */\ntag_7:\n    /* \"@openzeppelin/contracts@4.4.2/access/Ownable.sol\":2343:2359  address oldOwner */\n  0x00\n    /* \"@openzeppelin/contracts@4.4.2/access/Ownable.sol\":2362:2368  _owner */\n  dup1\n  0x00\n  swap1\n  sload\n  swap1\n  0x0100\n  exp\n  swap1\n  div\n  0xffffffffffffffffffffffffffffffffffffffff\n  and\n    /* \"@openzeppelin/contracts@4.4.2/access/Ownable.sol\":2343:2368  address oldOwner = _owner */\n  swap1\n  pop\n    /* \"@openzeppelin/contracts@4.4.2/access/Ownable.sol\":2387:2395  newOwner */\n  dup2\n    /* \"@openzeppelin/contracts@4.4.2/access/Ownable.sol\":2378:2384  _owner */\n  0x00\n  dup1\n    /* \"@openzeppelin/contracts@4.4.2/access/Ownable.sol\":2378:2395  _owner = newOwner */\n  0x0100\n  exp\n  dup2\n  sload\n  dup2\n  0xffffffffffffffffffffffffffffffffffffffff\n  mul\n  not\n  and\n  swap1\n  dup4\n  0xffffffffffffffffffffffffffffffffffffffff\n  and\n  mul\n  or\n  swap1\n  sstore\n  pop\n    /* \"@openzeppelin/contracts@4.4.2/access/Ownable.sol\":2441:2449  newOwner */\n  dup2\n    /* \"@openzeppelin/contracts@4.4.2/access/Ownable.sol\":2410:2450  OwnershipTransferred(oldOwner, newOwner) */\n  0xffffffffffffffffffffffffffffffffffffffff\n  and\n    /* \"@openzeppelin/contracts@4.4.2/access/Ownable.sol\":2431:2439  oldOwner */\n  dup2\n    /* \"@openzeppelin/contracts@4.4.2/access/Ownable.sol\":2410:2450  OwnershipTransferred(oldOwner, newOwner) */\n  0xffffffffffffffffffffffffffffffffffffffff\n  and\n  0x8be0079c531659141344cd1fd0a4f28419497f9722a3daafe3b4186f6b6457e0\n  mload(0x40)\n  mload(0x40)\n  dup1\n  swap2\n  sub\n  swap1\n  log3\n    /* \"@openzeppelin/contracts@4.4.2/access/Ownable.sol\":2270:2457  function _transferOwnership(address newOwner) internal virtual {... */\n  pop\n  pop\n  jump\t// out\n    /* \"contracts/Founding Citizens NFT Sale.sol\":1959:3490  contract FoundingNFTSale is Ownable {\r... */\ntag_8:\n  dataSize(sub_0)\n  dup1\n  dataOffset(sub_0)\n  0x00\n  codecopy\n  0x00\n  return\nstop\n\nsub_0: assembly {\n        /* \"contracts/Founding Citizens NFT Sale.sol\":1959:3490  contract FoundingNFTSale is Ownable {\r... */\n      mstore(0x40, 0x80)\n      jumpi(tag_1, lt(calldatasize, 0x04))\n      shr(0xe0, calldataload(0x00))\n      dup1\n      0x8da5cb5b\n      gt\n      tag_12\n      jumpi\n      dup1\n      0x8da5cb5b\n      eq\n      tag_7\n      jumpi\n      dup1\n      0xbff29cee\n      eq\n      tag_8\n      jumpi\n      dup1\n      0xc0463711\n      eq\n      tag_9\n      jumpi\n      dup1\n      0xf121da92\n      eq\n      tag_10\n      jumpi\n      dup1\n      0xf2fde38b\n      eq\n      tag_11\n      jumpi\n      jump(tag_1)\n    tag_12:\n      dup1\n      0x11ce0267\n      eq\n      tag_2\n      jumpi\n      dup1\n      0x1515fa6e\n      eq\n      tag_3\n      jumpi\n      dup1\n      0x2f181f54\n      eq\n      tag_4\n      jumpi\n      dup1\n      0x51f7598c\n      eq\n      tag_5\n      jumpi\n      dup1\n      0x715018a6\n      eq\n      tag_6\n      jumpi\n    tag_1:\n      0x00\n      dup1\n      revert\n        /* \"contracts/Founding Citizens NFT Sale.sol\":2002:2032  address public storageContract */\n    tag_2:\n      callvalue\n      dup1\n      iszero\n      tag_13\n      jumpi\n      0x00\n      dup1\n      revert\n    tag_13:\n      pop\n      tag_14\n      tag_15\n      jump\t// in\n    tag_14:\n      mload(0x40)\n      tag_16\n      swap2\n      swap1\n      tag_17\n      jump\t// in\n    tag_16:\n      mload(0x40)\n      dup1\n      swap2\n      sub\n      swap1\n      return\n        /* \"contracts/Founding Citizens NFT Sale.sol\":3347:3436  function setSaleEnd(uint unixTime) public onlyOwner {\r... */\n    tag_3:\n      callvalue\n      dup1\n      iszero\n      tag_18\n      jumpi\n      0x00\n      dup1\n      revert\n    tag_18:\n      pop\n      tag_19\n      0x04\n      dup1\n      calldatasize\n      sub\n      dup2\n      add\n      swap1\n      tag_20\n      swap2\n      swap1\n      tag_21\n      jump\t// in\n    tag_20:\n      tag_22\n      jump\t// in\n    tag_19:\n      stop\n        /* \"contracts/Founding Citizens NFT Sale.sol\":3246:3339  function setSaleStart(uint unixTime) public onlyOwner {\r... */\n    tag_4:\n      callvalue\n      dup1\n      iszero\n      tag_23\n      jumpi\n      0x00\n      dup1\n      revert\n    tag_23:\n      pop\n      tag_24\n      0x04\n      dup1\n      calldatasize\n      sub\n      dup2\n      add\n      swap1\n      tag_25\n      swap2\n      swap1\n      tag_21\n      jump\t// in\n    tag_25:\n      tag_26\n      jump\t// in\n    tag_24:\n      stop\n        /* \"contracts/Founding Citizens NFT Sale.sol\":2821:2948  function setStorageContractAddress(address storageAddress) public onlyOwner {\r... */\n    tag_5:\n      callvalue\n      dup1\n      iszero\n      tag_27\n      jumpi\n      0x00\n      dup1\n      revert\n    tag_27:\n      pop\n      tag_28\n      0x04\n      dup1\n      calldatasize\n      sub\n      dup2\n      add\n      swap1\n      tag_29\n      swap2\n      swap1\n      tag_30\n      jump\t// in\n    tag_29:\n      tag_31\n      jump\t// in\n    tag_28:\n      stop\n        /* \"@openzeppelin/contracts@4.4.2/access/Ownable.sol\":1668:1769  function renounceOwnership() public virtual onlyOwner {... */\n    tag_6:\n      callvalue\n      dup1\n      iszero\n      tag_32\n      jumpi\n      0x00\n      dup1\n      revert\n    tag_32:\n      pop\n      tag_33\n      tag_34\n      jump\t// in\n    tag_33:\n      stop\n        /* \"@openzeppelin/contracts@4.4.2/access/Ownable.sol\":1036:1121  function owner() public view virtual returns (address) {... */\n    tag_7:\n      callvalue\n      dup1\n      iszero\n      tag_35\n      jumpi\n      0x00\n      dup1\n      revert\n    tag_35:\n      pop\n      tag_36\n      tag_37\n      jump\t// in\n    tag_36:\n      mload(0x40)\n      tag_38\n      swap2\n      swap1\n      tag_17\n      jump\t// in\n    tag_38:\n      mload(0x40)\n      dup1\n      swap2\n      sub\n      swap1\n      return\n        /* \"contracts/Founding Citizens NFT Sale.sol\":3444:3487  function buyNFT() public payable {\r... */\n    tag_8:\n      tag_39\n      tag_40\n      jump\t// in\n    tag_39:\n      stop\n        /* \"contracts/Founding Citizens NFT Sale.sol\":2269:2333  Update public lastUpdate = Update(10000, block.timestamp, false) */\n    tag_9:\n      callvalue\n      dup1\n      iszero\n      tag_41\n      jumpi\n      0x00\n      dup1\n      revert\n    tag_41:\n      pop\n      tag_42\n      tag_43\n      jump\t// in\n    tag_42:\n      mload(0x40)\n      tag_44\n      swap4\n      swap3\n      swap2\n      swap1\n      tag_45\n      jump\t// in\n    tag_44:\n      mload(0x40)\n      dup1\n      swap2\n      sub\n      swap1\n      return\n        /* \"contracts/Founding Citizens NFT Sale.sol\":3088:3238  function preLoadURIs(uint[] memory ids, string[] memory uris) public onlyOwner {\r... */\n    tag_10:\n      callvalue\n      dup1\n      iszero\n      tag_46\n      jumpi\n      0x00\n      dup1\n      revert\n    tag_46:\n      pop\n      tag_47\n      0x04\n      dup1\n      calldatasize\n      sub\n      dup2\n      add\n      swap1\n      tag_48\n      swap2\n      swap1\n      tag_49\n      jump\t// in\n    tag_48:\n      tag_50\n      jump\t// in\n    tag_47:\n      stop\n        /* \"@openzeppelin/contracts@4.4.2/access/Ownable.sol\":1918:2116  function transferOwnership(address newOwner) public virtual onlyOwner {... */\n    tag_11:\n      callvalue\n      dup1\n      iszero\n      tag_51\n      jumpi\n      0x00\n      dup1\n      revert\n    tag_51:\n      pop\n      tag_52\n      0x04\n      dup1\n      calldatasize\n      sub\n      dup2\n      add\n      swap1\n      tag_53\n      swap2\n      swap1\n      tag_30\n      jump\t// in\n    tag_53:\n      tag_54\n      jump\t// in\n    tag_52:\n      stop\n        /* \"contracts/Founding Citizens NFT Sale.sol\":2002:2032  address public storageContract */\n    tag_15:\n      0x01\n      0x00\n      swap1\n      sload\n      swap1\n      0x0100\n      exp\n      swap1\n      div\n      0xffffffffffffffffffffffffffffffffffffffff\n      and\n      dup2\n      jump\t// out\n        /* \"contracts/Founding Citizens NFT Sale.sol\":3347:3436  function setSaleEnd(uint unixTime) public onlyOwner {\r... */\n    tag_22:\n        /* \"@openzeppelin/contracts@4.4.2/access/Ownable.sol\":1259:1271  _msgSender() */\n      tag_56\n        /* \"@openzeppelin/contracts@4.4.2/access/Ownable.sol\":1259:1269  _msgSender */\n      tag_57\n        /* \"@openzeppelin/contracts@4.4.2/access/Ownable.sol\":1259:1271  _msgSender() */\n      jump\t// in\n    tag_56:\n        /* \"@openzeppelin/contracts@4.4.2/access/Ownable.sol\":1248:1271  owner() == _msgSender() */\n      0xffffffffffffffffffffffffffffffffffffffff\n      and\n        /* \"@openzeppelin/contracts@4.4.2/access/Ownable.sol\":1248:1255  owner() */\n      tag_58\n        /* \"@openzeppelin/contracts@4.4.2/access/Ownable.sol\":1248:1253  owner */\n      tag_37\n        /* \"@openzeppelin/contracts@4.4.2/access/Ownable.sol\":1248:1255  owner() */\n      jump\t// in\n    tag_58:\n        /* \"@openzeppelin/contracts@4.4.2/access/Ownable.sol\":1248:1271  owner() == _msgSender() */\n      0xffffffffffffffffffffffffffffffffffffffff\n      and\n      eq\n        /* \"@openzeppelin/contracts@4.4.2/access/Ownable.sol\":1240:1308  require(owner() == _msgSender(), \"Ownable: caller is not the owner\") */\n      tag_59\n      jumpi\n      mload(0x40)\n      0x08c379a000000000000000000000000000000000000000000000000000000000\n      dup2\n      mstore\n      0x04\n      add\n      tag_60\n      swap1\n      tag_61\n      jump\t// in\n    tag_60:\n      mload(0x40)\n      dup1\n      swap2\n      sub\n      swap1\n      revert\n    tag_59:\n        /* \"contracts/Founding Citizens NFT Sale.sol\":3420:3428  unixTime */\n      dup1\n        /* \"contracts/Founding Citizens NFT Sale.sol\":3410:3417  saleEnd */\n      0x03\n        /* \"contracts/Founding Citizens NFT Sale.sol\":3410:3428  saleEnd = unixTime */\n      dup2\n      swap1\n      sstore\n      pop\n        /* \"contracts/Founding Citizens NFT Sale.sol\":3347:3436  function setSaleEnd(uint unixTime) public onlyOwner {\r... */\n      pop\n      jump\t// out\n        /* \"contracts/Founding Citizens NFT Sale.sol\":3246:3339  function setSaleStart(uint unixTime) public onlyOwner {\r... */\n    tag_26:\n        /* \"@openzeppelin/contracts@4.4.2/access/Ownable.sol\":1259:1271  _msgSender() */\n      tag_64\n        /* \"@openzeppelin/contracts@4.4.2/access/Ownable.sol\":1259:1269  _msgSender */\n      tag_57\n        /* \"@openzeppelin/contracts@4.4.2/access/Ownable.sol\":1259:1271  _msgSender() */\n      jump\t// in\n    tag_64:\n        /* \"@openzeppelin/contracts@4.4.2/access/Ownable.sol\":1248:1271  owner() == _msgSender() */\n      0xffffffffffffffffffffffffffffffffffffffff\n      and\n        /* \"@openzeppelin/contracts@4.4.2/access/Ownable.sol\":1248:1255  owner() */\n      tag_65\n        /* \"@openzeppelin/contracts@4.4.2/access/Ownable.sol\":1248:1253  owner */\n      tag_37\n        /* \"@openzeppelin/contracts@4.4.2/access/Ownable.sol\":1248:1255  owner() */\n      jump\t// in\n    tag_65:\n        /* \"@openzeppelin/contracts@4.4.2/access/Ownable.sol\":1248:1271  owner() == _msgSender() */\n      0xffffffffffffffffffffffffffffffffffffffff\n      and\n      eq\n        /* \"@openzeppelin/contracts@4.4.2/access/Ownable.sol\":1240:1308  require(owner() == _msgSender(), \"Ownable: caller is not the owner\") */\n      tag_66\n      jumpi\n      mload(0x40)\n      0x08c379a000000000000000000000000000000000000000000000000000000000\n      dup2\n      mstore\n      0x04\n      add\n      tag_67\n      swap1\n      tag_61\n      jump\t// in\n    tag_67:\n      mload(0x40)\n      dup1\n      swap2\n      sub\n      swap1\n      revert\n    tag_66:\n        /* \"contracts/Founding Citizens NFT Sale.sol\":3323:3331  unixTime */\n      dup1\n        /* \"contracts/Founding Citizens NFT Sale.sol\":3311:3320  saleStart */\n      0x02\n        /* \"contracts/Founding Citizens NFT Sale.sol\":3311:3331  saleStart = unixTime */\n      dup2\n      swap1\n      sstore\n      pop\n        /* \"contracts/Founding Citizens NFT Sale.sol\":3246:3339  function setSaleStart(uint unixTime) public onlyOwner {\r... */\n      pop\n      jump\t// out\n        /* \"contracts/Founding Citizens NFT Sale.sol\":2821:2948  function setStorageContractAddress(address storageAddress) public onlyOwner {\r... */\n    tag_31:\n        /* \"@openzeppelin/contracts@4.4.2/access/Ownable.sol\":1259:1271  _msgSender() */\n      tag_70\n        /* \"@openzeppelin/contracts@4.4.2/access/Ownable.sol\":1259:1269  _msgSender */\n      tag_57\n        /* \"@openzeppelin/contracts@4.4.2/access/Ownable.sol\":1259:1271  _msgSender() */\n      jump\t// in\n    tag_70:\n        /* \"@openzeppelin/contracts@4.4.2/access/Ownable.sol\":1248:1271  owner() == _msgSender() */\n      0xffffffffffffffffffffffffffffffffffffffff\n      and\n        /* \"@openzeppelin/contracts@4.4.2/access/Ownable.sol\":1248:1255  owner() */\n      tag_71\n        /* \"@openzeppelin/contracts@4.4.2/access/Ownable.sol\":1248:1253  owner */\n      tag_37\n        /* \"@openzeppelin/contracts@4.4.2/access/Ownable.sol\":1248:1255  owner() */\n      jump\t// in\n    tag_71:\n        /* \"@openzeppelin/contracts@4.4.2/access/Ownable.sol\":1248:1271  owner() == _msgSender() */\n      0xffffffffffffffffffffffffffffffffffffffff\n      and\n      eq\n        /* \"@openzeppelin/contracts@4.4.2/access/Ownable.sol\":1240:1308  require(owner() == _msgSender(), \"Ownable: caller is not the owner\") */\n      tag_72\n      jumpi\n      mload(0x40)\n      0x08c379a000000000000000000000000000000000000000000000000000000000\n      dup2\n      mstore\n      0x04\n      add\n      tag_73\n      swap1\n      tag_61\n      jump\t// in\n    tag_73:\n      mload(0x40)\n      dup1\n      swap2\n      sub\n      swap1\n      revert\n    tag_72:\n        /* \"contracts/Founding Citizens NFT Sale.sol\":2926:2940  storageAddress */\n      dup1\n        /* \"contracts/Founding Citizens NFT Sale.sol\":2908:2923  storageContract */\n      0x01\n      0x00\n        /* \"contracts/Founding Citizens NFT Sale.sol\":2908:2940  storageContract = storageAddress */\n      0x0100\n      exp\n      dup2\n      sload\n      dup2\n      0xffffffffffffffffffffffffffffffffffffffff\n      mul\n      not\n      and\n      swap1\n      dup4\n      0xffffffffffffffffffffffffffffffffffffffff\n      and\n      mul\n      or\n      swap1\n      sstore\n      pop\n        /* \"contracts/Founding Citizens NFT Sale.sol\":2821:2948  function setStorageContractAddress(address storageAddress) public onlyOwner {\r... */\n      pop\n      jump\t// out\n        /* \"@openzeppelin/contracts@4.4.2/access/Ownable.sol\":1668:1769  function renounceOwnership() public virtual onlyOwner {... */\n    tag_34:\n        /* \"@openzeppelin/contracts@4.4.2/access/Ownable.sol\":1259:1271  _msgSender() */\n      tag_76\n        /* \"@openzeppelin/contracts@4.4.2/access/Ownable.sol\":1259:1269  _msgSender */\n      tag_57\n        /* \"@openzeppelin/contracts@4.4.2/access/Ownable.sol\":1259:1271  _msgSender() */\n      jump\t// in\n    tag_76:\n        /* \"@openzeppelin/contracts@4.4.2/access/Ownable.sol\":1248:1271  owner() == _msgSender() */\n      0xffffffffffffffffffffffffffffffffffffffff\n      and\n        /* \"@openzeppelin/contracts@4.4.2/access/Ownable.sol\":1248:1255  owner() */\n      tag_77\n        /* \"@openzeppelin/contracts@4.4.2/access/Ownable.sol\":1248:1253  owner */\n      tag_37\n        /* \"@openzeppelin/contracts@4.4.2/access/Ownable.sol\":1248:1255  owner() */\n      jump\t// in\n    tag_77:\n        /* \"@openzeppelin/contracts@4.4.2/access/Ownable.sol\":1248:1271  owner() == _msgSender() */\n      0xffffffffffffffffffffffffffffffffffffffff\n      and\n      eq\n        /* \"@openzeppelin/contracts@4.4.2/access/Ownable.sol\":1240:1308  require(owner() == _msgSender(), \"Ownable: caller is not the owner\") */\n      tag_78\n      jumpi\n      mload(0x40)\n      0x08c379a000000000000000000000000000000000000000000000000000000000\n      dup2\n      mstore\n      0x04\n      add\n      tag_79\n      swap1\n      tag_61\n      jump\t// in\n    tag_79:\n      mload(0x40)\n      dup1\n      swap2\n      sub\n      swap1\n      revert\n    tag_78:\n        /* \"@openzeppelin/contracts@4.4.2/access/Ownable.sol\":1732:1762  _transferOwnership(address(0)) */\n      tag_81\n        /* \"@openzeppelin/contracts@4.4.2/access/Ownable.sol\":1759:1760  0 */\n      0x00\n        /* \"@openzeppelin/contracts@4.4.2/access/Ownable.sol\":1732:1750  _transferOwnership */\n      tag_82\n        /* \"@openzeppelin/contracts@4.4.2/access/Ownable.sol\":1732:1762  _transferOwnership(address(0)) */\n      jump\t// in\n    tag_81:\n        /* \"@openzeppelin/contracts@4.4.2/access/Ownable.sol\":1668:1769  function renounceOwnership() public virtual onlyOwner {... */\n      jump\t// out\n        /* \"@openzeppelin/contracts@4.4.2/access/Ownable.sol\":1036:1121  function owner() public view virtual returns (address) {... */\n    tag_37:\n        /* \"@openzeppelin/contracts@4.4.2/access/Ownable.sol\":1082:1089  address */\n      0x00\n        /* \"@openzeppelin/contracts@4.4.2/access/Ownable.sol\":1108:1114  _owner */\n      dup1\n      0x00\n      swap1\n      sload\n      swap1\n      0x0100\n      exp\n      swap1\n      div\n      0xffffffffffffffffffffffffffffffffffffffff\n      and\n        /* \"@openzeppelin/contracts@4.4.2/access/Ownable.sol\":1101:1114  return _owner */\n      swap1\n      pop\n        /* \"@openzeppelin/contracts@4.4.2/access/Ownable.sol\":1036:1121  function owner() public view virtual returns (address) {... */\n      swap1\n      jump\t// out\n        /* \"contracts/Founding Citizens NFT Sale.sol\":3444:3487  function buyNFT() public payable {\r... */\n    tag_40:\n      jump\t// out\n        /* \"contracts/Founding Citizens NFT Sale.sol\":2269:2333  Update public lastUpdate = Update(10000, block.timestamp, false) */\n    tag_43:\n      0x04\n      dup1\n      0x00\n      add\n      sload\n      swap1\n      dup1\n      0x01\n      add\n      sload\n      swap1\n      dup1\n      0x02\n      add\n      0x00\n      swap1\n      sload\n      swap1\n      0x0100\n      exp\n      swap1\n      div\n      0xff\n      and\n      swap1\n      pop\n      dup4\n      jump\t// out\n        /* \"contracts/Founding Citizens NFT Sale.sol\":3088:3238  function preLoadURIs(uint[] memory ids, string[] memory uris) public onlyOwner {\r... */\n    tag_50:\n        /* \"@openzeppelin/contracts@4.4.2/access/Ownable.sol\":1259:1271  _msgSender() */\n      tag_86\n        /* \"@openzeppelin/contracts@4.4.2/access/Ownable.sol\":1259:1269  _msgSender */\n      tag_57\n        /* \"@openzeppelin/contracts@4.4.2/access/Ownable.sol\":1259:1271  _msgSender() */\n      jump\t// in\n    tag_86:\n        /* \"@openzeppelin/contracts@4.4.2/access/Ownable.sol\":1248:1271  owner() == _msgSender() */\n      0xffffffffffffffffffffffffffffffffffffffff\n      and\n        /* \"@openzeppelin/contracts@4.4.2/access/Ownable.sol\":1248:1255  owner() */\n      tag_87\n        /* \"@openzeppelin/contracts@4.4.2/access/Ownable.sol\":1248:1253  owner */\n      tag_37\n        /* \"@openzeppelin/contracts@4.4.2/access/Ownable.sol\":1248:1255  owner() */\n      jump\t// in\n    tag_87:\n        /* \"@openzeppelin/contracts@4.4.2/access/Ownable.sol\":1248:1271  owner() == _msgSender() */\n      0xffffffffffffffffffffffffffffffffffffffff\n      and\n      eq\n        /* \"@openzeppelin/contracts@4.4.2/access/Ownable.sol\":1240:1308  require(owner() == _msgSender(), \"Ownable: caller is not the owner\") */\n      tag_88\n      jumpi\n      mload(0x40)\n      0x08c379a000000000000000000000000000000000000000000000000000000000\n      dup2\n      mstore\n      0x04\n      add\n      tag_89\n      swap1\n      tag_61\n      jump\t// in\n    tag_89:\n      mload(0x40)\n      dup1\n      swap2\n      sub\n      swap1\n      revert\n    tag_88:\n        /* \"contracts/Founding Citizens NFT Sale.sol\":3191:3206  storageContract */\n      0x01\n      0x00\n      swap1\n      sload\n      swap1\n      0x0100\n      exp\n      swap1\n      div\n      0xffffffffffffffffffffffffffffffffffffffff\n      and\n        /* \"contracts/Founding Citizens NFT Sale.sol\":3178:3219  IMintStorage(storageContract).preLoadURIs */\n      0xffffffffffffffffffffffffffffffffffffffff\n      and\n      0xf121da92\n        /* \"contracts/Founding Citizens NFT Sale.sol\":3220:3223  ids */\n      dup4\n        /* \"contracts/Founding Citizens NFT Sale.sol\":3225:3229  uris */\n      dup4\n        /* \"contracts/Founding Citizens NFT Sale.sol\":3178:3230  IMintStorage(storageContract).preLoadURIs(ids, uris) */\n      mload(0x40)\n      dup4\n      0xffffffff\n      and\n      0xe0\n      shl\n      dup2\n      mstore\n      0x04\n      add\n      tag_91\n      swap3\n      swap2\n      swap1\n      tag_92\n      jump\t// in\n    tag_91:\n      0x00\n      mload(0x40)\n      dup1\n      dup4\n      sub\n      dup2\n      0x00\n      dup8\n      dup1\n      extcodesize\n      iszero\n      dup1\n      iszero\n      tag_93\n      jumpi\n      0x00\n      dup1\n      revert\n    tag_93:\n      pop\n      gas\n      call\n      iszero\n      dup1\n      iszero\n      tag_95\n      jumpi\n      returndatasize\n      0x00\n      dup1\n      returndatacopy\n      revert(0x00, returndatasize)\n    tag_95:\n      pop\n      pop\n      pop\n      pop\n        /* \"contracts/Founding Citizens NFT Sale.sol\":3088:3238  function preLoadURIs(uint[] memory ids, string[] memory uris) public onlyOwner {\r... */\n      pop\n      pop\n      jump\t// out\n        /* \"@openzeppelin/contracts@4.4.2/access/Ownable.sol\":1918:2116  function transferOwnership(address newOwner) public virtual onlyOwner {... */\n    tag_54:\n        /* \"@openzeppelin/contracts@4.4.2/access/Ownable.sol\":1259:1271  _msgSender() */\n      tag_97\n        /* \"@openzeppelin/contracts@4.4.2/access/Ownable.sol\":1259:1269  _msgSender */\n      tag_57\n        /* \"@openzeppelin/contracts@4.4.2/access/Ownable.sol\":1259:1271  _msgSender() */\n      jump\t// in\n    tag_97:\n        /* \"@openzeppelin/contracts@4.4.2/access/Ownable.sol\":1248:1271  owner() == _msgSender() */\n      0xffffffffffffffffffffffffffffffffffffffff\n      and\n        /* \"@openzeppelin/contracts@4.4.2/access/Ownable.sol\":1248:1255  owner() */\n      tag_98\n        /* \"@openzeppelin/contracts@4.4.2/access/Ownable.sol\":1248:1253  owner */\n      tag_37\n        /* \"@openzeppelin/contracts@4.4.2/access/Ownable.sol\":1248:1255  owner() */\n      jump\t// in\n    tag_98:\n        /* \"@openzeppelin/contracts@4.4.2/access/Ownable.sol\":1248:1271  owner() == _msgSender() */\n      0xffffffffffffffffffffffffffffffffffffffff\n      and\n      eq\n        /* \"@openzeppelin/contracts@4.4.2/access/Ownable.sol\":1240:1308  require(owner() == _msgSender(), \"Ownable: caller is not the owner\") */\n      tag_99\n      jumpi\n      mload(0x40)\n      0x08c379a000000000000000000000000000000000000000000000000000000000\n      dup2\n      mstore\n      0x04\n      add\n      tag_100\n      swap1\n      tag_61\n      jump\t// in\n    tag_100:\n      mload(0x40)\n      dup1\n      swap2\n      sub\n      swap1\n      revert\n    tag_99:\n        /* \"@openzeppelin/contracts@4.4.2/access/Ownable.sol\":2026:2027  0 */\n      0x00\n        /* \"@openzeppelin/contracts@4.4.2/access/Ownable.sol\":2006:2028  newOwner != address(0) */\n      0xffffffffffffffffffffffffffffffffffffffff\n      and\n        /* \"@openzeppelin/contracts@4.4.2/access/Ownable.sol\":2006:2014  newOwner */\n      dup2\n        /* \"@openzeppelin/contracts@4.4.2/access/Ownable.sol\":2006:2028  newOwner != address(0) */\n      0xffffffffffffffffffffffffffffffffffffffff\n      and\n      eq\n      iszero\n        /* \"@openzeppelin/contracts@4.4.2/access/Ownable.sol\":1998:2071  require(newOwner != address(0), \"Ownable: new owner is the zero address\") */\n      tag_102\n      jumpi\n      mload(0x40)\n      0x08c379a000000000000000000000000000000000000000000000000000000000\n      dup2\n      mstore\n      0x04\n      add\n      tag_103\n      swap1\n      tag_104\n      jump\t// in\n    tag_103:\n      mload(0x40)\n      dup1\n      swap2\n      sub\n      swap1\n      revert\n    tag_102:\n        /* \"@openzeppelin/contracts@4.4.2/access/Ownable.sol\":2081:2109  _transferOwnership(newOwner) */\n      tag_105\n        /* \"@openzeppelin/contracts@4.4.2/access/Ownable.sol\":2100:2108  newOwner */\n      dup2\n        /* \"@openzeppelin/contracts@4.4.2/access/Ownable.sol\":2081:2099  _transferOwnership */\n      tag_82\n        /* \"@openzeppelin/contracts@4.4.2/access/Ownable.sol\":2081:2109  _transferOwnership(newOwner) */\n      jump\t// in\n    tag_105:\n        /* \"@openzeppelin/contracts@4.4.2/access/Ownable.sol\":1918:2116  function transferOwnership(address newOwner) public virtual onlyOwner {... */\n      pop\n      jump\t// out\n        /* \"@openzeppelin/contracts@4.4.2/utils/Context.sol\":640:736  function _msgSender() internal view virtual returns (address) {... */\n    tag_57:\n        /* \"@openzeppelin/contracts@4.4.2/utils/Context.sol\":693:700  address */\n      0x00\n        /* \"@openzeppelin/contracts@4.4.2/utils/Context.sol\":719:729  msg.sender */\n      caller\n        /* \"@openzeppelin/contracts@4.4.2/utils/Context.sol\":712:729  return msg.sender */\n      swap1\n      pop\n        /* \"@openzeppelin/contracts@4.4.2/utils/Context.sol\":640:736  function _msgSender() internal view virtual returns (address) {... */\n      swap1\n      jump\t// out\n        /* \"@openzeppelin/contracts@4.4.2/access/Ownable.sol\":2270:2457  function _transferOwnership(address newOwner) internal virtual {... */\n    tag_82:\n        /* \"@openzeppelin/contracts@4.4.2/access/Ownable.sol\":2343:2359  address oldOwner */\n      0x00\n        /* \"@openzeppelin/contracts@4.4.2/access/Ownable.sol\":2362:2368  _owner */\n      dup1\n      0x00\n      swap1\n      sload\n      swap1\n      0x0100\n      exp\n      swap1\n      div\n      0xffffffffffffffffffffffffffffffffffffffff\n      and\n        /* \"@openzeppelin/contracts@4.4.2/access/Ownable.sol\":2343:2368  address oldOwner = _owner */\n      swap1\n      pop\n        /* \"@openzeppelin/contracts@4.4.2/access/Ownable.sol\":2387:2395  newOwner */\n      dup2\n        /* \"@openzeppelin/contracts@4.4.2/access/Ownable.sol\":2378:2384  _owner */\n      0x00\n      dup1\n        /* \"@openzeppelin/contracts@4.4.2/access/Ownable.sol\":2378:2395  _owner = newOwner */\n      0x0100\n      exp\n      dup2\n      sload\n      dup2\n      0xffffffffffffffffffffffffffffffffffffffff\n      mul\n      not\n      and\n      swap1\n      dup4\n      0xffffffffffffffffffffffffffffffffffffffff\n      and\n      mul\n      or\n      swap1\n      sstore\n      pop\n        /* \"@openzeppelin/contracts@4.4.2/access/Ownable.sol\":2441:2449  newOwner */\n      dup2\n        /* \"@openzeppelin/contracts@4.4.2/access/Ownable.sol\":2410:2450  OwnershipTransferred(oldOwner, newOwner) */\n      0xffffffffffffffffffffffffffffffffffffffff\n      and\n        /* \"@openzeppelin/contracts@4.4.2/access/Ownable.sol\":2431:2439  oldOwner */\n      dup2\n        /* \"@openzeppelin/contracts@4.4.2/access/Ownable.sol\":2410:2450  OwnershipTransferred(oldOwner, newOwner) */\n      0xffffffffffffffffffffffffffffffffffffffff\n      and\n      0x8be0079c531659141344cd1fd0a4f28419497f9722a3daafe3b4186f6b6457e0\n      mload(0x40)\n      mload(0x40)\n      dup1\n      swap2\n      sub\n      swap1\n      log3\n        /* \"@openzeppelin/contracts@4.4.2/access/Ownable.sol\":2270:2457  function _transferOwnership(address newOwner) internal virtual {... */\n      pop\n      pop\n      jump\t// out\n        /* \"#utility.yul\":23:639   */\n    tag_109:\n      0x00\n        /* \"#utility.yul\":154:245   */\n      tag_111\n        /* \"#utility.yul\":170:244   */\n      tag_112\n        /* \"#utility.yul\":237:243   */\n      dup5\n        /* \"#utility.yul\":170:244   */\n      tag_113\n      jump\t// in\n    tag_112:\n        /* \"#utility.yul\":154:245   */\n      tag_114\n      jump\t// in\n    tag_111:\n        /* \"#utility.yul\":145:245   */\n      swap1\n      pop\n        /* \"#utility.yul\":265:270   */\n      dup1\n        /* \"#utility.yul\":293:299   */\n      dup4\n        /* \"#utility.yul\":286:291   */\n      dup3\n        /* \"#utility.yul\":279:300   */\n      mstore\n        /* \"#utility.yul\":319:323   */\n      0x20\n        /* \"#utility.yul\":312:317   */\n      dup3\n        /* \"#utility.yul\":308:324   */\n      add\n        /* \"#utility.yul\":301:324   */\n      swap1\n      pop\n        /* \"#utility.yul\":344:350   */\n      dup3\n        /* \"#utility.yul\":375:376   */\n      0x00\n        /* \"#utility.yul\":360:633   */\n    tag_115:\n        /* \"#utility.yul\":385:391   */\n      dup6\n        /* \"#utility.yul\":382:383   */\n      dup2\n        /* \"#utility.yul\":379:392   */\n      lt\n        /* \"#utility.yul\":360:633   */\n      iszero\n      tag_117\n      jumpi\n        /* \"#utility.yul\":477:480   */\n      dup2\n        /* \"#utility.yul\":464:481   */\n      calldataload\n        /* \"#utility.yul\":456:462   */\n      dup6\n        /* \"#utility.yul\":452:482   */\n      add\n        /* \"#utility.yul\":507:554   */\n      tag_118\n        /* \"#utility.yul\":550:553   */\n      dup9\n        /* \"#utility.yul\":538:548   */\n      dup3\n        /* \"#utility.yul\":507:554   */\n      tag_119\n      jump\t// in\n    tag_118:\n        /* \"#utility.yul\":502:505   */\n      dup5\n        /* \"#utility.yul\":495:555   */\n      mstore\n        /* \"#utility.yul\":584:588   */\n      0x20\n        /* \"#utility.yul\":579:582   */\n      dup5\n        /* \"#utility.yul\":575:589   */\n      add\n        /* \"#utility.yul\":568:589   */\n      swap4\n      pop\n        /* \"#utility.yul\":618:622   */\n      0x20\n        /* \"#utility.yul\":613:616   */\n      dup4\n        /* \"#utility.yul\":609:623   */\n      add\n        /* \"#utility.yul\":602:623   */\n      swap3\n      pop\n        /* \"#utility.yul\":420:633   */\n      pop\n        /* \"#utility.yul\":407:408   */\n      0x01\n        /* \"#utility.yul\":404:405   */\n      dup2\n        /* \"#utility.yul\":400:409   */\n      add\n        /* \"#utility.yul\":395:409   */\n      swap1\n      pop\n        /* \"#utility.yul\":360:633   */\n      jump(tag_115)\n    tag_117:\n        /* \"#utility.yul\":364:378   */\n      pop\n        /* \"#utility.yul\":135:639   */\n      pop\n      pop\n      swap4\n      swap3\n      pop\n      pop\n      pop\n      jump\t// out\n        /* \"#utility.yul\":662:1285   */\n    tag_120:\n      0x00\n        /* \"#utility.yul\":783:864   */\n      tag_122\n        /* \"#utility.yul\":799:863   */\n      tag_123\n        /* \"#utility.yul\":856:862   */\n      dup5\n        /* \"#utility.yul\":799:863   */\n      tag_124\n      jump\t// in\n    tag_123:\n        /* \"#utility.yul\":783:864   */\n      tag_114\n      jump\t// in\n    tag_122:\n        /* \"#utility.yul\":774:864   */\n      swap1\n      pop\n        /* \"#utility.yul\":884:889   */\n      dup1\n        /* \"#utility.yul\":912:918   */\n      dup4\n        /* \"#utility.yul\":905:910   */\n      dup3\n        /* \"#utility.yul\":898:919   */\n      mstore\n        /* \"#utility.yul\":938:942   */\n      0x20\n        /* \"#utility.yul\":931:936   */\n      dup3\n        /* \"#utility.yul\":927:943   */\n      add\n        /* \"#utility.yul\":920:943   */\n      swap1\n      pop\n        /* \"#utility.yul\":963:969   */\n      dup3\n        /* \"#utility.yul\":1013:1016   */\n      dup6\n        /* \"#utility.yul\":1005:1009   */\n      0x20\n        /* \"#utility.yul\":997:1003   */\n      dup7\n        /* \"#utility.yul\":993:1010   */\n      mul\n        /* \"#utility.yul\":988:991   */\n      dup3\n        /* \"#utility.yul\":984:1011   */\n      add\n        /* \"#utility.yul\":981:1017   */\n      gt\n        /* \"#utility.yul\":978:980   */\n      iszero\n      tag_125\n      jumpi\n        /* \"#utility.yul\":1030:1031   */\n      0x00\n        /* \"#utility.yul\":1027:1028   */\n      dup1\n        /* \"#utility.yul\":1020:1032   */\n      revert\n        /* \"#utility.yul\":978:980   */\n    tag_125:\n        /* \"#utility.yul\":1058:1059   */\n      0x00\n        /* \"#utility.yul\":1043:1279   */\n    tag_126:\n        /* \"#utility.yul\":1068:1074   */\n      dup6\n        /* \"#utility.yul\":1065:1066   */\n      dup2\n        /* \"#utility.yul\":1062:1075   */\n      lt\n        /* \"#utility.yul\":1043:1279   */\n      iszero\n      tag_128\n      jumpi\n        /* \"#utility.yul\":1135:1138   */\n      dup2\n        /* \"#utility.yul\":1163:1200   */\n      tag_129\n        /* \"#utility.yul\":1196:1199   */\n      dup9\n        /* \"#utility.yul\":1184:1194   */\n      dup3\n        /* \"#utility.yul\":1163:1200   */\n      tag_130\n      jump\t// in\n    tag_129:\n        /* \"#utility.yul\":1158:1161   */\n      dup5\n        /* \"#utility.yul\":1151:1201   */\n      mstore\n        /* \"#utility.yul\":1230:1234   */\n      0x20\n        /* \"#utility.yul\":1225:1228   */\n      dup5\n        /* \"#utility.yul\":1221:1235   */\n      add\n        /* \"#utility.yul\":1214:1235   */\n      swap4\n      pop\n        /* \"#utility.yul\":1264:1268   */\n      0x20\n        /* \"#utility.yul\":1259:1262   */\n      dup4\n        /* \"#utility.yul\":1255:1269   */\n      add\n        /* \"#utility.yul\":1248:1269   */\n      swap3\n      pop\n        /* \"#utility.yul\":1103:1279   */\n      pop\n        /* \"#utility.yul\":1090:1091   */\n      0x01\n        /* \"#utility.yul\":1087:1088   */\n      dup2\n        /* \"#utility.yul\":1083:1092   */\n      add\n        /* \"#utility.yul\":1078:1092   */\n      swap1\n      pop\n        /* \"#utility.yul\":1043:1279   */\n      jump(tag_126)\n    tag_128:\n        /* \"#utility.yul\":1047:1061   */\n      pop\n        /* \"#utility.yul\":764:1285   */\n      pop\n      pop\n      swap4\n      swap3\n      pop\n      pop\n      pop\n      jump\t// out\n        /* \"#utility.yul\":1291:1636   */\n    tag_131:\n      0x00\n        /* \"#utility.yul\":1394:1460   */\n      tag_133\n        /* \"#utility.yul\":1410:1459   */\n      tag_134\n        /* \"#utility.yul\":1452:1458   */\n      dup5\n        /* \"#utility.yul\":1410:1459   */\n      tag_135\n      jump\t// in\n    tag_134:\n        /* \"#utility.yul\":1394:1460   */\n      tag_114\n      jump\t// in\n    tag_133:\n        /* \"#utility.yul\":1385:1460   */\n      swap1\n      pop\n        /* \"#utility.yul\":1483:1489   */\n      dup3\n        /* \"#utility.yul\":1476:1481   */\n      dup2\n        /* \"#utility.yul\":1469:1490   */\n      mstore\n        /* \"#utility.yul\":1521:1525   */\n      0x20\n        /* \"#utility.yul\":1514:1519   */\n      dup2\n        /* \"#utility.yul\":1510:1526   */\n      add\n        /* \"#utility.yul\":1559:1562   */\n      dup5\n        /* \"#utility.yul\":1550:1556   */\n      dup5\n        /* \"#utility.yul\":1545:1548   */\n      dup5\n        /* \"#utility.yul\":1541:1557   */\n      add\n        /* \"#utility.yul\":1538:1563   */\n      gt\n        /* \"#utility.yul\":1535:1537   */\n      iszero\n      tag_136\n      jumpi\n        /* \"#utility.yul\":1576:1577   */\n      0x00\n        /* \"#utility.yul\":1573:1574   */\n      dup1\n        /* \"#utility.yul\":1566:1578   */\n      revert\n        /* \"#utility.yul\":1535:1537   */\n    tag_136:\n        /* \"#utility.yul\":1589:1630   */\n      tag_137\n        /* \"#utility.yul\":1623:1629   */\n      dup5\n        /* \"#utility.yul\":1618:1621   */\n      dup3\n        /* \"#utility.yul\":1613:1616   */\n      dup6\n        /* \"#utility.yul\":1589:1630   */\n      tag_138\n      jump\t// in\n    tag_137:\n        /* \"#utility.yul\":1375:1636   */\n      pop\n      swap4\n      swap3\n      pop\n      pop\n      pop\n      jump\t// out\n        /* \"#utility.yul\":1642:1781   */\n    tag_139:\n      0x00\n        /* \"#utility.yul\":1726:1732   */\n      dup2\n        /* \"#utility.yul\":1713:1733   */\n      calldataload\n        /* \"#utility.yul\":1704:1733   */\n      swap1\n      pop\n        /* \"#utility.yul\":1742:1775   */\n      tag_141\n        /* \"#utility.yul\":1769:1774   */\n      dup2\n        /* \"#utility.yul\":1742:1775   */\n      tag_142\n      jump\t// in\n    tag_141:\n        /* \"#utility.yul\":1694:1781   */\n      swap3\n      swap2\n      pop\n      pop\n      jump\t// out\n        /* \"#utility.yul\":1803:2126   */\n    tag_143:\n      0x00\n        /* \"#utility.yul\":1933:1936   */\n      dup3\n        /* \"#utility.yul\":1926:1930   */\n      0x1f\n        /* \"#utility.yul\":1918:1924   */\n      dup4\n        /* \"#utility.yul\":1914:1931   */\n      add\n        /* \"#utility.yul\":1910:1937   */\n      slt\n        /* \"#utility.yul\":1900:1902   */\n      tag_145\n      jumpi\n        /* \"#utility.yul\":1951:1952   */\n      0x00\n        /* \"#utility.yul\":1948:1949   */\n      dup1\n        /* \"#utility.yul\":1941:1953   */\n      revert\n        /* \"#utility.yul\":1900:1902   */\n    tag_145:\n        /* \"#utility.yul\":1991:1997   */\n      dup2\n        /* \"#utility.yul\":1978:1998   */\n      calldataload\n        /* \"#utility.yul\":2016:2120   */\n      tag_146\n        /* \"#utility.yul\":2116:2119   */\n      dup5\n        /* \"#utility.yul\":2108:2114   */\n      dup3\n        /* \"#utility.yul\":2101:2105   */\n      0x20\n        /* \"#utility.yul\":2093:2099   */\n      dup7\n        /* \"#utility.yul\":2089:2106   */\n      add\n        /* \"#utility.yul\":2016:2120   */\n      tag_109\n      jump\t// in\n    tag_146:\n        /* \"#utility.yul\":2007:2120   */\n      swap2\n      pop\n        /* \"#utility.yul\":1890:2126   */\n      pop\n      swap3\n      swap2\n      pop\n      pop\n      jump\t// out\n        /* \"#utility.yul\":2149:2452   */\n    tag_147:\n      0x00\n        /* \"#utility.yul\":2269:2272   */\n      dup3\n        /* \"#utility.yul\":2262:2266   */\n      0x1f\n        /* \"#utility.yul\":2254:2260   */\n      dup4\n        /* \"#utility.yul\":2250:2267   */\n      add\n        /* \"#utility.yul\":2246:2273   */\n      slt\n        /* \"#utility.yul\":2236:2238   */\n      tag_149\n      jumpi\n        /* \"#utility.yul\":2287:2288   */\n      0x00\n        /* \"#utility.yul\":2284:2285   */\n      dup1\n        /* \"#utility.yul\":2277:2289   */\n      revert\n        /* \"#utility.yul\":2236:2238   */\n    tag_149:\n        /* \"#utility.yul\":2327:2333   */\n      dup2\n        /* \"#utility.yul\":2314:2334   */\n      calldataload\n        /* \"#utility.yul\":2352:2446   */\n      tag_150\n        /* \"#utility.yul\":2442:2445   */\n      dup5\n        /* \"#utility.yul\":2434:2440   */\n      dup3\n        /* \"#utility.yul\":2427:2431   */\n      0x20\n        /* \"#utility.yul\":2419:2425   */\n      dup7\n        /* \"#utility.yul\":2415:2432   */\n      add\n        /* \"#utility.yul\":2352:2446   */\n      tag_120\n      jump\t// in\n    tag_150:\n        /* \"#utility.yul\":2343:2446   */\n      swap2\n      pop\n        /* \"#utility.yul\":2226:2452   */\n      pop\n      swap3\n      swap2\n      pop\n      pop\n      jump\t// out\n        /* \"#utility.yul\":2472:2745   */\n    tag_119:\n      0x00\n        /* \"#utility.yul\":2577:2580   */\n      dup3\n        /* \"#utility.yul\":2570:2574   */\n      0x1f\n        /* \"#utility.yul\":2562:2568   */\n      dup4\n        /* \"#utility.yul\":2558:2575   */\n      add\n        /* \"#utility.yul\":2554:2581   */\n      slt\n        /* \"#utility.yul\":2544:2546   */\n      tag_152\n      jumpi\n        /* \"#utility.yul\":2595:2596   */\n      0x00\n        /* \"#utility.yul\":2592:2593   */\n      dup1\n        /* \"#utility.yul\":2585:2597   */\n      revert\n        /* \"#utility.yul\":2544:2546   */\n    tag_152:\n        /* \"#utility.yul\":2635:2641   */\n      dup2\n        /* \"#utility.yul\":2622:2642   */\n      calldataload\n        /* \"#utility.yul\":2660:2739   */\n      tag_153\n        /* \"#utility.yul\":2735:2738   */\n      dup5\n        /* \"#utility.yul\":2727:2733   */\n      dup3\n        /* \"#utility.yul\":2720:2724   */\n      0x20\n        /* \"#utility.yul\":2712:2718   */\n      dup7\n        /* \"#utility.yul\":2708:2725   */\n      add\n        /* \"#utility.yul\":2660:2739   */\n      tag_131\n      jump\t// in\n    tag_153:\n        /* \"#utility.yul\":2651:2739   */\n      swap2\n      pop\n        /* \"#utility.yul\":2534:2745   */\n      pop\n      swap3\n      swap2\n      pop\n      pop\n      jump\t// out\n        /* \"#utility.yul\":2751:2890   */\n    tag_130:\n      0x00\n        /* \"#utility.yul\":2835:2841   */\n      dup2\n        /* \"#utility.yul\":2822:2842   */\n      calldataload\n        /* \"#utility.yul\":2813:2842   */\n      swap1\n      pop\n        /* \"#utility.yul\":2851:2884   */\n      tag_155\n        /* \"#utility.yul\":2878:2883   */\n      dup2\n        /* \"#utility.yul\":2851:2884   */\n      tag_156\n      jump\t// in\n    tag_155:\n        /* \"#utility.yul\":2803:2890   */\n      swap3\n      swap2\n      pop\n      pop\n      jump\t// out\n        /* \"#utility.yul\":2896:3158   */\n    tag_30:\n      0x00\n        /* \"#utility.yul\":3004:3006   */\n      0x20\n        /* \"#utility.yul\":2992:3001   */\n      dup3\n        /* \"#utility.yul\":2983:2990   */\n      dup5\n        /* \"#utility.yul\":2979:3002   */\n      sub\n        /* \"#utility.yul\":2975:3007   */\n      slt\n        /* \"#utility.yul\":2972:2974   */\n      iszero\n      tag_158\n      jumpi\n        /* \"#utility.yul\":3020:3021   */\n      0x00\n        /* \"#utility.yul\":3017:3018   */\n      dup1\n        /* \"#utility.yul\":3010:3022   */\n      revert\n        /* \"#utility.yul\":2972:2974   */\n    tag_158:\n        /* \"#utility.yul\":3063:3064   */\n      0x00\n        /* \"#utility.yul\":3088:3141   */\n      tag_159\n        /* \"#utility.yul\":3133:3140   */\n      dup5\n        /* \"#utility.yul\":3124:3130   */\n      dup3\n        /* \"#utility.yul\":3113:3122   */\n      dup6\n        /* \"#utility.yul\":3109:3131   */\n      add\n        /* \"#utility.yul\":3088:3141   */\n      tag_139\n      jump\t// in\n    tag_159:\n        /* \"#utility.yul\":3078:3141   */\n      swap2\n      pop\n        /* \"#utility.yul\":3034:3151   */\n      pop\n        /* \"#utility.yul\":2962:3158   */\n      swap3\n      swap2\n      pop\n      pop\n      jump\t// out\n        /* \"#utility.yul\":3164:3877   */\n    tag_49:\n      0x00\n      dup1\n        /* \"#utility.yul\":3349:3351   */\n      0x40\n        /* \"#utility.yul\":3337:3346   */\n      dup4\n        /* \"#utility.yul\":3328:3335   */\n      dup6\n        /* \"#utility.yul\":3324:3347   */\n      sub\n        /* \"#utility.yul\":3320:3352   */\n      slt\n        /* \"#utility.yul\":3317:3319   */\n      iszero\n      tag_161\n      jumpi\n        /* \"#utility.yul\":3365:3366   */\n      0x00\n        /* \"#utility.yul\":3362:3363   */\n      dup1\n        /* \"#utility.yul\":3355:3367   */\n      revert\n        /* \"#utility.yul\":3317:3319   */\n    tag_161:\n        /* \"#utility.yul\":3436:3437   */\n      0x00\n        /* \"#utility.yul\":3425:3434   */\n      dup4\n        /* \"#utility.yul\":3421:3438   */\n      add\n        /* \"#utility.yul\":3408:3439   */\n      calldataload\n        /* \"#utility.yul\":3466:3484   */\n      0xffffffffffffffff\n        /* \"#utility.yul\":3458:3464   */\n      dup2\n        /* \"#utility.yul\":3455:3485   */\n      gt\n        /* \"#utility.yul\":3452:3454   */\n      iszero\n      tag_162\n      jumpi\n        /* \"#utility.yul\":3498:3499   */\n      0x00\n        /* \"#utility.yul\":3495:3496   */\n      dup1\n        /* \"#utility.yul\":3488:3500   */\n      revert\n        /* \"#utility.yul\":3452:3454   */\n    tag_162:\n        /* \"#utility.yul\":3526:3604   */\n      tag_163\n        /* \"#utility.yul\":3596:3603   */\n      dup6\n        /* \"#utility.yul\":3587:3593   */\n      dup3\n        /* \"#utility.yul\":3576:3585   */\n      dup7\n        /* \"#utility.yul\":3572:3594   */\n      add\n        /* \"#utility.yul\":3526:3604   */\n      tag_147\n      jump\t// in\n    tag_163:\n        /* \"#utility.yul\":3516:3604   */\n      swap3\n      pop\n        /* \"#utility.yul\":3379:3614   */\n      pop\n        /* \"#utility.yul\":3681:3683   */\n      0x20\n        /* \"#utility.yul\":3670:3679   */\n      dup4\n        /* \"#utility.yul\":3666:3684   */\n      add\n        /* \"#utility.yul\":3653:3685   */\n      calldataload\n        /* \"#utility.yul\":3712:3730   */\n      0xffffffffffffffff\n        /* \"#utility.yul\":3704:3710   */\n      dup2\n        /* \"#utility.yul\":3701:3731   */\n      gt\n        /* \"#utility.yul\":3698:3700   */\n      iszero\n      tag_164\n      jumpi\n        /* \"#utility.yul\":3744:3745   */\n      0x00\n        /* \"#utility.yul\":3741:3742   */\n      dup1\n        /* \"#utility.yul\":3734:3746   */\n      revert\n        /* \"#utility.yul\":3698:3700   */\n    tag_164:\n        /* \"#utility.yul\":3772:3860   */\n      tag_165\n        /* \"#utility.yul\":3852:3859   */\n      dup6\n        /* \"#utility.yul\":3843:3849   */\n      dup3\n        /* \"#utility.yul\":3832:3841   */\n      dup7\n        /* \"#utility.yul\":3828:3850   */\n      add\n        /* \"#utility.yul\":3772:3860   */\n      tag_143\n      jump\t// in\n    tag_165:\n        /* \"#utility.yul\":3762:3860   */\n      swap2\n      pop\n        /* \"#utility.yul\":3624:3870   */\n      pop\n        /* \"#utility.yul\":3307:3877   */\n      swap3\n      pop\n      swap3\n      swap1\n      pop\n      jump\t// out\n        /* \"#utility.yul\":3883:4145   */\n    tag_21:\n      0x00\n        /* \"#utility.yul\":3991:3993   */\n      0x20\n        /* \"#utility.yul\":3979:3988   */\n      dup3\n        /* \"#utility.yul\":3970:3977   */\n      dup5\n        /* \"#utility.yul\":3966:3989   */\n      sub\n        /* \"#utility.yul\":3962:3994   */\n      slt\n        /* \"#utility.yul\":3959:3961   */\n      iszero\n      tag_167\n      jumpi\n        /* \"#utility.yul\":4007:4008   */\n      0x00\n        /* \"#utility.yul\":4004:4005   */\n      dup1\n        /* \"#utility.yul\":3997:4009   */\n      revert\n        /* \"#utility.yul\":3959:3961   */\n    tag_167:\n        /* \"#utility.yul\":4050:4051   */\n      0x00\n        /* \"#utility.yul\":4075:4128   */\n      tag_168\n        /* \"#utility.yul\":4120:4127   */\n      dup5\n        /* \"#utility.yul\":4111:4117   */\n      dup3\n        /* \"#utility.yul\":4100:4109   */\n      dup6\n        /* \"#utility.yul\":4096:4118   */\n      add\n        /* \"#utility.yul\":4075:4128   */\n      tag_130\n      jump\t// in\n    tag_168:\n        /* \"#utility.yul\":4065:4128   */\n      swap2\n      pop\n        /* \"#utility.yul\":4021:4138   */\n      pop\n        /* \"#utility.yul\":3949:4145   */\n      swap3\n      swap2\n      pop\n      pop\n      jump\t// out\n        /* \"#utility.yul\":4151:4347   */\n    tag_169:\n      0x00\n        /* \"#utility.yul\":4275:4341   */\n      tag_171\n        /* \"#utility.yul\":4337:4340   */\n      dup4\n        /* \"#utility.yul\":4329:4335   */\n      dup4\n        /* \"#utility.yul\":4275:4341   */\n      tag_172\n      jump\t// in\n    tag_171:\n        /* \"#utility.yul\":4261:4341   */\n      swap1\n      pop\n        /* \"#utility.yul\":4251:4347   */\n      swap3\n      swap2\n      pop\n      pop\n      jump\t// out\n        /* \"#utility.yul\":4353:4532   */\n    tag_173:\n      0x00\n        /* \"#utility.yul\":4443:4489   */\n      tag_175\n        /* \"#utility.yul\":4485:4488   */\n      dup4\n        /* \"#utility.yul\":4477:4483   */\n      dup4\n        /* \"#utility.yul\":4443:4489   */\n      tag_176\n      jump\t// in\n    tag_175:\n        /* \"#utility.yul\":4521:4525   */\n      0x20\n        /* \"#utility.yul\":4516:4519   */\n      dup4\n        /* \"#utility.yul\":4512:4526   */\n      add\n        /* \"#utility.yul\":4498:4526   */\n      swap1\n      pop\n        /* \"#utility.yul\":4433:4532   */\n      swap3\n      swap2\n      pop\n      pop\n      jump\t// out\n        /* \"#utility.yul\":4538:4656   */\n    tag_177:\n        /* \"#utility.yul\":4625:4649   */\n      tag_179\n        /* \"#utility.yul\":4643:4648   */\n      dup2\n        /* \"#utility.yul\":4625:4649   */\n      tag_180\n      jump\t// in\n    tag_179:\n        /* \"#utility.yul\":4620:4623   */\n      dup3\n        /* \"#utility.yul\":4613:4650   */\n      mstore\n        /* \"#utility.yul\":4603:4656   */\n      pop\n      pop\n      jump\t// out\n        /* \"#utility.yul\":4690:5681   */\n    tag_181:\n      0x00\n        /* \"#utility.yul\":4858:4922   */\n      tag_183\n        /* \"#utility.yul\":4916:4921   */\n      dup3\n        /* \"#utility.yul\":4858:4922   */\n      tag_184\n      jump\t// in\n    tag_183:\n        /* \"#utility.yul\":4938:5034   */\n      tag_185\n        /* \"#utility.yul\":5027:5033   */\n      dup2\n        /* \"#utility.yul\":5022:5025   */\n      dup6\n        /* \"#utility.yul\":4938:5034   */\n      tag_186\n      jump\t// in\n    tag_185:\n        /* \"#utility.yul\":4931:5034   */\n      swap4\n      pop\n        /* \"#utility.yul\":5060:5063   */\n      dup4\n        /* \"#utility.yul\":5105:5109   */\n      0x20\n        /* \"#utility.yul\":5097:5103   */\n      dup3\n        /* \"#utility.yul\":5093:5110   */\n      mul\n        /* \"#utility.yul\":5088:5091   */\n      dup6\n        /* \"#utility.yul\":5084:5111   */\n      add\n        /* \"#utility.yul\":5135:5201   */\n      tag_187\n        /* \"#utility.yul\":5195:5200   */\n      dup6\n        /* \"#utility.yul\":5135:5201   */\n      tag_188\n      jump\t// in\n    tag_187:\n        /* \"#utility.yul\":5224:5231   */\n      dup1\n        /* \"#utility.yul\":5255:5256   */\n      0x00\n        /* \"#utility.yul\":5240:5636   */\n    tag_189:\n        /* \"#utility.yul\":5265:5271   */\n      dup6\n        /* \"#utility.yul\":5262:5263   */\n      dup2\n        /* \"#utility.yul\":5259:5272   */\n      lt\n        /* \"#utility.yul\":5240:5636   */\n      iszero\n      tag_191\n      jumpi\n        /* \"#utility.yul\":5336:5345   */\n      dup5\n        /* \"#utility.yul\":5330:5334   */\n      dup5\n        /* \"#utility.yul\":5326:5346   */\n      sub\n        /* \"#utility.yul\":5321:5324   */\n      dup10\n        /* \"#utility.yul\":5314:5347   */\n      mstore\n        /* \"#utility.yul\":5387:5393   */\n      dup2\n        /* \"#utility.yul\":5381:5394   */\n      mload\n        /* \"#utility.yul\":5415:5499   */\n      tag_192\n        /* \"#utility.yul\":5494:5498   */\n      dup6\n        /* \"#utility.yul\":5479:5492   */\n      dup3\n        /* \"#utility.yul\":5415:5499   */\n      tag_169\n      jump\t// in\n    tag_192:\n        /* \"#utility.yul\":5407:5499   */\n      swap5\n      pop\n        /* \"#utility.yul\":5522:5592   */\n      tag_193\n        /* \"#utility.yul\":5585:5591   */\n      dup4\n        /* \"#utility.yul\":5522:5592   */\n      tag_194\n      jump\t// in\n    tag_193:\n        /* \"#utility.yul\":5512:5592   */\n      swap3\n      pop\n        /* \"#utility.yul\":5621:5625   */\n      0x20\n        /* \"#utility.yul\":5616:5619   */\n      dup11\n        /* \"#utility.yul\":5612:5626   */\n      add\n        /* \"#utility.yul\":5605:5626   */\n      swap10\n      pop\n        /* \"#utility.yul\":5300:5636   */\n      pop\n        /* \"#utility.yul\":5287:5288   */\n      0x01\n        /* \"#utility.yul\":5284:5285   */\n      dup2\n        /* \"#utility.yul\":5280:5289   */\n      add\n        /* \"#utility.yul\":5275:5289   */\n      swap1\n      pop\n        /* \"#utility.yul\":5240:5636   */\n      jump(tag_189)\n    tag_191:\n        /* \"#utility.yul\":5244:5258   */\n      pop\n        /* \"#utility.yul\":5652:5656   */\n      dup3\n        /* \"#utility.yul\":5645:5656   */\n      swap8\n      pop\n        /* \"#utility.yul\":5672:5675   */\n      dup8\n        /* \"#utility.yul\":5665:5675   */\n      swap6\n      pop\n        /* \"#utility.yul\":4834:5681   */\n      pop\n      pop\n      pop\n      pop\n      pop\n      swap3\n      swap2\n      pop\n      pop\n      jump\t// out\n        /* \"#utility.yul\":5717:6449   */\n    tag_195:\n      0x00\n        /* \"#utility.yul\":5865:5919   */\n      tag_197\n        /* \"#utility.yul\":5913:5918   */\n      dup3\n        /* \"#utility.yul\":5865:5919   */\n      tag_198\n      jump\t// in\n    tag_197:\n        /* \"#utility.yul\":5935:6021   */\n      tag_199\n        /* \"#utility.yul\":6014:6020   */\n      dup2\n        /* \"#utility.yul\":6009:6012   */\n      dup6\n        /* \"#utility.yul\":5935:6021   */\n      tag_200\n      jump\t// in\n    tag_199:\n        /* \"#utility.yul\":5928:6021   */\n      swap4\n      pop\n        /* \"#utility.yul\":6045:6101   */\n      tag_201\n        /* \"#utility.yul\":6095:6100   */\n      dup4\n        /* \"#utility.yul\":6045:6101   */\n      tag_202\n      jump\t// in\n    tag_201:\n        /* \"#utility.yul\":6124:6131   */\n      dup1\n        /* \"#utility.yul\":6155:6156   */\n      0x00\n        /* \"#utility.yul\":6140:6424   */\n    tag_203:\n        /* \"#utility.yul\":6165:6171   */\n      dup4\n        /* \"#utility.yul\":6162:6163   */\n      dup2\n        /* \"#utility.yul\":6159:6172   */\n      lt\n        /* \"#utility.yul\":6140:6424   */\n      iszero\n      tag_205\n      jumpi\n        /* \"#utility.yul\":6241:6247   */\n      dup2\n        /* \"#utility.yul\":6235:6248   */\n      mload\n        /* \"#utility.yul\":6268:6331   */\n      tag_206\n        /* \"#utility.yul\":6327:6330   */\n      dup9\n        /* \"#utility.yul\":6312:6325   */\n      dup3\n        /* \"#utility.yul\":6268:6331   */\n      tag_173\n      jump\t// in\n    tag_206:\n        /* \"#utility.yul\":6261:6331   */\n      swap8\n      pop\n        /* \"#utility.yul\":6354:6414   */\n      tag_207\n        /* \"#utility.yul\":6407:6413   */\n      dup4\n        /* \"#utility.yul\":6354:6414   */\n      tag_208\n      jump\t// in\n    tag_207:\n        /* \"#utility.yul\":6344:6414   */\n      swap3\n      pop\n        /* \"#utility.yul\":6200:6424   */\n      pop\n        /* \"#utility.yul\":6187:6188   */\n      0x01\n        /* \"#utility.yul\":6184:6185   */\n      dup2\n        /* \"#utility.yul\":6180:6189   */\n      add\n        /* \"#utility.yul\":6175:6189   */\n      swap1\n      pop\n        /* \"#utility.yul\":6140:6424   */\n      jump(tag_203)\n    tag_205:\n        /* \"#utility.yul\":6144:6158   */\n      pop\n        /* \"#utility.yul\":6440:6443   */\n      dup6\n        /* \"#utility.yul\":6433:6443   */\n      swap4\n      pop\n        /* \"#utility.yul\":5841:6449   */\n      pop\n      pop\n      pop\n      swap3\n      swap2\n      pop\n      pop\n      jump\t// out\n        /* \"#utility.yul\":6455:6564   */\n    tag_209:\n        /* \"#utility.yul\":6536:6557   */\n      tag_211\n        /* \"#utility.yul\":6551:6556   */\n      dup2\n        /* \"#utility.yul\":6536:6557   */\n      tag_212\n      jump\t// in\n    tag_211:\n        /* \"#utility.yul\":6531:6534   */\n      dup3\n        /* \"#utility.yul\":6524:6558   */\n      mstore\n        /* \"#utility.yul\":6514:6564   */\n      pop\n      pop\n      jump\t// out\n        /* \"#utility.yul\":6570:6914   */\n    tag_172:\n      0x00\n        /* \"#utility.yul\":6676:6715   */\n      tag_214\n        /* \"#utility.yul\":6709:6714   */\n      dup3\n        /* \"#utility.yul\":6676:6715   */\n      tag_215\n      jump\t// in\n    tag_214:\n        /* \"#utility.yul\":6731:6792   */\n      tag_216\n        /* \"#utility.yul\":6785:6791   */\n      dup2\n        /* \"#utility.yul\":6780:6783   */\n      dup6\n        /* \"#utility.yul\":6731:6792   */\n      tag_217\n      jump\t// in\n    tag_216:\n        /* \"#utility.yul\":6724:6792   */\n      swap4\n      pop\n        /* \"#utility.yul\":6801:6853   */\n      tag_218\n        /* \"#utility.yul\":6846:6852   */\n      dup2\n        /* \"#utility.yul\":6841:6844   */\n      dup6\n        /* \"#utility.yul\":6834:6838   */\n      0x20\n        /* \"#utility.yul\":6827:6832   */\n      dup7\n        /* \"#utility.yul\":6823:6839   */\n      add\n        /* \"#utility.yul\":6801:6853   */\n      tag_219\n      jump\t// in\n    tag_218:\n        /* \"#utility.yul\":6878:6907   */\n      tag_220\n        /* \"#utility.yul\":6900:6906   */\n      dup2\n        /* \"#utility.yul\":6878:6907   */\n      tag_221\n      jump\t// in\n    tag_220:\n        /* \"#utility.yul\":6873:6876   */\n      dup5\n        /* \"#utility.yul\":6869:6908   */\n      add\n        /* \"#utility.yul\":6862:6908   */\n      swap2\n      pop\n        /* \"#utility.yul\":6652:6914   */\n      pop\n      swap3\n      swap2\n      pop\n      pop\n      jump\t// out\n        /* \"#utility.yul\":6920:7286   */\n    tag_222:\n      0x00\n        /* \"#utility.yul\":7083:7150   */\n      tag_224\n        /* \"#utility.yul\":7147:7149   */\n      0x26\n        /* \"#utility.yul\":7142:7145   */\n      dup4\n        /* \"#utility.yul\":7083:7150   */\n      tag_225\n      jump\t// in\n    tag_224:\n        /* \"#utility.yul\":7076:7150   */\n      swap2\n      pop\n        /* \"#utility.yul\":7159:7252   */\n      tag_226\n        /* \"#utility.yul\":7248:7251   */\n      dup3\n        /* \"#utility.yul\":7159:7252   */\n      tag_227\n      jump\t// in\n    tag_226:\n        /* \"#utility.yul\":7277:7279   */\n      0x40\n        /* \"#utility.yul\":7272:7275   */\n      dup3\n        /* \"#utility.yul\":7268:7280   */\n      add\n        /* \"#utility.yul\":7261:7280   */\n      swap1\n      pop\n        /* \"#utility.yul\":7066:7286   */\n      swap2\n      swap1\n      pop\n      jump\t// out\n        /* \"#utility.yul\":7292:7658   */\n    tag_228:\n      0x00\n        /* \"#utility.yul\":7455:7522   */\n      tag_230\n        /* \"#utility.yul\":7519:7521   */\n      0x20\n        /* \"#utility.yul\":7514:7517   */\n      dup4\n        /* \"#utility.yul\":7455:7522   */\n      tag_225\n      jump\t// in\n    tag_230:\n        /* \"#utility.yul\":7448:7522   */\n      swap2\n      pop\n        /* \"#utility.yul\":7531:7624   */\n      tag_231\n        /* \"#utility.yul\":7620:7623   */\n      dup3\n        /* \"#utility.yul\":7531:7624   */\n      tag_232\n      jump\t// in\n    tag_231:\n        /* \"#utility.yul\":7649:7651   */\n      0x20\n        /* \"#utility.yul\":7644:7647   */\n      dup3\n        /* \"#utility.yul\":7640:7652   */\n      add\n        /* \"#utility.yul\":7633:7652   */\n      swap1\n      pop\n        /* \"#utility.yul\":7438:7658   */\n      swap2\n      swap1\n      pop\n      jump\t// out\n        /* \"#utility.yul\":7664:7772   */\n    tag_176:\n        /* \"#utility.yul\":7741:7765   */\n      tag_234\n        /* \"#utility.yul\":7759:7764   */\n      dup2\n        /* \"#utility.yul\":7741:7765   */\n      tag_235\n      jump\t// in\n    tag_234:\n        /* \"#utility.yul\":7736:7739   */\n      dup3\n        /* \"#utility.yul\":7729:7766   */\n      mstore\n        /* \"#utility.yul\":7719:7772   */\n      pop\n      pop\n      jump\t// out\n        /* \"#utility.yul\":7778:7896   */\n    tag_236:\n        /* \"#utility.yul\":7865:7889   */\n      tag_238\n        /* \"#utility.yul\":7883:7888   */\n      dup2\n        /* \"#utility.yul\":7865:7889   */\n      tag_235\n      jump\t// in\n    tag_238:\n        /* \"#utility.yul\":7860:7863   */\n      dup3\n        /* \"#utility.yul\":7853:7890   */\n      mstore\n        /* \"#utility.yul\":7843:7896   */\n      pop\n      pop\n      jump\t// out\n        /* \"#utility.yul\":7902:8124   */\n    tag_17:\n      0x00\n        /* \"#utility.yul\":8033:8035   */\n      0x20\n        /* \"#utility.yul\":8022:8031   */\n      dup3\n        /* \"#utility.yul\":8018:8036   */\n      add\n        /* \"#utility.yul\":8010:8036   */\n      swap1\n      pop\n        /* \"#utility.yul\":8046:8117   */\n      tag_240\n        /* \"#utility.yul\":8114:8115   */\n      0x00\n        /* \"#utility.yul\":8103:8112   */\n      dup4\n        /* \"#utility.yul\":8099:8116   */\n      add\n        /* \"#utility.yul\":8090:8096   */\n      dup5\n        /* \"#utility.yul\":8046:8117   */\n      tag_177\n      jump\t// in\n    tag_240:\n        /* \"#utility.yul\":8000:8124   */\n      swap3\n      swap2\n      pop\n      pop\n      jump\t// out\n        /* \"#utility.yul\":8130:8804   */\n    tag_92:\n      0x00\n        /* \"#utility.yul\":8409:8411   */\n      0x40\n        /* \"#utility.yul\":8398:8407   */\n      dup3\n        /* \"#utility.yul\":8394:8412   */\n      add\n        /* \"#utility.yul\":8386:8412   */\n      swap1\n      pop\n        /* \"#utility.yul\":8458:8467   */\n      dup2\n        /* \"#utility.yul\":8452:8456   */\n      dup2\n        /* \"#utility.yul\":8448:8468   */\n      sub\n        /* \"#utility.yul\":8444:8445   */\n      0x00\n        /* \"#utility.yul\":8433:8442   */\n      dup4\n        /* \"#utility.yul\":8429:8446   */\n      add\n        /* \"#utility.yul\":8422:8469   */\n      mstore\n        /* \"#utility.yul\":8486:8594   */\n      tag_242\n        /* \"#utility.yul\":8589:8593   */\n      dup2\n        /* \"#utility.yul\":8580:8586   */\n      dup6\n        /* \"#utility.yul\":8486:8594   */\n      tag_195\n      jump\t// in\n    tag_242:\n        /* \"#utility.yul\":8478:8594   */\n      swap1\n      pop\n        /* \"#utility.yul\":8641:8650   */\n      dup2\n        /* \"#utility.yul\":8635:8639   */\n      dup2\n        /* \"#utility.yul\":8631:8651   */\n      sub\n        /* \"#utility.yul\":8626:8628   */\n      0x20\n        /* \"#utility.yul\":8615:8624   */\n      dup4\n        /* \"#utility.yul\":8611:8629   */\n      add\n        /* \"#utility.yul\":8604:8652   */\n      mstore\n        /* \"#utility.yul\":8669:8797   */\n      tag_243\n        /* \"#utility.yul\":8792:8796   */\n      dup2\n        /* \"#utility.yul\":8783:8789   */\n      dup5\n        /* \"#utility.yul\":8669:8797   */\n      tag_181\n      jump\t// in\n    tag_243:\n        /* \"#utility.yul\":8661:8797   */\n      swap1\n      pop\n        /* \"#utility.yul\":8376:8804   */\n      swap4\n      swap3\n      pop\n      pop\n      pop\n      jump\t// out\n        /* \"#utility.yul\":8810:9229   */\n    tag_104:\n      0x00\n        /* \"#utility.yul\":9014:9016   */\n      0x20\n        /* \"#utility.yul\":9003:9012   */\n      dup3\n        /* \"#utility.yul\":8999:9017   */\n      add\n        /* \"#utility.yul\":8991:9017   */\n      swap1\n      pop\n        /* \"#utility.yul\":9063:9072   */\n      dup2\n        /* \"#utility.yul\":9057:9061   */\n      dup2\n        /* \"#utility.yul\":9053:9073   */\n      sub\n        /* \"#utility.yul\":9049:9050   */\n      0x00\n        /* \"#utility.yul\":9038:9047   */\n      dup4\n        /* \"#utility.yul\":9034:9051   */\n      add\n        /* \"#utility.yul\":9027:9074   */\n      mstore\n        /* \"#utility.yul\":9091:9222   */\n      tag_245\n        /* \"#utility.yul\":9217:9221   */\n      dup2\n        /* \"#utility.yul\":9091:9222   */\n      tag_222\n      jump\t// in\n    tag_245:\n        /* \"#utility.yul\":9083:9222   */\n      swap1\n      pop\n        /* \"#utility.yul\":8981:9229   */\n      swap2\n      swap1\n      pop\n      jump\t// out\n        /* \"#utility.yul\":9235:9654   */\n    tag_61:\n      0x00\n        /* \"#utility.yul\":9439:9441   */\n      0x20\n        /* \"#utility.yul\":9428:9437   */\n      dup3\n        /* \"#utility.yul\":9424:9442   */\n      add\n        /* \"#utility.yul\":9416:9442   */\n      swap1\n      pop\n        /* \"#utility.yul\":9488:9497   */\n      dup2\n        /* \"#utility.yul\":9482:9486   */\n      dup2\n        /* \"#utility.yul\":9478:9498   */\n      sub\n        /* \"#utility.yul\":9474:9475   */\n      0x00\n        /* \"#utility.yul\":9463:9472   */\n      dup4\n        /* \"#utility.yul\":9459:9476   */\n      add\n        /* \"#utility.yul\":9452:9499   */\n      mstore\n        /* \"#utility.yul\":9516:9647   */\n      tag_247\n        /* \"#utility.yul\":9642:9646   */\n      dup2\n        /* \"#utility.yul\":9516:9647   */\n      tag_228\n      jump\t// in\n    tag_247:\n        /* \"#utility.yul\":9508:9647   */\n      swap1\n      pop\n        /* \"#utility.yul\":9406:9654   */\n      swap2\n      swap1\n      pop\n      jump\t// out\n        /* \"#utility.yul\":9660:10090   */\n    tag_45:\n      0x00\n        /* \"#utility.yul\":9841:9843   */\n      0x60\n        /* \"#utility.yul\":9830:9839   */\n      dup3\n        /* \"#utility.yul\":9826:9844   */\n      add\n        /* \"#utility.yul\":9818:9844   */\n      swap1\n      pop\n        /* \"#utility.yul\":9854:9925   */\n      tag_249\n        /* \"#utility.yul\":9922:9923   */\n      0x00\n        /* \"#utility.yul\":9911:9920   */\n      dup4\n        /* \"#utility.yul\":9907:9924   */\n      add\n        /* \"#utility.yul\":9898:9904   */\n      dup7\n        /* \"#utility.yul\":9854:9925   */\n      tag_236\n      jump\t// in\n    tag_249:\n        /* \"#utility.yul\":9935:10007   */\n      tag_250\n        /* \"#utility.yul\":10003:10005   */\n      0x20\n        /* \"#utility.yul\":9992:10001   */\n      dup4\n        /* \"#utility.yul\":9988:10006   */\n      add\n        /* \"#utility.yul\":9979:9985   */\n      dup6\n        /* \"#utility.yul\":9935:10007   */\n      tag_236\n      jump\t// in\n    tag_250:\n        /* \"#utility.yul\":10017:10083   */\n      tag_251\n        /* \"#utility.yul\":10079:10081   */\n      0x40\n        /* \"#utility.yul\":10068:10077   */\n      dup4\n        /* \"#utility.yul\":10064:10082   */\n      add\n        /* \"#utility.yul\":10055:10061   */\n      dup5\n        /* \"#utility.yul\":10017:10083   */\n      tag_209\n      jump\t// in\n    tag_251:\n        /* \"#utility.yul\":9808:10090   */\n      swap5\n      swap4\n      pop\n      pop\n      pop\n      pop\n      jump\t// out\n        /* \"#utility.yul\":10096:10225   */\n    tag_114:\n      0x00\n        /* \"#utility.yul\":10157:10177   */\n      tag_253\n      tag_254\n      jump\t// in\n    tag_253:\n        /* \"#utility.yul\":10147:10177   */\n      swap1\n      pop\n        /* \"#utility.yul\":10186:10219   */\n      tag_255\n        /* \"#utility.yul\":10214:10218   */\n      dup3\n        /* \"#utility.yul\":10206:10212   */\n      dup3\n        /* \"#utility.yul\":10186:10219   */\n      tag_256\n      jump\t// in\n    tag_255:\n        /* \"#utility.yul\":10137:10225   */\n      swap2\n      swap1\n      pop\n      jump\t// out\n        /* \"#utility.yul\":10231:10306   */\n    tag_254:\n      0x00\n        /* \"#utility.yul\":10297:10299   */\n      0x40\n        /* \"#utility.yul\":10291:10300   */\n      mload\n        /* \"#utility.yul\":10281:10300   */\n      swap1\n      pop\n        /* \"#utility.yul\":10271:10306   */\n      swap1\n      jump\t// out\n        /* \"#utility.yul\":10312:10633   */\n    tag_113:\n      0x00\n        /* \"#utility.yul\":10489:10507   */\n      0xffffffffffffffff\n        /* \"#utility.yul\":10481:10487   */\n      dup3\n        /* \"#utility.yul\":10478:10508   */\n      gt\n        /* \"#utility.yul\":10475:10477   */\n      iszero\n      tag_259\n      jumpi\n        /* \"#utility.yul\":10511:10529   */\n      tag_260\n      tag_261\n      jump\t// in\n    tag_260:\n        /* \"#utility.yul\":10475:10477   */\n    tag_259:\n        /* \"#utility.yul\":10561:10565   */\n      0x20\n        /* \"#utility.yul\":10553:10559   */\n      dup3\n        /* \"#utility.yul\":10549:10566   */\n      mul\n        /* \"#utility.yul\":10541:10566   */\n      swap1\n      pop\n        /* \"#utility.yul\":10621:10625   */\n      0x20\n        /* \"#utility.yul\":10615:10619   */\n      dup2\n        /* \"#utility.yul\":10611:10626   */\n      add\n        /* \"#utility.yul\":10603:10626   */\n      swap1\n      pop\n        /* \"#utility.yul\":10404:10633   */\n      swap2\n      swap1\n      pop\n      jump\t// out\n        /* \"#utility.yul\":10639:10950   */\n    tag_124:\n      0x00\n        /* \"#utility.yul\":10806:10824   */\n      0xffffffffffffffff\n        /* \"#utility.yul\":10798:10804   */\n      dup3\n        /* \"#utility.yul\":10795:10825   */\n      gt\n        /* \"#utility.yul\":10792:10794   */\n      iszero\n      tag_263\n      jumpi\n        /* \"#utility.yul\":10828:10846   */\n      tag_264\n      tag_261\n      jump\t// in\n    tag_264:\n        /* \"#utility.yul\":10792:10794   */\n    tag_263:\n        /* \"#utility.yul\":10878:10882   */\n      0x20\n        /* \"#utility.yul\":10870:10876   */\n      dup3\n        /* \"#utility.yul\":10866:10883   */\n      mul\n        /* \"#utility.yul\":10858:10883   */\n      swap1\n      pop\n        /* \"#utility.yul\":10938:10942   */\n      0x20\n        /* \"#utility.yul\":10932:10936   */\n      dup2\n        /* \"#utility.yul\":10928:10943   */\n      add\n        /* \"#utility.yul\":10920:10943   */\n      swap1\n      pop\n        /* \"#utility.yul\":10721:10950   */\n      swap2\n      swap1\n      pop\n      jump\t// out\n        /* \"#utility.yul\":10956:11264   */\n    tag_135:\n      0x00\n        /* \"#utility.yul\":11108:11126   */\n      0xffffffffffffffff\n        /* \"#utility.yul\":11100:11106   */\n      dup3\n        /* \"#utility.yul\":11097:11127   */\n      gt\n        /* \"#utility.yul\":11094:11096   */\n      iszero\n      tag_266\n      jumpi\n        /* \"#utility.yul\":11130:11148   */\n      tag_267\n      tag_261\n      jump\t// in\n    tag_267:\n        /* \"#utility.yul\":11094:11096   */\n    tag_266:\n        /* \"#utility.yul\":11168:11197   */\n      tag_268\n        /* \"#utility.yul\":11190:11196   */\n      dup3\n        /* \"#utility.yul\":11168:11197   */\n      tag_221\n      jump\t// in\n    tag_268:\n        /* \"#utility.yul\":11160:11197   */\n      swap1\n      pop\n        /* \"#utility.yul\":11252:11256   */\n      0x20\n        /* \"#utility.yul\":11246:11250   */\n      dup2\n        /* \"#utility.yul\":11242:11257   */\n      add\n        /* \"#utility.yul\":11234:11257   */\n      swap1\n      pop\n        /* \"#utility.yul\":11023:11264   */\n      swap2\n      swap1\n      pop\n      jump\t// out\n        /* \"#utility.yul\":11270:11412   */\n    tag_188:\n      0x00\n        /* \"#utility.yul\":11370:11373   */\n      dup2\n        /* \"#utility.yul\":11362:11373   */\n      swap1\n      pop\n        /* \"#utility.yul\":11400:11404   */\n      0x20\n        /* \"#utility.yul\":11395:11398   */\n      dup3\n        /* \"#utility.yul\":11391:11405   */\n      add\n        /* \"#utility.yul\":11383:11405   */\n      swap1\n      pop\n        /* \"#utility.yul\":11352:11412   */\n      swap2\n      swap1\n      pop\n      jump\t// out\n        /* \"#utility.yul\":11418:11550   */\n    tag_202:\n      0x00\n        /* \"#utility.yul\":11508:11511   */\n      dup2\n        /* \"#utility.yul\":11500:11511   */\n      swap1\n      pop\n        /* \"#utility.yul\":11538:11542   */\n      0x20\n        /* \"#utility.yul\":11533:11536   */\n      dup3\n        /* \"#utility.yul\":11529:11543   */\n      add\n        /* \"#utility.yul\":11521:11543   */\n      swap1\n      pop\n        /* \"#utility.yul\":11490:11550   */\n      swap2\n      swap1\n      pop\n      jump\t// out\n        /* \"#utility.yul\":11556:11680   */\n    tag_184:\n      0x00\n        /* \"#utility.yul\":11667:11672   */\n      dup2\n        /* \"#utility.yul\":11661:11673   */\n      mload\n        /* \"#utility.yul\":11651:11673   */\n      swap1\n      pop\n        /* \"#utility.yul\":11640:11680   */\n      swap2\n      swap1\n      pop\n      jump\t// out\n        /* \"#utility.yul\":11686:11800   */\n    tag_198:\n      0x00\n        /* \"#utility.yul\":11787:11792   */\n      dup2\n        /* \"#utility.yul\":11781:11793   */\n      mload\n        /* \"#utility.yul\":11771:11793   */\n      swap1\n      pop\n        /* \"#utility.yul\":11760:11800   */\n      swap2\n      swap1\n      pop\n      jump\t// out\n        /* \"#utility.yul\":11806:11905   */\n    tag_215:\n      0x00\n        /* \"#utility.yul\":11892:11897   */\n      dup2\n        /* \"#utility.yul\":11886:11898   */\n      mload\n        /* \"#utility.yul\":11876:11898   */\n      swap1\n      pop\n        /* \"#utility.yul\":11865:11905   */\n      swap2\n      swap1\n      pop\n      jump\t// out\n        /* \"#utility.yul\":11911:12034   */\n    tag_194:\n      0x00\n        /* \"#utility.yul\":12023:12027   */\n      0x20\n        /* \"#utility.yul\":12018:12021   */\n      dup3\n        /* \"#utility.yul\":12014:12028   */\n      add\n        /* \"#utility.yul\":12006:12028   */\n      swap1\n      pop\n        /* \"#utility.yul\":11996:12034   */\n      swap2\n      swap1\n      pop\n      jump\t// out\n        /* \"#utility.yul\":12040:12153   */\n    tag_208:\n      0x00\n        /* \"#utility.yul\":12142:12146   */\n      0x20\n        /* \"#utility.yul\":12137:12140   */\n      dup3\n        /* \"#utility.yul\":12133:12147   */\n      add\n        /* \"#utility.yul\":12125:12147   */\n      swap1\n      pop\n        /* \"#utility.yul\":12115:12153   */\n      swap2\n      swap1\n      pop\n      jump\t// out\n        /* \"#utility.yul\":12159:12353   */\n    tag_186:\n      0x00\n        /* \"#utility.yul\":12302:12308   */\n      dup3\n        /* \"#utility.yul\":12297:12300   */\n      dup3\n        /* \"#utility.yul\":12290:12309   */\n      mstore\n        /* \"#utility.yul\":12342:12346   */\n      0x20\n        /* \"#utility.yul\":12337:12340   */\n      dup3\n        /* \"#utility.yul\":12333:12347   */\n      add\n        /* \"#utility.yul\":12318:12347   */\n      swap1\n      pop\n        /* \"#utility.yul\":12280:12353   */\n      swap3\n      swap2\n      pop\n      pop\n      jump\t// out\n        /* \"#utility.yul\":12359:12543   */\n    tag_200:\n      0x00\n        /* \"#utility.yul\":12492:12498   */\n      dup3\n        /* \"#utility.yul\":12487:12490   */\n      dup3\n        /* \"#utility.yul\":12480:12499   */\n      mstore\n        /* \"#utility.yul\":12532:12536   */\n      0x20\n        /* \"#utility.yul\":12527:12530   */\n      dup3\n        /* \"#utility.yul\":12523:12537   */\n      add\n        /* \"#utility.yul\":12508:12537   */\n      swap1\n      pop\n        /* \"#utility.yul\":12470:12543   */\n      swap3\n      swap2\n      pop\n      pop\n      jump\t// out\n        /* \"#utility.yul\":12549:12708   */\n    tag_217:\n      0x00\n        /* \"#utility.yul\":12657:12663   */\n      dup3\n        /* \"#utility.yul\":12652:12655   */\n      dup3\n        /* \"#utility.yul\":12645:12664   */\n      mstore\n        /* \"#utility.yul\":12697:12701   */\n      0x20\n        /* \"#utility.yul\":12692:12695   */\n      dup3\n        /* \"#utility.yul\":12688:12702   */\n      add\n        /* \"#utility.yul\":12673:12702   */\n      swap1\n      pop\n        /* \"#utility.yul\":12635:12708   */\n      swap3\n      swap2\n      pop\n      pop\n      jump\t// out\n        /* \"#utility.yul\":12714:12883   */\n    tag_225:\n      0x00\n        /* \"#utility.yul\":12832:12838   */\n      dup3\n        /* \"#utility.yul\":12827:12830   */\n      dup3\n        /* \"#utility.yul\":12820:12839   */\n      mstore\n        /* \"#utility.yul\":12872:12876   */\n      0x20\n        /* \"#utility.yul\":12867:12870   */\n      dup3\n        /* \"#utility.yul\":12863:12877   */\n      add\n        /* \"#utility.yul\":12848:12877   */\n      swap1\n      pop\n        /* \"#utility.yul\":12810:12883   */\n      swap3\n      swap2\n      pop\n      pop\n      jump\t// out\n        /* \"#utility.yul\":12889:12985   */\n    tag_180:\n      0x00\n        /* \"#utility.yul\":12955:12979   */\n      tag_281\n        /* \"#utility.yul\":12973:12978   */\n      dup3\n        /* \"#utility.yul\":12955:12979   */\n      tag_282\n      jump\t// in\n    tag_281:\n        /* \"#utility.yul\":12944:12979   */\n      swap1\n      pop\n        /* \"#utility.yul\":12934:12985   */\n      swap2\n      swap1\n      pop\n      jump\t// out\n        /* \"#utility.yul\":12991:13081   */\n    tag_212:\n      0x00\n        /* \"#utility.yul\":13068:13073   */\n      dup2\n        /* \"#utility.yul\":13061:13074   */\n      iszero\n        /* \"#utility.yul\":13054:13075   */\n      iszero\n        /* \"#utility.yul\":13043:13075   */\n      swap1\n      pop\n        /* \"#utility.yul\":13033:13081   */\n      swap2\n      swap1\n      pop\n      jump\t// out\n        /* \"#utility.yul\":13087:13213   */\n    tag_282:\n      0x00\n        /* \"#utility.yul\":13164:13206   */\n      0xffffffffffffffffffffffffffffffffffffffff\n        /* \"#utility.yul\":13157:13162   */\n      dup3\n        /* \"#utility.yul\":13153:13207   */\n      and\n        /* \"#utility.yul\":13142:13207   */\n      swap1\n      pop\n        /* \"#utility.yul\":13132:13213   */\n      swap2\n      swap1\n      pop\n      jump\t// out\n        /* \"#utility.yul\":13219:13296   */\n    tag_235:\n      0x00\n        /* \"#utility.yul\":13285:13290   */\n      dup2\n        /* \"#utility.yul\":13274:13290   */\n      swap1\n      pop\n        /* \"#utility.yul\":13264:13296   */\n      swap2\n      swap1\n      pop\n      jump\t// out\n        /* \"#utility.yul\":13302:13456   */\n    tag_138:\n        /* \"#utility.yul\":13386:13392   */\n      dup3\n        /* \"#utility.yul\":13381:13384   */\n      dup2\n        /* \"#utility.yul\":13376:13379   */\n      dup4\n        /* \"#utility.yul\":13363:13393   */\n      calldatacopy\n        /* \"#utility.yul\":13448:13449   */\n      0x00\n        /* \"#utility.yul\":13439:13445   */\n      dup4\n        /* \"#utility.yul\":13434:13437   */\n      dup4\n        /* \"#utility.yul\":13430:13446   */\n      add\n        /* \"#utility.yul\":13423:13450   */\n      mstore\n        /* \"#utility.yul\":13353:13456   */\n      pop\n      pop\n      pop\n      jump\t// out\n        /* \"#utility.yul\":13462:13769   */\n    tag_219:\n        /* \"#utility.yul\":13530:13531   */\n      0x00\n        /* \"#utility.yul\":13540:13653   */\n    tag_288:\n        /* \"#utility.yul\":13554:13560   */\n      dup4\n        /* \"#utility.yul\":13551:13552   */\n      dup2\n        /* \"#utility.yul\":13548:13561   */\n      lt\n        /* \"#utility.yul\":13540:13653   */\n      iszero\n      tag_290\n      jumpi\n        /* \"#utility.yul\":13639:13640   */\n      dup1\n        /* \"#utility.yul\":13634:13637   */\n      dup3\n        /* \"#utility.yul\":13630:13641   */\n      add\n        /* \"#utility.yul\":13624:13642   */\n      mload\n        /* \"#utility.yul\":13620:13621   */\n      dup2\n        /* \"#utility.yul\":13615:13618   */\n      dup5\n        /* \"#utility.yul\":13611:13622   */\n      add\n        /* \"#utility.yul\":13604:13643   */\n      mstore\n        /* \"#utility.yul\":13576:13578   */\n      0x20\n        /* \"#utility.yul\":13573:13574   */\n      dup2\n        /* \"#utility.yul\":13569:13579   */\n      add\n        /* \"#utility.yul\":13564:13579   */\n      swap1\n      pop\n        /* \"#utility.yul\":13540:13653   */\n      jump(tag_288)\n    tag_290:\n        /* \"#utility.yul\":13671:13677   */\n      dup4\n        /* \"#utility.yul\":13668:13669   */\n      dup2\n        /* \"#utility.yul\":13665:13678   */\n      gt\n        /* \"#utility.yul\":13662:13664   */\n      iszero\n      tag_291\n      jumpi\n        /* \"#utility.yul\":13751:13752   */\n      0x00\n        /* \"#utility.yul\":13742:13748   */\n      dup5\n        /* \"#utility.yul\":13737:13740   */\n      dup5\n        /* \"#utility.yul\":13733:13749   */\n      add\n        /* \"#utility.yul\":13726:13753   */\n      mstore\n        /* \"#utility.yul\":13662:13664   */\n    tag_291:\n        /* \"#utility.yul\":13511:13769   */\n      pop\n      pop\n      pop\n      pop\n      jump\t// out\n        /* \"#utility.yul\":13775:14056   */\n    tag_256:\n        /* \"#utility.yul\":13858:13885   */\n      tag_293\n        /* \"#utility.yul\":13880:13884   */\n      dup3\n        /* \"#utility.yul\":13858:13885   */\n      tag_221\n      jump\t// in\n    tag_293:\n        /* \"#utility.yul\":13850:13856   */\n      dup2\n        /* \"#utility.yul\":13846:13886   */\n      add\n        /* \"#utility.yul\":13988:13994   */\n      dup2\n        /* \"#utility.yul\":13976:13986   */\n      dup2\n        /* \"#utility.yul\":13973:13995   */\n      lt\n        /* \"#utility.yul\":13952:13970   */\n      0xffffffffffffffff\n        /* \"#utility.yul\":13940:13950   */\n      dup3\n        /* \"#utility.yul\":13937:13971   */\n      gt\n        /* \"#utility.yul\":13934:13996   */\n      or\n        /* \"#utility.yul\":13931:13933   */\n      iszero\n      tag_294\n      jumpi\n        /* \"#utility.yul\":13999:14017   */\n      tag_295\n      tag_261\n      jump\t// in\n    tag_295:\n        /* \"#utility.yul\":13931:13933   */\n    tag_294:\n        /* \"#utility.yul\":14039:14049   */\n      dup1\n        /* \"#utility.yul\":14035:14037   */\n      0x40\n        /* \"#utility.yul\":14028:14050   */\n      mstore\n        /* \"#utility.yul\":13818:14056   */\n      pop\n      pop\n      pop\n      jump\t// out\n        /* \"#utility.yul\":14062:14242   */\n    tag_261:\n        /* \"#utility.yul\":14110:14187   */\n      0x4e487b7100000000000000000000000000000000000000000000000000000000\n        /* \"#utility.yul\":14107:14108   */\n      0x00\n        /* \"#utility.yul\":14100:14188   */\n      mstore\n        /* \"#utility.yul\":14207:14211   */\n      0x41\n        /* \"#utility.yul\":14204:14205   */\n      0x04\n        /* \"#utility.yul\":14197:14212   */\n      mstore\n        /* \"#utility.yul\":14231:14235   */\n      0x24\n        /* \"#utility.yul\":14228:14229   */\n      0x00\n        /* \"#utility.yul\":14221:14236   */\n      revert\n        /* \"#utility.yul\":14248:14350   */\n    tag_221:\n      0x00\n        /* \"#utility.yul\":14340:14342   */\n      0x1f\n        /* \"#utility.yul\":14336:14343   */\n      not\n        /* \"#utility.yul\":14331:14333   */\n      0x1f\n        /* \"#utility.yul\":14324:14329   */\n      dup4\n        /* \"#utility.yul\":14320:14334   */\n      add\n        /* \"#utility.yul\":14316:14344   */\n      and\n        /* \"#utility.yul\":14306:14344   */\n      swap1\n      pop\n        /* \"#utility.yul\":14296:14350   */\n      swap2\n      swap1\n      pop\n      jump\t// out\n        /* \"#utility.yul\":14356:14581   */\n    tag_227:\n        /* \"#utility.yul\":14496:14530   */\n      0x4f776e61626c653a206e6577206f776e657220697320746865207a65726f2061\n        /* \"#utility.yul\":14492:14493   */\n      0x00\n        /* \"#utility.yul\":14484:14490   */\n      dup3\n        /* \"#utility.yul\":14480:14494   */\n      add\n        /* \"#utility.yul\":14473:14531   */\n      mstore\n        /* \"#utility.yul\":14565:14573   */\n      0x6464726573730000000000000000000000000000000000000000000000000000\n        /* \"#utility.yul\":14560:14562   */\n      0x20\n        /* \"#utility.yul\":14552:14558   */\n      dup3\n        /* \"#utility.yul\":14548:14563   */\n      add\n        /* \"#utility.yul\":14541:14574   */\n      mstore\n        /* \"#utility.yul\":14462:14581   */\n      pop\n      jump\t// out\n        /* \"#utility.yul\":14587:14769   */\n    tag_232:\n        /* \"#utility.yul\":14727:14761   */\n      0x4f776e61626c653a2063616c6c6572206973206e6f7420746865206f776e6572\n        /* \"#utility.yul\":14723:14724   */\n      0x00\n        /* \"#utility.yul\":14715:14721   */\n      dup3\n        /* \"#utility.yul\":14711:14725   */\n      add\n        /* \"#utility.yul\":14704:14762   */\n      mstore\n        /* \"#utility.yul\":14693:14769   */\n      pop\n      jump\t// out\n        /* \"#utility.yul\":14775:14897   */\n    tag_142:\n        /* \"#utility.yul\":14848:14872   */\n      tag_301\n        /* \"#utility.yul\":14866:14871   */\n      dup2\n        /* \"#utility.yul\":14848:14872   */\n      tag_180\n      jump\t// in\n    tag_301:\n        /* \"#utility.yul\":14841:14846   */\n      dup2\n        /* \"#utility.yul\":14838:14873   */\n      eq\n        /* \"#utility.yul\":14828:14830   */\n      tag_302\n      jumpi\n        /* \"#utility.yul\":14887:14888   */\n      0x00\n        /* \"#utility.yul\":14884:14885   */\n      dup1\n        /* \"#utility.yul\":14877:14889   */\n      revert\n        /* \"#utility.yul\":14828:14830   */\n    tag_302:\n        /* \"#utility.yul\":14818:14897   */\n      pop\n      jump\t// out\n        /* \"#utility.yul\":14903:15025   */\n    tag_156:\n        /* \"#utility.yul\":14976:15000   */\n      tag_304\n        /* \"#utility.yul\":14994:14999   */\n      dup2\n        /* \"#utility.yul\":14976:15000   */\n      tag_235\n      jump\t// in\n    tag_304:\n        /* \"#utility.yul\":14969:14974   */\n      dup2\n        /* \"#utility.yul\":14966:15001   */\n      eq\n        /* \"#utility.yul\":14956:14958   */\n      tag_305\n      jumpi\n        /* \"#utility.yul\":15015:15016   */\n      0x00\n        /* \"#utility.yul\":15012:15013   */\n      dup1\n        /* \"#utility.yul\":15005:15017   */\n      revert\n        /* \"#utility.yul\":14956:14958   */\n    tag_305:\n        /* \"#utility.yul\":14946:15025   */\n      pop\n      jump\t// out\n\n    auxdata: 0xa2646970667358221220707b6518960e7c9e4e96c0f6a1d5ddd66931927bf53f3b39167899a350a2d37b64736f6c63430008010033\n}\n",
				"bytecode": {
					"linkReferences": {},
					"object": "60806040526370dc490060025560405180606001604052806127108152602001428152602001600015158152506004600082015181600001556020820151816001015560408201518160020160006101000a81548160ff021916908315150217905550505034801561007057600080fd5b5061008d61008261009260201b60201c565b61009a60201b60201c565b61015e565b600033905090565b60008060009054906101000a900473ffffffffffffffffffffffffffffffffffffffff169050816000806101000a81548173ffffffffffffffffffffffffffffffffffffffff021916908373ffffffffffffffffffffffffffffffffffffffff1602179055508173ffffffffffffffffffffffffffffffffffffffff168173ffffffffffffffffffffffffffffffffffffffff167f8be0079c531659141344cd1fd0a4f28419497f9722a3daafe3b4186f6b6457e060405160405180910390a35050565b610fb88061016d6000396000f3fe6080604052600436106100915760003560e01c80638da5cb5b116100595780638da5cb5b14610153578063bff29cee1461017e578063c046371114610188578063f121da92146101b5578063f2fde38b146101de57610091565b806311ce0267146100965780631515fa6e146100c15780632f181f54146100ea57806351f7598c14610113578063715018a61461013c575b600080fd5b3480156100a257600080fd5b506100ab610207565b6040516100b89190610bcb565b60405180910390f35b3480156100cd57600080fd5b506100e860048036038101906100e391906109e8565b61022d565b005b3480156100f657600080fd5b50610111600480360381019061010c91906109e8565b6102b3565b005b34801561011f57600080fd5b5061013a60048036038101906101359190610953565b610339565b005b34801561014857600080fd5b506101516103f9565b005b34801561015f57600080fd5b50610168610481565b6040516101759190610bcb565b60405180910390f35b6101866104aa565b005b34801561019457600080fd5b5061019d6104ac565b6040516101ac93929190610c5d565b60405180910390f35b3480156101c157600080fd5b506101dc60048036038101906101d7919061097c565b6104d1565b005b3480156101ea57600080fd5b5061020560048036038101906102009190610953565b6105e0565b005b600160009054906101000a900473ffffffffffffffffffffffffffffffffffffffff1681565b6102356106d8565b73ffffffffffffffffffffffffffffffffffffffff16610253610481565b73ffffffffffffffffffffffffffffffffffffffff16146102a9576040517f08c379a00000000000000000000000000000000000000000000000000000000081526004016102a090610c3d565b60405180910390fd5b8060038190555050565b6102bb6106d8565b73ffffffffffffffffffffffffffffffffffffffff166102d9610481565b73ffffffffffffffffffffffffffffffffffffffff161461032f576040517f08c379a000000000000000000000000000000000000000000000000000000000815260040161032690610c3d565b60405180910390fd5b8060028190555050565b6103416106d8565b73ffffffffffffffffffffffffffffffffffffffff1661035f610481565b73ffffffffffffffffffffffffffffffffffffffff16146103b5576040517f08c379a00000000000000000000000000000000000000000000000000000000081526004016103ac90610c3d565b60405180910390fd5b80600160006101000a81548173ffffffffffffffffffffffffffffffffffffffff021916908373ffffffffffffffffffffffffffffffffffffffff16021790555050565b6104016106d8565b73ffffffffffffffffffffffffffffffffffffffff1661041f610481565b73ffffffffffffffffffffffffffffffffffffffff1614610475576040517f08c379a000000000000000000000000000000000000000000000000000000000815260040161046c90610c3d565b60405180910390fd5b61047f60006106e0565b565b60008060009054906101000a900473ffffffffffffffffffffffffffffffffffffffff16905090565b565b60048060000154908060010154908060020160009054906101000a900460ff16905083565b6104d96106d8565b73ffffffffffffffffffffffffffffffffffffffff166104f7610481565b73ffffffffffffffffffffffffffffffffffffffff161461054d576040517f08c379a000000000000000000000000000000000000000000000000000000000815260040161054490610c3d565b60405180910390fd5b600160009054906101000a900473ffffffffffffffffffffffffffffffffffffffff1673ffffffffffffffffffffffffffffffffffffffff1663f121da9283836040518363ffffffff1660e01b81526004016105aa929190610be6565b600060405180830381600087803b1580156105c457600080fd5b505af11580156105d8573d6000803e3d6000fd5b505050505050565b6105e86106d8565b73ffffffffffffffffffffffffffffffffffffffff16610606610481565b73ffffffffffffffffffffffffffffffffffffffff161461065c576040517f08c379a000000000000000000000000000000000000000000000000000000000815260040161065390610c3d565b60405180910390fd5b600073ffffffffffffffffffffffffffffffffffffffff168173ffffffffffffffffffffffffffffffffffffffff1614156106cc576040517f08c379a00000000000000000000000000000000000000000000000000000000081526004016106c390610c1d565b60405180910390fd5b6106d5816106e0565b50565b600033905090565b60008060009054906101000a900473ffffffffffffffffffffffffffffffffffffffff169050816000806101000a81548173ffffffffffffffffffffffffffffffffffffffff021916908373ffffffffffffffffffffffffffffffffffffffff1602179055508173ffffffffffffffffffffffffffffffffffffffff168173ffffffffffffffffffffffffffffffffffffffff167f8be0079c531659141344cd1fd0a4f28419497f9722a3daafe3b4186f6b6457e060405160405180910390a35050565b60006107b76107b284610cb9565b610c94565b9050808382526020820190508260005b858110156107f757813585016107dd8882610914565b8452602084019350602083019250506001810190506107c7565b5050509392505050565b600061081461080f84610ce5565b610c94565b9050808382526020820190508285602086028201111561083357600080fd5b60005b858110156108635781610849888261093e565b845260208401935060208301925050600181019050610836565b5050509392505050565b600061088061087b84610d11565b610c94565b90508281526020810184848401111561089857600080fd5b6108a3848285610e29565b509392505050565b6000813590506108ba81610f54565b92915050565b600082601f8301126108d157600080fd5b81356108e18482602086016107a4565b91505092915050565b600082601f8301126108fb57600080fd5b813561090b848260208601610801565b91505092915050565b600082601f83011261092557600080fd5b813561093584826020860161086d565b91505092915050565b60008135905061094d81610f6b565b92915050565b60006020828403121561096557600080fd5b6000610973848285016108ab565b91505092915050565b6000806040838503121561098f57600080fd5b600083013567ffffffffffffffff8111156109a957600080fd5b6109b5858286016108ea565b925050602083013567ffffffffffffffff8111156109d257600080fd5b6109de858286016108c0565b9150509250929050565b6000602082840312156109fa57600080fd5b6000610a088482850161093e565b91505092915050565b6000610a1d8383610b2e565b905092915050565b6000610a318383610bad565b60208301905092915050565b610a4681610de1565b82525050565b6000610a5782610d62565b610a618185610d9d565b935083602082028501610a7385610d42565b8060005b85811015610aaf5784840389528151610a908582610a11565b9450610a9b83610d83565b925060208a01995050600181019050610a77565b50829750879550505050505092915050565b6000610acc82610d6d565b610ad68185610dae565b9350610ae183610d52565b8060005b83811015610b12578151610af98882610a25565b9750610b0483610d90565b925050600181019050610ae5565b5085935050505092915050565b610b2881610df3565b82525050565b6000610b3982610d78565b610b438185610dbf565b9350610b53818560208601610e38565b610b5c81610ecb565b840191505092915050565b6000610b74602683610dd0565b9150610b7f82610edc565b604082019050919050565b6000610b97602083610dd0565b9150610ba282610f2b565b602082019050919050565b610bb681610e1f565b82525050565b610bc581610e1f565b82525050565b6000602082019050610be06000830184610a3d565b92915050565b60006040820190508181036000830152610c008185610ac1565b90508181036020830152610c148184610a4c565b90509392505050565b60006020820190508181036000830152610c3681610b67565b9050919050565b60006020820190508181036000830152610c5681610b8a565b9050919050565b6000606082019050610c726000830186610bbc565b610c7f6020830185610bbc565b610c8c6040830184610b1f565b949350505050565b6000610c9e610caf565b9050610caa8282610e6b565b919050565b6000604051905090565b600067ffffffffffffffff821115610cd457610cd3610e9c565b5b602082029050602081019050919050565b600067ffffffffffffffff821115610d0057610cff610e9c565b5b602082029050602081019050919050565b600067ffffffffffffffff821115610d2c57610d2b610e9c565b5b610d3582610ecb565b9050602081019050919050565b6000819050602082019050919050565b6000819050602082019050919050565b600081519050919050565b600081519050919050565b600081519050919050565b6000602082019050919050565b6000602082019050919050565b600082825260208201905092915050565b600082825260208201905092915050565b600082825260208201905092915050565b600082825260208201905092915050565b6000610dec82610dff565b9050919050565b60008115159050919050565b600073ffffffffffffffffffffffffffffffffffffffff82169050919050565b6000819050919050565b82818337600083830152505050565b60005b83811015610e56578082015181840152602081019050610e3b565b83811115610e65576000848401525b50505050565b610e7482610ecb565b810181811067ffffffffffffffff82111715610e9357610e92610e9c565b5b80604052505050565b7f4e487b7100000000000000000000000000000000000000000000000000000000600052604160045260246000fd5b6000601f19601f8301169050919050565b7f4f776e61626c653a206e6577206f776e657220697320746865207a65726f206160008201527f6464726573730000000000000000000000000000000000000000000000000000602082015250565b7f4f776e61626c653a2063616c6c6572206973206e6f7420746865206f776e6572600082015250565b610f5d81610de1565b8114610f6857600080fd5b50565b610f7481610e1f565b8114610f7f57600080fd5b5056fea2646970667358221220707b6518960e7c9e4e96c0f6a1d5ddd66931927bf53f3b39167899a350a2d37b64736f6c63430008010033",
					"opcodes": "PUSH1 0x80 PUSH1 0x40 MSTORE PUSH4 0x70DC4900 PUSH1 0x2 SSTORE PUSH1 0x40 MLOAD DUP1 PUSH1 0x60 ADD PUSH1 0x40 MSTORE DUP1 PUSH2 0x2710 DUP2 MSTORE PUSH1 0x20 ADD TIMESTAMP DUP2 MSTORE PUSH1 0x20 ADD PUSH1 0x0 ISZERO ISZERO DUP2 MSTORE POP PUSH1 0x4 PUSH1 0x0 DUP3 ADD MLOAD DUP2 PUSH1 0x0 ADD SSTORE PUSH1 0x20 DUP3 ADD MLOAD DUP2 PUSH1 0x1 ADD SSTORE PUSH1 0x40 DUP3 ADD MLOAD DUP2 PUSH1 0x2 ADD PUSH1 0x0 PUSH2 0x100 EXP DUP2 SLOAD DUP2 PUSH1 0xFF MUL NOT AND SWAP1 DUP4 ISZERO ISZERO MUL OR SWAP1 SSTORE POP POP POP CALLVALUE DUP1 ISZERO PUSH2 0x70 JUMPI PUSH1 0x0 DUP1 REVERT JUMPDEST POP PUSH2 0x8D PUSH2 0x82 PUSH2 0x92 PUSH1 0x20 SHL PUSH1 0x20 SHR JUMP JUMPDEST PUSH2 0x9A PUSH1 0x20 SHL PUSH1 0x20 SHR JUMP JUMPDEST PUSH2 0x15E JUMP JUMPDEST PUSH1 0x0 CALLER SWAP1 POP SWAP1 JUMP JUMPDEST PUSH1 0x0 DUP1 PUSH1 0x0 SWAP1 SLOAD SWAP1 PUSH2 0x100 EXP SWAP1 DIV PUSH20 0xFFFFFFFFFFFFFFFFFFFFFFFFFFFFFFFFFFFFFFFF AND SWAP1 POP DUP2 PUSH1 0x0 DUP1 PUSH2 0x100 EXP DUP2 SLOAD DUP2 PUSH20 0xFFFFFFFFFFFFFFFFFFFFFFFFFFFFFFFFFFFFFFFF MUL NOT AND SWAP1 DUP4 PUSH20 0xFFFFFFFFFFFFFFFFFFFFFFFFFFFFFFFFFFFFFFFF AND MUL OR SWAP1 SSTORE POP DUP2 PUSH20 0xFFFFFFFFFFFFFFFFFFFFFFFFFFFFFFFFFFFFFFFF AND DUP2 PUSH20 0xFFFFFFFFFFFFFFFFFFFFFFFFFFFFFFFFFFFFFFFF AND PUSH32 0x8BE0079C531659141344CD1FD0A4F28419497F9722A3DAAFE3B4186F6B6457E0 PUSH1 0x40 MLOAD PUSH1 0x40 MLOAD DUP1 SWAP2 SUB SWAP1 LOG3 POP POP JUMP JUMPDEST PUSH2 0xFB8 DUP1 PUSH2 0x16D PUSH1 0x0 CODECOPY PUSH1 0x0 RETURN INVALID PUSH1 0x80 PUSH1 0x40 MSTORE PUSH1 0x4 CALLDATASIZE LT PUSH2 0x91 JUMPI PUSH1 0x0 CALLDATALOAD PUSH1 0xE0 SHR DUP1 PUSH4 0x8DA5CB5B GT PUSH2 0x59 JUMPI DUP1 PUSH4 0x8DA5CB5B EQ PUSH2 0x153 JUMPI DUP1 PUSH4 0xBFF29CEE EQ PUSH2 0x17E JUMPI DUP1 PUSH4 0xC0463711 EQ PUSH2 0x188 JUMPI DUP1 PUSH4 0xF121DA92 EQ PUSH2 0x1B5 JUMPI DUP1 PUSH4 0xF2FDE38B EQ PUSH2 0x1DE JUMPI PUSH2 0x91 JUMP JUMPDEST DUP1 PUSH4 0x11CE0267 EQ PUSH2 0x96 JUMPI DUP1 PUSH4 0x1515FA6E EQ PUSH2 0xC1 JUMPI DUP1 PUSH4 0x2F181F54 EQ PUSH2 0xEA JUMPI DUP1 PUSH4 0x51F7598C EQ PUSH2 0x113 JUMPI DUP1 PUSH4 0x715018A6 EQ PUSH2 0x13C JUMPI JUMPDEST PUSH1 0x0 DUP1 REVERT JUMPDEST CALLVALUE DUP1 ISZERO PUSH2 0xA2 JUMPI PUSH1 0x0 DUP1 REVERT JUMPDEST POP PUSH2 0xAB PUSH2 0x207 JUMP JUMPDEST PUSH1 0x40 MLOAD PUSH2 0xB8 SWAP2 SWAP1 PUSH2 0xBCB JUMP JUMPDEST PUSH1 0x40 MLOAD DUP1 SWAP2 SUB SWAP1 RETURN JUMPDEST CALLVALUE DUP1 ISZERO PUSH2 0xCD JUMPI PUSH1 0x0 DUP1 REVERT JUMPDEST POP PUSH2 0xE8 PUSH1 0x4 DUP1 CALLDATASIZE SUB DUP2 ADD SWAP1 PUSH2 0xE3 SWAP2 SWAP1 PUSH2 0x9E8 JUMP JUMPDEST PUSH2 0x22D JUMP JUMPDEST STOP JUMPDEST CALLVALUE DUP1 ISZERO PUSH2 0xF6 JUMPI PUSH1 0x0 DUP1 REVERT JUMPDEST POP PUSH2 0x111 PUSH1 0x4 DUP1 CALLDATASIZE SUB DUP2 ADD SWAP1 PUSH2 0x10C SWAP2 SWAP1 PUSH2 0x9E8 JUMP JUMPDEST PUSH2 0x2B3 JUMP JUMPDEST STOP JUMPDEST CALLVALUE DUP1 ISZERO PUSH2 0x11F JUMPI PUSH1 0x0 DUP1 REVERT JUMPDEST POP PUSH2 0x13A PUSH1 0x4 DUP1 CALLDATASIZE SUB DUP2 ADD SWAP1 PUSH2 0x135 SWAP2 SWAP1 PUSH2 0x953 JUMP JUMPDEST PUSH2 0x339 JUMP JUMPDEST STOP JUMPDEST CALLVALUE DUP1 ISZERO PUSH2 0x148 JUMPI PUSH1 0x0 DUP1 REVERT JUMPDEST POP PUSH2 0x151 PUSH2 0x3F9 JUMP JUMPDEST STOP JUMPDEST CALLVALUE DUP1 ISZERO PUSH2 0x15F JUMPI PUSH1 0x0 DUP1 REVERT JUMPDEST POP PUSH2 0x168 PUSH2 0x481 JUMP JUMPDEST PUSH1 0x40 MLOAD PUSH2 0x175 SWAP2 SWAP1 PUSH2 0xBCB JUMP JUMPDEST PUSH1 0x40 MLOAD DUP1 SWAP2 SUB SWAP1 RETURN JUMPDEST PUSH2 0x186 PUSH2 0x4AA JUMP JUMPDEST STOP JUMPDEST CALLVALUE DUP1 ISZERO PUSH2 0x194 JUMPI PUSH1 0x0 DUP1 REVERT JUMPDEST POP PUSH2 0x19D PUSH2 0x4AC JUMP JUMPDEST PUSH1 0x40 MLOAD PUSH2 0x1AC SWAP4 SWAP3 SWAP2 SWAP1 PUSH2 0xC5D JUMP JUMPDEST PUSH1 0x40 MLOAD DUP1 SWAP2 SUB SWAP1 RETURN JUMPDEST CALLVALUE DUP1 ISZERO PUSH2 0x1C1 JUMPI PUSH1 0x0 DUP1 REVERT JUMPDEST POP PUSH2 0x1DC PUSH1 0x4 DUP1 CALLDATASIZE SUB DUP2 ADD SWAP1 PUSH2 0x1D7 SWAP2 SWAP1 PUSH2 0x97C JUMP JUMPDEST PUSH2 0x4D1 JUMP JUMPDEST STOP JUMPDEST CALLVALUE DUP1 ISZERO PUSH2 0x1EA JUMPI PUSH1 0x0 DUP1 REVERT JUMPDEST POP PUSH2 0x205 PUSH1 0x4 DUP1 CALLDATASIZE SUB DUP2 ADD SWAP1 PUSH2 0x200 SWAP2 SWAP1 PUSH2 0x953 JUMP JUMPDEST PUSH2 0x5E0 JUMP JUMPDEST STOP JUMPDEST PUSH1 0x1 PUSH1 0x0 SWAP1 SLOAD SWAP1 PUSH2 0x100 EXP SWAP1 DIV PUSH20 0xFFFFFFFFFFFFFFFFFFFFFFFFFFFFFFFFFFFFFFFF AND DUP2 JUMP JUMPDEST PUSH2 0x235 PUSH2 0x6D8 JUMP JUMPDEST PUSH20 0xFFFFFFFFFFFFFFFFFFFFFFFFFFFFFFFFFFFFFFFF AND PUSH2 0x253 PUSH2 0x481 JUMP JUMPDEST PUSH20 0xFFFFFFFFFFFFFFFFFFFFFFFFFFFFFFFFFFFFFFFF AND EQ PUSH2 0x2A9 JUMPI PUSH1 0x40 MLOAD PUSH32 0x8C379A000000000000000000000000000000000000000000000000000000000 DUP2 MSTORE PUSH1 0x4 ADD PUSH2 0x2A0 SWAP1 PUSH2 0xC3D JUMP JUMPDEST PUSH1 0x40 MLOAD DUP1 SWAP2 SUB SWAP1 REVERT JUMPDEST DUP1 PUSH1 0x3 DUP2 SWAP1 SSTORE POP POP JUMP JUMPDEST PUSH2 0x2BB PUSH2 0x6D8 JUMP JUMPDEST PUSH20 0xFFFFFFFFFFFFFFFFFFFFFFFFFFFFFFFFFFFFFFFF AND PUSH2 0x2D9 PUSH2 0x481 JUMP JUMPDEST PUSH20 0xFFFFFFFFFFFFFFFFFFFFFFFFFFFFFFFFFFFFFFFF AND EQ PUSH2 0x32F JUMPI PUSH1 0x40 MLOAD PUSH32 0x8C379A000000000000000000000000000000000000000000000000000000000 DUP2 MSTORE PUSH1 0x4 ADD PUSH2 0x326 SWAP1 PUSH2 0xC3D JUMP JUMPDEST PUSH1 0x40 MLOAD DUP1 SWAP2 SUB SWAP1 REVERT JUMPDEST DUP1 PUSH1 0x2 DUP2 SWAP1 SSTORE POP POP JUMP JUMPDEST PUSH2 0x341 PUSH2 0x6D8 JUMP JUMPDEST PUSH20 0xFFFFFFFFFFFFFFFFFFFFFFFFFFFFFFFFFFFFFFFF AND PUSH2 0x35F PUSH2 0x481 JUMP JUMPDEST PUSH20 0xFFFFFFFFFFFFFFFFFFFFFFFFFFFFFFFFFFFFFFFF AND EQ PUSH2 0x3B5 JUMPI PUSH1 0x40 MLOAD PUSH32 0x8C379A000000000000000000000000000000000000000000000000000000000 DUP2 MSTORE PUSH1 0x4 ADD PUSH2 0x3AC SWAP1 PUSH2 0xC3D JUMP JUMPDEST PUSH1 0x40 MLOAD DUP1 SWAP2 SUB SWAP1 REVERT JUMPDEST DUP1 PUSH1 0x1 PUSH1 0x0 PUSH2 0x100 EXP DUP2 SLOAD DUP2 PUSH20 0xFFFFFFFFFFFFFFFFFFFFFFFFFFFFFFFFFFFFFFFF MUL NOT AND SWAP1 DUP4 PUSH20 0xFFFFFFFFFFFFFFFFFFFFFFFFFFFFFFFFFFFFFFFF AND MUL OR SWAP1 SSTORE POP POP JUMP JUMPDEST PUSH2 0x401 PUSH2 0x6D8 JUMP JUMPDEST PUSH20 0xFFFFFFFFFFFFFFFFFFFFFFFFFFFFFFFFFFFFFFFF AND PUSH2 0x41F PUSH2 0x481 JUMP JUMPDEST PUSH20 0xFFFFFFFFFFFFFFFFFFFFFFFFFFFFFFFFFFFFFFFF AND EQ PUSH2 0x475 JUMPI PUSH1 0x40 MLOAD PUSH32 0x8C379A000000000000000000000000000000000000000000000000000000000 DUP2 MSTORE PUSH1 0x4 ADD PUSH2 0x46C SWAP1 PUSH2 0xC3D JUMP JUMPDEST PUSH1 0x40 MLOAD DUP1 SWAP2 SUB SWAP1 REVERT JUMPDEST PUSH2 0x47F PUSH1 0x0 PUSH2 0x6E0 JUMP JUMPDEST JUMP JUMPDEST PUSH1 0x0 DUP1 PUSH1 0x0 SWAP1 SLOAD SWAP1 PUSH2 0x100 EXP SWAP1 DIV PUSH20 0xFFFFFFFFFFFFFFFFFFFFFFFFFFFFFFFFFFFFFFFF AND SWAP1 POP SWAP1 JUMP JUMPDEST JUMP JUMPDEST PUSH1 0x4 DUP1 PUSH1 0x0 ADD SLOAD SWAP1 DUP1 PUSH1 0x1 ADD SLOAD SWAP1 DUP1 PUSH1 0x2 ADD PUSH1 0x0 SWAP1 SLOAD SWAP1 PUSH2 0x100 EXP SWAP1 DIV PUSH1 0xFF AND SWAP1 POP DUP4 JUMP JUMPDEST PUSH2 0x4D9 PUSH2 0x6D8 JUMP JUMPDEST PUSH20 0xFFFFFFFFFFFFFFFFFFFFFFFFFFFFFFFFFFFFFFFF AND PUSH2 0x4F7 PUSH2 0x481 JUMP JUMPDEST PUSH20 0xFFFFFFFFFFFFFFFFFFFFFFFFFFFFFFFFFFFFFFFF AND EQ PUSH2 0x54D JUMPI PUSH1 0x40 MLOAD PUSH32 0x8C379A000000000000000000000000000000000000000000000000000000000 DUP2 MSTORE PUSH1 0x4 ADD PUSH2 0x544 SWAP1 PUSH2 0xC3D JUMP JUMPDEST PUSH1 0x40 MLOAD DUP1 SWAP2 SUB SWAP1 REVERT JUMPDEST PUSH1 0x1 PUSH1 0x0 SWAP1 SLOAD SWAP1 PUSH2 0x100 EXP SWAP1 DIV PUSH20 0xFFFFFFFFFFFFFFFFFFFFFFFFFFFFFFFFFFFFFFFF AND PUSH20 0xFFFFFFFFFFFFFFFFFFFFFFFFFFFFFFFFFFFFFFFF AND PUSH4 0xF121DA92 DUP4 DUP4 PUSH1 0x40 MLOAD DUP4 PUSH4 0xFFFFFFFF AND PUSH1 0xE0 SHL DUP2 MSTORE PUSH1 0x4 ADD PUSH2 0x5AA SWAP3 SWAP2 SWAP1 PUSH2 0xBE6 JUMP JUMPDEST PUSH1 0x0 PUSH1 0x40 MLOAD DUP1 DUP4 SUB DUP2 PUSH1 0x0 DUP8 DUP1 EXTCODESIZE ISZERO DUP1 ISZERO PUSH2 0x5C4 JUMPI PUSH1 0x0 DUP1 REVERT JUMPDEST POP GAS CALL ISZERO DUP1 ISZERO PUSH2 0x5D8 JUMPI RETURNDATASIZE PUSH1 0x0 DUP1 RETURNDATACOPY RETURNDATASIZE PUSH1 0x0 REVERT JUMPDEST POP POP POP POP POP POP JUMP JUMPDEST PUSH2 0x5E8 PUSH2 0x6D8 JUMP JUMPDEST PUSH20 0xFFFFFFFFFFFFFFFFFFFFFFFFFFFFFFFFFFFFFFFF AND PUSH2 0x606 PUSH2 0x481 JUMP JUMPDEST PUSH20 0xFFFFFFFFFFFFFFFFFFFFFFFFFFFFFFFFFFFFFFFF AND EQ PUSH2 0x65C JUMPI PUSH1 0x40 MLOAD PUSH32 0x8C379A000000000000000000000000000000000000000000000000000000000 DUP2 MSTORE PUSH1 0x4 ADD PUSH2 0x653 SWAP1 PUSH2 0xC3D JUMP JUMPDEST PUSH1 0x40 MLOAD DUP1 SWAP2 SUB SWAP1 REVERT JUMPDEST PUSH1 0x0 PUSH20 0xFFFFFFFFFFFFFFFFFFFFFFFFFFFFFFFFFFFFFFFF AND DUP2 PUSH20 0xFFFFFFFFFFFFFFFFFFFFFFFFFFFFFFFFFFFFFFFF AND EQ ISZERO PUSH2 0x6CC JUMPI PUSH1 0x40 MLOAD PUSH32 0x8C379A000000000000000000000000000000000000000000000000000000000 DUP2 MSTORE PUSH1 0x4 ADD PUSH2 0x6C3 SWAP1 PUSH2 0xC1D JUMP JUMPDEST PUSH1 0x40 MLOAD DUP1 SWAP2 SUB SWAP1 REVERT JUMPDEST PUSH2 0x6D5 DUP2 PUSH2 0x6E0 JUMP JUMPDEST POP JUMP JUMPDEST PUSH1 0x0 CALLER SWAP1 POP SWAP1 JUMP JUMPDEST PUSH1 0x0 DUP1 PUSH1 0x0 SWAP1 SLOAD SWAP1 PUSH2 0x100 EXP SWAP1 DIV PUSH20 0xFFFFFFFFFFFFFFFFFFFFFFFFFFFFFFFFFFFFFFFF AND SWAP1 POP DUP2 PUSH1 0x0 DUP1 PUSH2 0x100 EXP DUP2 SLOAD DUP2 PUSH20 0xFFFFFFFFFFFFFFFFFFFFFFFFFFFFFFFFFFFFFFFF MUL NOT AND SWAP1 DUP4 PUSH20 0xFFFFFFFFFFFFFFFFFFFFFFFFFFFFFFFFFFFFFFFF AND MUL OR SWAP1 SSTORE POP DUP2 PUSH20 0xFFFFFFFFFFFFFFFFFFFFFFFFFFFFFFFFFFFFFFFF AND DUP2 PUSH20 0xFFFFFFFFFFFFFFFFFFFFFFFFFFFFFFFFFFFFFFFF AND PUSH32 0x8BE0079C531659141344CD1FD0A4F28419497F9722A3DAAFE3B4186F6B6457E0 PUSH1 0x40 MLOAD PUSH1 0x40 MLOAD DUP1 SWAP2 SUB SWAP1 LOG3 POP POP JUMP JUMPDEST PUSH1 0x0 PUSH2 0x7B7 PUSH2 0x7B2 DUP5 PUSH2 0xCB9 JUMP JUMPDEST PUSH2 0xC94 JUMP JUMPDEST SWAP1 POP DUP1 DUP4 DUP3 MSTORE PUSH1 0x20 DUP3 ADD SWAP1 POP DUP3 PUSH1 0x0 JUMPDEST DUP6 DUP2 LT ISZERO PUSH2 0x7F7 JUMPI DUP2 CALLDATALOAD DUP6 ADD PUSH2 0x7DD DUP9 DUP3 PUSH2 0x914 JUMP JUMPDEST DUP5 MSTORE PUSH1 0x20 DUP5 ADD SWAP4 POP PUSH1 0x20 DUP4 ADD SWAP3 POP POP PUSH1 0x1 DUP2 ADD SWAP1 POP PUSH2 0x7C7 JUMP JUMPDEST POP POP POP SWAP4 SWAP3 POP POP POP JUMP JUMPDEST PUSH1 0x0 PUSH2 0x814 PUSH2 0x80F DUP5 PUSH2 0xCE5 JUMP JUMPDEST PUSH2 0xC94 JUMP JUMPDEST SWAP1 POP DUP1 DUP4 DUP3 MSTORE PUSH1 0x20 DUP3 ADD SWAP1 POP DUP3 DUP6 PUSH1 0x20 DUP7 MUL DUP3 ADD GT ISZERO PUSH2 0x833 JUMPI PUSH1 0x0 DUP1 REVERT JUMPDEST PUSH1 0x0 JUMPDEST DUP6 DUP2 LT ISZERO PUSH2 0x863 JUMPI DUP2 PUSH2 0x849 DUP9 DUP3 PUSH2 0x93E JUMP JUMPDEST DUP5 MSTORE PUSH1 0x20 DUP5 ADD SWAP4 POP PUSH1 0x20 DUP4 ADD SWAP3 POP POP PUSH1 0x1 DUP2 ADD SWAP1 POP PUSH2 0x836 JUMP JUMPDEST POP POP POP SWAP4 SWAP3 POP POP POP JUMP JUMPDEST PUSH1 0x0 PUSH2 0x880 PUSH2 0x87B DUP5 PUSH2 0xD11 JUMP JUMPDEST PUSH2 0xC94 JUMP JUMPDEST SWAP1 POP DUP3 DUP2 MSTORE PUSH1 0x20 DUP2 ADD DUP5 DUP5 DUP5 ADD GT ISZERO PUSH2 0x898 JUMPI PUSH1 0x0 DUP1 REVERT JUMPDEST PUSH2 0x8A3 DUP5 DUP3 DUP6 PUSH2 0xE29 JUMP JUMPDEST POP SWAP4 SWAP3 POP POP POP JUMP JUMPDEST PUSH1 0x0 DUP2 CALLDATALOAD SWAP1 POP PUSH2 0x8BA DUP2 PUSH2 0xF54 JUMP JUMPDEST SWAP3 SWAP2 POP POP JUMP JUMPDEST PUSH1 0x0 DUP3 PUSH1 0x1F DUP4 ADD SLT PUSH2 0x8D1 JUMPI PUSH1 0x0 DUP1 REVERT JUMPDEST DUP2 CALLDATALOAD PUSH2 0x8E1 DUP5 DUP3 PUSH1 0x20 DUP7 ADD PUSH2 0x7A4 JUMP JUMPDEST SWAP2 POP POP SWAP3 SWAP2 POP POP JUMP JUMPDEST PUSH1 0x0 DUP3 PUSH1 0x1F DUP4 ADD SLT PUSH2 0x8FB JUMPI PUSH1 0x0 DUP1 REVERT JUMPDEST DUP2 CALLDATALOAD PUSH2 0x90B DUP5 DUP3 PUSH1 0x20 DUP7 ADD PUSH2 0x801 JUMP JUMPDEST SWAP2 POP POP SWAP3 SWAP2 POP POP JUMP JUMPDEST PUSH1 0x0 DUP3 PUSH1 0x1F DUP4 ADD SLT PUSH2 0x925 JUMPI PUSH1 0x0 DUP1 REVERT JUMPDEST DUP2 CALLDATALOAD PUSH2 0x935 DUP5 DUP3 PUSH1 0x20 DUP7 ADD PUSH2 0x86D JUMP JUMPDEST SWAP2 POP POP SWAP3 SWAP2 POP POP JUMP JUMPDEST PUSH1 0x0 DUP2 CALLDATALOAD SWAP1 POP PUSH2 0x94D DUP2 PUSH2 0xF6B JUMP JUMPDEST SWAP3 SWAP2 POP POP JUMP JUMPDEST PUSH1 0x0 PUSH1 0x20 DUP3 DUP5 SUB SLT ISZERO PUSH2 0x965 JUMPI PUSH1 0x0 DUP1 REVERT JUMPDEST PUSH1 0x0 PUSH2 0x973 DUP5 DUP3 DUP6 ADD PUSH2 0x8AB JUMP JUMPDEST SWAP2 POP POP SWAP3 SWAP2 POP POP JUMP JUMPDEST PUSH1 0x0 DUP1 PUSH1 0x40 DUP4 DUP6 SUB SLT ISZERO PUSH2 0x98F JUMPI PUSH1 0x0 DUP1 REVERT JUMPDEST PUSH1 0x0 DUP4 ADD CALLDATALOAD PUSH8 0xFFFFFFFFFFFFFFFF DUP2 GT ISZERO PUSH2 0x9A9 JUMPI PUSH1 0x0 DUP1 REVERT JUMPDEST PUSH2 0x9B5 DUP6 DUP3 DUP7 ADD PUSH2 0x8EA JUMP JUMPDEST SWAP3 POP POP PUSH1 0x20 DUP4 ADD CALLDATALOAD PUSH8 0xFFFFFFFFFFFFFFFF DUP2 GT ISZERO PUSH2 0x9D2 JUMPI PUSH1 0x0 DUP1 REVERT JUMPDEST PUSH2 0x9DE DUP6 DUP3 DUP7 ADD PUSH2 0x8C0 JUMP JUMPDEST SWAP2 POP POP SWAP3 POP SWAP3 SWAP1 POP JUMP JUMPDEST PUSH1 0x0 PUSH1 0x20 DUP3 DUP5 SUB SLT ISZERO PUSH2 0x9FA JUMPI PUSH1 0x0 DUP1 REVERT JUMPDEST PUSH1 0x0 PUSH2 0xA08 DUP5 DUP3 DUP6 ADD PUSH2 0x93E JUMP JUMPDEST SWAP2 POP POP SWAP3 SWAP2 POP POP JUMP JUMPDEST PUSH1 0x0 PUSH2 0xA1D DUP4 DUP4 PUSH2 0xB2E JUMP JUMPDEST SWAP1 POP SWAP3 SWAP2 POP POP JUMP JUMPDEST PUSH1 0x0 PUSH2 0xA31 DUP4 DUP4 PUSH2 0xBAD JUMP JUMPDEST PUSH1 0x20 DUP4 ADD SWAP1 POP SWAP3 SWAP2 POP POP JUMP JUMPDEST PUSH2 0xA46 DUP2 PUSH2 0xDE1 JUMP JUMPDEST DUP3 MSTORE POP POP JUMP JUMPDEST PUSH1 0x0 PUSH2 0xA57 DUP3 PUSH2 0xD62 JUMP JUMPDEST PUSH2 0xA61 DUP2 DUP6 PUSH2 0xD9D JUMP JUMPDEST SWAP4 POP DUP4 PUSH1 0x20 DUP3 MUL DUP6 ADD PUSH2 0xA73 DUP6 PUSH2 0xD42 JUMP JUMPDEST DUP1 PUSH1 0x0 JUMPDEST DUP6 DUP2 LT ISZERO PUSH2 0xAAF JUMPI DUP5 DUP5 SUB DUP10 MSTORE DUP2 MLOAD PUSH2 0xA90 DUP6 DUP3 PUSH2 0xA11 JUMP JUMPDEST SWAP5 POP PUSH2 0xA9B DUP4 PUSH2 0xD83 JUMP JUMPDEST SWAP3 POP PUSH1 0x20 DUP11 ADD SWAP10 POP POP PUSH1 0x1 DUP2 ADD SWAP1 POP PUSH2 0xA77 JUMP JUMPDEST POP DUP3 SWAP8 POP DUP8 SWAP6 POP POP POP POP POP POP SWAP3 SWAP2 POP POP JUMP JUMPDEST PUSH1 0x0 PUSH2 0xACC DUP3 PUSH2 0xD6D JUMP JUMPDEST PUSH2 0xAD6 DUP2 DUP6 PUSH2 0xDAE JUMP JUMPDEST SWAP4 POP PUSH2 0xAE1 DUP4 PUSH2 0xD52 JUMP JUMPDEST DUP1 PUSH1 0x0 JUMPDEST DUP4 DUP2 LT ISZERO PUSH2 0xB12 JUMPI DUP2 MLOAD PUSH2 0xAF9 DUP9 DUP3 PUSH2 0xA25 JUMP JUMPDEST SWAP8 POP PUSH2 0xB04 DUP4 PUSH2 0xD90 JUMP JUMPDEST SWAP3 POP POP PUSH1 0x1 DUP2 ADD SWAP1 POP PUSH2 0xAE5 JUMP JUMPDEST POP DUP6 SWAP4 POP POP POP POP SWAP3 SWAP2 POP POP JUMP JUMPDEST PUSH2 0xB28 DUP2 PUSH2 0xDF3 JUMP JUMPDEST DUP3 MSTORE POP POP JUMP JUMPDEST PUSH1 0x0 PUSH2 0xB39 DUP3 PUSH2 0xD78 JUMP JUMPDEST PUSH2 0xB43 DUP2 DUP6 PUSH2 0xDBF JUMP JUMPDEST SWAP4 POP PUSH2 0xB53 DUP2 DUP6 PUSH1 0x20 DUP7 ADD PUSH2 0xE38 JUMP JUMPDEST PUSH2 0xB5C DUP2 PUSH2 0xECB JUMP JUMPDEST DUP5 ADD SWAP2 POP POP SWAP3 SWAP2 POP POP JUMP JUMPDEST PUSH1 0x0 PUSH2 0xB74 PUSH1 0x26 DUP4 PUSH2 0xDD0 JUMP JUMPDEST SWAP2 POP PUSH2 0xB7F DUP3 PUSH2 0xEDC JUMP JUMPDEST PUSH1 0x40 DUP3 ADD SWAP1 POP SWAP2 SWAP1 POP JUMP JUMPDEST PUSH1 0x0 PUSH2 0xB97 PUSH1 0x20 DUP4 PUSH2 0xDD0 JUMP JUMPDEST SWAP2 POP PUSH2 0xBA2 DUP3 PUSH2 0xF2B JUMP JUMPDEST PUSH1 0x20 DUP3 ADD SWAP1 POP SWAP2 SWAP1 POP JUMP JUMPDEST PUSH2 0xBB6 DUP2 PUSH2 0xE1F JUMP JUMPDEST DUP3 MSTORE POP POP JUMP JUMPDEST PUSH2 0xBC5 DUP2 PUSH2 0xE1F JUMP JUMPDEST DUP3 MSTORE POP POP JUMP JUMPDEST PUSH1 0x0 PUSH1 0x20 DUP3 ADD SWAP1 POP PUSH2 0xBE0 PUSH1 0x0 DUP4 ADD DUP5 PUSH2 0xA3D JUMP JUMPDEST SWAP3 SWAP2 POP POP JUMP JUMPDEST PUSH1 0x0 PUSH1 0x40 DUP3 ADD SWAP1 POP DUP2 DUP2 SUB PUSH1 0x0 DUP4 ADD MSTORE PUSH2 0xC00 DUP2 DUP6 PUSH2 0xAC1 JUMP JUMPDEST SWAP1 POP DUP2 DUP2 SUB PUSH1 0x20 DUP4 ADD MSTORE PUSH2 0xC14 DUP2 DUP5 PUSH2 0xA4C JUMP JUMPDEST SWAP1 POP SWAP4 SWAP3 POP POP POP JUMP JUMPDEST PUSH1 0x0 PUSH1 0x20 DUP3 ADD SWAP1 POP DUP2 DUP2 SUB PUSH1 0x0 DUP4 ADD MSTORE PUSH2 0xC36 DUP2 PUSH2 0xB67 JUMP JUMPDEST SWAP1 POP SWAP2 SWAP1 POP JUMP JUMPDEST PUSH1 0x0 PUSH1 0x20 DUP3 ADD SWAP1 POP DUP2 DUP2 SUB PUSH1 0x0 DUP4 ADD MSTORE PUSH2 0xC56 DUP2 PUSH2 0xB8A JUMP JUMPDEST SWAP1 POP SWAP2 SWAP1 POP JUMP JUMPDEST PUSH1 0x0 PUSH1 0x60 DUP3 ADD SWAP1 POP PUSH2 0xC72 PUSH1 0x0 DUP4 ADD DUP7 PUSH2 0xBBC JUMP JUMPDEST PUSH2 0xC7F PUSH1 0x20 DUP4 ADD DUP6 PUSH2 0xBBC JUMP JUMPDEST PUSH2 0xC8C PUSH1 0x40 DUP4 ADD DUP5 PUSH2 0xB1F JUMP JUMPDEST SWAP5 SWAP4 POP POP POP POP JUMP JUMPDEST PUSH1 0x0 PUSH2 0xC9E PUSH2 0xCAF JUMP JUMPDEST SWAP1 POP PUSH2 0xCAA DUP3 DUP3 PUSH2 0xE6B JUMP JUMPDEST SWAP2 SWAP1 POP JUMP JUMPDEST PUSH1 0x0 PUSH1 0x40 MLOAD SWAP1 POP SWAP1 JUMP JUMPDEST PUSH1 0x0 PUSH8 0xFFFFFFFFFFFFFFFF DUP3 GT ISZERO PUSH2 0xCD4 JUMPI PUSH2 0xCD3 PUSH2 0xE9C JUMP JUMPDEST JUMPDEST PUSH1 0x20 DUP3 MUL SWAP1 POP PUSH1 0x20 DUP2 ADD SWAP1 POP SWAP2 SWAP1 POP JUMP JUMPDEST PUSH1 0x0 PUSH8 0xFFFFFFFFFFFFFFFF DUP3 GT ISZERO PUSH2 0xD00 JUMPI PUSH2 0xCFF PUSH2 0xE9C JUMP JUMPDEST JUMPDEST PUSH1 0x20 DUP3 MUL SWAP1 POP PUSH1 0x20 DUP2 ADD SWAP1 POP SWAP2 SWAP1 POP JUMP JUMPDEST PUSH1 0x0 PUSH8 0xFFFFFFFFFFFFFFFF DUP3 GT ISZERO PUSH2 0xD2C JUMPI PUSH2 0xD2B PUSH2 0xE9C JUMP JUMPDEST JUMPDEST PUSH2 0xD35 DUP3 PUSH2 0xECB JUMP JUMPDEST SWAP1 POP PUSH1 0x20 DUP2 ADD SWAP1 POP SWAP2 SWAP1 POP JUMP JUMPDEST PUSH1 0x0 DUP2 SWAP1 POP PUSH1 0x20 DUP3 ADD SWAP1 POP SWAP2 SWAP1 POP JUMP JUMPDEST PUSH1 0x0 DUP2 SWAP1 POP PUSH1 0x20 DUP3 ADD SWAP1 POP SWAP2 SWAP1 POP JUMP JUMPDEST PUSH1 0x0 DUP2 MLOAD SWAP1 POP SWAP2 SWAP1 POP JUMP JUMPDEST PUSH1 0x0 DUP2 MLOAD SWAP1 POP SWAP2 SWAP1 POP JUMP JUMPDEST PUSH1 0x0 DUP2 MLOAD SWAP1 POP SWAP2 SWAP1 POP JUMP JUMPDEST PUSH1 0x0 PUSH1 0x20 DUP3 ADD SWAP1 POP SWAP2 SWAP1 POP JUMP JUMPDEST PUSH1 0x0 PUSH1 0x20 DUP3 ADD SWAP1 POP SWAP2 SWAP1 POP JUMP JUMPDEST PUSH1 0x0 DUP3 DUP3 MSTORE PUSH1 0x20 DUP3 ADD SWAP1 POP SWAP3 SWAP2 POP POP JUMP JUMPDEST PUSH1 0x0 DUP3 DUP3 MSTORE PUSH1 0x20 DUP3 ADD SWAP1 POP SWAP3 SWAP2 POP POP JUMP JUMPDEST PUSH1 0x0 DUP3 DUP3 MSTORE PUSH1 0x20 DUP3 ADD SWAP1 POP SWAP3 SWAP2 POP POP JUMP JUMPDEST PUSH1 0x0 DUP3 DUP3 MSTORE PUSH1 0x20 DUP3 ADD SWAP1 POP SWAP3 SWAP2 POP POP JUMP JUMPDEST PUSH1 0x0 PUSH2 0xDEC DUP3 PUSH2 0xDFF JUMP JUMPDEST SWAP1 POP SWAP2 SWAP1 POP JUMP JUMPDEST PUSH1 0x0 DUP2 ISZERO ISZERO SWAP1 POP SWAP2 SWAP1 POP JUMP JUMPDEST PUSH1 0x0 PUSH20 0xFFFFFFFFFFFFFFFFFFFFFFFFFFFFFFFFFFFFFFFF DUP3 AND SWAP1 POP SWAP2 SWAP1 POP JUMP JUMPDEST PUSH1 0x0 DUP2 SWAP1 POP SWAP2 SWAP1 POP JUMP JUMPDEST DUP3 DUP2 DUP4 CALLDATACOPY PUSH1 0x0 DUP4 DUP4 ADD MSTORE POP POP POP JUMP JUMPDEST PUSH1 0x0 JUMPDEST DUP4 DUP2 LT ISZERO PUSH2 0xE56 JUMPI DUP1 DUP3 ADD MLOAD DUP2 DUP5 ADD MSTORE PUSH1 0x20 DUP2 ADD SWAP1 POP PUSH2 0xE3B JUMP JUMPDEST DUP4 DUP2 GT ISZERO PUSH2 0xE65 JUMPI PUSH1 0x0 DUP5 DUP5 ADD MSTORE JUMPDEST POP POP POP POP JUMP JUMPDEST PUSH2 0xE74 DUP3 PUSH2 0xECB JUMP JUMPDEST DUP2 ADD DUP2 DUP2 LT PUSH8 0xFFFFFFFFFFFFFFFF DUP3 GT OR ISZERO PUSH2 0xE93 JUMPI PUSH2 0xE92 PUSH2 0xE9C JUMP JUMPDEST JUMPDEST DUP1 PUSH1 0x40 MSTORE POP POP POP JUMP JUMPDEST PUSH32 0x4E487B7100000000000000000000000000000000000000000000000000000000 PUSH1 0x0 MSTORE PUSH1 0x41 PUSH1 0x4 MSTORE PUSH1 0x24 PUSH1 0x0 REVERT JUMPDEST PUSH1 0x0 PUSH1 0x1F NOT PUSH1 0x1F DUP4 ADD AND SWAP1 POP SWAP2 SWAP1 POP JUMP JUMPDEST PUSH32 0x4F776E61626C653A206E6577206F776E657220697320746865207A65726F2061 PUSH1 0x0 DUP3 ADD MSTORE PUSH32 0x6464726573730000000000000000000000000000000000000000000000000000 PUSH1 0x20 DUP3 ADD MSTORE POP JUMP JUMPDEST PUSH32 0x4F776E61626C653A2063616C6C6572206973206E6F7420746865206F776E6572 PUSH1 0x0 DUP3 ADD MSTORE POP JUMP JUMPDEST PUSH2 0xF5D DUP2 PUSH2 0xDE1 JUMP JUMPDEST DUP2 EQ PUSH2 0xF68 JUMPI PUSH1 0x0 DUP1 REVERT JUMPDEST POP JUMP JUMPDEST PUSH2 0xF74 DUP2 PUSH2 0xE1F JUMP JUMPDEST DUP2 EQ PUSH2 0xF7F JUMPI PUSH1 0x0 DUP1 REVERT JUMPDEST POP JUMP INVALID LOG2 PUSH5 0x6970667358 0x22 SLT KECCAK256 PUSH17 0x7B6518960E7C9E4E96C0F6A1D5DDD66931 SWAP3 PUSH28 0xF53F3B39167899A350A2D37B64736F6C634300080100330000000000 "
				},
				"gasEstimates": {
					"creation": {
						"codeDepositCost": "804800",
						"executionCost": "infinite",
						"totalCost": "infinite"
					},
					"external": {
						"buyNFT()": "142",
						"lastUpdate()": "infinite",
						"owner()": "1222",
						"preLoadURIs(uint256[],string[])": "infinite",
						"renounceOwnership()": "24463",
						"setSaleEnd(uint256)": "21383",
						"setSaleStart(uint256)": "21405",
						"setStorageContractAddress(address)": "22329",
						"storageContract()": "1215",
						"transferOwnership(address)": "24811"
					},
					"internal": {
						"mintNextNftToAddress(address)": "infinite",
						"updateState()": "infinite"
					}
				},
				"methodIdentifiers": {
					"buyNFT()": "bff29cee",
					"lastUpdate()": "c0463711",
					"owner()": "8da5cb5b",
					"preLoadURIs(uint256[],string[])": "f121da92",
					"renounceOwnership()": "715018a6",
					"setSaleEnd(uint256)": "1515fa6e",
					"setSaleStart(uint256)": "2f181f54",
					"setStorageContractAddress(address)": "51f7598c",
					"storageContract()": "11ce0267",
					"transferOwnership(address)": "f2fde38b"
				}
			},
			"storageLayout": {
				"storage": [
					{
						"astId": 7,
						"contract": "contracts/Founding Citizens NFT Sale.sol:FoundingNFTSale",
						"label": "_owner",
						"offset": 0,
						"slot": "0",
						"type": "t_address"
					},
					{
						"astId": 227,
						"contract": "contracts/Founding Citizens NFT Sale.sol:FoundingNFTSale",
						"label": "storageContract",
						"offset": 0,
						"slot": "1",
						"type": "t_address"
					},
					{
						"astId": 230,
						"contract": "contracts/Founding Citizens NFT Sale.sol:FoundingNFTSale",
						"label": "saleStart",
						"offset": 0,
						"slot": "2",
						"type": "t_uint256"
					},
					{
						"astId": 232,
						"contract": "contracts/Founding Citizens NFT Sale.sol:FoundingNFTSale",
						"label": "saleEnd",
						"offset": 0,
						"slot": "3",
						"type": "t_uint256"
					},
					{
						"astId": 248,
						"contract": "contracts/Founding Citizens NFT Sale.sol:FoundingNFTSale",
						"label": "lastUpdate",
						"offset": 0,
						"slot": "4",
						"type": "t_struct(Update)239_storage"
					}
				],
				"types": {
					"t_address": {
						"encoding": "inplace",
						"label": "address",
						"numberOfBytes": "20"
					},
					"t_bool": {
						"encoding": "inplace",
						"label": "bool",
						"numberOfBytes": "1"
					},
					"t_struct(Update)239_storage": {
						"encoding": "inplace",
						"label": "struct FoundingNFTSale.Update",
						"members": [
							{
								"astId": 234,
								"contract": "contracts/Founding Citizens NFT Sale.sol:FoundingNFTSale",
								"label": "price",
								"offset": 0,
								"slot": "0",
								"type": "t_uint256"
							},
							{
								"astId": 236,
								"contract": "contracts/Founding Citizens NFT Sale.sol:FoundingNFTSale",
								"label": "time",
								"offset": 0,
								"slot": "1",
								"type": "t_uint256"
							},
							{
								"astId": 238,
								"contract": "contracts/Founding Citizens NFT Sale.sol:FoundingNFTSale",
								"label": "saleIsLive",
								"offset": 0,
								"slot": "2",
								"type": "t_bool"
							}
						],
						"numberOfBytes": "96"
					},
					"t_uint256": {
						"encoding": "inplace",
						"label": "uint256",
						"numberOfBytes": "32"
					}
				}
			},
			"userdoc": {
				"kind": "user",
				"methods": {},
				"version": 1
			}
		}
	}
}