{
	"contracts/Founding Citizens NFT Sale.sol": {
		"FoundingNFTSale": {
			"abi": [
				{
					"inputs": [],
					"stateMutability": "nonpayable",
					"type": "constructor"
				},
				{
					"anonymous": false,
					"inputs": [
						{
							"indexed": true,
							"internalType": "bytes32",
							"name": "role",
							"type": "bytes32"
						},
						{
							"indexed": true,
							"internalType": "bytes32",
							"name": "previousAdminRole",
							"type": "bytes32"
						},
						{
							"indexed": true,
							"internalType": "bytes32",
							"name": "newAdminRole",
							"type": "bytes32"
						}
					],
					"name": "RoleAdminChanged",
					"type": "event"
				},
				{
					"anonymous": false,
					"inputs": [
						{
							"indexed": true,
							"internalType": "bytes32",
							"name": "role",
							"type": "bytes32"
						},
						{
							"indexed": true,
							"internalType": "address",
							"name": "account",
							"type": "address"
						},
						{
							"indexed": true,
							"internalType": "address",
							"name": "sender",
							"type": "address"
						}
					],
					"name": "RoleGranted",
					"type": "event"
				},
				{
					"anonymous": false,
					"inputs": [
						{
							"indexed": true,
							"internalType": "bytes32",
							"name": "role",
							"type": "bytes32"
						},
						{
							"indexed": true,
							"internalType": "address",
							"name": "account",
							"type": "address"
						},
						{
							"indexed": true,
							"internalType": "address",
							"name": "sender",
							"type": "address"
						}
					],
					"name": "RoleRevoked",
					"type": "event"
				},
				{
					"inputs": [],
					"name": "DEFAULT_ADMIN_ROLE",
					"outputs": [
						{
							"internalType": "bytes32",
							"name": "",
							"type": "bytes32"
						}
					],
					"stateMutability": "view",
					"type": "function"
				},
				{
					"inputs": [],
					"name": "ERC1155storageContract",
					"outputs": [
						{
							"internalType": "contract IMintStorage",
							"name": "",
							"type": "address"
						}
					],
					"stateMutability": "view",
					"type": "function"
				},
				{
					"inputs": [],
					"name": "SALE_MANAGER_ROLE",
					"outputs": [
						{
							"internalType": "bytes32",
							"name": "",
							"type": "bytes32"
						}
					],
					"stateMutability": "view",
					"type": "function"
				},
				{
					"inputs": [],
					"name": "URI_MANAGER_ROLE",
					"outputs": [
						{
							"internalType": "bytes32",
							"name": "",
							"type": "bytes32"
						}
					],
					"stateMutability": "view",
					"type": "function"
				},
				{
					"inputs": [],
					"name": "buyNFT",
					"outputs": [],
					"stateMutability": "nonpayable",
					"type": "function"
				},
				{
					"inputs": [
						{
							"internalType": "uint256",
							"name": "discountRate",
							"type": "uint256"
						}
					],
					"name": "buyNftWithDiscount",
					"outputs": [],
					"stateMutability": "nonpayable",
					"type": "function"
				},
				{
					"inputs": [
						{
							"internalType": "address",
							"name": "prospectiveBuyer",
							"type": "address"
						},
						{
							"internalType": "uint256",
							"name": "discountRate",
							"type": "uint256"
						}
					],
					"name": "calculateCurrentCustomPrice",
					"outputs": [
						{
							"internalType": "uint256",
							"name": "",
							"type": "uint256"
						}
					],
					"stateMutability": "nonpayable",
					"type": "function"
				},
				{
					"inputs": [
						{
							"internalType": "address",
							"name": "prospectiveBuyer",
							"type": "address"
						},
						{
							"internalType": "uint256",
							"name": "discountRate",
							"type": "uint256"
						}
					],
					"name": "calculateCustomPrice",
					"outputs": [
						{
							"internalType": "uint256",
							"name": "",
							"type": "uint256"
						}
					],
					"stateMutability": "view",
					"type": "function"
				},
				{
					"inputs": [],
					"name": "getMaxSupply",
					"outputs": [
						{
							"internalType": "uint256",
							"name": "",
							"type": "uint256"
						}
					],
					"stateMutability": "view",
					"type": "function"
				},
				{
					"inputs": [],
					"name": "getNextUnusedToken",
					"outputs": [
						{
							"internalType": "uint256",
							"name": "",
							"type": "uint256"
						}
					],
					"stateMutability": "view",
					"type": "function"
				},
				{
					"inputs": [
						{
							"internalType": "bytes32",
							"name": "role",
							"type": "bytes32"
						}
					],
					"name": "getRoleAdmin",
					"outputs": [
						{
							"internalType": "bytes32",
							"name": "",
							"type": "bytes32"
						}
					],
					"stateMutability": "view",
					"type": "function"
				},
				{
					"inputs": [
						{
							"internalType": "bytes32",
							"name": "role",
							"type": "bytes32"
						},
						{
							"internalType": "address",
							"name": "account",
							"type": "address"
						}
					],
					"name": "grantRole",
					"outputs": [],
					"stateMutability": "nonpayable",
					"type": "function"
				},
				{
					"inputs": [
						{
							"internalType": "bytes32",
							"name": "role",
							"type": "bytes32"
						},
						{
							"internalType": "address",
							"name": "account",
							"type": "address"
						}
					],
					"name": "hasRole",
					"outputs": [
						{
							"internalType": "bool",
							"name": "",
							"type": "bool"
						}
					],
					"stateMutability": "view",
					"type": "function"
				},
				{
					"inputs": [],
					"name": "lastUpdate",
					"outputs": [
						{
							"internalType": "uint256",
							"name": "price",
							"type": "uint256"
						},
						{
							"internalType": "uint256",
							"name": "time",
							"type": "uint256"
						},
						{
							"internalType": "bool",
							"name": "saleIsLive",
							"type": "bool"
						}
					],
					"stateMutability": "view",
					"type": "function"
				},
				{
					"inputs": [],
					"name": "mintToTreasuryAddress",
					"outputs": [],
					"stateMutability": "nonpayable",
					"type": "function"
				},
				{
					"inputs": [
						{
							"internalType": "uint256[]",
							"name": "ids",
							"type": "uint256[]"
						},
						{
							"internalType": "string[]",
							"name": "uris",
							"type": "string[]"
						}
					],
					"name": "preLoadURIs",
					"outputs": [],
					"stateMutability": "nonpayable",
					"type": "function"
				},
				{
					"inputs": [],
					"name": "privilgedBuyerList",
					"outputs": [
						{
							"internalType": "contract IPrivilegedListStorage",
							"name": "",
							"type": "address"
						}
					],
					"stateMutability": "view",
					"type": "function"
				},
				{
					"inputs": [
						{
							"internalType": "bytes32",
							"name": "role",
							"type": "bytes32"
						},
						{
							"internalType": "address",
							"name": "account",
							"type": "address"
						}
					],
					"name": "renounceRole",
					"outputs": [],
					"stateMutability": "nonpayable",
					"type": "function"
				},
				{
					"inputs": [
						{
							"internalType": "bytes32",
							"name": "role",
							"type": "bytes32"
						},
						{
							"internalType": "address",
							"name": "account",
							"type": "address"
						}
					],
					"name": "revokeRole",
					"outputs": [],
					"stateMutability": "nonpayable",
					"type": "function"
				},
				{
					"inputs": [
						{
							"internalType": "uint256",
							"name": "unixTime",
							"type": "uint256"
						}
					],
					"name": "setEndTime",
					"outputs": [],
					"stateMutability": "nonpayable",
					"type": "function"
				},
				{
					"inputs": [
						{
							"internalType": "address",
							"name": "storageAddress",
							"type": "address"
						}
					],
					"name": "setStorageContractAddress",
					"outputs": [],
					"stateMutability": "nonpayable",
					"type": "function"
				},
				{
					"inputs": [
						{
							"internalType": "uint256",
							"name": "unixTime",
							"type": "uint256"
						}
					],
					"name": "setstartTime",
					"outputs": [],
					"stateMutability": "nonpayable",
					"type": "function"
				},
				{
					"inputs": [
						{
							"internalType": "bytes4",
							"name": "interfaceId",
							"type": "bytes4"
						}
					],
					"name": "supportsInterface",
					"outputs": [
						{
							"internalType": "bool",
							"name": "",
							"type": "bool"
						}
					],
					"stateMutability": "view",
					"type": "function"
				},
				{
					"inputs": [],
					"name": "treasuryAddress",
					"outputs": [
						{
							"internalType": "address",
							"name": "",
							"type": "address"
						}
					],
					"stateMutability": "view",
					"type": "function"
				},
				{
					"inputs": [],
					"name": "usdcEscrowStorageContract",
					"outputs": [
						{
							"internalType": "contract IUsdcStorage",
							"name": "",
							"type": "address"
						}
					],
					"stateMutability": "view",
					"type": "function"
				}
			],
			"devdoc": {
				"kind": "dev",
				"methods": {
					"getRoleAdmin(bytes32)": {
						"details": "Returns the admin role that controls `role`. See {grantRole} and {revokeRole}. To change a role's admin, use {_setRoleAdmin}."
					},
					"grantRole(bytes32,address)": {
						"details": "Grants `role` to `account`. If `account` had not been already granted `role`, emits a {RoleGranted} event. Requirements: - the caller must have ``role``'s admin role."
					},
					"hasRole(bytes32,address)": {
						"details": "Returns `true` if `account` has been granted `role`."
					},
					"renounceRole(bytes32,address)": {
						"details": "Revokes `role` from the calling account. Roles are often managed via {grantRole} and {revokeRole}: this function's purpose is to provide a mechanism for accounts to lose their privileges if they are compromised (such as when a trusted device is misplaced). If the calling account had been revoked `role`, emits a {RoleRevoked} event. Requirements: - the caller must be `account`."
					},
					"revokeRole(bytes32,address)": {
						"details": "Revokes `role` from `account`. If `account` had been granted `role`, emits a {RoleRevoked} event. Requirements: - the caller must have ``role``'s admin role."
					},
					"supportsInterface(bytes4)": {
						"details": "See {IERC165-supportsInterface}."
					}
				},
				"version": 1
			},
			"evm": {
				"assembly": "    /* \"contracts/Founding Citizens NFT Sale.sol\":2764:7691  contract FoundingNFTSale is AccessControlExtension {\r... */\n  mstore(0x40, 0x80)\n    /* \"contracts/Founding Citizens NFT Sale.sol\":3203:3213  1893484800 */\n  0x70dc4900\n    /* \"contracts/Founding Citizens NFT Sale.sol\":3185:3213  uint startTime  = 1893484800 */\n  0x05\n  sstore\n    /* \"contracts/Founding Citizens NFT Sale.sol\":3316:3326  1893484900 */\n  0x70dc4964\n    /* \"contracts/Founding Citizens NFT Sale.sol\":3298:3326  uint endTime    = 1893484900 */\n  0x06\n  sstore\n    /* \"contracts/Founding Citizens NFT Sale.sol\":3357:3362  10**6 */\n  0x0f4240\n    /* \"contracts/Founding Citizens NFT Sale.sol\":3387:3389  10 */\n  0x0a\n    /* \"contracts/Founding Citizens NFT Sale.sol\":3387:3397  10 * units */\n  tag_1\n  swap2\n  swap1\n  tag_2\n  jump\t// in\ntag_1:\n    /* \"contracts/Founding Citizens NFT Sale.sol\":3369:3397  uint startPrice = 10 * units */\n  0x07\n  sstore\n    /* \"contracts/Founding Citizens NFT Sale.sol\":3357:3362  10**6 */\n  0x0f4240\n    /* \"contracts/Founding Citizens NFT Sale.sol\":3453:3454  1 */\n  0x01\n    /* \"contracts/Founding Citizens NFT Sale.sol\":3453:3462  1 * units */\n  tag_3\n  swap2\n  swap1\n  tag_2\n  jump\t// in\ntag_3:\n    /* \"contracts/Founding Citizens NFT Sale.sol\":3437:3462  uint EndPrice = 1 * units */\n  0x08\n  sstore\n    /* \"contracts/Founding Citizens NFT Sale.sol\":3650:3687  Update(10000, block.timestamp, false) */\n  mload(0x40)\n  dup1\n  0x60\n  add\n  0x40\n  mstore\n  dup1\n    /* \"contracts/Founding Citizens NFT Sale.sol\":3657:3662  10000 */\n  0x2710\n    /* \"contracts/Founding Citizens NFT Sale.sol\":3650:3687  Update(10000, block.timestamp, false) */\n  dup2\n  mstore\n  0x20\n  add\n    /* \"contracts/Founding Citizens NFT Sale.sol\":3664:3679  block.timestamp */\n  timestamp\n    /* \"contracts/Founding Citizens NFT Sale.sol\":3650:3687  Update(10000, block.timestamp, false) */\n  dup2\n  mstore\n  0x20\n  add\n    /* \"contracts/Founding Citizens NFT Sale.sol\":3681:3686  false */\n  0x00\n    /* \"contracts/Founding Citizens NFT Sale.sol\":3650:3687  Update(10000, block.timestamp, false) */\n  iszero\n  iszero\n  dup2\n  mstore\n  pop\n    /* \"contracts/Founding Citizens NFT Sale.sol\":3623:3687  Update public lastUpdate = Update(10000, block.timestamp, false) */\n  0x09\n  0x00\n  dup3\n  add\n  mload\n  dup2\n  0x00\n  add\n  sstore\n  0x20\n  dup3\n  add\n  mload\n  dup2\n  0x01\n  add\n  sstore\n  0x40\n  dup3\n  add\n  mload\n  dup2\n  0x02\n  add\n  exp(0x0100, 0x00)\n  dup2\n  sload\n  dup2\n  0xff\n  mul\n  not\n  and\n  swap1\n  dup4\n  iszero\n  iszero\n  mul\n  or\n  swap1\n  sstore\n  pop\n  pop\n  pop\n    /* \"contracts/Founding Citizens NFT Sale.sol\":4049:4081  constructor() {\r... */\n  callvalue\n  dup1\n  iszero\n  tag_4\n  jumpi\n  0x00\n  dup1\n  revert\ntag_4:\n  pop\n    /* \"contracts/Founding Citizens NFT Sale.sol\":2764:7691  contract FoundingNFTSale is AccessControlExtension {\r... */\n  jump(tag_7)\n    /* \"#utility.yul\":7:355   */\ntag_2:\n  0x00\n    /* \"#utility.yul\":70:90   */\n  tag_10\n    /* \"#utility.yul\":88:89   */\n  dup3\n    /* \"#utility.yul\":70:90   */\n  tag_11\n  jump\t// in\ntag_10:\n    /* \"#utility.yul\":65:90   */\n  swap2\n  pop\n    /* \"#utility.yul\":104:124   */\n  tag_12\n    /* \"#utility.yul\":122:123   */\n  dup4\n    /* \"#utility.yul\":104:124   */\n  tag_11\n  jump\t// in\ntag_12:\n    /* \"#utility.yul\":99:124   */\n  swap3\n  pop\n    /* \"#utility.yul\":292:293   */\n  dup2\n    /* \"#utility.yul\":224:290   */\n  0xffffffffffffffffffffffffffffffffffffffffffffffffffffffffffffffff\n    /* \"#utility.yul\":220:294   */\n  div\n    /* \"#utility.yul\":217:218   */\n  dup4\n    /* \"#utility.yul\":214:295   */\n  gt\n    /* \"#utility.yul\":209:210   */\n  dup3\n    /* \"#utility.yul\":202:211   */\n  iszero\n    /* \"#utility.yul\":195:212   */\n  iszero\n    /* \"#utility.yul\":191:296   */\n  and\n    /* \"#utility.yul\":188:190   */\n  iszero\n  tag_13\n  jumpi\n    /* \"#utility.yul\":299:317   */\n  tag_14\n  tag_15\n  jump\t// in\ntag_14:\n    /* \"#utility.yul\":188:190   */\ntag_13:\n    /* \"#utility.yul\":347:348   */\n  dup3\n    /* \"#utility.yul\":344:345   */\n  dup3\n    /* \"#utility.yul\":340:349   */\n  mul\n    /* \"#utility.yul\":329:349   */\n  swap1\n  pop\n    /* \"#utility.yul\":55:355   */\n  swap3\n  swap2\n  pop\n  pop\n  jump\t// out\n    /* \"#utility.yul\":361:438   */\ntag_11:\n  0x00\n    /* \"#utility.yul\":427:432   */\n  dup2\n    /* \"#utility.yul\":416:432   */\n  swap1\n  pop\n    /* \"#utility.yul\":406:438   */\n  swap2\n  swap1\n  pop\n  jump\t// out\n    /* \"#utility.yul\":444:624   */\ntag_15:\n    /* \"#utility.yul\":492:569   */\n  0x4e487b7100000000000000000000000000000000000000000000000000000000\n    /* \"#utility.yul\":489:490   */\n  0x00\n    /* \"#utility.yul\":482:570   */\n  mstore\n    /* \"#utility.yul\":589:593   */\n  0x11\n    /* \"#utility.yul\":586:587   */\n  0x04\n    /* \"#utility.yul\":579:594   */\n  mstore\n    /* \"#utility.yul\":613:617   */\n  0x24\n    /* \"#utility.yul\":610:611   */\n  0x00\n    /* \"#utility.yul\":603:618   */\n  revert\n    /* \"contracts/Founding Citizens NFT Sale.sol\":2764:7691  contract FoundingNFTSale is AccessControlExtension {\r... */\ntag_7:\n  dataSize(sub_0)\n  dup1\n  dataOffset(sub_0)\n  0x00\n  codecopy\n  0x00\n  return\nstop\n\nsub_0: assembly {\n        /* \"contracts/Founding Citizens NFT Sale.sol\":2764:7691  contract FoundingNFTSale is AccessControlExtension {\r... */\n      mstore(0x40, 0x80)\n      callvalue\n      dup1\n      iszero\n      tag_1\n      jumpi\n      0x00\n      dup1\n      revert\n    tag_1:\n      pop\n      jumpi(tag_2, lt(calldatasize, 0x04))\n      shr(0xe0, calldataload(0x00))\n      dup1\n      0x91232f18\n      gt\n      tag_28\n      jumpi\n      dup1\n      0xbff29cee\n      gt\n      tag_29\n      jumpi\n      dup1\n      0xc5f956af\n      gt\n      tag_30\n      jumpi\n      dup1\n      0xc5f956af\n      eq\n      tag_24\n      jumpi\n      dup1\n      0xccb98ffc\n      eq\n      tag_25\n      jumpi\n      dup1\n      0xd547741f\n      eq\n      tag_26\n      jumpi\n      dup1\n      0xf121da92\n      eq\n      tag_27\n      jumpi\n      jump(tag_2)\n    tag_30:\n      dup1\n      0xbff29cee\n      eq\n      tag_21\n      jumpi\n      dup1\n      0xc0463711\n      eq\n      tag_22\n      jumpi\n      dup1\n      0xc5dae48f\n      eq\n      tag_23\n      jumpi\n      jump(tag_2)\n    tag_29:\n      dup1\n      0x91232f18\n      eq\n      tag_15\n      jumpi\n      dup1\n      0x91d14854\n      eq\n      tag_16\n      jumpi\n      dup1\n      0x944044a1\n      eq\n      tag_17\n      jumpi\n      dup1\n      0xa217fddf\n      eq\n      tag_18\n      jumpi\n      dup1\n      0xa496f947\n      eq\n      tag_19\n      jumpi\n      dup1\n      0xab6c0306\n      eq\n      tag_20\n      jumpi\n      jump(tag_2)\n    tag_28:\n      dup1\n      0x51f7598c\n      gt\n      tag_31\n      jumpi\n      dup1\n      0x51f7598c\n      eq\n      tag_9\n      jumpi\n      dup1\n      0x551b42a8\n      eq\n      tag_10\n      jumpi\n      dup1\n      0x5ce7e721\n      eq\n      tag_11\n      jumpi\n      dup1\n      0x682d07d9\n      eq\n      tag_12\n      jumpi\n      dup1\n      0x68fc01a2\n      eq\n      tag_13\n      jumpi\n      dup1\n      0x8c83faeb\n      eq\n      tag_14\n      jumpi\n      jump(tag_2)\n    tag_31:\n      dup1\n      0x01ffc9a7\n      eq\n      tag_3\n      jumpi\n      dup1\n      0x248a9ca3\n      eq\n      tag_4\n      jumpi\n      dup1\n      0x2f2ff15d\n      eq\n      tag_5\n      jumpi\n      dup1\n      0x36568abe\n      eq\n      tag_6\n      jumpi\n      dup1\n      0x4c0f38c2\n      eq\n      tag_7\n      jumpi\n      dup1\n      0x4c9b73da\n      eq\n      tag_8\n      jumpi\n    tag_2:\n      0x00\n      dup1\n      revert\n        /* \"@openzeppelin/contracts@4.4.2/access/AccessControl.sol\":2605:2807  function supportsInterface(bytes4 interfaceId) public view virtual override returns (bool) {... */\n    tag_3:\n      tag_32\n      0x04\n      dup1\n      calldatasize\n      sub\n      dup2\n      add\n      swap1\n      tag_33\n      swap2\n      swap1\n      tag_34\n      jump\t// in\n    tag_33:\n      tag_35\n      jump\t// in\n    tag_32:\n      mload(0x40)\n      tag_36\n      swap2\n      swap1\n      tag_37\n      jump\t// in\n    tag_36:\n      mload(0x40)\n      dup1\n      swap2\n      sub\n      swap1\n      return\n        /* \"@openzeppelin/contracts@4.4.2/access/AccessControl.sol\":3977:4098  function getRoleAdmin(bytes32 role) public view override returns (bytes32) {... */\n    tag_4:\n      tag_38\n      0x04\n      dup1\n      calldatasize\n      sub\n      dup2\n      add\n      swap1\n      tag_39\n      swap2\n      swap1\n      tag_40\n      jump\t// in\n    tag_39:\n      tag_41\n      jump\t// in\n    tag_38:\n      mload(0x40)\n      tag_42\n      swap2\n      swap1\n      tag_43\n      jump\t// in\n    tag_42:\n      mload(0x40)\n      dup1\n      swap2\n      sub\n      swap1\n      return\n        /* \"@openzeppelin/contracts@4.4.2/access/AccessControl.sol\":4348:4493  function grantRole(bytes32 role, address account) public virtual override onlyRole(getRoleAdmin(role)) {... */\n    tag_5:\n      tag_44\n      0x04\n      dup1\n      calldatasize\n      sub\n      dup2\n      add\n      swap1\n      tag_45\n      swap2\n      swap1\n      tag_46\n      jump\t// in\n    tag_45:\n      tag_47\n      jump\t// in\n    tag_44:\n      stop\n        /* \"@openzeppelin/contracts@4.4.2/access/AccessControl.sol\":5365:5579  function renounceRole(bytes32 role, address account) public virtual override {... */\n    tag_6:\n      tag_48\n      0x04\n      dup1\n      calldatasize\n      sub\n      dup2\n      add\n      swap1\n      tag_49\n      swap2\n      swap1\n      tag_46\n      jump\t// in\n    tag_49:\n      tag_50\n      jump\t// in\n    tag_48:\n      stop\n        /* \"contracts/Founding Citizens NFT Sale.sol\":5403:5530  function getMaxSupply() public view returns(uint) {\r... */\n    tag_7:\n      tag_51\n      tag_52\n      jump\t// in\n    tag_51:\n      mload(0x40)\n      tag_53\n      swap2\n      swap1\n      tag_54\n      jump\t// in\n    tag_53:\n      mload(0x40)\n      dup1\n      swap2\n      sub\n      swap1\n      return\n        /* \"contracts/Founding Citizens NFT Sale.sol\":7099:7269  function buyNftWithDiscount(uint discountRate) public pushesUpdate {\r... */\n    tag_8:\n      tag_55\n      0x04\n      dup1\n      calldatasize\n      sub\n      dup2\n      add\n      swap1\n      tag_56\n      swap2\n      swap1\n      tag_57\n      jump\t// in\n    tag_56:\n      tag_58\n      jump\t// in\n    tag_55:\n      stop\n        /* \"contracts/Founding Citizens NFT Sale.sol\":4588:4755  function setStorageContractAddress(address storageAddress) public onlyRole(DEFAULT_ADMIN_ROLE) {\r... */\n    tag_9:\n      tag_59\n      0x04\n      dup1\n      calldatasize\n      sub\n      dup2\n      add\n      swap1\n      tag_60\n      swap2\n      swap1\n      tag_61\n      jump\t// in\n    tag_60:\n      tag_62\n      jump\t// in\n    tag_59:\n      stop\n        /* \"contracts/Founding Citizens NFT Sale.sol\":3096:3170  bytes32 public constant SALE_MANAGER_ROLE = keccak256(\"SALE_MANAGER_ROLE\") */\n    tag_10:\n      tag_63\n      tag_64\n      jump\t// in\n    tag_63:\n      mload(0x40)\n      tag_65\n      swap2\n      swap1\n      tag_43\n      jump\t// in\n    tag_65:\n      mload(0x40)\n      dup1\n      swap2\n      sub\n      swap1\n      return\n        /* \"contracts/Founding Citizens NFT Sale.sol\":2871:2919  IPrivilegedListStorage public privilgedBuyerList */\n    tag_11:\n      tag_66\n      tag_67\n      jump\t// in\n    tag_66:\n      mload(0x40)\n      tag_68\n      swap2\n      swap1\n      tag_69\n      jump\t// in\n    tag_68:\n      mload(0x40)\n      dup1\n      swap2\n      sub\n      swap1\n      return\n        /* \"contracts/Founding Citizens NFT Sale.sol\":3017:3089  bytes32 public constant URI_MANAGER_ROLE = keccak256(\"URI_MANAGER_ROLE\") */\n    tag_12:\n      tag_70\n      tag_71\n      jump\t// in\n    tag_70:\n      mload(0x40)\n      tag_72\n      swap2\n      swap1\n      tag_43\n      jump\t// in\n    tag_72:\n      mload(0x40)\n      dup1\n      swap2\n      sub\n      swap1\n      return\n        /* \"contracts/Founding Citizens NFT Sale.sol\":5256:5395  function getNextUnusedToken() public view returns(uint) {\r... */\n    tag_13:\n      tag_73\n      tag_74\n      jump\t// in\n    tag_73:\n      mload(0x40)\n      tag_75\n      swap2\n      swap1\n      tag_54\n      jump\t// in\n    tag_75:\n      mload(0x40)\n      dup1\n      swap2\n      sub\n      swap1\n      return\n        /* \"contracts/Founding Citizens NFT Sale.sol\":2822:2864  IMintStorage public ERC1155storageContract */\n    tag_14:\n      tag_76\n      tag_77\n      jump\t// in\n    tag_76:\n      mload(0x40)\n      tag_78\n      swap2\n      swap1\n      tag_79\n      jump\t// in\n    tag_78:\n      mload(0x40)\n      dup1\n      swap2\n      sub\n      swap1\n      return\n        /* \"contracts/Founding Citizens NFT Sale.sol\":7277:7688  function mintToTreasuryAddress() public requiresUpdate {\r... */\n    tag_15:\n      tag_80\n      tag_81\n      jump\t// in\n    tag_80:\n      stop\n        /* \"@openzeppelin/contracts@4.4.2/access/AccessControl.sol\":2894:3031  function hasRole(bytes32 role, address account) public view override returns (bool) {... */\n    tag_16:\n      tag_82\n      0x04\n      dup1\n      calldatasize\n      sub\n      dup2\n      add\n      swap1\n      tag_83\n      swap2\n      swap1\n      tag_46\n      jump\t// in\n    tag_83:\n      tag_84\n      jump\t// in\n    tag_82:\n      mload(0x40)\n      tag_85\n      swap2\n      swap1\n      tag_37\n      jump\t// in\n    tag_85:\n      mload(0x40)\n      dup1\n      swap2\n      sub\n      swap1\n      return\n        /* \"contracts/Founding Citizens NFT Sale.sol\":5538:5816  function setstartTime(uint unixTime) public {\r... */\n    tag_17:\n      tag_86\n      0x04\n      dup1\n      calldatasize\n      sub\n      dup2\n      add\n      swap1\n      tag_87\n      swap2\n      swap1\n      tag_57\n      jump\t// in\n    tag_87:\n      tag_88\n      jump\t// in\n    tag_86:\n      stop\n        /* \"@openzeppelin/contracts@4.4.2/access/AccessControl.sol\":2012:2061  bytes32 public constant DEFAULT_ADMIN_ROLE = 0x00 */\n    tag_18:\n      tag_89\n      tag_90\n      jump\t// in\n    tag_89:\n      mload(0x40)\n      tag_91\n      swap2\n      swap1\n      tag_43\n      jump\t// in\n    tag_91:\n      mload(0x40)\n      dup1\n      swap2\n      sub\n      swap1\n      return\n        /* \"contracts/Founding Citizens NFT Sale.sol\":6564:6766  function calculateCurrentCustomPrice(address prospectiveBuyer, uint discountRate) \r... */\n    tag_19:\n      tag_92\n      0x04\n      dup1\n      calldatasize\n      sub\n      dup2\n      add\n      swap1\n      tag_93\n      swap2\n      swap1\n      tag_94\n      jump\t// in\n    tag_93:\n      tag_95\n      jump\t// in\n    tag_92:\n      mload(0x40)\n      tag_96\n      swap2\n      swap1\n      tag_54\n      jump\t// in\n    tag_96:\n      mload(0x40)\n      dup1\n      swap2\n      sub\n      swap1\n      return\n        /* \"contracts/Founding Citizens NFT Sale.sol\":6106:6556  function calculateCustomPrice(address prospectiveBuyer, uint discountRate) \r... */\n    tag_20:\n      tag_97\n      0x04\n      dup1\n      calldatasize\n      sub\n      dup2\n      add\n      swap1\n      tag_98\n      swap2\n      swap1\n      tag_94\n      jump\t// in\n    tag_98:\n      tag_99\n      jump\t// in\n    tag_97:\n      mload(0x40)\n      tag_100\n      swap2\n      swap1\n      tag_54\n      jump\t// in\n    tag_100:\n      mload(0x40)\n      dup1\n      swap2\n      sub\n      swap1\n      return\n        /* \"contracts/Founding Citizens NFT Sale.sol\":6946:7091  function buyNFT() public pushesUpdate { //requires using existing balance\r... */\n    tag_21:\n      tag_101\n      tag_102\n      jump\t// in\n    tag_101:\n      stop\n        /* \"contracts/Founding Citizens NFT Sale.sol\":3623:3687  Update public lastUpdate = Update(10000, block.timestamp, false) */\n    tag_22:\n      tag_103\n      tag_104\n      jump\t// in\n    tag_103:\n      mload(0x40)\n      tag_105\n      swap4\n      swap3\n      swap2\n      swap1\n      tag_106\n      jump\t// in\n    tag_105:\n      mload(0x40)\n      dup1\n      swap2\n      sub\n      swap1\n      return\n        /* \"contracts/Founding Citizens NFT Sale.sol\":2926:2971  IUsdcStorage public usdcEscrowStorageContract */\n    tag_23:\n      tag_107\n      tag_108\n      jump\t// in\n    tag_107:\n      mload(0x40)\n      tag_109\n      swap2\n      swap1\n      tag_110\n      jump\t// in\n    tag_109:\n      mload(0x40)\n      dup1\n      swap2\n      sub\n      swap1\n      return\n        /* \"contracts/Founding Citizens NFT Sale.sol\":2978:3008  address public treasuryAddress */\n    tag_24:\n      tag_111\n      tag_112\n      jump\t// in\n    tag_111:\n      mload(0x40)\n      tag_113\n      swap2\n      swap1\n      tag_114\n      jump\t// in\n    tag_113:\n      mload(0x40)\n      dup1\n      swap2\n      sub\n      swap1\n      return\n        /* \"contracts/Founding Citizens NFT Sale.sol\":5824:6098  function setEndTime(uint unixTime) public {\r... */\n    tag_25:\n      tag_115\n      0x04\n      dup1\n      calldatasize\n      sub\n      dup2\n      add\n      swap1\n      tag_116\n      swap2\n      swap1\n      tag_57\n      jump\t// in\n    tag_116:\n      tag_117\n      jump\t// in\n    tag_115:\n      stop\n        /* \"@openzeppelin/contracts@4.4.2/access/AccessControl.sol\":4727:4874  function revokeRole(bytes32 role, address account) public virtual override onlyRole(getRoleAdmin(role)) {... */\n    tag_26:\n      tag_118\n      0x04\n      dup1\n      calldatasize\n      sub\n      dup2\n      add\n      swap1\n      tag_119\n      swap2\n      swap1\n      tag_46\n      jump\t// in\n    tag_119:\n      tag_120\n      jump\t// in\n    tag_118:\n      stop\n        /* \"contracts/Founding Citizens NFT Sale.sol\":4902:5248  function preLoadURIs(uint[] memory ids, string[] memory uris) \r... */\n    tag_27:\n      tag_121\n      0x04\n      dup1\n      calldatasize\n      sub\n      dup2\n      add\n      swap1\n      tag_122\n      swap2\n      swap1\n      tag_123\n      jump\t// in\n    tag_122:\n      tag_124\n      jump\t// in\n    tag_121:\n      stop\n        /* \"@openzeppelin/contracts@4.4.2/access/AccessControl.sol\":2605:2807  function supportsInterface(bytes4 interfaceId) public view virtual override returns (bool) {... */\n    tag_35:\n        /* \"@openzeppelin/contracts@4.4.2/access/AccessControl.sol\":2690:2694  bool */\n      0x00\n        /* \"@openzeppelin/contracts@4.4.2/access/AccessControl.sol\":2728:2760  type(IAccessControl).interfaceId */\n      0x7965db0b00000000000000000000000000000000000000000000000000000000\n        /* \"@openzeppelin/contracts@4.4.2/access/AccessControl.sol\":2713:2760  interfaceId == type(IAccessControl).interfaceId */\n      not(0xffffffffffffffffffffffffffffffffffffffffffffffffffffffff)\n      and\n        /* \"@openzeppelin/contracts@4.4.2/access/AccessControl.sol\":2713:2724  interfaceId */\n      dup3\n        /* \"@openzeppelin/contracts@4.4.2/access/AccessControl.sol\":2713:2760  interfaceId == type(IAccessControl).interfaceId */\n      not(0xffffffffffffffffffffffffffffffffffffffffffffffffffffffff)\n      and\n      eq\n        /* \"@openzeppelin/contracts@4.4.2/access/AccessControl.sol\":2713:2800  interfaceId == type(IAccessControl).interfaceId || super.supportsInterface(interfaceId) */\n      dup1\n      tag_126\n      jumpi\n      pop\n        /* \"@openzeppelin/contracts@4.4.2/access/AccessControl.sol\":2764:2800  super.supportsInterface(interfaceId) */\n      tag_127\n        /* \"@openzeppelin/contracts@4.4.2/access/AccessControl.sol\":2788:2799  interfaceId */\n      dup3\n        /* \"@openzeppelin/contracts@4.4.2/access/AccessControl.sol\":2764:2787  super.supportsInterface */\n      tag_128\n        /* \"@openzeppelin/contracts@4.4.2/access/AccessControl.sol\":2764:2800  super.supportsInterface(interfaceId) */\n      jump\t// in\n    tag_127:\n        /* \"@openzeppelin/contracts@4.4.2/access/AccessControl.sol\":2713:2800  interfaceId == type(IAccessControl).interfaceId || super.supportsInterface(interfaceId) */\n    tag_126:\n        /* \"@openzeppelin/contracts@4.4.2/access/AccessControl.sol\":2706:2800  return interfaceId == type(IAccessControl).interfaceId || super.supportsInterface(interfaceId) */\n      swap1\n      pop\n        /* \"@openzeppelin/contracts@4.4.2/access/AccessControl.sol\":2605:2807  function supportsInterface(bytes4 interfaceId) public view virtual override returns (bool) {... */\n      swap2\n      swap1\n      pop\n      jump\t// out\n        /* \"@openzeppelin/contracts@4.4.2/access/AccessControl.sol\":3977:4098  function getRoleAdmin(bytes32 role) public view override returns (bytes32) {... */\n    tag_41:\n        /* \"@openzeppelin/contracts@4.4.2/access/AccessControl.sol\":4043:4050  bytes32 */\n      0x00\n        /* \"@openzeppelin/contracts@4.4.2/access/AccessControl.sol\":4069:4075  _roles */\n      dup1\n        /* \"@openzeppelin/contracts@4.4.2/access/AccessControl.sol\":4069:4081  _roles[role] */\n      0x00\n        /* \"@openzeppelin/contracts@4.4.2/access/AccessControl.sol\":4076:4080  role */\n      dup4\n        /* \"@openzeppelin/contracts@4.4.2/access/AccessControl.sol\":4069:4081  _roles[role] */\n      dup2\n      mstore\n      0x20\n      add\n      swap1\n      dup2\n      mstore\n      0x20\n      add\n      0x00\n      keccak256\n        /* \"@openzeppelin/contracts@4.4.2/access/AccessControl.sol\":4069:4091  _roles[role].adminRole */\n      0x01\n      add\n      sload\n        /* \"@openzeppelin/contracts@4.4.2/access/AccessControl.sol\":4062:4091  return _roles[role].adminRole */\n      swap1\n      pop\n        /* \"@openzeppelin/contracts@4.4.2/access/AccessControl.sol\":3977:4098  function getRoleAdmin(bytes32 role) public view override returns (bytes32) {... */\n      swap2\n      swap1\n      pop\n      jump\t// out\n        /* \"@openzeppelin/contracts@4.4.2/access/AccessControl.sol\":4348:4493  function grantRole(bytes32 role, address account) public virtual override onlyRole(getRoleAdmin(role)) {... */\n    tag_47:\n        /* \"@openzeppelin/contracts@4.4.2/access/AccessControl.sol\":4431:4449  getRoleAdmin(role) */\n      tag_130\n        /* \"@openzeppelin/contracts@4.4.2/access/AccessControl.sol\":4444:4448  role */\n      dup3\n        /* \"@openzeppelin/contracts@4.4.2/access/AccessControl.sol\":4431:4443  getRoleAdmin */\n      tag_41\n        /* \"@openzeppelin/contracts@4.4.2/access/AccessControl.sol\":4431:4449  getRoleAdmin(role) */\n      jump\t// in\n    tag_130:\n        /* \"@openzeppelin/contracts@4.4.2/access/AccessControl.sol\":2490:2520  _checkRole(role, _msgSender()) */\n      tag_132\n        /* \"@openzeppelin/contracts@4.4.2/access/AccessControl.sol\":2501:2505  role */\n      dup2\n        /* \"@openzeppelin/contracts@4.4.2/access/AccessControl.sol\":2507:2519  _msgSender() */\n      tag_133\n        /* \"@openzeppelin/contracts@4.4.2/access/AccessControl.sol\":2507:2517  _msgSender */\n      tag_134\n        /* \"@openzeppelin/contracts@4.4.2/access/AccessControl.sol\":2507:2519  _msgSender() */\n      jump\t// in\n    tag_133:\n        /* \"@openzeppelin/contracts@4.4.2/access/AccessControl.sol\":2490:2500  _checkRole */\n      tag_135\n        /* \"@openzeppelin/contracts@4.4.2/access/AccessControl.sol\":2490:2520  _checkRole(role, _msgSender()) */\n      jump\t// in\n    tag_132:\n        /* \"@openzeppelin/contracts@4.4.2/access/AccessControl.sol\":4461:4486  _grantRole(role, account) */\n      tag_137\n        /* \"@openzeppelin/contracts@4.4.2/access/AccessControl.sol\":4472:4476  role */\n      dup4\n        /* \"@openzeppelin/contracts@4.4.2/access/AccessControl.sol\":4478:4485  account */\n      dup4\n        /* \"@openzeppelin/contracts@4.4.2/access/AccessControl.sol\":4461:4471  _grantRole */\n      tag_138\n        /* \"@openzeppelin/contracts@4.4.2/access/AccessControl.sol\":4461:4486  _grantRole(role, account) */\n      jump\t// in\n    tag_137:\n        /* \"@openzeppelin/contracts@4.4.2/access/AccessControl.sol\":4348:4493  function grantRole(bytes32 role, address account) public virtual override onlyRole(getRoleAdmin(role)) {... */\n      pop\n      pop\n      pop\n      jump\t// out\n        /* \"@openzeppelin/contracts@4.4.2/access/AccessControl.sol\":5365:5579  function renounceRole(bytes32 role, address account) public virtual override {... */\n    tag_50:\n        /* \"@openzeppelin/contracts@4.4.2/access/AccessControl.sol\":5471:5483  _msgSender() */\n      tag_140\n        /* \"@openzeppelin/contracts@4.4.2/access/AccessControl.sol\":5471:5481  _msgSender */\n      tag_134\n        /* \"@openzeppelin/contracts@4.4.2/access/AccessControl.sol\":5471:5483  _msgSender() */\n      jump\t// in\n    tag_140:\n        /* \"@openzeppelin/contracts@4.4.2/access/AccessControl.sol\":5460:5483  account == _msgSender() */\n      0xffffffffffffffffffffffffffffffffffffffff\n      and\n        /* \"@openzeppelin/contracts@4.4.2/access/AccessControl.sol\":5460:5467  account */\n      dup2\n        /* \"@openzeppelin/contracts@4.4.2/access/AccessControl.sol\":5460:5483  account == _msgSender() */\n      0xffffffffffffffffffffffffffffffffffffffff\n      and\n      eq\n        /* \"@openzeppelin/contracts@4.4.2/access/AccessControl.sol\":5452:5535  require(account == _msgSender(), \"AccessControl: can only renounce roles for self\") */\n      tag_141\n      jumpi\n      mload(0x40)\n      0x08c379a000000000000000000000000000000000000000000000000000000000\n      dup2\n      mstore\n      0x04\n      add\n      tag_142\n      swap1\n      tag_143\n      jump\t// in\n    tag_142:\n      mload(0x40)\n      dup1\n      swap2\n      sub\n      swap1\n      revert\n    tag_141:\n        /* \"@openzeppelin/contracts@4.4.2/access/AccessControl.sol\":5546:5572  _revokeRole(role, account) */\n      tag_144\n        /* \"@openzeppelin/contracts@4.4.2/access/AccessControl.sol\":5558:5562  role */\n      dup3\n        /* \"@openzeppelin/contracts@4.4.2/access/AccessControl.sol\":5564:5571  account */\n      dup3\n        /* \"@openzeppelin/contracts@4.4.2/access/AccessControl.sol\":5546:5557  _revokeRole */\n      tag_145\n        /* \"@openzeppelin/contracts@4.4.2/access/AccessControl.sol\":5546:5572  _revokeRole(role, account) */\n      jump\t// in\n    tag_144:\n        /* \"@openzeppelin/contracts@4.4.2/access/AccessControl.sol\":5365:5579  function renounceRole(bytes32 role, address account) public virtual override {... */\n      pop\n      pop\n      jump\t// out\n        /* \"contracts/Founding Citizens NFT Sale.sol\":5403:5530  function getMaxSupply() public view returns(uint) {\r... */\n    tag_52:\n        /* \"contracts/Founding Citizens NFT Sale.sol\":5447:5451  uint */\n      0x00\n        /* \"contracts/Founding Citizens NFT Sale.sol\":5484:5506  ERC1155storageContract */\n      0x01\n      0x00\n      swap1\n      sload\n      swap1\n      0x0100\n      exp\n      swap1\n      div\n      0xffffffffffffffffffffffffffffffffffffffff\n      and\n        /* \"contracts/Founding Citizens NFT Sale.sol\":5471:5520  IMintStorage(ERC1155storageContract).getMaxSupply */\n      0xffffffffffffffffffffffffffffffffffffffff\n      and\n      0x4c0f38c2\n        /* \"contracts/Founding Citizens NFT Sale.sol\":5471:5522  IMintStorage(ERC1155storageContract).getMaxSupply() */\n      mload(0x40)\n      dup2\n      0xffffffff\n      and\n      0xe0\n      shl\n      dup2\n      mstore\n      0x04\n      add\n      0x20\n      mload(0x40)\n      dup1\n      dup4\n      sub\n      dup2\n      dup7\n      dup1\n      extcodesize\n      iszero\n      dup1\n      iszero\n      tag_147\n      jumpi\n      0x00\n      dup1\n      revert\n    tag_147:\n      pop\n      gas\n      staticcall\n      iszero\n      dup1\n      iszero\n      tag_149\n      jumpi\n      returndatasize\n      0x00\n      dup1\n      returndatacopy\n      revert(0x00, returndatasize)\n    tag_149:\n      pop\n      pop\n      pop\n      pop\n      mload(0x40)\n      returndatasize\n      not(0x1f)\n      0x1f\n      dup3\n      add\n      and\n      dup3\n      add\n      dup1\n      0x40\n      mstore\n      pop\n      dup2\n      add\n      swap1\n      tag_150\n      swap2\n      swap1\n      tag_151\n      jump\t// in\n    tag_150:\n        /* \"contracts/Founding Citizens NFT Sale.sol\":5464:5522  return IMintStorage(ERC1155storageContract).getMaxSupply() */\n      swap1\n      pop\n        /* \"contracts/Founding Citizens NFT Sale.sol\":5403:5530  function getMaxSupply() public view returns(uint) {\r... */\n      swap1\n      jump\t// out\n        /* \"contracts/Founding Citizens NFT Sale.sol\":7099:7269  function buyNftWithDiscount(uint discountRate) public pushesUpdate {\r... */\n    tag_58:\n        /* \"contracts/Founding Citizens NFT Sale.sol\":3870:3883  updateState() */\n      tag_153\n        /* \"contracts/Founding Citizens NFT Sale.sol\":3870:3881  updateState */\n      tag_154\n        /* \"contracts/Founding Citizens NFT Sale.sol\":3870:3883  updateState() */\n      jump\t// in\n    tag_153:\n        /* \"contracts/Founding Citizens NFT Sale.sol\":7177:7187  uint price */\n      0x00\n        /* \"contracts/Founding Citizens NFT Sale.sol\":7190:7236  calculateCustomPrice(msg.sender, discountRate) */\n      tag_156\n        /* \"contracts/Founding Citizens NFT Sale.sol\":7211:7221  msg.sender */\n      caller\n        /* \"contracts/Founding Citizens NFT Sale.sol\":7223:7235  discountRate */\n      dup4\n        /* \"contracts/Founding Citizens NFT Sale.sol\":7190:7210  calculateCustomPrice */\n      tag_99\n        /* \"contracts/Founding Citizens NFT Sale.sol\":7190:7236  calculateCustomPrice(msg.sender, discountRate) */\n      jump\t// in\n    tag_156:\n        /* \"contracts/Founding Citizens NFT Sale.sol\":7177:7236  uint price = calculateCustomPrice(msg.sender, discountRate) */\n      swap1\n      pop\n        /* \"contracts/Founding Citizens NFT Sale.sol\":7247:7261  _buyNFT(price) */\n      tag_157\n        /* \"contracts/Founding Citizens NFT Sale.sol\":7255:7260  price */\n      dup2\n        /* \"contracts/Founding Citizens NFT Sale.sol\":7247:7254  _buyNFT */\n      tag_158\n        /* \"contracts/Founding Citizens NFT Sale.sol\":7247:7261  _buyNFT(price) */\n      jump\t// in\n    tag_157:\n        /* \"contracts/Founding Citizens NFT Sale.sol\":3894:3895  _ */\n      pop\n        /* \"contracts/Founding Citizens NFT Sale.sol\":7099:7269  function buyNftWithDiscount(uint discountRate) public pushesUpdate {\r... */\n      pop\n      jump\t// out\n        /* \"contracts/Founding Citizens NFT Sale.sol\":4588:4755  function setStorageContractAddress(address storageAddress) public onlyRole(DEFAULT_ADMIN_ROLE) {\r... */\n    tag_62:\n        /* \"@openzeppelin/contracts@4.4.2/access/AccessControl.sol\":2057:2061  0x00 */\n      0x00\n        /* \"contracts/Founding Citizens NFT Sale.sol\":4663:4681  DEFAULT_ADMIN_ROLE */\n      dup1\n      shl\n        /* \"@openzeppelin/contracts@4.4.2/access/AccessControl.sol\":2490:2520  _checkRole(role, _msgSender()) */\n      tag_160\n        /* \"@openzeppelin/contracts@4.4.2/access/AccessControl.sol\":2501:2505  role */\n      dup2\n        /* \"@openzeppelin/contracts@4.4.2/access/AccessControl.sol\":2507:2519  _msgSender() */\n      tag_161\n        /* \"@openzeppelin/contracts@4.4.2/access/AccessControl.sol\":2507:2517  _msgSender */\n      tag_134\n        /* \"@openzeppelin/contracts@4.4.2/access/AccessControl.sol\":2507:2519  _msgSender() */\n      jump\t// in\n    tag_161:\n        /* \"@openzeppelin/contracts@4.4.2/access/AccessControl.sol\":2490:2500  _checkRole */\n      tag_135\n        /* \"@openzeppelin/contracts@4.4.2/access/AccessControl.sol\":2490:2520  _checkRole(role, _msgSender()) */\n      jump\t// in\n    tag_160:\n        /* \"contracts/Founding Citizens NFT Sale.sol\":4732:4746  storageAddress */\n      dup2\n        /* \"contracts/Founding Citizens NFT Sale.sol\":4694:4716  ERC1155storageContract */\n      0x01\n      0x00\n        /* \"contracts/Founding Citizens NFT Sale.sol\":4694:4747  ERC1155storageContract = IMintStorage(storageAddress) */\n      0x0100\n      exp\n      dup2\n      sload\n      dup2\n      0xffffffffffffffffffffffffffffffffffffffff\n      mul\n      not\n      and\n      swap1\n      dup4\n      0xffffffffffffffffffffffffffffffffffffffff\n      and\n      mul\n      or\n      swap1\n      sstore\n      pop\n        /* \"contracts/Founding Citizens NFT Sale.sol\":4588:4755  function setStorageContractAddress(address storageAddress) public onlyRole(DEFAULT_ADMIN_ROLE) {\r... */\n      pop\n      pop\n      jump\t// out\n        /* \"contracts/Founding Citizens NFT Sale.sol\":3096:3170  bytes32 public constant SALE_MANAGER_ROLE = keccak256(\"SALE_MANAGER_ROLE\") */\n    tag_64:\n        /* \"contracts/Founding Citizens NFT Sale.sol\":3140:3170  keccak256(\"SALE_MANAGER_ROLE\") */\n      0x988301af8238f779281a300de031815cd01b48e9f1ae47a0f91ed6584213624a\n        /* \"contracts/Founding Citizens NFT Sale.sol\":3096:3170  bytes32 public constant SALE_MANAGER_ROLE = keccak256(\"SALE_MANAGER_ROLE\") */\n      dup2\n      jump\t// out\n        /* \"contracts/Founding Citizens NFT Sale.sol\":2871:2919  IPrivilegedListStorage public privilgedBuyerList */\n    tag_67:\n      0x02\n      0x00\n      swap1\n      sload\n      swap1\n      0x0100\n      exp\n      swap1\n      div\n      0xffffffffffffffffffffffffffffffffffffffff\n      and\n      dup2\n      jump\t// out\n        /* \"contracts/Founding Citizens NFT Sale.sol\":3017:3089  bytes32 public constant URI_MANAGER_ROLE = keccak256(\"URI_MANAGER_ROLE\") */\n    tag_71:\n        /* \"contracts/Founding Citizens NFT Sale.sol\":3060:3089  keccak256(\"URI_MANAGER_ROLE\") */\n      0xa70a2d8710fed9f014c8c2af50c7c2f6b25748ae4cded822e03b7beed44cf3a8\n        /* \"contracts/Founding Citizens NFT Sale.sol\":3017:3089  bytes32 public constant URI_MANAGER_ROLE = keccak256(\"URI_MANAGER_ROLE\") */\n      dup2\n      jump\t// out\n        /* \"contracts/Founding Citizens NFT Sale.sol\":5256:5395  function getNextUnusedToken() public view returns(uint) {\r... */\n    tag_74:\n        /* \"contracts/Founding Citizens NFT Sale.sol\":5306:5310  uint */\n      0x00\n        /* \"contracts/Founding Citizens NFT Sale.sol\":5343:5365  ERC1155storageContract */\n      0x01\n      0x00\n      swap1\n      sload\n      swap1\n      0x0100\n      exp\n      swap1\n      div\n      0xffffffffffffffffffffffffffffffffffffffff\n      and\n        /* \"contracts/Founding Citizens NFT Sale.sol\":5330:5385  IMintStorage(ERC1155storageContract).getNextUnusedToken */\n      0xffffffffffffffffffffffffffffffffffffffff\n      and\n      0x68fc01a2\n        /* \"contracts/Founding Citizens NFT Sale.sol\":5330:5387  IMintStorage(ERC1155storageContract).getNextUnusedToken() */\n      mload(0x40)\n      dup2\n      0xffffffff\n      and\n      0xe0\n      shl\n      dup2\n      mstore\n      0x04\n      add\n      0x20\n      mload(0x40)\n      dup1\n      dup4\n      sub\n      dup2\n      dup7\n      dup1\n      extcodesize\n      iszero\n      dup1\n      iszero\n      tag_164\n      jumpi\n      0x00\n      dup1\n      revert\n    tag_164:\n      pop\n      gas\n      staticcall\n      iszero\n      dup1\n      iszero\n      tag_166\n      jumpi\n      returndatasize\n      0x00\n      dup1\n      returndatacopy\n      revert(0x00, returndatasize)\n    tag_166:\n      pop\n      pop\n      pop\n      pop\n      mload(0x40)\n      returndatasize\n      not(0x1f)\n      0x1f\n      dup3\n      add\n      and\n      dup3\n      add\n      dup1\n      0x40\n      mstore\n      pop\n      dup2\n      add\n      swap1\n      tag_167\n      swap2\n      swap1\n      tag_151\n      jump\t// in\n    tag_167:\n        /* \"contracts/Founding Citizens NFT Sale.sol\":5323:5387  return IMintStorage(ERC1155storageContract).getNextUnusedToken() */\n      swap1\n      pop\n        /* \"contracts/Founding Citizens NFT Sale.sol\":5256:5395  function getNextUnusedToken() public view returns(uint) {\r... */\n      swap1\n      jump\t// out\n        /* \"contracts/Founding Citizens NFT Sale.sol\":2822:2864  IMintStorage public ERC1155storageContract */\n    tag_77:\n      0x01\n      0x00\n      swap1\n      sload\n      swap1\n      0x0100\n      exp\n      swap1\n      div\n      0xffffffffffffffffffffffffffffffffffffffff\n      and\n      dup2\n      jump\t// out\n        /* \"contracts/Founding Citizens NFT Sale.sol\":7277:7688  function mintToTreasuryAddress() public requiresUpdate {\r... */\n    tag_81:\n        /* \"contracts/Founding Citizens NFT Sale.sol\":3760:3775  block.timestamp */\n      timestamp\n        /* \"contracts/Founding Citizens NFT Sale.sol\":3741:3751  lastUpdate */\n      0x09\n        /* \"contracts/Founding Citizens NFT Sale.sol\":3741:3756  lastUpdate.time */\n      0x01\n      add\n      sload\n        /* \"contracts/Founding Citizens NFT Sale.sol\":3741:3775  lastUpdate.time == block.timestamp */\n      eq\n        /* \"contracts/Founding Citizens NFT Sale.sol\":3733:3807  require(lastUpdate.time == block.timestamp, \"timestamp is not up-to-date\") */\n      tag_169\n      jumpi\n      mload(0x40)\n      0x08c379a000000000000000000000000000000000000000000000000000000000\n      dup2\n      mstore\n      0x04\n      add\n      tag_170\n      swap1\n      tag_171\n      jump\t// in\n    tag_170:\n      mload(0x40)\n      dup1\n      swap2\n      sub\n      swap1\n      revert\n    tag_169:\n        /* \"contracts/Founding Citizens NFT Sale.sol\":7383:7390  endTime */\n      sload(0x06)\n        /* \"contracts/Founding Citizens NFT Sale.sol\":7365:7380  block.timestamp */\n      timestamp\n        /* \"contracts/Founding Citizens NFT Sale.sol\":7365:7390  block.timestamp > endTime */\n      gt\n        /* \"contracts/Founding Citizens NFT Sale.sol\":7365:7416  block.timestamp > endTime && !lastUpdate.saleIsLive */\n      dup1\n      iszero\n      tag_173\n      jumpi\n      pop\n        /* \"contracts/Founding Citizens NFT Sale.sol\":7395:7405  lastUpdate */\n      0x09\n        /* \"contracts/Founding Citizens NFT Sale.sol\":7395:7416  lastUpdate.saleIsLive */\n      0x02\n      add\n      0x00\n      swap1\n      sload\n      swap1\n      0x0100\n      exp\n      swap1\n      div\n      0xff\n      and\n        /* \"contracts/Founding Citizens NFT Sale.sol\":7394:7416  !lastUpdate.saleIsLive */\n      iszero\n        /* \"contracts/Founding Citizens NFT Sale.sol\":7365:7416  block.timestamp > endTime && !lastUpdate.saleIsLive */\n    tag_173:\n        /* \"contracts/Founding Citizens NFT Sale.sol\":7343:7499  require(\r... */\n      tag_174\n      jumpi\n      mload(0x40)\n      0x08c379a000000000000000000000000000000000000000000000000000000000\n      dup2\n      mstore\n      0x04\n      add\n      tag_175\n      swap1\n      tag_176\n      jump\t// in\n    tag_175:\n      mload(0x40)\n      dup1\n      swap2\n      sub\n      swap1\n      revert\n    tag_174:\n        /* \"contracts/Founding Citizens NFT Sale.sol\":7510:7525  uint leftToMint */\n      0x00\n        /* \"contracts/Founding Citizens NFT Sale.sol\":7567:7568  1 */\n      0x01\n        /* \"contracts/Founding Citizens NFT Sale.sol\":7546:7566  getNextUnusedToken() */\n      tag_177\n        /* \"contracts/Founding Citizens NFT Sale.sol\":7546:7564  getNextUnusedToken */\n      tag_74\n        /* \"contracts/Founding Citizens NFT Sale.sol\":7546:7566  getNextUnusedToken() */\n      jump\t// in\n    tag_177:\n        /* \"contracts/Founding Citizens NFT Sale.sol\":7546:7568  getNextUnusedToken()-1 */\n      tag_178\n      swap2\n      swap1\n      tag_179\n      jump\t// in\n    tag_178:\n        /* \"contracts/Founding Citizens NFT Sale.sol\":7528:7542  getMaxSupply() */\n      tag_180\n        /* \"contracts/Founding Citizens NFT Sale.sol\":7528:7540  getMaxSupply */\n      tag_52\n        /* \"contracts/Founding Citizens NFT Sale.sol\":7528:7542  getMaxSupply() */\n      jump\t// in\n    tag_180:\n        /* \"contracts/Founding Citizens NFT Sale.sol\":7528:7569  getMaxSupply() - (getNextUnusedToken()-1) */\n      tag_181\n      swap2\n      swap1\n      tag_179\n      jump\t// in\n    tag_181:\n        /* \"contracts/Founding Citizens NFT Sale.sol\":7510:7569  uint leftToMint = getMaxSupply() - (getNextUnusedToken()-1) */\n      swap1\n      pop\n        /* \"contracts/Founding Citizens NFT Sale.sol\":7580:7681  for (; leftToMint > 0; leftToMint--) {\r... */\n    tag_182:\n        /* \"contracts/Founding Citizens NFT Sale.sol\":7600:7601  0 */\n      0x00\n        /* \"contracts/Founding Citizens NFT Sale.sol\":7587:7597  leftToMint */\n      dup2\n        /* \"contracts/Founding Citizens NFT Sale.sol\":7587:7601  leftToMint > 0 */\n      gt\n        /* \"contracts/Founding Citizens NFT Sale.sol\":7580:7681  for (; leftToMint > 0; leftToMint--) {\r... */\n      iszero\n      tag_183\n      jumpi\n        /* \"contracts/Founding Citizens NFT Sale.sol\":7632:7669  mintNextNftToAddress(treasuryAddress) */\n      tag_185\n        /* \"contracts/Founding Citizens NFT Sale.sol\":7653:7668  treasuryAddress */\n      0x04\n      0x00\n      swap1\n      sload\n      swap1\n      0x0100\n      exp\n      swap1\n      div\n      0xffffffffffffffffffffffffffffffffffffffff\n      and\n        /* \"contracts/Founding Citizens NFT Sale.sol\":7632:7652  mintNextNftToAddress */\n      tag_186\n        /* \"contracts/Founding Citizens NFT Sale.sol\":7632:7669  mintNextNftToAddress(treasuryAddress) */\n      jump\t// in\n    tag_185:\n        /* \"contracts/Founding Citizens NFT Sale.sol\":7603:7615  leftToMint-- */\n      dup1\n      dup1\n      tag_187\n      swap1\n      tag_188\n      jump\t// in\n    tag_187:\n      swap2\n      pop\n      pop\n        /* \"contracts/Founding Citizens NFT Sale.sol\":7580:7681  for (; leftToMint > 0; leftToMint--) {\r... */\n      jump(tag_182)\n    tag_183:\n        /* \"contracts/Founding Citizens NFT Sale.sol\":3818:3819  _ */\n      pop\n        /* \"contracts/Founding Citizens NFT Sale.sol\":7277:7688  function mintToTreasuryAddress() public requiresUpdate {\r... */\n      jump\t// out\n        /* \"@openzeppelin/contracts@4.4.2/access/AccessControl.sol\":2894:3031  function hasRole(bytes32 role, address account) public view override returns (bool) {... */\n    tag_84:\n        /* \"@openzeppelin/contracts@4.4.2/access/AccessControl.sol\":2972:2976  bool */\n      0x00\n        /* \"@openzeppelin/contracts@4.4.2/access/AccessControl.sol\":2995:3001  _roles */\n      dup1\n        /* \"@openzeppelin/contracts@4.4.2/access/AccessControl.sol\":2995:3007  _roles[role] */\n      0x00\n        /* \"@openzeppelin/contracts@4.4.2/access/AccessControl.sol\":3002:3006  role */\n      dup5\n        /* \"@openzeppelin/contracts@4.4.2/access/AccessControl.sol\":2995:3007  _roles[role] */\n      dup2\n      mstore\n      0x20\n      add\n      swap1\n      dup2\n      mstore\n      0x20\n      add\n      0x00\n      keccak256\n        /* \"@openzeppelin/contracts@4.4.2/access/AccessControl.sol\":2995:3015  _roles[role].members */\n      0x00\n      add\n        /* \"@openzeppelin/contracts@4.4.2/access/AccessControl.sol\":2995:3024  _roles[role].members[account] */\n      0x00\n        /* \"@openzeppelin/contracts@4.4.2/access/AccessControl.sol\":3016:3023  account */\n      dup4\n        /* \"@openzeppelin/contracts@4.4.2/access/AccessControl.sol\":2995:3024  _roles[role].members[account] */\n      0xffffffffffffffffffffffffffffffffffffffff\n      and\n      0xffffffffffffffffffffffffffffffffffffffff\n      and\n      dup2\n      mstore\n      0x20\n      add\n      swap1\n      dup2\n      mstore\n      0x20\n      add\n      0x00\n      keccak256\n      0x00\n      swap1\n      sload\n      swap1\n      0x0100\n      exp\n      swap1\n      div\n      0xff\n      and\n        /* \"@openzeppelin/contracts@4.4.2/access/AccessControl.sol\":2988:3024  return _roles[role].members[account] */\n      swap1\n      pop\n        /* \"@openzeppelin/contracts@4.4.2/access/AccessControl.sol\":2894:3031  function hasRole(bytes32 role, address account) public view override returns (bool) {... */\n      swap3\n      swap2\n      pop\n      pop\n      jump\t// out\n        /* \"contracts/Founding Citizens NFT Sale.sol\":5538:5816  function setstartTime(uint unixTime) public {\r... */\n    tag_88:\n        /* \"contracts/Founding Citizens NFT Sale.sol\":5615:5655  hasRole(SALE_MANAGER_ROLE, _msgSender()) */\n      tag_191\n        /* \"contracts/Founding Citizens NFT Sale.sol\":3140:3170  keccak256(\"SALE_MANAGER_ROLE\") */\n      0x988301af8238f779281a300de031815cd01b48e9f1ae47a0f91ed6584213624a\n        /* \"contracts/Founding Citizens NFT Sale.sol\":5642:5654  _msgSender() */\n      tag_192\n        /* \"contracts/Founding Citizens NFT Sale.sol\":5642:5652  _msgSender */\n      tag_134\n        /* \"contracts/Founding Citizens NFT Sale.sol\":5642:5654  _msgSender() */\n      jump\t// in\n    tag_192:\n        /* \"contracts/Founding Citizens NFT Sale.sol\":5615:5622  hasRole */\n      tag_84\n        /* \"contracts/Founding Citizens NFT Sale.sol\":5615:5655  hasRole(SALE_MANAGER_ROLE, _msgSender()) */\n      jump\t// in\n    tag_191:\n        /* \"contracts/Founding Citizens NFT Sale.sol\":5615:5714  hasRole(SALE_MANAGER_ROLE, _msgSender()) || \r... */\n      dup1\n      tag_193\n      jumpi\n      pop\n        /* \"contracts/Founding Citizens NFT Sale.sol\":5673:5714  hasRole(DEFAULT_ADMIN_ROLE, _msgSender()) */\n      tag_194\n        /* \"@openzeppelin/contracts@4.4.2/access/AccessControl.sol\":2057:2061  0x00 */\n      0x00\n        /* \"contracts/Founding Citizens NFT Sale.sol\":5681:5699  DEFAULT_ADMIN_ROLE */\n      dup1\n      shl\n        /* \"contracts/Founding Citizens NFT Sale.sol\":5701:5713  _msgSender() */\n      tag_195\n        /* \"contracts/Founding Citizens NFT Sale.sol\":5701:5711  _msgSender */\n      tag_134\n        /* \"contracts/Founding Citizens NFT Sale.sol\":5701:5713  _msgSender() */\n      jump\t// in\n    tag_195:\n        /* \"contracts/Founding Citizens NFT Sale.sol\":5673:5680  hasRole */\n      tag_84\n        /* \"contracts/Founding Citizens NFT Sale.sol\":5673:5714  hasRole(DEFAULT_ADMIN_ROLE, _msgSender()) */\n      jump\t// in\n    tag_194:\n        /* \"contracts/Founding Citizens NFT Sale.sol\":5615:5714  hasRole(SALE_MANAGER_ROLE, _msgSender()) || \r... */\n    tag_193:\n        /* \"contracts/Founding Citizens NFT Sale.sol\":5593:5777  require(\r... */\n      tag_196\n      jumpi\n      mload(0x40)\n      0x08c379a000000000000000000000000000000000000000000000000000000000\n      dup2\n      mstore\n      0x04\n      add\n      tag_197\n      swap1\n      tag_198\n      jump\t// in\n    tag_197:\n      mload(0x40)\n      dup1\n      swap2\n      sub\n      swap1\n      revert\n    tag_196:\n        /* \"contracts/Founding Citizens NFT Sale.sol\":5800:5808  unixTime */\n      dup1\n        /* \"contracts/Founding Citizens NFT Sale.sol\":5788:5797  startTime */\n      0x05\n        /* \"contracts/Founding Citizens NFT Sale.sol\":5788:5808  startTime = unixTime */\n      dup2\n      swap1\n      sstore\n      pop\n        /* \"contracts/Founding Citizens NFT Sale.sol\":5538:5816  function setstartTime(uint unixTime) public {\r... */\n      pop\n      jump\t// out\n        /* \"@openzeppelin/contracts@4.4.2/access/AccessControl.sol\":2012:2061  bytes32 public constant DEFAULT_ADMIN_ROLE = 0x00 */\n    tag_90:\n        /* \"@openzeppelin/contracts@4.4.2/access/AccessControl.sol\":2057:2061  0x00 */\n      0x00\n        /* \"@openzeppelin/contracts@4.4.2/access/AccessControl.sol\":2012:2061  bytes32 public constant DEFAULT_ADMIN_ROLE = 0x00 */\n      dup1\n      shl\n      dup2\n      jump\t// out\n        /* \"contracts/Founding Citizens NFT Sale.sol\":6564:6766  function calculateCurrentCustomPrice(address prospectiveBuyer, uint discountRate) \r... */\n    tag_95:\n        /* \"contracts/Founding Citizens NFT Sale.sol\":6682:6686  uint */\n      0x00\n        /* \"contracts/Founding Citizens NFT Sale.sol\":3870:3883  updateState() */\n      tag_200\n        /* \"contracts/Founding Citizens NFT Sale.sol\":3870:3881  updateState */\n      tag_154\n        /* \"contracts/Founding Citizens NFT Sale.sol\":3870:3883  updateState() */\n      jump\t// in\n    tag_200:\n        /* \"contracts/Founding Citizens NFT Sale.sol\":6706:6758  calculateCustomPrice(prospectiveBuyer, discountRate) */\n      tag_202\n        /* \"contracts/Founding Citizens NFT Sale.sol\":6727:6743  prospectiveBuyer */\n      dup4\n        /* \"contracts/Founding Citizens NFT Sale.sol\":6745:6757  discountRate */\n      dup4\n        /* \"contracts/Founding Citizens NFT Sale.sol\":6706:6726  calculateCustomPrice */\n      tag_99\n        /* \"contracts/Founding Citizens NFT Sale.sol\":6706:6758  calculateCustomPrice(prospectiveBuyer, discountRate) */\n      jump\t// in\n    tag_202:\n        /* \"contracts/Founding Citizens NFT Sale.sol\":6699:6758  return calculateCustomPrice(prospectiveBuyer, discountRate) */\n      swap1\n      pop\n        /* \"contracts/Founding Citizens NFT Sale.sol\":6564:6766  function calculateCurrentCustomPrice(address prospectiveBuyer, uint discountRate) \r... */\n      swap3\n      swap2\n      pop\n      pop\n      jump\t// out\n        /* \"contracts/Founding Citizens NFT Sale.sol\":6106:6556  function calculateCustomPrice(address prospectiveBuyer, uint discountRate) \r... */\n    tag_99:\n        /* \"contracts/Founding Citizens NFT Sale.sol\":6222:6226  uint */\n      0x00\n        /* \"contracts/Founding Citizens NFT Sale.sol\":3760:3775  block.timestamp */\n      timestamp\n        /* \"contracts/Founding Citizens NFT Sale.sol\":3741:3751  lastUpdate */\n      0x09\n        /* \"contracts/Founding Citizens NFT Sale.sol\":3741:3756  lastUpdate.time */\n      0x01\n      add\n      sload\n        /* \"contracts/Founding Citizens NFT Sale.sol\":3741:3775  lastUpdate.time == block.timestamp */\n      eq\n        /* \"contracts/Founding Citizens NFT Sale.sol\":3733:3807  require(lastUpdate.time == block.timestamp, \"timestamp is not up-to-date\") */\n      tag_204\n      jumpi\n      mload(0x40)\n      0x08c379a000000000000000000000000000000000000000000000000000000000\n      dup2\n      mstore\n      0x04\n      add\n      tag_205\n      swap1\n      tag_171\n      jump\t// in\n    tag_205:\n      mload(0x40)\n      dup1\n      swap2\n      sub\n      swap1\n      revert\n    tag_204:\n        /* \"contracts/Founding Citizens NFT Sale.sol\":6247:6265  privilgedBuyerList */\n      0x02\n      0x00\n      swap1\n      sload\n      swap1\n      0x0100\n      exp\n      swap1\n      div\n      0xffffffffffffffffffffffffffffffffffffffff\n      and\n        /* \"contracts/Founding Citizens NFT Sale.sol\":6247:6282  privilgedBuyerList.addressHasCoupon */\n      0xffffffffffffffffffffffffffffffffffffffff\n      and\n      0x2080179d\n        /* \"contracts/Founding Citizens NFT Sale.sol\":6283:6299  prospectiveBuyer */\n      dup5\n        /* \"contracts/Founding Citizens NFT Sale.sol\":6301:6313  discountRate */\n      dup5\n        /* \"contracts/Founding Citizens NFT Sale.sol\":6247:6314  privilgedBuyerList.addressHasCoupon(prospectiveBuyer, discountRate) */\n      mload(0x40)\n      dup4\n      0xffffffff\n      and\n      0xe0\n      shl\n      dup2\n      mstore\n      0x04\n      add\n      tag_207\n      swap3\n      swap2\n      swap1\n      tag_208\n      jump\t// in\n    tag_207:\n      0x20\n      mload(0x40)\n      dup1\n      dup4\n      sub\n      dup2\n      dup7\n      dup1\n      extcodesize\n      iszero\n      dup1\n      iszero\n      tag_209\n      jumpi\n      0x00\n      dup1\n      revert\n    tag_209:\n      pop\n      gas\n      staticcall\n      iszero\n      dup1\n      iszero\n      tag_211\n      jumpi\n      returndatasize\n      0x00\n      dup1\n      returndatacopy\n      revert(0x00, returndatasize)\n    tag_211:\n      pop\n      pop\n      pop\n      pop\n      mload(0x40)\n      returndatasize\n      not(0x1f)\n      0x1f\n      dup3\n      add\n      and\n      dup3\n      add\n      dup1\n      0x40\n      mstore\n      pop\n      dup2\n      add\n      swap1\n      tag_212\n      swap2\n      swap1\n      tag_213\n      jump\t// in\n    tag_212:\n        /* \"contracts/Founding Citizens NFT Sale.sol\":6366:6382  prospectiveBuyer */\n      dup4\n        /* \"contracts/Founding Citizens NFT Sale.sol\":6436:6448  discountRate */\n      dup4\n        /* \"contracts/Founding Citizens NFT Sale.sol\":6323:6454  abi.encodePacked(\r... */\n      add(0x20, mload(0x40))\n      tag_214\n      swap3\n      swap2\n      swap1\n      tag_215\n      jump\t// in\n    tag_214:\n      mload(0x40)\n      0x20\n      dup2\n      dup4\n      sub\n      sub\n      dup2\n      mstore\n      swap1\n      0x40\n      mstore\n        /* \"contracts/Founding Citizens NFT Sale.sol\":6239:6456  require(privilgedBuyerList.addressHasCoupon(prospectiveBuyer, discountRate), string(abi.encodePacked(\r... */\n      swap1\n      tag_216\n      jumpi\n      mload(0x40)\n      0x08c379a000000000000000000000000000000000000000000000000000000000\n      dup2\n      mstore\n      0x04\n      add\n      tag_217\n      swap2\n      swap1\n      tag_218\n      jump\t// in\n    tag_217:\n      mload(0x40)\n      dup1\n      swap2\n      sub\n      swap1\n      revert\n    tag_216:\n      pop\n        /* \"contracts/Founding Citizens NFT Sale.sol\":6467:6477  uint price */\n      0x00\n        /* \"contracts/Founding Citizens NFT Sale.sol\":6512:6524  discountRate */\n      dup3\n        /* \"contracts/Founding Citizens NFT Sale.sol\":6506:6509  100 */\n      0x64\n        /* \"contracts/Founding Citizens NFT Sale.sol\":6506:6524  100 - discountRate */\n      tag_219\n      swap2\n      swap1\n      tag_179\n      jump\t// in\n    tag_219:\n        /* \"contracts/Founding Citizens NFT Sale.sol\":6499:6502  100 */\n      0x64\n        /* \"contracts/Founding Citizens NFT Sale.sol\":6480:6490  lastUpdate */\n      0x09\n        /* \"contracts/Founding Citizens NFT Sale.sol\":6480:6496  lastUpdate.price */\n      0x00\n      add\n      sload\n        /* \"contracts/Founding Citizens NFT Sale.sol\":6480:6502  lastUpdate.price / 100 */\n      tag_220\n      swap2\n      swap1\n      tag_221\n      jump\t// in\n    tag_220:\n        /* \"contracts/Founding Citizens NFT Sale.sol\":6480:6525  lastUpdate.price / 100 * (100 - discountRate) */\n      tag_222\n      swap2\n      swap1\n      tag_223\n      jump\t// in\n    tag_222:\n        /* \"contracts/Founding Citizens NFT Sale.sol\":6467:6525  uint price = lastUpdate.price / 100 * (100 - discountRate) */\n      swap1\n      pop\n        /* \"contracts/Founding Citizens NFT Sale.sol\":6543:6548  price */\n      dup1\n        /* \"contracts/Founding Citizens NFT Sale.sol\":6536:6548  return price */\n      swap2\n      pop\n      pop\n        /* \"contracts/Founding Citizens NFT Sale.sol\":6106:6556  function calculateCustomPrice(address prospectiveBuyer, uint discountRate) \r... */\n      swap3\n      swap2\n      pop\n      pop\n      jump\t// out\n        /* \"contracts/Founding Citizens NFT Sale.sol\":6946:7091  function buyNFT() public pushesUpdate { //requires using existing balance\r... */\n    tag_102:\n        /* \"contracts/Founding Citizens NFT Sale.sol\":3870:3883  updateState() */\n      tag_225\n        /* \"contracts/Founding Citizens NFT Sale.sol\":3870:3881  updateState */\n      tag_154\n        /* \"contracts/Founding Citizens NFT Sale.sol\":3870:3883  updateState() */\n      jump\t// in\n    tag_225:\n        /* \"contracts/Founding Citizens NFT Sale.sol\":7029:7039  uint price */\n      0x00\n        /* \"contracts/Founding Citizens NFT Sale.sol\":7042:7052  lastUpdate */\n      0x09\n        /* \"contracts/Founding Citizens NFT Sale.sol\":7042:7058  lastUpdate.price */\n      0x00\n      add\n      sload\n        /* \"contracts/Founding Citizens NFT Sale.sol\":7029:7058  uint price = lastUpdate.price */\n      swap1\n      pop\n        /* \"contracts/Founding Citizens NFT Sale.sol\":7069:7083  _buyNFT(price) */\n      tag_227\n        /* \"contracts/Founding Citizens NFT Sale.sol\":7077:7082  price */\n      dup2\n        /* \"contracts/Founding Citizens NFT Sale.sol\":7069:7076  _buyNFT */\n      tag_158\n        /* \"contracts/Founding Citizens NFT Sale.sol\":7069:7083  _buyNFT(price) */\n      jump\t// in\n    tag_227:\n        /* \"contracts/Founding Citizens NFT Sale.sol\":3894:3895  _ */\n      pop\n        /* \"contracts/Founding Citizens NFT Sale.sol\":6946:7091  function buyNFT() public pushesUpdate { //requires using existing balance\r... */\n      jump\t// out\n        /* \"contracts/Founding Citizens NFT Sale.sol\":3623:3687  Update public lastUpdate = Update(10000, block.timestamp, false) */\n    tag_104:\n      0x09\n      dup1\n      0x00\n      add\n      sload\n      swap1\n      dup1\n      0x01\n      add\n      sload\n      swap1\n      dup1\n      0x02\n      add\n      0x00\n      swap1\n      sload\n      swap1\n      0x0100\n      exp\n      swap1\n      div\n      0xff\n      and\n      swap1\n      pop\n      dup4\n      jump\t// out\n        /* \"contracts/Founding Citizens NFT Sale.sol\":2926:2971  IUsdcStorage public usdcEscrowStorageContract */\n    tag_108:\n      0x03\n      0x00\n      swap1\n      sload\n      swap1\n      0x0100\n      exp\n      swap1\n      div\n      0xffffffffffffffffffffffffffffffffffffffff\n      and\n      dup2\n      jump\t// out\n        /* \"contracts/Founding Citizens NFT Sale.sol\":2978:3008  address public treasuryAddress */\n    tag_112:\n      0x04\n      0x00\n      swap1\n      sload\n      swap1\n      0x0100\n      exp\n      swap1\n      div\n      0xffffffffffffffffffffffffffffffffffffffff\n      and\n      dup2\n      jump\t// out\n        /* \"contracts/Founding Citizens NFT Sale.sol\":5824:6098  function setEndTime(uint unixTime) public {\r... */\n    tag_117:\n        /* \"contracts/Founding Citizens NFT Sale.sol\":5899:5939  hasRole(SALE_MANAGER_ROLE, _msgSender()) */\n      tag_229\n        /* \"contracts/Founding Citizens NFT Sale.sol\":3140:3170  keccak256(\"SALE_MANAGER_ROLE\") */\n      0x988301af8238f779281a300de031815cd01b48e9f1ae47a0f91ed6584213624a\n        /* \"contracts/Founding Citizens NFT Sale.sol\":5926:5938  _msgSender() */\n      tag_230\n        /* \"contracts/Founding Citizens NFT Sale.sol\":5926:5936  _msgSender */\n      tag_134\n        /* \"contracts/Founding Citizens NFT Sale.sol\":5926:5938  _msgSender() */\n      jump\t// in\n    tag_230:\n        /* \"contracts/Founding Citizens NFT Sale.sol\":5899:5906  hasRole */\n      tag_84\n        /* \"contracts/Founding Citizens NFT Sale.sol\":5899:5939  hasRole(SALE_MANAGER_ROLE, _msgSender()) */\n      jump\t// in\n    tag_229:\n        /* \"contracts/Founding Citizens NFT Sale.sol\":5899:5998  hasRole(SALE_MANAGER_ROLE, _msgSender()) || \r... */\n      dup1\n      tag_231\n      jumpi\n      pop\n        /* \"contracts/Founding Citizens NFT Sale.sol\":5957:5998  hasRole(DEFAULT_ADMIN_ROLE, _msgSender()) */\n      tag_232\n        /* \"@openzeppelin/contracts@4.4.2/access/AccessControl.sol\":2057:2061  0x00 */\n      0x00\n        /* \"contracts/Founding Citizens NFT Sale.sol\":5965:5983  DEFAULT_ADMIN_ROLE */\n      dup1\n      shl\n        /* \"contracts/Founding Citizens NFT Sale.sol\":5985:5997  _msgSender() */\n      tag_233\n        /* \"contracts/Founding Citizens NFT Sale.sol\":5985:5995  _msgSender */\n      tag_134\n        /* \"contracts/Founding Citizens NFT Sale.sol\":5985:5997  _msgSender() */\n      jump\t// in\n    tag_233:\n        /* \"contracts/Founding Citizens NFT Sale.sol\":5957:5964  hasRole */\n      tag_84\n        /* \"contracts/Founding Citizens NFT Sale.sol\":5957:5998  hasRole(DEFAULT_ADMIN_ROLE, _msgSender()) */\n      jump\t// in\n    tag_232:\n        /* \"contracts/Founding Citizens NFT Sale.sol\":5899:5998  hasRole(SALE_MANAGER_ROLE, _msgSender()) || \r... */\n    tag_231:\n        /* \"contracts/Founding Citizens NFT Sale.sol\":5877:6061  require(\r... */\n      tag_234\n      jumpi\n      mload(0x40)\n      0x08c379a000000000000000000000000000000000000000000000000000000000\n      dup2\n      mstore\n      0x04\n      add\n      tag_235\n      swap1\n      tag_198\n      jump\t// in\n    tag_235:\n      mload(0x40)\n      dup1\n      swap2\n      sub\n      swap1\n      revert\n    tag_234:\n        /* \"contracts/Founding Citizens NFT Sale.sol\":6082:6090  unixTime */\n      dup1\n        /* \"contracts/Founding Citizens NFT Sale.sol\":6072:6079  endTime */\n      0x06\n        /* \"contracts/Founding Citizens NFT Sale.sol\":6072:6090  endTime = unixTime */\n      dup2\n      swap1\n      sstore\n      pop\n        /* \"contracts/Founding Citizens NFT Sale.sol\":5824:6098  function setEndTime(uint unixTime) public {\r... */\n      pop\n      jump\t// out\n        /* \"@openzeppelin/contracts@4.4.2/access/AccessControl.sol\":4727:4874  function revokeRole(bytes32 role, address account) public virtual override onlyRole(getRoleAdmin(role)) {... */\n    tag_120:\n        /* \"@openzeppelin/contracts@4.4.2/access/AccessControl.sol\":4811:4829  getRoleAdmin(role) */\n      tag_236\n        /* \"@openzeppelin/contracts@4.4.2/access/AccessControl.sol\":4824:4828  role */\n      dup3\n        /* \"@openzeppelin/contracts@4.4.2/access/AccessControl.sol\":4811:4823  getRoleAdmin */\n      tag_41\n        /* \"@openzeppelin/contracts@4.4.2/access/AccessControl.sol\":4811:4829  getRoleAdmin(role) */\n      jump\t// in\n    tag_236:\n        /* \"@openzeppelin/contracts@4.4.2/access/AccessControl.sol\":2490:2520  _checkRole(role, _msgSender()) */\n      tag_238\n        /* \"@openzeppelin/contracts@4.4.2/access/AccessControl.sol\":2501:2505  role */\n      dup2\n        /* \"@openzeppelin/contracts@4.4.2/access/AccessControl.sol\":2507:2519  _msgSender() */\n      tag_239\n        /* \"@openzeppelin/contracts@4.4.2/access/AccessControl.sol\":2507:2517  _msgSender */\n      tag_134\n        /* \"@openzeppelin/contracts@4.4.2/access/AccessControl.sol\":2507:2519  _msgSender() */\n      jump\t// in\n    tag_239:\n        /* \"@openzeppelin/contracts@4.4.2/access/AccessControl.sol\":2490:2500  _checkRole */\n      tag_135\n        /* \"@openzeppelin/contracts@4.4.2/access/AccessControl.sol\":2490:2520  _checkRole(role, _msgSender()) */\n      jump\t// in\n    tag_238:\n        /* \"@openzeppelin/contracts@4.4.2/access/AccessControl.sol\":4841:4867  _revokeRole(role, account) */\n      tag_241\n        /* \"@openzeppelin/contracts@4.4.2/access/AccessControl.sol\":4853:4857  role */\n      dup4\n        /* \"@openzeppelin/contracts@4.4.2/access/AccessControl.sol\":4859:4866  account */\n      dup4\n        /* \"@openzeppelin/contracts@4.4.2/access/AccessControl.sol\":4841:4852  _revokeRole */\n      tag_145\n        /* \"@openzeppelin/contracts@4.4.2/access/AccessControl.sol\":4841:4867  _revokeRole(role, account) */\n      jump\t// in\n    tag_241:\n        /* \"@openzeppelin/contracts@4.4.2/access/AccessControl.sol\":4727:4874  function revokeRole(bytes32 role, address account) public virtual override onlyRole(getRoleAdmin(role)) {... */\n      pop\n      pop\n      pop\n      jump\t// out\n        /* \"contracts/Founding Citizens NFT Sale.sol\":4902:5248  function preLoadURIs(uint[] memory ids, string[] memory uris) \r... */\n    tag_124:\n        /* \"contracts/Founding Citizens NFT Sale.sol\":5010:5049  hasRole(URI_MANAGER_ROLE, _msgSender()) */\n      tag_243\n        /* \"contracts/Founding Citizens NFT Sale.sol\":3060:3089  keccak256(\"URI_MANAGER_ROLE\") */\n      0xa70a2d8710fed9f014c8c2af50c7c2f6b25748ae4cded822e03b7beed44cf3a8\n        /* \"contracts/Founding Citizens NFT Sale.sol\":5036:5048  _msgSender() */\n      tag_244\n        /* \"contracts/Founding Citizens NFT Sale.sol\":5036:5046  _msgSender */\n      tag_134\n        /* \"contracts/Founding Citizens NFT Sale.sol\":5036:5048  _msgSender() */\n      jump\t// in\n    tag_244:\n        /* \"contracts/Founding Citizens NFT Sale.sol\":5010:5017  hasRole */\n      tag_84\n        /* \"contracts/Founding Citizens NFT Sale.sol\":5010:5049  hasRole(URI_MANAGER_ROLE, _msgSender()) */\n      jump\t// in\n    tag_243:\n        /* \"contracts/Founding Citizens NFT Sale.sol\":5010:5108  hasRole(URI_MANAGER_ROLE, _msgSender()) || \r... */\n      dup1\n      tag_245\n      jumpi\n      pop\n        /* \"contracts/Founding Citizens NFT Sale.sol\":5067:5108  hasRole(DEFAULT_ADMIN_ROLE, _msgSender()) */\n      tag_246\n        /* \"@openzeppelin/contracts@4.4.2/access/AccessControl.sol\":2057:2061  0x00 */\n      0x00\n        /* \"contracts/Founding Citizens NFT Sale.sol\":5075:5093  DEFAULT_ADMIN_ROLE */\n      dup1\n      shl\n        /* \"contracts/Founding Citizens NFT Sale.sol\":5095:5107  _msgSender() */\n      tag_247\n        /* \"contracts/Founding Citizens NFT Sale.sol\":5095:5105  _msgSender */\n      tag_134\n        /* \"contracts/Founding Citizens NFT Sale.sol\":5095:5107  _msgSender() */\n      jump\t// in\n    tag_247:\n        /* \"contracts/Founding Citizens NFT Sale.sol\":5067:5074  hasRole */\n      tag_84\n        /* \"contracts/Founding Citizens NFT Sale.sol\":5067:5108  hasRole(DEFAULT_ADMIN_ROLE, _msgSender()) */\n      jump\t// in\n    tag_246:\n        /* \"contracts/Founding Citizens NFT Sale.sol\":5010:5108  hasRole(URI_MANAGER_ROLE, _msgSender()) || \r... */\n    tag_245:\n        /* \"contracts/Founding Citizens NFT Sale.sol\":4988:5170  require(\r... */\n      tag_248\n      jumpi\n      mload(0x40)\n      0x08c379a000000000000000000000000000000000000000000000000000000000\n      dup2\n      mstore\n      0x04\n      add\n      tag_249\n      swap1\n      tag_250\n      jump\t// in\n    tag_249:\n      mload(0x40)\n      dup1\n      swap2\n      sub\n      swap1\n      revert\n    tag_248:\n        /* \"contracts/Founding Citizens NFT Sale.sol\":5194:5216  ERC1155storageContract */\n      0x01\n      0x00\n      swap1\n      sload\n      swap1\n      0x0100\n      exp\n      swap1\n      div\n      0xffffffffffffffffffffffffffffffffffffffff\n      and\n        /* \"contracts/Founding Citizens NFT Sale.sol\":5181:5229  IMintStorage(ERC1155storageContract).preLoadURIs */\n      0xffffffffffffffffffffffffffffffffffffffff\n      and\n      0xf121da92\n        /* \"contracts/Founding Citizens NFT Sale.sol\":5230:5233  ids */\n      dup4\n        /* \"contracts/Founding Citizens NFT Sale.sol\":5235:5239  uris */\n      dup4\n        /* \"contracts/Founding Citizens NFT Sale.sol\":5181:5240  IMintStorage(ERC1155storageContract).preLoadURIs(ids, uris) */\n      mload(0x40)\n      dup4\n      0xffffffff\n      and\n      0xe0\n      shl\n      dup2\n      mstore\n      0x04\n      add\n      tag_251\n      swap3\n      swap2\n      swap1\n      tag_252\n      jump\t// in\n    tag_251:\n      0x00\n      mload(0x40)\n      dup1\n      dup4\n      sub\n      dup2\n      0x00\n      dup8\n      dup1\n      extcodesize\n      iszero\n      dup1\n      iszero\n      tag_253\n      jumpi\n      0x00\n      dup1\n      revert\n    tag_253:\n      pop\n      gas\n      call\n      iszero\n      dup1\n      iszero\n      tag_255\n      jumpi\n      returndatasize\n      0x00\n      dup1\n      returndatacopy\n      revert(0x00, returndatasize)\n    tag_255:\n      pop\n      pop\n      pop\n      pop\n        /* \"contracts/Founding Citizens NFT Sale.sol\":4902:5248  function preLoadURIs(uint[] memory ids, string[] memory uris) \r... */\n      pop\n      pop\n      jump\t// out\n        /* \"@openzeppelin/contracts@4.4.2/utils/introspection/ERC165.sol\":829:984  function supportsInterface(bytes4 interfaceId) public view virtual override returns (bool) {... */\n    tag_128:\n        /* \"@openzeppelin/contracts@4.4.2/utils/introspection/ERC165.sol\":914:918  bool */\n      0x00\n        /* \"@openzeppelin/contracts@4.4.2/utils/introspection/ERC165.sol\":952:977  type(IERC165).interfaceId */\n      0x01ffc9a700000000000000000000000000000000000000000000000000000000\n        /* \"@openzeppelin/contracts@4.4.2/utils/introspection/ERC165.sol\":937:977  interfaceId == type(IERC165).interfaceId */\n      not(0xffffffffffffffffffffffffffffffffffffffffffffffffffffffff)\n      and\n        /* \"@openzeppelin/contracts@4.4.2/utils/introspection/ERC165.sol\":937:948  interfaceId */\n      dup3\n        /* \"@openzeppelin/contracts@4.4.2/utils/introspection/ERC165.sol\":937:977  interfaceId == type(IERC165).interfaceId */\n      not(0xffffffffffffffffffffffffffffffffffffffffffffffffffffffff)\n      and\n      eq\n        /* \"@openzeppelin/contracts@4.4.2/utils/introspection/ERC165.sol\":930:977  return interfaceId == type(IERC165).interfaceId */\n      swap1\n      pop\n        /* \"@openzeppelin/contracts@4.4.2/utils/introspection/ERC165.sol\":829:984  function supportsInterface(bytes4 interfaceId) public view virtual override returns (bool) {... */\n      swap2\n      swap1\n      pop\n      jump\t// out\n        /* \"@openzeppelin/contracts@4.4.2/utils/Context.sol\":640:736  function _msgSender() internal view virtual returns (address) {... */\n    tag_134:\n        /* \"@openzeppelin/contracts@4.4.2/utils/Context.sol\":693:700  address */\n      0x00\n        /* \"@openzeppelin/contracts@4.4.2/utils/Context.sol\":719:729  msg.sender */\n      caller\n        /* \"@openzeppelin/contracts@4.4.2/utils/Context.sol\":712:729  return msg.sender */\n      swap1\n      pop\n        /* \"@openzeppelin/contracts@4.4.2/utils/Context.sol\":640:736  function _msgSender() internal view virtual returns (address) {... */\n      swap1\n      jump\t// out\n        /* \"@openzeppelin/contracts@4.4.2/access/AccessControl.sol\":3312:3796  function _checkRole(bytes32 role, address account) internal view {... */\n    tag_135:\n        /* \"@openzeppelin/contracts@4.4.2/access/AccessControl.sol\":3392:3414  hasRole(role, account) */\n      tag_259\n        /* \"@openzeppelin/contracts@4.4.2/access/AccessControl.sol\":3400:3404  role */\n      dup3\n        /* \"@openzeppelin/contracts@4.4.2/access/AccessControl.sol\":3406:3413  account */\n      dup3\n        /* \"@openzeppelin/contracts@4.4.2/access/AccessControl.sol\":3392:3399  hasRole */\n      tag_84\n        /* \"@openzeppelin/contracts@4.4.2/access/AccessControl.sol\":3392:3414  hasRole(role, account) */\n      jump\t// in\n    tag_259:\n        /* \"@openzeppelin/contracts@4.4.2/access/AccessControl.sol\":3387:3790  if (!hasRole(role, account)) {... */\n      tag_260\n      jumpi\n        /* \"@openzeppelin/contracts@4.4.2/access/AccessControl.sol\":3575:3616  Strings.toHexString(uint160(account), 20) */\n      tag_261\n        /* \"@openzeppelin/contracts@4.4.2/access/AccessControl.sol\":3603:3610  account */\n      dup2\n        /* \"@openzeppelin/contracts@4.4.2/access/AccessControl.sol\":3575:3616  Strings.toHexString(uint160(account), 20) */\n      0xffffffffffffffffffffffffffffffffffffffff\n      and\n        /* \"@openzeppelin/contracts@4.4.2/access/AccessControl.sol\":3613:3615  20 */\n      0x14\n        /* \"@openzeppelin/contracts@4.4.2/access/AccessControl.sol\":3575:3594  Strings.toHexString */\n      tag_262\n        /* \"@openzeppelin/contracts@4.4.2/access/AccessControl.sol\":3575:3616  Strings.toHexString(uint160(account), 20) */\n      jump\t// in\n    tag_261:\n        /* \"@openzeppelin/contracts@4.4.2/access/AccessControl.sol\":3687:3725  Strings.toHexString(uint256(role), 32) */\n      tag_263\n        /* \"@openzeppelin/contracts@4.4.2/access/AccessControl.sol\":3715:3719  role */\n      dup4\n        /* \"@openzeppelin/contracts@4.4.2/access/AccessControl.sol\":3707:3720  uint256(role) */\n      0x00\n      shr\n        /* \"@openzeppelin/contracts@4.4.2/access/AccessControl.sol\":3722:3724  32 */\n      0x20\n        /* \"@openzeppelin/contracts@4.4.2/access/AccessControl.sol\":3687:3706  Strings.toHexString */\n      tag_262\n        /* \"@openzeppelin/contracts@4.4.2/access/AccessControl.sol\":3687:3725  Strings.toHexString(uint256(role), 32) */\n      jump\t// in\n    tag_263:\n        /* \"@openzeppelin/contracts@4.4.2/access/AccessControl.sol\":3482:3747  abi.encodePacked(... */\n      add(0x20, mload(0x40))\n      tag_264\n      swap3\n      swap2\n      swap1\n      tag_265\n      jump\t// in\n    tag_264:\n      mload(0x40)\n      0x20\n      dup2\n      dup4\n      sub\n      sub\n      dup2\n      mstore\n      swap1\n      0x40\n      mstore\n        /* \"@openzeppelin/contracts@4.4.2/access/AccessControl.sol\":3430:3779  revert(... */\n      mload(0x40)\n      0x08c379a000000000000000000000000000000000000000000000000000000000\n      dup2\n      mstore\n      0x04\n      add\n      tag_266\n      swap2\n      swap1\n      tag_218\n      jump\t// in\n    tag_266:\n      mload(0x40)\n      dup1\n      swap2\n      sub\n      swap1\n      revert\n        /* \"@openzeppelin/contracts@4.4.2/access/AccessControl.sol\":3387:3790  if (!hasRole(role, account)) {... */\n    tag_260:\n        /* \"@openzeppelin/contracts@4.4.2/access/AccessControl.sol\":3312:3796  function _checkRole(bytes32 role, address account) internal view {... */\n      pop\n      pop\n      jump\t// out\n        /* \"@openzeppelin/contracts@4.4.2/access/AccessControl.sol\":6822:7055  function _grantRole(bytes32 role, address account) internal virtual {... */\n    tag_138:\n        /* \"@openzeppelin/contracts@4.4.2/access/AccessControl.sol\":6905:6927  hasRole(role, account) */\n      tag_268\n        /* \"@openzeppelin/contracts@4.4.2/access/AccessControl.sol\":6913:6917  role */\n      dup3\n        /* \"@openzeppelin/contracts@4.4.2/access/AccessControl.sol\":6919:6926  account */\n      dup3\n        /* \"@openzeppelin/contracts@4.4.2/access/AccessControl.sol\":6905:6912  hasRole */\n      tag_84\n        /* \"@openzeppelin/contracts@4.4.2/access/AccessControl.sol\":6905:6927  hasRole(role, account) */\n      jump\t// in\n    tag_268:\n        /* \"@openzeppelin/contracts@4.4.2/access/AccessControl.sol\":6900:7049  if (!hasRole(role, account)) {... */\n      tag_269\n      jumpi\n        /* \"@openzeppelin/contracts@4.4.2/access/AccessControl.sol\":6975:6979  true */\n      0x01\n        /* \"@openzeppelin/contracts@4.4.2/access/AccessControl.sol\":6943:6949  _roles */\n      0x00\n        /* \"@openzeppelin/contracts@4.4.2/access/AccessControl.sol\":6943:6955  _roles[role] */\n      dup1\n        /* \"@openzeppelin/contracts@4.4.2/access/AccessControl.sol\":6950:6954  role */\n      dup5\n        /* \"@openzeppelin/contracts@4.4.2/access/AccessControl.sol\":6943:6955  _roles[role] */\n      dup2\n      mstore\n      0x20\n      add\n      swap1\n      dup2\n      mstore\n      0x20\n      add\n      0x00\n      keccak256\n        /* \"@openzeppelin/contracts@4.4.2/access/AccessControl.sol\":6943:6963  _roles[role].members */\n      0x00\n      add\n        /* \"@openzeppelin/contracts@4.4.2/access/AccessControl.sol\":6943:6972  _roles[role].members[account] */\n      0x00\n        /* \"@openzeppelin/contracts@4.4.2/access/AccessControl.sol\":6964:6971  account */\n      dup4\n        /* \"@openzeppelin/contracts@4.4.2/access/AccessControl.sol\":6943:6972  _roles[role].members[account] */\n      0xffffffffffffffffffffffffffffffffffffffff\n      and\n      0xffffffffffffffffffffffffffffffffffffffff\n      and\n      dup2\n      mstore\n      0x20\n      add\n      swap1\n      dup2\n      mstore\n      0x20\n      add\n      0x00\n      keccak256\n      0x00\n        /* \"@openzeppelin/contracts@4.4.2/access/AccessControl.sol\":6943:6979  _roles[role].members[account] = true */\n      0x0100\n      exp\n      dup2\n      sload\n      dup2\n      0xff\n      mul\n      not\n      and\n      swap1\n      dup4\n      iszero\n      iszero\n      mul\n      or\n      swap1\n      sstore\n      pop\n        /* \"@openzeppelin/contracts@4.4.2/access/AccessControl.sol\":7025:7037  _msgSender() */\n      tag_270\n        /* \"@openzeppelin/contracts@4.4.2/access/AccessControl.sol\":7025:7035  _msgSender */\n      tag_134\n        /* \"@openzeppelin/contracts@4.4.2/access/AccessControl.sol\":7025:7037  _msgSender() */\n      jump\t// in\n    tag_270:\n        /* \"@openzeppelin/contracts@4.4.2/access/AccessControl.sol\":6998:7038  RoleGranted(role, account, _msgSender()) */\n      0xffffffffffffffffffffffffffffffffffffffff\n      and\n        /* \"@openzeppelin/contracts@4.4.2/access/AccessControl.sol\":7016:7023  account */\n      dup2\n        /* \"@openzeppelin/contracts@4.4.2/access/AccessControl.sol\":6998:7038  RoleGranted(role, account, _msgSender()) */\n      0xffffffffffffffffffffffffffffffffffffffff\n      and\n        /* \"@openzeppelin/contracts@4.4.2/access/AccessControl.sol\":7010:7014  role */\n      dup4\n        /* \"@openzeppelin/contracts@4.4.2/access/AccessControl.sol\":6998:7038  RoleGranted(role, account, _msgSender()) */\n      0x2f8788117e7eff1d82e926ec794901d17c78024a50270940304540a733656f0d\n      mload(0x40)\n      mload(0x40)\n      dup1\n      swap2\n      sub\n      swap1\n      log4\n        /* \"@openzeppelin/contracts@4.4.2/access/AccessControl.sol\":6900:7049  if (!hasRole(role, account)) {... */\n    tag_269:\n        /* \"@openzeppelin/contracts@4.4.2/access/AccessControl.sol\":6822:7055  function _grantRole(bytes32 role, address account) internal virtual {... */\n      pop\n      pop\n      jump\t// out\n        /* \"@openzeppelin/contracts@4.4.2/access/AccessControl.sol\":7180:7414  function _revokeRole(bytes32 role, address account) internal virtual {... */\n    tag_145:\n        /* \"@openzeppelin/contracts@4.4.2/access/AccessControl.sol\":7263:7285  hasRole(role, account) */\n      tag_272\n        /* \"@openzeppelin/contracts@4.4.2/access/AccessControl.sol\":7271:7275  role */\n      dup3\n        /* \"@openzeppelin/contracts@4.4.2/access/AccessControl.sol\":7277:7284  account */\n      dup3\n        /* \"@openzeppelin/contracts@4.4.2/access/AccessControl.sol\":7263:7270  hasRole */\n      tag_84\n        /* \"@openzeppelin/contracts@4.4.2/access/AccessControl.sol\":7263:7285  hasRole(role, account) */\n      jump\t// in\n    tag_272:\n        /* \"@openzeppelin/contracts@4.4.2/access/AccessControl.sol\":7259:7408  if (hasRole(role, account)) {... */\n      iszero\n      tag_273\n      jumpi\n        /* \"@openzeppelin/contracts@4.4.2/access/AccessControl.sol\":7333:7338  false */\n      0x00\n        /* \"@openzeppelin/contracts@4.4.2/access/AccessControl.sol\":7301:7307  _roles */\n      dup1\n        /* \"@openzeppelin/contracts@4.4.2/access/AccessControl.sol\":7301:7313  _roles[role] */\n      0x00\n        /* \"@openzeppelin/contracts@4.4.2/access/AccessControl.sol\":7308:7312  role */\n      dup5\n        /* \"@openzeppelin/contracts@4.4.2/access/AccessControl.sol\":7301:7313  _roles[role] */\n      dup2\n      mstore\n      0x20\n      add\n      swap1\n      dup2\n      mstore\n      0x20\n      add\n      0x00\n      keccak256\n        /* \"@openzeppelin/contracts@4.4.2/access/AccessControl.sol\":7301:7321  _roles[role].members */\n      0x00\n      add\n        /* \"@openzeppelin/contracts@4.4.2/access/AccessControl.sol\":7301:7330  _roles[role].members[account] */\n      0x00\n        /* \"@openzeppelin/contracts@4.4.2/access/AccessControl.sol\":7322:7329  account */\n      dup4\n        /* \"@openzeppelin/contracts@4.4.2/access/AccessControl.sol\":7301:7330  _roles[role].members[account] */\n      0xffffffffffffffffffffffffffffffffffffffff\n      and\n      0xffffffffffffffffffffffffffffffffffffffff\n      and\n      dup2\n      mstore\n      0x20\n      add\n      swap1\n      dup2\n      mstore\n      0x20\n      add\n      0x00\n      keccak256\n      0x00\n        /* \"@openzeppelin/contracts@4.4.2/access/AccessControl.sol\":7301:7338  _roles[role].members[account] = false */\n      0x0100\n      exp\n      dup2\n      sload\n      dup2\n      0xff\n      mul\n      not\n      and\n      swap1\n      dup4\n      iszero\n      iszero\n      mul\n      or\n      swap1\n      sstore\n      pop\n        /* \"@openzeppelin/contracts@4.4.2/access/AccessControl.sol\":7384:7396  _msgSender() */\n      tag_274\n        /* \"@openzeppelin/contracts@4.4.2/access/AccessControl.sol\":7384:7394  _msgSender */\n      tag_134\n        /* \"@openzeppelin/contracts@4.4.2/access/AccessControl.sol\":7384:7396  _msgSender() */\n      jump\t// in\n    tag_274:\n        /* \"@openzeppelin/contracts@4.4.2/access/AccessControl.sol\":7357:7397  RoleRevoked(role, account, _msgSender()) */\n      0xffffffffffffffffffffffffffffffffffffffff\n      and\n        /* \"@openzeppelin/contracts@4.4.2/access/AccessControl.sol\":7375:7382  account */\n      dup2\n        /* \"@openzeppelin/contracts@4.4.2/access/AccessControl.sol\":7357:7397  RoleRevoked(role, account, _msgSender()) */\n      0xffffffffffffffffffffffffffffffffffffffff\n      and\n        /* \"@openzeppelin/contracts@4.4.2/access/AccessControl.sol\":7369:7373  role */\n      dup4\n        /* \"@openzeppelin/contracts@4.4.2/access/AccessControl.sol\":7357:7397  RoleRevoked(role, account, _msgSender()) */\n      0xf6391f5c32d9c69d2a47ea670b442974b53935d1edc7fd64eb21e047a839171b\n      mload(0x40)\n      mload(0x40)\n      dup1\n      swap2\n      sub\n      swap1\n      log4\n        /* \"@openzeppelin/contracts@4.4.2/access/AccessControl.sol\":7259:7408  if (hasRole(role, account)) {... */\n    tag_273:\n        /* \"@openzeppelin/contracts@4.4.2/access/AccessControl.sol\":7180:7414  function _revokeRole(bytes32 role, address account) internal virtual {... */\n      pop\n      pop\n      jump\t// out\n        /* \"contracts/Founding Citizens NFT Sale.sol\":4089:4580  function updateState() internal requiresConsistentState {\r... */\n    tag_154:\n        /* \"contracts/Founding Citizens NFT Sale.sol\":3978:3985  endTime */\n      sload(0x06)\n        /* \"contracts/Founding Citizens NFT Sale.sol\":3965:3974  startTime */\n      sload(0x05)\n        /* \"contracts/Founding Citizens NFT Sale.sol\":3965:3985  startTime <= endTime */\n      gt\n      iszero\n        /* \"contracts/Founding Citizens NFT Sale.sol\":3957:4021  require(startTime <= endTime, \"startTime is later than endTime\") */\n      tag_276\n      jumpi\n      mload(0x40)\n      0x08c379a000000000000000000000000000000000000000000000000000000000\n      dup2\n      mstore\n      0x04\n      add\n      tag_277\n      swap1\n      tag_278\n      jump\t// in\n    tag_277:\n      mload(0x40)\n      dup1\n      swap2\n      sub\n      swap1\n      revert\n    tag_276:\n        /* \"contracts/Founding Citizens NFT Sale.sol\":3357:3362  10**6 */\n      0x0f4240\n        /* \"contracts/Founding Citizens NFT Sale.sol\":3510:3511  1 */\n      0x01\n        /* \"contracts/Founding Citizens NFT Sale.sol\":3510:3519  1 * units */\n      tag_280\n      swap2\n      swap1\n      tag_223\n      jump\t// in\n    tag_280:\n        /* \"contracts/Founding Citizens NFT Sale.sol\":4245:4247  60 */\n      0x3c\n        /* \"contracts/Founding Citizens NFT Sale.sol\":4232:4241  startTime */\n      sload(0x05)\n        /* \"contracts/Founding Citizens NFT Sale.sol\":4214:4229  block.timestamp */\n      timestamp\n        /* \"contracts/Founding Citizens NFT Sale.sol\":4214:4241  block.timestamp - startTime */\n      tag_281\n      swap2\n      swap1\n      tag_179\n      jump\t// in\n    tag_281:\n        /* \"contracts/Founding Citizens NFT Sale.sol\":4213:4247  (block.timestamp - startTime) / 60 */\n      tag_282\n      swap2\n      swap1\n      tag_221\n      jump\t// in\n    tag_282:\n        /* \"contracts/Founding Citizens NFT Sale.sol\":4213:4272  (block.timestamp - startTime) / 60 * priceDescresePerMinute */\n      tag_283\n      swap2\n      swap1\n      tag_223\n      jump\t// in\n    tag_283:\n        /* \"contracts/Founding Citizens NFT Sale.sol\":4199:4209  startPrice */\n      sload(0x07)\n        /* \"contracts/Founding Citizens NFT Sale.sol\":4199:4273  startPrice - ((block.timestamp - startTime) / 60 * priceDescresePerMinute) */\n      tag_284\n      swap2\n      swap1\n      tag_179\n      jump\t// in\n    tag_284:\n        /* \"contracts/Founding Citizens NFT Sale.sol\":4180:4190  lastUpdate */\n      0x09\n        /* \"contracts/Founding Citizens NFT Sale.sol\":4180:4196  lastUpdate.price */\n      0x00\n      add\n        /* \"contracts/Founding Citizens NFT Sale.sol\":4180:4273  lastUpdate.price = startPrice - ((block.timestamp - startTime) / 60 * priceDescresePerMinute) */\n      dup2\n      swap1\n      sstore\n      pop\n        /* \"contracts/Founding Citizens NFT Sale.sol\":4327:4342  block.timestamp */\n      timestamp\n        /* \"contracts/Founding Citizens NFT Sale.sol\":4309:4319  lastUpdate */\n      0x09\n        /* \"contracts/Founding Citizens NFT Sale.sol\":4309:4324  lastUpdate.time */\n      0x01\n      add\n        /* \"contracts/Founding Citizens NFT Sale.sol\":4309:4342  lastUpdate.time = block.timestamp */\n      dup2\n      swap1\n      sstore\n      pop\n        /* \"contracts/Founding Citizens NFT Sale.sol\":4415:4424  startTime */\n      sload(0x05)\n        /* \"contracts/Founding Citizens NFT Sale.sol\":4396:4411  block.timestamp */\n      timestamp\n        /* \"contracts/Founding Citizens NFT Sale.sol\":4396:4424  block.timestamp >= startTime */\n      lt\n      iszero\n        /* \"contracts/Founding Citizens NFT Sale.sol\":4396:4454  block.timestamp >= startTime && block.timestamp <= endTime */\n      dup1\n      iszero\n      tag_285\n      jumpi\n      pop\n        /* \"contracts/Founding Citizens NFT Sale.sol\":4447:4454  endTime */\n      sload(0x06)\n        /* \"contracts/Founding Citizens NFT Sale.sol\":4428:4443  block.timestamp */\n      timestamp\n        /* \"contracts/Founding Citizens NFT Sale.sol\":4428:4454  block.timestamp <= endTime */\n      gt\n      iszero\n        /* \"contracts/Founding Citizens NFT Sale.sol\":4396:4454  block.timestamp >= startTime && block.timestamp <= endTime */\n    tag_285:\n        /* \"contracts/Founding Citizens NFT Sale.sol\":4392:4573  if (block.timestamp >= startTime && block.timestamp <= endTime) {\r... */\n      iszero\n      tag_286\n      jumpi\n        /* \"contracts/Founding Citizens NFT Sale.sol\":4495:4499  true */\n      0x01\n        /* \"contracts/Founding Citizens NFT Sale.sol\":4471:4481  lastUpdate */\n      0x09\n        /* \"contracts/Founding Citizens NFT Sale.sol\":4471:4492  lastUpdate.saleIsLive */\n      0x02\n      add\n      0x00\n        /* \"contracts/Founding Citizens NFT Sale.sol\":4471:4499  lastUpdate.saleIsLive = true */\n      0x0100\n      exp\n      dup2\n      sload\n      dup2\n      0xff\n      mul\n      not\n      and\n      swap1\n      dup4\n      iszero\n      iszero\n      mul\n      or\n      swap1\n      sstore\n      pop\n        /* \"contracts/Founding Citizens NFT Sale.sol\":4392:4573  if (block.timestamp >= startTime && block.timestamp <= endTime) {\r... */\n      jump(tag_287)\n    tag_286:\n        /* \"contracts/Founding Citizens NFT Sale.sol\":4556:4561  false */\n      0x00\n        /* \"contracts/Founding Citizens NFT Sale.sol\":4532:4542  lastUpdate */\n      0x09\n        /* \"contracts/Founding Citizens NFT Sale.sol\":4532:4553  lastUpdate.saleIsLive */\n      0x02\n      add\n      0x00\n        /* \"contracts/Founding Citizens NFT Sale.sol\":4532:4561  lastUpdate.saleIsLive = false */\n      0x0100\n      exp\n      dup2\n      sload\n      dup2\n      0xff\n      mul\n      not\n      and\n      swap1\n      dup4\n      iszero\n      iszero\n      mul\n      or\n      swap1\n      sstore\n      pop\n        /* \"contracts/Founding Citizens NFT Sale.sol\":4392:4573  if (block.timestamp >= startTime && block.timestamp <= endTime) {\r... */\n    tag_287:\n        /* \"contracts/Founding Citizens NFT Sale.sol\":4089:4580  function updateState() internal requiresConsistentState {\r... */\n      jump\t// out\n        /* \"contracts/Founding Citizens NFT Sale.sol\":6774:6938  function _buyNFT(uint price) internal {\r... */\n    tag_158:\n        /* \"contracts/Founding Citizens NFT Sale.sol\":6823:6848  usdcEscrowStorageContract */\n      0x03\n      0x00\n      swap1\n      sload\n      swap1\n      0x0100\n      exp\n      swap1\n      div\n      0xffffffffffffffffffffffffffffffffffffffff\n      and\n        /* \"contracts/Founding Citizens NFT Sale.sol\":6823:6868  usdcEscrowStorageContract.decreaseUsdcBalance */\n      0xffffffffffffffffffffffffffffffffffffffff\n      and\n      0x532b2913\n        /* \"contracts/Founding Citizens NFT Sale.sol\":6869:6879  msg.sender */\n      caller\n        /* \"contracts/Founding Citizens NFT Sale.sol\":6881:6886  price */\n      dup4\n        /* \"contracts/Founding Citizens NFT Sale.sol\":6823:6887  usdcEscrowStorageContract.decreaseUsdcBalance(msg.sender, price) */\n      mload(0x40)\n      dup4\n      0xffffffff\n      and\n      0xe0\n      shl\n      dup2\n      mstore\n      0x04\n      add\n      tag_289\n      swap3\n      swap2\n      swap1\n      tag_208\n      jump\t// in\n    tag_289:\n      0x00\n      mload(0x40)\n      dup1\n      dup4\n      sub\n      dup2\n      0x00\n      dup8\n      dup1\n      extcodesize\n      iszero\n      dup1\n      iszero\n      tag_290\n      jumpi\n      0x00\n      dup1\n      revert\n    tag_290:\n      pop\n      gas\n      call\n      iszero\n      dup1\n      iszero\n      tag_292\n      jumpi\n      returndatasize\n      0x00\n      dup1\n      returndatacopy\n      revert(0x00, returndatasize)\n    tag_292:\n      pop\n      pop\n      pop\n      pop\n        /* \"contracts/Founding Citizens NFT Sale.sol\":6898:6930  mintNextNftToAddress(msg.sender) */\n      tag_293\n        /* \"contracts/Founding Citizens NFT Sale.sol\":6919:6929  msg.sender */\n      caller\n        /* \"contracts/Founding Citizens NFT Sale.sol\":6898:6918  mintNextNftToAddress */\n      tag_186\n        /* \"contracts/Founding Citizens NFT Sale.sol\":6898:6930  mintNextNftToAddress(msg.sender) */\n      jump\t// in\n    tag_293:\n        /* \"contracts/Founding Citizens NFT Sale.sol\":6774:6938  function _buyNFT(uint price) internal {\r... */\n      pop\n      jump\t// out\n        /* \"contracts/Founding Citizens NFT Sale.sol\":4763:4894  function mintNextNftToAddress(address to) internal {\r... */\n    tag_186:\n        /* \"contracts/Founding Citizens NFT Sale.sol\":4838:4860  ERC1155storageContract */\n      0x01\n      0x00\n      swap1\n      sload\n      swap1\n      0x0100\n      exp\n      swap1\n      div\n      0xffffffffffffffffffffffffffffffffffffffff\n      and\n        /* \"contracts/Founding Citizens NFT Sale.sol\":4825:4882  IMintStorage(ERC1155storageContract).mintNextNftToAddress */\n      0xffffffffffffffffffffffffffffffffffffffff\n      and\n      0x55676590\n        /* \"contracts/Founding Citizens NFT Sale.sol\":4883:4885  to */\n      dup3\n        /* \"contracts/Founding Citizens NFT Sale.sol\":4825:4886  IMintStorage(ERC1155storageContract).mintNextNftToAddress(to) */\n      mload(0x40)\n      dup3\n      0xffffffff\n      and\n      0xe0\n      shl\n      dup2\n      mstore\n      0x04\n      add\n      tag_295\n      swap2\n      swap1\n      tag_114\n      jump\t// in\n    tag_295:\n      0x00\n      mload(0x40)\n      dup1\n      dup4\n      sub\n      dup2\n      0x00\n      dup8\n      dup1\n      extcodesize\n      iszero\n      dup1\n      iszero\n      tag_296\n      jumpi\n      0x00\n      dup1\n      revert\n    tag_296:\n      pop\n      gas\n      call\n      iszero\n      dup1\n      iszero\n      tag_298\n      jumpi\n      returndatasize\n      0x00\n      dup1\n      returndatacopy\n      revert(0x00, returndatasize)\n    tag_298:\n      pop\n      pop\n      pop\n      pop\n        /* \"contracts/Founding Citizens NFT Sale.sol\":4763:4894  function mintNextNftToAddress(address to) internal {\r... */\n      pop\n      jump\t// out\n        /* \"@openzeppelin/contracts@4.4.2/utils/Strings.sol\":1588:2029  function toHexString(uint256 value, uint256 length) internal pure returns (string memory) {... */\n    tag_262:\n        /* \"@openzeppelin/contracts@4.4.2/utils/Strings.sol\":1663:1676  string memory */\n      0x60\n        /* \"@openzeppelin/contracts@4.4.2/utils/Strings.sol\":1688:1707  bytes memory buffer */\n      0x00\n        /* \"@openzeppelin/contracts@4.4.2/utils/Strings.sol\":1733:1734  2 */\n      0x02\n        /* \"@openzeppelin/contracts@4.4.2/utils/Strings.sol\":1724:1730  length */\n      dup4\n        /* \"@openzeppelin/contracts@4.4.2/utils/Strings.sol\":1720:1721  2 */\n      0x02\n        /* \"@openzeppelin/contracts@4.4.2/utils/Strings.sol\":1720:1730  2 * length */\n      tag_300\n      swap2\n      swap1\n      tag_223\n      jump\t// in\n    tag_300:\n        /* \"@openzeppelin/contracts@4.4.2/utils/Strings.sol\":1720:1734  2 * length + 2 */\n      tag_301\n      swap2\n      swap1\n      tag_302\n      jump\t// in\n    tag_301:\n        /* \"@openzeppelin/contracts@4.4.2/utils/Strings.sol\":1710:1735  new bytes(2 * length + 2) */\n      0xffffffffffffffff\n      dup2\n      gt\n      iszero\n      tag_303\n      jumpi\n      mstore(0x00, 0x4e487b7100000000000000000000000000000000000000000000000000000000)\n      mstore(0x04, 0x41)\n      revert(0x00, 0x24)\n    tag_303:\n      mload(0x40)\n      swap1\n      dup1\n      dup3\n      mstore\n      dup1\n      0x1f\n      add\n      not(0x1f)\n      and\n      0x20\n      add\n      dup3\n      add\n      0x40\n      mstore\n      dup1\n      iszero\n      tag_304\n      jumpi\n      dup2\n      0x20\n      add\n      0x01\n      dup3\n      mul\n      dup1\n      calldatasize\n      dup4\n      calldatacopy\n      dup1\n      dup3\n      add\n      swap2\n      pop\n      pop\n      swap1\n      pop\n    tag_304:\n      pop\n        /* \"@openzeppelin/contracts@4.4.2/utils/Strings.sol\":1688:1735  bytes memory buffer = new bytes(2 * length + 2) */\n      swap1\n      pop\n        /* \"@openzeppelin/contracts@4.4.2/utils/Strings.sol\":1745:1760  buffer[0] = \"0\" */\n      0x3000000000000000000000000000000000000000000000000000000000000000\n        /* \"@openzeppelin/contracts@4.4.2/utils/Strings.sol\":1745:1751  buffer */\n      dup2\n        /* \"@openzeppelin/contracts@4.4.2/utils/Strings.sol\":1752:1753  0 */\n      0x00\n        /* \"@openzeppelin/contracts@4.4.2/utils/Strings.sol\":1745:1754  buffer[0] */\n      dup2\n      mload\n      dup2\n      lt\n      tag_305\n      jumpi\n      mstore(0x00, 0x4e487b7100000000000000000000000000000000000000000000000000000000)\n      mstore(0x04, 0x32)\n      revert(0x00, 0x24)\n    tag_305:\n      0x20\n      add\n      add\n        /* \"@openzeppelin/contracts@4.4.2/utils/Strings.sol\":1745:1760  buffer[0] = \"0\" */\n      swap1\n      not(0xffffffffffffffffffffffffffffffffffffffffffffffffffffffffffffff)\n      and\n      swap1\n      dup2\n      0x00\n      byte\n      swap1\n      mstore8\n      pop\n        /* \"@openzeppelin/contracts@4.4.2/utils/Strings.sol\":1770:1785  buffer[1] = \"x\" */\n      0x7800000000000000000000000000000000000000000000000000000000000000\n        /* \"@openzeppelin/contracts@4.4.2/utils/Strings.sol\":1770:1776  buffer */\n      dup2\n        /* \"@openzeppelin/contracts@4.4.2/utils/Strings.sol\":1777:1778  1 */\n      0x01\n        /* \"@openzeppelin/contracts@4.4.2/utils/Strings.sol\":1770:1779  buffer[1] */\n      dup2\n      mload\n      dup2\n      lt\n      tag_306\n      jumpi\n      mstore(0x00, 0x4e487b7100000000000000000000000000000000000000000000000000000000)\n      mstore(0x04, 0x32)\n      revert(0x00, 0x24)\n    tag_306:\n      0x20\n      add\n      add\n        /* \"@openzeppelin/contracts@4.4.2/utils/Strings.sol\":1770:1785  buffer[1] = \"x\" */\n      swap1\n      not(0xffffffffffffffffffffffffffffffffffffffffffffffffffffffffffffff)\n      and\n      swap1\n      dup2\n      0x00\n      byte\n      swap1\n      mstore8\n      pop\n        /* \"@openzeppelin/contracts@4.4.2/utils/Strings.sol\":1800:1809  uint256 i */\n      0x00\n        /* \"@openzeppelin/contracts@4.4.2/utils/Strings.sol\":1825:1826  1 */\n      0x01\n        /* \"@openzeppelin/contracts@4.4.2/utils/Strings.sol\":1816:1822  length */\n      dup5\n        /* \"@openzeppelin/contracts@4.4.2/utils/Strings.sol\":1812:1813  2 */\n      0x02\n        /* \"@openzeppelin/contracts@4.4.2/utils/Strings.sol\":1812:1822  2 * length */\n      tag_310\n      swap2\n      swap1\n      tag_223\n      jump\t// in\n    tag_310:\n        /* \"@openzeppelin/contracts@4.4.2/utils/Strings.sol\":1812:1826  2 * length + 1 */\n      tag_311\n      swap2\n      swap1\n      tag_302\n      jump\t// in\n    tag_311:\n        /* \"@openzeppelin/contracts@4.4.2/utils/Strings.sol\":1800:1826  uint256 i = 2 * length + 1 */\n      swap1\n      pop\n        /* \"@openzeppelin/contracts@4.4.2/utils/Strings.sol\":1795:1927  for (uint256 i = 2 * length + 1; i > 1; --i) {... */\n    tag_307:\n        /* \"@openzeppelin/contracts@4.4.2/utils/Strings.sol\":1832:1833  1 */\n      0x01\n        /* \"@openzeppelin/contracts@4.4.2/utils/Strings.sol\":1828:1829  i */\n      dup2\n        /* \"@openzeppelin/contracts@4.4.2/utils/Strings.sol\":1828:1833  i > 1 */\n      gt\n        /* \"@openzeppelin/contracts@4.4.2/utils/Strings.sol\":1795:1927  for (uint256 i = 2 * length + 1; i > 1; --i) {... */\n      iszero\n      tag_308\n      jumpi\n        /* \"@openzeppelin/contracts@4.4.2/utils/Strings.sol\":1866:1878  _HEX_SYMBOLS */\n      0x3031323334353637383961626364656600000000000000000000000000000000\n        /* \"@openzeppelin/contracts@4.4.2/utils/Strings.sol\":1887:1890  0xf */\n      0x0f\n        /* \"@openzeppelin/contracts@4.4.2/utils/Strings.sol\":1879:1884  value */\n      dup7\n        /* \"@openzeppelin/contracts@4.4.2/utils/Strings.sol\":1879:1890  value & 0xf */\n      and\n        /* \"@openzeppelin/contracts@4.4.2/utils/Strings.sol\":1866:1891  _HEX_SYMBOLS[value & 0xf] */\n      0x10\n      dup2\n      lt\n      tag_312\n      jumpi\n      mstore(0x00, 0x4e487b7100000000000000000000000000000000000000000000000000000000)\n      mstore(0x04, 0x32)\n      revert(0x00, 0x24)\n    tag_312:\n      byte\n      0xf8\n      shl\n        /* \"@openzeppelin/contracts@4.4.2/utils/Strings.sol\":1854:1860  buffer */\n      dup3\n        /* \"@openzeppelin/contracts@4.4.2/utils/Strings.sol\":1861:1862  i */\n      dup3\n        /* \"@openzeppelin/contracts@4.4.2/utils/Strings.sol\":1854:1863  buffer[i] */\n      dup2\n      mload\n      dup2\n      lt\n      tag_313\n      jumpi\n      mstore(0x00, 0x4e487b7100000000000000000000000000000000000000000000000000000000)\n      mstore(0x04, 0x32)\n      revert(0x00, 0x24)\n    tag_313:\n      0x20\n      add\n      add\n        /* \"@openzeppelin/contracts@4.4.2/utils/Strings.sol\":1854:1891  buffer[i] = _HEX_SYMBOLS[value & 0xf] */\n      swap1\n      not(0xffffffffffffffffffffffffffffffffffffffffffffffffffffffffffffff)\n      and\n      swap1\n      dup2\n      0x00\n      byte\n      swap1\n      mstore8\n      pop\n        /* \"@openzeppelin/contracts@4.4.2/utils/Strings.sol\":1915:1916  4 */\n      0x04\n        /* \"@openzeppelin/contracts@4.4.2/utils/Strings.sol\":1905:1916  value >>= 4 */\n      dup6\n      swap1\n      shr\n      swap5\n      pop\n        /* \"@openzeppelin/contracts@4.4.2/utils/Strings.sol\":1835:1838  --i */\n      dup1\n      tag_314\n      swap1\n      tag_188\n      jump\t// in\n    tag_314:\n      swap1\n      pop\n        /* \"@openzeppelin/contracts@4.4.2/utils/Strings.sol\":1795:1927  for (uint256 i = 2 * length + 1; i > 1; --i) {... */\n      jump(tag_307)\n    tag_308:\n      pop\n        /* \"@openzeppelin/contracts@4.4.2/utils/Strings.sol\":1953:1954  0 */\n      0x00\n        /* \"@openzeppelin/contracts@4.4.2/utils/Strings.sol\":1944:1949  value */\n      dup5\n        /* \"@openzeppelin/contracts@4.4.2/utils/Strings.sol\":1944:1954  value == 0 */\n      eq\n        /* \"@openzeppelin/contracts@4.4.2/utils/Strings.sol\":1936:1991  require(value == 0, \"Strings: hex length insufficient\") */\n      tag_315\n      jumpi\n      mload(0x40)\n      0x08c379a000000000000000000000000000000000000000000000000000000000\n      dup2\n      mstore\n      0x04\n      add\n      tag_316\n      swap1\n      tag_317\n      jump\t// in\n    tag_316:\n      mload(0x40)\n      dup1\n      swap2\n      sub\n      swap1\n      revert\n    tag_315:\n        /* \"@openzeppelin/contracts@4.4.2/utils/Strings.sol\":2015:2021  buffer */\n      dup1\n        /* \"@openzeppelin/contracts@4.4.2/utils/Strings.sol\":2001:2022  return string(buffer) */\n      swap2\n      pop\n      pop\n        /* \"@openzeppelin/contracts@4.4.2/utils/Strings.sol\":1588:2029  function toHexString(uint256 value, uint256 length) internal pure returns (string memory) {... */\n      swap3\n      swap2\n      pop\n      pop\n      jump\t// out\n        /* \"#utility.yul\":23:639   */\n    tag_319:\n      0x00\n        /* \"#utility.yul\":154:245   */\n      tag_321\n        /* \"#utility.yul\":170:244   */\n      tag_322\n        /* \"#utility.yul\":237:243   */\n      dup5\n        /* \"#utility.yul\":170:244   */\n      tag_323\n      jump\t// in\n    tag_322:\n        /* \"#utility.yul\":154:245   */\n      tag_324\n      jump\t// in\n    tag_321:\n        /* \"#utility.yul\":145:245   */\n      swap1\n      pop\n        /* \"#utility.yul\":265:270   */\n      dup1\n        /* \"#utility.yul\":293:299   */\n      dup4\n        /* \"#utility.yul\":286:291   */\n      dup3\n        /* \"#utility.yul\":279:300   */\n      mstore\n        /* \"#utility.yul\":319:323   */\n      0x20\n        /* \"#utility.yul\":312:317   */\n      dup3\n        /* \"#utility.yul\":308:324   */\n      add\n        /* \"#utility.yul\":301:324   */\n      swap1\n      pop\n        /* \"#utility.yul\":344:350   */\n      dup3\n        /* \"#utility.yul\":375:376   */\n      0x00\n        /* \"#utility.yul\":360:633   */\n    tag_325:\n        /* \"#utility.yul\":385:391   */\n      dup6\n        /* \"#utility.yul\":382:383   */\n      dup2\n        /* \"#utility.yul\":379:392   */\n      lt\n        /* \"#utility.yul\":360:633   */\n      iszero\n      tag_327\n      jumpi\n        /* \"#utility.yul\":477:480   */\n      dup2\n        /* \"#utility.yul\":464:481   */\n      calldataload\n        /* \"#utility.yul\":456:462   */\n      dup6\n        /* \"#utility.yul\":452:482   */\n      add\n        /* \"#utility.yul\":507:554   */\n      tag_328\n        /* \"#utility.yul\":550:553   */\n      dup9\n        /* \"#utility.yul\":538:548   */\n      dup3\n        /* \"#utility.yul\":507:554   */\n      tag_329\n      jump\t// in\n    tag_328:\n        /* \"#utility.yul\":502:505   */\n      dup5\n        /* \"#utility.yul\":495:555   */\n      mstore\n        /* \"#utility.yul\":584:588   */\n      0x20\n        /* \"#utility.yul\":579:582   */\n      dup5\n        /* \"#utility.yul\":575:589   */\n      add\n        /* \"#utility.yul\":568:589   */\n      swap4\n      pop\n        /* \"#utility.yul\":618:622   */\n      0x20\n        /* \"#utility.yul\":613:616   */\n      dup4\n        /* \"#utility.yul\":609:623   */\n      add\n        /* \"#utility.yul\":602:623   */\n      swap3\n      pop\n        /* \"#utility.yul\":420:633   */\n      pop\n        /* \"#utility.yul\":407:408   */\n      0x01\n        /* \"#utility.yul\":404:405   */\n      dup2\n        /* \"#utility.yul\":400:409   */\n      add\n        /* \"#utility.yul\":395:409   */\n      swap1\n      pop\n        /* \"#utility.yul\":360:633   */\n      jump(tag_325)\n    tag_327:\n        /* \"#utility.yul\":364:378   */\n      pop\n        /* \"#utility.yul\":135:639   */\n      pop\n      pop\n      swap4\n      swap3\n      pop\n      pop\n      pop\n      jump\t// out\n        /* \"#utility.yul\":662:1285   */\n    tag_330:\n      0x00\n        /* \"#utility.yul\":783:864   */\n      tag_332\n        /* \"#utility.yul\":799:863   */\n      tag_333\n        /* \"#utility.yul\":856:862   */\n      dup5\n        /* \"#utility.yul\":799:863   */\n      tag_334\n      jump\t// in\n    tag_333:\n        /* \"#utility.yul\":783:864   */\n      tag_324\n      jump\t// in\n    tag_332:\n        /* \"#utility.yul\":774:864   */\n      swap1\n      pop\n        /* \"#utility.yul\":884:889   */\n      dup1\n        /* \"#utility.yul\":912:918   */\n      dup4\n        /* \"#utility.yul\":905:910   */\n      dup3\n        /* \"#utility.yul\":898:919   */\n      mstore\n        /* \"#utility.yul\":938:942   */\n      0x20\n        /* \"#utility.yul\":931:936   */\n      dup3\n        /* \"#utility.yul\":927:943   */\n      add\n        /* \"#utility.yul\":920:943   */\n      swap1\n      pop\n        /* \"#utility.yul\":963:969   */\n      dup3\n        /* \"#utility.yul\":1013:1016   */\n      dup6\n        /* \"#utility.yul\":1005:1009   */\n      0x20\n        /* \"#utility.yul\":997:1003   */\n      dup7\n        /* \"#utility.yul\":993:1010   */\n      mul\n        /* \"#utility.yul\":988:991   */\n      dup3\n        /* \"#utility.yul\":984:1011   */\n      add\n        /* \"#utility.yul\":981:1017   */\n      gt\n        /* \"#utility.yul\":978:980   */\n      iszero\n      tag_335\n      jumpi\n        /* \"#utility.yul\":1030:1031   */\n      0x00\n        /* \"#utility.yul\":1027:1028   */\n      dup1\n        /* \"#utility.yul\":1020:1032   */\n      revert\n        /* \"#utility.yul\":978:980   */\n    tag_335:\n        /* \"#utility.yul\":1058:1059   */\n      0x00\n        /* \"#utility.yul\":1043:1279   */\n    tag_336:\n        /* \"#utility.yul\":1068:1074   */\n      dup6\n        /* \"#utility.yul\":1065:1066   */\n      dup2\n        /* \"#utility.yul\":1062:1075   */\n      lt\n        /* \"#utility.yul\":1043:1279   */\n      iszero\n      tag_338\n      jumpi\n        /* \"#utility.yul\":1135:1138   */\n      dup2\n        /* \"#utility.yul\":1163:1200   */\n      tag_339\n        /* \"#utility.yul\":1196:1199   */\n      dup9\n        /* \"#utility.yul\":1184:1194   */\n      dup3\n        /* \"#utility.yul\":1163:1200   */\n      tag_340\n      jump\t// in\n    tag_339:\n        /* \"#utility.yul\":1158:1161   */\n      dup5\n        /* \"#utility.yul\":1151:1201   */\n      mstore\n        /* \"#utility.yul\":1230:1234   */\n      0x20\n        /* \"#utility.yul\":1225:1228   */\n      dup5\n        /* \"#utility.yul\":1221:1235   */\n      add\n        /* \"#utility.yul\":1214:1235   */\n      swap4\n      pop\n        /* \"#utility.yul\":1264:1268   */\n      0x20\n        /* \"#utility.yul\":1259:1262   */\n      dup4\n        /* \"#utility.yul\":1255:1269   */\n      add\n        /* \"#utility.yul\":1248:1269   */\n      swap3\n      pop\n        /* \"#utility.yul\":1103:1279   */\n      pop\n        /* \"#utility.yul\":1090:1091   */\n      0x01\n        /* \"#utility.yul\":1087:1088   */\n      dup2\n        /* \"#utility.yul\":1083:1092   */\n      add\n        /* \"#utility.yul\":1078:1092   */\n      swap1\n      pop\n        /* \"#utility.yul\":1043:1279   */\n      jump(tag_336)\n    tag_338:\n        /* \"#utility.yul\":1047:1061   */\n      pop\n        /* \"#utility.yul\":764:1285   */\n      pop\n      pop\n      swap4\n      swap3\n      pop\n      pop\n      pop\n      jump\t// out\n        /* \"#utility.yul\":1291:1636   */\n    tag_341:\n      0x00\n        /* \"#utility.yul\":1394:1460   */\n      tag_343\n        /* \"#utility.yul\":1410:1459   */\n      tag_344\n        /* \"#utility.yul\":1452:1458   */\n      dup5\n        /* \"#utility.yul\":1410:1459   */\n      tag_345\n      jump\t// in\n    tag_344:\n        /* \"#utility.yul\":1394:1460   */\n      tag_324\n      jump\t// in\n    tag_343:\n        /* \"#utility.yul\":1385:1460   */\n      swap1\n      pop\n        /* \"#utility.yul\":1483:1489   */\n      dup3\n        /* \"#utility.yul\":1476:1481   */\n      dup2\n        /* \"#utility.yul\":1469:1490   */\n      mstore\n        /* \"#utility.yul\":1521:1525   */\n      0x20\n        /* \"#utility.yul\":1514:1519   */\n      dup2\n        /* \"#utility.yul\":1510:1526   */\n      add\n        /* \"#utility.yul\":1559:1562   */\n      dup5\n        /* \"#utility.yul\":1550:1556   */\n      dup5\n        /* \"#utility.yul\":1545:1548   */\n      dup5\n        /* \"#utility.yul\":1541:1557   */\n      add\n        /* \"#utility.yul\":1538:1563   */\n      gt\n        /* \"#utility.yul\":1535:1537   */\n      iszero\n      tag_346\n      jumpi\n        /* \"#utility.yul\":1576:1577   */\n      0x00\n        /* \"#utility.yul\":1573:1574   */\n      dup1\n        /* \"#utility.yul\":1566:1578   */\n      revert\n        /* \"#utility.yul\":1535:1537   */\n    tag_346:\n        /* \"#utility.yul\":1589:1630   */\n      tag_347\n        /* \"#utility.yul\":1623:1629   */\n      dup5\n        /* \"#utility.yul\":1618:1621   */\n      dup3\n        /* \"#utility.yul\":1613:1616   */\n      dup6\n        /* \"#utility.yul\":1589:1630   */\n      tag_348\n      jump\t// in\n    tag_347:\n        /* \"#utility.yul\":1375:1636   */\n      pop\n      swap4\n      swap3\n      pop\n      pop\n      pop\n      jump\t// out\n        /* \"#utility.yul\":1642:1781   */\n    tag_349:\n      0x00\n        /* \"#utility.yul\":1726:1732   */\n      dup2\n        /* \"#utility.yul\":1713:1733   */\n      calldataload\n        /* \"#utility.yul\":1704:1733   */\n      swap1\n      pop\n        /* \"#utility.yul\":1742:1775   */\n      tag_351\n        /* \"#utility.yul\":1769:1774   */\n      dup2\n        /* \"#utility.yul\":1742:1775   */\n      tag_352\n      jump\t// in\n    tag_351:\n        /* \"#utility.yul\":1694:1781   */\n      swap3\n      swap2\n      pop\n      pop\n      jump\t// out\n        /* \"#utility.yul\":1803:2126   */\n    tag_353:\n      0x00\n        /* \"#utility.yul\":1933:1936   */\n      dup3\n        /* \"#utility.yul\":1926:1930   */\n      0x1f\n        /* \"#utility.yul\":1918:1924   */\n      dup4\n        /* \"#utility.yul\":1914:1931   */\n      add\n        /* \"#utility.yul\":1910:1937   */\n      slt\n        /* \"#utility.yul\":1900:1902   */\n      tag_355\n      jumpi\n        /* \"#utility.yul\":1951:1952   */\n      0x00\n        /* \"#utility.yul\":1948:1949   */\n      dup1\n        /* \"#utility.yul\":1941:1953   */\n      revert\n        /* \"#utility.yul\":1900:1902   */\n    tag_355:\n        /* \"#utility.yul\":1991:1997   */\n      dup2\n        /* \"#utility.yul\":1978:1998   */\n      calldataload\n        /* \"#utility.yul\":2016:2120   */\n      tag_356\n        /* \"#utility.yul\":2116:2119   */\n      dup5\n        /* \"#utility.yul\":2108:2114   */\n      dup3\n        /* \"#utility.yul\":2101:2105   */\n      0x20\n        /* \"#utility.yul\":2093:2099   */\n      dup7\n        /* \"#utility.yul\":2089:2106   */\n      add\n        /* \"#utility.yul\":2016:2120   */\n      tag_319\n      jump\t// in\n    tag_356:\n        /* \"#utility.yul\":2007:2120   */\n      swap2\n      pop\n        /* \"#utility.yul\":1890:2126   */\n      pop\n      swap3\n      swap2\n      pop\n      pop\n      jump\t// out\n        /* \"#utility.yul\":2149:2452   */\n    tag_357:\n      0x00\n        /* \"#utility.yul\":2269:2272   */\n      dup3\n        /* \"#utility.yul\":2262:2266   */\n      0x1f\n        /* \"#utility.yul\":2254:2260   */\n      dup4\n        /* \"#utility.yul\":2250:2267   */\n      add\n        /* \"#utility.yul\":2246:2273   */\n      slt\n        /* \"#utility.yul\":2236:2238   */\n      tag_359\n      jumpi\n        /* \"#utility.yul\":2287:2288   */\n      0x00\n        /* \"#utility.yul\":2284:2285   */\n      dup1\n        /* \"#utility.yul\":2277:2289   */\n      revert\n        /* \"#utility.yul\":2236:2238   */\n    tag_359:\n        /* \"#utility.yul\":2327:2333   */\n      dup2\n        /* \"#utility.yul\":2314:2334   */\n      calldataload\n        /* \"#utility.yul\":2352:2446   */\n      tag_360\n        /* \"#utility.yul\":2442:2445   */\n      dup5\n        /* \"#utility.yul\":2434:2440   */\n      dup3\n        /* \"#utility.yul\":2427:2431   */\n      0x20\n        /* \"#utility.yul\":2419:2425   */\n      dup7\n        /* \"#utility.yul\":2415:2432   */\n      add\n        /* \"#utility.yul\":2352:2446   */\n      tag_330\n      jump\t// in\n    tag_360:\n        /* \"#utility.yul\":2343:2446   */\n      swap2\n      pop\n        /* \"#utility.yul\":2226:2452   */\n      pop\n      swap3\n      swap2\n      pop\n      pop\n      jump\t// out\n        /* \"#utility.yul\":2458:2595   */\n    tag_361:\n      0x00\n        /* \"#utility.yul\":2543:2549   */\n      dup2\n        /* \"#utility.yul\":2537:2550   */\n      mload\n        /* \"#utility.yul\":2528:2550   */\n      swap1\n      pop\n        /* \"#utility.yul\":2559:2589   */\n      tag_363\n        /* \"#utility.yul\":2583:2588   */\n      dup2\n        /* \"#utility.yul\":2559:2589   */\n      tag_364\n      jump\t// in\n    tag_363:\n        /* \"#utility.yul\":2518:2595   */\n      swap3\n      swap2\n      pop\n      pop\n      jump\t// out\n        /* \"#utility.yul\":2601:2740   */\n    tag_365:\n      0x00\n        /* \"#utility.yul\":2685:2691   */\n      dup2\n        /* \"#utility.yul\":2672:2692   */\n      calldataload\n        /* \"#utility.yul\":2663:2692   */\n      swap1\n      pop\n        /* \"#utility.yul\":2701:2734   */\n      tag_367\n        /* \"#utility.yul\":2728:2733   */\n      dup2\n        /* \"#utility.yul\":2701:2734   */\n      tag_368\n      jump\t// in\n    tag_367:\n        /* \"#utility.yul\":2653:2740   */\n      swap3\n      swap2\n      pop\n      pop\n      jump\t// out\n        /* \"#utility.yul\":2746:2883   */\n    tag_369:\n      0x00\n        /* \"#utility.yul\":2829:2835   */\n      dup2\n        /* \"#utility.yul\":2816:2836   */\n      calldataload\n        /* \"#utility.yul\":2807:2836   */\n      swap1\n      pop\n        /* \"#utility.yul\":2845:2877   */\n      tag_371\n        /* \"#utility.yul\":2871:2876   */\n      dup2\n        /* \"#utility.yul\":2845:2877   */\n      tag_372\n      jump\t// in\n    tag_371:\n        /* \"#utility.yul\":2797:2883   */\n      swap3\n      swap2\n      pop\n      pop\n      jump\t// out\n        /* \"#utility.yul\":2903:3176   */\n    tag_329:\n      0x00\n        /* \"#utility.yul\":3008:3011   */\n      dup3\n        /* \"#utility.yul\":3001:3005   */\n      0x1f\n        /* \"#utility.yul\":2993:2999   */\n      dup4\n        /* \"#utility.yul\":2989:3006   */\n      add\n        /* \"#utility.yul\":2985:3012   */\n      slt\n        /* \"#utility.yul\":2975:2977   */\n      tag_374\n      jumpi\n        /* \"#utility.yul\":3026:3027   */\n      0x00\n        /* \"#utility.yul\":3023:3024   */\n      dup1\n        /* \"#utility.yul\":3016:3028   */\n      revert\n        /* \"#utility.yul\":2975:2977   */\n    tag_374:\n        /* \"#utility.yul\":3066:3072   */\n      dup2\n        /* \"#utility.yul\":3053:3073   */\n      calldataload\n        /* \"#utility.yul\":3091:3170   */\n      tag_375\n        /* \"#utility.yul\":3166:3169   */\n      dup5\n        /* \"#utility.yul\":3158:3164   */\n      dup3\n        /* \"#utility.yul\":3151:3155   */\n      0x20\n        /* \"#utility.yul\":3143:3149   */\n      dup7\n        /* \"#utility.yul\":3139:3156   */\n      add\n        /* \"#utility.yul\":3091:3170   */\n      tag_341\n      jump\t// in\n    tag_375:\n        /* \"#utility.yul\":3082:3170   */\n      swap2\n      pop\n        /* \"#utility.yul\":2965:3176   */\n      pop\n      swap3\n      swap2\n      pop\n      pop\n      jump\t// out\n        /* \"#utility.yul\":3182:3321   */\n    tag_340:\n      0x00\n        /* \"#utility.yul\":3266:3272   */\n      dup2\n        /* \"#utility.yul\":3253:3273   */\n      calldataload\n        /* \"#utility.yul\":3244:3273   */\n      swap1\n      pop\n        /* \"#utility.yul\":3282:3315   */\n      tag_377\n        /* \"#utility.yul\":3309:3314   */\n      dup2\n        /* \"#utility.yul\":3282:3315   */\n      tag_378\n      jump\t// in\n    tag_377:\n        /* \"#utility.yul\":3234:3321   */\n      swap3\n      swap2\n      pop\n      pop\n      jump\t// out\n        /* \"#utility.yul\":3327:3470   */\n    tag_379:\n      0x00\n        /* \"#utility.yul\":3415:3421   */\n      dup2\n        /* \"#utility.yul\":3409:3422   */\n      mload\n        /* \"#utility.yul\":3400:3422   */\n      swap1\n      pop\n        /* \"#utility.yul\":3431:3464   */\n      tag_381\n        /* \"#utility.yul\":3458:3463   */\n      dup2\n        /* \"#utility.yul\":3431:3464   */\n      tag_378\n      jump\t// in\n    tag_381:\n        /* \"#utility.yul\":3390:3470   */\n      swap3\n      swap2\n      pop\n      pop\n      jump\t// out\n        /* \"#utility.yul\":3476:3738   */\n    tag_61:\n      0x00\n        /* \"#utility.yul\":3584:3586   */\n      0x20\n        /* \"#utility.yul\":3572:3581   */\n      dup3\n        /* \"#utility.yul\":3563:3570   */\n      dup5\n        /* \"#utility.yul\":3559:3582   */\n      sub\n        /* \"#utility.yul\":3555:3587   */\n      slt\n        /* \"#utility.yul\":3552:3554   */\n      iszero\n      tag_383\n      jumpi\n        /* \"#utility.yul\":3600:3601   */\n      0x00\n        /* \"#utility.yul\":3597:3598   */\n      dup1\n        /* \"#utility.yul\":3590:3602   */\n      revert\n        /* \"#utility.yul\":3552:3554   */\n    tag_383:\n        /* \"#utility.yul\":3643:3644   */\n      0x00\n        /* \"#utility.yul\":3668:3721   */\n      tag_384\n        /* \"#utility.yul\":3713:3720   */\n      dup5\n        /* \"#utility.yul\":3704:3710   */\n      dup3\n        /* \"#utility.yul\":3693:3702   */\n      dup6\n        /* \"#utility.yul\":3689:3711   */\n      add\n        /* \"#utility.yul\":3668:3721   */\n      tag_349\n      jump\t// in\n    tag_384:\n        /* \"#utility.yul\":3658:3721   */\n      swap2\n      pop\n        /* \"#utility.yul\":3614:3731   */\n      pop\n        /* \"#utility.yul\":3542:3738   */\n      swap3\n      swap2\n      pop\n      pop\n      jump\t// out\n        /* \"#utility.yul\":3744:4151   */\n    tag_94:\n      0x00\n      dup1\n        /* \"#utility.yul\":3869:3871   */\n      0x40\n        /* \"#utility.yul\":3857:3866   */\n      dup4\n        /* \"#utility.yul\":3848:3855   */\n      dup6\n        /* \"#utility.yul\":3844:3867   */\n      sub\n        /* \"#utility.yul\":3840:3872   */\n      slt\n        /* \"#utility.yul\":3837:3839   */\n      iszero\n      tag_386\n      jumpi\n        /* \"#utility.yul\":3885:3886   */\n      0x00\n        /* \"#utility.yul\":3882:3883   */\n      dup1\n        /* \"#utility.yul\":3875:3887   */\n      revert\n        /* \"#utility.yul\":3837:3839   */\n    tag_386:\n        /* \"#utility.yul\":3928:3929   */\n      0x00\n        /* \"#utility.yul\":3953:4006   */\n      tag_387\n        /* \"#utility.yul\":3998:4005   */\n      dup6\n        /* \"#utility.yul\":3989:3995   */\n      dup3\n        /* \"#utility.yul\":3978:3987   */\n      dup7\n        /* \"#utility.yul\":3974:3996   */\n      add\n        /* \"#utility.yul\":3953:4006   */\n      tag_349\n      jump\t// in\n    tag_387:\n        /* \"#utility.yul\":3943:4006   */\n      swap3\n      pop\n        /* \"#utility.yul\":3899:4016   */\n      pop\n        /* \"#utility.yul\":4055:4057   */\n      0x20\n        /* \"#utility.yul\":4081:4134   */\n      tag_388\n        /* \"#utility.yul\":4126:4133   */\n      dup6\n        /* \"#utility.yul\":4117:4123   */\n      dup3\n        /* \"#utility.yul\":4106:4115   */\n      dup7\n        /* \"#utility.yul\":4102:4124   */\n      add\n        /* \"#utility.yul\":4081:4134   */\n      tag_340\n      jump\t// in\n    tag_388:\n        /* \"#utility.yul\":4071:4134   */\n      swap2\n      pop\n        /* \"#utility.yul\":4026:4144   */\n      pop\n        /* \"#utility.yul\":3827:4151   */\n      swap3\n      pop\n      swap3\n      swap1\n      pop\n      jump\t// out\n        /* \"#utility.yul\":4157:4870   */\n    tag_123:\n      0x00\n      dup1\n        /* \"#utility.yul\":4342:4344   */\n      0x40\n        /* \"#utility.yul\":4330:4339   */\n      dup4\n        /* \"#utility.yul\":4321:4328   */\n      dup6\n        /* \"#utility.yul\":4317:4340   */\n      sub\n        /* \"#utility.yul\":4313:4345   */\n      slt\n        /* \"#utility.yul\":4310:4312   */\n      iszero\n      tag_390\n      jumpi\n        /* \"#utility.yul\":4358:4359   */\n      0x00\n        /* \"#utility.yul\":4355:4356   */\n      dup1\n        /* \"#utility.yul\":4348:4360   */\n      revert\n        /* \"#utility.yul\":4310:4312   */\n    tag_390:\n        /* \"#utility.yul\":4429:4430   */\n      0x00\n        /* \"#utility.yul\":4418:4427   */\n      dup4\n        /* \"#utility.yul\":4414:4431   */\n      add\n        /* \"#utility.yul\":4401:4432   */\n      calldataload\n        /* \"#utility.yul\":4459:4477   */\n      0xffffffffffffffff\n        /* \"#utility.yul\":4451:4457   */\n      dup2\n        /* \"#utility.yul\":4448:4478   */\n      gt\n        /* \"#utility.yul\":4445:4447   */\n      iszero\n      tag_391\n      jumpi\n        /* \"#utility.yul\":4491:4492   */\n      0x00\n        /* \"#utility.yul\":4488:4489   */\n      dup1\n        /* \"#utility.yul\":4481:4493   */\n      revert\n        /* \"#utility.yul\":4445:4447   */\n    tag_391:\n        /* \"#utility.yul\":4519:4597   */\n      tag_392\n        /* \"#utility.yul\":4589:4596   */\n      dup6\n        /* \"#utility.yul\":4580:4586   */\n      dup3\n        /* \"#utility.yul\":4569:4578   */\n      dup7\n        /* \"#utility.yul\":4565:4587   */\n      add\n        /* \"#utility.yul\":4519:4597   */\n      tag_357\n      jump\t// in\n    tag_392:\n        /* \"#utility.yul\":4509:4597   */\n      swap3\n      pop\n        /* \"#utility.yul\":4372:4607   */\n      pop\n        /* \"#utility.yul\":4674:4676   */\n      0x20\n        /* \"#utility.yul\":4663:4672   */\n      dup4\n        /* \"#utility.yul\":4659:4677   */\n      add\n        /* \"#utility.yul\":4646:4678   */\n      calldataload\n        /* \"#utility.yul\":4705:4723   */\n      0xffffffffffffffff\n        /* \"#utility.yul\":4697:4703   */\n      dup2\n        /* \"#utility.yul\":4694:4724   */\n      gt\n        /* \"#utility.yul\":4691:4693   */\n      iszero\n      tag_393\n      jumpi\n        /* \"#utility.yul\":4737:4738   */\n      0x00\n        /* \"#utility.yul\":4734:4735   */\n      dup1\n        /* \"#utility.yul\":4727:4739   */\n      revert\n        /* \"#utility.yul\":4691:4693   */\n    tag_393:\n        /* \"#utility.yul\":4765:4853   */\n      tag_394\n        /* \"#utility.yul\":4845:4852   */\n      dup6\n        /* \"#utility.yul\":4836:4842   */\n      dup3\n        /* \"#utility.yul\":4825:4834   */\n      dup7\n        /* \"#utility.yul\":4821:4843   */\n      add\n        /* \"#utility.yul\":4765:4853   */\n      tag_353\n      jump\t// in\n    tag_394:\n        /* \"#utility.yul\":4755:4853   */\n      swap2\n      pop\n        /* \"#utility.yul\":4617:4863   */\n      pop\n        /* \"#utility.yul\":4300:4870   */\n      swap3\n      pop\n      swap3\n      swap1\n      pop\n      jump\t// out\n        /* \"#utility.yul\":4876:5154   */\n    tag_213:\n      0x00\n        /* \"#utility.yul\":4992:4994   */\n      0x20\n        /* \"#utility.yul\":4980:4989   */\n      dup3\n        /* \"#utility.yul\":4971:4978   */\n      dup5\n        /* \"#utility.yul\":4967:4990   */\n      sub\n        /* \"#utility.yul\":4963:4995   */\n      slt\n        /* \"#utility.yul\":4960:4962   */\n      iszero\n      tag_396\n      jumpi\n        /* \"#utility.yul\":5008:5009   */\n      0x00\n        /* \"#utility.yul\":5005:5006   */\n      dup1\n        /* \"#utility.yul\":4998:5010   */\n      revert\n        /* \"#utility.yul\":4960:4962   */\n    tag_396:\n        /* \"#utility.yul\":5051:5052   */\n      0x00\n        /* \"#utility.yul\":5076:5137   */\n      tag_397\n        /* \"#utility.yul\":5129:5136   */\n      dup5\n        /* \"#utility.yul\":5120:5126   */\n      dup3\n        /* \"#utility.yul\":5109:5118   */\n      dup6\n        /* \"#utility.yul\":5105:5127   */\n      add\n        /* \"#utility.yul\":5076:5137   */\n      tag_361\n      jump\t// in\n    tag_397:\n        /* \"#utility.yul\":5066:5137   */\n      swap2\n      pop\n        /* \"#utility.yul\":5022:5147   */\n      pop\n        /* \"#utility.yul\":4950:5154   */\n      swap3\n      swap2\n      pop\n      pop\n      jump\t// out\n        /* \"#utility.yul\":5160:5422   */\n    tag_40:\n      0x00\n        /* \"#utility.yul\":5268:5270   */\n      0x20\n        /* \"#utility.yul\":5256:5265   */\n      dup3\n        /* \"#utility.yul\":5247:5254   */\n      dup5\n        /* \"#utility.yul\":5243:5266   */\n      sub\n        /* \"#utility.yul\":5239:5271   */\n      slt\n        /* \"#utility.yul\":5236:5238   */\n      iszero\n      tag_399\n      jumpi\n        /* \"#utility.yul\":5284:5285   */\n      0x00\n        /* \"#utility.yul\":5281:5282   */\n      dup1\n        /* \"#utility.yul\":5274:5286   */\n      revert\n        /* \"#utility.yul\":5236:5238   */\n    tag_399:\n        /* \"#utility.yul\":5327:5328   */\n      0x00\n        /* \"#utility.yul\":5352:5405   */\n      tag_400\n        /* \"#utility.yul\":5397:5404   */\n      dup5\n        /* \"#utility.yul\":5388:5394   */\n      dup3\n        /* \"#utility.yul\":5377:5386   */\n      dup6\n        /* \"#utility.yul\":5373:5395   */\n      add\n        /* \"#utility.yul\":5352:5405   */\n      tag_365\n      jump\t// in\n    tag_400:\n        /* \"#utility.yul\":5342:5405   */\n      swap2\n      pop\n        /* \"#utility.yul\":5298:5415   */\n      pop\n        /* \"#utility.yul\":5226:5422   */\n      swap3\n      swap2\n      pop\n      pop\n      jump\t// out\n        /* \"#utility.yul\":5428:5835   */\n    tag_46:\n      0x00\n      dup1\n        /* \"#utility.yul\":5553:5555   */\n      0x40\n        /* \"#utility.yul\":5541:5550   */\n      dup4\n        /* \"#utility.yul\":5532:5539   */\n      dup6\n        /* \"#utility.yul\":5528:5551   */\n      sub\n        /* \"#utility.yul\":5524:5556   */\n      slt\n        /* \"#utility.yul\":5521:5523   */\n      iszero\n      tag_402\n      jumpi\n        /* \"#utility.yul\":5569:5570   */\n      0x00\n        /* \"#utility.yul\":5566:5567   */\n      dup1\n        /* \"#utility.yul\":5559:5571   */\n      revert\n        /* \"#utility.yul\":5521:5523   */\n    tag_402:\n        /* \"#utility.yul\":5612:5613   */\n      0x00\n        /* \"#utility.yul\":5637:5690   */\n      tag_403\n        /* \"#utility.yul\":5682:5689   */\n      dup6\n        /* \"#utility.yul\":5673:5679   */\n      dup3\n        /* \"#utility.yul\":5662:5671   */\n      dup7\n        /* \"#utility.yul\":5658:5680   */\n      add\n        /* \"#utility.yul\":5637:5690   */\n      tag_365\n      jump\t// in\n    tag_403:\n        /* \"#utility.yul\":5627:5690   */\n      swap3\n      pop\n        /* \"#utility.yul\":5583:5700   */\n      pop\n        /* \"#utility.yul\":5739:5741   */\n      0x20\n        /* \"#utility.yul\":5765:5818   */\n      tag_404\n        /* \"#utility.yul\":5810:5817   */\n      dup6\n        /* \"#utility.yul\":5801:5807   */\n      dup3\n        /* \"#utility.yul\":5790:5799   */\n      dup7\n        /* \"#utility.yul\":5786:5808   */\n      add\n        /* \"#utility.yul\":5765:5818   */\n      tag_349\n      jump\t// in\n    tag_404:\n        /* \"#utility.yul\":5755:5818   */\n      swap2\n      pop\n        /* \"#utility.yul\":5710:5828   */\n      pop\n        /* \"#utility.yul\":5511:5835   */\n      swap3\n      pop\n      swap3\n      swap1\n      pop\n      jump\t// out\n        /* \"#utility.yul\":5841:6101   */\n    tag_34:\n      0x00\n        /* \"#utility.yul\":5948:5950   */\n      0x20\n        /* \"#utility.yul\":5936:5945   */\n      dup3\n        /* \"#utility.yul\":5927:5934   */\n      dup5\n        /* \"#utility.yul\":5923:5946   */\n      sub\n        /* \"#utility.yul\":5919:5951   */\n      slt\n        /* \"#utility.yul\":5916:5918   */\n      iszero\n      tag_406\n      jumpi\n        /* \"#utility.yul\":5964:5965   */\n      0x00\n        /* \"#utility.yul\":5961:5962   */\n      dup1\n        /* \"#utility.yul\":5954:5966   */\n      revert\n        /* \"#utility.yul\":5916:5918   */\n    tag_406:\n        /* \"#utility.yul\":6007:6008   */\n      0x00\n        /* \"#utility.yul\":6032:6084   */\n      tag_407\n        /* \"#utility.yul\":6076:6083   */\n      dup5\n        /* \"#utility.yul\":6067:6073   */\n      dup3\n        /* \"#utility.yul\":6056:6065   */\n      dup6\n        /* \"#utility.yul\":6052:6074   */\n      add\n        /* \"#utility.yul\":6032:6084   */\n      tag_369\n      jump\t// in\n    tag_407:\n        /* \"#utility.yul\":6022:6084   */\n      swap2\n      pop\n        /* \"#utility.yul\":5978:6094   */\n      pop\n        /* \"#utility.yul\":5906:6101   */\n      swap3\n      swap2\n      pop\n      pop\n      jump\t// out\n        /* \"#utility.yul\":6107:6369   */\n    tag_57:\n      0x00\n        /* \"#utility.yul\":6215:6217   */\n      0x20\n        /* \"#utility.yul\":6203:6212   */\n      dup3\n        /* \"#utility.yul\":6194:6201   */\n      dup5\n        /* \"#utility.yul\":6190:6213   */\n      sub\n        /* \"#utility.yul\":6186:6218   */\n      slt\n        /* \"#utility.yul\":6183:6185   */\n      iszero\n      tag_409\n      jumpi\n        /* \"#utility.yul\":6231:6232   */\n      0x00\n        /* \"#utility.yul\":6228:6229   */\n      dup1\n        /* \"#utility.yul\":6221:6233   */\n      revert\n        /* \"#utility.yul\":6183:6185   */\n    tag_409:\n        /* \"#utility.yul\":6274:6275   */\n      0x00\n        /* \"#utility.yul\":6299:6352   */\n      tag_410\n        /* \"#utility.yul\":6344:6351   */\n      dup5\n        /* \"#utility.yul\":6335:6341   */\n      dup3\n        /* \"#utility.yul\":6324:6333   */\n      dup6\n        /* \"#utility.yul\":6320:6342   */\n      add\n        /* \"#utility.yul\":6299:6352   */\n      tag_340\n      jump\t// in\n    tag_410:\n        /* \"#utility.yul\":6289:6352   */\n      swap2\n      pop\n        /* \"#utility.yul\":6245:6362   */\n      pop\n        /* \"#utility.yul\":6173:6369   */\n      swap3\n      swap2\n      pop\n      pop\n      jump\t// out\n        /* \"#utility.yul\":6375:6659   */\n    tag_151:\n      0x00\n        /* \"#utility.yul\":6494:6496   */\n      0x20\n        /* \"#utility.yul\":6482:6491   */\n      dup3\n        /* \"#utility.yul\":6473:6480   */\n      dup5\n        /* \"#utility.yul\":6469:6492   */\n      sub\n        /* \"#utility.yul\":6465:6497   */\n      slt\n        /* \"#utility.yul\":6462:6464   */\n      iszero\n      tag_412\n      jumpi\n        /* \"#utility.yul\":6510:6511   */\n      0x00\n        /* \"#utility.yul\":6507:6508   */\n      dup1\n        /* \"#utility.yul\":6500:6512   */\n      revert\n        /* \"#utility.yul\":6462:6464   */\n    tag_412:\n        /* \"#utility.yul\":6553:6554   */\n      0x00\n        /* \"#utility.yul\":6578:6642   */\n      tag_413\n        /* \"#utility.yul\":6634:6641   */\n      dup5\n        /* \"#utility.yul\":6625:6631   */\n      dup3\n        /* \"#utility.yul\":6614:6623   */\n      dup6\n        /* \"#utility.yul\":6610:6632   */\n      add\n        /* \"#utility.yul\":6578:6642   */\n      tag_379\n      jump\t// in\n    tag_413:\n        /* \"#utility.yul\":6568:6642   */\n      swap2\n      pop\n        /* \"#utility.yul\":6524:6652   */\n      pop\n        /* \"#utility.yul\":6452:6659   */\n      swap3\n      swap2\n      pop\n      pop\n      jump\t// out\n        /* \"#utility.yul\":6665:6861   */\n    tag_414:\n      0x00\n        /* \"#utility.yul\":6789:6855   */\n      tag_416\n        /* \"#utility.yul\":6851:6854   */\n      dup4\n        /* \"#utility.yul\":6843:6849   */\n      dup4\n        /* \"#utility.yul\":6789:6855   */\n      tag_417\n      jump\t// in\n    tag_416:\n        /* \"#utility.yul\":6775:6855   */\n      swap1\n      pop\n        /* \"#utility.yul\":6765:6861   */\n      swap3\n      swap2\n      pop\n      pop\n      jump\t// out\n        /* \"#utility.yul\":6867:7046   */\n    tag_418:\n      0x00\n        /* \"#utility.yul\":6957:7003   */\n      tag_420\n        /* \"#utility.yul\":6999:7002   */\n      dup4\n        /* \"#utility.yul\":6991:6997   */\n      dup4\n        /* \"#utility.yul\":6957:7003   */\n      tag_421\n      jump\t// in\n    tag_420:\n        /* \"#utility.yul\":7035:7039   */\n      0x20\n        /* \"#utility.yul\":7030:7033   */\n      dup4\n        /* \"#utility.yul\":7026:7040   */\n      add\n        /* \"#utility.yul\":7012:7040   */\n      swap1\n      pop\n        /* \"#utility.yul\":6947:7046   */\n      swap3\n      swap2\n      pop\n      pop\n      jump\t// out\n        /* \"#utility.yul\":7052:7170   */\n    tag_422:\n        /* \"#utility.yul\":7139:7163   */\n      tag_424\n        /* \"#utility.yul\":7157:7162   */\n      dup2\n        /* \"#utility.yul\":7139:7163   */\n      tag_425\n      jump\t// in\n    tag_424:\n        /* \"#utility.yul\":7134:7137   */\n      dup3\n        /* \"#utility.yul\":7127:7164   */\n      mstore\n        /* \"#utility.yul\":7117:7170   */\n      pop\n      pop\n      jump\t// out\n        /* \"#utility.yul\":7176:7333   */\n    tag_426:\n        /* \"#utility.yul\":7281:7326   */\n      tag_428\n        /* \"#utility.yul\":7301:7325   */\n      tag_429\n        /* \"#utility.yul\":7319:7324   */\n      dup3\n        /* \"#utility.yul\":7301:7325   */\n      tag_425\n      jump\t// in\n    tag_429:\n        /* \"#utility.yul\":7281:7326   */\n      tag_430\n      jump\t// in\n    tag_428:\n        /* \"#utility.yul\":7276:7279   */\n      dup3\n        /* \"#utility.yul\":7269:7327   */\n      mstore\n        /* \"#utility.yul\":7259:7333   */\n      pop\n      pop\n      jump\t// out\n        /* \"#utility.yul\":7367:8358   */\n    tag_431:\n      0x00\n        /* \"#utility.yul\":7535:7599   */\n      tag_433\n        /* \"#utility.yul\":7593:7598   */\n      dup3\n        /* \"#utility.yul\":7535:7599   */\n      tag_434\n      jump\t// in\n    tag_433:\n        /* \"#utility.yul\":7615:7711   */\n      tag_435\n        /* \"#utility.yul\":7704:7710   */\n      dup2\n        /* \"#utility.yul\":7699:7702   */\n      dup6\n        /* \"#utility.yul\":7615:7711   */\n      tag_436\n      jump\t// in\n    tag_435:\n        /* \"#utility.yul\":7608:7711   */\n      swap4\n      pop\n        /* \"#utility.yul\":7737:7740   */\n      dup4\n        /* \"#utility.yul\":7782:7786   */\n      0x20\n        /* \"#utility.yul\":7774:7780   */\n      dup3\n        /* \"#utility.yul\":7770:7787   */\n      mul\n        /* \"#utility.yul\":7765:7768   */\n      dup6\n        /* \"#utility.yul\":7761:7788   */\n      add\n        /* \"#utility.yul\":7812:7878   */\n      tag_437\n        /* \"#utility.yul\":7872:7877   */\n      dup6\n        /* \"#utility.yul\":7812:7878   */\n      tag_438\n      jump\t// in\n    tag_437:\n        /* \"#utility.yul\":7901:7908   */\n      dup1\n        /* \"#utility.yul\":7932:7933   */\n      0x00\n        /* \"#utility.yul\":7917:8313   */\n    tag_439:\n        /* \"#utility.yul\":7942:7948   */\n      dup6\n        /* \"#utility.yul\":7939:7940   */\n      dup2\n        /* \"#utility.yul\":7936:7949   */\n      lt\n        /* \"#utility.yul\":7917:8313   */\n      iszero\n      tag_441\n      jumpi\n        /* \"#utility.yul\":8013:8022   */\n      dup5\n        /* \"#utility.yul\":8007:8011   */\n      dup5\n        /* \"#utility.yul\":8003:8023   */\n      sub\n        /* \"#utility.yul\":7998:8001   */\n      dup10\n        /* \"#utility.yul\":7991:8024   */\n      mstore\n        /* \"#utility.yul\":8064:8070   */\n      dup2\n        /* \"#utility.yul\":8058:8071   */\n      mload\n        /* \"#utility.yul\":8092:8176   */\n      tag_442\n        /* \"#utility.yul\":8171:8175   */\n      dup6\n        /* \"#utility.yul\":8156:8169   */\n      dup3\n        /* \"#utility.yul\":8092:8176   */\n      tag_414\n      jump\t// in\n    tag_442:\n        /* \"#utility.yul\":8084:8176   */\n      swap5\n      pop\n        /* \"#utility.yul\":8199:8269   */\n      tag_443\n        /* \"#utility.yul\":8262:8268   */\n      dup4\n        /* \"#utility.yul\":8199:8269   */\n      tag_444\n      jump\t// in\n    tag_443:\n        /* \"#utility.yul\":8189:8269   */\n      swap3\n      pop\n        /* \"#utility.yul\":8298:8302   */\n      0x20\n        /* \"#utility.yul\":8293:8296   */\n      dup11\n        /* \"#utility.yul\":8289:8303   */\n      add\n        /* \"#utility.yul\":8282:8303   */\n      swap10\n      pop\n        /* \"#utility.yul\":7977:8313   */\n      pop\n        /* \"#utility.yul\":7964:7965   */\n      0x01\n        /* \"#utility.yul\":7961:7962   */\n      dup2\n        /* \"#utility.yul\":7957:7966   */\n      add\n        /* \"#utility.yul\":7952:7966   */\n      swap1\n      pop\n        /* \"#utility.yul\":7917:8313   */\n      jump(tag_439)\n    tag_441:\n        /* \"#utility.yul\":7921:7935   */\n      pop\n        /* \"#utility.yul\":8329:8333   */\n      dup3\n        /* \"#utility.yul\":8322:8333   */\n      swap8\n      pop\n        /* \"#utility.yul\":8349:8352   */\n      dup8\n        /* \"#utility.yul\":8342:8352   */\n      swap6\n      pop\n        /* \"#utility.yul\":7511:8358   */\n      pop\n      pop\n      pop\n      pop\n      pop\n      swap3\n      swap2\n      pop\n      pop\n      jump\t// out\n        /* \"#utility.yul\":8394:9126   */\n    tag_445:\n      0x00\n        /* \"#utility.yul\":8542:8596   */\n      tag_447\n        /* \"#utility.yul\":8590:8595   */\n      dup3\n        /* \"#utility.yul\":8542:8596   */\n      tag_448\n      jump\t// in\n    tag_447:\n        /* \"#utility.yul\":8612:8698   */\n      tag_449\n        /* \"#utility.yul\":8691:8697   */\n      dup2\n        /* \"#utility.yul\":8686:8689   */\n      dup6\n        /* \"#utility.yul\":8612:8698   */\n      tag_450\n      jump\t// in\n    tag_449:\n        /* \"#utility.yul\":8605:8698   */\n      swap4\n      pop\n        /* \"#utility.yul\":8722:8778   */\n      tag_451\n        /* \"#utility.yul\":8772:8777   */\n      dup4\n        /* \"#utility.yul\":8722:8778   */\n      tag_452\n      jump\t// in\n    tag_451:\n        /* \"#utility.yul\":8801:8808   */\n      dup1\n        /* \"#utility.yul\":8832:8833   */\n      0x00\n        /* \"#utility.yul\":8817:9101   */\n    tag_453:\n        /* \"#utility.yul\":8842:8848   */\n      dup4\n        /* \"#utility.yul\":8839:8840   */\n      dup2\n        /* \"#utility.yul\":8836:8849   */\n      lt\n        /* \"#utility.yul\":8817:9101   */\n      iszero\n      tag_455\n      jumpi\n        /* \"#utility.yul\":8918:8924   */\n      dup2\n        /* \"#utility.yul\":8912:8925   */\n      mload\n        /* \"#utility.yul\":8945:9008   */\n      tag_456\n        /* \"#utility.yul\":9004:9007   */\n      dup9\n        /* \"#utility.yul\":8989:9002   */\n      dup3\n        /* \"#utility.yul\":8945:9008   */\n      tag_418\n      jump\t// in\n    tag_456:\n        /* \"#utility.yul\":8938:9008   */\n      swap8\n      pop\n        /* \"#utility.yul\":9031:9091   */\n      tag_457\n        /* \"#utility.yul\":9084:9090   */\n      dup4\n        /* \"#utility.yul\":9031:9091   */\n      tag_458\n      jump\t// in\n    tag_457:\n        /* \"#utility.yul\":9021:9091   */\n      swap3\n      pop\n        /* \"#utility.yul\":8877:9101   */\n      pop\n        /* \"#utility.yul\":8864:8865   */\n      0x01\n        /* \"#utility.yul\":8861:8862   */\n      dup2\n        /* \"#utility.yul\":8857:8866   */\n      add\n        /* \"#utility.yul\":8852:8866   */\n      swap1\n      pop\n        /* \"#utility.yul\":8817:9101   */\n      jump(tag_453)\n    tag_455:\n        /* \"#utility.yul\":8821:8835   */\n      pop\n        /* \"#utility.yul\":9117:9120   */\n      dup6\n        /* \"#utility.yul\":9110:9120   */\n      swap4\n      pop\n        /* \"#utility.yul\":8518:9126   */\n      pop\n      pop\n      pop\n      swap3\n      swap2\n      pop\n      pop\n      jump\t// out\n        /* \"#utility.yul\":9132:9241   */\n    tag_459:\n        /* \"#utility.yul\":9213:9234   */\n      tag_461\n        /* \"#utility.yul\":9228:9233   */\n      dup2\n        /* \"#utility.yul\":9213:9234   */\n      tag_462\n      jump\t// in\n    tag_461:\n        /* \"#utility.yul\":9208:9211   */\n      dup3\n        /* \"#utility.yul\":9201:9235   */\n      mstore\n        /* \"#utility.yul\":9191:9241   */\n      pop\n      pop\n      jump\t// out\n        /* \"#utility.yul\":9247:9365   */\n    tag_463:\n        /* \"#utility.yul\":9334:9358   */\n      tag_465\n        /* \"#utility.yul\":9352:9357   */\n      dup2\n        /* \"#utility.yul\":9334:9358   */\n      tag_466\n      jump\t// in\n    tag_465:\n        /* \"#utility.yul\":9329:9332   */\n      dup3\n        /* \"#utility.yul\":9322:9359   */\n      mstore\n        /* \"#utility.yul\":9312:9365   */\n      pop\n      pop\n      jump\t// out\n        /* \"#utility.yul\":9371:9542   */\n    tag_467:\n        /* \"#utility.yul\":9478:9535   */\n      tag_469\n        /* \"#utility.yul\":9529:9534   */\n      dup2\n        /* \"#utility.yul\":9478:9535   */\n      tag_470\n      jump\t// in\n    tag_469:\n        /* \"#utility.yul\":9473:9476   */\n      dup3\n        /* \"#utility.yul\":9466:9536   */\n      mstore\n        /* \"#utility.yul\":9456:9542   */\n      pop\n      pop\n      jump\t// out\n        /* \"#utility.yul\":9548:9739   */\n    tag_471:\n        /* \"#utility.yul\":9665:9732   */\n      tag_473\n        /* \"#utility.yul\":9726:9731   */\n      dup2\n        /* \"#utility.yul\":9665:9732   */\n      tag_474\n      jump\t// in\n    tag_473:\n        /* \"#utility.yul\":9660:9663   */\n      dup3\n        /* \"#utility.yul\":9653:9733   */\n      mstore\n        /* \"#utility.yul\":9643:9739   */\n      pop\n      pop\n      jump\t// out\n        /* \"#utility.yul\":9745:9916   */\n    tag_475:\n        /* \"#utility.yul\":9852:9909   */\n      tag_477\n        /* \"#utility.yul\":9903:9908   */\n      dup2\n        /* \"#utility.yul\":9852:9909   */\n      tag_478\n      jump\t// in\n    tag_477:\n        /* \"#utility.yul\":9847:9850   */\n      dup3\n        /* \"#utility.yul\":9840:9910   */\n      mstore\n        /* \"#utility.yul\":9830:9916   */\n      pop\n      pop\n      jump\t// out\n        /* \"#utility.yul\":9922:10266   */\n    tag_417:\n      0x00\n        /* \"#utility.yul\":10028:10067   */\n      tag_480\n        /* \"#utility.yul\":10061:10066   */\n      dup3\n        /* \"#utility.yul\":10028:10067   */\n      tag_481\n      jump\t// in\n    tag_480:\n        /* \"#utility.yul\":10083:10144   */\n      tag_482\n        /* \"#utility.yul\":10137:10143   */\n      dup2\n        /* \"#utility.yul\":10132:10135   */\n      dup6\n        /* \"#utility.yul\":10083:10144   */\n      tag_483\n      jump\t// in\n    tag_482:\n        /* \"#utility.yul\":10076:10144   */\n      swap4\n      pop\n        /* \"#utility.yul\":10153:10205   */\n      tag_484\n        /* \"#utility.yul\":10198:10204   */\n      dup2\n        /* \"#utility.yul\":10193:10196   */\n      dup6\n        /* \"#utility.yul\":10186:10190   */\n      0x20\n        /* \"#utility.yul\":10179:10184   */\n      dup7\n        /* \"#utility.yul\":10175:10191   */\n      add\n        /* \"#utility.yul\":10153:10205   */\n      tag_485\n      jump\t// in\n    tag_484:\n        /* \"#utility.yul\":10230:10259   */\n      tag_486\n        /* \"#utility.yul\":10252:10258   */\n      dup2\n        /* \"#utility.yul\":10230:10259   */\n      tag_487\n      jump\t// in\n    tag_486:\n        /* \"#utility.yul\":10225:10228   */\n      dup5\n        /* \"#utility.yul\":10221:10260   */\n      add\n        /* \"#utility.yul\":10214:10260   */\n      swap2\n      pop\n        /* \"#utility.yul\":10004:10266   */\n      pop\n      swap3\n      swap2\n      pop\n      pop\n      jump\t// out\n        /* \"#utility.yul\":10272:10636   */\n    tag_488:\n      0x00\n        /* \"#utility.yul\":10388:10427   */\n      tag_490\n        /* \"#utility.yul\":10421:10426   */\n      dup3\n        /* \"#utility.yul\":10388:10427   */\n      tag_481\n      jump\t// in\n    tag_490:\n        /* \"#utility.yul\":10443:10514   */\n      tag_491\n        /* \"#utility.yul\":10507:10513   */\n      dup2\n        /* \"#utility.yul\":10502:10505   */\n      dup6\n        /* \"#utility.yul\":10443:10514   */\n      tag_492\n      jump\t// in\n    tag_491:\n        /* \"#utility.yul\":10436:10514   */\n      swap4\n      pop\n        /* \"#utility.yul\":10523:10575   */\n      tag_493\n        /* \"#utility.yul\":10568:10574   */\n      dup2\n        /* \"#utility.yul\":10563:10566   */\n      dup6\n        /* \"#utility.yul\":10556:10560   */\n      0x20\n        /* \"#utility.yul\":10549:10554   */\n      dup7\n        /* \"#utility.yul\":10545:10561   */\n      add\n        /* \"#utility.yul\":10523:10575   */\n      tag_485\n      jump\t// in\n    tag_493:\n        /* \"#utility.yul\":10600:10629   */\n      tag_494\n        /* \"#utility.yul\":10622:10628   */\n      dup2\n        /* \"#utility.yul\":10600:10629   */\n      tag_487\n      jump\t// in\n    tag_494:\n        /* \"#utility.yul\":10595:10598   */\n      dup5\n        /* \"#utility.yul\":10591:10630   */\n      add\n        /* \"#utility.yul\":10584:10630   */\n      swap2\n      pop\n        /* \"#utility.yul\":10364:10636   */\n      pop\n      swap3\n      swap2\n      pop\n      pop\n      jump\t// out\n        /* \"#utility.yul\":10642:11019   */\n    tag_495:\n      0x00\n        /* \"#utility.yul\":10776:10815   */\n      tag_497\n        /* \"#utility.yul\":10809:10814   */\n      dup3\n        /* \"#utility.yul\":10776:10815   */\n      tag_481\n      jump\t// in\n    tag_497:\n        /* \"#utility.yul\":10831:10920   */\n      tag_498\n        /* \"#utility.yul\":10913:10919   */\n      dup2\n        /* \"#utility.yul\":10908:10911   */\n      dup6\n        /* \"#utility.yul\":10831:10920   */\n      tag_499\n      jump\t// in\n    tag_498:\n        /* \"#utility.yul\":10824:10920   */\n      swap4\n      pop\n        /* \"#utility.yul\":10929:10981   */\n      tag_500\n        /* \"#utility.yul\":10974:10980   */\n      dup2\n        /* \"#utility.yul\":10969:10972   */\n      dup6\n        /* \"#utility.yul\":10962:10966   */\n      0x20\n        /* \"#utility.yul\":10955:10960   */\n      dup7\n        /* \"#utility.yul\":10951:10967   */\n      add\n        /* \"#utility.yul\":10929:10981   */\n      tag_485\n      jump\t// in\n    tag_500:\n        /* \"#utility.yul\":11006:11012   */\n      dup1\n        /* \"#utility.yul\":11001:11004   */\n      dup5\n        /* \"#utility.yul\":10997:11013   */\n      add\n        /* \"#utility.yul\":10990:11013   */\n      swap2\n      pop\n        /* \"#utility.yul\":10752:11019   */\n      pop\n      swap3\n      swap2\n      pop\n      pop\n      jump\t// out\n        /* \"#utility.yul\":11025:11391   */\n    tag_501:\n      0x00\n        /* \"#utility.yul\":11188:11255   */\n      tag_503\n        /* \"#utility.yul\":11252:11254   */\n      0x20\n        /* \"#utility.yul\":11247:11250   */\n      dup4\n        /* \"#utility.yul\":11188:11255   */\n      tag_492\n      jump\t// in\n    tag_503:\n        /* \"#utility.yul\":11181:11255   */\n      swap2\n      pop\n        /* \"#utility.yul\":11264:11357   */\n      tag_504\n        /* \"#utility.yul\":11353:11356   */\n      dup3\n        /* \"#utility.yul\":11264:11357   */\n      tag_505\n      jump\t// in\n    tag_504:\n        /* \"#utility.yul\":11382:11384   */\n      0x20\n        /* \"#utility.yul\":11377:11380   */\n      dup3\n        /* \"#utility.yul\":11373:11385   */\n      add\n        /* \"#utility.yul\":11366:11385   */\n      swap1\n      pop\n        /* \"#utility.yul\":11171:11391   */\n      swap2\n      swap1\n      pop\n      jump\t// out\n        /* \"#utility.yul\":11397:11797   */\n    tag_506:\n      0x00\n        /* \"#utility.yul\":11578:11662   */\n      tag_508\n        /* \"#utility.yul\":11660:11661   */\n      0x08\n        /* \"#utility.yul\":11655:11658   */\n      dup4\n        /* \"#utility.yul\":11578:11662   */\n      tag_499\n      jump\t// in\n    tag_508:\n        /* \"#utility.yul\":11571:11662   */\n      swap2\n      pop\n        /* \"#utility.yul\":11671:11764   */\n      tag_509\n        /* \"#utility.yul\":11760:11763   */\n      dup3\n        /* \"#utility.yul\":11671:11764   */\n      tag_510\n      jump\t// in\n    tag_509:\n        /* \"#utility.yul\":11789:11790   */\n      0x08\n        /* \"#utility.yul\":11784:11787   */\n      dup3\n        /* \"#utility.yul\":11780:11791   */\n      add\n        /* \"#utility.yul\":11773:11791   */\n      swap1\n      pop\n        /* \"#utility.yul\":11561:11797   */\n      swap2\n      swap1\n      pop\n      jump\t// out\n        /* \"#utility.yul\":11803:12169   */\n    tag_511:\n      0x00\n        /* \"#utility.yul\":11966:12033   */\n      tag_513\n        /* \"#utility.yul\":12030:12032   */\n      0x36\n        /* \"#utility.yul\":12025:12028   */\n      dup4\n        /* \"#utility.yul\":11966:12033   */\n      tag_492\n      jump\t// in\n    tag_513:\n        /* \"#utility.yul\":11959:12033   */\n      swap2\n      pop\n        /* \"#utility.yul\":12042:12135   */\n      tag_514\n        /* \"#utility.yul\":12131:12134   */\n      dup3\n        /* \"#utility.yul\":12042:12135   */\n      tag_515\n      jump\t// in\n    tag_514:\n        /* \"#utility.yul\":12160:12162   */\n      0x40\n        /* \"#utility.yul\":12155:12158   */\n      dup3\n        /* \"#utility.yul\":12151:12163   */\n      add\n        /* \"#utility.yul\":12144:12163   */\n      swap1\n      pop\n        /* \"#utility.yul\":11949:12169   */\n      swap2\n      swap1\n      pop\n      jump\t// out\n        /* \"#utility.yul\":12175:12541   */\n    tag_516:\n      0x00\n        /* \"#utility.yul\":12338:12405   */\n      tag_518\n        /* \"#utility.yul\":12402:12404   */\n      0x1b\n        /* \"#utility.yul\":12397:12400   */\n      dup4\n        /* \"#utility.yul\":12338:12405   */\n      tag_492\n      jump\t// in\n    tag_518:\n        /* \"#utility.yul\":12331:12405   */\n      swap2\n      pop\n        /* \"#utility.yul\":12414:12507   */\n      tag_519\n        /* \"#utility.yul\":12503:12506   */\n      dup3\n        /* \"#utility.yul\":12414:12507   */\n      tag_520\n      jump\t// in\n    tag_519:\n        /* \"#utility.yul\":12532:12534   */\n      0x20\n        /* \"#utility.yul\":12527:12530   */\n      dup3\n        /* \"#utility.yul\":12523:12535   */\n      add\n        /* \"#utility.yul\":12516:12535   */\n      swap1\n      pop\n        /* \"#utility.yul\":12321:12541   */\n      swap2\n      swap1\n      pop\n      jump\t// out\n        /* \"#utility.yul\":12547:12913   */\n    tag_521:\n      0x00\n        /* \"#utility.yul\":12710:12777   */\n      tag_523\n        /* \"#utility.yul\":12774:12776   */\n      0x23\n        /* \"#utility.yul\":12769:12772   */\n      dup4\n        /* \"#utility.yul\":12710:12777   */\n      tag_492\n      jump\t// in\n    tag_523:\n        /* \"#utility.yul\":12703:12777   */\n      swap2\n      pop\n        /* \"#utility.yul\":12786:12879   */\n      tag_524\n        /* \"#utility.yul\":12875:12878   */\n      dup3\n        /* \"#utility.yul\":12786:12879   */\n      tag_525\n      jump\t// in\n    tag_524:\n        /* \"#utility.yul\":12904:12906   */\n      0x40\n        /* \"#utility.yul\":12899:12902   */\n      dup3\n        /* \"#utility.yul\":12895:12907   */\n      add\n        /* \"#utility.yul\":12888:12907   */\n      swap1\n      pop\n        /* \"#utility.yul\":12693:12913   */\n      swap2\n      swap1\n      pop\n      jump\t// out\n        /* \"#utility.yul\":12919:13285   */\n    tag_526:\n      0x00\n        /* \"#utility.yul\":13082:13149   */\n      tag_528\n        /* \"#utility.yul\":13146:13148   */\n      0x22\n        /* \"#utility.yul\":13141:13144   */\n      dup4\n        /* \"#utility.yul\":13082:13149   */\n      tag_492\n      jump\t// in\n    tag_528:\n        /* \"#utility.yul\":13075:13149   */\n      swap2\n      pop\n        /* \"#utility.yul\":13158:13251   */\n      tag_529\n        /* \"#utility.yul\":13247:13250   */\n      dup3\n        /* \"#utility.yul\":13158:13251   */\n      tag_530\n      jump\t// in\n    tag_529:\n        /* \"#utility.yul\":13276:13278   */\n      0x40\n        /* \"#utility.yul\":13271:13274   */\n      dup3\n        /* \"#utility.yul\":13267:13279   */\n      add\n        /* \"#utility.yul\":13260:13279   */\n      swap1\n      pop\n        /* \"#utility.yul\":13065:13285   */\n      swap2\n      swap1\n      pop\n      jump\t// out\n        /* \"#utility.yul\":13291:13691   */\n    tag_531:\n      0x00\n        /* \"#utility.yul\":13472:13556   */\n      tag_533\n        /* \"#utility.yul\":13554:13555   */\n      0x01\n        /* \"#utility.yul\":13549:13552   */\n      dup4\n        /* \"#utility.yul\":13472:13556   */\n      tag_499\n      jump\t// in\n    tag_533:\n        /* \"#utility.yul\":13465:13556   */\n      swap2\n      pop\n        /* \"#utility.yul\":13565:13658   */\n      tag_534\n        /* \"#utility.yul\":13654:13657   */\n      dup3\n        /* \"#utility.yul\":13565:13658   */\n      tag_535\n      jump\t// in\n    tag_534:\n        /* \"#utility.yul\":13683:13684   */\n      0x01\n        /* \"#utility.yul\":13678:13681   */\n      dup3\n        /* \"#utility.yul\":13674:13685   */\n      add\n        /* \"#utility.yul\":13667:13685   */\n      swap1\n      pop\n        /* \"#utility.yul\":13455:13691   */\n      swap2\n      swap1\n      pop\n      jump\t// out\n        /* \"#utility.yul\":13697:14099   */\n    tag_536:\n      0x00\n        /* \"#utility.yul\":13878:13963   */\n      tag_538\n        /* \"#utility.yul\":13960:13962   */\n      0x30\n        /* \"#utility.yul\":13955:13958   */\n      dup4\n        /* \"#utility.yul\":13878:13963   */\n      tag_499\n      jump\t// in\n    tag_538:\n        /* \"#utility.yul\":13871:13963   */\n      swap2\n      pop\n        /* \"#utility.yul\":13972:14065   */\n      tag_539\n        /* \"#utility.yul\":14061:14064   */\n      dup3\n        /* \"#utility.yul\":13972:14065   */\n      tag_540\n      jump\t// in\n    tag_539:\n        /* \"#utility.yul\":14090:14092   */\n      0x30\n        /* \"#utility.yul\":14085:14088   */\n      dup3\n        /* \"#utility.yul\":14081:14093   */\n      add\n        /* \"#utility.yul\":14074:14093   */\n      swap1\n      pop\n        /* \"#utility.yul\":13861:14099   */\n      swap2\n      swap1\n      pop\n      jump\t// out\n        /* \"#utility.yul\":14105:14471   */\n    tag_541:\n      0x00\n        /* \"#utility.yul\":14268:14335   */\n      tag_543\n        /* \"#utility.yul\":14332:14334   */\n      0x1f\n        /* \"#utility.yul\":14327:14330   */\n      dup4\n        /* \"#utility.yul\":14268:14335   */\n      tag_492\n      jump\t// in\n    tag_543:\n        /* \"#utility.yul\":14261:14335   */\n      swap2\n      pop\n        /* \"#utility.yul\":14344:14437   */\n      tag_544\n        /* \"#utility.yul\":14433:14436   */\n      dup3\n        /* \"#utility.yul\":14344:14437   */\n      tag_545\n      jump\t// in\n    tag_544:\n        /* \"#utility.yul\":14462:14464   */\n      0x20\n        /* \"#utility.yul\":14457:14460   */\n      dup3\n        /* \"#utility.yul\":14453:14465   */\n      add\n        /* \"#utility.yul\":14446:14465   */\n      swap1\n      pop\n        /* \"#utility.yul\":14251:14471   */\n      swap2\n      swap1\n      pop\n      jump\t// out\n        /* \"#utility.yul\":14477:14879   */\n    tag_546:\n      0x00\n        /* \"#utility.yul\":14658:14743   */\n      tag_548\n        /* \"#utility.yul\":14740:14742   */\n      0x17\n        /* \"#utility.yul\":14735:14738   */\n      dup4\n        /* \"#utility.yul\":14658:14743   */\n      tag_499\n      jump\t// in\n    tag_548:\n        /* \"#utility.yul\":14651:14743   */\n      swap2\n      pop\n        /* \"#utility.yul\":14752:14845   */\n      tag_549\n        /* \"#utility.yul\":14841:14844   */\n      dup3\n        /* \"#utility.yul\":14752:14845   */\n      tag_550\n      jump\t// in\n    tag_549:\n        /* \"#utility.yul\":14870:14872   */\n      0x17\n        /* \"#utility.yul\":14865:14868   */\n      dup3\n        /* \"#utility.yul\":14861:14873   */\n      add\n        /* \"#utility.yul\":14854:14873   */\n      swap1\n      pop\n        /* \"#utility.yul\":14641:14879   */\n      swap2\n      swap1\n      pop\n      jump\t// out\n        /* \"#utility.yul\":14885:15287   */\n    tag_551:\n      0x00\n        /* \"#utility.yul\":15066:15151   */\n      tag_553\n        /* \"#utility.yul\":15148:15150   */\n      0x11\n        /* \"#utility.yul\":15143:15146   */\n      dup4\n        /* \"#utility.yul\":15066:15151   */\n      tag_499\n      jump\t// in\n    tag_553:\n        /* \"#utility.yul\":15059:15151   */\n      swap2\n      pop\n        /* \"#utility.yul\":15160:15253   */\n      tag_554\n        /* \"#utility.yul\":15249:15252   */\n      dup3\n        /* \"#utility.yul\":15160:15253   */\n      tag_555\n      jump\t// in\n    tag_554:\n        /* \"#utility.yul\":15278:15280   */\n      0x11\n        /* \"#utility.yul\":15273:15276   */\n      dup3\n        /* \"#utility.yul\":15269:15281   */\n      add\n        /* \"#utility.yul\":15262:15281   */\n      swap1\n      pop\n        /* \"#utility.yul\":15049:15287   */\n      swap2\n      swap1\n      pop\n      jump\t// out\n        /* \"#utility.yul\":15293:15659   */\n    tag_556:\n      0x00\n        /* \"#utility.yul\":15456:15523   */\n      tag_558\n        /* \"#utility.yul\":15520:15522   */\n      0x2f\n        /* \"#utility.yul\":15515:15518   */\n      dup4\n        /* \"#utility.yul\":15456:15523   */\n      tag_492\n      jump\t// in\n    tag_558:\n        /* \"#utility.yul\":15449:15523   */\n      swap2\n      pop\n        /* \"#utility.yul\":15532:15625   */\n      tag_559\n        /* \"#utility.yul\":15621:15624   */\n      dup3\n        /* \"#utility.yul\":15532:15625   */\n      tag_560\n      jump\t// in\n    tag_559:\n        /* \"#utility.yul\":15650:15652   */\n      0x40\n        /* \"#utility.yul\":15645:15648   */\n      dup3\n        /* \"#utility.yul\":15641:15653   */\n      add\n        /* \"#utility.yul\":15634:15653   */\n      swap1\n      pop\n        /* \"#utility.yul\":15439:15659   */\n      swap2\n      swap1\n      pop\n      jump\t// out\n        /* \"#utility.yul\":15665:15773   */\n    tag_421:\n        /* \"#utility.yul\":15742:15766   */\n      tag_562\n        /* \"#utility.yul\":15760:15765   */\n      dup2\n        /* \"#utility.yul\":15742:15766   */\n      tag_563\n      jump\t// in\n    tag_562:\n        /* \"#utility.yul\":15737:15740   */\n      dup3\n        /* \"#utility.yul\":15730:15767   */\n      mstore\n        /* \"#utility.yul\":15720:15773   */\n      pop\n      pop\n      jump\t// out\n        /* \"#utility.yul\":15779:15897   */\n    tag_564:\n        /* \"#utility.yul\":15866:15890   */\n      tag_566\n        /* \"#utility.yul\":15884:15889   */\n      dup2\n        /* \"#utility.yul\":15866:15890   */\n      tag_563\n      jump\t// in\n    tag_566:\n        /* \"#utility.yul\":15861:15864   */\n      dup3\n        /* \"#utility.yul\":15854:15891   */\n      mstore\n        /* \"#utility.yul\":15844:15897   */\n      pop\n      pop\n      jump\t// out\n        /* \"#utility.yul\":15903:16060   */\n    tag_567:\n        /* \"#utility.yul\":16008:16053   */\n      tag_569\n        /* \"#utility.yul\":16028:16052   */\n      tag_570\n        /* \"#utility.yul\":16046:16051   */\n      dup3\n        /* \"#utility.yul\":16028:16052   */\n      tag_563\n      jump\t// in\n    tag_570:\n        /* \"#utility.yul\":16008:16053   */\n      tag_571\n      jump\t// in\n    tag_569:\n        /* \"#utility.yul\":16003:16006   */\n      dup3\n        /* \"#utility.yul\":15996:16054   */\n      mstore\n        /* \"#utility.yul\":15986:16060   */\n      pop\n      pop\n      jump\t// out\n        /* \"#utility.yul\":16066:17261   */\n    tag_215:\n      0x00\n        /* \"#utility.yul\":16531:16679   */\n      tag_573\n        /* \"#utility.yul\":16675:16678   */\n      dup3\n        /* \"#utility.yul\":16531:16679   */\n      tag_506\n      jump\t// in\n    tag_573:\n        /* \"#utility.yul\":16524:16679   */\n      swap2\n      pop\n        /* \"#utility.yul\":16689:16764   */\n      tag_574\n        /* \"#utility.yul\":16760:16763   */\n      dup3\n        /* \"#utility.yul\":16751:16757   */\n      dup6\n        /* \"#utility.yul\":16689:16764   */\n      tag_426\n      jump\t// in\n    tag_574:\n        /* \"#utility.yul\":16789:16791   */\n      0x14\n        /* \"#utility.yul\":16784:16787   */\n      dup3\n        /* \"#utility.yul\":16780:16792   */\n      add\n        /* \"#utility.yul\":16773:16792   */\n      swap2\n      pop\n        /* \"#utility.yul\":16809:16957   */\n      tag_575\n        /* \"#utility.yul\":16953:16956   */\n      dup3\n        /* \"#utility.yul\":16809:16957   */\n      tag_536\n      jump\t// in\n    tag_575:\n        /* \"#utility.yul\":16802:16957   */\n      swap2\n      pop\n        /* \"#utility.yul\":16967:17042   */\n      tag_576\n        /* \"#utility.yul\":17038:17041   */\n      dup3\n        /* \"#utility.yul\":17029:17035   */\n      dup5\n        /* \"#utility.yul\":16967:17042   */\n      tag_567\n      jump\t// in\n    tag_576:\n        /* \"#utility.yul\":17067:17069   */\n      0x20\n        /* \"#utility.yul\":17062:17065   */\n      dup3\n        /* \"#utility.yul\":17058:17070   */\n      add\n        /* \"#utility.yul\":17051:17070   */\n      swap2\n      pop\n        /* \"#utility.yul\":17087:17235   */\n      tag_577\n        /* \"#utility.yul\":17231:17234   */\n      dup3\n        /* \"#utility.yul\":17087:17235   */\n      tag_531\n      jump\t// in\n    tag_577:\n        /* \"#utility.yul\":17080:17235   */\n      swap2\n      pop\n        /* \"#utility.yul\":17252:17255   */\n      dup2\n        /* \"#utility.yul\":17245:17255   */\n      swap1\n      pop\n        /* \"#utility.yul\":16513:17261   */\n      swap4\n      swap3\n      pop\n      pop\n      pop\n      jump\t// out\n        /* \"#utility.yul\":17267:18234   */\n    tag_265:\n      0x00\n        /* \"#utility.yul\":17671:17819   */\n      tag_579\n        /* \"#utility.yul\":17815:17818   */\n      dup3\n        /* \"#utility.yul\":17671:17819   */\n      tag_546\n      jump\t// in\n    tag_579:\n        /* \"#utility.yul\":17664:17819   */\n      swap2\n      pop\n        /* \"#utility.yul\":17836:17931   */\n      tag_580\n        /* \"#utility.yul\":17927:17930   */\n      dup3\n        /* \"#utility.yul\":17918:17924   */\n      dup6\n        /* \"#utility.yul\":17836:17931   */\n      tag_495\n      jump\t// in\n    tag_580:\n        /* \"#utility.yul\":17829:17931   */\n      swap2\n      pop\n        /* \"#utility.yul\":17948:18096   */\n      tag_581\n        /* \"#utility.yul\":18092:18095   */\n      dup3\n        /* \"#utility.yul\":17948:18096   */\n      tag_551\n      jump\t// in\n    tag_581:\n        /* \"#utility.yul\":17941:18096   */\n      swap2\n      pop\n        /* \"#utility.yul\":18113:18208   */\n      tag_582\n        /* \"#utility.yul\":18204:18207   */\n      dup3\n        /* \"#utility.yul\":18195:18201   */\n      dup5\n        /* \"#utility.yul\":18113:18208   */\n      tag_495\n      jump\t// in\n    tag_582:\n        /* \"#utility.yul\":18106:18208   */\n      swap2\n      pop\n        /* \"#utility.yul\":18225:18228   */\n      dup2\n        /* \"#utility.yul\":18218:18228   */\n      swap1\n      pop\n        /* \"#utility.yul\":17653:18234   */\n      swap4\n      swap3\n      pop\n      pop\n      pop\n      jump\t// out\n        /* \"#utility.yul\":18240:18462   */\n    tag_114:\n      0x00\n        /* \"#utility.yul\":18371:18373   */\n      0x20\n        /* \"#utility.yul\":18360:18369   */\n      dup3\n        /* \"#utility.yul\":18356:18374   */\n      add\n        /* \"#utility.yul\":18348:18374   */\n      swap1\n      pop\n        /* \"#utility.yul\":18384:18455   */\n      tag_584\n        /* \"#utility.yul\":18452:18453   */\n      0x00\n        /* \"#utility.yul\":18441:18450   */\n      dup4\n        /* \"#utility.yul\":18437:18454   */\n      add\n        /* \"#utility.yul\":18428:18434   */\n      dup5\n        /* \"#utility.yul\":18384:18455   */\n      tag_422\n      jump\t// in\n    tag_584:\n        /* \"#utility.yul\":18338:18462   */\n      swap3\n      swap2\n      pop\n      pop\n      jump\t// out\n        /* \"#utility.yul\":18468:18800   */\n    tag_208:\n      0x00\n        /* \"#utility.yul\":18627:18629   */\n      0x40\n        /* \"#utility.yul\":18616:18625   */\n      dup3\n        /* \"#utility.yul\":18612:18630   */\n      add\n        /* \"#utility.yul\":18604:18630   */\n      swap1\n      pop\n        /* \"#utility.yul\":18640:18711   */\n      tag_586\n        /* \"#utility.yul\":18708:18709   */\n      0x00\n        /* \"#utility.yul\":18697:18706   */\n      dup4\n        /* \"#utility.yul\":18693:18710   */\n      add\n        /* \"#utility.yul\":18684:18690   */\n      dup6\n        /* \"#utility.yul\":18640:18711   */\n      tag_422\n      jump\t// in\n    tag_586:\n        /* \"#utility.yul\":18721:18793   */\n      tag_587\n        /* \"#utility.yul\":18789:18791   */\n      0x20\n        /* \"#utility.yul\":18778:18787   */\n      dup4\n        /* \"#utility.yul\":18774:18792   */\n      add\n        /* \"#utility.yul\":18765:18771   */\n      dup5\n        /* \"#utility.yul\":18721:18793   */\n      tag_564\n      jump\t// in\n    tag_587:\n        /* \"#utility.yul\":18594:18800   */\n      swap4\n      swap3\n      pop\n      pop\n      pop\n      jump\t// out\n        /* \"#utility.yul\":18806:19480   */\n    tag_252:\n      0x00\n        /* \"#utility.yul\":19085:19087   */\n      0x40\n        /* \"#utility.yul\":19074:19083   */\n      dup3\n        /* \"#utility.yul\":19070:19088   */\n      add\n        /* \"#utility.yul\":19062:19088   */\n      swap1\n      pop\n        /* \"#utility.yul\":19134:19143   */\n      dup2\n        /* \"#utility.yul\":19128:19132   */\n      dup2\n        /* \"#utility.yul\":19124:19144   */\n      sub\n        /* \"#utility.yul\":19120:19121   */\n      0x00\n        /* \"#utility.yul\":19109:19118   */\n      dup4\n        /* \"#utility.yul\":19105:19122   */\n      add\n        /* \"#utility.yul\":19098:19145   */\n      mstore\n        /* \"#utility.yul\":19162:19270   */\n      tag_589\n        /* \"#utility.yul\":19265:19269   */\n      dup2\n        /* \"#utility.yul\":19256:19262   */\n      dup6\n        /* \"#utility.yul\":19162:19270   */\n      tag_445\n      jump\t// in\n    tag_589:\n        /* \"#utility.yul\":19154:19270   */\n      swap1\n      pop\n        /* \"#utility.yul\":19317:19326   */\n      dup2\n        /* \"#utility.yul\":19311:19315   */\n      dup2\n        /* \"#utility.yul\":19307:19327   */\n      sub\n        /* \"#utility.yul\":19302:19304   */\n      0x20\n        /* \"#utility.yul\":19291:19300   */\n      dup4\n        /* \"#utility.yul\":19287:19305   */\n      add\n        /* \"#utility.yul\":19280:19328   */\n      mstore\n        /* \"#utility.yul\":19345:19473   */\n      tag_590\n        /* \"#utility.yul\":19468:19472   */\n      dup2\n        /* \"#utility.yul\":19459:19465   */\n      dup5\n        /* \"#utility.yul\":19345:19473   */\n      tag_431\n      jump\t// in\n    tag_590:\n        /* \"#utility.yul\":19337:19473   */\n      swap1\n      pop\n        /* \"#utility.yul\":19052:19480   */\n      swap4\n      swap3\n      pop\n      pop\n      pop\n      jump\t// out\n        /* \"#utility.yul\":19486:19696   */\n    tag_37:\n      0x00\n        /* \"#utility.yul\":19611:19613   */\n      0x20\n        /* \"#utility.yul\":19600:19609   */\n      dup3\n        /* \"#utility.yul\":19596:19614   */\n      add\n        /* \"#utility.yul\":19588:19614   */\n      swap1\n      pop\n        /* \"#utility.yul\":19624:19689   */\n      tag_592\n        /* \"#utility.yul\":19686:19687   */\n      0x00\n        /* \"#utility.yul\":19675:19684   */\n      dup4\n        /* \"#utility.yul\":19671:19688   */\n      add\n        /* \"#utility.yul\":19662:19668   */\n      dup5\n        /* \"#utility.yul\":19624:19689   */\n      tag_459\n      jump\t// in\n    tag_592:\n        /* \"#utility.yul\":19578:19696   */\n      swap3\n      swap2\n      pop\n      pop\n      jump\t// out\n        /* \"#utility.yul\":19702:19924   */\n    tag_43:\n      0x00\n        /* \"#utility.yul\":19833:19835   */\n      0x20\n        /* \"#utility.yul\":19822:19831   */\n      dup3\n        /* \"#utility.yul\":19818:19836   */\n      add\n        /* \"#utility.yul\":19810:19836   */\n      swap1\n      pop\n        /* \"#utility.yul\":19846:19917   */\n      tag_594\n        /* \"#utility.yul\":19914:19915   */\n      0x00\n        /* \"#utility.yul\":19903:19912   */\n      dup4\n        /* \"#utility.yul\":19899:19916   */\n      add\n        /* \"#utility.yul\":19890:19896   */\n      dup5\n        /* \"#utility.yul\":19846:19917   */\n      tag_463\n      jump\t// in\n    tag_594:\n        /* \"#utility.yul\":19800:19924   */\n      swap3\n      swap2\n      pop\n      pop\n      jump\t// out\n        /* \"#utility.yul\":19930:20192   */\n    tag_79:\n      0x00\n        /* \"#utility.yul\":20081:20083   */\n      0x20\n        /* \"#utility.yul\":20070:20079   */\n      dup3\n        /* \"#utility.yul\":20066:20084   */\n      add\n        /* \"#utility.yul\":20058:20084   */\n      swap1\n      pop\n        /* \"#utility.yul\":20094:20185   */\n      tag_596\n        /* \"#utility.yul\":20182:20183   */\n      0x00\n        /* \"#utility.yul\":20171:20180   */\n      dup4\n        /* \"#utility.yul\":20167:20184   */\n      add\n        /* \"#utility.yul\":20158:20164   */\n      dup5\n        /* \"#utility.yul\":20094:20185   */\n      tag_467\n      jump\t// in\n    tag_596:\n        /* \"#utility.yul\":20048:20192   */\n      swap3\n      swap2\n      pop\n      pop\n      jump\t// out\n        /* \"#utility.yul\":20198:20480   */\n    tag_69:\n      0x00\n        /* \"#utility.yul\":20359:20361   */\n      0x20\n        /* \"#utility.yul\":20348:20357   */\n      dup3\n        /* \"#utility.yul\":20344:20362   */\n      add\n        /* \"#utility.yul\":20336:20362   */\n      swap1\n      pop\n        /* \"#utility.yul\":20372:20473   */\n      tag_598\n        /* \"#utility.yul\":20470:20471   */\n      0x00\n        /* \"#utility.yul\":20459:20468   */\n      dup4\n        /* \"#utility.yul\":20455:20472   */\n      add\n        /* \"#utility.yul\":20446:20452   */\n      dup5\n        /* \"#utility.yul\":20372:20473   */\n      tag_471\n      jump\t// in\n    tag_598:\n        /* \"#utility.yul\":20326:20480   */\n      swap3\n      swap2\n      pop\n      pop\n      jump\t// out\n        /* \"#utility.yul\":20486:20748   */\n    tag_110:\n      0x00\n        /* \"#utility.yul\":20637:20639   */\n      0x20\n        /* \"#utility.yul\":20626:20635   */\n      dup3\n        /* \"#utility.yul\":20622:20640   */\n      add\n        /* \"#utility.yul\":20614:20640   */\n      swap1\n      pop\n        /* \"#utility.yul\":20650:20741   */\n      tag_600\n        /* \"#utility.yul\":20738:20739   */\n      0x00\n        /* \"#utility.yul\":20727:20736   */\n      dup4\n        /* \"#utility.yul\":20723:20740   */\n      add\n        /* \"#utility.yul\":20714:20720   */\n      dup5\n        /* \"#utility.yul\":20650:20741   */\n      tag_475\n      jump\t// in\n    tag_600:\n        /* \"#utility.yul\":20604:20748   */\n      swap3\n      swap2\n      pop\n      pop\n      jump\t// out\n        /* \"#utility.yul\":20754:21067   */\n    tag_218:\n      0x00\n        /* \"#utility.yul\":20905:20907   */\n      0x20\n        /* \"#utility.yul\":20894:20903   */\n      dup3\n        /* \"#utility.yul\":20890:20908   */\n      add\n        /* \"#utility.yul\":20882:20908   */\n      swap1\n      pop\n        /* \"#utility.yul\":20954:20963   */\n      dup2\n        /* \"#utility.yul\":20948:20952   */\n      dup2\n        /* \"#utility.yul\":20944:20964   */\n      sub\n        /* \"#utility.yul\":20940:20941   */\n      0x00\n        /* \"#utility.yul\":20929:20938   */\n      dup4\n        /* \"#utility.yul\":20925:20942   */\n      add\n        /* \"#utility.yul\":20918:20965   */\n      mstore\n        /* \"#utility.yul\":20982:21060   */\n      tag_602\n        /* \"#utility.yul\":21055:21059   */\n      dup2\n        /* \"#utility.yul\":21046:21052   */\n      dup5\n        /* \"#utility.yul\":20982:21060   */\n      tag_488\n      jump\t// in\n    tag_602:\n        /* \"#utility.yul\":20974:21060   */\n      swap1\n      pop\n        /* \"#utility.yul\":20872:21067   */\n      swap3\n      swap2\n      pop\n      pop\n      jump\t// out\n        /* \"#utility.yul\":21073:21492   */\n    tag_317:\n      0x00\n        /* \"#utility.yul\":21277:21279   */\n      0x20\n        /* \"#utility.yul\":21266:21275   */\n      dup3\n        /* \"#utility.yul\":21262:21280   */\n      add\n        /* \"#utility.yul\":21254:21280   */\n      swap1\n      pop\n        /* \"#utility.yul\":21326:21335   */\n      dup2\n        /* \"#utility.yul\":21320:21324   */\n      dup2\n        /* \"#utility.yul\":21316:21336   */\n      sub\n        /* \"#utility.yul\":21312:21313   */\n      0x00\n        /* \"#utility.yul\":21301:21310   */\n      dup4\n        /* \"#utility.yul\":21297:21314   */\n      add\n        /* \"#utility.yul\":21290:21337   */\n      mstore\n        /* \"#utility.yul\":21354:21485   */\n      tag_604\n        /* \"#utility.yul\":21480:21484   */\n      dup2\n        /* \"#utility.yul\":21354:21485   */\n      tag_501\n      jump\t// in\n    tag_604:\n        /* \"#utility.yul\":21346:21485   */\n      swap1\n      pop\n        /* \"#utility.yul\":21244:21492   */\n      swap2\n      swap1\n      pop\n      jump\t// out\n        /* \"#utility.yul\":21498:21917   */\n    tag_176:\n      0x00\n        /* \"#utility.yul\":21702:21704   */\n      0x20\n        /* \"#utility.yul\":21691:21700   */\n      dup3\n        /* \"#utility.yul\":21687:21705   */\n      add\n        /* \"#utility.yul\":21679:21705   */\n      swap1\n      pop\n        /* \"#utility.yul\":21751:21760   */\n      dup2\n        /* \"#utility.yul\":21745:21749   */\n      dup2\n        /* \"#utility.yul\":21741:21761   */\n      sub\n        /* \"#utility.yul\":21737:21738   */\n      0x00\n        /* \"#utility.yul\":21726:21735   */\n      dup4\n        /* \"#utility.yul\":21722:21739   */\n      add\n        /* \"#utility.yul\":21715:21762   */\n      mstore\n        /* \"#utility.yul\":21779:21910   */\n      tag_606\n        /* \"#utility.yul\":21905:21909   */\n      dup2\n        /* \"#utility.yul\":21779:21910   */\n      tag_511\n      jump\t// in\n    tag_606:\n        /* \"#utility.yul\":21771:21910   */\n      swap1\n      pop\n        /* \"#utility.yul\":21669:21917   */\n      swap2\n      swap1\n      pop\n      jump\t// out\n        /* \"#utility.yul\":21923:22342   */\n    tag_171:\n      0x00\n        /* \"#utility.yul\":22127:22129   */\n      0x20\n        /* \"#utility.yul\":22116:22125   */\n      dup3\n        /* \"#utility.yul\":22112:22130   */\n      add\n        /* \"#utility.yul\":22104:22130   */\n      swap1\n      pop\n        /* \"#utility.yul\":22176:22185   */\n      dup2\n        /* \"#utility.yul\":22170:22174   */\n      dup2\n        /* \"#utility.yul\":22166:22186   */\n      sub\n        /* \"#utility.yul\":22162:22163   */\n      0x00\n        /* \"#utility.yul\":22151:22160   */\n      dup4\n        /* \"#utility.yul\":22147:22164   */\n      add\n        /* \"#utility.yul\":22140:22187   */\n      mstore\n        /* \"#utility.yul\":22204:22335   */\n      tag_608\n        /* \"#utility.yul\":22330:22334   */\n      dup2\n        /* \"#utility.yul\":22204:22335   */\n      tag_516\n      jump\t// in\n    tag_608:\n        /* \"#utility.yul\":22196:22335   */\n      swap1\n      pop\n        /* \"#utility.yul\":22094:22342   */\n      swap2\n      swap1\n      pop\n      jump\t// out\n        /* \"#utility.yul\":22348:22767   */\n    tag_198:\n      0x00\n        /* \"#utility.yul\":22552:22554   */\n      0x20\n        /* \"#utility.yul\":22541:22550   */\n      dup3\n        /* \"#utility.yul\":22537:22555   */\n      add\n        /* \"#utility.yul\":22529:22555   */\n      swap1\n      pop\n        /* \"#utility.yul\":22601:22610   */\n      dup2\n        /* \"#utility.yul\":22595:22599   */\n      dup2\n        /* \"#utility.yul\":22591:22611   */\n      sub\n        /* \"#utility.yul\":22587:22588   */\n      0x00\n        /* \"#utility.yul\":22576:22585   */\n      dup4\n        /* \"#utility.yul\":22572:22589   */\n      add\n        /* \"#utility.yul\":22565:22612   */\n      mstore\n        /* \"#utility.yul\":22629:22760   */\n      tag_610\n        /* \"#utility.yul\":22755:22759   */\n      dup2\n        /* \"#utility.yul\":22629:22760   */\n      tag_521\n      jump\t// in\n    tag_610:\n        /* \"#utility.yul\":22621:22760   */\n      swap1\n      pop\n        /* \"#utility.yul\":22519:22767   */\n      swap2\n      swap1\n      pop\n      jump\t// out\n        /* \"#utility.yul\":22773:23192   */\n    tag_250:\n      0x00\n        /* \"#utility.yul\":22977:22979   */\n      0x20\n        /* \"#utility.yul\":22966:22975   */\n      dup3\n        /* \"#utility.yul\":22962:22980   */\n      add\n        /* \"#utility.yul\":22954:22980   */\n      swap1\n      pop\n        /* \"#utility.yul\":23026:23035   */\n      dup2\n        /* \"#utility.yul\":23020:23024   */\n      dup2\n        /* \"#utility.yul\":23016:23036   */\n      sub\n        /* \"#utility.yul\":23012:23013   */\n      0x00\n        /* \"#utility.yul\":23001:23010   */\n      dup4\n        /* \"#utility.yul\":22997:23014   */\n      add\n        /* \"#utility.yul\":22990:23037   */\n      mstore\n        /* \"#utility.yul\":23054:23185   */\n      tag_612\n        /* \"#utility.yul\":23180:23184   */\n      dup2\n        /* \"#utility.yul\":23054:23185   */\n      tag_526\n      jump\t// in\n    tag_612:\n        /* \"#utility.yul\":23046:23185   */\n      swap1\n      pop\n        /* \"#utility.yul\":22944:23192   */\n      swap2\n      swap1\n      pop\n      jump\t// out\n        /* \"#utility.yul\":23198:23617   */\n    tag_278:\n      0x00\n        /* \"#utility.yul\":23402:23404   */\n      0x20\n        /* \"#utility.yul\":23391:23400   */\n      dup3\n        /* \"#utility.yul\":23387:23405   */\n      add\n        /* \"#utility.yul\":23379:23405   */\n      swap1\n      pop\n        /* \"#utility.yul\":23451:23460   */\n      dup2\n        /* \"#utility.yul\":23445:23449   */\n      dup2\n        /* \"#utility.yul\":23441:23461   */\n      sub\n        /* \"#utility.yul\":23437:23438   */\n      0x00\n        /* \"#utility.yul\":23426:23435   */\n      dup4\n        /* \"#utility.yul\":23422:23439   */\n      add\n        /* \"#utility.yul\":23415:23462   */\n      mstore\n        /* \"#utility.yul\":23479:23610   */\n      tag_614\n        /* \"#utility.yul\":23605:23609   */\n      dup2\n        /* \"#utility.yul\":23479:23610   */\n      tag_541\n      jump\t// in\n    tag_614:\n        /* \"#utility.yul\":23471:23610   */\n      swap1\n      pop\n        /* \"#utility.yul\":23369:23617   */\n      swap2\n      swap1\n      pop\n      jump\t// out\n        /* \"#utility.yul\":23623:24042   */\n    tag_143:\n      0x00\n        /* \"#utility.yul\":23827:23829   */\n      0x20\n        /* \"#utility.yul\":23816:23825   */\n      dup3\n        /* \"#utility.yul\":23812:23830   */\n      add\n        /* \"#utility.yul\":23804:23830   */\n      swap1\n      pop\n        /* \"#utility.yul\":23876:23885   */\n      dup2\n        /* \"#utility.yul\":23870:23874   */\n      dup2\n        /* \"#utility.yul\":23866:23886   */\n      sub\n        /* \"#utility.yul\":23862:23863   */\n      0x00\n        /* \"#utility.yul\":23851:23860   */\n      dup4\n        /* \"#utility.yul\":23847:23864   */\n      add\n        /* \"#utility.yul\":23840:23887   */\n      mstore\n        /* \"#utility.yul\":23904:24035   */\n      tag_616\n        /* \"#utility.yul\":24030:24034   */\n      dup2\n        /* \"#utility.yul\":23904:24035   */\n      tag_556\n      jump\t// in\n    tag_616:\n        /* \"#utility.yul\":23896:24035   */\n      swap1\n      pop\n        /* \"#utility.yul\":23794:24042   */\n      swap2\n      swap1\n      pop\n      jump\t// out\n        /* \"#utility.yul\":24048:24270   */\n    tag_54:\n      0x00\n        /* \"#utility.yul\":24179:24181   */\n      0x20\n        /* \"#utility.yul\":24168:24177   */\n      dup3\n        /* \"#utility.yul\":24164:24182   */\n      add\n        /* \"#utility.yul\":24156:24182   */\n      swap1\n      pop\n        /* \"#utility.yul\":24192:24263   */\n      tag_618\n        /* \"#utility.yul\":24260:24261   */\n      0x00\n        /* \"#utility.yul\":24249:24258   */\n      dup4\n        /* \"#utility.yul\":24245:24262   */\n      add\n        /* \"#utility.yul\":24236:24242   */\n      dup5\n        /* \"#utility.yul\":24192:24263   */\n      tag_564\n      jump\t// in\n    tag_618:\n        /* \"#utility.yul\":24146:24270   */\n      swap3\n      swap2\n      pop\n      pop\n      jump\t// out\n        /* \"#utility.yul\":24276:24706   */\n    tag_106:\n      0x00\n        /* \"#utility.yul\":24457:24459   */\n      0x60\n        /* \"#utility.yul\":24446:24455   */\n      dup3\n        /* \"#utility.yul\":24442:24460   */\n      add\n        /* \"#utility.yul\":24434:24460   */\n      swap1\n      pop\n        /* \"#utility.yul\":24470:24541   */\n      tag_620\n        /* \"#utility.yul\":24538:24539   */\n      0x00\n        /* \"#utility.yul\":24527:24536   */\n      dup4\n        /* \"#utility.yul\":24523:24540   */\n      add\n        /* \"#utility.yul\":24514:24520   */\n      dup7\n        /* \"#utility.yul\":24470:24541   */\n      tag_564\n      jump\t// in\n    tag_620:\n        /* \"#utility.yul\":24551:24623   */\n      tag_621\n        /* \"#utility.yul\":24619:24621   */\n      0x20\n        /* \"#utility.yul\":24608:24617   */\n      dup4\n        /* \"#utility.yul\":24604:24622   */\n      add\n        /* \"#utility.yul\":24595:24601   */\n      dup6\n        /* \"#utility.yul\":24551:24623   */\n      tag_564\n      jump\t// in\n    tag_621:\n        /* \"#utility.yul\":24633:24699   */\n      tag_622\n        /* \"#utility.yul\":24695:24697   */\n      0x40\n        /* \"#utility.yul\":24684:24693   */\n      dup4\n        /* \"#utility.yul\":24680:24698   */\n      add\n        /* \"#utility.yul\":24671:24677   */\n      dup5\n        /* \"#utility.yul\":24633:24699   */\n      tag_459\n      jump\t// in\n    tag_622:\n        /* \"#utility.yul\":24424:24706   */\n      swap5\n      swap4\n      pop\n      pop\n      pop\n      pop\n      jump\t// out\n        /* \"#utility.yul\":24712:24841   */\n    tag_324:\n      0x00\n        /* \"#utility.yul\":24773:24793   */\n      tag_624\n      tag_625\n      jump\t// in\n    tag_624:\n        /* \"#utility.yul\":24763:24793   */\n      swap1\n      pop\n        /* \"#utility.yul\":24802:24835   */\n      tag_626\n        /* \"#utility.yul\":24830:24834   */\n      dup3\n        /* \"#utility.yul\":24822:24828   */\n      dup3\n        /* \"#utility.yul\":24802:24835   */\n      tag_627\n      jump\t// in\n    tag_626:\n        /* \"#utility.yul\":24753:24841   */\n      swap2\n      swap1\n      pop\n      jump\t// out\n        /* \"#utility.yul\":24847:24922   */\n    tag_625:\n      0x00\n        /* \"#utility.yul\":24913:24915   */\n      0x40\n        /* \"#utility.yul\":24907:24916   */\n      mload\n        /* \"#utility.yul\":24897:24916   */\n      swap1\n      pop\n        /* \"#utility.yul\":24887:24922   */\n      swap1\n      jump\t// out\n        /* \"#utility.yul\":24928:25249   */\n    tag_323:\n      0x00\n        /* \"#utility.yul\":25105:25123   */\n      0xffffffffffffffff\n        /* \"#utility.yul\":25097:25103   */\n      dup3\n        /* \"#utility.yul\":25094:25124   */\n      gt\n        /* \"#utility.yul\":25091:25093   */\n      iszero\n      tag_630\n      jumpi\n        /* \"#utility.yul\":25127:25145   */\n      tag_631\n      tag_632\n      jump\t// in\n    tag_631:\n        /* \"#utility.yul\":25091:25093   */\n    tag_630:\n        /* \"#utility.yul\":25177:25181   */\n      0x20\n        /* \"#utility.yul\":25169:25175   */\n      dup3\n        /* \"#utility.yul\":25165:25182   */\n      mul\n        /* \"#utility.yul\":25157:25182   */\n      swap1\n      pop\n        /* \"#utility.yul\":25237:25241   */\n      0x20\n        /* \"#utility.yul\":25231:25235   */\n      dup2\n        /* \"#utility.yul\":25227:25242   */\n      add\n        /* \"#utility.yul\":25219:25242   */\n      swap1\n      pop\n        /* \"#utility.yul\":25020:25249   */\n      swap2\n      swap1\n      pop\n      jump\t// out\n        /* \"#utility.yul\":25255:25566   */\n    tag_334:\n      0x00\n        /* \"#utility.yul\":25422:25440   */\n      0xffffffffffffffff\n        /* \"#utility.yul\":25414:25420   */\n      dup3\n        /* \"#utility.yul\":25411:25441   */\n      gt\n        /* \"#utility.yul\":25408:25410   */\n      iszero\n      tag_634\n      jumpi\n        /* \"#utility.yul\":25444:25462   */\n      tag_635\n      tag_632\n      jump\t// in\n    tag_635:\n        /* \"#utility.yul\":25408:25410   */\n    tag_634:\n        /* \"#utility.yul\":25494:25498   */\n      0x20\n        /* \"#utility.yul\":25486:25492   */\n      dup3\n        /* \"#utility.yul\":25482:25499   */\n      mul\n        /* \"#utility.yul\":25474:25499   */\n      swap1\n      pop\n        /* \"#utility.yul\":25554:25558   */\n      0x20\n        /* \"#utility.yul\":25548:25552   */\n      dup2\n        /* \"#utility.yul\":25544:25559   */\n      add\n        /* \"#utility.yul\":25536:25559   */\n      swap1\n      pop\n        /* \"#utility.yul\":25337:25566   */\n      swap2\n      swap1\n      pop\n      jump\t// out\n        /* \"#utility.yul\":25572:25880   */\n    tag_345:\n      0x00\n        /* \"#utility.yul\":25724:25742   */\n      0xffffffffffffffff\n        /* \"#utility.yul\":25716:25722   */\n      dup3\n        /* \"#utility.yul\":25713:25743   */\n      gt\n        /* \"#utility.yul\":25710:25712   */\n      iszero\n      tag_637\n      jumpi\n        /* \"#utility.yul\":25746:25764   */\n      tag_638\n      tag_632\n      jump\t// in\n    tag_638:\n        /* \"#utility.yul\":25710:25712   */\n    tag_637:\n        /* \"#utility.yul\":25784:25813   */\n      tag_639\n        /* \"#utility.yul\":25806:25812   */\n      dup3\n        /* \"#utility.yul\":25784:25813   */\n      tag_487\n      jump\t// in\n    tag_639:\n        /* \"#utility.yul\":25776:25813   */\n      swap1\n      pop\n        /* \"#utility.yul\":25868:25872   */\n      0x20\n        /* \"#utility.yul\":25862:25866   */\n      dup2\n        /* \"#utility.yul\":25858:25873   */\n      add\n        /* \"#utility.yul\":25850:25873   */\n      swap1\n      pop\n        /* \"#utility.yul\":25639:25880   */\n      swap2\n      swap1\n      pop\n      jump\t// out\n        /* \"#utility.yul\":25886:26028   */\n    tag_438:\n      0x00\n        /* \"#utility.yul\":25986:25989   */\n      dup2\n        /* \"#utility.yul\":25978:25989   */\n      swap1\n      pop\n        /* \"#utility.yul\":26016:26020   */\n      0x20\n        /* \"#utility.yul\":26011:26014   */\n      dup3\n        /* \"#utility.yul\":26007:26021   */\n      add\n        /* \"#utility.yul\":25999:26021   */\n      swap1\n      pop\n        /* \"#utility.yul\":25968:26028   */\n      swap2\n      swap1\n      pop\n      jump\t// out\n        /* \"#utility.yul\":26034:26166   */\n    tag_452:\n      0x00\n        /* \"#utility.yul\":26124:26127   */\n      dup2\n        /* \"#utility.yul\":26116:26127   */\n      swap1\n      pop\n        /* \"#utility.yul\":26154:26158   */\n      0x20\n        /* \"#utility.yul\":26149:26152   */\n      dup3\n        /* \"#utility.yul\":26145:26159   */\n      add\n        /* \"#utility.yul\":26137:26159   */\n      swap1\n      pop\n        /* \"#utility.yul\":26106:26166   */\n      swap2\n      swap1\n      pop\n      jump\t// out\n        /* \"#utility.yul\":26172:26296   */\n    tag_434:\n      0x00\n        /* \"#utility.yul\":26283:26288   */\n      dup2\n        /* \"#utility.yul\":26277:26289   */\n      mload\n        /* \"#utility.yul\":26267:26289   */\n      swap1\n      pop\n        /* \"#utility.yul\":26256:26296   */\n      swap2\n      swap1\n      pop\n      jump\t// out\n        /* \"#utility.yul\":26302:26416   */\n    tag_448:\n      0x00\n        /* \"#utility.yul\":26403:26408   */\n      dup2\n        /* \"#utility.yul\":26397:26409   */\n      mload\n        /* \"#utility.yul\":26387:26409   */\n      swap1\n      pop\n        /* \"#utility.yul\":26376:26416   */\n      swap2\n      swap1\n      pop\n      jump\t// out\n        /* \"#utility.yul\":26422:26521   */\n    tag_481:\n      0x00\n        /* \"#utility.yul\":26508:26513   */\n      dup2\n        /* \"#utility.yul\":26502:26514   */\n      mload\n        /* \"#utility.yul\":26492:26514   */\n      swap1\n      pop\n        /* \"#utility.yul\":26481:26521   */\n      swap2\n      swap1\n      pop\n      jump\t// out\n        /* \"#utility.yul\":26527:26650   */\n    tag_444:\n      0x00\n        /* \"#utility.yul\":26639:26643   */\n      0x20\n        /* \"#utility.yul\":26634:26637   */\n      dup3\n        /* \"#utility.yul\":26630:26644   */\n      add\n        /* \"#utility.yul\":26622:26644   */\n      swap1\n      pop\n        /* \"#utility.yul\":26612:26650   */\n      swap2\n      swap1\n      pop\n      jump\t// out\n        /* \"#utility.yul\":26656:26769   */\n    tag_458:\n      0x00\n        /* \"#utility.yul\":26758:26762   */\n      0x20\n        /* \"#utility.yul\":26753:26756   */\n      dup3\n        /* \"#utility.yul\":26749:26763   */\n      add\n        /* \"#utility.yul\":26741:26763   */\n      swap1\n      pop\n        /* \"#utility.yul\":26731:26769   */\n      swap2\n      swap1\n      pop\n      jump\t// out\n        /* \"#utility.yul\":26775:26969   */\n    tag_436:\n      0x00\n        /* \"#utility.yul\":26918:26924   */\n      dup3\n        /* \"#utility.yul\":26913:26916   */\n      dup3\n        /* \"#utility.yul\":26906:26925   */\n      mstore\n        /* \"#utility.yul\":26958:26962   */\n      0x20\n        /* \"#utility.yul\":26953:26956   */\n      dup3\n        /* \"#utility.yul\":26949:26963   */\n      add\n        /* \"#utility.yul\":26934:26963   */\n      swap1\n      pop\n        /* \"#utility.yul\":26896:26969   */\n      swap3\n      swap2\n      pop\n      pop\n      jump\t// out\n        /* \"#utility.yul\":26975:27159   */\n    tag_450:\n      0x00\n        /* \"#utility.yul\":27108:27114   */\n      dup3\n        /* \"#utility.yul\":27103:27106   */\n      dup3\n        /* \"#utility.yul\":27096:27115   */\n      mstore\n        /* \"#utility.yul\":27148:27152   */\n      0x20\n        /* \"#utility.yul\":27143:27146   */\n      dup3\n        /* \"#utility.yul\":27139:27153   */\n      add\n        /* \"#utility.yul\":27124:27153   */\n      swap1\n      pop\n        /* \"#utility.yul\":27086:27159   */\n      swap3\n      swap2\n      pop\n      pop\n      jump\t// out\n        /* \"#utility.yul\":27165:27324   */\n    tag_483:\n      0x00\n        /* \"#utility.yul\":27273:27279   */\n      dup3\n        /* \"#utility.yul\":27268:27271   */\n      dup3\n        /* \"#utility.yul\":27261:27280   */\n      mstore\n        /* \"#utility.yul\":27313:27317   */\n      0x20\n        /* \"#utility.yul\":27308:27311   */\n      dup3\n        /* \"#utility.yul\":27304:27318   */\n      add\n        /* \"#utility.yul\":27289:27318   */\n      swap1\n      pop\n        /* \"#utility.yul\":27251:27324   */\n      swap3\n      swap2\n      pop\n      pop\n      jump\t// out\n        /* \"#utility.yul\":27330:27499   */\n    tag_492:\n      0x00\n        /* \"#utility.yul\":27448:27454   */\n      dup3\n        /* \"#utility.yul\":27443:27446   */\n      dup3\n        /* \"#utility.yul\":27436:27455   */\n      mstore\n        /* \"#utility.yul\":27488:27492   */\n      0x20\n        /* \"#utility.yul\":27483:27486   */\n      dup3\n        /* \"#utility.yul\":27479:27493   */\n      add\n        /* \"#utility.yul\":27464:27493   */\n      swap1\n      pop\n        /* \"#utility.yul\":27426:27499   */\n      swap3\n      swap2\n      pop\n      pop\n      jump\t// out\n        /* \"#utility.yul\":27505:27653   */\n    tag_499:\n      0x00\n        /* \"#utility.yul\":27644:27647   */\n      dup2\n        /* \"#utility.yul\":27629:27647   */\n      swap1\n      pop\n        /* \"#utility.yul\":27619:27653   */\n      swap3\n      swap2\n      pop\n      pop\n      jump\t// out\n        /* \"#utility.yul\":27659:27964   */\n    tag_302:\n      0x00\n        /* \"#utility.yul\":27718:27738   */\n      tag_653\n        /* \"#utility.yul\":27736:27737   */\n      dup3\n        /* \"#utility.yul\":27718:27738   */\n      tag_563\n      jump\t// in\n    tag_653:\n        /* \"#utility.yul\":27713:27738   */\n      swap2\n      pop\n        /* \"#utility.yul\":27752:27772   */\n      tag_654\n        /* \"#utility.yul\":27770:27771   */\n      dup4\n        /* \"#utility.yul\":27752:27772   */\n      tag_563\n      jump\t// in\n    tag_654:\n        /* \"#utility.yul\":27747:27772   */\n      swap3\n      pop\n        /* \"#utility.yul\":27906:27907   */\n      dup3\n        /* \"#utility.yul\":27838:27904   */\n      0xffffffffffffffffffffffffffffffffffffffffffffffffffffffffffffffff\n        /* \"#utility.yul\":27834:27908   */\n      sub\n        /* \"#utility.yul\":27831:27832   */\n      dup3\n        /* \"#utility.yul\":27828:27909   */\n      gt\n        /* \"#utility.yul\":27825:27827   */\n      iszero\n      tag_655\n      jumpi\n        /* \"#utility.yul\":27912:27930   */\n      tag_656\n      tag_657\n      jump\t// in\n    tag_656:\n        /* \"#utility.yul\":27825:27827   */\n    tag_655:\n        /* \"#utility.yul\":27956:27957   */\n      dup3\n        /* \"#utility.yul\":27953:27954   */\n      dup3\n        /* \"#utility.yul\":27949:27958   */\n      add\n        /* \"#utility.yul\":27942:27958   */\n      swap1\n      pop\n        /* \"#utility.yul\":27703:27964   */\n      swap3\n      swap2\n      pop\n      pop\n      jump\t// out\n        /* \"#utility.yul\":27970:28155   */\n    tag_221:\n      0x00\n        /* \"#utility.yul\":28027:28047   */\n      tag_659\n        /* \"#utility.yul\":28045:28046   */\n      dup3\n        /* \"#utility.yul\":28027:28047   */\n      tag_563\n      jump\t// in\n    tag_659:\n        /* \"#utility.yul\":28022:28047   */\n      swap2\n      pop\n        /* \"#utility.yul\":28061:28081   */\n      tag_660\n        /* \"#utility.yul\":28079:28080   */\n      dup4\n        /* \"#utility.yul\":28061:28081   */\n      tag_563\n      jump\t// in\n    tag_660:\n        /* \"#utility.yul\":28056:28081   */\n      swap3\n      pop\n        /* \"#utility.yul\":28100:28101   */\n      dup3\n        /* \"#utility.yul\":28090:28092   */\n      tag_661\n      jumpi\n        /* \"#utility.yul\":28105:28123   */\n      tag_662\n      tag_663\n      jump\t// in\n    tag_662:\n        /* \"#utility.yul\":28090:28092   */\n    tag_661:\n        /* \"#utility.yul\":28147:28148   */\n      dup3\n        /* \"#utility.yul\":28144:28145   */\n      dup3\n        /* \"#utility.yul\":28140:28149   */\n      div\n        /* \"#utility.yul\":28135:28149   */\n      swap1\n      pop\n        /* \"#utility.yul\":28012:28155   */\n      swap3\n      swap2\n      pop\n      pop\n      jump\t// out\n        /* \"#utility.yul\":28161:28509   */\n    tag_223:\n      0x00\n        /* \"#utility.yul\":28224:28244   */\n      tag_665\n        /* \"#utility.yul\":28242:28243   */\n      dup3\n        /* \"#utility.yul\":28224:28244   */\n      tag_563\n      jump\t// in\n    tag_665:\n        /* \"#utility.yul\":28219:28244   */\n      swap2\n      pop\n        /* \"#utility.yul\":28258:28278   */\n      tag_666\n        /* \"#utility.yul\":28276:28277   */\n      dup4\n        /* \"#utility.yul\":28258:28278   */\n      tag_563\n      jump\t// in\n    tag_666:\n        /* \"#utility.yul\":28253:28278   */\n      swap3\n      pop\n        /* \"#utility.yul\":28446:28447   */\n      dup2\n        /* \"#utility.yul\":28378:28444   */\n      0xffffffffffffffffffffffffffffffffffffffffffffffffffffffffffffffff\n        /* \"#utility.yul\":28374:28448   */\n      div\n        /* \"#utility.yul\":28371:28372   */\n      dup4\n        /* \"#utility.yul\":28368:28449   */\n      gt\n        /* \"#utility.yul\":28363:28364   */\n      dup3\n        /* \"#utility.yul\":28356:28365   */\n      iszero\n        /* \"#utility.yul\":28349:28366   */\n      iszero\n        /* \"#utility.yul\":28345:28450   */\n      and\n        /* \"#utility.yul\":28342:28344   */\n      iszero\n      tag_667\n      jumpi\n        /* \"#utility.yul\":28453:28471   */\n      tag_668\n      tag_657\n      jump\t// in\n    tag_668:\n        /* \"#utility.yul\":28342:28344   */\n    tag_667:\n        /* \"#utility.yul\":28501:28502   */\n      dup3\n        /* \"#utility.yul\":28498:28499   */\n      dup3\n        /* \"#utility.yul\":28494:28503   */\n      mul\n        /* \"#utility.yul\":28483:28503   */\n      swap1\n      pop\n        /* \"#utility.yul\":28209:28509   */\n      swap3\n      swap2\n      pop\n      pop\n      jump\t// out\n        /* \"#utility.yul\":28515:28706   */\n    tag_179:\n      0x00\n        /* \"#utility.yul\":28575:28595   */\n      tag_670\n        /* \"#utility.yul\":28593:28594   */\n      dup3\n        /* \"#utility.yul\":28575:28595   */\n      tag_563\n      jump\t// in\n    tag_670:\n        /* \"#utility.yul\":28570:28595   */\n      swap2\n      pop\n        /* \"#utility.yul\":28609:28629   */\n      tag_671\n        /* \"#utility.yul\":28627:28628   */\n      dup4\n        /* \"#utility.yul\":28609:28629   */\n      tag_563\n      jump\t// in\n    tag_671:\n        /* \"#utility.yul\":28604:28629   */\n      swap3\n      pop\n        /* \"#utility.yul\":28648:28649   */\n      dup3\n        /* \"#utility.yul\":28645:28646   */\n      dup3\n        /* \"#utility.yul\":28642:28650   */\n      lt\n        /* \"#utility.yul\":28639:28641   */\n      iszero\n      tag_672\n      jumpi\n        /* \"#utility.yul\":28653:28671   */\n      tag_673\n      tag_657\n      jump\t// in\n    tag_673:\n        /* \"#utility.yul\":28639:28641   */\n    tag_672:\n        /* \"#utility.yul\":28698:28699   */\n      dup3\n        /* \"#utility.yul\":28695:28696   */\n      dup3\n        /* \"#utility.yul\":28691:28700   */\n      sub\n        /* \"#utility.yul\":28683:28700   */\n      swap1\n      pop\n        /* \"#utility.yul\":28560:28706   */\n      swap3\n      swap2\n      pop\n      pop\n      jump\t// out\n        /* \"#utility.yul\":28712:28808   */\n    tag_425:\n      0x00\n        /* \"#utility.yul\":28778:28802   */\n      tag_675\n        /* \"#utility.yul\":28796:28801   */\n      dup3\n        /* \"#utility.yul\":28778:28802   */\n      tag_676\n      jump\t// in\n    tag_675:\n        /* \"#utility.yul\":28767:28802   */\n      swap1\n      pop\n        /* \"#utility.yul\":28757:28808   */\n      swap2\n      swap1\n      pop\n      jump\t// out\n        /* \"#utility.yul\":28814:28904   */\n    tag_462:\n      0x00\n        /* \"#utility.yul\":28891:28896   */\n      dup2\n        /* \"#utility.yul\":28884:28897   */\n      iszero\n        /* \"#utility.yul\":28877:28898   */\n      iszero\n        /* \"#utility.yul\":28866:28898   */\n      swap1\n      pop\n        /* \"#utility.yul\":28856:28904   */\n      swap2\n      swap1\n      pop\n      jump\t// out\n        /* \"#utility.yul\":28910:28987   */\n    tag_466:\n      0x00\n        /* \"#utility.yul\":28976:28981   */\n      dup2\n        /* \"#utility.yul\":28965:28981   */\n      swap1\n      pop\n        /* \"#utility.yul\":28955:28987   */\n      swap2\n      swap1\n      pop\n      jump\t// out\n        /* \"#utility.yul\":28993:29142   */\n    tag_679:\n      0x00\n        /* \"#utility.yul\":29069:29135   */\n      0xffffffff00000000000000000000000000000000000000000000000000000000\n        /* \"#utility.yul\":29062:29067   */\n      dup3\n        /* \"#utility.yul\":29058:29136   */\n      and\n        /* \"#utility.yul\":29047:29136   */\n      swap1\n      pop\n        /* \"#utility.yul\":29037:29142   */\n      swap2\n      swap1\n      pop\n      jump\t// out\n        /* \"#utility.yul\":29148:29274   */\n    tag_676:\n      0x00\n        /* \"#utility.yul\":29225:29267   */\n      0xffffffffffffffffffffffffffffffffffffffff\n        /* \"#utility.yul\":29218:29223   */\n      dup3\n        /* \"#utility.yul\":29214:29268   */\n      and\n        /* \"#utility.yul\":29203:29268   */\n      swap1\n      pop\n        /* \"#utility.yul\":29193:29274   */\n      swap2\n      swap1\n      pop\n      jump\t// out\n        /* \"#utility.yul\":29280:29357   */\n    tag_563:\n      0x00\n        /* \"#utility.yul\":29346:29351   */\n      dup2\n        /* \"#utility.yul\":29335:29351   */\n      swap1\n      pop\n        /* \"#utility.yul\":29325:29357   */\n      swap2\n      swap1\n      pop\n      jump\t// out\n        /* \"#utility.yul\":29363:29529   */\n    tag_470:\n      0x00\n        /* \"#utility.yul\":29466:29523   */\n      tag_684\n        /* \"#utility.yul\":29517:29522   */\n      dup3\n        /* \"#utility.yul\":29466:29523   */\n      tag_685\n      jump\t// in\n    tag_684:\n        /* \"#utility.yul\":29453:29523   */\n      swap1\n      pop\n        /* \"#utility.yul\":29443:29529   */\n      swap2\n      swap1\n      pop\n      jump\t// out\n        /* \"#utility.yul\":29535:29668   */\n    tag_685:\n      0x00\n        /* \"#utility.yul\":29638:29662   */\n      tag_687\n        /* \"#utility.yul\":29656:29661   */\n      dup3\n        /* \"#utility.yul\":29638:29662   */\n      tag_676\n      jump\t// in\n    tag_687:\n        /* \"#utility.yul\":29625:29662   */\n      swap1\n      pop\n        /* \"#utility.yul\":29615:29668   */\n      swap2\n      swap1\n      pop\n      jump\t// out\n        /* \"#utility.yul\":29674:29860   */\n    tag_474:\n      0x00\n        /* \"#utility.yul\":29787:29854   */\n      tag_689\n        /* \"#utility.yul\":29848:29853   */\n      dup3\n        /* \"#utility.yul\":29787:29854   */\n      tag_690\n      jump\t// in\n    tag_689:\n        /* \"#utility.yul\":29774:29854   */\n      swap1\n      pop\n        /* \"#utility.yul\":29764:29860   */\n      swap2\n      swap1\n      pop\n      jump\t// out\n        /* \"#utility.yul\":29866:30009   */\n    tag_690:\n      0x00\n        /* \"#utility.yul\":29979:30003   */\n      tag_692\n        /* \"#utility.yul\":29997:30002   */\n      dup3\n        /* \"#utility.yul\":29979:30003   */\n      tag_676\n      jump\t// in\n    tag_692:\n        /* \"#utility.yul\":29966:30003   */\n      swap1\n      pop\n        /* \"#utility.yul\":29956:30009   */\n      swap2\n      swap1\n      pop\n      jump\t// out\n        /* \"#utility.yul\":30015:30181   */\n    tag_478:\n      0x00\n        /* \"#utility.yul\":30118:30175   */\n      tag_694\n        /* \"#utility.yul\":30169:30174   */\n      dup3\n        /* \"#utility.yul\":30118:30175   */\n      tag_695\n      jump\t// in\n    tag_694:\n        /* \"#utility.yul\":30105:30175   */\n      swap1\n      pop\n        /* \"#utility.yul\":30095:30181   */\n      swap2\n      swap1\n      pop\n      jump\t// out\n        /* \"#utility.yul\":30187:30320   */\n    tag_695:\n      0x00\n        /* \"#utility.yul\":30290:30314   */\n      tag_697\n        /* \"#utility.yul\":30308:30313   */\n      dup3\n        /* \"#utility.yul\":30290:30314   */\n      tag_676\n      jump\t// in\n    tag_697:\n        /* \"#utility.yul\":30277:30314   */\n      swap1\n      pop\n        /* \"#utility.yul\":30267:30320   */\n      swap2\n      swap1\n      pop\n      jump\t// out\n        /* \"#utility.yul\":30326:30480   */\n    tag_348:\n        /* \"#utility.yul\":30410:30416   */\n      dup3\n        /* \"#utility.yul\":30405:30408   */\n      dup2\n        /* \"#utility.yul\":30400:30403   */\n      dup4\n        /* \"#utility.yul\":30387:30417   */\n      calldatacopy\n        /* \"#utility.yul\":30472:30473   */\n      0x00\n        /* \"#utility.yul\":30463:30469   */\n      dup4\n        /* \"#utility.yul\":30458:30461   */\n      dup4\n        /* \"#utility.yul\":30454:30470   */\n      add\n        /* \"#utility.yul\":30447:30474   */\n      mstore\n        /* \"#utility.yul\":30377:30480   */\n      pop\n      pop\n      pop\n      jump\t// out\n        /* \"#utility.yul\":30486:30793   */\n    tag_485:\n        /* \"#utility.yul\":30554:30555   */\n      0x00\n        /* \"#utility.yul\":30564:30677   */\n    tag_700:\n        /* \"#utility.yul\":30578:30584   */\n      dup4\n        /* \"#utility.yul\":30575:30576   */\n      dup2\n        /* \"#utility.yul\":30572:30585   */\n      lt\n        /* \"#utility.yul\":30564:30677   */\n      iszero\n      tag_702\n      jumpi\n        /* \"#utility.yul\":30663:30664   */\n      dup1\n        /* \"#utility.yul\":30658:30661   */\n      dup3\n        /* \"#utility.yul\":30654:30665   */\n      add\n        /* \"#utility.yul\":30648:30666   */\n      mload\n        /* \"#utility.yul\":30644:30645   */\n      dup2\n        /* \"#utility.yul\":30639:30642   */\n      dup5\n        /* \"#utility.yul\":30635:30646   */\n      add\n        /* \"#utility.yul\":30628:30667   */\n      mstore\n        /* \"#utility.yul\":30600:30602   */\n      0x20\n        /* \"#utility.yul\":30597:30598   */\n      dup2\n        /* \"#utility.yul\":30593:30603   */\n      add\n        /* \"#utility.yul\":30588:30603   */\n      swap1\n      pop\n        /* \"#utility.yul\":30564:30677   */\n      jump(tag_700)\n    tag_702:\n        /* \"#utility.yul\":30695:30701   */\n      dup4\n        /* \"#utility.yul\":30692:30693   */\n      dup2\n        /* \"#utility.yul\":30689:30702   */\n      gt\n        /* \"#utility.yul\":30686:30688   */\n      iszero\n      tag_703\n      jumpi\n        /* \"#utility.yul\":30775:30776   */\n      0x00\n        /* \"#utility.yul\":30766:30772   */\n      dup5\n        /* \"#utility.yul\":30761:30764   */\n      dup5\n        /* \"#utility.yul\":30757:30773   */\n      add\n        /* \"#utility.yul\":30750:30777   */\n      mstore\n        /* \"#utility.yul\":30686:30688   */\n    tag_703:\n        /* \"#utility.yul\":30535:30793   */\n      pop\n      pop\n      pop\n      pop\n      jump\t// out\n        /* \"#utility.yul\":30799:30970   */\n    tag_188:\n      0x00\n        /* \"#utility.yul\":30861:30885   */\n      tag_705\n        /* \"#utility.yul\":30879:30884   */\n      dup3\n        /* \"#utility.yul\":30861:30885   */\n      tag_563\n      jump\t// in\n    tag_705:\n        /* \"#utility.yul\":30852:30885   */\n      swap2\n      pop\n        /* \"#utility.yul\":30907:30911   */\n      0x00\n        /* \"#utility.yul\":30900:30905   */\n      dup3\n        /* \"#utility.yul\":30897:30912   */\n      eq\n        /* \"#utility.yul\":30894:30896   */\n      iszero\n      tag_706\n      jumpi\n        /* \"#utility.yul\":30915:30933   */\n      tag_707\n      tag_657\n      jump\t// in\n    tag_707:\n        /* \"#utility.yul\":30894:30896   */\n    tag_706:\n        /* \"#utility.yul\":30962:30963   */\n      0x01\n        /* \"#utility.yul\":30955:30960   */\n      dup3\n        /* \"#utility.yul\":30951:30964   */\n      sub\n        /* \"#utility.yul\":30944:30964   */\n      swap1\n      pop\n        /* \"#utility.yul\":30842:30970   */\n      swap2\n      swap1\n      pop\n      jump\t// out\n        /* \"#utility.yul\":30976:31257   */\n    tag_627:\n        /* \"#utility.yul\":31059:31086   */\n      tag_709\n        /* \"#utility.yul\":31081:31085   */\n      dup3\n        /* \"#utility.yul\":31059:31086   */\n      tag_487\n      jump\t// in\n    tag_709:\n        /* \"#utility.yul\":31051:31057   */\n      dup2\n        /* \"#utility.yul\":31047:31087   */\n      add\n        /* \"#utility.yul\":31189:31195   */\n      dup2\n        /* \"#utility.yul\":31177:31187   */\n      dup2\n        /* \"#utility.yul\":31174:31196   */\n      lt\n        /* \"#utility.yul\":31153:31171   */\n      0xffffffffffffffff\n        /* \"#utility.yul\":31141:31151   */\n      dup3\n        /* \"#utility.yul\":31138:31172   */\n      gt\n        /* \"#utility.yul\":31135:31197   */\n      or\n        /* \"#utility.yul\":31132:31134   */\n      iszero\n      tag_710\n      jumpi\n        /* \"#utility.yul\":31200:31218   */\n      tag_711\n      tag_632\n      jump\t// in\n    tag_711:\n        /* \"#utility.yul\":31132:31134   */\n    tag_710:\n        /* \"#utility.yul\":31240:31250   */\n      dup1\n        /* \"#utility.yul\":31236:31238   */\n      0x40\n        /* \"#utility.yul\":31229:31251   */\n      mstore\n        /* \"#utility.yul\":31019:31257   */\n      pop\n      pop\n      pop\n      jump\t// out\n        /* \"#utility.yul\":31263:31363   */\n    tag_430:\n      0x00\n        /* \"#utility.yul\":31331:31357   */\n      tag_713\n        /* \"#utility.yul\":31351:31356   */\n      dup3\n        /* \"#utility.yul\":31331:31357   */\n      tag_714\n      jump\t// in\n    tag_713:\n        /* \"#utility.yul\":31320:31357   */\n      swap1\n      pop\n        /* \"#utility.yul\":31310:31363   */\n      swap2\n      swap1\n      pop\n      jump\t// out\n        /* \"#utility.yul\":31369:31463   */\n    tag_714:\n      0x00\n        /* \"#utility.yul\":31437:31457   */\n      tag_716\n        /* \"#utility.yul\":31451:31456   */\n      dup3\n        /* \"#utility.yul\":31437:31457   */\n      tag_717\n      jump\t// in\n    tag_716:\n        /* \"#utility.yul\":31426:31457   */\n      swap1\n      pop\n        /* \"#utility.yul\":31416:31463   */\n      swap2\n      swap1\n      pop\n      jump\t// out\n        /* \"#utility.yul\":31469:31548   */\n    tag_571:\n      0x00\n        /* \"#utility.yul\":31537:31542   */\n      dup2\n        /* \"#utility.yul\":31526:31542   */\n      swap1\n      pop\n        /* \"#utility.yul\":31516:31548   */\n      swap2\n      swap1\n      pop\n      jump\t// out\n        /* \"#utility.yul\":31554:31734   */\n    tag_657:\n        /* \"#utility.yul\":31602:31679   */\n      0x4e487b7100000000000000000000000000000000000000000000000000000000\n        /* \"#utility.yul\":31599:31600   */\n      0x00\n        /* \"#utility.yul\":31592:31680   */\n      mstore\n        /* \"#utility.yul\":31699:31703   */\n      0x11\n        /* \"#utility.yul\":31696:31697   */\n      0x04\n        /* \"#utility.yul\":31689:31704   */\n      mstore\n        /* \"#utility.yul\":31723:31727   */\n      0x24\n        /* \"#utility.yul\":31720:31721   */\n      0x00\n        /* \"#utility.yul\":31713:31728   */\n      revert\n        /* \"#utility.yul\":31740:31920   */\n    tag_663:\n        /* \"#utility.yul\":31788:31865   */\n      0x4e487b7100000000000000000000000000000000000000000000000000000000\n        /* \"#utility.yul\":31785:31786   */\n      0x00\n        /* \"#utility.yul\":31778:31866   */\n      mstore\n        /* \"#utility.yul\":31885:31889   */\n      0x12\n        /* \"#utility.yul\":31882:31883   */\n      0x04\n        /* \"#utility.yul\":31875:31890   */\n      mstore\n        /* \"#utility.yul\":31909:31913   */\n      0x24\n        /* \"#utility.yul\":31906:31907   */\n      0x00\n        /* \"#utility.yul\":31899:31914   */\n      revert\n        /* \"#utility.yul\":31926:32106   */\n    tag_632:\n        /* \"#utility.yul\":31974:32051   */\n      0x4e487b7100000000000000000000000000000000000000000000000000000000\n        /* \"#utility.yul\":31971:31972   */\n      0x00\n        /* \"#utility.yul\":31964:32052   */\n      mstore\n        /* \"#utility.yul\":32071:32075   */\n      0x41\n        /* \"#utility.yul\":32068:32069   */\n      0x04\n        /* \"#utility.yul\":32061:32076   */\n      mstore\n        /* \"#utility.yul\":32095:32099   */\n      0x24\n        /* \"#utility.yul\":32092:32093   */\n      0x00\n        /* \"#utility.yul\":32085:32100   */\n      revert\n        /* \"#utility.yul\":32112:32214   */\n    tag_487:\n      0x00\n        /* \"#utility.yul\":32204:32206   */\n      0x1f\n        /* \"#utility.yul\":32200:32207   */\n      not\n        /* \"#utility.yul\":32195:32197   */\n      0x1f\n        /* \"#utility.yul\":32188:32193   */\n      dup4\n        /* \"#utility.yul\":32184:32198   */\n      add\n        /* \"#utility.yul\":32180:32208   */\n      and\n        /* \"#utility.yul\":32170:32208   */\n      swap1\n      pop\n        /* \"#utility.yul\":32160:32214   */\n      swap2\n      swap1\n      pop\n      jump\t// out\n        /* \"#utility.yul\":32220:32314   */\n    tag_717:\n      0x00\n        /* \"#utility.yul\":32301:32306   */\n      dup2\n        /* \"#utility.yul\":32297:32299   */\n      0x60\n        /* \"#utility.yul\":32293:32307   */\n      shl\n        /* \"#utility.yul\":32272:32307   */\n      swap1\n      pop\n        /* \"#utility.yul\":32262:32314   */\n      swap2\n      swap1\n      pop\n      jump\t// out\n        /* \"#utility.yul\":32320:32502   */\n    tag_505:\n        /* \"#utility.yul\":32460:32494   */\n      0x537472696e67733a20686578206c656e67746820696e73756666696369656e74\n        /* \"#utility.yul\":32456:32457   */\n      0x00\n        /* \"#utility.yul\":32448:32454   */\n      dup3\n        /* \"#utility.yul\":32444:32458   */\n      add\n        /* \"#utility.yul\":32437:32495   */\n      mstore\n        /* \"#utility.yul\":32426:32502   */\n      pop\n      jump\t// out\n        /* \"#utility.yul\":32508:32666   */\n    tag_510:\n        /* \"#utility.yul\":32648:32658   */\n      0x4164647265737320000000000000000000000000000000000000000000000000\n        /* \"#utility.yul\":32644:32645   */\n      0x00\n        /* \"#utility.yul\":32636:32642   */\n      dup3\n        /* \"#utility.yul\":32632:32646   */\n      add\n        /* \"#utility.yul\":32625:32659   */\n      mstore\n        /* \"#utility.yul\":32614:32666   */\n      pop\n      jump\t// out\n        /* \"#utility.yul\":32672:32913   */\n    tag_515:\n        /* \"#utility.yul\":32812:32846   */\n      0x43616e6e6f74206d696e7420746f207472656173757279206164647265737320\n        /* \"#utility.yul\":32808:32809   */\n      0x00\n        /* \"#utility.yul\":32800:32806   */\n      dup3\n        /* \"#utility.yul\":32796:32810   */\n      add\n        /* \"#utility.yul\":32789:32847   */\n      mstore\n        /* \"#utility.yul\":32881:32905   */\n      0x756e74696c2073616c652069732066696e697368656400000000000000000000\n        /* \"#utility.yul\":32876:32878   */\n      0x20\n        /* \"#utility.yul\":32868:32874   */\n      dup3\n        /* \"#utility.yul\":32864:32879   */\n      add\n        /* \"#utility.yul\":32857:32906   */\n      mstore\n        /* \"#utility.yul\":32778:32913   */\n      pop\n      jump\t// out\n        /* \"#utility.yul\":32919:33096   */\n    tag_520:\n        /* \"#utility.yul\":33059:33088   */\n      0x74696d657374616d70206973206e6f742075702d746f2d646174650000000000\n        /* \"#utility.yul\":33055:33056   */\n      0x00\n        /* \"#utility.yul\":33047:33053   */\n      dup3\n        /* \"#utility.yul\":33043:33057   */\n      add\n        /* \"#utility.yul\":33036:33089   */\n      mstore\n        /* \"#utility.yul\":33025:33096   */\n      pop\n      jump\t// out\n        /* \"#utility.yul\":33102:33324   */\n    tag_525:\n        /* \"#utility.yul\":33242:33276   */\n      0x53656e646572206973206e6f742053616c65204d616e61676572206f72204164\n        /* \"#utility.yul\":33238:33239   */\n      0x00\n        /* \"#utility.yul\":33230:33236   */\n      dup3\n        /* \"#utility.yul\":33226:33240   */\n      add\n        /* \"#utility.yul\":33219:33277   */\n      mstore\n        /* \"#utility.yul\":33311:33316   */\n      0x6d696e0000000000000000000000000000000000000000000000000000000000\n        /* \"#utility.yul\":33306:33308   */\n      0x20\n        /* \"#utility.yul\":33298:33304   */\n      dup3\n        /* \"#utility.yul\":33294:33309   */\n      add\n        /* \"#utility.yul\":33287:33317   */\n      mstore\n        /* \"#utility.yul\":33208:33324   */\n      pop\n      jump\t// out\n        /* \"#utility.yul\":33330:33551   */\n    tag_530:\n        /* \"#utility.yul\":33470:33504   */\n      0x53656e646572206973206e6f7420555249204d616e61676572206f722041646d\n        /* \"#utility.yul\":33466:33467   */\n      0x00\n        /* \"#utility.yul\":33458:33464   */\n      dup3\n        /* \"#utility.yul\":33454:33468   */\n      add\n        /* \"#utility.yul\":33447:33505   */\n      mstore\n        /* \"#utility.yul\":33539:33543   */\n      0x696e000000000000000000000000000000000000000000000000000000000000\n        /* \"#utility.yul\":33534:33536   */\n      0x20\n        /* \"#utility.yul\":33526:33532   */\n      dup3\n        /* \"#utility.yul\":33522:33537   */\n      add\n        /* \"#utility.yul\":33515:33544   */\n      mstore\n        /* \"#utility.yul\":33436:33551   */\n      pop\n      jump\t// out\n        /* \"#utility.yul\":33557:33708   */\n    tag_535:\n        /* \"#utility.yul\":33697:33700   */\n      0x2500000000000000000000000000000000000000000000000000000000000000\n        /* \"#utility.yul\":33693:33694   */\n      0x00\n        /* \"#utility.yul\":33685:33691   */\n      dup3\n        /* \"#utility.yul\":33681:33695   */\n      add\n        /* \"#utility.yul\":33674:33701   */\n      mstore\n        /* \"#utility.yul\":33663:33708   */\n      pop\n      jump\t// out\n        /* \"#utility.yul\":33714:33949   */\n    tag_540:\n        /* \"#utility.yul\":33854:33888   */\n      0x20646f6573206e6f742068617665206120636f75706f6e207769746820612064\n        /* \"#utility.yul\":33850:33851   */\n      0x00\n        /* \"#utility.yul\":33842:33848   */\n      dup3\n        /* \"#utility.yul\":33838:33852   */\n      add\n        /* \"#utility.yul\":33831:33889   */\n      mstore\n        /* \"#utility.yul\":33923:33941   */\n      0x6973636f756e742072617465206f662000000000000000000000000000000000\n        /* \"#utility.yul\":33918:33920   */\n      0x20\n        /* \"#utility.yul\":33910:33916   */\n      dup3\n        /* \"#utility.yul\":33906:33921   */\n      add\n        /* \"#utility.yul\":33899:33942   */\n      mstore\n        /* \"#utility.yul\":33820:33949   */\n      pop\n      jump\t// out\n        /* \"#utility.yul\":33955:34136   */\n    tag_545:\n        /* \"#utility.yul\":34095:34128   */\n      0x737461727454696d65206973206c61746572207468616e20656e6454696d6500\n        /* \"#utility.yul\":34091:34092   */\n      0x00\n        /* \"#utility.yul\":34083:34089   */\n      dup3\n        /* \"#utility.yul\":34079:34093   */\n      add\n        /* \"#utility.yul\":34072:34129   */\n      mstore\n        /* \"#utility.yul\":34061:34136   */\n      pop\n      jump\t// out\n        /* \"#utility.yul\":34142:34315   */\n    tag_550:\n        /* \"#utility.yul\":34282:34307   */\n      0x416363657373436f6e74726f6c3a206163636f756e7420000000000000000000\n        /* \"#utility.yul\":34278:34279   */\n      0x00\n        /* \"#utility.yul\":34270:34276   */\n      dup3\n        /* \"#utility.yul\":34266:34280   */\n      add\n        /* \"#utility.yul\":34259:34308   */\n      mstore\n        /* \"#utility.yul\":34248:34315   */\n      pop\n      jump\t// out\n        /* \"#utility.yul\":34321:34488   */\n    tag_555:\n        /* \"#utility.yul\":34461:34480   */\n      0x206973206d697373696e6720726f6c6520000000000000000000000000000000\n        /* \"#utility.yul\":34457:34458   */\n      0x00\n        /* \"#utility.yul\":34449:34455   */\n      dup3\n        /* \"#utility.yul\":34445:34459   */\n      add\n        /* \"#utility.yul\":34438:34481   */\n      mstore\n        /* \"#utility.yul\":34427:34488   */\n      pop\n      jump\t// out\n        /* \"#utility.yul\":34494:34728   */\n    tag_560:\n        /* \"#utility.yul\":34634:34668   */\n      0x416363657373436f6e74726f6c3a2063616e206f6e6c792072656e6f756e6365\n        /* \"#utility.yul\":34630:34631   */\n      0x00\n        /* \"#utility.yul\":34622:34628   */\n      dup3\n        /* \"#utility.yul\":34618:34632   */\n      add\n        /* \"#utility.yul\":34611:34669   */\n      mstore\n        /* \"#utility.yul\":34703:34720   */\n      0x20726f6c657320666f722073656c660000000000000000000000000000000000\n        /* \"#utility.yul\":34698:34700   */\n      0x20\n        /* \"#utility.yul\":34690:34696   */\n      dup3\n        /* \"#utility.yul\":34686:34701   */\n      add\n        /* \"#utility.yul\":34679:34721   */\n      mstore\n        /* \"#utility.yul\":34600:34728   */\n      pop\n      jump\t// out\n        /* \"#utility.yul\":34734:34856   */\n    tag_352:\n        /* \"#utility.yul\":34807:34831   */\n      tag_737\n        /* \"#utility.yul\":34825:34830   */\n      dup2\n        /* \"#utility.yul\":34807:34831   */\n      tag_425\n      jump\t// in\n    tag_737:\n        /* \"#utility.yul\":34800:34805   */\n      dup2\n        /* \"#utility.yul\":34797:34832   */\n      eq\n        /* \"#utility.yul\":34787:34789   */\n      tag_738\n      jumpi\n        /* \"#utility.yul\":34846:34847   */\n      0x00\n        /* \"#utility.yul\":34843:34844   */\n      dup1\n        /* \"#utility.yul\":34836:34848   */\n      revert\n        /* \"#utility.yul\":34787:34789   */\n    tag_738:\n        /* \"#utility.yul\":34777:34856   */\n      pop\n      jump\t// out\n        /* \"#utility.yul\":34862:34978   */\n    tag_364:\n        /* \"#utility.yul\":34932:34953   */\n      tag_740\n        /* \"#utility.yul\":34947:34952   */\n      dup2\n        /* \"#utility.yul\":34932:34953   */\n      tag_462\n      jump\t// in\n    tag_740:\n        /* \"#utility.yul\":34925:34930   */\n      dup2\n        /* \"#utility.yul\":34922:34954   */\n      eq\n        /* \"#utility.yul\":34912:34914   */\n      tag_741\n      jumpi\n        /* \"#utility.yul\":34968:34969   */\n      0x00\n        /* \"#utility.yul\":34965:34966   */\n      dup1\n        /* \"#utility.yul\":34958:34970   */\n      revert\n        /* \"#utility.yul\":34912:34914   */\n    tag_741:\n        /* \"#utility.yul\":34902:34978   */\n      pop\n      jump\t// out\n        /* \"#utility.yul\":34984:35106   */\n    tag_368:\n        /* \"#utility.yul\":35057:35081   */\n      tag_743\n        /* \"#utility.yul\":35075:35080   */\n      dup2\n        /* \"#utility.yul\":35057:35081   */\n      tag_466\n      jump\t// in\n    tag_743:\n        /* \"#utility.yul\":35050:35055   */\n      dup2\n        /* \"#utility.yul\":35047:35082   */\n      eq\n        /* \"#utility.yul\":35037:35039   */\n      tag_744\n      jumpi\n        /* \"#utility.yul\":35096:35097   */\n      0x00\n        /* \"#utility.yul\":35093:35094   */\n      dup1\n        /* \"#utility.yul\":35086:35098   */\n      revert\n        /* \"#utility.yul\":35037:35039   */\n    tag_744:\n        /* \"#utility.yul\":35027:35106   */\n      pop\n      jump\t// out\n        /* \"#utility.yul\":35112:35232   */\n    tag_372:\n        /* \"#utility.yul\":35184:35207   */\n      tag_746\n        /* \"#utility.yul\":35201:35206   */\n      dup2\n        /* \"#utility.yul\":35184:35207   */\n      tag_679\n      jump\t// in\n    tag_746:\n        /* \"#utility.yul\":35177:35182   */\n      dup2\n        /* \"#utility.yul\":35174:35208   */\n      eq\n        /* \"#utility.yul\":35164:35166   */\n      tag_747\n      jumpi\n        /* \"#utility.yul\":35222:35223   */\n      0x00\n        /* \"#utility.yul\":35219:35220   */\n      dup1\n        /* \"#utility.yul\":35212:35224   */\n      revert\n        /* \"#utility.yul\":35164:35166   */\n    tag_747:\n        /* \"#utility.yul\":35154:35232   */\n      pop\n      jump\t// out\n        /* \"#utility.yul\":35238:35360   */\n    tag_378:\n        /* \"#utility.yul\":35311:35335   */\n      tag_749\n        /* \"#utility.yul\":35329:35334   */\n      dup2\n        /* \"#utility.yul\":35311:35335   */\n      tag_563\n      jump\t// in\n    tag_749:\n        /* \"#utility.yul\":35304:35309   */\n      dup2\n        /* \"#utility.yul\":35301:35336   */\n      eq\n        /* \"#utility.yul\":35291:35293   */\n      tag_750\n      jumpi\n        /* \"#utility.yul\":35350:35351   */\n      0x00\n        /* \"#utility.yul\":35347:35348   */\n      dup1\n        /* \"#utility.yul\":35340:35352   */\n      revert\n        /* \"#utility.yul\":35291:35293   */\n    tag_750:\n        /* \"#utility.yul\":35281:35360   */\n      pop\n      jump\t// out\n\n    auxdata: 0xa26469706673582212205802fd6e7cc6cd15d2f679bd64c2ac0eae4a97fe113a7ddcd4ce8785e5a4196d64736f6c63430008010033\n}\n",
				"bytecode": {
					"linkReferences": {},
					"object": "60806040526370dc49006005556370dc4964600655620f4240600a620000269190620000aa565b600755620f424060016200003b9190620000aa565b60085560405180606001604052806127108152602001428152602001600015158152506009600082015181600001556020820151816001015560408201518160020160006101000a81548160ff0219169083151502179055505050348015620000a357600080fd5b5062000144565b6000620000b7826200010b565b9150620000c4836200010b565b9250817fffffffffffffffffffffffffffffffffffffffffffffffffffffffffffffffff04831182151516156200010057620000ff62000115565b5b828202905092915050565b6000819050919050565b7f4e487b7100000000000000000000000000000000000000000000000000000000600052601160045260246000fd5b61291b80620001546000396000f3fe608060405234801561001057600080fd5b50600436106101735760003560e01c806391232f18116100de578063bff29cee11610097578063c5f956af11610071578063c5f956af14610418578063ccb98ffc14610436578063d547741f14610452578063f121da921461046e57610173565b8063bff29cee146103d0578063c0463711146103da578063c5dae48f146103fa57610173565b806391232f18146102fc57806391d1485414610306578063944044a114610336578063a217fddf14610352578063a496f94714610370578063ab6c0306146103a057610173565b806351f7598c1161013057806351f7598c1461024a578063551b42a8146102665780635ce7e72114610284578063682d07d9146102a257806368fc01a2146102c05780638c83faeb146102de57610173565b806301ffc9a714610178578063248a9ca3146101a85780632f2ff15d146101d857806336568abe146101f45780634c0f38c2146102105780634c9b73da1461022e575b600080fd5b610192600480360381019061018d91906119b7565b61048a565b60405161019f9190611f20565b60405180910390f35b6101c260048036038101906101bd9190611952565b610504565b6040516101cf9190611f3b565b60405180910390f35b6101f260048036038101906101ed919061197b565b610523565b005b61020e6004803603810190610209919061197b565b61054c565b005b6102186105cf565b60405161022591906120a9565b60405180910390f35b610248600480360381019061024391906119e0565b610676565b005b610264600480360381019061025f9190611858565b610699565b005b61026e6106f3565b60405161027b9190611f3b565b60405180910390f35b61028c610717565b6040516102999190611f71565b60405180910390f35b6102aa61073d565b6040516102b79190611f3b565b60405180910390f35b6102c8610761565b6040516102d591906120a9565b60405180910390f35b6102e6610808565b6040516102f39190611f56565b60405180910390f35b61030461082e565b005b610320600480360381019061031b919061197b565b61094a565b60405161032d9190611f20565b60405180910390f35b610350600480360381019061034b91906119e0565b6109b4565b005b61035a610a49565b6040516103679190611f3b565b60405180910390f35b61038a60048036038101906103859190611881565b610a50565b60405161039791906120a9565b60405180910390f35b6103ba60048036038101906103b59190611881565b610a6c565b6040516103c791906120a9565b60405180910390f35b6103d8610bfd565b005b6103e2610c1b565b6040516103f1939291906120c4565b60405180910390f35b610402610c40565b60405161040f9190611f8c565b60405180910390f35b610420610c66565b60405161042d9190611ea5565b60405180910390f35b610450600480360381019061044b91906119e0565b610c8c565b005b61046c6004803603810190610467919061197b565b610d21565b005b610488600480360381019061048391906118bd565b610d4a565b005b60007f7965db0b000000000000000000000000000000000000000000000000000000007bffffffffffffffffffffffffffffffffffffffffffffffffffffffff1916827bffffffffffffffffffffffffffffffffffffffffffffffffffffffff191614806104fd57506104fc82610e68565b5b9050919050565b6000806000838152602001908152602001600020600101549050919050565b61052c82610504565b61053d81610538610ed2565b610eda565b6105478383610f77565b505050565b610554610ed2565b73ffffffffffffffffffffffffffffffffffffffff168173ffffffffffffffffffffffffffffffffffffffff16146105c1576040517f08c379a00000000000000000000000000000000000000000000000000000000081526004016105b890612089565b60405180910390fd5b6105cb8282611057565b5050565b6000600160009054906101000a900473ffffffffffffffffffffffffffffffffffffffff1673ffffffffffffffffffffffffffffffffffffffff16634c0f38c26040518163ffffffff1660e01b815260040160206040518083038186803b15801561063957600080fd5b505afa15801561064d573d6000803e3d6000fd5b505050506040513d601f19601f820116820180604052508101906106719190611a09565b905090565b61067e611138565b600061068a3383610a6c565b905061069581611230565b5050565b6000801b6106ae816106a9610ed2565b610eda565b81600160006101000a81548173ffffffffffffffffffffffffffffffffffffffff021916908373ffffffffffffffffffffffffffffffffffffffff1602179055505050565b7f988301af8238f779281a300de031815cd01b48e9f1ae47a0f91ed6584213624a81565b600260009054906101000a900473ffffffffffffffffffffffffffffffffffffffff1681565b7fa70a2d8710fed9f014c8c2af50c7c2f6b25748ae4cded822e03b7beed44cf3a881565b6000600160009054906101000a900473ffffffffffffffffffffffffffffffffffffffff1673ffffffffffffffffffffffffffffffffffffffff166368fc01a26040518163ffffffff1660e01b815260040160206040518083038186803b1580156107cb57600080fd5b505afa1580156107df573d6000803e3d6000fd5b505050506040513d601f19601f820116820180604052508101906108039190611a09565b905090565b600160009054906101000a900473ffffffffffffffffffffffffffffffffffffffff1681565b4260096001015414610875576040517f08c379a000000000000000000000000000000000000000000000000000000000815260040161086c90612009565b60405180910390fd5b600654421180156108965750600960020160009054906101000a900460ff16155b6108d5576040517f08c379a00000000000000000000000000000000000000000000000000000000081526004016108cc90611fe9565b60405180910390fd5b600060016108e1610761565b6108eb9190612334565b6108f36105cf565b6108fd9190612334565b90505b600081111561094757610934600460009054906101000a900473ffffffffffffffffffffffffffffffffffffffff166112cb565b808061093f90612494565b915050610900565b50565b600080600084815260200190815260200160002060000160008373ffffffffffffffffffffffffffffffffffffffff1673ffffffffffffffffffffffffffffffffffffffff16815260200190815260200160002060009054906101000a900460ff16905092915050565b6109e57f988301af8238f779281a300de031815cd01b48e9f1ae47a0f91ed6584213624a6109e0610ed2565b61094a565b80610a0057506109ff6000801b6109fa610ed2565b61094a565b5b610a3f576040517f08c379a0000000000000000000000000000000000000000000000000000000008152600401610a3690612029565b60405180910390fd5b8060058190555050565b6000801b81565b6000610a5a611138565b610a648383610a6c565b905092915050565b60004260096001015414610ab5576040517f08c379a0000000000000000000000000000000000000000000000000000000008152600401610aac90612009565b60405180910390fd5b600260009054906101000a900473ffffffffffffffffffffffffffffffffffffffff1673ffffffffffffffffffffffffffffffffffffffff16632080179d84846040518363ffffffff1660e01b8152600401610b12929190611ec0565b60206040518083038186803b158015610b2a57600080fd5b505afa158015610b3e573d6000803e3d6000fd5b505050506040513d601f19601f82011682018060405250810190610b629190611929565b8383604051602001610b75929190611e1e565b60405160208183030381529060405290610bc5576040517f08c379a0000000000000000000000000000000000000000000000000000000008152600401610bbc9190611fa7565b60405180910390fd5b506000826064610bd59190612334565b6064600960000154610be791906122a9565b610bf191906122da565b90508091505092915050565b610c05611138565b60006009600001549050610c1881611230565b50565b60098060000154908060010154908060020160009054906101000a900460ff16905083565b600360009054906101000a900473ffffffffffffffffffffffffffffffffffffffff1681565b600460009054906101000a900473ffffffffffffffffffffffffffffffffffffffff1681565b610cbd7f988301af8238f779281a300de031815cd01b48e9f1ae47a0f91ed6584213624a610cb8610ed2565b61094a565b80610cd85750610cd76000801b610cd2610ed2565b61094a565b5b610d17576040517f08c379a0000000000000000000000000000000000000000000000000000000008152600401610d0e90612029565b60405180910390fd5b8060068190555050565b610d2a82610504565b610d3b81610d36610ed2565b610eda565b610d458383611057565b505050565b610d7b7fa70a2d8710fed9f014c8c2af50c7c2f6b25748ae4cded822e03b7beed44cf3a8610d76610ed2565b61094a565b80610d965750610d956000801b610d90610ed2565b61094a565b5b610dd5576040517f08c379a0000000000000000000000000000000000000000000000000000000008152600401610dcc90612049565b60405180910390fd5b600160009054906101000a900473ffffffffffffffffffffffffffffffffffffffff1673ffffffffffffffffffffffffffffffffffffffff1663f121da9283836040518363ffffffff1660e01b8152600401610e32929190611ee9565b600060405180830381600087803b158015610e4c57600080fd5b505af1158015610e60573d6000803e3d6000fd5b505050505050565b60007f01ffc9a7000000000000000000000000000000000000000000000000000000007bffffffffffffffffffffffffffffffffffffffffffffffffffffffff1916827bffffffffffffffffffffffffffffffffffffffffffffffffffffffff1916149050919050565b600033905090565b610ee4828261094a565b610f7357610f098173ffffffffffffffffffffffffffffffffffffffff16601461135b565b610f178360001c602061135b565b604051602001610f28929190611e6b565b6040516020818303038152906040526040517f08c379a0000000000000000000000000000000000000000000000000000000008152600401610f6a9190611fa7565b60405180910390fd5b5050565b610f81828261094a565b61105357600160008084815260200190815260200160002060000160008373ffffffffffffffffffffffffffffffffffffffff1673ffffffffffffffffffffffffffffffffffffffff16815260200190815260200160002060006101000a81548160ff021916908315150217905550610ff8610ed2565b73ffffffffffffffffffffffffffffffffffffffff168173ffffffffffffffffffffffffffffffffffffffff16837f2f8788117e7eff1d82e926ec794901d17c78024a50270940304540a733656f0d60405160405180910390a45b5050565b611061828261094a565b1561113457600080600084815260200190815260200160002060000160008373ffffffffffffffffffffffffffffffffffffffff1673ffffffffffffffffffffffffffffffffffffffff16815260200190815260200160002060006101000a81548160ff0219169083151502179055506110d9610ed2565b73ffffffffffffffffffffffffffffffffffffffff168173ffffffffffffffffffffffffffffffffffffffff16837ff6391f5c32d9c69d2a47ea670b442974b53935d1edc7fd64eb21e047a839171b60405160405180910390a45b5050565b600654600554111561117f576040517f08c379a000000000000000000000000000000000000000000000000000000000815260040161117690612069565b60405180910390fd5b620f4240600161118f91906122da565b603c6005544261119f9190612334565b6111a991906122a9565b6111b391906122da565b6007546111c09190612334565b6009600001819055504260096001018190555060055442101580156111e757506006544211155b1561120f576001600960020160006101000a81548160ff02191690831515021790555061122e565b6000600960020160006101000a81548160ff0219169083151502179055505b565b600360009054906101000a900473ffffffffffffffffffffffffffffffffffffffff1673ffffffffffffffffffffffffffffffffffffffff1663532b291333836040518363ffffffff1660e01b815260040161128d929190611ec0565b600060405180830381600087803b1580156112a757600080fd5b505af11580156112bb573d6000803e3d6000fd5b505050506112c8336112cb565b50565b600160009054906101000a900473ffffffffffffffffffffffffffffffffffffffff1673ffffffffffffffffffffffffffffffffffffffff166355676590826040518263ffffffff1660e01b81526004016113269190611ea5565b600060405180830381600087803b15801561134057600080fd5b505af1158015611354573d6000803e3d6000fd5b5050505050565b60606000600283600261136e91906122da565b6113789190612253565b67ffffffffffffffff8111156113b7577f4e487b7100000000000000000000000000000000000000000000000000000000600052604160045260246000fd5b6040519080825280601f01601f1916602001820160405280156113e95781602001600182028036833780820191505090505b5090507f300000000000000000000000000000000000000000000000000000000000000081600081518110611447577f4e487b7100000000000000000000000000000000000000000000000000000000600052603260045260246000fd5b60200101907effffffffffffffffffffffffffffffffffffffffffffffffffffffffffffff1916908160001a9053507f7800000000000000000000000000000000000000000000000000000000000000816001815181106114d1577f4e487b7100000000000000000000000000000000000000000000000000000000600052603260045260246000fd5b60200101907effffffffffffffffffffffffffffffffffffffffffffffffffffffffffffff1916908160001a9053506000600184600261151191906122da565b61151b9190612253565b90505b6001811115611607577f3031323334353637383961626364656600000000000000000000000000000000600f861660108110611583577f4e487b7100000000000000000000000000000000000000000000000000000000600052603260045260246000fd5b1a60f81b8282815181106115c0577f4e487b7100000000000000000000000000000000000000000000000000000000600052603260045260246000fd5b60200101907effffffffffffffffffffffffffffffffffffffffffffffffffffffffffffff1916908160001a905350600485901c94508061160090612494565b905061151e565b506000841461164b576040517f08c379a000000000000000000000000000000000000000000000000000000000815260040161164290611fc9565b60405180910390fd5b8091505092915050565b600061166861166384612120565b6120fb565b9050808382526020820190508260005b858110156116a8578135850161168e8882611804565b845260208401935060208301925050600181019050611678565b5050509392505050565b60006116c56116c08461214c565b6120fb565b905080838252602082019050828560208602820111156116e457600080fd5b60005b8581101561171457816116fa888261182e565b8452602084019350602083019250506001810190506116e7565b5050509392505050565b600061173161172c84612178565b6120fb565b90508281526020810184848401111561174957600080fd5b611754848285612452565b509392505050565b60008135905061176b81612872565b92915050565b600082601f83011261178257600080fd5b8135611792848260208601611655565b91505092915050565b600082601f8301126117ac57600080fd5b81356117bc8482602086016116b2565b91505092915050565b6000815190506117d481612889565b92915050565b6000813590506117e9816128a0565b92915050565b6000813590506117fe816128b7565b92915050565b600082601f83011261181557600080fd5b813561182584826020860161171e565b91505092915050565b60008135905061183d816128ce565b92915050565b600081519050611852816128ce565b92915050565b60006020828403121561186a57600080fd5b60006118788482850161175c565b91505092915050565b6000806040838503121561189457600080fd5b60006118a28582860161175c565b92505060206118b38582860161182e565b9150509250929050565b600080604083850312156118d057600080fd5b600083013567ffffffffffffffff8111156118ea57600080fd5b6118f68582860161179b565b925050602083013567ffffffffffffffff81111561191357600080fd5b61191f85828601611771565b9150509250929050565b60006020828403121561193b57600080fd5b6000611949848285016117c5565b91505092915050565b60006020828403121561196457600080fd5b6000611972848285016117da565b91505092915050565b6000806040838503121561198e57600080fd5b600061199c858286016117da565b92505060206119ad8582860161175c565b9150509250929050565b6000602082840312156119c957600080fd5b60006119d7848285016117ef565b91505092915050565b6000602082840312156119f257600080fd5b6000611a008482850161182e565b91505092915050565b600060208284031215611a1b57600080fd5b6000611a2984828501611843565b91505092915050565b6000611a3e8383611ba2565b905092915050565b6000611a528383611de9565b60208301905092915050565b611a6781612368565b82525050565b611a7e611a7982612368565b6124ef565b82525050565b6000611a8f826121c9565b611a998185612204565b935083602082028501611aab856121a9565b8060005b85811015611ae75784840389528151611ac88582611a32565b9450611ad3836121ea565b925060208a01995050600181019050611aaf565b50829750879550505050505092915050565b6000611b04826121d4565b611b0e8185612215565b9350611b19836121b9565b8060005b83811015611b4a578151611b318882611a46565b9750611b3c836121f7565b925050600181019050611b1d565b5085935050505092915050565b611b608161237a565b82525050565b611b6f81612386565b82525050565b611b7e816123e6565b82525050565b611b8d8161240a565b82525050565b611b9c8161242e565b82525050565b6000611bad826121df565b611bb78185612226565b9350611bc7818560208601612461565b611bd0816125aa565b840191505092915050565b6000611be6826121df565b611bf08185612237565b9350611c00818560208601612461565b611c09816125aa565b840191505092915050565b6000611c1f826121df565b611c298185612248565b9350611c39818560208601612461565b80840191505092915050565b6000611c52602083612237565b9150611c5d826125c8565b602082019050919050565b6000611c75600883612248565b9150611c80826125f1565b600882019050919050565b6000611c98603683612237565b9150611ca38261261a565b604082019050919050565b6000611cbb601b83612237565b9150611cc682612669565b602082019050919050565b6000611cde602383612237565b9150611ce982612692565b604082019050919050565b6000611d01602283612237565b9150611d0c826126e1565b604082019050919050565b6000611d24600183612248565b9150611d2f82612730565b600182019050919050565b6000611d47603083612248565b9150611d5282612759565b603082019050919050565b6000611d6a601f83612237565b9150611d75826127a8565b602082019050919050565b6000611d8d601783612248565b9150611d98826127d1565b601782019050919050565b6000611db0601183612248565b9150611dbb826127fa565b601182019050919050565b6000611dd3602f83612237565b9150611dde82612823565b604082019050919050565b611df2816123dc565b82525050565b611e01816123dc565b82525050565b611e18611e13826123dc565b612513565b82525050565b6000611e2982611c68565b9150611e358285611a6d565b601482019150611e4482611d3a565b9150611e508284611e07565b602082019150611e5f82611d17565b91508190509392505050565b6000611e7682611d80565b9150611e828285611c14565b9150611e8d82611da3565b9150611e998284611c14565b91508190509392505050565b6000602082019050611eba6000830184611a5e565b92915050565b6000604082019050611ed56000830185611a5e565b611ee26020830184611df8565b9392505050565b60006040820190508181036000830152611f038185611af9565b90508181036020830152611f178184611a84565b90509392505050565b6000602082019050611f356000830184611b57565b92915050565b6000602082019050611f506000830184611b66565b92915050565b6000602082019050611f6b6000830184611b75565b92915050565b6000602082019050611f866000830184611b84565b92915050565b6000602082019050611fa16000830184611b93565b92915050565b60006020820190508181036000830152611fc18184611bdb565b905092915050565b60006020820190508181036000830152611fe281611c45565b9050919050565b6000602082019050818103600083015261200281611c8b565b9050919050565b6000602082019050818103600083015261202281611cae565b9050919050565b6000602082019050818103600083015261204281611cd1565b9050919050565b6000602082019050818103600083015261206281611cf4565b9050919050565b6000602082019050818103600083015261208281611d5d565b9050919050565b600060208201905081810360008301526120a281611dc6565b9050919050565b60006020820190506120be6000830184611df8565b92915050565b60006060820190506120d96000830186611df8565b6120e66020830185611df8565b6120f36040830184611b57565b949350505050565b6000612105612116565b905061211182826124be565b919050565b6000604051905090565b600067ffffffffffffffff82111561213b5761213a61257b565b5b602082029050602081019050919050565b600067ffffffffffffffff8211156121675761216661257b565b5b602082029050602081019050919050565b600067ffffffffffffffff8211156121935761219261257b565b5b61219c826125aa565b9050602081019050919050565b6000819050602082019050919050565b6000819050602082019050919050565b600081519050919050565b600081519050919050565b600081519050919050565b6000602082019050919050565b6000602082019050919050565b600082825260208201905092915050565b600082825260208201905092915050565b600082825260208201905092915050565b600082825260208201905092915050565b600081905092915050565b600061225e826123dc565b9150612269836123dc565b9250827fffffffffffffffffffffffffffffffffffffffffffffffffffffffffffffffff0382111561229e5761229d61251d565b5b828201905092915050565b60006122b4826123dc565b91506122bf836123dc565b9250826122cf576122ce61254c565b5b828204905092915050565b60006122e5826123dc565b91506122f0836123dc565b9250817fffffffffffffffffffffffffffffffffffffffffffffffffffffffffffffffff04831182151516156123295761232861251d565b5b828202905092915050565b600061233f826123dc565b915061234a836123dc565b92508282101561235d5761235c61251d565b5b828203905092915050565b6000612373826123bc565b9050919050565b60008115159050919050565b6000819050919050565b60007fffffffff0000000000000000000000000000000000000000000000000000000082169050919050565b600073ffffffffffffffffffffffffffffffffffffffff82169050919050565b6000819050919050565b60006123f1826123f8565b9050919050565b6000612403826123bc565b9050919050565b60006124158261241c565b9050919050565b6000612427826123bc565b9050919050565b600061243982612440565b9050919050565b600061244b826123bc565b9050919050565b82818337600083830152505050565b60005b8381101561247f578082015181840152602081019050612464565b8381111561248e576000848401525b50505050565b600061249f826123dc565b915060008214156124b3576124b261251d565b5b600182039050919050565b6124c7826125aa565b810181811067ffffffffffffffff821117156124e6576124e561257b565b5b80604052505050565b60006124fa82612501565b9050919050565b600061250c826125bb565b9050919050565b6000819050919050565b7f4e487b7100000000000000000000000000000000000000000000000000000000600052601160045260246000fd5b7f4e487b7100000000000000000000000000000000000000000000000000000000600052601260045260246000fd5b7f4e487b7100000000000000000000000000000000000000000000000000000000600052604160045260246000fd5b6000601f19601f8301169050919050565b60008160601b9050919050565b7f537472696e67733a20686578206c656e67746820696e73756666696369656e74600082015250565b7f4164647265737320000000000000000000000000000000000000000000000000600082015250565b7f43616e6e6f74206d696e7420746f20747265617375727920616464726573732060008201527f756e74696c2073616c652069732066696e697368656400000000000000000000602082015250565b7f74696d657374616d70206973206e6f742075702d746f2d646174650000000000600082015250565b7f53656e646572206973206e6f742053616c65204d616e61676572206f7220416460008201527f6d696e0000000000000000000000000000000000000000000000000000000000602082015250565b7f53656e646572206973206e6f7420555249204d616e61676572206f722041646d60008201527f696e000000000000000000000000000000000000000000000000000000000000602082015250565b7f2500000000000000000000000000000000000000000000000000000000000000600082015250565b7f20646f6573206e6f742068617665206120636f75706f6e20776974682061206460008201527f6973636f756e742072617465206f662000000000000000000000000000000000602082015250565b7f737461727454696d65206973206c61746572207468616e20656e6454696d6500600082015250565b7f416363657373436f6e74726f6c3a206163636f756e7420000000000000000000600082015250565b7f206973206d697373696e6720726f6c6520000000000000000000000000000000600082015250565b7f416363657373436f6e74726f6c3a2063616e206f6e6c792072656e6f756e636560008201527f20726f6c657320666f722073656c660000000000000000000000000000000000602082015250565b61287b81612368565b811461288657600080fd5b50565b6128928161237a565b811461289d57600080fd5b50565b6128a981612386565b81146128b457600080fd5b50565b6128c081612390565b81146128cb57600080fd5b50565b6128d7816123dc565b81146128e257600080fd5b5056fea26469706673582212205802fd6e7cc6cd15d2f679bd64c2ac0eae4a97fe113a7ddcd4ce8785e5a4196d64736f6c63430008010033",
					"opcodes": "PUSH1 0x80 PUSH1 0x40 MSTORE PUSH4 0x70DC4900 PUSH1 0x5 SSTORE PUSH4 0x70DC4964 PUSH1 0x6 SSTORE PUSH3 0xF4240 PUSH1 0xA PUSH3 0x26 SWAP2 SWAP1 PUSH3 0xAA JUMP JUMPDEST PUSH1 0x7 SSTORE PUSH3 0xF4240 PUSH1 0x1 PUSH3 0x3B SWAP2 SWAP1 PUSH3 0xAA JUMP JUMPDEST PUSH1 0x8 SSTORE PUSH1 0x40 MLOAD DUP1 PUSH1 0x60 ADD PUSH1 0x40 MSTORE DUP1 PUSH2 0x2710 DUP2 MSTORE PUSH1 0x20 ADD TIMESTAMP DUP2 MSTORE PUSH1 0x20 ADD PUSH1 0x0 ISZERO ISZERO DUP2 MSTORE POP PUSH1 0x9 PUSH1 0x0 DUP3 ADD MLOAD DUP2 PUSH1 0x0 ADD SSTORE PUSH1 0x20 DUP3 ADD MLOAD DUP2 PUSH1 0x1 ADD SSTORE PUSH1 0x40 DUP3 ADD MLOAD DUP2 PUSH1 0x2 ADD PUSH1 0x0 PUSH2 0x100 EXP DUP2 SLOAD DUP2 PUSH1 0xFF MUL NOT AND SWAP1 DUP4 ISZERO ISZERO MUL OR SWAP1 SSTORE POP POP POP CALLVALUE DUP1 ISZERO PUSH3 0xA3 JUMPI PUSH1 0x0 DUP1 REVERT JUMPDEST POP PUSH3 0x144 JUMP JUMPDEST PUSH1 0x0 PUSH3 0xB7 DUP3 PUSH3 0x10B JUMP JUMPDEST SWAP2 POP PUSH3 0xC4 DUP4 PUSH3 0x10B JUMP JUMPDEST SWAP3 POP DUP2 PUSH32 0xFFFFFFFFFFFFFFFFFFFFFFFFFFFFFFFFFFFFFFFFFFFFFFFFFFFFFFFFFFFFFFFF DIV DUP4 GT DUP3 ISZERO ISZERO AND ISZERO PUSH3 0x100 JUMPI PUSH3 0xFF PUSH3 0x115 JUMP JUMPDEST JUMPDEST DUP3 DUP3 MUL SWAP1 POP SWAP3 SWAP2 POP POP JUMP JUMPDEST PUSH1 0x0 DUP2 SWAP1 POP SWAP2 SWAP1 POP JUMP JUMPDEST PUSH32 0x4E487B7100000000000000000000000000000000000000000000000000000000 PUSH1 0x0 MSTORE PUSH1 0x11 PUSH1 0x4 MSTORE PUSH1 0x24 PUSH1 0x0 REVERT JUMPDEST PUSH2 0x291B DUP1 PUSH3 0x154 PUSH1 0x0 CODECOPY PUSH1 0x0 RETURN INVALID PUSH1 0x80 PUSH1 0x40 MSTORE CALLVALUE DUP1 ISZERO PUSH2 0x10 JUMPI PUSH1 0x0 DUP1 REVERT JUMPDEST POP PUSH1 0x4 CALLDATASIZE LT PUSH2 0x173 JUMPI PUSH1 0x0 CALLDATALOAD PUSH1 0xE0 SHR DUP1 PUSH4 0x91232F18 GT PUSH2 0xDE JUMPI DUP1 PUSH4 0xBFF29CEE GT PUSH2 0x97 JUMPI DUP1 PUSH4 0xC5F956AF GT PUSH2 0x71 JUMPI DUP1 PUSH4 0xC5F956AF EQ PUSH2 0x418 JUMPI DUP1 PUSH4 0xCCB98FFC EQ PUSH2 0x436 JUMPI DUP1 PUSH4 0xD547741F EQ PUSH2 0x452 JUMPI DUP1 PUSH4 0xF121DA92 EQ PUSH2 0x46E JUMPI PUSH2 0x173 JUMP JUMPDEST DUP1 PUSH4 0xBFF29CEE EQ PUSH2 0x3D0 JUMPI DUP1 PUSH4 0xC0463711 EQ PUSH2 0x3DA JUMPI DUP1 PUSH4 0xC5DAE48F EQ PUSH2 0x3FA JUMPI PUSH2 0x173 JUMP JUMPDEST DUP1 PUSH4 0x91232F18 EQ PUSH2 0x2FC JUMPI DUP1 PUSH4 0x91D14854 EQ PUSH2 0x306 JUMPI DUP1 PUSH4 0x944044A1 EQ PUSH2 0x336 JUMPI DUP1 PUSH4 0xA217FDDF EQ PUSH2 0x352 JUMPI DUP1 PUSH4 0xA496F947 EQ PUSH2 0x370 JUMPI DUP1 PUSH4 0xAB6C0306 EQ PUSH2 0x3A0 JUMPI PUSH2 0x173 JUMP JUMPDEST DUP1 PUSH4 0x51F7598C GT PUSH2 0x130 JUMPI DUP1 PUSH4 0x51F7598C EQ PUSH2 0x24A JUMPI DUP1 PUSH4 0x551B42A8 EQ PUSH2 0x266 JUMPI DUP1 PUSH4 0x5CE7E721 EQ PUSH2 0x284 JUMPI DUP1 PUSH4 0x682D07D9 EQ PUSH2 0x2A2 JUMPI DUP1 PUSH4 0x68FC01A2 EQ PUSH2 0x2C0 JUMPI DUP1 PUSH4 0x8C83FAEB EQ PUSH2 0x2DE JUMPI PUSH2 0x173 JUMP JUMPDEST DUP1 PUSH4 0x1FFC9A7 EQ PUSH2 0x178 JUMPI DUP1 PUSH4 0x248A9CA3 EQ PUSH2 0x1A8 JUMPI DUP1 PUSH4 0x2F2FF15D EQ PUSH2 0x1D8 JUMPI DUP1 PUSH4 0x36568ABE EQ PUSH2 0x1F4 JUMPI DUP1 PUSH4 0x4C0F38C2 EQ PUSH2 0x210 JUMPI DUP1 PUSH4 0x4C9B73DA EQ PUSH2 0x22E JUMPI JUMPDEST PUSH1 0x0 DUP1 REVERT JUMPDEST PUSH2 0x192 PUSH1 0x4 DUP1 CALLDATASIZE SUB DUP2 ADD SWAP1 PUSH2 0x18D SWAP2 SWAP1 PUSH2 0x19B7 JUMP JUMPDEST PUSH2 0x48A JUMP JUMPDEST PUSH1 0x40 MLOAD PUSH2 0x19F SWAP2 SWAP1 PUSH2 0x1F20 JUMP JUMPDEST PUSH1 0x40 MLOAD DUP1 SWAP2 SUB SWAP1 RETURN JUMPDEST PUSH2 0x1C2 PUSH1 0x4 DUP1 CALLDATASIZE SUB DUP2 ADD SWAP1 PUSH2 0x1BD SWAP2 SWAP1 PUSH2 0x1952 JUMP JUMPDEST PUSH2 0x504 JUMP JUMPDEST PUSH1 0x40 MLOAD PUSH2 0x1CF SWAP2 SWAP1 PUSH2 0x1F3B JUMP JUMPDEST PUSH1 0x40 MLOAD DUP1 SWAP2 SUB SWAP1 RETURN JUMPDEST PUSH2 0x1F2 PUSH1 0x4 DUP1 CALLDATASIZE SUB DUP2 ADD SWAP1 PUSH2 0x1ED SWAP2 SWAP1 PUSH2 0x197B JUMP JUMPDEST PUSH2 0x523 JUMP JUMPDEST STOP JUMPDEST PUSH2 0x20E PUSH1 0x4 DUP1 CALLDATASIZE SUB DUP2 ADD SWAP1 PUSH2 0x209 SWAP2 SWAP1 PUSH2 0x197B JUMP JUMPDEST PUSH2 0x54C JUMP JUMPDEST STOP JUMPDEST PUSH2 0x218 PUSH2 0x5CF JUMP JUMPDEST PUSH1 0x40 MLOAD PUSH2 0x225 SWAP2 SWAP1 PUSH2 0x20A9 JUMP JUMPDEST PUSH1 0x40 MLOAD DUP1 SWAP2 SUB SWAP1 RETURN JUMPDEST PUSH2 0x248 PUSH1 0x4 DUP1 CALLDATASIZE SUB DUP2 ADD SWAP1 PUSH2 0x243 SWAP2 SWAP1 PUSH2 0x19E0 JUMP JUMPDEST PUSH2 0x676 JUMP JUMPDEST STOP JUMPDEST PUSH2 0x264 PUSH1 0x4 DUP1 CALLDATASIZE SUB DUP2 ADD SWAP1 PUSH2 0x25F SWAP2 SWAP1 PUSH2 0x1858 JUMP JUMPDEST PUSH2 0x699 JUMP JUMPDEST STOP JUMPDEST PUSH2 0x26E PUSH2 0x6F3 JUMP JUMPDEST PUSH1 0x40 MLOAD PUSH2 0x27B SWAP2 SWAP1 PUSH2 0x1F3B JUMP JUMPDEST PUSH1 0x40 MLOAD DUP1 SWAP2 SUB SWAP1 RETURN JUMPDEST PUSH2 0x28C PUSH2 0x717 JUMP JUMPDEST PUSH1 0x40 MLOAD PUSH2 0x299 SWAP2 SWAP1 PUSH2 0x1F71 JUMP JUMPDEST PUSH1 0x40 MLOAD DUP1 SWAP2 SUB SWAP1 RETURN JUMPDEST PUSH2 0x2AA PUSH2 0x73D JUMP JUMPDEST PUSH1 0x40 MLOAD PUSH2 0x2B7 SWAP2 SWAP1 PUSH2 0x1F3B JUMP JUMPDEST PUSH1 0x40 MLOAD DUP1 SWAP2 SUB SWAP1 RETURN JUMPDEST PUSH2 0x2C8 PUSH2 0x761 JUMP JUMPDEST PUSH1 0x40 MLOAD PUSH2 0x2D5 SWAP2 SWAP1 PUSH2 0x20A9 JUMP JUMPDEST PUSH1 0x40 MLOAD DUP1 SWAP2 SUB SWAP1 RETURN JUMPDEST PUSH2 0x2E6 PUSH2 0x808 JUMP JUMPDEST PUSH1 0x40 MLOAD PUSH2 0x2F3 SWAP2 SWAP1 PUSH2 0x1F56 JUMP JUMPDEST PUSH1 0x40 MLOAD DUP1 SWAP2 SUB SWAP1 RETURN JUMPDEST PUSH2 0x304 PUSH2 0x82E JUMP JUMPDEST STOP JUMPDEST PUSH2 0x320 PUSH1 0x4 DUP1 CALLDATASIZE SUB DUP2 ADD SWAP1 PUSH2 0x31B SWAP2 SWAP1 PUSH2 0x197B JUMP JUMPDEST PUSH2 0x94A JUMP JUMPDEST PUSH1 0x40 MLOAD PUSH2 0x32D SWAP2 SWAP1 PUSH2 0x1F20 JUMP JUMPDEST PUSH1 0x40 MLOAD DUP1 SWAP2 SUB SWAP1 RETURN JUMPDEST PUSH2 0x350 PUSH1 0x4 DUP1 CALLDATASIZE SUB DUP2 ADD SWAP1 PUSH2 0x34B SWAP2 SWAP1 PUSH2 0x19E0 JUMP JUMPDEST PUSH2 0x9B4 JUMP JUMPDEST STOP JUMPDEST PUSH2 0x35A PUSH2 0xA49 JUMP JUMPDEST PUSH1 0x40 MLOAD PUSH2 0x367 SWAP2 SWAP1 PUSH2 0x1F3B JUMP JUMPDEST PUSH1 0x40 MLOAD DUP1 SWAP2 SUB SWAP1 RETURN JUMPDEST PUSH2 0x38A PUSH1 0x4 DUP1 CALLDATASIZE SUB DUP2 ADD SWAP1 PUSH2 0x385 SWAP2 SWAP1 PUSH2 0x1881 JUMP JUMPDEST PUSH2 0xA50 JUMP JUMPDEST PUSH1 0x40 MLOAD PUSH2 0x397 SWAP2 SWAP1 PUSH2 0x20A9 JUMP JUMPDEST PUSH1 0x40 MLOAD DUP1 SWAP2 SUB SWAP1 RETURN JUMPDEST PUSH2 0x3BA PUSH1 0x4 DUP1 CALLDATASIZE SUB DUP2 ADD SWAP1 PUSH2 0x3B5 SWAP2 SWAP1 PUSH2 0x1881 JUMP JUMPDEST PUSH2 0xA6C JUMP JUMPDEST PUSH1 0x40 MLOAD PUSH2 0x3C7 SWAP2 SWAP1 PUSH2 0x20A9 JUMP JUMPDEST PUSH1 0x40 MLOAD DUP1 SWAP2 SUB SWAP1 RETURN JUMPDEST PUSH2 0x3D8 PUSH2 0xBFD JUMP JUMPDEST STOP JUMPDEST PUSH2 0x3E2 PUSH2 0xC1B JUMP JUMPDEST PUSH1 0x40 MLOAD PUSH2 0x3F1 SWAP4 SWAP3 SWAP2 SWAP1 PUSH2 0x20C4 JUMP JUMPDEST PUSH1 0x40 MLOAD DUP1 SWAP2 SUB SWAP1 RETURN JUMPDEST PUSH2 0x402 PUSH2 0xC40 JUMP JUMPDEST PUSH1 0x40 MLOAD PUSH2 0x40F SWAP2 SWAP1 PUSH2 0x1F8C JUMP JUMPDEST PUSH1 0x40 MLOAD DUP1 SWAP2 SUB SWAP1 RETURN JUMPDEST PUSH2 0x420 PUSH2 0xC66 JUMP JUMPDEST PUSH1 0x40 MLOAD PUSH2 0x42D SWAP2 SWAP1 PUSH2 0x1EA5 JUMP JUMPDEST PUSH1 0x40 MLOAD DUP1 SWAP2 SUB SWAP1 RETURN JUMPDEST PUSH2 0x450 PUSH1 0x4 DUP1 CALLDATASIZE SUB DUP2 ADD SWAP1 PUSH2 0x44B SWAP2 SWAP1 PUSH2 0x19E0 JUMP JUMPDEST PUSH2 0xC8C JUMP JUMPDEST STOP JUMPDEST PUSH2 0x46C PUSH1 0x4 DUP1 CALLDATASIZE SUB DUP2 ADD SWAP1 PUSH2 0x467 SWAP2 SWAP1 PUSH2 0x197B JUMP JUMPDEST PUSH2 0xD21 JUMP JUMPDEST STOP JUMPDEST PUSH2 0x488 PUSH1 0x4 DUP1 CALLDATASIZE SUB DUP2 ADD SWAP1 PUSH2 0x483 SWAP2 SWAP1 PUSH2 0x18BD JUMP JUMPDEST PUSH2 0xD4A JUMP JUMPDEST STOP JUMPDEST PUSH1 0x0 PUSH32 0x7965DB0B00000000000000000000000000000000000000000000000000000000 PUSH28 0xFFFFFFFFFFFFFFFFFFFFFFFFFFFFFFFFFFFFFFFFFFFFFFFFFFFFFFFF NOT AND DUP3 PUSH28 0xFFFFFFFFFFFFFFFFFFFFFFFFFFFFFFFFFFFFFFFFFFFFFFFFFFFFFFFF NOT AND EQ DUP1 PUSH2 0x4FD JUMPI POP PUSH2 0x4FC DUP3 PUSH2 0xE68 JUMP JUMPDEST JUMPDEST SWAP1 POP SWAP2 SWAP1 POP JUMP JUMPDEST PUSH1 0x0 DUP1 PUSH1 0x0 DUP4 DUP2 MSTORE PUSH1 0x20 ADD SWAP1 DUP2 MSTORE PUSH1 0x20 ADD PUSH1 0x0 KECCAK256 PUSH1 0x1 ADD SLOAD SWAP1 POP SWAP2 SWAP1 POP JUMP JUMPDEST PUSH2 0x52C DUP3 PUSH2 0x504 JUMP JUMPDEST PUSH2 0x53D DUP2 PUSH2 0x538 PUSH2 0xED2 JUMP JUMPDEST PUSH2 0xEDA JUMP JUMPDEST PUSH2 0x547 DUP4 DUP4 PUSH2 0xF77 JUMP JUMPDEST POP POP POP JUMP JUMPDEST PUSH2 0x554 PUSH2 0xED2 JUMP JUMPDEST PUSH20 0xFFFFFFFFFFFFFFFFFFFFFFFFFFFFFFFFFFFFFFFF AND DUP2 PUSH20 0xFFFFFFFFFFFFFFFFFFFFFFFFFFFFFFFFFFFFFFFF AND EQ PUSH2 0x5C1 JUMPI PUSH1 0x40 MLOAD PUSH32 0x8C379A000000000000000000000000000000000000000000000000000000000 DUP2 MSTORE PUSH1 0x4 ADD PUSH2 0x5B8 SWAP1 PUSH2 0x2089 JUMP JUMPDEST PUSH1 0x40 MLOAD DUP1 SWAP2 SUB SWAP1 REVERT JUMPDEST PUSH2 0x5CB DUP3 DUP3 PUSH2 0x1057 JUMP JUMPDEST POP POP JUMP JUMPDEST PUSH1 0x0 PUSH1 0x1 PUSH1 0x0 SWAP1 SLOAD SWAP1 PUSH2 0x100 EXP SWAP1 DIV PUSH20 0xFFFFFFFFFFFFFFFFFFFFFFFFFFFFFFFFFFFFFFFF AND PUSH20 0xFFFFFFFFFFFFFFFFFFFFFFFFFFFFFFFFFFFFFFFF AND PUSH4 0x4C0F38C2 PUSH1 0x40 MLOAD DUP2 PUSH4 0xFFFFFFFF AND PUSH1 0xE0 SHL DUP2 MSTORE PUSH1 0x4 ADD PUSH1 0x20 PUSH1 0x40 MLOAD DUP1 DUP4 SUB DUP2 DUP7 DUP1 EXTCODESIZE ISZERO DUP1 ISZERO PUSH2 0x639 JUMPI PUSH1 0x0 DUP1 REVERT JUMPDEST POP GAS STATICCALL ISZERO DUP1 ISZERO PUSH2 0x64D JUMPI RETURNDATASIZE PUSH1 0x0 DUP1 RETURNDATACOPY RETURNDATASIZE PUSH1 0x0 REVERT JUMPDEST POP POP POP POP PUSH1 0x40 MLOAD RETURNDATASIZE PUSH1 0x1F NOT PUSH1 0x1F DUP3 ADD AND DUP3 ADD DUP1 PUSH1 0x40 MSTORE POP DUP2 ADD SWAP1 PUSH2 0x671 SWAP2 SWAP1 PUSH2 0x1A09 JUMP JUMPDEST SWAP1 POP SWAP1 JUMP JUMPDEST PUSH2 0x67E PUSH2 0x1138 JUMP JUMPDEST PUSH1 0x0 PUSH2 0x68A CALLER DUP4 PUSH2 0xA6C JUMP JUMPDEST SWAP1 POP PUSH2 0x695 DUP2 PUSH2 0x1230 JUMP JUMPDEST POP POP JUMP JUMPDEST PUSH1 0x0 DUP1 SHL PUSH2 0x6AE DUP2 PUSH2 0x6A9 PUSH2 0xED2 JUMP JUMPDEST PUSH2 0xEDA JUMP JUMPDEST DUP2 PUSH1 0x1 PUSH1 0x0 PUSH2 0x100 EXP DUP2 SLOAD DUP2 PUSH20 0xFFFFFFFFFFFFFFFFFFFFFFFFFFFFFFFFFFFFFFFF MUL NOT AND SWAP1 DUP4 PUSH20 0xFFFFFFFFFFFFFFFFFFFFFFFFFFFFFFFFFFFFFFFF AND MUL OR SWAP1 SSTORE POP POP POP JUMP JUMPDEST PUSH32 0x988301AF8238F779281A300DE031815CD01B48E9F1AE47A0F91ED6584213624A DUP2 JUMP JUMPDEST PUSH1 0x2 PUSH1 0x0 SWAP1 SLOAD SWAP1 PUSH2 0x100 EXP SWAP1 DIV PUSH20 0xFFFFFFFFFFFFFFFFFFFFFFFFFFFFFFFFFFFFFFFF AND DUP2 JUMP JUMPDEST PUSH32 0xA70A2D8710FED9F014C8C2AF50C7C2F6B25748AE4CDED822E03B7BEED44CF3A8 DUP2 JUMP JUMPDEST PUSH1 0x0 PUSH1 0x1 PUSH1 0x0 SWAP1 SLOAD SWAP1 PUSH2 0x100 EXP SWAP1 DIV PUSH20 0xFFFFFFFFFFFFFFFFFFFFFFFFFFFFFFFFFFFFFFFF AND PUSH20 0xFFFFFFFFFFFFFFFFFFFFFFFFFFFFFFFFFFFFFFFF AND PUSH4 0x68FC01A2 PUSH1 0x40 MLOAD DUP2 PUSH4 0xFFFFFFFF AND PUSH1 0xE0 SHL DUP2 MSTORE PUSH1 0x4 ADD PUSH1 0x20 PUSH1 0x40 MLOAD DUP1 DUP4 SUB DUP2 DUP7 DUP1 EXTCODESIZE ISZERO DUP1 ISZERO PUSH2 0x7CB JUMPI PUSH1 0x0 DUP1 REVERT JUMPDEST POP GAS STATICCALL ISZERO DUP1 ISZERO PUSH2 0x7DF JUMPI RETURNDATASIZE PUSH1 0x0 DUP1 RETURNDATACOPY RETURNDATASIZE PUSH1 0x0 REVERT JUMPDEST POP POP POP POP PUSH1 0x40 MLOAD RETURNDATASIZE PUSH1 0x1F NOT PUSH1 0x1F DUP3 ADD AND DUP3 ADD DUP1 PUSH1 0x40 MSTORE POP DUP2 ADD SWAP1 PUSH2 0x803 SWAP2 SWAP1 PUSH2 0x1A09 JUMP JUMPDEST SWAP1 POP SWAP1 JUMP JUMPDEST PUSH1 0x1 PUSH1 0x0 SWAP1 SLOAD SWAP1 PUSH2 0x100 EXP SWAP1 DIV PUSH20 0xFFFFFFFFFFFFFFFFFFFFFFFFFFFFFFFFFFFFFFFF AND DUP2 JUMP JUMPDEST TIMESTAMP PUSH1 0x9 PUSH1 0x1 ADD SLOAD EQ PUSH2 0x875 JUMPI PUSH1 0x40 MLOAD PUSH32 0x8C379A000000000000000000000000000000000000000000000000000000000 DUP2 MSTORE PUSH1 0x4 ADD PUSH2 0x86C SWAP1 PUSH2 0x2009 JUMP JUMPDEST PUSH1 0x40 MLOAD DUP1 SWAP2 SUB SWAP1 REVERT JUMPDEST PUSH1 0x6 SLOAD TIMESTAMP GT DUP1 ISZERO PUSH2 0x896 JUMPI POP PUSH1 0x9 PUSH1 0x2 ADD PUSH1 0x0 SWAP1 SLOAD SWAP1 PUSH2 0x100 EXP SWAP1 DIV PUSH1 0xFF AND ISZERO JUMPDEST PUSH2 0x8D5 JUMPI PUSH1 0x40 MLOAD PUSH32 0x8C379A000000000000000000000000000000000000000000000000000000000 DUP2 MSTORE PUSH1 0x4 ADD PUSH2 0x8CC SWAP1 PUSH2 0x1FE9 JUMP JUMPDEST PUSH1 0x40 MLOAD DUP1 SWAP2 SUB SWAP1 REVERT JUMPDEST PUSH1 0x0 PUSH1 0x1 PUSH2 0x8E1 PUSH2 0x761 JUMP JUMPDEST PUSH2 0x8EB SWAP2 SWAP1 PUSH2 0x2334 JUMP JUMPDEST PUSH2 0x8F3 PUSH2 0x5CF JUMP JUMPDEST PUSH2 0x8FD SWAP2 SWAP1 PUSH2 0x2334 JUMP JUMPDEST SWAP1 POP JUMPDEST PUSH1 0x0 DUP2 GT ISZERO PUSH2 0x947 JUMPI PUSH2 0x934 PUSH1 0x4 PUSH1 0x0 SWAP1 SLOAD SWAP1 PUSH2 0x100 EXP SWAP1 DIV PUSH20 0xFFFFFFFFFFFFFFFFFFFFFFFFFFFFFFFFFFFFFFFF AND PUSH2 0x12CB JUMP JUMPDEST DUP1 DUP1 PUSH2 0x93F SWAP1 PUSH2 0x2494 JUMP JUMPDEST SWAP2 POP POP PUSH2 0x900 JUMP JUMPDEST POP JUMP JUMPDEST PUSH1 0x0 DUP1 PUSH1 0x0 DUP5 DUP2 MSTORE PUSH1 0x20 ADD SWAP1 DUP2 MSTORE PUSH1 0x20 ADD PUSH1 0x0 KECCAK256 PUSH1 0x0 ADD PUSH1 0x0 DUP4 PUSH20 0xFFFFFFFFFFFFFFFFFFFFFFFFFFFFFFFFFFFFFFFF AND PUSH20 0xFFFFFFFFFFFFFFFFFFFFFFFFFFFFFFFFFFFFFFFF AND DUP2 MSTORE PUSH1 0x20 ADD SWAP1 DUP2 MSTORE PUSH1 0x20 ADD PUSH1 0x0 KECCAK256 PUSH1 0x0 SWAP1 SLOAD SWAP1 PUSH2 0x100 EXP SWAP1 DIV PUSH1 0xFF AND SWAP1 POP SWAP3 SWAP2 POP POP JUMP JUMPDEST PUSH2 0x9E5 PUSH32 0x988301AF8238F779281A300DE031815CD01B48E9F1AE47A0F91ED6584213624A PUSH2 0x9E0 PUSH2 0xED2 JUMP JUMPDEST PUSH2 0x94A JUMP JUMPDEST DUP1 PUSH2 0xA00 JUMPI POP PUSH2 0x9FF PUSH1 0x0 DUP1 SHL PUSH2 0x9FA PUSH2 0xED2 JUMP JUMPDEST PUSH2 0x94A JUMP JUMPDEST JUMPDEST PUSH2 0xA3F JUMPI PUSH1 0x40 MLOAD PUSH32 0x8C379A000000000000000000000000000000000000000000000000000000000 DUP2 MSTORE PUSH1 0x4 ADD PUSH2 0xA36 SWAP1 PUSH2 0x2029 JUMP JUMPDEST PUSH1 0x40 MLOAD DUP1 SWAP2 SUB SWAP1 REVERT JUMPDEST DUP1 PUSH1 0x5 DUP2 SWAP1 SSTORE POP POP JUMP JUMPDEST PUSH1 0x0 DUP1 SHL DUP2 JUMP JUMPDEST PUSH1 0x0 PUSH2 0xA5A PUSH2 0x1138 JUMP JUMPDEST PUSH2 0xA64 DUP4 DUP4 PUSH2 0xA6C JUMP JUMPDEST SWAP1 POP SWAP3 SWAP2 POP POP JUMP JUMPDEST PUSH1 0x0 TIMESTAMP PUSH1 0x9 PUSH1 0x1 ADD SLOAD EQ PUSH2 0xAB5 JUMPI PUSH1 0x40 MLOAD PUSH32 0x8C379A000000000000000000000000000000000000000000000000000000000 DUP2 MSTORE PUSH1 0x4 ADD PUSH2 0xAAC SWAP1 PUSH2 0x2009 JUMP JUMPDEST PUSH1 0x40 MLOAD DUP1 SWAP2 SUB SWAP1 REVERT JUMPDEST PUSH1 0x2 PUSH1 0x0 SWAP1 SLOAD SWAP1 PUSH2 0x100 EXP SWAP1 DIV PUSH20 0xFFFFFFFFFFFFFFFFFFFFFFFFFFFFFFFFFFFFFFFF AND PUSH20 0xFFFFFFFFFFFFFFFFFFFFFFFFFFFFFFFFFFFFFFFF AND PUSH4 0x2080179D DUP5 DUP5 PUSH1 0x40 MLOAD DUP4 PUSH4 0xFFFFFFFF AND PUSH1 0xE0 SHL DUP2 MSTORE PUSH1 0x4 ADD PUSH2 0xB12 SWAP3 SWAP2 SWAP1 PUSH2 0x1EC0 JUMP JUMPDEST PUSH1 0x20 PUSH1 0x40 MLOAD DUP1 DUP4 SUB DUP2 DUP7 DUP1 EXTCODESIZE ISZERO DUP1 ISZERO PUSH2 0xB2A JUMPI PUSH1 0x0 DUP1 REVERT JUMPDEST POP GAS STATICCALL ISZERO DUP1 ISZERO PUSH2 0xB3E JUMPI RETURNDATASIZE PUSH1 0x0 DUP1 RETURNDATACOPY RETURNDATASIZE PUSH1 0x0 REVERT JUMPDEST POP POP POP POP PUSH1 0x40 MLOAD RETURNDATASIZE PUSH1 0x1F NOT PUSH1 0x1F DUP3 ADD AND DUP3 ADD DUP1 PUSH1 0x40 MSTORE POP DUP2 ADD SWAP1 PUSH2 0xB62 SWAP2 SWAP1 PUSH2 0x1929 JUMP JUMPDEST DUP4 DUP4 PUSH1 0x40 MLOAD PUSH1 0x20 ADD PUSH2 0xB75 SWAP3 SWAP2 SWAP1 PUSH2 0x1E1E JUMP JUMPDEST PUSH1 0x40 MLOAD PUSH1 0x20 DUP2 DUP4 SUB SUB DUP2 MSTORE SWAP1 PUSH1 0x40 MSTORE SWAP1 PUSH2 0xBC5 JUMPI PUSH1 0x40 MLOAD PUSH32 0x8C379A000000000000000000000000000000000000000000000000000000000 DUP2 MSTORE PUSH1 0x4 ADD PUSH2 0xBBC SWAP2 SWAP1 PUSH2 0x1FA7 JUMP JUMPDEST PUSH1 0x40 MLOAD DUP1 SWAP2 SUB SWAP1 REVERT JUMPDEST POP PUSH1 0x0 DUP3 PUSH1 0x64 PUSH2 0xBD5 SWAP2 SWAP1 PUSH2 0x2334 JUMP JUMPDEST PUSH1 0x64 PUSH1 0x9 PUSH1 0x0 ADD SLOAD PUSH2 0xBE7 SWAP2 SWAP1 PUSH2 0x22A9 JUMP JUMPDEST PUSH2 0xBF1 SWAP2 SWAP1 PUSH2 0x22DA JUMP JUMPDEST SWAP1 POP DUP1 SWAP2 POP POP SWAP3 SWAP2 POP POP JUMP JUMPDEST PUSH2 0xC05 PUSH2 0x1138 JUMP JUMPDEST PUSH1 0x0 PUSH1 0x9 PUSH1 0x0 ADD SLOAD SWAP1 POP PUSH2 0xC18 DUP2 PUSH2 0x1230 JUMP JUMPDEST POP JUMP JUMPDEST PUSH1 0x9 DUP1 PUSH1 0x0 ADD SLOAD SWAP1 DUP1 PUSH1 0x1 ADD SLOAD SWAP1 DUP1 PUSH1 0x2 ADD PUSH1 0x0 SWAP1 SLOAD SWAP1 PUSH2 0x100 EXP SWAP1 DIV PUSH1 0xFF AND SWAP1 POP DUP4 JUMP JUMPDEST PUSH1 0x3 PUSH1 0x0 SWAP1 SLOAD SWAP1 PUSH2 0x100 EXP SWAP1 DIV PUSH20 0xFFFFFFFFFFFFFFFFFFFFFFFFFFFFFFFFFFFFFFFF AND DUP2 JUMP JUMPDEST PUSH1 0x4 PUSH1 0x0 SWAP1 SLOAD SWAP1 PUSH2 0x100 EXP SWAP1 DIV PUSH20 0xFFFFFFFFFFFFFFFFFFFFFFFFFFFFFFFFFFFFFFFF AND DUP2 JUMP JUMPDEST PUSH2 0xCBD PUSH32 0x988301AF8238F779281A300DE031815CD01B48E9F1AE47A0F91ED6584213624A PUSH2 0xCB8 PUSH2 0xED2 JUMP JUMPDEST PUSH2 0x94A JUMP JUMPDEST DUP1 PUSH2 0xCD8 JUMPI POP PUSH2 0xCD7 PUSH1 0x0 DUP1 SHL PUSH2 0xCD2 PUSH2 0xED2 JUMP JUMPDEST PUSH2 0x94A JUMP JUMPDEST JUMPDEST PUSH2 0xD17 JUMPI PUSH1 0x40 MLOAD PUSH32 0x8C379A000000000000000000000000000000000000000000000000000000000 DUP2 MSTORE PUSH1 0x4 ADD PUSH2 0xD0E SWAP1 PUSH2 0x2029 JUMP JUMPDEST PUSH1 0x40 MLOAD DUP1 SWAP2 SUB SWAP1 REVERT JUMPDEST DUP1 PUSH1 0x6 DUP2 SWAP1 SSTORE POP POP JUMP JUMPDEST PUSH2 0xD2A DUP3 PUSH2 0x504 JUMP JUMPDEST PUSH2 0xD3B DUP2 PUSH2 0xD36 PUSH2 0xED2 JUMP JUMPDEST PUSH2 0xEDA JUMP JUMPDEST PUSH2 0xD45 DUP4 DUP4 PUSH2 0x1057 JUMP JUMPDEST POP POP POP JUMP JUMPDEST PUSH2 0xD7B PUSH32 0xA70A2D8710FED9F014C8C2AF50C7C2F6B25748AE4CDED822E03B7BEED44CF3A8 PUSH2 0xD76 PUSH2 0xED2 JUMP JUMPDEST PUSH2 0x94A JUMP JUMPDEST DUP1 PUSH2 0xD96 JUMPI POP PUSH2 0xD95 PUSH1 0x0 DUP1 SHL PUSH2 0xD90 PUSH2 0xED2 JUMP JUMPDEST PUSH2 0x94A JUMP JUMPDEST JUMPDEST PUSH2 0xDD5 JUMPI PUSH1 0x40 MLOAD PUSH32 0x8C379A000000000000000000000000000000000000000000000000000000000 DUP2 MSTORE PUSH1 0x4 ADD PUSH2 0xDCC SWAP1 PUSH2 0x2049 JUMP JUMPDEST PUSH1 0x40 MLOAD DUP1 SWAP2 SUB SWAP1 REVERT JUMPDEST PUSH1 0x1 PUSH1 0x0 SWAP1 SLOAD SWAP1 PUSH2 0x100 EXP SWAP1 DIV PUSH20 0xFFFFFFFFFFFFFFFFFFFFFFFFFFFFFFFFFFFFFFFF AND PUSH20 0xFFFFFFFFFFFFFFFFFFFFFFFFFFFFFFFFFFFFFFFF AND PUSH4 0xF121DA92 DUP4 DUP4 PUSH1 0x40 MLOAD DUP4 PUSH4 0xFFFFFFFF AND PUSH1 0xE0 SHL DUP2 MSTORE PUSH1 0x4 ADD PUSH2 0xE32 SWAP3 SWAP2 SWAP1 PUSH2 0x1EE9 JUMP JUMPDEST PUSH1 0x0 PUSH1 0x40 MLOAD DUP1 DUP4 SUB DUP2 PUSH1 0x0 DUP8 DUP1 EXTCODESIZE ISZERO DUP1 ISZERO PUSH2 0xE4C JUMPI PUSH1 0x0 DUP1 REVERT JUMPDEST POP GAS CALL ISZERO DUP1 ISZERO PUSH2 0xE60 JUMPI RETURNDATASIZE PUSH1 0x0 DUP1 RETURNDATACOPY RETURNDATASIZE PUSH1 0x0 REVERT JUMPDEST POP POP POP POP POP POP JUMP JUMPDEST PUSH1 0x0 PUSH32 0x1FFC9A700000000000000000000000000000000000000000000000000000000 PUSH28 0xFFFFFFFFFFFFFFFFFFFFFFFFFFFFFFFFFFFFFFFFFFFFFFFFFFFFFFFF NOT AND DUP3 PUSH28 0xFFFFFFFFFFFFFFFFFFFFFFFFFFFFFFFFFFFFFFFFFFFFFFFFFFFFFFFF NOT AND EQ SWAP1 POP SWAP2 SWAP1 POP JUMP JUMPDEST PUSH1 0x0 CALLER SWAP1 POP SWAP1 JUMP JUMPDEST PUSH2 0xEE4 DUP3 DUP3 PUSH2 0x94A JUMP JUMPDEST PUSH2 0xF73 JUMPI PUSH2 0xF09 DUP2 PUSH20 0xFFFFFFFFFFFFFFFFFFFFFFFFFFFFFFFFFFFFFFFF AND PUSH1 0x14 PUSH2 0x135B JUMP JUMPDEST PUSH2 0xF17 DUP4 PUSH1 0x0 SHR PUSH1 0x20 PUSH2 0x135B JUMP JUMPDEST PUSH1 0x40 MLOAD PUSH1 0x20 ADD PUSH2 0xF28 SWAP3 SWAP2 SWAP1 PUSH2 0x1E6B JUMP JUMPDEST PUSH1 0x40 MLOAD PUSH1 0x20 DUP2 DUP4 SUB SUB DUP2 MSTORE SWAP1 PUSH1 0x40 MSTORE PUSH1 0x40 MLOAD PUSH32 0x8C379A000000000000000000000000000000000000000000000000000000000 DUP2 MSTORE PUSH1 0x4 ADD PUSH2 0xF6A SWAP2 SWAP1 PUSH2 0x1FA7 JUMP JUMPDEST PUSH1 0x40 MLOAD DUP1 SWAP2 SUB SWAP1 REVERT JUMPDEST POP POP JUMP JUMPDEST PUSH2 0xF81 DUP3 DUP3 PUSH2 0x94A JUMP JUMPDEST PUSH2 0x1053 JUMPI PUSH1 0x1 PUSH1 0x0 DUP1 DUP5 DUP2 MSTORE PUSH1 0x20 ADD SWAP1 DUP2 MSTORE PUSH1 0x20 ADD PUSH1 0x0 KECCAK256 PUSH1 0x0 ADD PUSH1 0x0 DUP4 PUSH20 0xFFFFFFFFFFFFFFFFFFFFFFFFFFFFFFFFFFFFFFFF AND PUSH20 0xFFFFFFFFFFFFFFFFFFFFFFFFFFFFFFFFFFFFFFFF AND DUP2 MSTORE PUSH1 0x20 ADD SWAP1 DUP2 MSTORE PUSH1 0x20 ADD PUSH1 0x0 KECCAK256 PUSH1 0x0 PUSH2 0x100 EXP DUP2 SLOAD DUP2 PUSH1 0xFF MUL NOT AND SWAP1 DUP4 ISZERO ISZERO MUL OR SWAP1 SSTORE POP PUSH2 0xFF8 PUSH2 0xED2 JUMP JUMPDEST PUSH20 0xFFFFFFFFFFFFFFFFFFFFFFFFFFFFFFFFFFFFFFFF AND DUP2 PUSH20 0xFFFFFFFFFFFFFFFFFFFFFFFFFFFFFFFFFFFFFFFF AND DUP4 PUSH32 0x2F8788117E7EFF1D82E926EC794901D17C78024A50270940304540A733656F0D PUSH1 0x40 MLOAD PUSH1 0x40 MLOAD DUP1 SWAP2 SUB SWAP1 LOG4 JUMPDEST POP POP JUMP JUMPDEST PUSH2 0x1061 DUP3 DUP3 PUSH2 0x94A JUMP JUMPDEST ISZERO PUSH2 0x1134 JUMPI PUSH1 0x0 DUP1 PUSH1 0x0 DUP5 DUP2 MSTORE PUSH1 0x20 ADD SWAP1 DUP2 MSTORE PUSH1 0x20 ADD PUSH1 0x0 KECCAK256 PUSH1 0x0 ADD PUSH1 0x0 DUP4 PUSH20 0xFFFFFFFFFFFFFFFFFFFFFFFFFFFFFFFFFFFFFFFF AND PUSH20 0xFFFFFFFFFFFFFFFFFFFFFFFFFFFFFFFFFFFFFFFF AND DUP2 MSTORE PUSH1 0x20 ADD SWAP1 DUP2 MSTORE PUSH1 0x20 ADD PUSH1 0x0 KECCAK256 PUSH1 0x0 PUSH2 0x100 EXP DUP2 SLOAD DUP2 PUSH1 0xFF MUL NOT AND SWAP1 DUP4 ISZERO ISZERO MUL OR SWAP1 SSTORE POP PUSH2 0x10D9 PUSH2 0xED2 JUMP JUMPDEST PUSH20 0xFFFFFFFFFFFFFFFFFFFFFFFFFFFFFFFFFFFFFFFF AND DUP2 PUSH20 0xFFFFFFFFFFFFFFFFFFFFFFFFFFFFFFFFFFFFFFFF AND DUP4 PUSH32 0xF6391F5C32D9C69D2A47EA670B442974B53935D1EDC7FD64EB21E047A839171B PUSH1 0x40 MLOAD PUSH1 0x40 MLOAD DUP1 SWAP2 SUB SWAP1 LOG4 JUMPDEST POP POP JUMP JUMPDEST PUSH1 0x6 SLOAD PUSH1 0x5 SLOAD GT ISZERO PUSH2 0x117F JUMPI PUSH1 0x40 MLOAD PUSH32 0x8C379A000000000000000000000000000000000000000000000000000000000 DUP2 MSTORE PUSH1 0x4 ADD PUSH2 0x1176 SWAP1 PUSH2 0x2069 JUMP JUMPDEST PUSH1 0x40 MLOAD DUP1 SWAP2 SUB SWAP1 REVERT JUMPDEST PUSH3 0xF4240 PUSH1 0x1 PUSH2 0x118F SWAP2 SWAP1 PUSH2 0x22DA JUMP JUMPDEST PUSH1 0x3C PUSH1 0x5 SLOAD TIMESTAMP PUSH2 0x119F SWAP2 SWAP1 PUSH2 0x2334 JUMP JUMPDEST PUSH2 0x11A9 SWAP2 SWAP1 PUSH2 0x22A9 JUMP JUMPDEST PUSH2 0x11B3 SWAP2 SWAP1 PUSH2 0x22DA JUMP JUMPDEST PUSH1 0x7 SLOAD PUSH2 0x11C0 SWAP2 SWAP1 PUSH2 0x2334 JUMP JUMPDEST PUSH1 0x9 PUSH1 0x0 ADD DUP2 SWAP1 SSTORE POP TIMESTAMP PUSH1 0x9 PUSH1 0x1 ADD DUP2 SWAP1 SSTORE POP PUSH1 0x5 SLOAD TIMESTAMP LT ISZERO DUP1 ISZERO PUSH2 0x11E7 JUMPI POP PUSH1 0x6 SLOAD TIMESTAMP GT ISZERO JUMPDEST ISZERO PUSH2 0x120F JUMPI PUSH1 0x1 PUSH1 0x9 PUSH1 0x2 ADD PUSH1 0x0 PUSH2 0x100 EXP DUP2 SLOAD DUP2 PUSH1 0xFF MUL NOT AND SWAP1 DUP4 ISZERO ISZERO MUL OR SWAP1 SSTORE POP PUSH2 0x122E JUMP JUMPDEST PUSH1 0x0 PUSH1 0x9 PUSH1 0x2 ADD PUSH1 0x0 PUSH2 0x100 EXP DUP2 SLOAD DUP2 PUSH1 0xFF MUL NOT AND SWAP1 DUP4 ISZERO ISZERO MUL OR SWAP1 SSTORE POP JUMPDEST JUMP JUMPDEST PUSH1 0x3 PUSH1 0x0 SWAP1 SLOAD SWAP1 PUSH2 0x100 EXP SWAP1 DIV PUSH20 0xFFFFFFFFFFFFFFFFFFFFFFFFFFFFFFFFFFFFFFFF AND PUSH20 0xFFFFFFFFFFFFFFFFFFFFFFFFFFFFFFFFFFFFFFFF AND PUSH4 0x532B2913 CALLER DUP4 PUSH1 0x40 MLOAD DUP4 PUSH4 0xFFFFFFFF AND PUSH1 0xE0 SHL DUP2 MSTORE PUSH1 0x4 ADD PUSH2 0x128D SWAP3 SWAP2 SWAP1 PUSH2 0x1EC0 JUMP JUMPDEST PUSH1 0x0 PUSH1 0x40 MLOAD DUP1 DUP4 SUB DUP2 PUSH1 0x0 DUP8 DUP1 EXTCODESIZE ISZERO DUP1 ISZERO PUSH2 0x12A7 JUMPI PUSH1 0x0 DUP1 REVERT JUMPDEST POP GAS CALL ISZERO DUP1 ISZERO PUSH2 0x12BB JUMPI RETURNDATASIZE PUSH1 0x0 DUP1 RETURNDATACOPY RETURNDATASIZE PUSH1 0x0 REVERT JUMPDEST POP POP POP POP PUSH2 0x12C8 CALLER PUSH2 0x12CB JUMP JUMPDEST POP JUMP JUMPDEST PUSH1 0x1 PUSH1 0x0 SWAP1 SLOAD SWAP1 PUSH2 0x100 EXP SWAP1 DIV PUSH20 0xFFFFFFFFFFFFFFFFFFFFFFFFFFFFFFFFFFFFFFFF AND PUSH20 0xFFFFFFFFFFFFFFFFFFFFFFFFFFFFFFFFFFFFFFFF AND PUSH4 0x55676590 DUP3 PUSH1 0x40 MLOAD DUP3 PUSH4 0xFFFFFFFF AND PUSH1 0xE0 SHL DUP2 MSTORE PUSH1 0x4 ADD PUSH2 0x1326 SWAP2 SWAP1 PUSH2 0x1EA5 JUMP JUMPDEST PUSH1 0x0 PUSH1 0x40 MLOAD DUP1 DUP4 SUB DUP2 PUSH1 0x0 DUP8 DUP1 EXTCODESIZE ISZERO DUP1 ISZERO PUSH2 0x1340 JUMPI PUSH1 0x0 DUP1 REVERT JUMPDEST POP GAS CALL ISZERO DUP1 ISZERO PUSH2 0x1354 JUMPI RETURNDATASIZE PUSH1 0x0 DUP1 RETURNDATACOPY RETURNDATASIZE PUSH1 0x0 REVERT JUMPDEST POP POP POP POP POP JUMP JUMPDEST PUSH1 0x60 PUSH1 0x0 PUSH1 0x2 DUP4 PUSH1 0x2 PUSH2 0x136E SWAP2 SWAP1 PUSH2 0x22DA JUMP JUMPDEST PUSH2 0x1378 SWAP2 SWAP1 PUSH2 0x2253 JUMP JUMPDEST PUSH8 0xFFFFFFFFFFFFFFFF DUP2 GT ISZERO PUSH2 0x13B7 JUMPI PUSH32 0x4E487B7100000000000000000000000000000000000000000000000000000000 PUSH1 0x0 MSTORE PUSH1 0x41 PUSH1 0x4 MSTORE PUSH1 0x24 PUSH1 0x0 REVERT JUMPDEST PUSH1 0x40 MLOAD SWAP1 DUP1 DUP3 MSTORE DUP1 PUSH1 0x1F ADD PUSH1 0x1F NOT AND PUSH1 0x20 ADD DUP3 ADD PUSH1 0x40 MSTORE DUP1 ISZERO PUSH2 0x13E9 JUMPI DUP2 PUSH1 0x20 ADD PUSH1 0x1 DUP3 MUL DUP1 CALLDATASIZE DUP4 CALLDATACOPY DUP1 DUP3 ADD SWAP2 POP POP SWAP1 POP JUMPDEST POP SWAP1 POP PUSH32 0x3000000000000000000000000000000000000000000000000000000000000000 DUP2 PUSH1 0x0 DUP2 MLOAD DUP2 LT PUSH2 0x1447 JUMPI PUSH32 0x4E487B7100000000000000000000000000000000000000000000000000000000 PUSH1 0x0 MSTORE PUSH1 0x32 PUSH1 0x4 MSTORE PUSH1 0x24 PUSH1 0x0 REVERT JUMPDEST PUSH1 0x20 ADD ADD SWAP1 PUSH31 0xFFFFFFFFFFFFFFFFFFFFFFFFFFFFFFFFFFFFFFFFFFFFFFFFFFFFFFFFFFFFFF NOT AND SWAP1 DUP2 PUSH1 0x0 BYTE SWAP1 MSTORE8 POP PUSH32 0x7800000000000000000000000000000000000000000000000000000000000000 DUP2 PUSH1 0x1 DUP2 MLOAD DUP2 LT PUSH2 0x14D1 JUMPI PUSH32 0x4E487B7100000000000000000000000000000000000000000000000000000000 PUSH1 0x0 MSTORE PUSH1 0x32 PUSH1 0x4 MSTORE PUSH1 0x24 PUSH1 0x0 REVERT JUMPDEST PUSH1 0x20 ADD ADD SWAP1 PUSH31 0xFFFFFFFFFFFFFFFFFFFFFFFFFFFFFFFFFFFFFFFFFFFFFFFFFFFFFFFFFFFFFF NOT AND SWAP1 DUP2 PUSH1 0x0 BYTE SWAP1 MSTORE8 POP PUSH1 0x0 PUSH1 0x1 DUP5 PUSH1 0x2 PUSH2 0x1511 SWAP2 SWAP1 PUSH2 0x22DA JUMP JUMPDEST PUSH2 0x151B SWAP2 SWAP1 PUSH2 0x2253 JUMP JUMPDEST SWAP1 POP JUMPDEST PUSH1 0x1 DUP2 GT ISZERO PUSH2 0x1607 JUMPI PUSH32 0x3031323334353637383961626364656600000000000000000000000000000000 PUSH1 0xF DUP7 AND PUSH1 0x10 DUP2 LT PUSH2 0x1583 JUMPI PUSH32 0x4E487B7100000000000000000000000000000000000000000000000000000000 PUSH1 0x0 MSTORE PUSH1 0x32 PUSH1 0x4 MSTORE PUSH1 0x24 PUSH1 0x0 REVERT JUMPDEST BYTE PUSH1 0xF8 SHL DUP3 DUP3 DUP2 MLOAD DUP2 LT PUSH2 0x15C0 JUMPI PUSH32 0x4E487B7100000000000000000000000000000000000000000000000000000000 PUSH1 0x0 MSTORE PUSH1 0x32 PUSH1 0x4 MSTORE PUSH1 0x24 PUSH1 0x0 REVERT JUMPDEST PUSH1 0x20 ADD ADD SWAP1 PUSH31 0xFFFFFFFFFFFFFFFFFFFFFFFFFFFFFFFFFFFFFFFFFFFFFFFFFFFFFFFFFFFFFF NOT AND SWAP1 DUP2 PUSH1 0x0 BYTE SWAP1 MSTORE8 POP PUSH1 0x4 DUP6 SWAP1 SHR SWAP5 POP DUP1 PUSH2 0x1600 SWAP1 PUSH2 0x2494 JUMP JUMPDEST SWAP1 POP PUSH2 0x151E JUMP JUMPDEST POP PUSH1 0x0 DUP5 EQ PUSH2 0x164B JUMPI PUSH1 0x40 MLOAD PUSH32 0x8C379A000000000000000000000000000000000000000000000000000000000 DUP2 MSTORE PUSH1 0x4 ADD PUSH2 0x1642 SWAP1 PUSH2 0x1FC9 JUMP JUMPDEST PUSH1 0x40 MLOAD DUP1 SWAP2 SUB SWAP1 REVERT JUMPDEST DUP1 SWAP2 POP POP SWAP3 SWAP2 POP POP JUMP JUMPDEST PUSH1 0x0 PUSH2 0x1668 PUSH2 0x1663 DUP5 PUSH2 0x2120 JUMP JUMPDEST PUSH2 0x20FB JUMP JUMPDEST SWAP1 POP DUP1 DUP4 DUP3 MSTORE PUSH1 0x20 DUP3 ADD SWAP1 POP DUP3 PUSH1 0x0 JUMPDEST DUP6 DUP2 LT ISZERO PUSH2 0x16A8 JUMPI DUP2 CALLDATALOAD DUP6 ADD PUSH2 0x168E DUP9 DUP3 PUSH2 0x1804 JUMP JUMPDEST DUP5 MSTORE PUSH1 0x20 DUP5 ADD SWAP4 POP PUSH1 0x20 DUP4 ADD SWAP3 POP POP PUSH1 0x1 DUP2 ADD SWAP1 POP PUSH2 0x1678 JUMP JUMPDEST POP POP POP SWAP4 SWAP3 POP POP POP JUMP JUMPDEST PUSH1 0x0 PUSH2 0x16C5 PUSH2 0x16C0 DUP5 PUSH2 0x214C JUMP JUMPDEST PUSH2 0x20FB JUMP JUMPDEST SWAP1 POP DUP1 DUP4 DUP3 MSTORE PUSH1 0x20 DUP3 ADD SWAP1 POP DUP3 DUP6 PUSH1 0x20 DUP7 MUL DUP3 ADD GT ISZERO PUSH2 0x16E4 JUMPI PUSH1 0x0 DUP1 REVERT JUMPDEST PUSH1 0x0 JUMPDEST DUP6 DUP2 LT ISZERO PUSH2 0x1714 JUMPI DUP2 PUSH2 0x16FA DUP9 DUP3 PUSH2 0x182E JUMP JUMPDEST DUP5 MSTORE PUSH1 0x20 DUP5 ADD SWAP4 POP PUSH1 0x20 DUP4 ADD SWAP3 POP POP PUSH1 0x1 DUP2 ADD SWAP1 POP PUSH2 0x16E7 JUMP JUMPDEST POP POP POP SWAP4 SWAP3 POP POP POP JUMP JUMPDEST PUSH1 0x0 PUSH2 0x1731 PUSH2 0x172C DUP5 PUSH2 0x2178 JUMP JUMPDEST PUSH2 0x20FB JUMP JUMPDEST SWAP1 POP DUP3 DUP2 MSTORE PUSH1 0x20 DUP2 ADD DUP5 DUP5 DUP5 ADD GT ISZERO PUSH2 0x1749 JUMPI PUSH1 0x0 DUP1 REVERT JUMPDEST PUSH2 0x1754 DUP5 DUP3 DUP6 PUSH2 0x2452 JUMP JUMPDEST POP SWAP4 SWAP3 POP POP POP JUMP JUMPDEST PUSH1 0x0 DUP2 CALLDATALOAD SWAP1 POP PUSH2 0x176B DUP2 PUSH2 0x2872 JUMP JUMPDEST SWAP3 SWAP2 POP POP JUMP JUMPDEST PUSH1 0x0 DUP3 PUSH1 0x1F DUP4 ADD SLT PUSH2 0x1782 JUMPI PUSH1 0x0 DUP1 REVERT JUMPDEST DUP2 CALLDATALOAD PUSH2 0x1792 DUP5 DUP3 PUSH1 0x20 DUP7 ADD PUSH2 0x1655 JUMP JUMPDEST SWAP2 POP POP SWAP3 SWAP2 POP POP JUMP JUMPDEST PUSH1 0x0 DUP3 PUSH1 0x1F DUP4 ADD SLT PUSH2 0x17AC JUMPI PUSH1 0x0 DUP1 REVERT JUMPDEST DUP2 CALLDATALOAD PUSH2 0x17BC DUP5 DUP3 PUSH1 0x20 DUP7 ADD PUSH2 0x16B2 JUMP JUMPDEST SWAP2 POP POP SWAP3 SWAP2 POP POP JUMP JUMPDEST PUSH1 0x0 DUP2 MLOAD SWAP1 POP PUSH2 0x17D4 DUP2 PUSH2 0x2889 JUMP JUMPDEST SWAP3 SWAP2 POP POP JUMP JUMPDEST PUSH1 0x0 DUP2 CALLDATALOAD SWAP1 POP PUSH2 0x17E9 DUP2 PUSH2 0x28A0 JUMP JUMPDEST SWAP3 SWAP2 POP POP JUMP JUMPDEST PUSH1 0x0 DUP2 CALLDATALOAD SWAP1 POP PUSH2 0x17FE DUP2 PUSH2 0x28B7 JUMP JUMPDEST SWAP3 SWAP2 POP POP JUMP JUMPDEST PUSH1 0x0 DUP3 PUSH1 0x1F DUP4 ADD SLT PUSH2 0x1815 JUMPI PUSH1 0x0 DUP1 REVERT JUMPDEST DUP2 CALLDATALOAD PUSH2 0x1825 DUP5 DUP3 PUSH1 0x20 DUP7 ADD PUSH2 0x171E JUMP JUMPDEST SWAP2 POP POP SWAP3 SWAP2 POP POP JUMP JUMPDEST PUSH1 0x0 DUP2 CALLDATALOAD SWAP1 POP PUSH2 0x183D DUP2 PUSH2 0x28CE JUMP JUMPDEST SWAP3 SWAP2 POP POP JUMP JUMPDEST PUSH1 0x0 DUP2 MLOAD SWAP1 POP PUSH2 0x1852 DUP2 PUSH2 0x28CE JUMP JUMPDEST SWAP3 SWAP2 POP POP JUMP JUMPDEST PUSH1 0x0 PUSH1 0x20 DUP3 DUP5 SUB SLT ISZERO PUSH2 0x186A JUMPI PUSH1 0x0 DUP1 REVERT JUMPDEST PUSH1 0x0 PUSH2 0x1878 DUP5 DUP3 DUP6 ADD PUSH2 0x175C JUMP JUMPDEST SWAP2 POP POP SWAP3 SWAP2 POP POP JUMP JUMPDEST PUSH1 0x0 DUP1 PUSH1 0x40 DUP4 DUP6 SUB SLT ISZERO PUSH2 0x1894 JUMPI PUSH1 0x0 DUP1 REVERT JUMPDEST PUSH1 0x0 PUSH2 0x18A2 DUP6 DUP3 DUP7 ADD PUSH2 0x175C JUMP JUMPDEST SWAP3 POP POP PUSH1 0x20 PUSH2 0x18B3 DUP6 DUP3 DUP7 ADD PUSH2 0x182E JUMP JUMPDEST SWAP2 POP POP SWAP3 POP SWAP3 SWAP1 POP JUMP JUMPDEST PUSH1 0x0 DUP1 PUSH1 0x40 DUP4 DUP6 SUB SLT ISZERO PUSH2 0x18D0 JUMPI PUSH1 0x0 DUP1 REVERT JUMPDEST PUSH1 0x0 DUP4 ADD CALLDATALOAD PUSH8 0xFFFFFFFFFFFFFFFF DUP2 GT ISZERO PUSH2 0x18EA JUMPI PUSH1 0x0 DUP1 REVERT JUMPDEST PUSH2 0x18F6 DUP6 DUP3 DUP7 ADD PUSH2 0x179B JUMP JUMPDEST SWAP3 POP POP PUSH1 0x20 DUP4 ADD CALLDATALOAD PUSH8 0xFFFFFFFFFFFFFFFF DUP2 GT ISZERO PUSH2 0x1913 JUMPI PUSH1 0x0 DUP1 REVERT JUMPDEST PUSH2 0x191F DUP6 DUP3 DUP7 ADD PUSH2 0x1771 JUMP JUMPDEST SWAP2 POP POP SWAP3 POP SWAP3 SWAP1 POP JUMP JUMPDEST PUSH1 0x0 PUSH1 0x20 DUP3 DUP5 SUB SLT ISZERO PUSH2 0x193B JUMPI PUSH1 0x0 DUP1 REVERT JUMPDEST PUSH1 0x0 PUSH2 0x1949 DUP5 DUP3 DUP6 ADD PUSH2 0x17C5 JUMP JUMPDEST SWAP2 POP POP SWAP3 SWAP2 POP POP JUMP JUMPDEST PUSH1 0x0 PUSH1 0x20 DUP3 DUP5 SUB SLT ISZERO PUSH2 0x1964 JUMPI PUSH1 0x0 DUP1 REVERT JUMPDEST PUSH1 0x0 PUSH2 0x1972 DUP5 DUP3 DUP6 ADD PUSH2 0x17DA JUMP JUMPDEST SWAP2 POP POP SWAP3 SWAP2 POP POP JUMP JUMPDEST PUSH1 0x0 DUP1 PUSH1 0x40 DUP4 DUP6 SUB SLT ISZERO PUSH2 0x198E JUMPI PUSH1 0x0 DUP1 REVERT JUMPDEST PUSH1 0x0 PUSH2 0x199C DUP6 DUP3 DUP7 ADD PUSH2 0x17DA JUMP JUMPDEST SWAP3 POP POP PUSH1 0x20 PUSH2 0x19AD DUP6 DUP3 DUP7 ADD PUSH2 0x175C JUMP JUMPDEST SWAP2 POP POP SWAP3 POP SWAP3 SWAP1 POP JUMP JUMPDEST PUSH1 0x0 PUSH1 0x20 DUP3 DUP5 SUB SLT ISZERO PUSH2 0x19C9 JUMPI PUSH1 0x0 DUP1 REVERT JUMPDEST PUSH1 0x0 PUSH2 0x19D7 DUP5 DUP3 DUP6 ADD PUSH2 0x17EF JUMP JUMPDEST SWAP2 POP POP SWAP3 SWAP2 POP POP JUMP JUMPDEST PUSH1 0x0 PUSH1 0x20 DUP3 DUP5 SUB SLT ISZERO PUSH2 0x19F2 JUMPI PUSH1 0x0 DUP1 REVERT JUMPDEST PUSH1 0x0 PUSH2 0x1A00 DUP5 DUP3 DUP6 ADD PUSH2 0x182E JUMP JUMPDEST SWAP2 POP POP SWAP3 SWAP2 POP POP JUMP JUMPDEST PUSH1 0x0 PUSH1 0x20 DUP3 DUP5 SUB SLT ISZERO PUSH2 0x1A1B JUMPI PUSH1 0x0 DUP1 REVERT JUMPDEST PUSH1 0x0 PUSH2 0x1A29 DUP5 DUP3 DUP6 ADD PUSH2 0x1843 JUMP JUMPDEST SWAP2 POP POP SWAP3 SWAP2 POP POP JUMP JUMPDEST PUSH1 0x0 PUSH2 0x1A3E DUP4 DUP4 PUSH2 0x1BA2 JUMP JUMPDEST SWAP1 POP SWAP3 SWAP2 POP POP JUMP JUMPDEST PUSH1 0x0 PUSH2 0x1A52 DUP4 DUP4 PUSH2 0x1DE9 JUMP JUMPDEST PUSH1 0x20 DUP4 ADD SWAP1 POP SWAP3 SWAP2 POP POP JUMP JUMPDEST PUSH2 0x1A67 DUP2 PUSH2 0x2368 JUMP JUMPDEST DUP3 MSTORE POP POP JUMP JUMPDEST PUSH2 0x1A7E PUSH2 0x1A79 DUP3 PUSH2 0x2368 JUMP JUMPDEST PUSH2 0x24EF JUMP JUMPDEST DUP3 MSTORE POP POP JUMP JUMPDEST PUSH1 0x0 PUSH2 0x1A8F DUP3 PUSH2 0x21C9 JUMP JUMPDEST PUSH2 0x1A99 DUP2 DUP6 PUSH2 0x2204 JUMP JUMPDEST SWAP4 POP DUP4 PUSH1 0x20 DUP3 MUL DUP6 ADD PUSH2 0x1AAB DUP6 PUSH2 0x21A9 JUMP JUMPDEST DUP1 PUSH1 0x0 JUMPDEST DUP6 DUP2 LT ISZERO PUSH2 0x1AE7 JUMPI DUP5 DUP5 SUB DUP10 MSTORE DUP2 MLOAD PUSH2 0x1AC8 DUP6 DUP3 PUSH2 0x1A32 JUMP JUMPDEST SWAP5 POP PUSH2 0x1AD3 DUP4 PUSH2 0x21EA JUMP JUMPDEST SWAP3 POP PUSH1 0x20 DUP11 ADD SWAP10 POP POP PUSH1 0x1 DUP2 ADD SWAP1 POP PUSH2 0x1AAF JUMP JUMPDEST POP DUP3 SWAP8 POP DUP8 SWAP6 POP POP POP POP POP POP SWAP3 SWAP2 POP POP JUMP JUMPDEST PUSH1 0x0 PUSH2 0x1B04 DUP3 PUSH2 0x21D4 JUMP JUMPDEST PUSH2 0x1B0E DUP2 DUP6 PUSH2 0x2215 JUMP JUMPDEST SWAP4 POP PUSH2 0x1B19 DUP4 PUSH2 0x21B9 JUMP JUMPDEST DUP1 PUSH1 0x0 JUMPDEST DUP4 DUP2 LT ISZERO PUSH2 0x1B4A JUMPI DUP2 MLOAD PUSH2 0x1B31 DUP9 DUP3 PUSH2 0x1A46 JUMP JUMPDEST SWAP8 POP PUSH2 0x1B3C DUP4 PUSH2 0x21F7 JUMP JUMPDEST SWAP3 POP POP PUSH1 0x1 DUP2 ADD SWAP1 POP PUSH2 0x1B1D JUMP JUMPDEST POP DUP6 SWAP4 POP POP POP POP SWAP3 SWAP2 POP POP JUMP JUMPDEST PUSH2 0x1B60 DUP2 PUSH2 0x237A JUMP JUMPDEST DUP3 MSTORE POP POP JUMP JUMPDEST PUSH2 0x1B6F DUP2 PUSH2 0x2386 JUMP JUMPDEST DUP3 MSTORE POP POP JUMP JUMPDEST PUSH2 0x1B7E DUP2 PUSH2 0x23E6 JUMP JUMPDEST DUP3 MSTORE POP POP JUMP JUMPDEST PUSH2 0x1B8D DUP2 PUSH2 0x240A JUMP JUMPDEST DUP3 MSTORE POP POP JUMP JUMPDEST PUSH2 0x1B9C DUP2 PUSH2 0x242E JUMP JUMPDEST DUP3 MSTORE POP POP JUMP JUMPDEST PUSH1 0x0 PUSH2 0x1BAD DUP3 PUSH2 0x21DF JUMP JUMPDEST PUSH2 0x1BB7 DUP2 DUP6 PUSH2 0x2226 JUMP JUMPDEST SWAP4 POP PUSH2 0x1BC7 DUP2 DUP6 PUSH1 0x20 DUP7 ADD PUSH2 0x2461 JUMP JUMPDEST PUSH2 0x1BD0 DUP2 PUSH2 0x25AA JUMP JUMPDEST DUP5 ADD SWAP2 POP POP SWAP3 SWAP2 POP POP JUMP JUMPDEST PUSH1 0x0 PUSH2 0x1BE6 DUP3 PUSH2 0x21DF JUMP JUMPDEST PUSH2 0x1BF0 DUP2 DUP6 PUSH2 0x2237 JUMP JUMPDEST SWAP4 POP PUSH2 0x1C00 DUP2 DUP6 PUSH1 0x20 DUP7 ADD PUSH2 0x2461 JUMP JUMPDEST PUSH2 0x1C09 DUP2 PUSH2 0x25AA JUMP JUMPDEST DUP5 ADD SWAP2 POP POP SWAP3 SWAP2 POP POP JUMP JUMPDEST PUSH1 0x0 PUSH2 0x1C1F DUP3 PUSH2 0x21DF JUMP JUMPDEST PUSH2 0x1C29 DUP2 DUP6 PUSH2 0x2248 JUMP JUMPDEST SWAP4 POP PUSH2 0x1C39 DUP2 DUP6 PUSH1 0x20 DUP7 ADD PUSH2 0x2461 JUMP JUMPDEST DUP1 DUP5 ADD SWAP2 POP POP SWAP3 SWAP2 POP POP JUMP JUMPDEST PUSH1 0x0 PUSH2 0x1C52 PUSH1 0x20 DUP4 PUSH2 0x2237 JUMP JUMPDEST SWAP2 POP PUSH2 0x1C5D DUP3 PUSH2 0x25C8 JUMP JUMPDEST PUSH1 0x20 DUP3 ADD SWAP1 POP SWAP2 SWAP1 POP JUMP JUMPDEST PUSH1 0x0 PUSH2 0x1C75 PUSH1 0x8 DUP4 PUSH2 0x2248 JUMP JUMPDEST SWAP2 POP PUSH2 0x1C80 DUP3 PUSH2 0x25F1 JUMP JUMPDEST PUSH1 0x8 DUP3 ADD SWAP1 POP SWAP2 SWAP1 POP JUMP JUMPDEST PUSH1 0x0 PUSH2 0x1C98 PUSH1 0x36 DUP4 PUSH2 0x2237 JUMP JUMPDEST SWAP2 POP PUSH2 0x1CA3 DUP3 PUSH2 0x261A JUMP JUMPDEST PUSH1 0x40 DUP3 ADD SWAP1 POP SWAP2 SWAP1 POP JUMP JUMPDEST PUSH1 0x0 PUSH2 0x1CBB PUSH1 0x1B DUP4 PUSH2 0x2237 JUMP JUMPDEST SWAP2 POP PUSH2 0x1CC6 DUP3 PUSH2 0x2669 JUMP JUMPDEST PUSH1 0x20 DUP3 ADD SWAP1 POP SWAP2 SWAP1 POP JUMP JUMPDEST PUSH1 0x0 PUSH2 0x1CDE PUSH1 0x23 DUP4 PUSH2 0x2237 JUMP JUMPDEST SWAP2 POP PUSH2 0x1CE9 DUP3 PUSH2 0x2692 JUMP JUMPDEST PUSH1 0x40 DUP3 ADD SWAP1 POP SWAP2 SWAP1 POP JUMP JUMPDEST PUSH1 0x0 PUSH2 0x1D01 PUSH1 0x22 DUP4 PUSH2 0x2237 JUMP JUMPDEST SWAP2 POP PUSH2 0x1D0C DUP3 PUSH2 0x26E1 JUMP JUMPDEST PUSH1 0x40 DUP3 ADD SWAP1 POP SWAP2 SWAP1 POP JUMP JUMPDEST PUSH1 0x0 PUSH2 0x1D24 PUSH1 0x1 DUP4 PUSH2 0x2248 JUMP JUMPDEST SWAP2 POP PUSH2 0x1D2F DUP3 PUSH2 0x2730 JUMP JUMPDEST PUSH1 0x1 DUP3 ADD SWAP1 POP SWAP2 SWAP1 POP JUMP JUMPDEST PUSH1 0x0 PUSH2 0x1D47 PUSH1 0x30 DUP4 PUSH2 0x2248 JUMP JUMPDEST SWAP2 POP PUSH2 0x1D52 DUP3 PUSH2 0x2759 JUMP JUMPDEST PUSH1 0x30 DUP3 ADD SWAP1 POP SWAP2 SWAP1 POP JUMP JUMPDEST PUSH1 0x0 PUSH2 0x1D6A PUSH1 0x1F DUP4 PUSH2 0x2237 JUMP JUMPDEST SWAP2 POP PUSH2 0x1D75 DUP3 PUSH2 0x27A8 JUMP JUMPDEST PUSH1 0x20 DUP3 ADD SWAP1 POP SWAP2 SWAP1 POP JUMP JUMPDEST PUSH1 0x0 PUSH2 0x1D8D PUSH1 0x17 DUP4 PUSH2 0x2248 JUMP JUMPDEST SWAP2 POP PUSH2 0x1D98 DUP3 PUSH2 0x27D1 JUMP JUMPDEST PUSH1 0x17 DUP3 ADD SWAP1 POP SWAP2 SWAP1 POP JUMP JUMPDEST PUSH1 0x0 PUSH2 0x1DB0 PUSH1 0x11 DUP4 PUSH2 0x2248 JUMP JUMPDEST SWAP2 POP PUSH2 0x1DBB DUP3 PUSH2 0x27FA JUMP JUMPDEST PUSH1 0x11 DUP3 ADD SWAP1 POP SWAP2 SWAP1 POP JUMP JUMPDEST PUSH1 0x0 PUSH2 0x1DD3 PUSH1 0x2F DUP4 PUSH2 0x2237 JUMP JUMPDEST SWAP2 POP PUSH2 0x1DDE DUP3 PUSH2 0x2823 JUMP JUMPDEST PUSH1 0x40 DUP3 ADD SWAP1 POP SWAP2 SWAP1 POP JUMP JUMPDEST PUSH2 0x1DF2 DUP2 PUSH2 0x23DC JUMP JUMPDEST DUP3 MSTORE POP POP JUMP JUMPDEST PUSH2 0x1E01 DUP2 PUSH2 0x23DC JUMP JUMPDEST DUP3 MSTORE POP POP JUMP JUMPDEST PUSH2 0x1E18 PUSH2 0x1E13 DUP3 PUSH2 0x23DC JUMP JUMPDEST PUSH2 0x2513 JUMP JUMPDEST DUP3 MSTORE POP POP JUMP JUMPDEST PUSH1 0x0 PUSH2 0x1E29 DUP3 PUSH2 0x1C68 JUMP JUMPDEST SWAP2 POP PUSH2 0x1E35 DUP3 DUP6 PUSH2 0x1A6D JUMP JUMPDEST PUSH1 0x14 DUP3 ADD SWAP2 POP PUSH2 0x1E44 DUP3 PUSH2 0x1D3A JUMP JUMPDEST SWAP2 POP PUSH2 0x1E50 DUP3 DUP5 PUSH2 0x1E07 JUMP JUMPDEST PUSH1 0x20 DUP3 ADD SWAP2 POP PUSH2 0x1E5F DUP3 PUSH2 0x1D17 JUMP JUMPDEST SWAP2 POP DUP2 SWAP1 POP SWAP4 SWAP3 POP POP POP JUMP JUMPDEST PUSH1 0x0 PUSH2 0x1E76 DUP3 PUSH2 0x1D80 JUMP JUMPDEST SWAP2 POP PUSH2 0x1E82 DUP3 DUP6 PUSH2 0x1C14 JUMP JUMPDEST SWAP2 POP PUSH2 0x1E8D DUP3 PUSH2 0x1DA3 JUMP JUMPDEST SWAP2 POP PUSH2 0x1E99 DUP3 DUP5 PUSH2 0x1C14 JUMP JUMPDEST SWAP2 POP DUP2 SWAP1 POP SWAP4 SWAP3 POP POP POP JUMP JUMPDEST PUSH1 0x0 PUSH1 0x20 DUP3 ADD SWAP1 POP PUSH2 0x1EBA PUSH1 0x0 DUP4 ADD DUP5 PUSH2 0x1A5E JUMP JUMPDEST SWAP3 SWAP2 POP POP JUMP JUMPDEST PUSH1 0x0 PUSH1 0x40 DUP3 ADD SWAP1 POP PUSH2 0x1ED5 PUSH1 0x0 DUP4 ADD DUP6 PUSH2 0x1A5E JUMP JUMPDEST PUSH2 0x1EE2 PUSH1 0x20 DUP4 ADD DUP5 PUSH2 0x1DF8 JUMP JUMPDEST SWAP4 SWAP3 POP POP POP JUMP JUMPDEST PUSH1 0x0 PUSH1 0x40 DUP3 ADD SWAP1 POP DUP2 DUP2 SUB PUSH1 0x0 DUP4 ADD MSTORE PUSH2 0x1F03 DUP2 DUP6 PUSH2 0x1AF9 JUMP JUMPDEST SWAP1 POP DUP2 DUP2 SUB PUSH1 0x20 DUP4 ADD MSTORE PUSH2 0x1F17 DUP2 DUP5 PUSH2 0x1A84 JUMP JUMPDEST SWAP1 POP SWAP4 SWAP3 POP POP POP JUMP JUMPDEST PUSH1 0x0 PUSH1 0x20 DUP3 ADD SWAP1 POP PUSH2 0x1F35 PUSH1 0x0 DUP4 ADD DUP5 PUSH2 0x1B57 JUMP JUMPDEST SWAP3 SWAP2 POP POP JUMP JUMPDEST PUSH1 0x0 PUSH1 0x20 DUP3 ADD SWAP1 POP PUSH2 0x1F50 PUSH1 0x0 DUP4 ADD DUP5 PUSH2 0x1B66 JUMP JUMPDEST SWAP3 SWAP2 POP POP JUMP JUMPDEST PUSH1 0x0 PUSH1 0x20 DUP3 ADD SWAP1 POP PUSH2 0x1F6B PUSH1 0x0 DUP4 ADD DUP5 PUSH2 0x1B75 JUMP JUMPDEST SWAP3 SWAP2 POP POP JUMP JUMPDEST PUSH1 0x0 PUSH1 0x20 DUP3 ADD SWAP1 POP PUSH2 0x1F86 PUSH1 0x0 DUP4 ADD DUP5 PUSH2 0x1B84 JUMP JUMPDEST SWAP3 SWAP2 POP POP JUMP JUMPDEST PUSH1 0x0 PUSH1 0x20 DUP3 ADD SWAP1 POP PUSH2 0x1FA1 PUSH1 0x0 DUP4 ADD DUP5 PUSH2 0x1B93 JUMP JUMPDEST SWAP3 SWAP2 POP POP JUMP JUMPDEST PUSH1 0x0 PUSH1 0x20 DUP3 ADD SWAP1 POP DUP2 DUP2 SUB PUSH1 0x0 DUP4 ADD MSTORE PUSH2 0x1FC1 DUP2 DUP5 PUSH2 0x1BDB JUMP JUMPDEST SWAP1 POP SWAP3 SWAP2 POP POP JUMP JUMPDEST PUSH1 0x0 PUSH1 0x20 DUP3 ADD SWAP1 POP DUP2 DUP2 SUB PUSH1 0x0 DUP4 ADD MSTORE PUSH2 0x1FE2 DUP2 PUSH2 0x1C45 JUMP JUMPDEST SWAP1 POP SWAP2 SWAP1 POP JUMP JUMPDEST PUSH1 0x0 PUSH1 0x20 DUP3 ADD SWAP1 POP DUP2 DUP2 SUB PUSH1 0x0 DUP4 ADD MSTORE PUSH2 0x2002 DUP2 PUSH2 0x1C8B JUMP JUMPDEST SWAP1 POP SWAP2 SWAP1 POP JUMP JUMPDEST PUSH1 0x0 PUSH1 0x20 DUP3 ADD SWAP1 POP DUP2 DUP2 SUB PUSH1 0x0 DUP4 ADD MSTORE PUSH2 0x2022 DUP2 PUSH2 0x1CAE JUMP JUMPDEST SWAP1 POP SWAP2 SWAP1 POP JUMP JUMPDEST PUSH1 0x0 PUSH1 0x20 DUP3 ADD SWAP1 POP DUP2 DUP2 SUB PUSH1 0x0 DUP4 ADD MSTORE PUSH2 0x2042 DUP2 PUSH2 0x1CD1 JUMP JUMPDEST SWAP1 POP SWAP2 SWAP1 POP JUMP JUMPDEST PUSH1 0x0 PUSH1 0x20 DUP3 ADD SWAP1 POP DUP2 DUP2 SUB PUSH1 0x0 DUP4 ADD MSTORE PUSH2 0x2062 DUP2 PUSH2 0x1CF4 JUMP JUMPDEST SWAP1 POP SWAP2 SWAP1 POP JUMP JUMPDEST PUSH1 0x0 PUSH1 0x20 DUP3 ADD SWAP1 POP DUP2 DUP2 SUB PUSH1 0x0 DUP4 ADD MSTORE PUSH2 0x2082 DUP2 PUSH2 0x1D5D JUMP JUMPDEST SWAP1 POP SWAP2 SWAP1 POP JUMP JUMPDEST PUSH1 0x0 PUSH1 0x20 DUP3 ADD SWAP1 POP DUP2 DUP2 SUB PUSH1 0x0 DUP4 ADD MSTORE PUSH2 0x20A2 DUP2 PUSH2 0x1DC6 JUMP JUMPDEST SWAP1 POP SWAP2 SWAP1 POP JUMP JUMPDEST PUSH1 0x0 PUSH1 0x20 DUP3 ADD SWAP1 POP PUSH2 0x20BE PUSH1 0x0 DUP4 ADD DUP5 PUSH2 0x1DF8 JUMP JUMPDEST SWAP3 SWAP2 POP POP JUMP JUMPDEST PUSH1 0x0 PUSH1 0x60 DUP3 ADD SWAP1 POP PUSH2 0x20D9 PUSH1 0x0 DUP4 ADD DUP7 PUSH2 0x1DF8 JUMP JUMPDEST PUSH2 0x20E6 PUSH1 0x20 DUP4 ADD DUP6 PUSH2 0x1DF8 JUMP JUMPDEST PUSH2 0x20F3 PUSH1 0x40 DUP4 ADD DUP5 PUSH2 0x1B57 JUMP JUMPDEST SWAP5 SWAP4 POP POP POP POP JUMP JUMPDEST PUSH1 0x0 PUSH2 0x2105 PUSH2 0x2116 JUMP JUMPDEST SWAP1 POP PUSH2 0x2111 DUP3 DUP3 PUSH2 0x24BE JUMP JUMPDEST SWAP2 SWAP1 POP JUMP JUMPDEST PUSH1 0x0 PUSH1 0x40 MLOAD SWAP1 POP SWAP1 JUMP JUMPDEST PUSH1 0x0 PUSH8 0xFFFFFFFFFFFFFFFF DUP3 GT ISZERO PUSH2 0x213B JUMPI PUSH2 0x213A PUSH2 0x257B JUMP JUMPDEST JUMPDEST PUSH1 0x20 DUP3 MUL SWAP1 POP PUSH1 0x20 DUP2 ADD SWAP1 POP SWAP2 SWAP1 POP JUMP JUMPDEST PUSH1 0x0 PUSH8 0xFFFFFFFFFFFFFFFF DUP3 GT ISZERO PUSH2 0x2167 JUMPI PUSH2 0x2166 PUSH2 0x257B JUMP JUMPDEST JUMPDEST PUSH1 0x20 DUP3 MUL SWAP1 POP PUSH1 0x20 DUP2 ADD SWAP1 POP SWAP2 SWAP1 POP JUMP JUMPDEST PUSH1 0x0 PUSH8 0xFFFFFFFFFFFFFFFF DUP3 GT ISZERO PUSH2 0x2193 JUMPI PUSH2 0x2192 PUSH2 0x257B JUMP JUMPDEST JUMPDEST PUSH2 0x219C DUP3 PUSH2 0x25AA JUMP JUMPDEST SWAP1 POP PUSH1 0x20 DUP2 ADD SWAP1 POP SWAP2 SWAP1 POP JUMP JUMPDEST PUSH1 0x0 DUP2 SWAP1 POP PUSH1 0x20 DUP3 ADD SWAP1 POP SWAP2 SWAP1 POP JUMP JUMPDEST PUSH1 0x0 DUP2 SWAP1 POP PUSH1 0x20 DUP3 ADD SWAP1 POP SWAP2 SWAP1 POP JUMP JUMPDEST PUSH1 0x0 DUP2 MLOAD SWAP1 POP SWAP2 SWAP1 POP JUMP JUMPDEST PUSH1 0x0 DUP2 MLOAD SWAP1 POP SWAP2 SWAP1 POP JUMP JUMPDEST PUSH1 0x0 DUP2 MLOAD SWAP1 POP SWAP2 SWAP1 POP JUMP JUMPDEST PUSH1 0x0 PUSH1 0x20 DUP3 ADD SWAP1 POP SWAP2 SWAP1 POP JUMP JUMPDEST PUSH1 0x0 PUSH1 0x20 DUP3 ADD SWAP1 POP SWAP2 SWAP1 POP JUMP JUMPDEST PUSH1 0x0 DUP3 DUP3 MSTORE PUSH1 0x20 DUP3 ADD SWAP1 POP SWAP3 SWAP2 POP POP JUMP JUMPDEST PUSH1 0x0 DUP3 DUP3 MSTORE PUSH1 0x20 DUP3 ADD SWAP1 POP SWAP3 SWAP2 POP POP JUMP JUMPDEST PUSH1 0x0 DUP3 DUP3 MSTORE PUSH1 0x20 DUP3 ADD SWAP1 POP SWAP3 SWAP2 POP POP JUMP JUMPDEST PUSH1 0x0 DUP3 DUP3 MSTORE PUSH1 0x20 DUP3 ADD SWAP1 POP SWAP3 SWAP2 POP POP JUMP JUMPDEST PUSH1 0x0 DUP2 SWAP1 POP SWAP3 SWAP2 POP POP JUMP JUMPDEST PUSH1 0x0 PUSH2 0x225E DUP3 PUSH2 0x23DC JUMP JUMPDEST SWAP2 POP PUSH2 0x2269 DUP4 PUSH2 0x23DC JUMP JUMPDEST SWAP3 POP DUP3 PUSH32 0xFFFFFFFFFFFFFFFFFFFFFFFFFFFFFFFFFFFFFFFFFFFFFFFFFFFFFFFFFFFFFFFF SUB DUP3 GT ISZERO PUSH2 0x229E JUMPI PUSH2 0x229D PUSH2 0x251D JUMP JUMPDEST JUMPDEST DUP3 DUP3 ADD SWAP1 POP SWAP3 SWAP2 POP POP JUMP JUMPDEST PUSH1 0x0 PUSH2 0x22B4 DUP3 PUSH2 0x23DC JUMP JUMPDEST SWAP2 POP PUSH2 0x22BF DUP4 PUSH2 0x23DC JUMP JUMPDEST SWAP3 POP DUP3 PUSH2 0x22CF JUMPI PUSH2 0x22CE PUSH2 0x254C JUMP JUMPDEST JUMPDEST DUP3 DUP3 DIV SWAP1 POP SWAP3 SWAP2 POP POP JUMP JUMPDEST PUSH1 0x0 PUSH2 0x22E5 DUP3 PUSH2 0x23DC JUMP JUMPDEST SWAP2 POP PUSH2 0x22F0 DUP4 PUSH2 0x23DC JUMP JUMPDEST SWAP3 POP DUP2 PUSH32 0xFFFFFFFFFFFFFFFFFFFFFFFFFFFFFFFFFFFFFFFFFFFFFFFFFFFFFFFFFFFFFFFF DIV DUP4 GT DUP3 ISZERO ISZERO AND ISZERO PUSH2 0x2329 JUMPI PUSH2 0x2328 PUSH2 0x251D JUMP JUMPDEST JUMPDEST DUP3 DUP3 MUL SWAP1 POP SWAP3 SWAP2 POP POP JUMP JUMPDEST PUSH1 0x0 PUSH2 0x233F DUP3 PUSH2 0x23DC JUMP JUMPDEST SWAP2 POP PUSH2 0x234A DUP4 PUSH2 0x23DC JUMP JUMPDEST SWAP3 POP DUP3 DUP3 LT ISZERO PUSH2 0x235D JUMPI PUSH2 0x235C PUSH2 0x251D JUMP JUMPDEST JUMPDEST DUP3 DUP3 SUB SWAP1 POP SWAP3 SWAP2 POP POP JUMP JUMPDEST PUSH1 0x0 PUSH2 0x2373 DUP3 PUSH2 0x23BC JUMP JUMPDEST SWAP1 POP SWAP2 SWAP1 POP JUMP JUMPDEST PUSH1 0x0 DUP2 ISZERO ISZERO SWAP1 POP SWAP2 SWAP1 POP JUMP JUMPDEST PUSH1 0x0 DUP2 SWAP1 POP SWAP2 SWAP1 POP JUMP JUMPDEST PUSH1 0x0 PUSH32 0xFFFFFFFF00000000000000000000000000000000000000000000000000000000 DUP3 AND SWAP1 POP SWAP2 SWAP1 POP JUMP JUMPDEST PUSH1 0x0 PUSH20 0xFFFFFFFFFFFFFFFFFFFFFFFFFFFFFFFFFFFFFFFF DUP3 AND SWAP1 POP SWAP2 SWAP1 POP JUMP JUMPDEST PUSH1 0x0 DUP2 SWAP1 POP SWAP2 SWAP1 POP JUMP JUMPDEST PUSH1 0x0 PUSH2 0x23F1 DUP3 PUSH2 0x23F8 JUMP JUMPDEST SWAP1 POP SWAP2 SWAP1 POP JUMP JUMPDEST PUSH1 0x0 PUSH2 0x2403 DUP3 PUSH2 0x23BC JUMP JUMPDEST SWAP1 POP SWAP2 SWAP1 POP JUMP JUMPDEST PUSH1 0x0 PUSH2 0x2415 DUP3 PUSH2 0x241C JUMP JUMPDEST SWAP1 POP SWAP2 SWAP1 POP JUMP JUMPDEST PUSH1 0x0 PUSH2 0x2427 DUP3 PUSH2 0x23BC JUMP JUMPDEST SWAP1 POP SWAP2 SWAP1 POP JUMP JUMPDEST PUSH1 0x0 PUSH2 0x2439 DUP3 PUSH2 0x2440 JUMP JUMPDEST SWAP1 POP SWAP2 SWAP1 POP JUMP JUMPDEST PUSH1 0x0 PUSH2 0x244B DUP3 PUSH2 0x23BC JUMP JUMPDEST SWAP1 POP SWAP2 SWAP1 POP JUMP JUMPDEST DUP3 DUP2 DUP4 CALLDATACOPY PUSH1 0x0 DUP4 DUP4 ADD MSTORE POP POP POP JUMP JUMPDEST PUSH1 0x0 JUMPDEST DUP4 DUP2 LT ISZERO PUSH2 0x247F JUMPI DUP1 DUP3 ADD MLOAD DUP2 DUP5 ADD MSTORE PUSH1 0x20 DUP2 ADD SWAP1 POP PUSH2 0x2464 JUMP JUMPDEST DUP4 DUP2 GT ISZERO PUSH2 0x248E JUMPI PUSH1 0x0 DUP5 DUP5 ADD MSTORE JUMPDEST POP POP POP POP JUMP JUMPDEST PUSH1 0x0 PUSH2 0x249F DUP3 PUSH2 0x23DC JUMP JUMPDEST SWAP2 POP PUSH1 0x0 DUP3 EQ ISZERO PUSH2 0x24B3 JUMPI PUSH2 0x24B2 PUSH2 0x251D JUMP JUMPDEST JUMPDEST PUSH1 0x1 DUP3 SUB SWAP1 POP SWAP2 SWAP1 POP JUMP JUMPDEST PUSH2 0x24C7 DUP3 PUSH2 0x25AA JUMP JUMPDEST DUP2 ADD DUP2 DUP2 LT PUSH8 0xFFFFFFFFFFFFFFFF DUP3 GT OR ISZERO PUSH2 0x24E6 JUMPI PUSH2 0x24E5 PUSH2 0x257B JUMP JUMPDEST JUMPDEST DUP1 PUSH1 0x40 MSTORE POP POP POP JUMP JUMPDEST PUSH1 0x0 PUSH2 0x24FA DUP3 PUSH2 0x2501 JUMP JUMPDEST SWAP1 POP SWAP2 SWAP1 POP JUMP JUMPDEST PUSH1 0x0 PUSH2 0x250C DUP3 PUSH2 0x25BB JUMP JUMPDEST SWAP1 POP SWAP2 SWAP1 POP JUMP JUMPDEST PUSH1 0x0 DUP2 SWAP1 POP SWAP2 SWAP1 POP JUMP JUMPDEST PUSH32 0x4E487B7100000000000000000000000000000000000000000000000000000000 PUSH1 0x0 MSTORE PUSH1 0x11 PUSH1 0x4 MSTORE PUSH1 0x24 PUSH1 0x0 REVERT JUMPDEST PUSH32 0x4E487B7100000000000000000000000000000000000000000000000000000000 PUSH1 0x0 MSTORE PUSH1 0x12 PUSH1 0x4 MSTORE PUSH1 0x24 PUSH1 0x0 REVERT JUMPDEST PUSH32 0x4E487B7100000000000000000000000000000000000000000000000000000000 PUSH1 0x0 MSTORE PUSH1 0x41 PUSH1 0x4 MSTORE PUSH1 0x24 PUSH1 0x0 REVERT JUMPDEST PUSH1 0x0 PUSH1 0x1F NOT PUSH1 0x1F DUP4 ADD AND SWAP1 POP SWAP2 SWAP1 POP JUMP JUMPDEST PUSH1 0x0 DUP2 PUSH1 0x60 SHL SWAP1 POP SWAP2 SWAP1 POP JUMP JUMPDEST PUSH32 0x537472696E67733A20686578206C656E67746820696E73756666696369656E74 PUSH1 0x0 DUP3 ADD MSTORE POP JUMP JUMPDEST PUSH32 0x4164647265737320000000000000000000000000000000000000000000000000 PUSH1 0x0 DUP3 ADD MSTORE POP JUMP JUMPDEST PUSH32 0x43616E6E6F74206D696E7420746F207472656173757279206164647265737320 PUSH1 0x0 DUP3 ADD MSTORE PUSH32 0x756E74696C2073616C652069732066696E697368656400000000000000000000 PUSH1 0x20 DUP3 ADD MSTORE POP JUMP JUMPDEST PUSH32 0x74696D657374616D70206973206E6F742075702D746F2D646174650000000000 PUSH1 0x0 DUP3 ADD MSTORE POP JUMP JUMPDEST PUSH32 0x53656E646572206973206E6F742053616C65204D616E61676572206F72204164 PUSH1 0x0 DUP3 ADD MSTORE PUSH32 0x6D696E0000000000000000000000000000000000000000000000000000000000 PUSH1 0x20 DUP3 ADD MSTORE POP JUMP JUMPDEST PUSH32 0x53656E646572206973206E6F7420555249204D616E61676572206F722041646D PUSH1 0x0 DUP3 ADD MSTORE PUSH32 0x696E000000000000000000000000000000000000000000000000000000000000 PUSH1 0x20 DUP3 ADD MSTORE POP JUMP JUMPDEST PUSH32 0x2500000000000000000000000000000000000000000000000000000000000000 PUSH1 0x0 DUP3 ADD MSTORE POP JUMP JUMPDEST PUSH32 0x20646F6573206E6F742068617665206120636F75706F6E207769746820612064 PUSH1 0x0 DUP3 ADD MSTORE PUSH32 0x6973636F756E742072617465206F662000000000000000000000000000000000 PUSH1 0x20 DUP3 ADD MSTORE POP JUMP JUMPDEST PUSH32 0x737461727454696D65206973206C61746572207468616E20656E6454696D6500 PUSH1 0x0 DUP3 ADD MSTORE POP JUMP JUMPDEST PUSH32 0x416363657373436F6E74726F6C3A206163636F756E7420000000000000000000 PUSH1 0x0 DUP3 ADD MSTORE POP JUMP JUMPDEST PUSH32 0x206973206D697373696E6720726F6C6520000000000000000000000000000000 PUSH1 0x0 DUP3 ADD MSTORE POP JUMP JUMPDEST PUSH32 0x416363657373436F6E74726F6C3A2063616E206F6E6C792072656E6F756E6365 PUSH1 0x0 DUP3 ADD MSTORE PUSH32 0x20726F6C657320666F722073656C660000000000000000000000000000000000 PUSH1 0x20 DUP3 ADD MSTORE POP JUMP JUMPDEST PUSH2 0x287B DUP2 PUSH2 0x2368 JUMP JUMPDEST DUP2 EQ PUSH2 0x2886 JUMPI PUSH1 0x0 DUP1 REVERT JUMPDEST POP JUMP JUMPDEST PUSH2 0x2892 DUP2 PUSH2 0x237A JUMP JUMPDEST DUP2 EQ PUSH2 0x289D JUMPI PUSH1 0x0 DUP1 REVERT JUMPDEST POP JUMP JUMPDEST PUSH2 0x28A9 DUP2 PUSH2 0x2386 JUMP JUMPDEST DUP2 EQ PUSH2 0x28B4 JUMPI PUSH1 0x0 DUP1 REVERT JUMPDEST POP JUMP JUMPDEST PUSH2 0x28C0 DUP2 PUSH2 0x2390 JUMP JUMPDEST DUP2 EQ PUSH2 0x28CB JUMPI PUSH1 0x0 DUP1 REVERT JUMPDEST POP JUMP JUMPDEST PUSH2 0x28D7 DUP2 PUSH2 0x23DC JUMP JUMPDEST DUP2 EQ PUSH2 0x28E2 JUMPI PUSH1 0x0 DUP1 REVERT JUMPDEST POP JUMP INVALID LOG2 PUSH5 0x6970667358 0x22 SLT KECCAK256 PC MUL REVERT PUSH15 0x7CC6CD15D2F679BD64C2AC0EAE4A97 INVALID GT GASPRICE PUSH30 0xDCD4CE8785E5A4196D64736F6C6343000801003300000000000000000000 "
				},
				"gasEstimates": {
					"creation": {
						"codeDepositCost": "2104600",
						"executionCost": "infinite",
						"totalCost": "infinite"
					},
					"external": {
						"DEFAULT_ADMIN_ROLE()": "424",
						"ERC1155storageContract()": "1390",
						"SALE_MANAGER_ROLE()": "374",
						"URI_MANAGER_ROLE()": "418",
						"buyNFT()": "infinite",
						"buyNftWithDiscount(uint256)": "infinite",
						"calculateCurrentCustomPrice(address,uint256)": "infinite",
						"calculateCustomPrice(address,uint256)": "infinite",
						"getMaxSupply()": "infinite",
						"getNextUnusedToken()": "infinite",
						"getRoleAdmin(bytes32)": "infinite",
						"grantRole(bytes32,address)": "infinite",
						"hasRole(bytes32,address)": "1885",
						"lastUpdate()": "infinite",
						"mintToTreasuryAddress()": "infinite",
						"preLoadURIs(uint256[],string[])": "infinite",
						"privilgedBuyerList()": "1324",
						"renounceRole(bytes32,address)": "infinite",
						"revokeRole(bytes32,address)": "infinite",
						"setEndTime(uint256)": "infinite",
						"setStorageContractAddress(address)": "infinite",
						"setstartTime(uint256)": "infinite",
						"supportsInterface(bytes4)": "751",
						"treasuryAddress()": "1258",
						"usdcEscrowStorageContract()": "1346"
					},
					"internal": {
						"_buyNFT(uint256)": "infinite",
						"mintNextNftToAddress(address)": "infinite",
						"updateState()": "infinite"
					}
				},
				"methodIdentifiers": {
					"DEFAULT_ADMIN_ROLE()": "a217fddf",
					"ERC1155storageContract()": "8c83faeb",
					"SALE_MANAGER_ROLE()": "551b42a8",
					"URI_MANAGER_ROLE()": "682d07d9",
					"buyNFT()": "bff29cee",
					"buyNftWithDiscount(uint256)": "4c9b73da",
					"calculateCurrentCustomPrice(address,uint256)": "a496f947",
					"calculateCustomPrice(address,uint256)": "ab6c0306",
					"getMaxSupply()": "4c0f38c2",
					"getNextUnusedToken()": "68fc01a2",
					"getRoleAdmin(bytes32)": "248a9ca3",
					"grantRole(bytes32,address)": "2f2ff15d",
					"hasRole(bytes32,address)": "91d14854",
					"lastUpdate()": "c0463711",
					"mintToTreasuryAddress()": "91232f18",
					"preLoadURIs(uint256[],string[])": "f121da92",
					"privilgedBuyerList()": "5ce7e721",
					"renounceRole(bytes32,address)": "36568abe",
					"revokeRole(bytes32,address)": "d547741f",
					"setEndTime(uint256)": "ccb98ffc",
					"setStorageContractAddress(address)": "51f7598c",
					"setstartTime(uint256)": "944044a1",
					"supportsInterface(bytes4)": "01ffc9a7",
					"treasuryAddress()": "c5f956af",
					"usdcEscrowStorageContract()": "c5dae48f"
				}
			},
			"storageLayout": {
				"storage": [
					{
						"astId": 24,
						"contract": "contracts/Founding Citizens NFT Sale.sol:FoundingNFTSale",
						"label": "_roles",
						"offset": 0,
						"slot": "0",
						"type": "t_mapping(t_bytes32,t_struct(RoleData)19_storage)"
					},
					{
						"astId": 743,
						"contract": "contracts/Founding Citizens NFT Sale.sol:FoundingNFTSale",
						"label": "ERC1155storageContract",
						"offset": 0,
						"slot": "1",
						"type": "t_contract(IMintStorage)676"
					},
					{
						"astId": 746,
						"contract": "contracts/Founding Citizens NFT Sale.sol:FoundingNFTSale",
						"label": "privilgedBuyerList",
						"offset": 0,
						"slot": "2",
						"type": "t_contract(IPrivilegedListStorage)707"
					},
					{
						"astId": 749,
						"contract": "contracts/Founding Citizens NFT Sale.sol:FoundingNFTSale",
						"label": "usdcEscrowStorageContract",
						"offset": 0,
						"slot": "3",
						"type": "t_contract(IUsdcStorage)738"
					},
					{
						"astId": 751,
						"contract": "contracts/Founding Citizens NFT Sale.sol:FoundingNFTSale",
						"label": "treasuryAddress",
						"offset": 0,
						"slot": "4",
						"type": "t_address"
					},
					{
						"astId": 764,
						"contract": "contracts/Founding Citizens NFT Sale.sol:FoundingNFTSale",
						"label": "startTime",
						"offset": 0,
						"slot": "5",
						"type": "t_uint256"
					},
					{
						"astId": 767,
						"contract": "contracts/Founding Citizens NFT Sale.sol:FoundingNFTSale",
						"label": "endTime",
						"offset": 0,
						"slot": "6",
						"type": "t_uint256"
					},
					{
						"astId": 777,
						"contract": "contracts/Founding Citizens NFT Sale.sol:FoundingNFTSale",
						"label": "startPrice",
						"offset": 0,
						"slot": "7",
						"type": "t_uint256"
					},
					{
						"astId": 782,
						"contract": "contracts/Founding Citizens NFT Sale.sol:FoundingNFTSale",
						"label": "EndPrice",
						"offset": 0,
						"slot": "8",
						"type": "t_uint256"
					},
					{
						"astId": 803,
						"contract": "contracts/Founding Citizens NFT Sale.sol:FoundingNFTSale",
						"label": "lastUpdate",
						"offset": 0,
						"slot": "9",
						"type": "t_struct(Update)794_storage"
					}
				],
				"types": {
					"t_address": {
						"encoding": "inplace",
						"label": "address",
						"numberOfBytes": "20"
					},
					"t_bool": {
						"encoding": "inplace",
						"label": "bool",
						"numberOfBytes": "1"
					},
					"t_bytes32": {
						"encoding": "inplace",
						"label": "bytes32",
						"numberOfBytes": "32"
					},
					"t_contract(IMintStorage)676": {
						"encoding": "inplace",
						"label": "contract IMintStorage",
						"numberOfBytes": "20"
					},
					"t_contract(IPrivilegedListStorage)707": {
						"encoding": "inplace",
						"label": "contract IPrivilegedListStorage",
						"numberOfBytes": "20"
					},
					"t_contract(IUsdcStorage)738": {
						"encoding": "inplace",
						"label": "contract IUsdcStorage",
						"numberOfBytes": "20"
					},
					"t_mapping(t_address,t_bool)": {
						"encoding": "mapping",
						"key": "t_address",
						"label": "mapping(address => bool)",
						"numberOfBytes": "32",
						"value": "t_bool"
					},
					"t_mapping(t_bytes32,t_struct(RoleData)19_storage)": {
						"encoding": "mapping",
						"key": "t_bytes32",
						"label": "mapping(bytes32 => struct AccessControl.RoleData)",
						"numberOfBytes": "32",
						"value": "t_struct(RoleData)19_storage"
					},
					"t_struct(RoleData)19_storage": {
						"encoding": "inplace",
						"label": "struct AccessControl.RoleData",
						"members": [
							{
								"astId": 16,
								"contract": "contracts/Founding Citizens NFT Sale.sol:FoundingNFTSale",
								"label": "members",
								"offset": 0,
								"slot": "0",
								"type": "t_mapping(t_address,t_bool)"
							},
							{
								"astId": 18,
								"contract": "contracts/Founding Citizens NFT Sale.sol:FoundingNFTSale",
								"label": "adminRole",
								"offset": 0,
								"slot": "1",
								"type": "t_bytes32"
							}
						],
						"numberOfBytes": "64"
					},
					"t_struct(Update)794_storage": {
						"encoding": "inplace",
						"label": "struct FoundingNFTSale.Update",
						"members": [
							{
								"astId": 789,
								"contract": "contracts/Founding Citizens NFT Sale.sol:FoundingNFTSale",
								"label": "price",
								"offset": 0,
								"slot": "0",
								"type": "t_uint256"
							},
							{
								"astId": 791,
								"contract": "contracts/Founding Citizens NFT Sale.sol:FoundingNFTSale",
								"label": "time",
								"offset": 0,
								"slot": "1",
								"type": "t_uint256"
							},
							{
								"astId": 793,
								"contract": "contracts/Founding Citizens NFT Sale.sol:FoundingNFTSale",
								"label": "saleIsLive",
								"offset": 0,
								"slot": "2",
								"type": "t_bool"
							}
						],
						"numberOfBytes": "96"
					},
					"t_uint256": {
						"encoding": "inplace",
						"label": "uint256",
						"numberOfBytes": "32"
					}
				}
			},
			"userdoc": {
				"kind": "user",
				"methods": {},
				"version": 1
			}
		}
	}
}