{
	"contracts/Founding Citizens NFT Sale.sol": {
		"FoundingNFTSale": {
			"abi": [
				{
					"inputs": [],
					"stateMutability": "nonpayable",
					"type": "constructor"
				},
				{
					"anonymous": false,
					"inputs": [
						{
							"indexed": true,
							"internalType": "address",
							"name": "previousOwner",
							"type": "address"
						},
						{
							"indexed": true,
							"internalType": "address",
							"name": "newOwner",
							"type": "address"
						}
					],
					"name": "OwnershipTransferred",
					"type": "event"
				},
				{
					"inputs": [
						{
							"internalType": "uint256",
							"name": "amount",
							"type": "uint256"
						}
					],
					"name": "buyNFT",
					"outputs": [],
					"stateMutability": "nonpayable",
					"type": "function"
				},
				{
					"inputs": [],
					"name": "lastUpdate",
					"outputs": [
						{
							"internalType": "uint256",
							"name": "price",
							"type": "uint256"
						},
						{
							"internalType": "uint256",
							"name": "time",
							"type": "uint256"
						},
						{
							"internalType": "bool",
							"name": "saleIsLive",
							"type": "bool"
						}
					],
					"stateMutability": "view",
					"type": "function"
				},
				{
					"inputs": [],
					"name": "owner",
					"outputs": [
						{
							"internalType": "address",
							"name": "",
							"type": "address"
						}
					],
					"stateMutability": "view",
					"type": "function"
				},
				{
					"inputs": [
						{
							"internalType": "uint256[]",
							"name": "ids",
							"type": "uint256[]"
						},
						{
							"internalType": "string[]",
							"name": "uris",
							"type": "string[]"
						}
					],
					"name": "preLoadURIs",
					"outputs": [],
					"stateMutability": "nonpayable",
					"type": "function"
				},
				{
					"inputs": [],
					"name": "renounceOwnership",
					"outputs": [],
					"stateMutability": "nonpayable",
					"type": "function"
				},
				{
					"inputs": [
						{
							"internalType": "address",
							"name": "storageAddress",
							"type": "address"
						}
					],
					"name": "setStorageContractAddress",
					"outputs": [],
					"stateMutability": "nonpayable",
					"type": "function"
				},
				{
					"inputs": [
						{
							"internalType": "uint256",
							"name": "unixTime",
							"type": "uint256"
						}
					],
					"name": "setendTime",
					"outputs": [],
					"stateMutability": "nonpayable",
					"type": "function"
				},
				{
					"inputs": [
						{
							"internalType": "uint256",
							"name": "unixTime",
							"type": "uint256"
						}
					],
					"name": "setstartTime",
					"outputs": [],
					"stateMutability": "nonpayable",
					"type": "function"
				},
				{
					"inputs": [],
					"name": "storageContract",
					"outputs": [
						{
							"internalType": "address",
							"name": "",
							"type": "address"
						}
					],
					"stateMutability": "view",
					"type": "function"
				},
				{
					"inputs": [
						{
							"internalType": "address",
							"name": "newOwner",
							"type": "address"
						}
					],
					"name": "transferOwnership",
					"outputs": [],
					"stateMutability": "nonpayable",
					"type": "function"
				},
				{
					"inputs": [
						{
							"internalType": "address",
							"name": "",
							"type": "address"
						}
					],
					"name": "usdcBalances",
					"outputs": [
						{
							"internalType": "uint256",
							"name": "",
							"type": "uint256"
						}
					],
					"stateMutability": "view",
					"type": "function"
				},
				{
					"inputs": [],
					"name": "usdcToken",
					"outputs": [
						{
							"internalType": "contract ERC20",
							"name": "",
							"type": "address"
						}
					],
					"stateMutability": "view",
					"type": "function"
				}
			],
			"devdoc": {
				"kind": "dev",
				"methods": {
					"owner()": {
						"details": "Returns the address of the current owner."
					},
					"renounceOwnership()": {
						"details": "Leaves the contract without owner. It will not be possible to call `onlyOwner` functions anymore. Can only be called by the current owner. NOTE: Renouncing ownership will leave the contract without an owner, thereby removing any functionality that is only available to the owner."
					},
					"transferOwnership(address)": {
						"details": "Transfers ownership of the contract to a new account (`newOwner`). Can only be called by the current owner."
					}
				},
				"version": 1
			},
			"evm": {
				"assembly": "    /* \"contracts/Founding Citizens NFT Sale.sol\":1958:4411  contract FoundingNFTSale is Ownable {\r... */\n  mstore(0x40, 0x80)\n    /* \"contracts/Founding Citizens NFT Sale.sol\":2141:2151  1893484800 */\n  0x70dc4900\n    /* \"contracts/Founding Citizens NFT Sale.sol\":2124:2151  uint startTime = 1893484800 */\n  0x04\n  sstore\n    /* \"contracts/Founding Citizens NFT Sale.sol\":2275:2277  10 */\n  0x0a\n    /* \"contracts/Founding Citizens NFT Sale.sol\":2257:2277  uint startPrice = 10 */\n  0x06\n  sstore\n    /* \"contracts/Founding Citizens NFT Sale.sol\":2333:2334  1 */\n  0x01\n    /* \"contracts/Founding Citizens NFT Sale.sol\":2317:2334  uint EndPrice = 1 */\n  0x07\n  sstore\n    /* \"contracts/Founding Citizens NFT Sale.sol\":2514:2551  Update(10000, block.timestamp, false) */\n  mload(0x40)\n  dup1\n  0x60\n  add\n  0x40\n  mstore\n  dup1\n    /* \"contracts/Founding Citizens NFT Sale.sol\":2521:2526  10000 */\n  0x2710\n    /* \"contracts/Founding Citizens NFT Sale.sol\":2514:2551  Update(10000, block.timestamp, false) */\n  dup2\n  mstore\n  0x20\n  add\n    /* \"contracts/Founding Citizens NFT Sale.sol\":2528:2543  block.timestamp */\n  timestamp\n    /* \"contracts/Founding Citizens NFT Sale.sol\":2514:2551  Update(10000, block.timestamp, false) */\n  dup2\n  mstore\n  0x20\n  add\n    /* \"contracts/Founding Citizens NFT Sale.sol\":2545:2550  false */\n  0x00\n    /* \"contracts/Founding Citizens NFT Sale.sol\":2514:2551  Update(10000, block.timestamp, false) */\n  iszero\n  iszero\n  dup2\n  mstore\n  pop\n    /* \"contracts/Founding Citizens NFT Sale.sol\":2487:2551  Update public lastUpdate = Update(10000, block.timestamp, false) */\n  0x08\n  0x00\n  dup3\n  add\n  mload\n  dup2\n  0x00\n  add\n  sstore\n  0x20\n  dup3\n  add\n  mload\n  dup2\n  0x01\n  add\n  sstore\n  0x40\n  dup3\n  add\n  mload\n  dup2\n  0x02\n  add\n  exp(0x0100, 0x00)\n  dup2\n  sload\n  dup2\n  0xff\n  mul\n  not\n  and\n  swap1\n  dup4\n  iszero\n  iszero\n  mul\n  or\n  swap1\n  sstore\n  pop\n  pop\n  pop\n    /* \"contracts/Founding Citizens NFT Sale.sol\":2776:2870  constructor() {\r... */\n  callvalue\n  dup1\n  iszero\n  tag_1\n  jumpi\n  0x00\n  dup1\n  revert\ntag_1:\n  pop\n    /* \"@openzeppelin/contracts@4.4.2/access/Ownable.sol\":921:953  _transferOwnership(_msgSender()) */\n  tag_5\n    /* \"@openzeppelin/contracts@4.4.2/access/Ownable.sol\":940:952  _msgSender() */\n  tag_6\n    /* \"@openzeppelin/contracts@4.4.2/access/Ownable.sol\":940:950  _msgSender */\n  shl(0x20, tag_7)\n    /* \"@openzeppelin/contracts@4.4.2/access/Ownable.sol\":940:952  _msgSender() */\n  0x20\n  shr\n  jump\t// in\ntag_6:\n    /* \"@openzeppelin/contracts@4.4.2/access/Ownable.sol\":921:939  _transferOwnership */\n  shl(0x20, tag_8)\n    /* \"@openzeppelin/contracts@4.4.2/access/Ownable.sol\":921:953  _transferOwnership(_msgSender()) */\n  0x20\n  shr\n  jump\t// in\ntag_5:\n    /* \"contracts/Founding Citizens NFT Sale.sol\":2819:2861  0xe11A86849d99F524cAC3E7A0Ec1241828e332C62 */\n  0xe11a86849d99f524cac3e7a0ec1241828e332c62\n    /* \"contracts/Founding Citizens NFT Sale.sol\":2801:2810  usdcToken */\n  0x02\n  0x00\n    /* \"contracts/Founding Citizens NFT Sale.sol\":2801:2862  usdcToken = ERC20(0xe11A86849d99F524cAC3E7A0Ec1241828e332C62) */\n  0x0100\n  exp\n  dup2\n  sload\n  dup2\n  0xffffffffffffffffffffffffffffffffffffffff\n  mul\n  not\n  and\n  swap1\n  dup4\n  0xffffffffffffffffffffffffffffffffffffffff\n  and\n  mul\n  or\n  swap1\n  sstore\n  pop\n    /* \"contracts/Founding Citizens NFT Sale.sol\":1958:4411  contract FoundingNFTSale is Ownable {\r... */\n  jump(tag_10)\n    /* \"@openzeppelin/contracts@4.4.2/utils/Context.sol\":640:736  function _msgSender() internal view virtual returns (address) {... */\ntag_7:\n    /* \"@openzeppelin/contracts@4.4.2/utils/Context.sol\":693:700  address */\n  0x00\n    /* \"@openzeppelin/contracts@4.4.2/utils/Context.sol\":719:729  msg.sender */\n  caller\n    /* \"@openzeppelin/contracts@4.4.2/utils/Context.sol\":712:729  return msg.sender */\n  swap1\n  pop\n    /* \"@openzeppelin/contracts@4.4.2/utils/Context.sol\":640:736  function _msgSender() internal view virtual returns (address) {... */\n  swap1\n  jump\t// out\n    /* \"@openzeppelin/contracts@4.4.2/access/Ownable.sol\":2270:2457  function _transferOwnership(address newOwner) internal virtual {... */\ntag_8:\n    /* \"@openzeppelin/contracts@4.4.2/access/Ownable.sol\":2343:2359  address oldOwner */\n  0x00\n    /* \"@openzeppelin/contracts@4.4.2/access/Ownable.sol\":2362:2368  _owner */\n  dup1\n  0x00\n  swap1\n  sload\n  swap1\n  0x0100\n  exp\n  swap1\n  div\n  0xffffffffffffffffffffffffffffffffffffffff\n  and\n    /* \"@openzeppelin/contracts@4.4.2/access/Ownable.sol\":2343:2368  address oldOwner = _owner */\n  swap1\n  pop\n    /* \"@openzeppelin/contracts@4.4.2/access/Ownable.sol\":2387:2395  newOwner */\n  dup2\n    /* \"@openzeppelin/contracts@4.4.2/access/Ownable.sol\":2378:2384  _owner */\n  0x00\n  dup1\n    /* \"@openzeppelin/contracts@4.4.2/access/Ownable.sol\":2378:2395  _owner = newOwner */\n  0x0100\n  exp\n  dup2\n  sload\n  dup2\n  0xffffffffffffffffffffffffffffffffffffffff\n  mul\n  not\n  and\n  swap1\n  dup4\n  0xffffffffffffffffffffffffffffffffffffffff\n  and\n  mul\n  or\n  swap1\n  sstore\n  pop\n    /* \"@openzeppelin/contracts@4.4.2/access/Ownable.sol\":2441:2449  newOwner */\n  dup2\n    /* \"@openzeppelin/contracts@4.4.2/access/Ownable.sol\":2410:2450  OwnershipTransferred(oldOwner, newOwner) */\n  0xffffffffffffffffffffffffffffffffffffffff\n  and\n    /* \"@openzeppelin/contracts@4.4.2/access/Ownable.sol\":2431:2439  oldOwner */\n  dup2\n    /* \"@openzeppelin/contracts@4.4.2/access/Ownable.sol\":2410:2450  OwnershipTransferred(oldOwner, newOwner) */\n  0xffffffffffffffffffffffffffffffffffffffff\n  and\n  0x8be0079c531659141344cd1fd0a4f28419497f9722a3daafe3b4186f6b6457e0\n  mload(0x40)\n  mload(0x40)\n  dup1\n  swap2\n  sub\n  swap1\n  log3\n    /* \"@openzeppelin/contracts@4.4.2/access/Ownable.sol\":2270:2457  function _transferOwnership(address newOwner) internal virtual {... */\n  pop\n  pop\n  jump\t// out\n    /* \"contracts/Founding Citizens NFT Sale.sol\":1958:4411  contract FoundingNFTSale is Ownable {\r... */\ntag_10:\n  dataSize(sub_0)\n  dup1\n  dataOffset(sub_0)\n  0x00\n  codecopy\n  0x00\n  return\nstop\n\nsub_0: assembly {\n        /* \"contracts/Founding Citizens NFT Sale.sol\":1958:4411  contract FoundingNFTSale is Ownable {\r... */\n      mstore(0x40, 0x80)\n      callvalue\n      dup1\n      iszero\n      tag_1\n      jumpi\n      0x00\n      dup1\n      revert\n    tag_1:\n      pop\n      jumpi(tag_2, lt(calldatasize, 0x04))\n      shr(0xe0, calldataload(0x00))\n      dup1\n      0x944044a1\n      gt\n      tag_15\n      jumpi\n      dup1\n      0x944044a1\n      eq\n      tag_9\n      jumpi\n      dup1\n      0xa99c68c5\n      eq\n      tag_10\n      jumpi\n      dup1\n      0xb79d283f\n      eq\n      tag_11\n      jumpi\n      dup1\n      0xc0463711\n      eq\n      tag_12\n      jumpi\n      dup1\n      0xf121da92\n      eq\n      tag_13\n      jumpi\n      dup1\n      0xf2fde38b\n      eq\n      tag_14\n      jumpi\n      jump(tag_2)\n    tag_15:\n      dup1\n      0x11ce0267\n      eq\n      tag_3\n      jumpi\n      dup1\n      0x11eac855\n      eq\n      tag_4\n      jumpi\n      dup1\n      0x51ed8288\n      eq\n      tag_5\n      jumpi\n      dup1\n      0x51f7598c\n      eq\n      tag_6\n      jumpi\n      dup1\n      0x715018a6\n      eq\n      tag_7\n      jumpi\n      dup1\n      0x8da5cb5b\n      eq\n      tag_8\n      jumpi\n    tag_2:\n      0x00\n      dup1\n      revert\n        /* \"contracts/Founding Citizens NFT Sale.sol\":2001:2031  address public storageContract */\n    tag_3:\n      tag_16\n      tag_17\n      jump\t// in\n    tag_16:\n      mload(0x40)\n      tag_18\n      swap2\n      swap1\n      tag_19\n      jump\t// in\n    tag_18:\n      mload(0x40)\n      dup1\n      swap2\n      sub\n      swap1\n      return\n        /* \"contracts/Founding Citizens NFT Sale.sol\":2040:2062  ERC20 public usdcToken */\n    tag_4:\n      tag_20\n      tag_21\n      jump\t// in\n    tag_20:\n      mload(0x40)\n      tag_22\n      swap2\n      swap1\n      tag_23\n      jump\t// in\n    tag_22:\n      mload(0x40)\n      dup1\n      swap2\n      sub\n      swap1\n      return\n        /* \"contracts/Founding Citizens NFT Sale.sol\":4324:4408  function buyNFT(uint amount) public {\r... */\n    tag_5:\n      tag_24\n      0x04\n      dup1\n      calldatasize\n      sub\n      dup2\n      add\n      swap1\n      tag_25\n      swap2\n      swap1\n      tag_26\n      jump\t// in\n    tag_25:\n      tag_27\n      jump\t// in\n    tag_24:\n      stop\n        /* \"contracts/Founding Citizens NFT Sale.sol\":3369:3496  function setStorageContractAddress(address storageAddress) public onlyOwner {\r... */\n    tag_6:\n      tag_28\n      0x04\n      dup1\n      calldatasize\n      sub\n      dup2\n      add\n      swap1\n      tag_29\n      swap2\n      swap1\n      tag_30\n      jump\t// in\n    tag_29:\n      tag_31\n      jump\t// in\n    tag_28:\n      stop\n        /* \"@openzeppelin/contracts@4.4.2/access/Ownable.sol\":1668:1769  function renounceOwnership() public virtual onlyOwner {... */\n    tag_7:\n      tag_32\n      tag_33\n      jump\t// in\n    tag_32:\n      stop\n        /* \"@openzeppelin/contracts@4.4.2/access/Ownable.sol\":1036:1121  function owner() public view virtual returns (address) {... */\n    tag_8:\n      tag_34\n      tag_35\n      jump\t// in\n    tag_34:\n      mload(0x40)\n      tag_36\n      swap2\n      swap1\n      tag_19\n      jump\t// in\n    tag_36:\n      mload(0x40)\n      dup1\n      swap2\n      sub\n      swap1\n      return\n        /* \"contracts/Founding Citizens NFT Sale.sol\":3794:3887  function setstartTime(uint unixTime) public onlyOwner {\r... */\n    tag_9:\n      tag_37\n      0x04\n      dup1\n      calldatasize\n      sub\n      dup2\n      add\n      swap1\n      tag_38\n      swap2\n      swap1\n      tag_26\n      jump\t// in\n    tag_38:\n      tag_39\n      jump\t// in\n    tag_37:\n      stop\n        /* \"contracts/Founding Citizens NFT Sale.sol\":2070:2115  mapping (address => uint) public usdcBalances */\n    tag_10:\n      tag_40\n      0x04\n      dup1\n      calldatasize\n      sub\n      dup2\n      add\n      swap1\n      tag_41\n      swap2\n      swap1\n      tag_30\n      jump\t// in\n    tag_41:\n      tag_42\n      jump\t// in\n    tag_40:\n      mload(0x40)\n      tag_43\n      swap2\n      swap1\n      tag_44\n      jump\t// in\n    tag_43:\n      mload(0x40)\n      dup1\n      swap2\n      sub\n      swap1\n      return\n        /* \"contracts/Founding Citizens NFT Sale.sol\":3895:3984  function setendTime(uint unixTime) public onlyOwner {\r... */\n    tag_11:\n      tag_45\n      0x04\n      dup1\n      calldatasize\n      sub\n      dup2\n      add\n      swap1\n      tag_46\n      swap2\n      swap1\n      tag_26\n      jump\t// in\n    tag_46:\n      tag_47\n      jump\t// in\n    tag_45:\n      stop\n        /* \"contracts/Founding Citizens NFT Sale.sol\":2487:2551  Update public lastUpdate = Update(10000, block.timestamp, false) */\n    tag_12:\n      tag_48\n      tag_49\n      jump\t// in\n    tag_48:\n      mload(0x40)\n      tag_50\n      swap4\n      swap3\n      swap2\n      swap1\n      tag_51\n      jump\t// in\n    tag_50:\n      mload(0x40)\n      dup1\n      swap2\n      sub\n      swap1\n      return\n        /* \"contracts/Founding Citizens NFT Sale.sol\":3636:3786  function preLoadURIs(uint[] memory ids, string[] memory uris) public onlyOwner {\r... */\n    tag_13:\n      tag_52\n      0x04\n      dup1\n      calldatasize\n      sub\n      dup2\n      add\n      swap1\n      tag_53\n      swap2\n      swap1\n      tag_54\n      jump\t// in\n    tag_53:\n      tag_55\n      jump\t// in\n    tag_52:\n      stop\n        /* \"@openzeppelin/contracts@4.4.2/access/Ownable.sol\":1918:2116  function transferOwnership(address newOwner) public virtual onlyOwner {... */\n    tag_14:\n      tag_56\n      0x04\n      dup1\n      calldatasize\n      sub\n      dup2\n      add\n      swap1\n      tag_57\n      swap2\n      swap1\n      tag_30\n      jump\t// in\n    tag_57:\n      tag_58\n      jump\t// in\n    tag_56:\n      stop\n        /* \"contracts/Founding Citizens NFT Sale.sol\":2001:2031  address public storageContract */\n    tag_17:\n      0x01\n      0x00\n      swap1\n      sload\n      swap1\n      0x0100\n      exp\n      swap1\n      div\n      0xffffffffffffffffffffffffffffffffffffffff\n      and\n      dup2\n      jump\t// out\n        /* \"contracts/Founding Citizens NFT Sale.sol\":2040:2062  ERC20 public usdcToken */\n    tag_21:\n      0x02\n      0x00\n      swap1\n      sload\n      swap1\n      0x0100\n      exp\n      swap1\n      div\n      0xffffffffffffffffffffffffffffffffffffffff\n      and\n      dup2\n      jump\t// out\n        /* \"contracts/Founding Citizens NFT Sale.sol\":4324:4408  function buyNFT(uint amount) public {\r... */\n    tag_27:\n        /* \"contracts/Founding Citizens NFT Sale.sol\":4371:4390  receiveUSDC(amount) */\n      tag_60\n        /* \"contracts/Founding Citizens NFT Sale.sol\":4383:4389  amount */\n      dup2\n        /* \"contracts/Founding Citizens NFT Sale.sol\":4371:4382  receiveUSDC */\n      tag_61\n        /* \"contracts/Founding Citizens NFT Sale.sol\":4371:4390  receiveUSDC(amount) */\n      jump\t// in\n    tag_60:\n        /* \"contracts/Founding Citizens NFT Sale.sol\":4324:4408  function buyNFT(uint amount) public {\r... */\n      pop\n      jump\t// out\n        /* \"contracts/Founding Citizens NFT Sale.sol\":3369:3496  function setStorageContractAddress(address storageAddress) public onlyOwner {\r... */\n    tag_31:\n        /* \"@openzeppelin/contracts@4.4.2/access/Ownable.sol\":1259:1271  _msgSender() */\n      tag_63\n        /* \"@openzeppelin/contracts@4.4.2/access/Ownable.sol\":1259:1269  _msgSender */\n      tag_64\n        /* \"@openzeppelin/contracts@4.4.2/access/Ownable.sol\":1259:1271  _msgSender() */\n      jump\t// in\n    tag_63:\n        /* \"@openzeppelin/contracts@4.4.2/access/Ownable.sol\":1248:1271  owner() == _msgSender() */\n      0xffffffffffffffffffffffffffffffffffffffff\n      and\n        /* \"@openzeppelin/contracts@4.4.2/access/Ownable.sol\":1248:1255  owner() */\n      tag_65\n        /* \"@openzeppelin/contracts@4.4.2/access/Ownable.sol\":1248:1253  owner */\n      tag_35\n        /* \"@openzeppelin/contracts@4.4.2/access/Ownable.sol\":1248:1255  owner() */\n      jump\t// in\n    tag_65:\n        /* \"@openzeppelin/contracts@4.4.2/access/Ownable.sol\":1248:1271  owner() == _msgSender() */\n      0xffffffffffffffffffffffffffffffffffffffff\n      and\n      eq\n        /* \"@openzeppelin/contracts@4.4.2/access/Ownable.sol\":1240:1308  require(owner() == _msgSender(), \"Ownable: caller is not the owner\") */\n      tag_66\n      jumpi\n      mload(0x40)\n      0x08c379a000000000000000000000000000000000000000000000000000000000\n      dup2\n      mstore\n      0x04\n      add\n      tag_67\n      swap1\n      tag_68\n      jump\t// in\n    tag_67:\n      mload(0x40)\n      dup1\n      swap2\n      sub\n      swap1\n      revert\n    tag_66:\n        /* \"contracts/Founding Citizens NFT Sale.sol\":3474:3488  storageAddress */\n      dup1\n        /* \"contracts/Founding Citizens NFT Sale.sol\":3456:3471  storageContract */\n      0x01\n      0x00\n        /* \"contracts/Founding Citizens NFT Sale.sol\":3456:3488  storageContract = storageAddress */\n      0x0100\n      exp\n      dup2\n      sload\n      dup2\n      0xffffffffffffffffffffffffffffffffffffffff\n      mul\n      not\n      and\n      swap1\n      dup4\n      0xffffffffffffffffffffffffffffffffffffffff\n      and\n      mul\n      or\n      swap1\n      sstore\n      pop\n        /* \"contracts/Founding Citizens NFT Sale.sol\":3369:3496  function setStorageContractAddress(address storageAddress) public onlyOwner {\r... */\n      pop\n      jump\t// out\n        /* \"@openzeppelin/contracts@4.4.2/access/Ownable.sol\":1668:1769  function renounceOwnership() public virtual onlyOwner {... */\n    tag_33:\n        /* \"@openzeppelin/contracts@4.4.2/access/Ownable.sol\":1259:1271  _msgSender() */\n      tag_71\n        /* \"@openzeppelin/contracts@4.4.2/access/Ownable.sol\":1259:1269  _msgSender */\n      tag_64\n        /* \"@openzeppelin/contracts@4.4.2/access/Ownable.sol\":1259:1271  _msgSender() */\n      jump\t// in\n    tag_71:\n        /* \"@openzeppelin/contracts@4.4.2/access/Ownable.sol\":1248:1271  owner() == _msgSender() */\n      0xffffffffffffffffffffffffffffffffffffffff\n      and\n        /* \"@openzeppelin/contracts@4.4.2/access/Ownable.sol\":1248:1255  owner() */\n      tag_72\n        /* \"@openzeppelin/contracts@4.4.2/access/Ownable.sol\":1248:1253  owner */\n      tag_35\n        /* \"@openzeppelin/contracts@4.4.2/access/Ownable.sol\":1248:1255  owner() */\n      jump\t// in\n    tag_72:\n        /* \"@openzeppelin/contracts@4.4.2/access/Ownable.sol\":1248:1271  owner() == _msgSender() */\n      0xffffffffffffffffffffffffffffffffffffffff\n      and\n      eq\n        /* \"@openzeppelin/contracts@4.4.2/access/Ownable.sol\":1240:1308  require(owner() == _msgSender(), \"Ownable: caller is not the owner\") */\n      tag_73\n      jumpi\n      mload(0x40)\n      0x08c379a000000000000000000000000000000000000000000000000000000000\n      dup2\n      mstore\n      0x04\n      add\n      tag_74\n      swap1\n      tag_68\n      jump\t// in\n    tag_74:\n      mload(0x40)\n      dup1\n      swap2\n      sub\n      swap1\n      revert\n    tag_73:\n        /* \"@openzeppelin/contracts@4.4.2/access/Ownable.sol\":1732:1762  _transferOwnership(address(0)) */\n      tag_76\n        /* \"@openzeppelin/contracts@4.4.2/access/Ownable.sol\":1759:1760  0 */\n      0x00\n        /* \"@openzeppelin/contracts@4.4.2/access/Ownable.sol\":1732:1750  _transferOwnership */\n      tag_77\n        /* \"@openzeppelin/contracts@4.4.2/access/Ownable.sol\":1732:1762  _transferOwnership(address(0)) */\n      jump\t// in\n    tag_76:\n        /* \"@openzeppelin/contracts@4.4.2/access/Ownable.sol\":1668:1769  function renounceOwnership() public virtual onlyOwner {... */\n      jump\t// out\n        /* \"@openzeppelin/contracts@4.4.2/access/Ownable.sol\":1036:1121  function owner() public view virtual returns (address) {... */\n    tag_35:\n        /* \"@openzeppelin/contracts@4.4.2/access/Ownable.sol\":1082:1089  address */\n      0x00\n        /* \"@openzeppelin/contracts@4.4.2/access/Ownable.sol\":1108:1114  _owner */\n      dup1\n      0x00\n      swap1\n      sload\n      swap1\n      0x0100\n      exp\n      swap1\n      div\n      0xffffffffffffffffffffffffffffffffffffffff\n      and\n        /* \"@openzeppelin/contracts@4.4.2/access/Ownable.sol\":1101:1114  return _owner */\n      swap1\n      pop\n        /* \"@openzeppelin/contracts@4.4.2/access/Ownable.sol\":1036:1121  function owner() public view virtual returns (address) {... */\n      swap1\n      jump\t// out\n        /* \"contracts/Founding Citizens NFT Sale.sol\":3794:3887  function setstartTime(uint unixTime) public onlyOwner {\r... */\n    tag_39:\n        /* \"@openzeppelin/contracts@4.4.2/access/Ownable.sol\":1259:1271  _msgSender() */\n      tag_80\n        /* \"@openzeppelin/contracts@4.4.2/access/Ownable.sol\":1259:1269  _msgSender */\n      tag_64\n        /* \"@openzeppelin/contracts@4.4.2/access/Ownable.sol\":1259:1271  _msgSender() */\n      jump\t// in\n    tag_80:\n        /* \"@openzeppelin/contracts@4.4.2/access/Ownable.sol\":1248:1271  owner() == _msgSender() */\n      0xffffffffffffffffffffffffffffffffffffffff\n      and\n        /* \"@openzeppelin/contracts@4.4.2/access/Ownable.sol\":1248:1255  owner() */\n      tag_81\n        /* \"@openzeppelin/contracts@4.4.2/access/Ownable.sol\":1248:1253  owner */\n      tag_35\n        /* \"@openzeppelin/contracts@4.4.2/access/Ownable.sol\":1248:1255  owner() */\n      jump\t// in\n    tag_81:\n        /* \"@openzeppelin/contracts@4.4.2/access/Ownable.sol\":1248:1271  owner() == _msgSender() */\n      0xffffffffffffffffffffffffffffffffffffffff\n      and\n      eq\n        /* \"@openzeppelin/contracts@4.4.2/access/Ownable.sol\":1240:1308  require(owner() == _msgSender(), \"Ownable: caller is not the owner\") */\n      tag_82\n      jumpi\n      mload(0x40)\n      0x08c379a000000000000000000000000000000000000000000000000000000000\n      dup2\n      mstore\n      0x04\n      add\n      tag_83\n      swap1\n      tag_68\n      jump\t// in\n    tag_83:\n      mload(0x40)\n      dup1\n      swap2\n      sub\n      swap1\n      revert\n    tag_82:\n        /* \"contracts/Founding Citizens NFT Sale.sol\":3871:3879  unixTime */\n      dup1\n        /* \"contracts/Founding Citizens NFT Sale.sol\":3859:3868  startTime */\n      0x04\n        /* \"contracts/Founding Citizens NFT Sale.sol\":3859:3879  startTime = unixTime */\n      dup2\n      swap1\n      sstore\n      pop\n        /* \"contracts/Founding Citizens NFT Sale.sol\":3794:3887  function setstartTime(uint unixTime) public onlyOwner {\r... */\n      pop\n      jump\t// out\n        /* \"contracts/Founding Citizens NFT Sale.sol\":2070:2115  mapping (address => uint) public usdcBalances */\n    tag_42:\n      mstore(0x20, 0x03)\n      dup1\n      0x00\n      mstore\n      keccak256(0x00, 0x40)\n      0x00\n      swap2\n      pop\n      swap1\n      pop\n      sload\n      dup2\n      jump\t// out\n        /* \"contracts/Founding Citizens NFT Sale.sol\":3895:3984  function setendTime(uint unixTime) public onlyOwner {\r... */\n    tag_47:\n        /* \"@openzeppelin/contracts@4.4.2/access/Ownable.sol\":1259:1271  _msgSender() */\n      tag_86\n        /* \"@openzeppelin/contracts@4.4.2/access/Ownable.sol\":1259:1269  _msgSender */\n      tag_64\n        /* \"@openzeppelin/contracts@4.4.2/access/Ownable.sol\":1259:1271  _msgSender() */\n      jump\t// in\n    tag_86:\n        /* \"@openzeppelin/contracts@4.4.2/access/Ownable.sol\":1248:1271  owner() == _msgSender() */\n      0xffffffffffffffffffffffffffffffffffffffff\n      and\n        /* \"@openzeppelin/contracts@4.4.2/access/Ownable.sol\":1248:1255  owner() */\n      tag_87\n        /* \"@openzeppelin/contracts@4.4.2/access/Ownable.sol\":1248:1253  owner */\n      tag_35\n        /* \"@openzeppelin/contracts@4.4.2/access/Ownable.sol\":1248:1255  owner() */\n      jump\t// in\n    tag_87:\n        /* \"@openzeppelin/contracts@4.4.2/access/Ownable.sol\":1248:1271  owner() == _msgSender() */\n      0xffffffffffffffffffffffffffffffffffffffff\n      and\n      eq\n        /* \"@openzeppelin/contracts@4.4.2/access/Ownable.sol\":1240:1308  require(owner() == _msgSender(), \"Ownable: caller is not the owner\") */\n      tag_88\n      jumpi\n      mload(0x40)\n      0x08c379a000000000000000000000000000000000000000000000000000000000\n      dup2\n      mstore\n      0x04\n      add\n      tag_89\n      swap1\n      tag_68\n      jump\t// in\n    tag_89:\n      mload(0x40)\n      dup1\n      swap2\n      sub\n      swap1\n      revert\n    tag_88:\n        /* \"contracts/Founding Citizens NFT Sale.sol\":3968:3976  unixTime */\n      dup1\n        /* \"contracts/Founding Citizens NFT Sale.sol\":3958:3965  endTime */\n      0x05\n        /* \"contracts/Founding Citizens NFT Sale.sol\":3958:3976  endTime = unixTime */\n      dup2\n      swap1\n      sstore\n      pop\n        /* \"contracts/Founding Citizens NFT Sale.sol\":3895:3984  function setendTime(uint unixTime) public onlyOwner {\r... */\n      pop\n      jump\t// out\n        /* \"contracts/Founding Citizens NFT Sale.sol\":2487:2551  Update public lastUpdate = Update(10000, block.timestamp, false) */\n    tag_49:\n      0x08\n      dup1\n      0x00\n      add\n      sload\n      swap1\n      dup1\n      0x01\n      add\n      sload\n      swap1\n      dup1\n      0x02\n      add\n      0x00\n      swap1\n      sload\n      swap1\n      0x0100\n      exp\n      swap1\n      div\n      0xff\n      and\n      swap1\n      pop\n      dup4\n      jump\t// out\n        /* \"contracts/Founding Citizens NFT Sale.sol\":3636:3786  function preLoadURIs(uint[] memory ids, string[] memory uris) public onlyOwner {\r... */\n    tag_55:\n        /* \"@openzeppelin/contracts@4.4.2/access/Ownable.sol\":1259:1271  _msgSender() */\n      tag_92\n        /* \"@openzeppelin/contracts@4.4.2/access/Ownable.sol\":1259:1269  _msgSender */\n      tag_64\n        /* \"@openzeppelin/contracts@4.4.2/access/Ownable.sol\":1259:1271  _msgSender() */\n      jump\t// in\n    tag_92:\n        /* \"@openzeppelin/contracts@4.4.2/access/Ownable.sol\":1248:1271  owner() == _msgSender() */\n      0xffffffffffffffffffffffffffffffffffffffff\n      and\n        /* \"@openzeppelin/contracts@4.4.2/access/Ownable.sol\":1248:1255  owner() */\n      tag_93\n        /* \"@openzeppelin/contracts@4.4.2/access/Ownable.sol\":1248:1253  owner */\n      tag_35\n        /* \"@openzeppelin/contracts@4.4.2/access/Ownable.sol\":1248:1255  owner() */\n      jump\t// in\n    tag_93:\n        /* \"@openzeppelin/contracts@4.4.2/access/Ownable.sol\":1248:1271  owner() == _msgSender() */\n      0xffffffffffffffffffffffffffffffffffffffff\n      and\n      eq\n        /* \"@openzeppelin/contracts@4.4.2/access/Ownable.sol\":1240:1308  require(owner() == _msgSender(), \"Ownable: caller is not the owner\") */\n      tag_94\n      jumpi\n      mload(0x40)\n      0x08c379a000000000000000000000000000000000000000000000000000000000\n      dup2\n      mstore\n      0x04\n      add\n      tag_95\n      swap1\n      tag_68\n      jump\t// in\n    tag_95:\n      mload(0x40)\n      dup1\n      swap2\n      sub\n      swap1\n      revert\n    tag_94:\n        /* \"contracts/Founding Citizens NFT Sale.sol\":3739:3754  storageContract */\n      0x01\n      0x00\n      swap1\n      sload\n      swap1\n      0x0100\n      exp\n      swap1\n      div\n      0xffffffffffffffffffffffffffffffffffffffff\n      and\n        /* \"contracts/Founding Citizens NFT Sale.sol\":3726:3767  IMintStorage(storageContract).preLoadURIs */\n      0xffffffffffffffffffffffffffffffffffffffff\n      and\n      0xf121da92\n        /* \"contracts/Founding Citizens NFT Sale.sol\":3768:3771  ids */\n      dup4\n        /* \"contracts/Founding Citizens NFT Sale.sol\":3773:3777  uris */\n      dup4\n        /* \"contracts/Founding Citizens NFT Sale.sol\":3726:3778  IMintStorage(storageContract).preLoadURIs(ids, uris) */\n      mload(0x40)\n      dup4\n      0xffffffff\n      and\n      0xe0\n      shl\n      dup2\n      mstore\n      0x04\n      add\n      tag_97\n      swap3\n      swap2\n      swap1\n      tag_98\n      jump\t// in\n    tag_97:\n      0x00\n      mload(0x40)\n      dup1\n      dup4\n      sub\n      dup2\n      0x00\n      dup8\n      dup1\n      extcodesize\n      iszero\n      dup1\n      iszero\n      tag_99\n      jumpi\n      0x00\n      dup1\n      revert\n    tag_99:\n      pop\n      gas\n      call\n      iszero\n      dup1\n      iszero\n      tag_101\n      jumpi\n      returndatasize\n      0x00\n      dup1\n      returndatacopy\n      revert(0x00, returndatasize)\n    tag_101:\n      pop\n      pop\n      pop\n      pop\n        /* \"contracts/Founding Citizens NFT Sale.sol\":3636:3786  function preLoadURIs(uint[] memory ids, string[] memory uris) public onlyOwner {\r... */\n      pop\n      pop\n      jump\t// out\n        /* \"@openzeppelin/contracts@4.4.2/access/Ownable.sol\":1918:2116  function transferOwnership(address newOwner) public virtual onlyOwner {... */\n    tag_58:\n        /* \"@openzeppelin/contracts@4.4.2/access/Ownable.sol\":1259:1271  _msgSender() */\n      tag_103\n        /* \"@openzeppelin/contracts@4.4.2/access/Ownable.sol\":1259:1269  _msgSender */\n      tag_64\n        /* \"@openzeppelin/contracts@4.4.2/access/Ownable.sol\":1259:1271  _msgSender() */\n      jump\t// in\n    tag_103:\n        /* \"@openzeppelin/contracts@4.4.2/access/Ownable.sol\":1248:1271  owner() == _msgSender() */\n      0xffffffffffffffffffffffffffffffffffffffff\n      and\n        /* \"@openzeppelin/contracts@4.4.2/access/Ownable.sol\":1248:1255  owner() */\n      tag_104\n        /* \"@openzeppelin/contracts@4.4.2/access/Ownable.sol\":1248:1253  owner */\n      tag_35\n        /* \"@openzeppelin/contracts@4.4.2/access/Ownable.sol\":1248:1255  owner() */\n      jump\t// in\n    tag_104:\n        /* \"@openzeppelin/contracts@4.4.2/access/Ownable.sol\":1248:1271  owner() == _msgSender() */\n      0xffffffffffffffffffffffffffffffffffffffff\n      and\n      eq\n        /* \"@openzeppelin/contracts@4.4.2/access/Ownable.sol\":1240:1308  require(owner() == _msgSender(), \"Ownable: caller is not the owner\") */\n      tag_105\n      jumpi\n      mload(0x40)\n      0x08c379a000000000000000000000000000000000000000000000000000000000\n      dup2\n      mstore\n      0x04\n      add\n      tag_106\n      swap1\n      tag_68\n      jump\t// in\n    tag_106:\n      mload(0x40)\n      dup1\n      swap2\n      sub\n      swap1\n      revert\n    tag_105:\n        /* \"@openzeppelin/contracts@4.4.2/access/Ownable.sol\":2026:2027  0 */\n      0x00\n        /* \"@openzeppelin/contracts@4.4.2/access/Ownable.sol\":2006:2028  newOwner != address(0) */\n      0xffffffffffffffffffffffffffffffffffffffff\n      and\n        /* \"@openzeppelin/contracts@4.4.2/access/Ownable.sol\":2006:2014  newOwner */\n      dup2\n        /* \"@openzeppelin/contracts@4.4.2/access/Ownable.sol\":2006:2028  newOwner != address(0) */\n      0xffffffffffffffffffffffffffffffffffffffff\n      and\n      eq\n      iszero\n        /* \"@openzeppelin/contracts@4.4.2/access/Ownable.sol\":1998:2071  require(newOwner != address(0), \"Ownable: new owner is the zero address\") */\n      tag_108\n      jumpi\n      mload(0x40)\n      0x08c379a000000000000000000000000000000000000000000000000000000000\n      dup2\n      mstore\n      0x04\n      add\n      tag_109\n      swap1\n      tag_110\n      jump\t// in\n    tag_109:\n      mload(0x40)\n      dup1\n      swap2\n      sub\n      swap1\n      revert\n    tag_108:\n        /* \"@openzeppelin/contracts@4.4.2/access/Ownable.sol\":2081:2109  _transferOwnership(newOwner) */\n      tag_111\n        /* \"@openzeppelin/contracts@4.4.2/access/Ownable.sol\":2100:2108  newOwner */\n      dup2\n        /* \"@openzeppelin/contracts@4.4.2/access/Ownable.sol\":2081:2099  _transferOwnership */\n      tag_77\n        /* \"@openzeppelin/contracts@4.4.2/access/Ownable.sol\":2081:2109  _transferOwnership(newOwner) */\n      jump\t// in\n    tag_111:\n        /* \"@openzeppelin/contracts@4.4.2/access/Ownable.sol\":1918:2116  function transferOwnership(address newOwner) public virtual onlyOwner {... */\n      pop\n      jump\t// out\n        /* \"contracts/Founding Citizens NFT Sale.sol\":3992:4316  function receiveUSDC(uint _amount) internal {\r... */\n    tag_61:\n        /* \"contracts/Founding Citizens NFT Sale.sol\":4065:4066  0 */\n      0x00\n        /* \"contracts/Founding Citizens NFT Sale.sol\":4055:4062  _amount */\n      dup2\n        /* \"contracts/Founding Citizens NFT Sale.sol\":4055:4066  _amount > 0 */\n      gt\n        /* \"contracts/Founding Citizens NFT Sale.sol\":4047:4114  require(_amount > 0, \"amount transferred must be a positive value\") */\n      tag_113\n      jumpi\n      mload(0x40)\n      0x08c379a000000000000000000000000000000000000000000000000000000000\n      dup2\n      mstore\n      0x04\n      add\n      tag_114\n      swap1\n      tag_115\n      jump\t// in\n    tag_114:\n      mload(0x40)\n      dup1\n      swap2\n      sub\n      swap1\n      revert\n    tag_113:\n        /* \"contracts/Founding Citizens NFT Sale.sol\":4205:4214  usdcToken */\n      0x02\n      0x00\n      swap1\n      sload\n      swap1\n      0x0100\n      exp\n      swap1\n      div\n      0xffffffffffffffffffffffffffffffffffffffff\n      and\n        /* \"contracts/Founding Citizens NFT Sale.sol\":4205:4227  usdcToken.transferFrom */\n      0xffffffffffffffffffffffffffffffffffffffff\n      and\n      0x23b872dd\n        /* \"contracts/Founding Citizens NFT Sale.sol\":4228:4238  msg.sender */\n      caller\n        /* \"contracts/Founding Citizens NFT Sale.sol\":4248:4252  this */\n      address\n        /* \"contracts/Founding Citizens NFT Sale.sol\":4255:4262  _amount */\n      dup5\n        /* \"contracts/Founding Citizens NFT Sale.sol\":4205:4263  usdcToken.transferFrom(msg.sender, address(this), _amount) */\n      mload(0x40)\n      dup5\n      0xffffffff\n      and\n      0xe0\n      shl\n      dup2\n      mstore\n      0x04\n      add\n      tag_116\n      swap4\n      swap3\n      swap2\n      swap1\n      tag_117\n      jump\t// in\n    tag_116:\n      0x20\n      mload(0x40)\n      dup1\n      dup4\n      sub\n      dup2\n      0x00\n      dup8\n      dup1\n      extcodesize\n      iszero\n      dup1\n      iszero\n      tag_118\n      jumpi\n      0x00\n      dup1\n      revert\n    tag_118:\n      pop\n      gas\n      call\n      iszero\n      dup1\n      iszero\n      tag_120\n      jumpi\n      returndatasize\n      0x00\n      dup1\n      returndatacopy\n      revert(0x00, returndatasize)\n    tag_120:\n      pop\n      pop\n      pop\n      pop\n      mload(0x40)\n      returndatasize\n      not(0x1f)\n      0x1f\n      dup3\n      add\n      and\n      dup3\n      add\n      dup1\n      0x40\n      mstore\n      pop\n      dup2\n      add\n      swap1\n      tag_121\n      swap2\n      swap1\n      tag_122\n      jump\t// in\n    tag_121:\n      pop\n        /* \"contracts/Founding Citizens NFT Sale.sol\":4301:4308  _amount */\n      dup1\n        /* \"contracts/Founding Citizens NFT Sale.sol\":4274:4286  usdcBalances */\n      0x03\n        /* \"contracts/Founding Citizens NFT Sale.sol\":4274:4298  usdcBalances[msg.sender] */\n      0x00\n        /* \"contracts/Founding Citizens NFT Sale.sol\":4287:4297  msg.sender */\n      caller\n        /* \"contracts/Founding Citizens NFT Sale.sol\":4274:4298  usdcBalances[msg.sender] */\n      0xffffffffffffffffffffffffffffffffffffffff\n      and\n      0xffffffffffffffffffffffffffffffffffffffff\n      and\n      dup2\n      mstore\n      0x20\n      add\n      swap1\n      dup2\n      mstore\n      0x20\n      add\n      0x00\n      keccak256\n        /* \"contracts/Founding Citizens NFT Sale.sol\":4274:4308  usdcBalances[msg.sender] = _amount */\n      dup2\n      swap1\n      sstore\n      pop\n        /* \"contracts/Founding Citizens NFT Sale.sol\":3992:4316  function receiveUSDC(uint _amount) internal {\r... */\n      pop\n      jump\t// out\n        /* \"@openzeppelin/contracts@4.4.2/utils/Context.sol\":640:736  function _msgSender() internal view virtual returns (address) {... */\n    tag_64:\n        /* \"@openzeppelin/contracts@4.4.2/utils/Context.sol\":693:700  address */\n      0x00\n        /* \"@openzeppelin/contracts@4.4.2/utils/Context.sol\":719:729  msg.sender */\n      caller\n        /* \"@openzeppelin/contracts@4.4.2/utils/Context.sol\":712:729  return msg.sender */\n      swap1\n      pop\n        /* \"@openzeppelin/contracts@4.4.2/utils/Context.sol\":640:736  function _msgSender() internal view virtual returns (address) {... */\n      swap1\n      jump\t// out\n        /* \"@openzeppelin/contracts@4.4.2/access/Ownable.sol\":2270:2457  function _transferOwnership(address newOwner) internal virtual {... */\n    tag_77:\n        /* \"@openzeppelin/contracts@4.4.2/access/Ownable.sol\":2343:2359  address oldOwner */\n      0x00\n        /* \"@openzeppelin/contracts@4.4.2/access/Ownable.sol\":2362:2368  _owner */\n      dup1\n      0x00\n      swap1\n      sload\n      swap1\n      0x0100\n      exp\n      swap1\n      div\n      0xffffffffffffffffffffffffffffffffffffffff\n      and\n        /* \"@openzeppelin/contracts@4.4.2/access/Ownable.sol\":2343:2368  address oldOwner = _owner */\n      swap1\n      pop\n        /* \"@openzeppelin/contracts@4.4.2/access/Ownable.sol\":2387:2395  newOwner */\n      dup2\n        /* \"@openzeppelin/contracts@4.4.2/access/Ownable.sol\":2378:2384  _owner */\n      0x00\n      dup1\n        /* \"@openzeppelin/contracts@4.4.2/access/Ownable.sol\":2378:2395  _owner = newOwner */\n      0x0100\n      exp\n      dup2\n      sload\n      dup2\n      0xffffffffffffffffffffffffffffffffffffffff\n      mul\n      not\n      and\n      swap1\n      dup4\n      0xffffffffffffffffffffffffffffffffffffffff\n      and\n      mul\n      or\n      swap1\n      sstore\n      pop\n        /* \"@openzeppelin/contracts@4.4.2/access/Ownable.sol\":2441:2449  newOwner */\n      dup2\n        /* \"@openzeppelin/contracts@4.4.2/access/Ownable.sol\":2410:2450  OwnershipTransferred(oldOwner, newOwner) */\n      0xffffffffffffffffffffffffffffffffffffffff\n      and\n        /* \"@openzeppelin/contracts@4.4.2/access/Ownable.sol\":2431:2439  oldOwner */\n      dup2\n        /* \"@openzeppelin/contracts@4.4.2/access/Ownable.sol\":2410:2450  OwnershipTransferred(oldOwner, newOwner) */\n      0xffffffffffffffffffffffffffffffffffffffff\n      and\n      0x8be0079c531659141344cd1fd0a4f28419497f9722a3daafe3b4186f6b6457e0\n      mload(0x40)\n      mload(0x40)\n      dup1\n      swap2\n      sub\n      swap1\n      log3\n        /* \"@openzeppelin/contracts@4.4.2/access/Ownable.sol\":2270:2457  function _transferOwnership(address newOwner) internal virtual {... */\n      pop\n      pop\n      jump\t// out\n        /* \"#utility.yul\":23:639   */\n    tag_126:\n      0x00\n        /* \"#utility.yul\":154:245   */\n      tag_128\n        /* \"#utility.yul\":170:244   */\n      tag_129\n        /* \"#utility.yul\":237:243   */\n      dup5\n        /* \"#utility.yul\":170:244   */\n      tag_130\n      jump\t// in\n    tag_129:\n        /* \"#utility.yul\":154:245   */\n      tag_131\n      jump\t// in\n    tag_128:\n        /* \"#utility.yul\":145:245   */\n      swap1\n      pop\n        /* \"#utility.yul\":265:270   */\n      dup1\n        /* \"#utility.yul\":293:299   */\n      dup4\n        /* \"#utility.yul\":286:291   */\n      dup3\n        /* \"#utility.yul\":279:300   */\n      mstore\n        /* \"#utility.yul\":319:323   */\n      0x20\n        /* \"#utility.yul\":312:317   */\n      dup3\n        /* \"#utility.yul\":308:324   */\n      add\n        /* \"#utility.yul\":301:324   */\n      swap1\n      pop\n        /* \"#utility.yul\":344:350   */\n      dup3\n        /* \"#utility.yul\":375:376   */\n      0x00\n        /* \"#utility.yul\":360:633   */\n    tag_132:\n        /* \"#utility.yul\":385:391   */\n      dup6\n        /* \"#utility.yul\":382:383   */\n      dup2\n        /* \"#utility.yul\":379:392   */\n      lt\n        /* \"#utility.yul\":360:633   */\n      iszero\n      tag_134\n      jumpi\n        /* \"#utility.yul\":477:480   */\n      dup2\n        /* \"#utility.yul\":464:481   */\n      calldataload\n        /* \"#utility.yul\":456:462   */\n      dup6\n        /* \"#utility.yul\":452:482   */\n      add\n        /* \"#utility.yul\":507:554   */\n      tag_135\n        /* \"#utility.yul\":550:553   */\n      dup9\n        /* \"#utility.yul\":538:548   */\n      dup3\n        /* \"#utility.yul\":507:554   */\n      tag_136\n      jump\t// in\n    tag_135:\n        /* \"#utility.yul\":502:505   */\n      dup5\n        /* \"#utility.yul\":495:555   */\n      mstore\n        /* \"#utility.yul\":584:588   */\n      0x20\n        /* \"#utility.yul\":579:582   */\n      dup5\n        /* \"#utility.yul\":575:589   */\n      add\n        /* \"#utility.yul\":568:589   */\n      swap4\n      pop\n        /* \"#utility.yul\":618:622   */\n      0x20\n        /* \"#utility.yul\":613:616   */\n      dup4\n        /* \"#utility.yul\":609:623   */\n      add\n        /* \"#utility.yul\":602:623   */\n      swap3\n      pop\n        /* \"#utility.yul\":420:633   */\n      pop\n        /* \"#utility.yul\":407:408   */\n      0x01\n        /* \"#utility.yul\":404:405   */\n      dup2\n        /* \"#utility.yul\":400:409   */\n      add\n        /* \"#utility.yul\":395:409   */\n      swap1\n      pop\n        /* \"#utility.yul\":360:633   */\n      jump(tag_132)\n    tag_134:\n        /* \"#utility.yul\":364:378   */\n      pop\n        /* \"#utility.yul\":135:639   */\n      pop\n      pop\n      swap4\n      swap3\n      pop\n      pop\n      pop\n      jump\t// out\n        /* \"#utility.yul\":662:1285   */\n    tag_137:\n      0x00\n        /* \"#utility.yul\":783:864   */\n      tag_139\n        /* \"#utility.yul\":799:863   */\n      tag_140\n        /* \"#utility.yul\":856:862   */\n      dup5\n        /* \"#utility.yul\":799:863   */\n      tag_141\n      jump\t// in\n    tag_140:\n        /* \"#utility.yul\":783:864   */\n      tag_131\n      jump\t// in\n    tag_139:\n        /* \"#utility.yul\":774:864   */\n      swap1\n      pop\n        /* \"#utility.yul\":884:889   */\n      dup1\n        /* \"#utility.yul\":912:918   */\n      dup4\n        /* \"#utility.yul\":905:910   */\n      dup3\n        /* \"#utility.yul\":898:919   */\n      mstore\n        /* \"#utility.yul\":938:942   */\n      0x20\n        /* \"#utility.yul\":931:936   */\n      dup3\n        /* \"#utility.yul\":927:943   */\n      add\n        /* \"#utility.yul\":920:943   */\n      swap1\n      pop\n        /* \"#utility.yul\":963:969   */\n      dup3\n        /* \"#utility.yul\":1013:1016   */\n      dup6\n        /* \"#utility.yul\":1005:1009   */\n      0x20\n        /* \"#utility.yul\":997:1003   */\n      dup7\n        /* \"#utility.yul\":993:1010   */\n      mul\n        /* \"#utility.yul\":988:991   */\n      dup3\n        /* \"#utility.yul\":984:1011   */\n      add\n        /* \"#utility.yul\":981:1017   */\n      gt\n        /* \"#utility.yul\":978:980   */\n      iszero\n      tag_142\n      jumpi\n        /* \"#utility.yul\":1030:1031   */\n      0x00\n        /* \"#utility.yul\":1027:1028   */\n      dup1\n        /* \"#utility.yul\":1020:1032   */\n      revert\n        /* \"#utility.yul\":978:980   */\n    tag_142:\n        /* \"#utility.yul\":1058:1059   */\n      0x00\n        /* \"#utility.yul\":1043:1279   */\n    tag_143:\n        /* \"#utility.yul\":1068:1074   */\n      dup6\n        /* \"#utility.yul\":1065:1066   */\n      dup2\n        /* \"#utility.yul\":1062:1075   */\n      lt\n        /* \"#utility.yul\":1043:1279   */\n      iszero\n      tag_145\n      jumpi\n        /* \"#utility.yul\":1135:1138   */\n      dup2\n        /* \"#utility.yul\":1163:1200   */\n      tag_146\n        /* \"#utility.yul\":1196:1199   */\n      dup9\n        /* \"#utility.yul\":1184:1194   */\n      dup3\n        /* \"#utility.yul\":1163:1200   */\n      tag_147\n      jump\t// in\n    tag_146:\n        /* \"#utility.yul\":1158:1161   */\n      dup5\n        /* \"#utility.yul\":1151:1201   */\n      mstore\n        /* \"#utility.yul\":1230:1234   */\n      0x20\n        /* \"#utility.yul\":1225:1228   */\n      dup5\n        /* \"#utility.yul\":1221:1235   */\n      add\n        /* \"#utility.yul\":1214:1235   */\n      swap4\n      pop\n        /* \"#utility.yul\":1264:1268   */\n      0x20\n        /* \"#utility.yul\":1259:1262   */\n      dup4\n        /* \"#utility.yul\":1255:1269   */\n      add\n        /* \"#utility.yul\":1248:1269   */\n      swap3\n      pop\n        /* \"#utility.yul\":1103:1279   */\n      pop\n        /* \"#utility.yul\":1090:1091   */\n      0x01\n        /* \"#utility.yul\":1087:1088   */\n      dup2\n        /* \"#utility.yul\":1083:1092   */\n      add\n        /* \"#utility.yul\":1078:1092   */\n      swap1\n      pop\n        /* \"#utility.yul\":1043:1279   */\n      jump(tag_143)\n    tag_145:\n        /* \"#utility.yul\":1047:1061   */\n      pop\n        /* \"#utility.yul\":764:1285   */\n      pop\n      pop\n      swap4\n      swap3\n      pop\n      pop\n      pop\n      jump\t// out\n        /* \"#utility.yul\":1291:1636   */\n    tag_148:\n      0x00\n        /* \"#utility.yul\":1394:1460   */\n      tag_150\n        /* \"#utility.yul\":1410:1459   */\n      tag_151\n        /* \"#utility.yul\":1452:1458   */\n      dup5\n        /* \"#utility.yul\":1410:1459   */\n      tag_152\n      jump\t// in\n    tag_151:\n        /* \"#utility.yul\":1394:1460   */\n      tag_131\n      jump\t// in\n    tag_150:\n        /* \"#utility.yul\":1385:1460   */\n      swap1\n      pop\n        /* \"#utility.yul\":1483:1489   */\n      dup3\n        /* \"#utility.yul\":1476:1481   */\n      dup2\n        /* \"#utility.yul\":1469:1490   */\n      mstore\n        /* \"#utility.yul\":1521:1525   */\n      0x20\n        /* \"#utility.yul\":1514:1519   */\n      dup2\n        /* \"#utility.yul\":1510:1526   */\n      add\n        /* \"#utility.yul\":1559:1562   */\n      dup5\n        /* \"#utility.yul\":1550:1556   */\n      dup5\n        /* \"#utility.yul\":1545:1548   */\n      dup5\n        /* \"#utility.yul\":1541:1557   */\n      add\n        /* \"#utility.yul\":1538:1563   */\n      gt\n        /* \"#utility.yul\":1535:1537   */\n      iszero\n      tag_153\n      jumpi\n        /* \"#utility.yul\":1576:1577   */\n      0x00\n        /* \"#utility.yul\":1573:1574   */\n      dup1\n        /* \"#utility.yul\":1566:1578   */\n      revert\n        /* \"#utility.yul\":1535:1537   */\n    tag_153:\n        /* \"#utility.yul\":1589:1630   */\n      tag_154\n        /* \"#utility.yul\":1623:1629   */\n      dup5\n        /* \"#utility.yul\":1618:1621   */\n      dup3\n        /* \"#utility.yul\":1613:1616   */\n      dup6\n        /* \"#utility.yul\":1589:1630   */\n      tag_155\n      jump\t// in\n    tag_154:\n        /* \"#utility.yul\":1375:1636   */\n      pop\n      swap4\n      swap3\n      pop\n      pop\n      pop\n      jump\t// out\n        /* \"#utility.yul\":1642:1781   */\n    tag_156:\n      0x00\n        /* \"#utility.yul\":1726:1732   */\n      dup2\n        /* \"#utility.yul\":1713:1733   */\n      calldataload\n        /* \"#utility.yul\":1704:1733   */\n      swap1\n      pop\n        /* \"#utility.yul\":1742:1775   */\n      tag_158\n        /* \"#utility.yul\":1769:1774   */\n      dup2\n        /* \"#utility.yul\":1742:1775   */\n      tag_159\n      jump\t// in\n    tag_158:\n        /* \"#utility.yul\":1694:1781   */\n      swap3\n      swap2\n      pop\n      pop\n      jump\t// out\n        /* \"#utility.yul\":1803:2126   */\n    tag_160:\n      0x00\n        /* \"#utility.yul\":1933:1936   */\n      dup3\n        /* \"#utility.yul\":1926:1930   */\n      0x1f\n        /* \"#utility.yul\":1918:1924   */\n      dup4\n        /* \"#utility.yul\":1914:1931   */\n      add\n        /* \"#utility.yul\":1910:1937   */\n      slt\n        /* \"#utility.yul\":1900:1902   */\n      tag_162\n      jumpi\n        /* \"#utility.yul\":1951:1952   */\n      0x00\n        /* \"#utility.yul\":1948:1949   */\n      dup1\n        /* \"#utility.yul\":1941:1953   */\n      revert\n        /* \"#utility.yul\":1900:1902   */\n    tag_162:\n        /* \"#utility.yul\":1991:1997   */\n      dup2\n        /* \"#utility.yul\":1978:1998   */\n      calldataload\n        /* \"#utility.yul\":2016:2120   */\n      tag_163\n        /* \"#utility.yul\":2116:2119   */\n      dup5\n        /* \"#utility.yul\":2108:2114   */\n      dup3\n        /* \"#utility.yul\":2101:2105   */\n      0x20\n        /* \"#utility.yul\":2093:2099   */\n      dup7\n        /* \"#utility.yul\":2089:2106   */\n      add\n        /* \"#utility.yul\":2016:2120   */\n      tag_126\n      jump\t// in\n    tag_163:\n        /* \"#utility.yul\":2007:2120   */\n      swap2\n      pop\n        /* \"#utility.yul\":1890:2126   */\n      pop\n      swap3\n      swap2\n      pop\n      pop\n      jump\t// out\n        /* \"#utility.yul\":2149:2452   */\n    tag_164:\n      0x00\n        /* \"#utility.yul\":2269:2272   */\n      dup3\n        /* \"#utility.yul\":2262:2266   */\n      0x1f\n        /* \"#utility.yul\":2254:2260   */\n      dup4\n        /* \"#utility.yul\":2250:2267   */\n      add\n        /* \"#utility.yul\":2246:2273   */\n      slt\n        /* \"#utility.yul\":2236:2238   */\n      tag_166\n      jumpi\n        /* \"#utility.yul\":2287:2288   */\n      0x00\n        /* \"#utility.yul\":2284:2285   */\n      dup1\n        /* \"#utility.yul\":2277:2289   */\n      revert\n        /* \"#utility.yul\":2236:2238   */\n    tag_166:\n        /* \"#utility.yul\":2327:2333   */\n      dup2\n        /* \"#utility.yul\":2314:2334   */\n      calldataload\n        /* \"#utility.yul\":2352:2446   */\n      tag_167\n        /* \"#utility.yul\":2442:2445   */\n      dup5\n        /* \"#utility.yul\":2434:2440   */\n      dup3\n        /* \"#utility.yul\":2427:2431   */\n      0x20\n        /* \"#utility.yul\":2419:2425   */\n      dup7\n        /* \"#utility.yul\":2415:2432   */\n      add\n        /* \"#utility.yul\":2352:2446   */\n      tag_137\n      jump\t// in\n    tag_167:\n        /* \"#utility.yul\":2343:2446   */\n      swap2\n      pop\n        /* \"#utility.yul\":2226:2452   */\n      pop\n      swap3\n      swap2\n      pop\n      pop\n      jump\t// out\n        /* \"#utility.yul\":2458:2595   */\n    tag_168:\n      0x00\n        /* \"#utility.yul\":2543:2549   */\n      dup2\n        /* \"#utility.yul\":2537:2550   */\n      mload\n        /* \"#utility.yul\":2528:2550   */\n      swap1\n      pop\n        /* \"#utility.yul\":2559:2589   */\n      tag_170\n        /* \"#utility.yul\":2583:2588   */\n      dup2\n        /* \"#utility.yul\":2559:2589   */\n      tag_171\n      jump\t// in\n    tag_170:\n        /* \"#utility.yul\":2518:2595   */\n      swap3\n      swap2\n      pop\n      pop\n      jump\t// out\n        /* \"#utility.yul\":2615:2888   */\n    tag_136:\n      0x00\n        /* \"#utility.yul\":2720:2723   */\n      dup3\n        /* \"#utility.yul\":2713:2717   */\n      0x1f\n        /* \"#utility.yul\":2705:2711   */\n      dup4\n        /* \"#utility.yul\":2701:2718   */\n      add\n        /* \"#utility.yul\":2697:2724   */\n      slt\n        /* \"#utility.yul\":2687:2689   */\n      tag_173\n      jumpi\n        /* \"#utility.yul\":2738:2739   */\n      0x00\n        /* \"#utility.yul\":2735:2736   */\n      dup1\n        /* \"#utility.yul\":2728:2740   */\n      revert\n        /* \"#utility.yul\":2687:2689   */\n    tag_173:\n        /* \"#utility.yul\":2778:2784   */\n      dup2\n        /* \"#utility.yul\":2765:2785   */\n      calldataload\n        /* \"#utility.yul\":2803:2882   */\n      tag_174\n        /* \"#utility.yul\":2878:2881   */\n      dup5\n        /* \"#utility.yul\":2870:2876   */\n      dup3\n        /* \"#utility.yul\":2863:2867   */\n      0x20\n        /* \"#utility.yul\":2855:2861   */\n      dup7\n        /* \"#utility.yul\":2851:2868   */\n      add\n        /* \"#utility.yul\":2803:2882   */\n      tag_148\n      jump\t// in\n    tag_174:\n        /* \"#utility.yul\":2794:2882   */\n      swap2\n      pop\n        /* \"#utility.yul\":2677:2888   */\n      pop\n      swap3\n      swap2\n      pop\n      pop\n      jump\t// out\n        /* \"#utility.yul\":2894:3033   */\n    tag_147:\n      0x00\n        /* \"#utility.yul\":2978:2984   */\n      dup2\n        /* \"#utility.yul\":2965:2985   */\n      calldataload\n        /* \"#utility.yul\":2956:2985   */\n      swap1\n      pop\n        /* \"#utility.yul\":2994:3027   */\n      tag_176\n        /* \"#utility.yul\":3021:3026   */\n      dup2\n        /* \"#utility.yul\":2994:3027   */\n      tag_177\n      jump\t// in\n    tag_176:\n        /* \"#utility.yul\":2946:3033   */\n      swap3\n      swap2\n      pop\n      pop\n      jump\t// out\n        /* \"#utility.yul\":3039:3301   */\n    tag_30:\n      0x00\n        /* \"#utility.yul\":3147:3149   */\n      0x20\n        /* \"#utility.yul\":3135:3144   */\n      dup3\n        /* \"#utility.yul\":3126:3133   */\n      dup5\n        /* \"#utility.yul\":3122:3145   */\n      sub\n        /* \"#utility.yul\":3118:3150   */\n      slt\n        /* \"#utility.yul\":3115:3117   */\n      iszero\n      tag_179\n      jumpi\n        /* \"#utility.yul\":3163:3164   */\n      0x00\n        /* \"#utility.yul\":3160:3161   */\n      dup1\n        /* \"#utility.yul\":3153:3165   */\n      revert\n        /* \"#utility.yul\":3115:3117   */\n    tag_179:\n        /* \"#utility.yul\":3206:3207   */\n      0x00\n        /* \"#utility.yul\":3231:3284   */\n      tag_180\n        /* \"#utility.yul\":3276:3283   */\n      dup5\n        /* \"#utility.yul\":3267:3273   */\n      dup3\n        /* \"#utility.yul\":3256:3265   */\n      dup6\n        /* \"#utility.yul\":3252:3274   */\n      add\n        /* \"#utility.yul\":3231:3284   */\n      tag_156\n      jump\t// in\n    tag_180:\n        /* \"#utility.yul\":3221:3284   */\n      swap2\n      pop\n        /* \"#utility.yul\":3177:3294   */\n      pop\n        /* \"#utility.yul\":3105:3301   */\n      swap3\n      swap2\n      pop\n      pop\n      jump\t// out\n        /* \"#utility.yul\":3307:4020   */\n    tag_54:\n      0x00\n      dup1\n        /* \"#utility.yul\":3492:3494   */\n      0x40\n        /* \"#utility.yul\":3480:3489   */\n      dup4\n        /* \"#utility.yul\":3471:3478   */\n      dup6\n        /* \"#utility.yul\":3467:3490   */\n      sub\n        /* \"#utility.yul\":3463:3495   */\n      slt\n        /* \"#utility.yul\":3460:3462   */\n      iszero\n      tag_182\n      jumpi\n        /* \"#utility.yul\":3508:3509   */\n      0x00\n        /* \"#utility.yul\":3505:3506   */\n      dup1\n        /* \"#utility.yul\":3498:3510   */\n      revert\n        /* \"#utility.yul\":3460:3462   */\n    tag_182:\n        /* \"#utility.yul\":3579:3580   */\n      0x00\n        /* \"#utility.yul\":3568:3577   */\n      dup4\n        /* \"#utility.yul\":3564:3581   */\n      add\n        /* \"#utility.yul\":3551:3582   */\n      calldataload\n        /* \"#utility.yul\":3609:3627   */\n      0xffffffffffffffff\n        /* \"#utility.yul\":3601:3607   */\n      dup2\n        /* \"#utility.yul\":3598:3628   */\n      gt\n        /* \"#utility.yul\":3595:3597   */\n      iszero\n      tag_183\n      jumpi\n        /* \"#utility.yul\":3641:3642   */\n      0x00\n        /* \"#utility.yul\":3638:3639   */\n      dup1\n        /* \"#utility.yul\":3631:3643   */\n      revert\n        /* \"#utility.yul\":3595:3597   */\n    tag_183:\n        /* \"#utility.yul\":3669:3747   */\n      tag_184\n        /* \"#utility.yul\":3739:3746   */\n      dup6\n        /* \"#utility.yul\":3730:3736   */\n      dup3\n        /* \"#utility.yul\":3719:3728   */\n      dup7\n        /* \"#utility.yul\":3715:3737   */\n      add\n        /* \"#utility.yul\":3669:3747   */\n      tag_164\n      jump\t// in\n    tag_184:\n        /* \"#utility.yul\":3659:3747   */\n      swap3\n      pop\n        /* \"#utility.yul\":3522:3757   */\n      pop\n        /* \"#utility.yul\":3824:3826   */\n      0x20\n        /* \"#utility.yul\":3813:3822   */\n      dup4\n        /* \"#utility.yul\":3809:3827   */\n      add\n        /* \"#utility.yul\":3796:3828   */\n      calldataload\n        /* \"#utility.yul\":3855:3873   */\n      0xffffffffffffffff\n        /* \"#utility.yul\":3847:3853   */\n      dup2\n        /* \"#utility.yul\":3844:3874   */\n      gt\n        /* \"#utility.yul\":3841:3843   */\n      iszero\n      tag_185\n      jumpi\n        /* \"#utility.yul\":3887:3888   */\n      0x00\n        /* \"#utility.yul\":3884:3885   */\n      dup1\n        /* \"#utility.yul\":3877:3889   */\n      revert\n        /* \"#utility.yul\":3841:3843   */\n    tag_185:\n        /* \"#utility.yul\":3915:4003   */\n      tag_186\n        /* \"#utility.yul\":3995:4002   */\n      dup6\n        /* \"#utility.yul\":3986:3992   */\n      dup3\n        /* \"#utility.yul\":3975:3984   */\n      dup7\n        /* \"#utility.yul\":3971:3993   */\n      add\n        /* \"#utility.yul\":3915:4003   */\n      tag_160\n      jump\t// in\n    tag_186:\n        /* \"#utility.yul\":3905:4003   */\n      swap2\n      pop\n        /* \"#utility.yul\":3767:4013   */\n      pop\n        /* \"#utility.yul\":3450:4020   */\n      swap3\n      pop\n      swap3\n      swap1\n      pop\n      jump\t// out\n        /* \"#utility.yul\":4026:4304   */\n    tag_122:\n      0x00\n        /* \"#utility.yul\":4142:4144   */\n      0x20\n        /* \"#utility.yul\":4130:4139   */\n      dup3\n        /* \"#utility.yul\":4121:4128   */\n      dup5\n        /* \"#utility.yul\":4117:4140   */\n      sub\n        /* \"#utility.yul\":4113:4145   */\n      slt\n        /* \"#utility.yul\":4110:4112   */\n      iszero\n      tag_188\n      jumpi\n        /* \"#utility.yul\":4158:4159   */\n      0x00\n        /* \"#utility.yul\":4155:4156   */\n      dup1\n        /* \"#utility.yul\":4148:4160   */\n      revert\n        /* \"#utility.yul\":4110:4112   */\n    tag_188:\n        /* \"#utility.yul\":4201:4202   */\n      0x00\n        /* \"#utility.yul\":4226:4287   */\n      tag_189\n        /* \"#utility.yul\":4279:4286   */\n      dup5\n        /* \"#utility.yul\":4270:4276   */\n      dup3\n        /* \"#utility.yul\":4259:4268   */\n      dup6\n        /* \"#utility.yul\":4255:4277   */\n      add\n        /* \"#utility.yul\":4226:4287   */\n      tag_168\n      jump\t// in\n    tag_189:\n        /* \"#utility.yul\":4216:4287   */\n      swap2\n      pop\n        /* \"#utility.yul\":4172:4297   */\n      pop\n        /* \"#utility.yul\":4100:4304   */\n      swap3\n      swap2\n      pop\n      pop\n      jump\t// out\n        /* \"#utility.yul\":4310:4572   */\n    tag_26:\n      0x00\n        /* \"#utility.yul\":4418:4420   */\n      0x20\n        /* \"#utility.yul\":4406:4415   */\n      dup3\n        /* \"#utility.yul\":4397:4404   */\n      dup5\n        /* \"#utility.yul\":4393:4416   */\n      sub\n        /* \"#utility.yul\":4389:4421   */\n      slt\n        /* \"#utility.yul\":4386:4388   */\n      iszero\n      tag_191\n      jumpi\n        /* \"#utility.yul\":4434:4435   */\n      0x00\n        /* \"#utility.yul\":4431:4432   */\n      dup1\n        /* \"#utility.yul\":4424:4436   */\n      revert\n        /* \"#utility.yul\":4386:4388   */\n    tag_191:\n        /* \"#utility.yul\":4477:4478   */\n      0x00\n        /* \"#utility.yul\":4502:4555   */\n      tag_192\n        /* \"#utility.yul\":4547:4554   */\n      dup5\n        /* \"#utility.yul\":4538:4544   */\n      dup3\n        /* \"#utility.yul\":4527:4536   */\n      dup6\n        /* \"#utility.yul\":4523:4545   */\n      add\n        /* \"#utility.yul\":4502:4555   */\n      tag_147\n      jump\t// in\n    tag_192:\n        /* \"#utility.yul\":4492:4555   */\n      swap2\n      pop\n        /* \"#utility.yul\":4448:4565   */\n      pop\n        /* \"#utility.yul\":4376:4572   */\n      swap3\n      swap2\n      pop\n      pop\n      jump\t// out\n        /* \"#utility.yul\":4578:4774   */\n    tag_193:\n      0x00\n        /* \"#utility.yul\":4702:4768   */\n      tag_195\n        /* \"#utility.yul\":4764:4767   */\n      dup4\n        /* \"#utility.yul\":4756:4762   */\n      dup4\n        /* \"#utility.yul\":4702:4768   */\n      tag_196\n      jump\t// in\n    tag_195:\n        /* \"#utility.yul\":4688:4768   */\n      swap1\n      pop\n        /* \"#utility.yul\":4678:4774   */\n      swap3\n      swap2\n      pop\n      pop\n      jump\t// out\n        /* \"#utility.yul\":4780:4959   */\n    tag_197:\n      0x00\n        /* \"#utility.yul\":4870:4916   */\n      tag_199\n        /* \"#utility.yul\":4912:4915   */\n      dup4\n        /* \"#utility.yul\":4904:4910   */\n      dup4\n        /* \"#utility.yul\":4870:4916   */\n      tag_200\n      jump\t// in\n    tag_199:\n        /* \"#utility.yul\":4948:4952   */\n      0x20\n        /* \"#utility.yul\":4943:4946   */\n      dup4\n        /* \"#utility.yul\":4939:4953   */\n      add\n        /* \"#utility.yul\":4925:4953   */\n      swap1\n      pop\n        /* \"#utility.yul\":4860:4959   */\n      swap3\n      swap2\n      pop\n      pop\n      jump\t// out\n        /* \"#utility.yul\":4965:5083   */\n    tag_201:\n        /* \"#utility.yul\":5052:5076   */\n      tag_203\n        /* \"#utility.yul\":5070:5075   */\n      dup2\n        /* \"#utility.yul\":5052:5076   */\n      tag_204\n      jump\t// in\n    tag_203:\n        /* \"#utility.yul\":5047:5050   */\n      dup3\n        /* \"#utility.yul\":5040:5077   */\n      mstore\n        /* \"#utility.yul\":5030:5083   */\n      pop\n      pop\n      jump\t// out\n        /* \"#utility.yul\":5117:6108   */\n    tag_205:\n      0x00\n        /* \"#utility.yul\":5285:5349   */\n      tag_207\n        /* \"#utility.yul\":5343:5348   */\n      dup3\n        /* \"#utility.yul\":5285:5349   */\n      tag_208\n      jump\t// in\n    tag_207:\n        /* \"#utility.yul\":5365:5461   */\n      tag_209\n        /* \"#utility.yul\":5454:5460   */\n      dup2\n        /* \"#utility.yul\":5449:5452   */\n      dup6\n        /* \"#utility.yul\":5365:5461   */\n      tag_210\n      jump\t// in\n    tag_209:\n        /* \"#utility.yul\":5358:5461   */\n      swap4\n      pop\n        /* \"#utility.yul\":5487:5490   */\n      dup4\n        /* \"#utility.yul\":5532:5536   */\n      0x20\n        /* \"#utility.yul\":5524:5530   */\n      dup3\n        /* \"#utility.yul\":5520:5537   */\n      mul\n        /* \"#utility.yul\":5515:5518   */\n      dup6\n        /* \"#utility.yul\":5511:5538   */\n      add\n        /* \"#utility.yul\":5562:5628   */\n      tag_211\n        /* \"#utility.yul\":5622:5627   */\n      dup6\n        /* \"#utility.yul\":5562:5628   */\n      tag_212\n      jump\t// in\n    tag_211:\n        /* \"#utility.yul\":5651:5658   */\n      dup1\n        /* \"#utility.yul\":5682:5683   */\n      0x00\n        /* \"#utility.yul\":5667:6063   */\n    tag_213:\n        /* \"#utility.yul\":5692:5698   */\n      dup6\n        /* \"#utility.yul\":5689:5690   */\n      dup2\n        /* \"#utility.yul\":5686:5699   */\n      lt\n        /* \"#utility.yul\":5667:6063   */\n      iszero\n      tag_215\n      jumpi\n        /* \"#utility.yul\":5763:5772   */\n      dup5\n        /* \"#utility.yul\":5757:5761   */\n      dup5\n        /* \"#utility.yul\":5753:5773   */\n      sub\n        /* \"#utility.yul\":5748:5751   */\n      dup10\n        /* \"#utility.yul\":5741:5774   */\n      mstore\n        /* \"#utility.yul\":5814:5820   */\n      dup2\n        /* \"#utility.yul\":5808:5821   */\n      mload\n        /* \"#utility.yul\":5842:5926   */\n      tag_216\n        /* \"#utility.yul\":5921:5925   */\n      dup6\n        /* \"#utility.yul\":5906:5919   */\n      dup3\n        /* \"#utility.yul\":5842:5926   */\n      tag_193\n      jump\t// in\n    tag_216:\n        /* \"#utility.yul\":5834:5926   */\n      swap5\n      pop\n        /* \"#utility.yul\":5949:6019   */\n      tag_217\n        /* \"#utility.yul\":6012:6018   */\n      dup4\n        /* \"#utility.yul\":5949:6019   */\n      tag_218\n      jump\t// in\n    tag_217:\n        /* \"#utility.yul\":5939:6019   */\n      swap3\n      pop\n        /* \"#utility.yul\":6048:6052   */\n      0x20\n        /* \"#utility.yul\":6043:6046   */\n      dup11\n        /* \"#utility.yul\":6039:6053   */\n      add\n        /* \"#utility.yul\":6032:6053   */\n      swap10\n      pop\n        /* \"#utility.yul\":5727:6063   */\n      pop\n        /* \"#utility.yul\":5714:5715   */\n      0x01\n        /* \"#utility.yul\":5711:5712   */\n      dup2\n        /* \"#utility.yul\":5707:5716   */\n      add\n        /* \"#utility.yul\":5702:5716   */\n      swap1\n      pop\n        /* \"#utility.yul\":5667:6063   */\n      jump(tag_213)\n    tag_215:\n        /* \"#utility.yul\":5671:5685   */\n      pop\n        /* \"#utility.yul\":6079:6083   */\n      dup3\n        /* \"#utility.yul\":6072:6083   */\n      swap8\n      pop\n        /* \"#utility.yul\":6099:6102   */\n      dup8\n        /* \"#utility.yul\":6092:6102   */\n      swap6\n      pop\n        /* \"#utility.yul\":5261:6108   */\n      pop\n      pop\n      pop\n      pop\n      pop\n      swap3\n      swap2\n      pop\n      pop\n      jump\t// out\n        /* \"#utility.yul\":6144:6876   */\n    tag_219:\n      0x00\n        /* \"#utility.yul\":6292:6346   */\n      tag_221\n        /* \"#utility.yul\":6340:6345   */\n      dup3\n        /* \"#utility.yul\":6292:6346   */\n      tag_222\n      jump\t// in\n    tag_221:\n        /* \"#utility.yul\":6362:6448   */\n      tag_223\n        /* \"#utility.yul\":6441:6447   */\n      dup2\n        /* \"#utility.yul\":6436:6439   */\n      dup6\n        /* \"#utility.yul\":6362:6448   */\n      tag_224\n      jump\t// in\n    tag_223:\n        /* \"#utility.yul\":6355:6448   */\n      swap4\n      pop\n        /* \"#utility.yul\":6472:6528   */\n      tag_225\n        /* \"#utility.yul\":6522:6527   */\n      dup4\n        /* \"#utility.yul\":6472:6528   */\n      tag_226\n      jump\t// in\n    tag_225:\n        /* \"#utility.yul\":6551:6558   */\n      dup1\n        /* \"#utility.yul\":6582:6583   */\n      0x00\n        /* \"#utility.yul\":6567:6851   */\n    tag_227:\n        /* \"#utility.yul\":6592:6598   */\n      dup4\n        /* \"#utility.yul\":6589:6590   */\n      dup2\n        /* \"#utility.yul\":6586:6599   */\n      lt\n        /* \"#utility.yul\":6567:6851   */\n      iszero\n      tag_229\n      jumpi\n        /* \"#utility.yul\":6668:6674   */\n      dup2\n        /* \"#utility.yul\":6662:6675   */\n      mload\n        /* \"#utility.yul\":6695:6758   */\n      tag_230\n        /* \"#utility.yul\":6754:6757   */\n      dup9\n        /* \"#utility.yul\":6739:6752   */\n      dup3\n        /* \"#utility.yul\":6695:6758   */\n      tag_197\n      jump\t// in\n    tag_230:\n        /* \"#utility.yul\":6688:6758   */\n      swap8\n      pop\n        /* \"#utility.yul\":6781:6841   */\n      tag_231\n        /* \"#utility.yul\":6834:6840   */\n      dup4\n        /* \"#utility.yul\":6781:6841   */\n      tag_232\n      jump\t// in\n    tag_231:\n        /* \"#utility.yul\":6771:6841   */\n      swap3\n      pop\n        /* \"#utility.yul\":6627:6851   */\n      pop\n        /* \"#utility.yul\":6614:6615   */\n      0x01\n        /* \"#utility.yul\":6611:6612   */\n      dup2\n        /* \"#utility.yul\":6607:6616   */\n      add\n        /* \"#utility.yul\":6602:6616   */\n      swap1\n      pop\n        /* \"#utility.yul\":6567:6851   */\n      jump(tag_227)\n    tag_229:\n        /* \"#utility.yul\":6571:6585   */\n      pop\n        /* \"#utility.yul\":6867:6870   */\n      dup6\n        /* \"#utility.yul\":6860:6870   */\n      swap4\n      pop\n        /* \"#utility.yul\":6268:6876   */\n      pop\n      pop\n      pop\n      swap3\n      swap2\n      pop\n      pop\n      jump\t// out\n        /* \"#utility.yul\":6882:6991   */\n    tag_233:\n        /* \"#utility.yul\":6963:6984   */\n      tag_235\n        /* \"#utility.yul\":6978:6983   */\n      dup2\n        /* \"#utility.yul\":6963:6984   */\n      tag_236\n      jump\t// in\n    tag_235:\n        /* \"#utility.yul\":6958:6961   */\n      dup3\n        /* \"#utility.yul\":6951:6985   */\n      mstore\n        /* \"#utility.yul\":6941:6991   */\n      pop\n      pop\n      jump\t// out\n        /* \"#utility.yul\":6997:7154   */\n    tag_237:\n        /* \"#utility.yul\":7097:7147   */\n      tag_239\n        /* \"#utility.yul\":7141:7146   */\n      dup2\n        /* \"#utility.yul\":7097:7147   */\n      tag_240\n      jump\t// in\n    tag_239:\n        /* \"#utility.yul\":7092:7095   */\n      dup3\n        /* \"#utility.yul\":7085:7148   */\n      mstore\n        /* \"#utility.yul\":7075:7154   */\n      pop\n      pop\n      jump\t// out\n        /* \"#utility.yul\":7160:7504   */\n    tag_196:\n      0x00\n        /* \"#utility.yul\":7266:7305   */\n      tag_242\n        /* \"#utility.yul\":7299:7304   */\n      dup3\n        /* \"#utility.yul\":7266:7305   */\n      tag_243\n      jump\t// in\n    tag_242:\n        /* \"#utility.yul\":7321:7382   */\n      tag_244\n        /* \"#utility.yul\":7375:7381   */\n      dup2\n        /* \"#utility.yul\":7370:7373   */\n      dup6\n        /* \"#utility.yul\":7321:7382   */\n      tag_245\n      jump\t// in\n    tag_244:\n        /* \"#utility.yul\":7314:7382   */\n      swap4\n      pop\n        /* \"#utility.yul\":7391:7443   */\n      tag_246\n        /* \"#utility.yul\":7436:7442   */\n      dup2\n        /* \"#utility.yul\":7431:7434   */\n      dup6\n        /* \"#utility.yul\":7424:7428   */\n      0x20\n        /* \"#utility.yul\":7417:7422   */\n      dup7\n        /* \"#utility.yul\":7413:7429   */\n      add\n        /* \"#utility.yul\":7391:7443   */\n      tag_247\n      jump\t// in\n    tag_246:\n        /* \"#utility.yul\":7468:7497   */\n      tag_248\n        /* \"#utility.yul\":7490:7496   */\n      dup2\n        /* \"#utility.yul\":7468:7497   */\n      tag_249\n      jump\t// in\n    tag_248:\n        /* \"#utility.yul\":7463:7466   */\n      dup5\n        /* \"#utility.yul\":7459:7498   */\n      add\n        /* \"#utility.yul\":7452:7498   */\n      swap2\n      pop\n        /* \"#utility.yul\":7242:7504   */\n      pop\n      swap3\n      swap2\n      pop\n      pop\n      jump\t// out\n        /* \"#utility.yul\":7510:7876   */\n    tag_250:\n      0x00\n        /* \"#utility.yul\":7673:7740   */\n      tag_252\n        /* \"#utility.yul\":7737:7739   */\n      0x26\n        /* \"#utility.yul\":7732:7735   */\n      dup4\n        /* \"#utility.yul\":7673:7740   */\n      tag_253\n      jump\t// in\n    tag_252:\n        /* \"#utility.yul\":7666:7740   */\n      swap2\n      pop\n        /* \"#utility.yul\":7749:7842   */\n      tag_254\n        /* \"#utility.yul\":7838:7841   */\n      dup3\n        /* \"#utility.yul\":7749:7842   */\n      tag_255\n      jump\t// in\n    tag_254:\n        /* \"#utility.yul\":7867:7869   */\n      0x40\n        /* \"#utility.yul\":7862:7865   */\n      dup3\n        /* \"#utility.yul\":7858:7870   */\n      add\n        /* \"#utility.yul\":7851:7870   */\n      swap1\n      pop\n        /* \"#utility.yul\":7656:7876   */\n      swap2\n      swap1\n      pop\n      jump\t// out\n        /* \"#utility.yul\":7882:8248   */\n    tag_256:\n      0x00\n        /* \"#utility.yul\":8045:8112   */\n      tag_258\n        /* \"#utility.yul\":8109:8111   */\n      0x20\n        /* \"#utility.yul\":8104:8107   */\n      dup4\n        /* \"#utility.yul\":8045:8112   */\n      tag_253\n      jump\t// in\n    tag_258:\n        /* \"#utility.yul\":8038:8112   */\n      swap2\n      pop\n        /* \"#utility.yul\":8121:8214   */\n      tag_259\n        /* \"#utility.yul\":8210:8213   */\n      dup3\n        /* \"#utility.yul\":8121:8214   */\n      tag_260\n      jump\t// in\n    tag_259:\n        /* \"#utility.yul\":8239:8241   */\n      0x20\n        /* \"#utility.yul\":8234:8237   */\n      dup3\n        /* \"#utility.yul\":8230:8242   */\n      add\n        /* \"#utility.yul\":8223:8242   */\n      swap1\n      pop\n        /* \"#utility.yul\":8028:8248   */\n      swap2\n      swap1\n      pop\n      jump\t// out\n        /* \"#utility.yul\":8254:8620   */\n    tag_261:\n      0x00\n        /* \"#utility.yul\":8417:8484   */\n      tag_263\n        /* \"#utility.yul\":8481:8483   */\n      0x2b\n        /* \"#utility.yul\":8476:8479   */\n      dup4\n        /* \"#utility.yul\":8417:8484   */\n      tag_253\n      jump\t// in\n    tag_263:\n        /* \"#utility.yul\":8410:8484   */\n      swap2\n      pop\n        /* \"#utility.yul\":8493:8586   */\n      tag_264\n        /* \"#utility.yul\":8582:8585   */\n      dup3\n        /* \"#utility.yul\":8493:8586   */\n      tag_265\n      jump\t// in\n    tag_264:\n        /* \"#utility.yul\":8611:8613   */\n      0x40\n        /* \"#utility.yul\":8606:8609   */\n      dup3\n        /* \"#utility.yul\":8602:8614   */\n      add\n        /* \"#utility.yul\":8595:8614   */\n      swap1\n      pop\n        /* \"#utility.yul\":8400:8620   */\n      swap2\n      swap1\n      pop\n      jump\t// out\n        /* \"#utility.yul\":8626:8734   */\n    tag_200:\n        /* \"#utility.yul\":8703:8727   */\n      tag_267\n        /* \"#utility.yul\":8721:8726   */\n      dup2\n        /* \"#utility.yul\":8703:8727   */\n      tag_268\n      jump\t// in\n    tag_267:\n        /* \"#utility.yul\":8698:8701   */\n      dup3\n        /* \"#utility.yul\":8691:8728   */\n      mstore\n        /* \"#utility.yul\":8681:8734   */\n      pop\n      pop\n      jump\t// out\n        /* \"#utility.yul\":8740:8858   */\n    tag_269:\n        /* \"#utility.yul\":8827:8851   */\n      tag_271\n        /* \"#utility.yul\":8845:8850   */\n      dup2\n        /* \"#utility.yul\":8827:8851   */\n      tag_268\n      jump\t// in\n    tag_271:\n        /* \"#utility.yul\":8822:8825   */\n      dup3\n        /* \"#utility.yul\":8815:8852   */\n      mstore\n        /* \"#utility.yul\":8805:8858   */\n      pop\n      pop\n      jump\t// out\n        /* \"#utility.yul\":8864:9086   */\n    tag_19:\n      0x00\n        /* \"#utility.yul\":8995:8997   */\n      0x20\n        /* \"#utility.yul\":8984:8993   */\n      dup3\n        /* \"#utility.yul\":8980:8998   */\n      add\n        /* \"#utility.yul\":8972:8998   */\n      swap1\n      pop\n        /* \"#utility.yul\":9008:9079   */\n      tag_273\n        /* \"#utility.yul\":9076:9077   */\n      0x00\n        /* \"#utility.yul\":9065:9074   */\n      dup4\n        /* \"#utility.yul\":9061:9078   */\n      add\n        /* \"#utility.yul\":9052:9058   */\n      dup5\n        /* \"#utility.yul\":9008:9079   */\n      tag_201\n      jump\t// in\n    tag_273:\n        /* \"#utility.yul\":8962:9086   */\n      swap3\n      swap2\n      pop\n      pop\n      jump\t// out\n        /* \"#utility.yul\":9092:9534   */\n    tag_117:\n      0x00\n        /* \"#utility.yul\":9279:9281   */\n      0x60\n        /* \"#utility.yul\":9268:9277   */\n      dup3\n        /* \"#utility.yul\":9264:9282   */\n      add\n        /* \"#utility.yul\":9256:9282   */\n      swap1\n      pop\n        /* \"#utility.yul\":9292:9363   */\n      tag_275\n        /* \"#utility.yul\":9360:9361   */\n      0x00\n        /* \"#utility.yul\":9349:9358   */\n      dup4\n        /* \"#utility.yul\":9345:9362   */\n      add\n        /* \"#utility.yul\":9336:9342   */\n      dup7\n        /* \"#utility.yul\":9292:9363   */\n      tag_201\n      jump\t// in\n    tag_275:\n        /* \"#utility.yul\":9373:9445   */\n      tag_276\n        /* \"#utility.yul\":9441:9443   */\n      0x20\n        /* \"#utility.yul\":9430:9439   */\n      dup4\n        /* \"#utility.yul\":9426:9444   */\n      add\n        /* \"#utility.yul\":9417:9423   */\n      dup6\n        /* \"#utility.yul\":9373:9445   */\n      tag_201\n      jump\t// in\n    tag_276:\n        /* \"#utility.yul\":9455:9527   */\n      tag_277\n        /* \"#utility.yul\":9523:9525   */\n      0x40\n        /* \"#utility.yul\":9512:9521   */\n      dup4\n        /* \"#utility.yul\":9508:9526   */\n      add\n        /* \"#utility.yul\":9499:9505   */\n      dup5\n        /* \"#utility.yul\":9455:9527   */\n      tag_269\n      jump\t// in\n    tag_277:\n        /* \"#utility.yul\":9246:9534   */\n      swap5\n      swap4\n      pop\n      pop\n      pop\n      pop\n      jump\t// out\n        /* \"#utility.yul\":9540:10214   */\n    tag_98:\n      0x00\n        /* \"#utility.yul\":9819:9821   */\n      0x40\n        /* \"#utility.yul\":9808:9817   */\n      dup3\n        /* \"#utility.yul\":9804:9822   */\n      add\n        /* \"#utility.yul\":9796:9822   */\n      swap1\n      pop\n        /* \"#utility.yul\":9868:9877   */\n      dup2\n        /* \"#utility.yul\":9862:9866   */\n      dup2\n        /* \"#utility.yul\":9858:9878   */\n      sub\n        /* \"#utility.yul\":9854:9855   */\n      0x00\n        /* \"#utility.yul\":9843:9852   */\n      dup4\n        /* \"#utility.yul\":9839:9856   */\n      add\n        /* \"#utility.yul\":9832:9879   */\n      mstore\n        /* \"#utility.yul\":9896:10004   */\n      tag_279\n        /* \"#utility.yul\":9999:10003   */\n      dup2\n        /* \"#utility.yul\":9990:9996   */\n      dup6\n        /* \"#utility.yul\":9896:10004   */\n      tag_219\n      jump\t// in\n    tag_279:\n        /* \"#utility.yul\":9888:10004   */\n      swap1\n      pop\n        /* \"#utility.yul\":10051:10060   */\n      dup2\n        /* \"#utility.yul\":10045:10049   */\n      dup2\n        /* \"#utility.yul\":10041:10061   */\n      sub\n        /* \"#utility.yul\":10036:10038   */\n      0x20\n        /* \"#utility.yul\":10025:10034   */\n      dup4\n        /* \"#utility.yul\":10021:10039   */\n      add\n        /* \"#utility.yul\":10014:10062   */\n      mstore\n        /* \"#utility.yul\":10079:10207   */\n      tag_280\n        /* \"#utility.yul\":10202:10206   */\n      dup2\n        /* \"#utility.yul\":10193:10199   */\n      dup5\n        /* \"#utility.yul\":10079:10207   */\n      tag_205\n      jump\t// in\n    tag_280:\n        /* \"#utility.yul\":10071:10207   */\n      swap1\n      pop\n        /* \"#utility.yul\":9786:10214   */\n      swap4\n      swap3\n      pop\n      pop\n      pop\n      jump\t// out\n        /* \"#utility.yul\":10220:10468   */\n    tag_23:\n      0x00\n        /* \"#utility.yul\":10364:10366   */\n      0x20\n        /* \"#utility.yul\":10353:10362   */\n      dup3\n        /* \"#utility.yul\":10349:10367   */\n      add\n        /* \"#utility.yul\":10341:10367   */\n      swap1\n      pop\n        /* \"#utility.yul\":10377:10461   */\n      tag_282\n        /* \"#utility.yul\":10458:10459   */\n      0x00\n        /* \"#utility.yul\":10447:10456   */\n      dup4\n        /* \"#utility.yul\":10443:10460   */\n      add\n        /* \"#utility.yul\":10434:10440   */\n      dup5\n        /* \"#utility.yul\":10377:10461   */\n      tag_237\n      jump\t// in\n    tag_282:\n        /* \"#utility.yul\":10331:10468   */\n      swap3\n      swap2\n      pop\n      pop\n      jump\t// out\n        /* \"#utility.yul\":10474:10893   */\n    tag_110:\n      0x00\n        /* \"#utility.yul\":10678:10680   */\n      0x20\n        /* \"#utility.yul\":10667:10676   */\n      dup3\n        /* \"#utility.yul\":10663:10681   */\n      add\n        /* \"#utility.yul\":10655:10681   */\n      swap1\n      pop\n        /* \"#utility.yul\":10727:10736   */\n      dup2\n        /* \"#utility.yul\":10721:10725   */\n      dup2\n        /* \"#utility.yul\":10717:10737   */\n      sub\n        /* \"#utility.yul\":10713:10714   */\n      0x00\n        /* \"#utility.yul\":10702:10711   */\n      dup4\n        /* \"#utility.yul\":10698:10715   */\n      add\n        /* \"#utility.yul\":10691:10738   */\n      mstore\n        /* \"#utility.yul\":10755:10886   */\n      tag_284\n        /* \"#utility.yul\":10881:10885   */\n      dup2\n        /* \"#utility.yul\":10755:10886   */\n      tag_250\n      jump\t// in\n    tag_284:\n        /* \"#utility.yul\":10747:10886   */\n      swap1\n      pop\n        /* \"#utility.yul\":10645:10893   */\n      swap2\n      swap1\n      pop\n      jump\t// out\n        /* \"#utility.yul\":10899:11318   */\n    tag_68:\n      0x00\n        /* \"#utility.yul\":11103:11105   */\n      0x20\n        /* \"#utility.yul\":11092:11101   */\n      dup3\n        /* \"#utility.yul\":11088:11106   */\n      add\n        /* \"#utility.yul\":11080:11106   */\n      swap1\n      pop\n        /* \"#utility.yul\":11152:11161   */\n      dup2\n        /* \"#utility.yul\":11146:11150   */\n      dup2\n        /* \"#utility.yul\":11142:11162   */\n      sub\n        /* \"#utility.yul\":11138:11139   */\n      0x00\n        /* \"#utility.yul\":11127:11136   */\n      dup4\n        /* \"#utility.yul\":11123:11140   */\n      add\n        /* \"#utility.yul\":11116:11163   */\n      mstore\n        /* \"#utility.yul\":11180:11311   */\n      tag_286\n        /* \"#utility.yul\":11306:11310   */\n      dup2\n        /* \"#utility.yul\":11180:11311   */\n      tag_256\n      jump\t// in\n    tag_286:\n        /* \"#utility.yul\":11172:11311   */\n      swap1\n      pop\n        /* \"#utility.yul\":11070:11318   */\n      swap2\n      swap1\n      pop\n      jump\t// out\n        /* \"#utility.yul\":11324:11743   */\n    tag_115:\n      0x00\n        /* \"#utility.yul\":11528:11530   */\n      0x20\n        /* \"#utility.yul\":11517:11526   */\n      dup3\n        /* \"#utility.yul\":11513:11531   */\n      add\n        /* \"#utility.yul\":11505:11531   */\n      swap1\n      pop\n        /* \"#utility.yul\":11577:11586   */\n      dup2\n        /* \"#utility.yul\":11571:11575   */\n      dup2\n        /* \"#utility.yul\":11567:11587   */\n      sub\n        /* \"#utility.yul\":11563:11564   */\n      0x00\n        /* \"#utility.yul\":11552:11561   */\n      dup4\n        /* \"#utility.yul\":11548:11565   */\n      add\n        /* \"#utility.yul\":11541:11588   */\n      mstore\n        /* \"#utility.yul\":11605:11736   */\n      tag_288\n        /* \"#utility.yul\":11731:11735   */\n      dup2\n        /* \"#utility.yul\":11605:11736   */\n      tag_261\n      jump\t// in\n    tag_288:\n        /* \"#utility.yul\":11597:11736   */\n      swap1\n      pop\n        /* \"#utility.yul\":11495:11743   */\n      swap2\n      swap1\n      pop\n      jump\t// out\n        /* \"#utility.yul\":11749:11971   */\n    tag_44:\n      0x00\n        /* \"#utility.yul\":11880:11882   */\n      0x20\n        /* \"#utility.yul\":11869:11878   */\n      dup3\n        /* \"#utility.yul\":11865:11883   */\n      add\n        /* \"#utility.yul\":11857:11883   */\n      swap1\n      pop\n        /* \"#utility.yul\":11893:11964   */\n      tag_290\n        /* \"#utility.yul\":11961:11962   */\n      0x00\n        /* \"#utility.yul\":11950:11959   */\n      dup4\n        /* \"#utility.yul\":11946:11963   */\n      add\n        /* \"#utility.yul\":11937:11943   */\n      dup5\n        /* \"#utility.yul\":11893:11964   */\n      tag_269\n      jump\t// in\n    tag_290:\n        /* \"#utility.yul\":11847:11971   */\n      swap3\n      swap2\n      pop\n      pop\n      jump\t// out\n        /* \"#utility.yul\":11977:12407   */\n    tag_51:\n      0x00\n        /* \"#utility.yul\":12158:12160   */\n      0x60\n        /* \"#utility.yul\":12147:12156   */\n      dup3\n        /* \"#utility.yul\":12143:12161   */\n      add\n        /* \"#utility.yul\":12135:12161   */\n      swap1\n      pop\n        /* \"#utility.yul\":12171:12242   */\n      tag_292\n        /* \"#utility.yul\":12239:12240   */\n      0x00\n        /* \"#utility.yul\":12228:12237   */\n      dup4\n        /* \"#utility.yul\":12224:12241   */\n      add\n        /* \"#utility.yul\":12215:12221   */\n      dup7\n        /* \"#utility.yul\":12171:12242   */\n      tag_269\n      jump\t// in\n    tag_292:\n        /* \"#utility.yul\":12252:12324   */\n      tag_293\n        /* \"#utility.yul\":12320:12322   */\n      0x20\n        /* \"#utility.yul\":12309:12318   */\n      dup4\n        /* \"#utility.yul\":12305:12323   */\n      add\n        /* \"#utility.yul\":12296:12302   */\n      dup6\n        /* \"#utility.yul\":12252:12324   */\n      tag_269\n      jump\t// in\n    tag_293:\n        /* \"#utility.yul\":12334:12400   */\n      tag_294\n        /* \"#utility.yul\":12396:12398   */\n      0x40\n        /* \"#utility.yul\":12385:12394   */\n      dup4\n        /* \"#utility.yul\":12381:12399   */\n      add\n        /* \"#utility.yul\":12372:12378   */\n      dup5\n        /* \"#utility.yul\":12334:12400   */\n      tag_233\n      jump\t// in\n    tag_294:\n        /* \"#utility.yul\":12125:12407   */\n      swap5\n      swap4\n      pop\n      pop\n      pop\n      pop\n      jump\t// out\n        /* \"#utility.yul\":12413:12542   */\n    tag_131:\n      0x00\n        /* \"#utility.yul\":12474:12494   */\n      tag_296\n      tag_297\n      jump\t// in\n    tag_296:\n        /* \"#utility.yul\":12464:12494   */\n      swap1\n      pop\n        /* \"#utility.yul\":12503:12536   */\n      tag_298\n        /* \"#utility.yul\":12531:12535   */\n      dup3\n        /* \"#utility.yul\":12523:12529   */\n      dup3\n        /* \"#utility.yul\":12503:12536   */\n      tag_299\n      jump\t// in\n    tag_298:\n        /* \"#utility.yul\":12454:12542   */\n      swap2\n      swap1\n      pop\n      jump\t// out\n        /* \"#utility.yul\":12548:12623   */\n    tag_297:\n      0x00\n        /* \"#utility.yul\":12614:12616   */\n      0x40\n        /* \"#utility.yul\":12608:12617   */\n      mload\n        /* \"#utility.yul\":12598:12617   */\n      swap1\n      pop\n        /* \"#utility.yul\":12588:12623   */\n      swap1\n      jump\t// out\n        /* \"#utility.yul\":12629:12950   */\n    tag_130:\n      0x00\n        /* \"#utility.yul\":12806:12824   */\n      0xffffffffffffffff\n        /* \"#utility.yul\":12798:12804   */\n      dup3\n        /* \"#utility.yul\":12795:12825   */\n      gt\n        /* \"#utility.yul\":12792:12794   */\n      iszero\n      tag_302\n      jumpi\n        /* \"#utility.yul\":12828:12846   */\n      tag_303\n      tag_304\n      jump\t// in\n    tag_303:\n        /* \"#utility.yul\":12792:12794   */\n    tag_302:\n        /* \"#utility.yul\":12878:12882   */\n      0x20\n        /* \"#utility.yul\":12870:12876   */\n      dup3\n        /* \"#utility.yul\":12866:12883   */\n      mul\n        /* \"#utility.yul\":12858:12883   */\n      swap1\n      pop\n        /* \"#utility.yul\":12938:12942   */\n      0x20\n        /* \"#utility.yul\":12932:12936   */\n      dup2\n        /* \"#utility.yul\":12928:12943   */\n      add\n        /* \"#utility.yul\":12920:12943   */\n      swap1\n      pop\n        /* \"#utility.yul\":12721:12950   */\n      swap2\n      swap1\n      pop\n      jump\t// out\n        /* \"#utility.yul\":12956:13267   */\n    tag_141:\n      0x00\n        /* \"#utility.yul\":13123:13141   */\n      0xffffffffffffffff\n        /* \"#utility.yul\":13115:13121   */\n      dup3\n        /* \"#utility.yul\":13112:13142   */\n      gt\n        /* \"#utility.yul\":13109:13111   */\n      iszero\n      tag_306\n      jumpi\n        /* \"#utility.yul\":13145:13163   */\n      tag_307\n      tag_304\n      jump\t// in\n    tag_307:\n        /* \"#utility.yul\":13109:13111   */\n    tag_306:\n        /* \"#utility.yul\":13195:13199   */\n      0x20\n        /* \"#utility.yul\":13187:13193   */\n      dup3\n        /* \"#utility.yul\":13183:13200   */\n      mul\n        /* \"#utility.yul\":13175:13200   */\n      swap1\n      pop\n        /* \"#utility.yul\":13255:13259   */\n      0x20\n        /* \"#utility.yul\":13249:13253   */\n      dup2\n        /* \"#utility.yul\":13245:13260   */\n      add\n        /* \"#utility.yul\":13237:13260   */\n      swap1\n      pop\n        /* \"#utility.yul\":13038:13267   */\n      swap2\n      swap1\n      pop\n      jump\t// out\n        /* \"#utility.yul\":13273:13581   */\n    tag_152:\n      0x00\n        /* \"#utility.yul\":13425:13443   */\n      0xffffffffffffffff\n        /* \"#utility.yul\":13417:13423   */\n      dup3\n        /* \"#utility.yul\":13414:13444   */\n      gt\n        /* \"#utility.yul\":13411:13413   */\n      iszero\n      tag_309\n      jumpi\n        /* \"#utility.yul\":13447:13465   */\n      tag_310\n      tag_304\n      jump\t// in\n    tag_310:\n        /* \"#utility.yul\":13411:13413   */\n    tag_309:\n        /* \"#utility.yul\":13485:13514   */\n      tag_311\n        /* \"#utility.yul\":13507:13513   */\n      dup3\n        /* \"#utility.yul\":13485:13514   */\n      tag_249\n      jump\t// in\n    tag_311:\n        /* \"#utility.yul\":13477:13514   */\n      swap1\n      pop\n        /* \"#utility.yul\":13569:13573   */\n      0x20\n        /* \"#utility.yul\":13563:13567   */\n      dup2\n        /* \"#utility.yul\":13559:13574   */\n      add\n        /* \"#utility.yul\":13551:13574   */\n      swap1\n      pop\n        /* \"#utility.yul\":13340:13581   */\n      swap2\n      swap1\n      pop\n      jump\t// out\n        /* \"#utility.yul\":13587:13729   */\n    tag_212:\n      0x00\n        /* \"#utility.yul\":13687:13690   */\n      dup2\n        /* \"#utility.yul\":13679:13690   */\n      swap1\n      pop\n        /* \"#utility.yul\":13717:13721   */\n      0x20\n        /* \"#utility.yul\":13712:13715   */\n      dup3\n        /* \"#utility.yul\":13708:13722   */\n      add\n        /* \"#utility.yul\":13700:13722   */\n      swap1\n      pop\n        /* \"#utility.yul\":13669:13729   */\n      swap2\n      swap1\n      pop\n      jump\t// out\n        /* \"#utility.yul\":13735:13867   */\n    tag_226:\n      0x00\n        /* \"#utility.yul\":13825:13828   */\n      dup2\n        /* \"#utility.yul\":13817:13828   */\n      swap1\n      pop\n        /* \"#utility.yul\":13855:13859   */\n      0x20\n        /* \"#utility.yul\":13850:13853   */\n      dup3\n        /* \"#utility.yul\":13846:13860   */\n      add\n        /* \"#utility.yul\":13838:13860   */\n      swap1\n      pop\n        /* \"#utility.yul\":13807:13867   */\n      swap2\n      swap1\n      pop\n      jump\t// out\n        /* \"#utility.yul\":13873:13997   */\n    tag_208:\n      0x00\n        /* \"#utility.yul\":13984:13989   */\n      dup2\n        /* \"#utility.yul\":13978:13990   */\n      mload\n        /* \"#utility.yul\":13968:13990   */\n      swap1\n      pop\n        /* \"#utility.yul\":13957:13997   */\n      swap2\n      swap1\n      pop\n      jump\t// out\n        /* \"#utility.yul\":14003:14117   */\n    tag_222:\n      0x00\n        /* \"#utility.yul\":14104:14109   */\n      dup2\n        /* \"#utility.yul\":14098:14110   */\n      mload\n        /* \"#utility.yul\":14088:14110   */\n      swap1\n      pop\n        /* \"#utility.yul\":14077:14117   */\n      swap2\n      swap1\n      pop\n      jump\t// out\n        /* \"#utility.yul\":14123:14222   */\n    tag_243:\n      0x00\n        /* \"#utility.yul\":14209:14214   */\n      dup2\n        /* \"#utility.yul\":14203:14215   */\n      mload\n        /* \"#utility.yul\":14193:14215   */\n      swap1\n      pop\n        /* \"#utility.yul\":14182:14222   */\n      swap2\n      swap1\n      pop\n      jump\t// out\n        /* \"#utility.yul\":14228:14351   */\n    tag_218:\n      0x00\n        /* \"#utility.yul\":14340:14344   */\n      0x20\n        /* \"#utility.yul\":14335:14338   */\n      dup3\n        /* \"#utility.yul\":14331:14345   */\n      add\n        /* \"#utility.yul\":14323:14345   */\n      swap1\n      pop\n        /* \"#utility.yul\":14313:14351   */\n      swap2\n      swap1\n      pop\n      jump\t// out\n        /* \"#utility.yul\":14357:14470   */\n    tag_232:\n      0x00\n        /* \"#utility.yul\":14459:14463   */\n      0x20\n        /* \"#utility.yul\":14454:14457   */\n      dup3\n        /* \"#utility.yul\":14450:14464   */\n      add\n        /* \"#utility.yul\":14442:14464   */\n      swap1\n      pop\n        /* \"#utility.yul\":14432:14470   */\n      swap2\n      swap1\n      pop\n      jump\t// out\n        /* \"#utility.yul\":14476:14670   */\n    tag_210:\n      0x00\n        /* \"#utility.yul\":14619:14625   */\n      dup3\n        /* \"#utility.yul\":14614:14617   */\n      dup3\n        /* \"#utility.yul\":14607:14626   */\n      mstore\n        /* \"#utility.yul\":14659:14663   */\n      0x20\n        /* \"#utility.yul\":14654:14657   */\n      dup3\n        /* \"#utility.yul\":14650:14664   */\n      add\n        /* \"#utility.yul\":14635:14664   */\n      swap1\n      pop\n        /* \"#utility.yul\":14597:14670   */\n      swap3\n      swap2\n      pop\n      pop\n      jump\t// out\n        /* \"#utility.yul\":14676:14860   */\n    tag_224:\n      0x00\n        /* \"#utility.yul\":14809:14815   */\n      dup3\n        /* \"#utility.yul\":14804:14807   */\n      dup3\n        /* \"#utility.yul\":14797:14816   */\n      mstore\n        /* \"#utility.yul\":14849:14853   */\n      0x20\n        /* \"#utility.yul\":14844:14847   */\n      dup3\n        /* \"#utility.yul\":14840:14854   */\n      add\n        /* \"#utility.yul\":14825:14854   */\n      swap1\n      pop\n        /* \"#utility.yul\":14787:14860   */\n      swap3\n      swap2\n      pop\n      pop\n      jump\t// out\n        /* \"#utility.yul\":14866:15025   */\n    tag_245:\n      0x00\n        /* \"#utility.yul\":14974:14980   */\n      dup3\n        /* \"#utility.yul\":14969:14972   */\n      dup3\n        /* \"#utility.yul\":14962:14981   */\n      mstore\n        /* \"#utility.yul\":15014:15018   */\n      0x20\n        /* \"#utility.yul\":15009:15012   */\n      dup3\n        /* \"#utility.yul\":15005:15019   */\n      add\n        /* \"#utility.yul\":14990:15019   */\n      swap1\n      pop\n        /* \"#utility.yul\":14952:15025   */\n      swap3\n      swap2\n      pop\n      pop\n      jump\t// out\n        /* \"#utility.yul\":15031:15200   */\n    tag_253:\n      0x00\n        /* \"#utility.yul\":15149:15155   */\n      dup3\n        /* \"#utility.yul\":15144:15147   */\n      dup3\n        /* \"#utility.yul\":15137:15156   */\n      mstore\n        /* \"#utility.yul\":15189:15193   */\n      0x20\n        /* \"#utility.yul\":15184:15187   */\n      dup3\n        /* \"#utility.yul\":15180:15194   */\n      add\n        /* \"#utility.yul\":15165:15194   */\n      swap1\n      pop\n        /* \"#utility.yul\":15127:15200   */\n      swap3\n      swap2\n      pop\n      pop\n      jump\t// out\n        /* \"#utility.yul\":15206:15302   */\n    tag_204:\n      0x00\n        /* \"#utility.yul\":15272:15296   */\n      tag_324\n        /* \"#utility.yul\":15290:15295   */\n      dup3\n        /* \"#utility.yul\":15272:15296   */\n      tag_325\n      jump\t// in\n    tag_324:\n        /* \"#utility.yul\":15261:15296   */\n      swap1\n      pop\n        /* \"#utility.yul\":15251:15302   */\n      swap2\n      swap1\n      pop\n      jump\t// out\n        /* \"#utility.yul\":15308:15398   */\n    tag_236:\n      0x00\n        /* \"#utility.yul\":15385:15390   */\n      dup2\n        /* \"#utility.yul\":15378:15391   */\n      iszero\n        /* \"#utility.yul\":15371:15392   */\n      iszero\n        /* \"#utility.yul\":15360:15392   */\n      swap1\n      pop\n        /* \"#utility.yul\":15350:15398   */\n      swap2\n      swap1\n      pop\n      jump\t// out\n        /* \"#utility.yul\":15404:15530   */\n    tag_325:\n      0x00\n        /* \"#utility.yul\":15481:15523   */\n      0xffffffffffffffffffffffffffffffffffffffff\n        /* \"#utility.yul\":15474:15479   */\n      dup3\n        /* \"#utility.yul\":15470:15524   */\n      and\n        /* \"#utility.yul\":15459:15524   */\n      swap1\n      pop\n        /* \"#utility.yul\":15449:15530   */\n      swap2\n      swap1\n      pop\n      jump\t// out\n        /* \"#utility.yul\":15536:15613   */\n    tag_268:\n      0x00\n        /* \"#utility.yul\":15602:15607   */\n      dup2\n        /* \"#utility.yul\":15591:15607   */\n      swap1\n      pop\n        /* \"#utility.yul\":15581:15613   */\n      swap2\n      swap1\n      pop\n      jump\t// out\n        /* \"#utility.yul\":15619:15771   */\n    tag_240:\n      0x00\n        /* \"#utility.yul\":15715:15765   */\n      tag_330\n        /* \"#utility.yul\":15759:15764   */\n      dup3\n        /* \"#utility.yul\":15715:15765   */\n      tag_331\n      jump\t// in\n    tag_330:\n        /* \"#utility.yul\":15702:15765   */\n      swap1\n      pop\n        /* \"#utility.yul\":15692:15771   */\n      swap2\n      swap1\n      pop\n      jump\t// out\n        /* \"#utility.yul\":15777:15903   */\n    tag_331:\n      0x00\n        /* \"#utility.yul\":15873:15897   */\n      tag_333\n        /* \"#utility.yul\":15891:15896   */\n      dup3\n        /* \"#utility.yul\":15873:15897   */\n      tag_325\n      jump\t// in\n    tag_333:\n        /* \"#utility.yul\":15860:15897   */\n      swap1\n      pop\n        /* \"#utility.yul\":15850:15903   */\n      swap2\n      swap1\n      pop\n      jump\t// out\n        /* \"#utility.yul\":15909:16063   */\n    tag_155:\n        /* \"#utility.yul\":15993:15999   */\n      dup3\n        /* \"#utility.yul\":15988:15991   */\n      dup2\n        /* \"#utility.yul\":15983:15986   */\n      dup4\n        /* \"#utility.yul\":15970:16000   */\n      calldatacopy\n        /* \"#utility.yul\":16055:16056   */\n      0x00\n        /* \"#utility.yul\":16046:16052   */\n      dup4\n        /* \"#utility.yul\":16041:16044   */\n      dup4\n        /* \"#utility.yul\":16037:16053   */\n      add\n        /* \"#utility.yul\":16030:16057   */\n      mstore\n        /* \"#utility.yul\":15960:16063   */\n      pop\n      pop\n      pop\n      jump\t// out\n        /* \"#utility.yul\":16069:16376   */\n    tag_247:\n        /* \"#utility.yul\":16137:16138   */\n      0x00\n        /* \"#utility.yul\":16147:16260   */\n    tag_336:\n        /* \"#utility.yul\":16161:16167   */\n      dup4\n        /* \"#utility.yul\":16158:16159   */\n      dup2\n        /* \"#utility.yul\":16155:16168   */\n      lt\n        /* \"#utility.yul\":16147:16260   */\n      iszero\n      tag_338\n      jumpi\n        /* \"#utility.yul\":16246:16247   */\n      dup1\n        /* \"#utility.yul\":16241:16244   */\n      dup3\n        /* \"#utility.yul\":16237:16248   */\n      add\n        /* \"#utility.yul\":16231:16249   */\n      mload\n        /* \"#utility.yul\":16227:16228   */\n      dup2\n        /* \"#utility.yul\":16222:16225   */\n      dup5\n        /* \"#utility.yul\":16218:16229   */\n      add\n        /* \"#utility.yul\":16211:16250   */\n      mstore\n        /* \"#utility.yul\":16183:16185   */\n      0x20\n        /* \"#utility.yul\":16180:16181   */\n      dup2\n        /* \"#utility.yul\":16176:16186   */\n      add\n        /* \"#utility.yul\":16171:16186   */\n      swap1\n      pop\n        /* \"#utility.yul\":16147:16260   */\n      jump(tag_336)\n    tag_338:\n        /* \"#utility.yul\":16278:16284   */\n      dup4\n        /* \"#utility.yul\":16275:16276   */\n      dup2\n        /* \"#utility.yul\":16272:16285   */\n      gt\n        /* \"#utility.yul\":16269:16271   */\n      iszero\n      tag_339\n      jumpi\n        /* \"#utility.yul\":16358:16359   */\n      0x00\n        /* \"#utility.yul\":16349:16355   */\n      dup5\n        /* \"#utility.yul\":16344:16347   */\n      dup5\n        /* \"#utility.yul\":16340:16356   */\n      add\n        /* \"#utility.yul\":16333:16360   */\n      mstore\n        /* \"#utility.yul\":16269:16271   */\n    tag_339:\n        /* \"#utility.yul\":16118:16376   */\n      pop\n      pop\n      pop\n      pop\n      jump\t// out\n        /* \"#utility.yul\":16382:16663   */\n    tag_299:\n        /* \"#utility.yul\":16465:16492   */\n      tag_341\n        /* \"#utility.yul\":16487:16491   */\n      dup3\n        /* \"#utility.yul\":16465:16492   */\n      tag_249\n      jump\t// in\n    tag_341:\n        /* \"#utility.yul\":16457:16463   */\n      dup2\n        /* \"#utility.yul\":16453:16493   */\n      add\n        /* \"#utility.yul\":16595:16601   */\n      dup2\n        /* \"#utility.yul\":16583:16593   */\n      dup2\n        /* \"#utility.yul\":16580:16602   */\n      lt\n        /* \"#utility.yul\":16559:16577   */\n      0xffffffffffffffff\n        /* \"#utility.yul\":16547:16557   */\n      dup3\n        /* \"#utility.yul\":16544:16578   */\n      gt\n        /* \"#utility.yul\":16541:16603   */\n      or\n        /* \"#utility.yul\":16538:16540   */\n      iszero\n      tag_342\n      jumpi\n        /* \"#utility.yul\":16606:16624   */\n      tag_343\n      tag_304\n      jump\t// in\n    tag_343:\n        /* \"#utility.yul\":16538:16540   */\n    tag_342:\n        /* \"#utility.yul\":16646:16656   */\n      dup1\n        /* \"#utility.yul\":16642:16644   */\n      0x40\n        /* \"#utility.yul\":16635:16657   */\n      mstore\n        /* \"#utility.yul\":16425:16663   */\n      pop\n      pop\n      pop\n      jump\t// out\n        /* \"#utility.yul\":16669:16849   */\n    tag_304:\n        /* \"#utility.yul\":16717:16794   */\n      0x4e487b7100000000000000000000000000000000000000000000000000000000\n        /* \"#utility.yul\":16714:16715   */\n      0x00\n        /* \"#utility.yul\":16707:16795   */\n      mstore\n        /* \"#utility.yul\":16814:16818   */\n      0x41\n        /* \"#utility.yul\":16811:16812   */\n      0x04\n        /* \"#utility.yul\":16804:16819   */\n      mstore\n        /* \"#utility.yul\":16838:16842   */\n      0x24\n        /* \"#utility.yul\":16835:16836   */\n      0x00\n        /* \"#utility.yul\":16828:16843   */\n      revert\n        /* \"#utility.yul\":16855:16957   */\n    tag_249:\n      0x00\n        /* \"#utility.yul\":16947:16949   */\n      0x1f\n        /* \"#utility.yul\":16943:16950   */\n      not\n        /* \"#utility.yul\":16938:16940   */\n      0x1f\n        /* \"#utility.yul\":16931:16936   */\n      dup4\n        /* \"#utility.yul\":16927:16941   */\n      add\n        /* \"#utility.yul\":16923:16951   */\n      and\n        /* \"#utility.yul\":16913:16951   */\n      swap1\n      pop\n        /* \"#utility.yul\":16903:16957   */\n      swap2\n      swap1\n      pop\n      jump\t// out\n        /* \"#utility.yul\":16963:17188   */\n    tag_255:\n        /* \"#utility.yul\":17103:17137   */\n      0x4f776e61626c653a206e6577206f776e657220697320746865207a65726f2061\n        /* \"#utility.yul\":17099:17100   */\n      0x00\n        /* \"#utility.yul\":17091:17097   */\n      dup3\n        /* \"#utility.yul\":17087:17101   */\n      add\n        /* \"#utility.yul\":17080:17138   */\n      mstore\n        /* \"#utility.yul\":17172:17180   */\n      0x6464726573730000000000000000000000000000000000000000000000000000\n        /* \"#utility.yul\":17167:17169   */\n      0x20\n        /* \"#utility.yul\":17159:17165   */\n      dup3\n        /* \"#utility.yul\":17155:17170   */\n      add\n        /* \"#utility.yul\":17148:17181   */\n      mstore\n        /* \"#utility.yul\":17069:17188   */\n      pop\n      jump\t// out\n        /* \"#utility.yul\":17194:17376   */\n    tag_260:\n        /* \"#utility.yul\":17334:17368   */\n      0x4f776e61626c653a2063616c6c6572206973206e6f7420746865206f776e6572\n        /* \"#utility.yul\":17330:17331   */\n      0x00\n        /* \"#utility.yul\":17322:17328   */\n      dup3\n        /* \"#utility.yul\":17318:17332   */\n      add\n        /* \"#utility.yul\":17311:17369   */\n      mstore\n        /* \"#utility.yul\":17300:17376   */\n      pop\n      jump\t// out\n        /* \"#utility.yul\":17382:17612   */\n    tag_265:\n        /* \"#utility.yul\":17522:17556   */\n      0x616d6f756e74207472616e73666572726564206d757374206265206120706f73\n        /* \"#utility.yul\":17518:17519   */\n      0x00\n        /* \"#utility.yul\":17510:17516   */\n      dup3\n        /* \"#utility.yul\":17506:17520   */\n      add\n        /* \"#utility.yul\":17499:17557   */\n      mstore\n        /* \"#utility.yul\":17591:17604   */\n      0x69746976652076616c7565000000000000000000000000000000000000000000\n        /* \"#utility.yul\":17586:17588   */\n      0x20\n        /* \"#utility.yul\":17578:17584   */\n      dup3\n        /* \"#utility.yul\":17574:17589   */\n      add\n        /* \"#utility.yul\":17567:17605   */\n      mstore\n        /* \"#utility.yul\":17488:17612   */\n      pop\n      jump\t// out\n        /* \"#utility.yul\":17618:17740   */\n    tag_159:\n        /* \"#utility.yul\":17691:17715   */\n      tag_350\n        /* \"#utility.yul\":17709:17714   */\n      dup2\n        /* \"#utility.yul\":17691:17715   */\n      tag_204\n      jump\t// in\n    tag_350:\n        /* \"#utility.yul\":17684:17689   */\n      dup2\n        /* \"#utility.yul\":17681:17716   */\n      eq\n        /* \"#utility.yul\":17671:17673   */\n      tag_351\n      jumpi\n        /* \"#utility.yul\":17730:17731   */\n      0x00\n        /* \"#utility.yul\":17727:17728   */\n      dup1\n        /* \"#utility.yul\":17720:17732   */\n      revert\n        /* \"#utility.yul\":17671:17673   */\n    tag_351:\n        /* \"#utility.yul\":17661:17740   */\n      pop\n      jump\t// out\n        /* \"#utility.yul\":17746:17862   */\n    tag_171:\n        /* \"#utility.yul\":17816:17837   */\n      tag_353\n        /* \"#utility.yul\":17831:17836   */\n      dup2\n        /* \"#utility.yul\":17816:17837   */\n      tag_236\n      jump\t// in\n    tag_353:\n        /* \"#utility.yul\":17809:17814   */\n      dup2\n        /* \"#utility.yul\":17806:17838   */\n      eq\n        /* \"#utility.yul\":17796:17798   */\n      tag_354\n      jumpi\n        /* \"#utility.yul\":17852:17853   */\n      0x00\n        /* \"#utility.yul\":17849:17850   */\n      dup1\n        /* \"#utility.yul\":17842:17854   */\n      revert\n        /* \"#utility.yul\":17796:17798   */\n    tag_354:\n        /* \"#utility.yul\":17786:17862   */\n      pop\n      jump\t// out\n        /* \"#utility.yul\":17868:17990   */\n    tag_177:\n        /* \"#utility.yul\":17941:17965   */\n      tag_356\n        /* \"#utility.yul\":17959:17964   */\n      dup2\n        /* \"#utility.yul\":17941:17965   */\n      tag_268\n      jump\t// in\n    tag_356:\n        /* \"#utility.yul\":17934:17939   */\n      dup2\n        /* \"#utility.yul\":17931:17966   */\n      eq\n        /* \"#utility.yul\":17921:17923   */\n      tag_357\n      jumpi\n        /* \"#utility.yul\":17980:17981   */\n      0x00\n        /* \"#utility.yul\":17977:17978   */\n      dup1\n        /* \"#utility.yul\":17970:17982   */\n      revert\n        /* \"#utility.yul\":17921:17923   */\n    tag_357:\n        /* \"#utility.yul\":17911:17990   */\n      pop\n      jump\t// out\n\n    auxdata: 0xa2646970667358221220051bab251632272c9db94edf6c9a614c108a1b8294079c3140ed34e3b937706364736f6c63430008010033\n}\n",
				"bytecode": {
					"linkReferences": {},
					"object": "60806040526370dc4900600455600a600655600160075560405180606001604052806127108152602001428152602001600015158152506008600082015181600001556020820151816001015560408201518160020160006101000a81548160ff021916908315150217905550505034801561007a57600080fd5b5061009761008c6100f160201b60201c565b6100f960201b60201c565b73e11a86849d99f524cac3e7a0ec1241828e332c62600260006101000a81548173ffffffffffffffffffffffffffffffffffffffff021916908373ffffffffffffffffffffffffffffffffffffffff1602179055506101bd565b600033905090565b60008060009054906101000a900473ffffffffffffffffffffffffffffffffffffffff169050816000806101000a81548173ffffffffffffffffffffffffffffffffffffffff021916908373ffffffffffffffffffffffffffffffffffffffff1602179055508173ffffffffffffffffffffffffffffffffffffffff168173ffffffffffffffffffffffffffffffffffffffff167f8be0079c531659141344cd1fd0a4f28419497f9722a3daafe3b4186f6b6457e060405160405180910390a35050565b6112d1806101cc6000396000f3fe608060405234801561001057600080fd5b50600436106100b45760003560e01c8063944044a111610071578063944044a114610155578063a99c68c514610171578063b79d283f146101a1578063c0463711146101bd578063f121da92146101dd578063f2fde38b146101f9576100b4565b806311ce0267146100b957806311eac855146100d757806351ed8288146100f557806351f7598c14610111578063715018a61461012d5780638da5cb5b14610137575b600080fd5b6100c1610215565b6040516100ce9190610dcd565b60405180910390f35b6100df61023b565b6040516100ec9190610e56565b60405180910390f35b61010f600480360381019061010a9190610bb8565b610261565b005b61012b60048036038101906101269190610afa565b61026d565b005b61013561032d565b005b61013f6103b5565b60405161014c9190610dcd565b60405180910390f35b61016f600480360381019061016a9190610bb8565b6103de565b005b61018b60048036038101906101869190610afa565b610464565b6040516101989190610ed1565b60405180910390f35b6101bb60048036038101906101b69190610bb8565b61047c565b005b6101c5610502565b6040516101d493929190610eec565b60405180910390f35b6101f760048036038101906101f29190610b23565b610527565b005b610213600480360381019061020e9190610afa565b610636565b005b600160009054906101000a900473ffffffffffffffffffffffffffffffffffffffff1681565b600260009054906101000a900473ffffffffffffffffffffffffffffffffffffffff1681565b61026a8161072e565b50565b61027561086a565b73ffffffffffffffffffffffffffffffffffffffff166102936103b5565b73ffffffffffffffffffffffffffffffffffffffff16146102e9576040517f08c379a00000000000000000000000000000000000000000000000000000000081526004016102e090610e91565b60405180910390fd5b80600160006101000a81548173ffffffffffffffffffffffffffffffffffffffff021916908373ffffffffffffffffffffffffffffffffffffffff16021790555050565b61033561086a565b73ffffffffffffffffffffffffffffffffffffffff166103536103b5565b73ffffffffffffffffffffffffffffffffffffffff16146103a9576040517f08c379a00000000000000000000000000000000000000000000000000000000081526004016103a090610e91565b60405180910390fd5b6103b36000610872565b565b60008060009054906101000a900473ffffffffffffffffffffffffffffffffffffffff16905090565b6103e661086a565b73ffffffffffffffffffffffffffffffffffffffff166104046103b5565b73ffffffffffffffffffffffffffffffffffffffff161461045a576040517f08c379a000000000000000000000000000000000000000000000000000000000815260040161045190610e91565b60405180910390fd5b8060048190555050565b60036020528060005260406000206000915090505481565b61048461086a565b73ffffffffffffffffffffffffffffffffffffffff166104a26103b5565b73ffffffffffffffffffffffffffffffffffffffff16146104f8576040517f08c379a00000000000000000000000000000000000000000000000000000000081526004016104ef90610e91565b60405180910390fd5b8060058190555050565b60088060000154908060010154908060020160009054906101000a900460ff16905083565b61052f61086a565b73ffffffffffffffffffffffffffffffffffffffff1661054d6103b5565b73ffffffffffffffffffffffffffffffffffffffff16146105a3576040517f08c379a000000000000000000000000000000000000000000000000000000000815260040161059a90610e91565b60405180910390fd5b600160009054906101000a900473ffffffffffffffffffffffffffffffffffffffff1673ffffffffffffffffffffffffffffffffffffffff1663f121da9283836040518363ffffffff1660e01b8152600401610600929190610e1f565b600060405180830381600087803b15801561061a57600080fd5b505af115801561062e573d6000803e3d6000fd5b505050505050565b61063e61086a565b73ffffffffffffffffffffffffffffffffffffffff1661065c6103b5565b73ffffffffffffffffffffffffffffffffffffffff16146106b2576040517f08c379a00000000000000000000000000000000000000000000000000000000081526004016106a990610e91565b60405180910390fd5b600073ffffffffffffffffffffffffffffffffffffffff168173ffffffffffffffffffffffffffffffffffffffff161415610722576040517f08c379a000000000000000000000000000000000000000000000000000000000815260040161071990610e71565b60405180910390fd5b61072b81610872565b50565b60008111610771576040517f08c379a000000000000000000000000000000000000000000000000000000000815260040161076890610eb1565b60405180910390fd5b600260009054906101000a900473ffffffffffffffffffffffffffffffffffffffff1673ffffffffffffffffffffffffffffffffffffffff166323b872dd3330846040518463ffffffff1660e01b81526004016107d093929190610de8565b602060405180830381600087803b1580156107ea57600080fd5b505af11580156107fe573d6000803e3d6000fd5b505050506040513d601f19601f820116820180604052508101906108229190610b8f565b5080600360003373ffffffffffffffffffffffffffffffffffffffff1673ffffffffffffffffffffffffffffffffffffffff1681526020019081526020016000208190555050565b600033905090565b60008060009054906101000a900473ffffffffffffffffffffffffffffffffffffffff169050816000806101000a81548173ffffffffffffffffffffffffffffffffffffffff021916908373ffffffffffffffffffffffffffffffffffffffff1602179055508173ffffffffffffffffffffffffffffffffffffffff168173ffffffffffffffffffffffffffffffffffffffff167f8be0079c531659141344cd1fd0a4f28419497f9722a3daafe3b4186f6b6457e060405160405180910390a35050565b600061094961094484610f48565b610f23565b9050808382526020820190508260005b85811015610989578135850161096f8882610abb565b845260208401935060208301925050600181019050610959565b5050509392505050565b60006109a66109a184610f74565b610f23565b905080838252602082019050828560208602820111156109c557600080fd5b60005b858110156109f557816109db8882610ae5565b8452602084019350602083019250506001810190506109c8565b5050509392505050565b6000610a12610a0d84610fa0565b610f23565b905082815260208101848484011115610a2a57600080fd5b610a358482856110dc565b509392505050565b600081359050610a4c81611256565b92915050565b600082601f830112610a6357600080fd5b8135610a73848260208601610936565b91505092915050565b600082601f830112610a8d57600080fd5b8135610a9d848260208601610993565b91505092915050565b600081519050610ab58161126d565b92915050565b600082601f830112610acc57600080fd5b8135610adc8482602086016109ff565b91505092915050565b600081359050610af481611284565b92915050565b600060208284031215610b0c57600080fd5b6000610b1a84828501610a3d565b91505092915050565b60008060408385031215610b3657600080fd5b600083013567ffffffffffffffff811115610b5057600080fd5b610b5c85828601610a7c565b925050602083013567ffffffffffffffff811115610b7957600080fd5b610b8585828601610a52565b9150509250929050565b600060208284031215610ba157600080fd5b6000610baf84828501610aa6565b91505092915050565b600060208284031215610bca57600080fd5b6000610bd884828501610ae5565b91505092915050565b6000610bed8383610d0d565b905092915050565b6000610c018383610daf565b60208301905092915050565b610c1681611070565b82525050565b6000610c2782610ff1565b610c31818561102c565b935083602082028501610c4385610fd1565b8060005b85811015610c7f5784840389528151610c608582610be1565b9450610c6b83611012565b925060208a01995050600181019050610c47565b50829750879550505050505092915050565b6000610c9c82610ffc565b610ca6818561103d565b9350610cb183610fe1565b8060005b83811015610ce2578151610cc98882610bf5565b9750610cd48361101f565b925050600181019050610cb5565b5085935050505092915050565b610cf881611082565b82525050565b610d07816110b8565b82525050565b6000610d1882611007565b610d22818561104e565b9350610d328185602086016110eb565b610d3b8161117e565b840191505092915050565b6000610d5360268361105f565b9150610d5e8261118f565b604082019050919050565b6000610d7660208361105f565b9150610d81826111de565b602082019050919050565b6000610d99602b8361105f565b9150610da482611207565b604082019050919050565b610db8816110ae565b82525050565b610dc7816110ae565b82525050565b6000602082019050610de26000830184610c0d565b92915050565b6000606082019050610dfd6000830186610c0d565b610e0a6020830185610c0d565b610e176040830184610dbe565b949350505050565b60006040820190508181036000830152610e398185610c91565b90508181036020830152610e4d8184610c1c565b90509392505050565b6000602082019050610e6b6000830184610cfe565b92915050565b60006020820190508181036000830152610e8a81610d46565b9050919050565b60006020820190508181036000830152610eaa81610d69565b9050919050565b60006020820190508181036000830152610eca81610d8c565b9050919050565b6000602082019050610ee66000830184610dbe565b92915050565b6000606082019050610f016000830186610dbe565b610f0e6020830185610dbe565b610f1b6040830184610cef565b949350505050565b6000610f2d610f3e565b9050610f39828261111e565b919050565b6000604051905090565b600067ffffffffffffffff821115610f6357610f6261114f565b5b602082029050602081019050919050565b600067ffffffffffffffff821115610f8f57610f8e61114f565b5b602082029050602081019050919050565b600067ffffffffffffffff821115610fbb57610fba61114f565b5b610fc48261117e565b9050602081019050919050565b6000819050602082019050919050565b6000819050602082019050919050565b600081519050919050565b600081519050919050565b600081519050919050565b6000602082019050919050565b6000602082019050919050565b600082825260208201905092915050565b600082825260208201905092915050565b600082825260208201905092915050565b600082825260208201905092915050565b600061107b8261108e565b9050919050565b60008115159050919050565b600073ffffffffffffffffffffffffffffffffffffffff82169050919050565b6000819050919050565b60006110c3826110ca565b9050919050565b60006110d58261108e565b9050919050565b82818337600083830152505050565b60005b838110156111095780820151818401526020810190506110ee565b83811115611118576000848401525b50505050565b6111278261117e565b810181811067ffffffffffffffff821117156111465761114561114f565b5b80604052505050565b7f4e487b7100000000000000000000000000000000000000000000000000000000600052604160045260246000fd5b6000601f19601f8301169050919050565b7f4f776e61626c653a206e6577206f776e657220697320746865207a65726f206160008201527f6464726573730000000000000000000000000000000000000000000000000000602082015250565b7f4f776e61626c653a2063616c6c6572206973206e6f7420746865206f776e6572600082015250565b7f616d6f756e74207472616e73666572726564206d757374206265206120706f7360008201527f69746976652076616c7565000000000000000000000000000000000000000000602082015250565b61125f81611070565b811461126a57600080fd5b50565b61127681611082565b811461128157600080fd5b50565b61128d816110ae565b811461129857600080fd5b5056fea2646970667358221220051bab251632272c9db94edf6c9a614c108a1b8294079c3140ed34e3b937706364736f6c63430008010033",
					"opcodes": "PUSH1 0x80 PUSH1 0x40 MSTORE PUSH4 0x70DC4900 PUSH1 0x4 SSTORE PUSH1 0xA PUSH1 0x6 SSTORE PUSH1 0x1 PUSH1 0x7 SSTORE PUSH1 0x40 MLOAD DUP1 PUSH1 0x60 ADD PUSH1 0x40 MSTORE DUP1 PUSH2 0x2710 DUP2 MSTORE PUSH1 0x20 ADD TIMESTAMP DUP2 MSTORE PUSH1 0x20 ADD PUSH1 0x0 ISZERO ISZERO DUP2 MSTORE POP PUSH1 0x8 PUSH1 0x0 DUP3 ADD MLOAD DUP2 PUSH1 0x0 ADD SSTORE PUSH1 0x20 DUP3 ADD MLOAD DUP2 PUSH1 0x1 ADD SSTORE PUSH1 0x40 DUP3 ADD MLOAD DUP2 PUSH1 0x2 ADD PUSH1 0x0 PUSH2 0x100 EXP DUP2 SLOAD DUP2 PUSH1 0xFF MUL NOT AND SWAP1 DUP4 ISZERO ISZERO MUL OR SWAP1 SSTORE POP POP POP CALLVALUE DUP1 ISZERO PUSH2 0x7A JUMPI PUSH1 0x0 DUP1 REVERT JUMPDEST POP PUSH2 0x97 PUSH2 0x8C PUSH2 0xF1 PUSH1 0x20 SHL PUSH1 0x20 SHR JUMP JUMPDEST PUSH2 0xF9 PUSH1 0x20 SHL PUSH1 0x20 SHR JUMP JUMPDEST PUSH20 0xE11A86849D99F524CAC3E7A0EC1241828E332C62 PUSH1 0x2 PUSH1 0x0 PUSH2 0x100 EXP DUP2 SLOAD DUP2 PUSH20 0xFFFFFFFFFFFFFFFFFFFFFFFFFFFFFFFFFFFFFFFF MUL NOT AND SWAP1 DUP4 PUSH20 0xFFFFFFFFFFFFFFFFFFFFFFFFFFFFFFFFFFFFFFFF AND MUL OR SWAP1 SSTORE POP PUSH2 0x1BD JUMP JUMPDEST PUSH1 0x0 CALLER SWAP1 POP SWAP1 JUMP JUMPDEST PUSH1 0x0 DUP1 PUSH1 0x0 SWAP1 SLOAD SWAP1 PUSH2 0x100 EXP SWAP1 DIV PUSH20 0xFFFFFFFFFFFFFFFFFFFFFFFFFFFFFFFFFFFFFFFF AND SWAP1 POP DUP2 PUSH1 0x0 DUP1 PUSH2 0x100 EXP DUP2 SLOAD DUP2 PUSH20 0xFFFFFFFFFFFFFFFFFFFFFFFFFFFFFFFFFFFFFFFF MUL NOT AND SWAP1 DUP4 PUSH20 0xFFFFFFFFFFFFFFFFFFFFFFFFFFFFFFFFFFFFFFFF AND MUL OR SWAP1 SSTORE POP DUP2 PUSH20 0xFFFFFFFFFFFFFFFFFFFFFFFFFFFFFFFFFFFFFFFF AND DUP2 PUSH20 0xFFFFFFFFFFFFFFFFFFFFFFFFFFFFFFFFFFFFFFFF AND PUSH32 0x8BE0079C531659141344CD1FD0A4F28419497F9722A3DAAFE3B4186F6B6457E0 PUSH1 0x40 MLOAD PUSH1 0x40 MLOAD DUP1 SWAP2 SUB SWAP1 LOG3 POP POP JUMP JUMPDEST PUSH2 0x12D1 DUP1 PUSH2 0x1CC PUSH1 0x0 CODECOPY PUSH1 0x0 RETURN INVALID PUSH1 0x80 PUSH1 0x40 MSTORE CALLVALUE DUP1 ISZERO PUSH2 0x10 JUMPI PUSH1 0x0 DUP1 REVERT JUMPDEST POP PUSH1 0x4 CALLDATASIZE LT PUSH2 0xB4 JUMPI PUSH1 0x0 CALLDATALOAD PUSH1 0xE0 SHR DUP1 PUSH4 0x944044A1 GT PUSH2 0x71 JUMPI DUP1 PUSH4 0x944044A1 EQ PUSH2 0x155 JUMPI DUP1 PUSH4 0xA99C68C5 EQ PUSH2 0x171 JUMPI DUP1 PUSH4 0xB79D283F EQ PUSH2 0x1A1 JUMPI DUP1 PUSH4 0xC0463711 EQ PUSH2 0x1BD JUMPI DUP1 PUSH4 0xF121DA92 EQ PUSH2 0x1DD JUMPI DUP1 PUSH4 0xF2FDE38B EQ PUSH2 0x1F9 JUMPI PUSH2 0xB4 JUMP JUMPDEST DUP1 PUSH4 0x11CE0267 EQ PUSH2 0xB9 JUMPI DUP1 PUSH4 0x11EAC855 EQ PUSH2 0xD7 JUMPI DUP1 PUSH4 0x51ED8288 EQ PUSH2 0xF5 JUMPI DUP1 PUSH4 0x51F7598C EQ PUSH2 0x111 JUMPI DUP1 PUSH4 0x715018A6 EQ PUSH2 0x12D JUMPI DUP1 PUSH4 0x8DA5CB5B EQ PUSH2 0x137 JUMPI JUMPDEST PUSH1 0x0 DUP1 REVERT JUMPDEST PUSH2 0xC1 PUSH2 0x215 JUMP JUMPDEST PUSH1 0x40 MLOAD PUSH2 0xCE SWAP2 SWAP1 PUSH2 0xDCD JUMP JUMPDEST PUSH1 0x40 MLOAD DUP1 SWAP2 SUB SWAP1 RETURN JUMPDEST PUSH2 0xDF PUSH2 0x23B JUMP JUMPDEST PUSH1 0x40 MLOAD PUSH2 0xEC SWAP2 SWAP1 PUSH2 0xE56 JUMP JUMPDEST PUSH1 0x40 MLOAD DUP1 SWAP2 SUB SWAP1 RETURN JUMPDEST PUSH2 0x10F PUSH1 0x4 DUP1 CALLDATASIZE SUB DUP2 ADD SWAP1 PUSH2 0x10A SWAP2 SWAP1 PUSH2 0xBB8 JUMP JUMPDEST PUSH2 0x261 JUMP JUMPDEST STOP JUMPDEST PUSH2 0x12B PUSH1 0x4 DUP1 CALLDATASIZE SUB DUP2 ADD SWAP1 PUSH2 0x126 SWAP2 SWAP1 PUSH2 0xAFA JUMP JUMPDEST PUSH2 0x26D JUMP JUMPDEST STOP JUMPDEST PUSH2 0x135 PUSH2 0x32D JUMP JUMPDEST STOP JUMPDEST PUSH2 0x13F PUSH2 0x3B5 JUMP JUMPDEST PUSH1 0x40 MLOAD PUSH2 0x14C SWAP2 SWAP1 PUSH2 0xDCD JUMP JUMPDEST PUSH1 0x40 MLOAD DUP1 SWAP2 SUB SWAP1 RETURN JUMPDEST PUSH2 0x16F PUSH1 0x4 DUP1 CALLDATASIZE SUB DUP2 ADD SWAP1 PUSH2 0x16A SWAP2 SWAP1 PUSH2 0xBB8 JUMP JUMPDEST PUSH2 0x3DE JUMP JUMPDEST STOP JUMPDEST PUSH2 0x18B PUSH1 0x4 DUP1 CALLDATASIZE SUB DUP2 ADD SWAP1 PUSH2 0x186 SWAP2 SWAP1 PUSH2 0xAFA JUMP JUMPDEST PUSH2 0x464 JUMP JUMPDEST PUSH1 0x40 MLOAD PUSH2 0x198 SWAP2 SWAP1 PUSH2 0xED1 JUMP JUMPDEST PUSH1 0x40 MLOAD DUP1 SWAP2 SUB SWAP1 RETURN JUMPDEST PUSH2 0x1BB PUSH1 0x4 DUP1 CALLDATASIZE SUB DUP2 ADD SWAP1 PUSH2 0x1B6 SWAP2 SWAP1 PUSH2 0xBB8 JUMP JUMPDEST PUSH2 0x47C JUMP JUMPDEST STOP JUMPDEST PUSH2 0x1C5 PUSH2 0x502 JUMP JUMPDEST PUSH1 0x40 MLOAD PUSH2 0x1D4 SWAP4 SWAP3 SWAP2 SWAP1 PUSH2 0xEEC JUMP JUMPDEST PUSH1 0x40 MLOAD DUP1 SWAP2 SUB SWAP1 RETURN JUMPDEST PUSH2 0x1F7 PUSH1 0x4 DUP1 CALLDATASIZE SUB DUP2 ADD SWAP1 PUSH2 0x1F2 SWAP2 SWAP1 PUSH2 0xB23 JUMP JUMPDEST PUSH2 0x527 JUMP JUMPDEST STOP JUMPDEST PUSH2 0x213 PUSH1 0x4 DUP1 CALLDATASIZE SUB DUP2 ADD SWAP1 PUSH2 0x20E SWAP2 SWAP1 PUSH2 0xAFA JUMP JUMPDEST PUSH2 0x636 JUMP JUMPDEST STOP JUMPDEST PUSH1 0x1 PUSH1 0x0 SWAP1 SLOAD SWAP1 PUSH2 0x100 EXP SWAP1 DIV PUSH20 0xFFFFFFFFFFFFFFFFFFFFFFFFFFFFFFFFFFFFFFFF AND DUP2 JUMP JUMPDEST PUSH1 0x2 PUSH1 0x0 SWAP1 SLOAD SWAP1 PUSH2 0x100 EXP SWAP1 DIV PUSH20 0xFFFFFFFFFFFFFFFFFFFFFFFFFFFFFFFFFFFFFFFF AND DUP2 JUMP JUMPDEST PUSH2 0x26A DUP2 PUSH2 0x72E JUMP JUMPDEST POP JUMP JUMPDEST PUSH2 0x275 PUSH2 0x86A JUMP JUMPDEST PUSH20 0xFFFFFFFFFFFFFFFFFFFFFFFFFFFFFFFFFFFFFFFF AND PUSH2 0x293 PUSH2 0x3B5 JUMP JUMPDEST PUSH20 0xFFFFFFFFFFFFFFFFFFFFFFFFFFFFFFFFFFFFFFFF AND EQ PUSH2 0x2E9 JUMPI PUSH1 0x40 MLOAD PUSH32 0x8C379A000000000000000000000000000000000000000000000000000000000 DUP2 MSTORE PUSH1 0x4 ADD PUSH2 0x2E0 SWAP1 PUSH2 0xE91 JUMP JUMPDEST PUSH1 0x40 MLOAD DUP1 SWAP2 SUB SWAP1 REVERT JUMPDEST DUP1 PUSH1 0x1 PUSH1 0x0 PUSH2 0x100 EXP DUP2 SLOAD DUP2 PUSH20 0xFFFFFFFFFFFFFFFFFFFFFFFFFFFFFFFFFFFFFFFF MUL NOT AND SWAP1 DUP4 PUSH20 0xFFFFFFFFFFFFFFFFFFFFFFFFFFFFFFFFFFFFFFFF AND MUL OR SWAP1 SSTORE POP POP JUMP JUMPDEST PUSH2 0x335 PUSH2 0x86A JUMP JUMPDEST PUSH20 0xFFFFFFFFFFFFFFFFFFFFFFFFFFFFFFFFFFFFFFFF AND PUSH2 0x353 PUSH2 0x3B5 JUMP JUMPDEST PUSH20 0xFFFFFFFFFFFFFFFFFFFFFFFFFFFFFFFFFFFFFFFF AND EQ PUSH2 0x3A9 JUMPI PUSH1 0x40 MLOAD PUSH32 0x8C379A000000000000000000000000000000000000000000000000000000000 DUP2 MSTORE PUSH1 0x4 ADD PUSH2 0x3A0 SWAP1 PUSH2 0xE91 JUMP JUMPDEST PUSH1 0x40 MLOAD DUP1 SWAP2 SUB SWAP1 REVERT JUMPDEST PUSH2 0x3B3 PUSH1 0x0 PUSH2 0x872 JUMP JUMPDEST JUMP JUMPDEST PUSH1 0x0 DUP1 PUSH1 0x0 SWAP1 SLOAD SWAP1 PUSH2 0x100 EXP SWAP1 DIV PUSH20 0xFFFFFFFFFFFFFFFFFFFFFFFFFFFFFFFFFFFFFFFF AND SWAP1 POP SWAP1 JUMP JUMPDEST PUSH2 0x3E6 PUSH2 0x86A JUMP JUMPDEST PUSH20 0xFFFFFFFFFFFFFFFFFFFFFFFFFFFFFFFFFFFFFFFF AND PUSH2 0x404 PUSH2 0x3B5 JUMP JUMPDEST PUSH20 0xFFFFFFFFFFFFFFFFFFFFFFFFFFFFFFFFFFFFFFFF AND EQ PUSH2 0x45A JUMPI PUSH1 0x40 MLOAD PUSH32 0x8C379A000000000000000000000000000000000000000000000000000000000 DUP2 MSTORE PUSH1 0x4 ADD PUSH2 0x451 SWAP1 PUSH2 0xE91 JUMP JUMPDEST PUSH1 0x40 MLOAD DUP1 SWAP2 SUB SWAP1 REVERT JUMPDEST DUP1 PUSH1 0x4 DUP2 SWAP1 SSTORE POP POP JUMP JUMPDEST PUSH1 0x3 PUSH1 0x20 MSTORE DUP1 PUSH1 0x0 MSTORE PUSH1 0x40 PUSH1 0x0 KECCAK256 PUSH1 0x0 SWAP2 POP SWAP1 POP SLOAD DUP2 JUMP JUMPDEST PUSH2 0x484 PUSH2 0x86A JUMP JUMPDEST PUSH20 0xFFFFFFFFFFFFFFFFFFFFFFFFFFFFFFFFFFFFFFFF AND PUSH2 0x4A2 PUSH2 0x3B5 JUMP JUMPDEST PUSH20 0xFFFFFFFFFFFFFFFFFFFFFFFFFFFFFFFFFFFFFFFF AND EQ PUSH2 0x4F8 JUMPI PUSH1 0x40 MLOAD PUSH32 0x8C379A000000000000000000000000000000000000000000000000000000000 DUP2 MSTORE PUSH1 0x4 ADD PUSH2 0x4EF SWAP1 PUSH2 0xE91 JUMP JUMPDEST PUSH1 0x40 MLOAD DUP1 SWAP2 SUB SWAP1 REVERT JUMPDEST DUP1 PUSH1 0x5 DUP2 SWAP1 SSTORE POP POP JUMP JUMPDEST PUSH1 0x8 DUP1 PUSH1 0x0 ADD SLOAD SWAP1 DUP1 PUSH1 0x1 ADD SLOAD SWAP1 DUP1 PUSH1 0x2 ADD PUSH1 0x0 SWAP1 SLOAD SWAP1 PUSH2 0x100 EXP SWAP1 DIV PUSH1 0xFF AND SWAP1 POP DUP4 JUMP JUMPDEST PUSH2 0x52F PUSH2 0x86A JUMP JUMPDEST PUSH20 0xFFFFFFFFFFFFFFFFFFFFFFFFFFFFFFFFFFFFFFFF AND PUSH2 0x54D PUSH2 0x3B5 JUMP JUMPDEST PUSH20 0xFFFFFFFFFFFFFFFFFFFFFFFFFFFFFFFFFFFFFFFF AND EQ PUSH2 0x5A3 JUMPI PUSH1 0x40 MLOAD PUSH32 0x8C379A000000000000000000000000000000000000000000000000000000000 DUP2 MSTORE PUSH1 0x4 ADD PUSH2 0x59A SWAP1 PUSH2 0xE91 JUMP JUMPDEST PUSH1 0x40 MLOAD DUP1 SWAP2 SUB SWAP1 REVERT JUMPDEST PUSH1 0x1 PUSH1 0x0 SWAP1 SLOAD SWAP1 PUSH2 0x100 EXP SWAP1 DIV PUSH20 0xFFFFFFFFFFFFFFFFFFFFFFFFFFFFFFFFFFFFFFFF AND PUSH20 0xFFFFFFFFFFFFFFFFFFFFFFFFFFFFFFFFFFFFFFFF AND PUSH4 0xF121DA92 DUP4 DUP4 PUSH1 0x40 MLOAD DUP4 PUSH4 0xFFFFFFFF AND PUSH1 0xE0 SHL DUP2 MSTORE PUSH1 0x4 ADD PUSH2 0x600 SWAP3 SWAP2 SWAP1 PUSH2 0xE1F JUMP JUMPDEST PUSH1 0x0 PUSH1 0x40 MLOAD DUP1 DUP4 SUB DUP2 PUSH1 0x0 DUP8 DUP1 EXTCODESIZE ISZERO DUP1 ISZERO PUSH2 0x61A JUMPI PUSH1 0x0 DUP1 REVERT JUMPDEST POP GAS CALL ISZERO DUP1 ISZERO PUSH2 0x62E JUMPI RETURNDATASIZE PUSH1 0x0 DUP1 RETURNDATACOPY RETURNDATASIZE PUSH1 0x0 REVERT JUMPDEST POP POP POP POP POP POP JUMP JUMPDEST PUSH2 0x63E PUSH2 0x86A JUMP JUMPDEST PUSH20 0xFFFFFFFFFFFFFFFFFFFFFFFFFFFFFFFFFFFFFFFF AND PUSH2 0x65C PUSH2 0x3B5 JUMP JUMPDEST PUSH20 0xFFFFFFFFFFFFFFFFFFFFFFFFFFFFFFFFFFFFFFFF AND EQ PUSH2 0x6B2 JUMPI PUSH1 0x40 MLOAD PUSH32 0x8C379A000000000000000000000000000000000000000000000000000000000 DUP2 MSTORE PUSH1 0x4 ADD PUSH2 0x6A9 SWAP1 PUSH2 0xE91 JUMP JUMPDEST PUSH1 0x40 MLOAD DUP1 SWAP2 SUB SWAP1 REVERT JUMPDEST PUSH1 0x0 PUSH20 0xFFFFFFFFFFFFFFFFFFFFFFFFFFFFFFFFFFFFFFFF AND DUP2 PUSH20 0xFFFFFFFFFFFFFFFFFFFFFFFFFFFFFFFFFFFFFFFF AND EQ ISZERO PUSH2 0x722 JUMPI PUSH1 0x40 MLOAD PUSH32 0x8C379A000000000000000000000000000000000000000000000000000000000 DUP2 MSTORE PUSH1 0x4 ADD PUSH2 0x719 SWAP1 PUSH2 0xE71 JUMP JUMPDEST PUSH1 0x40 MLOAD DUP1 SWAP2 SUB SWAP1 REVERT JUMPDEST PUSH2 0x72B DUP2 PUSH2 0x872 JUMP JUMPDEST POP JUMP JUMPDEST PUSH1 0x0 DUP2 GT PUSH2 0x771 JUMPI PUSH1 0x40 MLOAD PUSH32 0x8C379A000000000000000000000000000000000000000000000000000000000 DUP2 MSTORE PUSH1 0x4 ADD PUSH2 0x768 SWAP1 PUSH2 0xEB1 JUMP JUMPDEST PUSH1 0x40 MLOAD DUP1 SWAP2 SUB SWAP1 REVERT JUMPDEST PUSH1 0x2 PUSH1 0x0 SWAP1 SLOAD SWAP1 PUSH2 0x100 EXP SWAP1 DIV PUSH20 0xFFFFFFFFFFFFFFFFFFFFFFFFFFFFFFFFFFFFFFFF AND PUSH20 0xFFFFFFFFFFFFFFFFFFFFFFFFFFFFFFFFFFFFFFFF AND PUSH4 0x23B872DD CALLER ADDRESS DUP5 PUSH1 0x40 MLOAD DUP5 PUSH4 0xFFFFFFFF AND PUSH1 0xE0 SHL DUP2 MSTORE PUSH1 0x4 ADD PUSH2 0x7D0 SWAP4 SWAP3 SWAP2 SWAP1 PUSH2 0xDE8 JUMP JUMPDEST PUSH1 0x20 PUSH1 0x40 MLOAD DUP1 DUP4 SUB DUP2 PUSH1 0x0 DUP8 DUP1 EXTCODESIZE ISZERO DUP1 ISZERO PUSH2 0x7EA JUMPI PUSH1 0x0 DUP1 REVERT JUMPDEST POP GAS CALL ISZERO DUP1 ISZERO PUSH2 0x7FE JUMPI RETURNDATASIZE PUSH1 0x0 DUP1 RETURNDATACOPY RETURNDATASIZE PUSH1 0x0 REVERT JUMPDEST POP POP POP POP PUSH1 0x40 MLOAD RETURNDATASIZE PUSH1 0x1F NOT PUSH1 0x1F DUP3 ADD AND DUP3 ADD DUP1 PUSH1 0x40 MSTORE POP DUP2 ADD SWAP1 PUSH2 0x822 SWAP2 SWAP1 PUSH2 0xB8F JUMP JUMPDEST POP DUP1 PUSH1 0x3 PUSH1 0x0 CALLER PUSH20 0xFFFFFFFFFFFFFFFFFFFFFFFFFFFFFFFFFFFFFFFF AND PUSH20 0xFFFFFFFFFFFFFFFFFFFFFFFFFFFFFFFFFFFFFFFF AND DUP2 MSTORE PUSH1 0x20 ADD SWAP1 DUP2 MSTORE PUSH1 0x20 ADD PUSH1 0x0 KECCAK256 DUP2 SWAP1 SSTORE POP POP JUMP JUMPDEST PUSH1 0x0 CALLER SWAP1 POP SWAP1 JUMP JUMPDEST PUSH1 0x0 DUP1 PUSH1 0x0 SWAP1 SLOAD SWAP1 PUSH2 0x100 EXP SWAP1 DIV PUSH20 0xFFFFFFFFFFFFFFFFFFFFFFFFFFFFFFFFFFFFFFFF AND SWAP1 POP DUP2 PUSH1 0x0 DUP1 PUSH2 0x100 EXP DUP2 SLOAD DUP2 PUSH20 0xFFFFFFFFFFFFFFFFFFFFFFFFFFFFFFFFFFFFFFFF MUL NOT AND SWAP1 DUP4 PUSH20 0xFFFFFFFFFFFFFFFFFFFFFFFFFFFFFFFFFFFFFFFF AND MUL OR SWAP1 SSTORE POP DUP2 PUSH20 0xFFFFFFFFFFFFFFFFFFFFFFFFFFFFFFFFFFFFFFFF AND DUP2 PUSH20 0xFFFFFFFFFFFFFFFFFFFFFFFFFFFFFFFFFFFFFFFF AND PUSH32 0x8BE0079C531659141344CD1FD0A4F28419497F9722A3DAAFE3B4186F6B6457E0 PUSH1 0x40 MLOAD PUSH1 0x40 MLOAD DUP1 SWAP2 SUB SWAP1 LOG3 POP POP JUMP JUMPDEST PUSH1 0x0 PUSH2 0x949 PUSH2 0x944 DUP5 PUSH2 0xF48 JUMP JUMPDEST PUSH2 0xF23 JUMP JUMPDEST SWAP1 POP DUP1 DUP4 DUP3 MSTORE PUSH1 0x20 DUP3 ADD SWAP1 POP DUP3 PUSH1 0x0 JUMPDEST DUP6 DUP2 LT ISZERO PUSH2 0x989 JUMPI DUP2 CALLDATALOAD DUP6 ADD PUSH2 0x96F DUP9 DUP3 PUSH2 0xABB JUMP JUMPDEST DUP5 MSTORE PUSH1 0x20 DUP5 ADD SWAP4 POP PUSH1 0x20 DUP4 ADD SWAP3 POP POP PUSH1 0x1 DUP2 ADD SWAP1 POP PUSH2 0x959 JUMP JUMPDEST POP POP POP SWAP4 SWAP3 POP POP POP JUMP JUMPDEST PUSH1 0x0 PUSH2 0x9A6 PUSH2 0x9A1 DUP5 PUSH2 0xF74 JUMP JUMPDEST PUSH2 0xF23 JUMP JUMPDEST SWAP1 POP DUP1 DUP4 DUP3 MSTORE PUSH1 0x20 DUP3 ADD SWAP1 POP DUP3 DUP6 PUSH1 0x20 DUP7 MUL DUP3 ADD GT ISZERO PUSH2 0x9C5 JUMPI PUSH1 0x0 DUP1 REVERT JUMPDEST PUSH1 0x0 JUMPDEST DUP6 DUP2 LT ISZERO PUSH2 0x9F5 JUMPI DUP2 PUSH2 0x9DB DUP9 DUP3 PUSH2 0xAE5 JUMP JUMPDEST DUP5 MSTORE PUSH1 0x20 DUP5 ADD SWAP4 POP PUSH1 0x20 DUP4 ADD SWAP3 POP POP PUSH1 0x1 DUP2 ADD SWAP1 POP PUSH2 0x9C8 JUMP JUMPDEST POP POP POP SWAP4 SWAP3 POP POP POP JUMP JUMPDEST PUSH1 0x0 PUSH2 0xA12 PUSH2 0xA0D DUP5 PUSH2 0xFA0 JUMP JUMPDEST PUSH2 0xF23 JUMP JUMPDEST SWAP1 POP DUP3 DUP2 MSTORE PUSH1 0x20 DUP2 ADD DUP5 DUP5 DUP5 ADD GT ISZERO PUSH2 0xA2A JUMPI PUSH1 0x0 DUP1 REVERT JUMPDEST PUSH2 0xA35 DUP5 DUP3 DUP6 PUSH2 0x10DC JUMP JUMPDEST POP SWAP4 SWAP3 POP POP POP JUMP JUMPDEST PUSH1 0x0 DUP2 CALLDATALOAD SWAP1 POP PUSH2 0xA4C DUP2 PUSH2 0x1256 JUMP JUMPDEST SWAP3 SWAP2 POP POP JUMP JUMPDEST PUSH1 0x0 DUP3 PUSH1 0x1F DUP4 ADD SLT PUSH2 0xA63 JUMPI PUSH1 0x0 DUP1 REVERT JUMPDEST DUP2 CALLDATALOAD PUSH2 0xA73 DUP5 DUP3 PUSH1 0x20 DUP7 ADD PUSH2 0x936 JUMP JUMPDEST SWAP2 POP POP SWAP3 SWAP2 POP POP JUMP JUMPDEST PUSH1 0x0 DUP3 PUSH1 0x1F DUP4 ADD SLT PUSH2 0xA8D JUMPI PUSH1 0x0 DUP1 REVERT JUMPDEST DUP2 CALLDATALOAD PUSH2 0xA9D DUP5 DUP3 PUSH1 0x20 DUP7 ADD PUSH2 0x993 JUMP JUMPDEST SWAP2 POP POP SWAP3 SWAP2 POP POP JUMP JUMPDEST PUSH1 0x0 DUP2 MLOAD SWAP1 POP PUSH2 0xAB5 DUP2 PUSH2 0x126D JUMP JUMPDEST SWAP3 SWAP2 POP POP JUMP JUMPDEST PUSH1 0x0 DUP3 PUSH1 0x1F DUP4 ADD SLT PUSH2 0xACC JUMPI PUSH1 0x0 DUP1 REVERT JUMPDEST DUP2 CALLDATALOAD PUSH2 0xADC DUP5 DUP3 PUSH1 0x20 DUP7 ADD PUSH2 0x9FF JUMP JUMPDEST SWAP2 POP POP SWAP3 SWAP2 POP POP JUMP JUMPDEST PUSH1 0x0 DUP2 CALLDATALOAD SWAP1 POP PUSH2 0xAF4 DUP2 PUSH2 0x1284 JUMP JUMPDEST SWAP3 SWAP2 POP POP JUMP JUMPDEST PUSH1 0x0 PUSH1 0x20 DUP3 DUP5 SUB SLT ISZERO PUSH2 0xB0C JUMPI PUSH1 0x0 DUP1 REVERT JUMPDEST PUSH1 0x0 PUSH2 0xB1A DUP5 DUP3 DUP6 ADD PUSH2 0xA3D JUMP JUMPDEST SWAP2 POP POP SWAP3 SWAP2 POP POP JUMP JUMPDEST PUSH1 0x0 DUP1 PUSH1 0x40 DUP4 DUP6 SUB SLT ISZERO PUSH2 0xB36 JUMPI PUSH1 0x0 DUP1 REVERT JUMPDEST PUSH1 0x0 DUP4 ADD CALLDATALOAD PUSH8 0xFFFFFFFFFFFFFFFF DUP2 GT ISZERO PUSH2 0xB50 JUMPI PUSH1 0x0 DUP1 REVERT JUMPDEST PUSH2 0xB5C DUP6 DUP3 DUP7 ADD PUSH2 0xA7C JUMP JUMPDEST SWAP3 POP POP PUSH1 0x20 DUP4 ADD CALLDATALOAD PUSH8 0xFFFFFFFFFFFFFFFF DUP2 GT ISZERO PUSH2 0xB79 JUMPI PUSH1 0x0 DUP1 REVERT JUMPDEST PUSH2 0xB85 DUP6 DUP3 DUP7 ADD PUSH2 0xA52 JUMP JUMPDEST SWAP2 POP POP SWAP3 POP SWAP3 SWAP1 POP JUMP JUMPDEST PUSH1 0x0 PUSH1 0x20 DUP3 DUP5 SUB SLT ISZERO PUSH2 0xBA1 JUMPI PUSH1 0x0 DUP1 REVERT JUMPDEST PUSH1 0x0 PUSH2 0xBAF DUP5 DUP3 DUP6 ADD PUSH2 0xAA6 JUMP JUMPDEST SWAP2 POP POP SWAP3 SWAP2 POP POP JUMP JUMPDEST PUSH1 0x0 PUSH1 0x20 DUP3 DUP5 SUB SLT ISZERO PUSH2 0xBCA JUMPI PUSH1 0x0 DUP1 REVERT JUMPDEST PUSH1 0x0 PUSH2 0xBD8 DUP5 DUP3 DUP6 ADD PUSH2 0xAE5 JUMP JUMPDEST SWAP2 POP POP SWAP3 SWAP2 POP POP JUMP JUMPDEST PUSH1 0x0 PUSH2 0xBED DUP4 DUP4 PUSH2 0xD0D JUMP JUMPDEST SWAP1 POP SWAP3 SWAP2 POP POP JUMP JUMPDEST PUSH1 0x0 PUSH2 0xC01 DUP4 DUP4 PUSH2 0xDAF JUMP JUMPDEST PUSH1 0x20 DUP4 ADD SWAP1 POP SWAP3 SWAP2 POP POP JUMP JUMPDEST PUSH2 0xC16 DUP2 PUSH2 0x1070 JUMP JUMPDEST DUP3 MSTORE POP POP JUMP JUMPDEST PUSH1 0x0 PUSH2 0xC27 DUP3 PUSH2 0xFF1 JUMP JUMPDEST PUSH2 0xC31 DUP2 DUP6 PUSH2 0x102C JUMP JUMPDEST SWAP4 POP DUP4 PUSH1 0x20 DUP3 MUL DUP6 ADD PUSH2 0xC43 DUP6 PUSH2 0xFD1 JUMP JUMPDEST DUP1 PUSH1 0x0 JUMPDEST DUP6 DUP2 LT ISZERO PUSH2 0xC7F JUMPI DUP5 DUP5 SUB DUP10 MSTORE DUP2 MLOAD PUSH2 0xC60 DUP6 DUP3 PUSH2 0xBE1 JUMP JUMPDEST SWAP5 POP PUSH2 0xC6B DUP4 PUSH2 0x1012 JUMP JUMPDEST SWAP3 POP PUSH1 0x20 DUP11 ADD SWAP10 POP POP PUSH1 0x1 DUP2 ADD SWAP1 POP PUSH2 0xC47 JUMP JUMPDEST POP DUP3 SWAP8 POP DUP8 SWAP6 POP POP POP POP POP POP SWAP3 SWAP2 POP POP JUMP JUMPDEST PUSH1 0x0 PUSH2 0xC9C DUP3 PUSH2 0xFFC JUMP JUMPDEST PUSH2 0xCA6 DUP2 DUP6 PUSH2 0x103D JUMP JUMPDEST SWAP4 POP PUSH2 0xCB1 DUP4 PUSH2 0xFE1 JUMP JUMPDEST DUP1 PUSH1 0x0 JUMPDEST DUP4 DUP2 LT ISZERO PUSH2 0xCE2 JUMPI DUP2 MLOAD PUSH2 0xCC9 DUP9 DUP3 PUSH2 0xBF5 JUMP JUMPDEST SWAP8 POP PUSH2 0xCD4 DUP4 PUSH2 0x101F JUMP JUMPDEST SWAP3 POP POP PUSH1 0x1 DUP2 ADD SWAP1 POP PUSH2 0xCB5 JUMP JUMPDEST POP DUP6 SWAP4 POP POP POP POP SWAP3 SWAP2 POP POP JUMP JUMPDEST PUSH2 0xCF8 DUP2 PUSH2 0x1082 JUMP JUMPDEST DUP3 MSTORE POP POP JUMP JUMPDEST PUSH2 0xD07 DUP2 PUSH2 0x10B8 JUMP JUMPDEST DUP3 MSTORE POP POP JUMP JUMPDEST PUSH1 0x0 PUSH2 0xD18 DUP3 PUSH2 0x1007 JUMP JUMPDEST PUSH2 0xD22 DUP2 DUP6 PUSH2 0x104E JUMP JUMPDEST SWAP4 POP PUSH2 0xD32 DUP2 DUP6 PUSH1 0x20 DUP7 ADD PUSH2 0x10EB JUMP JUMPDEST PUSH2 0xD3B DUP2 PUSH2 0x117E JUMP JUMPDEST DUP5 ADD SWAP2 POP POP SWAP3 SWAP2 POP POP JUMP JUMPDEST PUSH1 0x0 PUSH2 0xD53 PUSH1 0x26 DUP4 PUSH2 0x105F JUMP JUMPDEST SWAP2 POP PUSH2 0xD5E DUP3 PUSH2 0x118F JUMP JUMPDEST PUSH1 0x40 DUP3 ADD SWAP1 POP SWAP2 SWAP1 POP JUMP JUMPDEST PUSH1 0x0 PUSH2 0xD76 PUSH1 0x20 DUP4 PUSH2 0x105F JUMP JUMPDEST SWAP2 POP PUSH2 0xD81 DUP3 PUSH2 0x11DE JUMP JUMPDEST PUSH1 0x20 DUP3 ADD SWAP1 POP SWAP2 SWAP1 POP JUMP JUMPDEST PUSH1 0x0 PUSH2 0xD99 PUSH1 0x2B DUP4 PUSH2 0x105F JUMP JUMPDEST SWAP2 POP PUSH2 0xDA4 DUP3 PUSH2 0x1207 JUMP JUMPDEST PUSH1 0x40 DUP3 ADD SWAP1 POP SWAP2 SWAP1 POP JUMP JUMPDEST PUSH2 0xDB8 DUP2 PUSH2 0x10AE JUMP JUMPDEST DUP3 MSTORE POP POP JUMP JUMPDEST PUSH2 0xDC7 DUP2 PUSH2 0x10AE JUMP JUMPDEST DUP3 MSTORE POP POP JUMP JUMPDEST PUSH1 0x0 PUSH1 0x20 DUP3 ADD SWAP1 POP PUSH2 0xDE2 PUSH1 0x0 DUP4 ADD DUP5 PUSH2 0xC0D JUMP JUMPDEST SWAP3 SWAP2 POP POP JUMP JUMPDEST PUSH1 0x0 PUSH1 0x60 DUP3 ADD SWAP1 POP PUSH2 0xDFD PUSH1 0x0 DUP4 ADD DUP7 PUSH2 0xC0D JUMP JUMPDEST PUSH2 0xE0A PUSH1 0x20 DUP4 ADD DUP6 PUSH2 0xC0D JUMP JUMPDEST PUSH2 0xE17 PUSH1 0x40 DUP4 ADD DUP5 PUSH2 0xDBE JUMP JUMPDEST SWAP5 SWAP4 POP POP POP POP JUMP JUMPDEST PUSH1 0x0 PUSH1 0x40 DUP3 ADD SWAP1 POP DUP2 DUP2 SUB PUSH1 0x0 DUP4 ADD MSTORE PUSH2 0xE39 DUP2 DUP6 PUSH2 0xC91 JUMP JUMPDEST SWAP1 POP DUP2 DUP2 SUB PUSH1 0x20 DUP4 ADD MSTORE PUSH2 0xE4D DUP2 DUP5 PUSH2 0xC1C JUMP JUMPDEST SWAP1 POP SWAP4 SWAP3 POP POP POP JUMP JUMPDEST PUSH1 0x0 PUSH1 0x20 DUP3 ADD SWAP1 POP PUSH2 0xE6B PUSH1 0x0 DUP4 ADD DUP5 PUSH2 0xCFE JUMP JUMPDEST SWAP3 SWAP2 POP POP JUMP JUMPDEST PUSH1 0x0 PUSH1 0x20 DUP3 ADD SWAP1 POP DUP2 DUP2 SUB PUSH1 0x0 DUP4 ADD MSTORE PUSH2 0xE8A DUP2 PUSH2 0xD46 JUMP JUMPDEST SWAP1 POP SWAP2 SWAP1 POP JUMP JUMPDEST PUSH1 0x0 PUSH1 0x20 DUP3 ADD SWAP1 POP DUP2 DUP2 SUB PUSH1 0x0 DUP4 ADD MSTORE PUSH2 0xEAA DUP2 PUSH2 0xD69 JUMP JUMPDEST SWAP1 POP SWAP2 SWAP1 POP JUMP JUMPDEST PUSH1 0x0 PUSH1 0x20 DUP3 ADD SWAP1 POP DUP2 DUP2 SUB PUSH1 0x0 DUP4 ADD MSTORE PUSH2 0xECA DUP2 PUSH2 0xD8C JUMP JUMPDEST SWAP1 POP SWAP2 SWAP1 POP JUMP JUMPDEST PUSH1 0x0 PUSH1 0x20 DUP3 ADD SWAP1 POP PUSH2 0xEE6 PUSH1 0x0 DUP4 ADD DUP5 PUSH2 0xDBE JUMP JUMPDEST SWAP3 SWAP2 POP POP JUMP JUMPDEST PUSH1 0x0 PUSH1 0x60 DUP3 ADD SWAP1 POP PUSH2 0xF01 PUSH1 0x0 DUP4 ADD DUP7 PUSH2 0xDBE JUMP JUMPDEST PUSH2 0xF0E PUSH1 0x20 DUP4 ADD DUP6 PUSH2 0xDBE JUMP JUMPDEST PUSH2 0xF1B PUSH1 0x40 DUP4 ADD DUP5 PUSH2 0xCEF JUMP JUMPDEST SWAP5 SWAP4 POP POP POP POP JUMP JUMPDEST PUSH1 0x0 PUSH2 0xF2D PUSH2 0xF3E JUMP JUMPDEST SWAP1 POP PUSH2 0xF39 DUP3 DUP3 PUSH2 0x111E JUMP JUMPDEST SWAP2 SWAP1 POP JUMP JUMPDEST PUSH1 0x0 PUSH1 0x40 MLOAD SWAP1 POP SWAP1 JUMP JUMPDEST PUSH1 0x0 PUSH8 0xFFFFFFFFFFFFFFFF DUP3 GT ISZERO PUSH2 0xF63 JUMPI PUSH2 0xF62 PUSH2 0x114F JUMP JUMPDEST JUMPDEST PUSH1 0x20 DUP3 MUL SWAP1 POP PUSH1 0x20 DUP2 ADD SWAP1 POP SWAP2 SWAP1 POP JUMP JUMPDEST PUSH1 0x0 PUSH8 0xFFFFFFFFFFFFFFFF DUP3 GT ISZERO PUSH2 0xF8F JUMPI PUSH2 0xF8E PUSH2 0x114F JUMP JUMPDEST JUMPDEST PUSH1 0x20 DUP3 MUL SWAP1 POP PUSH1 0x20 DUP2 ADD SWAP1 POP SWAP2 SWAP1 POP JUMP JUMPDEST PUSH1 0x0 PUSH8 0xFFFFFFFFFFFFFFFF DUP3 GT ISZERO PUSH2 0xFBB JUMPI PUSH2 0xFBA PUSH2 0x114F JUMP JUMPDEST JUMPDEST PUSH2 0xFC4 DUP3 PUSH2 0x117E JUMP JUMPDEST SWAP1 POP PUSH1 0x20 DUP2 ADD SWAP1 POP SWAP2 SWAP1 POP JUMP JUMPDEST PUSH1 0x0 DUP2 SWAP1 POP PUSH1 0x20 DUP3 ADD SWAP1 POP SWAP2 SWAP1 POP JUMP JUMPDEST PUSH1 0x0 DUP2 SWAP1 POP PUSH1 0x20 DUP3 ADD SWAP1 POP SWAP2 SWAP1 POP JUMP JUMPDEST PUSH1 0x0 DUP2 MLOAD SWAP1 POP SWAP2 SWAP1 POP JUMP JUMPDEST PUSH1 0x0 DUP2 MLOAD SWAP1 POP SWAP2 SWAP1 POP JUMP JUMPDEST PUSH1 0x0 DUP2 MLOAD SWAP1 POP SWAP2 SWAP1 POP JUMP JUMPDEST PUSH1 0x0 PUSH1 0x20 DUP3 ADD SWAP1 POP SWAP2 SWAP1 POP JUMP JUMPDEST PUSH1 0x0 PUSH1 0x20 DUP3 ADD SWAP1 POP SWAP2 SWAP1 POP JUMP JUMPDEST PUSH1 0x0 DUP3 DUP3 MSTORE PUSH1 0x20 DUP3 ADD SWAP1 POP SWAP3 SWAP2 POP POP JUMP JUMPDEST PUSH1 0x0 DUP3 DUP3 MSTORE PUSH1 0x20 DUP3 ADD SWAP1 POP SWAP3 SWAP2 POP POP JUMP JUMPDEST PUSH1 0x0 DUP3 DUP3 MSTORE PUSH1 0x20 DUP3 ADD SWAP1 POP SWAP3 SWAP2 POP POP JUMP JUMPDEST PUSH1 0x0 DUP3 DUP3 MSTORE PUSH1 0x20 DUP3 ADD SWAP1 POP SWAP3 SWAP2 POP POP JUMP JUMPDEST PUSH1 0x0 PUSH2 0x107B DUP3 PUSH2 0x108E JUMP JUMPDEST SWAP1 POP SWAP2 SWAP1 POP JUMP JUMPDEST PUSH1 0x0 DUP2 ISZERO ISZERO SWAP1 POP SWAP2 SWAP1 POP JUMP JUMPDEST PUSH1 0x0 PUSH20 0xFFFFFFFFFFFFFFFFFFFFFFFFFFFFFFFFFFFFFFFF DUP3 AND SWAP1 POP SWAP2 SWAP1 POP JUMP JUMPDEST PUSH1 0x0 DUP2 SWAP1 POP SWAP2 SWAP1 POP JUMP JUMPDEST PUSH1 0x0 PUSH2 0x10C3 DUP3 PUSH2 0x10CA JUMP JUMPDEST SWAP1 POP SWAP2 SWAP1 POP JUMP JUMPDEST PUSH1 0x0 PUSH2 0x10D5 DUP3 PUSH2 0x108E JUMP JUMPDEST SWAP1 POP SWAP2 SWAP1 POP JUMP JUMPDEST DUP3 DUP2 DUP4 CALLDATACOPY PUSH1 0x0 DUP4 DUP4 ADD MSTORE POP POP POP JUMP JUMPDEST PUSH1 0x0 JUMPDEST DUP4 DUP2 LT ISZERO PUSH2 0x1109 JUMPI DUP1 DUP3 ADD MLOAD DUP2 DUP5 ADD MSTORE PUSH1 0x20 DUP2 ADD SWAP1 POP PUSH2 0x10EE JUMP JUMPDEST DUP4 DUP2 GT ISZERO PUSH2 0x1118 JUMPI PUSH1 0x0 DUP5 DUP5 ADD MSTORE JUMPDEST POP POP POP POP JUMP JUMPDEST PUSH2 0x1127 DUP3 PUSH2 0x117E JUMP JUMPDEST DUP2 ADD DUP2 DUP2 LT PUSH8 0xFFFFFFFFFFFFFFFF DUP3 GT OR ISZERO PUSH2 0x1146 JUMPI PUSH2 0x1145 PUSH2 0x114F JUMP JUMPDEST JUMPDEST DUP1 PUSH1 0x40 MSTORE POP POP POP JUMP JUMPDEST PUSH32 0x4E487B7100000000000000000000000000000000000000000000000000000000 PUSH1 0x0 MSTORE PUSH1 0x41 PUSH1 0x4 MSTORE PUSH1 0x24 PUSH1 0x0 REVERT JUMPDEST PUSH1 0x0 PUSH1 0x1F NOT PUSH1 0x1F DUP4 ADD AND SWAP1 POP SWAP2 SWAP1 POP JUMP JUMPDEST PUSH32 0x4F776E61626C653A206E6577206F776E657220697320746865207A65726F2061 PUSH1 0x0 DUP3 ADD MSTORE PUSH32 0x6464726573730000000000000000000000000000000000000000000000000000 PUSH1 0x20 DUP3 ADD MSTORE POP JUMP JUMPDEST PUSH32 0x4F776E61626C653A2063616C6C6572206973206E6F7420746865206F776E6572 PUSH1 0x0 DUP3 ADD MSTORE POP JUMP JUMPDEST PUSH32 0x616D6F756E74207472616E73666572726564206D757374206265206120706F73 PUSH1 0x0 DUP3 ADD MSTORE PUSH32 0x69746976652076616C7565000000000000000000000000000000000000000000 PUSH1 0x20 DUP3 ADD MSTORE POP JUMP JUMPDEST PUSH2 0x125F DUP2 PUSH2 0x1070 JUMP JUMPDEST DUP2 EQ PUSH2 0x126A JUMPI PUSH1 0x0 DUP1 REVERT JUMPDEST POP JUMP JUMPDEST PUSH2 0x1276 DUP2 PUSH2 0x1082 JUMP JUMPDEST DUP2 EQ PUSH2 0x1281 JUMPI PUSH1 0x0 DUP1 REVERT JUMPDEST POP JUMP JUMPDEST PUSH2 0x128D DUP2 PUSH2 0x10AE JUMP JUMPDEST DUP2 EQ PUSH2 0x1298 JUMPI PUSH1 0x0 DUP1 REVERT JUMPDEST POP JUMP INVALID LOG2 PUSH5 0x6970667358 0x22 SLT KECCAK256 SDIV SHL 0xAB 0x25 AND ORIGIN 0x27 0x2C SWAP14 0xB9 0x4E 0xDF PUSH13 0x9A614C108A1B8294079C3140ED CALLVALUE 0xE3 0xB9 CALLDATACOPY PUSH17 0x6364736F6C634300080100330000000000 "
				},
				"gasEstimates": {
					"creation": {
						"codeDepositCost": "963400",
						"executionCost": "infinite",
						"totalCost": "infinite"
					},
					"external": {
						"buyNFT(uint256)": "infinite",
						"lastUpdate()": "infinite",
						"owner()": "1333",
						"preLoadURIs(uint256[],string[])": "infinite",
						"renounceOwnership()": "24463",
						"setStorageContractAddress(address)": "22329",
						"setendTime(uint256)": "21404",
						"setstartTime(uint256)": "21360",
						"storageContract()": "1215",
						"transferOwnership(address)": "24833",
						"usdcBalances(address)": "1536",
						"usdcToken()": "1280"
					},
					"internal": {
						"mintNextNftToAddress(address)": "infinite",
						"receiveUSDC(uint256)": "infinite",
						"updateState()": "infinite"
					}
				},
				"methodIdentifiers": {
					"buyNFT(uint256)": "51ed8288",
					"lastUpdate()": "c0463711",
					"owner()": "8da5cb5b",
					"preLoadURIs(uint256[],string[])": "f121da92",
					"renounceOwnership()": "715018a6",
					"setStorageContractAddress(address)": "51f7598c",
					"setendTime(uint256)": "b79d283f",
					"setstartTime(uint256)": "944044a1",
					"storageContract()": "11ce0267",
					"transferOwnership(address)": "f2fde38b",
					"usdcBalances(address)": "a99c68c5",
					"usdcToken()": "11eac855"
				}
			},
			"storageLayout": {
				"storage": [
					{
						"astId": 7,
						"contract": "contracts/Founding Citizens NFT Sale.sol:FoundingNFTSale",
						"label": "_owner",
						"offset": 0,
						"slot": "0",
						"type": "t_address"
					},
					{
						"astId": 798,
						"contract": "contracts/Founding Citizens NFT Sale.sol:FoundingNFTSale",
						"label": "storageContract",
						"offset": 0,
						"slot": "1",
						"type": "t_address"
					},
					{
						"astId": 801,
						"contract": "contracts/Founding Citizens NFT Sale.sol:FoundingNFTSale",
						"label": "usdcToken",
						"offset": 0,
						"slot": "2",
						"type": "t_contract(ERC20)650"
					},
					{
						"astId": 805,
						"contract": "contracts/Founding Citizens NFT Sale.sol:FoundingNFTSale",
						"label": "usdcBalances",
						"offset": 0,
						"slot": "3",
						"type": "t_mapping(t_address,t_uint256)"
					},
					{
						"astId": 808,
						"contract": "contracts/Founding Citizens NFT Sale.sol:FoundingNFTSale",
						"label": "startTime",
						"offset": 0,
						"slot": "4",
						"type": "t_uint256"
					},
					{
						"astId": 810,
						"contract": "contracts/Founding Citizens NFT Sale.sol:FoundingNFTSale",
						"label": "endTime",
						"offset": 0,
						"slot": "5",
						"type": "t_uint256"
					},
					{
						"astId": 813,
						"contract": "contracts/Founding Citizens NFT Sale.sol:FoundingNFTSale",
						"label": "startPrice",
						"offset": 0,
						"slot": "6",
						"type": "t_uint256"
					},
					{
						"astId": 816,
						"contract": "contracts/Founding Citizens NFT Sale.sol:FoundingNFTSale",
						"label": "EndPrice",
						"offset": 0,
						"slot": "7",
						"type": "t_uint256"
					},
					{
						"astId": 835,
						"contract": "contracts/Founding Citizens NFT Sale.sol:FoundingNFTSale",
						"label": "lastUpdate",
						"offset": 0,
						"slot": "8",
						"type": "t_struct(Update)826_storage"
					}
				],
				"types": {
					"t_address": {
						"encoding": "inplace",
						"label": "address",
						"numberOfBytes": "20"
					},
					"t_bool": {
						"encoding": "inplace",
						"label": "bool",
						"numberOfBytes": "1"
					},
					"t_contract(ERC20)650": {
						"encoding": "inplace",
						"label": "contract ERC20",
						"numberOfBytes": "20"
					},
					"t_mapping(t_address,t_uint256)": {
						"encoding": "mapping",
						"key": "t_address",
						"label": "mapping(address => uint256)",
						"numberOfBytes": "32",
						"value": "t_uint256"
					},
					"t_struct(Update)826_storage": {
						"encoding": "inplace",
						"label": "struct FoundingNFTSale.Update",
						"members": [
							{
								"astId": 821,
								"contract": "contracts/Founding Citizens NFT Sale.sol:FoundingNFTSale",
								"label": "price",
								"offset": 0,
								"slot": "0",
								"type": "t_uint256"
							},
							{
								"astId": 823,
								"contract": "contracts/Founding Citizens NFT Sale.sol:FoundingNFTSale",
								"label": "time",
								"offset": 0,
								"slot": "1",
								"type": "t_uint256"
							},
							{
								"astId": 825,
								"contract": "contracts/Founding Citizens NFT Sale.sol:FoundingNFTSale",
								"label": "saleIsLive",
								"offset": 0,
								"slot": "2",
								"type": "t_bool"
							}
						],
						"numberOfBytes": "96"
					},
					"t_uint256": {
						"encoding": "inplace",
						"label": "uint256",
						"numberOfBytes": "32"
					}
				}
			},
			"userdoc": {
				"kind": "user",
				"methods": {},
				"version": 1
			}
		}
	}
}