{
	"contracts/Founding Citizens NFT Sale.sol": {
		"FoundingNFTSale": {
			"abi": [
				{
					"inputs": [],
					"stateMutability": "nonpayable",
					"type": "constructor"
				},
				{
					"anonymous": false,
					"inputs": [
						{
							"indexed": true,
							"internalType": "address",
							"name": "previousOwner",
							"type": "address"
						},
						{
							"indexed": true,
							"internalType": "address",
							"name": "newOwner",
							"type": "address"
						}
					],
					"name": "OwnershipTransferred",
					"type": "event"
				},
				{
					"inputs": [],
					"name": "buyNFT",
					"outputs": [],
					"stateMutability": "payable",
					"type": "function"
				},
				{
					"inputs": [],
					"name": "lastUpdate",
					"outputs": [
						{
							"internalType": "uint256",
							"name": "price",
							"type": "uint256"
						},
						{
							"internalType": "uint256",
							"name": "time",
							"type": "uint256"
						},
						{
							"internalType": "bool",
							"name": "saleIsLive",
							"type": "bool"
						}
					],
					"stateMutability": "view",
					"type": "function"
				},
				{
					"inputs": [],
					"name": "owner",
					"outputs": [
						{
							"internalType": "address",
							"name": "",
							"type": "address"
						}
					],
					"stateMutability": "view",
					"type": "function"
				},
				{
					"inputs": [
						{
							"internalType": "uint256[]",
							"name": "ids",
							"type": "uint256[]"
						},
						{
							"internalType": "string[]",
							"name": "uris",
							"type": "string[]"
						}
					],
					"name": "preLoadURIs",
					"outputs": [],
					"stateMutability": "nonpayable",
					"type": "function"
				},
				{
					"inputs": [],
					"name": "renounceOwnership",
					"outputs": [],
					"stateMutability": "nonpayable",
					"type": "function"
				},
				{
					"inputs": [
						{
							"internalType": "uint256",
							"name": "unixTime",
							"type": "uint256"
						}
					],
					"name": "setSaleEnd",
					"outputs": [],
					"stateMutability": "nonpayable",
					"type": "function"
				},
				{
					"inputs": [
						{
							"internalType": "uint256",
							"name": "unixTime",
							"type": "uint256"
						}
					],
					"name": "setSaleStart",
					"outputs": [],
					"stateMutability": "nonpayable",
					"type": "function"
				},
				{
					"inputs": [
						{
							"internalType": "address",
							"name": "storageAddress",
							"type": "address"
						}
					],
					"name": "setStorageContractAddress",
					"outputs": [],
					"stateMutability": "nonpayable",
					"type": "function"
				},
				{
					"inputs": [],
					"name": "storageContract",
					"outputs": [
						{
							"internalType": "address",
							"name": "",
							"type": "address"
						}
					],
					"stateMutability": "view",
					"type": "function"
				},
				{
					"inputs": [
						{
							"internalType": "address",
							"name": "newOwner",
							"type": "address"
						}
					],
					"name": "transferOwnership",
					"outputs": [],
					"stateMutability": "nonpayable",
					"type": "function"
				},
				{
					"inputs": [],
					"name": "usdcToken",
					"outputs": [
						{
							"internalType": "contract ERC20",
							"name": "",
							"type": "address"
						}
					],
					"stateMutability": "view",
					"type": "function"
				}
			],
			"devdoc": {
				"kind": "dev",
				"methods": {
					"owner()": {
						"details": "Returns the address of the current owner."
					},
					"renounceOwnership()": {
						"details": "Leaves the contract without owner. It will not be possible to call `onlyOwner` functions anymore. Can only be called by the current owner. NOTE: Renouncing ownership will leave the contract without an owner, thereby removing any functionality that is only available to the owner."
					},
					"transferOwnership(address)": {
						"details": "Transfers ownership of the contract to a new account (`newOwner`). Can only be called by the current owner."
					}
				},
				"version": 1
			},
			"evm": {
				"assembly": "    /* \"contracts/Founding Citizens NFT Sale.sol\":1958:3709  contract FoundingNFTSale is Ownable {\r... */\n  mstore(0x40, 0x80)\n    /* \"contracts/Founding Citizens NFT Sale.sol\":2089:2099  1893484800 */\n  0x70dc4900\n    /* \"contracts/Founding Citizens NFT Sale.sol\":2072:2099  uint saleStart = 1893484800 */\n  0x03\n  sstore\n    /* \"contracts/Founding Citizens NFT Sale.sol\":2223:2225  10 */\n  0x0a\n    /* \"contracts/Founding Citizens NFT Sale.sol\":2205:2225  uint startPrice = 10 */\n  0x05\n  sstore\n    /* \"contracts/Founding Citizens NFT Sale.sol\":2281:2282  1 */\n  0x01\n    /* \"contracts/Founding Citizens NFT Sale.sol\":2265:2282  uint EndPrice = 1 */\n  0x06\n  sstore\n    /* \"contracts/Founding Citizens NFT Sale.sol\":2413:2450  Update(10000, block.timestamp, false) */\n  mload(0x40)\n  dup1\n  0x60\n  add\n  0x40\n  mstore\n  dup1\n    /* \"contracts/Founding Citizens NFT Sale.sol\":2420:2425  10000 */\n  0x2710\n    /* \"contracts/Founding Citizens NFT Sale.sol\":2413:2450  Update(10000, block.timestamp, false) */\n  dup2\n  mstore\n  0x20\n  add\n    /* \"contracts/Founding Citizens NFT Sale.sol\":2427:2442  block.timestamp */\n  timestamp\n    /* \"contracts/Founding Citizens NFT Sale.sol\":2413:2450  Update(10000, block.timestamp, false) */\n  dup2\n  mstore\n  0x20\n  add\n    /* \"contracts/Founding Citizens NFT Sale.sol\":2444:2449  false */\n  0x00\n    /* \"contracts/Founding Citizens NFT Sale.sol\":2413:2450  Update(10000, block.timestamp, false) */\n  iszero\n  iszero\n  dup2\n  mstore\n  pop\n    /* \"contracts/Founding Citizens NFT Sale.sol\":2386:2450  Update public lastUpdate = Update(10000, block.timestamp, false) */\n  0x07\n  0x00\n  dup3\n  add\n  mload\n  dup2\n  0x00\n  add\n  sstore\n  0x20\n  dup3\n  add\n  mload\n  dup2\n  0x01\n  add\n  sstore\n  0x40\n  dup3\n  add\n  mload\n  dup2\n  0x02\n  add\n  exp(0x0100, 0x00)\n  dup2\n  sload\n  dup2\n  0xff\n  mul\n  not\n  and\n  swap1\n  dup4\n  iszero\n  iszero\n  mul\n  or\n  swap1\n  sstore\n  pop\n  pop\n  pop\n    /* \"contracts/Founding Citizens NFT Sale.sol\":2675:2769  constructor() {\r... */\n  callvalue\n  dup1\n  iszero\n  tag_1\n  jumpi\n  0x00\n  dup1\n  revert\ntag_1:\n  pop\n    /* \"@openzeppelin/contracts@4.4.2/access/Ownable.sol\":921:953  _transferOwnership(_msgSender()) */\n  tag_5\n    /* \"@openzeppelin/contracts@4.4.2/access/Ownable.sol\":940:952  _msgSender() */\n  tag_6\n    /* \"@openzeppelin/contracts@4.4.2/access/Ownable.sol\":940:950  _msgSender */\n  shl(0x20, tag_7)\n    /* \"@openzeppelin/contracts@4.4.2/access/Ownable.sol\":940:952  _msgSender() */\n  0x20\n  shr\n  jump\t// in\ntag_6:\n    /* \"@openzeppelin/contracts@4.4.2/access/Ownable.sol\":921:939  _transferOwnership */\n  shl(0x20, tag_8)\n    /* \"@openzeppelin/contracts@4.4.2/access/Ownable.sol\":921:953  _transferOwnership(_msgSender()) */\n  0x20\n  shr\n  jump\t// in\ntag_5:\n    /* \"contracts/Founding Citizens NFT Sale.sol\":2718:2760  0xe11A86849d99F524cAC3E7A0Ec1241828e332C62 */\n  0xe11a86849d99f524cac3e7a0ec1241828e332c62\n    /* \"contracts/Founding Citizens NFT Sale.sol\":2700:2709  usdcToken */\n  0x02\n  0x00\n    /* \"contracts/Founding Citizens NFT Sale.sol\":2700:2761  usdcToken = ERC20(0xe11A86849d99F524cAC3E7A0Ec1241828e332C62) */\n  0x0100\n  exp\n  dup2\n  sload\n  dup2\n  0xffffffffffffffffffffffffffffffffffffffff\n  mul\n  not\n  and\n  swap1\n  dup4\n  0xffffffffffffffffffffffffffffffffffffffff\n  and\n  mul\n  or\n  swap1\n  sstore\n  pop\n    /* \"contracts/Founding Citizens NFT Sale.sol\":1958:3709  contract FoundingNFTSale is Ownable {\r... */\n  jump(tag_10)\n    /* \"@openzeppelin/contracts@4.4.2/utils/Context.sol\":640:736  function _msgSender() internal view virtual returns (address) {... */\ntag_7:\n    /* \"@openzeppelin/contracts@4.4.2/utils/Context.sol\":693:700  address */\n  0x00\n    /* \"@openzeppelin/contracts@4.4.2/utils/Context.sol\":719:729  msg.sender */\n  caller\n    /* \"@openzeppelin/contracts@4.4.2/utils/Context.sol\":712:729  return msg.sender */\n  swap1\n  pop\n    /* \"@openzeppelin/contracts@4.4.2/utils/Context.sol\":640:736  function _msgSender() internal view virtual returns (address) {... */\n  swap1\n  jump\t// out\n    /* \"@openzeppelin/contracts@4.4.2/access/Ownable.sol\":2270:2457  function _transferOwnership(address newOwner) internal virtual {... */\ntag_8:\n    /* \"@openzeppelin/contracts@4.4.2/access/Ownable.sol\":2343:2359  address oldOwner */\n  0x00\n    /* \"@openzeppelin/contracts@4.4.2/access/Ownable.sol\":2362:2368  _owner */\n  dup1\n  0x00\n  swap1\n  sload\n  swap1\n  0x0100\n  exp\n  swap1\n  div\n  0xffffffffffffffffffffffffffffffffffffffff\n  and\n    /* \"@openzeppelin/contracts@4.4.2/access/Ownable.sol\":2343:2368  address oldOwner = _owner */\n  swap1\n  pop\n    /* \"@openzeppelin/contracts@4.4.2/access/Ownable.sol\":2387:2395  newOwner */\n  dup2\n    /* \"@openzeppelin/contracts@4.4.2/access/Ownable.sol\":2378:2384  _owner */\n  0x00\n  dup1\n    /* \"@openzeppelin/contracts@4.4.2/access/Ownable.sol\":2378:2395  _owner = newOwner */\n  0x0100\n  exp\n  dup2\n  sload\n  dup2\n  0xffffffffffffffffffffffffffffffffffffffff\n  mul\n  not\n  and\n  swap1\n  dup4\n  0xffffffffffffffffffffffffffffffffffffffff\n  and\n  mul\n  or\n  swap1\n  sstore\n  pop\n    /* \"@openzeppelin/contracts@4.4.2/access/Ownable.sol\":2441:2449  newOwner */\n  dup2\n    /* \"@openzeppelin/contracts@4.4.2/access/Ownable.sol\":2410:2450  OwnershipTransferred(oldOwner, newOwner) */\n  0xffffffffffffffffffffffffffffffffffffffff\n  and\n    /* \"@openzeppelin/contracts@4.4.2/access/Ownable.sol\":2431:2439  oldOwner */\n  dup2\n    /* \"@openzeppelin/contracts@4.4.2/access/Ownable.sol\":2410:2450  OwnershipTransferred(oldOwner, newOwner) */\n  0xffffffffffffffffffffffffffffffffffffffff\n  and\n  0x8be0079c531659141344cd1fd0a4f28419497f9722a3daafe3b4186f6b6457e0\n  mload(0x40)\n  mload(0x40)\n  dup1\n  swap2\n  sub\n  swap1\n  log3\n    /* \"@openzeppelin/contracts@4.4.2/access/Ownable.sol\":2270:2457  function _transferOwnership(address newOwner) internal virtual {... */\n  pop\n  pop\n  jump\t// out\n    /* \"contracts/Founding Citizens NFT Sale.sol\":1958:3709  contract FoundingNFTSale is Ownable {\r... */\ntag_10:\n  dataSize(sub_0)\n  dup1\n  dataOffset(sub_0)\n  0x00\n  codecopy\n  0x00\n  return\nstop\n\nsub_0: assembly {\n        /* \"contracts/Founding Citizens NFT Sale.sol\":1958:3709  contract FoundingNFTSale is Ownable {\r... */\n      mstore(0x40, 0x80)\n      jumpi(tag_1, lt(calldatasize, 0x04))\n      shr(0xe0, calldataload(0x00))\n      dup1\n      0x715018a6\n      gt\n      tag_13\n      jumpi\n      dup1\n      0x715018a6\n      eq\n      tag_7\n      jumpi\n      dup1\n      0x8da5cb5b\n      eq\n      tag_8\n      jumpi\n      dup1\n      0xbff29cee\n      eq\n      tag_9\n      jumpi\n      dup1\n      0xc0463711\n      eq\n      tag_10\n      jumpi\n      dup1\n      0xf121da92\n      eq\n      tag_11\n      jumpi\n      dup1\n      0xf2fde38b\n      eq\n      tag_12\n      jumpi\n      jump(tag_1)\n    tag_13:\n      dup1\n      0x11ce0267\n      eq\n      tag_2\n      jumpi\n      dup1\n      0x11eac855\n      eq\n      tag_3\n      jumpi\n      dup1\n      0x1515fa6e\n      eq\n      tag_4\n      jumpi\n      dup1\n      0x2f181f54\n      eq\n      tag_5\n      jumpi\n      dup1\n      0x51f7598c\n      eq\n      tag_6\n      jumpi\n    tag_1:\n      0x00\n      dup1\n      revert\n        /* \"contracts/Founding Citizens NFT Sale.sol\":2001:2031  address public storageContract */\n    tag_2:\n      callvalue\n      dup1\n      iszero\n      tag_14\n      jumpi\n      0x00\n      dup1\n      revert\n    tag_14:\n      pop\n      tag_15\n      tag_16\n      jump\t// in\n    tag_15:\n      mload(0x40)\n      tag_17\n      swap2\n      swap1\n      tag_18\n      jump\t// in\n    tag_17:\n      mload(0x40)\n      dup1\n      swap2\n      sub\n      swap1\n      return\n        /* \"contracts/Founding Citizens NFT Sale.sol\":2040:2062  ERC20 public usdcToken */\n    tag_3:\n      callvalue\n      dup1\n      iszero\n      tag_19\n      jumpi\n      0x00\n      dup1\n      revert\n    tag_19:\n      pop\n      tag_20\n      tag_21\n      jump\t// in\n    tag_20:\n      mload(0x40)\n      tag_22\n      swap2\n      swap1\n      tag_23\n      jump\t// in\n    tag_22:\n      mload(0x40)\n      dup1\n      swap2\n      sub\n      swap1\n      return\n        /* \"contracts/Founding Citizens NFT Sale.sol\":3566:3655  function setSaleEnd(uint unixTime) public onlyOwner {\r... */\n    tag_4:\n      callvalue\n      dup1\n      iszero\n      tag_24\n      jumpi\n      0x00\n      dup1\n      revert\n    tag_24:\n      pop\n      tag_25\n      0x04\n      dup1\n      calldatasize\n      sub\n      dup2\n      add\n      swap1\n      tag_26\n      swap2\n      swap1\n      tag_27\n      jump\t// in\n    tag_26:\n      tag_28\n      jump\t// in\n    tag_25:\n      stop\n        /* \"contracts/Founding Citizens NFT Sale.sol\":3465:3558  function setSaleStart(uint unixTime) public onlyOwner {\r... */\n    tag_5:\n      callvalue\n      dup1\n      iszero\n      tag_29\n      jumpi\n      0x00\n      dup1\n      revert\n    tag_29:\n      pop\n      tag_30\n      0x04\n      dup1\n      calldatasize\n      sub\n      dup2\n      add\n      swap1\n      tag_31\n      swap2\n      swap1\n      tag_27\n      jump\t// in\n    tag_31:\n      tag_32\n      jump\t// in\n    tag_30:\n      stop\n        /* \"contracts/Founding Citizens NFT Sale.sol\":3040:3167  function setStorageContractAddress(address storageAddress) public onlyOwner {\r... */\n    tag_6:\n      callvalue\n      dup1\n      iszero\n      tag_33\n      jumpi\n      0x00\n      dup1\n      revert\n    tag_33:\n      pop\n      tag_34\n      0x04\n      dup1\n      calldatasize\n      sub\n      dup2\n      add\n      swap1\n      tag_35\n      swap2\n      swap1\n      tag_36\n      jump\t// in\n    tag_35:\n      tag_37\n      jump\t// in\n    tag_34:\n      stop\n        /* \"@openzeppelin/contracts@4.4.2/access/Ownable.sol\":1668:1769  function renounceOwnership() public virtual onlyOwner {... */\n    tag_7:\n      callvalue\n      dup1\n      iszero\n      tag_38\n      jumpi\n      0x00\n      dup1\n      revert\n    tag_38:\n      pop\n      tag_39\n      tag_40\n      jump\t// in\n    tag_39:\n      stop\n        /* \"@openzeppelin/contracts@4.4.2/access/Ownable.sol\":1036:1121  function owner() public view virtual returns (address) {... */\n    tag_8:\n      callvalue\n      dup1\n      iszero\n      tag_41\n      jumpi\n      0x00\n      dup1\n      revert\n    tag_41:\n      pop\n      tag_42\n      tag_43\n      jump\t// in\n    tag_42:\n      mload(0x40)\n      tag_44\n      swap2\n      swap1\n      tag_18\n      jump\t// in\n    tag_44:\n      mload(0x40)\n      dup1\n      swap2\n      sub\n      swap1\n      return\n        /* \"contracts/Founding Citizens NFT Sale.sol\":3663:3706  function buyNFT() public payable {\r... */\n    tag_9:\n      tag_45\n      tag_46\n      jump\t// in\n    tag_45:\n      stop\n        /* \"contracts/Founding Citizens NFT Sale.sol\":2386:2450  Update public lastUpdate = Update(10000, block.timestamp, false) */\n    tag_10:\n      callvalue\n      dup1\n      iszero\n      tag_47\n      jumpi\n      0x00\n      dup1\n      revert\n    tag_47:\n      pop\n      tag_48\n      tag_49\n      jump\t// in\n    tag_48:\n      mload(0x40)\n      tag_50\n      swap4\n      swap3\n      swap2\n      swap1\n      tag_51\n      jump\t// in\n    tag_50:\n      mload(0x40)\n      dup1\n      swap2\n      sub\n      swap1\n      return\n        /* \"contracts/Founding Citizens NFT Sale.sol\":3307:3457  function preLoadURIs(uint[] memory ids, string[] memory uris) public onlyOwner {\r... */\n    tag_11:\n      callvalue\n      dup1\n      iszero\n      tag_52\n      jumpi\n      0x00\n      dup1\n      revert\n    tag_52:\n      pop\n      tag_53\n      0x04\n      dup1\n      calldatasize\n      sub\n      dup2\n      add\n      swap1\n      tag_54\n      swap2\n      swap1\n      tag_55\n      jump\t// in\n    tag_54:\n      tag_56\n      jump\t// in\n    tag_53:\n      stop\n        /* \"@openzeppelin/contracts@4.4.2/access/Ownable.sol\":1918:2116  function transferOwnership(address newOwner) public virtual onlyOwner {... */\n    tag_12:\n      callvalue\n      dup1\n      iszero\n      tag_57\n      jumpi\n      0x00\n      dup1\n      revert\n    tag_57:\n      pop\n      tag_58\n      0x04\n      dup1\n      calldatasize\n      sub\n      dup2\n      add\n      swap1\n      tag_59\n      swap2\n      swap1\n      tag_36\n      jump\t// in\n    tag_59:\n      tag_60\n      jump\t// in\n    tag_58:\n      stop\n        /* \"contracts/Founding Citizens NFT Sale.sol\":2001:2031  address public storageContract */\n    tag_16:\n      0x01\n      0x00\n      swap1\n      sload\n      swap1\n      0x0100\n      exp\n      swap1\n      div\n      0xffffffffffffffffffffffffffffffffffffffff\n      and\n      dup2\n      jump\t// out\n        /* \"contracts/Founding Citizens NFT Sale.sol\":2040:2062  ERC20 public usdcToken */\n    tag_21:\n      0x02\n      0x00\n      swap1\n      sload\n      swap1\n      0x0100\n      exp\n      swap1\n      div\n      0xffffffffffffffffffffffffffffffffffffffff\n      and\n      dup2\n      jump\t// out\n        /* \"contracts/Founding Citizens NFT Sale.sol\":3566:3655  function setSaleEnd(uint unixTime) public onlyOwner {\r... */\n    tag_28:\n        /* \"@openzeppelin/contracts@4.4.2/access/Ownable.sol\":1259:1271  _msgSender() */\n      tag_62\n        /* \"@openzeppelin/contracts@4.4.2/access/Ownable.sol\":1259:1269  _msgSender */\n      tag_63\n        /* \"@openzeppelin/contracts@4.4.2/access/Ownable.sol\":1259:1271  _msgSender() */\n      jump\t// in\n    tag_62:\n        /* \"@openzeppelin/contracts@4.4.2/access/Ownable.sol\":1248:1271  owner() == _msgSender() */\n      0xffffffffffffffffffffffffffffffffffffffff\n      and\n        /* \"@openzeppelin/contracts@4.4.2/access/Ownable.sol\":1248:1255  owner() */\n      tag_64\n        /* \"@openzeppelin/contracts@4.4.2/access/Ownable.sol\":1248:1253  owner */\n      tag_43\n        /* \"@openzeppelin/contracts@4.4.2/access/Ownable.sol\":1248:1255  owner() */\n      jump\t// in\n    tag_64:\n        /* \"@openzeppelin/contracts@4.4.2/access/Ownable.sol\":1248:1271  owner() == _msgSender() */\n      0xffffffffffffffffffffffffffffffffffffffff\n      and\n      eq\n        /* \"@openzeppelin/contracts@4.4.2/access/Ownable.sol\":1240:1308  require(owner() == _msgSender(), \"Ownable: caller is not the owner\") */\n      tag_65\n      jumpi\n      mload(0x40)\n      0x08c379a000000000000000000000000000000000000000000000000000000000\n      dup2\n      mstore\n      0x04\n      add\n      tag_66\n      swap1\n      tag_67\n      jump\t// in\n    tag_66:\n      mload(0x40)\n      dup1\n      swap2\n      sub\n      swap1\n      revert\n    tag_65:\n        /* \"contracts/Founding Citizens NFT Sale.sol\":3639:3647  unixTime */\n      dup1\n        /* \"contracts/Founding Citizens NFT Sale.sol\":3629:3636  saleEnd */\n      0x04\n        /* \"contracts/Founding Citizens NFT Sale.sol\":3629:3647  saleEnd = unixTime */\n      dup2\n      swap1\n      sstore\n      pop\n        /* \"contracts/Founding Citizens NFT Sale.sol\":3566:3655  function setSaleEnd(uint unixTime) public onlyOwner {\r... */\n      pop\n      jump\t// out\n        /* \"contracts/Founding Citizens NFT Sale.sol\":3465:3558  function setSaleStart(uint unixTime) public onlyOwner {\r... */\n    tag_32:\n        /* \"@openzeppelin/contracts@4.4.2/access/Ownable.sol\":1259:1271  _msgSender() */\n      tag_70\n        /* \"@openzeppelin/contracts@4.4.2/access/Ownable.sol\":1259:1269  _msgSender */\n      tag_63\n        /* \"@openzeppelin/contracts@4.4.2/access/Ownable.sol\":1259:1271  _msgSender() */\n      jump\t// in\n    tag_70:\n        /* \"@openzeppelin/contracts@4.4.2/access/Ownable.sol\":1248:1271  owner() == _msgSender() */\n      0xffffffffffffffffffffffffffffffffffffffff\n      and\n        /* \"@openzeppelin/contracts@4.4.2/access/Ownable.sol\":1248:1255  owner() */\n      tag_71\n        /* \"@openzeppelin/contracts@4.4.2/access/Ownable.sol\":1248:1253  owner */\n      tag_43\n        /* \"@openzeppelin/contracts@4.4.2/access/Ownable.sol\":1248:1255  owner() */\n      jump\t// in\n    tag_71:\n        /* \"@openzeppelin/contracts@4.4.2/access/Ownable.sol\":1248:1271  owner() == _msgSender() */\n      0xffffffffffffffffffffffffffffffffffffffff\n      and\n      eq\n        /* \"@openzeppelin/contracts@4.4.2/access/Ownable.sol\":1240:1308  require(owner() == _msgSender(), \"Ownable: caller is not the owner\") */\n      tag_72\n      jumpi\n      mload(0x40)\n      0x08c379a000000000000000000000000000000000000000000000000000000000\n      dup2\n      mstore\n      0x04\n      add\n      tag_73\n      swap1\n      tag_67\n      jump\t// in\n    tag_73:\n      mload(0x40)\n      dup1\n      swap2\n      sub\n      swap1\n      revert\n    tag_72:\n        /* \"contracts/Founding Citizens NFT Sale.sol\":3542:3550  unixTime */\n      dup1\n        /* \"contracts/Founding Citizens NFT Sale.sol\":3530:3539  saleStart */\n      0x03\n        /* \"contracts/Founding Citizens NFT Sale.sol\":3530:3550  saleStart = unixTime */\n      dup2\n      swap1\n      sstore\n      pop\n        /* \"contracts/Founding Citizens NFT Sale.sol\":3465:3558  function setSaleStart(uint unixTime) public onlyOwner {\r... */\n      pop\n      jump\t// out\n        /* \"contracts/Founding Citizens NFT Sale.sol\":3040:3167  function setStorageContractAddress(address storageAddress) public onlyOwner {\r... */\n    tag_37:\n        /* \"@openzeppelin/contracts@4.4.2/access/Ownable.sol\":1259:1271  _msgSender() */\n      tag_76\n        /* \"@openzeppelin/contracts@4.4.2/access/Ownable.sol\":1259:1269  _msgSender */\n      tag_63\n        /* \"@openzeppelin/contracts@4.4.2/access/Ownable.sol\":1259:1271  _msgSender() */\n      jump\t// in\n    tag_76:\n        /* \"@openzeppelin/contracts@4.4.2/access/Ownable.sol\":1248:1271  owner() == _msgSender() */\n      0xffffffffffffffffffffffffffffffffffffffff\n      and\n        /* \"@openzeppelin/contracts@4.4.2/access/Ownable.sol\":1248:1255  owner() */\n      tag_77\n        /* \"@openzeppelin/contracts@4.4.2/access/Ownable.sol\":1248:1253  owner */\n      tag_43\n        /* \"@openzeppelin/contracts@4.4.2/access/Ownable.sol\":1248:1255  owner() */\n      jump\t// in\n    tag_77:\n        /* \"@openzeppelin/contracts@4.4.2/access/Ownable.sol\":1248:1271  owner() == _msgSender() */\n      0xffffffffffffffffffffffffffffffffffffffff\n      and\n      eq\n        /* \"@openzeppelin/contracts@4.4.2/access/Ownable.sol\":1240:1308  require(owner() == _msgSender(), \"Ownable: caller is not the owner\") */\n      tag_78\n      jumpi\n      mload(0x40)\n      0x08c379a000000000000000000000000000000000000000000000000000000000\n      dup2\n      mstore\n      0x04\n      add\n      tag_79\n      swap1\n      tag_67\n      jump\t// in\n    tag_79:\n      mload(0x40)\n      dup1\n      swap2\n      sub\n      swap1\n      revert\n    tag_78:\n        /* \"contracts/Founding Citizens NFT Sale.sol\":3145:3159  storageAddress */\n      dup1\n        /* \"contracts/Founding Citizens NFT Sale.sol\":3127:3142  storageContract */\n      0x01\n      0x00\n        /* \"contracts/Founding Citizens NFT Sale.sol\":3127:3159  storageContract = storageAddress */\n      0x0100\n      exp\n      dup2\n      sload\n      dup2\n      0xffffffffffffffffffffffffffffffffffffffff\n      mul\n      not\n      and\n      swap1\n      dup4\n      0xffffffffffffffffffffffffffffffffffffffff\n      and\n      mul\n      or\n      swap1\n      sstore\n      pop\n        /* \"contracts/Founding Citizens NFT Sale.sol\":3040:3167  function setStorageContractAddress(address storageAddress) public onlyOwner {\r... */\n      pop\n      jump\t// out\n        /* \"@openzeppelin/contracts@4.4.2/access/Ownable.sol\":1668:1769  function renounceOwnership() public virtual onlyOwner {... */\n    tag_40:\n        /* \"@openzeppelin/contracts@4.4.2/access/Ownable.sol\":1259:1271  _msgSender() */\n      tag_82\n        /* \"@openzeppelin/contracts@4.4.2/access/Ownable.sol\":1259:1269  _msgSender */\n      tag_63\n        /* \"@openzeppelin/contracts@4.4.2/access/Ownable.sol\":1259:1271  _msgSender() */\n      jump\t// in\n    tag_82:\n        /* \"@openzeppelin/contracts@4.4.2/access/Ownable.sol\":1248:1271  owner() == _msgSender() */\n      0xffffffffffffffffffffffffffffffffffffffff\n      and\n        /* \"@openzeppelin/contracts@4.4.2/access/Ownable.sol\":1248:1255  owner() */\n      tag_83\n        /* \"@openzeppelin/contracts@4.4.2/access/Ownable.sol\":1248:1253  owner */\n      tag_43\n        /* \"@openzeppelin/contracts@4.4.2/access/Ownable.sol\":1248:1255  owner() */\n      jump\t// in\n    tag_83:\n        /* \"@openzeppelin/contracts@4.4.2/access/Ownable.sol\":1248:1271  owner() == _msgSender() */\n      0xffffffffffffffffffffffffffffffffffffffff\n      and\n      eq\n        /* \"@openzeppelin/contracts@4.4.2/access/Ownable.sol\":1240:1308  require(owner() == _msgSender(), \"Ownable: caller is not the owner\") */\n      tag_84\n      jumpi\n      mload(0x40)\n      0x08c379a000000000000000000000000000000000000000000000000000000000\n      dup2\n      mstore\n      0x04\n      add\n      tag_85\n      swap1\n      tag_67\n      jump\t// in\n    tag_85:\n      mload(0x40)\n      dup1\n      swap2\n      sub\n      swap1\n      revert\n    tag_84:\n        /* \"@openzeppelin/contracts@4.4.2/access/Ownable.sol\":1732:1762  _transferOwnership(address(0)) */\n      tag_87\n        /* \"@openzeppelin/contracts@4.4.2/access/Ownable.sol\":1759:1760  0 */\n      0x00\n        /* \"@openzeppelin/contracts@4.4.2/access/Ownable.sol\":1732:1750  _transferOwnership */\n      tag_88\n        /* \"@openzeppelin/contracts@4.4.2/access/Ownable.sol\":1732:1762  _transferOwnership(address(0)) */\n      jump\t// in\n    tag_87:\n        /* \"@openzeppelin/contracts@4.4.2/access/Ownable.sol\":1668:1769  function renounceOwnership() public virtual onlyOwner {... */\n      jump\t// out\n        /* \"@openzeppelin/contracts@4.4.2/access/Ownable.sol\":1036:1121  function owner() public view virtual returns (address) {... */\n    tag_43:\n        /* \"@openzeppelin/contracts@4.4.2/access/Ownable.sol\":1082:1089  address */\n      0x00\n        /* \"@openzeppelin/contracts@4.4.2/access/Ownable.sol\":1108:1114  _owner */\n      dup1\n      0x00\n      swap1\n      sload\n      swap1\n      0x0100\n      exp\n      swap1\n      div\n      0xffffffffffffffffffffffffffffffffffffffff\n      and\n        /* \"@openzeppelin/contracts@4.4.2/access/Ownable.sol\":1101:1114  return _owner */\n      swap1\n      pop\n        /* \"@openzeppelin/contracts@4.4.2/access/Ownable.sol\":1036:1121  function owner() public view virtual returns (address) {... */\n      swap1\n      jump\t// out\n        /* \"contracts/Founding Citizens NFT Sale.sol\":3663:3706  function buyNFT() public payable {\r... */\n    tag_46:\n      jump\t// out\n        /* \"contracts/Founding Citizens NFT Sale.sol\":2386:2450  Update public lastUpdate = Update(10000, block.timestamp, false) */\n    tag_49:\n      0x07\n      dup1\n      0x00\n      add\n      sload\n      swap1\n      dup1\n      0x01\n      add\n      sload\n      swap1\n      dup1\n      0x02\n      add\n      0x00\n      swap1\n      sload\n      swap1\n      0x0100\n      exp\n      swap1\n      div\n      0xff\n      and\n      swap1\n      pop\n      dup4\n      jump\t// out\n        /* \"contracts/Founding Citizens NFT Sale.sol\":3307:3457  function preLoadURIs(uint[] memory ids, string[] memory uris) public onlyOwner {\r... */\n    tag_56:\n        /* \"@openzeppelin/contracts@4.4.2/access/Ownable.sol\":1259:1271  _msgSender() */\n      tag_92\n        /* \"@openzeppelin/contracts@4.4.2/access/Ownable.sol\":1259:1269  _msgSender */\n      tag_63\n        /* \"@openzeppelin/contracts@4.4.2/access/Ownable.sol\":1259:1271  _msgSender() */\n      jump\t// in\n    tag_92:\n        /* \"@openzeppelin/contracts@4.4.2/access/Ownable.sol\":1248:1271  owner() == _msgSender() */\n      0xffffffffffffffffffffffffffffffffffffffff\n      and\n        /* \"@openzeppelin/contracts@4.4.2/access/Ownable.sol\":1248:1255  owner() */\n      tag_93\n        /* \"@openzeppelin/contracts@4.4.2/access/Ownable.sol\":1248:1253  owner */\n      tag_43\n        /* \"@openzeppelin/contracts@4.4.2/access/Ownable.sol\":1248:1255  owner() */\n      jump\t// in\n    tag_93:\n        /* \"@openzeppelin/contracts@4.4.2/access/Ownable.sol\":1248:1271  owner() == _msgSender() */\n      0xffffffffffffffffffffffffffffffffffffffff\n      and\n      eq\n        /* \"@openzeppelin/contracts@4.4.2/access/Ownable.sol\":1240:1308  require(owner() == _msgSender(), \"Ownable: caller is not the owner\") */\n      tag_94\n      jumpi\n      mload(0x40)\n      0x08c379a000000000000000000000000000000000000000000000000000000000\n      dup2\n      mstore\n      0x04\n      add\n      tag_95\n      swap1\n      tag_67\n      jump\t// in\n    tag_95:\n      mload(0x40)\n      dup1\n      swap2\n      sub\n      swap1\n      revert\n    tag_94:\n        /* \"contracts/Founding Citizens NFT Sale.sol\":3410:3425  storageContract */\n      0x01\n      0x00\n      swap1\n      sload\n      swap1\n      0x0100\n      exp\n      swap1\n      div\n      0xffffffffffffffffffffffffffffffffffffffff\n      and\n        /* \"contracts/Founding Citizens NFT Sale.sol\":3397:3438  IMintStorage(storageContract).preLoadURIs */\n      0xffffffffffffffffffffffffffffffffffffffff\n      and\n      0xf121da92\n        /* \"contracts/Founding Citizens NFT Sale.sol\":3439:3442  ids */\n      dup4\n        /* \"contracts/Founding Citizens NFT Sale.sol\":3444:3448  uris */\n      dup4\n        /* \"contracts/Founding Citizens NFT Sale.sol\":3397:3449  IMintStorage(storageContract).preLoadURIs(ids, uris) */\n      mload(0x40)\n      dup4\n      0xffffffff\n      and\n      0xe0\n      shl\n      dup2\n      mstore\n      0x04\n      add\n      tag_97\n      swap3\n      swap2\n      swap1\n      tag_98\n      jump\t// in\n    tag_97:\n      0x00\n      mload(0x40)\n      dup1\n      dup4\n      sub\n      dup2\n      0x00\n      dup8\n      dup1\n      extcodesize\n      iszero\n      dup1\n      iszero\n      tag_99\n      jumpi\n      0x00\n      dup1\n      revert\n    tag_99:\n      pop\n      gas\n      call\n      iszero\n      dup1\n      iszero\n      tag_101\n      jumpi\n      returndatasize\n      0x00\n      dup1\n      returndatacopy\n      revert(0x00, returndatasize)\n    tag_101:\n      pop\n      pop\n      pop\n      pop\n        /* \"contracts/Founding Citizens NFT Sale.sol\":3307:3457  function preLoadURIs(uint[] memory ids, string[] memory uris) public onlyOwner {\r... */\n      pop\n      pop\n      jump\t// out\n        /* \"@openzeppelin/contracts@4.4.2/access/Ownable.sol\":1918:2116  function transferOwnership(address newOwner) public virtual onlyOwner {... */\n    tag_60:\n        /* \"@openzeppelin/contracts@4.4.2/access/Ownable.sol\":1259:1271  _msgSender() */\n      tag_103\n        /* \"@openzeppelin/contracts@4.4.2/access/Ownable.sol\":1259:1269  _msgSender */\n      tag_63\n        /* \"@openzeppelin/contracts@4.4.2/access/Ownable.sol\":1259:1271  _msgSender() */\n      jump\t// in\n    tag_103:\n        /* \"@openzeppelin/contracts@4.4.2/access/Ownable.sol\":1248:1271  owner() == _msgSender() */\n      0xffffffffffffffffffffffffffffffffffffffff\n      and\n        /* \"@openzeppelin/contracts@4.4.2/access/Ownable.sol\":1248:1255  owner() */\n      tag_104\n        /* \"@openzeppelin/contracts@4.4.2/access/Ownable.sol\":1248:1253  owner */\n      tag_43\n        /* \"@openzeppelin/contracts@4.4.2/access/Ownable.sol\":1248:1255  owner() */\n      jump\t// in\n    tag_104:\n        /* \"@openzeppelin/contracts@4.4.2/access/Ownable.sol\":1248:1271  owner() == _msgSender() */\n      0xffffffffffffffffffffffffffffffffffffffff\n      and\n      eq\n        /* \"@openzeppelin/contracts@4.4.2/access/Ownable.sol\":1240:1308  require(owner() == _msgSender(), \"Ownable: caller is not the owner\") */\n      tag_105\n      jumpi\n      mload(0x40)\n      0x08c379a000000000000000000000000000000000000000000000000000000000\n      dup2\n      mstore\n      0x04\n      add\n      tag_106\n      swap1\n      tag_67\n      jump\t// in\n    tag_106:\n      mload(0x40)\n      dup1\n      swap2\n      sub\n      swap1\n      revert\n    tag_105:\n        /* \"@openzeppelin/contracts@4.4.2/access/Ownable.sol\":2026:2027  0 */\n      0x00\n        /* \"@openzeppelin/contracts@4.4.2/access/Ownable.sol\":2006:2028  newOwner != address(0) */\n      0xffffffffffffffffffffffffffffffffffffffff\n      and\n        /* \"@openzeppelin/contracts@4.4.2/access/Ownable.sol\":2006:2014  newOwner */\n      dup2\n        /* \"@openzeppelin/contracts@4.4.2/access/Ownable.sol\":2006:2028  newOwner != address(0) */\n      0xffffffffffffffffffffffffffffffffffffffff\n      and\n      eq\n      iszero\n        /* \"@openzeppelin/contracts@4.4.2/access/Ownable.sol\":1998:2071  require(newOwner != address(0), \"Ownable: new owner is the zero address\") */\n      tag_108\n      jumpi\n      mload(0x40)\n      0x08c379a000000000000000000000000000000000000000000000000000000000\n      dup2\n      mstore\n      0x04\n      add\n      tag_109\n      swap1\n      tag_110\n      jump\t// in\n    tag_109:\n      mload(0x40)\n      dup1\n      swap2\n      sub\n      swap1\n      revert\n    tag_108:\n        /* \"@openzeppelin/contracts@4.4.2/access/Ownable.sol\":2081:2109  _transferOwnership(newOwner) */\n      tag_111\n        /* \"@openzeppelin/contracts@4.4.2/access/Ownable.sol\":2100:2108  newOwner */\n      dup2\n        /* \"@openzeppelin/contracts@4.4.2/access/Ownable.sol\":2081:2099  _transferOwnership */\n      tag_88\n        /* \"@openzeppelin/contracts@4.4.2/access/Ownable.sol\":2081:2109  _transferOwnership(newOwner) */\n      jump\t// in\n    tag_111:\n        /* \"@openzeppelin/contracts@4.4.2/access/Ownable.sol\":1918:2116  function transferOwnership(address newOwner) public virtual onlyOwner {... */\n      pop\n      jump\t// out\n        /* \"@openzeppelin/contracts@4.4.2/utils/Context.sol\":640:736  function _msgSender() internal view virtual returns (address) {... */\n    tag_63:\n        /* \"@openzeppelin/contracts@4.4.2/utils/Context.sol\":693:700  address */\n      0x00\n        /* \"@openzeppelin/contracts@4.4.2/utils/Context.sol\":719:729  msg.sender */\n      caller\n        /* \"@openzeppelin/contracts@4.4.2/utils/Context.sol\":712:729  return msg.sender */\n      swap1\n      pop\n        /* \"@openzeppelin/contracts@4.4.2/utils/Context.sol\":640:736  function _msgSender() internal view virtual returns (address) {... */\n      swap1\n      jump\t// out\n        /* \"@openzeppelin/contracts@4.4.2/access/Ownable.sol\":2270:2457  function _transferOwnership(address newOwner) internal virtual {... */\n    tag_88:\n        /* \"@openzeppelin/contracts@4.4.2/access/Ownable.sol\":2343:2359  address oldOwner */\n      0x00\n        /* \"@openzeppelin/contracts@4.4.2/access/Ownable.sol\":2362:2368  _owner */\n      dup1\n      0x00\n      swap1\n      sload\n      swap1\n      0x0100\n      exp\n      swap1\n      div\n      0xffffffffffffffffffffffffffffffffffffffff\n      and\n        /* \"@openzeppelin/contracts@4.4.2/access/Ownable.sol\":2343:2368  address oldOwner = _owner */\n      swap1\n      pop\n        /* \"@openzeppelin/contracts@4.4.2/access/Ownable.sol\":2387:2395  newOwner */\n      dup2\n        /* \"@openzeppelin/contracts@4.4.2/access/Ownable.sol\":2378:2384  _owner */\n      0x00\n      dup1\n        /* \"@openzeppelin/contracts@4.4.2/access/Ownable.sol\":2378:2395  _owner = newOwner */\n      0x0100\n      exp\n      dup2\n      sload\n      dup2\n      0xffffffffffffffffffffffffffffffffffffffff\n      mul\n      not\n      and\n      swap1\n      dup4\n      0xffffffffffffffffffffffffffffffffffffffff\n      and\n      mul\n      or\n      swap1\n      sstore\n      pop\n        /* \"@openzeppelin/contracts@4.4.2/access/Ownable.sol\":2441:2449  newOwner */\n      dup2\n        /* \"@openzeppelin/contracts@4.4.2/access/Ownable.sol\":2410:2450  OwnershipTransferred(oldOwner, newOwner) */\n      0xffffffffffffffffffffffffffffffffffffffff\n      and\n        /* \"@openzeppelin/contracts@4.4.2/access/Ownable.sol\":2431:2439  oldOwner */\n      dup2\n        /* \"@openzeppelin/contracts@4.4.2/access/Ownable.sol\":2410:2450  OwnershipTransferred(oldOwner, newOwner) */\n      0xffffffffffffffffffffffffffffffffffffffff\n      and\n      0x8be0079c531659141344cd1fd0a4f28419497f9722a3daafe3b4186f6b6457e0\n      mload(0x40)\n      mload(0x40)\n      dup1\n      swap2\n      sub\n      swap1\n      log3\n        /* \"@openzeppelin/contracts@4.4.2/access/Ownable.sol\":2270:2457  function _transferOwnership(address newOwner) internal virtual {... */\n      pop\n      pop\n      jump\t// out\n        /* \"#utility.yul\":23:639   */\n    tag_115:\n      0x00\n        /* \"#utility.yul\":154:245   */\n      tag_117\n        /* \"#utility.yul\":170:244   */\n      tag_118\n        /* \"#utility.yul\":237:243   */\n      dup5\n        /* \"#utility.yul\":170:244   */\n      tag_119\n      jump\t// in\n    tag_118:\n        /* \"#utility.yul\":154:245   */\n      tag_120\n      jump\t// in\n    tag_117:\n        /* \"#utility.yul\":145:245   */\n      swap1\n      pop\n        /* \"#utility.yul\":265:270   */\n      dup1\n        /* \"#utility.yul\":293:299   */\n      dup4\n        /* \"#utility.yul\":286:291   */\n      dup3\n        /* \"#utility.yul\":279:300   */\n      mstore\n        /* \"#utility.yul\":319:323   */\n      0x20\n        /* \"#utility.yul\":312:317   */\n      dup3\n        /* \"#utility.yul\":308:324   */\n      add\n        /* \"#utility.yul\":301:324   */\n      swap1\n      pop\n        /* \"#utility.yul\":344:350   */\n      dup3\n        /* \"#utility.yul\":375:376   */\n      0x00\n        /* \"#utility.yul\":360:633   */\n    tag_121:\n        /* \"#utility.yul\":385:391   */\n      dup6\n        /* \"#utility.yul\":382:383   */\n      dup2\n        /* \"#utility.yul\":379:392   */\n      lt\n        /* \"#utility.yul\":360:633   */\n      iszero\n      tag_123\n      jumpi\n        /* \"#utility.yul\":477:480   */\n      dup2\n        /* \"#utility.yul\":464:481   */\n      calldataload\n        /* \"#utility.yul\":456:462   */\n      dup6\n        /* \"#utility.yul\":452:482   */\n      add\n        /* \"#utility.yul\":507:554   */\n      tag_124\n        /* \"#utility.yul\":550:553   */\n      dup9\n        /* \"#utility.yul\":538:548   */\n      dup3\n        /* \"#utility.yul\":507:554   */\n      tag_125\n      jump\t// in\n    tag_124:\n        /* \"#utility.yul\":502:505   */\n      dup5\n        /* \"#utility.yul\":495:555   */\n      mstore\n        /* \"#utility.yul\":584:588   */\n      0x20\n        /* \"#utility.yul\":579:582   */\n      dup5\n        /* \"#utility.yul\":575:589   */\n      add\n        /* \"#utility.yul\":568:589   */\n      swap4\n      pop\n        /* \"#utility.yul\":618:622   */\n      0x20\n        /* \"#utility.yul\":613:616   */\n      dup4\n        /* \"#utility.yul\":609:623   */\n      add\n        /* \"#utility.yul\":602:623   */\n      swap3\n      pop\n        /* \"#utility.yul\":420:633   */\n      pop\n        /* \"#utility.yul\":407:408   */\n      0x01\n        /* \"#utility.yul\":404:405   */\n      dup2\n        /* \"#utility.yul\":400:409   */\n      add\n        /* \"#utility.yul\":395:409   */\n      swap1\n      pop\n        /* \"#utility.yul\":360:633   */\n      jump(tag_121)\n    tag_123:\n        /* \"#utility.yul\":364:378   */\n      pop\n        /* \"#utility.yul\":135:639   */\n      pop\n      pop\n      swap4\n      swap3\n      pop\n      pop\n      pop\n      jump\t// out\n        /* \"#utility.yul\":662:1285   */\n    tag_126:\n      0x00\n        /* \"#utility.yul\":783:864   */\n      tag_128\n        /* \"#utility.yul\":799:863   */\n      tag_129\n        /* \"#utility.yul\":856:862   */\n      dup5\n        /* \"#utility.yul\":799:863   */\n      tag_130\n      jump\t// in\n    tag_129:\n        /* \"#utility.yul\":783:864   */\n      tag_120\n      jump\t// in\n    tag_128:\n        /* \"#utility.yul\":774:864   */\n      swap1\n      pop\n        /* \"#utility.yul\":884:889   */\n      dup1\n        /* \"#utility.yul\":912:918   */\n      dup4\n        /* \"#utility.yul\":905:910   */\n      dup3\n        /* \"#utility.yul\":898:919   */\n      mstore\n        /* \"#utility.yul\":938:942   */\n      0x20\n        /* \"#utility.yul\":931:936   */\n      dup3\n        /* \"#utility.yul\":927:943   */\n      add\n        /* \"#utility.yul\":920:943   */\n      swap1\n      pop\n        /* \"#utility.yul\":963:969   */\n      dup3\n        /* \"#utility.yul\":1013:1016   */\n      dup6\n        /* \"#utility.yul\":1005:1009   */\n      0x20\n        /* \"#utility.yul\":997:1003   */\n      dup7\n        /* \"#utility.yul\":993:1010   */\n      mul\n        /* \"#utility.yul\":988:991   */\n      dup3\n        /* \"#utility.yul\":984:1011   */\n      add\n        /* \"#utility.yul\":981:1017   */\n      gt\n        /* \"#utility.yul\":978:980   */\n      iszero\n      tag_131\n      jumpi\n        /* \"#utility.yul\":1030:1031   */\n      0x00\n        /* \"#utility.yul\":1027:1028   */\n      dup1\n        /* \"#utility.yul\":1020:1032   */\n      revert\n        /* \"#utility.yul\":978:980   */\n    tag_131:\n        /* \"#utility.yul\":1058:1059   */\n      0x00\n        /* \"#utility.yul\":1043:1279   */\n    tag_132:\n        /* \"#utility.yul\":1068:1074   */\n      dup6\n        /* \"#utility.yul\":1065:1066   */\n      dup2\n        /* \"#utility.yul\":1062:1075   */\n      lt\n        /* \"#utility.yul\":1043:1279   */\n      iszero\n      tag_134\n      jumpi\n        /* \"#utility.yul\":1135:1138   */\n      dup2\n        /* \"#utility.yul\":1163:1200   */\n      tag_135\n        /* \"#utility.yul\":1196:1199   */\n      dup9\n        /* \"#utility.yul\":1184:1194   */\n      dup3\n        /* \"#utility.yul\":1163:1200   */\n      tag_136\n      jump\t// in\n    tag_135:\n        /* \"#utility.yul\":1158:1161   */\n      dup5\n        /* \"#utility.yul\":1151:1201   */\n      mstore\n        /* \"#utility.yul\":1230:1234   */\n      0x20\n        /* \"#utility.yul\":1225:1228   */\n      dup5\n        /* \"#utility.yul\":1221:1235   */\n      add\n        /* \"#utility.yul\":1214:1235   */\n      swap4\n      pop\n        /* \"#utility.yul\":1264:1268   */\n      0x20\n        /* \"#utility.yul\":1259:1262   */\n      dup4\n        /* \"#utility.yul\":1255:1269   */\n      add\n        /* \"#utility.yul\":1248:1269   */\n      swap3\n      pop\n        /* \"#utility.yul\":1103:1279   */\n      pop\n        /* \"#utility.yul\":1090:1091   */\n      0x01\n        /* \"#utility.yul\":1087:1088   */\n      dup2\n        /* \"#utility.yul\":1083:1092   */\n      add\n        /* \"#utility.yul\":1078:1092   */\n      swap1\n      pop\n        /* \"#utility.yul\":1043:1279   */\n      jump(tag_132)\n    tag_134:\n        /* \"#utility.yul\":1047:1061   */\n      pop\n        /* \"#utility.yul\":764:1285   */\n      pop\n      pop\n      swap4\n      swap3\n      pop\n      pop\n      pop\n      jump\t// out\n        /* \"#utility.yul\":1291:1636   */\n    tag_137:\n      0x00\n        /* \"#utility.yul\":1394:1460   */\n      tag_139\n        /* \"#utility.yul\":1410:1459   */\n      tag_140\n        /* \"#utility.yul\":1452:1458   */\n      dup5\n        /* \"#utility.yul\":1410:1459   */\n      tag_141\n      jump\t// in\n    tag_140:\n        /* \"#utility.yul\":1394:1460   */\n      tag_120\n      jump\t// in\n    tag_139:\n        /* \"#utility.yul\":1385:1460   */\n      swap1\n      pop\n        /* \"#utility.yul\":1483:1489   */\n      dup3\n        /* \"#utility.yul\":1476:1481   */\n      dup2\n        /* \"#utility.yul\":1469:1490   */\n      mstore\n        /* \"#utility.yul\":1521:1525   */\n      0x20\n        /* \"#utility.yul\":1514:1519   */\n      dup2\n        /* \"#utility.yul\":1510:1526   */\n      add\n        /* \"#utility.yul\":1559:1562   */\n      dup5\n        /* \"#utility.yul\":1550:1556   */\n      dup5\n        /* \"#utility.yul\":1545:1548   */\n      dup5\n        /* \"#utility.yul\":1541:1557   */\n      add\n        /* \"#utility.yul\":1538:1563   */\n      gt\n        /* \"#utility.yul\":1535:1537   */\n      iszero\n      tag_142\n      jumpi\n        /* \"#utility.yul\":1576:1577   */\n      0x00\n        /* \"#utility.yul\":1573:1574   */\n      dup1\n        /* \"#utility.yul\":1566:1578   */\n      revert\n        /* \"#utility.yul\":1535:1537   */\n    tag_142:\n        /* \"#utility.yul\":1589:1630   */\n      tag_143\n        /* \"#utility.yul\":1623:1629   */\n      dup5\n        /* \"#utility.yul\":1618:1621   */\n      dup3\n        /* \"#utility.yul\":1613:1616   */\n      dup6\n        /* \"#utility.yul\":1589:1630   */\n      tag_144\n      jump\t// in\n    tag_143:\n        /* \"#utility.yul\":1375:1636   */\n      pop\n      swap4\n      swap3\n      pop\n      pop\n      pop\n      jump\t// out\n        /* \"#utility.yul\":1642:1781   */\n    tag_145:\n      0x00\n        /* \"#utility.yul\":1726:1732   */\n      dup2\n        /* \"#utility.yul\":1713:1733   */\n      calldataload\n        /* \"#utility.yul\":1704:1733   */\n      swap1\n      pop\n        /* \"#utility.yul\":1742:1775   */\n      tag_147\n        /* \"#utility.yul\":1769:1774   */\n      dup2\n        /* \"#utility.yul\":1742:1775   */\n      tag_148\n      jump\t// in\n    tag_147:\n        /* \"#utility.yul\":1694:1781   */\n      swap3\n      swap2\n      pop\n      pop\n      jump\t// out\n        /* \"#utility.yul\":1803:2126   */\n    tag_149:\n      0x00\n        /* \"#utility.yul\":1933:1936   */\n      dup3\n        /* \"#utility.yul\":1926:1930   */\n      0x1f\n        /* \"#utility.yul\":1918:1924   */\n      dup4\n        /* \"#utility.yul\":1914:1931   */\n      add\n        /* \"#utility.yul\":1910:1937   */\n      slt\n        /* \"#utility.yul\":1900:1902   */\n      tag_151\n      jumpi\n        /* \"#utility.yul\":1951:1952   */\n      0x00\n        /* \"#utility.yul\":1948:1949   */\n      dup1\n        /* \"#utility.yul\":1941:1953   */\n      revert\n        /* \"#utility.yul\":1900:1902   */\n    tag_151:\n        /* \"#utility.yul\":1991:1997   */\n      dup2\n        /* \"#utility.yul\":1978:1998   */\n      calldataload\n        /* \"#utility.yul\":2016:2120   */\n      tag_152\n        /* \"#utility.yul\":2116:2119   */\n      dup5\n        /* \"#utility.yul\":2108:2114   */\n      dup3\n        /* \"#utility.yul\":2101:2105   */\n      0x20\n        /* \"#utility.yul\":2093:2099   */\n      dup7\n        /* \"#utility.yul\":2089:2106   */\n      add\n        /* \"#utility.yul\":2016:2120   */\n      tag_115\n      jump\t// in\n    tag_152:\n        /* \"#utility.yul\":2007:2120   */\n      swap2\n      pop\n        /* \"#utility.yul\":1890:2126   */\n      pop\n      swap3\n      swap2\n      pop\n      pop\n      jump\t// out\n        /* \"#utility.yul\":2149:2452   */\n    tag_153:\n      0x00\n        /* \"#utility.yul\":2269:2272   */\n      dup3\n        /* \"#utility.yul\":2262:2266   */\n      0x1f\n        /* \"#utility.yul\":2254:2260   */\n      dup4\n        /* \"#utility.yul\":2250:2267   */\n      add\n        /* \"#utility.yul\":2246:2273   */\n      slt\n        /* \"#utility.yul\":2236:2238   */\n      tag_155\n      jumpi\n        /* \"#utility.yul\":2287:2288   */\n      0x00\n        /* \"#utility.yul\":2284:2285   */\n      dup1\n        /* \"#utility.yul\":2277:2289   */\n      revert\n        /* \"#utility.yul\":2236:2238   */\n    tag_155:\n        /* \"#utility.yul\":2327:2333   */\n      dup2\n        /* \"#utility.yul\":2314:2334   */\n      calldataload\n        /* \"#utility.yul\":2352:2446   */\n      tag_156\n        /* \"#utility.yul\":2442:2445   */\n      dup5\n        /* \"#utility.yul\":2434:2440   */\n      dup3\n        /* \"#utility.yul\":2427:2431   */\n      0x20\n        /* \"#utility.yul\":2419:2425   */\n      dup7\n        /* \"#utility.yul\":2415:2432   */\n      add\n        /* \"#utility.yul\":2352:2446   */\n      tag_126\n      jump\t// in\n    tag_156:\n        /* \"#utility.yul\":2343:2446   */\n      swap2\n      pop\n        /* \"#utility.yul\":2226:2452   */\n      pop\n      swap3\n      swap2\n      pop\n      pop\n      jump\t// out\n        /* \"#utility.yul\":2472:2745   */\n    tag_125:\n      0x00\n        /* \"#utility.yul\":2577:2580   */\n      dup3\n        /* \"#utility.yul\":2570:2574   */\n      0x1f\n        /* \"#utility.yul\":2562:2568   */\n      dup4\n        /* \"#utility.yul\":2558:2575   */\n      add\n        /* \"#utility.yul\":2554:2581   */\n      slt\n        /* \"#utility.yul\":2544:2546   */\n      tag_158\n      jumpi\n        /* \"#utility.yul\":2595:2596   */\n      0x00\n        /* \"#utility.yul\":2592:2593   */\n      dup1\n        /* \"#utility.yul\":2585:2597   */\n      revert\n        /* \"#utility.yul\":2544:2546   */\n    tag_158:\n        /* \"#utility.yul\":2635:2641   */\n      dup2\n        /* \"#utility.yul\":2622:2642   */\n      calldataload\n        /* \"#utility.yul\":2660:2739   */\n      tag_159\n        /* \"#utility.yul\":2735:2738   */\n      dup5\n        /* \"#utility.yul\":2727:2733   */\n      dup3\n        /* \"#utility.yul\":2720:2724   */\n      0x20\n        /* \"#utility.yul\":2712:2718   */\n      dup7\n        /* \"#utility.yul\":2708:2725   */\n      add\n        /* \"#utility.yul\":2660:2739   */\n      tag_137\n      jump\t// in\n    tag_159:\n        /* \"#utility.yul\":2651:2739   */\n      swap2\n      pop\n        /* \"#utility.yul\":2534:2745   */\n      pop\n      swap3\n      swap2\n      pop\n      pop\n      jump\t// out\n        /* \"#utility.yul\":2751:2890   */\n    tag_136:\n      0x00\n        /* \"#utility.yul\":2835:2841   */\n      dup2\n        /* \"#utility.yul\":2822:2842   */\n      calldataload\n        /* \"#utility.yul\":2813:2842   */\n      swap1\n      pop\n        /* \"#utility.yul\":2851:2884   */\n      tag_161\n        /* \"#utility.yul\":2878:2883   */\n      dup2\n        /* \"#utility.yul\":2851:2884   */\n      tag_162\n      jump\t// in\n    tag_161:\n        /* \"#utility.yul\":2803:2890   */\n      swap3\n      swap2\n      pop\n      pop\n      jump\t// out\n        /* \"#utility.yul\":2896:3158   */\n    tag_36:\n      0x00\n        /* \"#utility.yul\":3004:3006   */\n      0x20\n        /* \"#utility.yul\":2992:3001   */\n      dup3\n        /* \"#utility.yul\":2983:2990   */\n      dup5\n        /* \"#utility.yul\":2979:3002   */\n      sub\n        /* \"#utility.yul\":2975:3007   */\n      slt\n        /* \"#utility.yul\":2972:2974   */\n      iszero\n      tag_164\n      jumpi\n        /* \"#utility.yul\":3020:3021   */\n      0x00\n        /* \"#utility.yul\":3017:3018   */\n      dup1\n        /* \"#utility.yul\":3010:3022   */\n      revert\n        /* \"#utility.yul\":2972:2974   */\n    tag_164:\n        /* \"#utility.yul\":3063:3064   */\n      0x00\n        /* \"#utility.yul\":3088:3141   */\n      tag_165\n        /* \"#utility.yul\":3133:3140   */\n      dup5\n        /* \"#utility.yul\":3124:3130   */\n      dup3\n        /* \"#utility.yul\":3113:3122   */\n      dup6\n        /* \"#utility.yul\":3109:3131   */\n      add\n        /* \"#utility.yul\":3088:3141   */\n      tag_145\n      jump\t// in\n    tag_165:\n        /* \"#utility.yul\":3078:3141   */\n      swap2\n      pop\n        /* \"#utility.yul\":3034:3151   */\n      pop\n        /* \"#utility.yul\":2962:3158   */\n      swap3\n      swap2\n      pop\n      pop\n      jump\t// out\n        /* \"#utility.yul\":3164:3877   */\n    tag_55:\n      0x00\n      dup1\n        /* \"#utility.yul\":3349:3351   */\n      0x40\n        /* \"#utility.yul\":3337:3346   */\n      dup4\n        /* \"#utility.yul\":3328:3335   */\n      dup6\n        /* \"#utility.yul\":3324:3347   */\n      sub\n        /* \"#utility.yul\":3320:3352   */\n      slt\n        /* \"#utility.yul\":3317:3319   */\n      iszero\n      tag_167\n      jumpi\n        /* \"#utility.yul\":3365:3366   */\n      0x00\n        /* \"#utility.yul\":3362:3363   */\n      dup1\n        /* \"#utility.yul\":3355:3367   */\n      revert\n        /* \"#utility.yul\":3317:3319   */\n    tag_167:\n        /* \"#utility.yul\":3436:3437   */\n      0x00\n        /* \"#utility.yul\":3425:3434   */\n      dup4\n        /* \"#utility.yul\":3421:3438   */\n      add\n        /* \"#utility.yul\":3408:3439   */\n      calldataload\n        /* \"#utility.yul\":3466:3484   */\n      0xffffffffffffffff\n        /* \"#utility.yul\":3458:3464   */\n      dup2\n        /* \"#utility.yul\":3455:3485   */\n      gt\n        /* \"#utility.yul\":3452:3454   */\n      iszero\n      tag_168\n      jumpi\n        /* \"#utility.yul\":3498:3499   */\n      0x00\n        /* \"#utility.yul\":3495:3496   */\n      dup1\n        /* \"#utility.yul\":3488:3500   */\n      revert\n        /* \"#utility.yul\":3452:3454   */\n    tag_168:\n        /* \"#utility.yul\":3526:3604   */\n      tag_169\n        /* \"#utility.yul\":3596:3603   */\n      dup6\n        /* \"#utility.yul\":3587:3593   */\n      dup3\n        /* \"#utility.yul\":3576:3585   */\n      dup7\n        /* \"#utility.yul\":3572:3594   */\n      add\n        /* \"#utility.yul\":3526:3604   */\n      tag_153\n      jump\t// in\n    tag_169:\n        /* \"#utility.yul\":3516:3604   */\n      swap3\n      pop\n        /* \"#utility.yul\":3379:3614   */\n      pop\n        /* \"#utility.yul\":3681:3683   */\n      0x20\n        /* \"#utility.yul\":3670:3679   */\n      dup4\n        /* \"#utility.yul\":3666:3684   */\n      add\n        /* \"#utility.yul\":3653:3685   */\n      calldataload\n        /* \"#utility.yul\":3712:3730   */\n      0xffffffffffffffff\n        /* \"#utility.yul\":3704:3710   */\n      dup2\n        /* \"#utility.yul\":3701:3731   */\n      gt\n        /* \"#utility.yul\":3698:3700   */\n      iszero\n      tag_170\n      jumpi\n        /* \"#utility.yul\":3744:3745   */\n      0x00\n        /* \"#utility.yul\":3741:3742   */\n      dup1\n        /* \"#utility.yul\":3734:3746   */\n      revert\n        /* \"#utility.yul\":3698:3700   */\n    tag_170:\n        /* \"#utility.yul\":3772:3860   */\n      tag_171\n        /* \"#utility.yul\":3852:3859   */\n      dup6\n        /* \"#utility.yul\":3843:3849   */\n      dup3\n        /* \"#utility.yul\":3832:3841   */\n      dup7\n        /* \"#utility.yul\":3828:3850   */\n      add\n        /* \"#utility.yul\":3772:3860   */\n      tag_149\n      jump\t// in\n    tag_171:\n        /* \"#utility.yul\":3762:3860   */\n      swap2\n      pop\n        /* \"#utility.yul\":3624:3870   */\n      pop\n        /* \"#utility.yul\":3307:3877   */\n      swap3\n      pop\n      swap3\n      swap1\n      pop\n      jump\t// out\n        /* \"#utility.yul\":3883:4145   */\n    tag_27:\n      0x00\n        /* \"#utility.yul\":3991:3993   */\n      0x20\n        /* \"#utility.yul\":3979:3988   */\n      dup3\n        /* \"#utility.yul\":3970:3977   */\n      dup5\n        /* \"#utility.yul\":3966:3989   */\n      sub\n        /* \"#utility.yul\":3962:3994   */\n      slt\n        /* \"#utility.yul\":3959:3961   */\n      iszero\n      tag_173\n      jumpi\n        /* \"#utility.yul\":4007:4008   */\n      0x00\n        /* \"#utility.yul\":4004:4005   */\n      dup1\n        /* \"#utility.yul\":3997:4009   */\n      revert\n        /* \"#utility.yul\":3959:3961   */\n    tag_173:\n        /* \"#utility.yul\":4050:4051   */\n      0x00\n        /* \"#utility.yul\":4075:4128   */\n      tag_174\n        /* \"#utility.yul\":4120:4127   */\n      dup5\n        /* \"#utility.yul\":4111:4117   */\n      dup3\n        /* \"#utility.yul\":4100:4109   */\n      dup6\n        /* \"#utility.yul\":4096:4118   */\n      add\n        /* \"#utility.yul\":4075:4128   */\n      tag_136\n      jump\t// in\n    tag_174:\n        /* \"#utility.yul\":4065:4128   */\n      swap2\n      pop\n        /* \"#utility.yul\":4021:4138   */\n      pop\n        /* \"#utility.yul\":3949:4145   */\n      swap3\n      swap2\n      pop\n      pop\n      jump\t// out\n        /* \"#utility.yul\":4151:4347   */\n    tag_175:\n      0x00\n        /* \"#utility.yul\":4275:4341   */\n      tag_177\n        /* \"#utility.yul\":4337:4340   */\n      dup4\n        /* \"#utility.yul\":4329:4335   */\n      dup4\n        /* \"#utility.yul\":4275:4341   */\n      tag_178\n      jump\t// in\n    tag_177:\n        /* \"#utility.yul\":4261:4341   */\n      swap1\n      pop\n        /* \"#utility.yul\":4251:4347   */\n      swap3\n      swap2\n      pop\n      pop\n      jump\t// out\n        /* \"#utility.yul\":4353:4532   */\n    tag_179:\n      0x00\n        /* \"#utility.yul\":4443:4489   */\n      tag_181\n        /* \"#utility.yul\":4485:4488   */\n      dup4\n        /* \"#utility.yul\":4477:4483   */\n      dup4\n        /* \"#utility.yul\":4443:4489   */\n      tag_182\n      jump\t// in\n    tag_181:\n        /* \"#utility.yul\":4521:4525   */\n      0x20\n        /* \"#utility.yul\":4516:4519   */\n      dup4\n        /* \"#utility.yul\":4512:4526   */\n      add\n        /* \"#utility.yul\":4498:4526   */\n      swap1\n      pop\n        /* \"#utility.yul\":4433:4532   */\n      swap3\n      swap2\n      pop\n      pop\n      jump\t// out\n        /* \"#utility.yul\":4538:4656   */\n    tag_183:\n        /* \"#utility.yul\":4625:4649   */\n      tag_185\n        /* \"#utility.yul\":4643:4648   */\n      dup2\n        /* \"#utility.yul\":4625:4649   */\n      tag_186\n      jump\t// in\n    tag_185:\n        /* \"#utility.yul\":4620:4623   */\n      dup3\n        /* \"#utility.yul\":4613:4650   */\n      mstore\n        /* \"#utility.yul\":4603:4656   */\n      pop\n      pop\n      jump\t// out\n        /* \"#utility.yul\":4690:5681   */\n    tag_187:\n      0x00\n        /* \"#utility.yul\":4858:4922   */\n      tag_189\n        /* \"#utility.yul\":4916:4921   */\n      dup3\n        /* \"#utility.yul\":4858:4922   */\n      tag_190\n      jump\t// in\n    tag_189:\n        /* \"#utility.yul\":4938:5034   */\n      tag_191\n        /* \"#utility.yul\":5027:5033   */\n      dup2\n        /* \"#utility.yul\":5022:5025   */\n      dup6\n        /* \"#utility.yul\":4938:5034   */\n      tag_192\n      jump\t// in\n    tag_191:\n        /* \"#utility.yul\":4931:5034   */\n      swap4\n      pop\n        /* \"#utility.yul\":5060:5063   */\n      dup4\n        /* \"#utility.yul\":5105:5109   */\n      0x20\n        /* \"#utility.yul\":5097:5103   */\n      dup3\n        /* \"#utility.yul\":5093:5110   */\n      mul\n        /* \"#utility.yul\":5088:5091   */\n      dup6\n        /* \"#utility.yul\":5084:5111   */\n      add\n        /* \"#utility.yul\":5135:5201   */\n      tag_193\n        /* \"#utility.yul\":5195:5200   */\n      dup6\n        /* \"#utility.yul\":5135:5201   */\n      tag_194\n      jump\t// in\n    tag_193:\n        /* \"#utility.yul\":5224:5231   */\n      dup1\n        /* \"#utility.yul\":5255:5256   */\n      0x00\n        /* \"#utility.yul\":5240:5636   */\n    tag_195:\n        /* \"#utility.yul\":5265:5271   */\n      dup6\n        /* \"#utility.yul\":5262:5263   */\n      dup2\n        /* \"#utility.yul\":5259:5272   */\n      lt\n        /* \"#utility.yul\":5240:5636   */\n      iszero\n      tag_197\n      jumpi\n        /* \"#utility.yul\":5336:5345   */\n      dup5\n        /* \"#utility.yul\":5330:5334   */\n      dup5\n        /* \"#utility.yul\":5326:5346   */\n      sub\n        /* \"#utility.yul\":5321:5324   */\n      dup10\n        /* \"#utility.yul\":5314:5347   */\n      mstore\n        /* \"#utility.yul\":5387:5393   */\n      dup2\n        /* \"#utility.yul\":5381:5394   */\n      mload\n        /* \"#utility.yul\":5415:5499   */\n      tag_198\n        /* \"#utility.yul\":5494:5498   */\n      dup6\n        /* \"#utility.yul\":5479:5492   */\n      dup3\n        /* \"#utility.yul\":5415:5499   */\n      tag_175\n      jump\t// in\n    tag_198:\n        /* \"#utility.yul\":5407:5499   */\n      swap5\n      pop\n        /* \"#utility.yul\":5522:5592   */\n      tag_199\n        /* \"#utility.yul\":5585:5591   */\n      dup4\n        /* \"#utility.yul\":5522:5592   */\n      tag_200\n      jump\t// in\n    tag_199:\n        /* \"#utility.yul\":5512:5592   */\n      swap3\n      pop\n        /* \"#utility.yul\":5621:5625   */\n      0x20\n        /* \"#utility.yul\":5616:5619   */\n      dup11\n        /* \"#utility.yul\":5612:5626   */\n      add\n        /* \"#utility.yul\":5605:5626   */\n      swap10\n      pop\n        /* \"#utility.yul\":5300:5636   */\n      pop\n        /* \"#utility.yul\":5287:5288   */\n      0x01\n        /* \"#utility.yul\":5284:5285   */\n      dup2\n        /* \"#utility.yul\":5280:5289   */\n      add\n        /* \"#utility.yul\":5275:5289   */\n      swap1\n      pop\n        /* \"#utility.yul\":5240:5636   */\n      jump(tag_195)\n    tag_197:\n        /* \"#utility.yul\":5244:5258   */\n      pop\n        /* \"#utility.yul\":5652:5656   */\n      dup3\n        /* \"#utility.yul\":5645:5656   */\n      swap8\n      pop\n        /* \"#utility.yul\":5672:5675   */\n      dup8\n        /* \"#utility.yul\":5665:5675   */\n      swap6\n      pop\n        /* \"#utility.yul\":4834:5681   */\n      pop\n      pop\n      pop\n      pop\n      pop\n      swap3\n      swap2\n      pop\n      pop\n      jump\t// out\n        /* \"#utility.yul\":5717:6449   */\n    tag_201:\n      0x00\n        /* \"#utility.yul\":5865:5919   */\n      tag_203\n        /* \"#utility.yul\":5913:5918   */\n      dup3\n        /* \"#utility.yul\":5865:5919   */\n      tag_204\n      jump\t// in\n    tag_203:\n        /* \"#utility.yul\":5935:6021   */\n      tag_205\n        /* \"#utility.yul\":6014:6020   */\n      dup2\n        /* \"#utility.yul\":6009:6012   */\n      dup6\n        /* \"#utility.yul\":5935:6021   */\n      tag_206\n      jump\t// in\n    tag_205:\n        /* \"#utility.yul\":5928:6021   */\n      swap4\n      pop\n        /* \"#utility.yul\":6045:6101   */\n      tag_207\n        /* \"#utility.yul\":6095:6100   */\n      dup4\n        /* \"#utility.yul\":6045:6101   */\n      tag_208\n      jump\t// in\n    tag_207:\n        /* \"#utility.yul\":6124:6131   */\n      dup1\n        /* \"#utility.yul\":6155:6156   */\n      0x00\n        /* \"#utility.yul\":6140:6424   */\n    tag_209:\n        /* \"#utility.yul\":6165:6171   */\n      dup4\n        /* \"#utility.yul\":6162:6163   */\n      dup2\n        /* \"#utility.yul\":6159:6172   */\n      lt\n        /* \"#utility.yul\":6140:6424   */\n      iszero\n      tag_211\n      jumpi\n        /* \"#utility.yul\":6241:6247   */\n      dup2\n        /* \"#utility.yul\":6235:6248   */\n      mload\n        /* \"#utility.yul\":6268:6331   */\n      tag_212\n        /* \"#utility.yul\":6327:6330   */\n      dup9\n        /* \"#utility.yul\":6312:6325   */\n      dup3\n        /* \"#utility.yul\":6268:6331   */\n      tag_179\n      jump\t// in\n    tag_212:\n        /* \"#utility.yul\":6261:6331   */\n      swap8\n      pop\n        /* \"#utility.yul\":6354:6414   */\n      tag_213\n        /* \"#utility.yul\":6407:6413   */\n      dup4\n        /* \"#utility.yul\":6354:6414   */\n      tag_214\n      jump\t// in\n    tag_213:\n        /* \"#utility.yul\":6344:6414   */\n      swap3\n      pop\n        /* \"#utility.yul\":6200:6424   */\n      pop\n        /* \"#utility.yul\":6187:6188   */\n      0x01\n        /* \"#utility.yul\":6184:6185   */\n      dup2\n        /* \"#utility.yul\":6180:6189   */\n      add\n        /* \"#utility.yul\":6175:6189   */\n      swap1\n      pop\n        /* \"#utility.yul\":6140:6424   */\n      jump(tag_209)\n    tag_211:\n        /* \"#utility.yul\":6144:6158   */\n      pop\n        /* \"#utility.yul\":6440:6443   */\n      dup6\n        /* \"#utility.yul\":6433:6443   */\n      swap4\n      pop\n        /* \"#utility.yul\":5841:6449   */\n      pop\n      pop\n      pop\n      swap3\n      swap2\n      pop\n      pop\n      jump\t// out\n        /* \"#utility.yul\":6455:6564   */\n    tag_215:\n        /* \"#utility.yul\":6536:6557   */\n      tag_217\n        /* \"#utility.yul\":6551:6556   */\n      dup2\n        /* \"#utility.yul\":6536:6557   */\n      tag_218\n      jump\t// in\n    tag_217:\n        /* \"#utility.yul\":6531:6534   */\n      dup3\n        /* \"#utility.yul\":6524:6558   */\n      mstore\n        /* \"#utility.yul\":6514:6564   */\n      pop\n      pop\n      jump\t// out\n        /* \"#utility.yul\":6570:6727   */\n    tag_219:\n        /* \"#utility.yul\":6670:6720   */\n      tag_221\n        /* \"#utility.yul\":6714:6719   */\n      dup2\n        /* \"#utility.yul\":6670:6720   */\n      tag_222\n      jump\t// in\n    tag_221:\n        /* \"#utility.yul\":6665:6668   */\n      dup3\n        /* \"#utility.yul\":6658:6721   */\n      mstore\n        /* \"#utility.yul\":6648:6727   */\n      pop\n      pop\n      jump\t// out\n        /* \"#utility.yul\":6733:7077   */\n    tag_178:\n      0x00\n        /* \"#utility.yul\":6839:6878   */\n      tag_224\n        /* \"#utility.yul\":6872:6877   */\n      dup3\n        /* \"#utility.yul\":6839:6878   */\n      tag_225\n      jump\t// in\n    tag_224:\n        /* \"#utility.yul\":6894:6955   */\n      tag_226\n        /* \"#utility.yul\":6948:6954   */\n      dup2\n        /* \"#utility.yul\":6943:6946   */\n      dup6\n        /* \"#utility.yul\":6894:6955   */\n      tag_227\n      jump\t// in\n    tag_226:\n        /* \"#utility.yul\":6887:6955   */\n      swap4\n      pop\n        /* \"#utility.yul\":6964:7016   */\n      tag_228\n        /* \"#utility.yul\":7009:7015   */\n      dup2\n        /* \"#utility.yul\":7004:7007   */\n      dup6\n        /* \"#utility.yul\":6997:7001   */\n      0x20\n        /* \"#utility.yul\":6990:6995   */\n      dup7\n        /* \"#utility.yul\":6986:7002   */\n      add\n        /* \"#utility.yul\":6964:7016   */\n      tag_229\n      jump\t// in\n    tag_228:\n        /* \"#utility.yul\":7041:7070   */\n      tag_230\n        /* \"#utility.yul\":7063:7069   */\n      dup2\n        /* \"#utility.yul\":7041:7070   */\n      tag_231\n      jump\t// in\n    tag_230:\n        /* \"#utility.yul\":7036:7039   */\n      dup5\n        /* \"#utility.yul\":7032:7071   */\n      add\n        /* \"#utility.yul\":7025:7071   */\n      swap2\n      pop\n        /* \"#utility.yul\":6815:7077   */\n      pop\n      swap3\n      swap2\n      pop\n      pop\n      jump\t// out\n        /* \"#utility.yul\":7083:7449   */\n    tag_232:\n      0x00\n        /* \"#utility.yul\":7246:7313   */\n      tag_234\n        /* \"#utility.yul\":7310:7312   */\n      0x26\n        /* \"#utility.yul\":7305:7308   */\n      dup4\n        /* \"#utility.yul\":7246:7313   */\n      tag_235\n      jump\t// in\n    tag_234:\n        /* \"#utility.yul\":7239:7313   */\n      swap2\n      pop\n        /* \"#utility.yul\":7322:7415   */\n      tag_236\n        /* \"#utility.yul\":7411:7414   */\n      dup3\n        /* \"#utility.yul\":7322:7415   */\n      tag_237\n      jump\t// in\n    tag_236:\n        /* \"#utility.yul\":7440:7442   */\n      0x40\n        /* \"#utility.yul\":7435:7438   */\n      dup3\n        /* \"#utility.yul\":7431:7443   */\n      add\n        /* \"#utility.yul\":7424:7443   */\n      swap1\n      pop\n        /* \"#utility.yul\":7229:7449   */\n      swap2\n      swap1\n      pop\n      jump\t// out\n        /* \"#utility.yul\":7455:7821   */\n    tag_238:\n      0x00\n        /* \"#utility.yul\":7618:7685   */\n      tag_240\n        /* \"#utility.yul\":7682:7684   */\n      0x20\n        /* \"#utility.yul\":7677:7680   */\n      dup4\n        /* \"#utility.yul\":7618:7685   */\n      tag_235\n      jump\t// in\n    tag_240:\n        /* \"#utility.yul\":7611:7685   */\n      swap2\n      pop\n        /* \"#utility.yul\":7694:7787   */\n      tag_241\n        /* \"#utility.yul\":7783:7786   */\n      dup3\n        /* \"#utility.yul\":7694:7787   */\n      tag_242\n      jump\t// in\n    tag_241:\n        /* \"#utility.yul\":7812:7814   */\n      0x20\n        /* \"#utility.yul\":7807:7810   */\n      dup3\n        /* \"#utility.yul\":7803:7815   */\n      add\n        /* \"#utility.yul\":7796:7815   */\n      swap1\n      pop\n        /* \"#utility.yul\":7601:7821   */\n      swap2\n      swap1\n      pop\n      jump\t// out\n        /* \"#utility.yul\":7827:7935   */\n    tag_182:\n        /* \"#utility.yul\":7904:7928   */\n      tag_244\n        /* \"#utility.yul\":7922:7927   */\n      dup2\n        /* \"#utility.yul\":7904:7928   */\n      tag_245\n      jump\t// in\n    tag_244:\n        /* \"#utility.yul\":7899:7902   */\n      dup3\n        /* \"#utility.yul\":7892:7929   */\n      mstore\n        /* \"#utility.yul\":7882:7935   */\n      pop\n      pop\n      jump\t// out\n        /* \"#utility.yul\":7941:8059   */\n    tag_246:\n        /* \"#utility.yul\":8028:8052   */\n      tag_248\n        /* \"#utility.yul\":8046:8051   */\n      dup2\n        /* \"#utility.yul\":8028:8052   */\n      tag_245\n      jump\t// in\n    tag_248:\n        /* \"#utility.yul\":8023:8026   */\n      dup3\n        /* \"#utility.yul\":8016:8053   */\n      mstore\n        /* \"#utility.yul\":8006:8059   */\n      pop\n      pop\n      jump\t// out\n        /* \"#utility.yul\":8065:8287   */\n    tag_18:\n      0x00\n        /* \"#utility.yul\":8196:8198   */\n      0x20\n        /* \"#utility.yul\":8185:8194   */\n      dup3\n        /* \"#utility.yul\":8181:8199   */\n      add\n        /* \"#utility.yul\":8173:8199   */\n      swap1\n      pop\n        /* \"#utility.yul\":8209:8280   */\n      tag_250\n        /* \"#utility.yul\":8277:8278   */\n      0x00\n        /* \"#utility.yul\":8266:8275   */\n      dup4\n        /* \"#utility.yul\":8262:8279   */\n      add\n        /* \"#utility.yul\":8253:8259   */\n      dup5\n        /* \"#utility.yul\":8209:8280   */\n      tag_183\n      jump\t// in\n    tag_250:\n        /* \"#utility.yul\":8163:8287   */\n      swap3\n      swap2\n      pop\n      pop\n      jump\t// out\n        /* \"#utility.yul\":8293:8967   */\n    tag_98:\n      0x00\n        /* \"#utility.yul\":8572:8574   */\n      0x40\n        /* \"#utility.yul\":8561:8570   */\n      dup3\n        /* \"#utility.yul\":8557:8575   */\n      add\n        /* \"#utility.yul\":8549:8575   */\n      swap1\n      pop\n        /* \"#utility.yul\":8621:8630   */\n      dup2\n        /* \"#utility.yul\":8615:8619   */\n      dup2\n        /* \"#utility.yul\":8611:8631   */\n      sub\n        /* \"#utility.yul\":8607:8608   */\n      0x00\n        /* \"#utility.yul\":8596:8605   */\n      dup4\n        /* \"#utility.yul\":8592:8609   */\n      add\n        /* \"#utility.yul\":8585:8632   */\n      mstore\n        /* \"#utility.yul\":8649:8757   */\n      tag_252\n        /* \"#utility.yul\":8752:8756   */\n      dup2\n        /* \"#utility.yul\":8743:8749   */\n      dup6\n        /* \"#utility.yul\":8649:8757   */\n      tag_201\n      jump\t// in\n    tag_252:\n        /* \"#utility.yul\":8641:8757   */\n      swap1\n      pop\n        /* \"#utility.yul\":8804:8813   */\n      dup2\n        /* \"#utility.yul\":8798:8802   */\n      dup2\n        /* \"#utility.yul\":8794:8814   */\n      sub\n        /* \"#utility.yul\":8789:8791   */\n      0x20\n        /* \"#utility.yul\":8778:8787   */\n      dup4\n        /* \"#utility.yul\":8774:8792   */\n      add\n        /* \"#utility.yul\":8767:8815   */\n      mstore\n        /* \"#utility.yul\":8832:8960   */\n      tag_253\n        /* \"#utility.yul\":8955:8959   */\n      dup2\n        /* \"#utility.yul\":8946:8952   */\n      dup5\n        /* \"#utility.yul\":8832:8960   */\n      tag_187\n      jump\t// in\n    tag_253:\n        /* \"#utility.yul\":8824:8960   */\n      swap1\n      pop\n        /* \"#utility.yul\":8539:8967   */\n      swap4\n      swap3\n      pop\n      pop\n      pop\n      jump\t// out\n        /* \"#utility.yul\":8973:9221   */\n    tag_23:\n      0x00\n        /* \"#utility.yul\":9117:9119   */\n      0x20\n        /* \"#utility.yul\":9106:9115   */\n      dup3\n        /* \"#utility.yul\":9102:9120   */\n      add\n        /* \"#utility.yul\":9094:9120   */\n      swap1\n      pop\n        /* \"#utility.yul\":9130:9214   */\n      tag_255\n        /* \"#utility.yul\":9211:9212   */\n      0x00\n        /* \"#utility.yul\":9200:9209   */\n      dup4\n        /* \"#utility.yul\":9196:9213   */\n      add\n        /* \"#utility.yul\":9187:9193   */\n      dup5\n        /* \"#utility.yul\":9130:9214   */\n      tag_219\n      jump\t// in\n    tag_255:\n        /* \"#utility.yul\":9084:9221   */\n      swap3\n      swap2\n      pop\n      pop\n      jump\t// out\n        /* \"#utility.yul\":9227:9646   */\n    tag_110:\n      0x00\n        /* \"#utility.yul\":9431:9433   */\n      0x20\n        /* \"#utility.yul\":9420:9429   */\n      dup3\n        /* \"#utility.yul\":9416:9434   */\n      add\n        /* \"#utility.yul\":9408:9434   */\n      swap1\n      pop\n        /* \"#utility.yul\":9480:9489   */\n      dup2\n        /* \"#utility.yul\":9474:9478   */\n      dup2\n        /* \"#utility.yul\":9470:9490   */\n      sub\n        /* \"#utility.yul\":9466:9467   */\n      0x00\n        /* \"#utility.yul\":9455:9464   */\n      dup4\n        /* \"#utility.yul\":9451:9468   */\n      add\n        /* \"#utility.yul\":9444:9491   */\n      mstore\n        /* \"#utility.yul\":9508:9639   */\n      tag_257\n        /* \"#utility.yul\":9634:9638   */\n      dup2\n        /* \"#utility.yul\":9508:9639   */\n      tag_232\n      jump\t// in\n    tag_257:\n        /* \"#utility.yul\":9500:9639   */\n      swap1\n      pop\n        /* \"#utility.yul\":9398:9646   */\n      swap2\n      swap1\n      pop\n      jump\t// out\n        /* \"#utility.yul\":9652:10071   */\n    tag_67:\n      0x00\n        /* \"#utility.yul\":9856:9858   */\n      0x20\n        /* \"#utility.yul\":9845:9854   */\n      dup3\n        /* \"#utility.yul\":9841:9859   */\n      add\n        /* \"#utility.yul\":9833:9859   */\n      swap1\n      pop\n        /* \"#utility.yul\":9905:9914   */\n      dup2\n        /* \"#utility.yul\":9899:9903   */\n      dup2\n        /* \"#utility.yul\":9895:9915   */\n      sub\n        /* \"#utility.yul\":9891:9892   */\n      0x00\n        /* \"#utility.yul\":9880:9889   */\n      dup4\n        /* \"#utility.yul\":9876:9893   */\n      add\n        /* \"#utility.yul\":9869:9916   */\n      mstore\n        /* \"#utility.yul\":9933:10064   */\n      tag_259\n        /* \"#utility.yul\":10059:10063   */\n      dup2\n        /* \"#utility.yul\":9933:10064   */\n      tag_238\n      jump\t// in\n    tag_259:\n        /* \"#utility.yul\":9925:10064   */\n      swap1\n      pop\n        /* \"#utility.yul\":9823:10071   */\n      swap2\n      swap1\n      pop\n      jump\t// out\n        /* \"#utility.yul\":10077:10507   */\n    tag_51:\n      0x00\n        /* \"#utility.yul\":10258:10260   */\n      0x60\n        /* \"#utility.yul\":10247:10256   */\n      dup3\n        /* \"#utility.yul\":10243:10261   */\n      add\n        /* \"#utility.yul\":10235:10261   */\n      swap1\n      pop\n        /* \"#utility.yul\":10271:10342   */\n      tag_261\n        /* \"#utility.yul\":10339:10340   */\n      0x00\n        /* \"#utility.yul\":10328:10337   */\n      dup4\n        /* \"#utility.yul\":10324:10341   */\n      add\n        /* \"#utility.yul\":10315:10321   */\n      dup7\n        /* \"#utility.yul\":10271:10342   */\n      tag_246\n      jump\t// in\n    tag_261:\n        /* \"#utility.yul\":10352:10424   */\n      tag_262\n        /* \"#utility.yul\":10420:10422   */\n      0x20\n        /* \"#utility.yul\":10409:10418   */\n      dup4\n        /* \"#utility.yul\":10405:10423   */\n      add\n        /* \"#utility.yul\":10396:10402   */\n      dup6\n        /* \"#utility.yul\":10352:10424   */\n      tag_246\n      jump\t// in\n    tag_262:\n        /* \"#utility.yul\":10434:10500   */\n      tag_263\n        /* \"#utility.yul\":10496:10498   */\n      0x40\n        /* \"#utility.yul\":10485:10494   */\n      dup4\n        /* \"#utility.yul\":10481:10499   */\n      add\n        /* \"#utility.yul\":10472:10478   */\n      dup5\n        /* \"#utility.yul\":10434:10500   */\n      tag_215\n      jump\t// in\n    tag_263:\n        /* \"#utility.yul\":10225:10507   */\n      swap5\n      swap4\n      pop\n      pop\n      pop\n      pop\n      jump\t// out\n        /* \"#utility.yul\":10513:10642   */\n    tag_120:\n      0x00\n        /* \"#utility.yul\":10574:10594   */\n      tag_265\n      tag_266\n      jump\t// in\n    tag_265:\n        /* \"#utility.yul\":10564:10594   */\n      swap1\n      pop\n        /* \"#utility.yul\":10603:10636   */\n      tag_267\n        /* \"#utility.yul\":10631:10635   */\n      dup3\n        /* \"#utility.yul\":10623:10629   */\n      dup3\n        /* \"#utility.yul\":10603:10636   */\n      tag_268\n      jump\t// in\n    tag_267:\n        /* \"#utility.yul\":10554:10642   */\n      swap2\n      swap1\n      pop\n      jump\t// out\n        /* \"#utility.yul\":10648:10723   */\n    tag_266:\n      0x00\n        /* \"#utility.yul\":10714:10716   */\n      0x40\n        /* \"#utility.yul\":10708:10717   */\n      mload\n        /* \"#utility.yul\":10698:10717   */\n      swap1\n      pop\n        /* \"#utility.yul\":10688:10723   */\n      swap1\n      jump\t// out\n        /* \"#utility.yul\":10729:11050   */\n    tag_119:\n      0x00\n        /* \"#utility.yul\":10906:10924   */\n      0xffffffffffffffff\n        /* \"#utility.yul\":10898:10904   */\n      dup3\n        /* \"#utility.yul\":10895:10925   */\n      gt\n        /* \"#utility.yul\":10892:10894   */\n      iszero\n      tag_271\n      jumpi\n        /* \"#utility.yul\":10928:10946   */\n      tag_272\n      tag_273\n      jump\t// in\n    tag_272:\n        /* \"#utility.yul\":10892:10894   */\n    tag_271:\n        /* \"#utility.yul\":10978:10982   */\n      0x20\n        /* \"#utility.yul\":10970:10976   */\n      dup3\n        /* \"#utility.yul\":10966:10983   */\n      mul\n        /* \"#utility.yul\":10958:10983   */\n      swap1\n      pop\n        /* \"#utility.yul\":11038:11042   */\n      0x20\n        /* \"#utility.yul\":11032:11036   */\n      dup2\n        /* \"#utility.yul\":11028:11043   */\n      add\n        /* \"#utility.yul\":11020:11043   */\n      swap1\n      pop\n        /* \"#utility.yul\":10821:11050   */\n      swap2\n      swap1\n      pop\n      jump\t// out\n        /* \"#utility.yul\":11056:11367   */\n    tag_130:\n      0x00\n        /* \"#utility.yul\":11223:11241   */\n      0xffffffffffffffff\n        /* \"#utility.yul\":11215:11221   */\n      dup3\n        /* \"#utility.yul\":11212:11242   */\n      gt\n        /* \"#utility.yul\":11209:11211   */\n      iszero\n      tag_275\n      jumpi\n        /* \"#utility.yul\":11245:11263   */\n      tag_276\n      tag_273\n      jump\t// in\n    tag_276:\n        /* \"#utility.yul\":11209:11211   */\n    tag_275:\n        /* \"#utility.yul\":11295:11299   */\n      0x20\n        /* \"#utility.yul\":11287:11293   */\n      dup3\n        /* \"#utility.yul\":11283:11300   */\n      mul\n        /* \"#utility.yul\":11275:11300   */\n      swap1\n      pop\n        /* \"#utility.yul\":11355:11359   */\n      0x20\n        /* \"#utility.yul\":11349:11353   */\n      dup2\n        /* \"#utility.yul\":11345:11360   */\n      add\n        /* \"#utility.yul\":11337:11360   */\n      swap1\n      pop\n        /* \"#utility.yul\":11138:11367   */\n      swap2\n      swap1\n      pop\n      jump\t// out\n        /* \"#utility.yul\":11373:11681   */\n    tag_141:\n      0x00\n        /* \"#utility.yul\":11525:11543   */\n      0xffffffffffffffff\n        /* \"#utility.yul\":11517:11523   */\n      dup3\n        /* \"#utility.yul\":11514:11544   */\n      gt\n        /* \"#utility.yul\":11511:11513   */\n      iszero\n      tag_278\n      jumpi\n        /* \"#utility.yul\":11547:11565   */\n      tag_279\n      tag_273\n      jump\t// in\n    tag_279:\n        /* \"#utility.yul\":11511:11513   */\n    tag_278:\n        /* \"#utility.yul\":11585:11614   */\n      tag_280\n        /* \"#utility.yul\":11607:11613   */\n      dup3\n        /* \"#utility.yul\":11585:11614   */\n      tag_231\n      jump\t// in\n    tag_280:\n        /* \"#utility.yul\":11577:11614   */\n      swap1\n      pop\n        /* \"#utility.yul\":11669:11673   */\n      0x20\n        /* \"#utility.yul\":11663:11667   */\n      dup2\n        /* \"#utility.yul\":11659:11674   */\n      add\n        /* \"#utility.yul\":11651:11674   */\n      swap1\n      pop\n        /* \"#utility.yul\":11440:11681   */\n      swap2\n      swap1\n      pop\n      jump\t// out\n        /* \"#utility.yul\":11687:11829   */\n    tag_194:\n      0x00\n        /* \"#utility.yul\":11787:11790   */\n      dup2\n        /* \"#utility.yul\":11779:11790   */\n      swap1\n      pop\n        /* \"#utility.yul\":11817:11821   */\n      0x20\n        /* \"#utility.yul\":11812:11815   */\n      dup3\n        /* \"#utility.yul\":11808:11822   */\n      add\n        /* \"#utility.yul\":11800:11822   */\n      swap1\n      pop\n        /* \"#utility.yul\":11769:11829   */\n      swap2\n      swap1\n      pop\n      jump\t// out\n        /* \"#utility.yul\":11835:11967   */\n    tag_208:\n      0x00\n        /* \"#utility.yul\":11925:11928   */\n      dup2\n        /* \"#utility.yul\":11917:11928   */\n      swap1\n      pop\n        /* \"#utility.yul\":11955:11959   */\n      0x20\n        /* \"#utility.yul\":11950:11953   */\n      dup3\n        /* \"#utility.yul\":11946:11960   */\n      add\n        /* \"#utility.yul\":11938:11960   */\n      swap1\n      pop\n        /* \"#utility.yul\":11907:11967   */\n      swap2\n      swap1\n      pop\n      jump\t// out\n        /* \"#utility.yul\":11973:12097   */\n    tag_190:\n      0x00\n        /* \"#utility.yul\":12084:12089   */\n      dup2\n        /* \"#utility.yul\":12078:12090   */\n      mload\n        /* \"#utility.yul\":12068:12090   */\n      swap1\n      pop\n        /* \"#utility.yul\":12057:12097   */\n      swap2\n      swap1\n      pop\n      jump\t// out\n        /* \"#utility.yul\":12103:12217   */\n    tag_204:\n      0x00\n        /* \"#utility.yul\":12204:12209   */\n      dup2\n        /* \"#utility.yul\":12198:12210   */\n      mload\n        /* \"#utility.yul\":12188:12210   */\n      swap1\n      pop\n        /* \"#utility.yul\":12177:12217   */\n      swap2\n      swap1\n      pop\n      jump\t// out\n        /* \"#utility.yul\":12223:12322   */\n    tag_225:\n      0x00\n        /* \"#utility.yul\":12309:12314   */\n      dup2\n        /* \"#utility.yul\":12303:12315   */\n      mload\n        /* \"#utility.yul\":12293:12315   */\n      swap1\n      pop\n        /* \"#utility.yul\":12282:12322   */\n      swap2\n      swap1\n      pop\n      jump\t// out\n        /* \"#utility.yul\":12328:12451   */\n    tag_200:\n      0x00\n        /* \"#utility.yul\":12440:12444   */\n      0x20\n        /* \"#utility.yul\":12435:12438   */\n      dup3\n        /* \"#utility.yul\":12431:12445   */\n      add\n        /* \"#utility.yul\":12423:12445   */\n      swap1\n      pop\n        /* \"#utility.yul\":12413:12451   */\n      swap2\n      swap1\n      pop\n      jump\t// out\n        /* \"#utility.yul\":12457:12570   */\n    tag_214:\n      0x00\n        /* \"#utility.yul\":12559:12563   */\n      0x20\n        /* \"#utility.yul\":12554:12557   */\n      dup3\n        /* \"#utility.yul\":12550:12564   */\n      add\n        /* \"#utility.yul\":12542:12564   */\n      swap1\n      pop\n        /* \"#utility.yul\":12532:12570   */\n      swap2\n      swap1\n      pop\n      jump\t// out\n        /* \"#utility.yul\":12576:12770   */\n    tag_192:\n      0x00\n        /* \"#utility.yul\":12719:12725   */\n      dup3\n        /* \"#utility.yul\":12714:12717   */\n      dup3\n        /* \"#utility.yul\":12707:12726   */\n      mstore\n        /* \"#utility.yul\":12759:12763   */\n      0x20\n        /* \"#utility.yul\":12754:12757   */\n      dup3\n        /* \"#utility.yul\":12750:12764   */\n      add\n        /* \"#utility.yul\":12735:12764   */\n      swap1\n      pop\n        /* \"#utility.yul\":12697:12770   */\n      swap3\n      swap2\n      pop\n      pop\n      jump\t// out\n        /* \"#utility.yul\":12776:12960   */\n    tag_206:\n      0x00\n        /* \"#utility.yul\":12909:12915   */\n      dup3\n        /* \"#utility.yul\":12904:12907   */\n      dup3\n        /* \"#utility.yul\":12897:12916   */\n      mstore\n        /* \"#utility.yul\":12949:12953   */\n      0x20\n        /* \"#utility.yul\":12944:12947   */\n      dup3\n        /* \"#utility.yul\":12940:12954   */\n      add\n        /* \"#utility.yul\":12925:12954   */\n      swap1\n      pop\n        /* \"#utility.yul\":12887:12960   */\n      swap3\n      swap2\n      pop\n      pop\n      jump\t// out\n        /* \"#utility.yul\":12966:13125   */\n    tag_227:\n      0x00\n        /* \"#utility.yul\":13074:13080   */\n      dup3\n        /* \"#utility.yul\":13069:13072   */\n      dup3\n        /* \"#utility.yul\":13062:13081   */\n      mstore\n        /* \"#utility.yul\":13114:13118   */\n      0x20\n        /* \"#utility.yul\":13109:13112   */\n      dup3\n        /* \"#utility.yul\":13105:13119   */\n      add\n        /* \"#utility.yul\":13090:13119   */\n      swap1\n      pop\n        /* \"#utility.yul\":13052:13125   */\n      swap3\n      swap2\n      pop\n      pop\n      jump\t// out\n        /* \"#utility.yul\":13131:13300   */\n    tag_235:\n      0x00\n        /* \"#utility.yul\":13249:13255   */\n      dup3\n        /* \"#utility.yul\":13244:13247   */\n      dup3\n        /* \"#utility.yul\":13237:13256   */\n      mstore\n        /* \"#utility.yul\":13289:13293   */\n      0x20\n        /* \"#utility.yul\":13284:13287   */\n      dup3\n        /* \"#utility.yul\":13280:13294   */\n      add\n        /* \"#utility.yul\":13265:13294   */\n      swap1\n      pop\n        /* \"#utility.yul\":13227:13300   */\n      swap3\n      swap2\n      pop\n      pop\n      jump\t// out\n        /* \"#utility.yul\":13306:13402   */\n    tag_186:\n      0x00\n        /* \"#utility.yul\":13372:13396   */\n      tag_293\n        /* \"#utility.yul\":13390:13395   */\n      dup3\n        /* \"#utility.yul\":13372:13396   */\n      tag_294\n      jump\t// in\n    tag_293:\n        /* \"#utility.yul\":13361:13396   */\n      swap1\n      pop\n        /* \"#utility.yul\":13351:13402   */\n      swap2\n      swap1\n      pop\n      jump\t// out\n        /* \"#utility.yul\":13408:13498   */\n    tag_218:\n      0x00\n        /* \"#utility.yul\":13485:13490   */\n      dup2\n        /* \"#utility.yul\":13478:13491   */\n      iszero\n        /* \"#utility.yul\":13471:13492   */\n      iszero\n        /* \"#utility.yul\":13460:13492   */\n      swap1\n      pop\n        /* \"#utility.yul\":13450:13498   */\n      swap2\n      swap1\n      pop\n      jump\t// out\n        /* \"#utility.yul\":13504:13630   */\n    tag_294:\n      0x00\n        /* \"#utility.yul\":13581:13623   */\n      0xffffffffffffffffffffffffffffffffffffffff\n        /* \"#utility.yul\":13574:13579   */\n      dup3\n        /* \"#utility.yul\":13570:13624   */\n      and\n        /* \"#utility.yul\":13559:13624   */\n      swap1\n      pop\n        /* \"#utility.yul\":13549:13630   */\n      swap2\n      swap1\n      pop\n      jump\t// out\n        /* \"#utility.yul\":13636:13713   */\n    tag_245:\n      0x00\n        /* \"#utility.yul\":13702:13707   */\n      dup2\n        /* \"#utility.yul\":13691:13707   */\n      swap1\n      pop\n        /* \"#utility.yul\":13681:13713   */\n      swap2\n      swap1\n      pop\n      jump\t// out\n        /* \"#utility.yul\":13719:13871   */\n    tag_222:\n      0x00\n        /* \"#utility.yul\":13815:13865   */\n      tag_299\n        /* \"#utility.yul\":13859:13864   */\n      dup3\n        /* \"#utility.yul\":13815:13865   */\n      tag_300\n      jump\t// in\n    tag_299:\n        /* \"#utility.yul\":13802:13865   */\n      swap1\n      pop\n        /* \"#utility.yul\":13792:13871   */\n      swap2\n      swap1\n      pop\n      jump\t// out\n        /* \"#utility.yul\":13877:14003   */\n    tag_300:\n      0x00\n        /* \"#utility.yul\":13973:13997   */\n      tag_302\n        /* \"#utility.yul\":13991:13996   */\n      dup3\n        /* \"#utility.yul\":13973:13997   */\n      tag_294\n      jump\t// in\n    tag_302:\n        /* \"#utility.yul\":13960:13997   */\n      swap1\n      pop\n        /* \"#utility.yul\":13950:14003   */\n      swap2\n      swap1\n      pop\n      jump\t// out\n        /* \"#utility.yul\":14009:14163   */\n    tag_144:\n        /* \"#utility.yul\":14093:14099   */\n      dup3\n        /* \"#utility.yul\":14088:14091   */\n      dup2\n        /* \"#utility.yul\":14083:14086   */\n      dup4\n        /* \"#utility.yul\":14070:14100   */\n      calldatacopy\n        /* \"#utility.yul\":14155:14156   */\n      0x00\n        /* \"#utility.yul\":14146:14152   */\n      dup4\n        /* \"#utility.yul\":14141:14144   */\n      dup4\n        /* \"#utility.yul\":14137:14153   */\n      add\n        /* \"#utility.yul\":14130:14157   */\n      mstore\n        /* \"#utility.yul\":14060:14163   */\n      pop\n      pop\n      pop\n      jump\t// out\n        /* \"#utility.yul\":14169:14476   */\n    tag_229:\n        /* \"#utility.yul\":14237:14238   */\n      0x00\n        /* \"#utility.yul\":14247:14360   */\n    tag_305:\n        /* \"#utility.yul\":14261:14267   */\n      dup4\n        /* \"#utility.yul\":14258:14259   */\n      dup2\n        /* \"#utility.yul\":14255:14268   */\n      lt\n        /* \"#utility.yul\":14247:14360   */\n      iszero\n      tag_307\n      jumpi\n        /* \"#utility.yul\":14346:14347   */\n      dup1\n        /* \"#utility.yul\":14341:14344   */\n      dup3\n        /* \"#utility.yul\":14337:14348   */\n      add\n        /* \"#utility.yul\":14331:14349   */\n      mload\n        /* \"#utility.yul\":14327:14328   */\n      dup2\n        /* \"#utility.yul\":14322:14325   */\n      dup5\n        /* \"#utility.yul\":14318:14329   */\n      add\n        /* \"#utility.yul\":14311:14350   */\n      mstore\n        /* \"#utility.yul\":14283:14285   */\n      0x20\n        /* \"#utility.yul\":14280:14281   */\n      dup2\n        /* \"#utility.yul\":14276:14286   */\n      add\n        /* \"#utility.yul\":14271:14286   */\n      swap1\n      pop\n        /* \"#utility.yul\":14247:14360   */\n      jump(tag_305)\n    tag_307:\n        /* \"#utility.yul\":14378:14384   */\n      dup4\n        /* \"#utility.yul\":14375:14376   */\n      dup2\n        /* \"#utility.yul\":14372:14385   */\n      gt\n        /* \"#utility.yul\":14369:14371   */\n      iszero\n      tag_308\n      jumpi\n        /* \"#utility.yul\":14458:14459   */\n      0x00\n        /* \"#utility.yul\":14449:14455   */\n      dup5\n        /* \"#utility.yul\":14444:14447   */\n      dup5\n        /* \"#utility.yul\":14440:14456   */\n      add\n        /* \"#utility.yul\":14433:14460   */\n      mstore\n        /* \"#utility.yul\":14369:14371   */\n    tag_308:\n        /* \"#utility.yul\":14218:14476   */\n      pop\n      pop\n      pop\n      pop\n      jump\t// out\n        /* \"#utility.yul\":14482:14763   */\n    tag_268:\n        /* \"#utility.yul\":14565:14592   */\n      tag_310\n        /* \"#utility.yul\":14587:14591   */\n      dup3\n        /* \"#utility.yul\":14565:14592   */\n      tag_231\n      jump\t// in\n    tag_310:\n        /* \"#utility.yul\":14557:14563   */\n      dup2\n        /* \"#utility.yul\":14553:14593   */\n      add\n        /* \"#utility.yul\":14695:14701   */\n      dup2\n        /* \"#utility.yul\":14683:14693   */\n      dup2\n        /* \"#utility.yul\":14680:14702   */\n      lt\n        /* \"#utility.yul\":14659:14677   */\n      0xffffffffffffffff\n        /* \"#utility.yul\":14647:14657   */\n      dup3\n        /* \"#utility.yul\":14644:14678   */\n      gt\n        /* \"#utility.yul\":14641:14703   */\n      or\n        /* \"#utility.yul\":14638:14640   */\n      iszero\n      tag_311\n      jumpi\n        /* \"#utility.yul\":14706:14724   */\n      tag_312\n      tag_273\n      jump\t// in\n    tag_312:\n        /* \"#utility.yul\":14638:14640   */\n    tag_311:\n        /* \"#utility.yul\":14746:14756   */\n      dup1\n        /* \"#utility.yul\":14742:14744   */\n      0x40\n        /* \"#utility.yul\":14735:14757   */\n      mstore\n        /* \"#utility.yul\":14525:14763   */\n      pop\n      pop\n      pop\n      jump\t// out\n        /* \"#utility.yul\":14769:14949   */\n    tag_273:\n        /* \"#utility.yul\":14817:14894   */\n      0x4e487b7100000000000000000000000000000000000000000000000000000000\n        /* \"#utility.yul\":14814:14815   */\n      0x00\n        /* \"#utility.yul\":14807:14895   */\n      mstore\n        /* \"#utility.yul\":14914:14918   */\n      0x41\n        /* \"#utility.yul\":14911:14912   */\n      0x04\n        /* \"#utility.yul\":14904:14919   */\n      mstore\n        /* \"#utility.yul\":14938:14942   */\n      0x24\n        /* \"#utility.yul\":14935:14936   */\n      0x00\n        /* \"#utility.yul\":14928:14943   */\n      revert\n        /* \"#utility.yul\":14955:15057   */\n    tag_231:\n      0x00\n        /* \"#utility.yul\":15047:15049   */\n      0x1f\n        /* \"#utility.yul\":15043:15050   */\n      not\n        /* \"#utility.yul\":15038:15040   */\n      0x1f\n        /* \"#utility.yul\":15031:15036   */\n      dup4\n        /* \"#utility.yul\":15027:15041   */\n      add\n        /* \"#utility.yul\":15023:15051   */\n      and\n        /* \"#utility.yul\":15013:15051   */\n      swap1\n      pop\n        /* \"#utility.yul\":15003:15057   */\n      swap2\n      swap1\n      pop\n      jump\t// out\n        /* \"#utility.yul\":15063:15288   */\n    tag_237:\n        /* \"#utility.yul\":15203:15237   */\n      0x4f776e61626c653a206e6577206f776e657220697320746865207a65726f2061\n        /* \"#utility.yul\":15199:15200   */\n      0x00\n        /* \"#utility.yul\":15191:15197   */\n      dup3\n        /* \"#utility.yul\":15187:15201   */\n      add\n        /* \"#utility.yul\":15180:15238   */\n      mstore\n        /* \"#utility.yul\":15272:15280   */\n      0x6464726573730000000000000000000000000000000000000000000000000000\n        /* \"#utility.yul\":15267:15269   */\n      0x20\n        /* \"#utility.yul\":15259:15265   */\n      dup3\n        /* \"#utility.yul\":15255:15270   */\n      add\n        /* \"#utility.yul\":15248:15281   */\n      mstore\n        /* \"#utility.yul\":15169:15288   */\n      pop\n      jump\t// out\n        /* \"#utility.yul\":15294:15476   */\n    tag_242:\n        /* \"#utility.yul\":15434:15468   */\n      0x4f776e61626c653a2063616c6c6572206973206e6f7420746865206f776e6572\n        /* \"#utility.yul\":15430:15431   */\n      0x00\n        /* \"#utility.yul\":15422:15428   */\n      dup3\n        /* \"#utility.yul\":15418:15432   */\n      add\n        /* \"#utility.yul\":15411:15469   */\n      mstore\n        /* \"#utility.yul\":15400:15476   */\n      pop\n      jump\t// out\n        /* \"#utility.yul\":15482:15604   */\n    tag_148:\n        /* \"#utility.yul\":15555:15579   */\n      tag_318\n        /* \"#utility.yul\":15573:15578   */\n      dup2\n        /* \"#utility.yul\":15555:15579   */\n      tag_186\n      jump\t// in\n    tag_318:\n        /* \"#utility.yul\":15548:15553   */\n      dup2\n        /* \"#utility.yul\":15545:15580   */\n      eq\n        /* \"#utility.yul\":15535:15537   */\n      tag_319\n      jumpi\n        /* \"#utility.yul\":15594:15595   */\n      0x00\n        /* \"#utility.yul\":15591:15592   */\n      dup1\n        /* \"#utility.yul\":15584:15596   */\n      revert\n        /* \"#utility.yul\":15535:15537   */\n    tag_319:\n        /* \"#utility.yul\":15525:15604   */\n      pop\n      jump\t// out\n        /* \"#utility.yul\":15610:15732   */\n    tag_162:\n        /* \"#utility.yul\":15683:15707   */\n      tag_321\n        /* \"#utility.yul\":15701:15706   */\n      dup2\n        /* \"#utility.yul\":15683:15707   */\n      tag_245\n      jump\t// in\n    tag_321:\n        /* \"#utility.yul\":15676:15681   */\n      dup2\n        /* \"#utility.yul\":15673:15708   */\n      eq\n        /* \"#utility.yul\":15663:15665   */\n      tag_322\n      jumpi\n        /* \"#utility.yul\":15722:15723   */\n      0x00\n        /* \"#utility.yul\":15719:15720   */\n      dup1\n        /* \"#utility.yul\":15712:15724   */\n      revert\n        /* \"#utility.yul\":15663:15665   */\n    tag_322:\n        /* \"#utility.yul\":15653:15732   */\n      pop\n      jump\t// out\n\n    auxdata: 0xa26469706673582212204c75f577dd5c8501e1e64ad42d01d645441e939062e34de5593e4496ee78497064736f6c63430008010033\n}\n",
				"bytecode": {
					"linkReferences": {},
					"object": "60806040526370dc4900600355600a600555600160065560405180606001604052806127108152602001428152602001600015158152506007600082015181600001556020820151816001015560408201518160020160006101000a81548160ff021916908315150217905550505034801561007a57600080fd5b5061009761008c6100f160201b60201c565b6100f960201b60201c565b73e11a86849d99f524cac3e7a0ec1241828e332c62600260006101000a81548173ffffffffffffffffffffffffffffffffffffffff021916908373ffffffffffffffffffffffffffffffffffffffff1602179055506101bd565b600033905090565b60008060009054906101000a900473ffffffffffffffffffffffffffffffffffffffff169050816000806101000a81548173ffffffffffffffffffffffffffffffffffffffff021916908373ffffffffffffffffffffffffffffffffffffffff1602179055508173ffffffffffffffffffffffffffffffffffffffff168173ffffffffffffffffffffffffffffffffffffffff167f8be0079c531659141344cd1fd0a4f28419497f9722a3daafe3b4186f6b6457e060405160405180910390a35050565b611062806101cc6000396000f3fe60806040526004361061009c5760003560e01c8063715018a611610064578063715018a6146101725780638da5cb5b14610189578063bff29cee146101b4578063c0463711146101be578063f121da92146101eb578063f2fde38b146102145761009c565b806311ce0267146100a157806311eac855146100cc5780631515fa6e146100f75780632f181f541461012057806351f7598c14610149575b600080fd5b3480156100ad57600080fd5b506100b661023d565b6040516100c39190610c36565b60405180910390f35b3480156100d857600080fd5b506100e1610263565b6040516100ee9190610c88565b60405180910390f35b34801561010357600080fd5b5061011e60048036038101906101199190610a44565b610289565b005b34801561012c57600080fd5b5061014760048036038101906101429190610a44565b61030f565b005b34801561015557600080fd5b50610170600480360381019061016b91906109af565b610395565b005b34801561017e57600080fd5b50610187610455565b005b34801561019557600080fd5b5061019e6104dd565b6040516101ab9190610c36565b60405180910390f35b6101bc610506565b005b3480156101ca57600080fd5b506101d3610508565b6040516101e293929190610ce3565b60405180910390f35b3480156101f757600080fd5b50610212600480360381019061020d91906109d8565b61052d565b005b34801561022057600080fd5b5061023b600480360381019061023691906109af565b61063c565b005b600160009054906101000a900473ffffffffffffffffffffffffffffffffffffffff1681565b600260009054906101000a900473ffffffffffffffffffffffffffffffffffffffff1681565b610291610734565b73ffffffffffffffffffffffffffffffffffffffff166102af6104dd565b73ffffffffffffffffffffffffffffffffffffffff1614610305576040517f08c379a00000000000000000000000000000000000000000000000000000000081526004016102fc90610cc3565b60405180910390fd5b8060048190555050565b610317610734565b73ffffffffffffffffffffffffffffffffffffffff166103356104dd565b73ffffffffffffffffffffffffffffffffffffffff161461038b576040517f08c379a000000000000000000000000000000000000000000000000000000000815260040161038290610cc3565b60405180910390fd5b8060038190555050565b61039d610734565b73ffffffffffffffffffffffffffffffffffffffff166103bb6104dd565b73ffffffffffffffffffffffffffffffffffffffff1614610411576040517f08c379a000000000000000000000000000000000000000000000000000000000815260040161040890610cc3565b60405180910390fd5b80600160006101000a81548173ffffffffffffffffffffffffffffffffffffffff021916908373ffffffffffffffffffffffffffffffffffffffff16021790555050565b61045d610734565b73ffffffffffffffffffffffffffffffffffffffff1661047b6104dd565b73ffffffffffffffffffffffffffffffffffffffff16146104d1576040517f08c379a00000000000000000000000000000000000000000000000000000000081526004016104c890610cc3565b60405180910390fd5b6104db600061073c565b565b60008060009054906101000a900473ffffffffffffffffffffffffffffffffffffffff16905090565b565b60078060000154908060010154908060020160009054906101000a900460ff16905083565b610535610734565b73ffffffffffffffffffffffffffffffffffffffff166105536104dd565b73ffffffffffffffffffffffffffffffffffffffff16146105a9576040517f08c379a00000000000000000000000000000000000000000000000000000000081526004016105a090610cc3565b60405180910390fd5b600160009054906101000a900473ffffffffffffffffffffffffffffffffffffffff1673ffffffffffffffffffffffffffffffffffffffff1663f121da9283836040518363ffffffff1660e01b8152600401610606929190610c51565b600060405180830381600087803b15801561062057600080fd5b505af1158015610634573d6000803e3d6000fd5b505050505050565b610644610734565b73ffffffffffffffffffffffffffffffffffffffff166106626104dd565b73ffffffffffffffffffffffffffffffffffffffff16146106b8576040517f08c379a00000000000000000000000000000000000000000000000000000000081526004016106af90610cc3565b60405180910390fd5b600073ffffffffffffffffffffffffffffffffffffffff168173ffffffffffffffffffffffffffffffffffffffff161415610728576040517f08c379a000000000000000000000000000000000000000000000000000000000815260040161071f90610ca3565b60405180910390fd5b6107318161073c565b50565b600033905090565b60008060009054906101000a900473ffffffffffffffffffffffffffffffffffffffff169050816000806101000a81548173ffffffffffffffffffffffffffffffffffffffff021916908373ffffffffffffffffffffffffffffffffffffffff1602179055508173ffffffffffffffffffffffffffffffffffffffff168173ffffffffffffffffffffffffffffffffffffffff167f8be0079c531659141344cd1fd0a4f28419497f9722a3daafe3b4186f6b6457e060405160405180910390a35050565b600061081361080e84610d3f565b610d1a565b9050808382526020820190508260005b8581101561085357813585016108398882610970565b845260208401935060208301925050600181019050610823565b5050509392505050565b600061087061086b84610d6b565b610d1a565b9050808382526020820190508285602086028201111561088f57600080fd5b60005b858110156108bf57816108a5888261099a565b845260208401935060208301925050600181019050610892565b5050509392505050565b60006108dc6108d784610d97565b610d1a565b9050828152602081018484840111156108f457600080fd5b6108ff848285610ed3565b509392505050565b60008135905061091681610ffe565b92915050565b600082601f83011261092d57600080fd5b813561093d848260208601610800565b91505092915050565b600082601f83011261095757600080fd5b813561096784826020860161085d565b91505092915050565b600082601f83011261098157600080fd5b81356109918482602086016108c9565b91505092915050565b6000813590506109a981611015565b92915050565b6000602082840312156109c157600080fd5b60006109cf84828501610907565b91505092915050565b600080604083850312156109eb57600080fd5b600083013567ffffffffffffffff811115610a0557600080fd5b610a1185828601610946565b925050602083013567ffffffffffffffff811115610a2e57600080fd5b610a3a8582860161091c565b9150509250929050565b600060208284031215610a5657600080fd5b6000610a648482850161099a565b91505092915050565b6000610a798383610b99565b905092915050565b6000610a8d8383610c18565b60208301905092915050565b610aa281610e67565b82525050565b6000610ab382610de8565b610abd8185610e23565b935083602082028501610acf85610dc8565b8060005b85811015610b0b5784840389528151610aec8582610a6d565b9450610af783610e09565b925060208a01995050600181019050610ad3565b50829750879550505050505092915050565b6000610b2882610df3565b610b328185610e34565b9350610b3d83610dd8565b8060005b83811015610b6e578151610b558882610a81565b9750610b6083610e16565b925050600181019050610b41565b5085935050505092915050565b610b8481610e79565b82525050565b610b9381610eaf565b82525050565b6000610ba482610dfe565b610bae8185610e45565b9350610bbe818560208601610ee2565b610bc781610f75565b840191505092915050565b6000610bdf602683610e56565b9150610bea82610f86565b604082019050919050565b6000610c02602083610e56565b9150610c0d82610fd5565b602082019050919050565b610c2181610ea5565b82525050565b610c3081610ea5565b82525050565b6000602082019050610c4b6000830184610a99565b92915050565b60006040820190508181036000830152610c6b8185610b1d565b90508181036020830152610c7f8184610aa8565b90509392505050565b6000602082019050610c9d6000830184610b8a565b92915050565b60006020820190508181036000830152610cbc81610bd2565b9050919050565b60006020820190508181036000830152610cdc81610bf5565b9050919050565b6000606082019050610cf86000830186610c27565b610d056020830185610c27565b610d126040830184610b7b565b949350505050565b6000610d24610d35565b9050610d308282610f15565b919050565b6000604051905090565b600067ffffffffffffffff821115610d5a57610d59610f46565b5b602082029050602081019050919050565b600067ffffffffffffffff821115610d8657610d85610f46565b5b602082029050602081019050919050565b600067ffffffffffffffff821115610db257610db1610f46565b5b610dbb82610f75565b9050602081019050919050565b6000819050602082019050919050565b6000819050602082019050919050565b600081519050919050565b600081519050919050565b600081519050919050565b6000602082019050919050565b6000602082019050919050565b600082825260208201905092915050565b600082825260208201905092915050565b600082825260208201905092915050565b600082825260208201905092915050565b6000610e7282610e85565b9050919050565b60008115159050919050565b600073ffffffffffffffffffffffffffffffffffffffff82169050919050565b6000819050919050565b6000610eba82610ec1565b9050919050565b6000610ecc82610e85565b9050919050565b82818337600083830152505050565b60005b83811015610f00578082015181840152602081019050610ee5565b83811115610f0f576000848401525b50505050565b610f1e82610f75565b810181811067ffffffffffffffff82111715610f3d57610f3c610f46565b5b80604052505050565b7f4e487b7100000000000000000000000000000000000000000000000000000000600052604160045260246000fd5b6000601f19601f8301169050919050565b7f4f776e61626c653a206e6577206f776e657220697320746865207a65726f206160008201527f6464726573730000000000000000000000000000000000000000000000000000602082015250565b7f4f776e61626c653a2063616c6c6572206973206e6f7420746865206f776e6572600082015250565b61100781610e67565b811461101257600080fd5b50565b61101e81610ea5565b811461102957600080fd5b5056fea26469706673582212204c75f577dd5c8501e1e64ad42d01d645441e939062e34de5593e4496ee78497064736f6c63430008010033",
					"opcodes": "PUSH1 0x80 PUSH1 0x40 MSTORE PUSH4 0x70DC4900 PUSH1 0x3 SSTORE PUSH1 0xA PUSH1 0x5 SSTORE PUSH1 0x1 PUSH1 0x6 SSTORE PUSH1 0x40 MLOAD DUP1 PUSH1 0x60 ADD PUSH1 0x40 MSTORE DUP1 PUSH2 0x2710 DUP2 MSTORE PUSH1 0x20 ADD TIMESTAMP DUP2 MSTORE PUSH1 0x20 ADD PUSH1 0x0 ISZERO ISZERO DUP2 MSTORE POP PUSH1 0x7 PUSH1 0x0 DUP3 ADD MLOAD DUP2 PUSH1 0x0 ADD SSTORE PUSH1 0x20 DUP3 ADD MLOAD DUP2 PUSH1 0x1 ADD SSTORE PUSH1 0x40 DUP3 ADD MLOAD DUP2 PUSH1 0x2 ADD PUSH1 0x0 PUSH2 0x100 EXP DUP2 SLOAD DUP2 PUSH1 0xFF MUL NOT AND SWAP1 DUP4 ISZERO ISZERO MUL OR SWAP1 SSTORE POP POP POP CALLVALUE DUP1 ISZERO PUSH2 0x7A JUMPI PUSH1 0x0 DUP1 REVERT JUMPDEST POP PUSH2 0x97 PUSH2 0x8C PUSH2 0xF1 PUSH1 0x20 SHL PUSH1 0x20 SHR JUMP JUMPDEST PUSH2 0xF9 PUSH1 0x20 SHL PUSH1 0x20 SHR JUMP JUMPDEST PUSH20 0xE11A86849D99F524CAC3E7A0EC1241828E332C62 PUSH1 0x2 PUSH1 0x0 PUSH2 0x100 EXP DUP2 SLOAD DUP2 PUSH20 0xFFFFFFFFFFFFFFFFFFFFFFFFFFFFFFFFFFFFFFFF MUL NOT AND SWAP1 DUP4 PUSH20 0xFFFFFFFFFFFFFFFFFFFFFFFFFFFFFFFFFFFFFFFF AND MUL OR SWAP1 SSTORE POP PUSH2 0x1BD JUMP JUMPDEST PUSH1 0x0 CALLER SWAP1 POP SWAP1 JUMP JUMPDEST PUSH1 0x0 DUP1 PUSH1 0x0 SWAP1 SLOAD SWAP1 PUSH2 0x100 EXP SWAP1 DIV PUSH20 0xFFFFFFFFFFFFFFFFFFFFFFFFFFFFFFFFFFFFFFFF AND SWAP1 POP DUP2 PUSH1 0x0 DUP1 PUSH2 0x100 EXP DUP2 SLOAD DUP2 PUSH20 0xFFFFFFFFFFFFFFFFFFFFFFFFFFFFFFFFFFFFFFFF MUL NOT AND SWAP1 DUP4 PUSH20 0xFFFFFFFFFFFFFFFFFFFFFFFFFFFFFFFFFFFFFFFF AND MUL OR SWAP1 SSTORE POP DUP2 PUSH20 0xFFFFFFFFFFFFFFFFFFFFFFFFFFFFFFFFFFFFFFFF AND DUP2 PUSH20 0xFFFFFFFFFFFFFFFFFFFFFFFFFFFFFFFFFFFFFFFF AND PUSH32 0x8BE0079C531659141344CD1FD0A4F28419497F9722A3DAAFE3B4186F6B6457E0 PUSH1 0x40 MLOAD PUSH1 0x40 MLOAD DUP1 SWAP2 SUB SWAP1 LOG3 POP POP JUMP JUMPDEST PUSH2 0x1062 DUP1 PUSH2 0x1CC PUSH1 0x0 CODECOPY PUSH1 0x0 RETURN INVALID PUSH1 0x80 PUSH1 0x40 MSTORE PUSH1 0x4 CALLDATASIZE LT PUSH2 0x9C JUMPI PUSH1 0x0 CALLDATALOAD PUSH1 0xE0 SHR DUP1 PUSH4 0x715018A6 GT PUSH2 0x64 JUMPI DUP1 PUSH4 0x715018A6 EQ PUSH2 0x172 JUMPI DUP1 PUSH4 0x8DA5CB5B EQ PUSH2 0x189 JUMPI DUP1 PUSH4 0xBFF29CEE EQ PUSH2 0x1B4 JUMPI DUP1 PUSH4 0xC0463711 EQ PUSH2 0x1BE JUMPI DUP1 PUSH4 0xF121DA92 EQ PUSH2 0x1EB JUMPI DUP1 PUSH4 0xF2FDE38B EQ PUSH2 0x214 JUMPI PUSH2 0x9C JUMP JUMPDEST DUP1 PUSH4 0x11CE0267 EQ PUSH2 0xA1 JUMPI DUP1 PUSH4 0x11EAC855 EQ PUSH2 0xCC JUMPI DUP1 PUSH4 0x1515FA6E EQ PUSH2 0xF7 JUMPI DUP1 PUSH4 0x2F181F54 EQ PUSH2 0x120 JUMPI DUP1 PUSH4 0x51F7598C EQ PUSH2 0x149 JUMPI JUMPDEST PUSH1 0x0 DUP1 REVERT JUMPDEST CALLVALUE DUP1 ISZERO PUSH2 0xAD JUMPI PUSH1 0x0 DUP1 REVERT JUMPDEST POP PUSH2 0xB6 PUSH2 0x23D JUMP JUMPDEST PUSH1 0x40 MLOAD PUSH2 0xC3 SWAP2 SWAP1 PUSH2 0xC36 JUMP JUMPDEST PUSH1 0x40 MLOAD DUP1 SWAP2 SUB SWAP1 RETURN JUMPDEST CALLVALUE DUP1 ISZERO PUSH2 0xD8 JUMPI PUSH1 0x0 DUP1 REVERT JUMPDEST POP PUSH2 0xE1 PUSH2 0x263 JUMP JUMPDEST PUSH1 0x40 MLOAD PUSH2 0xEE SWAP2 SWAP1 PUSH2 0xC88 JUMP JUMPDEST PUSH1 0x40 MLOAD DUP1 SWAP2 SUB SWAP1 RETURN JUMPDEST CALLVALUE DUP1 ISZERO PUSH2 0x103 JUMPI PUSH1 0x0 DUP1 REVERT JUMPDEST POP PUSH2 0x11E PUSH1 0x4 DUP1 CALLDATASIZE SUB DUP2 ADD SWAP1 PUSH2 0x119 SWAP2 SWAP1 PUSH2 0xA44 JUMP JUMPDEST PUSH2 0x289 JUMP JUMPDEST STOP JUMPDEST CALLVALUE DUP1 ISZERO PUSH2 0x12C JUMPI PUSH1 0x0 DUP1 REVERT JUMPDEST POP PUSH2 0x147 PUSH1 0x4 DUP1 CALLDATASIZE SUB DUP2 ADD SWAP1 PUSH2 0x142 SWAP2 SWAP1 PUSH2 0xA44 JUMP JUMPDEST PUSH2 0x30F JUMP JUMPDEST STOP JUMPDEST CALLVALUE DUP1 ISZERO PUSH2 0x155 JUMPI PUSH1 0x0 DUP1 REVERT JUMPDEST POP PUSH2 0x170 PUSH1 0x4 DUP1 CALLDATASIZE SUB DUP2 ADD SWAP1 PUSH2 0x16B SWAP2 SWAP1 PUSH2 0x9AF JUMP JUMPDEST PUSH2 0x395 JUMP JUMPDEST STOP JUMPDEST CALLVALUE DUP1 ISZERO PUSH2 0x17E JUMPI PUSH1 0x0 DUP1 REVERT JUMPDEST POP PUSH2 0x187 PUSH2 0x455 JUMP JUMPDEST STOP JUMPDEST CALLVALUE DUP1 ISZERO PUSH2 0x195 JUMPI PUSH1 0x0 DUP1 REVERT JUMPDEST POP PUSH2 0x19E PUSH2 0x4DD JUMP JUMPDEST PUSH1 0x40 MLOAD PUSH2 0x1AB SWAP2 SWAP1 PUSH2 0xC36 JUMP JUMPDEST PUSH1 0x40 MLOAD DUP1 SWAP2 SUB SWAP1 RETURN JUMPDEST PUSH2 0x1BC PUSH2 0x506 JUMP JUMPDEST STOP JUMPDEST CALLVALUE DUP1 ISZERO PUSH2 0x1CA JUMPI PUSH1 0x0 DUP1 REVERT JUMPDEST POP PUSH2 0x1D3 PUSH2 0x508 JUMP JUMPDEST PUSH1 0x40 MLOAD PUSH2 0x1E2 SWAP4 SWAP3 SWAP2 SWAP1 PUSH2 0xCE3 JUMP JUMPDEST PUSH1 0x40 MLOAD DUP1 SWAP2 SUB SWAP1 RETURN JUMPDEST CALLVALUE DUP1 ISZERO PUSH2 0x1F7 JUMPI PUSH1 0x0 DUP1 REVERT JUMPDEST POP PUSH2 0x212 PUSH1 0x4 DUP1 CALLDATASIZE SUB DUP2 ADD SWAP1 PUSH2 0x20D SWAP2 SWAP1 PUSH2 0x9D8 JUMP JUMPDEST PUSH2 0x52D JUMP JUMPDEST STOP JUMPDEST CALLVALUE DUP1 ISZERO PUSH2 0x220 JUMPI PUSH1 0x0 DUP1 REVERT JUMPDEST POP PUSH2 0x23B PUSH1 0x4 DUP1 CALLDATASIZE SUB DUP2 ADD SWAP1 PUSH2 0x236 SWAP2 SWAP1 PUSH2 0x9AF JUMP JUMPDEST PUSH2 0x63C JUMP JUMPDEST STOP JUMPDEST PUSH1 0x1 PUSH1 0x0 SWAP1 SLOAD SWAP1 PUSH2 0x100 EXP SWAP1 DIV PUSH20 0xFFFFFFFFFFFFFFFFFFFFFFFFFFFFFFFFFFFFFFFF AND DUP2 JUMP JUMPDEST PUSH1 0x2 PUSH1 0x0 SWAP1 SLOAD SWAP1 PUSH2 0x100 EXP SWAP1 DIV PUSH20 0xFFFFFFFFFFFFFFFFFFFFFFFFFFFFFFFFFFFFFFFF AND DUP2 JUMP JUMPDEST PUSH2 0x291 PUSH2 0x734 JUMP JUMPDEST PUSH20 0xFFFFFFFFFFFFFFFFFFFFFFFFFFFFFFFFFFFFFFFF AND PUSH2 0x2AF PUSH2 0x4DD JUMP JUMPDEST PUSH20 0xFFFFFFFFFFFFFFFFFFFFFFFFFFFFFFFFFFFFFFFF AND EQ PUSH2 0x305 JUMPI PUSH1 0x40 MLOAD PUSH32 0x8C379A000000000000000000000000000000000000000000000000000000000 DUP2 MSTORE PUSH1 0x4 ADD PUSH2 0x2FC SWAP1 PUSH2 0xCC3 JUMP JUMPDEST PUSH1 0x40 MLOAD DUP1 SWAP2 SUB SWAP1 REVERT JUMPDEST DUP1 PUSH1 0x4 DUP2 SWAP1 SSTORE POP POP JUMP JUMPDEST PUSH2 0x317 PUSH2 0x734 JUMP JUMPDEST PUSH20 0xFFFFFFFFFFFFFFFFFFFFFFFFFFFFFFFFFFFFFFFF AND PUSH2 0x335 PUSH2 0x4DD JUMP JUMPDEST PUSH20 0xFFFFFFFFFFFFFFFFFFFFFFFFFFFFFFFFFFFFFFFF AND EQ PUSH2 0x38B JUMPI PUSH1 0x40 MLOAD PUSH32 0x8C379A000000000000000000000000000000000000000000000000000000000 DUP2 MSTORE PUSH1 0x4 ADD PUSH2 0x382 SWAP1 PUSH2 0xCC3 JUMP JUMPDEST PUSH1 0x40 MLOAD DUP1 SWAP2 SUB SWAP1 REVERT JUMPDEST DUP1 PUSH1 0x3 DUP2 SWAP1 SSTORE POP POP JUMP JUMPDEST PUSH2 0x39D PUSH2 0x734 JUMP JUMPDEST PUSH20 0xFFFFFFFFFFFFFFFFFFFFFFFFFFFFFFFFFFFFFFFF AND PUSH2 0x3BB PUSH2 0x4DD JUMP JUMPDEST PUSH20 0xFFFFFFFFFFFFFFFFFFFFFFFFFFFFFFFFFFFFFFFF AND EQ PUSH2 0x411 JUMPI PUSH1 0x40 MLOAD PUSH32 0x8C379A000000000000000000000000000000000000000000000000000000000 DUP2 MSTORE PUSH1 0x4 ADD PUSH2 0x408 SWAP1 PUSH2 0xCC3 JUMP JUMPDEST PUSH1 0x40 MLOAD DUP1 SWAP2 SUB SWAP1 REVERT JUMPDEST DUP1 PUSH1 0x1 PUSH1 0x0 PUSH2 0x100 EXP DUP2 SLOAD DUP2 PUSH20 0xFFFFFFFFFFFFFFFFFFFFFFFFFFFFFFFFFFFFFFFF MUL NOT AND SWAP1 DUP4 PUSH20 0xFFFFFFFFFFFFFFFFFFFFFFFFFFFFFFFFFFFFFFFF AND MUL OR SWAP1 SSTORE POP POP JUMP JUMPDEST PUSH2 0x45D PUSH2 0x734 JUMP JUMPDEST PUSH20 0xFFFFFFFFFFFFFFFFFFFFFFFFFFFFFFFFFFFFFFFF AND PUSH2 0x47B PUSH2 0x4DD JUMP JUMPDEST PUSH20 0xFFFFFFFFFFFFFFFFFFFFFFFFFFFFFFFFFFFFFFFF AND EQ PUSH2 0x4D1 JUMPI PUSH1 0x40 MLOAD PUSH32 0x8C379A000000000000000000000000000000000000000000000000000000000 DUP2 MSTORE PUSH1 0x4 ADD PUSH2 0x4C8 SWAP1 PUSH2 0xCC3 JUMP JUMPDEST PUSH1 0x40 MLOAD DUP1 SWAP2 SUB SWAP1 REVERT JUMPDEST PUSH2 0x4DB PUSH1 0x0 PUSH2 0x73C JUMP JUMPDEST JUMP JUMPDEST PUSH1 0x0 DUP1 PUSH1 0x0 SWAP1 SLOAD SWAP1 PUSH2 0x100 EXP SWAP1 DIV PUSH20 0xFFFFFFFFFFFFFFFFFFFFFFFFFFFFFFFFFFFFFFFF AND SWAP1 POP SWAP1 JUMP JUMPDEST JUMP JUMPDEST PUSH1 0x7 DUP1 PUSH1 0x0 ADD SLOAD SWAP1 DUP1 PUSH1 0x1 ADD SLOAD SWAP1 DUP1 PUSH1 0x2 ADD PUSH1 0x0 SWAP1 SLOAD SWAP1 PUSH2 0x100 EXP SWAP1 DIV PUSH1 0xFF AND SWAP1 POP DUP4 JUMP JUMPDEST PUSH2 0x535 PUSH2 0x734 JUMP JUMPDEST PUSH20 0xFFFFFFFFFFFFFFFFFFFFFFFFFFFFFFFFFFFFFFFF AND PUSH2 0x553 PUSH2 0x4DD JUMP JUMPDEST PUSH20 0xFFFFFFFFFFFFFFFFFFFFFFFFFFFFFFFFFFFFFFFF AND EQ PUSH2 0x5A9 JUMPI PUSH1 0x40 MLOAD PUSH32 0x8C379A000000000000000000000000000000000000000000000000000000000 DUP2 MSTORE PUSH1 0x4 ADD PUSH2 0x5A0 SWAP1 PUSH2 0xCC3 JUMP JUMPDEST PUSH1 0x40 MLOAD DUP1 SWAP2 SUB SWAP1 REVERT JUMPDEST PUSH1 0x1 PUSH1 0x0 SWAP1 SLOAD SWAP1 PUSH2 0x100 EXP SWAP1 DIV PUSH20 0xFFFFFFFFFFFFFFFFFFFFFFFFFFFFFFFFFFFFFFFF AND PUSH20 0xFFFFFFFFFFFFFFFFFFFFFFFFFFFFFFFFFFFFFFFF AND PUSH4 0xF121DA92 DUP4 DUP4 PUSH1 0x40 MLOAD DUP4 PUSH4 0xFFFFFFFF AND PUSH1 0xE0 SHL DUP2 MSTORE PUSH1 0x4 ADD PUSH2 0x606 SWAP3 SWAP2 SWAP1 PUSH2 0xC51 JUMP JUMPDEST PUSH1 0x0 PUSH1 0x40 MLOAD DUP1 DUP4 SUB DUP2 PUSH1 0x0 DUP8 DUP1 EXTCODESIZE ISZERO DUP1 ISZERO PUSH2 0x620 JUMPI PUSH1 0x0 DUP1 REVERT JUMPDEST POP GAS CALL ISZERO DUP1 ISZERO PUSH2 0x634 JUMPI RETURNDATASIZE PUSH1 0x0 DUP1 RETURNDATACOPY RETURNDATASIZE PUSH1 0x0 REVERT JUMPDEST POP POP POP POP POP POP JUMP JUMPDEST PUSH2 0x644 PUSH2 0x734 JUMP JUMPDEST PUSH20 0xFFFFFFFFFFFFFFFFFFFFFFFFFFFFFFFFFFFFFFFF AND PUSH2 0x662 PUSH2 0x4DD JUMP JUMPDEST PUSH20 0xFFFFFFFFFFFFFFFFFFFFFFFFFFFFFFFFFFFFFFFF AND EQ PUSH2 0x6B8 JUMPI PUSH1 0x40 MLOAD PUSH32 0x8C379A000000000000000000000000000000000000000000000000000000000 DUP2 MSTORE PUSH1 0x4 ADD PUSH2 0x6AF SWAP1 PUSH2 0xCC3 JUMP JUMPDEST PUSH1 0x40 MLOAD DUP1 SWAP2 SUB SWAP1 REVERT JUMPDEST PUSH1 0x0 PUSH20 0xFFFFFFFFFFFFFFFFFFFFFFFFFFFFFFFFFFFFFFFF AND DUP2 PUSH20 0xFFFFFFFFFFFFFFFFFFFFFFFFFFFFFFFFFFFFFFFF AND EQ ISZERO PUSH2 0x728 JUMPI PUSH1 0x40 MLOAD PUSH32 0x8C379A000000000000000000000000000000000000000000000000000000000 DUP2 MSTORE PUSH1 0x4 ADD PUSH2 0x71F SWAP1 PUSH2 0xCA3 JUMP JUMPDEST PUSH1 0x40 MLOAD DUP1 SWAP2 SUB SWAP1 REVERT JUMPDEST PUSH2 0x731 DUP2 PUSH2 0x73C JUMP JUMPDEST POP JUMP JUMPDEST PUSH1 0x0 CALLER SWAP1 POP SWAP1 JUMP JUMPDEST PUSH1 0x0 DUP1 PUSH1 0x0 SWAP1 SLOAD SWAP1 PUSH2 0x100 EXP SWAP1 DIV PUSH20 0xFFFFFFFFFFFFFFFFFFFFFFFFFFFFFFFFFFFFFFFF AND SWAP1 POP DUP2 PUSH1 0x0 DUP1 PUSH2 0x100 EXP DUP2 SLOAD DUP2 PUSH20 0xFFFFFFFFFFFFFFFFFFFFFFFFFFFFFFFFFFFFFFFF MUL NOT AND SWAP1 DUP4 PUSH20 0xFFFFFFFFFFFFFFFFFFFFFFFFFFFFFFFFFFFFFFFF AND MUL OR SWAP1 SSTORE POP DUP2 PUSH20 0xFFFFFFFFFFFFFFFFFFFFFFFFFFFFFFFFFFFFFFFF AND DUP2 PUSH20 0xFFFFFFFFFFFFFFFFFFFFFFFFFFFFFFFFFFFFFFFF AND PUSH32 0x8BE0079C531659141344CD1FD0A4F28419497F9722A3DAAFE3B4186F6B6457E0 PUSH1 0x40 MLOAD PUSH1 0x40 MLOAD DUP1 SWAP2 SUB SWAP1 LOG3 POP POP JUMP JUMPDEST PUSH1 0x0 PUSH2 0x813 PUSH2 0x80E DUP5 PUSH2 0xD3F JUMP JUMPDEST PUSH2 0xD1A JUMP JUMPDEST SWAP1 POP DUP1 DUP4 DUP3 MSTORE PUSH1 0x20 DUP3 ADD SWAP1 POP DUP3 PUSH1 0x0 JUMPDEST DUP6 DUP2 LT ISZERO PUSH2 0x853 JUMPI DUP2 CALLDATALOAD DUP6 ADD PUSH2 0x839 DUP9 DUP3 PUSH2 0x970 JUMP JUMPDEST DUP5 MSTORE PUSH1 0x20 DUP5 ADD SWAP4 POP PUSH1 0x20 DUP4 ADD SWAP3 POP POP PUSH1 0x1 DUP2 ADD SWAP1 POP PUSH2 0x823 JUMP JUMPDEST POP POP POP SWAP4 SWAP3 POP POP POP JUMP JUMPDEST PUSH1 0x0 PUSH2 0x870 PUSH2 0x86B DUP5 PUSH2 0xD6B JUMP JUMPDEST PUSH2 0xD1A JUMP JUMPDEST SWAP1 POP DUP1 DUP4 DUP3 MSTORE PUSH1 0x20 DUP3 ADD SWAP1 POP DUP3 DUP6 PUSH1 0x20 DUP7 MUL DUP3 ADD GT ISZERO PUSH2 0x88F JUMPI PUSH1 0x0 DUP1 REVERT JUMPDEST PUSH1 0x0 JUMPDEST DUP6 DUP2 LT ISZERO PUSH2 0x8BF JUMPI DUP2 PUSH2 0x8A5 DUP9 DUP3 PUSH2 0x99A JUMP JUMPDEST DUP5 MSTORE PUSH1 0x20 DUP5 ADD SWAP4 POP PUSH1 0x20 DUP4 ADD SWAP3 POP POP PUSH1 0x1 DUP2 ADD SWAP1 POP PUSH2 0x892 JUMP JUMPDEST POP POP POP SWAP4 SWAP3 POP POP POP JUMP JUMPDEST PUSH1 0x0 PUSH2 0x8DC PUSH2 0x8D7 DUP5 PUSH2 0xD97 JUMP JUMPDEST PUSH2 0xD1A JUMP JUMPDEST SWAP1 POP DUP3 DUP2 MSTORE PUSH1 0x20 DUP2 ADD DUP5 DUP5 DUP5 ADD GT ISZERO PUSH2 0x8F4 JUMPI PUSH1 0x0 DUP1 REVERT JUMPDEST PUSH2 0x8FF DUP5 DUP3 DUP6 PUSH2 0xED3 JUMP JUMPDEST POP SWAP4 SWAP3 POP POP POP JUMP JUMPDEST PUSH1 0x0 DUP2 CALLDATALOAD SWAP1 POP PUSH2 0x916 DUP2 PUSH2 0xFFE JUMP JUMPDEST SWAP3 SWAP2 POP POP JUMP JUMPDEST PUSH1 0x0 DUP3 PUSH1 0x1F DUP4 ADD SLT PUSH2 0x92D JUMPI PUSH1 0x0 DUP1 REVERT JUMPDEST DUP2 CALLDATALOAD PUSH2 0x93D DUP5 DUP3 PUSH1 0x20 DUP7 ADD PUSH2 0x800 JUMP JUMPDEST SWAP2 POP POP SWAP3 SWAP2 POP POP JUMP JUMPDEST PUSH1 0x0 DUP3 PUSH1 0x1F DUP4 ADD SLT PUSH2 0x957 JUMPI PUSH1 0x0 DUP1 REVERT JUMPDEST DUP2 CALLDATALOAD PUSH2 0x967 DUP5 DUP3 PUSH1 0x20 DUP7 ADD PUSH2 0x85D JUMP JUMPDEST SWAP2 POP POP SWAP3 SWAP2 POP POP JUMP JUMPDEST PUSH1 0x0 DUP3 PUSH1 0x1F DUP4 ADD SLT PUSH2 0x981 JUMPI PUSH1 0x0 DUP1 REVERT JUMPDEST DUP2 CALLDATALOAD PUSH2 0x991 DUP5 DUP3 PUSH1 0x20 DUP7 ADD PUSH2 0x8C9 JUMP JUMPDEST SWAP2 POP POP SWAP3 SWAP2 POP POP JUMP JUMPDEST PUSH1 0x0 DUP2 CALLDATALOAD SWAP1 POP PUSH2 0x9A9 DUP2 PUSH2 0x1015 JUMP JUMPDEST SWAP3 SWAP2 POP POP JUMP JUMPDEST PUSH1 0x0 PUSH1 0x20 DUP3 DUP5 SUB SLT ISZERO PUSH2 0x9C1 JUMPI PUSH1 0x0 DUP1 REVERT JUMPDEST PUSH1 0x0 PUSH2 0x9CF DUP5 DUP3 DUP6 ADD PUSH2 0x907 JUMP JUMPDEST SWAP2 POP POP SWAP3 SWAP2 POP POP JUMP JUMPDEST PUSH1 0x0 DUP1 PUSH1 0x40 DUP4 DUP6 SUB SLT ISZERO PUSH2 0x9EB JUMPI PUSH1 0x0 DUP1 REVERT JUMPDEST PUSH1 0x0 DUP4 ADD CALLDATALOAD PUSH8 0xFFFFFFFFFFFFFFFF DUP2 GT ISZERO PUSH2 0xA05 JUMPI PUSH1 0x0 DUP1 REVERT JUMPDEST PUSH2 0xA11 DUP6 DUP3 DUP7 ADD PUSH2 0x946 JUMP JUMPDEST SWAP3 POP POP PUSH1 0x20 DUP4 ADD CALLDATALOAD PUSH8 0xFFFFFFFFFFFFFFFF DUP2 GT ISZERO PUSH2 0xA2E JUMPI PUSH1 0x0 DUP1 REVERT JUMPDEST PUSH2 0xA3A DUP6 DUP3 DUP7 ADD PUSH2 0x91C JUMP JUMPDEST SWAP2 POP POP SWAP3 POP SWAP3 SWAP1 POP JUMP JUMPDEST PUSH1 0x0 PUSH1 0x20 DUP3 DUP5 SUB SLT ISZERO PUSH2 0xA56 JUMPI PUSH1 0x0 DUP1 REVERT JUMPDEST PUSH1 0x0 PUSH2 0xA64 DUP5 DUP3 DUP6 ADD PUSH2 0x99A JUMP JUMPDEST SWAP2 POP POP SWAP3 SWAP2 POP POP JUMP JUMPDEST PUSH1 0x0 PUSH2 0xA79 DUP4 DUP4 PUSH2 0xB99 JUMP JUMPDEST SWAP1 POP SWAP3 SWAP2 POP POP JUMP JUMPDEST PUSH1 0x0 PUSH2 0xA8D DUP4 DUP4 PUSH2 0xC18 JUMP JUMPDEST PUSH1 0x20 DUP4 ADD SWAP1 POP SWAP3 SWAP2 POP POP JUMP JUMPDEST PUSH2 0xAA2 DUP2 PUSH2 0xE67 JUMP JUMPDEST DUP3 MSTORE POP POP JUMP JUMPDEST PUSH1 0x0 PUSH2 0xAB3 DUP3 PUSH2 0xDE8 JUMP JUMPDEST PUSH2 0xABD DUP2 DUP6 PUSH2 0xE23 JUMP JUMPDEST SWAP4 POP DUP4 PUSH1 0x20 DUP3 MUL DUP6 ADD PUSH2 0xACF DUP6 PUSH2 0xDC8 JUMP JUMPDEST DUP1 PUSH1 0x0 JUMPDEST DUP6 DUP2 LT ISZERO PUSH2 0xB0B JUMPI DUP5 DUP5 SUB DUP10 MSTORE DUP2 MLOAD PUSH2 0xAEC DUP6 DUP3 PUSH2 0xA6D JUMP JUMPDEST SWAP5 POP PUSH2 0xAF7 DUP4 PUSH2 0xE09 JUMP JUMPDEST SWAP3 POP PUSH1 0x20 DUP11 ADD SWAP10 POP POP PUSH1 0x1 DUP2 ADD SWAP1 POP PUSH2 0xAD3 JUMP JUMPDEST POP DUP3 SWAP8 POP DUP8 SWAP6 POP POP POP POP POP POP SWAP3 SWAP2 POP POP JUMP JUMPDEST PUSH1 0x0 PUSH2 0xB28 DUP3 PUSH2 0xDF3 JUMP JUMPDEST PUSH2 0xB32 DUP2 DUP6 PUSH2 0xE34 JUMP JUMPDEST SWAP4 POP PUSH2 0xB3D DUP4 PUSH2 0xDD8 JUMP JUMPDEST DUP1 PUSH1 0x0 JUMPDEST DUP4 DUP2 LT ISZERO PUSH2 0xB6E JUMPI DUP2 MLOAD PUSH2 0xB55 DUP9 DUP3 PUSH2 0xA81 JUMP JUMPDEST SWAP8 POP PUSH2 0xB60 DUP4 PUSH2 0xE16 JUMP JUMPDEST SWAP3 POP POP PUSH1 0x1 DUP2 ADD SWAP1 POP PUSH2 0xB41 JUMP JUMPDEST POP DUP6 SWAP4 POP POP POP POP SWAP3 SWAP2 POP POP JUMP JUMPDEST PUSH2 0xB84 DUP2 PUSH2 0xE79 JUMP JUMPDEST DUP3 MSTORE POP POP JUMP JUMPDEST PUSH2 0xB93 DUP2 PUSH2 0xEAF JUMP JUMPDEST DUP3 MSTORE POP POP JUMP JUMPDEST PUSH1 0x0 PUSH2 0xBA4 DUP3 PUSH2 0xDFE JUMP JUMPDEST PUSH2 0xBAE DUP2 DUP6 PUSH2 0xE45 JUMP JUMPDEST SWAP4 POP PUSH2 0xBBE DUP2 DUP6 PUSH1 0x20 DUP7 ADD PUSH2 0xEE2 JUMP JUMPDEST PUSH2 0xBC7 DUP2 PUSH2 0xF75 JUMP JUMPDEST DUP5 ADD SWAP2 POP POP SWAP3 SWAP2 POP POP JUMP JUMPDEST PUSH1 0x0 PUSH2 0xBDF PUSH1 0x26 DUP4 PUSH2 0xE56 JUMP JUMPDEST SWAP2 POP PUSH2 0xBEA DUP3 PUSH2 0xF86 JUMP JUMPDEST PUSH1 0x40 DUP3 ADD SWAP1 POP SWAP2 SWAP1 POP JUMP JUMPDEST PUSH1 0x0 PUSH2 0xC02 PUSH1 0x20 DUP4 PUSH2 0xE56 JUMP JUMPDEST SWAP2 POP PUSH2 0xC0D DUP3 PUSH2 0xFD5 JUMP JUMPDEST PUSH1 0x20 DUP3 ADD SWAP1 POP SWAP2 SWAP1 POP JUMP JUMPDEST PUSH2 0xC21 DUP2 PUSH2 0xEA5 JUMP JUMPDEST DUP3 MSTORE POP POP JUMP JUMPDEST PUSH2 0xC30 DUP2 PUSH2 0xEA5 JUMP JUMPDEST DUP3 MSTORE POP POP JUMP JUMPDEST PUSH1 0x0 PUSH1 0x20 DUP3 ADD SWAP1 POP PUSH2 0xC4B PUSH1 0x0 DUP4 ADD DUP5 PUSH2 0xA99 JUMP JUMPDEST SWAP3 SWAP2 POP POP JUMP JUMPDEST PUSH1 0x0 PUSH1 0x40 DUP3 ADD SWAP1 POP DUP2 DUP2 SUB PUSH1 0x0 DUP4 ADD MSTORE PUSH2 0xC6B DUP2 DUP6 PUSH2 0xB1D JUMP JUMPDEST SWAP1 POP DUP2 DUP2 SUB PUSH1 0x20 DUP4 ADD MSTORE PUSH2 0xC7F DUP2 DUP5 PUSH2 0xAA8 JUMP JUMPDEST SWAP1 POP SWAP4 SWAP3 POP POP POP JUMP JUMPDEST PUSH1 0x0 PUSH1 0x20 DUP3 ADD SWAP1 POP PUSH2 0xC9D PUSH1 0x0 DUP4 ADD DUP5 PUSH2 0xB8A JUMP JUMPDEST SWAP3 SWAP2 POP POP JUMP JUMPDEST PUSH1 0x0 PUSH1 0x20 DUP3 ADD SWAP1 POP DUP2 DUP2 SUB PUSH1 0x0 DUP4 ADD MSTORE PUSH2 0xCBC DUP2 PUSH2 0xBD2 JUMP JUMPDEST SWAP1 POP SWAP2 SWAP1 POP JUMP JUMPDEST PUSH1 0x0 PUSH1 0x20 DUP3 ADD SWAP1 POP DUP2 DUP2 SUB PUSH1 0x0 DUP4 ADD MSTORE PUSH2 0xCDC DUP2 PUSH2 0xBF5 JUMP JUMPDEST SWAP1 POP SWAP2 SWAP1 POP JUMP JUMPDEST PUSH1 0x0 PUSH1 0x60 DUP3 ADD SWAP1 POP PUSH2 0xCF8 PUSH1 0x0 DUP4 ADD DUP7 PUSH2 0xC27 JUMP JUMPDEST PUSH2 0xD05 PUSH1 0x20 DUP4 ADD DUP6 PUSH2 0xC27 JUMP JUMPDEST PUSH2 0xD12 PUSH1 0x40 DUP4 ADD DUP5 PUSH2 0xB7B JUMP JUMPDEST SWAP5 SWAP4 POP POP POP POP JUMP JUMPDEST PUSH1 0x0 PUSH2 0xD24 PUSH2 0xD35 JUMP JUMPDEST SWAP1 POP PUSH2 0xD30 DUP3 DUP3 PUSH2 0xF15 JUMP JUMPDEST SWAP2 SWAP1 POP JUMP JUMPDEST PUSH1 0x0 PUSH1 0x40 MLOAD SWAP1 POP SWAP1 JUMP JUMPDEST PUSH1 0x0 PUSH8 0xFFFFFFFFFFFFFFFF DUP3 GT ISZERO PUSH2 0xD5A JUMPI PUSH2 0xD59 PUSH2 0xF46 JUMP JUMPDEST JUMPDEST PUSH1 0x20 DUP3 MUL SWAP1 POP PUSH1 0x20 DUP2 ADD SWAP1 POP SWAP2 SWAP1 POP JUMP JUMPDEST PUSH1 0x0 PUSH8 0xFFFFFFFFFFFFFFFF DUP3 GT ISZERO PUSH2 0xD86 JUMPI PUSH2 0xD85 PUSH2 0xF46 JUMP JUMPDEST JUMPDEST PUSH1 0x20 DUP3 MUL SWAP1 POP PUSH1 0x20 DUP2 ADD SWAP1 POP SWAP2 SWAP1 POP JUMP JUMPDEST PUSH1 0x0 PUSH8 0xFFFFFFFFFFFFFFFF DUP3 GT ISZERO PUSH2 0xDB2 JUMPI PUSH2 0xDB1 PUSH2 0xF46 JUMP JUMPDEST JUMPDEST PUSH2 0xDBB DUP3 PUSH2 0xF75 JUMP JUMPDEST SWAP1 POP PUSH1 0x20 DUP2 ADD SWAP1 POP SWAP2 SWAP1 POP JUMP JUMPDEST PUSH1 0x0 DUP2 SWAP1 POP PUSH1 0x20 DUP3 ADD SWAP1 POP SWAP2 SWAP1 POP JUMP JUMPDEST PUSH1 0x0 DUP2 SWAP1 POP PUSH1 0x20 DUP3 ADD SWAP1 POP SWAP2 SWAP1 POP JUMP JUMPDEST PUSH1 0x0 DUP2 MLOAD SWAP1 POP SWAP2 SWAP1 POP JUMP JUMPDEST PUSH1 0x0 DUP2 MLOAD SWAP1 POP SWAP2 SWAP1 POP JUMP JUMPDEST PUSH1 0x0 DUP2 MLOAD SWAP1 POP SWAP2 SWAP1 POP JUMP JUMPDEST PUSH1 0x0 PUSH1 0x20 DUP3 ADD SWAP1 POP SWAP2 SWAP1 POP JUMP JUMPDEST PUSH1 0x0 PUSH1 0x20 DUP3 ADD SWAP1 POP SWAP2 SWAP1 POP JUMP JUMPDEST PUSH1 0x0 DUP3 DUP3 MSTORE PUSH1 0x20 DUP3 ADD SWAP1 POP SWAP3 SWAP2 POP POP JUMP JUMPDEST PUSH1 0x0 DUP3 DUP3 MSTORE PUSH1 0x20 DUP3 ADD SWAP1 POP SWAP3 SWAP2 POP POP JUMP JUMPDEST PUSH1 0x0 DUP3 DUP3 MSTORE PUSH1 0x20 DUP3 ADD SWAP1 POP SWAP3 SWAP2 POP POP JUMP JUMPDEST PUSH1 0x0 DUP3 DUP3 MSTORE PUSH1 0x20 DUP3 ADD SWAP1 POP SWAP3 SWAP2 POP POP JUMP JUMPDEST PUSH1 0x0 PUSH2 0xE72 DUP3 PUSH2 0xE85 JUMP JUMPDEST SWAP1 POP SWAP2 SWAP1 POP JUMP JUMPDEST PUSH1 0x0 DUP2 ISZERO ISZERO SWAP1 POP SWAP2 SWAP1 POP JUMP JUMPDEST PUSH1 0x0 PUSH20 0xFFFFFFFFFFFFFFFFFFFFFFFFFFFFFFFFFFFFFFFF DUP3 AND SWAP1 POP SWAP2 SWAP1 POP JUMP JUMPDEST PUSH1 0x0 DUP2 SWAP1 POP SWAP2 SWAP1 POP JUMP JUMPDEST PUSH1 0x0 PUSH2 0xEBA DUP3 PUSH2 0xEC1 JUMP JUMPDEST SWAP1 POP SWAP2 SWAP1 POP JUMP JUMPDEST PUSH1 0x0 PUSH2 0xECC DUP3 PUSH2 0xE85 JUMP JUMPDEST SWAP1 POP SWAP2 SWAP1 POP JUMP JUMPDEST DUP3 DUP2 DUP4 CALLDATACOPY PUSH1 0x0 DUP4 DUP4 ADD MSTORE POP POP POP JUMP JUMPDEST PUSH1 0x0 JUMPDEST DUP4 DUP2 LT ISZERO PUSH2 0xF00 JUMPI DUP1 DUP3 ADD MLOAD DUP2 DUP5 ADD MSTORE PUSH1 0x20 DUP2 ADD SWAP1 POP PUSH2 0xEE5 JUMP JUMPDEST DUP4 DUP2 GT ISZERO PUSH2 0xF0F JUMPI PUSH1 0x0 DUP5 DUP5 ADD MSTORE JUMPDEST POP POP POP POP JUMP JUMPDEST PUSH2 0xF1E DUP3 PUSH2 0xF75 JUMP JUMPDEST DUP2 ADD DUP2 DUP2 LT PUSH8 0xFFFFFFFFFFFFFFFF DUP3 GT OR ISZERO PUSH2 0xF3D JUMPI PUSH2 0xF3C PUSH2 0xF46 JUMP JUMPDEST JUMPDEST DUP1 PUSH1 0x40 MSTORE POP POP POP JUMP JUMPDEST PUSH32 0x4E487B7100000000000000000000000000000000000000000000000000000000 PUSH1 0x0 MSTORE PUSH1 0x41 PUSH1 0x4 MSTORE PUSH1 0x24 PUSH1 0x0 REVERT JUMPDEST PUSH1 0x0 PUSH1 0x1F NOT PUSH1 0x1F DUP4 ADD AND SWAP1 POP SWAP2 SWAP1 POP JUMP JUMPDEST PUSH32 0x4F776E61626C653A206E6577206F776E657220697320746865207A65726F2061 PUSH1 0x0 DUP3 ADD MSTORE PUSH32 0x6464726573730000000000000000000000000000000000000000000000000000 PUSH1 0x20 DUP3 ADD MSTORE POP JUMP JUMPDEST PUSH32 0x4F776E61626C653A2063616C6C6572206973206E6F7420746865206F776E6572 PUSH1 0x0 DUP3 ADD MSTORE POP JUMP JUMPDEST PUSH2 0x1007 DUP2 PUSH2 0xE67 JUMP JUMPDEST DUP2 EQ PUSH2 0x1012 JUMPI PUSH1 0x0 DUP1 REVERT JUMPDEST POP JUMP JUMPDEST PUSH2 0x101E DUP2 PUSH2 0xEA5 JUMP JUMPDEST DUP2 EQ PUSH2 0x1029 JUMPI PUSH1 0x0 DUP1 REVERT JUMPDEST POP JUMP INVALID LOG2 PUSH5 0x6970667358 0x22 SLT KECCAK256 0x4C PUSH22 0xF577DD5C8501E1E64AD42D01D645441E939062E34DE5 MSIZE RETURNDATACOPY DIFFICULTY SWAP7 0xEE PUSH25 0x497064736F6C63430008010033000000000000000000000000 "
				},
				"gasEstimates": {
					"creation": {
						"codeDepositCost": "838800",
						"executionCost": "infinite",
						"totalCost": "infinite"
					},
					"external": {
						"buyNFT()": "164",
						"lastUpdate()": "infinite",
						"owner()": "1244",
						"preLoadURIs(uint256[],string[])": "infinite",
						"renounceOwnership()": "24374",
						"setSaleEnd(uint256)": "21405",
						"setSaleStart(uint256)": "21427",
						"setStorageContractAddress(address)": "22351",
						"storageContract()": "1215",
						"transferOwnership(address)": "24833",
						"usdcToken()": "1280"
					},
					"internal": {
						"mintNextNftToAddress(address)": "infinite",
						"updateState()": "infinite"
					}
				},
				"methodIdentifiers": {
					"buyNFT()": "bff29cee",
					"lastUpdate()": "c0463711",
					"owner()": "8da5cb5b",
					"preLoadURIs(uint256[],string[])": "f121da92",
					"renounceOwnership()": "715018a6",
					"setSaleEnd(uint256)": "1515fa6e",
					"setSaleStart(uint256)": "2f181f54",
					"setStorageContractAddress(address)": "51f7598c",
					"storageContract()": "11ce0267",
					"transferOwnership(address)": "f2fde38b",
					"usdcToken()": "11eac855"
				}
			},
			"storageLayout": {
				"storage": [
					{
						"astId": 7,
						"contract": "contracts/Founding Citizens NFT Sale.sol:FoundingNFTSale",
						"label": "_owner",
						"offset": 0,
						"slot": "0",
						"type": "t_address"
					},
					{
						"astId": 798,
						"contract": "contracts/Founding Citizens NFT Sale.sol:FoundingNFTSale",
						"label": "storageContract",
						"offset": 0,
						"slot": "1",
						"type": "t_address"
					},
					{
						"astId": 801,
						"contract": "contracts/Founding Citizens NFT Sale.sol:FoundingNFTSale",
						"label": "usdcToken",
						"offset": 0,
						"slot": "2",
						"type": "t_contract(ERC20)650"
					},
					{
						"astId": 804,
						"contract": "contracts/Founding Citizens NFT Sale.sol:FoundingNFTSale",
						"label": "saleStart",
						"offset": 0,
						"slot": "3",
						"type": "t_uint256"
					},
					{
						"astId": 806,
						"contract": "contracts/Founding Citizens NFT Sale.sol:FoundingNFTSale",
						"label": "saleEnd",
						"offset": 0,
						"slot": "4",
						"type": "t_uint256"
					},
					{
						"astId": 809,
						"contract": "contracts/Founding Citizens NFT Sale.sol:FoundingNFTSale",
						"label": "startPrice",
						"offset": 0,
						"slot": "5",
						"type": "t_uint256"
					},
					{
						"astId": 812,
						"contract": "contracts/Founding Citizens NFT Sale.sol:FoundingNFTSale",
						"label": "EndPrice",
						"offset": 0,
						"slot": "6",
						"type": "t_uint256"
					},
					{
						"astId": 828,
						"contract": "contracts/Founding Citizens NFT Sale.sol:FoundingNFTSale",
						"label": "lastUpdate",
						"offset": 0,
						"slot": "7",
						"type": "t_struct(Update)819_storage"
					}
				],
				"types": {
					"t_address": {
						"encoding": "inplace",
						"label": "address",
						"numberOfBytes": "20"
					},
					"t_bool": {
						"encoding": "inplace",
						"label": "bool",
						"numberOfBytes": "1"
					},
					"t_contract(ERC20)650": {
						"encoding": "inplace",
						"label": "contract ERC20",
						"numberOfBytes": "20"
					},
					"t_struct(Update)819_storage": {
						"encoding": "inplace",
						"label": "struct FoundingNFTSale.Update",
						"members": [
							{
								"astId": 814,
								"contract": "contracts/Founding Citizens NFT Sale.sol:FoundingNFTSale",
								"label": "price",
								"offset": 0,
								"slot": "0",
								"type": "t_uint256"
							},
							{
								"astId": 816,
								"contract": "contracts/Founding Citizens NFT Sale.sol:FoundingNFTSale",
								"label": "time",
								"offset": 0,
								"slot": "1",
								"type": "t_uint256"
							},
							{
								"astId": 818,
								"contract": "contracts/Founding Citizens NFT Sale.sol:FoundingNFTSale",
								"label": "saleIsLive",
								"offset": 0,
								"slot": "2",
								"type": "t_bool"
							}
						],
						"numberOfBytes": "96"
					},
					"t_uint256": {
						"encoding": "inplace",
						"label": "uint256",
						"numberOfBytes": "32"
					}
				}
			},
			"userdoc": {
				"kind": "user",
				"methods": {},
				"version": 1
			}
		}
	}
}