{
	"contracts/Founding Citizens NFT Sale.sol": {
		"FoundingNFTSale": {
			"abi": [
				{
					"inputs": [],
					"stateMutability": "nonpayable",
					"type": "constructor"
				},
				{
					"anonymous": false,
					"inputs": [
						{
							"indexed": true,
							"internalType": "address",
							"name": "previousOwner",
							"type": "address"
						},
						{
							"indexed": true,
							"internalType": "address",
							"name": "newOwner",
							"type": "address"
						}
					],
					"name": "OwnershipTransferred",
					"type": "event"
				},
				{
					"inputs": [
						{
							"internalType": "uint256",
							"name": "amount",
							"type": "uint256"
						}
					],
					"name": "buyNFT",
					"outputs": [],
					"stateMutability": "nonpayable",
					"type": "function"
				},
				{
					"inputs": [],
					"name": "lastUpdate",
					"outputs": [
						{
							"internalType": "uint256",
							"name": "price",
							"type": "uint256"
						},
						{
							"internalType": "uint256",
							"name": "time",
							"type": "uint256"
						},
						{
							"internalType": "bool",
							"name": "saleIsLive",
							"type": "bool"
						}
					],
					"stateMutability": "view",
					"type": "function"
				},
				{
					"inputs": [],
					"name": "owner",
					"outputs": [
						{
							"internalType": "address",
							"name": "",
							"type": "address"
						}
					],
					"stateMutability": "view",
					"type": "function"
				},
				{
					"inputs": [
						{
							"internalType": "uint256[]",
							"name": "ids",
							"type": "uint256[]"
						},
						{
							"internalType": "string[]",
							"name": "uris",
							"type": "string[]"
						}
					],
					"name": "preLoadURIs",
					"outputs": [],
					"stateMutability": "nonpayable",
					"type": "function"
				},
				{
					"inputs": [],
					"name": "renounceOwnership",
					"outputs": [],
					"stateMutability": "nonpayable",
					"type": "function"
				},
				{
					"inputs": [
						{
							"internalType": "uint256",
							"name": "unixTime",
							"type": "uint256"
						}
					],
					"name": "setSaleEnd",
					"outputs": [],
					"stateMutability": "nonpayable",
					"type": "function"
				},
				{
					"inputs": [
						{
							"internalType": "uint256",
							"name": "unixTime",
							"type": "uint256"
						}
					],
					"name": "setSaleStart",
					"outputs": [],
					"stateMutability": "nonpayable",
					"type": "function"
				},
				{
					"inputs": [
						{
							"internalType": "address",
							"name": "storageAddress",
							"type": "address"
						}
					],
					"name": "setStorageContractAddress",
					"outputs": [],
					"stateMutability": "nonpayable",
					"type": "function"
				},
				{
					"inputs": [],
					"name": "storageContract",
					"outputs": [
						{
							"internalType": "address",
							"name": "",
							"type": "address"
						}
					],
					"stateMutability": "view",
					"type": "function"
				},
				{
					"inputs": [
						{
							"internalType": "address",
							"name": "newOwner",
							"type": "address"
						}
					],
					"name": "transferOwnership",
					"outputs": [],
					"stateMutability": "nonpayable",
					"type": "function"
				},
				{
					"inputs": [],
					"name": "usdcToken",
					"outputs": [
						{
							"internalType": "contract ERC20",
							"name": "",
							"type": "address"
						}
					],
					"stateMutability": "view",
					"type": "function"
				}
			],
			"devdoc": {
				"kind": "dev",
				"methods": {
					"owner()": {
						"details": "Returns the address of the current owner."
					},
					"renounceOwnership()": {
						"details": "Leaves the contract without owner. It will not be possible to call `onlyOwner` functions anymore. Can only be called by the current owner. NOTE: Renouncing ownership will leave the contract without an owner, thereby removing any functionality that is only available to the owner."
					},
					"transferOwnership(address)": {
						"details": "Transfers ownership of the contract to a new account (`newOwner`). Can only be called by the current owner."
					}
				},
				"version": 1
			},
			"evm": {
				"assembly": "    /* \"contracts/Founding Citizens NFT Sale.sol\":1958:3855  contract FoundingNFTSale is Ownable {\r... */\n  mstore(0x40, 0x80)\n    /* \"contracts/Founding Citizens NFT Sale.sol\":2089:2099  1893484800 */\n  0x70dc4900\n    /* \"contracts/Founding Citizens NFT Sale.sol\":2072:2099  uint saleStart = 1893484800 */\n  0x03\n  sstore\n    /* \"contracts/Founding Citizens NFT Sale.sol\":2223:2225  10 */\n  0x0a\n    /* \"contracts/Founding Citizens NFT Sale.sol\":2205:2225  uint startPrice = 10 */\n  0x05\n  sstore\n    /* \"contracts/Founding Citizens NFT Sale.sol\":2281:2282  1 */\n  0x01\n    /* \"contracts/Founding Citizens NFT Sale.sol\":2265:2282  uint EndPrice = 1 */\n  0x06\n  sstore\n    /* \"contracts/Founding Citizens NFT Sale.sol\":2413:2450  Update(10000, block.timestamp, false) */\n  mload(0x40)\n  dup1\n  0x60\n  add\n  0x40\n  mstore\n  dup1\n    /* \"contracts/Founding Citizens NFT Sale.sol\":2420:2425  10000 */\n  0x2710\n    /* \"contracts/Founding Citizens NFT Sale.sol\":2413:2450  Update(10000, block.timestamp, false) */\n  dup2\n  mstore\n  0x20\n  add\n    /* \"contracts/Founding Citizens NFT Sale.sol\":2427:2442  block.timestamp */\n  timestamp\n    /* \"contracts/Founding Citizens NFT Sale.sol\":2413:2450  Update(10000, block.timestamp, false) */\n  dup2\n  mstore\n  0x20\n  add\n    /* \"contracts/Founding Citizens NFT Sale.sol\":2444:2449  false */\n  0x00\n    /* \"contracts/Founding Citizens NFT Sale.sol\":2413:2450  Update(10000, block.timestamp, false) */\n  iszero\n  iszero\n  dup2\n  mstore\n  pop\n    /* \"contracts/Founding Citizens NFT Sale.sol\":2386:2450  Update public lastUpdate = Update(10000, block.timestamp, false) */\n  0x07\n  0x00\n  dup3\n  add\n  mload\n  dup2\n  0x00\n  add\n  sstore\n  0x20\n  dup3\n  add\n  mload\n  dup2\n  0x01\n  add\n  sstore\n  0x40\n  dup3\n  add\n  mload\n  dup2\n  0x02\n  add\n  exp(0x0100, 0x00)\n  dup2\n  sload\n  dup2\n  0xff\n  mul\n  not\n  and\n  swap1\n  dup4\n  iszero\n  iszero\n  mul\n  or\n  swap1\n  sstore\n  pop\n  pop\n  pop\n    /* \"contracts/Founding Citizens NFT Sale.sol\":2675:2769  constructor() {\r... */\n  callvalue\n  dup1\n  iszero\n  tag_1\n  jumpi\n  0x00\n  dup1\n  revert\ntag_1:\n  pop\n    /* \"@openzeppelin/contracts@4.4.2/access/Ownable.sol\":921:953  _transferOwnership(_msgSender()) */\n  tag_5\n    /* \"@openzeppelin/contracts@4.4.2/access/Ownable.sol\":940:952  _msgSender() */\n  tag_6\n    /* \"@openzeppelin/contracts@4.4.2/access/Ownable.sol\":940:950  _msgSender */\n  shl(0x20, tag_7)\n    /* \"@openzeppelin/contracts@4.4.2/access/Ownable.sol\":940:952  _msgSender() */\n  0x20\n  shr\n  jump\t// in\ntag_6:\n    /* \"@openzeppelin/contracts@4.4.2/access/Ownable.sol\":921:939  _transferOwnership */\n  shl(0x20, tag_8)\n    /* \"@openzeppelin/contracts@4.4.2/access/Ownable.sol\":921:953  _transferOwnership(_msgSender()) */\n  0x20\n  shr\n  jump\t// in\ntag_5:\n    /* \"contracts/Founding Citizens NFT Sale.sol\":2718:2760  0xe11A86849d99F524cAC3E7A0Ec1241828e332C62 */\n  0xe11a86849d99f524cac3e7a0ec1241828e332c62\n    /* \"contracts/Founding Citizens NFT Sale.sol\":2700:2709  usdcToken */\n  0x02\n  0x00\n    /* \"contracts/Founding Citizens NFT Sale.sol\":2700:2761  usdcToken = ERC20(0xe11A86849d99F524cAC3E7A0Ec1241828e332C62) */\n  0x0100\n  exp\n  dup2\n  sload\n  dup2\n  0xffffffffffffffffffffffffffffffffffffffff\n  mul\n  not\n  and\n  swap1\n  dup4\n  0xffffffffffffffffffffffffffffffffffffffff\n  and\n  mul\n  or\n  swap1\n  sstore\n  pop\n    /* \"contracts/Founding Citizens NFT Sale.sol\":1958:3855  contract FoundingNFTSale is Ownable {\r... */\n  jump(tag_10)\n    /* \"@openzeppelin/contracts@4.4.2/utils/Context.sol\":640:736  function _msgSender() internal view virtual returns (address) {... */\ntag_7:\n    /* \"@openzeppelin/contracts@4.4.2/utils/Context.sol\":693:700  address */\n  0x00\n    /* \"@openzeppelin/contracts@4.4.2/utils/Context.sol\":719:729  msg.sender */\n  caller\n    /* \"@openzeppelin/contracts@4.4.2/utils/Context.sol\":712:729  return msg.sender */\n  swap1\n  pop\n    /* \"@openzeppelin/contracts@4.4.2/utils/Context.sol\":640:736  function _msgSender() internal view virtual returns (address) {... */\n  swap1\n  jump\t// out\n    /* \"@openzeppelin/contracts@4.4.2/access/Ownable.sol\":2270:2457  function _transferOwnership(address newOwner) internal virtual {... */\ntag_8:\n    /* \"@openzeppelin/contracts@4.4.2/access/Ownable.sol\":2343:2359  address oldOwner */\n  0x00\n    /* \"@openzeppelin/contracts@4.4.2/access/Ownable.sol\":2362:2368  _owner */\n  dup1\n  0x00\n  swap1\n  sload\n  swap1\n  0x0100\n  exp\n  swap1\n  div\n  0xffffffffffffffffffffffffffffffffffffffff\n  and\n    /* \"@openzeppelin/contracts@4.4.2/access/Ownable.sol\":2343:2368  address oldOwner = _owner */\n  swap1\n  pop\n    /* \"@openzeppelin/contracts@4.4.2/access/Ownable.sol\":2387:2395  newOwner */\n  dup2\n    /* \"@openzeppelin/contracts@4.4.2/access/Ownable.sol\":2378:2384  _owner */\n  0x00\n  dup1\n    /* \"@openzeppelin/contracts@4.4.2/access/Ownable.sol\":2378:2395  _owner = newOwner */\n  0x0100\n  exp\n  dup2\n  sload\n  dup2\n  0xffffffffffffffffffffffffffffffffffffffff\n  mul\n  not\n  and\n  swap1\n  dup4\n  0xffffffffffffffffffffffffffffffffffffffff\n  and\n  mul\n  or\n  swap1\n  sstore\n  pop\n    /* \"@openzeppelin/contracts@4.4.2/access/Ownable.sol\":2441:2449  newOwner */\n  dup2\n    /* \"@openzeppelin/contracts@4.4.2/access/Ownable.sol\":2410:2450  OwnershipTransferred(oldOwner, newOwner) */\n  0xffffffffffffffffffffffffffffffffffffffff\n  and\n    /* \"@openzeppelin/contracts@4.4.2/access/Ownable.sol\":2431:2439  oldOwner */\n  dup2\n    /* \"@openzeppelin/contracts@4.4.2/access/Ownable.sol\":2410:2450  OwnershipTransferred(oldOwner, newOwner) */\n  0xffffffffffffffffffffffffffffffffffffffff\n  and\n  0x8be0079c531659141344cd1fd0a4f28419497f9722a3daafe3b4186f6b6457e0\n  mload(0x40)\n  mload(0x40)\n  dup1\n  swap2\n  sub\n  swap1\n  log3\n    /* \"@openzeppelin/contracts@4.4.2/access/Ownable.sol\":2270:2457  function _transferOwnership(address newOwner) internal virtual {... */\n  pop\n  pop\n  jump\t// out\n    /* \"contracts/Founding Citizens NFT Sale.sol\":1958:3855  contract FoundingNFTSale is Ownable {\r... */\ntag_10:\n  dataSize(sub_0)\n  dup1\n  dataOffset(sub_0)\n  0x00\n  codecopy\n  0x00\n  return\nstop\n\nsub_0: assembly {\n        /* \"contracts/Founding Citizens NFT Sale.sol\":1958:3855  contract FoundingNFTSale is Ownable {\r... */\n      mstore(0x40, 0x80)\n      callvalue\n      dup1\n      iszero\n      tag_1\n      jumpi\n      0x00\n      dup1\n      revert\n    tag_1:\n      pop\n      jumpi(tag_2, lt(calldatasize, 0x04))\n      shr(0xe0, calldataload(0x00))\n      dup1\n      0x51f7598c\n      gt\n      tag_14\n      jumpi\n      dup1\n      0x51f7598c\n      eq\n      tag_8\n      jumpi\n      dup1\n      0x715018a6\n      eq\n      tag_9\n      jumpi\n      dup1\n      0x8da5cb5b\n      eq\n      tag_10\n      jumpi\n      dup1\n      0xc0463711\n      eq\n      tag_11\n      jumpi\n      dup1\n      0xf121da92\n      eq\n      tag_12\n      jumpi\n      dup1\n      0xf2fde38b\n      eq\n      tag_13\n      jumpi\n      jump(tag_2)\n    tag_14:\n      dup1\n      0x11ce0267\n      eq\n      tag_3\n      jumpi\n      dup1\n      0x11eac855\n      eq\n      tag_4\n      jumpi\n      dup1\n      0x1515fa6e\n      eq\n      tag_5\n      jumpi\n      dup1\n      0x2f181f54\n      eq\n      tag_6\n      jumpi\n      dup1\n      0x51ed8288\n      eq\n      tag_7\n      jumpi\n    tag_2:\n      0x00\n      dup1\n      revert\n        /* \"contracts/Founding Citizens NFT Sale.sol\":2001:2031  address public storageContract */\n    tag_3:\n      tag_15\n      tag_16\n      jump\t// in\n    tag_15:\n      mload(0x40)\n      tag_17\n      swap2\n      swap1\n      tag_18\n      jump\t// in\n    tag_17:\n      mload(0x40)\n      dup1\n      swap2\n      sub\n      swap1\n      return\n        /* \"contracts/Founding Citizens NFT Sale.sol\":2040:2062  ERC20 public usdcToken */\n    tag_4:\n      tag_19\n      tag_20\n      jump\t// in\n    tag_19:\n      mload(0x40)\n      tag_21\n      swap2\n      swap1\n      tag_22\n      jump\t// in\n    tag_21:\n      mload(0x40)\n      dup1\n      swap2\n      sub\n      swap1\n      return\n        /* \"contracts/Founding Citizens NFT Sale.sol\":3566:3655  function setSaleEnd(uint unixTime) public onlyOwner {\r... */\n    tag_5:\n      tag_23\n      0x04\n      dup1\n      calldatasize\n      sub\n      dup2\n      add\n      swap1\n      tag_24\n      swap2\n      swap1\n      tag_25\n      jump\t// in\n    tag_24:\n      tag_26\n      jump\t// in\n    tag_23:\n      stop\n        /* \"contracts/Founding Citizens NFT Sale.sol\":3465:3558  function setSaleStart(uint unixTime) public onlyOwner {\r... */\n    tag_6:\n      tag_27\n      0x04\n      dup1\n      calldatasize\n      sub\n      dup2\n      add\n      swap1\n      tag_28\n      swap2\n      swap1\n      tag_25\n      jump\t// in\n    tag_28:\n      tag_29\n      jump\t// in\n    tag_27:\n      stop\n        /* \"contracts/Founding Citizens NFT Sale.sol\":3663:3852  function buyNFT(uint amount) public {\r... */\n    tag_7:\n      tag_30\n      0x04\n      dup1\n      calldatasize\n      sub\n      dup2\n      add\n      swap1\n      tag_31\n      swap2\n      swap1\n      tag_25\n      jump\t// in\n    tag_31:\n      tag_32\n      jump\t// in\n    tag_30:\n      stop\n        /* \"contracts/Founding Citizens NFT Sale.sol\":3040:3167  function setStorageContractAddress(address storageAddress) public onlyOwner {\r... */\n    tag_8:\n      tag_33\n      0x04\n      dup1\n      calldatasize\n      sub\n      dup2\n      add\n      swap1\n      tag_34\n      swap2\n      swap1\n      tag_35\n      jump\t// in\n    tag_34:\n      tag_36\n      jump\t// in\n    tag_33:\n      stop\n        /* \"@openzeppelin/contracts@4.4.2/access/Ownable.sol\":1668:1769  function renounceOwnership() public virtual onlyOwner {... */\n    tag_9:\n      tag_37\n      tag_38\n      jump\t// in\n    tag_37:\n      stop\n        /* \"@openzeppelin/contracts@4.4.2/access/Ownable.sol\":1036:1121  function owner() public view virtual returns (address) {... */\n    tag_10:\n      tag_39\n      tag_40\n      jump\t// in\n    tag_39:\n      mload(0x40)\n      tag_41\n      swap2\n      swap1\n      tag_18\n      jump\t// in\n    tag_41:\n      mload(0x40)\n      dup1\n      swap2\n      sub\n      swap1\n      return\n        /* \"contracts/Founding Citizens NFT Sale.sol\":2386:2450  Update public lastUpdate = Update(10000, block.timestamp, false) */\n    tag_11:\n      tag_42\n      tag_43\n      jump\t// in\n    tag_42:\n      mload(0x40)\n      tag_44\n      swap4\n      swap3\n      swap2\n      swap1\n      tag_45\n      jump\t// in\n    tag_44:\n      mload(0x40)\n      dup1\n      swap2\n      sub\n      swap1\n      return\n        /* \"contracts/Founding Citizens NFT Sale.sol\":3307:3457  function preLoadURIs(uint[] memory ids, string[] memory uris) public onlyOwner {\r... */\n    tag_12:\n      tag_46\n      0x04\n      dup1\n      calldatasize\n      sub\n      dup2\n      add\n      swap1\n      tag_47\n      swap2\n      swap1\n      tag_48\n      jump\t// in\n    tag_47:\n      tag_49\n      jump\t// in\n    tag_46:\n      stop\n        /* \"@openzeppelin/contracts@4.4.2/access/Ownable.sol\":1918:2116  function transferOwnership(address newOwner) public virtual onlyOwner {... */\n    tag_13:\n      tag_50\n      0x04\n      dup1\n      calldatasize\n      sub\n      dup2\n      add\n      swap1\n      tag_51\n      swap2\n      swap1\n      tag_35\n      jump\t// in\n    tag_51:\n      tag_52\n      jump\t// in\n    tag_50:\n      stop\n        /* \"contracts/Founding Citizens NFT Sale.sol\":2001:2031  address public storageContract */\n    tag_16:\n      0x01\n      0x00\n      swap1\n      sload\n      swap1\n      0x0100\n      exp\n      swap1\n      div\n      0xffffffffffffffffffffffffffffffffffffffff\n      and\n      dup2\n      jump\t// out\n        /* \"contracts/Founding Citizens NFT Sale.sol\":2040:2062  ERC20 public usdcToken */\n    tag_20:\n      0x02\n      0x00\n      swap1\n      sload\n      swap1\n      0x0100\n      exp\n      swap1\n      div\n      0xffffffffffffffffffffffffffffffffffffffff\n      and\n      dup2\n      jump\t// out\n        /* \"contracts/Founding Citizens NFT Sale.sol\":3566:3655  function setSaleEnd(uint unixTime) public onlyOwner {\r... */\n    tag_26:\n        /* \"@openzeppelin/contracts@4.4.2/access/Ownable.sol\":1259:1271  _msgSender() */\n      tag_54\n        /* \"@openzeppelin/contracts@4.4.2/access/Ownable.sol\":1259:1269  _msgSender */\n      tag_55\n        /* \"@openzeppelin/contracts@4.4.2/access/Ownable.sol\":1259:1271  _msgSender() */\n      jump\t// in\n    tag_54:\n        /* \"@openzeppelin/contracts@4.4.2/access/Ownable.sol\":1248:1271  owner() == _msgSender() */\n      0xffffffffffffffffffffffffffffffffffffffff\n      and\n        /* \"@openzeppelin/contracts@4.4.2/access/Ownable.sol\":1248:1255  owner() */\n      tag_56\n        /* \"@openzeppelin/contracts@4.4.2/access/Ownable.sol\":1248:1253  owner */\n      tag_40\n        /* \"@openzeppelin/contracts@4.4.2/access/Ownable.sol\":1248:1255  owner() */\n      jump\t// in\n    tag_56:\n        /* \"@openzeppelin/contracts@4.4.2/access/Ownable.sol\":1248:1271  owner() == _msgSender() */\n      0xffffffffffffffffffffffffffffffffffffffff\n      and\n      eq\n        /* \"@openzeppelin/contracts@4.4.2/access/Ownable.sol\":1240:1308  require(owner() == _msgSender(), \"Ownable: caller is not the owner\") */\n      tag_57\n      jumpi\n      mload(0x40)\n      0x08c379a000000000000000000000000000000000000000000000000000000000\n      dup2\n      mstore\n      0x04\n      add\n      tag_58\n      swap1\n      tag_59\n      jump\t// in\n    tag_58:\n      mload(0x40)\n      dup1\n      swap2\n      sub\n      swap1\n      revert\n    tag_57:\n        /* \"contracts/Founding Citizens NFT Sale.sol\":3639:3647  unixTime */\n      dup1\n        /* \"contracts/Founding Citizens NFT Sale.sol\":3629:3636  saleEnd */\n      0x04\n        /* \"contracts/Founding Citizens NFT Sale.sol\":3629:3647  saleEnd = unixTime */\n      dup2\n      swap1\n      sstore\n      pop\n        /* \"contracts/Founding Citizens NFT Sale.sol\":3566:3655  function setSaleEnd(uint unixTime) public onlyOwner {\r... */\n      pop\n      jump\t// out\n        /* \"contracts/Founding Citizens NFT Sale.sol\":3465:3558  function setSaleStart(uint unixTime) public onlyOwner {\r... */\n    tag_29:\n        /* \"@openzeppelin/contracts@4.4.2/access/Ownable.sol\":1259:1271  _msgSender() */\n      tag_62\n        /* \"@openzeppelin/contracts@4.4.2/access/Ownable.sol\":1259:1269  _msgSender */\n      tag_55\n        /* \"@openzeppelin/contracts@4.4.2/access/Ownable.sol\":1259:1271  _msgSender() */\n      jump\t// in\n    tag_62:\n        /* \"@openzeppelin/contracts@4.4.2/access/Ownable.sol\":1248:1271  owner() == _msgSender() */\n      0xffffffffffffffffffffffffffffffffffffffff\n      and\n        /* \"@openzeppelin/contracts@4.4.2/access/Ownable.sol\":1248:1255  owner() */\n      tag_63\n        /* \"@openzeppelin/contracts@4.4.2/access/Ownable.sol\":1248:1253  owner */\n      tag_40\n        /* \"@openzeppelin/contracts@4.4.2/access/Ownable.sol\":1248:1255  owner() */\n      jump\t// in\n    tag_63:\n        /* \"@openzeppelin/contracts@4.4.2/access/Ownable.sol\":1248:1271  owner() == _msgSender() */\n      0xffffffffffffffffffffffffffffffffffffffff\n      and\n      eq\n        /* \"@openzeppelin/contracts@4.4.2/access/Ownable.sol\":1240:1308  require(owner() == _msgSender(), \"Ownable: caller is not the owner\") */\n      tag_64\n      jumpi\n      mload(0x40)\n      0x08c379a000000000000000000000000000000000000000000000000000000000\n      dup2\n      mstore\n      0x04\n      add\n      tag_65\n      swap1\n      tag_59\n      jump\t// in\n    tag_65:\n      mload(0x40)\n      dup1\n      swap2\n      sub\n      swap1\n      revert\n    tag_64:\n        /* \"contracts/Founding Citizens NFT Sale.sol\":3542:3550  unixTime */\n      dup1\n        /* \"contracts/Founding Citizens NFT Sale.sol\":3530:3539  saleStart */\n      0x03\n        /* \"contracts/Founding Citizens NFT Sale.sol\":3530:3550  saleStart = unixTime */\n      dup2\n      swap1\n      sstore\n      pop\n        /* \"contracts/Founding Citizens NFT Sale.sol\":3465:3558  function setSaleStart(uint unixTime) public onlyOwner {\r... */\n      pop\n      jump\t// out\n        /* \"contracts/Founding Citizens NFT Sale.sol\":3663:3852  function buyNFT(uint amount) public {\r... */\n    tag_32:\n        /* \"contracts/Founding Citizens NFT Sale.sol\":3727:3728  0 */\n      0x00\n        /* \"contracts/Founding Citizens NFT Sale.sol\":3718:3724  amount */\n      dup2\n        /* \"contracts/Founding Citizens NFT Sale.sol\":3718:3728  amount > 0 */\n      gt\n        /* \"contracts/Founding Citizens NFT Sale.sol\":3710:3776  require(amount > 0, \"amount transferred must be a positive value\") */\n      tag_68\n      jumpi\n      mload(0x40)\n      0x08c379a000000000000000000000000000000000000000000000000000000000\n      dup2\n      mstore\n      0x04\n      add\n      tag_69\n      swap1\n      tag_70\n      jump\t// in\n    tag_69:\n      mload(0x40)\n      dup1\n      swap2\n      sub\n      swap1\n      revert\n    tag_68:\n        /* \"contracts/Founding Citizens NFT Sale.sol\":3787:3796  usdcToken */\n      0x02\n      0x00\n      swap1\n      sload\n      swap1\n      0x0100\n      exp\n      swap1\n      div\n      0xffffffffffffffffffffffffffffffffffffffff\n      and\n        /* \"contracts/Founding Citizens NFT Sale.sol\":3787:3809  usdcToken.transferFrom */\n      0xffffffffffffffffffffffffffffffffffffffff\n      and\n      0x23b872dd\n        /* \"contracts/Founding Citizens NFT Sale.sol\":3810:3820  msg.sender */\n      caller\n        /* \"contracts/Founding Citizens NFT Sale.sol\":3830:3834  this */\n      address\n        /* \"contracts/Founding Citizens NFT Sale.sol\":3837:3843  amount */\n      dup5\n        /* \"contracts/Founding Citizens NFT Sale.sol\":3787:3844  usdcToken.transferFrom(msg.sender, address(this), amount) */\n      mload(0x40)\n      dup5\n      0xffffffff\n      and\n      0xe0\n      shl\n      dup2\n      mstore\n      0x04\n      add\n      tag_71\n      swap4\n      swap3\n      swap2\n      swap1\n      tag_72\n      jump\t// in\n    tag_71:\n      0x20\n      mload(0x40)\n      dup1\n      dup4\n      sub\n      dup2\n      0x00\n      dup8\n      dup1\n      extcodesize\n      iszero\n      dup1\n      iszero\n      tag_73\n      jumpi\n      0x00\n      dup1\n      revert\n    tag_73:\n      pop\n      gas\n      call\n      iszero\n      dup1\n      iszero\n      tag_75\n      jumpi\n      returndatasize\n      0x00\n      dup1\n      returndatacopy\n      revert(0x00, returndatasize)\n    tag_75:\n      pop\n      pop\n      pop\n      pop\n      mload(0x40)\n      returndatasize\n      not(0x1f)\n      0x1f\n      dup3\n      add\n      and\n      dup3\n      add\n      dup1\n      0x40\n      mstore\n      pop\n      dup2\n      add\n      swap1\n      tag_76\n      swap2\n      swap1\n      tag_77\n      jump\t// in\n    tag_76:\n      pop\n        /* \"contracts/Founding Citizens NFT Sale.sol\":3663:3852  function buyNFT(uint amount) public {\r... */\n      pop\n      jump\t// out\n        /* \"contracts/Founding Citizens NFT Sale.sol\":3040:3167  function setStorageContractAddress(address storageAddress) public onlyOwner {\r... */\n    tag_36:\n        /* \"@openzeppelin/contracts@4.4.2/access/Ownable.sol\":1259:1271  _msgSender() */\n      tag_79\n        /* \"@openzeppelin/contracts@4.4.2/access/Ownable.sol\":1259:1269  _msgSender */\n      tag_55\n        /* \"@openzeppelin/contracts@4.4.2/access/Ownable.sol\":1259:1271  _msgSender() */\n      jump\t// in\n    tag_79:\n        /* \"@openzeppelin/contracts@4.4.2/access/Ownable.sol\":1248:1271  owner() == _msgSender() */\n      0xffffffffffffffffffffffffffffffffffffffff\n      and\n        /* \"@openzeppelin/contracts@4.4.2/access/Ownable.sol\":1248:1255  owner() */\n      tag_80\n        /* \"@openzeppelin/contracts@4.4.2/access/Ownable.sol\":1248:1253  owner */\n      tag_40\n        /* \"@openzeppelin/contracts@4.4.2/access/Ownable.sol\":1248:1255  owner() */\n      jump\t// in\n    tag_80:\n        /* \"@openzeppelin/contracts@4.4.2/access/Ownable.sol\":1248:1271  owner() == _msgSender() */\n      0xffffffffffffffffffffffffffffffffffffffff\n      and\n      eq\n        /* \"@openzeppelin/contracts@4.4.2/access/Ownable.sol\":1240:1308  require(owner() == _msgSender(), \"Ownable: caller is not the owner\") */\n      tag_81\n      jumpi\n      mload(0x40)\n      0x08c379a000000000000000000000000000000000000000000000000000000000\n      dup2\n      mstore\n      0x04\n      add\n      tag_82\n      swap1\n      tag_59\n      jump\t// in\n    tag_82:\n      mload(0x40)\n      dup1\n      swap2\n      sub\n      swap1\n      revert\n    tag_81:\n        /* \"contracts/Founding Citizens NFT Sale.sol\":3145:3159  storageAddress */\n      dup1\n        /* \"contracts/Founding Citizens NFT Sale.sol\":3127:3142  storageContract */\n      0x01\n      0x00\n        /* \"contracts/Founding Citizens NFT Sale.sol\":3127:3159  storageContract = storageAddress */\n      0x0100\n      exp\n      dup2\n      sload\n      dup2\n      0xffffffffffffffffffffffffffffffffffffffff\n      mul\n      not\n      and\n      swap1\n      dup4\n      0xffffffffffffffffffffffffffffffffffffffff\n      and\n      mul\n      or\n      swap1\n      sstore\n      pop\n        /* \"contracts/Founding Citizens NFT Sale.sol\":3040:3167  function setStorageContractAddress(address storageAddress) public onlyOwner {\r... */\n      pop\n      jump\t// out\n        /* \"@openzeppelin/contracts@4.4.2/access/Ownable.sol\":1668:1769  function renounceOwnership() public virtual onlyOwner {... */\n    tag_38:\n        /* \"@openzeppelin/contracts@4.4.2/access/Ownable.sol\":1259:1271  _msgSender() */\n      tag_85\n        /* \"@openzeppelin/contracts@4.4.2/access/Ownable.sol\":1259:1269  _msgSender */\n      tag_55\n        /* \"@openzeppelin/contracts@4.4.2/access/Ownable.sol\":1259:1271  _msgSender() */\n      jump\t// in\n    tag_85:\n        /* \"@openzeppelin/contracts@4.4.2/access/Ownable.sol\":1248:1271  owner() == _msgSender() */\n      0xffffffffffffffffffffffffffffffffffffffff\n      and\n        /* \"@openzeppelin/contracts@4.4.2/access/Ownable.sol\":1248:1255  owner() */\n      tag_86\n        /* \"@openzeppelin/contracts@4.4.2/access/Ownable.sol\":1248:1253  owner */\n      tag_40\n        /* \"@openzeppelin/contracts@4.4.2/access/Ownable.sol\":1248:1255  owner() */\n      jump\t// in\n    tag_86:\n        /* \"@openzeppelin/contracts@4.4.2/access/Ownable.sol\":1248:1271  owner() == _msgSender() */\n      0xffffffffffffffffffffffffffffffffffffffff\n      and\n      eq\n        /* \"@openzeppelin/contracts@4.4.2/access/Ownable.sol\":1240:1308  require(owner() == _msgSender(), \"Ownable: caller is not the owner\") */\n      tag_87\n      jumpi\n      mload(0x40)\n      0x08c379a000000000000000000000000000000000000000000000000000000000\n      dup2\n      mstore\n      0x04\n      add\n      tag_88\n      swap1\n      tag_59\n      jump\t// in\n    tag_88:\n      mload(0x40)\n      dup1\n      swap2\n      sub\n      swap1\n      revert\n    tag_87:\n        /* \"@openzeppelin/contracts@4.4.2/access/Ownable.sol\":1732:1762  _transferOwnership(address(0)) */\n      tag_90\n        /* \"@openzeppelin/contracts@4.4.2/access/Ownable.sol\":1759:1760  0 */\n      0x00\n        /* \"@openzeppelin/contracts@4.4.2/access/Ownable.sol\":1732:1750  _transferOwnership */\n      tag_91\n        /* \"@openzeppelin/contracts@4.4.2/access/Ownable.sol\":1732:1762  _transferOwnership(address(0)) */\n      jump\t// in\n    tag_90:\n        /* \"@openzeppelin/contracts@4.4.2/access/Ownable.sol\":1668:1769  function renounceOwnership() public virtual onlyOwner {... */\n      jump\t// out\n        /* \"@openzeppelin/contracts@4.4.2/access/Ownable.sol\":1036:1121  function owner() public view virtual returns (address) {... */\n    tag_40:\n        /* \"@openzeppelin/contracts@4.4.2/access/Ownable.sol\":1082:1089  address */\n      0x00\n        /* \"@openzeppelin/contracts@4.4.2/access/Ownable.sol\":1108:1114  _owner */\n      dup1\n      0x00\n      swap1\n      sload\n      swap1\n      0x0100\n      exp\n      swap1\n      div\n      0xffffffffffffffffffffffffffffffffffffffff\n      and\n        /* \"@openzeppelin/contracts@4.4.2/access/Ownable.sol\":1101:1114  return _owner */\n      swap1\n      pop\n        /* \"@openzeppelin/contracts@4.4.2/access/Ownable.sol\":1036:1121  function owner() public view virtual returns (address) {... */\n      swap1\n      jump\t// out\n        /* \"contracts/Founding Citizens NFT Sale.sol\":2386:2450  Update public lastUpdate = Update(10000, block.timestamp, false) */\n    tag_43:\n      0x07\n      dup1\n      0x00\n      add\n      sload\n      swap1\n      dup1\n      0x01\n      add\n      sload\n      swap1\n      dup1\n      0x02\n      add\n      0x00\n      swap1\n      sload\n      swap1\n      0x0100\n      exp\n      swap1\n      div\n      0xff\n      and\n      swap1\n      pop\n      dup4\n      jump\t// out\n        /* \"contracts/Founding Citizens NFT Sale.sol\":3307:3457  function preLoadURIs(uint[] memory ids, string[] memory uris) public onlyOwner {\r... */\n    tag_49:\n        /* \"@openzeppelin/contracts@4.4.2/access/Ownable.sol\":1259:1271  _msgSender() */\n      tag_94\n        /* \"@openzeppelin/contracts@4.4.2/access/Ownable.sol\":1259:1269  _msgSender */\n      tag_55\n        /* \"@openzeppelin/contracts@4.4.2/access/Ownable.sol\":1259:1271  _msgSender() */\n      jump\t// in\n    tag_94:\n        /* \"@openzeppelin/contracts@4.4.2/access/Ownable.sol\":1248:1271  owner() == _msgSender() */\n      0xffffffffffffffffffffffffffffffffffffffff\n      and\n        /* \"@openzeppelin/contracts@4.4.2/access/Ownable.sol\":1248:1255  owner() */\n      tag_95\n        /* \"@openzeppelin/contracts@4.4.2/access/Ownable.sol\":1248:1253  owner */\n      tag_40\n        /* \"@openzeppelin/contracts@4.4.2/access/Ownable.sol\":1248:1255  owner() */\n      jump\t// in\n    tag_95:\n        /* \"@openzeppelin/contracts@4.4.2/access/Ownable.sol\":1248:1271  owner() == _msgSender() */\n      0xffffffffffffffffffffffffffffffffffffffff\n      and\n      eq\n        /* \"@openzeppelin/contracts@4.4.2/access/Ownable.sol\":1240:1308  require(owner() == _msgSender(), \"Ownable: caller is not the owner\") */\n      tag_96\n      jumpi\n      mload(0x40)\n      0x08c379a000000000000000000000000000000000000000000000000000000000\n      dup2\n      mstore\n      0x04\n      add\n      tag_97\n      swap1\n      tag_59\n      jump\t// in\n    tag_97:\n      mload(0x40)\n      dup1\n      swap2\n      sub\n      swap1\n      revert\n    tag_96:\n        /* \"contracts/Founding Citizens NFT Sale.sol\":3410:3425  storageContract */\n      0x01\n      0x00\n      swap1\n      sload\n      swap1\n      0x0100\n      exp\n      swap1\n      div\n      0xffffffffffffffffffffffffffffffffffffffff\n      and\n        /* \"contracts/Founding Citizens NFT Sale.sol\":3397:3438  IMintStorage(storageContract).preLoadURIs */\n      0xffffffffffffffffffffffffffffffffffffffff\n      and\n      0xf121da92\n        /* \"contracts/Founding Citizens NFT Sale.sol\":3439:3442  ids */\n      dup4\n        /* \"contracts/Founding Citizens NFT Sale.sol\":3444:3448  uris */\n      dup4\n        /* \"contracts/Founding Citizens NFT Sale.sol\":3397:3449  IMintStorage(storageContract).preLoadURIs(ids, uris) */\n      mload(0x40)\n      dup4\n      0xffffffff\n      and\n      0xe0\n      shl\n      dup2\n      mstore\n      0x04\n      add\n      tag_99\n      swap3\n      swap2\n      swap1\n      tag_100\n      jump\t// in\n    tag_99:\n      0x00\n      mload(0x40)\n      dup1\n      dup4\n      sub\n      dup2\n      0x00\n      dup8\n      dup1\n      extcodesize\n      iszero\n      dup1\n      iszero\n      tag_101\n      jumpi\n      0x00\n      dup1\n      revert\n    tag_101:\n      pop\n      gas\n      call\n      iszero\n      dup1\n      iszero\n      tag_103\n      jumpi\n      returndatasize\n      0x00\n      dup1\n      returndatacopy\n      revert(0x00, returndatasize)\n    tag_103:\n      pop\n      pop\n      pop\n      pop\n        /* \"contracts/Founding Citizens NFT Sale.sol\":3307:3457  function preLoadURIs(uint[] memory ids, string[] memory uris) public onlyOwner {\r... */\n      pop\n      pop\n      jump\t// out\n        /* \"@openzeppelin/contracts@4.4.2/access/Ownable.sol\":1918:2116  function transferOwnership(address newOwner) public virtual onlyOwner {... */\n    tag_52:\n        /* \"@openzeppelin/contracts@4.4.2/access/Ownable.sol\":1259:1271  _msgSender() */\n      tag_105\n        /* \"@openzeppelin/contracts@4.4.2/access/Ownable.sol\":1259:1269  _msgSender */\n      tag_55\n        /* \"@openzeppelin/contracts@4.4.2/access/Ownable.sol\":1259:1271  _msgSender() */\n      jump\t// in\n    tag_105:\n        /* \"@openzeppelin/contracts@4.4.2/access/Ownable.sol\":1248:1271  owner() == _msgSender() */\n      0xffffffffffffffffffffffffffffffffffffffff\n      and\n        /* \"@openzeppelin/contracts@4.4.2/access/Ownable.sol\":1248:1255  owner() */\n      tag_106\n        /* \"@openzeppelin/contracts@4.4.2/access/Ownable.sol\":1248:1253  owner */\n      tag_40\n        /* \"@openzeppelin/contracts@4.4.2/access/Ownable.sol\":1248:1255  owner() */\n      jump\t// in\n    tag_106:\n        /* \"@openzeppelin/contracts@4.4.2/access/Ownable.sol\":1248:1271  owner() == _msgSender() */\n      0xffffffffffffffffffffffffffffffffffffffff\n      and\n      eq\n        /* \"@openzeppelin/contracts@4.4.2/access/Ownable.sol\":1240:1308  require(owner() == _msgSender(), \"Ownable: caller is not the owner\") */\n      tag_107\n      jumpi\n      mload(0x40)\n      0x08c379a000000000000000000000000000000000000000000000000000000000\n      dup2\n      mstore\n      0x04\n      add\n      tag_108\n      swap1\n      tag_59\n      jump\t// in\n    tag_108:\n      mload(0x40)\n      dup1\n      swap2\n      sub\n      swap1\n      revert\n    tag_107:\n        /* \"@openzeppelin/contracts@4.4.2/access/Ownable.sol\":2026:2027  0 */\n      0x00\n        /* \"@openzeppelin/contracts@4.4.2/access/Ownable.sol\":2006:2028  newOwner != address(0) */\n      0xffffffffffffffffffffffffffffffffffffffff\n      and\n        /* \"@openzeppelin/contracts@4.4.2/access/Ownable.sol\":2006:2014  newOwner */\n      dup2\n        /* \"@openzeppelin/contracts@4.4.2/access/Ownable.sol\":2006:2028  newOwner != address(0) */\n      0xffffffffffffffffffffffffffffffffffffffff\n      and\n      eq\n      iszero\n        /* \"@openzeppelin/contracts@4.4.2/access/Ownable.sol\":1998:2071  require(newOwner != address(0), \"Ownable: new owner is the zero address\") */\n      tag_110\n      jumpi\n      mload(0x40)\n      0x08c379a000000000000000000000000000000000000000000000000000000000\n      dup2\n      mstore\n      0x04\n      add\n      tag_111\n      swap1\n      tag_112\n      jump\t// in\n    tag_111:\n      mload(0x40)\n      dup1\n      swap2\n      sub\n      swap1\n      revert\n    tag_110:\n        /* \"@openzeppelin/contracts@4.4.2/access/Ownable.sol\":2081:2109  _transferOwnership(newOwner) */\n      tag_113\n        /* \"@openzeppelin/contracts@4.4.2/access/Ownable.sol\":2100:2108  newOwner */\n      dup2\n        /* \"@openzeppelin/contracts@4.4.2/access/Ownable.sol\":2081:2099  _transferOwnership */\n      tag_91\n        /* \"@openzeppelin/contracts@4.4.2/access/Ownable.sol\":2081:2109  _transferOwnership(newOwner) */\n      jump\t// in\n    tag_113:\n        /* \"@openzeppelin/contracts@4.4.2/access/Ownable.sol\":1918:2116  function transferOwnership(address newOwner) public virtual onlyOwner {... */\n      pop\n      jump\t// out\n        /* \"@openzeppelin/contracts@4.4.2/utils/Context.sol\":640:736  function _msgSender() internal view virtual returns (address) {... */\n    tag_55:\n        /* \"@openzeppelin/contracts@4.4.2/utils/Context.sol\":693:700  address */\n      0x00\n        /* \"@openzeppelin/contracts@4.4.2/utils/Context.sol\":719:729  msg.sender */\n      caller\n        /* \"@openzeppelin/contracts@4.4.2/utils/Context.sol\":712:729  return msg.sender */\n      swap1\n      pop\n        /* \"@openzeppelin/contracts@4.4.2/utils/Context.sol\":640:736  function _msgSender() internal view virtual returns (address) {... */\n      swap1\n      jump\t// out\n        /* \"@openzeppelin/contracts@4.4.2/access/Ownable.sol\":2270:2457  function _transferOwnership(address newOwner) internal virtual {... */\n    tag_91:\n        /* \"@openzeppelin/contracts@4.4.2/access/Ownable.sol\":2343:2359  address oldOwner */\n      0x00\n        /* \"@openzeppelin/contracts@4.4.2/access/Ownable.sol\":2362:2368  _owner */\n      dup1\n      0x00\n      swap1\n      sload\n      swap1\n      0x0100\n      exp\n      swap1\n      div\n      0xffffffffffffffffffffffffffffffffffffffff\n      and\n        /* \"@openzeppelin/contracts@4.4.2/access/Ownable.sol\":2343:2368  address oldOwner = _owner */\n      swap1\n      pop\n        /* \"@openzeppelin/contracts@4.4.2/access/Ownable.sol\":2387:2395  newOwner */\n      dup2\n        /* \"@openzeppelin/contracts@4.4.2/access/Ownable.sol\":2378:2384  _owner */\n      0x00\n      dup1\n        /* \"@openzeppelin/contracts@4.4.2/access/Ownable.sol\":2378:2395  _owner = newOwner */\n      0x0100\n      exp\n      dup2\n      sload\n      dup2\n      0xffffffffffffffffffffffffffffffffffffffff\n      mul\n      not\n      and\n      swap1\n      dup4\n      0xffffffffffffffffffffffffffffffffffffffff\n      and\n      mul\n      or\n      swap1\n      sstore\n      pop\n        /* \"@openzeppelin/contracts@4.4.2/access/Ownable.sol\":2441:2449  newOwner */\n      dup2\n        /* \"@openzeppelin/contracts@4.4.2/access/Ownable.sol\":2410:2450  OwnershipTransferred(oldOwner, newOwner) */\n      0xffffffffffffffffffffffffffffffffffffffff\n      and\n        /* \"@openzeppelin/contracts@4.4.2/access/Ownable.sol\":2431:2439  oldOwner */\n      dup2\n        /* \"@openzeppelin/contracts@4.4.2/access/Ownable.sol\":2410:2450  OwnershipTransferred(oldOwner, newOwner) */\n      0xffffffffffffffffffffffffffffffffffffffff\n      and\n      0x8be0079c531659141344cd1fd0a4f28419497f9722a3daafe3b4186f6b6457e0\n      mload(0x40)\n      mload(0x40)\n      dup1\n      swap2\n      sub\n      swap1\n      log3\n        /* \"@openzeppelin/contracts@4.4.2/access/Ownable.sol\":2270:2457  function _transferOwnership(address newOwner) internal virtual {... */\n      pop\n      pop\n      jump\t// out\n        /* \"#utility.yul\":23:639   */\n    tag_117:\n      0x00\n        /* \"#utility.yul\":154:245   */\n      tag_119\n        /* \"#utility.yul\":170:244   */\n      tag_120\n        /* \"#utility.yul\":237:243   */\n      dup5\n        /* \"#utility.yul\":170:244   */\n      tag_121\n      jump\t// in\n    tag_120:\n        /* \"#utility.yul\":154:245   */\n      tag_122\n      jump\t// in\n    tag_119:\n        /* \"#utility.yul\":145:245   */\n      swap1\n      pop\n        /* \"#utility.yul\":265:270   */\n      dup1\n        /* \"#utility.yul\":293:299   */\n      dup4\n        /* \"#utility.yul\":286:291   */\n      dup3\n        /* \"#utility.yul\":279:300   */\n      mstore\n        /* \"#utility.yul\":319:323   */\n      0x20\n        /* \"#utility.yul\":312:317   */\n      dup3\n        /* \"#utility.yul\":308:324   */\n      add\n        /* \"#utility.yul\":301:324   */\n      swap1\n      pop\n        /* \"#utility.yul\":344:350   */\n      dup3\n        /* \"#utility.yul\":375:376   */\n      0x00\n        /* \"#utility.yul\":360:633   */\n    tag_123:\n        /* \"#utility.yul\":385:391   */\n      dup6\n        /* \"#utility.yul\":382:383   */\n      dup2\n        /* \"#utility.yul\":379:392   */\n      lt\n        /* \"#utility.yul\":360:633   */\n      iszero\n      tag_125\n      jumpi\n        /* \"#utility.yul\":477:480   */\n      dup2\n        /* \"#utility.yul\":464:481   */\n      calldataload\n        /* \"#utility.yul\":456:462   */\n      dup6\n        /* \"#utility.yul\":452:482   */\n      add\n        /* \"#utility.yul\":507:554   */\n      tag_126\n        /* \"#utility.yul\":550:553   */\n      dup9\n        /* \"#utility.yul\":538:548   */\n      dup3\n        /* \"#utility.yul\":507:554   */\n      tag_127\n      jump\t// in\n    tag_126:\n        /* \"#utility.yul\":502:505   */\n      dup5\n        /* \"#utility.yul\":495:555   */\n      mstore\n        /* \"#utility.yul\":584:588   */\n      0x20\n        /* \"#utility.yul\":579:582   */\n      dup5\n        /* \"#utility.yul\":575:589   */\n      add\n        /* \"#utility.yul\":568:589   */\n      swap4\n      pop\n        /* \"#utility.yul\":618:622   */\n      0x20\n        /* \"#utility.yul\":613:616   */\n      dup4\n        /* \"#utility.yul\":609:623   */\n      add\n        /* \"#utility.yul\":602:623   */\n      swap3\n      pop\n        /* \"#utility.yul\":420:633   */\n      pop\n        /* \"#utility.yul\":407:408   */\n      0x01\n        /* \"#utility.yul\":404:405   */\n      dup2\n        /* \"#utility.yul\":400:409   */\n      add\n        /* \"#utility.yul\":395:409   */\n      swap1\n      pop\n        /* \"#utility.yul\":360:633   */\n      jump(tag_123)\n    tag_125:\n        /* \"#utility.yul\":364:378   */\n      pop\n        /* \"#utility.yul\":135:639   */\n      pop\n      pop\n      swap4\n      swap3\n      pop\n      pop\n      pop\n      jump\t// out\n        /* \"#utility.yul\":662:1285   */\n    tag_128:\n      0x00\n        /* \"#utility.yul\":783:864   */\n      tag_130\n        /* \"#utility.yul\":799:863   */\n      tag_131\n        /* \"#utility.yul\":856:862   */\n      dup5\n        /* \"#utility.yul\":799:863   */\n      tag_132\n      jump\t// in\n    tag_131:\n        /* \"#utility.yul\":783:864   */\n      tag_122\n      jump\t// in\n    tag_130:\n        /* \"#utility.yul\":774:864   */\n      swap1\n      pop\n        /* \"#utility.yul\":884:889   */\n      dup1\n        /* \"#utility.yul\":912:918   */\n      dup4\n        /* \"#utility.yul\":905:910   */\n      dup3\n        /* \"#utility.yul\":898:919   */\n      mstore\n        /* \"#utility.yul\":938:942   */\n      0x20\n        /* \"#utility.yul\":931:936   */\n      dup3\n        /* \"#utility.yul\":927:943   */\n      add\n        /* \"#utility.yul\":920:943   */\n      swap1\n      pop\n        /* \"#utility.yul\":963:969   */\n      dup3\n        /* \"#utility.yul\":1013:1016   */\n      dup6\n        /* \"#utility.yul\":1005:1009   */\n      0x20\n        /* \"#utility.yul\":997:1003   */\n      dup7\n        /* \"#utility.yul\":993:1010   */\n      mul\n        /* \"#utility.yul\":988:991   */\n      dup3\n        /* \"#utility.yul\":984:1011   */\n      add\n        /* \"#utility.yul\":981:1017   */\n      gt\n        /* \"#utility.yul\":978:980   */\n      iszero\n      tag_133\n      jumpi\n        /* \"#utility.yul\":1030:1031   */\n      0x00\n        /* \"#utility.yul\":1027:1028   */\n      dup1\n        /* \"#utility.yul\":1020:1032   */\n      revert\n        /* \"#utility.yul\":978:980   */\n    tag_133:\n        /* \"#utility.yul\":1058:1059   */\n      0x00\n        /* \"#utility.yul\":1043:1279   */\n    tag_134:\n        /* \"#utility.yul\":1068:1074   */\n      dup6\n        /* \"#utility.yul\":1065:1066   */\n      dup2\n        /* \"#utility.yul\":1062:1075   */\n      lt\n        /* \"#utility.yul\":1043:1279   */\n      iszero\n      tag_136\n      jumpi\n        /* \"#utility.yul\":1135:1138   */\n      dup2\n        /* \"#utility.yul\":1163:1200   */\n      tag_137\n        /* \"#utility.yul\":1196:1199   */\n      dup9\n        /* \"#utility.yul\":1184:1194   */\n      dup3\n        /* \"#utility.yul\":1163:1200   */\n      tag_138\n      jump\t// in\n    tag_137:\n        /* \"#utility.yul\":1158:1161   */\n      dup5\n        /* \"#utility.yul\":1151:1201   */\n      mstore\n        /* \"#utility.yul\":1230:1234   */\n      0x20\n        /* \"#utility.yul\":1225:1228   */\n      dup5\n        /* \"#utility.yul\":1221:1235   */\n      add\n        /* \"#utility.yul\":1214:1235   */\n      swap4\n      pop\n        /* \"#utility.yul\":1264:1268   */\n      0x20\n        /* \"#utility.yul\":1259:1262   */\n      dup4\n        /* \"#utility.yul\":1255:1269   */\n      add\n        /* \"#utility.yul\":1248:1269   */\n      swap3\n      pop\n        /* \"#utility.yul\":1103:1279   */\n      pop\n        /* \"#utility.yul\":1090:1091   */\n      0x01\n        /* \"#utility.yul\":1087:1088   */\n      dup2\n        /* \"#utility.yul\":1083:1092   */\n      add\n        /* \"#utility.yul\":1078:1092   */\n      swap1\n      pop\n        /* \"#utility.yul\":1043:1279   */\n      jump(tag_134)\n    tag_136:\n        /* \"#utility.yul\":1047:1061   */\n      pop\n        /* \"#utility.yul\":764:1285   */\n      pop\n      pop\n      swap4\n      swap3\n      pop\n      pop\n      pop\n      jump\t// out\n        /* \"#utility.yul\":1291:1636   */\n    tag_139:\n      0x00\n        /* \"#utility.yul\":1394:1460   */\n      tag_141\n        /* \"#utility.yul\":1410:1459   */\n      tag_142\n        /* \"#utility.yul\":1452:1458   */\n      dup5\n        /* \"#utility.yul\":1410:1459   */\n      tag_143\n      jump\t// in\n    tag_142:\n        /* \"#utility.yul\":1394:1460   */\n      tag_122\n      jump\t// in\n    tag_141:\n        /* \"#utility.yul\":1385:1460   */\n      swap1\n      pop\n        /* \"#utility.yul\":1483:1489   */\n      dup3\n        /* \"#utility.yul\":1476:1481   */\n      dup2\n        /* \"#utility.yul\":1469:1490   */\n      mstore\n        /* \"#utility.yul\":1521:1525   */\n      0x20\n        /* \"#utility.yul\":1514:1519   */\n      dup2\n        /* \"#utility.yul\":1510:1526   */\n      add\n        /* \"#utility.yul\":1559:1562   */\n      dup5\n        /* \"#utility.yul\":1550:1556   */\n      dup5\n        /* \"#utility.yul\":1545:1548   */\n      dup5\n        /* \"#utility.yul\":1541:1557   */\n      add\n        /* \"#utility.yul\":1538:1563   */\n      gt\n        /* \"#utility.yul\":1535:1537   */\n      iszero\n      tag_144\n      jumpi\n        /* \"#utility.yul\":1576:1577   */\n      0x00\n        /* \"#utility.yul\":1573:1574   */\n      dup1\n        /* \"#utility.yul\":1566:1578   */\n      revert\n        /* \"#utility.yul\":1535:1537   */\n    tag_144:\n        /* \"#utility.yul\":1589:1630   */\n      tag_145\n        /* \"#utility.yul\":1623:1629   */\n      dup5\n        /* \"#utility.yul\":1618:1621   */\n      dup3\n        /* \"#utility.yul\":1613:1616   */\n      dup6\n        /* \"#utility.yul\":1589:1630   */\n      tag_146\n      jump\t// in\n    tag_145:\n        /* \"#utility.yul\":1375:1636   */\n      pop\n      swap4\n      swap3\n      pop\n      pop\n      pop\n      jump\t// out\n        /* \"#utility.yul\":1642:1781   */\n    tag_147:\n      0x00\n        /* \"#utility.yul\":1726:1732   */\n      dup2\n        /* \"#utility.yul\":1713:1733   */\n      calldataload\n        /* \"#utility.yul\":1704:1733   */\n      swap1\n      pop\n        /* \"#utility.yul\":1742:1775   */\n      tag_149\n        /* \"#utility.yul\":1769:1774   */\n      dup2\n        /* \"#utility.yul\":1742:1775   */\n      tag_150\n      jump\t// in\n    tag_149:\n        /* \"#utility.yul\":1694:1781   */\n      swap3\n      swap2\n      pop\n      pop\n      jump\t// out\n        /* \"#utility.yul\":1803:2126   */\n    tag_151:\n      0x00\n        /* \"#utility.yul\":1933:1936   */\n      dup3\n        /* \"#utility.yul\":1926:1930   */\n      0x1f\n        /* \"#utility.yul\":1918:1924   */\n      dup4\n        /* \"#utility.yul\":1914:1931   */\n      add\n        /* \"#utility.yul\":1910:1937   */\n      slt\n        /* \"#utility.yul\":1900:1902   */\n      tag_153\n      jumpi\n        /* \"#utility.yul\":1951:1952   */\n      0x00\n        /* \"#utility.yul\":1948:1949   */\n      dup1\n        /* \"#utility.yul\":1941:1953   */\n      revert\n        /* \"#utility.yul\":1900:1902   */\n    tag_153:\n        /* \"#utility.yul\":1991:1997   */\n      dup2\n        /* \"#utility.yul\":1978:1998   */\n      calldataload\n        /* \"#utility.yul\":2016:2120   */\n      tag_154\n        /* \"#utility.yul\":2116:2119   */\n      dup5\n        /* \"#utility.yul\":2108:2114   */\n      dup3\n        /* \"#utility.yul\":2101:2105   */\n      0x20\n        /* \"#utility.yul\":2093:2099   */\n      dup7\n        /* \"#utility.yul\":2089:2106   */\n      add\n        /* \"#utility.yul\":2016:2120   */\n      tag_117\n      jump\t// in\n    tag_154:\n        /* \"#utility.yul\":2007:2120   */\n      swap2\n      pop\n        /* \"#utility.yul\":1890:2126   */\n      pop\n      swap3\n      swap2\n      pop\n      pop\n      jump\t// out\n        /* \"#utility.yul\":2149:2452   */\n    tag_155:\n      0x00\n        /* \"#utility.yul\":2269:2272   */\n      dup3\n        /* \"#utility.yul\":2262:2266   */\n      0x1f\n        /* \"#utility.yul\":2254:2260   */\n      dup4\n        /* \"#utility.yul\":2250:2267   */\n      add\n        /* \"#utility.yul\":2246:2273   */\n      slt\n        /* \"#utility.yul\":2236:2238   */\n      tag_157\n      jumpi\n        /* \"#utility.yul\":2287:2288   */\n      0x00\n        /* \"#utility.yul\":2284:2285   */\n      dup1\n        /* \"#utility.yul\":2277:2289   */\n      revert\n        /* \"#utility.yul\":2236:2238   */\n    tag_157:\n        /* \"#utility.yul\":2327:2333   */\n      dup2\n        /* \"#utility.yul\":2314:2334   */\n      calldataload\n        /* \"#utility.yul\":2352:2446   */\n      tag_158\n        /* \"#utility.yul\":2442:2445   */\n      dup5\n        /* \"#utility.yul\":2434:2440   */\n      dup3\n        /* \"#utility.yul\":2427:2431   */\n      0x20\n        /* \"#utility.yul\":2419:2425   */\n      dup7\n        /* \"#utility.yul\":2415:2432   */\n      add\n        /* \"#utility.yul\":2352:2446   */\n      tag_128\n      jump\t// in\n    tag_158:\n        /* \"#utility.yul\":2343:2446   */\n      swap2\n      pop\n        /* \"#utility.yul\":2226:2452   */\n      pop\n      swap3\n      swap2\n      pop\n      pop\n      jump\t// out\n        /* \"#utility.yul\":2458:2595   */\n    tag_159:\n      0x00\n        /* \"#utility.yul\":2543:2549   */\n      dup2\n        /* \"#utility.yul\":2537:2550   */\n      mload\n        /* \"#utility.yul\":2528:2550   */\n      swap1\n      pop\n        /* \"#utility.yul\":2559:2589   */\n      tag_161\n        /* \"#utility.yul\":2583:2588   */\n      dup2\n        /* \"#utility.yul\":2559:2589   */\n      tag_162\n      jump\t// in\n    tag_161:\n        /* \"#utility.yul\":2518:2595   */\n      swap3\n      swap2\n      pop\n      pop\n      jump\t// out\n        /* \"#utility.yul\":2615:2888   */\n    tag_127:\n      0x00\n        /* \"#utility.yul\":2720:2723   */\n      dup3\n        /* \"#utility.yul\":2713:2717   */\n      0x1f\n        /* \"#utility.yul\":2705:2711   */\n      dup4\n        /* \"#utility.yul\":2701:2718   */\n      add\n        /* \"#utility.yul\":2697:2724   */\n      slt\n        /* \"#utility.yul\":2687:2689   */\n      tag_164\n      jumpi\n        /* \"#utility.yul\":2738:2739   */\n      0x00\n        /* \"#utility.yul\":2735:2736   */\n      dup1\n        /* \"#utility.yul\":2728:2740   */\n      revert\n        /* \"#utility.yul\":2687:2689   */\n    tag_164:\n        /* \"#utility.yul\":2778:2784   */\n      dup2\n        /* \"#utility.yul\":2765:2785   */\n      calldataload\n        /* \"#utility.yul\":2803:2882   */\n      tag_165\n        /* \"#utility.yul\":2878:2881   */\n      dup5\n        /* \"#utility.yul\":2870:2876   */\n      dup3\n        /* \"#utility.yul\":2863:2867   */\n      0x20\n        /* \"#utility.yul\":2855:2861   */\n      dup7\n        /* \"#utility.yul\":2851:2868   */\n      add\n        /* \"#utility.yul\":2803:2882   */\n      tag_139\n      jump\t// in\n    tag_165:\n        /* \"#utility.yul\":2794:2882   */\n      swap2\n      pop\n        /* \"#utility.yul\":2677:2888   */\n      pop\n      swap3\n      swap2\n      pop\n      pop\n      jump\t// out\n        /* \"#utility.yul\":2894:3033   */\n    tag_138:\n      0x00\n        /* \"#utility.yul\":2978:2984   */\n      dup2\n        /* \"#utility.yul\":2965:2985   */\n      calldataload\n        /* \"#utility.yul\":2956:2985   */\n      swap1\n      pop\n        /* \"#utility.yul\":2994:3027   */\n      tag_167\n        /* \"#utility.yul\":3021:3026   */\n      dup2\n        /* \"#utility.yul\":2994:3027   */\n      tag_168\n      jump\t// in\n    tag_167:\n        /* \"#utility.yul\":2946:3033   */\n      swap3\n      swap2\n      pop\n      pop\n      jump\t// out\n        /* \"#utility.yul\":3039:3301   */\n    tag_35:\n      0x00\n        /* \"#utility.yul\":3147:3149   */\n      0x20\n        /* \"#utility.yul\":3135:3144   */\n      dup3\n        /* \"#utility.yul\":3126:3133   */\n      dup5\n        /* \"#utility.yul\":3122:3145   */\n      sub\n        /* \"#utility.yul\":3118:3150   */\n      slt\n        /* \"#utility.yul\":3115:3117   */\n      iszero\n      tag_170\n      jumpi\n        /* \"#utility.yul\":3163:3164   */\n      0x00\n        /* \"#utility.yul\":3160:3161   */\n      dup1\n        /* \"#utility.yul\":3153:3165   */\n      revert\n        /* \"#utility.yul\":3115:3117   */\n    tag_170:\n        /* \"#utility.yul\":3206:3207   */\n      0x00\n        /* \"#utility.yul\":3231:3284   */\n      tag_171\n        /* \"#utility.yul\":3276:3283   */\n      dup5\n        /* \"#utility.yul\":3267:3273   */\n      dup3\n        /* \"#utility.yul\":3256:3265   */\n      dup6\n        /* \"#utility.yul\":3252:3274   */\n      add\n        /* \"#utility.yul\":3231:3284   */\n      tag_147\n      jump\t// in\n    tag_171:\n        /* \"#utility.yul\":3221:3284   */\n      swap2\n      pop\n        /* \"#utility.yul\":3177:3294   */\n      pop\n        /* \"#utility.yul\":3105:3301   */\n      swap3\n      swap2\n      pop\n      pop\n      jump\t// out\n        /* \"#utility.yul\":3307:4020   */\n    tag_48:\n      0x00\n      dup1\n        /* \"#utility.yul\":3492:3494   */\n      0x40\n        /* \"#utility.yul\":3480:3489   */\n      dup4\n        /* \"#utility.yul\":3471:3478   */\n      dup6\n        /* \"#utility.yul\":3467:3490   */\n      sub\n        /* \"#utility.yul\":3463:3495   */\n      slt\n        /* \"#utility.yul\":3460:3462   */\n      iszero\n      tag_173\n      jumpi\n        /* \"#utility.yul\":3508:3509   */\n      0x00\n        /* \"#utility.yul\":3505:3506   */\n      dup1\n        /* \"#utility.yul\":3498:3510   */\n      revert\n        /* \"#utility.yul\":3460:3462   */\n    tag_173:\n        /* \"#utility.yul\":3579:3580   */\n      0x00\n        /* \"#utility.yul\":3568:3577   */\n      dup4\n        /* \"#utility.yul\":3564:3581   */\n      add\n        /* \"#utility.yul\":3551:3582   */\n      calldataload\n        /* \"#utility.yul\":3609:3627   */\n      0xffffffffffffffff\n        /* \"#utility.yul\":3601:3607   */\n      dup2\n        /* \"#utility.yul\":3598:3628   */\n      gt\n        /* \"#utility.yul\":3595:3597   */\n      iszero\n      tag_174\n      jumpi\n        /* \"#utility.yul\":3641:3642   */\n      0x00\n        /* \"#utility.yul\":3638:3639   */\n      dup1\n        /* \"#utility.yul\":3631:3643   */\n      revert\n        /* \"#utility.yul\":3595:3597   */\n    tag_174:\n        /* \"#utility.yul\":3669:3747   */\n      tag_175\n        /* \"#utility.yul\":3739:3746   */\n      dup6\n        /* \"#utility.yul\":3730:3736   */\n      dup3\n        /* \"#utility.yul\":3719:3728   */\n      dup7\n        /* \"#utility.yul\":3715:3737   */\n      add\n        /* \"#utility.yul\":3669:3747   */\n      tag_155\n      jump\t// in\n    tag_175:\n        /* \"#utility.yul\":3659:3747   */\n      swap3\n      pop\n        /* \"#utility.yul\":3522:3757   */\n      pop\n        /* \"#utility.yul\":3824:3826   */\n      0x20\n        /* \"#utility.yul\":3813:3822   */\n      dup4\n        /* \"#utility.yul\":3809:3827   */\n      add\n        /* \"#utility.yul\":3796:3828   */\n      calldataload\n        /* \"#utility.yul\":3855:3873   */\n      0xffffffffffffffff\n        /* \"#utility.yul\":3847:3853   */\n      dup2\n        /* \"#utility.yul\":3844:3874   */\n      gt\n        /* \"#utility.yul\":3841:3843   */\n      iszero\n      tag_176\n      jumpi\n        /* \"#utility.yul\":3887:3888   */\n      0x00\n        /* \"#utility.yul\":3884:3885   */\n      dup1\n        /* \"#utility.yul\":3877:3889   */\n      revert\n        /* \"#utility.yul\":3841:3843   */\n    tag_176:\n        /* \"#utility.yul\":3915:4003   */\n      tag_177\n        /* \"#utility.yul\":3995:4002   */\n      dup6\n        /* \"#utility.yul\":3986:3992   */\n      dup3\n        /* \"#utility.yul\":3975:3984   */\n      dup7\n        /* \"#utility.yul\":3971:3993   */\n      add\n        /* \"#utility.yul\":3915:4003   */\n      tag_151\n      jump\t// in\n    tag_177:\n        /* \"#utility.yul\":3905:4003   */\n      swap2\n      pop\n        /* \"#utility.yul\":3767:4013   */\n      pop\n        /* \"#utility.yul\":3450:4020   */\n      swap3\n      pop\n      swap3\n      swap1\n      pop\n      jump\t// out\n        /* \"#utility.yul\":4026:4304   */\n    tag_77:\n      0x00\n        /* \"#utility.yul\":4142:4144   */\n      0x20\n        /* \"#utility.yul\":4130:4139   */\n      dup3\n        /* \"#utility.yul\":4121:4128   */\n      dup5\n        /* \"#utility.yul\":4117:4140   */\n      sub\n        /* \"#utility.yul\":4113:4145   */\n      slt\n        /* \"#utility.yul\":4110:4112   */\n      iszero\n      tag_179\n      jumpi\n        /* \"#utility.yul\":4158:4159   */\n      0x00\n        /* \"#utility.yul\":4155:4156   */\n      dup1\n        /* \"#utility.yul\":4148:4160   */\n      revert\n        /* \"#utility.yul\":4110:4112   */\n    tag_179:\n        /* \"#utility.yul\":4201:4202   */\n      0x00\n        /* \"#utility.yul\":4226:4287   */\n      tag_180\n        /* \"#utility.yul\":4279:4286   */\n      dup5\n        /* \"#utility.yul\":4270:4276   */\n      dup3\n        /* \"#utility.yul\":4259:4268   */\n      dup6\n        /* \"#utility.yul\":4255:4277   */\n      add\n        /* \"#utility.yul\":4226:4287   */\n      tag_159\n      jump\t// in\n    tag_180:\n        /* \"#utility.yul\":4216:4287   */\n      swap2\n      pop\n        /* \"#utility.yul\":4172:4297   */\n      pop\n        /* \"#utility.yul\":4100:4304   */\n      swap3\n      swap2\n      pop\n      pop\n      jump\t// out\n        /* \"#utility.yul\":4310:4572   */\n    tag_25:\n      0x00\n        /* \"#utility.yul\":4418:4420   */\n      0x20\n        /* \"#utility.yul\":4406:4415   */\n      dup3\n        /* \"#utility.yul\":4397:4404   */\n      dup5\n        /* \"#utility.yul\":4393:4416   */\n      sub\n        /* \"#utility.yul\":4389:4421   */\n      slt\n        /* \"#utility.yul\":4386:4388   */\n      iszero\n      tag_182\n      jumpi\n        /* \"#utility.yul\":4434:4435   */\n      0x00\n        /* \"#utility.yul\":4431:4432   */\n      dup1\n        /* \"#utility.yul\":4424:4436   */\n      revert\n        /* \"#utility.yul\":4386:4388   */\n    tag_182:\n        /* \"#utility.yul\":4477:4478   */\n      0x00\n        /* \"#utility.yul\":4502:4555   */\n      tag_183\n        /* \"#utility.yul\":4547:4554   */\n      dup5\n        /* \"#utility.yul\":4538:4544   */\n      dup3\n        /* \"#utility.yul\":4527:4536   */\n      dup6\n        /* \"#utility.yul\":4523:4545   */\n      add\n        /* \"#utility.yul\":4502:4555   */\n      tag_138\n      jump\t// in\n    tag_183:\n        /* \"#utility.yul\":4492:4555   */\n      swap2\n      pop\n        /* \"#utility.yul\":4448:4565   */\n      pop\n        /* \"#utility.yul\":4376:4572   */\n      swap3\n      swap2\n      pop\n      pop\n      jump\t// out\n        /* \"#utility.yul\":4578:4774   */\n    tag_184:\n      0x00\n        /* \"#utility.yul\":4702:4768   */\n      tag_186\n        /* \"#utility.yul\":4764:4767   */\n      dup4\n        /* \"#utility.yul\":4756:4762   */\n      dup4\n        /* \"#utility.yul\":4702:4768   */\n      tag_187\n      jump\t// in\n    tag_186:\n        /* \"#utility.yul\":4688:4768   */\n      swap1\n      pop\n        /* \"#utility.yul\":4678:4774   */\n      swap3\n      swap2\n      pop\n      pop\n      jump\t// out\n        /* \"#utility.yul\":4780:4959   */\n    tag_188:\n      0x00\n        /* \"#utility.yul\":4870:4916   */\n      tag_190\n        /* \"#utility.yul\":4912:4915   */\n      dup4\n        /* \"#utility.yul\":4904:4910   */\n      dup4\n        /* \"#utility.yul\":4870:4916   */\n      tag_191\n      jump\t// in\n    tag_190:\n        /* \"#utility.yul\":4948:4952   */\n      0x20\n        /* \"#utility.yul\":4943:4946   */\n      dup4\n        /* \"#utility.yul\":4939:4953   */\n      add\n        /* \"#utility.yul\":4925:4953   */\n      swap1\n      pop\n        /* \"#utility.yul\":4860:4959   */\n      swap3\n      swap2\n      pop\n      pop\n      jump\t// out\n        /* \"#utility.yul\":4965:5083   */\n    tag_192:\n        /* \"#utility.yul\":5052:5076   */\n      tag_194\n        /* \"#utility.yul\":5070:5075   */\n      dup2\n        /* \"#utility.yul\":5052:5076   */\n      tag_195\n      jump\t// in\n    tag_194:\n        /* \"#utility.yul\":5047:5050   */\n      dup3\n        /* \"#utility.yul\":5040:5077   */\n      mstore\n        /* \"#utility.yul\":5030:5083   */\n      pop\n      pop\n      jump\t// out\n        /* \"#utility.yul\":5117:6108   */\n    tag_196:\n      0x00\n        /* \"#utility.yul\":5285:5349   */\n      tag_198\n        /* \"#utility.yul\":5343:5348   */\n      dup3\n        /* \"#utility.yul\":5285:5349   */\n      tag_199\n      jump\t// in\n    tag_198:\n        /* \"#utility.yul\":5365:5461   */\n      tag_200\n        /* \"#utility.yul\":5454:5460   */\n      dup2\n        /* \"#utility.yul\":5449:5452   */\n      dup6\n        /* \"#utility.yul\":5365:5461   */\n      tag_201\n      jump\t// in\n    tag_200:\n        /* \"#utility.yul\":5358:5461   */\n      swap4\n      pop\n        /* \"#utility.yul\":5487:5490   */\n      dup4\n        /* \"#utility.yul\":5532:5536   */\n      0x20\n        /* \"#utility.yul\":5524:5530   */\n      dup3\n        /* \"#utility.yul\":5520:5537   */\n      mul\n        /* \"#utility.yul\":5515:5518   */\n      dup6\n        /* \"#utility.yul\":5511:5538   */\n      add\n        /* \"#utility.yul\":5562:5628   */\n      tag_202\n        /* \"#utility.yul\":5622:5627   */\n      dup6\n        /* \"#utility.yul\":5562:5628   */\n      tag_203\n      jump\t// in\n    tag_202:\n        /* \"#utility.yul\":5651:5658   */\n      dup1\n        /* \"#utility.yul\":5682:5683   */\n      0x00\n        /* \"#utility.yul\":5667:6063   */\n    tag_204:\n        /* \"#utility.yul\":5692:5698   */\n      dup6\n        /* \"#utility.yul\":5689:5690   */\n      dup2\n        /* \"#utility.yul\":5686:5699   */\n      lt\n        /* \"#utility.yul\":5667:6063   */\n      iszero\n      tag_206\n      jumpi\n        /* \"#utility.yul\":5763:5772   */\n      dup5\n        /* \"#utility.yul\":5757:5761   */\n      dup5\n        /* \"#utility.yul\":5753:5773   */\n      sub\n        /* \"#utility.yul\":5748:5751   */\n      dup10\n        /* \"#utility.yul\":5741:5774   */\n      mstore\n        /* \"#utility.yul\":5814:5820   */\n      dup2\n        /* \"#utility.yul\":5808:5821   */\n      mload\n        /* \"#utility.yul\":5842:5926   */\n      tag_207\n        /* \"#utility.yul\":5921:5925   */\n      dup6\n        /* \"#utility.yul\":5906:5919   */\n      dup3\n        /* \"#utility.yul\":5842:5926   */\n      tag_184\n      jump\t// in\n    tag_207:\n        /* \"#utility.yul\":5834:5926   */\n      swap5\n      pop\n        /* \"#utility.yul\":5949:6019   */\n      tag_208\n        /* \"#utility.yul\":6012:6018   */\n      dup4\n        /* \"#utility.yul\":5949:6019   */\n      tag_209\n      jump\t// in\n    tag_208:\n        /* \"#utility.yul\":5939:6019   */\n      swap3\n      pop\n        /* \"#utility.yul\":6048:6052   */\n      0x20\n        /* \"#utility.yul\":6043:6046   */\n      dup11\n        /* \"#utility.yul\":6039:6053   */\n      add\n        /* \"#utility.yul\":6032:6053   */\n      swap10\n      pop\n        /* \"#utility.yul\":5727:6063   */\n      pop\n        /* \"#utility.yul\":5714:5715   */\n      0x01\n        /* \"#utility.yul\":5711:5712   */\n      dup2\n        /* \"#utility.yul\":5707:5716   */\n      add\n        /* \"#utility.yul\":5702:5716   */\n      swap1\n      pop\n        /* \"#utility.yul\":5667:6063   */\n      jump(tag_204)\n    tag_206:\n        /* \"#utility.yul\":5671:5685   */\n      pop\n        /* \"#utility.yul\":6079:6083   */\n      dup3\n        /* \"#utility.yul\":6072:6083   */\n      swap8\n      pop\n        /* \"#utility.yul\":6099:6102   */\n      dup8\n        /* \"#utility.yul\":6092:6102   */\n      swap6\n      pop\n        /* \"#utility.yul\":5261:6108   */\n      pop\n      pop\n      pop\n      pop\n      pop\n      swap3\n      swap2\n      pop\n      pop\n      jump\t// out\n        /* \"#utility.yul\":6144:6876   */\n    tag_210:\n      0x00\n        /* \"#utility.yul\":6292:6346   */\n      tag_212\n        /* \"#utility.yul\":6340:6345   */\n      dup3\n        /* \"#utility.yul\":6292:6346   */\n      tag_213\n      jump\t// in\n    tag_212:\n        /* \"#utility.yul\":6362:6448   */\n      tag_214\n        /* \"#utility.yul\":6441:6447   */\n      dup2\n        /* \"#utility.yul\":6436:6439   */\n      dup6\n        /* \"#utility.yul\":6362:6448   */\n      tag_215\n      jump\t// in\n    tag_214:\n        /* \"#utility.yul\":6355:6448   */\n      swap4\n      pop\n        /* \"#utility.yul\":6472:6528   */\n      tag_216\n        /* \"#utility.yul\":6522:6527   */\n      dup4\n        /* \"#utility.yul\":6472:6528   */\n      tag_217\n      jump\t// in\n    tag_216:\n        /* \"#utility.yul\":6551:6558   */\n      dup1\n        /* \"#utility.yul\":6582:6583   */\n      0x00\n        /* \"#utility.yul\":6567:6851   */\n    tag_218:\n        /* \"#utility.yul\":6592:6598   */\n      dup4\n        /* \"#utility.yul\":6589:6590   */\n      dup2\n        /* \"#utility.yul\":6586:6599   */\n      lt\n        /* \"#utility.yul\":6567:6851   */\n      iszero\n      tag_220\n      jumpi\n        /* \"#utility.yul\":6668:6674   */\n      dup2\n        /* \"#utility.yul\":6662:6675   */\n      mload\n        /* \"#utility.yul\":6695:6758   */\n      tag_221\n        /* \"#utility.yul\":6754:6757   */\n      dup9\n        /* \"#utility.yul\":6739:6752   */\n      dup3\n        /* \"#utility.yul\":6695:6758   */\n      tag_188\n      jump\t// in\n    tag_221:\n        /* \"#utility.yul\":6688:6758   */\n      swap8\n      pop\n        /* \"#utility.yul\":6781:6841   */\n      tag_222\n        /* \"#utility.yul\":6834:6840   */\n      dup4\n        /* \"#utility.yul\":6781:6841   */\n      tag_223\n      jump\t// in\n    tag_222:\n        /* \"#utility.yul\":6771:6841   */\n      swap3\n      pop\n        /* \"#utility.yul\":6627:6851   */\n      pop\n        /* \"#utility.yul\":6614:6615   */\n      0x01\n        /* \"#utility.yul\":6611:6612   */\n      dup2\n        /* \"#utility.yul\":6607:6616   */\n      add\n        /* \"#utility.yul\":6602:6616   */\n      swap1\n      pop\n        /* \"#utility.yul\":6567:6851   */\n      jump(tag_218)\n    tag_220:\n        /* \"#utility.yul\":6571:6585   */\n      pop\n        /* \"#utility.yul\":6867:6870   */\n      dup6\n        /* \"#utility.yul\":6860:6870   */\n      swap4\n      pop\n        /* \"#utility.yul\":6268:6876   */\n      pop\n      pop\n      pop\n      swap3\n      swap2\n      pop\n      pop\n      jump\t// out\n        /* \"#utility.yul\":6882:6991   */\n    tag_224:\n        /* \"#utility.yul\":6963:6984   */\n      tag_226\n        /* \"#utility.yul\":6978:6983   */\n      dup2\n        /* \"#utility.yul\":6963:6984   */\n      tag_227\n      jump\t// in\n    tag_226:\n        /* \"#utility.yul\":6958:6961   */\n      dup3\n        /* \"#utility.yul\":6951:6985   */\n      mstore\n        /* \"#utility.yul\":6941:6991   */\n      pop\n      pop\n      jump\t// out\n        /* \"#utility.yul\":6997:7154   */\n    tag_228:\n        /* \"#utility.yul\":7097:7147   */\n      tag_230\n        /* \"#utility.yul\":7141:7146   */\n      dup2\n        /* \"#utility.yul\":7097:7147   */\n      tag_231\n      jump\t// in\n    tag_230:\n        /* \"#utility.yul\":7092:7095   */\n      dup3\n        /* \"#utility.yul\":7085:7148   */\n      mstore\n        /* \"#utility.yul\":7075:7154   */\n      pop\n      pop\n      jump\t// out\n        /* \"#utility.yul\":7160:7504   */\n    tag_187:\n      0x00\n        /* \"#utility.yul\":7266:7305   */\n      tag_233\n        /* \"#utility.yul\":7299:7304   */\n      dup3\n        /* \"#utility.yul\":7266:7305   */\n      tag_234\n      jump\t// in\n    tag_233:\n        /* \"#utility.yul\":7321:7382   */\n      tag_235\n        /* \"#utility.yul\":7375:7381   */\n      dup2\n        /* \"#utility.yul\":7370:7373   */\n      dup6\n        /* \"#utility.yul\":7321:7382   */\n      tag_236\n      jump\t// in\n    tag_235:\n        /* \"#utility.yul\":7314:7382   */\n      swap4\n      pop\n        /* \"#utility.yul\":7391:7443   */\n      tag_237\n        /* \"#utility.yul\":7436:7442   */\n      dup2\n        /* \"#utility.yul\":7431:7434   */\n      dup6\n        /* \"#utility.yul\":7424:7428   */\n      0x20\n        /* \"#utility.yul\":7417:7422   */\n      dup7\n        /* \"#utility.yul\":7413:7429   */\n      add\n        /* \"#utility.yul\":7391:7443   */\n      tag_238\n      jump\t// in\n    tag_237:\n        /* \"#utility.yul\":7468:7497   */\n      tag_239\n        /* \"#utility.yul\":7490:7496   */\n      dup2\n        /* \"#utility.yul\":7468:7497   */\n      tag_240\n      jump\t// in\n    tag_239:\n        /* \"#utility.yul\":7463:7466   */\n      dup5\n        /* \"#utility.yul\":7459:7498   */\n      add\n        /* \"#utility.yul\":7452:7498   */\n      swap2\n      pop\n        /* \"#utility.yul\":7242:7504   */\n      pop\n      swap3\n      swap2\n      pop\n      pop\n      jump\t// out\n        /* \"#utility.yul\":7510:7876   */\n    tag_241:\n      0x00\n        /* \"#utility.yul\":7673:7740   */\n      tag_243\n        /* \"#utility.yul\":7737:7739   */\n      0x26\n        /* \"#utility.yul\":7732:7735   */\n      dup4\n        /* \"#utility.yul\":7673:7740   */\n      tag_244\n      jump\t// in\n    tag_243:\n        /* \"#utility.yul\":7666:7740   */\n      swap2\n      pop\n        /* \"#utility.yul\":7749:7842   */\n      tag_245\n        /* \"#utility.yul\":7838:7841   */\n      dup3\n        /* \"#utility.yul\":7749:7842   */\n      tag_246\n      jump\t// in\n    tag_245:\n        /* \"#utility.yul\":7867:7869   */\n      0x40\n        /* \"#utility.yul\":7862:7865   */\n      dup3\n        /* \"#utility.yul\":7858:7870   */\n      add\n        /* \"#utility.yul\":7851:7870   */\n      swap1\n      pop\n        /* \"#utility.yul\":7656:7876   */\n      swap2\n      swap1\n      pop\n      jump\t// out\n        /* \"#utility.yul\":7882:8248   */\n    tag_247:\n      0x00\n        /* \"#utility.yul\":8045:8112   */\n      tag_249\n        /* \"#utility.yul\":8109:8111   */\n      0x20\n        /* \"#utility.yul\":8104:8107   */\n      dup4\n        /* \"#utility.yul\":8045:8112   */\n      tag_244\n      jump\t// in\n    tag_249:\n        /* \"#utility.yul\":8038:8112   */\n      swap2\n      pop\n        /* \"#utility.yul\":8121:8214   */\n      tag_250\n        /* \"#utility.yul\":8210:8213   */\n      dup3\n        /* \"#utility.yul\":8121:8214   */\n      tag_251\n      jump\t// in\n    tag_250:\n        /* \"#utility.yul\":8239:8241   */\n      0x20\n        /* \"#utility.yul\":8234:8237   */\n      dup3\n        /* \"#utility.yul\":8230:8242   */\n      add\n        /* \"#utility.yul\":8223:8242   */\n      swap1\n      pop\n        /* \"#utility.yul\":8028:8248   */\n      swap2\n      swap1\n      pop\n      jump\t// out\n        /* \"#utility.yul\":8254:8620   */\n    tag_252:\n      0x00\n        /* \"#utility.yul\":8417:8484   */\n      tag_254\n        /* \"#utility.yul\":8481:8483   */\n      0x2b\n        /* \"#utility.yul\":8476:8479   */\n      dup4\n        /* \"#utility.yul\":8417:8484   */\n      tag_244\n      jump\t// in\n    tag_254:\n        /* \"#utility.yul\":8410:8484   */\n      swap2\n      pop\n        /* \"#utility.yul\":8493:8586   */\n      tag_255\n        /* \"#utility.yul\":8582:8585   */\n      dup3\n        /* \"#utility.yul\":8493:8586   */\n      tag_256\n      jump\t// in\n    tag_255:\n        /* \"#utility.yul\":8611:8613   */\n      0x40\n        /* \"#utility.yul\":8606:8609   */\n      dup3\n        /* \"#utility.yul\":8602:8614   */\n      add\n        /* \"#utility.yul\":8595:8614   */\n      swap1\n      pop\n        /* \"#utility.yul\":8400:8620   */\n      swap2\n      swap1\n      pop\n      jump\t// out\n        /* \"#utility.yul\":8626:8734   */\n    tag_191:\n        /* \"#utility.yul\":8703:8727   */\n      tag_258\n        /* \"#utility.yul\":8721:8726   */\n      dup2\n        /* \"#utility.yul\":8703:8727   */\n      tag_259\n      jump\t// in\n    tag_258:\n        /* \"#utility.yul\":8698:8701   */\n      dup3\n        /* \"#utility.yul\":8691:8728   */\n      mstore\n        /* \"#utility.yul\":8681:8734   */\n      pop\n      pop\n      jump\t// out\n        /* \"#utility.yul\":8740:8858   */\n    tag_260:\n        /* \"#utility.yul\":8827:8851   */\n      tag_262\n        /* \"#utility.yul\":8845:8850   */\n      dup2\n        /* \"#utility.yul\":8827:8851   */\n      tag_259\n      jump\t// in\n    tag_262:\n        /* \"#utility.yul\":8822:8825   */\n      dup3\n        /* \"#utility.yul\":8815:8852   */\n      mstore\n        /* \"#utility.yul\":8805:8858   */\n      pop\n      pop\n      jump\t// out\n        /* \"#utility.yul\":8864:9086   */\n    tag_18:\n      0x00\n        /* \"#utility.yul\":8995:8997   */\n      0x20\n        /* \"#utility.yul\":8984:8993   */\n      dup3\n        /* \"#utility.yul\":8980:8998   */\n      add\n        /* \"#utility.yul\":8972:8998   */\n      swap1\n      pop\n        /* \"#utility.yul\":9008:9079   */\n      tag_264\n        /* \"#utility.yul\":9076:9077   */\n      0x00\n        /* \"#utility.yul\":9065:9074   */\n      dup4\n        /* \"#utility.yul\":9061:9078   */\n      add\n        /* \"#utility.yul\":9052:9058   */\n      dup5\n        /* \"#utility.yul\":9008:9079   */\n      tag_192\n      jump\t// in\n    tag_264:\n        /* \"#utility.yul\":8962:9086   */\n      swap3\n      swap2\n      pop\n      pop\n      jump\t// out\n        /* \"#utility.yul\":9092:9534   */\n    tag_72:\n      0x00\n        /* \"#utility.yul\":9279:9281   */\n      0x60\n        /* \"#utility.yul\":9268:9277   */\n      dup3\n        /* \"#utility.yul\":9264:9282   */\n      add\n        /* \"#utility.yul\":9256:9282   */\n      swap1\n      pop\n        /* \"#utility.yul\":9292:9363   */\n      tag_266\n        /* \"#utility.yul\":9360:9361   */\n      0x00\n        /* \"#utility.yul\":9349:9358   */\n      dup4\n        /* \"#utility.yul\":9345:9362   */\n      add\n        /* \"#utility.yul\":9336:9342   */\n      dup7\n        /* \"#utility.yul\":9292:9363   */\n      tag_192\n      jump\t// in\n    tag_266:\n        /* \"#utility.yul\":9373:9445   */\n      tag_267\n        /* \"#utility.yul\":9441:9443   */\n      0x20\n        /* \"#utility.yul\":9430:9439   */\n      dup4\n        /* \"#utility.yul\":9426:9444   */\n      add\n        /* \"#utility.yul\":9417:9423   */\n      dup6\n        /* \"#utility.yul\":9373:9445   */\n      tag_192\n      jump\t// in\n    tag_267:\n        /* \"#utility.yul\":9455:9527   */\n      tag_268\n        /* \"#utility.yul\":9523:9525   */\n      0x40\n        /* \"#utility.yul\":9512:9521   */\n      dup4\n        /* \"#utility.yul\":9508:9526   */\n      add\n        /* \"#utility.yul\":9499:9505   */\n      dup5\n        /* \"#utility.yul\":9455:9527   */\n      tag_260\n      jump\t// in\n    tag_268:\n        /* \"#utility.yul\":9246:9534   */\n      swap5\n      swap4\n      pop\n      pop\n      pop\n      pop\n      jump\t// out\n        /* \"#utility.yul\":9540:10214   */\n    tag_100:\n      0x00\n        /* \"#utility.yul\":9819:9821   */\n      0x40\n        /* \"#utility.yul\":9808:9817   */\n      dup3\n        /* \"#utility.yul\":9804:9822   */\n      add\n        /* \"#utility.yul\":9796:9822   */\n      swap1\n      pop\n        /* \"#utility.yul\":9868:9877   */\n      dup2\n        /* \"#utility.yul\":9862:9866   */\n      dup2\n        /* \"#utility.yul\":9858:9878   */\n      sub\n        /* \"#utility.yul\":9854:9855   */\n      0x00\n        /* \"#utility.yul\":9843:9852   */\n      dup4\n        /* \"#utility.yul\":9839:9856   */\n      add\n        /* \"#utility.yul\":9832:9879   */\n      mstore\n        /* \"#utility.yul\":9896:10004   */\n      tag_270\n        /* \"#utility.yul\":9999:10003   */\n      dup2\n        /* \"#utility.yul\":9990:9996   */\n      dup6\n        /* \"#utility.yul\":9896:10004   */\n      tag_210\n      jump\t// in\n    tag_270:\n        /* \"#utility.yul\":9888:10004   */\n      swap1\n      pop\n        /* \"#utility.yul\":10051:10060   */\n      dup2\n        /* \"#utility.yul\":10045:10049   */\n      dup2\n        /* \"#utility.yul\":10041:10061   */\n      sub\n        /* \"#utility.yul\":10036:10038   */\n      0x20\n        /* \"#utility.yul\":10025:10034   */\n      dup4\n        /* \"#utility.yul\":10021:10039   */\n      add\n        /* \"#utility.yul\":10014:10062   */\n      mstore\n        /* \"#utility.yul\":10079:10207   */\n      tag_271\n        /* \"#utility.yul\":10202:10206   */\n      dup2\n        /* \"#utility.yul\":10193:10199   */\n      dup5\n        /* \"#utility.yul\":10079:10207   */\n      tag_196\n      jump\t// in\n    tag_271:\n        /* \"#utility.yul\":10071:10207   */\n      swap1\n      pop\n        /* \"#utility.yul\":9786:10214   */\n      swap4\n      swap3\n      pop\n      pop\n      pop\n      jump\t// out\n        /* \"#utility.yul\":10220:10468   */\n    tag_22:\n      0x00\n        /* \"#utility.yul\":10364:10366   */\n      0x20\n        /* \"#utility.yul\":10353:10362   */\n      dup3\n        /* \"#utility.yul\":10349:10367   */\n      add\n        /* \"#utility.yul\":10341:10367   */\n      swap1\n      pop\n        /* \"#utility.yul\":10377:10461   */\n      tag_273\n        /* \"#utility.yul\":10458:10459   */\n      0x00\n        /* \"#utility.yul\":10447:10456   */\n      dup4\n        /* \"#utility.yul\":10443:10460   */\n      add\n        /* \"#utility.yul\":10434:10440   */\n      dup5\n        /* \"#utility.yul\":10377:10461   */\n      tag_228\n      jump\t// in\n    tag_273:\n        /* \"#utility.yul\":10331:10468   */\n      swap3\n      swap2\n      pop\n      pop\n      jump\t// out\n        /* \"#utility.yul\":10474:10893   */\n    tag_112:\n      0x00\n        /* \"#utility.yul\":10678:10680   */\n      0x20\n        /* \"#utility.yul\":10667:10676   */\n      dup3\n        /* \"#utility.yul\":10663:10681   */\n      add\n        /* \"#utility.yul\":10655:10681   */\n      swap1\n      pop\n        /* \"#utility.yul\":10727:10736   */\n      dup2\n        /* \"#utility.yul\":10721:10725   */\n      dup2\n        /* \"#utility.yul\":10717:10737   */\n      sub\n        /* \"#utility.yul\":10713:10714   */\n      0x00\n        /* \"#utility.yul\":10702:10711   */\n      dup4\n        /* \"#utility.yul\":10698:10715   */\n      add\n        /* \"#utility.yul\":10691:10738   */\n      mstore\n        /* \"#utility.yul\":10755:10886   */\n      tag_275\n        /* \"#utility.yul\":10881:10885   */\n      dup2\n        /* \"#utility.yul\":10755:10886   */\n      tag_241\n      jump\t// in\n    tag_275:\n        /* \"#utility.yul\":10747:10886   */\n      swap1\n      pop\n        /* \"#utility.yul\":10645:10893   */\n      swap2\n      swap1\n      pop\n      jump\t// out\n        /* \"#utility.yul\":10899:11318   */\n    tag_59:\n      0x00\n        /* \"#utility.yul\":11103:11105   */\n      0x20\n        /* \"#utility.yul\":11092:11101   */\n      dup3\n        /* \"#utility.yul\":11088:11106   */\n      add\n        /* \"#utility.yul\":11080:11106   */\n      swap1\n      pop\n        /* \"#utility.yul\":11152:11161   */\n      dup2\n        /* \"#utility.yul\":11146:11150   */\n      dup2\n        /* \"#utility.yul\":11142:11162   */\n      sub\n        /* \"#utility.yul\":11138:11139   */\n      0x00\n        /* \"#utility.yul\":11127:11136   */\n      dup4\n        /* \"#utility.yul\":11123:11140   */\n      add\n        /* \"#utility.yul\":11116:11163   */\n      mstore\n        /* \"#utility.yul\":11180:11311   */\n      tag_277\n        /* \"#utility.yul\":11306:11310   */\n      dup2\n        /* \"#utility.yul\":11180:11311   */\n      tag_247\n      jump\t// in\n    tag_277:\n        /* \"#utility.yul\":11172:11311   */\n      swap1\n      pop\n        /* \"#utility.yul\":11070:11318   */\n      swap2\n      swap1\n      pop\n      jump\t// out\n        /* \"#utility.yul\":11324:11743   */\n    tag_70:\n      0x00\n        /* \"#utility.yul\":11528:11530   */\n      0x20\n        /* \"#utility.yul\":11517:11526   */\n      dup3\n        /* \"#utility.yul\":11513:11531   */\n      add\n        /* \"#utility.yul\":11505:11531   */\n      swap1\n      pop\n        /* \"#utility.yul\":11577:11586   */\n      dup2\n        /* \"#utility.yul\":11571:11575   */\n      dup2\n        /* \"#utility.yul\":11567:11587   */\n      sub\n        /* \"#utility.yul\":11563:11564   */\n      0x00\n        /* \"#utility.yul\":11552:11561   */\n      dup4\n        /* \"#utility.yul\":11548:11565   */\n      add\n        /* \"#utility.yul\":11541:11588   */\n      mstore\n        /* \"#utility.yul\":11605:11736   */\n      tag_279\n        /* \"#utility.yul\":11731:11735   */\n      dup2\n        /* \"#utility.yul\":11605:11736   */\n      tag_252\n      jump\t// in\n    tag_279:\n        /* \"#utility.yul\":11597:11736   */\n      swap1\n      pop\n        /* \"#utility.yul\":11495:11743   */\n      swap2\n      swap1\n      pop\n      jump\t// out\n        /* \"#utility.yul\":11749:12179   */\n    tag_45:\n      0x00\n        /* \"#utility.yul\":11930:11932   */\n      0x60\n        /* \"#utility.yul\":11919:11928   */\n      dup3\n        /* \"#utility.yul\":11915:11933   */\n      add\n        /* \"#utility.yul\":11907:11933   */\n      swap1\n      pop\n        /* \"#utility.yul\":11943:12014   */\n      tag_281\n        /* \"#utility.yul\":12011:12012   */\n      0x00\n        /* \"#utility.yul\":12000:12009   */\n      dup4\n        /* \"#utility.yul\":11996:12013   */\n      add\n        /* \"#utility.yul\":11987:11993   */\n      dup7\n        /* \"#utility.yul\":11943:12014   */\n      tag_260\n      jump\t// in\n    tag_281:\n        /* \"#utility.yul\":12024:12096   */\n      tag_282\n        /* \"#utility.yul\":12092:12094   */\n      0x20\n        /* \"#utility.yul\":12081:12090   */\n      dup4\n        /* \"#utility.yul\":12077:12095   */\n      add\n        /* \"#utility.yul\":12068:12074   */\n      dup6\n        /* \"#utility.yul\":12024:12096   */\n      tag_260\n      jump\t// in\n    tag_282:\n        /* \"#utility.yul\":12106:12172   */\n      tag_283\n        /* \"#utility.yul\":12168:12170   */\n      0x40\n        /* \"#utility.yul\":12157:12166   */\n      dup4\n        /* \"#utility.yul\":12153:12171   */\n      add\n        /* \"#utility.yul\":12144:12150   */\n      dup5\n        /* \"#utility.yul\":12106:12172   */\n      tag_224\n      jump\t// in\n    tag_283:\n        /* \"#utility.yul\":11897:12179   */\n      swap5\n      swap4\n      pop\n      pop\n      pop\n      pop\n      jump\t// out\n        /* \"#utility.yul\":12185:12314   */\n    tag_122:\n      0x00\n        /* \"#utility.yul\":12246:12266   */\n      tag_285\n      tag_286\n      jump\t// in\n    tag_285:\n        /* \"#utility.yul\":12236:12266   */\n      swap1\n      pop\n        /* \"#utility.yul\":12275:12308   */\n      tag_287\n        /* \"#utility.yul\":12303:12307   */\n      dup3\n        /* \"#utility.yul\":12295:12301   */\n      dup3\n        /* \"#utility.yul\":12275:12308   */\n      tag_288\n      jump\t// in\n    tag_287:\n        /* \"#utility.yul\":12226:12314   */\n      swap2\n      swap1\n      pop\n      jump\t// out\n        /* \"#utility.yul\":12320:12395   */\n    tag_286:\n      0x00\n        /* \"#utility.yul\":12386:12388   */\n      0x40\n        /* \"#utility.yul\":12380:12389   */\n      mload\n        /* \"#utility.yul\":12370:12389   */\n      swap1\n      pop\n        /* \"#utility.yul\":12360:12395   */\n      swap1\n      jump\t// out\n        /* \"#utility.yul\":12401:12722   */\n    tag_121:\n      0x00\n        /* \"#utility.yul\":12578:12596   */\n      0xffffffffffffffff\n        /* \"#utility.yul\":12570:12576   */\n      dup3\n        /* \"#utility.yul\":12567:12597   */\n      gt\n        /* \"#utility.yul\":12564:12566   */\n      iszero\n      tag_291\n      jumpi\n        /* \"#utility.yul\":12600:12618   */\n      tag_292\n      tag_293\n      jump\t// in\n    tag_292:\n        /* \"#utility.yul\":12564:12566   */\n    tag_291:\n        /* \"#utility.yul\":12650:12654   */\n      0x20\n        /* \"#utility.yul\":12642:12648   */\n      dup3\n        /* \"#utility.yul\":12638:12655   */\n      mul\n        /* \"#utility.yul\":12630:12655   */\n      swap1\n      pop\n        /* \"#utility.yul\":12710:12714   */\n      0x20\n        /* \"#utility.yul\":12704:12708   */\n      dup2\n        /* \"#utility.yul\":12700:12715   */\n      add\n        /* \"#utility.yul\":12692:12715   */\n      swap1\n      pop\n        /* \"#utility.yul\":12493:12722   */\n      swap2\n      swap1\n      pop\n      jump\t// out\n        /* \"#utility.yul\":12728:13039   */\n    tag_132:\n      0x00\n        /* \"#utility.yul\":12895:12913   */\n      0xffffffffffffffff\n        /* \"#utility.yul\":12887:12893   */\n      dup3\n        /* \"#utility.yul\":12884:12914   */\n      gt\n        /* \"#utility.yul\":12881:12883   */\n      iszero\n      tag_295\n      jumpi\n        /* \"#utility.yul\":12917:12935   */\n      tag_296\n      tag_293\n      jump\t// in\n    tag_296:\n        /* \"#utility.yul\":12881:12883   */\n    tag_295:\n        /* \"#utility.yul\":12967:12971   */\n      0x20\n        /* \"#utility.yul\":12959:12965   */\n      dup3\n        /* \"#utility.yul\":12955:12972   */\n      mul\n        /* \"#utility.yul\":12947:12972   */\n      swap1\n      pop\n        /* \"#utility.yul\":13027:13031   */\n      0x20\n        /* \"#utility.yul\":13021:13025   */\n      dup2\n        /* \"#utility.yul\":13017:13032   */\n      add\n        /* \"#utility.yul\":13009:13032   */\n      swap1\n      pop\n        /* \"#utility.yul\":12810:13039   */\n      swap2\n      swap1\n      pop\n      jump\t// out\n        /* \"#utility.yul\":13045:13353   */\n    tag_143:\n      0x00\n        /* \"#utility.yul\":13197:13215   */\n      0xffffffffffffffff\n        /* \"#utility.yul\":13189:13195   */\n      dup3\n        /* \"#utility.yul\":13186:13216   */\n      gt\n        /* \"#utility.yul\":13183:13185   */\n      iszero\n      tag_298\n      jumpi\n        /* \"#utility.yul\":13219:13237   */\n      tag_299\n      tag_293\n      jump\t// in\n    tag_299:\n        /* \"#utility.yul\":13183:13185   */\n    tag_298:\n        /* \"#utility.yul\":13257:13286   */\n      tag_300\n        /* \"#utility.yul\":13279:13285   */\n      dup3\n        /* \"#utility.yul\":13257:13286   */\n      tag_240\n      jump\t// in\n    tag_300:\n        /* \"#utility.yul\":13249:13286   */\n      swap1\n      pop\n        /* \"#utility.yul\":13341:13345   */\n      0x20\n        /* \"#utility.yul\":13335:13339   */\n      dup2\n        /* \"#utility.yul\":13331:13346   */\n      add\n        /* \"#utility.yul\":13323:13346   */\n      swap1\n      pop\n        /* \"#utility.yul\":13112:13353   */\n      swap2\n      swap1\n      pop\n      jump\t// out\n        /* \"#utility.yul\":13359:13501   */\n    tag_203:\n      0x00\n        /* \"#utility.yul\":13459:13462   */\n      dup2\n        /* \"#utility.yul\":13451:13462   */\n      swap1\n      pop\n        /* \"#utility.yul\":13489:13493   */\n      0x20\n        /* \"#utility.yul\":13484:13487   */\n      dup3\n        /* \"#utility.yul\":13480:13494   */\n      add\n        /* \"#utility.yul\":13472:13494   */\n      swap1\n      pop\n        /* \"#utility.yul\":13441:13501   */\n      swap2\n      swap1\n      pop\n      jump\t// out\n        /* \"#utility.yul\":13507:13639   */\n    tag_217:\n      0x00\n        /* \"#utility.yul\":13597:13600   */\n      dup2\n        /* \"#utility.yul\":13589:13600   */\n      swap1\n      pop\n        /* \"#utility.yul\":13627:13631   */\n      0x20\n        /* \"#utility.yul\":13622:13625   */\n      dup3\n        /* \"#utility.yul\":13618:13632   */\n      add\n        /* \"#utility.yul\":13610:13632   */\n      swap1\n      pop\n        /* \"#utility.yul\":13579:13639   */\n      swap2\n      swap1\n      pop\n      jump\t// out\n        /* \"#utility.yul\":13645:13769   */\n    tag_199:\n      0x00\n        /* \"#utility.yul\":13756:13761   */\n      dup2\n        /* \"#utility.yul\":13750:13762   */\n      mload\n        /* \"#utility.yul\":13740:13762   */\n      swap1\n      pop\n        /* \"#utility.yul\":13729:13769   */\n      swap2\n      swap1\n      pop\n      jump\t// out\n        /* \"#utility.yul\":13775:13889   */\n    tag_213:\n      0x00\n        /* \"#utility.yul\":13876:13881   */\n      dup2\n        /* \"#utility.yul\":13870:13882   */\n      mload\n        /* \"#utility.yul\":13860:13882   */\n      swap1\n      pop\n        /* \"#utility.yul\":13849:13889   */\n      swap2\n      swap1\n      pop\n      jump\t// out\n        /* \"#utility.yul\":13895:13994   */\n    tag_234:\n      0x00\n        /* \"#utility.yul\":13981:13986   */\n      dup2\n        /* \"#utility.yul\":13975:13987   */\n      mload\n        /* \"#utility.yul\":13965:13987   */\n      swap1\n      pop\n        /* \"#utility.yul\":13954:13994   */\n      swap2\n      swap1\n      pop\n      jump\t// out\n        /* \"#utility.yul\":14000:14123   */\n    tag_209:\n      0x00\n        /* \"#utility.yul\":14112:14116   */\n      0x20\n        /* \"#utility.yul\":14107:14110   */\n      dup3\n        /* \"#utility.yul\":14103:14117   */\n      add\n        /* \"#utility.yul\":14095:14117   */\n      swap1\n      pop\n        /* \"#utility.yul\":14085:14123   */\n      swap2\n      swap1\n      pop\n      jump\t// out\n        /* \"#utility.yul\":14129:14242   */\n    tag_223:\n      0x00\n        /* \"#utility.yul\":14231:14235   */\n      0x20\n        /* \"#utility.yul\":14226:14229   */\n      dup3\n        /* \"#utility.yul\":14222:14236   */\n      add\n        /* \"#utility.yul\":14214:14236   */\n      swap1\n      pop\n        /* \"#utility.yul\":14204:14242   */\n      swap2\n      swap1\n      pop\n      jump\t// out\n        /* \"#utility.yul\":14248:14442   */\n    tag_201:\n      0x00\n        /* \"#utility.yul\":14391:14397   */\n      dup3\n        /* \"#utility.yul\":14386:14389   */\n      dup3\n        /* \"#utility.yul\":14379:14398   */\n      mstore\n        /* \"#utility.yul\":14431:14435   */\n      0x20\n        /* \"#utility.yul\":14426:14429   */\n      dup3\n        /* \"#utility.yul\":14422:14436   */\n      add\n        /* \"#utility.yul\":14407:14436   */\n      swap1\n      pop\n        /* \"#utility.yul\":14369:14442   */\n      swap3\n      swap2\n      pop\n      pop\n      jump\t// out\n        /* \"#utility.yul\":14448:14632   */\n    tag_215:\n      0x00\n        /* \"#utility.yul\":14581:14587   */\n      dup3\n        /* \"#utility.yul\":14576:14579   */\n      dup3\n        /* \"#utility.yul\":14569:14588   */\n      mstore\n        /* \"#utility.yul\":14621:14625   */\n      0x20\n        /* \"#utility.yul\":14616:14619   */\n      dup3\n        /* \"#utility.yul\":14612:14626   */\n      add\n        /* \"#utility.yul\":14597:14626   */\n      swap1\n      pop\n        /* \"#utility.yul\":14559:14632   */\n      swap3\n      swap2\n      pop\n      pop\n      jump\t// out\n        /* \"#utility.yul\":14638:14797   */\n    tag_236:\n      0x00\n        /* \"#utility.yul\":14746:14752   */\n      dup3\n        /* \"#utility.yul\":14741:14744   */\n      dup3\n        /* \"#utility.yul\":14734:14753   */\n      mstore\n        /* \"#utility.yul\":14786:14790   */\n      0x20\n        /* \"#utility.yul\":14781:14784   */\n      dup3\n        /* \"#utility.yul\":14777:14791   */\n      add\n        /* \"#utility.yul\":14762:14791   */\n      swap1\n      pop\n        /* \"#utility.yul\":14724:14797   */\n      swap3\n      swap2\n      pop\n      pop\n      jump\t// out\n        /* \"#utility.yul\":14803:14972   */\n    tag_244:\n      0x00\n        /* \"#utility.yul\":14921:14927   */\n      dup3\n        /* \"#utility.yul\":14916:14919   */\n      dup3\n        /* \"#utility.yul\":14909:14928   */\n      mstore\n        /* \"#utility.yul\":14961:14965   */\n      0x20\n        /* \"#utility.yul\":14956:14959   */\n      dup3\n        /* \"#utility.yul\":14952:14966   */\n      add\n        /* \"#utility.yul\":14937:14966   */\n      swap1\n      pop\n        /* \"#utility.yul\":14899:14972   */\n      swap3\n      swap2\n      pop\n      pop\n      jump\t// out\n        /* \"#utility.yul\":14978:15074   */\n    tag_195:\n      0x00\n        /* \"#utility.yul\":15044:15068   */\n      tag_313\n        /* \"#utility.yul\":15062:15067   */\n      dup3\n        /* \"#utility.yul\":15044:15068   */\n      tag_314\n      jump\t// in\n    tag_313:\n        /* \"#utility.yul\":15033:15068   */\n      swap1\n      pop\n        /* \"#utility.yul\":15023:15074   */\n      swap2\n      swap1\n      pop\n      jump\t// out\n        /* \"#utility.yul\":15080:15170   */\n    tag_227:\n      0x00\n        /* \"#utility.yul\":15157:15162   */\n      dup2\n        /* \"#utility.yul\":15150:15163   */\n      iszero\n        /* \"#utility.yul\":15143:15164   */\n      iszero\n        /* \"#utility.yul\":15132:15164   */\n      swap1\n      pop\n        /* \"#utility.yul\":15122:15170   */\n      swap2\n      swap1\n      pop\n      jump\t// out\n        /* \"#utility.yul\":15176:15302   */\n    tag_314:\n      0x00\n        /* \"#utility.yul\":15253:15295   */\n      0xffffffffffffffffffffffffffffffffffffffff\n        /* \"#utility.yul\":15246:15251   */\n      dup3\n        /* \"#utility.yul\":15242:15296   */\n      and\n        /* \"#utility.yul\":15231:15296   */\n      swap1\n      pop\n        /* \"#utility.yul\":15221:15302   */\n      swap2\n      swap1\n      pop\n      jump\t// out\n        /* \"#utility.yul\":15308:15385   */\n    tag_259:\n      0x00\n        /* \"#utility.yul\":15374:15379   */\n      dup2\n        /* \"#utility.yul\":15363:15379   */\n      swap1\n      pop\n        /* \"#utility.yul\":15353:15385   */\n      swap2\n      swap1\n      pop\n      jump\t// out\n        /* \"#utility.yul\":15391:15543   */\n    tag_231:\n      0x00\n        /* \"#utility.yul\":15487:15537   */\n      tag_319\n        /* \"#utility.yul\":15531:15536   */\n      dup3\n        /* \"#utility.yul\":15487:15537   */\n      tag_320\n      jump\t// in\n    tag_319:\n        /* \"#utility.yul\":15474:15537   */\n      swap1\n      pop\n        /* \"#utility.yul\":15464:15543   */\n      swap2\n      swap1\n      pop\n      jump\t// out\n        /* \"#utility.yul\":15549:15675   */\n    tag_320:\n      0x00\n        /* \"#utility.yul\":15645:15669   */\n      tag_322\n        /* \"#utility.yul\":15663:15668   */\n      dup3\n        /* \"#utility.yul\":15645:15669   */\n      tag_314\n      jump\t// in\n    tag_322:\n        /* \"#utility.yul\":15632:15669   */\n      swap1\n      pop\n        /* \"#utility.yul\":15622:15675   */\n      swap2\n      swap1\n      pop\n      jump\t// out\n        /* \"#utility.yul\":15681:15835   */\n    tag_146:\n        /* \"#utility.yul\":15765:15771   */\n      dup3\n        /* \"#utility.yul\":15760:15763   */\n      dup2\n        /* \"#utility.yul\":15755:15758   */\n      dup4\n        /* \"#utility.yul\":15742:15772   */\n      calldatacopy\n        /* \"#utility.yul\":15827:15828   */\n      0x00\n        /* \"#utility.yul\":15818:15824   */\n      dup4\n        /* \"#utility.yul\":15813:15816   */\n      dup4\n        /* \"#utility.yul\":15809:15825   */\n      add\n        /* \"#utility.yul\":15802:15829   */\n      mstore\n        /* \"#utility.yul\":15732:15835   */\n      pop\n      pop\n      pop\n      jump\t// out\n        /* \"#utility.yul\":15841:16148   */\n    tag_238:\n        /* \"#utility.yul\":15909:15910   */\n      0x00\n        /* \"#utility.yul\":15919:16032   */\n    tag_325:\n        /* \"#utility.yul\":15933:15939   */\n      dup4\n        /* \"#utility.yul\":15930:15931   */\n      dup2\n        /* \"#utility.yul\":15927:15940   */\n      lt\n        /* \"#utility.yul\":15919:16032   */\n      iszero\n      tag_327\n      jumpi\n        /* \"#utility.yul\":16018:16019   */\n      dup1\n        /* \"#utility.yul\":16013:16016   */\n      dup3\n        /* \"#utility.yul\":16009:16020   */\n      add\n        /* \"#utility.yul\":16003:16021   */\n      mload\n        /* \"#utility.yul\":15999:16000   */\n      dup2\n        /* \"#utility.yul\":15994:15997   */\n      dup5\n        /* \"#utility.yul\":15990:16001   */\n      add\n        /* \"#utility.yul\":15983:16022   */\n      mstore\n        /* \"#utility.yul\":15955:15957   */\n      0x20\n        /* \"#utility.yul\":15952:15953   */\n      dup2\n        /* \"#utility.yul\":15948:15958   */\n      add\n        /* \"#utility.yul\":15943:15958   */\n      swap1\n      pop\n        /* \"#utility.yul\":15919:16032   */\n      jump(tag_325)\n    tag_327:\n        /* \"#utility.yul\":16050:16056   */\n      dup4\n        /* \"#utility.yul\":16047:16048   */\n      dup2\n        /* \"#utility.yul\":16044:16057   */\n      gt\n        /* \"#utility.yul\":16041:16043   */\n      iszero\n      tag_328\n      jumpi\n        /* \"#utility.yul\":16130:16131   */\n      0x00\n        /* \"#utility.yul\":16121:16127   */\n      dup5\n        /* \"#utility.yul\":16116:16119   */\n      dup5\n        /* \"#utility.yul\":16112:16128   */\n      add\n        /* \"#utility.yul\":16105:16132   */\n      mstore\n        /* \"#utility.yul\":16041:16043   */\n    tag_328:\n        /* \"#utility.yul\":15890:16148   */\n      pop\n      pop\n      pop\n      pop\n      jump\t// out\n        /* \"#utility.yul\":16154:16435   */\n    tag_288:\n        /* \"#utility.yul\":16237:16264   */\n      tag_330\n        /* \"#utility.yul\":16259:16263   */\n      dup3\n        /* \"#utility.yul\":16237:16264   */\n      tag_240\n      jump\t// in\n    tag_330:\n        /* \"#utility.yul\":16229:16235   */\n      dup2\n        /* \"#utility.yul\":16225:16265   */\n      add\n        /* \"#utility.yul\":16367:16373   */\n      dup2\n        /* \"#utility.yul\":16355:16365   */\n      dup2\n        /* \"#utility.yul\":16352:16374   */\n      lt\n        /* \"#utility.yul\":16331:16349   */\n      0xffffffffffffffff\n        /* \"#utility.yul\":16319:16329   */\n      dup3\n        /* \"#utility.yul\":16316:16350   */\n      gt\n        /* \"#utility.yul\":16313:16375   */\n      or\n        /* \"#utility.yul\":16310:16312   */\n      iszero\n      tag_331\n      jumpi\n        /* \"#utility.yul\":16378:16396   */\n      tag_332\n      tag_293\n      jump\t// in\n    tag_332:\n        /* \"#utility.yul\":16310:16312   */\n    tag_331:\n        /* \"#utility.yul\":16418:16428   */\n      dup1\n        /* \"#utility.yul\":16414:16416   */\n      0x40\n        /* \"#utility.yul\":16407:16429   */\n      mstore\n        /* \"#utility.yul\":16197:16435   */\n      pop\n      pop\n      pop\n      jump\t// out\n        /* \"#utility.yul\":16441:16621   */\n    tag_293:\n        /* \"#utility.yul\":16489:16566   */\n      0x4e487b7100000000000000000000000000000000000000000000000000000000\n        /* \"#utility.yul\":16486:16487   */\n      0x00\n        /* \"#utility.yul\":16479:16567   */\n      mstore\n        /* \"#utility.yul\":16586:16590   */\n      0x41\n        /* \"#utility.yul\":16583:16584   */\n      0x04\n        /* \"#utility.yul\":16576:16591   */\n      mstore\n        /* \"#utility.yul\":16610:16614   */\n      0x24\n        /* \"#utility.yul\":16607:16608   */\n      0x00\n        /* \"#utility.yul\":16600:16615   */\n      revert\n        /* \"#utility.yul\":16627:16729   */\n    tag_240:\n      0x00\n        /* \"#utility.yul\":16719:16721   */\n      0x1f\n        /* \"#utility.yul\":16715:16722   */\n      not\n        /* \"#utility.yul\":16710:16712   */\n      0x1f\n        /* \"#utility.yul\":16703:16708   */\n      dup4\n        /* \"#utility.yul\":16699:16713   */\n      add\n        /* \"#utility.yul\":16695:16723   */\n      and\n        /* \"#utility.yul\":16685:16723   */\n      swap1\n      pop\n        /* \"#utility.yul\":16675:16729   */\n      swap2\n      swap1\n      pop\n      jump\t// out\n        /* \"#utility.yul\":16735:16960   */\n    tag_246:\n        /* \"#utility.yul\":16875:16909   */\n      0x4f776e61626c653a206e6577206f776e657220697320746865207a65726f2061\n        /* \"#utility.yul\":16871:16872   */\n      0x00\n        /* \"#utility.yul\":16863:16869   */\n      dup3\n        /* \"#utility.yul\":16859:16873   */\n      add\n        /* \"#utility.yul\":16852:16910   */\n      mstore\n        /* \"#utility.yul\":16944:16952   */\n      0x6464726573730000000000000000000000000000000000000000000000000000\n        /* \"#utility.yul\":16939:16941   */\n      0x20\n        /* \"#utility.yul\":16931:16937   */\n      dup3\n        /* \"#utility.yul\":16927:16942   */\n      add\n        /* \"#utility.yul\":16920:16953   */\n      mstore\n        /* \"#utility.yul\":16841:16960   */\n      pop\n      jump\t// out\n        /* \"#utility.yul\":16966:17148   */\n    tag_251:\n        /* \"#utility.yul\":17106:17140   */\n      0x4f776e61626c653a2063616c6c6572206973206e6f7420746865206f776e6572\n        /* \"#utility.yul\":17102:17103   */\n      0x00\n        /* \"#utility.yul\":17094:17100   */\n      dup3\n        /* \"#utility.yul\":17090:17104   */\n      add\n        /* \"#utility.yul\":17083:17141   */\n      mstore\n        /* \"#utility.yul\":17072:17148   */\n      pop\n      jump\t// out\n        /* \"#utility.yul\":17154:17384   */\n    tag_256:\n        /* \"#utility.yul\":17294:17328   */\n      0x616d6f756e74207472616e73666572726564206d757374206265206120706f73\n        /* \"#utility.yul\":17290:17291   */\n      0x00\n        /* \"#utility.yul\":17282:17288   */\n      dup3\n        /* \"#utility.yul\":17278:17292   */\n      add\n        /* \"#utility.yul\":17271:17329   */\n      mstore\n        /* \"#utility.yul\":17363:17376   */\n      0x69746976652076616c7565000000000000000000000000000000000000000000\n        /* \"#utility.yul\":17358:17360   */\n      0x20\n        /* \"#utility.yul\":17350:17356   */\n      dup3\n        /* \"#utility.yul\":17346:17361   */\n      add\n        /* \"#utility.yul\":17339:17377   */\n      mstore\n        /* \"#utility.yul\":17260:17384   */\n      pop\n      jump\t// out\n        /* \"#utility.yul\":17390:17512   */\n    tag_150:\n        /* \"#utility.yul\":17463:17487   */\n      tag_339\n        /* \"#utility.yul\":17481:17486   */\n      dup2\n        /* \"#utility.yul\":17463:17487   */\n      tag_195\n      jump\t// in\n    tag_339:\n        /* \"#utility.yul\":17456:17461   */\n      dup2\n        /* \"#utility.yul\":17453:17488   */\n      eq\n        /* \"#utility.yul\":17443:17445   */\n      tag_340\n      jumpi\n        /* \"#utility.yul\":17502:17503   */\n      0x00\n        /* \"#utility.yul\":17499:17500   */\n      dup1\n        /* \"#utility.yul\":17492:17504   */\n      revert\n        /* \"#utility.yul\":17443:17445   */\n    tag_340:\n        /* \"#utility.yul\":17433:17512   */\n      pop\n      jump\t// out\n        /* \"#utility.yul\":17518:17634   */\n    tag_162:\n        /* \"#utility.yul\":17588:17609   */\n      tag_342\n        /* \"#utility.yul\":17603:17608   */\n      dup2\n        /* \"#utility.yul\":17588:17609   */\n      tag_227\n      jump\t// in\n    tag_342:\n        /* \"#utility.yul\":17581:17586   */\n      dup2\n        /* \"#utility.yul\":17578:17610   */\n      eq\n        /* \"#utility.yul\":17568:17570   */\n      tag_343\n      jumpi\n        /* \"#utility.yul\":17624:17625   */\n      0x00\n        /* \"#utility.yul\":17621:17622   */\n      dup1\n        /* \"#utility.yul\":17614:17626   */\n      revert\n        /* \"#utility.yul\":17568:17570   */\n    tag_343:\n        /* \"#utility.yul\":17558:17634   */\n      pop\n      jump\t// out\n        /* \"#utility.yul\":17640:17762   */\n    tag_168:\n        /* \"#utility.yul\":17713:17737   */\n      tag_345\n        /* \"#utility.yul\":17731:17736   */\n      dup2\n        /* \"#utility.yul\":17713:17737   */\n      tag_259\n      jump\t// in\n    tag_345:\n        /* \"#utility.yul\":17706:17711   */\n      dup2\n        /* \"#utility.yul\":17703:17738   */\n      eq\n        /* \"#utility.yul\":17693:17695   */\n      tag_346\n      jumpi\n        /* \"#utility.yul\":17752:17753   */\n      0x00\n        /* \"#utility.yul\":17749:17750   */\n      dup1\n        /* \"#utility.yul\":17742:17754   */\n      revert\n        /* \"#utility.yul\":17693:17695   */\n    tag_346:\n        /* \"#utility.yul\":17683:17762   */\n      pop\n      jump\t// out\n\n    auxdata: 0xa264697066735822122007bb08f082e7682851f39b0315a6696ef13d85fa4ee0427e3857457509f7479764736f6c63430008010033\n}\n",
				"bytecode": {
					"linkReferences": {},
					"object": "60806040526370dc4900600355600a600555600160065560405180606001604052806127108152602001428152602001600015158152506007600082015181600001556020820151816001015560408201518160020160006101000a81548160ff021916908315150217905550505034801561007a57600080fd5b5061009761008c6100f160201b60201c565b6100f960201b60201c565b73e11a86849d99f524cac3e7a0ec1241828e332c62600260006101000a81548173ffffffffffffffffffffffffffffffffffffffff021916908373ffffffffffffffffffffffffffffffffffffffff1602179055506101bd565b600033905090565b60008060009054906101000a900473ffffffffffffffffffffffffffffffffffffffff169050816000806101000a81548173ffffffffffffffffffffffffffffffffffffffff021916908373ffffffffffffffffffffffffffffffffffffffff1602179055508173ffffffffffffffffffffffffffffffffffffffff168173ffffffffffffffffffffffffffffffffffffffff167f8be0079c531659141344cd1fd0a4f28419497f9722a3daafe3b4186f6b6457e060405160405180910390a35050565b611213806101cc6000396000f3fe608060405234801561001057600080fd5b50600436106100a95760003560e01c806351f7598c1161007157806351f7598c1461013e578063715018a61461015a5780638da5cb5b14610164578063c046371114610182578063f121da92146101a2578063f2fde38b146101be576100a9565b806311ce0267146100ae57806311eac855146100cc5780631515fa6e146100ea5780632f181f541461010657806351ed828814610122575b600080fd5b6100b66101da565b6040516100c39190610d2a565b60405180910390f35b6100d4610200565b6040516100e19190610db3565b60405180910390f35b61010460048036038101906100ff9190610b15565b610226565b005b610120600480360381019061011b9190610b15565b6102ac565b005b61013c60048036038101906101379190610b15565b610332565b005b61015860048036038101906101539190610a57565b61042a565b005b6101626104ea565b005b61016c610572565b6040516101799190610d2a565b60405180910390f35b61018a61059b565b60405161019993929190610e2e565b60405180910390f35b6101bc60048036038101906101b79190610a80565b6105c0565b005b6101d860048036038101906101d39190610a57565b6106cf565b005b600160009054906101000a900473ffffffffffffffffffffffffffffffffffffffff1681565b600260009054906101000a900473ffffffffffffffffffffffffffffffffffffffff1681565b61022e6107c7565b73ffffffffffffffffffffffffffffffffffffffff1661024c610572565b73ffffffffffffffffffffffffffffffffffffffff16146102a2576040517f08c379a000000000000000000000000000000000000000000000000000000000815260040161029990610dee565b60405180910390fd5b8060048190555050565b6102b46107c7565b73ffffffffffffffffffffffffffffffffffffffff166102d2610572565b73ffffffffffffffffffffffffffffffffffffffff1614610328576040517f08c379a000000000000000000000000000000000000000000000000000000000815260040161031f90610dee565b60405180910390fd5b8060038190555050565b60008111610375576040517f08c379a000000000000000000000000000000000000000000000000000000000815260040161036c90610e0e565b60405180910390fd5b600260009054906101000a900473ffffffffffffffffffffffffffffffffffffffff1673ffffffffffffffffffffffffffffffffffffffff166323b872dd3330846040518463ffffffff1660e01b81526004016103d493929190610d45565b602060405180830381600087803b1580156103ee57600080fd5b505af1158015610402573d6000803e3d6000fd5b505050506040513d601f19601f820116820180604052508101906104269190610aec565b5050565b6104326107c7565b73ffffffffffffffffffffffffffffffffffffffff16610450610572565b73ffffffffffffffffffffffffffffffffffffffff16146104a6576040517f08c379a000000000000000000000000000000000000000000000000000000000815260040161049d90610dee565b60405180910390fd5b80600160006101000a81548173ffffffffffffffffffffffffffffffffffffffff021916908373ffffffffffffffffffffffffffffffffffffffff16021790555050565b6104f26107c7565b73ffffffffffffffffffffffffffffffffffffffff16610510610572565b73ffffffffffffffffffffffffffffffffffffffff1614610566576040517f08c379a000000000000000000000000000000000000000000000000000000000815260040161055d90610dee565b60405180910390fd5b61057060006107cf565b565b60008060009054906101000a900473ffffffffffffffffffffffffffffffffffffffff16905090565b60078060000154908060010154908060020160009054906101000a900460ff16905083565b6105c86107c7565b73ffffffffffffffffffffffffffffffffffffffff166105e6610572565b73ffffffffffffffffffffffffffffffffffffffff161461063c576040517f08c379a000000000000000000000000000000000000000000000000000000000815260040161063390610dee565b60405180910390fd5b600160009054906101000a900473ffffffffffffffffffffffffffffffffffffffff1673ffffffffffffffffffffffffffffffffffffffff1663f121da9283836040518363ffffffff1660e01b8152600401610699929190610d7c565b600060405180830381600087803b1580156106b357600080fd5b505af11580156106c7573d6000803e3d6000fd5b505050505050565b6106d76107c7565b73ffffffffffffffffffffffffffffffffffffffff166106f5610572565b73ffffffffffffffffffffffffffffffffffffffff161461074b576040517f08c379a000000000000000000000000000000000000000000000000000000000815260040161074290610dee565b60405180910390fd5b600073ffffffffffffffffffffffffffffffffffffffff168173ffffffffffffffffffffffffffffffffffffffff1614156107bb576040517f08c379a00000000000000000000000000000000000000000000000000000000081526004016107b290610dce565b60405180910390fd5b6107c4816107cf565b50565b600033905090565b60008060009054906101000a900473ffffffffffffffffffffffffffffffffffffffff169050816000806101000a81548173ffffffffffffffffffffffffffffffffffffffff021916908373ffffffffffffffffffffffffffffffffffffffff1602179055508173ffffffffffffffffffffffffffffffffffffffff168173ffffffffffffffffffffffffffffffffffffffff167f8be0079c531659141344cd1fd0a4f28419497f9722a3daafe3b4186f6b6457e060405160405180910390a35050565b60006108a66108a184610e8a565b610e65565b9050808382526020820190508260005b858110156108e657813585016108cc8882610a18565b8452602084019350602083019250506001810190506108b6565b5050509392505050565b60006109036108fe84610eb6565b610e65565b9050808382526020820190508285602086028201111561092257600080fd5b60005b8581101561095257816109388882610a42565b845260208401935060208301925050600181019050610925565b5050509392505050565b600061096f61096a84610ee2565b610e65565b90508281526020810184848401111561098757600080fd5b61099284828561101e565b509392505050565b6000813590506109a981611198565b92915050565b600082601f8301126109c057600080fd5b81356109d0848260208601610893565b91505092915050565b600082601f8301126109ea57600080fd5b81356109fa8482602086016108f0565b91505092915050565b600081519050610a12816111af565b92915050565b600082601f830112610a2957600080fd5b8135610a3984826020860161095c565b91505092915050565b600081359050610a51816111c6565b92915050565b600060208284031215610a6957600080fd5b6000610a778482850161099a565b91505092915050565b60008060408385031215610a9357600080fd5b600083013567ffffffffffffffff811115610aad57600080fd5b610ab9858286016109d9565b925050602083013567ffffffffffffffff811115610ad657600080fd5b610ae2858286016109af565b9150509250929050565b600060208284031215610afe57600080fd5b6000610b0c84828501610a03565b91505092915050565b600060208284031215610b2757600080fd5b6000610b3584828501610a42565b91505092915050565b6000610b4a8383610c6a565b905092915050565b6000610b5e8383610d0c565b60208301905092915050565b610b7381610fb2565b82525050565b6000610b8482610f33565b610b8e8185610f6e565b935083602082028501610ba085610f13565b8060005b85811015610bdc5784840389528151610bbd8582610b3e565b9450610bc883610f54565b925060208a01995050600181019050610ba4565b50829750879550505050505092915050565b6000610bf982610f3e565b610c038185610f7f565b9350610c0e83610f23565b8060005b83811015610c3f578151610c268882610b52565b9750610c3183610f61565b925050600181019050610c12565b5085935050505092915050565b610c5581610fc4565b82525050565b610c6481610ffa565b82525050565b6000610c7582610f49565b610c7f8185610f90565b9350610c8f81856020860161102d565b610c98816110c0565b840191505092915050565b6000610cb0602683610fa1565b9150610cbb826110d1565b604082019050919050565b6000610cd3602083610fa1565b9150610cde82611120565b602082019050919050565b6000610cf6602b83610fa1565b9150610d0182611149565b604082019050919050565b610d1581610ff0565b82525050565b610d2481610ff0565b82525050565b6000602082019050610d3f6000830184610b6a565b92915050565b6000606082019050610d5a6000830186610b6a565b610d676020830185610b6a565b610d746040830184610d1b565b949350505050565b60006040820190508181036000830152610d968185610bee565b90508181036020830152610daa8184610b79565b90509392505050565b6000602082019050610dc86000830184610c5b565b92915050565b60006020820190508181036000830152610de781610ca3565b9050919050565b60006020820190508181036000830152610e0781610cc6565b9050919050565b60006020820190508181036000830152610e2781610ce9565b9050919050565b6000606082019050610e436000830186610d1b565b610e506020830185610d1b565b610e5d6040830184610c4c565b949350505050565b6000610e6f610e80565b9050610e7b8282611060565b919050565b6000604051905090565b600067ffffffffffffffff821115610ea557610ea4611091565b5b602082029050602081019050919050565b600067ffffffffffffffff821115610ed157610ed0611091565b5b602082029050602081019050919050565b600067ffffffffffffffff821115610efd57610efc611091565b5b610f06826110c0565b9050602081019050919050565b6000819050602082019050919050565b6000819050602082019050919050565b600081519050919050565b600081519050919050565b600081519050919050565b6000602082019050919050565b6000602082019050919050565b600082825260208201905092915050565b600082825260208201905092915050565b600082825260208201905092915050565b600082825260208201905092915050565b6000610fbd82610fd0565b9050919050565b60008115159050919050565b600073ffffffffffffffffffffffffffffffffffffffff82169050919050565b6000819050919050565b60006110058261100c565b9050919050565b600061101782610fd0565b9050919050565b82818337600083830152505050565b60005b8381101561104b578082015181840152602081019050611030565b8381111561105a576000848401525b50505050565b611069826110c0565b810181811067ffffffffffffffff8211171561108857611087611091565b5b80604052505050565b7f4e487b7100000000000000000000000000000000000000000000000000000000600052604160045260246000fd5b6000601f19601f8301169050919050565b7f4f776e61626c653a206e6577206f776e657220697320746865207a65726f206160008201527f6464726573730000000000000000000000000000000000000000000000000000602082015250565b7f4f776e61626c653a2063616c6c6572206973206e6f7420746865206f776e6572600082015250565b7f616d6f756e74207472616e73666572726564206d757374206265206120706f7360008201527f69746976652076616c7565000000000000000000000000000000000000000000602082015250565b6111a181610fb2565b81146111ac57600080fd5b50565b6111b881610fc4565b81146111c357600080fd5b50565b6111cf81610ff0565b81146111da57600080fd5b5056fea264697066735822122007bb08f082e7682851f39b0315a6696ef13d85fa4ee0427e3857457509f7479764736f6c63430008010033",
					"opcodes": "PUSH1 0x80 PUSH1 0x40 MSTORE PUSH4 0x70DC4900 PUSH1 0x3 SSTORE PUSH1 0xA PUSH1 0x5 SSTORE PUSH1 0x1 PUSH1 0x6 SSTORE PUSH1 0x40 MLOAD DUP1 PUSH1 0x60 ADD PUSH1 0x40 MSTORE DUP1 PUSH2 0x2710 DUP2 MSTORE PUSH1 0x20 ADD TIMESTAMP DUP2 MSTORE PUSH1 0x20 ADD PUSH1 0x0 ISZERO ISZERO DUP2 MSTORE POP PUSH1 0x7 PUSH1 0x0 DUP3 ADD MLOAD DUP2 PUSH1 0x0 ADD SSTORE PUSH1 0x20 DUP3 ADD MLOAD DUP2 PUSH1 0x1 ADD SSTORE PUSH1 0x40 DUP3 ADD MLOAD DUP2 PUSH1 0x2 ADD PUSH1 0x0 PUSH2 0x100 EXP DUP2 SLOAD DUP2 PUSH1 0xFF MUL NOT AND SWAP1 DUP4 ISZERO ISZERO MUL OR SWAP1 SSTORE POP POP POP CALLVALUE DUP1 ISZERO PUSH2 0x7A JUMPI PUSH1 0x0 DUP1 REVERT JUMPDEST POP PUSH2 0x97 PUSH2 0x8C PUSH2 0xF1 PUSH1 0x20 SHL PUSH1 0x20 SHR JUMP JUMPDEST PUSH2 0xF9 PUSH1 0x20 SHL PUSH1 0x20 SHR JUMP JUMPDEST PUSH20 0xE11A86849D99F524CAC3E7A0EC1241828E332C62 PUSH1 0x2 PUSH1 0x0 PUSH2 0x100 EXP DUP2 SLOAD DUP2 PUSH20 0xFFFFFFFFFFFFFFFFFFFFFFFFFFFFFFFFFFFFFFFF MUL NOT AND SWAP1 DUP4 PUSH20 0xFFFFFFFFFFFFFFFFFFFFFFFFFFFFFFFFFFFFFFFF AND MUL OR SWAP1 SSTORE POP PUSH2 0x1BD JUMP JUMPDEST PUSH1 0x0 CALLER SWAP1 POP SWAP1 JUMP JUMPDEST PUSH1 0x0 DUP1 PUSH1 0x0 SWAP1 SLOAD SWAP1 PUSH2 0x100 EXP SWAP1 DIV PUSH20 0xFFFFFFFFFFFFFFFFFFFFFFFFFFFFFFFFFFFFFFFF AND SWAP1 POP DUP2 PUSH1 0x0 DUP1 PUSH2 0x100 EXP DUP2 SLOAD DUP2 PUSH20 0xFFFFFFFFFFFFFFFFFFFFFFFFFFFFFFFFFFFFFFFF MUL NOT AND SWAP1 DUP4 PUSH20 0xFFFFFFFFFFFFFFFFFFFFFFFFFFFFFFFFFFFFFFFF AND MUL OR SWAP1 SSTORE POP DUP2 PUSH20 0xFFFFFFFFFFFFFFFFFFFFFFFFFFFFFFFFFFFFFFFF AND DUP2 PUSH20 0xFFFFFFFFFFFFFFFFFFFFFFFFFFFFFFFFFFFFFFFF AND PUSH32 0x8BE0079C531659141344CD1FD0A4F28419497F9722A3DAAFE3B4186F6B6457E0 PUSH1 0x40 MLOAD PUSH1 0x40 MLOAD DUP1 SWAP2 SUB SWAP1 LOG3 POP POP JUMP JUMPDEST PUSH2 0x1213 DUP1 PUSH2 0x1CC PUSH1 0x0 CODECOPY PUSH1 0x0 RETURN INVALID PUSH1 0x80 PUSH1 0x40 MSTORE CALLVALUE DUP1 ISZERO PUSH2 0x10 JUMPI PUSH1 0x0 DUP1 REVERT JUMPDEST POP PUSH1 0x4 CALLDATASIZE LT PUSH2 0xA9 JUMPI PUSH1 0x0 CALLDATALOAD PUSH1 0xE0 SHR DUP1 PUSH4 0x51F7598C GT PUSH2 0x71 JUMPI DUP1 PUSH4 0x51F7598C EQ PUSH2 0x13E JUMPI DUP1 PUSH4 0x715018A6 EQ PUSH2 0x15A JUMPI DUP1 PUSH4 0x8DA5CB5B EQ PUSH2 0x164 JUMPI DUP1 PUSH4 0xC0463711 EQ PUSH2 0x182 JUMPI DUP1 PUSH4 0xF121DA92 EQ PUSH2 0x1A2 JUMPI DUP1 PUSH4 0xF2FDE38B EQ PUSH2 0x1BE JUMPI PUSH2 0xA9 JUMP JUMPDEST DUP1 PUSH4 0x11CE0267 EQ PUSH2 0xAE JUMPI DUP1 PUSH4 0x11EAC855 EQ PUSH2 0xCC JUMPI DUP1 PUSH4 0x1515FA6E EQ PUSH2 0xEA JUMPI DUP1 PUSH4 0x2F181F54 EQ PUSH2 0x106 JUMPI DUP1 PUSH4 0x51ED8288 EQ PUSH2 0x122 JUMPI JUMPDEST PUSH1 0x0 DUP1 REVERT JUMPDEST PUSH2 0xB6 PUSH2 0x1DA JUMP JUMPDEST PUSH1 0x40 MLOAD PUSH2 0xC3 SWAP2 SWAP1 PUSH2 0xD2A JUMP JUMPDEST PUSH1 0x40 MLOAD DUP1 SWAP2 SUB SWAP1 RETURN JUMPDEST PUSH2 0xD4 PUSH2 0x200 JUMP JUMPDEST PUSH1 0x40 MLOAD PUSH2 0xE1 SWAP2 SWAP1 PUSH2 0xDB3 JUMP JUMPDEST PUSH1 0x40 MLOAD DUP1 SWAP2 SUB SWAP1 RETURN JUMPDEST PUSH2 0x104 PUSH1 0x4 DUP1 CALLDATASIZE SUB DUP2 ADD SWAP1 PUSH2 0xFF SWAP2 SWAP1 PUSH2 0xB15 JUMP JUMPDEST PUSH2 0x226 JUMP JUMPDEST STOP JUMPDEST PUSH2 0x120 PUSH1 0x4 DUP1 CALLDATASIZE SUB DUP2 ADD SWAP1 PUSH2 0x11B SWAP2 SWAP1 PUSH2 0xB15 JUMP JUMPDEST PUSH2 0x2AC JUMP JUMPDEST STOP JUMPDEST PUSH2 0x13C PUSH1 0x4 DUP1 CALLDATASIZE SUB DUP2 ADD SWAP1 PUSH2 0x137 SWAP2 SWAP1 PUSH2 0xB15 JUMP JUMPDEST PUSH2 0x332 JUMP JUMPDEST STOP JUMPDEST PUSH2 0x158 PUSH1 0x4 DUP1 CALLDATASIZE SUB DUP2 ADD SWAP1 PUSH2 0x153 SWAP2 SWAP1 PUSH2 0xA57 JUMP JUMPDEST PUSH2 0x42A JUMP JUMPDEST STOP JUMPDEST PUSH2 0x162 PUSH2 0x4EA JUMP JUMPDEST STOP JUMPDEST PUSH2 0x16C PUSH2 0x572 JUMP JUMPDEST PUSH1 0x40 MLOAD PUSH2 0x179 SWAP2 SWAP1 PUSH2 0xD2A JUMP JUMPDEST PUSH1 0x40 MLOAD DUP1 SWAP2 SUB SWAP1 RETURN JUMPDEST PUSH2 0x18A PUSH2 0x59B JUMP JUMPDEST PUSH1 0x40 MLOAD PUSH2 0x199 SWAP4 SWAP3 SWAP2 SWAP1 PUSH2 0xE2E JUMP JUMPDEST PUSH1 0x40 MLOAD DUP1 SWAP2 SUB SWAP1 RETURN JUMPDEST PUSH2 0x1BC PUSH1 0x4 DUP1 CALLDATASIZE SUB DUP2 ADD SWAP1 PUSH2 0x1B7 SWAP2 SWAP1 PUSH2 0xA80 JUMP JUMPDEST PUSH2 0x5C0 JUMP JUMPDEST STOP JUMPDEST PUSH2 0x1D8 PUSH1 0x4 DUP1 CALLDATASIZE SUB DUP2 ADD SWAP1 PUSH2 0x1D3 SWAP2 SWAP1 PUSH2 0xA57 JUMP JUMPDEST PUSH2 0x6CF JUMP JUMPDEST STOP JUMPDEST PUSH1 0x1 PUSH1 0x0 SWAP1 SLOAD SWAP1 PUSH2 0x100 EXP SWAP1 DIV PUSH20 0xFFFFFFFFFFFFFFFFFFFFFFFFFFFFFFFFFFFFFFFF AND DUP2 JUMP JUMPDEST PUSH1 0x2 PUSH1 0x0 SWAP1 SLOAD SWAP1 PUSH2 0x100 EXP SWAP1 DIV PUSH20 0xFFFFFFFFFFFFFFFFFFFFFFFFFFFFFFFFFFFFFFFF AND DUP2 JUMP JUMPDEST PUSH2 0x22E PUSH2 0x7C7 JUMP JUMPDEST PUSH20 0xFFFFFFFFFFFFFFFFFFFFFFFFFFFFFFFFFFFFFFFF AND PUSH2 0x24C PUSH2 0x572 JUMP JUMPDEST PUSH20 0xFFFFFFFFFFFFFFFFFFFFFFFFFFFFFFFFFFFFFFFF AND EQ PUSH2 0x2A2 JUMPI PUSH1 0x40 MLOAD PUSH32 0x8C379A000000000000000000000000000000000000000000000000000000000 DUP2 MSTORE PUSH1 0x4 ADD PUSH2 0x299 SWAP1 PUSH2 0xDEE JUMP JUMPDEST PUSH1 0x40 MLOAD DUP1 SWAP2 SUB SWAP1 REVERT JUMPDEST DUP1 PUSH1 0x4 DUP2 SWAP1 SSTORE POP POP JUMP JUMPDEST PUSH2 0x2B4 PUSH2 0x7C7 JUMP JUMPDEST PUSH20 0xFFFFFFFFFFFFFFFFFFFFFFFFFFFFFFFFFFFFFFFF AND PUSH2 0x2D2 PUSH2 0x572 JUMP JUMPDEST PUSH20 0xFFFFFFFFFFFFFFFFFFFFFFFFFFFFFFFFFFFFFFFF AND EQ PUSH2 0x328 JUMPI PUSH1 0x40 MLOAD PUSH32 0x8C379A000000000000000000000000000000000000000000000000000000000 DUP2 MSTORE PUSH1 0x4 ADD PUSH2 0x31F SWAP1 PUSH2 0xDEE JUMP JUMPDEST PUSH1 0x40 MLOAD DUP1 SWAP2 SUB SWAP1 REVERT JUMPDEST DUP1 PUSH1 0x3 DUP2 SWAP1 SSTORE POP POP JUMP JUMPDEST PUSH1 0x0 DUP2 GT PUSH2 0x375 JUMPI PUSH1 0x40 MLOAD PUSH32 0x8C379A000000000000000000000000000000000000000000000000000000000 DUP2 MSTORE PUSH1 0x4 ADD PUSH2 0x36C SWAP1 PUSH2 0xE0E JUMP JUMPDEST PUSH1 0x40 MLOAD DUP1 SWAP2 SUB SWAP1 REVERT JUMPDEST PUSH1 0x2 PUSH1 0x0 SWAP1 SLOAD SWAP1 PUSH2 0x100 EXP SWAP1 DIV PUSH20 0xFFFFFFFFFFFFFFFFFFFFFFFFFFFFFFFFFFFFFFFF AND PUSH20 0xFFFFFFFFFFFFFFFFFFFFFFFFFFFFFFFFFFFFFFFF AND PUSH4 0x23B872DD CALLER ADDRESS DUP5 PUSH1 0x40 MLOAD DUP5 PUSH4 0xFFFFFFFF AND PUSH1 0xE0 SHL DUP2 MSTORE PUSH1 0x4 ADD PUSH2 0x3D4 SWAP4 SWAP3 SWAP2 SWAP1 PUSH2 0xD45 JUMP JUMPDEST PUSH1 0x20 PUSH1 0x40 MLOAD DUP1 DUP4 SUB DUP2 PUSH1 0x0 DUP8 DUP1 EXTCODESIZE ISZERO DUP1 ISZERO PUSH2 0x3EE JUMPI PUSH1 0x0 DUP1 REVERT JUMPDEST POP GAS CALL ISZERO DUP1 ISZERO PUSH2 0x402 JUMPI RETURNDATASIZE PUSH1 0x0 DUP1 RETURNDATACOPY RETURNDATASIZE PUSH1 0x0 REVERT JUMPDEST POP POP POP POP PUSH1 0x40 MLOAD RETURNDATASIZE PUSH1 0x1F NOT PUSH1 0x1F DUP3 ADD AND DUP3 ADD DUP1 PUSH1 0x40 MSTORE POP DUP2 ADD SWAP1 PUSH2 0x426 SWAP2 SWAP1 PUSH2 0xAEC JUMP JUMPDEST POP POP JUMP JUMPDEST PUSH2 0x432 PUSH2 0x7C7 JUMP JUMPDEST PUSH20 0xFFFFFFFFFFFFFFFFFFFFFFFFFFFFFFFFFFFFFFFF AND PUSH2 0x450 PUSH2 0x572 JUMP JUMPDEST PUSH20 0xFFFFFFFFFFFFFFFFFFFFFFFFFFFFFFFFFFFFFFFF AND EQ PUSH2 0x4A6 JUMPI PUSH1 0x40 MLOAD PUSH32 0x8C379A000000000000000000000000000000000000000000000000000000000 DUP2 MSTORE PUSH1 0x4 ADD PUSH2 0x49D SWAP1 PUSH2 0xDEE JUMP JUMPDEST PUSH1 0x40 MLOAD DUP1 SWAP2 SUB SWAP1 REVERT JUMPDEST DUP1 PUSH1 0x1 PUSH1 0x0 PUSH2 0x100 EXP DUP2 SLOAD DUP2 PUSH20 0xFFFFFFFFFFFFFFFFFFFFFFFFFFFFFFFFFFFFFFFF MUL NOT AND SWAP1 DUP4 PUSH20 0xFFFFFFFFFFFFFFFFFFFFFFFFFFFFFFFFFFFFFFFF AND MUL OR SWAP1 SSTORE POP POP JUMP JUMPDEST PUSH2 0x4F2 PUSH2 0x7C7 JUMP JUMPDEST PUSH20 0xFFFFFFFFFFFFFFFFFFFFFFFFFFFFFFFFFFFFFFFF AND PUSH2 0x510 PUSH2 0x572 JUMP JUMPDEST PUSH20 0xFFFFFFFFFFFFFFFFFFFFFFFFFFFFFFFFFFFFFFFF AND EQ PUSH2 0x566 JUMPI PUSH1 0x40 MLOAD PUSH32 0x8C379A000000000000000000000000000000000000000000000000000000000 DUP2 MSTORE PUSH1 0x4 ADD PUSH2 0x55D SWAP1 PUSH2 0xDEE JUMP JUMPDEST PUSH1 0x40 MLOAD DUP1 SWAP2 SUB SWAP1 REVERT JUMPDEST PUSH2 0x570 PUSH1 0x0 PUSH2 0x7CF JUMP JUMPDEST JUMP JUMPDEST PUSH1 0x0 DUP1 PUSH1 0x0 SWAP1 SLOAD SWAP1 PUSH2 0x100 EXP SWAP1 DIV PUSH20 0xFFFFFFFFFFFFFFFFFFFFFFFFFFFFFFFFFFFFFFFF AND SWAP1 POP SWAP1 JUMP JUMPDEST PUSH1 0x7 DUP1 PUSH1 0x0 ADD SLOAD SWAP1 DUP1 PUSH1 0x1 ADD SLOAD SWAP1 DUP1 PUSH1 0x2 ADD PUSH1 0x0 SWAP1 SLOAD SWAP1 PUSH2 0x100 EXP SWAP1 DIV PUSH1 0xFF AND SWAP1 POP DUP4 JUMP JUMPDEST PUSH2 0x5C8 PUSH2 0x7C7 JUMP JUMPDEST PUSH20 0xFFFFFFFFFFFFFFFFFFFFFFFFFFFFFFFFFFFFFFFF AND PUSH2 0x5E6 PUSH2 0x572 JUMP JUMPDEST PUSH20 0xFFFFFFFFFFFFFFFFFFFFFFFFFFFFFFFFFFFFFFFF AND EQ PUSH2 0x63C JUMPI PUSH1 0x40 MLOAD PUSH32 0x8C379A000000000000000000000000000000000000000000000000000000000 DUP2 MSTORE PUSH1 0x4 ADD PUSH2 0x633 SWAP1 PUSH2 0xDEE JUMP JUMPDEST PUSH1 0x40 MLOAD DUP1 SWAP2 SUB SWAP1 REVERT JUMPDEST PUSH1 0x1 PUSH1 0x0 SWAP1 SLOAD SWAP1 PUSH2 0x100 EXP SWAP1 DIV PUSH20 0xFFFFFFFFFFFFFFFFFFFFFFFFFFFFFFFFFFFFFFFF AND PUSH20 0xFFFFFFFFFFFFFFFFFFFFFFFFFFFFFFFFFFFFFFFF AND PUSH4 0xF121DA92 DUP4 DUP4 PUSH1 0x40 MLOAD DUP4 PUSH4 0xFFFFFFFF AND PUSH1 0xE0 SHL DUP2 MSTORE PUSH1 0x4 ADD PUSH2 0x699 SWAP3 SWAP2 SWAP1 PUSH2 0xD7C JUMP JUMPDEST PUSH1 0x0 PUSH1 0x40 MLOAD DUP1 DUP4 SUB DUP2 PUSH1 0x0 DUP8 DUP1 EXTCODESIZE ISZERO DUP1 ISZERO PUSH2 0x6B3 JUMPI PUSH1 0x0 DUP1 REVERT JUMPDEST POP GAS CALL ISZERO DUP1 ISZERO PUSH2 0x6C7 JUMPI RETURNDATASIZE PUSH1 0x0 DUP1 RETURNDATACOPY RETURNDATASIZE PUSH1 0x0 REVERT JUMPDEST POP POP POP POP POP POP JUMP JUMPDEST PUSH2 0x6D7 PUSH2 0x7C7 JUMP JUMPDEST PUSH20 0xFFFFFFFFFFFFFFFFFFFFFFFFFFFFFFFFFFFFFFFF AND PUSH2 0x6F5 PUSH2 0x572 JUMP JUMPDEST PUSH20 0xFFFFFFFFFFFFFFFFFFFFFFFFFFFFFFFFFFFFFFFF AND EQ PUSH2 0x74B JUMPI PUSH1 0x40 MLOAD PUSH32 0x8C379A000000000000000000000000000000000000000000000000000000000 DUP2 MSTORE PUSH1 0x4 ADD PUSH2 0x742 SWAP1 PUSH2 0xDEE JUMP JUMPDEST PUSH1 0x40 MLOAD DUP1 SWAP2 SUB SWAP1 REVERT JUMPDEST PUSH1 0x0 PUSH20 0xFFFFFFFFFFFFFFFFFFFFFFFFFFFFFFFFFFFFFFFF AND DUP2 PUSH20 0xFFFFFFFFFFFFFFFFFFFFFFFFFFFFFFFFFFFFFFFF AND EQ ISZERO PUSH2 0x7BB JUMPI PUSH1 0x40 MLOAD PUSH32 0x8C379A000000000000000000000000000000000000000000000000000000000 DUP2 MSTORE PUSH1 0x4 ADD PUSH2 0x7B2 SWAP1 PUSH2 0xDCE JUMP JUMPDEST PUSH1 0x40 MLOAD DUP1 SWAP2 SUB SWAP1 REVERT JUMPDEST PUSH2 0x7C4 DUP2 PUSH2 0x7CF JUMP JUMPDEST POP JUMP JUMPDEST PUSH1 0x0 CALLER SWAP1 POP SWAP1 JUMP JUMPDEST PUSH1 0x0 DUP1 PUSH1 0x0 SWAP1 SLOAD SWAP1 PUSH2 0x100 EXP SWAP1 DIV PUSH20 0xFFFFFFFFFFFFFFFFFFFFFFFFFFFFFFFFFFFFFFFF AND SWAP1 POP DUP2 PUSH1 0x0 DUP1 PUSH2 0x100 EXP DUP2 SLOAD DUP2 PUSH20 0xFFFFFFFFFFFFFFFFFFFFFFFFFFFFFFFFFFFFFFFF MUL NOT AND SWAP1 DUP4 PUSH20 0xFFFFFFFFFFFFFFFFFFFFFFFFFFFFFFFFFFFFFFFF AND MUL OR SWAP1 SSTORE POP DUP2 PUSH20 0xFFFFFFFFFFFFFFFFFFFFFFFFFFFFFFFFFFFFFFFF AND DUP2 PUSH20 0xFFFFFFFFFFFFFFFFFFFFFFFFFFFFFFFFFFFFFFFF AND PUSH32 0x8BE0079C531659141344CD1FD0A4F28419497F9722A3DAAFE3B4186F6B6457E0 PUSH1 0x40 MLOAD PUSH1 0x40 MLOAD DUP1 SWAP2 SUB SWAP1 LOG3 POP POP JUMP JUMPDEST PUSH1 0x0 PUSH2 0x8A6 PUSH2 0x8A1 DUP5 PUSH2 0xE8A JUMP JUMPDEST PUSH2 0xE65 JUMP JUMPDEST SWAP1 POP DUP1 DUP4 DUP3 MSTORE PUSH1 0x20 DUP3 ADD SWAP1 POP DUP3 PUSH1 0x0 JUMPDEST DUP6 DUP2 LT ISZERO PUSH2 0x8E6 JUMPI DUP2 CALLDATALOAD DUP6 ADD PUSH2 0x8CC DUP9 DUP3 PUSH2 0xA18 JUMP JUMPDEST DUP5 MSTORE PUSH1 0x20 DUP5 ADD SWAP4 POP PUSH1 0x20 DUP4 ADD SWAP3 POP POP PUSH1 0x1 DUP2 ADD SWAP1 POP PUSH2 0x8B6 JUMP JUMPDEST POP POP POP SWAP4 SWAP3 POP POP POP JUMP JUMPDEST PUSH1 0x0 PUSH2 0x903 PUSH2 0x8FE DUP5 PUSH2 0xEB6 JUMP JUMPDEST PUSH2 0xE65 JUMP JUMPDEST SWAP1 POP DUP1 DUP4 DUP3 MSTORE PUSH1 0x20 DUP3 ADD SWAP1 POP DUP3 DUP6 PUSH1 0x20 DUP7 MUL DUP3 ADD GT ISZERO PUSH2 0x922 JUMPI PUSH1 0x0 DUP1 REVERT JUMPDEST PUSH1 0x0 JUMPDEST DUP6 DUP2 LT ISZERO PUSH2 0x952 JUMPI DUP2 PUSH2 0x938 DUP9 DUP3 PUSH2 0xA42 JUMP JUMPDEST DUP5 MSTORE PUSH1 0x20 DUP5 ADD SWAP4 POP PUSH1 0x20 DUP4 ADD SWAP3 POP POP PUSH1 0x1 DUP2 ADD SWAP1 POP PUSH2 0x925 JUMP JUMPDEST POP POP POP SWAP4 SWAP3 POP POP POP JUMP JUMPDEST PUSH1 0x0 PUSH2 0x96F PUSH2 0x96A DUP5 PUSH2 0xEE2 JUMP JUMPDEST PUSH2 0xE65 JUMP JUMPDEST SWAP1 POP DUP3 DUP2 MSTORE PUSH1 0x20 DUP2 ADD DUP5 DUP5 DUP5 ADD GT ISZERO PUSH2 0x987 JUMPI PUSH1 0x0 DUP1 REVERT JUMPDEST PUSH2 0x992 DUP5 DUP3 DUP6 PUSH2 0x101E JUMP JUMPDEST POP SWAP4 SWAP3 POP POP POP JUMP JUMPDEST PUSH1 0x0 DUP2 CALLDATALOAD SWAP1 POP PUSH2 0x9A9 DUP2 PUSH2 0x1198 JUMP JUMPDEST SWAP3 SWAP2 POP POP JUMP JUMPDEST PUSH1 0x0 DUP3 PUSH1 0x1F DUP4 ADD SLT PUSH2 0x9C0 JUMPI PUSH1 0x0 DUP1 REVERT JUMPDEST DUP2 CALLDATALOAD PUSH2 0x9D0 DUP5 DUP3 PUSH1 0x20 DUP7 ADD PUSH2 0x893 JUMP JUMPDEST SWAP2 POP POP SWAP3 SWAP2 POP POP JUMP JUMPDEST PUSH1 0x0 DUP3 PUSH1 0x1F DUP4 ADD SLT PUSH2 0x9EA JUMPI PUSH1 0x0 DUP1 REVERT JUMPDEST DUP2 CALLDATALOAD PUSH2 0x9FA DUP5 DUP3 PUSH1 0x20 DUP7 ADD PUSH2 0x8F0 JUMP JUMPDEST SWAP2 POP POP SWAP3 SWAP2 POP POP JUMP JUMPDEST PUSH1 0x0 DUP2 MLOAD SWAP1 POP PUSH2 0xA12 DUP2 PUSH2 0x11AF JUMP JUMPDEST SWAP3 SWAP2 POP POP JUMP JUMPDEST PUSH1 0x0 DUP3 PUSH1 0x1F DUP4 ADD SLT PUSH2 0xA29 JUMPI PUSH1 0x0 DUP1 REVERT JUMPDEST DUP2 CALLDATALOAD PUSH2 0xA39 DUP5 DUP3 PUSH1 0x20 DUP7 ADD PUSH2 0x95C JUMP JUMPDEST SWAP2 POP POP SWAP3 SWAP2 POP POP JUMP JUMPDEST PUSH1 0x0 DUP2 CALLDATALOAD SWAP1 POP PUSH2 0xA51 DUP2 PUSH2 0x11C6 JUMP JUMPDEST SWAP3 SWAP2 POP POP JUMP JUMPDEST PUSH1 0x0 PUSH1 0x20 DUP3 DUP5 SUB SLT ISZERO PUSH2 0xA69 JUMPI PUSH1 0x0 DUP1 REVERT JUMPDEST PUSH1 0x0 PUSH2 0xA77 DUP5 DUP3 DUP6 ADD PUSH2 0x99A JUMP JUMPDEST SWAP2 POP POP SWAP3 SWAP2 POP POP JUMP JUMPDEST PUSH1 0x0 DUP1 PUSH1 0x40 DUP4 DUP6 SUB SLT ISZERO PUSH2 0xA93 JUMPI PUSH1 0x0 DUP1 REVERT JUMPDEST PUSH1 0x0 DUP4 ADD CALLDATALOAD PUSH8 0xFFFFFFFFFFFFFFFF DUP2 GT ISZERO PUSH2 0xAAD JUMPI PUSH1 0x0 DUP1 REVERT JUMPDEST PUSH2 0xAB9 DUP6 DUP3 DUP7 ADD PUSH2 0x9D9 JUMP JUMPDEST SWAP3 POP POP PUSH1 0x20 DUP4 ADD CALLDATALOAD PUSH8 0xFFFFFFFFFFFFFFFF DUP2 GT ISZERO PUSH2 0xAD6 JUMPI PUSH1 0x0 DUP1 REVERT JUMPDEST PUSH2 0xAE2 DUP6 DUP3 DUP7 ADD PUSH2 0x9AF JUMP JUMPDEST SWAP2 POP POP SWAP3 POP SWAP3 SWAP1 POP JUMP JUMPDEST PUSH1 0x0 PUSH1 0x20 DUP3 DUP5 SUB SLT ISZERO PUSH2 0xAFE JUMPI PUSH1 0x0 DUP1 REVERT JUMPDEST PUSH1 0x0 PUSH2 0xB0C DUP5 DUP3 DUP6 ADD PUSH2 0xA03 JUMP JUMPDEST SWAP2 POP POP SWAP3 SWAP2 POP POP JUMP JUMPDEST PUSH1 0x0 PUSH1 0x20 DUP3 DUP5 SUB SLT ISZERO PUSH2 0xB27 JUMPI PUSH1 0x0 DUP1 REVERT JUMPDEST PUSH1 0x0 PUSH2 0xB35 DUP5 DUP3 DUP6 ADD PUSH2 0xA42 JUMP JUMPDEST SWAP2 POP POP SWAP3 SWAP2 POP POP JUMP JUMPDEST PUSH1 0x0 PUSH2 0xB4A DUP4 DUP4 PUSH2 0xC6A JUMP JUMPDEST SWAP1 POP SWAP3 SWAP2 POP POP JUMP JUMPDEST PUSH1 0x0 PUSH2 0xB5E DUP4 DUP4 PUSH2 0xD0C JUMP JUMPDEST PUSH1 0x20 DUP4 ADD SWAP1 POP SWAP3 SWAP2 POP POP JUMP JUMPDEST PUSH2 0xB73 DUP2 PUSH2 0xFB2 JUMP JUMPDEST DUP3 MSTORE POP POP JUMP JUMPDEST PUSH1 0x0 PUSH2 0xB84 DUP3 PUSH2 0xF33 JUMP JUMPDEST PUSH2 0xB8E DUP2 DUP6 PUSH2 0xF6E JUMP JUMPDEST SWAP4 POP DUP4 PUSH1 0x20 DUP3 MUL DUP6 ADD PUSH2 0xBA0 DUP6 PUSH2 0xF13 JUMP JUMPDEST DUP1 PUSH1 0x0 JUMPDEST DUP6 DUP2 LT ISZERO PUSH2 0xBDC JUMPI DUP5 DUP5 SUB DUP10 MSTORE DUP2 MLOAD PUSH2 0xBBD DUP6 DUP3 PUSH2 0xB3E JUMP JUMPDEST SWAP5 POP PUSH2 0xBC8 DUP4 PUSH2 0xF54 JUMP JUMPDEST SWAP3 POP PUSH1 0x20 DUP11 ADD SWAP10 POP POP PUSH1 0x1 DUP2 ADD SWAP1 POP PUSH2 0xBA4 JUMP JUMPDEST POP DUP3 SWAP8 POP DUP8 SWAP6 POP POP POP POP POP POP SWAP3 SWAP2 POP POP JUMP JUMPDEST PUSH1 0x0 PUSH2 0xBF9 DUP3 PUSH2 0xF3E JUMP JUMPDEST PUSH2 0xC03 DUP2 DUP6 PUSH2 0xF7F JUMP JUMPDEST SWAP4 POP PUSH2 0xC0E DUP4 PUSH2 0xF23 JUMP JUMPDEST DUP1 PUSH1 0x0 JUMPDEST DUP4 DUP2 LT ISZERO PUSH2 0xC3F JUMPI DUP2 MLOAD PUSH2 0xC26 DUP9 DUP3 PUSH2 0xB52 JUMP JUMPDEST SWAP8 POP PUSH2 0xC31 DUP4 PUSH2 0xF61 JUMP JUMPDEST SWAP3 POP POP PUSH1 0x1 DUP2 ADD SWAP1 POP PUSH2 0xC12 JUMP JUMPDEST POP DUP6 SWAP4 POP POP POP POP SWAP3 SWAP2 POP POP JUMP JUMPDEST PUSH2 0xC55 DUP2 PUSH2 0xFC4 JUMP JUMPDEST DUP3 MSTORE POP POP JUMP JUMPDEST PUSH2 0xC64 DUP2 PUSH2 0xFFA JUMP JUMPDEST DUP3 MSTORE POP POP JUMP JUMPDEST PUSH1 0x0 PUSH2 0xC75 DUP3 PUSH2 0xF49 JUMP JUMPDEST PUSH2 0xC7F DUP2 DUP6 PUSH2 0xF90 JUMP JUMPDEST SWAP4 POP PUSH2 0xC8F DUP2 DUP6 PUSH1 0x20 DUP7 ADD PUSH2 0x102D JUMP JUMPDEST PUSH2 0xC98 DUP2 PUSH2 0x10C0 JUMP JUMPDEST DUP5 ADD SWAP2 POP POP SWAP3 SWAP2 POP POP JUMP JUMPDEST PUSH1 0x0 PUSH2 0xCB0 PUSH1 0x26 DUP4 PUSH2 0xFA1 JUMP JUMPDEST SWAP2 POP PUSH2 0xCBB DUP3 PUSH2 0x10D1 JUMP JUMPDEST PUSH1 0x40 DUP3 ADD SWAP1 POP SWAP2 SWAP1 POP JUMP JUMPDEST PUSH1 0x0 PUSH2 0xCD3 PUSH1 0x20 DUP4 PUSH2 0xFA1 JUMP JUMPDEST SWAP2 POP PUSH2 0xCDE DUP3 PUSH2 0x1120 JUMP JUMPDEST PUSH1 0x20 DUP3 ADD SWAP1 POP SWAP2 SWAP1 POP JUMP JUMPDEST PUSH1 0x0 PUSH2 0xCF6 PUSH1 0x2B DUP4 PUSH2 0xFA1 JUMP JUMPDEST SWAP2 POP PUSH2 0xD01 DUP3 PUSH2 0x1149 JUMP JUMPDEST PUSH1 0x40 DUP3 ADD SWAP1 POP SWAP2 SWAP1 POP JUMP JUMPDEST PUSH2 0xD15 DUP2 PUSH2 0xFF0 JUMP JUMPDEST DUP3 MSTORE POP POP JUMP JUMPDEST PUSH2 0xD24 DUP2 PUSH2 0xFF0 JUMP JUMPDEST DUP3 MSTORE POP POP JUMP JUMPDEST PUSH1 0x0 PUSH1 0x20 DUP3 ADD SWAP1 POP PUSH2 0xD3F PUSH1 0x0 DUP4 ADD DUP5 PUSH2 0xB6A JUMP JUMPDEST SWAP3 SWAP2 POP POP JUMP JUMPDEST PUSH1 0x0 PUSH1 0x60 DUP3 ADD SWAP1 POP PUSH2 0xD5A PUSH1 0x0 DUP4 ADD DUP7 PUSH2 0xB6A JUMP JUMPDEST PUSH2 0xD67 PUSH1 0x20 DUP4 ADD DUP6 PUSH2 0xB6A JUMP JUMPDEST PUSH2 0xD74 PUSH1 0x40 DUP4 ADD DUP5 PUSH2 0xD1B JUMP JUMPDEST SWAP5 SWAP4 POP POP POP POP JUMP JUMPDEST PUSH1 0x0 PUSH1 0x40 DUP3 ADD SWAP1 POP DUP2 DUP2 SUB PUSH1 0x0 DUP4 ADD MSTORE PUSH2 0xD96 DUP2 DUP6 PUSH2 0xBEE JUMP JUMPDEST SWAP1 POP DUP2 DUP2 SUB PUSH1 0x20 DUP4 ADD MSTORE PUSH2 0xDAA DUP2 DUP5 PUSH2 0xB79 JUMP JUMPDEST SWAP1 POP SWAP4 SWAP3 POP POP POP JUMP JUMPDEST PUSH1 0x0 PUSH1 0x20 DUP3 ADD SWAP1 POP PUSH2 0xDC8 PUSH1 0x0 DUP4 ADD DUP5 PUSH2 0xC5B JUMP JUMPDEST SWAP3 SWAP2 POP POP JUMP JUMPDEST PUSH1 0x0 PUSH1 0x20 DUP3 ADD SWAP1 POP DUP2 DUP2 SUB PUSH1 0x0 DUP4 ADD MSTORE PUSH2 0xDE7 DUP2 PUSH2 0xCA3 JUMP JUMPDEST SWAP1 POP SWAP2 SWAP1 POP JUMP JUMPDEST PUSH1 0x0 PUSH1 0x20 DUP3 ADD SWAP1 POP DUP2 DUP2 SUB PUSH1 0x0 DUP4 ADD MSTORE PUSH2 0xE07 DUP2 PUSH2 0xCC6 JUMP JUMPDEST SWAP1 POP SWAP2 SWAP1 POP JUMP JUMPDEST PUSH1 0x0 PUSH1 0x20 DUP3 ADD SWAP1 POP DUP2 DUP2 SUB PUSH1 0x0 DUP4 ADD MSTORE PUSH2 0xE27 DUP2 PUSH2 0xCE9 JUMP JUMPDEST SWAP1 POP SWAP2 SWAP1 POP JUMP JUMPDEST PUSH1 0x0 PUSH1 0x60 DUP3 ADD SWAP1 POP PUSH2 0xE43 PUSH1 0x0 DUP4 ADD DUP7 PUSH2 0xD1B JUMP JUMPDEST PUSH2 0xE50 PUSH1 0x20 DUP4 ADD DUP6 PUSH2 0xD1B JUMP JUMPDEST PUSH2 0xE5D PUSH1 0x40 DUP4 ADD DUP5 PUSH2 0xC4C JUMP JUMPDEST SWAP5 SWAP4 POP POP POP POP JUMP JUMPDEST PUSH1 0x0 PUSH2 0xE6F PUSH2 0xE80 JUMP JUMPDEST SWAP1 POP PUSH2 0xE7B DUP3 DUP3 PUSH2 0x1060 JUMP JUMPDEST SWAP2 SWAP1 POP JUMP JUMPDEST PUSH1 0x0 PUSH1 0x40 MLOAD SWAP1 POP SWAP1 JUMP JUMPDEST PUSH1 0x0 PUSH8 0xFFFFFFFFFFFFFFFF DUP3 GT ISZERO PUSH2 0xEA5 JUMPI PUSH2 0xEA4 PUSH2 0x1091 JUMP JUMPDEST JUMPDEST PUSH1 0x20 DUP3 MUL SWAP1 POP PUSH1 0x20 DUP2 ADD SWAP1 POP SWAP2 SWAP1 POP JUMP JUMPDEST PUSH1 0x0 PUSH8 0xFFFFFFFFFFFFFFFF DUP3 GT ISZERO PUSH2 0xED1 JUMPI PUSH2 0xED0 PUSH2 0x1091 JUMP JUMPDEST JUMPDEST PUSH1 0x20 DUP3 MUL SWAP1 POP PUSH1 0x20 DUP2 ADD SWAP1 POP SWAP2 SWAP1 POP JUMP JUMPDEST PUSH1 0x0 PUSH8 0xFFFFFFFFFFFFFFFF DUP3 GT ISZERO PUSH2 0xEFD JUMPI PUSH2 0xEFC PUSH2 0x1091 JUMP JUMPDEST JUMPDEST PUSH2 0xF06 DUP3 PUSH2 0x10C0 JUMP JUMPDEST SWAP1 POP PUSH1 0x20 DUP2 ADD SWAP1 POP SWAP2 SWAP1 POP JUMP JUMPDEST PUSH1 0x0 DUP2 SWAP1 POP PUSH1 0x20 DUP3 ADD SWAP1 POP SWAP2 SWAP1 POP JUMP JUMPDEST PUSH1 0x0 DUP2 SWAP1 POP PUSH1 0x20 DUP3 ADD SWAP1 POP SWAP2 SWAP1 POP JUMP JUMPDEST PUSH1 0x0 DUP2 MLOAD SWAP1 POP SWAP2 SWAP1 POP JUMP JUMPDEST PUSH1 0x0 DUP2 MLOAD SWAP1 POP SWAP2 SWAP1 POP JUMP JUMPDEST PUSH1 0x0 DUP2 MLOAD SWAP1 POP SWAP2 SWAP1 POP JUMP JUMPDEST PUSH1 0x0 PUSH1 0x20 DUP3 ADD SWAP1 POP SWAP2 SWAP1 POP JUMP JUMPDEST PUSH1 0x0 PUSH1 0x20 DUP3 ADD SWAP1 POP SWAP2 SWAP1 POP JUMP JUMPDEST PUSH1 0x0 DUP3 DUP3 MSTORE PUSH1 0x20 DUP3 ADD SWAP1 POP SWAP3 SWAP2 POP POP JUMP JUMPDEST PUSH1 0x0 DUP3 DUP3 MSTORE PUSH1 0x20 DUP3 ADD SWAP1 POP SWAP3 SWAP2 POP POP JUMP JUMPDEST PUSH1 0x0 DUP3 DUP3 MSTORE PUSH1 0x20 DUP3 ADD SWAP1 POP SWAP3 SWAP2 POP POP JUMP JUMPDEST PUSH1 0x0 DUP3 DUP3 MSTORE PUSH1 0x20 DUP3 ADD SWAP1 POP SWAP3 SWAP2 POP POP JUMP JUMPDEST PUSH1 0x0 PUSH2 0xFBD DUP3 PUSH2 0xFD0 JUMP JUMPDEST SWAP1 POP SWAP2 SWAP1 POP JUMP JUMPDEST PUSH1 0x0 DUP2 ISZERO ISZERO SWAP1 POP SWAP2 SWAP1 POP JUMP JUMPDEST PUSH1 0x0 PUSH20 0xFFFFFFFFFFFFFFFFFFFFFFFFFFFFFFFFFFFFFFFF DUP3 AND SWAP1 POP SWAP2 SWAP1 POP JUMP JUMPDEST PUSH1 0x0 DUP2 SWAP1 POP SWAP2 SWAP1 POP JUMP JUMPDEST PUSH1 0x0 PUSH2 0x1005 DUP3 PUSH2 0x100C JUMP JUMPDEST SWAP1 POP SWAP2 SWAP1 POP JUMP JUMPDEST PUSH1 0x0 PUSH2 0x1017 DUP3 PUSH2 0xFD0 JUMP JUMPDEST SWAP1 POP SWAP2 SWAP1 POP JUMP JUMPDEST DUP3 DUP2 DUP4 CALLDATACOPY PUSH1 0x0 DUP4 DUP4 ADD MSTORE POP POP POP JUMP JUMPDEST PUSH1 0x0 JUMPDEST DUP4 DUP2 LT ISZERO PUSH2 0x104B JUMPI DUP1 DUP3 ADD MLOAD DUP2 DUP5 ADD MSTORE PUSH1 0x20 DUP2 ADD SWAP1 POP PUSH2 0x1030 JUMP JUMPDEST DUP4 DUP2 GT ISZERO PUSH2 0x105A JUMPI PUSH1 0x0 DUP5 DUP5 ADD MSTORE JUMPDEST POP POP POP POP JUMP JUMPDEST PUSH2 0x1069 DUP3 PUSH2 0x10C0 JUMP JUMPDEST DUP2 ADD DUP2 DUP2 LT PUSH8 0xFFFFFFFFFFFFFFFF DUP3 GT OR ISZERO PUSH2 0x1088 JUMPI PUSH2 0x1087 PUSH2 0x1091 JUMP JUMPDEST JUMPDEST DUP1 PUSH1 0x40 MSTORE POP POP POP JUMP JUMPDEST PUSH32 0x4E487B7100000000000000000000000000000000000000000000000000000000 PUSH1 0x0 MSTORE PUSH1 0x41 PUSH1 0x4 MSTORE PUSH1 0x24 PUSH1 0x0 REVERT JUMPDEST PUSH1 0x0 PUSH1 0x1F NOT PUSH1 0x1F DUP4 ADD AND SWAP1 POP SWAP2 SWAP1 POP JUMP JUMPDEST PUSH32 0x4F776E61626C653A206E6577206F776E657220697320746865207A65726F2061 PUSH1 0x0 DUP3 ADD MSTORE PUSH32 0x6464726573730000000000000000000000000000000000000000000000000000 PUSH1 0x20 DUP3 ADD MSTORE POP JUMP JUMPDEST PUSH32 0x4F776E61626C653A2063616C6C6572206973206E6F7420746865206F776E6572 PUSH1 0x0 DUP3 ADD MSTORE POP JUMP JUMPDEST PUSH32 0x616D6F756E74207472616E73666572726564206D757374206265206120706F73 PUSH1 0x0 DUP3 ADD MSTORE PUSH32 0x69746976652076616C7565000000000000000000000000000000000000000000 PUSH1 0x20 DUP3 ADD MSTORE POP JUMP JUMPDEST PUSH2 0x11A1 DUP2 PUSH2 0xFB2 JUMP JUMPDEST DUP2 EQ PUSH2 0x11AC JUMPI PUSH1 0x0 DUP1 REVERT JUMPDEST POP JUMP JUMPDEST PUSH2 0x11B8 DUP2 PUSH2 0xFC4 JUMP JUMPDEST DUP2 EQ PUSH2 0x11C3 JUMPI PUSH1 0x0 DUP1 REVERT JUMPDEST POP JUMP JUMPDEST PUSH2 0x11CF DUP2 PUSH2 0xFF0 JUMP JUMPDEST DUP2 EQ PUSH2 0x11DA JUMPI PUSH1 0x0 DUP1 REVERT JUMPDEST POP JUMP INVALID LOG2 PUSH5 0x6970667358 0x22 SLT KECCAK256 SMOD 0xBB ADDMOD CREATE DUP3 0xE7 PUSH9 0x2851F39B0315A6696E CALL RETURNDATASIZE DUP6 STATICCALL 0x4E 0xE0 TIMESTAMP PUSH31 0x3857457509F7479764736F6C63430008010033000000000000000000000000 "
				},
				"gasEstimates": {
					"creation": {
						"codeDepositCost": "925400",
						"executionCost": "infinite",
						"totalCost": "infinite"
					},
					"external": {
						"buyNFT(uint256)": "infinite",
						"lastUpdate()": "infinite",
						"owner()": "1266",
						"preLoadURIs(uint256[],string[])": "infinite",
						"renounceOwnership()": "24396",
						"setSaleEnd(uint256)": "21405",
						"setSaleStart(uint256)": "21427",
						"setStorageContractAddress(address)": "22262",
						"storageContract()": "1215",
						"transferOwnership(address)": "24833",
						"usdcToken()": "1280"
					},
					"internal": {
						"mintNextNftToAddress(address)": "infinite",
						"updateState()": "infinite"
					}
				},
				"methodIdentifiers": {
					"buyNFT(uint256)": "51ed8288",
					"lastUpdate()": "c0463711",
					"owner()": "8da5cb5b",
					"preLoadURIs(uint256[],string[])": "f121da92",
					"renounceOwnership()": "715018a6",
					"setSaleEnd(uint256)": "1515fa6e",
					"setSaleStart(uint256)": "2f181f54",
					"setStorageContractAddress(address)": "51f7598c",
					"storageContract()": "11ce0267",
					"transferOwnership(address)": "f2fde38b",
					"usdcToken()": "11eac855"
				}
			},
			"storageLayout": {
				"storage": [
					{
						"astId": 7,
						"contract": "contracts/Founding Citizens NFT Sale.sol:FoundingNFTSale",
						"label": "_owner",
						"offset": 0,
						"slot": "0",
						"type": "t_address"
					},
					{
						"astId": 798,
						"contract": "contracts/Founding Citizens NFT Sale.sol:FoundingNFTSale",
						"label": "storageContract",
						"offset": 0,
						"slot": "1",
						"type": "t_address"
					},
					{
						"astId": 801,
						"contract": "contracts/Founding Citizens NFT Sale.sol:FoundingNFTSale",
						"label": "usdcToken",
						"offset": 0,
						"slot": "2",
						"type": "t_contract(ERC20)650"
					},
					{
						"astId": 804,
						"contract": "contracts/Founding Citizens NFT Sale.sol:FoundingNFTSale",
						"label": "saleStart",
						"offset": 0,
						"slot": "3",
						"type": "t_uint256"
					},
					{
						"astId": 806,
						"contract": "contracts/Founding Citizens NFT Sale.sol:FoundingNFTSale",
						"label": "saleEnd",
						"offset": 0,
						"slot": "4",
						"type": "t_uint256"
					},
					{
						"astId": 809,
						"contract": "contracts/Founding Citizens NFT Sale.sol:FoundingNFTSale",
						"label": "startPrice",
						"offset": 0,
						"slot": "5",
						"type": "t_uint256"
					},
					{
						"astId": 812,
						"contract": "contracts/Founding Citizens NFT Sale.sol:FoundingNFTSale",
						"label": "EndPrice",
						"offset": 0,
						"slot": "6",
						"type": "t_uint256"
					},
					{
						"astId": 828,
						"contract": "contracts/Founding Citizens NFT Sale.sol:FoundingNFTSale",
						"label": "lastUpdate",
						"offset": 0,
						"slot": "7",
						"type": "t_struct(Update)819_storage"
					}
				],
				"types": {
					"t_address": {
						"encoding": "inplace",
						"label": "address",
						"numberOfBytes": "20"
					},
					"t_bool": {
						"encoding": "inplace",
						"label": "bool",
						"numberOfBytes": "1"
					},
					"t_contract(ERC20)650": {
						"encoding": "inplace",
						"label": "contract ERC20",
						"numberOfBytes": "20"
					},
					"t_struct(Update)819_storage": {
						"encoding": "inplace",
						"label": "struct FoundingNFTSale.Update",
						"members": [
							{
								"astId": 814,
								"contract": "contracts/Founding Citizens NFT Sale.sol:FoundingNFTSale",
								"label": "price",
								"offset": 0,
								"slot": "0",
								"type": "t_uint256"
							},
							{
								"astId": 816,
								"contract": "contracts/Founding Citizens NFT Sale.sol:FoundingNFTSale",
								"label": "time",
								"offset": 0,
								"slot": "1",
								"type": "t_uint256"
							},
							{
								"astId": 818,
								"contract": "contracts/Founding Citizens NFT Sale.sol:FoundingNFTSale",
								"label": "saleIsLive",
								"offset": 0,
								"slot": "2",
								"type": "t_bool"
							}
						],
						"numberOfBytes": "96"
					},
					"t_uint256": {
						"encoding": "inplace",
						"label": "uint256",
						"numberOfBytes": "32"
					}
				}
			},
			"userdoc": {
				"kind": "user",
				"methods": {},
				"version": 1
			}
		}
	}
}