{
	"contracts/Founding Citizens NFT Sale.sol": {
		"FoundingNFTSale": {
			"abi": [
				{
					"anonymous": false,
					"inputs": [
						{
							"indexed": true,
							"internalType": "address",
							"name": "previousOwner",
							"type": "address"
						},
						{
							"indexed": true,
							"internalType": "address",
							"name": "newOwner",
							"type": "address"
						}
					],
					"name": "OwnershipTransferred",
					"type": "event"
				},
				{
					"inputs": [],
					"name": "owner",
					"outputs": [
						{
							"internalType": "address",
							"name": "",
							"type": "address"
						}
					],
					"stateMutability": "view",
					"type": "function"
				},
				{
					"inputs": [
						{
							"internalType": "uint256[]",
							"name": "ids",
							"type": "uint256[]"
						},
						{
							"internalType": "string[]",
							"name": "uris",
							"type": "string[]"
						}
					],
					"name": "preLoadURIs",
					"outputs": [],
					"stateMutability": "nonpayable",
					"type": "function"
				},
				{
					"inputs": [],
					"name": "renounceOwnership",
					"outputs": [],
					"stateMutability": "nonpayable",
					"type": "function"
				},
				{
					"inputs": [
						{
							"internalType": "address",
							"name": "storageAddress",
							"type": "address"
						}
					],
					"name": "setStorageContractAddress",
					"outputs": [],
					"stateMutability": "nonpayable",
					"type": "function"
				},
				{
					"inputs": [],
					"name": "storageContract",
					"outputs": [
						{
							"internalType": "address",
							"name": "",
							"type": "address"
						}
					],
					"stateMutability": "view",
					"type": "function"
				},
				{
					"inputs": [
						{
							"internalType": "address",
							"name": "newOwner",
							"type": "address"
						}
					],
					"name": "transferOwnership",
					"outputs": [],
					"stateMutability": "nonpayable",
					"type": "function"
				}
			],
			"devdoc": {
				"kind": "dev",
				"methods": {
					"owner()": {
						"details": "Returns the address of the current owner."
					},
					"renounceOwnership()": {
						"details": "Leaves the contract without owner. It will not be possible to call `onlyOwner` functions anymore. Can only be called by the current owner. NOTE: Renouncing ownership will leave the contract without an owner, thereby removing any functionality that is only available to the owner."
					},
					"transferOwnership(address)": {
						"details": "Transfers ownership of the contract to a new account (`newOwner`). Can only be called by the current owner."
					}
				},
				"version": 1
			},
			"evm": {
				"assembly": "    /* \"contracts/Founding Citizens NFT Sale.sol\":1895:2397  contract FoundingNFTSale is Ownable {\r... */\n  mstore(0x40, 0x80)\n  callvalue\n  dup1\n  iszero\n  tag_1\n  jumpi\n  0x00\n  dup1\n  revert\ntag_1:\n  pop\n    /* \"@openzeppelin/contracts@4.4.2/access/Ownable.sol\":921:953  _transferOwnership(_msgSender()) */\n  tag_4\n    /* \"@openzeppelin/contracts@4.4.2/access/Ownable.sol\":940:952  _msgSender() */\n  tag_5\n    /* \"@openzeppelin/contracts@4.4.2/access/Ownable.sol\":940:950  _msgSender */\n  shl(0x20, tag_6)\n    /* \"@openzeppelin/contracts@4.4.2/access/Ownable.sol\":940:952  _msgSender() */\n  0x20\n  shr\n  jump\t// in\ntag_5:\n    /* \"@openzeppelin/contracts@4.4.2/access/Ownable.sol\":921:939  _transferOwnership */\n  shl(0x20, tag_7)\n    /* \"@openzeppelin/contracts@4.4.2/access/Ownable.sol\":921:953  _transferOwnership(_msgSender()) */\n  0x20\n  shr\n  jump\t// in\ntag_4:\n    /* \"contracts/Founding Citizens NFT Sale.sol\":1895:2397  contract FoundingNFTSale is Ownable {\r... */\n  jump(tag_8)\n    /* \"@openzeppelin/contracts@4.4.2/utils/Context.sol\":640:736  function _msgSender() internal view virtual returns (address) {... */\ntag_6:\n    /* \"@openzeppelin/contracts@4.4.2/utils/Context.sol\":693:700  address */\n  0x00\n    /* \"@openzeppelin/contracts@4.4.2/utils/Context.sol\":719:729  msg.sender */\n  caller\n    /* \"@openzeppelin/contracts@4.4.2/utils/Context.sol\":712:729  return msg.sender */\n  swap1\n  pop\n    /* \"@openzeppelin/contracts@4.4.2/utils/Context.sol\":640:736  function _msgSender() internal view virtual returns (address) {... */\n  swap1\n  jump\t// out\n    /* \"@openzeppelin/contracts@4.4.2/access/Ownable.sol\":2270:2457  function _transferOwnership(address newOwner) internal virtual {... */\ntag_7:\n    /* \"@openzeppelin/contracts@4.4.2/access/Ownable.sol\":2343:2359  address oldOwner */\n  0x00\n    /* \"@openzeppelin/contracts@4.4.2/access/Ownable.sol\":2362:2368  _owner */\n  dup1\n  0x00\n  swap1\n  sload\n  swap1\n  0x0100\n  exp\n  swap1\n  div\n  0xffffffffffffffffffffffffffffffffffffffff\n  and\n    /* \"@openzeppelin/contracts@4.4.2/access/Ownable.sol\":2343:2368  address oldOwner = _owner */\n  swap1\n  pop\n    /* \"@openzeppelin/contracts@4.4.2/access/Ownable.sol\":2387:2395  newOwner */\n  dup2\n    /* \"@openzeppelin/contracts@4.4.2/access/Ownable.sol\":2378:2384  _owner */\n  0x00\n  dup1\n    /* \"@openzeppelin/contracts@4.4.2/access/Ownable.sol\":2378:2395  _owner = newOwner */\n  0x0100\n  exp\n  dup2\n  sload\n  dup2\n  0xffffffffffffffffffffffffffffffffffffffff\n  mul\n  not\n  and\n  swap1\n  dup4\n  0xffffffffffffffffffffffffffffffffffffffff\n  and\n  mul\n  or\n  swap1\n  sstore\n  pop\n    /* \"@openzeppelin/contracts@4.4.2/access/Ownable.sol\":2441:2449  newOwner */\n  dup2\n    /* \"@openzeppelin/contracts@4.4.2/access/Ownable.sol\":2410:2450  OwnershipTransferred(oldOwner, newOwner) */\n  0xffffffffffffffffffffffffffffffffffffffff\n  and\n    /* \"@openzeppelin/contracts@4.4.2/access/Ownable.sol\":2431:2439  oldOwner */\n  dup2\n    /* \"@openzeppelin/contracts@4.4.2/access/Ownable.sol\":2410:2450  OwnershipTransferred(oldOwner, newOwner) */\n  0xffffffffffffffffffffffffffffffffffffffff\n  and\n  0x8be0079c531659141344cd1fd0a4f28419497f9722a3daafe3b4186f6b6457e0\n  mload(0x40)\n  mload(0x40)\n  dup1\n  swap2\n  sub\n  swap1\n  log3\n    /* \"@openzeppelin/contracts@4.4.2/access/Ownable.sol\":2270:2457  function _transferOwnership(address newOwner) internal virtual {... */\n  pop\n  pop\n  jump\t// out\n    /* \"contracts/Founding Citizens NFT Sale.sol\":1895:2397  contract FoundingNFTSale is Ownable {\r... */\ntag_8:\n  dataSize(sub_0)\n  dup1\n  dataOffset(sub_0)\n  0x00\n  codecopy\n  0x00\n  return\nstop\n\nsub_0: assembly {\n        /* \"contracts/Founding Citizens NFT Sale.sol\":1895:2397  contract FoundingNFTSale is Ownable {\r... */\n      mstore(0x40, 0x80)\n      callvalue\n      dup1\n      iszero\n      tag_1\n      jumpi\n      0x00\n      dup1\n      revert\n    tag_1:\n      pop\n      jumpi(tag_2, lt(calldatasize, 0x04))\n      shr(0xe0, calldataload(0x00))\n      dup1\n      0x11ce0267\n      eq\n      tag_3\n      jumpi\n      dup1\n      0x51f7598c\n      eq\n      tag_4\n      jumpi\n      dup1\n      0x715018a6\n      eq\n      tag_5\n      jumpi\n      dup1\n      0x8da5cb5b\n      eq\n      tag_6\n      jumpi\n      dup1\n      0xf121da92\n      eq\n      tag_7\n      jumpi\n      dup1\n      0xf2fde38b\n      eq\n      tag_8\n      jumpi\n    tag_2:\n      0x00\n      dup1\n      revert\n        /* \"contracts/Founding Citizens NFT Sale.sol\":1938:1968  address public storageContract */\n    tag_3:\n      tag_9\n      tag_10\n      jump\t// in\n    tag_9:\n      mload(0x40)\n      tag_11\n      swap2\n      swap1\n      tag_12\n      jump\t// in\n    tag_11:\n      mload(0x40)\n      dup1\n      swap2\n      sub\n      swap1\n      return\n        /* \"contracts/Founding Citizens NFT Sale.sol\":1977:2104  function setStorageContractAddress(address storageAddress) public onlyOwner {\r... */\n    tag_4:\n      tag_13\n      0x04\n      dup1\n      calldatasize\n      sub\n      dup2\n      add\n      swap1\n      tag_14\n      swap2\n      swap1\n      tag_15\n      jump\t// in\n    tag_14:\n      tag_16\n      jump\t// in\n    tag_13:\n      stop\n        /* \"@openzeppelin/contracts@4.4.2/access/Ownable.sol\":1668:1769  function renounceOwnership() public virtual onlyOwner {... */\n    tag_5:\n      tag_17\n      tag_18\n      jump\t// in\n    tag_17:\n      stop\n        /* \"@openzeppelin/contracts@4.4.2/access/Ownable.sol\":1036:1121  function owner() public view virtual returns (address) {... */\n    tag_6:\n      tag_19\n      tag_20\n      jump\t// in\n    tag_19:\n      mload(0x40)\n      tag_21\n      swap2\n      swap1\n      tag_12\n      jump\t// in\n    tag_21:\n      mload(0x40)\n      dup1\n      swap2\n      sub\n      swap1\n      return\n        /* \"contracts/Founding Citizens NFT Sale.sol\":2244:2394  function preLoadURIs(uint[] memory ids, string[] memory uris) public onlyOwner {\r... */\n    tag_7:\n      tag_22\n      0x04\n      dup1\n      calldatasize\n      sub\n      dup2\n      add\n      swap1\n      tag_23\n      swap2\n      swap1\n      tag_24\n      jump\t// in\n    tag_23:\n      tag_25\n      jump\t// in\n    tag_22:\n      stop\n        /* \"@openzeppelin/contracts@4.4.2/access/Ownable.sol\":1918:2116  function transferOwnership(address newOwner) public virtual onlyOwner {... */\n    tag_8:\n      tag_26\n      0x04\n      dup1\n      calldatasize\n      sub\n      dup2\n      add\n      swap1\n      tag_27\n      swap2\n      swap1\n      tag_15\n      jump\t// in\n    tag_27:\n      tag_28\n      jump\t// in\n    tag_26:\n      stop\n        /* \"contracts/Founding Citizens NFT Sale.sol\":1938:1968  address public storageContract */\n    tag_10:\n      0x01\n      0x00\n      swap1\n      sload\n      swap1\n      0x0100\n      exp\n      swap1\n      div\n      0xffffffffffffffffffffffffffffffffffffffff\n      and\n      dup2\n      jump\t// out\n        /* \"contracts/Founding Citizens NFT Sale.sol\":1977:2104  function setStorageContractAddress(address storageAddress) public onlyOwner {\r... */\n    tag_16:\n        /* \"@openzeppelin/contracts@4.4.2/access/Ownable.sol\":1259:1271  _msgSender() */\n      tag_30\n        /* \"@openzeppelin/contracts@4.4.2/access/Ownable.sol\":1259:1269  _msgSender */\n      tag_31\n        /* \"@openzeppelin/contracts@4.4.2/access/Ownable.sol\":1259:1271  _msgSender() */\n      jump\t// in\n    tag_30:\n        /* \"@openzeppelin/contracts@4.4.2/access/Ownable.sol\":1248:1271  owner() == _msgSender() */\n      0xffffffffffffffffffffffffffffffffffffffff\n      and\n        /* \"@openzeppelin/contracts@4.4.2/access/Ownable.sol\":1248:1255  owner() */\n      tag_32\n        /* \"@openzeppelin/contracts@4.4.2/access/Ownable.sol\":1248:1253  owner */\n      tag_20\n        /* \"@openzeppelin/contracts@4.4.2/access/Ownable.sol\":1248:1255  owner() */\n      jump\t// in\n    tag_32:\n        /* \"@openzeppelin/contracts@4.4.2/access/Ownable.sol\":1248:1271  owner() == _msgSender() */\n      0xffffffffffffffffffffffffffffffffffffffff\n      and\n      eq\n        /* \"@openzeppelin/contracts@4.4.2/access/Ownable.sol\":1240:1308  require(owner() == _msgSender(), \"Ownable: caller is not the owner\") */\n      tag_33\n      jumpi\n      mload(0x40)\n      0x08c379a000000000000000000000000000000000000000000000000000000000\n      dup2\n      mstore\n      0x04\n      add\n      tag_34\n      swap1\n      tag_35\n      jump\t// in\n    tag_34:\n      mload(0x40)\n      dup1\n      swap2\n      sub\n      swap1\n      revert\n    tag_33:\n        /* \"contracts/Founding Citizens NFT Sale.sol\":2082:2096  storageAddress */\n      dup1\n        /* \"contracts/Founding Citizens NFT Sale.sol\":2064:2079  storageContract */\n      0x01\n      0x00\n        /* \"contracts/Founding Citizens NFT Sale.sol\":2064:2096  storageContract = storageAddress */\n      0x0100\n      exp\n      dup2\n      sload\n      dup2\n      0xffffffffffffffffffffffffffffffffffffffff\n      mul\n      not\n      and\n      swap1\n      dup4\n      0xffffffffffffffffffffffffffffffffffffffff\n      and\n      mul\n      or\n      swap1\n      sstore\n      pop\n        /* \"contracts/Founding Citizens NFT Sale.sol\":1977:2104  function setStorageContractAddress(address storageAddress) public onlyOwner {\r... */\n      pop\n      jump\t// out\n        /* \"@openzeppelin/contracts@4.4.2/access/Ownable.sol\":1668:1769  function renounceOwnership() public virtual onlyOwner {... */\n    tag_18:\n        /* \"@openzeppelin/contracts@4.4.2/access/Ownable.sol\":1259:1271  _msgSender() */\n      tag_38\n        /* \"@openzeppelin/contracts@4.4.2/access/Ownable.sol\":1259:1269  _msgSender */\n      tag_31\n        /* \"@openzeppelin/contracts@4.4.2/access/Ownable.sol\":1259:1271  _msgSender() */\n      jump\t// in\n    tag_38:\n        /* \"@openzeppelin/contracts@4.4.2/access/Ownable.sol\":1248:1271  owner() == _msgSender() */\n      0xffffffffffffffffffffffffffffffffffffffff\n      and\n        /* \"@openzeppelin/contracts@4.4.2/access/Ownable.sol\":1248:1255  owner() */\n      tag_39\n        /* \"@openzeppelin/contracts@4.4.2/access/Ownable.sol\":1248:1253  owner */\n      tag_20\n        /* \"@openzeppelin/contracts@4.4.2/access/Ownable.sol\":1248:1255  owner() */\n      jump\t// in\n    tag_39:\n        /* \"@openzeppelin/contracts@4.4.2/access/Ownable.sol\":1248:1271  owner() == _msgSender() */\n      0xffffffffffffffffffffffffffffffffffffffff\n      and\n      eq\n        /* \"@openzeppelin/contracts@4.4.2/access/Ownable.sol\":1240:1308  require(owner() == _msgSender(), \"Ownable: caller is not the owner\") */\n      tag_40\n      jumpi\n      mload(0x40)\n      0x08c379a000000000000000000000000000000000000000000000000000000000\n      dup2\n      mstore\n      0x04\n      add\n      tag_41\n      swap1\n      tag_35\n      jump\t// in\n    tag_41:\n      mload(0x40)\n      dup1\n      swap2\n      sub\n      swap1\n      revert\n    tag_40:\n        /* \"@openzeppelin/contracts@4.4.2/access/Ownable.sol\":1732:1762  _transferOwnership(address(0)) */\n      tag_43\n        /* \"@openzeppelin/contracts@4.4.2/access/Ownable.sol\":1759:1760  0 */\n      0x00\n        /* \"@openzeppelin/contracts@4.4.2/access/Ownable.sol\":1732:1750  _transferOwnership */\n      tag_44\n        /* \"@openzeppelin/contracts@4.4.2/access/Ownable.sol\":1732:1762  _transferOwnership(address(0)) */\n      jump\t// in\n    tag_43:\n        /* \"@openzeppelin/contracts@4.4.2/access/Ownable.sol\":1668:1769  function renounceOwnership() public virtual onlyOwner {... */\n      jump\t// out\n        /* \"@openzeppelin/contracts@4.4.2/access/Ownable.sol\":1036:1121  function owner() public view virtual returns (address) {... */\n    tag_20:\n        /* \"@openzeppelin/contracts@4.4.2/access/Ownable.sol\":1082:1089  address */\n      0x00\n        /* \"@openzeppelin/contracts@4.4.2/access/Ownable.sol\":1108:1114  _owner */\n      dup1\n      0x00\n      swap1\n      sload\n      swap1\n      0x0100\n      exp\n      swap1\n      div\n      0xffffffffffffffffffffffffffffffffffffffff\n      and\n        /* \"@openzeppelin/contracts@4.4.2/access/Ownable.sol\":1101:1114  return _owner */\n      swap1\n      pop\n        /* \"@openzeppelin/contracts@4.4.2/access/Ownable.sol\":1036:1121  function owner() public view virtual returns (address) {... */\n      swap1\n      jump\t// out\n        /* \"contracts/Founding Citizens NFT Sale.sol\":2244:2394  function preLoadURIs(uint[] memory ids, string[] memory uris) public onlyOwner {\r... */\n    tag_25:\n        /* \"@openzeppelin/contracts@4.4.2/access/Ownable.sol\":1259:1271  _msgSender() */\n      tag_47\n        /* \"@openzeppelin/contracts@4.4.2/access/Ownable.sol\":1259:1269  _msgSender */\n      tag_31\n        /* \"@openzeppelin/contracts@4.4.2/access/Ownable.sol\":1259:1271  _msgSender() */\n      jump\t// in\n    tag_47:\n        /* \"@openzeppelin/contracts@4.4.2/access/Ownable.sol\":1248:1271  owner() == _msgSender() */\n      0xffffffffffffffffffffffffffffffffffffffff\n      and\n        /* \"@openzeppelin/contracts@4.4.2/access/Ownable.sol\":1248:1255  owner() */\n      tag_48\n        /* \"@openzeppelin/contracts@4.4.2/access/Ownable.sol\":1248:1253  owner */\n      tag_20\n        /* \"@openzeppelin/contracts@4.4.2/access/Ownable.sol\":1248:1255  owner() */\n      jump\t// in\n    tag_48:\n        /* \"@openzeppelin/contracts@4.4.2/access/Ownable.sol\":1248:1271  owner() == _msgSender() */\n      0xffffffffffffffffffffffffffffffffffffffff\n      and\n      eq\n        /* \"@openzeppelin/contracts@4.4.2/access/Ownable.sol\":1240:1308  require(owner() == _msgSender(), \"Ownable: caller is not the owner\") */\n      tag_49\n      jumpi\n      mload(0x40)\n      0x08c379a000000000000000000000000000000000000000000000000000000000\n      dup2\n      mstore\n      0x04\n      add\n      tag_50\n      swap1\n      tag_35\n      jump\t// in\n    tag_50:\n      mload(0x40)\n      dup1\n      swap2\n      sub\n      swap1\n      revert\n    tag_49:\n        /* \"contracts/Founding Citizens NFT Sale.sol\":2347:2362  storageContract */\n      0x01\n      0x00\n      swap1\n      sload\n      swap1\n      0x0100\n      exp\n      swap1\n      div\n      0xffffffffffffffffffffffffffffffffffffffff\n      and\n        /* \"contracts/Founding Citizens NFT Sale.sol\":2334:2375  IMintStorage(storageContract).preLoadURIs */\n      0xffffffffffffffffffffffffffffffffffffffff\n      and\n      0xf121da92\n        /* \"contracts/Founding Citizens NFT Sale.sol\":2376:2379  ids */\n      dup4\n        /* \"contracts/Founding Citizens NFT Sale.sol\":2381:2385  uris */\n      dup4\n        /* \"contracts/Founding Citizens NFT Sale.sol\":2334:2386  IMintStorage(storageContract).preLoadURIs(ids, uris) */\n      mload(0x40)\n      dup4\n      0xffffffff\n      and\n      0xe0\n      shl\n      dup2\n      mstore\n      0x04\n      add\n      tag_52\n      swap3\n      swap2\n      swap1\n      tag_53\n      jump\t// in\n    tag_52:\n      0x00\n      mload(0x40)\n      dup1\n      dup4\n      sub\n      dup2\n      0x00\n      dup8\n      dup1\n      extcodesize\n      iszero\n      dup1\n      iszero\n      tag_54\n      jumpi\n      0x00\n      dup1\n      revert\n    tag_54:\n      pop\n      gas\n      call\n      iszero\n      dup1\n      iszero\n      tag_56\n      jumpi\n      returndatasize\n      0x00\n      dup1\n      returndatacopy\n      revert(0x00, returndatasize)\n    tag_56:\n      pop\n      pop\n      pop\n      pop\n        /* \"contracts/Founding Citizens NFT Sale.sol\":2244:2394  function preLoadURIs(uint[] memory ids, string[] memory uris) public onlyOwner {\r... */\n      pop\n      pop\n      jump\t// out\n        /* \"@openzeppelin/contracts@4.4.2/access/Ownable.sol\":1918:2116  function transferOwnership(address newOwner) public virtual onlyOwner {... */\n    tag_28:\n        /* \"@openzeppelin/contracts@4.4.2/access/Ownable.sol\":1259:1271  _msgSender() */\n      tag_58\n        /* \"@openzeppelin/contracts@4.4.2/access/Ownable.sol\":1259:1269  _msgSender */\n      tag_31\n        /* \"@openzeppelin/contracts@4.4.2/access/Ownable.sol\":1259:1271  _msgSender() */\n      jump\t// in\n    tag_58:\n        /* \"@openzeppelin/contracts@4.4.2/access/Ownable.sol\":1248:1271  owner() == _msgSender() */\n      0xffffffffffffffffffffffffffffffffffffffff\n      and\n        /* \"@openzeppelin/contracts@4.4.2/access/Ownable.sol\":1248:1255  owner() */\n      tag_59\n        /* \"@openzeppelin/contracts@4.4.2/access/Ownable.sol\":1248:1253  owner */\n      tag_20\n        /* \"@openzeppelin/contracts@4.4.2/access/Ownable.sol\":1248:1255  owner() */\n      jump\t// in\n    tag_59:\n        /* \"@openzeppelin/contracts@4.4.2/access/Ownable.sol\":1248:1271  owner() == _msgSender() */\n      0xffffffffffffffffffffffffffffffffffffffff\n      and\n      eq\n        /* \"@openzeppelin/contracts@4.4.2/access/Ownable.sol\":1240:1308  require(owner() == _msgSender(), \"Ownable: caller is not the owner\") */\n      tag_60\n      jumpi\n      mload(0x40)\n      0x08c379a000000000000000000000000000000000000000000000000000000000\n      dup2\n      mstore\n      0x04\n      add\n      tag_61\n      swap1\n      tag_35\n      jump\t// in\n    tag_61:\n      mload(0x40)\n      dup1\n      swap2\n      sub\n      swap1\n      revert\n    tag_60:\n        /* \"@openzeppelin/contracts@4.4.2/access/Ownable.sol\":2026:2027  0 */\n      0x00\n        /* \"@openzeppelin/contracts@4.4.2/access/Ownable.sol\":2006:2028  newOwner != address(0) */\n      0xffffffffffffffffffffffffffffffffffffffff\n      and\n        /* \"@openzeppelin/contracts@4.4.2/access/Ownable.sol\":2006:2014  newOwner */\n      dup2\n        /* \"@openzeppelin/contracts@4.4.2/access/Ownable.sol\":2006:2028  newOwner != address(0) */\n      0xffffffffffffffffffffffffffffffffffffffff\n      and\n      eq\n      iszero\n        /* \"@openzeppelin/contracts@4.4.2/access/Ownable.sol\":1998:2071  require(newOwner != address(0), \"Ownable: new owner is the zero address\") */\n      tag_63\n      jumpi\n      mload(0x40)\n      0x08c379a000000000000000000000000000000000000000000000000000000000\n      dup2\n      mstore\n      0x04\n      add\n      tag_64\n      swap1\n      tag_65\n      jump\t// in\n    tag_64:\n      mload(0x40)\n      dup1\n      swap2\n      sub\n      swap1\n      revert\n    tag_63:\n        /* \"@openzeppelin/contracts@4.4.2/access/Ownable.sol\":2081:2109  _transferOwnership(newOwner) */\n      tag_66\n        /* \"@openzeppelin/contracts@4.4.2/access/Ownable.sol\":2100:2108  newOwner */\n      dup2\n        /* \"@openzeppelin/contracts@4.4.2/access/Ownable.sol\":2081:2099  _transferOwnership */\n      tag_44\n        /* \"@openzeppelin/contracts@4.4.2/access/Ownable.sol\":2081:2109  _transferOwnership(newOwner) */\n      jump\t// in\n    tag_66:\n        /* \"@openzeppelin/contracts@4.4.2/access/Ownable.sol\":1918:2116  function transferOwnership(address newOwner) public virtual onlyOwner {... */\n      pop\n      jump\t// out\n        /* \"@openzeppelin/contracts@4.4.2/utils/Context.sol\":640:736  function _msgSender() internal view virtual returns (address) {... */\n    tag_31:\n        /* \"@openzeppelin/contracts@4.4.2/utils/Context.sol\":693:700  address */\n      0x00\n        /* \"@openzeppelin/contracts@4.4.2/utils/Context.sol\":719:729  msg.sender */\n      caller\n        /* \"@openzeppelin/contracts@4.4.2/utils/Context.sol\":712:729  return msg.sender */\n      swap1\n      pop\n        /* \"@openzeppelin/contracts@4.4.2/utils/Context.sol\":640:736  function _msgSender() internal view virtual returns (address) {... */\n      swap1\n      jump\t// out\n        /* \"@openzeppelin/contracts@4.4.2/access/Ownable.sol\":2270:2457  function _transferOwnership(address newOwner) internal virtual {... */\n    tag_44:\n        /* \"@openzeppelin/contracts@4.4.2/access/Ownable.sol\":2343:2359  address oldOwner */\n      0x00\n        /* \"@openzeppelin/contracts@4.4.2/access/Ownable.sol\":2362:2368  _owner */\n      dup1\n      0x00\n      swap1\n      sload\n      swap1\n      0x0100\n      exp\n      swap1\n      div\n      0xffffffffffffffffffffffffffffffffffffffff\n      and\n        /* \"@openzeppelin/contracts@4.4.2/access/Ownable.sol\":2343:2368  address oldOwner = _owner */\n      swap1\n      pop\n        /* \"@openzeppelin/contracts@4.4.2/access/Ownable.sol\":2387:2395  newOwner */\n      dup2\n        /* \"@openzeppelin/contracts@4.4.2/access/Ownable.sol\":2378:2384  _owner */\n      0x00\n      dup1\n        /* \"@openzeppelin/contracts@4.4.2/access/Ownable.sol\":2378:2395  _owner = newOwner */\n      0x0100\n      exp\n      dup2\n      sload\n      dup2\n      0xffffffffffffffffffffffffffffffffffffffff\n      mul\n      not\n      and\n      swap1\n      dup4\n      0xffffffffffffffffffffffffffffffffffffffff\n      and\n      mul\n      or\n      swap1\n      sstore\n      pop\n        /* \"@openzeppelin/contracts@4.4.2/access/Ownable.sol\":2441:2449  newOwner */\n      dup2\n        /* \"@openzeppelin/contracts@4.4.2/access/Ownable.sol\":2410:2450  OwnershipTransferred(oldOwner, newOwner) */\n      0xffffffffffffffffffffffffffffffffffffffff\n      and\n        /* \"@openzeppelin/contracts@4.4.2/access/Ownable.sol\":2431:2439  oldOwner */\n      dup2\n        /* \"@openzeppelin/contracts@4.4.2/access/Ownable.sol\":2410:2450  OwnershipTransferred(oldOwner, newOwner) */\n      0xffffffffffffffffffffffffffffffffffffffff\n      and\n      0x8be0079c531659141344cd1fd0a4f28419497f9722a3daafe3b4186f6b6457e0\n      mload(0x40)\n      mload(0x40)\n      dup1\n      swap2\n      sub\n      swap1\n      log3\n        /* \"@openzeppelin/contracts@4.4.2/access/Ownable.sol\":2270:2457  function _transferOwnership(address newOwner) internal virtual {... */\n      pop\n      pop\n      jump\t// out\n        /* \"#utility.yul\":23:639   */\n    tag_70:\n      0x00\n        /* \"#utility.yul\":154:245   */\n      tag_72\n        /* \"#utility.yul\":170:244   */\n      tag_73\n        /* \"#utility.yul\":237:243   */\n      dup5\n        /* \"#utility.yul\":170:244   */\n      tag_74\n      jump\t// in\n    tag_73:\n        /* \"#utility.yul\":154:245   */\n      tag_75\n      jump\t// in\n    tag_72:\n        /* \"#utility.yul\":145:245   */\n      swap1\n      pop\n        /* \"#utility.yul\":265:270   */\n      dup1\n        /* \"#utility.yul\":293:299   */\n      dup4\n        /* \"#utility.yul\":286:291   */\n      dup3\n        /* \"#utility.yul\":279:300   */\n      mstore\n        /* \"#utility.yul\":319:323   */\n      0x20\n        /* \"#utility.yul\":312:317   */\n      dup3\n        /* \"#utility.yul\":308:324   */\n      add\n        /* \"#utility.yul\":301:324   */\n      swap1\n      pop\n        /* \"#utility.yul\":344:350   */\n      dup3\n        /* \"#utility.yul\":375:376   */\n      0x00\n        /* \"#utility.yul\":360:633   */\n    tag_76:\n        /* \"#utility.yul\":385:391   */\n      dup6\n        /* \"#utility.yul\":382:383   */\n      dup2\n        /* \"#utility.yul\":379:392   */\n      lt\n        /* \"#utility.yul\":360:633   */\n      iszero\n      tag_78\n      jumpi\n        /* \"#utility.yul\":477:480   */\n      dup2\n        /* \"#utility.yul\":464:481   */\n      calldataload\n        /* \"#utility.yul\":456:462   */\n      dup6\n        /* \"#utility.yul\":452:482   */\n      add\n        /* \"#utility.yul\":507:554   */\n      tag_79\n        /* \"#utility.yul\":550:553   */\n      dup9\n        /* \"#utility.yul\":538:548   */\n      dup3\n        /* \"#utility.yul\":507:554   */\n      tag_80\n      jump\t// in\n    tag_79:\n        /* \"#utility.yul\":502:505   */\n      dup5\n        /* \"#utility.yul\":495:555   */\n      mstore\n        /* \"#utility.yul\":584:588   */\n      0x20\n        /* \"#utility.yul\":579:582   */\n      dup5\n        /* \"#utility.yul\":575:589   */\n      add\n        /* \"#utility.yul\":568:589   */\n      swap4\n      pop\n        /* \"#utility.yul\":618:622   */\n      0x20\n        /* \"#utility.yul\":613:616   */\n      dup4\n        /* \"#utility.yul\":609:623   */\n      add\n        /* \"#utility.yul\":602:623   */\n      swap3\n      pop\n        /* \"#utility.yul\":420:633   */\n      pop\n        /* \"#utility.yul\":407:408   */\n      0x01\n        /* \"#utility.yul\":404:405   */\n      dup2\n        /* \"#utility.yul\":400:409   */\n      add\n        /* \"#utility.yul\":395:409   */\n      swap1\n      pop\n        /* \"#utility.yul\":360:633   */\n      jump(tag_76)\n    tag_78:\n        /* \"#utility.yul\":364:378   */\n      pop\n        /* \"#utility.yul\":135:639   */\n      pop\n      pop\n      swap4\n      swap3\n      pop\n      pop\n      pop\n      jump\t// out\n        /* \"#utility.yul\":662:1285   */\n    tag_81:\n      0x00\n        /* \"#utility.yul\":783:864   */\n      tag_83\n        /* \"#utility.yul\":799:863   */\n      tag_84\n        /* \"#utility.yul\":856:862   */\n      dup5\n        /* \"#utility.yul\":799:863   */\n      tag_85\n      jump\t// in\n    tag_84:\n        /* \"#utility.yul\":783:864   */\n      tag_75\n      jump\t// in\n    tag_83:\n        /* \"#utility.yul\":774:864   */\n      swap1\n      pop\n        /* \"#utility.yul\":884:889   */\n      dup1\n        /* \"#utility.yul\":912:918   */\n      dup4\n        /* \"#utility.yul\":905:910   */\n      dup3\n        /* \"#utility.yul\":898:919   */\n      mstore\n        /* \"#utility.yul\":938:942   */\n      0x20\n        /* \"#utility.yul\":931:936   */\n      dup3\n        /* \"#utility.yul\":927:943   */\n      add\n        /* \"#utility.yul\":920:943   */\n      swap1\n      pop\n        /* \"#utility.yul\":963:969   */\n      dup3\n        /* \"#utility.yul\":1013:1016   */\n      dup6\n        /* \"#utility.yul\":1005:1009   */\n      0x20\n        /* \"#utility.yul\":997:1003   */\n      dup7\n        /* \"#utility.yul\":993:1010   */\n      mul\n        /* \"#utility.yul\":988:991   */\n      dup3\n        /* \"#utility.yul\":984:1011   */\n      add\n        /* \"#utility.yul\":981:1017   */\n      gt\n        /* \"#utility.yul\":978:980   */\n      iszero\n      tag_86\n      jumpi\n        /* \"#utility.yul\":1030:1031   */\n      0x00\n        /* \"#utility.yul\":1027:1028   */\n      dup1\n        /* \"#utility.yul\":1020:1032   */\n      revert\n        /* \"#utility.yul\":978:980   */\n    tag_86:\n        /* \"#utility.yul\":1058:1059   */\n      0x00\n        /* \"#utility.yul\":1043:1279   */\n    tag_87:\n        /* \"#utility.yul\":1068:1074   */\n      dup6\n        /* \"#utility.yul\":1065:1066   */\n      dup2\n        /* \"#utility.yul\":1062:1075   */\n      lt\n        /* \"#utility.yul\":1043:1279   */\n      iszero\n      tag_89\n      jumpi\n        /* \"#utility.yul\":1135:1138   */\n      dup2\n        /* \"#utility.yul\":1163:1200   */\n      tag_90\n        /* \"#utility.yul\":1196:1199   */\n      dup9\n        /* \"#utility.yul\":1184:1194   */\n      dup3\n        /* \"#utility.yul\":1163:1200   */\n      tag_91\n      jump\t// in\n    tag_90:\n        /* \"#utility.yul\":1158:1161   */\n      dup5\n        /* \"#utility.yul\":1151:1201   */\n      mstore\n        /* \"#utility.yul\":1230:1234   */\n      0x20\n        /* \"#utility.yul\":1225:1228   */\n      dup5\n        /* \"#utility.yul\":1221:1235   */\n      add\n        /* \"#utility.yul\":1214:1235   */\n      swap4\n      pop\n        /* \"#utility.yul\":1264:1268   */\n      0x20\n        /* \"#utility.yul\":1259:1262   */\n      dup4\n        /* \"#utility.yul\":1255:1269   */\n      add\n        /* \"#utility.yul\":1248:1269   */\n      swap3\n      pop\n        /* \"#utility.yul\":1103:1279   */\n      pop\n        /* \"#utility.yul\":1090:1091   */\n      0x01\n        /* \"#utility.yul\":1087:1088   */\n      dup2\n        /* \"#utility.yul\":1083:1092   */\n      add\n        /* \"#utility.yul\":1078:1092   */\n      swap1\n      pop\n        /* \"#utility.yul\":1043:1279   */\n      jump(tag_87)\n    tag_89:\n        /* \"#utility.yul\":1047:1061   */\n      pop\n        /* \"#utility.yul\":764:1285   */\n      pop\n      pop\n      swap4\n      swap3\n      pop\n      pop\n      pop\n      jump\t// out\n        /* \"#utility.yul\":1291:1636   */\n    tag_92:\n      0x00\n        /* \"#utility.yul\":1394:1460   */\n      tag_94\n        /* \"#utility.yul\":1410:1459   */\n      tag_95\n        /* \"#utility.yul\":1452:1458   */\n      dup5\n        /* \"#utility.yul\":1410:1459   */\n      tag_96\n      jump\t// in\n    tag_95:\n        /* \"#utility.yul\":1394:1460   */\n      tag_75\n      jump\t// in\n    tag_94:\n        /* \"#utility.yul\":1385:1460   */\n      swap1\n      pop\n        /* \"#utility.yul\":1483:1489   */\n      dup3\n        /* \"#utility.yul\":1476:1481   */\n      dup2\n        /* \"#utility.yul\":1469:1490   */\n      mstore\n        /* \"#utility.yul\":1521:1525   */\n      0x20\n        /* \"#utility.yul\":1514:1519   */\n      dup2\n        /* \"#utility.yul\":1510:1526   */\n      add\n        /* \"#utility.yul\":1559:1562   */\n      dup5\n        /* \"#utility.yul\":1550:1556   */\n      dup5\n        /* \"#utility.yul\":1545:1548   */\n      dup5\n        /* \"#utility.yul\":1541:1557   */\n      add\n        /* \"#utility.yul\":1538:1563   */\n      gt\n        /* \"#utility.yul\":1535:1537   */\n      iszero\n      tag_97\n      jumpi\n        /* \"#utility.yul\":1576:1577   */\n      0x00\n        /* \"#utility.yul\":1573:1574   */\n      dup1\n        /* \"#utility.yul\":1566:1578   */\n      revert\n        /* \"#utility.yul\":1535:1537   */\n    tag_97:\n        /* \"#utility.yul\":1589:1630   */\n      tag_98\n        /* \"#utility.yul\":1623:1629   */\n      dup5\n        /* \"#utility.yul\":1618:1621   */\n      dup3\n        /* \"#utility.yul\":1613:1616   */\n      dup6\n        /* \"#utility.yul\":1589:1630   */\n      tag_99\n      jump\t// in\n    tag_98:\n        /* \"#utility.yul\":1375:1636   */\n      pop\n      swap4\n      swap3\n      pop\n      pop\n      pop\n      jump\t// out\n        /* \"#utility.yul\":1642:1781   */\n    tag_100:\n      0x00\n        /* \"#utility.yul\":1726:1732   */\n      dup2\n        /* \"#utility.yul\":1713:1733   */\n      calldataload\n        /* \"#utility.yul\":1704:1733   */\n      swap1\n      pop\n        /* \"#utility.yul\":1742:1775   */\n      tag_102\n        /* \"#utility.yul\":1769:1774   */\n      dup2\n        /* \"#utility.yul\":1742:1775   */\n      tag_103\n      jump\t// in\n    tag_102:\n        /* \"#utility.yul\":1694:1781   */\n      swap3\n      swap2\n      pop\n      pop\n      jump\t// out\n        /* \"#utility.yul\":1803:2126   */\n    tag_104:\n      0x00\n        /* \"#utility.yul\":1933:1936   */\n      dup3\n        /* \"#utility.yul\":1926:1930   */\n      0x1f\n        /* \"#utility.yul\":1918:1924   */\n      dup4\n        /* \"#utility.yul\":1914:1931   */\n      add\n        /* \"#utility.yul\":1910:1937   */\n      slt\n        /* \"#utility.yul\":1900:1902   */\n      tag_106\n      jumpi\n        /* \"#utility.yul\":1951:1952   */\n      0x00\n        /* \"#utility.yul\":1948:1949   */\n      dup1\n        /* \"#utility.yul\":1941:1953   */\n      revert\n        /* \"#utility.yul\":1900:1902   */\n    tag_106:\n        /* \"#utility.yul\":1991:1997   */\n      dup2\n        /* \"#utility.yul\":1978:1998   */\n      calldataload\n        /* \"#utility.yul\":2016:2120   */\n      tag_107\n        /* \"#utility.yul\":2116:2119   */\n      dup5\n        /* \"#utility.yul\":2108:2114   */\n      dup3\n        /* \"#utility.yul\":2101:2105   */\n      0x20\n        /* \"#utility.yul\":2093:2099   */\n      dup7\n        /* \"#utility.yul\":2089:2106   */\n      add\n        /* \"#utility.yul\":2016:2120   */\n      tag_70\n      jump\t// in\n    tag_107:\n        /* \"#utility.yul\":2007:2120   */\n      swap2\n      pop\n        /* \"#utility.yul\":1890:2126   */\n      pop\n      swap3\n      swap2\n      pop\n      pop\n      jump\t// out\n        /* \"#utility.yul\":2149:2452   */\n    tag_108:\n      0x00\n        /* \"#utility.yul\":2269:2272   */\n      dup3\n        /* \"#utility.yul\":2262:2266   */\n      0x1f\n        /* \"#utility.yul\":2254:2260   */\n      dup4\n        /* \"#utility.yul\":2250:2267   */\n      add\n        /* \"#utility.yul\":2246:2273   */\n      slt\n        /* \"#utility.yul\":2236:2238   */\n      tag_110\n      jumpi\n        /* \"#utility.yul\":2287:2288   */\n      0x00\n        /* \"#utility.yul\":2284:2285   */\n      dup1\n        /* \"#utility.yul\":2277:2289   */\n      revert\n        /* \"#utility.yul\":2236:2238   */\n    tag_110:\n        /* \"#utility.yul\":2327:2333   */\n      dup2\n        /* \"#utility.yul\":2314:2334   */\n      calldataload\n        /* \"#utility.yul\":2352:2446   */\n      tag_111\n        /* \"#utility.yul\":2442:2445   */\n      dup5\n        /* \"#utility.yul\":2434:2440   */\n      dup3\n        /* \"#utility.yul\":2427:2431   */\n      0x20\n        /* \"#utility.yul\":2419:2425   */\n      dup7\n        /* \"#utility.yul\":2415:2432   */\n      add\n        /* \"#utility.yul\":2352:2446   */\n      tag_81\n      jump\t// in\n    tag_111:\n        /* \"#utility.yul\":2343:2446   */\n      swap2\n      pop\n        /* \"#utility.yul\":2226:2452   */\n      pop\n      swap3\n      swap2\n      pop\n      pop\n      jump\t// out\n        /* \"#utility.yul\":2472:2745   */\n    tag_80:\n      0x00\n        /* \"#utility.yul\":2577:2580   */\n      dup3\n        /* \"#utility.yul\":2570:2574   */\n      0x1f\n        /* \"#utility.yul\":2562:2568   */\n      dup4\n        /* \"#utility.yul\":2558:2575   */\n      add\n        /* \"#utility.yul\":2554:2581   */\n      slt\n        /* \"#utility.yul\":2544:2546   */\n      tag_113\n      jumpi\n        /* \"#utility.yul\":2595:2596   */\n      0x00\n        /* \"#utility.yul\":2592:2593   */\n      dup1\n        /* \"#utility.yul\":2585:2597   */\n      revert\n        /* \"#utility.yul\":2544:2546   */\n    tag_113:\n        /* \"#utility.yul\":2635:2641   */\n      dup2\n        /* \"#utility.yul\":2622:2642   */\n      calldataload\n        /* \"#utility.yul\":2660:2739   */\n      tag_114\n        /* \"#utility.yul\":2735:2738   */\n      dup5\n        /* \"#utility.yul\":2727:2733   */\n      dup3\n        /* \"#utility.yul\":2720:2724   */\n      0x20\n        /* \"#utility.yul\":2712:2718   */\n      dup7\n        /* \"#utility.yul\":2708:2725   */\n      add\n        /* \"#utility.yul\":2660:2739   */\n      tag_92\n      jump\t// in\n    tag_114:\n        /* \"#utility.yul\":2651:2739   */\n      swap2\n      pop\n        /* \"#utility.yul\":2534:2745   */\n      pop\n      swap3\n      swap2\n      pop\n      pop\n      jump\t// out\n        /* \"#utility.yul\":2751:2890   */\n    tag_91:\n      0x00\n        /* \"#utility.yul\":2835:2841   */\n      dup2\n        /* \"#utility.yul\":2822:2842   */\n      calldataload\n        /* \"#utility.yul\":2813:2842   */\n      swap1\n      pop\n        /* \"#utility.yul\":2851:2884   */\n      tag_116\n        /* \"#utility.yul\":2878:2883   */\n      dup2\n        /* \"#utility.yul\":2851:2884   */\n      tag_117\n      jump\t// in\n    tag_116:\n        /* \"#utility.yul\":2803:2890   */\n      swap3\n      swap2\n      pop\n      pop\n      jump\t// out\n        /* \"#utility.yul\":2896:3158   */\n    tag_15:\n      0x00\n        /* \"#utility.yul\":3004:3006   */\n      0x20\n        /* \"#utility.yul\":2992:3001   */\n      dup3\n        /* \"#utility.yul\":2983:2990   */\n      dup5\n        /* \"#utility.yul\":2979:3002   */\n      sub\n        /* \"#utility.yul\":2975:3007   */\n      slt\n        /* \"#utility.yul\":2972:2974   */\n      iszero\n      tag_119\n      jumpi\n        /* \"#utility.yul\":3020:3021   */\n      0x00\n        /* \"#utility.yul\":3017:3018   */\n      dup1\n        /* \"#utility.yul\":3010:3022   */\n      revert\n        /* \"#utility.yul\":2972:2974   */\n    tag_119:\n        /* \"#utility.yul\":3063:3064   */\n      0x00\n        /* \"#utility.yul\":3088:3141   */\n      tag_120\n        /* \"#utility.yul\":3133:3140   */\n      dup5\n        /* \"#utility.yul\":3124:3130   */\n      dup3\n        /* \"#utility.yul\":3113:3122   */\n      dup6\n        /* \"#utility.yul\":3109:3131   */\n      add\n        /* \"#utility.yul\":3088:3141   */\n      tag_100\n      jump\t// in\n    tag_120:\n        /* \"#utility.yul\":3078:3141   */\n      swap2\n      pop\n        /* \"#utility.yul\":3034:3151   */\n      pop\n        /* \"#utility.yul\":2962:3158   */\n      swap3\n      swap2\n      pop\n      pop\n      jump\t// out\n        /* \"#utility.yul\":3164:3877   */\n    tag_24:\n      0x00\n      dup1\n        /* \"#utility.yul\":3349:3351   */\n      0x40\n        /* \"#utility.yul\":3337:3346   */\n      dup4\n        /* \"#utility.yul\":3328:3335   */\n      dup6\n        /* \"#utility.yul\":3324:3347   */\n      sub\n        /* \"#utility.yul\":3320:3352   */\n      slt\n        /* \"#utility.yul\":3317:3319   */\n      iszero\n      tag_122\n      jumpi\n        /* \"#utility.yul\":3365:3366   */\n      0x00\n        /* \"#utility.yul\":3362:3363   */\n      dup1\n        /* \"#utility.yul\":3355:3367   */\n      revert\n        /* \"#utility.yul\":3317:3319   */\n    tag_122:\n        /* \"#utility.yul\":3436:3437   */\n      0x00\n        /* \"#utility.yul\":3425:3434   */\n      dup4\n        /* \"#utility.yul\":3421:3438   */\n      add\n        /* \"#utility.yul\":3408:3439   */\n      calldataload\n        /* \"#utility.yul\":3466:3484   */\n      0xffffffffffffffff\n        /* \"#utility.yul\":3458:3464   */\n      dup2\n        /* \"#utility.yul\":3455:3485   */\n      gt\n        /* \"#utility.yul\":3452:3454   */\n      iszero\n      tag_123\n      jumpi\n        /* \"#utility.yul\":3498:3499   */\n      0x00\n        /* \"#utility.yul\":3495:3496   */\n      dup1\n        /* \"#utility.yul\":3488:3500   */\n      revert\n        /* \"#utility.yul\":3452:3454   */\n    tag_123:\n        /* \"#utility.yul\":3526:3604   */\n      tag_124\n        /* \"#utility.yul\":3596:3603   */\n      dup6\n        /* \"#utility.yul\":3587:3593   */\n      dup3\n        /* \"#utility.yul\":3576:3585   */\n      dup7\n        /* \"#utility.yul\":3572:3594   */\n      add\n        /* \"#utility.yul\":3526:3604   */\n      tag_108\n      jump\t// in\n    tag_124:\n        /* \"#utility.yul\":3516:3604   */\n      swap3\n      pop\n        /* \"#utility.yul\":3379:3614   */\n      pop\n        /* \"#utility.yul\":3681:3683   */\n      0x20\n        /* \"#utility.yul\":3670:3679   */\n      dup4\n        /* \"#utility.yul\":3666:3684   */\n      add\n        /* \"#utility.yul\":3653:3685   */\n      calldataload\n        /* \"#utility.yul\":3712:3730   */\n      0xffffffffffffffff\n        /* \"#utility.yul\":3704:3710   */\n      dup2\n        /* \"#utility.yul\":3701:3731   */\n      gt\n        /* \"#utility.yul\":3698:3700   */\n      iszero\n      tag_125\n      jumpi\n        /* \"#utility.yul\":3744:3745   */\n      0x00\n        /* \"#utility.yul\":3741:3742   */\n      dup1\n        /* \"#utility.yul\":3734:3746   */\n      revert\n        /* \"#utility.yul\":3698:3700   */\n    tag_125:\n        /* \"#utility.yul\":3772:3860   */\n      tag_126\n        /* \"#utility.yul\":3852:3859   */\n      dup6\n        /* \"#utility.yul\":3843:3849   */\n      dup3\n        /* \"#utility.yul\":3832:3841   */\n      dup7\n        /* \"#utility.yul\":3828:3850   */\n      add\n        /* \"#utility.yul\":3772:3860   */\n      tag_104\n      jump\t// in\n    tag_126:\n        /* \"#utility.yul\":3762:3860   */\n      swap2\n      pop\n        /* \"#utility.yul\":3624:3870   */\n      pop\n        /* \"#utility.yul\":3307:3877   */\n      swap3\n      pop\n      swap3\n      swap1\n      pop\n      jump\t// out\n        /* \"#utility.yul\":3883:4079   */\n    tag_127:\n      0x00\n        /* \"#utility.yul\":4007:4073   */\n      tag_129\n        /* \"#utility.yul\":4069:4072   */\n      dup4\n        /* \"#utility.yul\":4061:4067   */\n      dup4\n        /* \"#utility.yul\":4007:4073   */\n      tag_130\n      jump\t// in\n    tag_129:\n        /* \"#utility.yul\":3993:4073   */\n      swap1\n      pop\n        /* \"#utility.yul\":3983:4079   */\n      swap3\n      swap2\n      pop\n      pop\n      jump\t// out\n        /* \"#utility.yul\":4085:4264   */\n    tag_131:\n      0x00\n        /* \"#utility.yul\":4175:4221   */\n      tag_133\n        /* \"#utility.yul\":4217:4220   */\n      dup4\n        /* \"#utility.yul\":4209:4215   */\n      dup4\n        /* \"#utility.yul\":4175:4221   */\n      tag_134\n      jump\t// in\n    tag_133:\n        /* \"#utility.yul\":4253:4257   */\n      0x20\n        /* \"#utility.yul\":4248:4251   */\n      dup4\n        /* \"#utility.yul\":4244:4258   */\n      add\n        /* \"#utility.yul\":4230:4258   */\n      swap1\n      pop\n        /* \"#utility.yul\":4165:4264   */\n      swap3\n      swap2\n      pop\n      pop\n      jump\t// out\n        /* \"#utility.yul\":4270:4388   */\n    tag_135:\n        /* \"#utility.yul\":4357:4381   */\n      tag_137\n        /* \"#utility.yul\":4375:4380   */\n      dup2\n        /* \"#utility.yul\":4357:4381   */\n      tag_138\n      jump\t// in\n    tag_137:\n        /* \"#utility.yul\":4352:4355   */\n      dup3\n        /* \"#utility.yul\":4345:4382   */\n      mstore\n        /* \"#utility.yul\":4335:4388   */\n      pop\n      pop\n      jump\t// out\n        /* \"#utility.yul\":4422:5413   */\n    tag_139:\n      0x00\n        /* \"#utility.yul\":4590:4654   */\n      tag_141\n        /* \"#utility.yul\":4648:4653   */\n      dup3\n        /* \"#utility.yul\":4590:4654   */\n      tag_142\n      jump\t// in\n    tag_141:\n        /* \"#utility.yul\":4670:4766   */\n      tag_143\n        /* \"#utility.yul\":4759:4765   */\n      dup2\n        /* \"#utility.yul\":4754:4757   */\n      dup6\n        /* \"#utility.yul\":4670:4766   */\n      tag_144\n      jump\t// in\n    tag_143:\n        /* \"#utility.yul\":4663:4766   */\n      swap4\n      pop\n        /* \"#utility.yul\":4792:4795   */\n      dup4\n        /* \"#utility.yul\":4837:4841   */\n      0x20\n        /* \"#utility.yul\":4829:4835   */\n      dup3\n        /* \"#utility.yul\":4825:4842   */\n      mul\n        /* \"#utility.yul\":4820:4823   */\n      dup6\n        /* \"#utility.yul\":4816:4843   */\n      add\n        /* \"#utility.yul\":4867:4933   */\n      tag_145\n        /* \"#utility.yul\":4927:4932   */\n      dup6\n        /* \"#utility.yul\":4867:4933   */\n      tag_146\n      jump\t// in\n    tag_145:\n        /* \"#utility.yul\":4956:4963   */\n      dup1\n        /* \"#utility.yul\":4987:4988   */\n      0x00\n        /* \"#utility.yul\":4972:5368   */\n    tag_147:\n        /* \"#utility.yul\":4997:5003   */\n      dup6\n        /* \"#utility.yul\":4994:4995   */\n      dup2\n        /* \"#utility.yul\":4991:5004   */\n      lt\n        /* \"#utility.yul\":4972:5368   */\n      iszero\n      tag_149\n      jumpi\n        /* \"#utility.yul\":5068:5077   */\n      dup5\n        /* \"#utility.yul\":5062:5066   */\n      dup5\n        /* \"#utility.yul\":5058:5078   */\n      sub\n        /* \"#utility.yul\":5053:5056   */\n      dup10\n        /* \"#utility.yul\":5046:5079   */\n      mstore\n        /* \"#utility.yul\":5119:5125   */\n      dup2\n        /* \"#utility.yul\":5113:5126   */\n      mload\n        /* \"#utility.yul\":5147:5231   */\n      tag_150\n        /* \"#utility.yul\":5226:5230   */\n      dup6\n        /* \"#utility.yul\":5211:5224   */\n      dup3\n        /* \"#utility.yul\":5147:5231   */\n      tag_127\n      jump\t// in\n    tag_150:\n        /* \"#utility.yul\":5139:5231   */\n      swap5\n      pop\n        /* \"#utility.yul\":5254:5324   */\n      tag_151\n        /* \"#utility.yul\":5317:5323   */\n      dup4\n        /* \"#utility.yul\":5254:5324   */\n      tag_152\n      jump\t// in\n    tag_151:\n        /* \"#utility.yul\":5244:5324   */\n      swap3\n      pop\n        /* \"#utility.yul\":5353:5357   */\n      0x20\n        /* \"#utility.yul\":5348:5351   */\n      dup11\n        /* \"#utility.yul\":5344:5358   */\n      add\n        /* \"#utility.yul\":5337:5358   */\n      swap10\n      pop\n        /* \"#utility.yul\":5032:5368   */\n      pop\n        /* \"#utility.yul\":5019:5020   */\n      0x01\n        /* \"#utility.yul\":5016:5017   */\n      dup2\n        /* \"#utility.yul\":5012:5021   */\n      add\n        /* \"#utility.yul\":5007:5021   */\n      swap1\n      pop\n        /* \"#utility.yul\":4972:5368   */\n      jump(tag_147)\n    tag_149:\n        /* \"#utility.yul\":4976:4990   */\n      pop\n        /* \"#utility.yul\":5384:5388   */\n      dup3\n        /* \"#utility.yul\":5377:5388   */\n      swap8\n      pop\n        /* \"#utility.yul\":5404:5407   */\n      dup8\n        /* \"#utility.yul\":5397:5407   */\n      swap6\n      pop\n        /* \"#utility.yul\":4566:5413   */\n      pop\n      pop\n      pop\n      pop\n      pop\n      swap3\n      swap2\n      pop\n      pop\n      jump\t// out\n        /* \"#utility.yul\":5449:6181   */\n    tag_153:\n      0x00\n        /* \"#utility.yul\":5597:5651   */\n      tag_155\n        /* \"#utility.yul\":5645:5650   */\n      dup3\n        /* \"#utility.yul\":5597:5651   */\n      tag_156\n      jump\t// in\n    tag_155:\n        /* \"#utility.yul\":5667:5753   */\n      tag_157\n        /* \"#utility.yul\":5746:5752   */\n      dup2\n        /* \"#utility.yul\":5741:5744   */\n      dup6\n        /* \"#utility.yul\":5667:5753   */\n      tag_158\n      jump\t// in\n    tag_157:\n        /* \"#utility.yul\":5660:5753   */\n      swap4\n      pop\n        /* \"#utility.yul\":5777:5833   */\n      tag_159\n        /* \"#utility.yul\":5827:5832   */\n      dup4\n        /* \"#utility.yul\":5777:5833   */\n      tag_160\n      jump\t// in\n    tag_159:\n        /* \"#utility.yul\":5856:5863   */\n      dup1\n        /* \"#utility.yul\":5887:5888   */\n      0x00\n        /* \"#utility.yul\":5872:6156   */\n    tag_161:\n        /* \"#utility.yul\":5897:5903   */\n      dup4\n        /* \"#utility.yul\":5894:5895   */\n      dup2\n        /* \"#utility.yul\":5891:5904   */\n      lt\n        /* \"#utility.yul\":5872:6156   */\n      iszero\n      tag_163\n      jumpi\n        /* \"#utility.yul\":5973:5979   */\n      dup2\n        /* \"#utility.yul\":5967:5980   */\n      mload\n        /* \"#utility.yul\":6000:6063   */\n      tag_164\n        /* \"#utility.yul\":6059:6062   */\n      dup9\n        /* \"#utility.yul\":6044:6057   */\n      dup3\n        /* \"#utility.yul\":6000:6063   */\n      tag_131\n      jump\t// in\n    tag_164:\n        /* \"#utility.yul\":5993:6063   */\n      swap8\n      pop\n        /* \"#utility.yul\":6086:6146   */\n      tag_165\n        /* \"#utility.yul\":6139:6145   */\n      dup4\n        /* \"#utility.yul\":6086:6146   */\n      tag_166\n      jump\t// in\n    tag_165:\n        /* \"#utility.yul\":6076:6146   */\n      swap3\n      pop\n        /* \"#utility.yul\":5932:6156   */\n      pop\n        /* \"#utility.yul\":5919:5920   */\n      0x01\n        /* \"#utility.yul\":5916:5917   */\n      dup2\n        /* \"#utility.yul\":5912:5921   */\n      add\n        /* \"#utility.yul\":5907:5921   */\n      swap1\n      pop\n        /* \"#utility.yul\":5872:6156   */\n      jump(tag_161)\n    tag_163:\n        /* \"#utility.yul\":5876:5890   */\n      pop\n        /* \"#utility.yul\":6172:6175   */\n      dup6\n        /* \"#utility.yul\":6165:6175   */\n      swap4\n      pop\n        /* \"#utility.yul\":5573:6181   */\n      pop\n      pop\n      pop\n      swap3\n      swap2\n      pop\n      pop\n      jump\t// out\n        /* \"#utility.yul\":6187:6531   */\n    tag_130:\n      0x00\n        /* \"#utility.yul\":6293:6332   */\n      tag_168\n        /* \"#utility.yul\":6326:6331   */\n      dup3\n        /* \"#utility.yul\":6293:6332   */\n      tag_169\n      jump\t// in\n    tag_168:\n        /* \"#utility.yul\":6348:6409   */\n      tag_170\n        /* \"#utility.yul\":6402:6408   */\n      dup2\n        /* \"#utility.yul\":6397:6400   */\n      dup6\n        /* \"#utility.yul\":6348:6409   */\n      tag_171\n      jump\t// in\n    tag_170:\n        /* \"#utility.yul\":6341:6409   */\n      swap4\n      pop\n        /* \"#utility.yul\":6418:6470   */\n      tag_172\n        /* \"#utility.yul\":6463:6469   */\n      dup2\n        /* \"#utility.yul\":6458:6461   */\n      dup6\n        /* \"#utility.yul\":6451:6455   */\n      0x20\n        /* \"#utility.yul\":6444:6449   */\n      dup7\n        /* \"#utility.yul\":6440:6456   */\n      add\n        /* \"#utility.yul\":6418:6470   */\n      tag_173\n      jump\t// in\n    tag_172:\n        /* \"#utility.yul\":6495:6524   */\n      tag_174\n        /* \"#utility.yul\":6517:6523   */\n      dup2\n        /* \"#utility.yul\":6495:6524   */\n      tag_175\n      jump\t// in\n    tag_174:\n        /* \"#utility.yul\":6490:6493   */\n      dup5\n        /* \"#utility.yul\":6486:6525   */\n      add\n        /* \"#utility.yul\":6479:6525   */\n      swap2\n      pop\n        /* \"#utility.yul\":6269:6531   */\n      pop\n      swap3\n      swap2\n      pop\n      pop\n      jump\t// out\n        /* \"#utility.yul\":6537:6903   */\n    tag_176:\n      0x00\n        /* \"#utility.yul\":6700:6767   */\n      tag_178\n        /* \"#utility.yul\":6764:6766   */\n      0x26\n        /* \"#utility.yul\":6759:6762   */\n      dup4\n        /* \"#utility.yul\":6700:6767   */\n      tag_179\n      jump\t// in\n    tag_178:\n        /* \"#utility.yul\":6693:6767   */\n      swap2\n      pop\n        /* \"#utility.yul\":6776:6869   */\n      tag_180\n        /* \"#utility.yul\":6865:6868   */\n      dup3\n        /* \"#utility.yul\":6776:6869   */\n      tag_181\n      jump\t// in\n    tag_180:\n        /* \"#utility.yul\":6894:6896   */\n      0x40\n        /* \"#utility.yul\":6889:6892   */\n      dup3\n        /* \"#utility.yul\":6885:6897   */\n      add\n        /* \"#utility.yul\":6878:6897   */\n      swap1\n      pop\n        /* \"#utility.yul\":6683:6903   */\n      swap2\n      swap1\n      pop\n      jump\t// out\n        /* \"#utility.yul\":6909:7275   */\n    tag_182:\n      0x00\n        /* \"#utility.yul\":7072:7139   */\n      tag_184\n        /* \"#utility.yul\":7136:7138   */\n      0x20\n        /* \"#utility.yul\":7131:7134   */\n      dup4\n        /* \"#utility.yul\":7072:7139   */\n      tag_179\n      jump\t// in\n    tag_184:\n        /* \"#utility.yul\":7065:7139   */\n      swap2\n      pop\n        /* \"#utility.yul\":7148:7241   */\n      tag_185\n        /* \"#utility.yul\":7237:7240   */\n      dup3\n        /* \"#utility.yul\":7148:7241   */\n      tag_186\n      jump\t// in\n    tag_185:\n        /* \"#utility.yul\":7266:7268   */\n      0x20\n        /* \"#utility.yul\":7261:7264   */\n      dup3\n        /* \"#utility.yul\":7257:7269   */\n      add\n        /* \"#utility.yul\":7250:7269   */\n      swap1\n      pop\n        /* \"#utility.yul\":7055:7275   */\n      swap2\n      swap1\n      pop\n      jump\t// out\n        /* \"#utility.yul\":7281:7389   */\n    tag_134:\n        /* \"#utility.yul\":7358:7382   */\n      tag_188\n        /* \"#utility.yul\":7376:7381   */\n      dup2\n        /* \"#utility.yul\":7358:7382   */\n      tag_189\n      jump\t// in\n    tag_188:\n        /* \"#utility.yul\":7353:7356   */\n      dup3\n        /* \"#utility.yul\":7346:7383   */\n      mstore\n        /* \"#utility.yul\":7336:7389   */\n      pop\n      pop\n      jump\t// out\n        /* \"#utility.yul\":7395:7617   */\n    tag_12:\n      0x00\n        /* \"#utility.yul\":7526:7528   */\n      0x20\n        /* \"#utility.yul\":7515:7524   */\n      dup3\n        /* \"#utility.yul\":7511:7529   */\n      add\n        /* \"#utility.yul\":7503:7529   */\n      swap1\n      pop\n        /* \"#utility.yul\":7539:7610   */\n      tag_191\n        /* \"#utility.yul\":7607:7608   */\n      0x00\n        /* \"#utility.yul\":7596:7605   */\n      dup4\n        /* \"#utility.yul\":7592:7609   */\n      add\n        /* \"#utility.yul\":7583:7589   */\n      dup5\n        /* \"#utility.yul\":7539:7610   */\n      tag_135\n      jump\t// in\n    tag_191:\n        /* \"#utility.yul\":7493:7617   */\n      swap3\n      swap2\n      pop\n      pop\n      jump\t// out\n        /* \"#utility.yul\":7623:8297   */\n    tag_53:\n      0x00\n        /* \"#utility.yul\":7902:7904   */\n      0x40\n        /* \"#utility.yul\":7891:7900   */\n      dup3\n        /* \"#utility.yul\":7887:7905   */\n      add\n        /* \"#utility.yul\":7879:7905   */\n      swap1\n      pop\n        /* \"#utility.yul\":7951:7960   */\n      dup2\n        /* \"#utility.yul\":7945:7949   */\n      dup2\n        /* \"#utility.yul\":7941:7961   */\n      sub\n        /* \"#utility.yul\":7937:7938   */\n      0x00\n        /* \"#utility.yul\":7926:7935   */\n      dup4\n        /* \"#utility.yul\":7922:7939   */\n      add\n        /* \"#utility.yul\":7915:7962   */\n      mstore\n        /* \"#utility.yul\":7979:8087   */\n      tag_193\n        /* \"#utility.yul\":8082:8086   */\n      dup2\n        /* \"#utility.yul\":8073:8079   */\n      dup6\n        /* \"#utility.yul\":7979:8087   */\n      tag_153\n      jump\t// in\n    tag_193:\n        /* \"#utility.yul\":7971:8087   */\n      swap1\n      pop\n        /* \"#utility.yul\":8134:8143   */\n      dup2\n        /* \"#utility.yul\":8128:8132   */\n      dup2\n        /* \"#utility.yul\":8124:8144   */\n      sub\n        /* \"#utility.yul\":8119:8121   */\n      0x20\n        /* \"#utility.yul\":8108:8117   */\n      dup4\n        /* \"#utility.yul\":8104:8122   */\n      add\n        /* \"#utility.yul\":8097:8145   */\n      mstore\n        /* \"#utility.yul\":8162:8290   */\n      tag_194\n        /* \"#utility.yul\":8285:8289   */\n      dup2\n        /* \"#utility.yul\":8276:8282   */\n      dup5\n        /* \"#utility.yul\":8162:8290   */\n      tag_139\n      jump\t// in\n    tag_194:\n        /* \"#utility.yul\":8154:8290   */\n      swap1\n      pop\n        /* \"#utility.yul\":7869:8297   */\n      swap4\n      swap3\n      pop\n      pop\n      pop\n      jump\t// out\n        /* \"#utility.yul\":8303:8722   */\n    tag_65:\n      0x00\n        /* \"#utility.yul\":8507:8509   */\n      0x20\n        /* \"#utility.yul\":8496:8505   */\n      dup3\n        /* \"#utility.yul\":8492:8510   */\n      add\n        /* \"#utility.yul\":8484:8510   */\n      swap1\n      pop\n        /* \"#utility.yul\":8556:8565   */\n      dup2\n        /* \"#utility.yul\":8550:8554   */\n      dup2\n        /* \"#utility.yul\":8546:8566   */\n      sub\n        /* \"#utility.yul\":8542:8543   */\n      0x00\n        /* \"#utility.yul\":8531:8540   */\n      dup4\n        /* \"#utility.yul\":8527:8544   */\n      add\n        /* \"#utility.yul\":8520:8567   */\n      mstore\n        /* \"#utility.yul\":8584:8715   */\n      tag_196\n        /* \"#utility.yul\":8710:8714   */\n      dup2\n        /* \"#utility.yul\":8584:8715   */\n      tag_176\n      jump\t// in\n    tag_196:\n        /* \"#utility.yul\":8576:8715   */\n      swap1\n      pop\n        /* \"#utility.yul\":8474:8722   */\n      swap2\n      swap1\n      pop\n      jump\t// out\n        /* \"#utility.yul\":8728:9147   */\n    tag_35:\n      0x00\n        /* \"#utility.yul\":8932:8934   */\n      0x20\n        /* \"#utility.yul\":8921:8930   */\n      dup3\n        /* \"#utility.yul\":8917:8935   */\n      add\n        /* \"#utility.yul\":8909:8935   */\n      swap1\n      pop\n        /* \"#utility.yul\":8981:8990   */\n      dup2\n        /* \"#utility.yul\":8975:8979   */\n      dup2\n        /* \"#utility.yul\":8971:8991   */\n      sub\n        /* \"#utility.yul\":8967:8968   */\n      0x00\n        /* \"#utility.yul\":8956:8965   */\n      dup4\n        /* \"#utility.yul\":8952:8969   */\n      add\n        /* \"#utility.yul\":8945:8992   */\n      mstore\n        /* \"#utility.yul\":9009:9140   */\n      tag_198\n        /* \"#utility.yul\":9135:9139   */\n      dup2\n        /* \"#utility.yul\":9009:9140   */\n      tag_182\n      jump\t// in\n    tag_198:\n        /* \"#utility.yul\":9001:9140   */\n      swap1\n      pop\n        /* \"#utility.yul\":8899:9147   */\n      swap2\n      swap1\n      pop\n      jump\t// out\n        /* \"#utility.yul\":9153:9282   */\n    tag_75:\n      0x00\n        /* \"#utility.yul\":9214:9234   */\n      tag_200\n      tag_201\n      jump\t// in\n    tag_200:\n        /* \"#utility.yul\":9204:9234   */\n      swap1\n      pop\n        /* \"#utility.yul\":9243:9276   */\n      tag_202\n        /* \"#utility.yul\":9271:9275   */\n      dup3\n        /* \"#utility.yul\":9263:9269   */\n      dup3\n        /* \"#utility.yul\":9243:9276   */\n      tag_203\n      jump\t// in\n    tag_202:\n        /* \"#utility.yul\":9194:9282   */\n      swap2\n      swap1\n      pop\n      jump\t// out\n        /* \"#utility.yul\":9288:9363   */\n    tag_201:\n      0x00\n        /* \"#utility.yul\":9354:9356   */\n      0x40\n        /* \"#utility.yul\":9348:9357   */\n      mload\n        /* \"#utility.yul\":9338:9357   */\n      swap1\n      pop\n        /* \"#utility.yul\":9328:9363   */\n      swap1\n      jump\t// out\n        /* \"#utility.yul\":9369:9690   */\n    tag_74:\n      0x00\n        /* \"#utility.yul\":9546:9564   */\n      0xffffffffffffffff\n        /* \"#utility.yul\":9538:9544   */\n      dup3\n        /* \"#utility.yul\":9535:9565   */\n      gt\n        /* \"#utility.yul\":9532:9534   */\n      iszero\n      tag_206\n      jumpi\n        /* \"#utility.yul\":9568:9586   */\n      tag_207\n      tag_208\n      jump\t// in\n    tag_207:\n        /* \"#utility.yul\":9532:9534   */\n    tag_206:\n        /* \"#utility.yul\":9618:9622   */\n      0x20\n        /* \"#utility.yul\":9610:9616   */\n      dup3\n        /* \"#utility.yul\":9606:9623   */\n      mul\n        /* \"#utility.yul\":9598:9623   */\n      swap1\n      pop\n        /* \"#utility.yul\":9678:9682   */\n      0x20\n        /* \"#utility.yul\":9672:9676   */\n      dup2\n        /* \"#utility.yul\":9668:9683   */\n      add\n        /* \"#utility.yul\":9660:9683   */\n      swap1\n      pop\n        /* \"#utility.yul\":9461:9690   */\n      swap2\n      swap1\n      pop\n      jump\t// out\n        /* \"#utility.yul\":9696:10007   */\n    tag_85:\n      0x00\n        /* \"#utility.yul\":9863:9881   */\n      0xffffffffffffffff\n        /* \"#utility.yul\":9855:9861   */\n      dup3\n        /* \"#utility.yul\":9852:9882   */\n      gt\n        /* \"#utility.yul\":9849:9851   */\n      iszero\n      tag_210\n      jumpi\n        /* \"#utility.yul\":9885:9903   */\n      tag_211\n      tag_208\n      jump\t// in\n    tag_211:\n        /* \"#utility.yul\":9849:9851   */\n    tag_210:\n        /* \"#utility.yul\":9935:9939   */\n      0x20\n        /* \"#utility.yul\":9927:9933   */\n      dup3\n        /* \"#utility.yul\":9923:9940   */\n      mul\n        /* \"#utility.yul\":9915:9940   */\n      swap1\n      pop\n        /* \"#utility.yul\":9995:9999   */\n      0x20\n        /* \"#utility.yul\":9989:9993   */\n      dup2\n        /* \"#utility.yul\":9985:10000   */\n      add\n        /* \"#utility.yul\":9977:10000   */\n      swap1\n      pop\n        /* \"#utility.yul\":9778:10007   */\n      swap2\n      swap1\n      pop\n      jump\t// out\n        /* \"#utility.yul\":10013:10321   */\n    tag_96:\n      0x00\n        /* \"#utility.yul\":10165:10183   */\n      0xffffffffffffffff\n        /* \"#utility.yul\":10157:10163   */\n      dup3\n        /* \"#utility.yul\":10154:10184   */\n      gt\n        /* \"#utility.yul\":10151:10153   */\n      iszero\n      tag_213\n      jumpi\n        /* \"#utility.yul\":10187:10205   */\n      tag_214\n      tag_208\n      jump\t// in\n    tag_214:\n        /* \"#utility.yul\":10151:10153   */\n    tag_213:\n        /* \"#utility.yul\":10225:10254   */\n      tag_215\n        /* \"#utility.yul\":10247:10253   */\n      dup3\n        /* \"#utility.yul\":10225:10254   */\n      tag_175\n      jump\t// in\n    tag_215:\n        /* \"#utility.yul\":10217:10254   */\n      swap1\n      pop\n        /* \"#utility.yul\":10309:10313   */\n      0x20\n        /* \"#utility.yul\":10303:10307   */\n      dup2\n        /* \"#utility.yul\":10299:10314   */\n      add\n        /* \"#utility.yul\":10291:10314   */\n      swap1\n      pop\n        /* \"#utility.yul\":10080:10321   */\n      swap2\n      swap1\n      pop\n      jump\t// out\n        /* \"#utility.yul\":10327:10469   */\n    tag_146:\n      0x00\n        /* \"#utility.yul\":10427:10430   */\n      dup2\n        /* \"#utility.yul\":10419:10430   */\n      swap1\n      pop\n        /* \"#utility.yul\":10457:10461   */\n      0x20\n        /* \"#utility.yul\":10452:10455   */\n      dup3\n        /* \"#utility.yul\":10448:10462   */\n      add\n        /* \"#utility.yul\":10440:10462   */\n      swap1\n      pop\n        /* \"#utility.yul\":10409:10469   */\n      swap2\n      swap1\n      pop\n      jump\t// out\n        /* \"#utility.yul\":10475:10607   */\n    tag_160:\n      0x00\n        /* \"#utility.yul\":10565:10568   */\n      dup2\n        /* \"#utility.yul\":10557:10568   */\n      swap1\n      pop\n        /* \"#utility.yul\":10595:10599   */\n      0x20\n        /* \"#utility.yul\":10590:10593   */\n      dup3\n        /* \"#utility.yul\":10586:10600   */\n      add\n        /* \"#utility.yul\":10578:10600   */\n      swap1\n      pop\n        /* \"#utility.yul\":10547:10607   */\n      swap2\n      swap1\n      pop\n      jump\t// out\n        /* \"#utility.yul\":10613:10737   */\n    tag_142:\n      0x00\n        /* \"#utility.yul\":10724:10729   */\n      dup2\n        /* \"#utility.yul\":10718:10730   */\n      mload\n        /* \"#utility.yul\":10708:10730   */\n      swap1\n      pop\n        /* \"#utility.yul\":10697:10737   */\n      swap2\n      swap1\n      pop\n      jump\t// out\n        /* \"#utility.yul\":10743:10857   */\n    tag_156:\n      0x00\n        /* \"#utility.yul\":10844:10849   */\n      dup2\n        /* \"#utility.yul\":10838:10850   */\n      mload\n        /* \"#utility.yul\":10828:10850   */\n      swap1\n      pop\n        /* \"#utility.yul\":10817:10857   */\n      swap2\n      swap1\n      pop\n      jump\t// out\n        /* \"#utility.yul\":10863:10962   */\n    tag_169:\n      0x00\n        /* \"#utility.yul\":10949:10954   */\n      dup2\n        /* \"#utility.yul\":10943:10955   */\n      mload\n        /* \"#utility.yul\":10933:10955   */\n      swap1\n      pop\n        /* \"#utility.yul\":10922:10962   */\n      swap2\n      swap1\n      pop\n      jump\t// out\n        /* \"#utility.yul\":10968:11091   */\n    tag_152:\n      0x00\n        /* \"#utility.yul\":11080:11084   */\n      0x20\n        /* \"#utility.yul\":11075:11078   */\n      dup3\n        /* \"#utility.yul\":11071:11085   */\n      add\n        /* \"#utility.yul\":11063:11085   */\n      swap1\n      pop\n        /* \"#utility.yul\":11053:11091   */\n      swap2\n      swap1\n      pop\n      jump\t// out\n        /* \"#utility.yul\":11097:11210   */\n    tag_166:\n      0x00\n        /* \"#utility.yul\":11199:11203   */\n      0x20\n        /* \"#utility.yul\":11194:11197   */\n      dup3\n        /* \"#utility.yul\":11190:11204   */\n      add\n        /* \"#utility.yul\":11182:11204   */\n      swap1\n      pop\n        /* \"#utility.yul\":11172:11210   */\n      swap2\n      swap1\n      pop\n      jump\t// out\n        /* \"#utility.yul\":11216:11410   */\n    tag_144:\n      0x00\n        /* \"#utility.yul\":11359:11365   */\n      dup3\n        /* \"#utility.yul\":11354:11357   */\n      dup3\n        /* \"#utility.yul\":11347:11366   */\n      mstore\n        /* \"#utility.yul\":11399:11403   */\n      0x20\n        /* \"#utility.yul\":11394:11397   */\n      dup3\n        /* \"#utility.yul\":11390:11404   */\n      add\n        /* \"#utility.yul\":11375:11404   */\n      swap1\n      pop\n        /* \"#utility.yul\":11337:11410   */\n      swap3\n      swap2\n      pop\n      pop\n      jump\t// out\n        /* \"#utility.yul\":11416:11600   */\n    tag_158:\n      0x00\n        /* \"#utility.yul\":11549:11555   */\n      dup3\n        /* \"#utility.yul\":11544:11547   */\n      dup3\n        /* \"#utility.yul\":11537:11556   */\n      mstore\n        /* \"#utility.yul\":11589:11593   */\n      0x20\n        /* \"#utility.yul\":11584:11587   */\n      dup3\n        /* \"#utility.yul\":11580:11594   */\n      add\n        /* \"#utility.yul\":11565:11594   */\n      swap1\n      pop\n        /* \"#utility.yul\":11527:11600   */\n      swap3\n      swap2\n      pop\n      pop\n      jump\t// out\n        /* \"#utility.yul\":11606:11765   */\n    tag_171:\n      0x00\n        /* \"#utility.yul\":11714:11720   */\n      dup3\n        /* \"#utility.yul\":11709:11712   */\n      dup3\n        /* \"#utility.yul\":11702:11721   */\n      mstore\n        /* \"#utility.yul\":11754:11758   */\n      0x20\n        /* \"#utility.yul\":11749:11752   */\n      dup3\n        /* \"#utility.yul\":11745:11759   */\n      add\n        /* \"#utility.yul\":11730:11759   */\n      swap1\n      pop\n        /* \"#utility.yul\":11692:11765   */\n      swap3\n      swap2\n      pop\n      pop\n      jump\t// out\n        /* \"#utility.yul\":11771:11940   */\n    tag_179:\n      0x00\n        /* \"#utility.yul\":11889:11895   */\n      dup3\n        /* \"#utility.yul\":11884:11887   */\n      dup3\n        /* \"#utility.yul\":11877:11896   */\n      mstore\n        /* \"#utility.yul\":11929:11933   */\n      0x20\n        /* \"#utility.yul\":11924:11927   */\n      dup3\n        /* \"#utility.yul\":11920:11934   */\n      add\n        /* \"#utility.yul\":11905:11934   */\n      swap1\n      pop\n        /* \"#utility.yul\":11867:11940   */\n      swap3\n      swap2\n      pop\n      pop\n      jump\t// out\n        /* \"#utility.yul\":11946:12042   */\n    tag_138:\n      0x00\n        /* \"#utility.yul\":12012:12036   */\n      tag_228\n        /* \"#utility.yul\":12030:12035   */\n      dup3\n        /* \"#utility.yul\":12012:12036   */\n      tag_229\n      jump\t// in\n    tag_228:\n        /* \"#utility.yul\":12001:12036   */\n      swap1\n      pop\n        /* \"#utility.yul\":11991:12042   */\n      swap2\n      swap1\n      pop\n      jump\t// out\n        /* \"#utility.yul\":12048:12174   */\n    tag_229:\n      0x00\n        /* \"#utility.yul\":12125:12167   */\n      0xffffffffffffffffffffffffffffffffffffffff\n        /* \"#utility.yul\":12118:12123   */\n      dup3\n        /* \"#utility.yul\":12114:12168   */\n      and\n        /* \"#utility.yul\":12103:12168   */\n      swap1\n      pop\n        /* \"#utility.yul\":12093:12174   */\n      swap2\n      swap1\n      pop\n      jump\t// out\n        /* \"#utility.yul\":12180:12257   */\n    tag_189:\n      0x00\n        /* \"#utility.yul\":12246:12251   */\n      dup2\n        /* \"#utility.yul\":12235:12251   */\n      swap1\n      pop\n        /* \"#utility.yul\":12225:12257   */\n      swap2\n      swap1\n      pop\n      jump\t// out\n        /* \"#utility.yul\":12263:12417   */\n    tag_99:\n        /* \"#utility.yul\":12347:12353   */\n      dup3\n        /* \"#utility.yul\":12342:12345   */\n      dup2\n        /* \"#utility.yul\":12337:12340   */\n      dup4\n        /* \"#utility.yul\":12324:12354   */\n      calldatacopy\n        /* \"#utility.yul\":12409:12410   */\n      0x00\n        /* \"#utility.yul\":12400:12406   */\n      dup4\n        /* \"#utility.yul\":12395:12398   */\n      dup4\n        /* \"#utility.yul\":12391:12407   */\n      add\n        /* \"#utility.yul\":12384:12411   */\n      mstore\n        /* \"#utility.yul\":12314:12417   */\n      pop\n      pop\n      pop\n      jump\t// out\n        /* \"#utility.yul\":12423:12730   */\n    tag_173:\n        /* \"#utility.yul\":12491:12492   */\n      0x00\n        /* \"#utility.yul\":12501:12614   */\n    tag_234:\n        /* \"#utility.yul\":12515:12521   */\n      dup4\n        /* \"#utility.yul\":12512:12513   */\n      dup2\n        /* \"#utility.yul\":12509:12522   */\n      lt\n        /* \"#utility.yul\":12501:12614   */\n      iszero\n      tag_236\n      jumpi\n        /* \"#utility.yul\":12600:12601   */\n      dup1\n        /* \"#utility.yul\":12595:12598   */\n      dup3\n        /* \"#utility.yul\":12591:12602   */\n      add\n        /* \"#utility.yul\":12585:12603   */\n      mload\n        /* \"#utility.yul\":12581:12582   */\n      dup2\n        /* \"#utility.yul\":12576:12579   */\n      dup5\n        /* \"#utility.yul\":12572:12583   */\n      add\n        /* \"#utility.yul\":12565:12604   */\n      mstore\n        /* \"#utility.yul\":12537:12539   */\n      0x20\n        /* \"#utility.yul\":12534:12535   */\n      dup2\n        /* \"#utility.yul\":12530:12540   */\n      add\n        /* \"#utility.yul\":12525:12540   */\n      swap1\n      pop\n        /* \"#utility.yul\":12501:12614   */\n      jump(tag_234)\n    tag_236:\n        /* \"#utility.yul\":12632:12638   */\n      dup4\n        /* \"#utility.yul\":12629:12630   */\n      dup2\n        /* \"#utility.yul\":12626:12639   */\n      gt\n        /* \"#utility.yul\":12623:12625   */\n      iszero\n      tag_237\n      jumpi\n        /* \"#utility.yul\":12712:12713   */\n      0x00\n        /* \"#utility.yul\":12703:12709   */\n      dup5\n        /* \"#utility.yul\":12698:12701   */\n      dup5\n        /* \"#utility.yul\":12694:12710   */\n      add\n        /* \"#utility.yul\":12687:12714   */\n      mstore\n        /* \"#utility.yul\":12623:12625   */\n    tag_237:\n        /* \"#utility.yul\":12472:12730   */\n      pop\n      pop\n      pop\n      pop\n      jump\t// out\n        /* \"#utility.yul\":12736:13017   */\n    tag_203:\n        /* \"#utility.yul\":12819:12846   */\n      tag_239\n        /* \"#utility.yul\":12841:12845   */\n      dup3\n        /* \"#utility.yul\":12819:12846   */\n      tag_175\n      jump\t// in\n    tag_239:\n        /* \"#utility.yul\":12811:12817   */\n      dup2\n        /* \"#utility.yul\":12807:12847   */\n      add\n        /* \"#utility.yul\":12949:12955   */\n      dup2\n        /* \"#utility.yul\":12937:12947   */\n      dup2\n        /* \"#utility.yul\":12934:12956   */\n      lt\n        /* \"#utility.yul\":12913:12931   */\n      0xffffffffffffffff\n        /* \"#utility.yul\":12901:12911   */\n      dup3\n        /* \"#utility.yul\":12898:12932   */\n      gt\n        /* \"#utility.yul\":12895:12957   */\n      or\n        /* \"#utility.yul\":12892:12894   */\n      iszero\n      tag_240\n      jumpi\n        /* \"#utility.yul\":12960:12978   */\n      tag_241\n      tag_208\n      jump\t// in\n    tag_241:\n        /* \"#utility.yul\":12892:12894   */\n    tag_240:\n        /* \"#utility.yul\":13000:13010   */\n      dup1\n        /* \"#utility.yul\":12996:12998   */\n      0x40\n        /* \"#utility.yul\":12989:13011   */\n      mstore\n        /* \"#utility.yul\":12779:13017   */\n      pop\n      pop\n      pop\n      jump\t// out\n        /* \"#utility.yul\":13023:13203   */\n    tag_208:\n        /* \"#utility.yul\":13071:13148   */\n      0x4e487b7100000000000000000000000000000000000000000000000000000000\n        /* \"#utility.yul\":13068:13069   */\n      0x00\n        /* \"#utility.yul\":13061:13149   */\n      mstore\n        /* \"#utility.yul\":13168:13172   */\n      0x41\n        /* \"#utility.yul\":13165:13166   */\n      0x04\n        /* \"#utility.yul\":13158:13173   */\n      mstore\n        /* \"#utility.yul\":13192:13196   */\n      0x24\n        /* \"#utility.yul\":13189:13190   */\n      0x00\n        /* \"#utility.yul\":13182:13197   */\n      revert\n        /* \"#utility.yul\":13209:13311   */\n    tag_175:\n      0x00\n        /* \"#utility.yul\":13301:13303   */\n      0x1f\n        /* \"#utility.yul\":13297:13304   */\n      not\n        /* \"#utility.yul\":13292:13294   */\n      0x1f\n        /* \"#utility.yul\":13285:13290   */\n      dup4\n        /* \"#utility.yul\":13281:13295   */\n      add\n        /* \"#utility.yul\":13277:13305   */\n      and\n        /* \"#utility.yul\":13267:13305   */\n      swap1\n      pop\n        /* \"#utility.yul\":13257:13311   */\n      swap2\n      swap1\n      pop\n      jump\t// out\n        /* \"#utility.yul\":13317:13542   */\n    tag_181:\n        /* \"#utility.yul\":13457:13491   */\n      0x4f776e61626c653a206e6577206f776e657220697320746865207a65726f2061\n        /* \"#utility.yul\":13453:13454   */\n      0x00\n        /* \"#utility.yul\":13445:13451   */\n      dup3\n        /* \"#utility.yul\":13441:13455   */\n      add\n        /* \"#utility.yul\":13434:13492   */\n      mstore\n        /* \"#utility.yul\":13526:13534   */\n      0x6464726573730000000000000000000000000000000000000000000000000000\n        /* \"#utility.yul\":13521:13523   */\n      0x20\n        /* \"#utility.yul\":13513:13519   */\n      dup3\n        /* \"#utility.yul\":13509:13524   */\n      add\n        /* \"#utility.yul\":13502:13535   */\n      mstore\n        /* \"#utility.yul\":13423:13542   */\n      pop\n      jump\t// out\n        /* \"#utility.yul\":13548:13730   */\n    tag_186:\n        /* \"#utility.yul\":13688:13722   */\n      0x4f776e61626c653a2063616c6c6572206973206e6f7420746865206f776e6572\n        /* \"#utility.yul\":13684:13685   */\n      0x00\n        /* \"#utility.yul\":13676:13682   */\n      dup3\n        /* \"#utility.yul\":13672:13686   */\n      add\n        /* \"#utility.yul\":13665:13723   */\n      mstore\n        /* \"#utility.yul\":13654:13730   */\n      pop\n      jump\t// out\n        /* \"#utility.yul\":13736:13858   */\n    tag_103:\n        /* \"#utility.yul\":13809:13833   */\n      tag_247\n        /* \"#utility.yul\":13827:13832   */\n      dup2\n        /* \"#utility.yul\":13809:13833   */\n      tag_138\n      jump\t// in\n    tag_247:\n        /* \"#utility.yul\":13802:13807   */\n      dup2\n        /* \"#utility.yul\":13799:13834   */\n      eq\n        /* \"#utility.yul\":13789:13791   */\n      tag_248\n      jumpi\n        /* \"#utility.yul\":13848:13849   */\n      0x00\n        /* \"#utility.yul\":13845:13846   */\n      dup1\n        /* \"#utility.yul\":13838:13850   */\n      revert\n        /* \"#utility.yul\":13789:13791   */\n    tag_248:\n        /* \"#utility.yul\":13779:13858   */\n      pop\n      jump\t// out\n        /* \"#utility.yul\":13864:13986   */\n    tag_117:\n        /* \"#utility.yul\":13937:13961   */\n      tag_250\n        /* \"#utility.yul\":13955:13960   */\n      dup2\n        /* \"#utility.yul\":13937:13961   */\n      tag_189\n      jump\t// in\n    tag_250:\n        /* \"#utility.yul\":13930:13935   */\n      dup2\n        /* \"#utility.yul\":13927:13962   */\n      eq\n        /* \"#utility.yul\":13917:13919   */\n      tag_251\n      jumpi\n        /* \"#utility.yul\":13976:13977   */\n      0x00\n        /* \"#utility.yul\":13973:13974   */\n      dup1\n        /* \"#utility.yul\":13966:13978   */\n      revert\n        /* \"#utility.yul\":13917:13919   */\n    tag_251:\n        /* \"#utility.yul\":13907:13986   */\n      pop\n      jump\t// out\n\n    auxdata: 0xa26469706673582212208fa4e0696ad6716c60a30bcd4fce58003bb66a04dcc2e5681d26b26aec2ef56b64736f6c63430008010033\n}\n",
				"bytecode": {
					"linkReferences": {},
					"object": "608060405234801561001057600080fd5b5061002d61002261003260201b60201c565b61003a60201b60201c565b6100fe565b600033905090565b60008060009054906101000a900473ffffffffffffffffffffffffffffffffffffffff169050816000806101000a81548173ffffffffffffffffffffffffffffffffffffffff021916908373ffffffffffffffffffffffffffffffffffffffff1602179055508173ffffffffffffffffffffffffffffffffffffffff168173ffffffffffffffffffffffffffffffffffffffff167f8be0079c531659141344cd1fd0a4f28419497f9722a3daafe3b4186f6b6457e060405160405180910390a35050565b610cf58061010d6000396000f3fe608060405234801561001057600080fd5b50600436106100625760003560e01c806311ce02671461006757806351f7598c14610085578063715018a6146100a15780638da5cb5b146100ab578063f121da92146100c9578063f2fde38b146100e5575b600080fd5b61006f610101565b60405161007c919061094b565b60405180910390f35b61009f600480360381019061009a919061071a565b610127565b005b6100a96101e7565b005b6100b361026f565b6040516100c0919061094b565b60405180910390f35b6100e360048036038101906100de9190610743565b610298565b005b6100ff60048036038101906100fa919061071a565b6103a7565b005b600160009054906101000a900473ffffffffffffffffffffffffffffffffffffffff1681565b61012f61049f565b73ffffffffffffffffffffffffffffffffffffffff1661014d61026f565b73ffffffffffffffffffffffffffffffffffffffff16146101a3576040517f08c379a000000000000000000000000000000000000000000000000000000000815260040161019a906109bd565b60405180910390fd5b80600160006101000a81548173ffffffffffffffffffffffffffffffffffffffff021916908373ffffffffffffffffffffffffffffffffffffffff16021790555050565b6101ef61049f565b73ffffffffffffffffffffffffffffffffffffffff1661020d61026f565b73ffffffffffffffffffffffffffffffffffffffff1614610263576040517f08c379a000000000000000000000000000000000000000000000000000000000815260040161025a906109bd565b60405180910390fd5b61026d60006104a7565b565b60008060009054906101000a900473ffffffffffffffffffffffffffffffffffffffff16905090565b6102a061049f565b73ffffffffffffffffffffffffffffffffffffffff166102be61026f565b73ffffffffffffffffffffffffffffffffffffffff1614610314576040517f08c379a000000000000000000000000000000000000000000000000000000000815260040161030b906109bd565b60405180910390fd5b600160009054906101000a900473ffffffffffffffffffffffffffffffffffffffff1673ffffffffffffffffffffffffffffffffffffffff1663f121da9283836040518363ffffffff1660e01b8152600401610371929190610966565b600060405180830381600087803b15801561038b57600080fd5b505af115801561039f573d6000803e3d6000fd5b505050505050565b6103af61049f565b73ffffffffffffffffffffffffffffffffffffffff166103cd61026f565b73ffffffffffffffffffffffffffffffffffffffff1614610423576040517f08c379a000000000000000000000000000000000000000000000000000000000815260040161041a906109bd565b60405180910390fd5b600073ffffffffffffffffffffffffffffffffffffffff168173ffffffffffffffffffffffffffffffffffffffff161415610493576040517f08c379a000000000000000000000000000000000000000000000000000000000815260040161048a9061099d565b60405180910390fd5b61049c816104a7565b50565b600033905090565b60008060009054906101000a900473ffffffffffffffffffffffffffffffffffffffff169050816000806101000a81548173ffffffffffffffffffffffffffffffffffffffff021916908373ffffffffffffffffffffffffffffffffffffffff1602179055508173ffffffffffffffffffffffffffffffffffffffff168173ffffffffffffffffffffffffffffffffffffffff167f8be0079c531659141344cd1fd0a4f28419497f9722a3daafe3b4186f6b6457e060405160405180910390a35050565b600061057e61057984610a02565b6109dd565b9050808382526020820190508260005b858110156105be57813585016105a488826106db565b84526020840193506020830192505060018101905061058e565b5050509392505050565b60006105db6105d684610a2e565b6109dd565b905080838252602082019050828560208602820111156105fa57600080fd5b60005b8581101561062a57816106108882610705565b8452602084019350602083019250506001810190506105fd565b5050509392505050565b600061064761064284610a5a565b6109dd565b90508281526020810184848401111561065f57600080fd5b61066a848285610b66565b509392505050565b60008135905061068181610c91565b92915050565b600082601f83011261069857600080fd5b81356106a884826020860161056b565b91505092915050565b600082601f8301126106c257600080fd5b81356106d28482602086016105c8565b91505092915050565b600082601f8301126106ec57600080fd5b81356106fc848260208601610634565b91505092915050565b60008135905061071481610ca8565b92915050565b60006020828403121561072c57600080fd5b600061073a84828501610672565b91505092915050565b6000806040838503121561075657600080fd5b600083013567ffffffffffffffff81111561077057600080fd5b61077c858286016106b1565b925050602083013567ffffffffffffffff81111561079957600080fd5b6107a585828601610687565b9150509250929050565b60006107bb83836108bd565b905092915050565b60006107cf838361093c565b60208301905092915050565b6107e481610b2a565b82525050565b60006107f582610aab565b6107ff8185610ae6565b93508360208202850161081185610a8b565b8060005b8581101561084d578484038952815161082e85826107af565b945061083983610acc565b925060208a01995050600181019050610815565b50829750879550505050505092915050565b600061086a82610ab6565b6108748185610af7565b935061087f83610a9b565b8060005b838110156108b057815161089788826107c3565b97506108a283610ad9565b925050600181019050610883565b5085935050505092915050565b60006108c882610ac1565b6108d28185610b08565b93506108e2818560208601610b75565b6108eb81610c08565b840191505092915050565b6000610903602683610b19565b915061090e82610c19565b604082019050919050565b6000610926602083610b19565b915061093182610c68565b602082019050919050565b61094581610b5c565b82525050565b600060208201905061096060008301846107db565b92915050565b60006040820190508181036000830152610980818561085f565b9050818103602083015261099481846107ea565b90509392505050565b600060208201905081810360008301526109b6816108f6565b9050919050565b600060208201905081810360008301526109d681610919565b9050919050565b60006109e76109f8565b90506109f38282610ba8565b919050565b6000604051905090565b600067ffffffffffffffff821115610a1d57610a1c610bd9565b5b602082029050602081019050919050565b600067ffffffffffffffff821115610a4957610a48610bd9565b5b602082029050602081019050919050565b600067ffffffffffffffff821115610a7557610a74610bd9565b5b610a7e82610c08565b9050602081019050919050565b6000819050602082019050919050565b6000819050602082019050919050565b600081519050919050565b600081519050919050565b600081519050919050565b6000602082019050919050565b6000602082019050919050565b600082825260208201905092915050565b600082825260208201905092915050565b600082825260208201905092915050565b600082825260208201905092915050565b6000610b3582610b3c565b9050919050565b600073ffffffffffffffffffffffffffffffffffffffff82169050919050565b6000819050919050565b82818337600083830152505050565b60005b83811015610b93578082015181840152602081019050610b78565b83811115610ba2576000848401525b50505050565b610bb182610c08565b810181811067ffffffffffffffff82111715610bd057610bcf610bd9565b5b80604052505050565b7f4e487b7100000000000000000000000000000000000000000000000000000000600052604160045260246000fd5b6000601f19601f8301169050919050565b7f4f776e61626c653a206e6577206f776e657220697320746865207a65726f206160008201527f6464726573730000000000000000000000000000000000000000000000000000602082015250565b7f4f776e61626c653a2063616c6c6572206973206e6f7420746865206f776e6572600082015250565b610c9a81610b2a565b8114610ca557600080fd5b50565b610cb181610b5c565b8114610cbc57600080fd5b5056fea26469706673582212208fa4e0696ad6716c60a30bcd4fce58003bb66a04dcc2e5681d26b26aec2ef56b64736f6c63430008010033",
					"opcodes": "PUSH1 0x80 PUSH1 0x40 MSTORE CALLVALUE DUP1 ISZERO PUSH2 0x10 JUMPI PUSH1 0x0 DUP1 REVERT JUMPDEST POP PUSH2 0x2D PUSH2 0x22 PUSH2 0x32 PUSH1 0x20 SHL PUSH1 0x20 SHR JUMP JUMPDEST PUSH2 0x3A PUSH1 0x20 SHL PUSH1 0x20 SHR JUMP JUMPDEST PUSH2 0xFE JUMP JUMPDEST PUSH1 0x0 CALLER SWAP1 POP SWAP1 JUMP JUMPDEST PUSH1 0x0 DUP1 PUSH1 0x0 SWAP1 SLOAD SWAP1 PUSH2 0x100 EXP SWAP1 DIV PUSH20 0xFFFFFFFFFFFFFFFFFFFFFFFFFFFFFFFFFFFFFFFF AND SWAP1 POP DUP2 PUSH1 0x0 DUP1 PUSH2 0x100 EXP DUP2 SLOAD DUP2 PUSH20 0xFFFFFFFFFFFFFFFFFFFFFFFFFFFFFFFFFFFFFFFF MUL NOT AND SWAP1 DUP4 PUSH20 0xFFFFFFFFFFFFFFFFFFFFFFFFFFFFFFFFFFFFFFFF AND MUL OR SWAP1 SSTORE POP DUP2 PUSH20 0xFFFFFFFFFFFFFFFFFFFFFFFFFFFFFFFFFFFFFFFF AND DUP2 PUSH20 0xFFFFFFFFFFFFFFFFFFFFFFFFFFFFFFFFFFFFFFFF AND PUSH32 0x8BE0079C531659141344CD1FD0A4F28419497F9722A3DAAFE3B4186F6B6457E0 PUSH1 0x40 MLOAD PUSH1 0x40 MLOAD DUP1 SWAP2 SUB SWAP1 LOG3 POP POP JUMP JUMPDEST PUSH2 0xCF5 DUP1 PUSH2 0x10D PUSH1 0x0 CODECOPY PUSH1 0x0 RETURN INVALID PUSH1 0x80 PUSH1 0x40 MSTORE CALLVALUE DUP1 ISZERO PUSH2 0x10 JUMPI PUSH1 0x0 DUP1 REVERT JUMPDEST POP PUSH1 0x4 CALLDATASIZE LT PUSH2 0x62 JUMPI PUSH1 0x0 CALLDATALOAD PUSH1 0xE0 SHR DUP1 PUSH4 0x11CE0267 EQ PUSH2 0x67 JUMPI DUP1 PUSH4 0x51F7598C EQ PUSH2 0x85 JUMPI DUP1 PUSH4 0x715018A6 EQ PUSH2 0xA1 JUMPI DUP1 PUSH4 0x8DA5CB5B EQ PUSH2 0xAB JUMPI DUP1 PUSH4 0xF121DA92 EQ PUSH2 0xC9 JUMPI DUP1 PUSH4 0xF2FDE38B EQ PUSH2 0xE5 JUMPI JUMPDEST PUSH1 0x0 DUP1 REVERT JUMPDEST PUSH2 0x6F PUSH2 0x101 JUMP JUMPDEST PUSH1 0x40 MLOAD PUSH2 0x7C SWAP2 SWAP1 PUSH2 0x94B JUMP JUMPDEST PUSH1 0x40 MLOAD DUP1 SWAP2 SUB SWAP1 RETURN JUMPDEST PUSH2 0x9F PUSH1 0x4 DUP1 CALLDATASIZE SUB DUP2 ADD SWAP1 PUSH2 0x9A SWAP2 SWAP1 PUSH2 0x71A JUMP JUMPDEST PUSH2 0x127 JUMP JUMPDEST STOP JUMPDEST PUSH2 0xA9 PUSH2 0x1E7 JUMP JUMPDEST STOP JUMPDEST PUSH2 0xB3 PUSH2 0x26F JUMP JUMPDEST PUSH1 0x40 MLOAD PUSH2 0xC0 SWAP2 SWAP1 PUSH2 0x94B JUMP JUMPDEST PUSH1 0x40 MLOAD DUP1 SWAP2 SUB SWAP1 RETURN JUMPDEST PUSH2 0xE3 PUSH1 0x4 DUP1 CALLDATASIZE SUB DUP2 ADD SWAP1 PUSH2 0xDE SWAP2 SWAP1 PUSH2 0x743 JUMP JUMPDEST PUSH2 0x298 JUMP JUMPDEST STOP JUMPDEST PUSH2 0xFF PUSH1 0x4 DUP1 CALLDATASIZE SUB DUP2 ADD SWAP1 PUSH2 0xFA SWAP2 SWAP1 PUSH2 0x71A JUMP JUMPDEST PUSH2 0x3A7 JUMP JUMPDEST STOP JUMPDEST PUSH1 0x1 PUSH1 0x0 SWAP1 SLOAD SWAP1 PUSH2 0x100 EXP SWAP1 DIV PUSH20 0xFFFFFFFFFFFFFFFFFFFFFFFFFFFFFFFFFFFFFFFF AND DUP2 JUMP JUMPDEST PUSH2 0x12F PUSH2 0x49F JUMP JUMPDEST PUSH20 0xFFFFFFFFFFFFFFFFFFFFFFFFFFFFFFFFFFFFFFFF AND PUSH2 0x14D PUSH2 0x26F JUMP JUMPDEST PUSH20 0xFFFFFFFFFFFFFFFFFFFFFFFFFFFFFFFFFFFFFFFF AND EQ PUSH2 0x1A3 JUMPI PUSH1 0x40 MLOAD PUSH32 0x8C379A000000000000000000000000000000000000000000000000000000000 DUP2 MSTORE PUSH1 0x4 ADD PUSH2 0x19A SWAP1 PUSH2 0x9BD JUMP JUMPDEST PUSH1 0x40 MLOAD DUP1 SWAP2 SUB SWAP1 REVERT JUMPDEST DUP1 PUSH1 0x1 PUSH1 0x0 PUSH2 0x100 EXP DUP2 SLOAD DUP2 PUSH20 0xFFFFFFFFFFFFFFFFFFFFFFFFFFFFFFFFFFFFFFFF MUL NOT AND SWAP1 DUP4 PUSH20 0xFFFFFFFFFFFFFFFFFFFFFFFFFFFFFFFFFFFFFFFF AND MUL OR SWAP1 SSTORE POP POP JUMP JUMPDEST PUSH2 0x1EF PUSH2 0x49F JUMP JUMPDEST PUSH20 0xFFFFFFFFFFFFFFFFFFFFFFFFFFFFFFFFFFFFFFFF AND PUSH2 0x20D PUSH2 0x26F JUMP JUMPDEST PUSH20 0xFFFFFFFFFFFFFFFFFFFFFFFFFFFFFFFFFFFFFFFF AND EQ PUSH2 0x263 JUMPI PUSH1 0x40 MLOAD PUSH32 0x8C379A000000000000000000000000000000000000000000000000000000000 DUP2 MSTORE PUSH1 0x4 ADD PUSH2 0x25A SWAP1 PUSH2 0x9BD JUMP JUMPDEST PUSH1 0x40 MLOAD DUP1 SWAP2 SUB SWAP1 REVERT JUMPDEST PUSH2 0x26D PUSH1 0x0 PUSH2 0x4A7 JUMP JUMPDEST JUMP JUMPDEST PUSH1 0x0 DUP1 PUSH1 0x0 SWAP1 SLOAD SWAP1 PUSH2 0x100 EXP SWAP1 DIV PUSH20 0xFFFFFFFFFFFFFFFFFFFFFFFFFFFFFFFFFFFFFFFF AND SWAP1 POP SWAP1 JUMP JUMPDEST PUSH2 0x2A0 PUSH2 0x49F JUMP JUMPDEST PUSH20 0xFFFFFFFFFFFFFFFFFFFFFFFFFFFFFFFFFFFFFFFF AND PUSH2 0x2BE PUSH2 0x26F JUMP JUMPDEST PUSH20 0xFFFFFFFFFFFFFFFFFFFFFFFFFFFFFFFFFFFFFFFF AND EQ PUSH2 0x314 JUMPI PUSH1 0x40 MLOAD PUSH32 0x8C379A000000000000000000000000000000000000000000000000000000000 DUP2 MSTORE PUSH1 0x4 ADD PUSH2 0x30B SWAP1 PUSH2 0x9BD JUMP JUMPDEST PUSH1 0x40 MLOAD DUP1 SWAP2 SUB SWAP1 REVERT JUMPDEST PUSH1 0x1 PUSH1 0x0 SWAP1 SLOAD SWAP1 PUSH2 0x100 EXP SWAP1 DIV PUSH20 0xFFFFFFFFFFFFFFFFFFFFFFFFFFFFFFFFFFFFFFFF AND PUSH20 0xFFFFFFFFFFFFFFFFFFFFFFFFFFFFFFFFFFFFFFFF AND PUSH4 0xF121DA92 DUP4 DUP4 PUSH1 0x40 MLOAD DUP4 PUSH4 0xFFFFFFFF AND PUSH1 0xE0 SHL DUP2 MSTORE PUSH1 0x4 ADD PUSH2 0x371 SWAP3 SWAP2 SWAP1 PUSH2 0x966 JUMP JUMPDEST PUSH1 0x0 PUSH1 0x40 MLOAD DUP1 DUP4 SUB DUP2 PUSH1 0x0 DUP8 DUP1 EXTCODESIZE ISZERO DUP1 ISZERO PUSH2 0x38B JUMPI PUSH1 0x0 DUP1 REVERT JUMPDEST POP GAS CALL ISZERO DUP1 ISZERO PUSH2 0x39F JUMPI RETURNDATASIZE PUSH1 0x0 DUP1 RETURNDATACOPY RETURNDATASIZE PUSH1 0x0 REVERT JUMPDEST POP POP POP POP POP POP JUMP JUMPDEST PUSH2 0x3AF PUSH2 0x49F JUMP JUMPDEST PUSH20 0xFFFFFFFFFFFFFFFFFFFFFFFFFFFFFFFFFFFFFFFF AND PUSH2 0x3CD PUSH2 0x26F JUMP JUMPDEST PUSH20 0xFFFFFFFFFFFFFFFFFFFFFFFFFFFFFFFFFFFFFFFF AND EQ PUSH2 0x423 JUMPI PUSH1 0x40 MLOAD PUSH32 0x8C379A000000000000000000000000000000000000000000000000000000000 DUP2 MSTORE PUSH1 0x4 ADD PUSH2 0x41A SWAP1 PUSH2 0x9BD JUMP JUMPDEST PUSH1 0x40 MLOAD DUP1 SWAP2 SUB SWAP1 REVERT JUMPDEST PUSH1 0x0 PUSH20 0xFFFFFFFFFFFFFFFFFFFFFFFFFFFFFFFFFFFFFFFF AND DUP2 PUSH20 0xFFFFFFFFFFFFFFFFFFFFFFFFFFFFFFFFFFFFFFFF AND EQ ISZERO PUSH2 0x493 JUMPI PUSH1 0x40 MLOAD PUSH32 0x8C379A000000000000000000000000000000000000000000000000000000000 DUP2 MSTORE PUSH1 0x4 ADD PUSH2 0x48A SWAP1 PUSH2 0x99D JUMP JUMPDEST PUSH1 0x40 MLOAD DUP1 SWAP2 SUB SWAP1 REVERT JUMPDEST PUSH2 0x49C DUP2 PUSH2 0x4A7 JUMP JUMPDEST POP JUMP JUMPDEST PUSH1 0x0 CALLER SWAP1 POP SWAP1 JUMP JUMPDEST PUSH1 0x0 DUP1 PUSH1 0x0 SWAP1 SLOAD SWAP1 PUSH2 0x100 EXP SWAP1 DIV PUSH20 0xFFFFFFFFFFFFFFFFFFFFFFFFFFFFFFFFFFFFFFFF AND SWAP1 POP DUP2 PUSH1 0x0 DUP1 PUSH2 0x100 EXP DUP2 SLOAD DUP2 PUSH20 0xFFFFFFFFFFFFFFFFFFFFFFFFFFFFFFFFFFFFFFFF MUL NOT AND SWAP1 DUP4 PUSH20 0xFFFFFFFFFFFFFFFFFFFFFFFFFFFFFFFFFFFFFFFF AND MUL OR SWAP1 SSTORE POP DUP2 PUSH20 0xFFFFFFFFFFFFFFFFFFFFFFFFFFFFFFFFFFFFFFFF AND DUP2 PUSH20 0xFFFFFFFFFFFFFFFFFFFFFFFFFFFFFFFFFFFFFFFF AND PUSH32 0x8BE0079C531659141344CD1FD0A4F28419497F9722A3DAAFE3B4186F6B6457E0 PUSH1 0x40 MLOAD PUSH1 0x40 MLOAD DUP1 SWAP2 SUB SWAP1 LOG3 POP POP JUMP JUMPDEST PUSH1 0x0 PUSH2 0x57E PUSH2 0x579 DUP5 PUSH2 0xA02 JUMP JUMPDEST PUSH2 0x9DD JUMP JUMPDEST SWAP1 POP DUP1 DUP4 DUP3 MSTORE PUSH1 0x20 DUP3 ADD SWAP1 POP DUP3 PUSH1 0x0 JUMPDEST DUP6 DUP2 LT ISZERO PUSH2 0x5BE JUMPI DUP2 CALLDATALOAD DUP6 ADD PUSH2 0x5A4 DUP9 DUP3 PUSH2 0x6DB JUMP JUMPDEST DUP5 MSTORE PUSH1 0x20 DUP5 ADD SWAP4 POP PUSH1 0x20 DUP4 ADD SWAP3 POP POP PUSH1 0x1 DUP2 ADD SWAP1 POP PUSH2 0x58E JUMP JUMPDEST POP POP POP SWAP4 SWAP3 POP POP POP JUMP JUMPDEST PUSH1 0x0 PUSH2 0x5DB PUSH2 0x5D6 DUP5 PUSH2 0xA2E JUMP JUMPDEST PUSH2 0x9DD JUMP JUMPDEST SWAP1 POP DUP1 DUP4 DUP3 MSTORE PUSH1 0x20 DUP3 ADD SWAP1 POP DUP3 DUP6 PUSH1 0x20 DUP7 MUL DUP3 ADD GT ISZERO PUSH2 0x5FA JUMPI PUSH1 0x0 DUP1 REVERT JUMPDEST PUSH1 0x0 JUMPDEST DUP6 DUP2 LT ISZERO PUSH2 0x62A JUMPI DUP2 PUSH2 0x610 DUP9 DUP3 PUSH2 0x705 JUMP JUMPDEST DUP5 MSTORE PUSH1 0x20 DUP5 ADD SWAP4 POP PUSH1 0x20 DUP4 ADD SWAP3 POP POP PUSH1 0x1 DUP2 ADD SWAP1 POP PUSH2 0x5FD JUMP JUMPDEST POP POP POP SWAP4 SWAP3 POP POP POP JUMP JUMPDEST PUSH1 0x0 PUSH2 0x647 PUSH2 0x642 DUP5 PUSH2 0xA5A JUMP JUMPDEST PUSH2 0x9DD JUMP JUMPDEST SWAP1 POP DUP3 DUP2 MSTORE PUSH1 0x20 DUP2 ADD DUP5 DUP5 DUP5 ADD GT ISZERO PUSH2 0x65F JUMPI PUSH1 0x0 DUP1 REVERT JUMPDEST PUSH2 0x66A DUP5 DUP3 DUP6 PUSH2 0xB66 JUMP JUMPDEST POP SWAP4 SWAP3 POP POP POP JUMP JUMPDEST PUSH1 0x0 DUP2 CALLDATALOAD SWAP1 POP PUSH2 0x681 DUP2 PUSH2 0xC91 JUMP JUMPDEST SWAP3 SWAP2 POP POP JUMP JUMPDEST PUSH1 0x0 DUP3 PUSH1 0x1F DUP4 ADD SLT PUSH2 0x698 JUMPI PUSH1 0x0 DUP1 REVERT JUMPDEST DUP2 CALLDATALOAD PUSH2 0x6A8 DUP5 DUP3 PUSH1 0x20 DUP7 ADD PUSH2 0x56B JUMP JUMPDEST SWAP2 POP POP SWAP3 SWAP2 POP POP JUMP JUMPDEST PUSH1 0x0 DUP3 PUSH1 0x1F DUP4 ADD SLT PUSH2 0x6C2 JUMPI PUSH1 0x0 DUP1 REVERT JUMPDEST DUP2 CALLDATALOAD PUSH2 0x6D2 DUP5 DUP3 PUSH1 0x20 DUP7 ADD PUSH2 0x5C8 JUMP JUMPDEST SWAP2 POP POP SWAP3 SWAP2 POP POP JUMP JUMPDEST PUSH1 0x0 DUP3 PUSH1 0x1F DUP4 ADD SLT PUSH2 0x6EC JUMPI PUSH1 0x0 DUP1 REVERT JUMPDEST DUP2 CALLDATALOAD PUSH2 0x6FC DUP5 DUP3 PUSH1 0x20 DUP7 ADD PUSH2 0x634 JUMP JUMPDEST SWAP2 POP POP SWAP3 SWAP2 POP POP JUMP JUMPDEST PUSH1 0x0 DUP2 CALLDATALOAD SWAP1 POP PUSH2 0x714 DUP2 PUSH2 0xCA8 JUMP JUMPDEST SWAP3 SWAP2 POP POP JUMP JUMPDEST PUSH1 0x0 PUSH1 0x20 DUP3 DUP5 SUB SLT ISZERO PUSH2 0x72C JUMPI PUSH1 0x0 DUP1 REVERT JUMPDEST PUSH1 0x0 PUSH2 0x73A DUP5 DUP3 DUP6 ADD PUSH2 0x672 JUMP JUMPDEST SWAP2 POP POP SWAP3 SWAP2 POP POP JUMP JUMPDEST PUSH1 0x0 DUP1 PUSH1 0x40 DUP4 DUP6 SUB SLT ISZERO PUSH2 0x756 JUMPI PUSH1 0x0 DUP1 REVERT JUMPDEST PUSH1 0x0 DUP4 ADD CALLDATALOAD PUSH8 0xFFFFFFFFFFFFFFFF DUP2 GT ISZERO PUSH2 0x770 JUMPI PUSH1 0x0 DUP1 REVERT JUMPDEST PUSH2 0x77C DUP6 DUP3 DUP7 ADD PUSH2 0x6B1 JUMP JUMPDEST SWAP3 POP POP PUSH1 0x20 DUP4 ADD CALLDATALOAD PUSH8 0xFFFFFFFFFFFFFFFF DUP2 GT ISZERO PUSH2 0x799 JUMPI PUSH1 0x0 DUP1 REVERT JUMPDEST PUSH2 0x7A5 DUP6 DUP3 DUP7 ADD PUSH2 0x687 JUMP JUMPDEST SWAP2 POP POP SWAP3 POP SWAP3 SWAP1 POP JUMP JUMPDEST PUSH1 0x0 PUSH2 0x7BB DUP4 DUP4 PUSH2 0x8BD JUMP JUMPDEST SWAP1 POP SWAP3 SWAP2 POP POP JUMP JUMPDEST PUSH1 0x0 PUSH2 0x7CF DUP4 DUP4 PUSH2 0x93C JUMP JUMPDEST PUSH1 0x20 DUP4 ADD SWAP1 POP SWAP3 SWAP2 POP POP JUMP JUMPDEST PUSH2 0x7E4 DUP2 PUSH2 0xB2A JUMP JUMPDEST DUP3 MSTORE POP POP JUMP JUMPDEST PUSH1 0x0 PUSH2 0x7F5 DUP3 PUSH2 0xAAB JUMP JUMPDEST PUSH2 0x7FF DUP2 DUP6 PUSH2 0xAE6 JUMP JUMPDEST SWAP4 POP DUP4 PUSH1 0x20 DUP3 MUL DUP6 ADD PUSH2 0x811 DUP6 PUSH2 0xA8B JUMP JUMPDEST DUP1 PUSH1 0x0 JUMPDEST DUP6 DUP2 LT ISZERO PUSH2 0x84D JUMPI DUP5 DUP5 SUB DUP10 MSTORE DUP2 MLOAD PUSH2 0x82E DUP6 DUP3 PUSH2 0x7AF JUMP JUMPDEST SWAP5 POP PUSH2 0x839 DUP4 PUSH2 0xACC JUMP JUMPDEST SWAP3 POP PUSH1 0x20 DUP11 ADD SWAP10 POP POP PUSH1 0x1 DUP2 ADD SWAP1 POP PUSH2 0x815 JUMP JUMPDEST POP DUP3 SWAP8 POP DUP8 SWAP6 POP POP POP POP POP POP SWAP3 SWAP2 POP POP JUMP JUMPDEST PUSH1 0x0 PUSH2 0x86A DUP3 PUSH2 0xAB6 JUMP JUMPDEST PUSH2 0x874 DUP2 DUP6 PUSH2 0xAF7 JUMP JUMPDEST SWAP4 POP PUSH2 0x87F DUP4 PUSH2 0xA9B JUMP JUMPDEST DUP1 PUSH1 0x0 JUMPDEST DUP4 DUP2 LT ISZERO PUSH2 0x8B0 JUMPI DUP2 MLOAD PUSH2 0x897 DUP9 DUP3 PUSH2 0x7C3 JUMP JUMPDEST SWAP8 POP PUSH2 0x8A2 DUP4 PUSH2 0xAD9 JUMP JUMPDEST SWAP3 POP POP PUSH1 0x1 DUP2 ADD SWAP1 POP PUSH2 0x883 JUMP JUMPDEST POP DUP6 SWAP4 POP POP POP POP SWAP3 SWAP2 POP POP JUMP JUMPDEST PUSH1 0x0 PUSH2 0x8C8 DUP3 PUSH2 0xAC1 JUMP JUMPDEST PUSH2 0x8D2 DUP2 DUP6 PUSH2 0xB08 JUMP JUMPDEST SWAP4 POP PUSH2 0x8E2 DUP2 DUP6 PUSH1 0x20 DUP7 ADD PUSH2 0xB75 JUMP JUMPDEST PUSH2 0x8EB DUP2 PUSH2 0xC08 JUMP JUMPDEST DUP5 ADD SWAP2 POP POP SWAP3 SWAP2 POP POP JUMP JUMPDEST PUSH1 0x0 PUSH2 0x903 PUSH1 0x26 DUP4 PUSH2 0xB19 JUMP JUMPDEST SWAP2 POP PUSH2 0x90E DUP3 PUSH2 0xC19 JUMP JUMPDEST PUSH1 0x40 DUP3 ADD SWAP1 POP SWAP2 SWAP1 POP JUMP JUMPDEST PUSH1 0x0 PUSH2 0x926 PUSH1 0x20 DUP4 PUSH2 0xB19 JUMP JUMPDEST SWAP2 POP PUSH2 0x931 DUP3 PUSH2 0xC68 JUMP JUMPDEST PUSH1 0x20 DUP3 ADD SWAP1 POP SWAP2 SWAP1 POP JUMP JUMPDEST PUSH2 0x945 DUP2 PUSH2 0xB5C JUMP JUMPDEST DUP3 MSTORE POP POP JUMP JUMPDEST PUSH1 0x0 PUSH1 0x20 DUP3 ADD SWAP1 POP PUSH2 0x960 PUSH1 0x0 DUP4 ADD DUP5 PUSH2 0x7DB JUMP JUMPDEST SWAP3 SWAP2 POP POP JUMP JUMPDEST PUSH1 0x0 PUSH1 0x40 DUP3 ADD SWAP1 POP DUP2 DUP2 SUB PUSH1 0x0 DUP4 ADD MSTORE PUSH2 0x980 DUP2 DUP6 PUSH2 0x85F JUMP JUMPDEST SWAP1 POP DUP2 DUP2 SUB PUSH1 0x20 DUP4 ADD MSTORE PUSH2 0x994 DUP2 DUP5 PUSH2 0x7EA JUMP JUMPDEST SWAP1 POP SWAP4 SWAP3 POP POP POP JUMP JUMPDEST PUSH1 0x0 PUSH1 0x20 DUP3 ADD SWAP1 POP DUP2 DUP2 SUB PUSH1 0x0 DUP4 ADD MSTORE PUSH2 0x9B6 DUP2 PUSH2 0x8F6 JUMP JUMPDEST SWAP1 POP SWAP2 SWAP1 POP JUMP JUMPDEST PUSH1 0x0 PUSH1 0x20 DUP3 ADD SWAP1 POP DUP2 DUP2 SUB PUSH1 0x0 DUP4 ADD MSTORE PUSH2 0x9D6 DUP2 PUSH2 0x919 JUMP JUMPDEST SWAP1 POP SWAP2 SWAP1 POP JUMP JUMPDEST PUSH1 0x0 PUSH2 0x9E7 PUSH2 0x9F8 JUMP JUMPDEST SWAP1 POP PUSH2 0x9F3 DUP3 DUP3 PUSH2 0xBA8 JUMP JUMPDEST SWAP2 SWAP1 POP JUMP JUMPDEST PUSH1 0x0 PUSH1 0x40 MLOAD SWAP1 POP SWAP1 JUMP JUMPDEST PUSH1 0x0 PUSH8 0xFFFFFFFFFFFFFFFF DUP3 GT ISZERO PUSH2 0xA1D JUMPI PUSH2 0xA1C PUSH2 0xBD9 JUMP JUMPDEST JUMPDEST PUSH1 0x20 DUP3 MUL SWAP1 POP PUSH1 0x20 DUP2 ADD SWAP1 POP SWAP2 SWAP1 POP JUMP JUMPDEST PUSH1 0x0 PUSH8 0xFFFFFFFFFFFFFFFF DUP3 GT ISZERO PUSH2 0xA49 JUMPI PUSH2 0xA48 PUSH2 0xBD9 JUMP JUMPDEST JUMPDEST PUSH1 0x20 DUP3 MUL SWAP1 POP PUSH1 0x20 DUP2 ADD SWAP1 POP SWAP2 SWAP1 POP JUMP JUMPDEST PUSH1 0x0 PUSH8 0xFFFFFFFFFFFFFFFF DUP3 GT ISZERO PUSH2 0xA75 JUMPI PUSH2 0xA74 PUSH2 0xBD9 JUMP JUMPDEST JUMPDEST PUSH2 0xA7E DUP3 PUSH2 0xC08 JUMP JUMPDEST SWAP1 POP PUSH1 0x20 DUP2 ADD SWAP1 POP SWAP2 SWAP1 POP JUMP JUMPDEST PUSH1 0x0 DUP2 SWAP1 POP PUSH1 0x20 DUP3 ADD SWAP1 POP SWAP2 SWAP1 POP JUMP JUMPDEST PUSH1 0x0 DUP2 SWAP1 POP PUSH1 0x20 DUP3 ADD SWAP1 POP SWAP2 SWAP1 POP JUMP JUMPDEST PUSH1 0x0 DUP2 MLOAD SWAP1 POP SWAP2 SWAP1 POP JUMP JUMPDEST PUSH1 0x0 DUP2 MLOAD SWAP1 POP SWAP2 SWAP1 POP JUMP JUMPDEST PUSH1 0x0 DUP2 MLOAD SWAP1 POP SWAP2 SWAP1 POP JUMP JUMPDEST PUSH1 0x0 PUSH1 0x20 DUP3 ADD SWAP1 POP SWAP2 SWAP1 POP JUMP JUMPDEST PUSH1 0x0 PUSH1 0x20 DUP3 ADD SWAP1 POP SWAP2 SWAP1 POP JUMP JUMPDEST PUSH1 0x0 DUP3 DUP3 MSTORE PUSH1 0x20 DUP3 ADD SWAP1 POP SWAP3 SWAP2 POP POP JUMP JUMPDEST PUSH1 0x0 DUP3 DUP3 MSTORE PUSH1 0x20 DUP3 ADD SWAP1 POP SWAP3 SWAP2 POP POP JUMP JUMPDEST PUSH1 0x0 DUP3 DUP3 MSTORE PUSH1 0x20 DUP3 ADD SWAP1 POP SWAP3 SWAP2 POP POP JUMP JUMPDEST PUSH1 0x0 DUP3 DUP3 MSTORE PUSH1 0x20 DUP3 ADD SWAP1 POP SWAP3 SWAP2 POP POP JUMP JUMPDEST PUSH1 0x0 PUSH2 0xB35 DUP3 PUSH2 0xB3C JUMP JUMPDEST SWAP1 POP SWAP2 SWAP1 POP JUMP JUMPDEST PUSH1 0x0 PUSH20 0xFFFFFFFFFFFFFFFFFFFFFFFFFFFFFFFFFFFFFFFF DUP3 AND SWAP1 POP SWAP2 SWAP1 POP JUMP JUMPDEST PUSH1 0x0 DUP2 SWAP1 POP SWAP2 SWAP1 POP JUMP JUMPDEST DUP3 DUP2 DUP4 CALLDATACOPY PUSH1 0x0 DUP4 DUP4 ADD MSTORE POP POP POP JUMP JUMPDEST PUSH1 0x0 JUMPDEST DUP4 DUP2 LT ISZERO PUSH2 0xB93 JUMPI DUP1 DUP3 ADD MLOAD DUP2 DUP5 ADD MSTORE PUSH1 0x20 DUP2 ADD SWAP1 POP PUSH2 0xB78 JUMP JUMPDEST DUP4 DUP2 GT ISZERO PUSH2 0xBA2 JUMPI PUSH1 0x0 DUP5 DUP5 ADD MSTORE JUMPDEST POP POP POP POP JUMP JUMPDEST PUSH2 0xBB1 DUP3 PUSH2 0xC08 JUMP JUMPDEST DUP2 ADD DUP2 DUP2 LT PUSH8 0xFFFFFFFFFFFFFFFF DUP3 GT OR ISZERO PUSH2 0xBD0 JUMPI PUSH2 0xBCF PUSH2 0xBD9 JUMP JUMPDEST JUMPDEST DUP1 PUSH1 0x40 MSTORE POP POP POP JUMP JUMPDEST PUSH32 0x4E487B7100000000000000000000000000000000000000000000000000000000 PUSH1 0x0 MSTORE PUSH1 0x41 PUSH1 0x4 MSTORE PUSH1 0x24 PUSH1 0x0 REVERT JUMPDEST PUSH1 0x0 PUSH1 0x1F NOT PUSH1 0x1F DUP4 ADD AND SWAP1 POP SWAP2 SWAP1 POP JUMP JUMPDEST PUSH32 0x4F776E61626C653A206E6577206F776E657220697320746865207A65726F2061 PUSH1 0x0 DUP3 ADD MSTORE PUSH32 0x6464726573730000000000000000000000000000000000000000000000000000 PUSH1 0x20 DUP3 ADD MSTORE POP JUMP JUMPDEST PUSH32 0x4F776E61626C653A2063616C6C6572206973206E6F7420746865206F776E6572 PUSH1 0x0 DUP3 ADD MSTORE POP JUMP JUMPDEST PUSH2 0xC9A DUP2 PUSH2 0xB2A JUMP JUMPDEST DUP2 EQ PUSH2 0xCA5 JUMPI PUSH1 0x0 DUP1 REVERT JUMPDEST POP JUMP JUMPDEST PUSH2 0xCB1 DUP2 PUSH2 0xB5C JUMP JUMPDEST DUP2 EQ PUSH2 0xCBC JUMPI PUSH1 0x0 DUP1 REVERT JUMPDEST POP JUMP INVALID LOG2 PUSH5 0x6970667358 0x22 SLT KECCAK256 DUP16 LOG4 0xE0 PUSH10 0x6AD6716C60A30BCD4FCE PC STOP EXTCODESIZE 0xB6 PUSH11 0x4DCC2E5681D26B26AEC2E CREATE2 PUSH12 0x64736F6C6343000801003300 "
				},
				"gasEstimates": {
					"creation": {
						"codeDepositCost": "663400",
						"executionCost": "infinite",
						"totalCost": "infinite"
					},
					"external": {
						"owner()": "1266",
						"preLoadURIs(uint256[],string[])": "infinite",
						"renounceOwnership()": "24396",
						"setStorageContractAddress(address)": "22262",
						"storageContract()": "1192",
						"transferOwnership(address)": "24811"
					},
					"internal": {
						"mintNextNftToAddress(address)": "infinite"
					}
				},
				"methodIdentifiers": {
					"owner()": "8da5cb5b",
					"preLoadURIs(uint256[],string[])": "f121da92",
					"renounceOwnership()": "715018a6",
					"setStorageContractAddress(address)": "51f7598c",
					"storageContract()": "11ce0267",
					"transferOwnership(address)": "f2fde38b"
				}
			},
			"storageLayout": {
				"storage": [
					{
						"astId": 7,
						"contract": "contracts/Founding Citizens NFT Sale.sol:FoundingNFTSale",
						"label": "_owner",
						"offset": 0,
						"slot": "0",
						"type": "t_address"
					},
					{
						"astId": 148,
						"contract": "contracts/Founding Citizens NFT Sale.sol:FoundingNFTSale",
						"label": "storageContract",
						"offset": 0,
						"slot": "1",
						"type": "t_address"
					}
				],
				"types": {
					"t_address": {
						"encoding": "inplace",
						"label": "address",
						"numberOfBytes": "20"
					}
				}
			},
			"userdoc": {
				"kind": "user",
				"methods": {},
				"version": 1
			}
		}
	}
}