{
	"contracts/Founding Citizens NFT Sale.sol": {
		"FoundingNFTSale": {
			"abi": [
				{
					"inputs": [],
					"stateMutability": "nonpayable",
					"type": "constructor"
				},
				{
					"anonymous": false,
					"inputs": [
						{
							"indexed": true,
							"internalType": "address",
							"name": "previousOwner",
							"type": "address"
						},
						{
							"indexed": true,
							"internalType": "address",
							"name": "newOwner",
							"type": "address"
						}
					],
					"name": "OwnershipTransferred",
					"type": "event"
				},
				{
					"inputs": [],
					"name": "ERC1155storageContract",
					"outputs": [
						{
							"internalType": "contract IMintStorage",
							"name": "",
							"type": "address"
						}
					],
					"stateMutability": "view",
					"type": "function"
				},
				{
					"inputs": [],
					"name": "buyNFT",
					"outputs": [],
					"stateMutability": "nonpayable",
					"type": "function"
				},
				{
					"inputs": [
						{
							"internalType": "address",
							"name": "prospectiveBuyer",
							"type": "address"
						}
					],
					"name": "calculateCustomPrice",
					"outputs": [
						{
							"internalType": "uint256",
							"name": "",
							"type": "uint256"
						}
					],
					"stateMutability": "nonpayable",
					"type": "function"
				},
				{
					"inputs": [],
					"name": "getMaxSupply",
					"outputs": [
						{
							"internalType": "uint256",
							"name": "",
							"type": "uint256"
						}
					],
					"stateMutability": "view",
					"type": "function"
				},
				{
					"inputs": [],
					"name": "getNextUnusedToken",
					"outputs": [
						{
							"internalType": "uint256",
							"name": "",
							"type": "uint256"
						}
					],
					"stateMutability": "view",
					"type": "function"
				},
				{
					"inputs": [],
					"name": "lastUpdate",
					"outputs": [
						{
							"internalType": "uint256",
							"name": "price",
							"type": "uint256"
						},
						{
							"internalType": "uint256",
							"name": "time",
							"type": "uint256"
						},
						{
							"internalType": "bool",
							"name": "saleIsLive",
							"type": "bool"
						}
					],
					"stateMutability": "view",
					"type": "function"
				},
				{
					"inputs": [],
					"name": "mintToTreasuryAddress",
					"outputs": [],
					"stateMutability": "nonpayable",
					"type": "function"
				},
				{
					"inputs": [],
					"name": "owner",
					"outputs": [
						{
							"internalType": "address",
							"name": "",
							"type": "address"
						}
					],
					"stateMutability": "view",
					"type": "function"
				},
				{
					"inputs": [
						{
							"internalType": "uint256[]",
							"name": "ids",
							"type": "uint256[]"
						},
						{
							"internalType": "string[]",
							"name": "uris",
							"type": "string[]"
						}
					],
					"name": "preLoadURIs",
					"outputs": [],
					"stateMutability": "nonpayable",
					"type": "function"
				},
				{
					"inputs": [],
					"name": "privildgedBuyerList",
					"outputs": [
						{
							"internalType": "address",
							"name": "",
							"type": "address"
						}
					],
					"stateMutability": "view",
					"type": "function"
				},
				{
					"inputs": [],
					"name": "renounceOwnership",
					"outputs": [],
					"stateMutability": "nonpayable",
					"type": "function"
				},
				{
					"inputs": [
						{
							"internalType": "address",
							"name": "storageAddress",
							"type": "address"
						}
					],
					"name": "setStorageContractAddress",
					"outputs": [],
					"stateMutability": "nonpayable",
					"type": "function"
				},
				{
					"inputs": [
						{
							"internalType": "uint256",
							"name": "unixTime",
							"type": "uint256"
						}
					],
					"name": "setendTime",
					"outputs": [],
					"stateMutability": "nonpayable",
					"type": "function"
				},
				{
					"inputs": [
						{
							"internalType": "uint256",
							"name": "unixTime",
							"type": "uint256"
						}
					],
					"name": "setstartTime",
					"outputs": [],
					"stateMutability": "nonpayable",
					"type": "function"
				},
				{
					"inputs": [
						{
							"internalType": "address",
							"name": "newOwner",
							"type": "address"
						}
					],
					"name": "transferOwnership",
					"outputs": [],
					"stateMutability": "nonpayable",
					"type": "function"
				},
				{
					"inputs": [],
					"name": "treasuryAddress",
					"outputs": [
						{
							"internalType": "address",
							"name": "",
							"type": "address"
						}
					],
					"stateMutability": "view",
					"type": "function"
				},
				{
					"inputs": [],
					"name": "usdcEscrowStorageContract",
					"outputs": [
						{
							"internalType": "contract IUsdcStorage",
							"name": "",
							"type": "address"
						}
					],
					"stateMutability": "view",
					"type": "function"
				}
			],
			"devdoc": {
				"kind": "dev",
				"methods": {
					"owner()": {
						"details": "Returns the address of the current owner."
					},
					"renounceOwnership()": {
						"details": "Leaves the contract without owner. It will not be possible to call `onlyOwner` functions anymore. Can only be called by the current owner. NOTE: Renouncing ownership will leave the contract without an owner, thereby removing any functionality that is only available to the owner."
					},
					"transferOwnership(address)": {
						"details": "Transfers ownership of the contract to a new account (`newOwner`). Can only be called by the current owner."
					}
				},
				"version": 1
			},
			"evm": {
				"assembly": "    /* \"contracts/Founding Citizens NFT Sale.sol\":2490:5658  contract FoundingNFTSale is Ownable {\r... */\n  mstore(0x40, 0x80)\n    /* \"contracts/Founding Citizens NFT Sale.sol\":2732:2742  1893484800 */\n  0x70dc4900\n    /* \"contracts/Founding Citizens NFT Sale.sol\":2714:2742  uint startTime  = 1893484800 */\n  0x05\n  sstore\n    /* \"contracts/Founding Citizens NFT Sale.sol\":2845:2855  1893484900 */\n  0x70dc4964\n    /* \"contracts/Founding Citizens NFT Sale.sol\":2827:2855  uint endTime    = 1893484900 */\n  0x06\n  sstore\n    /* \"contracts/Founding Citizens NFT Sale.sol\":2882:2884  10 */\n  0x0a\n    /* \"contracts/Founding Citizens NFT Sale.sol\":2864:2884  uint startPrice = 10 */\n  0x07\n  sstore\n    /* \"contracts/Founding Citizens NFT Sale.sol\":2940:2941  1 */\n  0x01\n    /* \"contracts/Founding Citizens NFT Sale.sol\":2924:2941  uint EndPrice = 1 */\n  0x08\n  sstore\n    /* \"contracts/Founding Citizens NFT Sale.sol\":3121:3158  Update(10000, block.timestamp, false) */\n  mload(0x40)\n  dup1\n  0x60\n  add\n  0x40\n  mstore\n  dup1\n    /* \"contracts/Founding Citizens NFT Sale.sol\":3128:3133  10000 */\n  0x2710\n    /* \"contracts/Founding Citizens NFT Sale.sol\":3121:3158  Update(10000, block.timestamp, false) */\n  dup2\n  mstore\n  0x20\n  add\n    /* \"contracts/Founding Citizens NFT Sale.sol\":3135:3150  block.timestamp */\n  timestamp\n    /* \"contracts/Founding Citizens NFT Sale.sol\":3121:3158  Update(10000, block.timestamp, false) */\n  dup2\n  mstore\n  0x20\n  add\n    /* \"contracts/Founding Citizens NFT Sale.sol\":3152:3157  false */\n  0x00\n    /* \"contracts/Founding Citizens NFT Sale.sol\":3121:3158  Update(10000, block.timestamp, false) */\n  iszero\n  iszero\n  dup2\n  mstore\n  pop\n    /* \"contracts/Founding Citizens NFT Sale.sol\":3094:3158  Update public lastUpdate = Update(10000, block.timestamp, false) */\n  0x09\n  0x00\n  dup3\n  add\n  mload\n  dup2\n  0x00\n  add\n  sstore\n  0x20\n  dup3\n  add\n  mload\n  dup2\n  0x01\n  add\n  sstore\n  0x40\n  dup3\n  add\n  mload\n  dup2\n  0x02\n  add\n  exp(0x0100, 0x00)\n  dup2\n  sload\n  dup2\n  0xff\n  mul\n  not\n  and\n  swap1\n  dup4\n  iszero\n  iszero\n  mul\n  or\n  swap1\n  sstore\n  pop\n  pop\n  pop\n    /* \"contracts/Founding Citizens NFT Sale.sol\":3383:3415  constructor() {\r... */\n  callvalue\n  dup1\n  iszero\n  tag_1\n  jumpi\n  0x00\n  dup1\n  revert\ntag_1:\n  pop\n    /* \"@openzeppelin/contracts@4.4.2/access/Ownable.sol\":921:953  _transferOwnership(_msgSender()) */\n  tag_5\n    /* \"@openzeppelin/contracts@4.4.2/access/Ownable.sol\":940:952  _msgSender() */\n  tag_6\n    /* \"@openzeppelin/contracts@4.4.2/access/Ownable.sol\":940:950  _msgSender */\n  shl(0x20, tag_7)\n    /* \"@openzeppelin/contracts@4.4.2/access/Ownable.sol\":940:952  _msgSender() */\n  0x20\n  shr\n  jump\t// in\ntag_6:\n    /* \"@openzeppelin/contracts@4.4.2/access/Ownable.sol\":921:939  _transferOwnership */\n  shl(0x20, tag_8)\n    /* \"@openzeppelin/contracts@4.4.2/access/Ownable.sol\":921:953  _transferOwnership(_msgSender()) */\n  0x20\n  shr\n  jump\t// in\ntag_5:\n    /* \"contracts/Founding Citizens NFT Sale.sol\":2490:5658  contract FoundingNFTSale is Ownable {\r... */\n  jump(tag_10)\n    /* \"@openzeppelin/contracts@4.4.2/utils/Context.sol\":640:736  function _msgSender() internal view virtual returns (address) {... */\ntag_7:\n    /* \"@openzeppelin/contracts@4.4.2/utils/Context.sol\":693:700  address */\n  0x00\n    /* \"@openzeppelin/contracts@4.4.2/utils/Context.sol\":719:729  msg.sender */\n  caller\n    /* \"@openzeppelin/contracts@4.4.2/utils/Context.sol\":712:729  return msg.sender */\n  swap1\n  pop\n    /* \"@openzeppelin/contracts@4.4.2/utils/Context.sol\":640:736  function _msgSender() internal view virtual returns (address) {... */\n  swap1\n  jump\t// out\n    /* \"@openzeppelin/contracts@4.4.2/access/Ownable.sol\":2270:2457  function _transferOwnership(address newOwner) internal virtual {... */\ntag_8:\n    /* \"@openzeppelin/contracts@4.4.2/access/Ownable.sol\":2343:2359  address oldOwner */\n  0x00\n    /* \"@openzeppelin/contracts@4.4.2/access/Ownable.sol\":2362:2368  _owner */\n  dup1\n  0x00\n  swap1\n  sload\n  swap1\n  0x0100\n  exp\n  swap1\n  div\n  0xffffffffffffffffffffffffffffffffffffffff\n  and\n    /* \"@openzeppelin/contracts@4.4.2/access/Ownable.sol\":2343:2368  address oldOwner = _owner */\n  swap1\n  pop\n    /* \"@openzeppelin/contracts@4.4.2/access/Ownable.sol\":2387:2395  newOwner */\n  dup2\n    /* \"@openzeppelin/contracts@4.4.2/access/Ownable.sol\":2378:2384  _owner */\n  0x00\n  dup1\n    /* \"@openzeppelin/contracts@4.4.2/access/Ownable.sol\":2378:2395  _owner = newOwner */\n  0x0100\n  exp\n  dup2\n  sload\n  dup2\n  0xffffffffffffffffffffffffffffffffffffffff\n  mul\n  not\n  and\n  swap1\n  dup4\n  0xffffffffffffffffffffffffffffffffffffffff\n  and\n  mul\n  or\n  swap1\n  sstore\n  pop\n    /* \"@openzeppelin/contracts@4.4.2/access/Ownable.sol\":2441:2449  newOwner */\n  dup2\n    /* \"@openzeppelin/contracts@4.4.2/access/Ownable.sol\":2410:2450  OwnershipTransferred(oldOwner, newOwner) */\n  0xffffffffffffffffffffffffffffffffffffffff\n  and\n    /* \"@openzeppelin/contracts@4.4.2/access/Ownable.sol\":2431:2439  oldOwner */\n  dup2\n    /* \"@openzeppelin/contracts@4.4.2/access/Ownable.sol\":2410:2450  OwnershipTransferred(oldOwner, newOwner) */\n  0xffffffffffffffffffffffffffffffffffffffff\n  and\n  0x8be0079c531659141344cd1fd0a4f28419497f9722a3daafe3b4186f6b6457e0\n  mload(0x40)\n  mload(0x40)\n  dup1\n  swap2\n  sub\n  swap1\n  log3\n    /* \"@openzeppelin/contracts@4.4.2/access/Ownable.sol\":2270:2457  function _transferOwnership(address newOwner) internal virtual {... */\n  pop\n  pop\n  jump\t// out\n    /* \"contracts/Founding Citizens NFT Sale.sol\":2490:5658  contract FoundingNFTSale is Ownable {\r... */\ntag_10:\n  dataSize(sub_0)\n  dup1\n  dataOffset(sub_0)\n  0x00\n  codecopy\n  0x00\n  return\nstop\n\nsub_0: assembly {\n        /* \"contracts/Founding Citizens NFT Sale.sol\":2490:5658  contract FoundingNFTSale is Ownable {\r... */\n      mstore(0x40, 0x80)\n      callvalue\n      dup1\n      iszero\n      tag_1\n      jumpi\n      0x00\n      dup1\n      revert\n    tag_1:\n      pop\n      jumpi(tag_2, lt(calldatasize, 0x04))\n      shr(0xe0, calldataload(0x00))\n      dup1\n      0x91232f18\n      gt\n      tag_20\n      jumpi\n      dup1\n      0xc0463711\n      gt\n      tag_21\n      jumpi\n      dup1\n      0xc0463711\n      eq\n      tag_15\n      jumpi\n      dup1\n      0xc5dae48f\n      eq\n      tag_16\n      jumpi\n      dup1\n      0xc5f956af\n      eq\n      tag_17\n      jumpi\n      dup1\n      0xf121da92\n      eq\n      tag_18\n      jumpi\n      dup1\n      0xf2fde38b\n      eq\n      tag_19\n      jumpi\n      jump(tag_2)\n    tag_21:\n      dup1\n      0x91232f18\n      eq\n      tag_11\n      jumpi\n      dup1\n      0x944044a1\n      eq\n      tag_12\n      jumpi\n      dup1\n      0xb79d283f\n      eq\n      tag_13\n      jumpi\n      dup1\n      0xbff29cee\n      eq\n      tag_14\n      jumpi\n      jump(tag_2)\n    tag_20:\n      dup1\n      0x715018a6\n      gt\n      tag_22\n      jumpi\n      dup1\n      0x715018a6\n      eq\n      tag_7\n      jumpi\n      dup1\n      0x7a6a23fd\n      eq\n      tag_8\n      jumpi\n      dup1\n      0x8c83faeb\n      eq\n      tag_9\n      jumpi\n      dup1\n      0x8da5cb5b\n      eq\n      tag_10\n      jumpi\n      jump(tag_2)\n    tag_22:\n      dup1\n      0x4aca10a6\n      eq\n      tag_3\n      jumpi\n      dup1\n      0x4c0f38c2\n      eq\n      tag_4\n      jumpi\n      dup1\n      0x51f7598c\n      eq\n      tag_5\n      jumpi\n      dup1\n      0x68fc01a2\n      eq\n      tag_6\n      jumpi\n    tag_2:\n      0x00\n      dup1\n      revert\n        /* \"contracts/Founding Citizens NFT Sale.sol\":2582:2616  address public privildgedBuyerList */\n    tag_3:\n      tag_23\n      tag_24\n      jump\t// in\n    tag_23:\n      mload(0x40)\n      tag_25\n      swap2\n      swap1\n      tag_26\n      jump\t// in\n    tag_25:\n      mload(0x40)\n      dup1\n      swap2\n      sub\n      swap1\n      return\n        /* \"contracts/Founding Citizens NFT Sale.sol\":4529:4656  function getMaxSupply() public view returns(uint) {\r... */\n    tag_4:\n      tag_27\n      tag_28\n      jump\t// in\n    tag_27:\n      mload(0x40)\n      tag_29\n      swap2\n      swap1\n      tag_30\n      jump\t// in\n    tag_29:\n      mload(0x40)\n      dup1\n      swap2\n      sub\n      swap1\n      return\n        /* \"contracts/Founding Citizens NFT Sale.sol\":3922:4070  function setStorageContractAddress(address storageAddress) public onlyOwner {\r... */\n    tag_5:\n      tag_31\n      0x04\n      dup1\n      calldatasize\n      sub\n      dup2\n      add\n      swap1\n      tag_32\n      swap2\n      swap1\n      tag_33\n      jump\t// in\n    tag_32:\n      tag_34\n      jump\t// in\n    tag_31:\n      stop\n        /* \"contracts/Founding Citizens NFT Sale.sol\":4382:4521  function getNextUnusedToken() public view returns(uint) {\r... */\n    tag_6:\n      tag_35\n      tag_36\n      jump\t// in\n    tag_35:\n      mload(0x40)\n      tag_37\n      swap2\n      swap1\n      tag_30\n      jump\t// in\n    tag_37:\n      mload(0x40)\n      dup1\n      swap2\n      sub\n      swap1\n      return\n        /* \"@openzeppelin/contracts@4.4.2/access/Ownable.sol\":1668:1769  function renounceOwnership() public virtual onlyOwner {... */\n    tag_7:\n      tag_38\n      tag_39\n      jump\t// in\n    tag_38:\n      stop\n        /* \"contracts/Founding Citizens NFT Sale.sol\":4862:5006  function calculateCustomPrice(address prospectiveBuyer) public requiresUpdate returns(uint) {\r... */\n    tag_8:\n      tag_40\n      0x04\n      dup1\n      calldatasize\n      sub\n      dup2\n      add\n      swap1\n      tag_41\n      swap2\n      swap1\n      tag_33\n      jump\t// in\n    tag_41:\n      tag_42\n      jump\t// in\n    tag_40:\n      mload(0x40)\n      tag_43\n      swap2\n      swap1\n      tag_30\n      jump\t// in\n    tag_43:\n      mload(0x40)\n      dup1\n      swap2\n      sub\n      swap1\n      return\n        /* \"contracts/Founding Citizens NFT Sale.sol\":2533:2575  IMintStorage public ERC1155storageContract */\n    tag_9:\n      tag_44\n      tag_45\n      jump\t// in\n    tag_44:\n      mload(0x40)\n      tag_46\n      swap2\n      swap1\n      tag_47\n      jump\t// in\n    tag_46:\n      mload(0x40)\n      dup1\n      swap2\n      sub\n      swap1\n      return\n        /* \"@openzeppelin/contracts@4.4.2/access/Ownable.sol\":1036:1121  function owner() public view virtual returns (address) {... */\n    tag_10:\n      tag_48\n      tag_49\n      jump\t// in\n    tag_48:\n      mload(0x40)\n      tag_50\n      swap2\n      swap1\n      tag_26\n      jump\t// in\n    tag_50:\n      mload(0x40)\n      dup1\n      swap2\n      sub\n      swap1\n      return\n        /* \"contracts/Founding Citizens NFT Sale.sol\":5282:5655  function mintToTreasuryAddress() public requiresUpdate {\r... */\n    tag_11:\n      tag_51\n      tag_52\n      jump\t// in\n    tag_51:\n      stop\n        /* \"contracts/Founding Citizens NFT Sale.sol\":4664:4757  function setstartTime(uint unixTime) public onlyOwner {\r... */\n    tag_12:\n      tag_53\n      0x04\n      dup1\n      calldatasize\n      sub\n      dup2\n      add\n      swap1\n      tag_54\n      swap2\n      swap1\n      tag_55\n      jump\t// in\n    tag_54:\n      tag_56\n      jump\t// in\n    tag_53:\n      stop\n        /* \"contracts/Founding Citizens NFT Sale.sol\":4765:4854  function setendTime(uint unixTime) public onlyOwner {\r... */\n    tag_13:\n      tag_57\n      0x04\n      dup1\n      calldatasize\n      sub\n      dup2\n      add\n      swap1\n      tag_58\n      swap2\n      swap1\n      tag_55\n      jump\t// in\n    tag_58:\n      tag_59\n      jump\t// in\n    tag_57:\n      stop\n        /* \"contracts/Founding Citizens NFT Sale.sol\":5018:5274  function buyNFT() public requiresUpdate { //requires using existing balance\r... */\n    tag_14:\n      tag_60\n      tag_61\n      jump\t// in\n    tag_60:\n      stop\n        /* \"contracts/Founding Citizens NFT Sale.sol\":3094:3158  Update public lastUpdate = Update(10000, block.timestamp, false) */\n    tag_15:\n      tag_62\n      tag_63\n      jump\t// in\n    tag_62:\n      mload(0x40)\n      tag_64\n      swap4\n      swap3\n      swap2\n      swap1\n      tag_65\n      jump\t// in\n    tag_64:\n      mload(0x40)\n      dup1\n      swap2\n      sub\n      swap1\n      return\n        /* \"contracts/Founding Citizens NFT Sale.sol\":2623:2668  IUsdcStorage public usdcEscrowStorageContract */\n    tag_16:\n      tag_66\n      tag_67\n      jump\t// in\n    tag_66:\n      mload(0x40)\n      tag_68\n      swap2\n      swap1\n      tag_69\n      jump\t// in\n    tag_68:\n      mload(0x40)\n      dup1\n      swap2\n      sub\n      swap1\n      return\n        /* \"contracts/Founding Citizens NFT Sale.sol\":2675:2705  address public treasuryAddress */\n    tag_17:\n      tag_70\n      tag_71\n      jump\t// in\n    tag_70:\n      mload(0x40)\n      tag_72\n      swap2\n      swap1\n      tag_26\n      jump\t// in\n    tag_72:\n      mload(0x40)\n      dup1\n      swap2\n      sub\n      swap1\n      return\n        /* \"contracts/Founding Citizens NFT Sale.sol\":4217:4374  function preLoadURIs(uint[] memory ids, string[] memory uris) public onlyOwner {\r... */\n    tag_18:\n      tag_73\n      0x04\n      dup1\n      calldatasize\n      sub\n      dup2\n      add\n      swap1\n      tag_74\n      swap2\n      swap1\n      tag_75\n      jump\t// in\n    tag_74:\n      tag_76\n      jump\t// in\n    tag_73:\n      stop\n        /* \"@openzeppelin/contracts@4.4.2/access/Ownable.sol\":1918:2116  function transferOwnership(address newOwner) public virtual onlyOwner {... */\n    tag_19:\n      tag_77\n      0x04\n      dup1\n      calldatasize\n      sub\n      dup2\n      add\n      swap1\n      tag_78\n      swap2\n      swap1\n      tag_33\n      jump\t// in\n    tag_78:\n      tag_79\n      jump\t// in\n    tag_77:\n      stop\n        /* \"contracts/Founding Citizens NFT Sale.sol\":2582:2616  address public privildgedBuyerList */\n    tag_24:\n      0x02\n      0x00\n      swap1\n      sload\n      swap1\n      0x0100\n      exp\n      swap1\n      div\n      0xffffffffffffffffffffffffffffffffffffffff\n      and\n      dup2\n      jump\t// out\n        /* \"contracts/Founding Citizens NFT Sale.sol\":4529:4656  function getMaxSupply() public view returns(uint) {\r... */\n    tag_28:\n        /* \"contracts/Founding Citizens NFT Sale.sol\":4573:4577  uint */\n      0x00\n        /* \"contracts/Founding Citizens NFT Sale.sol\":4610:4632  ERC1155storageContract */\n      0x01\n      0x00\n      swap1\n      sload\n      swap1\n      0x0100\n      exp\n      swap1\n      div\n      0xffffffffffffffffffffffffffffffffffffffff\n      and\n        /* \"contracts/Founding Citizens NFT Sale.sol\":4597:4646  IMintStorage(ERC1155storageContract).getMaxSupply */\n      0xffffffffffffffffffffffffffffffffffffffff\n      and\n      0x4c0f38c2\n        /* \"contracts/Founding Citizens NFT Sale.sol\":4597:4648  IMintStorage(ERC1155storageContract).getMaxSupply() */\n      mload(0x40)\n      dup2\n      0xffffffff\n      and\n      0xe0\n      shl\n      dup2\n      mstore\n      0x04\n      add\n      0x20\n      mload(0x40)\n      dup1\n      dup4\n      sub\n      dup2\n      dup7\n      dup1\n      extcodesize\n      iszero\n      dup1\n      iszero\n      tag_81\n      jumpi\n      0x00\n      dup1\n      revert\n    tag_81:\n      pop\n      gas\n      staticcall\n      iszero\n      dup1\n      iszero\n      tag_83\n      jumpi\n      returndatasize\n      0x00\n      dup1\n      returndatacopy\n      revert(0x00, returndatasize)\n    tag_83:\n      pop\n      pop\n      pop\n      pop\n      mload(0x40)\n      returndatasize\n      not(0x1f)\n      0x1f\n      dup3\n      add\n      and\n      dup3\n      add\n      dup1\n      0x40\n      mstore\n      pop\n      dup2\n      add\n      swap1\n      tag_84\n      swap2\n      swap1\n      tag_85\n      jump\t// in\n    tag_84:\n        /* \"contracts/Founding Citizens NFT Sale.sol\":4590:4648  return IMintStorage(ERC1155storageContract).getMaxSupply() */\n      swap1\n      pop\n        /* \"contracts/Founding Citizens NFT Sale.sol\":4529:4656  function getMaxSupply() public view returns(uint) {\r... */\n      swap1\n      jump\t// out\n        /* \"contracts/Founding Citizens NFT Sale.sol\":3922:4070  function setStorageContractAddress(address storageAddress) public onlyOwner {\r... */\n    tag_34:\n        /* \"@openzeppelin/contracts@4.4.2/access/Ownable.sol\":1259:1271  _msgSender() */\n      tag_87\n        /* \"@openzeppelin/contracts@4.4.2/access/Ownable.sol\":1259:1269  _msgSender */\n      tag_88\n        /* \"@openzeppelin/contracts@4.4.2/access/Ownable.sol\":1259:1271  _msgSender() */\n      jump\t// in\n    tag_87:\n        /* \"@openzeppelin/contracts@4.4.2/access/Ownable.sol\":1248:1271  owner() == _msgSender() */\n      0xffffffffffffffffffffffffffffffffffffffff\n      and\n        /* \"@openzeppelin/contracts@4.4.2/access/Ownable.sol\":1248:1255  owner() */\n      tag_89\n        /* \"@openzeppelin/contracts@4.4.2/access/Ownable.sol\":1248:1253  owner */\n      tag_49\n        /* \"@openzeppelin/contracts@4.4.2/access/Ownable.sol\":1248:1255  owner() */\n      jump\t// in\n    tag_89:\n        /* \"@openzeppelin/contracts@4.4.2/access/Ownable.sol\":1248:1271  owner() == _msgSender() */\n      0xffffffffffffffffffffffffffffffffffffffff\n      and\n      eq\n        /* \"@openzeppelin/contracts@4.4.2/access/Ownable.sol\":1240:1308  require(owner() == _msgSender(), \"Ownable: caller is not the owner\") */\n      tag_90\n      jumpi\n      mload(0x40)\n      0x08c379a000000000000000000000000000000000000000000000000000000000\n      dup2\n      mstore\n      0x04\n      add\n      tag_91\n      swap1\n      tag_92\n      jump\t// in\n    tag_91:\n      mload(0x40)\n      dup1\n      swap2\n      sub\n      swap1\n      revert\n    tag_90:\n        /* \"contracts/Founding Citizens NFT Sale.sol\":4047:4061  storageAddress */\n      dup1\n        /* \"contracts/Founding Citizens NFT Sale.sol\":4009:4031  ERC1155storageContract */\n      0x01\n      0x00\n        /* \"contracts/Founding Citizens NFT Sale.sol\":4009:4062  ERC1155storageContract = IMintStorage(storageAddress) */\n      0x0100\n      exp\n      dup2\n      sload\n      dup2\n      0xffffffffffffffffffffffffffffffffffffffff\n      mul\n      not\n      and\n      swap1\n      dup4\n      0xffffffffffffffffffffffffffffffffffffffff\n      and\n      mul\n      or\n      swap1\n      sstore\n      pop\n        /* \"contracts/Founding Citizens NFT Sale.sol\":3922:4070  function setStorageContractAddress(address storageAddress) public onlyOwner {\r... */\n      pop\n      jump\t// out\n        /* \"contracts/Founding Citizens NFT Sale.sol\":4382:4521  function getNextUnusedToken() public view returns(uint) {\r... */\n    tag_36:\n        /* \"contracts/Founding Citizens NFT Sale.sol\":4432:4436  uint */\n      0x00\n        /* \"contracts/Founding Citizens NFT Sale.sol\":4469:4491  ERC1155storageContract */\n      0x01\n      0x00\n      swap1\n      sload\n      swap1\n      0x0100\n      exp\n      swap1\n      div\n      0xffffffffffffffffffffffffffffffffffffffff\n      and\n        /* \"contracts/Founding Citizens NFT Sale.sol\":4456:4511  IMintStorage(ERC1155storageContract).getNextUnusedToken */\n      0xffffffffffffffffffffffffffffffffffffffff\n      and\n      0x68fc01a2\n        /* \"contracts/Founding Citizens NFT Sale.sol\":4456:4513  IMintStorage(ERC1155storageContract).getNextUnusedToken() */\n      mload(0x40)\n      dup2\n      0xffffffff\n      and\n      0xe0\n      shl\n      dup2\n      mstore\n      0x04\n      add\n      0x20\n      mload(0x40)\n      dup1\n      dup4\n      sub\n      dup2\n      dup7\n      dup1\n      extcodesize\n      iszero\n      dup1\n      iszero\n      tag_95\n      jumpi\n      0x00\n      dup1\n      revert\n    tag_95:\n      pop\n      gas\n      staticcall\n      iszero\n      dup1\n      iszero\n      tag_97\n      jumpi\n      returndatasize\n      0x00\n      dup1\n      returndatacopy\n      revert(0x00, returndatasize)\n    tag_97:\n      pop\n      pop\n      pop\n      pop\n      mload(0x40)\n      returndatasize\n      not(0x1f)\n      0x1f\n      dup3\n      add\n      and\n      dup3\n      add\n      dup1\n      0x40\n      mstore\n      pop\n      dup2\n      add\n      swap1\n      tag_98\n      swap2\n      swap1\n      tag_85\n      jump\t// in\n    tag_98:\n        /* \"contracts/Founding Citizens NFT Sale.sol\":4449:4513  return IMintStorage(ERC1155storageContract).getNextUnusedToken() */\n      swap1\n      pop\n        /* \"contracts/Founding Citizens NFT Sale.sol\":4382:4521  function getNextUnusedToken() public view returns(uint) {\r... */\n      swap1\n      jump\t// out\n        /* \"@openzeppelin/contracts@4.4.2/access/Ownable.sol\":1668:1769  function renounceOwnership() public virtual onlyOwner {... */\n    tag_39:\n        /* \"@openzeppelin/contracts@4.4.2/access/Ownable.sol\":1259:1271  _msgSender() */\n      tag_100\n        /* \"@openzeppelin/contracts@4.4.2/access/Ownable.sol\":1259:1269  _msgSender */\n      tag_88\n        /* \"@openzeppelin/contracts@4.4.2/access/Ownable.sol\":1259:1271  _msgSender() */\n      jump\t// in\n    tag_100:\n        /* \"@openzeppelin/contracts@4.4.2/access/Ownable.sol\":1248:1271  owner() == _msgSender() */\n      0xffffffffffffffffffffffffffffffffffffffff\n      and\n        /* \"@openzeppelin/contracts@4.4.2/access/Ownable.sol\":1248:1255  owner() */\n      tag_101\n        /* \"@openzeppelin/contracts@4.4.2/access/Ownable.sol\":1248:1253  owner */\n      tag_49\n        /* \"@openzeppelin/contracts@4.4.2/access/Ownable.sol\":1248:1255  owner() */\n      jump\t// in\n    tag_101:\n        /* \"@openzeppelin/contracts@4.4.2/access/Ownable.sol\":1248:1271  owner() == _msgSender() */\n      0xffffffffffffffffffffffffffffffffffffffff\n      and\n      eq\n        /* \"@openzeppelin/contracts@4.4.2/access/Ownable.sol\":1240:1308  require(owner() == _msgSender(), \"Ownable: caller is not the owner\") */\n      tag_102\n      jumpi\n      mload(0x40)\n      0x08c379a000000000000000000000000000000000000000000000000000000000\n      dup2\n      mstore\n      0x04\n      add\n      tag_103\n      swap1\n      tag_92\n      jump\t// in\n    tag_103:\n      mload(0x40)\n      dup1\n      swap2\n      sub\n      swap1\n      revert\n    tag_102:\n        /* \"@openzeppelin/contracts@4.4.2/access/Ownable.sol\":1732:1762  _transferOwnership(address(0)) */\n      tag_105\n        /* \"@openzeppelin/contracts@4.4.2/access/Ownable.sol\":1759:1760  0 */\n      0x00\n        /* \"@openzeppelin/contracts@4.4.2/access/Ownable.sol\":1732:1750  _transferOwnership */\n      tag_106\n        /* \"@openzeppelin/contracts@4.4.2/access/Ownable.sol\":1732:1762  _transferOwnership(address(0)) */\n      jump\t// in\n    tag_105:\n        /* \"@openzeppelin/contracts@4.4.2/access/Ownable.sol\":1668:1769  function renounceOwnership() public virtual onlyOwner {... */\n      jump\t// out\n        /* \"contracts/Founding Citizens NFT Sale.sol\":4862:5006  function calculateCustomPrice(address prospectiveBuyer) public requiresUpdate returns(uint) {\r... */\n    tag_42:\n        /* \"contracts/Founding Citizens NFT Sale.sol\":4948:4952  uint */\n      0x00\n        /* \"contracts/Founding Citizens NFT Sale.sol\":3204:3217  updateState() */\n      tag_108\n        /* \"contracts/Founding Citizens NFT Sale.sol\":3204:3215  updateState */\n      tag_109\n        /* \"contracts/Founding Citizens NFT Sale.sol\":3204:3217  updateState() */\n      jump\t// in\n    tag_108:\n        /* \"contracts/Founding Citizens NFT Sale.sol\":4965:4975  uint price */\n      0x00\n        /* \"contracts/Founding Citizens NFT Sale.sol\":4993:4998  price */\n      dup1\n        /* \"contracts/Founding Citizens NFT Sale.sol\":4986:4998  return price */\n      swap2\n      pop\n      pop\n        /* \"contracts/Founding Citizens NFT Sale.sol\":4862:5006  function calculateCustomPrice(address prospectiveBuyer) public requiresUpdate returns(uint) {\r... */\n      swap2\n      swap1\n      pop\n      jump\t// out\n        /* \"contracts/Founding Citizens NFT Sale.sol\":2533:2575  IMintStorage public ERC1155storageContract */\n    tag_45:\n      0x01\n      0x00\n      swap1\n      sload\n      swap1\n      0x0100\n      exp\n      swap1\n      div\n      0xffffffffffffffffffffffffffffffffffffffff\n      and\n      dup2\n      jump\t// out\n        /* \"@openzeppelin/contracts@4.4.2/access/Ownable.sol\":1036:1121  function owner() public view virtual returns (address) {... */\n    tag_49:\n        /* \"@openzeppelin/contracts@4.4.2/access/Ownable.sol\":1082:1089  address */\n      0x00\n        /* \"@openzeppelin/contracts@4.4.2/access/Ownable.sol\":1108:1114  _owner */\n      dup1\n      0x00\n      swap1\n      sload\n      swap1\n      0x0100\n      exp\n      swap1\n      div\n      0xffffffffffffffffffffffffffffffffffffffff\n      and\n        /* \"@openzeppelin/contracts@4.4.2/access/Ownable.sol\":1101:1114  return _owner */\n      swap1\n      pop\n        /* \"@openzeppelin/contracts@4.4.2/access/Ownable.sol\":1036:1121  function owner() public view virtual returns (address) {... */\n      swap1\n      jump\t// out\n        /* \"contracts/Founding Citizens NFT Sale.sol\":5282:5655  function mintToTreasuryAddress() public requiresUpdate {\r... */\n    tag_52:\n        /* \"contracts/Founding Citizens NFT Sale.sol\":3204:3217  updateState() */\n      tag_113\n        /* \"contracts/Founding Citizens NFT Sale.sol\":3204:3215  updateState */\n      tag_109\n        /* \"contracts/Founding Citizens NFT Sale.sol\":3204:3217  updateState() */\n      jump\t// in\n    tag_113:\n        /* \"contracts/Founding Citizens NFT Sale.sol\":5374:5381  endTime */\n      sload(0x06)\n        /* \"contracts/Founding Citizens NFT Sale.sol\":5356:5371  block.timestamp */\n      timestamp\n        /* \"contracts/Founding Citizens NFT Sale.sol\":5356:5381  block.timestamp > endTime */\n      gt\n        /* \"contracts/Founding Citizens NFT Sale.sol\":5356:5407  block.timestamp > endTime && !lastUpdate.saleIsLive */\n      dup1\n      iszero\n      tag_115\n      jumpi\n      pop\n        /* \"contracts/Founding Citizens NFT Sale.sol\":5386:5396  lastUpdate */\n      0x09\n        /* \"contracts/Founding Citizens NFT Sale.sol\":5386:5407  lastUpdate.saleIsLive */\n      0x02\n      add\n      0x00\n      swap1\n      sload\n      swap1\n      0x0100\n      exp\n      swap1\n      div\n      0xff\n      and\n        /* \"contracts/Founding Citizens NFT Sale.sol\":5385:5407  !lastUpdate.saleIsLive */\n      iszero\n        /* \"contracts/Founding Citizens NFT Sale.sol\":5356:5407  block.timestamp > endTime && !lastUpdate.saleIsLive */\n    tag_115:\n        /* \"contracts/Founding Citizens NFT Sale.sol\":5348:5466  require(block.timestamp > endTime && !lastUpdate.saleIsLive, \"Cannot mint to treasury address until sale is finished\") */\n      tag_116\n      jumpi\n      mload(0x40)\n      0x08c379a000000000000000000000000000000000000000000000000000000000\n      dup2\n      mstore\n      0x04\n      add\n      tag_117\n      swap1\n      tag_118\n      jump\t// in\n    tag_117:\n      mload(0x40)\n      dup1\n      swap2\n      sub\n      swap1\n      revert\n    tag_116:\n        /* \"contracts/Founding Citizens NFT Sale.sol\":5477:5492  uint leftToMint */\n      0x00\n        /* \"contracts/Founding Citizens NFT Sale.sol\":5534:5535  1 */\n      0x01\n        /* \"contracts/Founding Citizens NFT Sale.sol\":5513:5533  getNextUnusedToken() */\n      tag_119\n        /* \"contracts/Founding Citizens NFT Sale.sol\":5513:5531  getNextUnusedToken */\n      tag_36\n        /* \"contracts/Founding Citizens NFT Sale.sol\":5513:5533  getNextUnusedToken() */\n      jump\t// in\n    tag_119:\n        /* \"contracts/Founding Citizens NFT Sale.sol\":5513:5535  getNextUnusedToken()-1 */\n      tag_120\n      swap2\n      swap1\n      tag_121\n      jump\t// in\n    tag_120:\n        /* \"contracts/Founding Citizens NFT Sale.sol\":5495:5509  getMaxSupply() */\n      tag_122\n        /* \"contracts/Founding Citizens NFT Sale.sol\":5495:5507  getMaxSupply */\n      tag_28\n        /* \"contracts/Founding Citizens NFT Sale.sol\":5495:5509  getMaxSupply() */\n      jump\t// in\n    tag_122:\n        /* \"contracts/Founding Citizens NFT Sale.sol\":5495:5536  getMaxSupply() - (getNextUnusedToken()-1) */\n      tag_123\n      swap2\n      swap1\n      tag_121\n      jump\t// in\n    tag_123:\n        /* \"contracts/Founding Citizens NFT Sale.sol\":5477:5536  uint leftToMint = getMaxSupply() - (getNextUnusedToken()-1) */\n      swap1\n      pop\n        /* \"contracts/Founding Citizens NFT Sale.sol\":5547:5648  for (; leftToMint > 0; leftToMint--) {\r... */\n    tag_124:\n        /* \"contracts/Founding Citizens NFT Sale.sol\":5567:5568  0 */\n      0x00\n        /* \"contracts/Founding Citizens NFT Sale.sol\":5554:5564  leftToMint */\n      dup2\n        /* \"contracts/Founding Citizens NFT Sale.sol\":5554:5568  leftToMint > 0 */\n      gt\n        /* \"contracts/Founding Citizens NFT Sale.sol\":5547:5648  for (; leftToMint > 0; leftToMint--) {\r... */\n      iszero\n      tag_125\n      jumpi\n        /* \"contracts/Founding Citizens NFT Sale.sol\":5599:5636  mintNextNftToAddress(treasuryAddress) */\n      tag_127\n        /* \"contracts/Founding Citizens NFT Sale.sol\":5620:5635  treasuryAddress */\n      0x04\n      0x00\n      swap1\n      sload\n      swap1\n      0x0100\n      exp\n      swap1\n      div\n      0xffffffffffffffffffffffffffffffffffffffff\n      and\n        /* \"contracts/Founding Citizens NFT Sale.sol\":5599:5619  mintNextNftToAddress */\n      tag_128\n        /* \"contracts/Founding Citizens NFT Sale.sol\":5599:5636  mintNextNftToAddress(treasuryAddress) */\n      jump\t// in\n    tag_127:\n        /* \"contracts/Founding Citizens NFT Sale.sol\":5570:5582  leftToMint-- */\n      dup1\n      dup1\n      tag_129\n      swap1\n      tag_130\n      jump\t// in\n    tag_129:\n      swap2\n      pop\n      pop\n        /* \"contracts/Founding Citizens NFT Sale.sol\":5547:5648  for (; leftToMint > 0; leftToMint--) {\r... */\n      jump(tag_124)\n    tag_125:\n        /* \"contracts/Founding Citizens NFT Sale.sol\":3228:3229  _ */\n      pop\n        /* \"contracts/Founding Citizens NFT Sale.sol\":5282:5655  function mintToTreasuryAddress() public requiresUpdate {\r... */\n      jump\t// out\n        /* \"contracts/Founding Citizens NFT Sale.sol\":4664:4757  function setstartTime(uint unixTime) public onlyOwner {\r... */\n    tag_56:\n        /* \"@openzeppelin/contracts@4.4.2/access/Ownable.sol\":1259:1271  _msgSender() */\n      tag_132\n        /* \"@openzeppelin/contracts@4.4.2/access/Ownable.sol\":1259:1269  _msgSender */\n      tag_88\n        /* \"@openzeppelin/contracts@4.4.2/access/Ownable.sol\":1259:1271  _msgSender() */\n      jump\t// in\n    tag_132:\n        /* \"@openzeppelin/contracts@4.4.2/access/Ownable.sol\":1248:1271  owner() == _msgSender() */\n      0xffffffffffffffffffffffffffffffffffffffff\n      and\n        /* \"@openzeppelin/contracts@4.4.2/access/Ownable.sol\":1248:1255  owner() */\n      tag_133\n        /* \"@openzeppelin/contracts@4.4.2/access/Ownable.sol\":1248:1253  owner */\n      tag_49\n        /* \"@openzeppelin/contracts@4.4.2/access/Ownable.sol\":1248:1255  owner() */\n      jump\t// in\n    tag_133:\n        /* \"@openzeppelin/contracts@4.4.2/access/Ownable.sol\":1248:1271  owner() == _msgSender() */\n      0xffffffffffffffffffffffffffffffffffffffff\n      and\n      eq\n        /* \"@openzeppelin/contracts@4.4.2/access/Ownable.sol\":1240:1308  require(owner() == _msgSender(), \"Ownable: caller is not the owner\") */\n      tag_134\n      jumpi\n      mload(0x40)\n      0x08c379a000000000000000000000000000000000000000000000000000000000\n      dup2\n      mstore\n      0x04\n      add\n      tag_135\n      swap1\n      tag_92\n      jump\t// in\n    tag_135:\n      mload(0x40)\n      dup1\n      swap2\n      sub\n      swap1\n      revert\n    tag_134:\n        /* \"contracts/Founding Citizens NFT Sale.sol\":4741:4749  unixTime */\n      dup1\n        /* \"contracts/Founding Citizens NFT Sale.sol\":4729:4738  startTime */\n      0x05\n        /* \"contracts/Founding Citizens NFT Sale.sol\":4729:4749  startTime = unixTime */\n      dup2\n      swap1\n      sstore\n      pop\n        /* \"contracts/Founding Citizens NFT Sale.sol\":4664:4757  function setstartTime(uint unixTime) public onlyOwner {\r... */\n      pop\n      jump\t// out\n        /* \"contracts/Founding Citizens NFT Sale.sol\":4765:4854  function setendTime(uint unixTime) public onlyOwner {\r... */\n    tag_59:\n        /* \"@openzeppelin/contracts@4.4.2/access/Ownable.sol\":1259:1271  _msgSender() */\n      tag_138\n        /* \"@openzeppelin/contracts@4.4.2/access/Ownable.sol\":1259:1269  _msgSender */\n      tag_88\n        /* \"@openzeppelin/contracts@4.4.2/access/Ownable.sol\":1259:1271  _msgSender() */\n      jump\t// in\n    tag_138:\n        /* \"@openzeppelin/contracts@4.4.2/access/Ownable.sol\":1248:1271  owner() == _msgSender() */\n      0xffffffffffffffffffffffffffffffffffffffff\n      and\n        /* \"@openzeppelin/contracts@4.4.2/access/Ownable.sol\":1248:1255  owner() */\n      tag_139\n        /* \"@openzeppelin/contracts@4.4.2/access/Ownable.sol\":1248:1253  owner */\n      tag_49\n        /* \"@openzeppelin/contracts@4.4.2/access/Ownable.sol\":1248:1255  owner() */\n      jump\t// in\n    tag_139:\n        /* \"@openzeppelin/contracts@4.4.2/access/Ownable.sol\":1248:1271  owner() == _msgSender() */\n      0xffffffffffffffffffffffffffffffffffffffff\n      and\n      eq\n        /* \"@openzeppelin/contracts@4.4.2/access/Ownable.sol\":1240:1308  require(owner() == _msgSender(), \"Ownable: caller is not the owner\") */\n      tag_140\n      jumpi\n      mload(0x40)\n      0x08c379a000000000000000000000000000000000000000000000000000000000\n      dup2\n      mstore\n      0x04\n      add\n      tag_141\n      swap1\n      tag_92\n      jump\t// in\n    tag_141:\n      mload(0x40)\n      dup1\n      swap2\n      sub\n      swap1\n      revert\n    tag_140:\n        /* \"contracts/Founding Citizens NFT Sale.sol\":4838:4846  unixTime */\n      dup1\n        /* \"contracts/Founding Citizens NFT Sale.sol\":4828:4835  endTime */\n      0x06\n        /* \"contracts/Founding Citizens NFT Sale.sol\":4828:4846  endTime = unixTime */\n      dup2\n      swap1\n      sstore\n      pop\n        /* \"contracts/Founding Citizens NFT Sale.sol\":4765:4854  function setendTime(uint unixTime) public onlyOwner {\r... */\n      pop\n      jump\t// out\n        /* \"contracts/Founding Citizens NFT Sale.sol\":5018:5274  function buyNFT() public requiresUpdate { //requires using existing balance\r... */\n    tag_61:\n        /* \"contracts/Founding Citizens NFT Sale.sol\":3204:3217  updateState() */\n      tag_144\n        /* \"contracts/Founding Citizens NFT Sale.sol\":3204:3215  updateState */\n      tag_109\n        /* \"contracts/Founding Citizens NFT Sale.sol\":3204:3217  updateState() */\n      jump\t// in\n    tag_144:\n        /* \"contracts/Founding Citizens NFT Sale.sol\":5103:5113  uint price */\n      0x00\n        /* \"contracts/Founding Citizens NFT Sale.sol\":5116:5148  calculateCustomPrice(msg.sender) */\n      tag_146\n        /* \"contracts/Founding Citizens NFT Sale.sol\":5137:5147  msg.sender */\n      caller\n        /* \"contracts/Founding Citizens NFT Sale.sol\":5116:5136  calculateCustomPrice */\n      tag_42\n        /* \"contracts/Founding Citizens NFT Sale.sol\":5116:5148  calculateCustomPrice(msg.sender) */\n      jump\t// in\n    tag_146:\n        /* \"contracts/Founding Citizens NFT Sale.sol\":5103:5148  uint price = calculateCustomPrice(msg.sender) */\n      swap1\n      pop\n        /* \"contracts/Founding Citizens NFT Sale.sol\":5159:5184  usdcEscrowStorageContract */\n      0x03\n      0x00\n      swap1\n      sload\n      swap1\n      0x0100\n      exp\n      swap1\n      div\n      0xffffffffffffffffffffffffffffffffffffffff\n      and\n        /* \"contracts/Founding Citizens NFT Sale.sol\":5159:5204  usdcEscrowStorageContract.decreaseUsdcBalance */\n      0xffffffffffffffffffffffffffffffffffffffff\n      and\n      0x532b2913\n        /* \"contracts/Founding Citizens NFT Sale.sol\":5205:5215  msg.sender */\n      caller\n        /* \"contracts/Founding Citizens NFT Sale.sol\":5217:5222  price */\n      dup4\n        /* \"contracts/Founding Citizens NFT Sale.sol\":5159:5223  usdcEscrowStorageContract.decreaseUsdcBalance(msg.sender, price) */\n      mload(0x40)\n      dup4\n      0xffffffff\n      and\n      0xe0\n      shl\n      dup2\n      mstore\n      0x04\n      add\n      tag_147\n      swap3\n      swap2\n      swap1\n      tag_148\n      jump\t// in\n    tag_147:\n      0x00\n      mload(0x40)\n      dup1\n      dup4\n      sub\n      dup2\n      0x00\n      dup8\n      dup1\n      extcodesize\n      iszero\n      dup1\n      iszero\n      tag_149\n      jumpi\n      0x00\n      dup1\n      revert\n    tag_149:\n      pop\n      gas\n      call\n      iszero\n      dup1\n      iszero\n      tag_151\n      jumpi\n      returndatasize\n      0x00\n      dup1\n      returndatacopy\n      revert(0x00, returndatasize)\n    tag_151:\n      pop\n      pop\n      pop\n      pop\n        /* \"contracts/Founding Citizens NFT Sale.sol\":5234:5266  mintNextNftToAddress(msg.sender) */\n      tag_152\n        /* \"contracts/Founding Citizens NFT Sale.sol\":5255:5265  msg.sender */\n      caller\n        /* \"contracts/Founding Citizens NFT Sale.sol\":5234:5254  mintNextNftToAddress */\n      tag_128\n        /* \"contracts/Founding Citizens NFT Sale.sol\":5234:5266  mintNextNftToAddress(msg.sender) */\n      jump\t// in\n    tag_152:\n        /* \"contracts/Founding Citizens NFT Sale.sol\":3228:3229  _ */\n      pop\n        /* \"contracts/Founding Citizens NFT Sale.sol\":5018:5274  function buyNFT() public requiresUpdate { //requires using existing balance\r... */\n      jump\t// out\n        /* \"contracts/Founding Citizens NFT Sale.sol\":3094:3158  Update public lastUpdate = Update(10000, block.timestamp, false) */\n    tag_63:\n      0x09\n      dup1\n      0x00\n      add\n      sload\n      swap1\n      dup1\n      0x01\n      add\n      sload\n      swap1\n      dup1\n      0x02\n      add\n      0x00\n      swap1\n      sload\n      swap1\n      0x0100\n      exp\n      swap1\n      div\n      0xff\n      and\n      swap1\n      pop\n      dup4\n      jump\t// out\n        /* \"contracts/Founding Citizens NFT Sale.sol\":2623:2668  IUsdcStorage public usdcEscrowStorageContract */\n    tag_67:\n      0x03\n      0x00\n      swap1\n      sload\n      swap1\n      0x0100\n      exp\n      swap1\n      div\n      0xffffffffffffffffffffffffffffffffffffffff\n      and\n      dup2\n      jump\t// out\n        /* \"contracts/Founding Citizens NFT Sale.sol\":2675:2705  address public treasuryAddress */\n    tag_71:\n      0x04\n      0x00\n      swap1\n      sload\n      swap1\n      0x0100\n      exp\n      swap1\n      div\n      0xffffffffffffffffffffffffffffffffffffffff\n      and\n      dup2\n      jump\t// out\n        /* \"contracts/Founding Citizens NFT Sale.sol\":4217:4374  function preLoadURIs(uint[] memory ids, string[] memory uris) public onlyOwner {\r... */\n    tag_76:\n        /* \"@openzeppelin/contracts@4.4.2/access/Ownable.sol\":1259:1271  _msgSender() */\n      tag_154\n        /* \"@openzeppelin/contracts@4.4.2/access/Ownable.sol\":1259:1269  _msgSender */\n      tag_88\n        /* \"@openzeppelin/contracts@4.4.2/access/Ownable.sol\":1259:1271  _msgSender() */\n      jump\t// in\n    tag_154:\n        /* \"@openzeppelin/contracts@4.4.2/access/Ownable.sol\":1248:1271  owner() == _msgSender() */\n      0xffffffffffffffffffffffffffffffffffffffff\n      and\n        /* \"@openzeppelin/contracts@4.4.2/access/Ownable.sol\":1248:1255  owner() */\n      tag_155\n        /* \"@openzeppelin/contracts@4.4.2/access/Ownable.sol\":1248:1253  owner */\n      tag_49\n        /* \"@openzeppelin/contracts@4.4.2/access/Ownable.sol\":1248:1255  owner() */\n      jump\t// in\n    tag_155:\n        /* \"@openzeppelin/contracts@4.4.2/access/Ownable.sol\":1248:1271  owner() == _msgSender() */\n      0xffffffffffffffffffffffffffffffffffffffff\n      and\n      eq\n        /* \"@openzeppelin/contracts@4.4.2/access/Ownable.sol\":1240:1308  require(owner() == _msgSender(), \"Ownable: caller is not the owner\") */\n      tag_156\n      jumpi\n      mload(0x40)\n      0x08c379a000000000000000000000000000000000000000000000000000000000\n      dup2\n      mstore\n      0x04\n      add\n      tag_157\n      swap1\n      tag_92\n      jump\t// in\n    tag_157:\n      mload(0x40)\n      dup1\n      swap2\n      sub\n      swap1\n      revert\n    tag_156:\n        /* \"contracts/Founding Citizens NFT Sale.sol\":4320:4342  ERC1155storageContract */\n      0x01\n      0x00\n      swap1\n      sload\n      swap1\n      0x0100\n      exp\n      swap1\n      div\n      0xffffffffffffffffffffffffffffffffffffffff\n      and\n        /* \"contracts/Founding Citizens NFT Sale.sol\":4307:4355  IMintStorage(ERC1155storageContract).preLoadURIs */\n      0xffffffffffffffffffffffffffffffffffffffff\n      and\n      0xf121da92\n        /* \"contracts/Founding Citizens NFT Sale.sol\":4356:4359  ids */\n      dup4\n        /* \"contracts/Founding Citizens NFT Sale.sol\":4361:4365  uris */\n      dup4\n        /* \"contracts/Founding Citizens NFT Sale.sol\":4307:4366  IMintStorage(ERC1155storageContract).preLoadURIs(ids, uris) */\n      mload(0x40)\n      dup4\n      0xffffffff\n      and\n      0xe0\n      shl\n      dup2\n      mstore\n      0x04\n      add\n      tag_159\n      swap3\n      swap2\n      swap1\n      tag_160\n      jump\t// in\n    tag_159:\n      0x00\n      mload(0x40)\n      dup1\n      dup4\n      sub\n      dup2\n      0x00\n      dup8\n      dup1\n      extcodesize\n      iszero\n      dup1\n      iszero\n      tag_161\n      jumpi\n      0x00\n      dup1\n      revert\n    tag_161:\n      pop\n      gas\n      call\n      iszero\n      dup1\n      iszero\n      tag_163\n      jumpi\n      returndatasize\n      0x00\n      dup1\n      returndatacopy\n      revert(0x00, returndatasize)\n    tag_163:\n      pop\n      pop\n      pop\n      pop\n        /* \"contracts/Founding Citizens NFT Sale.sol\":4217:4374  function preLoadURIs(uint[] memory ids, string[] memory uris) public onlyOwner {\r... */\n      pop\n      pop\n      jump\t// out\n        /* \"@openzeppelin/contracts@4.4.2/access/Ownable.sol\":1918:2116  function transferOwnership(address newOwner) public virtual onlyOwner {... */\n    tag_79:\n        /* \"@openzeppelin/contracts@4.4.2/access/Ownable.sol\":1259:1271  _msgSender() */\n      tag_165\n        /* \"@openzeppelin/contracts@4.4.2/access/Ownable.sol\":1259:1269  _msgSender */\n      tag_88\n        /* \"@openzeppelin/contracts@4.4.2/access/Ownable.sol\":1259:1271  _msgSender() */\n      jump\t// in\n    tag_165:\n        /* \"@openzeppelin/contracts@4.4.2/access/Ownable.sol\":1248:1271  owner() == _msgSender() */\n      0xffffffffffffffffffffffffffffffffffffffff\n      and\n        /* \"@openzeppelin/contracts@4.4.2/access/Ownable.sol\":1248:1255  owner() */\n      tag_166\n        /* \"@openzeppelin/contracts@4.4.2/access/Ownable.sol\":1248:1253  owner */\n      tag_49\n        /* \"@openzeppelin/contracts@4.4.2/access/Ownable.sol\":1248:1255  owner() */\n      jump\t// in\n    tag_166:\n        /* \"@openzeppelin/contracts@4.4.2/access/Ownable.sol\":1248:1271  owner() == _msgSender() */\n      0xffffffffffffffffffffffffffffffffffffffff\n      and\n      eq\n        /* \"@openzeppelin/contracts@4.4.2/access/Ownable.sol\":1240:1308  require(owner() == _msgSender(), \"Ownable: caller is not the owner\") */\n      tag_167\n      jumpi\n      mload(0x40)\n      0x08c379a000000000000000000000000000000000000000000000000000000000\n      dup2\n      mstore\n      0x04\n      add\n      tag_168\n      swap1\n      tag_92\n      jump\t// in\n    tag_168:\n      mload(0x40)\n      dup1\n      swap2\n      sub\n      swap1\n      revert\n    tag_167:\n        /* \"@openzeppelin/contracts@4.4.2/access/Ownable.sol\":2026:2027  0 */\n      0x00\n        /* \"@openzeppelin/contracts@4.4.2/access/Ownable.sol\":2006:2028  newOwner != address(0) */\n      0xffffffffffffffffffffffffffffffffffffffff\n      and\n        /* \"@openzeppelin/contracts@4.4.2/access/Ownable.sol\":2006:2014  newOwner */\n      dup2\n        /* \"@openzeppelin/contracts@4.4.2/access/Ownable.sol\":2006:2028  newOwner != address(0) */\n      0xffffffffffffffffffffffffffffffffffffffff\n      and\n      eq\n      iszero\n        /* \"@openzeppelin/contracts@4.4.2/access/Ownable.sol\":1998:2071  require(newOwner != address(0), \"Ownable: new owner is the zero address\") */\n      tag_170\n      jumpi\n      mload(0x40)\n      0x08c379a000000000000000000000000000000000000000000000000000000000\n      dup2\n      mstore\n      0x04\n      add\n      tag_171\n      swap1\n      tag_172\n      jump\t// in\n    tag_171:\n      mload(0x40)\n      dup1\n      swap2\n      sub\n      swap1\n      revert\n    tag_170:\n        /* \"@openzeppelin/contracts@4.4.2/access/Ownable.sol\":2081:2109  _transferOwnership(newOwner) */\n      tag_173\n        /* \"@openzeppelin/contracts@4.4.2/access/Ownable.sol\":2100:2108  newOwner */\n      dup2\n        /* \"@openzeppelin/contracts@4.4.2/access/Ownable.sol\":2081:2099  _transferOwnership */\n      tag_106\n        /* \"@openzeppelin/contracts@4.4.2/access/Ownable.sol\":2081:2109  _transferOwnership(newOwner) */\n      jump\t// in\n    tag_173:\n        /* \"@openzeppelin/contracts@4.4.2/access/Ownable.sol\":1918:2116  function transferOwnership(address newOwner) public virtual onlyOwner {... */\n      pop\n      jump\t// out\n        /* \"@openzeppelin/contracts@4.4.2/utils/Context.sol\":640:736  function _msgSender() internal view virtual returns (address) {... */\n    tag_88:\n        /* \"@openzeppelin/contracts@4.4.2/utils/Context.sol\":693:700  address */\n      0x00\n        /* \"@openzeppelin/contracts@4.4.2/utils/Context.sol\":719:729  msg.sender */\n      caller\n        /* \"@openzeppelin/contracts@4.4.2/utils/Context.sol\":712:729  return msg.sender */\n      swap1\n      pop\n        /* \"@openzeppelin/contracts@4.4.2/utils/Context.sol\":640:736  function _msgSender() internal view virtual returns (address) {... */\n      swap1\n      jump\t// out\n        /* \"@openzeppelin/contracts@4.4.2/access/Ownable.sol\":2270:2457  function _transferOwnership(address newOwner) internal virtual {... */\n    tag_106:\n        /* \"@openzeppelin/contracts@4.4.2/access/Ownable.sol\":2343:2359  address oldOwner */\n      0x00\n        /* \"@openzeppelin/contracts@4.4.2/access/Ownable.sol\":2362:2368  _owner */\n      dup1\n      0x00\n      swap1\n      sload\n      swap1\n      0x0100\n      exp\n      swap1\n      div\n      0xffffffffffffffffffffffffffffffffffffffff\n      and\n        /* \"@openzeppelin/contracts@4.4.2/access/Ownable.sol\":2343:2368  address oldOwner = _owner */\n      swap1\n      pop\n        /* \"@openzeppelin/contracts@4.4.2/access/Ownable.sol\":2387:2395  newOwner */\n      dup2\n        /* \"@openzeppelin/contracts@4.4.2/access/Ownable.sol\":2378:2384  _owner */\n      0x00\n      dup1\n        /* \"@openzeppelin/contracts@4.4.2/access/Ownable.sol\":2378:2395  _owner = newOwner */\n      0x0100\n      exp\n      dup2\n      sload\n      dup2\n      0xffffffffffffffffffffffffffffffffffffffff\n      mul\n      not\n      and\n      swap1\n      dup4\n      0xffffffffffffffffffffffffffffffffffffffff\n      and\n      mul\n      or\n      swap1\n      sstore\n      pop\n        /* \"@openzeppelin/contracts@4.4.2/access/Ownable.sol\":2441:2449  newOwner */\n      dup2\n        /* \"@openzeppelin/contracts@4.4.2/access/Ownable.sol\":2410:2450  OwnershipTransferred(oldOwner, newOwner) */\n      0xffffffffffffffffffffffffffffffffffffffff\n      and\n        /* \"@openzeppelin/contracts@4.4.2/access/Ownable.sol\":2431:2439  oldOwner */\n      dup2\n        /* \"@openzeppelin/contracts@4.4.2/access/Ownable.sol\":2410:2450  OwnershipTransferred(oldOwner, newOwner) */\n      0xffffffffffffffffffffffffffffffffffffffff\n      and\n      0x8be0079c531659141344cd1fd0a4f28419497f9722a3daafe3b4186f6b6457e0\n      mload(0x40)\n      mload(0x40)\n      dup1\n      swap2\n      sub\n      swap1\n      log3\n        /* \"@openzeppelin/contracts@4.4.2/access/Ownable.sol\":2270:2457  function _transferOwnership(address newOwner) internal virtual {... */\n      pop\n      pop\n      jump\t// out\n        /* \"contracts/Founding Citizens NFT Sale.sol\":3423:3914  function updateState() internal requiresConsistentState {\r... */\n    tag_109:\n        /* \"contracts/Founding Citizens NFT Sale.sol\":3312:3319  endTime */\n      sload(0x06)\n        /* \"contracts/Founding Citizens NFT Sale.sol\":3299:3308  startTime */\n      sload(0x05)\n        /* \"contracts/Founding Citizens NFT Sale.sol\":3299:3319  startTime <= endTime */\n      gt\n      iszero\n        /* \"contracts/Founding Citizens NFT Sale.sol\":3291:3355  require(startTime <= endTime, \"startTime is later than endTime\") */\n      tag_177\n      jumpi\n      mload(0x40)\n      0x08c379a000000000000000000000000000000000000000000000000000000000\n      dup2\n      mstore\n      0x04\n      add\n      tag_178\n      swap1\n      tag_179\n      jump\t// in\n    tag_178:\n      mload(0x40)\n      dup1\n      swap2\n      sub\n      swap1\n      revert\n    tag_177:\n        /* \"contracts/Founding Citizens NFT Sale.sol\":2989:2990  1 */\n      0x01\n        /* \"contracts/Founding Citizens NFT Sale.sol\":3579:3581  60 */\n      0x3c\n        /* \"contracts/Founding Citizens NFT Sale.sol\":3566:3575  startTime */\n      sload(0x05)\n        /* \"contracts/Founding Citizens NFT Sale.sol\":3548:3563  block.timestamp */\n      timestamp\n        /* \"contracts/Founding Citizens NFT Sale.sol\":3548:3575  block.timestamp - startTime */\n      tag_181\n      swap2\n      swap1\n      tag_121\n      jump\t// in\n    tag_181:\n        /* \"contracts/Founding Citizens NFT Sale.sol\":3547:3581  (block.timestamp - startTime) / 60 */\n      tag_182\n      swap2\n      swap1\n      tag_183\n      jump\t// in\n    tag_182:\n        /* \"contracts/Founding Citizens NFT Sale.sol\":3547:3606  (block.timestamp - startTime) / 60 * priceDescresePerMinute */\n      tag_184\n      swap2\n      swap1\n      tag_185\n      jump\t// in\n    tag_184:\n        /* \"contracts/Founding Citizens NFT Sale.sol\":3533:3543  startPrice */\n      sload(0x07)\n        /* \"contracts/Founding Citizens NFT Sale.sol\":3533:3607  startPrice - ((block.timestamp - startTime) / 60 * priceDescresePerMinute) */\n      tag_186\n      swap2\n      swap1\n      tag_121\n      jump\t// in\n    tag_186:\n        /* \"contracts/Founding Citizens NFT Sale.sol\":3514:3524  lastUpdate */\n      0x09\n        /* \"contracts/Founding Citizens NFT Sale.sol\":3514:3530  lastUpdate.price */\n      0x00\n      add\n        /* \"contracts/Founding Citizens NFT Sale.sol\":3514:3607  lastUpdate.price = startPrice - ((block.timestamp - startTime) / 60 * priceDescresePerMinute) */\n      dup2\n      swap1\n      sstore\n      pop\n        /* \"contracts/Founding Citizens NFT Sale.sol\":3661:3676  block.timestamp */\n      timestamp\n        /* \"contracts/Founding Citizens NFT Sale.sol\":3643:3653  lastUpdate */\n      0x09\n        /* \"contracts/Founding Citizens NFT Sale.sol\":3643:3658  lastUpdate.time */\n      0x01\n      add\n        /* \"contracts/Founding Citizens NFT Sale.sol\":3643:3676  lastUpdate.time = block.timestamp */\n      dup2\n      swap1\n      sstore\n      pop\n        /* \"contracts/Founding Citizens NFT Sale.sol\":3749:3758  startTime */\n      sload(0x05)\n        /* \"contracts/Founding Citizens NFT Sale.sol\":3730:3745  block.timestamp */\n      timestamp\n        /* \"contracts/Founding Citizens NFT Sale.sol\":3730:3758  block.timestamp >= startTime */\n      lt\n      iszero\n        /* \"contracts/Founding Citizens NFT Sale.sol\":3730:3788  block.timestamp >= startTime && block.timestamp <= endTime */\n      dup1\n      iszero\n      tag_187\n      jumpi\n      pop\n        /* \"contracts/Founding Citizens NFT Sale.sol\":3781:3788  endTime */\n      sload(0x06)\n        /* \"contracts/Founding Citizens NFT Sale.sol\":3762:3777  block.timestamp */\n      timestamp\n        /* \"contracts/Founding Citizens NFT Sale.sol\":3762:3788  block.timestamp <= endTime */\n      gt\n      iszero\n        /* \"contracts/Founding Citizens NFT Sale.sol\":3730:3788  block.timestamp >= startTime && block.timestamp <= endTime */\n    tag_187:\n        /* \"contracts/Founding Citizens NFT Sale.sol\":3726:3907  if (block.timestamp >= startTime && block.timestamp <= endTime) {\r... */\n      iszero\n      tag_188\n      jumpi\n        /* \"contracts/Founding Citizens NFT Sale.sol\":3829:3833  true */\n      0x01\n        /* \"contracts/Founding Citizens NFT Sale.sol\":3805:3815  lastUpdate */\n      0x09\n        /* \"contracts/Founding Citizens NFT Sale.sol\":3805:3826  lastUpdate.saleIsLive */\n      0x02\n      add\n      0x00\n        /* \"contracts/Founding Citizens NFT Sale.sol\":3805:3833  lastUpdate.saleIsLive = true */\n      0x0100\n      exp\n      dup2\n      sload\n      dup2\n      0xff\n      mul\n      not\n      and\n      swap1\n      dup4\n      iszero\n      iszero\n      mul\n      or\n      swap1\n      sstore\n      pop\n        /* \"contracts/Founding Citizens NFT Sale.sol\":3726:3907  if (block.timestamp >= startTime && block.timestamp <= endTime) {\r... */\n      jump(tag_189)\n    tag_188:\n        /* \"contracts/Founding Citizens NFT Sale.sol\":3890:3895  false */\n      0x00\n        /* \"contracts/Founding Citizens NFT Sale.sol\":3866:3876  lastUpdate */\n      0x09\n        /* \"contracts/Founding Citizens NFT Sale.sol\":3866:3887  lastUpdate.saleIsLive */\n      0x02\n      add\n      0x00\n        /* \"contracts/Founding Citizens NFT Sale.sol\":3866:3895  lastUpdate.saleIsLive = false */\n      0x0100\n      exp\n      dup2\n      sload\n      dup2\n      0xff\n      mul\n      not\n      and\n      swap1\n      dup4\n      iszero\n      iszero\n      mul\n      or\n      swap1\n      sstore\n      pop\n        /* \"contracts/Founding Citizens NFT Sale.sol\":3726:3907  if (block.timestamp >= startTime && block.timestamp <= endTime) {\r... */\n    tag_189:\n        /* \"contracts/Founding Citizens NFT Sale.sol\":3423:3914  function updateState() internal requiresConsistentState {\r... */\n      jump\t// out\n        /* \"contracts/Founding Citizens NFT Sale.sol\":4078:4209  function mintNextNftToAddress(address to) internal {\r... */\n    tag_128:\n        /* \"contracts/Founding Citizens NFT Sale.sol\":4153:4175  ERC1155storageContract */\n      0x01\n      0x00\n      swap1\n      sload\n      swap1\n      0x0100\n      exp\n      swap1\n      div\n      0xffffffffffffffffffffffffffffffffffffffff\n      and\n        /* \"contracts/Founding Citizens NFT Sale.sol\":4140:4197  IMintStorage(ERC1155storageContract).mintNextNftToAddress */\n      0xffffffffffffffffffffffffffffffffffffffff\n      and\n      0x55676590\n        /* \"contracts/Founding Citizens NFT Sale.sol\":4198:4200  to */\n      dup3\n        /* \"contracts/Founding Citizens NFT Sale.sol\":4140:4201  IMintStorage(ERC1155storageContract).mintNextNftToAddress(to) */\n      mload(0x40)\n      dup3\n      0xffffffff\n      and\n      0xe0\n      shl\n      dup2\n      mstore\n      0x04\n      add\n      tag_191\n      swap2\n      swap1\n      tag_26\n      jump\t// in\n    tag_191:\n      0x00\n      mload(0x40)\n      dup1\n      dup4\n      sub\n      dup2\n      0x00\n      dup8\n      dup1\n      extcodesize\n      iszero\n      dup1\n      iszero\n      tag_192\n      jumpi\n      0x00\n      dup1\n      revert\n    tag_192:\n      pop\n      gas\n      call\n      iszero\n      dup1\n      iszero\n      tag_194\n      jumpi\n      returndatasize\n      0x00\n      dup1\n      returndatacopy\n      revert(0x00, returndatasize)\n    tag_194:\n      pop\n      pop\n      pop\n      pop\n        /* \"contracts/Founding Citizens NFT Sale.sol\":4078:4209  function mintNextNftToAddress(address to) internal {\r... */\n      pop\n      jump\t// out\n        /* \"#utility.yul\":23:639   */\n    tag_196:\n      0x00\n        /* \"#utility.yul\":154:245   */\n      tag_198\n        /* \"#utility.yul\":170:244   */\n      tag_199\n        /* \"#utility.yul\":237:243   */\n      dup5\n        /* \"#utility.yul\":170:244   */\n      tag_200\n      jump\t// in\n    tag_199:\n        /* \"#utility.yul\":154:245   */\n      tag_201\n      jump\t// in\n    tag_198:\n        /* \"#utility.yul\":145:245   */\n      swap1\n      pop\n        /* \"#utility.yul\":265:270   */\n      dup1\n        /* \"#utility.yul\":293:299   */\n      dup4\n        /* \"#utility.yul\":286:291   */\n      dup3\n        /* \"#utility.yul\":279:300   */\n      mstore\n        /* \"#utility.yul\":319:323   */\n      0x20\n        /* \"#utility.yul\":312:317   */\n      dup3\n        /* \"#utility.yul\":308:324   */\n      add\n        /* \"#utility.yul\":301:324   */\n      swap1\n      pop\n        /* \"#utility.yul\":344:350   */\n      dup3\n        /* \"#utility.yul\":375:376   */\n      0x00\n        /* \"#utility.yul\":360:633   */\n    tag_202:\n        /* \"#utility.yul\":385:391   */\n      dup6\n        /* \"#utility.yul\":382:383   */\n      dup2\n        /* \"#utility.yul\":379:392   */\n      lt\n        /* \"#utility.yul\":360:633   */\n      iszero\n      tag_204\n      jumpi\n        /* \"#utility.yul\":477:480   */\n      dup2\n        /* \"#utility.yul\":464:481   */\n      calldataload\n        /* \"#utility.yul\":456:462   */\n      dup6\n        /* \"#utility.yul\":452:482   */\n      add\n        /* \"#utility.yul\":507:554   */\n      tag_205\n        /* \"#utility.yul\":550:553   */\n      dup9\n        /* \"#utility.yul\":538:548   */\n      dup3\n        /* \"#utility.yul\":507:554   */\n      tag_206\n      jump\t// in\n    tag_205:\n        /* \"#utility.yul\":502:505   */\n      dup5\n        /* \"#utility.yul\":495:555   */\n      mstore\n        /* \"#utility.yul\":584:588   */\n      0x20\n        /* \"#utility.yul\":579:582   */\n      dup5\n        /* \"#utility.yul\":575:589   */\n      add\n        /* \"#utility.yul\":568:589   */\n      swap4\n      pop\n        /* \"#utility.yul\":618:622   */\n      0x20\n        /* \"#utility.yul\":613:616   */\n      dup4\n        /* \"#utility.yul\":609:623   */\n      add\n        /* \"#utility.yul\":602:623   */\n      swap3\n      pop\n        /* \"#utility.yul\":420:633   */\n      pop\n        /* \"#utility.yul\":407:408   */\n      0x01\n        /* \"#utility.yul\":404:405   */\n      dup2\n        /* \"#utility.yul\":400:409   */\n      add\n        /* \"#utility.yul\":395:409   */\n      swap1\n      pop\n        /* \"#utility.yul\":360:633   */\n      jump(tag_202)\n    tag_204:\n        /* \"#utility.yul\":364:378   */\n      pop\n        /* \"#utility.yul\":135:639   */\n      pop\n      pop\n      swap4\n      swap3\n      pop\n      pop\n      pop\n      jump\t// out\n        /* \"#utility.yul\":662:1285   */\n    tag_207:\n      0x00\n        /* \"#utility.yul\":783:864   */\n      tag_209\n        /* \"#utility.yul\":799:863   */\n      tag_210\n        /* \"#utility.yul\":856:862   */\n      dup5\n        /* \"#utility.yul\":799:863   */\n      tag_211\n      jump\t// in\n    tag_210:\n        /* \"#utility.yul\":783:864   */\n      tag_201\n      jump\t// in\n    tag_209:\n        /* \"#utility.yul\":774:864   */\n      swap1\n      pop\n        /* \"#utility.yul\":884:889   */\n      dup1\n        /* \"#utility.yul\":912:918   */\n      dup4\n        /* \"#utility.yul\":905:910   */\n      dup3\n        /* \"#utility.yul\":898:919   */\n      mstore\n        /* \"#utility.yul\":938:942   */\n      0x20\n        /* \"#utility.yul\":931:936   */\n      dup3\n        /* \"#utility.yul\":927:943   */\n      add\n        /* \"#utility.yul\":920:943   */\n      swap1\n      pop\n        /* \"#utility.yul\":963:969   */\n      dup3\n        /* \"#utility.yul\":1013:1016   */\n      dup6\n        /* \"#utility.yul\":1005:1009   */\n      0x20\n        /* \"#utility.yul\":997:1003   */\n      dup7\n        /* \"#utility.yul\":993:1010   */\n      mul\n        /* \"#utility.yul\":988:991   */\n      dup3\n        /* \"#utility.yul\":984:1011   */\n      add\n        /* \"#utility.yul\":981:1017   */\n      gt\n        /* \"#utility.yul\":978:980   */\n      iszero\n      tag_212\n      jumpi\n        /* \"#utility.yul\":1030:1031   */\n      0x00\n        /* \"#utility.yul\":1027:1028   */\n      dup1\n        /* \"#utility.yul\":1020:1032   */\n      revert\n        /* \"#utility.yul\":978:980   */\n    tag_212:\n        /* \"#utility.yul\":1058:1059   */\n      0x00\n        /* \"#utility.yul\":1043:1279   */\n    tag_213:\n        /* \"#utility.yul\":1068:1074   */\n      dup6\n        /* \"#utility.yul\":1065:1066   */\n      dup2\n        /* \"#utility.yul\":1062:1075   */\n      lt\n        /* \"#utility.yul\":1043:1279   */\n      iszero\n      tag_215\n      jumpi\n        /* \"#utility.yul\":1135:1138   */\n      dup2\n        /* \"#utility.yul\":1163:1200   */\n      tag_216\n        /* \"#utility.yul\":1196:1199   */\n      dup9\n        /* \"#utility.yul\":1184:1194   */\n      dup3\n        /* \"#utility.yul\":1163:1200   */\n      tag_217\n      jump\t// in\n    tag_216:\n        /* \"#utility.yul\":1158:1161   */\n      dup5\n        /* \"#utility.yul\":1151:1201   */\n      mstore\n        /* \"#utility.yul\":1230:1234   */\n      0x20\n        /* \"#utility.yul\":1225:1228   */\n      dup5\n        /* \"#utility.yul\":1221:1235   */\n      add\n        /* \"#utility.yul\":1214:1235   */\n      swap4\n      pop\n        /* \"#utility.yul\":1264:1268   */\n      0x20\n        /* \"#utility.yul\":1259:1262   */\n      dup4\n        /* \"#utility.yul\":1255:1269   */\n      add\n        /* \"#utility.yul\":1248:1269   */\n      swap3\n      pop\n        /* \"#utility.yul\":1103:1279   */\n      pop\n        /* \"#utility.yul\":1090:1091   */\n      0x01\n        /* \"#utility.yul\":1087:1088   */\n      dup2\n        /* \"#utility.yul\":1083:1092   */\n      add\n        /* \"#utility.yul\":1078:1092   */\n      swap1\n      pop\n        /* \"#utility.yul\":1043:1279   */\n      jump(tag_213)\n    tag_215:\n        /* \"#utility.yul\":1047:1061   */\n      pop\n        /* \"#utility.yul\":764:1285   */\n      pop\n      pop\n      swap4\n      swap3\n      pop\n      pop\n      pop\n      jump\t// out\n        /* \"#utility.yul\":1291:1636   */\n    tag_218:\n      0x00\n        /* \"#utility.yul\":1394:1460   */\n      tag_220\n        /* \"#utility.yul\":1410:1459   */\n      tag_221\n        /* \"#utility.yul\":1452:1458   */\n      dup5\n        /* \"#utility.yul\":1410:1459   */\n      tag_222\n      jump\t// in\n    tag_221:\n        /* \"#utility.yul\":1394:1460   */\n      tag_201\n      jump\t// in\n    tag_220:\n        /* \"#utility.yul\":1385:1460   */\n      swap1\n      pop\n        /* \"#utility.yul\":1483:1489   */\n      dup3\n        /* \"#utility.yul\":1476:1481   */\n      dup2\n        /* \"#utility.yul\":1469:1490   */\n      mstore\n        /* \"#utility.yul\":1521:1525   */\n      0x20\n        /* \"#utility.yul\":1514:1519   */\n      dup2\n        /* \"#utility.yul\":1510:1526   */\n      add\n        /* \"#utility.yul\":1559:1562   */\n      dup5\n        /* \"#utility.yul\":1550:1556   */\n      dup5\n        /* \"#utility.yul\":1545:1548   */\n      dup5\n        /* \"#utility.yul\":1541:1557   */\n      add\n        /* \"#utility.yul\":1538:1563   */\n      gt\n        /* \"#utility.yul\":1535:1537   */\n      iszero\n      tag_223\n      jumpi\n        /* \"#utility.yul\":1576:1577   */\n      0x00\n        /* \"#utility.yul\":1573:1574   */\n      dup1\n        /* \"#utility.yul\":1566:1578   */\n      revert\n        /* \"#utility.yul\":1535:1537   */\n    tag_223:\n        /* \"#utility.yul\":1589:1630   */\n      tag_224\n        /* \"#utility.yul\":1623:1629   */\n      dup5\n        /* \"#utility.yul\":1618:1621   */\n      dup3\n        /* \"#utility.yul\":1613:1616   */\n      dup6\n        /* \"#utility.yul\":1589:1630   */\n      tag_225\n      jump\t// in\n    tag_224:\n        /* \"#utility.yul\":1375:1636   */\n      pop\n      swap4\n      swap3\n      pop\n      pop\n      pop\n      jump\t// out\n        /* \"#utility.yul\":1642:1781   */\n    tag_226:\n      0x00\n        /* \"#utility.yul\":1726:1732   */\n      dup2\n        /* \"#utility.yul\":1713:1733   */\n      calldataload\n        /* \"#utility.yul\":1704:1733   */\n      swap1\n      pop\n        /* \"#utility.yul\":1742:1775   */\n      tag_228\n        /* \"#utility.yul\":1769:1774   */\n      dup2\n        /* \"#utility.yul\":1742:1775   */\n      tag_229\n      jump\t// in\n    tag_228:\n        /* \"#utility.yul\":1694:1781   */\n      swap3\n      swap2\n      pop\n      pop\n      jump\t// out\n        /* \"#utility.yul\":1803:2126   */\n    tag_230:\n      0x00\n        /* \"#utility.yul\":1933:1936   */\n      dup3\n        /* \"#utility.yul\":1926:1930   */\n      0x1f\n        /* \"#utility.yul\":1918:1924   */\n      dup4\n        /* \"#utility.yul\":1914:1931   */\n      add\n        /* \"#utility.yul\":1910:1937   */\n      slt\n        /* \"#utility.yul\":1900:1902   */\n      tag_232\n      jumpi\n        /* \"#utility.yul\":1951:1952   */\n      0x00\n        /* \"#utility.yul\":1948:1949   */\n      dup1\n        /* \"#utility.yul\":1941:1953   */\n      revert\n        /* \"#utility.yul\":1900:1902   */\n    tag_232:\n        /* \"#utility.yul\":1991:1997   */\n      dup2\n        /* \"#utility.yul\":1978:1998   */\n      calldataload\n        /* \"#utility.yul\":2016:2120   */\n      tag_233\n        /* \"#utility.yul\":2116:2119   */\n      dup5\n        /* \"#utility.yul\":2108:2114   */\n      dup3\n        /* \"#utility.yul\":2101:2105   */\n      0x20\n        /* \"#utility.yul\":2093:2099   */\n      dup7\n        /* \"#utility.yul\":2089:2106   */\n      add\n        /* \"#utility.yul\":2016:2120   */\n      tag_196\n      jump\t// in\n    tag_233:\n        /* \"#utility.yul\":2007:2120   */\n      swap2\n      pop\n        /* \"#utility.yul\":1890:2126   */\n      pop\n      swap3\n      swap2\n      pop\n      pop\n      jump\t// out\n        /* \"#utility.yul\":2149:2452   */\n    tag_234:\n      0x00\n        /* \"#utility.yul\":2269:2272   */\n      dup3\n        /* \"#utility.yul\":2262:2266   */\n      0x1f\n        /* \"#utility.yul\":2254:2260   */\n      dup4\n        /* \"#utility.yul\":2250:2267   */\n      add\n        /* \"#utility.yul\":2246:2273   */\n      slt\n        /* \"#utility.yul\":2236:2238   */\n      tag_236\n      jumpi\n        /* \"#utility.yul\":2287:2288   */\n      0x00\n        /* \"#utility.yul\":2284:2285   */\n      dup1\n        /* \"#utility.yul\":2277:2289   */\n      revert\n        /* \"#utility.yul\":2236:2238   */\n    tag_236:\n        /* \"#utility.yul\":2327:2333   */\n      dup2\n        /* \"#utility.yul\":2314:2334   */\n      calldataload\n        /* \"#utility.yul\":2352:2446   */\n      tag_237\n        /* \"#utility.yul\":2442:2445   */\n      dup5\n        /* \"#utility.yul\":2434:2440   */\n      dup3\n        /* \"#utility.yul\":2427:2431   */\n      0x20\n        /* \"#utility.yul\":2419:2425   */\n      dup7\n        /* \"#utility.yul\":2415:2432   */\n      add\n        /* \"#utility.yul\":2352:2446   */\n      tag_207\n      jump\t// in\n    tag_237:\n        /* \"#utility.yul\":2343:2446   */\n      swap2\n      pop\n        /* \"#utility.yul\":2226:2452   */\n      pop\n      swap3\n      swap2\n      pop\n      pop\n      jump\t// out\n        /* \"#utility.yul\":2472:2745   */\n    tag_206:\n      0x00\n        /* \"#utility.yul\":2577:2580   */\n      dup3\n        /* \"#utility.yul\":2570:2574   */\n      0x1f\n        /* \"#utility.yul\":2562:2568   */\n      dup4\n        /* \"#utility.yul\":2558:2575   */\n      add\n        /* \"#utility.yul\":2554:2581   */\n      slt\n        /* \"#utility.yul\":2544:2546   */\n      tag_239\n      jumpi\n        /* \"#utility.yul\":2595:2596   */\n      0x00\n        /* \"#utility.yul\":2592:2593   */\n      dup1\n        /* \"#utility.yul\":2585:2597   */\n      revert\n        /* \"#utility.yul\":2544:2546   */\n    tag_239:\n        /* \"#utility.yul\":2635:2641   */\n      dup2\n        /* \"#utility.yul\":2622:2642   */\n      calldataload\n        /* \"#utility.yul\":2660:2739   */\n      tag_240\n        /* \"#utility.yul\":2735:2738   */\n      dup5\n        /* \"#utility.yul\":2727:2733   */\n      dup3\n        /* \"#utility.yul\":2720:2724   */\n      0x20\n        /* \"#utility.yul\":2712:2718   */\n      dup7\n        /* \"#utility.yul\":2708:2725   */\n      add\n        /* \"#utility.yul\":2660:2739   */\n      tag_218\n      jump\t// in\n    tag_240:\n        /* \"#utility.yul\":2651:2739   */\n      swap2\n      pop\n        /* \"#utility.yul\":2534:2745   */\n      pop\n      swap3\n      swap2\n      pop\n      pop\n      jump\t// out\n        /* \"#utility.yul\":2751:2890   */\n    tag_217:\n      0x00\n        /* \"#utility.yul\":2835:2841   */\n      dup2\n        /* \"#utility.yul\":2822:2842   */\n      calldataload\n        /* \"#utility.yul\":2813:2842   */\n      swap1\n      pop\n        /* \"#utility.yul\":2851:2884   */\n      tag_242\n        /* \"#utility.yul\":2878:2883   */\n      dup2\n        /* \"#utility.yul\":2851:2884   */\n      tag_243\n      jump\t// in\n    tag_242:\n        /* \"#utility.yul\":2803:2890   */\n      swap3\n      swap2\n      pop\n      pop\n      jump\t// out\n        /* \"#utility.yul\":2896:3039   */\n    tag_244:\n      0x00\n        /* \"#utility.yul\":2984:2990   */\n      dup2\n        /* \"#utility.yul\":2978:2991   */\n      mload\n        /* \"#utility.yul\":2969:2991   */\n      swap1\n      pop\n        /* \"#utility.yul\":3000:3033   */\n      tag_246\n        /* \"#utility.yul\":3027:3032   */\n      dup2\n        /* \"#utility.yul\":3000:3033   */\n      tag_243\n      jump\t// in\n    tag_246:\n        /* \"#utility.yul\":2959:3039   */\n      swap3\n      swap2\n      pop\n      pop\n      jump\t// out\n        /* \"#utility.yul\":3045:3307   */\n    tag_33:\n      0x00\n        /* \"#utility.yul\":3153:3155   */\n      0x20\n        /* \"#utility.yul\":3141:3150   */\n      dup3\n        /* \"#utility.yul\":3132:3139   */\n      dup5\n        /* \"#utility.yul\":3128:3151   */\n      sub\n        /* \"#utility.yul\":3124:3156   */\n      slt\n        /* \"#utility.yul\":3121:3123   */\n      iszero\n      tag_248\n      jumpi\n        /* \"#utility.yul\":3169:3170   */\n      0x00\n        /* \"#utility.yul\":3166:3167   */\n      dup1\n        /* \"#utility.yul\":3159:3171   */\n      revert\n        /* \"#utility.yul\":3121:3123   */\n    tag_248:\n        /* \"#utility.yul\":3212:3213   */\n      0x00\n        /* \"#utility.yul\":3237:3290   */\n      tag_249\n        /* \"#utility.yul\":3282:3289   */\n      dup5\n        /* \"#utility.yul\":3273:3279   */\n      dup3\n        /* \"#utility.yul\":3262:3271   */\n      dup6\n        /* \"#utility.yul\":3258:3280   */\n      add\n        /* \"#utility.yul\":3237:3290   */\n      tag_226\n      jump\t// in\n    tag_249:\n        /* \"#utility.yul\":3227:3290   */\n      swap2\n      pop\n        /* \"#utility.yul\":3183:3300   */\n      pop\n        /* \"#utility.yul\":3111:3307   */\n      swap3\n      swap2\n      pop\n      pop\n      jump\t// out\n        /* \"#utility.yul\":3313:4026   */\n    tag_75:\n      0x00\n      dup1\n        /* \"#utility.yul\":3498:3500   */\n      0x40\n        /* \"#utility.yul\":3486:3495   */\n      dup4\n        /* \"#utility.yul\":3477:3484   */\n      dup6\n        /* \"#utility.yul\":3473:3496   */\n      sub\n        /* \"#utility.yul\":3469:3501   */\n      slt\n        /* \"#utility.yul\":3466:3468   */\n      iszero\n      tag_251\n      jumpi\n        /* \"#utility.yul\":3514:3515   */\n      0x00\n        /* \"#utility.yul\":3511:3512   */\n      dup1\n        /* \"#utility.yul\":3504:3516   */\n      revert\n        /* \"#utility.yul\":3466:3468   */\n    tag_251:\n        /* \"#utility.yul\":3585:3586   */\n      0x00\n        /* \"#utility.yul\":3574:3583   */\n      dup4\n        /* \"#utility.yul\":3570:3587   */\n      add\n        /* \"#utility.yul\":3557:3588   */\n      calldataload\n        /* \"#utility.yul\":3615:3633   */\n      0xffffffffffffffff\n        /* \"#utility.yul\":3607:3613   */\n      dup2\n        /* \"#utility.yul\":3604:3634   */\n      gt\n        /* \"#utility.yul\":3601:3603   */\n      iszero\n      tag_252\n      jumpi\n        /* \"#utility.yul\":3647:3648   */\n      0x00\n        /* \"#utility.yul\":3644:3645   */\n      dup1\n        /* \"#utility.yul\":3637:3649   */\n      revert\n        /* \"#utility.yul\":3601:3603   */\n    tag_252:\n        /* \"#utility.yul\":3675:3753   */\n      tag_253\n        /* \"#utility.yul\":3745:3752   */\n      dup6\n        /* \"#utility.yul\":3736:3742   */\n      dup3\n        /* \"#utility.yul\":3725:3734   */\n      dup7\n        /* \"#utility.yul\":3721:3743   */\n      add\n        /* \"#utility.yul\":3675:3753   */\n      tag_234\n      jump\t// in\n    tag_253:\n        /* \"#utility.yul\":3665:3753   */\n      swap3\n      pop\n        /* \"#utility.yul\":3528:3763   */\n      pop\n        /* \"#utility.yul\":3830:3832   */\n      0x20\n        /* \"#utility.yul\":3819:3828   */\n      dup4\n        /* \"#utility.yul\":3815:3833   */\n      add\n        /* \"#utility.yul\":3802:3834   */\n      calldataload\n        /* \"#utility.yul\":3861:3879   */\n      0xffffffffffffffff\n        /* \"#utility.yul\":3853:3859   */\n      dup2\n        /* \"#utility.yul\":3850:3880   */\n      gt\n        /* \"#utility.yul\":3847:3849   */\n      iszero\n      tag_254\n      jumpi\n        /* \"#utility.yul\":3893:3894   */\n      0x00\n        /* \"#utility.yul\":3890:3891   */\n      dup1\n        /* \"#utility.yul\":3883:3895   */\n      revert\n        /* \"#utility.yul\":3847:3849   */\n    tag_254:\n        /* \"#utility.yul\":3921:4009   */\n      tag_255\n        /* \"#utility.yul\":4001:4008   */\n      dup6\n        /* \"#utility.yul\":3992:3998   */\n      dup3\n        /* \"#utility.yul\":3981:3990   */\n      dup7\n        /* \"#utility.yul\":3977:3999   */\n      add\n        /* \"#utility.yul\":3921:4009   */\n      tag_230\n      jump\t// in\n    tag_255:\n        /* \"#utility.yul\":3911:4009   */\n      swap2\n      pop\n        /* \"#utility.yul\":3773:4019   */\n      pop\n        /* \"#utility.yul\":3456:4026   */\n      swap3\n      pop\n      swap3\n      swap1\n      pop\n      jump\t// out\n        /* \"#utility.yul\":4032:4294   */\n    tag_55:\n      0x00\n        /* \"#utility.yul\":4140:4142   */\n      0x20\n        /* \"#utility.yul\":4128:4137   */\n      dup3\n        /* \"#utility.yul\":4119:4126   */\n      dup5\n        /* \"#utility.yul\":4115:4138   */\n      sub\n        /* \"#utility.yul\":4111:4143   */\n      slt\n        /* \"#utility.yul\":4108:4110   */\n      iszero\n      tag_257\n      jumpi\n        /* \"#utility.yul\":4156:4157   */\n      0x00\n        /* \"#utility.yul\":4153:4154   */\n      dup1\n        /* \"#utility.yul\":4146:4158   */\n      revert\n        /* \"#utility.yul\":4108:4110   */\n    tag_257:\n        /* \"#utility.yul\":4199:4200   */\n      0x00\n        /* \"#utility.yul\":4224:4277   */\n      tag_258\n        /* \"#utility.yul\":4269:4276   */\n      dup5\n        /* \"#utility.yul\":4260:4266   */\n      dup3\n        /* \"#utility.yul\":4249:4258   */\n      dup6\n        /* \"#utility.yul\":4245:4267   */\n      add\n        /* \"#utility.yul\":4224:4277   */\n      tag_217\n      jump\t// in\n    tag_258:\n        /* \"#utility.yul\":4214:4277   */\n      swap2\n      pop\n        /* \"#utility.yul\":4170:4287   */\n      pop\n        /* \"#utility.yul\":4098:4294   */\n      swap3\n      swap2\n      pop\n      pop\n      jump\t// out\n        /* \"#utility.yul\":4300:4584   */\n    tag_85:\n      0x00\n        /* \"#utility.yul\":4419:4421   */\n      0x20\n        /* \"#utility.yul\":4407:4416   */\n      dup3\n        /* \"#utility.yul\":4398:4405   */\n      dup5\n        /* \"#utility.yul\":4394:4417   */\n      sub\n        /* \"#utility.yul\":4390:4422   */\n      slt\n        /* \"#utility.yul\":4387:4389   */\n      iszero\n      tag_260\n      jumpi\n        /* \"#utility.yul\":4435:4436   */\n      0x00\n        /* \"#utility.yul\":4432:4433   */\n      dup1\n        /* \"#utility.yul\":4425:4437   */\n      revert\n        /* \"#utility.yul\":4387:4389   */\n    tag_260:\n        /* \"#utility.yul\":4478:4479   */\n      0x00\n        /* \"#utility.yul\":4503:4567   */\n      tag_261\n        /* \"#utility.yul\":4559:4566   */\n      dup5\n        /* \"#utility.yul\":4550:4556   */\n      dup3\n        /* \"#utility.yul\":4539:4548   */\n      dup6\n        /* \"#utility.yul\":4535:4557   */\n      add\n        /* \"#utility.yul\":4503:4567   */\n      tag_244\n      jump\t// in\n    tag_261:\n        /* \"#utility.yul\":4493:4567   */\n      swap2\n      pop\n        /* \"#utility.yul\":4449:4577   */\n      pop\n        /* \"#utility.yul\":4377:4584   */\n      swap3\n      swap2\n      pop\n      pop\n      jump\t// out\n        /* \"#utility.yul\":4590:4786   */\n    tag_262:\n      0x00\n        /* \"#utility.yul\":4714:4780   */\n      tag_264\n        /* \"#utility.yul\":4776:4779   */\n      dup4\n        /* \"#utility.yul\":4768:4774   */\n      dup4\n        /* \"#utility.yul\":4714:4780   */\n      tag_265\n      jump\t// in\n    tag_264:\n        /* \"#utility.yul\":4700:4780   */\n      swap1\n      pop\n        /* \"#utility.yul\":4690:4786   */\n      swap3\n      swap2\n      pop\n      pop\n      jump\t// out\n        /* \"#utility.yul\":4792:4971   */\n    tag_266:\n      0x00\n        /* \"#utility.yul\":4882:4928   */\n      tag_268\n        /* \"#utility.yul\":4924:4927   */\n      dup4\n        /* \"#utility.yul\":4916:4922   */\n      dup4\n        /* \"#utility.yul\":4882:4928   */\n      tag_269\n      jump\t// in\n    tag_268:\n        /* \"#utility.yul\":4960:4964   */\n      0x20\n        /* \"#utility.yul\":4955:4958   */\n      dup4\n        /* \"#utility.yul\":4951:4965   */\n      add\n        /* \"#utility.yul\":4937:4965   */\n      swap1\n      pop\n        /* \"#utility.yul\":4872:4971   */\n      swap3\n      swap2\n      pop\n      pop\n      jump\t// out\n        /* \"#utility.yul\":4977:5095   */\n    tag_270:\n        /* \"#utility.yul\":5064:5088   */\n      tag_272\n        /* \"#utility.yul\":5082:5087   */\n      dup2\n        /* \"#utility.yul\":5064:5088   */\n      tag_273\n      jump\t// in\n    tag_272:\n        /* \"#utility.yul\":5059:5062   */\n      dup3\n        /* \"#utility.yul\":5052:5089   */\n      mstore\n        /* \"#utility.yul\":5042:5095   */\n      pop\n      pop\n      jump\t// out\n        /* \"#utility.yul\":5129:6120   */\n    tag_274:\n      0x00\n        /* \"#utility.yul\":5297:5361   */\n      tag_276\n        /* \"#utility.yul\":5355:5360   */\n      dup3\n        /* \"#utility.yul\":5297:5361   */\n      tag_277\n      jump\t// in\n    tag_276:\n        /* \"#utility.yul\":5377:5473   */\n      tag_278\n        /* \"#utility.yul\":5466:5472   */\n      dup2\n        /* \"#utility.yul\":5461:5464   */\n      dup6\n        /* \"#utility.yul\":5377:5473   */\n      tag_279\n      jump\t// in\n    tag_278:\n        /* \"#utility.yul\":5370:5473   */\n      swap4\n      pop\n        /* \"#utility.yul\":5499:5502   */\n      dup4\n        /* \"#utility.yul\":5544:5548   */\n      0x20\n        /* \"#utility.yul\":5536:5542   */\n      dup3\n        /* \"#utility.yul\":5532:5549   */\n      mul\n        /* \"#utility.yul\":5527:5530   */\n      dup6\n        /* \"#utility.yul\":5523:5550   */\n      add\n        /* \"#utility.yul\":5574:5640   */\n      tag_280\n        /* \"#utility.yul\":5634:5639   */\n      dup6\n        /* \"#utility.yul\":5574:5640   */\n      tag_281\n      jump\t// in\n    tag_280:\n        /* \"#utility.yul\":5663:5670   */\n      dup1\n        /* \"#utility.yul\":5694:5695   */\n      0x00\n        /* \"#utility.yul\":5679:6075   */\n    tag_282:\n        /* \"#utility.yul\":5704:5710   */\n      dup6\n        /* \"#utility.yul\":5701:5702   */\n      dup2\n        /* \"#utility.yul\":5698:5711   */\n      lt\n        /* \"#utility.yul\":5679:6075   */\n      iszero\n      tag_284\n      jumpi\n        /* \"#utility.yul\":5775:5784   */\n      dup5\n        /* \"#utility.yul\":5769:5773   */\n      dup5\n        /* \"#utility.yul\":5765:5785   */\n      sub\n        /* \"#utility.yul\":5760:5763   */\n      dup10\n        /* \"#utility.yul\":5753:5786   */\n      mstore\n        /* \"#utility.yul\":5826:5832   */\n      dup2\n        /* \"#utility.yul\":5820:5833   */\n      mload\n        /* \"#utility.yul\":5854:5938   */\n      tag_285\n        /* \"#utility.yul\":5933:5937   */\n      dup6\n        /* \"#utility.yul\":5918:5931   */\n      dup3\n        /* \"#utility.yul\":5854:5938   */\n      tag_262\n      jump\t// in\n    tag_285:\n        /* \"#utility.yul\":5846:5938   */\n      swap5\n      pop\n        /* \"#utility.yul\":5961:6031   */\n      tag_286\n        /* \"#utility.yul\":6024:6030   */\n      dup4\n        /* \"#utility.yul\":5961:6031   */\n      tag_287\n      jump\t// in\n    tag_286:\n        /* \"#utility.yul\":5951:6031   */\n      swap3\n      pop\n        /* \"#utility.yul\":6060:6064   */\n      0x20\n        /* \"#utility.yul\":6055:6058   */\n      dup11\n        /* \"#utility.yul\":6051:6065   */\n      add\n        /* \"#utility.yul\":6044:6065   */\n      swap10\n      pop\n        /* \"#utility.yul\":5739:6075   */\n      pop\n        /* \"#utility.yul\":5726:5727   */\n      0x01\n        /* \"#utility.yul\":5723:5724   */\n      dup2\n        /* \"#utility.yul\":5719:5728   */\n      add\n        /* \"#utility.yul\":5714:5728   */\n      swap1\n      pop\n        /* \"#utility.yul\":5679:6075   */\n      jump(tag_282)\n    tag_284:\n        /* \"#utility.yul\":5683:5697   */\n      pop\n        /* \"#utility.yul\":6091:6095   */\n      dup3\n        /* \"#utility.yul\":6084:6095   */\n      swap8\n      pop\n        /* \"#utility.yul\":6111:6114   */\n      dup8\n        /* \"#utility.yul\":6104:6114   */\n      swap6\n      pop\n        /* \"#utility.yul\":5273:6120   */\n      pop\n      pop\n      pop\n      pop\n      pop\n      swap3\n      swap2\n      pop\n      pop\n      jump\t// out\n        /* \"#utility.yul\":6156:6888   */\n    tag_288:\n      0x00\n        /* \"#utility.yul\":6304:6358   */\n      tag_290\n        /* \"#utility.yul\":6352:6357   */\n      dup3\n        /* \"#utility.yul\":6304:6358   */\n      tag_291\n      jump\t// in\n    tag_290:\n        /* \"#utility.yul\":6374:6460   */\n      tag_292\n        /* \"#utility.yul\":6453:6459   */\n      dup2\n        /* \"#utility.yul\":6448:6451   */\n      dup6\n        /* \"#utility.yul\":6374:6460   */\n      tag_293\n      jump\t// in\n    tag_292:\n        /* \"#utility.yul\":6367:6460   */\n      swap4\n      pop\n        /* \"#utility.yul\":6484:6540   */\n      tag_294\n        /* \"#utility.yul\":6534:6539   */\n      dup4\n        /* \"#utility.yul\":6484:6540   */\n      tag_295\n      jump\t// in\n    tag_294:\n        /* \"#utility.yul\":6563:6570   */\n      dup1\n        /* \"#utility.yul\":6594:6595   */\n      0x00\n        /* \"#utility.yul\":6579:6863   */\n    tag_296:\n        /* \"#utility.yul\":6604:6610   */\n      dup4\n        /* \"#utility.yul\":6601:6602   */\n      dup2\n        /* \"#utility.yul\":6598:6611   */\n      lt\n        /* \"#utility.yul\":6579:6863   */\n      iszero\n      tag_298\n      jumpi\n        /* \"#utility.yul\":6680:6686   */\n      dup2\n        /* \"#utility.yul\":6674:6687   */\n      mload\n        /* \"#utility.yul\":6707:6770   */\n      tag_299\n        /* \"#utility.yul\":6766:6769   */\n      dup9\n        /* \"#utility.yul\":6751:6764   */\n      dup3\n        /* \"#utility.yul\":6707:6770   */\n      tag_266\n      jump\t// in\n    tag_299:\n        /* \"#utility.yul\":6700:6770   */\n      swap8\n      pop\n        /* \"#utility.yul\":6793:6853   */\n      tag_300\n        /* \"#utility.yul\":6846:6852   */\n      dup4\n        /* \"#utility.yul\":6793:6853   */\n      tag_301\n      jump\t// in\n    tag_300:\n        /* \"#utility.yul\":6783:6853   */\n      swap3\n      pop\n        /* \"#utility.yul\":6639:6863   */\n      pop\n        /* \"#utility.yul\":6626:6627   */\n      0x01\n        /* \"#utility.yul\":6623:6624   */\n      dup2\n        /* \"#utility.yul\":6619:6628   */\n      add\n        /* \"#utility.yul\":6614:6628   */\n      swap1\n      pop\n        /* \"#utility.yul\":6579:6863   */\n      jump(tag_296)\n    tag_298:\n        /* \"#utility.yul\":6583:6597   */\n      pop\n        /* \"#utility.yul\":6879:6882   */\n      dup6\n        /* \"#utility.yul\":6872:6882   */\n      swap4\n      pop\n        /* \"#utility.yul\":6280:6888   */\n      pop\n      pop\n      pop\n      swap3\n      swap2\n      pop\n      pop\n      jump\t// out\n        /* \"#utility.yul\":6894:7003   */\n    tag_302:\n        /* \"#utility.yul\":6975:6996   */\n      tag_304\n        /* \"#utility.yul\":6990:6995   */\n      dup2\n        /* \"#utility.yul\":6975:6996   */\n      tag_305\n      jump\t// in\n    tag_304:\n        /* \"#utility.yul\":6970:6973   */\n      dup3\n        /* \"#utility.yul\":6963:6997   */\n      mstore\n        /* \"#utility.yul\":6953:7003   */\n      pop\n      pop\n      jump\t// out\n        /* \"#utility.yul\":7009:7180   */\n    tag_306:\n        /* \"#utility.yul\":7116:7173   */\n      tag_308\n        /* \"#utility.yul\":7167:7172   */\n      dup2\n        /* \"#utility.yul\":7116:7173   */\n      tag_309\n      jump\t// in\n    tag_308:\n        /* \"#utility.yul\":7111:7114   */\n      dup3\n        /* \"#utility.yul\":7104:7174   */\n      mstore\n        /* \"#utility.yul\":7094:7180   */\n      pop\n      pop\n      jump\t// out\n        /* \"#utility.yul\":7186:7357   */\n    tag_310:\n        /* \"#utility.yul\":7293:7350   */\n      tag_312\n        /* \"#utility.yul\":7344:7349   */\n      dup2\n        /* \"#utility.yul\":7293:7350   */\n      tag_313\n      jump\t// in\n    tag_312:\n        /* \"#utility.yul\":7288:7291   */\n      dup3\n        /* \"#utility.yul\":7281:7351   */\n      mstore\n        /* \"#utility.yul\":7271:7357   */\n      pop\n      pop\n      jump\t// out\n        /* \"#utility.yul\":7363:7707   */\n    tag_265:\n      0x00\n        /* \"#utility.yul\":7469:7508   */\n      tag_315\n        /* \"#utility.yul\":7502:7507   */\n      dup3\n        /* \"#utility.yul\":7469:7508   */\n      tag_316\n      jump\t// in\n    tag_315:\n        /* \"#utility.yul\":7524:7585   */\n      tag_317\n        /* \"#utility.yul\":7578:7584   */\n      dup2\n        /* \"#utility.yul\":7573:7576   */\n      dup6\n        /* \"#utility.yul\":7524:7585   */\n      tag_318\n      jump\t// in\n    tag_317:\n        /* \"#utility.yul\":7517:7585   */\n      swap4\n      pop\n        /* \"#utility.yul\":7594:7646   */\n      tag_319\n        /* \"#utility.yul\":7639:7645   */\n      dup2\n        /* \"#utility.yul\":7634:7637   */\n      dup6\n        /* \"#utility.yul\":7627:7631   */\n      0x20\n        /* \"#utility.yul\":7620:7625   */\n      dup7\n        /* \"#utility.yul\":7616:7632   */\n      add\n        /* \"#utility.yul\":7594:7646   */\n      tag_320\n      jump\t// in\n    tag_319:\n        /* \"#utility.yul\":7671:7700   */\n      tag_321\n        /* \"#utility.yul\":7693:7699   */\n      dup2\n        /* \"#utility.yul\":7671:7700   */\n      tag_322\n      jump\t// in\n    tag_321:\n        /* \"#utility.yul\":7666:7669   */\n      dup5\n        /* \"#utility.yul\":7662:7701   */\n      add\n        /* \"#utility.yul\":7655:7701   */\n      swap2\n      pop\n        /* \"#utility.yul\":7445:7707   */\n      pop\n      swap3\n      swap2\n      pop\n      pop\n      jump\t// out\n        /* \"#utility.yul\":7713:8079   */\n    tag_323:\n      0x00\n        /* \"#utility.yul\":7876:7943   */\n      tag_325\n        /* \"#utility.yul\":7940:7942   */\n      0x36\n        /* \"#utility.yul\":7935:7938   */\n      dup4\n        /* \"#utility.yul\":7876:7943   */\n      tag_326\n      jump\t// in\n    tag_325:\n        /* \"#utility.yul\":7869:7943   */\n      swap2\n      pop\n        /* \"#utility.yul\":7952:8045   */\n      tag_327\n        /* \"#utility.yul\":8041:8044   */\n      dup3\n        /* \"#utility.yul\":7952:8045   */\n      tag_328\n      jump\t// in\n    tag_327:\n        /* \"#utility.yul\":8070:8072   */\n      0x40\n        /* \"#utility.yul\":8065:8068   */\n      dup3\n        /* \"#utility.yul\":8061:8073   */\n      add\n        /* \"#utility.yul\":8054:8073   */\n      swap1\n      pop\n        /* \"#utility.yul\":7859:8079   */\n      swap2\n      swap1\n      pop\n      jump\t// out\n        /* \"#utility.yul\":8085:8451   */\n    tag_329:\n      0x00\n        /* \"#utility.yul\":8248:8315   */\n      tag_331\n        /* \"#utility.yul\":8312:8314   */\n      0x26\n        /* \"#utility.yul\":8307:8310   */\n      dup4\n        /* \"#utility.yul\":8248:8315   */\n      tag_326\n      jump\t// in\n    tag_331:\n        /* \"#utility.yul\":8241:8315   */\n      swap2\n      pop\n        /* \"#utility.yul\":8324:8417   */\n      tag_332\n        /* \"#utility.yul\":8413:8416   */\n      dup3\n        /* \"#utility.yul\":8324:8417   */\n      tag_333\n      jump\t// in\n    tag_332:\n        /* \"#utility.yul\":8442:8444   */\n      0x40\n        /* \"#utility.yul\":8437:8440   */\n      dup3\n        /* \"#utility.yul\":8433:8445   */\n      add\n        /* \"#utility.yul\":8426:8445   */\n      swap1\n      pop\n        /* \"#utility.yul\":8231:8451   */\n      swap2\n      swap1\n      pop\n      jump\t// out\n        /* \"#utility.yul\":8457:8823   */\n    tag_334:\n      0x00\n        /* \"#utility.yul\":8620:8687   */\n      tag_336\n        /* \"#utility.yul\":8684:8686   */\n      0x1f\n        /* \"#utility.yul\":8679:8682   */\n      dup4\n        /* \"#utility.yul\":8620:8687   */\n      tag_326\n      jump\t// in\n    tag_336:\n        /* \"#utility.yul\":8613:8687   */\n      swap2\n      pop\n        /* \"#utility.yul\":8696:8789   */\n      tag_337\n        /* \"#utility.yul\":8785:8788   */\n      dup3\n        /* \"#utility.yul\":8696:8789   */\n      tag_338\n      jump\t// in\n    tag_337:\n        /* \"#utility.yul\":8814:8816   */\n      0x20\n        /* \"#utility.yul\":8809:8812   */\n      dup3\n        /* \"#utility.yul\":8805:8817   */\n      add\n        /* \"#utility.yul\":8798:8817   */\n      swap1\n      pop\n        /* \"#utility.yul\":8603:8823   */\n      swap2\n      swap1\n      pop\n      jump\t// out\n        /* \"#utility.yul\":8829:9195   */\n    tag_339:\n      0x00\n        /* \"#utility.yul\":8992:9059   */\n      tag_341\n        /* \"#utility.yul\":9056:9058   */\n      0x20\n        /* \"#utility.yul\":9051:9054   */\n      dup4\n        /* \"#utility.yul\":8992:9059   */\n      tag_326\n      jump\t// in\n    tag_341:\n        /* \"#utility.yul\":8985:9059   */\n      swap2\n      pop\n        /* \"#utility.yul\":9068:9161   */\n      tag_342\n        /* \"#utility.yul\":9157:9160   */\n      dup3\n        /* \"#utility.yul\":9068:9161   */\n      tag_343\n      jump\t// in\n    tag_342:\n        /* \"#utility.yul\":9186:9188   */\n      0x20\n        /* \"#utility.yul\":9181:9184   */\n      dup3\n        /* \"#utility.yul\":9177:9189   */\n      add\n        /* \"#utility.yul\":9170:9189   */\n      swap1\n      pop\n        /* \"#utility.yul\":8975:9195   */\n      swap2\n      swap1\n      pop\n      jump\t// out\n        /* \"#utility.yul\":9201:9309   */\n    tag_269:\n        /* \"#utility.yul\":9278:9302   */\n      tag_345\n        /* \"#utility.yul\":9296:9301   */\n      dup2\n        /* \"#utility.yul\":9278:9302   */\n      tag_346\n      jump\t// in\n    tag_345:\n        /* \"#utility.yul\":9273:9276   */\n      dup3\n        /* \"#utility.yul\":9266:9303   */\n      mstore\n        /* \"#utility.yul\":9256:9309   */\n      pop\n      pop\n      jump\t// out\n        /* \"#utility.yul\":9315:9433   */\n    tag_347:\n        /* \"#utility.yul\":9402:9426   */\n      tag_349\n        /* \"#utility.yul\":9420:9425   */\n      dup2\n        /* \"#utility.yul\":9402:9426   */\n      tag_346\n      jump\t// in\n    tag_349:\n        /* \"#utility.yul\":9397:9400   */\n      dup3\n        /* \"#utility.yul\":9390:9427   */\n      mstore\n        /* \"#utility.yul\":9380:9433   */\n      pop\n      pop\n      jump\t// out\n        /* \"#utility.yul\":9439:9661   */\n    tag_26:\n      0x00\n        /* \"#utility.yul\":9570:9572   */\n      0x20\n        /* \"#utility.yul\":9559:9568   */\n      dup3\n        /* \"#utility.yul\":9555:9573   */\n      add\n        /* \"#utility.yul\":9547:9573   */\n      swap1\n      pop\n        /* \"#utility.yul\":9583:9654   */\n      tag_351\n        /* \"#utility.yul\":9651:9652   */\n      0x00\n        /* \"#utility.yul\":9640:9649   */\n      dup4\n        /* \"#utility.yul\":9636:9653   */\n      add\n        /* \"#utility.yul\":9627:9633   */\n      dup5\n        /* \"#utility.yul\":9583:9654   */\n      tag_270\n      jump\t// in\n    tag_351:\n        /* \"#utility.yul\":9537:9661   */\n      swap3\n      swap2\n      pop\n      pop\n      jump\t// out\n        /* \"#utility.yul\":9667:9999   */\n    tag_148:\n      0x00\n        /* \"#utility.yul\":9826:9828   */\n      0x40\n        /* \"#utility.yul\":9815:9824   */\n      dup3\n        /* \"#utility.yul\":9811:9829   */\n      add\n        /* \"#utility.yul\":9803:9829   */\n      swap1\n      pop\n        /* \"#utility.yul\":9839:9910   */\n      tag_353\n        /* \"#utility.yul\":9907:9908   */\n      0x00\n        /* \"#utility.yul\":9896:9905   */\n      dup4\n        /* \"#utility.yul\":9892:9909   */\n      add\n        /* \"#utility.yul\":9883:9889   */\n      dup6\n        /* \"#utility.yul\":9839:9910   */\n      tag_270\n      jump\t// in\n    tag_353:\n        /* \"#utility.yul\":9920:9992   */\n      tag_354\n        /* \"#utility.yul\":9988:9990   */\n      0x20\n        /* \"#utility.yul\":9977:9986   */\n      dup4\n        /* \"#utility.yul\":9973:9991   */\n      add\n        /* \"#utility.yul\":9964:9970   */\n      dup5\n        /* \"#utility.yul\":9920:9992   */\n      tag_347\n      jump\t// in\n    tag_354:\n        /* \"#utility.yul\":9793:9999   */\n      swap4\n      swap3\n      pop\n      pop\n      pop\n      jump\t// out\n        /* \"#utility.yul\":10005:10679   */\n    tag_160:\n      0x00\n        /* \"#utility.yul\":10284:10286   */\n      0x40\n        /* \"#utility.yul\":10273:10282   */\n      dup3\n        /* \"#utility.yul\":10269:10287   */\n      add\n        /* \"#utility.yul\":10261:10287   */\n      swap1\n      pop\n        /* \"#utility.yul\":10333:10342   */\n      dup2\n        /* \"#utility.yul\":10327:10331   */\n      dup2\n        /* \"#utility.yul\":10323:10343   */\n      sub\n        /* \"#utility.yul\":10319:10320   */\n      0x00\n        /* \"#utility.yul\":10308:10317   */\n      dup4\n        /* \"#utility.yul\":10304:10321   */\n      add\n        /* \"#utility.yul\":10297:10344   */\n      mstore\n        /* \"#utility.yul\":10361:10469   */\n      tag_356\n        /* \"#utility.yul\":10464:10468   */\n      dup2\n        /* \"#utility.yul\":10455:10461   */\n      dup6\n        /* \"#utility.yul\":10361:10469   */\n      tag_288\n      jump\t// in\n    tag_356:\n        /* \"#utility.yul\":10353:10469   */\n      swap1\n      pop\n        /* \"#utility.yul\":10516:10525   */\n      dup2\n        /* \"#utility.yul\":10510:10514   */\n      dup2\n        /* \"#utility.yul\":10506:10526   */\n      sub\n        /* \"#utility.yul\":10501:10503   */\n      0x20\n        /* \"#utility.yul\":10490:10499   */\n      dup4\n        /* \"#utility.yul\":10486:10504   */\n      add\n        /* \"#utility.yul\":10479:10527   */\n      mstore\n        /* \"#utility.yul\":10544:10672   */\n      tag_357\n        /* \"#utility.yul\":10667:10671   */\n      dup2\n        /* \"#utility.yul\":10658:10664   */\n      dup5\n        /* \"#utility.yul\":10544:10672   */\n      tag_274\n      jump\t// in\n    tag_357:\n        /* \"#utility.yul\":10536:10672   */\n      swap1\n      pop\n        /* \"#utility.yul\":10251:10679   */\n      swap4\n      swap3\n      pop\n      pop\n      pop\n      jump\t// out\n        /* \"#utility.yul\":10685:10947   */\n    tag_47:\n      0x00\n        /* \"#utility.yul\":10836:10838   */\n      0x20\n        /* \"#utility.yul\":10825:10834   */\n      dup3\n        /* \"#utility.yul\":10821:10839   */\n      add\n        /* \"#utility.yul\":10813:10839   */\n      swap1\n      pop\n        /* \"#utility.yul\":10849:10940   */\n      tag_359\n        /* \"#utility.yul\":10937:10938   */\n      0x00\n        /* \"#utility.yul\":10926:10935   */\n      dup4\n        /* \"#utility.yul\":10922:10939   */\n      add\n        /* \"#utility.yul\":10913:10919   */\n      dup5\n        /* \"#utility.yul\":10849:10940   */\n      tag_306\n      jump\t// in\n    tag_359:\n        /* \"#utility.yul\":10803:10947   */\n      swap3\n      swap2\n      pop\n      pop\n      jump\t// out\n        /* \"#utility.yul\":10953:11215   */\n    tag_69:\n      0x00\n        /* \"#utility.yul\":11104:11106   */\n      0x20\n        /* \"#utility.yul\":11093:11102   */\n      dup3\n        /* \"#utility.yul\":11089:11107   */\n      add\n        /* \"#utility.yul\":11081:11107   */\n      swap1\n      pop\n        /* \"#utility.yul\":11117:11208   */\n      tag_361\n        /* \"#utility.yul\":11205:11206   */\n      0x00\n        /* \"#utility.yul\":11194:11203   */\n      dup4\n        /* \"#utility.yul\":11190:11207   */\n      add\n        /* \"#utility.yul\":11181:11187   */\n      dup5\n        /* \"#utility.yul\":11117:11208   */\n      tag_310\n      jump\t// in\n    tag_361:\n        /* \"#utility.yul\":11071:11215   */\n      swap3\n      swap2\n      pop\n      pop\n      jump\t// out\n        /* \"#utility.yul\":11221:11640   */\n    tag_118:\n      0x00\n        /* \"#utility.yul\":11425:11427   */\n      0x20\n        /* \"#utility.yul\":11414:11423   */\n      dup3\n        /* \"#utility.yul\":11410:11428   */\n      add\n        /* \"#utility.yul\":11402:11428   */\n      swap1\n      pop\n        /* \"#utility.yul\":11474:11483   */\n      dup2\n        /* \"#utility.yul\":11468:11472   */\n      dup2\n        /* \"#utility.yul\":11464:11484   */\n      sub\n        /* \"#utility.yul\":11460:11461   */\n      0x00\n        /* \"#utility.yul\":11449:11458   */\n      dup4\n        /* \"#utility.yul\":11445:11462   */\n      add\n        /* \"#utility.yul\":11438:11485   */\n      mstore\n        /* \"#utility.yul\":11502:11633   */\n      tag_363\n        /* \"#utility.yul\":11628:11632   */\n      dup2\n        /* \"#utility.yul\":11502:11633   */\n      tag_323\n      jump\t// in\n    tag_363:\n        /* \"#utility.yul\":11494:11633   */\n      swap1\n      pop\n        /* \"#utility.yul\":11392:11640   */\n      swap2\n      swap1\n      pop\n      jump\t// out\n        /* \"#utility.yul\":11646:12065   */\n    tag_172:\n      0x00\n        /* \"#utility.yul\":11850:11852   */\n      0x20\n        /* \"#utility.yul\":11839:11848   */\n      dup3\n        /* \"#utility.yul\":11835:11853   */\n      add\n        /* \"#utility.yul\":11827:11853   */\n      swap1\n      pop\n        /* \"#utility.yul\":11899:11908   */\n      dup2\n        /* \"#utility.yul\":11893:11897   */\n      dup2\n        /* \"#utility.yul\":11889:11909   */\n      sub\n        /* \"#utility.yul\":11885:11886   */\n      0x00\n        /* \"#utility.yul\":11874:11883   */\n      dup4\n        /* \"#utility.yul\":11870:11887   */\n      add\n        /* \"#utility.yul\":11863:11910   */\n      mstore\n        /* \"#utility.yul\":11927:12058   */\n      tag_365\n        /* \"#utility.yul\":12053:12057   */\n      dup2\n        /* \"#utility.yul\":11927:12058   */\n      tag_329\n      jump\t// in\n    tag_365:\n        /* \"#utility.yul\":11919:12058   */\n      swap1\n      pop\n        /* \"#utility.yul\":11817:12065   */\n      swap2\n      swap1\n      pop\n      jump\t// out\n        /* \"#utility.yul\":12071:12490   */\n    tag_179:\n      0x00\n        /* \"#utility.yul\":12275:12277   */\n      0x20\n        /* \"#utility.yul\":12264:12273   */\n      dup3\n        /* \"#utility.yul\":12260:12278   */\n      add\n        /* \"#utility.yul\":12252:12278   */\n      swap1\n      pop\n        /* \"#utility.yul\":12324:12333   */\n      dup2\n        /* \"#utility.yul\":12318:12322   */\n      dup2\n        /* \"#utility.yul\":12314:12334   */\n      sub\n        /* \"#utility.yul\":12310:12311   */\n      0x00\n        /* \"#utility.yul\":12299:12308   */\n      dup4\n        /* \"#utility.yul\":12295:12312   */\n      add\n        /* \"#utility.yul\":12288:12335   */\n      mstore\n        /* \"#utility.yul\":12352:12483   */\n      tag_367\n        /* \"#utility.yul\":12478:12482   */\n      dup2\n        /* \"#utility.yul\":12352:12483   */\n      tag_334\n      jump\t// in\n    tag_367:\n        /* \"#utility.yul\":12344:12483   */\n      swap1\n      pop\n        /* \"#utility.yul\":12242:12490   */\n      swap2\n      swap1\n      pop\n      jump\t// out\n        /* \"#utility.yul\":12496:12915   */\n    tag_92:\n      0x00\n        /* \"#utility.yul\":12700:12702   */\n      0x20\n        /* \"#utility.yul\":12689:12698   */\n      dup3\n        /* \"#utility.yul\":12685:12703   */\n      add\n        /* \"#utility.yul\":12677:12703   */\n      swap1\n      pop\n        /* \"#utility.yul\":12749:12758   */\n      dup2\n        /* \"#utility.yul\":12743:12747   */\n      dup2\n        /* \"#utility.yul\":12739:12759   */\n      sub\n        /* \"#utility.yul\":12735:12736   */\n      0x00\n        /* \"#utility.yul\":12724:12733   */\n      dup4\n        /* \"#utility.yul\":12720:12737   */\n      add\n        /* \"#utility.yul\":12713:12760   */\n      mstore\n        /* \"#utility.yul\":12777:12908   */\n      tag_369\n        /* \"#utility.yul\":12903:12907   */\n      dup2\n        /* \"#utility.yul\":12777:12908   */\n      tag_339\n      jump\t// in\n    tag_369:\n        /* \"#utility.yul\":12769:12908   */\n      swap1\n      pop\n        /* \"#utility.yul\":12667:12915   */\n      swap2\n      swap1\n      pop\n      jump\t// out\n        /* \"#utility.yul\":12921:13143   */\n    tag_30:\n      0x00\n        /* \"#utility.yul\":13052:13054   */\n      0x20\n        /* \"#utility.yul\":13041:13050   */\n      dup3\n        /* \"#utility.yul\":13037:13055   */\n      add\n        /* \"#utility.yul\":13029:13055   */\n      swap1\n      pop\n        /* \"#utility.yul\":13065:13136   */\n      tag_371\n        /* \"#utility.yul\":13133:13134   */\n      0x00\n        /* \"#utility.yul\":13122:13131   */\n      dup4\n        /* \"#utility.yul\":13118:13135   */\n      add\n        /* \"#utility.yul\":13109:13115   */\n      dup5\n        /* \"#utility.yul\":13065:13136   */\n      tag_347\n      jump\t// in\n    tag_371:\n        /* \"#utility.yul\":13019:13143   */\n      swap3\n      swap2\n      pop\n      pop\n      jump\t// out\n        /* \"#utility.yul\":13149:13579   */\n    tag_65:\n      0x00\n        /* \"#utility.yul\":13330:13332   */\n      0x60\n        /* \"#utility.yul\":13319:13328   */\n      dup3\n        /* \"#utility.yul\":13315:13333   */\n      add\n        /* \"#utility.yul\":13307:13333   */\n      swap1\n      pop\n        /* \"#utility.yul\":13343:13414   */\n      tag_373\n        /* \"#utility.yul\":13411:13412   */\n      0x00\n        /* \"#utility.yul\":13400:13409   */\n      dup4\n        /* \"#utility.yul\":13396:13413   */\n      add\n        /* \"#utility.yul\":13387:13393   */\n      dup7\n        /* \"#utility.yul\":13343:13414   */\n      tag_347\n      jump\t// in\n    tag_373:\n        /* \"#utility.yul\":13424:13496   */\n      tag_374\n        /* \"#utility.yul\":13492:13494   */\n      0x20\n        /* \"#utility.yul\":13481:13490   */\n      dup4\n        /* \"#utility.yul\":13477:13495   */\n      add\n        /* \"#utility.yul\":13468:13474   */\n      dup6\n        /* \"#utility.yul\":13424:13496   */\n      tag_347\n      jump\t// in\n    tag_374:\n        /* \"#utility.yul\":13506:13572   */\n      tag_375\n        /* \"#utility.yul\":13568:13570   */\n      0x40\n        /* \"#utility.yul\":13557:13566   */\n      dup4\n        /* \"#utility.yul\":13553:13571   */\n      add\n        /* \"#utility.yul\":13544:13550   */\n      dup5\n        /* \"#utility.yul\":13506:13572   */\n      tag_302\n      jump\t// in\n    tag_375:\n        /* \"#utility.yul\":13297:13579   */\n      swap5\n      swap4\n      pop\n      pop\n      pop\n      pop\n      jump\t// out\n        /* \"#utility.yul\":13585:13714   */\n    tag_201:\n      0x00\n        /* \"#utility.yul\":13646:13666   */\n      tag_377\n      tag_378\n      jump\t// in\n    tag_377:\n        /* \"#utility.yul\":13636:13666   */\n      swap1\n      pop\n        /* \"#utility.yul\":13675:13708   */\n      tag_379\n        /* \"#utility.yul\":13703:13707   */\n      dup3\n        /* \"#utility.yul\":13695:13701   */\n      dup3\n        /* \"#utility.yul\":13675:13708   */\n      tag_380\n      jump\t// in\n    tag_379:\n        /* \"#utility.yul\":13626:13714   */\n      swap2\n      swap1\n      pop\n      jump\t// out\n        /* \"#utility.yul\":13720:13795   */\n    tag_378:\n      0x00\n        /* \"#utility.yul\":13786:13788   */\n      0x40\n        /* \"#utility.yul\":13780:13789   */\n      mload\n        /* \"#utility.yul\":13770:13789   */\n      swap1\n      pop\n        /* \"#utility.yul\":13760:13795   */\n      swap1\n      jump\t// out\n        /* \"#utility.yul\":13801:14122   */\n    tag_200:\n      0x00\n        /* \"#utility.yul\":13978:13996   */\n      0xffffffffffffffff\n        /* \"#utility.yul\":13970:13976   */\n      dup3\n        /* \"#utility.yul\":13967:13997   */\n      gt\n        /* \"#utility.yul\":13964:13966   */\n      iszero\n      tag_383\n      jumpi\n        /* \"#utility.yul\":14000:14018   */\n      tag_384\n      tag_385\n      jump\t// in\n    tag_384:\n        /* \"#utility.yul\":13964:13966   */\n    tag_383:\n        /* \"#utility.yul\":14050:14054   */\n      0x20\n        /* \"#utility.yul\":14042:14048   */\n      dup3\n        /* \"#utility.yul\":14038:14055   */\n      mul\n        /* \"#utility.yul\":14030:14055   */\n      swap1\n      pop\n        /* \"#utility.yul\":14110:14114   */\n      0x20\n        /* \"#utility.yul\":14104:14108   */\n      dup2\n        /* \"#utility.yul\":14100:14115   */\n      add\n        /* \"#utility.yul\":14092:14115   */\n      swap1\n      pop\n        /* \"#utility.yul\":13893:14122   */\n      swap2\n      swap1\n      pop\n      jump\t// out\n        /* \"#utility.yul\":14128:14439   */\n    tag_211:\n      0x00\n        /* \"#utility.yul\":14295:14313   */\n      0xffffffffffffffff\n        /* \"#utility.yul\":14287:14293   */\n      dup3\n        /* \"#utility.yul\":14284:14314   */\n      gt\n        /* \"#utility.yul\":14281:14283   */\n      iszero\n      tag_387\n      jumpi\n        /* \"#utility.yul\":14317:14335   */\n      tag_388\n      tag_385\n      jump\t// in\n    tag_388:\n        /* \"#utility.yul\":14281:14283   */\n    tag_387:\n        /* \"#utility.yul\":14367:14371   */\n      0x20\n        /* \"#utility.yul\":14359:14365   */\n      dup3\n        /* \"#utility.yul\":14355:14372   */\n      mul\n        /* \"#utility.yul\":14347:14372   */\n      swap1\n      pop\n        /* \"#utility.yul\":14427:14431   */\n      0x20\n        /* \"#utility.yul\":14421:14425   */\n      dup2\n        /* \"#utility.yul\":14417:14432   */\n      add\n        /* \"#utility.yul\":14409:14432   */\n      swap1\n      pop\n        /* \"#utility.yul\":14210:14439   */\n      swap2\n      swap1\n      pop\n      jump\t// out\n        /* \"#utility.yul\":14445:14753   */\n    tag_222:\n      0x00\n        /* \"#utility.yul\":14597:14615   */\n      0xffffffffffffffff\n        /* \"#utility.yul\":14589:14595   */\n      dup3\n        /* \"#utility.yul\":14586:14616   */\n      gt\n        /* \"#utility.yul\":14583:14585   */\n      iszero\n      tag_390\n      jumpi\n        /* \"#utility.yul\":14619:14637   */\n      tag_391\n      tag_385\n      jump\t// in\n    tag_391:\n        /* \"#utility.yul\":14583:14585   */\n    tag_390:\n        /* \"#utility.yul\":14657:14686   */\n      tag_392\n        /* \"#utility.yul\":14679:14685   */\n      dup3\n        /* \"#utility.yul\":14657:14686   */\n      tag_322\n      jump\t// in\n    tag_392:\n        /* \"#utility.yul\":14649:14686   */\n      swap1\n      pop\n        /* \"#utility.yul\":14741:14745   */\n      0x20\n        /* \"#utility.yul\":14735:14739   */\n      dup2\n        /* \"#utility.yul\":14731:14746   */\n      add\n        /* \"#utility.yul\":14723:14746   */\n      swap1\n      pop\n        /* \"#utility.yul\":14512:14753   */\n      swap2\n      swap1\n      pop\n      jump\t// out\n        /* \"#utility.yul\":14759:14901   */\n    tag_281:\n      0x00\n        /* \"#utility.yul\":14859:14862   */\n      dup2\n        /* \"#utility.yul\":14851:14862   */\n      swap1\n      pop\n        /* \"#utility.yul\":14889:14893   */\n      0x20\n        /* \"#utility.yul\":14884:14887   */\n      dup3\n        /* \"#utility.yul\":14880:14894   */\n      add\n        /* \"#utility.yul\":14872:14894   */\n      swap1\n      pop\n        /* \"#utility.yul\":14841:14901   */\n      swap2\n      swap1\n      pop\n      jump\t// out\n        /* \"#utility.yul\":14907:15039   */\n    tag_295:\n      0x00\n        /* \"#utility.yul\":14997:15000   */\n      dup2\n        /* \"#utility.yul\":14989:15000   */\n      swap1\n      pop\n        /* \"#utility.yul\":15027:15031   */\n      0x20\n        /* \"#utility.yul\":15022:15025   */\n      dup3\n        /* \"#utility.yul\":15018:15032   */\n      add\n        /* \"#utility.yul\":15010:15032   */\n      swap1\n      pop\n        /* \"#utility.yul\":14979:15039   */\n      swap2\n      swap1\n      pop\n      jump\t// out\n        /* \"#utility.yul\":15045:15169   */\n    tag_277:\n      0x00\n        /* \"#utility.yul\":15156:15161   */\n      dup2\n        /* \"#utility.yul\":15150:15162   */\n      mload\n        /* \"#utility.yul\":15140:15162   */\n      swap1\n      pop\n        /* \"#utility.yul\":15129:15169   */\n      swap2\n      swap1\n      pop\n      jump\t// out\n        /* \"#utility.yul\":15175:15289   */\n    tag_291:\n      0x00\n        /* \"#utility.yul\":15276:15281   */\n      dup2\n        /* \"#utility.yul\":15270:15282   */\n      mload\n        /* \"#utility.yul\":15260:15282   */\n      swap1\n      pop\n        /* \"#utility.yul\":15249:15289   */\n      swap2\n      swap1\n      pop\n      jump\t// out\n        /* \"#utility.yul\":15295:15394   */\n    tag_316:\n      0x00\n        /* \"#utility.yul\":15381:15386   */\n      dup2\n        /* \"#utility.yul\":15375:15387   */\n      mload\n        /* \"#utility.yul\":15365:15387   */\n      swap1\n      pop\n        /* \"#utility.yul\":15354:15394   */\n      swap2\n      swap1\n      pop\n      jump\t// out\n        /* \"#utility.yul\":15400:15523   */\n    tag_287:\n      0x00\n        /* \"#utility.yul\":15512:15516   */\n      0x20\n        /* \"#utility.yul\":15507:15510   */\n      dup3\n        /* \"#utility.yul\":15503:15517   */\n      add\n        /* \"#utility.yul\":15495:15517   */\n      swap1\n      pop\n        /* \"#utility.yul\":15485:15523   */\n      swap2\n      swap1\n      pop\n      jump\t// out\n        /* \"#utility.yul\":15529:15642   */\n    tag_301:\n      0x00\n        /* \"#utility.yul\":15631:15635   */\n      0x20\n        /* \"#utility.yul\":15626:15629   */\n      dup3\n        /* \"#utility.yul\":15622:15636   */\n      add\n        /* \"#utility.yul\":15614:15636   */\n      swap1\n      pop\n        /* \"#utility.yul\":15604:15642   */\n      swap2\n      swap1\n      pop\n      jump\t// out\n        /* \"#utility.yul\":15648:15842   */\n    tag_279:\n      0x00\n        /* \"#utility.yul\":15791:15797   */\n      dup3\n        /* \"#utility.yul\":15786:15789   */\n      dup3\n        /* \"#utility.yul\":15779:15798   */\n      mstore\n        /* \"#utility.yul\":15831:15835   */\n      0x20\n        /* \"#utility.yul\":15826:15829   */\n      dup3\n        /* \"#utility.yul\":15822:15836   */\n      add\n        /* \"#utility.yul\":15807:15836   */\n      swap1\n      pop\n        /* \"#utility.yul\":15769:15842   */\n      swap3\n      swap2\n      pop\n      pop\n      jump\t// out\n        /* \"#utility.yul\":15848:16032   */\n    tag_293:\n      0x00\n        /* \"#utility.yul\":15981:15987   */\n      dup3\n        /* \"#utility.yul\":15976:15979   */\n      dup3\n        /* \"#utility.yul\":15969:15988   */\n      mstore\n        /* \"#utility.yul\":16021:16025   */\n      0x20\n        /* \"#utility.yul\":16016:16019   */\n      dup3\n        /* \"#utility.yul\":16012:16026   */\n      add\n        /* \"#utility.yul\":15997:16026   */\n      swap1\n      pop\n        /* \"#utility.yul\":15959:16032   */\n      swap3\n      swap2\n      pop\n      pop\n      jump\t// out\n        /* \"#utility.yul\":16038:16197   */\n    tag_318:\n      0x00\n        /* \"#utility.yul\":16146:16152   */\n      dup3\n        /* \"#utility.yul\":16141:16144   */\n      dup3\n        /* \"#utility.yul\":16134:16153   */\n      mstore\n        /* \"#utility.yul\":16186:16190   */\n      0x20\n        /* \"#utility.yul\":16181:16184   */\n      dup3\n        /* \"#utility.yul\":16177:16191   */\n      add\n        /* \"#utility.yul\":16162:16191   */\n      swap1\n      pop\n        /* \"#utility.yul\":16124:16197   */\n      swap3\n      swap2\n      pop\n      pop\n      jump\t// out\n        /* \"#utility.yul\":16203:16372   */\n    tag_326:\n      0x00\n        /* \"#utility.yul\":16321:16327   */\n      dup3\n        /* \"#utility.yul\":16316:16319   */\n      dup3\n        /* \"#utility.yul\":16309:16328   */\n      mstore\n        /* \"#utility.yul\":16361:16365   */\n      0x20\n        /* \"#utility.yul\":16356:16359   */\n      dup3\n        /* \"#utility.yul\":16352:16366   */\n      add\n        /* \"#utility.yul\":16337:16366   */\n      swap1\n      pop\n        /* \"#utility.yul\":16299:16372   */\n      swap3\n      swap2\n      pop\n      pop\n      jump\t// out\n        /* \"#utility.yul\":16378:16563   */\n    tag_183:\n      0x00\n        /* \"#utility.yul\":16435:16455   */\n      tag_405\n        /* \"#utility.yul\":16453:16454   */\n      dup3\n        /* \"#utility.yul\":16435:16455   */\n      tag_346\n      jump\t// in\n    tag_405:\n        /* \"#utility.yul\":16430:16455   */\n      swap2\n      pop\n        /* \"#utility.yul\":16469:16489   */\n      tag_406\n        /* \"#utility.yul\":16487:16488   */\n      dup4\n        /* \"#utility.yul\":16469:16489   */\n      tag_346\n      jump\t// in\n    tag_406:\n        /* \"#utility.yul\":16464:16489   */\n      swap3\n      pop\n        /* \"#utility.yul\":16508:16509   */\n      dup3\n        /* \"#utility.yul\":16498:16500   */\n      tag_407\n      jumpi\n        /* \"#utility.yul\":16513:16531   */\n      tag_408\n      tag_409\n      jump\t// in\n    tag_408:\n        /* \"#utility.yul\":16498:16500   */\n    tag_407:\n        /* \"#utility.yul\":16555:16556   */\n      dup3\n        /* \"#utility.yul\":16552:16553   */\n      dup3\n        /* \"#utility.yul\":16548:16557   */\n      div\n        /* \"#utility.yul\":16543:16557   */\n      swap1\n      pop\n        /* \"#utility.yul\":16420:16563   */\n      swap3\n      swap2\n      pop\n      pop\n      jump\t// out\n        /* \"#utility.yul\":16569:16917   */\n    tag_185:\n      0x00\n        /* \"#utility.yul\":16632:16652   */\n      tag_411\n        /* \"#utility.yul\":16650:16651   */\n      dup3\n        /* \"#utility.yul\":16632:16652   */\n      tag_346\n      jump\t// in\n    tag_411:\n        /* \"#utility.yul\":16627:16652   */\n      swap2\n      pop\n        /* \"#utility.yul\":16666:16686   */\n      tag_412\n        /* \"#utility.yul\":16684:16685   */\n      dup4\n        /* \"#utility.yul\":16666:16686   */\n      tag_346\n      jump\t// in\n    tag_412:\n        /* \"#utility.yul\":16661:16686   */\n      swap3\n      pop\n        /* \"#utility.yul\":16854:16855   */\n      dup2\n        /* \"#utility.yul\":16786:16852   */\n      0xffffffffffffffffffffffffffffffffffffffffffffffffffffffffffffffff\n        /* \"#utility.yul\":16782:16856   */\n      div\n        /* \"#utility.yul\":16779:16780   */\n      dup4\n        /* \"#utility.yul\":16776:16857   */\n      gt\n        /* \"#utility.yul\":16771:16772   */\n      dup3\n        /* \"#utility.yul\":16764:16773   */\n      iszero\n        /* \"#utility.yul\":16757:16774   */\n      iszero\n        /* \"#utility.yul\":16753:16858   */\n      and\n        /* \"#utility.yul\":16750:16752   */\n      iszero\n      tag_413\n      jumpi\n        /* \"#utility.yul\":16861:16879   */\n      tag_414\n      tag_415\n      jump\t// in\n    tag_414:\n        /* \"#utility.yul\":16750:16752   */\n    tag_413:\n        /* \"#utility.yul\":16909:16910   */\n      dup3\n        /* \"#utility.yul\":16906:16907   */\n      dup3\n        /* \"#utility.yul\":16902:16911   */\n      mul\n        /* \"#utility.yul\":16891:16911   */\n      swap1\n      pop\n        /* \"#utility.yul\":16617:16917   */\n      swap3\n      swap2\n      pop\n      pop\n      jump\t// out\n        /* \"#utility.yul\":16923:17114   */\n    tag_121:\n      0x00\n        /* \"#utility.yul\":16983:17003   */\n      tag_417\n        /* \"#utility.yul\":17001:17002   */\n      dup3\n        /* \"#utility.yul\":16983:17003   */\n      tag_346\n      jump\t// in\n    tag_417:\n        /* \"#utility.yul\":16978:17003   */\n      swap2\n      pop\n        /* \"#utility.yul\":17017:17037   */\n      tag_418\n        /* \"#utility.yul\":17035:17036   */\n      dup4\n        /* \"#utility.yul\":17017:17037   */\n      tag_346\n      jump\t// in\n    tag_418:\n        /* \"#utility.yul\":17012:17037   */\n      swap3\n      pop\n        /* \"#utility.yul\":17056:17057   */\n      dup3\n        /* \"#utility.yul\":17053:17054   */\n      dup3\n        /* \"#utility.yul\":17050:17058   */\n      lt\n        /* \"#utility.yul\":17047:17049   */\n      iszero\n      tag_419\n      jumpi\n        /* \"#utility.yul\":17061:17079   */\n      tag_420\n      tag_415\n      jump\t// in\n    tag_420:\n        /* \"#utility.yul\":17047:17049   */\n    tag_419:\n        /* \"#utility.yul\":17106:17107   */\n      dup3\n        /* \"#utility.yul\":17103:17104   */\n      dup3\n        /* \"#utility.yul\":17099:17108   */\n      sub\n        /* \"#utility.yul\":17091:17108   */\n      swap1\n      pop\n        /* \"#utility.yul\":16968:17114   */\n      swap3\n      swap2\n      pop\n      pop\n      jump\t// out\n        /* \"#utility.yul\":17120:17216   */\n    tag_273:\n      0x00\n        /* \"#utility.yul\":17186:17210   */\n      tag_422\n        /* \"#utility.yul\":17204:17209   */\n      dup3\n        /* \"#utility.yul\":17186:17210   */\n      tag_423\n      jump\t// in\n    tag_422:\n        /* \"#utility.yul\":17175:17210   */\n      swap1\n      pop\n        /* \"#utility.yul\":17165:17216   */\n      swap2\n      swap1\n      pop\n      jump\t// out\n        /* \"#utility.yul\":17222:17312   */\n    tag_305:\n      0x00\n        /* \"#utility.yul\":17299:17304   */\n      dup2\n        /* \"#utility.yul\":17292:17305   */\n      iszero\n        /* \"#utility.yul\":17285:17306   */\n      iszero\n        /* \"#utility.yul\":17274:17306   */\n      swap1\n      pop\n        /* \"#utility.yul\":17264:17312   */\n      swap2\n      swap1\n      pop\n      jump\t// out\n        /* \"#utility.yul\":17318:17444   */\n    tag_423:\n      0x00\n        /* \"#utility.yul\":17395:17437   */\n      0xffffffffffffffffffffffffffffffffffffffff\n        /* \"#utility.yul\":17388:17393   */\n      dup3\n        /* \"#utility.yul\":17384:17438   */\n      and\n        /* \"#utility.yul\":17373:17438   */\n      swap1\n      pop\n        /* \"#utility.yul\":17363:17444   */\n      swap2\n      swap1\n      pop\n      jump\t// out\n        /* \"#utility.yul\":17450:17527   */\n    tag_346:\n      0x00\n        /* \"#utility.yul\":17516:17521   */\n      dup2\n        /* \"#utility.yul\":17505:17521   */\n      swap1\n      pop\n        /* \"#utility.yul\":17495:17527   */\n      swap2\n      swap1\n      pop\n      jump\t// out\n        /* \"#utility.yul\":17533:17699   */\n    tag_309:\n      0x00\n        /* \"#utility.yul\":17636:17693   */\n      tag_428\n        /* \"#utility.yul\":17687:17692   */\n      dup3\n        /* \"#utility.yul\":17636:17693   */\n      tag_429\n      jump\t// in\n    tag_428:\n        /* \"#utility.yul\":17623:17693   */\n      swap1\n      pop\n        /* \"#utility.yul\":17613:17699   */\n      swap2\n      swap1\n      pop\n      jump\t// out\n        /* \"#utility.yul\":17705:17838   */\n    tag_429:\n      0x00\n        /* \"#utility.yul\":17808:17832   */\n      tag_431\n        /* \"#utility.yul\":17826:17831   */\n      dup3\n        /* \"#utility.yul\":17808:17832   */\n      tag_423\n      jump\t// in\n    tag_431:\n        /* \"#utility.yul\":17795:17832   */\n      swap1\n      pop\n        /* \"#utility.yul\":17785:17838   */\n      swap2\n      swap1\n      pop\n      jump\t// out\n        /* \"#utility.yul\":17844:18010   */\n    tag_313:\n      0x00\n        /* \"#utility.yul\":17947:18004   */\n      tag_433\n        /* \"#utility.yul\":17998:18003   */\n      dup3\n        /* \"#utility.yul\":17947:18004   */\n      tag_434\n      jump\t// in\n    tag_433:\n        /* \"#utility.yul\":17934:18004   */\n      swap1\n      pop\n        /* \"#utility.yul\":17924:18010   */\n      swap2\n      swap1\n      pop\n      jump\t// out\n        /* \"#utility.yul\":18016:18149   */\n    tag_434:\n      0x00\n        /* \"#utility.yul\":18119:18143   */\n      tag_436\n        /* \"#utility.yul\":18137:18142   */\n      dup3\n        /* \"#utility.yul\":18119:18143   */\n      tag_423\n      jump\t// in\n    tag_436:\n        /* \"#utility.yul\":18106:18143   */\n      swap1\n      pop\n        /* \"#utility.yul\":18096:18149   */\n      swap2\n      swap1\n      pop\n      jump\t// out\n        /* \"#utility.yul\":18155:18309   */\n    tag_225:\n        /* \"#utility.yul\":18239:18245   */\n      dup3\n        /* \"#utility.yul\":18234:18237   */\n      dup2\n        /* \"#utility.yul\":18229:18232   */\n      dup4\n        /* \"#utility.yul\":18216:18246   */\n      calldatacopy\n        /* \"#utility.yul\":18301:18302   */\n      0x00\n        /* \"#utility.yul\":18292:18298   */\n      dup4\n        /* \"#utility.yul\":18287:18290   */\n      dup4\n        /* \"#utility.yul\":18283:18299   */\n      add\n        /* \"#utility.yul\":18276:18303   */\n      mstore\n        /* \"#utility.yul\":18206:18309   */\n      pop\n      pop\n      pop\n      jump\t// out\n        /* \"#utility.yul\":18315:18622   */\n    tag_320:\n        /* \"#utility.yul\":18383:18384   */\n      0x00\n        /* \"#utility.yul\":18393:18506   */\n    tag_439:\n        /* \"#utility.yul\":18407:18413   */\n      dup4\n        /* \"#utility.yul\":18404:18405   */\n      dup2\n        /* \"#utility.yul\":18401:18414   */\n      lt\n        /* \"#utility.yul\":18393:18506   */\n      iszero\n      tag_441\n      jumpi\n        /* \"#utility.yul\":18492:18493   */\n      dup1\n        /* \"#utility.yul\":18487:18490   */\n      dup3\n        /* \"#utility.yul\":18483:18494   */\n      add\n        /* \"#utility.yul\":18477:18495   */\n      mload\n        /* \"#utility.yul\":18473:18474   */\n      dup2\n        /* \"#utility.yul\":18468:18471   */\n      dup5\n        /* \"#utility.yul\":18464:18475   */\n      add\n        /* \"#utility.yul\":18457:18496   */\n      mstore\n        /* \"#utility.yul\":18429:18431   */\n      0x20\n        /* \"#utility.yul\":18426:18427   */\n      dup2\n        /* \"#utility.yul\":18422:18432   */\n      add\n        /* \"#utility.yul\":18417:18432   */\n      swap1\n      pop\n        /* \"#utility.yul\":18393:18506   */\n      jump(tag_439)\n    tag_441:\n        /* \"#utility.yul\":18524:18530   */\n      dup4\n        /* \"#utility.yul\":18521:18522   */\n      dup2\n        /* \"#utility.yul\":18518:18531   */\n      gt\n        /* \"#utility.yul\":18515:18517   */\n      iszero\n      tag_442\n      jumpi\n        /* \"#utility.yul\":18604:18605   */\n      0x00\n        /* \"#utility.yul\":18595:18601   */\n      dup5\n        /* \"#utility.yul\":18590:18593   */\n      dup5\n        /* \"#utility.yul\":18586:18602   */\n      add\n        /* \"#utility.yul\":18579:18606   */\n      mstore\n        /* \"#utility.yul\":18515:18517   */\n    tag_442:\n        /* \"#utility.yul\":18364:18622   */\n      pop\n      pop\n      pop\n      pop\n      jump\t// out\n        /* \"#utility.yul\":18628:18799   */\n    tag_130:\n      0x00\n        /* \"#utility.yul\":18690:18714   */\n      tag_444\n        /* \"#utility.yul\":18708:18713   */\n      dup3\n        /* \"#utility.yul\":18690:18714   */\n      tag_346\n      jump\t// in\n    tag_444:\n        /* \"#utility.yul\":18681:18714   */\n      swap2\n      pop\n        /* \"#utility.yul\":18736:18740   */\n      0x00\n        /* \"#utility.yul\":18729:18734   */\n      dup3\n        /* \"#utility.yul\":18726:18741   */\n      eq\n        /* \"#utility.yul\":18723:18725   */\n      iszero\n      tag_445\n      jumpi\n        /* \"#utility.yul\":18744:18762   */\n      tag_446\n      tag_415\n      jump\t// in\n    tag_446:\n        /* \"#utility.yul\":18723:18725   */\n    tag_445:\n        /* \"#utility.yul\":18791:18792   */\n      0x01\n        /* \"#utility.yul\":18784:18789   */\n      dup3\n        /* \"#utility.yul\":18780:18793   */\n      sub\n        /* \"#utility.yul\":18773:18793   */\n      swap1\n      pop\n        /* \"#utility.yul\":18671:18799   */\n      swap2\n      swap1\n      pop\n      jump\t// out\n        /* \"#utility.yul\":18805:19086   */\n    tag_380:\n        /* \"#utility.yul\":18888:18915   */\n      tag_448\n        /* \"#utility.yul\":18910:18914   */\n      dup3\n        /* \"#utility.yul\":18888:18915   */\n      tag_322\n      jump\t// in\n    tag_448:\n        /* \"#utility.yul\":18880:18886   */\n      dup2\n        /* \"#utility.yul\":18876:18916   */\n      add\n        /* \"#utility.yul\":19018:19024   */\n      dup2\n        /* \"#utility.yul\":19006:19016   */\n      dup2\n        /* \"#utility.yul\":19003:19025   */\n      lt\n        /* \"#utility.yul\":18982:19000   */\n      0xffffffffffffffff\n        /* \"#utility.yul\":18970:18980   */\n      dup3\n        /* \"#utility.yul\":18967:19001   */\n      gt\n        /* \"#utility.yul\":18964:19026   */\n      or\n        /* \"#utility.yul\":18961:18963   */\n      iszero\n      tag_449\n      jumpi\n        /* \"#utility.yul\":19029:19047   */\n      tag_450\n      tag_385\n      jump\t// in\n    tag_450:\n        /* \"#utility.yul\":18961:18963   */\n    tag_449:\n        /* \"#utility.yul\":19069:19079   */\n      dup1\n        /* \"#utility.yul\":19065:19067   */\n      0x40\n        /* \"#utility.yul\":19058:19080   */\n      mstore\n        /* \"#utility.yul\":18848:19086   */\n      pop\n      pop\n      pop\n      jump\t// out\n        /* \"#utility.yul\":19092:19272   */\n    tag_415:\n        /* \"#utility.yul\":19140:19217   */\n      0x4e487b7100000000000000000000000000000000000000000000000000000000\n        /* \"#utility.yul\":19137:19138   */\n      0x00\n        /* \"#utility.yul\":19130:19218   */\n      mstore\n        /* \"#utility.yul\":19237:19241   */\n      0x11\n        /* \"#utility.yul\":19234:19235   */\n      0x04\n        /* \"#utility.yul\":19227:19242   */\n      mstore\n        /* \"#utility.yul\":19261:19265   */\n      0x24\n        /* \"#utility.yul\":19258:19259   */\n      0x00\n        /* \"#utility.yul\":19251:19266   */\n      revert\n        /* \"#utility.yul\":19278:19458   */\n    tag_409:\n        /* \"#utility.yul\":19326:19403   */\n      0x4e487b7100000000000000000000000000000000000000000000000000000000\n        /* \"#utility.yul\":19323:19324   */\n      0x00\n        /* \"#utility.yul\":19316:19404   */\n      mstore\n        /* \"#utility.yul\":19423:19427   */\n      0x12\n        /* \"#utility.yul\":19420:19421   */\n      0x04\n        /* \"#utility.yul\":19413:19428   */\n      mstore\n        /* \"#utility.yul\":19447:19451   */\n      0x24\n        /* \"#utility.yul\":19444:19445   */\n      0x00\n        /* \"#utility.yul\":19437:19452   */\n      revert\n        /* \"#utility.yul\":19464:19644   */\n    tag_385:\n        /* \"#utility.yul\":19512:19589   */\n      0x4e487b7100000000000000000000000000000000000000000000000000000000\n        /* \"#utility.yul\":19509:19510   */\n      0x00\n        /* \"#utility.yul\":19502:19590   */\n      mstore\n        /* \"#utility.yul\":19609:19613   */\n      0x41\n        /* \"#utility.yul\":19606:19607   */\n      0x04\n        /* \"#utility.yul\":19599:19614   */\n      mstore\n        /* \"#utility.yul\":19633:19637   */\n      0x24\n        /* \"#utility.yul\":19630:19631   */\n      0x00\n        /* \"#utility.yul\":19623:19638   */\n      revert\n        /* \"#utility.yul\":19650:19752   */\n    tag_322:\n      0x00\n        /* \"#utility.yul\":19742:19744   */\n      0x1f\n        /* \"#utility.yul\":19738:19745   */\n      not\n        /* \"#utility.yul\":19733:19735   */\n      0x1f\n        /* \"#utility.yul\":19726:19731   */\n      dup4\n        /* \"#utility.yul\":19722:19736   */\n      add\n        /* \"#utility.yul\":19718:19746   */\n      and\n        /* \"#utility.yul\":19708:19746   */\n      swap1\n      pop\n        /* \"#utility.yul\":19698:19752   */\n      swap2\n      swap1\n      pop\n      jump\t// out\n        /* \"#utility.yul\":19758:19999   */\n    tag_328:\n        /* \"#utility.yul\":19898:19932   */\n      0x43616e6e6f74206d696e7420746f207472656173757279206164647265737320\n        /* \"#utility.yul\":19894:19895   */\n      0x00\n        /* \"#utility.yul\":19886:19892   */\n      dup3\n        /* \"#utility.yul\":19882:19896   */\n      add\n        /* \"#utility.yul\":19875:19933   */\n      mstore\n        /* \"#utility.yul\":19967:19991   */\n      0x756e74696c2073616c652069732066696e697368656400000000000000000000\n        /* \"#utility.yul\":19962:19964   */\n      0x20\n        /* \"#utility.yul\":19954:19960   */\n      dup3\n        /* \"#utility.yul\":19950:19965   */\n      add\n        /* \"#utility.yul\":19943:19992   */\n      mstore\n        /* \"#utility.yul\":19864:19999   */\n      pop\n      jump\t// out\n        /* \"#utility.yul\":20005:20230   */\n    tag_333:\n        /* \"#utility.yul\":20145:20179   */\n      0x4f776e61626c653a206e6577206f776e657220697320746865207a65726f2061\n        /* \"#utility.yul\":20141:20142   */\n      0x00\n        /* \"#utility.yul\":20133:20139   */\n      dup3\n        /* \"#utility.yul\":20129:20143   */\n      add\n        /* \"#utility.yul\":20122:20180   */\n      mstore\n        /* \"#utility.yul\":20214:20222   */\n      0x6464726573730000000000000000000000000000000000000000000000000000\n        /* \"#utility.yul\":20209:20211   */\n      0x20\n        /* \"#utility.yul\":20201:20207   */\n      dup3\n        /* \"#utility.yul\":20197:20212   */\n      add\n        /* \"#utility.yul\":20190:20223   */\n      mstore\n        /* \"#utility.yul\":20111:20230   */\n      pop\n      jump\t// out\n        /* \"#utility.yul\":20236:20417   */\n    tag_338:\n        /* \"#utility.yul\":20376:20409   */\n      0x737461727454696d65206973206c61746572207468616e20656e6454696d6500\n        /* \"#utility.yul\":20372:20373   */\n      0x00\n        /* \"#utility.yul\":20364:20370   */\n      dup3\n        /* \"#utility.yul\":20360:20374   */\n      add\n        /* \"#utility.yul\":20353:20410   */\n      mstore\n        /* \"#utility.yul\":20342:20417   */\n      pop\n      jump\t// out\n        /* \"#utility.yul\":20423:20605   */\n    tag_343:\n        /* \"#utility.yul\":20563:20597   */\n      0x4f776e61626c653a2063616c6c6572206973206e6f7420746865206f776e6572\n        /* \"#utility.yul\":20559:20560   */\n      0x00\n        /* \"#utility.yul\":20551:20557   */\n      dup3\n        /* \"#utility.yul\":20547:20561   */\n      add\n        /* \"#utility.yul\":20540:20598   */\n      mstore\n        /* \"#utility.yul\":20529:20605   */\n      pop\n      jump\t// out\n        /* \"#utility.yul\":20611:20733   */\n    tag_229:\n        /* \"#utility.yul\":20684:20708   */\n      tag_460\n        /* \"#utility.yul\":20702:20707   */\n      dup2\n        /* \"#utility.yul\":20684:20708   */\n      tag_273\n      jump\t// in\n    tag_460:\n        /* \"#utility.yul\":20677:20682   */\n      dup2\n        /* \"#utility.yul\":20674:20709   */\n      eq\n        /* \"#utility.yul\":20664:20666   */\n      tag_461\n      jumpi\n        /* \"#utility.yul\":20723:20724   */\n      0x00\n        /* \"#utility.yul\":20720:20721   */\n      dup1\n        /* \"#utility.yul\":20713:20725   */\n      revert\n        /* \"#utility.yul\":20664:20666   */\n    tag_461:\n        /* \"#utility.yul\":20654:20733   */\n      pop\n      jump\t// out\n        /* \"#utility.yul\":20739:20861   */\n    tag_243:\n        /* \"#utility.yul\":20812:20836   */\n      tag_463\n        /* \"#utility.yul\":20830:20835   */\n      dup2\n        /* \"#utility.yul\":20812:20836   */\n      tag_346\n      jump\t// in\n    tag_463:\n        /* \"#utility.yul\":20805:20810   */\n      dup2\n        /* \"#utility.yul\":20802:20837   */\n      eq\n        /* \"#utility.yul\":20792:20794   */\n      tag_464\n      jumpi\n        /* \"#utility.yul\":20851:20852   */\n      0x00\n        /* \"#utility.yul\":20848:20849   */\n      dup1\n        /* \"#utility.yul\":20841:20853   */\n      revert\n        /* \"#utility.yul\":20792:20794   */\n    tag_464:\n        /* \"#utility.yul\":20782:20861   */\n      pop\n      jump\t// out\n\n    auxdata: 0xa26469706673582212202b9cba39472d5308b0d665b4d2664ac001c047e5536d6d523e1d4b04ba06a91b64736f6c63430008010033\n}\n",
				"bytecode": {
					"linkReferences": {},
					"object": "60806040526370dc49006005556370dc4964600655600a600755600160085560405180606001604052806127108152602001428152602001600015158152506009600082015181600001556020820151816001015560408201518160020160006101000a81548160ff021916908315150217905550505034801561008257600080fd5b5061009f6100946100a460201b60201c565b6100ac60201b60201c565b610170565b600033905090565b60008060009054906101000a900473ffffffffffffffffffffffffffffffffffffffff169050816000806101000a81548173ffffffffffffffffffffffffffffffffffffffff021916908373ffffffffffffffffffffffffffffffffffffffff1602179055508173ffffffffffffffffffffffffffffffffffffffff168173ffffffffffffffffffffffffffffffffffffffff167f8be0079c531659141344cd1fd0a4f28419497f9722a3daafe3b4186f6b6457e060405160405180910390a35050565b6118ca8061017f6000396000f3fe608060405234801561001057600080fd5b506004361061010b5760003560e01c806391232f18116100a2578063c046371111610071578063c046371114610248578063c5dae48f14610268578063c5f956af14610286578063f121da92146102a4578063f2fde38b146102c05761010b565b806391232f18146101fc578063944044a114610206578063b79d283f14610222578063bff29cee1461023e5761010b565b8063715018a6116100de578063715018a6146101865780637a6a23fd146101905780638c83faeb146101c05780638da5cb5b146101de5761010b565b80634aca10a6146101105780634c0f38c21461012e57806351f7598c1461014c57806368fc01a214610168575b600080fd5b6101186102dc565b604051610125919061121c565b60405180910390f35b610136610302565b604051610143919061134d565b60405180910390f35b61016660048036038101906101619190610f17565b6103a9565b005b610170610469565b60405161017d919061134d565b60405180910390f35b61018e610510565b005b6101aa60048036038101906101a59190610f17565b610598565b6040516101b7919061134d565b60405180910390f35b6101c86105ad565b6040516101d59190611297565b60405180910390f35b6101e66105d3565b6040516101f3919061121c565b60405180910390f35b6102046105fc565b005b610220600480360381019061021b9190610fac565b6106d9565b005b61023c60048036038101906102379190610fac565b61075f565b005b6102466107e5565b005b610250610895565b60405161025f93929190611368565b60405180910390f35b6102706108ba565b60405161027d91906112b2565b60405180910390f35b61028e6108e0565b60405161029b919061121c565b60405180910390f35b6102be60048036038101906102b99190610f40565b610906565b005b6102da60048036038101906102d59190610f17565b610a15565b005b600260009054906101000a900473ffffffffffffffffffffffffffffffffffffffff1681565b6000600160009054906101000a900473ffffffffffffffffffffffffffffffffffffffff1673ffffffffffffffffffffffffffffffffffffffff16634c0f38c26040518163ffffffff1660e01b815260040160206040518083038186803b15801561036c57600080fd5b505afa158015610380573d6000803e3d6000fd5b505050506040513d601f19601f820116820180604052508101906103a49190610fd5565b905090565b6103b1610b0d565b73ffffffffffffffffffffffffffffffffffffffff166103cf6105d3565b73ffffffffffffffffffffffffffffffffffffffff1614610425576040517f08c379a000000000000000000000000000000000000000000000000000000000815260040161041c9061132d565b60405180910390fd5b80600160006101000a81548173ffffffffffffffffffffffffffffffffffffffff021916908373ffffffffffffffffffffffffffffffffffffffff16021790555050565b6000600160009054906101000a900473ffffffffffffffffffffffffffffffffffffffff1673ffffffffffffffffffffffffffffffffffffffff166368fc01a26040518163ffffffff1660e01b815260040160206040518083038186803b1580156104d357600080fd5b505afa1580156104e7573d6000803e3d6000fd5b505050506040513d601f19601f8201168201806040525081019061050b9190610fd5565b905090565b610518610b0d565b73ffffffffffffffffffffffffffffffffffffffff166105366105d3565b73ffffffffffffffffffffffffffffffffffffffff161461058c576040517f08c379a00000000000000000000000000000000000000000000000000000000081526004016105839061132d565b60405180910390fd5b6105966000610b15565b565b60006105a2610bd9565b600080915050919050565b600160009054906101000a900473ffffffffffffffffffffffffffffffffffffffff1681565b60008060009054906101000a900473ffffffffffffffffffffffffffffffffffffffff16905090565b610604610bd9565b600654421180156106255750600960020160009054906101000a900460ff16155b610664576040517f08c379a000000000000000000000000000000000000000000000000000000000815260040161065b906112cd565b60405180910390fd5b60006001610670610469565b61067a9190611577565b610682610302565b61068c9190611577565b90505b60008111156106d6576106c3600460009054906101000a900473ffffffffffffffffffffffffffffffffffffffff16610cc3565b80806106ce9061167d565b91505061068f565b50565b6106e1610b0d565b73ffffffffffffffffffffffffffffffffffffffff166106ff6105d3565b73ffffffffffffffffffffffffffffffffffffffff1614610755576040517f08c379a000000000000000000000000000000000000000000000000000000000815260040161074c9061132d565b60405180910390fd5b8060058190555050565b610767610b0d565b73ffffffffffffffffffffffffffffffffffffffff166107856105d3565b73ffffffffffffffffffffffffffffffffffffffff16146107db576040517f08c379a00000000000000000000000000000000000000000000000000000000081526004016107d29061132d565b60405180910390fd5b8060068190555050565b6107ed610bd9565b60006107f833610598565b9050600360009054906101000a900473ffffffffffffffffffffffffffffffffffffffff1673ffffffffffffffffffffffffffffffffffffffff1663532b291333836040518363ffffffff1660e01b8152600401610857929190611237565b600060405180830381600087803b15801561087157600080fd5b505af1158015610885573d6000803e3d6000fd5b5050505061089233610cc3565b50565b60098060000154908060010154908060020160009054906101000a900460ff16905083565b600360009054906101000a900473ffffffffffffffffffffffffffffffffffffffff1681565b600460009054906101000a900473ffffffffffffffffffffffffffffffffffffffff1681565b61090e610b0d565b73ffffffffffffffffffffffffffffffffffffffff1661092c6105d3565b73ffffffffffffffffffffffffffffffffffffffff1614610982576040517f08c379a00000000000000000000000000000000000000000000000000000000081526004016109799061132d565b60405180910390fd5b600160009054906101000a900473ffffffffffffffffffffffffffffffffffffffff1673ffffffffffffffffffffffffffffffffffffffff1663f121da9283836040518363ffffffff1660e01b81526004016109df929190611260565b600060405180830381600087803b1580156109f957600080fd5b505af1158015610a0d573d6000803e3d6000fd5b505050505050565b610a1d610b0d565b73ffffffffffffffffffffffffffffffffffffffff16610a3b6105d3565b73ffffffffffffffffffffffffffffffffffffffff1614610a91576040517f08c379a0000000000000000000000000000000000000000000000000000000008152600401610a889061132d565b60405180910390fd5b600073ffffffffffffffffffffffffffffffffffffffff168173ffffffffffffffffffffffffffffffffffffffff161415610b01576040517f08c379a0000000000000000000000000000000000000000000000000000000008152600401610af8906112ed565b60405180910390fd5b610b0a81610b15565b50565b600033905090565b60008060009054906101000a900473ffffffffffffffffffffffffffffffffffffffff169050816000806101000a81548173ffffffffffffffffffffffffffffffffffffffff021916908373ffffffffffffffffffffffffffffffffffffffff1602179055508173ffffffffffffffffffffffffffffffffffffffff168173ffffffffffffffffffffffffffffffffffffffff167f8be0079c531659141344cd1fd0a4f28419497f9722a3daafe3b4186f6b6457e060405160405180910390a35050565b6006546005541115610c20576040517f08c379a0000000000000000000000000000000000000000000000000000000008152600401610c179061130d565b60405180910390fd5b6001603c60055442610c329190611577565b610c3c91906114ec565b610c46919061151d565b600754610c539190611577565b600960000181905550426009600101819055506005544210158015610c7a57506006544211155b15610ca2576001600960020160006101000a81548160ff021916908315150217905550610cc1565b6000600960020160006101000a81548160ff0219169083151502179055505b565b600160009054906101000a900473ffffffffffffffffffffffffffffffffffffffff1673ffffffffffffffffffffffffffffffffffffffff166355676590826040518263ffffffff1660e01b8152600401610d1e919061121c565b600060405180830381600087803b158015610d3857600080fd5b505af1158015610d4c573d6000803e3d6000fd5b5050505050565b6000610d66610d61846113c4565b61139f565b9050808382526020820190508260005b85811015610da65781358501610d8c8882610ec3565b845260208401935060208301925050600181019050610d76565b5050509392505050565b6000610dc3610dbe846113f0565b61139f565b90508083825260208201905082856020860282011115610de257600080fd5b60005b85811015610e125781610df88882610eed565b845260208401935060208301925050600181019050610de5565b5050509392505050565b6000610e2f610e2a8461141c565b61139f565b905082815260208101848484011115610e4757600080fd5b610e5284828561163b565b509392505050565b600081359050610e6981611866565b92915050565b600082601f830112610e8057600080fd5b8135610e90848260208601610d53565b91505092915050565b600082601f830112610eaa57600080fd5b8135610eba848260208601610db0565b91505092915050565b600082601f830112610ed457600080fd5b8135610ee4848260208601610e1c565b91505092915050565b600081359050610efc8161187d565b92915050565b600081519050610f118161187d565b92915050565b600060208284031215610f2957600080fd5b6000610f3784828501610e5a565b91505092915050565b60008060408385031215610f5357600080fd5b600083013567ffffffffffffffff811115610f6d57600080fd5b610f7985828601610e99565b925050602083013567ffffffffffffffff811115610f9657600080fd5b610fa285828601610e6f565b9150509250929050565b600060208284031215610fbe57600080fd5b6000610fcc84828501610eed565b91505092915050565b600060208284031215610fe757600080fd5b6000610ff584828501610f02565b91505092915050565b600061100a8383611139565b905092915050565b600061101e83836111fe565b60208301905092915050565b611033816115ab565b82525050565b60006110448261146d565b61104e81856114a8565b9350836020820285016110608561144d565b8060005b8581101561109c578484038952815161107d8582610ffe565b94506110888361148e565b925060208a01995050600181019050611064565b50829750879550505050505092915050565b60006110b982611478565b6110c381856114b9565b93506110ce8361145d565b8060005b838110156110ff5781516110e68882611012565b97506110f18361149b565b9250506001810190506110d2565b5085935050505092915050565b611115816115bd565b82525050565b611124816115f3565b82525050565b61113381611617565b82525050565b600061114482611483565b61114e81856114ca565b935061115e81856020860161164a565b61116781611765565b840191505092915050565b600061117f6036836114db565b915061118a82611776565b604082019050919050565b60006111a26026836114db565b91506111ad826117c5565b604082019050919050565b60006111c5601f836114db565b91506111d082611814565b602082019050919050565b60006111e86020836114db565b91506111f38261183d565b602082019050919050565b611207816115e9565b82525050565b611216816115e9565b82525050565b6000602082019050611231600083018461102a565b92915050565b600060408201905061124c600083018561102a565b611259602083018461120d565b9392505050565b6000604082019050818103600083015261127a81856110ae565b9050818103602083015261128e8184611039565b90509392505050565b60006020820190506112ac600083018461111b565b92915050565b60006020820190506112c7600083018461112a565b92915050565b600060208201905081810360008301526112e681611172565b9050919050565b6000602082019050818103600083015261130681611195565b9050919050565b60006020820190508181036000830152611326816111b8565b9050919050565b60006020820190508181036000830152611346816111db565b9050919050565b6000602082019050611362600083018461120d565b92915050565b600060608201905061137d600083018661120d565b61138a602083018561120d565b611397604083018461110c565b949350505050565b60006113a96113ba565b90506113b582826116a7565b919050565b6000604051905090565b600067ffffffffffffffff8211156113df576113de611736565b5b602082029050602081019050919050565b600067ffffffffffffffff82111561140b5761140a611736565b5b602082029050602081019050919050565b600067ffffffffffffffff82111561143757611436611736565b5b61144082611765565b9050602081019050919050565b6000819050602082019050919050565b6000819050602082019050919050565b600081519050919050565b600081519050919050565b600081519050919050565b6000602082019050919050565b6000602082019050919050565b600082825260208201905092915050565b600082825260208201905092915050565b600082825260208201905092915050565b600082825260208201905092915050565b60006114f7826115e9565b9150611502836115e9565b92508261151257611511611707565b5b828204905092915050565b6000611528826115e9565b9150611533836115e9565b9250817fffffffffffffffffffffffffffffffffffffffffffffffffffffffffffffffff048311821515161561156c5761156b6116d8565b5b828202905092915050565b6000611582826115e9565b915061158d836115e9565b9250828210156115a05761159f6116d8565b5b828203905092915050565b60006115b6826115c9565b9050919050565b60008115159050919050565b600073ffffffffffffffffffffffffffffffffffffffff82169050919050565b6000819050919050565b60006115fe82611605565b9050919050565b6000611610826115c9565b9050919050565b600061162282611629565b9050919050565b6000611634826115c9565b9050919050565b82818337600083830152505050565b60005b8381101561166857808201518184015260208101905061164d565b83811115611677576000848401525b50505050565b6000611688826115e9565b9150600082141561169c5761169b6116d8565b5b600182039050919050565b6116b082611765565b810181811067ffffffffffffffff821117156116cf576116ce611736565b5b80604052505050565b7f4e487b7100000000000000000000000000000000000000000000000000000000600052601160045260246000fd5b7f4e487b7100000000000000000000000000000000000000000000000000000000600052601260045260246000fd5b7f4e487b7100000000000000000000000000000000000000000000000000000000600052604160045260246000fd5b6000601f19601f8301169050919050565b7f43616e6e6f74206d696e7420746f20747265617375727920616464726573732060008201527f756e74696c2073616c652069732066696e697368656400000000000000000000602082015250565b7f4f776e61626c653a206e6577206f776e657220697320746865207a65726f206160008201527f6464726573730000000000000000000000000000000000000000000000000000602082015250565b7f737461727454696d65206973206c61746572207468616e20656e6454696d6500600082015250565b7f4f776e61626c653a2063616c6c6572206973206e6f7420746865206f776e6572600082015250565b61186f816115ab565b811461187a57600080fd5b50565b611886816115e9565b811461189157600080fd5b5056fea26469706673582212202b9cba39472d5308b0d665b4d2664ac001c047e5536d6d523e1d4b04ba06a91b64736f6c63430008010033",
					"opcodes": "PUSH1 0x80 PUSH1 0x40 MSTORE PUSH4 0x70DC4900 PUSH1 0x5 SSTORE PUSH4 0x70DC4964 PUSH1 0x6 SSTORE PUSH1 0xA PUSH1 0x7 SSTORE PUSH1 0x1 PUSH1 0x8 SSTORE PUSH1 0x40 MLOAD DUP1 PUSH1 0x60 ADD PUSH1 0x40 MSTORE DUP1 PUSH2 0x2710 DUP2 MSTORE PUSH1 0x20 ADD TIMESTAMP DUP2 MSTORE PUSH1 0x20 ADD PUSH1 0x0 ISZERO ISZERO DUP2 MSTORE POP PUSH1 0x9 PUSH1 0x0 DUP3 ADD MLOAD DUP2 PUSH1 0x0 ADD SSTORE PUSH1 0x20 DUP3 ADD MLOAD DUP2 PUSH1 0x1 ADD SSTORE PUSH1 0x40 DUP3 ADD MLOAD DUP2 PUSH1 0x2 ADD PUSH1 0x0 PUSH2 0x100 EXP DUP2 SLOAD DUP2 PUSH1 0xFF MUL NOT AND SWAP1 DUP4 ISZERO ISZERO MUL OR SWAP1 SSTORE POP POP POP CALLVALUE DUP1 ISZERO PUSH2 0x82 JUMPI PUSH1 0x0 DUP1 REVERT JUMPDEST POP PUSH2 0x9F PUSH2 0x94 PUSH2 0xA4 PUSH1 0x20 SHL PUSH1 0x20 SHR JUMP JUMPDEST PUSH2 0xAC PUSH1 0x20 SHL PUSH1 0x20 SHR JUMP JUMPDEST PUSH2 0x170 JUMP JUMPDEST PUSH1 0x0 CALLER SWAP1 POP SWAP1 JUMP JUMPDEST PUSH1 0x0 DUP1 PUSH1 0x0 SWAP1 SLOAD SWAP1 PUSH2 0x100 EXP SWAP1 DIV PUSH20 0xFFFFFFFFFFFFFFFFFFFFFFFFFFFFFFFFFFFFFFFF AND SWAP1 POP DUP2 PUSH1 0x0 DUP1 PUSH2 0x100 EXP DUP2 SLOAD DUP2 PUSH20 0xFFFFFFFFFFFFFFFFFFFFFFFFFFFFFFFFFFFFFFFF MUL NOT AND SWAP1 DUP4 PUSH20 0xFFFFFFFFFFFFFFFFFFFFFFFFFFFFFFFFFFFFFFFF AND MUL OR SWAP1 SSTORE POP DUP2 PUSH20 0xFFFFFFFFFFFFFFFFFFFFFFFFFFFFFFFFFFFFFFFF AND DUP2 PUSH20 0xFFFFFFFFFFFFFFFFFFFFFFFFFFFFFFFFFFFFFFFF AND PUSH32 0x8BE0079C531659141344CD1FD0A4F28419497F9722A3DAAFE3B4186F6B6457E0 PUSH1 0x40 MLOAD PUSH1 0x40 MLOAD DUP1 SWAP2 SUB SWAP1 LOG3 POP POP JUMP JUMPDEST PUSH2 0x18CA DUP1 PUSH2 0x17F PUSH1 0x0 CODECOPY PUSH1 0x0 RETURN INVALID PUSH1 0x80 PUSH1 0x40 MSTORE CALLVALUE DUP1 ISZERO PUSH2 0x10 JUMPI PUSH1 0x0 DUP1 REVERT JUMPDEST POP PUSH1 0x4 CALLDATASIZE LT PUSH2 0x10B JUMPI PUSH1 0x0 CALLDATALOAD PUSH1 0xE0 SHR DUP1 PUSH4 0x91232F18 GT PUSH2 0xA2 JUMPI DUP1 PUSH4 0xC0463711 GT PUSH2 0x71 JUMPI DUP1 PUSH4 0xC0463711 EQ PUSH2 0x248 JUMPI DUP1 PUSH4 0xC5DAE48F EQ PUSH2 0x268 JUMPI DUP1 PUSH4 0xC5F956AF EQ PUSH2 0x286 JUMPI DUP1 PUSH4 0xF121DA92 EQ PUSH2 0x2A4 JUMPI DUP1 PUSH4 0xF2FDE38B EQ PUSH2 0x2C0 JUMPI PUSH2 0x10B JUMP JUMPDEST DUP1 PUSH4 0x91232F18 EQ PUSH2 0x1FC JUMPI DUP1 PUSH4 0x944044A1 EQ PUSH2 0x206 JUMPI DUP1 PUSH4 0xB79D283F EQ PUSH2 0x222 JUMPI DUP1 PUSH4 0xBFF29CEE EQ PUSH2 0x23E JUMPI PUSH2 0x10B JUMP JUMPDEST DUP1 PUSH4 0x715018A6 GT PUSH2 0xDE JUMPI DUP1 PUSH4 0x715018A6 EQ PUSH2 0x186 JUMPI DUP1 PUSH4 0x7A6A23FD EQ PUSH2 0x190 JUMPI DUP1 PUSH4 0x8C83FAEB EQ PUSH2 0x1C0 JUMPI DUP1 PUSH4 0x8DA5CB5B EQ PUSH2 0x1DE JUMPI PUSH2 0x10B JUMP JUMPDEST DUP1 PUSH4 0x4ACA10A6 EQ PUSH2 0x110 JUMPI DUP1 PUSH4 0x4C0F38C2 EQ PUSH2 0x12E JUMPI DUP1 PUSH4 0x51F7598C EQ PUSH2 0x14C JUMPI DUP1 PUSH4 0x68FC01A2 EQ PUSH2 0x168 JUMPI JUMPDEST PUSH1 0x0 DUP1 REVERT JUMPDEST PUSH2 0x118 PUSH2 0x2DC JUMP JUMPDEST PUSH1 0x40 MLOAD PUSH2 0x125 SWAP2 SWAP1 PUSH2 0x121C JUMP JUMPDEST PUSH1 0x40 MLOAD DUP1 SWAP2 SUB SWAP1 RETURN JUMPDEST PUSH2 0x136 PUSH2 0x302 JUMP JUMPDEST PUSH1 0x40 MLOAD PUSH2 0x143 SWAP2 SWAP1 PUSH2 0x134D JUMP JUMPDEST PUSH1 0x40 MLOAD DUP1 SWAP2 SUB SWAP1 RETURN JUMPDEST PUSH2 0x166 PUSH1 0x4 DUP1 CALLDATASIZE SUB DUP2 ADD SWAP1 PUSH2 0x161 SWAP2 SWAP1 PUSH2 0xF17 JUMP JUMPDEST PUSH2 0x3A9 JUMP JUMPDEST STOP JUMPDEST PUSH2 0x170 PUSH2 0x469 JUMP JUMPDEST PUSH1 0x40 MLOAD PUSH2 0x17D SWAP2 SWAP1 PUSH2 0x134D JUMP JUMPDEST PUSH1 0x40 MLOAD DUP1 SWAP2 SUB SWAP1 RETURN JUMPDEST PUSH2 0x18E PUSH2 0x510 JUMP JUMPDEST STOP JUMPDEST PUSH2 0x1AA PUSH1 0x4 DUP1 CALLDATASIZE SUB DUP2 ADD SWAP1 PUSH2 0x1A5 SWAP2 SWAP1 PUSH2 0xF17 JUMP JUMPDEST PUSH2 0x598 JUMP JUMPDEST PUSH1 0x40 MLOAD PUSH2 0x1B7 SWAP2 SWAP1 PUSH2 0x134D JUMP JUMPDEST PUSH1 0x40 MLOAD DUP1 SWAP2 SUB SWAP1 RETURN JUMPDEST PUSH2 0x1C8 PUSH2 0x5AD JUMP JUMPDEST PUSH1 0x40 MLOAD PUSH2 0x1D5 SWAP2 SWAP1 PUSH2 0x1297 JUMP JUMPDEST PUSH1 0x40 MLOAD DUP1 SWAP2 SUB SWAP1 RETURN JUMPDEST PUSH2 0x1E6 PUSH2 0x5D3 JUMP JUMPDEST PUSH1 0x40 MLOAD PUSH2 0x1F3 SWAP2 SWAP1 PUSH2 0x121C JUMP JUMPDEST PUSH1 0x40 MLOAD DUP1 SWAP2 SUB SWAP1 RETURN JUMPDEST PUSH2 0x204 PUSH2 0x5FC JUMP JUMPDEST STOP JUMPDEST PUSH2 0x220 PUSH1 0x4 DUP1 CALLDATASIZE SUB DUP2 ADD SWAP1 PUSH2 0x21B SWAP2 SWAP1 PUSH2 0xFAC JUMP JUMPDEST PUSH2 0x6D9 JUMP JUMPDEST STOP JUMPDEST PUSH2 0x23C PUSH1 0x4 DUP1 CALLDATASIZE SUB DUP2 ADD SWAP1 PUSH2 0x237 SWAP2 SWAP1 PUSH2 0xFAC JUMP JUMPDEST PUSH2 0x75F JUMP JUMPDEST STOP JUMPDEST PUSH2 0x246 PUSH2 0x7E5 JUMP JUMPDEST STOP JUMPDEST PUSH2 0x250 PUSH2 0x895 JUMP JUMPDEST PUSH1 0x40 MLOAD PUSH2 0x25F SWAP4 SWAP3 SWAP2 SWAP1 PUSH2 0x1368 JUMP JUMPDEST PUSH1 0x40 MLOAD DUP1 SWAP2 SUB SWAP1 RETURN JUMPDEST PUSH2 0x270 PUSH2 0x8BA JUMP JUMPDEST PUSH1 0x40 MLOAD PUSH2 0x27D SWAP2 SWAP1 PUSH2 0x12B2 JUMP JUMPDEST PUSH1 0x40 MLOAD DUP1 SWAP2 SUB SWAP1 RETURN JUMPDEST PUSH2 0x28E PUSH2 0x8E0 JUMP JUMPDEST PUSH1 0x40 MLOAD PUSH2 0x29B SWAP2 SWAP1 PUSH2 0x121C JUMP JUMPDEST PUSH1 0x40 MLOAD DUP1 SWAP2 SUB SWAP1 RETURN JUMPDEST PUSH2 0x2BE PUSH1 0x4 DUP1 CALLDATASIZE SUB DUP2 ADD SWAP1 PUSH2 0x2B9 SWAP2 SWAP1 PUSH2 0xF40 JUMP JUMPDEST PUSH2 0x906 JUMP JUMPDEST STOP JUMPDEST PUSH2 0x2DA PUSH1 0x4 DUP1 CALLDATASIZE SUB DUP2 ADD SWAP1 PUSH2 0x2D5 SWAP2 SWAP1 PUSH2 0xF17 JUMP JUMPDEST PUSH2 0xA15 JUMP JUMPDEST STOP JUMPDEST PUSH1 0x2 PUSH1 0x0 SWAP1 SLOAD SWAP1 PUSH2 0x100 EXP SWAP1 DIV PUSH20 0xFFFFFFFFFFFFFFFFFFFFFFFFFFFFFFFFFFFFFFFF AND DUP2 JUMP JUMPDEST PUSH1 0x0 PUSH1 0x1 PUSH1 0x0 SWAP1 SLOAD SWAP1 PUSH2 0x100 EXP SWAP1 DIV PUSH20 0xFFFFFFFFFFFFFFFFFFFFFFFFFFFFFFFFFFFFFFFF AND PUSH20 0xFFFFFFFFFFFFFFFFFFFFFFFFFFFFFFFFFFFFFFFF AND PUSH4 0x4C0F38C2 PUSH1 0x40 MLOAD DUP2 PUSH4 0xFFFFFFFF AND PUSH1 0xE0 SHL DUP2 MSTORE PUSH1 0x4 ADD PUSH1 0x20 PUSH1 0x40 MLOAD DUP1 DUP4 SUB DUP2 DUP7 DUP1 EXTCODESIZE ISZERO DUP1 ISZERO PUSH2 0x36C JUMPI PUSH1 0x0 DUP1 REVERT JUMPDEST POP GAS STATICCALL ISZERO DUP1 ISZERO PUSH2 0x380 JUMPI RETURNDATASIZE PUSH1 0x0 DUP1 RETURNDATACOPY RETURNDATASIZE PUSH1 0x0 REVERT JUMPDEST POP POP POP POP PUSH1 0x40 MLOAD RETURNDATASIZE PUSH1 0x1F NOT PUSH1 0x1F DUP3 ADD AND DUP3 ADD DUP1 PUSH1 0x40 MSTORE POP DUP2 ADD SWAP1 PUSH2 0x3A4 SWAP2 SWAP1 PUSH2 0xFD5 JUMP JUMPDEST SWAP1 POP SWAP1 JUMP JUMPDEST PUSH2 0x3B1 PUSH2 0xB0D JUMP JUMPDEST PUSH20 0xFFFFFFFFFFFFFFFFFFFFFFFFFFFFFFFFFFFFFFFF AND PUSH2 0x3CF PUSH2 0x5D3 JUMP JUMPDEST PUSH20 0xFFFFFFFFFFFFFFFFFFFFFFFFFFFFFFFFFFFFFFFF AND EQ PUSH2 0x425 JUMPI PUSH1 0x40 MLOAD PUSH32 0x8C379A000000000000000000000000000000000000000000000000000000000 DUP2 MSTORE PUSH1 0x4 ADD PUSH2 0x41C SWAP1 PUSH2 0x132D JUMP JUMPDEST PUSH1 0x40 MLOAD DUP1 SWAP2 SUB SWAP1 REVERT JUMPDEST DUP1 PUSH1 0x1 PUSH1 0x0 PUSH2 0x100 EXP DUP2 SLOAD DUP2 PUSH20 0xFFFFFFFFFFFFFFFFFFFFFFFFFFFFFFFFFFFFFFFF MUL NOT AND SWAP1 DUP4 PUSH20 0xFFFFFFFFFFFFFFFFFFFFFFFFFFFFFFFFFFFFFFFF AND MUL OR SWAP1 SSTORE POP POP JUMP JUMPDEST PUSH1 0x0 PUSH1 0x1 PUSH1 0x0 SWAP1 SLOAD SWAP1 PUSH2 0x100 EXP SWAP1 DIV PUSH20 0xFFFFFFFFFFFFFFFFFFFFFFFFFFFFFFFFFFFFFFFF AND PUSH20 0xFFFFFFFFFFFFFFFFFFFFFFFFFFFFFFFFFFFFFFFF AND PUSH4 0x68FC01A2 PUSH1 0x40 MLOAD DUP2 PUSH4 0xFFFFFFFF AND PUSH1 0xE0 SHL DUP2 MSTORE PUSH1 0x4 ADD PUSH1 0x20 PUSH1 0x40 MLOAD DUP1 DUP4 SUB DUP2 DUP7 DUP1 EXTCODESIZE ISZERO DUP1 ISZERO PUSH2 0x4D3 JUMPI PUSH1 0x0 DUP1 REVERT JUMPDEST POP GAS STATICCALL ISZERO DUP1 ISZERO PUSH2 0x4E7 JUMPI RETURNDATASIZE PUSH1 0x0 DUP1 RETURNDATACOPY RETURNDATASIZE PUSH1 0x0 REVERT JUMPDEST POP POP POP POP PUSH1 0x40 MLOAD RETURNDATASIZE PUSH1 0x1F NOT PUSH1 0x1F DUP3 ADD AND DUP3 ADD DUP1 PUSH1 0x40 MSTORE POP DUP2 ADD SWAP1 PUSH2 0x50B SWAP2 SWAP1 PUSH2 0xFD5 JUMP JUMPDEST SWAP1 POP SWAP1 JUMP JUMPDEST PUSH2 0x518 PUSH2 0xB0D JUMP JUMPDEST PUSH20 0xFFFFFFFFFFFFFFFFFFFFFFFFFFFFFFFFFFFFFFFF AND PUSH2 0x536 PUSH2 0x5D3 JUMP JUMPDEST PUSH20 0xFFFFFFFFFFFFFFFFFFFFFFFFFFFFFFFFFFFFFFFF AND EQ PUSH2 0x58C JUMPI PUSH1 0x40 MLOAD PUSH32 0x8C379A000000000000000000000000000000000000000000000000000000000 DUP2 MSTORE PUSH1 0x4 ADD PUSH2 0x583 SWAP1 PUSH2 0x132D JUMP JUMPDEST PUSH1 0x40 MLOAD DUP1 SWAP2 SUB SWAP1 REVERT JUMPDEST PUSH2 0x596 PUSH1 0x0 PUSH2 0xB15 JUMP JUMPDEST JUMP JUMPDEST PUSH1 0x0 PUSH2 0x5A2 PUSH2 0xBD9 JUMP JUMPDEST PUSH1 0x0 DUP1 SWAP2 POP POP SWAP2 SWAP1 POP JUMP JUMPDEST PUSH1 0x1 PUSH1 0x0 SWAP1 SLOAD SWAP1 PUSH2 0x100 EXP SWAP1 DIV PUSH20 0xFFFFFFFFFFFFFFFFFFFFFFFFFFFFFFFFFFFFFFFF AND DUP2 JUMP JUMPDEST PUSH1 0x0 DUP1 PUSH1 0x0 SWAP1 SLOAD SWAP1 PUSH2 0x100 EXP SWAP1 DIV PUSH20 0xFFFFFFFFFFFFFFFFFFFFFFFFFFFFFFFFFFFFFFFF AND SWAP1 POP SWAP1 JUMP JUMPDEST PUSH2 0x604 PUSH2 0xBD9 JUMP JUMPDEST PUSH1 0x6 SLOAD TIMESTAMP GT DUP1 ISZERO PUSH2 0x625 JUMPI POP PUSH1 0x9 PUSH1 0x2 ADD PUSH1 0x0 SWAP1 SLOAD SWAP1 PUSH2 0x100 EXP SWAP1 DIV PUSH1 0xFF AND ISZERO JUMPDEST PUSH2 0x664 JUMPI PUSH1 0x40 MLOAD PUSH32 0x8C379A000000000000000000000000000000000000000000000000000000000 DUP2 MSTORE PUSH1 0x4 ADD PUSH2 0x65B SWAP1 PUSH2 0x12CD JUMP JUMPDEST PUSH1 0x40 MLOAD DUP1 SWAP2 SUB SWAP1 REVERT JUMPDEST PUSH1 0x0 PUSH1 0x1 PUSH2 0x670 PUSH2 0x469 JUMP JUMPDEST PUSH2 0x67A SWAP2 SWAP1 PUSH2 0x1577 JUMP JUMPDEST PUSH2 0x682 PUSH2 0x302 JUMP JUMPDEST PUSH2 0x68C SWAP2 SWAP1 PUSH2 0x1577 JUMP JUMPDEST SWAP1 POP JUMPDEST PUSH1 0x0 DUP2 GT ISZERO PUSH2 0x6D6 JUMPI PUSH2 0x6C3 PUSH1 0x4 PUSH1 0x0 SWAP1 SLOAD SWAP1 PUSH2 0x100 EXP SWAP1 DIV PUSH20 0xFFFFFFFFFFFFFFFFFFFFFFFFFFFFFFFFFFFFFFFF AND PUSH2 0xCC3 JUMP JUMPDEST DUP1 DUP1 PUSH2 0x6CE SWAP1 PUSH2 0x167D JUMP JUMPDEST SWAP2 POP POP PUSH2 0x68F JUMP JUMPDEST POP JUMP JUMPDEST PUSH2 0x6E1 PUSH2 0xB0D JUMP JUMPDEST PUSH20 0xFFFFFFFFFFFFFFFFFFFFFFFFFFFFFFFFFFFFFFFF AND PUSH2 0x6FF PUSH2 0x5D3 JUMP JUMPDEST PUSH20 0xFFFFFFFFFFFFFFFFFFFFFFFFFFFFFFFFFFFFFFFF AND EQ PUSH2 0x755 JUMPI PUSH1 0x40 MLOAD PUSH32 0x8C379A000000000000000000000000000000000000000000000000000000000 DUP2 MSTORE PUSH1 0x4 ADD PUSH2 0x74C SWAP1 PUSH2 0x132D JUMP JUMPDEST PUSH1 0x40 MLOAD DUP1 SWAP2 SUB SWAP1 REVERT JUMPDEST DUP1 PUSH1 0x5 DUP2 SWAP1 SSTORE POP POP JUMP JUMPDEST PUSH2 0x767 PUSH2 0xB0D JUMP JUMPDEST PUSH20 0xFFFFFFFFFFFFFFFFFFFFFFFFFFFFFFFFFFFFFFFF AND PUSH2 0x785 PUSH2 0x5D3 JUMP JUMPDEST PUSH20 0xFFFFFFFFFFFFFFFFFFFFFFFFFFFFFFFFFFFFFFFF AND EQ PUSH2 0x7DB JUMPI PUSH1 0x40 MLOAD PUSH32 0x8C379A000000000000000000000000000000000000000000000000000000000 DUP2 MSTORE PUSH1 0x4 ADD PUSH2 0x7D2 SWAP1 PUSH2 0x132D JUMP JUMPDEST PUSH1 0x40 MLOAD DUP1 SWAP2 SUB SWAP1 REVERT JUMPDEST DUP1 PUSH1 0x6 DUP2 SWAP1 SSTORE POP POP JUMP JUMPDEST PUSH2 0x7ED PUSH2 0xBD9 JUMP JUMPDEST PUSH1 0x0 PUSH2 0x7F8 CALLER PUSH2 0x598 JUMP JUMPDEST SWAP1 POP PUSH1 0x3 PUSH1 0x0 SWAP1 SLOAD SWAP1 PUSH2 0x100 EXP SWAP1 DIV PUSH20 0xFFFFFFFFFFFFFFFFFFFFFFFFFFFFFFFFFFFFFFFF AND PUSH20 0xFFFFFFFFFFFFFFFFFFFFFFFFFFFFFFFFFFFFFFFF AND PUSH4 0x532B2913 CALLER DUP4 PUSH1 0x40 MLOAD DUP4 PUSH4 0xFFFFFFFF AND PUSH1 0xE0 SHL DUP2 MSTORE PUSH1 0x4 ADD PUSH2 0x857 SWAP3 SWAP2 SWAP1 PUSH2 0x1237 JUMP JUMPDEST PUSH1 0x0 PUSH1 0x40 MLOAD DUP1 DUP4 SUB DUP2 PUSH1 0x0 DUP8 DUP1 EXTCODESIZE ISZERO DUP1 ISZERO PUSH2 0x871 JUMPI PUSH1 0x0 DUP1 REVERT JUMPDEST POP GAS CALL ISZERO DUP1 ISZERO PUSH2 0x885 JUMPI RETURNDATASIZE PUSH1 0x0 DUP1 RETURNDATACOPY RETURNDATASIZE PUSH1 0x0 REVERT JUMPDEST POP POP POP POP PUSH2 0x892 CALLER PUSH2 0xCC3 JUMP JUMPDEST POP JUMP JUMPDEST PUSH1 0x9 DUP1 PUSH1 0x0 ADD SLOAD SWAP1 DUP1 PUSH1 0x1 ADD SLOAD SWAP1 DUP1 PUSH1 0x2 ADD PUSH1 0x0 SWAP1 SLOAD SWAP1 PUSH2 0x100 EXP SWAP1 DIV PUSH1 0xFF AND SWAP1 POP DUP4 JUMP JUMPDEST PUSH1 0x3 PUSH1 0x0 SWAP1 SLOAD SWAP1 PUSH2 0x100 EXP SWAP1 DIV PUSH20 0xFFFFFFFFFFFFFFFFFFFFFFFFFFFFFFFFFFFFFFFF AND DUP2 JUMP JUMPDEST PUSH1 0x4 PUSH1 0x0 SWAP1 SLOAD SWAP1 PUSH2 0x100 EXP SWAP1 DIV PUSH20 0xFFFFFFFFFFFFFFFFFFFFFFFFFFFFFFFFFFFFFFFF AND DUP2 JUMP JUMPDEST PUSH2 0x90E PUSH2 0xB0D JUMP JUMPDEST PUSH20 0xFFFFFFFFFFFFFFFFFFFFFFFFFFFFFFFFFFFFFFFF AND PUSH2 0x92C PUSH2 0x5D3 JUMP JUMPDEST PUSH20 0xFFFFFFFFFFFFFFFFFFFFFFFFFFFFFFFFFFFFFFFF AND EQ PUSH2 0x982 JUMPI PUSH1 0x40 MLOAD PUSH32 0x8C379A000000000000000000000000000000000000000000000000000000000 DUP2 MSTORE PUSH1 0x4 ADD PUSH2 0x979 SWAP1 PUSH2 0x132D JUMP JUMPDEST PUSH1 0x40 MLOAD DUP1 SWAP2 SUB SWAP1 REVERT JUMPDEST PUSH1 0x1 PUSH1 0x0 SWAP1 SLOAD SWAP1 PUSH2 0x100 EXP SWAP1 DIV PUSH20 0xFFFFFFFFFFFFFFFFFFFFFFFFFFFFFFFFFFFFFFFF AND PUSH20 0xFFFFFFFFFFFFFFFFFFFFFFFFFFFFFFFFFFFFFFFF AND PUSH4 0xF121DA92 DUP4 DUP4 PUSH1 0x40 MLOAD DUP4 PUSH4 0xFFFFFFFF AND PUSH1 0xE0 SHL DUP2 MSTORE PUSH1 0x4 ADD PUSH2 0x9DF SWAP3 SWAP2 SWAP1 PUSH2 0x1260 JUMP JUMPDEST PUSH1 0x0 PUSH1 0x40 MLOAD DUP1 DUP4 SUB DUP2 PUSH1 0x0 DUP8 DUP1 EXTCODESIZE ISZERO DUP1 ISZERO PUSH2 0x9F9 JUMPI PUSH1 0x0 DUP1 REVERT JUMPDEST POP GAS CALL ISZERO DUP1 ISZERO PUSH2 0xA0D JUMPI RETURNDATASIZE PUSH1 0x0 DUP1 RETURNDATACOPY RETURNDATASIZE PUSH1 0x0 REVERT JUMPDEST POP POP POP POP POP POP JUMP JUMPDEST PUSH2 0xA1D PUSH2 0xB0D JUMP JUMPDEST PUSH20 0xFFFFFFFFFFFFFFFFFFFFFFFFFFFFFFFFFFFFFFFF AND PUSH2 0xA3B PUSH2 0x5D3 JUMP JUMPDEST PUSH20 0xFFFFFFFFFFFFFFFFFFFFFFFFFFFFFFFFFFFFFFFF AND EQ PUSH2 0xA91 JUMPI PUSH1 0x40 MLOAD PUSH32 0x8C379A000000000000000000000000000000000000000000000000000000000 DUP2 MSTORE PUSH1 0x4 ADD PUSH2 0xA88 SWAP1 PUSH2 0x132D JUMP JUMPDEST PUSH1 0x40 MLOAD DUP1 SWAP2 SUB SWAP1 REVERT JUMPDEST PUSH1 0x0 PUSH20 0xFFFFFFFFFFFFFFFFFFFFFFFFFFFFFFFFFFFFFFFF AND DUP2 PUSH20 0xFFFFFFFFFFFFFFFFFFFFFFFFFFFFFFFFFFFFFFFF AND EQ ISZERO PUSH2 0xB01 JUMPI PUSH1 0x40 MLOAD PUSH32 0x8C379A000000000000000000000000000000000000000000000000000000000 DUP2 MSTORE PUSH1 0x4 ADD PUSH2 0xAF8 SWAP1 PUSH2 0x12ED JUMP JUMPDEST PUSH1 0x40 MLOAD DUP1 SWAP2 SUB SWAP1 REVERT JUMPDEST PUSH2 0xB0A DUP2 PUSH2 0xB15 JUMP JUMPDEST POP JUMP JUMPDEST PUSH1 0x0 CALLER SWAP1 POP SWAP1 JUMP JUMPDEST PUSH1 0x0 DUP1 PUSH1 0x0 SWAP1 SLOAD SWAP1 PUSH2 0x100 EXP SWAP1 DIV PUSH20 0xFFFFFFFFFFFFFFFFFFFFFFFFFFFFFFFFFFFFFFFF AND SWAP1 POP DUP2 PUSH1 0x0 DUP1 PUSH2 0x100 EXP DUP2 SLOAD DUP2 PUSH20 0xFFFFFFFFFFFFFFFFFFFFFFFFFFFFFFFFFFFFFFFF MUL NOT AND SWAP1 DUP4 PUSH20 0xFFFFFFFFFFFFFFFFFFFFFFFFFFFFFFFFFFFFFFFF AND MUL OR SWAP1 SSTORE POP DUP2 PUSH20 0xFFFFFFFFFFFFFFFFFFFFFFFFFFFFFFFFFFFFFFFF AND DUP2 PUSH20 0xFFFFFFFFFFFFFFFFFFFFFFFFFFFFFFFFFFFFFFFF AND PUSH32 0x8BE0079C531659141344CD1FD0A4F28419497F9722A3DAAFE3B4186F6B6457E0 PUSH1 0x40 MLOAD PUSH1 0x40 MLOAD DUP1 SWAP2 SUB SWAP1 LOG3 POP POP JUMP JUMPDEST PUSH1 0x6 SLOAD PUSH1 0x5 SLOAD GT ISZERO PUSH2 0xC20 JUMPI PUSH1 0x40 MLOAD PUSH32 0x8C379A000000000000000000000000000000000000000000000000000000000 DUP2 MSTORE PUSH1 0x4 ADD PUSH2 0xC17 SWAP1 PUSH2 0x130D JUMP JUMPDEST PUSH1 0x40 MLOAD DUP1 SWAP2 SUB SWAP1 REVERT JUMPDEST PUSH1 0x1 PUSH1 0x3C PUSH1 0x5 SLOAD TIMESTAMP PUSH2 0xC32 SWAP2 SWAP1 PUSH2 0x1577 JUMP JUMPDEST PUSH2 0xC3C SWAP2 SWAP1 PUSH2 0x14EC JUMP JUMPDEST PUSH2 0xC46 SWAP2 SWAP1 PUSH2 0x151D JUMP JUMPDEST PUSH1 0x7 SLOAD PUSH2 0xC53 SWAP2 SWAP1 PUSH2 0x1577 JUMP JUMPDEST PUSH1 0x9 PUSH1 0x0 ADD DUP2 SWAP1 SSTORE POP TIMESTAMP PUSH1 0x9 PUSH1 0x1 ADD DUP2 SWAP1 SSTORE POP PUSH1 0x5 SLOAD TIMESTAMP LT ISZERO DUP1 ISZERO PUSH2 0xC7A JUMPI POP PUSH1 0x6 SLOAD TIMESTAMP GT ISZERO JUMPDEST ISZERO PUSH2 0xCA2 JUMPI PUSH1 0x1 PUSH1 0x9 PUSH1 0x2 ADD PUSH1 0x0 PUSH2 0x100 EXP DUP2 SLOAD DUP2 PUSH1 0xFF MUL NOT AND SWAP1 DUP4 ISZERO ISZERO MUL OR SWAP1 SSTORE POP PUSH2 0xCC1 JUMP JUMPDEST PUSH1 0x0 PUSH1 0x9 PUSH1 0x2 ADD PUSH1 0x0 PUSH2 0x100 EXP DUP2 SLOAD DUP2 PUSH1 0xFF MUL NOT AND SWAP1 DUP4 ISZERO ISZERO MUL OR SWAP1 SSTORE POP JUMPDEST JUMP JUMPDEST PUSH1 0x1 PUSH1 0x0 SWAP1 SLOAD SWAP1 PUSH2 0x100 EXP SWAP1 DIV PUSH20 0xFFFFFFFFFFFFFFFFFFFFFFFFFFFFFFFFFFFFFFFF AND PUSH20 0xFFFFFFFFFFFFFFFFFFFFFFFFFFFFFFFFFFFFFFFF AND PUSH4 0x55676590 DUP3 PUSH1 0x40 MLOAD DUP3 PUSH4 0xFFFFFFFF AND PUSH1 0xE0 SHL DUP2 MSTORE PUSH1 0x4 ADD PUSH2 0xD1E SWAP2 SWAP1 PUSH2 0x121C JUMP JUMPDEST PUSH1 0x0 PUSH1 0x40 MLOAD DUP1 DUP4 SUB DUP2 PUSH1 0x0 DUP8 DUP1 EXTCODESIZE ISZERO DUP1 ISZERO PUSH2 0xD38 JUMPI PUSH1 0x0 DUP1 REVERT JUMPDEST POP GAS CALL ISZERO DUP1 ISZERO PUSH2 0xD4C JUMPI RETURNDATASIZE PUSH1 0x0 DUP1 RETURNDATACOPY RETURNDATASIZE PUSH1 0x0 REVERT JUMPDEST POP POP POP POP POP JUMP JUMPDEST PUSH1 0x0 PUSH2 0xD66 PUSH2 0xD61 DUP5 PUSH2 0x13C4 JUMP JUMPDEST PUSH2 0x139F JUMP JUMPDEST SWAP1 POP DUP1 DUP4 DUP3 MSTORE PUSH1 0x20 DUP3 ADD SWAP1 POP DUP3 PUSH1 0x0 JUMPDEST DUP6 DUP2 LT ISZERO PUSH2 0xDA6 JUMPI DUP2 CALLDATALOAD DUP6 ADD PUSH2 0xD8C DUP9 DUP3 PUSH2 0xEC3 JUMP JUMPDEST DUP5 MSTORE PUSH1 0x20 DUP5 ADD SWAP4 POP PUSH1 0x20 DUP4 ADD SWAP3 POP POP PUSH1 0x1 DUP2 ADD SWAP1 POP PUSH2 0xD76 JUMP JUMPDEST POP POP POP SWAP4 SWAP3 POP POP POP JUMP JUMPDEST PUSH1 0x0 PUSH2 0xDC3 PUSH2 0xDBE DUP5 PUSH2 0x13F0 JUMP JUMPDEST PUSH2 0x139F JUMP JUMPDEST SWAP1 POP DUP1 DUP4 DUP3 MSTORE PUSH1 0x20 DUP3 ADD SWAP1 POP DUP3 DUP6 PUSH1 0x20 DUP7 MUL DUP3 ADD GT ISZERO PUSH2 0xDE2 JUMPI PUSH1 0x0 DUP1 REVERT JUMPDEST PUSH1 0x0 JUMPDEST DUP6 DUP2 LT ISZERO PUSH2 0xE12 JUMPI DUP2 PUSH2 0xDF8 DUP9 DUP3 PUSH2 0xEED JUMP JUMPDEST DUP5 MSTORE PUSH1 0x20 DUP5 ADD SWAP4 POP PUSH1 0x20 DUP4 ADD SWAP3 POP POP PUSH1 0x1 DUP2 ADD SWAP1 POP PUSH2 0xDE5 JUMP JUMPDEST POP POP POP SWAP4 SWAP3 POP POP POP JUMP JUMPDEST PUSH1 0x0 PUSH2 0xE2F PUSH2 0xE2A DUP5 PUSH2 0x141C JUMP JUMPDEST PUSH2 0x139F JUMP JUMPDEST SWAP1 POP DUP3 DUP2 MSTORE PUSH1 0x20 DUP2 ADD DUP5 DUP5 DUP5 ADD GT ISZERO PUSH2 0xE47 JUMPI PUSH1 0x0 DUP1 REVERT JUMPDEST PUSH2 0xE52 DUP5 DUP3 DUP6 PUSH2 0x163B JUMP JUMPDEST POP SWAP4 SWAP3 POP POP POP JUMP JUMPDEST PUSH1 0x0 DUP2 CALLDATALOAD SWAP1 POP PUSH2 0xE69 DUP2 PUSH2 0x1866 JUMP JUMPDEST SWAP3 SWAP2 POP POP JUMP JUMPDEST PUSH1 0x0 DUP3 PUSH1 0x1F DUP4 ADD SLT PUSH2 0xE80 JUMPI PUSH1 0x0 DUP1 REVERT JUMPDEST DUP2 CALLDATALOAD PUSH2 0xE90 DUP5 DUP3 PUSH1 0x20 DUP7 ADD PUSH2 0xD53 JUMP JUMPDEST SWAP2 POP POP SWAP3 SWAP2 POP POP JUMP JUMPDEST PUSH1 0x0 DUP3 PUSH1 0x1F DUP4 ADD SLT PUSH2 0xEAA JUMPI PUSH1 0x0 DUP1 REVERT JUMPDEST DUP2 CALLDATALOAD PUSH2 0xEBA DUP5 DUP3 PUSH1 0x20 DUP7 ADD PUSH2 0xDB0 JUMP JUMPDEST SWAP2 POP POP SWAP3 SWAP2 POP POP JUMP JUMPDEST PUSH1 0x0 DUP3 PUSH1 0x1F DUP4 ADD SLT PUSH2 0xED4 JUMPI PUSH1 0x0 DUP1 REVERT JUMPDEST DUP2 CALLDATALOAD PUSH2 0xEE4 DUP5 DUP3 PUSH1 0x20 DUP7 ADD PUSH2 0xE1C JUMP JUMPDEST SWAP2 POP POP SWAP3 SWAP2 POP POP JUMP JUMPDEST PUSH1 0x0 DUP2 CALLDATALOAD SWAP1 POP PUSH2 0xEFC DUP2 PUSH2 0x187D JUMP JUMPDEST SWAP3 SWAP2 POP POP JUMP JUMPDEST PUSH1 0x0 DUP2 MLOAD SWAP1 POP PUSH2 0xF11 DUP2 PUSH2 0x187D JUMP JUMPDEST SWAP3 SWAP2 POP POP JUMP JUMPDEST PUSH1 0x0 PUSH1 0x20 DUP3 DUP5 SUB SLT ISZERO PUSH2 0xF29 JUMPI PUSH1 0x0 DUP1 REVERT JUMPDEST PUSH1 0x0 PUSH2 0xF37 DUP5 DUP3 DUP6 ADD PUSH2 0xE5A JUMP JUMPDEST SWAP2 POP POP SWAP3 SWAP2 POP POP JUMP JUMPDEST PUSH1 0x0 DUP1 PUSH1 0x40 DUP4 DUP6 SUB SLT ISZERO PUSH2 0xF53 JUMPI PUSH1 0x0 DUP1 REVERT JUMPDEST PUSH1 0x0 DUP4 ADD CALLDATALOAD PUSH8 0xFFFFFFFFFFFFFFFF DUP2 GT ISZERO PUSH2 0xF6D JUMPI PUSH1 0x0 DUP1 REVERT JUMPDEST PUSH2 0xF79 DUP6 DUP3 DUP7 ADD PUSH2 0xE99 JUMP JUMPDEST SWAP3 POP POP PUSH1 0x20 DUP4 ADD CALLDATALOAD PUSH8 0xFFFFFFFFFFFFFFFF DUP2 GT ISZERO PUSH2 0xF96 JUMPI PUSH1 0x0 DUP1 REVERT JUMPDEST PUSH2 0xFA2 DUP6 DUP3 DUP7 ADD PUSH2 0xE6F JUMP JUMPDEST SWAP2 POP POP SWAP3 POP SWAP3 SWAP1 POP JUMP JUMPDEST PUSH1 0x0 PUSH1 0x20 DUP3 DUP5 SUB SLT ISZERO PUSH2 0xFBE JUMPI PUSH1 0x0 DUP1 REVERT JUMPDEST PUSH1 0x0 PUSH2 0xFCC DUP5 DUP3 DUP6 ADD PUSH2 0xEED JUMP JUMPDEST SWAP2 POP POP SWAP3 SWAP2 POP POP JUMP JUMPDEST PUSH1 0x0 PUSH1 0x20 DUP3 DUP5 SUB SLT ISZERO PUSH2 0xFE7 JUMPI PUSH1 0x0 DUP1 REVERT JUMPDEST PUSH1 0x0 PUSH2 0xFF5 DUP5 DUP3 DUP6 ADD PUSH2 0xF02 JUMP JUMPDEST SWAP2 POP POP SWAP3 SWAP2 POP POP JUMP JUMPDEST PUSH1 0x0 PUSH2 0x100A DUP4 DUP4 PUSH2 0x1139 JUMP JUMPDEST SWAP1 POP SWAP3 SWAP2 POP POP JUMP JUMPDEST PUSH1 0x0 PUSH2 0x101E DUP4 DUP4 PUSH2 0x11FE JUMP JUMPDEST PUSH1 0x20 DUP4 ADD SWAP1 POP SWAP3 SWAP2 POP POP JUMP JUMPDEST PUSH2 0x1033 DUP2 PUSH2 0x15AB JUMP JUMPDEST DUP3 MSTORE POP POP JUMP JUMPDEST PUSH1 0x0 PUSH2 0x1044 DUP3 PUSH2 0x146D JUMP JUMPDEST PUSH2 0x104E DUP2 DUP6 PUSH2 0x14A8 JUMP JUMPDEST SWAP4 POP DUP4 PUSH1 0x20 DUP3 MUL DUP6 ADD PUSH2 0x1060 DUP6 PUSH2 0x144D JUMP JUMPDEST DUP1 PUSH1 0x0 JUMPDEST DUP6 DUP2 LT ISZERO PUSH2 0x109C JUMPI DUP5 DUP5 SUB DUP10 MSTORE DUP2 MLOAD PUSH2 0x107D DUP6 DUP3 PUSH2 0xFFE JUMP JUMPDEST SWAP5 POP PUSH2 0x1088 DUP4 PUSH2 0x148E JUMP JUMPDEST SWAP3 POP PUSH1 0x20 DUP11 ADD SWAP10 POP POP PUSH1 0x1 DUP2 ADD SWAP1 POP PUSH2 0x1064 JUMP JUMPDEST POP DUP3 SWAP8 POP DUP8 SWAP6 POP POP POP POP POP POP SWAP3 SWAP2 POP POP JUMP JUMPDEST PUSH1 0x0 PUSH2 0x10B9 DUP3 PUSH2 0x1478 JUMP JUMPDEST PUSH2 0x10C3 DUP2 DUP6 PUSH2 0x14B9 JUMP JUMPDEST SWAP4 POP PUSH2 0x10CE DUP4 PUSH2 0x145D JUMP JUMPDEST DUP1 PUSH1 0x0 JUMPDEST DUP4 DUP2 LT ISZERO PUSH2 0x10FF JUMPI DUP2 MLOAD PUSH2 0x10E6 DUP9 DUP3 PUSH2 0x1012 JUMP JUMPDEST SWAP8 POP PUSH2 0x10F1 DUP4 PUSH2 0x149B JUMP JUMPDEST SWAP3 POP POP PUSH1 0x1 DUP2 ADD SWAP1 POP PUSH2 0x10D2 JUMP JUMPDEST POP DUP6 SWAP4 POP POP POP POP SWAP3 SWAP2 POP POP JUMP JUMPDEST PUSH2 0x1115 DUP2 PUSH2 0x15BD JUMP JUMPDEST DUP3 MSTORE POP POP JUMP JUMPDEST PUSH2 0x1124 DUP2 PUSH2 0x15F3 JUMP JUMPDEST DUP3 MSTORE POP POP JUMP JUMPDEST PUSH2 0x1133 DUP2 PUSH2 0x1617 JUMP JUMPDEST DUP3 MSTORE POP POP JUMP JUMPDEST PUSH1 0x0 PUSH2 0x1144 DUP3 PUSH2 0x1483 JUMP JUMPDEST PUSH2 0x114E DUP2 DUP6 PUSH2 0x14CA JUMP JUMPDEST SWAP4 POP PUSH2 0x115E DUP2 DUP6 PUSH1 0x20 DUP7 ADD PUSH2 0x164A JUMP JUMPDEST PUSH2 0x1167 DUP2 PUSH2 0x1765 JUMP JUMPDEST DUP5 ADD SWAP2 POP POP SWAP3 SWAP2 POP POP JUMP JUMPDEST PUSH1 0x0 PUSH2 0x117F PUSH1 0x36 DUP4 PUSH2 0x14DB JUMP JUMPDEST SWAP2 POP PUSH2 0x118A DUP3 PUSH2 0x1776 JUMP JUMPDEST PUSH1 0x40 DUP3 ADD SWAP1 POP SWAP2 SWAP1 POP JUMP JUMPDEST PUSH1 0x0 PUSH2 0x11A2 PUSH1 0x26 DUP4 PUSH2 0x14DB JUMP JUMPDEST SWAP2 POP PUSH2 0x11AD DUP3 PUSH2 0x17C5 JUMP JUMPDEST PUSH1 0x40 DUP3 ADD SWAP1 POP SWAP2 SWAP1 POP JUMP JUMPDEST PUSH1 0x0 PUSH2 0x11C5 PUSH1 0x1F DUP4 PUSH2 0x14DB JUMP JUMPDEST SWAP2 POP PUSH2 0x11D0 DUP3 PUSH2 0x1814 JUMP JUMPDEST PUSH1 0x20 DUP3 ADD SWAP1 POP SWAP2 SWAP1 POP JUMP JUMPDEST PUSH1 0x0 PUSH2 0x11E8 PUSH1 0x20 DUP4 PUSH2 0x14DB JUMP JUMPDEST SWAP2 POP PUSH2 0x11F3 DUP3 PUSH2 0x183D JUMP JUMPDEST PUSH1 0x20 DUP3 ADD SWAP1 POP SWAP2 SWAP1 POP JUMP JUMPDEST PUSH2 0x1207 DUP2 PUSH2 0x15E9 JUMP JUMPDEST DUP3 MSTORE POP POP JUMP JUMPDEST PUSH2 0x1216 DUP2 PUSH2 0x15E9 JUMP JUMPDEST DUP3 MSTORE POP POP JUMP JUMPDEST PUSH1 0x0 PUSH1 0x20 DUP3 ADD SWAP1 POP PUSH2 0x1231 PUSH1 0x0 DUP4 ADD DUP5 PUSH2 0x102A JUMP JUMPDEST SWAP3 SWAP2 POP POP JUMP JUMPDEST PUSH1 0x0 PUSH1 0x40 DUP3 ADD SWAP1 POP PUSH2 0x124C PUSH1 0x0 DUP4 ADD DUP6 PUSH2 0x102A JUMP JUMPDEST PUSH2 0x1259 PUSH1 0x20 DUP4 ADD DUP5 PUSH2 0x120D JUMP JUMPDEST SWAP4 SWAP3 POP POP POP JUMP JUMPDEST PUSH1 0x0 PUSH1 0x40 DUP3 ADD SWAP1 POP DUP2 DUP2 SUB PUSH1 0x0 DUP4 ADD MSTORE PUSH2 0x127A DUP2 DUP6 PUSH2 0x10AE JUMP JUMPDEST SWAP1 POP DUP2 DUP2 SUB PUSH1 0x20 DUP4 ADD MSTORE PUSH2 0x128E DUP2 DUP5 PUSH2 0x1039 JUMP JUMPDEST SWAP1 POP SWAP4 SWAP3 POP POP POP JUMP JUMPDEST PUSH1 0x0 PUSH1 0x20 DUP3 ADD SWAP1 POP PUSH2 0x12AC PUSH1 0x0 DUP4 ADD DUP5 PUSH2 0x111B JUMP JUMPDEST SWAP3 SWAP2 POP POP JUMP JUMPDEST PUSH1 0x0 PUSH1 0x20 DUP3 ADD SWAP1 POP PUSH2 0x12C7 PUSH1 0x0 DUP4 ADD DUP5 PUSH2 0x112A JUMP JUMPDEST SWAP3 SWAP2 POP POP JUMP JUMPDEST PUSH1 0x0 PUSH1 0x20 DUP3 ADD SWAP1 POP DUP2 DUP2 SUB PUSH1 0x0 DUP4 ADD MSTORE PUSH2 0x12E6 DUP2 PUSH2 0x1172 JUMP JUMPDEST SWAP1 POP SWAP2 SWAP1 POP JUMP JUMPDEST PUSH1 0x0 PUSH1 0x20 DUP3 ADD SWAP1 POP DUP2 DUP2 SUB PUSH1 0x0 DUP4 ADD MSTORE PUSH2 0x1306 DUP2 PUSH2 0x1195 JUMP JUMPDEST SWAP1 POP SWAP2 SWAP1 POP JUMP JUMPDEST PUSH1 0x0 PUSH1 0x20 DUP3 ADD SWAP1 POP DUP2 DUP2 SUB PUSH1 0x0 DUP4 ADD MSTORE PUSH2 0x1326 DUP2 PUSH2 0x11B8 JUMP JUMPDEST SWAP1 POP SWAP2 SWAP1 POP JUMP JUMPDEST PUSH1 0x0 PUSH1 0x20 DUP3 ADD SWAP1 POP DUP2 DUP2 SUB PUSH1 0x0 DUP4 ADD MSTORE PUSH2 0x1346 DUP2 PUSH2 0x11DB JUMP JUMPDEST SWAP1 POP SWAP2 SWAP1 POP JUMP JUMPDEST PUSH1 0x0 PUSH1 0x20 DUP3 ADD SWAP1 POP PUSH2 0x1362 PUSH1 0x0 DUP4 ADD DUP5 PUSH2 0x120D JUMP JUMPDEST SWAP3 SWAP2 POP POP JUMP JUMPDEST PUSH1 0x0 PUSH1 0x60 DUP3 ADD SWAP1 POP PUSH2 0x137D PUSH1 0x0 DUP4 ADD DUP7 PUSH2 0x120D JUMP JUMPDEST PUSH2 0x138A PUSH1 0x20 DUP4 ADD DUP6 PUSH2 0x120D JUMP JUMPDEST PUSH2 0x1397 PUSH1 0x40 DUP4 ADD DUP5 PUSH2 0x110C JUMP JUMPDEST SWAP5 SWAP4 POP POP POP POP JUMP JUMPDEST PUSH1 0x0 PUSH2 0x13A9 PUSH2 0x13BA JUMP JUMPDEST SWAP1 POP PUSH2 0x13B5 DUP3 DUP3 PUSH2 0x16A7 JUMP JUMPDEST SWAP2 SWAP1 POP JUMP JUMPDEST PUSH1 0x0 PUSH1 0x40 MLOAD SWAP1 POP SWAP1 JUMP JUMPDEST PUSH1 0x0 PUSH8 0xFFFFFFFFFFFFFFFF DUP3 GT ISZERO PUSH2 0x13DF JUMPI PUSH2 0x13DE PUSH2 0x1736 JUMP JUMPDEST JUMPDEST PUSH1 0x20 DUP3 MUL SWAP1 POP PUSH1 0x20 DUP2 ADD SWAP1 POP SWAP2 SWAP1 POP JUMP JUMPDEST PUSH1 0x0 PUSH8 0xFFFFFFFFFFFFFFFF DUP3 GT ISZERO PUSH2 0x140B JUMPI PUSH2 0x140A PUSH2 0x1736 JUMP JUMPDEST JUMPDEST PUSH1 0x20 DUP3 MUL SWAP1 POP PUSH1 0x20 DUP2 ADD SWAP1 POP SWAP2 SWAP1 POP JUMP JUMPDEST PUSH1 0x0 PUSH8 0xFFFFFFFFFFFFFFFF DUP3 GT ISZERO PUSH2 0x1437 JUMPI PUSH2 0x1436 PUSH2 0x1736 JUMP JUMPDEST JUMPDEST PUSH2 0x1440 DUP3 PUSH2 0x1765 JUMP JUMPDEST SWAP1 POP PUSH1 0x20 DUP2 ADD SWAP1 POP SWAP2 SWAP1 POP JUMP JUMPDEST PUSH1 0x0 DUP2 SWAP1 POP PUSH1 0x20 DUP3 ADD SWAP1 POP SWAP2 SWAP1 POP JUMP JUMPDEST PUSH1 0x0 DUP2 SWAP1 POP PUSH1 0x20 DUP3 ADD SWAP1 POP SWAP2 SWAP1 POP JUMP JUMPDEST PUSH1 0x0 DUP2 MLOAD SWAP1 POP SWAP2 SWAP1 POP JUMP JUMPDEST PUSH1 0x0 DUP2 MLOAD SWAP1 POP SWAP2 SWAP1 POP JUMP JUMPDEST PUSH1 0x0 DUP2 MLOAD SWAP1 POP SWAP2 SWAP1 POP JUMP JUMPDEST PUSH1 0x0 PUSH1 0x20 DUP3 ADD SWAP1 POP SWAP2 SWAP1 POP JUMP JUMPDEST PUSH1 0x0 PUSH1 0x20 DUP3 ADD SWAP1 POP SWAP2 SWAP1 POP JUMP JUMPDEST PUSH1 0x0 DUP3 DUP3 MSTORE PUSH1 0x20 DUP3 ADD SWAP1 POP SWAP3 SWAP2 POP POP JUMP JUMPDEST PUSH1 0x0 DUP3 DUP3 MSTORE PUSH1 0x20 DUP3 ADD SWAP1 POP SWAP3 SWAP2 POP POP JUMP JUMPDEST PUSH1 0x0 DUP3 DUP3 MSTORE PUSH1 0x20 DUP3 ADD SWAP1 POP SWAP3 SWAP2 POP POP JUMP JUMPDEST PUSH1 0x0 DUP3 DUP3 MSTORE PUSH1 0x20 DUP3 ADD SWAP1 POP SWAP3 SWAP2 POP POP JUMP JUMPDEST PUSH1 0x0 PUSH2 0x14F7 DUP3 PUSH2 0x15E9 JUMP JUMPDEST SWAP2 POP PUSH2 0x1502 DUP4 PUSH2 0x15E9 JUMP JUMPDEST SWAP3 POP DUP3 PUSH2 0x1512 JUMPI PUSH2 0x1511 PUSH2 0x1707 JUMP JUMPDEST JUMPDEST DUP3 DUP3 DIV SWAP1 POP SWAP3 SWAP2 POP POP JUMP JUMPDEST PUSH1 0x0 PUSH2 0x1528 DUP3 PUSH2 0x15E9 JUMP JUMPDEST SWAP2 POP PUSH2 0x1533 DUP4 PUSH2 0x15E9 JUMP JUMPDEST SWAP3 POP DUP2 PUSH32 0xFFFFFFFFFFFFFFFFFFFFFFFFFFFFFFFFFFFFFFFFFFFFFFFFFFFFFFFFFFFFFFFF DIV DUP4 GT DUP3 ISZERO ISZERO AND ISZERO PUSH2 0x156C JUMPI PUSH2 0x156B PUSH2 0x16D8 JUMP JUMPDEST JUMPDEST DUP3 DUP3 MUL SWAP1 POP SWAP3 SWAP2 POP POP JUMP JUMPDEST PUSH1 0x0 PUSH2 0x1582 DUP3 PUSH2 0x15E9 JUMP JUMPDEST SWAP2 POP PUSH2 0x158D DUP4 PUSH2 0x15E9 JUMP JUMPDEST SWAP3 POP DUP3 DUP3 LT ISZERO PUSH2 0x15A0 JUMPI PUSH2 0x159F PUSH2 0x16D8 JUMP JUMPDEST JUMPDEST DUP3 DUP3 SUB SWAP1 POP SWAP3 SWAP2 POP POP JUMP JUMPDEST PUSH1 0x0 PUSH2 0x15B6 DUP3 PUSH2 0x15C9 JUMP JUMPDEST SWAP1 POP SWAP2 SWAP1 POP JUMP JUMPDEST PUSH1 0x0 DUP2 ISZERO ISZERO SWAP1 POP SWAP2 SWAP1 POP JUMP JUMPDEST PUSH1 0x0 PUSH20 0xFFFFFFFFFFFFFFFFFFFFFFFFFFFFFFFFFFFFFFFF DUP3 AND SWAP1 POP SWAP2 SWAP1 POP JUMP JUMPDEST PUSH1 0x0 DUP2 SWAP1 POP SWAP2 SWAP1 POP JUMP JUMPDEST PUSH1 0x0 PUSH2 0x15FE DUP3 PUSH2 0x1605 JUMP JUMPDEST SWAP1 POP SWAP2 SWAP1 POP JUMP JUMPDEST PUSH1 0x0 PUSH2 0x1610 DUP3 PUSH2 0x15C9 JUMP JUMPDEST SWAP1 POP SWAP2 SWAP1 POP JUMP JUMPDEST PUSH1 0x0 PUSH2 0x1622 DUP3 PUSH2 0x1629 JUMP JUMPDEST SWAP1 POP SWAP2 SWAP1 POP JUMP JUMPDEST PUSH1 0x0 PUSH2 0x1634 DUP3 PUSH2 0x15C9 JUMP JUMPDEST SWAP1 POP SWAP2 SWAP1 POP JUMP JUMPDEST DUP3 DUP2 DUP4 CALLDATACOPY PUSH1 0x0 DUP4 DUP4 ADD MSTORE POP POP POP JUMP JUMPDEST PUSH1 0x0 JUMPDEST DUP4 DUP2 LT ISZERO PUSH2 0x1668 JUMPI DUP1 DUP3 ADD MLOAD DUP2 DUP5 ADD MSTORE PUSH1 0x20 DUP2 ADD SWAP1 POP PUSH2 0x164D JUMP JUMPDEST DUP4 DUP2 GT ISZERO PUSH2 0x1677 JUMPI PUSH1 0x0 DUP5 DUP5 ADD MSTORE JUMPDEST POP POP POP POP JUMP JUMPDEST PUSH1 0x0 PUSH2 0x1688 DUP3 PUSH2 0x15E9 JUMP JUMPDEST SWAP2 POP PUSH1 0x0 DUP3 EQ ISZERO PUSH2 0x169C JUMPI PUSH2 0x169B PUSH2 0x16D8 JUMP JUMPDEST JUMPDEST PUSH1 0x1 DUP3 SUB SWAP1 POP SWAP2 SWAP1 POP JUMP JUMPDEST PUSH2 0x16B0 DUP3 PUSH2 0x1765 JUMP JUMPDEST DUP2 ADD DUP2 DUP2 LT PUSH8 0xFFFFFFFFFFFFFFFF DUP3 GT OR ISZERO PUSH2 0x16CF JUMPI PUSH2 0x16CE PUSH2 0x1736 JUMP JUMPDEST JUMPDEST DUP1 PUSH1 0x40 MSTORE POP POP POP JUMP JUMPDEST PUSH32 0x4E487B7100000000000000000000000000000000000000000000000000000000 PUSH1 0x0 MSTORE PUSH1 0x11 PUSH1 0x4 MSTORE PUSH1 0x24 PUSH1 0x0 REVERT JUMPDEST PUSH32 0x4E487B7100000000000000000000000000000000000000000000000000000000 PUSH1 0x0 MSTORE PUSH1 0x12 PUSH1 0x4 MSTORE PUSH1 0x24 PUSH1 0x0 REVERT JUMPDEST PUSH32 0x4E487B7100000000000000000000000000000000000000000000000000000000 PUSH1 0x0 MSTORE PUSH1 0x41 PUSH1 0x4 MSTORE PUSH1 0x24 PUSH1 0x0 REVERT JUMPDEST PUSH1 0x0 PUSH1 0x1F NOT PUSH1 0x1F DUP4 ADD AND SWAP1 POP SWAP2 SWAP1 POP JUMP JUMPDEST PUSH32 0x43616E6E6F74206D696E7420746F207472656173757279206164647265737320 PUSH1 0x0 DUP3 ADD MSTORE PUSH32 0x756E74696C2073616C652069732066696E697368656400000000000000000000 PUSH1 0x20 DUP3 ADD MSTORE POP JUMP JUMPDEST PUSH32 0x4F776E61626C653A206E6577206F776E657220697320746865207A65726F2061 PUSH1 0x0 DUP3 ADD MSTORE PUSH32 0x6464726573730000000000000000000000000000000000000000000000000000 PUSH1 0x20 DUP3 ADD MSTORE POP JUMP JUMPDEST PUSH32 0x737461727454696D65206973206C61746572207468616E20656E6454696D6500 PUSH1 0x0 DUP3 ADD MSTORE POP JUMP JUMPDEST PUSH32 0x4F776E61626C653A2063616C6C6572206973206E6F7420746865206F776E6572 PUSH1 0x0 DUP3 ADD MSTORE POP JUMP JUMPDEST PUSH2 0x186F DUP2 PUSH2 0x15AB JUMP JUMPDEST DUP2 EQ PUSH2 0x187A JUMPI PUSH1 0x0 DUP1 REVERT JUMPDEST POP JUMP JUMPDEST PUSH2 0x1886 DUP2 PUSH2 0x15E9 JUMP JUMPDEST DUP2 EQ PUSH2 0x1891 JUMPI PUSH1 0x0 DUP1 REVERT JUMPDEST POP JUMP INVALID LOG2 PUSH5 0x6970667358 0x22 SLT KECCAK256 0x2B SWAP13 0xBA CODECOPY SELFBALANCE 0x2D MSTORE8 ADDMOD 0xB0 0xD6 PUSH6 0xB4D2664AC001 0xC0 SELFBALANCE 0xE5 MSTORE8 PUSH14 0x6D523E1D4B04BA06A91B64736F6C PUSH4 0x43000801 STOP CALLER "
				},
				"gasEstimates": {
					"creation": {
						"codeDepositCost": "1269200",
						"executionCost": "infinite",
						"totalCost": "infinite"
					},
					"external": {
						"ERC1155storageContract()": "1324",
						"buyNFT()": "infinite",
						"calculateCustomPrice(address)": "infinite",
						"getMaxSupply()": "infinite",
						"getNextUnusedToken()": "infinite",
						"lastUpdate()": "infinite",
						"mintToTreasuryAddress()": "infinite",
						"owner()": "1311",
						"preLoadURIs(uint256[],string[])": "infinite",
						"privildgedBuyerList()": "1238",
						"renounceOwnership()": "24397",
						"setStorageContractAddress(address)": "22330",
						"setendTime(uint256)": "21427",
						"setstartTime(uint256)": "21405",
						"transferOwnership(address)": "24833",
						"treasuryAddress()": "1280",
						"usdcEscrowStorageContract()": "1301"
					},
					"internal": {
						"mintNextNftToAddress(address)": "infinite",
						"updateState()": "infinite"
					}
				},
				"methodIdentifiers": {
					"ERC1155storageContract()": "8c83faeb",
					"buyNFT()": "bff29cee",
					"calculateCustomPrice(address)": "7a6a23fd",
					"getMaxSupply()": "4c0f38c2",
					"getNextUnusedToken()": "68fc01a2",
					"lastUpdate()": "c0463711",
					"mintToTreasuryAddress()": "91232f18",
					"owner()": "8da5cb5b",
					"preLoadURIs(uint256[],string[])": "f121da92",
					"privildgedBuyerList()": "4aca10a6",
					"renounceOwnership()": "715018a6",
					"setStorageContractAddress(address)": "51f7598c",
					"setendTime(uint256)": "b79d283f",
					"setstartTime(uint256)": "944044a1",
					"transferOwnership(address)": "f2fde38b",
					"treasuryAddress()": "c5f956af",
					"usdcEscrowStorageContract()": "c5dae48f"
				}
			},
			"storageLayout": {
				"storage": [
					{
						"astId": 7,
						"contract": "contracts/Founding Citizens NFT Sale.sol:FoundingNFTSale",
						"label": "_owner",
						"offset": 0,
						"slot": "0",
						"type": "t_address"
					},
					{
						"astId": 840,
						"contract": "contracts/Founding Citizens NFT Sale.sol:FoundingNFTSale",
						"label": "ERC1155storageContract",
						"offset": 0,
						"slot": "1",
						"type": "t_contract(IMintStorage)804"
					},
					{
						"astId": 842,
						"contract": "contracts/Founding Citizens NFT Sale.sol:FoundingNFTSale",
						"label": "privildgedBuyerList",
						"offset": 0,
						"slot": "2",
						"type": "t_address"
					},
					{
						"astId": 845,
						"contract": "contracts/Founding Citizens NFT Sale.sol:FoundingNFTSale",
						"label": "usdcEscrowStorageContract",
						"offset": 0,
						"slot": "3",
						"type": "t_contract(IUsdcStorage)835"
					},
					{
						"astId": 847,
						"contract": "contracts/Founding Citizens NFT Sale.sol:FoundingNFTSale",
						"label": "treasuryAddress",
						"offset": 0,
						"slot": "4",
						"type": "t_address"
					},
					{
						"astId": 850,
						"contract": "contracts/Founding Citizens NFT Sale.sol:FoundingNFTSale",
						"label": "startTime",
						"offset": 0,
						"slot": "5",
						"type": "t_uint256"
					},
					{
						"astId": 853,
						"contract": "contracts/Founding Citizens NFT Sale.sol:FoundingNFTSale",
						"label": "endTime",
						"offset": 0,
						"slot": "6",
						"type": "t_uint256"
					},
					{
						"astId": 856,
						"contract": "contracts/Founding Citizens NFT Sale.sol:FoundingNFTSale",
						"label": "startPrice",
						"offset": 0,
						"slot": "7",
						"type": "t_uint256"
					},
					{
						"astId": 859,
						"contract": "contracts/Founding Citizens NFT Sale.sol:FoundingNFTSale",
						"label": "EndPrice",
						"offset": 0,
						"slot": "8",
						"type": "t_uint256"
					},
					{
						"astId": 878,
						"contract": "contracts/Founding Citizens NFT Sale.sol:FoundingNFTSale",
						"label": "lastUpdate",
						"offset": 0,
						"slot": "9",
						"type": "t_struct(Update)869_storage"
					}
				],
				"types": {
					"t_address": {
						"encoding": "inplace",
						"label": "address",
						"numberOfBytes": "20"
					},
					"t_bool": {
						"encoding": "inplace",
						"label": "bool",
						"numberOfBytes": "1"
					},
					"t_contract(IMintStorage)804": {
						"encoding": "inplace",
						"label": "contract IMintStorage",
						"numberOfBytes": "20"
					},
					"t_contract(IUsdcStorage)835": {
						"encoding": "inplace",
						"label": "contract IUsdcStorage",
						"numberOfBytes": "20"
					},
					"t_struct(Update)869_storage": {
						"encoding": "inplace",
						"label": "struct FoundingNFTSale.Update",
						"members": [
							{
								"astId": 864,
								"contract": "contracts/Founding Citizens NFT Sale.sol:FoundingNFTSale",
								"label": "price",
								"offset": 0,
								"slot": "0",
								"type": "t_uint256"
							},
							{
								"astId": 866,
								"contract": "contracts/Founding Citizens NFT Sale.sol:FoundingNFTSale",
								"label": "time",
								"offset": 0,
								"slot": "1",
								"type": "t_uint256"
							},
							{
								"astId": 868,
								"contract": "contracts/Founding Citizens NFT Sale.sol:FoundingNFTSale",
								"label": "saleIsLive",
								"offset": 0,
								"slot": "2",
								"type": "t_bool"
							}
						],
						"numberOfBytes": "96"
					},
					"t_uint256": {
						"encoding": "inplace",
						"label": "uint256",
						"numberOfBytes": "32"
					}
				}
			},
			"userdoc": {
				"kind": "user",
				"methods": {},
				"version": 1
			}
		}
	}
}