{
	"contracts/USDC Escrow Storage.sol": {
		"UsdcEscrowStorage": {
			"abi": [
				{
					"anonymous": false,
					"inputs": [
						{
							"indexed": true,
							"internalType": "bytes32",
							"name": "role",
							"type": "bytes32"
						},
						{
							"indexed": true,
							"internalType": "bytes32",
							"name": "previousAdminRole",
							"type": "bytes32"
						},
						{
							"indexed": true,
							"internalType": "bytes32",
							"name": "newAdminRole",
							"type": "bytes32"
						}
					],
					"name": "RoleAdminChanged",
					"type": "event"
				},
				{
					"anonymous": false,
					"inputs": [
						{
							"indexed": true,
							"internalType": "bytes32",
							"name": "role",
							"type": "bytes32"
						},
						{
							"indexed": true,
							"internalType": "address",
							"name": "account",
							"type": "address"
						},
						{
							"indexed": true,
							"internalType": "address",
							"name": "sender",
							"type": "address"
						}
					],
					"name": "RoleGranted",
					"type": "event"
				},
				{
					"anonymous": false,
					"inputs": [
						{
							"indexed": true,
							"internalType": "bytes32",
							"name": "role",
							"type": "bytes32"
						},
						{
							"indexed": true,
							"internalType": "address",
							"name": "account",
							"type": "address"
						},
						{
							"indexed": true,
							"internalType": "address",
							"name": "sender",
							"type": "address"
						}
					],
					"name": "RoleRevoked",
					"type": "event"
				},
				{
					"inputs": [],
					"name": "DEFAULT_ADMIN_ROLE",
					"outputs": [
						{
							"internalType": "bytes32",
							"name": "",
							"type": "bytes32"
						}
					],
					"stateMutability": "view",
					"type": "function"
				},
				{
					"inputs": [],
					"name": "USDC_MANAGER_ROLE",
					"outputs": [
						{
							"internalType": "bytes32",
							"name": "",
							"type": "bytes32"
						}
					],
					"stateMutability": "view",
					"type": "function"
				},
				{
					"inputs": [
						{
							"internalType": "address",
							"name": "address_",
							"type": "address"
						},
						{
							"internalType": "uint256",
							"name": "amount",
							"type": "uint256"
						}
					],
					"name": "decreaseUsdcBalance",
					"outputs": [],
					"stateMutability": "nonpayable",
					"type": "function"
				},
				{
					"inputs": [
						{
							"internalType": "bytes32",
							"name": "role",
							"type": "bytes32"
						}
					],
					"name": "getRoleAdmin",
					"outputs": [
						{
							"internalType": "bytes32",
							"name": "",
							"type": "bytes32"
						}
					],
					"stateMutability": "view",
					"type": "function"
				},
				{
					"inputs": [
						{
							"internalType": "address",
							"name": "address_",
							"type": "address"
						}
					],
					"name": "getUsdcBalance",
					"outputs": [
						{
							"internalType": "uint256",
							"name": "",
							"type": "uint256"
						}
					],
					"stateMutability": "view",
					"type": "function"
				},
				{
					"inputs": [
						{
							"internalType": "bytes32",
							"name": "role",
							"type": "bytes32"
						},
						{
							"internalType": "address",
							"name": "account",
							"type": "address"
						}
					],
					"name": "grantRole",
					"outputs": [],
					"stateMutability": "nonpayable",
					"type": "function"
				},
				{
					"inputs": [
						{
							"internalType": "bytes32",
							"name": "role",
							"type": "bytes32"
						},
						{
							"internalType": "address",
							"name": "account",
							"type": "address"
						}
					],
					"name": "hasRole",
					"outputs": [
						{
							"internalType": "bool",
							"name": "",
							"type": "bool"
						}
					],
					"stateMutability": "view",
					"type": "function"
				},
				{
					"inputs": [
						{
							"internalType": "address",
							"name": "address_",
							"type": "address"
						},
						{
							"internalType": "uint256",
							"name": "amount",
							"type": "uint256"
						}
					],
					"name": "increaseUsdcBalance",
					"outputs": [],
					"stateMutability": "nonpayable",
					"type": "function"
				},
				{
					"inputs": [
						{
							"internalType": "uint256",
							"name": "amount",
							"type": "uint256"
						}
					],
					"name": "receiveUSDC",
					"outputs": [],
					"stateMutability": "nonpayable",
					"type": "function"
				},
				{
					"inputs": [
						{
							"internalType": "address",
							"name": "to",
							"type": "address"
						},
						{
							"internalType": "uint256",
							"name": "amount",
							"type": "uint256"
						}
					],
					"name": "refundUsdcTo",
					"outputs": [],
					"stateMutability": "nonpayable",
					"type": "function"
				},
				{
					"inputs": [
						{
							"internalType": "bytes32",
							"name": "role",
							"type": "bytes32"
						},
						{
							"internalType": "address",
							"name": "account",
							"type": "address"
						}
					],
					"name": "renounceRole",
					"outputs": [],
					"stateMutability": "nonpayable",
					"type": "function"
				},
				{
					"inputs": [
						{
							"internalType": "bytes32",
							"name": "role",
							"type": "bytes32"
						},
						{
							"internalType": "address",
							"name": "account",
							"type": "address"
						}
					],
					"name": "revokeRole",
					"outputs": [],
					"stateMutability": "nonpayable",
					"type": "function"
				},
				{
					"inputs": [
						{
							"internalType": "bytes4",
							"name": "interfaceId",
							"type": "bytes4"
						}
					],
					"name": "supportsInterface",
					"outputs": [
						{
							"internalType": "bool",
							"name": "",
							"type": "bool"
						}
					],
					"stateMutability": "view",
					"type": "function"
				},
				{
					"inputs": [
						{
							"internalType": "address",
							"name": "from",
							"type": "address"
						},
						{
							"internalType": "address",
							"name": "to",
							"type": "address"
						},
						{
							"internalType": "uint256",
							"name": "amount",
							"type": "uint256"
						}
					],
					"name": "transferUsdcBalance",
					"outputs": [],
					"stateMutability": "nonpayable",
					"type": "function"
				},
				{
					"inputs": [
						{
							"internalType": "address",
							"name": "",
							"type": "address"
						}
					],
					"name": "usdcBalances",
					"outputs": [
						{
							"internalType": "uint256",
							"name": "",
							"type": "uint256"
						}
					],
					"stateMutability": "view",
					"type": "function"
				}
			],
			"devdoc": {
				"kind": "dev",
				"methods": {
					"getRoleAdmin(bytes32)": {
						"details": "Returns the admin role that controls `role`. See {grantRole} and {revokeRole}. To change a role's admin, use {_setRoleAdmin}."
					},
					"grantRole(bytes32,address)": {
						"details": "Grants `role` to `account`. If `account` had not been already granted `role`, emits a {RoleGranted} event. Requirements: - the caller must have ``role``'s admin role."
					},
					"hasRole(bytes32,address)": {
						"details": "Returns `true` if `account` has been granted `role`."
					},
					"renounceRole(bytes32,address)": {
						"details": "Revokes `role` from the calling account. Roles are often managed via {grantRole} and {revokeRole}: this function's purpose is to provide a mechanism for accounts to lose their privileges if they are compromised (such as when a trusted device is misplaced). If the calling account had been revoked `role`, emits a {RoleRevoked} event. Requirements: - the caller must be `account`."
					},
					"revokeRole(bytes32,address)": {
						"details": "Revokes `role` from `account`. If `account` had been granted `role`, emits a {RoleRevoked} event. Requirements: - the caller must have ``role``'s admin role."
					},
					"supportsInterface(bytes4)": {
						"details": "See {IERC165-supportsInterface}."
					}
				},
				"version": 1
			},
			"evm": {
				"assembly": "    /* \"contracts/USDC Escrow Storage.sol\":1765:4294  contract UsdcEscrowStorage is AccessControl {\r... */\n  mstore(0x40, 0x80)\n    /* \"contracts/USDC Escrow Storage.sol\":1941:1983  0xe11A86849d99F524cAC3E7A0Ec1241828e332C62 */\n  0xe11a86849d99f524cac3e7a0ec1241828e332c62\n    /* \"contracts/USDC Escrow Storage.sol\":1991:2034  IERC20 usdcToken = IERC20(usdcTokenAddress) */\n  0x01\n  exp(0x0100, 0x00)\n  dup2\n  sload\n  dup2\n  0xffffffffffffffffffffffffffffffffffffffff\n  mul\n  not\n  and\n  swap1\n  dup4\n  0xffffffffffffffffffffffffffffffffffffffff\n  and\n  mul\n  or\n  swap1\n  sstore\n  pop\n    /* \"contracts/USDC Escrow Storage.sol\":1765:4294  contract UsdcEscrowStorage is AccessControl {\r... */\n  callvalue\n  dup1\n  iszero\n  tag_1\n  jumpi\n  0x00\n  dup1\n  revert\ntag_1:\n  pop\n  dataSize(sub_0)\n  dup1\n  dataOffset(sub_0)\n  0x00\n  codecopy\n  0x00\n  return\nstop\n\nsub_0: assembly {\n        /* \"contracts/USDC Escrow Storage.sol\":1765:4294  contract UsdcEscrowStorage is AccessControl {\r... */\n      mstore(0x40, 0x80)\n      callvalue\n      dup1\n      iszero\n      tag_1\n      jumpi\n      0x00\n      dup1\n      revert\n    tag_1:\n      pop\n      jumpi(tag_2, lt(calldatasize, 0x04))\n      shr(0xe0, calldataload(0x00))\n      dup1\n      0x532b2913\n      gt\n      tag_18\n      jumpi\n      dup1\n      0xa99c68c5\n      gt\n      tag_19\n      jumpi\n      dup1\n      0xa99c68c5\n      eq\n      tag_14\n      jumpi\n      dup1\n      0xbf006f0e\n      eq\n      tag_15\n      jumpi\n      dup1\n      0xd547741f\n      eq\n      tag_16\n      jumpi\n      dup1\n      0xddb4acd0\n      eq\n      tag_17\n      jumpi\n      jump(tag_2)\n    tag_19:\n      dup1\n      0x532b2913\n      eq\n      tag_10\n      jumpi\n      dup1\n      0x69b49adc\n      eq\n      tag_11\n      jumpi\n      dup1\n      0x91d14854\n      eq\n      tag_12\n      jumpi\n      dup1\n      0xa217fddf\n      eq\n      tag_13\n      jumpi\n      jump(tag_2)\n    tag_18:\n      dup1\n      0x2f2ff15d\n      gt\n      tag_20\n      jumpi\n      dup1\n      0x2f2ff15d\n      eq\n      tag_6\n      jumpi\n      dup1\n      0x36568abe\n      eq\n      tag_7\n      jumpi\n      dup1\n      0x441b1a44\n      eq\n      tag_8\n      jumpi\n      dup1\n      0x45ad5350\n      eq\n      tag_9\n      jumpi\n      jump(tag_2)\n    tag_20:\n      dup1\n      0x01ffc9a7\n      eq\n      tag_3\n      jumpi\n      dup1\n      0x075060cd\n      eq\n      tag_4\n      jumpi\n      dup1\n      0x248a9ca3\n      eq\n      tag_5\n      jumpi\n    tag_2:\n      0x00\n      dup1\n      revert\n        /* \"@openzeppelin/contracts@4.4.2/access/AccessControl.sol\":2605:2807  function supportsInterface(bytes4 interfaceId) public view virtual override returns (bool) {... */\n    tag_3:\n      tag_21\n      0x04\n      dup1\n      calldatasize\n      sub\n      dup2\n      add\n      swap1\n      tag_22\n      swap2\n      swap1\n      tag_23\n      jump\t// in\n    tag_22:\n      tag_24\n      jump\t// in\n    tag_21:\n      mload(0x40)\n      tag_25\n      swap2\n      swap1\n      tag_26\n      jump\t// in\n    tag_25:\n      mload(0x40)\n      dup1\n      swap2\n      sub\n      swap1\n      return\n        /* \"contracts/USDC Escrow Storage.sol\":1822:1896  bytes32 public constant USDC_MANAGER_ROLE = keccak256(\"USDC_MANAGER_ROLE\") */\n    tag_4:\n      tag_27\n      tag_28\n      jump\t// in\n    tag_27:\n      mload(0x40)\n      tag_29\n      swap2\n      swap1\n      tag_30\n      jump\t// in\n    tag_29:\n      mload(0x40)\n      dup1\n      swap2\n      sub\n      swap1\n      return\n        /* \"@openzeppelin/contracts@4.4.2/access/AccessControl.sol\":3977:4098  function getRoleAdmin(bytes32 role) public view override returns (bytes32) {... */\n    tag_5:\n      tag_31\n      0x04\n      dup1\n      calldatasize\n      sub\n      dup2\n      add\n      swap1\n      tag_32\n      swap2\n      swap1\n      tag_33\n      jump\t// in\n    tag_32:\n      tag_34\n      jump\t// in\n    tag_31:\n      mload(0x40)\n      tag_35\n      swap2\n      swap1\n      tag_30\n      jump\t// in\n    tag_35:\n      mload(0x40)\n      dup1\n      swap2\n      sub\n      swap1\n      return\n        /* \"@openzeppelin/contracts@4.4.2/access/AccessControl.sol\":4348:4493  function grantRole(bytes32 role, address account) public virtual override onlyRole(getRoleAdmin(role)) {... */\n    tag_6:\n      tag_36\n      0x04\n      dup1\n      calldatasize\n      sub\n      dup2\n      add\n      swap1\n      tag_37\n      swap2\n      swap1\n      tag_38\n      jump\t// in\n    tag_37:\n      tag_39\n      jump\t// in\n    tag_36:\n      stop\n        /* \"@openzeppelin/contracts@4.4.2/access/AccessControl.sol\":5365:5579  function renounceRole(bytes32 role, address account) public virtual override {... */\n    tag_7:\n      tag_40\n      0x04\n      dup1\n      calldatasize\n      sub\n      dup2\n      add\n      swap1\n      tag_41\n      swap2\n      swap1\n      tag_38\n      jump\t// in\n    tag_41:\n      tag_42\n      jump\t// in\n    tag_40:\n      stop\n        /* \"contracts/USDC Escrow Storage.sol\":2852:3216  function transferUsdcBalance(address from, address to, uint amount) public {\r... */\n    tag_8:\n      tag_43\n      0x04\n      dup1\n      calldatasize\n      sub\n      dup2\n      add\n      swap1\n      tag_44\n      swap2\n      swap1\n      tag_45\n      jump\t// in\n    tag_44:\n      tag_46\n      jump\t// in\n    tag_43:\n      stop\n        /* \"contracts/USDC Escrow Storage.sol\":2554:2718  function refundUsdcTo(address to, uint amount) public {\r... */\n    tag_9:\n      tag_47\n      0x04\n      dup1\n      calldatasize\n      sub\n      dup2\n      add\n      swap1\n      tag_48\n      swap2\n      swap1\n      tag_49\n      jump\t// in\n    tag_48:\n      tag_50\n      jump\t// in\n    tag_47:\n      stop\n        /* \"contracts/USDC Escrow Storage.sol\":3653:4289  function decreaseUsdcBalance(address address_, uint amount) public {\r... */\n    tag_10:\n      tag_51\n      0x04\n      dup1\n      calldatasize\n      sub\n      dup2\n      add\n      swap1\n      tag_52\n      swap2\n      swap1\n      tag_49\n      jump\t// in\n    tag_52:\n      tag_53\n      jump\t// in\n    tag_51:\n      stop\n        /* \"contracts/USDC Escrow Storage.sol\":2726:2844  function getUsdcBalance(address address_) external view returns(uint) {\r... */\n    tag_11:\n      tag_54\n      0x04\n      dup1\n      calldatasize\n      sub\n      dup2\n      add\n      swap1\n      tag_55\n      swap2\n      swap1\n      tag_56\n      jump\t// in\n    tag_55:\n      tag_57\n      jump\t// in\n    tag_54:\n      mload(0x40)\n      tag_58\n      swap2\n      swap1\n      tag_59\n      jump\t// in\n    tag_58:\n      mload(0x40)\n      dup1\n      swap2\n      sub\n      swap1\n      return\n        /* \"@openzeppelin/contracts@4.4.2/access/AccessControl.sol\":2894:3031  function hasRole(bytes32 role, address account) public view override returns (bool) {... */\n    tag_12:\n      tag_60\n      0x04\n      dup1\n      calldatasize\n      sub\n      dup2\n      add\n      swap1\n      tag_61\n      swap2\n      swap1\n      tag_38\n      jump\t// in\n    tag_61:\n      tag_62\n      jump\t// in\n    tag_60:\n      mload(0x40)\n      tag_63\n      swap2\n      swap1\n      tag_26\n      jump\t// in\n    tag_63:\n      mload(0x40)\n      dup1\n      swap2\n      sub\n      swap1\n      return\n        /* \"@openzeppelin/contracts@4.4.2/access/AccessControl.sol\":2012:2061  bytes32 public constant DEFAULT_ADMIN_ROLE = 0x00 */\n    tag_13:\n      tag_64\n      tag_65\n      jump\t// in\n    tag_64:\n      mload(0x40)\n      tag_66\n      swap2\n      swap1\n      tag_30\n      jump\t// in\n    tag_66:\n      mload(0x40)\n      dup1\n      swap2\n      sub\n      swap1\n      return\n        /* \"contracts/USDC Escrow Storage.sol\":2041:2086  mapping (address => uint) public usdcBalances */\n    tag_14:\n      tag_67\n      0x04\n      dup1\n      calldatasize\n      sub\n      dup2\n      add\n      swap1\n      tag_68\n      swap2\n      swap1\n      tag_56\n      jump\t// in\n    tag_68:\n      tag_69\n      jump\t// in\n    tag_67:\n      mload(0x40)\n      tag_70\n      swap2\n      swap1\n      tag_59\n      jump\t// in\n    tag_70:\n      mload(0x40)\n      dup1\n      swap2\n      sub\n      swap1\n      return\n        /* \"contracts/USDC Escrow Storage.sol\":3224:3645  function increaseUsdcBalance(address address_, uint amount) public {\r... */\n    tag_15:\n      tag_71\n      0x04\n      dup1\n      calldatasize\n      sub\n      dup2\n      add\n      swap1\n      tag_72\n      swap2\n      swap1\n      tag_49\n      jump\t// in\n    tag_72:\n      tag_73\n      jump\t// in\n    tag_71:\n      stop\n        /* \"@openzeppelin/contracts@4.4.2/access/AccessControl.sol\":4727:4874  function revokeRole(bytes32 role, address account) public virtual override onlyRole(getRoleAdmin(role)) {... */\n    tag_16:\n      tag_74\n      0x04\n      dup1\n      calldatasize\n      sub\n      dup2\n      add\n      swap1\n      tag_75\n      swap2\n      swap1\n      tag_38\n      jump\t// in\n    tag_75:\n      tag_76\n      jump\t// in\n    tag_74:\n      stop\n        /* \"contracts/USDC Escrow Storage.sol\":2166:2485  function receiveUSDC(uint amount) public {\r... */\n    tag_17:\n      tag_77\n      0x04\n      dup1\n      calldatasize\n      sub\n      dup2\n      add\n      swap1\n      tag_78\n      swap2\n      swap1\n      tag_79\n      jump\t// in\n    tag_78:\n      tag_80\n      jump\t// in\n    tag_77:\n      stop\n        /* \"@openzeppelin/contracts@4.4.2/access/AccessControl.sol\":2605:2807  function supportsInterface(bytes4 interfaceId) public view virtual override returns (bool) {... */\n    tag_24:\n        /* \"@openzeppelin/contracts@4.4.2/access/AccessControl.sol\":2690:2694  bool */\n      0x00\n        /* \"@openzeppelin/contracts@4.4.2/access/AccessControl.sol\":2728:2760  type(IAccessControl).interfaceId */\n      0x7965db0b00000000000000000000000000000000000000000000000000000000\n        /* \"@openzeppelin/contracts@4.4.2/access/AccessControl.sol\":2713:2760  interfaceId == type(IAccessControl).interfaceId */\n      not(0xffffffffffffffffffffffffffffffffffffffffffffffffffffffff)\n      and\n        /* \"@openzeppelin/contracts@4.4.2/access/AccessControl.sol\":2713:2724  interfaceId */\n      dup3\n        /* \"@openzeppelin/contracts@4.4.2/access/AccessControl.sol\":2713:2760  interfaceId == type(IAccessControl).interfaceId */\n      not(0xffffffffffffffffffffffffffffffffffffffffffffffffffffffff)\n      and\n      eq\n        /* \"@openzeppelin/contracts@4.4.2/access/AccessControl.sol\":2713:2800  interfaceId == type(IAccessControl).interfaceId || super.supportsInterface(interfaceId) */\n      dup1\n      tag_82\n      jumpi\n      pop\n        /* \"@openzeppelin/contracts@4.4.2/access/AccessControl.sol\":2764:2800  super.supportsInterface(interfaceId) */\n      tag_83\n        /* \"@openzeppelin/contracts@4.4.2/access/AccessControl.sol\":2788:2799  interfaceId */\n      dup3\n        /* \"@openzeppelin/contracts@4.4.2/access/AccessControl.sol\":2764:2787  super.supportsInterface */\n      tag_84\n        /* \"@openzeppelin/contracts@4.4.2/access/AccessControl.sol\":2764:2800  super.supportsInterface(interfaceId) */\n      jump\t// in\n    tag_83:\n        /* \"@openzeppelin/contracts@4.4.2/access/AccessControl.sol\":2713:2800  interfaceId == type(IAccessControl).interfaceId || super.supportsInterface(interfaceId) */\n    tag_82:\n        /* \"@openzeppelin/contracts@4.4.2/access/AccessControl.sol\":2706:2800  return interfaceId == type(IAccessControl).interfaceId || super.supportsInterface(interfaceId) */\n      swap1\n      pop\n        /* \"@openzeppelin/contracts@4.4.2/access/AccessControl.sol\":2605:2807  function supportsInterface(bytes4 interfaceId) public view virtual override returns (bool) {... */\n      swap2\n      swap1\n      pop\n      jump\t// out\n        /* \"contracts/USDC Escrow Storage.sol\":1822:1896  bytes32 public constant USDC_MANAGER_ROLE = keccak256(\"USDC_MANAGER_ROLE\") */\n    tag_28:\n        /* \"contracts/USDC Escrow Storage.sol\":1866:1896  keccak256(\"USDC_MANAGER_ROLE\") */\n      0x926813fadcea033cdc5f70af011b14bd62c55b1c6ce86dec0632b00c4eb17562\n        /* \"contracts/USDC Escrow Storage.sol\":1822:1896  bytes32 public constant USDC_MANAGER_ROLE = keccak256(\"USDC_MANAGER_ROLE\") */\n      dup2\n      jump\t// out\n        /* \"@openzeppelin/contracts@4.4.2/access/AccessControl.sol\":3977:4098  function getRoleAdmin(bytes32 role) public view override returns (bytes32) {... */\n    tag_34:\n        /* \"@openzeppelin/contracts@4.4.2/access/AccessControl.sol\":4043:4050  bytes32 */\n      0x00\n        /* \"@openzeppelin/contracts@4.4.2/access/AccessControl.sol\":4069:4075  _roles */\n      dup1\n        /* \"@openzeppelin/contracts@4.4.2/access/AccessControl.sol\":4069:4081  _roles[role] */\n      0x00\n        /* \"@openzeppelin/contracts@4.4.2/access/AccessControl.sol\":4076:4080  role */\n      dup4\n        /* \"@openzeppelin/contracts@4.4.2/access/AccessControl.sol\":4069:4081  _roles[role] */\n      dup2\n      mstore\n      0x20\n      add\n      swap1\n      dup2\n      mstore\n      0x20\n      add\n      0x00\n      keccak256\n        /* \"@openzeppelin/contracts@4.4.2/access/AccessControl.sol\":4069:4091  _roles[role].adminRole */\n      0x01\n      add\n      sload\n        /* \"@openzeppelin/contracts@4.4.2/access/AccessControl.sol\":4062:4091  return _roles[role].adminRole */\n      swap1\n      pop\n        /* \"@openzeppelin/contracts@4.4.2/access/AccessControl.sol\":3977:4098  function getRoleAdmin(bytes32 role) public view override returns (bytes32) {... */\n      swap2\n      swap1\n      pop\n      jump\t// out\n        /* \"@openzeppelin/contracts@4.4.2/access/AccessControl.sol\":4348:4493  function grantRole(bytes32 role, address account) public virtual override onlyRole(getRoleAdmin(role)) {... */\n    tag_39:\n        /* \"@openzeppelin/contracts@4.4.2/access/AccessControl.sol\":4431:4449  getRoleAdmin(role) */\n      tag_86\n        /* \"@openzeppelin/contracts@4.4.2/access/AccessControl.sol\":4444:4448  role */\n      dup3\n        /* \"@openzeppelin/contracts@4.4.2/access/AccessControl.sol\":4431:4443  getRoleAdmin */\n      tag_34\n        /* \"@openzeppelin/contracts@4.4.2/access/AccessControl.sol\":4431:4449  getRoleAdmin(role) */\n      jump\t// in\n    tag_86:\n        /* \"@openzeppelin/contracts@4.4.2/access/AccessControl.sol\":2490:2520  _checkRole(role, _msgSender()) */\n      tag_88\n        /* \"@openzeppelin/contracts@4.4.2/access/AccessControl.sol\":2501:2505  role */\n      dup2\n        /* \"@openzeppelin/contracts@4.4.2/access/AccessControl.sol\":2507:2519  _msgSender() */\n      tag_89\n        /* \"@openzeppelin/contracts@4.4.2/access/AccessControl.sol\":2507:2517  _msgSender */\n      tag_90\n        /* \"@openzeppelin/contracts@4.4.2/access/AccessControl.sol\":2507:2519  _msgSender() */\n      jump\t// in\n    tag_89:\n        /* \"@openzeppelin/contracts@4.4.2/access/AccessControl.sol\":2490:2500  _checkRole */\n      tag_91\n        /* \"@openzeppelin/contracts@4.4.2/access/AccessControl.sol\":2490:2520  _checkRole(role, _msgSender()) */\n      jump\t// in\n    tag_88:\n        /* \"@openzeppelin/contracts@4.4.2/access/AccessControl.sol\":4461:4486  _grantRole(role, account) */\n      tag_93\n        /* \"@openzeppelin/contracts@4.4.2/access/AccessControl.sol\":4472:4476  role */\n      dup4\n        /* \"@openzeppelin/contracts@4.4.2/access/AccessControl.sol\":4478:4485  account */\n      dup4\n        /* \"@openzeppelin/contracts@4.4.2/access/AccessControl.sol\":4461:4471  _grantRole */\n      tag_94\n        /* \"@openzeppelin/contracts@4.4.2/access/AccessControl.sol\":4461:4486  _grantRole(role, account) */\n      jump\t// in\n    tag_93:\n        /* \"@openzeppelin/contracts@4.4.2/access/AccessControl.sol\":4348:4493  function grantRole(bytes32 role, address account) public virtual override onlyRole(getRoleAdmin(role)) {... */\n      pop\n      pop\n      pop\n      jump\t// out\n        /* \"@openzeppelin/contracts@4.4.2/access/AccessControl.sol\":5365:5579  function renounceRole(bytes32 role, address account) public virtual override {... */\n    tag_42:\n        /* \"@openzeppelin/contracts@4.4.2/access/AccessControl.sol\":5471:5483  _msgSender() */\n      tag_96\n        /* \"@openzeppelin/contracts@4.4.2/access/AccessControl.sol\":5471:5481  _msgSender */\n      tag_90\n        /* \"@openzeppelin/contracts@4.4.2/access/AccessControl.sol\":5471:5483  _msgSender() */\n      jump\t// in\n    tag_96:\n        /* \"@openzeppelin/contracts@4.4.2/access/AccessControl.sol\":5460:5483  account == _msgSender() */\n      0xffffffffffffffffffffffffffffffffffffffff\n      and\n        /* \"@openzeppelin/contracts@4.4.2/access/AccessControl.sol\":5460:5467  account */\n      dup2\n        /* \"@openzeppelin/contracts@4.4.2/access/AccessControl.sol\":5460:5483  account == _msgSender() */\n      0xffffffffffffffffffffffffffffffffffffffff\n      and\n      eq\n        /* \"@openzeppelin/contracts@4.4.2/access/AccessControl.sol\":5452:5535  require(account == _msgSender(), \"AccessControl: can only renounce roles for self\") */\n      tag_97\n      jumpi\n      mload(0x40)\n      0x08c379a000000000000000000000000000000000000000000000000000000000\n      dup2\n      mstore\n      0x04\n      add\n      tag_98\n      swap1\n      tag_99\n      jump\t// in\n    tag_98:\n      mload(0x40)\n      dup1\n      swap2\n      sub\n      swap1\n      revert\n    tag_97:\n        /* \"@openzeppelin/contracts@4.4.2/access/AccessControl.sol\":5546:5572  _revokeRole(role, account) */\n      tag_100\n        /* \"@openzeppelin/contracts@4.4.2/access/AccessControl.sol\":5558:5562  role */\n      dup3\n        /* \"@openzeppelin/contracts@4.4.2/access/AccessControl.sol\":5564:5571  account */\n      dup3\n        /* \"@openzeppelin/contracts@4.4.2/access/AccessControl.sol\":5546:5557  _revokeRole */\n      tag_101\n        /* \"@openzeppelin/contracts@4.4.2/access/AccessControl.sol\":5546:5572  _revokeRole(role, account) */\n      jump\t// in\n    tag_100:\n        /* \"@openzeppelin/contracts@4.4.2/access/AccessControl.sol\":5365:5579  function renounceRole(bytes32 role, address account) public virtual override {... */\n      pop\n      pop\n      jump\t// out\n        /* \"contracts/USDC Escrow Storage.sol\":2852:3216  function transferUsdcBalance(address from, address to, uint amount) public {\r... */\n    tag_46:\n        /* \"contracts/USDC Escrow Storage.sol\":2960:3000  hasRole(USDC_MANAGER_ROLE, _msgSender()) */\n      tag_103\n        /* \"contracts/USDC Escrow Storage.sol\":1866:1896  keccak256(\"USDC_MANAGER_ROLE\") */\n      0x926813fadcea033cdc5f70af011b14bd62c55b1c6ce86dec0632b00c4eb17562\n        /* \"contracts/USDC Escrow Storage.sol\":2987:2999  _msgSender() */\n      tag_104\n        /* \"contracts/USDC Escrow Storage.sol\":2987:2997  _msgSender */\n      tag_90\n        /* \"contracts/USDC Escrow Storage.sol\":2987:2999  _msgSender() */\n      jump\t// in\n    tag_104:\n        /* \"contracts/USDC Escrow Storage.sol\":2960:2967  hasRole */\n      tag_62\n        /* \"contracts/USDC Escrow Storage.sol\":2960:3000  hasRole(USDC_MANAGER_ROLE, _msgSender()) */\n      jump\t// in\n    tag_103:\n        /* \"contracts/USDC Escrow Storage.sol\":2960:3059  hasRole(USDC_MANAGER_ROLE, _msgSender()) || \r... */\n      dup1\n      tag_105\n      jumpi\n      pop\n        /* \"contracts/USDC Escrow Storage.sol\":3018:3059  hasRole(DEFAULT_ADMIN_ROLE, _msgSender()) */\n      tag_106\n        /* \"@openzeppelin/contracts@4.4.2/access/AccessControl.sol\":2057:2061  0x00 */\n      0x00\n        /* \"contracts/USDC Escrow Storage.sol\":3026:3044  DEFAULT_ADMIN_ROLE */\n      dup1\n      shl\n        /* \"contracts/USDC Escrow Storage.sol\":3046:3058  _msgSender() */\n      tag_107\n        /* \"contracts/USDC Escrow Storage.sol\":3046:3056  _msgSender */\n      tag_90\n        /* \"contracts/USDC Escrow Storage.sol\":3046:3058  _msgSender() */\n      jump\t// in\n    tag_107:\n        /* \"contracts/USDC Escrow Storage.sol\":3018:3025  hasRole */\n      tag_62\n        /* \"contracts/USDC Escrow Storage.sol\":3018:3059  hasRole(DEFAULT_ADMIN_ROLE, _msgSender()) */\n      jump\t// in\n    tag_106:\n        /* \"contracts/USDC Escrow Storage.sol\":2960:3059  hasRole(USDC_MANAGER_ROLE, _msgSender()) || \r... */\n    tag_105:\n        /* \"contracts/USDC Escrow Storage.sol\":2938:3122  require(\r... */\n      tag_108\n      jumpi\n      mload(0x40)\n      0x08c379a000000000000000000000000000000000000000000000000000000000\n      dup2\n      mstore\n      0x04\n      add\n      tag_109\n      swap1\n      tag_110\n      jump\t// in\n    tag_109:\n      mload(0x40)\n      dup1\n      swap2\n      sub\n      swap1\n      revert\n    tag_108:\n        /* \"contracts/USDC Escrow Storage.sol\":3133:3166  decreaseUsdcBalance(from, amount) */\n      tag_111\n        /* \"contracts/USDC Escrow Storage.sol\":3153:3157  from */\n      dup4\n        /* \"contracts/USDC Escrow Storage.sol\":3159:3165  amount */\n      dup3\n        /* \"contracts/USDC Escrow Storage.sol\":3133:3152  decreaseUsdcBalance */\n      tag_53\n        /* \"contracts/USDC Escrow Storage.sol\":3133:3166  decreaseUsdcBalance(from, amount) */\n      jump\t// in\n    tag_111:\n        /* \"contracts/USDC Escrow Storage.sol\":3177:3208  increaseUsdcBalance(to, amount) */\n      tag_112\n        /* \"contracts/USDC Escrow Storage.sol\":3197:3199  to */\n      dup3\n        /* \"contracts/USDC Escrow Storage.sol\":3201:3207  amount */\n      dup3\n        /* \"contracts/USDC Escrow Storage.sol\":3177:3196  increaseUsdcBalance */\n      tag_73\n        /* \"contracts/USDC Escrow Storage.sol\":3177:3208  increaseUsdcBalance(to, amount) */\n      jump\t// in\n    tag_112:\n        /* \"contracts/USDC Escrow Storage.sol\":2852:3216  function transferUsdcBalance(address from, address to, uint amount) public {\r... */\n      pop\n      pop\n      pop\n      jump\t// out\n        /* \"contracts/USDC Escrow Storage.sol\":2554:2718  function refundUsdcTo(address to, uint amount) public {\r... */\n    tag_50:\n        /* \"contracts/USDC Escrow Storage.sol\":2619:2650  decreaseUsdcBalance(to, amount) */\n      tag_114\n        /* \"contracts/USDC Escrow Storage.sol\":2639:2641  to */\n      dup3\n        /* \"contracts/USDC Escrow Storage.sol\":2643:2649  amount */\n      dup3\n        /* \"contracts/USDC Escrow Storage.sol\":2619:2638  decreaseUsdcBalance */\n      tag_53\n        /* \"contracts/USDC Escrow Storage.sol\":2619:2650  decreaseUsdcBalance(to, amount) */\n      jump\t// in\n    tag_114:\n        /* \"contracts/USDC Escrow Storage.sol\":2661:2670  usdcToken */\n      0x01\n      0x00\n      swap1\n      sload\n      swap1\n      0x0100\n      exp\n      swap1\n      div\n      0xffffffffffffffffffffffffffffffffffffffff\n      and\n        /* \"contracts/USDC Escrow Storage.sol\":2661:2683  usdcToken.transferFrom */\n      0xffffffffffffffffffffffffffffffffffffffff\n      and\n      0x23b872dd\n        /* \"contracts/USDC Escrow Storage.sol\":2692:2696  this */\n      address\n        /* \"contracts/USDC Escrow Storage.sol\":2699:2701  to */\n      dup5\n        /* \"contracts/USDC Escrow Storage.sol\":2703:2709  amount */\n      dup5\n        /* \"contracts/USDC Escrow Storage.sol\":2661:2710  usdcToken.transferFrom(address(this), to, amount) */\n      mload(0x40)\n      dup5\n      0xffffffff\n      and\n      0xe0\n      shl\n      dup2\n      mstore\n      0x04\n      add\n      tag_115\n      swap4\n      swap3\n      swap2\n      swap1\n      tag_116\n      jump\t// in\n    tag_115:\n      0x20\n      mload(0x40)\n      dup1\n      dup4\n      sub\n      dup2\n      0x00\n      dup8\n      dup1\n      extcodesize\n      iszero\n      dup1\n      iszero\n      tag_117\n      jumpi\n      0x00\n      dup1\n      revert\n    tag_117:\n      pop\n      gas\n      call\n      iszero\n      dup1\n      iszero\n      tag_119\n      jumpi\n      returndatasize\n      0x00\n      dup1\n      returndatacopy\n      revert(0x00, returndatasize)\n    tag_119:\n      pop\n      pop\n      pop\n      pop\n      mload(0x40)\n      returndatasize\n      not(0x1f)\n      0x1f\n      dup3\n      add\n      and\n      dup3\n      add\n      dup1\n      0x40\n      mstore\n      pop\n      dup2\n      add\n      swap1\n      tag_120\n      swap2\n      swap1\n      tag_121\n      jump\t// in\n    tag_120:\n      pop\n        /* \"contracts/USDC Escrow Storage.sol\":2554:2718  function refundUsdcTo(address to, uint amount) public {\r... */\n      pop\n      pop\n      jump\t// out\n        /* \"contracts/USDC Escrow Storage.sol\":3653:4289  function decreaseUsdcBalance(address address_, uint amount) public {\r... */\n    tag_53:\n        /* \"contracts/USDC Escrow Storage.sol\":3753:3793  hasRole(USDC_MANAGER_ROLE, _msgSender()) */\n      tag_123\n        /* \"contracts/USDC Escrow Storage.sol\":1866:1896  keccak256(\"USDC_MANAGER_ROLE\") */\n      0x926813fadcea033cdc5f70af011b14bd62c55b1c6ce86dec0632b00c4eb17562\n        /* \"contracts/USDC Escrow Storage.sol\":3780:3792  _msgSender() */\n      tag_124\n        /* \"contracts/USDC Escrow Storage.sol\":3780:3790  _msgSender */\n      tag_90\n        /* \"contracts/USDC Escrow Storage.sol\":3780:3792  _msgSender() */\n      jump\t// in\n    tag_124:\n        /* \"contracts/USDC Escrow Storage.sol\":3753:3760  hasRole */\n      tag_62\n        /* \"contracts/USDC Escrow Storage.sol\":3753:3793  hasRole(USDC_MANAGER_ROLE, _msgSender()) */\n      jump\t// in\n    tag_123:\n        /* \"contracts/USDC Escrow Storage.sol\":3753:3852  hasRole(USDC_MANAGER_ROLE, _msgSender()) || \r... */\n      dup1\n      tag_125\n      jumpi\n      pop\n        /* \"contracts/USDC Escrow Storage.sol\":3811:3852  hasRole(DEFAULT_ADMIN_ROLE, _msgSender()) */\n      tag_126\n        /* \"@openzeppelin/contracts@4.4.2/access/AccessControl.sol\":2057:2061  0x00 */\n      0x00\n        /* \"contracts/USDC Escrow Storage.sol\":3819:3837  DEFAULT_ADMIN_ROLE */\n      dup1\n      shl\n        /* \"contracts/USDC Escrow Storage.sol\":3839:3851  _msgSender() */\n      tag_127\n        /* \"contracts/USDC Escrow Storage.sol\":3839:3849  _msgSender */\n      tag_90\n        /* \"contracts/USDC Escrow Storage.sol\":3839:3851  _msgSender() */\n      jump\t// in\n    tag_127:\n        /* \"contracts/USDC Escrow Storage.sol\":3811:3818  hasRole */\n      tag_62\n        /* \"contracts/USDC Escrow Storage.sol\":3811:3852  hasRole(DEFAULT_ADMIN_ROLE, _msgSender()) */\n      jump\t// in\n    tag_126:\n        /* \"contracts/USDC Escrow Storage.sol\":3753:3852  hasRole(USDC_MANAGER_ROLE, _msgSender()) || \r... */\n    tag_125:\n        /* \"contracts/USDC Escrow Storage.sol\":3731:3915  require(\r... */\n      tag_128\n      jumpi\n      mload(0x40)\n      0x08c379a000000000000000000000000000000000000000000000000000000000\n      dup2\n      mstore\n      0x04\n      add\n      tag_129\n      swap1\n      tag_110\n      jump\t// in\n    tag_129:\n      mload(0x40)\n      dup1\n      swap2\n      sub\n      swap1\n      revert\n    tag_128:\n        /* \"contracts/USDC Escrow Storage.sol\":3943:3944  0 */\n      0x00\n        /* \"contracts/USDC Escrow Storage.sol\":3934:3940  amount */\n      dup2\n        /* \"contracts/USDC Escrow Storage.sol\":3934:3944  amount > 0 */\n      gt\n        /* \"contracts/USDC Escrow Storage.sol\":3926:4023  require(amount > 0, \"must update the USDC balance with a (positive or negative) non-zero amount\") */\n      tag_130\n      jumpi\n      mload(0x40)\n      0x08c379a000000000000000000000000000000000000000000000000000000000\n      dup2\n      mstore\n      0x04\n      add\n      tag_131\n      swap1\n      tag_132\n      jump\t// in\n    tag_131:\n      mload(0x40)\n      dup1\n      swap2\n      sub\n      swap1\n      revert\n    tag_130:\n        /* \"contracts/USDC Escrow Storage.sol\":4052:4064  usdcBalances */\n      0x02\n        /* \"contracts/USDC Escrow Storage.sol\":4052:4074  usdcBalances[address_] */\n      0x00\n        /* \"contracts/USDC Escrow Storage.sol\":4065:4073  address_ */\n      dup4\n        /* \"contracts/USDC Escrow Storage.sol\":4052:4074  usdcBalances[address_] */\n      0xffffffffffffffffffffffffffffffffffffffff\n      and\n      0xffffffffffffffffffffffffffffffffffffffff\n      and\n      dup2\n      mstore\n      0x20\n      add\n      swap1\n      dup2\n      mstore\n      0x20\n      add\n      0x00\n      keccak256\n      sload\n        /* \"contracts/USDC Escrow Storage.sol\":4042:4048  amount */\n      dup2\n        /* \"contracts/USDC Escrow Storage.sol\":4042:4074  amount <= usdcBalances[address_] */\n      gt\n      iszero\n        /* \"contracts/USDC Escrow Storage.sol\":4150:4158  address_ */\n      dup3\n        /* \"contracts/USDC Escrow Storage.sol\":4213:4225  usdcBalances */\n      0x02\n        /* \"contracts/USDC Escrow Storage.sol\":4213:4235  usdcBalances[address_] */\n      0x00\n        /* \"contracts/USDC Escrow Storage.sol\":4226:4234  address_ */\n      dup6\n        /* \"contracts/USDC Escrow Storage.sol\":4213:4235  usdcBalances[address_] */\n      0xffffffffffffffffffffffffffffffffffffffff\n      and\n      0xffffffffffffffffffffffffffffffffffffffff\n      and\n      dup2\n      mstore\n      0x20\n      add\n      swap1\n      dup2\n      mstore\n      0x20\n      add\n      0x00\n      keccak256\n      sload\n        /* \"contracts/USDC Escrow Storage.sol\":4083:4236  abi.encodePacked(\r... */\n      add(0x20, mload(0x40))\n      tag_133\n      swap3\n      swap2\n      swap1\n      tag_134\n      jump\t// in\n    tag_133:\n      mload(0x40)\n      0x20\n      dup2\n      dup4\n      sub\n      sub\n      dup2\n      mstore\n      swap1\n      0x40\n      mstore\n        /* \"contracts/USDC Escrow Storage.sol\":4034:4238  require(amount <= usdcBalances[address_], string(abi.encodePacked(\r... */\n      swap1\n      tag_135\n      jumpi\n      mload(0x40)\n      0x08c379a000000000000000000000000000000000000000000000000000000000\n      dup2\n      mstore\n      0x04\n      add\n      tag_136\n      swap2\n      swap1\n      tag_137\n      jump\t// in\n    tag_136:\n      mload(0x40)\n      dup1\n      swap2\n      sub\n      swap1\n      revert\n    tag_135:\n      pop\n        /* \"contracts/USDC Escrow Storage.sol\":4275:4281  amount */\n      dup1\n        /* \"contracts/USDC Escrow Storage.sol\":4249:4261  usdcBalances */\n      0x02\n        /* \"contracts/USDC Escrow Storage.sol\":4249:4271  usdcBalances[address_] */\n      0x00\n        /* \"contracts/USDC Escrow Storage.sol\":4262:4270  address_ */\n      dup5\n        /* \"contracts/USDC Escrow Storage.sol\":4249:4271  usdcBalances[address_] */\n      0xffffffffffffffffffffffffffffffffffffffff\n      and\n      0xffffffffffffffffffffffffffffffffffffffff\n      and\n      dup2\n      mstore\n      0x20\n      add\n      swap1\n      dup2\n      mstore\n      0x20\n      add\n      0x00\n      keccak256\n      0x00\n        /* \"contracts/USDC Escrow Storage.sol\":4249:4281  usdcBalances[address_] -= amount */\n      dup3\n      dup3\n      sload\n      tag_138\n      swap2\n      swap1\n      tag_139\n      jump\t// in\n    tag_138:\n      swap3\n      pop\n      pop\n      dup2\n      swap1\n      sstore\n      pop\n        /* \"contracts/USDC Escrow Storage.sol\":3653:4289  function decreaseUsdcBalance(address address_, uint amount) public {\r... */\n      pop\n      pop\n      jump\t// out\n        /* \"contracts/USDC Escrow Storage.sol\":2726:2844  function getUsdcBalance(address address_) external view returns(uint) {\r... */\n    tag_57:\n        /* \"contracts/USDC Escrow Storage.sol\":2790:2794  uint */\n      0x00\n        /* \"contracts/USDC Escrow Storage.sol\":2814:2826  usdcBalances */\n      0x02\n        /* \"contracts/USDC Escrow Storage.sol\":2814:2836  usdcBalances[address_] */\n      0x00\n        /* \"contracts/USDC Escrow Storage.sol\":2827:2835  address_ */\n      dup4\n        /* \"contracts/USDC Escrow Storage.sol\":2814:2836  usdcBalances[address_] */\n      0xffffffffffffffffffffffffffffffffffffffff\n      and\n      0xffffffffffffffffffffffffffffffffffffffff\n      and\n      dup2\n      mstore\n      0x20\n      add\n      swap1\n      dup2\n      mstore\n      0x20\n      add\n      0x00\n      keccak256\n      sload\n        /* \"contracts/USDC Escrow Storage.sol\":2807:2836  return usdcBalances[address_] */\n      swap1\n      pop\n        /* \"contracts/USDC Escrow Storage.sol\":2726:2844  function getUsdcBalance(address address_) external view returns(uint) {\r... */\n      swap2\n      swap1\n      pop\n      jump\t// out\n        /* \"@openzeppelin/contracts@4.4.2/access/AccessControl.sol\":2894:3031  function hasRole(bytes32 role, address account) public view override returns (bool) {... */\n    tag_62:\n        /* \"@openzeppelin/contracts@4.4.2/access/AccessControl.sol\":2972:2976  bool */\n      0x00\n        /* \"@openzeppelin/contracts@4.4.2/access/AccessControl.sol\":2995:3001  _roles */\n      dup1\n        /* \"@openzeppelin/contracts@4.4.2/access/AccessControl.sol\":2995:3007  _roles[role] */\n      0x00\n        /* \"@openzeppelin/contracts@4.4.2/access/AccessControl.sol\":3002:3006  role */\n      dup5\n        /* \"@openzeppelin/contracts@4.4.2/access/AccessControl.sol\":2995:3007  _roles[role] */\n      dup2\n      mstore\n      0x20\n      add\n      swap1\n      dup2\n      mstore\n      0x20\n      add\n      0x00\n      keccak256\n        /* \"@openzeppelin/contracts@4.4.2/access/AccessControl.sol\":2995:3015  _roles[role].members */\n      0x00\n      add\n        /* \"@openzeppelin/contracts@4.4.2/access/AccessControl.sol\":2995:3024  _roles[role].members[account] */\n      0x00\n        /* \"@openzeppelin/contracts@4.4.2/access/AccessControl.sol\":3016:3023  account */\n      dup4\n        /* \"@openzeppelin/contracts@4.4.2/access/AccessControl.sol\":2995:3024  _roles[role].members[account] */\n      0xffffffffffffffffffffffffffffffffffffffff\n      and\n      0xffffffffffffffffffffffffffffffffffffffff\n      and\n      dup2\n      mstore\n      0x20\n      add\n      swap1\n      dup2\n      mstore\n      0x20\n      add\n      0x00\n      keccak256\n      0x00\n      swap1\n      sload\n      swap1\n      0x0100\n      exp\n      swap1\n      div\n      0xff\n      and\n        /* \"@openzeppelin/contracts@4.4.2/access/AccessControl.sol\":2988:3024  return _roles[role].members[account] */\n      swap1\n      pop\n        /* \"@openzeppelin/contracts@4.4.2/access/AccessControl.sol\":2894:3031  function hasRole(bytes32 role, address account) public view override returns (bool) {... */\n      swap3\n      swap2\n      pop\n      pop\n      jump\t// out\n        /* \"@openzeppelin/contracts@4.4.2/access/AccessControl.sol\":2012:2061  bytes32 public constant DEFAULT_ADMIN_ROLE = 0x00 */\n    tag_65:\n        /* \"@openzeppelin/contracts@4.4.2/access/AccessControl.sol\":2057:2061  0x00 */\n      0x00\n        /* \"@openzeppelin/contracts@4.4.2/access/AccessControl.sol\":2012:2061  bytes32 public constant DEFAULT_ADMIN_ROLE = 0x00 */\n      dup1\n      shl\n      dup2\n      jump\t// out\n        /* \"contracts/USDC Escrow Storage.sol\":2041:2086  mapping (address => uint) public usdcBalances */\n    tag_69:\n      mstore(0x20, 0x02)\n      dup1\n      0x00\n      mstore\n      keccak256(0x00, 0x40)\n      0x00\n      swap2\n      pop\n      swap1\n      pop\n      sload\n      dup2\n      jump\t// out\n        /* \"contracts/USDC Escrow Storage.sol\":3224:3645  function increaseUsdcBalance(address address_, uint amount) public {\r... */\n    tag_73:\n        /* \"contracts/USDC Escrow Storage.sol\":3324:3364  hasRole(USDC_MANAGER_ROLE, _msgSender()) */\n      tag_143\n        /* \"contracts/USDC Escrow Storage.sol\":1866:1896  keccak256(\"USDC_MANAGER_ROLE\") */\n      0x926813fadcea033cdc5f70af011b14bd62c55b1c6ce86dec0632b00c4eb17562\n        /* \"contracts/USDC Escrow Storage.sol\":3351:3363  _msgSender() */\n      tag_144\n        /* \"contracts/USDC Escrow Storage.sol\":3351:3361  _msgSender */\n      tag_90\n        /* \"contracts/USDC Escrow Storage.sol\":3351:3363  _msgSender() */\n      jump\t// in\n    tag_144:\n        /* \"contracts/USDC Escrow Storage.sol\":3324:3331  hasRole */\n      tag_62\n        /* \"contracts/USDC Escrow Storage.sol\":3324:3364  hasRole(USDC_MANAGER_ROLE, _msgSender()) */\n      jump\t// in\n    tag_143:\n        /* \"contracts/USDC Escrow Storage.sol\":3324:3423  hasRole(USDC_MANAGER_ROLE, _msgSender()) || \r... */\n      dup1\n      tag_145\n      jumpi\n      pop\n        /* \"contracts/USDC Escrow Storage.sol\":3382:3423  hasRole(DEFAULT_ADMIN_ROLE, _msgSender()) */\n      tag_146\n        /* \"@openzeppelin/contracts@4.4.2/access/AccessControl.sol\":2057:2061  0x00 */\n      0x00\n        /* \"contracts/USDC Escrow Storage.sol\":3390:3408  DEFAULT_ADMIN_ROLE */\n      dup1\n      shl\n        /* \"contracts/USDC Escrow Storage.sol\":3410:3422  _msgSender() */\n      tag_147\n        /* \"contracts/USDC Escrow Storage.sol\":3410:3420  _msgSender */\n      tag_90\n        /* \"contracts/USDC Escrow Storage.sol\":3410:3422  _msgSender() */\n      jump\t// in\n    tag_147:\n        /* \"contracts/USDC Escrow Storage.sol\":3382:3389  hasRole */\n      tag_62\n        /* \"contracts/USDC Escrow Storage.sol\":3382:3423  hasRole(DEFAULT_ADMIN_ROLE, _msgSender()) */\n      jump\t// in\n    tag_146:\n        /* \"contracts/USDC Escrow Storage.sol\":3324:3423  hasRole(USDC_MANAGER_ROLE, _msgSender()) || \r... */\n    tag_145:\n        /* \"contracts/USDC Escrow Storage.sol\":3302:3486  require(\r... */\n      tag_148\n      jumpi\n      mload(0x40)\n      0x08c379a000000000000000000000000000000000000000000000000000000000\n      dup2\n      mstore\n      0x04\n      add\n      tag_149\n      swap1\n      tag_110\n      jump\t// in\n    tag_149:\n      mload(0x40)\n      dup1\n      swap2\n      sub\n      swap1\n      revert\n    tag_148:\n        /* \"contracts/USDC Escrow Storage.sol\":3514:3515  0 */\n      0x00\n        /* \"contracts/USDC Escrow Storage.sol\":3505:3511  amount */\n      dup2\n        /* \"contracts/USDC Escrow Storage.sol\":3505:3515  amount > 0 */\n      gt\n        /* \"contracts/USDC Escrow Storage.sol\":3497:3594  require(amount > 0, \"must update the USDC balance with a (positive or negative) non-zero amount\") */\n      tag_150\n      jumpi\n      mload(0x40)\n      0x08c379a000000000000000000000000000000000000000000000000000000000\n      dup2\n      mstore\n      0x04\n      add\n      tag_151\n      swap1\n      tag_132\n      jump\t// in\n    tag_151:\n      mload(0x40)\n      dup1\n      swap2\n      sub\n      swap1\n      revert\n    tag_150:\n        /* \"contracts/USDC Escrow Storage.sol\":3631:3637  amount */\n      dup1\n        /* \"contracts/USDC Escrow Storage.sol\":3605:3617  usdcBalances */\n      0x02\n        /* \"contracts/USDC Escrow Storage.sol\":3605:3627  usdcBalances[address_] */\n      0x00\n        /* \"contracts/USDC Escrow Storage.sol\":3618:3626  address_ */\n      dup5\n        /* \"contracts/USDC Escrow Storage.sol\":3605:3627  usdcBalances[address_] */\n      0xffffffffffffffffffffffffffffffffffffffff\n      and\n      0xffffffffffffffffffffffffffffffffffffffff\n      and\n      dup2\n      mstore\n      0x20\n      add\n      swap1\n      dup2\n      mstore\n      0x20\n      add\n      0x00\n      keccak256\n      0x00\n        /* \"contracts/USDC Escrow Storage.sol\":3605:3637  usdcBalances[address_] += amount */\n      dup3\n      dup3\n      sload\n      tag_152\n      swap2\n      swap1\n      tag_153\n      jump\t// in\n    tag_152:\n      swap3\n      pop\n      pop\n      dup2\n      swap1\n      sstore\n      pop\n        /* \"contracts/USDC Escrow Storage.sol\":3224:3645  function increaseUsdcBalance(address address_, uint amount) public {\r... */\n      pop\n      pop\n      jump\t// out\n        /* \"@openzeppelin/contracts@4.4.2/access/AccessControl.sol\":4727:4874  function revokeRole(bytes32 role, address account) public virtual override onlyRole(getRoleAdmin(role)) {... */\n    tag_76:\n        /* \"@openzeppelin/contracts@4.4.2/access/AccessControl.sol\":4811:4829  getRoleAdmin(role) */\n      tag_154\n        /* \"@openzeppelin/contracts@4.4.2/access/AccessControl.sol\":4824:4828  role */\n      dup3\n        /* \"@openzeppelin/contracts@4.4.2/access/AccessControl.sol\":4811:4823  getRoleAdmin */\n      tag_34\n        /* \"@openzeppelin/contracts@4.4.2/access/AccessControl.sol\":4811:4829  getRoleAdmin(role) */\n      jump\t// in\n    tag_154:\n        /* \"@openzeppelin/contracts@4.4.2/access/AccessControl.sol\":2490:2520  _checkRole(role, _msgSender()) */\n      tag_156\n        /* \"@openzeppelin/contracts@4.4.2/access/AccessControl.sol\":2501:2505  role */\n      dup2\n        /* \"@openzeppelin/contracts@4.4.2/access/AccessControl.sol\":2507:2519  _msgSender() */\n      tag_157\n        /* \"@openzeppelin/contracts@4.4.2/access/AccessControl.sol\":2507:2517  _msgSender */\n      tag_90\n        /* \"@openzeppelin/contracts@4.4.2/access/AccessControl.sol\":2507:2519  _msgSender() */\n      jump\t// in\n    tag_157:\n        /* \"@openzeppelin/contracts@4.4.2/access/AccessControl.sol\":2490:2500  _checkRole */\n      tag_91\n        /* \"@openzeppelin/contracts@4.4.2/access/AccessControl.sol\":2490:2520  _checkRole(role, _msgSender()) */\n      jump\t// in\n    tag_156:\n        /* \"@openzeppelin/contracts@4.4.2/access/AccessControl.sol\":4841:4867  _revokeRole(role, account) */\n      tag_159\n        /* \"@openzeppelin/contracts@4.4.2/access/AccessControl.sol\":4853:4857  role */\n      dup4\n        /* \"@openzeppelin/contracts@4.4.2/access/AccessControl.sol\":4859:4866  account */\n      dup4\n        /* \"@openzeppelin/contracts@4.4.2/access/AccessControl.sol\":4841:4852  _revokeRole */\n      tag_101\n        /* \"@openzeppelin/contracts@4.4.2/access/AccessControl.sol\":4841:4867  _revokeRole(role, account) */\n      jump\t// in\n    tag_159:\n        /* \"@openzeppelin/contracts@4.4.2/access/AccessControl.sol\":4727:4874  function revokeRole(bytes32 role, address account) public virtual override onlyRole(getRoleAdmin(role)) {... */\n      pop\n      pop\n      pop\n      jump\t// out\n        /* \"contracts/USDC Escrow Storage.sol\":2166:2485  function receiveUSDC(uint amount) public {\r... */\n    tag_80:\n        /* \"contracts/USDC Escrow Storage.sol\":2235:2236  0 */\n      0x00\n        /* \"contracts/USDC Escrow Storage.sol\":2226:2232  amount */\n      dup2\n        /* \"contracts/USDC Escrow Storage.sol\":2226:2236  amount > 0 */\n      gt\n        /* \"contracts/USDC Escrow Storage.sol\":2218:2284  require(amount > 0, \"amount transferred must be a positive value\") */\n      tag_161\n      jumpi\n      mload(0x40)\n      0x08c379a000000000000000000000000000000000000000000000000000000000\n      dup2\n      mstore\n      0x04\n      add\n      tag_162\n      swap1\n      tag_163\n      jump\t// in\n    tag_162:\n      mload(0x40)\n      dup1\n      swap2\n      sub\n      swap1\n      revert\n    tag_161:\n        /* \"contracts/USDC Escrow Storage.sol\":2375:2384  usdcToken */\n      0x01\n      0x00\n      swap1\n      sload\n      swap1\n      0x0100\n      exp\n      swap1\n      div\n      0xffffffffffffffffffffffffffffffffffffffff\n      and\n        /* \"contracts/USDC Escrow Storage.sol\":2375:2397  usdcToken.transferFrom */\n      0xffffffffffffffffffffffffffffffffffffffff\n      and\n      0x23b872dd\n        /* \"contracts/USDC Escrow Storage.sol\":2398:2408  msg.sender */\n      caller\n        /* \"contracts/USDC Escrow Storage.sol\":2418:2422  this */\n      address\n        /* \"contracts/USDC Escrow Storage.sol\":2425:2431  amount */\n      dup5\n        /* \"contracts/USDC Escrow Storage.sol\":2375:2432  usdcToken.transferFrom(msg.sender, address(this), amount) */\n      mload(0x40)\n      dup5\n      0xffffffff\n      and\n      0xe0\n      shl\n      dup2\n      mstore\n      0x04\n      add\n      tag_164\n      swap4\n      swap3\n      swap2\n      swap1\n      tag_116\n      jump\t// in\n    tag_164:\n      0x20\n      mload(0x40)\n      dup1\n      dup4\n      sub\n      dup2\n      0x00\n      dup8\n      dup1\n      extcodesize\n      iszero\n      dup1\n      iszero\n      tag_165\n      jumpi\n      0x00\n      dup1\n      revert\n    tag_165:\n      pop\n      gas\n      call\n      iszero\n      dup1\n      iszero\n      tag_167\n      jumpi\n      returndatasize\n      0x00\n      dup1\n      returndatacopy\n      revert(0x00, returndatasize)\n    tag_167:\n      pop\n      pop\n      pop\n      pop\n      mload(0x40)\n      returndatasize\n      not(0x1f)\n      0x1f\n      dup3\n      add\n      and\n      dup3\n      add\n      dup1\n      0x40\n      mstore\n      pop\n      dup2\n      add\n      swap1\n      tag_168\n      swap2\n      swap1\n      tag_121\n      jump\t// in\n    tag_168:\n      pop\n        /* \"contracts/USDC Escrow Storage.sol\":2471:2477  amount */\n      dup1\n        /* \"contracts/USDC Escrow Storage.sol\":2443:2455  usdcBalances */\n      0x02\n        /* \"contracts/USDC Escrow Storage.sol\":2443:2467  usdcBalances[msg.sender] */\n      0x00\n        /* \"contracts/USDC Escrow Storage.sol\":2456:2466  msg.sender */\n      caller\n        /* \"contracts/USDC Escrow Storage.sol\":2443:2467  usdcBalances[msg.sender] */\n      0xffffffffffffffffffffffffffffffffffffffff\n      and\n      0xffffffffffffffffffffffffffffffffffffffff\n      and\n      dup2\n      mstore\n      0x20\n      add\n      swap1\n      dup2\n      mstore\n      0x20\n      add\n      0x00\n      keccak256\n      0x00\n        /* \"contracts/USDC Escrow Storage.sol\":2443:2477  usdcBalances[msg.sender] += amount */\n      dup3\n      dup3\n      sload\n      tag_169\n      swap2\n      swap1\n      tag_153\n      jump\t// in\n    tag_169:\n      swap3\n      pop\n      pop\n      dup2\n      swap1\n      sstore\n      pop\n        /* \"contracts/USDC Escrow Storage.sol\":2166:2485  function receiveUSDC(uint amount) public {\r... */\n      pop\n      jump\t// out\n        /* \"@openzeppelin/contracts@4.4.2/utils/introspection/ERC165.sol\":829:984  function supportsInterface(bytes4 interfaceId) public view virtual override returns (bool) {... */\n    tag_84:\n        /* \"@openzeppelin/contracts@4.4.2/utils/introspection/ERC165.sol\":914:918  bool */\n      0x00\n        /* \"@openzeppelin/contracts@4.4.2/utils/introspection/ERC165.sol\":952:977  type(IERC165).interfaceId */\n      0x01ffc9a700000000000000000000000000000000000000000000000000000000\n        /* \"@openzeppelin/contracts@4.4.2/utils/introspection/ERC165.sol\":937:977  interfaceId == type(IERC165).interfaceId */\n      not(0xffffffffffffffffffffffffffffffffffffffffffffffffffffffff)\n      and\n        /* \"@openzeppelin/contracts@4.4.2/utils/introspection/ERC165.sol\":937:948  interfaceId */\n      dup3\n        /* \"@openzeppelin/contracts@4.4.2/utils/introspection/ERC165.sol\":937:977  interfaceId == type(IERC165).interfaceId */\n      not(0xffffffffffffffffffffffffffffffffffffffffffffffffffffffff)\n      and\n      eq\n        /* \"@openzeppelin/contracts@4.4.2/utils/introspection/ERC165.sol\":930:977  return interfaceId == type(IERC165).interfaceId */\n      swap1\n      pop\n        /* \"@openzeppelin/contracts@4.4.2/utils/introspection/ERC165.sol\":829:984  function supportsInterface(bytes4 interfaceId) public view virtual override returns (bool) {... */\n      swap2\n      swap1\n      pop\n      jump\t// out\n        /* \"@openzeppelin/contracts@4.4.2/utils/Context.sol\":640:736  function _msgSender() internal view virtual returns (address) {... */\n    tag_90:\n        /* \"@openzeppelin/contracts@4.4.2/utils/Context.sol\":693:700  address */\n      0x00\n        /* \"@openzeppelin/contracts@4.4.2/utils/Context.sol\":719:729  msg.sender */\n      caller\n        /* \"@openzeppelin/contracts@4.4.2/utils/Context.sol\":712:729  return msg.sender */\n      swap1\n      pop\n        /* \"@openzeppelin/contracts@4.4.2/utils/Context.sol\":640:736  function _msgSender() internal view virtual returns (address) {... */\n      swap1\n      jump\t// out\n        /* \"@openzeppelin/contracts@4.4.2/access/AccessControl.sol\":3312:3796  function _checkRole(bytes32 role, address account) internal view {... */\n    tag_91:\n        /* \"@openzeppelin/contracts@4.4.2/access/AccessControl.sol\":3392:3414  hasRole(role, account) */\n      tag_173\n        /* \"@openzeppelin/contracts@4.4.2/access/AccessControl.sol\":3400:3404  role */\n      dup3\n        /* \"@openzeppelin/contracts@4.4.2/access/AccessControl.sol\":3406:3413  account */\n      dup3\n        /* \"@openzeppelin/contracts@4.4.2/access/AccessControl.sol\":3392:3399  hasRole */\n      tag_62\n        /* \"@openzeppelin/contracts@4.4.2/access/AccessControl.sol\":3392:3414  hasRole(role, account) */\n      jump\t// in\n    tag_173:\n        /* \"@openzeppelin/contracts@4.4.2/access/AccessControl.sol\":3387:3790  if (!hasRole(role, account)) {... */\n      tag_174\n      jumpi\n        /* \"@openzeppelin/contracts@4.4.2/access/AccessControl.sol\":3575:3616  Strings.toHexString(uint160(account), 20) */\n      tag_175\n        /* \"@openzeppelin/contracts@4.4.2/access/AccessControl.sol\":3603:3610  account */\n      dup2\n        /* \"@openzeppelin/contracts@4.4.2/access/AccessControl.sol\":3575:3616  Strings.toHexString(uint160(account), 20) */\n      0xffffffffffffffffffffffffffffffffffffffff\n      and\n        /* \"@openzeppelin/contracts@4.4.2/access/AccessControl.sol\":3613:3615  20 */\n      0x14\n        /* \"@openzeppelin/contracts@4.4.2/access/AccessControl.sol\":3575:3594  Strings.toHexString */\n      tag_176\n        /* \"@openzeppelin/contracts@4.4.2/access/AccessControl.sol\":3575:3616  Strings.toHexString(uint160(account), 20) */\n      jump\t// in\n    tag_175:\n        /* \"@openzeppelin/contracts@4.4.2/access/AccessControl.sol\":3687:3725  Strings.toHexString(uint256(role), 32) */\n      tag_177\n        /* \"@openzeppelin/contracts@4.4.2/access/AccessControl.sol\":3715:3719  role */\n      dup4\n        /* \"@openzeppelin/contracts@4.4.2/access/AccessControl.sol\":3707:3720  uint256(role) */\n      0x00\n      shr\n        /* \"@openzeppelin/contracts@4.4.2/access/AccessControl.sol\":3722:3724  32 */\n      0x20\n        /* \"@openzeppelin/contracts@4.4.2/access/AccessControl.sol\":3687:3706  Strings.toHexString */\n      tag_176\n        /* \"@openzeppelin/contracts@4.4.2/access/AccessControl.sol\":3687:3725  Strings.toHexString(uint256(role), 32) */\n      jump\t// in\n    tag_177:\n        /* \"@openzeppelin/contracts@4.4.2/access/AccessControl.sol\":3482:3747  abi.encodePacked(... */\n      add(0x20, mload(0x40))\n      tag_178\n      swap3\n      swap2\n      swap1\n      tag_179\n      jump\t// in\n    tag_178:\n      mload(0x40)\n      0x20\n      dup2\n      dup4\n      sub\n      sub\n      dup2\n      mstore\n      swap1\n      0x40\n      mstore\n        /* \"@openzeppelin/contracts@4.4.2/access/AccessControl.sol\":3430:3779  revert(... */\n      mload(0x40)\n      0x08c379a000000000000000000000000000000000000000000000000000000000\n      dup2\n      mstore\n      0x04\n      add\n      tag_180\n      swap2\n      swap1\n      tag_137\n      jump\t// in\n    tag_180:\n      mload(0x40)\n      dup1\n      swap2\n      sub\n      swap1\n      revert\n        /* \"@openzeppelin/contracts@4.4.2/access/AccessControl.sol\":3387:3790  if (!hasRole(role, account)) {... */\n    tag_174:\n        /* \"@openzeppelin/contracts@4.4.2/access/AccessControl.sol\":3312:3796  function _checkRole(bytes32 role, address account) internal view {... */\n      pop\n      pop\n      jump\t// out\n        /* \"@openzeppelin/contracts@4.4.2/access/AccessControl.sol\":6822:7055  function _grantRole(bytes32 role, address account) internal virtual {... */\n    tag_94:\n        /* \"@openzeppelin/contracts@4.4.2/access/AccessControl.sol\":6905:6927  hasRole(role, account) */\n      tag_182\n        /* \"@openzeppelin/contracts@4.4.2/access/AccessControl.sol\":6913:6917  role */\n      dup3\n        /* \"@openzeppelin/contracts@4.4.2/access/AccessControl.sol\":6919:6926  account */\n      dup3\n        /* \"@openzeppelin/contracts@4.4.2/access/AccessControl.sol\":6905:6912  hasRole */\n      tag_62\n        /* \"@openzeppelin/contracts@4.4.2/access/AccessControl.sol\":6905:6927  hasRole(role, account) */\n      jump\t// in\n    tag_182:\n        /* \"@openzeppelin/contracts@4.4.2/access/AccessControl.sol\":6900:7049  if (!hasRole(role, account)) {... */\n      tag_183\n      jumpi\n        /* \"@openzeppelin/contracts@4.4.2/access/AccessControl.sol\":6975:6979  true */\n      0x01\n        /* \"@openzeppelin/contracts@4.4.2/access/AccessControl.sol\":6943:6949  _roles */\n      0x00\n        /* \"@openzeppelin/contracts@4.4.2/access/AccessControl.sol\":6943:6955  _roles[role] */\n      dup1\n        /* \"@openzeppelin/contracts@4.4.2/access/AccessControl.sol\":6950:6954  role */\n      dup5\n        /* \"@openzeppelin/contracts@4.4.2/access/AccessControl.sol\":6943:6955  _roles[role] */\n      dup2\n      mstore\n      0x20\n      add\n      swap1\n      dup2\n      mstore\n      0x20\n      add\n      0x00\n      keccak256\n        /* \"@openzeppelin/contracts@4.4.2/access/AccessControl.sol\":6943:6963  _roles[role].members */\n      0x00\n      add\n        /* \"@openzeppelin/contracts@4.4.2/access/AccessControl.sol\":6943:6972  _roles[role].members[account] */\n      0x00\n        /* \"@openzeppelin/contracts@4.4.2/access/AccessControl.sol\":6964:6971  account */\n      dup4\n        /* \"@openzeppelin/contracts@4.4.2/access/AccessControl.sol\":6943:6972  _roles[role].members[account] */\n      0xffffffffffffffffffffffffffffffffffffffff\n      and\n      0xffffffffffffffffffffffffffffffffffffffff\n      and\n      dup2\n      mstore\n      0x20\n      add\n      swap1\n      dup2\n      mstore\n      0x20\n      add\n      0x00\n      keccak256\n      0x00\n        /* \"@openzeppelin/contracts@4.4.2/access/AccessControl.sol\":6943:6979  _roles[role].members[account] = true */\n      0x0100\n      exp\n      dup2\n      sload\n      dup2\n      0xff\n      mul\n      not\n      and\n      swap1\n      dup4\n      iszero\n      iszero\n      mul\n      or\n      swap1\n      sstore\n      pop\n        /* \"@openzeppelin/contracts@4.4.2/access/AccessControl.sol\":7025:7037  _msgSender() */\n      tag_184\n        /* \"@openzeppelin/contracts@4.4.2/access/AccessControl.sol\":7025:7035  _msgSender */\n      tag_90\n        /* \"@openzeppelin/contracts@4.4.2/access/AccessControl.sol\":7025:7037  _msgSender() */\n      jump\t// in\n    tag_184:\n        /* \"@openzeppelin/contracts@4.4.2/access/AccessControl.sol\":6998:7038  RoleGranted(role, account, _msgSender()) */\n      0xffffffffffffffffffffffffffffffffffffffff\n      and\n        /* \"@openzeppelin/contracts@4.4.2/access/AccessControl.sol\":7016:7023  account */\n      dup2\n        /* \"@openzeppelin/contracts@4.4.2/access/AccessControl.sol\":6998:7038  RoleGranted(role, account, _msgSender()) */\n      0xffffffffffffffffffffffffffffffffffffffff\n      and\n        /* \"@openzeppelin/contracts@4.4.2/access/AccessControl.sol\":7010:7014  role */\n      dup4\n        /* \"@openzeppelin/contracts@4.4.2/access/AccessControl.sol\":6998:7038  RoleGranted(role, account, _msgSender()) */\n      0x2f8788117e7eff1d82e926ec794901d17c78024a50270940304540a733656f0d\n      mload(0x40)\n      mload(0x40)\n      dup1\n      swap2\n      sub\n      swap1\n      log4\n        /* \"@openzeppelin/contracts@4.4.2/access/AccessControl.sol\":6900:7049  if (!hasRole(role, account)) {... */\n    tag_183:\n        /* \"@openzeppelin/contracts@4.4.2/access/AccessControl.sol\":6822:7055  function _grantRole(bytes32 role, address account) internal virtual {... */\n      pop\n      pop\n      jump\t// out\n        /* \"@openzeppelin/contracts@4.4.2/access/AccessControl.sol\":7180:7414  function _revokeRole(bytes32 role, address account) internal virtual {... */\n    tag_101:\n        /* \"@openzeppelin/contracts@4.4.2/access/AccessControl.sol\":7263:7285  hasRole(role, account) */\n      tag_186\n        /* \"@openzeppelin/contracts@4.4.2/access/AccessControl.sol\":7271:7275  role */\n      dup3\n        /* \"@openzeppelin/contracts@4.4.2/access/AccessControl.sol\":7277:7284  account */\n      dup3\n        /* \"@openzeppelin/contracts@4.4.2/access/AccessControl.sol\":7263:7270  hasRole */\n      tag_62\n        /* \"@openzeppelin/contracts@4.4.2/access/AccessControl.sol\":7263:7285  hasRole(role, account) */\n      jump\t// in\n    tag_186:\n        /* \"@openzeppelin/contracts@4.4.2/access/AccessControl.sol\":7259:7408  if (hasRole(role, account)) {... */\n      iszero\n      tag_187\n      jumpi\n        /* \"@openzeppelin/contracts@4.4.2/access/AccessControl.sol\":7333:7338  false */\n      0x00\n        /* \"@openzeppelin/contracts@4.4.2/access/AccessControl.sol\":7301:7307  _roles */\n      dup1\n        /* \"@openzeppelin/contracts@4.4.2/access/AccessControl.sol\":7301:7313  _roles[role] */\n      0x00\n        /* \"@openzeppelin/contracts@4.4.2/access/AccessControl.sol\":7308:7312  role */\n      dup5\n        /* \"@openzeppelin/contracts@4.4.2/access/AccessControl.sol\":7301:7313  _roles[role] */\n      dup2\n      mstore\n      0x20\n      add\n      swap1\n      dup2\n      mstore\n      0x20\n      add\n      0x00\n      keccak256\n        /* \"@openzeppelin/contracts@4.4.2/access/AccessControl.sol\":7301:7321  _roles[role].members */\n      0x00\n      add\n        /* \"@openzeppelin/contracts@4.4.2/access/AccessControl.sol\":7301:7330  _roles[role].members[account] */\n      0x00\n        /* \"@openzeppelin/contracts@4.4.2/access/AccessControl.sol\":7322:7329  account */\n      dup4\n        /* \"@openzeppelin/contracts@4.4.2/access/AccessControl.sol\":7301:7330  _roles[role].members[account] */\n      0xffffffffffffffffffffffffffffffffffffffff\n      and\n      0xffffffffffffffffffffffffffffffffffffffff\n      and\n      dup2\n      mstore\n      0x20\n      add\n      swap1\n      dup2\n      mstore\n      0x20\n      add\n      0x00\n      keccak256\n      0x00\n        /* \"@openzeppelin/contracts@4.4.2/access/AccessControl.sol\":7301:7338  _roles[role].members[account] = false */\n      0x0100\n      exp\n      dup2\n      sload\n      dup2\n      0xff\n      mul\n      not\n      and\n      swap1\n      dup4\n      iszero\n      iszero\n      mul\n      or\n      swap1\n      sstore\n      pop\n        /* \"@openzeppelin/contracts@4.4.2/access/AccessControl.sol\":7384:7396  _msgSender() */\n      tag_188\n        /* \"@openzeppelin/contracts@4.4.2/access/AccessControl.sol\":7384:7394  _msgSender */\n      tag_90\n        /* \"@openzeppelin/contracts@4.4.2/access/AccessControl.sol\":7384:7396  _msgSender() */\n      jump\t// in\n    tag_188:\n        /* \"@openzeppelin/contracts@4.4.2/access/AccessControl.sol\":7357:7397  RoleRevoked(role, account, _msgSender()) */\n      0xffffffffffffffffffffffffffffffffffffffff\n      and\n        /* \"@openzeppelin/contracts@4.4.2/access/AccessControl.sol\":7375:7382  account */\n      dup2\n        /* \"@openzeppelin/contracts@4.4.2/access/AccessControl.sol\":7357:7397  RoleRevoked(role, account, _msgSender()) */\n      0xffffffffffffffffffffffffffffffffffffffff\n      and\n        /* \"@openzeppelin/contracts@4.4.2/access/AccessControl.sol\":7369:7373  role */\n      dup4\n        /* \"@openzeppelin/contracts@4.4.2/access/AccessControl.sol\":7357:7397  RoleRevoked(role, account, _msgSender()) */\n      0xf6391f5c32d9c69d2a47ea670b442974b53935d1edc7fd64eb21e047a839171b\n      mload(0x40)\n      mload(0x40)\n      dup1\n      swap2\n      sub\n      swap1\n      log4\n        /* \"@openzeppelin/contracts@4.4.2/access/AccessControl.sol\":7259:7408  if (hasRole(role, account)) {... */\n    tag_187:\n        /* \"@openzeppelin/contracts@4.4.2/access/AccessControl.sol\":7180:7414  function _revokeRole(bytes32 role, address account) internal virtual {... */\n      pop\n      pop\n      jump\t// out\n        /* \"@openzeppelin/contracts@4.4.2/utils/Strings.sol\":1588:2029  function toHexString(uint256 value, uint256 length) internal pure returns (string memory) {... */\n    tag_176:\n        /* \"@openzeppelin/contracts@4.4.2/utils/Strings.sol\":1663:1676  string memory */\n      0x60\n        /* \"@openzeppelin/contracts@4.4.2/utils/Strings.sol\":1688:1707  bytes memory buffer */\n      0x00\n        /* \"@openzeppelin/contracts@4.4.2/utils/Strings.sol\":1733:1734  2 */\n      0x02\n        /* \"@openzeppelin/contracts@4.4.2/utils/Strings.sol\":1724:1730  length */\n      dup4\n        /* \"@openzeppelin/contracts@4.4.2/utils/Strings.sol\":1720:1721  2 */\n      0x02\n        /* \"@openzeppelin/contracts@4.4.2/utils/Strings.sol\":1720:1730  2 * length */\n      tag_190\n      swap2\n      swap1\n      tag_191\n      jump\t// in\n    tag_190:\n        /* \"@openzeppelin/contracts@4.4.2/utils/Strings.sol\":1720:1734  2 * length + 2 */\n      tag_192\n      swap2\n      swap1\n      tag_153\n      jump\t// in\n    tag_192:\n        /* \"@openzeppelin/contracts@4.4.2/utils/Strings.sol\":1710:1735  new bytes(2 * length + 2) */\n      0xffffffffffffffff\n      dup2\n      gt\n      iszero\n      tag_193\n      jumpi\n      mstore(0x00, 0x4e487b7100000000000000000000000000000000000000000000000000000000)\n      mstore(0x04, 0x41)\n      revert(0x00, 0x24)\n    tag_193:\n      mload(0x40)\n      swap1\n      dup1\n      dup3\n      mstore\n      dup1\n      0x1f\n      add\n      not(0x1f)\n      and\n      0x20\n      add\n      dup3\n      add\n      0x40\n      mstore\n      dup1\n      iszero\n      tag_194\n      jumpi\n      dup2\n      0x20\n      add\n      0x01\n      dup3\n      mul\n      dup1\n      calldatasize\n      dup4\n      calldatacopy\n      dup1\n      dup3\n      add\n      swap2\n      pop\n      pop\n      swap1\n      pop\n    tag_194:\n      pop\n        /* \"@openzeppelin/contracts@4.4.2/utils/Strings.sol\":1688:1735  bytes memory buffer = new bytes(2 * length + 2) */\n      swap1\n      pop\n        /* \"@openzeppelin/contracts@4.4.2/utils/Strings.sol\":1745:1760  buffer[0] = \"0\" */\n      0x3000000000000000000000000000000000000000000000000000000000000000\n        /* \"@openzeppelin/contracts@4.4.2/utils/Strings.sol\":1745:1751  buffer */\n      dup2\n        /* \"@openzeppelin/contracts@4.4.2/utils/Strings.sol\":1752:1753  0 */\n      0x00\n        /* \"@openzeppelin/contracts@4.4.2/utils/Strings.sol\":1745:1754  buffer[0] */\n      dup2\n      mload\n      dup2\n      lt\n      tag_195\n      jumpi\n      mstore(0x00, 0x4e487b7100000000000000000000000000000000000000000000000000000000)\n      mstore(0x04, 0x32)\n      revert(0x00, 0x24)\n    tag_195:\n      0x20\n      add\n      add\n        /* \"@openzeppelin/contracts@4.4.2/utils/Strings.sol\":1745:1760  buffer[0] = \"0\" */\n      swap1\n      not(0xffffffffffffffffffffffffffffffffffffffffffffffffffffffffffffff)\n      and\n      swap1\n      dup2\n      0x00\n      byte\n      swap1\n      mstore8\n      pop\n        /* \"@openzeppelin/contracts@4.4.2/utils/Strings.sol\":1770:1785  buffer[1] = \"x\" */\n      0x7800000000000000000000000000000000000000000000000000000000000000\n        /* \"@openzeppelin/contracts@4.4.2/utils/Strings.sol\":1770:1776  buffer */\n      dup2\n        /* \"@openzeppelin/contracts@4.4.2/utils/Strings.sol\":1777:1778  1 */\n      0x01\n        /* \"@openzeppelin/contracts@4.4.2/utils/Strings.sol\":1770:1779  buffer[1] */\n      dup2\n      mload\n      dup2\n      lt\n      tag_196\n      jumpi\n      mstore(0x00, 0x4e487b7100000000000000000000000000000000000000000000000000000000)\n      mstore(0x04, 0x32)\n      revert(0x00, 0x24)\n    tag_196:\n      0x20\n      add\n      add\n        /* \"@openzeppelin/contracts@4.4.2/utils/Strings.sol\":1770:1785  buffer[1] = \"x\" */\n      swap1\n      not(0xffffffffffffffffffffffffffffffffffffffffffffffffffffffffffffff)\n      and\n      swap1\n      dup2\n      0x00\n      byte\n      swap1\n      mstore8\n      pop\n        /* \"@openzeppelin/contracts@4.4.2/utils/Strings.sol\":1800:1809  uint256 i */\n      0x00\n        /* \"@openzeppelin/contracts@4.4.2/utils/Strings.sol\":1825:1826  1 */\n      0x01\n        /* \"@openzeppelin/contracts@4.4.2/utils/Strings.sol\":1816:1822  length */\n      dup5\n        /* \"@openzeppelin/contracts@4.4.2/utils/Strings.sol\":1812:1813  2 */\n      0x02\n        /* \"@openzeppelin/contracts@4.4.2/utils/Strings.sol\":1812:1822  2 * length */\n      tag_200\n      swap2\n      swap1\n      tag_191\n      jump\t// in\n    tag_200:\n        /* \"@openzeppelin/contracts@4.4.2/utils/Strings.sol\":1812:1826  2 * length + 1 */\n      tag_201\n      swap2\n      swap1\n      tag_153\n      jump\t// in\n    tag_201:\n        /* \"@openzeppelin/contracts@4.4.2/utils/Strings.sol\":1800:1826  uint256 i = 2 * length + 1 */\n      swap1\n      pop\n        /* \"@openzeppelin/contracts@4.4.2/utils/Strings.sol\":1795:1927  for (uint256 i = 2 * length + 1; i > 1; --i) {... */\n    tag_197:\n        /* \"@openzeppelin/contracts@4.4.2/utils/Strings.sol\":1832:1833  1 */\n      0x01\n        /* \"@openzeppelin/contracts@4.4.2/utils/Strings.sol\":1828:1829  i */\n      dup2\n        /* \"@openzeppelin/contracts@4.4.2/utils/Strings.sol\":1828:1833  i > 1 */\n      gt\n        /* \"@openzeppelin/contracts@4.4.2/utils/Strings.sol\":1795:1927  for (uint256 i = 2 * length + 1; i > 1; --i) {... */\n      iszero\n      tag_198\n      jumpi\n        /* \"@openzeppelin/contracts@4.4.2/utils/Strings.sol\":1866:1878  _HEX_SYMBOLS */\n      0x3031323334353637383961626364656600000000000000000000000000000000\n        /* \"@openzeppelin/contracts@4.4.2/utils/Strings.sol\":1887:1890  0xf */\n      0x0f\n        /* \"@openzeppelin/contracts@4.4.2/utils/Strings.sol\":1879:1884  value */\n      dup7\n        /* \"@openzeppelin/contracts@4.4.2/utils/Strings.sol\":1879:1890  value & 0xf */\n      and\n        /* \"@openzeppelin/contracts@4.4.2/utils/Strings.sol\":1866:1891  _HEX_SYMBOLS[value & 0xf] */\n      0x10\n      dup2\n      lt\n      tag_202\n      jumpi\n      mstore(0x00, 0x4e487b7100000000000000000000000000000000000000000000000000000000)\n      mstore(0x04, 0x32)\n      revert(0x00, 0x24)\n    tag_202:\n      byte\n      0xf8\n      shl\n        /* \"@openzeppelin/contracts@4.4.2/utils/Strings.sol\":1854:1860  buffer */\n      dup3\n        /* \"@openzeppelin/contracts@4.4.2/utils/Strings.sol\":1861:1862  i */\n      dup3\n        /* \"@openzeppelin/contracts@4.4.2/utils/Strings.sol\":1854:1863  buffer[i] */\n      dup2\n      mload\n      dup2\n      lt\n      tag_203\n      jumpi\n      mstore(0x00, 0x4e487b7100000000000000000000000000000000000000000000000000000000)\n      mstore(0x04, 0x32)\n      revert(0x00, 0x24)\n    tag_203:\n      0x20\n      add\n      add\n        /* \"@openzeppelin/contracts@4.4.2/utils/Strings.sol\":1854:1891  buffer[i] = _HEX_SYMBOLS[value & 0xf] */\n      swap1\n      not(0xffffffffffffffffffffffffffffffffffffffffffffffffffffffffffffff)\n      and\n      swap1\n      dup2\n      0x00\n      byte\n      swap1\n      mstore8\n      pop\n        /* \"@openzeppelin/contracts@4.4.2/utils/Strings.sol\":1915:1916  4 */\n      0x04\n        /* \"@openzeppelin/contracts@4.4.2/utils/Strings.sol\":1905:1916  value >>= 4 */\n      dup6\n      swap1\n      shr\n      swap5\n      pop\n        /* \"@openzeppelin/contracts@4.4.2/utils/Strings.sol\":1835:1838  --i */\n      dup1\n      tag_204\n      swap1\n      tag_205\n      jump\t// in\n    tag_204:\n      swap1\n      pop\n        /* \"@openzeppelin/contracts@4.4.2/utils/Strings.sol\":1795:1927  for (uint256 i = 2 * length + 1; i > 1; --i) {... */\n      jump(tag_197)\n    tag_198:\n      pop\n        /* \"@openzeppelin/contracts@4.4.2/utils/Strings.sol\":1953:1954  0 */\n      0x00\n        /* \"@openzeppelin/contracts@4.4.2/utils/Strings.sol\":1944:1949  value */\n      dup5\n        /* \"@openzeppelin/contracts@4.4.2/utils/Strings.sol\":1944:1954  value == 0 */\n      eq\n        /* \"@openzeppelin/contracts@4.4.2/utils/Strings.sol\":1936:1991  require(value == 0, \"Strings: hex length insufficient\") */\n      tag_206\n      jumpi\n      mload(0x40)\n      0x08c379a000000000000000000000000000000000000000000000000000000000\n      dup2\n      mstore\n      0x04\n      add\n      tag_207\n      swap1\n      tag_208\n      jump\t// in\n    tag_207:\n      mload(0x40)\n      dup1\n      swap2\n      sub\n      swap1\n      revert\n    tag_206:\n        /* \"@openzeppelin/contracts@4.4.2/utils/Strings.sol\":2015:2021  buffer */\n      dup1\n        /* \"@openzeppelin/contracts@4.4.2/utils/Strings.sol\":2001:2022  return string(buffer) */\n      swap2\n      pop\n      pop\n        /* \"@openzeppelin/contracts@4.4.2/utils/Strings.sol\":1588:2029  function toHexString(uint256 value, uint256 length) internal pure returns (string memory) {... */\n      swap3\n      swap2\n      pop\n      pop\n      jump\t// out\n        /* \"#utility.yul\":7:146   */\n    tag_210:\n      0x00\n        /* \"#utility.yul\":91:97   */\n      dup2\n        /* \"#utility.yul\":78:98   */\n      calldataload\n        /* \"#utility.yul\":69:98   */\n      swap1\n      pop\n        /* \"#utility.yul\":107:140   */\n      tag_212\n        /* \"#utility.yul\":134:139   */\n      dup2\n        /* \"#utility.yul\":107:140   */\n      tag_213\n      jump\t// in\n    tag_212:\n        /* \"#utility.yul\":59:146   */\n      swap3\n      swap2\n      pop\n      pop\n      jump\t// out\n        /* \"#utility.yul\":152:289   */\n    tag_214:\n      0x00\n        /* \"#utility.yul\":237:243   */\n      dup2\n        /* \"#utility.yul\":231:244   */\n      mload\n        /* \"#utility.yul\":222:244   */\n      swap1\n      pop\n        /* \"#utility.yul\":253:283   */\n      tag_216\n        /* \"#utility.yul\":277:282   */\n      dup2\n        /* \"#utility.yul\":253:283   */\n      tag_217\n      jump\t// in\n    tag_216:\n        /* \"#utility.yul\":212:289   */\n      swap3\n      swap2\n      pop\n      pop\n      jump\t// out\n        /* \"#utility.yul\":295:434   */\n    tag_218:\n      0x00\n        /* \"#utility.yul\":379:385   */\n      dup2\n        /* \"#utility.yul\":366:386   */\n      calldataload\n        /* \"#utility.yul\":357:386   */\n      swap1\n      pop\n        /* \"#utility.yul\":395:428   */\n      tag_220\n        /* \"#utility.yul\":422:427   */\n      dup2\n        /* \"#utility.yul\":395:428   */\n      tag_221\n      jump\t// in\n    tag_220:\n        /* \"#utility.yul\":347:434   */\n      swap3\n      swap2\n      pop\n      pop\n      jump\t// out\n        /* \"#utility.yul\":440:577   */\n    tag_222:\n      0x00\n        /* \"#utility.yul\":523:529   */\n      dup2\n        /* \"#utility.yul\":510:530   */\n      calldataload\n        /* \"#utility.yul\":501:530   */\n      swap1\n      pop\n        /* \"#utility.yul\":539:571   */\n      tag_224\n        /* \"#utility.yul\":565:570   */\n      dup2\n        /* \"#utility.yul\":539:571   */\n      tag_225\n      jump\t// in\n    tag_224:\n        /* \"#utility.yul\":491:577   */\n      swap3\n      swap2\n      pop\n      pop\n      jump\t// out\n        /* \"#utility.yul\":583:722   */\n    tag_226:\n      0x00\n        /* \"#utility.yul\":667:673   */\n      dup2\n        /* \"#utility.yul\":654:674   */\n      calldataload\n        /* \"#utility.yul\":645:674   */\n      swap1\n      pop\n        /* \"#utility.yul\":683:716   */\n      tag_228\n        /* \"#utility.yul\":710:715   */\n      dup2\n        /* \"#utility.yul\":683:716   */\n      tag_229\n      jump\t// in\n    tag_228:\n        /* \"#utility.yul\":635:722   */\n      swap3\n      swap2\n      pop\n      pop\n      jump\t// out\n        /* \"#utility.yul\":728:990   */\n    tag_56:\n      0x00\n        /* \"#utility.yul\":836:838   */\n      0x20\n        /* \"#utility.yul\":824:833   */\n      dup3\n        /* \"#utility.yul\":815:822   */\n      dup5\n        /* \"#utility.yul\":811:834   */\n      sub\n        /* \"#utility.yul\":807:839   */\n      slt\n        /* \"#utility.yul\":804:806   */\n      iszero\n      tag_231\n      jumpi\n        /* \"#utility.yul\":852:853   */\n      0x00\n        /* \"#utility.yul\":849:850   */\n      dup1\n        /* \"#utility.yul\":842:854   */\n      revert\n        /* \"#utility.yul\":804:806   */\n    tag_231:\n        /* \"#utility.yul\":895:896   */\n      0x00\n        /* \"#utility.yul\":920:973   */\n      tag_232\n        /* \"#utility.yul\":965:972   */\n      dup5\n        /* \"#utility.yul\":956:962   */\n      dup3\n        /* \"#utility.yul\":945:954   */\n      dup6\n        /* \"#utility.yul\":941:963   */\n      add\n        /* \"#utility.yul\":920:973   */\n      tag_210\n      jump\t// in\n    tag_232:\n        /* \"#utility.yul\":910:973   */\n      swap2\n      pop\n        /* \"#utility.yul\":866:983   */\n      pop\n        /* \"#utility.yul\":794:990   */\n      swap3\n      swap2\n      pop\n      pop\n      jump\t// out\n        /* \"#utility.yul\":996:1548   */\n    tag_45:\n      0x00\n      dup1\n      0x00\n        /* \"#utility.yul\":1138:1140   */\n      0x60\n        /* \"#utility.yul\":1126:1135   */\n      dup5\n        /* \"#utility.yul\":1117:1124   */\n      dup7\n        /* \"#utility.yul\":1113:1136   */\n      sub\n        /* \"#utility.yul\":1109:1141   */\n      slt\n        /* \"#utility.yul\":1106:1108   */\n      iszero\n      tag_234\n      jumpi\n        /* \"#utility.yul\":1154:1155   */\n      0x00\n        /* \"#utility.yul\":1151:1152   */\n      dup1\n        /* \"#utility.yul\":1144:1156   */\n      revert\n        /* \"#utility.yul\":1106:1108   */\n    tag_234:\n        /* \"#utility.yul\":1197:1198   */\n      0x00\n        /* \"#utility.yul\":1222:1275   */\n      tag_235\n        /* \"#utility.yul\":1267:1274   */\n      dup7\n        /* \"#utility.yul\":1258:1264   */\n      dup3\n        /* \"#utility.yul\":1247:1256   */\n      dup8\n        /* \"#utility.yul\":1243:1265   */\n      add\n        /* \"#utility.yul\":1222:1275   */\n      tag_210\n      jump\t// in\n    tag_235:\n        /* \"#utility.yul\":1212:1275   */\n      swap4\n      pop\n        /* \"#utility.yul\":1168:1285   */\n      pop\n        /* \"#utility.yul\":1324:1326   */\n      0x20\n        /* \"#utility.yul\":1350:1403   */\n      tag_236\n        /* \"#utility.yul\":1395:1402   */\n      dup7\n        /* \"#utility.yul\":1386:1392   */\n      dup3\n        /* \"#utility.yul\":1375:1384   */\n      dup8\n        /* \"#utility.yul\":1371:1393   */\n      add\n        /* \"#utility.yul\":1350:1403   */\n      tag_210\n      jump\t// in\n    tag_236:\n        /* \"#utility.yul\":1340:1403   */\n      swap3\n      pop\n        /* \"#utility.yul\":1295:1413   */\n      pop\n        /* \"#utility.yul\":1452:1454   */\n      0x40\n        /* \"#utility.yul\":1478:1531   */\n      tag_237\n        /* \"#utility.yul\":1523:1530   */\n      dup7\n        /* \"#utility.yul\":1514:1520   */\n      dup3\n        /* \"#utility.yul\":1503:1512   */\n      dup8\n        /* \"#utility.yul\":1499:1521   */\n      add\n        /* \"#utility.yul\":1478:1531   */\n      tag_226\n      jump\t// in\n    tag_237:\n        /* \"#utility.yul\":1468:1531   */\n      swap2\n      pop\n        /* \"#utility.yul\":1423:1541   */\n      pop\n        /* \"#utility.yul\":1096:1548   */\n      swap3\n      pop\n      swap3\n      pop\n      swap3\n      jump\t// out\n        /* \"#utility.yul\":1554:1961   */\n    tag_49:\n      0x00\n      dup1\n        /* \"#utility.yul\":1679:1681   */\n      0x40\n        /* \"#utility.yul\":1667:1676   */\n      dup4\n        /* \"#utility.yul\":1658:1665   */\n      dup6\n        /* \"#utility.yul\":1654:1677   */\n      sub\n        /* \"#utility.yul\":1650:1682   */\n      slt\n        /* \"#utility.yul\":1647:1649   */\n      iszero\n      tag_239\n      jumpi\n        /* \"#utility.yul\":1695:1696   */\n      0x00\n        /* \"#utility.yul\":1692:1693   */\n      dup1\n        /* \"#utility.yul\":1685:1697   */\n      revert\n        /* \"#utility.yul\":1647:1649   */\n    tag_239:\n        /* \"#utility.yul\":1738:1739   */\n      0x00\n        /* \"#utility.yul\":1763:1816   */\n      tag_240\n        /* \"#utility.yul\":1808:1815   */\n      dup6\n        /* \"#utility.yul\":1799:1805   */\n      dup3\n        /* \"#utility.yul\":1788:1797   */\n      dup7\n        /* \"#utility.yul\":1784:1806   */\n      add\n        /* \"#utility.yul\":1763:1816   */\n      tag_210\n      jump\t// in\n    tag_240:\n        /* \"#utility.yul\":1753:1816   */\n      swap3\n      pop\n        /* \"#utility.yul\":1709:1826   */\n      pop\n        /* \"#utility.yul\":1865:1867   */\n      0x20\n        /* \"#utility.yul\":1891:1944   */\n      tag_241\n        /* \"#utility.yul\":1936:1943   */\n      dup6\n        /* \"#utility.yul\":1927:1933   */\n      dup3\n        /* \"#utility.yul\":1916:1925   */\n      dup7\n        /* \"#utility.yul\":1912:1934   */\n      add\n        /* \"#utility.yul\":1891:1944   */\n      tag_226\n      jump\t// in\n    tag_241:\n        /* \"#utility.yul\":1881:1944   */\n      swap2\n      pop\n        /* \"#utility.yul\":1836:1954   */\n      pop\n        /* \"#utility.yul\":1637:1961   */\n      swap3\n      pop\n      swap3\n      swap1\n      pop\n      jump\t// out\n        /* \"#utility.yul\":1967:2245   */\n    tag_121:\n      0x00\n        /* \"#utility.yul\":2083:2085   */\n      0x20\n        /* \"#utility.yul\":2071:2080   */\n      dup3\n        /* \"#utility.yul\":2062:2069   */\n      dup5\n        /* \"#utility.yul\":2058:2081   */\n      sub\n        /* \"#utility.yul\":2054:2086   */\n      slt\n        /* \"#utility.yul\":2051:2053   */\n      iszero\n      tag_243\n      jumpi\n        /* \"#utility.yul\":2099:2100   */\n      0x00\n        /* \"#utility.yul\":2096:2097   */\n      dup1\n        /* \"#utility.yul\":2089:2101   */\n      revert\n        /* \"#utility.yul\":2051:2053   */\n    tag_243:\n        /* \"#utility.yul\":2142:2143   */\n      0x00\n        /* \"#utility.yul\":2167:2228   */\n      tag_244\n        /* \"#utility.yul\":2220:2227   */\n      dup5\n        /* \"#utility.yul\":2211:2217   */\n      dup3\n        /* \"#utility.yul\":2200:2209   */\n      dup6\n        /* \"#utility.yul\":2196:2218   */\n      add\n        /* \"#utility.yul\":2167:2228   */\n      tag_214\n      jump\t// in\n    tag_244:\n        /* \"#utility.yul\":2157:2228   */\n      swap2\n      pop\n        /* \"#utility.yul\":2113:2238   */\n      pop\n        /* \"#utility.yul\":2041:2245   */\n      swap3\n      swap2\n      pop\n      pop\n      jump\t// out\n        /* \"#utility.yul\":2251:2513   */\n    tag_33:\n      0x00\n        /* \"#utility.yul\":2359:2361   */\n      0x20\n        /* \"#utility.yul\":2347:2356   */\n      dup3\n        /* \"#utility.yul\":2338:2345   */\n      dup5\n        /* \"#utility.yul\":2334:2357   */\n      sub\n        /* \"#utility.yul\":2330:2362   */\n      slt\n        /* \"#utility.yul\":2327:2329   */\n      iszero\n      tag_246\n      jumpi\n        /* \"#utility.yul\":2375:2376   */\n      0x00\n        /* \"#utility.yul\":2372:2373   */\n      dup1\n        /* \"#utility.yul\":2365:2377   */\n      revert\n        /* \"#utility.yul\":2327:2329   */\n    tag_246:\n        /* \"#utility.yul\":2418:2419   */\n      0x00\n        /* \"#utility.yul\":2443:2496   */\n      tag_247\n        /* \"#utility.yul\":2488:2495   */\n      dup5\n        /* \"#utility.yul\":2479:2485   */\n      dup3\n        /* \"#utility.yul\":2468:2477   */\n      dup6\n        /* \"#utility.yul\":2464:2486   */\n      add\n        /* \"#utility.yul\":2443:2496   */\n      tag_218\n      jump\t// in\n    tag_247:\n        /* \"#utility.yul\":2433:2496   */\n      swap2\n      pop\n        /* \"#utility.yul\":2389:2506   */\n      pop\n        /* \"#utility.yul\":2317:2513   */\n      swap3\n      swap2\n      pop\n      pop\n      jump\t// out\n        /* \"#utility.yul\":2519:2926   */\n    tag_38:\n      0x00\n      dup1\n        /* \"#utility.yul\":2644:2646   */\n      0x40\n        /* \"#utility.yul\":2632:2641   */\n      dup4\n        /* \"#utility.yul\":2623:2630   */\n      dup6\n        /* \"#utility.yul\":2619:2642   */\n      sub\n        /* \"#utility.yul\":2615:2647   */\n      slt\n        /* \"#utility.yul\":2612:2614   */\n      iszero\n      tag_249\n      jumpi\n        /* \"#utility.yul\":2660:2661   */\n      0x00\n        /* \"#utility.yul\":2657:2658   */\n      dup1\n        /* \"#utility.yul\":2650:2662   */\n      revert\n        /* \"#utility.yul\":2612:2614   */\n    tag_249:\n        /* \"#utility.yul\":2703:2704   */\n      0x00\n        /* \"#utility.yul\":2728:2781   */\n      tag_250\n        /* \"#utility.yul\":2773:2780   */\n      dup6\n        /* \"#utility.yul\":2764:2770   */\n      dup3\n        /* \"#utility.yul\":2753:2762   */\n      dup7\n        /* \"#utility.yul\":2749:2771   */\n      add\n        /* \"#utility.yul\":2728:2781   */\n      tag_218\n      jump\t// in\n    tag_250:\n        /* \"#utility.yul\":2718:2781   */\n      swap3\n      pop\n        /* \"#utility.yul\":2674:2791   */\n      pop\n        /* \"#utility.yul\":2830:2832   */\n      0x20\n        /* \"#utility.yul\":2856:2909   */\n      tag_251\n        /* \"#utility.yul\":2901:2908   */\n      dup6\n        /* \"#utility.yul\":2892:2898   */\n      dup3\n        /* \"#utility.yul\":2881:2890   */\n      dup7\n        /* \"#utility.yul\":2877:2899   */\n      add\n        /* \"#utility.yul\":2856:2909   */\n      tag_210\n      jump\t// in\n    tag_251:\n        /* \"#utility.yul\":2846:2909   */\n      swap2\n      pop\n        /* \"#utility.yul\":2801:2919   */\n      pop\n        /* \"#utility.yul\":2602:2926   */\n      swap3\n      pop\n      swap3\n      swap1\n      pop\n      jump\t// out\n        /* \"#utility.yul\":2932:3192   */\n    tag_23:\n      0x00\n        /* \"#utility.yul\":3039:3041   */\n      0x20\n        /* \"#utility.yul\":3027:3036   */\n      dup3\n        /* \"#utility.yul\":3018:3025   */\n      dup5\n        /* \"#utility.yul\":3014:3037   */\n      sub\n        /* \"#utility.yul\":3010:3042   */\n      slt\n        /* \"#utility.yul\":3007:3009   */\n      iszero\n      tag_253\n      jumpi\n        /* \"#utility.yul\":3055:3056   */\n      0x00\n        /* \"#utility.yul\":3052:3053   */\n      dup1\n        /* \"#utility.yul\":3045:3057   */\n      revert\n        /* \"#utility.yul\":3007:3009   */\n    tag_253:\n        /* \"#utility.yul\":3098:3099   */\n      0x00\n        /* \"#utility.yul\":3123:3175   */\n      tag_254\n        /* \"#utility.yul\":3167:3174   */\n      dup5\n        /* \"#utility.yul\":3158:3164   */\n      dup3\n        /* \"#utility.yul\":3147:3156   */\n      dup6\n        /* \"#utility.yul\":3143:3165   */\n      add\n        /* \"#utility.yul\":3123:3175   */\n      tag_222\n      jump\t// in\n    tag_254:\n        /* \"#utility.yul\":3113:3175   */\n      swap2\n      pop\n        /* \"#utility.yul\":3069:3185   */\n      pop\n        /* \"#utility.yul\":2997:3192   */\n      swap3\n      swap2\n      pop\n      pop\n      jump\t// out\n        /* \"#utility.yul\":3198:3460   */\n    tag_79:\n      0x00\n        /* \"#utility.yul\":3306:3308   */\n      0x20\n        /* \"#utility.yul\":3294:3303   */\n      dup3\n        /* \"#utility.yul\":3285:3292   */\n      dup5\n        /* \"#utility.yul\":3281:3304   */\n      sub\n        /* \"#utility.yul\":3277:3309   */\n      slt\n        /* \"#utility.yul\":3274:3276   */\n      iszero\n      tag_256\n      jumpi\n        /* \"#utility.yul\":3322:3323   */\n      0x00\n        /* \"#utility.yul\":3319:3320   */\n      dup1\n        /* \"#utility.yul\":3312:3324   */\n      revert\n        /* \"#utility.yul\":3274:3276   */\n    tag_256:\n        /* \"#utility.yul\":3365:3366   */\n      0x00\n        /* \"#utility.yul\":3390:3443   */\n      tag_257\n        /* \"#utility.yul\":3435:3442   */\n      dup5\n        /* \"#utility.yul\":3426:3432   */\n      dup3\n        /* \"#utility.yul\":3415:3424   */\n      dup6\n        /* \"#utility.yul\":3411:3433   */\n      add\n        /* \"#utility.yul\":3390:3443   */\n      tag_226\n      jump\t// in\n    tag_257:\n        /* \"#utility.yul\":3380:3443   */\n      swap2\n      pop\n        /* \"#utility.yul\":3336:3453   */\n      pop\n        /* \"#utility.yul\":3264:3460   */\n      swap3\n      swap2\n      pop\n      pop\n      jump\t// out\n        /* \"#utility.yul\":3466:3584   */\n    tag_258:\n        /* \"#utility.yul\":3553:3577   */\n      tag_260\n        /* \"#utility.yul\":3571:3576   */\n      dup2\n        /* \"#utility.yul\":3553:3577   */\n      tag_261\n      jump\t// in\n    tag_260:\n        /* \"#utility.yul\":3548:3551   */\n      dup3\n        /* \"#utility.yul\":3541:3578   */\n      mstore\n        /* \"#utility.yul\":3531:3584   */\n      pop\n      pop\n      jump\t// out\n        /* \"#utility.yul\":3590:3747   */\n    tag_262:\n        /* \"#utility.yul\":3695:3740   */\n      tag_264\n        /* \"#utility.yul\":3715:3739   */\n      tag_265\n        /* \"#utility.yul\":3733:3738   */\n      dup3\n        /* \"#utility.yul\":3715:3739   */\n      tag_261\n      jump\t// in\n    tag_265:\n        /* \"#utility.yul\":3695:3740   */\n      tag_266\n      jump\t// in\n    tag_264:\n        /* \"#utility.yul\":3690:3693   */\n      dup3\n        /* \"#utility.yul\":3683:3741   */\n      mstore\n        /* \"#utility.yul\":3673:3747   */\n      pop\n      pop\n      jump\t// out\n        /* \"#utility.yul\":3753:3862   */\n    tag_267:\n        /* \"#utility.yul\":3834:3855   */\n      tag_269\n        /* \"#utility.yul\":3849:3854   */\n      dup2\n        /* \"#utility.yul\":3834:3855   */\n      tag_270\n      jump\t// in\n    tag_269:\n        /* \"#utility.yul\":3829:3832   */\n      dup3\n        /* \"#utility.yul\":3822:3856   */\n      mstore\n        /* \"#utility.yul\":3812:3862   */\n      pop\n      pop\n      jump\t// out\n        /* \"#utility.yul\":3868:3986   */\n    tag_271:\n        /* \"#utility.yul\":3955:3979   */\n      tag_273\n        /* \"#utility.yul\":3973:3978   */\n      dup2\n        /* \"#utility.yul\":3955:3979   */\n      tag_274\n      jump\t// in\n    tag_273:\n        /* \"#utility.yul\":3950:3953   */\n      dup3\n        /* \"#utility.yul\":3943:3980   */\n      mstore\n        /* \"#utility.yul\":3933:3986   */\n      pop\n      pop\n      jump\t// out\n        /* \"#utility.yul\":3992:4356   */\n    tag_275:\n      0x00\n        /* \"#utility.yul\":4108:4147   */\n      tag_277\n        /* \"#utility.yul\":4141:4146   */\n      dup3\n        /* \"#utility.yul\":4108:4147   */\n      tag_278\n      jump\t// in\n    tag_277:\n        /* \"#utility.yul\":4163:4234   */\n      tag_279\n        /* \"#utility.yul\":4227:4233   */\n      dup2\n        /* \"#utility.yul\":4222:4225   */\n      dup6\n        /* \"#utility.yul\":4163:4234   */\n      tag_280\n      jump\t// in\n    tag_279:\n        /* \"#utility.yul\":4156:4234   */\n      swap4\n      pop\n        /* \"#utility.yul\":4243:4295   */\n      tag_281\n        /* \"#utility.yul\":4288:4294   */\n      dup2\n        /* \"#utility.yul\":4283:4286   */\n      dup6\n        /* \"#utility.yul\":4276:4280   */\n      0x20\n        /* \"#utility.yul\":4269:4274   */\n      dup7\n        /* \"#utility.yul\":4265:4281   */\n      add\n        /* \"#utility.yul\":4243:4295   */\n      tag_282\n      jump\t// in\n    tag_281:\n        /* \"#utility.yul\":4320:4349   */\n      tag_283\n        /* \"#utility.yul\":4342:4348   */\n      dup2\n        /* \"#utility.yul\":4320:4349   */\n      tag_284\n      jump\t// in\n    tag_283:\n        /* \"#utility.yul\":4315:4318   */\n      dup5\n        /* \"#utility.yul\":4311:4350   */\n      add\n        /* \"#utility.yul\":4304:4350   */\n      swap2\n      pop\n        /* \"#utility.yul\":4084:4356   */\n      pop\n      swap3\n      swap2\n      pop\n      pop\n      jump\t// out\n        /* \"#utility.yul\":4362:4739   */\n    tag_285:\n      0x00\n        /* \"#utility.yul\":4496:4535   */\n      tag_287\n        /* \"#utility.yul\":4529:4534   */\n      dup3\n        /* \"#utility.yul\":4496:4535   */\n      tag_278\n      jump\t// in\n    tag_287:\n        /* \"#utility.yul\":4551:4640   */\n      tag_288\n        /* \"#utility.yul\":4633:4639   */\n      dup2\n        /* \"#utility.yul\":4628:4631   */\n      dup6\n        /* \"#utility.yul\":4551:4640   */\n      tag_289\n      jump\t// in\n    tag_288:\n        /* \"#utility.yul\":4544:4640   */\n      swap4\n      pop\n        /* \"#utility.yul\":4649:4701   */\n      tag_290\n        /* \"#utility.yul\":4694:4700   */\n      dup2\n        /* \"#utility.yul\":4689:4692   */\n      dup6\n        /* \"#utility.yul\":4682:4686   */\n      0x20\n        /* \"#utility.yul\":4675:4680   */\n      dup7\n        /* \"#utility.yul\":4671:4687   */\n      add\n        /* \"#utility.yul\":4649:4701   */\n      tag_282\n      jump\t// in\n    tag_290:\n        /* \"#utility.yul\":4726:4732   */\n      dup1\n        /* \"#utility.yul\":4721:4724   */\n      dup5\n        /* \"#utility.yul\":4717:4733   */\n      add\n        /* \"#utility.yul\":4710:4733   */\n      swap2\n      pop\n        /* \"#utility.yul\":4472:4739   */\n      pop\n      swap3\n      swap2\n      pop\n      pop\n      jump\t// out\n        /* \"#utility.yul\":4745:5111   */\n    tag_291:\n      0x00\n        /* \"#utility.yul\":4908:4975   */\n      tag_293\n        /* \"#utility.yul\":4972:4974   */\n      0x23\n        /* \"#utility.yul\":4967:4970   */\n      dup4\n        /* \"#utility.yul\":4908:4975   */\n      tag_280\n      jump\t// in\n    tag_293:\n        /* \"#utility.yul\":4901:4975   */\n      swap2\n      pop\n        /* \"#utility.yul\":4984:5077   */\n      tag_294\n        /* \"#utility.yul\":5073:5076   */\n      dup3\n        /* \"#utility.yul\":4984:5077   */\n      tag_295\n      jump\t// in\n    tag_294:\n        /* \"#utility.yul\":5102:5104   */\n      0x40\n        /* \"#utility.yul\":5097:5100   */\n      dup3\n        /* \"#utility.yul\":5093:5105   */\n      add\n        /* \"#utility.yul\":5086:5105   */\n      swap1\n      pop\n        /* \"#utility.yul\":4891:5111   */\n      swap2\n      swap1\n      pop\n      jump\t// out\n        /* \"#utility.yul\":5117:5483   */\n    tag_296:\n      0x00\n        /* \"#utility.yul\":5280:5347   */\n      tag_298\n        /* \"#utility.yul\":5344:5346   */\n      0x20\n        /* \"#utility.yul\":5339:5342   */\n      dup4\n        /* \"#utility.yul\":5280:5347   */\n      tag_280\n      jump\t// in\n    tag_298:\n        /* \"#utility.yul\":5273:5347   */\n      swap2\n      pop\n        /* \"#utility.yul\":5356:5449   */\n      tag_299\n        /* \"#utility.yul\":5445:5448   */\n      dup3\n        /* \"#utility.yul\":5356:5449   */\n      tag_300\n      jump\t// in\n    tag_299:\n        /* \"#utility.yul\":5474:5476   */\n      0x20\n        /* \"#utility.yul\":5469:5472   */\n      dup3\n        /* \"#utility.yul\":5465:5477   */\n      add\n        /* \"#utility.yul\":5458:5477   */\n      swap1\n      pop\n        /* \"#utility.yul\":5263:5483   */\n      swap2\n      swap1\n      pop\n      jump\t// out\n        /* \"#utility.yul\":5489:5855   */\n    tag_301:\n      0x00\n        /* \"#utility.yul\":5652:5719   */\n      tag_303\n        /* \"#utility.yul\":5716:5718   */\n      0x4a\n        /* \"#utility.yul\":5711:5714   */\n      dup4\n        /* \"#utility.yul\":5652:5719   */\n      tag_280\n      jump\t// in\n    tag_303:\n        /* \"#utility.yul\":5645:5719   */\n      swap2\n      pop\n        /* \"#utility.yul\":5728:5821   */\n      tag_304\n        /* \"#utility.yul\":5817:5820   */\n      dup3\n        /* \"#utility.yul\":5728:5821   */\n      tag_305\n      jump\t// in\n    tag_304:\n        /* \"#utility.yul\":5846:5848   */\n      0x60\n        /* \"#utility.yul\":5841:5844   */\n      dup3\n        /* \"#utility.yul\":5837:5849   */\n      add\n        /* \"#utility.yul\":5830:5849   */\n      swap1\n      pop\n        /* \"#utility.yul\":5635:5855   */\n      swap2\n      swap1\n      pop\n      jump\t// out\n        /* \"#utility.yul\":5861:6263   */\n    tag_306:\n      0x00\n        /* \"#utility.yul\":6042:6127   */\n      tag_308\n        /* \"#utility.yul\":6124:6126   */\n      0x20\n        /* \"#utility.yul\":6119:6122   */\n      dup4\n        /* \"#utility.yul\":6042:6127   */\n      tag_289\n      jump\t// in\n    tag_308:\n        /* \"#utility.yul\":6035:6127   */\n      swap2\n      pop\n        /* \"#utility.yul\":6136:6229   */\n      tag_309\n        /* \"#utility.yul\":6225:6228   */\n      dup3\n        /* \"#utility.yul\":6136:6229   */\n      tag_310\n      jump\t// in\n    tag_309:\n        /* \"#utility.yul\":6254:6256   */\n      0x20\n        /* \"#utility.yul\":6249:6252   */\n      dup3\n        /* \"#utility.yul\":6245:6257   */\n      add\n        /* \"#utility.yul\":6238:6257   */\n      swap1\n      pop\n        /* \"#utility.yul\":6025:6263   */\n      swap2\n      swap1\n      pop\n      jump\t// out\n        /* \"#utility.yul\":6269:6671   */\n    tag_311:\n      0x00\n        /* \"#utility.yul\":6450:6535   */\n      tag_313\n        /* \"#utility.yul\":6532:6534   */\n      0x17\n        /* \"#utility.yul\":6527:6530   */\n      dup4\n        /* \"#utility.yul\":6450:6535   */\n      tag_289\n      jump\t// in\n    tag_313:\n        /* \"#utility.yul\":6443:6535   */\n      swap2\n      pop\n        /* \"#utility.yul\":6544:6637   */\n      tag_314\n        /* \"#utility.yul\":6633:6636   */\n      dup3\n        /* \"#utility.yul\":6544:6637   */\n      tag_315\n      jump\t// in\n    tag_314:\n        /* \"#utility.yul\":6662:6664   */\n      0x17\n        /* \"#utility.yul\":6657:6660   */\n      dup3\n        /* \"#utility.yul\":6653:6665   */\n      add\n        /* \"#utility.yul\":6646:6665   */\n      swap1\n      pop\n        /* \"#utility.yul\":6433:6671   */\n      swap2\n      swap1\n      pop\n      jump\t// out\n        /* \"#utility.yul\":6677:7043   */\n    tag_316:\n      0x00\n        /* \"#utility.yul\":6840:6907   */\n      tag_318\n        /* \"#utility.yul\":6904:6906   */\n      0x2b\n        /* \"#utility.yul\":6899:6902   */\n      dup4\n        /* \"#utility.yul\":6840:6907   */\n      tag_280\n      jump\t// in\n    tag_318:\n        /* \"#utility.yul\":6833:6907   */\n      swap2\n      pop\n        /* \"#utility.yul\":6916:7009   */\n      tag_319\n        /* \"#utility.yul\":7005:7008   */\n      dup3\n        /* \"#utility.yul\":6916:7009   */\n      tag_320\n      jump\t// in\n    tag_319:\n        /* \"#utility.yul\":7034:7036   */\n      0x40\n        /* \"#utility.yul\":7029:7032   */\n      dup3\n        /* \"#utility.yul\":7025:7037   */\n      add\n        /* \"#utility.yul\":7018:7037   */\n      swap1\n      pop\n        /* \"#utility.yul\":6823:7043   */\n      swap2\n      swap1\n      pop\n      jump\t// out\n        /* \"#utility.yul\":7049:7451   */\n    tag_321:\n      0x00\n        /* \"#utility.yul\":7230:7315   */\n      tag_323\n        /* \"#utility.yul\":7312:7314   */\n      0x23\n        /* \"#utility.yul\":7307:7310   */\n      dup4\n        /* \"#utility.yul\":7230:7315   */\n      tag_289\n      jump\t// in\n    tag_323:\n        /* \"#utility.yul\":7223:7315   */\n      swap2\n      pop\n        /* \"#utility.yul\":7324:7417   */\n      tag_324\n        /* \"#utility.yul\":7413:7416   */\n      dup3\n        /* \"#utility.yul\":7324:7417   */\n      tag_325\n      jump\t// in\n    tag_324:\n        /* \"#utility.yul\":7442:7444   */\n      0x23\n        /* \"#utility.yul\":7437:7440   */\n      dup3\n        /* \"#utility.yul\":7433:7445   */\n      add\n        /* \"#utility.yul\":7426:7445   */\n      swap1\n      pop\n        /* \"#utility.yul\":7213:7451   */\n      swap2\n      swap1\n      pop\n      jump\t// out\n        /* \"#utility.yul\":7457:7859   */\n    tag_326:\n      0x00\n        /* \"#utility.yul\":7638:7723   */\n      tag_328\n        /* \"#utility.yul\":7720:7722   */\n      0x11\n        /* \"#utility.yul\":7715:7718   */\n      dup4\n        /* \"#utility.yul\":7638:7723   */\n      tag_289\n      jump\t// in\n    tag_328:\n        /* \"#utility.yul\":7631:7723   */\n      swap2\n      pop\n        /* \"#utility.yul\":7732:7825   */\n      tag_329\n        /* \"#utility.yul\":7821:7824   */\n      dup3\n        /* \"#utility.yul\":7732:7825   */\n      tag_330\n      jump\t// in\n    tag_329:\n        /* \"#utility.yul\":7850:7852   */\n      0x11\n        /* \"#utility.yul\":7845:7848   */\n      dup3\n        /* \"#utility.yul\":7841:7853   */\n      add\n        /* \"#utility.yul\":7834:7853   */\n      swap1\n      pop\n        /* \"#utility.yul\":7621:7859   */\n      swap2\n      swap1\n      pop\n      jump\t// out\n        /* \"#utility.yul\":7865:8231   */\n    tag_331:\n      0x00\n        /* \"#utility.yul\":8028:8095   */\n      tag_333\n        /* \"#utility.yul\":8092:8094   */\n      0x2f\n        /* \"#utility.yul\":8087:8090   */\n      dup4\n        /* \"#utility.yul\":8028:8095   */\n      tag_280\n      jump\t// in\n    tag_333:\n        /* \"#utility.yul\":8021:8095   */\n      swap2\n      pop\n        /* \"#utility.yul\":8104:8197   */\n      tag_334\n        /* \"#utility.yul\":8193:8196   */\n      dup3\n        /* \"#utility.yul\":8104:8197   */\n      tag_335\n      jump\t// in\n    tag_334:\n        /* \"#utility.yul\":8222:8224   */\n      0x40\n        /* \"#utility.yul\":8217:8220   */\n      dup3\n        /* \"#utility.yul\":8213:8225   */\n      add\n        /* \"#utility.yul\":8206:8225   */\n      swap1\n      pop\n        /* \"#utility.yul\":8011:8231   */\n      swap2\n      swap1\n      pop\n      jump\t// out\n        /* \"#utility.yul\":8237:8355   */\n    tag_336:\n        /* \"#utility.yul\":8324:8348   */\n      tag_338\n        /* \"#utility.yul\":8342:8347   */\n      dup2\n        /* \"#utility.yul\":8324:8348   */\n      tag_339\n      jump\t// in\n    tag_338:\n        /* \"#utility.yul\":8319:8322   */\n      dup3\n        /* \"#utility.yul\":8312:8349   */\n      mstore\n        /* \"#utility.yul\":8302:8355   */\n      pop\n      pop\n      jump\t// out\n        /* \"#utility.yul\":8361:8518   */\n    tag_340:\n        /* \"#utility.yul\":8466:8511   */\n      tag_342\n        /* \"#utility.yul\":8486:8510   */\n      tag_343\n        /* \"#utility.yul\":8504:8509   */\n      dup3\n        /* \"#utility.yul\":8486:8510   */\n      tag_339\n      jump\t// in\n    tag_343:\n        /* \"#utility.yul\":8466:8511   */\n      tag_344\n      jump\t// in\n    tag_342:\n        /* \"#utility.yul\":8461:8464   */\n      dup3\n        /* \"#utility.yul\":8454:8512   */\n      mstore\n        /* \"#utility.yul\":8444:8518   */\n      pop\n      pop\n      jump\t// out\n        /* \"#utility.yul\":8524:9453   */\n    tag_134:\n      0x00\n        /* \"#utility.yul\":8888:9036   */\n      tag_346\n        /* \"#utility.yul\":9032:9035   */\n      dup3\n        /* \"#utility.yul\":8888:9036   */\n      tag_306\n      jump\t// in\n    tag_346:\n        /* \"#utility.yul\":8881:9036   */\n      swap2\n      pop\n        /* \"#utility.yul\":9046:9121   */\n      tag_347\n        /* \"#utility.yul\":9117:9120   */\n      dup3\n        /* \"#utility.yul\":9108:9114   */\n      dup6\n        /* \"#utility.yul\":9046:9121   */\n      tag_262\n      jump\t// in\n    tag_347:\n        /* \"#utility.yul\":9146:9148   */\n      0x14\n        /* \"#utility.yul\":9141:9144   */\n      dup3\n        /* \"#utility.yul\":9137:9149   */\n      add\n        /* \"#utility.yul\":9130:9149   */\n      swap2\n      pop\n        /* \"#utility.yul\":9166:9314   */\n      tag_348\n        /* \"#utility.yul\":9310:9313   */\n      dup3\n        /* \"#utility.yul\":9166:9314   */\n      tag_321\n      jump\t// in\n    tag_348:\n        /* \"#utility.yul\":9159:9314   */\n      swap2\n      pop\n        /* \"#utility.yul\":9324:9399   */\n      tag_349\n        /* \"#utility.yul\":9395:9398   */\n      dup3\n        /* \"#utility.yul\":9386:9392   */\n      dup5\n        /* \"#utility.yul\":9324:9399   */\n      tag_340\n      jump\t// in\n    tag_349:\n        /* \"#utility.yul\":9424:9426   */\n      0x20\n        /* \"#utility.yul\":9419:9422   */\n      dup3\n        /* \"#utility.yul\":9415:9427   */\n      add\n        /* \"#utility.yul\":9408:9427   */\n      swap2\n      pop\n        /* \"#utility.yul\":9444:9447   */\n      dup2\n        /* \"#utility.yul\":9437:9447   */\n      swap1\n      pop\n        /* \"#utility.yul\":8870:9453   */\n      swap4\n      swap3\n      pop\n      pop\n      pop\n      jump\t// out\n        /* \"#utility.yul\":9459:10426   */\n    tag_179:\n      0x00\n        /* \"#utility.yul\":9863:10011   */\n      tag_351\n        /* \"#utility.yul\":10007:10010   */\n      dup3\n        /* \"#utility.yul\":9863:10011   */\n      tag_311\n      jump\t// in\n    tag_351:\n        /* \"#utility.yul\":9856:10011   */\n      swap2\n      pop\n        /* \"#utility.yul\":10028:10123   */\n      tag_352\n        /* \"#utility.yul\":10119:10122   */\n      dup3\n        /* \"#utility.yul\":10110:10116   */\n      dup6\n        /* \"#utility.yul\":10028:10123   */\n      tag_285\n      jump\t// in\n    tag_352:\n        /* \"#utility.yul\":10021:10123   */\n      swap2\n      pop\n        /* \"#utility.yul\":10140:10288   */\n      tag_353\n        /* \"#utility.yul\":10284:10287   */\n      dup3\n        /* \"#utility.yul\":10140:10288   */\n      tag_326\n      jump\t// in\n    tag_353:\n        /* \"#utility.yul\":10133:10288   */\n      swap2\n      pop\n        /* \"#utility.yul\":10305:10400   */\n      tag_354\n        /* \"#utility.yul\":10396:10399   */\n      dup3\n        /* \"#utility.yul\":10387:10393   */\n      dup5\n        /* \"#utility.yul\":10305:10400   */\n      tag_285\n      jump\t// in\n    tag_354:\n        /* \"#utility.yul\":10298:10400   */\n      swap2\n      pop\n        /* \"#utility.yul\":10417:10420   */\n      dup2\n        /* \"#utility.yul\":10410:10420   */\n      swap1\n      pop\n        /* \"#utility.yul\":9845:10426   */\n      swap4\n      swap3\n      pop\n      pop\n      pop\n      jump\t// out\n        /* \"#utility.yul\":10432:10874   */\n    tag_116:\n      0x00\n        /* \"#utility.yul\":10619:10621   */\n      0x60\n        /* \"#utility.yul\":10608:10617   */\n      dup3\n        /* \"#utility.yul\":10604:10622   */\n      add\n        /* \"#utility.yul\":10596:10622   */\n      swap1\n      pop\n        /* \"#utility.yul\":10632:10703   */\n      tag_356\n        /* \"#utility.yul\":10700:10701   */\n      0x00\n        /* \"#utility.yul\":10689:10698   */\n      dup4\n        /* \"#utility.yul\":10685:10702   */\n      add\n        /* \"#utility.yul\":10676:10682   */\n      dup7\n        /* \"#utility.yul\":10632:10703   */\n      tag_258\n      jump\t// in\n    tag_356:\n        /* \"#utility.yul\":10713:10785   */\n      tag_357\n        /* \"#utility.yul\":10781:10783   */\n      0x20\n        /* \"#utility.yul\":10770:10779   */\n      dup4\n        /* \"#utility.yul\":10766:10784   */\n      add\n        /* \"#utility.yul\":10757:10763   */\n      dup6\n        /* \"#utility.yul\":10713:10785   */\n      tag_258\n      jump\t// in\n    tag_357:\n        /* \"#utility.yul\":10795:10867   */\n      tag_358\n        /* \"#utility.yul\":10863:10865   */\n      0x40\n        /* \"#utility.yul\":10852:10861   */\n      dup4\n        /* \"#utility.yul\":10848:10866   */\n      add\n        /* \"#utility.yul\":10839:10845   */\n      dup5\n        /* \"#utility.yul\":10795:10867   */\n      tag_336\n      jump\t// in\n    tag_358:\n        /* \"#utility.yul\":10586:10874   */\n      swap5\n      swap4\n      pop\n      pop\n      pop\n      pop\n      jump\t// out\n        /* \"#utility.yul\":10880:11090   */\n    tag_26:\n      0x00\n        /* \"#utility.yul\":11005:11007   */\n      0x20\n        /* \"#utility.yul\":10994:11003   */\n      dup3\n        /* \"#utility.yul\":10990:11008   */\n      add\n        /* \"#utility.yul\":10982:11008   */\n      swap1\n      pop\n        /* \"#utility.yul\":11018:11083   */\n      tag_360\n        /* \"#utility.yul\":11080:11081   */\n      0x00\n        /* \"#utility.yul\":11069:11078   */\n      dup4\n        /* \"#utility.yul\":11065:11082   */\n      add\n        /* \"#utility.yul\":11056:11062   */\n      dup5\n        /* \"#utility.yul\":11018:11083   */\n      tag_267\n      jump\t// in\n    tag_360:\n        /* \"#utility.yul\":10972:11090   */\n      swap3\n      swap2\n      pop\n      pop\n      jump\t// out\n        /* \"#utility.yul\":11096:11318   */\n    tag_30:\n      0x00\n        /* \"#utility.yul\":11227:11229   */\n      0x20\n        /* \"#utility.yul\":11216:11225   */\n      dup3\n        /* \"#utility.yul\":11212:11230   */\n      add\n        /* \"#utility.yul\":11204:11230   */\n      swap1\n      pop\n        /* \"#utility.yul\":11240:11311   */\n      tag_362\n        /* \"#utility.yul\":11308:11309   */\n      0x00\n        /* \"#utility.yul\":11297:11306   */\n      dup4\n        /* \"#utility.yul\":11293:11310   */\n      add\n        /* \"#utility.yul\":11284:11290   */\n      dup5\n        /* \"#utility.yul\":11240:11311   */\n      tag_271\n      jump\t// in\n    tag_362:\n        /* \"#utility.yul\":11194:11318   */\n      swap3\n      swap2\n      pop\n      pop\n      jump\t// out\n        /* \"#utility.yul\":11324:11637   */\n    tag_137:\n      0x00\n        /* \"#utility.yul\":11475:11477   */\n      0x20\n        /* \"#utility.yul\":11464:11473   */\n      dup3\n        /* \"#utility.yul\":11460:11478   */\n      add\n        /* \"#utility.yul\":11452:11478   */\n      swap1\n      pop\n        /* \"#utility.yul\":11524:11533   */\n      dup2\n        /* \"#utility.yul\":11518:11522   */\n      dup2\n        /* \"#utility.yul\":11514:11534   */\n      sub\n        /* \"#utility.yul\":11510:11511   */\n      0x00\n        /* \"#utility.yul\":11499:11508   */\n      dup4\n        /* \"#utility.yul\":11495:11512   */\n      add\n        /* \"#utility.yul\":11488:11535   */\n      mstore\n        /* \"#utility.yul\":11552:11630   */\n      tag_364\n        /* \"#utility.yul\":11625:11629   */\n      dup2\n        /* \"#utility.yul\":11616:11622   */\n      dup5\n        /* \"#utility.yul\":11552:11630   */\n      tag_275\n      jump\t// in\n    tag_364:\n        /* \"#utility.yul\":11544:11630   */\n      swap1\n      pop\n        /* \"#utility.yul\":11442:11637   */\n      swap3\n      swap2\n      pop\n      pop\n      jump\t// out\n        /* \"#utility.yul\":11643:12062   */\n    tag_110:\n      0x00\n        /* \"#utility.yul\":11847:11849   */\n      0x20\n        /* \"#utility.yul\":11836:11845   */\n      dup3\n        /* \"#utility.yul\":11832:11850   */\n      add\n        /* \"#utility.yul\":11824:11850   */\n      swap1\n      pop\n        /* \"#utility.yul\":11896:11905   */\n      dup2\n        /* \"#utility.yul\":11890:11894   */\n      dup2\n        /* \"#utility.yul\":11886:11906   */\n      sub\n        /* \"#utility.yul\":11882:11883   */\n      0x00\n        /* \"#utility.yul\":11871:11880   */\n      dup4\n        /* \"#utility.yul\":11867:11884   */\n      add\n        /* \"#utility.yul\":11860:11907   */\n      mstore\n        /* \"#utility.yul\":11924:12055   */\n      tag_366\n        /* \"#utility.yul\":12050:12054   */\n      dup2\n        /* \"#utility.yul\":11924:12055   */\n      tag_291\n      jump\t// in\n    tag_366:\n        /* \"#utility.yul\":11916:12055   */\n      swap1\n      pop\n        /* \"#utility.yul\":11814:12062   */\n      swap2\n      swap1\n      pop\n      jump\t// out\n        /* \"#utility.yul\":12068:12487   */\n    tag_208:\n      0x00\n        /* \"#utility.yul\":12272:12274   */\n      0x20\n        /* \"#utility.yul\":12261:12270   */\n      dup3\n        /* \"#utility.yul\":12257:12275   */\n      add\n        /* \"#utility.yul\":12249:12275   */\n      swap1\n      pop\n        /* \"#utility.yul\":12321:12330   */\n      dup2\n        /* \"#utility.yul\":12315:12319   */\n      dup2\n        /* \"#utility.yul\":12311:12331   */\n      sub\n        /* \"#utility.yul\":12307:12308   */\n      0x00\n        /* \"#utility.yul\":12296:12305   */\n      dup4\n        /* \"#utility.yul\":12292:12309   */\n      add\n        /* \"#utility.yul\":12285:12332   */\n      mstore\n        /* \"#utility.yul\":12349:12480   */\n      tag_368\n        /* \"#utility.yul\":12475:12479   */\n      dup2\n        /* \"#utility.yul\":12349:12480   */\n      tag_296\n      jump\t// in\n    tag_368:\n        /* \"#utility.yul\":12341:12480   */\n      swap1\n      pop\n        /* \"#utility.yul\":12239:12487   */\n      swap2\n      swap1\n      pop\n      jump\t// out\n        /* \"#utility.yul\":12493:12912   */\n    tag_132:\n      0x00\n        /* \"#utility.yul\":12697:12699   */\n      0x20\n        /* \"#utility.yul\":12686:12695   */\n      dup3\n        /* \"#utility.yul\":12682:12700   */\n      add\n        /* \"#utility.yul\":12674:12700   */\n      swap1\n      pop\n        /* \"#utility.yul\":12746:12755   */\n      dup2\n        /* \"#utility.yul\":12740:12744   */\n      dup2\n        /* \"#utility.yul\":12736:12756   */\n      sub\n        /* \"#utility.yul\":12732:12733   */\n      0x00\n        /* \"#utility.yul\":12721:12730   */\n      dup4\n        /* \"#utility.yul\":12717:12734   */\n      add\n        /* \"#utility.yul\":12710:12757   */\n      mstore\n        /* \"#utility.yul\":12774:12905   */\n      tag_370\n        /* \"#utility.yul\":12900:12904   */\n      dup2\n        /* \"#utility.yul\":12774:12905   */\n      tag_301\n      jump\t// in\n    tag_370:\n        /* \"#utility.yul\":12766:12905   */\n      swap1\n      pop\n        /* \"#utility.yul\":12664:12912   */\n      swap2\n      swap1\n      pop\n      jump\t// out\n        /* \"#utility.yul\":12918:13337   */\n    tag_163:\n      0x00\n        /* \"#utility.yul\":13122:13124   */\n      0x20\n        /* \"#utility.yul\":13111:13120   */\n      dup3\n        /* \"#utility.yul\":13107:13125   */\n      add\n        /* \"#utility.yul\":13099:13125   */\n      swap1\n      pop\n        /* \"#utility.yul\":13171:13180   */\n      dup2\n        /* \"#utility.yul\":13165:13169   */\n      dup2\n        /* \"#utility.yul\":13161:13181   */\n      sub\n        /* \"#utility.yul\":13157:13158   */\n      0x00\n        /* \"#utility.yul\":13146:13155   */\n      dup4\n        /* \"#utility.yul\":13142:13159   */\n      add\n        /* \"#utility.yul\":13135:13182   */\n      mstore\n        /* \"#utility.yul\":13199:13330   */\n      tag_372\n        /* \"#utility.yul\":13325:13329   */\n      dup2\n        /* \"#utility.yul\":13199:13330   */\n      tag_316\n      jump\t// in\n    tag_372:\n        /* \"#utility.yul\":13191:13330   */\n      swap1\n      pop\n        /* \"#utility.yul\":13089:13337   */\n      swap2\n      swap1\n      pop\n      jump\t// out\n        /* \"#utility.yul\":13343:13762   */\n    tag_99:\n      0x00\n        /* \"#utility.yul\":13547:13549   */\n      0x20\n        /* \"#utility.yul\":13536:13545   */\n      dup3\n        /* \"#utility.yul\":13532:13550   */\n      add\n        /* \"#utility.yul\":13524:13550   */\n      swap1\n      pop\n        /* \"#utility.yul\":13596:13605   */\n      dup2\n        /* \"#utility.yul\":13590:13594   */\n      dup2\n        /* \"#utility.yul\":13586:13606   */\n      sub\n        /* \"#utility.yul\":13582:13583   */\n      0x00\n        /* \"#utility.yul\":13571:13580   */\n      dup4\n        /* \"#utility.yul\":13567:13584   */\n      add\n        /* \"#utility.yul\":13560:13607   */\n      mstore\n        /* \"#utility.yul\":13624:13755   */\n      tag_374\n        /* \"#utility.yul\":13750:13754   */\n      dup2\n        /* \"#utility.yul\":13624:13755   */\n      tag_331\n      jump\t// in\n    tag_374:\n        /* \"#utility.yul\":13616:13755   */\n      swap1\n      pop\n        /* \"#utility.yul\":13514:13762   */\n      swap2\n      swap1\n      pop\n      jump\t// out\n        /* \"#utility.yul\":13768:13990   */\n    tag_59:\n      0x00\n        /* \"#utility.yul\":13899:13901   */\n      0x20\n        /* \"#utility.yul\":13888:13897   */\n      dup3\n        /* \"#utility.yul\":13884:13902   */\n      add\n        /* \"#utility.yul\":13876:13902   */\n      swap1\n      pop\n        /* \"#utility.yul\":13912:13983   */\n      tag_376\n        /* \"#utility.yul\":13980:13981   */\n      0x00\n        /* \"#utility.yul\":13969:13978   */\n      dup4\n        /* \"#utility.yul\":13965:13982   */\n      add\n        /* \"#utility.yul\":13956:13962   */\n      dup5\n        /* \"#utility.yul\":13912:13983   */\n      tag_336\n      jump\t// in\n    tag_376:\n        /* \"#utility.yul\":13866:13990   */\n      swap3\n      swap2\n      pop\n      pop\n      jump\t// out\n        /* \"#utility.yul\":13996:14095   */\n    tag_278:\n      0x00\n        /* \"#utility.yul\":14082:14087   */\n      dup2\n        /* \"#utility.yul\":14076:14088   */\n      mload\n        /* \"#utility.yul\":14066:14088   */\n      swap1\n      pop\n        /* \"#utility.yul\":14055:14095   */\n      swap2\n      swap1\n      pop\n      jump\t// out\n        /* \"#utility.yul\":14101:14270   */\n    tag_280:\n      0x00\n        /* \"#utility.yul\":14219:14225   */\n      dup3\n        /* \"#utility.yul\":14214:14217   */\n      dup3\n        /* \"#utility.yul\":14207:14226   */\n      mstore\n        /* \"#utility.yul\":14259:14263   */\n      0x20\n        /* \"#utility.yul\":14254:14257   */\n      dup3\n        /* \"#utility.yul\":14250:14264   */\n      add\n        /* \"#utility.yul\":14235:14264   */\n      swap1\n      pop\n        /* \"#utility.yul\":14197:14270   */\n      swap3\n      swap2\n      pop\n      pop\n      jump\t// out\n        /* \"#utility.yul\":14276:14424   */\n    tag_289:\n      0x00\n        /* \"#utility.yul\":14415:14418   */\n      dup2\n        /* \"#utility.yul\":14400:14418   */\n      swap1\n      pop\n        /* \"#utility.yul\":14390:14424   */\n      swap3\n      swap2\n      pop\n      pop\n      jump\t// out\n        /* \"#utility.yul\":14430:14735   */\n    tag_153:\n      0x00\n        /* \"#utility.yul\":14489:14509   */\n      tag_381\n        /* \"#utility.yul\":14507:14508   */\n      dup3\n        /* \"#utility.yul\":14489:14509   */\n      tag_339\n      jump\t// in\n    tag_381:\n        /* \"#utility.yul\":14484:14509   */\n      swap2\n      pop\n        /* \"#utility.yul\":14523:14543   */\n      tag_382\n        /* \"#utility.yul\":14541:14542   */\n      dup4\n        /* \"#utility.yul\":14523:14543   */\n      tag_339\n      jump\t// in\n    tag_382:\n        /* \"#utility.yul\":14518:14543   */\n      swap3\n      pop\n        /* \"#utility.yul\":14677:14678   */\n      dup3\n        /* \"#utility.yul\":14609:14675   */\n      0xffffffffffffffffffffffffffffffffffffffffffffffffffffffffffffffff\n        /* \"#utility.yul\":14605:14679   */\n      sub\n        /* \"#utility.yul\":14602:14603   */\n      dup3\n        /* \"#utility.yul\":14599:14680   */\n      gt\n        /* \"#utility.yul\":14596:14598   */\n      iszero\n      tag_383\n      jumpi\n        /* \"#utility.yul\":14683:14701   */\n      tag_384\n      tag_385\n      jump\t// in\n    tag_384:\n        /* \"#utility.yul\":14596:14598   */\n    tag_383:\n        /* \"#utility.yul\":14727:14728   */\n      dup3\n        /* \"#utility.yul\":14724:14725   */\n      dup3\n        /* \"#utility.yul\":14720:14729   */\n      add\n        /* \"#utility.yul\":14713:14729   */\n      swap1\n      pop\n        /* \"#utility.yul\":14474:14735   */\n      swap3\n      swap2\n      pop\n      pop\n      jump\t// out\n        /* \"#utility.yul\":14741:15089   */\n    tag_191:\n      0x00\n        /* \"#utility.yul\":14804:14824   */\n      tag_387\n        /* \"#utility.yul\":14822:14823   */\n      dup3\n        /* \"#utility.yul\":14804:14824   */\n      tag_339\n      jump\t// in\n    tag_387:\n        /* \"#utility.yul\":14799:14824   */\n      swap2\n      pop\n        /* \"#utility.yul\":14838:14858   */\n      tag_388\n        /* \"#utility.yul\":14856:14857   */\n      dup4\n        /* \"#utility.yul\":14838:14858   */\n      tag_339\n      jump\t// in\n    tag_388:\n        /* \"#utility.yul\":14833:14858   */\n      swap3\n      pop\n        /* \"#utility.yul\":15026:15027   */\n      dup2\n        /* \"#utility.yul\":14958:15024   */\n      0xffffffffffffffffffffffffffffffffffffffffffffffffffffffffffffffff\n        /* \"#utility.yul\":14954:15028   */\n      div\n        /* \"#utility.yul\":14951:14952   */\n      dup4\n        /* \"#utility.yul\":14948:15029   */\n      gt\n        /* \"#utility.yul\":14943:14944   */\n      dup3\n        /* \"#utility.yul\":14936:14945   */\n      iszero\n        /* \"#utility.yul\":14929:14946   */\n      iszero\n        /* \"#utility.yul\":14925:15030   */\n      and\n        /* \"#utility.yul\":14922:14924   */\n      iszero\n      tag_389\n      jumpi\n        /* \"#utility.yul\":15033:15051   */\n      tag_390\n      tag_385\n      jump\t// in\n    tag_390:\n        /* \"#utility.yul\":14922:14924   */\n    tag_389:\n        /* \"#utility.yul\":15081:15082   */\n      dup3\n        /* \"#utility.yul\":15078:15079   */\n      dup3\n        /* \"#utility.yul\":15074:15083   */\n      mul\n        /* \"#utility.yul\":15063:15083   */\n      swap1\n      pop\n        /* \"#utility.yul\":14789:15089   */\n      swap3\n      swap2\n      pop\n      pop\n      jump\t// out\n        /* \"#utility.yul\":15095:15286   */\n    tag_139:\n      0x00\n        /* \"#utility.yul\":15155:15175   */\n      tag_392\n        /* \"#utility.yul\":15173:15174   */\n      dup3\n        /* \"#utility.yul\":15155:15175   */\n      tag_339\n      jump\t// in\n    tag_392:\n        /* \"#utility.yul\":15150:15175   */\n      swap2\n      pop\n        /* \"#utility.yul\":15189:15209   */\n      tag_393\n        /* \"#utility.yul\":15207:15208   */\n      dup4\n        /* \"#utility.yul\":15189:15209   */\n      tag_339\n      jump\t// in\n    tag_393:\n        /* \"#utility.yul\":15184:15209   */\n      swap3\n      pop\n        /* \"#utility.yul\":15228:15229   */\n      dup3\n        /* \"#utility.yul\":15225:15226   */\n      dup3\n        /* \"#utility.yul\":15222:15230   */\n      lt\n        /* \"#utility.yul\":15219:15221   */\n      iszero\n      tag_394\n      jumpi\n        /* \"#utility.yul\":15233:15251   */\n      tag_395\n      tag_385\n      jump\t// in\n    tag_395:\n        /* \"#utility.yul\":15219:15221   */\n    tag_394:\n        /* \"#utility.yul\":15278:15279   */\n      dup3\n        /* \"#utility.yul\":15275:15276   */\n      dup3\n        /* \"#utility.yul\":15271:15280   */\n      sub\n        /* \"#utility.yul\":15263:15280   */\n      swap1\n      pop\n        /* \"#utility.yul\":15140:15286   */\n      swap3\n      swap2\n      pop\n      pop\n      jump\t// out\n        /* \"#utility.yul\":15292:15388   */\n    tag_261:\n      0x00\n        /* \"#utility.yul\":15358:15382   */\n      tag_397\n        /* \"#utility.yul\":15376:15381   */\n      dup3\n        /* \"#utility.yul\":15358:15382   */\n      tag_398\n      jump\t// in\n    tag_397:\n        /* \"#utility.yul\":15347:15382   */\n      swap1\n      pop\n        /* \"#utility.yul\":15337:15388   */\n      swap2\n      swap1\n      pop\n      jump\t// out\n        /* \"#utility.yul\":15394:15484   */\n    tag_270:\n      0x00\n        /* \"#utility.yul\":15471:15476   */\n      dup2\n        /* \"#utility.yul\":15464:15477   */\n      iszero\n        /* \"#utility.yul\":15457:15478   */\n      iszero\n        /* \"#utility.yul\":15446:15478   */\n      swap1\n      pop\n        /* \"#utility.yul\":15436:15484   */\n      swap2\n      swap1\n      pop\n      jump\t// out\n        /* \"#utility.yul\":15490:15567   */\n    tag_274:\n      0x00\n        /* \"#utility.yul\":15556:15561   */\n      dup2\n        /* \"#utility.yul\":15545:15561   */\n      swap1\n      pop\n        /* \"#utility.yul\":15535:15567   */\n      swap2\n      swap1\n      pop\n      jump\t// out\n        /* \"#utility.yul\":15573:15722   */\n    tag_401:\n      0x00\n        /* \"#utility.yul\":15649:15715   */\n      0xffffffff00000000000000000000000000000000000000000000000000000000\n        /* \"#utility.yul\":15642:15647   */\n      dup3\n        /* \"#utility.yul\":15638:15716   */\n      and\n        /* \"#utility.yul\":15627:15716   */\n      swap1\n      pop\n        /* \"#utility.yul\":15617:15722   */\n      swap2\n      swap1\n      pop\n      jump\t// out\n        /* \"#utility.yul\":15728:15854   */\n    tag_398:\n      0x00\n        /* \"#utility.yul\":15805:15847   */\n      0xffffffffffffffffffffffffffffffffffffffff\n        /* \"#utility.yul\":15798:15803   */\n      dup3\n        /* \"#utility.yul\":15794:15848   */\n      and\n        /* \"#utility.yul\":15783:15848   */\n      swap1\n      pop\n        /* \"#utility.yul\":15773:15854   */\n      swap2\n      swap1\n      pop\n      jump\t// out\n        /* \"#utility.yul\":15860:15937   */\n    tag_339:\n      0x00\n        /* \"#utility.yul\":15926:15931   */\n      dup2\n        /* \"#utility.yul\":15915:15931   */\n      swap1\n      pop\n        /* \"#utility.yul\":15905:15937   */\n      swap2\n      swap1\n      pop\n      jump\t// out\n        /* \"#utility.yul\":15943:16250   */\n    tag_282:\n        /* \"#utility.yul\":16011:16012   */\n      0x00\n        /* \"#utility.yul\":16021:16134   */\n    tag_406:\n        /* \"#utility.yul\":16035:16041   */\n      dup4\n        /* \"#utility.yul\":16032:16033   */\n      dup2\n        /* \"#utility.yul\":16029:16042   */\n      lt\n        /* \"#utility.yul\":16021:16134   */\n      iszero\n      tag_408\n      jumpi\n        /* \"#utility.yul\":16120:16121   */\n      dup1\n        /* \"#utility.yul\":16115:16118   */\n      dup3\n        /* \"#utility.yul\":16111:16122   */\n      add\n        /* \"#utility.yul\":16105:16123   */\n      mload\n        /* \"#utility.yul\":16101:16102   */\n      dup2\n        /* \"#utility.yul\":16096:16099   */\n      dup5\n        /* \"#utility.yul\":16092:16103   */\n      add\n        /* \"#utility.yul\":16085:16124   */\n      mstore\n        /* \"#utility.yul\":16057:16059   */\n      0x20\n        /* \"#utility.yul\":16054:16055   */\n      dup2\n        /* \"#utility.yul\":16050:16060   */\n      add\n        /* \"#utility.yul\":16045:16060   */\n      swap1\n      pop\n        /* \"#utility.yul\":16021:16134   */\n      jump(tag_406)\n    tag_408:\n        /* \"#utility.yul\":16152:16158   */\n      dup4\n        /* \"#utility.yul\":16149:16150   */\n      dup2\n        /* \"#utility.yul\":16146:16159   */\n      gt\n        /* \"#utility.yul\":16143:16145   */\n      iszero\n      tag_409\n      jumpi\n        /* \"#utility.yul\":16232:16233   */\n      0x00\n        /* \"#utility.yul\":16223:16229   */\n      dup5\n        /* \"#utility.yul\":16218:16221   */\n      dup5\n        /* \"#utility.yul\":16214:16230   */\n      add\n        /* \"#utility.yul\":16207:16234   */\n      mstore\n        /* \"#utility.yul\":16143:16145   */\n    tag_409:\n        /* \"#utility.yul\":15992:16250   */\n      pop\n      pop\n      pop\n      pop\n      jump\t// out\n        /* \"#utility.yul\":16256:16427   */\n    tag_205:\n      0x00\n        /* \"#utility.yul\":16318:16342   */\n      tag_411\n        /* \"#utility.yul\":16336:16341   */\n      dup3\n        /* \"#utility.yul\":16318:16342   */\n      tag_339\n      jump\t// in\n    tag_411:\n        /* \"#utility.yul\":16309:16342   */\n      swap2\n      pop\n        /* \"#utility.yul\":16364:16368   */\n      0x00\n        /* \"#utility.yul\":16357:16362   */\n      dup3\n        /* \"#utility.yul\":16354:16369   */\n      eq\n        /* \"#utility.yul\":16351:16353   */\n      iszero\n      tag_412\n      jumpi\n        /* \"#utility.yul\":16372:16390   */\n      tag_413\n      tag_385\n      jump\t// in\n    tag_413:\n        /* \"#utility.yul\":16351:16353   */\n    tag_412:\n        /* \"#utility.yul\":16419:16420   */\n      0x01\n        /* \"#utility.yul\":16412:16417   */\n      dup3\n        /* \"#utility.yul\":16408:16421   */\n      sub\n        /* \"#utility.yul\":16401:16421   */\n      swap1\n      pop\n        /* \"#utility.yul\":16299:16427   */\n      swap2\n      swap1\n      pop\n      jump\t// out\n        /* \"#utility.yul\":16433:16533   */\n    tag_266:\n      0x00\n        /* \"#utility.yul\":16501:16527   */\n      tag_415\n        /* \"#utility.yul\":16521:16526   */\n      dup3\n        /* \"#utility.yul\":16501:16527   */\n      tag_416\n      jump\t// in\n    tag_415:\n        /* \"#utility.yul\":16490:16527   */\n      swap1\n      pop\n        /* \"#utility.yul\":16480:16533   */\n      swap2\n      swap1\n      pop\n      jump\t// out\n        /* \"#utility.yul\":16539:16633   */\n    tag_416:\n      0x00\n        /* \"#utility.yul\":16607:16627   */\n      tag_418\n        /* \"#utility.yul\":16621:16626   */\n      dup3\n        /* \"#utility.yul\":16607:16627   */\n      tag_419\n      jump\t// in\n    tag_418:\n        /* \"#utility.yul\":16596:16627   */\n      swap1\n      pop\n        /* \"#utility.yul\":16586:16633   */\n      swap2\n      swap1\n      pop\n      jump\t// out\n        /* \"#utility.yul\":16639:16718   */\n    tag_344:\n      0x00\n        /* \"#utility.yul\":16707:16712   */\n      dup2\n        /* \"#utility.yul\":16696:16712   */\n      swap1\n      pop\n        /* \"#utility.yul\":16686:16718   */\n      swap2\n      swap1\n      pop\n      jump\t// out\n        /* \"#utility.yul\":16724:16904   */\n    tag_385:\n        /* \"#utility.yul\":16772:16849   */\n      0x4e487b7100000000000000000000000000000000000000000000000000000000\n        /* \"#utility.yul\":16769:16770   */\n      0x00\n        /* \"#utility.yul\":16762:16850   */\n      mstore\n        /* \"#utility.yul\":16869:16873   */\n      0x11\n        /* \"#utility.yul\":16866:16867   */\n      0x04\n        /* \"#utility.yul\":16859:16874   */\n      mstore\n        /* \"#utility.yul\":16893:16897   */\n      0x24\n        /* \"#utility.yul\":16890:16891   */\n      0x00\n        /* \"#utility.yul\":16883:16898   */\n      revert\n        /* \"#utility.yul\":16910:17012   */\n    tag_284:\n      0x00\n        /* \"#utility.yul\":17002:17004   */\n      0x1f\n        /* \"#utility.yul\":16998:17005   */\n      not\n        /* \"#utility.yul\":16993:16995   */\n      0x1f\n        /* \"#utility.yul\":16986:16991   */\n      dup4\n        /* \"#utility.yul\":16982:16996   */\n      add\n        /* \"#utility.yul\":16978:17006   */\n      and\n        /* \"#utility.yul\":16968:17006   */\n      swap1\n      pop\n        /* \"#utility.yul\":16958:17012   */\n      swap2\n      swap1\n      pop\n      jump\t// out\n        /* \"#utility.yul\":17018:17112   */\n    tag_419:\n      0x00\n        /* \"#utility.yul\":17099:17104   */\n      dup2\n        /* \"#utility.yul\":17095:17097   */\n      0x60\n        /* \"#utility.yul\":17091:17105   */\n      shl\n        /* \"#utility.yul\":17070:17105   */\n      swap1\n      pop\n        /* \"#utility.yul\":17060:17112   */\n      swap2\n      swap1\n      pop\n      jump\t// out\n        /* \"#utility.yul\":17118:17340   */\n    tag_295:\n        /* \"#utility.yul\":17258:17292   */\n      0x53656e646572206973206e6f742055534443204d616e61676572206f72204164\n        /* \"#utility.yul\":17254:17255   */\n      0x00\n        /* \"#utility.yul\":17246:17252   */\n      dup3\n        /* \"#utility.yul\":17242:17256   */\n      add\n        /* \"#utility.yul\":17235:17293   */\n      mstore\n        /* \"#utility.yul\":17327:17332   */\n      0x6d696e0000000000000000000000000000000000000000000000000000000000\n        /* \"#utility.yul\":17322:17324   */\n      0x20\n        /* \"#utility.yul\":17314:17320   */\n      dup3\n        /* \"#utility.yul\":17310:17325   */\n      add\n        /* \"#utility.yul\":17303:17333   */\n      mstore\n        /* \"#utility.yul\":17224:17340   */\n      pop\n      jump\t// out\n        /* \"#utility.yul\":17346:17528   */\n    tag_300:\n        /* \"#utility.yul\":17486:17520   */\n      0x537472696e67733a20686578206c656e67746820696e73756666696369656e74\n        /* \"#utility.yul\":17482:17483   */\n      0x00\n        /* \"#utility.yul\":17474:17480   */\n      dup3\n        /* \"#utility.yul\":17470:17484   */\n      add\n        /* \"#utility.yul\":17463:17521   */\n      mstore\n        /* \"#utility.yul\":17452:17528   */\n      pop\n      jump\t// out\n        /* \"#utility.yul\":17534:17832   */\n    tag_305:\n        /* \"#utility.yul\":17674:17708   */\n      0x6d757374207570646174652074686520555344432062616c616e636520776974\n        /* \"#utility.yul\":17670:17671   */\n      0x00\n        /* \"#utility.yul\":17662:17668   */\n      dup3\n        /* \"#utility.yul\":17658:17672   */\n      add\n        /* \"#utility.yul\":17651:17709   */\n      mstore\n        /* \"#utility.yul\":17743:17777   */\n      0x6820612028706f736974697665206f72206e6567617469766529206e6f6e2d7a\n        /* \"#utility.yul\":17738:17740   */\n      0x20\n        /* \"#utility.yul\":17730:17736   */\n      dup3\n        /* \"#utility.yul\":17726:17741   */\n      add\n        /* \"#utility.yul\":17719:17778   */\n      mstore\n        /* \"#utility.yul\":17812:17824   */\n      0x65726f20616d6f756e7400000000000000000000000000000000000000000000\n        /* \"#utility.yul\":17807:17809   */\n      0x40\n        /* \"#utility.yul\":17799:17805   */\n      dup3\n        /* \"#utility.yul\":17795:17810   */\n      add\n        /* \"#utility.yul\":17788:17825   */\n      mstore\n        /* \"#utility.yul\":17640:17832   */\n      pop\n      jump\t// out\n        /* \"#utility.yul\":17838:18020   */\n    tag_310:\n        /* \"#utility.yul\":17978:18012   */\n      0x63616e6e6f7420646563726561736520555344432062616c616e6365206f6620\n        /* \"#utility.yul\":17974:17975   */\n      0x00\n        /* \"#utility.yul\":17966:17972   */\n      dup3\n        /* \"#utility.yul\":17962:17976   */\n      add\n        /* \"#utility.yul\":17955:18013   */\n      mstore\n        /* \"#utility.yul\":17944:18020   */\n      pop\n      jump\t// out\n        /* \"#utility.yul\":18026:18199   */\n    tag_315:\n        /* \"#utility.yul\":18166:18191   */\n      0x416363657373436f6e74726f6c3a206163636f756e7420000000000000000000\n        /* \"#utility.yul\":18162:18163   */\n      0x00\n        /* \"#utility.yul\":18154:18160   */\n      dup3\n        /* \"#utility.yul\":18150:18164   */\n      add\n        /* \"#utility.yul\":18143:18192   */\n      mstore\n        /* \"#utility.yul\":18132:18199   */\n      pop\n      jump\t// out\n        /* \"#utility.yul\":18205:18435   */\n    tag_320:\n        /* \"#utility.yul\":18345:18379   */\n      0x616d6f756e74207472616e73666572726564206d757374206265206120706f73\n        /* \"#utility.yul\":18341:18342   */\n      0x00\n        /* \"#utility.yul\":18333:18339   */\n      dup3\n        /* \"#utility.yul\":18329:18343   */\n      add\n        /* \"#utility.yul\":18322:18380   */\n      mstore\n        /* \"#utility.yul\":18414:18427   */\n      0x69746976652076616c7565000000000000000000000000000000000000000000\n        /* \"#utility.yul\":18409:18411   */\n      0x20\n        /* \"#utility.yul\":18401:18407   */\n      dup3\n        /* \"#utility.yul\":18397:18412   */\n      add\n        /* \"#utility.yul\":18390:18428   */\n      mstore\n        /* \"#utility.yul\":18311:18435   */\n      pop\n      jump\t// out\n        /* \"#utility.yul\":18441:18663   */\n    tag_325:\n        /* \"#utility.yul\":18581:18615   */\n      0x206279206d6f7265207468616e20746865206578697374696e672062616c616e\n        /* \"#utility.yul\":18577:18578   */\n      0x00\n        /* \"#utility.yul\":18569:18575   */\n      dup3\n        /* \"#utility.yul\":18565:18579   */\n      add\n        /* \"#utility.yul\":18558:18616   */\n      mstore\n        /* \"#utility.yul\":18650:18655   */\n      0x6365200000000000000000000000000000000000000000000000000000000000\n        /* \"#utility.yul\":18645:18647   */\n      0x20\n        /* \"#utility.yul\":18637:18643   */\n      dup3\n        /* \"#utility.yul\":18633:18648   */\n      add\n        /* \"#utility.yul\":18626:18656   */\n      mstore\n        /* \"#utility.yul\":18547:18663   */\n      pop\n      jump\t// out\n        /* \"#utility.yul\":18669:18836   */\n    tag_330:\n        /* \"#utility.yul\":18809:18828   */\n      0x206973206d697373696e6720726f6c6520000000000000000000000000000000\n        /* \"#utility.yul\":18805:18806   */\n      0x00\n        /* \"#utility.yul\":18797:18803   */\n      dup3\n        /* \"#utility.yul\":18793:18807   */\n      add\n        /* \"#utility.yul\":18786:18829   */\n      mstore\n        /* \"#utility.yul\":18775:18836   */\n      pop\n      jump\t// out\n        /* \"#utility.yul\":18842:19076   */\n    tag_335:\n        /* \"#utility.yul\":18982:19016   */\n      0x416363657373436f6e74726f6c3a2063616e206f6e6c792072656e6f756e6365\n        /* \"#utility.yul\":18978:18979   */\n      0x00\n        /* \"#utility.yul\":18970:18976   */\n      dup3\n        /* \"#utility.yul\":18966:18980   */\n      add\n        /* \"#utility.yul\":18959:19017   */\n      mstore\n        /* \"#utility.yul\":19051:19068   */\n      0x20726f6c657320666f722073656c660000000000000000000000000000000000\n        /* \"#utility.yul\":19046:19048   */\n      0x20\n        /* \"#utility.yul\":19038:19044   */\n      dup3\n        /* \"#utility.yul\":19034:19049   */\n      add\n        /* \"#utility.yul\":19027:19069   */\n      mstore\n        /* \"#utility.yul\":18948:19076   */\n      pop\n      jump\t// out\n        /* \"#utility.yul\":19082:19204   */\n    tag_213:\n        /* \"#utility.yul\":19155:19179   */\n      tag_434\n        /* \"#utility.yul\":19173:19178   */\n      dup2\n        /* \"#utility.yul\":19155:19179   */\n      tag_261\n      jump\t// in\n    tag_434:\n        /* \"#utility.yul\":19148:19153   */\n      dup2\n        /* \"#utility.yul\":19145:19180   */\n      eq\n        /* \"#utility.yul\":19135:19137   */\n      tag_435\n      jumpi\n        /* \"#utility.yul\":19194:19195   */\n      0x00\n        /* \"#utility.yul\":19191:19192   */\n      dup1\n        /* \"#utility.yul\":19184:19196   */\n      revert\n        /* \"#utility.yul\":19135:19137   */\n    tag_435:\n        /* \"#utility.yul\":19125:19204   */\n      pop\n      jump\t// out\n        /* \"#utility.yul\":19210:19326   */\n    tag_217:\n        /* \"#utility.yul\":19280:19301   */\n      tag_437\n        /* \"#utility.yul\":19295:19300   */\n      dup2\n        /* \"#utility.yul\":19280:19301   */\n      tag_270\n      jump\t// in\n    tag_437:\n        /* \"#utility.yul\":19273:19278   */\n      dup2\n        /* \"#utility.yul\":19270:19302   */\n      eq\n        /* \"#utility.yul\":19260:19262   */\n      tag_438\n      jumpi\n        /* \"#utility.yul\":19316:19317   */\n      0x00\n        /* \"#utility.yul\":19313:19314   */\n      dup1\n        /* \"#utility.yul\":19306:19318   */\n      revert\n        /* \"#utility.yul\":19260:19262   */\n    tag_438:\n        /* \"#utility.yul\":19250:19326   */\n      pop\n      jump\t// out\n        /* \"#utility.yul\":19332:19454   */\n    tag_221:\n        /* \"#utility.yul\":19405:19429   */\n      tag_440\n        /* \"#utility.yul\":19423:19428   */\n      dup2\n        /* \"#utility.yul\":19405:19429   */\n      tag_274\n      jump\t// in\n    tag_440:\n        /* \"#utility.yul\":19398:19403   */\n      dup2\n        /* \"#utility.yul\":19395:19430   */\n      eq\n        /* \"#utility.yul\":19385:19387   */\n      tag_441\n      jumpi\n        /* \"#utility.yul\":19444:19445   */\n      0x00\n        /* \"#utility.yul\":19441:19442   */\n      dup1\n        /* \"#utility.yul\":19434:19446   */\n      revert\n        /* \"#utility.yul\":19385:19387   */\n    tag_441:\n        /* \"#utility.yul\":19375:19454   */\n      pop\n      jump\t// out\n        /* \"#utility.yul\":19460:19580   */\n    tag_225:\n        /* \"#utility.yul\":19532:19555   */\n      tag_443\n        /* \"#utility.yul\":19549:19554   */\n      dup2\n        /* \"#utility.yul\":19532:19555   */\n      tag_401\n      jump\t// in\n    tag_443:\n        /* \"#utility.yul\":19525:19530   */\n      dup2\n        /* \"#utility.yul\":19522:19556   */\n      eq\n        /* \"#utility.yul\":19512:19514   */\n      tag_444\n      jumpi\n        /* \"#utility.yul\":19570:19571   */\n      0x00\n        /* \"#utility.yul\":19567:19568   */\n      dup1\n        /* \"#utility.yul\":19560:19572   */\n      revert\n        /* \"#utility.yul\":19512:19514   */\n    tag_444:\n        /* \"#utility.yul\":19502:19580   */\n      pop\n      jump\t// out\n        /* \"#utility.yul\":19586:19708   */\n    tag_229:\n        /* \"#utility.yul\":19659:19683   */\n      tag_446\n        /* \"#utility.yul\":19677:19682   */\n      dup2\n        /* \"#utility.yul\":19659:19683   */\n      tag_339\n      jump\t// in\n    tag_446:\n        /* \"#utility.yul\":19652:19657   */\n      dup2\n        /* \"#utility.yul\":19649:19684   */\n      eq\n        /* \"#utility.yul\":19639:19641   */\n      tag_447\n      jumpi\n        /* \"#utility.yul\":19698:19699   */\n      0x00\n        /* \"#utility.yul\":19695:19696   */\n      dup1\n        /* \"#utility.yul\":19688:19700   */\n      revert\n        /* \"#utility.yul\":19639:19641   */\n    tag_447:\n        /* \"#utility.yul\":19629:19708   */\n      pop\n      jump\t// out\n\n    auxdata: 0xa2646970667358221220f7dd2e06ebd80d181e4285549169da637195b127060d9207113d9e243b5e4f3d64736f6c63430008010033\n}\n",
				"bytecode": {
					"linkReferences": {},
					"object": "608060405273e11a86849d99f524cac3e7a0ec1241828e332c62600160006101000a81548173ffffffffffffffffffffffffffffffffffffffff021916908373ffffffffffffffffffffffffffffffffffffffff16021790555034801561006557600080fd5b50611c4d806100756000396000f3fe608060405234801561001057600080fd5b50600436106100f55760003560e01c8063532b291311610097578063a99c68c511610066578063a99c68c514610282578063bf006f0e146102b2578063d547741f146102ce578063ddb4acd0146102ea576100f5565b8063532b2913146101e857806369b49adc1461020457806391d1485414610234578063a217fddf14610264576100f5565b80632f2ff15d116100d35780632f2ff15d1461017857806336568abe14610194578063441b1a44146101b057806345ad5350146101cc576100f5565b806301ffc9a7146100fa578063075060cd1461012a578063248a9ca314610148575b600080fd5b610114600480360381019061010f91906112c7565b610306565b60405161012191906115db565b60405180910390f35b610132610380565b60405161013f91906115f6565b60405180910390f35b610162600480360381019061015d9190611262565b6103a4565b60405161016f91906115f6565b60405180910390f35b610192600480360381019061018d919061128b565b6103c3565b005b6101ae60048036038101906101a9919061128b565b6103ec565b005b6101ca60048036038101906101c591906111ae565b61046f565b005b6101e660048036038101906101e191906111fd565b610513565b005b61020260048036038101906101fd91906111fd565b6105d3565b005b61021e60048036038101906102199190611185565b6107e1565b60405161022b91906116d3565b60405180910390f35b61024e6004803603810190610249919061128b565b61082a565b60405161025b91906115db565b60405180910390f35b61026c610894565b60405161027991906115f6565b60405180910390f35b61029c60048036038101906102979190611185565b61089b565b6040516102a991906116d3565b60405180910390f35b6102cc60048036038101906102c791906111fd565b6108b3565b005b6102e860048036038101906102e3919061128b565b6109db565b005b61030460048036038101906102ff91906112f0565b610a04565b005b60007f7965db0b000000000000000000000000000000000000000000000000000000007bffffffffffffffffffffffffffffffffffffffffffffffffffffffff1916827bffffffffffffffffffffffffffffffffffffffffffffffffffffffff19161480610379575061037882610b52565b5b9050919050565b7f926813fadcea033cdc5f70af011b14bd62c55b1c6ce86dec0632b00c4eb1756281565b6000806000838152602001908152602001600020600101549050919050565b6103cc826103a4565b6103dd816103d8610bbc565b610bc4565b6103e78383610c61565b505050565b6103f4610bbc565b73ffffffffffffffffffffffffffffffffffffffff168173ffffffffffffffffffffffffffffffffffffffff1614610461576040517f08c379a0000000000000000000000000000000000000000000000000000000008152600401610458906116b3565b60405180910390fd5b61046b8282610d41565b5050565b6104a07f926813fadcea033cdc5f70af011b14bd62c55b1c6ce86dec0632b00c4eb1756261049b610bbc565b61082a565b806104bb57506104ba6000801b6104b5610bbc565b61082a565b5b6104fa576040517f08c379a00000000000000000000000000000000000000000000000000000000081526004016104f190611633565b60405180910390fd5b61050483826105d3565b61050e82826108b3565b505050565b61051d82826105d3565b600160009054906101000a900473ffffffffffffffffffffffffffffffffffffffff1673ffffffffffffffffffffffffffffffffffffffff166323b872dd3084846040518463ffffffff1660e01b815260040161057c939291906115a4565b602060405180830381600087803b15801561059657600080fd5b505af11580156105aa573d6000803e3d6000fd5b505050506040513d601f19601f820116820180604052508101906105ce9190611239565b505050565b6106047f926813fadcea033cdc5f70af011b14bd62c55b1c6ce86dec0632b00c4eb175626105ff610bbc565b61082a565b8061061f575061061e6000801b610619610bbc565b61082a565b5b61065e576040517f08c379a000000000000000000000000000000000000000000000000000000000815260040161065590611633565b60405180910390fd5b600081116106a1576040517f08c379a000000000000000000000000000000000000000000000000000000000815260040161069890611673565b60405180910390fd5b600260008373ffffffffffffffffffffffffffffffffffffffff1673ffffffffffffffffffffffffffffffffffffffff1681526020019081526020016000205481111582600260008573ffffffffffffffffffffffffffffffffffffffff1673ffffffffffffffffffffffffffffffffffffffff16815260200190815260200160002054604051602001610736929190611528565b60405160208183030381529060405290610786576040517f08c379a000000000000000000000000000000000000000000000000000000000815260040161077d9190611611565b60405180910390fd5b5080600260008473ffffffffffffffffffffffffffffffffffffffff1673ffffffffffffffffffffffffffffffffffffffff16815260200190815260200160002060008282546107d691906117c5565b925050819055505050565b6000600260008373ffffffffffffffffffffffffffffffffffffffff1673ffffffffffffffffffffffffffffffffffffffff168152602001908152602001600020549050919050565b600080600084815260200190815260200160002060000160008373ffffffffffffffffffffffffffffffffffffffff1673ffffffffffffffffffffffffffffffffffffffff16815260200190815260200160002060009054906101000a900460ff16905092915050565b6000801b81565b60026020528060005260406000206000915090505481565b6108e47f926813fadcea033cdc5f70af011b14bd62c55b1c6ce86dec0632b00c4eb175626108df610bbc565b61082a565b806108ff57506108fe6000801b6108f9610bbc565b61082a565b5b61093e576040517f08c379a000000000000000000000000000000000000000000000000000000000815260040161093590611633565b60405180910390fd5b60008111610981576040517f08c379a000000000000000000000000000000000000000000000000000000000815260040161097890611673565b60405180910390fd5b80600260008473ffffffffffffffffffffffffffffffffffffffff1673ffffffffffffffffffffffffffffffffffffffff16815260200190815260200160002060008282546109d09190611715565b925050819055505050565b6109e4826103a4565b6109f5816109f0610bbc565b610bc4565b6109ff8383610d41565b505050565b60008111610a47576040517f08c379a0000000000000000000000000000000000000000000000000000000008152600401610a3e90611693565b60405180910390fd5b600160009054906101000a900473ffffffffffffffffffffffffffffffffffffffff1673ffffffffffffffffffffffffffffffffffffffff166323b872dd3330846040518463ffffffff1660e01b8152600401610aa6939291906115a4565b602060405180830381600087803b158015610ac057600080fd5b505af1158015610ad4573d6000803e3d6000fd5b505050506040513d601f19601f82011682018060405250810190610af89190611239565b5080600260003373ffffffffffffffffffffffffffffffffffffffff1673ffffffffffffffffffffffffffffffffffffffff1681526020019081526020016000206000828254610b489190611715565b9250508190555050565b60007f01ffc9a7000000000000000000000000000000000000000000000000000000007bffffffffffffffffffffffffffffffffffffffffffffffffffffffff1916827bffffffffffffffffffffffffffffffffffffffffffffffffffffffff1916149050919050565b600033905090565b610bce828261082a565b610c5d57610bf38173ffffffffffffffffffffffffffffffffffffffff166014610e22565b610c018360001c6020610e22565b604051602001610c1292919061156a565b6040516020818303038152906040526040517f08c379a0000000000000000000000000000000000000000000000000000000008152600401610c549190611611565b60405180910390fd5b5050565b610c6b828261082a565b610d3d57600160008084815260200190815260200160002060000160008373ffffffffffffffffffffffffffffffffffffffff1673ffffffffffffffffffffffffffffffffffffffff16815260200190815260200160002060006101000a81548160ff021916908315150217905550610ce2610bbc565b73ffffffffffffffffffffffffffffffffffffffff168173ffffffffffffffffffffffffffffffffffffffff16837f2f8788117e7eff1d82e926ec794901d17c78024a50270940304540a733656f0d60405160405180910390a45b5050565b610d4b828261082a565b15610e1e57600080600084815260200190815260200160002060000160008373ffffffffffffffffffffffffffffffffffffffff1673ffffffffffffffffffffffffffffffffffffffff16815260200190815260200160002060006101000a81548160ff021916908315150217905550610dc3610bbc565b73ffffffffffffffffffffffffffffffffffffffff168173ffffffffffffffffffffffffffffffffffffffff16837ff6391f5c32d9c69d2a47ea670b442974b53935d1edc7fd64eb21e047a839171b60405160405180910390a45b5050565b606060006002836002610e35919061176b565b610e3f9190611715565b67ffffffffffffffff811115610e7e577f4e487b7100000000000000000000000000000000000000000000000000000000600052604160045260246000fd5b6040519080825280601f01601f191660200182016040528015610eb05781602001600182028036833780820191505090505b5090507f300000000000000000000000000000000000000000000000000000000000000081600081518110610f0e577f4e487b7100000000000000000000000000000000000000000000000000000000600052603260045260246000fd5b60200101907effffffffffffffffffffffffffffffffffffffffffffffffffffffffffffff1916908160001a9053507f780000000000000000000000000000000000000000000000000000000000000081600181518110610f98577f4e487b7100000000000000000000000000000000000000000000000000000000600052603260045260246000fd5b60200101907effffffffffffffffffffffffffffffffffffffffffffffffffffffffffffff1916908160001a90535060006001846002610fd8919061176b565b610fe29190611715565b90505b60018111156110ce577f3031323334353637383961626364656600000000000000000000000000000000600f86166010811061104a577f4e487b7100000000000000000000000000000000000000000000000000000000600052603260045260246000fd5b1a60f81b828281518110611087577f4e487b7100000000000000000000000000000000000000000000000000000000600052603260045260246000fd5b60200101907effffffffffffffffffffffffffffffffffffffffffffffffffffffffffffff1916908160001a905350600485901c9450806110c7906118aa565b9050610fe5565b5060008414611112576040517f08c379a000000000000000000000000000000000000000000000000000000000815260040161110990611653565b60405180910390fd5b8091505092915050565b60008135905061112b81611ba4565b92915050565b60008151905061114081611bbb565b92915050565b60008135905061115581611bd2565b92915050565b60008135905061116a81611be9565b92915050565b60008135905061117f81611c00565b92915050565b60006020828403121561119757600080fd5b60006111a58482850161111c565b91505092915050565b6000806000606084860312156111c357600080fd5b60006111d18682870161111c565b93505060206111e28682870161111c565b92505060406111f386828701611170565b9150509250925092565b6000806040838503121561121057600080fd5b600061121e8582860161111c565b925050602061122f85828601611170565b9150509250929050565b60006020828403121561124b57600080fd5b600061125984828501611131565b91505092915050565b60006020828403121561127457600080fd5b600061128284828501611146565b91505092915050565b6000806040838503121561129e57600080fd5b60006112ac85828601611146565b92505060206112bd8582860161111c565b9150509250929050565b6000602082840312156112d957600080fd5b60006112e78482850161115b565b91505092915050565b60006020828403121561130257600080fd5b600061131084828501611170565b91505092915050565b611322816117f9565b82525050565b611339611334826117f9565b6118d4565b82525050565b6113488161180b565b82525050565b61135781611817565b82525050565b6000611368826116ee565b61137281856116f9565b9350611382818560208601611877565b61138b81611931565b840191505092915050565b60006113a1826116ee565b6113ab818561170a565b93506113bb818560208601611877565b80840191505092915050565b60006113d46023836116f9565b91506113df8261194f565b604082019050919050565b60006113f76020836116f9565b91506114028261199e565b602082019050919050565b600061141a604a836116f9565b9150611425826119c7565b606082019050919050565b600061143d60208361170a565b915061144882611a3c565b602082019050919050565b600061146060178361170a565b915061146b82611a65565b601782019050919050565b6000611483602b836116f9565b915061148e82611a8e565b604082019050919050565b60006114a660238361170a565b91506114b182611add565b602382019050919050565b60006114c960118361170a565b91506114d482611b2c565b601182019050919050565b60006114ec602f836116f9565b91506114f782611b55565b604082019050919050565b61150b8161186d565b82525050565b61152261151d8261186d565b6118f8565b82525050565b600061153382611430565b915061153f8285611328565b60148201915061154e82611499565b915061155a8284611511565b6020820191508190509392505050565b600061157582611453565b91506115818285611396565b915061158c826114bc565b91506115988284611396565b91508190509392505050565b60006060820190506115b96000830186611319565b6115c66020830185611319565b6115d36040830184611502565b949350505050565b60006020820190506115f0600083018461133f565b92915050565b600060208201905061160b600083018461134e565b92915050565b6000602082019050818103600083015261162b818461135d565b905092915050565b6000602082019050818103600083015261164c816113c7565b9050919050565b6000602082019050818103600083015261166c816113ea565b9050919050565b6000602082019050818103600083015261168c8161140d565b9050919050565b600060208201905081810360008301526116ac81611476565b9050919050565b600060208201905081810360008301526116cc816114df565b9050919050565b60006020820190506116e86000830184611502565b92915050565b600081519050919050565b600082825260208201905092915050565b600081905092915050565b60006117208261186d565b915061172b8361186d565b9250827fffffffffffffffffffffffffffffffffffffffffffffffffffffffffffffffff038211156117605761175f611902565b5b828201905092915050565b60006117768261186d565b91506117818361186d565b9250817fffffffffffffffffffffffffffffffffffffffffffffffffffffffffffffffff04831182151516156117ba576117b9611902565b5b828202905092915050565b60006117d08261186d565b91506117db8361186d565b9250828210156117ee576117ed611902565b5b828203905092915050565b60006118048261184d565b9050919050565b60008115159050919050565b6000819050919050565b60007fffffffff0000000000000000000000000000000000000000000000000000000082169050919050565b600073ffffffffffffffffffffffffffffffffffffffff82169050919050565b6000819050919050565b60005b8381101561189557808201518184015260208101905061187a565b838111156118a4576000848401525b50505050565b60006118b58261186d565b915060008214156118c9576118c8611902565b5b600182039050919050565b60006118df826118e6565b9050919050565b60006118f182611942565b9050919050565b6000819050919050565b7f4e487b7100000000000000000000000000000000000000000000000000000000600052601160045260246000fd5b6000601f19601f8301169050919050565b60008160601b9050919050565b7f53656e646572206973206e6f742055534443204d616e61676572206f7220416460008201527f6d696e0000000000000000000000000000000000000000000000000000000000602082015250565b7f537472696e67733a20686578206c656e67746820696e73756666696369656e74600082015250565b7f6d757374207570646174652074686520555344432062616c616e63652077697460008201527f6820612028706f736974697665206f72206e6567617469766529206e6f6e2d7a60208201527f65726f20616d6f756e7400000000000000000000000000000000000000000000604082015250565b7f63616e6e6f7420646563726561736520555344432062616c616e6365206f6620600082015250565b7f416363657373436f6e74726f6c3a206163636f756e7420000000000000000000600082015250565b7f616d6f756e74207472616e73666572726564206d757374206265206120706f7360008201527f69746976652076616c7565000000000000000000000000000000000000000000602082015250565b7f206279206d6f7265207468616e20746865206578697374696e672062616c616e60008201527f6365200000000000000000000000000000000000000000000000000000000000602082015250565b7f206973206d697373696e6720726f6c6520000000000000000000000000000000600082015250565b7f416363657373436f6e74726f6c3a2063616e206f6e6c792072656e6f756e636560008201527f20726f6c657320666f722073656c660000000000000000000000000000000000602082015250565b611bad816117f9565b8114611bb857600080fd5b50565b611bc48161180b565b8114611bcf57600080fd5b50565b611bdb81611817565b8114611be657600080fd5b50565b611bf281611821565b8114611bfd57600080fd5b50565b611c098161186d565b8114611c1457600080fd5b5056fea2646970667358221220f7dd2e06ebd80d181e4285549169da637195b127060d9207113d9e243b5e4f3d64736f6c63430008010033",
					"opcodes": "PUSH1 0x80 PUSH1 0x40 MSTORE PUSH20 0xE11A86849D99F524CAC3E7A0EC1241828E332C62 PUSH1 0x1 PUSH1 0x0 PUSH2 0x100 EXP DUP2 SLOAD DUP2 PUSH20 0xFFFFFFFFFFFFFFFFFFFFFFFFFFFFFFFFFFFFFFFF MUL NOT AND SWAP1 DUP4 PUSH20 0xFFFFFFFFFFFFFFFFFFFFFFFFFFFFFFFFFFFFFFFF AND MUL OR SWAP1 SSTORE POP CALLVALUE DUP1 ISZERO PUSH2 0x65 JUMPI PUSH1 0x0 DUP1 REVERT JUMPDEST POP PUSH2 0x1C4D DUP1 PUSH2 0x75 PUSH1 0x0 CODECOPY PUSH1 0x0 RETURN INVALID PUSH1 0x80 PUSH1 0x40 MSTORE CALLVALUE DUP1 ISZERO PUSH2 0x10 JUMPI PUSH1 0x0 DUP1 REVERT JUMPDEST POP PUSH1 0x4 CALLDATASIZE LT PUSH2 0xF5 JUMPI PUSH1 0x0 CALLDATALOAD PUSH1 0xE0 SHR DUP1 PUSH4 0x532B2913 GT PUSH2 0x97 JUMPI DUP1 PUSH4 0xA99C68C5 GT PUSH2 0x66 JUMPI DUP1 PUSH4 0xA99C68C5 EQ PUSH2 0x282 JUMPI DUP1 PUSH4 0xBF006F0E EQ PUSH2 0x2B2 JUMPI DUP1 PUSH4 0xD547741F EQ PUSH2 0x2CE JUMPI DUP1 PUSH4 0xDDB4ACD0 EQ PUSH2 0x2EA JUMPI PUSH2 0xF5 JUMP JUMPDEST DUP1 PUSH4 0x532B2913 EQ PUSH2 0x1E8 JUMPI DUP1 PUSH4 0x69B49ADC EQ PUSH2 0x204 JUMPI DUP1 PUSH4 0x91D14854 EQ PUSH2 0x234 JUMPI DUP1 PUSH4 0xA217FDDF EQ PUSH2 0x264 JUMPI PUSH2 0xF5 JUMP JUMPDEST DUP1 PUSH4 0x2F2FF15D GT PUSH2 0xD3 JUMPI DUP1 PUSH4 0x2F2FF15D EQ PUSH2 0x178 JUMPI DUP1 PUSH4 0x36568ABE EQ PUSH2 0x194 JUMPI DUP1 PUSH4 0x441B1A44 EQ PUSH2 0x1B0 JUMPI DUP1 PUSH4 0x45AD5350 EQ PUSH2 0x1CC JUMPI PUSH2 0xF5 JUMP JUMPDEST DUP1 PUSH4 0x1FFC9A7 EQ PUSH2 0xFA JUMPI DUP1 PUSH4 0x75060CD EQ PUSH2 0x12A JUMPI DUP1 PUSH4 0x248A9CA3 EQ PUSH2 0x148 JUMPI JUMPDEST PUSH1 0x0 DUP1 REVERT JUMPDEST PUSH2 0x114 PUSH1 0x4 DUP1 CALLDATASIZE SUB DUP2 ADD SWAP1 PUSH2 0x10F SWAP2 SWAP1 PUSH2 0x12C7 JUMP JUMPDEST PUSH2 0x306 JUMP JUMPDEST PUSH1 0x40 MLOAD PUSH2 0x121 SWAP2 SWAP1 PUSH2 0x15DB JUMP JUMPDEST PUSH1 0x40 MLOAD DUP1 SWAP2 SUB SWAP1 RETURN JUMPDEST PUSH2 0x132 PUSH2 0x380 JUMP JUMPDEST PUSH1 0x40 MLOAD PUSH2 0x13F SWAP2 SWAP1 PUSH2 0x15F6 JUMP JUMPDEST PUSH1 0x40 MLOAD DUP1 SWAP2 SUB SWAP1 RETURN JUMPDEST PUSH2 0x162 PUSH1 0x4 DUP1 CALLDATASIZE SUB DUP2 ADD SWAP1 PUSH2 0x15D SWAP2 SWAP1 PUSH2 0x1262 JUMP JUMPDEST PUSH2 0x3A4 JUMP JUMPDEST PUSH1 0x40 MLOAD PUSH2 0x16F SWAP2 SWAP1 PUSH2 0x15F6 JUMP JUMPDEST PUSH1 0x40 MLOAD DUP1 SWAP2 SUB SWAP1 RETURN JUMPDEST PUSH2 0x192 PUSH1 0x4 DUP1 CALLDATASIZE SUB DUP2 ADD SWAP1 PUSH2 0x18D SWAP2 SWAP1 PUSH2 0x128B JUMP JUMPDEST PUSH2 0x3C3 JUMP JUMPDEST STOP JUMPDEST PUSH2 0x1AE PUSH1 0x4 DUP1 CALLDATASIZE SUB DUP2 ADD SWAP1 PUSH2 0x1A9 SWAP2 SWAP1 PUSH2 0x128B JUMP JUMPDEST PUSH2 0x3EC JUMP JUMPDEST STOP JUMPDEST PUSH2 0x1CA PUSH1 0x4 DUP1 CALLDATASIZE SUB DUP2 ADD SWAP1 PUSH2 0x1C5 SWAP2 SWAP1 PUSH2 0x11AE JUMP JUMPDEST PUSH2 0x46F JUMP JUMPDEST STOP JUMPDEST PUSH2 0x1E6 PUSH1 0x4 DUP1 CALLDATASIZE SUB DUP2 ADD SWAP1 PUSH2 0x1E1 SWAP2 SWAP1 PUSH2 0x11FD JUMP JUMPDEST PUSH2 0x513 JUMP JUMPDEST STOP JUMPDEST PUSH2 0x202 PUSH1 0x4 DUP1 CALLDATASIZE SUB DUP2 ADD SWAP1 PUSH2 0x1FD SWAP2 SWAP1 PUSH2 0x11FD JUMP JUMPDEST PUSH2 0x5D3 JUMP JUMPDEST STOP JUMPDEST PUSH2 0x21E PUSH1 0x4 DUP1 CALLDATASIZE SUB DUP2 ADD SWAP1 PUSH2 0x219 SWAP2 SWAP1 PUSH2 0x1185 JUMP JUMPDEST PUSH2 0x7E1 JUMP JUMPDEST PUSH1 0x40 MLOAD PUSH2 0x22B SWAP2 SWAP1 PUSH2 0x16D3 JUMP JUMPDEST PUSH1 0x40 MLOAD DUP1 SWAP2 SUB SWAP1 RETURN JUMPDEST PUSH2 0x24E PUSH1 0x4 DUP1 CALLDATASIZE SUB DUP2 ADD SWAP1 PUSH2 0x249 SWAP2 SWAP1 PUSH2 0x128B JUMP JUMPDEST PUSH2 0x82A JUMP JUMPDEST PUSH1 0x40 MLOAD PUSH2 0x25B SWAP2 SWAP1 PUSH2 0x15DB JUMP JUMPDEST PUSH1 0x40 MLOAD DUP1 SWAP2 SUB SWAP1 RETURN JUMPDEST PUSH2 0x26C PUSH2 0x894 JUMP JUMPDEST PUSH1 0x40 MLOAD PUSH2 0x279 SWAP2 SWAP1 PUSH2 0x15F6 JUMP JUMPDEST PUSH1 0x40 MLOAD DUP1 SWAP2 SUB SWAP1 RETURN JUMPDEST PUSH2 0x29C PUSH1 0x4 DUP1 CALLDATASIZE SUB DUP2 ADD SWAP1 PUSH2 0x297 SWAP2 SWAP1 PUSH2 0x1185 JUMP JUMPDEST PUSH2 0x89B JUMP JUMPDEST PUSH1 0x40 MLOAD PUSH2 0x2A9 SWAP2 SWAP1 PUSH2 0x16D3 JUMP JUMPDEST PUSH1 0x40 MLOAD DUP1 SWAP2 SUB SWAP1 RETURN JUMPDEST PUSH2 0x2CC PUSH1 0x4 DUP1 CALLDATASIZE SUB DUP2 ADD SWAP1 PUSH2 0x2C7 SWAP2 SWAP1 PUSH2 0x11FD JUMP JUMPDEST PUSH2 0x8B3 JUMP JUMPDEST STOP JUMPDEST PUSH2 0x2E8 PUSH1 0x4 DUP1 CALLDATASIZE SUB DUP2 ADD SWAP1 PUSH2 0x2E3 SWAP2 SWAP1 PUSH2 0x128B JUMP JUMPDEST PUSH2 0x9DB JUMP JUMPDEST STOP JUMPDEST PUSH2 0x304 PUSH1 0x4 DUP1 CALLDATASIZE SUB DUP2 ADD SWAP1 PUSH2 0x2FF SWAP2 SWAP1 PUSH2 0x12F0 JUMP JUMPDEST PUSH2 0xA04 JUMP JUMPDEST STOP JUMPDEST PUSH1 0x0 PUSH32 0x7965DB0B00000000000000000000000000000000000000000000000000000000 PUSH28 0xFFFFFFFFFFFFFFFFFFFFFFFFFFFFFFFFFFFFFFFFFFFFFFFFFFFFFFFF NOT AND DUP3 PUSH28 0xFFFFFFFFFFFFFFFFFFFFFFFFFFFFFFFFFFFFFFFFFFFFFFFFFFFFFFFF NOT AND EQ DUP1 PUSH2 0x379 JUMPI POP PUSH2 0x378 DUP3 PUSH2 0xB52 JUMP JUMPDEST JUMPDEST SWAP1 POP SWAP2 SWAP1 POP JUMP JUMPDEST PUSH32 0x926813FADCEA033CDC5F70AF011B14BD62C55B1C6CE86DEC0632B00C4EB17562 DUP2 JUMP JUMPDEST PUSH1 0x0 DUP1 PUSH1 0x0 DUP4 DUP2 MSTORE PUSH1 0x20 ADD SWAP1 DUP2 MSTORE PUSH1 0x20 ADD PUSH1 0x0 KECCAK256 PUSH1 0x1 ADD SLOAD SWAP1 POP SWAP2 SWAP1 POP JUMP JUMPDEST PUSH2 0x3CC DUP3 PUSH2 0x3A4 JUMP JUMPDEST PUSH2 0x3DD DUP2 PUSH2 0x3D8 PUSH2 0xBBC JUMP JUMPDEST PUSH2 0xBC4 JUMP JUMPDEST PUSH2 0x3E7 DUP4 DUP4 PUSH2 0xC61 JUMP JUMPDEST POP POP POP JUMP JUMPDEST PUSH2 0x3F4 PUSH2 0xBBC JUMP JUMPDEST PUSH20 0xFFFFFFFFFFFFFFFFFFFFFFFFFFFFFFFFFFFFFFFF AND DUP2 PUSH20 0xFFFFFFFFFFFFFFFFFFFFFFFFFFFFFFFFFFFFFFFF AND EQ PUSH2 0x461 JUMPI PUSH1 0x40 MLOAD PUSH32 0x8C379A000000000000000000000000000000000000000000000000000000000 DUP2 MSTORE PUSH1 0x4 ADD PUSH2 0x458 SWAP1 PUSH2 0x16B3 JUMP JUMPDEST PUSH1 0x40 MLOAD DUP1 SWAP2 SUB SWAP1 REVERT JUMPDEST PUSH2 0x46B DUP3 DUP3 PUSH2 0xD41 JUMP JUMPDEST POP POP JUMP JUMPDEST PUSH2 0x4A0 PUSH32 0x926813FADCEA033CDC5F70AF011B14BD62C55B1C6CE86DEC0632B00C4EB17562 PUSH2 0x49B PUSH2 0xBBC JUMP JUMPDEST PUSH2 0x82A JUMP JUMPDEST DUP1 PUSH2 0x4BB JUMPI POP PUSH2 0x4BA PUSH1 0x0 DUP1 SHL PUSH2 0x4B5 PUSH2 0xBBC JUMP JUMPDEST PUSH2 0x82A JUMP JUMPDEST JUMPDEST PUSH2 0x4FA JUMPI PUSH1 0x40 MLOAD PUSH32 0x8C379A000000000000000000000000000000000000000000000000000000000 DUP2 MSTORE PUSH1 0x4 ADD PUSH2 0x4F1 SWAP1 PUSH2 0x1633 JUMP JUMPDEST PUSH1 0x40 MLOAD DUP1 SWAP2 SUB SWAP1 REVERT JUMPDEST PUSH2 0x504 DUP4 DUP3 PUSH2 0x5D3 JUMP JUMPDEST PUSH2 0x50E DUP3 DUP3 PUSH2 0x8B3 JUMP JUMPDEST POP POP POP JUMP JUMPDEST PUSH2 0x51D DUP3 DUP3 PUSH2 0x5D3 JUMP JUMPDEST PUSH1 0x1 PUSH1 0x0 SWAP1 SLOAD SWAP1 PUSH2 0x100 EXP SWAP1 DIV PUSH20 0xFFFFFFFFFFFFFFFFFFFFFFFFFFFFFFFFFFFFFFFF AND PUSH20 0xFFFFFFFFFFFFFFFFFFFFFFFFFFFFFFFFFFFFFFFF AND PUSH4 0x23B872DD ADDRESS DUP5 DUP5 PUSH1 0x40 MLOAD DUP5 PUSH4 0xFFFFFFFF AND PUSH1 0xE0 SHL DUP2 MSTORE PUSH1 0x4 ADD PUSH2 0x57C SWAP4 SWAP3 SWAP2 SWAP1 PUSH2 0x15A4 JUMP JUMPDEST PUSH1 0x20 PUSH1 0x40 MLOAD DUP1 DUP4 SUB DUP2 PUSH1 0x0 DUP8 DUP1 EXTCODESIZE ISZERO DUP1 ISZERO PUSH2 0x596 JUMPI PUSH1 0x0 DUP1 REVERT JUMPDEST POP GAS CALL ISZERO DUP1 ISZERO PUSH2 0x5AA JUMPI RETURNDATASIZE PUSH1 0x0 DUP1 RETURNDATACOPY RETURNDATASIZE PUSH1 0x0 REVERT JUMPDEST POP POP POP POP PUSH1 0x40 MLOAD RETURNDATASIZE PUSH1 0x1F NOT PUSH1 0x1F DUP3 ADD AND DUP3 ADD DUP1 PUSH1 0x40 MSTORE POP DUP2 ADD SWAP1 PUSH2 0x5CE SWAP2 SWAP1 PUSH2 0x1239 JUMP JUMPDEST POP POP POP JUMP JUMPDEST PUSH2 0x604 PUSH32 0x926813FADCEA033CDC5F70AF011B14BD62C55B1C6CE86DEC0632B00C4EB17562 PUSH2 0x5FF PUSH2 0xBBC JUMP JUMPDEST PUSH2 0x82A JUMP JUMPDEST DUP1 PUSH2 0x61F JUMPI POP PUSH2 0x61E PUSH1 0x0 DUP1 SHL PUSH2 0x619 PUSH2 0xBBC JUMP JUMPDEST PUSH2 0x82A JUMP JUMPDEST JUMPDEST PUSH2 0x65E JUMPI PUSH1 0x40 MLOAD PUSH32 0x8C379A000000000000000000000000000000000000000000000000000000000 DUP2 MSTORE PUSH1 0x4 ADD PUSH2 0x655 SWAP1 PUSH2 0x1633 JUMP JUMPDEST PUSH1 0x40 MLOAD DUP1 SWAP2 SUB SWAP1 REVERT JUMPDEST PUSH1 0x0 DUP2 GT PUSH2 0x6A1 JUMPI PUSH1 0x40 MLOAD PUSH32 0x8C379A000000000000000000000000000000000000000000000000000000000 DUP2 MSTORE PUSH1 0x4 ADD PUSH2 0x698 SWAP1 PUSH2 0x1673 JUMP JUMPDEST PUSH1 0x40 MLOAD DUP1 SWAP2 SUB SWAP1 REVERT JUMPDEST PUSH1 0x2 PUSH1 0x0 DUP4 PUSH20 0xFFFFFFFFFFFFFFFFFFFFFFFFFFFFFFFFFFFFFFFF AND PUSH20 0xFFFFFFFFFFFFFFFFFFFFFFFFFFFFFFFFFFFFFFFF AND DUP2 MSTORE PUSH1 0x20 ADD SWAP1 DUP2 MSTORE PUSH1 0x20 ADD PUSH1 0x0 KECCAK256 SLOAD DUP2 GT ISZERO DUP3 PUSH1 0x2 PUSH1 0x0 DUP6 PUSH20 0xFFFFFFFFFFFFFFFFFFFFFFFFFFFFFFFFFFFFFFFF AND PUSH20 0xFFFFFFFFFFFFFFFFFFFFFFFFFFFFFFFFFFFFFFFF AND DUP2 MSTORE PUSH1 0x20 ADD SWAP1 DUP2 MSTORE PUSH1 0x20 ADD PUSH1 0x0 KECCAK256 SLOAD PUSH1 0x40 MLOAD PUSH1 0x20 ADD PUSH2 0x736 SWAP3 SWAP2 SWAP1 PUSH2 0x1528 JUMP JUMPDEST PUSH1 0x40 MLOAD PUSH1 0x20 DUP2 DUP4 SUB SUB DUP2 MSTORE SWAP1 PUSH1 0x40 MSTORE SWAP1 PUSH2 0x786 JUMPI PUSH1 0x40 MLOAD PUSH32 0x8C379A000000000000000000000000000000000000000000000000000000000 DUP2 MSTORE PUSH1 0x4 ADD PUSH2 0x77D SWAP2 SWAP1 PUSH2 0x1611 JUMP JUMPDEST PUSH1 0x40 MLOAD DUP1 SWAP2 SUB SWAP1 REVERT JUMPDEST POP DUP1 PUSH1 0x2 PUSH1 0x0 DUP5 PUSH20 0xFFFFFFFFFFFFFFFFFFFFFFFFFFFFFFFFFFFFFFFF AND PUSH20 0xFFFFFFFFFFFFFFFFFFFFFFFFFFFFFFFFFFFFFFFF AND DUP2 MSTORE PUSH1 0x20 ADD SWAP1 DUP2 MSTORE PUSH1 0x20 ADD PUSH1 0x0 KECCAK256 PUSH1 0x0 DUP3 DUP3 SLOAD PUSH2 0x7D6 SWAP2 SWAP1 PUSH2 0x17C5 JUMP JUMPDEST SWAP3 POP POP DUP2 SWAP1 SSTORE POP POP POP JUMP JUMPDEST PUSH1 0x0 PUSH1 0x2 PUSH1 0x0 DUP4 PUSH20 0xFFFFFFFFFFFFFFFFFFFFFFFFFFFFFFFFFFFFFFFF AND PUSH20 0xFFFFFFFFFFFFFFFFFFFFFFFFFFFFFFFFFFFFFFFF AND DUP2 MSTORE PUSH1 0x20 ADD SWAP1 DUP2 MSTORE PUSH1 0x20 ADD PUSH1 0x0 KECCAK256 SLOAD SWAP1 POP SWAP2 SWAP1 POP JUMP JUMPDEST PUSH1 0x0 DUP1 PUSH1 0x0 DUP5 DUP2 MSTORE PUSH1 0x20 ADD SWAP1 DUP2 MSTORE PUSH1 0x20 ADD PUSH1 0x0 KECCAK256 PUSH1 0x0 ADD PUSH1 0x0 DUP4 PUSH20 0xFFFFFFFFFFFFFFFFFFFFFFFFFFFFFFFFFFFFFFFF AND PUSH20 0xFFFFFFFFFFFFFFFFFFFFFFFFFFFFFFFFFFFFFFFF AND DUP2 MSTORE PUSH1 0x20 ADD SWAP1 DUP2 MSTORE PUSH1 0x20 ADD PUSH1 0x0 KECCAK256 PUSH1 0x0 SWAP1 SLOAD SWAP1 PUSH2 0x100 EXP SWAP1 DIV PUSH1 0xFF AND SWAP1 POP SWAP3 SWAP2 POP POP JUMP JUMPDEST PUSH1 0x0 DUP1 SHL DUP2 JUMP JUMPDEST PUSH1 0x2 PUSH1 0x20 MSTORE DUP1 PUSH1 0x0 MSTORE PUSH1 0x40 PUSH1 0x0 KECCAK256 PUSH1 0x0 SWAP2 POP SWAP1 POP SLOAD DUP2 JUMP JUMPDEST PUSH2 0x8E4 PUSH32 0x926813FADCEA033CDC5F70AF011B14BD62C55B1C6CE86DEC0632B00C4EB17562 PUSH2 0x8DF PUSH2 0xBBC JUMP JUMPDEST PUSH2 0x82A JUMP JUMPDEST DUP1 PUSH2 0x8FF JUMPI POP PUSH2 0x8FE PUSH1 0x0 DUP1 SHL PUSH2 0x8F9 PUSH2 0xBBC JUMP JUMPDEST PUSH2 0x82A JUMP JUMPDEST JUMPDEST PUSH2 0x93E JUMPI PUSH1 0x40 MLOAD PUSH32 0x8C379A000000000000000000000000000000000000000000000000000000000 DUP2 MSTORE PUSH1 0x4 ADD PUSH2 0x935 SWAP1 PUSH2 0x1633 JUMP JUMPDEST PUSH1 0x40 MLOAD DUP1 SWAP2 SUB SWAP1 REVERT JUMPDEST PUSH1 0x0 DUP2 GT PUSH2 0x981 JUMPI PUSH1 0x40 MLOAD PUSH32 0x8C379A000000000000000000000000000000000000000000000000000000000 DUP2 MSTORE PUSH1 0x4 ADD PUSH2 0x978 SWAP1 PUSH2 0x1673 JUMP JUMPDEST PUSH1 0x40 MLOAD DUP1 SWAP2 SUB SWAP1 REVERT JUMPDEST DUP1 PUSH1 0x2 PUSH1 0x0 DUP5 PUSH20 0xFFFFFFFFFFFFFFFFFFFFFFFFFFFFFFFFFFFFFFFF AND PUSH20 0xFFFFFFFFFFFFFFFFFFFFFFFFFFFFFFFFFFFFFFFF AND DUP2 MSTORE PUSH1 0x20 ADD SWAP1 DUP2 MSTORE PUSH1 0x20 ADD PUSH1 0x0 KECCAK256 PUSH1 0x0 DUP3 DUP3 SLOAD PUSH2 0x9D0 SWAP2 SWAP1 PUSH2 0x1715 JUMP JUMPDEST SWAP3 POP POP DUP2 SWAP1 SSTORE POP POP POP JUMP JUMPDEST PUSH2 0x9E4 DUP3 PUSH2 0x3A4 JUMP JUMPDEST PUSH2 0x9F5 DUP2 PUSH2 0x9F0 PUSH2 0xBBC JUMP JUMPDEST PUSH2 0xBC4 JUMP JUMPDEST PUSH2 0x9FF DUP4 DUP4 PUSH2 0xD41 JUMP JUMPDEST POP POP POP JUMP JUMPDEST PUSH1 0x0 DUP2 GT PUSH2 0xA47 JUMPI PUSH1 0x40 MLOAD PUSH32 0x8C379A000000000000000000000000000000000000000000000000000000000 DUP2 MSTORE PUSH1 0x4 ADD PUSH2 0xA3E SWAP1 PUSH2 0x1693 JUMP JUMPDEST PUSH1 0x40 MLOAD DUP1 SWAP2 SUB SWAP1 REVERT JUMPDEST PUSH1 0x1 PUSH1 0x0 SWAP1 SLOAD SWAP1 PUSH2 0x100 EXP SWAP1 DIV PUSH20 0xFFFFFFFFFFFFFFFFFFFFFFFFFFFFFFFFFFFFFFFF AND PUSH20 0xFFFFFFFFFFFFFFFFFFFFFFFFFFFFFFFFFFFFFFFF AND PUSH4 0x23B872DD CALLER ADDRESS DUP5 PUSH1 0x40 MLOAD DUP5 PUSH4 0xFFFFFFFF AND PUSH1 0xE0 SHL DUP2 MSTORE PUSH1 0x4 ADD PUSH2 0xAA6 SWAP4 SWAP3 SWAP2 SWAP1 PUSH2 0x15A4 JUMP JUMPDEST PUSH1 0x20 PUSH1 0x40 MLOAD DUP1 DUP4 SUB DUP2 PUSH1 0x0 DUP8 DUP1 EXTCODESIZE ISZERO DUP1 ISZERO PUSH2 0xAC0 JUMPI PUSH1 0x0 DUP1 REVERT JUMPDEST POP GAS CALL ISZERO DUP1 ISZERO PUSH2 0xAD4 JUMPI RETURNDATASIZE PUSH1 0x0 DUP1 RETURNDATACOPY RETURNDATASIZE PUSH1 0x0 REVERT JUMPDEST POP POP POP POP PUSH1 0x40 MLOAD RETURNDATASIZE PUSH1 0x1F NOT PUSH1 0x1F DUP3 ADD AND DUP3 ADD DUP1 PUSH1 0x40 MSTORE POP DUP2 ADD SWAP1 PUSH2 0xAF8 SWAP2 SWAP1 PUSH2 0x1239 JUMP JUMPDEST POP DUP1 PUSH1 0x2 PUSH1 0x0 CALLER PUSH20 0xFFFFFFFFFFFFFFFFFFFFFFFFFFFFFFFFFFFFFFFF AND PUSH20 0xFFFFFFFFFFFFFFFFFFFFFFFFFFFFFFFFFFFFFFFF AND DUP2 MSTORE PUSH1 0x20 ADD SWAP1 DUP2 MSTORE PUSH1 0x20 ADD PUSH1 0x0 KECCAK256 PUSH1 0x0 DUP3 DUP3 SLOAD PUSH2 0xB48 SWAP2 SWAP1 PUSH2 0x1715 JUMP JUMPDEST SWAP3 POP POP DUP2 SWAP1 SSTORE POP POP JUMP JUMPDEST PUSH1 0x0 PUSH32 0x1FFC9A700000000000000000000000000000000000000000000000000000000 PUSH28 0xFFFFFFFFFFFFFFFFFFFFFFFFFFFFFFFFFFFFFFFFFFFFFFFFFFFFFFFF NOT AND DUP3 PUSH28 0xFFFFFFFFFFFFFFFFFFFFFFFFFFFFFFFFFFFFFFFFFFFFFFFFFFFFFFFF NOT AND EQ SWAP1 POP SWAP2 SWAP1 POP JUMP JUMPDEST PUSH1 0x0 CALLER SWAP1 POP SWAP1 JUMP JUMPDEST PUSH2 0xBCE DUP3 DUP3 PUSH2 0x82A JUMP JUMPDEST PUSH2 0xC5D JUMPI PUSH2 0xBF3 DUP2 PUSH20 0xFFFFFFFFFFFFFFFFFFFFFFFFFFFFFFFFFFFFFFFF AND PUSH1 0x14 PUSH2 0xE22 JUMP JUMPDEST PUSH2 0xC01 DUP4 PUSH1 0x0 SHR PUSH1 0x20 PUSH2 0xE22 JUMP JUMPDEST PUSH1 0x40 MLOAD PUSH1 0x20 ADD PUSH2 0xC12 SWAP3 SWAP2 SWAP1 PUSH2 0x156A JUMP JUMPDEST PUSH1 0x40 MLOAD PUSH1 0x20 DUP2 DUP4 SUB SUB DUP2 MSTORE SWAP1 PUSH1 0x40 MSTORE PUSH1 0x40 MLOAD PUSH32 0x8C379A000000000000000000000000000000000000000000000000000000000 DUP2 MSTORE PUSH1 0x4 ADD PUSH2 0xC54 SWAP2 SWAP1 PUSH2 0x1611 JUMP JUMPDEST PUSH1 0x40 MLOAD DUP1 SWAP2 SUB SWAP1 REVERT JUMPDEST POP POP JUMP JUMPDEST PUSH2 0xC6B DUP3 DUP3 PUSH2 0x82A JUMP JUMPDEST PUSH2 0xD3D JUMPI PUSH1 0x1 PUSH1 0x0 DUP1 DUP5 DUP2 MSTORE PUSH1 0x20 ADD SWAP1 DUP2 MSTORE PUSH1 0x20 ADD PUSH1 0x0 KECCAK256 PUSH1 0x0 ADD PUSH1 0x0 DUP4 PUSH20 0xFFFFFFFFFFFFFFFFFFFFFFFFFFFFFFFFFFFFFFFF AND PUSH20 0xFFFFFFFFFFFFFFFFFFFFFFFFFFFFFFFFFFFFFFFF AND DUP2 MSTORE PUSH1 0x20 ADD SWAP1 DUP2 MSTORE PUSH1 0x20 ADD PUSH1 0x0 KECCAK256 PUSH1 0x0 PUSH2 0x100 EXP DUP2 SLOAD DUP2 PUSH1 0xFF MUL NOT AND SWAP1 DUP4 ISZERO ISZERO MUL OR SWAP1 SSTORE POP PUSH2 0xCE2 PUSH2 0xBBC JUMP JUMPDEST PUSH20 0xFFFFFFFFFFFFFFFFFFFFFFFFFFFFFFFFFFFFFFFF AND DUP2 PUSH20 0xFFFFFFFFFFFFFFFFFFFFFFFFFFFFFFFFFFFFFFFF AND DUP4 PUSH32 0x2F8788117E7EFF1D82E926EC794901D17C78024A50270940304540A733656F0D PUSH1 0x40 MLOAD PUSH1 0x40 MLOAD DUP1 SWAP2 SUB SWAP1 LOG4 JUMPDEST POP POP JUMP JUMPDEST PUSH2 0xD4B DUP3 DUP3 PUSH2 0x82A JUMP JUMPDEST ISZERO PUSH2 0xE1E JUMPI PUSH1 0x0 DUP1 PUSH1 0x0 DUP5 DUP2 MSTORE PUSH1 0x20 ADD SWAP1 DUP2 MSTORE PUSH1 0x20 ADD PUSH1 0x0 KECCAK256 PUSH1 0x0 ADD PUSH1 0x0 DUP4 PUSH20 0xFFFFFFFFFFFFFFFFFFFFFFFFFFFFFFFFFFFFFFFF AND PUSH20 0xFFFFFFFFFFFFFFFFFFFFFFFFFFFFFFFFFFFFFFFF AND DUP2 MSTORE PUSH1 0x20 ADD SWAP1 DUP2 MSTORE PUSH1 0x20 ADD PUSH1 0x0 KECCAK256 PUSH1 0x0 PUSH2 0x100 EXP DUP2 SLOAD DUP2 PUSH1 0xFF MUL NOT AND SWAP1 DUP4 ISZERO ISZERO MUL OR SWAP1 SSTORE POP PUSH2 0xDC3 PUSH2 0xBBC JUMP JUMPDEST PUSH20 0xFFFFFFFFFFFFFFFFFFFFFFFFFFFFFFFFFFFFFFFF AND DUP2 PUSH20 0xFFFFFFFFFFFFFFFFFFFFFFFFFFFFFFFFFFFFFFFF AND DUP4 PUSH32 0xF6391F5C32D9C69D2A47EA670B442974B53935D1EDC7FD64EB21E047A839171B PUSH1 0x40 MLOAD PUSH1 0x40 MLOAD DUP1 SWAP2 SUB SWAP1 LOG4 JUMPDEST POP POP JUMP JUMPDEST PUSH1 0x60 PUSH1 0x0 PUSH1 0x2 DUP4 PUSH1 0x2 PUSH2 0xE35 SWAP2 SWAP1 PUSH2 0x176B JUMP JUMPDEST PUSH2 0xE3F SWAP2 SWAP1 PUSH2 0x1715 JUMP JUMPDEST PUSH8 0xFFFFFFFFFFFFFFFF DUP2 GT ISZERO PUSH2 0xE7E JUMPI PUSH32 0x4E487B7100000000000000000000000000000000000000000000000000000000 PUSH1 0x0 MSTORE PUSH1 0x41 PUSH1 0x4 MSTORE PUSH1 0x24 PUSH1 0x0 REVERT JUMPDEST PUSH1 0x40 MLOAD SWAP1 DUP1 DUP3 MSTORE DUP1 PUSH1 0x1F ADD PUSH1 0x1F NOT AND PUSH1 0x20 ADD DUP3 ADD PUSH1 0x40 MSTORE DUP1 ISZERO PUSH2 0xEB0 JUMPI DUP2 PUSH1 0x20 ADD PUSH1 0x1 DUP3 MUL DUP1 CALLDATASIZE DUP4 CALLDATACOPY DUP1 DUP3 ADD SWAP2 POP POP SWAP1 POP JUMPDEST POP SWAP1 POP PUSH32 0x3000000000000000000000000000000000000000000000000000000000000000 DUP2 PUSH1 0x0 DUP2 MLOAD DUP2 LT PUSH2 0xF0E JUMPI PUSH32 0x4E487B7100000000000000000000000000000000000000000000000000000000 PUSH1 0x0 MSTORE PUSH1 0x32 PUSH1 0x4 MSTORE PUSH1 0x24 PUSH1 0x0 REVERT JUMPDEST PUSH1 0x20 ADD ADD SWAP1 PUSH31 0xFFFFFFFFFFFFFFFFFFFFFFFFFFFFFFFFFFFFFFFFFFFFFFFFFFFFFFFFFFFFFF NOT AND SWAP1 DUP2 PUSH1 0x0 BYTE SWAP1 MSTORE8 POP PUSH32 0x7800000000000000000000000000000000000000000000000000000000000000 DUP2 PUSH1 0x1 DUP2 MLOAD DUP2 LT PUSH2 0xF98 JUMPI PUSH32 0x4E487B7100000000000000000000000000000000000000000000000000000000 PUSH1 0x0 MSTORE PUSH1 0x32 PUSH1 0x4 MSTORE PUSH1 0x24 PUSH1 0x0 REVERT JUMPDEST PUSH1 0x20 ADD ADD SWAP1 PUSH31 0xFFFFFFFFFFFFFFFFFFFFFFFFFFFFFFFFFFFFFFFFFFFFFFFFFFFFFFFFFFFFFF NOT AND SWAP1 DUP2 PUSH1 0x0 BYTE SWAP1 MSTORE8 POP PUSH1 0x0 PUSH1 0x1 DUP5 PUSH1 0x2 PUSH2 0xFD8 SWAP2 SWAP1 PUSH2 0x176B JUMP JUMPDEST PUSH2 0xFE2 SWAP2 SWAP1 PUSH2 0x1715 JUMP JUMPDEST SWAP1 POP JUMPDEST PUSH1 0x1 DUP2 GT ISZERO PUSH2 0x10CE JUMPI PUSH32 0x3031323334353637383961626364656600000000000000000000000000000000 PUSH1 0xF DUP7 AND PUSH1 0x10 DUP2 LT PUSH2 0x104A JUMPI PUSH32 0x4E487B7100000000000000000000000000000000000000000000000000000000 PUSH1 0x0 MSTORE PUSH1 0x32 PUSH1 0x4 MSTORE PUSH1 0x24 PUSH1 0x0 REVERT JUMPDEST BYTE PUSH1 0xF8 SHL DUP3 DUP3 DUP2 MLOAD DUP2 LT PUSH2 0x1087 JUMPI PUSH32 0x4E487B7100000000000000000000000000000000000000000000000000000000 PUSH1 0x0 MSTORE PUSH1 0x32 PUSH1 0x4 MSTORE PUSH1 0x24 PUSH1 0x0 REVERT JUMPDEST PUSH1 0x20 ADD ADD SWAP1 PUSH31 0xFFFFFFFFFFFFFFFFFFFFFFFFFFFFFFFFFFFFFFFFFFFFFFFFFFFFFFFFFFFFFF NOT AND SWAP1 DUP2 PUSH1 0x0 BYTE SWAP1 MSTORE8 POP PUSH1 0x4 DUP6 SWAP1 SHR SWAP5 POP DUP1 PUSH2 0x10C7 SWAP1 PUSH2 0x18AA JUMP JUMPDEST SWAP1 POP PUSH2 0xFE5 JUMP JUMPDEST POP PUSH1 0x0 DUP5 EQ PUSH2 0x1112 JUMPI PUSH1 0x40 MLOAD PUSH32 0x8C379A000000000000000000000000000000000000000000000000000000000 DUP2 MSTORE PUSH1 0x4 ADD PUSH2 0x1109 SWAP1 PUSH2 0x1653 JUMP JUMPDEST PUSH1 0x40 MLOAD DUP1 SWAP2 SUB SWAP1 REVERT JUMPDEST DUP1 SWAP2 POP POP SWAP3 SWAP2 POP POP JUMP JUMPDEST PUSH1 0x0 DUP2 CALLDATALOAD SWAP1 POP PUSH2 0x112B DUP2 PUSH2 0x1BA4 JUMP JUMPDEST SWAP3 SWAP2 POP POP JUMP JUMPDEST PUSH1 0x0 DUP2 MLOAD SWAP1 POP PUSH2 0x1140 DUP2 PUSH2 0x1BBB JUMP JUMPDEST SWAP3 SWAP2 POP POP JUMP JUMPDEST PUSH1 0x0 DUP2 CALLDATALOAD SWAP1 POP PUSH2 0x1155 DUP2 PUSH2 0x1BD2 JUMP JUMPDEST SWAP3 SWAP2 POP POP JUMP JUMPDEST PUSH1 0x0 DUP2 CALLDATALOAD SWAP1 POP PUSH2 0x116A DUP2 PUSH2 0x1BE9 JUMP JUMPDEST SWAP3 SWAP2 POP POP JUMP JUMPDEST PUSH1 0x0 DUP2 CALLDATALOAD SWAP1 POP PUSH2 0x117F DUP2 PUSH2 0x1C00 JUMP JUMPDEST SWAP3 SWAP2 POP POP JUMP JUMPDEST PUSH1 0x0 PUSH1 0x20 DUP3 DUP5 SUB SLT ISZERO PUSH2 0x1197 JUMPI PUSH1 0x0 DUP1 REVERT JUMPDEST PUSH1 0x0 PUSH2 0x11A5 DUP5 DUP3 DUP6 ADD PUSH2 0x111C JUMP JUMPDEST SWAP2 POP POP SWAP3 SWAP2 POP POP JUMP JUMPDEST PUSH1 0x0 DUP1 PUSH1 0x0 PUSH1 0x60 DUP5 DUP7 SUB SLT ISZERO PUSH2 0x11C3 JUMPI PUSH1 0x0 DUP1 REVERT JUMPDEST PUSH1 0x0 PUSH2 0x11D1 DUP7 DUP3 DUP8 ADD PUSH2 0x111C JUMP JUMPDEST SWAP4 POP POP PUSH1 0x20 PUSH2 0x11E2 DUP7 DUP3 DUP8 ADD PUSH2 0x111C JUMP JUMPDEST SWAP3 POP POP PUSH1 0x40 PUSH2 0x11F3 DUP7 DUP3 DUP8 ADD PUSH2 0x1170 JUMP JUMPDEST SWAP2 POP POP SWAP3 POP SWAP3 POP SWAP3 JUMP JUMPDEST PUSH1 0x0 DUP1 PUSH1 0x40 DUP4 DUP6 SUB SLT ISZERO PUSH2 0x1210 JUMPI PUSH1 0x0 DUP1 REVERT JUMPDEST PUSH1 0x0 PUSH2 0x121E DUP6 DUP3 DUP7 ADD PUSH2 0x111C JUMP JUMPDEST SWAP3 POP POP PUSH1 0x20 PUSH2 0x122F DUP6 DUP3 DUP7 ADD PUSH2 0x1170 JUMP JUMPDEST SWAP2 POP POP SWAP3 POP SWAP3 SWAP1 POP JUMP JUMPDEST PUSH1 0x0 PUSH1 0x20 DUP3 DUP5 SUB SLT ISZERO PUSH2 0x124B JUMPI PUSH1 0x0 DUP1 REVERT JUMPDEST PUSH1 0x0 PUSH2 0x1259 DUP5 DUP3 DUP6 ADD PUSH2 0x1131 JUMP JUMPDEST SWAP2 POP POP SWAP3 SWAP2 POP POP JUMP JUMPDEST PUSH1 0x0 PUSH1 0x20 DUP3 DUP5 SUB SLT ISZERO PUSH2 0x1274 JUMPI PUSH1 0x0 DUP1 REVERT JUMPDEST PUSH1 0x0 PUSH2 0x1282 DUP5 DUP3 DUP6 ADD PUSH2 0x1146 JUMP JUMPDEST SWAP2 POP POP SWAP3 SWAP2 POP POP JUMP JUMPDEST PUSH1 0x0 DUP1 PUSH1 0x40 DUP4 DUP6 SUB SLT ISZERO PUSH2 0x129E JUMPI PUSH1 0x0 DUP1 REVERT JUMPDEST PUSH1 0x0 PUSH2 0x12AC DUP6 DUP3 DUP7 ADD PUSH2 0x1146 JUMP JUMPDEST SWAP3 POP POP PUSH1 0x20 PUSH2 0x12BD DUP6 DUP3 DUP7 ADD PUSH2 0x111C JUMP JUMPDEST SWAP2 POP POP SWAP3 POP SWAP3 SWAP1 POP JUMP JUMPDEST PUSH1 0x0 PUSH1 0x20 DUP3 DUP5 SUB SLT ISZERO PUSH2 0x12D9 JUMPI PUSH1 0x0 DUP1 REVERT JUMPDEST PUSH1 0x0 PUSH2 0x12E7 DUP5 DUP3 DUP6 ADD PUSH2 0x115B JUMP JUMPDEST SWAP2 POP POP SWAP3 SWAP2 POP POP JUMP JUMPDEST PUSH1 0x0 PUSH1 0x20 DUP3 DUP5 SUB SLT ISZERO PUSH2 0x1302 JUMPI PUSH1 0x0 DUP1 REVERT JUMPDEST PUSH1 0x0 PUSH2 0x1310 DUP5 DUP3 DUP6 ADD PUSH2 0x1170 JUMP JUMPDEST SWAP2 POP POP SWAP3 SWAP2 POP POP JUMP JUMPDEST PUSH2 0x1322 DUP2 PUSH2 0x17F9 JUMP JUMPDEST DUP3 MSTORE POP POP JUMP JUMPDEST PUSH2 0x1339 PUSH2 0x1334 DUP3 PUSH2 0x17F9 JUMP JUMPDEST PUSH2 0x18D4 JUMP JUMPDEST DUP3 MSTORE POP POP JUMP JUMPDEST PUSH2 0x1348 DUP2 PUSH2 0x180B JUMP JUMPDEST DUP3 MSTORE POP POP JUMP JUMPDEST PUSH2 0x1357 DUP2 PUSH2 0x1817 JUMP JUMPDEST DUP3 MSTORE POP POP JUMP JUMPDEST PUSH1 0x0 PUSH2 0x1368 DUP3 PUSH2 0x16EE JUMP JUMPDEST PUSH2 0x1372 DUP2 DUP6 PUSH2 0x16F9 JUMP JUMPDEST SWAP4 POP PUSH2 0x1382 DUP2 DUP6 PUSH1 0x20 DUP7 ADD PUSH2 0x1877 JUMP JUMPDEST PUSH2 0x138B DUP2 PUSH2 0x1931 JUMP JUMPDEST DUP5 ADD SWAP2 POP POP SWAP3 SWAP2 POP POP JUMP JUMPDEST PUSH1 0x0 PUSH2 0x13A1 DUP3 PUSH2 0x16EE JUMP JUMPDEST PUSH2 0x13AB DUP2 DUP6 PUSH2 0x170A JUMP JUMPDEST SWAP4 POP PUSH2 0x13BB DUP2 DUP6 PUSH1 0x20 DUP7 ADD PUSH2 0x1877 JUMP JUMPDEST DUP1 DUP5 ADD SWAP2 POP POP SWAP3 SWAP2 POP POP JUMP JUMPDEST PUSH1 0x0 PUSH2 0x13D4 PUSH1 0x23 DUP4 PUSH2 0x16F9 JUMP JUMPDEST SWAP2 POP PUSH2 0x13DF DUP3 PUSH2 0x194F JUMP JUMPDEST PUSH1 0x40 DUP3 ADD SWAP1 POP SWAP2 SWAP1 POP JUMP JUMPDEST PUSH1 0x0 PUSH2 0x13F7 PUSH1 0x20 DUP4 PUSH2 0x16F9 JUMP JUMPDEST SWAP2 POP PUSH2 0x1402 DUP3 PUSH2 0x199E JUMP JUMPDEST PUSH1 0x20 DUP3 ADD SWAP1 POP SWAP2 SWAP1 POP JUMP JUMPDEST PUSH1 0x0 PUSH2 0x141A PUSH1 0x4A DUP4 PUSH2 0x16F9 JUMP JUMPDEST SWAP2 POP PUSH2 0x1425 DUP3 PUSH2 0x19C7 JUMP JUMPDEST PUSH1 0x60 DUP3 ADD SWAP1 POP SWAP2 SWAP1 POP JUMP JUMPDEST PUSH1 0x0 PUSH2 0x143D PUSH1 0x20 DUP4 PUSH2 0x170A JUMP JUMPDEST SWAP2 POP PUSH2 0x1448 DUP3 PUSH2 0x1A3C JUMP JUMPDEST PUSH1 0x20 DUP3 ADD SWAP1 POP SWAP2 SWAP1 POP JUMP JUMPDEST PUSH1 0x0 PUSH2 0x1460 PUSH1 0x17 DUP4 PUSH2 0x170A JUMP JUMPDEST SWAP2 POP PUSH2 0x146B DUP3 PUSH2 0x1A65 JUMP JUMPDEST PUSH1 0x17 DUP3 ADD SWAP1 POP SWAP2 SWAP1 POP JUMP JUMPDEST PUSH1 0x0 PUSH2 0x1483 PUSH1 0x2B DUP4 PUSH2 0x16F9 JUMP JUMPDEST SWAP2 POP PUSH2 0x148E DUP3 PUSH2 0x1A8E JUMP JUMPDEST PUSH1 0x40 DUP3 ADD SWAP1 POP SWAP2 SWAP1 POP JUMP JUMPDEST PUSH1 0x0 PUSH2 0x14A6 PUSH1 0x23 DUP4 PUSH2 0x170A JUMP JUMPDEST SWAP2 POP PUSH2 0x14B1 DUP3 PUSH2 0x1ADD JUMP JUMPDEST PUSH1 0x23 DUP3 ADD SWAP1 POP SWAP2 SWAP1 POP JUMP JUMPDEST PUSH1 0x0 PUSH2 0x14C9 PUSH1 0x11 DUP4 PUSH2 0x170A JUMP JUMPDEST SWAP2 POP PUSH2 0x14D4 DUP3 PUSH2 0x1B2C JUMP JUMPDEST PUSH1 0x11 DUP3 ADD SWAP1 POP SWAP2 SWAP1 POP JUMP JUMPDEST PUSH1 0x0 PUSH2 0x14EC PUSH1 0x2F DUP4 PUSH2 0x16F9 JUMP JUMPDEST SWAP2 POP PUSH2 0x14F7 DUP3 PUSH2 0x1B55 JUMP JUMPDEST PUSH1 0x40 DUP3 ADD SWAP1 POP SWAP2 SWAP1 POP JUMP JUMPDEST PUSH2 0x150B DUP2 PUSH2 0x186D JUMP JUMPDEST DUP3 MSTORE POP POP JUMP JUMPDEST PUSH2 0x1522 PUSH2 0x151D DUP3 PUSH2 0x186D JUMP JUMPDEST PUSH2 0x18F8 JUMP JUMPDEST DUP3 MSTORE POP POP JUMP JUMPDEST PUSH1 0x0 PUSH2 0x1533 DUP3 PUSH2 0x1430 JUMP JUMPDEST SWAP2 POP PUSH2 0x153F DUP3 DUP6 PUSH2 0x1328 JUMP JUMPDEST PUSH1 0x14 DUP3 ADD SWAP2 POP PUSH2 0x154E DUP3 PUSH2 0x1499 JUMP JUMPDEST SWAP2 POP PUSH2 0x155A DUP3 DUP5 PUSH2 0x1511 JUMP JUMPDEST PUSH1 0x20 DUP3 ADD SWAP2 POP DUP2 SWAP1 POP SWAP4 SWAP3 POP POP POP JUMP JUMPDEST PUSH1 0x0 PUSH2 0x1575 DUP3 PUSH2 0x1453 JUMP JUMPDEST SWAP2 POP PUSH2 0x1581 DUP3 DUP6 PUSH2 0x1396 JUMP JUMPDEST SWAP2 POP PUSH2 0x158C DUP3 PUSH2 0x14BC JUMP JUMPDEST SWAP2 POP PUSH2 0x1598 DUP3 DUP5 PUSH2 0x1396 JUMP JUMPDEST SWAP2 POP DUP2 SWAP1 POP SWAP4 SWAP3 POP POP POP JUMP JUMPDEST PUSH1 0x0 PUSH1 0x60 DUP3 ADD SWAP1 POP PUSH2 0x15B9 PUSH1 0x0 DUP4 ADD DUP7 PUSH2 0x1319 JUMP JUMPDEST PUSH2 0x15C6 PUSH1 0x20 DUP4 ADD DUP6 PUSH2 0x1319 JUMP JUMPDEST PUSH2 0x15D3 PUSH1 0x40 DUP4 ADD DUP5 PUSH2 0x1502 JUMP JUMPDEST SWAP5 SWAP4 POP POP POP POP JUMP JUMPDEST PUSH1 0x0 PUSH1 0x20 DUP3 ADD SWAP1 POP PUSH2 0x15F0 PUSH1 0x0 DUP4 ADD DUP5 PUSH2 0x133F JUMP JUMPDEST SWAP3 SWAP2 POP POP JUMP JUMPDEST PUSH1 0x0 PUSH1 0x20 DUP3 ADD SWAP1 POP PUSH2 0x160B PUSH1 0x0 DUP4 ADD DUP5 PUSH2 0x134E JUMP JUMPDEST SWAP3 SWAP2 POP POP JUMP JUMPDEST PUSH1 0x0 PUSH1 0x20 DUP3 ADD SWAP1 POP DUP2 DUP2 SUB PUSH1 0x0 DUP4 ADD MSTORE PUSH2 0x162B DUP2 DUP5 PUSH2 0x135D JUMP JUMPDEST SWAP1 POP SWAP3 SWAP2 POP POP JUMP JUMPDEST PUSH1 0x0 PUSH1 0x20 DUP3 ADD SWAP1 POP DUP2 DUP2 SUB PUSH1 0x0 DUP4 ADD MSTORE PUSH2 0x164C DUP2 PUSH2 0x13C7 JUMP JUMPDEST SWAP1 POP SWAP2 SWAP1 POP JUMP JUMPDEST PUSH1 0x0 PUSH1 0x20 DUP3 ADD SWAP1 POP DUP2 DUP2 SUB PUSH1 0x0 DUP4 ADD MSTORE PUSH2 0x166C DUP2 PUSH2 0x13EA JUMP JUMPDEST SWAP1 POP SWAP2 SWAP1 POP JUMP JUMPDEST PUSH1 0x0 PUSH1 0x20 DUP3 ADD SWAP1 POP DUP2 DUP2 SUB PUSH1 0x0 DUP4 ADD MSTORE PUSH2 0x168C DUP2 PUSH2 0x140D JUMP JUMPDEST SWAP1 POP SWAP2 SWAP1 POP JUMP JUMPDEST PUSH1 0x0 PUSH1 0x20 DUP3 ADD SWAP1 POP DUP2 DUP2 SUB PUSH1 0x0 DUP4 ADD MSTORE PUSH2 0x16AC DUP2 PUSH2 0x1476 JUMP JUMPDEST SWAP1 POP SWAP2 SWAP1 POP JUMP JUMPDEST PUSH1 0x0 PUSH1 0x20 DUP3 ADD SWAP1 POP DUP2 DUP2 SUB PUSH1 0x0 DUP4 ADD MSTORE PUSH2 0x16CC DUP2 PUSH2 0x14DF JUMP JUMPDEST SWAP1 POP SWAP2 SWAP1 POP JUMP JUMPDEST PUSH1 0x0 PUSH1 0x20 DUP3 ADD SWAP1 POP PUSH2 0x16E8 PUSH1 0x0 DUP4 ADD DUP5 PUSH2 0x1502 JUMP JUMPDEST SWAP3 SWAP2 POP POP JUMP JUMPDEST PUSH1 0x0 DUP2 MLOAD SWAP1 POP SWAP2 SWAP1 POP JUMP JUMPDEST PUSH1 0x0 DUP3 DUP3 MSTORE PUSH1 0x20 DUP3 ADD SWAP1 POP SWAP3 SWAP2 POP POP JUMP JUMPDEST PUSH1 0x0 DUP2 SWAP1 POP SWAP3 SWAP2 POP POP JUMP JUMPDEST PUSH1 0x0 PUSH2 0x1720 DUP3 PUSH2 0x186D JUMP JUMPDEST SWAP2 POP PUSH2 0x172B DUP4 PUSH2 0x186D JUMP JUMPDEST SWAP3 POP DUP3 PUSH32 0xFFFFFFFFFFFFFFFFFFFFFFFFFFFFFFFFFFFFFFFFFFFFFFFFFFFFFFFFFFFFFFFF SUB DUP3 GT ISZERO PUSH2 0x1760 JUMPI PUSH2 0x175F PUSH2 0x1902 JUMP JUMPDEST JUMPDEST DUP3 DUP3 ADD SWAP1 POP SWAP3 SWAP2 POP POP JUMP JUMPDEST PUSH1 0x0 PUSH2 0x1776 DUP3 PUSH2 0x186D JUMP JUMPDEST SWAP2 POP PUSH2 0x1781 DUP4 PUSH2 0x186D JUMP JUMPDEST SWAP3 POP DUP2 PUSH32 0xFFFFFFFFFFFFFFFFFFFFFFFFFFFFFFFFFFFFFFFFFFFFFFFFFFFFFFFFFFFFFFFF DIV DUP4 GT DUP3 ISZERO ISZERO AND ISZERO PUSH2 0x17BA JUMPI PUSH2 0x17B9 PUSH2 0x1902 JUMP JUMPDEST JUMPDEST DUP3 DUP3 MUL SWAP1 POP SWAP3 SWAP2 POP POP JUMP JUMPDEST PUSH1 0x0 PUSH2 0x17D0 DUP3 PUSH2 0x186D JUMP JUMPDEST SWAP2 POP PUSH2 0x17DB DUP4 PUSH2 0x186D JUMP JUMPDEST SWAP3 POP DUP3 DUP3 LT ISZERO PUSH2 0x17EE JUMPI PUSH2 0x17ED PUSH2 0x1902 JUMP JUMPDEST JUMPDEST DUP3 DUP3 SUB SWAP1 POP SWAP3 SWAP2 POP POP JUMP JUMPDEST PUSH1 0x0 PUSH2 0x1804 DUP3 PUSH2 0x184D JUMP JUMPDEST SWAP1 POP SWAP2 SWAP1 POP JUMP JUMPDEST PUSH1 0x0 DUP2 ISZERO ISZERO SWAP1 POP SWAP2 SWAP1 POP JUMP JUMPDEST PUSH1 0x0 DUP2 SWAP1 POP SWAP2 SWAP1 POP JUMP JUMPDEST PUSH1 0x0 PUSH32 0xFFFFFFFF00000000000000000000000000000000000000000000000000000000 DUP3 AND SWAP1 POP SWAP2 SWAP1 POP JUMP JUMPDEST PUSH1 0x0 PUSH20 0xFFFFFFFFFFFFFFFFFFFFFFFFFFFFFFFFFFFFFFFF DUP3 AND SWAP1 POP SWAP2 SWAP1 POP JUMP JUMPDEST PUSH1 0x0 DUP2 SWAP1 POP SWAP2 SWAP1 POP JUMP JUMPDEST PUSH1 0x0 JUMPDEST DUP4 DUP2 LT ISZERO PUSH2 0x1895 JUMPI DUP1 DUP3 ADD MLOAD DUP2 DUP5 ADD MSTORE PUSH1 0x20 DUP2 ADD SWAP1 POP PUSH2 0x187A JUMP JUMPDEST DUP4 DUP2 GT ISZERO PUSH2 0x18A4 JUMPI PUSH1 0x0 DUP5 DUP5 ADD MSTORE JUMPDEST POP POP POP POP JUMP JUMPDEST PUSH1 0x0 PUSH2 0x18B5 DUP3 PUSH2 0x186D JUMP JUMPDEST SWAP2 POP PUSH1 0x0 DUP3 EQ ISZERO PUSH2 0x18C9 JUMPI PUSH2 0x18C8 PUSH2 0x1902 JUMP JUMPDEST JUMPDEST PUSH1 0x1 DUP3 SUB SWAP1 POP SWAP2 SWAP1 POP JUMP JUMPDEST PUSH1 0x0 PUSH2 0x18DF DUP3 PUSH2 0x18E6 JUMP JUMPDEST SWAP1 POP SWAP2 SWAP1 POP JUMP JUMPDEST PUSH1 0x0 PUSH2 0x18F1 DUP3 PUSH2 0x1942 JUMP JUMPDEST SWAP1 POP SWAP2 SWAP1 POP JUMP JUMPDEST PUSH1 0x0 DUP2 SWAP1 POP SWAP2 SWAP1 POP JUMP JUMPDEST PUSH32 0x4E487B7100000000000000000000000000000000000000000000000000000000 PUSH1 0x0 MSTORE PUSH1 0x11 PUSH1 0x4 MSTORE PUSH1 0x24 PUSH1 0x0 REVERT JUMPDEST PUSH1 0x0 PUSH1 0x1F NOT PUSH1 0x1F DUP4 ADD AND SWAP1 POP SWAP2 SWAP1 POP JUMP JUMPDEST PUSH1 0x0 DUP2 PUSH1 0x60 SHL SWAP1 POP SWAP2 SWAP1 POP JUMP JUMPDEST PUSH32 0x53656E646572206973206E6F742055534443204D616E61676572206F72204164 PUSH1 0x0 DUP3 ADD MSTORE PUSH32 0x6D696E0000000000000000000000000000000000000000000000000000000000 PUSH1 0x20 DUP3 ADD MSTORE POP JUMP JUMPDEST PUSH32 0x537472696E67733A20686578206C656E67746820696E73756666696369656E74 PUSH1 0x0 DUP3 ADD MSTORE POP JUMP JUMPDEST PUSH32 0x6D757374207570646174652074686520555344432062616C616E636520776974 PUSH1 0x0 DUP3 ADD MSTORE PUSH32 0x6820612028706F736974697665206F72206E6567617469766529206E6F6E2D7A PUSH1 0x20 DUP3 ADD MSTORE PUSH32 0x65726F20616D6F756E7400000000000000000000000000000000000000000000 PUSH1 0x40 DUP3 ADD MSTORE POP JUMP JUMPDEST PUSH32 0x63616E6E6F7420646563726561736520555344432062616C616E6365206F6620 PUSH1 0x0 DUP3 ADD MSTORE POP JUMP JUMPDEST PUSH32 0x416363657373436F6E74726F6C3A206163636F756E7420000000000000000000 PUSH1 0x0 DUP3 ADD MSTORE POP JUMP JUMPDEST PUSH32 0x616D6F756E74207472616E73666572726564206D757374206265206120706F73 PUSH1 0x0 DUP3 ADD MSTORE PUSH32 0x69746976652076616C7565000000000000000000000000000000000000000000 PUSH1 0x20 DUP3 ADD MSTORE POP JUMP JUMPDEST PUSH32 0x206279206D6F7265207468616E20746865206578697374696E672062616C616E PUSH1 0x0 DUP3 ADD MSTORE PUSH32 0x6365200000000000000000000000000000000000000000000000000000000000 PUSH1 0x20 DUP3 ADD MSTORE POP JUMP JUMPDEST PUSH32 0x206973206D697373696E6720726F6C6520000000000000000000000000000000 PUSH1 0x0 DUP3 ADD MSTORE POP JUMP JUMPDEST PUSH32 0x416363657373436F6E74726F6C3A2063616E206F6E6C792072656E6F756E6365 PUSH1 0x0 DUP3 ADD MSTORE PUSH32 0x20726F6C657320666F722073656C660000000000000000000000000000000000 PUSH1 0x20 DUP3 ADD MSTORE POP JUMP JUMPDEST PUSH2 0x1BAD DUP2 PUSH2 0x17F9 JUMP JUMPDEST DUP2 EQ PUSH2 0x1BB8 JUMPI PUSH1 0x0 DUP1 REVERT JUMPDEST POP JUMP JUMPDEST PUSH2 0x1BC4 DUP2 PUSH2 0x180B JUMP JUMPDEST DUP2 EQ PUSH2 0x1BCF JUMPI PUSH1 0x0 DUP1 REVERT JUMPDEST POP JUMP JUMPDEST PUSH2 0x1BDB DUP2 PUSH2 0x1817 JUMP JUMPDEST DUP2 EQ PUSH2 0x1BE6 JUMPI PUSH1 0x0 DUP1 REVERT JUMPDEST POP JUMP JUMPDEST PUSH2 0x1BF2 DUP2 PUSH2 0x1821 JUMP JUMPDEST DUP2 EQ PUSH2 0x1BFD JUMPI PUSH1 0x0 DUP1 REVERT JUMPDEST POP JUMP JUMPDEST PUSH2 0x1C09 DUP2 PUSH2 0x186D JUMP JUMPDEST DUP2 EQ PUSH2 0x1C14 JUMPI PUSH1 0x0 DUP1 REVERT JUMPDEST POP JUMP INVALID LOG2 PUSH5 0x6970667358 0x22 SLT KECCAK256 0xF7 0xDD 0x2E MOD 0xEB 0xD8 0xD XOR 0x1E TIMESTAMP DUP6 SLOAD SWAP2 PUSH10 0xDA637195B127060D9207 GT RETURNDATASIZE SWAP15 0x24 EXTCODESIZE 0x5E 0x4F RETURNDATASIZE PUSH5 0x736F6C6343 STOP ADDMOD ADD STOP CALLER "
				},
				"gasEstimates": {
					"creation": {
						"codeDepositCost": "1449000",
						"executionCost": "22380",
						"totalCost": "1471380"
					},
					"external": {
						"DEFAULT_ADMIN_ROLE()": "424",
						"USDC_MANAGER_ROLE()": "375",
						"decreaseUsdcBalance(address,uint256)": "infinite",
						"getRoleAdmin(bytes32)": "infinite",
						"getUsdcBalance(address)": "1586",
						"grantRole(bytes32,address)": "infinite",
						"hasRole(bytes32,address)": "1907",
						"increaseUsdcBalance(address,uint256)": "infinite",
						"receiveUSDC(uint256)": "infinite",
						"refundUsdcTo(address,uint256)": "infinite",
						"renounceRole(bytes32,address)": "infinite",
						"revokeRole(bytes32,address)": "infinite",
						"supportsInterface(bytes4)": "751",
						"transferUsdcBalance(address,address,uint256)": "infinite",
						"usdcBalances(address)": "1536"
					}
				},
				"methodIdentifiers": {
					"DEFAULT_ADMIN_ROLE()": "a217fddf",
					"USDC_MANAGER_ROLE()": "075060cd",
					"decreaseUsdcBalance(address,uint256)": "532b2913",
					"getRoleAdmin(bytes32)": "248a9ca3",
					"getUsdcBalance(address)": "69b49adc",
					"grantRole(bytes32,address)": "2f2ff15d",
					"hasRole(bytes32,address)": "91d14854",
					"increaseUsdcBalance(address,uint256)": "bf006f0e",
					"receiveUSDC(uint256)": "ddb4acd0",
					"refundUsdcTo(address,uint256)": "45ad5350",
					"renounceRole(bytes32,address)": "36568abe",
					"revokeRole(bytes32,address)": "d547741f",
					"supportsInterface(bytes4)": "01ffc9a7",
					"transferUsdcBalance(address,address,uint256)": "441b1a44",
					"usdcBalances(address)": "a99c68c5"
				}
			},
			"storageLayout": {
				"storage": [
					{
						"astId": 24,
						"contract": "contracts/USDC Escrow Storage.sol:UsdcEscrowStorage",
						"label": "_roles",
						"offset": 0,
						"slot": "0",
						"type": "t_mapping(t_bytes32,t_struct(RoleData)19_storage)"
					},
					{
						"astId": 743,
						"contract": "contracts/USDC Escrow Storage.sol:UsdcEscrowStorage",
						"label": "usdcToken",
						"offset": 0,
						"slot": "1",
						"type": "t_contract(IERC20)462"
					},
					{
						"astId": 747,
						"contract": "contracts/USDC Escrow Storage.sol:UsdcEscrowStorage",
						"label": "usdcBalances",
						"offset": 0,
						"slot": "2",
						"type": "t_mapping(t_address,t_uint256)"
					}
				],
				"types": {
					"t_address": {
						"encoding": "inplace",
						"label": "address",
						"numberOfBytes": "20"
					},
					"t_bool": {
						"encoding": "inplace",
						"label": "bool",
						"numberOfBytes": "1"
					},
					"t_bytes32": {
						"encoding": "inplace",
						"label": "bytes32",
						"numberOfBytes": "32"
					},
					"t_contract(IERC20)462": {
						"encoding": "inplace",
						"label": "contract IERC20",
						"numberOfBytes": "20"
					},
					"t_mapping(t_address,t_bool)": {
						"encoding": "mapping",
						"key": "t_address",
						"label": "mapping(address => bool)",
						"numberOfBytes": "32",
						"value": "t_bool"
					},
					"t_mapping(t_address,t_uint256)": {
						"encoding": "mapping",
						"key": "t_address",
						"label": "mapping(address => uint256)",
						"numberOfBytes": "32",
						"value": "t_uint256"
					},
					"t_mapping(t_bytes32,t_struct(RoleData)19_storage)": {
						"encoding": "mapping",
						"key": "t_bytes32",
						"label": "mapping(bytes32 => struct AccessControl.RoleData)",
						"numberOfBytes": "32",
						"value": "t_struct(RoleData)19_storage"
					},
					"t_struct(RoleData)19_storage": {
						"encoding": "inplace",
						"label": "struct AccessControl.RoleData",
						"members": [
							{
								"astId": 16,
								"contract": "contracts/USDC Escrow Storage.sol:UsdcEscrowStorage",
								"label": "members",
								"offset": 0,
								"slot": "0",
								"type": "t_mapping(t_address,t_bool)"
							},
							{
								"astId": 18,
								"contract": "contracts/USDC Escrow Storage.sol:UsdcEscrowStorage",
								"label": "adminRole",
								"offset": 0,
								"slot": "1",
								"type": "t_bytes32"
							}
						],
						"numberOfBytes": "64"
					},
					"t_uint256": {
						"encoding": "inplace",
						"label": "uint256",
						"numberOfBytes": "32"
					}
				}
			},
			"userdoc": {
				"kind": "user",
				"methods": {},
				"version": 1
			}
		}
	}
}