{
	"contracts/Founding Citizens NFT Sale Privileged Buyers List Storage.sol": {
		"PrivilegedListStorage": {
			"abi": [
				{
					"anonymous": false,
					"inputs": [
						{
							"indexed": true,
							"internalType": "address",
							"name": "previousOwner",
							"type": "address"
						},
						{
							"indexed": true,
							"internalType": "address",
							"name": "newOwner",
							"type": "address"
						}
					],
					"name": "OwnershipTransferred",
					"type": "event"
				},
				{
					"inputs": [
						{
							"internalType": "address",
							"name": "address_",
							"type": "address"
						}
					],
					"name": "addAddress",
					"outputs": [],
					"stateMutability": "nonpayable",
					"type": "function"
				},
				{
					"inputs": [
						{
							"internalType": "address",
							"name": "address_",
							"type": "address"
						},
						{
							"internalType": "uint256",
							"name": "discountRate",
							"type": "uint256"
						},
						{
							"internalType": "uint256",
							"name": "numberOfUses",
							"type": "uint256"
						}
					],
					"name": "addCoupon",
					"outputs": [],
					"stateMutability": "nonpayable",
					"type": "function"
				},
				{
					"inputs": [
						{
							"internalType": "address",
							"name": "address_",
							"type": "address"
						}
					],
					"name": "addressExists",
					"outputs": [
						{
							"internalType": "bool",
							"name": "",
							"type": "bool"
						}
					],
					"stateMutability": "view",
					"type": "function"
				},
				{
					"inputs": [
						{
							"internalType": "address",
							"name": "address_",
							"type": "address"
						}
					],
					"name": "addressHasCoupon",
					"outputs": [
						{
							"internalType": "bool",
							"name": "",
							"type": "bool"
						}
					],
					"stateMutability": "view",
					"type": "function"
				},
				{
					"inputs": [],
					"name": "addressList",
					"outputs": [
						{
							"internalType": "uint256",
							"name": "length",
							"type": "uint256"
						}
					],
					"stateMutability": "view",
					"type": "function"
				},
				{
					"inputs": [
						{
							"internalType": "address",
							"name": "address_",
							"type": "address"
						}
					],
					"name": "couponListLength",
					"outputs": [
						{
							"internalType": "uint256",
							"name": "",
							"type": "uint256"
						}
					],
					"stateMutability": "view",
					"type": "function"
				},
				{
					"inputs": [],
					"name": "owner",
					"outputs": [
						{
							"internalType": "address",
							"name": "",
							"type": "address"
						}
					],
					"stateMutability": "view",
					"type": "function"
				},
				{
					"inputs": [
						{
							"internalType": "address",
							"name": "address_",
							"type": "address"
						},
						{
							"internalType": "uint256",
							"name": "discountRate",
							"type": "uint256"
						},
						{
							"internalType": "uint256",
							"name": "numberOfUses",
							"type": "uint256"
						}
					],
					"name": "reduceCouponUses",
					"outputs": [],
					"stateMutability": "nonpayable",
					"type": "function"
				},
				{
					"inputs": [
						{
							"internalType": "address",
							"name": "address_",
							"type": "address"
						}
					],
					"name": "removeAddress",
					"outputs": [],
					"stateMutability": "nonpayable",
					"type": "function"
				},
				{
					"inputs": [
						{
							"internalType": "address",
							"name": "address_",
							"type": "address"
						},
						{
							"internalType": "uint256",
							"name": "discountRate",
							"type": "uint256"
						}
					],
					"name": "removeCoupon",
					"outputs": [],
					"stateMutability": "nonpayable",
					"type": "function"
				},
				{
					"inputs": [],
					"name": "renounceOwnership",
					"outputs": [],
					"stateMutability": "nonpayable",
					"type": "function"
				},
				{
					"inputs": [
						{
							"internalType": "address",
							"name": "newOwner",
							"type": "address"
						}
					],
					"name": "transferOwnership",
					"outputs": [],
					"stateMutability": "nonpayable",
					"type": "function"
				},
				{
					"inputs": [
						{
							"internalType": "address",
							"name": "address_",
							"type": "address"
						},
						{
							"internalType": "uint256",
							"name": "discountRate",
							"type": "uint256"
						}
					],
					"name": "useCoupon",
					"outputs": [],
					"stateMutability": "nonpayable",
					"type": "function"
				}
			],
			"devdoc": {
				"kind": "dev",
				"methods": {
					"owner()": {
						"details": "Returns the address of the current owner."
					},
					"renounceOwnership()": {
						"details": "Leaves the contract without owner. It will not be possible to call `onlyOwner` functions anymore. Can only be called by the current owner. NOTE: Renouncing ownership will leave the contract without an owner, thereby removing any functionality that is only available to the owner."
					},
					"transferOwnership(address)": {
						"details": "Transfers ownership of the contract to a new account (`newOwner`). Can only be called by the current owner."
					}
				},
				"version": 1
			},
			"evm": {
				"assembly": "    /* \"contracts/Founding Citizens NFT Sale Privileged Buyers List Storage.sol\":1746:5608  contract PrivilegedListStorage is Ownable {\r... */\n  mstore(0x40, 0x80)\n  callvalue\n  dup1\n  iszero\n  tag_1\n  jumpi\n  0x00\n  dup1\n  revert\ntag_1:\n  pop\n    /* \"@openzeppelin/contracts@4.4.2/access/Ownable.sol\":921:953  _transferOwnership(_msgSender()) */\n  tag_4\n    /* \"@openzeppelin/contracts@4.4.2/access/Ownable.sol\":940:952  _msgSender() */\n  tag_5\n    /* \"@openzeppelin/contracts@4.4.2/access/Ownable.sol\":940:950  _msgSender */\n  shl(0x20, tag_6)\n    /* \"@openzeppelin/contracts@4.4.2/access/Ownable.sol\":940:952  _msgSender() */\n  0x20\n  shr\n  jump\t// in\ntag_5:\n    /* \"@openzeppelin/contracts@4.4.2/access/Ownable.sol\":921:939  _transferOwnership */\n  shl(0x20, tag_7)\n    /* \"@openzeppelin/contracts@4.4.2/access/Ownable.sol\":921:953  _transferOwnership(_msgSender()) */\n  0x20\n  shr\n  jump\t// in\ntag_4:\n    /* \"contracts/Founding Citizens NFT Sale Privileged Buyers List Storage.sol\":1746:5608  contract PrivilegedListStorage is Ownable {\r... */\n  jump(tag_8)\n    /* \"@openzeppelin/contracts@4.4.2/utils/Context.sol\":640:736  function _msgSender() internal view virtual returns (address) {... */\ntag_6:\n    /* \"@openzeppelin/contracts@4.4.2/utils/Context.sol\":693:700  address */\n  0x00\n    /* \"@openzeppelin/contracts@4.4.2/utils/Context.sol\":719:729  msg.sender */\n  caller\n    /* \"@openzeppelin/contracts@4.4.2/utils/Context.sol\":712:729  return msg.sender */\n  swap1\n  pop\n    /* \"@openzeppelin/contracts@4.4.2/utils/Context.sol\":640:736  function _msgSender() internal view virtual returns (address) {... */\n  swap1\n  jump\t// out\n    /* \"@openzeppelin/contracts@4.4.2/access/Ownable.sol\":2270:2457  function _transferOwnership(address newOwner) internal virtual {... */\ntag_7:\n    /* \"@openzeppelin/contracts@4.4.2/access/Ownable.sol\":2343:2359  address oldOwner */\n  0x00\n    /* \"@openzeppelin/contracts@4.4.2/access/Ownable.sol\":2362:2368  _owner */\n  dup1\n  0x00\n  swap1\n  sload\n  swap1\n  0x0100\n  exp\n  swap1\n  div\n  0xffffffffffffffffffffffffffffffffffffffff\n  and\n    /* \"@openzeppelin/contracts@4.4.2/access/Ownable.sol\":2343:2368  address oldOwner = _owner */\n  swap1\n  pop\n    /* \"@openzeppelin/contracts@4.4.2/access/Ownable.sol\":2387:2395  newOwner */\n  dup2\n    /* \"@openzeppelin/contracts@4.4.2/access/Ownable.sol\":2378:2384  _owner */\n  0x00\n  dup1\n    /* \"@openzeppelin/contracts@4.4.2/access/Ownable.sol\":2378:2395  _owner = newOwner */\n  0x0100\n  exp\n  dup2\n  sload\n  dup2\n  0xffffffffffffffffffffffffffffffffffffffff\n  mul\n  not\n  and\n  swap1\n  dup4\n  0xffffffffffffffffffffffffffffffffffffffff\n  and\n  mul\n  or\n  swap1\n  sstore\n  pop\n    /* \"@openzeppelin/contracts@4.4.2/access/Ownable.sol\":2441:2449  newOwner */\n  dup2\n    /* \"@openzeppelin/contracts@4.4.2/access/Ownable.sol\":2410:2450  OwnershipTransferred(oldOwner, newOwner) */\n  0xffffffffffffffffffffffffffffffffffffffff\n  and\n    /* \"@openzeppelin/contracts@4.4.2/access/Ownable.sol\":2431:2439  oldOwner */\n  dup2\n    /* \"@openzeppelin/contracts@4.4.2/access/Ownable.sol\":2410:2450  OwnershipTransferred(oldOwner, newOwner) */\n  0xffffffffffffffffffffffffffffffffffffffff\n  and\n  0x8be0079c531659141344cd1fd0a4f28419497f9722a3daafe3b4186f6b6457e0\n  mload(0x40)\n  mload(0x40)\n  dup1\n  swap2\n  sub\n  swap1\n  log3\n    /* \"@openzeppelin/contracts@4.4.2/access/Ownable.sol\":2270:2457  function _transferOwnership(address newOwner) internal virtual {... */\n  pop\n  pop\n  jump\t// out\n    /* \"contracts/Founding Citizens NFT Sale Privileged Buyers List Storage.sol\":1746:5608  contract PrivilegedListStorage is Ownable {\r... */\ntag_8:\n  dataSize(sub_0)\n  dup1\n  dataOffset(sub_0)\n  0x00\n  codecopy\n  0x00\n  return\nstop\n\nsub_0: assembly {\n        /* \"contracts/Founding Citizens NFT Sale Privileged Buyers List Storage.sol\":1746:5608  contract PrivilegedListStorage is Ownable {\r... */\n      mstore(0x40, 0x80)\n      callvalue\n      dup1\n      iszero\n      tag_1\n      jumpi\n      0x00\n      dup1\n      revert\n    tag_1:\n      pop\n      jumpi(tag_2, lt(calldatasize, 0x04))\n      shr(0xe0, calldataload(0x00))\n      dup1\n      0x8da5cb5b\n      gt\n      tag_16\n      jumpi\n      dup1\n      0xc1eb6dfd\n      gt\n      tag_17\n      jumpi\n      dup1\n      0xc1eb6dfd\n      eq\n      tag_12\n      jumpi\n      dup1\n      0xe5bf7ffc\n      eq\n      tag_13\n      jumpi\n      dup1\n      0xf2fde38b\n      eq\n      tag_14\n      jumpi\n      dup1\n      0xf76da2a8\n      eq\n      tag_15\n      jumpi\n      jump(tag_2)\n    tag_17:\n      dup1\n      0x8da5cb5b\n      eq\n      tag_9\n      jumpi\n      dup1\n      0xa5025222\n      eq\n      tag_10\n      jumpi\n      dup1\n      0xc18ab7a2\n      eq\n      tag_11\n      jumpi\n      jump(tag_2)\n    tag_16:\n      dup1\n      0x38eada1c\n      eq\n      tag_3\n      jumpi\n      dup1\n      0x3c25c06b\n      eq\n      tag_4\n      jumpi\n      dup1\n      0x3edfcd2c\n      eq\n      tag_5\n      jumpi\n      dup1\n      0x4ba79dfe\n      eq\n      tag_6\n      jumpi\n      dup1\n      0x715018a6\n      eq\n      tag_7\n      jumpi\n      dup1\n      0x838324d9\n      eq\n      tag_8\n      jumpi\n    tag_2:\n      0x00\n      dup1\n      revert\n        /* \"contracts/Founding Citizens NFT Sale Privileged Buyers List Storage.sol\":2895:3162  function addAddress(address address_) public onlyOwner {\r... */\n    tag_3:\n      tag_18\n      0x04\n      dup1\n      calldatasize\n      sub\n      dup2\n      add\n      swap1\n      tag_19\n      swap2\n      swap1\n      tag_20\n      jump\t// in\n    tag_19:\n      tag_21\n      jump\t// in\n    tag_18:\n      stop\n        /* \"contracts/Founding Citizens NFT Sale Privileged Buyers List Storage.sol\":5051:5134  function useCoupon(address address_, uint discountRate) public onlyOwner {\r... */\n    tag_4:\n      tag_22\n      0x04\n      dup1\n      calldatasize\n      sub\n      dup2\n      add\n      swap1\n      tag_23\n      swap2\n      swap1\n      tag_24\n      jump\t// in\n    tag_23:\n      tag_25\n      jump\t// in\n    tag_22:\n      stop\n        /* \"contracts/Founding Citizens NFT Sale Privileged Buyers List Storage.sol\":3951:4716  function addCoupon(address address_, uint discountRate, uint numberOfUses) public onlyOwner {\r... */\n    tag_5:\n      tag_26\n      0x04\n      dup1\n      calldatasize\n      sub\n      dup2\n      add\n      swap1\n      tag_27\n      swap2\n      swap1\n      tag_28\n      jump\t// in\n    tag_27:\n      tag_29\n      jump\t// in\n    tag_26:\n      stop\n        /* \"contracts/Founding Citizens NFT Sale Privileged Buyers List Storage.sol\":3374:3943  function removeAddress(address address_) public onlyOwner {\r... */\n    tag_6:\n      tag_30\n      0x04\n      dup1\n      calldatasize\n      sub\n      dup2\n      add\n      swap1\n      tag_31\n      swap2\n      swap1\n      tag_20\n      jump\t// in\n    tag_31:\n      tag_32\n      jump\t// in\n    tag_30:\n      stop\n        /* \"@openzeppelin/contracts@4.4.2/access/Ownable.sol\":1668:1769  function renounceOwnership() public virtual onlyOwner {... */\n    tag_7:\n      tag_33\n      tag_34\n      jump\t// in\n    tag_33:\n      stop\n        /* \"contracts/Founding Citizens NFT Sale Privileged Buyers List Storage.sol\":2433:2586  function couponListLength(address address_) public view returns(uint) {\r... */\n    tag_8:\n      tag_35\n      0x04\n      dup1\n      calldatasize\n      sub\n      dup2\n      add\n      swap1\n      tag_36\n      swap2\n      swap1\n      tag_20\n      jump\t// in\n    tag_36:\n      tag_37\n      jump\t// in\n    tag_35:\n      mload(0x40)\n      tag_38\n      swap2\n      swap1\n      tag_39\n      jump\t// in\n    tag_38:\n      mload(0x40)\n      dup1\n      swap2\n      sub\n      swap1\n      return\n        /* \"@openzeppelin/contracts@4.4.2/access/Ownable.sol\":1036:1121  function owner() public view virtual returns (address) {... */\n    tag_9:\n      tag_40\n      tag_41\n      jump\t// in\n    tag_40:\n      mload(0x40)\n      tag_42\n      swap2\n      swap1\n      tag_43\n      jump\t// in\n    tag_42:\n      mload(0x40)\n      dup1\n      swap2\n      sub\n      swap1\n      return\n        /* \"contracts/Founding Citizens NFT Sale Privileged Buyers List Storage.sol\":2594:2719  function addressExists(address address_) public view returns(bool) {\r... */\n    tag_10:\n      tag_44\n      0x04\n      dup1\n      calldatasize\n      sub\n      dup2\n      add\n      swap1\n      tag_45\n      swap2\n      swap1\n      tag_20\n      jump\t// in\n    tag_45:\n      tag_46\n      jump\t// in\n    tag_44:\n      mload(0x40)\n      tag_47\n      swap2\n      swap1\n      tag_48\n      jump\t// in\n    tag_47:\n      mload(0x40)\n      dup1\n      swap2\n      sub\n      swap1\n      return\n        /* \"contracts/Founding Citizens NFT Sale Privileged Buyers List Storage.sol\":4934:5043  function reduceCouponUses(address address_, uint discountRate, uint numberOfUses) public onlyOwner {\r... */\n    tag_11:\n      tag_49\n      0x04\n      dup1\n      calldatasize\n      sub\n      dup2\n      add\n      swap1\n      tag_50\n      swap2\n      swap1\n      tag_28\n      jump\t// in\n    tag_50:\n      tag_51\n      jump\t// in\n    tag_49:\n      stop\n        /* \"contracts/Founding Citizens NFT Sale Privileged Buyers List Storage.sol\":2394:2424  AddressList public addressList */\n    tag_12:\n      tag_52\n      tag_53\n      jump\t// in\n    tag_52:\n      mload(0x40)\n      tag_54\n      swap2\n      swap1\n      tag_39\n      jump\t// in\n    tag_54:\n      mload(0x40)\n      dup1\n      swap2\n      sub\n      swap1\n      return\n        /* \"contracts/Founding Citizens NFT Sale Privileged Buyers List Storage.sol\":4724:4926  function removeCoupon(address address_, uint discountRate) public onlyOwner {\r... */\n    tag_13:\n      tag_55\n      0x04\n      dup1\n      calldatasize\n      sub\n      dup2\n      add\n      swap1\n      tag_56\n      swap2\n      swap1\n      tag_24\n      jump\t// in\n    tag_56:\n      tag_57\n      jump\t// in\n    tag_55:\n      stop\n        /* \"@openzeppelin/contracts@4.4.2/access/Ownable.sol\":1918:2116  function transferOwnership(address newOwner) public virtual onlyOwner {... */\n    tag_14:\n      tag_58\n      0x04\n      dup1\n      calldatasize\n      sub\n      dup2\n      add\n      swap1\n      tag_59\n      swap2\n      swap1\n      tag_20\n      jump\t// in\n    tag_59:\n      tag_60\n      jump\t// in\n    tag_58:\n      stop\n        /* \"contracts/Founding Citizens NFT Sale Privileged Buyers List Storage.sol\":2727:2887  function addressHasCoupon(address address_) public view returns(bool) {\r... */\n    tag_15:\n      tag_61\n      0x04\n      dup1\n      calldatasize\n      sub\n      dup2\n      add\n      swap1\n      tag_62\n      swap2\n      swap1\n      tag_20\n      jump\t// in\n    tag_62:\n      tag_63\n      jump\t// in\n    tag_61:\n      mload(0x40)\n      tag_64\n      swap2\n      swap1\n      tag_48\n      jump\t// in\n    tag_64:\n      mload(0x40)\n      dup1\n      swap2\n      sub\n      swap1\n      return\n        /* \"contracts/Founding Citizens NFT Sale Privileged Buyers List Storage.sol\":2895:3162  function addAddress(address address_) public onlyOwner {\r... */\n    tag_21:\n        /* \"@openzeppelin/contracts@4.4.2/access/Ownable.sol\":1259:1271  _msgSender() */\n      tag_66\n        /* \"@openzeppelin/contracts@4.4.2/access/Ownable.sol\":1259:1269  _msgSender */\n      tag_67\n        /* \"@openzeppelin/contracts@4.4.2/access/Ownable.sol\":1259:1271  _msgSender() */\n      jump\t// in\n    tag_66:\n        /* \"@openzeppelin/contracts@4.4.2/access/Ownable.sol\":1248:1271  owner() == _msgSender() */\n      0xffffffffffffffffffffffffffffffffffffffff\n      and\n        /* \"@openzeppelin/contracts@4.4.2/access/Ownable.sol\":1248:1255  owner() */\n      tag_68\n        /* \"@openzeppelin/contracts@4.4.2/access/Ownable.sol\":1248:1253  owner */\n      tag_41\n        /* \"@openzeppelin/contracts@4.4.2/access/Ownable.sol\":1248:1255  owner() */\n      jump\t// in\n    tag_68:\n        /* \"@openzeppelin/contracts@4.4.2/access/Ownable.sol\":1248:1271  owner() == _msgSender() */\n      0xffffffffffffffffffffffffffffffffffffffff\n      and\n      eq\n        /* \"@openzeppelin/contracts@4.4.2/access/Ownable.sol\":1240:1308  require(owner() == _msgSender(), \"Ownable: caller is not the owner\") */\n      tag_69\n      jumpi\n      mload(0x40)\n      0x08c379a000000000000000000000000000000000000000000000000000000000\n      dup2\n      mstore\n      0x04\n      add\n      tag_70\n      swap1\n      tag_71\n      jump\t// in\n    tag_70:\n      mload(0x40)\n      dup1\n      swap2\n      sub\n      swap1\n      revert\n    tag_69:\n        /* \"contracts/Founding Citizens NFT Sale Privileged Buyers List Storage.sol\":2961:2972  addressList */\n      0x01\n        /* \"contracts/Founding Citizens NFT Sale Privileged Buyers List Storage.sol\":2961:2979  addressList.length */\n      0x00\n      add\n      0x00\n        /* \"contracts/Founding Citizens NFT Sale Privileged Buyers List Storage.sol\":2961:2981  addressList.length++ */\n      dup2\n      sload\n      dup1\n      swap3\n      swap2\n      swap1\n      tag_73\n      swap1\n      tag_74\n      jump\t// in\n    tag_73:\n      swap2\n      swap1\n      pop\n      sstore\n      pop\n        /* \"contracts/Founding Citizens NFT Sale Privileged Buyers List Storage.sol\":3036:3044  address_ */\n      dup1\n        /* \"contracts/Founding Citizens NFT Sale Privileged Buyers List Storage.sol\":2992:3003  addressList */\n      0x01\n        /* \"contracts/Founding Citizens NFT Sale Privileged Buyers List Storage.sol\":2992:3013  addressList.addresses */\n      dup1\n      add\n        /* \"contracts/Founding Citizens NFT Sale Privileged Buyers List Storage.sol\":2992:3033  addressList.addresses[addressList.length] */\n      0x00\n        /* \"contracts/Founding Citizens NFT Sale Privileged Buyers List Storage.sol\":3014:3025  addressList */\n      0x01\n        /* \"contracts/Founding Citizens NFT Sale Privileged Buyers List Storage.sol\":3014:3032  addressList.length */\n      0x00\n      add\n      sload\n        /* \"contracts/Founding Citizens NFT Sale Privileged Buyers List Storage.sol\":2992:3033  addressList.addresses[addressList.length] */\n      dup2\n      mstore\n      0x20\n      add\n      swap1\n      dup2\n      mstore\n      0x20\n      add\n      0x00\n      keccak256\n      0x00\n        /* \"contracts/Founding Citizens NFT Sale Privileged Buyers List Storage.sol\":2992:3044  addressList.addresses[addressList.length] = address_ */\n      0x0100\n      exp\n      dup2\n      sload\n      dup2\n      0xffffffffffffffffffffffffffffffffffffffff\n      mul\n      not\n      and\n      swap1\n      dup4\n      0xffffffffffffffffffffffffffffffffffffffff\n      and\n      mul\n      or\n      swap1\n      sstore\n      pop\n        /* \"contracts/Founding Citizens NFT Sale Privileged Buyers List Storage.sol\":3136:3147  addressList */\n      0x01\n        /* \"contracts/Founding Citizens NFT Sale Privileged Buyers List Storage.sol\":3136:3154  addressList.length */\n      0x00\n      add\n      sload\n        /* \"contracts/Founding Citizens NFT Sale Privileged Buyers List Storage.sol\":3108:3119  addressList */\n      0x01\n        /* \"contracts/Founding Citizens NFT Sale Privileged Buyers List Storage.sol\":3108:3123  addressList.ids */\n      0x02\n      add\n        /* \"contracts/Founding Citizens NFT Sale Privileged Buyers List Storage.sol\":3108:3133  addressList.ids[address_] */\n      0x00\n        /* \"contracts/Founding Citizens NFT Sale Privileged Buyers List Storage.sol\":3124:3132  address_ */\n      dup4\n        /* \"contracts/Founding Citizens NFT Sale Privileged Buyers List Storage.sol\":3108:3133  addressList.ids[address_] */\n      0xffffffffffffffffffffffffffffffffffffffff\n      and\n      0xffffffffffffffffffffffffffffffffffffffff\n      and\n      dup2\n      mstore\n      0x20\n      add\n      swap1\n      dup2\n      mstore\n      0x20\n      add\n      0x00\n      keccak256\n        /* \"contracts/Founding Citizens NFT Sale Privileged Buyers List Storage.sol\":3108:3154  addressList.ids[address_] = addressList.length */\n      dup2\n      swap1\n      sstore\n      pop\n        /* \"contracts/Founding Citizens NFT Sale Privileged Buyers List Storage.sol\":2895:3162  function addAddress(address address_) public onlyOwner {\r... */\n      pop\n      jump\t// out\n        /* \"contracts/Founding Citizens NFT Sale Privileged Buyers List Storage.sol\":5051:5134  function useCoupon(address address_, uint discountRate) public onlyOwner {\r... */\n    tag_25:\n        /* \"@openzeppelin/contracts@4.4.2/access/Ownable.sol\":1259:1271  _msgSender() */\n      tag_76\n        /* \"@openzeppelin/contracts@4.4.2/access/Ownable.sol\":1259:1269  _msgSender */\n      tag_67\n        /* \"@openzeppelin/contracts@4.4.2/access/Ownable.sol\":1259:1271  _msgSender() */\n      jump\t// in\n    tag_76:\n        /* \"@openzeppelin/contracts@4.4.2/access/Ownable.sol\":1248:1271  owner() == _msgSender() */\n      0xffffffffffffffffffffffffffffffffffffffff\n      and\n        /* \"@openzeppelin/contracts@4.4.2/access/Ownable.sol\":1248:1255  owner() */\n      tag_77\n        /* \"@openzeppelin/contracts@4.4.2/access/Ownable.sol\":1248:1253  owner */\n      tag_41\n        /* \"@openzeppelin/contracts@4.4.2/access/Ownable.sol\":1248:1255  owner() */\n      jump\t// in\n    tag_77:\n        /* \"@openzeppelin/contracts@4.4.2/access/Ownable.sol\":1248:1271  owner() == _msgSender() */\n      0xffffffffffffffffffffffffffffffffffffffff\n      and\n      eq\n        /* \"@openzeppelin/contracts@4.4.2/access/Ownable.sol\":1240:1308  require(owner() == _msgSender(), \"Ownable: caller is not the owner\") */\n      tag_78\n      jumpi\n      mload(0x40)\n      0x08c379a000000000000000000000000000000000000000000000000000000000\n      dup2\n      mstore\n      0x04\n      add\n      tag_79\n      swap1\n      tag_71\n      jump\t// in\n    tag_79:\n      mload(0x40)\n      dup1\n      swap2\n      sub\n      swap1\n      revert\n    tag_78:\n        /* \"contracts/Founding Citizens NFT Sale Privileged Buyers List Storage.sol\":5051:5134  function useCoupon(address address_, uint discountRate) public onlyOwner {\r... */\n      pop\n      pop\n      jump\t// out\n        /* \"contracts/Founding Citizens NFT Sale Privileged Buyers List Storage.sol\":3951:4716  function addCoupon(address address_, uint discountRate, uint numberOfUses) public onlyOwner {\r... */\n    tag_29:\n        /* \"@openzeppelin/contracts@4.4.2/access/Ownable.sol\":1259:1271  _msgSender() */\n      tag_82\n        /* \"@openzeppelin/contracts@4.4.2/access/Ownable.sol\":1259:1269  _msgSender */\n      tag_67\n        /* \"@openzeppelin/contracts@4.4.2/access/Ownable.sol\":1259:1271  _msgSender() */\n      jump\t// in\n    tag_82:\n        /* \"@openzeppelin/contracts@4.4.2/access/Ownable.sol\":1248:1271  owner() == _msgSender() */\n      0xffffffffffffffffffffffffffffffffffffffff\n      and\n        /* \"@openzeppelin/contracts@4.4.2/access/Ownable.sol\":1248:1255  owner() */\n      tag_83\n        /* \"@openzeppelin/contracts@4.4.2/access/Ownable.sol\":1248:1253  owner */\n      tag_41\n        /* \"@openzeppelin/contracts@4.4.2/access/Ownable.sol\":1248:1255  owner() */\n      jump\t// in\n    tag_83:\n        /* \"@openzeppelin/contracts@4.4.2/access/Ownable.sol\":1248:1271  owner() == _msgSender() */\n      0xffffffffffffffffffffffffffffffffffffffff\n      and\n      eq\n        /* \"@openzeppelin/contracts@4.4.2/access/Ownable.sol\":1240:1308  require(owner() == _msgSender(), \"Ownable: caller is not the owner\") */\n      tag_84\n      jumpi\n      mload(0x40)\n      0x08c379a000000000000000000000000000000000000000000000000000000000\n      dup2\n      mstore\n      0x04\n      add\n      tag_85\n      swap1\n      tag_71\n      jump\t// in\n    tag_85:\n      mload(0x40)\n      dup1\n      swap2\n      sub\n      swap1\n      revert\n    tag_84:\n        /* \"contracts/Founding Citizens NFT Sale Privileged Buyers List Storage.sol\":4059:4082  addressExists(address_) */\n      tag_87\n        /* \"contracts/Founding Citizens NFT Sale Privileged Buyers List Storage.sol\":4073:4081  address_ */\n      dup4\n        /* \"contracts/Founding Citizens NFT Sale Privileged Buyers List Storage.sol\":4059:4072  addressExists */\n      tag_46\n        /* \"contracts/Founding Citizens NFT Sale Privileged Buyers List Storage.sol\":4059:4082  addressExists(address_) */\n      jump\t// in\n    tag_87:\n        /* \"contracts/Founding Citizens NFT Sale Privileged Buyers List Storage.sol\":4054:4131  if (!addressExists(address_)) {\r... */\n      tag_88\n      jumpi\n        /* \"contracts/Founding Citizens NFT Sale Privileged Buyers List Storage.sol\":4099:4119  addAddress(address_) */\n      tag_89\n        /* \"contracts/Founding Citizens NFT Sale Privileged Buyers List Storage.sol\":4110:4118  address_ */\n      dup4\n        /* \"contracts/Founding Citizens NFT Sale Privileged Buyers List Storage.sol\":4099:4109  addAddress */\n      tag_21\n        /* \"contracts/Founding Citizens NFT Sale Privileged Buyers List Storage.sol\":4099:4119  addAddress(address_) */\n      jump\t// in\n    tag_89:\n        /* \"contracts/Founding Citizens NFT Sale Privileged Buyers List Storage.sol\":4054:4131  if (!addressExists(address_)) {\r... */\n    tag_88:\n        /* \"contracts/Founding Citizens NFT Sale Privileged Buyers List Storage.sol\":4223:4234  addressList */\n      0x01\n        /* \"contracts/Founding Citizens NFT Sale Privileged Buyers List Storage.sol\":4223:4246  addressList.couponLists */\n      0x03\n      add\n        /* \"contracts/Founding Citizens NFT Sale Privileged Buyers List Storage.sol\":4223:4273  addressList.couponLists[addressList.ids[address_]] */\n      0x00\n        /* \"contracts/Founding Citizens NFT Sale Privileged Buyers List Storage.sol\":4247:4258  addressList */\n      0x01\n        /* \"contracts/Founding Citizens NFT Sale Privileged Buyers List Storage.sol\":4247:4262  addressList.ids */\n      0x02\n      add\n        /* \"contracts/Founding Citizens NFT Sale Privileged Buyers List Storage.sol\":4247:4272  addressList.ids[address_] */\n      0x00\n        /* \"contracts/Founding Citizens NFT Sale Privileged Buyers List Storage.sol\":4263:4271  address_ */\n      dup7\n        /* \"contracts/Founding Citizens NFT Sale Privileged Buyers List Storage.sol\":4247:4272  addressList.ids[address_] */\n      0xffffffffffffffffffffffffffffffffffffffff\n      and\n      0xffffffffffffffffffffffffffffffffffffffff\n      and\n      dup2\n      mstore\n      0x20\n      add\n      swap1\n      dup2\n      mstore\n      0x20\n      add\n      0x00\n      keccak256\n      sload\n        /* \"contracts/Founding Citizens NFT Sale Privileged Buyers List Storage.sol\":4223:4273  addressList.couponLists[addressList.ids[address_]] */\n      dup2\n      mstore\n      0x20\n      add\n      swap1\n      dup2\n      mstore\n      0x20\n      add\n      0x00\n      keccak256\n        /* \"contracts/Founding Citizens NFT Sale Privileged Buyers List Storage.sol\":4223:4280  addressList.couponLists[addressList.ids[address_]].length */\n      0x00\n      add\n      0x00\n        /* \"contracts/Founding Citizens NFT Sale Privileged Buyers List Storage.sol\":4223:4282  addressList.couponLists[addressList.ids[address_]].length++ */\n      dup2\n      sload\n      dup1\n      swap3\n      swap2\n      swap1\n      tag_90\n      swap1\n      tag_74\n      jump\t// in\n    tag_90:\n      swap2\n      swap1\n      pop\n      sstore\n      pop\n        /* \"contracts/Founding Citizens NFT Sale Privileged Buyers List Storage.sol\":4539:4551  discountRate */\n      dup2\n        /* \"contracts/Founding Citizens NFT Sale Privileged Buyers List Storage.sol\":4405:4416  addressList */\n      0x01\n        /* \"contracts/Founding Citizens NFT Sale Privileged Buyers List Storage.sol\":4405:4428  addressList.couponLists */\n      0x03\n      add\n        /* \"contracts/Founding Citizens NFT Sale Privileged Buyers List Storage.sol\":4405:4455  addressList.couponLists[addressList.ids[address_]] */\n      0x00\n        /* \"contracts/Founding Citizens NFT Sale Privileged Buyers List Storage.sol\":4429:4440  addressList */\n      0x01\n        /* \"contracts/Founding Citizens NFT Sale Privileged Buyers List Storage.sol\":4429:4444  addressList.ids */\n      0x02\n      add\n        /* \"contracts/Founding Citizens NFT Sale Privileged Buyers List Storage.sol\":4429:4454  addressList.ids[address_] */\n      0x00\n        /* \"contracts/Founding Citizens NFT Sale Privileged Buyers List Storage.sol\":4445:4453  address_ */\n      dup8\n        /* \"contracts/Founding Citizens NFT Sale Privileged Buyers List Storage.sol\":4429:4454  addressList.ids[address_] */\n      0xffffffffffffffffffffffffffffffffffffffff\n      and\n      0xffffffffffffffffffffffffffffffffffffffff\n      and\n      dup2\n      mstore\n      0x20\n      add\n      swap1\n      dup2\n      mstore\n      0x20\n      add\n      0x00\n      keccak256\n      sload\n        /* \"contracts/Founding Citizens NFT Sale Privileged Buyers List Storage.sol\":4405:4455  addressList.couponLists[addressList.ids[address_]] */\n      dup2\n      mstore\n      0x20\n      add\n      swap1\n      dup2\n      mstore\n      0x20\n      add\n      0x00\n      keccak256\n        /* \"contracts/Founding Citizens NFT Sale Privileged Buyers List Storage.sol\":4405:4477  addressList.couponLists[addressList.ids[address_]]\r... */\n      0x01\n      add\n        /* \"contracts/Founding Citizens NFT Sale Privileged Buyers List Storage.sol\":4405:4505  addressList.couponLists[addressList.ids[address_]]\r... */\n      0x00\n        /* \"contracts/Founding Citizens NFT Sale Privileged Buyers List Storage.sol\":4478:4504  couponListLength(address_) */\n      tag_91\n        /* \"contracts/Founding Citizens NFT Sale Privileged Buyers List Storage.sol\":4495:4503  address_ */\n      dup7\n        /* \"contracts/Founding Citizens NFT Sale Privileged Buyers List Storage.sol\":4478:4494  couponListLength */\n      tag_37\n        /* \"contracts/Founding Citizens NFT Sale Privileged Buyers List Storage.sol\":4478:4504  couponListLength(address_) */\n      jump\t// in\n    tag_91:\n        /* \"contracts/Founding Citizens NFT Sale Privileged Buyers List Storage.sol\":4405:4505  addressList.couponLists[addressList.ids[address_]]\r... */\n      dup2\n      mstore\n      0x20\n      add\n      swap1\n      dup2\n      mstore\n      0x20\n      add\n      0x00\n      keccak256\n        /* \"contracts/Founding Citizens NFT Sale Privileged Buyers List Storage.sol\":4405:4536  addressList.couponLists[addressList.ids[address_]]\r... */\n      0x00\n      add\n        /* \"contracts/Founding Citizens NFT Sale Privileged Buyers List Storage.sol\":4405:4551  addressList.couponLists[addressList.ids[address_]]\r... */\n      dup2\n      swap1\n      sstore\n      pop\n        /* \"contracts/Founding Citizens NFT Sale Privileged Buyers List Storage.sol\":4696:4708  numberOfUses */\n      dup1\n        /* \"contracts/Founding Citizens NFT Sale Privileged Buyers List Storage.sol\":4562:4573  addressList */\n      0x01\n        /* \"contracts/Founding Citizens NFT Sale Privileged Buyers List Storage.sol\":4562:4585  addressList.couponLists */\n      0x03\n      add\n        /* \"contracts/Founding Citizens NFT Sale Privileged Buyers List Storage.sol\":4562:4612  addressList.couponLists[addressList.ids[address_]] */\n      0x00\n        /* \"contracts/Founding Citizens NFT Sale Privileged Buyers List Storage.sol\":4586:4597  addressList */\n      0x01\n        /* \"contracts/Founding Citizens NFT Sale Privileged Buyers List Storage.sol\":4586:4601  addressList.ids */\n      0x02\n      add\n        /* \"contracts/Founding Citizens NFT Sale Privileged Buyers List Storage.sol\":4586:4611  addressList.ids[address_] */\n      0x00\n        /* \"contracts/Founding Citizens NFT Sale Privileged Buyers List Storage.sol\":4602:4610  address_ */\n      dup8\n        /* \"contracts/Founding Citizens NFT Sale Privileged Buyers List Storage.sol\":4586:4611  addressList.ids[address_] */\n      0xffffffffffffffffffffffffffffffffffffffff\n      and\n      0xffffffffffffffffffffffffffffffffffffffff\n      and\n      dup2\n      mstore\n      0x20\n      add\n      swap1\n      dup2\n      mstore\n      0x20\n      add\n      0x00\n      keccak256\n      sload\n        /* \"contracts/Founding Citizens NFT Sale Privileged Buyers List Storage.sol\":4562:4612  addressList.couponLists[addressList.ids[address_]] */\n      dup2\n      mstore\n      0x20\n      add\n      swap1\n      dup2\n      mstore\n      0x20\n      add\n      0x00\n      keccak256\n        /* \"contracts/Founding Citizens NFT Sale Privileged Buyers List Storage.sol\":4562:4634  addressList.couponLists[addressList.ids[address_]].\r... */\n      0x01\n      add\n        /* \"contracts/Founding Citizens NFT Sale Privileged Buyers List Storage.sol\":4562:4662  addressList.couponLists[addressList.ids[address_]].\r... */\n      0x00\n        /* \"contracts/Founding Citizens NFT Sale Privileged Buyers List Storage.sol\":4635:4661  couponListLength(address_) */\n      tag_92\n        /* \"contracts/Founding Citizens NFT Sale Privileged Buyers List Storage.sol\":4652:4660  address_ */\n      dup7\n        /* \"contracts/Founding Citizens NFT Sale Privileged Buyers List Storage.sol\":4635:4651  couponListLength */\n      tag_37\n        /* \"contracts/Founding Citizens NFT Sale Privileged Buyers List Storage.sol\":4635:4661  couponListLength(address_) */\n      jump\t// in\n    tag_92:\n        /* \"contracts/Founding Citizens NFT Sale Privileged Buyers List Storage.sol\":4562:4662  addressList.couponLists[addressList.ids[address_]].\r... */\n      dup2\n      mstore\n      0x20\n      add\n      swap1\n      dup2\n      mstore\n      0x20\n      add\n      0x00\n      keccak256\n        /* \"contracts/Founding Citizens NFT Sale Privileged Buyers List Storage.sol\":4562:4693  addressList.couponLists[addressList.ids[address_]].\r... */\n      0x01\n      add\n        /* \"contracts/Founding Citizens NFT Sale Privileged Buyers List Storage.sol\":4562:4708  addressList.couponLists[addressList.ids[address_]].\r... */\n      dup2\n      swap1\n      sstore\n      pop\n        /* \"contracts/Founding Citizens NFT Sale Privileged Buyers List Storage.sol\":3951:4716  function addCoupon(address address_, uint discountRate, uint numberOfUses) public onlyOwner {\r... */\n      pop\n      pop\n      pop\n      jump\t// out\n        /* \"contracts/Founding Citizens NFT Sale Privileged Buyers List Storage.sol\":3374:3943  function removeAddress(address address_) public onlyOwner {\r... */\n    tag_32:\n        /* \"@openzeppelin/contracts@4.4.2/access/Ownable.sol\":1259:1271  _msgSender() */\n      tag_94\n        /* \"@openzeppelin/contracts@4.4.2/access/Ownable.sol\":1259:1269  _msgSender */\n      tag_67\n        /* \"@openzeppelin/contracts@4.4.2/access/Ownable.sol\":1259:1271  _msgSender() */\n      jump\t// in\n    tag_94:\n        /* \"@openzeppelin/contracts@4.4.2/access/Ownable.sol\":1248:1271  owner() == _msgSender() */\n      0xffffffffffffffffffffffffffffffffffffffff\n      and\n        /* \"@openzeppelin/contracts@4.4.2/access/Ownable.sol\":1248:1255  owner() */\n      tag_95\n        /* \"@openzeppelin/contracts@4.4.2/access/Ownable.sol\":1248:1253  owner */\n      tag_41\n        /* \"@openzeppelin/contracts@4.4.2/access/Ownable.sol\":1248:1255  owner() */\n      jump\t// in\n    tag_95:\n        /* \"@openzeppelin/contracts@4.4.2/access/Ownable.sol\":1248:1271  owner() == _msgSender() */\n      0xffffffffffffffffffffffffffffffffffffffff\n      and\n      eq\n        /* \"@openzeppelin/contracts@4.4.2/access/Ownable.sol\":1240:1308  require(owner() == _msgSender(), \"Ownable: caller is not the owner\") */\n      tag_96\n      jumpi\n      mload(0x40)\n      0x08c379a000000000000000000000000000000000000000000000000000000000\n      dup2\n      mstore\n      0x04\n      add\n      tag_97\n      swap1\n      tag_71\n      jump\t// in\n    tag_97:\n      mload(0x40)\n      dup1\n      swap2\n      sub\n      swap1\n      revert\n    tag_96:\n        /* \"contracts/Founding Citizens NFT Sale Privileged Buyers List Storage.sol\":3453:3468  uint _toRemove1 */\n      0x00\n        /* \"contracts/Founding Citizens NFT Sale Privileged Buyers List Storage.sol\":3471:3482  addressList */\n      0x01\n        /* \"contracts/Founding Citizens NFT Sale Privileged Buyers List Storage.sol\":3471:3486  addressList.ids */\n      0x02\n      add\n        /* \"contracts/Founding Citizens NFT Sale Privileged Buyers List Storage.sol\":3471:3496  addressList.ids[address_] */\n      0x00\n        /* \"contracts/Founding Citizens NFT Sale Privileged Buyers List Storage.sol\":3487:3495  address_ */\n      dup4\n        /* \"contracts/Founding Citizens NFT Sale Privileged Buyers List Storage.sol\":3471:3496  addressList.ids[address_] */\n      0xffffffffffffffffffffffffffffffffffffffff\n      and\n      0xffffffffffffffffffffffffffffffffffffffff\n      and\n      dup2\n      mstore\n      0x20\n      add\n      swap1\n      dup2\n      mstore\n      0x20\n      add\n      0x00\n      keccak256\n      sload\n        /* \"contracts/Founding Citizens NFT Sale Privileged Buyers List Storage.sol\":3453:3496  uint _toRemove1 = addressList.ids[address_] */\n      swap1\n      pop\n        /* \"contracts/Founding Citizens NFT Sale Privileged Buyers List Storage.sol\":3507:3525  address _toRemove2 */\n      0x00\n        /* \"contracts/Founding Citizens NFT Sale Privileged Buyers List Storage.sol\":3528:3536  address_ */\n      dup3\n        /* \"contracts/Founding Citizens NFT Sale Privileged Buyers List Storage.sol\":3507:3536  address _toRemove2 = address_ */\n      swap1\n      pop\n        /* \"contracts/Founding Citizens NFT Sale Privileged Buyers List Storage.sol\":3549:3562  uint _toMove1 */\n      0x00\n        /* \"contracts/Founding Citizens NFT Sale Privileged Buyers List Storage.sol\":3565:3576  addressList */\n      0x01\n        /* \"contracts/Founding Citizens NFT Sale Privileged Buyers List Storage.sol\":3565:3583  addressList.length */\n      0x00\n      add\n      sload\n        /* \"contracts/Founding Citizens NFT Sale Privileged Buyers List Storage.sol\":3549:3583  uint _toMove1 = addressList.length */\n      swap1\n      pop\n        /* \"contracts/Founding Citizens NFT Sale Privileged Buyers List Storage.sol\":3594:3610  address _toMove2 */\n      0x00\n        /* \"contracts/Founding Citizens NFT Sale Privileged Buyers List Storage.sol\":3613:3624  addressList */\n      0x01\n        /* \"contracts/Founding Citizens NFT Sale Privileged Buyers List Storage.sol\":3613:3634  addressList.addresses */\n      dup1\n      add\n        /* \"contracts/Founding Citizens NFT Sale Privileged Buyers List Storage.sol\":3613:3654  addressList.addresses[addressList.length] */\n      0x00\n        /* \"contracts/Founding Citizens NFT Sale Privileged Buyers List Storage.sol\":3635:3646  addressList */\n      0x01\n        /* \"contracts/Founding Citizens NFT Sale Privileged Buyers List Storage.sol\":3635:3653  addressList.length */\n      0x00\n      add\n      sload\n        /* \"contracts/Founding Citizens NFT Sale Privileged Buyers List Storage.sol\":3613:3654  addressList.addresses[addressList.length] */\n      dup2\n      mstore\n      0x20\n      add\n      swap1\n      dup2\n      mstore\n      0x20\n      add\n      0x00\n      keccak256\n      0x00\n      swap1\n      sload\n      swap1\n      0x0100\n      exp\n      swap1\n      div\n      0xffffffffffffffffffffffffffffffffffffffff\n      and\n        /* \"contracts/Founding Citizens NFT Sale Privileged Buyers List Storage.sol\":3594:3654  address _toMove2 = addressList.addresses[addressList.length] */\n      swap1\n      pop\n        /* \"contracts/Founding Citizens NFT Sale Privileged Buyers List Storage.sol\":3703:3714  addressList */\n      0x01\n        /* \"contracts/Founding Citizens NFT Sale Privileged Buyers List Storage.sol\":3703:3724  addressList.addresses */\n      dup1\n      add\n        /* \"contracts/Founding Citizens NFT Sale Privileged Buyers List Storage.sol\":3703:3734  addressList.addresses[_toMove1] */\n      0x00\n        /* \"contracts/Founding Citizens NFT Sale Privileged Buyers List Storage.sol\":3725:3733  _toMove1 */\n      dup4\n        /* \"contracts/Founding Citizens NFT Sale Privileged Buyers List Storage.sol\":3703:3734  addressList.addresses[_toMove1] */\n      dup2\n      mstore\n      0x20\n      add\n      swap1\n      dup2\n      mstore\n      0x20\n      add\n      0x00\n      keccak256\n      0x00\n      swap1\n      sload\n      swap1\n      0x0100\n      exp\n      swap1\n      div\n      0xffffffffffffffffffffffffffffffffffffffff\n      and\n        /* \"contracts/Founding Citizens NFT Sale Privileged Buyers List Storage.sol\":3667:3678  addressList */\n      0x01\n        /* \"contracts/Founding Citizens NFT Sale Privileged Buyers List Storage.sol\":3667:3688  addressList.addresses */\n      dup1\n      add\n        /* \"contracts/Founding Citizens NFT Sale Privileged Buyers List Storage.sol\":3667:3700  addressList.addresses[_toRemove1] */\n      0x00\n        /* \"contracts/Founding Citizens NFT Sale Privileged Buyers List Storage.sol\":3689:3699  _toRemove1 */\n      dup7\n        /* \"contracts/Founding Citizens NFT Sale Privileged Buyers List Storage.sol\":3667:3700  addressList.addresses[_toRemove1] */\n      dup2\n      mstore\n      0x20\n      add\n      swap1\n      dup2\n      mstore\n      0x20\n      add\n      0x00\n      keccak256\n      0x00\n        /* \"contracts/Founding Citizens NFT Sale Privileged Buyers List Storage.sol\":3667:3734  addressList.addresses[_toRemove1] = addressList.addresses[_toMove1] */\n      0x0100\n      exp\n      dup2\n      sload\n      dup2\n      0xffffffffffffffffffffffffffffffffffffffff\n      mul\n      not\n      and\n      swap1\n      dup4\n      0xffffffffffffffffffffffffffffffffffffffff\n      and\n      mul\n      or\n      swap1\n      sstore\n      pop\n        /* \"contracts/Founding Citizens NFT Sale Privileged Buyers List Storage.sol\":3752:3763  addressList */\n      0x01\n        /* \"contracts/Founding Citizens NFT Sale Privileged Buyers List Storage.sol\":3752:3773  addressList.addresses */\n      dup1\n      add\n        /* \"contracts/Founding Citizens NFT Sale Privileged Buyers List Storage.sol\":3752:3783  addressList.addresses[_toMove1] */\n      0x00\n        /* \"contracts/Founding Citizens NFT Sale Privileged Buyers List Storage.sol\":3774:3782  _toMove1 */\n      dup4\n        /* \"contracts/Founding Citizens NFT Sale Privileged Buyers List Storage.sol\":3752:3783  addressList.addresses[_toMove1] */\n      dup2\n      mstore\n      0x20\n      add\n      swap1\n      dup2\n      mstore\n      0x20\n      add\n      0x00\n      keccak256\n      0x00\n        /* \"contracts/Founding Citizens NFT Sale Privileged Buyers List Storage.sol\":3745:3783  delete addressList.addresses[_toMove1] */\n      0x0100\n      exp\n      dup2\n      sload\n      swap1\n      0xffffffffffffffffffffffffffffffffffffffff\n      mul\n      not\n      and\n      swap1\n      sstore\n        /* \"contracts/Founding Citizens NFT Sale Privileged Buyers List Storage.sol\":3826:3837  addressList */\n      0x01\n        /* \"contracts/Founding Citizens NFT Sale Privileged Buyers List Storage.sol\":3826:3841  addressList.ids */\n      0x02\n      add\n        /* \"contracts/Founding Citizens NFT Sale Privileged Buyers List Storage.sol\":3826:3851  addressList.ids[_toMove2] */\n      0x00\n        /* \"contracts/Founding Citizens NFT Sale Privileged Buyers List Storage.sol\":3842:3850  _toMove2 */\n      dup3\n        /* \"contracts/Founding Citizens NFT Sale Privileged Buyers List Storage.sol\":3826:3851  addressList.ids[_toMove2] */\n      0xffffffffffffffffffffffffffffffffffffffff\n      and\n      0xffffffffffffffffffffffffffffffffffffffff\n      and\n      dup2\n      mstore\n      0x20\n      add\n      swap1\n      dup2\n      mstore\n      0x20\n      add\n      0x00\n      keccak256\n      sload\n        /* \"contracts/Founding Citizens NFT Sale Privileged Buyers List Storage.sol\":3796:3807  addressList */\n      0x01\n        /* \"contracts/Founding Citizens NFT Sale Privileged Buyers List Storage.sol\":3796:3811  addressList.ids */\n      0x02\n      add\n        /* \"contracts/Founding Citizens NFT Sale Privileged Buyers List Storage.sol\":3796:3823  addressList.ids[_toRemove2] */\n      0x00\n        /* \"contracts/Founding Citizens NFT Sale Privileged Buyers List Storage.sol\":3812:3822  _toRemove2 */\n      dup6\n        /* \"contracts/Founding Citizens NFT Sale Privileged Buyers List Storage.sol\":3796:3823  addressList.ids[_toRemove2] */\n      0xffffffffffffffffffffffffffffffffffffffff\n      and\n      0xffffffffffffffffffffffffffffffffffffffff\n      and\n      dup2\n      mstore\n      0x20\n      add\n      swap1\n      dup2\n      mstore\n      0x20\n      add\n      0x00\n      keccak256\n        /* \"contracts/Founding Citizens NFT Sale Privileged Buyers List Storage.sol\":3796:3851  addressList.ids[_toRemove2] = addressList.ids[_toMove2] */\n      dup2\n      swap1\n      sstore\n      pop\n        /* \"contracts/Founding Citizens NFT Sale Privileged Buyers List Storage.sol\":3869:3880  addressList */\n      0x01\n        /* \"contracts/Founding Citizens NFT Sale Privileged Buyers List Storage.sol\":3869:3884  addressList.ids */\n      0x02\n      add\n        /* \"contracts/Founding Citizens NFT Sale Privileged Buyers List Storage.sol\":3869:3894  addressList.ids[_toMove2] */\n      0x00\n        /* \"contracts/Founding Citizens NFT Sale Privileged Buyers List Storage.sol\":3885:3893  _toMove2 */\n      dup3\n        /* \"contracts/Founding Citizens NFT Sale Privileged Buyers List Storage.sol\":3869:3894  addressList.ids[_toMove2] */\n      0xffffffffffffffffffffffffffffffffffffffff\n      and\n      0xffffffffffffffffffffffffffffffffffffffff\n      and\n      dup2\n      mstore\n      0x20\n      add\n      swap1\n      dup2\n      mstore\n      0x20\n      add\n      0x00\n      keccak256\n        /* \"contracts/Founding Citizens NFT Sale Privileged Buyers List Storage.sol\":3862:3894  delete addressList.ids[_toMove2] */\n      0x00\n      swap1\n      sstore\n        /* \"contracts/Founding Citizens NFT Sale Privileged Buyers List Storage.sol\":3915:3926  addressList */\n      0x01\n        /* \"contracts/Founding Citizens NFT Sale Privileged Buyers List Storage.sol\":3915:3933  addressList.length */\n      0x00\n      add\n      0x00\n        /* \"contracts/Founding Citizens NFT Sale Privileged Buyers List Storage.sol\":3915:3935  addressList.length-- */\n      dup2\n      sload\n      dup1\n      swap3\n      swap2\n      swap1\n      tag_99\n      swap1\n      tag_100\n      jump\t// in\n    tag_99:\n      swap2\n      swap1\n      pop\n      sstore\n      pop\n        /* \"@openzeppelin/contracts@4.4.2/access/Ownable.sol\":1318:1319  _ */\n      pop\n      pop\n      pop\n      pop\n        /* \"contracts/Founding Citizens NFT Sale Privileged Buyers List Storage.sol\":3374:3943  function removeAddress(address address_) public onlyOwner {\r... */\n      pop\n      jump\t// out\n        /* \"@openzeppelin/contracts@4.4.2/access/Ownable.sol\":1668:1769  function renounceOwnership() public virtual onlyOwner {... */\n    tag_34:\n        /* \"@openzeppelin/contracts@4.4.2/access/Ownable.sol\":1259:1271  _msgSender() */\n      tag_102\n        /* \"@openzeppelin/contracts@4.4.2/access/Ownable.sol\":1259:1269  _msgSender */\n      tag_67\n        /* \"@openzeppelin/contracts@4.4.2/access/Ownable.sol\":1259:1271  _msgSender() */\n      jump\t// in\n    tag_102:\n        /* \"@openzeppelin/contracts@4.4.2/access/Ownable.sol\":1248:1271  owner() == _msgSender() */\n      0xffffffffffffffffffffffffffffffffffffffff\n      and\n        /* \"@openzeppelin/contracts@4.4.2/access/Ownable.sol\":1248:1255  owner() */\n      tag_103\n        /* \"@openzeppelin/contracts@4.4.2/access/Ownable.sol\":1248:1253  owner */\n      tag_41\n        /* \"@openzeppelin/contracts@4.4.2/access/Ownable.sol\":1248:1255  owner() */\n      jump\t// in\n    tag_103:\n        /* \"@openzeppelin/contracts@4.4.2/access/Ownable.sol\":1248:1271  owner() == _msgSender() */\n      0xffffffffffffffffffffffffffffffffffffffff\n      and\n      eq\n        /* \"@openzeppelin/contracts@4.4.2/access/Ownable.sol\":1240:1308  require(owner() == _msgSender(), \"Ownable: caller is not the owner\") */\n      tag_104\n      jumpi\n      mload(0x40)\n      0x08c379a000000000000000000000000000000000000000000000000000000000\n      dup2\n      mstore\n      0x04\n      add\n      tag_105\n      swap1\n      tag_71\n      jump\t// in\n    tag_105:\n      mload(0x40)\n      dup1\n      swap2\n      sub\n      swap1\n      revert\n    tag_104:\n        /* \"@openzeppelin/contracts@4.4.2/access/Ownable.sol\":1732:1762  _transferOwnership(address(0)) */\n      tag_107\n        /* \"@openzeppelin/contracts@4.4.2/access/Ownable.sol\":1759:1760  0 */\n      0x00\n        /* \"@openzeppelin/contracts@4.4.2/access/Ownable.sol\":1732:1750  _transferOwnership */\n      tag_108\n        /* \"@openzeppelin/contracts@4.4.2/access/Ownable.sol\":1732:1762  _transferOwnership(address(0)) */\n      jump\t// in\n    tag_107:\n        /* \"@openzeppelin/contracts@4.4.2/access/Ownable.sol\":1668:1769  function renounceOwnership() public virtual onlyOwner {... */\n      jump\t// out\n        /* \"contracts/Founding Citizens NFT Sale Privileged Buyers List Storage.sol\":2433:2586  function couponListLength(address address_) public view returns(uint) {\r... */\n    tag_37:\n        /* \"contracts/Founding Citizens NFT Sale Privileged Buyers List Storage.sol\":2497:2501  uint */\n      0x00\n        /* \"contracts/Founding Citizens NFT Sale Privileged Buyers List Storage.sol\":2521:2532  addressList */\n      0x01\n        /* \"contracts/Founding Citizens NFT Sale Privileged Buyers List Storage.sol\":2521:2544  addressList.couponLists */\n      0x03\n      add\n        /* \"contracts/Founding Citizens NFT Sale Privileged Buyers List Storage.sol\":2521:2571  addressList.couponLists[addressList.ids[address_]] */\n      0x00\n        /* \"contracts/Founding Citizens NFT Sale Privileged Buyers List Storage.sol\":2545:2556  addressList */\n      0x01\n        /* \"contracts/Founding Citizens NFT Sale Privileged Buyers List Storage.sol\":2545:2560  addressList.ids */\n      0x02\n      add\n        /* \"contracts/Founding Citizens NFT Sale Privileged Buyers List Storage.sol\":2545:2570  addressList.ids[address_] */\n      0x00\n        /* \"contracts/Founding Citizens NFT Sale Privileged Buyers List Storage.sol\":2561:2569  address_ */\n      dup6\n        /* \"contracts/Founding Citizens NFT Sale Privileged Buyers List Storage.sol\":2545:2570  addressList.ids[address_] */\n      0xffffffffffffffffffffffffffffffffffffffff\n      and\n      0xffffffffffffffffffffffffffffffffffffffff\n      and\n      dup2\n      mstore\n      0x20\n      add\n      swap1\n      dup2\n      mstore\n      0x20\n      add\n      0x00\n      keccak256\n      sload\n        /* \"contracts/Founding Citizens NFT Sale Privileged Buyers List Storage.sol\":2521:2571  addressList.couponLists[addressList.ids[address_]] */\n      dup2\n      mstore\n      0x20\n      add\n      swap1\n      dup2\n      mstore\n      0x20\n      add\n      0x00\n      keccak256\n        /* \"contracts/Founding Citizens NFT Sale Privileged Buyers List Storage.sol\":2521:2578  addressList.couponLists[addressList.ids[address_]].length */\n      0x00\n      add\n      sload\n        /* \"contracts/Founding Citizens NFT Sale Privileged Buyers List Storage.sol\":2514:2578  return addressList.couponLists[addressList.ids[address_]].length */\n      swap1\n      pop\n        /* \"contracts/Founding Citizens NFT Sale Privileged Buyers List Storage.sol\":2433:2586  function couponListLength(address address_) public view returns(uint) {\r... */\n      swap2\n      swap1\n      pop\n      jump\t// out\n        /* \"@openzeppelin/contracts@4.4.2/access/Ownable.sol\":1036:1121  function owner() public view virtual returns (address) {... */\n    tag_41:\n        /* \"@openzeppelin/contracts@4.4.2/access/Ownable.sol\":1082:1089  address */\n      0x00\n        /* \"@openzeppelin/contracts@4.4.2/access/Ownable.sol\":1108:1114  _owner */\n      dup1\n      0x00\n      swap1\n      sload\n      swap1\n      0x0100\n      exp\n      swap1\n      div\n      0xffffffffffffffffffffffffffffffffffffffff\n      and\n        /* \"@openzeppelin/contracts@4.4.2/access/Ownable.sol\":1101:1114  return _owner */\n      swap1\n      pop\n        /* \"@openzeppelin/contracts@4.4.2/access/Ownable.sol\":1036:1121  function owner() public view virtual returns (address) {... */\n      swap1\n      jump\t// out\n        /* \"contracts/Founding Citizens NFT Sale Privileged Buyers List Storage.sol\":2594:2719  function addressExists(address address_) public view returns(bool) {\r... */\n    tag_46:\n        /* \"contracts/Founding Citizens NFT Sale Privileged Buyers List Storage.sol\":2655:2659  bool */\n      0x00\n        /* \"contracts/Founding Citizens NFT Sale Privileged Buyers List Storage.sol\":2709:2710  0 */\n      dup1\n        /* \"contracts/Founding Citizens NFT Sale Privileged Buyers List Storage.sol\":2680:2691  addressList */\n      0x01\n        /* \"contracts/Founding Citizens NFT Sale Privileged Buyers List Storage.sol\":2680:2695  addressList.ids */\n      0x02\n      add\n        /* \"contracts/Founding Citizens NFT Sale Privileged Buyers List Storage.sol\":2680:2705  addressList.ids[address_] */\n      0x00\n        /* \"contracts/Founding Citizens NFT Sale Privileged Buyers List Storage.sol\":2696:2704  address_ */\n      dup5\n        /* \"contracts/Founding Citizens NFT Sale Privileged Buyers List Storage.sol\":2680:2705  addressList.ids[address_] */\n      0xffffffffffffffffffffffffffffffffffffffff\n      and\n      0xffffffffffffffffffffffffffffffffffffffff\n      and\n      dup2\n      mstore\n      0x20\n      add\n      swap1\n      dup2\n      mstore\n      0x20\n      add\n      0x00\n      keccak256\n      sload\n        /* \"contracts/Founding Citizens NFT Sale Privileged Buyers List Storage.sol\":2680:2710  addressList.ids[address_] == 0 */\n      eq\n        /* \"contracts/Founding Citizens NFT Sale Privileged Buyers List Storage.sol\":2672:2711  return (addressList.ids[address_] == 0) */\n      swap1\n      pop\n        /* \"contracts/Founding Citizens NFT Sale Privileged Buyers List Storage.sol\":2594:2719  function addressExists(address address_) public view returns(bool) {\r... */\n      swap2\n      swap1\n      pop\n      jump\t// out\n        /* \"contracts/Founding Citizens NFT Sale Privileged Buyers List Storage.sol\":4934:5043  function reduceCouponUses(address address_, uint discountRate, uint numberOfUses) public onlyOwner {\r... */\n    tag_51:\n        /* \"@openzeppelin/contracts@4.4.2/access/Ownable.sol\":1259:1271  _msgSender() */\n      tag_113\n        /* \"@openzeppelin/contracts@4.4.2/access/Ownable.sol\":1259:1269  _msgSender */\n      tag_67\n        /* \"@openzeppelin/contracts@4.4.2/access/Ownable.sol\":1259:1271  _msgSender() */\n      jump\t// in\n    tag_113:\n        /* \"@openzeppelin/contracts@4.4.2/access/Ownable.sol\":1248:1271  owner() == _msgSender() */\n      0xffffffffffffffffffffffffffffffffffffffff\n      and\n        /* \"@openzeppelin/contracts@4.4.2/access/Ownable.sol\":1248:1255  owner() */\n      tag_114\n        /* \"@openzeppelin/contracts@4.4.2/access/Ownable.sol\":1248:1253  owner */\n      tag_41\n        /* \"@openzeppelin/contracts@4.4.2/access/Ownable.sol\":1248:1255  owner() */\n      jump\t// in\n    tag_114:\n        /* \"@openzeppelin/contracts@4.4.2/access/Ownable.sol\":1248:1271  owner() == _msgSender() */\n      0xffffffffffffffffffffffffffffffffffffffff\n      and\n      eq\n        /* \"@openzeppelin/contracts@4.4.2/access/Ownable.sol\":1240:1308  require(owner() == _msgSender(), \"Ownable: caller is not the owner\") */\n      tag_115\n      jumpi\n      mload(0x40)\n      0x08c379a000000000000000000000000000000000000000000000000000000000\n      dup2\n      mstore\n      0x04\n      add\n      tag_116\n      swap1\n      tag_71\n      jump\t// in\n    tag_116:\n      mload(0x40)\n      dup1\n      swap2\n      sub\n      swap1\n      revert\n    tag_115:\n        /* \"contracts/Founding Citizens NFT Sale Privileged Buyers List Storage.sol\":4934:5043  function reduceCouponUses(address address_, uint discountRate, uint numberOfUses) public onlyOwner {\r... */\n      pop\n      pop\n      pop\n      jump\t// out\n        /* \"contracts/Founding Citizens NFT Sale Privileged Buyers List Storage.sol\":2394:2424  AddressList public addressList */\n    tag_53:\n      0x01\n      dup1\n      0x00\n      add\n      sload\n      swap1\n      pop\n      dup2\n      jump\t// out\n        /* \"contracts/Founding Citizens NFT Sale Privileged Buyers List Storage.sol\":4724:4926  function removeCoupon(address address_, uint discountRate) public onlyOwner {\r... */\n    tag_57:\n        /* \"@openzeppelin/contracts@4.4.2/access/Ownable.sol\":1259:1271  _msgSender() */\n      tag_119\n        /* \"@openzeppelin/contracts@4.4.2/access/Ownable.sol\":1259:1269  _msgSender */\n      tag_67\n        /* \"@openzeppelin/contracts@4.4.2/access/Ownable.sol\":1259:1271  _msgSender() */\n      jump\t// in\n    tag_119:\n        /* \"@openzeppelin/contracts@4.4.2/access/Ownable.sol\":1248:1271  owner() == _msgSender() */\n      0xffffffffffffffffffffffffffffffffffffffff\n      and\n        /* \"@openzeppelin/contracts@4.4.2/access/Ownable.sol\":1248:1255  owner() */\n      tag_120\n        /* \"@openzeppelin/contracts@4.4.2/access/Ownable.sol\":1248:1253  owner */\n      tag_41\n        /* \"@openzeppelin/contracts@4.4.2/access/Ownable.sol\":1248:1255  owner() */\n      jump\t// in\n    tag_120:\n        /* \"@openzeppelin/contracts@4.4.2/access/Ownable.sol\":1248:1271  owner() == _msgSender() */\n      0xffffffffffffffffffffffffffffffffffffffff\n      and\n      eq\n        /* \"@openzeppelin/contracts@4.4.2/access/Ownable.sol\":1240:1308  require(owner() == _msgSender(), \"Ownable: caller is not the owner\") */\n      tag_121\n      jumpi\n      mload(0x40)\n      0x08c379a000000000000000000000000000000000000000000000000000000000\n      dup2\n      mstore\n      0x04\n      add\n      tag_122\n      swap1\n      tag_71\n      jump\t// in\n    tag_122:\n      mload(0x40)\n      dup1\n      swap2\n      sub\n      swap1\n      revert\n    tag_121:\n        /* \"contracts/Founding Citizens NFT Sale Privileged Buyers List Storage.sol\":4818:4829  addressList */\n      0x01\n        /* \"contracts/Founding Citizens NFT Sale Privileged Buyers List Storage.sol\":4818:4841  addressList.couponLists */\n      0x03\n      add\n        /* \"contracts/Founding Citizens NFT Sale Privileged Buyers List Storage.sol\":4818:4868  addressList.couponLists[addressList.ids[address_]] */\n      0x00\n        /* \"contracts/Founding Citizens NFT Sale Privileged Buyers List Storage.sol\":4842:4853  addressList */\n      0x01\n        /* \"contracts/Founding Citizens NFT Sale Privileged Buyers List Storage.sol\":4842:4857  addressList.ids */\n      0x02\n      add\n        /* \"contracts/Founding Citizens NFT Sale Privileged Buyers List Storage.sol\":4842:4867  addressList.ids[address_] */\n      0x00\n        /* \"contracts/Founding Citizens NFT Sale Privileged Buyers List Storage.sol\":4858:4866  address_ */\n      dup6\n        /* \"contracts/Founding Citizens NFT Sale Privileged Buyers List Storage.sol\":4842:4867  addressList.ids[address_] */\n      0xffffffffffffffffffffffffffffffffffffffff\n      and\n      0xffffffffffffffffffffffffffffffffffffffff\n      and\n      dup2\n      mstore\n      0x20\n      add\n      swap1\n      dup2\n      mstore\n      0x20\n      add\n      0x00\n      keccak256\n      sload\n        /* \"contracts/Founding Citizens NFT Sale Privileged Buyers List Storage.sol\":4818:4868  addressList.couponLists[addressList.ids[address_]] */\n      dup2\n      mstore\n      0x20\n      add\n      swap1\n      dup2\n      mstore\n      0x20\n      add\n      0x00\n      keccak256\n        /* \"contracts/Founding Citizens NFT Sale Privileged Buyers List Storage.sol\":4818:4890  addressList.couponLists[addressList.ids[address_]]\r... */\n      0x01\n      add\n        /* \"contracts/Founding Citizens NFT Sale Privileged Buyers List Storage.sol\":4818:4918  addressList.couponLists[addressList.ids[address_]]\r... */\n      0x00\n        /* \"contracts/Founding Citizens NFT Sale Privileged Buyers List Storage.sol\":4891:4917  couponListLength(address_) */\n      tag_124\n        /* \"contracts/Founding Citizens NFT Sale Privileged Buyers List Storage.sol\":4908:4916  address_ */\n      dup5\n        /* \"contracts/Founding Citizens NFT Sale Privileged Buyers List Storage.sol\":4891:4907  couponListLength */\n      tag_37\n        /* \"contracts/Founding Citizens NFT Sale Privileged Buyers List Storage.sol\":4891:4917  couponListLength(address_) */\n      jump\t// in\n    tag_124:\n        /* \"contracts/Founding Citizens NFT Sale Privileged Buyers List Storage.sol\":4818:4918  addressList.couponLists[addressList.ids[address_]]\r... */\n      dup2\n      mstore\n      0x20\n      add\n      swap1\n      dup2\n      mstore\n      0x20\n      add\n      0x00\n      keccak256\n      0x00\n        /* \"contracts/Founding Citizens NFT Sale Privileged Buyers List Storage.sol\":4811:4918  delete addressList.couponLists[addressList.ids[address_]]\r... */\n      dup1\n      dup3\n      add\n      0x00\n      swap1\n      sstore\n      0x01\n      dup3\n      add\n      0x00\n      swap1\n      sstore\n      pop\n      pop\n        /* \"contracts/Founding Citizens NFT Sale Privileged Buyers List Storage.sol\":4724:4926  function removeCoupon(address address_, uint discountRate) public onlyOwner {\r... */\n      pop\n      pop\n      jump\t// out\n        /* \"@openzeppelin/contracts@4.4.2/access/Ownable.sol\":1918:2116  function transferOwnership(address newOwner) public virtual onlyOwner {... */\n    tag_60:\n        /* \"@openzeppelin/contracts@4.4.2/access/Ownable.sol\":1259:1271  _msgSender() */\n      tag_126\n        /* \"@openzeppelin/contracts@4.4.2/access/Ownable.sol\":1259:1269  _msgSender */\n      tag_67\n        /* \"@openzeppelin/contracts@4.4.2/access/Ownable.sol\":1259:1271  _msgSender() */\n      jump\t// in\n    tag_126:\n        /* \"@openzeppelin/contracts@4.4.2/access/Ownable.sol\":1248:1271  owner() == _msgSender() */\n      0xffffffffffffffffffffffffffffffffffffffff\n      and\n        /* \"@openzeppelin/contracts@4.4.2/access/Ownable.sol\":1248:1255  owner() */\n      tag_127\n        /* \"@openzeppelin/contracts@4.4.2/access/Ownable.sol\":1248:1253  owner */\n      tag_41\n        /* \"@openzeppelin/contracts@4.4.2/access/Ownable.sol\":1248:1255  owner() */\n      jump\t// in\n    tag_127:\n        /* \"@openzeppelin/contracts@4.4.2/access/Ownable.sol\":1248:1271  owner() == _msgSender() */\n      0xffffffffffffffffffffffffffffffffffffffff\n      and\n      eq\n        /* \"@openzeppelin/contracts@4.4.2/access/Ownable.sol\":1240:1308  require(owner() == _msgSender(), \"Ownable: caller is not the owner\") */\n      tag_128\n      jumpi\n      mload(0x40)\n      0x08c379a000000000000000000000000000000000000000000000000000000000\n      dup2\n      mstore\n      0x04\n      add\n      tag_129\n      swap1\n      tag_71\n      jump\t// in\n    tag_129:\n      mload(0x40)\n      dup1\n      swap2\n      sub\n      swap1\n      revert\n    tag_128:\n        /* \"@openzeppelin/contracts@4.4.2/access/Ownable.sol\":2026:2027  0 */\n      0x00\n        /* \"@openzeppelin/contracts@4.4.2/access/Ownable.sol\":2006:2028  newOwner != address(0) */\n      0xffffffffffffffffffffffffffffffffffffffff\n      and\n        /* \"@openzeppelin/contracts@4.4.2/access/Ownable.sol\":2006:2014  newOwner */\n      dup2\n        /* \"@openzeppelin/contracts@4.4.2/access/Ownable.sol\":2006:2028  newOwner != address(0) */\n      0xffffffffffffffffffffffffffffffffffffffff\n      and\n      eq\n      iszero\n        /* \"@openzeppelin/contracts@4.4.2/access/Ownable.sol\":1998:2071  require(newOwner != address(0), \"Ownable: new owner is the zero address\") */\n      tag_131\n      jumpi\n      mload(0x40)\n      0x08c379a000000000000000000000000000000000000000000000000000000000\n      dup2\n      mstore\n      0x04\n      add\n      tag_132\n      swap1\n      tag_133\n      jump\t// in\n    tag_132:\n      mload(0x40)\n      dup1\n      swap2\n      sub\n      swap1\n      revert\n    tag_131:\n        /* \"@openzeppelin/contracts@4.4.2/access/Ownable.sol\":2081:2109  _transferOwnership(newOwner) */\n      tag_134\n        /* \"@openzeppelin/contracts@4.4.2/access/Ownable.sol\":2100:2108  newOwner */\n      dup2\n        /* \"@openzeppelin/contracts@4.4.2/access/Ownable.sol\":2081:2099  _transferOwnership */\n      tag_108\n        /* \"@openzeppelin/contracts@4.4.2/access/Ownable.sol\":2081:2109  _transferOwnership(newOwner) */\n      jump\t// in\n    tag_134:\n        /* \"@openzeppelin/contracts@4.4.2/access/Ownable.sol\":1918:2116  function transferOwnership(address newOwner) public virtual onlyOwner {... */\n      pop\n      jump\t// out\n        /* \"contracts/Founding Citizens NFT Sale Privileged Buyers List Storage.sol\":2727:2887  function addressHasCoupon(address address_) public view returns(bool) {\r... */\n    tag_63:\n        /* \"contracts/Founding Citizens NFT Sale Privileged Buyers List Storage.sol\":2791:2795  bool */\n      0x00\n        /* \"contracts/Founding Citizens NFT Sale Privileged Buyers List Storage.sol\":2877:2878  0 */\n      dup1\n        /* \"contracts/Founding Citizens NFT Sale Privileged Buyers List Storage.sol\":2816:2827  addressList */\n      0x01\n        /* \"contracts/Founding Citizens NFT Sale Privileged Buyers List Storage.sol\":2816:2839  addressList.couponLists */\n      0x03\n      add\n        /* \"contracts/Founding Citizens NFT Sale Privileged Buyers List Storage.sol\":2816:2866  addressList.couponLists[addressList.ids[address_]] */\n      0x00\n        /* \"contracts/Founding Citizens NFT Sale Privileged Buyers List Storage.sol\":2840:2851  addressList */\n      0x01\n        /* \"contracts/Founding Citizens NFT Sale Privileged Buyers List Storage.sol\":2840:2855  addressList.ids */\n      0x02\n      add\n        /* \"contracts/Founding Citizens NFT Sale Privileged Buyers List Storage.sol\":2840:2865  addressList.ids[address_] */\n      0x00\n        /* \"contracts/Founding Citizens NFT Sale Privileged Buyers List Storage.sol\":2856:2864  address_ */\n      dup7\n        /* \"contracts/Founding Citizens NFT Sale Privileged Buyers List Storage.sol\":2840:2865  addressList.ids[address_] */\n      0xffffffffffffffffffffffffffffffffffffffff\n      and\n      0xffffffffffffffffffffffffffffffffffffffff\n      and\n      dup2\n      mstore\n      0x20\n      add\n      swap1\n      dup2\n      mstore\n      0x20\n      add\n      0x00\n      keccak256\n      sload\n        /* \"contracts/Founding Citizens NFT Sale Privileged Buyers List Storage.sol\":2816:2866  addressList.couponLists[addressList.ids[address_]] */\n      dup2\n      mstore\n      0x20\n      add\n      swap1\n      dup2\n      mstore\n      0x20\n      add\n      0x00\n      keccak256\n        /* \"contracts/Founding Citizens NFT Sale Privileged Buyers List Storage.sol\":2816:2873  addressList.couponLists[addressList.ids[address_]].length */\n      0x00\n      add\n      sload\n        /* \"contracts/Founding Citizens NFT Sale Privileged Buyers List Storage.sol\":2816:2878  addressList.couponLists[addressList.ids[address_]].length == 0 */\n      eq\n        /* \"contracts/Founding Citizens NFT Sale Privileged Buyers List Storage.sol\":2808:2879  return (addressList.couponLists[addressList.ids[address_]].length == 0) */\n      swap1\n      pop\n        /* \"contracts/Founding Citizens NFT Sale Privileged Buyers List Storage.sol\":2727:2887  function addressHasCoupon(address address_) public view returns(bool) {\r... */\n      swap2\n      swap1\n      pop\n      jump\t// out\n        /* \"@openzeppelin/contracts@4.4.2/utils/Context.sol\":640:736  function _msgSender() internal view virtual returns (address) {... */\n    tag_67:\n        /* \"@openzeppelin/contracts@4.4.2/utils/Context.sol\":693:700  address */\n      0x00\n        /* \"@openzeppelin/contracts@4.4.2/utils/Context.sol\":719:729  msg.sender */\n      caller\n        /* \"@openzeppelin/contracts@4.4.2/utils/Context.sol\":712:729  return msg.sender */\n      swap1\n      pop\n        /* \"@openzeppelin/contracts@4.4.2/utils/Context.sol\":640:736  function _msgSender() internal view virtual returns (address) {... */\n      swap1\n      jump\t// out\n        /* \"@openzeppelin/contracts@4.4.2/access/Ownable.sol\":2270:2457  function _transferOwnership(address newOwner) internal virtual {... */\n    tag_108:\n        /* \"@openzeppelin/contracts@4.4.2/access/Ownable.sol\":2343:2359  address oldOwner */\n      0x00\n        /* \"@openzeppelin/contracts@4.4.2/access/Ownable.sol\":2362:2368  _owner */\n      dup1\n      0x00\n      swap1\n      sload\n      swap1\n      0x0100\n      exp\n      swap1\n      div\n      0xffffffffffffffffffffffffffffffffffffffff\n      and\n        /* \"@openzeppelin/contracts@4.4.2/access/Ownable.sol\":2343:2368  address oldOwner = _owner */\n      swap1\n      pop\n        /* \"@openzeppelin/contracts@4.4.2/access/Ownable.sol\":2387:2395  newOwner */\n      dup2\n        /* \"@openzeppelin/contracts@4.4.2/access/Ownable.sol\":2378:2384  _owner */\n      0x00\n      dup1\n        /* \"@openzeppelin/contracts@4.4.2/access/Ownable.sol\":2378:2395  _owner = newOwner */\n      0x0100\n      exp\n      dup2\n      sload\n      dup2\n      0xffffffffffffffffffffffffffffffffffffffff\n      mul\n      not\n      and\n      swap1\n      dup4\n      0xffffffffffffffffffffffffffffffffffffffff\n      and\n      mul\n      or\n      swap1\n      sstore\n      pop\n        /* \"@openzeppelin/contracts@4.4.2/access/Ownable.sol\":2441:2449  newOwner */\n      dup2\n        /* \"@openzeppelin/contracts@4.4.2/access/Ownable.sol\":2410:2450  OwnershipTransferred(oldOwner, newOwner) */\n      0xffffffffffffffffffffffffffffffffffffffff\n      and\n        /* \"@openzeppelin/contracts@4.4.2/access/Ownable.sol\":2431:2439  oldOwner */\n      dup2\n        /* \"@openzeppelin/contracts@4.4.2/access/Ownable.sol\":2410:2450  OwnershipTransferred(oldOwner, newOwner) */\n      0xffffffffffffffffffffffffffffffffffffffff\n      and\n      0x8be0079c531659141344cd1fd0a4f28419497f9722a3daafe3b4186f6b6457e0\n      mload(0x40)\n      mload(0x40)\n      dup1\n      swap2\n      sub\n      swap1\n      log3\n        /* \"@openzeppelin/contracts@4.4.2/access/Ownable.sol\":2270:2457  function _transferOwnership(address newOwner) internal virtual {... */\n      pop\n      pop\n      jump\t// out\n        /* \"#utility.yul\":7:146   */\n    tag_139:\n      0x00\n        /* \"#utility.yul\":91:97   */\n      dup2\n        /* \"#utility.yul\":78:98   */\n      calldataload\n        /* \"#utility.yul\":69:98   */\n      swap1\n      pop\n        /* \"#utility.yul\":107:140   */\n      tag_141\n        /* \"#utility.yul\":134:139   */\n      dup2\n        /* \"#utility.yul\":107:140   */\n      tag_142\n      jump\t// in\n    tag_141:\n        /* \"#utility.yul\":59:146   */\n      swap3\n      swap2\n      pop\n      pop\n      jump\t// out\n        /* \"#utility.yul\":152:291   */\n    tag_143:\n      0x00\n        /* \"#utility.yul\":236:242   */\n      dup2\n        /* \"#utility.yul\":223:243   */\n      calldataload\n        /* \"#utility.yul\":214:243   */\n      swap1\n      pop\n        /* \"#utility.yul\":252:285   */\n      tag_145\n        /* \"#utility.yul\":279:284   */\n      dup2\n        /* \"#utility.yul\":252:285   */\n      tag_146\n      jump\t// in\n    tag_145:\n        /* \"#utility.yul\":204:291   */\n      swap3\n      swap2\n      pop\n      pop\n      jump\t// out\n        /* \"#utility.yul\":297:559   */\n    tag_20:\n      0x00\n        /* \"#utility.yul\":405:407   */\n      0x20\n        /* \"#utility.yul\":393:402   */\n      dup3\n        /* \"#utility.yul\":384:391   */\n      dup5\n        /* \"#utility.yul\":380:403   */\n      sub\n        /* \"#utility.yul\":376:408   */\n      slt\n        /* \"#utility.yul\":373:375   */\n      iszero\n      tag_148\n      jumpi\n        /* \"#utility.yul\":421:422   */\n      0x00\n        /* \"#utility.yul\":418:419   */\n      dup1\n        /* \"#utility.yul\":411:423   */\n      revert\n        /* \"#utility.yul\":373:375   */\n    tag_148:\n        /* \"#utility.yul\":464:465   */\n      0x00\n        /* \"#utility.yul\":489:542   */\n      tag_149\n        /* \"#utility.yul\":534:541   */\n      dup5\n        /* \"#utility.yul\":525:531   */\n      dup3\n        /* \"#utility.yul\":514:523   */\n      dup6\n        /* \"#utility.yul\":510:532   */\n      add\n        /* \"#utility.yul\":489:542   */\n      tag_139\n      jump\t// in\n    tag_149:\n        /* \"#utility.yul\":479:542   */\n      swap2\n      pop\n        /* \"#utility.yul\":435:552   */\n      pop\n        /* \"#utility.yul\":363:559   */\n      swap3\n      swap2\n      pop\n      pop\n      jump\t// out\n        /* \"#utility.yul\":565:972   */\n    tag_24:\n      0x00\n      dup1\n        /* \"#utility.yul\":690:692   */\n      0x40\n        /* \"#utility.yul\":678:687   */\n      dup4\n        /* \"#utility.yul\":669:676   */\n      dup6\n        /* \"#utility.yul\":665:688   */\n      sub\n        /* \"#utility.yul\":661:693   */\n      slt\n        /* \"#utility.yul\":658:660   */\n      iszero\n      tag_151\n      jumpi\n        /* \"#utility.yul\":706:707   */\n      0x00\n        /* \"#utility.yul\":703:704   */\n      dup1\n        /* \"#utility.yul\":696:708   */\n      revert\n        /* \"#utility.yul\":658:660   */\n    tag_151:\n        /* \"#utility.yul\":749:750   */\n      0x00\n        /* \"#utility.yul\":774:827   */\n      tag_152\n        /* \"#utility.yul\":819:826   */\n      dup6\n        /* \"#utility.yul\":810:816   */\n      dup3\n        /* \"#utility.yul\":799:808   */\n      dup7\n        /* \"#utility.yul\":795:817   */\n      add\n        /* \"#utility.yul\":774:827   */\n      tag_139\n      jump\t// in\n    tag_152:\n        /* \"#utility.yul\":764:827   */\n      swap3\n      pop\n        /* \"#utility.yul\":720:837   */\n      pop\n        /* \"#utility.yul\":876:878   */\n      0x20\n        /* \"#utility.yul\":902:955   */\n      tag_153\n        /* \"#utility.yul\":947:954   */\n      dup6\n        /* \"#utility.yul\":938:944   */\n      dup3\n        /* \"#utility.yul\":927:936   */\n      dup7\n        /* \"#utility.yul\":923:945   */\n      add\n        /* \"#utility.yul\":902:955   */\n      tag_143\n      jump\t// in\n    tag_153:\n        /* \"#utility.yul\":892:955   */\n      swap2\n      pop\n        /* \"#utility.yul\":847:965   */\n      pop\n        /* \"#utility.yul\":648:972   */\n      swap3\n      pop\n      swap3\n      swap1\n      pop\n      jump\t// out\n        /* \"#utility.yul\":978:1530   */\n    tag_28:\n      0x00\n      dup1\n      0x00\n        /* \"#utility.yul\":1120:1122   */\n      0x60\n        /* \"#utility.yul\":1108:1117   */\n      dup5\n        /* \"#utility.yul\":1099:1106   */\n      dup7\n        /* \"#utility.yul\":1095:1118   */\n      sub\n        /* \"#utility.yul\":1091:1123   */\n      slt\n        /* \"#utility.yul\":1088:1090   */\n      iszero\n      tag_155\n      jumpi\n        /* \"#utility.yul\":1136:1137   */\n      0x00\n        /* \"#utility.yul\":1133:1134   */\n      dup1\n        /* \"#utility.yul\":1126:1138   */\n      revert\n        /* \"#utility.yul\":1088:1090   */\n    tag_155:\n        /* \"#utility.yul\":1179:1180   */\n      0x00\n        /* \"#utility.yul\":1204:1257   */\n      tag_156\n        /* \"#utility.yul\":1249:1256   */\n      dup7\n        /* \"#utility.yul\":1240:1246   */\n      dup3\n        /* \"#utility.yul\":1229:1238   */\n      dup8\n        /* \"#utility.yul\":1225:1247   */\n      add\n        /* \"#utility.yul\":1204:1257   */\n      tag_139\n      jump\t// in\n    tag_156:\n        /* \"#utility.yul\":1194:1257   */\n      swap4\n      pop\n        /* \"#utility.yul\":1150:1267   */\n      pop\n        /* \"#utility.yul\":1306:1308   */\n      0x20\n        /* \"#utility.yul\":1332:1385   */\n      tag_157\n        /* \"#utility.yul\":1377:1384   */\n      dup7\n        /* \"#utility.yul\":1368:1374   */\n      dup3\n        /* \"#utility.yul\":1357:1366   */\n      dup8\n        /* \"#utility.yul\":1353:1375   */\n      add\n        /* \"#utility.yul\":1332:1385   */\n      tag_143\n      jump\t// in\n    tag_157:\n        /* \"#utility.yul\":1322:1385   */\n      swap3\n      pop\n        /* \"#utility.yul\":1277:1395   */\n      pop\n        /* \"#utility.yul\":1434:1436   */\n      0x40\n        /* \"#utility.yul\":1460:1513   */\n      tag_158\n        /* \"#utility.yul\":1505:1512   */\n      dup7\n        /* \"#utility.yul\":1496:1502   */\n      dup3\n        /* \"#utility.yul\":1485:1494   */\n      dup8\n        /* \"#utility.yul\":1481:1503   */\n      add\n        /* \"#utility.yul\":1460:1513   */\n      tag_143\n      jump\t// in\n    tag_158:\n        /* \"#utility.yul\":1450:1513   */\n      swap2\n      pop\n        /* \"#utility.yul\":1405:1523   */\n      pop\n        /* \"#utility.yul\":1078:1530   */\n      swap3\n      pop\n      swap3\n      pop\n      swap3\n      jump\t// out\n        /* \"#utility.yul\":1536:1654   */\n    tag_159:\n        /* \"#utility.yul\":1623:1647   */\n      tag_161\n        /* \"#utility.yul\":1641:1646   */\n      dup2\n        /* \"#utility.yul\":1623:1647   */\n      tag_162\n      jump\t// in\n    tag_161:\n        /* \"#utility.yul\":1618:1621   */\n      dup3\n        /* \"#utility.yul\":1611:1648   */\n      mstore\n        /* \"#utility.yul\":1601:1654   */\n      pop\n      pop\n      jump\t// out\n        /* \"#utility.yul\":1660:1769   */\n    tag_163:\n        /* \"#utility.yul\":1741:1762   */\n      tag_165\n        /* \"#utility.yul\":1756:1761   */\n      dup2\n        /* \"#utility.yul\":1741:1762   */\n      tag_166\n      jump\t// in\n    tag_165:\n        /* \"#utility.yul\":1736:1739   */\n      dup3\n        /* \"#utility.yul\":1729:1763   */\n      mstore\n        /* \"#utility.yul\":1719:1769   */\n      pop\n      pop\n      jump\t// out\n        /* \"#utility.yul\":1775:2141   */\n    tag_167:\n      0x00\n        /* \"#utility.yul\":1938:2005   */\n      tag_169\n        /* \"#utility.yul\":2002:2004   */\n      0x26\n        /* \"#utility.yul\":1997:2000   */\n      dup4\n        /* \"#utility.yul\":1938:2005   */\n      tag_170\n      jump\t// in\n    tag_169:\n        /* \"#utility.yul\":1931:2005   */\n      swap2\n      pop\n        /* \"#utility.yul\":2014:2107   */\n      tag_171\n        /* \"#utility.yul\":2103:2106   */\n      dup3\n        /* \"#utility.yul\":2014:2107   */\n      tag_172\n      jump\t// in\n    tag_171:\n        /* \"#utility.yul\":2132:2134   */\n      0x40\n        /* \"#utility.yul\":2127:2130   */\n      dup3\n        /* \"#utility.yul\":2123:2135   */\n      add\n        /* \"#utility.yul\":2116:2135   */\n      swap1\n      pop\n        /* \"#utility.yul\":1921:2141   */\n      swap2\n      swap1\n      pop\n      jump\t// out\n        /* \"#utility.yul\":2147:2513   */\n    tag_173:\n      0x00\n        /* \"#utility.yul\":2310:2377   */\n      tag_175\n        /* \"#utility.yul\":2374:2376   */\n      0x20\n        /* \"#utility.yul\":2369:2372   */\n      dup4\n        /* \"#utility.yul\":2310:2377   */\n      tag_170\n      jump\t// in\n    tag_175:\n        /* \"#utility.yul\":2303:2377   */\n      swap2\n      pop\n        /* \"#utility.yul\":2386:2479   */\n      tag_176\n        /* \"#utility.yul\":2475:2478   */\n      dup3\n        /* \"#utility.yul\":2386:2479   */\n      tag_177\n      jump\t// in\n    tag_176:\n        /* \"#utility.yul\":2504:2506   */\n      0x20\n        /* \"#utility.yul\":2499:2502   */\n      dup3\n        /* \"#utility.yul\":2495:2507   */\n      add\n        /* \"#utility.yul\":2488:2507   */\n      swap1\n      pop\n        /* \"#utility.yul\":2293:2513   */\n      swap2\n      swap1\n      pop\n      jump\t// out\n        /* \"#utility.yul\":2519:2637   */\n    tag_178:\n        /* \"#utility.yul\":2606:2630   */\n      tag_180\n        /* \"#utility.yul\":2624:2629   */\n      dup2\n        /* \"#utility.yul\":2606:2630   */\n      tag_181\n      jump\t// in\n    tag_180:\n        /* \"#utility.yul\":2601:2604   */\n      dup3\n        /* \"#utility.yul\":2594:2631   */\n      mstore\n        /* \"#utility.yul\":2584:2637   */\n      pop\n      pop\n      jump\t// out\n        /* \"#utility.yul\":2643:2865   */\n    tag_43:\n      0x00\n        /* \"#utility.yul\":2774:2776   */\n      0x20\n        /* \"#utility.yul\":2763:2772   */\n      dup3\n        /* \"#utility.yul\":2759:2777   */\n      add\n        /* \"#utility.yul\":2751:2777   */\n      swap1\n      pop\n        /* \"#utility.yul\":2787:2858   */\n      tag_183\n        /* \"#utility.yul\":2855:2856   */\n      0x00\n        /* \"#utility.yul\":2844:2853   */\n      dup4\n        /* \"#utility.yul\":2840:2857   */\n      add\n        /* \"#utility.yul\":2831:2837   */\n      dup5\n        /* \"#utility.yul\":2787:2858   */\n      tag_159\n      jump\t// in\n    tag_183:\n        /* \"#utility.yul\":2741:2865   */\n      swap3\n      swap2\n      pop\n      pop\n      jump\t// out\n        /* \"#utility.yul\":2871:3081   */\n    tag_48:\n      0x00\n        /* \"#utility.yul\":2996:2998   */\n      0x20\n        /* \"#utility.yul\":2985:2994   */\n      dup3\n        /* \"#utility.yul\":2981:2999   */\n      add\n        /* \"#utility.yul\":2973:2999   */\n      swap1\n      pop\n        /* \"#utility.yul\":3009:3074   */\n      tag_185\n        /* \"#utility.yul\":3071:3072   */\n      0x00\n        /* \"#utility.yul\":3060:3069   */\n      dup4\n        /* \"#utility.yul\":3056:3073   */\n      add\n        /* \"#utility.yul\":3047:3053   */\n      dup5\n        /* \"#utility.yul\":3009:3074   */\n      tag_163\n      jump\t// in\n    tag_185:\n        /* \"#utility.yul\":2963:3081   */\n      swap3\n      swap2\n      pop\n      pop\n      jump\t// out\n        /* \"#utility.yul\":3087:3506   */\n    tag_133:\n      0x00\n        /* \"#utility.yul\":3291:3293   */\n      0x20\n        /* \"#utility.yul\":3280:3289   */\n      dup3\n        /* \"#utility.yul\":3276:3294   */\n      add\n        /* \"#utility.yul\":3268:3294   */\n      swap1\n      pop\n        /* \"#utility.yul\":3340:3349   */\n      dup2\n        /* \"#utility.yul\":3334:3338   */\n      dup2\n        /* \"#utility.yul\":3330:3350   */\n      sub\n        /* \"#utility.yul\":3326:3327   */\n      0x00\n        /* \"#utility.yul\":3315:3324   */\n      dup4\n        /* \"#utility.yul\":3311:3328   */\n      add\n        /* \"#utility.yul\":3304:3351   */\n      mstore\n        /* \"#utility.yul\":3368:3499   */\n      tag_187\n        /* \"#utility.yul\":3494:3498   */\n      dup2\n        /* \"#utility.yul\":3368:3499   */\n      tag_167\n      jump\t// in\n    tag_187:\n        /* \"#utility.yul\":3360:3499   */\n      swap1\n      pop\n        /* \"#utility.yul\":3258:3506   */\n      swap2\n      swap1\n      pop\n      jump\t// out\n        /* \"#utility.yul\":3512:3931   */\n    tag_71:\n      0x00\n        /* \"#utility.yul\":3716:3718   */\n      0x20\n        /* \"#utility.yul\":3705:3714   */\n      dup3\n        /* \"#utility.yul\":3701:3719   */\n      add\n        /* \"#utility.yul\":3693:3719   */\n      swap1\n      pop\n        /* \"#utility.yul\":3765:3774   */\n      dup2\n        /* \"#utility.yul\":3759:3763   */\n      dup2\n        /* \"#utility.yul\":3755:3775   */\n      sub\n        /* \"#utility.yul\":3751:3752   */\n      0x00\n        /* \"#utility.yul\":3740:3749   */\n      dup4\n        /* \"#utility.yul\":3736:3753   */\n      add\n        /* \"#utility.yul\":3729:3776   */\n      mstore\n        /* \"#utility.yul\":3793:3924   */\n      tag_189\n        /* \"#utility.yul\":3919:3923   */\n      dup2\n        /* \"#utility.yul\":3793:3924   */\n      tag_173\n      jump\t// in\n    tag_189:\n        /* \"#utility.yul\":3785:3924   */\n      swap1\n      pop\n        /* \"#utility.yul\":3683:3931   */\n      swap2\n      swap1\n      pop\n      jump\t// out\n        /* \"#utility.yul\":3937:4159   */\n    tag_39:\n      0x00\n        /* \"#utility.yul\":4068:4070   */\n      0x20\n        /* \"#utility.yul\":4057:4066   */\n      dup3\n        /* \"#utility.yul\":4053:4071   */\n      add\n        /* \"#utility.yul\":4045:4071   */\n      swap1\n      pop\n        /* \"#utility.yul\":4081:4152   */\n      tag_191\n        /* \"#utility.yul\":4149:4150   */\n      0x00\n        /* \"#utility.yul\":4138:4147   */\n      dup4\n        /* \"#utility.yul\":4134:4151   */\n      add\n        /* \"#utility.yul\":4125:4131   */\n      dup5\n        /* \"#utility.yul\":4081:4152   */\n      tag_178\n      jump\t// in\n    tag_191:\n        /* \"#utility.yul\":4035:4159   */\n      swap3\n      swap2\n      pop\n      pop\n      jump\t// out\n        /* \"#utility.yul\":4165:4334   */\n    tag_170:\n      0x00\n        /* \"#utility.yul\":4283:4289   */\n      dup3\n        /* \"#utility.yul\":4278:4281   */\n      dup3\n        /* \"#utility.yul\":4271:4290   */\n      mstore\n        /* \"#utility.yul\":4323:4327   */\n      0x20\n        /* \"#utility.yul\":4318:4321   */\n      dup3\n        /* \"#utility.yul\":4314:4328   */\n      add\n        /* \"#utility.yul\":4299:4328   */\n      swap1\n      pop\n        /* \"#utility.yul\":4261:4334   */\n      swap3\n      swap2\n      pop\n      pop\n      jump\t// out\n        /* \"#utility.yul\":4340:4436   */\n    tag_162:\n      0x00\n        /* \"#utility.yul\":4406:4430   */\n      tag_194\n        /* \"#utility.yul\":4424:4429   */\n      dup3\n        /* \"#utility.yul\":4406:4430   */\n      tag_195\n      jump\t// in\n    tag_194:\n        /* \"#utility.yul\":4395:4430   */\n      swap1\n      pop\n        /* \"#utility.yul\":4385:4436   */\n      swap2\n      swap1\n      pop\n      jump\t// out\n        /* \"#utility.yul\":4442:4532   */\n    tag_166:\n      0x00\n        /* \"#utility.yul\":4519:4524   */\n      dup2\n        /* \"#utility.yul\":4512:4525   */\n      iszero\n        /* \"#utility.yul\":4505:4526   */\n      iszero\n        /* \"#utility.yul\":4494:4526   */\n      swap1\n      pop\n        /* \"#utility.yul\":4484:4532   */\n      swap2\n      swap1\n      pop\n      jump\t// out\n        /* \"#utility.yul\":4538:4664   */\n    tag_195:\n      0x00\n        /* \"#utility.yul\":4615:4657   */\n      0xffffffffffffffffffffffffffffffffffffffff\n        /* \"#utility.yul\":4608:4613   */\n      dup3\n        /* \"#utility.yul\":4604:4658   */\n      and\n        /* \"#utility.yul\":4593:4658   */\n      swap1\n      pop\n        /* \"#utility.yul\":4583:4664   */\n      swap2\n      swap1\n      pop\n      jump\t// out\n        /* \"#utility.yul\":4670:4747   */\n    tag_181:\n      0x00\n        /* \"#utility.yul\":4736:4741   */\n      dup2\n        /* \"#utility.yul\":4725:4741   */\n      swap1\n      pop\n        /* \"#utility.yul\":4715:4747   */\n      swap2\n      swap1\n      pop\n      jump\t// out\n        /* \"#utility.yul\":4753:4924   */\n    tag_100:\n      0x00\n        /* \"#utility.yul\":4815:4839   */\n      tag_200\n        /* \"#utility.yul\":4833:4838   */\n      dup3\n        /* \"#utility.yul\":4815:4839   */\n      tag_181\n      jump\t// in\n    tag_200:\n        /* \"#utility.yul\":4806:4839   */\n      swap2\n      pop\n        /* \"#utility.yul\":4861:4865   */\n      0x00\n        /* \"#utility.yul\":4854:4859   */\n      dup3\n        /* \"#utility.yul\":4851:4866   */\n      eq\n        /* \"#utility.yul\":4848:4850   */\n      iszero\n      tag_201\n      jumpi\n        /* \"#utility.yul\":4869:4887   */\n      tag_202\n      tag_203\n      jump\t// in\n    tag_202:\n        /* \"#utility.yul\":4848:4850   */\n    tag_201:\n        /* \"#utility.yul\":4916:4917   */\n      0x01\n        /* \"#utility.yul\":4909:4914   */\n      dup3\n        /* \"#utility.yul\":4905:4918   */\n      sub\n        /* \"#utility.yul\":4898:4918   */\n      swap1\n      pop\n        /* \"#utility.yul\":4796:4924   */\n      swap2\n      swap1\n      pop\n      jump\t// out\n        /* \"#utility.yul\":4930:5163   */\n    tag_74:\n      0x00\n        /* \"#utility.yul\":4992:5016   */\n      tag_205\n        /* \"#utility.yul\":5010:5015   */\n      dup3\n        /* \"#utility.yul\":4992:5016   */\n      tag_181\n      jump\t// in\n    tag_205:\n        /* \"#utility.yul\":4983:5016   */\n      swap2\n      pop\n        /* \"#utility.yul\":5038:5104   */\n      0xffffffffffffffffffffffffffffffffffffffffffffffffffffffffffffffff\n        /* \"#utility.yul\":5031:5036   */\n      dup3\n        /* \"#utility.yul\":5028:5105   */\n      eq\n        /* \"#utility.yul\":5025:5027   */\n      iszero\n      tag_206\n      jumpi\n        /* \"#utility.yul\":5108:5126   */\n      tag_207\n      tag_203\n      jump\t// in\n    tag_207:\n        /* \"#utility.yul\":5025:5027   */\n    tag_206:\n        /* \"#utility.yul\":5155:5156   */\n      0x01\n        /* \"#utility.yul\":5148:5153   */\n      dup3\n        /* \"#utility.yul\":5144:5157   */\n      add\n        /* \"#utility.yul\":5137:5157   */\n      swap1\n      pop\n        /* \"#utility.yul\":4973:5163   */\n      swap2\n      swap1\n      pop\n      jump\t// out\n        /* \"#utility.yul\":5169:5349   */\n    tag_203:\n        /* \"#utility.yul\":5217:5294   */\n      0x4e487b7100000000000000000000000000000000000000000000000000000000\n        /* \"#utility.yul\":5214:5215   */\n      0x00\n        /* \"#utility.yul\":5207:5295   */\n      mstore\n        /* \"#utility.yul\":5314:5318   */\n      0x11\n        /* \"#utility.yul\":5311:5312   */\n      0x04\n        /* \"#utility.yul\":5304:5319   */\n      mstore\n        /* \"#utility.yul\":5338:5342   */\n      0x24\n        /* \"#utility.yul\":5335:5336   */\n      0x00\n        /* \"#utility.yul\":5328:5343   */\n      revert\n        /* \"#utility.yul\":5355:5580   */\n    tag_172:\n        /* \"#utility.yul\":5495:5529   */\n      0x4f776e61626c653a206e6577206f776e657220697320746865207a65726f2061\n        /* \"#utility.yul\":5491:5492   */\n      0x00\n        /* \"#utility.yul\":5483:5489   */\n      dup3\n        /* \"#utility.yul\":5479:5493   */\n      add\n        /* \"#utility.yul\":5472:5530   */\n      mstore\n        /* \"#utility.yul\":5564:5572   */\n      0x6464726573730000000000000000000000000000000000000000000000000000\n        /* \"#utility.yul\":5559:5561   */\n      0x20\n        /* \"#utility.yul\":5551:5557   */\n      dup3\n        /* \"#utility.yul\":5547:5562   */\n      add\n        /* \"#utility.yul\":5540:5573   */\n      mstore\n        /* \"#utility.yul\":5461:5580   */\n      pop\n      jump\t// out\n        /* \"#utility.yul\":5586:5768   */\n    tag_177:\n        /* \"#utility.yul\":5726:5760   */\n      0x4f776e61626c653a2063616c6c6572206973206e6f7420746865206f776e6572\n        /* \"#utility.yul\":5722:5723   */\n      0x00\n        /* \"#utility.yul\":5714:5720   */\n      dup3\n        /* \"#utility.yul\":5710:5724   */\n      add\n        /* \"#utility.yul\":5703:5761   */\n      mstore\n        /* \"#utility.yul\":5692:5768   */\n      pop\n      jump\t// out\n        /* \"#utility.yul\":5774:5896   */\n    tag_142:\n        /* \"#utility.yul\":5847:5871   */\n      tag_212\n        /* \"#utility.yul\":5865:5870   */\n      dup2\n        /* \"#utility.yul\":5847:5871   */\n      tag_162\n      jump\t// in\n    tag_212:\n        /* \"#utility.yul\":5840:5845   */\n      dup2\n        /* \"#utility.yul\":5837:5872   */\n      eq\n        /* \"#utility.yul\":5827:5829   */\n      tag_213\n      jumpi\n        /* \"#utility.yul\":5886:5887   */\n      0x00\n        /* \"#utility.yul\":5883:5884   */\n      dup1\n        /* \"#utility.yul\":5876:5888   */\n      revert\n        /* \"#utility.yul\":5827:5829   */\n    tag_213:\n        /* \"#utility.yul\":5817:5896   */\n      pop\n      jump\t// out\n        /* \"#utility.yul\":5902:6024   */\n    tag_146:\n        /* \"#utility.yul\":5975:5999   */\n      tag_215\n        /* \"#utility.yul\":5993:5998   */\n      dup2\n        /* \"#utility.yul\":5975:5999   */\n      tag_181\n      jump\t// in\n    tag_215:\n        /* \"#utility.yul\":5968:5973   */\n      dup2\n        /* \"#utility.yul\":5965:6000   */\n      eq\n        /* \"#utility.yul\":5955:5957   */\n      tag_216\n      jumpi\n        /* \"#utility.yul\":6014:6015   */\n      0x00\n        /* \"#utility.yul\":6011:6012   */\n      dup1\n        /* \"#utility.yul\":6004:6016   */\n      revert\n        /* \"#utility.yul\":5955:5957   */\n    tag_216:\n        /* \"#utility.yul\":5945:6024   */\n      pop\n      jump\t// out\n\n    auxdata: 0xa2646970667358221220fb180b042c2e720b34055d14b041fab50f7da2dafa8ea52a1725a9cbf63943cf64736f6c63430008010033\n}\n",
				"bytecode": {
					"linkReferences": {},
					"object": "608060405234801561001057600080fd5b5061002d61002261003260201b60201c565b61003a60201b60201c565b6100fe565b600033905090565b60008060009054906101000a900473ffffffffffffffffffffffffffffffffffffffff169050816000806101000a81548173ffffffffffffffffffffffffffffffffffffffff021916908373ffffffffffffffffffffffffffffffffffffffff1602179055508173ffffffffffffffffffffffffffffffffffffffff168173ffffffffffffffffffffffffffffffffffffffff167f8be0079c531659141344cd1fd0a4f28419497f9722a3daafe3b4186f6b6457e060405160405180910390a35050565b6111cd8061010d6000396000f3fe608060405234801561001057600080fd5b50600436106100cf5760003560e01c80638da5cb5b1161008c578063c1eb6dfd11610066578063c1eb6dfd146101e8578063e5bf7ffc14610206578063f2fde38b14610222578063f76da2a81461023e576100cf565b80638da5cb5b1461017e578063a50252221461019c578063c18ab7a2146101cc576100cf565b806338eada1c146100d45780633c25c06b146100f05780633edfcd2c1461010c5780634ba79dfe14610128578063715018a614610144578063838324d91461014e575b600080fd5b6100ee60048036038101906100e99190610e3e565b61026e565b005b61010a60048036038101906101059190610e67565b6103ad565b005b61012660048036038101906101219190610ea3565b61042d565b005b610142600480360381019061013d9190610e3e565b61062e565b005b61014c6108f1565b005b61016860048036038101906101639190610e3e565b610979565b6040516101759190610fdb565b60405180910390f35b6101866109de565b6040516101939190610f65565b60405180910390f35b6101b660048036038101906101b19190610e3e565b610a07565b6040516101c39190610f80565b60405180910390f35b6101e660048036038101906101e19190610ea3565b610a55565b005b6101f0610ad6565b6040516101fd9190610fdb565b60405180910390f35b610220600480360381019061021b9190610e67565b610ae2565b005b61023c60048036038101906102379190610e3e565b610be9565b005b61025860048036038101906102539190610e3e565b610ce1565b6040516102659190610f80565b60405180910390f35b610276610d48565b73ffffffffffffffffffffffffffffffffffffffff166102946109de565b73ffffffffffffffffffffffffffffffffffffffff16146102ea576040517f08c379a00000000000000000000000000000000000000000000000000000000081526004016102e190610fbb565b60405180910390fd5b6001600001600081548092919061030090611079565b919050555080600180016000600160000154815260200190815260200160002060006101000a81548173ffffffffffffffffffffffffffffffffffffffff021916908373ffffffffffffffffffffffffffffffffffffffff160217905550600160000154600160020160008373ffffffffffffffffffffffffffffffffffffffff1673ffffffffffffffffffffffffffffffffffffffff1681526020019081526020016000208190555050565b6103b5610d48565b73ffffffffffffffffffffffffffffffffffffffff166103d36109de565b73ffffffffffffffffffffffffffffffffffffffff1614610429576040517f08c379a000000000000000000000000000000000000000000000000000000000815260040161042090610fbb565b60405180910390fd5b5050565b610435610d48565b73ffffffffffffffffffffffffffffffffffffffff166104536109de565b73ffffffffffffffffffffffffffffffffffffffff16146104a9576040517f08c379a00000000000000000000000000000000000000000000000000000000081526004016104a090610fbb565b60405180910390fd5b6104b283610a07565b6104c0576104bf8361026e565b5b60016003016000600160020160008673ffffffffffffffffffffffffffffffffffffffff1673ffffffffffffffffffffffffffffffffffffffff168152602001908152602001600020548152602001908152602001600020600001600081548092919061052c90611079565b91905055508160016003016000600160020160008773ffffffffffffffffffffffffffffffffffffffff1673ffffffffffffffffffffffffffffffffffffffff168152602001908152602001600020548152602001908152602001600020600101600061059886610979565b8152602001908152602001600020600001819055508060016003016000600160020160008773ffffffffffffffffffffffffffffffffffffffff1673ffffffffffffffffffffffffffffffffffffffff168152602001908152602001600020548152602001908152602001600020600101600061061486610979565b815260200190815260200160002060010181905550505050565b610636610d48565b73ffffffffffffffffffffffffffffffffffffffff166106546109de565b73ffffffffffffffffffffffffffffffffffffffff16146106aa576040517f08c379a00000000000000000000000000000000000000000000000000000000081526004016106a190610fbb565b60405180910390fd5b6000600160020160008373ffffffffffffffffffffffffffffffffffffffff1673ffffffffffffffffffffffffffffffffffffffff1681526020019081526020016000205490506000829050600060016000015490506000600180016000600160000154815260200190815260200160002060009054906101000a900473ffffffffffffffffffffffffffffffffffffffff16905060018001600083815260200190815260200160002060009054906101000a900473ffffffffffffffffffffffffffffffffffffffff1660018001600086815260200190815260200160002060006101000a81548173ffffffffffffffffffffffffffffffffffffffff021916908373ffffffffffffffffffffffffffffffffffffffff16021790555060018001600083815260200190815260200160002060006101000a81549073ffffffffffffffffffffffffffffffffffffffff0219169055600160020160008273ffffffffffffffffffffffffffffffffffffffff1673ffffffffffffffffffffffffffffffffffffffff16815260200190815260200160002054600160020160008573ffffffffffffffffffffffffffffffffffffffff1673ffffffffffffffffffffffffffffffffffffffff16815260200190815260200160002081905550600160020160008273ffffffffffffffffffffffffffffffffffffffff1673ffffffffffffffffffffffffffffffffffffffff16815260200190815260200160002060009055600160000160008154809291906108e59061104f565b91905055505050505050565b6108f9610d48565b73ffffffffffffffffffffffffffffffffffffffff166109176109de565b73ffffffffffffffffffffffffffffffffffffffff161461096d576040517f08c379a000000000000000000000000000000000000000000000000000000000815260040161096490610fbb565b60405180910390fd5b6109776000610d50565b565b600060016003016000600160020160008573ffffffffffffffffffffffffffffffffffffffff1673ffffffffffffffffffffffffffffffffffffffff168152602001908152602001600020548152602001908152602001600020600001549050919050565b60008060009054906101000a900473ffffffffffffffffffffffffffffffffffffffff16905090565b600080600160020160008473ffffffffffffffffffffffffffffffffffffffff1673ffffffffffffffffffffffffffffffffffffffff16815260200190815260200160002054149050919050565b610a5d610d48565b73ffffffffffffffffffffffffffffffffffffffff16610a7b6109de565b73ffffffffffffffffffffffffffffffffffffffff1614610ad1576040517f08c379a0000000000000000000000000000000000000000000000000000000008152600401610ac890610fbb565b60405180910390fd5b505050565b60018060000154905081565b610aea610d48565b73ffffffffffffffffffffffffffffffffffffffff16610b086109de565b73ffffffffffffffffffffffffffffffffffffffff1614610b5e576040517f08c379a0000000000000000000000000000000000000000000000000000000008152600401610b5590610fbb565b60405180910390fd5b60016003016000600160020160008573ffffffffffffffffffffffffffffffffffffffff1673ffffffffffffffffffffffffffffffffffffffff1681526020019081526020016000205481526020019081526020016000206001016000610bc484610979565b8152602001908152602001600020600080820160009055600182016000905550505050565b610bf1610d48565b73ffffffffffffffffffffffffffffffffffffffff16610c0f6109de565b73ffffffffffffffffffffffffffffffffffffffff1614610c65576040517f08c379a0000000000000000000000000000000000000000000000000000000008152600401610c5c90610fbb565b60405180910390fd5b600073ffffffffffffffffffffffffffffffffffffffff168173ffffffffffffffffffffffffffffffffffffffff161415610cd5576040517f08c379a0000000000000000000000000000000000000000000000000000000008152600401610ccc90610f9b565b60405180910390fd5b610cde81610d50565b50565b60008060016003016000600160020160008673ffffffffffffffffffffffffffffffffffffffff1673ffffffffffffffffffffffffffffffffffffffff16815260200190815260200160002054815260200190815260200160002060000154149050919050565b600033905090565b60008060009054906101000a900473ffffffffffffffffffffffffffffffffffffffff169050816000806101000a81548173ffffffffffffffffffffffffffffffffffffffff021916908373ffffffffffffffffffffffffffffffffffffffff1602179055508173ffffffffffffffffffffffffffffffffffffffff168173ffffffffffffffffffffffffffffffffffffffff167f8be0079c531659141344cd1fd0a4f28419497f9722a3daafe3b4186f6b6457e060405160405180910390a35050565b600081359050610e2381611169565b92915050565b600081359050610e3881611180565b92915050565b600060208284031215610e5057600080fd5b6000610e5e84828501610e14565b91505092915050565b60008060408385031215610e7a57600080fd5b6000610e8885828601610e14565b9250506020610e9985828601610e29565b9150509250929050565b600080600060608486031215610eb857600080fd5b6000610ec686828701610e14565b9350506020610ed786828701610e29565b9250506040610ee886828701610e29565b9150509250925092565b610efb81611007565b82525050565b610f0a81611019565b82525050565b6000610f1d602683610ff6565b9150610f28826110f1565b604082019050919050565b6000610f40602083610ff6565b9150610f4b82611140565b602082019050919050565b610f5f81611045565b82525050565b6000602082019050610f7a6000830184610ef2565b92915050565b6000602082019050610f956000830184610f01565b92915050565b60006020820190508181036000830152610fb481610f10565b9050919050565b60006020820190508181036000830152610fd481610f33565b9050919050565b6000602082019050610ff06000830184610f56565b92915050565b600082825260208201905092915050565b600061101282611025565b9050919050565b60008115159050919050565b600073ffffffffffffffffffffffffffffffffffffffff82169050919050565b6000819050919050565b600061105a82611045565b9150600082141561106e5761106d6110c2565b5b600182039050919050565b600061108482611045565b91507fffffffffffffffffffffffffffffffffffffffffffffffffffffffffffffffff8214156110b7576110b66110c2565b5b600182019050919050565b7f4e487b7100000000000000000000000000000000000000000000000000000000600052601160045260246000fd5b7f4f776e61626c653a206e6577206f776e657220697320746865207a65726f206160008201527f6464726573730000000000000000000000000000000000000000000000000000602082015250565b7f4f776e61626c653a2063616c6c6572206973206e6f7420746865206f776e6572600082015250565b61117281611007565b811461117d57600080fd5b50565b61118981611045565b811461119457600080fd5b5056fea2646970667358221220fb180b042c2e720b34055d14b041fab50f7da2dafa8ea52a1725a9cbf63943cf64736f6c63430008010033",
					"opcodes": "PUSH1 0x80 PUSH1 0x40 MSTORE CALLVALUE DUP1 ISZERO PUSH2 0x10 JUMPI PUSH1 0x0 DUP1 REVERT JUMPDEST POP PUSH2 0x2D PUSH2 0x22 PUSH2 0x32 PUSH1 0x20 SHL PUSH1 0x20 SHR JUMP JUMPDEST PUSH2 0x3A PUSH1 0x20 SHL PUSH1 0x20 SHR JUMP JUMPDEST PUSH2 0xFE JUMP JUMPDEST PUSH1 0x0 CALLER SWAP1 POP SWAP1 JUMP JUMPDEST PUSH1 0x0 DUP1 PUSH1 0x0 SWAP1 SLOAD SWAP1 PUSH2 0x100 EXP SWAP1 DIV PUSH20 0xFFFFFFFFFFFFFFFFFFFFFFFFFFFFFFFFFFFFFFFF AND SWAP1 POP DUP2 PUSH1 0x0 DUP1 PUSH2 0x100 EXP DUP2 SLOAD DUP2 PUSH20 0xFFFFFFFFFFFFFFFFFFFFFFFFFFFFFFFFFFFFFFFF MUL NOT AND SWAP1 DUP4 PUSH20 0xFFFFFFFFFFFFFFFFFFFFFFFFFFFFFFFFFFFFFFFF AND MUL OR SWAP1 SSTORE POP DUP2 PUSH20 0xFFFFFFFFFFFFFFFFFFFFFFFFFFFFFFFFFFFFFFFF AND DUP2 PUSH20 0xFFFFFFFFFFFFFFFFFFFFFFFFFFFFFFFFFFFFFFFF AND PUSH32 0x8BE0079C531659141344CD1FD0A4F28419497F9722A3DAAFE3B4186F6B6457E0 PUSH1 0x40 MLOAD PUSH1 0x40 MLOAD DUP1 SWAP2 SUB SWAP1 LOG3 POP POP JUMP JUMPDEST PUSH2 0x11CD DUP1 PUSH2 0x10D PUSH1 0x0 CODECOPY PUSH1 0x0 RETURN INVALID PUSH1 0x80 PUSH1 0x40 MSTORE CALLVALUE DUP1 ISZERO PUSH2 0x10 JUMPI PUSH1 0x0 DUP1 REVERT JUMPDEST POP PUSH1 0x4 CALLDATASIZE LT PUSH2 0xCF JUMPI PUSH1 0x0 CALLDATALOAD PUSH1 0xE0 SHR DUP1 PUSH4 0x8DA5CB5B GT PUSH2 0x8C JUMPI DUP1 PUSH4 0xC1EB6DFD GT PUSH2 0x66 JUMPI DUP1 PUSH4 0xC1EB6DFD EQ PUSH2 0x1E8 JUMPI DUP1 PUSH4 0xE5BF7FFC EQ PUSH2 0x206 JUMPI DUP1 PUSH4 0xF2FDE38B EQ PUSH2 0x222 JUMPI DUP1 PUSH4 0xF76DA2A8 EQ PUSH2 0x23E JUMPI PUSH2 0xCF JUMP JUMPDEST DUP1 PUSH4 0x8DA5CB5B EQ PUSH2 0x17E JUMPI DUP1 PUSH4 0xA5025222 EQ PUSH2 0x19C JUMPI DUP1 PUSH4 0xC18AB7A2 EQ PUSH2 0x1CC JUMPI PUSH2 0xCF JUMP JUMPDEST DUP1 PUSH4 0x38EADA1C EQ PUSH2 0xD4 JUMPI DUP1 PUSH4 0x3C25C06B EQ PUSH2 0xF0 JUMPI DUP1 PUSH4 0x3EDFCD2C EQ PUSH2 0x10C JUMPI DUP1 PUSH4 0x4BA79DFE EQ PUSH2 0x128 JUMPI DUP1 PUSH4 0x715018A6 EQ PUSH2 0x144 JUMPI DUP1 PUSH4 0x838324D9 EQ PUSH2 0x14E JUMPI JUMPDEST PUSH1 0x0 DUP1 REVERT JUMPDEST PUSH2 0xEE PUSH1 0x4 DUP1 CALLDATASIZE SUB DUP2 ADD SWAP1 PUSH2 0xE9 SWAP2 SWAP1 PUSH2 0xE3E JUMP JUMPDEST PUSH2 0x26E JUMP JUMPDEST STOP JUMPDEST PUSH2 0x10A PUSH1 0x4 DUP1 CALLDATASIZE SUB DUP2 ADD SWAP1 PUSH2 0x105 SWAP2 SWAP1 PUSH2 0xE67 JUMP JUMPDEST PUSH2 0x3AD JUMP JUMPDEST STOP JUMPDEST PUSH2 0x126 PUSH1 0x4 DUP1 CALLDATASIZE SUB DUP2 ADD SWAP1 PUSH2 0x121 SWAP2 SWAP1 PUSH2 0xEA3 JUMP JUMPDEST PUSH2 0x42D JUMP JUMPDEST STOP JUMPDEST PUSH2 0x142 PUSH1 0x4 DUP1 CALLDATASIZE SUB DUP2 ADD SWAP1 PUSH2 0x13D SWAP2 SWAP1 PUSH2 0xE3E JUMP JUMPDEST PUSH2 0x62E JUMP JUMPDEST STOP JUMPDEST PUSH2 0x14C PUSH2 0x8F1 JUMP JUMPDEST STOP JUMPDEST PUSH2 0x168 PUSH1 0x4 DUP1 CALLDATASIZE SUB DUP2 ADD SWAP1 PUSH2 0x163 SWAP2 SWAP1 PUSH2 0xE3E JUMP JUMPDEST PUSH2 0x979 JUMP JUMPDEST PUSH1 0x40 MLOAD PUSH2 0x175 SWAP2 SWAP1 PUSH2 0xFDB JUMP JUMPDEST PUSH1 0x40 MLOAD DUP1 SWAP2 SUB SWAP1 RETURN JUMPDEST PUSH2 0x186 PUSH2 0x9DE JUMP JUMPDEST PUSH1 0x40 MLOAD PUSH2 0x193 SWAP2 SWAP1 PUSH2 0xF65 JUMP JUMPDEST PUSH1 0x40 MLOAD DUP1 SWAP2 SUB SWAP1 RETURN JUMPDEST PUSH2 0x1B6 PUSH1 0x4 DUP1 CALLDATASIZE SUB DUP2 ADD SWAP1 PUSH2 0x1B1 SWAP2 SWAP1 PUSH2 0xE3E JUMP JUMPDEST PUSH2 0xA07 JUMP JUMPDEST PUSH1 0x40 MLOAD PUSH2 0x1C3 SWAP2 SWAP1 PUSH2 0xF80 JUMP JUMPDEST PUSH1 0x40 MLOAD DUP1 SWAP2 SUB SWAP1 RETURN JUMPDEST PUSH2 0x1E6 PUSH1 0x4 DUP1 CALLDATASIZE SUB DUP2 ADD SWAP1 PUSH2 0x1E1 SWAP2 SWAP1 PUSH2 0xEA3 JUMP JUMPDEST PUSH2 0xA55 JUMP JUMPDEST STOP JUMPDEST PUSH2 0x1F0 PUSH2 0xAD6 JUMP JUMPDEST PUSH1 0x40 MLOAD PUSH2 0x1FD SWAP2 SWAP1 PUSH2 0xFDB JUMP JUMPDEST PUSH1 0x40 MLOAD DUP1 SWAP2 SUB SWAP1 RETURN JUMPDEST PUSH2 0x220 PUSH1 0x4 DUP1 CALLDATASIZE SUB DUP2 ADD SWAP1 PUSH2 0x21B SWAP2 SWAP1 PUSH2 0xE67 JUMP JUMPDEST PUSH2 0xAE2 JUMP JUMPDEST STOP JUMPDEST PUSH2 0x23C PUSH1 0x4 DUP1 CALLDATASIZE SUB DUP2 ADD SWAP1 PUSH2 0x237 SWAP2 SWAP1 PUSH2 0xE3E JUMP JUMPDEST PUSH2 0xBE9 JUMP JUMPDEST STOP JUMPDEST PUSH2 0x258 PUSH1 0x4 DUP1 CALLDATASIZE SUB DUP2 ADD SWAP1 PUSH2 0x253 SWAP2 SWAP1 PUSH2 0xE3E JUMP JUMPDEST PUSH2 0xCE1 JUMP JUMPDEST PUSH1 0x40 MLOAD PUSH2 0x265 SWAP2 SWAP1 PUSH2 0xF80 JUMP JUMPDEST PUSH1 0x40 MLOAD DUP1 SWAP2 SUB SWAP1 RETURN JUMPDEST PUSH2 0x276 PUSH2 0xD48 JUMP JUMPDEST PUSH20 0xFFFFFFFFFFFFFFFFFFFFFFFFFFFFFFFFFFFFFFFF AND PUSH2 0x294 PUSH2 0x9DE JUMP JUMPDEST PUSH20 0xFFFFFFFFFFFFFFFFFFFFFFFFFFFFFFFFFFFFFFFF AND EQ PUSH2 0x2EA JUMPI PUSH1 0x40 MLOAD PUSH32 0x8C379A000000000000000000000000000000000000000000000000000000000 DUP2 MSTORE PUSH1 0x4 ADD PUSH2 0x2E1 SWAP1 PUSH2 0xFBB JUMP JUMPDEST PUSH1 0x40 MLOAD DUP1 SWAP2 SUB SWAP1 REVERT JUMPDEST PUSH1 0x1 PUSH1 0x0 ADD PUSH1 0x0 DUP2 SLOAD DUP1 SWAP3 SWAP2 SWAP1 PUSH2 0x300 SWAP1 PUSH2 0x1079 JUMP JUMPDEST SWAP2 SWAP1 POP SSTORE POP DUP1 PUSH1 0x1 DUP1 ADD PUSH1 0x0 PUSH1 0x1 PUSH1 0x0 ADD SLOAD DUP2 MSTORE PUSH1 0x20 ADD SWAP1 DUP2 MSTORE PUSH1 0x20 ADD PUSH1 0x0 KECCAK256 PUSH1 0x0 PUSH2 0x100 EXP DUP2 SLOAD DUP2 PUSH20 0xFFFFFFFFFFFFFFFFFFFFFFFFFFFFFFFFFFFFFFFF MUL NOT AND SWAP1 DUP4 PUSH20 0xFFFFFFFFFFFFFFFFFFFFFFFFFFFFFFFFFFFFFFFF AND MUL OR SWAP1 SSTORE POP PUSH1 0x1 PUSH1 0x0 ADD SLOAD PUSH1 0x1 PUSH1 0x2 ADD PUSH1 0x0 DUP4 PUSH20 0xFFFFFFFFFFFFFFFFFFFFFFFFFFFFFFFFFFFFFFFF AND PUSH20 0xFFFFFFFFFFFFFFFFFFFFFFFFFFFFFFFFFFFFFFFF AND DUP2 MSTORE PUSH1 0x20 ADD SWAP1 DUP2 MSTORE PUSH1 0x20 ADD PUSH1 0x0 KECCAK256 DUP2 SWAP1 SSTORE POP POP JUMP JUMPDEST PUSH2 0x3B5 PUSH2 0xD48 JUMP JUMPDEST PUSH20 0xFFFFFFFFFFFFFFFFFFFFFFFFFFFFFFFFFFFFFFFF AND PUSH2 0x3D3 PUSH2 0x9DE JUMP JUMPDEST PUSH20 0xFFFFFFFFFFFFFFFFFFFFFFFFFFFFFFFFFFFFFFFF AND EQ PUSH2 0x429 JUMPI PUSH1 0x40 MLOAD PUSH32 0x8C379A000000000000000000000000000000000000000000000000000000000 DUP2 MSTORE PUSH1 0x4 ADD PUSH2 0x420 SWAP1 PUSH2 0xFBB JUMP JUMPDEST PUSH1 0x40 MLOAD DUP1 SWAP2 SUB SWAP1 REVERT JUMPDEST POP POP JUMP JUMPDEST PUSH2 0x435 PUSH2 0xD48 JUMP JUMPDEST PUSH20 0xFFFFFFFFFFFFFFFFFFFFFFFFFFFFFFFFFFFFFFFF AND PUSH2 0x453 PUSH2 0x9DE JUMP JUMPDEST PUSH20 0xFFFFFFFFFFFFFFFFFFFFFFFFFFFFFFFFFFFFFFFF AND EQ PUSH2 0x4A9 JUMPI PUSH1 0x40 MLOAD PUSH32 0x8C379A000000000000000000000000000000000000000000000000000000000 DUP2 MSTORE PUSH1 0x4 ADD PUSH2 0x4A0 SWAP1 PUSH2 0xFBB JUMP JUMPDEST PUSH1 0x40 MLOAD DUP1 SWAP2 SUB SWAP1 REVERT JUMPDEST PUSH2 0x4B2 DUP4 PUSH2 0xA07 JUMP JUMPDEST PUSH2 0x4C0 JUMPI PUSH2 0x4BF DUP4 PUSH2 0x26E JUMP JUMPDEST JUMPDEST PUSH1 0x1 PUSH1 0x3 ADD PUSH1 0x0 PUSH1 0x1 PUSH1 0x2 ADD PUSH1 0x0 DUP7 PUSH20 0xFFFFFFFFFFFFFFFFFFFFFFFFFFFFFFFFFFFFFFFF AND PUSH20 0xFFFFFFFFFFFFFFFFFFFFFFFFFFFFFFFFFFFFFFFF AND DUP2 MSTORE PUSH1 0x20 ADD SWAP1 DUP2 MSTORE PUSH1 0x20 ADD PUSH1 0x0 KECCAK256 SLOAD DUP2 MSTORE PUSH1 0x20 ADD SWAP1 DUP2 MSTORE PUSH1 0x20 ADD PUSH1 0x0 KECCAK256 PUSH1 0x0 ADD PUSH1 0x0 DUP2 SLOAD DUP1 SWAP3 SWAP2 SWAP1 PUSH2 0x52C SWAP1 PUSH2 0x1079 JUMP JUMPDEST SWAP2 SWAP1 POP SSTORE POP DUP2 PUSH1 0x1 PUSH1 0x3 ADD PUSH1 0x0 PUSH1 0x1 PUSH1 0x2 ADD PUSH1 0x0 DUP8 PUSH20 0xFFFFFFFFFFFFFFFFFFFFFFFFFFFFFFFFFFFFFFFF AND PUSH20 0xFFFFFFFFFFFFFFFFFFFFFFFFFFFFFFFFFFFFFFFF AND DUP2 MSTORE PUSH1 0x20 ADD SWAP1 DUP2 MSTORE PUSH1 0x20 ADD PUSH1 0x0 KECCAK256 SLOAD DUP2 MSTORE PUSH1 0x20 ADD SWAP1 DUP2 MSTORE PUSH1 0x20 ADD PUSH1 0x0 KECCAK256 PUSH1 0x1 ADD PUSH1 0x0 PUSH2 0x598 DUP7 PUSH2 0x979 JUMP JUMPDEST DUP2 MSTORE PUSH1 0x20 ADD SWAP1 DUP2 MSTORE PUSH1 0x20 ADD PUSH1 0x0 KECCAK256 PUSH1 0x0 ADD DUP2 SWAP1 SSTORE POP DUP1 PUSH1 0x1 PUSH1 0x3 ADD PUSH1 0x0 PUSH1 0x1 PUSH1 0x2 ADD PUSH1 0x0 DUP8 PUSH20 0xFFFFFFFFFFFFFFFFFFFFFFFFFFFFFFFFFFFFFFFF AND PUSH20 0xFFFFFFFFFFFFFFFFFFFFFFFFFFFFFFFFFFFFFFFF AND DUP2 MSTORE PUSH1 0x20 ADD SWAP1 DUP2 MSTORE PUSH1 0x20 ADD PUSH1 0x0 KECCAK256 SLOAD DUP2 MSTORE PUSH1 0x20 ADD SWAP1 DUP2 MSTORE PUSH1 0x20 ADD PUSH1 0x0 KECCAK256 PUSH1 0x1 ADD PUSH1 0x0 PUSH2 0x614 DUP7 PUSH2 0x979 JUMP JUMPDEST DUP2 MSTORE PUSH1 0x20 ADD SWAP1 DUP2 MSTORE PUSH1 0x20 ADD PUSH1 0x0 KECCAK256 PUSH1 0x1 ADD DUP2 SWAP1 SSTORE POP POP POP POP JUMP JUMPDEST PUSH2 0x636 PUSH2 0xD48 JUMP JUMPDEST PUSH20 0xFFFFFFFFFFFFFFFFFFFFFFFFFFFFFFFFFFFFFFFF AND PUSH2 0x654 PUSH2 0x9DE JUMP JUMPDEST PUSH20 0xFFFFFFFFFFFFFFFFFFFFFFFFFFFFFFFFFFFFFFFF AND EQ PUSH2 0x6AA JUMPI PUSH1 0x40 MLOAD PUSH32 0x8C379A000000000000000000000000000000000000000000000000000000000 DUP2 MSTORE PUSH1 0x4 ADD PUSH2 0x6A1 SWAP1 PUSH2 0xFBB JUMP JUMPDEST PUSH1 0x40 MLOAD DUP1 SWAP2 SUB SWAP1 REVERT JUMPDEST PUSH1 0x0 PUSH1 0x1 PUSH1 0x2 ADD PUSH1 0x0 DUP4 PUSH20 0xFFFFFFFFFFFFFFFFFFFFFFFFFFFFFFFFFFFFFFFF AND PUSH20 0xFFFFFFFFFFFFFFFFFFFFFFFFFFFFFFFFFFFFFFFF AND DUP2 MSTORE PUSH1 0x20 ADD SWAP1 DUP2 MSTORE PUSH1 0x20 ADD PUSH1 0x0 KECCAK256 SLOAD SWAP1 POP PUSH1 0x0 DUP3 SWAP1 POP PUSH1 0x0 PUSH1 0x1 PUSH1 0x0 ADD SLOAD SWAP1 POP PUSH1 0x0 PUSH1 0x1 DUP1 ADD PUSH1 0x0 PUSH1 0x1 PUSH1 0x0 ADD SLOAD DUP2 MSTORE PUSH1 0x20 ADD SWAP1 DUP2 MSTORE PUSH1 0x20 ADD PUSH1 0x0 KECCAK256 PUSH1 0x0 SWAP1 SLOAD SWAP1 PUSH2 0x100 EXP SWAP1 DIV PUSH20 0xFFFFFFFFFFFFFFFFFFFFFFFFFFFFFFFFFFFFFFFF AND SWAP1 POP PUSH1 0x1 DUP1 ADD PUSH1 0x0 DUP4 DUP2 MSTORE PUSH1 0x20 ADD SWAP1 DUP2 MSTORE PUSH1 0x20 ADD PUSH1 0x0 KECCAK256 PUSH1 0x0 SWAP1 SLOAD SWAP1 PUSH2 0x100 EXP SWAP1 DIV PUSH20 0xFFFFFFFFFFFFFFFFFFFFFFFFFFFFFFFFFFFFFFFF AND PUSH1 0x1 DUP1 ADD PUSH1 0x0 DUP7 DUP2 MSTORE PUSH1 0x20 ADD SWAP1 DUP2 MSTORE PUSH1 0x20 ADD PUSH1 0x0 KECCAK256 PUSH1 0x0 PUSH2 0x100 EXP DUP2 SLOAD DUP2 PUSH20 0xFFFFFFFFFFFFFFFFFFFFFFFFFFFFFFFFFFFFFFFF MUL NOT AND SWAP1 DUP4 PUSH20 0xFFFFFFFFFFFFFFFFFFFFFFFFFFFFFFFFFFFFFFFF AND MUL OR SWAP1 SSTORE POP PUSH1 0x1 DUP1 ADD PUSH1 0x0 DUP4 DUP2 MSTORE PUSH1 0x20 ADD SWAP1 DUP2 MSTORE PUSH1 0x20 ADD PUSH1 0x0 KECCAK256 PUSH1 0x0 PUSH2 0x100 EXP DUP2 SLOAD SWAP1 PUSH20 0xFFFFFFFFFFFFFFFFFFFFFFFFFFFFFFFFFFFFFFFF MUL NOT AND SWAP1 SSTORE PUSH1 0x1 PUSH1 0x2 ADD PUSH1 0x0 DUP3 PUSH20 0xFFFFFFFFFFFFFFFFFFFFFFFFFFFFFFFFFFFFFFFF AND PUSH20 0xFFFFFFFFFFFFFFFFFFFFFFFFFFFFFFFFFFFFFFFF AND DUP2 MSTORE PUSH1 0x20 ADD SWAP1 DUP2 MSTORE PUSH1 0x20 ADD PUSH1 0x0 KECCAK256 SLOAD PUSH1 0x1 PUSH1 0x2 ADD PUSH1 0x0 DUP6 PUSH20 0xFFFFFFFFFFFFFFFFFFFFFFFFFFFFFFFFFFFFFFFF AND PUSH20 0xFFFFFFFFFFFFFFFFFFFFFFFFFFFFFFFFFFFFFFFF AND DUP2 MSTORE PUSH1 0x20 ADD SWAP1 DUP2 MSTORE PUSH1 0x20 ADD PUSH1 0x0 KECCAK256 DUP2 SWAP1 SSTORE POP PUSH1 0x1 PUSH1 0x2 ADD PUSH1 0x0 DUP3 PUSH20 0xFFFFFFFFFFFFFFFFFFFFFFFFFFFFFFFFFFFFFFFF AND PUSH20 0xFFFFFFFFFFFFFFFFFFFFFFFFFFFFFFFFFFFFFFFF AND DUP2 MSTORE PUSH1 0x20 ADD SWAP1 DUP2 MSTORE PUSH1 0x20 ADD PUSH1 0x0 KECCAK256 PUSH1 0x0 SWAP1 SSTORE PUSH1 0x1 PUSH1 0x0 ADD PUSH1 0x0 DUP2 SLOAD DUP1 SWAP3 SWAP2 SWAP1 PUSH2 0x8E5 SWAP1 PUSH2 0x104F JUMP JUMPDEST SWAP2 SWAP1 POP SSTORE POP POP POP POP POP POP JUMP JUMPDEST PUSH2 0x8F9 PUSH2 0xD48 JUMP JUMPDEST PUSH20 0xFFFFFFFFFFFFFFFFFFFFFFFFFFFFFFFFFFFFFFFF AND PUSH2 0x917 PUSH2 0x9DE JUMP JUMPDEST PUSH20 0xFFFFFFFFFFFFFFFFFFFFFFFFFFFFFFFFFFFFFFFF AND EQ PUSH2 0x96D JUMPI PUSH1 0x40 MLOAD PUSH32 0x8C379A000000000000000000000000000000000000000000000000000000000 DUP2 MSTORE PUSH1 0x4 ADD PUSH2 0x964 SWAP1 PUSH2 0xFBB JUMP JUMPDEST PUSH1 0x40 MLOAD DUP1 SWAP2 SUB SWAP1 REVERT JUMPDEST PUSH2 0x977 PUSH1 0x0 PUSH2 0xD50 JUMP JUMPDEST JUMP JUMPDEST PUSH1 0x0 PUSH1 0x1 PUSH1 0x3 ADD PUSH1 0x0 PUSH1 0x1 PUSH1 0x2 ADD PUSH1 0x0 DUP6 PUSH20 0xFFFFFFFFFFFFFFFFFFFFFFFFFFFFFFFFFFFFFFFF AND PUSH20 0xFFFFFFFFFFFFFFFFFFFFFFFFFFFFFFFFFFFFFFFF AND DUP2 MSTORE PUSH1 0x20 ADD SWAP1 DUP2 MSTORE PUSH1 0x20 ADD PUSH1 0x0 KECCAK256 SLOAD DUP2 MSTORE PUSH1 0x20 ADD SWAP1 DUP2 MSTORE PUSH1 0x20 ADD PUSH1 0x0 KECCAK256 PUSH1 0x0 ADD SLOAD SWAP1 POP SWAP2 SWAP1 POP JUMP JUMPDEST PUSH1 0x0 DUP1 PUSH1 0x0 SWAP1 SLOAD SWAP1 PUSH2 0x100 EXP SWAP1 DIV PUSH20 0xFFFFFFFFFFFFFFFFFFFFFFFFFFFFFFFFFFFFFFFF AND SWAP1 POP SWAP1 JUMP JUMPDEST PUSH1 0x0 DUP1 PUSH1 0x1 PUSH1 0x2 ADD PUSH1 0x0 DUP5 PUSH20 0xFFFFFFFFFFFFFFFFFFFFFFFFFFFFFFFFFFFFFFFF AND PUSH20 0xFFFFFFFFFFFFFFFFFFFFFFFFFFFFFFFFFFFFFFFF AND DUP2 MSTORE PUSH1 0x20 ADD SWAP1 DUP2 MSTORE PUSH1 0x20 ADD PUSH1 0x0 KECCAK256 SLOAD EQ SWAP1 POP SWAP2 SWAP1 POP JUMP JUMPDEST PUSH2 0xA5D PUSH2 0xD48 JUMP JUMPDEST PUSH20 0xFFFFFFFFFFFFFFFFFFFFFFFFFFFFFFFFFFFFFFFF AND PUSH2 0xA7B PUSH2 0x9DE JUMP JUMPDEST PUSH20 0xFFFFFFFFFFFFFFFFFFFFFFFFFFFFFFFFFFFFFFFF AND EQ PUSH2 0xAD1 JUMPI PUSH1 0x40 MLOAD PUSH32 0x8C379A000000000000000000000000000000000000000000000000000000000 DUP2 MSTORE PUSH1 0x4 ADD PUSH2 0xAC8 SWAP1 PUSH2 0xFBB JUMP JUMPDEST PUSH1 0x40 MLOAD DUP1 SWAP2 SUB SWAP1 REVERT JUMPDEST POP POP POP JUMP JUMPDEST PUSH1 0x1 DUP1 PUSH1 0x0 ADD SLOAD SWAP1 POP DUP2 JUMP JUMPDEST PUSH2 0xAEA PUSH2 0xD48 JUMP JUMPDEST PUSH20 0xFFFFFFFFFFFFFFFFFFFFFFFFFFFFFFFFFFFFFFFF AND PUSH2 0xB08 PUSH2 0x9DE JUMP JUMPDEST PUSH20 0xFFFFFFFFFFFFFFFFFFFFFFFFFFFFFFFFFFFFFFFF AND EQ PUSH2 0xB5E JUMPI PUSH1 0x40 MLOAD PUSH32 0x8C379A000000000000000000000000000000000000000000000000000000000 DUP2 MSTORE PUSH1 0x4 ADD PUSH2 0xB55 SWAP1 PUSH2 0xFBB JUMP JUMPDEST PUSH1 0x40 MLOAD DUP1 SWAP2 SUB SWAP1 REVERT JUMPDEST PUSH1 0x1 PUSH1 0x3 ADD PUSH1 0x0 PUSH1 0x1 PUSH1 0x2 ADD PUSH1 0x0 DUP6 PUSH20 0xFFFFFFFFFFFFFFFFFFFFFFFFFFFFFFFFFFFFFFFF AND PUSH20 0xFFFFFFFFFFFFFFFFFFFFFFFFFFFFFFFFFFFFFFFF AND DUP2 MSTORE PUSH1 0x20 ADD SWAP1 DUP2 MSTORE PUSH1 0x20 ADD PUSH1 0x0 KECCAK256 SLOAD DUP2 MSTORE PUSH1 0x20 ADD SWAP1 DUP2 MSTORE PUSH1 0x20 ADD PUSH1 0x0 KECCAK256 PUSH1 0x1 ADD PUSH1 0x0 PUSH2 0xBC4 DUP5 PUSH2 0x979 JUMP JUMPDEST DUP2 MSTORE PUSH1 0x20 ADD SWAP1 DUP2 MSTORE PUSH1 0x20 ADD PUSH1 0x0 KECCAK256 PUSH1 0x0 DUP1 DUP3 ADD PUSH1 0x0 SWAP1 SSTORE PUSH1 0x1 DUP3 ADD PUSH1 0x0 SWAP1 SSTORE POP POP POP POP JUMP JUMPDEST PUSH2 0xBF1 PUSH2 0xD48 JUMP JUMPDEST PUSH20 0xFFFFFFFFFFFFFFFFFFFFFFFFFFFFFFFFFFFFFFFF AND PUSH2 0xC0F PUSH2 0x9DE JUMP JUMPDEST PUSH20 0xFFFFFFFFFFFFFFFFFFFFFFFFFFFFFFFFFFFFFFFF AND EQ PUSH2 0xC65 JUMPI PUSH1 0x40 MLOAD PUSH32 0x8C379A000000000000000000000000000000000000000000000000000000000 DUP2 MSTORE PUSH1 0x4 ADD PUSH2 0xC5C SWAP1 PUSH2 0xFBB JUMP JUMPDEST PUSH1 0x40 MLOAD DUP1 SWAP2 SUB SWAP1 REVERT JUMPDEST PUSH1 0x0 PUSH20 0xFFFFFFFFFFFFFFFFFFFFFFFFFFFFFFFFFFFFFFFF AND DUP2 PUSH20 0xFFFFFFFFFFFFFFFFFFFFFFFFFFFFFFFFFFFFFFFF AND EQ ISZERO PUSH2 0xCD5 JUMPI PUSH1 0x40 MLOAD PUSH32 0x8C379A000000000000000000000000000000000000000000000000000000000 DUP2 MSTORE PUSH1 0x4 ADD PUSH2 0xCCC SWAP1 PUSH2 0xF9B JUMP JUMPDEST PUSH1 0x40 MLOAD DUP1 SWAP2 SUB SWAP1 REVERT JUMPDEST PUSH2 0xCDE DUP2 PUSH2 0xD50 JUMP JUMPDEST POP JUMP JUMPDEST PUSH1 0x0 DUP1 PUSH1 0x1 PUSH1 0x3 ADD PUSH1 0x0 PUSH1 0x1 PUSH1 0x2 ADD PUSH1 0x0 DUP7 PUSH20 0xFFFFFFFFFFFFFFFFFFFFFFFFFFFFFFFFFFFFFFFF AND PUSH20 0xFFFFFFFFFFFFFFFFFFFFFFFFFFFFFFFFFFFFFFFF AND DUP2 MSTORE PUSH1 0x20 ADD SWAP1 DUP2 MSTORE PUSH1 0x20 ADD PUSH1 0x0 KECCAK256 SLOAD DUP2 MSTORE PUSH1 0x20 ADD SWAP1 DUP2 MSTORE PUSH1 0x20 ADD PUSH1 0x0 KECCAK256 PUSH1 0x0 ADD SLOAD EQ SWAP1 POP SWAP2 SWAP1 POP JUMP JUMPDEST PUSH1 0x0 CALLER SWAP1 POP SWAP1 JUMP JUMPDEST PUSH1 0x0 DUP1 PUSH1 0x0 SWAP1 SLOAD SWAP1 PUSH2 0x100 EXP SWAP1 DIV PUSH20 0xFFFFFFFFFFFFFFFFFFFFFFFFFFFFFFFFFFFFFFFF AND SWAP1 POP DUP2 PUSH1 0x0 DUP1 PUSH2 0x100 EXP DUP2 SLOAD DUP2 PUSH20 0xFFFFFFFFFFFFFFFFFFFFFFFFFFFFFFFFFFFFFFFF MUL NOT AND SWAP1 DUP4 PUSH20 0xFFFFFFFFFFFFFFFFFFFFFFFFFFFFFFFFFFFFFFFF AND MUL OR SWAP1 SSTORE POP DUP2 PUSH20 0xFFFFFFFFFFFFFFFFFFFFFFFFFFFFFFFFFFFFFFFF AND DUP2 PUSH20 0xFFFFFFFFFFFFFFFFFFFFFFFFFFFFFFFFFFFFFFFF AND PUSH32 0x8BE0079C531659141344CD1FD0A4F28419497F9722A3DAAFE3B4186F6B6457E0 PUSH1 0x40 MLOAD PUSH1 0x40 MLOAD DUP1 SWAP2 SUB SWAP1 LOG3 POP POP JUMP JUMPDEST PUSH1 0x0 DUP2 CALLDATALOAD SWAP1 POP PUSH2 0xE23 DUP2 PUSH2 0x1169 JUMP JUMPDEST SWAP3 SWAP2 POP POP JUMP JUMPDEST PUSH1 0x0 DUP2 CALLDATALOAD SWAP1 POP PUSH2 0xE38 DUP2 PUSH2 0x1180 JUMP JUMPDEST SWAP3 SWAP2 POP POP JUMP JUMPDEST PUSH1 0x0 PUSH1 0x20 DUP3 DUP5 SUB SLT ISZERO PUSH2 0xE50 JUMPI PUSH1 0x0 DUP1 REVERT JUMPDEST PUSH1 0x0 PUSH2 0xE5E DUP5 DUP3 DUP6 ADD PUSH2 0xE14 JUMP JUMPDEST SWAP2 POP POP SWAP3 SWAP2 POP POP JUMP JUMPDEST PUSH1 0x0 DUP1 PUSH1 0x40 DUP4 DUP6 SUB SLT ISZERO PUSH2 0xE7A JUMPI PUSH1 0x0 DUP1 REVERT JUMPDEST PUSH1 0x0 PUSH2 0xE88 DUP6 DUP3 DUP7 ADD PUSH2 0xE14 JUMP JUMPDEST SWAP3 POP POP PUSH1 0x20 PUSH2 0xE99 DUP6 DUP3 DUP7 ADD PUSH2 0xE29 JUMP JUMPDEST SWAP2 POP POP SWAP3 POP SWAP3 SWAP1 POP JUMP JUMPDEST PUSH1 0x0 DUP1 PUSH1 0x0 PUSH1 0x60 DUP5 DUP7 SUB SLT ISZERO PUSH2 0xEB8 JUMPI PUSH1 0x0 DUP1 REVERT JUMPDEST PUSH1 0x0 PUSH2 0xEC6 DUP7 DUP3 DUP8 ADD PUSH2 0xE14 JUMP JUMPDEST SWAP4 POP POP PUSH1 0x20 PUSH2 0xED7 DUP7 DUP3 DUP8 ADD PUSH2 0xE29 JUMP JUMPDEST SWAP3 POP POP PUSH1 0x40 PUSH2 0xEE8 DUP7 DUP3 DUP8 ADD PUSH2 0xE29 JUMP JUMPDEST SWAP2 POP POP SWAP3 POP SWAP3 POP SWAP3 JUMP JUMPDEST PUSH2 0xEFB DUP2 PUSH2 0x1007 JUMP JUMPDEST DUP3 MSTORE POP POP JUMP JUMPDEST PUSH2 0xF0A DUP2 PUSH2 0x1019 JUMP JUMPDEST DUP3 MSTORE POP POP JUMP JUMPDEST PUSH1 0x0 PUSH2 0xF1D PUSH1 0x26 DUP4 PUSH2 0xFF6 JUMP JUMPDEST SWAP2 POP PUSH2 0xF28 DUP3 PUSH2 0x10F1 JUMP JUMPDEST PUSH1 0x40 DUP3 ADD SWAP1 POP SWAP2 SWAP1 POP JUMP JUMPDEST PUSH1 0x0 PUSH2 0xF40 PUSH1 0x20 DUP4 PUSH2 0xFF6 JUMP JUMPDEST SWAP2 POP PUSH2 0xF4B DUP3 PUSH2 0x1140 JUMP JUMPDEST PUSH1 0x20 DUP3 ADD SWAP1 POP SWAP2 SWAP1 POP JUMP JUMPDEST PUSH2 0xF5F DUP2 PUSH2 0x1045 JUMP JUMPDEST DUP3 MSTORE POP POP JUMP JUMPDEST PUSH1 0x0 PUSH1 0x20 DUP3 ADD SWAP1 POP PUSH2 0xF7A PUSH1 0x0 DUP4 ADD DUP5 PUSH2 0xEF2 JUMP JUMPDEST SWAP3 SWAP2 POP POP JUMP JUMPDEST PUSH1 0x0 PUSH1 0x20 DUP3 ADD SWAP1 POP PUSH2 0xF95 PUSH1 0x0 DUP4 ADD DUP5 PUSH2 0xF01 JUMP JUMPDEST SWAP3 SWAP2 POP POP JUMP JUMPDEST PUSH1 0x0 PUSH1 0x20 DUP3 ADD SWAP1 POP DUP2 DUP2 SUB PUSH1 0x0 DUP4 ADD MSTORE PUSH2 0xFB4 DUP2 PUSH2 0xF10 JUMP JUMPDEST SWAP1 POP SWAP2 SWAP1 POP JUMP JUMPDEST PUSH1 0x0 PUSH1 0x20 DUP3 ADD SWAP1 POP DUP2 DUP2 SUB PUSH1 0x0 DUP4 ADD MSTORE PUSH2 0xFD4 DUP2 PUSH2 0xF33 JUMP JUMPDEST SWAP1 POP SWAP2 SWAP1 POP JUMP JUMPDEST PUSH1 0x0 PUSH1 0x20 DUP3 ADD SWAP1 POP PUSH2 0xFF0 PUSH1 0x0 DUP4 ADD DUP5 PUSH2 0xF56 JUMP JUMPDEST SWAP3 SWAP2 POP POP JUMP JUMPDEST PUSH1 0x0 DUP3 DUP3 MSTORE PUSH1 0x20 DUP3 ADD SWAP1 POP SWAP3 SWAP2 POP POP JUMP JUMPDEST PUSH1 0x0 PUSH2 0x1012 DUP3 PUSH2 0x1025 JUMP JUMPDEST SWAP1 POP SWAP2 SWAP1 POP JUMP JUMPDEST PUSH1 0x0 DUP2 ISZERO ISZERO SWAP1 POP SWAP2 SWAP1 POP JUMP JUMPDEST PUSH1 0x0 PUSH20 0xFFFFFFFFFFFFFFFFFFFFFFFFFFFFFFFFFFFFFFFF DUP3 AND SWAP1 POP SWAP2 SWAP1 POP JUMP JUMPDEST PUSH1 0x0 DUP2 SWAP1 POP SWAP2 SWAP1 POP JUMP JUMPDEST PUSH1 0x0 PUSH2 0x105A DUP3 PUSH2 0x1045 JUMP JUMPDEST SWAP2 POP PUSH1 0x0 DUP3 EQ ISZERO PUSH2 0x106E JUMPI PUSH2 0x106D PUSH2 0x10C2 JUMP JUMPDEST JUMPDEST PUSH1 0x1 DUP3 SUB SWAP1 POP SWAP2 SWAP1 POP JUMP JUMPDEST PUSH1 0x0 PUSH2 0x1084 DUP3 PUSH2 0x1045 JUMP JUMPDEST SWAP2 POP PUSH32 0xFFFFFFFFFFFFFFFFFFFFFFFFFFFFFFFFFFFFFFFFFFFFFFFFFFFFFFFFFFFFFFFF DUP3 EQ ISZERO PUSH2 0x10B7 JUMPI PUSH2 0x10B6 PUSH2 0x10C2 JUMP JUMPDEST JUMPDEST PUSH1 0x1 DUP3 ADD SWAP1 POP SWAP2 SWAP1 POP JUMP JUMPDEST PUSH32 0x4E487B7100000000000000000000000000000000000000000000000000000000 PUSH1 0x0 MSTORE PUSH1 0x11 PUSH1 0x4 MSTORE PUSH1 0x24 PUSH1 0x0 REVERT JUMPDEST PUSH32 0x4F776E61626C653A206E6577206F776E657220697320746865207A65726F2061 PUSH1 0x0 DUP3 ADD MSTORE PUSH32 0x6464726573730000000000000000000000000000000000000000000000000000 PUSH1 0x20 DUP3 ADD MSTORE POP JUMP JUMPDEST PUSH32 0x4F776E61626C653A2063616C6C6572206973206E6F7420746865206F776E6572 PUSH1 0x0 DUP3 ADD MSTORE POP JUMP JUMPDEST PUSH2 0x1172 DUP2 PUSH2 0x1007 JUMP JUMPDEST DUP2 EQ PUSH2 0x117D JUMPI PUSH1 0x0 DUP1 REVERT JUMPDEST POP JUMP JUMPDEST PUSH2 0x1189 DUP2 PUSH2 0x1045 JUMP JUMPDEST DUP2 EQ PUSH2 0x1194 JUMPI PUSH1 0x0 DUP1 REVERT JUMPDEST POP JUMP INVALID LOG2 PUSH5 0x6970667358 0x22 SLT KECCAK256 0xFB XOR SIGNEXTEND DIV 0x2C 0x2E PUSH19 0xB34055D14B041FAB50F7DA2DAFA8EA52A1725 0xA9 0xCB 0xF6 CODECOPY NUMBER 0xCF PUSH5 0x736F6C6343 STOP ADDMOD ADD STOP CALLER "
				},
				"gasEstimates": {
					"creation": {
						"codeDepositCost": "911400",
						"executionCost": "infinite",
						"totalCost": "infinite"
					},
					"external": {
						"addAddress(address)": "65035",
						"addCoupon(address,uint256,uint256)": "infinite",
						"addressExists(address)": "1604",
						"addressHasCoupon(address)": "2537",
						"addressList()": "1165",
						"couponListLength(address)": "2548",
						"owner()": "1245",
						"reduceCouponUses(address,uint256,uint256)": "infinite",
						"removeAddress(address)": "94816",
						"removeCoupon(address,uint256)": "14545",
						"renounceOwnership()": "24463",
						"transferOwnership(address)": "24789",
						"useCoupon(address,uint256)": "1876"
					},
					"internal": {
						"_initList()": "infinite"
					}
				},
				"methodIdentifiers": {
					"addAddress(address)": "38eada1c",
					"addCoupon(address,uint256,uint256)": "3edfcd2c",
					"addressExists(address)": "a5025222",
					"addressHasCoupon(address)": "f76da2a8",
					"addressList()": "c1eb6dfd",
					"couponListLength(address)": "838324d9",
					"owner()": "8da5cb5b",
					"reduceCouponUses(address,uint256,uint256)": "c18ab7a2",
					"removeAddress(address)": "4ba79dfe",
					"removeCoupon(address,uint256)": "e5bf7ffc",
					"renounceOwnership()": "715018a6",
					"transferOwnership(address)": "f2fde38b",
					"useCoupon(address,uint256)": "3c25c06b"
				}
			},
			"storageLayout": {
				"storage": [
					{
						"astId": 7,
						"contract": "contracts/Founding Citizens NFT Sale Privileged Buyers List Storage.sol:PrivilegedListStorage",
						"label": "_owner",
						"offset": 0,
						"slot": "0",
						"type": "t_address"
					},
					{
						"astId": 163,
						"contract": "contracts/Founding Citizens NFT Sale Privileged Buyers List Storage.sol:PrivilegedListStorage",
						"label": "addressList",
						"offset": 0,
						"slot": "1",
						"type": "t_struct(AddressList)160_storage"
					}
				],
				"types": {
					"t_address": {
						"encoding": "inplace",
						"label": "address",
						"numberOfBytes": "20"
					},
					"t_mapping(t_address,t_uint256)": {
						"encoding": "mapping",
						"key": "t_address",
						"label": "mapping(address => uint256)",
						"numberOfBytes": "32",
						"value": "t_uint256"
					},
					"t_mapping(t_uint256,t_address)": {
						"encoding": "mapping",
						"key": "t_uint256",
						"label": "mapping(uint256 => address)",
						"numberOfBytes": "32",
						"value": "t_address"
					},
					"t_mapping(t_uint256,t_struct(Coupon)136_storage)": {
						"encoding": "mapping",
						"key": "t_uint256",
						"label": "mapping(uint256 => struct PrivilegedListStorage.Coupon)",
						"numberOfBytes": "32",
						"value": "t_struct(Coupon)136_storage"
					},
					"t_mapping(t_uint256,t_struct(CouponList)144_storage)": {
						"encoding": "mapping",
						"key": "t_uint256",
						"label": "mapping(uint256 => struct PrivilegedListStorage.CouponList)",
						"numberOfBytes": "32",
						"value": "t_struct(CouponList)144_storage"
					},
					"t_struct(AddressList)160_storage": {
						"encoding": "inplace",
						"label": "struct PrivilegedListStorage.AddressList",
						"members": [
							{
								"astId": 146,
								"contract": "contracts/Founding Citizens NFT Sale Privileged Buyers List Storage.sol:PrivilegedListStorage",
								"label": "length",
								"offset": 0,
								"slot": "0",
								"type": "t_uint256"
							},
							{
								"astId": 150,
								"contract": "contracts/Founding Citizens NFT Sale Privileged Buyers List Storage.sol:PrivilegedListStorage",
								"label": "addresses",
								"offset": 0,
								"slot": "1",
								"type": "t_mapping(t_uint256,t_address)"
							},
							{
								"astId": 154,
								"contract": "contracts/Founding Citizens NFT Sale Privileged Buyers List Storage.sol:PrivilegedListStorage",
								"label": "ids",
								"offset": 0,
								"slot": "2",
								"type": "t_mapping(t_address,t_uint256)"
							},
							{
								"astId": 159,
								"contract": "contracts/Founding Citizens NFT Sale Privileged Buyers List Storage.sol:PrivilegedListStorage",
								"label": "couponLists",
								"offset": 0,
								"slot": "3",
								"type": "t_mapping(t_uint256,t_struct(CouponList)144_storage)"
							}
						],
						"numberOfBytes": "128"
					},
					"t_struct(Coupon)136_storage": {
						"encoding": "inplace",
						"label": "struct PrivilegedListStorage.Coupon",
						"members": [
							{
								"astId": 133,
								"contract": "contracts/Founding Citizens NFT Sale Privileged Buyers List Storage.sol:PrivilegedListStorage",
								"label": "discountRate",
								"offset": 0,
								"slot": "0",
								"type": "t_uint256"
							},
							{
								"astId": 135,
								"contract": "contracts/Founding Citizens NFT Sale Privileged Buyers List Storage.sol:PrivilegedListStorage",
								"label": "numberOfUses",
								"offset": 0,
								"slot": "1",
								"type": "t_uint256"
							}
						],
						"numberOfBytes": "64"
					},
					"t_struct(CouponList)144_storage": {
						"encoding": "inplace",
						"label": "struct PrivilegedListStorage.CouponList",
						"members": [
							{
								"astId": 138,
								"contract": "contracts/Founding Citizens NFT Sale Privileged Buyers List Storage.sol:PrivilegedListStorage",
								"label": "length",
								"offset": 0,
								"slot": "0",
								"type": "t_uint256"
							},
							{
								"astId": 143,
								"contract": "contracts/Founding Citizens NFT Sale Privileged Buyers List Storage.sol:PrivilegedListStorage",
								"label": "coupons",
								"offset": 0,
								"slot": "1",
								"type": "t_mapping(t_uint256,t_struct(Coupon)136_storage)"
							}
						],
						"numberOfBytes": "64"
					},
					"t_uint256": {
						"encoding": "inplace",
						"label": "uint256",
						"numberOfBytes": "32"
					}
				}
			},
			"userdoc": {
				"kind": "user",
				"methods": {},
				"version": 1
			}
		}
	}
}