{
	"contracts/DynamicVars.sol": {
		"dynamicUniqueVarSet": {
			"abi": [
				{
					"inputs": [
						{
							"internalType": "string",
							"name": "name",
							"type": "string"
						}
					],
					"name": "declareStringVar",
					"outputs": [],
					"stateMutability": "nonpayable",
					"type": "function"
				},
				{
					"inputs": [
						{
							"internalType": "string",
							"name": "name",
							"type": "string"
						},
						{
							"internalType": "string",
							"name": "value",
							"type": "string"
						}
					],
					"name": "setStringVarValue",
					"outputs": [],
					"stateMutability": "nonpayable",
					"type": "function"
				}
			],
			"devdoc": {
				"kind": "dev",
				"methods": {},
				"version": 1
			},
			"evm": {
				"assembly": "    /* \"contracts/DynamicVars.sol\":82:794  contract dynamicUniqueVarSet {\r... */\n  mstore(0x40, 0x80)\n    /* \"contracts/DynamicVars.sol\":133:134  0 */\n  0x00\n    /* \"contracts/DynamicVars.sol\":118:134  uint _nextID = 0 */\n  dup1\n  sstore\n    /* \"contracts/DynamicVars.sol\":82:794  contract dynamicUniqueVarSet {\r... */\n  callvalue\n  dup1\n  iszero\n  tag_1\n  jumpi\n  0x00\n  dup1\n  revert\ntag_1:\n  pop\n  dataSize(sub_0)\n  dup1\n  dataOffset(sub_0)\n  0x00\n  codecopy\n  0x00\n  return\nstop\n\nsub_0: assembly {\n        /* \"contracts/DynamicVars.sol\":82:794  contract dynamicUniqueVarSet {\r... */\n      mstore(0x40, 0x80)\n      callvalue\n      dup1\n      iszero\n      tag_1\n      jumpi\n      0x00\n      dup1\n      revert\n    tag_1:\n      pop\n      jumpi(tag_2, lt(calldatasize, 0x04))\n      shr(0xe0, calldataload(0x00))\n      dup1\n      0xb29bfe47\n      eq\n      tag_3\n      jumpi\n      dup1\n      0xc151cd39\n      eq\n      tag_4\n      jumpi\n    tag_2:\n      0x00\n      dup1\n      revert\n        /* \"contracts/DynamicVars.sol\":407:509  function declareStringVar(string memory name) public {\r... */\n    tag_3:\n      tag_5\n      0x04\n      dup1\n      calldatasize\n      sub\n      dup2\n      add\n      swap1\n      tag_6\n      swap2\n      swap1\n      tag_7\n      jump\t// in\n    tag_6:\n      tag_8\n      jump\t// in\n    tag_5:\n      stop\n        /* \"contracts/DynamicVars.sol\":517:791  function setStringVarValue(string memory name, string memory value) public {\r... */\n    tag_4:\n      tag_9\n      0x04\n      dup1\n      calldatasize\n      sub\n      dup2\n      add\n      swap1\n      tag_10\n      swap2\n      swap1\n      tag_11\n      jump\t// in\n    tag_10:\n      tag_12\n      jump\t// in\n    tag_9:\n      stop\n        /* \"contracts/DynamicVars.sol\":407:509  function declareStringVar(string memory name) public {\r... */\n    tag_8:\n        /* \"contracts/DynamicVars.sol\":497:501  name */\n      dup1\n        /* \"contracts/DynamicVars.sol\":471:483  _stringVarID */\n      0x01\n        /* \"contracts/DynamicVars.sol\":471:494  _stringVarID[_nextID++] */\n      0x00\n        /* \"contracts/DynamicVars.sol\":484:491  _nextID */\n      dup1\n      0x00\n        /* \"contracts/DynamicVars.sol\":484:493  _nextID++ */\n      dup2\n      sload\n      dup1\n      swap3\n      swap2\n      swap1\n      tag_14\n      swap1\n      tag_15\n      jump\t// in\n    tag_14:\n      swap2\n      swap1\n      pop\n      sstore\n        /* \"contracts/DynamicVars.sol\":471:494  _stringVarID[_nextID++] */\n      dup2\n      mstore\n      0x20\n      add\n      swap1\n      dup2\n      mstore\n      0x20\n      add\n      0x00\n      keccak256\n        /* \"contracts/DynamicVars.sol\":471:501  _stringVarID[_nextID++] = name */\n      swap1\n      dup1\n      mload\n      swap1\n      0x20\n      add\n      swap1\n      tag_16\n      swap3\n      swap2\n      swap1\n      tag_17\n      jump\t// in\n    tag_16:\n      pop\n        /* \"contracts/DynamicVars.sol\":407:509  function declareStringVar(string memory name) public {\r... */\n      pop\n      jump\t// out\n        /* \"contracts/DynamicVars.sol\":517:791  function setStringVarValue(string memory name, string memory value) public {\r... */\n    tag_12:\n        /* \"contracts/DynamicVars.sol\":739:744  value */\n      dup1\n        /* \"contracts/DynamicVars.sol\":719:730  _stringVars */\n      0x02\n        /* \"contracts/DynamicVars.sol\":731:735  name */\n      dup4\n        /* \"contracts/DynamicVars.sol\":719:736  _stringVars[name] */\n      mload(0x40)\n      tag_19\n      swap2\n      swap1\n      tag_20\n      jump\t// in\n    tag_19:\n      swap1\n      dup2\n      mstore\n      0x20\n      add\n      mload(0x40)\n      dup1\n      swap2\n      sub\n      swap1\n      keccak256\n        /* \"contracts/DynamicVars.sol\":719:744  _stringVars[name] = value */\n      swap1\n      dup1\n      mload\n      swap1\n      0x20\n      add\n      swap1\n      tag_21\n      swap3\n      swap2\n      swap1\n      tag_17\n      jump\t// in\n    tag_21:\n      pop\n        /* \"contracts/DynamicVars.sol\":779:783  name */\n      dup2\n        /* \"contracts/DynamicVars.sol\":755:769  _stringVarsInv */\n      0x03\n        /* \"contracts/DynamicVars.sol\":770:775  value */\n      dup3\n        /* \"contracts/DynamicVars.sol\":755:776  _stringVarsInv[value] */\n      mload(0x40)\n      tag_22\n      swap2\n      swap1\n      tag_20\n      jump\t// in\n    tag_22:\n      swap1\n      dup2\n      mstore\n      0x20\n      add\n      mload(0x40)\n      dup1\n      swap2\n      sub\n      swap1\n      keccak256\n        /* \"contracts/DynamicVars.sol\":755:783  _stringVarsInv[value] = name */\n      swap1\n      dup1\n      mload\n      swap1\n      0x20\n      add\n      swap1\n      tag_23\n      swap3\n      swap2\n      swap1\n      tag_17\n      jump\t// in\n    tag_23:\n      pop\n        /* \"contracts/DynamicVars.sol\":517:791  function setStringVarValue(string memory name, string memory value) public {\r... */\n      pop\n      pop\n      jump\t// out\n    tag_17:\n      dup3\n      dup1\n      sload\n      tag_24\n      swap1\n      tag_25\n      jump\t// in\n    tag_24:\n      swap1\n      0x00\n      mstore\n      keccak256(0x00, 0x20)\n      swap1\n      0x1f\n      add\n      0x20\n      swap1\n      div\n      dup2\n      add\n      swap3\n      dup3\n      tag_27\n      jumpi\n      0x00\n      dup6\n      sstore\n      jump(tag_26)\n    tag_27:\n      dup3\n      0x1f\n      lt\n      tag_28\n      jumpi\n      dup1\n      mload\n      not(0xff)\n      and\n      dup4\n      dup1\n      add\n      or\n      dup6\n      sstore\n      jump(tag_26)\n    tag_28:\n      dup3\n      dup1\n      add\n      0x01\n      add\n      dup6\n      sstore\n      dup3\n      iszero\n      tag_26\n      jumpi\n      swap2\n      dup3\n      add\n    tag_29:\n      dup3\n      dup2\n      gt\n      iszero\n      tag_30\n      jumpi\n      dup3\n      mload\n      dup3\n      sstore\n      swap2\n      0x20\n      add\n      swap2\n      swap1\n      0x01\n      add\n      swap1\n      jump(tag_29)\n    tag_30:\n    tag_26:\n      pop\n      swap1\n      pop\n      tag_31\n      swap2\n      swap1\n      tag_32\n      jump\t// in\n    tag_31:\n      pop\n      swap1\n      jump\t// out\n    tag_32:\n    tag_33:\n      dup1\n      dup3\n      gt\n      iszero\n      tag_34\n      jumpi\n      0x00\n      dup2\n      0x00\n      swap1\n      sstore\n      pop\n      0x01\n      add\n      jump(tag_33)\n    tag_34:\n      pop\n      swap1\n      jump\t// out\n        /* \"#utility.yul\":7:352   */\n    tag_36:\n      0x00\n        /* \"#utility.yul\":110:176   */\n      tag_38\n        /* \"#utility.yul\":126:175   */\n      tag_39\n        /* \"#utility.yul\":168:174   */\n      dup5\n        /* \"#utility.yul\":126:175   */\n      tag_40\n      jump\t// in\n    tag_39:\n        /* \"#utility.yul\":110:176   */\n      tag_41\n      jump\t// in\n    tag_38:\n        /* \"#utility.yul\":101:176   */\n      swap1\n      pop\n        /* \"#utility.yul\":199:205   */\n      dup3\n        /* \"#utility.yul\":192:197   */\n      dup2\n        /* \"#utility.yul\":185:206   */\n      mstore\n        /* \"#utility.yul\":237:241   */\n      0x20\n        /* \"#utility.yul\":230:235   */\n      dup2\n        /* \"#utility.yul\":226:242   */\n      add\n        /* \"#utility.yul\":275:278   */\n      dup5\n        /* \"#utility.yul\":266:272   */\n      dup5\n        /* \"#utility.yul\":261:264   */\n      dup5\n        /* \"#utility.yul\":257:273   */\n      add\n        /* \"#utility.yul\":254:279   */\n      gt\n        /* \"#utility.yul\":251:253   */\n      iszero\n      tag_42\n      jumpi\n        /* \"#utility.yul\":292:293   */\n      0x00\n        /* \"#utility.yul\":289:290   */\n      dup1\n        /* \"#utility.yul\":282:294   */\n      revert\n        /* \"#utility.yul\":251:253   */\n    tag_42:\n        /* \"#utility.yul\":305:346   */\n      tag_43\n        /* \"#utility.yul\":339:345   */\n      dup5\n        /* \"#utility.yul\":334:337   */\n      dup3\n        /* \"#utility.yul\":329:332   */\n      dup6\n        /* \"#utility.yul\":305:346   */\n      tag_44\n      jump\t// in\n    tag_43:\n        /* \"#utility.yul\":91:352   */\n      pop\n      swap4\n      swap3\n      pop\n      pop\n      pop\n      jump\t// out\n        /* \"#utility.yul\":372:645   */\n    tag_45:\n      0x00\n        /* \"#utility.yul\":477:480   */\n      dup3\n        /* \"#utility.yul\":470:474   */\n      0x1f\n        /* \"#utility.yul\":462:468   */\n      dup4\n        /* \"#utility.yul\":458:475   */\n      add\n        /* \"#utility.yul\":454:481   */\n      slt\n        /* \"#utility.yul\":444:446   */\n      tag_47\n      jumpi\n        /* \"#utility.yul\":495:496   */\n      0x00\n        /* \"#utility.yul\":492:493   */\n      dup1\n        /* \"#utility.yul\":485:497   */\n      revert\n        /* \"#utility.yul\":444:446   */\n    tag_47:\n        /* \"#utility.yul\":535:541   */\n      dup2\n        /* \"#utility.yul\":522:542   */\n      calldataload\n        /* \"#utility.yul\":560:639   */\n      tag_48\n        /* \"#utility.yul\":635:638   */\n      dup5\n        /* \"#utility.yul\":627:633   */\n      dup3\n        /* \"#utility.yul\":620:624   */\n      0x20\n        /* \"#utility.yul\":612:618   */\n      dup7\n        /* \"#utility.yul\":608:625   */\n      add\n        /* \"#utility.yul\":560:639   */\n      tag_36\n      jump\t// in\n    tag_48:\n        /* \"#utility.yul\":551:639   */\n      swap2\n      pop\n        /* \"#utility.yul\":434:645   */\n      pop\n      swap3\n      swap2\n      pop\n      pop\n      jump\t// out\n        /* \"#utility.yul\":651:1026   */\n    tag_7:\n      0x00\n        /* \"#utility.yul\":769:771   */\n      0x20\n        /* \"#utility.yul\":757:766   */\n      dup3\n        /* \"#utility.yul\":748:755   */\n      dup5\n        /* \"#utility.yul\":744:767   */\n      sub\n        /* \"#utility.yul\":740:772   */\n      slt\n        /* \"#utility.yul\":737:739   */\n      iszero\n      tag_50\n      jumpi\n        /* \"#utility.yul\":785:786   */\n      0x00\n        /* \"#utility.yul\":782:783   */\n      dup1\n        /* \"#utility.yul\":775:787   */\n      revert\n        /* \"#utility.yul\":737:739   */\n    tag_50:\n        /* \"#utility.yul\":856:857   */\n      0x00\n        /* \"#utility.yul\":845:854   */\n      dup3\n        /* \"#utility.yul\":841:858   */\n      add\n        /* \"#utility.yul\":828:859   */\n      calldataload\n        /* \"#utility.yul\":886:904   */\n      0xffffffffffffffff\n        /* \"#utility.yul\":878:884   */\n      dup2\n        /* \"#utility.yul\":875:905   */\n      gt\n        /* \"#utility.yul\":872:874   */\n      iszero\n      tag_51\n      jumpi\n        /* \"#utility.yul\":918:919   */\n      0x00\n        /* \"#utility.yul\":915:916   */\n      dup1\n        /* \"#utility.yul\":908:920   */\n      revert\n        /* \"#utility.yul\":872:874   */\n    tag_51:\n        /* \"#utility.yul\":946:1009   */\n      tag_52\n        /* \"#utility.yul\":1001:1008   */\n      dup5\n        /* \"#utility.yul\":992:998   */\n      dup3\n        /* \"#utility.yul\":981:990   */\n      dup6\n        /* \"#utility.yul\":977:999   */\n      add\n        /* \"#utility.yul\":946:1009   */\n      tag_45\n      jump\t// in\n    tag_52:\n        /* \"#utility.yul\":936:1009   */\n      swap2\n      pop\n        /* \"#utility.yul\":799:1019   */\n      pop\n        /* \"#utility.yul\":727:1026   */\n      swap3\n      swap2\n      pop\n      pop\n      jump\t// out\n        /* \"#utility.yul\":1032:1665   */\n    tag_11:\n      0x00\n      dup1\n        /* \"#utility.yul\":1177:1179   */\n      0x40\n        /* \"#utility.yul\":1165:1174   */\n      dup4\n        /* \"#utility.yul\":1156:1163   */\n      dup6\n        /* \"#utility.yul\":1152:1175   */\n      sub\n        /* \"#utility.yul\":1148:1180   */\n      slt\n        /* \"#utility.yul\":1145:1147   */\n      iszero\n      tag_54\n      jumpi\n        /* \"#utility.yul\":1193:1194   */\n      0x00\n        /* \"#utility.yul\":1190:1191   */\n      dup1\n        /* \"#utility.yul\":1183:1195   */\n      revert\n        /* \"#utility.yul\":1145:1147   */\n    tag_54:\n        /* \"#utility.yul\":1264:1265   */\n      0x00\n        /* \"#utility.yul\":1253:1262   */\n      dup4\n        /* \"#utility.yul\":1249:1266   */\n      add\n        /* \"#utility.yul\":1236:1267   */\n      calldataload\n        /* \"#utility.yul\":1294:1312   */\n      0xffffffffffffffff\n        /* \"#utility.yul\":1286:1292   */\n      dup2\n        /* \"#utility.yul\":1283:1313   */\n      gt\n        /* \"#utility.yul\":1280:1282   */\n      iszero\n      tag_55\n      jumpi\n        /* \"#utility.yul\":1326:1327   */\n      0x00\n        /* \"#utility.yul\":1323:1324   */\n      dup1\n        /* \"#utility.yul\":1316:1328   */\n      revert\n        /* \"#utility.yul\":1280:1282   */\n    tag_55:\n        /* \"#utility.yul\":1354:1417   */\n      tag_56\n        /* \"#utility.yul\":1409:1416   */\n      dup6\n        /* \"#utility.yul\":1400:1406   */\n      dup3\n        /* \"#utility.yul\":1389:1398   */\n      dup7\n        /* \"#utility.yul\":1385:1407   */\n      add\n        /* \"#utility.yul\":1354:1417   */\n      tag_45\n      jump\t// in\n    tag_56:\n        /* \"#utility.yul\":1344:1417   */\n      swap3\n      pop\n        /* \"#utility.yul\":1207:1427   */\n      pop\n        /* \"#utility.yul\":1494:1496   */\n      0x20\n        /* \"#utility.yul\":1483:1492   */\n      dup4\n        /* \"#utility.yul\":1479:1497   */\n      add\n        /* \"#utility.yul\":1466:1498   */\n      calldataload\n        /* \"#utility.yul\":1525:1543   */\n      0xffffffffffffffff\n        /* \"#utility.yul\":1517:1523   */\n      dup2\n        /* \"#utility.yul\":1514:1544   */\n      gt\n        /* \"#utility.yul\":1511:1513   */\n      iszero\n      tag_57\n      jumpi\n        /* \"#utility.yul\":1557:1558   */\n      0x00\n        /* \"#utility.yul\":1554:1555   */\n      dup1\n        /* \"#utility.yul\":1547:1559   */\n      revert\n        /* \"#utility.yul\":1511:1513   */\n    tag_57:\n        /* \"#utility.yul\":1585:1648   */\n      tag_58\n        /* \"#utility.yul\":1640:1647   */\n      dup6\n        /* \"#utility.yul\":1631:1637   */\n      dup3\n        /* \"#utility.yul\":1620:1629   */\n      dup7\n        /* \"#utility.yul\":1616:1638   */\n      add\n        /* \"#utility.yul\":1585:1648   */\n      tag_45\n      jump\t// in\n    tag_58:\n        /* \"#utility.yul\":1575:1648   */\n      swap2\n      pop\n        /* \"#utility.yul\":1437:1658   */\n      pop\n        /* \"#utility.yul\":1135:1665   */\n      swap3\n      pop\n      swap3\n      swap1\n      pop\n      jump\t// out\n        /* \"#utility.yul\":1671:2048   */\n    tag_59:\n      0x00\n        /* \"#utility.yul\":1805:1844   */\n      tag_61\n        /* \"#utility.yul\":1838:1843   */\n      dup3\n        /* \"#utility.yul\":1805:1844   */\n      tag_62\n      jump\t// in\n    tag_61:\n        /* \"#utility.yul\":1860:1949   */\n      tag_63\n        /* \"#utility.yul\":1942:1948   */\n      dup2\n        /* \"#utility.yul\":1937:1940   */\n      dup6\n        /* \"#utility.yul\":1860:1949   */\n      tag_64\n      jump\t// in\n    tag_63:\n        /* \"#utility.yul\":1853:1949   */\n      swap4\n      pop\n        /* \"#utility.yul\":1958:2010   */\n      tag_65\n        /* \"#utility.yul\":2003:2009   */\n      dup2\n        /* \"#utility.yul\":1998:2001   */\n      dup6\n        /* \"#utility.yul\":1991:1995   */\n      0x20\n        /* \"#utility.yul\":1984:1989   */\n      dup7\n        /* \"#utility.yul\":1980:1996   */\n      add\n        /* \"#utility.yul\":1958:2010   */\n      tag_66\n      jump\t// in\n    tag_65:\n        /* \"#utility.yul\":2035:2041   */\n      dup1\n        /* \"#utility.yul\":2030:2033   */\n      dup5\n        /* \"#utility.yul\":2026:2042   */\n      add\n        /* \"#utility.yul\":2019:2042   */\n      swap2\n      pop\n        /* \"#utility.yul\":1781:2048   */\n      pop\n      swap3\n      swap2\n      pop\n      pop\n      jump\t// out\n        /* \"#utility.yul\":2054:2329   */\n    tag_20:\n      0x00\n        /* \"#utility.yul\":2208:2303   */\n      tag_68\n        /* \"#utility.yul\":2299:2302   */\n      dup3\n        /* \"#utility.yul\":2290:2296   */\n      dup5\n        /* \"#utility.yul\":2208:2303   */\n      tag_59\n      jump\t// in\n    tag_68:\n        /* \"#utility.yul\":2201:2303   */\n      swap2\n      pop\n        /* \"#utility.yul\":2320:2323   */\n      dup2\n        /* \"#utility.yul\":2313:2323   */\n      swap1\n      pop\n        /* \"#utility.yul\":2190:2329   */\n      swap3\n      swap2\n      pop\n      pop\n      jump\t// out\n        /* \"#utility.yul\":2335:2464   */\n    tag_41:\n      0x00\n        /* \"#utility.yul\":2396:2416   */\n      tag_70\n      tag_71\n      jump\t// in\n    tag_70:\n        /* \"#utility.yul\":2386:2416   */\n      swap1\n      pop\n        /* \"#utility.yul\":2425:2458   */\n      tag_72\n        /* \"#utility.yul\":2453:2457   */\n      dup3\n        /* \"#utility.yul\":2445:2451   */\n      dup3\n        /* \"#utility.yul\":2425:2458   */\n      tag_73\n      jump\t// in\n    tag_72:\n        /* \"#utility.yul\":2376:2464   */\n      swap2\n      swap1\n      pop\n      jump\t// out\n        /* \"#utility.yul\":2470:2545   */\n    tag_71:\n      0x00\n        /* \"#utility.yul\":2536:2538   */\n      0x40\n        /* \"#utility.yul\":2530:2539   */\n      mload\n        /* \"#utility.yul\":2520:2539   */\n      swap1\n      pop\n        /* \"#utility.yul\":2510:2545   */\n      swap1\n      jump\t// out\n        /* \"#utility.yul\":2551:2859   */\n    tag_40:\n      0x00\n        /* \"#utility.yul\":2703:2721   */\n      0xffffffffffffffff\n        /* \"#utility.yul\":2695:2701   */\n      dup3\n        /* \"#utility.yul\":2692:2722   */\n      gt\n        /* \"#utility.yul\":2689:2691   */\n      iszero\n      tag_76\n      jumpi\n        /* \"#utility.yul\":2725:2743   */\n      tag_77\n      tag_78\n      jump\t// in\n    tag_77:\n        /* \"#utility.yul\":2689:2691   */\n    tag_76:\n        /* \"#utility.yul\":2763:2792   */\n      tag_79\n        /* \"#utility.yul\":2785:2791   */\n      dup3\n        /* \"#utility.yul\":2763:2792   */\n      tag_80\n      jump\t// in\n    tag_79:\n        /* \"#utility.yul\":2755:2792   */\n      swap1\n      pop\n        /* \"#utility.yul\":2847:2851   */\n      0x20\n        /* \"#utility.yul\":2841:2845   */\n      dup2\n        /* \"#utility.yul\":2837:2852   */\n      add\n        /* \"#utility.yul\":2829:2852   */\n      swap1\n      pop\n        /* \"#utility.yul\":2618:2859   */\n      swap2\n      swap1\n      pop\n      jump\t// out\n        /* \"#utility.yul\":2865:2964   */\n    tag_62:\n      0x00\n        /* \"#utility.yul\":2951:2956   */\n      dup2\n        /* \"#utility.yul\":2945:2957   */\n      mload\n        /* \"#utility.yul\":2935:2957   */\n      swap1\n      pop\n        /* \"#utility.yul\":2924:2964   */\n      swap2\n      swap1\n      pop\n      jump\t// out\n        /* \"#utility.yul\":2970:3118   */\n    tag_64:\n      0x00\n        /* \"#utility.yul\":3109:3112   */\n      dup2\n        /* \"#utility.yul\":3094:3112   */\n      swap1\n      pop\n        /* \"#utility.yul\":3084:3118   */\n      swap3\n      swap2\n      pop\n      pop\n      jump\t// out\n        /* \"#utility.yul\":3124:3201   */\n    tag_83:\n      0x00\n        /* \"#utility.yul\":3190:3195   */\n      dup2\n        /* \"#utility.yul\":3179:3195   */\n      swap1\n      pop\n        /* \"#utility.yul\":3169:3201   */\n      swap2\n      swap1\n      pop\n      jump\t// out\n        /* \"#utility.yul\":3207:3361   */\n    tag_44:\n        /* \"#utility.yul\":3291:3297   */\n      dup3\n        /* \"#utility.yul\":3286:3289   */\n      dup2\n        /* \"#utility.yul\":3281:3284   */\n      dup4\n        /* \"#utility.yul\":3268:3298   */\n      calldatacopy\n        /* \"#utility.yul\":3353:3354   */\n      0x00\n        /* \"#utility.yul\":3344:3350   */\n      dup4\n        /* \"#utility.yul\":3339:3342   */\n      dup4\n        /* \"#utility.yul\":3335:3351   */\n      add\n        /* \"#utility.yul\":3328:3355   */\n      mstore\n        /* \"#utility.yul\":3258:3361   */\n      pop\n      pop\n      pop\n      jump\t// out\n        /* \"#utility.yul\":3367:3674   */\n    tag_66:\n        /* \"#utility.yul\":3435:3436   */\n      0x00\n        /* \"#utility.yul\":3445:3558   */\n    tag_87:\n        /* \"#utility.yul\":3459:3465   */\n      dup4\n        /* \"#utility.yul\":3456:3457   */\n      dup2\n        /* \"#utility.yul\":3453:3466   */\n      lt\n        /* \"#utility.yul\":3445:3558   */\n      iszero\n      tag_89\n      jumpi\n        /* \"#utility.yul\":3544:3545   */\n      dup1\n        /* \"#utility.yul\":3539:3542   */\n      dup3\n        /* \"#utility.yul\":3535:3546   */\n      add\n        /* \"#utility.yul\":3529:3547   */\n      mload\n        /* \"#utility.yul\":3525:3526   */\n      dup2\n        /* \"#utility.yul\":3520:3523   */\n      dup5\n        /* \"#utility.yul\":3516:3527   */\n      add\n        /* \"#utility.yul\":3509:3548   */\n      mstore\n        /* \"#utility.yul\":3481:3483   */\n      0x20\n        /* \"#utility.yul\":3478:3479   */\n      dup2\n        /* \"#utility.yul\":3474:3484   */\n      add\n        /* \"#utility.yul\":3469:3484   */\n      swap1\n      pop\n        /* \"#utility.yul\":3445:3558   */\n      jump(tag_87)\n    tag_89:\n        /* \"#utility.yul\":3576:3582   */\n      dup4\n        /* \"#utility.yul\":3573:3574   */\n      dup2\n        /* \"#utility.yul\":3570:3583   */\n      gt\n        /* \"#utility.yul\":3567:3569   */\n      iszero\n      tag_90\n      jumpi\n        /* \"#utility.yul\":3656:3657   */\n      0x00\n        /* \"#utility.yul\":3647:3653   */\n      dup5\n        /* \"#utility.yul\":3642:3645   */\n      dup5\n        /* \"#utility.yul\":3638:3654   */\n      add\n        /* \"#utility.yul\":3631:3658   */\n      mstore\n        /* \"#utility.yul\":3567:3569   */\n    tag_90:\n        /* \"#utility.yul\":3416:3674   */\n      pop\n      pop\n      pop\n      pop\n      jump\t// out\n        /* \"#utility.yul\":3680:4000   */\n    tag_25:\n      0x00\n        /* \"#utility.yul\":3761:3762   */\n      0x02\n        /* \"#utility.yul\":3755:3759   */\n      dup3\n        /* \"#utility.yul\":3751:3763   */\n      div\n        /* \"#utility.yul\":3741:3763   */\n      swap1\n      pop\n        /* \"#utility.yul\":3808:3809   */\n      0x01\n        /* \"#utility.yul\":3802:3806   */\n      dup3\n        /* \"#utility.yul\":3798:3810   */\n      and\n        /* \"#utility.yul\":3829:3847   */\n      dup1\n        /* \"#utility.yul\":3819:3821   */\n      tag_92\n      jumpi\n        /* \"#utility.yul\":3885:3889   */\n      0x7f\n        /* \"#utility.yul\":3877:3883   */\n      dup3\n        /* \"#utility.yul\":3873:3890   */\n      and\n        /* \"#utility.yul\":3863:3890   */\n      swap2\n      pop\n        /* \"#utility.yul\":3819:3821   */\n    tag_92:\n        /* \"#utility.yul\":3947:3949   */\n      0x20\n        /* \"#utility.yul\":3939:3945   */\n      dup3\n        /* \"#utility.yul\":3936:3950   */\n      lt\n        /* \"#utility.yul\":3916:3934   */\n      dup2\n        /* \"#utility.yul\":3913:3951   */\n      eq\n        /* \"#utility.yul\":3910:3912   */\n      iszero\n      tag_93\n      jumpi\n        /* \"#utility.yul\":3966:3984   */\n      tag_94\n      tag_95\n      jump\t// in\n    tag_94:\n        /* \"#utility.yul\":3910:3912   */\n    tag_93:\n        /* \"#utility.yul\":3731:4000   */\n      pop\n      swap2\n      swap1\n      pop\n      jump\t// out\n        /* \"#utility.yul\":4006:4287   */\n    tag_73:\n        /* \"#utility.yul\":4089:4116   */\n      tag_97\n        /* \"#utility.yul\":4111:4115   */\n      dup3\n        /* \"#utility.yul\":4089:4116   */\n      tag_80\n      jump\t// in\n    tag_97:\n        /* \"#utility.yul\":4081:4087   */\n      dup2\n        /* \"#utility.yul\":4077:4117   */\n      add\n        /* \"#utility.yul\":4219:4225   */\n      dup2\n        /* \"#utility.yul\":4207:4217   */\n      dup2\n        /* \"#utility.yul\":4204:4226   */\n      lt\n        /* \"#utility.yul\":4183:4201   */\n      0xffffffffffffffff\n        /* \"#utility.yul\":4171:4181   */\n      dup3\n        /* \"#utility.yul\":4168:4202   */\n      gt\n        /* \"#utility.yul\":4165:4227   */\n      or\n        /* \"#utility.yul\":4162:4164   */\n      iszero\n      tag_98\n      jumpi\n        /* \"#utility.yul\":4230:4248   */\n      tag_99\n      tag_78\n      jump\t// in\n    tag_99:\n        /* \"#utility.yul\":4162:4164   */\n    tag_98:\n        /* \"#utility.yul\":4270:4280   */\n      dup1\n        /* \"#utility.yul\":4266:4268   */\n      0x40\n        /* \"#utility.yul\":4259:4281   */\n      mstore\n        /* \"#utility.yul\":4049:4287   */\n      pop\n      pop\n      pop\n      jump\t// out\n        /* \"#utility.yul\":4293:4526   */\n    tag_15:\n      0x00\n        /* \"#utility.yul\":4355:4379   */\n      tag_101\n        /* \"#utility.yul\":4373:4378   */\n      dup3\n        /* \"#utility.yul\":4355:4379   */\n      tag_83\n      jump\t// in\n    tag_101:\n        /* \"#utility.yul\":4346:4379   */\n      swap2\n      pop\n        /* \"#utility.yul\":4401:4467   */\n      0xffffffffffffffffffffffffffffffffffffffffffffffffffffffffffffffff\n        /* \"#utility.yul\":4394:4399   */\n      dup3\n        /* \"#utility.yul\":4391:4468   */\n      eq\n        /* \"#utility.yul\":4388:4390   */\n      iszero\n      tag_102\n      jumpi\n        /* \"#utility.yul\":4471:4489   */\n      tag_103\n      tag_104\n      jump\t// in\n    tag_103:\n        /* \"#utility.yul\":4388:4390   */\n    tag_102:\n        /* \"#utility.yul\":4518:4519   */\n      0x01\n        /* \"#utility.yul\":4511:4516   */\n      dup3\n        /* \"#utility.yul\":4507:4520   */\n      add\n        /* \"#utility.yul\":4500:4520   */\n      swap1\n      pop\n        /* \"#utility.yul\":4336:4526   */\n      swap2\n      swap1\n      pop\n      jump\t// out\n        /* \"#utility.yul\":4532:4712   */\n    tag_104:\n        /* \"#utility.yul\":4580:4657   */\n      0x4e487b7100000000000000000000000000000000000000000000000000000000\n        /* \"#utility.yul\":4577:4578   */\n      0x00\n        /* \"#utility.yul\":4570:4658   */\n      mstore\n        /* \"#utility.yul\":4677:4681   */\n      0x11\n        /* \"#utility.yul\":4674:4675   */\n      0x04\n        /* \"#utility.yul\":4667:4682   */\n      mstore\n        /* \"#utility.yul\":4701:4705   */\n      0x24\n        /* \"#utility.yul\":4698:4699   */\n      0x00\n        /* \"#utility.yul\":4691:4706   */\n      revert\n        /* \"#utility.yul\":4718:4898   */\n    tag_95:\n        /* \"#utility.yul\":4766:4843   */\n      0x4e487b7100000000000000000000000000000000000000000000000000000000\n        /* \"#utility.yul\":4763:4764   */\n      0x00\n        /* \"#utility.yul\":4756:4844   */\n      mstore\n        /* \"#utility.yul\":4863:4867   */\n      0x22\n        /* \"#utility.yul\":4860:4861   */\n      0x04\n        /* \"#utility.yul\":4853:4868   */\n      mstore\n        /* \"#utility.yul\":4887:4891   */\n      0x24\n        /* \"#utility.yul\":4884:4885   */\n      0x00\n        /* \"#utility.yul\":4877:4892   */\n      revert\n        /* \"#utility.yul\":4904:5084   */\n    tag_78:\n        /* \"#utility.yul\":4952:5029   */\n      0x4e487b7100000000000000000000000000000000000000000000000000000000\n        /* \"#utility.yul\":4949:4950   */\n      0x00\n        /* \"#utility.yul\":4942:5030   */\n      mstore\n        /* \"#utility.yul\":5049:5053   */\n      0x41\n        /* \"#utility.yul\":5046:5047   */\n      0x04\n        /* \"#utility.yul\":5039:5054   */\n      mstore\n        /* \"#utility.yul\":5073:5077   */\n      0x24\n        /* \"#utility.yul\":5070:5071   */\n      0x00\n        /* \"#utility.yul\":5063:5078   */\n      revert\n        /* \"#utility.yul\":5090:5192   */\n    tag_80:\n      0x00\n        /* \"#utility.yul\":5182:5184   */\n      0x1f\n        /* \"#utility.yul\":5178:5185   */\n      not\n        /* \"#utility.yul\":5173:5175   */\n      0x1f\n        /* \"#utility.yul\":5166:5171   */\n      dup4\n        /* \"#utility.yul\":5162:5176   */\n      add\n        /* \"#utility.yul\":5158:5186   */\n      and\n        /* \"#utility.yul\":5148:5186   */\n      swap1\n      pop\n        /* \"#utility.yul\":5138:5192   */\n      swap2\n      swap1\n      pop\n      jump\t// out\n\n    auxdata: 0xa264697066735822122056debeb3b32989ddf49bfde05e7198d65ab448b05920724ba4eeb9f8ba9ce33764736f6c63430008010033\n}\n",
				"bytecode": {
					"linkReferences": {},
					"object": "60806040526000805534801561001457600080fd5b50610555806100246000396000f3fe608060405234801561001057600080fd5b50600436106100365760003560e01c8063b29bfe471461003b578063c151cd3914610057575b600080fd5b61005560048036038101906100509190610228565b610073565b005b610071600480360381019061006c9190610269565b6100b3565b005b806001600080600081548092919061008a90610438565b91905055815260200190815260200160002090805190602001906100af92919061011d565b5050565b806002836040516100c49190610306565b908152602001604051809103902090805190602001906100e592919061011d565b50816003826040516100f79190610306565b9081526020016040518091039020908051906020019061011892919061011d565b505050565b828054610129906103d5565b90600052602060002090601f01602090048101928261014b5760008555610192565b82601f1061016457805160ff1916838001178555610192565b82800160010185558215610192579182015b82811115610191578251825591602001919060010190610176565b5b50905061019f91906101a3565b5090565b5b808211156101bc5760008160009055506001016101a4565b5090565b60006101d36101ce84610342565b61031d565b9050828152602081018484840111156101eb57600080fd5b6101f6848285610393565b509392505050565b600082601f83011261020f57600080fd5b813561021f8482602086016101c0565b91505092915050565b60006020828403121561023a57600080fd5b600082013567ffffffffffffffff81111561025457600080fd5b610260848285016101fe565b91505092915050565b6000806040838503121561027c57600080fd5b600083013567ffffffffffffffff81111561029657600080fd5b6102a2858286016101fe565b925050602083013567ffffffffffffffff8111156102bf57600080fd5b6102cb858286016101fe565b9150509250929050565b60006102e082610373565b6102ea818561037e565b93506102fa8185602086016103a2565b80840191505092915050565b600061031282846102d5565b915081905092915050565b6000610327610338565b90506103338282610407565b919050565b6000604051905090565b600067ffffffffffffffff82111561035d5761035c6104df565b5b6103668261050e565b9050602081019050919050565b600081519050919050565b600081905092915050565b6000819050919050565b82818337600083830152505050565b60005b838110156103c05780820151818401526020810190506103a5565b838111156103cf576000848401525b50505050565b600060028204905060018216806103ed57607f821691505b60208210811415610401576104006104b0565b5b50919050565b6104108261050e565b810181811067ffffffffffffffff8211171561042f5761042e6104df565b5b80604052505050565b600061044382610389565b91507fffffffffffffffffffffffffffffffffffffffffffffffffffffffffffffffff82141561047657610475610481565b5b600182019050919050565b7f4e487b7100000000000000000000000000000000000000000000000000000000600052601160045260246000fd5b7f4e487b7100000000000000000000000000000000000000000000000000000000600052602260045260246000fd5b7f4e487b7100000000000000000000000000000000000000000000000000000000600052604160045260246000fd5b6000601f19601f830116905091905056fea264697066735822122056debeb3b32989ddf49bfde05e7198d65ab448b05920724ba4eeb9f8ba9ce33764736f6c63430008010033",
					"opcodes": "PUSH1 0x80 PUSH1 0x40 MSTORE PUSH1 0x0 DUP1 SSTORE CALLVALUE DUP1 ISZERO PUSH2 0x14 JUMPI PUSH1 0x0 DUP1 REVERT JUMPDEST POP PUSH2 0x555 DUP1 PUSH2 0x24 PUSH1 0x0 CODECOPY PUSH1 0x0 RETURN INVALID PUSH1 0x80 PUSH1 0x40 MSTORE CALLVALUE DUP1 ISZERO PUSH2 0x10 JUMPI PUSH1 0x0 DUP1 REVERT JUMPDEST POP PUSH1 0x4 CALLDATASIZE LT PUSH2 0x36 JUMPI PUSH1 0x0 CALLDATALOAD PUSH1 0xE0 SHR DUP1 PUSH4 0xB29BFE47 EQ PUSH2 0x3B JUMPI DUP1 PUSH4 0xC151CD39 EQ PUSH2 0x57 JUMPI JUMPDEST PUSH1 0x0 DUP1 REVERT JUMPDEST PUSH2 0x55 PUSH1 0x4 DUP1 CALLDATASIZE SUB DUP2 ADD SWAP1 PUSH2 0x50 SWAP2 SWAP1 PUSH2 0x228 JUMP JUMPDEST PUSH2 0x73 JUMP JUMPDEST STOP JUMPDEST PUSH2 0x71 PUSH1 0x4 DUP1 CALLDATASIZE SUB DUP2 ADD SWAP1 PUSH2 0x6C SWAP2 SWAP1 PUSH2 0x269 JUMP JUMPDEST PUSH2 0xB3 JUMP JUMPDEST STOP JUMPDEST DUP1 PUSH1 0x1 PUSH1 0x0 DUP1 PUSH1 0x0 DUP2 SLOAD DUP1 SWAP3 SWAP2 SWAP1 PUSH2 0x8A SWAP1 PUSH2 0x438 JUMP JUMPDEST SWAP2 SWAP1 POP SSTORE DUP2 MSTORE PUSH1 0x20 ADD SWAP1 DUP2 MSTORE PUSH1 0x20 ADD PUSH1 0x0 KECCAK256 SWAP1 DUP1 MLOAD SWAP1 PUSH1 0x20 ADD SWAP1 PUSH2 0xAF SWAP3 SWAP2 SWAP1 PUSH2 0x11D JUMP JUMPDEST POP POP JUMP JUMPDEST DUP1 PUSH1 0x2 DUP4 PUSH1 0x40 MLOAD PUSH2 0xC4 SWAP2 SWAP1 PUSH2 0x306 JUMP JUMPDEST SWAP1 DUP2 MSTORE PUSH1 0x20 ADD PUSH1 0x40 MLOAD DUP1 SWAP2 SUB SWAP1 KECCAK256 SWAP1 DUP1 MLOAD SWAP1 PUSH1 0x20 ADD SWAP1 PUSH2 0xE5 SWAP3 SWAP2 SWAP1 PUSH2 0x11D JUMP JUMPDEST POP DUP2 PUSH1 0x3 DUP3 PUSH1 0x40 MLOAD PUSH2 0xF7 SWAP2 SWAP1 PUSH2 0x306 JUMP JUMPDEST SWAP1 DUP2 MSTORE PUSH1 0x20 ADD PUSH1 0x40 MLOAD DUP1 SWAP2 SUB SWAP1 KECCAK256 SWAP1 DUP1 MLOAD SWAP1 PUSH1 0x20 ADD SWAP1 PUSH2 0x118 SWAP3 SWAP2 SWAP1 PUSH2 0x11D JUMP JUMPDEST POP POP POP JUMP JUMPDEST DUP3 DUP1 SLOAD PUSH2 0x129 SWAP1 PUSH2 0x3D5 JUMP JUMPDEST SWAP1 PUSH1 0x0 MSTORE PUSH1 0x20 PUSH1 0x0 KECCAK256 SWAP1 PUSH1 0x1F ADD PUSH1 0x20 SWAP1 DIV DUP2 ADD SWAP3 DUP3 PUSH2 0x14B JUMPI PUSH1 0x0 DUP6 SSTORE PUSH2 0x192 JUMP JUMPDEST DUP3 PUSH1 0x1F LT PUSH2 0x164 JUMPI DUP1 MLOAD PUSH1 0xFF NOT AND DUP4 DUP1 ADD OR DUP6 SSTORE PUSH2 0x192 JUMP JUMPDEST DUP3 DUP1 ADD PUSH1 0x1 ADD DUP6 SSTORE DUP3 ISZERO PUSH2 0x192 JUMPI SWAP2 DUP3 ADD JUMPDEST DUP3 DUP2 GT ISZERO PUSH2 0x191 JUMPI DUP3 MLOAD DUP3 SSTORE SWAP2 PUSH1 0x20 ADD SWAP2 SWAP1 PUSH1 0x1 ADD SWAP1 PUSH2 0x176 JUMP JUMPDEST JUMPDEST POP SWAP1 POP PUSH2 0x19F SWAP2 SWAP1 PUSH2 0x1A3 JUMP JUMPDEST POP SWAP1 JUMP JUMPDEST JUMPDEST DUP1 DUP3 GT ISZERO PUSH2 0x1BC JUMPI PUSH1 0x0 DUP2 PUSH1 0x0 SWAP1 SSTORE POP PUSH1 0x1 ADD PUSH2 0x1A4 JUMP JUMPDEST POP SWAP1 JUMP JUMPDEST PUSH1 0x0 PUSH2 0x1D3 PUSH2 0x1CE DUP5 PUSH2 0x342 JUMP JUMPDEST PUSH2 0x31D JUMP JUMPDEST SWAP1 POP DUP3 DUP2 MSTORE PUSH1 0x20 DUP2 ADD DUP5 DUP5 DUP5 ADD GT ISZERO PUSH2 0x1EB JUMPI PUSH1 0x0 DUP1 REVERT JUMPDEST PUSH2 0x1F6 DUP5 DUP3 DUP6 PUSH2 0x393 JUMP JUMPDEST POP SWAP4 SWAP3 POP POP POP JUMP JUMPDEST PUSH1 0x0 DUP3 PUSH1 0x1F DUP4 ADD SLT PUSH2 0x20F JUMPI PUSH1 0x0 DUP1 REVERT JUMPDEST DUP2 CALLDATALOAD PUSH2 0x21F DUP5 DUP3 PUSH1 0x20 DUP7 ADD PUSH2 0x1C0 JUMP JUMPDEST SWAP2 POP POP SWAP3 SWAP2 POP POP JUMP JUMPDEST PUSH1 0x0 PUSH1 0x20 DUP3 DUP5 SUB SLT ISZERO PUSH2 0x23A JUMPI PUSH1 0x0 DUP1 REVERT JUMPDEST PUSH1 0x0 DUP3 ADD CALLDATALOAD PUSH8 0xFFFFFFFFFFFFFFFF DUP2 GT ISZERO PUSH2 0x254 JUMPI PUSH1 0x0 DUP1 REVERT JUMPDEST PUSH2 0x260 DUP5 DUP3 DUP6 ADD PUSH2 0x1FE JUMP JUMPDEST SWAP2 POP POP SWAP3 SWAP2 POP POP JUMP JUMPDEST PUSH1 0x0 DUP1 PUSH1 0x40 DUP4 DUP6 SUB SLT ISZERO PUSH2 0x27C JUMPI PUSH1 0x0 DUP1 REVERT JUMPDEST PUSH1 0x0 DUP4 ADD CALLDATALOAD PUSH8 0xFFFFFFFFFFFFFFFF DUP2 GT ISZERO PUSH2 0x296 JUMPI PUSH1 0x0 DUP1 REVERT JUMPDEST PUSH2 0x2A2 DUP6 DUP3 DUP7 ADD PUSH2 0x1FE JUMP JUMPDEST SWAP3 POP POP PUSH1 0x20 DUP4 ADD CALLDATALOAD PUSH8 0xFFFFFFFFFFFFFFFF DUP2 GT ISZERO PUSH2 0x2BF JUMPI PUSH1 0x0 DUP1 REVERT JUMPDEST PUSH2 0x2CB DUP6 DUP3 DUP7 ADD PUSH2 0x1FE JUMP JUMPDEST SWAP2 POP POP SWAP3 POP SWAP3 SWAP1 POP JUMP JUMPDEST PUSH1 0x0 PUSH2 0x2E0 DUP3 PUSH2 0x373 JUMP JUMPDEST PUSH2 0x2EA DUP2 DUP6 PUSH2 0x37E JUMP JUMPDEST SWAP4 POP PUSH2 0x2FA DUP2 DUP6 PUSH1 0x20 DUP7 ADD PUSH2 0x3A2 JUMP JUMPDEST DUP1 DUP5 ADD SWAP2 POP POP SWAP3 SWAP2 POP POP JUMP JUMPDEST PUSH1 0x0 PUSH2 0x312 DUP3 DUP5 PUSH2 0x2D5 JUMP JUMPDEST SWAP2 POP DUP2 SWAP1 POP SWAP3 SWAP2 POP POP JUMP JUMPDEST PUSH1 0x0 PUSH2 0x327 PUSH2 0x338 JUMP JUMPDEST SWAP1 POP PUSH2 0x333 DUP3 DUP3 PUSH2 0x407 JUMP JUMPDEST SWAP2 SWAP1 POP JUMP JUMPDEST PUSH1 0x0 PUSH1 0x40 MLOAD SWAP1 POP SWAP1 JUMP JUMPDEST PUSH1 0x0 PUSH8 0xFFFFFFFFFFFFFFFF DUP3 GT ISZERO PUSH2 0x35D JUMPI PUSH2 0x35C PUSH2 0x4DF JUMP JUMPDEST JUMPDEST PUSH2 0x366 DUP3 PUSH2 0x50E JUMP JUMPDEST SWAP1 POP PUSH1 0x20 DUP2 ADD SWAP1 POP SWAP2 SWAP1 POP JUMP JUMPDEST PUSH1 0x0 DUP2 MLOAD SWAP1 POP SWAP2 SWAP1 POP JUMP JUMPDEST PUSH1 0x0 DUP2 SWAP1 POP SWAP3 SWAP2 POP POP JUMP JUMPDEST PUSH1 0x0 DUP2 SWAP1 POP SWAP2 SWAP1 POP JUMP JUMPDEST DUP3 DUP2 DUP4 CALLDATACOPY PUSH1 0x0 DUP4 DUP4 ADD MSTORE POP POP POP JUMP JUMPDEST PUSH1 0x0 JUMPDEST DUP4 DUP2 LT ISZERO PUSH2 0x3C0 JUMPI DUP1 DUP3 ADD MLOAD DUP2 DUP5 ADD MSTORE PUSH1 0x20 DUP2 ADD SWAP1 POP PUSH2 0x3A5 JUMP JUMPDEST DUP4 DUP2 GT ISZERO PUSH2 0x3CF JUMPI PUSH1 0x0 DUP5 DUP5 ADD MSTORE JUMPDEST POP POP POP POP JUMP JUMPDEST PUSH1 0x0 PUSH1 0x2 DUP3 DIV SWAP1 POP PUSH1 0x1 DUP3 AND DUP1 PUSH2 0x3ED JUMPI PUSH1 0x7F DUP3 AND SWAP2 POP JUMPDEST PUSH1 0x20 DUP3 LT DUP2 EQ ISZERO PUSH2 0x401 JUMPI PUSH2 0x400 PUSH2 0x4B0 JUMP JUMPDEST JUMPDEST POP SWAP2 SWAP1 POP JUMP JUMPDEST PUSH2 0x410 DUP3 PUSH2 0x50E JUMP JUMPDEST DUP2 ADD DUP2 DUP2 LT PUSH8 0xFFFFFFFFFFFFFFFF DUP3 GT OR ISZERO PUSH2 0x42F JUMPI PUSH2 0x42E PUSH2 0x4DF JUMP JUMPDEST JUMPDEST DUP1 PUSH1 0x40 MSTORE POP POP POP JUMP JUMPDEST PUSH1 0x0 PUSH2 0x443 DUP3 PUSH2 0x389 JUMP JUMPDEST SWAP2 POP PUSH32 0xFFFFFFFFFFFFFFFFFFFFFFFFFFFFFFFFFFFFFFFFFFFFFFFFFFFFFFFFFFFFFFFF DUP3 EQ ISZERO PUSH2 0x476 JUMPI PUSH2 0x475 PUSH2 0x481 JUMP JUMPDEST JUMPDEST PUSH1 0x1 DUP3 ADD SWAP1 POP SWAP2 SWAP1 POP JUMP JUMPDEST PUSH32 0x4E487B7100000000000000000000000000000000000000000000000000000000 PUSH1 0x0 MSTORE PUSH1 0x11 PUSH1 0x4 MSTORE PUSH1 0x24 PUSH1 0x0 REVERT JUMPDEST PUSH32 0x4E487B7100000000000000000000000000000000000000000000000000000000 PUSH1 0x0 MSTORE PUSH1 0x22 PUSH1 0x4 MSTORE PUSH1 0x24 PUSH1 0x0 REVERT JUMPDEST PUSH32 0x4E487B7100000000000000000000000000000000000000000000000000000000 PUSH1 0x0 MSTORE PUSH1 0x41 PUSH1 0x4 MSTORE PUSH1 0x24 PUSH1 0x0 REVERT JUMPDEST PUSH1 0x0 PUSH1 0x1F NOT PUSH1 0x1F DUP4 ADD AND SWAP1 POP SWAP2 SWAP1 POP JUMP INVALID LOG2 PUSH5 0x6970667358 0x22 SLT KECCAK256 JUMP 0xDE 0xBE 0xB3 0xB3 0x29 DUP10 0xDD DELEGATECALL SWAP12 REVERT 0xE0 0x5E PUSH18 0x98D65AB448B05920724BA4EEB9F8BA9CE337 PUSH5 0x736F6C6343 STOP ADDMOD ADD STOP CALLER "
				},
				"gasEstimates": {
					"creation": {
						"codeDepositCost": "273000",
						"executionCost": "5318",
						"totalCost": "278318"
					},
					"external": {
						"declareStringVar(string)": "infinite",
						"setStringVarValue(string,string)": "infinite"
					}
				},
				"methodIdentifiers": {
					"declareStringVar(string)": "b29bfe47",
					"setStringVarValue(string,string)": "c151cd39"
				}
			},
			"userdoc": {
				"kind": "user",
				"methods": {},
				"version": 1
			}
		}
	}
}