{
	"contracts/Founding Citizens NFT Sale.sol": {
		"FoundingNFTSale": {
			"abi": [
				{
					"inputs": [],
					"stateMutability": "nonpayable",
					"type": "constructor"
				},
				{
					"anonymous": false,
					"inputs": [
						{
							"indexed": true,
							"internalType": "bytes32",
							"name": "role",
							"type": "bytes32"
						},
						{
							"indexed": true,
							"internalType": "bytes32",
							"name": "previousAdminRole",
							"type": "bytes32"
						},
						{
							"indexed": true,
							"internalType": "bytes32",
							"name": "newAdminRole",
							"type": "bytes32"
						}
					],
					"name": "RoleAdminChanged",
					"type": "event"
				},
				{
					"anonymous": false,
					"inputs": [
						{
							"indexed": true,
							"internalType": "bytes32",
							"name": "role",
							"type": "bytes32"
						},
						{
							"indexed": true,
							"internalType": "address",
							"name": "account",
							"type": "address"
						},
						{
							"indexed": true,
							"internalType": "address",
							"name": "sender",
							"type": "address"
						}
					],
					"name": "RoleGranted",
					"type": "event"
				},
				{
					"anonymous": false,
					"inputs": [
						{
							"indexed": true,
							"internalType": "bytes32",
							"name": "role",
							"type": "bytes32"
						},
						{
							"indexed": true,
							"internalType": "address",
							"name": "account",
							"type": "address"
						},
						{
							"indexed": true,
							"internalType": "address",
							"name": "sender",
							"type": "address"
						}
					],
					"name": "RoleRevoked",
					"type": "event"
				},
				{
					"inputs": [],
					"name": "DEFAULT_ADMIN_ROLE",
					"outputs": [
						{
							"internalType": "bytes32",
							"name": "",
							"type": "bytes32"
						}
					],
					"stateMutability": "view",
					"type": "function"
				},
				{
					"inputs": [],
					"name": "ERC1155storageContract",
					"outputs": [
						{
							"internalType": "contract IMintStorage",
							"name": "",
							"type": "address"
						}
					],
					"stateMutability": "view",
					"type": "function"
				},
				{
					"inputs": [],
					"name": "SALE_MANAGER_ROLE",
					"outputs": [
						{
							"internalType": "bytes32",
							"name": "",
							"type": "bytes32"
						}
					],
					"stateMutability": "view",
					"type": "function"
				},
				{
					"inputs": [],
					"name": "URI_MANAGER_ROLE",
					"outputs": [
						{
							"internalType": "bytes32",
							"name": "",
							"type": "bytes32"
						}
					],
					"stateMutability": "view",
					"type": "function"
				},
				{
					"inputs": [],
					"name": "buyNFT",
					"outputs": [],
					"stateMutability": "nonpayable",
					"type": "function"
				},
				{
					"inputs": [
						{
							"internalType": "uint256",
							"name": "discountRate",
							"type": "uint256"
						}
					],
					"name": "buyNftWithDiscount",
					"outputs": [],
					"stateMutability": "nonpayable",
					"type": "function"
				},
				{
					"inputs": [
						{
							"internalType": "address",
							"name": "prospectiveBuyer",
							"type": "address"
						},
						{
							"internalType": "uint256",
							"name": "discountRate",
							"type": "uint256"
						}
					],
					"name": "calculateCustomPrice",
					"outputs": [
						{
							"internalType": "uint256",
							"name": "",
							"type": "uint256"
						}
					],
					"stateMutability": "view",
					"type": "function"
				},
				{
					"inputs": [],
					"name": "getMaxSupply",
					"outputs": [
						{
							"internalType": "uint256",
							"name": "",
							"type": "uint256"
						}
					],
					"stateMutability": "view",
					"type": "function"
				},
				{
					"inputs": [],
					"name": "getNextUnusedToken",
					"outputs": [
						{
							"internalType": "uint256",
							"name": "",
							"type": "uint256"
						}
					],
					"stateMutability": "view",
					"type": "function"
				},
				{
					"inputs": [
						{
							"internalType": "bytes32",
							"name": "role",
							"type": "bytes32"
						}
					],
					"name": "getRoleAdmin",
					"outputs": [
						{
							"internalType": "bytes32",
							"name": "",
							"type": "bytes32"
						}
					],
					"stateMutability": "view",
					"type": "function"
				},
				{
					"inputs": [
						{
							"internalType": "bytes32",
							"name": "role",
							"type": "bytes32"
						},
						{
							"internalType": "address",
							"name": "account",
							"type": "address"
						}
					],
					"name": "grantRole",
					"outputs": [],
					"stateMutability": "nonpayable",
					"type": "function"
				},
				{
					"inputs": [
						{
							"internalType": "bytes32",
							"name": "role",
							"type": "bytes32"
						},
						{
							"internalType": "address",
							"name": "account",
							"type": "address"
						}
					],
					"name": "hasRole",
					"outputs": [
						{
							"internalType": "bool",
							"name": "",
							"type": "bool"
						}
					],
					"stateMutability": "view",
					"type": "function"
				},
				{
					"inputs": [],
					"name": "lastUpdate",
					"outputs": [
						{
							"internalType": "uint256",
							"name": "price",
							"type": "uint256"
						},
						{
							"internalType": "uint256",
							"name": "time",
							"type": "uint256"
						},
						{
							"internalType": "bool",
							"name": "saleIsLive",
							"type": "bool"
						}
					],
					"stateMutability": "view",
					"type": "function"
				},
				{
					"inputs": [],
					"name": "mintNextToTreasuryAddress",
					"outputs": [],
					"stateMutability": "nonpayable",
					"type": "function"
				},
				{
					"inputs": [],
					"name": "mintRemainderToTreasuryAddress",
					"outputs": [],
					"stateMutability": "nonpayable",
					"type": "function"
				},
				{
					"inputs": [
						{
							"internalType": "uint256[]",
							"name": "ids",
							"type": "uint256[]"
						},
						{
							"internalType": "string[]",
							"name": "uris",
							"type": "string[]"
						}
					],
					"name": "preLoadURIs",
					"outputs": [],
					"stateMutability": "nonpayable",
					"type": "function"
				},
				{
					"inputs": [],
					"name": "privilgedBuyerList",
					"outputs": [
						{
							"internalType": "contract IPrivilegedListStorage",
							"name": "",
							"type": "address"
						}
					],
					"stateMutability": "view",
					"type": "function"
				},
				{
					"inputs": [
						{
							"internalType": "bytes32",
							"name": "role",
							"type": "bytes32"
						},
						{
							"internalType": "address",
							"name": "account",
							"type": "address"
						}
					],
					"name": "renounceRole",
					"outputs": [],
					"stateMutability": "nonpayable",
					"type": "function"
				},
				{
					"inputs": [
						{
							"internalType": "bytes32",
							"name": "role",
							"type": "bytes32"
						},
						{
							"internalType": "address",
							"name": "account",
							"type": "address"
						}
					],
					"name": "revokeRole",
					"outputs": [],
					"stateMutability": "nonpayable",
					"type": "function"
				},
				{
					"inputs": [
						{
							"internalType": "uint256",
							"name": "unixTime",
							"type": "uint256"
						}
					],
					"name": "setEndTime",
					"outputs": [],
					"stateMutability": "nonpayable",
					"type": "function"
				},
				{
					"inputs": [
						{
							"internalType": "address",
							"name": "storageAddress",
							"type": "address"
						}
					],
					"name": "setStorageContractAddress",
					"outputs": [],
					"stateMutability": "nonpayable",
					"type": "function"
				},
				{
					"inputs": [
						{
							"internalType": "uint256",
							"name": "unixTime",
							"type": "uint256"
						}
					],
					"name": "setstartTime",
					"outputs": [],
					"stateMutability": "nonpayable",
					"type": "function"
				},
				{
					"inputs": [
						{
							"internalType": "bytes4",
							"name": "interfaceId",
							"type": "bytes4"
						}
					],
					"name": "supportsInterface",
					"outputs": [
						{
							"internalType": "bool",
							"name": "",
							"type": "bool"
						}
					],
					"stateMutability": "view",
					"type": "function"
				},
				{
					"inputs": [],
					"name": "treasuryAddress",
					"outputs": [
						{
							"internalType": "address",
							"name": "",
							"type": "address"
						}
					],
					"stateMutability": "view",
					"type": "function"
				},
				{
					"inputs": [
						{
							"internalType": "address",
							"name": "prospectiveBuyer",
							"type": "address"
						},
						{
							"internalType": "uint256",
							"name": "discountRate",
							"type": "uint256"
						}
					],
					"name": "updateAndCalculateCustomPrice",
					"outputs": [
						{
							"internalType": "uint256",
							"name": "",
							"type": "uint256"
						}
					],
					"stateMutability": "nonpayable",
					"type": "function"
				},
				{
					"inputs": [],
					"name": "usdcEscrowStorageContract",
					"outputs": [
						{
							"internalType": "contract IUsdcStorage",
							"name": "",
							"type": "address"
						}
					],
					"stateMutability": "view",
					"type": "function"
				}
			],
			"devdoc": {
				"kind": "dev",
				"methods": {
					"getRoleAdmin(bytes32)": {
						"details": "Returns the admin role that controls `role`. See {grantRole} and {revokeRole}. To change a role's admin, use {_setRoleAdmin}."
					},
					"grantRole(bytes32,address)": {
						"details": "Grants `role` to `account`. If `account` had not been already granted `role`, emits a {RoleGranted} event. Requirements: - the caller must have ``role``'s admin role."
					},
					"hasRole(bytes32,address)": {
						"details": "Returns `true` if `account` has been granted `role`."
					},
					"renounceRole(bytes32,address)": {
						"details": "Revokes `role` from the calling account. Roles are often managed via {grantRole} and {revokeRole}: this function's purpose is to provide a mechanism for accounts to lose their privileges if they are compromised (such as when a trusted device is misplaced). If the calling account had been revoked `role`, emits a {RoleRevoked} event. Requirements: - the caller must be `account`."
					},
					"revokeRole(bytes32,address)": {
						"details": "Revokes `role` from `account`. If `account` had been granted `role`, emits a {RoleRevoked} event. Requirements: - the caller must have ``role``'s admin role."
					},
					"supportsInterface(bytes4)": {
						"details": "See {IERC165-supportsInterface}."
					}
				},
				"version": 1
			},
			"evm": {
				"assembly": "    /* \"contracts/Founding Citizens NFT Sale.sol\":2764:8120  contract FoundingNFTSale is AccessControlExtension {\r... */\n  mstore(0x40, 0x80)\n    /* \"contracts/Founding Citizens NFT Sale.sol\":3203:3213  1893484800 */\n  0x70dc4900\n    /* \"contracts/Founding Citizens NFT Sale.sol\":3185:3213  uint startTime  = 1893484800 */\n  0x05\n  sstore\n    /* \"contracts/Founding Citizens NFT Sale.sol\":3316:3326  1893484900 */\n  0x70dc4964\n    /* \"contracts/Founding Citizens NFT Sale.sol\":3298:3326  uint endTime    = 1893484900 */\n  0x06\n  sstore\n    /* \"contracts/Founding Citizens NFT Sale.sol\":3357:3362  10**6 */\n  0x0f4240\n    /* \"contracts/Founding Citizens NFT Sale.sol\":3387:3389  10 */\n  0x0a\n    /* \"contracts/Founding Citizens NFT Sale.sol\":3387:3397  10 * units */\n  tag_1\n  swap2\n  swap1\n  tag_2\n  jump\t// in\ntag_1:\n    /* \"contracts/Founding Citizens NFT Sale.sol\":3369:3397  uint startPrice = 10 * units */\n  0x07\n  sstore\n    /* \"contracts/Founding Citizens NFT Sale.sol\":3357:3362  10**6 */\n  0x0f4240\n    /* \"contracts/Founding Citizens NFT Sale.sol\":3453:3454  1 */\n  0x01\n    /* \"contracts/Founding Citizens NFT Sale.sol\":3453:3462  1 * units */\n  tag_3\n  swap2\n  swap1\n  tag_2\n  jump\t// in\ntag_3:\n    /* \"contracts/Founding Citizens NFT Sale.sol\":3437:3462  uint EndPrice = 1 * units */\n  0x08\n  sstore\n    /* \"contracts/Founding Citizens NFT Sale.sol\":3650:3687  Update(10000, block.timestamp, false) */\n  mload(0x40)\n  dup1\n  0x60\n  add\n  0x40\n  mstore\n  dup1\n    /* \"contracts/Founding Citizens NFT Sale.sol\":3657:3662  10000 */\n  0x2710\n    /* \"contracts/Founding Citizens NFT Sale.sol\":3650:3687  Update(10000, block.timestamp, false) */\n  dup2\n  mstore\n  0x20\n  add\n    /* \"contracts/Founding Citizens NFT Sale.sol\":3664:3679  block.timestamp */\n  timestamp\n    /* \"contracts/Founding Citizens NFT Sale.sol\":3650:3687  Update(10000, block.timestamp, false) */\n  dup2\n  mstore\n  0x20\n  add\n    /* \"contracts/Founding Citizens NFT Sale.sol\":3681:3686  false */\n  0x00\n    /* \"contracts/Founding Citizens NFT Sale.sol\":3650:3687  Update(10000, block.timestamp, false) */\n  iszero\n  iszero\n  dup2\n  mstore\n  pop\n    /* \"contracts/Founding Citizens NFT Sale.sol\":3623:3687  Update public lastUpdate = Update(10000, block.timestamp, false) */\n  0x09\n  0x00\n  dup3\n  add\n  mload\n  dup2\n  0x00\n  add\n  sstore\n  0x20\n  dup3\n  add\n  mload\n  dup2\n  0x01\n  add\n  sstore\n  0x40\n  dup3\n  add\n  mload\n  dup2\n  0x02\n  add\n  exp(0x0100, 0x00)\n  dup2\n  sload\n  dup2\n  0xff\n  mul\n  not\n  and\n  swap1\n  dup4\n  iszero\n  iszero\n  mul\n  or\n  swap1\n  sstore\n  pop\n  pop\n  pop\n    /* \"contracts/Founding Citizens NFT Sale.sol\":4049:4081  constructor() {\r... */\n  callvalue\n  dup1\n  iszero\n  tag_4\n  jumpi\n  0x00\n  dup1\n  revert\ntag_4:\n  pop\n    /* \"contracts/Founding Citizens NFT Sale.sol\":2764:8120  contract FoundingNFTSale is AccessControlExtension {\r... */\n  jump(tag_7)\n    /* \"#utility.yul\":7:355   */\ntag_2:\n  0x00\n    /* \"#utility.yul\":70:90   */\n  tag_10\n    /* \"#utility.yul\":88:89   */\n  dup3\n    /* \"#utility.yul\":70:90   */\n  tag_11\n  jump\t// in\ntag_10:\n    /* \"#utility.yul\":65:90   */\n  swap2\n  pop\n    /* \"#utility.yul\":104:124   */\n  tag_12\n    /* \"#utility.yul\":122:123   */\n  dup4\n    /* \"#utility.yul\":104:124   */\n  tag_11\n  jump\t// in\ntag_12:\n    /* \"#utility.yul\":99:124   */\n  swap3\n  pop\n    /* \"#utility.yul\":292:293   */\n  dup2\n    /* \"#utility.yul\":224:290   */\n  0xffffffffffffffffffffffffffffffffffffffffffffffffffffffffffffffff\n    /* \"#utility.yul\":220:294   */\n  div\n    /* \"#utility.yul\":217:218   */\n  dup4\n    /* \"#utility.yul\":214:295   */\n  gt\n    /* \"#utility.yul\":209:210   */\n  dup3\n    /* \"#utility.yul\":202:211   */\n  iszero\n    /* \"#utility.yul\":195:212   */\n  iszero\n    /* \"#utility.yul\":191:296   */\n  and\n    /* \"#utility.yul\":188:190   */\n  iszero\n  tag_13\n  jumpi\n    /* \"#utility.yul\":299:317   */\n  tag_14\n  tag_15\n  jump\t// in\ntag_14:\n    /* \"#utility.yul\":188:190   */\ntag_13:\n    /* \"#utility.yul\":347:348   */\n  dup3\n    /* \"#utility.yul\":344:345   */\n  dup3\n    /* \"#utility.yul\":340:349   */\n  mul\n    /* \"#utility.yul\":329:349   */\n  swap1\n  pop\n    /* \"#utility.yul\":55:355   */\n  swap3\n  swap2\n  pop\n  pop\n  jump\t// out\n    /* \"#utility.yul\":361:438   */\ntag_11:\n  0x00\n    /* \"#utility.yul\":427:432   */\n  dup2\n    /* \"#utility.yul\":416:432   */\n  swap1\n  pop\n    /* \"#utility.yul\":406:438   */\n  swap2\n  swap1\n  pop\n  jump\t// out\n    /* \"#utility.yul\":444:624   */\ntag_15:\n    /* \"#utility.yul\":492:569   */\n  0x4e487b7100000000000000000000000000000000000000000000000000000000\n    /* \"#utility.yul\":489:490   */\n  0x00\n    /* \"#utility.yul\":482:570   */\n  mstore\n    /* \"#utility.yul\":589:593   */\n  0x11\n    /* \"#utility.yul\":586:587   */\n  0x04\n    /* \"#utility.yul\":579:594   */\n  mstore\n    /* \"#utility.yul\":613:617   */\n  0x24\n    /* \"#utility.yul\":610:611   */\n  0x00\n    /* \"#utility.yul\":603:618   */\n  revert\n    /* \"contracts/Founding Citizens NFT Sale.sol\":2764:8120  contract FoundingNFTSale is AccessControlExtension {\r... */\ntag_7:\n  dataSize(sub_0)\n  dup1\n  dataOffset(sub_0)\n  0x00\n  codecopy\n  0x00\n  return\nstop\n\nsub_0: assembly {\n        /* \"contracts/Founding Citizens NFT Sale.sol\":2764:8120  contract FoundingNFTSale is AccessControlExtension {\r... */\n      mstore(0x40, 0x80)\n      callvalue\n      dup1\n      iszero\n      tag_1\n      jumpi\n      0x00\n      dup1\n      revert\n    tag_1:\n      pop\n      jumpi(tag_2, lt(calldatasize, 0x04))\n      shr(0xe0, calldataload(0x00))\n      dup1\n      0x8c83faeb\n      gt\n      tag_29\n      jumpi\n      dup1\n      0xc0463711\n      gt\n      tag_30\n      jumpi\n      dup1\n      0xccb98ffc\n      gt\n      tag_31\n      jumpi\n      dup1\n      0xccb98ffc\n      eq\n      tag_25\n      jumpi\n      dup1\n      0xd547741f\n      eq\n      tag_26\n      jumpi\n      dup1\n      0xf121da92\n      eq\n      tag_27\n      jumpi\n      dup1\n      0xf715dfca\n      eq\n      tag_28\n      jumpi\n      jump(tag_2)\n    tag_31:\n      dup1\n      0xc0463711\n      eq\n      tag_22\n      jumpi\n      dup1\n      0xc5dae48f\n      eq\n      tag_23\n      jumpi\n      dup1\n      0xc5f956af\n      eq\n      tag_24\n      jumpi\n      jump(tag_2)\n    tag_30:\n      dup1\n      0x8c83faeb\n      eq\n      tag_16\n      jumpi\n      dup1\n      0x91d14854\n      eq\n      tag_17\n      jumpi\n      dup1\n      0x944044a1\n      eq\n      tag_18\n      jumpi\n      dup1\n      0xa217fddf\n      eq\n      tag_19\n      jumpi\n      dup1\n      0xab6c0306\n      eq\n      tag_20\n      jumpi\n      dup1\n      0xbff29cee\n      eq\n      tag_21\n      jumpi\n      jump(tag_2)\n    tag_29:\n      dup1\n      0x4c0f38c2\n      gt\n      tag_32\n      jumpi\n      dup1\n      0x551b42a8\n      gt\n      tag_33\n      jumpi\n      dup1\n      0x551b42a8\n      eq\n      tag_12\n      jumpi\n      dup1\n      0x5ce7e721\n      eq\n      tag_13\n      jumpi\n      dup1\n      0x682d07d9\n      eq\n      tag_14\n      jumpi\n      dup1\n      0x68fc01a2\n      eq\n      tag_15\n      jumpi\n      jump(tag_2)\n    tag_33:\n      dup1\n      0x4c0f38c2\n      eq\n      tag_9\n      jumpi\n      dup1\n      0x4c9b73da\n      eq\n      tag_10\n      jumpi\n      dup1\n      0x51f7598c\n      eq\n      tag_11\n      jumpi\n      jump(tag_2)\n    tag_32:\n      dup1\n      0x01ffc9a7\n      eq\n      tag_3\n      jumpi\n      dup1\n      0x248a9ca3\n      eq\n      tag_4\n      jumpi\n      dup1\n      0x26116d47\n      eq\n      tag_5\n      jumpi\n      dup1\n      0x2f2ff15d\n      eq\n      tag_6\n      jumpi\n      dup1\n      0x36568abe\n      eq\n      tag_7\n      jumpi\n      dup1\n      0x432c7c5d\n      eq\n      tag_8\n      jumpi\n    tag_2:\n      0x00\n      dup1\n      revert\n        /* \"@openzeppelin/contracts@4.4.2/access/AccessControl.sol\":2605:2807  function supportsInterface(bytes4 interfaceId) public view virtual override returns (bool) {... */\n    tag_3:\n      tag_34\n      0x04\n      dup1\n      calldatasize\n      sub\n      dup2\n      add\n      swap1\n      tag_35\n      swap2\n      swap1\n      tag_36\n      jump\t// in\n    tag_35:\n      tag_37\n      jump\t// in\n    tag_34:\n      mload(0x40)\n      tag_38\n      swap2\n      swap1\n      tag_39\n      jump\t// in\n    tag_38:\n      mload(0x40)\n      dup1\n      swap2\n      sub\n      swap1\n      return\n        /* \"@openzeppelin/contracts@4.4.2/access/AccessControl.sol\":3977:4098  function getRoleAdmin(bytes32 role) public view override returns (bytes32) {... */\n    tag_4:\n      tag_40\n      0x04\n      dup1\n      calldatasize\n      sub\n      dup2\n      add\n      swap1\n      tag_41\n      swap2\n      swap1\n      tag_42\n      jump\t// in\n    tag_41:\n      tag_43\n      jump\t// in\n    tag_40:\n      mload(0x40)\n      tag_44\n      swap2\n      swap1\n      tag_45\n      jump\t// in\n    tag_44:\n      mload(0x40)\n      dup1\n      swap2\n      sub\n      swap1\n      return\n        /* \"contracts/Founding Citizens NFT Sale.sol\":7707:8117  function mintNextToTreasuryAddress() public pushesUpdate {\r... */\n    tag_5:\n      tag_46\n      tag_47\n      jump\t// in\n    tag_46:\n      stop\n        /* \"@openzeppelin/contracts@4.4.2/access/AccessControl.sol\":4348:4493  function grantRole(bytes32 role, address account) public virtual override onlyRole(getRoleAdmin(role)) {... */\n    tag_6:\n      tag_48\n      0x04\n      dup1\n      calldatasize\n      sub\n      dup2\n      add\n      swap1\n      tag_49\n      swap2\n      swap1\n      tag_50\n      jump\t// in\n    tag_49:\n      tag_51\n      jump\t// in\n    tag_48:\n      stop\n        /* \"@openzeppelin/contracts@4.4.2/access/AccessControl.sol\":5365:5579  function renounceRole(bytes32 role, address account) public virtual override {... */\n    tag_7:\n      tag_52\n      0x04\n      dup1\n      calldatasize\n      sub\n      dup2\n      add\n      swap1\n      tag_53\n      swap2\n      swap1\n      tag_50\n      jump\t// in\n    tag_53:\n      tag_54\n      jump\t// in\n    tag_52:\n      stop\n        /* \"contracts/Founding Citizens NFT Sale.sol\":6564:6768  function updateAndCalculateCustomPrice(address prospectiveBuyer, uint discountRate) \r... */\n    tag_8:\n      tag_55\n      0x04\n      dup1\n      calldatasize\n      sub\n      dup2\n      add\n      swap1\n      tag_56\n      swap2\n      swap1\n      tag_57\n      jump\t// in\n    tag_56:\n      tag_58\n      jump\t// in\n    tag_55:\n      mload(0x40)\n      tag_59\n      swap2\n      swap1\n      tag_60\n      jump\t// in\n    tag_59:\n      mload(0x40)\n      dup1\n      swap2\n      sub\n      swap1\n      return\n        /* \"contracts/Founding Citizens NFT Sale.sol\":5403:5530  function getMaxSupply() public view returns(uint) {\r... */\n    tag_9:\n      tag_61\n      tag_62\n      jump\t// in\n    tag_61:\n      mload(0x40)\n      tag_63\n      swap2\n      swap1\n      tag_60\n      jump\t// in\n    tag_63:\n      mload(0x40)\n      dup1\n      swap2\n      sub\n      swap1\n      return\n        /* \"contracts/Founding Citizens NFT Sale.sol\":7101:7271  function buyNftWithDiscount(uint discountRate) public pushesUpdate {\r... */\n    tag_10:\n      tag_64\n      0x04\n      dup1\n      calldatasize\n      sub\n      dup2\n      add\n      swap1\n      tag_65\n      swap2\n      swap1\n      tag_66\n      jump\t// in\n    tag_65:\n      tag_67\n      jump\t// in\n    tag_64:\n      stop\n        /* \"contracts/Founding Citizens NFT Sale.sol\":4588:4755  function setStorageContractAddress(address storageAddress) public onlyRole(DEFAULT_ADMIN_ROLE) {\r... */\n    tag_11:\n      tag_68\n      0x04\n      dup1\n      calldatasize\n      sub\n      dup2\n      add\n      swap1\n      tag_69\n      swap2\n      swap1\n      tag_70\n      jump\t// in\n    tag_69:\n      tag_71\n      jump\t// in\n    tag_68:\n      stop\n        /* \"contracts/Founding Citizens NFT Sale.sol\":3096:3170  bytes32 public constant SALE_MANAGER_ROLE = keccak256(\"SALE_MANAGER_ROLE\") */\n    tag_12:\n      tag_72\n      tag_73\n      jump\t// in\n    tag_72:\n      mload(0x40)\n      tag_74\n      swap2\n      swap1\n      tag_45\n      jump\t// in\n    tag_74:\n      mload(0x40)\n      dup1\n      swap2\n      sub\n      swap1\n      return\n        /* \"contracts/Founding Citizens NFT Sale.sol\":2871:2919  IPrivilegedListStorage public privilgedBuyerList */\n    tag_13:\n      tag_75\n      tag_76\n      jump\t// in\n    tag_75:\n      mload(0x40)\n      tag_77\n      swap2\n      swap1\n      tag_78\n      jump\t// in\n    tag_77:\n      mload(0x40)\n      dup1\n      swap2\n      sub\n      swap1\n      return\n        /* \"contracts/Founding Citizens NFT Sale.sol\":3017:3089  bytes32 public constant URI_MANAGER_ROLE = keccak256(\"URI_MANAGER_ROLE\") */\n    tag_14:\n      tag_79\n      tag_80\n      jump\t// in\n    tag_79:\n      mload(0x40)\n      tag_81\n      swap2\n      swap1\n      tag_45\n      jump\t// in\n    tag_81:\n      mload(0x40)\n      dup1\n      swap2\n      sub\n      swap1\n      return\n        /* \"contracts/Founding Citizens NFT Sale.sol\":5256:5395  function getNextUnusedToken() public view returns(uint) {\r... */\n    tag_15:\n      tag_82\n      tag_83\n      jump\t// in\n    tag_82:\n      mload(0x40)\n      tag_84\n      swap2\n      swap1\n      tag_60\n      jump\t// in\n    tag_84:\n      mload(0x40)\n      dup1\n      swap2\n      sub\n      swap1\n      return\n        /* \"contracts/Founding Citizens NFT Sale.sol\":2822:2864  IMintStorage public ERC1155storageContract */\n    tag_16:\n      tag_85\n      tag_86\n      jump\t// in\n    tag_85:\n      mload(0x40)\n      tag_87\n      swap2\n      swap1\n      tag_88\n      jump\t// in\n    tag_87:\n      mload(0x40)\n      dup1\n      swap2\n      sub\n      swap1\n      return\n        /* \"@openzeppelin/contracts@4.4.2/access/AccessControl.sol\":2894:3031  function hasRole(bytes32 role, address account) public view override returns (bool) {... */\n    tag_17:\n      tag_89\n      0x04\n      dup1\n      calldatasize\n      sub\n      dup2\n      add\n      swap1\n      tag_90\n      swap2\n      swap1\n      tag_50\n      jump\t// in\n    tag_90:\n      tag_91\n      jump\t// in\n    tag_89:\n      mload(0x40)\n      tag_92\n      swap2\n      swap1\n      tag_39\n      jump\t// in\n    tag_92:\n      mload(0x40)\n      dup1\n      swap2\n      sub\n      swap1\n      return\n        /* \"contracts/Founding Citizens NFT Sale.sol\":5538:5816  function setstartTime(uint unixTime) public {\r... */\n    tag_18:\n      tag_93\n      0x04\n      dup1\n      calldatasize\n      sub\n      dup2\n      add\n      swap1\n      tag_94\n      swap2\n      swap1\n      tag_66\n      jump\t// in\n    tag_94:\n      tag_95\n      jump\t// in\n    tag_93:\n      stop\n        /* \"@openzeppelin/contracts@4.4.2/access/AccessControl.sol\":2012:2061  bytes32 public constant DEFAULT_ADMIN_ROLE = 0x00 */\n    tag_19:\n      tag_96\n      tag_97\n      jump\t// in\n    tag_96:\n      mload(0x40)\n      tag_98\n      swap2\n      swap1\n      tag_45\n      jump\t// in\n    tag_98:\n      mload(0x40)\n      dup1\n      swap2\n      sub\n      swap1\n      return\n        /* \"contracts/Founding Citizens NFT Sale.sol\":6106:6556  function calculateCustomPrice(address prospectiveBuyer, uint discountRate) \r... */\n    tag_20:\n      tag_99\n      0x04\n      dup1\n      calldatasize\n      sub\n      dup2\n      add\n      swap1\n      tag_100\n      swap2\n      swap1\n      tag_57\n      jump\t// in\n    tag_100:\n      tag_101\n      jump\t// in\n    tag_99:\n      mload(0x40)\n      tag_102\n      swap2\n      swap1\n      tag_60\n      jump\t// in\n    tag_102:\n      mload(0x40)\n      dup1\n      swap2\n      sub\n      swap1\n      return\n        /* \"contracts/Founding Citizens NFT Sale.sol\":6948:7093  function buyNFT() public pushesUpdate { //requires using existing balance\r... */\n    tag_21:\n      tag_103\n      tag_104\n      jump\t// in\n    tag_103:\n      stop\n        /* \"contracts/Founding Citizens NFT Sale.sol\":3623:3687  Update public lastUpdate = Update(10000, block.timestamp, false) */\n    tag_22:\n      tag_105\n      tag_106\n      jump\t// in\n    tag_105:\n      mload(0x40)\n      tag_107\n      swap4\n      swap3\n      swap2\n      swap1\n      tag_108\n      jump\t// in\n    tag_107:\n      mload(0x40)\n      dup1\n      swap2\n      sub\n      swap1\n      return\n        /* \"contracts/Founding Citizens NFT Sale.sol\":2926:2971  IUsdcStorage public usdcEscrowStorageContract */\n    tag_23:\n      tag_109\n      tag_110\n      jump\t// in\n    tag_109:\n      mload(0x40)\n      tag_111\n      swap2\n      swap1\n      tag_112\n      jump\t// in\n    tag_111:\n      mload(0x40)\n      dup1\n      swap2\n      sub\n      swap1\n      return\n        /* \"contracts/Founding Citizens NFT Sale.sol\":2978:3008  address public treasuryAddress */\n    tag_24:\n      tag_113\n      tag_114\n      jump\t// in\n    tag_113:\n      mload(0x40)\n      tag_115\n      swap2\n      swap1\n      tag_116\n      jump\t// in\n    tag_115:\n      mload(0x40)\n      dup1\n      swap2\n      sub\n      swap1\n      return\n        /* \"contracts/Founding Citizens NFT Sale.sol\":5824:6098  function setEndTime(uint unixTime) public {\r... */\n    tag_25:\n      tag_117\n      0x04\n      dup1\n      calldatasize\n      sub\n      dup2\n      add\n      swap1\n      tag_118\n      swap2\n      swap1\n      tag_66\n      jump\t// in\n    tag_118:\n      tag_119\n      jump\t// in\n    tag_117:\n      stop\n        /* \"@openzeppelin/contracts@4.4.2/access/AccessControl.sol\":4727:4874  function revokeRole(bytes32 role, address account) public virtual override onlyRole(getRoleAdmin(role)) {... */\n    tag_26:\n      tag_120\n      0x04\n      dup1\n      calldatasize\n      sub\n      dup2\n      add\n      swap1\n      tag_121\n      swap2\n      swap1\n      tag_50\n      jump\t// in\n    tag_121:\n      tag_122\n      jump\t// in\n    tag_120:\n      stop\n        /* \"contracts/Founding Citizens NFT Sale.sol\":4902:5248  function preLoadURIs(uint[] memory ids, string[] memory uris) \r... */\n    tag_27:\n      tag_123\n      0x04\n      dup1\n      calldatasize\n      sub\n      dup2\n      add\n      swap1\n      tag_124\n      swap2\n      swap1\n      tag_125\n      jump\t// in\n    tag_124:\n      tag_126\n      jump\t// in\n    tag_123:\n      stop\n        /* \"contracts/Founding Citizens NFT Sale.sol\":7279:7699  function mintRemainderToTreasuryAddress() external pushesUpdate {\r... */\n    tag_28:\n      tag_127\n      tag_128\n      jump\t// in\n    tag_127:\n      stop\n        /* \"@openzeppelin/contracts@4.4.2/access/AccessControl.sol\":2605:2807  function supportsInterface(bytes4 interfaceId) public view virtual override returns (bool) {... */\n    tag_37:\n        /* \"@openzeppelin/contracts@4.4.2/access/AccessControl.sol\":2690:2694  bool */\n      0x00\n        /* \"@openzeppelin/contracts@4.4.2/access/AccessControl.sol\":2728:2760  type(IAccessControl).interfaceId */\n      0x7965db0b00000000000000000000000000000000000000000000000000000000\n        /* \"@openzeppelin/contracts@4.4.2/access/AccessControl.sol\":2713:2760  interfaceId == type(IAccessControl).interfaceId */\n      not(0xffffffffffffffffffffffffffffffffffffffffffffffffffffffff)\n      and\n        /* \"@openzeppelin/contracts@4.4.2/access/AccessControl.sol\":2713:2724  interfaceId */\n      dup3\n        /* \"@openzeppelin/contracts@4.4.2/access/AccessControl.sol\":2713:2760  interfaceId == type(IAccessControl).interfaceId */\n      not(0xffffffffffffffffffffffffffffffffffffffffffffffffffffffff)\n      and\n      eq\n        /* \"@openzeppelin/contracts@4.4.2/access/AccessControl.sol\":2713:2800  interfaceId == type(IAccessControl).interfaceId || super.supportsInterface(interfaceId) */\n      dup1\n      tag_130\n      jumpi\n      pop\n        /* \"@openzeppelin/contracts@4.4.2/access/AccessControl.sol\":2764:2800  super.supportsInterface(interfaceId) */\n      tag_131\n        /* \"@openzeppelin/contracts@4.4.2/access/AccessControl.sol\":2788:2799  interfaceId */\n      dup3\n        /* \"@openzeppelin/contracts@4.4.2/access/AccessControl.sol\":2764:2787  super.supportsInterface */\n      tag_132\n        /* \"@openzeppelin/contracts@4.4.2/access/AccessControl.sol\":2764:2800  super.supportsInterface(interfaceId) */\n      jump\t// in\n    tag_131:\n        /* \"@openzeppelin/contracts@4.4.2/access/AccessControl.sol\":2713:2800  interfaceId == type(IAccessControl).interfaceId || super.supportsInterface(interfaceId) */\n    tag_130:\n        /* \"@openzeppelin/contracts@4.4.2/access/AccessControl.sol\":2706:2800  return interfaceId == type(IAccessControl).interfaceId || super.supportsInterface(interfaceId) */\n      swap1\n      pop\n        /* \"@openzeppelin/contracts@4.4.2/access/AccessControl.sol\":2605:2807  function supportsInterface(bytes4 interfaceId) public view virtual override returns (bool) {... */\n      swap2\n      swap1\n      pop\n      jump\t// out\n        /* \"@openzeppelin/contracts@4.4.2/access/AccessControl.sol\":3977:4098  function getRoleAdmin(bytes32 role) public view override returns (bytes32) {... */\n    tag_43:\n        /* \"@openzeppelin/contracts@4.4.2/access/AccessControl.sol\":4043:4050  bytes32 */\n      0x00\n        /* \"@openzeppelin/contracts@4.4.2/access/AccessControl.sol\":4069:4075  _roles */\n      dup1\n        /* \"@openzeppelin/contracts@4.4.2/access/AccessControl.sol\":4069:4081  _roles[role] */\n      0x00\n        /* \"@openzeppelin/contracts@4.4.2/access/AccessControl.sol\":4076:4080  role */\n      dup4\n        /* \"@openzeppelin/contracts@4.4.2/access/AccessControl.sol\":4069:4081  _roles[role] */\n      dup2\n      mstore\n      0x20\n      add\n      swap1\n      dup2\n      mstore\n      0x20\n      add\n      0x00\n      keccak256\n        /* \"@openzeppelin/contracts@4.4.2/access/AccessControl.sol\":4069:4091  _roles[role].adminRole */\n      0x01\n      add\n      sload\n        /* \"@openzeppelin/contracts@4.4.2/access/AccessControl.sol\":4062:4091  return _roles[role].adminRole */\n      swap1\n      pop\n        /* \"@openzeppelin/contracts@4.4.2/access/AccessControl.sol\":3977:4098  function getRoleAdmin(bytes32 role) public view override returns (bytes32) {... */\n      swap2\n      swap1\n      pop\n      jump\t// out\n        /* \"contracts/Founding Citizens NFT Sale.sol\":7707:8117  function mintNextToTreasuryAddress() public pushesUpdate {\r... */\n    tag_47:\n        /* \"contracts/Founding Citizens NFT Sale.sol\":3870:3883  updateState() */\n      tag_135\n        /* \"contracts/Founding Citizens NFT Sale.sol\":3870:3881  updateState */\n      tag_136\n        /* \"contracts/Founding Citizens NFT Sale.sol\":3870:3883  updateState() */\n      jump\t// in\n    tag_135:\n        /* \"contracts/Founding Citizens NFT Sale.sol\":7815:7822  endTime */\n      sload(0x06)\n        /* \"contracts/Founding Citizens NFT Sale.sol\":7797:7812  block.timestamp */\n      timestamp\n        /* \"contracts/Founding Citizens NFT Sale.sol\":7797:7822  block.timestamp > endTime */\n      gt\n        /* \"contracts/Founding Citizens NFT Sale.sol\":7797:7848  block.timestamp > endTime && !lastUpdate.saleIsLive */\n      dup1\n      iszero\n      tag_138\n      jumpi\n      pop\n        /* \"contracts/Founding Citizens NFT Sale.sol\":7827:7837  lastUpdate */\n      0x09\n        /* \"contracts/Founding Citizens NFT Sale.sol\":7827:7848  lastUpdate.saleIsLive */\n      0x02\n      add\n      0x00\n      swap1\n      sload\n      swap1\n      0x0100\n      exp\n      swap1\n      div\n      0xff\n      and\n        /* \"contracts/Founding Citizens NFT Sale.sol\":7826:7848  !lastUpdate.saleIsLive */\n      iszero\n        /* \"contracts/Founding Citizens NFT Sale.sol\":7797:7848  block.timestamp > endTime && !lastUpdate.saleIsLive */\n    tag_138:\n        /* \"contracts/Founding Citizens NFT Sale.sol\":7775:7931  require(\r... */\n      tag_139\n      jumpi\n      mload(0x40)\n      0x08c379a000000000000000000000000000000000000000000000000000000000\n      dup2\n      mstore\n      0x04\n      add\n      tag_140\n      swap1\n      tag_141\n      jump\t// in\n    tag_140:\n      mload(0x40)\n      dup1\n      swap2\n      sub\n      swap1\n      revert\n    tag_139:\n        /* \"contracts/Founding Citizens NFT Sale.sol\":7942:7957  uint leftToMint */\n      0x00\n        /* \"contracts/Founding Citizens NFT Sale.sol\":7999:8000  1 */\n      0x01\n        /* \"contracts/Founding Citizens NFT Sale.sol\":7978:7998  getNextUnusedToken() */\n      tag_142\n        /* \"contracts/Founding Citizens NFT Sale.sol\":7978:7996  getNextUnusedToken */\n      tag_83\n        /* \"contracts/Founding Citizens NFT Sale.sol\":7978:7998  getNextUnusedToken() */\n      jump\t// in\n    tag_142:\n        /* \"contracts/Founding Citizens NFT Sale.sol\":7978:8000  getNextUnusedToken()-1 */\n      tag_143\n      swap2\n      swap1\n      tag_144\n      jump\t// in\n    tag_143:\n        /* \"contracts/Founding Citizens NFT Sale.sol\":7960:7974  getMaxSupply() */\n      tag_145\n        /* \"contracts/Founding Citizens NFT Sale.sol\":7960:7972  getMaxSupply */\n      tag_62\n        /* \"contracts/Founding Citizens NFT Sale.sol\":7960:7974  getMaxSupply() */\n      jump\t// in\n    tag_145:\n        /* \"contracts/Founding Citizens NFT Sale.sol\":7960:8001  getMaxSupply() - (getNextUnusedToken()-1) */\n      tag_146\n      swap2\n      swap1\n      tag_144\n      jump\t// in\n    tag_146:\n        /* \"contracts/Founding Citizens NFT Sale.sol\":7942:8001  uint leftToMint = getMaxSupply() - (getNextUnusedToken()-1) */\n      swap1\n      pop\n        /* \"contracts/Founding Citizens NFT Sale.sol\":8033:8034  0 */\n      0x00\n        /* \"contracts/Founding Citizens NFT Sale.sol\":8020:8030  leftToMint */\n      dup2\n        /* \"contracts/Founding Citizens NFT Sale.sol\":8020:8034  leftToMint > 0 */\n      gt\n        /* \"contracts/Founding Citizens NFT Sale.sol\":8012:8061  require(leftToMint > 0, \"No tokens left to mint\") */\n      tag_147\n      jumpi\n      mload(0x40)\n      0x08c379a000000000000000000000000000000000000000000000000000000000\n      dup2\n      mstore\n      0x04\n      add\n      tag_148\n      swap1\n      tag_149\n      jump\t// in\n    tag_148:\n      mload(0x40)\n      dup1\n      swap2\n      sub\n      swap1\n      revert\n    tag_147:\n        /* \"contracts/Founding Citizens NFT Sale.sol\":8072:8109  mintNextNftToAddress(treasuryAddress) */\n      tag_150\n        /* \"contracts/Founding Citizens NFT Sale.sol\":8093:8108  treasuryAddress */\n      0x04\n      0x00\n      swap1\n      sload\n      swap1\n      0x0100\n      exp\n      swap1\n      div\n      0xffffffffffffffffffffffffffffffffffffffff\n      and\n        /* \"contracts/Founding Citizens NFT Sale.sol\":8072:8092  mintNextNftToAddress */\n      tag_151\n        /* \"contracts/Founding Citizens NFT Sale.sol\":8072:8109  mintNextNftToAddress(treasuryAddress) */\n      jump\t// in\n    tag_150:\n        /* \"contracts/Founding Citizens NFT Sale.sol\":3894:3895  _ */\n      pop\n        /* \"contracts/Founding Citizens NFT Sale.sol\":7707:8117  function mintNextToTreasuryAddress() public pushesUpdate {\r... */\n      jump\t// out\n        /* \"@openzeppelin/contracts@4.4.2/access/AccessControl.sol\":4348:4493  function grantRole(bytes32 role, address account) public virtual override onlyRole(getRoleAdmin(role)) {... */\n    tag_51:\n        /* \"@openzeppelin/contracts@4.4.2/access/AccessControl.sol\":4431:4449  getRoleAdmin(role) */\n      tag_152\n        /* \"@openzeppelin/contracts@4.4.2/access/AccessControl.sol\":4444:4448  role */\n      dup3\n        /* \"@openzeppelin/contracts@4.4.2/access/AccessControl.sol\":4431:4443  getRoleAdmin */\n      tag_43\n        /* \"@openzeppelin/contracts@4.4.2/access/AccessControl.sol\":4431:4449  getRoleAdmin(role) */\n      jump\t// in\n    tag_152:\n        /* \"@openzeppelin/contracts@4.4.2/access/AccessControl.sol\":2490:2520  _checkRole(role, _msgSender()) */\n      tag_154\n        /* \"@openzeppelin/contracts@4.4.2/access/AccessControl.sol\":2501:2505  role */\n      dup2\n        /* \"@openzeppelin/contracts@4.4.2/access/AccessControl.sol\":2507:2519  _msgSender() */\n      tag_155\n        /* \"@openzeppelin/contracts@4.4.2/access/AccessControl.sol\":2507:2517  _msgSender */\n      tag_156\n        /* \"@openzeppelin/contracts@4.4.2/access/AccessControl.sol\":2507:2519  _msgSender() */\n      jump\t// in\n    tag_155:\n        /* \"@openzeppelin/contracts@4.4.2/access/AccessControl.sol\":2490:2500  _checkRole */\n      tag_157\n        /* \"@openzeppelin/contracts@4.4.2/access/AccessControl.sol\":2490:2520  _checkRole(role, _msgSender()) */\n      jump\t// in\n    tag_154:\n        /* \"@openzeppelin/contracts@4.4.2/access/AccessControl.sol\":4461:4486  _grantRole(role, account) */\n      tag_159\n        /* \"@openzeppelin/contracts@4.4.2/access/AccessControl.sol\":4472:4476  role */\n      dup4\n        /* \"@openzeppelin/contracts@4.4.2/access/AccessControl.sol\":4478:4485  account */\n      dup4\n        /* \"@openzeppelin/contracts@4.4.2/access/AccessControl.sol\":4461:4471  _grantRole */\n      tag_160\n        /* \"@openzeppelin/contracts@4.4.2/access/AccessControl.sol\":4461:4486  _grantRole(role, account) */\n      jump\t// in\n    tag_159:\n        /* \"@openzeppelin/contracts@4.4.2/access/AccessControl.sol\":4348:4493  function grantRole(bytes32 role, address account) public virtual override onlyRole(getRoleAdmin(role)) {... */\n      pop\n      pop\n      pop\n      jump\t// out\n        /* \"@openzeppelin/contracts@4.4.2/access/AccessControl.sol\":5365:5579  function renounceRole(bytes32 role, address account) public virtual override {... */\n    tag_54:\n        /* \"@openzeppelin/contracts@4.4.2/access/AccessControl.sol\":5471:5483  _msgSender() */\n      tag_162\n        /* \"@openzeppelin/contracts@4.4.2/access/AccessControl.sol\":5471:5481  _msgSender */\n      tag_156\n        /* \"@openzeppelin/contracts@4.4.2/access/AccessControl.sol\":5471:5483  _msgSender() */\n      jump\t// in\n    tag_162:\n        /* \"@openzeppelin/contracts@4.4.2/access/AccessControl.sol\":5460:5483  account == _msgSender() */\n      0xffffffffffffffffffffffffffffffffffffffff\n      and\n        /* \"@openzeppelin/contracts@4.4.2/access/AccessControl.sol\":5460:5467  account */\n      dup2\n        /* \"@openzeppelin/contracts@4.4.2/access/AccessControl.sol\":5460:5483  account == _msgSender() */\n      0xffffffffffffffffffffffffffffffffffffffff\n      and\n      eq\n        /* \"@openzeppelin/contracts@4.4.2/access/AccessControl.sol\":5452:5535  require(account == _msgSender(), \"AccessControl: can only renounce roles for self\") */\n      tag_163\n      jumpi\n      mload(0x40)\n      0x08c379a000000000000000000000000000000000000000000000000000000000\n      dup2\n      mstore\n      0x04\n      add\n      tag_164\n      swap1\n      tag_165\n      jump\t// in\n    tag_164:\n      mload(0x40)\n      dup1\n      swap2\n      sub\n      swap1\n      revert\n    tag_163:\n        /* \"@openzeppelin/contracts@4.4.2/access/AccessControl.sol\":5546:5572  _revokeRole(role, account) */\n      tag_166\n        /* \"@openzeppelin/contracts@4.4.2/access/AccessControl.sol\":5558:5562  role */\n      dup3\n        /* \"@openzeppelin/contracts@4.4.2/access/AccessControl.sol\":5564:5571  account */\n      dup3\n        /* \"@openzeppelin/contracts@4.4.2/access/AccessControl.sol\":5546:5557  _revokeRole */\n      tag_167\n        /* \"@openzeppelin/contracts@4.4.2/access/AccessControl.sol\":5546:5572  _revokeRole(role, account) */\n      jump\t// in\n    tag_166:\n        /* \"@openzeppelin/contracts@4.4.2/access/AccessControl.sol\":5365:5579  function renounceRole(bytes32 role, address account) public virtual override {... */\n      pop\n      pop\n      jump\t// out\n        /* \"contracts/Founding Citizens NFT Sale.sol\":6564:6768  function updateAndCalculateCustomPrice(address prospectiveBuyer, uint discountRate) \r... */\n    tag_58:\n        /* \"contracts/Founding Citizens NFT Sale.sol\":6684:6688  uint */\n      0x00\n        /* \"contracts/Founding Citizens NFT Sale.sol\":3870:3883  updateState() */\n      tag_169\n        /* \"contracts/Founding Citizens NFT Sale.sol\":3870:3881  updateState */\n      tag_136\n        /* \"contracts/Founding Citizens NFT Sale.sol\":3870:3883  updateState() */\n      jump\t// in\n    tag_169:\n        /* \"contracts/Founding Citizens NFT Sale.sol\":6708:6760  calculateCustomPrice(prospectiveBuyer, discountRate) */\n      tag_171\n        /* \"contracts/Founding Citizens NFT Sale.sol\":6729:6745  prospectiveBuyer */\n      dup4\n        /* \"contracts/Founding Citizens NFT Sale.sol\":6747:6759  discountRate */\n      dup4\n        /* \"contracts/Founding Citizens NFT Sale.sol\":6708:6728  calculateCustomPrice */\n      tag_101\n        /* \"contracts/Founding Citizens NFT Sale.sol\":6708:6760  calculateCustomPrice(prospectiveBuyer, discountRate) */\n      jump\t// in\n    tag_171:\n        /* \"contracts/Founding Citizens NFT Sale.sol\":6701:6760  return calculateCustomPrice(prospectiveBuyer, discountRate) */\n      swap1\n      pop\n        /* \"contracts/Founding Citizens NFT Sale.sol\":6564:6768  function updateAndCalculateCustomPrice(address prospectiveBuyer, uint discountRate) \r... */\n      swap3\n      swap2\n      pop\n      pop\n      jump\t// out\n        /* \"contracts/Founding Citizens NFT Sale.sol\":5403:5530  function getMaxSupply() public view returns(uint) {\r... */\n    tag_62:\n        /* \"contracts/Founding Citizens NFT Sale.sol\":5447:5451  uint */\n      0x00\n        /* \"contracts/Founding Citizens NFT Sale.sol\":5484:5506  ERC1155storageContract */\n      0x01\n      0x00\n      swap1\n      sload\n      swap1\n      0x0100\n      exp\n      swap1\n      div\n      0xffffffffffffffffffffffffffffffffffffffff\n      and\n        /* \"contracts/Founding Citizens NFT Sale.sol\":5471:5520  IMintStorage(ERC1155storageContract).getMaxSupply */\n      0xffffffffffffffffffffffffffffffffffffffff\n      and\n      0x4c0f38c2\n        /* \"contracts/Founding Citizens NFT Sale.sol\":5471:5522  IMintStorage(ERC1155storageContract).getMaxSupply() */\n      mload(0x40)\n      dup2\n      0xffffffff\n      and\n      0xe0\n      shl\n      dup2\n      mstore\n      0x04\n      add\n      0x20\n      mload(0x40)\n      dup1\n      dup4\n      sub\n      dup2\n      dup7\n      dup1\n      extcodesize\n      iszero\n      dup1\n      iszero\n      tag_173\n      jumpi\n      0x00\n      dup1\n      revert\n    tag_173:\n      pop\n      gas\n      staticcall\n      iszero\n      dup1\n      iszero\n      tag_175\n      jumpi\n      returndatasize\n      0x00\n      dup1\n      returndatacopy\n      revert(0x00, returndatasize)\n    tag_175:\n      pop\n      pop\n      pop\n      pop\n      mload(0x40)\n      returndatasize\n      not(0x1f)\n      0x1f\n      dup3\n      add\n      and\n      dup3\n      add\n      dup1\n      0x40\n      mstore\n      pop\n      dup2\n      add\n      swap1\n      tag_176\n      swap2\n      swap1\n      tag_177\n      jump\t// in\n    tag_176:\n        /* \"contracts/Founding Citizens NFT Sale.sol\":5464:5522  return IMintStorage(ERC1155storageContract).getMaxSupply() */\n      swap1\n      pop\n        /* \"contracts/Founding Citizens NFT Sale.sol\":5403:5530  function getMaxSupply() public view returns(uint) {\r... */\n      swap1\n      jump\t// out\n        /* \"contracts/Founding Citizens NFT Sale.sol\":7101:7271  function buyNftWithDiscount(uint discountRate) public pushesUpdate {\r... */\n    tag_67:\n        /* \"contracts/Founding Citizens NFT Sale.sol\":3870:3883  updateState() */\n      tag_179\n        /* \"contracts/Founding Citizens NFT Sale.sol\":3870:3881  updateState */\n      tag_136\n        /* \"contracts/Founding Citizens NFT Sale.sol\":3870:3883  updateState() */\n      jump\t// in\n    tag_179:\n        /* \"contracts/Founding Citizens NFT Sale.sol\":7179:7189  uint price */\n      0x00\n        /* \"contracts/Founding Citizens NFT Sale.sol\":7192:7238  calculateCustomPrice(msg.sender, discountRate) */\n      tag_181\n        /* \"contracts/Founding Citizens NFT Sale.sol\":7213:7223  msg.sender */\n      caller\n        /* \"contracts/Founding Citizens NFT Sale.sol\":7225:7237  discountRate */\n      dup4\n        /* \"contracts/Founding Citizens NFT Sale.sol\":7192:7212  calculateCustomPrice */\n      tag_101\n        /* \"contracts/Founding Citizens NFT Sale.sol\":7192:7238  calculateCustomPrice(msg.sender, discountRate) */\n      jump\t// in\n    tag_181:\n        /* \"contracts/Founding Citizens NFT Sale.sol\":7179:7238  uint price = calculateCustomPrice(msg.sender, discountRate) */\n      swap1\n      pop\n        /* \"contracts/Founding Citizens NFT Sale.sol\":7249:7263  _buyNFT(price) */\n      tag_182\n        /* \"contracts/Founding Citizens NFT Sale.sol\":7257:7262  price */\n      dup2\n        /* \"contracts/Founding Citizens NFT Sale.sol\":7249:7256  _buyNFT */\n      tag_183\n        /* \"contracts/Founding Citizens NFT Sale.sol\":7249:7263  _buyNFT(price) */\n      jump\t// in\n    tag_182:\n        /* \"contracts/Founding Citizens NFT Sale.sol\":3894:3895  _ */\n      pop\n        /* \"contracts/Founding Citizens NFT Sale.sol\":7101:7271  function buyNftWithDiscount(uint discountRate) public pushesUpdate {\r... */\n      pop\n      jump\t// out\n        /* \"contracts/Founding Citizens NFT Sale.sol\":4588:4755  function setStorageContractAddress(address storageAddress) public onlyRole(DEFAULT_ADMIN_ROLE) {\r... */\n    tag_71:\n        /* \"@openzeppelin/contracts@4.4.2/access/AccessControl.sol\":2057:2061  0x00 */\n      0x00\n        /* \"contracts/Founding Citizens NFT Sale.sol\":4663:4681  DEFAULT_ADMIN_ROLE */\n      dup1\n      shl\n        /* \"@openzeppelin/contracts@4.4.2/access/AccessControl.sol\":2490:2520  _checkRole(role, _msgSender()) */\n      tag_185\n        /* \"@openzeppelin/contracts@4.4.2/access/AccessControl.sol\":2501:2505  role */\n      dup2\n        /* \"@openzeppelin/contracts@4.4.2/access/AccessControl.sol\":2507:2519  _msgSender() */\n      tag_186\n        /* \"@openzeppelin/contracts@4.4.2/access/AccessControl.sol\":2507:2517  _msgSender */\n      tag_156\n        /* \"@openzeppelin/contracts@4.4.2/access/AccessControl.sol\":2507:2519  _msgSender() */\n      jump\t// in\n    tag_186:\n        /* \"@openzeppelin/contracts@4.4.2/access/AccessControl.sol\":2490:2500  _checkRole */\n      tag_157\n        /* \"@openzeppelin/contracts@4.4.2/access/AccessControl.sol\":2490:2520  _checkRole(role, _msgSender()) */\n      jump\t// in\n    tag_185:\n        /* \"contracts/Founding Citizens NFT Sale.sol\":4732:4746  storageAddress */\n      dup2\n        /* \"contracts/Founding Citizens NFT Sale.sol\":4694:4716  ERC1155storageContract */\n      0x01\n      0x00\n        /* \"contracts/Founding Citizens NFT Sale.sol\":4694:4747  ERC1155storageContract = IMintStorage(storageAddress) */\n      0x0100\n      exp\n      dup2\n      sload\n      dup2\n      0xffffffffffffffffffffffffffffffffffffffff\n      mul\n      not\n      and\n      swap1\n      dup4\n      0xffffffffffffffffffffffffffffffffffffffff\n      and\n      mul\n      or\n      swap1\n      sstore\n      pop\n        /* \"contracts/Founding Citizens NFT Sale.sol\":4588:4755  function setStorageContractAddress(address storageAddress) public onlyRole(DEFAULT_ADMIN_ROLE) {\r... */\n      pop\n      pop\n      jump\t// out\n        /* \"contracts/Founding Citizens NFT Sale.sol\":3096:3170  bytes32 public constant SALE_MANAGER_ROLE = keccak256(\"SALE_MANAGER_ROLE\") */\n    tag_73:\n        /* \"contracts/Founding Citizens NFT Sale.sol\":3140:3170  keccak256(\"SALE_MANAGER_ROLE\") */\n      0x988301af8238f779281a300de031815cd01b48e9f1ae47a0f91ed6584213624a\n        /* \"contracts/Founding Citizens NFT Sale.sol\":3096:3170  bytes32 public constant SALE_MANAGER_ROLE = keccak256(\"SALE_MANAGER_ROLE\") */\n      dup2\n      jump\t// out\n        /* \"contracts/Founding Citizens NFT Sale.sol\":2871:2919  IPrivilegedListStorage public privilgedBuyerList */\n    tag_76:\n      0x02\n      0x00\n      swap1\n      sload\n      swap1\n      0x0100\n      exp\n      swap1\n      div\n      0xffffffffffffffffffffffffffffffffffffffff\n      and\n      dup2\n      jump\t// out\n        /* \"contracts/Founding Citizens NFT Sale.sol\":3017:3089  bytes32 public constant URI_MANAGER_ROLE = keccak256(\"URI_MANAGER_ROLE\") */\n    tag_80:\n        /* \"contracts/Founding Citizens NFT Sale.sol\":3060:3089  keccak256(\"URI_MANAGER_ROLE\") */\n      0xa70a2d8710fed9f014c8c2af50c7c2f6b25748ae4cded822e03b7beed44cf3a8\n        /* \"contracts/Founding Citizens NFT Sale.sol\":3017:3089  bytes32 public constant URI_MANAGER_ROLE = keccak256(\"URI_MANAGER_ROLE\") */\n      dup2\n      jump\t// out\n        /* \"contracts/Founding Citizens NFT Sale.sol\":5256:5395  function getNextUnusedToken() public view returns(uint) {\r... */\n    tag_83:\n        /* \"contracts/Founding Citizens NFT Sale.sol\":5306:5310  uint */\n      0x00\n        /* \"contracts/Founding Citizens NFT Sale.sol\":5343:5365  ERC1155storageContract */\n      0x01\n      0x00\n      swap1\n      sload\n      swap1\n      0x0100\n      exp\n      swap1\n      div\n      0xffffffffffffffffffffffffffffffffffffffff\n      and\n        /* \"contracts/Founding Citizens NFT Sale.sol\":5330:5385  IMintStorage(ERC1155storageContract).getNextUnusedToken */\n      0xffffffffffffffffffffffffffffffffffffffff\n      and\n      0x68fc01a2\n        /* \"contracts/Founding Citizens NFT Sale.sol\":5330:5387  IMintStorage(ERC1155storageContract).getNextUnusedToken() */\n      mload(0x40)\n      dup2\n      0xffffffff\n      and\n      0xe0\n      shl\n      dup2\n      mstore\n      0x04\n      add\n      0x20\n      mload(0x40)\n      dup1\n      dup4\n      sub\n      dup2\n      dup7\n      dup1\n      extcodesize\n      iszero\n      dup1\n      iszero\n      tag_189\n      jumpi\n      0x00\n      dup1\n      revert\n    tag_189:\n      pop\n      gas\n      staticcall\n      iszero\n      dup1\n      iszero\n      tag_191\n      jumpi\n      returndatasize\n      0x00\n      dup1\n      returndatacopy\n      revert(0x00, returndatasize)\n    tag_191:\n      pop\n      pop\n      pop\n      pop\n      mload(0x40)\n      returndatasize\n      not(0x1f)\n      0x1f\n      dup3\n      add\n      and\n      dup3\n      add\n      dup1\n      0x40\n      mstore\n      pop\n      dup2\n      add\n      swap1\n      tag_192\n      swap2\n      swap1\n      tag_177\n      jump\t// in\n    tag_192:\n        /* \"contracts/Founding Citizens NFT Sale.sol\":5323:5387  return IMintStorage(ERC1155storageContract).getNextUnusedToken() */\n      swap1\n      pop\n        /* \"contracts/Founding Citizens NFT Sale.sol\":5256:5395  function getNextUnusedToken() public view returns(uint) {\r... */\n      swap1\n      jump\t// out\n        /* \"contracts/Founding Citizens NFT Sale.sol\":2822:2864  IMintStorage public ERC1155storageContract */\n    tag_86:\n      0x01\n      0x00\n      swap1\n      sload\n      swap1\n      0x0100\n      exp\n      swap1\n      div\n      0xffffffffffffffffffffffffffffffffffffffff\n      and\n      dup2\n      jump\t// out\n        /* \"@openzeppelin/contracts@4.4.2/access/AccessControl.sol\":2894:3031  function hasRole(bytes32 role, address account) public view override returns (bool) {... */\n    tag_91:\n        /* \"@openzeppelin/contracts@4.4.2/access/AccessControl.sol\":2972:2976  bool */\n      0x00\n        /* \"@openzeppelin/contracts@4.4.2/access/AccessControl.sol\":2995:3001  _roles */\n      dup1\n        /* \"@openzeppelin/contracts@4.4.2/access/AccessControl.sol\":2995:3007  _roles[role] */\n      0x00\n        /* \"@openzeppelin/contracts@4.4.2/access/AccessControl.sol\":3002:3006  role */\n      dup5\n        /* \"@openzeppelin/contracts@4.4.2/access/AccessControl.sol\":2995:3007  _roles[role] */\n      dup2\n      mstore\n      0x20\n      add\n      swap1\n      dup2\n      mstore\n      0x20\n      add\n      0x00\n      keccak256\n        /* \"@openzeppelin/contracts@4.4.2/access/AccessControl.sol\":2995:3015  _roles[role].members */\n      0x00\n      add\n        /* \"@openzeppelin/contracts@4.4.2/access/AccessControl.sol\":2995:3024  _roles[role].members[account] */\n      0x00\n        /* \"@openzeppelin/contracts@4.4.2/access/AccessControl.sol\":3016:3023  account */\n      dup4\n        /* \"@openzeppelin/contracts@4.4.2/access/AccessControl.sol\":2995:3024  _roles[role].members[account] */\n      0xffffffffffffffffffffffffffffffffffffffff\n      and\n      0xffffffffffffffffffffffffffffffffffffffff\n      and\n      dup2\n      mstore\n      0x20\n      add\n      swap1\n      dup2\n      mstore\n      0x20\n      add\n      0x00\n      keccak256\n      0x00\n      swap1\n      sload\n      swap1\n      0x0100\n      exp\n      swap1\n      div\n      0xff\n      and\n        /* \"@openzeppelin/contracts@4.4.2/access/AccessControl.sol\":2988:3024  return _roles[role].members[account] */\n      swap1\n      pop\n        /* \"@openzeppelin/contracts@4.4.2/access/AccessControl.sol\":2894:3031  function hasRole(bytes32 role, address account) public view override returns (bool) {... */\n      swap3\n      swap2\n      pop\n      pop\n      jump\t// out\n        /* \"contracts/Founding Citizens NFT Sale.sol\":5538:5816  function setstartTime(uint unixTime) public {\r... */\n    tag_95:\n        /* \"contracts/Founding Citizens NFT Sale.sol\":5615:5655  hasRole(SALE_MANAGER_ROLE, _msgSender()) */\n      tag_195\n        /* \"contracts/Founding Citizens NFT Sale.sol\":3140:3170  keccak256(\"SALE_MANAGER_ROLE\") */\n      0x988301af8238f779281a300de031815cd01b48e9f1ae47a0f91ed6584213624a\n        /* \"contracts/Founding Citizens NFT Sale.sol\":5642:5654  _msgSender() */\n      tag_196\n        /* \"contracts/Founding Citizens NFT Sale.sol\":5642:5652  _msgSender */\n      tag_156\n        /* \"contracts/Founding Citizens NFT Sale.sol\":5642:5654  _msgSender() */\n      jump\t// in\n    tag_196:\n        /* \"contracts/Founding Citizens NFT Sale.sol\":5615:5622  hasRole */\n      tag_91\n        /* \"contracts/Founding Citizens NFT Sale.sol\":5615:5655  hasRole(SALE_MANAGER_ROLE, _msgSender()) */\n      jump\t// in\n    tag_195:\n        /* \"contracts/Founding Citizens NFT Sale.sol\":5615:5714  hasRole(SALE_MANAGER_ROLE, _msgSender()) || \r... */\n      dup1\n      tag_197\n      jumpi\n      pop\n        /* \"contracts/Founding Citizens NFT Sale.sol\":5673:5714  hasRole(DEFAULT_ADMIN_ROLE, _msgSender()) */\n      tag_198\n        /* \"@openzeppelin/contracts@4.4.2/access/AccessControl.sol\":2057:2061  0x00 */\n      0x00\n        /* \"contracts/Founding Citizens NFT Sale.sol\":5681:5699  DEFAULT_ADMIN_ROLE */\n      dup1\n      shl\n        /* \"contracts/Founding Citizens NFT Sale.sol\":5701:5713  _msgSender() */\n      tag_199\n        /* \"contracts/Founding Citizens NFT Sale.sol\":5701:5711  _msgSender */\n      tag_156\n        /* \"contracts/Founding Citizens NFT Sale.sol\":5701:5713  _msgSender() */\n      jump\t// in\n    tag_199:\n        /* \"contracts/Founding Citizens NFT Sale.sol\":5673:5680  hasRole */\n      tag_91\n        /* \"contracts/Founding Citizens NFT Sale.sol\":5673:5714  hasRole(DEFAULT_ADMIN_ROLE, _msgSender()) */\n      jump\t// in\n    tag_198:\n        /* \"contracts/Founding Citizens NFT Sale.sol\":5615:5714  hasRole(SALE_MANAGER_ROLE, _msgSender()) || \r... */\n    tag_197:\n        /* \"contracts/Founding Citizens NFT Sale.sol\":5593:5777  require(\r... */\n      tag_200\n      jumpi\n      mload(0x40)\n      0x08c379a000000000000000000000000000000000000000000000000000000000\n      dup2\n      mstore\n      0x04\n      add\n      tag_201\n      swap1\n      tag_202\n      jump\t// in\n    tag_201:\n      mload(0x40)\n      dup1\n      swap2\n      sub\n      swap1\n      revert\n    tag_200:\n        /* \"contracts/Founding Citizens NFT Sale.sol\":5800:5808  unixTime */\n      dup1\n        /* \"contracts/Founding Citizens NFT Sale.sol\":5788:5797  startTime */\n      0x05\n        /* \"contracts/Founding Citizens NFT Sale.sol\":5788:5808  startTime = unixTime */\n      dup2\n      swap1\n      sstore\n      pop\n        /* \"contracts/Founding Citizens NFT Sale.sol\":5538:5816  function setstartTime(uint unixTime) public {\r... */\n      pop\n      jump\t// out\n        /* \"@openzeppelin/contracts@4.4.2/access/AccessControl.sol\":2012:2061  bytes32 public constant DEFAULT_ADMIN_ROLE = 0x00 */\n    tag_97:\n        /* \"@openzeppelin/contracts@4.4.2/access/AccessControl.sol\":2057:2061  0x00 */\n      0x00\n        /* \"@openzeppelin/contracts@4.4.2/access/AccessControl.sol\":2012:2061  bytes32 public constant DEFAULT_ADMIN_ROLE = 0x00 */\n      dup1\n      shl\n      dup2\n      jump\t// out\n        /* \"contracts/Founding Citizens NFT Sale.sol\":6106:6556  function calculateCustomPrice(address prospectiveBuyer, uint discountRate) \r... */\n    tag_101:\n        /* \"contracts/Founding Citizens NFT Sale.sol\":6222:6226  uint */\n      0x00\n        /* \"contracts/Founding Citizens NFT Sale.sol\":3760:3775  block.timestamp */\n      timestamp\n        /* \"contracts/Founding Citizens NFT Sale.sol\":3741:3751  lastUpdate */\n      0x09\n        /* \"contracts/Founding Citizens NFT Sale.sol\":3741:3756  lastUpdate.time */\n      0x01\n      add\n      sload\n        /* \"contracts/Founding Citizens NFT Sale.sol\":3741:3775  lastUpdate.time == block.timestamp */\n      eq\n        /* \"contracts/Founding Citizens NFT Sale.sol\":3733:3807  require(lastUpdate.time == block.timestamp, \"timestamp is not up-to-date\") */\n      tag_204\n      jumpi\n      mload(0x40)\n      0x08c379a000000000000000000000000000000000000000000000000000000000\n      dup2\n      mstore\n      0x04\n      add\n      tag_205\n      swap1\n      tag_206\n      jump\t// in\n    tag_205:\n      mload(0x40)\n      dup1\n      swap2\n      sub\n      swap1\n      revert\n    tag_204:\n        /* \"contracts/Founding Citizens NFT Sale.sol\":6247:6265  privilgedBuyerList */\n      0x02\n      0x00\n      swap1\n      sload\n      swap1\n      0x0100\n      exp\n      swap1\n      div\n      0xffffffffffffffffffffffffffffffffffffffff\n      and\n        /* \"contracts/Founding Citizens NFT Sale.sol\":6247:6282  privilgedBuyerList.addressHasCoupon */\n      0xffffffffffffffffffffffffffffffffffffffff\n      and\n      0x2080179d\n        /* \"contracts/Founding Citizens NFT Sale.sol\":6283:6299  prospectiveBuyer */\n      dup5\n        /* \"contracts/Founding Citizens NFT Sale.sol\":6301:6313  discountRate */\n      dup5\n        /* \"contracts/Founding Citizens NFT Sale.sol\":6247:6314  privilgedBuyerList.addressHasCoupon(prospectiveBuyer, discountRate) */\n      mload(0x40)\n      dup4\n      0xffffffff\n      and\n      0xe0\n      shl\n      dup2\n      mstore\n      0x04\n      add\n      tag_208\n      swap3\n      swap2\n      swap1\n      tag_209\n      jump\t// in\n    tag_208:\n      0x20\n      mload(0x40)\n      dup1\n      dup4\n      sub\n      dup2\n      dup7\n      dup1\n      extcodesize\n      iszero\n      dup1\n      iszero\n      tag_210\n      jumpi\n      0x00\n      dup1\n      revert\n    tag_210:\n      pop\n      gas\n      staticcall\n      iszero\n      dup1\n      iszero\n      tag_212\n      jumpi\n      returndatasize\n      0x00\n      dup1\n      returndatacopy\n      revert(0x00, returndatasize)\n    tag_212:\n      pop\n      pop\n      pop\n      pop\n      mload(0x40)\n      returndatasize\n      not(0x1f)\n      0x1f\n      dup3\n      add\n      and\n      dup3\n      add\n      dup1\n      0x40\n      mstore\n      pop\n      dup2\n      add\n      swap1\n      tag_213\n      swap2\n      swap1\n      tag_214\n      jump\t// in\n    tag_213:\n        /* \"contracts/Founding Citizens NFT Sale.sol\":6366:6382  prospectiveBuyer */\n      dup4\n        /* \"contracts/Founding Citizens NFT Sale.sol\":6436:6448  discountRate */\n      dup4\n        /* \"contracts/Founding Citizens NFT Sale.sol\":6323:6454  abi.encodePacked(\r... */\n      add(0x20, mload(0x40))\n      tag_215\n      swap3\n      swap2\n      swap1\n      tag_216\n      jump\t// in\n    tag_215:\n      mload(0x40)\n      0x20\n      dup2\n      dup4\n      sub\n      sub\n      dup2\n      mstore\n      swap1\n      0x40\n      mstore\n        /* \"contracts/Founding Citizens NFT Sale.sol\":6239:6456  require(privilgedBuyerList.addressHasCoupon(prospectiveBuyer, discountRate), string(abi.encodePacked(\r... */\n      swap1\n      tag_217\n      jumpi\n      mload(0x40)\n      0x08c379a000000000000000000000000000000000000000000000000000000000\n      dup2\n      mstore\n      0x04\n      add\n      tag_218\n      swap2\n      swap1\n      tag_219\n      jump\t// in\n    tag_218:\n      mload(0x40)\n      dup1\n      swap2\n      sub\n      swap1\n      revert\n    tag_217:\n      pop\n        /* \"contracts/Founding Citizens NFT Sale.sol\":6467:6477  uint price */\n      0x00\n        /* \"contracts/Founding Citizens NFT Sale.sol\":6512:6524  discountRate */\n      dup3\n        /* \"contracts/Founding Citizens NFT Sale.sol\":6506:6509  100 */\n      0x64\n        /* \"contracts/Founding Citizens NFT Sale.sol\":6506:6524  100 - discountRate */\n      tag_220\n      swap2\n      swap1\n      tag_144\n      jump\t// in\n    tag_220:\n        /* \"contracts/Founding Citizens NFT Sale.sol\":6499:6502  100 */\n      0x64\n        /* \"contracts/Founding Citizens NFT Sale.sol\":6480:6490  lastUpdate */\n      0x09\n        /* \"contracts/Founding Citizens NFT Sale.sol\":6480:6496  lastUpdate.price */\n      0x00\n      add\n      sload\n        /* \"contracts/Founding Citizens NFT Sale.sol\":6480:6502  lastUpdate.price / 100 */\n      tag_221\n      swap2\n      swap1\n      tag_222\n      jump\t// in\n    tag_221:\n        /* \"contracts/Founding Citizens NFT Sale.sol\":6480:6525  lastUpdate.price / 100 * (100 - discountRate) */\n      tag_223\n      swap2\n      swap1\n      tag_224\n      jump\t// in\n    tag_223:\n        /* \"contracts/Founding Citizens NFT Sale.sol\":6467:6525  uint price = lastUpdate.price / 100 * (100 - discountRate) */\n      swap1\n      pop\n        /* \"contracts/Founding Citizens NFT Sale.sol\":6543:6548  price */\n      dup1\n        /* \"contracts/Founding Citizens NFT Sale.sol\":6536:6548  return price */\n      swap2\n      pop\n      pop\n        /* \"contracts/Founding Citizens NFT Sale.sol\":6106:6556  function calculateCustomPrice(address prospectiveBuyer, uint discountRate) \r... */\n      swap3\n      swap2\n      pop\n      pop\n      jump\t// out\n        /* \"contracts/Founding Citizens NFT Sale.sol\":6948:7093  function buyNFT() public pushesUpdate { //requires using existing balance\r... */\n    tag_104:\n        /* \"contracts/Founding Citizens NFT Sale.sol\":3870:3883  updateState() */\n      tag_226\n        /* \"contracts/Founding Citizens NFT Sale.sol\":3870:3881  updateState */\n      tag_136\n        /* \"contracts/Founding Citizens NFT Sale.sol\":3870:3883  updateState() */\n      jump\t// in\n    tag_226:\n        /* \"contracts/Founding Citizens NFT Sale.sol\":7031:7041  uint price */\n      0x00\n        /* \"contracts/Founding Citizens NFT Sale.sol\":7044:7054  lastUpdate */\n      0x09\n        /* \"contracts/Founding Citizens NFT Sale.sol\":7044:7060  lastUpdate.price */\n      0x00\n      add\n      sload\n        /* \"contracts/Founding Citizens NFT Sale.sol\":7031:7060  uint price = lastUpdate.price */\n      swap1\n      pop\n        /* \"contracts/Founding Citizens NFT Sale.sol\":7071:7085  _buyNFT(price) */\n      tag_228\n        /* \"contracts/Founding Citizens NFT Sale.sol\":7079:7084  price */\n      dup2\n        /* \"contracts/Founding Citizens NFT Sale.sol\":7071:7078  _buyNFT */\n      tag_183\n        /* \"contracts/Founding Citizens NFT Sale.sol\":7071:7085  _buyNFT(price) */\n      jump\t// in\n    tag_228:\n        /* \"contracts/Founding Citizens NFT Sale.sol\":3894:3895  _ */\n      pop\n        /* \"contracts/Founding Citizens NFT Sale.sol\":6948:7093  function buyNFT() public pushesUpdate { //requires using existing balance\r... */\n      jump\t// out\n        /* \"contracts/Founding Citizens NFT Sale.sol\":3623:3687  Update public lastUpdate = Update(10000, block.timestamp, false) */\n    tag_106:\n      0x09\n      dup1\n      0x00\n      add\n      sload\n      swap1\n      dup1\n      0x01\n      add\n      sload\n      swap1\n      dup1\n      0x02\n      add\n      0x00\n      swap1\n      sload\n      swap1\n      0x0100\n      exp\n      swap1\n      div\n      0xff\n      and\n      swap1\n      pop\n      dup4\n      jump\t// out\n        /* \"contracts/Founding Citizens NFT Sale.sol\":2926:2971  IUsdcStorage public usdcEscrowStorageContract */\n    tag_110:\n      0x03\n      0x00\n      swap1\n      sload\n      swap1\n      0x0100\n      exp\n      swap1\n      div\n      0xffffffffffffffffffffffffffffffffffffffff\n      and\n      dup2\n      jump\t// out\n        /* \"contracts/Founding Citizens NFT Sale.sol\":2978:3008  address public treasuryAddress */\n    tag_114:\n      0x04\n      0x00\n      swap1\n      sload\n      swap1\n      0x0100\n      exp\n      swap1\n      div\n      0xffffffffffffffffffffffffffffffffffffffff\n      and\n      dup2\n      jump\t// out\n        /* \"contracts/Founding Citizens NFT Sale.sol\":5824:6098  function setEndTime(uint unixTime) public {\r... */\n    tag_119:\n        /* \"contracts/Founding Citizens NFT Sale.sol\":5899:5939  hasRole(SALE_MANAGER_ROLE, _msgSender()) */\n      tag_230\n        /* \"contracts/Founding Citizens NFT Sale.sol\":3140:3170  keccak256(\"SALE_MANAGER_ROLE\") */\n      0x988301af8238f779281a300de031815cd01b48e9f1ae47a0f91ed6584213624a\n        /* \"contracts/Founding Citizens NFT Sale.sol\":5926:5938  _msgSender() */\n      tag_231\n        /* \"contracts/Founding Citizens NFT Sale.sol\":5926:5936  _msgSender */\n      tag_156\n        /* \"contracts/Founding Citizens NFT Sale.sol\":5926:5938  _msgSender() */\n      jump\t// in\n    tag_231:\n        /* \"contracts/Founding Citizens NFT Sale.sol\":5899:5906  hasRole */\n      tag_91\n        /* \"contracts/Founding Citizens NFT Sale.sol\":5899:5939  hasRole(SALE_MANAGER_ROLE, _msgSender()) */\n      jump\t// in\n    tag_230:\n        /* \"contracts/Founding Citizens NFT Sale.sol\":5899:5998  hasRole(SALE_MANAGER_ROLE, _msgSender()) || \r... */\n      dup1\n      tag_232\n      jumpi\n      pop\n        /* \"contracts/Founding Citizens NFT Sale.sol\":5957:5998  hasRole(DEFAULT_ADMIN_ROLE, _msgSender()) */\n      tag_233\n        /* \"@openzeppelin/contracts@4.4.2/access/AccessControl.sol\":2057:2061  0x00 */\n      0x00\n        /* \"contracts/Founding Citizens NFT Sale.sol\":5965:5983  DEFAULT_ADMIN_ROLE */\n      dup1\n      shl\n        /* \"contracts/Founding Citizens NFT Sale.sol\":5985:5997  _msgSender() */\n      tag_234\n        /* \"contracts/Founding Citizens NFT Sale.sol\":5985:5995  _msgSender */\n      tag_156\n        /* \"contracts/Founding Citizens NFT Sale.sol\":5985:5997  _msgSender() */\n      jump\t// in\n    tag_234:\n        /* \"contracts/Founding Citizens NFT Sale.sol\":5957:5964  hasRole */\n      tag_91\n        /* \"contracts/Founding Citizens NFT Sale.sol\":5957:5998  hasRole(DEFAULT_ADMIN_ROLE, _msgSender()) */\n      jump\t// in\n    tag_233:\n        /* \"contracts/Founding Citizens NFT Sale.sol\":5899:5998  hasRole(SALE_MANAGER_ROLE, _msgSender()) || \r... */\n    tag_232:\n        /* \"contracts/Founding Citizens NFT Sale.sol\":5877:6061  require(\r... */\n      tag_235\n      jumpi\n      mload(0x40)\n      0x08c379a000000000000000000000000000000000000000000000000000000000\n      dup2\n      mstore\n      0x04\n      add\n      tag_236\n      swap1\n      tag_202\n      jump\t// in\n    tag_236:\n      mload(0x40)\n      dup1\n      swap2\n      sub\n      swap1\n      revert\n    tag_235:\n        /* \"contracts/Founding Citizens NFT Sale.sol\":6082:6090  unixTime */\n      dup1\n        /* \"contracts/Founding Citizens NFT Sale.sol\":6072:6079  endTime */\n      0x06\n        /* \"contracts/Founding Citizens NFT Sale.sol\":6072:6090  endTime = unixTime */\n      dup2\n      swap1\n      sstore\n      pop\n        /* \"contracts/Founding Citizens NFT Sale.sol\":5824:6098  function setEndTime(uint unixTime) public {\r... */\n      pop\n      jump\t// out\n        /* \"@openzeppelin/contracts@4.4.2/access/AccessControl.sol\":4727:4874  function revokeRole(bytes32 role, address account) public virtual override onlyRole(getRoleAdmin(role)) {... */\n    tag_122:\n        /* \"@openzeppelin/contracts@4.4.2/access/AccessControl.sol\":4811:4829  getRoleAdmin(role) */\n      tag_237\n        /* \"@openzeppelin/contracts@4.4.2/access/AccessControl.sol\":4824:4828  role */\n      dup3\n        /* \"@openzeppelin/contracts@4.4.2/access/AccessControl.sol\":4811:4823  getRoleAdmin */\n      tag_43\n        /* \"@openzeppelin/contracts@4.4.2/access/AccessControl.sol\":4811:4829  getRoleAdmin(role) */\n      jump\t// in\n    tag_237:\n        /* \"@openzeppelin/contracts@4.4.2/access/AccessControl.sol\":2490:2520  _checkRole(role, _msgSender()) */\n      tag_239\n        /* \"@openzeppelin/contracts@4.4.2/access/AccessControl.sol\":2501:2505  role */\n      dup2\n        /* \"@openzeppelin/contracts@4.4.2/access/AccessControl.sol\":2507:2519  _msgSender() */\n      tag_240\n        /* \"@openzeppelin/contracts@4.4.2/access/AccessControl.sol\":2507:2517  _msgSender */\n      tag_156\n        /* \"@openzeppelin/contracts@4.4.2/access/AccessControl.sol\":2507:2519  _msgSender() */\n      jump\t// in\n    tag_240:\n        /* \"@openzeppelin/contracts@4.4.2/access/AccessControl.sol\":2490:2500  _checkRole */\n      tag_157\n        /* \"@openzeppelin/contracts@4.4.2/access/AccessControl.sol\":2490:2520  _checkRole(role, _msgSender()) */\n      jump\t// in\n    tag_239:\n        /* \"@openzeppelin/contracts@4.4.2/access/AccessControl.sol\":4841:4867  _revokeRole(role, account) */\n      tag_242\n        /* \"@openzeppelin/contracts@4.4.2/access/AccessControl.sol\":4853:4857  role */\n      dup4\n        /* \"@openzeppelin/contracts@4.4.2/access/AccessControl.sol\":4859:4866  account */\n      dup4\n        /* \"@openzeppelin/contracts@4.4.2/access/AccessControl.sol\":4841:4852  _revokeRole */\n      tag_167\n        /* \"@openzeppelin/contracts@4.4.2/access/AccessControl.sol\":4841:4867  _revokeRole(role, account) */\n      jump\t// in\n    tag_242:\n        /* \"@openzeppelin/contracts@4.4.2/access/AccessControl.sol\":4727:4874  function revokeRole(bytes32 role, address account) public virtual override onlyRole(getRoleAdmin(role)) {... */\n      pop\n      pop\n      pop\n      jump\t// out\n        /* \"contracts/Founding Citizens NFT Sale.sol\":4902:5248  function preLoadURIs(uint[] memory ids, string[] memory uris) \r... */\n    tag_126:\n        /* \"contracts/Founding Citizens NFT Sale.sol\":5010:5049  hasRole(URI_MANAGER_ROLE, _msgSender()) */\n      tag_244\n        /* \"contracts/Founding Citizens NFT Sale.sol\":3060:3089  keccak256(\"URI_MANAGER_ROLE\") */\n      0xa70a2d8710fed9f014c8c2af50c7c2f6b25748ae4cded822e03b7beed44cf3a8\n        /* \"contracts/Founding Citizens NFT Sale.sol\":5036:5048  _msgSender() */\n      tag_245\n        /* \"contracts/Founding Citizens NFT Sale.sol\":5036:5046  _msgSender */\n      tag_156\n        /* \"contracts/Founding Citizens NFT Sale.sol\":5036:5048  _msgSender() */\n      jump\t// in\n    tag_245:\n        /* \"contracts/Founding Citizens NFT Sale.sol\":5010:5017  hasRole */\n      tag_91\n        /* \"contracts/Founding Citizens NFT Sale.sol\":5010:5049  hasRole(URI_MANAGER_ROLE, _msgSender()) */\n      jump\t// in\n    tag_244:\n        /* \"contracts/Founding Citizens NFT Sale.sol\":5010:5108  hasRole(URI_MANAGER_ROLE, _msgSender()) || \r... */\n      dup1\n      tag_246\n      jumpi\n      pop\n        /* \"contracts/Founding Citizens NFT Sale.sol\":5067:5108  hasRole(DEFAULT_ADMIN_ROLE, _msgSender()) */\n      tag_247\n        /* \"@openzeppelin/contracts@4.4.2/access/AccessControl.sol\":2057:2061  0x00 */\n      0x00\n        /* \"contracts/Founding Citizens NFT Sale.sol\":5075:5093  DEFAULT_ADMIN_ROLE */\n      dup1\n      shl\n        /* \"contracts/Founding Citizens NFT Sale.sol\":5095:5107  _msgSender() */\n      tag_248\n        /* \"contracts/Founding Citizens NFT Sale.sol\":5095:5105  _msgSender */\n      tag_156\n        /* \"contracts/Founding Citizens NFT Sale.sol\":5095:5107  _msgSender() */\n      jump\t// in\n    tag_248:\n        /* \"contracts/Founding Citizens NFT Sale.sol\":5067:5074  hasRole */\n      tag_91\n        /* \"contracts/Founding Citizens NFT Sale.sol\":5067:5108  hasRole(DEFAULT_ADMIN_ROLE, _msgSender()) */\n      jump\t// in\n    tag_247:\n        /* \"contracts/Founding Citizens NFT Sale.sol\":5010:5108  hasRole(URI_MANAGER_ROLE, _msgSender()) || \r... */\n    tag_246:\n        /* \"contracts/Founding Citizens NFT Sale.sol\":4988:5170  require(\r... */\n      tag_249\n      jumpi\n      mload(0x40)\n      0x08c379a000000000000000000000000000000000000000000000000000000000\n      dup2\n      mstore\n      0x04\n      add\n      tag_250\n      swap1\n      tag_251\n      jump\t// in\n    tag_250:\n      mload(0x40)\n      dup1\n      swap2\n      sub\n      swap1\n      revert\n    tag_249:\n        /* \"contracts/Founding Citizens NFT Sale.sol\":5194:5216  ERC1155storageContract */\n      0x01\n      0x00\n      swap1\n      sload\n      swap1\n      0x0100\n      exp\n      swap1\n      div\n      0xffffffffffffffffffffffffffffffffffffffff\n      and\n        /* \"contracts/Founding Citizens NFT Sale.sol\":5181:5229  IMintStorage(ERC1155storageContract).preLoadURIs */\n      0xffffffffffffffffffffffffffffffffffffffff\n      and\n      0xf121da92\n        /* \"contracts/Founding Citizens NFT Sale.sol\":5230:5233  ids */\n      dup4\n        /* \"contracts/Founding Citizens NFT Sale.sol\":5235:5239  uris */\n      dup4\n        /* \"contracts/Founding Citizens NFT Sale.sol\":5181:5240  IMintStorage(ERC1155storageContract).preLoadURIs(ids, uris) */\n      mload(0x40)\n      dup4\n      0xffffffff\n      and\n      0xe0\n      shl\n      dup2\n      mstore\n      0x04\n      add\n      tag_252\n      swap3\n      swap2\n      swap1\n      tag_253\n      jump\t// in\n    tag_252:\n      0x00\n      mload(0x40)\n      dup1\n      dup4\n      sub\n      dup2\n      0x00\n      dup8\n      dup1\n      extcodesize\n      iszero\n      dup1\n      iszero\n      tag_254\n      jumpi\n      0x00\n      dup1\n      revert\n    tag_254:\n      pop\n      gas\n      call\n      iszero\n      dup1\n      iszero\n      tag_256\n      jumpi\n      returndatasize\n      0x00\n      dup1\n      returndatacopy\n      revert(0x00, returndatasize)\n    tag_256:\n      pop\n      pop\n      pop\n      pop\n        /* \"contracts/Founding Citizens NFT Sale.sol\":4902:5248  function preLoadURIs(uint[] memory ids, string[] memory uris) \r... */\n      pop\n      pop\n      jump\t// out\n        /* \"contracts/Founding Citizens NFT Sale.sol\":7279:7699  function mintRemainderToTreasuryAddress() external pushesUpdate {\r... */\n    tag_128:\n        /* \"contracts/Founding Citizens NFT Sale.sol\":3870:3883  updateState() */\n      tag_258\n        /* \"contracts/Founding Citizens NFT Sale.sol\":3870:3881  updateState */\n      tag_136\n        /* \"contracts/Founding Citizens NFT Sale.sol\":3870:3883  updateState() */\n      jump\t// in\n    tag_258:\n        /* \"contracts/Founding Citizens NFT Sale.sol\":7394:7401  endTime */\n      sload(0x06)\n        /* \"contracts/Founding Citizens NFT Sale.sol\":7376:7391  block.timestamp */\n      timestamp\n        /* \"contracts/Founding Citizens NFT Sale.sol\":7376:7401  block.timestamp > endTime */\n      gt\n        /* \"contracts/Founding Citizens NFT Sale.sol\":7376:7427  block.timestamp > endTime && !lastUpdate.saleIsLive */\n      dup1\n      iszero\n      tag_260\n      jumpi\n      pop\n        /* \"contracts/Founding Citizens NFT Sale.sol\":7406:7416  lastUpdate */\n      0x09\n        /* \"contracts/Founding Citizens NFT Sale.sol\":7406:7427  lastUpdate.saleIsLive */\n      0x02\n      add\n      0x00\n      swap1\n      sload\n      swap1\n      0x0100\n      exp\n      swap1\n      div\n      0xff\n      and\n        /* \"contracts/Founding Citizens NFT Sale.sol\":7405:7427  !lastUpdate.saleIsLive */\n      iszero\n        /* \"contracts/Founding Citizens NFT Sale.sol\":7376:7427  block.timestamp > endTime && !lastUpdate.saleIsLive */\n    tag_260:\n        /* \"contracts/Founding Citizens NFT Sale.sol\":7354:7510  require(\r... */\n      tag_261\n      jumpi\n      mload(0x40)\n      0x08c379a000000000000000000000000000000000000000000000000000000000\n      dup2\n      mstore\n      0x04\n      add\n      tag_262\n      swap1\n      tag_141\n      jump\t// in\n    tag_262:\n      mload(0x40)\n      dup1\n      swap2\n      sub\n      swap1\n      revert\n    tag_261:\n        /* \"contracts/Founding Citizens NFT Sale.sol\":7521:7536  uint leftToMint */\n      0x00\n        /* \"contracts/Founding Citizens NFT Sale.sol\":7578:7579  1 */\n      0x01\n        /* \"contracts/Founding Citizens NFT Sale.sol\":7557:7577  getNextUnusedToken() */\n      tag_263\n        /* \"contracts/Founding Citizens NFT Sale.sol\":7557:7575  getNextUnusedToken */\n      tag_83\n        /* \"contracts/Founding Citizens NFT Sale.sol\":7557:7577  getNextUnusedToken() */\n      jump\t// in\n    tag_263:\n        /* \"contracts/Founding Citizens NFT Sale.sol\":7557:7579  getNextUnusedToken()-1 */\n      tag_264\n      swap2\n      swap1\n      tag_144\n      jump\t// in\n    tag_264:\n        /* \"contracts/Founding Citizens NFT Sale.sol\":7539:7553  getMaxSupply() */\n      tag_265\n        /* \"contracts/Founding Citizens NFT Sale.sol\":7539:7551  getMaxSupply */\n      tag_62\n        /* \"contracts/Founding Citizens NFT Sale.sol\":7539:7553  getMaxSupply() */\n      jump\t// in\n    tag_265:\n        /* \"contracts/Founding Citizens NFT Sale.sol\":7539:7580  getMaxSupply() - (getNextUnusedToken()-1) */\n      tag_266\n      swap2\n      swap1\n      tag_144\n      jump\t// in\n    tag_266:\n        /* \"contracts/Founding Citizens NFT Sale.sol\":7521:7580  uint leftToMint = getMaxSupply() - (getNextUnusedToken()-1) */\n      swap1\n      pop\n        /* \"contracts/Founding Citizens NFT Sale.sol\":7591:7692  for (; leftToMint > 0; leftToMint--) {\r... */\n    tag_267:\n        /* \"contracts/Founding Citizens NFT Sale.sol\":7611:7612  0 */\n      0x00\n        /* \"contracts/Founding Citizens NFT Sale.sol\":7598:7608  leftToMint */\n      dup2\n        /* \"contracts/Founding Citizens NFT Sale.sol\":7598:7612  leftToMint > 0 */\n      gt\n        /* \"contracts/Founding Citizens NFT Sale.sol\":7591:7692  for (; leftToMint > 0; leftToMint--) {\r... */\n      iszero\n      tag_268\n      jumpi\n        /* \"contracts/Founding Citizens NFT Sale.sol\":7643:7680  mintNextNftToAddress(treasuryAddress) */\n      tag_270\n        /* \"contracts/Founding Citizens NFT Sale.sol\":7664:7679  treasuryAddress */\n      0x04\n      0x00\n      swap1\n      sload\n      swap1\n      0x0100\n      exp\n      swap1\n      div\n      0xffffffffffffffffffffffffffffffffffffffff\n      and\n        /* \"contracts/Founding Citizens NFT Sale.sol\":7643:7663  mintNextNftToAddress */\n      tag_151\n        /* \"contracts/Founding Citizens NFT Sale.sol\":7643:7680  mintNextNftToAddress(treasuryAddress) */\n      jump\t// in\n    tag_270:\n        /* \"contracts/Founding Citizens NFT Sale.sol\":7614:7626  leftToMint-- */\n      dup1\n      dup1\n      tag_271\n      swap1\n      tag_272\n      jump\t// in\n    tag_271:\n      swap2\n      pop\n      pop\n        /* \"contracts/Founding Citizens NFT Sale.sol\":7591:7692  for (; leftToMint > 0; leftToMint--) {\r... */\n      jump(tag_267)\n    tag_268:\n        /* \"contracts/Founding Citizens NFT Sale.sol\":3894:3895  _ */\n      pop\n        /* \"contracts/Founding Citizens NFT Sale.sol\":7279:7699  function mintRemainderToTreasuryAddress() external pushesUpdate {\r... */\n      jump\t// out\n        /* \"@openzeppelin/contracts@4.4.2/utils/introspection/ERC165.sol\":829:984  function supportsInterface(bytes4 interfaceId) public view virtual override returns (bool) {... */\n    tag_132:\n        /* \"@openzeppelin/contracts@4.4.2/utils/introspection/ERC165.sol\":914:918  bool */\n      0x00\n        /* \"@openzeppelin/contracts@4.4.2/utils/introspection/ERC165.sol\":952:977  type(IERC165).interfaceId */\n      0x01ffc9a700000000000000000000000000000000000000000000000000000000\n        /* \"@openzeppelin/contracts@4.4.2/utils/introspection/ERC165.sol\":937:977  interfaceId == type(IERC165).interfaceId */\n      not(0xffffffffffffffffffffffffffffffffffffffffffffffffffffffff)\n      and\n        /* \"@openzeppelin/contracts@4.4.2/utils/introspection/ERC165.sol\":937:948  interfaceId */\n      dup3\n        /* \"@openzeppelin/contracts@4.4.2/utils/introspection/ERC165.sol\":937:977  interfaceId == type(IERC165).interfaceId */\n      not(0xffffffffffffffffffffffffffffffffffffffffffffffffffffffff)\n      and\n      eq\n        /* \"@openzeppelin/contracts@4.4.2/utils/introspection/ERC165.sol\":930:977  return interfaceId == type(IERC165).interfaceId */\n      swap1\n      pop\n        /* \"@openzeppelin/contracts@4.4.2/utils/introspection/ERC165.sol\":829:984  function supportsInterface(bytes4 interfaceId) public view virtual override returns (bool) {... */\n      swap2\n      swap1\n      pop\n      jump\t// out\n        /* \"contracts/Founding Citizens NFT Sale.sol\":4089:4580  function updateState() internal requiresConsistentState {\r... */\n    tag_136:\n        /* \"contracts/Founding Citizens NFT Sale.sol\":3978:3985  endTime */\n      sload(0x06)\n        /* \"contracts/Founding Citizens NFT Sale.sol\":3965:3974  startTime */\n      sload(0x05)\n        /* \"contracts/Founding Citizens NFT Sale.sol\":3965:3985  startTime <= endTime */\n      gt\n      iszero\n        /* \"contracts/Founding Citizens NFT Sale.sol\":3957:4021  require(startTime <= endTime, \"startTime is later than endTime\") */\n      tag_275\n      jumpi\n      mload(0x40)\n      0x08c379a000000000000000000000000000000000000000000000000000000000\n      dup2\n      mstore\n      0x04\n      add\n      tag_276\n      swap1\n      tag_277\n      jump\t// in\n    tag_276:\n      mload(0x40)\n      dup1\n      swap2\n      sub\n      swap1\n      revert\n    tag_275:\n        /* \"contracts/Founding Citizens NFT Sale.sol\":3357:3362  10**6 */\n      0x0f4240\n        /* \"contracts/Founding Citizens NFT Sale.sol\":3510:3511  1 */\n      0x01\n        /* \"contracts/Founding Citizens NFT Sale.sol\":3510:3519  1 * units */\n      tag_279\n      swap2\n      swap1\n      tag_224\n      jump\t// in\n    tag_279:\n        /* \"contracts/Founding Citizens NFT Sale.sol\":4245:4247  60 */\n      0x3c\n        /* \"contracts/Founding Citizens NFT Sale.sol\":4232:4241  startTime */\n      sload(0x05)\n        /* \"contracts/Founding Citizens NFT Sale.sol\":4214:4229  block.timestamp */\n      timestamp\n        /* \"contracts/Founding Citizens NFT Sale.sol\":4214:4241  block.timestamp - startTime */\n      tag_280\n      swap2\n      swap1\n      tag_144\n      jump\t// in\n    tag_280:\n        /* \"contracts/Founding Citizens NFT Sale.sol\":4213:4247  (block.timestamp - startTime) / 60 */\n      tag_281\n      swap2\n      swap1\n      tag_222\n      jump\t// in\n    tag_281:\n        /* \"contracts/Founding Citizens NFT Sale.sol\":4213:4272  (block.timestamp - startTime) / 60 * priceDescresePerMinute */\n      tag_282\n      swap2\n      swap1\n      tag_224\n      jump\t// in\n    tag_282:\n        /* \"contracts/Founding Citizens NFT Sale.sol\":4199:4209  startPrice */\n      sload(0x07)\n        /* \"contracts/Founding Citizens NFT Sale.sol\":4199:4273  startPrice - ((block.timestamp - startTime) / 60 * priceDescresePerMinute) */\n      tag_283\n      swap2\n      swap1\n      tag_144\n      jump\t// in\n    tag_283:\n        /* \"contracts/Founding Citizens NFT Sale.sol\":4180:4190  lastUpdate */\n      0x09\n        /* \"contracts/Founding Citizens NFT Sale.sol\":4180:4196  lastUpdate.price */\n      0x00\n      add\n        /* \"contracts/Founding Citizens NFT Sale.sol\":4180:4273  lastUpdate.price = startPrice - ((block.timestamp - startTime) / 60 * priceDescresePerMinute) */\n      dup2\n      swap1\n      sstore\n      pop\n        /* \"contracts/Founding Citizens NFT Sale.sol\":4327:4342  block.timestamp */\n      timestamp\n        /* \"contracts/Founding Citizens NFT Sale.sol\":4309:4319  lastUpdate */\n      0x09\n        /* \"contracts/Founding Citizens NFT Sale.sol\":4309:4324  lastUpdate.time */\n      0x01\n      add\n        /* \"contracts/Founding Citizens NFT Sale.sol\":4309:4342  lastUpdate.time = block.timestamp */\n      dup2\n      swap1\n      sstore\n      pop\n        /* \"contracts/Founding Citizens NFT Sale.sol\":4415:4424  startTime */\n      sload(0x05)\n        /* \"contracts/Founding Citizens NFT Sale.sol\":4396:4411  block.timestamp */\n      timestamp\n        /* \"contracts/Founding Citizens NFT Sale.sol\":4396:4424  block.timestamp >= startTime */\n      lt\n      iszero\n        /* \"contracts/Founding Citizens NFT Sale.sol\":4396:4454  block.timestamp >= startTime && block.timestamp <= endTime */\n      dup1\n      iszero\n      tag_284\n      jumpi\n      pop\n        /* \"contracts/Founding Citizens NFT Sale.sol\":4447:4454  endTime */\n      sload(0x06)\n        /* \"contracts/Founding Citizens NFT Sale.sol\":4428:4443  block.timestamp */\n      timestamp\n        /* \"contracts/Founding Citizens NFT Sale.sol\":4428:4454  block.timestamp <= endTime */\n      gt\n      iszero\n        /* \"contracts/Founding Citizens NFT Sale.sol\":4396:4454  block.timestamp >= startTime && block.timestamp <= endTime */\n    tag_284:\n        /* \"contracts/Founding Citizens NFT Sale.sol\":4392:4573  if (block.timestamp >= startTime && block.timestamp <= endTime) {\r... */\n      iszero\n      tag_285\n      jumpi\n        /* \"contracts/Founding Citizens NFT Sale.sol\":4495:4499  true */\n      0x01\n        /* \"contracts/Founding Citizens NFT Sale.sol\":4471:4481  lastUpdate */\n      0x09\n        /* \"contracts/Founding Citizens NFT Sale.sol\":4471:4492  lastUpdate.saleIsLive */\n      0x02\n      add\n      0x00\n        /* \"contracts/Founding Citizens NFT Sale.sol\":4471:4499  lastUpdate.saleIsLive = true */\n      0x0100\n      exp\n      dup2\n      sload\n      dup2\n      0xff\n      mul\n      not\n      and\n      swap1\n      dup4\n      iszero\n      iszero\n      mul\n      or\n      swap1\n      sstore\n      pop\n        /* \"contracts/Founding Citizens NFT Sale.sol\":4392:4573  if (block.timestamp >= startTime && block.timestamp <= endTime) {\r... */\n      jump(tag_286)\n    tag_285:\n        /* \"contracts/Founding Citizens NFT Sale.sol\":4556:4561  false */\n      0x00\n        /* \"contracts/Founding Citizens NFT Sale.sol\":4532:4542  lastUpdate */\n      0x09\n        /* \"contracts/Founding Citizens NFT Sale.sol\":4532:4553  lastUpdate.saleIsLive */\n      0x02\n      add\n      0x00\n        /* \"contracts/Founding Citizens NFT Sale.sol\":4532:4561  lastUpdate.saleIsLive = false */\n      0x0100\n      exp\n      dup2\n      sload\n      dup2\n      0xff\n      mul\n      not\n      and\n      swap1\n      dup4\n      iszero\n      iszero\n      mul\n      or\n      swap1\n      sstore\n      pop\n        /* \"contracts/Founding Citizens NFT Sale.sol\":4392:4573  if (block.timestamp >= startTime && block.timestamp <= endTime) {\r... */\n    tag_286:\n        /* \"contracts/Founding Citizens NFT Sale.sol\":4089:4580  function updateState() internal requiresConsistentState {\r... */\n      jump\t// out\n        /* \"contracts/Founding Citizens NFT Sale.sol\":4763:4894  function mintNextNftToAddress(address to) internal {\r... */\n    tag_151:\n        /* \"contracts/Founding Citizens NFT Sale.sol\":4838:4860  ERC1155storageContract */\n      0x01\n      0x00\n      swap1\n      sload\n      swap1\n      0x0100\n      exp\n      swap1\n      div\n      0xffffffffffffffffffffffffffffffffffffffff\n      and\n        /* \"contracts/Founding Citizens NFT Sale.sol\":4825:4882  IMintStorage(ERC1155storageContract).mintNextNftToAddress */\n      0xffffffffffffffffffffffffffffffffffffffff\n      and\n      0x55676590\n        /* \"contracts/Founding Citizens NFT Sale.sol\":4883:4885  to */\n      dup3\n        /* \"contracts/Founding Citizens NFT Sale.sol\":4825:4886  IMintStorage(ERC1155storageContract).mintNextNftToAddress(to) */\n      mload(0x40)\n      dup3\n      0xffffffff\n      and\n      0xe0\n      shl\n      dup2\n      mstore\n      0x04\n      add\n      tag_288\n      swap2\n      swap1\n      tag_116\n      jump\t// in\n    tag_288:\n      0x00\n      mload(0x40)\n      dup1\n      dup4\n      sub\n      dup2\n      0x00\n      dup8\n      dup1\n      extcodesize\n      iszero\n      dup1\n      iszero\n      tag_289\n      jumpi\n      0x00\n      dup1\n      revert\n    tag_289:\n      pop\n      gas\n      call\n      iszero\n      dup1\n      iszero\n      tag_291\n      jumpi\n      returndatasize\n      0x00\n      dup1\n      returndatacopy\n      revert(0x00, returndatasize)\n    tag_291:\n      pop\n      pop\n      pop\n      pop\n        /* \"contracts/Founding Citizens NFT Sale.sol\":4763:4894  function mintNextNftToAddress(address to) internal {\r... */\n      pop\n      jump\t// out\n        /* \"@openzeppelin/contracts@4.4.2/utils/Context.sol\":640:736  function _msgSender() internal view virtual returns (address) {... */\n    tag_156:\n        /* \"@openzeppelin/contracts@4.4.2/utils/Context.sol\":693:700  address */\n      0x00\n        /* \"@openzeppelin/contracts@4.4.2/utils/Context.sol\":719:729  msg.sender */\n      caller\n        /* \"@openzeppelin/contracts@4.4.2/utils/Context.sol\":712:729  return msg.sender */\n      swap1\n      pop\n        /* \"@openzeppelin/contracts@4.4.2/utils/Context.sol\":640:736  function _msgSender() internal view virtual returns (address) {... */\n      swap1\n      jump\t// out\n        /* \"@openzeppelin/contracts@4.4.2/access/AccessControl.sol\":3312:3796  function _checkRole(bytes32 role, address account) internal view {... */\n    tag_157:\n        /* \"@openzeppelin/contracts@4.4.2/access/AccessControl.sol\":3392:3414  hasRole(role, account) */\n      tag_294\n        /* \"@openzeppelin/contracts@4.4.2/access/AccessControl.sol\":3400:3404  role */\n      dup3\n        /* \"@openzeppelin/contracts@4.4.2/access/AccessControl.sol\":3406:3413  account */\n      dup3\n        /* \"@openzeppelin/contracts@4.4.2/access/AccessControl.sol\":3392:3399  hasRole */\n      tag_91\n        /* \"@openzeppelin/contracts@4.4.2/access/AccessControl.sol\":3392:3414  hasRole(role, account) */\n      jump\t// in\n    tag_294:\n        /* \"@openzeppelin/contracts@4.4.2/access/AccessControl.sol\":3387:3790  if (!hasRole(role, account)) {... */\n      tag_295\n      jumpi\n        /* \"@openzeppelin/contracts@4.4.2/access/AccessControl.sol\":3575:3616  Strings.toHexString(uint160(account), 20) */\n      tag_296\n        /* \"@openzeppelin/contracts@4.4.2/access/AccessControl.sol\":3603:3610  account */\n      dup2\n        /* \"@openzeppelin/contracts@4.4.2/access/AccessControl.sol\":3575:3616  Strings.toHexString(uint160(account), 20) */\n      0xffffffffffffffffffffffffffffffffffffffff\n      and\n        /* \"@openzeppelin/contracts@4.4.2/access/AccessControl.sol\":3613:3615  20 */\n      0x14\n        /* \"@openzeppelin/contracts@4.4.2/access/AccessControl.sol\":3575:3594  Strings.toHexString */\n      tag_297\n        /* \"@openzeppelin/contracts@4.4.2/access/AccessControl.sol\":3575:3616  Strings.toHexString(uint160(account), 20) */\n      jump\t// in\n    tag_296:\n        /* \"@openzeppelin/contracts@4.4.2/access/AccessControl.sol\":3687:3725  Strings.toHexString(uint256(role), 32) */\n      tag_298\n        /* \"@openzeppelin/contracts@4.4.2/access/AccessControl.sol\":3715:3719  role */\n      dup4\n        /* \"@openzeppelin/contracts@4.4.2/access/AccessControl.sol\":3707:3720  uint256(role) */\n      0x00\n      shr\n        /* \"@openzeppelin/contracts@4.4.2/access/AccessControl.sol\":3722:3724  32 */\n      0x20\n        /* \"@openzeppelin/contracts@4.4.2/access/AccessControl.sol\":3687:3706  Strings.toHexString */\n      tag_297\n        /* \"@openzeppelin/contracts@4.4.2/access/AccessControl.sol\":3687:3725  Strings.toHexString(uint256(role), 32) */\n      jump\t// in\n    tag_298:\n        /* \"@openzeppelin/contracts@4.4.2/access/AccessControl.sol\":3482:3747  abi.encodePacked(... */\n      add(0x20, mload(0x40))\n      tag_299\n      swap3\n      swap2\n      swap1\n      tag_300\n      jump\t// in\n    tag_299:\n      mload(0x40)\n      0x20\n      dup2\n      dup4\n      sub\n      sub\n      dup2\n      mstore\n      swap1\n      0x40\n      mstore\n        /* \"@openzeppelin/contracts@4.4.2/access/AccessControl.sol\":3430:3779  revert(... */\n      mload(0x40)\n      0x08c379a000000000000000000000000000000000000000000000000000000000\n      dup2\n      mstore\n      0x04\n      add\n      tag_301\n      swap2\n      swap1\n      tag_219\n      jump\t// in\n    tag_301:\n      mload(0x40)\n      dup1\n      swap2\n      sub\n      swap1\n      revert\n        /* \"@openzeppelin/contracts@4.4.2/access/AccessControl.sol\":3387:3790  if (!hasRole(role, account)) {... */\n    tag_295:\n        /* \"@openzeppelin/contracts@4.4.2/access/AccessControl.sol\":3312:3796  function _checkRole(bytes32 role, address account) internal view {... */\n      pop\n      pop\n      jump\t// out\n        /* \"@openzeppelin/contracts@4.4.2/access/AccessControl.sol\":6822:7055  function _grantRole(bytes32 role, address account) internal virtual {... */\n    tag_160:\n        /* \"@openzeppelin/contracts@4.4.2/access/AccessControl.sol\":6905:6927  hasRole(role, account) */\n      tag_303\n        /* \"@openzeppelin/contracts@4.4.2/access/AccessControl.sol\":6913:6917  role */\n      dup3\n        /* \"@openzeppelin/contracts@4.4.2/access/AccessControl.sol\":6919:6926  account */\n      dup3\n        /* \"@openzeppelin/contracts@4.4.2/access/AccessControl.sol\":6905:6912  hasRole */\n      tag_91\n        /* \"@openzeppelin/contracts@4.4.2/access/AccessControl.sol\":6905:6927  hasRole(role, account) */\n      jump\t// in\n    tag_303:\n        /* \"@openzeppelin/contracts@4.4.2/access/AccessControl.sol\":6900:7049  if (!hasRole(role, account)) {... */\n      tag_304\n      jumpi\n        /* \"@openzeppelin/contracts@4.4.2/access/AccessControl.sol\":6975:6979  true */\n      0x01\n        /* \"@openzeppelin/contracts@4.4.2/access/AccessControl.sol\":6943:6949  _roles */\n      0x00\n        /* \"@openzeppelin/contracts@4.4.2/access/AccessControl.sol\":6943:6955  _roles[role] */\n      dup1\n        /* \"@openzeppelin/contracts@4.4.2/access/AccessControl.sol\":6950:6954  role */\n      dup5\n        /* \"@openzeppelin/contracts@4.4.2/access/AccessControl.sol\":6943:6955  _roles[role] */\n      dup2\n      mstore\n      0x20\n      add\n      swap1\n      dup2\n      mstore\n      0x20\n      add\n      0x00\n      keccak256\n        /* \"@openzeppelin/contracts@4.4.2/access/AccessControl.sol\":6943:6963  _roles[role].members */\n      0x00\n      add\n        /* \"@openzeppelin/contracts@4.4.2/access/AccessControl.sol\":6943:6972  _roles[role].members[account] */\n      0x00\n        /* \"@openzeppelin/contracts@4.4.2/access/AccessControl.sol\":6964:6971  account */\n      dup4\n        /* \"@openzeppelin/contracts@4.4.2/access/AccessControl.sol\":6943:6972  _roles[role].members[account] */\n      0xffffffffffffffffffffffffffffffffffffffff\n      and\n      0xffffffffffffffffffffffffffffffffffffffff\n      and\n      dup2\n      mstore\n      0x20\n      add\n      swap1\n      dup2\n      mstore\n      0x20\n      add\n      0x00\n      keccak256\n      0x00\n        /* \"@openzeppelin/contracts@4.4.2/access/AccessControl.sol\":6943:6979  _roles[role].members[account] = true */\n      0x0100\n      exp\n      dup2\n      sload\n      dup2\n      0xff\n      mul\n      not\n      and\n      swap1\n      dup4\n      iszero\n      iszero\n      mul\n      or\n      swap1\n      sstore\n      pop\n        /* \"@openzeppelin/contracts@4.4.2/access/AccessControl.sol\":7025:7037  _msgSender() */\n      tag_305\n        /* \"@openzeppelin/contracts@4.4.2/access/AccessControl.sol\":7025:7035  _msgSender */\n      tag_156\n        /* \"@openzeppelin/contracts@4.4.2/access/AccessControl.sol\":7025:7037  _msgSender() */\n      jump\t// in\n    tag_305:\n        /* \"@openzeppelin/contracts@4.4.2/access/AccessControl.sol\":6998:7038  RoleGranted(role, account, _msgSender()) */\n      0xffffffffffffffffffffffffffffffffffffffff\n      and\n        /* \"@openzeppelin/contracts@4.4.2/access/AccessControl.sol\":7016:7023  account */\n      dup2\n        /* \"@openzeppelin/contracts@4.4.2/access/AccessControl.sol\":6998:7038  RoleGranted(role, account, _msgSender()) */\n      0xffffffffffffffffffffffffffffffffffffffff\n      and\n        /* \"@openzeppelin/contracts@4.4.2/access/AccessControl.sol\":7010:7014  role */\n      dup4\n        /* \"@openzeppelin/contracts@4.4.2/access/AccessControl.sol\":6998:7038  RoleGranted(role, account, _msgSender()) */\n      0x2f8788117e7eff1d82e926ec794901d17c78024a50270940304540a733656f0d\n      mload(0x40)\n      mload(0x40)\n      dup1\n      swap2\n      sub\n      swap1\n      log4\n        /* \"@openzeppelin/contracts@4.4.2/access/AccessControl.sol\":6900:7049  if (!hasRole(role, account)) {... */\n    tag_304:\n        /* \"@openzeppelin/contracts@4.4.2/access/AccessControl.sol\":6822:7055  function _grantRole(bytes32 role, address account) internal virtual {... */\n      pop\n      pop\n      jump\t// out\n        /* \"@openzeppelin/contracts@4.4.2/access/AccessControl.sol\":7180:7414  function _revokeRole(bytes32 role, address account) internal virtual {... */\n    tag_167:\n        /* \"@openzeppelin/contracts@4.4.2/access/AccessControl.sol\":7263:7285  hasRole(role, account) */\n      tag_307\n        /* \"@openzeppelin/contracts@4.4.2/access/AccessControl.sol\":7271:7275  role */\n      dup3\n        /* \"@openzeppelin/contracts@4.4.2/access/AccessControl.sol\":7277:7284  account */\n      dup3\n        /* \"@openzeppelin/contracts@4.4.2/access/AccessControl.sol\":7263:7270  hasRole */\n      tag_91\n        /* \"@openzeppelin/contracts@4.4.2/access/AccessControl.sol\":7263:7285  hasRole(role, account) */\n      jump\t// in\n    tag_307:\n        /* \"@openzeppelin/contracts@4.4.2/access/AccessControl.sol\":7259:7408  if (hasRole(role, account)) {... */\n      iszero\n      tag_308\n      jumpi\n        /* \"@openzeppelin/contracts@4.4.2/access/AccessControl.sol\":7333:7338  false */\n      0x00\n        /* \"@openzeppelin/contracts@4.4.2/access/AccessControl.sol\":7301:7307  _roles */\n      dup1\n        /* \"@openzeppelin/contracts@4.4.2/access/AccessControl.sol\":7301:7313  _roles[role] */\n      0x00\n        /* \"@openzeppelin/contracts@4.4.2/access/AccessControl.sol\":7308:7312  role */\n      dup5\n        /* \"@openzeppelin/contracts@4.4.2/access/AccessControl.sol\":7301:7313  _roles[role] */\n      dup2\n      mstore\n      0x20\n      add\n      swap1\n      dup2\n      mstore\n      0x20\n      add\n      0x00\n      keccak256\n        /* \"@openzeppelin/contracts@4.4.2/access/AccessControl.sol\":7301:7321  _roles[role].members */\n      0x00\n      add\n        /* \"@openzeppelin/contracts@4.4.2/access/AccessControl.sol\":7301:7330  _roles[role].members[account] */\n      0x00\n        /* \"@openzeppelin/contracts@4.4.2/access/AccessControl.sol\":7322:7329  account */\n      dup4\n        /* \"@openzeppelin/contracts@4.4.2/access/AccessControl.sol\":7301:7330  _roles[role].members[account] */\n      0xffffffffffffffffffffffffffffffffffffffff\n      and\n      0xffffffffffffffffffffffffffffffffffffffff\n      and\n      dup2\n      mstore\n      0x20\n      add\n      swap1\n      dup2\n      mstore\n      0x20\n      add\n      0x00\n      keccak256\n      0x00\n        /* \"@openzeppelin/contracts@4.4.2/access/AccessControl.sol\":7301:7338  _roles[role].members[account] = false */\n      0x0100\n      exp\n      dup2\n      sload\n      dup2\n      0xff\n      mul\n      not\n      and\n      swap1\n      dup4\n      iszero\n      iszero\n      mul\n      or\n      swap1\n      sstore\n      pop\n        /* \"@openzeppelin/contracts@4.4.2/access/AccessControl.sol\":7384:7396  _msgSender() */\n      tag_309\n        /* \"@openzeppelin/contracts@4.4.2/access/AccessControl.sol\":7384:7394  _msgSender */\n      tag_156\n        /* \"@openzeppelin/contracts@4.4.2/access/AccessControl.sol\":7384:7396  _msgSender() */\n      jump\t// in\n    tag_309:\n        /* \"@openzeppelin/contracts@4.4.2/access/AccessControl.sol\":7357:7397  RoleRevoked(role, account, _msgSender()) */\n      0xffffffffffffffffffffffffffffffffffffffff\n      and\n        /* \"@openzeppelin/contracts@4.4.2/access/AccessControl.sol\":7375:7382  account */\n      dup2\n        /* \"@openzeppelin/contracts@4.4.2/access/AccessControl.sol\":7357:7397  RoleRevoked(role, account, _msgSender()) */\n      0xffffffffffffffffffffffffffffffffffffffff\n      and\n        /* \"@openzeppelin/contracts@4.4.2/access/AccessControl.sol\":7369:7373  role */\n      dup4\n        /* \"@openzeppelin/contracts@4.4.2/access/AccessControl.sol\":7357:7397  RoleRevoked(role, account, _msgSender()) */\n      0xf6391f5c32d9c69d2a47ea670b442974b53935d1edc7fd64eb21e047a839171b\n      mload(0x40)\n      mload(0x40)\n      dup1\n      swap2\n      sub\n      swap1\n      log4\n        /* \"@openzeppelin/contracts@4.4.2/access/AccessControl.sol\":7259:7408  if (hasRole(role, account)) {... */\n    tag_308:\n        /* \"@openzeppelin/contracts@4.4.2/access/AccessControl.sol\":7180:7414  function _revokeRole(bytes32 role, address account) internal virtual {... */\n      pop\n      pop\n      jump\t// out\n        /* \"contracts/Founding Citizens NFT Sale.sol\":6776:6940  function _buyNFT(uint price) internal {\r... */\n    tag_183:\n        /* \"contracts/Founding Citizens NFT Sale.sol\":6825:6850  usdcEscrowStorageContract */\n      0x03\n      0x00\n      swap1\n      sload\n      swap1\n      0x0100\n      exp\n      swap1\n      div\n      0xffffffffffffffffffffffffffffffffffffffff\n      and\n        /* \"contracts/Founding Citizens NFT Sale.sol\":6825:6870  usdcEscrowStorageContract.decreaseUsdcBalance */\n      0xffffffffffffffffffffffffffffffffffffffff\n      and\n      0x532b2913\n        /* \"contracts/Founding Citizens NFT Sale.sol\":6871:6881  msg.sender */\n      caller\n        /* \"contracts/Founding Citizens NFT Sale.sol\":6883:6888  price */\n      dup4\n        /* \"contracts/Founding Citizens NFT Sale.sol\":6825:6889  usdcEscrowStorageContract.decreaseUsdcBalance(msg.sender, price) */\n      mload(0x40)\n      dup4\n      0xffffffff\n      and\n      0xe0\n      shl\n      dup2\n      mstore\n      0x04\n      add\n      tag_311\n      swap3\n      swap2\n      swap1\n      tag_209\n      jump\t// in\n    tag_311:\n      0x00\n      mload(0x40)\n      dup1\n      dup4\n      sub\n      dup2\n      0x00\n      dup8\n      dup1\n      extcodesize\n      iszero\n      dup1\n      iszero\n      tag_312\n      jumpi\n      0x00\n      dup1\n      revert\n    tag_312:\n      pop\n      gas\n      call\n      iszero\n      dup1\n      iszero\n      tag_314\n      jumpi\n      returndatasize\n      0x00\n      dup1\n      returndatacopy\n      revert(0x00, returndatasize)\n    tag_314:\n      pop\n      pop\n      pop\n      pop\n        /* \"contracts/Founding Citizens NFT Sale.sol\":6900:6932  mintNextNftToAddress(msg.sender) */\n      tag_315\n        /* \"contracts/Founding Citizens NFT Sale.sol\":6921:6931  msg.sender */\n      caller\n        /* \"contracts/Founding Citizens NFT Sale.sol\":6900:6920  mintNextNftToAddress */\n      tag_151\n        /* \"contracts/Founding Citizens NFT Sale.sol\":6900:6932  mintNextNftToAddress(msg.sender) */\n      jump\t// in\n    tag_315:\n        /* \"contracts/Founding Citizens NFT Sale.sol\":6776:6940  function _buyNFT(uint price) internal {\r... */\n      pop\n      jump\t// out\n        /* \"@openzeppelin/contracts@4.4.2/utils/Strings.sol\":1588:2029  function toHexString(uint256 value, uint256 length) internal pure returns (string memory) {... */\n    tag_297:\n        /* \"@openzeppelin/contracts@4.4.2/utils/Strings.sol\":1663:1676  string memory */\n      0x60\n        /* \"@openzeppelin/contracts@4.4.2/utils/Strings.sol\":1688:1707  bytes memory buffer */\n      0x00\n        /* \"@openzeppelin/contracts@4.4.2/utils/Strings.sol\":1733:1734  2 */\n      0x02\n        /* \"@openzeppelin/contracts@4.4.2/utils/Strings.sol\":1724:1730  length */\n      dup4\n        /* \"@openzeppelin/contracts@4.4.2/utils/Strings.sol\":1720:1721  2 */\n      0x02\n        /* \"@openzeppelin/contracts@4.4.2/utils/Strings.sol\":1720:1730  2 * length */\n      tag_317\n      swap2\n      swap1\n      tag_224\n      jump\t// in\n    tag_317:\n        /* \"@openzeppelin/contracts@4.4.2/utils/Strings.sol\":1720:1734  2 * length + 2 */\n      tag_318\n      swap2\n      swap1\n      tag_319\n      jump\t// in\n    tag_318:\n        /* \"@openzeppelin/contracts@4.4.2/utils/Strings.sol\":1710:1735  new bytes(2 * length + 2) */\n      0xffffffffffffffff\n      dup2\n      gt\n      iszero\n      tag_320\n      jumpi\n      mstore(0x00, 0x4e487b7100000000000000000000000000000000000000000000000000000000)\n      mstore(0x04, 0x41)\n      revert(0x00, 0x24)\n    tag_320:\n      mload(0x40)\n      swap1\n      dup1\n      dup3\n      mstore\n      dup1\n      0x1f\n      add\n      not(0x1f)\n      and\n      0x20\n      add\n      dup3\n      add\n      0x40\n      mstore\n      dup1\n      iszero\n      tag_321\n      jumpi\n      dup2\n      0x20\n      add\n      0x01\n      dup3\n      mul\n      dup1\n      calldatasize\n      dup4\n      calldatacopy\n      dup1\n      dup3\n      add\n      swap2\n      pop\n      pop\n      swap1\n      pop\n    tag_321:\n      pop\n        /* \"@openzeppelin/contracts@4.4.2/utils/Strings.sol\":1688:1735  bytes memory buffer = new bytes(2 * length + 2) */\n      swap1\n      pop\n        /* \"@openzeppelin/contracts@4.4.2/utils/Strings.sol\":1745:1760  buffer[0] = \"0\" */\n      0x3000000000000000000000000000000000000000000000000000000000000000\n        /* \"@openzeppelin/contracts@4.4.2/utils/Strings.sol\":1745:1751  buffer */\n      dup2\n        /* \"@openzeppelin/contracts@4.4.2/utils/Strings.sol\":1752:1753  0 */\n      0x00\n        /* \"@openzeppelin/contracts@4.4.2/utils/Strings.sol\":1745:1754  buffer[0] */\n      dup2\n      mload\n      dup2\n      lt\n      tag_322\n      jumpi\n      mstore(0x00, 0x4e487b7100000000000000000000000000000000000000000000000000000000)\n      mstore(0x04, 0x32)\n      revert(0x00, 0x24)\n    tag_322:\n      0x20\n      add\n      add\n        /* \"@openzeppelin/contracts@4.4.2/utils/Strings.sol\":1745:1760  buffer[0] = \"0\" */\n      swap1\n      not(0xffffffffffffffffffffffffffffffffffffffffffffffffffffffffffffff)\n      and\n      swap1\n      dup2\n      0x00\n      byte\n      swap1\n      mstore8\n      pop\n        /* \"@openzeppelin/contracts@4.4.2/utils/Strings.sol\":1770:1785  buffer[1] = \"x\" */\n      0x7800000000000000000000000000000000000000000000000000000000000000\n        /* \"@openzeppelin/contracts@4.4.2/utils/Strings.sol\":1770:1776  buffer */\n      dup2\n        /* \"@openzeppelin/contracts@4.4.2/utils/Strings.sol\":1777:1778  1 */\n      0x01\n        /* \"@openzeppelin/contracts@4.4.2/utils/Strings.sol\":1770:1779  buffer[1] */\n      dup2\n      mload\n      dup2\n      lt\n      tag_323\n      jumpi\n      mstore(0x00, 0x4e487b7100000000000000000000000000000000000000000000000000000000)\n      mstore(0x04, 0x32)\n      revert(0x00, 0x24)\n    tag_323:\n      0x20\n      add\n      add\n        /* \"@openzeppelin/contracts@4.4.2/utils/Strings.sol\":1770:1785  buffer[1] = \"x\" */\n      swap1\n      not(0xffffffffffffffffffffffffffffffffffffffffffffffffffffffffffffff)\n      and\n      swap1\n      dup2\n      0x00\n      byte\n      swap1\n      mstore8\n      pop\n        /* \"@openzeppelin/contracts@4.4.2/utils/Strings.sol\":1800:1809  uint256 i */\n      0x00\n        /* \"@openzeppelin/contracts@4.4.2/utils/Strings.sol\":1825:1826  1 */\n      0x01\n        /* \"@openzeppelin/contracts@4.4.2/utils/Strings.sol\":1816:1822  length */\n      dup5\n        /* \"@openzeppelin/contracts@4.4.2/utils/Strings.sol\":1812:1813  2 */\n      0x02\n        /* \"@openzeppelin/contracts@4.4.2/utils/Strings.sol\":1812:1822  2 * length */\n      tag_327\n      swap2\n      swap1\n      tag_224\n      jump\t// in\n    tag_327:\n        /* \"@openzeppelin/contracts@4.4.2/utils/Strings.sol\":1812:1826  2 * length + 1 */\n      tag_328\n      swap2\n      swap1\n      tag_319\n      jump\t// in\n    tag_328:\n        /* \"@openzeppelin/contracts@4.4.2/utils/Strings.sol\":1800:1826  uint256 i = 2 * length + 1 */\n      swap1\n      pop\n        /* \"@openzeppelin/contracts@4.4.2/utils/Strings.sol\":1795:1927  for (uint256 i = 2 * length + 1; i > 1; --i) {... */\n    tag_324:\n        /* \"@openzeppelin/contracts@4.4.2/utils/Strings.sol\":1832:1833  1 */\n      0x01\n        /* \"@openzeppelin/contracts@4.4.2/utils/Strings.sol\":1828:1829  i */\n      dup2\n        /* \"@openzeppelin/contracts@4.4.2/utils/Strings.sol\":1828:1833  i > 1 */\n      gt\n        /* \"@openzeppelin/contracts@4.4.2/utils/Strings.sol\":1795:1927  for (uint256 i = 2 * length + 1; i > 1; --i) {... */\n      iszero\n      tag_325\n      jumpi\n        /* \"@openzeppelin/contracts@4.4.2/utils/Strings.sol\":1866:1878  _HEX_SYMBOLS */\n      0x3031323334353637383961626364656600000000000000000000000000000000\n        /* \"@openzeppelin/contracts@4.4.2/utils/Strings.sol\":1887:1890  0xf */\n      0x0f\n        /* \"@openzeppelin/contracts@4.4.2/utils/Strings.sol\":1879:1884  value */\n      dup7\n        /* \"@openzeppelin/contracts@4.4.2/utils/Strings.sol\":1879:1890  value & 0xf */\n      and\n        /* \"@openzeppelin/contracts@4.4.2/utils/Strings.sol\":1866:1891  _HEX_SYMBOLS[value & 0xf] */\n      0x10\n      dup2\n      lt\n      tag_329\n      jumpi\n      mstore(0x00, 0x4e487b7100000000000000000000000000000000000000000000000000000000)\n      mstore(0x04, 0x32)\n      revert(0x00, 0x24)\n    tag_329:\n      byte\n      0xf8\n      shl\n        /* \"@openzeppelin/contracts@4.4.2/utils/Strings.sol\":1854:1860  buffer */\n      dup3\n        /* \"@openzeppelin/contracts@4.4.2/utils/Strings.sol\":1861:1862  i */\n      dup3\n        /* \"@openzeppelin/contracts@4.4.2/utils/Strings.sol\":1854:1863  buffer[i] */\n      dup2\n      mload\n      dup2\n      lt\n      tag_330\n      jumpi\n      mstore(0x00, 0x4e487b7100000000000000000000000000000000000000000000000000000000)\n      mstore(0x04, 0x32)\n      revert(0x00, 0x24)\n    tag_330:\n      0x20\n      add\n      add\n        /* \"@openzeppelin/contracts@4.4.2/utils/Strings.sol\":1854:1891  buffer[i] = _HEX_SYMBOLS[value & 0xf] */\n      swap1\n      not(0xffffffffffffffffffffffffffffffffffffffffffffffffffffffffffffff)\n      and\n      swap1\n      dup2\n      0x00\n      byte\n      swap1\n      mstore8\n      pop\n        /* \"@openzeppelin/contracts@4.4.2/utils/Strings.sol\":1915:1916  4 */\n      0x04\n        /* \"@openzeppelin/contracts@4.4.2/utils/Strings.sol\":1905:1916  value >>= 4 */\n      dup6\n      swap1\n      shr\n      swap5\n      pop\n        /* \"@openzeppelin/contracts@4.4.2/utils/Strings.sol\":1835:1838  --i */\n      dup1\n      tag_331\n      swap1\n      tag_272\n      jump\t// in\n    tag_331:\n      swap1\n      pop\n        /* \"@openzeppelin/contracts@4.4.2/utils/Strings.sol\":1795:1927  for (uint256 i = 2 * length + 1; i > 1; --i) {... */\n      jump(tag_324)\n    tag_325:\n      pop\n        /* \"@openzeppelin/contracts@4.4.2/utils/Strings.sol\":1953:1954  0 */\n      0x00\n        /* \"@openzeppelin/contracts@4.4.2/utils/Strings.sol\":1944:1949  value */\n      dup5\n        /* \"@openzeppelin/contracts@4.4.2/utils/Strings.sol\":1944:1954  value == 0 */\n      eq\n        /* \"@openzeppelin/contracts@4.4.2/utils/Strings.sol\":1936:1991  require(value == 0, \"Strings: hex length insufficient\") */\n      tag_332\n      jumpi\n      mload(0x40)\n      0x08c379a000000000000000000000000000000000000000000000000000000000\n      dup2\n      mstore\n      0x04\n      add\n      tag_333\n      swap1\n      tag_334\n      jump\t// in\n    tag_333:\n      mload(0x40)\n      dup1\n      swap2\n      sub\n      swap1\n      revert\n    tag_332:\n        /* \"@openzeppelin/contracts@4.4.2/utils/Strings.sol\":2015:2021  buffer */\n      dup1\n        /* \"@openzeppelin/contracts@4.4.2/utils/Strings.sol\":2001:2022  return string(buffer) */\n      swap2\n      pop\n      pop\n        /* \"@openzeppelin/contracts@4.4.2/utils/Strings.sol\":1588:2029  function toHexString(uint256 value, uint256 length) internal pure returns (string memory) {... */\n      swap3\n      swap2\n      pop\n      pop\n      jump\t// out\n        /* \"#utility.yul\":23:639   */\n    tag_336:\n      0x00\n        /* \"#utility.yul\":154:245   */\n      tag_338\n        /* \"#utility.yul\":170:244   */\n      tag_339\n        /* \"#utility.yul\":237:243   */\n      dup5\n        /* \"#utility.yul\":170:244   */\n      tag_340\n      jump\t// in\n    tag_339:\n        /* \"#utility.yul\":154:245   */\n      tag_341\n      jump\t// in\n    tag_338:\n        /* \"#utility.yul\":145:245   */\n      swap1\n      pop\n        /* \"#utility.yul\":265:270   */\n      dup1\n        /* \"#utility.yul\":293:299   */\n      dup4\n        /* \"#utility.yul\":286:291   */\n      dup3\n        /* \"#utility.yul\":279:300   */\n      mstore\n        /* \"#utility.yul\":319:323   */\n      0x20\n        /* \"#utility.yul\":312:317   */\n      dup3\n        /* \"#utility.yul\":308:324   */\n      add\n        /* \"#utility.yul\":301:324   */\n      swap1\n      pop\n        /* \"#utility.yul\":344:350   */\n      dup3\n        /* \"#utility.yul\":375:376   */\n      0x00\n        /* \"#utility.yul\":360:633   */\n    tag_342:\n        /* \"#utility.yul\":385:391   */\n      dup6\n        /* \"#utility.yul\":382:383   */\n      dup2\n        /* \"#utility.yul\":379:392   */\n      lt\n        /* \"#utility.yul\":360:633   */\n      iszero\n      tag_344\n      jumpi\n        /* \"#utility.yul\":477:480   */\n      dup2\n        /* \"#utility.yul\":464:481   */\n      calldataload\n        /* \"#utility.yul\":456:462   */\n      dup6\n        /* \"#utility.yul\":452:482   */\n      add\n        /* \"#utility.yul\":507:554   */\n      tag_345\n        /* \"#utility.yul\":550:553   */\n      dup9\n        /* \"#utility.yul\":538:548   */\n      dup3\n        /* \"#utility.yul\":507:554   */\n      tag_346\n      jump\t// in\n    tag_345:\n        /* \"#utility.yul\":502:505   */\n      dup5\n        /* \"#utility.yul\":495:555   */\n      mstore\n        /* \"#utility.yul\":584:588   */\n      0x20\n        /* \"#utility.yul\":579:582   */\n      dup5\n        /* \"#utility.yul\":575:589   */\n      add\n        /* \"#utility.yul\":568:589   */\n      swap4\n      pop\n        /* \"#utility.yul\":618:622   */\n      0x20\n        /* \"#utility.yul\":613:616   */\n      dup4\n        /* \"#utility.yul\":609:623   */\n      add\n        /* \"#utility.yul\":602:623   */\n      swap3\n      pop\n        /* \"#utility.yul\":420:633   */\n      pop\n        /* \"#utility.yul\":407:408   */\n      0x01\n        /* \"#utility.yul\":404:405   */\n      dup2\n        /* \"#utility.yul\":400:409   */\n      add\n        /* \"#utility.yul\":395:409   */\n      swap1\n      pop\n        /* \"#utility.yul\":360:633   */\n      jump(tag_342)\n    tag_344:\n        /* \"#utility.yul\":364:378   */\n      pop\n        /* \"#utility.yul\":135:639   */\n      pop\n      pop\n      swap4\n      swap3\n      pop\n      pop\n      pop\n      jump\t// out\n        /* \"#utility.yul\":662:1285   */\n    tag_347:\n      0x00\n        /* \"#utility.yul\":783:864   */\n      tag_349\n        /* \"#utility.yul\":799:863   */\n      tag_350\n        /* \"#utility.yul\":856:862   */\n      dup5\n        /* \"#utility.yul\":799:863   */\n      tag_351\n      jump\t// in\n    tag_350:\n        /* \"#utility.yul\":783:864   */\n      tag_341\n      jump\t// in\n    tag_349:\n        /* \"#utility.yul\":774:864   */\n      swap1\n      pop\n        /* \"#utility.yul\":884:889   */\n      dup1\n        /* \"#utility.yul\":912:918   */\n      dup4\n        /* \"#utility.yul\":905:910   */\n      dup3\n        /* \"#utility.yul\":898:919   */\n      mstore\n        /* \"#utility.yul\":938:942   */\n      0x20\n        /* \"#utility.yul\":931:936   */\n      dup3\n        /* \"#utility.yul\":927:943   */\n      add\n        /* \"#utility.yul\":920:943   */\n      swap1\n      pop\n        /* \"#utility.yul\":963:969   */\n      dup3\n        /* \"#utility.yul\":1013:1016   */\n      dup6\n        /* \"#utility.yul\":1005:1009   */\n      0x20\n        /* \"#utility.yul\":997:1003   */\n      dup7\n        /* \"#utility.yul\":993:1010   */\n      mul\n        /* \"#utility.yul\":988:991   */\n      dup3\n        /* \"#utility.yul\":984:1011   */\n      add\n        /* \"#utility.yul\":981:1017   */\n      gt\n        /* \"#utility.yul\":978:980   */\n      iszero\n      tag_352\n      jumpi\n        /* \"#utility.yul\":1030:1031   */\n      0x00\n        /* \"#utility.yul\":1027:1028   */\n      dup1\n        /* \"#utility.yul\":1020:1032   */\n      revert\n        /* \"#utility.yul\":978:980   */\n    tag_352:\n        /* \"#utility.yul\":1058:1059   */\n      0x00\n        /* \"#utility.yul\":1043:1279   */\n    tag_353:\n        /* \"#utility.yul\":1068:1074   */\n      dup6\n        /* \"#utility.yul\":1065:1066   */\n      dup2\n        /* \"#utility.yul\":1062:1075   */\n      lt\n        /* \"#utility.yul\":1043:1279   */\n      iszero\n      tag_355\n      jumpi\n        /* \"#utility.yul\":1135:1138   */\n      dup2\n        /* \"#utility.yul\":1163:1200   */\n      tag_356\n        /* \"#utility.yul\":1196:1199   */\n      dup9\n        /* \"#utility.yul\":1184:1194   */\n      dup3\n        /* \"#utility.yul\":1163:1200   */\n      tag_357\n      jump\t// in\n    tag_356:\n        /* \"#utility.yul\":1158:1161   */\n      dup5\n        /* \"#utility.yul\":1151:1201   */\n      mstore\n        /* \"#utility.yul\":1230:1234   */\n      0x20\n        /* \"#utility.yul\":1225:1228   */\n      dup5\n        /* \"#utility.yul\":1221:1235   */\n      add\n        /* \"#utility.yul\":1214:1235   */\n      swap4\n      pop\n        /* \"#utility.yul\":1264:1268   */\n      0x20\n        /* \"#utility.yul\":1259:1262   */\n      dup4\n        /* \"#utility.yul\":1255:1269   */\n      add\n        /* \"#utility.yul\":1248:1269   */\n      swap3\n      pop\n        /* \"#utility.yul\":1103:1279   */\n      pop\n        /* \"#utility.yul\":1090:1091   */\n      0x01\n        /* \"#utility.yul\":1087:1088   */\n      dup2\n        /* \"#utility.yul\":1083:1092   */\n      add\n        /* \"#utility.yul\":1078:1092   */\n      swap1\n      pop\n        /* \"#utility.yul\":1043:1279   */\n      jump(tag_353)\n    tag_355:\n        /* \"#utility.yul\":1047:1061   */\n      pop\n        /* \"#utility.yul\":764:1285   */\n      pop\n      pop\n      swap4\n      swap3\n      pop\n      pop\n      pop\n      jump\t// out\n        /* \"#utility.yul\":1291:1636   */\n    tag_358:\n      0x00\n        /* \"#utility.yul\":1394:1460   */\n      tag_360\n        /* \"#utility.yul\":1410:1459   */\n      tag_361\n        /* \"#utility.yul\":1452:1458   */\n      dup5\n        /* \"#utility.yul\":1410:1459   */\n      tag_362\n      jump\t// in\n    tag_361:\n        /* \"#utility.yul\":1394:1460   */\n      tag_341\n      jump\t// in\n    tag_360:\n        /* \"#utility.yul\":1385:1460   */\n      swap1\n      pop\n        /* \"#utility.yul\":1483:1489   */\n      dup3\n        /* \"#utility.yul\":1476:1481   */\n      dup2\n        /* \"#utility.yul\":1469:1490   */\n      mstore\n        /* \"#utility.yul\":1521:1525   */\n      0x20\n        /* \"#utility.yul\":1514:1519   */\n      dup2\n        /* \"#utility.yul\":1510:1526   */\n      add\n        /* \"#utility.yul\":1559:1562   */\n      dup5\n        /* \"#utility.yul\":1550:1556   */\n      dup5\n        /* \"#utility.yul\":1545:1548   */\n      dup5\n        /* \"#utility.yul\":1541:1557   */\n      add\n        /* \"#utility.yul\":1538:1563   */\n      gt\n        /* \"#utility.yul\":1535:1537   */\n      iszero\n      tag_363\n      jumpi\n        /* \"#utility.yul\":1576:1577   */\n      0x00\n        /* \"#utility.yul\":1573:1574   */\n      dup1\n        /* \"#utility.yul\":1566:1578   */\n      revert\n        /* \"#utility.yul\":1535:1537   */\n    tag_363:\n        /* \"#utility.yul\":1589:1630   */\n      tag_364\n        /* \"#utility.yul\":1623:1629   */\n      dup5\n        /* \"#utility.yul\":1618:1621   */\n      dup3\n        /* \"#utility.yul\":1613:1616   */\n      dup6\n        /* \"#utility.yul\":1589:1630   */\n      tag_365\n      jump\t// in\n    tag_364:\n        /* \"#utility.yul\":1375:1636   */\n      pop\n      swap4\n      swap3\n      pop\n      pop\n      pop\n      jump\t// out\n        /* \"#utility.yul\":1642:1781   */\n    tag_366:\n      0x00\n        /* \"#utility.yul\":1726:1732   */\n      dup2\n        /* \"#utility.yul\":1713:1733   */\n      calldataload\n        /* \"#utility.yul\":1704:1733   */\n      swap1\n      pop\n        /* \"#utility.yul\":1742:1775   */\n      tag_368\n        /* \"#utility.yul\":1769:1774   */\n      dup2\n        /* \"#utility.yul\":1742:1775   */\n      tag_369\n      jump\t// in\n    tag_368:\n        /* \"#utility.yul\":1694:1781   */\n      swap3\n      swap2\n      pop\n      pop\n      jump\t// out\n        /* \"#utility.yul\":1803:2126   */\n    tag_370:\n      0x00\n        /* \"#utility.yul\":1933:1936   */\n      dup3\n        /* \"#utility.yul\":1926:1930   */\n      0x1f\n        /* \"#utility.yul\":1918:1924   */\n      dup4\n        /* \"#utility.yul\":1914:1931   */\n      add\n        /* \"#utility.yul\":1910:1937   */\n      slt\n        /* \"#utility.yul\":1900:1902   */\n      tag_372\n      jumpi\n        /* \"#utility.yul\":1951:1952   */\n      0x00\n        /* \"#utility.yul\":1948:1949   */\n      dup1\n        /* \"#utility.yul\":1941:1953   */\n      revert\n        /* \"#utility.yul\":1900:1902   */\n    tag_372:\n        /* \"#utility.yul\":1991:1997   */\n      dup2\n        /* \"#utility.yul\":1978:1998   */\n      calldataload\n        /* \"#utility.yul\":2016:2120   */\n      tag_373\n        /* \"#utility.yul\":2116:2119   */\n      dup5\n        /* \"#utility.yul\":2108:2114   */\n      dup3\n        /* \"#utility.yul\":2101:2105   */\n      0x20\n        /* \"#utility.yul\":2093:2099   */\n      dup7\n        /* \"#utility.yul\":2089:2106   */\n      add\n        /* \"#utility.yul\":2016:2120   */\n      tag_336\n      jump\t// in\n    tag_373:\n        /* \"#utility.yul\":2007:2120   */\n      swap2\n      pop\n        /* \"#utility.yul\":1890:2126   */\n      pop\n      swap3\n      swap2\n      pop\n      pop\n      jump\t// out\n        /* \"#utility.yul\":2149:2452   */\n    tag_374:\n      0x00\n        /* \"#utility.yul\":2269:2272   */\n      dup3\n        /* \"#utility.yul\":2262:2266   */\n      0x1f\n        /* \"#utility.yul\":2254:2260   */\n      dup4\n        /* \"#utility.yul\":2250:2267   */\n      add\n        /* \"#utility.yul\":2246:2273   */\n      slt\n        /* \"#utility.yul\":2236:2238   */\n      tag_376\n      jumpi\n        /* \"#utility.yul\":2287:2288   */\n      0x00\n        /* \"#utility.yul\":2284:2285   */\n      dup1\n        /* \"#utility.yul\":2277:2289   */\n      revert\n        /* \"#utility.yul\":2236:2238   */\n    tag_376:\n        /* \"#utility.yul\":2327:2333   */\n      dup2\n        /* \"#utility.yul\":2314:2334   */\n      calldataload\n        /* \"#utility.yul\":2352:2446   */\n      tag_377\n        /* \"#utility.yul\":2442:2445   */\n      dup5\n        /* \"#utility.yul\":2434:2440   */\n      dup3\n        /* \"#utility.yul\":2427:2431   */\n      0x20\n        /* \"#utility.yul\":2419:2425   */\n      dup7\n        /* \"#utility.yul\":2415:2432   */\n      add\n        /* \"#utility.yul\":2352:2446   */\n      tag_347\n      jump\t// in\n    tag_377:\n        /* \"#utility.yul\":2343:2446   */\n      swap2\n      pop\n        /* \"#utility.yul\":2226:2452   */\n      pop\n      swap3\n      swap2\n      pop\n      pop\n      jump\t// out\n        /* \"#utility.yul\":2458:2595   */\n    tag_378:\n      0x00\n        /* \"#utility.yul\":2543:2549   */\n      dup2\n        /* \"#utility.yul\":2537:2550   */\n      mload\n        /* \"#utility.yul\":2528:2550   */\n      swap1\n      pop\n        /* \"#utility.yul\":2559:2589   */\n      tag_380\n        /* \"#utility.yul\":2583:2588   */\n      dup2\n        /* \"#utility.yul\":2559:2589   */\n      tag_381\n      jump\t// in\n    tag_380:\n        /* \"#utility.yul\":2518:2595   */\n      swap3\n      swap2\n      pop\n      pop\n      jump\t// out\n        /* \"#utility.yul\":2601:2740   */\n    tag_382:\n      0x00\n        /* \"#utility.yul\":2685:2691   */\n      dup2\n        /* \"#utility.yul\":2672:2692   */\n      calldataload\n        /* \"#utility.yul\":2663:2692   */\n      swap1\n      pop\n        /* \"#utility.yul\":2701:2734   */\n      tag_384\n        /* \"#utility.yul\":2728:2733   */\n      dup2\n        /* \"#utility.yul\":2701:2734   */\n      tag_385\n      jump\t// in\n    tag_384:\n        /* \"#utility.yul\":2653:2740   */\n      swap3\n      swap2\n      pop\n      pop\n      jump\t// out\n        /* \"#utility.yul\":2746:2883   */\n    tag_386:\n      0x00\n        /* \"#utility.yul\":2829:2835   */\n      dup2\n        /* \"#utility.yul\":2816:2836   */\n      calldataload\n        /* \"#utility.yul\":2807:2836   */\n      swap1\n      pop\n        /* \"#utility.yul\":2845:2877   */\n      tag_388\n        /* \"#utility.yul\":2871:2876   */\n      dup2\n        /* \"#utility.yul\":2845:2877   */\n      tag_389\n      jump\t// in\n    tag_388:\n        /* \"#utility.yul\":2797:2883   */\n      swap3\n      swap2\n      pop\n      pop\n      jump\t// out\n        /* \"#utility.yul\":2903:3176   */\n    tag_346:\n      0x00\n        /* \"#utility.yul\":3008:3011   */\n      dup3\n        /* \"#utility.yul\":3001:3005   */\n      0x1f\n        /* \"#utility.yul\":2993:2999   */\n      dup4\n        /* \"#utility.yul\":2989:3006   */\n      add\n        /* \"#utility.yul\":2985:3012   */\n      slt\n        /* \"#utility.yul\":2975:2977   */\n      tag_391\n      jumpi\n        /* \"#utility.yul\":3026:3027   */\n      0x00\n        /* \"#utility.yul\":3023:3024   */\n      dup1\n        /* \"#utility.yul\":3016:3028   */\n      revert\n        /* \"#utility.yul\":2975:2977   */\n    tag_391:\n        /* \"#utility.yul\":3066:3072   */\n      dup2\n        /* \"#utility.yul\":3053:3073   */\n      calldataload\n        /* \"#utility.yul\":3091:3170   */\n      tag_392\n        /* \"#utility.yul\":3166:3169   */\n      dup5\n        /* \"#utility.yul\":3158:3164   */\n      dup3\n        /* \"#utility.yul\":3151:3155   */\n      0x20\n        /* \"#utility.yul\":3143:3149   */\n      dup7\n        /* \"#utility.yul\":3139:3156   */\n      add\n        /* \"#utility.yul\":3091:3170   */\n      tag_358\n      jump\t// in\n    tag_392:\n        /* \"#utility.yul\":3082:3170   */\n      swap2\n      pop\n        /* \"#utility.yul\":2965:3176   */\n      pop\n      swap3\n      swap2\n      pop\n      pop\n      jump\t// out\n        /* \"#utility.yul\":3182:3321   */\n    tag_357:\n      0x00\n        /* \"#utility.yul\":3266:3272   */\n      dup2\n        /* \"#utility.yul\":3253:3273   */\n      calldataload\n        /* \"#utility.yul\":3244:3273   */\n      swap1\n      pop\n        /* \"#utility.yul\":3282:3315   */\n      tag_394\n        /* \"#utility.yul\":3309:3314   */\n      dup2\n        /* \"#utility.yul\":3282:3315   */\n      tag_395\n      jump\t// in\n    tag_394:\n        /* \"#utility.yul\":3234:3321   */\n      swap3\n      swap2\n      pop\n      pop\n      jump\t// out\n        /* \"#utility.yul\":3327:3470   */\n    tag_396:\n      0x00\n        /* \"#utility.yul\":3415:3421   */\n      dup2\n        /* \"#utility.yul\":3409:3422   */\n      mload\n        /* \"#utility.yul\":3400:3422   */\n      swap1\n      pop\n        /* \"#utility.yul\":3431:3464   */\n      tag_398\n        /* \"#utility.yul\":3458:3463   */\n      dup2\n        /* \"#utility.yul\":3431:3464   */\n      tag_395\n      jump\t// in\n    tag_398:\n        /* \"#utility.yul\":3390:3470   */\n      swap3\n      swap2\n      pop\n      pop\n      jump\t// out\n        /* \"#utility.yul\":3476:3738   */\n    tag_70:\n      0x00\n        /* \"#utility.yul\":3584:3586   */\n      0x20\n        /* \"#utility.yul\":3572:3581   */\n      dup3\n        /* \"#utility.yul\":3563:3570   */\n      dup5\n        /* \"#utility.yul\":3559:3582   */\n      sub\n        /* \"#utility.yul\":3555:3587   */\n      slt\n        /* \"#utility.yul\":3552:3554   */\n      iszero\n      tag_400\n      jumpi\n        /* \"#utility.yul\":3600:3601   */\n      0x00\n        /* \"#utility.yul\":3597:3598   */\n      dup1\n        /* \"#utility.yul\":3590:3602   */\n      revert\n        /* \"#utility.yul\":3552:3554   */\n    tag_400:\n        /* \"#utility.yul\":3643:3644   */\n      0x00\n        /* \"#utility.yul\":3668:3721   */\n      tag_401\n        /* \"#utility.yul\":3713:3720   */\n      dup5\n        /* \"#utility.yul\":3704:3710   */\n      dup3\n        /* \"#utility.yul\":3693:3702   */\n      dup6\n        /* \"#utility.yul\":3689:3711   */\n      add\n        /* \"#utility.yul\":3668:3721   */\n      tag_366\n      jump\t// in\n    tag_401:\n        /* \"#utility.yul\":3658:3721   */\n      swap2\n      pop\n        /* \"#utility.yul\":3614:3731   */\n      pop\n        /* \"#utility.yul\":3542:3738   */\n      swap3\n      swap2\n      pop\n      pop\n      jump\t// out\n        /* \"#utility.yul\":3744:4151   */\n    tag_57:\n      0x00\n      dup1\n        /* \"#utility.yul\":3869:3871   */\n      0x40\n        /* \"#utility.yul\":3857:3866   */\n      dup4\n        /* \"#utility.yul\":3848:3855   */\n      dup6\n        /* \"#utility.yul\":3844:3867   */\n      sub\n        /* \"#utility.yul\":3840:3872   */\n      slt\n        /* \"#utility.yul\":3837:3839   */\n      iszero\n      tag_403\n      jumpi\n        /* \"#utility.yul\":3885:3886   */\n      0x00\n        /* \"#utility.yul\":3882:3883   */\n      dup1\n        /* \"#utility.yul\":3875:3887   */\n      revert\n        /* \"#utility.yul\":3837:3839   */\n    tag_403:\n        /* \"#utility.yul\":3928:3929   */\n      0x00\n        /* \"#utility.yul\":3953:4006   */\n      tag_404\n        /* \"#utility.yul\":3998:4005   */\n      dup6\n        /* \"#utility.yul\":3989:3995   */\n      dup3\n        /* \"#utility.yul\":3978:3987   */\n      dup7\n        /* \"#utility.yul\":3974:3996   */\n      add\n        /* \"#utility.yul\":3953:4006   */\n      tag_366\n      jump\t// in\n    tag_404:\n        /* \"#utility.yul\":3943:4006   */\n      swap3\n      pop\n        /* \"#utility.yul\":3899:4016   */\n      pop\n        /* \"#utility.yul\":4055:4057   */\n      0x20\n        /* \"#utility.yul\":4081:4134   */\n      tag_405\n        /* \"#utility.yul\":4126:4133   */\n      dup6\n        /* \"#utility.yul\":4117:4123   */\n      dup3\n        /* \"#utility.yul\":4106:4115   */\n      dup7\n        /* \"#utility.yul\":4102:4124   */\n      add\n        /* \"#utility.yul\":4081:4134   */\n      tag_357\n      jump\t// in\n    tag_405:\n        /* \"#utility.yul\":4071:4134   */\n      swap2\n      pop\n        /* \"#utility.yul\":4026:4144   */\n      pop\n        /* \"#utility.yul\":3827:4151   */\n      swap3\n      pop\n      swap3\n      swap1\n      pop\n      jump\t// out\n        /* \"#utility.yul\":4157:4870   */\n    tag_125:\n      0x00\n      dup1\n        /* \"#utility.yul\":4342:4344   */\n      0x40\n        /* \"#utility.yul\":4330:4339   */\n      dup4\n        /* \"#utility.yul\":4321:4328   */\n      dup6\n        /* \"#utility.yul\":4317:4340   */\n      sub\n        /* \"#utility.yul\":4313:4345   */\n      slt\n        /* \"#utility.yul\":4310:4312   */\n      iszero\n      tag_407\n      jumpi\n        /* \"#utility.yul\":4358:4359   */\n      0x00\n        /* \"#utility.yul\":4355:4356   */\n      dup1\n        /* \"#utility.yul\":4348:4360   */\n      revert\n        /* \"#utility.yul\":4310:4312   */\n    tag_407:\n        /* \"#utility.yul\":4429:4430   */\n      0x00\n        /* \"#utility.yul\":4418:4427   */\n      dup4\n        /* \"#utility.yul\":4414:4431   */\n      add\n        /* \"#utility.yul\":4401:4432   */\n      calldataload\n        /* \"#utility.yul\":4459:4477   */\n      0xffffffffffffffff\n        /* \"#utility.yul\":4451:4457   */\n      dup2\n        /* \"#utility.yul\":4448:4478   */\n      gt\n        /* \"#utility.yul\":4445:4447   */\n      iszero\n      tag_408\n      jumpi\n        /* \"#utility.yul\":4491:4492   */\n      0x00\n        /* \"#utility.yul\":4488:4489   */\n      dup1\n        /* \"#utility.yul\":4481:4493   */\n      revert\n        /* \"#utility.yul\":4445:4447   */\n    tag_408:\n        /* \"#utility.yul\":4519:4597   */\n      tag_409\n        /* \"#utility.yul\":4589:4596   */\n      dup6\n        /* \"#utility.yul\":4580:4586   */\n      dup3\n        /* \"#utility.yul\":4569:4578   */\n      dup7\n        /* \"#utility.yul\":4565:4587   */\n      add\n        /* \"#utility.yul\":4519:4597   */\n      tag_374\n      jump\t// in\n    tag_409:\n        /* \"#utility.yul\":4509:4597   */\n      swap3\n      pop\n        /* \"#utility.yul\":4372:4607   */\n      pop\n        /* \"#utility.yul\":4674:4676   */\n      0x20\n        /* \"#utility.yul\":4663:4672   */\n      dup4\n        /* \"#utility.yul\":4659:4677   */\n      add\n        /* \"#utility.yul\":4646:4678   */\n      calldataload\n        /* \"#utility.yul\":4705:4723   */\n      0xffffffffffffffff\n        /* \"#utility.yul\":4697:4703   */\n      dup2\n        /* \"#utility.yul\":4694:4724   */\n      gt\n        /* \"#utility.yul\":4691:4693   */\n      iszero\n      tag_410\n      jumpi\n        /* \"#utility.yul\":4737:4738   */\n      0x00\n        /* \"#utility.yul\":4734:4735   */\n      dup1\n        /* \"#utility.yul\":4727:4739   */\n      revert\n        /* \"#utility.yul\":4691:4693   */\n    tag_410:\n        /* \"#utility.yul\":4765:4853   */\n      tag_411\n        /* \"#utility.yul\":4845:4852   */\n      dup6\n        /* \"#utility.yul\":4836:4842   */\n      dup3\n        /* \"#utility.yul\":4825:4834   */\n      dup7\n        /* \"#utility.yul\":4821:4843   */\n      add\n        /* \"#utility.yul\":4765:4853   */\n      tag_370\n      jump\t// in\n    tag_411:\n        /* \"#utility.yul\":4755:4853   */\n      swap2\n      pop\n        /* \"#utility.yul\":4617:4863   */\n      pop\n        /* \"#utility.yul\":4300:4870   */\n      swap3\n      pop\n      swap3\n      swap1\n      pop\n      jump\t// out\n        /* \"#utility.yul\":4876:5154   */\n    tag_214:\n      0x00\n        /* \"#utility.yul\":4992:4994   */\n      0x20\n        /* \"#utility.yul\":4980:4989   */\n      dup3\n        /* \"#utility.yul\":4971:4978   */\n      dup5\n        /* \"#utility.yul\":4967:4990   */\n      sub\n        /* \"#utility.yul\":4963:4995   */\n      slt\n        /* \"#utility.yul\":4960:4962   */\n      iszero\n      tag_413\n      jumpi\n        /* \"#utility.yul\":5008:5009   */\n      0x00\n        /* \"#utility.yul\":5005:5006   */\n      dup1\n        /* \"#utility.yul\":4998:5010   */\n      revert\n        /* \"#utility.yul\":4960:4962   */\n    tag_413:\n        /* \"#utility.yul\":5051:5052   */\n      0x00\n        /* \"#utility.yul\":5076:5137   */\n      tag_414\n        /* \"#utility.yul\":5129:5136   */\n      dup5\n        /* \"#utility.yul\":5120:5126   */\n      dup3\n        /* \"#utility.yul\":5109:5118   */\n      dup6\n        /* \"#utility.yul\":5105:5127   */\n      add\n        /* \"#utility.yul\":5076:5137   */\n      tag_378\n      jump\t// in\n    tag_414:\n        /* \"#utility.yul\":5066:5137   */\n      swap2\n      pop\n        /* \"#utility.yul\":5022:5147   */\n      pop\n        /* \"#utility.yul\":4950:5154   */\n      swap3\n      swap2\n      pop\n      pop\n      jump\t// out\n        /* \"#utility.yul\":5160:5422   */\n    tag_42:\n      0x00\n        /* \"#utility.yul\":5268:5270   */\n      0x20\n        /* \"#utility.yul\":5256:5265   */\n      dup3\n        /* \"#utility.yul\":5247:5254   */\n      dup5\n        /* \"#utility.yul\":5243:5266   */\n      sub\n        /* \"#utility.yul\":5239:5271   */\n      slt\n        /* \"#utility.yul\":5236:5238   */\n      iszero\n      tag_416\n      jumpi\n        /* \"#utility.yul\":5284:5285   */\n      0x00\n        /* \"#utility.yul\":5281:5282   */\n      dup1\n        /* \"#utility.yul\":5274:5286   */\n      revert\n        /* \"#utility.yul\":5236:5238   */\n    tag_416:\n        /* \"#utility.yul\":5327:5328   */\n      0x00\n        /* \"#utility.yul\":5352:5405   */\n      tag_417\n        /* \"#utility.yul\":5397:5404   */\n      dup5\n        /* \"#utility.yul\":5388:5394   */\n      dup3\n        /* \"#utility.yul\":5377:5386   */\n      dup6\n        /* \"#utility.yul\":5373:5395   */\n      add\n        /* \"#utility.yul\":5352:5405   */\n      tag_382\n      jump\t// in\n    tag_417:\n        /* \"#utility.yul\":5342:5405   */\n      swap2\n      pop\n        /* \"#utility.yul\":5298:5415   */\n      pop\n        /* \"#utility.yul\":5226:5422   */\n      swap3\n      swap2\n      pop\n      pop\n      jump\t// out\n        /* \"#utility.yul\":5428:5835   */\n    tag_50:\n      0x00\n      dup1\n        /* \"#utility.yul\":5553:5555   */\n      0x40\n        /* \"#utility.yul\":5541:5550   */\n      dup4\n        /* \"#utility.yul\":5532:5539   */\n      dup6\n        /* \"#utility.yul\":5528:5551   */\n      sub\n        /* \"#utility.yul\":5524:5556   */\n      slt\n        /* \"#utility.yul\":5521:5523   */\n      iszero\n      tag_419\n      jumpi\n        /* \"#utility.yul\":5569:5570   */\n      0x00\n        /* \"#utility.yul\":5566:5567   */\n      dup1\n        /* \"#utility.yul\":5559:5571   */\n      revert\n        /* \"#utility.yul\":5521:5523   */\n    tag_419:\n        /* \"#utility.yul\":5612:5613   */\n      0x00\n        /* \"#utility.yul\":5637:5690   */\n      tag_420\n        /* \"#utility.yul\":5682:5689   */\n      dup6\n        /* \"#utility.yul\":5673:5679   */\n      dup3\n        /* \"#utility.yul\":5662:5671   */\n      dup7\n        /* \"#utility.yul\":5658:5680   */\n      add\n        /* \"#utility.yul\":5637:5690   */\n      tag_382\n      jump\t// in\n    tag_420:\n        /* \"#utility.yul\":5627:5690   */\n      swap3\n      pop\n        /* \"#utility.yul\":5583:5700   */\n      pop\n        /* \"#utility.yul\":5739:5741   */\n      0x20\n        /* \"#utility.yul\":5765:5818   */\n      tag_421\n        /* \"#utility.yul\":5810:5817   */\n      dup6\n        /* \"#utility.yul\":5801:5807   */\n      dup3\n        /* \"#utility.yul\":5790:5799   */\n      dup7\n        /* \"#utility.yul\":5786:5808   */\n      add\n        /* \"#utility.yul\":5765:5818   */\n      tag_366\n      jump\t// in\n    tag_421:\n        /* \"#utility.yul\":5755:5818   */\n      swap2\n      pop\n        /* \"#utility.yul\":5710:5828   */\n      pop\n        /* \"#utility.yul\":5511:5835   */\n      swap3\n      pop\n      swap3\n      swap1\n      pop\n      jump\t// out\n        /* \"#utility.yul\":5841:6101   */\n    tag_36:\n      0x00\n        /* \"#utility.yul\":5948:5950   */\n      0x20\n        /* \"#utility.yul\":5936:5945   */\n      dup3\n        /* \"#utility.yul\":5927:5934   */\n      dup5\n        /* \"#utility.yul\":5923:5946   */\n      sub\n        /* \"#utility.yul\":5919:5951   */\n      slt\n        /* \"#utility.yul\":5916:5918   */\n      iszero\n      tag_423\n      jumpi\n        /* \"#utility.yul\":5964:5965   */\n      0x00\n        /* \"#utility.yul\":5961:5962   */\n      dup1\n        /* \"#utility.yul\":5954:5966   */\n      revert\n        /* \"#utility.yul\":5916:5918   */\n    tag_423:\n        /* \"#utility.yul\":6007:6008   */\n      0x00\n        /* \"#utility.yul\":6032:6084   */\n      tag_424\n        /* \"#utility.yul\":6076:6083   */\n      dup5\n        /* \"#utility.yul\":6067:6073   */\n      dup3\n        /* \"#utility.yul\":6056:6065   */\n      dup6\n        /* \"#utility.yul\":6052:6074   */\n      add\n        /* \"#utility.yul\":6032:6084   */\n      tag_386\n      jump\t// in\n    tag_424:\n        /* \"#utility.yul\":6022:6084   */\n      swap2\n      pop\n        /* \"#utility.yul\":5978:6094   */\n      pop\n        /* \"#utility.yul\":5906:6101   */\n      swap3\n      swap2\n      pop\n      pop\n      jump\t// out\n        /* \"#utility.yul\":6107:6369   */\n    tag_66:\n      0x00\n        /* \"#utility.yul\":6215:6217   */\n      0x20\n        /* \"#utility.yul\":6203:6212   */\n      dup3\n        /* \"#utility.yul\":6194:6201   */\n      dup5\n        /* \"#utility.yul\":6190:6213   */\n      sub\n        /* \"#utility.yul\":6186:6218   */\n      slt\n        /* \"#utility.yul\":6183:6185   */\n      iszero\n      tag_426\n      jumpi\n        /* \"#utility.yul\":6231:6232   */\n      0x00\n        /* \"#utility.yul\":6228:6229   */\n      dup1\n        /* \"#utility.yul\":6221:6233   */\n      revert\n        /* \"#utility.yul\":6183:6185   */\n    tag_426:\n        /* \"#utility.yul\":6274:6275   */\n      0x00\n        /* \"#utility.yul\":6299:6352   */\n      tag_427\n        /* \"#utility.yul\":6344:6351   */\n      dup5\n        /* \"#utility.yul\":6335:6341   */\n      dup3\n        /* \"#utility.yul\":6324:6333   */\n      dup6\n        /* \"#utility.yul\":6320:6342   */\n      add\n        /* \"#utility.yul\":6299:6352   */\n      tag_357\n      jump\t// in\n    tag_427:\n        /* \"#utility.yul\":6289:6352   */\n      swap2\n      pop\n        /* \"#utility.yul\":6245:6362   */\n      pop\n        /* \"#utility.yul\":6173:6369   */\n      swap3\n      swap2\n      pop\n      pop\n      jump\t// out\n        /* \"#utility.yul\":6375:6659   */\n    tag_177:\n      0x00\n        /* \"#utility.yul\":6494:6496   */\n      0x20\n        /* \"#utility.yul\":6482:6491   */\n      dup3\n        /* \"#utility.yul\":6473:6480   */\n      dup5\n        /* \"#utility.yul\":6469:6492   */\n      sub\n        /* \"#utility.yul\":6465:6497   */\n      slt\n        /* \"#utility.yul\":6462:6464   */\n      iszero\n      tag_429\n      jumpi\n        /* \"#utility.yul\":6510:6511   */\n      0x00\n        /* \"#utility.yul\":6507:6508   */\n      dup1\n        /* \"#utility.yul\":6500:6512   */\n      revert\n        /* \"#utility.yul\":6462:6464   */\n    tag_429:\n        /* \"#utility.yul\":6553:6554   */\n      0x00\n        /* \"#utility.yul\":6578:6642   */\n      tag_430\n        /* \"#utility.yul\":6634:6641   */\n      dup5\n        /* \"#utility.yul\":6625:6631   */\n      dup3\n        /* \"#utility.yul\":6614:6623   */\n      dup6\n        /* \"#utility.yul\":6610:6632   */\n      add\n        /* \"#utility.yul\":6578:6642   */\n      tag_396\n      jump\t// in\n    tag_430:\n        /* \"#utility.yul\":6568:6642   */\n      swap2\n      pop\n        /* \"#utility.yul\":6524:6652   */\n      pop\n        /* \"#utility.yul\":6452:6659   */\n      swap3\n      swap2\n      pop\n      pop\n      jump\t// out\n        /* \"#utility.yul\":6665:6861   */\n    tag_431:\n      0x00\n        /* \"#utility.yul\":6789:6855   */\n      tag_433\n        /* \"#utility.yul\":6851:6854   */\n      dup4\n        /* \"#utility.yul\":6843:6849   */\n      dup4\n        /* \"#utility.yul\":6789:6855   */\n      tag_434\n      jump\t// in\n    tag_433:\n        /* \"#utility.yul\":6775:6855   */\n      swap1\n      pop\n        /* \"#utility.yul\":6765:6861   */\n      swap3\n      swap2\n      pop\n      pop\n      jump\t// out\n        /* \"#utility.yul\":6867:7046   */\n    tag_435:\n      0x00\n        /* \"#utility.yul\":6957:7003   */\n      tag_437\n        /* \"#utility.yul\":6999:7002   */\n      dup4\n        /* \"#utility.yul\":6991:6997   */\n      dup4\n        /* \"#utility.yul\":6957:7003   */\n      tag_438\n      jump\t// in\n    tag_437:\n        /* \"#utility.yul\":7035:7039   */\n      0x20\n        /* \"#utility.yul\":7030:7033   */\n      dup4\n        /* \"#utility.yul\":7026:7040   */\n      add\n        /* \"#utility.yul\":7012:7040   */\n      swap1\n      pop\n        /* \"#utility.yul\":6947:7046   */\n      swap3\n      swap2\n      pop\n      pop\n      jump\t// out\n        /* \"#utility.yul\":7052:7170   */\n    tag_439:\n        /* \"#utility.yul\":7139:7163   */\n      tag_441\n        /* \"#utility.yul\":7157:7162   */\n      dup2\n        /* \"#utility.yul\":7139:7163   */\n      tag_442\n      jump\t// in\n    tag_441:\n        /* \"#utility.yul\":7134:7137   */\n      dup3\n        /* \"#utility.yul\":7127:7164   */\n      mstore\n        /* \"#utility.yul\":7117:7170   */\n      pop\n      pop\n      jump\t// out\n        /* \"#utility.yul\":7176:7333   */\n    tag_443:\n        /* \"#utility.yul\":7281:7326   */\n      tag_445\n        /* \"#utility.yul\":7301:7325   */\n      tag_446\n        /* \"#utility.yul\":7319:7324   */\n      dup3\n        /* \"#utility.yul\":7301:7325   */\n      tag_442\n      jump\t// in\n    tag_446:\n        /* \"#utility.yul\":7281:7326   */\n      tag_447\n      jump\t// in\n    tag_445:\n        /* \"#utility.yul\":7276:7279   */\n      dup3\n        /* \"#utility.yul\":7269:7327   */\n      mstore\n        /* \"#utility.yul\":7259:7333   */\n      pop\n      pop\n      jump\t// out\n        /* \"#utility.yul\":7367:8358   */\n    tag_448:\n      0x00\n        /* \"#utility.yul\":7535:7599   */\n      tag_450\n        /* \"#utility.yul\":7593:7598   */\n      dup3\n        /* \"#utility.yul\":7535:7599   */\n      tag_451\n      jump\t// in\n    tag_450:\n        /* \"#utility.yul\":7615:7711   */\n      tag_452\n        /* \"#utility.yul\":7704:7710   */\n      dup2\n        /* \"#utility.yul\":7699:7702   */\n      dup6\n        /* \"#utility.yul\":7615:7711   */\n      tag_453\n      jump\t// in\n    tag_452:\n        /* \"#utility.yul\":7608:7711   */\n      swap4\n      pop\n        /* \"#utility.yul\":7737:7740   */\n      dup4\n        /* \"#utility.yul\":7782:7786   */\n      0x20\n        /* \"#utility.yul\":7774:7780   */\n      dup3\n        /* \"#utility.yul\":7770:7787   */\n      mul\n        /* \"#utility.yul\":7765:7768   */\n      dup6\n        /* \"#utility.yul\":7761:7788   */\n      add\n        /* \"#utility.yul\":7812:7878   */\n      tag_454\n        /* \"#utility.yul\":7872:7877   */\n      dup6\n        /* \"#utility.yul\":7812:7878   */\n      tag_455\n      jump\t// in\n    tag_454:\n        /* \"#utility.yul\":7901:7908   */\n      dup1\n        /* \"#utility.yul\":7932:7933   */\n      0x00\n        /* \"#utility.yul\":7917:8313   */\n    tag_456:\n        /* \"#utility.yul\":7942:7948   */\n      dup6\n        /* \"#utility.yul\":7939:7940   */\n      dup2\n        /* \"#utility.yul\":7936:7949   */\n      lt\n        /* \"#utility.yul\":7917:8313   */\n      iszero\n      tag_458\n      jumpi\n        /* \"#utility.yul\":8013:8022   */\n      dup5\n        /* \"#utility.yul\":8007:8011   */\n      dup5\n        /* \"#utility.yul\":8003:8023   */\n      sub\n        /* \"#utility.yul\":7998:8001   */\n      dup10\n        /* \"#utility.yul\":7991:8024   */\n      mstore\n        /* \"#utility.yul\":8064:8070   */\n      dup2\n        /* \"#utility.yul\":8058:8071   */\n      mload\n        /* \"#utility.yul\":8092:8176   */\n      tag_459\n        /* \"#utility.yul\":8171:8175   */\n      dup6\n        /* \"#utility.yul\":8156:8169   */\n      dup3\n        /* \"#utility.yul\":8092:8176   */\n      tag_431\n      jump\t// in\n    tag_459:\n        /* \"#utility.yul\":8084:8176   */\n      swap5\n      pop\n        /* \"#utility.yul\":8199:8269   */\n      tag_460\n        /* \"#utility.yul\":8262:8268   */\n      dup4\n        /* \"#utility.yul\":8199:8269   */\n      tag_461\n      jump\t// in\n    tag_460:\n        /* \"#utility.yul\":8189:8269   */\n      swap3\n      pop\n        /* \"#utility.yul\":8298:8302   */\n      0x20\n        /* \"#utility.yul\":8293:8296   */\n      dup11\n        /* \"#utility.yul\":8289:8303   */\n      add\n        /* \"#utility.yul\":8282:8303   */\n      swap10\n      pop\n        /* \"#utility.yul\":7977:8313   */\n      pop\n        /* \"#utility.yul\":7964:7965   */\n      0x01\n        /* \"#utility.yul\":7961:7962   */\n      dup2\n        /* \"#utility.yul\":7957:7966   */\n      add\n        /* \"#utility.yul\":7952:7966   */\n      swap1\n      pop\n        /* \"#utility.yul\":7917:8313   */\n      jump(tag_456)\n    tag_458:\n        /* \"#utility.yul\":7921:7935   */\n      pop\n        /* \"#utility.yul\":8329:8333   */\n      dup3\n        /* \"#utility.yul\":8322:8333   */\n      swap8\n      pop\n        /* \"#utility.yul\":8349:8352   */\n      dup8\n        /* \"#utility.yul\":8342:8352   */\n      swap6\n      pop\n        /* \"#utility.yul\":7511:8358   */\n      pop\n      pop\n      pop\n      pop\n      pop\n      swap3\n      swap2\n      pop\n      pop\n      jump\t// out\n        /* \"#utility.yul\":8394:9126   */\n    tag_462:\n      0x00\n        /* \"#utility.yul\":8542:8596   */\n      tag_464\n        /* \"#utility.yul\":8590:8595   */\n      dup3\n        /* \"#utility.yul\":8542:8596   */\n      tag_465\n      jump\t// in\n    tag_464:\n        /* \"#utility.yul\":8612:8698   */\n      tag_466\n        /* \"#utility.yul\":8691:8697   */\n      dup2\n        /* \"#utility.yul\":8686:8689   */\n      dup6\n        /* \"#utility.yul\":8612:8698   */\n      tag_467\n      jump\t// in\n    tag_466:\n        /* \"#utility.yul\":8605:8698   */\n      swap4\n      pop\n        /* \"#utility.yul\":8722:8778   */\n      tag_468\n        /* \"#utility.yul\":8772:8777   */\n      dup4\n        /* \"#utility.yul\":8722:8778   */\n      tag_469\n      jump\t// in\n    tag_468:\n        /* \"#utility.yul\":8801:8808   */\n      dup1\n        /* \"#utility.yul\":8832:8833   */\n      0x00\n        /* \"#utility.yul\":8817:9101   */\n    tag_470:\n        /* \"#utility.yul\":8842:8848   */\n      dup4\n        /* \"#utility.yul\":8839:8840   */\n      dup2\n        /* \"#utility.yul\":8836:8849   */\n      lt\n        /* \"#utility.yul\":8817:9101   */\n      iszero\n      tag_472\n      jumpi\n        /* \"#utility.yul\":8918:8924   */\n      dup2\n        /* \"#utility.yul\":8912:8925   */\n      mload\n        /* \"#utility.yul\":8945:9008   */\n      tag_473\n        /* \"#utility.yul\":9004:9007   */\n      dup9\n        /* \"#utility.yul\":8989:9002   */\n      dup3\n        /* \"#utility.yul\":8945:9008   */\n      tag_435\n      jump\t// in\n    tag_473:\n        /* \"#utility.yul\":8938:9008   */\n      swap8\n      pop\n        /* \"#utility.yul\":9031:9091   */\n      tag_474\n        /* \"#utility.yul\":9084:9090   */\n      dup4\n        /* \"#utility.yul\":9031:9091   */\n      tag_475\n      jump\t// in\n    tag_474:\n        /* \"#utility.yul\":9021:9091   */\n      swap3\n      pop\n        /* \"#utility.yul\":8877:9101   */\n      pop\n        /* \"#utility.yul\":8864:8865   */\n      0x01\n        /* \"#utility.yul\":8861:8862   */\n      dup2\n        /* \"#utility.yul\":8857:8866   */\n      add\n        /* \"#utility.yul\":8852:8866   */\n      swap1\n      pop\n        /* \"#utility.yul\":8817:9101   */\n      jump(tag_470)\n    tag_472:\n        /* \"#utility.yul\":8821:8835   */\n      pop\n        /* \"#utility.yul\":9117:9120   */\n      dup6\n        /* \"#utility.yul\":9110:9120   */\n      swap4\n      pop\n        /* \"#utility.yul\":8518:9126   */\n      pop\n      pop\n      pop\n      swap3\n      swap2\n      pop\n      pop\n      jump\t// out\n        /* \"#utility.yul\":9132:9241   */\n    tag_476:\n        /* \"#utility.yul\":9213:9234   */\n      tag_478\n        /* \"#utility.yul\":9228:9233   */\n      dup2\n        /* \"#utility.yul\":9213:9234   */\n      tag_479\n      jump\t// in\n    tag_478:\n        /* \"#utility.yul\":9208:9211   */\n      dup3\n        /* \"#utility.yul\":9201:9235   */\n      mstore\n        /* \"#utility.yul\":9191:9241   */\n      pop\n      pop\n      jump\t// out\n        /* \"#utility.yul\":9247:9365   */\n    tag_480:\n        /* \"#utility.yul\":9334:9358   */\n      tag_482\n        /* \"#utility.yul\":9352:9357   */\n      dup2\n        /* \"#utility.yul\":9334:9358   */\n      tag_483\n      jump\t// in\n    tag_482:\n        /* \"#utility.yul\":9329:9332   */\n      dup3\n        /* \"#utility.yul\":9322:9359   */\n      mstore\n        /* \"#utility.yul\":9312:9365   */\n      pop\n      pop\n      jump\t// out\n        /* \"#utility.yul\":9371:9542   */\n    tag_484:\n        /* \"#utility.yul\":9478:9535   */\n      tag_486\n        /* \"#utility.yul\":9529:9534   */\n      dup2\n        /* \"#utility.yul\":9478:9535   */\n      tag_487\n      jump\t// in\n    tag_486:\n        /* \"#utility.yul\":9473:9476   */\n      dup3\n        /* \"#utility.yul\":9466:9536   */\n      mstore\n        /* \"#utility.yul\":9456:9542   */\n      pop\n      pop\n      jump\t// out\n        /* \"#utility.yul\":9548:9739   */\n    tag_488:\n        /* \"#utility.yul\":9665:9732   */\n      tag_490\n        /* \"#utility.yul\":9726:9731   */\n      dup2\n        /* \"#utility.yul\":9665:9732   */\n      tag_491\n      jump\t// in\n    tag_490:\n        /* \"#utility.yul\":9660:9663   */\n      dup3\n        /* \"#utility.yul\":9653:9733   */\n      mstore\n        /* \"#utility.yul\":9643:9739   */\n      pop\n      pop\n      jump\t// out\n        /* \"#utility.yul\":9745:9916   */\n    tag_492:\n        /* \"#utility.yul\":9852:9909   */\n      tag_494\n        /* \"#utility.yul\":9903:9908   */\n      dup2\n        /* \"#utility.yul\":9852:9909   */\n      tag_495\n      jump\t// in\n    tag_494:\n        /* \"#utility.yul\":9847:9850   */\n      dup3\n        /* \"#utility.yul\":9840:9910   */\n      mstore\n        /* \"#utility.yul\":9830:9916   */\n      pop\n      pop\n      jump\t// out\n        /* \"#utility.yul\":9922:10266   */\n    tag_434:\n      0x00\n        /* \"#utility.yul\":10028:10067   */\n      tag_497\n        /* \"#utility.yul\":10061:10066   */\n      dup3\n        /* \"#utility.yul\":10028:10067   */\n      tag_498\n      jump\t// in\n    tag_497:\n        /* \"#utility.yul\":10083:10144   */\n      tag_499\n        /* \"#utility.yul\":10137:10143   */\n      dup2\n        /* \"#utility.yul\":10132:10135   */\n      dup6\n        /* \"#utility.yul\":10083:10144   */\n      tag_500\n      jump\t// in\n    tag_499:\n        /* \"#utility.yul\":10076:10144   */\n      swap4\n      pop\n        /* \"#utility.yul\":10153:10205   */\n      tag_501\n        /* \"#utility.yul\":10198:10204   */\n      dup2\n        /* \"#utility.yul\":10193:10196   */\n      dup6\n        /* \"#utility.yul\":10186:10190   */\n      0x20\n        /* \"#utility.yul\":10179:10184   */\n      dup7\n        /* \"#utility.yul\":10175:10191   */\n      add\n        /* \"#utility.yul\":10153:10205   */\n      tag_502\n      jump\t// in\n    tag_501:\n        /* \"#utility.yul\":10230:10259   */\n      tag_503\n        /* \"#utility.yul\":10252:10258   */\n      dup2\n        /* \"#utility.yul\":10230:10259   */\n      tag_504\n      jump\t// in\n    tag_503:\n        /* \"#utility.yul\":10225:10228   */\n      dup5\n        /* \"#utility.yul\":10221:10260   */\n      add\n        /* \"#utility.yul\":10214:10260   */\n      swap2\n      pop\n        /* \"#utility.yul\":10004:10266   */\n      pop\n      swap3\n      swap2\n      pop\n      pop\n      jump\t// out\n        /* \"#utility.yul\":10272:10636   */\n    tag_505:\n      0x00\n        /* \"#utility.yul\":10388:10427   */\n      tag_507\n        /* \"#utility.yul\":10421:10426   */\n      dup3\n        /* \"#utility.yul\":10388:10427   */\n      tag_498\n      jump\t// in\n    tag_507:\n        /* \"#utility.yul\":10443:10514   */\n      tag_508\n        /* \"#utility.yul\":10507:10513   */\n      dup2\n        /* \"#utility.yul\":10502:10505   */\n      dup6\n        /* \"#utility.yul\":10443:10514   */\n      tag_509\n      jump\t// in\n    tag_508:\n        /* \"#utility.yul\":10436:10514   */\n      swap4\n      pop\n        /* \"#utility.yul\":10523:10575   */\n      tag_510\n        /* \"#utility.yul\":10568:10574   */\n      dup2\n        /* \"#utility.yul\":10563:10566   */\n      dup6\n        /* \"#utility.yul\":10556:10560   */\n      0x20\n        /* \"#utility.yul\":10549:10554   */\n      dup7\n        /* \"#utility.yul\":10545:10561   */\n      add\n        /* \"#utility.yul\":10523:10575   */\n      tag_502\n      jump\t// in\n    tag_510:\n        /* \"#utility.yul\":10600:10629   */\n      tag_511\n        /* \"#utility.yul\":10622:10628   */\n      dup2\n        /* \"#utility.yul\":10600:10629   */\n      tag_504\n      jump\t// in\n    tag_511:\n        /* \"#utility.yul\":10595:10598   */\n      dup5\n        /* \"#utility.yul\":10591:10630   */\n      add\n        /* \"#utility.yul\":10584:10630   */\n      swap2\n      pop\n        /* \"#utility.yul\":10364:10636   */\n      pop\n      swap3\n      swap2\n      pop\n      pop\n      jump\t// out\n        /* \"#utility.yul\":10642:11019   */\n    tag_512:\n      0x00\n        /* \"#utility.yul\":10776:10815   */\n      tag_514\n        /* \"#utility.yul\":10809:10814   */\n      dup3\n        /* \"#utility.yul\":10776:10815   */\n      tag_498\n      jump\t// in\n    tag_514:\n        /* \"#utility.yul\":10831:10920   */\n      tag_515\n        /* \"#utility.yul\":10913:10919   */\n      dup2\n        /* \"#utility.yul\":10908:10911   */\n      dup6\n        /* \"#utility.yul\":10831:10920   */\n      tag_516\n      jump\t// in\n    tag_515:\n        /* \"#utility.yul\":10824:10920   */\n      swap4\n      pop\n        /* \"#utility.yul\":10929:10981   */\n      tag_517\n        /* \"#utility.yul\":10974:10980   */\n      dup2\n        /* \"#utility.yul\":10969:10972   */\n      dup6\n        /* \"#utility.yul\":10962:10966   */\n      0x20\n        /* \"#utility.yul\":10955:10960   */\n      dup7\n        /* \"#utility.yul\":10951:10967   */\n      add\n        /* \"#utility.yul\":10929:10981   */\n      tag_502\n      jump\t// in\n    tag_517:\n        /* \"#utility.yul\":11006:11012   */\n      dup1\n        /* \"#utility.yul\":11001:11004   */\n      dup5\n        /* \"#utility.yul\":10997:11013   */\n      add\n        /* \"#utility.yul\":10990:11013   */\n      swap2\n      pop\n        /* \"#utility.yul\":10752:11019   */\n      pop\n      swap3\n      swap2\n      pop\n      pop\n      jump\t// out\n        /* \"#utility.yul\":11025:11391   */\n    tag_518:\n      0x00\n        /* \"#utility.yul\":11188:11255   */\n      tag_520\n        /* \"#utility.yul\":11252:11254   */\n      0x20\n        /* \"#utility.yul\":11247:11250   */\n      dup4\n        /* \"#utility.yul\":11188:11255   */\n      tag_509\n      jump\t// in\n    tag_520:\n        /* \"#utility.yul\":11181:11255   */\n      swap2\n      pop\n        /* \"#utility.yul\":11264:11357   */\n      tag_521\n        /* \"#utility.yul\":11353:11356   */\n      dup3\n        /* \"#utility.yul\":11264:11357   */\n      tag_522\n      jump\t// in\n    tag_521:\n        /* \"#utility.yul\":11382:11384   */\n      0x20\n        /* \"#utility.yul\":11377:11380   */\n      dup3\n        /* \"#utility.yul\":11373:11385   */\n      add\n        /* \"#utility.yul\":11366:11385   */\n      swap1\n      pop\n        /* \"#utility.yul\":11171:11391   */\n      swap2\n      swap1\n      pop\n      jump\t// out\n        /* \"#utility.yul\":11397:11797   */\n    tag_523:\n      0x00\n        /* \"#utility.yul\":11578:11662   */\n      tag_525\n        /* \"#utility.yul\":11660:11661   */\n      0x08\n        /* \"#utility.yul\":11655:11658   */\n      dup4\n        /* \"#utility.yul\":11578:11662   */\n      tag_516\n      jump\t// in\n    tag_525:\n        /* \"#utility.yul\":11571:11662   */\n      swap2\n      pop\n        /* \"#utility.yul\":11671:11764   */\n      tag_526\n        /* \"#utility.yul\":11760:11763   */\n      dup3\n        /* \"#utility.yul\":11671:11764   */\n      tag_527\n      jump\t// in\n    tag_526:\n        /* \"#utility.yul\":11789:11790   */\n      0x08\n        /* \"#utility.yul\":11784:11787   */\n      dup3\n        /* \"#utility.yul\":11780:11791   */\n      add\n        /* \"#utility.yul\":11773:11791   */\n      swap1\n      pop\n        /* \"#utility.yul\":11561:11797   */\n      swap2\n      swap1\n      pop\n      jump\t// out\n        /* \"#utility.yul\":11803:12169   */\n    tag_528:\n      0x00\n        /* \"#utility.yul\":11966:12033   */\n      tag_530\n        /* \"#utility.yul\":12030:12032   */\n      0x36\n        /* \"#utility.yul\":12025:12028   */\n      dup4\n        /* \"#utility.yul\":11966:12033   */\n      tag_509\n      jump\t// in\n    tag_530:\n        /* \"#utility.yul\":11959:12033   */\n      swap2\n      pop\n        /* \"#utility.yul\":12042:12135   */\n      tag_531\n        /* \"#utility.yul\":12131:12134   */\n      dup3\n        /* \"#utility.yul\":12042:12135   */\n      tag_532\n      jump\t// in\n    tag_531:\n        /* \"#utility.yul\":12160:12162   */\n      0x40\n        /* \"#utility.yul\":12155:12158   */\n      dup3\n        /* \"#utility.yul\":12151:12163   */\n      add\n        /* \"#utility.yul\":12144:12163   */\n      swap1\n      pop\n        /* \"#utility.yul\":11949:12169   */\n      swap2\n      swap1\n      pop\n      jump\t// out\n        /* \"#utility.yul\":12175:12541   */\n    tag_533:\n      0x00\n        /* \"#utility.yul\":12338:12405   */\n      tag_535\n        /* \"#utility.yul\":12402:12404   */\n      0x1b\n        /* \"#utility.yul\":12397:12400   */\n      dup4\n        /* \"#utility.yul\":12338:12405   */\n      tag_509\n      jump\t// in\n    tag_535:\n        /* \"#utility.yul\":12331:12405   */\n      swap2\n      pop\n        /* \"#utility.yul\":12414:12507   */\n      tag_536\n        /* \"#utility.yul\":12503:12506   */\n      dup3\n        /* \"#utility.yul\":12414:12507   */\n      tag_537\n      jump\t// in\n    tag_536:\n        /* \"#utility.yul\":12532:12534   */\n      0x20\n        /* \"#utility.yul\":12527:12530   */\n      dup3\n        /* \"#utility.yul\":12523:12535   */\n      add\n        /* \"#utility.yul\":12516:12535   */\n      swap1\n      pop\n        /* \"#utility.yul\":12321:12541   */\n      swap2\n      swap1\n      pop\n      jump\t// out\n        /* \"#utility.yul\":12547:12913   */\n    tag_538:\n      0x00\n        /* \"#utility.yul\":12710:12777   */\n      tag_540\n        /* \"#utility.yul\":12774:12776   */\n      0x23\n        /* \"#utility.yul\":12769:12772   */\n      dup4\n        /* \"#utility.yul\":12710:12777   */\n      tag_509\n      jump\t// in\n    tag_540:\n        /* \"#utility.yul\":12703:12777   */\n      swap2\n      pop\n        /* \"#utility.yul\":12786:12879   */\n      tag_541\n        /* \"#utility.yul\":12875:12878   */\n      dup3\n        /* \"#utility.yul\":12786:12879   */\n      tag_542\n      jump\t// in\n    tag_541:\n        /* \"#utility.yul\":12904:12906   */\n      0x40\n        /* \"#utility.yul\":12899:12902   */\n      dup3\n        /* \"#utility.yul\":12895:12907   */\n      add\n        /* \"#utility.yul\":12888:12907   */\n      swap1\n      pop\n        /* \"#utility.yul\":12693:12913   */\n      swap2\n      swap1\n      pop\n      jump\t// out\n        /* \"#utility.yul\":12919:13285   */\n    tag_543:\n      0x00\n        /* \"#utility.yul\":13082:13149   */\n      tag_545\n        /* \"#utility.yul\":13146:13148   */\n      0x22\n        /* \"#utility.yul\":13141:13144   */\n      dup4\n        /* \"#utility.yul\":13082:13149   */\n      tag_509\n      jump\t// in\n    tag_545:\n        /* \"#utility.yul\":13075:13149   */\n      swap2\n      pop\n        /* \"#utility.yul\":13158:13251   */\n      tag_546\n        /* \"#utility.yul\":13247:13250   */\n      dup3\n        /* \"#utility.yul\":13158:13251   */\n      tag_547\n      jump\t// in\n    tag_546:\n        /* \"#utility.yul\":13276:13278   */\n      0x40\n        /* \"#utility.yul\":13271:13274   */\n      dup3\n        /* \"#utility.yul\":13267:13279   */\n      add\n        /* \"#utility.yul\":13260:13279   */\n      swap1\n      pop\n        /* \"#utility.yul\":13065:13285   */\n      swap2\n      swap1\n      pop\n      jump\t// out\n        /* \"#utility.yul\":13291:13691   */\n    tag_548:\n      0x00\n        /* \"#utility.yul\":13472:13556   */\n      tag_550\n        /* \"#utility.yul\":13554:13555   */\n      0x01\n        /* \"#utility.yul\":13549:13552   */\n      dup4\n        /* \"#utility.yul\":13472:13556   */\n      tag_516\n      jump\t// in\n    tag_550:\n        /* \"#utility.yul\":13465:13556   */\n      swap2\n      pop\n        /* \"#utility.yul\":13565:13658   */\n      tag_551\n        /* \"#utility.yul\":13654:13657   */\n      dup3\n        /* \"#utility.yul\":13565:13658   */\n      tag_552\n      jump\t// in\n    tag_551:\n        /* \"#utility.yul\":13683:13684   */\n      0x01\n        /* \"#utility.yul\":13678:13681   */\n      dup3\n        /* \"#utility.yul\":13674:13685   */\n      add\n        /* \"#utility.yul\":13667:13685   */\n      swap1\n      pop\n        /* \"#utility.yul\":13455:13691   */\n      swap2\n      swap1\n      pop\n      jump\t// out\n        /* \"#utility.yul\":13697:14099   */\n    tag_553:\n      0x00\n        /* \"#utility.yul\":13878:13963   */\n      tag_555\n        /* \"#utility.yul\":13960:13962   */\n      0x30\n        /* \"#utility.yul\":13955:13958   */\n      dup4\n        /* \"#utility.yul\":13878:13963   */\n      tag_516\n      jump\t// in\n    tag_555:\n        /* \"#utility.yul\":13871:13963   */\n      swap2\n      pop\n        /* \"#utility.yul\":13972:14065   */\n      tag_556\n        /* \"#utility.yul\":14061:14064   */\n      dup3\n        /* \"#utility.yul\":13972:14065   */\n      tag_557\n      jump\t// in\n    tag_556:\n        /* \"#utility.yul\":14090:14092   */\n      0x30\n        /* \"#utility.yul\":14085:14088   */\n      dup3\n        /* \"#utility.yul\":14081:14093   */\n      add\n        /* \"#utility.yul\":14074:14093   */\n      swap1\n      pop\n        /* \"#utility.yul\":13861:14099   */\n      swap2\n      swap1\n      pop\n      jump\t// out\n        /* \"#utility.yul\":14105:14471   */\n    tag_558:\n      0x00\n        /* \"#utility.yul\":14268:14335   */\n      tag_560\n        /* \"#utility.yul\":14332:14334   */\n      0x16\n        /* \"#utility.yul\":14327:14330   */\n      dup4\n        /* \"#utility.yul\":14268:14335   */\n      tag_509\n      jump\t// in\n    tag_560:\n        /* \"#utility.yul\":14261:14335   */\n      swap2\n      pop\n        /* \"#utility.yul\":14344:14437   */\n      tag_561\n        /* \"#utility.yul\":14433:14436   */\n      dup3\n        /* \"#utility.yul\":14344:14437   */\n      tag_562\n      jump\t// in\n    tag_561:\n        /* \"#utility.yul\":14462:14464   */\n      0x20\n        /* \"#utility.yul\":14457:14460   */\n      dup3\n        /* \"#utility.yul\":14453:14465   */\n      add\n        /* \"#utility.yul\":14446:14465   */\n      swap1\n      pop\n        /* \"#utility.yul\":14251:14471   */\n      swap2\n      swap1\n      pop\n      jump\t// out\n        /* \"#utility.yul\":14477:14843   */\n    tag_563:\n      0x00\n        /* \"#utility.yul\":14640:14707   */\n      tag_565\n        /* \"#utility.yul\":14704:14706   */\n      0x1f\n        /* \"#utility.yul\":14699:14702   */\n      dup4\n        /* \"#utility.yul\":14640:14707   */\n      tag_509\n      jump\t// in\n    tag_565:\n        /* \"#utility.yul\":14633:14707   */\n      swap2\n      pop\n        /* \"#utility.yul\":14716:14809   */\n      tag_566\n        /* \"#utility.yul\":14805:14808   */\n      dup3\n        /* \"#utility.yul\":14716:14809   */\n      tag_567\n      jump\t// in\n    tag_566:\n        /* \"#utility.yul\":14834:14836   */\n      0x20\n        /* \"#utility.yul\":14829:14832   */\n      dup3\n        /* \"#utility.yul\":14825:14837   */\n      add\n        /* \"#utility.yul\":14818:14837   */\n      swap1\n      pop\n        /* \"#utility.yul\":14623:14843   */\n      swap2\n      swap1\n      pop\n      jump\t// out\n        /* \"#utility.yul\":14849:15251   */\n    tag_568:\n      0x00\n        /* \"#utility.yul\":15030:15115   */\n      tag_570\n        /* \"#utility.yul\":15112:15114   */\n      0x17\n        /* \"#utility.yul\":15107:15110   */\n      dup4\n        /* \"#utility.yul\":15030:15115   */\n      tag_516\n      jump\t// in\n    tag_570:\n        /* \"#utility.yul\":15023:15115   */\n      swap2\n      pop\n        /* \"#utility.yul\":15124:15217   */\n      tag_571\n        /* \"#utility.yul\":15213:15216   */\n      dup3\n        /* \"#utility.yul\":15124:15217   */\n      tag_572\n      jump\t// in\n    tag_571:\n        /* \"#utility.yul\":15242:15244   */\n      0x17\n        /* \"#utility.yul\":15237:15240   */\n      dup3\n        /* \"#utility.yul\":15233:15245   */\n      add\n        /* \"#utility.yul\":15226:15245   */\n      swap1\n      pop\n        /* \"#utility.yul\":15013:15251   */\n      swap2\n      swap1\n      pop\n      jump\t// out\n        /* \"#utility.yul\":15257:15659   */\n    tag_573:\n      0x00\n        /* \"#utility.yul\":15438:15523   */\n      tag_575\n        /* \"#utility.yul\":15520:15522   */\n      0x11\n        /* \"#utility.yul\":15515:15518   */\n      dup4\n        /* \"#utility.yul\":15438:15523   */\n      tag_516\n      jump\t// in\n    tag_575:\n        /* \"#utility.yul\":15431:15523   */\n      swap2\n      pop\n        /* \"#utility.yul\":15532:15625   */\n      tag_576\n        /* \"#utility.yul\":15621:15624   */\n      dup3\n        /* \"#utility.yul\":15532:15625   */\n      tag_577\n      jump\t// in\n    tag_576:\n        /* \"#utility.yul\":15650:15652   */\n      0x11\n        /* \"#utility.yul\":15645:15648   */\n      dup3\n        /* \"#utility.yul\":15641:15653   */\n      add\n        /* \"#utility.yul\":15634:15653   */\n      swap1\n      pop\n        /* \"#utility.yul\":15421:15659   */\n      swap2\n      swap1\n      pop\n      jump\t// out\n        /* \"#utility.yul\":15665:16031   */\n    tag_578:\n      0x00\n        /* \"#utility.yul\":15828:15895   */\n      tag_580\n        /* \"#utility.yul\":15892:15894   */\n      0x2f\n        /* \"#utility.yul\":15887:15890   */\n      dup4\n        /* \"#utility.yul\":15828:15895   */\n      tag_509\n      jump\t// in\n    tag_580:\n        /* \"#utility.yul\":15821:15895   */\n      swap2\n      pop\n        /* \"#utility.yul\":15904:15997   */\n      tag_581\n        /* \"#utility.yul\":15993:15996   */\n      dup3\n        /* \"#utility.yul\":15904:15997   */\n      tag_582\n      jump\t// in\n    tag_581:\n        /* \"#utility.yul\":16022:16024   */\n      0x40\n        /* \"#utility.yul\":16017:16020   */\n      dup3\n        /* \"#utility.yul\":16013:16025   */\n      add\n        /* \"#utility.yul\":16006:16025   */\n      swap1\n      pop\n        /* \"#utility.yul\":15811:16031   */\n      swap2\n      swap1\n      pop\n      jump\t// out\n        /* \"#utility.yul\":16037:16145   */\n    tag_438:\n        /* \"#utility.yul\":16114:16138   */\n      tag_584\n        /* \"#utility.yul\":16132:16137   */\n      dup2\n        /* \"#utility.yul\":16114:16138   */\n      tag_585\n      jump\t// in\n    tag_584:\n        /* \"#utility.yul\":16109:16112   */\n      dup3\n        /* \"#utility.yul\":16102:16139   */\n      mstore\n        /* \"#utility.yul\":16092:16145   */\n      pop\n      pop\n      jump\t// out\n        /* \"#utility.yul\":16151:16269   */\n    tag_586:\n        /* \"#utility.yul\":16238:16262   */\n      tag_588\n        /* \"#utility.yul\":16256:16261   */\n      dup2\n        /* \"#utility.yul\":16238:16262   */\n      tag_585\n      jump\t// in\n    tag_588:\n        /* \"#utility.yul\":16233:16236   */\n      dup3\n        /* \"#utility.yul\":16226:16263   */\n      mstore\n        /* \"#utility.yul\":16216:16269   */\n      pop\n      pop\n      jump\t// out\n        /* \"#utility.yul\":16275:16432   */\n    tag_589:\n        /* \"#utility.yul\":16380:16425   */\n      tag_591\n        /* \"#utility.yul\":16400:16424   */\n      tag_592\n        /* \"#utility.yul\":16418:16423   */\n      dup3\n        /* \"#utility.yul\":16400:16424   */\n      tag_585\n      jump\t// in\n    tag_592:\n        /* \"#utility.yul\":16380:16425   */\n      tag_593\n      jump\t// in\n    tag_591:\n        /* \"#utility.yul\":16375:16378   */\n      dup3\n        /* \"#utility.yul\":16368:16426   */\n      mstore\n        /* \"#utility.yul\":16358:16432   */\n      pop\n      pop\n      jump\t// out\n        /* \"#utility.yul\":16438:17633   */\n    tag_216:\n      0x00\n        /* \"#utility.yul\":16903:17051   */\n      tag_595\n        /* \"#utility.yul\":17047:17050   */\n      dup3\n        /* \"#utility.yul\":16903:17051   */\n      tag_523\n      jump\t// in\n    tag_595:\n        /* \"#utility.yul\":16896:17051   */\n      swap2\n      pop\n        /* \"#utility.yul\":17061:17136   */\n      tag_596\n        /* \"#utility.yul\":17132:17135   */\n      dup3\n        /* \"#utility.yul\":17123:17129   */\n      dup6\n        /* \"#utility.yul\":17061:17136   */\n      tag_443\n      jump\t// in\n    tag_596:\n        /* \"#utility.yul\":17161:17163   */\n      0x14\n        /* \"#utility.yul\":17156:17159   */\n      dup3\n        /* \"#utility.yul\":17152:17164   */\n      add\n        /* \"#utility.yul\":17145:17164   */\n      swap2\n      pop\n        /* \"#utility.yul\":17181:17329   */\n      tag_597\n        /* \"#utility.yul\":17325:17328   */\n      dup3\n        /* \"#utility.yul\":17181:17329   */\n      tag_553\n      jump\t// in\n    tag_597:\n        /* \"#utility.yul\":17174:17329   */\n      swap2\n      pop\n        /* \"#utility.yul\":17339:17414   */\n      tag_598\n        /* \"#utility.yul\":17410:17413   */\n      dup3\n        /* \"#utility.yul\":17401:17407   */\n      dup5\n        /* \"#utility.yul\":17339:17414   */\n      tag_589\n      jump\t// in\n    tag_598:\n        /* \"#utility.yul\":17439:17441   */\n      0x20\n        /* \"#utility.yul\":17434:17437   */\n      dup3\n        /* \"#utility.yul\":17430:17442   */\n      add\n        /* \"#utility.yul\":17423:17442   */\n      swap2\n      pop\n        /* \"#utility.yul\":17459:17607   */\n      tag_599\n        /* \"#utility.yul\":17603:17606   */\n      dup3\n        /* \"#utility.yul\":17459:17607   */\n      tag_548\n      jump\t// in\n    tag_599:\n        /* \"#utility.yul\":17452:17607   */\n      swap2\n      pop\n        /* \"#utility.yul\":17624:17627   */\n      dup2\n        /* \"#utility.yul\":17617:17627   */\n      swap1\n      pop\n        /* \"#utility.yul\":16885:17633   */\n      swap4\n      swap3\n      pop\n      pop\n      pop\n      jump\t// out\n        /* \"#utility.yul\":17639:18606   */\n    tag_300:\n      0x00\n        /* \"#utility.yul\":18043:18191   */\n      tag_601\n        /* \"#utility.yul\":18187:18190   */\n      dup3\n        /* \"#utility.yul\":18043:18191   */\n      tag_568\n      jump\t// in\n    tag_601:\n        /* \"#utility.yul\":18036:18191   */\n      swap2\n      pop\n        /* \"#utility.yul\":18208:18303   */\n      tag_602\n        /* \"#utility.yul\":18299:18302   */\n      dup3\n        /* \"#utility.yul\":18290:18296   */\n      dup6\n        /* \"#utility.yul\":18208:18303   */\n      tag_512\n      jump\t// in\n    tag_602:\n        /* \"#utility.yul\":18201:18303   */\n      swap2\n      pop\n        /* \"#utility.yul\":18320:18468   */\n      tag_603\n        /* \"#utility.yul\":18464:18467   */\n      dup3\n        /* \"#utility.yul\":18320:18468   */\n      tag_573\n      jump\t// in\n    tag_603:\n        /* \"#utility.yul\":18313:18468   */\n      swap2\n      pop\n        /* \"#utility.yul\":18485:18580   */\n      tag_604\n        /* \"#utility.yul\":18576:18579   */\n      dup3\n        /* \"#utility.yul\":18567:18573   */\n      dup5\n        /* \"#utility.yul\":18485:18580   */\n      tag_512\n      jump\t// in\n    tag_604:\n        /* \"#utility.yul\":18478:18580   */\n      swap2\n      pop\n        /* \"#utility.yul\":18597:18600   */\n      dup2\n        /* \"#utility.yul\":18590:18600   */\n      swap1\n      pop\n        /* \"#utility.yul\":18025:18606   */\n      swap4\n      swap3\n      pop\n      pop\n      pop\n      jump\t// out\n        /* \"#utility.yul\":18612:18834   */\n    tag_116:\n      0x00\n        /* \"#utility.yul\":18743:18745   */\n      0x20\n        /* \"#utility.yul\":18732:18741   */\n      dup3\n        /* \"#utility.yul\":18728:18746   */\n      add\n        /* \"#utility.yul\":18720:18746   */\n      swap1\n      pop\n        /* \"#utility.yul\":18756:18827   */\n      tag_606\n        /* \"#utility.yul\":18824:18825   */\n      0x00\n        /* \"#utility.yul\":18813:18822   */\n      dup4\n        /* \"#utility.yul\":18809:18826   */\n      add\n        /* \"#utility.yul\":18800:18806   */\n      dup5\n        /* \"#utility.yul\":18756:18827   */\n      tag_439\n      jump\t// in\n    tag_606:\n        /* \"#utility.yul\":18710:18834   */\n      swap3\n      swap2\n      pop\n      pop\n      jump\t// out\n        /* \"#utility.yul\":18840:19172   */\n    tag_209:\n      0x00\n        /* \"#utility.yul\":18999:19001   */\n      0x40\n        /* \"#utility.yul\":18988:18997   */\n      dup3\n        /* \"#utility.yul\":18984:19002   */\n      add\n        /* \"#utility.yul\":18976:19002   */\n      swap1\n      pop\n        /* \"#utility.yul\":19012:19083   */\n      tag_608\n        /* \"#utility.yul\":19080:19081   */\n      0x00\n        /* \"#utility.yul\":19069:19078   */\n      dup4\n        /* \"#utility.yul\":19065:19082   */\n      add\n        /* \"#utility.yul\":19056:19062   */\n      dup6\n        /* \"#utility.yul\":19012:19083   */\n      tag_439\n      jump\t// in\n    tag_608:\n        /* \"#utility.yul\":19093:19165   */\n      tag_609\n        /* \"#utility.yul\":19161:19163   */\n      0x20\n        /* \"#utility.yul\":19150:19159   */\n      dup4\n        /* \"#utility.yul\":19146:19164   */\n      add\n        /* \"#utility.yul\":19137:19143   */\n      dup5\n        /* \"#utility.yul\":19093:19165   */\n      tag_586\n      jump\t// in\n    tag_609:\n        /* \"#utility.yul\":18966:19172   */\n      swap4\n      swap3\n      pop\n      pop\n      pop\n      jump\t// out\n        /* \"#utility.yul\":19178:19852   */\n    tag_253:\n      0x00\n        /* \"#utility.yul\":19457:19459   */\n      0x40\n        /* \"#utility.yul\":19446:19455   */\n      dup3\n        /* \"#utility.yul\":19442:19460   */\n      add\n        /* \"#utility.yul\":19434:19460   */\n      swap1\n      pop\n        /* \"#utility.yul\":19506:19515   */\n      dup2\n        /* \"#utility.yul\":19500:19504   */\n      dup2\n        /* \"#utility.yul\":19496:19516   */\n      sub\n        /* \"#utility.yul\":19492:19493   */\n      0x00\n        /* \"#utility.yul\":19481:19490   */\n      dup4\n        /* \"#utility.yul\":19477:19494   */\n      add\n        /* \"#utility.yul\":19470:19517   */\n      mstore\n        /* \"#utility.yul\":19534:19642   */\n      tag_611\n        /* \"#utility.yul\":19637:19641   */\n      dup2\n        /* \"#utility.yul\":19628:19634   */\n      dup6\n        /* \"#utility.yul\":19534:19642   */\n      tag_462\n      jump\t// in\n    tag_611:\n        /* \"#utility.yul\":19526:19642   */\n      swap1\n      pop\n        /* \"#utility.yul\":19689:19698   */\n      dup2\n        /* \"#utility.yul\":19683:19687   */\n      dup2\n        /* \"#utility.yul\":19679:19699   */\n      sub\n        /* \"#utility.yul\":19674:19676   */\n      0x20\n        /* \"#utility.yul\":19663:19672   */\n      dup4\n        /* \"#utility.yul\":19659:19677   */\n      add\n        /* \"#utility.yul\":19652:19700   */\n      mstore\n        /* \"#utility.yul\":19717:19845   */\n      tag_612\n        /* \"#utility.yul\":19840:19844   */\n      dup2\n        /* \"#utility.yul\":19831:19837   */\n      dup5\n        /* \"#utility.yul\":19717:19845   */\n      tag_448\n      jump\t// in\n    tag_612:\n        /* \"#utility.yul\":19709:19845   */\n      swap1\n      pop\n        /* \"#utility.yul\":19424:19852   */\n      swap4\n      swap3\n      pop\n      pop\n      pop\n      jump\t// out\n        /* \"#utility.yul\":19858:20068   */\n    tag_39:\n      0x00\n        /* \"#utility.yul\":19983:19985   */\n      0x20\n        /* \"#utility.yul\":19972:19981   */\n      dup3\n        /* \"#utility.yul\":19968:19986   */\n      add\n        /* \"#utility.yul\":19960:19986   */\n      swap1\n      pop\n        /* \"#utility.yul\":19996:20061   */\n      tag_614\n        /* \"#utility.yul\":20058:20059   */\n      0x00\n        /* \"#utility.yul\":20047:20056   */\n      dup4\n        /* \"#utility.yul\":20043:20060   */\n      add\n        /* \"#utility.yul\":20034:20040   */\n      dup5\n        /* \"#utility.yul\":19996:20061   */\n      tag_476\n      jump\t// in\n    tag_614:\n        /* \"#utility.yul\":19950:20068   */\n      swap3\n      swap2\n      pop\n      pop\n      jump\t// out\n        /* \"#utility.yul\":20074:20296   */\n    tag_45:\n      0x00\n        /* \"#utility.yul\":20205:20207   */\n      0x20\n        /* \"#utility.yul\":20194:20203   */\n      dup3\n        /* \"#utility.yul\":20190:20208   */\n      add\n        /* \"#utility.yul\":20182:20208   */\n      swap1\n      pop\n        /* \"#utility.yul\":20218:20289   */\n      tag_616\n        /* \"#utility.yul\":20286:20287   */\n      0x00\n        /* \"#utility.yul\":20275:20284   */\n      dup4\n        /* \"#utility.yul\":20271:20288   */\n      add\n        /* \"#utility.yul\":20262:20268   */\n      dup5\n        /* \"#utility.yul\":20218:20289   */\n      tag_480\n      jump\t// in\n    tag_616:\n        /* \"#utility.yul\":20172:20296   */\n      swap3\n      swap2\n      pop\n      pop\n      jump\t// out\n        /* \"#utility.yul\":20302:20564   */\n    tag_88:\n      0x00\n        /* \"#utility.yul\":20453:20455   */\n      0x20\n        /* \"#utility.yul\":20442:20451   */\n      dup3\n        /* \"#utility.yul\":20438:20456   */\n      add\n        /* \"#utility.yul\":20430:20456   */\n      swap1\n      pop\n        /* \"#utility.yul\":20466:20557   */\n      tag_618\n        /* \"#utility.yul\":20554:20555   */\n      0x00\n        /* \"#utility.yul\":20543:20552   */\n      dup4\n        /* \"#utility.yul\":20539:20556   */\n      add\n        /* \"#utility.yul\":20530:20536   */\n      dup5\n        /* \"#utility.yul\":20466:20557   */\n      tag_484\n      jump\t// in\n    tag_618:\n        /* \"#utility.yul\":20420:20564   */\n      swap3\n      swap2\n      pop\n      pop\n      jump\t// out\n        /* \"#utility.yul\":20570:20852   */\n    tag_78:\n      0x00\n        /* \"#utility.yul\":20731:20733   */\n      0x20\n        /* \"#utility.yul\":20720:20729   */\n      dup3\n        /* \"#utility.yul\":20716:20734   */\n      add\n        /* \"#utility.yul\":20708:20734   */\n      swap1\n      pop\n        /* \"#utility.yul\":20744:20845   */\n      tag_620\n        /* \"#utility.yul\":20842:20843   */\n      0x00\n        /* \"#utility.yul\":20831:20840   */\n      dup4\n        /* \"#utility.yul\":20827:20844   */\n      add\n        /* \"#utility.yul\":20818:20824   */\n      dup5\n        /* \"#utility.yul\":20744:20845   */\n      tag_488\n      jump\t// in\n    tag_620:\n        /* \"#utility.yul\":20698:20852   */\n      swap3\n      swap2\n      pop\n      pop\n      jump\t// out\n        /* \"#utility.yul\":20858:21120   */\n    tag_112:\n      0x00\n        /* \"#utility.yul\":21009:21011   */\n      0x20\n        /* \"#utility.yul\":20998:21007   */\n      dup3\n        /* \"#utility.yul\":20994:21012   */\n      add\n        /* \"#utility.yul\":20986:21012   */\n      swap1\n      pop\n        /* \"#utility.yul\":21022:21113   */\n      tag_622\n        /* \"#utility.yul\":21110:21111   */\n      0x00\n        /* \"#utility.yul\":21099:21108   */\n      dup4\n        /* \"#utility.yul\":21095:21112   */\n      add\n        /* \"#utility.yul\":21086:21092   */\n      dup5\n        /* \"#utility.yul\":21022:21113   */\n      tag_492\n      jump\t// in\n    tag_622:\n        /* \"#utility.yul\":20976:21120   */\n      swap3\n      swap2\n      pop\n      pop\n      jump\t// out\n        /* \"#utility.yul\":21126:21439   */\n    tag_219:\n      0x00\n        /* \"#utility.yul\":21277:21279   */\n      0x20\n        /* \"#utility.yul\":21266:21275   */\n      dup3\n        /* \"#utility.yul\":21262:21280   */\n      add\n        /* \"#utility.yul\":21254:21280   */\n      swap1\n      pop\n        /* \"#utility.yul\":21326:21335   */\n      dup2\n        /* \"#utility.yul\":21320:21324   */\n      dup2\n        /* \"#utility.yul\":21316:21336   */\n      sub\n        /* \"#utility.yul\":21312:21313   */\n      0x00\n        /* \"#utility.yul\":21301:21310   */\n      dup4\n        /* \"#utility.yul\":21297:21314   */\n      add\n        /* \"#utility.yul\":21290:21337   */\n      mstore\n        /* \"#utility.yul\":21354:21432   */\n      tag_624\n        /* \"#utility.yul\":21427:21431   */\n      dup2\n        /* \"#utility.yul\":21418:21424   */\n      dup5\n        /* \"#utility.yul\":21354:21432   */\n      tag_505\n      jump\t// in\n    tag_624:\n        /* \"#utility.yul\":21346:21432   */\n      swap1\n      pop\n        /* \"#utility.yul\":21244:21439   */\n      swap3\n      swap2\n      pop\n      pop\n      jump\t// out\n        /* \"#utility.yul\":21445:21864   */\n    tag_334:\n      0x00\n        /* \"#utility.yul\":21649:21651   */\n      0x20\n        /* \"#utility.yul\":21638:21647   */\n      dup3\n        /* \"#utility.yul\":21634:21652   */\n      add\n        /* \"#utility.yul\":21626:21652   */\n      swap1\n      pop\n        /* \"#utility.yul\":21698:21707   */\n      dup2\n        /* \"#utility.yul\":21692:21696   */\n      dup2\n        /* \"#utility.yul\":21688:21708   */\n      sub\n        /* \"#utility.yul\":21684:21685   */\n      0x00\n        /* \"#utility.yul\":21673:21682   */\n      dup4\n        /* \"#utility.yul\":21669:21686   */\n      add\n        /* \"#utility.yul\":21662:21709   */\n      mstore\n        /* \"#utility.yul\":21726:21857   */\n      tag_626\n        /* \"#utility.yul\":21852:21856   */\n      dup2\n        /* \"#utility.yul\":21726:21857   */\n      tag_518\n      jump\t// in\n    tag_626:\n        /* \"#utility.yul\":21718:21857   */\n      swap1\n      pop\n        /* \"#utility.yul\":21616:21864   */\n      swap2\n      swap1\n      pop\n      jump\t// out\n        /* \"#utility.yul\":21870:22289   */\n    tag_141:\n      0x00\n        /* \"#utility.yul\":22074:22076   */\n      0x20\n        /* \"#utility.yul\":22063:22072   */\n      dup3\n        /* \"#utility.yul\":22059:22077   */\n      add\n        /* \"#utility.yul\":22051:22077   */\n      swap1\n      pop\n        /* \"#utility.yul\":22123:22132   */\n      dup2\n        /* \"#utility.yul\":22117:22121   */\n      dup2\n        /* \"#utility.yul\":22113:22133   */\n      sub\n        /* \"#utility.yul\":22109:22110   */\n      0x00\n        /* \"#utility.yul\":22098:22107   */\n      dup4\n        /* \"#utility.yul\":22094:22111   */\n      add\n        /* \"#utility.yul\":22087:22134   */\n      mstore\n        /* \"#utility.yul\":22151:22282   */\n      tag_628\n        /* \"#utility.yul\":22277:22281   */\n      dup2\n        /* \"#utility.yul\":22151:22282   */\n      tag_528\n      jump\t// in\n    tag_628:\n        /* \"#utility.yul\":22143:22282   */\n      swap1\n      pop\n        /* \"#utility.yul\":22041:22289   */\n      swap2\n      swap1\n      pop\n      jump\t// out\n        /* \"#utility.yul\":22295:22714   */\n    tag_206:\n      0x00\n        /* \"#utility.yul\":22499:22501   */\n      0x20\n        /* \"#utility.yul\":22488:22497   */\n      dup3\n        /* \"#utility.yul\":22484:22502   */\n      add\n        /* \"#utility.yul\":22476:22502   */\n      swap1\n      pop\n        /* \"#utility.yul\":22548:22557   */\n      dup2\n        /* \"#utility.yul\":22542:22546   */\n      dup2\n        /* \"#utility.yul\":22538:22558   */\n      sub\n        /* \"#utility.yul\":22534:22535   */\n      0x00\n        /* \"#utility.yul\":22523:22532   */\n      dup4\n        /* \"#utility.yul\":22519:22536   */\n      add\n        /* \"#utility.yul\":22512:22559   */\n      mstore\n        /* \"#utility.yul\":22576:22707   */\n      tag_630\n        /* \"#utility.yul\":22702:22706   */\n      dup2\n        /* \"#utility.yul\":22576:22707   */\n      tag_533\n      jump\t// in\n    tag_630:\n        /* \"#utility.yul\":22568:22707   */\n      swap1\n      pop\n        /* \"#utility.yul\":22466:22714   */\n      swap2\n      swap1\n      pop\n      jump\t// out\n        /* \"#utility.yul\":22720:23139   */\n    tag_202:\n      0x00\n        /* \"#utility.yul\":22924:22926   */\n      0x20\n        /* \"#utility.yul\":22913:22922   */\n      dup3\n        /* \"#utility.yul\":22909:22927   */\n      add\n        /* \"#utility.yul\":22901:22927   */\n      swap1\n      pop\n        /* \"#utility.yul\":22973:22982   */\n      dup2\n        /* \"#utility.yul\":22967:22971   */\n      dup2\n        /* \"#utility.yul\":22963:22983   */\n      sub\n        /* \"#utility.yul\":22959:22960   */\n      0x00\n        /* \"#utility.yul\":22948:22957   */\n      dup4\n        /* \"#utility.yul\":22944:22961   */\n      add\n        /* \"#utility.yul\":22937:22984   */\n      mstore\n        /* \"#utility.yul\":23001:23132   */\n      tag_632\n        /* \"#utility.yul\":23127:23131   */\n      dup2\n        /* \"#utility.yul\":23001:23132   */\n      tag_538\n      jump\t// in\n    tag_632:\n        /* \"#utility.yul\":22993:23132   */\n      swap1\n      pop\n        /* \"#utility.yul\":22891:23139   */\n      swap2\n      swap1\n      pop\n      jump\t// out\n        /* \"#utility.yul\":23145:23564   */\n    tag_251:\n      0x00\n        /* \"#utility.yul\":23349:23351   */\n      0x20\n        /* \"#utility.yul\":23338:23347   */\n      dup3\n        /* \"#utility.yul\":23334:23352   */\n      add\n        /* \"#utility.yul\":23326:23352   */\n      swap1\n      pop\n        /* \"#utility.yul\":23398:23407   */\n      dup2\n        /* \"#utility.yul\":23392:23396   */\n      dup2\n        /* \"#utility.yul\":23388:23408   */\n      sub\n        /* \"#utility.yul\":23384:23385   */\n      0x00\n        /* \"#utility.yul\":23373:23382   */\n      dup4\n        /* \"#utility.yul\":23369:23386   */\n      add\n        /* \"#utility.yul\":23362:23409   */\n      mstore\n        /* \"#utility.yul\":23426:23557   */\n      tag_634\n        /* \"#utility.yul\":23552:23556   */\n      dup2\n        /* \"#utility.yul\":23426:23557   */\n      tag_543\n      jump\t// in\n    tag_634:\n        /* \"#utility.yul\":23418:23557   */\n      swap1\n      pop\n        /* \"#utility.yul\":23316:23564   */\n      swap2\n      swap1\n      pop\n      jump\t// out\n        /* \"#utility.yul\":23570:23989   */\n    tag_149:\n      0x00\n        /* \"#utility.yul\":23774:23776   */\n      0x20\n        /* \"#utility.yul\":23763:23772   */\n      dup3\n        /* \"#utility.yul\":23759:23777   */\n      add\n        /* \"#utility.yul\":23751:23777   */\n      swap1\n      pop\n        /* \"#utility.yul\":23823:23832   */\n      dup2\n        /* \"#utility.yul\":23817:23821   */\n      dup2\n        /* \"#utility.yul\":23813:23833   */\n      sub\n        /* \"#utility.yul\":23809:23810   */\n      0x00\n        /* \"#utility.yul\":23798:23807   */\n      dup4\n        /* \"#utility.yul\":23794:23811   */\n      add\n        /* \"#utility.yul\":23787:23834   */\n      mstore\n        /* \"#utility.yul\":23851:23982   */\n      tag_636\n        /* \"#utility.yul\":23977:23981   */\n      dup2\n        /* \"#utility.yul\":23851:23982   */\n      tag_558\n      jump\t// in\n    tag_636:\n        /* \"#utility.yul\":23843:23982   */\n      swap1\n      pop\n        /* \"#utility.yul\":23741:23989   */\n      swap2\n      swap1\n      pop\n      jump\t// out\n        /* \"#utility.yul\":23995:24414   */\n    tag_277:\n      0x00\n        /* \"#utility.yul\":24199:24201   */\n      0x20\n        /* \"#utility.yul\":24188:24197   */\n      dup3\n        /* \"#utility.yul\":24184:24202   */\n      add\n        /* \"#utility.yul\":24176:24202   */\n      swap1\n      pop\n        /* \"#utility.yul\":24248:24257   */\n      dup2\n        /* \"#utility.yul\":24242:24246   */\n      dup2\n        /* \"#utility.yul\":24238:24258   */\n      sub\n        /* \"#utility.yul\":24234:24235   */\n      0x00\n        /* \"#utility.yul\":24223:24232   */\n      dup4\n        /* \"#utility.yul\":24219:24236   */\n      add\n        /* \"#utility.yul\":24212:24259   */\n      mstore\n        /* \"#utility.yul\":24276:24407   */\n      tag_638\n        /* \"#utility.yul\":24402:24406   */\n      dup2\n        /* \"#utility.yul\":24276:24407   */\n      tag_563\n      jump\t// in\n    tag_638:\n        /* \"#utility.yul\":24268:24407   */\n      swap1\n      pop\n        /* \"#utility.yul\":24166:24414   */\n      swap2\n      swap1\n      pop\n      jump\t// out\n        /* \"#utility.yul\":24420:24839   */\n    tag_165:\n      0x00\n        /* \"#utility.yul\":24624:24626   */\n      0x20\n        /* \"#utility.yul\":24613:24622   */\n      dup3\n        /* \"#utility.yul\":24609:24627   */\n      add\n        /* \"#utility.yul\":24601:24627   */\n      swap1\n      pop\n        /* \"#utility.yul\":24673:24682   */\n      dup2\n        /* \"#utility.yul\":24667:24671   */\n      dup2\n        /* \"#utility.yul\":24663:24683   */\n      sub\n        /* \"#utility.yul\":24659:24660   */\n      0x00\n        /* \"#utility.yul\":24648:24657   */\n      dup4\n        /* \"#utility.yul\":24644:24661   */\n      add\n        /* \"#utility.yul\":24637:24684   */\n      mstore\n        /* \"#utility.yul\":24701:24832   */\n      tag_640\n        /* \"#utility.yul\":24827:24831   */\n      dup2\n        /* \"#utility.yul\":24701:24832   */\n      tag_578\n      jump\t// in\n    tag_640:\n        /* \"#utility.yul\":24693:24832   */\n      swap1\n      pop\n        /* \"#utility.yul\":24591:24839   */\n      swap2\n      swap1\n      pop\n      jump\t// out\n        /* \"#utility.yul\":24845:25067   */\n    tag_60:\n      0x00\n        /* \"#utility.yul\":24976:24978   */\n      0x20\n        /* \"#utility.yul\":24965:24974   */\n      dup3\n        /* \"#utility.yul\":24961:24979   */\n      add\n        /* \"#utility.yul\":24953:24979   */\n      swap1\n      pop\n        /* \"#utility.yul\":24989:25060   */\n      tag_642\n        /* \"#utility.yul\":25057:25058   */\n      0x00\n        /* \"#utility.yul\":25046:25055   */\n      dup4\n        /* \"#utility.yul\":25042:25059   */\n      add\n        /* \"#utility.yul\":25033:25039   */\n      dup5\n        /* \"#utility.yul\":24989:25060   */\n      tag_586\n      jump\t// in\n    tag_642:\n        /* \"#utility.yul\":24943:25067   */\n      swap3\n      swap2\n      pop\n      pop\n      jump\t// out\n        /* \"#utility.yul\":25073:25503   */\n    tag_108:\n      0x00\n        /* \"#utility.yul\":25254:25256   */\n      0x60\n        /* \"#utility.yul\":25243:25252   */\n      dup3\n        /* \"#utility.yul\":25239:25257   */\n      add\n        /* \"#utility.yul\":25231:25257   */\n      swap1\n      pop\n        /* \"#utility.yul\":25267:25338   */\n      tag_644\n        /* \"#utility.yul\":25335:25336   */\n      0x00\n        /* \"#utility.yul\":25324:25333   */\n      dup4\n        /* \"#utility.yul\":25320:25337   */\n      add\n        /* \"#utility.yul\":25311:25317   */\n      dup7\n        /* \"#utility.yul\":25267:25338   */\n      tag_586\n      jump\t// in\n    tag_644:\n        /* \"#utility.yul\":25348:25420   */\n      tag_645\n        /* \"#utility.yul\":25416:25418   */\n      0x20\n        /* \"#utility.yul\":25405:25414   */\n      dup4\n        /* \"#utility.yul\":25401:25419   */\n      add\n        /* \"#utility.yul\":25392:25398   */\n      dup6\n        /* \"#utility.yul\":25348:25420   */\n      tag_586\n      jump\t// in\n    tag_645:\n        /* \"#utility.yul\":25430:25496   */\n      tag_646\n        /* \"#utility.yul\":25492:25494   */\n      0x40\n        /* \"#utility.yul\":25481:25490   */\n      dup4\n        /* \"#utility.yul\":25477:25495   */\n      add\n        /* \"#utility.yul\":25468:25474   */\n      dup5\n        /* \"#utility.yul\":25430:25496   */\n      tag_476\n      jump\t// in\n    tag_646:\n        /* \"#utility.yul\":25221:25503   */\n      swap5\n      swap4\n      pop\n      pop\n      pop\n      pop\n      jump\t// out\n        /* \"#utility.yul\":25509:25638   */\n    tag_341:\n      0x00\n        /* \"#utility.yul\":25570:25590   */\n      tag_648\n      tag_649\n      jump\t// in\n    tag_648:\n        /* \"#utility.yul\":25560:25590   */\n      swap1\n      pop\n        /* \"#utility.yul\":25599:25632   */\n      tag_650\n        /* \"#utility.yul\":25627:25631   */\n      dup3\n        /* \"#utility.yul\":25619:25625   */\n      dup3\n        /* \"#utility.yul\":25599:25632   */\n      tag_651\n      jump\t// in\n    tag_650:\n        /* \"#utility.yul\":25550:25638   */\n      swap2\n      swap1\n      pop\n      jump\t// out\n        /* \"#utility.yul\":25644:25719   */\n    tag_649:\n      0x00\n        /* \"#utility.yul\":25710:25712   */\n      0x40\n        /* \"#utility.yul\":25704:25713   */\n      mload\n        /* \"#utility.yul\":25694:25713   */\n      swap1\n      pop\n        /* \"#utility.yul\":25684:25719   */\n      swap1\n      jump\t// out\n        /* \"#utility.yul\":25725:26046   */\n    tag_340:\n      0x00\n        /* \"#utility.yul\":25902:25920   */\n      0xffffffffffffffff\n        /* \"#utility.yul\":25894:25900   */\n      dup3\n        /* \"#utility.yul\":25891:25921   */\n      gt\n        /* \"#utility.yul\":25888:25890   */\n      iszero\n      tag_654\n      jumpi\n        /* \"#utility.yul\":25924:25942   */\n      tag_655\n      tag_656\n      jump\t// in\n    tag_655:\n        /* \"#utility.yul\":25888:25890   */\n    tag_654:\n        /* \"#utility.yul\":25974:25978   */\n      0x20\n        /* \"#utility.yul\":25966:25972   */\n      dup3\n        /* \"#utility.yul\":25962:25979   */\n      mul\n        /* \"#utility.yul\":25954:25979   */\n      swap1\n      pop\n        /* \"#utility.yul\":26034:26038   */\n      0x20\n        /* \"#utility.yul\":26028:26032   */\n      dup2\n        /* \"#utility.yul\":26024:26039   */\n      add\n        /* \"#utility.yul\":26016:26039   */\n      swap1\n      pop\n        /* \"#utility.yul\":25817:26046   */\n      swap2\n      swap1\n      pop\n      jump\t// out\n        /* \"#utility.yul\":26052:26363   */\n    tag_351:\n      0x00\n        /* \"#utility.yul\":26219:26237   */\n      0xffffffffffffffff\n        /* \"#utility.yul\":26211:26217   */\n      dup3\n        /* \"#utility.yul\":26208:26238   */\n      gt\n        /* \"#utility.yul\":26205:26207   */\n      iszero\n      tag_658\n      jumpi\n        /* \"#utility.yul\":26241:26259   */\n      tag_659\n      tag_656\n      jump\t// in\n    tag_659:\n        /* \"#utility.yul\":26205:26207   */\n    tag_658:\n        /* \"#utility.yul\":26291:26295   */\n      0x20\n        /* \"#utility.yul\":26283:26289   */\n      dup3\n        /* \"#utility.yul\":26279:26296   */\n      mul\n        /* \"#utility.yul\":26271:26296   */\n      swap1\n      pop\n        /* \"#utility.yul\":26351:26355   */\n      0x20\n        /* \"#utility.yul\":26345:26349   */\n      dup2\n        /* \"#utility.yul\":26341:26356   */\n      add\n        /* \"#utility.yul\":26333:26356   */\n      swap1\n      pop\n        /* \"#utility.yul\":26134:26363   */\n      swap2\n      swap1\n      pop\n      jump\t// out\n        /* \"#utility.yul\":26369:26677   */\n    tag_362:\n      0x00\n        /* \"#utility.yul\":26521:26539   */\n      0xffffffffffffffff\n        /* \"#utility.yul\":26513:26519   */\n      dup3\n        /* \"#utility.yul\":26510:26540   */\n      gt\n        /* \"#utility.yul\":26507:26509   */\n      iszero\n      tag_661\n      jumpi\n        /* \"#utility.yul\":26543:26561   */\n      tag_662\n      tag_656\n      jump\t// in\n    tag_662:\n        /* \"#utility.yul\":26507:26509   */\n    tag_661:\n        /* \"#utility.yul\":26581:26610   */\n      tag_663\n        /* \"#utility.yul\":26603:26609   */\n      dup3\n        /* \"#utility.yul\":26581:26610   */\n      tag_504\n      jump\t// in\n    tag_663:\n        /* \"#utility.yul\":26573:26610   */\n      swap1\n      pop\n        /* \"#utility.yul\":26665:26669   */\n      0x20\n        /* \"#utility.yul\":26659:26663   */\n      dup2\n        /* \"#utility.yul\":26655:26670   */\n      add\n        /* \"#utility.yul\":26647:26670   */\n      swap1\n      pop\n        /* \"#utility.yul\":26436:26677   */\n      swap2\n      swap1\n      pop\n      jump\t// out\n        /* \"#utility.yul\":26683:26825   */\n    tag_455:\n      0x00\n        /* \"#utility.yul\":26783:26786   */\n      dup2\n        /* \"#utility.yul\":26775:26786   */\n      swap1\n      pop\n        /* \"#utility.yul\":26813:26817   */\n      0x20\n        /* \"#utility.yul\":26808:26811   */\n      dup3\n        /* \"#utility.yul\":26804:26818   */\n      add\n        /* \"#utility.yul\":26796:26818   */\n      swap1\n      pop\n        /* \"#utility.yul\":26765:26825   */\n      swap2\n      swap1\n      pop\n      jump\t// out\n        /* \"#utility.yul\":26831:26963   */\n    tag_469:\n      0x00\n        /* \"#utility.yul\":26921:26924   */\n      dup2\n        /* \"#utility.yul\":26913:26924   */\n      swap1\n      pop\n        /* \"#utility.yul\":26951:26955   */\n      0x20\n        /* \"#utility.yul\":26946:26949   */\n      dup3\n        /* \"#utility.yul\":26942:26956   */\n      add\n        /* \"#utility.yul\":26934:26956   */\n      swap1\n      pop\n        /* \"#utility.yul\":26903:26963   */\n      swap2\n      swap1\n      pop\n      jump\t// out\n        /* \"#utility.yul\":26969:27093   */\n    tag_451:\n      0x00\n        /* \"#utility.yul\":27080:27085   */\n      dup2\n        /* \"#utility.yul\":27074:27086   */\n      mload\n        /* \"#utility.yul\":27064:27086   */\n      swap1\n      pop\n        /* \"#utility.yul\":27053:27093   */\n      swap2\n      swap1\n      pop\n      jump\t// out\n        /* \"#utility.yul\":27099:27213   */\n    tag_465:\n      0x00\n        /* \"#utility.yul\":27200:27205   */\n      dup2\n        /* \"#utility.yul\":27194:27206   */\n      mload\n        /* \"#utility.yul\":27184:27206   */\n      swap1\n      pop\n        /* \"#utility.yul\":27173:27213   */\n      swap2\n      swap1\n      pop\n      jump\t// out\n        /* \"#utility.yul\":27219:27318   */\n    tag_498:\n      0x00\n        /* \"#utility.yul\":27305:27310   */\n      dup2\n        /* \"#utility.yul\":27299:27311   */\n      mload\n        /* \"#utility.yul\":27289:27311   */\n      swap1\n      pop\n        /* \"#utility.yul\":27278:27318   */\n      swap2\n      swap1\n      pop\n      jump\t// out\n        /* \"#utility.yul\":27324:27447   */\n    tag_461:\n      0x00\n        /* \"#utility.yul\":27436:27440   */\n      0x20\n        /* \"#utility.yul\":27431:27434   */\n      dup3\n        /* \"#utility.yul\":27427:27441   */\n      add\n        /* \"#utility.yul\":27419:27441   */\n      swap1\n      pop\n        /* \"#utility.yul\":27409:27447   */\n      swap2\n      swap1\n      pop\n      jump\t// out\n        /* \"#utility.yul\":27453:27566   */\n    tag_475:\n      0x00\n        /* \"#utility.yul\":27555:27559   */\n      0x20\n        /* \"#utility.yul\":27550:27553   */\n      dup3\n        /* \"#utility.yul\":27546:27560   */\n      add\n        /* \"#utility.yul\":27538:27560   */\n      swap1\n      pop\n        /* \"#utility.yul\":27528:27566   */\n      swap2\n      swap1\n      pop\n      jump\t// out\n        /* \"#utility.yul\":27572:27766   */\n    tag_453:\n      0x00\n        /* \"#utility.yul\":27715:27721   */\n      dup3\n        /* \"#utility.yul\":27710:27713   */\n      dup3\n        /* \"#utility.yul\":27703:27722   */\n      mstore\n        /* \"#utility.yul\":27755:27759   */\n      0x20\n        /* \"#utility.yul\":27750:27753   */\n      dup3\n        /* \"#utility.yul\":27746:27760   */\n      add\n        /* \"#utility.yul\":27731:27760   */\n      swap1\n      pop\n        /* \"#utility.yul\":27693:27766   */\n      swap3\n      swap2\n      pop\n      pop\n      jump\t// out\n        /* \"#utility.yul\":27772:27956   */\n    tag_467:\n      0x00\n        /* \"#utility.yul\":27905:27911   */\n      dup3\n        /* \"#utility.yul\":27900:27903   */\n      dup3\n        /* \"#utility.yul\":27893:27912   */\n      mstore\n        /* \"#utility.yul\":27945:27949   */\n      0x20\n        /* \"#utility.yul\":27940:27943   */\n      dup3\n        /* \"#utility.yul\":27936:27950   */\n      add\n        /* \"#utility.yul\":27921:27950   */\n      swap1\n      pop\n        /* \"#utility.yul\":27883:27956   */\n      swap3\n      swap2\n      pop\n      pop\n      jump\t// out\n        /* \"#utility.yul\":27962:28121   */\n    tag_500:\n      0x00\n        /* \"#utility.yul\":28070:28076   */\n      dup3\n        /* \"#utility.yul\":28065:28068   */\n      dup3\n        /* \"#utility.yul\":28058:28077   */\n      mstore\n        /* \"#utility.yul\":28110:28114   */\n      0x20\n        /* \"#utility.yul\":28105:28108   */\n      dup3\n        /* \"#utility.yul\":28101:28115   */\n      add\n        /* \"#utility.yul\":28086:28115   */\n      swap1\n      pop\n        /* \"#utility.yul\":28048:28121   */\n      swap3\n      swap2\n      pop\n      pop\n      jump\t// out\n        /* \"#utility.yul\":28127:28296   */\n    tag_509:\n      0x00\n        /* \"#utility.yul\":28245:28251   */\n      dup3\n        /* \"#utility.yul\":28240:28243   */\n      dup3\n        /* \"#utility.yul\":28233:28252   */\n      mstore\n        /* \"#utility.yul\":28285:28289   */\n      0x20\n        /* \"#utility.yul\":28280:28283   */\n      dup3\n        /* \"#utility.yul\":28276:28290   */\n      add\n        /* \"#utility.yul\":28261:28290   */\n      swap1\n      pop\n        /* \"#utility.yul\":28223:28296   */\n      swap3\n      swap2\n      pop\n      pop\n      jump\t// out\n        /* \"#utility.yul\":28302:28450   */\n    tag_516:\n      0x00\n        /* \"#utility.yul\":28441:28444   */\n      dup2\n        /* \"#utility.yul\":28426:28444   */\n      swap1\n      pop\n        /* \"#utility.yul\":28416:28450   */\n      swap3\n      swap2\n      pop\n      pop\n      jump\t// out\n        /* \"#utility.yul\":28456:28761   */\n    tag_319:\n      0x00\n        /* \"#utility.yul\":28515:28535   */\n      tag_677\n        /* \"#utility.yul\":28533:28534   */\n      dup3\n        /* \"#utility.yul\":28515:28535   */\n      tag_585\n      jump\t// in\n    tag_677:\n        /* \"#utility.yul\":28510:28535   */\n      swap2\n      pop\n        /* \"#utility.yul\":28549:28569   */\n      tag_678\n        /* \"#utility.yul\":28567:28568   */\n      dup4\n        /* \"#utility.yul\":28549:28569   */\n      tag_585\n      jump\t// in\n    tag_678:\n        /* \"#utility.yul\":28544:28569   */\n      swap3\n      pop\n        /* \"#utility.yul\":28703:28704   */\n      dup3\n        /* \"#utility.yul\":28635:28701   */\n      0xffffffffffffffffffffffffffffffffffffffffffffffffffffffffffffffff\n        /* \"#utility.yul\":28631:28705   */\n      sub\n        /* \"#utility.yul\":28628:28629   */\n      dup3\n        /* \"#utility.yul\":28625:28706   */\n      gt\n        /* \"#utility.yul\":28622:28624   */\n      iszero\n      tag_679\n      jumpi\n        /* \"#utility.yul\":28709:28727   */\n      tag_680\n      tag_681\n      jump\t// in\n    tag_680:\n        /* \"#utility.yul\":28622:28624   */\n    tag_679:\n        /* \"#utility.yul\":28753:28754   */\n      dup3\n        /* \"#utility.yul\":28750:28751   */\n      dup3\n        /* \"#utility.yul\":28746:28755   */\n      add\n        /* \"#utility.yul\":28739:28755   */\n      swap1\n      pop\n        /* \"#utility.yul\":28500:28761   */\n      swap3\n      swap2\n      pop\n      pop\n      jump\t// out\n        /* \"#utility.yul\":28767:28952   */\n    tag_222:\n      0x00\n        /* \"#utility.yul\":28824:28844   */\n      tag_683\n        /* \"#utility.yul\":28842:28843   */\n      dup3\n        /* \"#utility.yul\":28824:28844   */\n      tag_585\n      jump\t// in\n    tag_683:\n        /* \"#utility.yul\":28819:28844   */\n      swap2\n      pop\n        /* \"#utility.yul\":28858:28878   */\n      tag_684\n        /* \"#utility.yul\":28876:28877   */\n      dup4\n        /* \"#utility.yul\":28858:28878   */\n      tag_585\n      jump\t// in\n    tag_684:\n        /* \"#utility.yul\":28853:28878   */\n      swap3\n      pop\n        /* \"#utility.yul\":28897:28898   */\n      dup3\n        /* \"#utility.yul\":28887:28889   */\n      tag_685\n      jumpi\n        /* \"#utility.yul\":28902:28920   */\n      tag_686\n      tag_687\n      jump\t// in\n    tag_686:\n        /* \"#utility.yul\":28887:28889   */\n    tag_685:\n        /* \"#utility.yul\":28944:28945   */\n      dup3\n        /* \"#utility.yul\":28941:28942   */\n      dup3\n        /* \"#utility.yul\":28937:28946   */\n      div\n        /* \"#utility.yul\":28932:28946   */\n      swap1\n      pop\n        /* \"#utility.yul\":28809:28952   */\n      swap3\n      swap2\n      pop\n      pop\n      jump\t// out\n        /* \"#utility.yul\":28958:29306   */\n    tag_224:\n      0x00\n        /* \"#utility.yul\":29021:29041   */\n      tag_689\n        /* \"#utility.yul\":29039:29040   */\n      dup3\n        /* \"#utility.yul\":29021:29041   */\n      tag_585\n      jump\t// in\n    tag_689:\n        /* \"#utility.yul\":29016:29041   */\n      swap2\n      pop\n        /* \"#utility.yul\":29055:29075   */\n      tag_690\n        /* \"#utility.yul\":29073:29074   */\n      dup4\n        /* \"#utility.yul\":29055:29075   */\n      tag_585\n      jump\t// in\n    tag_690:\n        /* \"#utility.yul\":29050:29075   */\n      swap3\n      pop\n        /* \"#utility.yul\":29243:29244   */\n      dup2\n        /* \"#utility.yul\":29175:29241   */\n      0xffffffffffffffffffffffffffffffffffffffffffffffffffffffffffffffff\n        /* \"#utility.yul\":29171:29245   */\n      div\n        /* \"#utility.yul\":29168:29169   */\n      dup4\n        /* \"#utility.yul\":29165:29246   */\n      gt\n        /* \"#utility.yul\":29160:29161   */\n      dup3\n        /* \"#utility.yul\":29153:29162   */\n      iszero\n        /* \"#utility.yul\":29146:29163   */\n      iszero\n        /* \"#utility.yul\":29142:29247   */\n      and\n        /* \"#utility.yul\":29139:29141   */\n      iszero\n      tag_691\n      jumpi\n        /* \"#utility.yul\":29250:29268   */\n      tag_692\n      tag_681\n      jump\t// in\n    tag_692:\n        /* \"#utility.yul\":29139:29141   */\n    tag_691:\n        /* \"#utility.yul\":29298:29299   */\n      dup3\n        /* \"#utility.yul\":29295:29296   */\n      dup3\n        /* \"#utility.yul\":29291:29300   */\n      mul\n        /* \"#utility.yul\":29280:29300   */\n      swap1\n      pop\n        /* \"#utility.yul\":29006:29306   */\n      swap3\n      swap2\n      pop\n      pop\n      jump\t// out\n        /* \"#utility.yul\":29312:29503   */\n    tag_144:\n      0x00\n        /* \"#utility.yul\":29372:29392   */\n      tag_694\n        /* \"#utility.yul\":29390:29391   */\n      dup3\n        /* \"#utility.yul\":29372:29392   */\n      tag_585\n      jump\t// in\n    tag_694:\n        /* \"#utility.yul\":29367:29392   */\n      swap2\n      pop\n        /* \"#utility.yul\":29406:29426   */\n      tag_695\n        /* \"#utility.yul\":29424:29425   */\n      dup4\n        /* \"#utility.yul\":29406:29426   */\n      tag_585\n      jump\t// in\n    tag_695:\n        /* \"#utility.yul\":29401:29426   */\n      swap3\n      pop\n        /* \"#utility.yul\":29445:29446   */\n      dup3\n        /* \"#utility.yul\":29442:29443   */\n      dup3\n        /* \"#utility.yul\":29439:29447   */\n      lt\n        /* \"#utility.yul\":29436:29438   */\n      iszero\n      tag_696\n      jumpi\n        /* \"#utility.yul\":29450:29468   */\n      tag_697\n      tag_681\n      jump\t// in\n    tag_697:\n        /* \"#utility.yul\":29436:29438   */\n    tag_696:\n        /* \"#utility.yul\":29495:29496   */\n      dup3\n        /* \"#utility.yul\":29492:29493   */\n      dup3\n        /* \"#utility.yul\":29488:29497   */\n      sub\n        /* \"#utility.yul\":29480:29497   */\n      swap1\n      pop\n        /* \"#utility.yul\":29357:29503   */\n      swap3\n      swap2\n      pop\n      pop\n      jump\t// out\n        /* \"#utility.yul\":29509:29605   */\n    tag_442:\n      0x00\n        /* \"#utility.yul\":29575:29599   */\n      tag_699\n        /* \"#utility.yul\":29593:29598   */\n      dup3\n        /* \"#utility.yul\":29575:29599   */\n      tag_700\n      jump\t// in\n    tag_699:\n        /* \"#utility.yul\":29564:29599   */\n      swap1\n      pop\n        /* \"#utility.yul\":29554:29605   */\n      swap2\n      swap1\n      pop\n      jump\t// out\n        /* \"#utility.yul\":29611:29701   */\n    tag_479:\n      0x00\n        /* \"#utility.yul\":29688:29693   */\n      dup2\n        /* \"#utility.yul\":29681:29694   */\n      iszero\n        /* \"#utility.yul\":29674:29695   */\n      iszero\n        /* \"#utility.yul\":29663:29695   */\n      swap1\n      pop\n        /* \"#utility.yul\":29653:29701   */\n      swap2\n      swap1\n      pop\n      jump\t// out\n        /* \"#utility.yul\":29707:29784   */\n    tag_483:\n      0x00\n        /* \"#utility.yul\":29773:29778   */\n      dup2\n        /* \"#utility.yul\":29762:29778   */\n      swap1\n      pop\n        /* \"#utility.yul\":29752:29784   */\n      swap2\n      swap1\n      pop\n      jump\t// out\n        /* \"#utility.yul\":29790:29939   */\n    tag_703:\n      0x00\n        /* \"#utility.yul\":29866:29932   */\n      0xffffffff00000000000000000000000000000000000000000000000000000000\n        /* \"#utility.yul\":29859:29864   */\n      dup3\n        /* \"#utility.yul\":29855:29933   */\n      and\n        /* \"#utility.yul\":29844:29933   */\n      swap1\n      pop\n        /* \"#utility.yul\":29834:29939   */\n      swap2\n      swap1\n      pop\n      jump\t// out\n        /* \"#utility.yul\":29945:30071   */\n    tag_700:\n      0x00\n        /* \"#utility.yul\":30022:30064   */\n      0xffffffffffffffffffffffffffffffffffffffff\n        /* \"#utility.yul\":30015:30020   */\n      dup3\n        /* \"#utility.yul\":30011:30065   */\n      and\n        /* \"#utility.yul\":30000:30065   */\n      swap1\n      pop\n        /* \"#utility.yul\":29990:30071   */\n      swap2\n      swap1\n      pop\n      jump\t// out\n        /* \"#utility.yul\":30077:30154   */\n    tag_585:\n      0x00\n        /* \"#utility.yul\":30143:30148   */\n      dup2\n        /* \"#utility.yul\":30132:30148   */\n      swap1\n      pop\n        /* \"#utility.yul\":30122:30154   */\n      swap2\n      swap1\n      pop\n      jump\t// out\n        /* \"#utility.yul\":30160:30326   */\n    tag_487:\n      0x00\n        /* \"#utility.yul\":30263:30320   */\n      tag_708\n        /* \"#utility.yul\":30314:30319   */\n      dup3\n        /* \"#utility.yul\":30263:30320   */\n      tag_709\n      jump\t// in\n    tag_708:\n        /* \"#utility.yul\":30250:30320   */\n      swap1\n      pop\n        /* \"#utility.yul\":30240:30326   */\n      swap2\n      swap1\n      pop\n      jump\t// out\n        /* \"#utility.yul\":30332:30465   */\n    tag_709:\n      0x00\n        /* \"#utility.yul\":30435:30459   */\n      tag_711\n        /* \"#utility.yul\":30453:30458   */\n      dup3\n        /* \"#utility.yul\":30435:30459   */\n      tag_700\n      jump\t// in\n    tag_711:\n        /* \"#utility.yul\":30422:30459   */\n      swap1\n      pop\n        /* \"#utility.yul\":30412:30465   */\n      swap2\n      swap1\n      pop\n      jump\t// out\n        /* \"#utility.yul\":30471:30657   */\n    tag_491:\n      0x00\n        /* \"#utility.yul\":30584:30651   */\n      tag_713\n        /* \"#utility.yul\":30645:30650   */\n      dup3\n        /* \"#utility.yul\":30584:30651   */\n      tag_714\n      jump\t// in\n    tag_713:\n        /* \"#utility.yul\":30571:30651   */\n      swap1\n      pop\n        /* \"#utility.yul\":30561:30657   */\n      swap2\n      swap1\n      pop\n      jump\t// out\n        /* \"#utility.yul\":30663:30806   */\n    tag_714:\n      0x00\n        /* \"#utility.yul\":30776:30800   */\n      tag_716\n        /* \"#utility.yul\":30794:30799   */\n      dup3\n        /* \"#utility.yul\":30776:30800   */\n      tag_700\n      jump\t// in\n    tag_716:\n        /* \"#utility.yul\":30763:30800   */\n      swap1\n      pop\n        /* \"#utility.yul\":30753:30806   */\n      swap2\n      swap1\n      pop\n      jump\t// out\n        /* \"#utility.yul\":30812:30978   */\n    tag_495:\n      0x00\n        /* \"#utility.yul\":30915:30972   */\n      tag_718\n        /* \"#utility.yul\":30966:30971   */\n      dup3\n        /* \"#utility.yul\":30915:30972   */\n      tag_719\n      jump\t// in\n    tag_718:\n        /* \"#utility.yul\":30902:30972   */\n      swap1\n      pop\n        /* \"#utility.yul\":30892:30978   */\n      swap2\n      swap1\n      pop\n      jump\t// out\n        /* \"#utility.yul\":30984:31117   */\n    tag_719:\n      0x00\n        /* \"#utility.yul\":31087:31111   */\n      tag_721\n        /* \"#utility.yul\":31105:31110   */\n      dup3\n        /* \"#utility.yul\":31087:31111   */\n      tag_700\n      jump\t// in\n    tag_721:\n        /* \"#utility.yul\":31074:31111   */\n      swap1\n      pop\n        /* \"#utility.yul\":31064:31117   */\n      swap2\n      swap1\n      pop\n      jump\t// out\n        /* \"#utility.yul\":31123:31277   */\n    tag_365:\n        /* \"#utility.yul\":31207:31213   */\n      dup3\n        /* \"#utility.yul\":31202:31205   */\n      dup2\n        /* \"#utility.yul\":31197:31200   */\n      dup4\n        /* \"#utility.yul\":31184:31214   */\n      calldatacopy\n        /* \"#utility.yul\":31269:31270   */\n      0x00\n        /* \"#utility.yul\":31260:31266   */\n      dup4\n        /* \"#utility.yul\":31255:31258   */\n      dup4\n        /* \"#utility.yul\":31251:31267   */\n      add\n        /* \"#utility.yul\":31244:31271   */\n      mstore\n        /* \"#utility.yul\":31174:31277   */\n      pop\n      pop\n      pop\n      jump\t// out\n        /* \"#utility.yul\":31283:31590   */\n    tag_502:\n        /* \"#utility.yul\":31351:31352   */\n      0x00\n        /* \"#utility.yul\":31361:31474   */\n    tag_724:\n        /* \"#utility.yul\":31375:31381   */\n      dup4\n        /* \"#utility.yul\":31372:31373   */\n      dup2\n        /* \"#utility.yul\":31369:31382   */\n      lt\n        /* \"#utility.yul\":31361:31474   */\n      iszero\n      tag_726\n      jumpi\n        /* \"#utility.yul\":31460:31461   */\n      dup1\n        /* \"#utility.yul\":31455:31458   */\n      dup3\n        /* \"#utility.yul\":31451:31462   */\n      add\n        /* \"#utility.yul\":31445:31463   */\n      mload\n        /* \"#utility.yul\":31441:31442   */\n      dup2\n        /* \"#utility.yul\":31436:31439   */\n      dup5\n        /* \"#utility.yul\":31432:31443   */\n      add\n        /* \"#utility.yul\":31425:31464   */\n      mstore\n        /* \"#utility.yul\":31397:31399   */\n      0x20\n        /* \"#utility.yul\":31394:31395   */\n      dup2\n        /* \"#utility.yul\":31390:31400   */\n      add\n        /* \"#utility.yul\":31385:31400   */\n      swap1\n      pop\n        /* \"#utility.yul\":31361:31474   */\n      jump(tag_724)\n    tag_726:\n        /* \"#utility.yul\":31492:31498   */\n      dup4\n        /* \"#utility.yul\":31489:31490   */\n      dup2\n        /* \"#utility.yul\":31486:31499   */\n      gt\n        /* \"#utility.yul\":31483:31485   */\n      iszero\n      tag_727\n      jumpi\n        /* \"#utility.yul\":31572:31573   */\n      0x00\n        /* \"#utility.yul\":31563:31569   */\n      dup5\n        /* \"#utility.yul\":31558:31561   */\n      dup5\n        /* \"#utility.yul\":31554:31570   */\n      add\n        /* \"#utility.yul\":31547:31574   */\n      mstore\n        /* \"#utility.yul\":31483:31485   */\n    tag_727:\n        /* \"#utility.yul\":31332:31590   */\n      pop\n      pop\n      pop\n      pop\n      jump\t// out\n        /* \"#utility.yul\":31596:31767   */\n    tag_272:\n      0x00\n        /* \"#utility.yul\":31658:31682   */\n      tag_729\n        /* \"#utility.yul\":31676:31681   */\n      dup3\n        /* \"#utility.yul\":31658:31682   */\n      tag_585\n      jump\t// in\n    tag_729:\n        /* \"#utility.yul\":31649:31682   */\n      swap2\n      pop\n        /* \"#utility.yul\":31704:31708   */\n      0x00\n        /* \"#utility.yul\":31697:31702   */\n      dup3\n        /* \"#utility.yul\":31694:31709   */\n      eq\n        /* \"#utility.yul\":31691:31693   */\n      iszero\n      tag_730\n      jumpi\n        /* \"#utility.yul\":31712:31730   */\n      tag_731\n      tag_681\n      jump\t// in\n    tag_731:\n        /* \"#utility.yul\":31691:31693   */\n    tag_730:\n        /* \"#utility.yul\":31759:31760   */\n      0x01\n        /* \"#utility.yul\":31752:31757   */\n      dup3\n        /* \"#utility.yul\":31748:31761   */\n      sub\n        /* \"#utility.yul\":31741:31761   */\n      swap1\n      pop\n        /* \"#utility.yul\":31639:31767   */\n      swap2\n      swap1\n      pop\n      jump\t// out\n        /* \"#utility.yul\":31773:32054   */\n    tag_651:\n        /* \"#utility.yul\":31856:31883   */\n      tag_733\n        /* \"#utility.yul\":31878:31882   */\n      dup3\n        /* \"#utility.yul\":31856:31883   */\n      tag_504\n      jump\t// in\n    tag_733:\n        /* \"#utility.yul\":31848:31854   */\n      dup2\n        /* \"#utility.yul\":31844:31884   */\n      add\n        /* \"#utility.yul\":31986:31992   */\n      dup2\n        /* \"#utility.yul\":31974:31984   */\n      dup2\n        /* \"#utility.yul\":31971:31993   */\n      lt\n        /* \"#utility.yul\":31950:31968   */\n      0xffffffffffffffff\n        /* \"#utility.yul\":31938:31948   */\n      dup3\n        /* \"#utility.yul\":31935:31969   */\n      gt\n        /* \"#utility.yul\":31932:31994   */\n      or\n        /* \"#utility.yul\":31929:31931   */\n      iszero\n      tag_734\n      jumpi\n        /* \"#utility.yul\":31997:32015   */\n      tag_735\n      tag_656\n      jump\t// in\n    tag_735:\n        /* \"#utility.yul\":31929:31931   */\n    tag_734:\n        /* \"#utility.yul\":32037:32047   */\n      dup1\n        /* \"#utility.yul\":32033:32035   */\n      0x40\n        /* \"#utility.yul\":32026:32048   */\n      mstore\n        /* \"#utility.yul\":31816:32054   */\n      pop\n      pop\n      pop\n      jump\t// out\n        /* \"#utility.yul\":32060:32160   */\n    tag_447:\n      0x00\n        /* \"#utility.yul\":32128:32154   */\n      tag_737\n        /* \"#utility.yul\":32148:32153   */\n      dup3\n        /* \"#utility.yul\":32128:32154   */\n      tag_738\n      jump\t// in\n    tag_737:\n        /* \"#utility.yul\":32117:32154   */\n      swap1\n      pop\n        /* \"#utility.yul\":32107:32160   */\n      swap2\n      swap1\n      pop\n      jump\t// out\n        /* \"#utility.yul\":32166:32260   */\n    tag_738:\n      0x00\n        /* \"#utility.yul\":32234:32254   */\n      tag_740\n        /* \"#utility.yul\":32248:32253   */\n      dup3\n        /* \"#utility.yul\":32234:32254   */\n      tag_741\n      jump\t// in\n    tag_740:\n        /* \"#utility.yul\":32223:32254   */\n      swap1\n      pop\n        /* \"#utility.yul\":32213:32260   */\n      swap2\n      swap1\n      pop\n      jump\t// out\n        /* \"#utility.yul\":32266:32345   */\n    tag_593:\n      0x00\n        /* \"#utility.yul\":32334:32339   */\n      dup2\n        /* \"#utility.yul\":32323:32339   */\n      swap1\n      pop\n        /* \"#utility.yul\":32313:32345   */\n      swap2\n      swap1\n      pop\n      jump\t// out\n        /* \"#utility.yul\":32351:32531   */\n    tag_681:\n        /* \"#utility.yul\":32399:32476   */\n      0x4e487b7100000000000000000000000000000000000000000000000000000000\n        /* \"#utility.yul\":32396:32397   */\n      0x00\n        /* \"#utility.yul\":32389:32477   */\n      mstore\n        /* \"#utility.yul\":32496:32500   */\n      0x11\n        /* \"#utility.yul\":32493:32494   */\n      0x04\n        /* \"#utility.yul\":32486:32501   */\n      mstore\n        /* \"#utility.yul\":32520:32524   */\n      0x24\n        /* \"#utility.yul\":32517:32518   */\n      0x00\n        /* \"#utility.yul\":32510:32525   */\n      revert\n        /* \"#utility.yul\":32537:32717   */\n    tag_687:\n        /* \"#utility.yul\":32585:32662   */\n      0x4e487b7100000000000000000000000000000000000000000000000000000000\n        /* \"#utility.yul\":32582:32583   */\n      0x00\n        /* \"#utility.yul\":32575:32663   */\n      mstore\n        /* \"#utility.yul\":32682:32686   */\n      0x12\n        /* \"#utility.yul\":32679:32680   */\n      0x04\n        /* \"#utility.yul\":32672:32687   */\n      mstore\n        /* \"#utility.yul\":32706:32710   */\n      0x24\n        /* \"#utility.yul\":32703:32704   */\n      0x00\n        /* \"#utility.yul\":32696:32711   */\n      revert\n        /* \"#utility.yul\":32723:32903   */\n    tag_656:\n        /* \"#utility.yul\":32771:32848   */\n      0x4e487b7100000000000000000000000000000000000000000000000000000000\n        /* \"#utility.yul\":32768:32769   */\n      0x00\n        /* \"#utility.yul\":32761:32849   */\n      mstore\n        /* \"#utility.yul\":32868:32872   */\n      0x41\n        /* \"#utility.yul\":32865:32866   */\n      0x04\n        /* \"#utility.yul\":32858:32873   */\n      mstore\n        /* \"#utility.yul\":32892:32896   */\n      0x24\n        /* \"#utility.yul\":32889:32890   */\n      0x00\n        /* \"#utility.yul\":32882:32897   */\n      revert\n        /* \"#utility.yul\":32909:33011   */\n    tag_504:\n      0x00\n        /* \"#utility.yul\":33001:33003   */\n      0x1f\n        /* \"#utility.yul\":32997:33004   */\n      not\n        /* \"#utility.yul\":32992:32994   */\n      0x1f\n        /* \"#utility.yul\":32985:32990   */\n      dup4\n        /* \"#utility.yul\":32981:32995   */\n      add\n        /* \"#utility.yul\":32977:33005   */\n      and\n        /* \"#utility.yul\":32967:33005   */\n      swap1\n      pop\n        /* \"#utility.yul\":32957:33011   */\n      swap2\n      swap1\n      pop\n      jump\t// out\n        /* \"#utility.yul\":33017:33111   */\n    tag_741:\n      0x00\n        /* \"#utility.yul\":33098:33103   */\n      dup2\n        /* \"#utility.yul\":33094:33096   */\n      0x60\n        /* \"#utility.yul\":33090:33104   */\n      shl\n        /* \"#utility.yul\":33069:33104   */\n      swap1\n      pop\n        /* \"#utility.yul\":33059:33111   */\n      swap2\n      swap1\n      pop\n      jump\t// out\n        /* \"#utility.yul\":33117:33299   */\n    tag_522:\n        /* \"#utility.yul\":33257:33291   */\n      0x537472696e67733a20686578206c656e67746820696e73756666696369656e74\n        /* \"#utility.yul\":33253:33254   */\n      0x00\n        /* \"#utility.yul\":33245:33251   */\n      dup3\n        /* \"#utility.yul\":33241:33255   */\n      add\n        /* \"#utility.yul\":33234:33292   */\n      mstore\n        /* \"#utility.yul\":33223:33299   */\n      pop\n      jump\t// out\n        /* \"#utility.yul\":33305:33463   */\n    tag_527:\n        /* \"#utility.yul\":33445:33455   */\n      0x4164647265737320000000000000000000000000000000000000000000000000\n        /* \"#utility.yul\":33441:33442   */\n      0x00\n        /* \"#utility.yul\":33433:33439   */\n      dup3\n        /* \"#utility.yul\":33429:33443   */\n      add\n        /* \"#utility.yul\":33422:33456   */\n      mstore\n        /* \"#utility.yul\":33411:33463   */\n      pop\n      jump\t// out\n        /* \"#utility.yul\":33469:33710   */\n    tag_532:\n        /* \"#utility.yul\":33609:33643   */\n      0x43616e6e6f74206d696e7420746f207472656173757279206164647265737320\n        /* \"#utility.yul\":33605:33606   */\n      0x00\n        /* \"#utility.yul\":33597:33603   */\n      dup3\n        /* \"#utility.yul\":33593:33607   */\n      add\n        /* \"#utility.yul\":33586:33644   */\n      mstore\n        /* \"#utility.yul\":33678:33702   */\n      0x756e74696c2073616c652069732066696e697368656400000000000000000000\n        /* \"#utility.yul\":33673:33675   */\n      0x20\n        /* \"#utility.yul\":33665:33671   */\n      dup3\n        /* \"#utility.yul\":33661:33676   */\n      add\n        /* \"#utility.yul\":33654:33703   */\n      mstore\n        /* \"#utility.yul\":33575:33710   */\n      pop\n      jump\t// out\n        /* \"#utility.yul\":33716:33893   */\n    tag_537:\n        /* \"#utility.yul\":33856:33885   */\n      0x74696d657374616d70206973206e6f742075702d746f2d646174650000000000\n        /* \"#utility.yul\":33852:33853   */\n      0x00\n        /* \"#utility.yul\":33844:33850   */\n      dup3\n        /* \"#utility.yul\":33840:33854   */\n      add\n        /* \"#utility.yul\":33833:33886   */\n      mstore\n        /* \"#utility.yul\":33822:33893   */\n      pop\n      jump\t// out\n        /* \"#utility.yul\":33899:34121   */\n    tag_542:\n        /* \"#utility.yul\":34039:34073   */\n      0x53656e646572206973206e6f742053616c65204d616e61676572206f72204164\n        /* \"#utility.yul\":34035:34036   */\n      0x00\n        /* \"#utility.yul\":34027:34033   */\n      dup3\n        /* \"#utility.yul\":34023:34037   */\n      add\n        /* \"#utility.yul\":34016:34074   */\n      mstore\n        /* \"#utility.yul\":34108:34113   */\n      0x6d696e0000000000000000000000000000000000000000000000000000000000\n        /* \"#utility.yul\":34103:34105   */\n      0x20\n        /* \"#utility.yul\":34095:34101   */\n      dup3\n        /* \"#utility.yul\":34091:34106   */\n      add\n        /* \"#utility.yul\":34084:34114   */\n      mstore\n        /* \"#utility.yul\":34005:34121   */\n      pop\n      jump\t// out\n        /* \"#utility.yul\":34127:34348   */\n    tag_547:\n        /* \"#utility.yul\":34267:34301   */\n      0x53656e646572206973206e6f7420555249204d616e61676572206f722041646d\n        /* \"#utility.yul\":34263:34264   */\n      0x00\n        /* \"#utility.yul\":34255:34261   */\n      dup3\n        /* \"#utility.yul\":34251:34265   */\n      add\n        /* \"#utility.yul\":34244:34302   */\n      mstore\n        /* \"#utility.yul\":34336:34340   */\n      0x696e000000000000000000000000000000000000000000000000000000000000\n        /* \"#utility.yul\":34331:34333   */\n      0x20\n        /* \"#utility.yul\":34323:34329   */\n      dup3\n        /* \"#utility.yul\":34319:34334   */\n      add\n        /* \"#utility.yul\":34312:34341   */\n      mstore\n        /* \"#utility.yul\":34233:34348   */\n      pop\n      jump\t// out\n        /* \"#utility.yul\":34354:34505   */\n    tag_552:\n        /* \"#utility.yul\":34494:34497   */\n      0x2500000000000000000000000000000000000000000000000000000000000000\n        /* \"#utility.yul\":34490:34491   */\n      0x00\n        /* \"#utility.yul\":34482:34488   */\n      dup3\n        /* \"#utility.yul\":34478:34492   */\n      add\n        /* \"#utility.yul\":34471:34498   */\n      mstore\n        /* \"#utility.yul\":34460:34505   */\n      pop\n      jump\t// out\n        /* \"#utility.yul\":34511:34746   */\n    tag_557:\n        /* \"#utility.yul\":34651:34685   */\n      0x20646f6573206e6f742068617665206120636f75706f6e207769746820612064\n        /* \"#utility.yul\":34647:34648   */\n      0x00\n        /* \"#utility.yul\":34639:34645   */\n      dup3\n        /* \"#utility.yul\":34635:34649   */\n      add\n        /* \"#utility.yul\":34628:34686   */\n      mstore\n        /* \"#utility.yul\":34720:34738   */\n      0x6973636f756e742072617465206f662000000000000000000000000000000000\n        /* \"#utility.yul\":34715:34717   */\n      0x20\n        /* \"#utility.yul\":34707:34713   */\n      dup3\n        /* \"#utility.yul\":34703:34718   */\n      add\n        /* \"#utility.yul\":34696:34739   */\n      mstore\n        /* \"#utility.yul\":34617:34746   */\n      pop\n      jump\t// out\n        /* \"#utility.yul\":34752:34924   */\n    tag_562:\n        /* \"#utility.yul\":34892:34916   */\n      0x4e6f20746f6b656e73206c65667420746f206d696e7400000000000000000000\n        /* \"#utility.yul\":34888:34889   */\n      0x00\n        /* \"#utility.yul\":34880:34886   */\n      dup3\n        /* \"#utility.yul\":34876:34890   */\n      add\n        /* \"#utility.yul\":34869:34917   */\n      mstore\n        /* \"#utility.yul\":34858:34924   */\n      pop\n      jump\t// out\n        /* \"#utility.yul\":34930:35111   */\n    tag_567:\n        /* \"#utility.yul\":35070:35103   */\n      0x737461727454696d65206973206c61746572207468616e20656e6454696d6500\n        /* \"#utility.yul\":35066:35067   */\n      0x00\n        /* \"#utility.yul\":35058:35064   */\n      dup3\n        /* \"#utility.yul\":35054:35068   */\n      add\n        /* \"#utility.yul\":35047:35104   */\n      mstore\n        /* \"#utility.yul\":35036:35111   */\n      pop\n      jump\t// out\n        /* \"#utility.yul\":35117:35290   */\n    tag_572:\n        /* \"#utility.yul\":35257:35282   */\n      0x416363657373436f6e74726f6c3a206163636f756e7420000000000000000000\n        /* \"#utility.yul\":35253:35254   */\n      0x00\n        /* \"#utility.yul\":35245:35251   */\n      dup3\n        /* \"#utility.yul\":35241:35255   */\n      add\n        /* \"#utility.yul\":35234:35283   */\n      mstore\n        /* \"#utility.yul\":35223:35290   */\n      pop\n      jump\t// out\n        /* \"#utility.yul\":35296:35463   */\n    tag_577:\n        /* \"#utility.yul\":35436:35455   */\n      0x206973206d697373696e6720726f6c6520000000000000000000000000000000\n        /* \"#utility.yul\":35432:35433   */\n      0x00\n        /* \"#utility.yul\":35424:35430   */\n      dup3\n        /* \"#utility.yul\":35420:35434   */\n      add\n        /* \"#utility.yul\":35413:35456   */\n      mstore\n        /* \"#utility.yul\":35402:35463   */\n      pop\n      jump\t// out\n        /* \"#utility.yul\":35469:35703   */\n    tag_582:\n        /* \"#utility.yul\":35609:35643   */\n      0x416363657373436f6e74726f6c3a2063616e206f6e6c792072656e6f756e6365\n        /* \"#utility.yul\":35605:35606   */\n      0x00\n        /* \"#utility.yul\":35597:35603   */\n      dup3\n        /* \"#utility.yul\":35593:35607   */\n      add\n        /* \"#utility.yul\":35586:35644   */\n      mstore\n        /* \"#utility.yul\":35678:35695   */\n      0x20726f6c657320666f722073656c660000000000000000000000000000000000\n        /* \"#utility.yul\":35673:35675   */\n      0x20\n        /* \"#utility.yul\":35665:35671   */\n      dup3\n        /* \"#utility.yul\":35661:35676   */\n      add\n        /* \"#utility.yul\":35654:35696   */\n      mstore\n        /* \"#utility.yul\":35575:35703   */\n      pop\n      jump\t// out\n        /* \"#utility.yul\":35709:35831   */\n    tag_369:\n        /* \"#utility.yul\":35782:35806   */\n      tag_762\n        /* \"#utility.yul\":35800:35805   */\n      dup2\n        /* \"#utility.yul\":35782:35806   */\n      tag_442\n      jump\t// in\n    tag_762:\n        /* \"#utility.yul\":35775:35780   */\n      dup2\n        /* \"#utility.yul\":35772:35807   */\n      eq\n        /* \"#utility.yul\":35762:35764   */\n      tag_763\n      jumpi\n        /* \"#utility.yul\":35821:35822   */\n      0x00\n        /* \"#utility.yul\":35818:35819   */\n      dup1\n        /* \"#utility.yul\":35811:35823   */\n      revert\n        /* \"#utility.yul\":35762:35764   */\n    tag_763:\n        /* \"#utility.yul\":35752:35831   */\n      pop\n      jump\t// out\n        /* \"#utility.yul\":35837:35953   */\n    tag_381:\n        /* \"#utility.yul\":35907:35928   */\n      tag_765\n        /* \"#utility.yul\":35922:35927   */\n      dup2\n        /* \"#utility.yul\":35907:35928   */\n      tag_479\n      jump\t// in\n    tag_765:\n        /* \"#utility.yul\":35900:35905   */\n      dup2\n        /* \"#utility.yul\":35897:35929   */\n      eq\n        /* \"#utility.yul\":35887:35889   */\n      tag_766\n      jumpi\n        /* \"#utility.yul\":35943:35944   */\n      0x00\n        /* \"#utility.yul\":35940:35941   */\n      dup1\n        /* \"#utility.yul\":35933:35945   */\n      revert\n        /* \"#utility.yul\":35887:35889   */\n    tag_766:\n        /* \"#utility.yul\":35877:35953   */\n      pop\n      jump\t// out\n        /* \"#utility.yul\":35959:36081   */\n    tag_385:\n        /* \"#utility.yul\":36032:36056   */\n      tag_768\n        /* \"#utility.yul\":36050:36055   */\n      dup2\n        /* \"#utility.yul\":36032:36056   */\n      tag_483\n      jump\t// in\n    tag_768:\n        /* \"#utility.yul\":36025:36030   */\n      dup2\n        /* \"#utility.yul\":36022:36057   */\n      eq\n        /* \"#utility.yul\":36012:36014   */\n      tag_769\n      jumpi\n        /* \"#utility.yul\":36071:36072   */\n      0x00\n        /* \"#utility.yul\":36068:36069   */\n      dup1\n        /* \"#utility.yul\":36061:36073   */\n      revert\n        /* \"#utility.yul\":36012:36014   */\n    tag_769:\n        /* \"#utility.yul\":36002:36081   */\n      pop\n      jump\t// out\n        /* \"#utility.yul\":36087:36207   */\n    tag_389:\n        /* \"#utility.yul\":36159:36182   */\n      tag_771\n        /* \"#utility.yul\":36176:36181   */\n      dup2\n        /* \"#utility.yul\":36159:36182   */\n      tag_703\n      jump\t// in\n    tag_771:\n        /* \"#utility.yul\":36152:36157   */\n      dup2\n        /* \"#utility.yul\":36149:36183   */\n      eq\n        /* \"#utility.yul\":36139:36141   */\n      tag_772\n      jumpi\n        /* \"#utility.yul\":36197:36198   */\n      0x00\n        /* \"#utility.yul\":36194:36195   */\n      dup1\n        /* \"#utility.yul\":36187:36199   */\n      revert\n        /* \"#utility.yul\":36139:36141   */\n    tag_772:\n        /* \"#utility.yul\":36129:36207   */\n      pop\n      jump\t// out\n        /* \"#utility.yul\":36213:36335   */\n    tag_395:\n        /* \"#utility.yul\":36286:36310   */\n      tag_774\n        /* \"#utility.yul\":36304:36309   */\n      dup2\n        /* \"#utility.yul\":36286:36310   */\n      tag_585\n      jump\t// in\n    tag_774:\n        /* \"#utility.yul\":36279:36284   */\n      dup2\n        /* \"#utility.yul\":36276:36311   */\n      eq\n        /* \"#utility.yul\":36266:36268   */\n      tag_775\n      jumpi\n        /* \"#utility.yul\":36325:36326   */\n      0x00\n        /* \"#utility.yul\":36322:36323   */\n      dup1\n        /* \"#utility.yul\":36315:36327   */\n      revert\n        /* \"#utility.yul\":36266:36268   */\n    tag_775:\n        /* \"#utility.yul\":36256:36335   */\n      pop\n      jump\t// out\n\n    auxdata: 0xa2646970667358221220ce71f9dffec490775e3cd045004255e9b509d9471295d6b57281c4b5bda903ff64736f6c63430008010033\n}\n",
				"bytecode": {
					"linkReferences": {},
					"object": "60806040526370dc49006005556370dc4964600655620f4240600a620000269190620000aa565b600755620f424060016200003b9190620000aa565b60085560405180606001604052806127108152602001428152602001600015158152506009600082015181600001556020820151816001015560408201518160020160006101000a81548160ff0219169083151502179055505050348015620000a357600080fd5b5062000144565b6000620000b7826200010b565b9150620000c4836200010b565b9250817fffffffffffffffffffffffffffffffffffffffffffffffffffffffffffffffff04831182151516156200010057620000ff62000115565b5b828202905092915050565b6000819050919050565b7f4e487b7100000000000000000000000000000000000000000000000000000000600052601160045260246000fd5b612a7080620001546000396000f3fe608060405234801561001057600080fd5b506004361061018e5760003560e01c80638c83faeb116100de578063c046371111610097578063ccb98ffc11610071578063ccb98ffc14610451578063d547741f1461046d578063f121da9214610489578063f715dfca146104a55761018e565b8063c0463711146103f5578063c5dae48f14610415578063c5f956af146104335761018e565b80638c83faeb1461033357806391d1485414610351578063944044a114610381578063a217fddf1461039d578063ab6c0306146103bb578063bff29cee146103eb5761018e565b80634c0f38c21161014b578063551b42a811610125578063551b42a8146102bb5780635ce7e721146102d9578063682d07d9146102f757806368fc01a2146103155761018e565b80634c0f38c2146102655780634c9b73da1461028357806351f7598c1461029f5761018e565b806301ffc9a714610193578063248a9ca3146101c357806326116d47146101f35780632f2ff15d146101fd57806336568abe14610219578063432c7c5d14610235575b600080fd5b6101ad60048036038101906101a89190611aa0565b6104af565b6040516101ba919061202c565b60405180910390f35b6101dd60048036038101906101d89190611a3b565b610529565b6040516101ea9190612047565b60405180910390f35b6101fb610548565b005b61021760048036038101906102129190611a64565b61064b565b005b610233600480360381019061022e9190611a64565b610674565b005b61024f600480360381019061024a919061196a565b6106f7565b60405161025c91906121d5565b60405180910390f35b61026d610713565b60405161027a91906121d5565b60405180910390f35b61029d60048036038101906102989190611ac9565b6107ba565b005b6102b960048036038101906102b49190611941565b6107dd565b005b6102c3610837565b6040516102d09190612047565b60405180910390f35b6102e161085b565b6040516102ee919061207d565b60405180910390f35b6102ff610881565b60405161030c9190612047565b60405180910390f35b61031d6108a5565b60405161032a91906121d5565b60405180910390f35b61033b61094c565b6040516103489190612062565b60405180910390f35b61036b60048036038101906103669190611a64565b610972565b604051610378919061202c565b60405180910390f35b61039b60048036038101906103969190611ac9565b6109dc565b005b6103a5610a71565b6040516103b29190612047565b60405180910390f35b6103d560048036038101906103d0919061196a565b610a78565b6040516103e291906121d5565b60405180910390f35b6103f3610c09565b005b6103fd610c27565b60405161040c939291906121f0565b60405180910390f35b61041d610c4c565b60405161042a9190612098565b60405180910390f35b61043b610c72565b6040516104489190611fb1565b60405180910390f35b61046b60048036038101906104669190611ac9565b610c98565b005b61048760048036038101906104829190611a64565b610d2d565b005b6104a3600480360381019061049e91906119a6565b610d56565b005b6104ad610e74565b005b60007f7965db0b000000000000000000000000000000000000000000000000000000007bffffffffffffffffffffffffffffffffffffffffffffffffffffffff1916827bffffffffffffffffffffffffffffffffffffffffffffffffffffffff19161480610522575061052182610f51565b5b9050919050565b6000806000838152602001908152602001600020600101549050919050565b610550610fbb565b600654421180156105715750600960020160009054906101000a900460ff16155b6105b0576040517f08c379a00000000000000000000000000000000000000000000000000000000081526004016105a7906120f5565b60405180910390fd5b600060016105bc6108a5565b6105c69190612460565b6105ce610713565b6105d89190612460565b90506000811161061d576040517f08c379a000000000000000000000000000000000000000000000000000000000815260040161061490612175565b60405180910390fd5b610648600460009054906101000a900473ffffffffffffffffffffffffffffffffffffffff166110b3565b50565b61065482610529565b61066581610660611143565b61114b565b61066f83836111e8565b505050565b61067c611143565b73ffffffffffffffffffffffffffffffffffffffff168173ffffffffffffffffffffffffffffffffffffffff16146106e9576040517f08c379a00000000000000000000000000000000000000000000000000000000081526004016106e0906121b5565b60405180910390fd5b6106f382826112c8565b5050565b6000610701610fbb565b61070b8383610a78565b905092915050565b6000600160009054906101000a900473ffffffffffffffffffffffffffffffffffffffff1673ffffffffffffffffffffffffffffffffffffffff16634c0f38c26040518163ffffffff1660e01b815260040160206040518083038186803b15801561077d57600080fd5b505afa158015610791573d6000803e3d6000fd5b505050506040513d601f19601f820116820180604052508101906107b59190611af2565b905090565b6107c2610fbb565b60006107ce3383610a78565b90506107d9816113a9565b5050565b6000801b6107f2816107ed611143565b61114b565b81600160006101000a81548173ffffffffffffffffffffffffffffffffffffffff021916908373ffffffffffffffffffffffffffffffffffffffff1602179055505050565b7f988301af8238f779281a300de031815cd01b48e9f1ae47a0f91ed6584213624a81565b600260009054906101000a900473ffffffffffffffffffffffffffffffffffffffff1681565b7fa70a2d8710fed9f014c8c2af50c7c2f6b25748ae4cded822e03b7beed44cf3a881565b6000600160009054906101000a900473ffffffffffffffffffffffffffffffffffffffff1673ffffffffffffffffffffffffffffffffffffffff166368fc01a26040518163ffffffff1660e01b815260040160206040518083038186803b15801561090f57600080fd5b505afa158015610923573d6000803e3d6000fd5b505050506040513d601f19601f820116820180604052508101906109479190611af2565b905090565b600160009054906101000a900473ffffffffffffffffffffffffffffffffffffffff1681565b600080600084815260200190815260200160002060000160008373ffffffffffffffffffffffffffffffffffffffff1673ffffffffffffffffffffffffffffffffffffffff16815260200190815260200160002060009054906101000a900460ff16905092915050565b610a0d7f988301af8238f779281a300de031815cd01b48e9f1ae47a0f91ed6584213624a610a08611143565b610972565b80610a285750610a276000801b610a22611143565b610972565b5b610a67576040517f08c379a0000000000000000000000000000000000000000000000000000000008152600401610a5e90612135565b60405180910390fd5b8060058190555050565b6000801b81565b60004260096001015414610ac1576040517f08c379a0000000000000000000000000000000000000000000000000000000008152600401610ab890612115565b60405180910390fd5b600260009054906101000a900473ffffffffffffffffffffffffffffffffffffffff1673ffffffffffffffffffffffffffffffffffffffff16632080179d84846040518363ffffffff1660e01b8152600401610b1e929190611fcc565b60206040518083038186803b158015610b3657600080fd5b505afa158015610b4a573d6000803e3d6000fd5b505050506040513d601f19601f82011682018060405250810190610b6e9190611a12565b8383604051602001610b81929190611f2a565b60405160208183030381529060405290610bd1576040517f08c379a0000000000000000000000000000000000000000000000000000000008152600401610bc891906120b3565b60405180910390fd5b506000826064610be19190612460565b6064600960000154610bf391906123d5565b610bfd9190612406565b90508091505092915050565b610c11610fbb565b60006009600001549050610c24816113a9565b50565b60098060000154908060010154908060020160009054906101000a900460ff16905083565b600360009054906101000a900473ffffffffffffffffffffffffffffffffffffffff1681565b600460009054906101000a900473ffffffffffffffffffffffffffffffffffffffff1681565b610cc97f988301af8238f779281a300de031815cd01b48e9f1ae47a0f91ed6584213624a610cc4611143565b610972565b80610ce45750610ce36000801b610cde611143565b610972565b5b610d23576040517f08c379a0000000000000000000000000000000000000000000000000000000008152600401610d1a90612135565b60405180910390fd5b8060068190555050565b610d3682610529565b610d4781610d42611143565b61114b565b610d5183836112c8565b505050565b610d877fa70a2d8710fed9f014c8c2af50c7c2f6b25748ae4cded822e03b7beed44cf3a8610d82611143565b610972565b80610da25750610da16000801b610d9c611143565b610972565b5b610de1576040517f08c379a0000000000000000000000000000000000000000000000000000000008152600401610dd890612155565b60405180910390fd5b600160009054906101000a900473ffffffffffffffffffffffffffffffffffffffff1673ffffffffffffffffffffffffffffffffffffffff1663f121da9283836040518363ffffffff1660e01b8152600401610e3e929190611ff5565b600060405180830381600087803b158015610e5857600080fd5b505af1158015610e6c573d6000803e3d6000fd5b505050505050565b610e7c610fbb565b60065442118015610e9d5750600960020160009054906101000a900460ff16155b610edc576040517f08c379a0000000000000000000000000000000000000000000000000000000008152600401610ed3906120f5565b60405180910390fd5b60006001610ee86108a5565b610ef29190612460565b610efa610713565b610f049190612460565b90505b6000811115610f4e57610f3b600460009054906101000a900473ffffffffffffffffffffffffffffffffffffffff166110b3565b8080610f46906125c0565b915050610f07565b50565b60007f01ffc9a7000000000000000000000000000000000000000000000000000000007bffffffffffffffffffffffffffffffffffffffffffffffffffffffff1916827bffffffffffffffffffffffffffffffffffffffffffffffffffffffff1916149050919050565b6006546005541115611002576040517f08c379a0000000000000000000000000000000000000000000000000000000008152600401610ff990612195565b60405180910390fd5b620f424060016110129190612406565b603c600554426110229190612460565b61102c91906123d5565b6110369190612406565b6007546110439190612460565b60096000018190555042600960010181905550600554421015801561106a57506006544211155b15611092576001600960020160006101000a81548160ff0219169083151502179055506110b1565b6000600960020160006101000a81548160ff0219169083151502179055505b565b600160009054906101000a900473ffffffffffffffffffffffffffffffffffffffff1673ffffffffffffffffffffffffffffffffffffffff166355676590826040518263ffffffff1660e01b815260040161110e9190611fb1565b600060405180830381600087803b15801561112857600080fd5b505af115801561113c573d6000803e3d6000fd5b5050505050565b600033905090565b6111558282610972565b6111e45761117a8173ffffffffffffffffffffffffffffffffffffffff166014611444565b6111888360001c6020611444565b604051602001611199929190611f77565b6040516020818303038152906040526040517f08c379a00000000000000000000000000000000000000000000000000000000081526004016111db91906120b3565b60405180910390fd5b5050565b6111f28282610972565b6112c457600160008084815260200190815260200160002060000160008373ffffffffffffffffffffffffffffffffffffffff1673ffffffffffffffffffffffffffffffffffffffff16815260200190815260200160002060006101000a81548160ff021916908315150217905550611269611143565b73ffffffffffffffffffffffffffffffffffffffff168173ffffffffffffffffffffffffffffffffffffffff16837f2f8788117e7eff1d82e926ec794901d17c78024a50270940304540a733656f0d60405160405180910390a45b5050565b6112d28282610972565b156113a557600080600084815260200190815260200160002060000160008373ffffffffffffffffffffffffffffffffffffffff1673ffffffffffffffffffffffffffffffffffffffff16815260200190815260200160002060006101000a81548160ff02191690831515021790555061134a611143565b73ffffffffffffffffffffffffffffffffffffffff168173ffffffffffffffffffffffffffffffffffffffff16837ff6391f5c32d9c69d2a47ea670b442974b53935d1edc7fd64eb21e047a839171b60405160405180910390a45b5050565b600360009054906101000a900473ffffffffffffffffffffffffffffffffffffffff1673ffffffffffffffffffffffffffffffffffffffff1663532b291333836040518363ffffffff1660e01b8152600401611406929190611fcc565b600060405180830381600087803b15801561142057600080fd5b505af1158015611434573d6000803e3d6000fd5b50505050611441336110b3565b50565b6060600060028360026114579190612406565b611461919061237f565b67ffffffffffffffff8111156114a0577f4e487b7100000000000000000000000000000000000000000000000000000000600052604160045260246000fd5b6040519080825280601f01601f1916602001820160405280156114d25781602001600182028036833780820191505090505b5090507f300000000000000000000000000000000000000000000000000000000000000081600081518110611530577f4e487b7100000000000000000000000000000000000000000000000000000000600052603260045260246000fd5b60200101907effffffffffffffffffffffffffffffffffffffffffffffffffffffffffffff1916908160001a9053507f7800000000000000000000000000000000000000000000000000000000000000816001815181106115ba577f4e487b7100000000000000000000000000000000000000000000000000000000600052603260045260246000fd5b60200101907effffffffffffffffffffffffffffffffffffffffffffffffffffffffffffff1916908160001a905350600060018460026115fa9190612406565b611604919061237f565b90505b60018111156116f0577f3031323334353637383961626364656600000000000000000000000000000000600f86166010811061166c577f4e487b7100000000000000000000000000000000000000000000000000000000600052603260045260246000fd5b1a60f81b8282815181106116a9577f4e487b7100000000000000000000000000000000000000000000000000000000600052603260045260246000fd5b60200101907effffffffffffffffffffffffffffffffffffffffffffffffffffffffffffff1916908160001a905350600485901c9450806116e9906125c0565b9050611607565b5060008414611734576040517f08c379a000000000000000000000000000000000000000000000000000000000815260040161172b906120d5565b60405180910390fd5b8091505092915050565b600061175161174c8461224c565b612227565b9050808382526020820190508260005b85811015611791578135850161177788826118ed565b845260208401935060208301925050600181019050611761565b5050509392505050565b60006117ae6117a984612278565b612227565b905080838252602082019050828560208602820111156117cd57600080fd5b60005b858110156117fd57816117e38882611917565b8452602084019350602083019250506001810190506117d0565b5050509392505050565b600061181a611815846122a4565b612227565b90508281526020810184848401111561183257600080fd5b61183d84828561257e565b509392505050565b600081359050611854816129c7565b92915050565b600082601f83011261186b57600080fd5b813561187b84826020860161173e565b91505092915050565b600082601f83011261189557600080fd5b81356118a584826020860161179b565b91505092915050565b6000815190506118bd816129de565b92915050565b6000813590506118d2816129f5565b92915050565b6000813590506118e781612a0c565b92915050565b600082601f8301126118fe57600080fd5b813561190e848260208601611807565b91505092915050565b60008135905061192681612a23565b92915050565b60008151905061193b81612a23565b92915050565b60006020828403121561195357600080fd5b600061196184828501611845565b91505092915050565b6000806040838503121561197d57600080fd5b600061198b85828601611845565b925050602061199c85828601611917565b9150509250929050565b600080604083850312156119b957600080fd5b600083013567ffffffffffffffff8111156119d357600080fd5b6119df85828601611884565b925050602083013567ffffffffffffffff8111156119fc57600080fd5b611a088582860161185a565b9150509250929050565b600060208284031215611a2457600080fd5b6000611a32848285016118ae565b91505092915050565b600060208284031215611a4d57600080fd5b6000611a5b848285016118c3565b91505092915050565b60008060408385031215611a7757600080fd5b6000611a85858286016118c3565b9250506020611a9685828601611845565b9150509250929050565b600060208284031215611ab257600080fd5b6000611ac0848285016118d8565b91505092915050565b600060208284031215611adb57600080fd5b6000611ae984828501611917565b91505092915050565b600060208284031215611b0457600080fd5b6000611b128482850161192c565b91505092915050565b6000611b278383611c8b565b905092915050565b6000611b3b8383611ef5565b60208301905092915050565b611b5081612494565b82525050565b611b67611b6282612494565b61261b565b82525050565b6000611b78826122f5565b611b828185612330565b935083602082028501611b94856122d5565b8060005b85811015611bd05784840389528151611bb18582611b1b565b9450611bbc83612316565b925060208a01995050600181019050611b98565b50829750879550505050505092915050565b6000611bed82612300565b611bf78185612341565b9350611c02836122e5565b8060005b83811015611c33578151611c1a8882611b2f565b9750611c2583612323565b925050600181019050611c06565b5085935050505092915050565b611c49816124a6565b82525050565b611c58816124b2565b82525050565b611c6781612512565b82525050565b611c7681612536565b82525050565b611c858161255a565b82525050565b6000611c968261230b565b611ca08185612352565b9350611cb081856020860161258d565b611cb9816126d6565b840191505092915050565b6000611ccf8261230b565b611cd98185612363565b9350611ce981856020860161258d565b611cf2816126d6565b840191505092915050565b6000611d088261230b565b611d128185612374565b9350611d2281856020860161258d565b80840191505092915050565b6000611d3b602083612363565b9150611d46826126f4565b602082019050919050565b6000611d5e600883612374565b9150611d698261271d565b600882019050919050565b6000611d81603683612363565b9150611d8c82612746565b604082019050919050565b6000611da4601b83612363565b9150611daf82612795565b602082019050919050565b6000611dc7602383612363565b9150611dd2826127be565b604082019050919050565b6000611dea602283612363565b9150611df58261280d565b604082019050919050565b6000611e0d600183612374565b9150611e188261285c565b600182019050919050565b6000611e30603083612374565b9150611e3b82612885565b603082019050919050565b6000611e53601683612363565b9150611e5e826128d4565b602082019050919050565b6000611e76601f83612363565b9150611e81826128fd565b602082019050919050565b6000611e99601783612374565b9150611ea482612926565b601782019050919050565b6000611ebc601183612374565b9150611ec78261294f565b601182019050919050565b6000611edf602f83612363565b9150611eea82612978565b604082019050919050565b611efe81612508565b82525050565b611f0d81612508565b82525050565b611f24611f1f82612508565b61263f565b82525050565b6000611f3582611d51565b9150611f418285611b56565b601482019150611f5082611e23565b9150611f5c8284611f13565b602082019150611f6b82611e00565b91508190509392505050565b6000611f8282611e8c565b9150611f8e8285611cfd565b9150611f9982611eaf565b9150611fa58284611cfd565b91508190509392505050565b6000602082019050611fc66000830184611b47565b92915050565b6000604082019050611fe16000830185611b47565b611fee6020830184611f04565b9392505050565b6000604082019050818103600083015261200f8185611be2565b905081810360208301526120238184611b6d565b90509392505050565b60006020820190506120416000830184611c40565b92915050565b600060208201905061205c6000830184611c4f565b92915050565b60006020820190506120776000830184611c5e565b92915050565b60006020820190506120926000830184611c6d565b92915050565b60006020820190506120ad6000830184611c7c565b92915050565b600060208201905081810360008301526120cd8184611cc4565b905092915050565b600060208201905081810360008301526120ee81611d2e565b9050919050565b6000602082019050818103600083015261210e81611d74565b9050919050565b6000602082019050818103600083015261212e81611d97565b9050919050565b6000602082019050818103600083015261214e81611dba565b9050919050565b6000602082019050818103600083015261216e81611ddd565b9050919050565b6000602082019050818103600083015261218e81611e46565b9050919050565b600060208201905081810360008301526121ae81611e69565b9050919050565b600060208201905081810360008301526121ce81611ed2565b9050919050565b60006020820190506121ea6000830184611f04565b92915050565b60006060820190506122056000830186611f04565b6122126020830185611f04565b61221f6040830184611c40565b949350505050565b6000612231612242565b905061223d82826125ea565b919050565b6000604051905090565b600067ffffffffffffffff821115612267576122666126a7565b5b602082029050602081019050919050565b600067ffffffffffffffff821115612293576122926126a7565b5b602082029050602081019050919050565b600067ffffffffffffffff8211156122bf576122be6126a7565b5b6122c8826126d6565b9050602081019050919050565b6000819050602082019050919050565b6000819050602082019050919050565b600081519050919050565b600081519050919050565b600081519050919050565b6000602082019050919050565b6000602082019050919050565b600082825260208201905092915050565b600082825260208201905092915050565b600082825260208201905092915050565b600082825260208201905092915050565b600081905092915050565b600061238a82612508565b915061239583612508565b9250827fffffffffffffffffffffffffffffffffffffffffffffffffffffffffffffffff038211156123ca576123c9612649565b5b828201905092915050565b60006123e082612508565b91506123eb83612508565b9250826123fb576123fa612678565b5b828204905092915050565b600061241182612508565b915061241c83612508565b9250817fffffffffffffffffffffffffffffffffffffffffffffffffffffffffffffffff048311821515161561245557612454612649565b5b828202905092915050565b600061246b82612508565b915061247683612508565b92508282101561248957612488612649565b5b828203905092915050565b600061249f826124e8565b9050919050565b60008115159050919050565b6000819050919050565b60007fffffffff0000000000000000000000000000000000000000000000000000000082169050919050565b600073ffffffffffffffffffffffffffffffffffffffff82169050919050565b6000819050919050565b600061251d82612524565b9050919050565b600061252f826124e8565b9050919050565b600061254182612548565b9050919050565b6000612553826124e8565b9050919050565b60006125658261256c565b9050919050565b6000612577826124e8565b9050919050565b82818337600083830152505050565b60005b838110156125ab578082015181840152602081019050612590565b838111156125ba576000848401525b50505050565b60006125cb82612508565b915060008214156125df576125de612649565b5b600182039050919050565b6125f3826126d6565b810181811067ffffffffffffffff82111715612612576126116126a7565b5b80604052505050565b60006126268261262d565b9050919050565b6000612638826126e7565b9050919050565b6000819050919050565b7f4e487b7100000000000000000000000000000000000000000000000000000000600052601160045260246000fd5b7f4e487b7100000000000000000000000000000000000000000000000000000000600052601260045260246000fd5b7f4e487b7100000000000000000000000000000000000000000000000000000000600052604160045260246000fd5b6000601f19601f8301169050919050565b60008160601b9050919050565b7f537472696e67733a20686578206c656e67746820696e73756666696369656e74600082015250565b7f4164647265737320000000000000000000000000000000000000000000000000600082015250565b7f43616e6e6f74206d696e7420746f20747265617375727920616464726573732060008201527f756e74696c2073616c652069732066696e697368656400000000000000000000602082015250565b7f74696d657374616d70206973206e6f742075702d746f2d646174650000000000600082015250565b7f53656e646572206973206e6f742053616c65204d616e61676572206f7220416460008201527f6d696e0000000000000000000000000000000000000000000000000000000000602082015250565b7f53656e646572206973206e6f7420555249204d616e61676572206f722041646d60008201527f696e000000000000000000000000000000000000000000000000000000000000602082015250565b7f2500000000000000000000000000000000000000000000000000000000000000600082015250565b7f20646f6573206e6f742068617665206120636f75706f6e20776974682061206460008201527f6973636f756e742072617465206f662000000000000000000000000000000000602082015250565b7f4e6f20746f6b656e73206c65667420746f206d696e7400000000000000000000600082015250565b7f737461727454696d65206973206c61746572207468616e20656e6454696d6500600082015250565b7f416363657373436f6e74726f6c3a206163636f756e7420000000000000000000600082015250565b7f206973206d697373696e6720726f6c6520000000000000000000000000000000600082015250565b7f416363657373436f6e74726f6c3a2063616e206f6e6c792072656e6f756e636560008201527f20726f6c657320666f722073656c660000000000000000000000000000000000602082015250565b6129d081612494565b81146129db57600080fd5b50565b6129e7816124a6565b81146129f257600080fd5b50565b6129fe816124b2565b8114612a0957600080fd5b50565b612a15816124bc565b8114612a2057600080fd5b50565b612a2c81612508565b8114612a3757600080fd5b5056fea2646970667358221220ce71f9dffec490775e3cd045004255e9b509d9471295d6b57281c4b5bda903ff64736f6c63430008010033",
					"opcodes": "PUSH1 0x80 PUSH1 0x40 MSTORE PUSH4 0x70DC4900 PUSH1 0x5 SSTORE PUSH4 0x70DC4964 PUSH1 0x6 SSTORE PUSH3 0xF4240 PUSH1 0xA PUSH3 0x26 SWAP2 SWAP1 PUSH3 0xAA JUMP JUMPDEST PUSH1 0x7 SSTORE PUSH3 0xF4240 PUSH1 0x1 PUSH3 0x3B SWAP2 SWAP1 PUSH3 0xAA JUMP JUMPDEST PUSH1 0x8 SSTORE PUSH1 0x40 MLOAD DUP1 PUSH1 0x60 ADD PUSH1 0x40 MSTORE DUP1 PUSH2 0x2710 DUP2 MSTORE PUSH1 0x20 ADD TIMESTAMP DUP2 MSTORE PUSH1 0x20 ADD PUSH1 0x0 ISZERO ISZERO DUP2 MSTORE POP PUSH1 0x9 PUSH1 0x0 DUP3 ADD MLOAD DUP2 PUSH1 0x0 ADD SSTORE PUSH1 0x20 DUP3 ADD MLOAD DUP2 PUSH1 0x1 ADD SSTORE PUSH1 0x40 DUP3 ADD MLOAD DUP2 PUSH1 0x2 ADD PUSH1 0x0 PUSH2 0x100 EXP DUP2 SLOAD DUP2 PUSH1 0xFF MUL NOT AND SWAP1 DUP4 ISZERO ISZERO MUL OR SWAP1 SSTORE POP POP POP CALLVALUE DUP1 ISZERO PUSH3 0xA3 JUMPI PUSH1 0x0 DUP1 REVERT JUMPDEST POP PUSH3 0x144 JUMP JUMPDEST PUSH1 0x0 PUSH3 0xB7 DUP3 PUSH3 0x10B JUMP JUMPDEST SWAP2 POP PUSH3 0xC4 DUP4 PUSH3 0x10B JUMP JUMPDEST SWAP3 POP DUP2 PUSH32 0xFFFFFFFFFFFFFFFFFFFFFFFFFFFFFFFFFFFFFFFFFFFFFFFFFFFFFFFFFFFFFFFF DIV DUP4 GT DUP3 ISZERO ISZERO AND ISZERO PUSH3 0x100 JUMPI PUSH3 0xFF PUSH3 0x115 JUMP JUMPDEST JUMPDEST DUP3 DUP3 MUL SWAP1 POP SWAP3 SWAP2 POP POP JUMP JUMPDEST PUSH1 0x0 DUP2 SWAP1 POP SWAP2 SWAP1 POP JUMP JUMPDEST PUSH32 0x4E487B7100000000000000000000000000000000000000000000000000000000 PUSH1 0x0 MSTORE PUSH1 0x11 PUSH1 0x4 MSTORE PUSH1 0x24 PUSH1 0x0 REVERT JUMPDEST PUSH2 0x2A70 DUP1 PUSH3 0x154 PUSH1 0x0 CODECOPY PUSH1 0x0 RETURN INVALID PUSH1 0x80 PUSH1 0x40 MSTORE CALLVALUE DUP1 ISZERO PUSH2 0x10 JUMPI PUSH1 0x0 DUP1 REVERT JUMPDEST POP PUSH1 0x4 CALLDATASIZE LT PUSH2 0x18E JUMPI PUSH1 0x0 CALLDATALOAD PUSH1 0xE0 SHR DUP1 PUSH4 0x8C83FAEB GT PUSH2 0xDE JUMPI DUP1 PUSH4 0xC0463711 GT PUSH2 0x97 JUMPI DUP1 PUSH4 0xCCB98FFC GT PUSH2 0x71 JUMPI DUP1 PUSH4 0xCCB98FFC EQ PUSH2 0x451 JUMPI DUP1 PUSH4 0xD547741F EQ PUSH2 0x46D JUMPI DUP1 PUSH4 0xF121DA92 EQ PUSH2 0x489 JUMPI DUP1 PUSH4 0xF715DFCA EQ PUSH2 0x4A5 JUMPI PUSH2 0x18E JUMP JUMPDEST DUP1 PUSH4 0xC0463711 EQ PUSH2 0x3F5 JUMPI DUP1 PUSH4 0xC5DAE48F EQ PUSH2 0x415 JUMPI DUP1 PUSH4 0xC5F956AF EQ PUSH2 0x433 JUMPI PUSH2 0x18E JUMP JUMPDEST DUP1 PUSH4 0x8C83FAEB EQ PUSH2 0x333 JUMPI DUP1 PUSH4 0x91D14854 EQ PUSH2 0x351 JUMPI DUP1 PUSH4 0x944044A1 EQ PUSH2 0x381 JUMPI DUP1 PUSH4 0xA217FDDF EQ PUSH2 0x39D JUMPI DUP1 PUSH4 0xAB6C0306 EQ PUSH2 0x3BB JUMPI DUP1 PUSH4 0xBFF29CEE EQ PUSH2 0x3EB JUMPI PUSH2 0x18E JUMP JUMPDEST DUP1 PUSH4 0x4C0F38C2 GT PUSH2 0x14B JUMPI DUP1 PUSH4 0x551B42A8 GT PUSH2 0x125 JUMPI DUP1 PUSH4 0x551B42A8 EQ PUSH2 0x2BB JUMPI DUP1 PUSH4 0x5CE7E721 EQ PUSH2 0x2D9 JUMPI DUP1 PUSH4 0x682D07D9 EQ PUSH2 0x2F7 JUMPI DUP1 PUSH4 0x68FC01A2 EQ PUSH2 0x315 JUMPI PUSH2 0x18E JUMP JUMPDEST DUP1 PUSH4 0x4C0F38C2 EQ PUSH2 0x265 JUMPI DUP1 PUSH4 0x4C9B73DA EQ PUSH2 0x283 JUMPI DUP1 PUSH4 0x51F7598C EQ PUSH2 0x29F JUMPI PUSH2 0x18E JUMP JUMPDEST DUP1 PUSH4 0x1FFC9A7 EQ PUSH2 0x193 JUMPI DUP1 PUSH4 0x248A9CA3 EQ PUSH2 0x1C3 JUMPI DUP1 PUSH4 0x26116D47 EQ PUSH2 0x1F3 JUMPI DUP1 PUSH4 0x2F2FF15D EQ PUSH2 0x1FD JUMPI DUP1 PUSH4 0x36568ABE EQ PUSH2 0x219 JUMPI DUP1 PUSH4 0x432C7C5D EQ PUSH2 0x235 JUMPI JUMPDEST PUSH1 0x0 DUP1 REVERT JUMPDEST PUSH2 0x1AD PUSH1 0x4 DUP1 CALLDATASIZE SUB DUP2 ADD SWAP1 PUSH2 0x1A8 SWAP2 SWAP1 PUSH2 0x1AA0 JUMP JUMPDEST PUSH2 0x4AF JUMP JUMPDEST PUSH1 0x40 MLOAD PUSH2 0x1BA SWAP2 SWAP1 PUSH2 0x202C JUMP JUMPDEST PUSH1 0x40 MLOAD DUP1 SWAP2 SUB SWAP1 RETURN JUMPDEST PUSH2 0x1DD PUSH1 0x4 DUP1 CALLDATASIZE SUB DUP2 ADD SWAP1 PUSH2 0x1D8 SWAP2 SWAP1 PUSH2 0x1A3B JUMP JUMPDEST PUSH2 0x529 JUMP JUMPDEST PUSH1 0x40 MLOAD PUSH2 0x1EA SWAP2 SWAP1 PUSH2 0x2047 JUMP JUMPDEST PUSH1 0x40 MLOAD DUP1 SWAP2 SUB SWAP1 RETURN JUMPDEST PUSH2 0x1FB PUSH2 0x548 JUMP JUMPDEST STOP JUMPDEST PUSH2 0x217 PUSH1 0x4 DUP1 CALLDATASIZE SUB DUP2 ADD SWAP1 PUSH2 0x212 SWAP2 SWAP1 PUSH2 0x1A64 JUMP JUMPDEST PUSH2 0x64B JUMP JUMPDEST STOP JUMPDEST PUSH2 0x233 PUSH1 0x4 DUP1 CALLDATASIZE SUB DUP2 ADD SWAP1 PUSH2 0x22E SWAP2 SWAP1 PUSH2 0x1A64 JUMP JUMPDEST PUSH2 0x674 JUMP JUMPDEST STOP JUMPDEST PUSH2 0x24F PUSH1 0x4 DUP1 CALLDATASIZE SUB DUP2 ADD SWAP1 PUSH2 0x24A SWAP2 SWAP1 PUSH2 0x196A JUMP JUMPDEST PUSH2 0x6F7 JUMP JUMPDEST PUSH1 0x40 MLOAD PUSH2 0x25C SWAP2 SWAP1 PUSH2 0x21D5 JUMP JUMPDEST PUSH1 0x40 MLOAD DUP1 SWAP2 SUB SWAP1 RETURN JUMPDEST PUSH2 0x26D PUSH2 0x713 JUMP JUMPDEST PUSH1 0x40 MLOAD PUSH2 0x27A SWAP2 SWAP1 PUSH2 0x21D5 JUMP JUMPDEST PUSH1 0x40 MLOAD DUP1 SWAP2 SUB SWAP1 RETURN JUMPDEST PUSH2 0x29D PUSH1 0x4 DUP1 CALLDATASIZE SUB DUP2 ADD SWAP1 PUSH2 0x298 SWAP2 SWAP1 PUSH2 0x1AC9 JUMP JUMPDEST PUSH2 0x7BA JUMP JUMPDEST STOP JUMPDEST PUSH2 0x2B9 PUSH1 0x4 DUP1 CALLDATASIZE SUB DUP2 ADD SWAP1 PUSH2 0x2B4 SWAP2 SWAP1 PUSH2 0x1941 JUMP JUMPDEST PUSH2 0x7DD JUMP JUMPDEST STOP JUMPDEST PUSH2 0x2C3 PUSH2 0x837 JUMP JUMPDEST PUSH1 0x40 MLOAD PUSH2 0x2D0 SWAP2 SWAP1 PUSH2 0x2047 JUMP JUMPDEST PUSH1 0x40 MLOAD DUP1 SWAP2 SUB SWAP1 RETURN JUMPDEST PUSH2 0x2E1 PUSH2 0x85B JUMP JUMPDEST PUSH1 0x40 MLOAD PUSH2 0x2EE SWAP2 SWAP1 PUSH2 0x207D JUMP JUMPDEST PUSH1 0x40 MLOAD DUP1 SWAP2 SUB SWAP1 RETURN JUMPDEST PUSH2 0x2FF PUSH2 0x881 JUMP JUMPDEST PUSH1 0x40 MLOAD PUSH2 0x30C SWAP2 SWAP1 PUSH2 0x2047 JUMP JUMPDEST PUSH1 0x40 MLOAD DUP1 SWAP2 SUB SWAP1 RETURN JUMPDEST PUSH2 0x31D PUSH2 0x8A5 JUMP JUMPDEST PUSH1 0x40 MLOAD PUSH2 0x32A SWAP2 SWAP1 PUSH2 0x21D5 JUMP JUMPDEST PUSH1 0x40 MLOAD DUP1 SWAP2 SUB SWAP1 RETURN JUMPDEST PUSH2 0x33B PUSH2 0x94C JUMP JUMPDEST PUSH1 0x40 MLOAD PUSH2 0x348 SWAP2 SWAP1 PUSH2 0x2062 JUMP JUMPDEST PUSH1 0x40 MLOAD DUP1 SWAP2 SUB SWAP1 RETURN JUMPDEST PUSH2 0x36B PUSH1 0x4 DUP1 CALLDATASIZE SUB DUP2 ADD SWAP1 PUSH2 0x366 SWAP2 SWAP1 PUSH2 0x1A64 JUMP JUMPDEST PUSH2 0x972 JUMP JUMPDEST PUSH1 0x40 MLOAD PUSH2 0x378 SWAP2 SWAP1 PUSH2 0x202C JUMP JUMPDEST PUSH1 0x40 MLOAD DUP1 SWAP2 SUB SWAP1 RETURN JUMPDEST PUSH2 0x39B PUSH1 0x4 DUP1 CALLDATASIZE SUB DUP2 ADD SWAP1 PUSH2 0x396 SWAP2 SWAP1 PUSH2 0x1AC9 JUMP JUMPDEST PUSH2 0x9DC JUMP JUMPDEST STOP JUMPDEST PUSH2 0x3A5 PUSH2 0xA71 JUMP JUMPDEST PUSH1 0x40 MLOAD PUSH2 0x3B2 SWAP2 SWAP1 PUSH2 0x2047 JUMP JUMPDEST PUSH1 0x40 MLOAD DUP1 SWAP2 SUB SWAP1 RETURN JUMPDEST PUSH2 0x3D5 PUSH1 0x4 DUP1 CALLDATASIZE SUB DUP2 ADD SWAP1 PUSH2 0x3D0 SWAP2 SWAP1 PUSH2 0x196A JUMP JUMPDEST PUSH2 0xA78 JUMP JUMPDEST PUSH1 0x40 MLOAD PUSH2 0x3E2 SWAP2 SWAP1 PUSH2 0x21D5 JUMP JUMPDEST PUSH1 0x40 MLOAD DUP1 SWAP2 SUB SWAP1 RETURN JUMPDEST PUSH2 0x3F3 PUSH2 0xC09 JUMP JUMPDEST STOP JUMPDEST PUSH2 0x3FD PUSH2 0xC27 JUMP JUMPDEST PUSH1 0x40 MLOAD PUSH2 0x40C SWAP4 SWAP3 SWAP2 SWAP1 PUSH2 0x21F0 JUMP JUMPDEST PUSH1 0x40 MLOAD DUP1 SWAP2 SUB SWAP1 RETURN JUMPDEST PUSH2 0x41D PUSH2 0xC4C JUMP JUMPDEST PUSH1 0x40 MLOAD PUSH2 0x42A SWAP2 SWAP1 PUSH2 0x2098 JUMP JUMPDEST PUSH1 0x40 MLOAD DUP1 SWAP2 SUB SWAP1 RETURN JUMPDEST PUSH2 0x43B PUSH2 0xC72 JUMP JUMPDEST PUSH1 0x40 MLOAD PUSH2 0x448 SWAP2 SWAP1 PUSH2 0x1FB1 JUMP JUMPDEST PUSH1 0x40 MLOAD DUP1 SWAP2 SUB SWAP1 RETURN JUMPDEST PUSH2 0x46B PUSH1 0x4 DUP1 CALLDATASIZE SUB DUP2 ADD SWAP1 PUSH2 0x466 SWAP2 SWAP1 PUSH2 0x1AC9 JUMP JUMPDEST PUSH2 0xC98 JUMP JUMPDEST STOP JUMPDEST PUSH2 0x487 PUSH1 0x4 DUP1 CALLDATASIZE SUB DUP2 ADD SWAP1 PUSH2 0x482 SWAP2 SWAP1 PUSH2 0x1A64 JUMP JUMPDEST PUSH2 0xD2D JUMP JUMPDEST STOP JUMPDEST PUSH2 0x4A3 PUSH1 0x4 DUP1 CALLDATASIZE SUB DUP2 ADD SWAP1 PUSH2 0x49E SWAP2 SWAP1 PUSH2 0x19A6 JUMP JUMPDEST PUSH2 0xD56 JUMP JUMPDEST STOP JUMPDEST PUSH2 0x4AD PUSH2 0xE74 JUMP JUMPDEST STOP JUMPDEST PUSH1 0x0 PUSH32 0x7965DB0B00000000000000000000000000000000000000000000000000000000 PUSH28 0xFFFFFFFFFFFFFFFFFFFFFFFFFFFFFFFFFFFFFFFFFFFFFFFFFFFFFFFF NOT AND DUP3 PUSH28 0xFFFFFFFFFFFFFFFFFFFFFFFFFFFFFFFFFFFFFFFFFFFFFFFFFFFFFFFF NOT AND EQ DUP1 PUSH2 0x522 JUMPI POP PUSH2 0x521 DUP3 PUSH2 0xF51 JUMP JUMPDEST JUMPDEST SWAP1 POP SWAP2 SWAP1 POP JUMP JUMPDEST PUSH1 0x0 DUP1 PUSH1 0x0 DUP4 DUP2 MSTORE PUSH1 0x20 ADD SWAP1 DUP2 MSTORE PUSH1 0x20 ADD PUSH1 0x0 KECCAK256 PUSH1 0x1 ADD SLOAD SWAP1 POP SWAP2 SWAP1 POP JUMP JUMPDEST PUSH2 0x550 PUSH2 0xFBB JUMP JUMPDEST PUSH1 0x6 SLOAD TIMESTAMP GT DUP1 ISZERO PUSH2 0x571 JUMPI POP PUSH1 0x9 PUSH1 0x2 ADD PUSH1 0x0 SWAP1 SLOAD SWAP1 PUSH2 0x100 EXP SWAP1 DIV PUSH1 0xFF AND ISZERO JUMPDEST PUSH2 0x5B0 JUMPI PUSH1 0x40 MLOAD PUSH32 0x8C379A000000000000000000000000000000000000000000000000000000000 DUP2 MSTORE PUSH1 0x4 ADD PUSH2 0x5A7 SWAP1 PUSH2 0x20F5 JUMP JUMPDEST PUSH1 0x40 MLOAD DUP1 SWAP2 SUB SWAP1 REVERT JUMPDEST PUSH1 0x0 PUSH1 0x1 PUSH2 0x5BC PUSH2 0x8A5 JUMP JUMPDEST PUSH2 0x5C6 SWAP2 SWAP1 PUSH2 0x2460 JUMP JUMPDEST PUSH2 0x5CE PUSH2 0x713 JUMP JUMPDEST PUSH2 0x5D8 SWAP2 SWAP1 PUSH2 0x2460 JUMP JUMPDEST SWAP1 POP PUSH1 0x0 DUP2 GT PUSH2 0x61D JUMPI PUSH1 0x40 MLOAD PUSH32 0x8C379A000000000000000000000000000000000000000000000000000000000 DUP2 MSTORE PUSH1 0x4 ADD PUSH2 0x614 SWAP1 PUSH2 0x2175 JUMP JUMPDEST PUSH1 0x40 MLOAD DUP1 SWAP2 SUB SWAP1 REVERT JUMPDEST PUSH2 0x648 PUSH1 0x4 PUSH1 0x0 SWAP1 SLOAD SWAP1 PUSH2 0x100 EXP SWAP1 DIV PUSH20 0xFFFFFFFFFFFFFFFFFFFFFFFFFFFFFFFFFFFFFFFF AND PUSH2 0x10B3 JUMP JUMPDEST POP JUMP JUMPDEST PUSH2 0x654 DUP3 PUSH2 0x529 JUMP JUMPDEST PUSH2 0x665 DUP2 PUSH2 0x660 PUSH2 0x1143 JUMP JUMPDEST PUSH2 0x114B JUMP JUMPDEST PUSH2 0x66F DUP4 DUP4 PUSH2 0x11E8 JUMP JUMPDEST POP POP POP JUMP JUMPDEST PUSH2 0x67C PUSH2 0x1143 JUMP JUMPDEST PUSH20 0xFFFFFFFFFFFFFFFFFFFFFFFFFFFFFFFFFFFFFFFF AND DUP2 PUSH20 0xFFFFFFFFFFFFFFFFFFFFFFFFFFFFFFFFFFFFFFFF AND EQ PUSH2 0x6E9 JUMPI PUSH1 0x40 MLOAD PUSH32 0x8C379A000000000000000000000000000000000000000000000000000000000 DUP2 MSTORE PUSH1 0x4 ADD PUSH2 0x6E0 SWAP1 PUSH2 0x21B5 JUMP JUMPDEST PUSH1 0x40 MLOAD DUP1 SWAP2 SUB SWAP1 REVERT JUMPDEST PUSH2 0x6F3 DUP3 DUP3 PUSH2 0x12C8 JUMP JUMPDEST POP POP JUMP JUMPDEST PUSH1 0x0 PUSH2 0x701 PUSH2 0xFBB JUMP JUMPDEST PUSH2 0x70B DUP4 DUP4 PUSH2 0xA78 JUMP JUMPDEST SWAP1 POP SWAP3 SWAP2 POP POP JUMP JUMPDEST PUSH1 0x0 PUSH1 0x1 PUSH1 0x0 SWAP1 SLOAD SWAP1 PUSH2 0x100 EXP SWAP1 DIV PUSH20 0xFFFFFFFFFFFFFFFFFFFFFFFFFFFFFFFFFFFFFFFF AND PUSH20 0xFFFFFFFFFFFFFFFFFFFFFFFFFFFFFFFFFFFFFFFF AND PUSH4 0x4C0F38C2 PUSH1 0x40 MLOAD DUP2 PUSH4 0xFFFFFFFF AND PUSH1 0xE0 SHL DUP2 MSTORE PUSH1 0x4 ADD PUSH1 0x20 PUSH1 0x40 MLOAD DUP1 DUP4 SUB DUP2 DUP7 DUP1 EXTCODESIZE ISZERO DUP1 ISZERO PUSH2 0x77D JUMPI PUSH1 0x0 DUP1 REVERT JUMPDEST POP GAS STATICCALL ISZERO DUP1 ISZERO PUSH2 0x791 JUMPI RETURNDATASIZE PUSH1 0x0 DUP1 RETURNDATACOPY RETURNDATASIZE PUSH1 0x0 REVERT JUMPDEST POP POP POP POP PUSH1 0x40 MLOAD RETURNDATASIZE PUSH1 0x1F NOT PUSH1 0x1F DUP3 ADD AND DUP3 ADD DUP1 PUSH1 0x40 MSTORE POP DUP2 ADD SWAP1 PUSH2 0x7B5 SWAP2 SWAP1 PUSH2 0x1AF2 JUMP JUMPDEST SWAP1 POP SWAP1 JUMP JUMPDEST PUSH2 0x7C2 PUSH2 0xFBB JUMP JUMPDEST PUSH1 0x0 PUSH2 0x7CE CALLER DUP4 PUSH2 0xA78 JUMP JUMPDEST SWAP1 POP PUSH2 0x7D9 DUP2 PUSH2 0x13A9 JUMP JUMPDEST POP POP JUMP JUMPDEST PUSH1 0x0 DUP1 SHL PUSH2 0x7F2 DUP2 PUSH2 0x7ED PUSH2 0x1143 JUMP JUMPDEST PUSH2 0x114B JUMP JUMPDEST DUP2 PUSH1 0x1 PUSH1 0x0 PUSH2 0x100 EXP DUP2 SLOAD DUP2 PUSH20 0xFFFFFFFFFFFFFFFFFFFFFFFFFFFFFFFFFFFFFFFF MUL NOT AND SWAP1 DUP4 PUSH20 0xFFFFFFFFFFFFFFFFFFFFFFFFFFFFFFFFFFFFFFFF AND MUL OR SWAP1 SSTORE POP POP POP JUMP JUMPDEST PUSH32 0x988301AF8238F779281A300DE031815CD01B48E9F1AE47A0F91ED6584213624A DUP2 JUMP JUMPDEST PUSH1 0x2 PUSH1 0x0 SWAP1 SLOAD SWAP1 PUSH2 0x100 EXP SWAP1 DIV PUSH20 0xFFFFFFFFFFFFFFFFFFFFFFFFFFFFFFFFFFFFFFFF AND DUP2 JUMP JUMPDEST PUSH32 0xA70A2D8710FED9F014C8C2AF50C7C2F6B25748AE4CDED822E03B7BEED44CF3A8 DUP2 JUMP JUMPDEST PUSH1 0x0 PUSH1 0x1 PUSH1 0x0 SWAP1 SLOAD SWAP1 PUSH2 0x100 EXP SWAP1 DIV PUSH20 0xFFFFFFFFFFFFFFFFFFFFFFFFFFFFFFFFFFFFFFFF AND PUSH20 0xFFFFFFFFFFFFFFFFFFFFFFFFFFFFFFFFFFFFFFFF AND PUSH4 0x68FC01A2 PUSH1 0x40 MLOAD DUP2 PUSH4 0xFFFFFFFF AND PUSH1 0xE0 SHL DUP2 MSTORE PUSH1 0x4 ADD PUSH1 0x20 PUSH1 0x40 MLOAD DUP1 DUP4 SUB DUP2 DUP7 DUP1 EXTCODESIZE ISZERO DUP1 ISZERO PUSH2 0x90F JUMPI PUSH1 0x0 DUP1 REVERT JUMPDEST POP GAS STATICCALL ISZERO DUP1 ISZERO PUSH2 0x923 JUMPI RETURNDATASIZE PUSH1 0x0 DUP1 RETURNDATACOPY RETURNDATASIZE PUSH1 0x0 REVERT JUMPDEST POP POP POP POP PUSH1 0x40 MLOAD RETURNDATASIZE PUSH1 0x1F NOT PUSH1 0x1F DUP3 ADD AND DUP3 ADD DUP1 PUSH1 0x40 MSTORE POP DUP2 ADD SWAP1 PUSH2 0x947 SWAP2 SWAP1 PUSH2 0x1AF2 JUMP JUMPDEST SWAP1 POP SWAP1 JUMP JUMPDEST PUSH1 0x1 PUSH1 0x0 SWAP1 SLOAD SWAP1 PUSH2 0x100 EXP SWAP1 DIV PUSH20 0xFFFFFFFFFFFFFFFFFFFFFFFFFFFFFFFFFFFFFFFF AND DUP2 JUMP JUMPDEST PUSH1 0x0 DUP1 PUSH1 0x0 DUP5 DUP2 MSTORE PUSH1 0x20 ADD SWAP1 DUP2 MSTORE PUSH1 0x20 ADD PUSH1 0x0 KECCAK256 PUSH1 0x0 ADD PUSH1 0x0 DUP4 PUSH20 0xFFFFFFFFFFFFFFFFFFFFFFFFFFFFFFFFFFFFFFFF AND PUSH20 0xFFFFFFFFFFFFFFFFFFFFFFFFFFFFFFFFFFFFFFFF AND DUP2 MSTORE PUSH1 0x20 ADD SWAP1 DUP2 MSTORE PUSH1 0x20 ADD PUSH1 0x0 KECCAK256 PUSH1 0x0 SWAP1 SLOAD SWAP1 PUSH2 0x100 EXP SWAP1 DIV PUSH1 0xFF AND SWAP1 POP SWAP3 SWAP2 POP POP JUMP JUMPDEST PUSH2 0xA0D PUSH32 0x988301AF8238F779281A300DE031815CD01B48E9F1AE47A0F91ED6584213624A PUSH2 0xA08 PUSH2 0x1143 JUMP JUMPDEST PUSH2 0x972 JUMP JUMPDEST DUP1 PUSH2 0xA28 JUMPI POP PUSH2 0xA27 PUSH1 0x0 DUP1 SHL PUSH2 0xA22 PUSH2 0x1143 JUMP JUMPDEST PUSH2 0x972 JUMP JUMPDEST JUMPDEST PUSH2 0xA67 JUMPI PUSH1 0x40 MLOAD PUSH32 0x8C379A000000000000000000000000000000000000000000000000000000000 DUP2 MSTORE PUSH1 0x4 ADD PUSH2 0xA5E SWAP1 PUSH2 0x2135 JUMP JUMPDEST PUSH1 0x40 MLOAD DUP1 SWAP2 SUB SWAP1 REVERT JUMPDEST DUP1 PUSH1 0x5 DUP2 SWAP1 SSTORE POP POP JUMP JUMPDEST PUSH1 0x0 DUP1 SHL DUP2 JUMP JUMPDEST PUSH1 0x0 TIMESTAMP PUSH1 0x9 PUSH1 0x1 ADD SLOAD EQ PUSH2 0xAC1 JUMPI PUSH1 0x40 MLOAD PUSH32 0x8C379A000000000000000000000000000000000000000000000000000000000 DUP2 MSTORE PUSH1 0x4 ADD PUSH2 0xAB8 SWAP1 PUSH2 0x2115 JUMP JUMPDEST PUSH1 0x40 MLOAD DUP1 SWAP2 SUB SWAP1 REVERT JUMPDEST PUSH1 0x2 PUSH1 0x0 SWAP1 SLOAD SWAP1 PUSH2 0x100 EXP SWAP1 DIV PUSH20 0xFFFFFFFFFFFFFFFFFFFFFFFFFFFFFFFFFFFFFFFF AND PUSH20 0xFFFFFFFFFFFFFFFFFFFFFFFFFFFFFFFFFFFFFFFF AND PUSH4 0x2080179D DUP5 DUP5 PUSH1 0x40 MLOAD DUP4 PUSH4 0xFFFFFFFF AND PUSH1 0xE0 SHL DUP2 MSTORE PUSH1 0x4 ADD PUSH2 0xB1E SWAP3 SWAP2 SWAP1 PUSH2 0x1FCC JUMP JUMPDEST PUSH1 0x20 PUSH1 0x40 MLOAD DUP1 DUP4 SUB DUP2 DUP7 DUP1 EXTCODESIZE ISZERO DUP1 ISZERO PUSH2 0xB36 JUMPI PUSH1 0x0 DUP1 REVERT JUMPDEST POP GAS STATICCALL ISZERO DUP1 ISZERO PUSH2 0xB4A JUMPI RETURNDATASIZE PUSH1 0x0 DUP1 RETURNDATACOPY RETURNDATASIZE PUSH1 0x0 REVERT JUMPDEST POP POP POP POP PUSH1 0x40 MLOAD RETURNDATASIZE PUSH1 0x1F NOT PUSH1 0x1F DUP3 ADD AND DUP3 ADD DUP1 PUSH1 0x40 MSTORE POP DUP2 ADD SWAP1 PUSH2 0xB6E SWAP2 SWAP1 PUSH2 0x1A12 JUMP JUMPDEST DUP4 DUP4 PUSH1 0x40 MLOAD PUSH1 0x20 ADD PUSH2 0xB81 SWAP3 SWAP2 SWAP1 PUSH2 0x1F2A JUMP JUMPDEST PUSH1 0x40 MLOAD PUSH1 0x20 DUP2 DUP4 SUB SUB DUP2 MSTORE SWAP1 PUSH1 0x40 MSTORE SWAP1 PUSH2 0xBD1 JUMPI PUSH1 0x40 MLOAD PUSH32 0x8C379A000000000000000000000000000000000000000000000000000000000 DUP2 MSTORE PUSH1 0x4 ADD PUSH2 0xBC8 SWAP2 SWAP1 PUSH2 0x20B3 JUMP JUMPDEST PUSH1 0x40 MLOAD DUP1 SWAP2 SUB SWAP1 REVERT JUMPDEST POP PUSH1 0x0 DUP3 PUSH1 0x64 PUSH2 0xBE1 SWAP2 SWAP1 PUSH2 0x2460 JUMP JUMPDEST PUSH1 0x64 PUSH1 0x9 PUSH1 0x0 ADD SLOAD PUSH2 0xBF3 SWAP2 SWAP1 PUSH2 0x23D5 JUMP JUMPDEST PUSH2 0xBFD SWAP2 SWAP1 PUSH2 0x2406 JUMP JUMPDEST SWAP1 POP DUP1 SWAP2 POP POP SWAP3 SWAP2 POP POP JUMP JUMPDEST PUSH2 0xC11 PUSH2 0xFBB JUMP JUMPDEST PUSH1 0x0 PUSH1 0x9 PUSH1 0x0 ADD SLOAD SWAP1 POP PUSH2 0xC24 DUP2 PUSH2 0x13A9 JUMP JUMPDEST POP JUMP JUMPDEST PUSH1 0x9 DUP1 PUSH1 0x0 ADD SLOAD SWAP1 DUP1 PUSH1 0x1 ADD SLOAD SWAP1 DUP1 PUSH1 0x2 ADD PUSH1 0x0 SWAP1 SLOAD SWAP1 PUSH2 0x100 EXP SWAP1 DIV PUSH1 0xFF AND SWAP1 POP DUP4 JUMP JUMPDEST PUSH1 0x3 PUSH1 0x0 SWAP1 SLOAD SWAP1 PUSH2 0x100 EXP SWAP1 DIV PUSH20 0xFFFFFFFFFFFFFFFFFFFFFFFFFFFFFFFFFFFFFFFF AND DUP2 JUMP JUMPDEST PUSH1 0x4 PUSH1 0x0 SWAP1 SLOAD SWAP1 PUSH2 0x100 EXP SWAP1 DIV PUSH20 0xFFFFFFFFFFFFFFFFFFFFFFFFFFFFFFFFFFFFFFFF AND DUP2 JUMP JUMPDEST PUSH2 0xCC9 PUSH32 0x988301AF8238F779281A300DE031815CD01B48E9F1AE47A0F91ED6584213624A PUSH2 0xCC4 PUSH2 0x1143 JUMP JUMPDEST PUSH2 0x972 JUMP JUMPDEST DUP1 PUSH2 0xCE4 JUMPI POP PUSH2 0xCE3 PUSH1 0x0 DUP1 SHL PUSH2 0xCDE PUSH2 0x1143 JUMP JUMPDEST PUSH2 0x972 JUMP JUMPDEST JUMPDEST PUSH2 0xD23 JUMPI PUSH1 0x40 MLOAD PUSH32 0x8C379A000000000000000000000000000000000000000000000000000000000 DUP2 MSTORE PUSH1 0x4 ADD PUSH2 0xD1A SWAP1 PUSH2 0x2135 JUMP JUMPDEST PUSH1 0x40 MLOAD DUP1 SWAP2 SUB SWAP1 REVERT JUMPDEST DUP1 PUSH1 0x6 DUP2 SWAP1 SSTORE POP POP JUMP JUMPDEST PUSH2 0xD36 DUP3 PUSH2 0x529 JUMP JUMPDEST PUSH2 0xD47 DUP2 PUSH2 0xD42 PUSH2 0x1143 JUMP JUMPDEST PUSH2 0x114B JUMP JUMPDEST PUSH2 0xD51 DUP4 DUP4 PUSH2 0x12C8 JUMP JUMPDEST POP POP POP JUMP JUMPDEST PUSH2 0xD87 PUSH32 0xA70A2D8710FED9F014C8C2AF50C7C2F6B25748AE4CDED822E03B7BEED44CF3A8 PUSH2 0xD82 PUSH2 0x1143 JUMP JUMPDEST PUSH2 0x972 JUMP JUMPDEST DUP1 PUSH2 0xDA2 JUMPI POP PUSH2 0xDA1 PUSH1 0x0 DUP1 SHL PUSH2 0xD9C PUSH2 0x1143 JUMP JUMPDEST PUSH2 0x972 JUMP JUMPDEST JUMPDEST PUSH2 0xDE1 JUMPI PUSH1 0x40 MLOAD PUSH32 0x8C379A000000000000000000000000000000000000000000000000000000000 DUP2 MSTORE PUSH1 0x4 ADD PUSH2 0xDD8 SWAP1 PUSH2 0x2155 JUMP JUMPDEST PUSH1 0x40 MLOAD DUP1 SWAP2 SUB SWAP1 REVERT JUMPDEST PUSH1 0x1 PUSH1 0x0 SWAP1 SLOAD SWAP1 PUSH2 0x100 EXP SWAP1 DIV PUSH20 0xFFFFFFFFFFFFFFFFFFFFFFFFFFFFFFFFFFFFFFFF AND PUSH20 0xFFFFFFFFFFFFFFFFFFFFFFFFFFFFFFFFFFFFFFFF AND PUSH4 0xF121DA92 DUP4 DUP4 PUSH1 0x40 MLOAD DUP4 PUSH4 0xFFFFFFFF AND PUSH1 0xE0 SHL DUP2 MSTORE PUSH1 0x4 ADD PUSH2 0xE3E SWAP3 SWAP2 SWAP1 PUSH2 0x1FF5 JUMP JUMPDEST PUSH1 0x0 PUSH1 0x40 MLOAD DUP1 DUP4 SUB DUP2 PUSH1 0x0 DUP8 DUP1 EXTCODESIZE ISZERO DUP1 ISZERO PUSH2 0xE58 JUMPI PUSH1 0x0 DUP1 REVERT JUMPDEST POP GAS CALL ISZERO DUP1 ISZERO PUSH2 0xE6C JUMPI RETURNDATASIZE PUSH1 0x0 DUP1 RETURNDATACOPY RETURNDATASIZE PUSH1 0x0 REVERT JUMPDEST POP POP POP POP POP POP JUMP JUMPDEST PUSH2 0xE7C PUSH2 0xFBB JUMP JUMPDEST PUSH1 0x6 SLOAD TIMESTAMP GT DUP1 ISZERO PUSH2 0xE9D JUMPI POP PUSH1 0x9 PUSH1 0x2 ADD PUSH1 0x0 SWAP1 SLOAD SWAP1 PUSH2 0x100 EXP SWAP1 DIV PUSH1 0xFF AND ISZERO JUMPDEST PUSH2 0xEDC JUMPI PUSH1 0x40 MLOAD PUSH32 0x8C379A000000000000000000000000000000000000000000000000000000000 DUP2 MSTORE PUSH1 0x4 ADD PUSH2 0xED3 SWAP1 PUSH2 0x20F5 JUMP JUMPDEST PUSH1 0x40 MLOAD DUP1 SWAP2 SUB SWAP1 REVERT JUMPDEST PUSH1 0x0 PUSH1 0x1 PUSH2 0xEE8 PUSH2 0x8A5 JUMP JUMPDEST PUSH2 0xEF2 SWAP2 SWAP1 PUSH2 0x2460 JUMP JUMPDEST PUSH2 0xEFA PUSH2 0x713 JUMP JUMPDEST PUSH2 0xF04 SWAP2 SWAP1 PUSH2 0x2460 JUMP JUMPDEST SWAP1 POP JUMPDEST PUSH1 0x0 DUP2 GT ISZERO PUSH2 0xF4E JUMPI PUSH2 0xF3B PUSH1 0x4 PUSH1 0x0 SWAP1 SLOAD SWAP1 PUSH2 0x100 EXP SWAP1 DIV PUSH20 0xFFFFFFFFFFFFFFFFFFFFFFFFFFFFFFFFFFFFFFFF AND PUSH2 0x10B3 JUMP JUMPDEST DUP1 DUP1 PUSH2 0xF46 SWAP1 PUSH2 0x25C0 JUMP JUMPDEST SWAP2 POP POP PUSH2 0xF07 JUMP JUMPDEST POP JUMP JUMPDEST PUSH1 0x0 PUSH32 0x1FFC9A700000000000000000000000000000000000000000000000000000000 PUSH28 0xFFFFFFFFFFFFFFFFFFFFFFFFFFFFFFFFFFFFFFFFFFFFFFFFFFFFFFFF NOT AND DUP3 PUSH28 0xFFFFFFFFFFFFFFFFFFFFFFFFFFFFFFFFFFFFFFFFFFFFFFFFFFFFFFFF NOT AND EQ SWAP1 POP SWAP2 SWAP1 POP JUMP JUMPDEST PUSH1 0x6 SLOAD PUSH1 0x5 SLOAD GT ISZERO PUSH2 0x1002 JUMPI PUSH1 0x40 MLOAD PUSH32 0x8C379A000000000000000000000000000000000000000000000000000000000 DUP2 MSTORE PUSH1 0x4 ADD PUSH2 0xFF9 SWAP1 PUSH2 0x2195 JUMP JUMPDEST PUSH1 0x40 MLOAD DUP1 SWAP2 SUB SWAP1 REVERT JUMPDEST PUSH3 0xF4240 PUSH1 0x1 PUSH2 0x1012 SWAP2 SWAP1 PUSH2 0x2406 JUMP JUMPDEST PUSH1 0x3C PUSH1 0x5 SLOAD TIMESTAMP PUSH2 0x1022 SWAP2 SWAP1 PUSH2 0x2460 JUMP JUMPDEST PUSH2 0x102C SWAP2 SWAP1 PUSH2 0x23D5 JUMP JUMPDEST PUSH2 0x1036 SWAP2 SWAP1 PUSH2 0x2406 JUMP JUMPDEST PUSH1 0x7 SLOAD PUSH2 0x1043 SWAP2 SWAP1 PUSH2 0x2460 JUMP JUMPDEST PUSH1 0x9 PUSH1 0x0 ADD DUP2 SWAP1 SSTORE POP TIMESTAMP PUSH1 0x9 PUSH1 0x1 ADD DUP2 SWAP1 SSTORE POP PUSH1 0x5 SLOAD TIMESTAMP LT ISZERO DUP1 ISZERO PUSH2 0x106A JUMPI POP PUSH1 0x6 SLOAD TIMESTAMP GT ISZERO JUMPDEST ISZERO PUSH2 0x1092 JUMPI PUSH1 0x1 PUSH1 0x9 PUSH1 0x2 ADD PUSH1 0x0 PUSH2 0x100 EXP DUP2 SLOAD DUP2 PUSH1 0xFF MUL NOT AND SWAP1 DUP4 ISZERO ISZERO MUL OR SWAP1 SSTORE POP PUSH2 0x10B1 JUMP JUMPDEST PUSH1 0x0 PUSH1 0x9 PUSH1 0x2 ADD PUSH1 0x0 PUSH2 0x100 EXP DUP2 SLOAD DUP2 PUSH1 0xFF MUL NOT AND SWAP1 DUP4 ISZERO ISZERO MUL OR SWAP1 SSTORE POP JUMPDEST JUMP JUMPDEST PUSH1 0x1 PUSH1 0x0 SWAP1 SLOAD SWAP1 PUSH2 0x100 EXP SWAP1 DIV PUSH20 0xFFFFFFFFFFFFFFFFFFFFFFFFFFFFFFFFFFFFFFFF AND PUSH20 0xFFFFFFFFFFFFFFFFFFFFFFFFFFFFFFFFFFFFFFFF AND PUSH4 0x55676590 DUP3 PUSH1 0x40 MLOAD DUP3 PUSH4 0xFFFFFFFF AND PUSH1 0xE0 SHL DUP2 MSTORE PUSH1 0x4 ADD PUSH2 0x110E SWAP2 SWAP1 PUSH2 0x1FB1 JUMP JUMPDEST PUSH1 0x0 PUSH1 0x40 MLOAD DUP1 DUP4 SUB DUP2 PUSH1 0x0 DUP8 DUP1 EXTCODESIZE ISZERO DUP1 ISZERO PUSH2 0x1128 JUMPI PUSH1 0x0 DUP1 REVERT JUMPDEST POP GAS CALL ISZERO DUP1 ISZERO PUSH2 0x113C JUMPI RETURNDATASIZE PUSH1 0x0 DUP1 RETURNDATACOPY RETURNDATASIZE PUSH1 0x0 REVERT JUMPDEST POP POP POP POP POP JUMP JUMPDEST PUSH1 0x0 CALLER SWAP1 POP SWAP1 JUMP JUMPDEST PUSH2 0x1155 DUP3 DUP3 PUSH2 0x972 JUMP JUMPDEST PUSH2 0x11E4 JUMPI PUSH2 0x117A DUP2 PUSH20 0xFFFFFFFFFFFFFFFFFFFFFFFFFFFFFFFFFFFFFFFF AND PUSH1 0x14 PUSH2 0x1444 JUMP JUMPDEST PUSH2 0x1188 DUP4 PUSH1 0x0 SHR PUSH1 0x20 PUSH2 0x1444 JUMP JUMPDEST PUSH1 0x40 MLOAD PUSH1 0x20 ADD PUSH2 0x1199 SWAP3 SWAP2 SWAP1 PUSH2 0x1F77 JUMP JUMPDEST PUSH1 0x40 MLOAD PUSH1 0x20 DUP2 DUP4 SUB SUB DUP2 MSTORE SWAP1 PUSH1 0x40 MSTORE PUSH1 0x40 MLOAD PUSH32 0x8C379A000000000000000000000000000000000000000000000000000000000 DUP2 MSTORE PUSH1 0x4 ADD PUSH2 0x11DB SWAP2 SWAP1 PUSH2 0x20B3 JUMP JUMPDEST PUSH1 0x40 MLOAD DUP1 SWAP2 SUB SWAP1 REVERT JUMPDEST POP POP JUMP JUMPDEST PUSH2 0x11F2 DUP3 DUP3 PUSH2 0x972 JUMP JUMPDEST PUSH2 0x12C4 JUMPI PUSH1 0x1 PUSH1 0x0 DUP1 DUP5 DUP2 MSTORE PUSH1 0x20 ADD SWAP1 DUP2 MSTORE PUSH1 0x20 ADD PUSH1 0x0 KECCAK256 PUSH1 0x0 ADD PUSH1 0x0 DUP4 PUSH20 0xFFFFFFFFFFFFFFFFFFFFFFFFFFFFFFFFFFFFFFFF AND PUSH20 0xFFFFFFFFFFFFFFFFFFFFFFFFFFFFFFFFFFFFFFFF AND DUP2 MSTORE PUSH1 0x20 ADD SWAP1 DUP2 MSTORE PUSH1 0x20 ADD PUSH1 0x0 KECCAK256 PUSH1 0x0 PUSH2 0x100 EXP DUP2 SLOAD DUP2 PUSH1 0xFF MUL NOT AND SWAP1 DUP4 ISZERO ISZERO MUL OR SWAP1 SSTORE POP PUSH2 0x1269 PUSH2 0x1143 JUMP JUMPDEST PUSH20 0xFFFFFFFFFFFFFFFFFFFFFFFFFFFFFFFFFFFFFFFF AND DUP2 PUSH20 0xFFFFFFFFFFFFFFFFFFFFFFFFFFFFFFFFFFFFFFFF AND DUP4 PUSH32 0x2F8788117E7EFF1D82E926EC794901D17C78024A50270940304540A733656F0D PUSH1 0x40 MLOAD PUSH1 0x40 MLOAD DUP1 SWAP2 SUB SWAP1 LOG4 JUMPDEST POP POP JUMP JUMPDEST PUSH2 0x12D2 DUP3 DUP3 PUSH2 0x972 JUMP JUMPDEST ISZERO PUSH2 0x13A5 JUMPI PUSH1 0x0 DUP1 PUSH1 0x0 DUP5 DUP2 MSTORE PUSH1 0x20 ADD SWAP1 DUP2 MSTORE PUSH1 0x20 ADD PUSH1 0x0 KECCAK256 PUSH1 0x0 ADD PUSH1 0x0 DUP4 PUSH20 0xFFFFFFFFFFFFFFFFFFFFFFFFFFFFFFFFFFFFFFFF AND PUSH20 0xFFFFFFFFFFFFFFFFFFFFFFFFFFFFFFFFFFFFFFFF AND DUP2 MSTORE PUSH1 0x20 ADD SWAP1 DUP2 MSTORE PUSH1 0x20 ADD PUSH1 0x0 KECCAK256 PUSH1 0x0 PUSH2 0x100 EXP DUP2 SLOAD DUP2 PUSH1 0xFF MUL NOT AND SWAP1 DUP4 ISZERO ISZERO MUL OR SWAP1 SSTORE POP PUSH2 0x134A PUSH2 0x1143 JUMP JUMPDEST PUSH20 0xFFFFFFFFFFFFFFFFFFFFFFFFFFFFFFFFFFFFFFFF AND DUP2 PUSH20 0xFFFFFFFFFFFFFFFFFFFFFFFFFFFFFFFFFFFFFFFF AND DUP4 PUSH32 0xF6391F5C32D9C69D2A47EA670B442974B53935D1EDC7FD64EB21E047A839171B PUSH1 0x40 MLOAD PUSH1 0x40 MLOAD DUP1 SWAP2 SUB SWAP1 LOG4 JUMPDEST POP POP JUMP JUMPDEST PUSH1 0x3 PUSH1 0x0 SWAP1 SLOAD SWAP1 PUSH2 0x100 EXP SWAP1 DIV PUSH20 0xFFFFFFFFFFFFFFFFFFFFFFFFFFFFFFFFFFFFFFFF AND PUSH20 0xFFFFFFFFFFFFFFFFFFFFFFFFFFFFFFFFFFFFFFFF AND PUSH4 0x532B2913 CALLER DUP4 PUSH1 0x40 MLOAD DUP4 PUSH4 0xFFFFFFFF AND PUSH1 0xE0 SHL DUP2 MSTORE PUSH1 0x4 ADD PUSH2 0x1406 SWAP3 SWAP2 SWAP1 PUSH2 0x1FCC JUMP JUMPDEST PUSH1 0x0 PUSH1 0x40 MLOAD DUP1 DUP4 SUB DUP2 PUSH1 0x0 DUP8 DUP1 EXTCODESIZE ISZERO DUP1 ISZERO PUSH2 0x1420 JUMPI PUSH1 0x0 DUP1 REVERT JUMPDEST POP GAS CALL ISZERO DUP1 ISZERO PUSH2 0x1434 JUMPI RETURNDATASIZE PUSH1 0x0 DUP1 RETURNDATACOPY RETURNDATASIZE PUSH1 0x0 REVERT JUMPDEST POP POP POP POP PUSH2 0x1441 CALLER PUSH2 0x10B3 JUMP JUMPDEST POP JUMP JUMPDEST PUSH1 0x60 PUSH1 0x0 PUSH1 0x2 DUP4 PUSH1 0x2 PUSH2 0x1457 SWAP2 SWAP1 PUSH2 0x2406 JUMP JUMPDEST PUSH2 0x1461 SWAP2 SWAP1 PUSH2 0x237F JUMP JUMPDEST PUSH8 0xFFFFFFFFFFFFFFFF DUP2 GT ISZERO PUSH2 0x14A0 JUMPI PUSH32 0x4E487B7100000000000000000000000000000000000000000000000000000000 PUSH1 0x0 MSTORE PUSH1 0x41 PUSH1 0x4 MSTORE PUSH1 0x24 PUSH1 0x0 REVERT JUMPDEST PUSH1 0x40 MLOAD SWAP1 DUP1 DUP3 MSTORE DUP1 PUSH1 0x1F ADD PUSH1 0x1F NOT AND PUSH1 0x20 ADD DUP3 ADD PUSH1 0x40 MSTORE DUP1 ISZERO PUSH2 0x14D2 JUMPI DUP2 PUSH1 0x20 ADD PUSH1 0x1 DUP3 MUL DUP1 CALLDATASIZE DUP4 CALLDATACOPY DUP1 DUP3 ADD SWAP2 POP POP SWAP1 POP JUMPDEST POP SWAP1 POP PUSH32 0x3000000000000000000000000000000000000000000000000000000000000000 DUP2 PUSH1 0x0 DUP2 MLOAD DUP2 LT PUSH2 0x1530 JUMPI PUSH32 0x4E487B7100000000000000000000000000000000000000000000000000000000 PUSH1 0x0 MSTORE PUSH1 0x32 PUSH1 0x4 MSTORE PUSH1 0x24 PUSH1 0x0 REVERT JUMPDEST PUSH1 0x20 ADD ADD SWAP1 PUSH31 0xFFFFFFFFFFFFFFFFFFFFFFFFFFFFFFFFFFFFFFFFFFFFFFFFFFFFFFFFFFFFFF NOT AND SWAP1 DUP2 PUSH1 0x0 BYTE SWAP1 MSTORE8 POP PUSH32 0x7800000000000000000000000000000000000000000000000000000000000000 DUP2 PUSH1 0x1 DUP2 MLOAD DUP2 LT PUSH2 0x15BA JUMPI PUSH32 0x4E487B7100000000000000000000000000000000000000000000000000000000 PUSH1 0x0 MSTORE PUSH1 0x32 PUSH1 0x4 MSTORE PUSH1 0x24 PUSH1 0x0 REVERT JUMPDEST PUSH1 0x20 ADD ADD SWAP1 PUSH31 0xFFFFFFFFFFFFFFFFFFFFFFFFFFFFFFFFFFFFFFFFFFFFFFFFFFFFFFFFFFFFFF NOT AND SWAP1 DUP2 PUSH1 0x0 BYTE SWAP1 MSTORE8 POP PUSH1 0x0 PUSH1 0x1 DUP5 PUSH1 0x2 PUSH2 0x15FA SWAP2 SWAP1 PUSH2 0x2406 JUMP JUMPDEST PUSH2 0x1604 SWAP2 SWAP1 PUSH2 0x237F JUMP JUMPDEST SWAP1 POP JUMPDEST PUSH1 0x1 DUP2 GT ISZERO PUSH2 0x16F0 JUMPI PUSH32 0x3031323334353637383961626364656600000000000000000000000000000000 PUSH1 0xF DUP7 AND PUSH1 0x10 DUP2 LT PUSH2 0x166C JUMPI PUSH32 0x4E487B7100000000000000000000000000000000000000000000000000000000 PUSH1 0x0 MSTORE PUSH1 0x32 PUSH1 0x4 MSTORE PUSH1 0x24 PUSH1 0x0 REVERT JUMPDEST BYTE PUSH1 0xF8 SHL DUP3 DUP3 DUP2 MLOAD DUP2 LT PUSH2 0x16A9 JUMPI PUSH32 0x4E487B7100000000000000000000000000000000000000000000000000000000 PUSH1 0x0 MSTORE PUSH1 0x32 PUSH1 0x4 MSTORE PUSH1 0x24 PUSH1 0x0 REVERT JUMPDEST PUSH1 0x20 ADD ADD SWAP1 PUSH31 0xFFFFFFFFFFFFFFFFFFFFFFFFFFFFFFFFFFFFFFFFFFFFFFFFFFFFFFFFFFFFFF NOT AND SWAP1 DUP2 PUSH1 0x0 BYTE SWAP1 MSTORE8 POP PUSH1 0x4 DUP6 SWAP1 SHR SWAP5 POP DUP1 PUSH2 0x16E9 SWAP1 PUSH2 0x25C0 JUMP JUMPDEST SWAP1 POP PUSH2 0x1607 JUMP JUMPDEST POP PUSH1 0x0 DUP5 EQ PUSH2 0x1734 JUMPI PUSH1 0x40 MLOAD PUSH32 0x8C379A000000000000000000000000000000000000000000000000000000000 DUP2 MSTORE PUSH1 0x4 ADD PUSH2 0x172B SWAP1 PUSH2 0x20D5 JUMP JUMPDEST PUSH1 0x40 MLOAD DUP1 SWAP2 SUB SWAP1 REVERT JUMPDEST DUP1 SWAP2 POP POP SWAP3 SWAP2 POP POP JUMP JUMPDEST PUSH1 0x0 PUSH2 0x1751 PUSH2 0x174C DUP5 PUSH2 0x224C JUMP JUMPDEST PUSH2 0x2227 JUMP JUMPDEST SWAP1 POP DUP1 DUP4 DUP3 MSTORE PUSH1 0x20 DUP3 ADD SWAP1 POP DUP3 PUSH1 0x0 JUMPDEST DUP6 DUP2 LT ISZERO PUSH2 0x1791 JUMPI DUP2 CALLDATALOAD DUP6 ADD PUSH2 0x1777 DUP9 DUP3 PUSH2 0x18ED JUMP JUMPDEST DUP5 MSTORE PUSH1 0x20 DUP5 ADD SWAP4 POP PUSH1 0x20 DUP4 ADD SWAP3 POP POP PUSH1 0x1 DUP2 ADD SWAP1 POP PUSH2 0x1761 JUMP JUMPDEST POP POP POP SWAP4 SWAP3 POP POP POP JUMP JUMPDEST PUSH1 0x0 PUSH2 0x17AE PUSH2 0x17A9 DUP5 PUSH2 0x2278 JUMP JUMPDEST PUSH2 0x2227 JUMP JUMPDEST SWAP1 POP DUP1 DUP4 DUP3 MSTORE PUSH1 0x20 DUP3 ADD SWAP1 POP DUP3 DUP6 PUSH1 0x20 DUP7 MUL DUP3 ADD GT ISZERO PUSH2 0x17CD JUMPI PUSH1 0x0 DUP1 REVERT JUMPDEST PUSH1 0x0 JUMPDEST DUP6 DUP2 LT ISZERO PUSH2 0x17FD JUMPI DUP2 PUSH2 0x17E3 DUP9 DUP3 PUSH2 0x1917 JUMP JUMPDEST DUP5 MSTORE PUSH1 0x20 DUP5 ADD SWAP4 POP PUSH1 0x20 DUP4 ADD SWAP3 POP POP PUSH1 0x1 DUP2 ADD SWAP1 POP PUSH2 0x17D0 JUMP JUMPDEST POP POP POP SWAP4 SWAP3 POP POP POP JUMP JUMPDEST PUSH1 0x0 PUSH2 0x181A PUSH2 0x1815 DUP5 PUSH2 0x22A4 JUMP JUMPDEST PUSH2 0x2227 JUMP JUMPDEST SWAP1 POP DUP3 DUP2 MSTORE PUSH1 0x20 DUP2 ADD DUP5 DUP5 DUP5 ADD GT ISZERO PUSH2 0x1832 JUMPI PUSH1 0x0 DUP1 REVERT JUMPDEST PUSH2 0x183D DUP5 DUP3 DUP6 PUSH2 0x257E JUMP JUMPDEST POP SWAP4 SWAP3 POP POP POP JUMP JUMPDEST PUSH1 0x0 DUP2 CALLDATALOAD SWAP1 POP PUSH2 0x1854 DUP2 PUSH2 0x29C7 JUMP JUMPDEST SWAP3 SWAP2 POP POP JUMP JUMPDEST PUSH1 0x0 DUP3 PUSH1 0x1F DUP4 ADD SLT PUSH2 0x186B JUMPI PUSH1 0x0 DUP1 REVERT JUMPDEST DUP2 CALLDATALOAD PUSH2 0x187B DUP5 DUP3 PUSH1 0x20 DUP7 ADD PUSH2 0x173E JUMP JUMPDEST SWAP2 POP POP SWAP3 SWAP2 POP POP JUMP JUMPDEST PUSH1 0x0 DUP3 PUSH1 0x1F DUP4 ADD SLT PUSH2 0x1895 JUMPI PUSH1 0x0 DUP1 REVERT JUMPDEST DUP2 CALLDATALOAD PUSH2 0x18A5 DUP5 DUP3 PUSH1 0x20 DUP7 ADD PUSH2 0x179B JUMP JUMPDEST SWAP2 POP POP SWAP3 SWAP2 POP POP JUMP JUMPDEST PUSH1 0x0 DUP2 MLOAD SWAP1 POP PUSH2 0x18BD DUP2 PUSH2 0x29DE JUMP JUMPDEST SWAP3 SWAP2 POP POP JUMP JUMPDEST PUSH1 0x0 DUP2 CALLDATALOAD SWAP1 POP PUSH2 0x18D2 DUP2 PUSH2 0x29F5 JUMP JUMPDEST SWAP3 SWAP2 POP POP JUMP JUMPDEST PUSH1 0x0 DUP2 CALLDATALOAD SWAP1 POP PUSH2 0x18E7 DUP2 PUSH2 0x2A0C JUMP JUMPDEST SWAP3 SWAP2 POP POP JUMP JUMPDEST PUSH1 0x0 DUP3 PUSH1 0x1F DUP4 ADD SLT PUSH2 0x18FE JUMPI PUSH1 0x0 DUP1 REVERT JUMPDEST DUP2 CALLDATALOAD PUSH2 0x190E DUP5 DUP3 PUSH1 0x20 DUP7 ADD PUSH2 0x1807 JUMP JUMPDEST SWAP2 POP POP SWAP3 SWAP2 POP POP JUMP JUMPDEST PUSH1 0x0 DUP2 CALLDATALOAD SWAP1 POP PUSH2 0x1926 DUP2 PUSH2 0x2A23 JUMP JUMPDEST SWAP3 SWAP2 POP POP JUMP JUMPDEST PUSH1 0x0 DUP2 MLOAD SWAP1 POP PUSH2 0x193B DUP2 PUSH2 0x2A23 JUMP JUMPDEST SWAP3 SWAP2 POP POP JUMP JUMPDEST PUSH1 0x0 PUSH1 0x20 DUP3 DUP5 SUB SLT ISZERO PUSH2 0x1953 JUMPI PUSH1 0x0 DUP1 REVERT JUMPDEST PUSH1 0x0 PUSH2 0x1961 DUP5 DUP3 DUP6 ADD PUSH2 0x1845 JUMP JUMPDEST SWAP2 POP POP SWAP3 SWAP2 POP POP JUMP JUMPDEST PUSH1 0x0 DUP1 PUSH1 0x40 DUP4 DUP6 SUB SLT ISZERO PUSH2 0x197D JUMPI PUSH1 0x0 DUP1 REVERT JUMPDEST PUSH1 0x0 PUSH2 0x198B DUP6 DUP3 DUP7 ADD PUSH2 0x1845 JUMP JUMPDEST SWAP3 POP POP PUSH1 0x20 PUSH2 0x199C DUP6 DUP3 DUP7 ADD PUSH2 0x1917 JUMP JUMPDEST SWAP2 POP POP SWAP3 POP SWAP3 SWAP1 POP JUMP JUMPDEST PUSH1 0x0 DUP1 PUSH1 0x40 DUP4 DUP6 SUB SLT ISZERO PUSH2 0x19B9 JUMPI PUSH1 0x0 DUP1 REVERT JUMPDEST PUSH1 0x0 DUP4 ADD CALLDATALOAD PUSH8 0xFFFFFFFFFFFFFFFF DUP2 GT ISZERO PUSH2 0x19D3 JUMPI PUSH1 0x0 DUP1 REVERT JUMPDEST PUSH2 0x19DF DUP6 DUP3 DUP7 ADD PUSH2 0x1884 JUMP JUMPDEST SWAP3 POP POP PUSH1 0x20 DUP4 ADD CALLDATALOAD PUSH8 0xFFFFFFFFFFFFFFFF DUP2 GT ISZERO PUSH2 0x19FC JUMPI PUSH1 0x0 DUP1 REVERT JUMPDEST PUSH2 0x1A08 DUP6 DUP3 DUP7 ADD PUSH2 0x185A JUMP JUMPDEST SWAP2 POP POP SWAP3 POP SWAP3 SWAP1 POP JUMP JUMPDEST PUSH1 0x0 PUSH1 0x20 DUP3 DUP5 SUB SLT ISZERO PUSH2 0x1A24 JUMPI PUSH1 0x0 DUP1 REVERT JUMPDEST PUSH1 0x0 PUSH2 0x1A32 DUP5 DUP3 DUP6 ADD PUSH2 0x18AE JUMP JUMPDEST SWAP2 POP POP SWAP3 SWAP2 POP POP JUMP JUMPDEST PUSH1 0x0 PUSH1 0x20 DUP3 DUP5 SUB SLT ISZERO PUSH2 0x1A4D JUMPI PUSH1 0x0 DUP1 REVERT JUMPDEST PUSH1 0x0 PUSH2 0x1A5B DUP5 DUP3 DUP6 ADD PUSH2 0x18C3 JUMP JUMPDEST SWAP2 POP POP SWAP3 SWAP2 POP POP JUMP JUMPDEST PUSH1 0x0 DUP1 PUSH1 0x40 DUP4 DUP6 SUB SLT ISZERO PUSH2 0x1A77 JUMPI PUSH1 0x0 DUP1 REVERT JUMPDEST PUSH1 0x0 PUSH2 0x1A85 DUP6 DUP3 DUP7 ADD PUSH2 0x18C3 JUMP JUMPDEST SWAP3 POP POP PUSH1 0x20 PUSH2 0x1A96 DUP6 DUP3 DUP7 ADD PUSH2 0x1845 JUMP JUMPDEST SWAP2 POP POP SWAP3 POP SWAP3 SWAP1 POP JUMP JUMPDEST PUSH1 0x0 PUSH1 0x20 DUP3 DUP5 SUB SLT ISZERO PUSH2 0x1AB2 JUMPI PUSH1 0x0 DUP1 REVERT JUMPDEST PUSH1 0x0 PUSH2 0x1AC0 DUP5 DUP3 DUP6 ADD PUSH2 0x18D8 JUMP JUMPDEST SWAP2 POP POP SWAP3 SWAP2 POP POP JUMP JUMPDEST PUSH1 0x0 PUSH1 0x20 DUP3 DUP5 SUB SLT ISZERO PUSH2 0x1ADB JUMPI PUSH1 0x0 DUP1 REVERT JUMPDEST PUSH1 0x0 PUSH2 0x1AE9 DUP5 DUP3 DUP6 ADD PUSH2 0x1917 JUMP JUMPDEST SWAP2 POP POP SWAP3 SWAP2 POP POP JUMP JUMPDEST PUSH1 0x0 PUSH1 0x20 DUP3 DUP5 SUB SLT ISZERO PUSH2 0x1B04 JUMPI PUSH1 0x0 DUP1 REVERT JUMPDEST PUSH1 0x0 PUSH2 0x1B12 DUP5 DUP3 DUP6 ADD PUSH2 0x192C JUMP JUMPDEST SWAP2 POP POP SWAP3 SWAP2 POP POP JUMP JUMPDEST PUSH1 0x0 PUSH2 0x1B27 DUP4 DUP4 PUSH2 0x1C8B JUMP JUMPDEST SWAP1 POP SWAP3 SWAP2 POP POP JUMP JUMPDEST PUSH1 0x0 PUSH2 0x1B3B DUP4 DUP4 PUSH2 0x1EF5 JUMP JUMPDEST PUSH1 0x20 DUP4 ADD SWAP1 POP SWAP3 SWAP2 POP POP JUMP JUMPDEST PUSH2 0x1B50 DUP2 PUSH2 0x2494 JUMP JUMPDEST DUP3 MSTORE POP POP JUMP JUMPDEST PUSH2 0x1B67 PUSH2 0x1B62 DUP3 PUSH2 0x2494 JUMP JUMPDEST PUSH2 0x261B JUMP JUMPDEST DUP3 MSTORE POP POP JUMP JUMPDEST PUSH1 0x0 PUSH2 0x1B78 DUP3 PUSH2 0x22F5 JUMP JUMPDEST PUSH2 0x1B82 DUP2 DUP6 PUSH2 0x2330 JUMP JUMPDEST SWAP4 POP DUP4 PUSH1 0x20 DUP3 MUL DUP6 ADD PUSH2 0x1B94 DUP6 PUSH2 0x22D5 JUMP JUMPDEST DUP1 PUSH1 0x0 JUMPDEST DUP6 DUP2 LT ISZERO PUSH2 0x1BD0 JUMPI DUP5 DUP5 SUB DUP10 MSTORE DUP2 MLOAD PUSH2 0x1BB1 DUP6 DUP3 PUSH2 0x1B1B JUMP JUMPDEST SWAP5 POP PUSH2 0x1BBC DUP4 PUSH2 0x2316 JUMP JUMPDEST SWAP3 POP PUSH1 0x20 DUP11 ADD SWAP10 POP POP PUSH1 0x1 DUP2 ADD SWAP1 POP PUSH2 0x1B98 JUMP JUMPDEST POP DUP3 SWAP8 POP DUP8 SWAP6 POP POP POP POP POP POP SWAP3 SWAP2 POP POP JUMP JUMPDEST PUSH1 0x0 PUSH2 0x1BED DUP3 PUSH2 0x2300 JUMP JUMPDEST PUSH2 0x1BF7 DUP2 DUP6 PUSH2 0x2341 JUMP JUMPDEST SWAP4 POP PUSH2 0x1C02 DUP4 PUSH2 0x22E5 JUMP JUMPDEST DUP1 PUSH1 0x0 JUMPDEST DUP4 DUP2 LT ISZERO PUSH2 0x1C33 JUMPI DUP2 MLOAD PUSH2 0x1C1A DUP9 DUP3 PUSH2 0x1B2F JUMP JUMPDEST SWAP8 POP PUSH2 0x1C25 DUP4 PUSH2 0x2323 JUMP JUMPDEST SWAP3 POP POP PUSH1 0x1 DUP2 ADD SWAP1 POP PUSH2 0x1C06 JUMP JUMPDEST POP DUP6 SWAP4 POP POP POP POP SWAP3 SWAP2 POP POP JUMP JUMPDEST PUSH2 0x1C49 DUP2 PUSH2 0x24A6 JUMP JUMPDEST DUP3 MSTORE POP POP JUMP JUMPDEST PUSH2 0x1C58 DUP2 PUSH2 0x24B2 JUMP JUMPDEST DUP3 MSTORE POP POP JUMP JUMPDEST PUSH2 0x1C67 DUP2 PUSH2 0x2512 JUMP JUMPDEST DUP3 MSTORE POP POP JUMP JUMPDEST PUSH2 0x1C76 DUP2 PUSH2 0x2536 JUMP JUMPDEST DUP3 MSTORE POP POP JUMP JUMPDEST PUSH2 0x1C85 DUP2 PUSH2 0x255A JUMP JUMPDEST DUP3 MSTORE POP POP JUMP JUMPDEST PUSH1 0x0 PUSH2 0x1C96 DUP3 PUSH2 0x230B JUMP JUMPDEST PUSH2 0x1CA0 DUP2 DUP6 PUSH2 0x2352 JUMP JUMPDEST SWAP4 POP PUSH2 0x1CB0 DUP2 DUP6 PUSH1 0x20 DUP7 ADD PUSH2 0x258D JUMP JUMPDEST PUSH2 0x1CB9 DUP2 PUSH2 0x26D6 JUMP JUMPDEST DUP5 ADD SWAP2 POP POP SWAP3 SWAP2 POP POP JUMP JUMPDEST PUSH1 0x0 PUSH2 0x1CCF DUP3 PUSH2 0x230B JUMP JUMPDEST PUSH2 0x1CD9 DUP2 DUP6 PUSH2 0x2363 JUMP JUMPDEST SWAP4 POP PUSH2 0x1CE9 DUP2 DUP6 PUSH1 0x20 DUP7 ADD PUSH2 0x258D JUMP JUMPDEST PUSH2 0x1CF2 DUP2 PUSH2 0x26D6 JUMP JUMPDEST DUP5 ADD SWAP2 POP POP SWAP3 SWAP2 POP POP JUMP JUMPDEST PUSH1 0x0 PUSH2 0x1D08 DUP3 PUSH2 0x230B JUMP JUMPDEST PUSH2 0x1D12 DUP2 DUP6 PUSH2 0x2374 JUMP JUMPDEST SWAP4 POP PUSH2 0x1D22 DUP2 DUP6 PUSH1 0x20 DUP7 ADD PUSH2 0x258D JUMP JUMPDEST DUP1 DUP5 ADD SWAP2 POP POP SWAP3 SWAP2 POP POP JUMP JUMPDEST PUSH1 0x0 PUSH2 0x1D3B PUSH1 0x20 DUP4 PUSH2 0x2363 JUMP JUMPDEST SWAP2 POP PUSH2 0x1D46 DUP3 PUSH2 0x26F4 JUMP JUMPDEST PUSH1 0x20 DUP3 ADD SWAP1 POP SWAP2 SWAP1 POP JUMP JUMPDEST PUSH1 0x0 PUSH2 0x1D5E PUSH1 0x8 DUP4 PUSH2 0x2374 JUMP JUMPDEST SWAP2 POP PUSH2 0x1D69 DUP3 PUSH2 0x271D JUMP JUMPDEST PUSH1 0x8 DUP3 ADD SWAP1 POP SWAP2 SWAP1 POP JUMP JUMPDEST PUSH1 0x0 PUSH2 0x1D81 PUSH1 0x36 DUP4 PUSH2 0x2363 JUMP JUMPDEST SWAP2 POP PUSH2 0x1D8C DUP3 PUSH2 0x2746 JUMP JUMPDEST PUSH1 0x40 DUP3 ADD SWAP1 POP SWAP2 SWAP1 POP JUMP JUMPDEST PUSH1 0x0 PUSH2 0x1DA4 PUSH1 0x1B DUP4 PUSH2 0x2363 JUMP JUMPDEST SWAP2 POP PUSH2 0x1DAF DUP3 PUSH2 0x2795 JUMP JUMPDEST PUSH1 0x20 DUP3 ADD SWAP1 POP SWAP2 SWAP1 POP JUMP JUMPDEST PUSH1 0x0 PUSH2 0x1DC7 PUSH1 0x23 DUP4 PUSH2 0x2363 JUMP JUMPDEST SWAP2 POP PUSH2 0x1DD2 DUP3 PUSH2 0x27BE JUMP JUMPDEST PUSH1 0x40 DUP3 ADD SWAP1 POP SWAP2 SWAP1 POP JUMP JUMPDEST PUSH1 0x0 PUSH2 0x1DEA PUSH1 0x22 DUP4 PUSH2 0x2363 JUMP JUMPDEST SWAP2 POP PUSH2 0x1DF5 DUP3 PUSH2 0x280D JUMP JUMPDEST PUSH1 0x40 DUP3 ADD SWAP1 POP SWAP2 SWAP1 POP JUMP JUMPDEST PUSH1 0x0 PUSH2 0x1E0D PUSH1 0x1 DUP4 PUSH2 0x2374 JUMP JUMPDEST SWAP2 POP PUSH2 0x1E18 DUP3 PUSH2 0x285C JUMP JUMPDEST PUSH1 0x1 DUP3 ADD SWAP1 POP SWAP2 SWAP1 POP JUMP JUMPDEST PUSH1 0x0 PUSH2 0x1E30 PUSH1 0x30 DUP4 PUSH2 0x2374 JUMP JUMPDEST SWAP2 POP PUSH2 0x1E3B DUP3 PUSH2 0x2885 JUMP JUMPDEST PUSH1 0x30 DUP3 ADD SWAP1 POP SWAP2 SWAP1 POP JUMP JUMPDEST PUSH1 0x0 PUSH2 0x1E53 PUSH1 0x16 DUP4 PUSH2 0x2363 JUMP JUMPDEST SWAP2 POP PUSH2 0x1E5E DUP3 PUSH2 0x28D4 JUMP JUMPDEST PUSH1 0x20 DUP3 ADD SWAP1 POP SWAP2 SWAP1 POP JUMP JUMPDEST PUSH1 0x0 PUSH2 0x1E76 PUSH1 0x1F DUP4 PUSH2 0x2363 JUMP JUMPDEST SWAP2 POP PUSH2 0x1E81 DUP3 PUSH2 0x28FD JUMP JUMPDEST PUSH1 0x20 DUP3 ADD SWAP1 POP SWAP2 SWAP1 POP JUMP JUMPDEST PUSH1 0x0 PUSH2 0x1E99 PUSH1 0x17 DUP4 PUSH2 0x2374 JUMP JUMPDEST SWAP2 POP PUSH2 0x1EA4 DUP3 PUSH2 0x2926 JUMP JUMPDEST PUSH1 0x17 DUP3 ADD SWAP1 POP SWAP2 SWAP1 POP JUMP JUMPDEST PUSH1 0x0 PUSH2 0x1EBC PUSH1 0x11 DUP4 PUSH2 0x2374 JUMP JUMPDEST SWAP2 POP PUSH2 0x1EC7 DUP3 PUSH2 0x294F JUMP JUMPDEST PUSH1 0x11 DUP3 ADD SWAP1 POP SWAP2 SWAP1 POP JUMP JUMPDEST PUSH1 0x0 PUSH2 0x1EDF PUSH1 0x2F DUP4 PUSH2 0x2363 JUMP JUMPDEST SWAP2 POP PUSH2 0x1EEA DUP3 PUSH2 0x2978 JUMP JUMPDEST PUSH1 0x40 DUP3 ADD SWAP1 POP SWAP2 SWAP1 POP JUMP JUMPDEST PUSH2 0x1EFE DUP2 PUSH2 0x2508 JUMP JUMPDEST DUP3 MSTORE POP POP JUMP JUMPDEST PUSH2 0x1F0D DUP2 PUSH2 0x2508 JUMP JUMPDEST DUP3 MSTORE POP POP JUMP JUMPDEST PUSH2 0x1F24 PUSH2 0x1F1F DUP3 PUSH2 0x2508 JUMP JUMPDEST PUSH2 0x263F JUMP JUMPDEST DUP3 MSTORE POP POP JUMP JUMPDEST PUSH1 0x0 PUSH2 0x1F35 DUP3 PUSH2 0x1D51 JUMP JUMPDEST SWAP2 POP PUSH2 0x1F41 DUP3 DUP6 PUSH2 0x1B56 JUMP JUMPDEST PUSH1 0x14 DUP3 ADD SWAP2 POP PUSH2 0x1F50 DUP3 PUSH2 0x1E23 JUMP JUMPDEST SWAP2 POP PUSH2 0x1F5C DUP3 DUP5 PUSH2 0x1F13 JUMP JUMPDEST PUSH1 0x20 DUP3 ADD SWAP2 POP PUSH2 0x1F6B DUP3 PUSH2 0x1E00 JUMP JUMPDEST SWAP2 POP DUP2 SWAP1 POP SWAP4 SWAP3 POP POP POP JUMP JUMPDEST PUSH1 0x0 PUSH2 0x1F82 DUP3 PUSH2 0x1E8C JUMP JUMPDEST SWAP2 POP PUSH2 0x1F8E DUP3 DUP6 PUSH2 0x1CFD JUMP JUMPDEST SWAP2 POP PUSH2 0x1F99 DUP3 PUSH2 0x1EAF JUMP JUMPDEST SWAP2 POP PUSH2 0x1FA5 DUP3 DUP5 PUSH2 0x1CFD JUMP JUMPDEST SWAP2 POP DUP2 SWAP1 POP SWAP4 SWAP3 POP POP POP JUMP JUMPDEST PUSH1 0x0 PUSH1 0x20 DUP3 ADD SWAP1 POP PUSH2 0x1FC6 PUSH1 0x0 DUP4 ADD DUP5 PUSH2 0x1B47 JUMP JUMPDEST SWAP3 SWAP2 POP POP JUMP JUMPDEST PUSH1 0x0 PUSH1 0x40 DUP3 ADD SWAP1 POP PUSH2 0x1FE1 PUSH1 0x0 DUP4 ADD DUP6 PUSH2 0x1B47 JUMP JUMPDEST PUSH2 0x1FEE PUSH1 0x20 DUP4 ADD DUP5 PUSH2 0x1F04 JUMP JUMPDEST SWAP4 SWAP3 POP POP POP JUMP JUMPDEST PUSH1 0x0 PUSH1 0x40 DUP3 ADD SWAP1 POP DUP2 DUP2 SUB PUSH1 0x0 DUP4 ADD MSTORE PUSH2 0x200F DUP2 DUP6 PUSH2 0x1BE2 JUMP JUMPDEST SWAP1 POP DUP2 DUP2 SUB PUSH1 0x20 DUP4 ADD MSTORE PUSH2 0x2023 DUP2 DUP5 PUSH2 0x1B6D JUMP JUMPDEST SWAP1 POP SWAP4 SWAP3 POP POP POP JUMP JUMPDEST PUSH1 0x0 PUSH1 0x20 DUP3 ADD SWAP1 POP PUSH2 0x2041 PUSH1 0x0 DUP4 ADD DUP5 PUSH2 0x1C40 JUMP JUMPDEST SWAP3 SWAP2 POP POP JUMP JUMPDEST PUSH1 0x0 PUSH1 0x20 DUP3 ADD SWAP1 POP PUSH2 0x205C PUSH1 0x0 DUP4 ADD DUP5 PUSH2 0x1C4F JUMP JUMPDEST SWAP3 SWAP2 POP POP JUMP JUMPDEST PUSH1 0x0 PUSH1 0x20 DUP3 ADD SWAP1 POP PUSH2 0x2077 PUSH1 0x0 DUP4 ADD DUP5 PUSH2 0x1C5E JUMP JUMPDEST SWAP3 SWAP2 POP POP JUMP JUMPDEST PUSH1 0x0 PUSH1 0x20 DUP3 ADD SWAP1 POP PUSH2 0x2092 PUSH1 0x0 DUP4 ADD DUP5 PUSH2 0x1C6D JUMP JUMPDEST SWAP3 SWAP2 POP POP JUMP JUMPDEST PUSH1 0x0 PUSH1 0x20 DUP3 ADD SWAP1 POP PUSH2 0x20AD PUSH1 0x0 DUP4 ADD DUP5 PUSH2 0x1C7C JUMP JUMPDEST SWAP3 SWAP2 POP POP JUMP JUMPDEST PUSH1 0x0 PUSH1 0x20 DUP3 ADD SWAP1 POP DUP2 DUP2 SUB PUSH1 0x0 DUP4 ADD MSTORE PUSH2 0x20CD DUP2 DUP5 PUSH2 0x1CC4 JUMP JUMPDEST SWAP1 POP SWAP3 SWAP2 POP POP JUMP JUMPDEST PUSH1 0x0 PUSH1 0x20 DUP3 ADD SWAP1 POP DUP2 DUP2 SUB PUSH1 0x0 DUP4 ADD MSTORE PUSH2 0x20EE DUP2 PUSH2 0x1D2E JUMP JUMPDEST SWAP1 POP SWAP2 SWAP1 POP JUMP JUMPDEST PUSH1 0x0 PUSH1 0x20 DUP3 ADD SWAP1 POP DUP2 DUP2 SUB PUSH1 0x0 DUP4 ADD MSTORE PUSH2 0x210E DUP2 PUSH2 0x1D74 JUMP JUMPDEST SWAP1 POP SWAP2 SWAP1 POP JUMP JUMPDEST PUSH1 0x0 PUSH1 0x20 DUP3 ADD SWAP1 POP DUP2 DUP2 SUB PUSH1 0x0 DUP4 ADD MSTORE PUSH2 0x212E DUP2 PUSH2 0x1D97 JUMP JUMPDEST SWAP1 POP SWAP2 SWAP1 POP JUMP JUMPDEST PUSH1 0x0 PUSH1 0x20 DUP3 ADD SWAP1 POP DUP2 DUP2 SUB PUSH1 0x0 DUP4 ADD MSTORE PUSH2 0x214E DUP2 PUSH2 0x1DBA JUMP JUMPDEST SWAP1 POP SWAP2 SWAP1 POP JUMP JUMPDEST PUSH1 0x0 PUSH1 0x20 DUP3 ADD SWAP1 POP DUP2 DUP2 SUB PUSH1 0x0 DUP4 ADD MSTORE PUSH2 0x216E DUP2 PUSH2 0x1DDD JUMP JUMPDEST SWAP1 POP SWAP2 SWAP1 POP JUMP JUMPDEST PUSH1 0x0 PUSH1 0x20 DUP3 ADD SWAP1 POP DUP2 DUP2 SUB PUSH1 0x0 DUP4 ADD MSTORE PUSH2 0x218E DUP2 PUSH2 0x1E46 JUMP JUMPDEST SWAP1 POP SWAP2 SWAP1 POP JUMP JUMPDEST PUSH1 0x0 PUSH1 0x20 DUP3 ADD SWAP1 POP DUP2 DUP2 SUB PUSH1 0x0 DUP4 ADD MSTORE PUSH2 0x21AE DUP2 PUSH2 0x1E69 JUMP JUMPDEST SWAP1 POP SWAP2 SWAP1 POP JUMP JUMPDEST PUSH1 0x0 PUSH1 0x20 DUP3 ADD SWAP1 POP DUP2 DUP2 SUB PUSH1 0x0 DUP4 ADD MSTORE PUSH2 0x21CE DUP2 PUSH2 0x1ED2 JUMP JUMPDEST SWAP1 POP SWAP2 SWAP1 POP JUMP JUMPDEST PUSH1 0x0 PUSH1 0x20 DUP3 ADD SWAP1 POP PUSH2 0x21EA PUSH1 0x0 DUP4 ADD DUP5 PUSH2 0x1F04 JUMP JUMPDEST SWAP3 SWAP2 POP POP JUMP JUMPDEST PUSH1 0x0 PUSH1 0x60 DUP3 ADD SWAP1 POP PUSH2 0x2205 PUSH1 0x0 DUP4 ADD DUP7 PUSH2 0x1F04 JUMP JUMPDEST PUSH2 0x2212 PUSH1 0x20 DUP4 ADD DUP6 PUSH2 0x1F04 JUMP JUMPDEST PUSH2 0x221F PUSH1 0x40 DUP4 ADD DUP5 PUSH2 0x1C40 JUMP JUMPDEST SWAP5 SWAP4 POP POP POP POP JUMP JUMPDEST PUSH1 0x0 PUSH2 0x2231 PUSH2 0x2242 JUMP JUMPDEST SWAP1 POP PUSH2 0x223D DUP3 DUP3 PUSH2 0x25EA JUMP JUMPDEST SWAP2 SWAP1 POP JUMP JUMPDEST PUSH1 0x0 PUSH1 0x40 MLOAD SWAP1 POP SWAP1 JUMP JUMPDEST PUSH1 0x0 PUSH8 0xFFFFFFFFFFFFFFFF DUP3 GT ISZERO PUSH2 0x2267 JUMPI PUSH2 0x2266 PUSH2 0x26A7 JUMP JUMPDEST JUMPDEST PUSH1 0x20 DUP3 MUL SWAP1 POP PUSH1 0x20 DUP2 ADD SWAP1 POP SWAP2 SWAP1 POP JUMP JUMPDEST PUSH1 0x0 PUSH8 0xFFFFFFFFFFFFFFFF DUP3 GT ISZERO PUSH2 0x2293 JUMPI PUSH2 0x2292 PUSH2 0x26A7 JUMP JUMPDEST JUMPDEST PUSH1 0x20 DUP3 MUL SWAP1 POP PUSH1 0x20 DUP2 ADD SWAP1 POP SWAP2 SWAP1 POP JUMP JUMPDEST PUSH1 0x0 PUSH8 0xFFFFFFFFFFFFFFFF DUP3 GT ISZERO PUSH2 0x22BF JUMPI PUSH2 0x22BE PUSH2 0x26A7 JUMP JUMPDEST JUMPDEST PUSH2 0x22C8 DUP3 PUSH2 0x26D6 JUMP JUMPDEST SWAP1 POP PUSH1 0x20 DUP2 ADD SWAP1 POP SWAP2 SWAP1 POP JUMP JUMPDEST PUSH1 0x0 DUP2 SWAP1 POP PUSH1 0x20 DUP3 ADD SWAP1 POP SWAP2 SWAP1 POP JUMP JUMPDEST PUSH1 0x0 DUP2 SWAP1 POP PUSH1 0x20 DUP3 ADD SWAP1 POP SWAP2 SWAP1 POP JUMP JUMPDEST PUSH1 0x0 DUP2 MLOAD SWAP1 POP SWAP2 SWAP1 POP JUMP JUMPDEST PUSH1 0x0 DUP2 MLOAD SWAP1 POP SWAP2 SWAP1 POP JUMP JUMPDEST PUSH1 0x0 DUP2 MLOAD SWAP1 POP SWAP2 SWAP1 POP JUMP JUMPDEST PUSH1 0x0 PUSH1 0x20 DUP3 ADD SWAP1 POP SWAP2 SWAP1 POP JUMP JUMPDEST PUSH1 0x0 PUSH1 0x20 DUP3 ADD SWAP1 POP SWAP2 SWAP1 POP JUMP JUMPDEST PUSH1 0x0 DUP3 DUP3 MSTORE PUSH1 0x20 DUP3 ADD SWAP1 POP SWAP3 SWAP2 POP POP JUMP JUMPDEST PUSH1 0x0 DUP3 DUP3 MSTORE PUSH1 0x20 DUP3 ADD SWAP1 POP SWAP3 SWAP2 POP POP JUMP JUMPDEST PUSH1 0x0 DUP3 DUP3 MSTORE PUSH1 0x20 DUP3 ADD SWAP1 POP SWAP3 SWAP2 POP POP JUMP JUMPDEST PUSH1 0x0 DUP3 DUP3 MSTORE PUSH1 0x20 DUP3 ADD SWAP1 POP SWAP3 SWAP2 POP POP JUMP JUMPDEST PUSH1 0x0 DUP2 SWAP1 POP SWAP3 SWAP2 POP POP JUMP JUMPDEST PUSH1 0x0 PUSH2 0x238A DUP3 PUSH2 0x2508 JUMP JUMPDEST SWAP2 POP PUSH2 0x2395 DUP4 PUSH2 0x2508 JUMP JUMPDEST SWAP3 POP DUP3 PUSH32 0xFFFFFFFFFFFFFFFFFFFFFFFFFFFFFFFFFFFFFFFFFFFFFFFFFFFFFFFFFFFFFFFF SUB DUP3 GT ISZERO PUSH2 0x23CA JUMPI PUSH2 0x23C9 PUSH2 0x2649 JUMP JUMPDEST JUMPDEST DUP3 DUP3 ADD SWAP1 POP SWAP3 SWAP2 POP POP JUMP JUMPDEST PUSH1 0x0 PUSH2 0x23E0 DUP3 PUSH2 0x2508 JUMP JUMPDEST SWAP2 POP PUSH2 0x23EB DUP4 PUSH2 0x2508 JUMP JUMPDEST SWAP3 POP DUP3 PUSH2 0x23FB JUMPI PUSH2 0x23FA PUSH2 0x2678 JUMP JUMPDEST JUMPDEST DUP3 DUP3 DIV SWAP1 POP SWAP3 SWAP2 POP POP JUMP JUMPDEST PUSH1 0x0 PUSH2 0x2411 DUP3 PUSH2 0x2508 JUMP JUMPDEST SWAP2 POP PUSH2 0x241C DUP4 PUSH2 0x2508 JUMP JUMPDEST SWAP3 POP DUP2 PUSH32 0xFFFFFFFFFFFFFFFFFFFFFFFFFFFFFFFFFFFFFFFFFFFFFFFFFFFFFFFFFFFFFFFF DIV DUP4 GT DUP3 ISZERO ISZERO AND ISZERO PUSH2 0x2455 JUMPI PUSH2 0x2454 PUSH2 0x2649 JUMP JUMPDEST JUMPDEST DUP3 DUP3 MUL SWAP1 POP SWAP3 SWAP2 POP POP JUMP JUMPDEST PUSH1 0x0 PUSH2 0x246B DUP3 PUSH2 0x2508 JUMP JUMPDEST SWAP2 POP PUSH2 0x2476 DUP4 PUSH2 0x2508 JUMP JUMPDEST SWAP3 POP DUP3 DUP3 LT ISZERO PUSH2 0x2489 JUMPI PUSH2 0x2488 PUSH2 0x2649 JUMP JUMPDEST JUMPDEST DUP3 DUP3 SUB SWAP1 POP SWAP3 SWAP2 POP POP JUMP JUMPDEST PUSH1 0x0 PUSH2 0x249F DUP3 PUSH2 0x24E8 JUMP JUMPDEST SWAP1 POP SWAP2 SWAP1 POP JUMP JUMPDEST PUSH1 0x0 DUP2 ISZERO ISZERO SWAP1 POP SWAP2 SWAP1 POP JUMP JUMPDEST PUSH1 0x0 DUP2 SWAP1 POP SWAP2 SWAP1 POP JUMP JUMPDEST PUSH1 0x0 PUSH32 0xFFFFFFFF00000000000000000000000000000000000000000000000000000000 DUP3 AND SWAP1 POP SWAP2 SWAP1 POP JUMP JUMPDEST PUSH1 0x0 PUSH20 0xFFFFFFFFFFFFFFFFFFFFFFFFFFFFFFFFFFFFFFFF DUP3 AND SWAP1 POP SWAP2 SWAP1 POP JUMP JUMPDEST PUSH1 0x0 DUP2 SWAP1 POP SWAP2 SWAP1 POP JUMP JUMPDEST PUSH1 0x0 PUSH2 0x251D DUP3 PUSH2 0x2524 JUMP JUMPDEST SWAP1 POP SWAP2 SWAP1 POP JUMP JUMPDEST PUSH1 0x0 PUSH2 0x252F DUP3 PUSH2 0x24E8 JUMP JUMPDEST SWAP1 POP SWAP2 SWAP1 POP JUMP JUMPDEST PUSH1 0x0 PUSH2 0x2541 DUP3 PUSH2 0x2548 JUMP JUMPDEST SWAP1 POP SWAP2 SWAP1 POP JUMP JUMPDEST PUSH1 0x0 PUSH2 0x2553 DUP3 PUSH2 0x24E8 JUMP JUMPDEST SWAP1 POP SWAP2 SWAP1 POP JUMP JUMPDEST PUSH1 0x0 PUSH2 0x2565 DUP3 PUSH2 0x256C JUMP JUMPDEST SWAP1 POP SWAP2 SWAP1 POP JUMP JUMPDEST PUSH1 0x0 PUSH2 0x2577 DUP3 PUSH2 0x24E8 JUMP JUMPDEST SWAP1 POP SWAP2 SWAP1 POP JUMP JUMPDEST DUP3 DUP2 DUP4 CALLDATACOPY PUSH1 0x0 DUP4 DUP4 ADD MSTORE POP POP POP JUMP JUMPDEST PUSH1 0x0 JUMPDEST DUP4 DUP2 LT ISZERO PUSH2 0x25AB JUMPI DUP1 DUP3 ADD MLOAD DUP2 DUP5 ADD MSTORE PUSH1 0x20 DUP2 ADD SWAP1 POP PUSH2 0x2590 JUMP JUMPDEST DUP4 DUP2 GT ISZERO PUSH2 0x25BA JUMPI PUSH1 0x0 DUP5 DUP5 ADD MSTORE JUMPDEST POP POP POP POP JUMP JUMPDEST PUSH1 0x0 PUSH2 0x25CB DUP3 PUSH2 0x2508 JUMP JUMPDEST SWAP2 POP PUSH1 0x0 DUP3 EQ ISZERO PUSH2 0x25DF JUMPI PUSH2 0x25DE PUSH2 0x2649 JUMP JUMPDEST JUMPDEST PUSH1 0x1 DUP3 SUB SWAP1 POP SWAP2 SWAP1 POP JUMP JUMPDEST PUSH2 0x25F3 DUP3 PUSH2 0x26D6 JUMP JUMPDEST DUP2 ADD DUP2 DUP2 LT PUSH8 0xFFFFFFFFFFFFFFFF DUP3 GT OR ISZERO PUSH2 0x2612 JUMPI PUSH2 0x2611 PUSH2 0x26A7 JUMP JUMPDEST JUMPDEST DUP1 PUSH1 0x40 MSTORE POP POP POP JUMP JUMPDEST PUSH1 0x0 PUSH2 0x2626 DUP3 PUSH2 0x262D JUMP JUMPDEST SWAP1 POP SWAP2 SWAP1 POP JUMP JUMPDEST PUSH1 0x0 PUSH2 0x2638 DUP3 PUSH2 0x26E7 JUMP JUMPDEST SWAP1 POP SWAP2 SWAP1 POP JUMP JUMPDEST PUSH1 0x0 DUP2 SWAP1 POP SWAP2 SWAP1 POP JUMP JUMPDEST PUSH32 0x4E487B7100000000000000000000000000000000000000000000000000000000 PUSH1 0x0 MSTORE PUSH1 0x11 PUSH1 0x4 MSTORE PUSH1 0x24 PUSH1 0x0 REVERT JUMPDEST PUSH32 0x4E487B7100000000000000000000000000000000000000000000000000000000 PUSH1 0x0 MSTORE PUSH1 0x12 PUSH1 0x4 MSTORE PUSH1 0x24 PUSH1 0x0 REVERT JUMPDEST PUSH32 0x4E487B7100000000000000000000000000000000000000000000000000000000 PUSH1 0x0 MSTORE PUSH1 0x41 PUSH1 0x4 MSTORE PUSH1 0x24 PUSH1 0x0 REVERT JUMPDEST PUSH1 0x0 PUSH1 0x1F NOT PUSH1 0x1F DUP4 ADD AND SWAP1 POP SWAP2 SWAP1 POP JUMP JUMPDEST PUSH1 0x0 DUP2 PUSH1 0x60 SHL SWAP1 POP SWAP2 SWAP1 POP JUMP JUMPDEST PUSH32 0x537472696E67733A20686578206C656E67746820696E73756666696369656E74 PUSH1 0x0 DUP3 ADD MSTORE POP JUMP JUMPDEST PUSH32 0x4164647265737320000000000000000000000000000000000000000000000000 PUSH1 0x0 DUP3 ADD MSTORE POP JUMP JUMPDEST PUSH32 0x43616E6E6F74206D696E7420746F207472656173757279206164647265737320 PUSH1 0x0 DUP3 ADD MSTORE PUSH32 0x756E74696C2073616C652069732066696E697368656400000000000000000000 PUSH1 0x20 DUP3 ADD MSTORE POP JUMP JUMPDEST PUSH32 0x74696D657374616D70206973206E6F742075702D746F2D646174650000000000 PUSH1 0x0 DUP3 ADD MSTORE POP JUMP JUMPDEST PUSH32 0x53656E646572206973206E6F742053616C65204D616E61676572206F72204164 PUSH1 0x0 DUP3 ADD MSTORE PUSH32 0x6D696E0000000000000000000000000000000000000000000000000000000000 PUSH1 0x20 DUP3 ADD MSTORE POP JUMP JUMPDEST PUSH32 0x53656E646572206973206E6F7420555249204D616E61676572206F722041646D PUSH1 0x0 DUP3 ADD MSTORE PUSH32 0x696E000000000000000000000000000000000000000000000000000000000000 PUSH1 0x20 DUP3 ADD MSTORE POP JUMP JUMPDEST PUSH32 0x2500000000000000000000000000000000000000000000000000000000000000 PUSH1 0x0 DUP3 ADD MSTORE POP JUMP JUMPDEST PUSH32 0x20646F6573206E6F742068617665206120636F75706F6E207769746820612064 PUSH1 0x0 DUP3 ADD MSTORE PUSH32 0x6973636F756E742072617465206F662000000000000000000000000000000000 PUSH1 0x20 DUP3 ADD MSTORE POP JUMP JUMPDEST PUSH32 0x4E6F20746F6B656E73206C65667420746F206D696E7400000000000000000000 PUSH1 0x0 DUP3 ADD MSTORE POP JUMP JUMPDEST PUSH32 0x737461727454696D65206973206C61746572207468616E20656E6454696D6500 PUSH1 0x0 DUP3 ADD MSTORE POP JUMP JUMPDEST PUSH32 0x416363657373436F6E74726F6C3A206163636F756E7420000000000000000000 PUSH1 0x0 DUP3 ADD MSTORE POP JUMP JUMPDEST PUSH32 0x206973206D697373696E6720726F6C6520000000000000000000000000000000 PUSH1 0x0 DUP3 ADD MSTORE POP JUMP JUMPDEST PUSH32 0x416363657373436F6E74726F6C3A2063616E206F6E6C792072656E6F756E6365 PUSH1 0x0 DUP3 ADD MSTORE PUSH32 0x20726F6C657320666F722073656C660000000000000000000000000000000000 PUSH1 0x20 DUP3 ADD MSTORE POP JUMP JUMPDEST PUSH2 0x29D0 DUP2 PUSH2 0x2494 JUMP JUMPDEST DUP2 EQ PUSH2 0x29DB JUMPI PUSH1 0x0 DUP1 REVERT JUMPDEST POP JUMP JUMPDEST PUSH2 0x29E7 DUP2 PUSH2 0x24A6 JUMP JUMPDEST DUP2 EQ PUSH2 0x29F2 JUMPI PUSH1 0x0 DUP1 REVERT JUMPDEST POP JUMP JUMPDEST PUSH2 0x29FE DUP2 PUSH2 0x24B2 JUMP JUMPDEST DUP2 EQ PUSH2 0x2A09 JUMPI PUSH1 0x0 DUP1 REVERT JUMPDEST POP JUMP JUMPDEST PUSH2 0x2A15 DUP2 PUSH2 0x24BC JUMP JUMPDEST DUP2 EQ PUSH2 0x2A20 JUMPI PUSH1 0x0 DUP1 REVERT JUMPDEST POP JUMP JUMPDEST PUSH2 0x2A2C DUP2 PUSH2 0x2508 JUMP JUMPDEST DUP2 EQ PUSH2 0x2A37 JUMPI PUSH1 0x0 DUP1 REVERT JUMPDEST POP JUMP INVALID LOG2 PUSH5 0x6970667358 0x22 SLT KECCAK256 0xCE PUSH18 0xF9DFFEC490775E3CD045004255E9B509D947 SLT SWAP6 0xD6 0xB5 PUSH19 0x81C4B5BDA903FF64736F6C6343000801003300 "
				},
				"gasEstimates": {
					"creation": {
						"codeDepositCost": "2172800",
						"executionCost": "infinite",
						"totalCost": "infinite"
					},
					"external": {
						"DEFAULT_ADMIN_ROLE()": "424",
						"ERC1155storageContract()": "1280",
						"SALE_MANAGER_ROLE()": "374",
						"URI_MANAGER_ROLE()": "418",
						"buyNFT()": "infinite",
						"buyNftWithDiscount(uint256)": "infinite",
						"calculateCustomPrice(address,uint256)": "infinite",
						"getMaxSupply()": "infinite",
						"getNextUnusedToken()": "infinite",
						"getRoleAdmin(bytes32)": "infinite",
						"grantRole(bytes32,address)": "infinite",
						"hasRole(bytes32,address)": "1885",
						"lastUpdate()": "infinite",
						"mintNextToTreasuryAddress()": "infinite",
						"mintRemainderToTreasuryAddress()": "infinite",
						"preLoadURIs(uint256[],string[])": "infinite",
						"privilgedBuyerList()": "1324",
						"renounceRole(bytes32,address)": "infinite",
						"revokeRole(bytes32,address)": "infinite",
						"setEndTime(uint256)": "infinite",
						"setStorageContractAddress(address)": "infinite",
						"setstartTime(uint256)": "infinite",
						"supportsInterface(bytes4)": "751",
						"treasuryAddress()": "1303",
						"updateAndCalculateCustomPrice(address,uint256)": "infinite",
						"usdcEscrowStorageContract()": "1324"
					},
					"internal": {
						"_buyNFT(uint256)": "infinite",
						"mintNextNftToAddress(address)": "infinite",
						"updateState()": "infinite"
					}
				},
				"methodIdentifiers": {
					"DEFAULT_ADMIN_ROLE()": "a217fddf",
					"ERC1155storageContract()": "8c83faeb",
					"SALE_MANAGER_ROLE()": "551b42a8",
					"URI_MANAGER_ROLE()": "682d07d9",
					"buyNFT()": "bff29cee",
					"buyNftWithDiscount(uint256)": "4c9b73da",
					"calculateCustomPrice(address,uint256)": "ab6c0306",
					"getMaxSupply()": "4c0f38c2",
					"getNextUnusedToken()": "68fc01a2",
					"getRoleAdmin(bytes32)": "248a9ca3",
					"grantRole(bytes32,address)": "2f2ff15d",
					"hasRole(bytes32,address)": "91d14854",
					"lastUpdate()": "c0463711",
					"mintNextToTreasuryAddress()": "26116d47",
					"mintRemainderToTreasuryAddress()": "f715dfca",
					"preLoadURIs(uint256[],string[])": "f121da92",
					"privilgedBuyerList()": "5ce7e721",
					"renounceRole(bytes32,address)": "36568abe",
					"revokeRole(bytes32,address)": "d547741f",
					"setEndTime(uint256)": "ccb98ffc",
					"setStorageContractAddress(address)": "51f7598c",
					"setstartTime(uint256)": "944044a1",
					"supportsInterface(bytes4)": "01ffc9a7",
					"treasuryAddress()": "c5f956af",
					"updateAndCalculateCustomPrice(address,uint256)": "432c7c5d",
					"usdcEscrowStorageContract()": "c5dae48f"
				}
			},
			"storageLayout": {
				"storage": [
					{
						"astId": 24,
						"contract": "contracts/Founding Citizens NFT Sale.sol:FoundingNFTSale",
						"label": "_roles",
						"offset": 0,
						"slot": "0",
						"type": "t_mapping(t_bytes32,t_struct(RoleData)19_storage)"
					},
					{
						"astId": 743,
						"contract": "contracts/Founding Citizens NFT Sale.sol:FoundingNFTSale",
						"label": "ERC1155storageContract",
						"offset": 0,
						"slot": "1",
						"type": "t_contract(IMintStorage)676"
					},
					{
						"astId": 746,
						"contract": "contracts/Founding Citizens NFT Sale.sol:FoundingNFTSale",
						"label": "privilgedBuyerList",
						"offset": 0,
						"slot": "2",
						"type": "t_contract(IPrivilegedListStorage)707"
					},
					{
						"astId": 749,
						"contract": "contracts/Founding Citizens NFT Sale.sol:FoundingNFTSale",
						"label": "usdcEscrowStorageContract",
						"offset": 0,
						"slot": "3",
						"type": "t_contract(IUsdcStorage)738"
					},
					{
						"astId": 751,
						"contract": "contracts/Founding Citizens NFT Sale.sol:FoundingNFTSale",
						"label": "treasuryAddress",
						"offset": 0,
						"slot": "4",
						"type": "t_address"
					},
					{
						"astId": 764,
						"contract": "contracts/Founding Citizens NFT Sale.sol:FoundingNFTSale",
						"label": "startTime",
						"offset": 0,
						"slot": "5",
						"type": "t_uint256"
					},
					{
						"astId": 767,
						"contract": "contracts/Founding Citizens NFT Sale.sol:FoundingNFTSale",
						"label": "endTime",
						"offset": 0,
						"slot": "6",
						"type": "t_uint256"
					},
					{
						"astId": 777,
						"contract": "contracts/Founding Citizens NFT Sale.sol:FoundingNFTSale",
						"label": "startPrice",
						"offset": 0,
						"slot": "7",
						"type": "t_uint256"
					},
					{
						"astId": 782,
						"contract": "contracts/Founding Citizens NFT Sale.sol:FoundingNFTSale",
						"label": "EndPrice",
						"offset": 0,
						"slot": "8",
						"type": "t_uint256"
					},
					{
						"astId": 803,
						"contract": "contracts/Founding Citizens NFT Sale.sol:FoundingNFTSale",
						"label": "lastUpdate",
						"offset": 0,
						"slot": "9",
						"type": "t_struct(Update)794_storage"
					}
				],
				"types": {
					"t_address": {
						"encoding": "inplace",
						"label": "address",
						"numberOfBytes": "20"
					},
					"t_bool": {
						"encoding": "inplace",
						"label": "bool",
						"numberOfBytes": "1"
					},
					"t_bytes32": {
						"encoding": "inplace",
						"label": "bytes32",
						"numberOfBytes": "32"
					},
					"t_contract(IMintStorage)676": {
						"encoding": "inplace",
						"label": "contract IMintStorage",
						"numberOfBytes": "20"
					},
					"t_contract(IPrivilegedListStorage)707": {
						"encoding": "inplace",
						"label": "contract IPrivilegedListStorage",
						"numberOfBytes": "20"
					},
					"t_contract(IUsdcStorage)738": {
						"encoding": "inplace",
						"label": "contract IUsdcStorage",
						"numberOfBytes": "20"
					},
					"t_mapping(t_address,t_bool)": {
						"encoding": "mapping",
						"key": "t_address",
						"label": "mapping(address => bool)",
						"numberOfBytes": "32",
						"value": "t_bool"
					},
					"t_mapping(t_bytes32,t_struct(RoleData)19_storage)": {
						"encoding": "mapping",
						"key": "t_bytes32",
						"label": "mapping(bytes32 => struct AccessControl.RoleData)",
						"numberOfBytes": "32",
						"value": "t_struct(RoleData)19_storage"
					},
					"t_struct(RoleData)19_storage": {
						"encoding": "inplace",
						"label": "struct AccessControl.RoleData",
						"members": [
							{
								"astId": 16,
								"contract": "contracts/Founding Citizens NFT Sale.sol:FoundingNFTSale",
								"label": "members",
								"offset": 0,
								"slot": "0",
								"type": "t_mapping(t_address,t_bool)"
							},
							{
								"astId": 18,
								"contract": "contracts/Founding Citizens NFT Sale.sol:FoundingNFTSale",
								"label": "adminRole",
								"offset": 0,
								"slot": "1",
								"type": "t_bytes32"
							}
						],
						"numberOfBytes": "64"
					},
					"t_struct(Update)794_storage": {
						"encoding": "inplace",
						"label": "struct FoundingNFTSale.Update",
						"members": [
							{
								"astId": 789,
								"contract": "contracts/Founding Citizens NFT Sale.sol:FoundingNFTSale",
								"label": "price",
								"offset": 0,
								"slot": "0",
								"type": "t_uint256"
							},
							{
								"astId": 791,
								"contract": "contracts/Founding Citizens NFT Sale.sol:FoundingNFTSale",
								"label": "time",
								"offset": 0,
								"slot": "1",
								"type": "t_uint256"
							},
							{
								"astId": 793,
								"contract": "contracts/Founding Citizens NFT Sale.sol:FoundingNFTSale",
								"label": "saleIsLive",
								"offset": 0,
								"slot": "2",
								"type": "t_bool"
							}
						],
						"numberOfBytes": "96"
					},
					"t_uint256": {
						"encoding": "inplace",
						"label": "uint256",
						"numberOfBytes": "32"
					}
				}
			},
			"userdoc": {
				"kind": "user",
				"methods": {},
				"version": 1
			}
		}
	}
}