{
	"contracts/Founding Citizens NFT Sale.sol": {
		"FoundingNFTSale": {
			"abi": [
				{
					"inputs": [],
					"stateMutability": "nonpayable",
					"type": "constructor"
				},
				{
					"anonymous": false,
					"inputs": [
						{
							"indexed": true,
							"internalType": "address",
							"name": "previousOwner",
							"type": "address"
						},
						{
							"indexed": true,
							"internalType": "address",
							"name": "newOwner",
							"type": "address"
						}
					],
					"name": "OwnershipTransferred",
					"type": "event"
				},
				{
					"inputs": [
						{
							"internalType": "uint256",
							"name": "amount",
							"type": "uint256"
						}
					],
					"name": "buyNFT",
					"outputs": [],
					"stateMutability": "nonpayable",
					"type": "function"
				},
				{
					"inputs": [],
					"name": "lastUpdate",
					"outputs": [
						{
							"internalType": "uint256",
							"name": "price",
							"type": "uint256"
						},
						{
							"internalType": "uint256",
							"name": "time",
							"type": "uint256"
						},
						{
							"internalType": "bool",
							"name": "saleIsLive",
							"type": "bool"
						}
					],
					"stateMutability": "view",
					"type": "function"
				},
				{
					"inputs": [],
					"name": "owner",
					"outputs": [
						{
							"internalType": "address",
							"name": "",
							"type": "address"
						}
					],
					"stateMutability": "view",
					"type": "function"
				},
				{
					"inputs": [
						{
							"internalType": "uint256[]",
							"name": "ids",
							"type": "uint256[]"
						},
						{
							"internalType": "string[]",
							"name": "uris",
							"type": "string[]"
						}
					],
					"name": "preLoadURIs",
					"outputs": [],
					"stateMutability": "nonpayable",
					"type": "function"
				},
				{
					"inputs": [],
					"name": "renounceOwnership",
					"outputs": [],
					"stateMutability": "nonpayable",
					"type": "function"
				},
				{
					"inputs": [
						{
							"internalType": "uint256",
							"name": "unixTime",
							"type": "uint256"
						}
					],
					"name": "setSaleEnd",
					"outputs": [],
					"stateMutability": "nonpayable",
					"type": "function"
				},
				{
					"inputs": [
						{
							"internalType": "uint256",
							"name": "unixTime",
							"type": "uint256"
						}
					],
					"name": "setSaleStart",
					"outputs": [],
					"stateMutability": "nonpayable",
					"type": "function"
				},
				{
					"inputs": [
						{
							"internalType": "address",
							"name": "storageAddress",
							"type": "address"
						}
					],
					"name": "setStorageContractAddress",
					"outputs": [],
					"stateMutability": "nonpayable",
					"type": "function"
				},
				{
					"inputs": [],
					"name": "storageContract",
					"outputs": [
						{
							"internalType": "address",
							"name": "",
							"type": "address"
						}
					],
					"stateMutability": "view",
					"type": "function"
				},
				{
					"inputs": [
						{
							"internalType": "address",
							"name": "newOwner",
							"type": "address"
						}
					],
					"name": "transferOwnership",
					"outputs": [],
					"stateMutability": "nonpayable",
					"type": "function"
				},
				{
					"inputs": [],
					"name": "usdcToken",
					"outputs": [
						{
							"internalType": "contract ERC20",
							"name": "",
							"type": "address"
						}
					],
					"stateMutability": "view",
					"type": "function"
				}
			],
			"devdoc": {
				"kind": "dev",
				"methods": {
					"owner()": {
						"details": "Returns the address of the current owner."
					},
					"renounceOwnership()": {
						"details": "Leaves the contract without owner. It will not be possible to call `onlyOwner` functions anymore. Can only be called by the current owner. NOTE: Renouncing ownership will leave the contract without an owner, thereby removing any functionality that is only available to the owner."
					},
					"transferOwnership(address)": {
						"details": "Transfers ownership of the contract to a new account (`newOwner`). Can only be called by the current owner."
					}
				},
				"version": 1
			},
			"evm": {
				"assembly": "    /* \"contracts/Founding Citizens NFT Sale.sol\":1958:3787  contract FoundingNFTSale is Ownable {\r... */\n  mstore(0x40, 0x80)\n    /* \"contracts/Founding Citizens NFT Sale.sol\":2089:2099  1893484800 */\n  0x70dc4900\n    /* \"contracts/Founding Citizens NFT Sale.sol\":2072:2099  uint saleStart = 1893484800 */\n  0x03\n  sstore\n    /* \"contracts/Founding Citizens NFT Sale.sol\":2223:2225  10 */\n  0x0a\n    /* \"contracts/Founding Citizens NFT Sale.sol\":2205:2225  uint startPrice = 10 */\n  0x05\n  sstore\n    /* \"contracts/Founding Citizens NFT Sale.sol\":2281:2282  1 */\n  0x01\n    /* \"contracts/Founding Citizens NFT Sale.sol\":2265:2282  uint EndPrice = 1 */\n  0x06\n  sstore\n    /* \"contracts/Founding Citizens NFT Sale.sol\":2413:2450  Update(10000, block.timestamp, false) */\n  mload(0x40)\n  dup1\n  0x60\n  add\n  0x40\n  mstore\n  dup1\n    /* \"contracts/Founding Citizens NFT Sale.sol\":2420:2425  10000 */\n  0x2710\n    /* \"contracts/Founding Citizens NFT Sale.sol\":2413:2450  Update(10000, block.timestamp, false) */\n  dup2\n  mstore\n  0x20\n  add\n    /* \"contracts/Founding Citizens NFT Sale.sol\":2427:2442  block.timestamp */\n  timestamp\n    /* \"contracts/Founding Citizens NFT Sale.sol\":2413:2450  Update(10000, block.timestamp, false) */\n  dup2\n  mstore\n  0x20\n  add\n    /* \"contracts/Founding Citizens NFT Sale.sol\":2444:2449  false */\n  0x00\n    /* \"contracts/Founding Citizens NFT Sale.sol\":2413:2450  Update(10000, block.timestamp, false) */\n  iszero\n  iszero\n  dup2\n  mstore\n  pop\n    /* \"contracts/Founding Citizens NFT Sale.sol\":2386:2450  Update public lastUpdate = Update(10000, block.timestamp, false) */\n  0x07\n  0x00\n  dup3\n  add\n  mload\n  dup2\n  0x00\n  add\n  sstore\n  0x20\n  dup3\n  add\n  mload\n  dup2\n  0x01\n  add\n  sstore\n  0x40\n  dup3\n  add\n  mload\n  dup2\n  0x02\n  add\n  exp(0x0100, 0x00)\n  dup2\n  sload\n  dup2\n  0xff\n  mul\n  not\n  and\n  swap1\n  dup4\n  iszero\n  iszero\n  mul\n  or\n  swap1\n  sstore\n  pop\n  pop\n  pop\n    /* \"contracts/Founding Citizens NFT Sale.sol\":2675:2769  constructor() {\r... */\n  callvalue\n  dup1\n  iszero\n  tag_1\n  jumpi\n  0x00\n  dup1\n  revert\ntag_1:\n  pop\n    /* \"@openzeppelin/contracts@4.4.2/access/Ownable.sol\":921:953  _transferOwnership(_msgSender()) */\n  tag_5\n    /* \"@openzeppelin/contracts@4.4.2/access/Ownable.sol\":940:952  _msgSender() */\n  tag_6\n    /* \"@openzeppelin/contracts@4.4.2/access/Ownable.sol\":940:950  _msgSender */\n  shl(0x20, tag_7)\n    /* \"@openzeppelin/contracts@4.4.2/access/Ownable.sol\":940:952  _msgSender() */\n  0x20\n  shr\n  jump\t// in\ntag_6:\n    /* \"@openzeppelin/contracts@4.4.2/access/Ownable.sol\":921:939  _transferOwnership */\n  shl(0x20, tag_8)\n    /* \"@openzeppelin/contracts@4.4.2/access/Ownable.sol\":921:953  _transferOwnership(_msgSender()) */\n  0x20\n  shr\n  jump\t// in\ntag_5:\n    /* \"contracts/Founding Citizens NFT Sale.sol\":2718:2760  0xe11A86849d99F524cAC3E7A0Ec1241828e332C62 */\n  0xe11a86849d99f524cac3e7a0ec1241828e332c62\n    /* \"contracts/Founding Citizens NFT Sale.sol\":2700:2709  usdcToken */\n  0x02\n  0x00\n    /* \"contracts/Founding Citizens NFT Sale.sol\":2700:2761  usdcToken = ERC20(0xe11A86849d99F524cAC3E7A0Ec1241828e332C62) */\n  0x0100\n  exp\n  dup2\n  sload\n  dup2\n  0xffffffffffffffffffffffffffffffffffffffff\n  mul\n  not\n  and\n  swap1\n  dup4\n  0xffffffffffffffffffffffffffffffffffffffff\n  and\n  mul\n  or\n  swap1\n  sstore\n  pop\n    /* \"contracts/Founding Citizens NFT Sale.sol\":1958:3787  contract FoundingNFTSale is Ownable {\r... */\n  jump(tag_10)\n    /* \"@openzeppelin/contracts@4.4.2/utils/Context.sol\":640:736  function _msgSender() internal view virtual returns (address) {... */\ntag_7:\n    /* \"@openzeppelin/contracts@4.4.2/utils/Context.sol\":693:700  address */\n  0x00\n    /* \"@openzeppelin/contracts@4.4.2/utils/Context.sol\":719:729  msg.sender */\n  caller\n    /* \"@openzeppelin/contracts@4.4.2/utils/Context.sol\":712:729  return msg.sender */\n  swap1\n  pop\n    /* \"@openzeppelin/contracts@4.4.2/utils/Context.sol\":640:736  function _msgSender() internal view virtual returns (address) {... */\n  swap1\n  jump\t// out\n    /* \"@openzeppelin/contracts@4.4.2/access/Ownable.sol\":2270:2457  function _transferOwnership(address newOwner) internal virtual {... */\ntag_8:\n    /* \"@openzeppelin/contracts@4.4.2/access/Ownable.sol\":2343:2359  address oldOwner */\n  0x00\n    /* \"@openzeppelin/contracts@4.4.2/access/Ownable.sol\":2362:2368  _owner */\n  dup1\n  0x00\n  swap1\n  sload\n  swap1\n  0x0100\n  exp\n  swap1\n  div\n  0xffffffffffffffffffffffffffffffffffffffff\n  and\n    /* \"@openzeppelin/contracts@4.4.2/access/Ownable.sol\":2343:2368  address oldOwner = _owner */\n  swap1\n  pop\n    /* \"@openzeppelin/contracts@4.4.2/access/Ownable.sol\":2387:2395  newOwner */\n  dup2\n    /* \"@openzeppelin/contracts@4.4.2/access/Ownable.sol\":2378:2384  _owner */\n  0x00\n  dup1\n    /* \"@openzeppelin/contracts@4.4.2/access/Ownable.sol\":2378:2395  _owner = newOwner */\n  0x0100\n  exp\n  dup2\n  sload\n  dup2\n  0xffffffffffffffffffffffffffffffffffffffff\n  mul\n  not\n  and\n  swap1\n  dup4\n  0xffffffffffffffffffffffffffffffffffffffff\n  and\n  mul\n  or\n  swap1\n  sstore\n  pop\n    /* \"@openzeppelin/contracts@4.4.2/access/Ownable.sol\":2441:2449  newOwner */\n  dup2\n    /* \"@openzeppelin/contracts@4.4.2/access/Ownable.sol\":2410:2450  OwnershipTransferred(oldOwner, newOwner) */\n  0xffffffffffffffffffffffffffffffffffffffff\n  and\n    /* \"@openzeppelin/contracts@4.4.2/access/Ownable.sol\":2431:2439  oldOwner */\n  dup2\n    /* \"@openzeppelin/contracts@4.4.2/access/Ownable.sol\":2410:2450  OwnershipTransferred(oldOwner, newOwner) */\n  0xffffffffffffffffffffffffffffffffffffffff\n  and\n  0x8be0079c531659141344cd1fd0a4f28419497f9722a3daafe3b4186f6b6457e0\n  mload(0x40)\n  mload(0x40)\n  dup1\n  swap2\n  sub\n  swap1\n  log3\n    /* \"@openzeppelin/contracts@4.4.2/access/Ownable.sol\":2270:2457  function _transferOwnership(address newOwner) internal virtual {... */\n  pop\n  pop\n  jump\t// out\n    /* \"contracts/Founding Citizens NFT Sale.sol\":1958:3787  contract FoundingNFTSale is Ownable {\r... */\ntag_10:\n  dataSize(sub_0)\n  dup1\n  dataOffset(sub_0)\n  0x00\n  codecopy\n  0x00\n  return\nstop\n\nsub_0: assembly {\n        /* \"contracts/Founding Citizens NFT Sale.sol\":1958:3787  contract FoundingNFTSale is Ownable {\r... */\n      mstore(0x40, 0x80)\n      callvalue\n      dup1\n      iszero\n      tag_1\n      jumpi\n      0x00\n      dup1\n      revert\n    tag_1:\n      pop\n      jumpi(tag_2, lt(calldatasize, 0x04))\n      shr(0xe0, calldataload(0x00))\n      dup1\n      0x51f7598c\n      gt\n      tag_14\n      jumpi\n      dup1\n      0x51f7598c\n      eq\n      tag_8\n      jumpi\n      dup1\n      0x715018a6\n      eq\n      tag_9\n      jumpi\n      dup1\n      0x8da5cb5b\n      eq\n      tag_10\n      jumpi\n      dup1\n      0xc0463711\n      eq\n      tag_11\n      jumpi\n      dup1\n      0xf121da92\n      eq\n      tag_12\n      jumpi\n      dup1\n      0xf2fde38b\n      eq\n      tag_13\n      jumpi\n      jump(tag_2)\n    tag_14:\n      dup1\n      0x11ce0267\n      eq\n      tag_3\n      jumpi\n      dup1\n      0x11eac855\n      eq\n      tag_4\n      jumpi\n      dup1\n      0x1515fa6e\n      eq\n      tag_5\n      jumpi\n      dup1\n      0x2f181f54\n      eq\n      tag_6\n      jumpi\n      dup1\n      0x51ed8288\n      eq\n      tag_7\n      jumpi\n    tag_2:\n      0x00\n      dup1\n      revert\n        /* \"contracts/Founding Citizens NFT Sale.sol\":2001:2031  address public storageContract */\n    tag_3:\n      tag_15\n      tag_16\n      jump\t// in\n    tag_15:\n      mload(0x40)\n      tag_17\n      swap2\n      swap1\n      tag_18\n      jump\t// in\n    tag_17:\n      mload(0x40)\n      dup1\n      swap2\n      sub\n      swap1\n      return\n        /* \"contracts/Founding Citizens NFT Sale.sol\":2040:2062  ERC20 public usdcToken */\n    tag_4:\n      tag_19\n      tag_20\n      jump\t// in\n    tag_19:\n      mload(0x40)\n      tag_21\n      swap2\n      swap1\n      tag_22\n      jump\t// in\n    tag_21:\n      mload(0x40)\n      dup1\n      swap2\n      sub\n      swap1\n      return\n        /* \"contracts/Founding Citizens NFT Sale.sol\":3566:3655  function setSaleEnd(uint unixTime) public onlyOwner {\r... */\n    tag_5:\n      tag_23\n      0x04\n      dup1\n      calldatasize\n      sub\n      dup2\n      add\n      swap1\n      tag_24\n      swap2\n      swap1\n      tag_25\n      jump\t// in\n    tag_24:\n      tag_26\n      jump\t// in\n    tag_23:\n      stop\n        /* \"contracts/Founding Citizens NFT Sale.sol\":3465:3558  function setSaleStart(uint unixTime) public onlyOwner {\r... */\n    tag_6:\n      tag_27\n      0x04\n      dup1\n      calldatasize\n      sub\n      dup2\n      add\n      swap1\n      tag_28\n      swap2\n      swap1\n      tag_25\n      jump\t// in\n    tag_28:\n      tag_29\n      jump\t// in\n    tag_27:\n      stop\n        /* \"contracts/Founding Citizens NFT Sale.sol\":3663:3784  function buyNFT(uint amount) public {\r... */\n    tag_7:\n      tag_30\n      0x04\n      dup1\n      calldatasize\n      sub\n      dup2\n      add\n      swap1\n      tag_31\n      swap2\n      swap1\n      tag_25\n      jump\t// in\n    tag_31:\n      tag_32\n      jump\t// in\n    tag_30:\n      stop\n        /* \"contracts/Founding Citizens NFT Sale.sol\":3040:3167  function setStorageContractAddress(address storageAddress) public onlyOwner {\r... */\n    tag_8:\n      tag_33\n      0x04\n      dup1\n      calldatasize\n      sub\n      dup2\n      add\n      swap1\n      tag_34\n      swap2\n      swap1\n      tag_35\n      jump\t// in\n    tag_34:\n      tag_36\n      jump\t// in\n    tag_33:\n      stop\n        /* \"@openzeppelin/contracts@4.4.2/access/Ownable.sol\":1668:1769  function renounceOwnership() public virtual onlyOwner {... */\n    tag_9:\n      tag_37\n      tag_38\n      jump\t// in\n    tag_37:\n      stop\n        /* \"@openzeppelin/contracts@4.4.2/access/Ownable.sol\":1036:1121  function owner() public view virtual returns (address) {... */\n    tag_10:\n      tag_39\n      tag_40\n      jump\t// in\n    tag_39:\n      mload(0x40)\n      tag_41\n      swap2\n      swap1\n      tag_18\n      jump\t// in\n    tag_41:\n      mload(0x40)\n      dup1\n      swap2\n      sub\n      swap1\n      return\n        /* \"contracts/Founding Citizens NFT Sale.sol\":2386:2450  Update public lastUpdate = Update(10000, block.timestamp, false) */\n    tag_11:\n      tag_42\n      tag_43\n      jump\t// in\n    tag_42:\n      mload(0x40)\n      tag_44\n      swap4\n      swap3\n      swap2\n      swap1\n      tag_45\n      jump\t// in\n    tag_44:\n      mload(0x40)\n      dup1\n      swap2\n      sub\n      swap1\n      return\n        /* \"contracts/Founding Citizens NFT Sale.sol\":3307:3457  function preLoadURIs(uint[] memory ids, string[] memory uris) public onlyOwner {\r... */\n    tag_12:\n      tag_46\n      0x04\n      dup1\n      calldatasize\n      sub\n      dup2\n      add\n      swap1\n      tag_47\n      swap2\n      swap1\n      tag_48\n      jump\t// in\n    tag_47:\n      tag_49\n      jump\t// in\n    tag_46:\n      stop\n        /* \"@openzeppelin/contracts@4.4.2/access/Ownable.sol\":1918:2116  function transferOwnership(address newOwner) public virtual onlyOwner {... */\n    tag_13:\n      tag_50\n      0x04\n      dup1\n      calldatasize\n      sub\n      dup2\n      add\n      swap1\n      tag_51\n      swap2\n      swap1\n      tag_35\n      jump\t// in\n    tag_51:\n      tag_52\n      jump\t// in\n    tag_50:\n      stop\n        /* \"contracts/Founding Citizens NFT Sale.sol\":2001:2031  address public storageContract */\n    tag_16:\n      0x01\n      0x00\n      swap1\n      sload\n      swap1\n      0x0100\n      exp\n      swap1\n      div\n      0xffffffffffffffffffffffffffffffffffffffff\n      and\n      dup2\n      jump\t// out\n        /* \"contracts/Founding Citizens NFT Sale.sol\":2040:2062  ERC20 public usdcToken */\n    tag_20:\n      0x02\n      0x00\n      swap1\n      sload\n      swap1\n      0x0100\n      exp\n      swap1\n      div\n      0xffffffffffffffffffffffffffffffffffffffff\n      and\n      dup2\n      jump\t// out\n        /* \"contracts/Founding Citizens NFT Sale.sol\":3566:3655  function setSaleEnd(uint unixTime) public onlyOwner {\r... */\n    tag_26:\n        /* \"@openzeppelin/contracts@4.4.2/access/Ownable.sol\":1259:1271  _msgSender() */\n      tag_54\n        /* \"@openzeppelin/contracts@4.4.2/access/Ownable.sol\":1259:1269  _msgSender */\n      tag_55\n        /* \"@openzeppelin/contracts@4.4.2/access/Ownable.sol\":1259:1271  _msgSender() */\n      jump\t// in\n    tag_54:\n        /* \"@openzeppelin/contracts@4.4.2/access/Ownable.sol\":1248:1271  owner() == _msgSender() */\n      0xffffffffffffffffffffffffffffffffffffffff\n      and\n        /* \"@openzeppelin/contracts@4.4.2/access/Ownable.sol\":1248:1255  owner() */\n      tag_56\n        /* \"@openzeppelin/contracts@4.4.2/access/Ownable.sol\":1248:1253  owner */\n      tag_40\n        /* \"@openzeppelin/contracts@4.4.2/access/Ownable.sol\":1248:1255  owner() */\n      jump\t// in\n    tag_56:\n        /* \"@openzeppelin/contracts@4.4.2/access/Ownable.sol\":1248:1271  owner() == _msgSender() */\n      0xffffffffffffffffffffffffffffffffffffffff\n      and\n      eq\n        /* \"@openzeppelin/contracts@4.4.2/access/Ownable.sol\":1240:1308  require(owner() == _msgSender(), \"Ownable: caller is not the owner\") */\n      tag_57\n      jumpi\n      mload(0x40)\n      0x08c379a000000000000000000000000000000000000000000000000000000000\n      dup2\n      mstore\n      0x04\n      add\n      tag_58\n      swap1\n      tag_59\n      jump\t// in\n    tag_58:\n      mload(0x40)\n      dup1\n      swap2\n      sub\n      swap1\n      revert\n    tag_57:\n        /* \"contracts/Founding Citizens NFT Sale.sol\":3639:3647  unixTime */\n      dup1\n        /* \"contracts/Founding Citizens NFT Sale.sol\":3629:3636  saleEnd */\n      0x04\n        /* \"contracts/Founding Citizens NFT Sale.sol\":3629:3647  saleEnd = unixTime */\n      dup2\n      swap1\n      sstore\n      pop\n        /* \"contracts/Founding Citizens NFT Sale.sol\":3566:3655  function setSaleEnd(uint unixTime) public onlyOwner {\r... */\n      pop\n      jump\t// out\n        /* \"contracts/Founding Citizens NFT Sale.sol\":3465:3558  function setSaleStart(uint unixTime) public onlyOwner {\r... */\n    tag_29:\n        /* \"@openzeppelin/contracts@4.4.2/access/Ownable.sol\":1259:1271  _msgSender() */\n      tag_62\n        /* \"@openzeppelin/contracts@4.4.2/access/Ownable.sol\":1259:1269  _msgSender */\n      tag_55\n        /* \"@openzeppelin/contracts@4.4.2/access/Ownable.sol\":1259:1271  _msgSender() */\n      jump\t// in\n    tag_62:\n        /* \"@openzeppelin/contracts@4.4.2/access/Ownable.sol\":1248:1271  owner() == _msgSender() */\n      0xffffffffffffffffffffffffffffffffffffffff\n      and\n        /* \"@openzeppelin/contracts@4.4.2/access/Ownable.sol\":1248:1255  owner() */\n      tag_63\n        /* \"@openzeppelin/contracts@4.4.2/access/Ownable.sol\":1248:1253  owner */\n      tag_40\n        /* \"@openzeppelin/contracts@4.4.2/access/Ownable.sol\":1248:1255  owner() */\n      jump\t// in\n    tag_63:\n        /* \"@openzeppelin/contracts@4.4.2/access/Ownable.sol\":1248:1271  owner() == _msgSender() */\n      0xffffffffffffffffffffffffffffffffffffffff\n      and\n      eq\n        /* \"@openzeppelin/contracts@4.4.2/access/Ownable.sol\":1240:1308  require(owner() == _msgSender(), \"Ownable: caller is not the owner\") */\n      tag_64\n      jumpi\n      mload(0x40)\n      0x08c379a000000000000000000000000000000000000000000000000000000000\n      dup2\n      mstore\n      0x04\n      add\n      tag_65\n      swap1\n      tag_59\n      jump\t// in\n    tag_65:\n      mload(0x40)\n      dup1\n      swap2\n      sub\n      swap1\n      revert\n    tag_64:\n        /* \"contracts/Founding Citizens NFT Sale.sol\":3542:3550  unixTime */\n      dup1\n        /* \"contracts/Founding Citizens NFT Sale.sol\":3530:3539  saleStart */\n      0x03\n        /* \"contracts/Founding Citizens NFT Sale.sol\":3530:3550  saleStart = unixTime */\n      dup2\n      swap1\n      sstore\n      pop\n        /* \"contracts/Founding Citizens NFT Sale.sol\":3465:3558  function setSaleStart(uint unixTime) public onlyOwner {\r... */\n      pop\n      jump\t// out\n        /* \"contracts/Founding Citizens NFT Sale.sol\":3663:3784  function buyNFT(uint amount) public {\r... */\n    tag_32:\n        /* \"contracts/Founding Citizens NFT Sale.sol\":3727:3728  0 */\n      0x00\n        /* \"contracts/Founding Citizens NFT Sale.sol\":3718:3724  amount */\n      dup2\n        /* \"contracts/Founding Citizens NFT Sale.sol\":3718:3728  amount > 0 */\n      gt\n        /* \"contracts/Founding Citizens NFT Sale.sol\":3710:3776  require(amount > 0, \"amount transferred must be a positive value\") */\n      tag_68\n      jumpi\n      mload(0x40)\n      0x08c379a000000000000000000000000000000000000000000000000000000000\n      dup2\n      mstore\n      0x04\n      add\n      tag_69\n      swap1\n      tag_70\n      jump\t// in\n    tag_69:\n      mload(0x40)\n      dup1\n      swap2\n      sub\n      swap1\n      revert\n    tag_68:\n        /* \"contracts/Founding Citizens NFT Sale.sol\":3663:3784  function buyNFT(uint amount) public {\r... */\n      pop\n      jump\t// out\n        /* \"contracts/Founding Citizens NFT Sale.sol\":3040:3167  function setStorageContractAddress(address storageAddress) public onlyOwner {\r... */\n    tag_36:\n        /* \"@openzeppelin/contracts@4.4.2/access/Ownable.sol\":1259:1271  _msgSender() */\n      tag_72\n        /* \"@openzeppelin/contracts@4.4.2/access/Ownable.sol\":1259:1269  _msgSender */\n      tag_55\n        /* \"@openzeppelin/contracts@4.4.2/access/Ownable.sol\":1259:1271  _msgSender() */\n      jump\t// in\n    tag_72:\n        /* \"@openzeppelin/contracts@4.4.2/access/Ownable.sol\":1248:1271  owner() == _msgSender() */\n      0xffffffffffffffffffffffffffffffffffffffff\n      and\n        /* \"@openzeppelin/contracts@4.4.2/access/Ownable.sol\":1248:1255  owner() */\n      tag_73\n        /* \"@openzeppelin/contracts@4.4.2/access/Ownable.sol\":1248:1253  owner */\n      tag_40\n        /* \"@openzeppelin/contracts@4.4.2/access/Ownable.sol\":1248:1255  owner() */\n      jump\t// in\n    tag_73:\n        /* \"@openzeppelin/contracts@4.4.2/access/Ownable.sol\":1248:1271  owner() == _msgSender() */\n      0xffffffffffffffffffffffffffffffffffffffff\n      and\n      eq\n        /* \"@openzeppelin/contracts@4.4.2/access/Ownable.sol\":1240:1308  require(owner() == _msgSender(), \"Ownable: caller is not the owner\") */\n      tag_74\n      jumpi\n      mload(0x40)\n      0x08c379a000000000000000000000000000000000000000000000000000000000\n      dup2\n      mstore\n      0x04\n      add\n      tag_75\n      swap1\n      tag_59\n      jump\t// in\n    tag_75:\n      mload(0x40)\n      dup1\n      swap2\n      sub\n      swap1\n      revert\n    tag_74:\n        /* \"contracts/Founding Citizens NFT Sale.sol\":3145:3159  storageAddress */\n      dup1\n        /* \"contracts/Founding Citizens NFT Sale.sol\":3127:3142  storageContract */\n      0x01\n      0x00\n        /* \"contracts/Founding Citizens NFT Sale.sol\":3127:3159  storageContract = storageAddress */\n      0x0100\n      exp\n      dup2\n      sload\n      dup2\n      0xffffffffffffffffffffffffffffffffffffffff\n      mul\n      not\n      and\n      swap1\n      dup4\n      0xffffffffffffffffffffffffffffffffffffffff\n      and\n      mul\n      or\n      swap1\n      sstore\n      pop\n        /* \"contracts/Founding Citizens NFT Sale.sol\":3040:3167  function setStorageContractAddress(address storageAddress) public onlyOwner {\r... */\n      pop\n      jump\t// out\n        /* \"@openzeppelin/contracts@4.4.2/access/Ownable.sol\":1668:1769  function renounceOwnership() public virtual onlyOwner {... */\n    tag_38:\n        /* \"@openzeppelin/contracts@4.4.2/access/Ownable.sol\":1259:1271  _msgSender() */\n      tag_78\n        /* \"@openzeppelin/contracts@4.4.2/access/Ownable.sol\":1259:1269  _msgSender */\n      tag_55\n        /* \"@openzeppelin/contracts@4.4.2/access/Ownable.sol\":1259:1271  _msgSender() */\n      jump\t// in\n    tag_78:\n        /* \"@openzeppelin/contracts@4.4.2/access/Ownable.sol\":1248:1271  owner() == _msgSender() */\n      0xffffffffffffffffffffffffffffffffffffffff\n      and\n        /* \"@openzeppelin/contracts@4.4.2/access/Ownable.sol\":1248:1255  owner() */\n      tag_79\n        /* \"@openzeppelin/contracts@4.4.2/access/Ownable.sol\":1248:1253  owner */\n      tag_40\n        /* \"@openzeppelin/contracts@4.4.2/access/Ownable.sol\":1248:1255  owner() */\n      jump\t// in\n    tag_79:\n        /* \"@openzeppelin/contracts@4.4.2/access/Ownable.sol\":1248:1271  owner() == _msgSender() */\n      0xffffffffffffffffffffffffffffffffffffffff\n      and\n      eq\n        /* \"@openzeppelin/contracts@4.4.2/access/Ownable.sol\":1240:1308  require(owner() == _msgSender(), \"Ownable: caller is not the owner\") */\n      tag_80\n      jumpi\n      mload(0x40)\n      0x08c379a000000000000000000000000000000000000000000000000000000000\n      dup2\n      mstore\n      0x04\n      add\n      tag_81\n      swap1\n      tag_59\n      jump\t// in\n    tag_81:\n      mload(0x40)\n      dup1\n      swap2\n      sub\n      swap1\n      revert\n    tag_80:\n        /* \"@openzeppelin/contracts@4.4.2/access/Ownable.sol\":1732:1762  _transferOwnership(address(0)) */\n      tag_83\n        /* \"@openzeppelin/contracts@4.4.2/access/Ownable.sol\":1759:1760  0 */\n      0x00\n        /* \"@openzeppelin/contracts@4.4.2/access/Ownable.sol\":1732:1750  _transferOwnership */\n      tag_84\n        /* \"@openzeppelin/contracts@4.4.2/access/Ownable.sol\":1732:1762  _transferOwnership(address(0)) */\n      jump\t// in\n    tag_83:\n        /* \"@openzeppelin/contracts@4.4.2/access/Ownable.sol\":1668:1769  function renounceOwnership() public virtual onlyOwner {... */\n      jump\t// out\n        /* \"@openzeppelin/contracts@4.4.2/access/Ownable.sol\":1036:1121  function owner() public view virtual returns (address) {... */\n    tag_40:\n        /* \"@openzeppelin/contracts@4.4.2/access/Ownable.sol\":1082:1089  address */\n      0x00\n        /* \"@openzeppelin/contracts@4.4.2/access/Ownable.sol\":1108:1114  _owner */\n      dup1\n      0x00\n      swap1\n      sload\n      swap1\n      0x0100\n      exp\n      swap1\n      div\n      0xffffffffffffffffffffffffffffffffffffffff\n      and\n        /* \"@openzeppelin/contracts@4.4.2/access/Ownable.sol\":1101:1114  return _owner */\n      swap1\n      pop\n        /* \"@openzeppelin/contracts@4.4.2/access/Ownable.sol\":1036:1121  function owner() public view virtual returns (address) {... */\n      swap1\n      jump\t// out\n        /* \"contracts/Founding Citizens NFT Sale.sol\":2386:2450  Update public lastUpdate = Update(10000, block.timestamp, false) */\n    tag_43:\n      0x07\n      dup1\n      0x00\n      add\n      sload\n      swap1\n      dup1\n      0x01\n      add\n      sload\n      swap1\n      dup1\n      0x02\n      add\n      0x00\n      swap1\n      sload\n      swap1\n      0x0100\n      exp\n      swap1\n      div\n      0xff\n      and\n      swap1\n      pop\n      dup4\n      jump\t// out\n        /* \"contracts/Founding Citizens NFT Sale.sol\":3307:3457  function preLoadURIs(uint[] memory ids, string[] memory uris) public onlyOwner {\r... */\n    tag_49:\n        /* \"@openzeppelin/contracts@4.4.2/access/Ownable.sol\":1259:1271  _msgSender() */\n      tag_87\n        /* \"@openzeppelin/contracts@4.4.2/access/Ownable.sol\":1259:1269  _msgSender */\n      tag_55\n        /* \"@openzeppelin/contracts@4.4.2/access/Ownable.sol\":1259:1271  _msgSender() */\n      jump\t// in\n    tag_87:\n        /* \"@openzeppelin/contracts@4.4.2/access/Ownable.sol\":1248:1271  owner() == _msgSender() */\n      0xffffffffffffffffffffffffffffffffffffffff\n      and\n        /* \"@openzeppelin/contracts@4.4.2/access/Ownable.sol\":1248:1255  owner() */\n      tag_88\n        /* \"@openzeppelin/contracts@4.4.2/access/Ownable.sol\":1248:1253  owner */\n      tag_40\n        /* \"@openzeppelin/contracts@4.4.2/access/Ownable.sol\":1248:1255  owner() */\n      jump\t// in\n    tag_88:\n        /* \"@openzeppelin/contracts@4.4.2/access/Ownable.sol\":1248:1271  owner() == _msgSender() */\n      0xffffffffffffffffffffffffffffffffffffffff\n      and\n      eq\n        /* \"@openzeppelin/contracts@4.4.2/access/Ownable.sol\":1240:1308  require(owner() == _msgSender(), \"Ownable: caller is not the owner\") */\n      tag_89\n      jumpi\n      mload(0x40)\n      0x08c379a000000000000000000000000000000000000000000000000000000000\n      dup2\n      mstore\n      0x04\n      add\n      tag_90\n      swap1\n      tag_59\n      jump\t// in\n    tag_90:\n      mload(0x40)\n      dup1\n      swap2\n      sub\n      swap1\n      revert\n    tag_89:\n        /* \"contracts/Founding Citizens NFT Sale.sol\":3410:3425  storageContract */\n      0x01\n      0x00\n      swap1\n      sload\n      swap1\n      0x0100\n      exp\n      swap1\n      div\n      0xffffffffffffffffffffffffffffffffffffffff\n      and\n        /* \"contracts/Founding Citizens NFT Sale.sol\":3397:3438  IMintStorage(storageContract).preLoadURIs */\n      0xffffffffffffffffffffffffffffffffffffffff\n      and\n      0xf121da92\n        /* \"contracts/Founding Citizens NFT Sale.sol\":3439:3442  ids */\n      dup4\n        /* \"contracts/Founding Citizens NFT Sale.sol\":3444:3448  uris */\n      dup4\n        /* \"contracts/Founding Citizens NFT Sale.sol\":3397:3449  IMintStorage(storageContract).preLoadURIs(ids, uris) */\n      mload(0x40)\n      dup4\n      0xffffffff\n      and\n      0xe0\n      shl\n      dup2\n      mstore\n      0x04\n      add\n      tag_92\n      swap3\n      swap2\n      swap1\n      tag_93\n      jump\t// in\n    tag_92:\n      0x00\n      mload(0x40)\n      dup1\n      dup4\n      sub\n      dup2\n      0x00\n      dup8\n      dup1\n      extcodesize\n      iszero\n      dup1\n      iszero\n      tag_94\n      jumpi\n      0x00\n      dup1\n      revert\n    tag_94:\n      pop\n      gas\n      call\n      iszero\n      dup1\n      iszero\n      tag_96\n      jumpi\n      returndatasize\n      0x00\n      dup1\n      returndatacopy\n      revert(0x00, returndatasize)\n    tag_96:\n      pop\n      pop\n      pop\n      pop\n        /* \"contracts/Founding Citizens NFT Sale.sol\":3307:3457  function preLoadURIs(uint[] memory ids, string[] memory uris) public onlyOwner {\r... */\n      pop\n      pop\n      jump\t// out\n        /* \"@openzeppelin/contracts@4.4.2/access/Ownable.sol\":1918:2116  function transferOwnership(address newOwner) public virtual onlyOwner {... */\n    tag_52:\n        /* \"@openzeppelin/contracts@4.4.2/access/Ownable.sol\":1259:1271  _msgSender() */\n      tag_98\n        /* \"@openzeppelin/contracts@4.4.2/access/Ownable.sol\":1259:1269  _msgSender */\n      tag_55\n        /* \"@openzeppelin/contracts@4.4.2/access/Ownable.sol\":1259:1271  _msgSender() */\n      jump\t// in\n    tag_98:\n        /* \"@openzeppelin/contracts@4.4.2/access/Ownable.sol\":1248:1271  owner() == _msgSender() */\n      0xffffffffffffffffffffffffffffffffffffffff\n      and\n        /* \"@openzeppelin/contracts@4.4.2/access/Ownable.sol\":1248:1255  owner() */\n      tag_99\n        /* \"@openzeppelin/contracts@4.4.2/access/Ownable.sol\":1248:1253  owner */\n      tag_40\n        /* \"@openzeppelin/contracts@4.4.2/access/Ownable.sol\":1248:1255  owner() */\n      jump\t// in\n    tag_99:\n        /* \"@openzeppelin/contracts@4.4.2/access/Ownable.sol\":1248:1271  owner() == _msgSender() */\n      0xffffffffffffffffffffffffffffffffffffffff\n      and\n      eq\n        /* \"@openzeppelin/contracts@4.4.2/access/Ownable.sol\":1240:1308  require(owner() == _msgSender(), \"Ownable: caller is not the owner\") */\n      tag_100\n      jumpi\n      mload(0x40)\n      0x08c379a000000000000000000000000000000000000000000000000000000000\n      dup2\n      mstore\n      0x04\n      add\n      tag_101\n      swap1\n      tag_59\n      jump\t// in\n    tag_101:\n      mload(0x40)\n      dup1\n      swap2\n      sub\n      swap1\n      revert\n    tag_100:\n        /* \"@openzeppelin/contracts@4.4.2/access/Ownable.sol\":2026:2027  0 */\n      0x00\n        /* \"@openzeppelin/contracts@4.4.2/access/Ownable.sol\":2006:2028  newOwner != address(0) */\n      0xffffffffffffffffffffffffffffffffffffffff\n      and\n        /* \"@openzeppelin/contracts@4.4.2/access/Ownable.sol\":2006:2014  newOwner */\n      dup2\n        /* \"@openzeppelin/contracts@4.4.2/access/Ownable.sol\":2006:2028  newOwner != address(0) */\n      0xffffffffffffffffffffffffffffffffffffffff\n      and\n      eq\n      iszero\n        /* \"@openzeppelin/contracts@4.4.2/access/Ownable.sol\":1998:2071  require(newOwner != address(0), \"Ownable: new owner is the zero address\") */\n      tag_103\n      jumpi\n      mload(0x40)\n      0x08c379a000000000000000000000000000000000000000000000000000000000\n      dup2\n      mstore\n      0x04\n      add\n      tag_104\n      swap1\n      tag_105\n      jump\t// in\n    tag_104:\n      mload(0x40)\n      dup1\n      swap2\n      sub\n      swap1\n      revert\n    tag_103:\n        /* \"@openzeppelin/contracts@4.4.2/access/Ownable.sol\":2081:2109  _transferOwnership(newOwner) */\n      tag_106\n        /* \"@openzeppelin/contracts@4.4.2/access/Ownable.sol\":2100:2108  newOwner */\n      dup2\n        /* \"@openzeppelin/contracts@4.4.2/access/Ownable.sol\":2081:2099  _transferOwnership */\n      tag_84\n        /* \"@openzeppelin/contracts@4.4.2/access/Ownable.sol\":2081:2109  _transferOwnership(newOwner) */\n      jump\t// in\n    tag_106:\n        /* \"@openzeppelin/contracts@4.4.2/access/Ownable.sol\":1918:2116  function transferOwnership(address newOwner) public virtual onlyOwner {... */\n      pop\n      jump\t// out\n        /* \"@openzeppelin/contracts@4.4.2/utils/Context.sol\":640:736  function _msgSender() internal view virtual returns (address) {... */\n    tag_55:\n        /* \"@openzeppelin/contracts@4.4.2/utils/Context.sol\":693:700  address */\n      0x00\n        /* \"@openzeppelin/contracts@4.4.2/utils/Context.sol\":719:729  msg.sender */\n      caller\n        /* \"@openzeppelin/contracts@4.4.2/utils/Context.sol\":712:729  return msg.sender */\n      swap1\n      pop\n        /* \"@openzeppelin/contracts@4.4.2/utils/Context.sol\":640:736  function _msgSender() internal view virtual returns (address) {... */\n      swap1\n      jump\t// out\n        /* \"@openzeppelin/contracts@4.4.2/access/Ownable.sol\":2270:2457  function _transferOwnership(address newOwner) internal virtual {... */\n    tag_84:\n        /* \"@openzeppelin/contracts@4.4.2/access/Ownable.sol\":2343:2359  address oldOwner */\n      0x00\n        /* \"@openzeppelin/contracts@4.4.2/access/Ownable.sol\":2362:2368  _owner */\n      dup1\n      0x00\n      swap1\n      sload\n      swap1\n      0x0100\n      exp\n      swap1\n      div\n      0xffffffffffffffffffffffffffffffffffffffff\n      and\n        /* \"@openzeppelin/contracts@4.4.2/access/Ownable.sol\":2343:2368  address oldOwner = _owner */\n      swap1\n      pop\n        /* \"@openzeppelin/contracts@4.4.2/access/Ownable.sol\":2387:2395  newOwner */\n      dup2\n        /* \"@openzeppelin/contracts@4.4.2/access/Ownable.sol\":2378:2384  _owner */\n      0x00\n      dup1\n        /* \"@openzeppelin/contracts@4.4.2/access/Ownable.sol\":2378:2395  _owner = newOwner */\n      0x0100\n      exp\n      dup2\n      sload\n      dup2\n      0xffffffffffffffffffffffffffffffffffffffff\n      mul\n      not\n      and\n      swap1\n      dup4\n      0xffffffffffffffffffffffffffffffffffffffff\n      and\n      mul\n      or\n      swap1\n      sstore\n      pop\n        /* \"@openzeppelin/contracts@4.4.2/access/Ownable.sol\":2441:2449  newOwner */\n      dup2\n        /* \"@openzeppelin/contracts@4.4.2/access/Ownable.sol\":2410:2450  OwnershipTransferred(oldOwner, newOwner) */\n      0xffffffffffffffffffffffffffffffffffffffff\n      and\n        /* \"@openzeppelin/contracts@4.4.2/access/Ownable.sol\":2431:2439  oldOwner */\n      dup2\n        /* \"@openzeppelin/contracts@4.4.2/access/Ownable.sol\":2410:2450  OwnershipTransferred(oldOwner, newOwner) */\n      0xffffffffffffffffffffffffffffffffffffffff\n      and\n      0x8be0079c531659141344cd1fd0a4f28419497f9722a3daafe3b4186f6b6457e0\n      mload(0x40)\n      mload(0x40)\n      dup1\n      swap2\n      sub\n      swap1\n      log3\n        /* \"@openzeppelin/contracts@4.4.2/access/Ownable.sol\":2270:2457  function _transferOwnership(address newOwner) internal virtual {... */\n      pop\n      pop\n      jump\t// out\n        /* \"#utility.yul\":23:639   */\n    tag_110:\n      0x00\n        /* \"#utility.yul\":154:245   */\n      tag_112\n        /* \"#utility.yul\":170:244   */\n      tag_113\n        /* \"#utility.yul\":237:243   */\n      dup5\n        /* \"#utility.yul\":170:244   */\n      tag_114\n      jump\t// in\n    tag_113:\n        /* \"#utility.yul\":154:245   */\n      tag_115\n      jump\t// in\n    tag_112:\n        /* \"#utility.yul\":145:245   */\n      swap1\n      pop\n        /* \"#utility.yul\":265:270   */\n      dup1\n        /* \"#utility.yul\":293:299   */\n      dup4\n        /* \"#utility.yul\":286:291   */\n      dup3\n        /* \"#utility.yul\":279:300   */\n      mstore\n        /* \"#utility.yul\":319:323   */\n      0x20\n        /* \"#utility.yul\":312:317   */\n      dup3\n        /* \"#utility.yul\":308:324   */\n      add\n        /* \"#utility.yul\":301:324   */\n      swap1\n      pop\n        /* \"#utility.yul\":344:350   */\n      dup3\n        /* \"#utility.yul\":375:376   */\n      0x00\n        /* \"#utility.yul\":360:633   */\n    tag_116:\n        /* \"#utility.yul\":385:391   */\n      dup6\n        /* \"#utility.yul\":382:383   */\n      dup2\n        /* \"#utility.yul\":379:392   */\n      lt\n        /* \"#utility.yul\":360:633   */\n      iszero\n      tag_118\n      jumpi\n        /* \"#utility.yul\":477:480   */\n      dup2\n        /* \"#utility.yul\":464:481   */\n      calldataload\n        /* \"#utility.yul\":456:462   */\n      dup6\n        /* \"#utility.yul\":452:482   */\n      add\n        /* \"#utility.yul\":507:554   */\n      tag_119\n        /* \"#utility.yul\":550:553   */\n      dup9\n        /* \"#utility.yul\":538:548   */\n      dup3\n        /* \"#utility.yul\":507:554   */\n      tag_120\n      jump\t// in\n    tag_119:\n        /* \"#utility.yul\":502:505   */\n      dup5\n        /* \"#utility.yul\":495:555   */\n      mstore\n        /* \"#utility.yul\":584:588   */\n      0x20\n        /* \"#utility.yul\":579:582   */\n      dup5\n        /* \"#utility.yul\":575:589   */\n      add\n        /* \"#utility.yul\":568:589   */\n      swap4\n      pop\n        /* \"#utility.yul\":618:622   */\n      0x20\n        /* \"#utility.yul\":613:616   */\n      dup4\n        /* \"#utility.yul\":609:623   */\n      add\n        /* \"#utility.yul\":602:623   */\n      swap3\n      pop\n        /* \"#utility.yul\":420:633   */\n      pop\n        /* \"#utility.yul\":407:408   */\n      0x01\n        /* \"#utility.yul\":404:405   */\n      dup2\n        /* \"#utility.yul\":400:409   */\n      add\n        /* \"#utility.yul\":395:409   */\n      swap1\n      pop\n        /* \"#utility.yul\":360:633   */\n      jump(tag_116)\n    tag_118:\n        /* \"#utility.yul\":364:378   */\n      pop\n        /* \"#utility.yul\":135:639   */\n      pop\n      pop\n      swap4\n      swap3\n      pop\n      pop\n      pop\n      jump\t// out\n        /* \"#utility.yul\":662:1285   */\n    tag_121:\n      0x00\n        /* \"#utility.yul\":783:864   */\n      tag_123\n        /* \"#utility.yul\":799:863   */\n      tag_124\n        /* \"#utility.yul\":856:862   */\n      dup5\n        /* \"#utility.yul\":799:863   */\n      tag_125\n      jump\t// in\n    tag_124:\n        /* \"#utility.yul\":783:864   */\n      tag_115\n      jump\t// in\n    tag_123:\n        /* \"#utility.yul\":774:864   */\n      swap1\n      pop\n        /* \"#utility.yul\":884:889   */\n      dup1\n        /* \"#utility.yul\":912:918   */\n      dup4\n        /* \"#utility.yul\":905:910   */\n      dup3\n        /* \"#utility.yul\":898:919   */\n      mstore\n        /* \"#utility.yul\":938:942   */\n      0x20\n        /* \"#utility.yul\":931:936   */\n      dup3\n        /* \"#utility.yul\":927:943   */\n      add\n        /* \"#utility.yul\":920:943   */\n      swap1\n      pop\n        /* \"#utility.yul\":963:969   */\n      dup3\n        /* \"#utility.yul\":1013:1016   */\n      dup6\n        /* \"#utility.yul\":1005:1009   */\n      0x20\n        /* \"#utility.yul\":997:1003   */\n      dup7\n        /* \"#utility.yul\":993:1010   */\n      mul\n        /* \"#utility.yul\":988:991   */\n      dup3\n        /* \"#utility.yul\":984:1011   */\n      add\n        /* \"#utility.yul\":981:1017   */\n      gt\n        /* \"#utility.yul\":978:980   */\n      iszero\n      tag_126\n      jumpi\n        /* \"#utility.yul\":1030:1031   */\n      0x00\n        /* \"#utility.yul\":1027:1028   */\n      dup1\n        /* \"#utility.yul\":1020:1032   */\n      revert\n        /* \"#utility.yul\":978:980   */\n    tag_126:\n        /* \"#utility.yul\":1058:1059   */\n      0x00\n        /* \"#utility.yul\":1043:1279   */\n    tag_127:\n        /* \"#utility.yul\":1068:1074   */\n      dup6\n        /* \"#utility.yul\":1065:1066   */\n      dup2\n        /* \"#utility.yul\":1062:1075   */\n      lt\n        /* \"#utility.yul\":1043:1279   */\n      iszero\n      tag_129\n      jumpi\n        /* \"#utility.yul\":1135:1138   */\n      dup2\n        /* \"#utility.yul\":1163:1200   */\n      tag_130\n        /* \"#utility.yul\":1196:1199   */\n      dup9\n        /* \"#utility.yul\":1184:1194   */\n      dup3\n        /* \"#utility.yul\":1163:1200   */\n      tag_131\n      jump\t// in\n    tag_130:\n        /* \"#utility.yul\":1158:1161   */\n      dup5\n        /* \"#utility.yul\":1151:1201   */\n      mstore\n        /* \"#utility.yul\":1230:1234   */\n      0x20\n        /* \"#utility.yul\":1225:1228   */\n      dup5\n        /* \"#utility.yul\":1221:1235   */\n      add\n        /* \"#utility.yul\":1214:1235   */\n      swap4\n      pop\n        /* \"#utility.yul\":1264:1268   */\n      0x20\n        /* \"#utility.yul\":1259:1262   */\n      dup4\n        /* \"#utility.yul\":1255:1269   */\n      add\n        /* \"#utility.yul\":1248:1269   */\n      swap3\n      pop\n        /* \"#utility.yul\":1103:1279   */\n      pop\n        /* \"#utility.yul\":1090:1091   */\n      0x01\n        /* \"#utility.yul\":1087:1088   */\n      dup2\n        /* \"#utility.yul\":1083:1092   */\n      add\n        /* \"#utility.yul\":1078:1092   */\n      swap1\n      pop\n        /* \"#utility.yul\":1043:1279   */\n      jump(tag_127)\n    tag_129:\n        /* \"#utility.yul\":1047:1061   */\n      pop\n        /* \"#utility.yul\":764:1285   */\n      pop\n      pop\n      swap4\n      swap3\n      pop\n      pop\n      pop\n      jump\t// out\n        /* \"#utility.yul\":1291:1636   */\n    tag_132:\n      0x00\n        /* \"#utility.yul\":1394:1460   */\n      tag_134\n        /* \"#utility.yul\":1410:1459   */\n      tag_135\n        /* \"#utility.yul\":1452:1458   */\n      dup5\n        /* \"#utility.yul\":1410:1459   */\n      tag_136\n      jump\t// in\n    tag_135:\n        /* \"#utility.yul\":1394:1460   */\n      tag_115\n      jump\t// in\n    tag_134:\n        /* \"#utility.yul\":1385:1460   */\n      swap1\n      pop\n        /* \"#utility.yul\":1483:1489   */\n      dup3\n        /* \"#utility.yul\":1476:1481   */\n      dup2\n        /* \"#utility.yul\":1469:1490   */\n      mstore\n        /* \"#utility.yul\":1521:1525   */\n      0x20\n        /* \"#utility.yul\":1514:1519   */\n      dup2\n        /* \"#utility.yul\":1510:1526   */\n      add\n        /* \"#utility.yul\":1559:1562   */\n      dup5\n        /* \"#utility.yul\":1550:1556   */\n      dup5\n        /* \"#utility.yul\":1545:1548   */\n      dup5\n        /* \"#utility.yul\":1541:1557   */\n      add\n        /* \"#utility.yul\":1538:1563   */\n      gt\n        /* \"#utility.yul\":1535:1537   */\n      iszero\n      tag_137\n      jumpi\n        /* \"#utility.yul\":1576:1577   */\n      0x00\n        /* \"#utility.yul\":1573:1574   */\n      dup1\n        /* \"#utility.yul\":1566:1578   */\n      revert\n        /* \"#utility.yul\":1535:1537   */\n    tag_137:\n        /* \"#utility.yul\":1589:1630   */\n      tag_138\n        /* \"#utility.yul\":1623:1629   */\n      dup5\n        /* \"#utility.yul\":1618:1621   */\n      dup3\n        /* \"#utility.yul\":1613:1616   */\n      dup6\n        /* \"#utility.yul\":1589:1630   */\n      tag_139\n      jump\t// in\n    tag_138:\n        /* \"#utility.yul\":1375:1636   */\n      pop\n      swap4\n      swap3\n      pop\n      pop\n      pop\n      jump\t// out\n        /* \"#utility.yul\":1642:1781   */\n    tag_140:\n      0x00\n        /* \"#utility.yul\":1726:1732   */\n      dup2\n        /* \"#utility.yul\":1713:1733   */\n      calldataload\n        /* \"#utility.yul\":1704:1733   */\n      swap1\n      pop\n        /* \"#utility.yul\":1742:1775   */\n      tag_142\n        /* \"#utility.yul\":1769:1774   */\n      dup2\n        /* \"#utility.yul\":1742:1775   */\n      tag_143\n      jump\t// in\n    tag_142:\n        /* \"#utility.yul\":1694:1781   */\n      swap3\n      swap2\n      pop\n      pop\n      jump\t// out\n        /* \"#utility.yul\":1803:2126   */\n    tag_144:\n      0x00\n        /* \"#utility.yul\":1933:1936   */\n      dup3\n        /* \"#utility.yul\":1926:1930   */\n      0x1f\n        /* \"#utility.yul\":1918:1924   */\n      dup4\n        /* \"#utility.yul\":1914:1931   */\n      add\n        /* \"#utility.yul\":1910:1937   */\n      slt\n        /* \"#utility.yul\":1900:1902   */\n      tag_146\n      jumpi\n        /* \"#utility.yul\":1951:1952   */\n      0x00\n        /* \"#utility.yul\":1948:1949   */\n      dup1\n        /* \"#utility.yul\":1941:1953   */\n      revert\n        /* \"#utility.yul\":1900:1902   */\n    tag_146:\n        /* \"#utility.yul\":1991:1997   */\n      dup2\n        /* \"#utility.yul\":1978:1998   */\n      calldataload\n        /* \"#utility.yul\":2016:2120   */\n      tag_147\n        /* \"#utility.yul\":2116:2119   */\n      dup5\n        /* \"#utility.yul\":2108:2114   */\n      dup3\n        /* \"#utility.yul\":2101:2105   */\n      0x20\n        /* \"#utility.yul\":2093:2099   */\n      dup7\n        /* \"#utility.yul\":2089:2106   */\n      add\n        /* \"#utility.yul\":2016:2120   */\n      tag_110\n      jump\t// in\n    tag_147:\n        /* \"#utility.yul\":2007:2120   */\n      swap2\n      pop\n        /* \"#utility.yul\":1890:2126   */\n      pop\n      swap3\n      swap2\n      pop\n      pop\n      jump\t// out\n        /* \"#utility.yul\":2149:2452   */\n    tag_148:\n      0x00\n        /* \"#utility.yul\":2269:2272   */\n      dup3\n        /* \"#utility.yul\":2262:2266   */\n      0x1f\n        /* \"#utility.yul\":2254:2260   */\n      dup4\n        /* \"#utility.yul\":2250:2267   */\n      add\n        /* \"#utility.yul\":2246:2273   */\n      slt\n        /* \"#utility.yul\":2236:2238   */\n      tag_150\n      jumpi\n        /* \"#utility.yul\":2287:2288   */\n      0x00\n        /* \"#utility.yul\":2284:2285   */\n      dup1\n        /* \"#utility.yul\":2277:2289   */\n      revert\n        /* \"#utility.yul\":2236:2238   */\n    tag_150:\n        /* \"#utility.yul\":2327:2333   */\n      dup2\n        /* \"#utility.yul\":2314:2334   */\n      calldataload\n        /* \"#utility.yul\":2352:2446   */\n      tag_151\n        /* \"#utility.yul\":2442:2445   */\n      dup5\n        /* \"#utility.yul\":2434:2440   */\n      dup3\n        /* \"#utility.yul\":2427:2431   */\n      0x20\n        /* \"#utility.yul\":2419:2425   */\n      dup7\n        /* \"#utility.yul\":2415:2432   */\n      add\n        /* \"#utility.yul\":2352:2446   */\n      tag_121\n      jump\t// in\n    tag_151:\n        /* \"#utility.yul\":2343:2446   */\n      swap2\n      pop\n        /* \"#utility.yul\":2226:2452   */\n      pop\n      swap3\n      swap2\n      pop\n      pop\n      jump\t// out\n        /* \"#utility.yul\":2472:2745   */\n    tag_120:\n      0x00\n        /* \"#utility.yul\":2577:2580   */\n      dup3\n        /* \"#utility.yul\":2570:2574   */\n      0x1f\n        /* \"#utility.yul\":2562:2568   */\n      dup4\n        /* \"#utility.yul\":2558:2575   */\n      add\n        /* \"#utility.yul\":2554:2581   */\n      slt\n        /* \"#utility.yul\":2544:2546   */\n      tag_153\n      jumpi\n        /* \"#utility.yul\":2595:2596   */\n      0x00\n        /* \"#utility.yul\":2592:2593   */\n      dup1\n        /* \"#utility.yul\":2585:2597   */\n      revert\n        /* \"#utility.yul\":2544:2546   */\n    tag_153:\n        /* \"#utility.yul\":2635:2641   */\n      dup2\n        /* \"#utility.yul\":2622:2642   */\n      calldataload\n        /* \"#utility.yul\":2660:2739   */\n      tag_154\n        /* \"#utility.yul\":2735:2738   */\n      dup5\n        /* \"#utility.yul\":2727:2733   */\n      dup3\n        /* \"#utility.yul\":2720:2724   */\n      0x20\n        /* \"#utility.yul\":2712:2718   */\n      dup7\n        /* \"#utility.yul\":2708:2725   */\n      add\n        /* \"#utility.yul\":2660:2739   */\n      tag_132\n      jump\t// in\n    tag_154:\n        /* \"#utility.yul\":2651:2739   */\n      swap2\n      pop\n        /* \"#utility.yul\":2534:2745   */\n      pop\n      swap3\n      swap2\n      pop\n      pop\n      jump\t// out\n        /* \"#utility.yul\":2751:2890   */\n    tag_131:\n      0x00\n        /* \"#utility.yul\":2835:2841   */\n      dup2\n        /* \"#utility.yul\":2822:2842   */\n      calldataload\n        /* \"#utility.yul\":2813:2842   */\n      swap1\n      pop\n        /* \"#utility.yul\":2851:2884   */\n      tag_156\n        /* \"#utility.yul\":2878:2883   */\n      dup2\n        /* \"#utility.yul\":2851:2884   */\n      tag_157\n      jump\t// in\n    tag_156:\n        /* \"#utility.yul\":2803:2890   */\n      swap3\n      swap2\n      pop\n      pop\n      jump\t// out\n        /* \"#utility.yul\":2896:3158   */\n    tag_35:\n      0x00\n        /* \"#utility.yul\":3004:3006   */\n      0x20\n        /* \"#utility.yul\":2992:3001   */\n      dup3\n        /* \"#utility.yul\":2983:2990   */\n      dup5\n        /* \"#utility.yul\":2979:3002   */\n      sub\n        /* \"#utility.yul\":2975:3007   */\n      slt\n        /* \"#utility.yul\":2972:2974   */\n      iszero\n      tag_159\n      jumpi\n        /* \"#utility.yul\":3020:3021   */\n      0x00\n        /* \"#utility.yul\":3017:3018   */\n      dup1\n        /* \"#utility.yul\":3010:3022   */\n      revert\n        /* \"#utility.yul\":2972:2974   */\n    tag_159:\n        /* \"#utility.yul\":3063:3064   */\n      0x00\n        /* \"#utility.yul\":3088:3141   */\n      tag_160\n        /* \"#utility.yul\":3133:3140   */\n      dup5\n        /* \"#utility.yul\":3124:3130   */\n      dup3\n        /* \"#utility.yul\":3113:3122   */\n      dup6\n        /* \"#utility.yul\":3109:3131   */\n      add\n        /* \"#utility.yul\":3088:3141   */\n      tag_140\n      jump\t// in\n    tag_160:\n        /* \"#utility.yul\":3078:3141   */\n      swap2\n      pop\n        /* \"#utility.yul\":3034:3151   */\n      pop\n        /* \"#utility.yul\":2962:3158   */\n      swap3\n      swap2\n      pop\n      pop\n      jump\t// out\n        /* \"#utility.yul\":3164:3877   */\n    tag_48:\n      0x00\n      dup1\n        /* \"#utility.yul\":3349:3351   */\n      0x40\n        /* \"#utility.yul\":3337:3346   */\n      dup4\n        /* \"#utility.yul\":3328:3335   */\n      dup6\n        /* \"#utility.yul\":3324:3347   */\n      sub\n        /* \"#utility.yul\":3320:3352   */\n      slt\n        /* \"#utility.yul\":3317:3319   */\n      iszero\n      tag_162\n      jumpi\n        /* \"#utility.yul\":3365:3366   */\n      0x00\n        /* \"#utility.yul\":3362:3363   */\n      dup1\n        /* \"#utility.yul\":3355:3367   */\n      revert\n        /* \"#utility.yul\":3317:3319   */\n    tag_162:\n        /* \"#utility.yul\":3436:3437   */\n      0x00\n        /* \"#utility.yul\":3425:3434   */\n      dup4\n        /* \"#utility.yul\":3421:3438   */\n      add\n        /* \"#utility.yul\":3408:3439   */\n      calldataload\n        /* \"#utility.yul\":3466:3484   */\n      0xffffffffffffffff\n        /* \"#utility.yul\":3458:3464   */\n      dup2\n        /* \"#utility.yul\":3455:3485   */\n      gt\n        /* \"#utility.yul\":3452:3454   */\n      iszero\n      tag_163\n      jumpi\n        /* \"#utility.yul\":3498:3499   */\n      0x00\n        /* \"#utility.yul\":3495:3496   */\n      dup1\n        /* \"#utility.yul\":3488:3500   */\n      revert\n        /* \"#utility.yul\":3452:3454   */\n    tag_163:\n        /* \"#utility.yul\":3526:3604   */\n      tag_164\n        /* \"#utility.yul\":3596:3603   */\n      dup6\n        /* \"#utility.yul\":3587:3593   */\n      dup3\n        /* \"#utility.yul\":3576:3585   */\n      dup7\n        /* \"#utility.yul\":3572:3594   */\n      add\n        /* \"#utility.yul\":3526:3604   */\n      tag_148\n      jump\t// in\n    tag_164:\n        /* \"#utility.yul\":3516:3604   */\n      swap3\n      pop\n        /* \"#utility.yul\":3379:3614   */\n      pop\n        /* \"#utility.yul\":3681:3683   */\n      0x20\n        /* \"#utility.yul\":3670:3679   */\n      dup4\n        /* \"#utility.yul\":3666:3684   */\n      add\n        /* \"#utility.yul\":3653:3685   */\n      calldataload\n        /* \"#utility.yul\":3712:3730   */\n      0xffffffffffffffff\n        /* \"#utility.yul\":3704:3710   */\n      dup2\n        /* \"#utility.yul\":3701:3731   */\n      gt\n        /* \"#utility.yul\":3698:3700   */\n      iszero\n      tag_165\n      jumpi\n        /* \"#utility.yul\":3744:3745   */\n      0x00\n        /* \"#utility.yul\":3741:3742   */\n      dup1\n        /* \"#utility.yul\":3734:3746   */\n      revert\n        /* \"#utility.yul\":3698:3700   */\n    tag_165:\n        /* \"#utility.yul\":3772:3860   */\n      tag_166\n        /* \"#utility.yul\":3852:3859   */\n      dup6\n        /* \"#utility.yul\":3843:3849   */\n      dup3\n        /* \"#utility.yul\":3832:3841   */\n      dup7\n        /* \"#utility.yul\":3828:3850   */\n      add\n        /* \"#utility.yul\":3772:3860   */\n      tag_144\n      jump\t// in\n    tag_166:\n        /* \"#utility.yul\":3762:3860   */\n      swap2\n      pop\n        /* \"#utility.yul\":3624:3870   */\n      pop\n        /* \"#utility.yul\":3307:3877   */\n      swap3\n      pop\n      swap3\n      swap1\n      pop\n      jump\t// out\n        /* \"#utility.yul\":3883:4145   */\n    tag_25:\n      0x00\n        /* \"#utility.yul\":3991:3993   */\n      0x20\n        /* \"#utility.yul\":3979:3988   */\n      dup3\n        /* \"#utility.yul\":3970:3977   */\n      dup5\n        /* \"#utility.yul\":3966:3989   */\n      sub\n        /* \"#utility.yul\":3962:3994   */\n      slt\n        /* \"#utility.yul\":3959:3961   */\n      iszero\n      tag_168\n      jumpi\n        /* \"#utility.yul\":4007:4008   */\n      0x00\n        /* \"#utility.yul\":4004:4005   */\n      dup1\n        /* \"#utility.yul\":3997:4009   */\n      revert\n        /* \"#utility.yul\":3959:3961   */\n    tag_168:\n        /* \"#utility.yul\":4050:4051   */\n      0x00\n        /* \"#utility.yul\":4075:4128   */\n      tag_169\n        /* \"#utility.yul\":4120:4127   */\n      dup5\n        /* \"#utility.yul\":4111:4117   */\n      dup3\n        /* \"#utility.yul\":4100:4109   */\n      dup6\n        /* \"#utility.yul\":4096:4118   */\n      add\n        /* \"#utility.yul\":4075:4128   */\n      tag_131\n      jump\t// in\n    tag_169:\n        /* \"#utility.yul\":4065:4128   */\n      swap2\n      pop\n        /* \"#utility.yul\":4021:4138   */\n      pop\n        /* \"#utility.yul\":3949:4145   */\n      swap3\n      swap2\n      pop\n      pop\n      jump\t// out\n        /* \"#utility.yul\":4151:4347   */\n    tag_170:\n      0x00\n        /* \"#utility.yul\":4275:4341   */\n      tag_172\n        /* \"#utility.yul\":4337:4340   */\n      dup4\n        /* \"#utility.yul\":4329:4335   */\n      dup4\n        /* \"#utility.yul\":4275:4341   */\n      tag_173\n      jump\t// in\n    tag_172:\n        /* \"#utility.yul\":4261:4341   */\n      swap1\n      pop\n        /* \"#utility.yul\":4251:4347   */\n      swap3\n      swap2\n      pop\n      pop\n      jump\t// out\n        /* \"#utility.yul\":4353:4532   */\n    tag_174:\n      0x00\n        /* \"#utility.yul\":4443:4489   */\n      tag_176\n        /* \"#utility.yul\":4485:4488   */\n      dup4\n        /* \"#utility.yul\":4477:4483   */\n      dup4\n        /* \"#utility.yul\":4443:4489   */\n      tag_177\n      jump\t// in\n    tag_176:\n        /* \"#utility.yul\":4521:4525   */\n      0x20\n        /* \"#utility.yul\":4516:4519   */\n      dup4\n        /* \"#utility.yul\":4512:4526   */\n      add\n        /* \"#utility.yul\":4498:4526   */\n      swap1\n      pop\n        /* \"#utility.yul\":4433:4532   */\n      swap3\n      swap2\n      pop\n      pop\n      jump\t// out\n        /* \"#utility.yul\":4538:4656   */\n    tag_178:\n        /* \"#utility.yul\":4625:4649   */\n      tag_180\n        /* \"#utility.yul\":4643:4648   */\n      dup2\n        /* \"#utility.yul\":4625:4649   */\n      tag_181\n      jump\t// in\n    tag_180:\n        /* \"#utility.yul\":4620:4623   */\n      dup3\n        /* \"#utility.yul\":4613:4650   */\n      mstore\n        /* \"#utility.yul\":4603:4656   */\n      pop\n      pop\n      jump\t// out\n        /* \"#utility.yul\":4690:5681   */\n    tag_182:\n      0x00\n        /* \"#utility.yul\":4858:4922   */\n      tag_184\n        /* \"#utility.yul\":4916:4921   */\n      dup3\n        /* \"#utility.yul\":4858:4922   */\n      tag_185\n      jump\t// in\n    tag_184:\n        /* \"#utility.yul\":4938:5034   */\n      tag_186\n        /* \"#utility.yul\":5027:5033   */\n      dup2\n        /* \"#utility.yul\":5022:5025   */\n      dup6\n        /* \"#utility.yul\":4938:5034   */\n      tag_187\n      jump\t// in\n    tag_186:\n        /* \"#utility.yul\":4931:5034   */\n      swap4\n      pop\n        /* \"#utility.yul\":5060:5063   */\n      dup4\n        /* \"#utility.yul\":5105:5109   */\n      0x20\n        /* \"#utility.yul\":5097:5103   */\n      dup3\n        /* \"#utility.yul\":5093:5110   */\n      mul\n        /* \"#utility.yul\":5088:5091   */\n      dup6\n        /* \"#utility.yul\":5084:5111   */\n      add\n        /* \"#utility.yul\":5135:5201   */\n      tag_188\n        /* \"#utility.yul\":5195:5200   */\n      dup6\n        /* \"#utility.yul\":5135:5201   */\n      tag_189\n      jump\t// in\n    tag_188:\n        /* \"#utility.yul\":5224:5231   */\n      dup1\n        /* \"#utility.yul\":5255:5256   */\n      0x00\n        /* \"#utility.yul\":5240:5636   */\n    tag_190:\n        /* \"#utility.yul\":5265:5271   */\n      dup6\n        /* \"#utility.yul\":5262:5263   */\n      dup2\n        /* \"#utility.yul\":5259:5272   */\n      lt\n        /* \"#utility.yul\":5240:5636   */\n      iszero\n      tag_192\n      jumpi\n        /* \"#utility.yul\":5336:5345   */\n      dup5\n        /* \"#utility.yul\":5330:5334   */\n      dup5\n        /* \"#utility.yul\":5326:5346   */\n      sub\n        /* \"#utility.yul\":5321:5324   */\n      dup10\n        /* \"#utility.yul\":5314:5347   */\n      mstore\n        /* \"#utility.yul\":5387:5393   */\n      dup2\n        /* \"#utility.yul\":5381:5394   */\n      mload\n        /* \"#utility.yul\":5415:5499   */\n      tag_193\n        /* \"#utility.yul\":5494:5498   */\n      dup6\n        /* \"#utility.yul\":5479:5492   */\n      dup3\n        /* \"#utility.yul\":5415:5499   */\n      tag_170\n      jump\t// in\n    tag_193:\n        /* \"#utility.yul\":5407:5499   */\n      swap5\n      pop\n        /* \"#utility.yul\":5522:5592   */\n      tag_194\n        /* \"#utility.yul\":5585:5591   */\n      dup4\n        /* \"#utility.yul\":5522:5592   */\n      tag_195\n      jump\t// in\n    tag_194:\n        /* \"#utility.yul\":5512:5592   */\n      swap3\n      pop\n        /* \"#utility.yul\":5621:5625   */\n      0x20\n        /* \"#utility.yul\":5616:5619   */\n      dup11\n        /* \"#utility.yul\":5612:5626   */\n      add\n        /* \"#utility.yul\":5605:5626   */\n      swap10\n      pop\n        /* \"#utility.yul\":5300:5636   */\n      pop\n        /* \"#utility.yul\":5287:5288   */\n      0x01\n        /* \"#utility.yul\":5284:5285   */\n      dup2\n        /* \"#utility.yul\":5280:5289   */\n      add\n        /* \"#utility.yul\":5275:5289   */\n      swap1\n      pop\n        /* \"#utility.yul\":5240:5636   */\n      jump(tag_190)\n    tag_192:\n        /* \"#utility.yul\":5244:5258   */\n      pop\n        /* \"#utility.yul\":5652:5656   */\n      dup3\n        /* \"#utility.yul\":5645:5656   */\n      swap8\n      pop\n        /* \"#utility.yul\":5672:5675   */\n      dup8\n        /* \"#utility.yul\":5665:5675   */\n      swap6\n      pop\n        /* \"#utility.yul\":4834:5681   */\n      pop\n      pop\n      pop\n      pop\n      pop\n      swap3\n      swap2\n      pop\n      pop\n      jump\t// out\n        /* \"#utility.yul\":5717:6449   */\n    tag_196:\n      0x00\n        /* \"#utility.yul\":5865:5919   */\n      tag_198\n        /* \"#utility.yul\":5913:5918   */\n      dup3\n        /* \"#utility.yul\":5865:5919   */\n      tag_199\n      jump\t// in\n    tag_198:\n        /* \"#utility.yul\":5935:6021   */\n      tag_200\n        /* \"#utility.yul\":6014:6020   */\n      dup2\n        /* \"#utility.yul\":6009:6012   */\n      dup6\n        /* \"#utility.yul\":5935:6021   */\n      tag_201\n      jump\t// in\n    tag_200:\n        /* \"#utility.yul\":5928:6021   */\n      swap4\n      pop\n        /* \"#utility.yul\":6045:6101   */\n      tag_202\n        /* \"#utility.yul\":6095:6100   */\n      dup4\n        /* \"#utility.yul\":6045:6101   */\n      tag_203\n      jump\t// in\n    tag_202:\n        /* \"#utility.yul\":6124:6131   */\n      dup1\n        /* \"#utility.yul\":6155:6156   */\n      0x00\n        /* \"#utility.yul\":6140:6424   */\n    tag_204:\n        /* \"#utility.yul\":6165:6171   */\n      dup4\n        /* \"#utility.yul\":6162:6163   */\n      dup2\n        /* \"#utility.yul\":6159:6172   */\n      lt\n        /* \"#utility.yul\":6140:6424   */\n      iszero\n      tag_206\n      jumpi\n        /* \"#utility.yul\":6241:6247   */\n      dup2\n        /* \"#utility.yul\":6235:6248   */\n      mload\n        /* \"#utility.yul\":6268:6331   */\n      tag_207\n        /* \"#utility.yul\":6327:6330   */\n      dup9\n        /* \"#utility.yul\":6312:6325   */\n      dup3\n        /* \"#utility.yul\":6268:6331   */\n      tag_174\n      jump\t// in\n    tag_207:\n        /* \"#utility.yul\":6261:6331   */\n      swap8\n      pop\n        /* \"#utility.yul\":6354:6414   */\n      tag_208\n        /* \"#utility.yul\":6407:6413   */\n      dup4\n        /* \"#utility.yul\":6354:6414   */\n      tag_209\n      jump\t// in\n    tag_208:\n        /* \"#utility.yul\":6344:6414   */\n      swap3\n      pop\n        /* \"#utility.yul\":6200:6424   */\n      pop\n        /* \"#utility.yul\":6187:6188   */\n      0x01\n        /* \"#utility.yul\":6184:6185   */\n      dup2\n        /* \"#utility.yul\":6180:6189   */\n      add\n        /* \"#utility.yul\":6175:6189   */\n      swap1\n      pop\n        /* \"#utility.yul\":6140:6424   */\n      jump(tag_204)\n    tag_206:\n        /* \"#utility.yul\":6144:6158   */\n      pop\n        /* \"#utility.yul\":6440:6443   */\n      dup6\n        /* \"#utility.yul\":6433:6443   */\n      swap4\n      pop\n        /* \"#utility.yul\":5841:6449   */\n      pop\n      pop\n      pop\n      swap3\n      swap2\n      pop\n      pop\n      jump\t// out\n        /* \"#utility.yul\":6455:6564   */\n    tag_210:\n        /* \"#utility.yul\":6536:6557   */\n      tag_212\n        /* \"#utility.yul\":6551:6556   */\n      dup2\n        /* \"#utility.yul\":6536:6557   */\n      tag_213\n      jump\t// in\n    tag_212:\n        /* \"#utility.yul\":6531:6534   */\n      dup3\n        /* \"#utility.yul\":6524:6558   */\n      mstore\n        /* \"#utility.yul\":6514:6564   */\n      pop\n      pop\n      jump\t// out\n        /* \"#utility.yul\":6570:6727   */\n    tag_214:\n        /* \"#utility.yul\":6670:6720   */\n      tag_216\n        /* \"#utility.yul\":6714:6719   */\n      dup2\n        /* \"#utility.yul\":6670:6720   */\n      tag_217\n      jump\t// in\n    tag_216:\n        /* \"#utility.yul\":6665:6668   */\n      dup3\n        /* \"#utility.yul\":6658:6721   */\n      mstore\n        /* \"#utility.yul\":6648:6727   */\n      pop\n      pop\n      jump\t// out\n        /* \"#utility.yul\":6733:7077   */\n    tag_173:\n      0x00\n        /* \"#utility.yul\":6839:6878   */\n      tag_219\n        /* \"#utility.yul\":6872:6877   */\n      dup3\n        /* \"#utility.yul\":6839:6878   */\n      tag_220\n      jump\t// in\n    tag_219:\n        /* \"#utility.yul\":6894:6955   */\n      tag_221\n        /* \"#utility.yul\":6948:6954   */\n      dup2\n        /* \"#utility.yul\":6943:6946   */\n      dup6\n        /* \"#utility.yul\":6894:6955   */\n      tag_222\n      jump\t// in\n    tag_221:\n        /* \"#utility.yul\":6887:6955   */\n      swap4\n      pop\n        /* \"#utility.yul\":6964:7016   */\n      tag_223\n        /* \"#utility.yul\":7009:7015   */\n      dup2\n        /* \"#utility.yul\":7004:7007   */\n      dup6\n        /* \"#utility.yul\":6997:7001   */\n      0x20\n        /* \"#utility.yul\":6990:6995   */\n      dup7\n        /* \"#utility.yul\":6986:7002   */\n      add\n        /* \"#utility.yul\":6964:7016   */\n      tag_224\n      jump\t// in\n    tag_223:\n        /* \"#utility.yul\":7041:7070   */\n      tag_225\n        /* \"#utility.yul\":7063:7069   */\n      dup2\n        /* \"#utility.yul\":7041:7070   */\n      tag_226\n      jump\t// in\n    tag_225:\n        /* \"#utility.yul\":7036:7039   */\n      dup5\n        /* \"#utility.yul\":7032:7071   */\n      add\n        /* \"#utility.yul\":7025:7071   */\n      swap2\n      pop\n        /* \"#utility.yul\":6815:7077   */\n      pop\n      swap3\n      swap2\n      pop\n      pop\n      jump\t// out\n        /* \"#utility.yul\":7083:7449   */\n    tag_227:\n      0x00\n        /* \"#utility.yul\":7246:7313   */\n      tag_229\n        /* \"#utility.yul\":7310:7312   */\n      0x26\n        /* \"#utility.yul\":7305:7308   */\n      dup4\n        /* \"#utility.yul\":7246:7313   */\n      tag_230\n      jump\t// in\n    tag_229:\n        /* \"#utility.yul\":7239:7313   */\n      swap2\n      pop\n        /* \"#utility.yul\":7322:7415   */\n      tag_231\n        /* \"#utility.yul\":7411:7414   */\n      dup3\n        /* \"#utility.yul\":7322:7415   */\n      tag_232\n      jump\t// in\n    tag_231:\n        /* \"#utility.yul\":7440:7442   */\n      0x40\n        /* \"#utility.yul\":7435:7438   */\n      dup3\n        /* \"#utility.yul\":7431:7443   */\n      add\n        /* \"#utility.yul\":7424:7443   */\n      swap1\n      pop\n        /* \"#utility.yul\":7229:7449   */\n      swap2\n      swap1\n      pop\n      jump\t// out\n        /* \"#utility.yul\":7455:7821   */\n    tag_233:\n      0x00\n        /* \"#utility.yul\":7618:7685   */\n      tag_235\n        /* \"#utility.yul\":7682:7684   */\n      0x20\n        /* \"#utility.yul\":7677:7680   */\n      dup4\n        /* \"#utility.yul\":7618:7685   */\n      tag_230\n      jump\t// in\n    tag_235:\n        /* \"#utility.yul\":7611:7685   */\n      swap2\n      pop\n        /* \"#utility.yul\":7694:7787   */\n      tag_236\n        /* \"#utility.yul\":7783:7786   */\n      dup3\n        /* \"#utility.yul\":7694:7787   */\n      tag_237\n      jump\t// in\n    tag_236:\n        /* \"#utility.yul\":7812:7814   */\n      0x20\n        /* \"#utility.yul\":7807:7810   */\n      dup3\n        /* \"#utility.yul\":7803:7815   */\n      add\n        /* \"#utility.yul\":7796:7815   */\n      swap1\n      pop\n        /* \"#utility.yul\":7601:7821   */\n      swap2\n      swap1\n      pop\n      jump\t// out\n        /* \"#utility.yul\":7827:8193   */\n    tag_238:\n      0x00\n        /* \"#utility.yul\":7990:8057   */\n      tag_240\n        /* \"#utility.yul\":8054:8056   */\n      0x2b\n        /* \"#utility.yul\":8049:8052   */\n      dup4\n        /* \"#utility.yul\":7990:8057   */\n      tag_230\n      jump\t// in\n    tag_240:\n        /* \"#utility.yul\":7983:8057   */\n      swap2\n      pop\n        /* \"#utility.yul\":8066:8159   */\n      tag_241\n        /* \"#utility.yul\":8155:8158   */\n      dup3\n        /* \"#utility.yul\":8066:8159   */\n      tag_242\n      jump\t// in\n    tag_241:\n        /* \"#utility.yul\":8184:8186   */\n      0x40\n        /* \"#utility.yul\":8179:8182   */\n      dup3\n        /* \"#utility.yul\":8175:8187   */\n      add\n        /* \"#utility.yul\":8168:8187   */\n      swap1\n      pop\n        /* \"#utility.yul\":7973:8193   */\n      swap2\n      swap1\n      pop\n      jump\t// out\n        /* \"#utility.yul\":8199:8307   */\n    tag_177:\n        /* \"#utility.yul\":8276:8300   */\n      tag_244\n        /* \"#utility.yul\":8294:8299   */\n      dup2\n        /* \"#utility.yul\":8276:8300   */\n      tag_245\n      jump\t// in\n    tag_244:\n        /* \"#utility.yul\":8271:8274   */\n      dup3\n        /* \"#utility.yul\":8264:8301   */\n      mstore\n        /* \"#utility.yul\":8254:8307   */\n      pop\n      pop\n      jump\t// out\n        /* \"#utility.yul\":8313:8431   */\n    tag_246:\n        /* \"#utility.yul\":8400:8424   */\n      tag_248\n        /* \"#utility.yul\":8418:8423   */\n      dup2\n        /* \"#utility.yul\":8400:8424   */\n      tag_245\n      jump\t// in\n    tag_248:\n        /* \"#utility.yul\":8395:8398   */\n      dup3\n        /* \"#utility.yul\":8388:8425   */\n      mstore\n        /* \"#utility.yul\":8378:8431   */\n      pop\n      pop\n      jump\t// out\n        /* \"#utility.yul\":8437:8659   */\n    tag_18:\n      0x00\n        /* \"#utility.yul\":8568:8570   */\n      0x20\n        /* \"#utility.yul\":8557:8566   */\n      dup3\n        /* \"#utility.yul\":8553:8571   */\n      add\n        /* \"#utility.yul\":8545:8571   */\n      swap1\n      pop\n        /* \"#utility.yul\":8581:8652   */\n      tag_250\n        /* \"#utility.yul\":8649:8650   */\n      0x00\n        /* \"#utility.yul\":8638:8647   */\n      dup4\n        /* \"#utility.yul\":8634:8651   */\n      add\n        /* \"#utility.yul\":8625:8631   */\n      dup5\n        /* \"#utility.yul\":8581:8652   */\n      tag_178\n      jump\t// in\n    tag_250:\n        /* \"#utility.yul\":8535:8659   */\n      swap3\n      swap2\n      pop\n      pop\n      jump\t// out\n        /* \"#utility.yul\":8665:9339   */\n    tag_93:\n      0x00\n        /* \"#utility.yul\":8944:8946   */\n      0x40\n        /* \"#utility.yul\":8933:8942   */\n      dup3\n        /* \"#utility.yul\":8929:8947   */\n      add\n        /* \"#utility.yul\":8921:8947   */\n      swap1\n      pop\n        /* \"#utility.yul\":8993:9002   */\n      dup2\n        /* \"#utility.yul\":8987:8991   */\n      dup2\n        /* \"#utility.yul\":8983:9003   */\n      sub\n        /* \"#utility.yul\":8979:8980   */\n      0x00\n        /* \"#utility.yul\":8968:8977   */\n      dup4\n        /* \"#utility.yul\":8964:8981   */\n      add\n        /* \"#utility.yul\":8957:9004   */\n      mstore\n        /* \"#utility.yul\":9021:9129   */\n      tag_252\n        /* \"#utility.yul\":9124:9128   */\n      dup2\n        /* \"#utility.yul\":9115:9121   */\n      dup6\n        /* \"#utility.yul\":9021:9129   */\n      tag_196\n      jump\t// in\n    tag_252:\n        /* \"#utility.yul\":9013:9129   */\n      swap1\n      pop\n        /* \"#utility.yul\":9176:9185   */\n      dup2\n        /* \"#utility.yul\":9170:9174   */\n      dup2\n        /* \"#utility.yul\":9166:9186   */\n      sub\n        /* \"#utility.yul\":9161:9163   */\n      0x20\n        /* \"#utility.yul\":9150:9159   */\n      dup4\n        /* \"#utility.yul\":9146:9164   */\n      add\n        /* \"#utility.yul\":9139:9187   */\n      mstore\n        /* \"#utility.yul\":9204:9332   */\n      tag_253\n        /* \"#utility.yul\":9327:9331   */\n      dup2\n        /* \"#utility.yul\":9318:9324   */\n      dup5\n        /* \"#utility.yul\":9204:9332   */\n      tag_182\n      jump\t// in\n    tag_253:\n        /* \"#utility.yul\":9196:9332   */\n      swap1\n      pop\n        /* \"#utility.yul\":8911:9339   */\n      swap4\n      swap3\n      pop\n      pop\n      pop\n      jump\t// out\n        /* \"#utility.yul\":9345:9593   */\n    tag_22:\n      0x00\n        /* \"#utility.yul\":9489:9491   */\n      0x20\n        /* \"#utility.yul\":9478:9487   */\n      dup3\n        /* \"#utility.yul\":9474:9492   */\n      add\n        /* \"#utility.yul\":9466:9492   */\n      swap1\n      pop\n        /* \"#utility.yul\":9502:9586   */\n      tag_255\n        /* \"#utility.yul\":9583:9584   */\n      0x00\n        /* \"#utility.yul\":9572:9581   */\n      dup4\n        /* \"#utility.yul\":9568:9585   */\n      add\n        /* \"#utility.yul\":9559:9565   */\n      dup5\n        /* \"#utility.yul\":9502:9586   */\n      tag_214\n      jump\t// in\n    tag_255:\n        /* \"#utility.yul\":9456:9593   */\n      swap3\n      swap2\n      pop\n      pop\n      jump\t// out\n        /* \"#utility.yul\":9599:10018   */\n    tag_105:\n      0x00\n        /* \"#utility.yul\":9803:9805   */\n      0x20\n        /* \"#utility.yul\":9792:9801   */\n      dup3\n        /* \"#utility.yul\":9788:9806   */\n      add\n        /* \"#utility.yul\":9780:9806   */\n      swap1\n      pop\n        /* \"#utility.yul\":9852:9861   */\n      dup2\n        /* \"#utility.yul\":9846:9850   */\n      dup2\n        /* \"#utility.yul\":9842:9862   */\n      sub\n        /* \"#utility.yul\":9838:9839   */\n      0x00\n        /* \"#utility.yul\":9827:9836   */\n      dup4\n        /* \"#utility.yul\":9823:9840   */\n      add\n        /* \"#utility.yul\":9816:9863   */\n      mstore\n        /* \"#utility.yul\":9880:10011   */\n      tag_257\n        /* \"#utility.yul\":10006:10010   */\n      dup2\n        /* \"#utility.yul\":9880:10011   */\n      tag_227\n      jump\t// in\n    tag_257:\n        /* \"#utility.yul\":9872:10011   */\n      swap1\n      pop\n        /* \"#utility.yul\":9770:10018   */\n      swap2\n      swap1\n      pop\n      jump\t// out\n        /* \"#utility.yul\":10024:10443   */\n    tag_59:\n      0x00\n        /* \"#utility.yul\":10228:10230   */\n      0x20\n        /* \"#utility.yul\":10217:10226   */\n      dup3\n        /* \"#utility.yul\":10213:10231   */\n      add\n        /* \"#utility.yul\":10205:10231   */\n      swap1\n      pop\n        /* \"#utility.yul\":10277:10286   */\n      dup2\n        /* \"#utility.yul\":10271:10275   */\n      dup2\n        /* \"#utility.yul\":10267:10287   */\n      sub\n        /* \"#utility.yul\":10263:10264   */\n      0x00\n        /* \"#utility.yul\":10252:10261   */\n      dup4\n        /* \"#utility.yul\":10248:10265   */\n      add\n        /* \"#utility.yul\":10241:10288   */\n      mstore\n        /* \"#utility.yul\":10305:10436   */\n      tag_259\n        /* \"#utility.yul\":10431:10435   */\n      dup2\n        /* \"#utility.yul\":10305:10436   */\n      tag_233\n      jump\t// in\n    tag_259:\n        /* \"#utility.yul\":10297:10436   */\n      swap1\n      pop\n        /* \"#utility.yul\":10195:10443   */\n      swap2\n      swap1\n      pop\n      jump\t// out\n        /* \"#utility.yul\":10449:10868   */\n    tag_70:\n      0x00\n        /* \"#utility.yul\":10653:10655   */\n      0x20\n        /* \"#utility.yul\":10642:10651   */\n      dup3\n        /* \"#utility.yul\":10638:10656   */\n      add\n        /* \"#utility.yul\":10630:10656   */\n      swap1\n      pop\n        /* \"#utility.yul\":10702:10711   */\n      dup2\n        /* \"#utility.yul\":10696:10700   */\n      dup2\n        /* \"#utility.yul\":10692:10712   */\n      sub\n        /* \"#utility.yul\":10688:10689   */\n      0x00\n        /* \"#utility.yul\":10677:10686   */\n      dup4\n        /* \"#utility.yul\":10673:10690   */\n      add\n        /* \"#utility.yul\":10666:10713   */\n      mstore\n        /* \"#utility.yul\":10730:10861   */\n      tag_261\n        /* \"#utility.yul\":10856:10860   */\n      dup2\n        /* \"#utility.yul\":10730:10861   */\n      tag_238\n      jump\t// in\n    tag_261:\n        /* \"#utility.yul\":10722:10861   */\n      swap1\n      pop\n        /* \"#utility.yul\":10620:10868   */\n      swap2\n      swap1\n      pop\n      jump\t// out\n        /* \"#utility.yul\":10874:11304   */\n    tag_45:\n      0x00\n        /* \"#utility.yul\":11055:11057   */\n      0x60\n        /* \"#utility.yul\":11044:11053   */\n      dup3\n        /* \"#utility.yul\":11040:11058   */\n      add\n        /* \"#utility.yul\":11032:11058   */\n      swap1\n      pop\n        /* \"#utility.yul\":11068:11139   */\n      tag_263\n        /* \"#utility.yul\":11136:11137   */\n      0x00\n        /* \"#utility.yul\":11125:11134   */\n      dup4\n        /* \"#utility.yul\":11121:11138   */\n      add\n        /* \"#utility.yul\":11112:11118   */\n      dup7\n        /* \"#utility.yul\":11068:11139   */\n      tag_246\n      jump\t// in\n    tag_263:\n        /* \"#utility.yul\":11149:11221   */\n      tag_264\n        /* \"#utility.yul\":11217:11219   */\n      0x20\n        /* \"#utility.yul\":11206:11215   */\n      dup4\n        /* \"#utility.yul\":11202:11220   */\n      add\n        /* \"#utility.yul\":11193:11199   */\n      dup6\n        /* \"#utility.yul\":11149:11221   */\n      tag_246\n      jump\t// in\n    tag_264:\n        /* \"#utility.yul\":11231:11297   */\n      tag_265\n        /* \"#utility.yul\":11293:11295   */\n      0x40\n        /* \"#utility.yul\":11282:11291   */\n      dup4\n        /* \"#utility.yul\":11278:11296   */\n      add\n        /* \"#utility.yul\":11269:11275   */\n      dup5\n        /* \"#utility.yul\":11231:11297   */\n      tag_210\n      jump\t// in\n    tag_265:\n        /* \"#utility.yul\":11022:11304   */\n      swap5\n      swap4\n      pop\n      pop\n      pop\n      pop\n      jump\t// out\n        /* \"#utility.yul\":11310:11439   */\n    tag_115:\n      0x00\n        /* \"#utility.yul\":11371:11391   */\n      tag_267\n      tag_268\n      jump\t// in\n    tag_267:\n        /* \"#utility.yul\":11361:11391   */\n      swap1\n      pop\n        /* \"#utility.yul\":11400:11433   */\n      tag_269\n        /* \"#utility.yul\":11428:11432   */\n      dup3\n        /* \"#utility.yul\":11420:11426   */\n      dup3\n        /* \"#utility.yul\":11400:11433   */\n      tag_270\n      jump\t// in\n    tag_269:\n        /* \"#utility.yul\":11351:11439   */\n      swap2\n      swap1\n      pop\n      jump\t// out\n        /* \"#utility.yul\":11445:11520   */\n    tag_268:\n      0x00\n        /* \"#utility.yul\":11511:11513   */\n      0x40\n        /* \"#utility.yul\":11505:11514   */\n      mload\n        /* \"#utility.yul\":11495:11514   */\n      swap1\n      pop\n        /* \"#utility.yul\":11485:11520   */\n      swap1\n      jump\t// out\n        /* \"#utility.yul\":11526:11847   */\n    tag_114:\n      0x00\n        /* \"#utility.yul\":11703:11721   */\n      0xffffffffffffffff\n        /* \"#utility.yul\":11695:11701   */\n      dup3\n        /* \"#utility.yul\":11692:11722   */\n      gt\n        /* \"#utility.yul\":11689:11691   */\n      iszero\n      tag_273\n      jumpi\n        /* \"#utility.yul\":11725:11743   */\n      tag_274\n      tag_275\n      jump\t// in\n    tag_274:\n        /* \"#utility.yul\":11689:11691   */\n    tag_273:\n        /* \"#utility.yul\":11775:11779   */\n      0x20\n        /* \"#utility.yul\":11767:11773   */\n      dup3\n        /* \"#utility.yul\":11763:11780   */\n      mul\n        /* \"#utility.yul\":11755:11780   */\n      swap1\n      pop\n        /* \"#utility.yul\":11835:11839   */\n      0x20\n        /* \"#utility.yul\":11829:11833   */\n      dup2\n        /* \"#utility.yul\":11825:11840   */\n      add\n        /* \"#utility.yul\":11817:11840   */\n      swap1\n      pop\n        /* \"#utility.yul\":11618:11847   */\n      swap2\n      swap1\n      pop\n      jump\t// out\n        /* \"#utility.yul\":11853:12164   */\n    tag_125:\n      0x00\n        /* \"#utility.yul\":12020:12038   */\n      0xffffffffffffffff\n        /* \"#utility.yul\":12012:12018   */\n      dup3\n        /* \"#utility.yul\":12009:12039   */\n      gt\n        /* \"#utility.yul\":12006:12008   */\n      iszero\n      tag_277\n      jumpi\n        /* \"#utility.yul\":12042:12060   */\n      tag_278\n      tag_275\n      jump\t// in\n    tag_278:\n        /* \"#utility.yul\":12006:12008   */\n    tag_277:\n        /* \"#utility.yul\":12092:12096   */\n      0x20\n        /* \"#utility.yul\":12084:12090   */\n      dup3\n        /* \"#utility.yul\":12080:12097   */\n      mul\n        /* \"#utility.yul\":12072:12097   */\n      swap1\n      pop\n        /* \"#utility.yul\":12152:12156   */\n      0x20\n        /* \"#utility.yul\":12146:12150   */\n      dup2\n        /* \"#utility.yul\":12142:12157   */\n      add\n        /* \"#utility.yul\":12134:12157   */\n      swap1\n      pop\n        /* \"#utility.yul\":11935:12164   */\n      swap2\n      swap1\n      pop\n      jump\t// out\n        /* \"#utility.yul\":12170:12478   */\n    tag_136:\n      0x00\n        /* \"#utility.yul\":12322:12340   */\n      0xffffffffffffffff\n        /* \"#utility.yul\":12314:12320   */\n      dup3\n        /* \"#utility.yul\":12311:12341   */\n      gt\n        /* \"#utility.yul\":12308:12310   */\n      iszero\n      tag_280\n      jumpi\n        /* \"#utility.yul\":12344:12362   */\n      tag_281\n      tag_275\n      jump\t// in\n    tag_281:\n        /* \"#utility.yul\":12308:12310   */\n    tag_280:\n        /* \"#utility.yul\":12382:12411   */\n      tag_282\n        /* \"#utility.yul\":12404:12410   */\n      dup3\n        /* \"#utility.yul\":12382:12411   */\n      tag_226\n      jump\t// in\n    tag_282:\n        /* \"#utility.yul\":12374:12411   */\n      swap1\n      pop\n        /* \"#utility.yul\":12466:12470   */\n      0x20\n        /* \"#utility.yul\":12460:12464   */\n      dup2\n        /* \"#utility.yul\":12456:12471   */\n      add\n        /* \"#utility.yul\":12448:12471   */\n      swap1\n      pop\n        /* \"#utility.yul\":12237:12478   */\n      swap2\n      swap1\n      pop\n      jump\t// out\n        /* \"#utility.yul\":12484:12626   */\n    tag_189:\n      0x00\n        /* \"#utility.yul\":12584:12587   */\n      dup2\n        /* \"#utility.yul\":12576:12587   */\n      swap1\n      pop\n        /* \"#utility.yul\":12614:12618   */\n      0x20\n        /* \"#utility.yul\":12609:12612   */\n      dup3\n        /* \"#utility.yul\":12605:12619   */\n      add\n        /* \"#utility.yul\":12597:12619   */\n      swap1\n      pop\n        /* \"#utility.yul\":12566:12626   */\n      swap2\n      swap1\n      pop\n      jump\t// out\n        /* \"#utility.yul\":12632:12764   */\n    tag_203:\n      0x00\n        /* \"#utility.yul\":12722:12725   */\n      dup2\n        /* \"#utility.yul\":12714:12725   */\n      swap1\n      pop\n        /* \"#utility.yul\":12752:12756   */\n      0x20\n        /* \"#utility.yul\":12747:12750   */\n      dup3\n        /* \"#utility.yul\":12743:12757   */\n      add\n        /* \"#utility.yul\":12735:12757   */\n      swap1\n      pop\n        /* \"#utility.yul\":12704:12764   */\n      swap2\n      swap1\n      pop\n      jump\t// out\n        /* \"#utility.yul\":12770:12894   */\n    tag_185:\n      0x00\n        /* \"#utility.yul\":12881:12886   */\n      dup2\n        /* \"#utility.yul\":12875:12887   */\n      mload\n        /* \"#utility.yul\":12865:12887   */\n      swap1\n      pop\n        /* \"#utility.yul\":12854:12894   */\n      swap2\n      swap1\n      pop\n      jump\t// out\n        /* \"#utility.yul\":12900:13014   */\n    tag_199:\n      0x00\n        /* \"#utility.yul\":13001:13006   */\n      dup2\n        /* \"#utility.yul\":12995:13007   */\n      mload\n        /* \"#utility.yul\":12985:13007   */\n      swap1\n      pop\n        /* \"#utility.yul\":12974:13014   */\n      swap2\n      swap1\n      pop\n      jump\t// out\n        /* \"#utility.yul\":13020:13119   */\n    tag_220:\n      0x00\n        /* \"#utility.yul\":13106:13111   */\n      dup2\n        /* \"#utility.yul\":13100:13112   */\n      mload\n        /* \"#utility.yul\":13090:13112   */\n      swap1\n      pop\n        /* \"#utility.yul\":13079:13119   */\n      swap2\n      swap1\n      pop\n      jump\t// out\n        /* \"#utility.yul\":13125:13248   */\n    tag_195:\n      0x00\n        /* \"#utility.yul\":13237:13241   */\n      0x20\n        /* \"#utility.yul\":13232:13235   */\n      dup3\n        /* \"#utility.yul\":13228:13242   */\n      add\n        /* \"#utility.yul\":13220:13242   */\n      swap1\n      pop\n        /* \"#utility.yul\":13210:13248   */\n      swap2\n      swap1\n      pop\n      jump\t// out\n        /* \"#utility.yul\":13254:13367   */\n    tag_209:\n      0x00\n        /* \"#utility.yul\":13356:13360   */\n      0x20\n        /* \"#utility.yul\":13351:13354   */\n      dup3\n        /* \"#utility.yul\":13347:13361   */\n      add\n        /* \"#utility.yul\":13339:13361   */\n      swap1\n      pop\n        /* \"#utility.yul\":13329:13367   */\n      swap2\n      swap1\n      pop\n      jump\t// out\n        /* \"#utility.yul\":13373:13567   */\n    tag_187:\n      0x00\n        /* \"#utility.yul\":13516:13522   */\n      dup3\n        /* \"#utility.yul\":13511:13514   */\n      dup3\n        /* \"#utility.yul\":13504:13523   */\n      mstore\n        /* \"#utility.yul\":13556:13560   */\n      0x20\n        /* \"#utility.yul\":13551:13554   */\n      dup3\n        /* \"#utility.yul\":13547:13561   */\n      add\n        /* \"#utility.yul\":13532:13561   */\n      swap1\n      pop\n        /* \"#utility.yul\":13494:13567   */\n      swap3\n      swap2\n      pop\n      pop\n      jump\t// out\n        /* \"#utility.yul\":13573:13757   */\n    tag_201:\n      0x00\n        /* \"#utility.yul\":13706:13712   */\n      dup3\n        /* \"#utility.yul\":13701:13704   */\n      dup3\n        /* \"#utility.yul\":13694:13713   */\n      mstore\n        /* \"#utility.yul\":13746:13750   */\n      0x20\n        /* \"#utility.yul\":13741:13744   */\n      dup3\n        /* \"#utility.yul\":13737:13751   */\n      add\n        /* \"#utility.yul\":13722:13751   */\n      swap1\n      pop\n        /* \"#utility.yul\":13684:13757   */\n      swap3\n      swap2\n      pop\n      pop\n      jump\t// out\n        /* \"#utility.yul\":13763:13922   */\n    tag_222:\n      0x00\n        /* \"#utility.yul\":13871:13877   */\n      dup3\n        /* \"#utility.yul\":13866:13869   */\n      dup3\n        /* \"#utility.yul\":13859:13878   */\n      mstore\n        /* \"#utility.yul\":13911:13915   */\n      0x20\n        /* \"#utility.yul\":13906:13909   */\n      dup3\n        /* \"#utility.yul\":13902:13916   */\n      add\n        /* \"#utility.yul\":13887:13916   */\n      swap1\n      pop\n        /* \"#utility.yul\":13849:13922   */\n      swap3\n      swap2\n      pop\n      pop\n      jump\t// out\n        /* \"#utility.yul\":13928:14097   */\n    tag_230:\n      0x00\n        /* \"#utility.yul\":14046:14052   */\n      dup3\n        /* \"#utility.yul\":14041:14044   */\n      dup3\n        /* \"#utility.yul\":14034:14053   */\n      mstore\n        /* \"#utility.yul\":14086:14090   */\n      0x20\n        /* \"#utility.yul\":14081:14084   */\n      dup3\n        /* \"#utility.yul\":14077:14091   */\n      add\n        /* \"#utility.yul\":14062:14091   */\n      swap1\n      pop\n        /* \"#utility.yul\":14024:14097   */\n      swap3\n      swap2\n      pop\n      pop\n      jump\t// out\n        /* \"#utility.yul\":14103:14199   */\n    tag_181:\n      0x00\n        /* \"#utility.yul\":14169:14193   */\n      tag_295\n        /* \"#utility.yul\":14187:14192   */\n      dup3\n        /* \"#utility.yul\":14169:14193   */\n      tag_296\n      jump\t// in\n    tag_295:\n        /* \"#utility.yul\":14158:14193   */\n      swap1\n      pop\n        /* \"#utility.yul\":14148:14199   */\n      swap2\n      swap1\n      pop\n      jump\t// out\n        /* \"#utility.yul\":14205:14295   */\n    tag_213:\n      0x00\n        /* \"#utility.yul\":14282:14287   */\n      dup2\n        /* \"#utility.yul\":14275:14288   */\n      iszero\n        /* \"#utility.yul\":14268:14289   */\n      iszero\n        /* \"#utility.yul\":14257:14289   */\n      swap1\n      pop\n        /* \"#utility.yul\":14247:14295   */\n      swap2\n      swap1\n      pop\n      jump\t// out\n        /* \"#utility.yul\":14301:14427   */\n    tag_296:\n      0x00\n        /* \"#utility.yul\":14378:14420   */\n      0xffffffffffffffffffffffffffffffffffffffff\n        /* \"#utility.yul\":14371:14376   */\n      dup3\n        /* \"#utility.yul\":14367:14421   */\n      and\n        /* \"#utility.yul\":14356:14421   */\n      swap1\n      pop\n        /* \"#utility.yul\":14346:14427   */\n      swap2\n      swap1\n      pop\n      jump\t// out\n        /* \"#utility.yul\":14433:14510   */\n    tag_245:\n      0x00\n        /* \"#utility.yul\":14499:14504   */\n      dup2\n        /* \"#utility.yul\":14488:14504   */\n      swap1\n      pop\n        /* \"#utility.yul\":14478:14510   */\n      swap2\n      swap1\n      pop\n      jump\t// out\n        /* \"#utility.yul\":14516:14668   */\n    tag_217:\n      0x00\n        /* \"#utility.yul\":14612:14662   */\n      tag_301\n        /* \"#utility.yul\":14656:14661   */\n      dup3\n        /* \"#utility.yul\":14612:14662   */\n      tag_302\n      jump\t// in\n    tag_301:\n        /* \"#utility.yul\":14599:14662   */\n      swap1\n      pop\n        /* \"#utility.yul\":14589:14668   */\n      swap2\n      swap1\n      pop\n      jump\t// out\n        /* \"#utility.yul\":14674:14800   */\n    tag_302:\n      0x00\n        /* \"#utility.yul\":14770:14794   */\n      tag_304\n        /* \"#utility.yul\":14788:14793   */\n      dup3\n        /* \"#utility.yul\":14770:14794   */\n      tag_296\n      jump\t// in\n    tag_304:\n        /* \"#utility.yul\":14757:14794   */\n      swap1\n      pop\n        /* \"#utility.yul\":14747:14800   */\n      swap2\n      swap1\n      pop\n      jump\t// out\n        /* \"#utility.yul\":14806:14960   */\n    tag_139:\n        /* \"#utility.yul\":14890:14896   */\n      dup3\n        /* \"#utility.yul\":14885:14888   */\n      dup2\n        /* \"#utility.yul\":14880:14883   */\n      dup4\n        /* \"#utility.yul\":14867:14897   */\n      calldatacopy\n        /* \"#utility.yul\":14952:14953   */\n      0x00\n        /* \"#utility.yul\":14943:14949   */\n      dup4\n        /* \"#utility.yul\":14938:14941   */\n      dup4\n        /* \"#utility.yul\":14934:14950   */\n      add\n        /* \"#utility.yul\":14927:14954   */\n      mstore\n        /* \"#utility.yul\":14857:14960   */\n      pop\n      pop\n      pop\n      jump\t// out\n        /* \"#utility.yul\":14966:15273   */\n    tag_224:\n        /* \"#utility.yul\":15034:15035   */\n      0x00\n        /* \"#utility.yul\":15044:15157   */\n    tag_307:\n        /* \"#utility.yul\":15058:15064   */\n      dup4\n        /* \"#utility.yul\":15055:15056   */\n      dup2\n        /* \"#utility.yul\":15052:15065   */\n      lt\n        /* \"#utility.yul\":15044:15157   */\n      iszero\n      tag_309\n      jumpi\n        /* \"#utility.yul\":15143:15144   */\n      dup1\n        /* \"#utility.yul\":15138:15141   */\n      dup3\n        /* \"#utility.yul\":15134:15145   */\n      add\n        /* \"#utility.yul\":15128:15146   */\n      mload\n        /* \"#utility.yul\":15124:15125   */\n      dup2\n        /* \"#utility.yul\":15119:15122   */\n      dup5\n        /* \"#utility.yul\":15115:15126   */\n      add\n        /* \"#utility.yul\":15108:15147   */\n      mstore\n        /* \"#utility.yul\":15080:15082   */\n      0x20\n        /* \"#utility.yul\":15077:15078   */\n      dup2\n        /* \"#utility.yul\":15073:15083   */\n      add\n        /* \"#utility.yul\":15068:15083   */\n      swap1\n      pop\n        /* \"#utility.yul\":15044:15157   */\n      jump(tag_307)\n    tag_309:\n        /* \"#utility.yul\":15175:15181   */\n      dup4\n        /* \"#utility.yul\":15172:15173   */\n      dup2\n        /* \"#utility.yul\":15169:15182   */\n      gt\n        /* \"#utility.yul\":15166:15168   */\n      iszero\n      tag_310\n      jumpi\n        /* \"#utility.yul\":15255:15256   */\n      0x00\n        /* \"#utility.yul\":15246:15252   */\n      dup5\n        /* \"#utility.yul\":15241:15244   */\n      dup5\n        /* \"#utility.yul\":15237:15253   */\n      add\n        /* \"#utility.yul\":15230:15257   */\n      mstore\n        /* \"#utility.yul\":15166:15168   */\n    tag_310:\n        /* \"#utility.yul\":15015:15273   */\n      pop\n      pop\n      pop\n      pop\n      jump\t// out\n        /* \"#utility.yul\":15279:15560   */\n    tag_270:\n        /* \"#utility.yul\":15362:15389   */\n      tag_312\n        /* \"#utility.yul\":15384:15388   */\n      dup3\n        /* \"#utility.yul\":15362:15389   */\n      tag_226\n      jump\t// in\n    tag_312:\n        /* \"#utility.yul\":15354:15360   */\n      dup2\n        /* \"#utility.yul\":15350:15390   */\n      add\n        /* \"#utility.yul\":15492:15498   */\n      dup2\n        /* \"#utility.yul\":15480:15490   */\n      dup2\n        /* \"#utility.yul\":15477:15499   */\n      lt\n        /* \"#utility.yul\":15456:15474   */\n      0xffffffffffffffff\n        /* \"#utility.yul\":15444:15454   */\n      dup3\n        /* \"#utility.yul\":15441:15475   */\n      gt\n        /* \"#utility.yul\":15438:15500   */\n      or\n        /* \"#utility.yul\":15435:15437   */\n      iszero\n      tag_313\n      jumpi\n        /* \"#utility.yul\":15503:15521   */\n      tag_314\n      tag_275\n      jump\t// in\n    tag_314:\n        /* \"#utility.yul\":15435:15437   */\n    tag_313:\n        /* \"#utility.yul\":15543:15553   */\n      dup1\n        /* \"#utility.yul\":15539:15541   */\n      0x40\n        /* \"#utility.yul\":15532:15554   */\n      mstore\n        /* \"#utility.yul\":15322:15560   */\n      pop\n      pop\n      pop\n      jump\t// out\n        /* \"#utility.yul\":15566:15746   */\n    tag_275:\n        /* \"#utility.yul\":15614:15691   */\n      0x4e487b7100000000000000000000000000000000000000000000000000000000\n        /* \"#utility.yul\":15611:15612   */\n      0x00\n        /* \"#utility.yul\":15604:15692   */\n      mstore\n        /* \"#utility.yul\":15711:15715   */\n      0x41\n        /* \"#utility.yul\":15708:15709   */\n      0x04\n        /* \"#utility.yul\":15701:15716   */\n      mstore\n        /* \"#utility.yul\":15735:15739   */\n      0x24\n        /* \"#utility.yul\":15732:15733   */\n      0x00\n        /* \"#utility.yul\":15725:15740   */\n      revert\n        /* \"#utility.yul\":15752:15854   */\n    tag_226:\n      0x00\n        /* \"#utility.yul\":15844:15846   */\n      0x1f\n        /* \"#utility.yul\":15840:15847   */\n      not\n        /* \"#utility.yul\":15835:15837   */\n      0x1f\n        /* \"#utility.yul\":15828:15833   */\n      dup4\n        /* \"#utility.yul\":15824:15838   */\n      add\n        /* \"#utility.yul\":15820:15848   */\n      and\n        /* \"#utility.yul\":15810:15848   */\n      swap1\n      pop\n        /* \"#utility.yul\":15800:15854   */\n      swap2\n      swap1\n      pop\n      jump\t// out\n        /* \"#utility.yul\":15860:16085   */\n    tag_232:\n        /* \"#utility.yul\":16000:16034   */\n      0x4f776e61626c653a206e6577206f776e657220697320746865207a65726f2061\n        /* \"#utility.yul\":15996:15997   */\n      0x00\n        /* \"#utility.yul\":15988:15994   */\n      dup3\n        /* \"#utility.yul\":15984:15998   */\n      add\n        /* \"#utility.yul\":15977:16035   */\n      mstore\n        /* \"#utility.yul\":16069:16077   */\n      0x6464726573730000000000000000000000000000000000000000000000000000\n        /* \"#utility.yul\":16064:16066   */\n      0x20\n        /* \"#utility.yul\":16056:16062   */\n      dup3\n        /* \"#utility.yul\":16052:16067   */\n      add\n        /* \"#utility.yul\":16045:16078   */\n      mstore\n        /* \"#utility.yul\":15966:16085   */\n      pop\n      jump\t// out\n        /* \"#utility.yul\":16091:16273   */\n    tag_237:\n        /* \"#utility.yul\":16231:16265   */\n      0x4f776e61626c653a2063616c6c6572206973206e6f7420746865206f776e6572\n        /* \"#utility.yul\":16227:16228   */\n      0x00\n        /* \"#utility.yul\":16219:16225   */\n      dup3\n        /* \"#utility.yul\":16215:16229   */\n      add\n        /* \"#utility.yul\":16208:16266   */\n      mstore\n        /* \"#utility.yul\":16197:16273   */\n      pop\n      jump\t// out\n        /* \"#utility.yul\":16279:16509   */\n    tag_242:\n        /* \"#utility.yul\":16419:16453   */\n      0x616d6f756e74207472616e73666572726564206d757374206265206120706f73\n        /* \"#utility.yul\":16415:16416   */\n      0x00\n        /* \"#utility.yul\":16407:16413   */\n      dup3\n        /* \"#utility.yul\":16403:16417   */\n      add\n        /* \"#utility.yul\":16396:16454   */\n      mstore\n        /* \"#utility.yul\":16488:16501   */\n      0x69746976652076616c7565000000000000000000000000000000000000000000\n        /* \"#utility.yul\":16483:16485   */\n      0x20\n        /* \"#utility.yul\":16475:16481   */\n      dup3\n        /* \"#utility.yul\":16471:16486   */\n      add\n        /* \"#utility.yul\":16464:16502   */\n      mstore\n        /* \"#utility.yul\":16385:16509   */\n      pop\n      jump\t// out\n        /* \"#utility.yul\":16515:16637   */\n    tag_143:\n        /* \"#utility.yul\":16588:16612   */\n      tag_321\n        /* \"#utility.yul\":16606:16611   */\n      dup2\n        /* \"#utility.yul\":16588:16612   */\n      tag_181\n      jump\t// in\n    tag_321:\n        /* \"#utility.yul\":16581:16586   */\n      dup2\n        /* \"#utility.yul\":16578:16613   */\n      eq\n        /* \"#utility.yul\":16568:16570   */\n      tag_322\n      jumpi\n        /* \"#utility.yul\":16627:16628   */\n      0x00\n        /* \"#utility.yul\":16624:16625   */\n      dup1\n        /* \"#utility.yul\":16617:16629   */\n      revert\n        /* \"#utility.yul\":16568:16570   */\n    tag_322:\n        /* \"#utility.yul\":16558:16637   */\n      pop\n      jump\t// out\n        /* \"#utility.yul\":16643:16765   */\n    tag_157:\n        /* \"#utility.yul\":16716:16740   */\n      tag_324\n        /* \"#utility.yul\":16734:16739   */\n      dup2\n        /* \"#utility.yul\":16716:16740   */\n      tag_245\n      jump\t// in\n    tag_324:\n        /* \"#utility.yul\":16709:16714   */\n      dup2\n        /* \"#utility.yul\":16706:16741   */\n      eq\n        /* \"#utility.yul\":16696:16698   */\n      tag_325\n      jumpi\n        /* \"#utility.yul\":16755:16756   */\n      0x00\n        /* \"#utility.yul\":16752:16753   */\n      dup1\n        /* \"#utility.yul\":16745:16757   */\n      revert\n        /* \"#utility.yul\":16696:16698   */\n    tag_325:\n        /* \"#utility.yul\":16686:16765   */\n      pop\n      jump\t// out\n\n    auxdata: 0xa2646970667358221220c3b139de137427f1787c34d53ee2d6d72627f90d5a81718feb76998f88edc65764736f6c63430008010033\n}\n",
				"bytecode": {
					"linkReferences": {},
					"object": "60806040526370dc4900600355600a600555600160065560405180606001604052806127108152602001428152602001600015158152506007600082015181600001556020820151816001015560408201518160020160006101000a81548160ff021916908315150217905550505034801561007a57600080fd5b5061009761008c6100f160201b60201c565b6100f960201b60201c565b73e11a86849d99f524cac3e7a0ec1241828e332c62600260006101000a81548173ffffffffffffffffffffffffffffffffffffffff021916908373ffffffffffffffffffffffffffffffffffffffff1602179055506101bd565b600033905090565b60008060009054906101000a900473ffffffffffffffffffffffffffffffffffffffff169050816000806101000a81548173ffffffffffffffffffffffffffffffffffffffff021916908373ffffffffffffffffffffffffffffffffffffffff1602179055508173ffffffffffffffffffffffffffffffffffffffff168173ffffffffffffffffffffffffffffffffffffffff167f8be0079c531659141344cd1fd0a4f28419497f9722a3daafe3b4186f6b6457e060405160405180910390a35050565b6110d5806101cc6000396000f3fe608060405234801561001057600080fd5b50600436106100a95760003560e01c806351f7598c1161007157806351f7598c1461013e578063715018a61461015a5780638da5cb5b14610164578063c046371114610182578063f121da92146101a2578063f2fde38b146101be576100a9565b806311ce0267146100ae57806311eac855146100cc5780631515fa6e146100ea5780632f181f541461010657806351ed828814610122575b600080fd5b6100b66101da565b6040516100c39190610c3a565b60405180910390f35b6100d4610200565b6040516100e19190610c8c565b60405180910390f35b61010460048036038101906100ff9190610a25565b610226565b005b610120600480360381019061011b9190610a25565b6102ac565b005b61013c60048036038101906101379190610a25565b610332565b005b61015860048036038101906101539190610990565b610378565b005b610162610438565b005b61016c6104c0565b6040516101799190610c3a565b60405180910390f35b61018a6104e9565b60405161019993929190610d07565b60405180910390f35b6101bc60048036038101906101b791906109b9565b61050e565b005b6101d860048036038101906101d39190610990565b61061d565b005b600160009054906101000a900473ffffffffffffffffffffffffffffffffffffffff1681565b600260009054906101000a900473ffffffffffffffffffffffffffffffffffffffff1681565b61022e610715565b73ffffffffffffffffffffffffffffffffffffffff1661024c6104c0565b73ffffffffffffffffffffffffffffffffffffffff16146102a2576040517f08c379a000000000000000000000000000000000000000000000000000000000815260040161029990610cc7565b60405180910390fd5b8060048190555050565b6102b4610715565b73ffffffffffffffffffffffffffffffffffffffff166102d26104c0565b73ffffffffffffffffffffffffffffffffffffffff1614610328576040517f08c379a000000000000000000000000000000000000000000000000000000000815260040161031f90610cc7565b60405180910390fd5b8060038190555050565b60008111610375576040517f08c379a000000000000000000000000000000000000000000000000000000000815260040161036c90610ce7565b60405180910390fd5b50565b610380610715565b73ffffffffffffffffffffffffffffffffffffffff1661039e6104c0565b73ffffffffffffffffffffffffffffffffffffffff16146103f4576040517f08c379a00000000000000000000000000000000000000000000000000000000081526004016103eb90610cc7565b60405180910390fd5b80600160006101000a81548173ffffffffffffffffffffffffffffffffffffffff021916908373ffffffffffffffffffffffffffffffffffffffff16021790555050565b610440610715565b73ffffffffffffffffffffffffffffffffffffffff1661045e6104c0565b73ffffffffffffffffffffffffffffffffffffffff16146104b4576040517f08c379a00000000000000000000000000000000000000000000000000000000081526004016104ab90610cc7565b60405180910390fd5b6104be600061071d565b565b60008060009054906101000a900473ffffffffffffffffffffffffffffffffffffffff16905090565b60078060000154908060010154908060020160009054906101000a900460ff16905083565b610516610715565b73ffffffffffffffffffffffffffffffffffffffff166105346104c0565b73ffffffffffffffffffffffffffffffffffffffff161461058a576040517f08c379a000000000000000000000000000000000000000000000000000000000815260040161058190610cc7565b60405180910390fd5b600160009054906101000a900473ffffffffffffffffffffffffffffffffffffffff1673ffffffffffffffffffffffffffffffffffffffff1663f121da9283836040518363ffffffff1660e01b81526004016105e7929190610c55565b600060405180830381600087803b15801561060157600080fd5b505af1158015610615573d6000803e3d6000fd5b505050505050565b610625610715565b73ffffffffffffffffffffffffffffffffffffffff166106436104c0565b73ffffffffffffffffffffffffffffffffffffffff1614610699576040517f08c379a000000000000000000000000000000000000000000000000000000000815260040161069090610cc7565b60405180910390fd5b600073ffffffffffffffffffffffffffffffffffffffff168173ffffffffffffffffffffffffffffffffffffffff161415610709576040517f08c379a000000000000000000000000000000000000000000000000000000000815260040161070090610ca7565b60405180910390fd5b6107128161071d565b50565b600033905090565b60008060009054906101000a900473ffffffffffffffffffffffffffffffffffffffff169050816000806101000a81548173ffffffffffffffffffffffffffffffffffffffff021916908373ffffffffffffffffffffffffffffffffffffffff1602179055508173ffffffffffffffffffffffffffffffffffffffff168173ffffffffffffffffffffffffffffffffffffffff167f8be0079c531659141344cd1fd0a4f28419497f9722a3daafe3b4186f6b6457e060405160405180910390a35050565b60006107f46107ef84610d63565b610d3e565b9050808382526020820190508260005b85811015610834578135850161081a8882610951565b845260208401935060208301925050600181019050610804565b5050509392505050565b600061085161084c84610d8f565b610d3e565b9050808382526020820190508285602086028201111561087057600080fd5b60005b858110156108a05781610886888261097b565b845260208401935060208301925050600181019050610873565b5050509392505050565b60006108bd6108b884610dbb565b610d3e565b9050828152602081018484840111156108d557600080fd5b6108e0848285610ef7565b509392505050565b6000813590506108f781611071565b92915050565b600082601f83011261090e57600080fd5b813561091e8482602086016107e1565b91505092915050565b600082601f83011261093857600080fd5b813561094884826020860161083e565b91505092915050565b600082601f83011261096257600080fd5b81356109728482602086016108aa565b91505092915050565b60008135905061098a81611088565b92915050565b6000602082840312156109a257600080fd5b60006109b0848285016108e8565b91505092915050565b600080604083850312156109cc57600080fd5b600083013567ffffffffffffffff8111156109e657600080fd5b6109f285828601610927565b925050602083013567ffffffffffffffff811115610a0f57600080fd5b610a1b858286016108fd565b9150509250929050565b600060208284031215610a3757600080fd5b6000610a458482850161097b565b91505092915050565b6000610a5a8383610b7a565b905092915050565b6000610a6e8383610c1c565b60208301905092915050565b610a8381610e8b565b82525050565b6000610a9482610e0c565b610a9e8185610e47565b935083602082028501610ab085610dec565b8060005b85811015610aec5784840389528151610acd8582610a4e565b9450610ad883610e2d565b925060208a01995050600181019050610ab4565b50829750879550505050505092915050565b6000610b0982610e17565b610b138185610e58565b9350610b1e83610dfc565b8060005b83811015610b4f578151610b368882610a62565b9750610b4183610e3a565b925050600181019050610b22565b5085935050505092915050565b610b6581610e9d565b82525050565b610b7481610ed3565b82525050565b6000610b8582610e22565b610b8f8185610e69565b9350610b9f818560208601610f06565b610ba881610f99565b840191505092915050565b6000610bc0602683610e7a565b9150610bcb82610faa565b604082019050919050565b6000610be3602083610e7a565b9150610bee82610ff9565b602082019050919050565b6000610c06602b83610e7a565b9150610c1182611022565b604082019050919050565b610c2581610ec9565b82525050565b610c3481610ec9565b82525050565b6000602082019050610c4f6000830184610a7a565b92915050565b60006040820190508181036000830152610c6f8185610afe565b90508181036020830152610c838184610a89565b90509392505050565b6000602082019050610ca16000830184610b6b565b92915050565b60006020820190508181036000830152610cc081610bb3565b9050919050565b60006020820190508181036000830152610ce081610bd6565b9050919050565b60006020820190508181036000830152610d0081610bf9565b9050919050565b6000606082019050610d1c6000830186610c2b565b610d296020830185610c2b565b610d366040830184610b5c565b949350505050565b6000610d48610d59565b9050610d548282610f39565b919050565b6000604051905090565b600067ffffffffffffffff821115610d7e57610d7d610f6a565b5b602082029050602081019050919050565b600067ffffffffffffffff821115610daa57610da9610f6a565b5b602082029050602081019050919050565b600067ffffffffffffffff821115610dd657610dd5610f6a565b5b610ddf82610f99565b9050602081019050919050565b6000819050602082019050919050565b6000819050602082019050919050565b600081519050919050565b600081519050919050565b600081519050919050565b6000602082019050919050565b6000602082019050919050565b600082825260208201905092915050565b600082825260208201905092915050565b600082825260208201905092915050565b600082825260208201905092915050565b6000610e9682610ea9565b9050919050565b60008115159050919050565b600073ffffffffffffffffffffffffffffffffffffffff82169050919050565b6000819050919050565b6000610ede82610ee5565b9050919050565b6000610ef082610ea9565b9050919050565b82818337600083830152505050565b60005b83811015610f24578082015181840152602081019050610f09565b83811115610f33576000848401525b50505050565b610f4282610f99565b810181811067ffffffffffffffff82111715610f6157610f60610f6a565b5b80604052505050565b7f4e487b7100000000000000000000000000000000000000000000000000000000600052604160045260246000fd5b6000601f19601f8301169050919050565b7f4f776e61626c653a206e6577206f776e657220697320746865207a65726f206160008201527f6464726573730000000000000000000000000000000000000000000000000000602082015250565b7f4f776e61626c653a2063616c6c6572206973206e6f7420746865206f776e6572600082015250565b7f616d6f756e74207472616e73666572726564206d757374206265206120706f7360008201527f69746976652076616c7565000000000000000000000000000000000000000000602082015250565b61107a81610e8b565b811461108557600080fd5b50565b61109181610ec9565b811461109c57600080fd5b5056fea2646970667358221220c3b139de137427f1787c34d53ee2d6d72627f90d5a81718feb76998f88edc65764736f6c63430008010033",
					"opcodes": "PUSH1 0x80 PUSH1 0x40 MSTORE PUSH4 0x70DC4900 PUSH1 0x3 SSTORE PUSH1 0xA PUSH1 0x5 SSTORE PUSH1 0x1 PUSH1 0x6 SSTORE PUSH1 0x40 MLOAD DUP1 PUSH1 0x60 ADD PUSH1 0x40 MSTORE DUP1 PUSH2 0x2710 DUP2 MSTORE PUSH1 0x20 ADD TIMESTAMP DUP2 MSTORE PUSH1 0x20 ADD PUSH1 0x0 ISZERO ISZERO DUP2 MSTORE POP PUSH1 0x7 PUSH1 0x0 DUP3 ADD MLOAD DUP2 PUSH1 0x0 ADD SSTORE PUSH1 0x20 DUP3 ADD MLOAD DUP2 PUSH1 0x1 ADD SSTORE PUSH1 0x40 DUP3 ADD MLOAD DUP2 PUSH1 0x2 ADD PUSH1 0x0 PUSH2 0x100 EXP DUP2 SLOAD DUP2 PUSH1 0xFF MUL NOT AND SWAP1 DUP4 ISZERO ISZERO MUL OR SWAP1 SSTORE POP POP POP CALLVALUE DUP1 ISZERO PUSH2 0x7A JUMPI PUSH1 0x0 DUP1 REVERT JUMPDEST POP PUSH2 0x97 PUSH2 0x8C PUSH2 0xF1 PUSH1 0x20 SHL PUSH1 0x20 SHR JUMP JUMPDEST PUSH2 0xF9 PUSH1 0x20 SHL PUSH1 0x20 SHR JUMP JUMPDEST PUSH20 0xE11A86849D99F524CAC3E7A0EC1241828E332C62 PUSH1 0x2 PUSH1 0x0 PUSH2 0x100 EXP DUP2 SLOAD DUP2 PUSH20 0xFFFFFFFFFFFFFFFFFFFFFFFFFFFFFFFFFFFFFFFF MUL NOT AND SWAP1 DUP4 PUSH20 0xFFFFFFFFFFFFFFFFFFFFFFFFFFFFFFFFFFFFFFFF AND MUL OR SWAP1 SSTORE POP PUSH2 0x1BD JUMP JUMPDEST PUSH1 0x0 CALLER SWAP1 POP SWAP1 JUMP JUMPDEST PUSH1 0x0 DUP1 PUSH1 0x0 SWAP1 SLOAD SWAP1 PUSH2 0x100 EXP SWAP1 DIV PUSH20 0xFFFFFFFFFFFFFFFFFFFFFFFFFFFFFFFFFFFFFFFF AND SWAP1 POP DUP2 PUSH1 0x0 DUP1 PUSH2 0x100 EXP DUP2 SLOAD DUP2 PUSH20 0xFFFFFFFFFFFFFFFFFFFFFFFFFFFFFFFFFFFFFFFF MUL NOT AND SWAP1 DUP4 PUSH20 0xFFFFFFFFFFFFFFFFFFFFFFFFFFFFFFFFFFFFFFFF AND MUL OR SWAP1 SSTORE POP DUP2 PUSH20 0xFFFFFFFFFFFFFFFFFFFFFFFFFFFFFFFFFFFFFFFF AND DUP2 PUSH20 0xFFFFFFFFFFFFFFFFFFFFFFFFFFFFFFFFFFFFFFFF AND PUSH32 0x8BE0079C531659141344CD1FD0A4F28419497F9722A3DAAFE3B4186F6B6457E0 PUSH1 0x40 MLOAD PUSH1 0x40 MLOAD DUP1 SWAP2 SUB SWAP1 LOG3 POP POP JUMP JUMPDEST PUSH2 0x10D5 DUP1 PUSH2 0x1CC PUSH1 0x0 CODECOPY PUSH1 0x0 RETURN INVALID PUSH1 0x80 PUSH1 0x40 MSTORE CALLVALUE DUP1 ISZERO PUSH2 0x10 JUMPI PUSH1 0x0 DUP1 REVERT JUMPDEST POP PUSH1 0x4 CALLDATASIZE LT PUSH2 0xA9 JUMPI PUSH1 0x0 CALLDATALOAD PUSH1 0xE0 SHR DUP1 PUSH4 0x51F7598C GT PUSH2 0x71 JUMPI DUP1 PUSH4 0x51F7598C EQ PUSH2 0x13E JUMPI DUP1 PUSH4 0x715018A6 EQ PUSH2 0x15A JUMPI DUP1 PUSH4 0x8DA5CB5B EQ PUSH2 0x164 JUMPI DUP1 PUSH4 0xC0463711 EQ PUSH2 0x182 JUMPI DUP1 PUSH4 0xF121DA92 EQ PUSH2 0x1A2 JUMPI DUP1 PUSH4 0xF2FDE38B EQ PUSH2 0x1BE JUMPI PUSH2 0xA9 JUMP JUMPDEST DUP1 PUSH4 0x11CE0267 EQ PUSH2 0xAE JUMPI DUP1 PUSH4 0x11EAC855 EQ PUSH2 0xCC JUMPI DUP1 PUSH4 0x1515FA6E EQ PUSH2 0xEA JUMPI DUP1 PUSH4 0x2F181F54 EQ PUSH2 0x106 JUMPI DUP1 PUSH4 0x51ED8288 EQ PUSH2 0x122 JUMPI JUMPDEST PUSH1 0x0 DUP1 REVERT JUMPDEST PUSH2 0xB6 PUSH2 0x1DA JUMP JUMPDEST PUSH1 0x40 MLOAD PUSH2 0xC3 SWAP2 SWAP1 PUSH2 0xC3A JUMP JUMPDEST PUSH1 0x40 MLOAD DUP1 SWAP2 SUB SWAP1 RETURN JUMPDEST PUSH2 0xD4 PUSH2 0x200 JUMP JUMPDEST PUSH1 0x40 MLOAD PUSH2 0xE1 SWAP2 SWAP1 PUSH2 0xC8C JUMP JUMPDEST PUSH1 0x40 MLOAD DUP1 SWAP2 SUB SWAP1 RETURN JUMPDEST PUSH2 0x104 PUSH1 0x4 DUP1 CALLDATASIZE SUB DUP2 ADD SWAP1 PUSH2 0xFF SWAP2 SWAP1 PUSH2 0xA25 JUMP JUMPDEST PUSH2 0x226 JUMP JUMPDEST STOP JUMPDEST PUSH2 0x120 PUSH1 0x4 DUP1 CALLDATASIZE SUB DUP2 ADD SWAP1 PUSH2 0x11B SWAP2 SWAP1 PUSH2 0xA25 JUMP JUMPDEST PUSH2 0x2AC JUMP JUMPDEST STOP JUMPDEST PUSH2 0x13C PUSH1 0x4 DUP1 CALLDATASIZE SUB DUP2 ADD SWAP1 PUSH2 0x137 SWAP2 SWAP1 PUSH2 0xA25 JUMP JUMPDEST PUSH2 0x332 JUMP JUMPDEST STOP JUMPDEST PUSH2 0x158 PUSH1 0x4 DUP1 CALLDATASIZE SUB DUP2 ADD SWAP1 PUSH2 0x153 SWAP2 SWAP1 PUSH2 0x990 JUMP JUMPDEST PUSH2 0x378 JUMP JUMPDEST STOP JUMPDEST PUSH2 0x162 PUSH2 0x438 JUMP JUMPDEST STOP JUMPDEST PUSH2 0x16C PUSH2 0x4C0 JUMP JUMPDEST PUSH1 0x40 MLOAD PUSH2 0x179 SWAP2 SWAP1 PUSH2 0xC3A JUMP JUMPDEST PUSH1 0x40 MLOAD DUP1 SWAP2 SUB SWAP1 RETURN JUMPDEST PUSH2 0x18A PUSH2 0x4E9 JUMP JUMPDEST PUSH1 0x40 MLOAD PUSH2 0x199 SWAP4 SWAP3 SWAP2 SWAP1 PUSH2 0xD07 JUMP JUMPDEST PUSH1 0x40 MLOAD DUP1 SWAP2 SUB SWAP1 RETURN JUMPDEST PUSH2 0x1BC PUSH1 0x4 DUP1 CALLDATASIZE SUB DUP2 ADD SWAP1 PUSH2 0x1B7 SWAP2 SWAP1 PUSH2 0x9B9 JUMP JUMPDEST PUSH2 0x50E JUMP JUMPDEST STOP JUMPDEST PUSH2 0x1D8 PUSH1 0x4 DUP1 CALLDATASIZE SUB DUP2 ADD SWAP1 PUSH2 0x1D3 SWAP2 SWAP1 PUSH2 0x990 JUMP JUMPDEST PUSH2 0x61D JUMP JUMPDEST STOP JUMPDEST PUSH1 0x1 PUSH1 0x0 SWAP1 SLOAD SWAP1 PUSH2 0x100 EXP SWAP1 DIV PUSH20 0xFFFFFFFFFFFFFFFFFFFFFFFFFFFFFFFFFFFFFFFF AND DUP2 JUMP JUMPDEST PUSH1 0x2 PUSH1 0x0 SWAP1 SLOAD SWAP1 PUSH2 0x100 EXP SWAP1 DIV PUSH20 0xFFFFFFFFFFFFFFFFFFFFFFFFFFFFFFFFFFFFFFFF AND DUP2 JUMP JUMPDEST PUSH2 0x22E PUSH2 0x715 JUMP JUMPDEST PUSH20 0xFFFFFFFFFFFFFFFFFFFFFFFFFFFFFFFFFFFFFFFF AND PUSH2 0x24C PUSH2 0x4C0 JUMP JUMPDEST PUSH20 0xFFFFFFFFFFFFFFFFFFFFFFFFFFFFFFFFFFFFFFFF AND EQ PUSH2 0x2A2 JUMPI PUSH1 0x40 MLOAD PUSH32 0x8C379A000000000000000000000000000000000000000000000000000000000 DUP2 MSTORE PUSH1 0x4 ADD PUSH2 0x299 SWAP1 PUSH2 0xCC7 JUMP JUMPDEST PUSH1 0x40 MLOAD DUP1 SWAP2 SUB SWAP1 REVERT JUMPDEST DUP1 PUSH1 0x4 DUP2 SWAP1 SSTORE POP POP JUMP JUMPDEST PUSH2 0x2B4 PUSH2 0x715 JUMP JUMPDEST PUSH20 0xFFFFFFFFFFFFFFFFFFFFFFFFFFFFFFFFFFFFFFFF AND PUSH2 0x2D2 PUSH2 0x4C0 JUMP JUMPDEST PUSH20 0xFFFFFFFFFFFFFFFFFFFFFFFFFFFFFFFFFFFFFFFF AND EQ PUSH2 0x328 JUMPI PUSH1 0x40 MLOAD PUSH32 0x8C379A000000000000000000000000000000000000000000000000000000000 DUP2 MSTORE PUSH1 0x4 ADD PUSH2 0x31F SWAP1 PUSH2 0xCC7 JUMP JUMPDEST PUSH1 0x40 MLOAD DUP1 SWAP2 SUB SWAP1 REVERT JUMPDEST DUP1 PUSH1 0x3 DUP2 SWAP1 SSTORE POP POP JUMP JUMPDEST PUSH1 0x0 DUP2 GT PUSH2 0x375 JUMPI PUSH1 0x40 MLOAD PUSH32 0x8C379A000000000000000000000000000000000000000000000000000000000 DUP2 MSTORE PUSH1 0x4 ADD PUSH2 0x36C SWAP1 PUSH2 0xCE7 JUMP JUMPDEST PUSH1 0x40 MLOAD DUP1 SWAP2 SUB SWAP1 REVERT JUMPDEST POP JUMP JUMPDEST PUSH2 0x380 PUSH2 0x715 JUMP JUMPDEST PUSH20 0xFFFFFFFFFFFFFFFFFFFFFFFFFFFFFFFFFFFFFFFF AND PUSH2 0x39E PUSH2 0x4C0 JUMP JUMPDEST PUSH20 0xFFFFFFFFFFFFFFFFFFFFFFFFFFFFFFFFFFFFFFFF AND EQ PUSH2 0x3F4 JUMPI PUSH1 0x40 MLOAD PUSH32 0x8C379A000000000000000000000000000000000000000000000000000000000 DUP2 MSTORE PUSH1 0x4 ADD PUSH2 0x3EB SWAP1 PUSH2 0xCC7 JUMP JUMPDEST PUSH1 0x40 MLOAD DUP1 SWAP2 SUB SWAP1 REVERT JUMPDEST DUP1 PUSH1 0x1 PUSH1 0x0 PUSH2 0x100 EXP DUP2 SLOAD DUP2 PUSH20 0xFFFFFFFFFFFFFFFFFFFFFFFFFFFFFFFFFFFFFFFF MUL NOT AND SWAP1 DUP4 PUSH20 0xFFFFFFFFFFFFFFFFFFFFFFFFFFFFFFFFFFFFFFFF AND MUL OR SWAP1 SSTORE POP POP JUMP JUMPDEST PUSH2 0x440 PUSH2 0x715 JUMP JUMPDEST PUSH20 0xFFFFFFFFFFFFFFFFFFFFFFFFFFFFFFFFFFFFFFFF AND PUSH2 0x45E PUSH2 0x4C0 JUMP JUMPDEST PUSH20 0xFFFFFFFFFFFFFFFFFFFFFFFFFFFFFFFFFFFFFFFF AND EQ PUSH2 0x4B4 JUMPI PUSH1 0x40 MLOAD PUSH32 0x8C379A000000000000000000000000000000000000000000000000000000000 DUP2 MSTORE PUSH1 0x4 ADD PUSH2 0x4AB SWAP1 PUSH2 0xCC7 JUMP JUMPDEST PUSH1 0x40 MLOAD DUP1 SWAP2 SUB SWAP1 REVERT JUMPDEST PUSH2 0x4BE PUSH1 0x0 PUSH2 0x71D JUMP JUMPDEST JUMP JUMPDEST PUSH1 0x0 DUP1 PUSH1 0x0 SWAP1 SLOAD SWAP1 PUSH2 0x100 EXP SWAP1 DIV PUSH20 0xFFFFFFFFFFFFFFFFFFFFFFFFFFFFFFFFFFFFFFFF AND SWAP1 POP SWAP1 JUMP JUMPDEST PUSH1 0x7 DUP1 PUSH1 0x0 ADD SLOAD SWAP1 DUP1 PUSH1 0x1 ADD SLOAD SWAP1 DUP1 PUSH1 0x2 ADD PUSH1 0x0 SWAP1 SLOAD SWAP1 PUSH2 0x100 EXP SWAP1 DIV PUSH1 0xFF AND SWAP1 POP DUP4 JUMP JUMPDEST PUSH2 0x516 PUSH2 0x715 JUMP JUMPDEST PUSH20 0xFFFFFFFFFFFFFFFFFFFFFFFFFFFFFFFFFFFFFFFF AND PUSH2 0x534 PUSH2 0x4C0 JUMP JUMPDEST PUSH20 0xFFFFFFFFFFFFFFFFFFFFFFFFFFFFFFFFFFFFFFFF AND EQ PUSH2 0x58A JUMPI PUSH1 0x40 MLOAD PUSH32 0x8C379A000000000000000000000000000000000000000000000000000000000 DUP2 MSTORE PUSH1 0x4 ADD PUSH2 0x581 SWAP1 PUSH2 0xCC7 JUMP JUMPDEST PUSH1 0x40 MLOAD DUP1 SWAP2 SUB SWAP1 REVERT JUMPDEST PUSH1 0x1 PUSH1 0x0 SWAP1 SLOAD SWAP1 PUSH2 0x100 EXP SWAP1 DIV PUSH20 0xFFFFFFFFFFFFFFFFFFFFFFFFFFFFFFFFFFFFFFFF AND PUSH20 0xFFFFFFFFFFFFFFFFFFFFFFFFFFFFFFFFFFFFFFFF AND PUSH4 0xF121DA92 DUP4 DUP4 PUSH1 0x40 MLOAD DUP4 PUSH4 0xFFFFFFFF AND PUSH1 0xE0 SHL DUP2 MSTORE PUSH1 0x4 ADD PUSH2 0x5E7 SWAP3 SWAP2 SWAP1 PUSH2 0xC55 JUMP JUMPDEST PUSH1 0x0 PUSH1 0x40 MLOAD DUP1 DUP4 SUB DUP2 PUSH1 0x0 DUP8 DUP1 EXTCODESIZE ISZERO DUP1 ISZERO PUSH2 0x601 JUMPI PUSH1 0x0 DUP1 REVERT JUMPDEST POP GAS CALL ISZERO DUP1 ISZERO PUSH2 0x615 JUMPI RETURNDATASIZE PUSH1 0x0 DUP1 RETURNDATACOPY RETURNDATASIZE PUSH1 0x0 REVERT JUMPDEST POP POP POP POP POP POP JUMP JUMPDEST PUSH2 0x625 PUSH2 0x715 JUMP JUMPDEST PUSH20 0xFFFFFFFFFFFFFFFFFFFFFFFFFFFFFFFFFFFFFFFF AND PUSH2 0x643 PUSH2 0x4C0 JUMP JUMPDEST PUSH20 0xFFFFFFFFFFFFFFFFFFFFFFFFFFFFFFFFFFFFFFFF AND EQ PUSH2 0x699 JUMPI PUSH1 0x40 MLOAD PUSH32 0x8C379A000000000000000000000000000000000000000000000000000000000 DUP2 MSTORE PUSH1 0x4 ADD PUSH2 0x690 SWAP1 PUSH2 0xCC7 JUMP JUMPDEST PUSH1 0x40 MLOAD DUP1 SWAP2 SUB SWAP1 REVERT JUMPDEST PUSH1 0x0 PUSH20 0xFFFFFFFFFFFFFFFFFFFFFFFFFFFFFFFFFFFFFFFF AND DUP2 PUSH20 0xFFFFFFFFFFFFFFFFFFFFFFFFFFFFFFFFFFFFFFFF AND EQ ISZERO PUSH2 0x709 JUMPI PUSH1 0x40 MLOAD PUSH32 0x8C379A000000000000000000000000000000000000000000000000000000000 DUP2 MSTORE PUSH1 0x4 ADD PUSH2 0x700 SWAP1 PUSH2 0xCA7 JUMP JUMPDEST PUSH1 0x40 MLOAD DUP1 SWAP2 SUB SWAP1 REVERT JUMPDEST PUSH2 0x712 DUP2 PUSH2 0x71D JUMP JUMPDEST POP JUMP JUMPDEST PUSH1 0x0 CALLER SWAP1 POP SWAP1 JUMP JUMPDEST PUSH1 0x0 DUP1 PUSH1 0x0 SWAP1 SLOAD SWAP1 PUSH2 0x100 EXP SWAP1 DIV PUSH20 0xFFFFFFFFFFFFFFFFFFFFFFFFFFFFFFFFFFFFFFFF AND SWAP1 POP DUP2 PUSH1 0x0 DUP1 PUSH2 0x100 EXP DUP2 SLOAD DUP2 PUSH20 0xFFFFFFFFFFFFFFFFFFFFFFFFFFFFFFFFFFFFFFFF MUL NOT AND SWAP1 DUP4 PUSH20 0xFFFFFFFFFFFFFFFFFFFFFFFFFFFFFFFFFFFFFFFF AND MUL OR SWAP1 SSTORE POP DUP2 PUSH20 0xFFFFFFFFFFFFFFFFFFFFFFFFFFFFFFFFFFFFFFFF AND DUP2 PUSH20 0xFFFFFFFFFFFFFFFFFFFFFFFFFFFFFFFFFFFFFFFF AND PUSH32 0x8BE0079C531659141344CD1FD0A4F28419497F9722A3DAAFE3B4186F6B6457E0 PUSH1 0x40 MLOAD PUSH1 0x40 MLOAD DUP1 SWAP2 SUB SWAP1 LOG3 POP POP JUMP JUMPDEST PUSH1 0x0 PUSH2 0x7F4 PUSH2 0x7EF DUP5 PUSH2 0xD63 JUMP JUMPDEST PUSH2 0xD3E JUMP JUMPDEST SWAP1 POP DUP1 DUP4 DUP3 MSTORE PUSH1 0x20 DUP3 ADD SWAP1 POP DUP3 PUSH1 0x0 JUMPDEST DUP6 DUP2 LT ISZERO PUSH2 0x834 JUMPI DUP2 CALLDATALOAD DUP6 ADD PUSH2 0x81A DUP9 DUP3 PUSH2 0x951 JUMP JUMPDEST DUP5 MSTORE PUSH1 0x20 DUP5 ADD SWAP4 POP PUSH1 0x20 DUP4 ADD SWAP3 POP POP PUSH1 0x1 DUP2 ADD SWAP1 POP PUSH2 0x804 JUMP JUMPDEST POP POP POP SWAP4 SWAP3 POP POP POP JUMP JUMPDEST PUSH1 0x0 PUSH2 0x851 PUSH2 0x84C DUP5 PUSH2 0xD8F JUMP JUMPDEST PUSH2 0xD3E JUMP JUMPDEST SWAP1 POP DUP1 DUP4 DUP3 MSTORE PUSH1 0x20 DUP3 ADD SWAP1 POP DUP3 DUP6 PUSH1 0x20 DUP7 MUL DUP3 ADD GT ISZERO PUSH2 0x870 JUMPI PUSH1 0x0 DUP1 REVERT JUMPDEST PUSH1 0x0 JUMPDEST DUP6 DUP2 LT ISZERO PUSH2 0x8A0 JUMPI DUP2 PUSH2 0x886 DUP9 DUP3 PUSH2 0x97B JUMP JUMPDEST DUP5 MSTORE PUSH1 0x20 DUP5 ADD SWAP4 POP PUSH1 0x20 DUP4 ADD SWAP3 POP POP PUSH1 0x1 DUP2 ADD SWAP1 POP PUSH2 0x873 JUMP JUMPDEST POP POP POP SWAP4 SWAP3 POP POP POP JUMP JUMPDEST PUSH1 0x0 PUSH2 0x8BD PUSH2 0x8B8 DUP5 PUSH2 0xDBB JUMP JUMPDEST PUSH2 0xD3E JUMP JUMPDEST SWAP1 POP DUP3 DUP2 MSTORE PUSH1 0x20 DUP2 ADD DUP5 DUP5 DUP5 ADD GT ISZERO PUSH2 0x8D5 JUMPI PUSH1 0x0 DUP1 REVERT JUMPDEST PUSH2 0x8E0 DUP5 DUP3 DUP6 PUSH2 0xEF7 JUMP JUMPDEST POP SWAP4 SWAP3 POP POP POP JUMP JUMPDEST PUSH1 0x0 DUP2 CALLDATALOAD SWAP1 POP PUSH2 0x8F7 DUP2 PUSH2 0x1071 JUMP JUMPDEST SWAP3 SWAP2 POP POP JUMP JUMPDEST PUSH1 0x0 DUP3 PUSH1 0x1F DUP4 ADD SLT PUSH2 0x90E JUMPI PUSH1 0x0 DUP1 REVERT JUMPDEST DUP2 CALLDATALOAD PUSH2 0x91E DUP5 DUP3 PUSH1 0x20 DUP7 ADD PUSH2 0x7E1 JUMP JUMPDEST SWAP2 POP POP SWAP3 SWAP2 POP POP JUMP JUMPDEST PUSH1 0x0 DUP3 PUSH1 0x1F DUP4 ADD SLT PUSH2 0x938 JUMPI PUSH1 0x0 DUP1 REVERT JUMPDEST DUP2 CALLDATALOAD PUSH2 0x948 DUP5 DUP3 PUSH1 0x20 DUP7 ADD PUSH2 0x83E JUMP JUMPDEST SWAP2 POP POP SWAP3 SWAP2 POP POP JUMP JUMPDEST PUSH1 0x0 DUP3 PUSH1 0x1F DUP4 ADD SLT PUSH2 0x962 JUMPI PUSH1 0x0 DUP1 REVERT JUMPDEST DUP2 CALLDATALOAD PUSH2 0x972 DUP5 DUP3 PUSH1 0x20 DUP7 ADD PUSH2 0x8AA JUMP JUMPDEST SWAP2 POP POP SWAP3 SWAP2 POP POP JUMP JUMPDEST PUSH1 0x0 DUP2 CALLDATALOAD SWAP1 POP PUSH2 0x98A DUP2 PUSH2 0x1088 JUMP JUMPDEST SWAP3 SWAP2 POP POP JUMP JUMPDEST PUSH1 0x0 PUSH1 0x20 DUP3 DUP5 SUB SLT ISZERO PUSH2 0x9A2 JUMPI PUSH1 0x0 DUP1 REVERT JUMPDEST PUSH1 0x0 PUSH2 0x9B0 DUP5 DUP3 DUP6 ADD PUSH2 0x8E8 JUMP JUMPDEST SWAP2 POP POP SWAP3 SWAP2 POP POP JUMP JUMPDEST PUSH1 0x0 DUP1 PUSH1 0x40 DUP4 DUP6 SUB SLT ISZERO PUSH2 0x9CC JUMPI PUSH1 0x0 DUP1 REVERT JUMPDEST PUSH1 0x0 DUP4 ADD CALLDATALOAD PUSH8 0xFFFFFFFFFFFFFFFF DUP2 GT ISZERO PUSH2 0x9E6 JUMPI PUSH1 0x0 DUP1 REVERT JUMPDEST PUSH2 0x9F2 DUP6 DUP3 DUP7 ADD PUSH2 0x927 JUMP JUMPDEST SWAP3 POP POP PUSH1 0x20 DUP4 ADD CALLDATALOAD PUSH8 0xFFFFFFFFFFFFFFFF DUP2 GT ISZERO PUSH2 0xA0F JUMPI PUSH1 0x0 DUP1 REVERT JUMPDEST PUSH2 0xA1B DUP6 DUP3 DUP7 ADD PUSH2 0x8FD JUMP JUMPDEST SWAP2 POP POP SWAP3 POP SWAP3 SWAP1 POP JUMP JUMPDEST PUSH1 0x0 PUSH1 0x20 DUP3 DUP5 SUB SLT ISZERO PUSH2 0xA37 JUMPI PUSH1 0x0 DUP1 REVERT JUMPDEST PUSH1 0x0 PUSH2 0xA45 DUP5 DUP3 DUP6 ADD PUSH2 0x97B JUMP JUMPDEST SWAP2 POP POP SWAP3 SWAP2 POP POP JUMP JUMPDEST PUSH1 0x0 PUSH2 0xA5A DUP4 DUP4 PUSH2 0xB7A JUMP JUMPDEST SWAP1 POP SWAP3 SWAP2 POP POP JUMP JUMPDEST PUSH1 0x0 PUSH2 0xA6E DUP4 DUP4 PUSH2 0xC1C JUMP JUMPDEST PUSH1 0x20 DUP4 ADD SWAP1 POP SWAP3 SWAP2 POP POP JUMP JUMPDEST PUSH2 0xA83 DUP2 PUSH2 0xE8B JUMP JUMPDEST DUP3 MSTORE POP POP JUMP JUMPDEST PUSH1 0x0 PUSH2 0xA94 DUP3 PUSH2 0xE0C JUMP JUMPDEST PUSH2 0xA9E DUP2 DUP6 PUSH2 0xE47 JUMP JUMPDEST SWAP4 POP DUP4 PUSH1 0x20 DUP3 MUL DUP6 ADD PUSH2 0xAB0 DUP6 PUSH2 0xDEC JUMP JUMPDEST DUP1 PUSH1 0x0 JUMPDEST DUP6 DUP2 LT ISZERO PUSH2 0xAEC JUMPI DUP5 DUP5 SUB DUP10 MSTORE DUP2 MLOAD PUSH2 0xACD DUP6 DUP3 PUSH2 0xA4E JUMP JUMPDEST SWAP5 POP PUSH2 0xAD8 DUP4 PUSH2 0xE2D JUMP JUMPDEST SWAP3 POP PUSH1 0x20 DUP11 ADD SWAP10 POP POP PUSH1 0x1 DUP2 ADD SWAP1 POP PUSH2 0xAB4 JUMP JUMPDEST POP DUP3 SWAP8 POP DUP8 SWAP6 POP POP POP POP POP POP SWAP3 SWAP2 POP POP JUMP JUMPDEST PUSH1 0x0 PUSH2 0xB09 DUP3 PUSH2 0xE17 JUMP JUMPDEST PUSH2 0xB13 DUP2 DUP6 PUSH2 0xE58 JUMP JUMPDEST SWAP4 POP PUSH2 0xB1E DUP4 PUSH2 0xDFC JUMP JUMPDEST DUP1 PUSH1 0x0 JUMPDEST DUP4 DUP2 LT ISZERO PUSH2 0xB4F JUMPI DUP2 MLOAD PUSH2 0xB36 DUP9 DUP3 PUSH2 0xA62 JUMP JUMPDEST SWAP8 POP PUSH2 0xB41 DUP4 PUSH2 0xE3A JUMP JUMPDEST SWAP3 POP POP PUSH1 0x1 DUP2 ADD SWAP1 POP PUSH2 0xB22 JUMP JUMPDEST POP DUP6 SWAP4 POP POP POP POP SWAP3 SWAP2 POP POP JUMP JUMPDEST PUSH2 0xB65 DUP2 PUSH2 0xE9D JUMP JUMPDEST DUP3 MSTORE POP POP JUMP JUMPDEST PUSH2 0xB74 DUP2 PUSH2 0xED3 JUMP JUMPDEST DUP3 MSTORE POP POP JUMP JUMPDEST PUSH1 0x0 PUSH2 0xB85 DUP3 PUSH2 0xE22 JUMP JUMPDEST PUSH2 0xB8F DUP2 DUP6 PUSH2 0xE69 JUMP JUMPDEST SWAP4 POP PUSH2 0xB9F DUP2 DUP6 PUSH1 0x20 DUP7 ADD PUSH2 0xF06 JUMP JUMPDEST PUSH2 0xBA8 DUP2 PUSH2 0xF99 JUMP JUMPDEST DUP5 ADD SWAP2 POP POP SWAP3 SWAP2 POP POP JUMP JUMPDEST PUSH1 0x0 PUSH2 0xBC0 PUSH1 0x26 DUP4 PUSH2 0xE7A JUMP JUMPDEST SWAP2 POP PUSH2 0xBCB DUP3 PUSH2 0xFAA JUMP JUMPDEST PUSH1 0x40 DUP3 ADD SWAP1 POP SWAP2 SWAP1 POP JUMP JUMPDEST PUSH1 0x0 PUSH2 0xBE3 PUSH1 0x20 DUP4 PUSH2 0xE7A JUMP JUMPDEST SWAP2 POP PUSH2 0xBEE DUP3 PUSH2 0xFF9 JUMP JUMPDEST PUSH1 0x20 DUP3 ADD SWAP1 POP SWAP2 SWAP1 POP JUMP JUMPDEST PUSH1 0x0 PUSH2 0xC06 PUSH1 0x2B DUP4 PUSH2 0xE7A JUMP JUMPDEST SWAP2 POP PUSH2 0xC11 DUP3 PUSH2 0x1022 JUMP JUMPDEST PUSH1 0x40 DUP3 ADD SWAP1 POP SWAP2 SWAP1 POP JUMP JUMPDEST PUSH2 0xC25 DUP2 PUSH2 0xEC9 JUMP JUMPDEST DUP3 MSTORE POP POP JUMP JUMPDEST PUSH2 0xC34 DUP2 PUSH2 0xEC9 JUMP JUMPDEST DUP3 MSTORE POP POP JUMP JUMPDEST PUSH1 0x0 PUSH1 0x20 DUP3 ADD SWAP1 POP PUSH2 0xC4F PUSH1 0x0 DUP4 ADD DUP5 PUSH2 0xA7A JUMP JUMPDEST SWAP3 SWAP2 POP POP JUMP JUMPDEST PUSH1 0x0 PUSH1 0x40 DUP3 ADD SWAP1 POP DUP2 DUP2 SUB PUSH1 0x0 DUP4 ADD MSTORE PUSH2 0xC6F DUP2 DUP6 PUSH2 0xAFE JUMP JUMPDEST SWAP1 POP DUP2 DUP2 SUB PUSH1 0x20 DUP4 ADD MSTORE PUSH2 0xC83 DUP2 DUP5 PUSH2 0xA89 JUMP JUMPDEST SWAP1 POP SWAP4 SWAP3 POP POP POP JUMP JUMPDEST PUSH1 0x0 PUSH1 0x20 DUP3 ADD SWAP1 POP PUSH2 0xCA1 PUSH1 0x0 DUP4 ADD DUP5 PUSH2 0xB6B JUMP JUMPDEST SWAP3 SWAP2 POP POP JUMP JUMPDEST PUSH1 0x0 PUSH1 0x20 DUP3 ADD SWAP1 POP DUP2 DUP2 SUB PUSH1 0x0 DUP4 ADD MSTORE PUSH2 0xCC0 DUP2 PUSH2 0xBB3 JUMP JUMPDEST SWAP1 POP SWAP2 SWAP1 POP JUMP JUMPDEST PUSH1 0x0 PUSH1 0x20 DUP3 ADD SWAP1 POP DUP2 DUP2 SUB PUSH1 0x0 DUP4 ADD MSTORE PUSH2 0xCE0 DUP2 PUSH2 0xBD6 JUMP JUMPDEST SWAP1 POP SWAP2 SWAP1 POP JUMP JUMPDEST PUSH1 0x0 PUSH1 0x20 DUP3 ADD SWAP1 POP DUP2 DUP2 SUB PUSH1 0x0 DUP4 ADD MSTORE PUSH2 0xD00 DUP2 PUSH2 0xBF9 JUMP JUMPDEST SWAP1 POP SWAP2 SWAP1 POP JUMP JUMPDEST PUSH1 0x0 PUSH1 0x60 DUP3 ADD SWAP1 POP PUSH2 0xD1C PUSH1 0x0 DUP4 ADD DUP7 PUSH2 0xC2B JUMP JUMPDEST PUSH2 0xD29 PUSH1 0x20 DUP4 ADD DUP6 PUSH2 0xC2B JUMP JUMPDEST PUSH2 0xD36 PUSH1 0x40 DUP4 ADD DUP5 PUSH2 0xB5C JUMP JUMPDEST SWAP5 SWAP4 POP POP POP POP JUMP JUMPDEST PUSH1 0x0 PUSH2 0xD48 PUSH2 0xD59 JUMP JUMPDEST SWAP1 POP PUSH2 0xD54 DUP3 DUP3 PUSH2 0xF39 JUMP JUMPDEST SWAP2 SWAP1 POP JUMP JUMPDEST PUSH1 0x0 PUSH1 0x40 MLOAD SWAP1 POP SWAP1 JUMP JUMPDEST PUSH1 0x0 PUSH8 0xFFFFFFFFFFFFFFFF DUP3 GT ISZERO PUSH2 0xD7E JUMPI PUSH2 0xD7D PUSH2 0xF6A JUMP JUMPDEST JUMPDEST PUSH1 0x20 DUP3 MUL SWAP1 POP PUSH1 0x20 DUP2 ADD SWAP1 POP SWAP2 SWAP1 POP JUMP JUMPDEST PUSH1 0x0 PUSH8 0xFFFFFFFFFFFFFFFF DUP3 GT ISZERO PUSH2 0xDAA JUMPI PUSH2 0xDA9 PUSH2 0xF6A JUMP JUMPDEST JUMPDEST PUSH1 0x20 DUP3 MUL SWAP1 POP PUSH1 0x20 DUP2 ADD SWAP1 POP SWAP2 SWAP1 POP JUMP JUMPDEST PUSH1 0x0 PUSH8 0xFFFFFFFFFFFFFFFF DUP3 GT ISZERO PUSH2 0xDD6 JUMPI PUSH2 0xDD5 PUSH2 0xF6A JUMP JUMPDEST JUMPDEST PUSH2 0xDDF DUP3 PUSH2 0xF99 JUMP JUMPDEST SWAP1 POP PUSH1 0x20 DUP2 ADD SWAP1 POP SWAP2 SWAP1 POP JUMP JUMPDEST PUSH1 0x0 DUP2 SWAP1 POP PUSH1 0x20 DUP3 ADD SWAP1 POP SWAP2 SWAP1 POP JUMP JUMPDEST PUSH1 0x0 DUP2 SWAP1 POP PUSH1 0x20 DUP3 ADD SWAP1 POP SWAP2 SWAP1 POP JUMP JUMPDEST PUSH1 0x0 DUP2 MLOAD SWAP1 POP SWAP2 SWAP1 POP JUMP JUMPDEST PUSH1 0x0 DUP2 MLOAD SWAP1 POP SWAP2 SWAP1 POP JUMP JUMPDEST PUSH1 0x0 DUP2 MLOAD SWAP1 POP SWAP2 SWAP1 POP JUMP JUMPDEST PUSH1 0x0 PUSH1 0x20 DUP3 ADD SWAP1 POP SWAP2 SWAP1 POP JUMP JUMPDEST PUSH1 0x0 PUSH1 0x20 DUP3 ADD SWAP1 POP SWAP2 SWAP1 POP JUMP JUMPDEST PUSH1 0x0 DUP3 DUP3 MSTORE PUSH1 0x20 DUP3 ADD SWAP1 POP SWAP3 SWAP2 POP POP JUMP JUMPDEST PUSH1 0x0 DUP3 DUP3 MSTORE PUSH1 0x20 DUP3 ADD SWAP1 POP SWAP3 SWAP2 POP POP JUMP JUMPDEST PUSH1 0x0 DUP3 DUP3 MSTORE PUSH1 0x20 DUP3 ADD SWAP1 POP SWAP3 SWAP2 POP POP JUMP JUMPDEST PUSH1 0x0 DUP3 DUP3 MSTORE PUSH1 0x20 DUP3 ADD SWAP1 POP SWAP3 SWAP2 POP POP JUMP JUMPDEST PUSH1 0x0 PUSH2 0xE96 DUP3 PUSH2 0xEA9 JUMP JUMPDEST SWAP1 POP SWAP2 SWAP1 POP JUMP JUMPDEST PUSH1 0x0 DUP2 ISZERO ISZERO SWAP1 POP SWAP2 SWAP1 POP JUMP JUMPDEST PUSH1 0x0 PUSH20 0xFFFFFFFFFFFFFFFFFFFFFFFFFFFFFFFFFFFFFFFF DUP3 AND SWAP1 POP SWAP2 SWAP1 POP JUMP JUMPDEST PUSH1 0x0 DUP2 SWAP1 POP SWAP2 SWAP1 POP JUMP JUMPDEST PUSH1 0x0 PUSH2 0xEDE DUP3 PUSH2 0xEE5 JUMP JUMPDEST SWAP1 POP SWAP2 SWAP1 POP JUMP JUMPDEST PUSH1 0x0 PUSH2 0xEF0 DUP3 PUSH2 0xEA9 JUMP JUMPDEST SWAP1 POP SWAP2 SWAP1 POP JUMP JUMPDEST DUP3 DUP2 DUP4 CALLDATACOPY PUSH1 0x0 DUP4 DUP4 ADD MSTORE POP POP POP JUMP JUMPDEST PUSH1 0x0 JUMPDEST DUP4 DUP2 LT ISZERO PUSH2 0xF24 JUMPI DUP1 DUP3 ADD MLOAD DUP2 DUP5 ADD MSTORE PUSH1 0x20 DUP2 ADD SWAP1 POP PUSH2 0xF09 JUMP JUMPDEST DUP4 DUP2 GT ISZERO PUSH2 0xF33 JUMPI PUSH1 0x0 DUP5 DUP5 ADD MSTORE JUMPDEST POP POP POP POP JUMP JUMPDEST PUSH2 0xF42 DUP3 PUSH2 0xF99 JUMP JUMPDEST DUP2 ADD DUP2 DUP2 LT PUSH8 0xFFFFFFFFFFFFFFFF DUP3 GT OR ISZERO PUSH2 0xF61 JUMPI PUSH2 0xF60 PUSH2 0xF6A JUMP JUMPDEST JUMPDEST DUP1 PUSH1 0x40 MSTORE POP POP POP JUMP JUMPDEST PUSH32 0x4E487B7100000000000000000000000000000000000000000000000000000000 PUSH1 0x0 MSTORE PUSH1 0x41 PUSH1 0x4 MSTORE PUSH1 0x24 PUSH1 0x0 REVERT JUMPDEST PUSH1 0x0 PUSH1 0x1F NOT PUSH1 0x1F DUP4 ADD AND SWAP1 POP SWAP2 SWAP1 POP JUMP JUMPDEST PUSH32 0x4F776E61626C653A206E6577206F776E657220697320746865207A65726F2061 PUSH1 0x0 DUP3 ADD MSTORE PUSH32 0x6464726573730000000000000000000000000000000000000000000000000000 PUSH1 0x20 DUP3 ADD MSTORE POP JUMP JUMPDEST PUSH32 0x4F776E61626C653A2063616C6C6572206973206E6F7420746865206F776E6572 PUSH1 0x0 DUP3 ADD MSTORE POP JUMP JUMPDEST PUSH32 0x616D6F756E74207472616E73666572726564206D757374206265206120706F73 PUSH1 0x0 DUP3 ADD MSTORE PUSH32 0x69746976652076616C7565000000000000000000000000000000000000000000 PUSH1 0x20 DUP3 ADD MSTORE POP JUMP JUMPDEST PUSH2 0x107A DUP2 PUSH2 0xE8B JUMP JUMPDEST DUP2 EQ PUSH2 0x1085 JUMPI PUSH1 0x0 DUP1 REVERT JUMPDEST POP JUMP JUMPDEST PUSH2 0x1091 DUP2 PUSH2 0xEC9 JUMP JUMPDEST DUP2 EQ PUSH2 0x109C JUMPI PUSH1 0x0 DUP1 REVERT JUMPDEST POP JUMP INVALID LOG2 PUSH5 0x6970667358 0x22 SLT KECCAK256 0xC3 0xB1 CODECOPY 0xDE SGT PUSH21 0x27F1787C34D53EE2D6D72627F90D5A81718FEB7699 DUP16 DUP9 0xED 0xC6 JUMPI PUSH5 0x736F6C6343 STOP ADDMOD ADD STOP CALLER "
				},
				"gasEstimates": {
					"creation": {
						"codeDepositCost": "861800",
						"executionCost": "infinite",
						"totalCost": "infinite"
					},
					"external": {
						"buyNFT(uint256)": "823",
						"lastUpdate()": "infinite",
						"owner()": "1266",
						"preLoadURIs(uint256[],string[])": "infinite",
						"renounceOwnership()": "24396",
						"setSaleEnd(uint256)": "21405",
						"setSaleStart(uint256)": "21427",
						"setStorageContractAddress(address)": "22262",
						"storageContract()": "1215",
						"transferOwnership(address)": "24833",
						"usdcToken()": "1280"
					},
					"internal": {
						"mintNextNftToAddress(address)": "infinite",
						"updateState()": "infinite"
					}
				},
				"methodIdentifiers": {
					"buyNFT(uint256)": "51ed8288",
					"lastUpdate()": "c0463711",
					"owner()": "8da5cb5b",
					"preLoadURIs(uint256[],string[])": "f121da92",
					"renounceOwnership()": "715018a6",
					"setSaleEnd(uint256)": "1515fa6e",
					"setSaleStart(uint256)": "2f181f54",
					"setStorageContractAddress(address)": "51f7598c",
					"storageContract()": "11ce0267",
					"transferOwnership(address)": "f2fde38b",
					"usdcToken()": "11eac855"
				}
			},
			"storageLayout": {
				"storage": [
					{
						"astId": 7,
						"contract": "contracts/Founding Citizens NFT Sale.sol:FoundingNFTSale",
						"label": "_owner",
						"offset": 0,
						"slot": "0",
						"type": "t_address"
					},
					{
						"astId": 798,
						"contract": "contracts/Founding Citizens NFT Sale.sol:FoundingNFTSale",
						"label": "storageContract",
						"offset": 0,
						"slot": "1",
						"type": "t_address"
					},
					{
						"astId": 801,
						"contract": "contracts/Founding Citizens NFT Sale.sol:FoundingNFTSale",
						"label": "usdcToken",
						"offset": 0,
						"slot": "2",
						"type": "t_contract(ERC20)650"
					},
					{
						"astId": 804,
						"contract": "contracts/Founding Citizens NFT Sale.sol:FoundingNFTSale",
						"label": "saleStart",
						"offset": 0,
						"slot": "3",
						"type": "t_uint256"
					},
					{
						"astId": 806,
						"contract": "contracts/Founding Citizens NFT Sale.sol:FoundingNFTSale",
						"label": "saleEnd",
						"offset": 0,
						"slot": "4",
						"type": "t_uint256"
					},
					{
						"astId": 809,
						"contract": "contracts/Founding Citizens NFT Sale.sol:FoundingNFTSale",
						"label": "startPrice",
						"offset": 0,
						"slot": "5",
						"type": "t_uint256"
					},
					{
						"astId": 812,
						"contract": "contracts/Founding Citizens NFT Sale.sol:FoundingNFTSale",
						"label": "EndPrice",
						"offset": 0,
						"slot": "6",
						"type": "t_uint256"
					},
					{
						"astId": 828,
						"contract": "contracts/Founding Citizens NFT Sale.sol:FoundingNFTSale",
						"label": "lastUpdate",
						"offset": 0,
						"slot": "7",
						"type": "t_struct(Update)819_storage"
					}
				],
				"types": {
					"t_address": {
						"encoding": "inplace",
						"label": "address",
						"numberOfBytes": "20"
					},
					"t_bool": {
						"encoding": "inplace",
						"label": "bool",
						"numberOfBytes": "1"
					},
					"t_contract(ERC20)650": {
						"encoding": "inplace",
						"label": "contract ERC20",
						"numberOfBytes": "20"
					},
					"t_struct(Update)819_storage": {
						"encoding": "inplace",
						"label": "struct FoundingNFTSale.Update",
						"members": [
							{
								"astId": 814,
								"contract": "contracts/Founding Citizens NFT Sale.sol:FoundingNFTSale",
								"label": "price",
								"offset": 0,
								"slot": "0",
								"type": "t_uint256"
							},
							{
								"astId": 816,
								"contract": "contracts/Founding Citizens NFT Sale.sol:FoundingNFTSale",
								"label": "time",
								"offset": 0,
								"slot": "1",
								"type": "t_uint256"
							},
							{
								"astId": 818,
								"contract": "contracts/Founding Citizens NFT Sale.sol:FoundingNFTSale",
								"label": "saleIsLive",
								"offset": 0,
								"slot": "2",
								"type": "t_bool"
							}
						],
						"numberOfBytes": "96"
					},
					"t_uint256": {
						"encoding": "inplace",
						"label": "uint256",
						"numberOfBytes": "32"
					}
				}
			},
			"userdoc": {
				"kind": "user",
				"methods": {},
				"version": 1
			}
		}
	}
}