{
	"contracts/Founding Citizens NFT Sale.sol": {
		"FoundingNFTSale": {
			"abi": [
				{
					"inputs": [],
					"stateMutability": "nonpayable",
					"type": "constructor"
				},
				{
					"anonymous": false,
					"inputs": [
						{
							"indexed": true,
							"internalType": "address",
							"name": "previousOwner",
							"type": "address"
						},
						{
							"indexed": true,
							"internalType": "address",
							"name": "newOwner",
							"type": "address"
						}
					],
					"name": "OwnershipTransferred",
					"type": "event"
				},
				{
					"inputs": [],
					"name": "ERC1155storageContract",
					"outputs": [
						{
							"internalType": "contract IMintStorage",
							"name": "",
							"type": "address"
						}
					],
					"stateMutability": "view",
					"type": "function"
				},
				{
					"inputs": [],
					"name": "buyNFT",
					"outputs": [],
					"stateMutability": "nonpayable",
					"type": "function"
				},
				{
					"inputs": [
						{
							"internalType": "uint256",
							"name": "discountRate",
							"type": "uint256"
						}
					],
					"name": "buyNftWithDiscount",
					"outputs": [],
					"stateMutability": "nonpayable",
					"type": "function"
				},
				{
					"inputs": [
						{
							"internalType": "address",
							"name": "prospectiveBuyer",
							"type": "address"
						},
						{
							"internalType": "uint256",
							"name": "discountRate",
							"type": "uint256"
						}
					],
					"name": "calculateCustomPrice",
					"outputs": [
						{
							"internalType": "uint256",
							"name": "",
							"type": "uint256"
						}
					],
					"stateMutability": "view",
					"type": "function"
				},
				{
					"inputs": [],
					"name": "getMaxSupply",
					"outputs": [
						{
							"internalType": "uint256",
							"name": "",
							"type": "uint256"
						}
					],
					"stateMutability": "view",
					"type": "function"
				},
				{
					"inputs": [],
					"name": "getNextUnusedToken",
					"outputs": [
						{
							"internalType": "uint256",
							"name": "",
							"type": "uint256"
						}
					],
					"stateMutability": "view",
					"type": "function"
				},
				{
					"inputs": [],
					"name": "lastUpdate",
					"outputs": [
						{
							"internalType": "uint256",
							"name": "price",
							"type": "uint256"
						},
						{
							"internalType": "uint256",
							"name": "time",
							"type": "uint256"
						},
						{
							"internalType": "bool",
							"name": "saleIsLive",
							"type": "bool"
						}
					],
					"stateMutability": "view",
					"type": "function"
				},
				{
					"inputs": [],
					"name": "mintToTreasuryAddress",
					"outputs": [],
					"stateMutability": "nonpayable",
					"type": "function"
				},
				{
					"inputs": [],
					"name": "owner",
					"outputs": [
						{
							"internalType": "address",
							"name": "",
							"type": "address"
						}
					],
					"stateMutability": "view",
					"type": "function"
				},
				{
					"inputs": [
						{
							"internalType": "uint256[]",
							"name": "ids",
							"type": "uint256[]"
						},
						{
							"internalType": "string[]",
							"name": "uris",
							"type": "string[]"
						}
					],
					"name": "preLoadURIs",
					"outputs": [],
					"stateMutability": "nonpayable",
					"type": "function"
				},
				{
					"inputs": [],
					"name": "privilgedBuyerList",
					"outputs": [
						{
							"internalType": "contract IPrivilegedListStorage",
							"name": "",
							"type": "address"
						}
					],
					"stateMutability": "view",
					"type": "function"
				},
				{
					"inputs": [],
					"name": "renounceOwnership",
					"outputs": [],
					"stateMutability": "nonpayable",
					"type": "function"
				},
				{
					"inputs": [
						{
							"internalType": "address",
							"name": "storageAddress",
							"type": "address"
						}
					],
					"name": "setStorageContractAddress",
					"outputs": [],
					"stateMutability": "nonpayable",
					"type": "function"
				},
				{
					"inputs": [
						{
							"internalType": "uint256",
							"name": "unixTime",
							"type": "uint256"
						}
					],
					"name": "setendTime",
					"outputs": [],
					"stateMutability": "nonpayable",
					"type": "function"
				},
				{
					"inputs": [
						{
							"internalType": "uint256",
							"name": "unixTime",
							"type": "uint256"
						}
					],
					"name": "setstartTime",
					"outputs": [],
					"stateMutability": "nonpayable",
					"type": "function"
				},
				{
					"inputs": [
						{
							"internalType": "address",
							"name": "newOwner",
							"type": "address"
						}
					],
					"name": "transferOwnership",
					"outputs": [],
					"stateMutability": "nonpayable",
					"type": "function"
				},
				{
					"inputs": [],
					"name": "treasuryAddress",
					"outputs": [
						{
							"internalType": "address",
							"name": "",
							"type": "address"
						}
					],
					"stateMutability": "view",
					"type": "function"
				},
				{
					"inputs": [],
					"name": "usdcEscrowStorageContract",
					"outputs": [
						{
							"internalType": "contract IUsdcStorage",
							"name": "",
							"type": "address"
						}
					],
					"stateMutability": "view",
					"type": "function"
				}
			],
			"devdoc": {
				"kind": "dev",
				"methods": {
					"owner()": {
						"details": "Returns the address of the current owner."
					},
					"renounceOwnership()": {
						"details": "Leaves the contract without owner. It will not be possible to call `onlyOwner` functions anymore. Can only be called by the current owner. NOTE: Renouncing ownership will leave the contract without an owner, thereby removing any functionality that is only available to the owner."
					},
					"transferOwnership(address)": {
						"details": "Transfers ownership of the contract to a new account (`newOwner`). Can only be called by the current owner."
					}
				},
				"version": 1
			},
			"evm": {
				"assembly": "    /* \"contracts/Founding Citizens NFT Sale.sol\":2845:6732  contract FoundingNFTSale is Ownable {\r... */\n  mstore(0x40, 0x80)\n    /* \"contracts/Founding Citizens NFT Sale.sol\":3101:3111  1893484800 */\n  0x70dc4900\n    /* \"contracts/Founding Citizens NFT Sale.sol\":3083:3111  uint startTime  = 1893484800 */\n  0x05\n  sstore\n    /* \"contracts/Founding Citizens NFT Sale.sol\":3214:3224  1893484900 */\n  0x70dc4964\n    /* \"contracts/Founding Citizens NFT Sale.sol\":3196:3224  uint endTime    = 1893484900 */\n  0x06\n  sstore\n    /* \"contracts/Founding Citizens NFT Sale.sol\":3246:3251  10**6 */\n  0x0f4240\n    /* \"contracts/Founding Citizens NFT Sale.sol\":3233:3251  uint units = 10**6 */\n  0x07\n  sstore\n    /* \"contracts/Founding Citizens NFT Sale.sol\":3281:3286  units */\n  sload(0x07)\n    /* \"contracts/Founding Citizens NFT Sale.sol\":3276:3278  10 */\n  0x0a\n    /* \"contracts/Founding Citizens NFT Sale.sol\":3276:3286  10 * units */\n  tag_1\n  swap2\n  swap1\n  tag_2\n  jump\t// in\ntag_1:\n    /* \"contracts/Founding Citizens NFT Sale.sol\":3258:3286  uint startPrice = 10 * units */\n  0x08\n  sstore\n    /* \"contracts/Founding Citizens NFT Sale.sol\":3342:3343  1 */\n  0x01\n    /* \"contracts/Founding Citizens NFT Sale.sol\":3326:3343  uint EndPrice = 1 */\n  0x09\n  sstore\n    /* \"contracts/Founding Citizens NFT Sale.sol\":3523:3560  Update(10000, block.timestamp, false) */\n  mload(0x40)\n  dup1\n  0x60\n  add\n  0x40\n  mstore\n  dup1\n    /* \"contracts/Founding Citizens NFT Sale.sol\":3530:3535  10000 */\n  0x2710\n    /* \"contracts/Founding Citizens NFT Sale.sol\":3523:3560  Update(10000, block.timestamp, false) */\n  dup2\n  mstore\n  0x20\n  add\n    /* \"contracts/Founding Citizens NFT Sale.sol\":3537:3552  block.timestamp */\n  timestamp\n    /* \"contracts/Founding Citizens NFT Sale.sol\":3523:3560  Update(10000, block.timestamp, false) */\n  dup2\n  mstore\n  0x20\n  add\n    /* \"contracts/Founding Citizens NFT Sale.sol\":3554:3559  false */\n  0x00\n    /* \"contracts/Founding Citizens NFT Sale.sol\":3523:3560  Update(10000, block.timestamp, false) */\n  iszero\n  iszero\n  dup2\n  mstore\n  pop\n    /* \"contracts/Founding Citizens NFT Sale.sol\":3496:3560  Update public lastUpdate = Update(10000, block.timestamp, false) */\n  0x0a\n  0x00\n  dup3\n  add\n  mload\n  dup2\n  0x00\n  add\n  sstore\n  0x20\n  dup3\n  add\n  mload\n  dup2\n  0x01\n  add\n  sstore\n  0x40\n  dup3\n  add\n  mload\n  dup2\n  0x02\n  add\n  exp(0x0100, 0x00)\n  dup2\n  sload\n  dup2\n  0xff\n  mul\n  not\n  and\n  swap1\n  dup4\n  iszero\n  iszero\n  mul\n  or\n  swap1\n  sstore\n  pop\n  pop\n  pop\n    /* \"contracts/Founding Citizens NFT Sale.sol\":3922:3954  constructor() {\r... */\n  callvalue\n  dup1\n  iszero\n  tag_3\n  jumpi\n  0x00\n  dup1\n  revert\ntag_3:\n  pop\n    /* \"@openzeppelin/contracts@4.4.2/access/Ownable.sol\":921:953  _transferOwnership(_msgSender()) */\n  tag_7\n    /* \"@openzeppelin/contracts@4.4.2/access/Ownable.sol\":940:952  _msgSender() */\n  tag_8\n    /* \"@openzeppelin/contracts@4.4.2/access/Ownable.sol\":940:950  _msgSender */\n  shl(0x20, tag_9)\n    /* \"@openzeppelin/contracts@4.4.2/access/Ownable.sol\":940:952  _msgSender() */\n  0x20\n  shr\n  jump\t// in\ntag_8:\n    /* \"@openzeppelin/contracts@4.4.2/access/Ownable.sol\":921:939  _transferOwnership */\n  shl(0x20, tag_10)\n    /* \"@openzeppelin/contracts@4.4.2/access/Ownable.sol\":921:953  _transferOwnership(_msgSender()) */\n  0x20\n  shr\n  jump\t// in\ntag_7:\n    /* \"contracts/Founding Citizens NFT Sale.sol\":2845:6732  contract FoundingNFTSale is Ownable {\r... */\n  jump(tag_12)\n    /* \"@openzeppelin/contracts@4.4.2/utils/Context.sol\":640:736  function _msgSender() internal view virtual returns (address) {... */\ntag_9:\n    /* \"@openzeppelin/contracts@4.4.2/utils/Context.sol\":693:700  address */\n  0x00\n    /* \"@openzeppelin/contracts@4.4.2/utils/Context.sol\":719:729  msg.sender */\n  caller\n    /* \"@openzeppelin/contracts@4.4.2/utils/Context.sol\":712:729  return msg.sender */\n  swap1\n  pop\n    /* \"@openzeppelin/contracts@4.4.2/utils/Context.sol\":640:736  function _msgSender() internal view virtual returns (address) {... */\n  swap1\n  jump\t// out\n    /* \"@openzeppelin/contracts@4.4.2/access/Ownable.sol\":2270:2457  function _transferOwnership(address newOwner) internal virtual {... */\ntag_10:\n    /* \"@openzeppelin/contracts@4.4.2/access/Ownable.sol\":2343:2359  address oldOwner */\n  0x00\n    /* \"@openzeppelin/contracts@4.4.2/access/Ownable.sol\":2362:2368  _owner */\n  dup1\n  0x00\n  swap1\n  sload\n  swap1\n  0x0100\n  exp\n  swap1\n  div\n  0xffffffffffffffffffffffffffffffffffffffff\n  and\n    /* \"@openzeppelin/contracts@4.4.2/access/Ownable.sol\":2343:2368  address oldOwner = _owner */\n  swap1\n  pop\n    /* \"@openzeppelin/contracts@4.4.2/access/Ownable.sol\":2387:2395  newOwner */\n  dup2\n    /* \"@openzeppelin/contracts@4.4.2/access/Ownable.sol\":2378:2384  _owner */\n  0x00\n  dup1\n    /* \"@openzeppelin/contracts@4.4.2/access/Ownable.sol\":2378:2395  _owner = newOwner */\n  0x0100\n  exp\n  dup2\n  sload\n  dup2\n  0xffffffffffffffffffffffffffffffffffffffff\n  mul\n  not\n  and\n  swap1\n  dup4\n  0xffffffffffffffffffffffffffffffffffffffff\n  and\n  mul\n  or\n  swap1\n  sstore\n  pop\n    /* \"@openzeppelin/contracts@4.4.2/access/Ownable.sol\":2441:2449  newOwner */\n  dup2\n    /* \"@openzeppelin/contracts@4.4.2/access/Ownable.sol\":2410:2450  OwnershipTransferred(oldOwner, newOwner) */\n  0xffffffffffffffffffffffffffffffffffffffff\n  and\n    /* \"@openzeppelin/contracts@4.4.2/access/Ownable.sol\":2431:2439  oldOwner */\n  dup2\n    /* \"@openzeppelin/contracts@4.4.2/access/Ownable.sol\":2410:2450  OwnershipTransferred(oldOwner, newOwner) */\n  0xffffffffffffffffffffffffffffffffffffffff\n  and\n  0x8be0079c531659141344cd1fd0a4f28419497f9722a3daafe3b4186f6b6457e0\n  mload(0x40)\n  mload(0x40)\n  dup1\n  swap2\n  sub\n  swap1\n  log3\n    /* \"@openzeppelin/contracts@4.4.2/access/Ownable.sol\":2270:2457  function _transferOwnership(address newOwner) internal virtual {... */\n  pop\n  pop\n  jump\t// out\n    /* \"#utility.yul\":7:355   */\ntag_2:\n  0x00\n    /* \"#utility.yul\":70:90   */\n  tag_17\n    /* \"#utility.yul\":88:89   */\n  dup3\n    /* \"#utility.yul\":70:90   */\n  tag_18\n  jump\t// in\ntag_17:\n    /* \"#utility.yul\":65:90   */\n  swap2\n  pop\n    /* \"#utility.yul\":104:124   */\n  tag_19\n    /* \"#utility.yul\":122:123   */\n  dup4\n    /* \"#utility.yul\":104:124   */\n  tag_18\n  jump\t// in\ntag_19:\n    /* \"#utility.yul\":99:124   */\n  swap3\n  pop\n    /* \"#utility.yul\":292:293   */\n  dup2\n    /* \"#utility.yul\":224:290   */\n  0xffffffffffffffffffffffffffffffffffffffffffffffffffffffffffffffff\n    /* \"#utility.yul\":220:294   */\n  div\n    /* \"#utility.yul\":217:218   */\n  dup4\n    /* \"#utility.yul\":214:295   */\n  gt\n    /* \"#utility.yul\":209:210   */\n  dup3\n    /* \"#utility.yul\":202:211   */\n  iszero\n    /* \"#utility.yul\":195:212   */\n  iszero\n    /* \"#utility.yul\":191:296   */\n  and\n    /* \"#utility.yul\":188:190   */\n  iszero\n  tag_20\n  jumpi\n    /* \"#utility.yul\":299:317   */\n  tag_21\n  tag_22\n  jump\t// in\ntag_21:\n    /* \"#utility.yul\":188:190   */\ntag_20:\n    /* \"#utility.yul\":347:348   */\n  dup3\n    /* \"#utility.yul\":344:345   */\n  dup3\n    /* \"#utility.yul\":340:349   */\n  mul\n    /* \"#utility.yul\":329:349   */\n  swap1\n  pop\n    /* \"#utility.yul\":55:355   */\n  swap3\n  swap2\n  pop\n  pop\n  jump\t// out\n    /* \"#utility.yul\":361:438   */\ntag_18:\n  0x00\n    /* \"#utility.yul\":427:432   */\n  dup2\n    /* \"#utility.yul\":416:432   */\n  swap1\n  pop\n    /* \"#utility.yul\":406:438   */\n  swap2\n  swap1\n  pop\n  jump\t// out\n    /* \"#utility.yul\":444:624   */\ntag_22:\n    /* \"#utility.yul\":492:569   */\n  0x4e487b7100000000000000000000000000000000000000000000000000000000\n    /* \"#utility.yul\":489:490   */\n  0x00\n    /* \"#utility.yul\":482:570   */\n  mstore\n    /* \"#utility.yul\":589:593   */\n  0x11\n    /* \"#utility.yul\":586:587   */\n  0x04\n    /* \"#utility.yul\":579:594   */\n  mstore\n    /* \"#utility.yul\":613:617   */\n  0x24\n    /* \"#utility.yul\":610:611   */\n  0x00\n    /* \"#utility.yul\":603:618   */\n  revert\n    /* \"contracts/Founding Citizens NFT Sale.sol\":2845:6732  contract FoundingNFTSale is Ownable {\r... */\ntag_12:\n  dataSize(sub_0)\n  dup1\n  dataOffset(sub_0)\n  0x00\n  codecopy\n  0x00\n  return\nstop\n\nsub_0: assembly {\n        /* \"contracts/Founding Citizens NFT Sale.sol\":2845:6732  contract FoundingNFTSale is Ownable {\r... */\n      mstore(0x40, 0x80)\n      callvalue\n      dup1\n      iszero\n      tag_1\n      jumpi\n      0x00\n      dup1\n      revert\n    tag_1:\n      pop\n      jumpi(tag_2, lt(calldatasize, 0x04))\n      shr(0xe0, calldataload(0x00))\n      dup1\n      0x944044a1\n      gt\n      tag_21\n      jumpi\n      dup1\n      0xc0463711\n      gt\n      tag_22\n      jumpi\n      dup1\n      0xc0463711\n      eq\n      tag_16\n      jumpi\n      dup1\n      0xc5dae48f\n      eq\n      tag_17\n      jumpi\n      dup1\n      0xc5f956af\n      eq\n      tag_18\n      jumpi\n      dup1\n      0xf121da92\n      eq\n      tag_19\n      jumpi\n      dup1\n      0xf2fde38b\n      eq\n      tag_20\n      jumpi\n      jump(tag_2)\n    tag_22:\n      dup1\n      0x944044a1\n      eq\n      tag_12\n      jumpi\n      dup1\n      0xab6c0306\n      eq\n      tag_13\n      jumpi\n      dup1\n      0xb79d283f\n      eq\n      tag_14\n      jumpi\n      dup1\n      0xbff29cee\n      eq\n      tag_15\n      jumpi\n      jump(tag_2)\n    tag_21:\n      dup1\n      0x68fc01a2\n      gt\n      tag_23\n      jumpi\n      dup1\n      0x68fc01a2\n      eq\n      tag_7\n      jumpi\n      dup1\n      0x715018a6\n      eq\n      tag_8\n      jumpi\n      dup1\n      0x8c83faeb\n      eq\n      tag_9\n      jumpi\n      dup1\n      0x8da5cb5b\n      eq\n      tag_10\n      jumpi\n      dup1\n      0x91232f18\n      eq\n      tag_11\n      jumpi\n      jump(tag_2)\n    tag_23:\n      dup1\n      0x4c0f38c2\n      eq\n      tag_3\n      jumpi\n      dup1\n      0x4c9b73da\n      eq\n      tag_4\n      jumpi\n      dup1\n      0x51f7598c\n      eq\n      tag_5\n      jumpi\n      dup1\n      0x5ce7e721\n      eq\n      tag_6\n      jumpi\n    tag_2:\n      0x00\n      dup1\n      revert\n        /* \"contracts/Founding Citizens NFT Sale.sol\":5068:5195  function getMaxSupply() public view returns(uint) {\r... */\n    tag_3:\n      tag_24\n      tag_25\n      jump\t// in\n    tag_24:\n      mload(0x40)\n      tag_26\n      swap2\n      swap1\n      tag_27\n      jump\t// in\n    tag_26:\n      mload(0x40)\n      dup1\n      swap2\n      sub\n      swap1\n      return\n        /* \"contracts/Founding Citizens NFT Sale.sol\":6178:6348  function buyNftWithDiscount(uint discountRate) public pushesUpdate {\r... */\n    tag_4:\n      tag_28\n      0x04\n      dup1\n      calldatasize\n      sub\n      dup2\n      add\n      swap1\n      tag_29\n      swap2\n      swap1\n      tag_30\n      jump\t// in\n    tag_29:\n      tag_31\n      jump\t// in\n    tag_28:\n      stop\n        /* \"contracts/Founding Citizens NFT Sale.sol\":4461:4609  function setStorageContractAddress(address storageAddress) public onlyOwner {\r... */\n    tag_5:\n      tag_32\n      0x04\n      dup1\n      calldatasize\n      sub\n      dup2\n      add\n      swap1\n      tag_33\n      swap2\n      swap1\n      tag_34\n      jump\t// in\n    tag_33:\n      tag_35\n      jump\t// in\n    tag_32:\n      stop\n        /* \"contracts/Founding Citizens NFT Sale.sol\":2937:2985  IPrivilegedListStorage public privilgedBuyerList */\n    tag_6:\n      tag_36\n      tag_37\n      jump\t// in\n    tag_36:\n      mload(0x40)\n      tag_38\n      swap2\n      swap1\n      tag_39\n      jump\t// in\n    tag_38:\n      mload(0x40)\n      dup1\n      swap2\n      sub\n      swap1\n      return\n        /* \"contracts/Founding Citizens NFT Sale.sol\":4921:5060  function getNextUnusedToken() public view returns(uint) {\r... */\n    tag_7:\n      tag_40\n      tag_41\n      jump\t// in\n    tag_40:\n      mload(0x40)\n      tag_42\n      swap2\n      swap1\n      tag_27\n      jump\t// in\n    tag_42:\n      mload(0x40)\n      dup1\n      swap2\n      sub\n      swap1\n      return\n        /* \"@openzeppelin/contracts@4.4.2/access/Ownable.sol\":1668:1769  function renounceOwnership() public virtual onlyOwner {... */\n    tag_8:\n      tag_43\n      tag_44\n      jump\t// in\n    tag_43:\n      stop\n        /* \"contracts/Founding Citizens NFT Sale.sol\":2888:2930  IMintStorage public ERC1155storageContract */\n    tag_9:\n      tag_45\n      tag_46\n      jump\t// in\n    tag_45:\n      mload(0x40)\n      tag_47\n      swap2\n      swap1\n      tag_48\n      jump\t// in\n    tag_47:\n      mload(0x40)\n      dup1\n      swap2\n      sub\n      swap1\n      return\n        /* \"@openzeppelin/contracts@4.4.2/access/Ownable.sol\":1036:1121  function owner() public view virtual returns (address) {... */\n    tag_10:\n      tag_49\n      tag_50\n      jump\t// in\n    tag_49:\n      mload(0x40)\n      tag_51\n      swap2\n      swap1\n      tag_52\n      jump\t// in\n    tag_51:\n      mload(0x40)\n      dup1\n      swap2\n      sub\n      swap1\n      return\n        /* \"contracts/Founding Citizens NFT Sale.sol\":6356:6729  function mintToTreasuryAddress() public requiresUpdate {\r... */\n    tag_11:\n      tag_53\n      tag_54\n      jump\t// in\n    tag_53:\n      stop\n        /* \"contracts/Founding Citizens NFT Sale.sol\":5203:5296  function setstartTime(uint unixTime) public onlyOwner {\r... */\n    tag_12:\n      tag_55\n      0x04\n      dup1\n      calldatasize\n      sub\n      dup2\n      add\n      swap1\n      tag_56\n      swap2\n      swap1\n      tag_30\n      jump\t// in\n    tag_56:\n      tag_57\n      jump\t// in\n    tag_55:\n      stop\n        /* \"contracts/Founding Citizens NFT Sale.sol\":5401:5845  function calculateCustomPrice(address prospectiveBuyer, uint discountRate) public requiresUpdate view returns(uint) {\r... */\n    tag_13:\n      tag_58\n      0x04\n      dup1\n      calldatasize\n      sub\n      dup2\n      add\n      swap1\n      tag_59\n      swap2\n      swap1\n      tag_60\n      jump\t// in\n    tag_59:\n      tag_61\n      jump\t// in\n    tag_58:\n      mload(0x40)\n      tag_62\n      swap2\n      swap1\n      tag_27\n      jump\t// in\n    tag_62:\n      mload(0x40)\n      dup1\n      swap2\n      sub\n      swap1\n      return\n        /* \"contracts/Founding Citizens NFT Sale.sol\":5304:5393  function setendTime(uint unixTime) public onlyOwner {\r... */\n    tag_14:\n      tag_63\n      0x04\n      dup1\n      calldatasize\n      sub\n      dup2\n      add\n      swap1\n      tag_64\n      swap2\n      swap1\n      tag_30\n      jump\t// in\n    tag_64:\n      tag_65\n      jump\t// in\n    tag_63:\n      stop\n        /* \"contracts/Founding Citizens NFT Sale.sol\":6025:6170  function buyNFT() public pushesUpdate { //requires using existing balance\r... */\n    tag_15:\n      tag_66\n      tag_67\n      jump\t// in\n    tag_66:\n      stop\n        /* \"contracts/Founding Citizens NFT Sale.sol\":3496:3560  Update public lastUpdate = Update(10000, block.timestamp, false) */\n    tag_16:\n      tag_68\n      tag_69\n      jump\t// in\n    tag_68:\n      mload(0x40)\n      tag_70\n      swap4\n      swap3\n      swap2\n      swap1\n      tag_71\n      jump\t// in\n    tag_70:\n      mload(0x40)\n      dup1\n      swap2\n      sub\n      swap1\n      return\n        /* \"contracts/Founding Citizens NFT Sale.sol\":2992:3037  IUsdcStorage public usdcEscrowStorageContract */\n    tag_17:\n      tag_72\n      tag_73\n      jump\t// in\n    tag_72:\n      mload(0x40)\n      tag_74\n      swap2\n      swap1\n      tag_75\n      jump\t// in\n    tag_74:\n      mload(0x40)\n      dup1\n      swap2\n      sub\n      swap1\n      return\n        /* \"contracts/Founding Citizens NFT Sale.sol\":3044:3074  address public treasuryAddress */\n    tag_18:\n      tag_76\n      tag_77\n      jump\t// in\n    tag_76:\n      mload(0x40)\n      tag_78\n      swap2\n      swap1\n      tag_52\n      jump\t// in\n    tag_78:\n      mload(0x40)\n      dup1\n      swap2\n      sub\n      swap1\n      return\n        /* \"contracts/Founding Citizens NFT Sale.sol\":4756:4913  function preLoadURIs(uint[] memory ids, string[] memory uris) public onlyOwner {\r... */\n    tag_19:\n      tag_79\n      0x04\n      dup1\n      calldatasize\n      sub\n      dup2\n      add\n      swap1\n      tag_80\n      swap2\n      swap1\n      tag_81\n      jump\t// in\n    tag_80:\n      tag_82\n      jump\t// in\n    tag_79:\n      stop\n        /* \"@openzeppelin/contracts@4.4.2/access/Ownable.sol\":1918:2116  function transferOwnership(address newOwner) public virtual onlyOwner {... */\n    tag_20:\n      tag_83\n      0x04\n      dup1\n      calldatasize\n      sub\n      dup2\n      add\n      swap1\n      tag_84\n      swap2\n      swap1\n      tag_34\n      jump\t// in\n    tag_84:\n      tag_85\n      jump\t// in\n    tag_83:\n      stop\n        /* \"contracts/Founding Citizens NFT Sale.sol\":5068:5195  function getMaxSupply() public view returns(uint) {\r... */\n    tag_25:\n        /* \"contracts/Founding Citizens NFT Sale.sol\":5112:5116  uint */\n      0x00\n        /* \"contracts/Founding Citizens NFT Sale.sol\":5149:5171  ERC1155storageContract */\n      0x01\n      0x00\n      swap1\n      sload\n      swap1\n      0x0100\n      exp\n      swap1\n      div\n      0xffffffffffffffffffffffffffffffffffffffff\n      and\n        /* \"contracts/Founding Citizens NFT Sale.sol\":5136:5185  IMintStorage(ERC1155storageContract).getMaxSupply */\n      0xffffffffffffffffffffffffffffffffffffffff\n      and\n      0x4c0f38c2\n        /* \"contracts/Founding Citizens NFT Sale.sol\":5136:5187  IMintStorage(ERC1155storageContract).getMaxSupply() */\n      mload(0x40)\n      dup2\n      0xffffffff\n      and\n      0xe0\n      shl\n      dup2\n      mstore\n      0x04\n      add\n      0x20\n      mload(0x40)\n      dup1\n      dup4\n      sub\n      dup2\n      dup7\n      dup1\n      extcodesize\n      iszero\n      dup1\n      iszero\n      tag_87\n      jumpi\n      0x00\n      dup1\n      revert\n    tag_87:\n      pop\n      gas\n      staticcall\n      iszero\n      dup1\n      iszero\n      tag_89\n      jumpi\n      returndatasize\n      0x00\n      dup1\n      returndatacopy\n      revert(0x00, returndatasize)\n    tag_89:\n      pop\n      pop\n      pop\n      pop\n      mload(0x40)\n      returndatasize\n      not(0x1f)\n      0x1f\n      dup3\n      add\n      and\n      dup3\n      add\n      dup1\n      0x40\n      mstore\n      pop\n      dup2\n      add\n      swap1\n      tag_90\n      swap2\n      swap1\n      tag_91\n      jump\t// in\n    tag_90:\n        /* \"contracts/Founding Citizens NFT Sale.sol\":5129:5187  return IMintStorage(ERC1155storageContract).getMaxSupply() */\n      swap1\n      pop\n        /* \"contracts/Founding Citizens NFT Sale.sol\":5068:5195  function getMaxSupply() public view returns(uint) {\r... */\n      swap1\n      jump\t// out\n        /* \"contracts/Founding Citizens NFT Sale.sol\":6178:6348  function buyNftWithDiscount(uint discountRate) public pushesUpdate {\r... */\n    tag_31:\n        /* \"contracts/Founding Citizens NFT Sale.sol\":3743:3756  updateState() */\n      tag_93\n        /* \"contracts/Founding Citizens NFT Sale.sol\":3743:3754  updateState */\n      tag_94\n        /* \"contracts/Founding Citizens NFT Sale.sol\":3743:3756  updateState() */\n      jump\t// in\n    tag_93:\n        /* \"contracts/Founding Citizens NFT Sale.sol\":6256:6266  uint price */\n      0x00\n        /* \"contracts/Founding Citizens NFT Sale.sol\":6269:6315  calculateCustomPrice(msg.sender, discountRate) */\n      tag_96\n        /* \"contracts/Founding Citizens NFT Sale.sol\":6290:6300  msg.sender */\n      caller\n        /* \"contracts/Founding Citizens NFT Sale.sol\":6302:6314  discountRate */\n      dup4\n        /* \"contracts/Founding Citizens NFT Sale.sol\":6269:6289  calculateCustomPrice */\n      tag_61\n        /* \"contracts/Founding Citizens NFT Sale.sol\":6269:6315  calculateCustomPrice(msg.sender, discountRate) */\n      jump\t// in\n    tag_96:\n        /* \"contracts/Founding Citizens NFT Sale.sol\":6256:6315  uint price = calculateCustomPrice(msg.sender, discountRate) */\n      swap1\n      pop\n        /* \"contracts/Founding Citizens NFT Sale.sol\":6326:6340  _buyNFT(price) */\n      tag_97\n        /* \"contracts/Founding Citizens NFT Sale.sol\":6334:6339  price */\n      dup2\n        /* \"contracts/Founding Citizens NFT Sale.sol\":6326:6333  _buyNFT */\n      tag_98\n        /* \"contracts/Founding Citizens NFT Sale.sol\":6326:6340  _buyNFT(price) */\n      jump\t// in\n    tag_97:\n        /* \"contracts/Founding Citizens NFT Sale.sol\":3767:3768  _ */\n      pop\n        /* \"contracts/Founding Citizens NFT Sale.sol\":6178:6348  function buyNftWithDiscount(uint discountRate) public pushesUpdate {\r... */\n      pop\n      jump\t// out\n        /* \"contracts/Founding Citizens NFT Sale.sol\":4461:4609  function setStorageContractAddress(address storageAddress) public onlyOwner {\r... */\n    tag_35:\n        /* \"@openzeppelin/contracts@4.4.2/access/Ownable.sol\":1259:1271  _msgSender() */\n      tag_100\n        /* \"@openzeppelin/contracts@4.4.2/access/Ownable.sol\":1259:1269  _msgSender */\n      tag_101\n        /* \"@openzeppelin/contracts@4.4.2/access/Ownable.sol\":1259:1271  _msgSender() */\n      jump\t// in\n    tag_100:\n        /* \"@openzeppelin/contracts@4.4.2/access/Ownable.sol\":1248:1271  owner() == _msgSender() */\n      0xffffffffffffffffffffffffffffffffffffffff\n      and\n        /* \"@openzeppelin/contracts@4.4.2/access/Ownable.sol\":1248:1255  owner() */\n      tag_102\n        /* \"@openzeppelin/contracts@4.4.2/access/Ownable.sol\":1248:1253  owner */\n      tag_50\n        /* \"@openzeppelin/contracts@4.4.2/access/Ownable.sol\":1248:1255  owner() */\n      jump\t// in\n    tag_102:\n        /* \"@openzeppelin/contracts@4.4.2/access/Ownable.sol\":1248:1271  owner() == _msgSender() */\n      0xffffffffffffffffffffffffffffffffffffffff\n      and\n      eq\n        /* \"@openzeppelin/contracts@4.4.2/access/Ownable.sol\":1240:1308  require(owner() == _msgSender(), \"Ownable: caller is not the owner\") */\n      tag_103\n      jumpi\n      mload(0x40)\n      0x08c379a000000000000000000000000000000000000000000000000000000000\n      dup2\n      mstore\n      0x04\n      add\n      tag_104\n      swap1\n      tag_105\n      jump\t// in\n    tag_104:\n      mload(0x40)\n      dup1\n      swap2\n      sub\n      swap1\n      revert\n    tag_103:\n        /* \"contracts/Founding Citizens NFT Sale.sol\":4586:4600  storageAddress */\n      dup1\n        /* \"contracts/Founding Citizens NFT Sale.sol\":4548:4570  ERC1155storageContract */\n      0x01\n      0x00\n        /* \"contracts/Founding Citizens NFT Sale.sol\":4548:4601  ERC1155storageContract = IMintStorage(storageAddress) */\n      0x0100\n      exp\n      dup2\n      sload\n      dup2\n      0xffffffffffffffffffffffffffffffffffffffff\n      mul\n      not\n      and\n      swap1\n      dup4\n      0xffffffffffffffffffffffffffffffffffffffff\n      and\n      mul\n      or\n      swap1\n      sstore\n      pop\n        /* \"contracts/Founding Citizens NFT Sale.sol\":4461:4609  function setStorageContractAddress(address storageAddress) public onlyOwner {\r... */\n      pop\n      jump\t// out\n        /* \"contracts/Founding Citizens NFT Sale.sol\":2937:2985  IPrivilegedListStorage public privilgedBuyerList */\n    tag_37:\n      0x02\n      0x00\n      swap1\n      sload\n      swap1\n      0x0100\n      exp\n      swap1\n      div\n      0xffffffffffffffffffffffffffffffffffffffff\n      and\n      dup2\n      jump\t// out\n        /* \"contracts/Founding Citizens NFT Sale.sol\":4921:5060  function getNextUnusedToken() public view returns(uint) {\r... */\n    tag_41:\n        /* \"contracts/Founding Citizens NFT Sale.sol\":4971:4975  uint */\n      0x00\n        /* \"contracts/Founding Citizens NFT Sale.sol\":5008:5030  ERC1155storageContract */\n      0x01\n      0x00\n      swap1\n      sload\n      swap1\n      0x0100\n      exp\n      swap1\n      div\n      0xffffffffffffffffffffffffffffffffffffffff\n      and\n        /* \"contracts/Founding Citizens NFT Sale.sol\":4995:5050  IMintStorage(ERC1155storageContract).getNextUnusedToken */\n      0xffffffffffffffffffffffffffffffffffffffff\n      and\n      0x68fc01a2\n        /* \"contracts/Founding Citizens NFT Sale.sol\":4995:5052  IMintStorage(ERC1155storageContract).getNextUnusedToken() */\n      mload(0x40)\n      dup2\n      0xffffffff\n      and\n      0xe0\n      shl\n      dup2\n      mstore\n      0x04\n      add\n      0x20\n      mload(0x40)\n      dup1\n      dup4\n      sub\n      dup2\n      dup7\n      dup1\n      extcodesize\n      iszero\n      dup1\n      iszero\n      tag_108\n      jumpi\n      0x00\n      dup1\n      revert\n    tag_108:\n      pop\n      gas\n      staticcall\n      iszero\n      dup1\n      iszero\n      tag_110\n      jumpi\n      returndatasize\n      0x00\n      dup1\n      returndatacopy\n      revert(0x00, returndatasize)\n    tag_110:\n      pop\n      pop\n      pop\n      pop\n      mload(0x40)\n      returndatasize\n      not(0x1f)\n      0x1f\n      dup3\n      add\n      and\n      dup3\n      add\n      dup1\n      0x40\n      mstore\n      pop\n      dup2\n      add\n      swap1\n      tag_111\n      swap2\n      swap1\n      tag_91\n      jump\t// in\n    tag_111:\n        /* \"contracts/Founding Citizens NFT Sale.sol\":4988:5052  return IMintStorage(ERC1155storageContract).getNextUnusedToken() */\n      swap1\n      pop\n        /* \"contracts/Founding Citizens NFT Sale.sol\":4921:5060  function getNextUnusedToken() public view returns(uint) {\r... */\n      swap1\n      jump\t// out\n        /* \"@openzeppelin/contracts@4.4.2/access/Ownable.sol\":1668:1769  function renounceOwnership() public virtual onlyOwner {... */\n    tag_44:\n        /* \"@openzeppelin/contracts@4.4.2/access/Ownable.sol\":1259:1271  _msgSender() */\n      tag_113\n        /* \"@openzeppelin/contracts@4.4.2/access/Ownable.sol\":1259:1269  _msgSender */\n      tag_101\n        /* \"@openzeppelin/contracts@4.4.2/access/Ownable.sol\":1259:1271  _msgSender() */\n      jump\t// in\n    tag_113:\n        /* \"@openzeppelin/contracts@4.4.2/access/Ownable.sol\":1248:1271  owner() == _msgSender() */\n      0xffffffffffffffffffffffffffffffffffffffff\n      and\n        /* \"@openzeppelin/contracts@4.4.2/access/Ownable.sol\":1248:1255  owner() */\n      tag_114\n        /* \"@openzeppelin/contracts@4.4.2/access/Ownable.sol\":1248:1253  owner */\n      tag_50\n        /* \"@openzeppelin/contracts@4.4.2/access/Ownable.sol\":1248:1255  owner() */\n      jump\t// in\n    tag_114:\n        /* \"@openzeppelin/contracts@4.4.2/access/Ownable.sol\":1248:1271  owner() == _msgSender() */\n      0xffffffffffffffffffffffffffffffffffffffff\n      and\n      eq\n        /* \"@openzeppelin/contracts@4.4.2/access/Ownable.sol\":1240:1308  require(owner() == _msgSender(), \"Ownable: caller is not the owner\") */\n      tag_115\n      jumpi\n      mload(0x40)\n      0x08c379a000000000000000000000000000000000000000000000000000000000\n      dup2\n      mstore\n      0x04\n      add\n      tag_116\n      swap1\n      tag_105\n      jump\t// in\n    tag_116:\n      mload(0x40)\n      dup1\n      swap2\n      sub\n      swap1\n      revert\n    tag_115:\n        /* \"@openzeppelin/contracts@4.4.2/access/Ownable.sol\":1732:1762  _transferOwnership(address(0)) */\n      tag_118\n        /* \"@openzeppelin/contracts@4.4.2/access/Ownable.sol\":1759:1760  0 */\n      0x00\n        /* \"@openzeppelin/contracts@4.4.2/access/Ownable.sol\":1732:1750  _transferOwnership */\n      tag_119\n        /* \"@openzeppelin/contracts@4.4.2/access/Ownable.sol\":1732:1762  _transferOwnership(address(0)) */\n      jump\t// in\n    tag_118:\n        /* \"@openzeppelin/contracts@4.4.2/access/Ownable.sol\":1668:1769  function renounceOwnership() public virtual onlyOwner {... */\n      jump\t// out\n        /* \"contracts/Founding Citizens NFT Sale.sol\":2888:2930  IMintStorage public ERC1155storageContract */\n    tag_46:\n      0x01\n      0x00\n      swap1\n      sload\n      swap1\n      0x0100\n      exp\n      swap1\n      div\n      0xffffffffffffffffffffffffffffffffffffffff\n      and\n      dup2\n      jump\t// out\n        /* \"@openzeppelin/contracts@4.4.2/access/Ownable.sol\":1036:1121  function owner() public view virtual returns (address) {... */\n    tag_50:\n        /* \"@openzeppelin/contracts@4.4.2/access/Ownable.sol\":1082:1089  address */\n      0x00\n        /* \"@openzeppelin/contracts@4.4.2/access/Ownable.sol\":1108:1114  _owner */\n      dup1\n      0x00\n      swap1\n      sload\n      swap1\n      0x0100\n      exp\n      swap1\n      div\n      0xffffffffffffffffffffffffffffffffffffffff\n      and\n        /* \"@openzeppelin/contracts@4.4.2/access/Ownable.sol\":1101:1114  return _owner */\n      swap1\n      pop\n        /* \"@openzeppelin/contracts@4.4.2/access/Ownable.sol\":1036:1121  function owner() public view virtual returns (address) {... */\n      swap1\n      jump\t// out\n        /* \"contracts/Founding Citizens NFT Sale.sol\":6356:6729  function mintToTreasuryAddress() public requiresUpdate {\r... */\n    tag_54:\n        /* \"contracts/Founding Citizens NFT Sale.sol\":3633:3648  block.timestamp */\n      timestamp\n        /* \"contracts/Founding Citizens NFT Sale.sol\":3614:3624  lastUpdate */\n      0x0a\n        /* \"contracts/Founding Citizens NFT Sale.sol\":3614:3629  lastUpdate.time */\n      0x01\n      add\n      sload\n        /* \"contracts/Founding Citizens NFT Sale.sol\":3614:3648  lastUpdate.time == block.timestamp */\n      eq\n        /* \"contracts/Founding Citizens NFT Sale.sol\":3606:3680  require(lastUpdate.time == block.timestamp, \"timestamp is not up-to-date\") */\n      tag_122\n      jumpi\n      mload(0x40)\n      0x08c379a000000000000000000000000000000000000000000000000000000000\n      dup2\n      mstore\n      0x04\n      add\n      tag_123\n      swap1\n      tag_124\n      jump\t// in\n    tag_123:\n      mload(0x40)\n      dup1\n      swap2\n      sub\n      swap1\n      revert\n    tag_122:\n        /* \"contracts/Founding Citizens NFT Sale.sol\":6448:6455  endTime */\n      sload(0x06)\n        /* \"contracts/Founding Citizens NFT Sale.sol\":6430:6445  block.timestamp */\n      timestamp\n        /* \"contracts/Founding Citizens NFT Sale.sol\":6430:6455  block.timestamp > endTime */\n      gt\n        /* \"contracts/Founding Citizens NFT Sale.sol\":6430:6481  block.timestamp > endTime && !lastUpdate.saleIsLive */\n      dup1\n      iszero\n      tag_126\n      jumpi\n      pop\n        /* \"contracts/Founding Citizens NFT Sale.sol\":6460:6470  lastUpdate */\n      0x0a\n        /* \"contracts/Founding Citizens NFT Sale.sol\":6460:6481  lastUpdate.saleIsLive */\n      0x02\n      add\n      0x00\n      swap1\n      sload\n      swap1\n      0x0100\n      exp\n      swap1\n      div\n      0xff\n      and\n        /* \"contracts/Founding Citizens NFT Sale.sol\":6459:6481  !lastUpdate.saleIsLive */\n      iszero\n        /* \"contracts/Founding Citizens NFT Sale.sol\":6430:6481  block.timestamp > endTime && !lastUpdate.saleIsLive */\n    tag_126:\n        /* \"contracts/Founding Citizens NFT Sale.sol\":6422:6540  require(block.timestamp > endTime && !lastUpdate.saleIsLive, \"Cannot mint to treasury address until sale is finished\") */\n      tag_127\n      jumpi\n      mload(0x40)\n      0x08c379a000000000000000000000000000000000000000000000000000000000\n      dup2\n      mstore\n      0x04\n      add\n      tag_128\n      swap1\n      tag_129\n      jump\t// in\n    tag_128:\n      mload(0x40)\n      dup1\n      swap2\n      sub\n      swap1\n      revert\n    tag_127:\n        /* \"contracts/Founding Citizens NFT Sale.sol\":6551:6566  uint leftToMint */\n      0x00\n        /* \"contracts/Founding Citizens NFT Sale.sol\":6608:6609  1 */\n      0x01\n        /* \"contracts/Founding Citizens NFT Sale.sol\":6587:6607  getNextUnusedToken() */\n      tag_130\n        /* \"contracts/Founding Citizens NFT Sale.sol\":6587:6605  getNextUnusedToken */\n      tag_41\n        /* \"contracts/Founding Citizens NFT Sale.sol\":6587:6607  getNextUnusedToken() */\n      jump\t// in\n    tag_130:\n        /* \"contracts/Founding Citizens NFT Sale.sol\":6587:6609  getNextUnusedToken()-1 */\n      tag_131\n      swap2\n      swap1\n      tag_132\n      jump\t// in\n    tag_131:\n        /* \"contracts/Founding Citizens NFT Sale.sol\":6569:6583  getMaxSupply() */\n      tag_133\n        /* \"contracts/Founding Citizens NFT Sale.sol\":6569:6581  getMaxSupply */\n      tag_25\n        /* \"contracts/Founding Citizens NFT Sale.sol\":6569:6583  getMaxSupply() */\n      jump\t// in\n    tag_133:\n        /* \"contracts/Founding Citizens NFT Sale.sol\":6569:6610  getMaxSupply() - (getNextUnusedToken()-1) */\n      tag_134\n      swap2\n      swap1\n      tag_132\n      jump\t// in\n    tag_134:\n        /* \"contracts/Founding Citizens NFT Sale.sol\":6551:6610  uint leftToMint = getMaxSupply() - (getNextUnusedToken()-1) */\n      swap1\n      pop\n        /* \"contracts/Founding Citizens NFT Sale.sol\":6621:6722  for (; leftToMint > 0; leftToMint--) {\r... */\n    tag_135:\n        /* \"contracts/Founding Citizens NFT Sale.sol\":6641:6642  0 */\n      0x00\n        /* \"contracts/Founding Citizens NFT Sale.sol\":6628:6638  leftToMint */\n      dup2\n        /* \"contracts/Founding Citizens NFT Sale.sol\":6628:6642  leftToMint > 0 */\n      gt\n        /* \"contracts/Founding Citizens NFT Sale.sol\":6621:6722  for (; leftToMint > 0; leftToMint--) {\r... */\n      iszero\n      tag_136\n      jumpi\n        /* \"contracts/Founding Citizens NFT Sale.sol\":6673:6710  mintNextNftToAddress(treasuryAddress) */\n      tag_138\n        /* \"contracts/Founding Citizens NFT Sale.sol\":6694:6709  treasuryAddress */\n      0x04\n      0x00\n      swap1\n      sload\n      swap1\n      0x0100\n      exp\n      swap1\n      div\n      0xffffffffffffffffffffffffffffffffffffffff\n      and\n        /* \"contracts/Founding Citizens NFT Sale.sol\":6673:6693  mintNextNftToAddress */\n      tag_139\n        /* \"contracts/Founding Citizens NFT Sale.sol\":6673:6710  mintNextNftToAddress(treasuryAddress) */\n      jump\t// in\n    tag_138:\n        /* \"contracts/Founding Citizens NFT Sale.sol\":6644:6656  leftToMint-- */\n      dup1\n      dup1\n      tag_140\n      swap1\n      tag_141\n      jump\t// in\n    tag_140:\n      swap2\n      pop\n      pop\n        /* \"contracts/Founding Citizens NFT Sale.sol\":6621:6722  for (; leftToMint > 0; leftToMint--) {\r... */\n      jump(tag_135)\n    tag_136:\n        /* \"contracts/Founding Citizens NFT Sale.sol\":3691:3692  _ */\n      pop\n        /* \"contracts/Founding Citizens NFT Sale.sol\":6356:6729  function mintToTreasuryAddress() public requiresUpdate {\r... */\n      jump\t// out\n        /* \"contracts/Founding Citizens NFT Sale.sol\":5203:5296  function setstartTime(uint unixTime) public onlyOwner {\r... */\n    tag_57:\n        /* \"@openzeppelin/contracts@4.4.2/access/Ownable.sol\":1259:1271  _msgSender() */\n      tag_143\n        /* \"@openzeppelin/contracts@4.4.2/access/Ownable.sol\":1259:1269  _msgSender */\n      tag_101\n        /* \"@openzeppelin/contracts@4.4.2/access/Ownable.sol\":1259:1271  _msgSender() */\n      jump\t// in\n    tag_143:\n        /* \"@openzeppelin/contracts@4.4.2/access/Ownable.sol\":1248:1271  owner() == _msgSender() */\n      0xffffffffffffffffffffffffffffffffffffffff\n      and\n        /* \"@openzeppelin/contracts@4.4.2/access/Ownable.sol\":1248:1255  owner() */\n      tag_144\n        /* \"@openzeppelin/contracts@4.4.2/access/Ownable.sol\":1248:1253  owner */\n      tag_50\n        /* \"@openzeppelin/contracts@4.4.2/access/Ownable.sol\":1248:1255  owner() */\n      jump\t// in\n    tag_144:\n        /* \"@openzeppelin/contracts@4.4.2/access/Ownable.sol\":1248:1271  owner() == _msgSender() */\n      0xffffffffffffffffffffffffffffffffffffffff\n      and\n      eq\n        /* \"@openzeppelin/contracts@4.4.2/access/Ownable.sol\":1240:1308  require(owner() == _msgSender(), \"Ownable: caller is not the owner\") */\n      tag_145\n      jumpi\n      mload(0x40)\n      0x08c379a000000000000000000000000000000000000000000000000000000000\n      dup2\n      mstore\n      0x04\n      add\n      tag_146\n      swap1\n      tag_105\n      jump\t// in\n    tag_146:\n      mload(0x40)\n      dup1\n      swap2\n      sub\n      swap1\n      revert\n    tag_145:\n        /* \"contracts/Founding Citizens NFT Sale.sol\":5280:5288  unixTime */\n      dup1\n        /* \"contracts/Founding Citizens NFT Sale.sol\":5268:5277  startTime */\n      0x05\n        /* \"contracts/Founding Citizens NFT Sale.sol\":5268:5288  startTime = unixTime */\n      dup2\n      swap1\n      sstore\n      pop\n        /* \"contracts/Founding Citizens NFT Sale.sol\":5203:5296  function setstartTime(uint unixTime) public onlyOwner {\r... */\n      pop\n      jump\t// out\n        /* \"contracts/Founding Citizens NFT Sale.sol\":5401:5845  function calculateCustomPrice(address prospectiveBuyer, uint discountRate) public requiresUpdate view returns(uint) {\r... */\n    tag_61:\n        /* \"contracts/Founding Citizens NFT Sale.sol\":5511:5515  uint */\n      0x00\n        /* \"contracts/Founding Citizens NFT Sale.sol\":3633:3648  block.timestamp */\n      timestamp\n        /* \"contracts/Founding Citizens NFT Sale.sol\":3614:3624  lastUpdate */\n      0x0a\n        /* \"contracts/Founding Citizens NFT Sale.sol\":3614:3629  lastUpdate.time */\n      0x01\n      add\n      sload\n        /* \"contracts/Founding Citizens NFT Sale.sol\":3614:3648  lastUpdate.time == block.timestamp */\n      eq\n        /* \"contracts/Founding Citizens NFT Sale.sol\":3606:3680  require(lastUpdate.time == block.timestamp, \"timestamp is not up-to-date\") */\n      tag_149\n      jumpi\n      mload(0x40)\n      0x08c379a000000000000000000000000000000000000000000000000000000000\n      dup2\n      mstore\n      0x04\n      add\n      tag_150\n      swap1\n      tag_124\n      jump\t// in\n    tag_150:\n      mload(0x40)\n      dup1\n      swap2\n      sub\n      swap1\n      revert\n    tag_149:\n        /* \"contracts/Founding Citizens NFT Sale.sol\":5536:5554  privilgedBuyerList */\n      0x02\n      0x00\n      swap1\n      sload\n      swap1\n      0x0100\n      exp\n      swap1\n      div\n      0xffffffffffffffffffffffffffffffffffffffff\n      and\n        /* \"contracts/Founding Citizens NFT Sale.sol\":5536:5571  privilgedBuyerList.addressHasCoupon */\n      0xffffffffffffffffffffffffffffffffffffffff\n      and\n      0x2080179d\n        /* \"contracts/Founding Citizens NFT Sale.sol\":5572:5588  prospectiveBuyer */\n      dup5\n        /* \"contracts/Founding Citizens NFT Sale.sol\":5590:5602  discountRate */\n      dup5\n        /* \"contracts/Founding Citizens NFT Sale.sol\":5536:5603  privilgedBuyerList.addressHasCoupon(prospectiveBuyer, discountRate) */\n      mload(0x40)\n      dup4\n      0xffffffff\n      and\n      0xe0\n      shl\n      dup2\n      mstore\n      0x04\n      add\n      tag_152\n      swap3\n      swap2\n      swap1\n      tag_153\n      jump\t// in\n    tag_152:\n      0x20\n      mload(0x40)\n      dup1\n      dup4\n      sub\n      dup2\n      dup7\n      dup1\n      extcodesize\n      iszero\n      dup1\n      iszero\n      tag_154\n      jumpi\n      0x00\n      dup1\n      revert\n    tag_154:\n      pop\n      gas\n      staticcall\n      iszero\n      dup1\n      iszero\n      tag_156\n      jumpi\n      returndatasize\n      0x00\n      dup1\n      returndatacopy\n      revert(0x00, returndatasize)\n    tag_156:\n      pop\n      pop\n      pop\n      pop\n      mload(0x40)\n      returndatasize\n      not(0x1f)\n      0x1f\n      dup3\n      add\n      and\n      dup3\n      add\n      dup1\n      0x40\n      mstore\n      pop\n      dup2\n      add\n      swap1\n      tag_157\n      swap2\n      swap1\n      tag_158\n      jump\t// in\n    tag_157:\n        /* \"contracts/Founding Citizens NFT Sale.sol\":5655:5671  prospectiveBuyer */\n      dup4\n        /* \"contracts/Founding Citizens NFT Sale.sol\":5725:5737  discountRate */\n      dup4\n        /* \"contracts/Founding Citizens NFT Sale.sol\":5612:5743  abi.encodePacked(\r... */\n      add(0x20, mload(0x40))\n      tag_159\n      swap3\n      swap2\n      swap1\n      tag_160\n      jump\t// in\n    tag_159:\n      mload(0x40)\n      0x20\n      dup2\n      dup4\n      sub\n      sub\n      dup2\n      mstore\n      swap1\n      0x40\n      mstore\n        /* \"contracts/Founding Citizens NFT Sale.sol\":5528:5745  require(privilgedBuyerList.addressHasCoupon(prospectiveBuyer, discountRate), string(abi.encodePacked(\r... */\n      swap1\n      tag_161\n      jumpi\n      mload(0x40)\n      0x08c379a000000000000000000000000000000000000000000000000000000000\n      dup2\n      mstore\n      0x04\n      add\n      tag_162\n      swap2\n      swap1\n      tag_163\n      jump\t// in\n    tag_162:\n      mload(0x40)\n      dup1\n      swap2\n      sub\n      swap1\n      revert\n    tag_161:\n      pop\n        /* \"contracts/Founding Citizens NFT Sale.sol\":5756:5766  uint price */\n      0x00\n        /* \"contracts/Founding Citizens NFT Sale.sol\":5801:5813  discountRate */\n      dup3\n        /* \"contracts/Founding Citizens NFT Sale.sol\":5795:5798  100 */\n      0x64\n        /* \"contracts/Founding Citizens NFT Sale.sol\":5795:5813  100 - discountRate */\n      tag_164\n      swap2\n      swap1\n      tag_132\n      jump\t// in\n    tag_164:\n        /* \"contracts/Founding Citizens NFT Sale.sol\":5788:5791  100 */\n      0x64\n        /* \"contracts/Founding Citizens NFT Sale.sol\":5769:5779  lastUpdate */\n      0x0a\n        /* \"contracts/Founding Citizens NFT Sale.sol\":5769:5785  lastUpdate.price */\n      0x00\n      add\n      sload\n        /* \"contracts/Founding Citizens NFT Sale.sol\":5769:5791  lastUpdate.price / 100 */\n      tag_165\n      swap2\n      swap1\n      tag_166\n      jump\t// in\n    tag_165:\n        /* \"contracts/Founding Citizens NFT Sale.sol\":5769:5814  lastUpdate.price / 100 * (100 - discountRate) */\n      tag_167\n      swap2\n      swap1\n      tag_168\n      jump\t// in\n    tag_167:\n        /* \"contracts/Founding Citizens NFT Sale.sol\":5756:5814  uint price = lastUpdate.price / 100 * (100 - discountRate) */\n      swap1\n      pop\n        /* \"contracts/Founding Citizens NFT Sale.sol\":5832:5837  price */\n      dup1\n        /* \"contracts/Founding Citizens NFT Sale.sol\":5825:5837  return price */\n      swap2\n      pop\n      pop\n        /* \"contracts/Founding Citizens NFT Sale.sol\":5401:5845  function calculateCustomPrice(address prospectiveBuyer, uint discountRate) public requiresUpdate view returns(uint) {\r... */\n      swap3\n      swap2\n      pop\n      pop\n      jump\t// out\n        /* \"contracts/Founding Citizens NFT Sale.sol\":5304:5393  function setendTime(uint unixTime) public onlyOwner {\r... */\n    tag_65:\n        /* \"@openzeppelin/contracts@4.4.2/access/Ownable.sol\":1259:1271  _msgSender() */\n      tag_170\n        /* \"@openzeppelin/contracts@4.4.2/access/Ownable.sol\":1259:1269  _msgSender */\n      tag_101\n        /* \"@openzeppelin/contracts@4.4.2/access/Ownable.sol\":1259:1271  _msgSender() */\n      jump\t// in\n    tag_170:\n        /* \"@openzeppelin/contracts@4.4.2/access/Ownable.sol\":1248:1271  owner() == _msgSender() */\n      0xffffffffffffffffffffffffffffffffffffffff\n      and\n        /* \"@openzeppelin/contracts@4.4.2/access/Ownable.sol\":1248:1255  owner() */\n      tag_171\n        /* \"@openzeppelin/contracts@4.4.2/access/Ownable.sol\":1248:1253  owner */\n      tag_50\n        /* \"@openzeppelin/contracts@4.4.2/access/Ownable.sol\":1248:1255  owner() */\n      jump\t// in\n    tag_171:\n        /* \"@openzeppelin/contracts@4.4.2/access/Ownable.sol\":1248:1271  owner() == _msgSender() */\n      0xffffffffffffffffffffffffffffffffffffffff\n      and\n      eq\n        /* \"@openzeppelin/contracts@4.4.2/access/Ownable.sol\":1240:1308  require(owner() == _msgSender(), \"Ownable: caller is not the owner\") */\n      tag_172\n      jumpi\n      mload(0x40)\n      0x08c379a000000000000000000000000000000000000000000000000000000000\n      dup2\n      mstore\n      0x04\n      add\n      tag_173\n      swap1\n      tag_105\n      jump\t// in\n    tag_173:\n      mload(0x40)\n      dup1\n      swap2\n      sub\n      swap1\n      revert\n    tag_172:\n        /* \"contracts/Founding Citizens NFT Sale.sol\":5377:5385  unixTime */\n      dup1\n        /* \"contracts/Founding Citizens NFT Sale.sol\":5367:5374  endTime */\n      0x06\n        /* \"contracts/Founding Citizens NFT Sale.sol\":5367:5385  endTime = unixTime */\n      dup2\n      swap1\n      sstore\n      pop\n        /* \"contracts/Founding Citizens NFT Sale.sol\":5304:5393  function setendTime(uint unixTime) public onlyOwner {\r... */\n      pop\n      jump\t// out\n        /* \"contracts/Founding Citizens NFT Sale.sol\":6025:6170  function buyNFT() public pushesUpdate { //requires using existing balance\r... */\n    tag_67:\n        /* \"contracts/Founding Citizens NFT Sale.sol\":3743:3756  updateState() */\n      tag_176\n        /* \"contracts/Founding Citizens NFT Sale.sol\":3743:3754  updateState */\n      tag_94\n        /* \"contracts/Founding Citizens NFT Sale.sol\":3743:3756  updateState() */\n      jump\t// in\n    tag_176:\n        /* \"contracts/Founding Citizens NFT Sale.sol\":6108:6118  uint price */\n      0x00\n        /* \"contracts/Founding Citizens NFT Sale.sol\":6121:6131  lastUpdate */\n      0x0a\n        /* \"contracts/Founding Citizens NFT Sale.sol\":6121:6137  lastUpdate.price */\n      0x00\n      add\n      sload\n        /* \"contracts/Founding Citizens NFT Sale.sol\":6108:6137  uint price = lastUpdate.price */\n      swap1\n      pop\n        /* \"contracts/Founding Citizens NFT Sale.sol\":6148:6162  _buyNFT(price) */\n      tag_178\n        /* \"contracts/Founding Citizens NFT Sale.sol\":6156:6161  price */\n      dup2\n        /* \"contracts/Founding Citizens NFT Sale.sol\":6148:6155  _buyNFT */\n      tag_98\n        /* \"contracts/Founding Citizens NFT Sale.sol\":6148:6162  _buyNFT(price) */\n      jump\t// in\n    tag_178:\n        /* \"contracts/Founding Citizens NFT Sale.sol\":3767:3768  _ */\n      pop\n        /* \"contracts/Founding Citizens NFT Sale.sol\":6025:6170  function buyNFT() public pushesUpdate { //requires using existing balance\r... */\n      jump\t// out\n        /* \"contracts/Founding Citizens NFT Sale.sol\":3496:3560  Update public lastUpdate = Update(10000, block.timestamp, false) */\n    tag_69:\n      0x0a\n      dup1\n      0x00\n      add\n      sload\n      swap1\n      dup1\n      0x01\n      add\n      sload\n      swap1\n      dup1\n      0x02\n      add\n      0x00\n      swap1\n      sload\n      swap1\n      0x0100\n      exp\n      swap1\n      div\n      0xff\n      and\n      swap1\n      pop\n      dup4\n      jump\t// out\n        /* \"contracts/Founding Citizens NFT Sale.sol\":2992:3037  IUsdcStorage public usdcEscrowStorageContract */\n    tag_73:\n      0x03\n      0x00\n      swap1\n      sload\n      swap1\n      0x0100\n      exp\n      swap1\n      div\n      0xffffffffffffffffffffffffffffffffffffffff\n      and\n      dup2\n      jump\t// out\n        /* \"contracts/Founding Citizens NFT Sale.sol\":3044:3074  address public treasuryAddress */\n    tag_77:\n      0x04\n      0x00\n      swap1\n      sload\n      swap1\n      0x0100\n      exp\n      swap1\n      div\n      0xffffffffffffffffffffffffffffffffffffffff\n      and\n      dup2\n      jump\t// out\n        /* \"contracts/Founding Citizens NFT Sale.sol\":4756:4913  function preLoadURIs(uint[] memory ids, string[] memory uris) public onlyOwner {\r... */\n    tag_82:\n        /* \"@openzeppelin/contracts@4.4.2/access/Ownable.sol\":1259:1271  _msgSender() */\n      tag_180\n        /* \"@openzeppelin/contracts@4.4.2/access/Ownable.sol\":1259:1269  _msgSender */\n      tag_101\n        /* \"@openzeppelin/contracts@4.4.2/access/Ownable.sol\":1259:1271  _msgSender() */\n      jump\t// in\n    tag_180:\n        /* \"@openzeppelin/contracts@4.4.2/access/Ownable.sol\":1248:1271  owner() == _msgSender() */\n      0xffffffffffffffffffffffffffffffffffffffff\n      and\n        /* \"@openzeppelin/contracts@4.4.2/access/Ownable.sol\":1248:1255  owner() */\n      tag_181\n        /* \"@openzeppelin/contracts@4.4.2/access/Ownable.sol\":1248:1253  owner */\n      tag_50\n        /* \"@openzeppelin/contracts@4.4.2/access/Ownable.sol\":1248:1255  owner() */\n      jump\t// in\n    tag_181:\n        /* \"@openzeppelin/contracts@4.4.2/access/Ownable.sol\":1248:1271  owner() == _msgSender() */\n      0xffffffffffffffffffffffffffffffffffffffff\n      and\n      eq\n        /* \"@openzeppelin/contracts@4.4.2/access/Ownable.sol\":1240:1308  require(owner() == _msgSender(), \"Ownable: caller is not the owner\") */\n      tag_182\n      jumpi\n      mload(0x40)\n      0x08c379a000000000000000000000000000000000000000000000000000000000\n      dup2\n      mstore\n      0x04\n      add\n      tag_183\n      swap1\n      tag_105\n      jump\t// in\n    tag_183:\n      mload(0x40)\n      dup1\n      swap2\n      sub\n      swap1\n      revert\n    tag_182:\n        /* \"contracts/Founding Citizens NFT Sale.sol\":4859:4881  ERC1155storageContract */\n      0x01\n      0x00\n      swap1\n      sload\n      swap1\n      0x0100\n      exp\n      swap1\n      div\n      0xffffffffffffffffffffffffffffffffffffffff\n      and\n        /* \"contracts/Founding Citizens NFT Sale.sol\":4846:4894  IMintStorage(ERC1155storageContract).preLoadURIs */\n      0xffffffffffffffffffffffffffffffffffffffff\n      and\n      0xf121da92\n        /* \"contracts/Founding Citizens NFT Sale.sol\":4895:4898  ids */\n      dup4\n        /* \"contracts/Founding Citizens NFT Sale.sol\":4900:4904  uris */\n      dup4\n        /* \"contracts/Founding Citizens NFT Sale.sol\":4846:4905  IMintStorage(ERC1155storageContract).preLoadURIs(ids, uris) */\n      mload(0x40)\n      dup4\n      0xffffffff\n      and\n      0xe0\n      shl\n      dup2\n      mstore\n      0x04\n      add\n      tag_185\n      swap3\n      swap2\n      swap1\n      tag_186\n      jump\t// in\n    tag_185:\n      0x00\n      mload(0x40)\n      dup1\n      dup4\n      sub\n      dup2\n      0x00\n      dup8\n      dup1\n      extcodesize\n      iszero\n      dup1\n      iszero\n      tag_187\n      jumpi\n      0x00\n      dup1\n      revert\n    tag_187:\n      pop\n      gas\n      call\n      iszero\n      dup1\n      iszero\n      tag_189\n      jumpi\n      returndatasize\n      0x00\n      dup1\n      returndatacopy\n      revert(0x00, returndatasize)\n    tag_189:\n      pop\n      pop\n      pop\n      pop\n        /* \"contracts/Founding Citizens NFT Sale.sol\":4756:4913  function preLoadURIs(uint[] memory ids, string[] memory uris) public onlyOwner {\r... */\n      pop\n      pop\n      jump\t// out\n        /* \"@openzeppelin/contracts@4.4.2/access/Ownable.sol\":1918:2116  function transferOwnership(address newOwner) public virtual onlyOwner {... */\n    tag_85:\n        /* \"@openzeppelin/contracts@4.4.2/access/Ownable.sol\":1259:1271  _msgSender() */\n      tag_191\n        /* \"@openzeppelin/contracts@4.4.2/access/Ownable.sol\":1259:1269  _msgSender */\n      tag_101\n        /* \"@openzeppelin/contracts@4.4.2/access/Ownable.sol\":1259:1271  _msgSender() */\n      jump\t// in\n    tag_191:\n        /* \"@openzeppelin/contracts@4.4.2/access/Ownable.sol\":1248:1271  owner() == _msgSender() */\n      0xffffffffffffffffffffffffffffffffffffffff\n      and\n        /* \"@openzeppelin/contracts@4.4.2/access/Ownable.sol\":1248:1255  owner() */\n      tag_192\n        /* \"@openzeppelin/contracts@4.4.2/access/Ownable.sol\":1248:1253  owner */\n      tag_50\n        /* \"@openzeppelin/contracts@4.4.2/access/Ownable.sol\":1248:1255  owner() */\n      jump\t// in\n    tag_192:\n        /* \"@openzeppelin/contracts@4.4.2/access/Ownable.sol\":1248:1271  owner() == _msgSender() */\n      0xffffffffffffffffffffffffffffffffffffffff\n      and\n      eq\n        /* \"@openzeppelin/contracts@4.4.2/access/Ownable.sol\":1240:1308  require(owner() == _msgSender(), \"Ownable: caller is not the owner\") */\n      tag_193\n      jumpi\n      mload(0x40)\n      0x08c379a000000000000000000000000000000000000000000000000000000000\n      dup2\n      mstore\n      0x04\n      add\n      tag_194\n      swap1\n      tag_105\n      jump\t// in\n    tag_194:\n      mload(0x40)\n      dup1\n      swap2\n      sub\n      swap1\n      revert\n    tag_193:\n        /* \"@openzeppelin/contracts@4.4.2/access/Ownable.sol\":2026:2027  0 */\n      0x00\n        /* \"@openzeppelin/contracts@4.4.2/access/Ownable.sol\":2006:2028  newOwner != address(0) */\n      0xffffffffffffffffffffffffffffffffffffffff\n      and\n        /* \"@openzeppelin/contracts@4.4.2/access/Ownable.sol\":2006:2014  newOwner */\n      dup2\n        /* \"@openzeppelin/contracts@4.4.2/access/Ownable.sol\":2006:2028  newOwner != address(0) */\n      0xffffffffffffffffffffffffffffffffffffffff\n      and\n      eq\n      iszero\n        /* \"@openzeppelin/contracts@4.4.2/access/Ownable.sol\":1998:2071  require(newOwner != address(0), \"Ownable: new owner is the zero address\") */\n      tag_196\n      jumpi\n      mload(0x40)\n      0x08c379a000000000000000000000000000000000000000000000000000000000\n      dup2\n      mstore\n      0x04\n      add\n      tag_197\n      swap1\n      tag_198\n      jump\t// in\n    tag_197:\n      mload(0x40)\n      dup1\n      swap2\n      sub\n      swap1\n      revert\n    tag_196:\n        /* \"@openzeppelin/contracts@4.4.2/access/Ownable.sol\":2081:2109  _transferOwnership(newOwner) */\n      tag_199\n        /* \"@openzeppelin/contracts@4.4.2/access/Ownable.sol\":2100:2108  newOwner */\n      dup2\n        /* \"@openzeppelin/contracts@4.4.2/access/Ownable.sol\":2081:2099  _transferOwnership */\n      tag_119\n        /* \"@openzeppelin/contracts@4.4.2/access/Ownable.sol\":2081:2109  _transferOwnership(newOwner) */\n      jump\t// in\n    tag_199:\n        /* \"@openzeppelin/contracts@4.4.2/access/Ownable.sol\":1918:2116  function transferOwnership(address newOwner) public virtual onlyOwner {... */\n      pop\n      jump\t// out\n        /* \"contracts/Founding Citizens NFT Sale.sol\":3962:4453  function updateState() internal requiresConsistentState {\r... */\n    tag_94:\n        /* \"contracts/Founding Citizens NFT Sale.sol\":3851:3858  endTime */\n      sload(0x06)\n        /* \"contracts/Founding Citizens NFT Sale.sol\":3838:3847  startTime */\n      sload(0x05)\n        /* \"contracts/Founding Citizens NFT Sale.sol\":3838:3858  startTime <= endTime */\n      gt\n      iszero\n        /* \"contracts/Founding Citizens NFT Sale.sol\":3830:3894  require(startTime <= endTime, \"startTime is later than endTime\") */\n      tag_201\n      jumpi\n      mload(0x40)\n      0x08c379a000000000000000000000000000000000000000000000000000000000\n      dup2\n      mstore\n      0x04\n      add\n      tag_202\n      swap1\n      tag_203\n      jump\t// in\n    tag_202:\n      mload(0x40)\n      dup1\n      swap2\n      sub\n      swap1\n      revert\n    tag_201:\n        /* \"contracts/Founding Citizens NFT Sale.sol\":3391:3392  1 */\n      0x01\n        /* \"contracts/Founding Citizens NFT Sale.sol\":4118:4120  60 */\n      0x3c\n        /* \"contracts/Founding Citizens NFT Sale.sol\":4105:4114  startTime */\n      sload(0x05)\n        /* \"contracts/Founding Citizens NFT Sale.sol\":4087:4102  block.timestamp */\n      timestamp\n        /* \"contracts/Founding Citizens NFT Sale.sol\":4087:4114  block.timestamp - startTime */\n      tag_205\n      swap2\n      swap1\n      tag_132\n      jump\t// in\n    tag_205:\n        /* \"contracts/Founding Citizens NFT Sale.sol\":4086:4120  (block.timestamp - startTime) / 60 */\n      tag_206\n      swap2\n      swap1\n      tag_166\n      jump\t// in\n    tag_206:\n        /* \"contracts/Founding Citizens NFT Sale.sol\":4086:4145  (block.timestamp - startTime) / 60 * priceDescresePerMinute */\n      tag_207\n      swap2\n      swap1\n      tag_168\n      jump\t// in\n    tag_207:\n        /* \"contracts/Founding Citizens NFT Sale.sol\":4072:4082  startPrice */\n      sload(0x08)\n        /* \"contracts/Founding Citizens NFT Sale.sol\":4072:4146  startPrice - ((block.timestamp - startTime) / 60 * priceDescresePerMinute) */\n      tag_208\n      swap2\n      swap1\n      tag_132\n      jump\t// in\n    tag_208:\n        /* \"contracts/Founding Citizens NFT Sale.sol\":4053:4063  lastUpdate */\n      0x0a\n        /* \"contracts/Founding Citizens NFT Sale.sol\":4053:4069  lastUpdate.price */\n      0x00\n      add\n        /* \"contracts/Founding Citizens NFT Sale.sol\":4053:4146  lastUpdate.price = startPrice - ((block.timestamp - startTime) / 60 * priceDescresePerMinute) */\n      dup2\n      swap1\n      sstore\n      pop\n        /* \"contracts/Founding Citizens NFT Sale.sol\":4200:4215  block.timestamp */\n      timestamp\n        /* \"contracts/Founding Citizens NFT Sale.sol\":4182:4192  lastUpdate */\n      0x0a\n        /* \"contracts/Founding Citizens NFT Sale.sol\":4182:4197  lastUpdate.time */\n      0x01\n      add\n        /* \"contracts/Founding Citizens NFT Sale.sol\":4182:4215  lastUpdate.time = block.timestamp */\n      dup2\n      swap1\n      sstore\n      pop\n        /* \"contracts/Founding Citizens NFT Sale.sol\":4288:4297  startTime */\n      sload(0x05)\n        /* \"contracts/Founding Citizens NFT Sale.sol\":4269:4284  block.timestamp */\n      timestamp\n        /* \"contracts/Founding Citizens NFT Sale.sol\":4269:4297  block.timestamp >= startTime */\n      lt\n      iszero\n        /* \"contracts/Founding Citizens NFT Sale.sol\":4269:4327  block.timestamp >= startTime && block.timestamp <= endTime */\n      dup1\n      iszero\n      tag_209\n      jumpi\n      pop\n        /* \"contracts/Founding Citizens NFT Sale.sol\":4320:4327  endTime */\n      sload(0x06)\n        /* \"contracts/Founding Citizens NFT Sale.sol\":4301:4316  block.timestamp */\n      timestamp\n        /* \"contracts/Founding Citizens NFT Sale.sol\":4301:4327  block.timestamp <= endTime */\n      gt\n      iszero\n        /* \"contracts/Founding Citizens NFT Sale.sol\":4269:4327  block.timestamp >= startTime && block.timestamp <= endTime */\n    tag_209:\n        /* \"contracts/Founding Citizens NFT Sale.sol\":4265:4446  if (block.timestamp >= startTime && block.timestamp <= endTime) {\r... */\n      iszero\n      tag_210\n      jumpi\n        /* \"contracts/Founding Citizens NFT Sale.sol\":4368:4372  true */\n      0x01\n        /* \"contracts/Founding Citizens NFT Sale.sol\":4344:4354  lastUpdate */\n      0x0a\n        /* \"contracts/Founding Citizens NFT Sale.sol\":4344:4365  lastUpdate.saleIsLive */\n      0x02\n      add\n      0x00\n        /* \"contracts/Founding Citizens NFT Sale.sol\":4344:4372  lastUpdate.saleIsLive = true */\n      0x0100\n      exp\n      dup2\n      sload\n      dup2\n      0xff\n      mul\n      not\n      and\n      swap1\n      dup4\n      iszero\n      iszero\n      mul\n      or\n      swap1\n      sstore\n      pop\n        /* \"contracts/Founding Citizens NFT Sale.sol\":4265:4446  if (block.timestamp >= startTime && block.timestamp <= endTime) {\r... */\n      jump(tag_211)\n    tag_210:\n        /* \"contracts/Founding Citizens NFT Sale.sol\":4429:4434  false */\n      0x00\n        /* \"contracts/Founding Citizens NFT Sale.sol\":4405:4415  lastUpdate */\n      0x0a\n        /* \"contracts/Founding Citizens NFT Sale.sol\":4405:4426  lastUpdate.saleIsLive */\n      0x02\n      add\n      0x00\n        /* \"contracts/Founding Citizens NFT Sale.sol\":4405:4434  lastUpdate.saleIsLive = false */\n      0x0100\n      exp\n      dup2\n      sload\n      dup2\n      0xff\n      mul\n      not\n      and\n      swap1\n      dup4\n      iszero\n      iszero\n      mul\n      or\n      swap1\n      sstore\n      pop\n        /* \"contracts/Founding Citizens NFT Sale.sol\":4265:4446  if (block.timestamp >= startTime && block.timestamp <= endTime) {\r... */\n    tag_211:\n        /* \"contracts/Founding Citizens NFT Sale.sol\":3962:4453  function updateState() internal requiresConsistentState {\r... */\n      jump\t// out\n        /* \"contracts/Founding Citizens NFT Sale.sol\":5853:6017  function _buyNFT(uint price) internal {\r... */\n    tag_98:\n        /* \"contracts/Founding Citizens NFT Sale.sol\":5902:5927  usdcEscrowStorageContract */\n      0x03\n      0x00\n      swap1\n      sload\n      swap1\n      0x0100\n      exp\n      swap1\n      div\n      0xffffffffffffffffffffffffffffffffffffffff\n      and\n        /* \"contracts/Founding Citizens NFT Sale.sol\":5902:5947  usdcEscrowStorageContract.decreaseUsdcBalance */\n      0xffffffffffffffffffffffffffffffffffffffff\n      and\n      0x532b2913\n        /* \"contracts/Founding Citizens NFT Sale.sol\":5948:5958  msg.sender */\n      caller\n        /* \"contracts/Founding Citizens NFT Sale.sol\":5960:5965  price */\n      dup4\n        /* \"contracts/Founding Citizens NFT Sale.sol\":5902:5966  usdcEscrowStorageContract.decreaseUsdcBalance(msg.sender, price) */\n      mload(0x40)\n      dup4\n      0xffffffff\n      and\n      0xe0\n      shl\n      dup2\n      mstore\n      0x04\n      add\n      tag_213\n      swap3\n      swap2\n      swap1\n      tag_153\n      jump\t// in\n    tag_213:\n      0x00\n      mload(0x40)\n      dup1\n      dup4\n      sub\n      dup2\n      0x00\n      dup8\n      dup1\n      extcodesize\n      iszero\n      dup1\n      iszero\n      tag_214\n      jumpi\n      0x00\n      dup1\n      revert\n    tag_214:\n      pop\n      gas\n      call\n      iszero\n      dup1\n      iszero\n      tag_216\n      jumpi\n      returndatasize\n      0x00\n      dup1\n      returndatacopy\n      revert(0x00, returndatasize)\n    tag_216:\n      pop\n      pop\n      pop\n      pop\n        /* \"contracts/Founding Citizens NFT Sale.sol\":5977:6009  mintNextNftToAddress(msg.sender) */\n      tag_217\n        /* \"contracts/Founding Citizens NFT Sale.sol\":5998:6008  msg.sender */\n      caller\n        /* \"contracts/Founding Citizens NFT Sale.sol\":5977:5997  mintNextNftToAddress */\n      tag_139\n        /* \"contracts/Founding Citizens NFT Sale.sol\":5977:6009  mintNextNftToAddress(msg.sender) */\n      jump\t// in\n    tag_217:\n        /* \"contracts/Founding Citizens NFT Sale.sol\":5853:6017  function _buyNFT(uint price) internal {\r... */\n      pop\n      jump\t// out\n        /* \"@openzeppelin/contracts@4.4.2/utils/Context.sol\":640:736  function _msgSender() internal view virtual returns (address) {... */\n    tag_101:\n        /* \"@openzeppelin/contracts@4.4.2/utils/Context.sol\":693:700  address */\n      0x00\n        /* \"@openzeppelin/contracts@4.4.2/utils/Context.sol\":719:729  msg.sender */\n      caller\n        /* \"@openzeppelin/contracts@4.4.2/utils/Context.sol\":712:729  return msg.sender */\n      swap1\n      pop\n        /* \"@openzeppelin/contracts@4.4.2/utils/Context.sol\":640:736  function _msgSender() internal view virtual returns (address) {... */\n      swap1\n      jump\t// out\n        /* \"@openzeppelin/contracts@4.4.2/access/Ownable.sol\":2270:2457  function _transferOwnership(address newOwner) internal virtual {... */\n    tag_119:\n        /* \"@openzeppelin/contracts@4.4.2/access/Ownable.sol\":2343:2359  address oldOwner */\n      0x00\n        /* \"@openzeppelin/contracts@4.4.2/access/Ownable.sol\":2362:2368  _owner */\n      dup1\n      0x00\n      swap1\n      sload\n      swap1\n      0x0100\n      exp\n      swap1\n      div\n      0xffffffffffffffffffffffffffffffffffffffff\n      and\n        /* \"@openzeppelin/contracts@4.4.2/access/Ownable.sol\":2343:2368  address oldOwner = _owner */\n      swap1\n      pop\n        /* \"@openzeppelin/contracts@4.4.2/access/Ownable.sol\":2387:2395  newOwner */\n      dup2\n        /* \"@openzeppelin/contracts@4.4.2/access/Ownable.sol\":2378:2384  _owner */\n      0x00\n      dup1\n        /* \"@openzeppelin/contracts@4.4.2/access/Ownable.sol\":2378:2395  _owner = newOwner */\n      0x0100\n      exp\n      dup2\n      sload\n      dup2\n      0xffffffffffffffffffffffffffffffffffffffff\n      mul\n      not\n      and\n      swap1\n      dup4\n      0xffffffffffffffffffffffffffffffffffffffff\n      and\n      mul\n      or\n      swap1\n      sstore\n      pop\n        /* \"@openzeppelin/contracts@4.4.2/access/Ownable.sol\":2441:2449  newOwner */\n      dup2\n        /* \"@openzeppelin/contracts@4.4.2/access/Ownable.sol\":2410:2450  OwnershipTransferred(oldOwner, newOwner) */\n      0xffffffffffffffffffffffffffffffffffffffff\n      and\n        /* \"@openzeppelin/contracts@4.4.2/access/Ownable.sol\":2431:2439  oldOwner */\n      dup2\n        /* \"@openzeppelin/contracts@4.4.2/access/Ownable.sol\":2410:2450  OwnershipTransferred(oldOwner, newOwner) */\n      0xffffffffffffffffffffffffffffffffffffffff\n      and\n      0x8be0079c531659141344cd1fd0a4f28419497f9722a3daafe3b4186f6b6457e0\n      mload(0x40)\n      mload(0x40)\n      dup1\n      swap2\n      sub\n      swap1\n      log3\n        /* \"@openzeppelin/contracts@4.4.2/access/Ownable.sol\":2270:2457  function _transferOwnership(address newOwner) internal virtual {... */\n      pop\n      pop\n      jump\t// out\n        /* \"contracts/Founding Citizens NFT Sale.sol\":4617:4748  function mintNextNftToAddress(address to) internal {\r... */\n    tag_139:\n        /* \"contracts/Founding Citizens NFT Sale.sol\":4692:4714  ERC1155storageContract */\n      0x01\n      0x00\n      swap1\n      sload\n      swap1\n      0x0100\n      exp\n      swap1\n      div\n      0xffffffffffffffffffffffffffffffffffffffff\n      and\n        /* \"contracts/Founding Citizens NFT Sale.sol\":4679:4736  IMintStorage(ERC1155storageContract).mintNextNftToAddress */\n      0xffffffffffffffffffffffffffffffffffffffff\n      and\n      0x55676590\n        /* \"contracts/Founding Citizens NFT Sale.sol\":4737:4739  to */\n      dup3\n        /* \"contracts/Founding Citizens NFT Sale.sol\":4679:4740  IMintStorage(ERC1155storageContract).mintNextNftToAddress(to) */\n      mload(0x40)\n      dup3\n      0xffffffff\n      and\n      0xe0\n      shl\n      dup2\n      mstore\n      0x04\n      add\n      tag_221\n      swap2\n      swap1\n      tag_52\n      jump\t// in\n    tag_221:\n      0x00\n      mload(0x40)\n      dup1\n      dup4\n      sub\n      dup2\n      0x00\n      dup8\n      dup1\n      extcodesize\n      iszero\n      dup1\n      iszero\n      tag_222\n      jumpi\n      0x00\n      dup1\n      revert\n    tag_222:\n      pop\n      gas\n      call\n      iszero\n      dup1\n      iszero\n      tag_224\n      jumpi\n      returndatasize\n      0x00\n      dup1\n      returndatacopy\n      revert(0x00, returndatasize)\n    tag_224:\n      pop\n      pop\n      pop\n      pop\n        /* \"contracts/Founding Citizens NFT Sale.sol\":4617:4748  function mintNextNftToAddress(address to) internal {\r... */\n      pop\n      jump\t// out\n        /* \"#utility.yul\":23:639   */\n    tag_226:\n      0x00\n        /* \"#utility.yul\":154:245   */\n      tag_228\n        /* \"#utility.yul\":170:244   */\n      tag_229\n        /* \"#utility.yul\":237:243   */\n      dup5\n        /* \"#utility.yul\":170:244   */\n      tag_230\n      jump\t// in\n    tag_229:\n        /* \"#utility.yul\":154:245   */\n      tag_231\n      jump\t// in\n    tag_228:\n        /* \"#utility.yul\":145:245   */\n      swap1\n      pop\n        /* \"#utility.yul\":265:270   */\n      dup1\n        /* \"#utility.yul\":293:299   */\n      dup4\n        /* \"#utility.yul\":286:291   */\n      dup3\n        /* \"#utility.yul\":279:300   */\n      mstore\n        /* \"#utility.yul\":319:323   */\n      0x20\n        /* \"#utility.yul\":312:317   */\n      dup3\n        /* \"#utility.yul\":308:324   */\n      add\n        /* \"#utility.yul\":301:324   */\n      swap1\n      pop\n        /* \"#utility.yul\":344:350   */\n      dup3\n        /* \"#utility.yul\":375:376   */\n      0x00\n        /* \"#utility.yul\":360:633   */\n    tag_232:\n        /* \"#utility.yul\":385:391   */\n      dup6\n        /* \"#utility.yul\":382:383   */\n      dup2\n        /* \"#utility.yul\":379:392   */\n      lt\n        /* \"#utility.yul\":360:633   */\n      iszero\n      tag_234\n      jumpi\n        /* \"#utility.yul\":477:480   */\n      dup2\n        /* \"#utility.yul\":464:481   */\n      calldataload\n        /* \"#utility.yul\":456:462   */\n      dup6\n        /* \"#utility.yul\":452:482   */\n      add\n        /* \"#utility.yul\":507:554   */\n      tag_235\n        /* \"#utility.yul\":550:553   */\n      dup9\n        /* \"#utility.yul\":538:548   */\n      dup3\n        /* \"#utility.yul\":507:554   */\n      tag_236\n      jump\t// in\n    tag_235:\n        /* \"#utility.yul\":502:505   */\n      dup5\n        /* \"#utility.yul\":495:555   */\n      mstore\n        /* \"#utility.yul\":584:588   */\n      0x20\n        /* \"#utility.yul\":579:582   */\n      dup5\n        /* \"#utility.yul\":575:589   */\n      add\n        /* \"#utility.yul\":568:589   */\n      swap4\n      pop\n        /* \"#utility.yul\":618:622   */\n      0x20\n        /* \"#utility.yul\":613:616   */\n      dup4\n        /* \"#utility.yul\":609:623   */\n      add\n        /* \"#utility.yul\":602:623   */\n      swap3\n      pop\n        /* \"#utility.yul\":420:633   */\n      pop\n        /* \"#utility.yul\":407:408   */\n      0x01\n        /* \"#utility.yul\":404:405   */\n      dup2\n        /* \"#utility.yul\":400:409   */\n      add\n        /* \"#utility.yul\":395:409   */\n      swap1\n      pop\n        /* \"#utility.yul\":360:633   */\n      jump(tag_232)\n    tag_234:\n        /* \"#utility.yul\":364:378   */\n      pop\n        /* \"#utility.yul\":135:639   */\n      pop\n      pop\n      swap4\n      swap3\n      pop\n      pop\n      pop\n      jump\t// out\n        /* \"#utility.yul\":662:1285   */\n    tag_237:\n      0x00\n        /* \"#utility.yul\":783:864   */\n      tag_239\n        /* \"#utility.yul\":799:863   */\n      tag_240\n        /* \"#utility.yul\":856:862   */\n      dup5\n        /* \"#utility.yul\":799:863   */\n      tag_241\n      jump\t// in\n    tag_240:\n        /* \"#utility.yul\":783:864   */\n      tag_231\n      jump\t// in\n    tag_239:\n        /* \"#utility.yul\":774:864   */\n      swap1\n      pop\n        /* \"#utility.yul\":884:889   */\n      dup1\n        /* \"#utility.yul\":912:918   */\n      dup4\n        /* \"#utility.yul\":905:910   */\n      dup3\n        /* \"#utility.yul\":898:919   */\n      mstore\n        /* \"#utility.yul\":938:942   */\n      0x20\n        /* \"#utility.yul\":931:936   */\n      dup3\n        /* \"#utility.yul\":927:943   */\n      add\n        /* \"#utility.yul\":920:943   */\n      swap1\n      pop\n        /* \"#utility.yul\":963:969   */\n      dup3\n        /* \"#utility.yul\":1013:1016   */\n      dup6\n        /* \"#utility.yul\":1005:1009   */\n      0x20\n        /* \"#utility.yul\":997:1003   */\n      dup7\n        /* \"#utility.yul\":993:1010   */\n      mul\n        /* \"#utility.yul\":988:991   */\n      dup3\n        /* \"#utility.yul\":984:1011   */\n      add\n        /* \"#utility.yul\":981:1017   */\n      gt\n        /* \"#utility.yul\":978:980   */\n      iszero\n      tag_242\n      jumpi\n        /* \"#utility.yul\":1030:1031   */\n      0x00\n        /* \"#utility.yul\":1027:1028   */\n      dup1\n        /* \"#utility.yul\":1020:1032   */\n      revert\n        /* \"#utility.yul\":978:980   */\n    tag_242:\n        /* \"#utility.yul\":1058:1059   */\n      0x00\n        /* \"#utility.yul\":1043:1279   */\n    tag_243:\n        /* \"#utility.yul\":1068:1074   */\n      dup6\n        /* \"#utility.yul\":1065:1066   */\n      dup2\n        /* \"#utility.yul\":1062:1075   */\n      lt\n        /* \"#utility.yul\":1043:1279   */\n      iszero\n      tag_245\n      jumpi\n        /* \"#utility.yul\":1135:1138   */\n      dup2\n        /* \"#utility.yul\":1163:1200   */\n      tag_246\n        /* \"#utility.yul\":1196:1199   */\n      dup9\n        /* \"#utility.yul\":1184:1194   */\n      dup3\n        /* \"#utility.yul\":1163:1200   */\n      tag_247\n      jump\t// in\n    tag_246:\n        /* \"#utility.yul\":1158:1161   */\n      dup5\n        /* \"#utility.yul\":1151:1201   */\n      mstore\n        /* \"#utility.yul\":1230:1234   */\n      0x20\n        /* \"#utility.yul\":1225:1228   */\n      dup5\n        /* \"#utility.yul\":1221:1235   */\n      add\n        /* \"#utility.yul\":1214:1235   */\n      swap4\n      pop\n        /* \"#utility.yul\":1264:1268   */\n      0x20\n        /* \"#utility.yul\":1259:1262   */\n      dup4\n        /* \"#utility.yul\":1255:1269   */\n      add\n        /* \"#utility.yul\":1248:1269   */\n      swap3\n      pop\n        /* \"#utility.yul\":1103:1279   */\n      pop\n        /* \"#utility.yul\":1090:1091   */\n      0x01\n        /* \"#utility.yul\":1087:1088   */\n      dup2\n        /* \"#utility.yul\":1083:1092   */\n      add\n        /* \"#utility.yul\":1078:1092   */\n      swap1\n      pop\n        /* \"#utility.yul\":1043:1279   */\n      jump(tag_243)\n    tag_245:\n        /* \"#utility.yul\":1047:1061   */\n      pop\n        /* \"#utility.yul\":764:1285   */\n      pop\n      pop\n      swap4\n      swap3\n      pop\n      pop\n      pop\n      jump\t// out\n        /* \"#utility.yul\":1291:1636   */\n    tag_248:\n      0x00\n        /* \"#utility.yul\":1394:1460   */\n      tag_250\n        /* \"#utility.yul\":1410:1459   */\n      tag_251\n        /* \"#utility.yul\":1452:1458   */\n      dup5\n        /* \"#utility.yul\":1410:1459   */\n      tag_252\n      jump\t// in\n    tag_251:\n        /* \"#utility.yul\":1394:1460   */\n      tag_231\n      jump\t// in\n    tag_250:\n        /* \"#utility.yul\":1385:1460   */\n      swap1\n      pop\n        /* \"#utility.yul\":1483:1489   */\n      dup3\n        /* \"#utility.yul\":1476:1481   */\n      dup2\n        /* \"#utility.yul\":1469:1490   */\n      mstore\n        /* \"#utility.yul\":1521:1525   */\n      0x20\n        /* \"#utility.yul\":1514:1519   */\n      dup2\n        /* \"#utility.yul\":1510:1526   */\n      add\n        /* \"#utility.yul\":1559:1562   */\n      dup5\n        /* \"#utility.yul\":1550:1556   */\n      dup5\n        /* \"#utility.yul\":1545:1548   */\n      dup5\n        /* \"#utility.yul\":1541:1557   */\n      add\n        /* \"#utility.yul\":1538:1563   */\n      gt\n        /* \"#utility.yul\":1535:1537   */\n      iszero\n      tag_253\n      jumpi\n        /* \"#utility.yul\":1576:1577   */\n      0x00\n        /* \"#utility.yul\":1573:1574   */\n      dup1\n        /* \"#utility.yul\":1566:1578   */\n      revert\n        /* \"#utility.yul\":1535:1537   */\n    tag_253:\n        /* \"#utility.yul\":1589:1630   */\n      tag_254\n        /* \"#utility.yul\":1623:1629   */\n      dup5\n        /* \"#utility.yul\":1618:1621   */\n      dup3\n        /* \"#utility.yul\":1613:1616   */\n      dup6\n        /* \"#utility.yul\":1589:1630   */\n      tag_255\n      jump\t// in\n    tag_254:\n        /* \"#utility.yul\":1375:1636   */\n      pop\n      swap4\n      swap3\n      pop\n      pop\n      pop\n      jump\t// out\n        /* \"#utility.yul\":1642:1781   */\n    tag_256:\n      0x00\n        /* \"#utility.yul\":1726:1732   */\n      dup2\n        /* \"#utility.yul\":1713:1733   */\n      calldataload\n        /* \"#utility.yul\":1704:1733   */\n      swap1\n      pop\n        /* \"#utility.yul\":1742:1775   */\n      tag_258\n        /* \"#utility.yul\":1769:1774   */\n      dup2\n        /* \"#utility.yul\":1742:1775   */\n      tag_259\n      jump\t// in\n    tag_258:\n        /* \"#utility.yul\":1694:1781   */\n      swap3\n      swap2\n      pop\n      pop\n      jump\t// out\n        /* \"#utility.yul\":1803:2126   */\n    tag_260:\n      0x00\n        /* \"#utility.yul\":1933:1936   */\n      dup3\n        /* \"#utility.yul\":1926:1930   */\n      0x1f\n        /* \"#utility.yul\":1918:1924   */\n      dup4\n        /* \"#utility.yul\":1914:1931   */\n      add\n        /* \"#utility.yul\":1910:1937   */\n      slt\n        /* \"#utility.yul\":1900:1902   */\n      tag_262\n      jumpi\n        /* \"#utility.yul\":1951:1952   */\n      0x00\n        /* \"#utility.yul\":1948:1949   */\n      dup1\n        /* \"#utility.yul\":1941:1953   */\n      revert\n        /* \"#utility.yul\":1900:1902   */\n    tag_262:\n        /* \"#utility.yul\":1991:1997   */\n      dup2\n        /* \"#utility.yul\":1978:1998   */\n      calldataload\n        /* \"#utility.yul\":2016:2120   */\n      tag_263\n        /* \"#utility.yul\":2116:2119   */\n      dup5\n        /* \"#utility.yul\":2108:2114   */\n      dup3\n        /* \"#utility.yul\":2101:2105   */\n      0x20\n        /* \"#utility.yul\":2093:2099   */\n      dup7\n        /* \"#utility.yul\":2089:2106   */\n      add\n        /* \"#utility.yul\":2016:2120   */\n      tag_226\n      jump\t// in\n    tag_263:\n        /* \"#utility.yul\":2007:2120   */\n      swap2\n      pop\n        /* \"#utility.yul\":1890:2126   */\n      pop\n      swap3\n      swap2\n      pop\n      pop\n      jump\t// out\n        /* \"#utility.yul\":2149:2452   */\n    tag_264:\n      0x00\n        /* \"#utility.yul\":2269:2272   */\n      dup3\n        /* \"#utility.yul\":2262:2266   */\n      0x1f\n        /* \"#utility.yul\":2254:2260   */\n      dup4\n        /* \"#utility.yul\":2250:2267   */\n      add\n        /* \"#utility.yul\":2246:2273   */\n      slt\n        /* \"#utility.yul\":2236:2238   */\n      tag_266\n      jumpi\n        /* \"#utility.yul\":2287:2288   */\n      0x00\n        /* \"#utility.yul\":2284:2285   */\n      dup1\n        /* \"#utility.yul\":2277:2289   */\n      revert\n        /* \"#utility.yul\":2236:2238   */\n    tag_266:\n        /* \"#utility.yul\":2327:2333   */\n      dup2\n        /* \"#utility.yul\":2314:2334   */\n      calldataload\n        /* \"#utility.yul\":2352:2446   */\n      tag_267\n        /* \"#utility.yul\":2442:2445   */\n      dup5\n        /* \"#utility.yul\":2434:2440   */\n      dup3\n        /* \"#utility.yul\":2427:2431   */\n      0x20\n        /* \"#utility.yul\":2419:2425   */\n      dup7\n        /* \"#utility.yul\":2415:2432   */\n      add\n        /* \"#utility.yul\":2352:2446   */\n      tag_237\n      jump\t// in\n    tag_267:\n        /* \"#utility.yul\":2343:2446   */\n      swap2\n      pop\n        /* \"#utility.yul\":2226:2452   */\n      pop\n      swap3\n      swap2\n      pop\n      pop\n      jump\t// out\n        /* \"#utility.yul\":2458:2595   */\n    tag_268:\n      0x00\n        /* \"#utility.yul\":2543:2549   */\n      dup2\n        /* \"#utility.yul\":2537:2550   */\n      mload\n        /* \"#utility.yul\":2528:2550   */\n      swap1\n      pop\n        /* \"#utility.yul\":2559:2589   */\n      tag_270\n        /* \"#utility.yul\":2583:2588   */\n      dup2\n        /* \"#utility.yul\":2559:2589   */\n      tag_271\n      jump\t// in\n    tag_270:\n        /* \"#utility.yul\":2518:2595   */\n      swap3\n      swap2\n      pop\n      pop\n      jump\t// out\n        /* \"#utility.yul\":2615:2888   */\n    tag_236:\n      0x00\n        /* \"#utility.yul\":2720:2723   */\n      dup3\n        /* \"#utility.yul\":2713:2717   */\n      0x1f\n        /* \"#utility.yul\":2705:2711   */\n      dup4\n        /* \"#utility.yul\":2701:2718   */\n      add\n        /* \"#utility.yul\":2697:2724   */\n      slt\n        /* \"#utility.yul\":2687:2689   */\n      tag_273\n      jumpi\n        /* \"#utility.yul\":2738:2739   */\n      0x00\n        /* \"#utility.yul\":2735:2736   */\n      dup1\n        /* \"#utility.yul\":2728:2740   */\n      revert\n        /* \"#utility.yul\":2687:2689   */\n    tag_273:\n        /* \"#utility.yul\":2778:2784   */\n      dup2\n        /* \"#utility.yul\":2765:2785   */\n      calldataload\n        /* \"#utility.yul\":2803:2882   */\n      tag_274\n        /* \"#utility.yul\":2878:2881   */\n      dup5\n        /* \"#utility.yul\":2870:2876   */\n      dup3\n        /* \"#utility.yul\":2863:2867   */\n      0x20\n        /* \"#utility.yul\":2855:2861   */\n      dup7\n        /* \"#utility.yul\":2851:2868   */\n      add\n        /* \"#utility.yul\":2803:2882   */\n      tag_248\n      jump\t// in\n    tag_274:\n        /* \"#utility.yul\":2794:2882   */\n      swap2\n      pop\n        /* \"#utility.yul\":2677:2888   */\n      pop\n      swap3\n      swap2\n      pop\n      pop\n      jump\t// out\n        /* \"#utility.yul\":2894:3033   */\n    tag_247:\n      0x00\n        /* \"#utility.yul\":2978:2984   */\n      dup2\n        /* \"#utility.yul\":2965:2985   */\n      calldataload\n        /* \"#utility.yul\":2956:2985   */\n      swap1\n      pop\n        /* \"#utility.yul\":2994:3027   */\n      tag_276\n        /* \"#utility.yul\":3021:3026   */\n      dup2\n        /* \"#utility.yul\":2994:3027   */\n      tag_277\n      jump\t// in\n    tag_276:\n        /* \"#utility.yul\":2946:3033   */\n      swap3\n      swap2\n      pop\n      pop\n      jump\t// out\n        /* \"#utility.yul\":3039:3182   */\n    tag_278:\n      0x00\n        /* \"#utility.yul\":3127:3133   */\n      dup2\n        /* \"#utility.yul\":3121:3134   */\n      mload\n        /* \"#utility.yul\":3112:3134   */\n      swap1\n      pop\n        /* \"#utility.yul\":3143:3176   */\n      tag_280\n        /* \"#utility.yul\":3170:3175   */\n      dup2\n        /* \"#utility.yul\":3143:3176   */\n      tag_277\n      jump\t// in\n    tag_280:\n        /* \"#utility.yul\":3102:3182   */\n      swap3\n      swap2\n      pop\n      pop\n      jump\t// out\n        /* \"#utility.yul\":3188:3450   */\n    tag_34:\n      0x00\n        /* \"#utility.yul\":3296:3298   */\n      0x20\n        /* \"#utility.yul\":3284:3293   */\n      dup3\n        /* \"#utility.yul\":3275:3282   */\n      dup5\n        /* \"#utility.yul\":3271:3294   */\n      sub\n        /* \"#utility.yul\":3267:3299   */\n      slt\n        /* \"#utility.yul\":3264:3266   */\n      iszero\n      tag_282\n      jumpi\n        /* \"#utility.yul\":3312:3313   */\n      0x00\n        /* \"#utility.yul\":3309:3310   */\n      dup1\n        /* \"#utility.yul\":3302:3314   */\n      revert\n        /* \"#utility.yul\":3264:3266   */\n    tag_282:\n        /* \"#utility.yul\":3355:3356   */\n      0x00\n        /* \"#utility.yul\":3380:3433   */\n      tag_283\n        /* \"#utility.yul\":3425:3432   */\n      dup5\n        /* \"#utility.yul\":3416:3422   */\n      dup3\n        /* \"#utility.yul\":3405:3414   */\n      dup6\n        /* \"#utility.yul\":3401:3423   */\n      add\n        /* \"#utility.yul\":3380:3433   */\n      tag_256\n      jump\t// in\n    tag_283:\n        /* \"#utility.yul\":3370:3433   */\n      swap2\n      pop\n        /* \"#utility.yul\":3326:3443   */\n      pop\n        /* \"#utility.yul\":3254:3450   */\n      swap3\n      swap2\n      pop\n      pop\n      jump\t// out\n        /* \"#utility.yul\":3456:3863   */\n    tag_60:\n      0x00\n      dup1\n        /* \"#utility.yul\":3581:3583   */\n      0x40\n        /* \"#utility.yul\":3569:3578   */\n      dup4\n        /* \"#utility.yul\":3560:3567   */\n      dup6\n        /* \"#utility.yul\":3556:3579   */\n      sub\n        /* \"#utility.yul\":3552:3584   */\n      slt\n        /* \"#utility.yul\":3549:3551   */\n      iszero\n      tag_285\n      jumpi\n        /* \"#utility.yul\":3597:3598   */\n      0x00\n        /* \"#utility.yul\":3594:3595   */\n      dup1\n        /* \"#utility.yul\":3587:3599   */\n      revert\n        /* \"#utility.yul\":3549:3551   */\n    tag_285:\n        /* \"#utility.yul\":3640:3641   */\n      0x00\n        /* \"#utility.yul\":3665:3718   */\n      tag_286\n        /* \"#utility.yul\":3710:3717   */\n      dup6\n        /* \"#utility.yul\":3701:3707   */\n      dup3\n        /* \"#utility.yul\":3690:3699   */\n      dup7\n        /* \"#utility.yul\":3686:3708   */\n      add\n        /* \"#utility.yul\":3665:3718   */\n      tag_256\n      jump\t// in\n    tag_286:\n        /* \"#utility.yul\":3655:3718   */\n      swap3\n      pop\n        /* \"#utility.yul\":3611:3728   */\n      pop\n        /* \"#utility.yul\":3767:3769   */\n      0x20\n        /* \"#utility.yul\":3793:3846   */\n      tag_287\n        /* \"#utility.yul\":3838:3845   */\n      dup6\n        /* \"#utility.yul\":3829:3835   */\n      dup3\n        /* \"#utility.yul\":3818:3827   */\n      dup7\n        /* \"#utility.yul\":3814:3836   */\n      add\n        /* \"#utility.yul\":3793:3846   */\n      tag_247\n      jump\t// in\n    tag_287:\n        /* \"#utility.yul\":3783:3846   */\n      swap2\n      pop\n        /* \"#utility.yul\":3738:3856   */\n      pop\n        /* \"#utility.yul\":3539:3863   */\n      swap3\n      pop\n      swap3\n      swap1\n      pop\n      jump\t// out\n        /* \"#utility.yul\":3869:4582   */\n    tag_81:\n      0x00\n      dup1\n        /* \"#utility.yul\":4054:4056   */\n      0x40\n        /* \"#utility.yul\":4042:4051   */\n      dup4\n        /* \"#utility.yul\":4033:4040   */\n      dup6\n        /* \"#utility.yul\":4029:4052   */\n      sub\n        /* \"#utility.yul\":4025:4057   */\n      slt\n        /* \"#utility.yul\":4022:4024   */\n      iszero\n      tag_289\n      jumpi\n        /* \"#utility.yul\":4070:4071   */\n      0x00\n        /* \"#utility.yul\":4067:4068   */\n      dup1\n        /* \"#utility.yul\":4060:4072   */\n      revert\n        /* \"#utility.yul\":4022:4024   */\n    tag_289:\n        /* \"#utility.yul\":4141:4142   */\n      0x00\n        /* \"#utility.yul\":4130:4139   */\n      dup4\n        /* \"#utility.yul\":4126:4143   */\n      add\n        /* \"#utility.yul\":4113:4144   */\n      calldataload\n        /* \"#utility.yul\":4171:4189   */\n      0xffffffffffffffff\n        /* \"#utility.yul\":4163:4169   */\n      dup2\n        /* \"#utility.yul\":4160:4190   */\n      gt\n        /* \"#utility.yul\":4157:4159   */\n      iszero\n      tag_290\n      jumpi\n        /* \"#utility.yul\":4203:4204   */\n      0x00\n        /* \"#utility.yul\":4200:4201   */\n      dup1\n        /* \"#utility.yul\":4193:4205   */\n      revert\n        /* \"#utility.yul\":4157:4159   */\n    tag_290:\n        /* \"#utility.yul\":4231:4309   */\n      tag_291\n        /* \"#utility.yul\":4301:4308   */\n      dup6\n        /* \"#utility.yul\":4292:4298   */\n      dup3\n        /* \"#utility.yul\":4281:4290   */\n      dup7\n        /* \"#utility.yul\":4277:4299   */\n      add\n        /* \"#utility.yul\":4231:4309   */\n      tag_264\n      jump\t// in\n    tag_291:\n        /* \"#utility.yul\":4221:4309   */\n      swap3\n      pop\n        /* \"#utility.yul\":4084:4319   */\n      pop\n        /* \"#utility.yul\":4386:4388   */\n      0x20\n        /* \"#utility.yul\":4375:4384   */\n      dup4\n        /* \"#utility.yul\":4371:4389   */\n      add\n        /* \"#utility.yul\":4358:4390   */\n      calldataload\n        /* \"#utility.yul\":4417:4435   */\n      0xffffffffffffffff\n        /* \"#utility.yul\":4409:4415   */\n      dup2\n        /* \"#utility.yul\":4406:4436   */\n      gt\n        /* \"#utility.yul\":4403:4405   */\n      iszero\n      tag_292\n      jumpi\n        /* \"#utility.yul\":4449:4450   */\n      0x00\n        /* \"#utility.yul\":4446:4447   */\n      dup1\n        /* \"#utility.yul\":4439:4451   */\n      revert\n        /* \"#utility.yul\":4403:4405   */\n    tag_292:\n        /* \"#utility.yul\":4477:4565   */\n      tag_293\n        /* \"#utility.yul\":4557:4564   */\n      dup6\n        /* \"#utility.yul\":4548:4554   */\n      dup3\n        /* \"#utility.yul\":4537:4546   */\n      dup7\n        /* \"#utility.yul\":4533:4555   */\n      add\n        /* \"#utility.yul\":4477:4565   */\n      tag_260\n      jump\t// in\n    tag_293:\n        /* \"#utility.yul\":4467:4565   */\n      swap2\n      pop\n        /* \"#utility.yul\":4329:4575   */\n      pop\n        /* \"#utility.yul\":4012:4582   */\n      swap3\n      pop\n      swap3\n      swap1\n      pop\n      jump\t// out\n        /* \"#utility.yul\":4588:4866   */\n    tag_158:\n      0x00\n        /* \"#utility.yul\":4704:4706   */\n      0x20\n        /* \"#utility.yul\":4692:4701   */\n      dup3\n        /* \"#utility.yul\":4683:4690   */\n      dup5\n        /* \"#utility.yul\":4679:4702   */\n      sub\n        /* \"#utility.yul\":4675:4707   */\n      slt\n        /* \"#utility.yul\":4672:4674   */\n      iszero\n      tag_295\n      jumpi\n        /* \"#utility.yul\":4720:4721   */\n      0x00\n        /* \"#utility.yul\":4717:4718   */\n      dup1\n        /* \"#utility.yul\":4710:4722   */\n      revert\n        /* \"#utility.yul\":4672:4674   */\n    tag_295:\n        /* \"#utility.yul\":4763:4764   */\n      0x00\n        /* \"#utility.yul\":4788:4849   */\n      tag_296\n        /* \"#utility.yul\":4841:4848   */\n      dup5\n        /* \"#utility.yul\":4832:4838   */\n      dup3\n        /* \"#utility.yul\":4821:4830   */\n      dup6\n        /* \"#utility.yul\":4817:4839   */\n      add\n        /* \"#utility.yul\":4788:4849   */\n      tag_268\n      jump\t// in\n    tag_296:\n        /* \"#utility.yul\":4778:4849   */\n      swap2\n      pop\n        /* \"#utility.yul\":4734:4859   */\n      pop\n        /* \"#utility.yul\":4662:4866   */\n      swap3\n      swap2\n      pop\n      pop\n      jump\t// out\n        /* \"#utility.yul\":4872:5134   */\n    tag_30:\n      0x00\n        /* \"#utility.yul\":4980:4982   */\n      0x20\n        /* \"#utility.yul\":4968:4977   */\n      dup3\n        /* \"#utility.yul\":4959:4966   */\n      dup5\n        /* \"#utility.yul\":4955:4978   */\n      sub\n        /* \"#utility.yul\":4951:4983   */\n      slt\n        /* \"#utility.yul\":4948:4950   */\n      iszero\n      tag_298\n      jumpi\n        /* \"#utility.yul\":4996:4997   */\n      0x00\n        /* \"#utility.yul\":4993:4994   */\n      dup1\n        /* \"#utility.yul\":4986:4998   */\n      revert\n        /* \"#utility.yul\":4948:4950   */\n    tag_298:\n        /* \"#utility.yul\":5039:5040   */\n      0x00\n        /* \"#utility.yul\":5064:5117   */\n      tag_299\n        /* \"#utility.yul\":5109:5116   */\n      dup5\n        /* \"#utility.yul\":5100:5106   */\n      dup3\n        /* \"#utility.yul\":5089:5098   */\n      dup6\n        /* \"#utility.yul\":5085:5107   */\n      add\n        /* \"#utility.yul\":5064:5117   */\n      tag_247\n      jump\t// in\n    tag_299:\n        /* \"#utility.yul\":5054:5117   */\n      swap2\n      pop\n        /* \"#utility.yul\":5010:5127   */\n      pop\n        /* \"#utility.yul\":4938:5134   */\n      swap3\n      swap2\n      pop\n      pop\n      jump\t// out\n        /* \"#utility.yul\":5140:5424   */\n    tag_91:\n      0x00\n        /* \"#utility.yul\":5259:5261   */\n      0x20\n        /* \"#utility.yul\":5247:5256   */\n      dup3\n        /* \"#utility.yul\":5238:5245   */\n      dup5\n        /* \"#utility.yul\":5234:5257   */\n      sub\n        /* \"#utility.yul\":5230:5262   */\n      slt\n        /* \"#utility.yul\":5227:5229   */\n      iszero\n      tag_301\n      jumpi\n        /* \"#utility.yul\":5275:5276   */\n      0x00\n        /* \"#utility.yul\":5272:5273   */\n      dup1\n        /* \"#utility.yul\":5265:5277   */\n      revert\n        /* \"#utility.yul\":5227:5229   */\n    tag_301:\n        /* \"#utility.yul\":5318:5319   */\n      0x00\n        /* \"#utility.yul\":5343:5407   */\n      tag_302\n        /* \"#utility.yul\":5399:5406   */\n      dup5\n        /* \"#utility.yul\":5390:5396   */\n      dup3\n        /* \"#utility.yul\":5379:5388   */\n      dup6\n        /* \"#utility.yul\":5375:5397   */\n      add\n        /* \"#utility.yul\":5343:5407   */\n      tag_278\n      jump\t// in\n    tag_302:\n        /* \"#utility.yul\":5333:5407   */\n      swap2\n      pop\n        /* \"#utility.yul\":5289:5417   */\n      pop\n        /* \"#utility.yul\":5217:5424   */\n      swap3\n      swap2\n      pop\n      pop\n      jump\t// out\n        /* \"#utility.yul\":5430:5626   */\n    tag_303:\n      0x00\n        /* \"#utility.yul\":5554:5620   */\n      tag_305\n        /* \"#utility.yul\":5616:5619   */\n      dup4\n        /* \"#utility.yul\":5608:5614   */\n      dup4\n        /* \"#utility.yul\":5554:5620   */\n      tag_306\n      jump\t// in\n    tag_305:\n        /* \"#utility.yul\":5540:5620   */\n      swap1\n      pop\n        /* \"#utility.yul\":5530:5626   */\n      swap3\n      swap2\n      pop\n      pop\n      jump\t// out\n        /* \"#utility.yul\":5632:5811   */\n    tag_307:\n      0x00\n        /* \"#utility.yul\":5722:5768   */\n      tag_309\n        /* \"#utility.yul\":5764:5767   */\n      dup4\n        /* \"#utility.yul\":5756:5762   */\n      dup4\n        /* \"#utility.yul\":5722:5768   */\n      tag_310\n      jump\t// in\n    tag_309:\n        /* \"#utility.yul\":5800:5804   */\n      0x20\n        /* \"#utility.yul\":5795:5798   */\n      dup4\n        /* \"#utility.yul\":5791:5805   */\n      add\n        /* \"#utility.yul\":5777:5805   */\n      swap1\n      pop\n        /* \"#utility.yul\":5712:5811   */\n      swap3\n      swap2\n      pop\n      pop\n      jump\t// out\n        /* \"#utility.yul\":5817:5935   */\n    tag_311:\n        /* \"#utility.yul\":5904:5928   */\n      tag_313\n        /* \"#utility.yul\":5922:5927   */\n      dup2\n        /* \"#utility.yul\":5904:5928   */\n      tag_314\n      jump\t// in\n    tag_313:\n        /* \"#utility.yul\":5899:5902   */\n      dup3\n        /* \"#utility.yul\":5892:5929   */\n      mstore\n        /* \"#utility.yul\":5882:5935   */\n      pop\n      pop\n      jump\t// out\n        /* \"#utility.yul\":5941:6098   */\n    tag_315:\n        /* \"#utility.yul\":6046:6091   */\n      tag_317\n        /* \"#utility.yul\":6066:6090   */\n      tag_318\n        /* \"#utility.yul\":6084:6089   */\n      dup3\n        /* \"#utility.yul\":6066:6090   */\n      tag_314\n      jump\t// in\n    tag_318:\n        /* \"#utility.yul\":6046:6091   */\n      tag_319\n      jump\t// in\n    tag_317:\n        /* \"#utility.yul\":6041:6044   */\n      dup3\n        /* \"#utility.yul\":6034:6092   */\n      mstore\n        /* \"#utility.yul\":6024:6098   */\n      pop\n      pop\n      jump\t// out\n        /* \"#utility.yul\":6132:7123   */\n    tag_320:\n      0x00\n        /* \"#utility.yul\":6300:6364   */\n      tag_322\n        /* \"#utility.yul\":6358:6363   */\n      dup3\n        /* \"#utility.yul\":6300:6364   */\n      tag_323\n      jump\t// in\n    tag_322:\n        /* \"#utility.yul\":6380:6476   */\n      tag_324\n        /* \"#utility.yul\":6469:6475   */\n      dup2\n        /* \"#utility.yul\":6464:6467   */\n      dup6\n        /* \"#utility.yul\":6380:6476   */\n      tag_325\n      jump\t// in\n    tag_324:\n        /* \"#utility.yul\":6373:6476   */\n      swap4\n      pop\n        /* \"#utility.yul\":6502:6505   */\n      dup4\n        /* \"#utility.yul\":6547:6551   */\n      0x20\n        /* \"#utility.yul\":6539:6545   */\n      dup3\n        /* \"#utility.yul\":6535:6552   */\n      mul\n        /* \"#utility.yul\":6530:6533   */\n      dup6\n        /* \"#utility.yul\":6526:6553   */\n      add\n        /* \"#utility.yul\":6577:6643   */\n      tag_326\n        /* \"#utility.yul\":6637:6642   */\n      dup6\n        /* \"#utility.yul\":6577:6643   */\n      tag_327\n      jump\t// in\n    tag_326:\n        /* \"#utility.yul\":6666:6673   */\n      dup1\n        /* \"#utility.yul\":6697:6698   */\n      0x00\n        /* \"#utility.yul\":6682:7078   */\n    tag_328:\n        /* \"#utility.yul\":6707:6713   */\n      dup6\n        /* \"#utility.yul\":6704:6705   */\n      dup2\n        /* \"#utility.yul\":6701:6714   */\n      lt\n        /* \"#utility.yul\":6682:7078   */\n      iszero\n      tag_330\n      jumpi\n        /* \"#utility.yul\":6778:6787   */\n      dup5\n        /* \"#utility.yul\":6772:6776   */\n      dup5\n        /* \"#utility.yul\":6768:6788   */\n      sub\n        /* \"#utility.yul\":6763:6766   */\n      dup10\n        /* \"#utility.yul\":6756:6789   */\n      mstore\n        /* \"#utility.yul\":6829:6835   */\n      dup2\n        /* \"#utility.yul\":6823:6836   */\n      mload\n        /* \"#utility.yul\":6857:6941   */\n      tag_331\n        /* \"#utility.yul\":6936:6940   */\n      dup6\n        /* \"#utility.yul\":6921:6934   */\n      dup3\n        /* \"#utility.yul\":6857:6941   */\n      tag_303\n      jump\t// in\n    tag_331:\n        /* \"#utility.yul\":6849:6941   */\n      swap5\n      pop\n        /* \"#utility.yul\":6964:7034   */\n      tag_332\n        /* \"#utility.yul\":7027:7033   */\n      dup4\n        /* \"#utility.yul\":6964:7034   */\n      tag_333\n      jump\t// in\n    tag_332:\n        /* \"#utility.yul\":6954:7034   */\n      swap3\n      pop\n        /* \"#utility.yul\":7063:7067   */\n      0x20\n        /* \"#utility.yul\":7058:7061   */\n      dup11\n        /* \"#utility.yul\":7054:7068   */\n      add\n        /* \"#utility.yul\":7047:7068   */\n      swap10\n      pop\n        /* \"#utility.yul\":6742:7078   */\n      pop\n        /* \"#utility.yul\":6729:6730   */\n      0x01\n        /* \"#utility.yul\":6726:6727   */\n      dup2\n        /* \"#utility.yul\":6722:6731   */\n      add\n        /* \"#utility.yul\":6717:6731   */\n      swap1\n      pop\n        /* \"#utility.yul\":6682:7078   */\n      jump(tag_328)\n    tag_330:\n        /* \"#utility.yul\":6686:6700   */\n      pop\n        /* \"#utility.yul\":7094:7098   */\n      dup3\n        /* \"#utility.yul\":7087:7098   */\n      swap8\n      pop\n        /* \"#utility.yul\":7114:7117   */\n      dup8\n        /* \"#utility.yul\":7107:7117   */\n      swap6\n      pop\n        /* \"#utility.yul\":6276:7123   */\n      pop\n      pop\n      pop\n      pop\n      pop\n      swap3\n      swap2\n      pop\n      pop\n      jump\t// out\n        /* \"#utility.yul\":7159:7891   */\n    tag_334:\n      0x00\n        /* \"#utility.yul\":7307:7361   */\n      tag_336\n        /* \"#utility.yul\":7355:7360   */\n      dup3\n        /* \"#utility.yul\":7307:7361   */\n      tag_337\n      jump\t// in\n    tag_336:\n        /* \"#utility.yul\":7377:7463   */\n      tag_338\n        /* \"#utility.yul\":7456:7462   */\n      dup2\n        /* \"#utility.yul\":7451:7454   */\n      dup6\n        /* \"#utility.yul\":7377:7463   */\n      tag_339\n      jump\t// in\n    tag_338:\n        /* \"#utility.yul\":7370:7463   */\n      swap4\n      pop\n        /* \"#utility.yul\":7487:7543   */\n      tag_340\n        /* \"#utility.yul\":7537:7542   */\n      dup4\n        /* \"#utility.yul\":7487:7543   */\n      tag_341\n      jump\t// in\n    tag_340:\n        /* \"#utility.yul\":7566:7573   */\n      dup1\n        /* \"#utility.yul\":7597:7598   */\n      0x00\n        /* \"#utility.yul\":7582:7866   */\n    tag_342:\n        /* \"#utility.yul\":7607:7613   */\n      dup4\n        /* \"#utility.yul\":7604:7605   */\n      dup2\n        /* \"#utility.yul\":7601:7614   */\n      lt\n        /* \"#utility.yul\":7582:7866   */\n      iszero\n      tag_344\n      jumpi\n        /* \"#utility.yul\":7683:7689   */\n      dup2\n        /* \"#utility.yul\":7677:7690   */\n      mload\n        /* \"#utility.yul\":7710:7773   */\n      tag_345\n        /* \"#utility.yul\":7769:7772   */\n      dup9\n        /* \"#utility.yul\":7754:7767   */\n      dup3\n        /* \"#utility.yul\":7710:7773   */\n      tag_307\n      jump\t// in\n    tag_345:\n        /* \"#utility.yul\":7703:7773   */\n      swap8\n      pop\n        /* \"#utility.yul\":7796:7856   */\n      tag_346\n        /* \"#utility.yul\":7849:7855   */\n      dup4\n        /* \"#utility.yul\":7796:7856   */\n      tag_347\n      jump\t// in\n    tag_346:\n        /* \"#utility.yul\":7786:7856   */\n      swap3\n      pop\n        /* \"#utility.yul\":7642:7866   */\n      pop\n        /* \"#utility.yul\":7629:7630   */\n      0x01\n        /* \"#utility.yul\":7626:7627   */\n      dup2\n        /* \"#utility.yul\":7622:7631   */\n      add\n        /* \"#utility.yul\":7617:7631   */\n      swap1\n      pop\n        /* \"#utility.yul\":7582:7866   */\n      jump(tag_342)\n    tag_344:\n        /* \"#utility.yul\":7586:7600   */\n      pop\n        /* \"#utility.yul\":7882:7885   */\n      dup6\n        /* \"#utility.yul\":7875:7885   */\n      swap4\n      pop\n        /* \"#utility.yul\":7283:7891   */\n      pop\n      pop\n      pop\n      swap3\n      swap2\n      pop\n      pop\n      jump\t// out\n        /* \"#utility.yul\":7897:8006   */\n    tag_348:\n        /* \"#utility.yul\":7978:7999   */\n      tag_350\n        /* \"#utility.yul\":7993:7998   */\n      dup2\n        /* \"#utility.yul\":7978:7999   */\n      tag_351\n      jump\t// in\n    tag_350:\n        /* \"#utility.yul\":7973:7976   */\n      dup3\n        /* \"#utility.yul\":7966:8000   */\n      mstore\n        /* \"#utility.yul\":7956:8006   */\n      pop\n      pop\n      jump\t// out\n        /* \"#utility.yul\":8012:8183   */\n    tag_352:\n        /* \"#utility.yul\":8119:8176   */\n      tag_354\n        /* \"#utility.yul\":8170:8175   */\n      dup2\n        /* \"#utility.yul\":8119:8176   */\n      tag_355\n      jump\t// in\n    tag_354:\n        /* \"#utility.yul\":8114:8117   */\n      dup3\n        /* \"#utility.yul\":8107:8177   */\n      mstore\n        /* \"#utility.yul\":8097:8183   */\n      pop\n      pop\n      jump\t// out\n        /* \"#utility.yul\":8189:8380   */\n    tag_356:\n        /* \"#utility.yul\":8306:8373   */\n      tag_358\n        /* \"#utility.yul\":8367:8372   */\n      dup2\n        /* \"#utility.yul\":8306:8373   */\n      tag_359\n      jump\t// in\n    tag_358:\n        /* \"#utility.yul\":8301:8304   */\n      dup3\n        /* \"#utility.yul\":8294:8374   */\n      mstore\n        /* \"#utility.yul\":8284:8380   */\n      pop\n      pop\n      jump\t// out\n        /* \"#utility.yul\":8386:8557   */\n    tag_360:\n        /* \"#utility.yul\":8493:8550   */\n      tag_362\n        /* \"#utility.yul\":8544:8549   */\n      dup2\n        /* \"#utility.yul\":8493:8550   */\n      tag_363\n      jump\t// in\n    tag_362:\n        /* \"#utility.yul\":8488:8491   */\n      dup3\n        /* \"#utility.yul\":8481:8551   */\n      mstore\n        /* \"#utility.yul\":8471:8557   */\n      pop\n      pop\n      jump\t// out\n        /* \"#utility.yul\":8563:8907   */\n    tag_306:\n      0x00\n        /* \"#utility.yul\":8669:8708   */\n      tag_365\n        /* \"#utility.yul\":8702:8707   */\n      dup3\n        /* \"#utility.yul\":8669:8708   */\n      tag_366\n      jump\t// in\n    tag_365:\n        /* \"#utility.yul\":8724:8785   */\n      tag_367\n        /* \"#utility.yul\":8778:8784   */\n      dup2\n        /* \"#utility.yul\":8773:8776   */\n      dup6\n        /* \"#utility.yul\":8724:8785   */\n      tag_368\n      jump\t// in\n    tag_367:\n        /* \"#utility.yul\":8717:8785   */\n      swap4\n      pop\n        /* \"#utility.yul\":8794:8846   */\n      tag_369\n        /* \"#utility.yul\":8839:8845   */\n      dup2\n        /* \"#utility.yul\":8834:8837   */\n      dup6\n        /* \"#utility.yul\":8827:8831   */\n      0x20\n        /* \"#utility.yul\":8820:8825   */\n      dup7\n        /* \"#utility.yul\":8816:8832   */\n      add\n        /* \"#utility.yul\":8794:8846   */\n      tag_370\n      jump\t// in\n    tag_369:\n        /* \"#utility.yul\":8871:8900   */\n      tag_371\n        /* \"#utility.yul\":8893:8899   */\n      dup2\n        /* \"#utility.yul\":8871:8900   */\n      tag_372\n      jump\t// in\n    tag_371:\n        /* \"#utility.yul\":8866:8869   */\n      dup5\n        /* \"#utility.yul\":8862:8901   */\n      add\n        /* \"#utility.yul\":8855:8901   */\n      swap2\n      pop\n        /* \"#utility.yul\":8645:8907   */\n      pop\n      swap3\n      swap2\n      pop\n      pop\n      jump\t// out\n        /* \"#utility.yul\":8913:9277   */\n    tag_373:\n      0x00\n        /* \"#utility.yul\":9029:9068   */\n      tag_375\n        /* \"#utility.yul\":9062:9067   */\n      dup3\n        /* \"#utility.yul\":9029:9068   */\n      tag_366\n      jump\t// in\n    tag_375:\n        /* \"#utility.yul\":9084:9155   */\n      tag_376\n        /* \"#utility.yul\":9148:9154   */\n      dup2\n        /* \"#utility.yul\":9143:9146   */\n      dup6\n        /* \"#utility.yul\":9084:9155   */\n      tag_377\n      jump\t// in\n    tag_376:\n        /* \"#utility.yul\":9077:9155   */\n      swap4\n      pop\n        /* \"#utility.yul\":9164:9216   */\n      tag_378\n        /* \"#utility.yul\":9209:9215   */\n      dup2\n        /* \"#utility.yul\":9204:9207   */\n      dup6\n        /* \"#utility.yul\":9197:9201   */\n      0x20\n        /* \"#utility.yul\":9190:9195   */\n      dup7\n        /* \"#utility.yul\":9186:9202   */\n      add\n        /* \"#utility.yul\":9164:9216   */\n      tag_370\n      jump\t// in\n    tag_378:\n        /* \"#utility.yul\":9241:9270   */\n      tag_379\n        /* \"#utility.yul\":9263:9269   */\n      dup2\n        /* \"#utility.yul\":9241:9270   */\n      tag_372\n      jump\t// in\n    tag_379:\n        /* \"#utility.yul\":9236:9239   */\n      dup5\n        /* \"#utility.yul\":9232:9271   */\n      add\n        /* \"#utility.yul\":9225:9271   */\n      swap2\n      pop\n        /* \"#utility.yul\":9005:9277   */\n      pop\n      swap3\n      swap2\n      pop\n      pop\n      jump\t// out\n        /* \"#utility.yul\":9283:9683   */\n    tag_380:\n      0x00\n        /* \"#utility.yul\":9464:9548   */\n      tag_382\n        /* \"#utility.yul\":9546:9547   */\n      0x08\n        /* \"#utility.yul\":9541:9544   */\n      dup4\n        /* \"#utility.yul\":9464:9548   */\n      tag_383\n      jump\t// in\n    tag_382:\n        /* \"#utility.yul\":9457:9548   */\n      swap2\n      pop\n        /* \"#utility.yul\":9557:9650   */\n      tag_384\n        /* \"#utility.yul\":9646:9649   */\n      dup3\n        /* \"#utility.yul\":9557:9650   */\n      tag_385\n      jump\t// in\n    tag_384:\n        /* \"#utility.yul\":9675:9676   */\n      0x08\n        /* \"#utility.yul\":9670:9673   */\n      dup3\n        /* \"#utility.yul\":9666:9677   */\n      add\n        /* \"#utility.yul\":9659:9677   */\n      swap1\n      pop\n        /* \"#utility.yul\":9447:9683   */\n      swap2\n      swap1\n      pop\n      jump\t// out\n        /* \"#utility.yul\":9689:10055   */\n    tag_386:\n      0x00\n        /* \"#utility.yul\":9852:9919   */\n      tag_388\n        /* \"#utility.yul\":9916:9918   */\n      0x36\n        /* \"#utility.yul\":9911:9914   */\n      dup4\n        /* \"#utility.yul\":9852:9919   */\n      tag_377\n      jump\t// in\n    tag_388:\n        /* \"#utility.yul\":9845:9919   */\n      swap2\n      pop\n        /* \"#utility.yul\":9928:10021   */\n      tag_389\n        /* \"#utility.yul\":10017:10020   */\n      dup3\n        /* \"#utility.yul\":9928:10021   */\n      tag_390\n      jump\t// in\n    tag_389:\n        /* \"#utility.yul\":10046:10048   */\n      0x40\n        /* \"#utility.yul\":10041:10044   */\n      dup3\n        /* \"#utility.yul\":10037:10049   */\n      add\n        /* \"#utility.yul\":10030:10049   */\n      swap1\n      pop\n        /* \"#utility.yul\":9835:10055   */\n      swap2\n      swap1\n      pop\n      jump\t// out\n        /* \"#utility.yul\":10061:10427   */\n    tag_391:\n      0x00\n        /* \"#utility.yul\":10224:10291   */\n      tag_393\n        /* \"#utility.yul\":10288:10290   */\n      0x1b\n        /* \"#utility.yul\":10283:10286   */\n      dup4\n        /* \"#utility.yul\":10224:10291   */\n      tag_377\n      jump\t// in\n    tag_393:\n        /* \"#utility.yul\":10217:10291   */\n      swap2\n      pop\n        /* \"#utility.yul\":10300:10393   */\n      tag_394\n        /* \"#utility.yul\":10389:10392   */\n      dup3\n        /* \"#utility.yul\":10300:10393   */\n      tag_395\n      jump\t// in\n    tag_394:\n        /* \"#utility.yul\":10418:10420   */\n      0x20\n        /* \"#utility.yul\":10413:10416   */\n      dup3\n        /* \"#utility.yul\":10409:10421   */\n      add\n        /* \"#utility.yul\":10402:10421   */\n      swap1\n      pop\n        /* \"#utility.yul\":10207:10427   */\n      swap2\n      swap1\n      pop\n      jump\t// out\n        /* \"#utility.yul\":10433:10799   */\n    tag_396:\n      0x00\n        /* \"#utility.yul\":10596:10663   */\n      tag_398\n        /* \"#utility.yul\":10660:10662   */\n      0x26\n        /* \"#utility.yul\":10655:10658   */\n      dup4\n        /* \"#utility.yul\":10596:10663   */\n      tag_377\n      jump\t// in\n    tag_398:\n        /* \"#utility.yul\":10589:10663   */\n      swap2\n      pop\n        /* \"#utility.yul\":10672:10765   */\n      tag_399\n        /* \"#utility.yul\":10761:10764   */\n      dup3\n        /* \"#utility.yul\":10672:10765   */\n      tag_400\n      jump\t// in\n    tag_399:\n        /* \"#utility.yul\":10790:10792   */\n      0x40\n        /* \"#utility.yul\":10785:10788   */\n      dup3\n        /* \"#utility.yul\":10781:10793   */\n      add\n        /* \"#utility.yul\":10774:10793   */\n      swap1\n      pop\n        /* \"#utility.yul\":10579:10799   */\n      swap2\n      swap1\n      pop\n      jump\t// out\n        /* \"#utility.yul\":10805:11205   */\n    tag_401:\n      0x00\n        /* \"#utility.yul\":10986:11070   */\n      tag_403\n        /* \"#utility.yul\":11068:11069   */\n      0x01\n        /* \"#utility.yul\":11063:11066   */\n      dup4\n        /* \"#utility.yul\":10986:11070   */\n      tag_383\n      jump\t// in\n    tag_403:\n        /* \"#utility.yul\":10979:11070   */\n      swap2\n      pop\n        /* \"#utility.yul\":11079:11172   */\n      tag_404\n        /* \"#utility.yul\":11168:11171   */\n      dup3\n        /* \"#utility.yul\":11079:11172   */\n      tag_405\n      jump\t// in\n    tag_404:\n        /* \"#utility.yul\":11197:11198   */\n      0x01\n        /* \"#utility.yul\":11192:11195   */\n      dup3\n        /* \"#utility.yul\":11188:11199   */\n      add\n        /* \"#utility.yul\":11181:11199   */\n      swap1\n      pop\n        /* \"#utility.yul\":10969:11205   */\n      swap2\n      swap1\n      pop\n      jump\t// out\n        /* \"#utility.yul\":11211:11613   */\n    tag_406:\n      0x00\n        /* \"#utility.yul\":11392:11477   */\n      tag_408\n        /* \"#utility.yul\":11474:11476   */\n      0x30\n        /* \"#utility.yul\":11469:11472   */\n      dup4\n        /* \"#utility.yul\":11392:11477   */\n      tag_383\n      jump\t// in\n    tag_408:\n        /* \"#utility.yul\":11385:11477   */\n      swap2\n      pop\n        /* \"#utility.yul\":11486:11579   */\n      tag_409\n        /* \"#utility.yul\":11575:11578   */\n      dup3\n        /* \"#utility.yul\":11486:11579   */\n      tag_410\n      jump\t// in\n    tag_409:\n        /* \"#utility.yul\":11604:11606   */\n      0x30\n        /* \"#utility.yul\":11599:11602   */\n      dup3\n        /* \"#utility.yul\":11595:11607   */\n      add\n        /* \"#utility.yul\":11588:11607   */\n      swap1\n      pop\n        /* \"#utility.yul\":11375:11613   */\n      swap2\n      swap1\n      pop\n      jump\t// out\n        /* \"#utility.yul\":11619:11985   */\n    tag_411:\n      0x00\n        /* \"#utility.yul\":11782:11849   */\n      tag_413\n        /* \"#utility.yul\":11846:11848   */\n      0x1f\n        /* \"#utility.yul\":11841:11844   */\n      dup4\n        /* \"#utility.yul\":11782:11849   */\n      tag_377\n      jump\t// in\n    tag_413:\n        /* \"#utility.yul\":11775:11849   */\n      swap2\n      pop\n        /* \"#utility.yul\":11858:11951   */\n      tag_414\n        /* \"#utility.yul\":11947:11950   */\n      dup3\n        /* \"#utility.yul\":11858:11951   */\n      tag_415\n      jump\t// in\n    tag_414:\n        /* \"#utility.yul\":11976:11978   */\n      0x20\n        /* \"#utility.yul\":11971:11974   */\n      dup3\n        /* \"#utility.yul\":11967:11979   */\n      add\n        /* \"#utility.yul\":11960:11979   */\n      swap1\n      pop\n        /* \"#utility.yul\":11765:11985   */\n      swap2\n      swap1\n      pop\n      jump\t// out\n        /* \"#utility.yul\":11991:12357   */\n    tag_416:\n      0x00\n        /* \"#utility.yul\":12154:12221   */\n      tag_418\n        /* \"#utility.yul\":12218:12220   */\n      0x20\n        /* \"#utility.yul\":12213:12216   */\n      dup4\n        /* \"#utility.yul\":12154:12221   */\n      tag_377\n      jump\t// in\n    tag_418:\n        /* \"#utility.yul\":12147:12221   */\n      swap2\n      pop\n        /* \"#utility.yul\":12230:12323   */\n      tag_419\n        /* \"#utility.yul\":12319:12322   */\n      dup3\n        /* \"#utility.yul\":12230:12323   */\n      tag_420\n      jump\t// in\n    tag_419:\n        /* \"#utility.yul\":12348:12350   */\n      0x20\n        /* \"#utility.yul\":12343:12346   */\n      dup3\n        /* \"#utility.yul\":12339:12351   */\n      add\n        /* \"#utility.yul\":12332:12351   */\n      swap1\n      pop\n        /* \"#utility.yul\":12137:12357   */\n      swap2\n      swap1\n      pop\n      jump\t// out\n        /* \"#utility.yul\":12363:12471   */\n    tag_310:\n        /* \"#utility.yul\":12440:12464   */\n      tag_422\n        /* \"#utility.yul\":12458:12463   */\n      dup2\n        /* \"#utility.yul\":12440:12464   */\n      tag_423\n      jump\t// in\n    tag_422:\n        /* \"#utility.yul\":12435:12438   */\n      dup3\n        /* \"#utility.yul\":12428:12465   */\n      mstore\n        /* \"#utility.yul\":12418:12471   */\n      pop\n      pop\n      jump\t// out\n        /* \"#utility.yul\":12477:12595   */\n    tag_424:\n        /* \"#utility.yul\":12564:12588   */\n      tag_426\n        /* \"#utility.yul\":12582:12587   */\n      dup2\n        /* \"#utility.yul\":12564:12588   */\n      tag_423\n      jump\t// in\n    tag_426:\n        /* \"#utility.yul\":12559:12562   */\n      dup3\n        /* \"#utility.yul\":12552:12589   */\n      mstore\n        /* \"#utility.yul\":12542:12595   */\n      pop\n      pop\n      jump\t// out\n        /* \"#utility.yul\":12601:12758   */\n    tag_427:\n        /* \"#utility.yul\":12706:12751   */\n      tag_429\n        /* \"#utility.yul\":12726:12750   */\n      tag_430\n        /* \"#utility.yul\":12744:12749   */\n      dup3\n        /* \"#utility.yul\":12726:12750   */\n      tag_423\n      jump\t// in\n    tag_430:\n        /* \"#utility.yul\":12706:12751   */\n      tag_431\n      jump\t// in\n    tag_429:\n        /* \"#utility.yul\":12701:12704   */\n      dup3\n        /* \"#utility.yul\":12694:12752   */\n      mstore\n        /* \"#utility.yul\":12684:12758   */\n      pop\n      pop\n      jump\t// out\n        /* \"#utility.yul\":12764:13959   */\n    tag_160:\n      0x00\n        /* \"#utility.yul\":13229:13377   */\n      tag_433\n        /* \"#utility.yul\":13373:13376   */\n      dup3\n        /* \"#utility.yul\":13229:13377   */\n      tag_380\n      jump\t// in\n    tag_433:\n        /* \"#utility.yul\":13222:13377   */\n      swap2\n      pop\n        /* \"#utility.yul\":13387:13462   */\n      tag_434\n        /* \"#utility.yul\":13458:13461   */\n      dup3\n        /* \"#utility.yul\":13449:13455   */\n      dup6\n        /* \"#utility.yul\":13387:13462   */\n      tag_315\n      jump\t// in\n    tag_434:\n        /* \"#utility.yul\":13487:13489   */\n      0x14\n        /* \"#utility.yul\":13482:13485   */\n      dup3\n        /* \"#utility.yul\":13478:13490   */\n      add\n        /* \"#utility.yul\":13471:13490   */\n      swap2\n      pop\n        /* \"#utility.yul\":13507:13655   */\n      tag_435\n        /* \"#utility.yul\":13651:13654   */\n      dup3\n        /* \"#utility.yul\":13507:13655   */\n      tag_406\n      jump\t// in\n    tag_435:\n        /* \"#utility.yul\":13500:13655   */\n      swap2\n      pop\n        /* \"#utility.yul\":13665:13740   */\n      tag_436\n        /* \"#utility.yul\":13736:13739   */\n      dup3\n        /* \"#utility.yul\":13727:13733   */\n      dup5\n        /* \"#utility.yul\":13665:13740   */\n      tag_427\n      jump\t// in\n    tag_436:\n        /* \"#utility.yul\":13765:13767   */\n      0x20\n        /* \"#utility.yul\":13760:13763   */\n      dup3\n        /* \"#utility.yul\":13756:13768   */\n      add\n        /* \"#utility.yul\":13749:13768   */\n      swap2\n      pop\n        /* \"#utility.yul\":13785:13933   */\n      tag_437\n        /* \"#utility.yul\":13929:13932   */\n      dup3\n        /* \"#utility.yul\":13785:13933   */\n      tag_401\n      jump\t// in\n    tag_437:\n        /* \"#utility.yul\":13778:13933   */\n      swap2\n      pop\n        /* \"#utility.yul\":13950:13953   */\n      dup2\n        /* \"#utility.yul\":13943:13953   */\n      swap1\n      pop\n        /* \"#utility.yul\":13211:13959   */\n      swap4\n      swap3\n      pop\n      pop\n      pop\n      jump\t// out\n        /* \"#utility.yul\":13965:14187   */\n    tag_52:\n      0x00\n        /* \"#utility.yul\":14096:14098   */\n      0x20\n        /* \"#utility.yul\":14085:14094   */\n      dup3\n        /* \"#utility.yul\":14081:14099   */\n      add\n        /* \"#utility.yul\":14073:14099   */\n      swap1\n      pop\n        /* \"#utility.yul\":14109:14180   */\n      tag_439\n        /* \"#utility.yul\":14177:14178   */\n      0x00\n        /* \"#utility.yul\":14166:14175   */\n      dup4\n        /* \"#utility.yul\":14162:14179   */\n      add\n        /* \"#utility.yul\":14153:14159   */\n      dup5\n        /* \"#utility.yul\":14109:14180   */\n      tag_311\n      jump\t// in\n    tag_439:\n        /* \"#utility.yul\":14063:14187   */\n      swap3\n      swap2\n      pop\n      pop\n      jump\t// out\n        /* \"#utility.yul\":14193:14525   */\n    tag_153:\n      0x00\n        /* \"#utility.yul\":14352:14354   */\n      0x40\n        /* \"#utility.yul\":14341:14350   */\n      dup3\n        /* \"#utility.yul\":14337:14355   */\n      add\n        /* \"#utility.yul\":14329:14355   */\n      swap1\n      pop\n        /* \"#utility.yul\":14365:14436   */\n      tag_441\n        /* \"#utility.yul\":14433:14434   */\n      0x00\n        /* \"#utility.yul\":14422:14431   */\n      dup4\n        /* \"#utility.yul\":14418:14435   */\n      add\n        /* \"#utility.yul\":14409:14415   */\n      dup6\n        /* \"#utility.yul\":14365:14436   */\n      tag_311\n      jump\t// in\n    tag_441:\n        /* \"#utility.yul\":14446:14518   */\n      tag_442\n        /* \"#utility.yul\":14514:14516   */\n      0x20\n        /* \"#utility.yul\":14503:14512   */\n      dup4\n        /* \"#utility.yul\":14499:14517   */\n      add\n        /* \"#utility.yul\":14490:14496   */\n      dup5\n        /* \"#utility.yul\":14446:14518   */\n      tag_424\n      jump\t// in\n    tag_442:\n        /* \"#utility.yul\":14319:14525   */\n      swap4\n      swap3\n      pop\n      pop\n      pop\n      jump\t// out\n        /* \"#utility.yul\":14531:15205   */\n    tag_186:\n      0x00\n        /* \"#utility.yul\":14810:14812   */\n      0x40\n        /* \"#utility.yul\":14799:14808   */\n      dup3\n        /* \"#utility.yul\":14795:14813   */\n      add\n        /* \"#utility.yul\":14787:14813   */\n      swap1\n      pop\n        /* \"#utility.yul\":14859:14868   */\n      dup2\n        /* \"#utility.yul\":14853:14857   */\n      dup2\n        /* \"#utility.yul\":14849:14869   */\n      sub\n        /* \"#utility.yul\":14845:14846   */\n      0x00\n        /* \"#utility.yul\":14834:14843   */\n      dup4\n        /* \"#utility.yul\":14830:14847   */\n      add\n        /* \"#utility.yul\":14823:14870   */\n      mstore\n        /* \"#utility.yul\":14887:14995   */\n      tag_444\n        /* \"#utility.yul\":14990:14994   */\n      dup2\n        /* \"#utility.yul\":14981:14987   */\n      dup6\n        /* \"#utility.yul\":14887:14995   */\n      tag_334\n      jump\t// in\n    tag_444:\n        /* \"#utility.yul\":14879:14995   */\n      swap1\n      pop\n        /* \"#utility.yul\":15042:15051   */\n      dup2\n        /* \"#utility.yul\":15036:15040   */\n      dup2\n        /* \"#utility.yul\":15032:15052   */\n      sub\n        /* \"#utility.yul\":15027:15029   */\n      0x20\n        /* \"#utility.yul\":15016:15025   */\n      dup4\n        /* \"#utility.yul\":15012:15030   */\n      add\n        /* \"#utility.yul\":15005:15053   */\n      mstore\n        /* \"#utility.yul\":15070:15198   */\n      tag_445\n        /* \"#utility.yul\":15193:15197   */\n      dup2\n        /* \"#utility.yul\":15184:15190   */\n      dup5\n        /* \"#utility.yul\":15070:15198   */\n      tag_320\n      jump\t// in\n    tag_445:\n        /* \"#utility.yul\":15062:15198   */\n      swap1\n      pop\n        /* \"#utility.yul\":14777:15205   */\n      swap4\n      swap3\n      pop\n      pop\n      pop\n      jump\t// out\n        /* \"#utility.yul\":15211:15473   */\n    tag_48:\n      0x00\n        /* \"#utility.yul\":15362:15364   */\n      0x20\n        /* \"#utility.yul\":15351:15360   */\n      dup3\n        /* \"#utility.yul\":15347:15365   */\n      add\n        /* \"#utility.yul\":15339:15365   */\n      swap1\n      pop\n        /* \"#utility.yul\":15375:15466   */\n      tag_447\n        /* \"#utility.yul\":15463:15464   */\n      0x00\n        /* \"#utility.yul\":15452:15461   */\n      dup4\n        /* \"#utility.yul\":15448:15465   */\n      add\n        /* \"#utility.yul\":15439:15445   */\n      dup5\n        /* \"#utility.yul\":15375:15466   */\n      tag_352\n      jump\t// in\n    tag_447:\n        /* \"#utility.yul\":15329:15473   */\n      swap3\n      swap2\n      pop\n      pop\n      jump\t// out\n        /* \"#utility.yul\":15479:15761   */\n    tag_39:\n      0x00\n        /* \"#utility.yul\":15640:15642   */\n      0x20\n        /* \"#utility.yul\":15629:15638   */\n      dup3\n        /* \"#utility.yul\":15625:15643   */\n      add\n        /* \"#utility.yul\":15617:15643   */\n      swap1\n      pop\n        /* \"#utility.yul\":15653:15754   */\n      tag_449\n        /* \"#utility.yul\":15751:15752   */\n      0x00\n        /* \"#utility.yul\":15740:15749   */\n      dup4\n        /* \"#utility.yul\":15736:15753   */\n      add\n        /* \"#utility.yul\":15727:15733   */\n      dup5\n        /* \"#utility.yul\":15653:15754   */\n      tag_356\n      jump\t// in\n    tag_449:\n        /* \"#utility.yul\":15607:15761   */\n      swap3\n      swap2\n      pop\n      pop\n      jump\t// out\n        /* \"#utility.yul\":15767:16029   */\n    tag_75:\n      0x00\n        /* \"#utility.yul\":15918:15920   */\n      0x20\n        /* \"#utility.yul\":15907:15916   */\n      dup3\n        /* \"#utility.yul\":15903:15921   */\n      add\n        /* \"#utility.yul\":15895:15921   */\n      swap1\n      pop\n        /* \"#utility.yul\":15931:16022   */\n      tag_451\n        /* \"#utility.yul\":16019:16020   */\n      0x00\n        /* \"#utility.yul\":16008:16017   */\n      dup4\n        /* \"#utility.yul\":16004:16021   */\n      add\n        /* \"#utility.yul\":15995:16001   */\n      dup5\n        /* \"#utility.yul\":15931:16022   */\n      tag_360\n      jump\t// in\n    tag_451:\n        /* \"#utility.yul\":15885:16029   */\n      swap3\n      swap2\n      pop\n      pop\n      jump\t// out\n        /* \"#utility.yul\":16035:16348   */\n    tag_163:\n      0x00\n        /* \"#utility.yul\":16186:16188   */\n      0x20\n        /* \"#utility.yul\":16175:16184   */\n      dup3\n        /* \"#utility.yul\":16171:16189   */\n      add\n        /* \"#utility.yul\":16163:16189   */\n      swap1\n      pop\n        /* \"#utility.yul\":16235:16244   */\n      dup2\n        /* \"#utility.yul\":16229:16233   */\n      dup2\n        /* \"#utility.yul\":16225:16245   */\n      sub\n        /* \"#utility.yul\":16221:16222   */\n      0x00\n        /* \"#utility.yul\":16210:16219   */\n      dup4\n        /* \"#utility.yul\":16206:16223   */\n      add\n        /* \"#utility.yul\":16199:16246   */\n      mstore\n        /* \"#utility.yul\":16263:16341   */\n      tag_453\n        /* \"#utility.yul\":16336:16340   */\n      dup2\n        /* \"#utility.yul\":16327:16333   */\n      dup5\n        /* \"#utility.yul\":16263:16341   */\n      tag_373\n      jump\t// in\n    tag_453:\n        /* \"#utility.yul\":16255:16341   */\n      swap1\n      pop\n        /* \"#utility.yul\":16153:16348   */\n      swap3\n      swap2\n      pop\n      pop\n      jump\t// out\n        /* \"#utility.yul\":16354:16773   */\n    tag_129:\n      0x00\n        /* \"#utility.yul\":16558:16560   */\n      0x20\n        /* \"#utility.yul\":16547:16556   */\n      dup3\n        /* \"#utility.yul\":16543:16561   */\n      add\n        /* \"#utility.yul\":16535:16561   */\n      swap1\n      pop\n        /* \"#utility.yul\":16607:16616   */\n      dup2\n        /* \"#utility.yul\":16601:16605   */\n      dup2\n        /* \"#utility.yul\":16597:16617   */\n      sub\n        /* \"#utility.yul\":16593:16594   */\n      0x00\n        /* \"#utility.yul\":16582:16591   */\n      dup4\n        /* \"#utility.yul\":16578:16595   */\n      add\n        /* \"#utility.yul\":16571:16618   */\n      mstore\n        /* \"#utility.yul\":16635:16766   */\n      tag_455\n        /* \"#utility.yul\":16761:16765   */\n      dup2\n        /* \"#utility.yul\":16635:16766   */\n      tag_386\n      jump\t// in\n    tag_455:\n        /* \"#utility.yul\":16627:16766   */\n      swap1\n      pop\n        /* \"#utility.yul\":16525:16773   */\n      swap2\n      swap1\n      pop\n      jump\t// out\n        /* \"#utility.yul\":16779:17198   */\n    tag_124:\n      0x00\n        /* \"#utility.yul\":16983:16985   */\n      0x20\n        /* \"#utility.yul\":16972:16981   */\n      dup3\n        /* \"#utility.yul\":16968:16986   */\n      add\n        /* \"#utility.yul\":16960:16986   */\n      swap1\n      pop\n        /* \"#utility.yul\":17032:17041   */\n      dup2\n        /* \"#utility.yul\":17026:17030   */\n      dup2\n        /* \"#utility.yul\":17022:17042   */\n      sub\n        /* \"#utility.yul\":17018:17019   */\n      0x00\n        /* \"#utility.yul\":17007:17016   */\n      dup4\n        /* \"#utility.yul\":17003:17020   */\n      add\n        /* \"#utility.yul\":16996:17043   */\n      mstore\n        /* \"#utility.yul\":17060:17191   */\n      tag_457\n        /* \"#utility.yul\":17186:17190   */\n      dup2\n        /* \"#utility.yul\":17060:17191   */\n      tag_391\n      jump\t// in\n    tag_457:\n        /* \"#utility.yul\":17052:17191   */\n      swap1\n      pop\n        /* \"#utility.yul\":16950:17198   */\n      swap2\n      swap1\n      pop\n      jump\t// out\n        /* \"#utility.yul\":17204:17623   */\n    tag_198:\n      0x00\n        /* \"#utility.yul\":17408:17410   */\n      0x20\n        /* \"#utility.yul\":17397:17406   */\n      dup3\n        /* \"#utility.yul\":17393:17411   */\n      add\n        /* \"#utility.yul\":17385:17411   */\n      swap1\n      pop\n        /* \"#utility.yul\":17457:17466   */\n      dup2\n        /* \"#utility.yul\":17451:17455   */\n      dup2\n        /* \"#utility.yul\":17447:17467   */\n      sub\n        /* \"#utility.yul\":17443:17444   */\n      0x00\n        /* \"#utility.yul\":17432:17441   */\n      dup4\n        /* \"#utility.yul\":17428:17445   */\n      add\n        /* \"#utility.yul\":17421:17468   */\n      mstore\n        /* \"#utility.yul\":17485:17616   */\n      tag_459\n        /* \"#utility.yul\":17611:17615   */\n      dup2\n        /* \"#utility.yul\":17485:17616   */\n      tag_396\n      jump\t// in\n    tag_459:\n        /* \"#utility.yul\":17477:17616   */\n      swap1\n      pop\n        /* \"#utility.yul\":17375:17623   */\n      swap2\n      swap1\n      pop\n      jump\t// out\n        /* \"#utility.yul\":17629:18048   */\n    tag_203:\n      0x00\n        /* \"#utility.yul\":17833:17835   */\n      0x20\n        /* \"#utility.yul\":17822:17831   */\n      dup3\n        /* \"#utility.yul\":17818:17836   */\n      add\n        /* \"#utility.yul\":17810:17836   */\n      swap1\n      pop\n        /* \"#utility.yul\":17882:17891   */\n      dup2\n        /* \"#utility.yul\":17876:17880   */\n      dup2\n        /* \"#utility.yul\":17872:17892   */\n      sub\n        /* \"#utility.yul\":17868:17869   */\n      0x00\n        /* \"#utility.yul\":17857:17866   */\n      dup4\n        /* \"#utility.yul\":17853:17870   */\n      add\n        /* \"#utility.yul\":17846:17893   */\n      mstore\n        /* \"#utility.yul\":17910:18041   */\n      tag_461\n        /* \"#utility.yul\":18036:18040   */\n      dup2\n        /* \"#utility.yul\":17910:18041   */\n      tag_411\n      jump\t// in\n    tag_461:\n        /* \"#utility.yul\":17902:18041   */\n      swap1\n      pop\n        /* \"#utility.yul\":17800:18048   */\n      swap2\n      swap1\n      pop\n      jump\t// out\n        /* \"#utility.yul\":18054:18473   */\n    tag_105:\n      0x00\n        /* \"#utility.yul\":18258:18260   */\n      0x20\n        /* \"#utility.yul\":18247:18256   */\n      dup3\n        /* \"#utility.yul\":18243:18261   */\n      add\n        /* \"#utility.yul\":18235:18261   */\n      swap1\n      pop\n        /* \"#utility.yul\":18307:18316   */\n      dup2\n        /* \"#utility.yul\":18301:18305   */\n      dup2\n        /* \"#utility.yul\":18297:18317   */\n      sub\n        /* \"#utility.yul\":18293:18294   */\n      0x00\n        /* \"#utility.yul\":18282:18291   */\n      dup4\n        /* \"#utility.yul\":18278:18295   */\n      add\n        /* \"#utility.yul\":18271:18318   */\n      mstore\n        /* \"#utility.yul\":18335:18466   */\n      tag_463\n        /* \"#utility.yul\":18461:18465   */\n      dup2\n        /* \"#utility.yul\":18335:18466   */\n      tag_416\n      jump\t// in\n    tag_463:\n        /* \"#utility.yul\":18327:18466   */\n      swap1\n      pop\n        /* \"#utility.yul\":18225:18473   */\n      swap2\n      swap1\n      pop\n      jump\t// out\n        /* \"#utility.yul\":18479:18701   */\n    tag_27:\n      0x00\n        /* \"#utility.yul\":18610:18612   */\n      0x20\n        /* \"#utility.yul\":18599:18608   */\n      dup3\n        /* \"#utility.yul\":18595:18613   */\n      add\n        /* \"#utility.yul\":18587:18613   */\n      swap1\n      pop\n        /* \"#utility.yul\":18623:18694   */\n      tag_465\n        /* \"#utility.yul\":18691:18692   */\n      0x00\n        /* \"#utility.yul\":18680:18689   */\n      dup4\n        /* \"#utility.yul\":18676:18693   */\n      add\n        /* \"#utility.yul\":18667:18673   */\n      dup5\n        /* \"#utility.yul\":18623:18694   */\n      tag_424\n      jump\t// in\n    tag_465:\n        /* \"#utility.yul\":18577:18701   */\n      swap3\n      swap2\n      pop\n      pop\n      jump\t// out\n        /* \"#utility.yul\":18707:19137   */\n    tag_71:\n      0x00\n        /* \"#utility.yul\":18888:18890   */\n      0x60\n        /* \"#utility.yul\":18877:18886   */\n      dup3\n        /* \"#utility.yul\":18873:18891   */\n      add\n        /* \"#utility.yul\":18865:18891   */\n      swap1\n      pop\n        /* \"#utility.yul\":18901:18972   */\n      tag_467\n        /* \"#utility.yul\":18969:18970   */\n      0x00\n        /* \"#utility.yul\":18958:18967   */\n      dup4\n        /* \"#utility.yul\":18954:18971   */\n      add\n        /* \"#utility.yul\":18945:18951   */\n      dup7\n        /* \"#utility.yul\":18901:18972   */\n      tag_424\n      jump\t// in\n    tag_467:\n        /* \"#utility.yul\":18982:19054   */\n      tag_468\n        /* \"#utility.yul\":19050:19052   */\n      0x20\n        /* \"#utility.yul\":19039:19048   */\n      dup4\n        /* \"#utility.yul\":19035:19053   */\n      add\n        /* \"#utility.yul\":19026:19032   */\n      dup6\n        /* \"#utility.yul\":18982:19054   */\n      tag_424\n      jump\t// in\n    tag_468:\n        /* \"#utility.yul\":19064:19130   */\n      tag_469\n        /* \"#utility.yul\":19126:19128   */\n      0x40\n        /* \"#utility.yul\":19115:19124   */\n      dup4\n        /* \"#utility.yul\":19111:19129   */\n      add\n        /* \"#utility.yul\":19102:19108   */\n      dup5\n        /* \"#utility.yul\":19064:19130   */\n      tag_348\n      jump\t// in\n    tag_469:\n        /* \"#utility.yul\":18855:19137   */\n      swap5\n      swap4\n      pop\n      pop\n      pop\n      pop\n      jump\t// out\n        /* \"#utility.yul\":19143:19272   */\n    tag_231:\n      0x00\n        /* \"#utility.yul\":19204:19224   */\n      tag_471\n      tag_472\n      jump\t// in\n    tag_471:\n        /* \"#utility.yul\":19194:19224   */\n      swap1\n      pop\n        /* \"#utility.yul\":19233:19266   */\n      tag_473\n        /* \"#utility.yul\":19261:19265   */\n      dup3\n        /* \"#utility.yul\":19253:19259   */\n      dup3\n        /* \"#utility.yul\":19233:19266   */\n      tag_474\n      jump\t// in\n    tag_473:\n        /* \"#utility.yul\":19184:19272   */\n      swap2\n      swap1\n      pop\n      jump\t// out\n        /* \"#utility.yul\":19278:19353   */\n    tag_472:\n      0x00\n        /* \"#utility.yul\":19344:19346   */\n      0x40\n        /* \"#utility.yul\":19338:19347   */\n      mload\n        /* \"#utility.yul\":19328:19347   */\n      swap1\n      pop\n        /* \"#utility.yul\":19318:19353   */\n      swap1\n      jump\t// out\n        /* \"#utility.yul\":19359:19680   */\n    tag_230:\n      0x00\n        /* \"#utility.yul\":19536:19554   */\n      0xffffffffffffffff\n        /* \"#utility.yul\":19528:19534   */\n      dup3\n        /* \"#utility.yul\":19525:19555   */\n      gt\n        /* \"#utility.yul\":19522:19524   */\n      iszero\n      tag_477\n      jumpi\n        /* \"#utility.yul\":19558:19576   */\n      tag_478\n      tag_479\n      jump\t// in\n    tag_478:\n        /* \"#utility.yul\":19522:19524   */\n    tag_477:\n        /* \"#utility.yul\":19608:19612   */\n      0x20\n        /* \"#utility.yul\":19600:19606   */\n      dup3\n        /* \"#utility.yul\":19596:19613   */\n      mul\n        /* \"#utility.yul\":19588:19613   */\n      swap1\n      pop\n        /* \"#utility.yul\":19668:19672   */\n      0x20\n        /* \"#utility.yul\":19662:19666   */\n      dup2\n        /* \"#utility.yul\":19658:19673   */\n      add\n        /* \"#utility.yul\":19650:19673   */\n      swap1\n      pop\n        /* \"#utility.yul\":19451:19680   */\n      swap2\n      swap1\n      pop\n      jump\t// out\n        /* \"#utility.yul\":19686:19997   */\n    tag_241:\n      0x00\n        /* \"#utility.yul\":19853:19871   */\n      0xffffffffffffffff\n        /* \"#utility.yul\":19845:19851   */\n      dup3\n        /* \"#utility.yul\":19842:19872   */\n      gt\n        /* \"#utility.yul\":19839:19841   */\n      iszero\n      tag_481\n      jumpi\n        /* \"#utility.yul\":19875:19893   */\n      tag_482\n      tag_479\n      jump\t// in\n    tag_482:\n        /* \"#utility.yul\":19839:19841   */\n    tag_481:\n        /* \"#utility.yul\":19925:19929   */\n      0x20\n        /* \"#utility.yul\":19917:19923   */\n      dup3\n        /* \"#utility.yul\":19913:19930   */\n      mul\n        /* \"#utility.yul\":19905:19930   */\n      swap1\n      pop\n        /* \"#utility.yul\":19985:19989   */\n      0x20\n        /* \"#utility.yul\":19979:19983   */\n      dup2\n        /* \"#utility.yul\":19975:19990   */\n      add\n        /* \"#utility.yul\":19967:19990   */\n      swap1\n      pop\n        /* \"#utility.yul\":19768:19997   */\n      swap2\n      swap1\n      pop\n      jump\t// out\n        /* \"#utility.yul\":20003:20311   */\n    tag_252:\n      0x00\n        /* \"#utility.yul\":20155:20173   */\n      0xffffffffffffffff\n        /* \"#utility.yul\":20147:20153   */\n      dup3\n        /* \"#utility.yul\":20144:20174   */\n      gt\n        /* \"#utility.yul\":20141:20143   */\n      iszero\n      tag_484\n      jumpi\n        /* \"#utility.yul\":20177:20195   */\n      tag_485\n      tag_479\n      jump\t// in\n    tag_485:\n        /* \"#utility.yul\":20141:20143   */\n    tag_484:\n        /* \"#utility.yul\":20215:20244   */\n      tag_486\n        /* \"#utility.yul\":20237:20243   */\n      dup3\n        /* \"#utility.yul\":20215:20244   */\n      tag_372\n      jump\t// in\n    tag_486:\n        /* \"#utility.yul\":20207:20244   */\n      swap1\n      pop\n        /* \"#utility.yul\":20299:20303   */\n      0x20\n        /* \"#utility.yul\":20293:20297   */\n      dup2\n        /* \"#utility.yul\":20289:20304   */\n      add\n        /* \"#utility.yul\":20281:20304   */\n      swap1\n      pop\n        /* \"#utility.yul\":20070:20311   */\n      swap2\n      swap1\n      pop\n      jump\t// out\n        /* \"#utility.yul\":20317:20459   */\n    tag_327:\n      0x00\n        /* \"#utility.yul\":20417:20420   */\n      dup2\n        /* \"#utility.yul\":20409:20420   */\n      swap1\n      pop\n        /* \"#utility.yul\":20447:20451   */\n      0x20\n        /* \"#utility.yul\":20442:20445   */\n      dup3\n        /* \"#utility.yul\":20438:20452   */\n      add\n        /* \"#utility.yul\":20430:20452   */\n      swap1\n      pop\n        /* \"#utility.yul\":20399:20459   */\n      swap2\n      swap1\n      pop\n      jump\t// out\n        /* \"#utility.yul\":20465:20597   */\n    tag_341:\n      0x00\n        /* \"#utility.yul\":20555:20558   */\n      dup2\n        /* \"#utility.yul\":20547:20558   */\n      swap1\n      pop\n        /* \"#utility.yul\":20585:20589   */\n      0x20\n        /* \"#utility.yul\":20580:20583   */\n      dup3\n        /* \"#utility.yul\":20576:20590   */\n      add\n        /* \"#utility.yul\":20568:20590   */\n      swap1\n      pop\n        /* \"#utility.yul\":20537:20597   */\n      swap2\n      swap1\n      pop\n      jump\t// out\n        /* \"#utility.yul\":20603:20727   */\n    tag_323:\n      0x00\n        /* \"#utility.yul\":20714:20719   */\n      dup2\n        /* \"#utility.yul\":20708:20720   */\n      mload\n        /* \"#utility.yul\":20698:20720   */\n      swap1\n      pop\n        /* \"#utility.yul\":20687:20727   */\n      swap2\n      swap1\n      pop\n      jump\t// out\n        /* \"#utility.yul\":20733:20847   */\n    tag_337:\n      0x00\n        /* \"#utility.yul\":20834:20839   */\n      dup2\n        /* \"#utility.yul\":20828:20840   */\n      mload\n        /* \"#utility.yul\":20818:20840   */\n      swap1\n      pop\n        /* \"#utility.yul\":20807:20847   */\n      swap2\n      swap1\n      pop\n      jump\t// out\n        /* \"#utility.yul\":20853:20952   */\n    tag_366:\n      0x00\n        /* \"#utility.yul\":20939:20944   */\n      dup2\n        /* \"#utility.yul\":20933:20945   */\n      mload\n        /* \"#utility.yul\":20923:20945   */\n      swap1\n      pop\n        /* \"#utility.yul\":20912:20952   */\n      swap2\n      swap1\n      pop\n      jump\t// out\n        /* \"#utility.yul\":20958:21081   */\n    tag_333:\n      0x00\n        /* \"#utility.yul\":21070:21074   */\n      0x20\n        /* \"#utility.yul\":21065:21068   */\n      dup3\n        /* \"#utility.yul\":21061:21075   */\n      add\n        /* \"#utility.yul\":21053:21075   */\n      swap1\n      pop\n        /* \"#utility.yul\":21043:21081   */\n      swap2\n      swap1\n      pop\n      jump\t// out\n        /* \"#utility.yul\":21087:21200   */\n    tag_347:\n      0x00\n        /* \"#utility.yul\":21189:21193   */\n      0x20\n        /* \"#utility.yul\":21184:21187   */\n      dup3\n        /* \"#utility.yul\":21180:21194   */\n      add\n        /* \"#utility.yul\":21172:21194   */\n      swap1\n      pop\n        /* \"#utility.yul\":21162:21200   */\n      swap2\n      swap1\n      pop\n      jump\t// out\n        /* \"#utility.yul\":21206:21400   */\n    tag_325:\n      0x00\n        /* \"#utility.yul\":21349:21355   */\n      dup3\n        /* \"#utility.yul\":21344:21347   */\n      dup3\n        /* \"#utility.yul\":21337:21356   */\n      mstore\n        /* \"#utility.yul\":21389:21393   */\n      0x20\n        /* \"#utility.yul\":21384:21387   */\n      dup3\n        /* \"#utility.yul\":21380:21394   */\n      add\n        /* \"#utility.yul\":21365:21394   */\n      swap1\n      pop\n        /* \"#utility.yul\":21327:21400   */\n      swap3\n      swap2\n      pop\n      pop\n      jump\t// out\n        /* \"#utility.yul\":21406:21590   */\n    tag_339:\n      0x00\n        /* \"#utility.yul\":21539:21545   */\n      dup3\n        /* \"#utility.yul\":21534:21537   */\n      dup3\n        /* \"#utility.yul\":21527:21546   */\n      mstore\n        /* \"#utility.yul\":21579:21583   */\n      0x20\n        /* \"#utility.yul\":21574:21577   */\n      dup3\n        /* \"#utility.yul\":21570:21584   */\n      add\n        /* \"#utility.yul\":21555:21584   */\n      swap1\n      pop\n        /* \"#utility.yul\":21517:21590   */\n      swap3\n      swap2\n      pop\n      pop\n      jump\t// out\n        /* \"#utility.yul\":21596:21755   */\n    tag_368:\n      0x00\n        /* \"#utility.yul\":21704:21710   */\n      dup3\n        /* \"#utility.yul\":21699:21702   */\n      dup3\n        /* \"#utility.yul\":21692:21711   */\n      mstore\n        /* \"#utility.yul\":21744:21748   */\n      0x20\n        /* \"#utility.yul\":21739:21742   */\n      dup3\n        /* \"#utility.yul\":21735:21749   */\n      add\n        /* \"#utility.yul\":21720:21749   */\n      swap1\n      pop\n        /* \"#utility.yul\":21682:21755   */\n      swap3\n      swap2\n      pop\n      pop\n      jump\t// out\n        /* \"#utility.yul\":21761:21930   */\n    tag_377:\n      0x00\n        /* \"#utility.yul\":21879:21885   */\n      dup3\n        /* \"#utility.yul\":21874:21877   */\n      dup3\n        /* \"#utility.yul\":21867:21886   */\n      mstore\n        /* \"#utility.yul\":21919:21923   */\n      0x20\n        /* \"#utility.yul\":21914:21917   */\n      dup3\n        /* \"#utility.yul\":21910:21924   */\n      add\n        /* \"#utility.yul\":21895:21924   */\n      swap1\n      pop\n        /* \"#utility.yul\":21857:21930   */\n      swap3\n      swap2\n      pop\n      pop\n      jump\t// out\n        /* \"#utility.yul\":21936:22084   */\n    tag_383:\n      0x00\n        /* \"#utility.yul\":22075:22078   */\n      dup2\n        /* \"#utility.yul\":22060:22078   */\n      swap1\n      pop\n        /* \"#utility.yul\":22050:22084   */\n      swap3\n      swap2\n      pop\n      pop\n      jump\t// out\n        /* \"#utility.yul\":22090:22275   */\n    tag_166:\n      0x00\n        /* \"#utility.yul\":22147:22167   */\n      tag_500\n        /* \"#utility.yul\":22165:22166   */\n      dup3\n        /* \"#utility.yul\":22147:22167   */\n      tag_423\n      jump\t// in\n    tag_500:\n        /* \"#utility.yul\":22142:22167   */\n      swap2\n      pop\n        /* \"#utility.yul\":22181:22201   */\n      tag_501\n        /* \"#utility.yul\":22199:22200   */\n      dup4\n        /* \"#utility.yul\":22181:22201   */\n      tag_423\n      jump\t// in\n    tag_501:\n        /* \"#utility.yul\":22176:22201   */\n      swap3\n      pop\n        /* \"#utility.yul\":22220:22221   */\n      dup3\n        /* \"#utility.yul\":22210:22212   */\n      tag_502\n      jumpi\n        /* \"#utility.yul\":22225:22243   */\n      tag_503\n      tag_504\n      jump\t// in\n    tag_503:\n        /* \"#utility.yul\":22210:22212   */\n    tag_502:\n        /* \"#utility.yul\":22267:22268   */\n      dup3\n        /* \"#utility.yul\":22264:22265   */\n      dup3\n        /* \"#utility.yul\":22260:22269   */\n      div\n        /* \"#utility.yul\":22255:22269   */\n      swap1\n      pop\n        /* \"#utility.yul\":22132:22275   */\n      swap3\n      swap2\n      pop\n      pop\n      jump\t// out\n        /* \"#utility.yul\":22281:22629   */\n    tag_168:\n      0x00\n        /* \"#utility.yul\":22344:22364   */\n      tag_506\n        /* \"#utility.yul\":22362:22363   */\n      dup3\n        /* \"#utility.yul\":22344:22364   */\n      tag_423\n      jump\t// in\n    tag_506:\n        /* \"#utility.yul\":22339:22364   */\n      swap2\n      pop\n        /* \"#utility.yul\":22378:22398   */\n      tag_507\n        /* \"#utility.yul\":22396:22397   */\n      dup4\n        /* \"#utility.yul\":22378:22398   */\n      tag_423\n      jump\t// in\n    tag_507:\n        /* \"#utility.yul\":22373:22398   */\n      swap3\n      pop\n        /* \"#utility.yul\":22566:22567   */\n      dup2\n        /* \"#utility.yul\":22498:22564   */\n      0xffffffffffffffffffffffffffffffffffffffffffffffffffffffffffffffff\n        /* \"#utility.yul\":22494:22568   */\n      div\n        /* \"#utility.yul\":22491:22492   */\n      dup4\n        /* \"#utility.yul\":22488:22569   */\n      gt\n        /* \"#utility.yul\":22483:22484   */\n      dup3\n        /* \"#utility.yul\":22476:22485   */\n      iszero\n        /* \"#utility.yul\":22469:22486   */\n      iszero\n        /* \"#utility.yul\":22465:22570   */\n      and\n        /* \"#utility.yul\":22462:22464   */\n      iszero\n      tag_508\n      jumpi\n        /* \"#utility.yul\":22573:22591   */\n      tag_509\n      tag_510\n      jump\t// in\n    tag_509:\n        /* \"#utility.yul\":22462:22464   */\n    tag_508:\n        /* \"#utility.yul\":22621:22622   */\n      dup3\n        /* \"#utility.yul\":22618:22619   */\n      dup3\n        /* \"#utility.yul\":22614:22623   */\n      mul\n        /* \"#utility.yul\":22603:22623   */\n      swap1\n      pop\n        /* \"#utility.yul\":22329:22629   */\n      swap3\n      swap2\n      pop\n      pop\n      jump\t// out\n        /* \"#utility.yul\":22635:22826   */\n    tag_132:\n      0x00\n        /* \"#utility.yul\":22695:22715   */\n      tag_512\n        /* \"#utility.yul\":22713:22714   */\n      dup3\n        /* \"#utility.yul\":22695:22715   */\n      tag_423\n      jump\t// in\n    tag_512:\n        /* \"#utility.yul\":22690:22715   */\n      swap2\n      pop\n        /* \"#utility.yul\":22729:22749   */\n      tag_513\n        /* \"#utility.yul\":22747:22748   */\n      dup4\n        /* \"#utility.yul\":22729:22749   */\n      tag_423\n      jump\t// in\n    tag_513:\n        /* \"#utility.yul\":22724:22749   */\n      swap3\n      pop\n        /* \"#utility.yul\":22768:22769   */\n      dup3\n        /* \"#utility.yul\":22765:22766   */\n      dup3\n        /* \"#utility.yul\":22762:22770   */\n      lt\n        /* \"#utility.yul\":22759:22761   */\n      iszero\n      tag_514\n      jumpi\n        /* \"#utility.yul\":22773:22791   */\n      tag_515\n      tag_510\n      jump\t// in\n    tag_515:\n        /* \"#utility.yul\":22759:22761   */\n    tag_514:\n        /* \"#utility.yul\":22818:22819   */\n      dup3\n        /* \"#utility.yul\":22815:22816   */\n      dup3\n        /* \"#utility.yul\":22811:22820   */\n      sub\n        /* \"#utility.yul\":22803:22820   */\n      swap1\n      pop\n        /* \"#utility.yul\":22680:22826   */\n      swap3\n      swap2\n      pop\n      pop\n      jump\t// out\n        /* \"#utility.yul\":22832:22928   */\n    tag_314:\n      0x00\n        /* \"#utility.yul\":22898:22922   */\n      tag_517\n        /* \"#utility.yul\":22916:22921   */\n      dup3\n        /* \"#utility.yul\":22898:22922   */\n      tag_518\n      jump\t// in\n    tag_517:\n        /* \"#utility.yul\":22887:22922   */\n      swap1\n      pop\n        /* \"#utility.yul\":22877:22928   */\n      swap2\n      swap1\n      pop\n      jump\t// out\n        /* \"#utility.yul\":22934:23024   */\n    tag_351:\n      0x00\n        /* \"#utility.yul\":23011:23016   */\n      dup2\n        /* \"#utility.yul\":23004:23017   */\n      iszero\n        /* \"#utility.yul\":22997:23018   */\n      iszero\n        /* \"#utility.yul\":22986:23018   */\n      swap1\n      pop\n        /* \"#utility.yul\":22976:23024   */\n      swap2\n      swap1\n      pop\n      jump\t// out\n        /* \"#utility.yul\":23030:23156   */\n    tag_518:\n      0x00\n        /* \"#utility.yul\":23107:23149   */\n      0xffffffffffffffffffffffffffffffffffffffff\n        /* \"#utility.yul\":23100:23105   */\n      dup3\n        /* \"#utility.yul\":23096:23150   */\n      and\n        /* \"#utility.yul\":23085:23150   */\n      swap1\n      pop\n        /* \"#utility.yul\":23075:23156   */\n      swap2\n      swap1\n      pop\n      jump\t// out\n        /* \"#utility.yul\":23162:23239   */\n    tag_423:\n      0x00\n        /* \"#utility.yul\":23228:23233   */\n      dup2\n        /* \"#utility.yul\":23217:23233   */\n      swap1\n      pop\n        /* \"#utility.yul\":23207:23239   */\n      swap2\n      swap1\n      pop\n      jump\t// out\n        /* \"#utility.yul\":23245:23411   */\n    tag_355:\n      0x00\n        /* \"#utility.yul\":23348:23405   */\n      tag_523\n        /* \"#utility.yul\":23399:23404   */\n      dup3\n        /* \"#utility.yul\":23348:23405   */\n      tag_524\n      jump\t// in\n    tag_523:\n        /* \"#utility.yul\":23335:23405   */\n      swap1\n      pop\n        /* \"#utility.yul\":23325:23411   */\n      swap2\n      swap1\n      pop\n      jump\t// out\n        /* \"#utility.yul\":23417:23550   */\n    tag_524:\n      0x00\n        /* \"#utility.yul\":23520:23544   */\n      tag_526\n        /* \"#utility.yul\":23538:23543   */\n      dup3\n        /* \"#utility.yul\":23520:23544   */\n      tag_518\n      jump\t// in\n    tag_526:\n        /* \"#utility.yul\":23507:23544   */\n      swap1\n      pop\n        /* \"#utility.yul\":23497:23550   */\n      swap2\n      swap1\n      pop\n      jump\t// out\n        /* \"#utility.yul\":23556:23742   */\n    tag_359:\n      0x00\n        /* \"#utility.yul\":23669:23736   */\n      tag_528\n        /* \"#utility.yul\":23730:23735   */\n      dup3\n        /* \"#utility.yul\":23669:23736   */\n      tag_529\n      jump\t// in\n    tag_528:\n        /* \"#utility.yul\":23656:23736   */\n      swap1\n      pop\n        /* \"#utility.yul\":23646:23742   */\n      swap2\n      swap1\n      pop\n      jump\t// out\n        /* \"#utility.yul\":23748:23891   */\n    tag_529:\n      0x00\n        /* \"#utility.yul\":23861:23885   */\n      tag_531\n        /* \"#utility.yul\":23879:23884   */\n      dup3\n        /* \"#utility.yul\":23861:23885   */\n      tag_518\n      jump\t// in\n    tag_531:\n        /* \"#utility.yul\":23848:23885   */\n      swap1\n      pop\n        /* \"#utility.yul\":23838:23891   */\n      swap2\n      swap1\n      pop\n      jump\t// out\n        /* \"#utility.yul\":23897:24063   */\n    tag_363:\n      0x00\n        /* \"#utility.yul\":24000:24057   */\n      tag_533\n        /* \"#utility.yul\":24051:24056   */\n      dup3\n        /* \"#utility.yul\":24000:24057   */\n      tag_534\n      jump\t// in\n    tag_533:\n        /* \"#utility.yul\":23987:24057   */\n      swap1\n      pop\n        /* \"#utility.yul\":23977:24063   */\n      swap2\n      swap1\n      pop\n      jump\t// out\n        /* \"#utility.yul\":24069:24202   */\n    tag_534:\n      0x00\n        /* \"#utility.yul\":24172:24196   */\n      tag_536\n        /* \"#utility.yul\":24190:24195   */\n      dup3\n        /* \"#utility.yul\":24172:24196   */\n      tag_518\n      jump\t// in\n    tag_536:\n        /* \"#utility.yul\":24159:24196   */\n      swap1\n      pop\n        /* \"#utility.yul\":24149:24202   */\n      swap2\n      swap1\n      pop\n      jump\t// out\n        /* \"#utility.yul\":24208:24362   */\n    tag_255:\n        /* \"#utility.yul\":24292:24298   */\n      dup3\n        /* \"#utility.yul\":24287:24290   */\n      dup2\n        /* \"#utility.yul\":24282:24285   */\n      dup4\n        /* \"#utility.yul\":24269:24299   */\n      calldatacopy\n        /* \"#utility.yul\":24354:24355   */\n      0x00\n        /* \"#utility.yul\":24345:24351   */\n      dup4\n        /* \"#utility.yul\":24340:24343   */\n      dup4\n        /* \"#utility.yul\":24336:24352   */\n      add\n        /* \"#utility.yul\":24329:24356   */\n      mstore\n        /* \"#utility.yul\":24259:24362   */\n      pop\n      pop\n      pop\n      jump\t// out\n        /* \"#utility.yul\":24368:24675   */\n    tag_370:\n        /* \"#utility.yul\":24436:24437   */\n      0x00\n        /* \"#utility.yul\":24446:24559   */\n    tag_539:\n        /* \"#utility.yul\":24460:24466   */\n      dup4\n        /* \"#utility.yul\":24457:24458   */\n      dup2\n        /* \"#utility.yul\":24454:24467   */\n      lt\n        /* \"#utility.yul\":24446:24559   */\n      iszero\n      tag_541\n      jumpi\n        /* \"#utility.yul\":24545:24546   */\n      dup1\n        /* \"#utility.yul\":24540:24543   */\n      dup3\n        /* \"#utility.yul\":24536:24547   */\n      add\n        /* \"#utility.yul\":24530:24548   */\n      mload\n        /* \"#utility.yul\":24526:24527   */\n      dup2\n        /* \"#utility.yul\":24521:24524   */\n      dup5\n        /* \"#utility.yul\":24517:24528   */\n      add\n        /* \"#utility.yul\":24510:24549   */\n      mstore\n        /* \"#utility.yul\":24482:24484   */\n      0x20\n        /* \"#utility.yul\":24479:24480   */\n      dup2\n        /* \"#utility.yul\":24475:24485   */\n      add\n        /* \"#utility.yul\":24470:24485   */\n      swap1\n      pop\n        /* \"#utility.yul\":24446:24559   */\n      jump(tag_539)\n    tag_541:\n        /* \"#utility.yul\":24577:24583   */\n      dup4\n        /* \"#utility.yul\":24574:24575   */\n      dup2\n        /* \"#utility.yul\":24571:24584   */\n      gt\n        /* \"#utility.yul\":24568:24570   */\n      iszero\n      tag_542\n      jumpi\n        /* \"#utility.yul\":24657:24658   */\n      0x00\n        /* \"#utility.yul\":24648:24654   */\n      dup5\n        /* \"#utility.yul\":24643:24646   */\n      dup5\n        /* \"#utility.yul\":24639:24655   */\n      add\n        /* \"#utility.yul\":24632:24659   */\n      mstore\n        /* \"#utility.yul\":24568:24570   */\n    tag_542:\n        /* \"#utility.yul\":24417:24675   */\n      pop\n      pop\n      pop\n      pop\n      jump\t// out\n        /* \"#utility.yul\":24681:24852   */\n    tag_141:\n      0x00\n        /* \"#utility.yul\":24743:24767   */\n      tag_544\n        /* \"#utility.yul\":24761:24766   */\n      dup3\n        /* \"#utility.yul\":24743:24767   */\n      tag_423\n      jump\t// in\n    tag_544:\n        /* \"#utility.yul\":24734:24767   */\n      swap2\n      pop\n        /* \"#utility.yul\":24789:24793   */\n      0x00\n        /* \"#utility.yul\":24782:24787   */\n      dup3\n        /* \"#utility.yul\":24779:24794   */\n      eq\n        /* \"#utility.yul\":24776:24778   */\n      iszero\n      tag_545\n      jumpi\n        /* \"#utility.yul\":24797:24815   */\n      tag_546\n      tag_510\n      jump\t// in\n    tag_546:\n        /* \"#utility.yul\":24776:24778   */\n    tag_545:\n        /* \"#utility.yul\":24844:24845   */\n      0x01\n        /* \"#utility.yul\":24837:24842   */\n      dup3\n        /* \"#utility.yul\":24833:24846   */\n      sub\n        /* \"#utility.yul\":24826:24846   */\n      swap1\n      pop\n        /* \"#utility.yul\":24724:24852   */\n      swap2\n      swap1\n      pop\n      jump\t// out\n        /* \"#utility.yul\":24858:25139   */\n    tag_474:\n        /* \"#utility.yul\":24941:24968   */\n      tag_548\n        /* \"#utility.yul\":24963:24967   */\n      dup3\n        /* \"#utility.yul\":24941:24968   */\n      tag_372\n      jump\t// in\n    tag_548:\n        /* \"#utility.yul\":24933:24939   */\n      dup2\n        /* \"#utility.yul\":24929:24969   */\n      add\n        /* \"#utility.yul\":25071:25077   */\n      dup2\n        /* \"#utility.yul\":25059:25069   */\n      dup2\n        /* \"#utility.yul\":25056:25078   */\n      lt\n        /* \"#utility.yul\":25035:25053   */\n      0xffffffffffffffff\n        /* \"#utility.yul\":25023:25033   */\n      dup3\n        /* \"#utility.yul\":25020:25054   */\n      gt\n        /* \"#utility.yul\":25017:25079   */\n      or\n        /* \"#utility.yul\":25014:25016   */\n      iszero\n      tag_549\n      jumpi\n        /* \"#utility.yul\":25082:25100   */\n      tag_550\n      tag_479\n      jump\t// in\n    tag_550:\n        /* \"#utility.yul\":25014:25016   */\n    tag_549:\n        /* \"#utility.yul\":25122:25132   */\n      dup1\n        /* \"#utility.yul\":25118:25120   */\n      0x40\n        /* \"#utility.yul\":25111:25133   */\n      mstore\n        /* \"#utility.yul\":24901:25139   */\n      pop\n      pop\n      pop\n      jump\t// out\n        /* \"#utility.yul\":25145:25245   */\n    tag_319:\n      0x00\n        /* \"#utility.yul\":25213:25239   */\n      tag_552\n        /* \"#utility.yul\":25233:25238   */\n      dup3\n        /* \"#utility.yul\":25213:25239   */\n      tag_553\n      jump\t// in\n    tag_552:\n        /* \"#utility.yul\":25202:25239   */\n      swap1\n      pop\n        /* \"#utility.yul\":25192:25245   */\n      swap2\n      swap1\n      pop\n      jump\t// out\n        /* \"#utility.yul\":25251:25345   */\n    tag_553:\n      0x00\n        /* \"#utility.yul\":25319:25339   */\n      tag_555\n        /* \"#utility.yul\":25333:25338   */\n      dup3\n        /* \"#utility.yul\":25319:25339   */\n      tag_556\n      jump\t// in\n    tag_555:\n        /* \"#utility.yul\":25308:25339   */\n      swap1\n      pop\n        /* \"#utility.yul\":25298:25345   */\n      swap2\n      swap1\n      pop\n      jump\t// out\n        /* \"#utility.yul\":25351:25430   */\n    tag_431:\n      0x00\n        /* \"#utility.yul\":25419:25424   */\n      dup2\n        /* \"#utility.yul\":25408:25424   */\n      swap1\n      pop\n        /* \"#utility.yul\":25398:25430   */\n      swap2\n      swap1\n      pop\n      jump\t// out\n        /* \"#utility.yul\":25436:25616   */\n    tag_510:\n        /* \"#utility.yul\":25484:25561   */\n      0x4e487b7100000000000000000000000000000000000000000000000000000000\n        /* \"#utility.yul\":25481:25482   */\n      0x00\n        /* \"#utility.yul\":25474:25562   */\n      mstore\n        /* \"#utility.yul\":25581:25585   */\n      0x11\n        /* \"#utility.yul\":25578:25579   */\n      0x04\n        /* \"#utility.yul\":25571:25586   */\n      mstore\n        /* \"#utility.yul\":25605:25609   */\n      0x24\n        /* \"#utility.yul\":25602:25603   */\n      0x00\n        /* \"#utility.yul\":25595:25610   */\n      revert\n        /* \"#utility.yul\":25622:25802   */\n    tag_504:\n        /* \"#utility.yul\":25670:25747   */\n      0x4e487b7100000000000000000000000000000000000000000000000000000000\n        /* \"#utility.yul\":25667:25668   */\n      0x00\n        /* \"#utility.yul\":25660:25748   */\n      mstore\n        /* \"#utility.yul\":25767:25771   */\n      0x12\n        /* \"#utility.yul\":25764:25765   */\n      0x04\n        /* \"#utility.yul\":25757:25772   */\n      mstore\n        /* \"#utility.yul\":25791:25795   */\n      0x24\n        /* \"#utility.yul\":25788:25789   */\n      0x00\n        /* \"#utility.yul\":25781:25796   */\n      revert\n        /* \"#utility.yul\":25808:25988   */\n    tag_479:\n        /* \"#utility.yul\":25856:25933   */\n      0x4e487b7100000000000000000000000000000000000000000000000000000000\n        /* \"#utility.yul\":25853:25854   */\n      0x00\n        /* \"#utility.yul\":25846:25934   */\n      mstore\n        /* \"#utility.yul\":25953:25957   */\n      0x41\n        /* \"#utility.yul\":25950:25951   */\n      0x04\n        /* \"#utility.yul\":25943:25958   */\n      mstore\n        /* \"#utility.yul\":25977:25981   */\n      0x24\n        /* \"#utility.yul\":25974:25975   */\n      0x00\n        /* \"#utility.yul\":25967:25982   */\n      revert\n        /* \"#utility.yul\":25994:26096   */\n    tag_372:\n      0x00\n        /* \"#utility.yul\":26086:26088   */\n      0x1f\n        /* \"#utility.yul\":26082:26089   */\n      not\n        /* \"#utility.yul\":26077:26079   */\n      0x1f\n        /* \"#utility.yul\":26070:26075   */\n      dup4\n        /* \"#utility.yul\":26066:26080   */\n      add\n        /* \"#utility.yul\":26062:26090   */\n      and\n        /* \"#utility.yul\":26052:26090   */\n      swap1\n      pop\n        /* \"#utility.yul\":26042:26096   */\n      swap2\n      swap1\n      pop\n      jump\t// out\n        /* \"#utility.yul\":26102:26196   */\n    tag_556:\n      0x00\n        /* \"#utility.yul\":26183:26188   */\n      dup2\n        /* \"#utility.yul\":26179:26181   */\n      0x60\n        /* \"#utility.yul\":26175:26189   */\n      shl\n        /* \"#utility.yul\":26154:26189   */\n      swap1\n      pop\n        /* \"#utility.yul\":26144:26196   */\n      swap2\n      swap1\n      pop\n      jump\t// out\n        /* \"#utility.yul\":26202:26360   */\n    tag_385:\n        /* \"#utility.yul\":26342:26352   */\n      0x4164647265737320000000000000000000000000000000000000000000000000\n        /* \"#utility.yul\":26338:26339   */\n      0x00\n        /* \"#utility.yul\":26330:26336   */\n      dup3\n        /* \"#utility.yul\":26326:26340   */\n      add\n        /* \"#utility.yul\":26319:26353   */\n      mstore\n        /* \"#utility.yul\":26308:26360   */\n      pop\n      jump\t// out\n        /* \"#utility.yul\":26366:26607   */\n    tag_390:\n        /* \"#utility.yul\":26506:26540   */\n      0x43616e6e6f74206d696e7420746f207472656173757279206164647265737320\n        /* \"#utility.yul\":26502:26503   */\n      0x00\n        /* \"#utility.yul\":26494:26500   */\n      dup3\n        /* \"#utility.yul\":26490:26504   */\n      add\n        /* \"#utility.yul\":26483:26541   */\n      mstore\n        /* \"#utility.yul\":26575:26599   */\n      0x756e74696c2073616c652069732066696e697368656400000000000000000000\n        /* \"#utility.yul\":26570:26572   */\n      0x20\n        /* \"#utility.yul\":26562:26568   */\n      dup3\n        /* \"#utility.yul\":26558:26573   */\n      add\n        /* \"#utility.yul\":26551:26600   */\n      mstore\n        /* \"#utility.yul\":26472:26607   */\n      pop\n      jump\t// out\n        /* \"#utility.yul\":26613:26790   */\n    tag_395:\n        /* \"#utility.yul\":26753:26782   */\n      0x74696d657374616d70206973206e6f742075702d746f2d646174650000000000\n        /* \"#utility.yul\":26749:26750   */\n      0x00\n        /* \"#utility.yul\":26741:26747   */\n      dup3\n        /* \"#utility.yul\":26737:26751   */\n      add\n        /* \"#utility.yul\":26730:26783   */\n      mstore\n        /* \"#utility.yul\":26719:26790   */\n      pop\n      jump\t// out\n        /* \"#utility.yul\":26796:27021   */\n    tag_400:\n        /* \"#utility.yul\":26936:26970   */\n      0x4f776e61626c653a206e6577206f776e657220697320746865207a65726f2061\n        /* \"#utility.yul\":26932:26933   */\n      0x00\n        /* \"#utility.yul\":26924:26930   */\n      dup3\n        /* \"#utility.yul\":26920:26934   */\n      add\n        /* \"#utility.yul\":26913:26971   */\n      mstore\n        /* \"#utility.yul\":27005:27013   */\n      0x6464726573730000000000000000000000000000000000000000000000000000\n        /* \"#utility.yul\":27000:27002   */\n      0x20\n        /* \"#utility.yul\":26992:26998   */\n      dup3\n        /* \"#utility.yul\":26988:27003   */\n      add\n        /* \"#utility.yul\":26981:27014   */\n      mstore\n        /* \"#utility.yul\":26902:27021   */\n      pop\n      jump\t// out\n        /* \"#utility.yul\":27027:27178   */\n    tag_405:\n        /* \"#utility.yul\":27167:27170   */\n      0x2500000000000000000000000000000000000000000000000000000000000000\n        /* \"#utility.yul\":27163:27164   */\n      0x00\n        /* \"#utility.yul\":27155:27161   */\n      dup3\n        /* \"#utility.yul\":27151:27165   */\n      add\n        /* \"#utility.yul\":27144:27171   */\n      mstore\n        /* \"#utility.yul\":27133:27178   */\n      pop\n      jump\t// out\n        /* \"#utility.yul\":27184:27419   */\n    tag_410:\n        /* \"#utility.yul\":27324:27358   */\n      0x20646f6573206e6f742068617665206120636f75706f6e207769746820612064\n        /* \"#utility.yul\":27320:27321   */\n      0x00\n        /* \"#utility.yul\":27312:27318   */\n      dup3\n        /* \"#utility.yul\":27308:27322   */\n      add\n        /* \"#utility.yul\":27301:27359   */\n      mstore\n        /* \"#utility.yul\":27393:27411   */\n      0x6973636f756e742072617465206f662000000000000000000000000000000000\n        /* \"#utility.yul\":27388:27390   */\n      0x20\n        /* \"#utility.yul\":27380:27386   */\n      dup3\n        /* \"#utility.yul\":27376:27391   */\n      add\n        /* \"#utility.yul\":27369:27412   */\n      mstore\n        /* \"#utility.yul\":27290:27419   */\n      pop\n      jump\t// out\n        /* \"#utility.yul\":27425:27606   */\n    tag_415:\n        /* \"#utility.yul\":27565:27598   */\n      0x737461727454696d65206973206c61746572207468616e20656e6454696d6500\n        /* \"#utility.yul\":27561:27562   */\n      0x00\n        /* \"#utility.yul\":27553:27559   */\n      dup3\n        /* \"#utility.yul\":27549:27563   */\n      add\n        /* \"#utility.yul\":27542:27599   */\n      mstore\n        /* \"#utility.yul\":27531:27606   */\n      pop\n      jump\t// out\n        /* \"#utility.yul\":27612:27794   */\n    tag_420:\n        /* \"#utility.yul\":27752:27786   */\n      0x4f776e61626c653a2063616c6c6572206973206e6f7420746865206f776e6572\n        /* \"#utility.yul\":27748:27749   */\n      0x00\n        /* \"#utility.yul\":27740:27746   */\n      dup3\n        /* \"#utility.yul\":27736:27750   */\n      add\n        /* \"#utility.yul\":27729:27787   */\n      mstore\n        /* \"#utility.yul\":27718:27794   */\n      pop\n      jump\t// out\n        /* \"#utility.yul\":27800:27922   */\n    tag_259:\n        /* \"#utility.yul\":27873:27897   */\n      tag_572\n        /* \"#utility.yul\":27891:27896   */\n      dup2\n        /* \"#utility.yul\":27873:27897   */\n      tag_314\n      jump\t// in\n    tag_572:\n        /* \"#utility.yul\":27866:27871   */\n      dup2\n        /* \"#utility.yul\":27863:27898   */\n      eq\n        /* \"#utility.yul\":27853:27855   */\n      tag_573\n      jumpi\n        /* \"#utility.yul\":27912:27913   */\n      0x00\n        /* \"#utility.yul\":27909:27910   */\n      dup1\n        /* \"#utility.yul\":27902:27914   */\n      revert\n        /* \"#utility.yul\":27853:27855   */\n    tag_573:\n        /* \"#utility.yul\":27843:27922   */\n      pop\n      jump\t// out\n        /* \"#utility.yul\":27928:28044   */\n    tag_271:\n        /* \"#utility.yul\":27998:28019   */\n      tag_575\n        /* \"#utility.yul\":28013:28018   */\n      dup2\n        /* \"#utility.yul\":27998:28019   */\n      tag_351\n      jump\t// in\n    tag_575:\n        /* \"#utility.yul\":27991:27996   */\n      dup2\n        /* \"#utility.yul\":27988:28020   */\n      eq\n        /* \"#utility.yul\":27978:27980   */\n      tag_576\n      jumpi\n        /* \"#utility.yul\":28034:28035   */\n      0x00\n        /* \"#utility.yul\":28031:28032   */\n      dup1\n        /* \"#utility.yul\":28024:28036   */\n      revert\n        /* \"#utility.yul\":27978:27980   */\n    tag_576:\n        /* \"#utility.yul\":27968:28044   */\n      pop\n      jump\t// out\n        /* \"#utility.yul\":28050:28172   */\n    tag_277:\n        /* \"#utility.yul\":28123:28147   */\n      tag_578\n        /* \"#utility.yul\":28141:28146   */\n      dup2\n        /* \"#utility.yul\":28123:28147   */\n      tag_423\n      jump\t// in\n    tag_578:\n        /* \"#utility.yul\":28116:28121   */\n      dup2\n        /* \"#utility.yul\":28113:28148   */\n      eq\n        /* \"#utility.yul\":28103:28105   */\n      tag_579\n      jumpi\n        /* \"#utility.yul\":28162:28163   */\n      0x00\n        /* \"#utility.yul\":28159:28160   */\n      dup1\n        /* \"#utility.yul\":28152:28164   */\n      revert\n        /* \"#utility.yul\":28103:28105   */\n    tag_579:\n        /* \"#utility.yul\":28093:28172   */\n      pop\n      jump\t// out\n\n    auxdata: 0xa2646970667358221220d402e343b7c71f054af422ba467a1619526585c92881746d70f73387e499082964736f6c63430008010033\n}\n",
				"bytecode": {
					"linkReferences": {},
					"object": "60806040526370dc49006005556370dc4964600655620f4240600755600754600a6200002c91906200018c565b60085560016009556040518060600160405280612710815260200142815260200160001515815250600a600082015181600001556020820151816001015560408201518160020160006101000a81548160ff02191690831515021790555050503480156200009957600080fd5b50620000ba620000ae620000c060201b60201c565b620000c860201b60201c565b62000226565b600033905090565b60008060009054906101000a900473ffffffffffffffffffffffffffffffffffffffff169050816000806101000a81548173ffffffffffffffffffffffffffffffffffffffff021916908373ffffffffffffffffffffffffffffffffffffffff1602179055508173ffffffffffffffffffffffffffffffffffffffff168173ffffffffffffffffffffffffffffffffffffffff167f8be0079c531659141344cd1fd0a4f28419497f9722a3daafe3b4186f6b6457e060405160405180910390a35050565b60006200019982620001ed565b9150620001a683620001ed565b9250817fffffffffffffffffffffffffffffffffffffffffffffffffffffffffffffffff0483118215151615620001e257620001e1620001f7565b5b828202905092915050565b6000819050919050565b7f4e487b7100000000000000000000000000000000000000000000000000000000600052601160045260246000fd5b611e4980620002366000396000f3fe608060405234801561001057600080fd5b50600436106101165760003560e01c8063944044a1116100a2578063c046371111610071578063c04637111461026f578063c5dae48f1461028f578063c5f956af146102ad578063f121da92146102cb578063f2fde38b146102e757610116565b8063944044a1146101fd578063ab6c030614610219578063b79d283f14610249578063bff29cee1461026557610116565b806368fc01a2116100e957806368fc01a21461018f578063715018a6146101ad5780638c83faeb146101b75780638da5cb5b146101d557806391232f18146101f357610116565b80634c0f38c21461011b5780634c9b73da1461013957806351f7598c146101555780635ce7e72114610171575b600080fd5b610123610303565b6040516101309190611781565b60405180910390f35b610153600480360381019061014e9190611234565b6103aa565b005b61016f600480360381019061016a919061113a565b6103cd565b005b61017961048d565b6040516101869190611689565b60405180910390f35b6101976104b3565b6040516101a49190611781565b60405180910390f35b6101b561055a565b005b6101bf6105e2565b6040516101cc919061166e565b60405180910390f35b6101dd610608565b6040516101ea91906115f3565b60405180910390f35b6101fb610631565b005b61021760048036038101906102129190611234565b61074d565b005b610233600480360381019061022e9190611163565b6107d3565b6040516102409190611781565b60405180910390f35b610263600480360381019061025e9190611234565b610964565b005b61026d6109ea565b005b610277610a08565b6040516102869392919061179c565b60405180910390f35b610297610a2d565b6040516102a491906116a4565b60405180910390f35b6102b5610a53565b6040516102c291906115f3565b60405180910390f35b6102e560048036038101906102e0919061119f565b610a79565b005b61030160048036038101906102fc919061113a565b610b88565b005b6000600160009054906101000a900473ffffffffffffffffffffffffffffffffffffffff1673ffffffffffffffffffffffffffffffffffffffff16634c0f38c26040518163ffffffff1660e01b815260040160206040518083038186803b15801561036d57600080fd5b505afa158015610381573d6000803e3d6000fd5b505050506040513d601f19601f820116820180604052508101906103a5919061125d565b905090565b6103b2610c80565b60006103be33836107d3565b90506103c981610d6a565b5050565b6103d5610e05565b73ffffffffffffffffffffffffffffffffffffffff166103f3610608565b73ffffffffffffffffffffffffffffffffffffffff1614610449576040517f08c379a000000000000000000000000000000000000000000000000000000000815260040161044090611761565b60405180910390fd5b80600160006101000a81548173ffffffffffffffffffffffffffffffffffffffff021916908373ffffffffffffffffffffffffffffffffffffffff16021790555050565b600260009054906101000a900473ffffffffffffffffffffffffffffffffffffffff1681565b6000600160009054906101000a900473ffffffffffffffffffffffffffffffffffffffff1673ffffffffffffffffffffffffffffffffffffffff166368fc01a26040518163ffffffff1660e01b815260040160206040518083038186803b15801561051d57600080fd5b505afa158015610531573d6000803e3d6000fd5b505050506040513d601f19601f82011682018060405250810190610555919061125d565b905090565b610562610e05565b73ffffffffffffffffffffffffffffffffffffffff16610580610608565b73ffffffffffffffffffffffffffffffffffffffff16146105d6576040517f08c379a00000000000000000000000000000000000000000000000000000000081526004016105cd90611761565b60405180910390fd5b6105e06000610e0d565b565b600160009054906101000a900473ffffffffffffffffffffffffffffffffffffffff1681565b60008060009054906101000a900473ffffffffffffffffffffffffffffffffffffffff16905090565b42600a6001015414610678576040517f08c379a000000000000000000000000000000000000000000000000000000000815260040161066f90611701565b60405180910390fd5b600654421180156106995750600a60020160009054906101000a900460ff16155b6106d8576040517f08c379a00000000000000000000000000000000000000000000000000000000081526004016106cf906116e1565b60405180910390fd5b600060016106e46104b3565b6106ee91906119b6565b6106f6610303565b61070091906119b6565b90505b600081111561074a57610737600460009054906101000a900473ffffffffffffffffffffffffffffffffffffffff16610ed1565b808061074290611ae0565b915050610703565b50565b610755610e05565b73ffffffffffffffffffffffffffffffffffffffff16610773610608565b73ffffffffffffffffffffffffffffffffffffffff16146107c9576040517f08c379a00000000000000000000000000000000000000000000000000000000081526004016107c090611761565b60405180910390fd5b8060058190555050565b600042600a600101541461081c576040517f08c379a000000000000000000000000000000000000000000000000000000000815260040161081390611701565b60405180910390fd5b600260009054906101000a900473ffffffffffffffffffffffffffffffffffffffff1673ffffffffffffffffffffffffffffffffffffffff16632080179d84846040518363ffffffff1660e01b815260040161087992919061160e565b60206040518083038186803b15801561089157600080fd5b505afa1580156108a5573d6000803e3d6000fd5b505050506040513d601f19601f820116820180604052508101906108c9919061120b565b83836040516020016108dc9291906115a6565b6040516020818303038152906040529061092c576040517f08c379a000000000000000000000000000000000000000000000000000000000815260040161092391906116bf565b60405180910390fd5b50600082606461093c91906119b6565b6064600a6000015461094e919061192b565b610958919061195c565b90508091505092915050565b61096c610e05565b73ffffffffffffffffffffffffffffffffffffffff1661098a610608565b73ffffffffffffffffffffffffffffffffffffffff16146109e0576040517f08c379a00000000000000000000000000000000000000000000000000000000081526004016109d790611761565b60405180910390fd5b8060068190555050565b6109f2610c80565b6000600a600001549050610a0581610d6a565b50565b600a8060000154908060010154908060020160009054906101000a900460ff16905083565b600360009054906101000a900473ffffffffffffffffffffffffffffffffffffffff1681565b600460009054906101000a900473ffffffffffffffffffffffffffffffffffffffff1681565b610a81610e05565b73ffffffffffffffffffffffffffffffffffffffff16610a9f610608565b73ffffffffffffffffffffffffffffffffffffffff1614610af5576040517f08c379a0000000000000000000000000000000000000000000000000000000008152600401610aec90611761565b60405180910390fd5b600160009054906101000a900473ffffffffffffffffffffffffffffffffffffffff1673ffffffffffffffffffffffffffffffffffffffff1663f121da9283836040518363ffffffff1660e01b8152600401610b52929190611637565b600060405180830381600087803b158015610b6c57600080fd5b505af1158015610b80573d6000803e3d6000fd5b505050505050565b610b90610e05565b73ffffffffffffffffffffffffffffffffffffffff16610bae610608565b73ffffffffffffffffffffffffffffffffffffffff1614610c04576040517f08c379a0000000000000000000000000000000000000000000000000000000008152600401610bfb90611761565b60405180910390fd5b600073ffffffffffffffffffffffffffffffffffffffff168173ffffffffffffffffffffffffffffffffffffffff161415610c74576040517f08c379a0000000000000000000000000000000000000000000000000000000008152600401610c6b90611721565b60405180910390fd5b610c7d81610e0d565b50565b6006546005541115610cc7576040517f08c379a0000000000000000000000000000000000000000000000000000000008152600401610cbe90611741565b60405180910390fd5b6001603c60055442610cd991906119b6565b610ce3919061192b565b610ced919061195c565b600854610cfa91906119b6565b600a6000018190555042600a600101819055506005544210158015610d2157506006544211155b15610d49576001600a60020160006101000a81548160ff021916908315150217905550610d68565b6000600a60020160006101000a81548160ff0219169083151502179055505b565b600360009054906101000a900473ffffffffffffffffffffffffffffffffffffffff1673ffffffffffffffffffffffffffffffffffffffff1663532b291333836040518363ffffffff1660e01b8152600401610dc792919061160e565b600060405180830381600087803b158015610de157600080fd5b505af1158015610df5573d6000803e3d6000fd5b50505050610e0233610ed1565b50565b600033905090565b60008060009054906101000a900473ffffffffffffffffffffffffffffffffffffffff169050816000806101000a81548173ffffffffffffffffffffffffffffffffffffffff021916908373ffffffffffffffffffffffffffffffffffffffff1602179055508173ffffffffffffffffffffffffffffffffffffffff168173ffffffffffffffffffffffffffffffffffffffff167f8be0079c531659141344cd1fd0a4f28419497f9722a3daafe3b4186f6b6457e060405160405180910390a35050565b600160009054906101000a900473ffffffffffffffffffffffffffffffffffffffff1673ffffffffffffffffffffffffffffffffffffffff166355676590826040518263ffffffff1660e01b8152600401610f2c91906115f3565b600060405180830381600087803b158015610f4657600080fd5b505af1158015610f5a573d6000803e3d6000fd5b5050505050565b6000610f74610f6f846117f8565b6117d3565b9050808382526020820190508260005b85811015610fb45781358501610f9a88826110e6565b845260208401935060208301925050600181019050610f84565b5050509392505050565b6000610fd1610fcc84611824565b6117d3565b90508083825260208201905082856020860282011115610ff057600080fd5b60005b8581101561102057816110068882611110565b845260208401935060208301925050600181019050610ff3565b5050509392505050565b600061103d61103884611850565b6117d3565b90508281526020810184848401111561105557600080fd5b611060848285611a9e565b509392505050565b60008135905061107781611dce565b92915050565b600082601f83011261108e57600080fd5b813561109e848260208601610f61565b91505092915050565b600082601f8301126110b857600080fd5b81356110c8848260208601610fbe565b91505092915050565b6000815190506110e081611de5565b92915050565b600082601f8301126110f757600080fd5b813561110784826020860161102a565b91505092915050565b60008135905061111f81611dfc565b92915050565b60008151905061113481611dfc565b92915050565b60006020828403121561114c57600080fd5b600061115a84828501611068565b91505092915050565b6000806040838503121561117657600080fd5b600061118485828601611068565b925050602061119585828601611110565b9150509250929050565b600080604083850312156111b257600080fd5b600083013567ffffffffffffffff8111156111cc57600080fd5b6111d8858286016110a7565b925050602083013567ffffffffffffffff8111156111f557600080fd5b6112018582860161107d565b9150509250929050565b60006020828403121561121d57600080fd5b600061122b848285016110d1565b91505092915050565b60006020828403121561124657600080fd5b600061125484828501611110565b91505092915050565b60006020828403121561126f57600080fd5b600061127d84828501611125565b91505092915050565b600061129283836113e7565b905092915050565b60006112a68383611571565b60208301905092915050565b6112bb816119ea565b82525050565b6112d26112cd826119ea565b611b3b565b82525050565b60006112e3826118a1565b6112ed81856118dc565b9350836020820285016112ff85611881565b8060005b8581101561133b578484038952815161131c8582611286565b9450611327836118c2565b925060208a01995050600181019050611303565b50829750879550505050505092915050565b6000611358826118ac565b61136281856118ed565b935061136d83611891565b8060005b8381101561139e578151611385888261129a565b9750611390836118cf565b925050600181019050611371565b5085935050505092915050565b6113b4816119fc565b82525050565b6113c381611a32565b82525050565b6113d281611a56565b82525050565b6113e181611a7a565b82525050565b60006113f2826118b7565b6113fc81856118fe565b935061140c818560208601611aad565b61141581611bf6565b840191505092915050565b600061142b826118b7565b611435818561190f565b9350611445818560208601611aad565b61144e81611bf6565b840191505092915050565b6000611466600883611920565b915061147182611c14565b600882019050919050565b600061148960368361190f565b915061149482611c3d565b604082019050919050565b60006114ac601b8361190f565b91506114b782611c8c565b602082019050919050565b60006114cf60268361190f565b91506114da82611cb5565b604082019050919050565b60006114f2600183611920565b91506114fd82611d04565b600182019050919050565b6000611515603083611920565b915061152082611d2d565b603082019050919050565b6000611538601f8361190f565b915061154382611d7c565b602082019050919050565b600061155b60208361190f565b915061156682611da5565b602082019050919050565b61157a81611a28565b82525050565b61158981611a28565b82525050565b6115a061159b82611a28565b611b5f565b82525050565b60006115b182611459565b91506115bd82856112c1565b6014820191506115cc82611508565b91506115d8828461158f565b6020820191506115e7826114e5565b91508190509392505050565b600060208201905061160860008301846112b2565b92915050565b600060408201905061162360008301856112b2565b6116306020830184611580565b9392505050565b60006040820190508181036000830152611651818561134d565b9050818103602083015261166581846112d8565b90509392505050565b600060208201905061168360008301846113ba565b92915050565b600060208201905061169e60008301846113c9565b92915050565b60006020820190506116b960008301846113d8565b92915050565b600060208201905081810360008301526116d98184611420565b905092915050565b600060208201905081810360008301526116fa8161147c565b9050919050565b6000602082019050818103600083015261171a8161149f565b9050919050565b6000602082019050818103600083015261173a816114c2565b9050919050565b6000602082019050818103600083015261175a8161152b565b9050919050565b6000602082019050818103600083015261177a8161154e565b9050919050565b60006020820190506117966000830184611580565b92915050565b60006060820190506117b16000830186611580565b6117be6020830185611580565b6117cb60408301846113ab565b949350505050565b60006117dd6117ee565b90506117e98282611b0a565b919050565b6000604051905090565b600067ffffffffffffffff82111561181357611812611bc7565b5b602082029050602081019050919050565b600067ffffffffffffffff82111561183f5761183e611bc7565b5b602082029050602081019050919050565b600067ffffffffffffffff82111561186b5761186a611bc7565b5b61187482611bf6565b9050602081019050919050565b6000819050602082019050919050565b6000819050602082019050919050565b600081519050919050565b600081519050919050565b600081519050919050565b6000602082019050919050565b6000602082019050919050565b600082825260208201905092915050565b600082825260208201905092915050565b600082825260208201905092915050565b600082825260208201905092915050565b600081905092915050565b600061193682611a28565b915061194183611a28565b92508261195157611950611b98565b5b828204905092915050565b600061196782611a28565b915061197283611a28565b9250817fffffffffffffffffffffffffffffffffffffffffffffffffffffffffffffffff04831182151516156119ab576119aa611b69565b5b828202905092915050565b60006119c182611a28565b91506119cc83611a28565b9250828210156119df576119de611b69565b5b828203905092915050565b60006119f582611a08565b9050919050565b60008115159050919050565b600073ffffffffffffffffffffffffffffffffffffffff82169050919050565b6000819050919050565b6000611a3d82611a44565b9050919050565b6000611a4f82611a08565b9050919050565b6000611a6182611a68565b9050919050565b6000611a7382611a08565b9050919050565b6000611a8582611a8c565b9050919050565b6000611a9782611a08565b9050919050565b82818337600083830152505050565b60005b83811015611acb578082015181840152602081019050611ab0565b83811115611ada576000848401525b50505050565b6000611aeb82611a28565b91506000821415611aff57611afe611b69565b5b600182039050919050565b611b1382611bf6565b810181811067ffffffffffffffff82111715611b3257611b31611bc7565b5b80604052505050565b6000611b4682611b4d565b9050919050565b6000611b5882611c07565b9050919050565b6000819050919050565b7f4e487b7100000000000000000000000000000000000000000000000000000000600052601160045260246000fd5b7f4e487b7100000000000000000000000000000000000000000000000000000000600052601260045260246000fd5b7f4e487b7100000000000000000000000000000000000000000000000000000000600052604160045260246000fd5b6000601f19601f8301169050919050565b60008160601b9050919050565b7f4164647265737320000000000000000000000000000000000000000000000000600082015250565b7f43616e6e6f74206d696e7420746f20747265617375727920616464726573732060008201527f756e74696c2073616c652069732066696e697368656400000000000000000000602082015250565b7f74696d657374616d70206973206e6f742075702d746f2d646174650000000000600082015250565b7f4f776e61626c653a206e6577206f776e657220697320746865207a65726f206160008201527f6464726573730000000000000000000000000000000000000000000000000000602082015250565b7f2500000000000000000000000000000000000000000000000000000000000000600082015250565b7f20646f6573206e6f742068617665206120636f75706f6e20776974682061206460008201527f6973636f756e742072617465206f662000000000000000000000000000000000602082015250565b7f737461727454696d65206973206c61746572207468616e20656e6454696d6500600082015250565b7f4f776e61626c653a2063616c6c6572206973206e6f7420746865206f776e6572600082015250565b611dd7816119ea565b8114611de257600080fd5b50565b611dee816119fc565b8114611df957600080fd5b50565b611e0581611a28565b8114611e1057600080fd5b5056fea2646970667358221220d402e343b7c71f054af422ba467a1619526585c92881746d70f73387e499082964736f6c63430008010033",
					"opcodes": "PUSH1 0x80 PUSH1 0x40 MSTORE PUSH4 0x70DC4900 PUSH1 0x5 SSTORE PUSH4 0x70DC4964 PUSH1 0x6 SSTORE PUSH3 0xF4240 PUSH1 0x7 SSTORE PUSH1 0x7 SLOAD PUSH1 0xA PUSH3 0x2C SWAP2 SWAP1 PUSH3 0x18C JUMP JUMPDEST PUSH1 0x8 SSTORE PUSH1 0x1 PUSH1 0x9 SSTORE PUSH1 0x40 MLOAD DUP1 PUSH1 0x60 ADD PUSH1 0x40 MSTORE DUP1 PUSH2 0x2710 DUP2 MSTORE PUSH1 0x20 ADD TIMESTAMP DUP2 MSTORE PUSH1 0x20 ADD PUSH1 0x0 ISZERO ISZERO DUP2 MSTORE POP PUSH1 0xA PUSH1 0x0 DUP3 ADD MLOAD DUP2 PUSH1 0x0 ADD SSTORE PUSH1 0x20 DUP3 ADD MLOAD DUP2 PUSH1 0x1 ADD SSTORE PUSH1 0x40 DUP3 ADD MLOAD DUP2 PUSH1 0x2 ADD PUSH1 0x0 PUSH2 0x100 EXP DUP2 SLOAD DUP2 PUSH1 0xFF MUL NOT AND SWAP1 DUP4 ISZERO ISZERO MUL OR SWAP1 SSTORE POP POP POP CALLVALUE DUP1 ISZERO PUSH3 0x99 JUMPI PUSH1 0x0 DUP1 REVERT JUMPDEST POP PUSH3 0xBA PUSH3 0xAE PUSH3 0xC0 PUSH1 0x20 SHL PUSH1 0x20 SHR JUMP JUMPDEST PUSH3 0xC8 PUSH1 0x20 SHL PUSH1 0x20 SHR JUMP JUMPDEST PUSH3 0x226 JUMP JUMPDEST PUSH1 0x0 CALLER SWAP1 POP SWAP1 JUMP JUMPDEST PUSH1 0x0 DUP1 PUSH1 0x0 SWAP1 SLOAD SWAP1 PUSH2 0x100 EXP SWAP1 DIV PUSH20 0xFFFFFFFFFFFFFFFFFFFFFFFFFFFFFFFFFFFFFFFF AND SWAP1 POP DUP2 PUSH1 0x0 DUP1 PUSH2 0x100 EXP DUP2 SLOAD DUP2 PUSH20 0xFFFFFFFFFFFFFFFFFFFFFFFFFFFFFFFFFFFFFFFF MUL NOT AND SWAP1 DUP4 PUSH20 0xFFFFFFFFFFFFFFFFFFFFFFFFFFFFFFFFFFFFFFFF AND MUL OR SWAP1 SSTORE POP DUP2 PUSH20 0xFFFFFFFFFFFFFFFFFFFFFFFFFFFFFFFFFFFFFFFF AND DUP2 PUSH20 0xFFFFFFFFFFFFFFFFFFFFFFFFFFFFFFFFFFFFFFFF AND PUSH32 0x8BE0079C531659141344CD1FD0A4F28419497F9722A3DAAFE3B4186F6B6457E0 PUSH1 0x40 MLOAD PUSH1 0x40 MLOAD DUP1 SWAP2 SUB SWAP1 LOG3 POP POP JUMP JUMPDEST PUSH1 0x0 PUSH3 0x199 DUP3 PUSH3 0x1ED JUMP JUMPDEST SWAP2 POP PUSH3 0x1A6 DUP4 PUSH3 0x1ED JUMP JUMPDEST SWAP3 POP DUP2 PUSH32 0xFFFFFFFFFFFFFFFFFFFFFFFFFFFFFFFFFFFFFFFFFFFFFFFFFFFFFFFFFFFFFFFF DIV DUP4 GT DUP3 ISZERO ISZERO AND ISZERO PUSH3 0x1E2 JUMPI PUSH3 0x1E1 PUSH3 0x1F7 JUMP JUMPDEST JUMPDEST DUP3 DUP3 MUL SWAP1 POP SWAP3 SWAP2 POP POP JUMP JUMPDEST PUSH1 0x0 DUP2 SWAP1 POP SWAP2 SWAP1 POP JUMP JUMPDEST PUSH32 0x4E487B7100000000000000000000000000000000000000000000000000000000 PUSH1 0x0 MSTORE PUSH1 0x11 PUSH1 0x4 MSTORE PUSH1 0x24 PUSH1 0x0 REVERT JUMPDEST PUSH2 0x1E49 DUP1 PUSH3 0x236 PUSH1 0x0 CODECOPY PUSH1 0x0 RETURN INVALID PUSH1 0x80 PUSH1 0x40 MSTORE CALLVALUE DUP1 ISZERO PUSH2 0x10 JUMPI PUSH1 0x0 DUP1 REVERT JUMPDEST POP PUSH1 0x4 CALLDATASIZE LT PUSH2 0x116 JUMPI PUSH1 0x0 CALLDATALOAD PUSH1 0xE0 SHR DUP1 PUSH4 0x944044A1 GT PUSH2 0xA2 JUMPI DUP1 PUSH4 0xC0463711 GT PUSH2 0x71 JUMPI DUP1 PUSH4 0xC0463711 EQ PUSH2 0x26F JUMPI DUP1 PUSH4 0xC5DAE48F EQ PUSH2 0x28F JUMPI DUP1 PUSH4 0xC5F956AF EQ PUSH2 0x2AD JUMPI DUP1 PUSH4 0xF121DA92 EQ PUSH2 0x2CB JUMPI DUP1 PUSH4 0xF2FDE38B EQ PUSH2 0x2E7 JUMPI PUSH2 0x116 JUMP JUMPDEST DUP1 PUSH4 0x944044A1 EQ PUSH2 0x1FD JUMPI DUP1 PUSH4 0xAB6C0306 EQ PUSH2 0x219 JUMPI DUP1 PUSH4 0xB79D283F EQ PUSH2 0x249 JUMPI DUP1 PUSH4 0xBFF29CEE EQ PUSH2 0x265 JUMPI PUSH2 0x116 JUMP JUMPDEST DUP1 PUSH4 0x68FC01A2 GT PUSH2 0xE9 JUMPI DUP1 PUSH4 0x68FC01A2 EQ PUSH2 0x18F JUMPI DUP1 PUSH4 0x715018A6 EQ PUSH2 0x1AD JUMPI DUP1 PUSH4 0x8C83FAEB EQ PUSH2 0x1B7 JUMPI DUP1 PUSH4 0x8DA5CB5B EQ PUSH2 0x1D5 JUMPI DUP1 PUSH4 0x91232F18 EQ PUSH2 0x1F3 JUMPI PUSH2 0x116 JUMP JUMPDEST DUP1 PUSH4 0x4C0F38C2 EQ PUSH2 0x11B JUMPI DUP1 PUSH4 0x4C9B73DA EQ PUSH2 0x139 JUMPI DUP1 PUSH4 0x51F7598C EQ PUSH2 0x155 JUMPI DUP1 PUSH4 0x5CE7E721 EQ PUSH2 0x171 JUMPI JUMPDEST PUSH1 0x0 DUP1 REVERT JUMPDEST PUSH2 0x123 PUSH2 0x303 JUMP JUMPDEST PUSH1 0x40 MLOAD PUSH2 0x130 SWAP2 SWAP1 PUSH2 0x1781 JUMP JUMPDEST PUSH1 0x40 MLOAD DUP1 SWAP2 SUB SWAP1 RETURN JUMPDEST PUSH2 0x153 PUSH1 0x4 DUP1 CALLDATASIZE SUB DUP2 ADD SWAP1 PUSH2 0x14E SWAP2 SWAP1 PUSH2 0x1234 JUMP JUMPDEST PUSH2 0x3AA JUMP JUMPDEST STOP JUMPDEST PUSH2 0x16F PUSH1 0x4 DUP1 CALLDATASIZE SUB DUP2 ADD SWAP1 PUSH2 0x16A SWAP2 SWAP1 PUSH2 0x113A JUMP JUMPDEST PUSH2 0x3CD JUMP JUMPDEST STOP JUMPDEST PUSH2 0x179 PUSH2 0x48D JUMP JUMPDEST PUSH1 0x40 MLOAD PUSH2 0x186 SWAP2 SWAP1 PUSH2 0x1689 JUMP JUMPDEST PUSH1 0x40 MLOAD DUP1 SWAP2 SUB SWAP1 RETURN JUMPDEST PUSH2 0x197 PUSH2 0x4B3 JUMP JUMPDEST PUSH1 0x40 MLOAD PUSH2 0x1A4 SWAP2 SWAP1 PUSH2 0x1781 JUMP JUMPDEST PUSH1 0x40 MLOAD DUP1 SWAP2 SUB SWAP1 RETURN JUMPDEST PUSH2 0x1B5 PUSH2 0x55A JUMP JUMPDEST STOP JUMPDEST PUSH2 0x1BF PUSH2 0x5E2 JUMP JUMPDEST PUSH1 0x40 MLOAD PUSH2 0x1CC SWAP2 SWAP1 PUSH2 0x166E JUMP JUMPDEST PUSH1 0x40 MLOAD DUP1 SWAP2 SUB SWAP1 RETURN JUMPDEST PUSH2 0x1DD PUSH2 0x608 JUMP JUMPDEST PUSH1 0x40 MLOAD PUSH2 0x1EA SWAP2 SWAP1 PUSH2 0x15F3 JUMP JUMPDEST PUSH1 0x40 MLOAD DUP1 SWAP2 SUB SWAP1 RETURN JUMPDEST PUSH2 0x1FB PUSH2 0x631 JUMP JUMPDEST STOP JUMPDEST PUSH2 0x217 PUSH1 0x4 DUP1 CALLDATASIZE SUB DUP2 ADD SWAP1 PUSH2 0x212 SWAP2 SWAP1 PUSH2 0x1234 JUMP JUMPDEST PUSH2 0x74D JUMP JUMPDEST STOP JUMPDEST PUSH2 0x233 PUSH1 0x4 DUP1 CALLDATASIZE SUB DUP2 ADD SWAP1 PUSH2 0x22E SWAP2 SWAP1 PUSH2 0x1163 JUMP JUMPDEST PUSH2 0x7D3 JUMP JUMPDEST PUSH1 0x40 MLOAD PUSH2 0x240 SWAP2 SWAP1 PUSH2 0x1781 JUMP JUMPDEST PUSH1 0x40 MLOAD DUP1 SWAP2 SUB SWAP1 RETURN JUMPDEST PUSH2 0x263 PUSH1 0x4 DUP1 CALLDATASIZE SUB DUP2 ADD SWAP1 PUSH2 0x25E SWAP2 SWAP1 PUSH2 0x1234 JUMP JUMPDEST PUSH2 0x964 JUMP JUMPDEST STOP JUMPDEST PUSH2 0x26D PUSH2 0x9EA JUMP JUMPDEST STOP JUMPDEST PUSH2 0x277 PUSH2 0xA08 JUMP JUMPDEST PUSH1 0x40 MLOAD PUSH2 0x286 SWAP4 SWAP3 SWAP2 SWAP1 PUSH2 0x179C JUMP JUMPDEST PUSH1 0x40 MLOAD DUP1 SWAP2 SUB SWAP1 RETURN JUMPDEST PUSH2 0x297 PUSH2 0xA2D JUMP JUMPDEST PUSH1 0x40 MLOAD PUSH2 0x2A4 SWAP2 SWAP1 PUSH2 0x16A4 JUMP JUMPDEST PUSH1 0x40 MLOAD DUP1 SWAP2 SUB SWAP1 RETURN JUMPDEST PUSH2 0x2B5 PUSH2 0xA53 JUMP JUMPDEST PUSH1 0x40 MLOAD PUSH2 0x2C2 SWAP2 SWAP1 PUSH2 0x15F3 JUMP JUMPDEST PUSH1 0x40 MLOAD DUP1 SWAP2 SUB SWAP1 RETURN JUMPDEST PUSH2 0x2E5 PUSH1 0x4 DUP1 CALLDATASIZE SUB DUP2 ADD SWAP1 PUSH2 0x2E0 SWAP2 SWAP1 PUSH2 0x119F JUMP JUMPDEST PUSH2 0xA79 JUMP JUMPDEST STOP JUMPDEST PUSH2 0x301 PUSH1 0x4 DUP1 CALLDATASIZE SUB DUP2 ADD SWAP1 PUSH2 0x2FC SWAP2 SWAP1 PUSH2 0x113A JUMP JUMPDEST PUSH2 0xB88 JUMP JUMPDEST STOP JUMPDEST PUSH1 0x0 PUSH1 0x1 PUSH1 0x0 SWAP1 SLOAD SWAP1 PUSH2 0x100 EXP SWAP1 DIV PUSH20 0xFFFFFFFFFFFFFFFFFFFFFFFFFFFFFFFFFFFFFFFF AND PUSH20 0xFFFFFFFFFFFFFFFFFFFFFFFFFFFFFFFFFFFFFFFF AND PUSH4 0x4C0F38C2 PUSH1 0x40 MLOAD DUP2 PUSH4 0xFFFFFFFF AND PUSH1 0xE0 SHL DUP2 MSTORE PUSH1 0x4 ADD PUSH1 0x20 PUSH1 0x40 MLOAD DUP1 DUP4 SUB DUP2 DUP7 DUP1 EXTCODESIZE ISZERO DUP1 ISZERO PUSH2 0x36D JUMPI PUSH1 0x0 DUP1 REVERT JUMPDEST POP GAS STATICCALL ISZERO DUP1 ISZERO PUSH2 0x381 JUMPI RETURNDATASIZE PUSH1 0x0 DUP1 RETURNDATACOPY RETURNDATASIZE PUSH1 0x0 REVERT JUMPDEST POP POP POP POP PUSH1 0x40 MLOAD RETURNDATASIZE PUSH1 0x1F NOT PUSH1 0x1F DUP3 ADD AND DUP3 ADD DUP1 PUSH1 0x40 MSTORE POP DUP2 ADD SWAP1 PUSH2 0x3A5 SWAP2 SWAP1 PUSH2 0x125D JUMP JUMPDEST SWAP1 POP SWAP1 JUMP JUMPDEST PUSH2 0x3B2 PUSH2 0xC80 JUMP JUMPDEST PUSH1 0x0 PUSH2 0x3BE CALLER DUP4 PUSH2 0x7D3 JUMP JUMPDEST SWAP1 POP PUSH2 0x3C9 DUP2 PUSH2 0xD6A JUMP JUMPDEST POP POP JUMP JUMPDEST PUSH2 0x3D5 PUSH2 0xE05 JUMP JUMPDEST PUSH20 0xFFFFFFFFFFFFFFFFFFFFFFFFFFFFFFFFFFFFFFFF AND PUSH2 0x3F3 PUSH2 0x608 JUMP JUMPDEST PUSH20 0xFFFFFFFFFFFFFFFFFFFFFFFFFFFFFFFFFFFFFFFF AND EQ PUSH2 0x449 JUMPI PUSH1 0x40 MLOAD PUSH32 0x8C379A000000000000000000000000000000000000000000000000000000000 DUP2 MSTORE PUSH1 0x4 ADD PUSH2 0x440 SWAP1 PUSH2 0x1761 JUMP JUMPDEST PUSH1 0x40 MLOAD DUP1 SWAP2 SUB SWAP1 REVERT JUMPDEST DUP1 PUSH1 0x1 PUSH1 0x0 PUSH2 0x100 EXP DUP2 SLOAD DUP2 PUSH20 0xFFFFFFFFFFFFFFFFFFFFFFFFFFFFFFFFFFFFFFFF MUL NOT AND SWAP1 DUP4 PUSH20 0xFFFFFFFFFFFFFFFFFFFFFFFFFFFFFFFFFFFFFFFF AND MUL OR SWAP1 SSTORE POP POP JUMP JUMPDEST PUSH1 0x2 PUSH1 0x0 SWAP1 SLOAD SWAP1 PUSH2 0x100 EXP SWAP1 DIV PUSH20 0xFFFFFFFFFFFFFFFFFFFFFFFFFFFFFFFFFFFFFFFF AND DUP2 JUMP JUMPDEST PUSH1 0x0 PUSH1 0x1 PUSH1 0x0 SWAP1 SLOAD SWAP1 PUSH2 0x100 EXP SWAP1 DIV PUSH20 0xFFFFFFFFFFFFFFFFFFFFFFFFFFFFFFFFFFFFFFFF AND PUSH20 0xFFFFFFFFFFFFFFFFFFFFFFFFFFFFFFFFFFFFFFFF AND PUSH4 0x68FC01A2 PUSH1 0x40 MLOAD DUP2 PUSH4 0xFFFFFFFF AND PUSH1 0xE0 SHL DUP2 MSTORE PUSH1 0x4 ADD PUSH1 0x20 PUSH1 0x40 MLOAD DUP1 DUP4 SUB DUP2 DUP7 DUP1 EXTCODESIZE ISZERO DUP1 ISZERO PUSH2 0x51D JUMPI PUSH1 0x0 DUP1 REVERT JUMPDEST POP GAS STATICCALL ISZERO DUP1 ISZERO PUSH2 0x531 JUMPI RETURNDATASIZE PUSH1 0x0 DUP1 RETURNDATACOPY RETURNDATASIZE PUSH1 0x0 REVERT JUMPDEST POP POP POP POP PUSH1 0x40 MLOAD RETURNDATASIZE PUSH1 0x1F NOT PUSH1 0x1F DUP3 ADD AND DUP3 ADD DUP1 PUSH1 0x40 MSTORE POP DUP2 ADD SWAP1 PUSH2 0x555 SWAP2 SWAP1 PUSH2 0x125D JUMP JUMPDEST SWAP1 POP SWAP1 JUMP JUMPDEST PUSH2 0x562 PUSH2 0xE05 JUMP JUMPDEST PUSH20 0xFFFFFFFFFFFFFFFFFFFFFFFFFFFFFFFFFFFFFFFF AND PUSH2 0x580 PUSH2 0x608 JUMP JUMPDEST PUSH20 0xFFFFFFFFFFFFFFFFFFFFFFFFFFFFFFFFFFFFFFFF AND EQ PUSH2 0x5D6 JUMPI PUSH1 0x40 MLOAD PUSH32 0x8C379A000000000000000000000000000000000000000000000000000000000 DUP2 MSTORE PUSH1 0x4 ADD PUSH2 0x5CD SWAP1 PUSH2 0x1761 JUMP JUMPDEST PUSH1 0x40 MLOAD DUP1 SWAP2 SUB SWAP1 REVERT JUMPDEST PUSH2 0x5E0 PUSH1 0x0 PUSH2 0xE0D JUMP JUMPDEST JUMP JUMPDEST PUSH1 0x1 PUSH1 0x0 SWAP1 SLOAD SWAP1 PUSH2 0x100 EXP SWAP1 DIV PUSH20 0xFFFFFFFFFFFFFFFFFFFFFFFFFFFFFFFFFFFFFFFF AND DUP2 JUMP JUMPDEST PUSH1 0x0 DUP1 PUSH1 0x0 SWAP1 SLOAD SWAP1 PUSH2 0x100 EXP SWAP1 DIV PUSH20 0xFFFFFFFFFFFFFFFFFFFFFFFFFFFFFFFFFFFFFFFF AND SWAP1 POP SWAP1 JUMP JUMPDEST TIMESTAMP PUSH1 0xA PUSH1 0x1 ADD SLOAD EQ PUSH2 0x678 JUMPI PUSH1 0x40 MLOAD PUSH32 0x8C379A000000000000000000000000000000000000000000000000000000000 DUP2 MSTORE PUSH1 0x4 ADD PUSH2 0x66F SWAP1 PUSH2 0x1701 JUMP JUMPDEST PUSH1 0x40 MLOAD DUP1 SWAP2 SUB SWAP1 REVERT JUMPDEST PUSH1 0x6 SLOAD TIMESTAMP GT DUP1 ISZERO PUSH2 0x699 JUMPI POP PUSH1 0xA PUSH1 0x2 ADD PUSH1 0x0 SWAP1 SLOAD SWAP1 PUSH2 0x100 EXP SWAP1 DIV PUSH1 0xFF AND ISZERO JUMPDEST PUSH2 0x6D8 JUMPI PUSH1 0x40 MLOAD PUSH32 0x8C379A000000000000000000000000000000000000000000000000000000000 DUP2 MSTORE PUSH1 0x4 ADD PUSH2 0x6CF SWAP1 PUSH2 0x16E1 JUMP JUMPDEST PUSH1 0x40 MLOAD DUP1 SWAP2 SUB SWAP1 REVERT JUMPDEST PUSH1 0x0 PUSH1 0x1 PUSH2 0x6E4 PUSH2 0x4B3 JUMP JUMPDEST PUSH2 0x6EE SWAP2 SWAP1 PUSH2 0x19B6 JUMP JUMPDEST PUSH2 0x6F6 PUSH2 0x303 JUMP JUMPDEST PUSH2 0x700 SWAP2 SWAP1 PUSH2 0x19B6 JUMP JUMPDEST SWAP1 POP JUMPDEST PUSH1 0x0 DUP2 GT ISZERO PUSH2 0x74A JUMPI PUSH2 0x737 PUSH1 0x4 PUSH1 0x0 SWAP1 SLOAD SWAP1 PUSH2 0x100 EXP SWAP1 DIV PUSH20 0xFFFFFFFFFFFFFFFFFFFFFFFFFFFFFFFFFFFFFFFF AND PUSH2 0xED1 JUMP JUMPDEST DUP1 DUP1 PUSH2 0x742 SWAP1 PUSH2 0x1AE0 JUMP JUMPDEST SWAP2 POP POP PUSH2 0x703 JUMP JUMPDEST POP JUMP JUMPDEST PUSH2 0x755 PUSH2 0xE05 JUMP JUMPDEST PUSH20 0xFFFFFFFFFFFFFFFFFFFFFFFFFFFFFFFFFFFFFFFF AND PUSH2 0x773 PUSH2 0x608 JUMP JUMPDEST PUSH20 0xFFFFFFFFFFFFFFFFFFFFFFFFFFFFFFFFFFFFFFFF AND EQ PUSH2 0x7C9 JUMPI PUSH1 0x40 MLOAD PUSH32 0x8C379A000000000000000000000000000000000000000000000000000000000 DUP2 MSTORE PUSH1 0x4 ADD PUSH2 0x7C0 SWAP1 PUSH2 0x1761 JUMP JUMPDEST PUSH1 0x40 MLOAD DUP1 SWAP2 SUB SWAP1 REVERT JUMPDEST DUP1 PUSH1 0x5 DUP2 SWAP1 SSTORE POP POP JUMP JUMPDEST PUSH1 0x0 TIMESTAMP PUSH1 0xA PUSH1 0x1 ADD SLOAD EQ PUSH2 0x81C JUMPI PUSH1 0x40 MLOAD PUSH32 0x8C379A000000000000000000000000000000000000000000000000000000000 DUP2 MSTORE PUSH1 0x4 ADD PUSH2 0x813 SWAP1 PUSH2 0x1701 JUMP JUMPDEST PUSH1 0x40 MLOAD DUP1 SWAP2 SUB SWAP1 REVERT JUMPDEST PUSH1 0x2 PUSH1 0x0 SWAP1 SLOAD SWAP1 PUSH2 0x100 EXP SWAP1 DIV PUSH20 0xFFFFFFFFFFFFFFFFFFFFFFFFFFFFFFFFFFFFFFFF AND PUSH20 0xFFFFFFFFFFFFFFFFFFFFFFFFFFFFFFFFFFFFFFFF AND PUSH4 0x2080179D DUP5 DUP5 PUSH1 0x40 MLOAD DUP4 PUSH4 0xFFFFFFFF AND PUSH1 0xE0 SHL DUP2 MSTORE PUSH1 0x4 ADD PUSH2 0x879 SWAP3 SWAP2 SWAP1 PUSH2 0x160E JUMP JUMPDEST PUSH1 0x20 PUSH1 0x40 MLOAD DUP1 DUP4 SUB DUP2 DUP7 DUP1 EXTCODESIZE ISZERO DUP1 ISZERO PUSH2 0x891 JUMPI PUSH1 0x0 DUP1 REVERT JUMPDEST POP GAS STATICCALL ISZERO DUP1 ISZERO PUSH2 0x8A5 JUMPI RETURNDATASIZE PUSH1 0x0 DUP1 RETURNDATACOPY RETURNDATASIZE PUSH1 0x0 REVERT JUMPDEST POP POP POP POP PUSH1 0x40 MLOAD RETURNDATASIZE PUSH1 0x1F NOT PUSH1 0x1F DUP3 ADD AND DUP3 ADD DUP1 PUSH1 0x40 MSTORE POP DUP2 ADD SWAP1 PUSH2 0x8C9 SWAP2 SWAP1 PUSH2 0x120B JUMP JUMPDEST DUP4 DUP4 PUSH1 0x40 MLOAD PUSH1 0x20 ADD PUSH2 0x8DC SWAP3 SWAP2 SWAP1 PUSH2 0x15A6 JUMP JUMPDEST PUSH1 0x40 MLOAD PUSH1 0x20 DUP2 DUP4 SUB SUB DUP2 MSTORE SWAP1 PUSH1 0x40 MSTORE SWAP1 PUSH2 0x92C JUMPI PUSH1 0x40 MLOAD PUSH32 0x8C379A000000000000000000000000000000000000000000000000000000000 DUP2 MSTORE PUSH1 0x4 ADD PUSH2 0x923 SWAP2 SWAP1 PUSH2 0x16BF JUMP JUMPDEST PUSH1 0x40 MLOAD DUP1 SWAP2 SUB SWAP1 REVERT JUMPDEST POP PUSH1 0x0 DUP3 PUSH1 0x64 PUSH2 0x93C SWAP2 SWAP1 PUSH2 0x19B6 JUMP JUMPDEST PUSH1 0x64 PUSH1 0xA PUSH1 0x0 ADD SLOAD PUSH2 0x94E SWAP2 SWAP1 PUSH2 0x192B JUMP JUMPDEST PUSH2 0x958 SWAP2 SWAP1 PUSH2 0x195C JUMP JUMPDEST SWAP1 POP DUP1 SWAP2 POP POP SWAP3 SWAP2 POP POP JUMP JUMPDEST PUSH2 0x96C PUSH2 0xE05 JUMP JUMPDEST PUSH20 0xFFFFFFFFFFFFFFFFFFFFFFFFFFFFFFFFFFFFFFFF AND PUSH2 0x98A PUSH2 0x608 JUMP JUMPDEST PUSH20 0xFFFFFFFFFFFFFFFFFFFFFFFFFFFFFFFFFFFFFFFF AND EQ PUSH2 0x9E0 JUMPI PUSH1 0x40 MLOAD PUSH32 0x8C379A000000000000000000000000000000000000000000000000000000000 DUP2 MSTORE PUSH1 0x4 ADD PUSH2 0x9D7 SWAP1 PUSH2 0x1761 JUMP JUMPDEST PUSH1 0x40 MLOAD DUP1 SWAP2 SUB SWAP1 REVERT JUMPDEST DUP1 PUSH1 0x6 DUP2 SWAP1 SSTORE POP POP JUMP JUMPDEST PUSH2 0x9F2 PUSH2 0xC80 JUMP JUMPDEST PUSH1 0x0 PUSH1 0xA PUSH1 0x0 ADD SLOAD SWAP1 POP PUSH2 0xA05 DUP2 PUSH2 0xD6A JUMP JUMPDEST POP JUMP JUMPDEST PUSH1 0xA DUP1 PUSH1 0x0 ADD SLOAD SWAP1 DUP1 PUSH1 0x1 ADD SLOAD SWAP1 DUP1 PUSH1 0x2 ADD PUSH1 0x0 SWAP1 SLOAD SWAP1 PUSH2 0x100 EXP SWAP1 DIV PUSH1 0xFF AND SWAP1 POP DUP4 JUMP JUMPDEST PUSH1 0x3 PUSH1 0x0 SWAP1 SLOAD SWAP1 PUSH2 0x100 EXP SWAP1 DIV PUSH20 0xFFFFFFFFFFFFFFFFFFFFFFFFFFFFFFFFFFFFFFFF AND DUP2 JUMP JUMPDEST PUSH1 0x4 PUSH1 0x0 SWAP1 SLOAD SWAP1 PUSH2 0x100 EXP SWAP1 DIV PUSH20 0xFFFFFFFFFFFFFFFFFFFFFFFFFFFFFFFFFFFFFFFF AND DUP2 JUMP JUMPDEST PUSH2 0xA81 PUSH2 0xE05 JUMP JUMPDEST PUSH20 0xFFFFFFFFFFFFFFFFFFFFFFFFFFFFFFFFFFFFFFFF AND PUSH2 0xA9F PUSH2 0x608 JUMP JUMPDEST PUSH20 0xFFFFFFFFFFFFFFFFFFFFFFFFFFFFFFFFFFFFFFFF AND EQ PUSH2 0xAF5 JUMPI PUSH1 0x40 MLOAD PUSH32 0x8C379A000000000000000000000000000000000000000000000000000000000 DUP2 MSTORE PUSH1 0x4 ADD PUSH2 0xAEC SWAP1 PUSH2 0x1761 JUMP JUMPDEST PUSH1 0x40 MLOAD DUP1 SWAP2 SUB SWAP1 REVERT JUMPDEST PUSH1 0x1 PUSH1 0x0 SWAP1 SLOAD SWAP1 PUSH2 0x100 EXP SWAP1 DIV PUSH20 0xFFFFFFFFFFFFFFFFFFFFFFFFFFFFFFFFFFFFFFFF AND PUSH20 0xFFFFFFFFFFFFFFFFFFFFFFFFFFFFFFFFFFFFFFFF AND PUSH4 0xF121DA92 DUP4 DUP4 PUSH1 0x40 MLOAD DUP4 PUSH4 0xFFFFFFFF AND PUSH1 0xE0 SHL DUP2 MSTORE PUSH1 0x4 ADD PUSH2 0xB52 SWAP3 SWAP2 SWAP1 PUSH2 0x1637 JUMP JUMPDEST PUSH1 0x0 PUSH1 0x40 MLOAD DUP1 DUP4 SUB DUP2 PUSH1 0x0 DUP8 DUP1 EXTCODESIZE ISZERO DUP1 ISZERO PUSH2 0xB6C JUMPI PUSH1 0x0 DUP1 REVERT JUMPDEST POP GAS CALL ISZERO DUP1 ISZERO PUSH2 0xB80 JUMPI RETURNDATASIZE PUSH1 0x0 DUP1 RETURNDATACOPY RETURNDATASIZE PUSH1 0x0 REVERT JUMPDEST POP POP POP POP POP POP JUMP JUMPDEST PUSH2 0xB90 PUSH2 0xE05 JUMP JUMPDEST PUSH20 0xFFFFFFFFFFFFFFFFFFFFFFFFFFFFFFFFFFFFFFFF AND PUSH2 0xBAE PUSH2 0x608 JUMP JUMPDEST PUSH20 0xFFFFFFFFFFFFFFFFFFFFFFFFFFFFFFFFFFFFFFFF AND EQ PUSH2 0xC04 JUMPI PUSH1 0x40 MLOAD PUSH32 0x8C379A000000000000000000000000000000000000000000000000000000000 DUP2 MSTORE PUSH1 0x4 ADD PUSH2 0xBFB SWAP1 PUSH2 0x1761 JUMP JUMPDEST PUSH1 0x40 MLOAD DUP1 SWAP2 SUB SWAP1 REVERT JUMPDEST PUSH1 0x0 PUSH20 0xFFFFFFFFFFFFFFFFFFFFFFFFFFFFFFFFFFFFFFFF AND DUP2 PUSH20 0xFFFFFFFFFFFFFFFFFFFFFFFFFFFFFFFFFFFFFFFF AND EQ ISZERO PUSH2 0xC74 JUMPI PUSH1 0x40 MLOAD PUSH32 0x8C379A000000000000000000000000000000000000000000000000000000000 DUP2 MSTORE PUSH1 0x4 ADD PUSH2 0xC6B SWAP1 PUSH2 0x1721 JUMP JUMPDEST PUSH1 0x40 MLOAD DUP1 SWAP2 SUB SWAP1 REVERT JUMPDEST PUSH2 0xC7D DUP2 PUSH2 0xE0D JUMP JUMPDEST POP JUMP JUMPDEST PUSH1 0x6 SLOAD PUSH1 0x5 SLOAD GT ISZERO PUSH2 0xCC7 JUMPI PUSH1 0x40 MLOAD PUSH32 0x8C379A000000000000000000000000000000000000000000000000000000000 DUP2 MSTORE PUSH1 0x4 ADD PUSH2 0xCBE SWAP1 PUSH2 0x1741 JUMP JUMPDEST PUSH1 0x40 MLOAD DUP1 SWAP2 SUB SWAP1 REVERT JUMPDEST PUSH1 0x1 PUSH1 0x3C PUSH1 0x5 SLOAD TIMESTAMP PUSH2 0xCD9 SWAP2 SWAP1 PUSH2 0x19B6 JUMP JUMPDEST PUSH2 0xCE3 SWAP2 SWAP1 PUSH2 0x192B JUMP JUMPDEST PUSH2 0xCED SWAP2 SWAP1 PUSH2 0x195C JUMP JUMPDEST PUSH1 0x8 SLOAD PUSH2 0xCFA SWAP2 SWAP1 PUSH2 0x19B6 JUMP JUMPDEST PUSH1 0xA PUSH1 0x0 ADD DUP2 SWAP1 SSTORE POP TIMESTAMP PUSH1 0xA PUSH1 0x1 ADD DUP2 SWAP1 SSTORE POP PUSH1 0x5 SLOAD TIMESTAMP LT ISZERO DUP1 ISZERO PUSH2 0xD21 JUMPI POP PUSH1 0x6 SLOAD TIMESTAMP GT ISZERO JUMPDEST ISZERO PUSH2 0xD49 JUMPI PUSH1 0x1 PUSH1 0xA PUSH1 0x2 ADD PUSH1 0x0 PUSH2 0x100 EXP DUP2 SLOAD DUP2 PUSH1 0xFF MUL NOT AND SWAP1 DUP4 ISZERO ISZERO MUL OR SWAP1 SSTORE POP PUSH2 0xD68 JUMP JUMPDEST PUSH1 0x0 PUSH1 0xA PUSH1 0x2 ADD PUSH1 0x0 PUSH2 0x100 EXP DUP2 SLOAD DUP2 PUSH1 0xFF MUL NOT AND SWAP1 DUP4 ISZERO ISZERO MUL OR SWAP1 SSTORE POP JUMPDEST JUMP JUMPDEST PUSH1 0x3 PUSH1 0x0 SWAP1 SLOAD SWAP1 PUSH2 0x100 EXP SWAP1 DIV PUSH20 0xFFFFFFFFFFFFFFFFFFFFFFFFFFFFFFFFFFFFFFFF AND PUSH20 0xFFFFFFFFFFFFFFFFFFFFFFFFFFFFFFFFFFFFFFFF AND PUSH4 0x532B2913 CALLER DUP4 PUSH1 0x40 MLOAD DUP4 PUSH4 0xFFFFFFFF AND PUSH1 0xE0 SHL DUP2 MSTORE PUSH1 0x4 ADD PUSH2 0xDC7 SWAP3 SWAP2 SWAP1 PUSH2 0x160E JUMP JUMPDEST PUSH1 0x0 PUSH1 0x40 MLOAD DUP1 DUP4 SUB DUP2 PUSH1 0x0 DUP8 DUP1 EXTCODESIZE ISZERO DUP1 ISZERO PUSH2 0xDE1 JUMPI PUSH1 0x0 DUP1 REVERT JUMPDEST POP GAS CALL ISZERO DUP1 ISZERO PUSH2 0xDF5 JUMPI RETURNDATASIZE PUSH1 0x0 DUP1 RETURNDATACOPY RETURNDATASIZE PUSH1 0x0 REVERT JUMPDEST POP POP POP POP PUSH2 0xE02 CALLER PUSH2 0xED1 JUMP JUMPDEST POP JUMP JUMPDEST PUSH1 0x0 CALLER SWAP1 POP SWAP1 JUMP JUMPDEST PUSH1 0x0 DUP1 PUSH1 0x0 SWAP1 SLOAD SWAP1 PUSH2 0x100 EXP SWAP1 DIV PUSH20 0xFFFFFFFFFFFFFFFFFFFFFFFFFFFFFFFFFFFFFFFF AND SWAP1 POP DUP2 PUSH1 0x0 DUP1 PUSH2 0x100 EXP DUP2 SLOAD DUP2 PUSH20 0xFFFFFFFFFFFFFFFFFFFFFFFFFFFFFFFFFFFFFFFF MUL NOT AND SWAP1 DUP4 PUSH20 0xFFFFFFFFFFFFFFFFFFFFFFFFFFFFFFFFFFFFFFFF AND MUL OR SWAP1 SSTORE POP DUP2 PUSH20 0xFFFFFFFFFFFFFFFFFFFFFFFFFFFFFFFFFFFFFFFF AND DUP2 PUSH20 0xFFFFFFFFFFFFFFFFFFFFFFFFFFFFFFFFFFFFFFFF AND PUSH32 0x8BE0079C531659141344CD1FD0A4F28419497F9722A3DAAFE3B4186F6B6457E0 PUSH1 0x40 MLOAD PUSH1 0x40 MLOAD DUP1 SWAP2 SUB SWAP1 LOG3 POP POP JUMP JUMPDEST PUSH1 0x1 PUSH1 0x0 SWAP1 SLOAD SWAP1 PUSH2 0x100 EXP SWAP1 DIV PUSH20 0xFFFFFFFFFFFFFFFFFFFFFFFFFFFFFFFFFFFFFFFF AND PUSH20 0xFFFFFFFFFFFFFFFFFFFFFFFFFFFFFFFFFFFFFFFF AND PUSH4 0x55676590 DUP3 PUSH1 0x40 MLOAD DUP3 PUSH4 0xFFFFFFFF AND PUSH1 0xE0 SHL DUP2 MSTORE PUSH1 0x4 ADD PUSH2 0xF2C SWAP2 SWAP1 PUSH2 0x15F3 JUMP JUMPDEST PUSH1 0x0 PUSH1 0x40 MLOAD DUP1 DUP4 SUB DUP2 PUSH1 0x0 DUP8 DUP1 EXTCODESIZE ISZERO DUP1 ISZERO PUSH2 0xF46 JUMPI PUSH1 0x0 DUP1 REVERT JUMPDEST POP GAS CALL ISZERO DUP1 ISZERO PUSH2 0xF5A JUMPI RETURNDATASIZE PUSH1 0x0 DUP1 RETURNDATACOPY RETURNDATASIZE PUSH1 0x0 REVERT JUMPDEST POP POP POP POP POP JUMP JUMPDEST PUSH1 0x0 PUSH2 0xF74 PUSH2 0xF6F DUP5 PUSH2 0x17F8 JUMP JUMPDEST PUSH2 0x17D3 JUMP JUMPDEST SWAP1 POP DUP1 DUP4 DUP3 MSTORE PUSH1 0x20 DUP3 ADD SWAP1 POP DUP3 PUSH1 0x0 JUMPDEST DUP6 DUP2 LT ISZERO PUSH2 0xFB4 JUMPI DUP2 CALLDATALOAD DUP6 ADD PUSH2 0xF9A DUP9 DUP3 PUSH2 0x10E6 JUMP JUMPDEST DUP5 MSTORE PUSH1 0x20 DUP5 ADD SWAP4 POP PUSH1 0x20 DUP4 ADD SWAP3 POP POP PUSH1 0x1 DUP2 ADD SWAP1 POP PUSH2 0xF84 JUMP JUMPDEST POP POP POP SWAP4 SWAP3 POP POP POP JUMP JUMPDEST PUSH1 0x0 PUSH2 0xFD1 PUSH2 0xFCC DUP5 PUSH2 0x1824 JUMP JUMPDEST PUSH2 0x17D3 JUMP JUMPDEST SWAP1 POP DUP1 DUP4 DUP3 MSTORE PUSH1 0x20 DUP3 ADD SWAP1 POP DUP3 DUP6 PUSH1 0x20 DUP7 MUL DUP3 ADD GT ISZERO PUSH2 0xFF0 JUMPI PUSH1 0x0 DUP1 REVERT JUMPDEST PUSH1 0x0 JUMPDEST DUP6 DUP2 LT ISZERO PUSH2 0x1020 JUMPI DUP2 PUSH2 0x1006 DUP9 DUP3 PUSH2 0x1110 JUMP JUMPDEST DUP5 MSTORE PUSH1 0x20 DUP5 ADD SWAP4 POP PUSH1 0x20 DUP4 ADD SWAP3 POP POP PUSH1 0x1 DUP2 ADD SWAP1 POP PUSH2 0xFF3 JUMP JUMPDEST POP POP POP SWAP4 SWAP3 POP POP POP JUMP JUMPDEST PUSH1 0x0 PUSH2 0x103D PUSH2 0x1038 DUP5 PUSH2 0x1850 JUMP JUMPDEST PUSH2 0x17D3 JUMP JUMPDEST SWAP1 POP DUP3 DUP2 MSTORE PUSH1 0x20 DUP2 ADD DUP5 DUP5 DUP5 ADD GT ISZERO PUSH2 0x1055 JUMPI PUSH1 0x0 DUP1 REVERT JUMPDEST PUSH2 0x1060 DUP5 DUP3 DUP6 PUSH2 0x1A9E JUMP JUMPDEST POP SWAP4 SWAP3 POP POP POP JUMP JUMPDEST PUSH1 0x0 DUP2 CALLDATALOAD SWAP1 POP PUSH2 0x1077 DUP2 PUSH2 0x1DCE JUMP JUMPDEST SWAP3 SWAP2 POP POP JUMP JUMPDEST PUSH1 0x0 DUP3 PUSH1 0x1F DUP4 ADD SLT PUSH2 0x108E JUMPI PUSH1 0x0 DUP1 REVERT JUMPDEST DUP2 CALLDATALOAD PUSH2 0x109E DUP5 DUP3 PUSH1 0x20 DUP7 ADD PUSH2 0xF61 JUMP JUMPDEST SWAP2 POP POP SWAP3 SWAP2 POP POP JUMP JUMPDEST PUSH1 0x0 DUP3 PUSH1 0x1F DUP4 ADD SLT PUSH2 0x10B8 JUMPI PUSH1 0x0 DUP1 REVERT JUMPDEST DUP2 CALLDATALOAD PUSH2 0x10C8 DUP5 DUP3 PUSH1 0x20 DUP7 ADD PUSH2 0xFBE JUMP JUMPDEST SWAP2 POP POP SWAP3 SWAP2 POP POP JUMP JUMPDEST PUSH1 0x0 DUP2 MLOAD SWAP1 POP PUSH2 0x10E0 DUP2 PUSH2 0x1DE5 JUMP JUMPDEST SWAP3 SWAP2 POP POP JUMP JUMPDEST PUSH1 0x0 DUP3 PUSH1 0x1F DUP4 ADD SLT PUSH2 0x10F7 JUMPI PUSH1 0x0 DUP1 REVERT JUMPDEST DUP2 CALLDATALOAD PUSH2 0x1107 DUP5 DUP3 PUSH1 0x20 DUP7 ADD PUSH2 0x102A JUMP JUMPDEST SWAP2 POP POP SWAP3 SWAP2 POP POP JUMP JUMPDEST PUSH1 0x0 DUP2 CALLDATALOAD SWAP1 POP PUSH2 0x111F DUP2 PUSH2 0x1DFC JUMP JUMPDEST SWAP3 SWAP2 POP POP JUMP JUMPDEST PUSH1 0x0 DUP2 MLOAD SWAP1 POP PUSH2 0x1134 DUP2 PUSH2 0x1DFC JUMP JUMPDEST SWAP3 SWAP2 POP POP JUMP JUMPDEST PUSH1 0x0 PUSH1 0x20 DUP3 DUP5 SUB SLT ISZERO PUSH2 0x114C JUMPI PUSH1 0x0 DUP1 REVERT JUMPDEST PUSH1 0x0 PUSH2 0x115A DUP5 DUP3 DUP6 ADD PUSH2 0x1068 JUMP JUMPDEST SWAP2 POP POP SWAP3 SWAP2 POP POP JUMP JUMPDEST PUSH1 0x0 DUP1 PUSH1 0x40 DUP4 DUP6 SUB SLT ISZERO PUSH2 0x1176 JUMPI PUSH1 0x0 DUP1 REVERT JUMPDEST PUSH1 0x0 PUSH2 0x1184 DUP6 DUP3 DUP7 ADD PUSH2 0x1068 JUMP JUMPDEST SWAP3 POP POP PUSH1 0x20 PUSH2 0x1195 DUP6 DUP3 DUP7 ADD PUSH2 0x1110 JUMP JUMPDEST SWAP2 POP POP SWAP3 POP SWAP3 SWAP1 POP JUMP JUMPDEST PUSH1 0x0 DUP1 PUSH1 0x40 DUP4 DUP6 SUB SLT ISZERO PUSH2 0x11B2 JUMPI PUSH1 0x0 DUP1 REVERT JUMPDEST PUSH1 0x0 DUP4 ADD CALLDATALOAD PUSH8 0xFFFFFFFFFFFFFFFF DUP2 GT ISZERO PUSH2 0x11CC JUMPI PUSH1 0x0 DUP1 REVERT JUMPDEST PUSH2 0x11D8 DUP6 DUP3 DUP7 ADD PUSH2 0x10A7 JUMP JUMPDEST SWAP3 POP POP PUSH1 0x20 DUP4 ADD CALLDATALOAD PUSH8 0xFFFFFFFFFFFFFFFF DUP2 GT ISZERO PUSH2 0x11F5 JUMPI PUSH1 0x0 DUP1 REVERT JUMPDEST PUSH2 0x1201 DUP6 DUP3 DUP7 ADD PUSH2 0x107D JUMP JUMPDEST SWAP2 POP POP SWAP3 POP SWAP3 SWAP1 POP JUMP JUMPDEST PUSH1 0x0 PUSH1 0x20 DUP3 DUP5 SUB SLT ISZERO PUSH2 0x121D JUMPI PUSH1 0x0 DUP1 REVERT JUMPDEST PUSH1 0x0 PUSH2 0x122B DUP5 DUP3 DUP6 ADD PUSH2 0x10D1 JUMP JUMPDEST SWAP2 POP POP SWAP3 SWAP2 POP POP JUMP JUMPDEST PUSH1 0x0 PUSH1 0x20 DUP3 DUP5 SUB SLT ISZERO PUSH2 0x1246 JUMPI PUSH1 0x0 DUP1 REVERT JUMPDEST PUSH1 0x0 PUSH2 0x1254 DUP5 DUP3 DUP6 ADD PUSH2 0x1110 JUMP JUMPDEST SWAP2 POP POP SWAP3 SWAP2 POP POP JUMP JUMPDEST PUSH1 0x0 PUSH1 0x20 DUP3 DUP5 SUB SLT ISZERO PUSH2 0x126F JUMPI PUSH1 0x0 DUP1 REVERT JUMPDEST PUSH1 0x0 PUSH2 0x127D DUP5 DUP3 DUP6 ADD PUSH2 0x1125 JUMP JUMPDEST SWAP2 POP POP SWAP3 SWAP2 POP POP JUMP JUMPDEST PUSH1 0x0 PUSH2 0x1292 DUP4 DUP4 PUSH2 0x13E7 JUMP JUMPDEST SWAP1 POP SWAP3 SWAP2 POP POP JUMP JUMPDEST PUSH1 0x0 PUSH2 0x12A6 DUP4 DUP4 PUSH2 0x1571 JUMP JUMPDEST PUSH1 0x20 DUP4 ADD SWAP1 POP SWAP3 SWAP2 POP POP JUMP JUMPDEST PUSH2 0x12BB DUP2 PUSH2 0x19EA JUMP JUMPDEST DUP3 MSTORE POP POP JUMP JUMPDEST PUSH2 0x12D2 PUSH2 0x12CD DUP3 PUSH2 0x19EA JUMP JUMPDEST PUSH2 0x1B3B JUMP JUMPDEST DUP3 MSTORE POP POP JUMP JUMPDEST PUSH1 0x0 PUSH2 0x12E3 DUP3 PUSH2 0x18A1 JUMP JUMPDEST PUSH2 0x12ED DUP2 DUP6 PUSH2 0x18DC JUMP JUMPDEST SWAP4 POP DUP4 PUSH1 0x20 DUP3 MUL DUP6 ADD PUSH2 0x12FF DUP6 PUSH2 0x1881 JUMP JUMPDEST DUP1 PUSH1 0x0 JUMPDEST DUP6 DUP2 LT ISZERO PUSH2 0x133B JUMPI DUP5 DUP5 SUB DUP10 MSTORE DUP2 MLOAD PUSH2 0x131C DUP6 DUP3 PUSH2 0x1286 JUMP JUMPDEST SWAP5 POP PUSH2 0x1327 DUP4 PUSH2 0x18C2 JUMP JUMPDEST SWAP3 POP PUSH1 0x20 DUP11 ADD SWAP10 POP POP PUSH1 0x1 DUP2 ADD SWAP1 POP PUSH2 0x1303 JUMP JUMPDEST POP DUP3 SWAP8 POP DUP8 SWAP6 POP POP POP POP POP POP SWAP3 SWAP2 POP POP JUMP JUMPDEST PUSH1 0x0 PUSH2 0x1358 DUP3 PUSH2 0x18AC JUMP JUMPDEST PUSH2 0x1362 DUP2 DUP6 PUSH2 0x18ED JUMP JUMPDEST SWAP4 POP PUSH2 0x136D DUP4 PUSH2 0x1891 JUMP JUMPDEST DUP1 PUSH1 0x0 JUMPDEST DUP4 DUP2 LT ISZERO PUSH2 0x139E JUMPI DUP2 MLOAD PUSH2 0x1385 DUP9 DUP3 PUSH2 0x129A JUMP JUMPDEST SWAP8 POP PUSH2 0x1390 DUP4 PUSH2 0x18CF JUMP JUMPDEST SWAP3 POP POP PUSH1 0x1 DUP2 ADD SWAP1 POP PUSH2 0x1371 JUMP JUMPDEST POP DUP6 SWAP4 POP POP POP POP SWAP3 SWAP2 POP POP JUMP JUMPDEST PUSH2 0x13B4 DUP2 PUSH2 0x19FC JUMP JUMPDEST DUP3 MSTORE POP POP JUMP JUMPDEST PUSH2 0x13C3 DUP2 PUSH2 0x1A32 JUMP JUMPDEST DUP3 MSTORE POP POP JUMP JUMPDEST PUSH2 0x13D2 DUP2 PUSH2 0x1A56 JUMP JUMPDEST DUP3 MSTORE POP POP JUMP JUMPDEST PUSH2 0x13E1 DUP2 PUSH2 0x1A7A JUMP JUMPDEST DUP3 MSTORE POP POP JUMP JUMPDEST PUSH1 0x0 PUSH2 0x13F2 DUP3 PUSH2 0x18B7 JUMP JUMPDEST PUSH2 0x13FC DUP2 DUP6 PUSH2 0x18FE JUMP JUMPDEST SWAP4 POP PUSH2 0x140C DUP2 DUP6 PUSH1 0x20 DUP7 ADD PUSH2 0x1AAD JUMP JUMPDEST PUSH2 0x1415 DUP2 PUSH2 0x1BF6 JUMP JUMPDEST DUP5 ADD SWAP2 POP POP SWAP3 SWAP2 POP POP JUMP JUMPDEST PUSH1 0x0 PUSH2 0x142B DUP3 PUSH2 0x18B7 JUMP JUMPDEST PUSH2 0x1435 DUP2 DUP6 PUSH2 0x190F JUMP JUMPDEST SWAP4 POP PUSH2 0x1445 DUP2 DUP6 PUSH1 0x20 DUP7 ADD PUSH2 0x1AAD JUMP JUMPDEST PUSH2 0x144E DUP2 PUSH2 0x1BF6 JUMP JUMPDEST DUP5 ADD SWAP2 POP POP SWAP3 SWAP2 POP POP JUMP JUMPDEST PUSH1 0x0 PUSH2 0x1466 PUSH1 0x8 DUP4 PUSH2 0x1920 JUMP JUMPDEST SWAP2 POP PUSH2 0x1471 DUP3 PUSH2 0x1C14 JUMP JUMPDEST PUSH1 0x8 DUP3 ADD SWAP1 POP SWAP2 SWAP1 POP JUMP JUMPDEST PUSH1 0x0 PUSH2 0x1489 PUSH1 0x36 DUP4 PUSH2 0x190F JUMP JUMPDEST SWAP2 POP PUSH2 0x1494 DUP3 PUSH2 0x1C3D JUMP JUMPDEST PUSH1 0x40 DUP3 ADD SWAP1 POP SWAP2 SWAP1 POP JUMP JUMPDEST PUSH1 0x0 PUSH2 0x14AC PUSH1 0x1B DUP4 PUSH2 0x190F JUMP JUMPDEST SWAP2 POP PUSH2 0x14B7 DUP3 PUSH2 0x1C8C JUMP JUMPDEST PUSH1 0x20 DUP3 ADD SWAP1 POP SWAP2 SWAP1 POP JUMP JUMPDEST PUSH1 0x0 PUSH2 0x14CF PUSH1 0x26 DUP4 PUSH2 0x190F JUMP JUMPDEST SWAP2 POP PUSH2 0x14DA DUP3 PUSH2 0x1CB5 JUMP JUMPDEST PUSH1 0x40 DUP3 ADD SWAP1 POP SWAP2 SWAP1 POP JUMP JUMPDEST PUSH1 0x0 PUSH2 0x14F2 PUSH1 0x1 DUP4 PUSH2 0x1920 JUMP JUMPDEST SWAP2 POP PUSH2 0x14FD DUP3 PUSH2 0x1D04 JUMP JUMPDEST PUSH1 0x1 DUP3 ADD SWAP1 POP SWAP2 SWAP1 POP JUMP JUMPDEST PUSH1 0x0 PUSH2 0x1515 PUSH1 0x30 DUP4 PUSH2 0x1920 JUMP JUMPDEST SWAP2 POP PUSH2 0x1520 DUP3 PUSH2 0x1D2D JUMP JUMPDEST PUSH1 0x30 DUP3 ADD SWAP1 POP SWAP2 SWAP1 POP JUMP JUMPDEST PUSH1 0x0 PUSH2 0x1538 PUSH1 0x1F DUP4 PUSH2 0x190F JUMP JUMPDEST SWAP2 POP PUSH2 0x1543 DUP3 PUSH2 0x1D7C JUMP JUMPDEST PUSH1 0x20 DUP3 ADD SWAP1 POP SWAP2 SWAP1 POP JUMP JUMPDEST PUSH1 0x0 PUSH2 0x155B PUSH1 0x20 DUP4 PUSH2 0x190F JUMP JUMPDEST SWAP2 POP PUSH2 0x1566 DUP3 PUSH2 0x1DA5 JUMP JUMPDEST PUSH1 0x20 DUP3 ADD SWAP1 POP SWAP2 SWAP1 POP JUMP JUMPDEST PUSH2 0x157A DUP2 PUSH2 0x1A28 JUMP JUMPDEST DUP3 MSTORE POP POP JUMP JUMPDEST PUSH2 0x1589 DUP2 PUSH2 0x1A28 JUMP JUMPDEST DUP3 MSTORE POP POP JUMP JUMPDEST PUSH2 0x15A0 PUSH2 0x159B DUP3 PUSH2 0x1A28 JUMP JUMPDEST PUSH2 0x1B5F JUMP JUMPDEST DUP3 MSTORE POP POP JUMP JUMPDEST PUSH1 0x0 PUSH2 0x15B1 DUP3 PUSH2 0x1459 JUMP JUMPDEST SWAP2 POP PUSH2 0x15BD DUP3 DUP6 PUSH2 0x12C1 JUMP JUMPDEST PUSH1 0x14 DUP3 ADD SWAP2 POP PUSH2 0x15CC DUP3 PUSH2 0x1508 JUMP JUMPDEST SWAP2 POP PUSH2 0x15D8 DUP3 DUP5 PUSH2 0x158F JUMP JUMPDEST PUSH1 0x20 DUP3 ADD SWAP2 POP PUSH2 0x15E7 DUP3 PUSH2 0x14E5 JUMP JUMPDEST SWAP2 POP DUP2 SWAP1 POP SWAP4 SWAP3 POP POP POP JUMP JUMPDEST PUSH1 0x0 PUSH1 0x20 DUP3 ADD SWAP1 POP PUSH2 0x1608 PUSH1 0x0 DUP4 ADD DUP5 PUSH2 0x12B2 JUMP JUMPDEST SWAP3 SWAP2 POP POP JUMP JUMPDEST PUSH1 0x0 PUSH1 0x40 DUP3 ADD SWAP1 POP PUSH2 0x1623 PUSH1 0x0 DUP4 ADD DUP6 PUSH2 0x12B2 JUMP JUMPDEST PUSH2 0x1630 PUSH1 0x20 DUP4 ADD DUP5 PUSH2 0x1580 JUMP JUMPDEST SWAP4 SWAP3 POP POP POP JUMP JUMPDEST PUSH1 0x0 PUSH1 0x40 DUP3 ADD SWAP1 POP DUP2 DUP2 SUB PUSH1 0x0 DUP4 ADD MSTORE PUSH2 0x1651 DUP2 DUP6 PUSH2 0x134D JUMP JUMPDEST SWAP1 POP DUP2 DUP2 SUB PUSH1 0x20 DUP4 ADD MSTORE PUSH2 0x1665 DUP2 DUP5 PUSH2 0x12D8 JUMP JUMPDEST SWAP1 POP SWAP4 SWAP3 POP POP POP JUMP JUMPDEST PUSH1 0x0 PUSH1 0x20 DUP3 ADD SWAP1 POP PUSH2 0x1683 PUSH1 0x0 DUP4 ADD DUP5 PUSH2 0x13BA JUMP JUMPDEST SWAP3 SWAP2 POP POP JUMP JUMPDEST PUSH1 0x0 PUSH1 0x20 DUP3 ADD SWAP1 POP PUSH2 0x169E PUSH1 0x0 DUP4 ADD DUP5 PUSH2 0x13C9 JUMP JUMPDEST SWAP3 SWAP2 POP POP JUMP JUMPDEST PUSH1 0x0 PUSH1 0x20 DUP3 ADD SWAP1 POP PUSH2 0x16B9 PUSH1 0x0 DUP4 ADD DUP5 PUSH2 0x13D8 JUMP JUMPDEST SWAP3 SWAP2 POP POP JUMP JUMPDEST PUSH1 0x0 PUSH1 0x20 DUP3 ADD SWAP1 POP DUP2 DUP2 SUB PUSH1 0x0 DUP4 ADD MSTORE PUSH2 0x16D9 DUP2 DUP5 PUSH2 0x1420 JUMP JUMPDEST SWAP1 POP SWAP3 SWAP2 POP POP JUMP JUMPDEST PUSH1 0x0 PUSH1 0x20 DUP3 ADD SWAP1 POP DUP2 DUP2 SUB PUSH1 0x0 DUP4 ADD MSTORE PUSH2 0x16FA DUP2 PUSH2 0x147C JUMP JUMPDEST SWAP1 POP SWAP2 SWAP1 POP JUMP JUMPDEST PUSH1 0x0 PUSH1 0x20 DUP3 ADD SWAP1 POP DUP2 DUP2 SUB PUSH1 0x0 DUP4 ADD MSTORE PUSH2 0x171A DUP2 PUSH2 0x149F JUMP JUMPDEST SWAP1 POP SWAP2 SWAP1 POP JUMP JUMPDEST PUSH1 0x0 PUSH1 0x20 DUP3 ADD SWAP1 POP DUP2 DUP2 SUB PUSH1 0x0 DUP4 ADD MSTORE PUSH2 0x173A DUP2 PUSH2 0x14C2 JUMP JUMPDEST SWAP1 POP SWAP2 SWAP1 POP JUMP JUMPDEST PUSH1 0x0 PUSH1 0x20 DUP3 ADD SWAP1 POP DUP2 DUP2 SUB PUSH1 0x0 DUP4 ADD MSTORE PUSH2 0x175A DUP2 PUSH2 0x152B JUMP JUMPDEST SWAP1 POP SWAP2 SWAP1 POP JUMP JUMPDEST PUSH1 0x0 PUSH1 0x20 DUP3 ADD SWAP1 POP DUP2 DUP2 SUB PUSH1 0x0 DUP4 ADD MSTORE PUSH2 0x177A DUP2 PUSH2 0x154E JUMP JUMPDEST SWAP1 POP SWAP2 SWAP1 POP JUMP JUMPDEST PUSH1 0x0 PUSH1 0x20 DUP3 ADD SWAP1 POP PUSH2 0x1796 PUSH1 0x0 DUP4 ADD DUP5 PUSH2 0x1580 JUMP JUMPDEST SWAP3 SWAP2 POP POP JUMP JUMPDEST PUSH1 0x0 PUSH1 0x60 DUP3 ADD SWAP1 POP PUSH2 0x17B1 PUSH1 0x0 DUP4 ADD DUP7 PUSH2 0x1580 JUMP JUMPDEST PUSH2 0x17BE PUSH1 0x20 DUP4 ADD DUP6 PUSH2 0x1580 JUMP JUMPDEST PUSH2 0x17CB PUSH1 0x40 DUP4 ADD DUP5 PUSH2 0x13AB JUMP JUMPDEST SWAP5 SWAP4 POP POP POP POP JUMP JUMPDEST PUSH1 0x0 PUSH2 0x17DD PUSH2 0x17EE JUMP JUMPDEST SWAP1 POP PUSH2 0x17E9 DUP3 DUP3 PUSH2 0x1B0A JUMP JUMPDEST SWAP2 SWAP1 POP JUMP JUMPDEST PUSH1 0x0 PUSH1 0x40 MLOAD SWAP1 POP SWAP1 JUMP JUMPDEST PUSH1 0x0 PUSH8 0xFFFFFFFFFFFFFFFF DUP3 GT ISZERO PUSH2 0x1813 JUMPI PUSH2 0x1812 PUSH2 0x1BC7 JUMP JUMPDEST JUMPDEST PUSH1 0x20 DUP3 MUL SWAP1 POP PUSH1 0x20 DUP2 ADD SWAP1 POP SWAP2 SWAP1 POP JUMP JUMPDEST PUSH1 0x0 PUSH8 0xFFFFFFFFFFFFFFFF DUP3 GT ISZERO PUSH2 0x183F JUMPI PUSH2 0x183E PUSH2 0x1BC7 JUMP JUMPDEST JUMPDEST PUSH1 0x20 DUP3 MUL SWAP1 POP PUSH1 0x20 DUP2 ADD SWAP1 POP SWAP2 SWAP1 POP JUMP JUMPDEST PUSH1 0x0 PUSH8 0xFFFFFFFFFFFFFFFF DUP3 GT ISZERO PUSH2 0x186B JUMPI PUSH2 0x186A PUSH2 0x1BC7 JUMP JUMPDEST JUMPDEST PUSH2 0x1874 DUP3 PUSH2 0x1BF6 JUMP JUMPDEST SWAP1 POP PUSH1 0x20 DUP2 ADD SWAP1 POP SWAP2 SWAP1 POP JUMP JUMPDEST PUSH1 0x0 DUP2 SWAP1 POP PUSH1 0x20 DUP3 ADD SWAP1 POP SWAP2 SWAP1 POP JUMP JUMPDEST PUSH1 0x0 DUP2 SWAP1 POP PUSH1 0x20 DUP3 ADD SWAP1 POP SWAP2 SWAP1 POP JUMP JUMPDEST PUSH1 0x0 DUP2 MLOAD SWAP1 POP SWAP2 SWAP1 POP JUMP JUMPDEST PUSH1 0x0 DUP2 MLOAD SWAP1 POP SWAP2 SWAP1 POP JUMP JUMPDEST PUSH1 0x0 DUP2 MLOAD SWAP1 POP SWAP2 SWAP1 POP JUMP JUMPDEST PUSH1 0x0 PUSH1 0x20 DUP3 ADD SWAP1 POP SWAP2 SWAP1 POP JUMP JUMPDEST PUSH1 0x0 PUSH1 0x20 DUP3 ADD SWAP1 POP SWAP2 SWAP1 POP JUMP JUMPDEST PUSH1 0x0 DUP3 DUP3 MSTORE PUSH1 0x20 DUP3 ADD SWAP1 POP SWAP3 SWAP2 POP POP JUMP JUMPDEST PUSH1 0x0 DUP3 DUP3 MSTORE PUSH1 0x20 DUP3 ADD SWAP1 POP SWAP3 SWAP2 POP POP JUMP JUMPDEST PUSH1 0x0 DUP3 DUP3 MSTORE PUSH1 0x20 DUP3 ADD SWAP1 POP SWAP3 SWAP2 POP POP JUMP JUMPDEST PUSH1 0x0 DUP3 DUP3 MSTORE PUSH1 0x20 DUP3 ADD SWAP1 POP SWAP3 SWAP2 POP POP JUMP JUMPDEST PUSH1 0x0 DUP2 SWAP1 POP SWAP3 SWAP2 POP POP JUMP JUMPDEST PUSH1 0x0 PUSH2 0x1936 DUP3 PUSH2 0x1A28 JUMP JUMPDEST SWAP2 POP PUSH2 0x1941 DUP4 PUSH2 0x1A28 JUMP JUMPDEST SWAP3 POP DUP3 PUSH2 0x1951 JUMPI PUSH2 0x1950 PUSH2 0x1B98 JUMP JUMPDEST JUMPDEST DUP3 DUP3 DIV SWAP1 POP SWAP3 SWAP2 POP POP JUMP JUMPDEST PUSH1 0x0 PUSH2 0x1967 DUP3 PUSH2 0x1A28 JUMP JUMPDEST SWAP2 POP PUSH2 0x1972 DUP4 PUSH2 0x1A28 JUMP JUMPDEST SWAP3 POP DUP2 PUSH32 0xFFFFFFFFFFFFFFFFFFFFFFFFFFFFFFFFFFFFFFFFFFFFFFFFFFFFFFFFFFFFFFFF DIV DUP4 GT DUP3 ISZERO ISZERO AND ISZERO PUSH2 0x19AB JUMPI PUSH2 0x19AA PUSH2 0x1B69 JUMP JUMPDEST JUMPDEST DUP3 DUP3 MUL SWAP1 POP SWAP3 SWAP2 POP POP JUMP JUMPDEST PUSH1 0x0 PUSH2 0x19C1 DUP3 PUSH2 0x1A28 JUMP JUMPDEST SWAP2 POP PUSH2 0x19CC DUP4 PUSH2 0x1A28 JUMP JUMPDEST SWAP3 POP DUP3 DUP3 LT ISZERO PUSH2 0x19DF JUMPI PUSH2 0x19DE PUSH2 0x1B69 JUMP JUMPDEST JUMPDEST DUP3 DUP3 SUB SWAP1 POP SWAP3 SWAP2 POP POP JUMP JUMPDEST PUSH1 0x0 PUSH2 0x19F5 DUP3 PUSH2 0x1A08 JUMP JUMPDEST SWAP1 POP SWAP2 SWAP1 POP JUMP JUMPDEST PUSH1 0x0 DUP2 ISZERO ISZERO SWAP1 POP SWAP2 SWAP1 POP JUMP JUMPDEST PUSH1 0x0 PUSH20 0xFFFFFFFFFFFFFFFFFFFFFFFFFFFFFFFFFFFFFFFF DUP3 AND SWAP1 POP SWAP2 SWAP1 POP JUMP JUMPDEST PUSH1 0x0 DUP2 SWAP1 POP SWAP2 SWAP1 POP JUMP JUMPDEST PUSH1 0x0 PUSH2 0x1A3D DUP3 PUSH2 0x1A44 JUMP JUMPDEST SWAP1 POP SWAP2 SWAP1 POP JUMP JUMPDEST PUSH1 0x0 PUSH2 0x1A4F DUP3 PUSH2 0x1A08 JUMP JUMPDEST SWAP1 POP SWAP2 SWAP1 POP JUMP JUMPDEST PUSH1 0x0 PUSH2 0x1A61 DUP3 PUSH2 0x1A68 JUMP JUMPDEST SWAP1 POP SWAP2 SWAP1 POP JUMP JUMPDEST PUSH1 0x0 PUSH2 0x1A73 DUP3 PUSH2 0x1A08 JUMP JUMPDEST SWAP1 POP SWAP2 SWAP1 POP JUMP JUMPDEST PUSH1 0x0 PUSH2 0x1A85 DUP3 PUSH2 0x1A8C JUMP JUMPDEST SWAP1 POP SWAP2 SWAP1 POP JUMP JUMPDEST PUSH1 0x0 PUSH2 0x1A97 DUP3 PUSH2 0x1A08 JUMP JUMPDEST SWAP1 POP SWAP2 SWAP1 POP JUMP JUMPDEST DUP3 DUP2 DUP4 CALLDATACOPY PUSH1 0x0 DUP4 DUP4 ADD MSTORE POP POP POP JUMP JUMPDEST PUSH1 0x0 JUMPDEST DUP4 DUP2 LT ISZERO PUSH2 0x1ACB JUMPI DUP1 DUP3 ADD MLOAD DUP2 DUP5 ADD MSTORE PUSH1 0x20 DUP2 ADD SWAP1 POP PUSH2 0x1AB0 JUMP JUMPDEST DUP4 DUP2 GT ISZERO PUSH2 0x1ADA JUMPI PUSH1 0x0 DUP5 DUP5 ADD MSTORE JUMPDEST POP POP POP POP JUMP JUMPDEST PUSH1 0x0 PUSH2 0x1AEB DUP3 PUSH2 0x1A28 JUMP JUMPDEST SWAP2 POP PUSH1 0x0 DUP3 EQ ISZERO PUSH2 0x1AFF JUMPI PUSH2 0x1AFE PUSH2 0x1B69 JUMP JUMPDEST JUMPDEST PUSH1 0x1 DUP3 SUB SWAP1 POP SWAP2 SWAP1 POP JUMP JUMPDEST PUSH2 0x1B13 DUP3 PUSH2 0x1BF6 JUMP JUMPDEST DUP2 ADD DUP2 DUP2 LT PUSH8 0xFFFFFFFFFFFFFFFF DUP3 GT OR ISZERO PUSH2 0x1B32 JUMPI PUSH2 0x1B31 PUSH2 0x1BC7 JUMP JUMPDEST JUMPDEST DUP1 PUSH1 0x40 MSTORE POP POP POP JUMP JUMPDEST PUSH1 0x0 PUSH2 0x1B46 DUP3 PUSH2 0x1B4D JUMP JUMPDEST SWAP1 POP SWAP2 SWAP1 POP JUMP JUMPDEST PUSH1 0x0 PUSH2 0x1B58 DUP3 PUSH2 0x1C07 JUMP JUMPDEST SWAP1 POP SWAP2 SWAP1 POP JUMP JUMPDEST PUSH1 0x0 DUP2 SWAP1 POP SWAP2 SWAP1 POP JUMP JUMPDEST PUSH32 0x4E487B7100000000000000000000000000000000000000000000000000000000 PUSH1 0x0 MSTORE PUSH1 0x11 PUSH1 0x4 MSTORE PUSH1 0x24 PUSH1 0x0 REVERT JUMPDEST PUSH32 0x4E487B7100000000000000000000000000000000000000000000000000000000 PUSH1 0x0 MSTORE PUSH1 0x12 PUSH1 0x4 MSTORE PUSH1 0x24 PUSH1 0x0 REVERT JUMPDEST PUSH32 0x4E487B7100000000000000000000000000000000000000000000000000000000 PUSH1 0x0 MSTORE PUSH1 0x41 PUSH1 0x4 MSTORE PUSH1 0x24 PUSH1 0x0 REVERT JUMPDEST PUSH1 0x0 PUSH1 0x1F NOT PUSH1 0x1F DUP4 ADD AND SWAP1 POP SWAP2 SWAP1 POP JUMP JUMPDEST PUSH1 0x0 DUP2 PUSH1 0x60 SHL SWAP1 POP SWAP2 SWAP1 POP JUMP JUMPDEST PUSH32 0x4164647265737320000000000000000000000000000000000000000000000000 PUSH1 0x0 DUP3 ADD MSTORE POP JUMP JUMPDEST PUSH32 0x43616E6E6F74206D696E7420746F207472656173757279206164647265737320 PUSH1 0x0 DUP3 ADD MSTORE PUSH32 0x756E74696C2073616C652069732066696E697368656400000000000000000000 PUSH1 0x20 DUP3 ADD MSTORE POP JUMP JUMPDEST PUSH32 0x74696D657374616D70206973206E6F742075702D746F2D646174650000000000 PUSH1 0x0 DUP3 ADD MSTORE POP JUMP JUMPDEST PUSH32 0x4F776E61626C653A206E6577206F776E657220697320746865207A65726F2061 PUSH1 0x0 DUP3 ADD MSTORE PUSH32 0x6464726573730000000000000000000000000000000000000000000000000000 PUSH1 0x20 DUP3 ADD MSTORE POP JUMP JUMPDEST PUSH32 0x2500000000000000000000000000000000000000000000000000000000000000 PUSH1 0x0 DUP3 ADD MSTORE POP JUMP JUMPDEST PUSH32 0x20646F6573206E6F742068617665206120636F75706F6E207769746820612064 PUSH1 0x0 DUP3 ADD MSTORE PUSH32 0x6973636F756E742072617465206F662000000000000000000000000000000000 PUSH1 0x20 DUP3 ADD MSTORE POP JUMP JUMPDEST PUSH32 0x737461727454696D65206973206C61746572207468616E20656E6454696D6500 PUSH1 0x0 DUP3 ADD MSTORE POP JUMP JUMPDEST PUSH32 0x4F776E61626C653A2063616C6C6572206973206E6F7420746865206F776E6572 PUSH1 0x0 DUP3 ADD MSTORE POP JUMP JUMPDEST PUSH2 0x1DD7 DUP2 PUSH2 0x19EA JUMP JUMPDEST DUP2 EQ PUSH2 0x1DE2 JUMPI PUSH1 0x0 DUP1 REVERT JUMPDEST POP JUMP JUMPDEST PUSH2 0x1DEE DUP2 PUSH2 0x19FC JUMP JUMPDEST DUP2 EQ PUSH2 0x1DF9 JUMPI PUSH1 0x0 DUP1 REVERT JUMPDEST POP JUMP JUMPDEST PUSH2 0x1E05 DUP2 PUSH2 0x1A28 JUMP JUMPDEST DUP2 EQ PUSH2 0x1E10 JUMPI PUSH1 0x0 DUP1 REVERT JUMPDEST POP JUMP INVALID LOG2 PUSH5 0x6970667358 0x22 SLT KECCAK256 0xD4 MUL 0xE3 NUMBER 0xB7 0xC7 0x1F SDIV 0x4A DELEGATECALL 0x22 0xBA CHAINID PUSH27 0x1619526585C92881746D70F73387E499082964736F6C6343000801 STOP CALLER "
				},
				"gasEstimates": {
					"creation": {
						"codeDepositCost": "1550600",
						"executionCost": "infinite",
						"totalCost": "infinite"
					},
					"external": {
						"ERC1155storageContract()": "1324",
						"buyNFT()": "infinite",
						"buyNftWithDiscount(uint256)": "infinite",
						"calculateCustomPrice(address,uint256)": "infinite",
						"getMaxSupply()": "infinite",
						"getNextUnusedToken()": "infinite",
						"lastUpdate()": "infinite",
						"mintToTreasuryAddress()": "infinite",
						"owner()": "1311",
						"preLoadURIs(uint256[],string[])": "infinite",
						"privilgedBuyerList()": "1347",
						"renounceOwnership()": "24419",
						"setStorageContractAddress(address)": "22330",
						"setendTime(uint256)": "21427",
						"setstartTime(uint256)": "21383",
						"transferOwnership(address)": "24833",
						"treasuryAddress()": "1280",
						"usdcEscrowStorageContract()": "1301"
					},
					"internal": {
						"_buyNFT(uint256)": "infinite",
						"mintNextNftToAddress(address)": "infinite",
						"updateState()": "infinite"
					}
				},
				"methodIdentifiers": {
					"ERC1155storageContract()": "8c83faeb",
					"buyNFT()": "bff29cee",
					"buyNftWithDiscount(uint256)": "4c9b73da",
					"calculateCustomPrice(address,uint256)": "ab6c0306",
					"getMaxSupply()": "4c0f38c2",
					"getNextUnusedToken()": "68fc01a2",
					"lastUpdate()": "c0463711",
					"mintToTreasuryAddress()": "91232f18",
					"owner()": "8da5cb5b",
					"preLoadURIs(uint256[],string[])": "f121da92",
					"privilgedBuyerList()": "5ce7e721",
					"renounceOwnership()": "715018a6",
					"setStorageContractAddress(address)": "51f7598c",
					"setendTime(uint256)": "b79d283f",
					"setstartTime(uint256)": "944044a1",
					"transferOwnership(address)": "f2fde38b",
					"treasuryAddress()": "c5f956af",
					"usdcEscrowStorageContract()": "c5dae48f"
				}
			},
			"storageLayout": {
				"storage": [
					{
						"astId": 7,
						"contract": "contracts/Founding Citizens NFT Sale.sol:FoundingNFTSale",
						"label": "_owner",
						"offset": 0,
						"slot": "0",
						"type": "t_address"
					},
					{
						"astId": 871,
						"contract": "contracts/Founding Citizens NFT Sale.sol:FoundingNFTSale",
						"label": "ERC1155storageContract",
						"offset": 0,
						"slot": "1",
						"type": "t_contract(IMintStorage)804"
					},
					{
						"astId": 874,
						"contract": "contracts/Founding Citizens NFT Sale.sol:FoundingNFTSale",
						"label": "privilgedBuyerList",
						"offset": 0,
						"slot": "2",
						"type": "t_contract(IPrivilegedListStorage)835"
					},
					{
						"astId": 877,
						"contract": "contracts/Founding Citizens NFT Sale.sol:FoundingNFTSale",
						"label": "usdcEscrowStorageContract",
						"offset": 0,
						"slot": "3",
						"type": "t_contract(IUsdcStorage)866"
					},
					{
						"astId": 879,
						"contract": "contracts/Founding Citizens NFT Sale.sol:FoundingNFTSale",
						"label": "treasuryAddress",
						"offset": 0,
						"slot": "4",
						"type": "t_address"
					},
					{
						"astId": 882,
						"contract": "contracts/Founding Citizens NFT Sale.sol:FoundingNFTSale",
						"label": "startTime",
						"offset": 0,
						"slot": "5",
						"type": "t_uint256"
					},
					{
						"astId": 885,
						"contract": "contracts/Founding Citizens NFT Sale.sol:FoundingNFTSale",
						"label": "endTime",
						"offset": 0,
						"slot": "6",
						"type": "t_uint256"
					},
					{
						"astId": 890,
						"contract": "contracts/Founding Citizens NFT Sale.sol:FoundingNFTSale",
						"label": "units",
						"offset": 0,
						"slot": "7",
						"type": "t_uint256"
					},
					{
						"astId": 895,
						"contract": "contracts/Founding Citizens NFT Sale.sol:FoundingNFTSale",
						"label": "startPrice",
						"offset": 0,
						"slot": "8",
						"type": "t_uint256"
					},
					{
						"astId": 898,
						"contract": "contracts/Founding Citizens NFT Sale.sol:FoundingNFTSale",
						"label": "EndPrice",
						"offset": 0,
						"slot": "9",
						"type": "t_uint256"
					},
					{
						"astId": 917,
						"contract": "contracts/Founding Citizens NFT Sale.sol:FoundingNFTSale",
						"label": "lastUpdate",
						"offset": 0,
						"slot": "10",
						"type": "t_struct(Update)908_storage"
					}
				],
				"types": {
					"t_address": {
						"encoding": "inplace",
						"label": "address",
						"numberOfBytes": "20"
					},
					"t_bool": {
						"encoding": "inplace",
						"label": "bool",
						"numberOfBytes": "1"
					},
					"t_contract(IMintStorage)804": {
						"encoding": "inplace",
						"label": "contract IMintStorage",
						"numberOfBytes": "20"
					},
					"t_contract(IPrivilegedListStorage)835": {
						"encoding": "inplace",
						"label": "contract IPrivilegedListStorage",
						"numberOfBytes": "20"
					},
					"t_contract(IUsdcStorage)866": {
						"encoding": "inplace",
						"label": "contract IUsdcStorage",
						"numberOfBytes": "20"
					},
					"t_struct(Update)908_storage": {
						"encoding": "inplace",
						"label": "struct FoundingNFTSale.Update",
						"members": [
							{
								"astId": 903,
								"contract": "contracts/Founding Citizens NFT Sale.sol:FoundingNFTSale",
								"label": "price",
								"offset": 0,
								"slot": "0",
								"type": "t_uint256"
							},
							{
								"astId": 905,
								"contract": "contracts/Founding Citizens NFT Sale.sol:FoundingNFTSale",
								"label": "time",
								"offset": 0,
								"slot": "1",
								"type": "t_uint256"
							},
							{
								"astId": 907,
								"contract": "contracts/Founding Citizens NFT Sale.sol:FoundingNFTSale",
								"label": "saleIsLive",
								"offset": 0,
								"slot": "2",
								"type": "t_bool"
							}
						],
						"numberOfBytes": "96"
					},
					"t_uint256": {
						"encoding": "inplace",
						"label": "uint256",
						"numberOfBytes": "32"
					}
				}
			},
			"userdoc": {
				"kind": "user",
				"methods": {},
				"version": 1
			}
		}
	}
}