{
	"contracts/Founding Citizens NFT Sale Privileged Buyers List Storage.sol": {
		"PrivilegedListStorage": {
			"abi": [
				{
					"anonymous": false,
					"inputs": [
						{
							"indexed": true,
							"internalType": "address",
							"name": "previousOwner",
							"type": "address"
						},
						{
							"indexed": true,
							"internalType": "address",
							"name": "newOwner",
							"type": "address"
						}
					],
					"name": "OwnershipTransferred",
					"type": "event"
				},
				{
					"inputs": [
						{
							"internalType": "address",
							"name": "address_",
							"type": "address"
						}
					],
					"name": "addAddress",
					"outputs": [],
					"stateMutability": "nonpayable",
					"type": "function"
				},
				{
					"inputs": [
						{
							"internalType": "address",
							"name": "address_",
							"type": "address"
						},
						{
							"internalType": "uint256",
							"name": "discountRate",
							"type": "uint256"
						},
						{
							"internalType": "uint256",
							"name": "numberOfUses",
							"type": "uint256"
						}
					],
					"name": "addCoupon",
					"outputs": [],
					"stateMutability": "nonpayable",
					"type": "function"
				},
				{
					"inputs": [
						{
							"internalType": "address",
							"name": "address_",
							"type": "address"
						}
					],
					"name": "addressExists",
					"outputs": [
						{
							"internalType": "bool",
							"name": "",
							"type": "bool"
						}
					],
					"stateMutability": "view",
					"type": "function"
				},
				{
					"inputs": [],
					"name": "addressList",
					"outputs": [
						{
							"internalType": "uint256",
							"name": "length",
							"type": "uint256"
						}
					],
					"stateMutability": "view",
					"type": "function"
				},
				{
					"inputs": [],
					"name": "owner",
					"outputs": [
						{
							"internalType": "address",
							"name": "",
							"type": "address"
						}
					],
					"stateMutability": "view",
					"type": "function"
				},
				{
					"inputs": [
						{
							"internalType": "address",
							"name": "address_",
							"type": "address"
						}
					],
					"name": "removeAddress",
					"outputs": [],
					"stateMutability": "nonpayable",
					"type": "function"
				},
				{
					"inputs": [],
					"name": "renounceOwnership",
					"outputs": [],
					"stateMutability": "nonpayable",
					"type": "function"
				},
				{
					"inputs": [
						{
							"internalType": "address",
							"name": "newOwner",
							"type": "address"
						}
					],
					"name": "transferOwnership",
					"outputs": [],
					"stateMutability": "nonpayable",
					"type": "function"
				}
			],
			"devdoc": {
				"kind": "dev",
				"methods": {
					"owner()": {
						"details": "Returns the address of the current owner."
					},
					"renounceOwnership()": {
						"details": "Leaves the contract without owner. It will not be possible to call `onlyOwner` functions anymore. Can only be called by the current owner. NOTE: Renouncing ownership will leave the contract without an owner, thereby removing any functionality that is only available to the owner."
					},
					"transferOwnership(address)": {
						"details": "Transfers ownership of the contract to a new account (`newOwner`). Can only be called by the current owner."
					}
				},
				"version": 1
			},
			"evm": {
				"assembly": "    /* \"contracts/Founding Citizens NFT Sale Privileged Buyers List Storage.sol\":1746:4185  contract PrivilegedListStorage is Ownable {\r... */\n  mstore(0x40, 0x80)\n  callvalue\n  dup1\n  iszero\n  tag_1\n  jumpi\n  0x00\n  dup1\n  revert\ntag_1:\n  pop\n    /* \"@openzeppelin/contracts@4.4.2/access/Ownable.sol\":921:953  _transferOwnership(_msgSender()) */\n  tag_4\n    /* \"@openzeppelin/contracts@4.4.2/access/Ownable.sol\":940:952  _msgSender() */\n  tag_5\n    /* \"@openzeppelin/contracts@4.4.2/access/Ownable.sol\":940:950  _msgSender */\n  shl(0x20, tag_6)\n    /* \"@openzeppelin/contracts@4.4.2/access/Ownable.sol\":940:952  _msgSender() */\n  0x20\n  shr\n  jump\t// in\ntag_5:\n    /* \"@openzeppelin/contracts@4.4.2/access/Ownable.sol\":921:939  _transferOwnership */\n  shl(0x20, tag_7)\n    /* \"@openzeppelin/contracts@4.4.2/access/Ownable.sol\":921:953  _transferOwnership(_msgSender()) */\n  0x20\n  shr\n  jump\t// in\ntag_4:\n    /* \"contracts/Founding Citizens NFT Sale Privileged Buyers List Storage.sol\":1746:4185  contract PrivilegedListStorage is Ownable {\r... */\n  jump(tag_8)\n    /* \"@openzeppelin/contracts@4.4.2/utils/Context.sol\":640:736  function _msgSender() internal view virtual returns (address) {... */\ntag_6:\n    /* \"@openzeppelin/contracts@4.4.2/utils/Context.sol\":693:700  address */\n  0x00\n    /* \"@openzeppelin/contracts@4.4.2/utils/Context.sol\":719:729  msg.sender */\n  caller\n    /* \"@openzeppelin/contracts@4.4.2/utils/Context.sol\":712:729  return msg.sender */\n  swap1\n  pop\n    /* \"@openzeppelin/contracts@4.4.2/utils/Context.sol\":640:736  function _msgSender() internal view virtual returns (address) {... */\n  swap1\n  jump\t// out\n    /* \"@openzeppelin/contracts@4.4.2/access/Ownable.sol\":2270:2457  function _transferOwnership(address newOwner) internal virtual {... */\ntag_7:\n    /* \"@openzeppelin/contracts@4.4.2/access/Ownable.sol\":2343:2359  address oldOwner */\n  0x00\n    /* \"@openzeppelin/contracts@4.4.2/access/Ownable.sol\":2362:2368  _owner */\n  dup1\n  0x00\n  swap1\n  sload\n  swap1\n  0x0100\n  exp\n  swap1\n  div\n  0xffffffffffffffffffffffffffffffffffffffff\n  and\n    /* \"@openzeppelin/contracts@4.4.2/access/Ownable.sol\":2343:2368  address oldOwner = _owner */\n  swap1\n  pop\n    /* \"@openzeppelin/contracts@4.4.2/access/Ownable.sol\":2387:2395  newOwner */\n  dup2\n    /* \"@openzeppelin/contracts@4.4.2/access/Ownable.sol\":2378:2384  _owner */\n  0x00\n  dup1\n    /* \"@openzeppelin/contracts@4.4.2/access/Ownable.sol\":2378:2395  _owner = newOwner */\n  0x0100\n  exp\n  dup2\n  sload\n  dup2\n  0xffffffffffffffffffffffffffffffffffffffff\n  mul\n  not\n  and\n  swap1\n  dup4\n  0xffffffffffffffffffffffffffffffffffffffff\n  and\n  mul\n  or\n  swap1\n  sstore\n  pop\n    /* \"@openzeppelin/contracts@4.4.2/access/Ownable.sol\":2441:2449  newOwner */\n  dup2\n    /* \"@openzeppelin/contracts@4.4.2/access/Ownable.sol\":2410:2450  OwnershipTransferred(oldOwner, newOwner) */\n  0xffffffffffffffffffffffffffffffffffffffff\n  and\n    /* \"@openzeppelin/contracts@4.4.2/access/Ownable.sol\":2431:2439  oldOwner */\n  dup2\n    /* \"@openzeppelin/contracts@4.4.2/access/Ownable.sol\":2410:2450  OwnershipTransferred(oldOwner, newOwner) */\n  0xffffffffffffffffffffffffffffffffffffffff\n  and\n  0x8be0079c531659141344cd1fd0a4f28419497f9722a3daafe3b4186f6b6457e0\n  mload(0x40)\n  mload(0x40)\n  dup1\n  swap2\n  sub\n  swap1\n  log3\n    /* \"@openzeppelin/contracts@4.4.2/access/Ownable.sol\":2270:2457  function _transferOwnership(address newOwner) internal virtual {... */\n  pop\n  pop\n  jump\t// out\n    /* \"contracts/Founding Citizens NFT Sale Privileged Buyers List Storage.sol\":1746:4185  contract PrivilegedListStorage is Ownable {\r... */\ntag_8:\n  dataSize(sub_0)\n  dup1\n  dataOffset(sub_0)\n  0x00\n  codecopy\n  0x00\n  return\nstop\n\nsub_0: assembly {\n        /* \"contracts/Founding Citizens NFT Sale Privileged Buyers List Storage.sol\":1746:4185  contract PrivilegedListStorage is Ownable {\r... */\n      mstore(0x40, 0x80)\n      callvalue\n      dup1\n      iszero\n      tag_1\n      jumpi\n      0x00\n      dup1\n      revert\n    tag_1:\n      pop\n      jumpi(tag_2, lt(calldatasize, 0x04))\n      shr(0xe0, calldataload(0x00))\n      dup1\n      0x8da5cb5b\n      gt\n      tag_11\n      jumpi\n      dup1\n      0x8da5cb5b\n      eq\n      tag_7\n      jumpi\n      dup1\n      0xa5025222\n      eq\n      tag_8\n      jumpi\n      dup1\n      0xc1eb6dfd\n      eq\n      tag_9\n      jumpi\n      dup1\n      0xf2fde38b\n      eq\n      tag_10\n      jumpi\n      jump(tag_2)\n    tag_11:\n      dup1\n      0x38eada1c\n      eq\n      tag_3\n      jumpi\n      dup1\n      0x3edfcd2c\n      eq\n      tag_4\n      jumpi\n      dup1\n      0x4ba79dfe\n      eq\n      tag_5\n      jumpi\n      dup1\n      0x715018a6\n      eq\n      tag_6\n      jumpi\n    tag_2:\n      0x00\n      dup1\n      revert\n        /* \"contracts/Founding Citizens NFT Sale Privileged Buyers List Storage.sol\":2541:2812  function addAddress(address address_) public onlyOwner {\r... */\n    tag_3:\n      tag_12\n      0x04\n      dup1\n      calldatasize\n      sub\n      dup2\n      add\n      swap1\n      tag_13\n      swap2\n      swap1\n      tag_14\n      jump\t// in\n    tag_13:\n      tag_15\n      jump\t// in\n    tag_12:\n      stop\n        /* \"contracts/Founding Citizens NFT Sale Privileged Buyers List Storage.sol\":3601:3711  function addCoupon(address address_, uint discountRate, uint numberOfUses) public onlyOwner {\r... */\n    tag_4:\n      tag_16\n      0x04\n      dup1\n      calldatasize\n      sub\n      dup2\n      add\n      swap1\n      tag_17\n      swap2\n      swap1\n      tag_18\n      jump\t// in\n    tag_17:\n      tag_19\n      jump\t// in\n    tag_16:\n      stop\n        /* \"contracts/Founding Citizens NFT Sale Privileged Buyers List Storage.sol\":3024:3593  function removeAddress(address address_) public onlyOwner {\r... */\n    tag_5:\n      tag_20\n      0x04\n      dup1\n      calldatasize\n      sub\n      dup2\n      add\n      swap1\n      tag_21\n      swap2\n      swap1\n      tag_14\n      jump\t// in\n    tag_21:\n      tag_22\n      jump\t// in\n    tag_20:\n      stop\n        /* \"@openzeppelin/contracts@4.4.2/access/Ownable.sol\":1668:1769  function renounceOwnership() public virtual onlyOwner {... */\n    tag_6:\n      tag_23\n      tag_24\n      jump\t// in\n    tag_23:\n      stop\n        /* \"@openzeppelin/contracts@4.4.2/access/Ownable.sol\":1036:1121  function owner() public view virtual returns (address) {... */\n    tag_7:\n      tag_25\n      tag_26\n      jump\t// in\n    tag_25:\n      mload(0x40)\n      tag_27\n      swap2\n      swap1\n      tag_28\n      jump\t// in\n    tag_27:\n      mload(0x40)\n      dup1\n      swap2\n      sub\n      swap1\n      return\n        /* \"contracts/Founding Citizens NFT Sale Privileged Buyers List Storage.sol\":2408:2533  function addressExists(address address_) public view returns(bool) {\r... */\n    tag_8:\n      tag_29\n      0x04\n      dup1\n      calldatasize\n      sub\n      dup2\n      add\n      swap1\n      tag_30\n      swap2\n      swap1\n      tag_14\n      jump\t// in\n    tag_30:\n      tag_31\n      jump\t// in\n    tag_29:\n      mload(0x40)\n      tag_32\n      swap2\n      swap1\n      tag_33\n      jump\t// in\n    tag_32:\n      mload(0x40)\n      dup1\n      swap2\n      sub\n      swap1\n      return\n        /* \"contracts/Founding Citizens NFT Sale Privileged Buyers List Storage.sol\":2369:2399  AddressList public addressList */\n    tag_9:\n      tag_34\n      tag_35\n      jump\t// in\n    tag_34:\n      mload(0x40)\n      tag_36\n      swap2\n      swap1\n      tag_37\n      jump\t// in\n    tag_36:\n      mload(0x40)\n      dup1\n      swap2\n      sub\n      swap1\n      return\n        /* \"@openzeppelin/contracts@4.4.2/access/Ownable.sol\":1918:2116  function transferOwnership(address newOwner) public virtual onlyOwner {... */\n    tag_10:\n      tag_38\n      0x04\n      dup1\n      calldatasize\n      sub\n      dup2\n      add\n      swap1\n      tag_39\n      swap2\n      swap1\n      tag_14\n      jump\t// in\n    tag_39:\n      tag_40\n      jump\t// in\n    tag_38:\n      stop\n        /* \"contracts/Founding Citizens NFT Sale Privileged Buyers List Storage.sol\":2541:2812  function addAddress(address address_) public onlyOwner {\r... */\n    tag_15:\n        /* \"@openzeppelin/contracts@4.4.2/access/Ownable.sol\":1259:1271  _msgSender() */\n      tag_42\n        /* \"@openzeppelin/contracts@4.4.2/access/Ownable.sol\":1259:1269  _msgSender */\n      tag_43\n        /* \"@openzeppelin/contracts@4.4.2/access/Ownable.sol\":1259:1271  _msgSender() */\n      jump\t// in\n    tag_42:\n        /* \"@openzeppelin/contracts@4.4.2/access/Ownable.sol\":1248:1271  owner() == _msgSender() */\n      0xffffffffffffffffffffffffffffffffffffffff\n      and\n        /* \"@openzeppelin/contracts@4.4.2/access/Ownable.sol\":1248:1255  owner() */\n      tag_44\n        /* \"@openzeppelin/contracts@4.4.2/access/Ownable.sol\":1248:1253  owner */\n      tag_26\n        /* \"@openzeppelin/contracts@4.4.2/access/Ownable.sol\":1248:1255  owner() */\n      jump\t// in\n    tag_44:\n        /* \"@openzeppelin/contracts@4.4.2/access/Ownable.sol\":1248:1271  owner() == _msgSender() */\n      0xffffffffffffffffffffffffffffffffffffffff\n      and\n      eq\n        /* \"@openzeppelin/contracts@4.4.2/access/Ownable.sol\":1240:1308  require(owner() == _msgSender(), \"Ownable: caller is not the owner\") */\n      tag_45\n      jumpi\n      mload(0x40)\n      0x08c379a000000000000000000000000000000000000000000000000000000000\n      dup2\n      mstore\n      0x04\n      add\n      tag_46\n      swap1\n      tag_47\n      jump\t// in\n    tag_46:\n      mload(0x40)\n      dup1\n      swap2\n      sub\n      swap1\n      revert\n    tag_45:\n        /* \"contracts/Founding Citizens NFT Sale Privileged Buyers List Storage.sol\":2653:2661  address_ */\n      dup1\n        /* \"contracts/Founding Citizens NFT Sale Privileged Buyers List Storage.sol\":2607:2618  addressList */\n      0x01\n        /* \"contracts/Founding Citizens NFT Sale Privileged Buyers List Storage.sol\":2607:2628  addressList.addresses */\n      dup1\n      add\n        /* \"contracts/Founding Citizens NFT Sale Privileged Buyers List Storage.sol\":2607:2650  addressList.addresses[addressList.length+1] */\n      0x00\n        /* \"contracts/Founding Citizens NFT Sale Privileged Buyers List Storage.sol\":2648:2649  1 */\n      0x01\n        /* \"contracts/Founding Citizens NFT Sale Privileged Buyers List Storage.sol\":2629:2640  addressList */\n      dup1\n        /* \"contracts/Founding Citizens NFT Sale Privileged Buyers List Storage.sol\":2629:2647  addressList.length */\n      0x00\n      add\n      sload\n        /* \"contracts/Founding Citizens NFT Sale Privileged Buyers List Storage.sol\":2629:2649  addressList.length+1 */\n      tag_49\n      swap2\n      swap1\n      tag_50\n      jump\t// in\n    tag_49:\n        /* \"contracts/Founding Citizens NFT Sale Privileged Buyers List Storage.sol\":2607:2650  addressList.addresses[addressList.length+1] */\n      dup2\n      mstore\n      0x20\n      add\n      swap1\n      dup2\n      mstore\n      0x20\n      add\n      0x00\n      keccak256\n      0x00\n        /* \"contracts/Founding Citizens NFT Sale Privileged Buyers List Storage.sol\":2607:2661  addressList.addresses[addressList.length+1] = address_ */\n      0x0100\n      exp\n      dup2\n      sload\n      dup2\n      0xffffffffffffffffffffffffffffffffffffffff\n      mul\n      not\n      and\n      swap1\n      dup4\n      0xffffffffffffffffffffffffffffffffffffffff\n      and\n      mul\n      or\n      swap1\n      sstore\n      pop\n        /* \"contracts/Founding Citizens NFT Sale Privileged Buyers List Storage.sol\":2772:2773  1 */\n      0x01\n        /* \"contracts/Founding Citizens NFT Sale Privileged Buyers List Storage.sol\":2753:2764  addressList */\n      dup1\n        /* \"contracts/Founding Citizens NFT Sale Privileged Buyers List Storage.sol\":2753:2771  addressList.length */\n      0x00\n      add\n      sload\n        /* \"contracts/Founding Citizens NFT Sale Privileged Buyers List Storage.sol\":2753:2773  addressList.length+1 */\n      tag_51\n      swap2\n      swap1\n      tag_50\n      jump\t// in\n    tag_51:\n        /* \"contracts/Founding Citizens NFT Sale Privileged Buyers List Storage.sol\":2725:2736  addressList */\n      0x01\n        /* \"contracts/Founding Citizens NFT Sale Privileged Buyers List Storage.sol\":2725:2740  addressList.ids */\n      0x02\n      add\n        /* \"contracts/Founding Citizens NFT Sale Privileged Buyers List Storage.sol\":2725:2750  addressList.ids[address_] */\n      0x00\n        /* \"contracts/Founding Citizens NFT Sale Privileged Buyers List Storage.sol\":2741:2749  address_ */\n      dup4\n        /* \"contracts/Founding Citizens NFT Sale Privileged Buyers List Storage.sol\":2725:2750  addressList.ids[address_] */\n      0xffffffffffffffffffffffffffffffffffffffff\n      and\n      0xffffffffffffffffffffffffffffffffffffffff\n      and\n      dup2\n      mstore\n      0x20\n      add\n      swap1\n      dup2\n      mstore\n      0x20\n      add\n      0x00\n      keccak256\n        /* \"contracts/Founding Citizens NFT Sale Privileged Buyers List Storage.sol\":2725:2773  addressList.ids[address_] = addressList.length+1 */\n      dup2\n      swap1\n      sstore\n      pop\n        /* \"contracts/Founding Citizens NFT Sale Privileged Buyers List Storage.sol\":2784:2795  addressList */\n      0x01\n        /* \"contracts/Founding Citizens NFT Sale Privileged Buyers List Storage.sol\":2784:2802  addressList.length */\n      0x00\n      add\n      0x00\n        /* \"contracts/Founding Citizens NFT Sale Privileged Buyers List Storage.sol\":2784:2804  addressList.length++ */\n      dup2\n      sload\n      dup1\n      swap3\n      swap2\n      swap1\n      tag_52\n      swap1\n      tag_53\n      jump\t// in\n    tag_52:\n      swap2\n      swap1\n      pop\n      sstore\n      pop\n        /* \"contracts/Founding Citizens NFT Sale Privileged Buyers List Storage.sol\":2541:2812  function addAddress(address address_) public onlyOwner {\r... */\n      pop\n      jump\t// out\n        /* \"contracts/Founding Citizens NFT Sale Privileged Buyers List Storage.sol\":3601:3711  function addCoupon(address address_, uint discountRate, uint numberOfUses) public onlyOwner {\r... */\n    tag_19:\n        /* \"@openzeppelin/contracts@4.4.2/access/Ownable.sol\":1259:1271  _msgSender() */\n      tag_55\n        /* \"@openzeppelin/contracts@4.4.2/access/Ownable.sol\":1259:1269  _msgSender */\n      tag_43\n        /* \"@openzeppelin/contracts@4.4.2/access/Ownable.sol\":1259:1271  _msgSender() */\n      jump\t// in\n    tag_55:\n        /* \"@openzeppelin/contracts@4.4.2/access/Ownable.sol\":1248:1271  owner() == _msgSender() */\n      0xffffffffffffffffffffffffffffffffffffffff\n      and\n        /* \"@openzeppelin/contracts@4.4.2/access/Ownable.sol\":1248:1255  owner() */\n      tag_56\n        /* \"@openzeppelin/contracts@4.4.2/access/Ownable.sol\":1248:1253  owner */\n      tag_26\n        /* \"@openzeppelin/contracts@4.4.2/access/Ownable.sol\":1248:1255  owner() */\n      jump\t// in\n    tag_56:\n        /* \"@openzeppelin/contracts@4.4.2/access/Ownable.sol\":1248:1271  owner() == _msgSender() */\n      0xffffffffffffffffffffffffffffffffffffffff\n      and\n      eq\n        /* \"@openzeppelin/contracts@4.4.2/access/Ownable.sol\":1240:1308  require(owner() == _msgSender(), \"Ownable: caller is not the owner\") */\n      tag_57\n      jumpi\n      mload(0x40)\n      0x08c379a000000000000000000000000000000000000000000000000000000000\n      dup2\n      mstore\n      0x04\n      add\n      tag_58\n      swap1\n      tag_47\n      jump\t// in\n    tag_58:\n      mload(0x40)\n      dup1\n      swap2\n      sub\n      swap1\n      revert\n    tag_57:\n        /* \"contracts/Founding Citizens NFT Sale Privileged Buyers List Storage.sol\":3601:3711  function addCoupon(address address_, uint discountRate, uint numberOfUses) public onlyOwner {\r... */\n      pop\n      pop\n      pop\n      jump\t// out\n        /* \"contracts/Founding Citizens NFT Sale Privileged Buyers List Storage.sol\":3024:3593  function removeAddress(address address_) public onlyOwner {\r... */\n    tag_22:\n        /* \"@openzeppelin/contracts@4.4.2/access/Ownable.sol\":1259:1271  _msgSender() */\n      tag_61\n        /* \"@openzeppelin/contracts@4.4.2/access/Ownable.sol\":1259:1269  _msgSender */\n      tag_43\n        /* \"@openzeppelin/contracts@4.4.2/access/Ownable.sol\":1259:1271  _msgSender() */\n      jump\t// in\n    tag_61:\n        /* \"@openzeppelin/contracts@4.4.2/access/Ownable.sol\":1248:1271  owner() == _msgSender() */\n      0xffffffffffffffffffffffffffffffffffffffff\n      and\n        /* \"@openzeppelin/contracts@4.4.2/access/Ownable.sol\":1248:1255  owner() */\n      tag_62\n        /* \"@openzeppelin/contracts@4.4.2/access/Ownable.sol\":1248:1253  owner */\n      tag_26\n        /* \"@openzeppelin/contracts@4.4.2/access/Ownable.sol\":1248:1255  owner() */\n      jump\t// in\n    tag_62:\n        /* \"@openzeppelin/contracts@4.4.2/access/Ownable.sol\":1248:1271  owner() == _msgSender() */\n      0xffffffffffffffffffffffffffffffffffffffff\n      and\n      eq\n        /* \"@openzeppelin/contracts@4.4.2/access/Ownable.sol\":1240:1308  require(owner() == _msgSender(), \"Ownable: caller is not the owner\") */\n      tag_63\n      jumpi\n      mload(0x40)\n      0x08c379a000000000000000000000000000000000000000000000000000000000\n      dup2\n      mstore\n      0x04\n      add\n      tag_64\n      swap1\n      tag_47\n      jump\t// in\n    tag_64:\n      mload(0x40)\n      dup1\n      swap2\n      sub\n      swap1\n      revert\n    tag_63:\n        /* \"contracts/Founding Citizens NFT Sale Privileged Buyers List Storage.sol\":3103:3118  uint _toRemove1 */\n      0x00\n        /* \"contracts/Founding Citizens NFT Sale Privileged Buyers List Storage.sol\":3121:3132  addressList */\n      0x01\n        /* \"contracts/Founding Citizens NFT Sale Privileged Buyers List Storage.sol\":3121:3136  addressList.ids */\n      0x02\n      add\n        /* \"contracts/Founding Citizens NFT Sale Privileged Buyers List Storage.sol\":3121:3146  addressList.ids[address_] */\n      0x00\n        /* \"contracts/Founding Citizens NFT Sale Privileged Buyers List Storage.sol\":3137:3145  address_ */\n      dup4\n        /* \"contracts/Founding Citizens NFT Sale Privileged Buyers List Storage.sol\":3121:3146  addressList.ids[address_] */\n      0xffffffffffffffffffffffffffffffffffffffff\n      and\n      0xffffffffffffffffffffffffffffffffffffffff\n      and\n      dup2\n      mstore\n      0x20\n      add\n      swap1\n      dup2\n      mstore\n      0x20\n      add\n      0x00\n      keccak256\n      sload\n        /* \"contracts/Founding Citizens NFT Sale Privileged Buyers List Storage.sol\":3103:3146  uint _toRemove1 = addressList.ids[address_] */\n      swap1\n      pop\n        /* \"contracts/Founding Citizens NFT Sale Privileged Buyers List Storage.sol\":3157:3175  address _toRemove2 */\n      0x00\n        /* \"contracts/Founding Citizens NFT Sale Privileged Buyers List Storage.sol\":3178:3186  address_ */\n      dup3\n        /* \"contracts/Founding Citizens NFT Sale Privileged Buyers List Storage.sol\":3157:3186  address _toRemove2 = address_ */\n      swap1\n      pop\n        /* \"contracts/Founding Citizens NFT Sale Privileged Buyers List Storage.sol\":3199:3212  uint _toMove1 */\n      0x00\n        /* \"contracts/Founding Citizens NFT Sale Privileged Buyers List Storage.sol\":3215:3226  addressList */\n      0x01\n        /* \"contracts/Founding Citizens NFT Sale Privileged Buyers List Storage.sol\":3215:3233  addressList.length */\n      0x00\n      add\n      sload\n        /* \"contracts/Founding Citizens NFT Sale Privileged Buyers List Storage.sol\":3199:3233  uint _toMove1 = addressList.length */\n      swap1\n      pop\n        /* \"contracts/Founding Citizens NFT Sale Privileged Buyers List Storage.sol\":3244:3260  address _toMove2 */\n      0x00\n        /* \"contracts/Founding Citizens NFT Sale Privileged Buyers List Storage.sol\":3263:3274  addressList */\n      0x01\n        /* \"contracts/Founding Citizens NFT Sale Privileged Buyers List Storage.sol\":3263:3284  addressList.addresses */\n      dup1\n      add\n        /* \"contracts/Founding Citizens NFT Sale Privileged Buyers List Storage.sol\":3263:3304  addressList.addresses[addressList.length] */\n      0x00\n        /* \"contracts/Founding Citizens NFT Sale Privileged Buyers List Storage.sol\":3285:3296  addressList */\n      0x01\n        /* \"contracts/Founding Citizens NFT Sale Privileged Buyers List Storage.sol\":3285:3303  addressList.length */\n      0x00\n      add\n      sload\n        /* \"contracts/Founding Citizens NFT Sale Privileged Buyers List Storage.sol\":3263:3304  addressList.addresses[addressList.length] */\n      dup2\n      mstore\n      0x20\n      add\n      swap1\n      dup2\n      mstore\n      0x20\n      add\n      0x00\n      keccak256\n      0x00\n      swap1\n      sload\n      swap1\n      0x0100\n      exp\n      swap1\n      div\n      0xffffffffffffffffffffffffffffffffffffffff\n      and\n        /* \"contracts/Founding Citizens NFT Sale Privileged Buyers List Storage.sol\":3244:3304  address _toMove2 = addressList.addresses[addressList.length] */\n      swap1\n      pop\n        /* \"contracts/Founding Citizens NFT Sale Privileged Buyers List Storage.sol\":3353:3364  addressList */\n      0x01\n        /* \"contracts/Founding Citizens NFT Sale Privileged Buyers List Storage.sol\":3353:3374  addressList.addresses */\n      dup1\n      add\n        /* \"contracts/Founding Citizens NFT Sale Privileged Buyers List Storage.sol\":3353:3384  addressList.addresses[_toMove1] */\n      0x00\n        /* \"contracts/Founding Citizens NFT Sale Privileged Buyers List Storage.sol\":3375:3383  _toMove1 */\n      dup4\n        /* \"contracts/Founding Citizens NFT Sale Privileged Buyers List Storage.sol\":3353:3384  addressList.addresses[_toMove1] */\n      dup2\n      mstore\n      0x20\n      add\n      swap1\n      dup2\n      mstore\n      0x20\n      add\n      0x00\n      keccak256\n      0x00\n      swap1\n      sload\n      swap1\n      0x0100\n      exp\n      swap1\n      div\n      0xffffffffffffffffffffffffffffffffffffffff\n      and\n        /* \"contracts/Founding Citizens NFT Sale Privileged Buyers List Storage.sol\":3317:3328  addressList */\n      0x01\n        /* \"contracts/Founding Citizens NFT Sale Privileged Buyers List Storage.sol\":3317:3338  addressList.addresses */\n      dup1\n      add\n        /* \"contracts/Founding Citizens NFT Sale Privileged Buyers List Storage.sol\":3317:3350  addressList.addresses[_toRemove1] */\n      0x00\n        /* \"contracts/Founding Citizens NFT Sale Privileged Buyers List Storage.sol\":3339:3349  _toRemove1 */\n      dup7\n        /* \"contracts/Founding Citizens NFT Sale Privileged Buyers List Storage.sol\":3317:3350  addressList.addresses[_toRemove1] */\n      dup2\n      mstore\n      0x20\n      add\n      swap1\n      dup2\n      mstore\n      0x20\n      add\n      0x00\n      keccak256\n      0x00\n        /* \"contracts/Founding Citizens NFT Sale Privileged Buyers List Storage.sol\":3317:3384  addressList.addresses[_toRemove1] = addressList.addresses[_toMove1] */\n      0x0100\n      exp\n      dup2\n      sload\n      dup2\n      0xffffffffffffffffffffffffffffffffffffffff\n      mul\n      not\n      and\n      swap1\n      dup4\n      0xffffffffffffffffffffffffffffffffffffffff\n      and\n      mul\n      or\n      swap1\n      sstore\n      pop\n        /* \"contracts/Founding Citizens NFT Sale Privileged Buyers List Storage.sol\":3402:3413  addressList */\n      0x01\n        /* \"contracts/Founding Citizens NFT Sale Privileged Buyers List Storage.sol\":3402:3423  addressList.addresses */\n      dup1\n      add\n        /* \"contracts/Founding Citizens NFT Sale Privileged Buyers List Storage.sol\":3402:3433  addressList.addresses[_toMove1] */\n      0x00\n        /* \"contracts/Founding Citizens NFT Sale Privileged Buyers List Storage.sol\":3424:3432  _toMove1 */\n      dup4\n        /* \"contracts/Founding Citizens NFT Sale Privileged Buyers List Storage.sol\":3402:3433  addressList.addresses[_toMove1] */\n      dup2\n      mstore\n      0x20\n      add\n      swap1\n      dup2\n      mstore\n      0x20\n      add\n      0x00\n      keccak256\n      0x00\n        /* \"contracts/Founding Citizens NFT Sale Privileged Buyers List Storage.sol\":3395:3433  delete addressList.addresses[_toMove1] */\n      0x0100\n      exp\n      dup2\n      sload\n      swap1\n      0xffffffffffffffffffffffffffffffffffffffff\n      mul\n      not\n      and\n      swap1\n      sstore\n        /* \"contracts/Founding Citizens NFT Sale Privileged Buyers List Storage.sol\":3476:3487  addressList */\n      0x01\n        /* \"contracts/Founding Citizens NFT Sale Privileged Buyers List Storage.sol\":3476:3491  addressList.ids */\n      0x02\n      add\n        /* \"contracts/Founding Citizens NFT Sale Privileged Buyers List Storage.sol\":3476:3501  addressList.ids[_toMove2] */\n      0x00\n        /* \"contracts/Founding Citizens NFT Sale Privileged Buyers List Storage.sol\":3492:3500  _toMove2 */\n      dup3\n        /* \"contracts/Founding Citizens NFT Sale Privileged Buyers List Storage.sol\":3476:3501  addressList.ids[_toMove2] */\n      0xffffffffffffffffffffffffffffffffffffffff\n      and\n      0xffffffffffffffffffffffffffffffffffffffff\n      and\n      dup2\n      mstore\n      0x20\n      add\n      swap1\n      dup2\n      mstore\n      0x20\n      add\n      0x00\n      keccak256\n      sload\n        /* \"contracts/Founding Citizens NFT Sale Privileged Buyers List Storage.sol\":3446:3457  addressList */\n      0x01\n        /* \"contracts/Founding Citizens NFT Sale Privileged Buyers List Storage.sol\":3446:3461  addressList.ids */\n      0x02\n      add\n        /* \"contracts/Founding Citizens NFT Sale Privileged Buyers List Storage.sol\":3446:3473  addressList.ids[_toRemove2] */\n      0x00\n        /* \"contracts/Founding Citizens NFT Sale Privileged Buyers List Storage.sol\":3462:3472  _toRemove2 */\n      dup6\n        /* \"contracts/Founding Citizens NFT Sale Privileged Buyers List Storage.sol\":3446:3473  addressList.ids[_toRemove2] */\n      0xffffffffffffffffffffffffffffffffffffffff\n      and\n      0xffffffffffffffffffffffffffffffffffffffff\n      and\n      dup2\n      mstore\n      0x20\n      add\n      swap1\n      dup2\n      mstore\n      0x20\n      add\n      0x00\n      keccak256\n        /* \"contracts/Founding Citizens NFT Sale Privileged Buyers List Storage.sol\":3446:3501  addressList.ids[_toRemove2] = addressList.ids[_toMove2] */\n      dup2\n      swap1\n      sstore\n      pop\n        /* \"contracts/Founding Citizens NFT Sale Privileged Buyers List Storage.sol\":3519:3530  addressList */\n      0x01\n        /* \"contracts/Founding Citizens NFT Sale Privileged Buyers List Storage.sol\":3519:3534  addressList.ids */\n      0x02\n      add\n        /* \"contracts/Founding Citizens NFT Sale Privileged Buyers List Storage.sol\":3519:3544  addressList.ids[_toMove2] */\n      0x00\n        /* \"contracts/Founding Citizens NFT Sale Privileged Buyers List Storage.sol\":3535:3543  _toMove2 */\n      dup3\n        /* \"contracts/Founding Citizens NFT Sale Privileged Buyers List Storage.sol\":3519:3544  addressList.ids[_toMove2] */\n      0xffffffffffffffffffffffffffffffffffffffff\n      and\n      0xffffffffffffffffffffffffffffffffffffffff\n      and\n      dup2\n      mstore\n      0x20\n      add\n      swap1\n      dup2\n      mstore\n      0x20\n      add\n      0x00\n      keccak256\n        /* \"contracts/Founding Citizens NFT Sale Privileged Buyers List Storage.sol\":3512:3544  delete addressList.ids[_toMove2] */\n      0x00\n      swap1\n      sstore\n        /* \"contracts/Founding Citizens NFT Sale Privileged Buyers List Storage.sol\":3565:3576  addressList */\n      0x01\n        /* \"contracts/Founding Citizens NFT Sale Privileged Buyers List Storage.sol\":3565:3583  addressList.length */\n      0x00\n      add\n      0x00\n        /* \"contracts/Founding Citizens NFT Sale Privileged Buyers List Storage.sol\":3565:3585  addressList.length-- */\n      dup2\n      sload\n      dup1\n      swap3\n      swap2\n      swap1\n      tag_66\n      swap1\n      tag_67\n      jump\t// in\n    tag_66:\n      swap2\n      swap1\n      pop\n      sstore\n      pop\n        /* \"@openzeppelin/contracts@4.4.2/access/Ownable.sol\":1318:1319  _ */\n      pop\n      pop\n      pop\n      pop\n        /* \"contracts/Founding Citizens NFT Sale Privileged Buyers List Storage.sol\":3024:3593  function removeAddress(address address_) public onlyOwner {\r... */\n      pop\n      jump\t// out\n        /* \"@openzeppelin/contracts@4.4.2/access/Ownable.sol\":1668:1769  function renounceOwnership() public virtual onlyOwner {... */\n    tag_24:\n        /* \"@openzeppelin/contracts@4.4.2/access/Ownable.sol\":1259:1271  _msgSender() */\n      tag_69\n        /* \"@openzeppelin/contracts@4.4.2/access/Ownable.sol\":1259:1269  _msgSender */\n      tag_43\n        /* \"@openzeppelin/contracts@4.4.2/access/Ownable.sol\":1259:1271  _msgSender() */\n      jump\t// in\n    tag_69:\n        /* \"@openzeppelin/contracts@4.4.2/access/Ownable.sol\":1248:1271  owner() == _msgSender() */\n      0xffffffffffffffffffffffffffffffffffffffff\n      and\n        /* \"@openzeppelin/contracts@4.4.2/access/Ownable.sol\":1248:1255  owner() */\n      tag_70\n        /* \"@openzeppelin/contracts@4.4.2/access/Ownable.sol\":1248:1253  owner */\n      tag_26\n        /* \"@openzeppelin/contracts@4.4.2/access/Ownable.sol\":1248:1255  owner() */\n      jump\t// in\n    tag_70:\n        /* \"@openzeppelin/contracts@4.4.2/access/Ownable.sol\":1248:1271  owner() == _msgSender() */\n      0xffffffffffffffffffffffffffffffffffffffff\n      and\n      eq\n        /* \"@openzeppelin/contracts@4.4.2/access/Ownable.sol\":1240:1308  require(owner() == _msgSender(), \"Ownable: caller is not the owner\") */\n      tag_71\n      jumpi\n      mload(0x40)\n      0x08c379a000000000000000000000000000000000000000000000000000000000\n      dup2\n      mstore\n      0x04\n      add\n      tag_72\n      swap1\n      tag_47\n      jump\t// in\n    tag_72:\n      mload(0x40)\n      dup1\n      swap2\n      sub\n      swap1\n      revert\n    tag_71:\n        /* \"@openzeppelin/contracts@4.4.2/access/Ownable.sol\":1732:1762  _transferOwnership(address(0)) */\n      tag_74\n        /* \"@openzeppelin/contracts@4.4.2/access/Ownable.sol\":1759:1760  0 */\n      0x00\n        /* \"@openzeppelin/contracts@4.4.2/access/Ownable.sol\":1732:1750  _transferOwnership */\n      tag_75\n        /* \"@openzeppelin/contracts@4.4.2/access/Ownable.sol\":1732:1762  _transferOwnership(address(0)) */\n      jump\t// in\n    tag_74:\n        /* \"@openzeppelin/contracts@4.4.2/access/Ownable.sol\":1668:1769  function renounceOwnership() public virtual onlyOwner {... */\n      jump\t// out\n        /* \"@openzeppelin/contracts@4.4.2/access/Ownable.sol\":1036:1121  function owner() public view virtual returns (address) {... */\n    tag_26:\n        /* \"@openzeppelin/contracts@4.4.2/access/Ownable.sol\":1082:1089  address */\n      0x00\n        /* \"@openzeppelin/contracts@4.4.2/access/Ownable.sol\":1108:1114  _owner */\n      dup1\n      0x00\n      swap1\n      sload\n      swap1\n      0x0100\n      exp\n      swap1\n      div\n      0xffffffffffffffffffffffffffffffffffffffff\n      and\n        /* \"@openzeppelin/contracts@4.4.2/access/Ownable.sol\":1101:1114  return _owner */\n      swap1\n      pop\n        /* \"@openzeppelin/contracts@4.4.2/access/Ownable.sol\":1036:1121  function owner() public view virtual returns (address) {... */\n      swap1\n      jump\t// out\n        /* \"contracts/Founding Citizens NFT Sale Privileged Buyers List Storage.sol\":2408:2533  function addressExists(address address_) public view returns(bool) {\r... */\n    tag_31:\n        /* \"contracts/Founding Citizens NFT Sale Privileged Buyers List Storage.sol\":2469:2473  bool */\n      0x00\n        /* \"contracts/Founding Citizens NFT Sale Privileged Buyers List Storage.sol\":2523:2524  0 */\n      dup1\n        /* \"contracts/Founding Citizens NFT Sale Privileged Buyers List Storage.sol\":2494:2505  addressList */\n      0x01\n        /* \"contracts/Founding Citizens NFT Sale Privileged Buyers List Storage.sol\":2494:2509  addressList.ids */\n      0x02\n      add\n        /* \"contracts/Founding Citizens NFT Sale Privileged Buyers List Storage.sol\":2494:2519  addressList.ids[address_] */\n      0x00\n        /* \"contracts/Founding Citizens NFT Sale Privileged Buyers List Storage.sol\":2510:2518  address_ */\n      dup5\n        /* \"contracts/Founding Citizens NFT Sale Privileged Buyers List Storage.sol\":2494:2519  addressList.ids[address_] */\n      0xffffffffffffffffffffffffffffffffffffffff\n      and\n      0xffffffffffffffffffffffffffffffffffffffff\n      and\n      dup2\n      mstore\n      0x20\n      add\n      swap1\n      dup2\n      mstore\n      0x20\n      add\n      0x00\n      keccak256\n      sload\n        /* \"contracts/Founding Citizens NFT Sale Privileged Buyers List Storage.sol\":2494:2524  addressList.ids[address_] == 0 */\n      eq\n        /* \"contracts/Founding Citizens NFT Sale Privileged Buyers List Storage.sol\":2486:2525  return (addressList.ids[address_] == 0) */\n      swap1\n      pop\n        /* \"contracts/Founding Citizens NFT Sale Privileged Buyers List Storage.sol\":2408:2533  function addressExists(address address_) public view returns(bool) {\r... */\n      swap2\n      swap1\n      pop\n      jump\t// out\n        /* \"contracts/Founding Citizens NFT Sale Privileged Buyers List Storage.sol\":2369:2399  AddressList public addressList */\n    tag_35:\n      0x01\n      dup1\n      0x00\n      add\n      sload\n      swap1\n      pop\n      dup2\n      jump\t// out\n        /* \"@openzeppelin/contracts@4.4.2/access/Ownable.sol\":1918:2116  function transferOwnership(address newOwner) public virtual onlyOwner {... */\n    tag_40:\n        /* \"@openzeppelin/contracts@4.4.2/access/Ownable.sol\":1259:1271  _msgSender() */\n      tag_79\n        /* \"@openzeppelin/contracts@4.4.2/access/Ownable.sol\":1259:1269  _msgSender */\n      tag_43\n        /* \"@openzeppelin/contracts@4.4.2/access/Ownable.sol\":1259:1271  _msgSender() */\n      jump\t// in\n    tag_79:\n        /* \"@openzeppelin/contracts@4.4.2/access/Ownable.sol\":1248:1271  owner() == _msgSender() */\n      0xffffffffffffffffffffffffffffffffffffffff\n      and\n        /* \"@openzeppelin/contracts@4.4.2/access/Ownable.sol\":1248:1255  owner() */\n      tag_80\n        /* \"@openzeppelin/contracts@4.4.2/access/Ownable.sol\":1248:1253  owner */\n      tag_26\n        /* \"@openzeppelin/contracts@4.4.2/access/Ownable.sol\":1248:1255  owner() */\n      jump\t// in\n    tag_80:\n        /* \"@openzeppelin/contracts@4.4.2/access/Ownable.sol\":1248:1271  owner() == _msgSender() */\n      0xffffffffffffffffffffffffffffffffffffffff\n      and\n      eq\n        /* \"@openzeppelin/contracts@4.4.2/access/Ownable.sol\":1240:1308  require(owner() == _msgSender(), \"Ownable: caller is not the owner\") */\n      tag_81\n      jumpi\n      mload(0x40)\n      0x08c379a000000000000000000000000000000000000000000000000000000000\n      dup2\n      mstore\n      0x04\n      add\n      tag_82\n      swap1\n      tag_47\n      jump\t// in\n    tag_82:\n      mload(0x40)\n      dup1\n      swap2\n      sub\n      swap1\n      revert\n    tag_81:\n        /* \"@openzeppelin/contracts@4.4.2/access/Ownable.sol\":2026:2027  0 */\n      0x00\n        /* \"@openzeppelin/contracts@4.4.2/access/Ownable.sol\":2006:2028  newOwner != address(0) */\n      0xffffffffffffffffffffffffffffffffffffffff\n      and\n        /* \"@openzeppelin/contracts@4.4.2/access/Ownable.sol\":2006:2014  newOwner */\n      dup2\n        /* \"@openzeppelin/contracts@4.4.2/access/Ownable.sol\":2006:2028  newOwner != address(0) */\n      0xffffffffffffffffffffffffffffffffffffffff\n      and\n      eq\n      iszero\n        /* \"@openzeppelin/contracts@4.4.2/access/Ownable.sol\":1998:2071  require(newOwner != address(0), \"Ownable: new owner is the zero address\") */\n      tag_84\n      jumpi\n      mload(0x40)\n      0x08c379a000000000000000000000000000000000000000000000000000000000\n      dup2\n      mstore\n      0x04\n      add\n      tag_85\n      swap1\n      tag_86\n      jump\t// in\n    tag_85:\n      mload(0x40)\n      dup1\n      swap2\n      sub\n      swap1\n      revert\n    tag_84:\n        /* \"@openzeppelin/contracts@4.4.2/access/Ownable.sol\":2081:2109  _transferOwnership(newOwner) */\n      tag_87\n        /* \"@openzeppelin/contracts@4.4.2/access/Ownable.sol\":2100:2108  newOwner */\n      dup2\n        /* \"@openzeppelin/contracts@4.4.2/access/Ownable.sol\":2081:2099  _transferOwnership */\n      tag_75\n        /* \"@openzeppelin/contracts@4.4.2/access/Ownable.sol\":2081:2109  _transferOwnership(newOwner) */\n      jump\t// in\n    tag_87:\n        /* \"@openzeppelin/contracts@4.4.2/access/Ownable.sol\":1918:2116  function transferOwnership(address newOwner) public virtual onlyOwner {... */\n      pop\n      jump\t// out\n        /* \"@openzeppelin/contracts@4.4.2/utils/Context.sol\":640:736  function _msgSender() internal view virtual returns (address) {... */\n    tag_43:\n        /* \"@openzeppelin/contracts@4.4.2/utils/Context.sol\":693:700  address */\n      0x00\n        /* \"@openzeppelin/contracts@4.4.2/utils/Context.sol\":719:729  msg.sender */\n      caller\n        /* \"@openzeppelin/contracts@4.4.2/utils/Context.sol\":712:729  return msg.sender */\n      swap1\n      pop\n        /* \"@openzeppelin/contracts@4.4.2/utils/Context.sol\":640:736  function _msgSender() internal view virtual returns (address) {... */\n      swap1\n      jump\t// out\n        /* \"@openzeppelin/contracts@4.4.2/access/Ownable.sol\":2270:2457  function _transferOwnership(address newOwner) internal virtual {... */\n    tag_75:\n        /* \"@openzeppelin/contracts@4.4.2/access/Ownable.sol\":2343:2359  address oldOwner */\n      0x00\n        /* \"@openzeppelin/contracts@4.4.2/access/Ownable.sol\":2362:2368  _owner */\n      dup1\n      0x00\n      swap1\n      sload\n      swap1\n      0x0100\n      exp\n      swap1\n      div\n      0xffffffffffffffffffffffffffffffffffffffff\n      and\n        /* \"@openzeppelin/contracts@4.4.2/access/Ownable.sol\":2343:2368  address oldOwner = _owner */\n      swap1\n      pop\n        /* \"@openzeppelin/contracts@4.4.2/access/Ownable.sol\":2387:2395  newOwner */\n      dup2\n        /* \"@openzeppelin/contracts@4.4.2/access/Ownable.sol\":2378:2384  _owner */\n      0x00\n      dup1\n        /* \"@openzeppelin/contracts@4.4.2/access/Ownable.sol\":2378:2395  _owner = newOwner */\n      0x0100\n      exp\n      dup2\n      sload\n      dup2\n      0xffffffffffffffffffffffffffffffffffffffff\n      mul\n      not\n      and\n      swap1\n      dup4\n      0xffffffffffffffffffffffffffffffffffffffff\n      and\n      mul\n      or\n      swap1\n      sstore\n      pop\n        /* \"@openzeppelin/contracts@4.4.2/access/Ownable.sol\":2441:2449  newOwner */\n      dup2\n        /* \"@openzeppelin/contracts@4.4.2/access/Ownable.sol\":2410:2450  OwnershipTransferred(oldOwner, newOwner) */\n      0xffffffffffffffffffffffffffffffffffffffff\n      and\n        /* \"@openzeppelin/contracts@4.4.2/access/Ownable.sol\":2431:2439  oldOwner */\n      dup2\n        /* \"@openzeppelin/contracts@4.4.2/access/Ownable.sol\":2410:2450  OwnershipTransferred(oldOwner, newOwner) */\n      0xffffffffffffffffffffffffffffffffffffffff\n      and\n      0x8be0079c531659141344cd1fd0a4f28419497f9722a3daafe3b4186f6b6457e0\n      mload(0x40)\n      mload(0x40)\n      dup1\n      swap2\n      sub\n      swap1\n      log3\n        /* \"@openzeppelin/contracts@4.4.2/access/Ownable.sol\":2270:2457  function _transferOwnership(address newOwner) internal virtual {... */\n      pop\n      pop\n      jump\t// out\n        /* \"#utility.yul\":7:146   */\n    tag_91:\n      0x00\n        /* \"#utility.yul\":91:97   */\n      dup2\n        /* \"#utility.yul\":78:98   */\n      calldataload\n        /* \"#utility.yul\":69:98   */\n      swap1\n      pop\n        /* \"#utility.yul\":107:140   */\n      tag_93\n        /* \"#utility.yul\":134:139   */\n      dup2\n        /* \"#utility.yul\":107:140   */\n      tag_94\n      jump\t// in\n    tag_93:\n        /* \"#utility.yul\":59:146   */\n      swap3\n      swap2\n      pop\n      pop\n      jump\t// out\n        /* \"#utility.yul\":152:291   */\n    tag_95:\n      0x00\n        /* \"#utility.yul\":236:242   */\n      dup2\n        /* \"#utility.yul\":223:243   */\n      calldataload\n        /* \"#utility.yul\":214:243   */\n      swap1\n      pop\n        /* \"#utility.yul\":252:285   */\n      tag_97\n        /* \"#utility.yul\":279:284   */\n      dup2\n        /* \"#utility.yul\":252:285   */\n      tag_98\n      jump\t// in\n    tag_97:\n        /* \"#utility.yul\":204:291   */\n      swap3\n      swap2\n      pop\n      pop\n      jump\t// out\n        /* \"#utility.yul\":297:559   */\n    tag_14:\n      0x00\n        /* \"#utility.yul\":405:407   */\n      0x20\n        /* \"#utility.yul\":393:402   */\n      dup3\n        /* \"#utility.yul\":384:391   */\n      dup5\n        /* \"#utility.yul\":380:403   */\n      sub\n        /* \"#utility.yul\":376:408   */\n      slt\n        /* \"#utility.yul\":373:375   */\n      iszero\n      tag_100\n      jumpi\n        /* \"#utility.yul\":421:422   */\n      0x00\n        /* \"#utility.yul\":418:419   */\n      dup1\n        /* \"#utility.yul\":411:423   */\n      revert\n        /* \"#utility.yul\":373:375   */\n    tag_100:\n        /* \"#utility.yul\":464:465   */\n      0x00\n        /* \"#utility.yul\":489:542   */\n      tag_101\n        /* \"#utility.yul\":534:541   */\n      dup5\n        /* \"#utility.yul\":525:531   */\n      dup3\n        /* \"#utility.yul\":514:523   */\n      dup6\n        /* \"#utility.yul\":510:532   */\n      add\n        /* \"#utility.yul\":489:542   */\n      tag_91\n      jump\t// in\n    tag_101:\n        /* \"#utility.yul\":479:542   */\n      swap2\n      pop\n        /* \"#utility.yul\":435:552   */\n      pop\n        /* \"#utility.yul\":363:559   */\n      swap3\n      swap2\n      pop\n      pop\n      jump\t// out\n        /* \"#utility.yul\":565:1117   */\n    tag_18:\n      0x00\n      dup1\n      0x00\n        /* \"#utility.yul\":707:709   */\n      0x60\n        /* \"#utility.yul\":695:704   */\n      dup5\n        /* \"#utility.yul\":686:693   */\n      dup7\n        /* \"#utility.yul\":682:705   */\n      sub\n        /* \"#utility.yul\":678:710   */\n      slt\n        /* \"#utility.yul\":675:677   */\n      iszero\n      tag_103\n      jumpi\n        /* \"#utility.yul\":723:724   */\n      0x00\n        /* \"#utility.yul\":720:721   */\n      dup1\n        /* \"#utility.yul\":713:725   */\n      revert\n        /* \"#utility.yul\":675:677   */\n    tag_103:\n        /* \"#utility.yul\":766:767   */\n      0x00\n        /* \"#utility.yul\":791:844   */\n      tag_104\n        /* \"#utility.yul\":836:843   */\n      dup7\n        /* \"#utility.yul\":827:833   */\n      dup3\n        /* \"#utility.yul\":816:825   */\n      dup8\n        /* \"#utility.yul\":812:834   */\n      add\n        /* \"#utility.yul\":791:844   */\n      tag_91\n      jump\t// in\n    tag_104:\n        /* \"#utility.yul\":781:844   */\n      swap4\n      pop\n        /* \"#utility.yul\":737:854   */\n      pop\n        /* \"#utility.yul\":893:895   */\n      0x20\n        /* \"#utility.yul\":919:972   */\n      tag_105\n        /* \"#utility.yul\":964:971   */\n      dup7\n        /* \"#utility.yul\":955:961   */\n      dup3\n        /* \"#utility.yul\":944:953   */\n      dup8\n        /* \"#utility.yul\":940:962   */\n      add\n        /* \"#utility.yul\":919:972   */\n      tag_95\n      jump\t// in\n    tag_105:\n        /* \"#utility.yul\":909:972   */\n      swap3\n      pop\n        /* \"#utility.yul\":864:982   */\n      pop\n        /* \"#utility.yul\":1021:1023   */\n      0x40\n        /* \"#utility.yul\":1047:1100   */\n      tag_106\n        /* \"#utility.yul\":1092:1099   */\n      dup7\n        /* \"#utility.yul\":1083:1089   */\n      dup3\n        /* \"#utility.yul\":1072:1081   */\n      dup8\n        /* \"#utility.yul\":1068:1090   */\n      add\n        /* \"#utility.yul\":1047:1100   */\n      tag_95\n      jump\t// in\n    tag_106:\n        /* \"#utility.yul\":1037:1100   */\n      swap2\n      pop\n        /* \"#utility.yul\":992:1110   */\n      pop\n        /* \"#utility.yul\":665:1117   */\n      swap3\n      pop\n      swap3\n      pop\n      swap3\n      jump\t// out\n        /* \"#utility.yul\":1123:1241   */\n    tag_107:\n        /* \"#utility.yul\":1210:1234   */\n      tag_109\n        /* \"#utility.yul\":1228:1233   */\n      dup2\n        /* \"#utility.yul\":1210:1234   */\n      tag_110\n      jump\t// in\n    tag_109:\n        /* \"#utility.yul\":1205:1208   */\n      dup3\n        /* \"#utility.yul\":1198:1235   */\n      mstore\n        /* \"#utility.yul\":1188:1241   */\n      pop\n      pop\n      jump\t// out\n        /* \"#utility.yul\":1247:1356   */\n    tag_111:\n        /* \"#utility.yul\":1328:1349   */\n      tag_113\n        /* \"#utility.yul\":1343:1348   */\n      dup2\n        /* \"#utility.yul\":1328:1349   */\n      tag_114\n      jump\t// in\n    tag_113:\n        /* \"#utility.yul\":1323:1326   */\n      dup3\n        /* \"#utility.yul\":1316:1350   */\n      mstore\n        /* \"#utility.yul\":1306:1356   */\n      pop\n      pop\n      jump\t// out\n        /* \"#utility.yul\":1362:1728   */\n    tag_115:\n      0x00\n        /* \"#utility.yul\":1525:1592   */\n      tag_117\n        /* \"#utility.yul\":1589:1591   */\n      0x26\n        /* \"#utility.yul\":1584:1587   */\n      dup4\n        /* \"#utility.yul\":1525:1592   */\n      tag_118\n      jump\t// in\n    tag_117:\n        /* \"#utility.yul\":1518:1592   */\n      swap2\n      pop\n        /* \"#utility.yul\":1601:1694   */\n      tag_119\n        /* \"#utility.yul\":1690:1693   */\n      dup3\n        /* \"#utility.yul\":1601:1694   */\n      tag_120\n      jump\t// in\n    tag_119:\n        /* \"#utility.yul\":1719:1721   */\n      0x40\n        /* \"#utility.yul\":1714:1717   */\n      dup3\n        /* \"#utility.yul\":1710:1722   */\n      add\n        /* \"#utility.yul\":1703:1722   */\n      swap1\n      pop\n        /* \"#utility.yul\":1508:1728   */\n      swap2\n      swap1\n      pop\n      jump\t// out\n        /* \"#utility.yul\":1734:2100   */\n    tag_121:\n      0x00\n        /* \"#utility.yul\":1897:1964   */\n      tag_123\n        /* \"#utility.yul\":1961:1963   */\n      0x20\n        /* \"#utility.yul\":1956:1959   */\n      dup4\n        /* \"#utility.yul\":1897:1964   */\n      tag_118\n      jump\t// in\n    tag_123:\n        /* \"#utility.yul\":1890:1964   */\n      swap2\n      pop\n        /* \"#utility.yul\":1973:2066   */\n      tag_124\n        /* \"#utility.yul\":2062:2065   */\n      dup3\n        /* \"#utility.yul\":1973:2066   */\n      tag_125\n      jump\t// in\n    tag_124:\n        /* \"#utility.yul\":2091:2093   */\n      0x20\n        /* \"#utility.yul\":2086:2089   */\n      dup3\n        /* \"#utility.yul\":2082:2094   */\n      add\n        /* \"#utility.yul\":2075:2094   */\n      swap1\n      pop\n        /* \"#utility.yul\":1880:2100   */\n      swap2\n      swap1\n      pop\n      jump\t// out\n        /* \"#utility.yul\":2106:2224   */\n    tag_126:\n        /* \"#utility.yul\":2193:2217   */\n      tag_128\n        /* \"#utility.yul\":2211:2216   */\n      dup2\n        /* \"#utility.yul\":2193:2217   */\n      tag_129\n      jump\t// in\n    tag_128:\n        /* \"#utility.yul\":2188:2191   */\n      dup3\n        /* \"#utility.yul\":2181:2218   */\n      mstore\n        /* \"#utility.yul\":2171:2224   */\n      pop\n      pop\n      jump\t// out\n        /* \"#utility.yul\":2230:2452   */\n    tag_28:\n      0x00\n        /* \"#utility.yul\":2361:2363   */\n      0x20\n        /* \"#utility.yul\":2350:2359   */\n      dup3\n        /* \"#utility.yul\":2346:2364   */\n      add\n        /* \"#utility.yul\":2338:2364   */\n      swap1\n      pop\n        /* \"#utility.yul\":2374:2445   */\n      tag_131\n        /* \"#utility.yul\":2442:2443   */\n      0x00\n        /* \"#utility.yul\":2431:2440   */\n      dup4\n        /* \"#utility.yul\":2427:2444   */\n      add\n        /* \"#utility.yul\":2418:2424   */\n      dup5\n        /* \"#utility.yul\":2374:2445   */\n      tag_107\n      jump\t// in\n    tag_131:\n        /* \"#utility.yul\":2328:2452   */\n      swap3\n      swap2\n      pop\n      pop\n      jump\t// out\n        /* \"#utility.yul\":2458:2668   */\n    tag_33:\n      0x00\n        /* \"#utility.yul\":2583:2585   */\n      0x20\n        /* \"#utility.yul\":2572:2581   */\n      dup3\n        /* \"#utility.yul\":2568:2586   */\n      add\n        /* \"#utility.yul\":2560:2586   */\n      swap1\n      pop\n        /* \"#utility.yul\":2596:2661   */\n      tag_133\n        /* \"#utility.yul\":2658:2659   */\n      0x00\n        /* \"#utility.yul\":2647:2656   */\n      dup4\n        /* \"#utility.yul\":2643:2660   */\n      add\n        /* \"#utility.yul\":2634:2640   */\n      dup5\n        /* \"#utility.yul\":2596:2661   */\n      tag_111\n      jump\t// in\n    tag_133:\n        /* \"#utility.yul\":2550:2668   */\n      swap3\n      swap2\n      pop\n      pop\n      jump\t// out\n        /* \"#utility.yul\":2674:3093   */\n    tag_86:\n      0x00\n        /* \"#utility.yul\":2878:2880   */\n      0x20\n        /* \"#utility.yul\":2867:2876   */\n      dup3\n        /* \"#utility.yul\":2863:2881   */\n      add\n        /* \"#utility.yul\":2855:2881   */\n      swap1\n      pop\n        /* \"#utility.yul\":2927:2936   */\n      dup2\n        /* \"#utility.yul\":2921:2925   */\n      dup2\n        /* \"#utility.yul\":2917:2937   */\n      sub\n        /* \"#utility.yul\":2913:2914   */\n      0x00\n        /* \"#utility.yul\":2902:2911   */\n      dup4\n        /* \"#utility.yul\":2898:2915   */\n      add\n        /* \"#utility.yul\":2891:2938   */\n      mstore\n        /* \"#utility.yul\":2955:3086   */\n      tag_135\n        /* \"#utility.yul\":3081:3085   */\n      dup2\n        /* \"#utility.yul\":2955:3086   */\n      tag_115\n      jump\t// in\n    tag_135:\n        /* \"#utility.yul\":2947:3086   */\n      swap1\n      pop\n        /* \"#utility.yul\":2845:3093   */\n      swap2\n      swap1\n      pop\n      jump\t// out\n        /* \"#utility.yul\":3099:3518   */\n    tag_47:\n      0x00\n        /* \"#utility.yul\":3303:3305   */\n      0x20\n        /* \"#utility.yul\":3292:3301   */\n      dup3\n        /* \"#utility.yul\":3288:3306   */\n      add\n        /* \"#utility.yul\":3280:3306   */\n      swap1\n      pop\n        /* \"#utility.yul\":3352:3361   */\n      dup2\n        /* \"#utility.yul\":3346:3350   */\n      dup2\n        /* \"#utility.yul\":3342:3362   */\n      sub\n        /* \"#utility.yul\":3338:3339   */\n      0x00\n        /* \"#utility.yul\":3327:3336   */\n      dup4\n        /* \"#utility.yul\":3323:3340   */\n      add\n        /* \"#utility.yul\":3316:3363   */\n      mstore\n        /* \"#utility.yul\":3380:3511   */\n      tag_137\n        /* \"#utility.yul\":3506:3510   */\n      dup2\n        /* \"#utility.yul\":3380:3511   */\n      tag_121\n      jump\t// in\n    tag_137:\n        /* \"#utility.yul\":3372:3511   */\n      swap1\n      pop\n        /* \"#utility.yul\":3270:3518   */\n      swap2\n      swap1\n      pop\n      jump\t// out\n        /* \"#utility.yul\":3524:3746   */\n    tag_37:\n      0x00\n        /* \"#utility.yul\":3655:3657   */\n      0x20\n        /* \"#utility.yul\":3644:3653   */\n      dup3\n        /* \"#utility.yul\":3640:3658   */\n      add\n        /* \"#utility.yul\":3632:3658   */\n      swap1\n      pop\n        /* \"#utility.yul\":3668:3739   */\n      tag_139\n        /* \"#utility.yul\":3736:3737   */\n      0x00\n        /* \"#utility.yul\":3725:3734   */\n      dup4\n        /* \"#utility.yul\":3721:3738   */\n      add\n        /* \"#utility.yul\":3712:3718   */\n      dup5\n        /* \"#utility.yul\":3668:3739   */\n      tag_126\n      jump\t// in\n    tag_139:\n        /* \"#utility.yul\":3622:3746   */\n      swap3\n      swap2\n      pop\n      pop\n      jump\t// out\n        /* \"#utility.yul\":3752:3921   */\n    tag_118:\n      0x00\n        /* \"#utility.yul\":3870:3876   */\n      dup3\n        /* \"#utility.yul\":3865:3868   */\n      dup3\n        /* \"#utility.yul\":3858:3877   */\n      mstore\n        /* \"#utility.yul\":3910:3914   */\n      0x20\n        /* \"#utility.yul\":3905:3908   */\n      dup3\n        /* \"#utility.yul\":3901:3915   */\n      add\n        /* \"#utility.yul\":3886:3915   */\n      swap1\n      pop\n        /* \"#utility.yul\":3848:3921   */\n      swap3\n      swap2\n      pop\n      pop\n      jump\t// out\n        /* \"#utility.yul\":3927:4232   */\n    tag_50:\n      0x00\n        /* \"#utility.yul\":3986:4006   */\n      tag_142\n        /* \"#utility.yul\":4004:4005   */\n      dup3\n        /* \"#utility.yul\":3986:4006   */\n      tag_129\n      jump\t// in\n    tag_142:\n        /* \"#utility.yul\":3981:4006   */\n      swap2\n      pop\n        /* \"#utility.yul\":4020:4040   */\n      tag_143\n        /* \"#utility.yul\":4038:4039   */\n      dup4\n        /* \"#utility.yul\":4020:4040   */\n      tag_129\n      jump\t// in\n    tag_143:\n        /* \"#utility.yul\":4015:4040   */\n      swap3\n      pop\n        /* \"#utility.yul\":4174:4175   */\n      dup3\n        /* \"#utility.yul\":4106:4172   */\n      0xffffffffffffffffffffffffffffffffffffffffffffffffffffffffffffffff\n        /* \"#utility.yul\":4102:4176   */\n      sub\n        /* \"#utility.yul\":4099:4100   */\n      dup3\n        /* \"#utility.yul\":4096:4177   */\n      gt\n        /* \"#utility.yul\":4093:4095   */\n      iszero\n      tag_144\n      jumpi\n        /* \"#utility.yul\":4180:4198   */\n      tag_145\n      tag_146\n      jump\t// in\n    tag_145:\n        /* \"#utility.yul\":4093:4095   */\n    tag_144:\n        /* \"#utility.yul\":4224:4225   */\n      dup3\n        /* \"#utility.yul\":4221:4222   */\n      dup3\n        /* \"#utility.yul\":4217:4226   */\n      add\n        /* \"#utility.yul\":4210:4226   */\n      swap1\n      pop\n        /* \"#utility.yul\":3971:4232   */\n      swap3\n      swap2\n      pop\n      pop\n      jump\t// out\n        /* \"#utility.yul\":4238:4334   */\n    tag_110:\n      0x00\n        /* \"#utility.yul\":4304:4328   */\n      tag_148\n        /* \"#utility.yul\":4322:4327   */\n      dup3\n        /* \"#utility.yul\":4304:4328   */\n      tag_149\n      jump\t// in\n    tag_148:\n        /* \"#utility.yul\":4293:4328   */\n      swap1\n      pop\n        /* \"#utility.yul\":4283:4334   */\n      swap2\n      swap1\n      pop\n      jump\t// out\n        /* \"#utility.yul\":4340:4430   */\n    tag_114:\n      0x00\n        /* \"#utility.yul\":4417:4422   */\n      dup2\n        /* \"#utility.yul\":4410:4423   */\n      iszero\n        /* \"#utility.yul\":4403:4424   */\n      iszero\n        /* \"#utility.yul\":4392:4424   */\n      swap1\n      pop\n        /* \"#utility.yul\":4382:4430   */\n      swap2\n      swap1\n      pop\n      jump\t// out\n        /* \"#utility.yul\":4436:4562   */\n    tag_149:\n      0x00\n        /* \"#utility.yul\":4513:4555   */\n      0xffffffffffffffffffffffffffffffffffffffff\n        /* \"#utility.yul\":4506:4511   */\n      dup3\n        /* \"#utility.yul\":4502:4556   */\n      and\n        /* \"#utility.yul\":4491:4556   */\n      swap1\n      pop\n        /* \"#utility.yul\":4481:4562   */\n      swap2\n      swap1\n      pop\n      jump\t// out\n        /* \"#utility.yul\":4568:4645   */\n    tag_129:\n      0x00\n        /* \"#utility.yul\":4634:4639   */\n      dup2\n        /* \"#utility.yul\":4623:4639   */\n      swap1\n      pop\n        /* \"#utility.yul\":4613:4645   */\n      swap2\n      swap1\n      pop\n      jump\t// out\n        /* \"#utility.yul\":4651:4822   */\n    tag_67:\n      0x00\n        /* \"#utility.yul\":4713:4737   */\n      tag_154\n        /* \"#utility.yul\":4731:4736   */\n      dup3\n        /* \"#utility.yul\":4713:4737   */\n      tag_129\n      jump\t// in\n    tag_154:\n        /* \"#utility.yul\":4704:4737   */\n      swap2\n      pop\n        /* \"#utility.yul\":4759:4763   */\n      0x00\n        /* \"#utility.yul\":4752:4757   */\n      dup3\n        /* \"#utility.yul\":4749:4764   */\n      eq\n        /* \"#utility.yul\":4746:4748   */\n      iszero\n      tag_155\n      jumpi\n        /* \"#utility.yul\":4767:4785   */\n      tag_156\n      tag_146\n      jump\t// in\n    tag_156:\n        /* \"#utility.yul\":4746:4748   */\n    tag_155:\n        /* \"#utility.yul\":4814:4815   */\n      0x01\n        /* \"#utility.yul\":4807:4812   */\n      dup3\n        /* \"#utility.yul\":4803:4816   */\n      sub\n        /* \"#utility.yul\":4796:4816   */\n      swap1\n      pop\n        /* \"#utility.yul\":4694:4822   */\n      swap2\n      swap1\n      pop\n      jump\t// out\n        /* \"#utility.yul\":4828:5061   */\n    tag_53:\n      0x00\n        /* \"#utility.yul\":4890:4914   */\n      tag_158\n        /* \"#utility.yul\":4908:4913   */\n      dup3\n        /* \"#utility.yul\":4890:4914   */\n      tag_129\n      jump\t// in\n    tag_158:\n        /* \"#utility.yul\":4881:4914   */\n      swap2\n      pop\n        /* \"#utility.yul\":4936:5002   */\n      0xffffffffffffffffffffffffffffffffffffffffffffffffffffffffffffffff\n        /* \"#utility.yul\":4929:4934   */\n      dup3\n        /* \"#utility.yul\":4926:5003   */\n      eq\n        /* \"#utility.yul\":4923:4925   */\n      iszero\n      tag_159\n      jumpi\n        /* \"#utility.yul\":5006:5024   */\n      tag_160\n      tag_146\n      jump\t// in\n    tag_160:\n        /* \"#utility.yul\":4923:4925   */\n    tag_159:\n        /* \"#utility.yul\":5053:5054   */\n      0x01\n        /* \"#utility.yul\":5046:5051   */\n      dup3\n        /* \"#utility.yul\":5042:5055   */\n      add\n        /* \"#utility.yul\":5035:5055   */\n      swap1\n      pop\n        /* \"#utility.yul\":4871:5061   */\n      swap2\n      swap1\n      pop\n      jump\t// out\n        /* \"#utility.yul\":5067:5247   */\n    tag_146:\n        /* \"#utility.yul\":5115:5192   */\n      0x4e487b7100000000000000000000000000000000000000000000000000000000\n        /* \"#utility.yul\":5112:5113   */\n      0x00\n        /* \"#utility.yul\":5105:5193   */\n      mstore\n        /* \"#utility.yul\":5212:5216   */\n      0x11\n        /* \"#utility.yul\":5209:5210   */\n      0x04\n        /* \"#utility.yul\":5202:5217   */\n      mstore\n        /* \"#utility.yul\":5236:5240   */\n      0x24\n        /* \"#utility.yul\":5233:5234   */\n      0x00\n        /* \"#utility.yul\":5226:5241   */\n      revert\n        /* \"#utility.yul\":5253:5478   */\n    tag_120:\n        /* \"#utility.yul\":5393:5427   */\n      0x4f776e61626c653a206e6577206f776e657220697320746865207a65726f2061\n        /* \"#utility.yul\":5389:5390   */\n      0x00\n        /* \"#utility.yul\":5381:5387   */\n      dup3\n        /* \"#utility.yul\":5377:5391   */\n      add\n        /* \"#utility.yul\":5370:5428   */\n      mstore\n        /* \"#utility.yul\":5462:5470   */\n      0x6464726573730000000000000000000000000000000000000000000000000000\n        /* \"#utility.yul\":5457:5459   */\n      0x20\n        /* \"#utility.yul\":5449:5455   */\n      dup3\n        /* \"#utility.yul\":5445:5460   */\n      add\n        /* \"#utility.yul\":5438:5471   */\n      mstore\n        /* \"#utility.yul\":5359:5478   */\n      pop\n      jump\t// out\n        /* \"#utility.yul\":5484:5666   */\n    tag_125:\n        /* \"#utility.yul\":5624:5658   */\n      0x4f776e61626c653a2063616c6c6572206973206e6f7420746865206f776e6572\n        /* \"#utility.yul\":5620:5621   */\n      0x00\n        /* \"#utility.yul\":5612:5618   */\n      dup3\n        /* \"#utility.yul\":5608:5622   */\n      add\n        /* \"#utility.yul\":5601:5659   */\n      mstore\n        /* \"#utility.yul\":5590:5666   */\n      pop\n      jump\t// out\n        /* \"#utility.yul\":5672:5794   */\n    tag_94:\n        /* \"#utility.yul\":5745:5769   */\n      tag_165\n        /* \"#utility.yul\":5763:5768   */\n      dup2\n        /* \"#utility.yul\":5745:5769   */\n      tag_110\n      jump\t// in\n    tag_165:\n        /* \"#utility.yul\":5738:5743   */\n      dup2\n        /* \"#utility.yul\":5735:5770   */\n      eq\n        /* \"#utility.yul\":5725:5727   */\n      tag_166\n      jumpi\n        /* \"#utility.yul\":5784:5785   */\n      0x00\n        /* \"#utility.yul\":5781:5782   */\n      dup1\n        /* \"#utility.yul\":5774:5786   */\n      revert\n        /* \"#utility.yul\":5725:5727   */\n    tag_166:\n        /* \"#utility.yul\":5715:5794   */\n      pop\n      jump\t// out\n        /* \"#utility.yul\":5800:5922   */\n    tag_98:\n        /* \"#utility.yul\":5873:5897   */\n      tag_168\n        /* \"#utility.yul\":5891:5896   */\n      dup2\n        /* \"#utility.yul\":5873:5897   */\n      tag_129\n      jump\t// in\n    tag_168:\n        /* \"#utility.yul\":5866:5871   */\n      dup2\n        /* \"#utility.yul\":5863:5898   */\n      eq\n        /* \"#utility.yul\":5853:5855   */\n      tag_169\n      jumpi\n        /* \"#utility.yul\":5912:5913   */\n      0x00\n        /* \"#utility.yul\":5909:5910   */\n      dup1\n        /* \"#utility.yul\":5902:5914   */\n      revert\n        /* \"#utility.yul\":5853:5855   */\n    tag_169:\n        /* \"#utility.yul\":5843:5922   */\n      pop\n      jump\t// out\n\n    auxdata: 0xa2646970667358221220653c0e820f702ed912847f04c8701ac6a689ca014dc07d6aed0e61886b8ca8a864736f6c63430008010033\n}\n",
				"bytecode": {
					"linkReferences": {},
					"object": "608060405234801561001057600080fd5b5061002d61002261003260201b60201c565b61003a60201b60201c565b6100fe565b600033905090565b60008060009054906101000a900473ffffffffffffffffffffffffffffffffffffffff169050816000806101000a81548173ffffffffffffffffffffffffffffffffffffffff021916908373ffffffffffffffffffffffffffffffffffffffff1602179055508173ffffffffffffffffffffffffffffffffffffffff168173ffffffffffffffffffffffffffffffffffffffff167f8be0079c531659141344cd1fd0a4f28419497f9722a3daafe3b4186f6b6457e060405160405180910390a35050565b610cae8061010d6000396000f3fe608060405234801561001057600080fd5b50600436106100885760003560e01c80638da5cb5b1161005b5780638da5cb5b146100eb578063a502522214610109578063c1eb6dfd14610139578063f2fde38b1461015757610088565b806338eada1c1461008d5780633edfcd2c146100a95780634ba79dfe146100c5578063715018a6146100e1575b600080fd5b6100a760048036038101906100a29190610905565b610173565b005b6100c360048036038101906100be919061092e565b6102c8565b005b6100df60048036038101906100da9190610905565b610349565b005b6100e961060c565b005b6100f3610694565b60405161010091906109f0565b60405180910390f35b610123600480360381019061011e9190610905565b6106bd565b6040516101309190610a0b565b60405180910390f35b61014161070b565b60405161014e9190610a66565b60405180910390f35b610171600480360381019061016c9190610905565b610717565b005b61017b61080f565b73ffffffffffffffffffffffffffffffffffffffff16610199610694565b73ffffffffffffffffffffffffffffffffffffffff16146101ef576040517f08c379a00000000000000000000000000000000000000000000000000000000081526004016101e690610a46565b60405180910390fd5b80600180016000600180600001546102079190610a92565b815260200190815260200160002060006101000a81548173ffffffffffffffffffffffffffffffffffffffff021916908373ffffffffffffffffffffffffffffffffffffffff160217905550600180600001546102649190610a92565b600160020160008373ffffffffffffffffffffffffffffffffffffffff1673ffffffffffffffffffffffffffffffffffffffff16815260200190815260200160002081905550600160000160008154809291906102c090610b5a565b919050555050565b6102d061080f565b73ffffffffffffffffffffffffffffffffffffffff166102ee610694565b73ffffffffffffffffffffffffffffffffffffffff1614610344576040517f08c379a000000000000000000000000000000000000000000000000000000000815260040161033b90610a46565b60405180910390fd5b505050565b61035161080f565b73ffffffffffffffffffffffffffffffffffffffff1661036f610694565b73ffffffffffffffffffffffffffffffffffffffff16146103c5576040517f08c379a00000000000000000000000000000000000000000000000000000000081526004016103bc90610a46565b60405180910390fd5b6000600160020160008373ffffffffffffffffffffffffffffffffffffffff1673ffffffffffffffffffffffffffffffffffffffff1681526020019081526020016000205490506000829050600060016000015490506000600180016000600160000154815260200190815260200160002060009054906101000a900473ffffffffffffffffffffffffffffffffffffffff16905060018001600083815260200190815260200160002060009054906101000a900473ffffffffffffffffffffffffffffffffffffffff1660018001600086815260200190815260200160002060006101000a81548173ffffffffffffffffffffffffffffffffffffffff021916908373ffffffffffffffffffffffffffffffffffffffff16021790555060018001600083815260200190815260200160002060006101000a81549073ffffffffffffffffffffffffffffffffffffffff0219169055600160020160008273ffffffffffffffffffffffffffffffffffffffff1673ffffffffffffffffffffffffffffffffffffffff16815260200190815260200160002054600160020160008573ffffffffffffffffffffffffffffffffffffffff1673ffffffffffffffffffffffffffffffffffffffff16815260200190815260200160002081905550600160020160008273ffffffffffffffffffffffffffffffffffffffff1673ffffffffffffffffffffffffffffffffffffffff168152602001908152602001600020600090556001600001600081548092919061060090610b30565b91905055505050505050565b61061461080f565b73ffffffffffffffffffffffffffffffffffffffff16610632610694565b73ffffffffffffffffffffffffffffffffffffffff1614610688576040517f08c379a000000000000000000000000000000000000000000000000000000000815260040161067f90610a46565b60405180910390fd5b6106926000610817565b565b60008060009054906101000a900473ffffffffffffffffffffffffffffffffffffffff16905090565b600080600160020160008473ffffffffffffffffffffffffffffffffffffffff1673ffffffffffffffffffffffffffffffffffffffff16815260200190815260200160002054149050919050565b60018060000154905081565b61071f61080f565b73ffffffffffffffffffffffffffffffffffffffff1661073d610694565b73ffffffffffffffffffffffffffffffffffffffff1614610793576040517f08c379a000000000000000000000000000000000000000000000000000000000815260040161078a90610a46565b60405180910390fd5b600073ffffffffffffffffffffffffffffffffffffffff168173ffffffffffffffffffffffffffffffffffffffff161415610803576040517f08c379a00000000000000000000000000000000000000000000000000000000081526004016107fa90610a26565b60405180910390fd5b61080c81610817565b50565b600033905090565b60008060009054906101000a900473ffffffffffffffffffffffffffffffffffffffff169050816000806101000a81548173ffffffffffffffffffffffffffffffffffffffff021916908373ffffffffffffffffffffffffffffffffffffffff1602179055508173ffffffffffffffffffffffffffffffffffffffff168173ffffffffffffffffffffffffffffffffffffffff167f8be0079c531659141344cd1fd0a4f28419497f9722a3daafe3b4186f6b6457e060405160405180910390a35050565b6000813590506108ea81610c4a565b92915050565b6000813590506108ff81610c61565b92915050565b60006020828403121561091757600080fd5b6000610925848285016108db565b91505092915050565b60008060006060848603121561094357600080fd5b6000610951868287016108db565b9350506020610962868287016108f0565b9250506040610973868287016108f0565b9150509250925092565b61098681610ae8565b82525050565b61099581610afa565b82525050565b60006109a8602683610a81565b91506109b382610bd2565b604082019050919050565b60006109cb602083610a81565b91506109d682610c21565b602082019050919050565b6109ea81610b26565b82525050565b6000602082019050610a05600083018461097d565b92915050565b6000602082019050610a20600083018461098c565b92915050565b60006020820190508181036000830152610a3f8161099b565b9050919050565b60006020820190508181036000830152610a5f816109be565b9050919050565b6000602082019050610a7b60008301846109e1565b92915050565b600082825260208201905092915050565b6000610a9d82610b26565b9150610aa883610b26565b9250827fffffffffffffffffffffffffffffffffffffffffffffffffffffffffffffffff03821115610add57610adc610ba3565b5b828201905092915050565b6000610af382610b06565b9050919050565b60008115159050919050565b600073ffffffffffffffffffffffffffffffffffffffff82169050919050565b6000819050919050565b6000610b3b82610b26565b91506000821415610b4f57610b4e610ba3565b5b600182039050919050565b6000610b6582610b26565b91507fffffffffffffffffffffffffffffffffffffffffffffffffffffffffffffffff821415610b9857610b97610ba3565b5b600182019050919050565b7f4e487b7100000000000000000000000000000000000000000000000000000000600052601160045260246000fd5b7f4f776e61626c653a206e6577206f776e657220697320746865207a65726f206160008201527f6464726573730000000000000000000000000000000000000000000000000000602082015250565b7f4f776e61626c653a2063616c6c6572206973206e6f7420746865206f776e6572600082015250565b610c5381610ae8565b8114610c5e57600080fd5b50565b610c6a81610b26565b8114610c7557600080fd5b5056fea2646970667358221220653c0e820f702ed912847f04c8701ac6a689ca014dc07d6aed0e61886b8ca8a864736f6c63430008010033",
					"opcodes": "PUSH1 0x80 PUSH1 0x40 MSTORE CALLVALUE DUP1 ISZERO PUSH2 0x10 JUMPI PUSH1 0x0 DUP1 REVERT JUMPDEST POP PUSH2 0x2D PUSH2 0x22 PUSH2 0x32 PUSH1 0x20 SHL PUSH1 0x20 SHR JUMP JUMPDEST PUSH2 0x3A PUSH1 0x20 SHL PUSH1 0x20 SHR JUMP JUMPDEST PUSH2 0xFE JUMP JUMPDEST PUSH1 0x0 CALLER SWAP1 POP SWAP1 JUMP JUMPDEST PUSH1 0x0 DUP1 PUSH1 0x0 SWAP1 SLOAD SWAP1 PUSH2 0x100 EXP SWAP1 DIV PUSH20 0xFFFFFFFFFFFFFFFFFFFFFFFFFFFFFFFFFFFFFFFF AND SWAP1 POP DUP2 PUSH1 0x0 DUP1 PUSH2 0x100 EXP DUP2 SLOAD DUP2 PUSH20 0xFFFFFFFFFFFFFFFFFFFFFFFFFFFFFFFFFFFFFFFF MUL NOT AND SWAP1 DUP4 PUSH20 0xFFFFFFFFFFFFFFFFFFFFFFFFFFFFFFFFFFFFFFFF AND MUL OR SWAP1 SSTORE POP DUP2 PUSH20 0xFFFFFFFFFFFFFFFFFFFFFFFFFFFFFFFFFFFFFFFF AND DUP2 PUSH20 0xFFFFFFFFFFFFFFFFFFFFFFFFFFFFFFFFFFFFFFFF AND PUSH32 0x8BE0079C531659141344CD1FD0A4F28419497F9722A3DAAFE3B4186F6B6457E0 PUSH1 0x40 MLOAD PUSH1 0x40 MLOAD DUP1 SWAP2 SUB SWAP1 LOG3 POP POP JUMP JUMPDEST PUSH2 0xCAE DUP1 PUSH2 0x10D PUSH1 0x0 CODECOPY PUSH1 0x0 RETURN INVALID PUSH1 0x80 PUSH1 0x40 MSTORE CALLVALUE DUP1 ISZERO PUSH2 0x10 JUMPI PUSH1 0x0 DUP1 REVERT JUMPDEST POP PUSH1 0x4 CALLDATASIZE LT PUSH2 0x88 JUMPI PUSH1 0x0 CALLDATALOAD PUSH1 0xE0 SHR DUP1 PUSH4 0x8DA5CB5B GT PUSH2 0x5B JUMPI DUP1 PUSH4 0x8DA5CB5B EQ PUSH2 0xEB JUMPI DUP1 PUSH4 0xA5025222 EQ PUSH2 0x109 JUMPI DUP1 PUSH4 0xC1EB6DFD EQ PUSH2 0x139 JUMPI DUP1 PUSH4 0xF2FDE38B EQ PUSH2 0x157 JUMPI PUSH2 0x88 JUMP JUMPDEST DUP1 PUSH4 0x38EADA1C EQ PUSH2 0x8D JUMPI DUP1 PUSH4 0x3EDFCD2C EQ PUSH2 0xA9 JUMPI DUP1 PUSH4 0x4BA79DFE EQ PUSH2 0xC5 JUMPI DUP1 PUSH4 0x715018A6 EQ PUSH2 0xE1 JUMPI JUMPDEST PUSH1 0x0 DUP1 REVERT JUMPDEST PUSH2 0xA7 PUSH1 0x4 DUP1 CALLDATASIZE SUB DUP2 ADD SWAP1 PUSH2 0xA2 SWAP2 SWAP1 PUSH2 0x905 JUMP JUMPDEST PUSH2 0x173 JUMP JUMPDEST STOP JUMPDEST PUSH2 0xC3 PUSH1 0x4 DUP1 CALLDATASIZE SUB DUP2 ADD SWAP1 PUSH2 0xBE SWAP2 SWAP1 PUSH2 0x92E JUMP JUMPDEST PUSH2 0x2C8 JUMP JUMPDEST STOP JUMPDEST PUSH2 0xDF PUSH1 0x4 DUP1 CALLDATASIZE SUB DUP2 ADD SWAP1 PUSH2 0xDA SWAP2 SWAP1 PUSH2 0x905 JUMP JUMPDEST PUSH2 0x349 JUMP JUMPDEST STOP JUMPDEST PUSH2 0xE9 PUSH2 0x60C JUMP JUMPDEST STOP JUMPDEST PUSH2 0xF3 PUSH2 0x694 JUMP JUMPDEST PUSH1 0x40 MLOAD PUSH2 0x100 SWAP2 SWAP1 PUSH2 0x9F0 JUMP JUMPDEST PUSH1 0x40 MLOAD DUP1 SWAP2 SUB SWAP1 RETURN JUMPDEST PUSH2 0x123 PUSH1 0x4 DUP1 CALLDATASIZE SUB DUP2 ADD SWAP1 PUSH2 0x11E SWAP2 SWAP1 PUSH2 0x905 JUMP JUMPDEST PUSH2 0x6BD JUMP JUMPDEST PUSH1 0x40 MLOAD PUSH2 0x130 SWAP2 SWAP1 PUSH2 0xA0B JUMP JUMPDEST PUSH1 0x40 MLOAD DUP1 SWAP2 SUB SWAP1 RETURN JUMPDEST PUSH2 0x141 PUSH2 0x70B JUMP JUMPDEST PUSH1 0x40 MLOAD PUSH2 0x14E SWAP2 SWAP1 PUSH2 0xA66 JUMP JUMPDEST PUSH1 0x40 MLOAD DUP1 SWAP2 SUB SWAP1 RETURN JUMPDEST PUSH2 0x171 PUSH1 0x4 DUP1 CALLDATASIZE SUB DUP2 ADD SWAP1 PUSH2 0x16C SWAP2 SWAP1 PUSH2 0x905 JUMP JUMPDEST PUSH2 0x717 JUMP JUMPDEST STOP JUMPDEST PUSH2 0x17B PUSH2 0x80F JUMP JUMPDEST PUSH20 0xFFFFFFFFFFFFFFFFFFFFFFFFFFFFFFFFFFFFFFFF AND PUSH2 0x199 PUSH2 0x694 JUMP JUMPDEST PUSH20 0xFFFFFFFFFFFFFFFFFFFFFFFFFFFFFFFFFFFFFFFF AND EQ PUSH2 0x1EF JUMPI PUSH1 0x40 MLOAD PUSH32 0x8C379A000000000000000000000000000000000000000000000000000000000 DUP2 MSTORE PUSH1 0x4 ADD PUSH2 0x1E6 SWAP1 PUSH2 0xA46 JUMP JUMPDEST PUSH1 0x40 MLOAD DUP1 SWAP2 SUB SWAP1 REVERT JUMPDEST DUP1 PUSH1 0x1 DUP1 ADD PUSH1 0x0 PUSH1 0x1 DUP1 PUSH1 0x0 ADD SLOAD PUSH2 0x207 SWAP2 SWAP1 PUSH2 0xA92 JUMP JUMPDEST DUP2 MSTORE PUSH1 0x20 ADD SWAP1 DUP2 MSTORE PUSH1 0x20 ADD PUSH1 0x0 KECCAK256 PUSH1 0x0 PUSH2 0x100 EXP DUP2 SLOAD DUP2 PUSH20 0xFFFFFFFFFFFFFFFFFFFFFFFFFFFFFFFFFFFFFFFF MUL NOT AND SWAP1 DUP4 PUSH20 0xFFFFFFFFFFFFFFFFFFFFFFFFFFFFFFFFFFFFFFFF AND MUL OR SWAP1 SSTORE POP PUSH1 0x1 DUP1 PUSH1 0x0 ADD SLOAD PUSH2 0x264 SWAP2 SWAP1 PUSH2 0xA92 JUMP JUMPDEST PUSH1 0x1 PUSH1 0x2 ADD PUSH1 0x0 DUP4 PUSH20 0xFFFFFFFFFFFFFFFFFFFFFFFFFFFFFFFFFFFFFFFF AND PUSH20 0xFFFFFFFFFFFFFFFFFFFFFFFFFFFFFFFFFFFFFFFF AND DUP2 MSTORE PUSH1 0x20 ADD SWAP1 DUP2 MSTORE PUSH1 0x20 ADD PUSH1 0x0 KECCAK256 DUP2 SWAP1 SSTORE POP PUSH1 0x1 PUSH1 0x0 ADD PUSH1 0x0 DUP2 SLOAD DUP1 SWAP3 SWAP2 SWAP1 PUSH2 0x2C0 SWAP1 PUSH2 0xB5A JUMP JUMPDEST SWAP2 SWAP1 POP SSTORE POP POP JUMP JUMPDEST PUSH2 0x2D0 PUSH2 0x80F JUMP JUMPDEST PUSH20 0xFFFFFFFFFFFFFFFFFFFFFFFFFFFFFFFFFFFFFFFF AND PUSH2 0x2EE PUSH2 0x694 JUMP JUMPDEST PUSH20 0xFFFFFFFFFFFFFFFFFFFFFFFFFFFFFFFFFFFFFFFF AND EQ PUSH2 0x344 JUMPI PUSH1 0x40 MLOAD PUSH32 0x8C379A000000000000000000000000000000000000000000000000000000000 DUP2 MSTORE PUSH1 0x4 ADD PUSH2 0x33B SWAP1 PUSH2 0xA46 JUMP JUMPDEST PUSH1 0x40 MLOAD DUP1 SWAP2 SUB SWAP1 REVERT JUMPDEST POP POP POP JUMP JUMPDEST PUSH2 0x351 PUSH2 0x80F JUMP JUMPDEST PUSH20 0xFFFFFFFFFFFFFFFFFFFFFFFFFFFFFFFFFFFFFFFF AND PUSH2 0x36F PUSH2 0x694 JUMP JUMPDEST PUSH20 0xFFFFFFFFFFFFFFFFFFFFFFFFFFFFFFFFFFFFFFFF AND EQ PUSH2 0x3C5 JUMPI PUSH1 0x40 MLOAD PUSH32 0x8C379A000000000000000000000000000000000000000000000000000000000 DUP2 MSTORE PUSH1 0x4 ADD PUSH2 0x3BC SWAP1 PUSH2 0xA46 JUMP JUMPDEST PUSH1 0x40 MLOAD DUP1 SWAP2 SUB SWAP1 REVERT JUMPDEST PUSH1 0x0 PUSH1 0x1 PUSH1 0x2 ADD PUSH1 0x0 DUP4 PUSH20 0xFFFFFFFFFFFFFFFFFFFFFFFFFFFFFFFFFFFFFFFF AND PUSH20 0xFFFFFFFFFFFFFFFFFFFFFFFFFFFFFFFFFFFFFFFF AND DUP2 MSTORE PUSH1 0x20 ADD SWAP1 DUP2 MSTORE PUSH1 0x20 ADD PUSH1 0x0 KECCAK256 SLOAD SWAP1 POP PUSH1 0x0 DUP3 SWAP1 POP PUSH1 0x0 PUSH1 0x1 PUSH1 0x0 ADD SLOAD SWAP1 POP PUSH1 0x0 PUSH1 0x1 DUP1 ADD PUSH1 0x0 PUSH1 0x1 PUSH1 0x0 ADD SLOAD DUP2 MSTORE PUSH1 0x20 ADD SWAP1 DUP2 MSTORE PUSH1 0x20 ADD PUSH1 0x0 KECCAK256 PUSH1 0x0 SWAP1 SLOAD SWAP1 PUSH2 0x100 EXP SWAP1 DIV PUSH20 0xFFFFFFFFFFFFFFFFFFFFFFFFFFFFFFFFFFFFFFFF AND SWAP1 POP PUSH1 0x1 DUP1 ADD PUSH1 0x0 DUP4 DUP2 MSTORE PUSH1 0x20 ADD SWAP1 DUP2 MSTORE PUSH1 0x20 ADD PUSH1 0x0 KECCAK256 PUSH1 0x0 SWAP1 SLOAD SWAP1 PUSH2 0x100 EXP SWAP1 DIV PUSH20 0xFFFFFFFFFFFFFFFFFFFFFFFFFFFFFFFFFFFFFFFF AND PUSH1 0x1 DUP1 ADD PUSH1 0x0 DUP7 DUP2 MSTORE PUSH1 0x20 ADD SWAP1 DUP2 MSTORE PUSH1 0x20 ADD PUSH1 0x0 KECCAK256 PUSH1 0x0 PUSH2 0x100 EXP DUP2 SLOAD DUP2 PUSH20 0xFFFFFFFFFFFFFFFFFFFFFFFFFFFFFFFFFFFFFFFF MUL NOT AND SWAP1 DUP4 PUSH20 0xFFFFFFFFFFFFFFFFFFFFFFFFFFFFFFFFFFFFFFFF AND MUL OR SWAP1 SSTORE POP PUSH1 0x1 DUP1 ADD PUSH1 0x0 DUP4 DUP2 MSTORE PUSH1 0x20 ADD SWAP1 DUP2 MSTORE PUSH1 0x20 ADD PUSH1 0x0 KECCAK256 PUSH1 0x0 PUSH2 0x100 EXP DUP2 SLOAD SWAP1 PUSH20 0xFFFFFFFFFFFFFFFFFFFFFFFFFFFFFFFFFFFFFFFF MUL NOT AND SWAP1 SSTORE PUSH1 0x1 PUSH1 0x2 ADD PUSH1 0x0 DUP3 PUSH20 0xFFFFFFFFFFFFFFFFFFFFFFFFFFFFFFFFFFFFFFFF AND PUSH20 0xFFFFFFFFFFFFFFFFFFFFFFFFFFFFFFFFFFFFFFFF AND DUP2 MSTORE PUSH1 0x20 ADD SWAP1 DUP2 MSTORE PUSH1 0x20 ADD PUSH1 0x0 KECCAK256 SLOAD PUSH1 0x1 PUSH1 0x2 ADD PUSH1 0x0 DUP6 PUSH20 0xFFFFFFFFFFFFFFFFFFFFFFFFFFFFFFFFFFFFFFFF AND PUSH20 0xFFFFFFFFFFFFFFFFFFFFFFFFFFFFFFFFFFFFFFFF AND DUP2 MSTORE PUSH1 0x20 ADD SWAP1 DUP2 MSTORE PUSH1 0x20 ADD PUSH1 0x0 KECCAK256 DUP2 SWAP1 SSTORE POP PUSH1 0x1 PUSH1 0x2 ADD PUSH1 0x0 DUP3 PUSH20 0xFFFFFFFFFFFFFFFFFFFFFFFFFFFFFFFFFFFFFFFF AND PUSH20 0xFFFFFFFFFFFFFFFFFFFFFFFFFFFFFFFFFFFFFFFF AND DUP2 MSTORE PUSH1 0x20 ADD SWAP1 DUP2 MSTORE PUSH1 0x20 ADD PUSH1 0x0 KECCAK256 PUSH1 0x0 SWAP1 SSTORE PUSH1 0x1 PUSH1 0x0 ADD PUSH1 0x0 DUP2 SLOAD DUP1 SWAP3 SWAP2 SWAP1 PUSH2 0x600 SWAP1 PUSH2 0xB30 JUMP JUMPDEST SWAP2 SWAP1 POP SSTORE POP POP POP POP POP POP JUMP JUMPDEST PUSH2 0x614 PUSH2 0x80F JUMP JUMPDEST PUSH20 0xFFFFFFFFFFFFFFFFFFFFFFFFFFFFFFFFFFFFFFFF AND PUSH2 0x632 PUSH2 0x694 JUMP JUMPDEST PUSH20 0xFFFFFFFFFFFFFFFFFFFFFFFFFFFFFFFFFFFFFFFF AND EQ PUSH2 0x688 JUMPI PUSH1 0x40 MLOAD PUSH32 0x8C379A000000000000000000000000000000000000000000000000000000000 DUP2 MSTORE PUSH1 0x4 ADD PUSH2 0x67F SWAP1 PUSH2 0xA46 JUMP JUMPDEST PUSH1 0x40 MLOAD DUP1 SWAP2 SUB SWAP1 REVERT JUMPDEST PUSH2 0x692 PUSH1 0x0 PUSH2 0x817 JUMP JUMPDEST JUMP JUMPDEST PUSH1 0x0 DUP1 PUSH1 0x0 SWAP1 SLOAD SWAP1 PUSH2 0x100 EXP SWAP1 DIV PUSH20 0xFFFFFFFFFFFFFFFFFFFFFFFFFFFFFFFFFFFFFFFF AND SWAP1 POP SWAP1 JUMP JUMPDEST PUSH1 0x0 DUP1 PUSH1 0x1 PUSH1 0x2 ADD PUSH1 0x0 DUP5 PUSH20 0xFFFFFFFFFFFFFFFFFFFFFFFFFFFFFFFFFFFFFFFF AND PUSH20 0xFFFFFFFFFFFFFFFFFFFFFFFFFFFFFFFFFFFFFFFF AND DUP2 MSTORE PUSH1 0x20 ADD SWAP1 DUP2 MSTORE PUSH1 0x20 ADD PUSH1 0x0 KECCAK256 SLOAD EQ SWAP1 POP SWAP2 SWAP1 POP JUMP JUMPDEST PUSH1 0x1 DUP1 PUSH1 0x0 ADD SLOAD SWAP1 POP DUP2 JUMP JUMPDEST PUSH2 0x71F PUSH2 0x80F JUMP JUMPDEST PUSH20 0xFFFFFFFFFFFFFFFFFFFFFFFFFFFFFFFFFFFFFFFF AND PUSH2 0x73D PUSH2 0x694 JUMP JUMPDEST PUSH20 0xFFFFFFFFFFFFFFFFFFFFFFFFFFFFFFFFFFFFFFFF AND EQ PUSH2 0x793 JUMPI PUSH1 0x40 MLOAD PUSH32 0x8C379A000000000000000000000000000000000000000000000000000000000 DUP2 MSTORE PUSH1 0x4 ADD PUSH2 0x78A SWAP1 PUSH2 0xA46 JUMP JUMPDEST PUSH1 0x40 MLOAD DUP1 SWAP2 SUB SWAP1 REVERT JUMPDEST PUSH1 0x0 PUSH20 0xFFFFFFFFFFFFFFFFFFFFFFFFFFFFFFFFFFFFFFFF AND DUP2 PUSH20 0xFFFFFFFFFFFFFFFFFFFFFFFFFFFFFFFFFFFFFFFF AND EQ ISZERO PUSH2 0x803 JUMPI PUSH1 0x40 MLOAD PUSH32 0x8C379A000000000000000000000000000000000000000000000000000000000 DUP2 MSTORE PUSH1 0x4 ADD PUSH2 0x7FA SWAP1 PUSH2 0xA26 JUMP JUMPDEST PUSH1 0x40 MLOAD DUP1 SWAP2 SUB SWAP1 REVERT JUMPDEST PUSH2 0x80C DUP2 PUSH2 0x817 JUMP JUMPDEST POP JUMP JUMPDEST PUSH1 0x0 CALLER SWAP1 POP SWAP1 JUMP JUMPDEST PUSH1 0x0 DUP1 PUSH1 0x0 SWAP1 SLOAD SWAP1 PUSH2 0x100 EXP SWAP1 DIV PUSH20 0xFFFFFFFFFFFFFFFFFFFFFFFFFFFFFFFFFFFFFFFF AND SWAP1 POP DUP2 PUSH1 0x0 DUP1 PUSH2 0x100 EXP DUP2 SLOAD DUP2 PUSH20 0xFFFFFFFFFFFFFFFFFFFFFFFFFFFFFFFFFFFFFFFF MUL NOT AND SWAP1 DUP4 PUSH20 0xFFFFFFFFFFFFFFFFFFFFFFFFFFFFFFFFFFFFFFFF AND MUL OR SWAP1 SSTORE POP DUP2 PUSH20 0xFFFFFFFFFFFFFFFFFFFFFFFFFFFFFFFFFFFFFFFF AND DUP2 PUSH20 0xFFFFFFFFFFFFFFFFFFFFFFFFFFFFFFFFFFFFFFFF AND PUSH32 0x8BE0079C531659141344CD1FD0A4F28419497F9722A3DAAFE3B4186F6B6457E0 PUSH1 0x40 MLOAD PUSH1 0x40 MLOAD DUP1 SWAP2 SUB SWAP1 LOG3 POP POP JUMP JUMPDEST PUSH1 0x0 DUP2 CALLDATALOAD SWAP1 POP PUSH2 0x8EA DUP2 PUSH2 0xC4A JUMP JUMPDEST SWAP3 SWAP2 POP POP JUMP JUMPDEST PUSH1 0x0 DUP2 CALLDATALOAD SWAP1 POP PUSH2 0x8FF DUP2 PUSH2 0xC61 JUMP JUMPDEST SWAP3 SWAP2 POP POP JUMP JUMPDEST PUSH1 0x0 PUSH1 0x20 DUP3 DUP5 SUB SLT ISZERO PUSH2 0x917 JUMPI PUSH1 0x0 DUP1 REVERT JUMPDEST PUSH1 0x0 PUSH2 0x925 DUP5 DUP3 DUP6 ADD PUSH2 0x8DB JUMP JUMPDEST SWAP2 POP POP SWAP3 SWAP2 POP POP JUMP JUMPDEST PUSH1 0x0 DUP1 PUSH1 0x0 PUSH1 0x60 DUP5 DUP7 SUB SLT ISZERO PUSH2 0x943 JUMPI PUSH1 0x0 DUP1 REVERT JUMPDEST PUSH1 0x0 PUSH2 0x951 DUP7 DUP3 DUP8 ADD PUSH2 0x8DB JUMP JUMPDEST SWAP4 POP POP PUSH1 0x20 PUSH2 0x962 DUP7 DUP3 DUP8 ADD PUSH2 0x8F0 JUMP JUMPDEST SWAP3 POP POP PUSH1 0x40 PUSH2 0x973 DUP7 DUP3 DUP8 ADD PUSH2 0x8F0 JUMP JUMPDEST SWAP2 POP POP SWAP3 POP SWAP3 POP SWAP3 JUMP JUMPDEST PUSH2 0x986 DUP2 PUSH2 0xAE8 JUMP JUMPDEST DUP3 MSTORE POP POP JUMP JUMPDEST PUSH2 0x995 DUP2 PUSH2 0xAFA JUMP JUMPDEST DUP3 MSTORE POP POP JUMP JUMPDEST PUSH1 0x0 PUSH2 0x9A8 PUSH1 0x26 DUP4 PUSH2 0xA81 JUMP JUMPDEST SWAP2 POP PUSH2 0x9B3 DUP3 PUSH2 0xBD2 JUMP JUMPDEST PUSH1 0x40 DUP3 ADD SWAP1 POP SWAP2 SWAP1 POP JUMP JUMPDEST PUSH1 0x0 PUSH2 0x9CB PUSH1 0x20 DUP4 PUSH2 0xA81 JUMP JUMPDEST SWAP2 POP PUSH2 0x9D6 DUP3 PUSH2 0xC21 JUMP JUMPDEST PUSH1 0x20 DUP3 ADD SWAP1 POP SWAP2 SWAP1 POP JUMP JUMPDEST PUSH2 0x9EA DUP2 PUSH2 0xB26 JUMP JUMPDEST DUP3 MSTORE POP POP JUMP JUMPDEST PUSH1 0x0 PUSH1 0x20 DUP3 ADD SWAP1 POP PUSH2 0xA05 PUSH1 0x0 DUP4 ADD DUP5 PUSH2 0x97D JUMP JUMPDEST SWAP3 SWAP2 POP POP JUMP JUMPDEST PUSH1 0x0 PUSH1 0x20 DUP3 ADD SWAP1 POP PUSH2 0xA20 PUSH1 0x0 DUP4 ADD DUP5 PUSH2 0x98C JUMP JUMPDEST SWAP3 SWAP2 POP POP JUMP JUMPDEST PUSH1 0x0 PUSH1 0x20 DUP3 ADD SWAP1 POP DUP2 DUP2 SUB PUSH1 0x0 DUP4 ADD MSTORE PUSH2 0xA3F DUP2 PUSH2 0x99B JUMP JUMPDEST SWAP1 POP SWAP2 SWAP1 POP JUMP JUMPDEST PUSH1 0x0 PUSH1 0x20 DUP3 ADD SWAP1 POP DUP2 DUP2 SUB PUSH1 0x0 DUP4 ADD MSTORE PUSH2 0xA5F DUP2 PUSH2 0x9BE JUMP JUMPDEST SWAP1 POP SWAP2 SWAP1 POP JUMP JUMPDEST PUSH1 0x0 PUSH1 0x20 DUP3 ADD SWAP1 POP PUSH2 0xA7B PUSH1 0x0 DUP4 ADD DUP5 PUSH2 0x9E1 JUMP JUMPDEST SWAP3 SWAP2 POP POP JUMP JUMPDEST PUSH1 0x0 DUP3 DUP3 MSTORE PUSH1 0x20 DUP3 ADD SWAP1 POP SWAP3 SWAP2 POP POP JUMP JUMPDEST PUSH1 0x0 PUSH2 0xA9D DUP3 PUSH2 0xB26 JUMP JUMPDEST SWAP2 POP PUSH2 0xAA8 DUP4 PUSH2 0xB26 JUMP JUMPDEST SWAP3 POP DUP3 PUSH32 0xFFFFFFFFFFFFFFFFFFFFFFFFFFFFFFFFFFFFFFFFFFFFFFFFFFFFFFFFFFFFFFFF SUB DUP3 GT ISZERO PUSH2 0xADD JUMPI PUSH2 0xADC PUSH2 0xBA3 JUMP JUMPDEST JUMPDEST DUP3 DUP3 ADD SWAP1 POP SWAP3 SWAP2 POP POP JUMP JUMPDEST PUSH1 0x0 PUSH2 0xAF3 DUP3 PUSH2 0xB06 JUMP JUMPDEST SWAP1 POP SWAP2 SWAP1 POP JUMP JUMPDEST PUSH1 0x0 DUP2 ISZERO ISZERO SWAP1 POP SWAP2 SWAP1 POP JUMP JUMPDEST PUSH1 0x0 PUSH20 0xFFFFFFFFFFFFFFFFFFFFFFFFFFFFFFFFFFFFFFFF DUP3 AND SWAP1 POP SWAP2 SWAP1 POP JUMP JUMPDEST PUSH1 0x0 DUP2 SWAP1 POP SWAP2 SWAP1 POP JUMP JUMPDEST PUSH1 0x0 PUSH2 0xB3B DUP3 PUSH2 0xB26 JUMP JUMPDEST SWAP2 POP PUSH1 0x0 DUP3 EQ ISZERO PUSH2 0xB4F JUMPI PUSH2 0xB4E PUSH2 0xBA3 JUMP JUMPDEST JUMPDEST PUSH1 0x1 DUP3 SUB SWAP1 POP SWAP2 SWAP1 POP JUMP JUMPDEST PUSH1 0x0 PUSH2 0xB65 DUP3 PUSH2 0xB26 JUMP JUMPDEST SWAP2 POP PUSH32 0xFFFFFFFFFFFFFFFFFFFFFFFFFFFFFFFFFFFFFFFFFFFFFFFFFFFFFFFFFFFFFFFF DUP3 EQ ISZERO PUSH2 0xB98 JUMPI PUSH2 0xB97 PUSH2 0xBA3 JUMP JUMPDEST JUMPDEST PUSH1 0x1 DUP3 ADD SWAP1 POP SWAP2 SWAP1 POP JUMP JUMPDEST PUSH32 0x4E487B7100000000000000000000000000000000000000000000000000000000 PUSH1 0x0 MSTORE PUSH1 0x11 PUSH1 0x4 MSTORE PUSH1 0x24 PUSH1 0x0 REVERT JUMPDEST PUSH32 0x4F776E61626C653A206E6577206F776E657220697320746865207A65726F2061 PUSH1 0x0 DUP3 ADD MSTORE PUSH32 0x6464726573730000000000000000000000000000000000000000000000000000 PUSH1 0x20 DUP3 ADD MSTORE POP JUMP JUMPDEST PUSH32 0x4F776E61626C653A2063616C6C6572206973206E6F7420746865206F776E6572 PUSH1 0x0 DUP3 ADD MSTORE POP JUMP JUMPDEST PUSH2 0xC53 DUP2 PUSH2 0xAE8 JUMP JUMPDEST DUP2 EQ PUSH2 0xC5E JUMPI PUSH1 0x0 DUP1 REVERT JUMPDEST POP JUMP JUMPDEST PUSH2 0xC6A DUP2 PUSH2 0xB26 JUMP JUMPDEST DUP2 EQ PUSH2 0xC75 JUMPI PUSH1 0x0 DUP1 REVERT JUMPDEST POP JUMP INVALID LOG2 PUSH5 0x6970667358 0x22 SLT KECCAK256 PUSH6 0x3C0E820F702E 0xD9 SLT DUP5 PUSH32 0x4C8701AC6A689CA014DC07D6AED0E61886B8CA8A864736F6C63430008010033 "
				},
				"gasEstimates": {
					"creation": {
						"codeDepositCost": "649200",
						"executionCost": "infinite",
						"totalCost": "infinite"
					},
					"external": {
						"addAddress(address)": "infinite",
						"addCoupon(address,uint256,uint256)": "infinite",
						"addressExists(address)": "1581",
						"addressList()": "1187",
						"owner()": "1222",
						"removeAddress(address)": "94794",
						"renounceOwnership()": "24441",
						"transferOwnership(address)": "24789"
					},
					"internal": {
						"_initList()": "infinite"
					}
				},
				"methodIdentifiers": {
					"addAddress(address)": "38eada1c",
					"addCoupon(address,uint256,uint256)": "3edfcd2c",
					"addressExists(address)": "a5025222",
					"addressList()": "c1eb6dfd",
					"owner()": "8da5cb5b",
					"removeAddress(address)": "4ba79dfe",
					"renounceOwnership()": "715018a6",
					"transferOwnership(address)": "f2fde38b"
				}
			},
			"storageLayout": {
				"storage": [
					{
						"astId": 7,
						"contract": "contracts/Founding Citizens NFT Sale Privileged Buyers List Storage.sol:PrivilegedListStorage",
						"label": "_owner",
						"offset": 0,
						"slot": "0",
						"type": "t_address"
					},
					{
						"astId": 163,
						"contract": "contracts/Founding Citizens NFT Sale Privileged Buyers List Storage.sol:PrivilegedListStorage",
						"label": "addressList",
						"offset": 0,
						"slot": "1",
						"type": "t_struct(AddressList)160_storage"
					}
				],
				"types": {
					"t_address": {
						"encoding": "inplace",
						"label": "address",
						"numberOfBytes": "20"
					},
					"t_mapping(t_address,t_uint256)": {
						"encoding": "mapping",
						"key": "t_address",
						"label": "mapping(address => uint256)",
						"numberOfBytes": "32",
						"value": "t_uint256"
					},
					"t_mapping(t_uint256,t_address)": {
						"encoding": "mapping",
						"key": "t_uint256",
						"label": "mapping(uint256 => address)",
						"numberOfBytes": "32",
						"value": "t_address"
					},
					"t_mapping(t_uint256,t_struct(Coupon)136_storage)": {
						"encoding": "mapping",
						"key": "t_uint256",
						"label": "mapping(uint256 => struct PrivilegedListStorage.Coupon)",
						"numberOfBytes": "32",
						"value": "t_struct(Coupon)136_storage"
					},
					"t_mapping(t_uint256,t_struct(CouponList)144_storage)": {
						"encoding": "mapping",
						"key": "t_uint256",
						"label": "mapping(uint256 => struct PrivilegedListStorage.CouponList)",
						"numberOfBytes": "32",
						"value": "t_struct(CouponList)144_storage"
					},
					"t_struct(AddressList)160_storage": {
						"encoding": "inplace",
						"label": "struct PrivilegedListStorage.AddressList",
						"members": [
							{
								"astId": 146,
								"contract": "contracts/Founding Citizens NFT Sale Privileged Buyers List Storage.sol:PrivilegedListStorage",
								"label": "length",
								"offset": 0,
								"slot": "0",
								"type": "t_uint256"
							},
							{
								"astId": 150,
								"contract": "contracts/Founding Citizens NFT Sale Privileged Buyers List Storage.sol:PrivilegedListStorage",
								"label": "addresses",
								"offset": 0,
								"slot": "1",
								"type": "t_mapping(t_uint256,t_address)"
							},
							{
								"astId": 154,
								"contract": "contracts/Founding Citizens NFT Sale Privileged Buyers List Storage.sol:PrivilegedListStorage",
								"label": "ids",
								"offset": 0,
								"slot": "2",
								"type": "t_mapping(t_address,t_uint256)"
							},
							{
								"astId": 159,
								"contract": "contracts/Founding Citizens NFT Sale Privileged Buyers List Storage.sol:PrivilegedListStorage",
								"label": "couponLists",
								"offset": 0,
								"slot": "3",
								"type": "t_mapping(t_uint256,t_struct(CouponList)144_storage)"
							}
						],
						"numberOfBytes": "128"
					},
					"t_struct(Coupon)136_storage": {
						"encoding": "inplace",
						"label": "struct PrivilegedListStorage.Coupon",
						"members": [
							{
								"astId": 133,
								"contract": "contracts/Founding Citizens NFT Sale Privileged Buyers List Storage.sol:PrivilegedListStorage",
								"label": "discountRate",
								"offset": 0,
								"slot": "0",
								"type": "t_uint256"
							},
							{
								"astId": 135,
								"contract": "contracts/Founding Citizens NFT Sale Privileged Buyers List Storage.sol:PrivilegedListStorage",
								"label": "numberOfUses",
								"offset": 0,
								"slot": "1",
								"type": "t_uint256"
							}
						],
						"numberOfBytes": "64"
					},
					"t_struct(CouponList)144_storage": {
						"encoding": "inplace",
						"label": "struct PrivilegedListStorage.CouponList",
						"members": [
							{
								"astId": 138,
								"contract": "contracts/Founding Citizens NFT Sale Privileged Buyers List Storage.sol:PrivilegedListStorage",
								"label": "length",
								"offset": 0,
								"slot": "0",
								"type": "t_uint256"
							},
							{
								"astId": 143,
								"contract": "contracts/Founding Citizens NFT Sale Privileged Buyers List Storage.sol:PrivilegedListStorage",
								"label": "coupons",
								"offset": 0,
								"slot": "1",
								"type": "t_mapping(t_uint256,t_struct(Coupon)136_storage)"
							}
						],
						"numberOfBytes": "64"
					},
					"t_uint256": {
						"encoding": "inplace",
						"label": "uint256",
						"numberOfBytes": "32"
					}
				}
			},
			"userdoc": {
				"kind": "user",
				"methods": {},
				"version": 1
			}
		}
	}
}