{
	"contracts/Founding Citizens NFT Sale.sol": {
		"FoundingNFTSale": {
			"abi": [
				{
					"inputs": [],
					"stateMutability": "nonpayable",
					"type": "constructor"
				},
				{
					"anonymous": false,
					"inputs": [
						{
							"indexed": true,
							"internalType": "address",
							"name": "previousOwner",
							"type": "address"
						},
						{
							"indexed": true,
							"internalType": "address",
							"name": "newOwner",
							"type": "address"
						}
					],
					"name": "OwnershipTransferred",
					"type": "event"
				},
				{
					"inputs": [],
					"name": "buyNFT",
					"outputs": [],
					"stateMutability": "nonpayable",
					"type": "function"
				},
				{
					"inputs": [],
					"name": "getMaxSupply",
					"outputs": [
						{
							"internalType": "uint256",
							"name": "",
							"type": "uint256"
						}
					],
					"stateMutability": "view",
					"type": "function"
				},
				{
					"inputs": [],
					"name": "getNextUnusedToken",
					"outputs": [
						{
							"internalType": "uint256",
							"name": "",
							"type": "uint256"
						}
					],
					"stateMutability": "view",
					"type": "function"
				},
				{
					"inputs": [],
					"name": "lastUpdate",
					"outputs": [
						{
							"internalType": "uint256",
							"name": "price",
							"type": "uint256"
						},
						{
							"internalType": "uint256",
							"name": "time",
							"type": "uint256"
						},
						{
							"internalType": "bool",
							"name": "saleIsLive",
							"type": "bool"
						}
					],
					"stateMutability": "view",
					"type": "function"
				},
				{
					"inputs": [],
					"name": "mintToTreasuryAddress",
					"outputs": [],
					"stateMutability": "nonpayable",
					"type": "function"
				},
				{
					"inputs": [],
					"name": "owner",
					"outputs": [
						{
							"internalType": "address",
							"name": "",
							"type": "address"
						}
					],
					"stateMutability": "view",
					"type": "function"
				},
				{
					"inputs": [
						{
							"internalType": "uint256[]",
							"name": "ids",
							"type": "uint256[]"
						},
						{
							"internalType": "string[]",
							"name": "uris",
							"type": "string[]"
						}
					],
					"name": "preLoadURIs",
					"outputs": [],
					"stateMutability": "nonpayable",
					"type": "function"
				},
				{
					"inputs": [
						{
							"internalType": "uint256",
							"name": "amount",
							"type": "uint256"
						}
					],
					"name": "receiveUSDC",
					"outputs": [],
					"stateMutability": "nonpayable",
					"type": "function"
				},
				{
					"inputs": [
						{
							"internalType": "uint256",
							"name": "amount",
							"type": "uint256"
						}
					],
					"name": "refundUSDC",
					"outputs": [],
					"stateMutability": "nonpayable",
					"type": "function"
				},
				{
					"inputs": [],
					"name": "renounceOwnership",
					"outputs": [],
					"stateMutability": "nonpayable",
					"type": "function"
				},
				{
					"inputs": [
						{
							"internalType": "address",
							"name": "storageAddress",
							"type": "address"
						}
					],
					"name": "setStorageContractAddress",
					"outputs": [],
					"stateMutability": "nonpayable",
					"type": "function"
				},
				{
					"inputs": [
						{
							"internalType": "uint256",
							"name": "unixTime",
							"type": "uint256"
						}
					],
					"name": "setendTime",
					"outputs": [],
					"stateMutability": "nonpayable",
					"type": "function"
				},
				{
					"inputs": [
						{
							"internalType": "uint256",
							"name": "unixTime",
							"type": "uint256"
						}
					],
					"name": "setstartTime",
					"outputs": [],
					"stateMutability": "nonpayable",
					"type": "function"
				},
				{
					"inputs": [],
					"name": "storageContract",
					"outputs": [
						{
							"internalType": "address",
							"name": "",
							"type": "address"
						}
					],
					"stateMutability": "view",
					"type": "function"
				},
				{
					"inputs": [
						{
							"internalType": "address",
							"name": "newOwner",
							"type": "address"
						}
					],
					"name": "transferOwnership",
					"outputs": [],
					"stateMutability": "nonpayable",
					"type": "function"
				},
				{
					"inputs": [],
					"name": "treasuryAddress",
					"outputs": [
						{
							"internalType": "address",
							"name": "",
							"type": "address"
						}
					],
					"stateMutability": "view",
					"type": "function"
				},
				{
					"inputs": [
						{
							"internalType": "address",
							"name": "",
							"type": "address"
						}
					],
					"name": "usdcBalances",
					"outputs": [
						{
							"internalType": "uint256",
							"name": "",
							"type": "uint256"
						}
					],
					"stateMutability": "view",
					"type": "function"
				},
				{
					"inputs": [],
					"name": "usdcToken",
					"outputs": [
						{
							"internalType": "contract ERC20",
							"name": "",
							"type": "address"
						}
					],
					"stateMutability": "view",
					"type": "function"
				}
			],
			"devdoc": {
				"kind": "dev",
				"methods": {
					"owner()": {
						"details": "Returns the address of the current owner."
					},
					"renounceOwnership()": {
						"details": "Leaves the contract without owner. It will not be possible to call `onlyOwner` functions anymore. Can only be called by the current owner. NOTE: Renouncing ownership will leave the contract without an owner, thereby removing any functionality that is only available to the owner."
					},
					"transferOwnership(address)": {
						"details": "Transfers ownership of the contract to a new account (`newOwner`). Can only be called by the current owner."
					}
				},
				"version": 1
			},
			"evm": {
				"assembly": "    /* \"contracts/Founding Citizens NFT Sale.sol\":2080:5760  contract FoundingNFTSale is Ownable {\r... */\n  mstore(0x40, 0x80)\n    /* \"contracts/Founding Citizens NFT Sale.sol\":2301:2311  1893484800 */\n  0x70dc4900\n    /* \"contracts/Founding Citizens NFT Sale.sol\":2283:2311  uint startTime  = 1893484800 */\n  0x05\n  sstore\n    /* \"contracts/Founding Citizens NFT Sale.sol\":2414:2424  1893484900 */\n  0x70dc4964\n    /* \"contracts/Founding Citizens NFT Sale.sol\":2396:2424  uint endTime    = 1893484900 */\n  0x06\n  sstore\n    /* \"contracts/Founding Citizens NFT Sale.sol\":2451:2453  10 */\n  0x0a\n    /* \"contracts/Founding Citizens NFT Sale.sol\":2433:2453  uint startPrice = 10 */\n  0x07\n  sstore\n    /* \"contracts/Founding Citizens NFT Sale.sol\":2509:2510  1 */\n  0x01\n    /* \"contracts/Founding Citizens NFT Sale.sol\":2493:2510  uint EndPrice = 1 */\n  0x08\n  sstore\n    /* \"contracts/Founding Citizens NFT Sale.sol\":2690:2727  Update(10000, block.timestamp, false) */\n  mload(0x40)\n  dup1\n  0x60\n  add\n  0x40\n  mstore\n  dup1\n    /* \"contracts/Founding Citizens NFT Sale.sol\":2697:2702  10000 */\n  0x2710\n    /* \"contracts/Founding Citizens NFT Sale.sol\":2690:2727  Update(10000, block.timestamp, false) */\n  dup2\n  mstore\n  0x20\n  add\n    /* \"contracts/Founding Citizens NFT Sale.sol\":2704:2719  block.timestamp */\n  timestamp\n    /* \"contracts/Founding Citizens NFT Sale.sol\":2690:2727  Update(10000, block.timestamp, false) */\n  dup2\n  mstore\n  0x20\n  add\n    /* \"contracts/Founding Citizens NFT Sale.sol\":2721:2726  false */\n  0x00\n    /* \"contracts/Founding Citizens NFT Sale.sol\":2690:2727  Update(10000, block.timestamp, false) */\n  iszero\n  iszero\n  dup2\n  mstore\n  pop\n    /* \"contracts/Founding Citizens NFT Sale.sol\":2663:2727  Update public lastUpdate = Update(10000, block.timestamp, false) */\n  0x09\n  0x00\n  dup3\n  add\n  mload\n  dup2\n  0x00\n  add\n  sstore\n  0x20\n  dup3\n  add\n  mload\n  dup2\n  0x01\n  add\n  sstore\n  0x40\n  dup3\n  add\n  mload\n  dup2\n  0x02\n  add\n  exp(0x0100, 0x00)\n  dup2\n  sload\n  dup2\n  0xff\n  mul\n  not\n  and\n  swap1\n  dup4\n  iszero\n  iszero\n  mul\n  or\n  swap1\n  sstore\n  pop\n  pop\n  pop\n    /* \"contracts/Founding Citizens NFT Sale.sol\":2952:3046  constructor() {\r... */\n  callvalue\n  dup1\n  iszero\n  tag_1\n  jumpi\n  0x00\n  dup1\n  revert\ntag_1:\n  pop\n    /* \"@openzeppelin/contracts@4.4.2/access/Ownable.sol\":921:953  _transferOwnership(_msgSender()) */\n  tag_5\n    /* \"@openzeppelin/contracts@4.4.2/access/Ownable.sol\":940:952  _msgSender() */\n  tag_6\n    /* \"@openzeppelin/contracts@4.4.2/access/Ownable.sol\":940:950  _msgSender */\n  shl(0x20, tag_7)\n    /* \"@openzeppelin/contracts@4.4.2/access/Ownable.sol\":940:952  _msgSender() */\n  0x20\n  shr\n  jump\t// in\ntag_6:\n    /* \"@openzeppelin/contracts@4.4.2/access/Ownable.sol\":921:939  _transferOwnership */\n  shl(0x20, tag_8)\n    /* \"@openzeppelin/contracts@4.4.2/access/Ownable.sol\":921:953  _transferOwnership(_msgSender()) */\n  0x20\n  shr\n  jump\t// in\ntag_5:\n    /* \"contracts/Founding Citizens NFT Sale.sol\":2995:3037  0xe11A86849d99F524cAC3E7A0Ec1241828e332C62 */\n  0xe11a86849d99f524cac3e7a0ec1241828e332c62\n    /* \"contracts/Founding Citizens NFT Sale.sol\":2977:2986  usdcToken */\n  0x03\n  0x00\n    /* \"contracts/Founding Citizens NFT Sale.sol\":2977:3038  usdcToken = ERC20(0xe11A86849d99F524cAC3E7A0Ec1241828e332C62) */\n  0x0100\n  exp\n  dup2\n  sload\n  dup2\n  0xffffffffffffffffffffffffffffffffffffffff\n  mul\n  not\n  and\n  swap1\n  dup4\n  0xffffffffffffffffffffffffffffffffffffffff\n  and\n  mul\n  or\n  swap1\n  sstore\n  pop\n    /* \"contracts/Founding Citizens NFT Sale.sol\":2080:5760  contract FoundingNFTSale is Ownable {\r... */\n  jump(tag_10)\n    /* \"@openzeppelin/contracts@4.4.2/utils/Context.sol\":640:736  function _msgSender() internal view virtual returns (address) {... */\ntag_7:\n    /* \"@openzeppelin/contracts@4.4.2/utils/Context.sol\":693:700  address */\n  0x00\n    /* \"@openzeppelin/contracts@4.4.2/utils/Context.sol\":719:729  msg.sender */\n  caller\n    /* \"@openzeppelin/contracts@4.4.2/utils/Context.sol\":712:729  return msg.sender */\n  swap1\n  pop\n    /* \"@openzeppelin/contracts@4.4.2/utils/Context.sol\":640:736  function _msgSender() internal view virtual returns (address) {... */\n  swap1\n  jump\t// out\n    /* \"@openzeppelin/contracts@4.4.2/access/Ownable.sol\":2270:2457  function _transferOwnership(address newOwner) internal virtual {... */\ntag_8:\n    /* \"@openzeppelin/contracts@4.4.2/access/Ownable.sol\":2343:2359  address oldOwner */\n  0x00\n    /* \"@openzeppelin/contracts@4.4.2/access/Ownable.sol\":2362:2368  _owner */\n  dup1\n  0x00\n  swap1\n  sload\n  swap1\n  0x0100\n  exp\n  swap1\n  div\n  0xffffffffffffffffffffffffffffffffffffffff\n  and\n    /* \"@openzeppelin/contracts@4.4.2/access/Ownable.sol\":2343:2368  address oldOwner = _owner */\n  swap1\n  pop\n    /* \"@openzeppelin/contracts@4.4.2/access/Ownable.sol\":2387:2395  newOwner */\n  dup2\n    /* \"@openzeppelin/contracts@4.4.2/access/Ownable.sol\":2378:2384  _owner */\n  0x00\n  dup1\n    /* \"@openzeppelin/contracts@4.4.2/access/Ownable.sol\":2378:2395  _owner = newOwner */\n  0x0100\n  exp\n  dup2\n  sload\n  dup2\n  0xffffffffffffffffffffffffffffffffffffffff\n  mul\n  not\n  and\n  swap1\n  dup4\n  0xffffffffffffffffffffffffffffffffffffffff\n  and\n  mul\n  or\n  swap1\n  sstore\n  pop\n    /* \"@openzeppelin/contracts@4.4.2/access/Ownable.sol\":2441:2449  newOwner */\n  dup2\n    /* \"@openzeppelin/contracts@4.4.2/access/Ownable.sol\":2410:2450  OwnershipTransferred(oldOwner, newOwner) */\n  0xffffffffffffffffffffffffffffffffffffffff\n  and\n    /* \"@openzeppelin/contracts@4.4.2/access/Ownable.sol\":2431:2439  oldOwner */\n  dup2\n    /* \"@openzeppelin/contracts@4.4.2/access/Ownable.sol\":2410:2450  OwnershipTransferred(oldOwner, newOwner) */\n  0xffffffffffffffffffffffffffffffffffffffff\n  and\n  0x8be0079c531659141344cd1fd0a4f28419497f9722a3daafe3b4186f6b6457e0\n  mload(0x40)\n  mload(0x40)\n  dup1\n  swap2\n  sub\n  swap1\n  log3\n    /* \"@openzeppelin/contracts@4.4.2/access/Ownable.sol\":2270:2457  function _transferOwnership(address newOwner) internal virtual {... */\n  pop\n  pop\n  jump\t// out\n    /* \"contracts/Founding Citizens NFT Sale.sol\":2080:5760  contract FoundingNFTSale is Ownable {\r... */\ntag_10:\n  dataSize(sub_0)\n  dup1\n  dataOffset(sub_0)\n  0x00\n  codecopy\n  0x00\n  return\nstop\n\nsub_0: assembly {\n        /* \"contracts/Founding Citizens NFT Sale.sol\":2080:5760  contract FoundingNFTSale is Ownable {\r... */\n      mstore(0x40, 0x80)\n      callvalue\n      dup1\n      iszero\n      tag_1\n      jumpi\n      0x00\n      dup1\n      revert\n    tag_1:\n      pop\n      jumpi(tag_2, lt(calldatasize, 0x04))\n      shr(0xe0, calldataload(0x00))\n      dup1\n      0xa99c68c5\n      gt\n      tag_21\n      jumpi\n      dup1\n      0xc5f956af\n      gt\n      tag_22\n      jumpi\n      dup1\n      0xc5f956af\n      eq\n      tag_16\n      jumpi\n      dup1\n      0xddb4acd0\n      eq\n      tag_17\n      jumpi\n      dup1\n      0xeba5794d\n      eq\n      tag_18\n      jumpi\n      dup1\n      0xf121da92\n      eq\n      tag_19\n      jumpi\n      dup1\n      0xf2fde38b\n      eq\n      tag_20\n      jumpi\n      jump(tag_2)\n    tag_22:\n      dup1\n      0xa99c68c5\n      eq\n      tag_12\n      jumpi\n      dup1\n      0xb79d283f\n      eq\n      tag_13\n      jumpi\n      dup1\n      0xbff29cee\n      eq\n      tag_14\n      jumpi\n      dup1\n      0xc0463711\n      eq\n      tag_15\n      jumpi\n      jump(tag_2)\n    tag_21:\n      dup1\n      0x68fc01a2\n      gt\n      tag_23\n      jumpi\n      dup1\n      0x68fc01a2\n      eq\n      tag_7\n      jumpi\n      dup1\n      0x715018a6\n      eq\n      tag_8\n      jumpi\n      dup1\n      0x8da5cb5b\n      eq\n      tag_9\n      jumpi\n      dup1\n      0x91232f18\n      eq\n      tag_10\n      jumpi\n      dup1\n      0x944044a1\n      eq\n      tag_11\n      jumpi\n      jump(tag_2)\n    tag_23:\n      dup1\n      0x11ce0267\n      eq\n      tag_3\n      jumpi\n      dup1\n      0x11eac855\n      eq\n      tag_4\n      jumpi\n      dup1\n      0x4c0f38c2\n      eq\n      tag_5\n      jumpi\n      dup1\n      0x51f7598c\n      eq\n      tag_6\n      jumpi\n    tag_2:\n      0x00\n      dup1\n      revert\n        /* \"contracts/Founding Citizens NFT Sale.sol\":2123:2153  address public storageContract */\n    tag_3:\n      tag_24\n      tag_25\n      jump\t// in\n    tag_24:\n      mload(0x40)\n      tag_26\n      swap2\n      swap1\n      tag_27\n      jump\t// in\n    tag_26:\n      mload(0x40)\n      dup1\n      swap2\n      sub\n      swap1\n      return\n        /* \"contracts/Founding Citizens NFT Sale.sol\":2199:2221  ERC20 public usdcToken */\n    tag_4:\n      tag_28\n      tag_29\n      jump\t// in\n    tag_28:\n      mload(0x40)\n      tag_30\n      swap2\n      swap1\n      tag_31\n      jump\t// in\n    tag_30:\n      mload(0x40)\n      dup1\n      swap2\n      sub\n      swap1\n      return\n        /* \"contracts/Founding Citizens NFT Sale.sol\":4118:4238  function getMaxSupply() public view returns(uint) {\r... */\n    tag_5:\n      tag_32\n      tag_33\n      jump\t// in\n    tag_32:\n      mload(0x40)\n      tag_34\n      swap2\n      swap1\n      tag_35\n      jump\t// in\n    tag_34:\n      mload(0x40)\n      dup1\n      swap2\n      sub\n      swap1\n      return\n        /* \"contracts/Founding Citizens NFT Sale.sol\":3553:3680  function setStorageContractAddress(address storageAddress) public onlyOwner {\r... */\n    tag_6:\n      tag_36\n      0x04\n      dup1\n      calldatasize\n      sub\n      dup2\n      add\n      swap1\n      tag_37\n      swap2\n      swap1\n      tag_38\n      jump\t// in\n    tag_37:\n      tag_39\n      jump\t// in\n    tag_36:\n      stop\n        /* \"contracts/Founding Citizens NFT Sale.sol\":3978:4110  function getNextUnusedToken() public view returns(uint) {\r... */\n    tag_7:\n      tag_40\n      tag_41\n      jump\t// in\n    tag_40:\n      mload(0x40)\n      tag_42\n      swap2\n      swap1\n      tag_35\n      jump\t// in\n    tag_42:\n      mload(0x40)\n      dup1\n      swap2\n      sub\n      swap1\n      return\n        /* \"@openzeppelin/contracts@4.4.2/access/Ownable.sol\":1668:1769  function renounceOwnership() public virtual onlyOwner {... */\n    tag_8:\n      tag_43\n      tag_44\n      jump\t// in\n    tag_43:\n      stop\n        /* \"@openzeppelin/contracts@4.4.2/access/Ownable.sol\":1036:1121  function owner() public view virtual returns (address) {... */\n    tag_9:\n      tag_45\n      tag_46\n      jump\t// in\n    tag_45:\n      mload(0x40)\n      tag_47\n      swap2\n      swap1\n      tag_27\n      jump\t// in\n    tag_47:\n      mload(0x40)\n      dup1\n      swap2\n      sub\n      swap1\n      return\n        /* \"contracts/Founding Citizens NFT Sale.sol\":5384:5757  function mintToTreasuryAddress() public requiresUpdate {\r... */\n    tag_10:\n      tag_48\n      tag_49\n      jump\t// in\n    tag_48:\n      stop\n        /* \"contracts/Founding Citizens NFT Sale.sol\":4246:4339  function setstartTime(uint unixTime) public onlyOwner {\r... */\n    tag_11:\n      tag_50\n      0x04\n      dup1\n      calldatasize\n      sub\n      dup2\n      add\n      swap1\n      tag_51\n      swap2\n      swap1\n      tag_52\n      jump\t// in\n    tag_51:\n      tag_53\n      jump\t// in\n    tag_50:\n      stop\n        /* \"contracts/Founding Citizens NFT Sale.sol\":2229:2274  mapping (address => uint) public usdcBalances */\n    tag_12:\n      tag_54\n      0x04\n      dup1\n      calldatasize\n      sub\n      dup2\n      add\n      swap1\n      tag_55\n      swap2\n      swap1\n      tag_38\n      jump\t// in\n    tag_55:\n      tag_56\n      jump\t// in\n    tag_54:\n      mload(0x40)\n      tag_57\n      swap2\n      swap1\n      tag_35\n      jump\t// in\n    tag_57:\n      mload(0x40)\n      dup1\n      swap2\n      sub\n      swap1\n      return\n        /* \"contracts/Founding Citizens NFT Sale.sol\":4347:4436  function setendTime(uint unixTime) public onlyOwner {\r... */\n    tag_13:\n      tag_58\n      0x04\n      dup1\n      calldatasize\n      sub\n      dup2\n      add\n      swap1\n      tag_59\n      swap2\n      swap1\n      tag_52\n      jump\t// in\n    tag_59:\n      tag_60\n      jump\t// in\n    tag_58:\n      stop\n        /* \"contracts/Founding Citizens NFT Sale.sol\":5073:5376  function buyNFT() public requiresUpdate { //requires using existing balance\r... */\n    tag_14:\n      tag_61\n      tag_62\n      jump\t// in\n    tag_61:\n      stop\n        /* \"contracts/Founding Citizens NFT Sale.sol\":2663:2727  Update public lastUpdate = Update(10000, block.timestamp, false) */\n    tag_15:\n      tag_63\n      tag_64\n      jump\t// in\n    tag_63:\n      mload(0x40)\n      tag_65\n      swap4\n      swap3\n      swap2\n      swap1\n      tag_66\n      jump\t// in\n    tag_65:\n      mload(0x40)\n      dup1\n      swap2\n      sub\n      swap1\n      return\n        /* \"contracts/Founding Citizens NFT Sale.sol\":2160:2190  address public treasuryAddress */\n    tag_16:\n      tag_67\n      tag_68\n      jump\t// in\n    tag_67:\n      mload(0x40)\n      tag_69\n      swap2\n      swap1\n      tag_27\n      jump\t// in\n    tag_69:\n      mload(0x40)\n      dup1\n      swap2\n      sub\n      swap1\n      return\n        /* \"contracts/Founding Citizens NFT Sale.sol\":4516:4835  function receiveUSDC(uint amount) public {\r... */\n    tag_17:\n      tag_70\n      0x04\n      dup1\n      calldatasize\n      sub\n      dup2\n      add\n      swap1\n      tag_71\n      swap2\n      swap1\n      tag_52\n      jump\t// in\n    tag_71:\n      tag_72\n      jump\t// in\n    tag_70:\n      stop\n        /* \"contracts/Founding Citizens NFT Sale.sol\":4904:5065  function refundUSDC(uint amount) public {\r... */\n    tag_18:\n      tag_73\n      0x04\n      dup1\n      calldatasize\n      sub\n      dup2\n      add\n      swap1\n      tag_74\n      swap2\n      swap1\n      tag_52\n      jump\t// in\n    tag_74:\n      tag_75\n      jump\t// in\n    tag_73:\n      stop\n        /* \"contracts/Founding Citizens NFT Sale.sol\":3820:3970  function preLoadURIs(uint[] memory ids, string[] memory uris) public onlyOwner {\r... */\n    tag_19:\n      tag_76\n      0x04\n      dup1\n      calldatasize\n      sub\n      dup2\n      add\n      swap1\n      tag_77\n      swap2\n      swap1\n      tag_78\n      jump\t// in\n    tag_77:\n      tag_79\n      jump\t// in\n    tag_76:\n      stop\n        /* \"@openzeppelin/contracts@4.4.2/access/Ownable.sol\":1918:2116  function transferOwnership(address newOwner) public virtual onlyOwner {... */\n    tag_20:\n      tag_80\n      0x04\n      dup1\n      calldatasize\n      sub\n      dup2\n      add\n      swap1\n      tag_81\n      swap2\n      swap1\n      tag_38\n      jump\t// in\n    tag_81:\n      tag_82\n      jump\t// in\n    tag_80:\n      stop\n        /* \"contracts/Founding Citizens NFT Sale.sol\":2123:2153  address public storageContract */\n    tag_25:\n      0x01\n      0x00\n      swap1\n      sload\n      swap1\n      0x0100\n      exp\n      swap1\n      div\n      0xffffffffffffffffffffffffffffffffffffffff\n      and\n      dup2\n      jump\t// out\n        /* \"contracts/Founding Citizens NFT Sale.sol\":2199:2221  ERC20 public usdcToken */\n    tag_29:\n      0x03\n      0x00\n      swap1\n      sload\n      swap1\n      0x0100\n      exp\n      swap1\n      div\n      0xffffffffffffffffffffffffffffffffffffffff\n      and\n      dup2\n      jump\t// out\n        /* \"contracts/Founding Citizens NFT Sale.sol\":4118:4238  function getMaxSupply() public view returns(uint) {\r... */\n    tag_33:\n        /* \"contracts/Founding Citizens NFT Sale.sol\":4162:4166  uint */\n      0x00\n        /* \"contracts/Founding Citizens NFT Sale.sol\":4199:4214  storageContract */\n      0x01\n      0x00\n      swap1\n      sload\n      swap1\n      0x0100\n      exp\n      swap1\n      div\n      0xffffffffffffffffffffffffffffffffffffffff\n      and\n        /* \"contracts/Founding Citizens NFT Sale.sol\":4186:4228  IMintStorage(storageContract).getMaxSupply */\n      0xffffffffffffffffffffffffffffffffffffffff\n      and\n      0x4c0f38c2\n        /* \"contracts/Founding Citizens NFT Sale.sol\":4186:4230  IMintStorage(storageContract).getMaxSupply() */\n      mload(0x40)\n      dup2\n      0xffffffff\n      and\n      0xe0\n      shl\n      dup2\n      mstore\n      0x04\n      add\n      0x20\n      mload(0x40)\n      dup1\n      dup4\n      sub\n      dup2\n      dup7\n      dup1\n      extcodesize\n      iszero\n      dup1\n      iszero\n      tag_84\n      jumpi\n      0x00\n      dup1\n      revert\n    tag_84:\n      pop\n      gas\n      staticcall\n      iszero\n      dup1\n      iszero\n      tag_86\n      jumpi\n      returndatasize\n      0x00\n      dup1\n      returndatacopy\n      revert(0x00, returndatasize)\n    tag_86:\n      pop\n      pop\n      pop\n      pop\n      mload(0x40)\n      returndatasize\n      not(0x1f)\n      0x1f\n      dup3\n      add\n      and\n      dup3\n      add\n      dup1\n      0x40\n      mstore\n      pop\n      dup2\n      add\n      swap1\n      tag_87\n      swap2\n      swap1\n      tag_88\n      jump\t// in\n    tag_87:\n        /* \"contracts/Founding Citizens NFT Sale.sol\":4179:4230  return IMintStorage(storageContract).getMaxSupply() */\n      swap1\n      pop\n        /* \"contracts/Founding Citizens NFT Sale.sol\":4118:4238  function getMaxSupply() public view returns(uint) {\r... */\n      swap1\n      jump\t// out\n        /* \"contracts/Founding Citizens NFT Sale.sol\":3553:3680  function setStorageContractAddress(address storageAddress) public onlyOwner {\r... */\n    tag_39:\n        /* \"@openzeppelin/contracts@4.4.2/access/Ownable.sol\":1259:1271  _msgSender() */\n      tag_90\n        /* \"@openzeppelin/contracts@4.4.2/access/Ownable.sol\":1259:1269  _msgSender */\n      tag_91\n        /* \"@openzeppelin/contracts@4.4.2/access/Ownable.sol\":1259:1271  _msgSender() */\n      jump\t// in\n    tag_90:\n        /* \"@openzeppelin/contracts@4.4.2/access/Ownable.sol\":1248:1271  owner() == _msgSender() */\n      0xffffffffffffffffffffffffffffffffffffffff\n      and\n        /* \"@openzeppelin/contracts@4.4.2/access/Ownable.sol\":1248:1255  owner() */\n      tag_92\n        /* \"@openzeppelin/contracts@4.4.2/access/Ownable.sol\":1248:1253  owner */\n      tag_46\n        /* \"@openzeppelin/contracts@4.4.2/access/Ownable.sol\":1248:1255  owner() */\n      jump\t// in\n    tag_92:\n        /* \"@openzeppelin/contracts@4.4.2/access/Ownable.sol\":1248:1271  owner() == _msgSender() */\n      0xffffffffffffffffffffffffffffffffffffffff\n      and\n      eq\n        /* \"@openzeppelin/contracts@4.4.2/access/Ownable.sol\":1240:1308  require(owner() == _msgSender(), \"Ownable: caller is not the owner\") */\n      tag_93\n      jumpi\n      mload(0x40)\n      0x08c379a000000000000000000000000000000000000000000000000000000000\n      dup2\n      mstore\n      0x04\n      add\n      tag_94\n      swap1\n      tag_95\n      jump\t// in\n    tag_94:\n      mload(0x40)\n      dup1\n      swap2\n      sub\n      swap1\n      revert\n    tag_93:\n        /* \"contracts/Founding Citizens NFT Sale.sol\":3658:3672  storageAddress */\n      dup1\n        /* \"contracts/Founding Citizens NFT Sale.sol\":3640:3655  storageContract */\n      0x01\n      0x00\n        /* \"contracts/Founding Citizens NFT Sale.sol\":3640:3672  storageContract = storageAddress */\n      0x0100\n      exp\n      dup2\n      sload\n      dup2\n      0xffffffffffffffffffffffffffffffffffffffff\n      mul\n      not\n      and\n      swap1\n      dup4\n      0xffffffffffffffffffffffffffffffffffffffff\n      and\n      mul\n      or\n      swap1\n      sstore\n      pop\n        /* \"contracts/Founding Citizens NFT Sale.sol\":3553:3680  function setStorageContractAddress(address storageAddress) public onlyOwner {\r... */\n      pop\n      jump\t// out\n        /* \"contracts/Founding Citizens NFT Sale.sol\":3978:4110  function getNextUnusedToken() public view returns(uint) {\r... */\n    tag_41:\n        /* \"contracts/Founding Citizens NFT Sale.sol\":4028:4032  uint */\n      0x00\n        /* \"contracts/Founding Citizens NFT Sale.sol\":4065:4080  storageContract */\n      0x01\n      0x00\n      swap1\n      sload\n      swap1\n      0x0100\n      exp\n      swap1\n      div\n      0xffffffffffffffffffffffffffffffffffffffff\n      and\n        /* \"contracts/Founding Citizens NFT Sale.sol\":4052:4100  IMintStorage(storageContract).getNextUnusedToken */\n      0xffffffffffffffffffffffffffffffffffffffff\n      and\n      0x68fc01a2\n        /* \"contracts/Founding Citizens NFT Sale.sol\":4052:4102  IMintStorage(storageContract).getNextUnusedToken() */\n      mload(0x40)\n      dup2\n      0xffffffff\n      and\n      0xe0\n      shl\n      dup2\n      mstore\n      0x04\n      add\n      0x20\n      mload(0x40)\n      dup1\n      dup4\n      sub\n      dup2\n      dup7\n      dup1\n      extcodesize\n      iszero\n      dup1\n      iszero\n      tag_98\n      jumpi\n      0x00\n      dup1\n      revert\n    tag_98:\n      pop\n      gas\n      staticcall\n      iszero\n      dup1\n      iszero\n      tag_100\n      jumpi\n      returndatasize\n      0x00\n      dup1\n      returndatacopy\n      revert(0x00, returndatasize)\n    tag_100:\n      pop\n      pop\n      pop\n      pop\n      mload(0x40)\n      returndatasize\n      not(0x1f)\n      0x1f\n      dup3\n      add\n      and\n      dup3\n      add\n      dup1\n      0x40\n      mstore\n      pop\n      dup2\n      add\n      swap1\n      tag_101\n      swap2\n      swap1\n      tag_88\n      jump\t// in\n    tag_101:\n        /* \"contracts/Founding Citizens NFT Sale.sol\":4045:4102  return IMintStorage(storageContract).getNextUnusedToken() */\n      swap1\n      pop\n        /* \"contracts/Founding Citizens NFT Sale.sol\":3978:4110  function getNextUnusedToken() public view returns(uint) {\r... */\n      swap1\n      jump\t// out\n        /* \"@openzeppelin/contracts@4.4.2/access/Ownable.sol\":1668:1769  function renounceOwnership() public virtual onlyOwner {... */\n    tag_44:\n        /* \"@openzeppelin/contracts@4.4.2/access/Ownable.sol\":1259:1271  _msgSender() */\n      tag_103\n        /* \"@openzeppelin/contracts@4.4.2/access/Ownable.sol\":1259:1269  _msgSender */\n      tag_91\n        /* \"@openzeppelin/contracts@4.4.2/access/Ownable.sol\":1259:1271  _msgSender() */\n      jump\t// in\n    tag_103:\n        /* \"@openzeppelin/contracts@4.4.2/access/Ownable.sol\":1248:1271  owner() == _msgSender() */\n      0xffffffffffffffffffffffffffffffffffffffff\n      and\n        /* \"@openzeppelin/contracts@4.4.2/access/Ownable.sol\":1248:1255  owner() */\n      tag_104\n        /* \"@openzeppelin/contracts@4.4.2/access/Ownable.sol\":1248:1253  owner */\n      tag_46\n        /* \"@openzeppelin/contracts@4.4.2/access/Ownable.sol\":1248:1255  owner() */\n      jump\t// in\n    tag_104:\n        /* \"@openzeppelin/contracts@4.4.2/access/Ownable.sol\":1248:1271  owner() == _msgSender() */\n      0xffffffffffffffffffffffffffffffffffffffff\n      and\n      eq\n        /* \"@openzeppelin/contracts@4.4.2/access/Ownable.sol\":1240:1308  require(owner() == _msgSender(), \"Ownable: caller is not the owner\") */\n      tag_105\n      jumpi\n      mload(0x40)\n      0x08c379a000000000000000000000000000000000000000000000000000000000\n      dup2\n      mstore\n      0x04\n      add\n      tag_106\n      swap1\n      tag_95\n      jump\t// in\n    tag_106:\n      mload(0x40)\n      dup1\n      swap2\n      sub\n      swap1\n      revert\n    tag_105:\n        /* \"@openzeppelin/contracts@4.4.2/access/Ownable.sol\":1732:1762  _transferOwnership(address(0)) */\n      tag_108\n        /* \"@openzeppelin/contracts@4.4.2/access/Ownable.sol\":1759:1760  0 */\n      0x00\n        /* \"@openzeppelin/contracts@4.4.2/access/Ownable.sol\":1732:1750  _transferOwnership */\n      tag_109\n        /* \"@openzeppelin/contracts@4.4.2/access/Ownable.sol\":1732:1762  _transferOwnership(address(0)) */\n      jump\t// in\n    tag_108:\n        /* \"@openzeppelin/contracts@4.4.2/access/Ownable.sol\":1668:1769  function renounceOwnership() public virtual onlyOwner {... */\n      jump\t// out\n        /* \"@openzeppelin/contracts@4.4.2/access/Ownable.sol\":1036:1121  function owner() public view virtual returns (address) {... */\n    tag_46:\n        /* \"@openzeppelin/contracts@4.4.2/access/Ownable.sol\":1082:1089  address */\n      0x00\n        /* \"@openzeppelin/contracts@4.4.2/access/Ownable.sol\":1108:1114  _owner */\n      dup1\n      0x00\n      swap1\n      sload\n      swap1\n      0x0100\n      exp\n      swap1\n      div\n      0xffffffffffffffffffffffffffffffffffffffff\n      and\n        /* \"@openzeppelin/contracts@4.4.2/access/Ownable.sol\":1101:1114  return _owner */\n      swap1\n      pop\n        /* \"@openzeppelin/contracts@4.4.2/access/Ownable.sol\":1036:1121  function owner() public view virtual returns (address) {... */\n      swap1\n      jump\t// out\n        /* \"contracts/Founding Citizens NFT Sale.sol\":5384:5757  function mintToTreasuryAddress() public requiresUpdate {\r... */\n    tag_49:\n        /* \"contracts/Founding Citizens NFT Sale.sol\":2773:2786  updateState() */\n      tag_112\n        /* \"contracts/Founding Citizens NFT Sale.sol\":2773:2784  updateState */\n      tag_113\n        /* \"contracts/Founding Citizens NFT Sale.sol\":2773:2786  updateState() */\n      jump\t// in\n    tag_112:\n        /* \"contracts/Founding Citizens NFT Sale.sol\":5476:5483  endTime */\n      sload(0x06)\n        /* \"contracts/Founding Citizens NFT Sale.sol\":5458:5473  block.timestamp */\n      timestamp\n        /* \"contracts/Founding Citizens NFT Sale.sol\":5458:5483  block.timestamp > endTime */\n      gt\n        /* \"contracts/Founding Citizens NFT Sale.sol\":5458:5509  block.timestamp > endTime && !lastUpdate.saleIsLive */\n      dup1\n      iszero\n      tag_115\n      jumpi\n      pop\n        /* \"contracts/Founding Citizens NFT Sale.sol\":5488:5498  lastUpdate */\n      0x09\n        /* \"contracts/Founding Citizens NFT Sale.sol\":5488:5509  lastUpdate.saleIsLive */\n      0x02\n      add\n      0x00\n      swap1\n      sload\n      swap1\n      0x0100\n      exp\n      swap1\n      div\n      0xff\n      and\n        /* \"contracts/Founding Citizens NFT Sale.sol\":5487:5509  !lastUpdate.saleIsLive */\n      iszero\n        /* \"contracts/Founding Citizens NFT Sale.sol\":5458:5509  block.timestamp > endTime && !lastUpdate.saleIsLive */\n    tag_115:\n        /* \"contracts/Founding Citizens NFT Sale.sol\":5450:5568  require(block.timestamp > endTime && !lastUpdate.saleIsLive, \"Cannot mint to treasury address until sale is finished\") */\n      tag_116\n      jumpi\n      mload(0x40)\n      0x08c379a000000000000000000000000000000000000000000000000000000000\n      dup2\n      mstore\n      0x04\n      add\n      tag_117\n      swap1\n      tag_118\n      jump\t// in\n    tag_117:\n      mload(0x40)\n      dup1\n      swap2\n      sub\n      swap1\n      revert\n    tag_116:\n        /* \"contracts/Founding Citizens NFT Sale.sol\":5579:5594  uint leftToMint */\n      0x00\n        /* \"contracts/Founding Citizens NFT Sale.sol\":5636:5637  1 */\n      0x01\n        /* \"contracts/Founding Citizens NFT Sale.sol\":5615:5635  getNextUnusedToken() */\n      tag_119\n        /* \"contracts/Founding Citizens NFT Sale.sol\":5615:5633  getNextUnusedToken */\n      tag_41\n        /* \"contracts/Founding Citizens NFT Sale.sol\":5615:5635  getNextUnusedToken() */\n      jump\t// in\n    tag_119:\n        /* \"contracts/Founding Citizens NFT Sale.sol\":5615:5637  getNextUnusedToken()-1 */\n      tag_120\n      swap2\n      swap1\n      tag_121\n      jump\t// in\n    tag_120:\n        /* \"contracts/Founding Citizens NFT Sale.sol\":5597:5611  getMaxSupply() */\n      tag_122\n        /* \"contracts/Founding Citizens NFT Sale.sol\":5597:5609  getMaxSupply */\n      tag_33\n        /* \"contracts/Founding Citizens NFT Sale.sol\":5597:5611  getMaxSupply() */\n      jump\t// in\n    tag_122:\n        /* \"contracts/Founding Citizens NFT Sale.sol\":5597:5638  getMaxSupply() - (getNextUnusedToken()-1) */\n      tag_123\n      swap2\n      swap1\n      tag_121\n      jump\t// in\n    tag_123:\n        /* \"contracts/Founding Citizens NFT Sale.sol\":5579:5638  uint leftToMint = getMaxSupply() - (getNextUnusedToken()-1) */\n      swap1\n      pop\n        /* \"contracts/Founding Citizens NFT Sale.sol\":5649:5750  for (; leftToMint > 0; leftToMint--) {\r... */\n    tag_124:\n        /* \"contracts/Founding Citizens NFT Sale.sol\":5669:5670  0 */\n      0x00\n        /* \"contracts/Founding Citizens NFT Sale.sol\":5656:5666  leftToMint */\n      dup2\n        /* \"contracts/Founding Citizens NFT Sale.sol\":5656:5670  leftToMint > 0 */\n      gt\n        /* \"contracts/Founding Citizens NFT Sale.sol\":5649:5750  for (; leftToMint > 0; leftToMint--) {\r... */\n      iszero\n      tag_125\n      jumpi\n        /* \"contracts/Founding Citizens NFT Sale.sol\":5701:5738  mintNextNftToAddress(treasuryAddress) */\n      tag_127\n        /* \"contracts/Founding Citizens NFT Sale.sol\":5722:5737  treasuryAddress */\n      0x02\n      0x00\n      swap1\n      sload\n      swap1\n      0x0100\n      exp\n      swap1\n      div\n      0xffffffffffffffffffffffffffffffffffffffff\n      and\n        /* \"contracts/Founding Citizens NFT Sale.sol\":5701:5721  mintNextNftToAddress */\n      tag_128\n        /* \"contracts/Founding Citizens NFT Sale.sol\":5701:5738  mintNextNftToAddress(treasuryAddress) */\n      jump\t// in\n    tag_127:\n        /* \"contracts/Founding Citizens NFT Sale.sol\":5672:5684  leftToMint-- */\n      dup1\n      dup1\n      tag_129\n      swap1\n      tag_130\n      jump\t// in\n    tag_129:\n      swap2\n      pop\n      pop\n        /* \"contracts/Founding Citizens NFT Sale.sol\":5649:5750  for (; leftToMint > 0; leftToMint--) {\r... */\n      jump(tag_124)\n    tag_125:\n        /* \"contracts/Founding Citizens NFT Sale.sol\":2797:2798  _ */\n      pop\n        /* \"contracts/Founding Citizens NFT Sale.sol\":5384:5757  function mintToTreasuryAddress() public requiresUpdate {\r... */\n      jump\t// out\n        /* \"contracts/Founding Citizens NFT Sale.sol\":4246:4339  function setstartTime(uint unixTime) public onlyOwner {\r... */\n    tag_53:\n        /* \"@openzeppelin/contracts@4.4.2/access/Ownable.sol\":1259:1271  _msgSender() */\n      tag_132\n        /* \"@openzeppelin/contracts@4.4.2/access/Ownable.sol\":1259:1269  _msgSender */\n      tag_91\n        /* \"@openzeppelin/contracts@4.4.2/access/Ownable.sol\":1259:1271  _msgSender() */\n      jump\t// in\n    tag_132:\n        /* \"@openzeppelin/contracts@4.4.2/access/Ownable.sol\":1248:1271  owner() == _msgSender() */\n      0xffffffffffffffffffffffffffffffffffffffff\n      and\n        /* \"@openzeppelin/contracts@4.4.2/access/Ownable.sol\":1248:1255  owner() */\n      tag_133\n        /* \"@openzeppelin/contracts@4.4.2/access/Ownable.sol\":1248:1253  owner */\n      tag_46\n        /* \"@openzeppelin/contracts@4.4.2/access/Ownable.sol\":1248:1255  owner() */\n      jump\t// in\n    tag_133:\n        /* \"@openzeppelin/contracts@4.4.2/access/Ownable.sol\":1248:1271  owner() == _msgSender() */\n      0xffffffffffffffffffffffffffffffffffffffff\n      and\n      eq\n        /* \"@openzeppelin/contracts@4.4.2/access/Ownable.sol\":1240:1308  require(owner() == _msgSender(), \"Ownable: caller is not the owner\") */\n      tag_134\n      jumpi\n      mload(0x40)\n      0x08c379a000000000000000000000000000000000000000000000000000000000\n      dup2\n      mstore\n      0x04\n      add\n      tag_135\n      swap1\n      tag_95\n      jump\t// in\n    tag_135:\n      mload(0x40)\n      dup1\n      swap2\n      sub\n      swap1\n      revert\n    tag_134:\n        /* \"contracts/Founding Citizens NFT Sale.sol\":4323:4331  unixTime */\n      dup1\n        /* \"contracts/Founding Citizens NFT Sale.sol\":4311:4320  startTime */\n      0x05\n        /* \"contracts/Founding Citizens NFT Sale.sol\":4311:4331  startTime = unixTime */\n      dup2\n      swap1\n      sstore\n      pop\n        /* \"contracts/Founding Citizens NFT Sale.sol\":4246:4339  function setstartTime(uint unixTime) public onlyOwner {\r... */\n      pop\n      jump\t// out\n        /* \"contracts/Founding Citizens NFT Sale.sol\":2229:2274  mapping (address => uint) public usdcBalances */\n    tag_56:\n      mstore(0x20, 0x04)\n      dup1\n      0x00\n      mstore\n      keccak256(0x00, 0x40)\n      0x00\n      swap2\n      pop\n      swap1\n      pop\n      sload\n      dup2\n      jump\t// out\n        /* \"contracts/Founding Citizens NFT Sale.sol\":4347:4436  function setendTime(uint unixTime) public onlyOwner {\r... */\n    tag_60:\n        /* \"@openzeppelin/contracts@4.4.2/access/Ownable.sol\":1259:1271  _msgSender() */\n      tag_138\n        /* \"@openzeppelin/contracts@4.4.2/access/Ownable.sol\":1259:1269  _msgSender */\n      tag_91\n        /* \"@openzeppelin/contracts@4.4.2/access/Ownable.sol\":1259:1271  _msgSender() */\n      jump\t// in\n    tag_138:\n        /* \"@openzeppelin/contracts@4.4.2/access/Ownable.sol\":1248:1271  owner() == _msgSender() */\n      0xffffffffffffffffffffffffffffffffffffffff\n      and\n        /* \"@openzeppelin/contracts@4.4.2/access/Ownable.sol\":1248:1255  owner() */\n      tag_139\n        /* \"@openzeppelin/contracts@4.4.2/access/Ownable.sol\":1248:1253  owner */\n      tag_46\n        /* \"@openzeppelin/contracts@4.4.2/access/Ownable.sol\":1248:1255  owner() */\n      jump\t// in\n    tag_139:\n        /* \"@openzeppelin/contracts@4.4.2/access/Ownable.sol\":1248:1271  owner() == _msgSender() */\n      0xffffffffffffffffffffffffffffffffffffffff\n      and\n      eq\n        /* \"@openzeppelin/contracts@4.4.2/access/Ownable.sol\":1240:1308  require(owner() == _msgSender(), \"Ownable: caller is not the owner\") */\n      tag_140\n      jumpi\n      mload(0x40)\n      0x08c379a000000000000000000000000000000000000000000000000000000000\n      dup2\n      mstore\n      0x04\n      add\n      tag_141\n      swap1\n      tag_95\n      jump\t// in\n    tag_141:\n      mload(0x40)\n      dup1\n      swap2\n      sub\n      swap1\n      revert\n    tag_140:\n        /* \"contracts/Founding Citizens NFT Sale.sol\":4420:4428  unixTime */\n      dup1\n        /* \"contracts/Founding Citizens NFT Sale.sol\":4410:4417  endTime */\n      0x06\n        /* \"contracts/Founding Citizens NFT Sale.sol\":4410:4428  endTime = unixTime */\n      dup2\n      swap1\n      sstore\n      pop\n        /* \"contracts/Founding Citizens NFT Sale.sol\":4347:4436  function setendTime(uint unixTime) public onlyOwner {\r... */\n      pop\n      jump\t// out\n        /* \"contracts/Founding Citizens NFT Sale.sol\":5073:5376  function buyNFT() public requiresUpdate { //requires using existing balance\r... */\n    tag_62:\n        /* \"contracts/Founding Citizens NFT Sale.sol\":2773:2786  updateState() */\n      tag_144\n        /* \"contracts/Founding Citizens NFT Sale.sol\":2773:2784  updateState */\n      tag_113\n        /* \"contracts/Founding Citizens NFT Sale.sol\":2773:2786  updateState() */\n      jump\t// in\n    tag_144:\n        /* \"contracts/Founding Citizens NFT Sale.sol\":5193:5203  lastUpdate */\n      0x09\n        /* \"contracts/Founding Citizens NFT Sale.sol\":5193:5209  lastUpdate.price */\n      0x00\n      add\n      sload\n        /* \"contracts/Founding Citizens NFT Sale.sol\":5166:5178  usdcBalances */\n      0x04\n        /* \"contracts/Founding Citizens NFT Sale.sol\":5166:5190  usdcBalances[msg.sender] */\n      0x00\n        /* \"contracts/Founding Citizens NFT Sale.sol\":5179:5189  msg.sender */\n      caller\n        /* \"contracts/Founding Citizens NFT Sale.sol\":5166:5190  usdcBalances[msg.sender] */\n      0xffffffffffffffffffffffffffffffffffffffff\n      and\n      0xffffffffffffffffffffffffffffffffffffffff\n      and\n      dup2\n      mstore\n      0x20\n      add\n      swap1\n      dup2\n      mstore\n      0x20\n      add\n      0x00\n      keccak256\n      sload\n        /* \"contracts/Founding Citizens NFT Sale.sol\":5166:5209  usdcBalances[msg.sender] > lastUpdate.price */\n      gt\n        /* \"contracts/Founding Citizens NFT Sale.sol\":5158:5270  require(usdcBalances[msg.sender] > lastUpdate.price, \"your USDC balance is less than the current auction price\") */\n      tag_146\n      jumpi\n      mload(0x40)\n      0x08c379a000000000000000000000000000000000000000000000000000000000\n      dup2\n      mstore\n      0x04\n      add\n      tag_147\n      swap1\n      tag_148\n      jump\t// in\n    tag_147:\n      mload(0x40)\n      dup1\n      swap2\n      sub\n      swap1\n      revert\n    tag_146:\n        /* \"contracts/Founding Citizens NFT Sale.sol\":5309:5319  lastUpdate */\n      0x09\n        /* \"contracts/Founding Citizens NFT Sale.sol\":5309:5325  lastUpdate.price */\n      0x00\n      add\n      sload\n        /* \"contracts/Founding Citizens NFT Sale.sol\":5281:5293  usdcBalances */\n      0x04\n        /* \"contracts/Founding Citizens NFT Sale.sol\":5281:5305  usdcBalances[msg.sender] */\n      0x00\n        /* \"contracts/Founding Citizens NFT Sale.sol\":5294:5304  msg.sender */\n      caller\n        /* \"contracts/Founding Citizens NFT Sale.sol\":5281:5305  usdcBalances[msg.sender] */\n      0xffffffffffffffffffffffffffffffffffffffff\n      and\n      0xffffffffffffffffffffffffffffffffffffffff\n      and\n      dup2\n      mstore\n      0x20\n      add\n      swap1\n      dup2\n      mstore\n      0x20\n      add\n      0x00\n      keccak256\n      0x00\n        /* \"contracts/Founding Citizens NFT Sale.sol\":5281:5325  usdcBalances[msg.sender] -= lastUpdate.price */\n      dup3\n      dup3\n      sload\n      tag_149\n      swap2\n      swap1\n      tag_121\n      jump\t// in\n    tag_149:\n      swap3\n      pop\n      pop\n      dup2\n      swap1\n      sstore\n      pop\n        /* \"contracts/Founding Citizens NFT Sale.sol\":5336:5368  mintNextNftToAddress(msg.sender) */\n      tag_150\n        /* \"contracts/Founding Citizens NFT Sale.sol\":5357:5367  msg.sender */\n      caller\n        /* \"contracts/Founding Citizens NFT Sale.sol\":5336:5356  mintNextNftToAddress */\n      tag_128\n        /* \"contracts/Founding Citizens NFT Sale.sol\":5336:5368  mintNextNftToAddress(msg.sender) */\n      jump\t// in\n    tag_150:\n        /* \"contracts/Founding Citizens NFT Sale.sol\":5073:5376  function buyNFT() public requiresUpdate { //requires using existing balance\r... */\n      jump\t// out\n        /* \"contracts/Founding Citizens NFT Sale.sol\":2663:2727  Update public lastUpdate = Update(10000, block.timestamp, false) */\n    tag_64:\n      0x09\n      dup1\n      0x00\n      add\n      sload\n      swap1\n      dup1\n      0x01\n      add\n      sload\n      swap1\n      dup1\n      0x02\n      add\n      0x00\n      swap1\n      sload\n      swap1\n      0x0100\n      exp\n      swap1\n      div\n      0xff\n      and\n      swap1\n      pop\n      dup4\n      jump\t// out\n        /* \"contracts/Founding Citizens NFT Sale.sol\":2160:2190  address public treasuryAddress */\n    tag_68:\n      0x02\n      0x00\n      swap1\n      sload\n      swap1\n      0x0100\n      exp\n      swap1\n      div\n      0xffffffffffffffffffffffffffffffffffffffff\n      and\n      dup2\n      jump\t// out\n        /* \"contracts/Founding Citizens NFT Sale.sol\":4516:4835  function receiveUSDC(uint amount) public {\r... */\n    tag_72:\n        /* \"contracts/Founding Citizens NFT Sale.sol\":4585:4586  0 */\n      0x00\n        /* \"contracts/Founding Citizens NFT Sale.sol\":4576:4582  amount */\n      dup2\n        /* \"contracts/Founding Citizens NFT Sale.sol\":4576:4586  amount > 0 */\n      gt\n        /* \"contracts/Founding Citizens NFT Sale.sol\":4568:4634  require(amount > 0, \"amount transferred must be a positive value\") */\n      tag_152\n      jumpi\n      mload(0x40)\n      0x08c379a000000000000000000000000000000000000000000000000000000000\n      dup2\n      mstore\n      0x04\n      add\n      tag_153\n      swap1\n      tag_154\n      jump\t// in\n    tag_153:\n      mload(0x40)\n      dup1\n      swap2\n      sub\n      swap1\n      revert\n    tag_152:\n        /* \"contracts/Founding Citizens NFT Sale.sol\":4725:4734  usdcToken */\n      0x03\n      0x00\n      swap1\n      sload\n      swap1\n      0x0100\n      exp\n      swap1\n      div\n      0xffffffffffffffffffffffffffffffffffffffff\n      and\n        /* \"contracts/Founding Citizens NFT Sale.sol\":4725:4747  usdcToken.transferFrom */\n      0xffffffffffffffffffffffffffffffffffffffff\n      and\n      0x23b872dd\n        /* \"contracts/Founding Citizens NFT Sale.sol\":4748:4758  msg.sender */\n      caller\n        /* \"contracts/Founding Citizens NFT Sale.sol\":4768:4772  this */\n      address\n        /* \"contracts/Founding Citizens NFT Sale.sol\":4775:4781  amount */\n      dup5\n        /* \"contracts/Founding Citizens NFT Sale.sol\":4725:4782  usdcToken.transferFrom(msg.sender, address(this), amount) */\n      mload(0x40)\n      dup5\n      0xffffffff\n      and\n      0xe0\n      shl\n      dup2\n      mstore\n      0x04\n      add\n      tag_155\n      swap4\n      swap3\n      swap2\n      swap1\n      tag_156\n      jump\t// in\n    tag_155:\n      0x20\n      mload(0x40)\n      dup1\n      dup4\n      sub\n      dup2\n      0x00\n      dup8\n      dup1\n      extcodesize\n      iszero\n      dup1\n      iszero\n      tag_157\n      jumpi\n      0x00\n      dup1\n      revert\n    tag_157:\n      pop\n      gas\n      call\n      iszero\n      dup1\n      iszero\n      tag_159\n      jumpi\n      returndatasize\n      0x00\n      dup1\n      returndatacopy\n      revert(0x00, returndatasize)\n    tag_159:\n      pop\n      pop\n      pop\n      pop\n      mload(0x40)\n      returndatasize\n      not(0x1f)\n      0x1f\n      dup3\n      add\n      and\n      dup3\n      add\n      dup1\n      0x40\n      mstore\n      pop\n      dup2\n      add\n      swap1\n      tag_160\n      swap2\n      swap1\n      tag_161\n      jump\t// in\n    tag_160:\n      pop\n        /* \"contracts/Founding Citizens NFT Sale.sol\":4821:4827  amount */\n      dup1\n        /* \"contracts/Founding Citizens NFT Sale.sol\":4793:4805  usdcBalances */\n      0x04\n        /* \"contracts/Founding Citizens NFT Sale.sol\":4793:4817  usdcBalances[msg.sender] */\n      0x00\n        /* \"contracts/Founding Citizens NFT Sale.sol\":4806:4816  msg.sender */\n      caller\n        /* \"contracts/Founding Citizens NFT Sale.sol\":4793:4817  usdcBalances[msg.sender] */\n      0xffffffffffffffffffffffffffffffffffffffff\n      and\n      0xffffffffffffffffffffffffffffffffffffffff\n      and\n      dup2\n      mstore\n      0x20\n      add\n      swap1\n      dup2\n      mstore\n      0x20\n      add\n      0x00\n      keccak256\n      0x00\n        /* \"contracts/Founding Citizens NFT Sale.sol\":4793:4827  usdcBalances[msg.sender] += amount */\n      dup3\n      dup3\n      sload\n      tag_162\n      swap2\n      swap1\n      tag_163\n      jump\t// in\n    tag_162:\n      swap3\n      pop\n      pop\n      dup2\n      swap1\n      sstore\n      pop\n        /* \"contracts/Founding Citizens NFT Sale.sol\":4516:4835  function receiveUSDC(uint amount) public {\r... */\n      pop\n      jump\t// out\n        /* \"contracts/Founding Citizens NFT Sale.sol\":4904:5065  function refundUSDC(uint amount) public {\r... */\n    tag_75:\n        /* \"contracts/Founding Citizens NFT Sale.sol\":4983:4989  amount */\n      dup1\n        /* \"contracts/Founding Citizens NFT Sale.sol\":4955:4967  usdcBalances */\n      0x04\n        /* \"contracts/Founding Citizens NFT Sale.sol\":4955:4979  usdcBalances[msg.sender] */\n      0x00\n        /* \"contracts/Founding Citizens NFT Sale.sol\":4968:4978  msg.sender */\n      caller\n        /* \"contracts/Founding Citizens NFT Sale.sol\":4955:4979  usdcBalances[msg.sender] */\n      0xffffffffffffffffffffffffffffffffffffffff\n      and\n      0xffffffffffffffffffffffffffffffffffffffff\n      and\n      dup2\n      mstore\n      0x20\n      add\n      swap1\n      dup2\n      mstore\n      0x20\n      add\n      0x00\n      keccak256\n      0x00\n        /* \"contracts/Founding Citizens NFT Sale.sol\":4955:4989  usdcBalances[msg.sender] -= amount */\n      dup3\n      dup3\n      sload\n      tag_165\n      swap2\n      swap1\n      tag_121\n      jump\t// in\n    tag_165:\n      swap3\n      pop\n      pop\n      dup2\n      swap1\n      sstore\n      pop\n        /* \"contracts/Founding Citizens NFT Sale.sol\":5000:5009  usdcToken */\n      0x03\n      0x00\n      swap1\n      sload\n      swap1\n      0x0100\n      exp\n      swap1\n      div\n      0xffffffffffffffffffffffffffffffffffffffff\n      and\n        /* \"contracts/Founding Citizens NFT Sale.sol\":5000:5022  usdcToken.transferFrom */\n      0xffffffffffffffffffffffffffffffffffffffff\n      and\n      0x23b872dd\n        /* \"contracts/Founding Citizens NFT Sale.sol\":5031:5035  this */\n      address\n        /* \"contracts/Founding Citizens NFT Sale.sol\":5038:5048  msg.sender */\n      caller\n        /* \"contracts/Founding Citizens NFT Sale.sol\":5050:5056  amount */\n      dup5\n        /* \"contracts/Founding Citizens NFT Sale.sol\":5000:5057  usdcToken.transferFrom(address(this), msg.sender, amount) */\n      mload(0x40)\n      dup5\n      0xffffffff\n      and\n      0xe0\n      shl\n      dup2\n      mstore\n      0x04\n      add\n      tag_166\n      swap4\n      swap3\n      swap2\n      swap1\n      tag_156\n      jump\t// in\n    tag_166:\n      0x20\n      mload(0x40)\n      dup1\n      dup4\n      sub\n      dup2\n      0x00\n      dup8\n      dup1\n      extcodesize\n      iszero\n      dup1\n      iszero\n      tag_167\n      jumpi\n      0x00\n      dup1\n      revert\n    tag_167:\n      pop\n      gas\n      call\n      iszero\n      dup1\n      iszero\n      tag_169\n      jumpi\n      returndatasize\n      0x00\n      dup1\n      returndatacopy\n      revert(0x00, returndatasize)\n    tag_169:\n      pop\n      pop\n      pop\n      pop\n      mload(0x40)\n      returndatasize\n      not(0x1f)\n      0x1f\n      dup3\n      add\n      and\n      dup3\n      add\n      dup1\n      0x40\n      mstore\n      pop\n      dup2\n      add\n      swap1\n      tag_170\n      swap2\n      swap1\n      tag_161\n      jump\t// in\n    tag_170:\n      pop\n        /* \"contracts/Founding Citizens NFT Sale.sol\":4904:5065  function refundUSDC(uint amount) public {\r... */\n      pop\n      jump\t// out\n        /* \"contracts/Founding Citizens NFT Sale.sol\":3820:3970  function preLoadURIs(uint[] memory ids, string[] memory uris) public onlyOwner {\r... */\n    tag_79:\n        /* \"@openzeppelin/contracts@4.4.2/access/Ownable.sol\":1259:1271  _msgSender() */\n      tag_172\n        /* \"@openzeppelin/contracts@4.4.2/access/Ownable.sol\":1259:1269  _msgSender */\n      tag_91\n        /* \"@openzeppelin/contracts@4.4.2/access/Ownable.sol\":1259:1271  _msgSender() */\n      jump\t// in\n    tag_172:\n        /* \"@openzeppelin/contracts@4.4.2/access/Ownable.sol\":1248:1271  owner() == _msgSender() */\n      0xffffffffffffffffffffffffffffffffffffffff\n      and\n        /* \"@openzeppelin/contracts@4.4.2/access/Ownable.sol\":1248:1255  owner() */\n      tag_173\n        /* \"@openzeppelin/contracts@4.4.2/access/Ownable.sol\":1248:1253  owner */\n      tag_46\n        /* \"@openzeppelin/contracts@4.4.2/access/Ownable.sol\":1248:1255  owner() */\n      jump\t// in\n    tag_173:\n        /* \"@openzeppelin/contracts@4.4.2/access/Ownable.sol\":1248:1271  owner() == _msgSender() */\n      0xffffffffffffffffffffffffffffffffffffffff\n      and\n      eq\n        /* \"@openzeppelin/contracts@4.4.2/access/Ownable.sol\":1240:1308  require(owner() == _msgSender(), \"Ownable: caller is not the owner\") */\n      tag_174\n      jumpi\n      mload(0x40)\n      0x08c379a000000000000000000000000000000000000000000000000000000000\n      dup2\n      mstore\n      0x04\n      add\n      tag_175\n      swap1\n      tag_95\n      jump\t// in\n    tag_175:\n      mload(0x40)\n      dup1\n      swap2\n      sub\n      swap1\n      revert\n    tag_174:\n        /* \"contracts/Founding Citizens NFT Sale.sol\":3923:3938  storageContract */\n      0x01\n      0x00\n      swap1\n      sload\n      swap1\n      0x0100\n      exp\n      swap1\n      div\n      0xffffffffffffffffffffffffffffffffffffffff\n      and\n        /* \"contracts/Founding Citizens NFT Sale.sol\":3910:3951  IMintStorage(storageContract).preLoadURIs */\n      0xffffffffffffffffffffffffffffffffffffffff\n      and\n      0xf121da92\n        /* \"contracts/Founding Citizens NFT Sale.sol\":3952:3955  ids */\n      dup4\n        /* \"contracts/Founding Citizens NFT Sale.sol\":3957:3961  uris */\n      dup4\n        /* \"contracts/Founding Citizens NFT Sale.sol\":3910:3962  IMintStorage(storageContract).preLoadURIs(ids, uris) */\n      mload(0x40)\n      dup4\n      0xffffffff\n      and\n      0xe0\n      shl\n      dup2\n      mstore\n      0x04\n      add\n      tag_177\n      swap3\n      swap2\n      swap1\n      tag_178\n      jump\t// in\n    tag_177:\n      0x00\n      mload(0x40)\n      dup1\n      dup4\n      sub\n      dup2\n      0x00\n      dup8\n      dup1\n      extcodesize\n      iszero\n      dup1\n      iszero\n      tag_179\n      jumpi\n      0x00\n      dup1\n      revert\n    tag_179:\n      pop\n      gas\n      call\n      iszero\n      dup1\n      iszero\n      tag_181\n      jumpi\n      returndatasize\n      0x00\n      dup1\n      returndatacopy\n      revert(0x00, returndatasize)\n    tag_181:\n      pop\n      pop\n      pop\n      pop\n        /* \"contracts/Founding Citizens NFT Sale.sol\":3820:3970  function preLoadURIs(uint[] memory ids, string[] memory uris) public onlyOwner {\r... */\n      pop\n      pop\n      jump\t// out\n        /* \"@openzeppelin/contracts@4.4.2/access/Ownable.sol\":1918:2116  function transferOwnership(address newOwner) public virtual onlyOwner {... */\n    tag_82:\n        /* \"@openzeppelin/contracts@4.4.2/access/Ownable.sol\":1259:1271  _msgSender() */\n      tag_183\n        /* \"@openzeppelin/contracts@4.4.2/access/Ownable.sol\":1259:1269  _msgSender */\n      tag_91\n        /* \"@openzeppelin/contracts@4.4.2/access/Ownable.sol\":1259:1271  _msgSender() */\n      jump\t// in\n    tag_183:\n        /* \"@openzeppelin/contracts@4.4.2/access/Ownable.sol\":1248:1271  owner() == _msgSender() */\n      0xffffffffffffffffffffffffffffffffffffffff\n      and\n        /* \"@openzeppelin/contracts@4.4.2/access/Ownable.sol\":1248:1255  owner() */\n      tag_184\n        /* \"@openzeppelin/contracts@4.4.2/access/Ownable.sol\":1248:1253  owner */\n      tag_46\n        /* \"@openzeppelin/contracts@4.4.2/access/Ownable.sol\":1248:1255  owner() */\n      jump\t// in\n    tag_184:\n        /* \"@openzeppelin/contracts@4.4.2/access/Ownable.sol\":1248:1271  owner() == _msgSender() */\n      0xffffffffffffffffffffffffffffffffffffffff\n      and\n      eq\n        /* \"@openzeppelin/contracts@4.4.2/access/Ownable.sol\":1240:1308  require(owner() == _msgSender(), \"Ownable: caller is not the owner\") */\n      tag_185\n      jumpi\n      mload(0x40)\n      0x08c379a000000000000000000000000000000000000000000000000000000000\n      dup2\n      mstore\n      0x04\n      add\n      tag_186\n      swap1\n      tag_95\n      jump\t// in\n    tag_186:\n      mload(0x40)\n      dup1\n      swap2\n      sub\n      swap1\n      revert\n    tag_185:\n        /* \"@openzeppelin/contracts@4.4.2/access/Ownable.sol\":2026:2027  0 */\n      0x00\n        /* \"@openzeppelin/contracts@4.4.2/access/Ownable.sol\":2006:2028  newOwner != address(0) */\n      0xffffffffffffffffffffffffffffffffffffffff\n      and\n        /* \"@openzeppelin/contracts@4.4.2/access/Ownable.sol\":2006:2014  newOwner */\n      dup2\n        /* \"@openzeppelin/contracts@4.4.2/access/Ownable.sol\":2006:2028  newOwner != address(0) */\n      0xffffffffffffffffffffffffffffffffffffffff\n      and\n      eq\n      iszero\n        /* \"@openzeppelin/contracts@4.4.2/access/Ownable.sol\":1998:2071  require(newOwner != address(0), \"Ownable: new owner is the zero address\") */\n      tag_188\n      jumpi\n      mload(0x40)\n      0x08c379a000000000000000000000000000000000000000000000000000000000\n      dup2\n      mstore\n      0x04\n      add\n      tag_189\n      swap1\n      tag_190\n      jump\t// in\n    tag_189:\n      mload(0x40)\n      dup1\n      swap2\n      sub\n      swap1\n      revert\n    tag_188:\n        /* \"@openzeppelin/contracts@4.4.2/access/Ownable.sol\":2081:2109  _transferOwnership(newOwner) */\n      tag_191\n        /* \"@openzeppelin/contracts@4.4.2/access/Ownable.sol\":2100:2108  newOwner */\n      dup2\n        /* \"@openzeppelin/contracts@4.4.2/access/Ownable.sol\":2081:2099  _transferOwnership */\n      tag_109\n        /* \"@openzeppelin/contracts@4.4.2/access/Ownable.sol\":2081:2109  _transferOwnership(newOwner) */\n      jump\t// in\n    tag_191:\n        /* \"@openzeppelin/contracts@4.4.2/access/Ownable.sol\":1918:2116  function transferOwnership(address newOwner) public virtual onlyOwner {... */\n      pop\n      jump\t// out\n        /* \"@openzeppelin/contracts@4.4.2/utils/Context.sol\":640:736  function _msgSender() internal view virtual returns (address) {... */\n    tag_91:\n        /* \"@openzeppelin/contracts@4.4.2/utils/Context.sol\":693:700  address */\n      0x00\n        /* \"@openzeppelin/contracts@4.4.2/utils/Context.sol\":719:729  msg.sender */\n      caller\n        /* \"@openzeppelin/contracts@4.4.2/utils/Context.sol\":712:729  return msg.sender */\n      swap1\n      pop\n        /* \"@openzeppelin/contracts@4.4.2/utils/Context.sol\":640:736  function _msgSender() internal view virtual returns (address) {... */\n      swap1\n      jump\t// out\n        /* \"@openzeppelin/contracts@4.4.2/access/Ownable.sol\":2270:2457  function _transferOwnership(address newOwner) internal virtual {... */\n    tag_109:\n        /* \"@openzeppelin/contracts@4.4.2/access/Ownable.sol\":2343:2359  address oldOwner */\n      0x00\n        /* \"@openzeppelin/contracts@4.4.2/access/Ownable.sol\":2362:2368  _owner */\n      dup1\n      0x00\n      swap1\n      sload\n      swap1\n      0x0100\n      exp\n      swap1\n      div\n      0xffffffffffffffffffffffffffffffffffffffff\n      and\n        /* \"@openzeppelin/contracts@4.4.2/access/Ownable.sol\":2343:2368  address oldOwner = _owner */\n      swap1\n      pop\n        /* \"@openzeppelin/contracts@4.4.2/access/Ownable.sol\":2387:2395  newOwner */\n      dup2\n        /* \"@openzeppelin/contracts@4.4.2/access/Ownable.sol\":2378:2384  _owner */\n      0x00\n      dup1\n        /* \"@openzeppelin/contracts@4.4.2/access/Ownable.sol\":2378:2395  _owner = newOwner */\n      0x0100\n      exp\n      dup2\n      sload\n      dup2\n      0xffffffffffffffffffffffffffffffffffffffff\n      mul\n      not\n      and\n      swap1\n      dup4\n      0xffffffffffffffffffffffffffffffffffffffff\n      and\n      mul\n      or\n      swap1\n      sstore\n      pop\n        /* \"@openzeppelin/contracts@4.4.2/access/Ownable.sol\":2441:2449  newOwner */\n      dup2\n        /* \"@openzeppelin/contracts@4.4.2/access/Ownable.sol\":2410:2450  OwnershipTransferred(oldOwner, newOwner) */\n      0xffffffffffffffffffffffffffffffffffffffff\n      and\n        /* \"@openzeppelin/contracts@4.4.2/access/Ownable.sol\":2431:2439  oldOwner */\n      dup2\n        /* \"@openzeppelin/contracts@4.4.2/access/Ownable.sol\":2410:2450  OwnershipTransferred(oldOwner, newOwner) */\n      0xffffffffffffffffffffffffffffffffffffffff\n      and\n      0x8be0079c531659141344cd1fd0a4f28419497f9722a3daafe3b4186f6b6457e0\n      mload(0x40)\n      mload(0x40)\n      dup1\n      swap2\n      sub\n      swap1\n      log3\n        /* \"@openzeppelin/contracts@4.4.2/access/Ownable.sol\":2270:2457  function _transferOwnership(address newOwner) internal virtual {... */\n      pop\n      pop\n      jump\t// out\n        /* \"contracts/Founding Citizens NFT Sale.sol\":3054:3545  function updateState() internal requiresConsistentState {\r... */\n    tag_113:\n        /* \"contracts/Founding Citizens NFT Sale.sol\":2881:2888  endTime */\n      sload(0x06)\n        /* \"contracts/Founding Citizens NFT Sale.sol\":2868:2877  startTime */\n      sload(0x05)\n        /* \"contracts/Founding Citizens NFT Sale.sol\":2868:2888  startTime <= endTime */\n      gt\n      iszero\n        /* \"contracts/Founding Citizens NFT Sale.sol\":2860:2924  require(startTime <= endTime, \"startTime is later than endTime\") */\n      tag_195\n      jumpi\n      mload(0x40)\n      0x08c379a000000000000000000000000000000000000000000000000000000000\n      dup2\n      mstore\n      0x04\n      add\n      tag_196\n      swap1\n      tag_197\n      jump\t// in\n    tag_196:\n      mload(0x40)\n      dup1\n      swap2\n      sub\n      swap1\n      revert\n    tag_195:\n        /* \"contracts/Founding Citizens NFT Sale.sol\":2558:2559  1 */\n      0x01\n        /* \"contracts/Founding Citizens NFT Sale.sol\":3210:3212  60 */\n      0x3c\n        /* \"contracts/Founding Citizens NFT Sale.sol\":3197:3206  startTime */\n      sload(0x05)\n        /* \"contracts/Founding Citizens NFT Sale.sol\":3179:3194  block.timestamp */\n      timestamp\n        /* \"contracts/Founding Citizens NFT Sale.sol\":3179:3206  block.timestamp - startTime */\n      tag_199\n      swap2\n      swap1\n      tag_121\n      jump\t// in\n    tag_199:\n        /* \"contracts/Founding Citizens NFT Sale.sol\":3178:3212  (block.timestamp - startTime) / 60 */\n      tag_200\n      swap2\n      swap1\n      tag_201\n      jump\t// in\n    tag_200:\n        /* \"contracts/Founding Citizens NFT Sale.sol\":3178:3237  (block.timestamp - startTime) / 60 * priceDescresePerMinute */\n      tag_202\n      swap2\n      swap1\n      tag_203\n      jump\t// in\n    tag_202:\n        /* \"contracts/Founding Citizens NFT Sale.sol\":3164:3174  startPrice */\n      sload(0x07)\n        /* \"contracts/Founding Citizens NFT Sale.sol\":3164:3238  startPrice - ((block.timestamp - startTime) / 60 * priceDescresePerMinute) */\n      tag_204\n      swap2\n      swap1\n      tag_121\n      jump\t// in\n    tag_204:\n        /* \"contracts/Founding Citizens NFT Sale.sol\":3145:3155  lastUpdate */\n      0x09\n        /* \"contracts/Founding Citizens NFT Sale.sol\":3145:3161  lastUpdate.price */\n      0x00\n      add\n        /* \"contracts/Founding Citizens NFT Sale.sol\":3145:3238  lastUpdate.price = startPrice - ((block.timestamp - startTime) / 60 * priceDescresePerMinute) */\n      dup2\n      swap1\n      sstore\n      pop\n        /* \"contracts/Founding Citizens NFT Sale.sol\":3292:3307  block.timestamp */\n      timestamp\n        /* \"contracts/Founding Citizens NFT Sale.sol\":3274:3284  lastUpdate */\n      0x09\n        /* \"contracts/Founding Citizens NFT Sale.sol\":3274:3289  lastUpdate.time */\n      0x01\n      add\n        /* \"contracts/Founding Citizens NFT Sale.sol\":3274:3307  lastUpdate.time = block.timestamp */\n      dup2\n      swap1\n      sstore\n      pop\n        /* \"contracts/Founding Citizens NFT Sale.sol\":3380:3389  startTime */\n      sload(0x05)\n        /* \"contracts/Founding Citizens NFT Sale.sol\":3361:3376  block.timestamp */\n      timestamp\n        /* \"contracts/Founding Citizens NFT Sale.sol\":3361:3389  block.timestamp >= startTime */\n      lt\n      iszero\n        /* \"contracts/Founding Citizens NFT Sale.sol\":3361:3419  block.timestamp >= startTime && block.timestamp <= endTime */\n      dup1\n      iszero\n      tag_205\n      jumpi\n      pop\n        /* \"contracts/Founding Citizens NFT Sale.sol\":3412:3419  endTime */\n      sload(0x06)\n        /* \"contracts/Founding Citizens NFT Sale.sol\":3393:3408  block.timestamp */\n      timestamp\n        /* \"contracts/Founding Citizens NFT Sale.sol\":3393:3419  block.timestamp <= endTime */\n      gt\n      iszero\n        /* \"contracts/Founding Citizens NFT Sale.sol\":3361:3419  block.timestamp >= startTime && block.timestamp <= endTime */\n    tag_205:\n        /* \"contracts/Founding Citizens NFT Sale.sol\":3357:3538  if (block.timestamp >= startTime && block.timestamp <= endTime) {\r... */\n      iszero\n      tag_206\n      jumpi\n        /* \"contracts/Founding Citizens NFT Sale.sol\":3460:3464  true */\n      0x01\n        /* \"contracts/Founding Citizens NFT Sale.sol\":3436:3446  lastUpdate */\n      0x09\n        /* \"contracts/Founding Citizens NFT Sale.sol\":3436:3457  lastUpdate.saleIsLive */\n      0x02\n      add\n      0x00\n        /* \"contracts/Founding Citizens NFT Sale.sol\":3436:3464  lastUpdate.saleIsLive = true */\n      0x0100\n      exp\n      dup2\n      sload\n      dup2\n      0xff\n      mul\n      not\n      and\n      swap1\n      dup4\n      iszero\n      iszero\n      mul\n      or\n      swap1\n      sstore\n      pop\n        /* \"contracts/Founding Citizens NFT Sale.sol\":3357:3538  if (block.timestamp >= startTime && block.timestamp <= endTime) {\r... */\n      jump(tag_207)\n    tag_206:\n        /* \"contracts/Founding Citizens NFT Sale.sol\":3521:3526  false */\n      0x00\n        /* \"contracts/Founding Citizens NFT Sale.sol\":3497:3507  lastUpdate */\n      0x09\n        /* \"contracts/Founding Citizens NFT Sale.sol\":3497:3518  lastUpdate.saleIsLive */\n      0x02\n      add\n      0x00\n        /* \"contracts/Founding Citizens NFT Sale.sol\":3497:3526  lastUpdate.saleIsLive = false */\n      0x0100\n      exp\n      dup2\n      sload\n      dup2\n      0xff\n      mul\n      not\n      and\n      swap1\n      dup4\n      iszero\n      iszero\n      mul\n      or\n      swap1\n      sstore\n      pop\n        /* \"contracts/Founding Citizens NFT Sale.sol\":3357:3538  if (block.timestamp >= startTime && block.timestamp <= endTime) {\r... */\n    tag_207:\n        /* \"contracts/Founding Citizens NFT Sale.sol\":3054:3545  function updateState() internal requiresConsistentState {\r... */\n      jump\t// out\n        /* \"contracts/Founding Citizens NFT Sale.sol\":3688:3812  function mintNextNftToAddress(address to) internal {\r... */\n    tag_128:\n        /* \"contracts/Founding Citizens NFT Sale.sol\":3763:3778  storageContract */\n      0x01\n      0x00\n      swap1\n      sload\n      swap1\n      0x0100\n      exp\n      swap1\n      div\n      0xffffffffffffffffffffffffffffffffffffffff\n      and\n        /* \"contracts/Founding Citizens NFT Sale.sol\":3750:3800  IMintStorage(storageContract).mintNextNftToAddress */\n      0xffffffffffffffffffffffffffffffffffffffff\n      and\n      0x55676590\n        /* \"contracts/Founding Citizens NFT Sale.sol\":3801:3803  to */\n      dup3\n        /* \"contracts/Founding Citizens NFT Sale.sol\":3750:3804  IMintStorage(storageContract).mintNextNftToAddress(to) */\n      mload(0x40)\n      dup3\n      0xffffffff\n      and\n      0xe0\n      shl\n      dup2\n      mstore\n      0x04\n      add\n      tag_209\n      swap2\n      swap1\n      tag_27\n      jump\t// in\n    tag_209:\n      0x00\n      mload(0x40)\n      dup1\n      dup4\n      sub\n      dup2\n      0x00\n      dup8\n      dup1\n      extcodesize\n      iszero\n      dup1\n      iszero\n      tag_210\n      jumpi\n      0x00\n      dup1\n      revert\n    tag_210:\n      pop\n      gas\n      call\n      iszero\n      dup1\n      iszero\n      tag_212\n      jumpi\n      returndatasize\n      0x00\n      dup1\n      returndatacopy\n      revert(0x00, returndatasize)\n    tag_212:\n      pop\n      pop\n      pop\n      pop\n        /* \"contracts/Founding Citizens NFT Sale.sol\":3688:3812  function mintNextNftToAddress(address to) internal {\r... */\n      pop\n      jump\t// out\n        /* \"#utility.yul\":23:639   */\n    tag_214:\n      0x00\n        /* \"#utility.yul\":154:245   */\n      tag_216\n        /* \"#utility.yul\":170:244   */\n      tag_217\n        /* \"#utility.yul\":237:243   */\n      dup5\n        /* \"#utility.yul\":170:244   */\n      tag_218\n      jump\t// in\n    tag_217:\n        /* \"#utility.yul\":154:245   */\n      tag_219\n      jump\t// in\n    tag_216:\n        /* \"#utility.yul\":145:245   */\n      swap1\n      pop\n        /* \"#utility.yul\":265:270   */\n      dup1\n        /* \"#utility.yul\":293:299   */\n      dup4\n        /* \"#utility.yul\":286:291   */\n      dup3\n        /* \"#utility.yul\":279:300   */\n      mstore\n        /* \"#utility.yul\":319:323   */\n      0x20\n        /* \"#utility.yul\":312:317   */\n      dup3\n        /* \"#utility.yul\":308:324   */\n      add\n        /* \"#utility.yul\":301:324   */\n      swap1\n      pop\n        /* \"#utility.yul\":344:350   */\n      dup3\n        /* \"#utility.yul\":375:376   */\n      0x00\n        /* \"#utility.yul\":360:633   */\n    tag_220:\n        /* \"#utility.yul\":385:391   */\n      dup6\n        /* \"#utility.yul\":382:383   */\n      dup2\n        /* \"#utility.yul\":379:392   */\n      lt\n        /* \"#utility.yul\":360:633   */\n      iszero\n      tag_222\n      jumpi\n        /* \"#utility.yul\":477:480   */\n      dup2\n        /* \"#utility.yul\":464:481   */\n      calldataload\n        /* \"#utility.yul\":456:462   */\n      dup6\n        /* \"#utility.yul\":452:482   */\n      add\n        /* \"#utility.yul\":507:554   */\n      tag_223\n        /* \"#utility.yul\":550:553   */\n      dup9\n        /* \"#utility.yul\":538:548   */\n      dup3\n        /* \"#utility.yul\":507:554   */\n      tag_224\n      jump\t// in\n    tag_223:\n        /* \"#utility.yul\":502:505   */\n      dup5\n        /* \"#utility.yul\":495:555   */\n      mstore\n        /* \"#utility.yul\":584:588   */\n      0x20\n        /* \"#utility.yul\":579:582   */\n      dup5\n        /* \"#utility.yul\":575:589   */\n      add\n        /* \"#utility.yul\":568:589   */\n      swap4\n      pop\n        /* \"#utility.yul\":618:622   */\n      0x20\n        /* \"#utility.yul\":613:616   */\n      dup4\n        /* \"#utility.yul\":609:623   */\n      add\n        /* \"#utility.yul\":602:623   */\n      swap3\n      pop\n        /* \"#utility.yul\":420:633   */\n      pop\n        /* \"#utility.yul\":407:408   */\n      0x01\n        /* \"#utility.yul\":404:405   */\n      dup2\n        /* \"#utility.yul\":400:409   */\n      add\n        /* \"#utility.yul\":395:409   */\n      swap1\n      pop\n        /* \"#utility.yul\":360:633   */\n      jump(tag_220)\n    tag_222:\n        /* \"#utility.yul\":364:378   */\n      pop\n        /* \"#utility.yul\":135:639   */\n      pop\n      pop\n      swap4\n      swap3\n      pop\n      pop\n      pop\n      jump\t// out\n        /* \"#utility.yul\":662:1285   */\n    tag_225:\n      0x00\n        /* \"#utility.yul\":783:864   */\n      tag_227\n        /* \"#utility.yul\":799:863   */\n      tag_228\n        /* \"#utility.yul\":856:862   */\n      dup5\n        /* \"#utility.yul\":799:863   */\n      tag_229\n      jump\t// in\n    tag_228:\n        /* \"#utility.yul\":783:864   */\n      tag_219\n      jump\t// in\n    tag_227:\n        /* \"#utility.yul\":774:864   */\n      swap1\n      pop\n        /* \"#utility.yul\":884:889   */\n      dup1\n        /* \"#utility.yul\":912:918   */\n      dup4\n        /* \"#utility.yul\":905:910   */\n      dup3\n        /* \"#utility.yul\":898:919   */\n      mstore\n        /* \"#utility.yul\":938:942   */\n      0x20\n        /* \"#utility.yul\":931:936   */\n      dup3\n        /* \"#utility.yul\":927:943   */\n      add\n        /* \"#utility.yul\":920:943   */\n      swap1\n      pop\n        /* \"#utility.yul\":963:969   */\n      dup3\n        /* \"#utility.yul\":1013:1016   */\n      dup6\n        /* \"#utility.yul\":1005:1009   */\n      0x20\n        /* \"#utility.yul\":997:1003   */\n      dup7\n        /* \"#utility.yul\":993:1010   */\n      mul\n        /* \"#utility.yul\":988:991   */\n      dup3\n        /* \"#utility.yul\":984:1011   */\n      add\n        /* \"#utility.yul\":981:1017   */\n      gt\n        /* \"#utility.yul\":978:980   */\n      iszero\n      tag_230\n      jumpi\n        /* \"#utility.yul\":1030:1031   */\n      0x00\n        /* \"#utility.yul\":1027:1028   */\n      dup1\n        /* \"#utility.yul\":1020:1032   */\n      revert\n        /* \"#utility.yul\":978:980   */\n    tag_230:\n        /* \"#utility.yul\":1058:1059   */\n      0x00\n        /* \"#utility.yul\":1043:1279   */\n    tag_231:\n        /* \"#utility.yul\":1068:1074   */\n      dup6\n        /* \"#utility.yul\":1065:1066   */\n      dup2\n        /* \"#utility.yul\":1062:1075   */\n      lt\n        /* \"#utility.yul\":1043:1279   */\n      iszero\n      tag_233\n      jumpi\n        /* \"#utility.yul\":1135:1138   */\n      dup2\n        /* \"#utility.yul\":1163:1200   */\n      tag_234\n        /* \"#utility.yul\":1196:1199   */\n      dup9\n        /* \"#utility.yul\":1184:1194   */\n      dup3\n        /* \"#utility.yul\":1163:1200   */\n      tag_235\n      jump\t// in\n    tag_234:\n        /* \"#utility.yul\":1158:1161   */\n      dup5\n        /* \"#utility.yul\":1151:1201   */\n      mstore\n        /* \"#utility.yul\":1230:1234   */\n      0x20\n        /* \"#utility.yul\":1225:1228   */\n      dup5\n        /* \"#utility.yul\":1221:1235   */\n      add\n        /* \"#utility.yul\":1214:1235   */\n      swap4\n      pop\n        /* \"#utility.yul\":1264:1268   */\n      0x20\n        /* \"#utility.yul\":1259:1262   */\n      dup4\n        /* \"#utility.yul\":1255:1269   */\n      add\n        /* \"#utility.yul\":1248:1269   */\n      swap3\n      pop\n        /* \"#utility.yul\":1103:1279   */\n      pop\n        /* \"#utility.yul\":1090:1091   */\n      0x01\n        /* \"#utility.yul\":1087:1088   */\n      dup2\n        /* \"#utility.yul\":1083:1092   */\n      add\n        /* \"#utility.yul\":1078:1092   */\n      swap1\n      pop\n        /* \"#utility.yul\":1043:1279   */\n      jump(tag_231)\n    tag_233:\n        /* \"#utility.yul\":1047:1061   */\n      pop\n        /* \"#utility.yul\":764:1285   */\n      pop\n      pop\n      swap4\n      swap3\n      pop\n      pop\n      pop\n      jump\t// out\n        /* \"#utility.yul\":1291:1636   */\n    tag_236:\n      0x00\n        /* \"#utility.yul\":1394:1460   */\n      tag_238\n        /* \"#utility.yul\":1410:1459   */\n      tag_239\n        /* \"#utility.yul\":1452:1458   */\n      dup5\n        /* \"#utility.yul\":1410:1459   */\n      tag_240\n      jump\t// in\n    tag_239:\n        /* \"#utility.yul\":1394:1460   */\n      tag_219\n      jump\t// in\n    tag_238:\n        /* \"#utility.yul\":1385:1460   */\n      swap1\n      pop\n        /* \"#utility.yul\":1483:1489   */\n      dup3\n        /* \"#utility.yul\":1476:1481   */\n      dup2\n        /* \"#utility.yul\":1469:1490   */\n      mstore\n        /* \"#utility.yul\":1521:1525   */\n      0x20\n        /* \"#utility.yul\":1514:1519   */\n      dup2\n        /* \"#utility.yul\":1510:1526   */\n      add\n        /* \"#utility.yul\":1559:1562   */\n      dup5\n        /* \"#utility.yul\":1550:1556   */\n      dup5\n        /* \"#utility.yul\":1545:1548   */\n      dup5\n        /* \"#utility.yul\":1541:1557   */\n      add\n        /* \"#utility.yul\":1538:1563   */\n      gt\n        /* \"#utility.yul\":1535:1537   */\n      iszero\n      tag_241\n      jumpi\n        /* \"#utility.yul\":1576:1577   */\n      0x00\n        /* \"#utility.yul\":1573:1574   */\n      dup1\n        /* \"#utility.yul\":1566:1578   */\n      revert\n        /* \"#utility.yul\":1535:1537   */\n    tag_241:\n        /* \"#utility.yul\":1589:1630   */\n      tag_242\n        /* \"#utility.yul\":1623:1629   */\n      dup5\n        /* \"#utility.yul\":1618:1621   */\n      dup3\n        /* \"#utility.yul\":1613:1616   */\n      dup6\n        /* \"#utility.yul\":1589:1630   */\n      tag_243\n      jump\t// in\n    tag_242:\n        /* \"#utility.yul\":1375:1636   */\n      pop\n      swap4\n      swap3\n      pop\n      pop\n      pop\n      jump\t// out\n        /* \"#utility.yul\":1642:1781   */\n    tag_244:\n      0x00\n        /* \"#utility.yul\":1726:1732   */\n      dup2\n        /* \"#utility.yul\":1713:1733   */\n      calldataload\n        /* \"#utility.yul\":1704:1733   */\n      swap1\n      pop\n        /* \"#utility.yul\":1742:1775   */\n      tag_246\n        /* \"#utility.yul\":1769:1774   */\n      dup2\n        /* \"#utility.yul\":1742:1775   */\n      tag_247\n      jump\t// in\n    tag_246:\n        /* \"#utility.yul\":1694:1781   */\n      swap3\n      swap2\n      pop\n      pop\n      jump\t// out\n        /* \"#utility.yul\":1803:2126   */\n    tag_248:\n      0x00\n        /* \"#utility.yul\":1933:1936   */\n      dup3\n        /* \"#utility.yul\":1926:1930   */\n      0x1f\n        /* \"#utility.yul\":1918:1924   */\n      dup4\n        /* \"#utility.yul\":1914:1931   */\n      add\n        /* \"#utility.yul\":1910:1937   */\n      slt\n        /* \"#utility.yul\":1900:1902   */\n      tag_250\n      jumpi\n        /* \"#utility.yul\":1951:1952   */\n      0x00\n        /* \"#utility.yul\":1948:1949   */\n      dup1\n        /* \"#utility.yul\":1941:1953   */\n      revert\n        /* \"#utility.yul\":1900:1902   */\n    tag_250:\n        /* \"#utility.yul\":1991:1997   */\n      dup2\n        /* \"#utility.yul\":1978:1998   */\n      calldataload\n        /* \"#utility.yul\":2016:2120   */\n      tag_251\n        /* \"#utility.yul\":2116:2119   */\n      dup5\n        /* \"#utility.yul\":2108:2114   */\n      dup3\n        /* \"#utility.yul\":2101:2105   */\n      0x20\n        /* \"#utility.yul\":2093:2099   */\n      dup7\n        /* \"#utility.yul\":2089:2106   */\n      add\n        /* \"#utility.yul\":2016:2120   */\n      tag_214\n      jump\t// in\n    tag_251:\n        /* \"#utility.yul\":2007:2120   */\n      swap2\n      pop\n        /* \"#utility.yul\":1890:2126   */\n      pop\n      swap3\n      swap2\n      pop\n      pop\n      jump\t// out\n        /* \"#utility.yul\":2149:2452   */\n    tag_252:\n      0x00\n        /* \"#utility.yul\":2269:2272   */\n      dup3\n        /* \"#utility.yul\":2262:2266   */\n      0x1f\n        /* \"#utility.yul\":2254:2260   */\n      dup4\n        /* \"#utility.yul\":2250:2267   */\n      add\n        /* \"#utility.yul\":2246:2273   */\n      slt\n        /* \"#utility.yul\":2236:2238   */\n      tag_254\n      jumpi\n        /* \"#utility.yul\":2287:2288   */\n      0x00\n        /* \"#utility.yul\":2284:2285   */\n      dup1\n        /* \"#utility.yul\":2277:2289   */\n      revert\n        /* \"#utility.yul\":2236:2238   */\n    tag_254:\n        /* \"#utility.yul\":2327:2333   */\n      dup2\n        /* \"#utility.yul\":2314:2334   */\n      calldataload\n        /* \"#utility.yul\":2352:2446   */\n      tag_255\n        /* \"#utility.yul\":2442:2445   */\n      dup5\n        /* \"#utility.yul\":2434:2440   */\n      dup3\n        /* \"#utility.yul\":2427:2431   */\n      0x20\n        /* \"#utility.yul\":2419:2425   */\n      dup7\n        /* \"#utility.yul\":2415:2432   */\n      add\n        /* \"#utility.yul\":2352:2446   */\n      tag_225\n      jump\t// in\n    tag_255:\n        /* \"#utility.yul\":2343:2446   */\n      swap2\n      pop\n        /* \"#utility.yul\":2226:2452   */\n      pop\n      swap3\n      swap2\n      pop\n      pop\n      jump\t// out\n        /* \"#utility.yul\":2458:2595   */\n    tag_256:\n      0x00\n        /* \"#utility.yul\":2543:2549   */\n      dup2\n        /* \"#utility.yul\":2537:2550   */\n      mload\n        /* \"#utility.yul\":2528:2550   */\n      swap1\n      pop\n        /* \"#utility.yul\":2559:2589   */\n      tag_258\n        /* \"#utility.yul\":2583:2588   */\n      dup2\n        /* \"#utility.yul\":2559:2589   */\n      tag_259\n      jump\t// in\n    tag_258:\n        /* \"#utility.yul\":2518:2595   */\n      swap3\n      swap2\n      pop\n      pop\n      jump\t// out\n        /* \"#utility.yul\":2615:2888   */\n    tag_224:\n      0x00\n        /* \"#utility.yul\":2720:2723   */\n      dup3\n        /* \"#utility.yul\":2713:2717   */\n      0x1f\n        /* \"#utility.yul\":2705:2711   */\n      dup4\n        /* \"#utility.yul\":2701:2718   */\n      add\n        /* \"#utility.yul\":2697:2724   */\n      slt\n        /* \"#utility.yul\":2687:2689   */\n      tag_261\n      jumpi\n        /* \"#utility.yul\":2738:2739   */\n      0x00\n        /* \"#utility.yul\":2735:2736   */\n      dup1\n        /* \"#utility.yul\":2728:2740   */\n      revert\n        /* \"#utility.yul\":2687:2689   */\n    tag_261:\n        /* \"#utility.yul\":2778:2784   */\n      dup2\n        /* \"#utility.yul\":2765:2785   */\n      calldataload\n        /* \"#utility.yul\":2803:2882   */\n      tag_262\n        /* \"#utility.yul\":2878:2881   */\n      dup5\n        /* \"#utility.yul\":2870:2876   */\n      dup3\n        /* \"#utility.yul\":2863:2867   */\n      0x20\n        /* \"#utility.yul\":2855:2861   */\n      dup7\n        /* \"#utility.yul\":2851:2868   */\n      add\n        /* \"#utility.yul\":2803:2882   */\n      tag_236\n      jump\t// in\n    tag_262:\n        /* \"#utility.yul\":2794:2882   */\n      swap2\n      pop\n        /* \"#utility.yul\":2677:2888   */\n      pop\n      swap3\n      swap2\n      pop\n      pop\n      jump\t// out\n        /* \"#utility.yul\":2894:3033   */\n    tag_235:\n      0x00\n        /* \"#utility.yul\":2978:2984   */\n      dup2\n        /* \"#utility.yul\":2965:2985   */\n      calldataload\n        /* \"#utility.yul\":2956:2985   */\n      swap1\n      pop\n        /* \"#utility.yul\":2994:3027   */\n      tag_264\n        /* \"#utility.yul\":3021:3026   */\n      dup2\n        /* \"#utility.yul\":2994:3027   */\n      tag_265\n      jump\t// in\n    tag_264:\n        /* \"#utility.yul\":2946:3033   */\n      swap3\n      swap2\n      pop\n      pop\n      jump\t// out\n        /* \"#utility.yul\":3039:3182   */\n    tag_266:\n      0x00\n        /* \"#utility.yul\":3127:3133   */\n      dup2\n        /* \"#utility.yul\":3121:3134   */\n      mload\n        /* \"#utility.yul\":3112:3134   */\n      swap1\n      pop\n        /* \"#utility.yul\":3143:3176   */\n      tag_268\n        /* \"#utility.yul\":3170:3175   */\n      dup2\n        /* \"#utility.yul\":3143:3176   */\n      tag_265\n      jump\t// in\n    tag_268:\n        /* \"#utility.yul\":3102:3182   */\n      swap3\n      swap2\n      pop\n      pop\n      jump\t// out\n        /* \"#utility.yul\":3188:3450   */\n    tag_38:\n      0x00\n        /* \"#utility.yul\":3296:3298   */\n      0x20\n        /* \"#utility.yul\":3284:3293   */\n      dup3\n        /* \"#utility.yul\":3275:3282   */\n      dup5\n        /* \"#utility.yul\":3271:3294   */\n      sub\n        /* \"#utility.yul\":3267:3299   */\n      slt\n        /* \"#utility.yul\":3264:3266   */\n      iszero\n      tag_270\n      jumpi\n        /* \"#utility.yul\":3312:3313   */\n      0x00\n        /* \"#utility.yul\":3309:3310   */\n      dup1\n        /* \"#utility.yul\":3302:3314   */\n      revert\n        /* \"#utility.yul\":3264:3266   */\n    tag_270:\n        /* \"#utility.yul\":3355:3356   */\n      0x00\n        /* \"#utility.yul\":3380:3433   */\n      tag_271\n        /* \"#utility.yul\":3425:3432   */\n      dup5\n        /* \"#utility.yul\":3416:3422   */\n      dup3\n        /* \"#utility.yul\":3405:3414   */\n      dup6\n        /* \"#utility.yul\":3401:3423   */\n      add\n        /* \"#utility.yul\":3380:3433   */\n      tag_244\n      jump\t// in\n    tag_271:\n        /* \"#utility.yul\":3370:3433   */\n      swap2\n      pop\n        /* \"#utility.yul\":3326:3443   */\n      pop\n        /* \"#utility.yul\":3254:3450   */\n      swap3\n      swap2\n      pop\n      pop\n      jump\t// out\n        /* \"#utility.yul\":3456:4169   */\n    tag_78:\n      0x00\n      dup1\n        /* \"#utility.yul\":3641:3643   */\n      0x40\n        /* \"#utility.yul\":3629:3638   */\n      dup4\n        /* \"#utility.yul\":3620:3627   */\n      dup6\n        /* \"#utility.yul\":3616:3639   */\n      sub\n        /* \"#utility.yul\":3612:3644   */\n      slt\n        /* \"#utility.yul\":3609:3611   */\n      iszero\n      tag_273\n      jumpi\n        /* \"#utility.yul\":3657:3658   */\n      0x00\n        /* \"#utility.yul\":3654:3655   */\n      dup1\n        /* \"#utility.yul\":3647:3659   */\n      revert\n        /* \"#utility.yul\":3609:3611   */\n    tag_273:\n        /* \"#utility.yul\":3728:3729   */\n      0x00\n        /* \"#utility.yul\":3717:3726   */\n      dup4\n        /* \"#utility.yul\":3713:3730   */\n      add\n        /* \"#utility.yul\":3700:3731   */\n      calldataload\n        /* \"#utility.yul\":3758:3776   */\n      0xffffffffffffffff\n        /* \"#utility.yul\":3750:3756   */\n      dup2\n        /* \"#utility.yul\":3747:3777   */\n      gt\n        /* \"#utility.yul\":3744:3746   */\n      iszero\n      tag_274\n      jumpi\n        /* \"#utility.yul\":3790:3791   */\n      0x00\n        /* \"#utility.yul\":3787:3788   */\n      dup1\n        /* \"#utility.yul\":3780:3792   */\n      revert\n        /* \"#utility.yul\":3744:3746   */\n    tag_274:\n        /* \"#utility.yul\":3818:3896   */\n      tag_275\n        /* \"#utility.yul\":3888:3895   */\n      dup6\n        /* \"#utility.yul\":3879:3885   */\n      dup3\n        /* \"#utility.yul\":3868:3877   */\n      dup7\n        /* \"#utility.yul\":3864:3886   */\n      add\n        /* \"#utility.yul\":3818:3896   */\n      tag_252\n      jump\t// in\n    tag_275:\n        /* \"#utility.yul\":3808:3896   */\n      swap3\n      pop\n        /* \"#utility.yul\":3671:3906   */\n      pop\n        /* \"#utility.yul\":3973:3975   */\n      0x20\n        /* \"#utility.yul\":3962:3971   */\n      dup4\n        /* \"#utility.yul\":3958:3976   */\n      add\n        /* \"#utility.yul\":3945:3977   */\n      calldataload\n        /* \"#utility.yul\":4004:4022   */\n      0xffffffffffffffff\n        /* \"#utility.yul\":3996:4002   */\n      dup2\n        /* \"#utility.yul\":3993:4023   */\n      gt\n        /* \"#utility.yul\":3990:3992   */\n      iszero\n      tag_276\n      jumpi\n        /* \"#utility.yul\":4036:4037   */\n      0x00\n        /* \"#utility.yul\":4033:4034   */\n      dup1\n        /* \"#utility.yul\":4026:4038   */\n      revert\n        /* \"#utility.yul\":3990:3992   */\n    tag_276:\n        /* \"#utility.yul\":4064:4152   */\n      tag_277\n        /* \"#utility.yul\":4144:4151   */\n      dup6\n        /* \"#utility.yul\":4135:4141   */\n      dup3\n        /* \"#utility.yul\":4124:4133   */\n      dup7\n        /* \"#utility.yul\":4120:4142   */\n      add\n        /* \"#utility.yul\":4064:4152   */\n      tag_248\n      jump\t// in\n    tag_277:\n        /* \"#utility.yul\":4054:4152   */\n      swap2\n      pop\n        /* \"#utility.yul\":3916:4162   */\n      pop\n        /* \"#utility.yul\":3599:4169   */\n      swap3\n      pop\n      swap3\n      swap1\n      pop\n      jump\t// out\n        /* \"#utility.yul\":4175:4453   */\n    tag_161:\n      0x00\n        /* \"#utility.yul\":4291:4293   */\n      0x20\n        /* \"#utility.yul\":4279:4288   */\n      dup3\n        /* \"#utility.yul\":4270:4277   */\n      dup5\n        /* \"#utility.yul\":4266:4289   */\n      sub\n        /* \"#utility.yul\":4262:4294   */\n      slt\n        /* \"#utility.yul\":4259:4261   */\n      iszero\n      tag_279\n      jumpi\n        /* \"#utility.yul\":4307:4308   */\n      0x00\n        /* \"#utility.yul\":4304:4305   */\n      dup1\n        /* \"#utility.yul\":4297:4309   */\n      revert\n        /* \"#utility.yul\":4259:4261   */\n    tag_279:\n        /* \"#utility.yul\":4350:4351   */\n      0x00\n        /* \"#utility.yul\":4375:4436   */\n      tag_280\n        /* \"#utility.yul\":4428:4435   */\n      dup5\n        /* \"#utility.yul\":4419:4425   */\n      dup3\n        /* \"#utility.yul\":4408:4417   */\n      dup6\n        /* \"#utility.yul\":4404:4426   */\n      add\n        /* \"#utility.yul\":4375:4436   */\n      tag_256\n      jump\t// in\n    tag_280:\n        /* \"#utility.yul\":4365:4436   */\n      swap2\n      pop\n        /* \"#utility.yul\":4321:4446   */\n      pop\n        /* \"#utility.yul\":4249:4453   */\n      swap3\n      swap2\n      pop\n      pop\n      jump\t// out\n        /* \"#utility.yul\":4459:4721   */\n    tag_52:\n      0x00\n        /* \"#utility.yul\":4567:4569   */\n      0x20\n        /* \"#utility.yul\":4555:4564   */\n      dup3\n        /* \"#utility.yul\":4546:4553   */\n      dup5\n        /* \"#utility.yul\":4542:4565   */\n      sub\n        /* \"#utility.yul\":4538:4570   */\n      slt\n        /* \"#utility.yul\":4535:4537   */\n      iszero\n      tag_282\n      jumpi\n        /* \"#utility.yul\":4583:4584   */\n      0x00\n        /* \"#utility.yul\":4580:4581   */\n      dup1\n        /* \"#utility.yul\":4573:4585   */\n      revert\n        /* \"#utility.yul\":4535:4537   */\n    tag_282:\n        /* \"#utility.yul\":4626:4627   */\n      0x00\n        /* \"#utility.yul\":4651:4704   */\n      tag_283\n        /* \"#utility.yul\":4696:4703   */\n      dup5\n        /* \"#utility.yul\":4687:4693   */\n      dup3\n        /* \"#utility.yul\":4676:4685   */\n      dup6\n        /* \"#utility.yul\":4672:4694   */\n      add\n        /* \"#utility.yul\":4651:4704   */\n      tag_235\n      jump\t// in\n    tag_283:\n        /* \"#utility.yul\":4641:4704   */\n      swap2\n      pop\n        /* \"#utility.yul\":4597:4714   */\n      pop\n        /* \"#utility.yul\":4525:4721   */\n      swap3\n      swap2\n      pop\n      pop\n      jump\t// out\n        /* \"#utility.yul\":4727:5011   */\n    tag_88:\n      0x00\n        /* \"#utility.yul\":4846:4848   */\n      0x20\n        /* \"#utility.yul\":4834:4843   */\n      dup3\n        /* \"#utility.yul\":4825:4832   */\n      dup5\n        /* \"#utility.yul\":4821:4844   */\n      sub\n        /* \"#utility.yul\":4817:4849   */\n      slt\n        /* \"#utility.yul\":4814:4816   */\n      iszero\n      tag_285\n      jumpi\n        /* \"#utility.yul\":4862:4863   */\n      0x00\n        /* \"#utility.yul\":4859:4860   */\n      dup1\n        /* \"#utility.yul\":4852:4864   */\n      revert\n        /* \"#utility.yul\":4814:4816   */\n    tag_285:\n        /* \"#utility.yul\":4905:4906   */\n      0x00\n        /* \"#utility.yul\":4930:4994   */\n      tag_286\n        /* \"#utility.yul\":4986:4993   */\n      dup5\n        /* \"#utility.yul\":4977:4983   */\n      dup3\n        /* \"#utility.yul\":4966:4975   */\n      dup6\n        /* \"#utility.yul\":4962:4984   */\n      add\n        /* \"#utility.yul\":4930:4994   */\n      tag_266\n      jump\t// in\n    tag_286:\n        /* \"#utility.yul\":4920:4994   */\n      swap2\n      pop\n        /* \"#utility.yul\":4876:5004   */\n      pop\n        /* \"#utility.yul\":4804:5011   */\n      swap3\n      swap2\n      pop\n      pop\n      jump\t// out\n        /* \"#utility.yul\":5017:5213   */\n    tag_287:\n      0x00\n        /* \"#utility.yul\":5141:5207   */\n      tag_289\n        /* \"#utility.yul\":5203:5206   */\n      dup4\n        /* \"#utility.yul\":5195:5201   */\n      dup4\n        /* \"#utility.yul\":5141:5207   */\n      tag_290\n      jump\t// in\n    tag_289:\n        /* \"#utility.yul\":5127:5207   */\n      swap1\n      pop\n        /* \"#utility.yul\":5117:5213   */\n      swap3\n      swap2\n      pop\n      pop\n      jump\t// out\n        /* \"#utility.yul\":5219:5398   */\n    tag_291:\n      0x00\n        /* \"#utility.yul\":5309:5355   */\n      tag_293\n        /* \"#utility.yul\":5351:5354   */\n      dup4\n        /* \"#utility.yul\":5343:5349   */\n      dup4\n        /* \"#utility.yul\":5309:5355   */\n      tag_294\n      jump\t// in\n    tag_293:\n        /* \"#utility.yul\":5387:5391   */\n      0x20\n        /* \"#utility.yul\":5382:5385   */\n      dup4\n        /* \"#utility.yul\":5378:5392   */\n      add\n        /* \"#utility.yul\":5364:5392   */\n      swap1\n      pop\n        /* \"#utility.yul\":5299:5398   */\n      swap3\n      swap2\n      pop\n      pop\n      jump\t// out\n        /* \"#utility.yul\":5404:5522   */\n    tag_295:\n        /* \"#utility.yul\":5491:5515   */\n      tag_297\n        /* \"#utility.yul\":5509:5514   */\n      dup2\n        /* \"#utility.yul\":5491:5515   */\n      tag_298\n      jump\t// in\n    tag_297:\n        /* \"#utility.yul\":5486:5489   */\n      dup3\n        /* \"#utility.yul\":5479:5516   */\n      mstore\n        /* \"#utility.yul\":5469:5522   */\n      pop\n      pop\n      jump\t// out\n        /* \"#utility.yul\":5556:6547   */\n    tag_299:\n      0x00\n        /* \"#utility.yul\":5724:5788   */\n      tag_301\n        /* \"#utility.yul\":5782:5787   */\n      dup3\n        /* \"#utility.yul\":5724:5788   */\n      tag_302\n      jump\t// in\n    tag_301:\n        /* \"#utility.yul\":5804:5900   */\n      tag_303\n        /* \"#utility.yul\":5893:5899   */\n      dup2\n        /* \"#utility.yul\":5888:5891   */\n      dup6\n        /* \"#utility.yul\":5804:5900   */\n      tag_304\n      jump\t// in\n    tag_303:\n        /* \"#utility.yul\":5797:5900   */\n      swap4\n      pop\n        /* \"#utility.yul\":5926:5929   */\n      dup4\n        /* \"#utility.yul\":5971:5975   */\n      0x20\n        /* \"#utility.yul\":5963:5969   */\n      dup3\n        /* \"#utility.yul\":5959:5976   */\n      mul\n        /* \"#utility.yul\":5954:5957   */\n      dup6\n        /* \"#utility.yul\":5950:5977   */\n      add\n        /* \"#utility.yul\":6001:6067   */\n      tag_305\n        /* \"#utility.yul\":6061:6066   */\n      dup6\n        /* \"#utility.yul\":6001:6067   */\n      tag_306\n      jump\t// in\n    tag_305:\n        /* \"#utility.yul\":6090:6097   */\n      dup1\n        /* \"#utility.yul\":6121:6122   */\n      0x00\n        /* \"#utility.yul\":6106:6502   */\n    tag_307:\n        /* \"#utility.yul\":6131:6137   */\n      dup6\n        /* \"#utility.yul\":6128:6129   */\n      dup2\n        /* \"#utility.yul\":6125:6138   */\n      lt\n        /* \"#utility.yul\":6106:6502   */\n      iszero\n      tag_309\n      jumpi\n        /* \"#utility.yul\":6202:6211   */\n      dup5\n        /* \"#utility.yul\":6196:6200   */\n      dup5\n        /* \"#utility.yul\":6192:6212   */\n      sub\n        /* \"#utility.yul\":6187:6190   */\n      dup10\n        /* \"#utility.yul\":6180:6213   */\n      mstore\n        /* \"#utility.yul\":6253:6259   */\n      dup2\n        /* \"#utility.yul\":6247:6260   */\n      mload\n        /* \"#utility.yul\":6281:6365   */\n      tag_310\n        /* \"#utility.yul\":6360:6364   */\n      dup6\n        /* \"#utility.yul\":6345:6358   */\n      dup3\n        /* \"#utility.yul\":6281:6365   */\n      tag_287\n      jump\t// in\n    tag_310:\n        /* \"#utility.yul\":6273:6365   */\n      swap5\n      pop\n        /* \"#utility.yul\":6388:6458   */\n      tag_311\n        /* \"#utility.yul\":6451:6457   */\n      dup4\n        /* \"#utility.yul\":6388:6458   */\n      tag_312\n      jump\t// in\n    tag_311:\n        /* \"#utility.yul\":6378:6458   */\n      swap3\n      pop\n        /* \"#utility.yul\":6487:6491   */\n      0x20\n        /* \"#utility.yul\":6482:6485   */\n      dup11\n        /* \"#utility.yul\":6478:6492   */\n      add\n        /* \"#utility.yul\":6471:6492   */\n      swap10\n      pop\n        /* \"#utility.yul\":6166:6502   */\n      pop\n        /* \"#utility.yul\":6153:6154   */\n      0x01\n        /* \"#utility.yul\":6150:6151   */\n      dup2\n        /* \"#utility.yul\":6146:6155   */\n      add\n        /* \"#utility.yul\":6141:6155   */\n      swap1\n      pop\n        /* \"#utility.yul\":6106:6502   */\n      jump(tag_307)\n    tag_309:\n        /* \"#utility.yul\":6110:6124   */\n      pop\n        /* \"#utility.yul\":6518:6522   */\n      dup3\n        /* \"#utility.yul\":6511:6522   */\n      swap8\n      pop\n        /* \"#utility.yul\":6538:6541   */\n      dup8\n        /* \"#utility.yul\":6531:6541   */\n      swap6\n      pop\n        /* \"#utility.yul\":5700:6547   */\n      pop\n      pop\n      pop\n      pop\n      pop\n      swap3\n      swap2\n      pop\n      pop\n      jump\t// out\n        /* \"#utility.yul\":6583:7315   */\n    tag_313:\n      0x00\n        /* \"#utility.yul\":6731:6785   */\n      tag_315\n        /* \"#utility.yul\":6779:6784   */\n      dup3\n        /* \"#utility.yul\":6731:6785   */\n      tag_316\n      jump\t// in\n    tag_315:\n        /* \"#utility.yul\":6801:6887   */\n      tag_317\n        /* \"#utility.yul\":6880:6886   */\n      dup2\n        /* \"#utility.yul\":6875:6878   */\n      dup6\n        /* \"#utility.yul\":6801:6887   */\n      tag_318\n      jump\t// in\n    tag_317:\n        /* \"#utility.yul\":6794:6887   */\n      swap4\n      pop\n        /* \"#utility.yul\":6911:6967   */\n      tag_319\n        /* \"#utility.yul\":6961:6966   */\n      dup4\n        /* \"#utility.yul\":6911:6967   */\n      tag_320\n      jump\t// in\n    tag_319:\n        /* \"#utility.yul\":6990:6997   */\n      dup1\n        /* \"#utility.yul\":7021:7022   */\n      0x00\n        /* \"#utility.yul\":7006:7290   */\n    tag_321:\n        /* \"#utility.yul\":7031:7037   */\n      dup4\n        /* \"#utility.yul\":7028:7029   */\n      dup2\n        /* \"#utility.yul\":7025:7038   */\n      lt\n        /* \"#utility.yul\":7006:7290   */\n      iszero\n      tag_323\n      jumpi\n        /* \"#utility.yul\":7107:7113   */\n      dup2\n        /* \"#utility.yul\":7101:7114   */\n      mload\n        /* \"#utility.yul\":7134:7197   */\n      tag_324\n        /* \"#utility.yul\":7193:7196   */\n      dup9\n        /* \"#utility.yul\":7178:7191   */\n      dup3\n        /* \"#utility.yul\":7134:7197   */\n      tag_291\n      jump\t// in\n    tag_324:\n        /* \"#utility.yul\":7127:7197   */\n      swap8\n      pop\n        /* \"#utility.yul\":7220:7280   */\n      tag_325\n        /* \"#utility.yul\":7273:7279   */\n      dup4\n        /* \"#utility.yul\":7220:7280   */\n      tag_326\n      jump\t// in\n    tag_325:\n        /* \"#utility.yul\":7210:7280   */\n      swap3\n      pop\n        /* \"#utility.yul\":7066:7290   */\n      pop\n        /* \"#utility.yul\":7053:7054   */\n      0x01\n        /* \"#utility.yul\":7050:7051   */\n      dup2\n        /* \"#utility.yul\":7046:7055   */\n      add\n        /* \"#utility.yul\":7041:7055   */\n      swap1\n      pop\n        /* \"#utility.yul\":7006:7290   */\n      jump(tag_321)\n    tag_323:\n        /* \"#utility.yul\":7010:7024   */\n      pop\n        /* \"#utility.yul\":7306:7309   */\n      dup6\n        /* \"#utility.yul\":7299:7309   */\n      swap4\n      pop\n        /* \"#utility.yul\":6707:7315   */\n      pop\n      pop\n      pop\n      swap3\n      swap2\n      pop\n      pop\n      jump\t// out\n        /* \"#utility.yul\":7321:7430   */\n    tag_327:\n        /* \"#utility.yul\":7402:7423   */\n      tag_329\n        /* \"#utility.yul\":7417:7422   */\n      dup2\n        /* \"#utility.yul\":7402:7423   */\n      tag_330\n      jump\t// in\n    tag_329:\n        /* \"#utility.yul\":7397:7400   */\n      dup3\n        /* \"#utility.yul\":7390:7424   */\n      mstore\n        /* \"#utility.yul\":7380:7430   */\n      pop\n      pop\n      jump\t// out\n        /* \"#utility.yul\":7436:7593   */\n    tag_331:\n        /* \"#utility.yul\":7536:7586   */\n      tag_333\n        /* \"#utility.yul\":7580:7585   */\n      dup2\n        /* \"#utility.yul\":7536:7586   */\n      tag_334\n      jump\t// in\n    tag_333:\n        /* \"#utility.yul\":7531:7534   */\n      dup3\n        /* \"#utility.yul\":7524:7587   */\n      mstore\n        /* \"#utility.yul\":7514:7593   */\n      pop\n      pop\n      jump\t// out\n        /* \"#utility.yul\":7599:7943   */\n    tag_290:\n      0x00\n        /* \"#utility.yul\":7705:7744   */\n      tag_336\n        /* \"#utility.yul\":7738:7743   */\n      dup3\n        /* \"#utility.yul\":7705:7744   */\n      tag_337\n      jump\t// in\n    tag_336:\n        /* \"#utility.yul\":7760:7821   */\n      tag_338\n        /* \"#utility.yul\":7814:7820   */\n      dup2\n        /* \"#utility.yul\":7809:7812   */\n      dup6\n        /* \"#utility.yul\":7760:7821   */\n      tag_339\n      jump\t// in\n    tag_338:\n        /* \"#utility.yul\":7753:7821   */\n      swap4\n      pop\n        /* \"#utility.yul\":7830:7882   */\n      tag_340\n        /* \"#utility.yul\":7875:7881   */\n      dup2\n        /* \"#utility.yul\":7870:7873   */\n      dup6\n        /* \"#utility.yul\":7863:7867   */\n      0x20\n        /* \"#utility.yul\":7856:7861   */\n      dup7\n        /* \"#utility.yul\":7852:7868   */\n      add\n        /* \"#utility.yul\":7830:7882   */\n      tag_341\n      jump\t// in\n    tag_340:\n        /* \"#utility.yul\":7907:7936   */\n      tag_342\n        /* \"#utility.yul\":7929:7935   */\n      dup2\n        /* \"#utility.yul\":7907:7936   */\n      tag_343\n      jump\t// in\n    tag_342:\n        /* \"#utility.yul\":7902:7905   */\n      dup5\n        /* \"#utility.yul\":7898:7937   */\n      add\n        /* \"#utility.yul\":7891:7937   */\n      swap2\n      pop\n        /* \"#utility.yul\":7681:7943   */\n      pop\n      swap3\n      swap2\n      pop\n      pop\n      jump\t// out\n        /* \"#utility.yul\":7949:8315   */\n    tag_344:\n      0x00\n        /* \"#utility.yul\":8112:8179   */\n      tag_346\n        /* \"#utility.yul\":8176:8178   */\n      0x36\n        /* \"#utility.yul\":8171:8174   */\n      dup4\n        /* \"#utility.yul\":8112:8179   */\n      tag_347\n      jump\t// in\n    tag_346:\n        /* \"#utility.yul\":8105:8179   */\n      swap2\n      pop\n        /* \"#utility.yul\":8188:8281   */\n      tag_348\n        /* \"#utility.yul\":8277:8280   */\n      dup3\n        /* \"#utility.yul\":8188:8281   */\n      tag_349\n      jump\t// in\n    tag_348:\n        /* \"#utility.yul\":8306:8308   */\n      0x40\n        /* \"#utility.yul\":8301:8304   */\n      dup3\n        /* \"#utility.yul\":8297:8309   */\n      add\n        /* \"#utility.yul\":8290:8309   */\n      swap1\n      pop\n        /* \"#utility.yul\":8095:8315   */\n      swap2\n      swap1\n      pop\n      jump\t// out\n        /* \"#utility.yul\":8321:8687   */\n    tag_350:\n      0x00\n        /* \"#utility.yul\":8484:8551   */\n      tag_352\n        /* \"#utility.yul\":8548:8550   */\n      0x26\n        /* \"#utility.yul\":8543:8546   */\n      dup4\n        /* \"#utility.yul\":8484:8551   */\n      tag_347\n      jump\t// in\n    tag_352:\n        /* \"#utility.yul\":8477:8551   */\n      swap2\n      pop\n        /* \"#utility.yul\":8560:8653   */\n      tag_353\n        /* \"#utility.yul\":8649:8652   */\n      dup3\n        /* \"#utility.yul\":8560:8653   */\n      tag_354\n      jump\t// in\n    tag_353:\n        /* \"#utility.yul\":8678:8680   */\n      0x40\n        /* \"#utility.yul\":8673:8676   */\n      dup3\n        /* \"#utility.yul\":8669:8681   */\n      add\n        /* \"#utility.yul\":8662:8681   */\n      swap1\n      pop\n        /* \"#utility.yul\":8467:8687   */\n      swap2\n      swap1\n      pop\n      jump\t// out\n        /* \"#utility.yul\":8693:9059   */\n    tag_355:\n      0x00\n        /* \"#utility.yul\":8856:8923   */\n      tag_357\n        /* \"#utility.yul\":8920:8922   */\n      0x1f\n        /* \"#utility.yul\":8915:8918   */\n      dup4\n        /* \"#utility.yul\":8856:8923   */\n      tag_347\n      jump\t// in\n    tag_357:\n        /* \"#utility.yul\":8849:8923   */\n      swap2\n      pop\n        /* \"#utility.yul\":8932:9025   */\n      tag_358\n        /* \"#utility.yul\":9021:9024   */\n      dup3\n        /* \"#utility.yul\":8932:9025   */\n      tag_359\n      jump\t// in\n    tag_358:\n        /* \"#utility.yul\":9050:9052   */\n      0x20\n        /* \"#utility.yul\":9045:9048   */\n      dup3\n        /* \"#utility.yul\":9041:9053   */\n      add\n        /* \"#utility.yul\":9034:9053   */\n      swap1\n      pop\n        /* \"#utility.yul\":8839:9059   */\n      swap2\n      swap1\n      pop\n      jump\t// out\n        /* \"#utility.yul\":9065:9431   */\n    tag_360:\n      0x00\n        /* \"#utility.yul\":9228:9295   */\n      tag_362\n        /* \"#utility.yul\":9292:9294   */\n      0x38\n        /* \"#utility.yul\":9287:9290   */\n      dup4\n        /* \"#utility.yul\":9228:9295   */\n      tag_347\n      jump\t// in\n    tag_362:\n        /* \"#utility.yul\":9221:9295   */\n      swap2\n      pop\n        /* \"#utility.yul\":9304:9397   */\n      tag_363\n        /* \"#utility.yul\":9393:9396   */\n      dup3\n        /* \"#utility.yul\":9304:9397   */\n      tag_364\n      jump\t// in\n    tag_363:\n        /* \"#utility.yul\":9422:9424   */\n      0x40\n        /* \"#utility.yul\":9417:9420   */\n      dup3\n        /* \"#utility.yul\":9413:9425   */\n      add\n        /* \"#utility.yul\":9406:9425   */\n      swap1\n      pop\n        /* \"#utility.yul\":9211:9431   */\n      swap2\n      swap1\n      pop\n      jump\t// out\n        /* \"#utility.yul\":9437:9803   */\n    tag_365:\n      0x00\n        /* \"#utility.yul\":9600:9667   */\n      tag_367\n        /* \"#utility.yul\":9664:9666   */\n      0x20\n        /* \"#utility.yul\":9659:9662   */\n      dup4\n        /* \"#utility.yul\":9600:9667   */\n      tag_347\n      jump\t// in\n    tag_367:\n        /* \"#utility.yul\":9593:9667   */\n      swap2\n      pop\n        /* \"#utility.yul\":9676:9769   */\n      tag_368\n        /* \"#utility.yul\":9765:9768   */\n      dup3\n        /* \"#utility.yul\":9676:9769   */\n      tag_369\n      jump\t// in\n    tag_368:\n        /* \"#utility.yul\":9794:9796   */\n      0x20\n        /* \"#utility.yul\":9789:9792   */\n      dup3\n        /* \"#utility.yul\":9785:9797   */\n      add\n        /* \"#utility.yul\":9778:9797   */\n      swap1\n      pop\n        /* \"#utility.yul\":9583:9803   */\n      swap2\n      swap1\n      pop\n      jump\t// out\n        /* \"#utility.yul\":9809:10175   */\n    tag_370:\n      0x00\n        /* \"#utility.yul\":9972:10039   */\n      tag_372\n        /* \"#utility.yul\":10036:10038   */\n      0x2b\n        /* \"#utility.yul\":10031:10034   */\n      dup4\n        /* \"#utility.yul\":9972:10039   */\n      tag_347\n      jump\t// in\n    tag_372:\n        /* \"#utility.yul\":9965:10039   */\n      swap2\n      pop\n        /* \"#utility.yul\":10048:10141   */\n      tag_373\n        /* \"#utility.yul\":10137:10140   */\n      dup3\n        /* \"#utility.yul\":10048:10141   */\n      tag_374\n      jump\t// in\n    tag_373:\n        /* \"#utility.yul\":10166:10168   */\n      0x40\n        /* \"#utility.yul\":10161:10164   */\n      dup3\n        /* \"#utility.yul\":10157:10169   */\n      add\n        /* \"#utility.yul\":10150:10169   */\n      swap1\n      pop\n        /* \"#utility.yul\":9955:10175   */\n      swap2\n      swap1\n      pop\n      jump\t// out\n        /* \"#utility.yul\":10181:10289   */\n    tag_294:\n        /* \"#utility.yul\":10258:10282   */\n      tag_376\n        /* \"#utility.yul\":10276:10281   */\n      dup2\n        /* \"#utility.yul\":10258:10282   */\n      tag_377\n      jump\t// in\n    tag_376:\n        /* \"#utility.yul\":10253:10256   */\n      dup3\n        /* \"#utility.yul\":10246:10283   */\n      mstore\n        /* \"#utility.yul\":10236:10289   */\n      pop\n      pop\n      jump\t// out\n        /* \"#utility.yul\":10295:10413   */\n    tag_378:\n        /* \"#utility.yul\":10382:10406   */\n      tag_380\n        /* \"#utility.yul\":10400:10405   */\n      dup2\n        /* \"#utility.yul\":10382:10406   */\n      tag_377\n      jump\t// in\n    tag_380:\n        /* \"#utility.yul\":10377:10380   */\n      dup3\n        /* \"#utility.yul\":10370:10407   */\n      mstore\n        /* \"#utility.yul\":10360:10413   */\n      pop\n      pop\n      jump\t// out\n        /* \"#utility.yul\":10419:10641   */\n    tag_27:\n      0x00\n        /* \"#utility.yul\":10550:10552   */\n      0x20\n        /* \"#utility.yul\":10539:10548   */\n      dup3\n        /* \"#utility.yul\":10535:10553   */\n      add\n        /* \"#utility.yul\":10527:10553   */\n      swap1\n      pop\n        /* \"#utility.yul\":10563:10634   */\n      tag_382\n        /* \"#utility.yul\":10631:10632   */\n      0x00\n        /* \"#utility.yul\":10620:10629   */\n      dup4\n        /* \"#utility.yul\":10616:10633   */\n      add\n        /* \"#utility.yul\":10607:10613   */\n      dup5\n        /* \"#utility.yul\":10563:10634   */\n      tag_295\n      jump\t// in\n    tag_382:\n        /* \"#utility.yul\":10517:10641   */\n      swap3\n      swap2\n      pop\n      pop\n      jump\t// out\n        /* \"#utility.yul\":10647:11089   */\n    tag_156:\n      0x00\n        /* \"#utility.yul\":10834:10836   */\n      0x60\n        /* \"#utility.yul\":10823:10832   */\n      dup3\n        /* \"#utility.yul\":10819:10837   */\n      add\n        /* \"#utility.yul\":10811:10837   */\n      swap1\n      pop\n        /* \"#utility.yul\":10847:10918   */\n      tag_384\n        /* \"#utility.yul\":10915:10916   */\n      0x00\n        /* \"#utility.yul\":10904:10913   */\n      dup4\n        /* \"#utility.yul\":10900:10917   */\n      add\n        /* \"#utility.yul\":10891:10897   */\n      dup7\n        /* \"#utility.yul\":10847:10918   */\n      tag_295\n      jump\t// in\n    tag_384:\n        /* \"#utility.yul\":10928:11000   */\n      tag_385\n        /* \"#utility.yul\":10996:10998   */\n      0x20\n        /* \"#utility.yul\":10985:10994   */\n      dup4\n        /* \"#utility.yul\":10981:10999   */\n      add\n        /* \"#utility.yul\":10972:10978   */\n      dup6\n        /* \"#utility.yul\":10928:11000   */\n      tag_295\n      jump\t// in\n    tag_385:\n        /* \"#utility.yul\":11010:11082   */\n      tag_386\n        /* \"#utility.yul\":11078:11080   */\n      0x40\n        /* \"#utility.yul\":11067:11076   */\n      dup4\n        /* \"#utility.yul\":11063:11081   */\n      add\n        /* \"#utility.yul\":11054:11060   */\n      dup5\n        /* \"#utility.yul\":11010:11082   */\n      tag_378\n      jump\t// in\n    tag_386:\n        /* \"#utility.yul\":10801:11089   */\n      swap5\n      swap4\n      pop\n      pop\n      pop\n      pop\n      jump\t// out\n        /* \"#utility.yul\":11095:11769   */\n    tag_178:\n      0x00\n        /* \"#utility.yul\":11374:11376   */\n      0x40\n        /* \"#utility.yul\":11363:11372   */\n      dup3\n        /* \"#utility.yul\":11359:11377   */\n      add\n        /* \"#utility.yul\":11351:11377   */\n      swap1\n      pop\n        /* \"#utility.yul\":11423:11432   */\n      dup2\n        /* \"#utility.yul\":11417:11421   */\n      dup2\n        /* \"#utility.yul\":11413:11433   */\n      sub\n        /* \"#utility.yul\":11409:11410   */\n      0x00\n        /* \"#utility.yul\":11398:11407   */\n      dup4\n        /* \"#utility.yul\":11394:11411   */\n      add\n        /* \"#utility.yul\":11387:11434   */\n      mstore\n        /* \"#utility.yul\":11451:11559   */\n      tag_388\n        /* \"#utility.yul\":11554:11558   */\n      dup2\n        /* \"#utility.yul\":11545:11551   */\n      dup6\n        /* \"#utility.yul\":11451:11559   */\n      tag_313\n      jump\t// in\n    tag_388:\n        /* \"#utility.yul\":11443:11559   */\n      swap1\n      pop\n        /* \"#utility.yul\":11606:11615   */\n      dup2\n        /* \"#utility.yul\":11600:11604   */\n      dup2\n        /* \"#utility.yul\":11596:11616   */\n      sub\n        /* \"#utility.yul\":11591:11593   */\n      0x20\n        /* \"#utility.yul\":11580:11589   */\n      dup4\n        /* \"#utility.yul\":11576:11594   */\n      add\n        /* \"#utility.yul\":11569:11617   */\n      mstore\n        /* \"#utility.yul\":11634:11762   */\n      tag_389\n        /* \"#utility.yul\":11757:11761   */\n      dup2\n        /* \"#utility.yul\":11748:11754   */\n      dup5\n        /* \"#utility.yul\":11634:11762   */\n      tag_299\n      jump\t// in\n    tag_389:\n        /* \"#utility.yul\":11626:11762   */\n      swap1\n      pop\n        /* \"#utility.yul\":11341:11769   */\n      swap4\n      swap3\n      pop\n      pop\n      pop\n      jump\t// out\n        /* \"#utility.yul\":11775:12023   */\n    tag_31:\n      0x00\n        /* \"#utility.yul\":11919:11921   */\n      0x20\n        /* \"#utility.yul\":11908:11917   */\n      dup3\n        /* \"#utility.yul\":11904:11922   */\n      add\n        /* \"#utility.yul\":11896:11922   */\n      swap1\n      pop\n        /* \"#utility.yul\":11932:12016   */\n      tag_391\n        /* \"#utility.yul\":12013:12014   */\n      0x00\n        /* \"#utility.yul\":12002:12011   */\n      dup4\n        /* \"#utility.yul\":11998:12015   */\n      add\n        /* \"#utility.yul\":11989:11995   */\n      dup5\n        /* \"#utility.yul\":11932:12016   */\n      tag_331\n      jump\t// in\n    tag_391:\n        /* \"#utility.yul\":11886:12023   */\n      swap3\n      swap2\n      pop\n      pop\n      jump\t// out\n        /* \"#utility.yul\":12029:12448   */\n    tag_118:\n      0x00\n        /* \"#utility.yul\":12233:12235   */\n      0x20\n        /* \"#utility.yul\":12222:12231   */\n      dup3\n        /* \"#utility.yul\":12218:12236   */\n      add\n        /* \"#utility.yul\":12210:12236   */\n      swap1\n      pop\n        /* \"#utility.yul\":12282:12291   */\n      dup2\n        /* \"#utility.yul\":12276:12280   */\n      dup2\n        /* \"#utility.yul\":12272:12292   */\n      sub\n        /* \"#utility.yul\":12268:12269   */\n      0x00\n        /* \"#utility.yul\":12257:12266   */\n      dup4\n        /* \"#utility.yul\":12253:12270   */\n      add\n        /* \"#utility.yul\":12246:12293   */\n      mstore\n        /* \"#utility.yul\":12310:12441   */\n      tag_393\n        /* \"#utility.yul\":12436:12440   */\n      dup2\n        /* \"#utility.yul\":12310:12441   */\n      tag_344\n      jump\t// in\n    tag_393:\n        /* \"#utility.yul\":12302:12441   */\n      swap1\n      pop\n        /* \"#utility.yul\":12200:12448   */\n      swap2\n      swap1\n      pop\n      jump\t// out\n        /* \"#utility.yul\":12454:12873   */\n    tag_190:\n      0x00\n        /* \"#utility.yul\":12658:12660   */\n      0x20\n        /* \"#utility.yul\":12647:12656   */\n      dup3\n        /* \"#utility.yul\":12643:12661   */\n      add\n        /* \"#utility.yul\":12635:12661   */\n      swap1\n      pop\n        /* \"#utility.yul\":12707:12716   */\n      dup2\n        /* \"#utility.yul\":12701:12705   */\n      dup2\n        /* \"#utility.yul\":12697:12717   */\n      sub\n        /* \"#utility.yul\":12693:12694   */\n      0x00\n        /* \"#utility.yul\":12682:12691   */\n      dup4\n        /* \"#utility.yul\":12678:12695   */\n      add\n        /* \"#utility.yul\":12671:12718   */\n      mstore\n        /* \"#utility.yul\":12735:12866   */\n      tag_395\n        /* \"#utility.yul\":12861:12865   */\n      dup2\n        /* \"#utility.yul\":12735:12866   */\n      tag_350\n      jump\t// in\n    tag_395:\n        /* \"#utility.yul\":12727:12866   */\n      swap1\n      pop\n        /* \"#utility.yul\":12625:12873   */\n      swap2\n      swap1\n      pop\n      jump\t// out\n        /* \"#utility.yul\":12879:13298   */\n    tag_197:\n      0x00\n        /* \"#utility.yul\":13083:13085   */\n      0x20\n        /* \"#utility.yul\":13072:13081   */\n      dup3\n        /* \"#utility.yul\":13068:13086   */\n      add\n        /* \"#utility.yul\":13060:13086   */\n      swap1\n      pop\n        /* \"#utility.yul\":13132:13141   */\n      dup2\n        /* \"#utility.yul\":13126:13130   */\n      dup2\n        /* \"#utility.yul\":13122:13142   */\n      sub\n        /* \"#utility.yul\":13118:13119   */\n      0x00\n        /* \"#utility.yul\":13107:13116   */\n      dup4\n        /* \"#utility.yul\":13103:13120   */\n      add\n        /* \"#utility.yul\":13096:13143   */\n      mstore\n        /* \"#utility.yul\":13160:13291   */\n      tag_397\n        /* \"#utility.yul\":13286:13290   */\n      dup2\n        /* \"#utility.yul\":13160:13291   */\n      tag_355\n      jump\t// in\n    tag_397:\n        /* \"#utility.yul\":13152:13291   */\n      swap1\n      pop\n        /* \"#utility.yul\":13050:13298   */\n      swap2\n      swap1\n      pop\n      jump\t// out\n        /* \"#utility.yul\":13304:13723   */\n    tag_148:\n      0x00\n        /* \"#utility.yul\":13508:13510   */\n      0x20\n        /* \"#utility.yul\":13497:13506   */\n      dup3\n        /* \"#utility.yul\":13493:13511   */\n      add\n        /* \"#utility.yul\":13485:13511   */\n      swap1\n      pop\n        /* \"#utility.yul\":13557:13566   */\n      dup2\n        /* \"#utility.yul\":13551:13555   */\n      dup2\n        /* \"#utility.yul\":13547:13567   */\n      sub\n        /* \"#utility.yul\":13543:13544   */\n      0x00\n        /* \"#utility.yul\":13532:13541   */\n      dup4\n        /* \"#utility.yul\":13528:13545   */\n      add\n        /* \"#utility.yul\":13521:13568   */\n      mstore\n        /* \"#utility.yul\":13585:13716   */\n      tag_399\n        /* \"#utility.yul\":13711:13715   */\n      dup2\n        /* \"#utility.yul\":13585:13716   */\n      tag_360\n      jump\t// in\n    tag_399:\n        /* \"#utility.yul\":13577:13716   */\n      swap1\n      pop\n        /* \"#utility.yul\":13475:13723   */\n      swap2\n      swap1\n      pop\n      jump\t// out\n        /* \"#utility.yul\":13729:14148   */\n    tag_95:\n      0x00\n        /* \"#utility.yul\":13933:13935   */\n      0x20\n        /* \"#utility.yul\":13922:13931   */\n      dup3\n        /* \"#utility.yul\":13918:13936   */\n      add\n        /* \"#utility.yul\":13910:13936   */\n      swap1\n      pop\n        /* \"#utility.yul\":13982:13991   */\n      dup2\n        /* \"#utility.yul\":13976:13980   */\n      dup2\n        /* \"#utility.yul\":13972:13992   */\n      sub\n        /* \"#utility.yul\":13968:13969   */\n      0x00\n        /* \"#utility.yul\":13957:13966   */\n      dup4\n        /* \"#utility.yul\":13953:13970   */\n      add\n        /* \"#utility.yul\":13946:13993   */\n      mstore\n        /* \"#utility.yul\":14010:14141   */\n      tag_401\n        /* \"#utility.yul\":14136:14140   */\n      dup2\n        /* \"#utility.yul\":14010:14141   */\n      tag_365\n      jump\t// in\n    tag_401:\n        /* \"#utility.yul\":14002:14141   */\n      swap1\n      pop\n        /* \"#utility.yul\":13900:14148   */\n      swap2\n      swap1\n      pop\n      jump\t// out\n        /* \"#utility.yul\":14154:14573   */\n    tag_154:\n      0x00\n        /* \"#utility.yul\":14358:14360   */\n      0x20\n        /* \"#utility.yul\":14347:14356   */\n      dup3\n        /* \"#utility.yul\":14343:14361   */\n      add\n        /* \"#utility.yul\":14335:14361   */\n      swap1\n      pop\n        /* \"#utility.yul\":14407:14416   */\n      dup2\n        /* \"#utility.yul\":14401:14405   */\n      dup2\n        /* \"#utility.yul\":14397:14417   */\n      sub\n        /* \"#utility.yul\":14393:14394   */\n      0x00\n        /* \"#utility.yul\":14382:14391   */\n      dup4\n        /* \"#utility.yul\":14378:14395   */\n      add\n        /* \"#utility.yul\":14371:14418   */\n      mstore\n        /* \"#utility.yul\":14435:14566   */\n      tag_403\n        /* \"#utility.yul\":14561:14565   */\n      dup2\n        /* \"#utility.yul\":14435:14566   */\n      tag_370\n      jump\t// in\n    tag_403:\n        /* \"#utility.yul\":14427:14566   */\n      swap1\n      pop\n        /* \"#utility.yul\":14325:14573   */\n      swap2\n      swap1\n      pop\n      jump\t// out\n        /* \"#utility.yul\":14579:14801   */\n    tag_35:\n      0x00\n        /* \"#utility.yul\":14710:14712   */\n      0x20\n        /* \"#utility.yul\":14699:14708   */\n      dup3\n        /* \"#utility.yul\":14695:14713   */\n      add\n        /* \"#utility.yul\":14687:14713   */\n      swap1\n      pop\n        /* \"#utility.yul\":14723:14794   */\n      tag_405\n        /* \"#utility.yul\":14791:14792   */\n      0x00\n        /* \"#utility.yul\":14780:14789   */\n      dup4\n        /* \"#utility.yul\":14776:14793   */\n      add\n        /* \"#utility.yul\":14767:14773   */\n      dup5\n        /* \"#utility.yul\":14723:14794   */\n      tag_378\n      jump\t// in\n    tag_405:\n        /* \"#utility.yul\":14677:14801   */\n      swap3\n      swap2\n      pop\n      pop\n      jump\t// out\n        /* \"#utility.yul\":14807:15237   */\n    tag_66:\n      0x00\n        /* \"#utility.yul\":14988:14990   */\n      0x60\n        /* \"#utility.yul\":14977:14986   */\n      dup3\n        /* \"#utility.yul\":14973:14991   */\n      add\n        /* \"#utility.yul\":14965:14991   */\n      swap1\n      pop\n        /* \"#utility.yul\":15001:15072   */\n      tag_407\n        /* \"#utility.yul\":15069:15070   */\n      0x00\n        /* \"#utility.yul\":15058:15067   */\n      dup4\n        /* \"#utility.yul\":15054:15071   */\n      add\n        /* \"#utility.yul\":15045:15051   */\n      dup7\n        /* \"#utility.yul\":15001:15072   */\n      tag_378\n      jump\t// in\n    tag_407:\n        /* \"#utility.yul\":15082:15154   */\n      tag_408\n        /* \"#utility.yul\":15150:15152   */\n      0x20\n        /* \"#utility.yul\":15139:15148   */\n      dup4\n        /* \"#utility.yul\":15135:15153   */\n      add\n        /* \"#utility.yul\":15126:15132   */\n      dup6\n        /* \"#utility.yul\":15082:15154   */\n      tag_378\n      jump\t// in\n    tag_408:\n        /* \"#utility.yul\":15164:15230   */\n      tag_409\n        /* \"#utility.yul\":15226:15228   */\n      0x40\n        /* \"#utility.yul\":15215:15224   */\n      dup4\n        /* \"#utility.yul\":15211:15229   */\n      add\n        /* \"#utility.yul\":15202:15208   */\n      dup5\n        /* \"#utility.yul\":15164:15230   */\n      tag_327\n      jump\t// in\n    tag_409:\n        /* \"#utility.yul\":14955:15237   */\n      swap5\n      swap4\n      pop\n      pop\n      pop\n      pop\n      jump\t// out\n        /* \"#utility.yul\":15243:15372   */\n    tag_219:\n      0x00\n        /* \"#utility.yul\":15304:15324   */\n      tag_411\n      tag_412\n      jump\t// in\n    tag_411:\n        /* \"#utility.yul\":15294:15324   */\n      swap1\n      pop\n        /* \"#utility.yul\":15333:15366   */\n      tag_413\n        /* \"#utility.yul\":15361:15365   */\n      dup3\n        /* \"#utility.yul\":15353:15359   */\n      dup3\n        /* \"#utility.yul\":15333:15366   */\n      tag_414\n      jump\t// in\n    tag_413:\n        /* \"#utility.yul\":15284:15372   */\n      swap2\n      swap1\n      pop\n      jump\t// out\n        /* \"#utility.yul\":15378:15453   */\n    tag_412:\n      0x00\n        /* \"#utility.yul\":15444:15446   */\n      0x40\n        /* \"#utility.yul\":15438:15447   */\n      mload\n        /* \"#utility.yul\":15428:15447   */\n      swap1\n      pop\n        /* \"#utility.yul\":15418:15453   */\n      swap1\n      jump\t// out\n        /* \"#utility.yul\":15459:15780   */\n    tag_218:\n      0x00\n        /* \"#utility.yul\":15636:15654   */\n      0xffffffffffffffff\n        /* \"#utility.yul\":15628:15634   */\n      dup3\n        /* \"#utility.yul\":15625:15655   */\n      gt\n        /* \"#utility.yul\":15622:15624   */\n      iszero\n      tag_417\n      jumpi\n        /* \"#utility.yul\":15658:15676   */\n      tag_418\n      tag_419\n      jump\t// in\n    tag_418:\n        /* \"#utility.yul\":15622:15624   */\n    tag_417:\n        /* \"#utility.yul\":15708:15712   */\n      0x20\n        /* \"#utility.yul\":15700:15706   */\n      dup3\n        /* \"#utility.yul\":15696:15713   */\n      mul\n        /* \"#utility.yul\":15688:15713   */\n      swap1\n      pop\n        /* \"#utility.yul\":15768:15772   */\n      0x20\n        /* \"#utility.yul\":15762:15766   */\n      dup2\n        /* \"#utility.yul\":15758:15773   */\n      add\n        /* \"#utility.yul\":15750:15773   */\n      swap1\n      pop\n        /* \"#utility.yul\":15551:15780   */\n      swap2\n      swap1\n      pop\n      jump\t// out\n        /* \"#utility.yul\":15786:16097   */\n    tag_229:\n      0x00\n        /* \"#utility.yul\":15953:15971   */\n      0xffffffffffffffff\n        /* \"#utility.yul\":15945:15951   */\n      dup3\n        /* \"#utility.yul\":15942:15972   */\n      gt\n        /* \"#utility.yul\":15939:15941   */\n      iszero\n      tag_421\n      jumpi\n        /* \"#utility.yul\":15975:15993   */\n      tag_422\n      tag_419\n      jump\t// in\n    tag_422:\n        /* \"#utility.yul\":15939:15941   */\n    tag_421:\n        /* \"#utility.yul\":16025:16029   */\n      0x20\n        /* \"#utility.yul\":16017:16023   */\n      dup3\n        /* \"#utility.yul\":16013:16030   */\n      mul\n        /* \"#utility.yul\":16005:16030   */\n      swap1\n      pop\n        /* \"#utility.yul\":16085:16089   */\n      0x20\n        /* \"#utility.yul\":16079:16083   */\n      dup2\n        /* \"#utility.yul\":16075:16090   */\n      add\n        /* \"#utility.yul\":16067:16090   */\n      swap1\n      pop\n        /* \"#utility.yul\":15868:16097   */\n      swap2\n      swap1\n      pop\n      jump\t// out\n        /* \"#utility.yul\":16103:16411   */\n    tag_240:\n      0x00\n        /* \"#utility.yul\":16255:16273   */\n      0xffffffffffffffff\n        /* \"#utility.yul\":16247:16253   */\n      dup3\n        /* \"#utility.yul\":16244:16274   */\n      gt\n        /* \"#utility.yul\":16241:16243   */\n      iszero\n      tag_424\n      jumpi\n        /* \"#utility.yul\":16277:16295   */\n      tag_425\n      tag_419\n      jump\t// in\n    tag_425:\n        /* \"#utility.yul\":16241:16243   */\n    tag_424:\n        /* \"#utility.yul\":16315:16344   */\n      tag_426\n        /* \"#utility.yul\":16337:16343   */\n      dup3\n        /* \"#utility.yul\":16315:16344   */\n      tag_343\n      jump\t// in\n    tag_426:\n        /* \"#utility.yul\":16307:16344   */\n      swap1\n      pop\n        /* \"#utility.yul\":16399:16403   */\n      0x20\n        /* \"#utility.yul\":16393:16397   */\n      dup2\n        /* \"#utility.yul\":16389:16404   */\n      add\n        /* \"#utility.yul\":16381:16404   */\n      swap1\n      pop\n        /* \"#utility.yul\":16170:16411   */\n      swap2\n      swap1\n      pop\n      jump\t// out\n        /* \"#utility.yul\":16417:16559   */\n    tag_306:\n      0x00\n        /* \"#utility.yul\":16517:16520   */\n      dup2\n        /* \"#utility.yul\":16509:16520   */\n      swap1\n      pop\n        /* \"#utility.yul\":16547:16551   */\n      0x20\n        /* \"#utility.yul\":16542:16545   */\n      dup3\n        /* \"#utility.yul\":16538:16552   */\n      add\n        /* \"#utility.yul\":16530:16552   */\n      swap1\n      pop\n        /* \"#utility.yul\":16499:16559   */\n      swap2\n      swap1\n      pop\n      jump\t// out\n        /* \"#utility.yul\":16565:16697   */\n    tag_320:\n      0x00\n        /* \"#utility.yul\":16655:16658   */\n      dup2\n        /* \"#utility.yul\":16647:16658   */\n      swap1\n      pop\n        /* \"#utility.yul\":16685:16689   */\n      0x20\n        /* \"#utility.yul\":16680:16683   */\n      dup3\n        /* \"#utility.yul\":16676:16690   */\n      add\n        /* \"#utility.yul\":16668:16690   */\n      swap1\n      pop\n        /* \"#utility.yul\":16637:16697   */\n      swap2\n      swap1\n      pop\n      jump\t// out\n        /* \"#utility.yul\":16703:16827   */\n    tag_302:\n      0x00\n        /* \"#utility.yul\":16814:16819   */\n      dup2\n        /* \"#utility.yul\":16808:16820   */\n      mload\n        /* \"#utility.yul\":16798:16820   */\n      swap1\n      pop\n        /* \"#utility.yul\":16787:16827   */\n      swap2\n      swap1\n      pop\n      jump\t// out\n        /* \"#utility.yul\":16833:16947   */\n    tag_316:\n      0x00\n        /* \"#utility.yul\":16934:16939   */\n      dup2\n        /* \"#utility.yul\":16928:16940   */\n      mload\n        /* \"#utility.yul\":16918:16940   */\n      swap1\n      pop\n        /* \"#utility.yul\":16907:16947   */\n      swap2\n      swap1\n      pop\n      jump\t// out\n        /* \"#utility.yul\":16953:17052   */\n    tag_337:\n      0x00\n        /* \"#utility.yul\":17039:17044   */\n      dup2\n        /* \"#utility.yul\":17033:17045   */\n      mload\n        /* \"#utility.yul\":17023:17045   */\n      swap1\n      pop\n        /* \"#utility.yul\":17012:17052   */\n      swap2\n      swap1\n      pop\n      jump\t// out\n        /* \"#utility.yul\":17058:17181   */\n    tag_312:\n      0x00\n        /* \"#utility.yul\":17170:17174   */\n      0x20\n        /* \"#utility.yul\":17165:17168   */\n      dup3\n        /* \"#utility.yul\":17161:17175   */\n      add\n        /* \"#utility.yul\":17153:17175   */\n      swap1\n      pop\n        /* \"#utility.yul\":17143:17181   */\n      swap2\n      swap1\n      pop\n      jump\t// out\n        /* \"#utility.yul\":17187:17300   */\n    tag_326:\n      0x00\n        /* \"#utility.yul\":17289:17293   */\n      0x20\n        /* \"#utility.yul\":17284:17287   */\n      dup3\n        /* \"#utility.yul\":17280:17294   */\n      add\n        /* \"#utility.yul\":17272:17294   */\n      swap1\n      pop\n        /* \"#utility.yul\":17262:17300   */\n      swap2\n      swap1\n      pop\n      jump\t// out\n        /* \"#utility.yul\":17306:17500   */\n    tag_304:\n      0x00\n        /* \"#utility.yul\":17449:17455   */\n      dup3\n        /* \"#utility.yul\":17444:17447   */\n      dup3\n        /* \"#utility.yul\":17437:17456   */\n      mstore\n        /* \"#utility.yul\":17489:17493   */\n      0x20\n        /* \"#utility.yul\":17484:17487   */\n      dup3\n        /* \"#utility.yul\":17480:17494   */\n      add\n        /* \"#utility.yul\":17465:17494   */\n      swap1\n      pop\n        /* \"#utility.yul\":17427:17500   */\n      swap3\n      swap2\n      pop\n      pop\n      jump\t// out\n        /* \"#utility.yul\":17506:17690   */\n    tag_318:\n      0x00\n        /* \"#utility.yul\":17639:17645   */\n      dup3\n        /* \"#utility.yul\":17634:17637   */\n      dup3\n        /* \"#utility.yul\":17627:17646   */\n      mstore\n        /* \"#utility.yul\":17679:17683   */\n      0x20\n        /* \"#utility.yul\":17674:17677   */\n      dup3\n        /* \"#utility.yul\":17670:17684   */\n      add\n        /* \"#utility.yul\":17655:17684   */\n      swap1\n      pop\n        /* \"#utility.yul\":17617:17690   */\n      swap3\n      swap2\n      pop\n      pop\n      jump\t// out\n        /* \"#utility.yul\":17696:17855   */\n    tag_339:\n      0x00\n        /* \"#utility.yul\":17804:17810   */\n      dup3\n        /* \"#utility.yul\":17799:17802   */\n      dup3\n        /* \"#utility.yul\":17792:17811   */\n      mstore\n        /* \"#utility.yul\":17844:17848   */\n      0x20\n        /* \"#utility.yul\":17839:17842   */\n      dup3\n        /* \"#utility.yul\":17835:17849   */\n      add\n        /* \"#utility.yul\":17820:17849   */\n      swap1\n      pop\n        /* \"#utility.yul\":17782:17855   */\n      swap3\n      swap2\n      pop\n      pop\n      jump\t// out\n        /* \"#utility.yul\":17861:18030   */\n    tag_347:\n      0x00\n        /* \"#utility.yul\":17979:17985   */\n      dup3\n        /* \"#utility.yul\":17974:17977   */\n      dup3\n        /* \"#utility.yul\":17967:17986   */\n      mstore\n        /* \"#utility.yul\":18019:18023   */\n      0x20\n        /* \"#utility.yul\":18014:18017   */\n      dup3\n        /* \"#utility.yul\":18010:18024   */\n      add\n        /* \"#utility.yul\":17995:18024   */\n      swap1\n      pop\n        /* \"#utility.yul\":17957:18030   */\n      swap3\n      swap2\n      pop\n      pop\n      jump\t// out\n        /* \"#utility.yul\":18036:18341   */\n    tag_163:\n      0x00\n        /* \"#utility.yul\":18095:18115   */\n      tag_439\n        /* \"#utility.yul\":18113:18114   */\n      dup3\n        /* \"#utility.yul\":18095:18115   */\n      tag_377\n      jump\t// in\n    tag_439:\n        /* \"#utility.yul\":18090:18115   */\n      swap2\n      pop\n        /* \"#utility.yul\":18129:18149   */\n      tag_440\n        /* \"#utility.yul\":18147:18148   */\n      dup4\n        /* \"#utility.yul\":18129:18149   */\n      tag_377\n      jump\t// in\n    tag_440:\n        /* \"#utility.yul\":18124:18149   */\n      swap3\n      pop\n        /* \"#utility.yul\":18283:18284   */\n      dup3\n        /* \"#utility.yul\":18215:18281   */\n      0xffffffffffffffffffffffffffffffffffffffffffffffffffffffffffffffff\n        /* \"#utility.yul\":18211:18285   */\n      sub\n        /* \"#utility.yul\":18208:18209   */\n      dup3\n        /* \"#utility.yul\":18205:18286   */\n      gt\n        /* \"#utility.yul\":18202:18204   */\n      iszero\n      tag_441\n      jumpi\n        /* \"#utility.yul\":18289:18307   */\n      tag_442\n      tag_443\n      jump\t// in\n    tag_442:\n        /* \"#utility.yul\":18202:18204   */\n    tag_441:\n        /* \"#utility.yul\":18333:18334   */\n      dup3\n        /* \"#utility.yul\":18330:18331   */\n      dup3\n        /* \"#utility.yul\":18326:18335   */\n      add\n        /* \"#utility.yul\":18319:18335   */\n      swap1\n      pop\n        /* \"#utility.yul\":18080:18341   */\n      swap3\n      swap2\n      pop\n      pop\n      jump\t// out\n        /* \"#utility.yul\":18347:18532   */\n    tag_201:\n      0x00\n        /* \"#utility.yul\":18404:18424   */\n      tag_445\n        /* \"#utility.yul\":18422:18423   */\n      dup3\n        /* \"#utility.yul\":18404:18424   */\n      tag_377\n      jump\t// in\n    tag_445:\n        /* \"#utility.yul\":18399:18424   */\n      swap2\n      pop\n        /* \"#utility.yul\":18438:18458   */\n      tag_446\n        /* \"#utility.yul\":18456:18457   */\n      dup4\n        /* \"#utility.yul\":18438:18458   */\n      tag_377\n      jump\t// in\n    tag_446:\n        /* \"#utility.yul\":18433:18458   */\n      swap3\n      pop\n        /* \"#utility.yul\":18477:18478   */\n      dup3\n        /* \"#utility.yul\":18467:18469   */\n      tag_447\n      jumpi\n        /* \"#utility.yul\":18482:18500   */\n      tag_448\n      tag_449\n      jump\t// in\n    tag_448:\n        /* \"#utility.yul\":18467:18469   */\n    tag_447:\n        /* \"#utility.yul\":18524:18525   */\n      dup3\n        /* \"#utility.yul\":18521:18522   */\n      dup3\n        /* \"#utility.yul\":18517:18526   */\n      div\n        /* \"#utility.yul\":18512:18526   */\n      swap1\n      pop\n        /* \"#utility.yul\":18389:18532   */\n      swap3\n      swap2\n      pop\n      pop\n      jump\t// out\n        /* \"#utility.yul\":18538:18886   */\n    tag_203:\n      0x00\n        /* \"#utility.yul\":18601:18621   */\n      tag_451\n        /* \"#utility.yul\":18619:18620   */\n      dup3\n        /* \"#utility.yul\":18601:18621   */\n      tag_377\n      jump\t// in\n    tag_451:\n        /* \"#utility.yul\":18596:18621   */\n      swap2\n      pop\n        /* \"#utility.yul\":18635:18655   */\n      tag_452\n        /* \"#utility.yul\":18653:18654   */\n      dup4\n        /* \"#utility.yul\":18635:18655   */\n      tag_377\n      jump\t// in\n    tag_452:\n        /* \"#utility.yul\":18630:18655   */\n      swap3\n      pop\n        /* \"#utility.yul\":18823:18824   */\n      dup2\n        /* \"#utility.yul\":18755:18821   */\n      0xffffffffffffffffffffffffffffffffffffffffffffffffffffffffffffffff\n        /* \"#utility.yul\":18751:18825   */\n      div\n        /* \"#utility.yul\":18748:18749   */\n      dup4\n        /* \"#utility.yul\":18745:18826   */\n      gt\n        /* \"#utility.yul\":18740:18741   */\n      dup3\n        /* \"#utility.yul\":18733:18742   */\n      iszero\n        /* \"#utility.yul\":18726:18743   */\n      iszero\n        /* \"#utility.yul\":18722:18827   */\n      and\n        /* \"#utility.yul\":18719:18721   */\n      iszero\n      tag_453\n      jumpi\n        /* \"#utility.yul\":18830:18848   */\n      tag_454\n      tag_443\n      jump\t// in\n    tag_454:\n        /* \"#utility.yul\":18719:18721   */\n    tag_453:\n        /* \"#utility.yul\":18878:18879   */\n      dup3\n        /* \"#utility.yul\":18875:18876   */\n      dup3\n        /* \"#utility.yul\":18871:18880   */\n      mul\n        /* \"#utility.yul\":18860:18880   */\n      swap1\n      pop\n        /* \"#utility.yul\":18586:18886   */\n      swap3\n      swap2\n      pop\n      pop\n      jump\t// out\n        /* \"#utility.yul\":18892:19083   */\n    tag_121:\n      0x00\n        /* \"#utility.yul\":18952:18972   */\n      tag_456\n        /* \"#utility.yul\":18970:18971   */\n      dup3\n        /* \"#utility.yul\":18952:18972   */\n      tag_377\n      jump\t// in\n    tag_456:\n        /* \"#utility.yul\":18947:18972   */\n      swap2\n      pop\n        /* \"#utility.yul\":18986:19006   */\n      tag_457\n        /* \"#utility.yul\":19004:19005   */\n      dup4\n        /* \"#utility.yul\":18986:19006   */\n      tag_377\n      jump\t// in\n    tag_457:\n        /* \"#utility.yul\":18981:19006   */\n      swap3\n      pop\n        /* \"#utility.yul\":19025:19026   */\n      dup3\n        /* \"#utility.yul\":19022:19023   */\n      dup3\n        /* \"#utility.yul\":19019:19027   */\n      lt\n        /* \"#utility.yul\":19016:19018   */\n      iszero\n      tag_458\n      jumpi\n        /* \"#utility.yul\":19030:19048   */\n      tag_459\n      tag_443\n      jump\t// in\n    tag_459:\n        /* \"#utility.yul\":19016:19018   */\n    tag_458:\n        /* \"#utility.yul\":19075:19076   */\n      dup3\n        /* \"#utility.yul\":19072:19073   */\n      dup3\n        /* \"#utility.yul\":19068:19077   */\n      sub\n        /* \"#utility.yul\":19060:19077   */\n      swap1\n      pop\n        /* \"#utility.yul\":18937:19083   */\n      swap3\n      swap2\n      pop\n      pop\n      jump\t// out\n        /* \"#utility.yul\":19089:19185   */\n    tag_298:\n      0x00\n        /* \"#utility.yul\":19155:19179   */\n      tag_461\n        /* \"#utility.yul\":19173:19178   */\n      dup3\n        /* \"#utility.yul\":19155:19179   */\n      tag_462\n      jump\t// in\n    tag_461:\n        /* \"#utility.yul\":19144:19179   */\n      swap1\n      pop\n        /* \"#utility.yul\":19134:19185   */\n      swap2\n      swap1\n      pop\n      jump\t// out\n        /* \"#utility.yul\":19191:19281   */\n    tag_330:\n      0x00\n        /* \"#utility.yul\":19268:19273   */\n      dup2\n        /* \"#utility.yul\":19261:19274   */\n      iszero\n        /* \"#utility.yul\":19254:19275   */\n      iszero\n        /* \"#utility.yul\":19243:19275   */\n      swap1\n      pop\n        /* \"#utility.yul\":19233:19281   */\n      swap2\n      swap1\n      pop\n      jump\t// out\n        /* \"#utility.yul\":19287:19413   */\n    tag_462:\n      0x00\n        /* \"#utility.yul\":19364:19406   */\n      0xffffffffffffffffffffffffffffffffffffffff\n        /* \"#utility.yul\":19357:19362   */\n      dup3\n        /* \"#utility.yul\":19353:19407   */\n      and\n        /* \"#utility.yul\":19342:19407   */\n      swap1\n      pop\n        /* \"#utility.yul\":19332:19413   */\n      swap2\n      swap1\n      pop\n      jump\t// out\n        /* \"#utility.yul\":19419:19496   */\n    tag_377:\n      0x00\n        /* \"#utility.yul\":19485:19490   */\n      dup2\n        /* \"#utility.yul\":19474:19490   */\n      swap1\n      pop\n        /* \"#utility.yul\":19464:19496   */\n      swap2\n      swap1\n      pop\n      jump\t// out\n        /* \"#utility.yul\":19502:19654   */\n    tag_334:\n      0x00\n        /* \"#utility.yul\":19598:19648   */\n      tag_467\n        /* \"#utility.yul\":19642:19647   */\n      dup3\n        /* \"#utility.yul\":19598:19648   */\n      tag_468\n      jump\t// in\n    tag_467:\n        /* \"#utility.yul\":19585:19648   */\n      swap1\n      pop\n        /* \"#utility.yul\":19575:19654   */\n      swap2\n      swap1\n      pop\n      jump\t// out\n        /* \"#utility.yul\":19660:19786   */\n    tag_468:\n      0x00\n        /* \"#utility.yul\":19756:19780   */\n      tag_470\n        /* \"#utility.yul\":19774:19779   */\n      dup3\n        /* \"#utility.yul\":19756:19780   */\n      tag_462\n      jump\t// in\n    tag_470:\n        /* \"#utility.yul\":19743:19780   */\n      swap1\n      pop\n        /* \"#utility.yul\":19733:19786   */\n      swap2\n      swap1\n      pop\n      jump\t// out\n        /* \"#utility.yul\":19792:19946   */\n    tag_243:\n        /* \"#utility.yul\":19876:19882   */\n      dup3\n        /* \"#utility.yul\":19871:19874   */\n      dup2\n        /* \"#utility.yul\":19866:19869   */\n      dup4\n        /* \"#utility.yul\":19853:19883   */\n      calldatacopy\n        /* \"#utility.yul\":19938:19939   */\n      0x00\n        /* \"#utility.yul\":19929:19935   */\n      dup4\n        /* \"#utility.yul\":19924:19927   */\n      dup4\n        /* \"#utility.yul\":19920:19936   */\n      add\n        /* \"#utility.yul\":19913:19940   */\n      mstore\n        /* \"#utility.yul\":19843:19946   */\n      pop\n      pop\n      pop\n      jump\t// out\n        /* \"#utility.yul\":19952:20259   */\n    tag_341:\n        /* \"#utility.yul\":20020:20021   */\n      0x00\n        /* \"#utility.yul\":20030:20143   */\n    tag_473:\n        /* \"#utility.yul\":20044:20050   */\n      dup4\n        /* \"#utility.yul\":20041:20042   */\n      dup2\n        /* \"#utility.yul\":20038:20051   */\n      lt\n        /* \"#utility.yul\":20030:20143   */\n      iszero\n      tag_475\n      jumpi\n        /* \"#utility.yul\":20129:20130   */\n      dup1\n        /* \"#utility.yul\":20124:20127   */\n      dup3\n        /* \"#utility.yul\":20120:20131   */\n      add\n        /* \"#utility.yul\":20114:20132   */\n      mload\n        /* \"#utility.yul\":20110:20111   */\n      dup2\n        /* \"#utility.yul\":20105:20108   */\n      dup5\n        /* \"#utility.yul\":20101:20112   */\n      add\n        /* \"#utility.yul\":20094:20133   */\n      mstore\n        /* \"#utility.yul\":20066:20068   */\n      0x20\n        /* \"#utility.yul\":20063:20064   */\n      dup2\n        /* \"#utility.yul\":20059:20069   */\n      add\n        /* \"#utility.yul\":20054:20069   */\n      swap1\n      pop\n        /* \"#utility.yul\":20030:20143   */\n      jump(tag_473)\n    tag_475:\n        /* \"#utility.yul\":20161:20167   */\n      dup4\n        /* \"#utility.yul\":20158:20159   */\n      dup2\n        /* \"#utility.yul\":20155:20168   */\n      gt\n        /* \"#utility.yul\":20152:20154   */\n      iszero\n      tag_476\n      jumpi\n        /* \"#utility.yul\":20241:20242   */\n      0x00\n        /* \"#utility.yul\":20232:20238   */\n      dup5\n        /* \"#utility.yul\":20227:20230   */\n      dup5\n        /* \"#utility.yul\":20223:20239   */\n      add\n        /* \"#utility.yul\":20216:20243   */\n      mstore\n        /* \"#utility.yul\":20152:20154   */\n    tag_476:\n        /* \"#utility.yul\":20001:20259   */\n      pop\n      pop\n      pop\n      pop\n      jump\t// out\n        /* \"#utility.yul\":20265:20436   */\n    tag_130:\n      0x00\n        /* \"#utility.yul\":20327:20351   */\n      tag_478\n        /* \"#utility.yul\":20345:20350   */\n      dup3\n        /* \"#utility.yul\":20327:20351   */\n      tag_377\n      jump\t// in\n    tag_478:\n        /* \"#utility.yul\":20318:20351   */\n      swap2\n      pop\n        /* \"#utility.yul\":20373:20377   */\n      0x00\n        /* \"#utility.yul\":20366:20371   */\n      dup3\n        /* \"#utility.yul\":20363:20378   */\n      eq\n        /* \"#utility.yul\":20360:20362   */\n      iszero\n      tag_479\n      jumpi\n        /* \"#utility.yul\":20381:20399   */\n      tag_480\n      tag_443\n      jump\t// in\n    tag_480:\n        /* \"#utility.yul\":20360:20362   */\n    tag_479:\n        /* \"#utility.yul\":20428:20429   */\n      0x01\n        /* \"#utility.yul\":20421:20426   */\n      dup3\n        /* \"#utility.yul\":20417:20430   */\n      sub\n        /* \"#utility.yul\":20410:20430   */\n      swap1\n      pop\n        /* \"#utility.yul\":20308:20436   */\n      swap2\n      swap1\n      pop\n      jump\t// out\n        /* \"#utility.yul\":20442:20723   */\n    tag_414:\n        /* \"#utility.yul\":20525:20552   */\n      tag_482\n        /* \"#utility.yul\":20547:20551   */\n      dup3\n        /* \"#utility.yul\":20525:20552   */\n      tag_343\n      jump\t// in\n    tag_482:\n        /* \"#utility.yul\":20517:20523   */\n      dup2\n        /* \"#utility.yul\":20513:20553   */\n      add\n        /* \"#utility.yul\":20655:20661   */\n      dup2\n        /* \"#utility.yul\":20643:20653   */\n      dup2\n        /* \"#utility.yul\":20640:20662   */\n      lt\n        /* \"#utility.yul\":20619:20637   */\n      0xffffffffffffffff\n        /* \"#utility.yul\":20607:20617   */\n      dup3\n        /* \"#utility.yul\":20604:20638   */\n      gt\n        /* \"#utility.yul\":20601:20663   */\n      or\n        /* \"#utility.yul\":20598:20600   */\n      iszero\n      tag_483\n      jumpi\n        /* \"#utility.yul\":20666:20684   */\n      tag_484\n      tag_419\n      jump\t// in\n    tag_484:\n        /* \"#utility.yul\":20598:20600   */\n    tag_483:\n        /* \"#utility.yul\":20706:20716   */\n      dup1\n        /* \"#utility.yul\":20702:20704   */\n      0x40\n        /* \"#utility.yul\":20695:20717   */\n      mstore\n        /* \"#utility.yul\":20485:20723   */\n      pop\n      pop\n      pop\n      jump\t// out\n        /* \"#utility.yul\":20729:20909   */\n    tag_443:\n        /* \"#utility.yul\":20777:20854   */\n      0x4e487b7100000000000000000000000000000000000000000000000000000000\n        /* \"#utility.yul\":20774:20775   */\n      0x00\n        /* \"#utility.yul\":20767:20855   */\n      mstore\n        /* \"#utility.yul\":20874:20878   */\n      0x11\n        /* \"#utility.yul\":20871:20872   */\n      0x04\n        /* \"#utility.yul\":20864:20879   */\n      mstore\n        /* \"#utility.yul\":20898:20902   */\n      0x24\n        /* \"#utility.yul\":20895:20896   */\n      0x00\n        /* \"#utility.yul\":20888:20903   */\n      revert\n        /* \"#utility.yul\":20915:21095   */\n    tag_449:\n        /* \"#utility.yul\":20963:21040   */\n      0x4e487b7100000000000000000000000000000000000000000000000000000000\n        /* \"#utility.yul\":20960:20961   */\n      0x00\n        /* \"#utility.yul\":20953:21041   */\n      mstore\n        /* \"#utility.yul\":21060:21064   */\n      0x12\n        /* \"#utility.yul\":21057:21058   */\n      0x04\n        /* \"#utility.yul\":21050:21065   */\n      mstore\n        /* \"#utility.yul\":21084:21088   */\n      0x24\n        /* \"#utility.yul\":21081:21082   */\n      0x00\n        /* \"#utility.yul\":21074:21089   */\n      revert\n        /* \"#utility.yul\":21101:21281   */\n    tag_419:\n        /* \"#utility.yul\":21149:21226   */\n      0x4e487b7100000000000000000000000000000000000000000000000000000000\n        /* \"#utility.yul\":21146:21147   */\n      0x00\n        /* \"#utility.yul\":21139:21227   */\n      mstore\n        /* \"#utility.yul\":21246:21250   */\n      0x41\n        /* \"#utility.yul\":21243:21244   */\n      0x04\n        /* \"#utility.yul\":21236:21251   */\n      mstore\n        /* \"#utility.yul\":21270:21274   */\n      0x24\n        /* \"#utility.yul\":21267:21268   */\n      0x00\n        /* \"#utility.yul\":21260:21275   */\n      revert\n        /* \"#utility.yul\":21287:21389   */\n    tag_343:\n      0x00\n        /* \"#utility.yul\":21379:21381   */\n      0x1f\n        /* \"#utility.yul\":21375:21382   */\n      not\n        /* \"#utility.yul\":21370:21372   */\n      0x1f\n        /* \"#utility.yul\":21363:21368   */\n      dup4\n        /* \"#utility.yul\":21359:21373   */\n      add\n        /* \"#utility.yul\":21355:21383   */\n      and\n        /* \"#utility.yul\":21345:21383   */\n      swap1\n      pop\n        /* \"#utility.yul\":21335:21389   */\n      swap2\n      swap1\n      pop\n      jump\t// out\n        /* \"#utility.yul\":21395:21636   */\n    tag_349:\n        /* \"#utility.yul\":21535:21569   */\n      0x43616e6e6f74206d696e7420746f207472656173757279206164647265737320\n        /* \"#utility.yul\":21531:21532   */\n      0x00\n        /* \"#utility.yul\":21523:21529   */\n      dup3\n        /* \"#utility.yul\":21519:21533   */\n      add\n        /* \"#utility.yul\":21512:21570   */\n      mstore\n        /* \"#utility.yul\":21604:21628   */\n      0x756e74696c2073616c652069732066696e697368656400000000000000000000\n        /* \"#utility.yul\":21599:21601   */\n      0x20\n        /* \"#utility.yul\":21591:21597   */\n      dup3\n        /* \"#utility.yul\":21587:21602   */\n      add\n        /* \"#utility.yul\":21580:21629   */\n      mstore\n        /* \"#utility.yul\":21501:21636   */\n      pop\n      jump\t// out\n        /* \"#utility.yul\":21642:21867   */\n    tag_354:\n        /* \"#utility.yul\":21782:21816   */\n      0x4f776e61626c653a206e6577206f776e657220697320746865207a65726f2061\n        /* \"#utility.yul\":21778:21779   */\n      0x00\n        /* \"#utility.yul\":21770:21776   */\n      dup3\n        /* \"#utility.yul\":21766:21780   */\n      add\n        /* \"#utility.yul\":21759:21817   */\n      mstore\n        /* \"#utility.yul\":21851:21859   */\n      0x6464726573730000000000000000000000000000000000000000000000000000\n        /* \"#utility.yul\":21846:21848   */\n      0x20\n        /* \"#utility.yul\":21838:21844   */\n      dup3\n        /* \"#utility.yul\":21834:21849   */\n      add\n        /* \"#utility.yul\":21827:21860   */\n      mstore\n        /* \"#utility.yul\":21748:21867   */\n      pop\n      jump\t// out\n        /* \"#utility.yul\":21873:22054   */\n    tag_359:\n        /* \"#utility.yul\":22013:22046   */\n      0x737461727454696d65206973206c61746572207468616e20656e6454696d6500\n        /* \"#utility.yul\":22009:22010   */\n      0x00\n        /* \"#utility.yul\":22001:22007   */\n      dup3\n        /* \"#utility.yul\":21997:22011   */\n      add\n        /* \"#utility.yul\":21990:22047   */\n      mstore\n        /* \"#utility.yul\":21979:22054   */\n      pop\n      jump\t// out\n        /* \"#utility.yul\":22060:22303   */\n    tag_364:\n        /* \"#utility.yul\":22200:22234   */\n      0x796f757220555344432062616c616e6365206973206c657373207468616e2074\n        /* \"#utility.yul\":22196:22197   */\n      0x00\n        /* \"#utility.yul\":22188:22194   */\n      dup3\n        /* \"#utility.yul\":22184:22198   */\n      add\n        /* \"#utility.yul\":22177:22235   */\n      mstore\n        /* \"#utility.yul\":22269:22295   */\n      0x68652063757272656e742061756374696f6e2070726963650000000000000000\n        /* \"#utility.yul\":22264:22266   */\n      0x20\n        /* \"#utility.yul\":22256:22262   */\n      dup3\n        /* \"#utility.yul\":22252:22267   */\n      add\n        /* \"#utility.yul\":22245:22296   */\n      mstore\n        /* \"#utility.yul\":22166:22303   */\n      pop\n      jump\t// out\n        /* \"#utility.yul\":22309:22491   */\n    tag_369:\n        /* \"#utility.yul\":22449:22483   */\n      0x4f776e61626c653a2063616c6c6572206973206e6f7420746865206f776e6572\n        /* \"#utility.yul\":22445:22446   */\n      0x00\n        /* \"#utility.yul\":22437:22443   */\n      dup3\n        /* \"#utility.yul\":22433:22447   */\n      add\n        /* \"#utility.yul\":22426:22484   */\n      mstore\n        /* \"#utility.yul\":22415:22491   */\n      pop\n      jump\t// out\n        /* \"#utility.yul\":22497:22727   */\n    tag_374:\n        /* \"#utility.yul\":22637:22671   */\n      0x616d6f756e74207472616e73666572726564206d757374206265206120706f73\n        /* \"#utility.yul\":22633:22634   */\n      0x00\n        /* \"#utility.yul\":22625:22631   */\n      dup3\n        /* \"#utility.yul\":22621:22635   */\n      add\n        /* \"#utility.yul\":22614:22672   */\n      mstore\n        /* \"#utility.yul\":22706:22719   */\n      0x69746976652076616c7565000000000000000000000000000000000000000000\n        /* \"#utility.yul\":22701:22703   */\n      0x20\n        /* \"#utility.yul\":22693:22699   */\n      dup3\n        /* \"#utility.yul\":22689:22704   */\n      add\n        /* \"#utility.yul\":22682:22720   */\n      mstore\n        /* \"#utility.yul\":22603:22727   */\n      pop\n      jump\t// out\n        /* \"#utility.yul\":22733:22855   */\n    tag_247:\n        /* \"#utility.yul\":22806:22830   */\n      tag_496\n        /* \"#utility.yul\":22824:22829   */\n      dup2\n        /* \"#utility.yul\":22806:22830   */\n      tag_298\n      jump\t// in\n    tag_496:\n        /* \"#utility.yul\":22799:22804   */\n      dup2\n        /* \"#utility.yul\":22796:22831   */\n      eq\n        /* \"#utility.yul\":22786:22788   */\n      tag_497\n      jumpi\n        /* \"#utility.yul\":22845:22846   */\n      0x00\n        /* \"#utility.yul\":22842:22843   */\n      dup1\n        /* \"#utility.yul\":22835:22847   */\n      revert\n        /* \"#utility.yul\":22786:22788   */\n    tag_497:\n        /* \"#utility.yul\":22776:22855   */\n      pop\n      jump\t// out\n        /* \"#utility.yul\":22861:22977   */\n    tag_259:\n        /* \"#utility.yul\":22931:22952   */\n      tag_499\n        /* \"#utility.yul\":22946:22951   */\n      dup2\n        /* \"#utility.yul\":22931:22952   */\n      tag_330\n      jump\t// in\n    tag_499:\n        /* \"#utility.yul\":22924:22929   */\n      dup2\n        /* \"#utility.yul\":22921:22953   */\n      eq\n        /* \"#utility.yul\":22911:22913   */\n      tag_500\n      jumpi\n        /* \"#utility.yul\":22967:22968   */\n      0x00\n        /* \"#utility.yul\":22964:22965   */\n      dup1\n        /* \"#utility.yul\":22957:22969   */\n      revert\n        /* \"#utility.yul\":22911:22913   */\n    tag_500:\n        /* \"#utility.yul\":22901:22977   */\n      pop\n      jump\t// out\n        /* \"#utility.yul\":22983:23105   */\n    tag_265:\n        /* \"#utility.yul\":23056:23080   */\n      tag_502\n        /* \"#utility.yul\":23074:23079   */\n      dup2\n        /* \"#utility.yul\":23056:23080   */\n      tag_377\n      jump\t// in\n    tag_502:\n        /* \"#utility.yul\":23049:23054   */\n      dup2\n        /* \"#utility.yul\":23046:23081   */\n      eq\n        /* \"#utility.yul\":23036:23038   */\n      tag_503\n      jumpi\n        /* \"#utility.yul\":23095:23096   */\n      0x00\n        /* \"#utility.yul\":23092:23093   */\n      dup1\n        /* \"#utility.yul\":23085:23097   */\n      revert\n        /* \"#utility.yul\":23036:23038   */\n    tag_503:\n        /* \"#utility.yul\":23026:23105   */\n      pop\n      jump\t// out\n\n    auxdata: 0xa26469706673582212206dbdd6e4e142229dc4d37dbea33d96ba3fe787212db6010c7210dc65180e03a364736f6c63430008010033\n}\n",
				"bytecode": {
					"linkReferences": {},
					"object": "60806040526370dc49006005556370dc4964600655600a600755600160085560405180606001604052806127108152602001428152602001600015158152506009600082015181600001556020820151816001015560408201518160020160006101000a81548160ff021916908315150217905550505034801561008257600080fd5b5061009f6100946100f960201b60201c565b61010160201b60201c565b73e11a86849d99f524cac3e7a0ec1241828e332c62600360006101000a81548173ffffffffffffffffffffffffffffffffffffffff021916908373ffffffffffffffffffffffffffffffffffffffff1602179055506101c5565b600033905090565b60008060009054906101000a900473ffffffffffffffffffffffffffffffffffffffff169050816000806101000a81548173ffffffffffffffffffffffffffffffffffffffff021916908373ffffffffffffffffffffffffffffffffffffffff1602179055508173ffffffffffffffffffffffffffffffffffffffff168173ffffffffffffffffffffffffffffffffffffffff167f8be0079c531659141344cd1fd0a4f28419497f9722a3daafe3b4186f6b6457e060405160405180910390a35050565b611cf8806101d46000396000f3fe608060405234801561001057600080fd5b50600436106101165760003560e01c8063a99c68c5116100a2578063c5f956af11610071578063c5f956af14610273578063ddb4acd014610291578063eba5794d146102ad578063f121da92146102c9578063f2fde38b146102e557610116565b8063a99c68c5146101fd578063b79d283f1461022d578063bff29cee14610249578063c04637111461025357610116565b806368fc01a2116100e957806368fc01a214610191578063715018a6146101af5780638da5cb5b146101b957806391232f18146101d7578063944044a1146101e157610116565b806311ce02671461011b57806311eac855146101395780634c0f38c21461015757806351f7598c14610175575b600080fd5b610123610301565b6040516101309190611530565b60405180910390f35b610141610327565b60405161014e91906115b9565b60405180910390f35b61015f61034d565b60405161016c9190611694565b60405180910390f35b61018f600480360381019061018a91906111cb565b6103f4565b005b6101996104b4565b6040516101a69190611694565b60405180910390f35b6101b761055b565b005b6101c16105e3565b6040516101ce9190611530565b60405180910390f35b6101df61060c565b005b6101fb60048036038101906101f69190611289565b6106e9565b005b610217600480360381019061021291906111cb565b61076f565b6040516102249190611694565b60405180910390f35b61024760048036038101906102429190611289565b610787565b005b61025161080d565b005b61025b610901565b60405161026a939291906116af565b60405180910390f35b61027b610926565b6040516102889190611530565b60405180910390f35b6102ab60048036038101906102a69190611289565b61094c565b005b6102c760048036038101906102c29190611289565b610a9a565b005b6102e360048036038101906102de91906111f4565b610ba5565b005b6102ff60048036038101906102fa91906111cb565b610cb4565b005b600160009054906101000a900473ffffffffffffffffffffffffffffffffffffffff1681565b600360009054906101000a900473ffffffffffffffffffffffffffffffffffffffff1681565b6000600160009054906101000a900473ffffffffffffffffffffffffffffffffffffffff1673ffffffffffffffffffffffffffffffffffffffff16634c0f38c26040518163ffffffff1660e01b815260040160206040518083038186803b1580156103b757600080fd5b505afa1580156103cb573d6000803e3d6000fd5b505050506040513d601f19601f820116820180604052508101906103ef91906112b2565b905090565b6103fc610dac565b73ffffffffffffffffffffffffffffffffffffffff1661041a6105e3565b73ffffffffffffffffffffffffffffffffffffffff1614610470576040517f08c379a000000000000000000000000000000000000000000000000000000000815260040161046790611654565b60405180910390fd5b80600160006101000a81548173ffffffffffffffffffffffffffffffffffffffff021916908373ffffffffffffffffffffffffffffffffffffffff16021790555050565b6000600160009054906101000a900473ffffffffffffffffffffffffffffffffffffffff1673ffffffffffffffffffffffffffffffffffffffff166368fc01a26040518163ffffffff1660e01b815260040160206040518083038186803b15801561051e57600080fd5b505afa158015610532573d6000803e3d6000fd5b505050506040513d601f19601f8201168201806040525081019061055691906112b2565b905090565b610563610dac565b73ffffffffffffffffffffffffffffffffffffffff166105816105e3565b73ffffffffffffffffffffffffffffffffffffffff16146105d7576040517f08c379a00000000000000000000000000000000000000000000000000000000081526004016105ce90611654565b60405180910390fd5b6105e16000610db4565b565b60008060009054906101000a900473ffffffffffffffffffffffffffffffffffffffff16905090565b610614610e78565b600654421180156106355750600960020160009054906101000a900460ff16155b610674576040517f08c379a000000000000000000000000000000000000000000000000000000000815260040161066b906115d4565b60405180910390fd5b600060016106806104b4565b61068a9190611914565b61069261034d565b61069c9190611914565b90505b60008111156106e6576106d3600260009054906101000a900473ffffffffffffffffffffffffffffffffffffffff16610f62565b80806106de906119f6565b91505061069f565b50565b6106f1610dac565b73ffffffffffffffffffffffffffffffffffffffff1661070f6105e3565b73ffffffffffffffffffffffffffffffffffffffff1614610765576040517f08c379a000000000000000000000000000000000000000000000000000000000815260040161075c90611654565b60405180910390fd5b8060058190555050565b60046020528060005260406000206000915090505481565b61078f610dac565b73ffffffffffffffffffffffffffffffffffffffff166107ad6105e3565b73ffffffffffffffffffffffffffffffffffffffff1614610803576040517f08c379a00000000000000000000000000000000000000000000000000000000081526004016107fa90611654565b60405180910390fd5b8060068190555050565b610815610e78565b600960000154600460003373ffffffffffffffffffffffffffffffffffffffff1673ffffffffffffffffffffffffffffffffffffffff168152602001908152602001600020541161089b576040517f08c379a000000000000000000000000000000000000000000000000000000000815260040161089290611634565b60405180910390fd5b600960000154600460003373ffffffffffffffffffffffffffffffffffffffff1673ffffffffffffffffffffffffffffffffffffffff16815260200190815260200160002060008282546108ef9190611914565b925050819055506108ff33610f62565b565b60098060000154908060010154908060020160009054906101000a900460ff16905083565b600260009054906101000a900473ffffffffffffffffffffffffffffffffffffffff1681565b6000811161098f576040517f08c379a000000000000000000000000000000000000000000000000000000000815260040161098690611674565b60405180910390fd5b600360009054906101000a900473ffffffffffffffffffffffffffffffffffffffff1673ffffffffffffffffffffffffffffffffffffffff166323b872dd3330846040518463ffffffff1660e01b81526004016109ee9392919061154b565b602060405180830381600087803b158015610a0857600080fd5b505af1158015610a1c573d6000803e3d6000fd5b505050506040513d601f19601f82011682018060405250810190610a409190611260565b5080600460003373ffffffffffffffffffffffffffffffffffffffff1673ffffffffffffffffffffffffffffffffffffffff1681526020019081526020016000206000828254610a909190611833565b9250508190555050565b80600460003373ffffffffffffffffffffffffffffffffffffffff1673ffffffffffffffffffffffffffffffffffffffff1681526020019081526020016000206000828254610ae99190611914565b92505081905550600360009054906101000a900473ffffffffffffffffffffffffffffffffffffffff1673ffffffffffffffffffffffffffffffffffffffff166323b872dd3033846040518463ffffffff1660e01b8152600401610b4f9392919061154b565b602060405180830381600087803b158015610b6957600080fd5b505af1158015610b7d573d6000803e3d6000fd5b505050506040513d601f19601f82011682018060405250810190610ba19190611260565b5050565b610bad610dac565b73ffffffffffffffffffffffffffffffffffffffff16610bcb6105e3565b73ffffffffffffffffffffffffffffffffffffffff1614610c21576040517f08c379a0000000000000000000000000000000000000000000000000000000008152600401610c1890611654565b60405180910390fd5b600160009054906101000a900473ffffffffffffffffffffffffffffffffffffffff1673ffffffffffffffffffffffffffffffffffffffff1663f121da9283836040518363ffffffff1660e01b8152600401610c7e929190611582565b600060405180830381600087803b158015610c9857600080fd5b505af1158015610cac573d6000803e3d6000fd5b505050505050565b610cbc610dac565b73ffffffffffffffffffffffffffffffffffffffff16610cda6105e3565b73ffffffffffffffffffffffffffffffffffffffff1614610d30576040517f08c379a0000000000000000000000000000000000000000000000000000000008152600401610d2790611654565b60405180910390fd5b600073ffffffffffffffffffffffffffffffffffffffff168173ffffffffffffffffffffffffffffffffffffffff161415610da0576040517f08c379a0000000000000000000000000000000000000000000000000000000008152600401610d97906115f4565b60405180910390fd5b610da981610db4565b50565b600033905090565b60008060009054906101000a900473ffffffffffffffffffffffffffffffffffffffff169050816000806101000a81548173ffffffffffffffffffffffffffffffffffffffff021916908373ffffffffffffffffffffffffffffffffffffffff1602179055508173ffffffffffffffffffffffffffffffffffffffff168173ffffffffffffffffffffffffffffffffffffffff167f8be0079c531659141344cd1fd0a4f28419497f9722a3daafe3b4186f6b6457e060405160405180910390a35050565b6006546005541115610ebf576040517f08c379a0000000000000000000000000000000000000000000000000000000008152600401610eb690611614565b60405180910390fd5b6001603c60055442610ed19190611914565b610edb9190611889565b610ee591906118ba565b600754610ef29190611914565b600960000181905550426009600101819055506005544210158015610f1957506006544211155b15610f41576001600960020160006101000a81548160ff021916908315150217905550610f60565b6000600960020160006101000a81548160ff0219169083151502179055505b565b600160009054906101000a900473ffffffffffffffffffffffffffffffffffffffff1673ffffffffffffffffffffffffffffffffffffffff166355676590826040518263ffffffff1660e01b8152600401610fbd9190611530565b600060405180830381600087803b158015610fd757600080fd5b505af1158015610feb573d6000803e3d6000fd5b5050505050565b60006110056110008461170b565b6116e6565b9050808382526020820190508260005b85811015611045578135850161102b8882611177565b845260208401935060208301925050600181019050611015565b5050509392505050565b600061106261105d84611737565b6116e6565b9050808382526020820190508285602086028201111561108157600080fd5b60005b858110156110b1578161109788826111a1565b845260208401935060208301925050600181019050611084565b5050509392505050565b60006110ce6110c984611763565b6116e6565b9050828152602081018484840111156110e657600080fd5b6110f18482856119b4565b509392505050565b60008135905061110881611c7d565b92915050565b600082601f83011261111f57600080fd5b813561112f848260208601610ff2565b91505092915050565b600082601f83011261114957600080fd5b813561115984826020860161104f565b91505092915050565b60008151905061117181611c94565b92915050565b600082601f83011261118857600080fd5b81356111988482602086016110bb565b91505092915050565b6000813590506111b081611cab565b92915050565b6000815190506111c581611cab565b92915050565b6000602082840312156111dd57600080fd5b60006111eb848285016110f9565b91505092915050565b6000806040838503121561120757600080fd5b600083013567ffffffffffffffff81111561122157600080fd5b61122d85828601611138565b925050602083013567ffffffffffffffff81111561124a57600080fd5b6112568582860161110e565b9150509250929050565b60006020828403121561127257600080fd5b600061128084828501611162565b91505092915050565b60006020828403121561129b57600080fd5b60006112a9848285016111a1565b91505092915050565b6000602082840312156112c457600080fd5b60006112d2848285016111b6565b91505092915050565b60006112e78383611407565b905092915050565b60006112fb8383611512565b60208301905092915050565b61131081611948565b82525050565b6000611321826117b4565b61132b81856117ef565b93508360208202850161133d85611794565b8060005b85811015611379578484038952815161135a85826112db565b9450611365836117d5565b925060208a01995050600181019050611341565b50829750879550505050505092915050565b6000611396826117bf565b6113a08185611800565b93506113ab836117a4565b8060005b838110156113dc5781516113c388826112ef565b97506113ce836117e2565b9250506001810190506113af565b5085935050505092915050565b6113f28161195a565b82525050565b61140181611990565b82525050565b6000611412826117ca565b61141c8185611811565b935061142c8185602086016119c3565b61143581611ade565b840191505092915050565b600061144d603683611822565b915061145882611aef565b604082019050919050565b6000611470602683611822565b915061147b82611b3e565b604082019050919050565b6000611493601f83611822565b915061149e82611b8d565b602082019050919050565b60006114b6603883611822565b91506114c182611bb6565b604082019050919050565b60006114d9602083611822565b91506114e482611c05565b602082019050919050565b60006114fc602b83611822565b915061150782611c2e565b604082019050919050565b61151b81611986565b82525050565b61152a81611986565b82525050565b60006020820190506115456000830184611307565b92915050565b60006060820190506115606000830186611307565b61156d6020830185611307565b61157a6040830184611521565b949350505050565b6000604082019050818103600083015261159c818561138b565b905081810360208301526115b08184611316565b90509392505050565b60006020820190506115ce60008301846113f8565b92915050565b600060208201905081810360008301526115ed81611440565b9050919050565b6000602082019050818103600083015261160d81611463565b9050919050565b6000602082019050818103600083015261162d81611486565b9050919050565b6000602082019050818103600083015261164d816114a9565b9050919050565b6000602082019050818103600083015261166d816114cc565b9050919050565b6000602082019050818103600083015261168d816114ef565b9050919050565b60006020820190506116a96000830184611521565b92915050565b60006060820190506116c46000830186611521565b6116d16020830185611521565b6116de60408301846113e9565b949350505050565b60006116f0611701565b90506116fc8282611a20565b919050565b6000604051905090565b600067ffffffffffffffff82111561172657611725611aaf565b5b602082029050602081019050919050565b600067ffffffffffffffff82111561175257611751611aaf565b5b602082029050602081019050919050565b600067ffffffffffffffff82111561177e5761177d611aaf565b5b61178782611ade565b9050602081019050919050565b6000819050602082019050919050565b6000819050602082019050919050565b600081519050919050565b600081519050919050565b600081519050919050565b6000602082019050919050565b6000602082019050919050565b600082825260208201905092915050565b600082825260208201905092915050565b600082825260208201905092915050565b600082825260208201905092915050565b600061183e82611986565b915061184983611986565b9250827fffffffffffffffffffffffffffffffffffffffffffffffffffffffffffffffff0382111561187e5761187d611a51565b5b828201905092915050565b600061189482611986565b915061189f83611986565b9250826118af576118ae611a80565b5b828204905092915050565b60006118c582611986565b91506118d083611986565b9250817fffffffffffffffffffffffffffffffffffffffffffffffffffffffffffffffff048311821515161561190957611908611a51565b5b828202905092915050565b600061191f82611986565b915061192a83611986565b92508282101561193d5761193c611a51565b5b828203905092915050565b600061195382611966565b9050919050565b60008115159050919050565b600073ffffffffffffffffffffffffffffffffffffffff82169050919050565b6000819050919050565b600061199b826119a2565b9050919050565b60006119ad82611966565b9050919050565b82818337600083830152505050565b60005b838110156119e15780820151818401526020810190506119c6565b838111156119f0576000848401525b50505050565b6000611a0182611986565b91506000821415611a1557611a14611a51565b5b600182039050919050565b611a2982611ade565b810181811067ffffffffffffffff82111715611a4857611a47611aaf565b5b80604052505050565b7f4e487b7100000000000000000000000000000000000000000000000000000000600052601160045260246000fd5b7f4e487b7100000000000000000000000000000000000000000000000000000000600052601260045260246000fd5b7f4e487b7100000000000000000000000000000000000000000000000000000000600052604160045260246000fd5b6000601f19601f8301169050919050565b7f43616e6e6f74206d696e7420746f20747265617375727920616464726573732060008201527f756e74696c2073616c652069732066696e697368656400000000000000000000602082015250565b7f4f776e61626c653a206e6577206f776e657220697320746865207a65726f206160008201527f6464726573730000000000000000000000000000000000000000000000000000602082015250565b7f737461727454696d65206973206c61746572207468616e20656e6454696d6500600082015250565b7f796f757220555344432062616c616e6365206973206c657373207468616e207460008201527f68652063757272656e742061756374696f6e2070726963650000000000000000602082015250565b7f4f776e61626c653a2063616c6c6572206973206e6f7420746865206f776e6572600082015250565b7f616d6f756e74207472616e73666572726564206d757374206265206120706f7360008201527f69746976652076616c7565000000000000000000000000000000000000000000602082015250565b611c8681611948565b8114611c9157600080fd5b50565b611c9d8161195a565b8114611ca857600080fd5b50565b611cb481611986565b8114611cbf57600080fd5b5056fea26469706673582212206dbdd6e4e142229dc4d37dbea33d96ba3fe787212db6010c7210dc65180e03a364736f6c63430008010033",
					"opcodes": "PUSH1 0x80 PUSH1 0x40 MSTORE PUSH4 0x70DC4900 PUSH1 0x5 SSTORE PUSH4 0x70DC4964 PUSH1 0x6 SSTORE PUSH1 0xA PUSH1 0x7 SSTORE PUSH1 0x1 PUSH1 0x8 SSTORE PUSH1 0x40 MLOAD DUP1 PUSH1 0x60 ADD PUSH1 0x40 MSTORE DUP1 PUSH2 0x2710 DUP2 MSTORE PUSH1 0x20 ADD TIMESTAMP DUP2 MSTORE PUSH1 0x20 ADD PUSH1 0x0 ISZERO ISZERO DUP2 MSTORE POP PUSH1 0x9 PUSH1 0x0 DUP3 ADD MLOAD DUP2 PUSH1 0x0 ADD SSTORE PUSH1 0x20 DUP3 ADD MLOAD DUP2 PUSH1 0x1 ADD SSTORE PUSH1 0x40 DUP3 ADD MLOAD DUP2 PUSH1 0x2 ADD PUSH1 0x0 PUSH2 0x100 EXP DUP2 SLOAD DUP2 PUSH1 0xFF MUL NOT AND SWAP1 DUP4 ISZERO ISZERO MUL OR SWAP1 SSTORE POP POP POP CALLVALUE DUP1 ISZERO PUSH2 0x82 JUMPI PUSH1 0x0 DUP1 REVERT JUMPDEST POP PUSH2 0x9F PUSH2 0x94 PUSH2 0xF9 PUSH1 0x20 SHL PUSH1 0x20 SHR JUMP JUMPDEST PUSH2 0x101 PUSH1 0x20 SHL PUSH1 0x20 SHR JUMP JUMPDEST PUSH20 0xE11A86849D99F524CAC3E7A0EC1241828E332C62 PUSH1 0x3 PUSH1 0x0 PUSH2 0x100 EXP DUP2 SLOAD DUP2 PUSH20 0xFFFFFFFFFFFFFFFFFFFFFFFFFFFFFFFFFFFFFFFF MUL NOT AND SWAP1 DUP4 PUSH20 0xFFFFFFFFFFFFFFFFFFFFFFFFFFFFFFFFFFFFFFFF AND MUL OR SWAP1 SSTORE POP PUSH2 0x1C5 JUMP JUMPDEST PUSH1 0x0 CALLER SWAP1 POP SWAP1 JUMP JUMPDEST PUSH1 0x0 DUP1 PUSH1 0x0 SWAP1 SLOAD SWAP1 PUSH2 0x100 EXP SWAP1 DIV PUSH20 0xFFFFFFFFFFFFFFFFFFFFFFFFFFFFFFFFFFFFFFFF AND SWAP1 POP DUP2 PUSH1 0x0 DUP1 PUSH2 0x100 EXP DUP2 SLOAD DUP2 PUSH20 0xFFFFFFFFFFFFFFFFFFFFFFFFFFFFFFFFFFFFFFFF MUL NOT AND SWAP1 DUP4 PUSH20 0xFFFFFFFFFFFFFFFFFFFFFFFFFFFFFFFFFFFFFFFF AND MUL OR SWAP1 SSTORE POP DUP2 PUSH20 0xFFFFFFFFFFFFFFFFFFFFFFFFFFFFFFFFFFFFFFFF AND DUP2 PUSH20 0xFFFFFFFFFFFFFFFFFFFFFFFFFFFFFFFFFFFFFFFF AND PUSH32 0x8BE0079C531659141344CD1FD0A4F28419497F9722A3DAAFE3B4186F6B6457E0 PUSH1 0x40 MLOAD PUSH1 0x40 MLOAD DUP1 SWAP2 SUB SWAP1 LOG3 POP POP JUMP JUMPDEST PUSH2 0x1CF8 DUP1 PUSH2 0x1D4 PUSH1 0x0 CODECOPY PUSH1 0x0 RETURN INVALID PUSH1 0x80 PUSH1 0x40 MSTORE CALLVALUE DUP1 ISZERO PUSH2 0x10 JUMPI PUSH1 0x0 DUP1 REVERT JUMPDEST POP PUSH1 0x4 CALLDATASIZE LT PUSH2 0x116 JUMPI PUSH1 0x0 CALLDATALOAD PUSH1 0xE0 SHR DUP1 PUSH4 0xA99C68C5 GT PUSH2 0xA2 JUMPI DUP1 PUSH4 0xC5F956AF GT PUSH2 0x71 JUMPI DUP1 PUSH4 0xC5F956AF EQ PUSH2 0x273 JUMPI DUP1 PUSH4 0xDDB4ACD0 EQ PUSH2 0x291 JUMPI DUP1 PUSH4 0xEBA5794D EQ PUSH2 0x2AD JUMPI DUP1 PUSH4 0xF121DA92 EQ PUSH2 0x2C9 JUMPI DUP1 PUSH4 0xF2FDE38B EQ PUSH2 0x2E5 JUMPI PUSH2 0x116 JUMP JUMPDEST DUP1 PUSH4 0xA99C68C5 EQ PUSH2 0x1FD JUMPI DUP1 PUSH4 0xB79D283F EQ PUSH2 0x22D JUMPI DUP1 PUSH4 0xBFF29CEE EQ PUSH2 0x249 JUMPI DUP1 PUSH4 0xC0463711 EQ PUSH2 0x253 JUMPI PUSH2 0x116 JUMP JUMPDEST DUP1 PUSH4 0x68FC01A2 GT PUSH2 0xE9 JUMPI DUP1 PUSH4 0x68FC01A2 EQ PUSH2 0x191 JUMPI DUP1 PUSH4 0x715018A6 EQ PUSH2 0x1AF JUMPI DUP1 PUSH4 0x8DA5CB5B EQ PUSH2 0x1B9 JUMPI DUP1 PUSH4 0x91232F18 EQ PUSH2 0x1D7 JUMPI DUP1 PUSH4 0x944044A1 EQ PUSH2 0x1E1 JUMPI PUSH2 0x116 JUMP JUMPDEST DUP1 PUSH4 0x11CE0267 EQ PUSH2 0x11B JUMPI DUP1 PUSH4 0x11EAC855 EQ PUSH2 0x139 JUMPI DUP1 PUSH4 0x4C0F38C2 EQ PUSH2 0x157 JUMPI DUP1 PUSH4 0x51F7598C EQ PUSH2 0x175 JUMPI JUMPDEST PUSH1 0x0 DUP1 REVERT JUMPDEST PUSH2 0x123 PUSH2 0x301 JUMP JUMPDEST PUSH1 0x40 MLOAD PUSH2 0x130 SWAP2 SWAP1 PUSH2 0x1530 JUMP JUMPDEST PUSH1 0x40 MLOAD DUP1 SWAP2 SUB SWAP1 RETURN JUMPDEST PUSH2 0x141 PUSH2 0x327 JUMP JUMPDEST PUSH1 0x40 MLOAD PUSH2 0x14E SWAP2 SWAP1 PUSH2 0x15B9 JUMP JUMPDEST PUSH1 0x40 MLOAD DUP1 SWAP2 SUB SWAP1 RETURN JUMPDEST PUSH2 0x15F PUSH2 0x34D JUMP JUMPDEST PUSH1 0x40 MLOAD PUSH2 0x16C SWAP2 SWAP1 PUSH2 0x1694 JUMP JUMPDEST PUSH1 0x40 MLOAD DUP1 SWAP2 SUB SWAP1 RETURN JUMPDEST PUSH2 0x18F PUSH1 0x4 DUP1 CALLDATASIZE SUB DUP2 ADD SWAP1 PUSH2 0x18A SWAP2 SWAP1 PUSH2 0x11CB JUMP JUMPDEST PUSH2 0x3F4 JUMP JUMPDEST STOP JUMPDEST PUSH2 0x199 PUSH2 0x4B4 JUMP JUMPDEST PUSH1 0x40 MLOAD PUSH2 0x1A6 SWAP2 SWAP1 PUSH2 0x1694 JUMP JUMPDEST PUSH1 0x40 MLOAD DUP1 SWAP2 SUB SWAP1 RETURN JUMPDEST PUSH2 0x1B7 PUSH2 0x55B JUMP JUMPDEST STOP JUMPDEST PUSH2 0x1C1 PUSH2 0x5E3 JUMP JUMPDEST PUSH1 0x40 MLOAD PUSH2 0x1CE SWAP2 SWAP1 PUSH2 0x1530 JUMP JUMPDEST PUSH1 0x40 MLOAD DUP1 SWAP2 SUB SWAP1 RETURN JUMPDEST PUSH2 0x1DF PUSH2 0x60C JUMP JUMPDEST STOP JUMPDEST PUSH2 0x1FB PUSH1 0x4 DUP1 CALLDATASIZE SUB DUP2 ADD SWAP1 PUSH2 0x1F6 SWAP2 SWAP1 PUSH2 0x1289 JUMP JUMPDEST PUSH2 0x6E9 JUMP JUMPDEST STOP JUMPDEST PUSH2 0x217 PUSH1 0x4 DUP1 CALLDATASIZE SUB DUP2 ADD SWAP1 PUSH2 0x212 SWAP2 SWAP1 PUSH2 0x11CB JUMP JUMPDEST PUSH2 0x76F JUMP JUMPDEST PUSH1 0x40 MLOAD PUSH2 0x224 SWAP2 SWAP1 PUSH2 0x1694 JUMP JUMPDEST PUSH1 0x40 MLOAD DUP1 SWAP2 SUB SWAP1 RETURN JUMPDEST PUSH2 0x247 PUSH1 0x4 DUP1 CALLDATASIZE SUB DUP2 ADD SWAP1 PUSH2 0x242 SWAP2 SWAP1 PUSH2 0x1289 JUMP JUMPDEST PUSH2 0x787 JUMP JUMPDEST STOP JUMPDEST PUSH2 0x251 PUSH2 0x80D JUMP JUMPDEST STOP JUMPDEST PUSH2 0x25B PUSH2 0x901 JUMP JUMPDEST PUSH1 0x40 MLOAD PUSH2 0x26A SWAP4 SWAP3 SWAP2 SWAP1 PUSH2 0x16AF JUMP JUMPDEST PUSH1 0x40 MLOAD DUP1 SWAP2 SUB SWAP1 RETURN JUMPDEST PUSH2 0x27B PUSH2 0x926 JUMP JUMPDEST PUSH1 0x40 MLOAD PUSH2 0x288 SWAP2 SWAP1 PUSH2 0x1530 JUMP JUMPDEST PUSH1 0x40 MLOAD DUP1 SWAP2 SUB SWAP1 RETURN JUMPDEST PUSH2 0x2AB PUSH1 0x4 DUP1 CALLDATASIZE SUB DUP2 ADD SWAP1 PUSH2 0x2A6 SWAP2 SWAP1 PUSH2 0x1289 JUMP JUMPDEST PUSH2 0x94C JUMP JUMPDEST STOP JUMPDEST PUSH2 0x2C7 PUSH1 0x4 DUP1 CALLDATASIZE SUB DUP2 ADD SWAP1 PUSH2 0x2C2 SWAP2 SWAP1 PUSH2 0x1289 JUMP JUMPDEST PUSH2 0xA9A JUMP JUMPDEST STOP JUMPDEST PUSH2 0x2E3 PUSH1 0x4 DUP1 CALLDATASIZE SUB DUP2 ADD SWAP1 PUSH2 0x2DE SWAP2 SWAP1 PUSH2 0x11F4 JUMP JUMPDEST PUSH2 0xBA5 JUMP JUMPDEST STOP JUMPDEST PUSH2 0x2FF PUSH1 0x4 DUP1 CALLDATASIZE SUB DUP2 ADD SWAP1 PUSH2 0x2FA SWAP2 SWAP1 PUSH2 0x11CB JUMP JUMPDEST PUSH2 0xCB4 JUMP JUMPDEST STOP JUMPDEST PUSH1 0x1 PUSH1 0x0 SWAP1 SLOAD SWAP1 PUSH2 0x100 EXP SWAP1 DIV PUSH20 0xFFFFFFFFFFFFFFFFFFFFFFFFFFFFFFFFFFFFFFFF AND DUP2 JUMP JUMPDEST PUSH1 0x3 PUSH1 0x0 SWAP1 SLOAD SWAP1 PUSH2 0x100 EXP SWAP1 DIV PUSH20 0xFFFFFFFFFFFFFFFFFFFFFFFFFFFFFFFFFFFFFFFF AND DUP2 JUMP JUMPDEST PUSH1 0x0 PUSH1 0x1 PUSH1 0x0 SWAP1 SLOAD SWAP1 PUSH2 0x100 EXP SWAP1 DIV PUSH20 0xFFFFFFFFFFFFFFFFFFFFFFFFFFFFFFFFFFFFFFFF AND PUSH20 0xFFFFFFFFFFFFFFFFFFFFFFFFFFFFFFFFFFFFFFFF AND PUSH4 0x4C0F38C2 PUSH1 0x40 MLOAD DUP2 PUSH4 0xFFFFFFFF AND PUSH1 0xE0 SHL DUP2 MSTORE PUSH1 0x4 ADD PUSH1 0x20 PUSH1 0x40 MLOAD DUP1 DUP4 SUB DUP2 DUP7 DUP1 EXTCODESIZE ISZERO DUP1 ISZERO PUSH2 0x3B7 JUMPI PUSH1 0x0 DUP1 REVERT JUMPDEST POP GAS STATICCALL ISZERO DUP1 ISZERO PUSH2 0x3CB JUMPI RETURNDATASIZE PUSH1 0x0 DUP1 RETURNDATACOPY RETURNDATASIZE PUSH1 0x0 REVERT JUMPDEST POP POP POP POP PUSH1 0x40 MLOAD RETURNDATASIZE PUSH1 0x1F NOT PUSH1 0x1F DUP3 ADD AND DUP3 ADD DUP1 PUSH1 0x40 MSTORE POP DUP2 ADD SWAP1 PUSH2 0x3EF SWAP2 SWAP1 PUSH2 0x12B2 JUMP JUMPDEST SWAP1 POP SWAP1 JUMP JUMPDEST PUSH2 0x3FC PUSH2 0xDAC JUMP JUMPDEST PUSH20 0xFFFFFFFFFFFFFFFFFFFFFFFFFFFFFFFFFFFFFFFF AND PUSH2 0x41A PUSH2 0x5E3 JUMP JUMPDEST PUSH20 0xFFFFFFFFFFFFFFFFFFFFFFFFFFFFFFFFFFFFFFFF AND EQ PUSH2 0x470 JUMPI PUSH1 0x40 MLOAD PUSH32 0x8C379A000000000000000000000000000000000000000000000000000000000 DUP2 MSTORE PUSH1 0x4 ADD PUSH2 0x467 SWAP1 PUSH2 0x1654 JUMP JUMPDEST PUSH1 0x40 MLOAD DUP1 SWAP2 SUB SWAP1 REVERT JUMPDEST DUP1 PUSH1 0x1 PUSH1 0x0 PUSH2 0x100 EXP DUP2 SLOAD DUP2 PUSH20 0xFFFFFFFFFFFFFFFFFFFFFFFFFFFFFFFFFFFFFFFF MUL NOT AND SWAP1 DUP4 PUSH20 0xFFFFFFFFFFFFFFFFFFFFFFFFFFFFFFFFFFFFFFFF AND MUL OR SWAP1 SSTORE POP POP JUMP JUMPDEST PUSH1 0x0 PUSH1 0x1 PUSH1 0x0 SWAP1 SLOAD SWAP1 PUSH2 0x100 EXP SWAP1 DIV PUSH20 0xFFFFFFFFFFFFFFFFFFFFFFFFFFFFFFFFFFFFFFFF AND PUSH20 0xFFFFFFFFFFFFFFFFFFFFFFFFFFFFFFFFFFFFFFFF AND PUSH4 0x68FC01A2 PUSH1 0x40 MLOAD DUP2 PUSH4 0xFFFFFFFF AND PUSH1 0xE0 SHL DUP2 MSTORE PUSH1 0x4 ADD PUSH1 0x20 PUSH1 0x40 MLOAD DUP1 DUP4 SUB DUP2 DUP7 DUP1 EXTCODESIZE ISZERO DUP1 ISZERO PUSH2 0x51E JUMPI PUSH1 0x0 DUP1 REVERT JUMPDEST POP GAS STATICCALL ISZERO DUP1 ISZERO PUSH2 0x532 JUMPI RETURNDATASIZE PUSH1 0x0 DUP1 RETURNDATACOPY RETURNDATASIZE PUSH1 0x0 REVERT JUMPDEST POP POP POP POP PUSH1 0x40 MLOAD RETURNDATASIZE PUSH1 0x1F NOT PUSH1 0x1F DUP3 ADD AND DUP3 ADD DUP1 PUSH1 0x40 MSTORE POP DUP2 ADD SWAP1 PUSH2 0x556 SWAP2 SWAP1 PUSH2 0x12B2 JUMP JUMPDEST SWAP1 POP SWAP1 JUMP JUMPDEST PUSH2 0x563 PUSH2 0xDAC JUMP JUMPDEST PUSH20 0xFFFFFFFFFFFFFFFFFFFFFFFFFFFFFFFFFFFFFFFF AND PUSH2 0x581 PUSH2 0x5E3 JUMP JUMPDEST PUSH20 0xFFFFFFFFFFFFFFFFFFFFFFFFFFFFFFFFFFFFFFFF AND EQ PUSH2 0x5D7 JUMPI PUSH1 0x40 MLOAD PUSH32 0x8C379A000000000000000000000000000000000000000000000000000000000 DUP2 MSTORE PUSH1 0x4 ADD PUSH2 0x5CE SWAP1 PUSH2 0x1654 JUMP JUMPDEST PUSH1 0x40 MLOAD DUP1 SWAP2 SUB SWAP1 REVERT JUMPDEST PUSH2 0x5E1 PUSH1 0x0 PUSH2 0xDB4 JUMP JUMPDEST JUMP JUMPDEST PUSH1 0x0 DUP1 PUSH1 0x0 SWAP1 SLOAD SWAP1 PUSH2 0x100 EXP SWAP1 DIV PUSH20 0xFFFFFFFFFFFFFFFFFFFFFFFFFFFFFFFFFFFFFFFF AND SWAP1 POP SWAP1 JUMP JUMPDEST PUSH2 0x614 PUSH2 0xE78 JUMP JUMPDEST PUSH1 0x6 SLOAD TIMESTAMP GT DUP1 ISZERO PUSH2 0x635 JUMPI POP PUSH1 0x9 PUSH1 0x2 ADD PUSH1 0x0 SWAP1 SLOAD SWAP1 PUSH2 0x100 EXP SWAP1 DIV PUSH1 0xFF AND ISZERO JUMPDEST PUSH2 0x674 JUMPI PUSH1 0x40 MLOAD PUSH32 0x8C379A000000000000000000000000000000000000000000000000000000000 DUP2 MSTORE PUSH1 0x4 ADD PUSH2 0x66B SWAP1 PUSH2 0x15D4 JUMP JUMPDEST PUSH1 0x40 MLOAD DUP1 SWAP2 SUB SWAP1 REVERT JUMPDEST PUSH1 0x0 PUSH1 0x1 PUSH2 0x680 PUSH2 0x4B4 JUMP JUMPDEST PUSH2 0x68A SWAP2 SWAP1 PUSH2 0x1914 JUMP JUMPDEST PUSH2 0x692 PUSH2 0x34D JUMP JUMPDEST PUSH2 0x69C SWAP2 SWAP1 PUSH2 0x1914 JUMP JUMPDEST SWAP1 POP JUMPDEST PUSH1 0x0 DUP2 GT ISZERO PUSH2 0x6E6 JUMPI PUSH2 0x6D3 PUSH1 0x2 PUSH1 0x0 SWAP1 SLOAD SWAP1 PUSH2 0x100 EXP SWAP1 DIV PUSH20 0xFFFFFFFFFFFFFFFFFFFFFFFFFFFFFFFFFFFFFFFF AND PUSH2 0xF62 JUMP JUMPDEST DUP1 DUP1 PUSH2 0x6DE SWAP1 PUSH2 0x19F6 JUMP JUMPDEST SWAP2 POP POP PUSH2 0x69F JUMP JUMPDEST POP JUMP JUMPDEST PUSH2 0x6F1 PUSH2 0xDAC JUMP JUMPDEST PUSH20 0xFFFFFFFFFFFFFFFFFFFFFFFFFFFFFFFFFFFFFFFF AND PUSH2 0x70F PUSH2 0x5E3 JUMP JUMPDEST PUSH20 0xFFFFFFFFFFFFFFFFFFFFFFFFFFFFFFFFFFFFFFFF AND EQ PUSH2 0x765 JUMPI PUSH1 0x40 MLOAD PUSH32 0x8C379A000000000000000000000000000000000000000000000000000000000 DUP2 MSTORE PUSH1 0x4 ADD PUSH2 0x75C SWAP1 PUSH2 0x1654 JUMP JUMPDEST PUSH1 0x40 MLOAD DUP1 SWAP2 SUB SWAP1 REVERT JUMPDEST DUP1 PUSH1 0x5 DUP2 SWAP1 SSTORE POP POP JUMP JUMPDEST PUSH1 0x4 PUSH1 0x20 MSTORE DUP1 PUSH1 0x0 MSTORE PUSH1 0x40 PUSH1 0x0 KECCAK256 PUSH1 0x0 SWAP2 POP SWAP1 POP SLOAD DUP2 JUMP JUMPDEST PUSH2 0x78F PUSH2 0xDAC JUMP JUMPDEST PUSH20 0xFFFFFFFFFFFFFFFFFFFFFFFFFFFFFFFFFFFFFFFF AND PUSH2 0x7AD PUSH2 0x5E3 JUMP JUMPDEST PUSH20 0xFFFFFFFFFFFFFFFFFFFFFFFFFFFFFFFFFFFFFFFF AND EQ PUSH2 0x803 JUMPI PUSH1 0x40 MLOAD PUSH32 0x8C379A000000000000000000000000000000000000000000000000000000000 DUP2 MSTORE PUSH1 0x4 ADD PUSH2 0x7FA SWAP1 PUSH2 0x1654 JUMP JUMPDEST PUSH1 0x40 MLOAD DUP1 SWAP2 SUB SWAP1 REVERT JUMPDEST DUP1 PUSH1 0x6 DUP2 SWAP1 SSTORE POP POP JUMP JUMPDEST PUSH2 0x815 PUSH2 0xE78 JUMP JUMPDEST PUSH1 0x9 PUSH1 0x0 ADD SLOAD PUSH1 0x4 PUSH1 0x0 CALLER PUSH20 0xFFFFFFFFFFFFFFFFFFFFFFFFFFFFFFFFFFFFFFFF AND PUSH20 0xFFFFFFFFFFFFFFFFFFFFFFFFFFFFFFFFFFFFFFFF AND DUP2 MSTORE PUSH1 0x20 ADD SWAP1 DUP2 MSTORE PUSH1 0x20 ADD PUSH1 0x0 KECCAK256 SLOAD GT PUSH2 0x89B JUMPI PUSH1 0x40 MLOAD PUSH32 0x8C379A000000000000000000000000000000000000000000000000000000000 DUP2 MSTORE PUSH1 0x4 ADD PUSH2 0x892 SWAP1 PUSH2 0x1634 JUMP JUMPDEST PUSH1 0x40 MLOAD DUP1 SWAP2 SUB SWAP1 REVERT JUMPDEST PUSH1 0x9 PUSH1 0x0 ADD SLOAD PUSH1 0x4 PUSH1 0x0 CALLER PUSH20 0xFFFFFFFFFFFFFFFFFFFFFFFFFFFFFFFFFFFFFFFF AND PUSH20 0xFFFFFFFFFFFFFFFFFFFFFFFFFFFFFFFFFFFFFFFF AND DUP2 MSTORE PUSH1 0x20 ADD SWAP1 DUP2 MSTORE PUSH1 0x20 ADD PUSH1 0x0 KECCAK256 PUSH1 0x0 DUP3 DUP3 SLOAD PUSH2 0x8EF SWAP2 SWAP1 PUSH2 0x1914 JUMP JUMPDEST SWAP3 POP POP DUP2 SWAP1 SSTORE POP PUSH2 0x8FF CALLER PUSH2 0xF62 JUMP JUMPDEST JUMP JUMPDEST PUSH1 0x9 DUP1 PUSH1 0x0 ADD SLOAD SWAP1 DUP1 PUSH1 0x1 ADD SLOAD SWAP1 DUP1 PUSH1 0x2 ADD PUSH1 0x0 SWAP1 SLOAD SWAP1 PUSH2 0x100 EXP SWAP1 DIV PUSH1 0xFF AND SWAP1 POP DUP4 JUMP JUMPDEST PUSH1 0x2 PUSH1 0x0 SWAP1 SLOAD SWAP1 PUSH2 0x100 EXP SWAP1 DIV PUSH20 0xFFFFFFFFFFFFFFFFFFFFFFFFFFFFFFFFFFFFFFFF AND DUP2 JUMP JUMPDEST PUSH1 0x0 DUP2 GT PUSH2 0x98F JUMPI PUSH1 0x40 MLOAD PUSH32 0x8C379A000000000000000000000000000000000000000000000000000000000 DUP2 MSTORE PUSH1 0x4 ADD PUSH2 0x986 SWAP1 PUSH2 0x1674 JUMP JUMPDEST PUSH1 0x40 MLOAD DUP1 SWAP2 SUB SWAP1 REVERT JUMPDEST PUSH1 0x3 PUSH1 0x0 SWAP1 SLOAD SWAP1 PUSH2 0x100 EXP SWAP1 DIV PUSH20 0xFFFFFFFFFFFFFFFFFFFFFFFFFFFFFFFFFFFFFFFF AND PUSH20 0xFFFFFFFFFFFFFFFFFFFFFFFFFFFFFFFFFFFFFFFF AND PUSH4 0x23B872DD CALLER ADDRESS DUP5 PUSH1 0x40 MLOAD DUP5 PUSH4 0xFFFFFFFF AND PUSH1 0xE0 SHL DUP2 MSTORE PUSH1 0x4 ADD PUSH2 0x9EE SWAP4 SWAP3 SWAP2 SWAP1 PUSH2 0x154B JUMP JUMPDEST PUSH1 0x20 PUSH1 0x40 MLOAD DUP1 DUP4 SUB DUP2 PUSH1 0x0 DUP8 DUP1 EXTCODESIZE ISZERO DUP1 ISZERO PUSH2 0xA08 JUMPI PUSH1 0x0 DUP1 REVERT JUMPDEST POP GAS CALL ISZERO DUP1 ISZERO PUSH2 0xA1C JUMPI RETURNDATASIZE PUSH1 0x0 DUP1 RETURNDATACOPY RETURNDATASIZE PUSH1 0x0 REVERT JUMPDEST POP POP POP POP PUSH1 0x40 MLOAD RETURNDATASIZE PUSH1 0x1F NOT PUSH1 0x1F DUP3 ADD AND DUP3 ADD DUP1 PUSH1 0x40 MSTORE POP DUP2 ADD SWAP1 PUSH2 0xA40 SWAP2 SWAP1 PUSH2 0x1260 JUMP JUMPDEST POP DUP1 PUSH1 0x4 PUSH1 0x0 CALLER PUSH20 0xFFFFFFFFFFFFFFFFFFFFFFFFFFFFFFFFFFFFFFFF AND PUSH20 0xFFFFFFFFFFFFFFFFFFFFFFFFFFFFFFFFFFFFFFFF AND DUP2 MSTORE PUSH1 0x20 ADD SWAP1 DUP2 MSTORE PUSH1 0x20 ADD PUSH1 0x0 KECCAK256 PUSH1 0x0 DUP3 DUP3 SLOAD PUSH2 0xA90 SWAP2 SWAP1 PUSH2 0x1833 JUMP JUMPDEST SWAP3 POP POP DUP2 SWAP1 SSTORE POP POP JUMP JUMPDEST DUP1 PUSH1 0x4 PUSH1 0x0 CALLER PUSH20 0xFFFFFFFFFFFFFFFFFFFFFFFFFFFFFFFFFFFFFFFF AND PUSH20 0xFFFFFFFFFFFFFFFFFFFFFFFFFFFFFFFFFFFFFFFF AND DUP2 MSTORE PUSH1 0x20 ADD SWAP1 DUP2 MSTORE PUSH1 0x20 ADD PUSH1 0x0 KECCAK256 PUSH1 0x0 DUP3 DUP3 SLOAD PUSH2 0xAE9 SWAP2 SWAP1 PUSH2 0x1914 JUMP JUMPDEST SWAP3 POP POP DUP2 SWAP1 SSTORE POP PUSH1 0x3 PUSH1 0x0 SWAP1 SLOAD SWAP1 PUSH2 0x100 EXP SWAP1 DIV PUSH20 0xFFFFFFFFFFFFFFFFFFFFFFFFFFFFFFFFFFFFFFFF AND PUSH20 0xFFFFFFFFFFFFFFFFFFFFFFFFFFFFFFFFFFFFFFFF AND PUSH4 0x23B872DD ADDRESS CALLER DUP5 PUSH1 0x40 MLOAD DUP5 PUSH4 0xFFFFFFFF AND PUSH1 0xE0 SHL DUP2 MSTORE PUSH1 0x4 ADD PUSH2 0xB4F SWAP4 SWAP3 SWAP2 SWAP1 PUSH2 0x154B JUMP JUMPDEST PUSH1 0x20 PUSH1 0x40 MLOAD DUP1 DUP4 SUB DUP2 PUSH1 0x0 DUP8 DUP1 EXTCODESIZE ISZERO DUP1 ISZERO PUSH2 0xB69 JUMPI PUSH1 0x0 DUP1 REVERT JUMPDEST POP GAS CALL ISZERO DUP1 ISZERO PUSH2 0xB7D JUMPI RETURNDATASIZE PUSH1 0x0 DUP1 RETURNDATACOPY RETURNDATASIZE PUSH1 0x0 REVERT JUMPDEST POP POP POP POP PUSH1 0x40 MLOAD RETURNDATASIZE PUSH1 0x1F NOT PUSH1 0x1F DUP3 ADD AND DUP3 ADD DUP1 PUSH1 0x40 MSTORE POP DUP2 ADD SWAP1 PUSH2 0xBA1 SWAP2 SWAP1 PUSH2 0x1260 JUMP JUMPDEST POP POP JUMP JUMPDEST PUSH2 0xBAD PUSH2 0xDAC JUMP JUMPDEST PUSH20 0xFFFFFFFFFFFFFFFFFFFFFFFFFFFFFFFFFFFFFFFF AND PUSH2 0xBCB PUSH2 0x5E3 JUMP JUMPDEST PUSH20 0xFFFFFFFFFFFFFFFFFFFFFFFFFFFFFFFFFFFFFFFF AND EQ PUSH2 0xC21 JUMPI PUSH1 0x40 MLOAD PUSH32 0x8C379A000000000000000000000000000000000000000000000000000000000 DUP2 MSTORE PUSH1 0x4 ADD PUSH2 0xC18 SWAP1 PUSH2 0x1654 JUMP JUMPDEST PUSH1 0x40 MLOAD DUP1 SWAP2 SUB SWAP1 REVERT JUMPDEST PUSH1 0x1 PUSH1 0x0 SWAP1 SLOAD SWAP1 PUSH2 0x100 EXP SWAP1 DIV PUSH20 0xFFFFFFFFFFFFFFFFFFFFFFFFFFFFFFFFFFFFFFFF AND PUSH20 0xFFFFFFFFFFFFFFFFFFFFFFFFFFFFFFFFFFFFFFFF AND PUSH4 0xF121DA92 DUP4 DUP4 PUSH1 0x40 MLOAD DUP4 PUSH4 0xFFFFFFFF AND PUSH1 0xE0 SHL DUP2 MSTORE PUSH1 0x4 ADD PUSH2 0xC7E SWAP3 SWAP2 SWAP1 PUSH2 0x1582 JUMP JUMPDEST PUSH1 0x0 PUSH1 0x40 MLOAD DUP1 DUP4 SUB DUP2 PUSH1 0x0 DUP8 DUP1 EXTCODESIZE ISZERO DUP1 ISZERO PUSH2 0xC98 JUMPI PUSH1 0x0 DUP1 REVERT JUMPDEST POP GAS CALL ISZERO DUP1 ISZERO PUSH2 0xCAC JUMPI RETURNDATASIZE PUSH1 0x0 DUP1 RETURNDATACOPY RETURNDATASIZE PUSH1 0x0 REVERT JUMPDEST POP POP POP POP POP POP JUMP JUMPDEST PUSH2 0xCBC PUSH2 0xDAC JUMP JUMPDEST PUSH20 0xFFFFFFFFFFFFFFFFFFFFFFFFFFFFFFFFFFFFFFFF AND PUSH2 0xCDA PUSH2 0x5E3 JUMP JUMPDEST PUSH20 0xFFFFFFFFFFFFFFFFFFFFFFFFFFFFFFFFFFFFFFFF AND EQ PUSH2 0xD30 JUMPI PUSH1 0x40 MLOAD PUSH32 0x8C379A000000000000000000000000000000000000000000000000000000000 DUP2 MSTORE PUSH1 0x4 ADD PUSH2 0xD27 SWAP1 PUSH2 0x1654 JUMP JUMPDEST PUSH1 0x40 MLOAD DUP1 SWAP2 SUB SWAP1 REVERT JUMPDEST PUSH1 0x0 PUSH20 0xFFFFFFFFFFFFFFFFFFFFFFFFFFFFFFFFFFFFFFFF AND DUP2 PUSH20 0xFFFFFFFFFFFFFFFFFFFFFFFFFFFFFFFFFFFFFFFF AND EQ ISZERO PUSH2 0xDA0 JUMPI PUSH1 0x40 MLOAD PUSH32 0x8C379A000000000000000000000000000000000000000000000000000000000 DUP2 MSTORE PUSH1 0x4 ADD PUSH2 0xD97 SWAP1 PUSH2 0x15F4 JUMP JUMPDEST PUSH1 0x40 MLOAD DUP1 SWAP2 SUB SWAP1 REVERT JUMPDEST PUSH2 0xDA9 DUP2 PUSH2 0xDB4 JUMP JUMPDEST POP JUMP JUMPDEST PUSH1 0x0 CALLER SWAP1 POP SWAP1 JUMP JUMPDEST PUSH1 0x0 DUP1 PUSH1 0x0 SWAP1 SLOAD SWAP1 PUSH2 0x100 EXP SWAP1 DIV PUSH20 0xFFFFFFFFFFFFFFFFFFFFFFFFFFFFFFFFFFFFFFFF AND SWAP1 POP DUP2 PUSH1 0x0 DUP1 PUSH2 0x100 EXP DUP2 SLOAD DUP2 PUSH20 0xFFFFFFFFFFFFFFFFFFFFFFFFFFFFFFFFFFFFFFFF MUL NOT AND SWAP1 DUP4 PUSH20 0xFFFFFFFFFFFFFFFFFFFFFFFFFFFFFFFFFFFFFFFF AND MUL OR SWAP1 SSTORE POP DUP2 PUSH20 0xFFFFFFFFFFFFFFFFFFFFFFFFFFFFFFFFFFFFFFFF AND DUP2 PUSH20 0xFFFFFFFFFFFFFFFFFFFFFFFFFFFFFFFFFFFFFFFF AND PUSH32 0x8BE0079C531659141344CD1FD0A4F28419497F9722A3DAAFE3B4186F6B6457E0 PUSH1 0x40 MLOAD PUSH1 0x40 MLOAD DUP1 SWAP2 SUB SWAP1 LOG3 POP POP JUMP JUMPDEST PUSH1 0x6 SLOAD PUSH1 0x5 SLOAD GT ISZERO PUSH2 0xEBF JUMPI PUSH1 0x40 MLOAD PUSH32 0x8C379A000000000000000000000000000000000000000000000000000000000 DUP2 MSTORE PUSH1 0x4 ADD PUSH2 0xEB6 SWAP1 PUSH2 0x1614 JUMP JUMPDEST PUSH1 0x40 MLOAD DUP1 SWAP2 SUB SWAP1 REVERT JUMPDEST PUSH1 0x1 PUSH1 0x3C PUSH1 0x5 SLOAD TIMESTAMP PUSH2 0xED1 SWAP2 SWAP1 PUSH2 0x1914 JUMP JUMPDEST PUSH2 0xEDB SWAP2 SWAP1 PUSH2 0x1889 JUMP JUMPDEST PUSH2 0xEE5 SWAP2 SWAP1 PUSH2 0x18BA JUMP JUMPDEST PUSH1 0x7 SLOAD PUSH2 0xEF2 SWAP2 SWAP1 PUSH2 0x1914 JUMP JUMPDEST PUSH1 0x9 PUSH1 0x0 ADD DUP2 SWAP1 SSTORE POP TIMESTAMP PUSH1 0x9 PUSH1 0x1 ADD DUP2 SWAP1 SSTORE POP PUSH1 0x5 SLOAD TIMESTAMP LT ISZERO DUP1 ISZERO PUSH2 0xF19 JUMPI POP PUSH1 0x6 SLOAD TIMESTAMP GT ISZERO JUMPDEST ISZERO PUSH2 0xF41 JUMPI PUSH1 0x1 PUSH1 0x9 PUSH1 0x2 ADD PUSH1 0x0 PUSH2 0x100 EXP DUP2 SLOAD DUP2 PUSH1 0xFF MUL NOT AND SWAP1 DUP4 ISZERO ISZERO MUL OR SWAP1 SSTORE POP PUSH2 0xF60 JUMP JUMPDEST PUSH1 0x0 PUSH1 0x9 PUSH1 0x2 ADD PUSH1 0x0 PUSH2 0x100 EXP DUP2 SLOAD DUP2 PUSH1 0xFF MUL NOT AND SWAP1 DUP4 ISZERO ISZERO MUL OR SWAP1 SSTORE POP JUMPDEST JUMP JUMPDEST PUSH1 0x1 PUSH1 0x0 SWAP1 SLOAD SWAP1 PUSH2 0x100 EXP SWAP1 DIV PUSH20 0xFFFFFFFFFFFFFFFFFFFFFFFFFFFFFFFFFFFFFFFF AND PUSH20 0xFFFFFFFFFFFFFFFFFFFFFFFFFFFFFFFFFFFFFFFF AND PUSH4 0x55676590 DUP3 PUSH1 0x40 MLOAD DUP3 PUSH4 0xFFFFFFFF AND PUSH1 0xE0 SHL DUP2 MSTORE PUSH1 0x4 ADD PUSH2 0xFBD SWAP2 SWAP1 PUSH2 0x1530 JUMP JUMPDEST PUSH1 0x0 PUSH1 0x40 MLOAD DUP1 DUP4 SUB DUP2 PUSH1 0x0 DUP8 DUP1 EXTCODESIZE ISZERO DUP1 ISZERO PUSH2 0xFD7 JUMPI PUSH1 0x0 DUP1 REVERT JUMPDEST POP GAS CALL ISZERO DUP1 ISZERO PUSH2 0xFEB JUMPI RETURNDATASIZE PUSH1 0x0 DUP1 RETURNDATACOPY RETURNDATASIZE PUSH1 0x0 REVERT JUMPDEST POP POP POP POP POP JUMP JUMPDEST PUSH1 0x0 PUSH2 0x1005 PUSH2 0x1000 DUP5 PUSH2 0x170B JUMP JUMPDEST PUSH2 0x16E6 JUMP JUMPDEST SWAP1 POP DUP1 DUP4 DUP3 MSTORE PUSH1 0x20 DUP3 ADD SWAP1 POP DUP3 PUSH1 0x0 JUMPDEST DUP6 DUP2 LT ISZERO PUSH2 0x1045 JUMPI DUP2 CALLDATALOAD DUP6 ADD PUSH2 0x102B DUP9 DUP3 PUSH2 0x1177 JUMP JUMPDEST DUP5 MSTORE PUSH1 0x20 DUP5 ADD SWAP4 POP PUSH1 0x20 DUP4 ADD SWAP3 POP POP PUSH1 0x1 DUP2 ADD SWAP1 POP PUSH2 0x1015 JUMP JUMPDEST POP POP POP SWAP4 SWAP3 POP POP POP JUMP JUMPDEST PUSH1 0x0 PUSH2 0x1062 PUSH2 0x105D DUP5 PUSH2 0x1737 JUMP JUMPDEST PUSH2 0x16E6 JUMP JUMPDEST SWAP1 POP DUP1 DUP4 DUP3 MSTORE PUSH1 0x20 DUP3 ADD SWAP1 POP DUP3 DUP6 PUSH1 0x20 DUP7 MUL DUP3 ADD GT ISZERO PUSH2 0x1081 JUMPI PUSH1 0x0 DUP1 REVERT JUMPDEST PUSH1 0x0 JUMPDEST DUP6 DUP2 LT ISZERO PUSH2 0x10B1 JUMPI DUP2 PUSH2 0x1097 DUP9 DUP3 PUSH2 0x11A1 JUMP JUMPDEST DUP5 MSTORE PUSH1 0x20 DUP5 ADD SWAP4 POP PUSH1 0x20 DUP4 ADD SWAP3 POP POP PUSH1 0x1 DUP2 ADD SWAP1 POP PUSH2 0x1084 JUMP JUMPDEST POP POP POP SWAP4 SWAP3 POP POP POP JUMP JUMPDEST PUSH1 0x0 PUSH2 0x10CE PUSH2 0x10C9 DUP5 PUSH2 0x1763 JUMP JUMPDEST PUSH2 0x16E6 JUMP JUMPDEST SWAP1 POP DUP3 DUP2 MSTORE PUSH1 0x20 DUP2 ADD DUP5 DUP5 DUP5 ADD GT ISZERO PUSH2 0x10E6 JUMPI PUSH1 0x0 DUP1 REVERT JUMPDEST PUSH2 0x10F1 DUP5 DUP3 DUP6 PUSH2 0x19B4 JUMP JUMPDEST POP SWAP4 SWAP3 POP POP POP JUMP JUMPDEST PUSH1 0x0 DUP2 CALLDATALOAD SWAP1 POP PUSH2 0x1108 DUP2 PUSH2 0x1C7D JUMP JUMPDEST SWAP3 SWAP2 POP POP JUMP JUMPDEST PUSH1 0x0 DUP3 PUSH1 0x1F DUP4 ADD SLT PUSH2 0x111F JUMPI PUSH1 0x0 DUP1 REVERT JUMPDEST DUP2 CALLDATALOAD PUSH2 0x112F DUP5 DUP3 PUSH1 0x20 DUP7 ADD PUSH2 0xFF2 JUMP JUMPDEST SWAP2 POP POP SWAP3 SWAP2 POP POP JUMP JUMPDEST PUSH1 0x0 DUP3 PUSH1 0x1F DUP4 ADD SLT PUSH2 0x1149 JUMPI PUSH1 0x0 DUP1 REVERT JUMPDEST DUP2 CALLDATALOAD PUSH2 0x1159 DUP5 DUP3 PUSH1 0x20 DUP7 ADD PUSH2 0x104F JUMP JUMPDEST SWAP2 POP POP SWAP3 SWAP2 POP POP JUMP JUMPDEST PUSH1 0x0 DUP2 MLOAD SWAP1 POP PUSH2 0x1171 DUP2 PUSH2 0x1C94 JUMP JUMPDEST SWAP3 SWAP2 POP POP JUMP JUMPDEST PUSH1 0x0 DUP3 PUSH1 0x1F DUP4 ADD SLT PUSH2 0x1188 JUMPI PUSH1 0x0 DUP1 REVERT JUMPDEST DUP2 CALLDATALOAD PUSH2 0x1198 DUP5 DUP3 PUSH1 0x20 DUP7 ADD PUSH2 0x10BB JUMP JUMPDEST SWAP2 POP POP SWAP3 SWAP2 POP POP JUMP JUMPDEST PUSH1 0x0 DUP2 CALLDATALOAD SWAP1 POP PUSH2 0x11B0 DUP2 PUSH2 0x1CAB JUMP JUMPDEST SWAP3 SWAP2 POP POP JUMP JUMPDEST PUSH1 0x0 DUP2 MLOAD SWAP1 POP PUSH2 0x11C5 DUP2 PUSH2 0x1CAB JUMP JUMPDEST SWAP3 SWAP2 POP POP JUMP JUMPDEST PUSH1 0x0 PUSH1 0x20 DUP3 DUP5 SUB SLT ISZERO PUSH2 0x11DD JUMPI PUSH1 0x0 DUP1 REVERT JUMPDEST PUSH1 0x0 PUSH2 0x11EB DUP5 DUP3 DUP6 ADD PUSH2 0x10F9 JUMP JUMPDEST SWAP2 POP POP SWAP3 SWAP2 POP POP JUMP JUMPDEST PUSH1 0x0 DUP1 PUSH1 0x40 DUP4 DUP6 SUB SLT ISZERO PUSH2 0x1207 JUMPI PUSH1 0x0 DUP1 REVERT JUMPDEST PUSH1 0x0 DUP4 ADD CALLDATALOAD PUSH8 0xFFFFFFFFFFFFFFFF DUP2 GT ISZERO PUSH2 0x1221 JUMPI PUSH1 0x0 DUP1 REVERT JUMPDEST PUSH2 0x122D DUP6 DUP3 DUP7 ADD PUSH2 0x1138 JUMP JUMPDEST SWAP3 POP POP PUSH1 0x20 DUP4 ADD CALLDATALOAD PUSH8 0xFFFFFFFFFFFFFFFF DUP2 GT ISZERO PUSH2 0x124A JUMPI PUSH1 0x0 DUP1 REVERT JUMPDEST PUSH2 0x1256 DUP6 DUP3 DUP7 ADD PUSH2 0x110E JUMP JUMPDEST SWAP2 POP POP SWAP3 POP SWAP3 SWAP1 POP JUMP JUMPDEST PUSH1 0x0 PUSH1 0x20 DUP3 DUP5 SUB SLT ISZERO PUSH2 0x1272 JUMPI PUSH1 0x0 DUP1 REVERT JUMPDEST PUSH1 0x0 PUSH2 0x1280 DUP5 DUP3 DUP6 ADD PUSH2 0x1162 JUMP JUMPDEST SWAP2 POP POP SWAP3 SWAP2 POP POP JUMP JUMPDEST PUSH1 0x0 PUSH1 0x20 DUP3 DUP5 SUB SLT ISZERO PUSH2 0x129B JUMPI PUSH1 0x0 DUP1 REVERT JUMPDEST PUSH1 0x0 PUSH2 0x12A9 DUP5 DUP3 DUP6 ADD PUSH2 0x11A1 JUMP JUMPDEST SWAP2 POP POP SWAP3 SWAP2 POP POP JUMP JUMPDEST PUSH1 0x0 PUSH1 0x20 DUP3 DUP5 SUB SLT ISZERO PUSH2 0x12C4 JUMPI PUSH1 0x0 DUP1 REVERT JUMPDEST PUSH1 0x0 PUSH2 0x12D2 DUP5 DUP3 DUP6 ADD PUSH2 0x11B6 JUMP JUMPDEST SWAP2 POP POP SWAP3 SWAP2 POP POP JUMP JUMPDEST PUSH1 0x0 PUSH2 0x12E7 DUP4 DUP4 PUSH2 0x1407 JUMP JUMPDEST SWAP1 POP SWAP3 SWAP2 POP POP JUMP JUMPDEST PUSH1 0x0 PUSH2 0x12FB DUP4 DUP4 PUSH2 0x1512 JUMP JUMPDEST PUSH1 0x20 DUP4 ADD SWAP1 POP SWAP3 SWAP2 POP POP JUMP JUMPDEST PUSH2 0x1310 DUP2 PUSH2 0x1948 JUMP JUMPDEST DUP3 MSTORE POP POP JUMP JUMPDEST PUSH1 0x0 PUSH2 0x1321 DUP3 PUSH2 0x17B4 JUMP JUMPDEST PUSH2 0x132B DUP2 DUP6 PUSH2 0x17EF JUMP JUMPDEST SWAP4 POP DUP4 PUSH1 0x20 DUP3 MUL DUP6 ADD PUSH2 0x133D DUP6 PUSH2 0x1794 JUMP JUMPDEST DUP1 PUSH1 0x0 JUMPDEST DUP6 DUP2 LT ISZERO PUSH2 0x1379 JUMPI DUP5 DUP5 SUB DUP10 MSTORE DUP2 MLOAD PUSH2 0x135A DUP6 DUP3 PUSH2 0x12DB JUMP JUMPDEST SWAP5 POP PUSH2 0x1365 DUP4 PUSH2 0x17D5 JUMP JUMPDEST SWAP3 POP PUSH1 0x20 DUP11 ADD SWAP10 POP POP PUSH1 0x1 DUP2 ADD SWAP1 POP PUSH2 0x1341 JUMP JUMPDEST POP DUP3 SWAP8 POP DUP8 SWAP6 POP POP POP POP POP POP SWAP3 SWAP2 POP POP JUMP JUMPDEST PUSH1 0x0 PUSH2 0x1396 DUP3 PUSH2 0x17BF JUMP JUMPDEST PUSH2 0x13A0 DUP2 DUP6 PUSH2 0x1800 JUMP JUMPDEST SWAP4 POP PUSH2 0x13AB DUP4 PUSH2 0x17A4 JUMP JUMPDEST DUP1 PUSH1 0x0 JUMPDEST DUP4 DUP2 LT ISZERO PUSH2 0x13DC JUMPI DUP2 MLOAD PUSH2 0x13C3 DUP9 DUP3 PUSH2 0x12EF JUMP JUMPDEST SWAP8 POP PUSH2 0x13CE DUP4 PUSH2 0x17E2 JUMP JUMPDEST SWAP3 POP POP PUSH1 0x1 DUP2 ADD SWAP1 POP PUSH2 0x13AF JUMP JUMPDEST POP DUP6 SWAP4 POP POP POP POP SWAP3 SWAP2 POP POP JUMP JUMPDEST PUSH2 0x13F2 DUP2 PUSH2 0x195A JUMP JUMPDEST DUP3 MSTORE POP POP JUMP JUMPDEST PUSH2 0x1401 DUP2 PUSH2 0x1990 JUMP JUMPDEST DUP3 MSTORE POP POP JUMP JUMPDEST PUSH1 0x0 PUSH2 0x1412 DUP3 PUSH2 0x17CA JUMP JUMPDEST PUSH2 0x141C DUP2 DUP6 PUSH2 0x1811 JUMP JUMPDEST SWAP4 POP PUSH2 0x142C DUP2 DUP6 PUSH1 0x20 DUP7 ADD PUSH2 0x19C3 JUMP JUMPDEST PUSH2 0x1435 DUP2 PUSH2 0x1ADE JUMP JUMPDEST DUP5 ADD SWAP2 POP POP SWAP3 SWAP2 POP POP JUMP JUMPDEST PUSH1 0x0 PUSH2 0x144D PUSH1 0x36 DUP4 PUSH2 0x1822 JUMP JUMPDEST SWAP2 POP PUSH2 0x1458 DUP3 PUSH2 0x1AEF JUMP JUMPDEST PUSH1 0x40 DUP3 ADD SWAP1 POP SWAP2 SWAP1 POP JUMP JUMPDEST PUSH1 0x0 PUSH2 0x1470 PUSH1 0x26 DUP4 PUSH2 0x1822 JUMP JUMPDEST SWAP2 POP PUSH2 0x147B DUP3 PUSH2 0x1B3E JUMP JUMPDEST PUSH1 0x40 DUP3 ADD SWAP1 POP SWAP2 SWAP1 POP JUMP JUMPDEST PUSH1 0x0 PUSH2 0x1493 PUSH1 0x1F DUP4 PUSH2 0x1822 JUMP JUMPDEST SWAP2 POP PUSH2 0x149E DUP3 PUSH2 0x1B8D JUMP JUMPDEST PUSH1 0x20 DUP3 ADD SWAP1 POP SWAP2 SWAP1 POP JUMP JUMPDEST PUSH1 0x0 PUSH2 0x14B6 PUSH1 0x38 DUP4 PUSH2 0x1822 JUMP JUMPDEST SWAP2 POP PUSH2 0x14C1 DUP3 PUSH2 0x1BB6 JUMP JUMPDEST PUSH1 0x40 DUP3 ADD SWAP1 POP SWAP2 SWAP1 POP JUMP JUMPDEST PUSH1 0x0 PUSH2 0x14D9 PUSH1 0x20 DUP4 PUSH2 0x1822 JUMP JUMPDEST SWAP2 POP PUSH2 0x14E4 DUP3 PUSH2 0x1C05 JUMP JUMPDEST PUSH1 0x20 DUP3 ADD SWAP1 POP SWAP2 SWAP1 POP JUMP JUMPDEST PUSH1 0x0 PUSH2 0x14FC PUSH1 0x2B DUP4 PUSH2 0x1822 JUMP JUMPDEST SWAP2 POP PUSH2 0x1507 DUP3 PUSH2 0x1C2E JUMP JUMPDEST PUSH1 0x40 DUP3 ADD SWAP1 POP SWAP2 SWAP1 POP JUMP JUMPDEST PUSH2 0x151B DUP2 PUSH2 0x1986 JUMP JUMPDEST DUP3 MSTORE POP POP JUMP JUMPDEST PUSH2 0x152A DUP2 PUSH2 0x1986 JUMP JUMPDEST DUP3 MSTORE POP POP JUMP JUMPDEST PUSH1 0x0 PUSH1 0x20 DUP3 ADD SWAP1 POP PUSH2 0x1545 PUSH1 0x0 DUP4 ADD DUP5 PUSH2 0x1307 JUMP JUMPDEST SWAP3 SWAP2 POP POP JUMP JUMPDEST PUSH1 0x0 PUSH1 0x60 DUP3 ADD SWAP1 POP PUSH2 0x1560 PUSH1 0x0 DUP4 ADD DUP7 PUSH2 0x1307 JUMP JUMPDEST PUSH2 0x156D PUSH1 0x20 DUP4 ADD DUP6 PUSH2 0x1307 JUMP JUMPDEST PUSH2 0x157A PUSH1 0x40 DUP4 ADD DUP5 PUSH2 0x1521 JUMP JUMPDEST SWAP5 SWAP4 POP POP POP POP JUMP JUMPDEST PUSH1 0x0 PUSH1 0x40 DUP3 ADD SWAP1 POP DUP2 DUP2 SUB PUSH1 0x0 DUP4 ADD MSTORE PUSH2 0x159C DUP2 DUP6 PUSH2 0x138B JUMP JUMPDEST SWAP1 POP DUP2 DUP2 SUB PUSH1 0x20 DUP4 ADD MSTORE PUSH2 0x15B0 DUP2 DUP5 PUSH2 0x1316 JUMP JUMPDEST SWAP1 POP SWAP4 SWAP3 POP POP POP JUMP JUMPDEST PUSH1 0x0 PUSH1 0x20 DUP3 ADD SWAP1 POP PUSH2 0x15CE PUSH1 0x0 DUP4 ADD DUP5 PUSH2 0x13F8 JUMP JUMPDEST SWAP3 SWAP2 POP POP JUMP JUMPDEST PUSH1 0x0 PUSH1 0x20 DUP3 ADD SWAP1 POP DUP2 DUP2 SUB PUSH1 0x0 DUP4 ADD MSTORE PUSH2 0x15ED DUP2 PUSH2 0x1440 JUMP JUMPDEST SWAP1 POP SWAP2 SWAP1 POP JUMP JUMPDEST PUSH1 0x0 PUSH1 0x20 DUP3 ADD SWAP1 POP DUP2 DUP2 SUB PUSH1 0x0 DUP4 ADD MSTORE PUSH2 0x160D DUP2 PUSH2 0x1463 JUMP JUMPDEST SWAP1 POP SWAP2 SWAP1 POP JUMP JUMPDEST PUSH1 0x0 PUSH1 0x20 DUP3 ADD SWAP1 POP DUP2 DUP2 SUB PUSH1 0x0 DUP4 ADD MSTORE PUSH2 0x162D DUP2 PUSH2 0x1486 JUMP JUMPDEST SWAP1 POP SWAP2 SWAP1 POP JUMP JUMPDEST PUSH1 0x0 PUSH1 0x20 DUP3 ADD SWAP1 POP DUP2 DUP2 SUB PUSH1 0x0 DUP4 ADD MSTORE PUSH2 0x164D DUP2 PUSH2 0x14A9 JUMP JUMPDEST SWAP1 POP SWAP2 SWAP1 POP JUMP JUMPDEST PUSH1 0x0 PUSH1 0x20 DUP3 ADD SWAP1 POP DUP2 DUP2 SUB PUSH1 0x0 DUP4 ADD MSTORE PUSH2 0x166D DUP2 PUSH2 0x14CC JUMP JUMPDEST SWAP1 POP SWAP2 SWAP1 POP JUMP JUMPDEST PUSH1 0x0 PUSH1 0x20 DUP3 ADD SWAP1 POP DUP2 DUP2 SUB PUSH1 0x0 DUP4 ADD MSTORE PUSH2 0x168D DUP2 PUSH2 0x14EF JUMP JUMPDEST SWAP1 POP SWAP2 SWAP1 POP JUMP JUMPDEST PUSH1 0x0 PUSH1 0x20 DUP3 ADD SWAP1 POP PUSH2 0x16A9 PUSH1 0x0 DUP4 ADD DUP5 PUSH2 0x1521 JUMP JUMPDEST SWAP3 SWAP2 POP POP JUMP JUMPDEST PUSH1 0x0 PUSH1 0x60 DUP3 ADD SWAP1 POP PUSH2 0x16C4 PUSH1 0x0 DUP4 ADD DUP7 PUSH2 0x1521 JUMP JUMPDEST PUSH2 0x16D1 PUSH1 0x20 DUP4 ADD DUP6 PUSH2 0x1521 JUMP JUMPDEST PUSH2 0x16DE PUSH1 0x40 DUP4 ADD DUP5 PUSH2 0x13E9 JUMP JUMPDEST SWAP5 SWAP4 POP POP POP POP JUMP JUMPDEST PUSH1 0x0 PUSH2 0x16F0 PUSH2 0x1701 JUMP JUMPDEST SWAP1 POP PUSH2 0x16FC DUP3 DUP3 PUSH2 0x1A20 JUMP JUMPDEST SWAP2 SWAP1 POP JUMP JUMPDEST PUSH1 0x0 PUSH1 0x40 MLOAD SWAP1 POP SWAP1 JUMP JUMPDEST PUSH1 0x0 PUSH8 0xFFFFFFFFFFFFFFFF DUP3 GT ISZERO PUSH2 0x1726 JUMPI PUSH2 0x1725 PUSH2 0x1AAF JUMP JUMPDEST JUMPDEST PUSH1 0x20 DUP3 MUL SWAP1 POP PUSH1 0x20 DUP2 ADD SWAP1 POP SWAP2 SWAP1 POP JUMP JUMPDEST PUSH1 0x0 PUSH8 0xFFFFFFFFFFFFFFFF DUP3 GT ISZERO PUSH2 0x1752 JUMPI PUSH2 0x1751 PUSH2 0x1AAF JUMP JUMPDEST JUMPDEST PUSH1 0x20 DUP3 MUL SWAP1 POP PUSH1 0x20 DUP2 ADD SWAP1 POP SWAP2 SWAP1 POP JUMP JUMPDEST PUSH1 0x0 PUSH8 0xFFFFFFFFFFFFFFFF DUP3 GT ISZERO PUSH2 0x177E JUMPI PUSH2 0x177D PUSH2 0x1AAF JUMP JUMPDEST JUMPDEST PUSH2 0x1787 DUP3 PUSH2 0x1ADE JUMP JUMPDEST SWAP1 POP PUSH1 0x20 DUP2 ADD SWAP1 POP SWAP2 SWAP1 POP JUMP JUMPDEST PUSH1 0x0 DUP2 SWAP1 POP PUSH1 0x20 DUP3 ADD SWAP1 POP SWAP2 SWAP1 POP JUMP JUMPDEST PUSH1 0x0 DUP2 SWAP1 POP PUSH1 0x20 DUP3 ADD SWAP1 POP SWAP2 SWAP1 POP JUMP JUMPDEST PUSH1 0x0 DUP2 MLOAD SWAP1 POP SWAP2 SWAP1 POP JUMP JUMPDEST PUSH1 0x0 DUP2 MLOAD SWAP1 POP SWAP2 SWAP1 POP JUMP JUMPDEST PUSH1 0x0 DUP2 MLOAD SWAP1 POP SWAP2 SWAP1 POP JUMP JUMPDEST PUSH1 0x0 PUSH1 0x20 DUP3 ADD SWAP1 POP SWAP2 SWAP1 POP JUMP JUMPDEST PUSH1 0x0 PUSH1 0x20 DUP3 ADD SWAP1 POP SWAP2 SWAP1 POP JUMP JUMPDEST PUSH1 0x0 DUP3 DUP3 MSTORE PUSH1 0x20 DUP3 ADD SWAP1 POP SWAP3 SWAP2 POP POP JUMP JUMPDEST PUSH1 0x0 DUP3 DUP3 MSTORE PUSH1 0x20 DUP3 ADD SWAP1 POP SWAP3 SWAP2 POP POP JUMP JUMPDEST PUSH1 0x0 DUP3 DUP3 MSTORE PUSH1 0x20 DUP3 ADD SWAP1 POP SWAP3 SWAP2 POP POP JUMP JUMPDEST PUSH1 0x0 DUP3 DUP3 MSTORE PUSH1 0x20 DUP3 ADD SWAP1 POP SWAP3 SWAP2 POP POP JUMP JUMPDEST PUSH1 0x0 PUSH2 0x183E DUP3 PUSH2 0x1986 JUMP JUMPDEST SWAP2 POP PUSH2 0x1849 DUP4 PUSH2 0x1986 JUMP JUMPDEST SWAP3 POP DUP3 PUSH32 0xFFFFFFFFFFFFFFFFFFFFFFFFFFFFFFFFFFFFFFFFFFFFFFFFFFFFFFFFFFFFFFFF SUB DUP3 GT ISZERO PUSH2 0x187E JUMPI PUSH2 0x187D PUSH2 0x1A51 JUMP JUMPDEST JUMPDEST DUP3 DUP3 ADD SWAP1 POP SWAP3 SWAP2 POP POP JUMP JUMPDEST PUSH1 0x0 PUSH2 0x1894 DUP3 PUSH2 0x1986 JUMP JUMPDEST SWAP2 POP PUSH2 0x189F DUP4 PUSH2 0x1986 JUMP JUMPDEST SWAP3 POP DUP3 PUSH2 0x18AF JUMPI PUSH2 0x18AE PUSH2 0x1A80 JUMP JUMPDEST JUMPDEST DUP3 DUP3 DIV SWAP1 POP SWAP3 SWAP2 POP POP JUMP JUMPDEST PUSH1 0x0 PUSH2 0x18C5 DUP3 PUSH2 0x1986 JUMP JUMPDEST SWAP2 POP PUSH2 0x18D0 DUP4 PUSH2 0x1986 JUMP JUMPDEST SWAP3 POP DUP2 PUSH32 0xFFFFFFFFFFFFFFFFFFFFFFFFFFFFFFFFFFFFFFFFFFFFFFFFFFFFFFFFFFFFFFFF DIV DUP4 GT DUP3 ISZERO ISZERO AND ISZERO PUSH2 0x1909 JUMPI PUSH2 0x1908 PUSH2 0x1A51 JUMP JUMPDEST JUMPDEST DUP3 DUP3 MUL SWAP1 POP SWAP3 SWAP2 POP POP JUMP JUMPDEST PUSH1 0x0 PUSH2 0x191F DUP3 PUSH2 0x1986 JUMP JUMPDEST SWAP2 POP PUSH2 0x192A DUP4 PUSH2 0x1986 JUMP JUMPDEST SWAP3 POP DUP3 DUP3 LT ISZERO PUSH2 0x193D JUMPI PUSH2 0x193C PUSH2 0x1A51 JUMP JUMPDEST JUMPDEST DUP3 DUP3 SUB SWAP1 POP SWAP3 SWAP2 POP POP JUMP JUMPDEST PUSH1 0x0 PUSH2 0x1953 DUP3 PUSH2 0x1966 JUMP JUMPDEST SWAP1 POP SWAP2 SWAP1 POP JUMP JUMPDEST PUSH1 0x0 DUP2 ISZERO ISZERO SWAP1 POP SWAP2 SWAP1 POP JUMP JUMPDEST PUSH1 0x0 PUSH20 0xFFFFFFFFFFFFFFFFFFFFFFFFFFFFFFFFFFFFFFFF DUP3 AND SWAP1 POP SWAP2 SWAP1 POP JUMP JUMPDEST PUSH1 0x0 DUP2 SWAP1 POP SWAP2 SWAP1 POP JUMP JUMPDEST PUSH1 0x0 PUSH2 0x199B DUP3 PUSH2 0x19A2 JUMP JUMPDEST SWAP1 POP SWAP2 SWAP1 POP JUMP JUMPDEST PUSH1 0x0 PUSH2 0x19AD DUP3 PUSH2 0x1966 JUMP JUMPDEST SWAP1 POP SWAP2 SWAP1 POP JUMP JUMPDEST DUP3 DUP2 DUP4 CALLDATACOPY PUSH1 0x0 DUP4 DUP4 ADD MSTORE POP POP POP JUMP JUMPDEST PUSH1 0x0 JUMPDEST DUP4 DUP2 LT ISZERO PUSH2 0x19E1 JUMPI DUP1 DUP3 ADD MLOAD DUP2 DUP5 ADD MSTORE PUSH1 0x20 DUP2 ADD SWAP1 POP PUSH2 0x19C6 JUMP JUMPDEST DUP4 DUP2 GT ISZERO PUSH2 0x19F0 JUMPI PUSH1 0x0 DUP5 DUP5 ADD MSTORE JUMPDEST POP POP POP POP JUMP JUMPDEST PUSH1 0x0 PUSH2 0x1A01 DUP3 PUSH2 0x1986 JUMP JUMPDEST SWAP2 POP PUSH1 0x0 DUP3 EQ ISZERO PUSH2 0x1A15 JUMPI PUSH2 0x1A14 PUSH2 0x1A51 JUMP JUMPDEST JUMPDEST PUSH1 0x1 DUP3 SUB SWAP1 POP SWAP2 SWAP1 POP JUMP JUMPDEST PUSH2 0x1A29 DUP3 PUSH2 0x1ADE JUMP JUMPDEST DUP2 ADD DUP2 DUP2 LT PUSH8 0xFFFFFFFFFFFFFFFF DUP3 GT OR ISZERO PUSH2 0x1A48 JUMPI PUSH2 0x1A47 PUSH2 0x1AAF JUMP JUMPDEST JUMPDEST DUP1 PUSH1 0x40 MSTORE POP POP POP JUMP JUMPDEST PUSH32 0x4E487B7100000000000000000000000000000000000000000000000000000000 PUSH1 0x0 MSTORE PUSH1 0x11 PUSH1 0x4 MSTORE PUSH1 0x24 PUSH1 0x0 REVERT JUMPDEST PUSH32 0x4E487B7100000000000000000000000000000000000000000000000000000000 PUSH1 0x0 MSTORE PUSH1 0x12 PUSH1 0x4 MSTORE PUSH1 0x24 PUSH1 0x0 REVERT JUMPDEST PUSH32 0x4E487B7100000000000000000000000000000000000000000000000000000000 PUSH1 0x0 MSTORE PUSH1 0x41 PUSH1 0x4 MSTORE PUSH1 0x24 PUSH1 0x0 REVERT JUMPDEST PUSH1 0x0 PUSH1 0x1F NOT PUSH1 0x1F DUP4 ADD AND SWAP1 POP SWAP2 SWAP1 POP JUMP JUMPDEST PUSH32 0x43616E6E6F74206D696E7420746F207472656173757279206164647265737320 PUSH1 0x0 DUP3 ADD MSTORE PUSH32 0x756E74696C2073616C652069732066696E697368656400000000000000000000 PUSH1 0x20 DUP3 ADD MSTORE POP JUMP JUMPDEST PUSH32 0x4F776E61626C653A206E6577206F776E657220697320746865207A65726F2061 PUSH1 0x0 DUP3 ADD MSTORE PUSH32 0x6464726573730000000000000000000000000000000000000000000000000000 PUSH1 0x20 DUP3 ADD MSTORE POP JUMP JUMPDEST PUSH32 0x737461727454696D65206973206C61746572207468616E20656E6454696D6500 PUSH1 0x0 DUP3 ADD MSTORE POP JUMP JUMPDEST PUSH32 0x796F757220555344432062616C616E6365206973206C657373207468616E2074 PUSH1 0x0 DUP3 ADD MSTORE PUSH32 0x68652063757272656E742061756374696F6E2070726963650000000000000000 PUSH1 0x20 DUP3 ADD MSTORE POP JUMP JUMPDEST PUSH32 0x4F776E61626C653A2063616C6C6572206973206E6F7420746865206F776E6572 PUSH1 0x0 DUP3 ADD MSTORE POP JUMP JUMPDEST PUSH32 0x616D6F756E74207472616E73666572726564206D757374206265206120706F73 PUSH1 0x0 DUP3 ADD MSTORE PUSH32 0x69746976652076616C7565000000000000000000000000000000000000000000 PUSH1 0x20 DUP3 ADD MSTORE POP JUMP JUMPDEST PUSH2 0x1C86 DUP2 PUSH2 0x1948 JUMP JUMPDEST DUP2 EQ PUSH2 0x1C91 JUMPI PUSH1 0x0 DUP1 REVERT JUMPDEST POP JUMP JUMPDEST PUSH2 0x1C9D DUP2 PUSH2 0x195A JUMP JUMPDEST DUP2 EQ PUSH2 0x1CA8 JUMPI PUSH1 0x0 DUP1 REVERT JUMPDEST POP JUMP JUMPDEST PUSH2 0x1CB4 DUP2 PUSH2 0x1986 JUMP JUMPDEST DUP2 EQ PUSH2 0x1CBF JUMPI PUSH1 0x0 DUP1 REVERT JUMPDEST POP JUMP INVALID LOG2 PUSH5 0x6970667358 0x22 SLT KECCAK256 PUSH14 0xBDD6E4E142229DC4D37DBEA33D96 0xBA EXTCODEHASH 0xE7 DUP8 0x21 0x2D 0xB6 ADD 0xC PUSH19 0x10DC65180E03A364736F6C6343000801003300 "
				},
				"gasEstimates": {
					"creation": {
						"codeDepositCost": "1483200",
						"executionCost": "infinite",
						"totalCost": "infinite"
					},
					"external": {
						"buyNFT()": "infinite",
						"getMaxSupply()": "infinite",
						"getNextUnusedToken()": "infinite",
						"lastUpdate()": "infinite",
						"mintToTreasuryAddress()": "infinite",
						"owner()": "1289",
						"preLoadURIs(uint256[],string[])": "infinite",
						"receiveUSDC(uint256)": "infinite",
						"refundUSDC(uint256)": "infinite",
						"renounceOwnership()": "24419",
						"setStorageContractAddress(address)": "22352",
						"setendTime(uint256)": "21405",
						"setstartTime(uint256)": "21471",
						"storageContract()": "1238",
						"transferOwnership(address)": "24833",
						"treasuryAddress()": "1236",
						"usdcBalances(address)": "1537",
						"usdcToken()": "1303"
					},
					"internal": {
						"mintNextNftToAddress(address)": "infinite",
						"updateState()": "infinite"
					}
				},
				"methodIdentifiers": {
					"buyNFT()": "bff29cee",
					"getMaxSupply()": "4c0f38c2",
					"getNextUnusedToken()": "68fc01a2",
					"lastUpdate()": "c0463711",
					"mintToTreasuryAddress()": "91232f18",
					"owner()": "8da5cb5b",
					"preLoadURIs(uint256[],string[])": "f121da92",
					"receiveUSDC(uint256)": "ddb4acd0",
					"refundUSDC(uint256)": "eba5794d",
					"renounceOwnership()": "715018a6",
					"setStorageContractAddress(address)": "51f7598c",
					"setendTime(uint256)": "b79d283f",
					"setstartTime(uint256)": "944044a1",
					"storageContract()": "11ce0267",
					"transferOwnership(address)": "f2fde38b",
					"treasuryAddress()": "c5f956af",
					"usdcBalances(address)": "a99c68c5",
					"usdcToken()": "11eac855"
				}
			},
			"storageLayout": {
				"storage": [
					{
						"astId": 7,
						"contract": "contracts/Founding Citizens NFT Sale.sol:FoundingNFTSale",
						"label": "_owner",
						"offset": 0,
						"slot": "0",
						"type": "t_address"
					},
					{
						"astId": 808,
						"contract": "contracts/Founding Citizens NFT Sale.sol:FoundingNFTSale",
						"label": "storageContract",
						"offset": 0,
						"slot": "1",
						"type": "t_address"
					},
					{
						"astId": 810,
						"contract": "contracts/Founding Citizens NFT Sale.sol:FoundingNFTSale",
						"label": "treasuryAddress",
						"offset": 0,
						"slot": "2",
						"type": "t_address"
					},
					{
						"astId": 813,
						"contract": "contracts/Founding Citizens NFT Sale.sol:FoundingNFTSale",
						"label": "usdcToken",
						"offset": 0,
						"slot": "3",
						"type": "t_contract(ERC20)650"
					},
					{
						"astId": 817,
						"contract": "contracts/Founding Citizens NFT Sale.sol:FoundingNFTSale",
						"label": "usdcBalances",
						"offset": 0,
						"slot": "4",
						"type": "t_mapping(t_address,t_uint256)"
					},
					{
						"astId": 820,
						"contract": "contracts/Founding Citizens NFT Sale.sol:FoundingNFTSale",
						"label": "startTime",
						"offset": 0,
						"slot": "5",
						"type": "t_uint256"
					},
					{
						"astId": 823,
						"contract": "contracts/Founding Citizens NFT Sale.sol:FoundingNFTSale",
						"label": "endTime",
						"offset": 0,
						"slot": "6",
						"type": "t_uint256"
					},
					{
						"astId": 826,
						"contract": "contracts/Founding Citizens NFT Sale.sol:FoundingNFTSale",
						"label": "startPrice",
						"offset": 0,
						"slot": "7",
						"type": "t_uint256"
					},
					{
						"astId": 829,
						"contract": "contracts/Founding Citizens NFT Sale.sol:FoundingNFTSale",
						"label": "EndPrice",
						"offset": 0,
						"slot": "8",
						"type": "t_uint256"
					},
					{
						"astId": 848,
						"contract": "contracts/Founding Citizens NFT Sale.sol:FoundingNFTSale",
						"label": "lastUpdate",
						"offset": 0,
						"slot": "9",
						"type": "t_struct(Update)839_storage"
					}
				],
				"types": {
					"t_address": {
						"encoding": "inplace",
						"label": "address",
						"numberOfBytes": "20"
					},
					"t_bool": {
						"encoding": "inplace",
						"label": "bool",
						"numberOfBytes": "1"
					},
					"t_contract(ERC20)650": {
						"encoding": "inplace",
						"label": "contract ERC20",
						"numberOfBytes": "20"
					},
					"t_mapping(t_address,t_uint256)": {
						"encoding": "mapping",
						"key": "t_address",
						"label": "mapping(address => uint256)",
						"numberOfBytes": "32",
						"value": "t_uint256"
					},
					"t_struct(Update)839_storage": {
						"encoding": "inplace",
						"label": "struct FoundingNFTSale.Update",
						"members": [
							{
								"astId": 834,
								"contract": "contracts/Founding Citizens NFT Sale.sol:FoundingNFTSale",
								"label": "price",
								"offset": 0,
								"slot": "0",
								"type": "t_uint256"
							},
							{
								"astId": 836,
								"contract": "contracts/Founding Citizens NFT Sale.sol:FoundingNFTSale",
								"label": "time",
								"offset": 0,
								"slot": "1",
								"type": "t_uint256"
							},
							{
								"astId": 838,
								"contract": "contracts/Founding Citizens NFT Sale.sol:FoundingNFTSale",
								"label": "saleIsLive",
								"offset": 0,
								"slot": "2",
								"type": "t_bool"
							}
						],
						"numberOfBytes": "96"
					},
					"t_uint256": {
						"encoding": "inplace",
						"label": "uint256",
						"numberOfBytes": "32"
					}
				}
			},
			"userdoc": {
				"kind": "user",
				"methods": {},
				"version": 1
			}
		}
	}
}