{
	"contracts/Founding Citizens NFT Sale Privileged Buyers List Storage.sol": {
		"PrivilegedListStorage": {
			"abi": [
				{
					"anonymous": false,
					"inputs": [
						{
							"indexed": true,
							"internalType": "address",
							"name": "previousOwner",
							"type": "address"
						},
						{
							"indexed": true,
							"internalType": "address",
							"name": "newOwner",
							"type": "address"
						}
					],
					"name": "OwnershipTransferred",
					"type": "event"
				},
				{
					"inputs": [
						{
							"internalType": "address",
							"name": "address_",
							"type": "address"
						}
					],
					"name": "addAddress",
					"outputs": [],
					"stateMutability": "nonpayable",
					"type": "function"
				},
				{
					"inputs": [
						{
							"internalType": "address",
							"name": "address_",
							"type": "address"
						},
						{
							"internalType": "uint256",
							"name": "discountRate",
							"type": "uint256"
						},
						{
							"internalType": "uint256",
							"name": "numberOfUses",
							"type": "uint256"
						}
					],
					"name": "addCoupon",
					"outputs": [],
					"stateMutability": "nonpayable",
					"type": "function"
				},
				{
					"inputs": [
						{
							"internalType": "address",
							"name": "address_",
							"type": "address"
						}
					],
					"name": "addressExists",
					"outputs": [
						{
							"internalType": "bool",
							"name": "",
							"type": "bool"
						}
					],
					"stateMutability": "view",
					"type": "function"
				},
				{
					"inputs": [
						{
							"internalType": "address",
							"name": "address_",
							"type": "address"
						}
					],
					"name": "addressHasCoupon",
					"outputs": [
						{
							"internalType": "bool",
							"name": "",
							"type": "bool"
						}
					],
					"stateMutability": "view",
					"type": "function"
				},
				{
					"inputs": [],
					"name": "addressList",
					"outputs": [
						{
							"internalType": "uint256",
							"name": "length",
							"type": "uint256"
						}
					],
					"stateMutability": "view",
					"type": "function"
				},
				{
					"inputs": [],
					"name": "owner",
					"outputs": [
						{
							"internalType": "address",
							"name": "",
							"type": "address"
						}
					],
					"stateMutability": "view",
					"type": "function"
				},
				{
					"inputs": [
						{
							"internalType": "address",
							"name": "address_",
							"type": "address"
						}
					],
					"name": "removeAddress",
					"outputs": [],
					"stateMutability": "nonpayable",
					"type": "function"
				},
				{
					"inputs": [],
					"name": "renounceOwnership",
					"outputs": [],
					"stateMutability": "nonpayable",
					"type": "function"
				},
				{
					"inputs": [
						{
							"internalType": "address",
							"name": "newOwner",
							"type": "address"
						}
					],
					"name": "transferOwnership",
					"outputs": [],
					"stateMutability": "nonpayable",
					"type": "function"
				}
			],
			"devdoc": {
				"kind": "dev",
				"methods": {
					"owner()": {
						"details": "Returns the address of the current owner."
					},
					"renounceOwnership()": {
						"details": "Leaves the contract without owner. It will not be possible to call `onlyOwner` functions anymore. Can only be called by the current owner. NOTE: Renouncing ownership will leave the contract without an owner, thereby removing any functionality that is only available to the owner."
					},
					"transferOwnership(address)": {
						"details": "Transfers ownership of the contract to a new account (`newOwner`). Can only be called by the current owner."
					}
				},
				"version": 1
			},
			"evm": {
				"assembly": "    /* \"contracts/Founding Citizens NFT Sale Privileged Buyers List Storage.sol\":1746:5122  contract PrivilegedListStorage is Ownable {\r... */\n  mstore(0x40, 0x80)\n  callvalue\n  dup1\n  iszero\n  tag_1\n  jumpi\n  0x00\n  dup1\n  revert\ntag_1:\n  pop\n    /* \"@openzeppelin/contracts@4.4.2/access/Ownable.sol\":921:953  _transferOwnership(_msgSender()) */\n  tag_4\n    /* \"@openzeppelin/contracts@4.4.2/access/Ownable.sol\":940:952  _msgSender() */\n  tag_5\n    /* \"@openzeppelin/contracts@4.4.2/access/Ownable.sol\":940:950  _msgSender */\n  shl(0x20, tag_6)\n    /* \"@openzeppelin/contracts@4.4.2/access/Ownable.sol\":940:952  _msgSender() */\n  0x20\n  shr\n  jump\t// in\ntag_5:\n    /* \"@openzeppelin/contracts@4.4.2/access/Ownable.sol\":921:939  _transferOwnership */\n  shl(0x20, tag_7)\n    /* \"@openzeppelin/contracts@4.4.2/access/Ownable.sol\":921:953  _transferOwnership(_msgSender()) */\n  0x20\n  shr\n  jump\t// in\ntag_4:\n    /* \"contracts/Founding Citizens NFT Sale Privileged Buyers List Storage.sol\":1746:5122  contract PrivilegedListStorage is Ownable {\r... */\n  jump(tag_8)\n    /* \"@openzeppelin/contracts@4.4.2/utils/Context.sol\":640:736  function _msgSender() internal view virtual returns (address) {... */\ntag_6:\n    /* \"@openzeppelin/contracts@4.4.2/utils/Context.sol\":693:700  address */\n  0x00\n    /* \"@openzeppelin/contracts@4.4.2/utils/Context.sol\":719:729  msg.sender */\n  caller\n    /* \"@openzeppelin/contracts@4.4.2/utils/Context.sol\":712:729  return msg.sender */\n  swap1\n  pop\n    /* \"@openzeppelin/contracts@4.4.2/utils/Context.sol\":640:736  function _msgSender() internal view virtual returns (address) {... */\n  swap1\n  jump\t// out\n    /* \"@openzeppelin/contracts@4.4.2/access/Ownable.sol\":2270:2457  function _transferOwnership(address newOwner) internal virtual {... */\ntag_7:\n    /* \"@openzeppelin/contracts@4.4.2/access/Ownable.sol\":2343:2359  address oldOwner */\n  0x00\n    /* \"@openzeppelin/contracts@4.4.2/access/Ownable.sol\":2362:2368  _owner */\n  dup1\n  0x00\n  swap1\n  sload\n  swap1\n  0x0100\n  exp\n  swap1\n  div\n  0xffffffffffffffffffffffffffffffffffffffff\n  and\n    /* \"@openzeppelin/contracts@4.4.2/access/Ownable.sol\":2343:2368  address oldOwner = _owner */\n  swap1\n  pop\n    /* \"@openzeppelin/contracts@4.4.2/access/Ownable.sol\":2387:2395  newOwner */\n  dup2\n    /* \"@openzeppelin/contracts@4.4.2/access/Ownable.sol\":2378:2384  _owner */\n  0x00\n  dup1\n    /* \"@openzeppelin/contracts@4.4.2/access/Ownable.sol\":2378:2395  _owner = newOwner */\n  0x0100\n  exp\n  dup2\n  sload\n  dup2\n  0xffffffffffffffffffffffffffffffffffffffff\n  mul\n  not\n  and\n  swap1\n  dup4\n  0xffffffffffffffffffffffffffffffffffffffff\n  and\n  mul\n  or\n  swap1\n  sstore\n  pop\n    /* \"@openzeppelin/contracts@4.4.2/access/Ownable.sol\":2441:2449  newOwner */\n  dup2\n    /* \"@openzeppelin/contracts@4.4.2/access/Ownable.sol\":2410:2450  OwnershipTransferred(oldOwner, newOwner) */\n  0xffffffffffffffffffffffffffffffffffffffff\n  and\n    /* \"@openzeppelin/contracts@4.4.2/access/Ownable.sol\":2431:2439  oldOwner */\n  dup2\n    /* \"@openzeppelin/contracts@4.4.2/access/Ownable.sol\":2410:2450  OwnershipTransferred(oldOwner, newOwner) */\n  0xffffffffffffffffffffffffffffffffffffffff\n  and\n  0x8be0079c531659141344cd1fd0a4f28419497f9722a3daafe3b4186f6b6457e0\n  mload(0x40)\n  mload(0x40)\n  dup1\n  swap2\n  sub\n  swap1\n  log3\n    /* \"@openzeppelin/contracts@4.4.2/access/Ownable.sol\":2270:2457  function _transferOwnership(address newOwner) internal virtual {... */\n  pop\n  pop\n  jump\t// out\n    /* \"contracts/Founding Citizens NFT Sale Privileged Buyers List Storage.sol\":1746:5122  contract PrivilegedListStorage is Ownable {\r... */\ntag_8:\n  dataSize(sub_0)\n  dup1\n  dataOffset(sub_0)\n  0x00\n  codecopy\n  0x00\n  return\nstop\n\nsub_0: assembly {\n        /* \"contracts/Founding Citizens NFT Sale Privileged Buyers List Storage.sol\":1746:5122  contract PrivilegedListStorage is Ownable {\r... */\n      mstore(0x40, 0x80)\n      callvalue\n      dup1\n      iszero\n      tag_1\n      jumpi\n      0x00\n      dup1\n      revert\n    tag_1:\n      pop\n      jumpi(tag_2, lt(calldatasize, 0x04))\n      shr(0xe0, calldataload(0x00))\n      dup1\n      0x8da5cb5b\n      gt\n      tag_12\n      jumpi\n      dup1\n      0x8da5cb5b\n      eq\n      tag_7\n      jumpi\n      dup1\n      0xa5025222\n      eq\n      tag_8\n      jumpi\n      dup1\n      0xc1eb6dfd\n      eq\n      tag_9\n      jumpi\n      dup1\n      0xf2fde38b\n      eq\n      tag_10\n      jumpi\n      dup1\n      0xf76da2a8\n      eq\n      tag_11\n      jumpi\n      jump(tag_2)\n    tag_12:\n      dup1\n      0x38eada1c\n      eq\n      tag_3\n      jumpi\n      dup1\n      0x3edfcd2c\n      eq\n      tag_4\n      jumpi\n      dup1\n      0x4ba79dfe\n      eq\n      tag_5\n      jumpi\n      dup1\n      0x715018a6\n      eq\n      tag_6\n      jumpi\n    tag_2:\n      0x00\n      dup1\n      revert\n        /* \"contracts/Founding Citizens NFT Sale Privileged Buyers List Storage.sol\":2734:3001  function addAddress(address address_) public onlyOwner {\r... */\n    tag_3:\n      tag_13\n      0x04\n      dup1\n      calldatasize\n      sub\n      dup2\n      add\n      swap1\n      tag_14\n      swap2\n      swap1\n      tag_15\n      jump\t// in\n    tag_14:\n      tag_16\n      jump\t// in\n    tag_13:\n      stop\n        /* \"contracts/Founding Citizens NFT Sale Privileged Buyers List Storage.sol\":3790:4648  function addCoupon(address address_, uint discountRate, uint numberOfUses) public onlyOwner {\r... */\n    tag_4:\n      tag_17\n      0x04\n      dup1\n      calldatasize\n      sub\n      dup2\n      add\n      swap1\n      tag_18\n      swap2\n      swap1\n      tag_19\n      jump\t// in\n    tag_18:\n      tag_20\n      jump\t// in\n    tag_17:\n      stop\n        /* \"contracts/Founding Citizens NFT Sale Privileged Buyers List Storage.sol\":3213:3782  function removeAddress(address address_) public onlyOwner {\r... */\n    tag_5:\n      tag_21\n      0x04\n      dup1\n      calldatasize\n      sub\n      dup2\n      add\n      swap1\n      tag_22\n      swap2\n      swap1\n      tag_15\n      jump\t// in\n    tag_22:\n      tag_23\n      jump\t// in\n    tag_21:\n      stop\n        /* \"@openzeppelin/contracts@4.4.2/access/Ownable.sol\":1668:1769  function renounceOwnership() public virtual onlyOwner {... */\n    tag_6:\n      tag_24\n      tag_25\n      jump\t// in\n    tag_24:\n      stop\n        /* \"@openzeppelin/contracts@4.4.2/access/Ownable.sol\":1036:1121  function owner() public view virtual returns (address) {... */\n    tag_7:\n      tag_26\n      tag_27\n      jump\t// in\n    tag_26:\n      mload(0x40)\n      tag_28\n      swap2\n      swap1\n      tag_29\n      jump\t// in\n    tag_28:\n      mload(0x40)\n      dup1\n      swap2\n      sub\n      swap1\n      return\n        /* \"contracts/Founding Citizens NFT Sale Privileged Buyers List Storage.sol\":2433:2558  function addressExists(address address_) public view returns(bool) {\r... */\n    tag_8:\n      tag_30\n      0x04\n      dup1\n      calldatasize\n      sub\n      dup2\n      add\n      swap1\n      tag_31\n      swap2\n      swap1\n      tag_15\n      jump\t// in\n    tag_31:\n      tag_32\n      jump\t// in\n    tag_30:\n      mload(0x40)\n      tag_33\n      swap2\n      swap1\n      tag_34\n      jump\t// in\n    tag_33:\n      mload(0x40)\n      dup1\n      swap2\n      sub\n      swap1\n      return\n        /* \"contracts/Founding Citizens NFT Sale Privileged Buyers List Storage.sol\":2394:2424  AddressList public addressList */\n    tag_9:\n      tag_35\n      tag_36\n      jump\t// in\n    tag_35:\n      mload(0x40)\n      tag_37\n      swap2\n      swap1\n      tag_38\n      jump\t// in\n    tag_37:\n      mload(0x40)\n      dup1\n      swap2\n      sub\n      swap1\n      return\n        /* \"@openzeppelin/contracts@4.4.2/access/Ownable.sol\":1918:2116  function transferOwnership(address newOwner) public virtual onlyOwner {... */\n    tag_10:\n      tag_39\n      0x04\n      dup1\n      calldatasize\n      sub\n      dup2\n      add\n      swap1\n      tag_40\n      swap2\n      swap1\n      tag_15\n      jump\t// in\n    tag_40:\n      tag_41\n      jump\t// in\n    tag_39:\n      stop\n        /* \"contracts/Founding Citizens NFT Sale Privileged Buyers List Storage.sol\":2566:2726  function addressHasCoupon(address address_) public view returns(bool) {\r... */\n    tag_11:\n      tag_42\n      0x04\n      dup1\n      calldatasize\n      sub\n      dup2\n      add\n      swap1\n      tag_43\n      swap2\n      swap1\n      tag_15\n      jump\t// in\n    tag_43:\n      tag_44\n      jump\t// in\n    tag_42:\n      mload(0x40)\n      tag_45\n      swap2\n      swap1\n      tag_34\n      jump\t// in\n    tag_45:\n      mload(0x40)\n      dup1\n      swap2\n      sub\n      swap1\n      return\n        /* \"contracts/Founding Citizens NFT Sale Privileged Buyers List Storage.sol\":2734:3001  function addAddress(address address_) public onlyOwner {\r... */\n    tag_16:\n        /* \"@openzeppelin/contracts@4.4.2/access/Ownable.sol\":1259:1271  _msgSender() */\n      tag_47\n        /* \"@openzeppelin/contracts@4.4.2/access/Ownable.sol\":1259:1269  _msgSender */\n      tag_48\n        /* \"@openzeppelin/contracts@4.4.2/access/Ownable.sol\":1259:1271  _msgSender() */\n      jump\t// in\n    tag_47:\n        /* \"@openzeppelin/contracts@4.4.2/access/Ownable.sol\":1248:1271  owner() == _msgSender() */\n      0xffffffffffffffffffffffffffffffffffffffff\n      and\n        /* \"@openzeppelin/contracts@4.4.2/access/Ownable.sol\":1248:1255  owner() */\n      tag_49\n        /* \"@openzeppelin/contracts@4.4.2/access/Ownable.sol\":1248:1253  owner */\n      tag_27\n        /* \"@openzeppelin/contracts@4.4.2/access/Ownable.sol\":1248:1255  owner() */\n      jump\t// in\n    tag_49:\n        /* \"@openzeppelin/contracts@4.4.2/access/Ownable.sol\":1248:1271  owner() == _msgSender() */\n      0xffffffffffffffffffffffffffffffffffffffff\n      and\n      eq\n        /* \"@openzeppelin/contracts@4.4.2/access/Ownable.sol\":1240:1308  require(owner() == _msgSender(), \"Ownable: caller is not the owner\") */\n      tag_50\n      jumpi\n      mload(0x40)\n      0x08c379a000000000000000000000000000000000000000000000000000000000\n      dup2\n      mstore\n      0x04\n      add\n      tag_51\n      swap1\n      tag_52\n      jump\t// in\n    tag_51:\n      mload(0x40)\n      dup1\n      swap2\n      sub\n      swap1\n      revert\n    tag_50:\n        /* \"contracts/Founding Citizens NFT Sale Privileged Buyers List Storage.sol\":2800:2811  addressList */\n      0x01\n        /* \"contracts/Founding Citizens NFT Sale Privileged Buyers List Storage.sol\":2800:2818  addressList.length */\n      0x00\n      add\n      0x00\n        /* \"contracts/Founding Citizens NFT Sale Privileged Buyers List Storage.sol\":2800:2820  addressList.length++ */\n      dup2\n      sload\n      dup1\n      swap3\n      swap2\n      swap1\n      tag_54\n      swap1\n      tag_55\n      jump\t// in\n    tag_54:\n      swap2\n      swap1\n      pop\n      sstore\n      pop\n        /* \"contracts/Founding Citizens NFT Sale Privileged Buyers List Storage.sol\":2875:2883  address_ */\n      dup1\n        /* \"contracts/Founding Citizens NFT Sale Privileged Buyers List Storage.sol\":2831:2842  addressList */\n      0x01\n        /* \"contracts/Founding Citizens NFT Sale Privileged Buyers List Storage.sol\":2831:2852  addressList.addresses */\n      dup1\n      add\n        /* \"contracts/Founding Citizens NFT Sale Privileged Buyers List Storage.sol\":2831:2872  addressList.addresses[addressList.length] */\n      0x00\n        /* \"contracts/Founding Citizens NFT Sale Privileged Buyers List Storage.sol\":2853:2864  addressList */\n      0x01\n        /* \"contracts/Founding Citizens NFT Sale Privileged Buyers List Storage.sol\":2853:2871  addressList.length */\n      0x00\n      add\n      sload\n        /* \"contracts/Founding Citizens NFT Sale Privileged Buyers List Storage.sol\":2831:2872  addressList.addresses[addressList.length] */\n      dup2\n      mstore\n      0x20\n      add\n      swap1\n      dup2\n      mstore\n      0x20\n      add\n      0x00\n      keccak256\n      0x00\n        /* \"contracts/Founding Citizens NFT Sale Privileged Buyers List Storage.sol\":2831:2883  addressList.addresses[addressList.length] = address_ */\n      0x0100\n      exp\n      dup2\n      sload\n      dup2\n      0xffffffffffffffffffffffffffffffffffffffff\n      mul\n      not\n      and\n      swap1\n      dup4\n      0xffffffffffffffffffffffffffffffffffffffff\n      and\n      mul\n      or\n      swap1\n      sstore\n      pop\n        /* \"contracts/Founding Citizens NFT Sale Privileged Buyers List Storage.sol\":2975:2986  addressList */\n      0x01\n        /* \"contracts/Founding Citizens NFT Sale Privileged Buyers List Storage.sol\":2975:2993  addressList.length */\n      0x00\n      add\n      sload\n        /* \"contracts/Founding Citizens NFT Sale Privileged Buyers List Storage.sol\":2947:2958  addressList */\n      0x01\n        /* \"contracts/Founding Citizens NFT Sale Privileged Buyers List Storage.sol\":2947:2962  addressList.ids */\n      0x02\n      add\n        /* \"contracts/Founding Citizens NFT Sale Privileged Buyers List Storage.sol\":2947:2972  addressList.ids[address_] */\n      0x00\n        /* \"contracts/Founding Citizens NFT Sale Privileged Buyers List Storage.sol\":2963:2971  address_ */\n      dup4\n        /* \"contracts/Founding Citizens NFT Sale Privileged Buyers List Storage.sol\":2947:2972  addressList.ids[address_] */\n      0xffffffffffffffffffffffffffffffffffffffff\n      and\n      0xffffffffffffffffffffffffffffffffffffffff\n      and\n      dup2\n      mstore\n      0x20\n      add\n      swap1\n      dup2\n      mstore\n      0x20\n      add\n      0x00\n      keccak256\n        /* \"contracts/Founding Citizens NFT Sale Privileged Buyers List Storage.sol\":2947:2993  addressList.ids[address_] = addressList.length */\n      dup2\n      swap1\n      sstore\n      pop\n        /* \"contracts/Founding Citizens NFT Sale Privileged Buyers List Storage.sol\":2734:3001  function addAddress(address address_) public onlyOwner {\r... */\n      pop\n      jump\t// out\n        /* \"contracts/Founding Citizens NFT Sale Privileged Buyers List Storage.sol\":3790:4648  function addCoupon(address address_, uint discountRate, uint numberOfUses) public onlyOwner {\r... */\n    tag_20:\n        /* \"@openzeppelin/contracts@4.4.2/access/Ownable.sol\":1259:1271  _msgSender() */\n      tag_57\n        /* \"@openzeppelin/contracts@4.4.2/access/Ownable.sol\":1259:1269  _msgSender */\n      tag_48\n        /* \"@openzeppelin/contracts@4.4.2/access/Ownable.sol\":1259:1271  _msgSender() */\n      jump\t// in\n    tag_57:\n        /* \"@openzeppelin/contracts@4.4.2/access/Ownable.sol\":1248:1271  owner() == _msgSender() */\n      0xffffffffffffffffffffffffffffffffffffffff\n      and\n        /* \"@openzeppelin/contracts@4.4.2/access/Ownable.sol\":1248:1255  owner() */\n      tag_58\n        /* \"@openzeppelin/contracts@4.4.2/access/Ownable.sol\":1248:1253  owner */\n      tag_27\n        /* \"@openzeppelin/contracts@4.4.2/access/Ownable.sol\":1248:1255  owner() */\n      jump\t// in\n    tag_58:\n        /* \"@openzeppelin/contracts@4.4.2/access/Ownable.sol\":1248:1271  owner() == _msgSender() */\n      0xffffffffffffffffffffffffffffffffffffffff\n      and\n      eq\n        /* \"@openzeppelin/contracts@4.4.2/access/Ownable.sol\":1240:1308  require(owner() == _msgSender(), \"Ownable: caller is not the owner\") */\n      tag_59\n      jumpi\n      mload(0x40)\n      0x08c379a000000000000000000000000000000000000000000000000000000000\n      dup2\n      mstore\n      0x04\n      add\n      tag_60\n      swap1\n      tag_52\n      jump\t// in\n    tag_60:\n      mload(0x40)\n      dup1\n      swap2\n      sub\n      swap1\n      revert\n    tag_59:\n        /* \"contracts/Founding Citizens NFT Sale Privileged Buyers List Storage.sol\":3898:3921  addressExists(address_) */\n      tag_62\n        /* \"contracts/Founding Citizens NFT Sale Privileged Buyers List Storage.sol\":3912:3920  address_ */\n      dup4\n        /* \"contracts/Founding Citizens NFT Sale Privileged Buyers List Storage.sol\":3898:3911  addressExists */\n      tag_32\n        /* \"contracts/Founding Citizens NFT Sale Privileged Buyers List Storage.sol\":3898:3921  addressExists(address_) */\n      jump\t// in\n    tag_62:\n        /* \"contracts/Founding Citizens NFT Sale Privileged Buyers List Storage.sol\":3893:3970  if (!addressExists(address_)) {\r... */\n      tag_63\n      jumpi\n        /* \"contracts/Founding Citizens NFT Sale Privileged Buyers List Storage.sol\":3938:3958  addAddress(address_) */\n      tag_64\n        /* \"contracts/Founding Citizens NFT Sale Privileged Buyers List Storage.sol\":3949:3957  address_ */\n      dup4\n        /* \"contracts/Founding Citizens NFT Sale Privileged Buyers List Storage.sol\":3938:3948  addAddress */\n      tag_16\n        /* \"contracts/Founding Citizens NFT Sale Privileged Buyers List Storage.sol\":3938:3958  addAddress(address_) */\n      jump\t// in\n    tag_64:\n        /* \"contracts/Founding Citizens NFT Sale Privileged Buyers List Storage.sol\":3893:3970  if (!addressExists(address_)) {\r... */\n    tag_63:\n        /* \"contracts/Founding Citizens NFT Sale Privileged Buyers List Storage.sol\":4062:4073  addressList */\n      0x01\n        /* \"contracts/Founding Citizens NFT Sale Privileged Buyers List Storage.sol\":4062:4085  addressList.couponLists */\n      0x03\n      add\n        /* \"contracts/Founding Citizens NFT Sale Privileged Buyers List Storage.sol\":4062:4112  addressList.couponLists[addressList.ids[address_]] */\n      0x00\n        /* \"contracts/Founding Citizens NFT Sale Privileged Buyers List Storage.sol\":4086:4097  addressList */\n      0x01\n        /* \"contracts/Founding Citizens NFT Sale Privileged Buyers List Storage.sol\":4086:4101  addressList.ids */\n      0x02\n      add\n        /* \"contracts/Founding Citizens NFT Sale Privileged Buyers List Storage.sol\":4086:4111  addressList.ids[address_] */\n      0x00\n        /* \"contracts/Founding Citizens NFT Sale Privileged Buyers List Storage.sol\":4102:4110  address_ */\n      dup7\n        /* \"contracts/Founding Citizens NFT Sale Privileged Buyers List Storage.sol\":4086:4111  addressList.ids[address_] */\n      0xffffffffffffffffffffffffffffffffffffffff\n      and\n      0xffffffffffffffffffffffffffffffffffffffff\n      and\n      dup2\n      mstore\n      0x20\n      add\n      swap1\n      dup2\n      mstore\n      0x20\n      add\n      0x00\n      keccak256\n      sload\n        /* \"contracts/Founding Citizens NFT Sale Privileged Buyers List Storage.sol\":4062:4112  addressList.couponLists[addressList.ids[address_]] */\n      dup2\n      mstore\n      0x20\n      add\n      swap1\n      dup2\n      mstore\n      0x20\n      add\n      0x00\n      keccak256\n        /* \"contracts/Founding Citizens NFT Sale Privileged Buyers List Storage.sol\":4062:4119  addressList.couponLists[addressList.ids[address_]].length */\n      0x00\n      add\n      0x00\n        /* \"contracts/Founding Citizens NFT Sale Privileged Buyers List Storage.sol\":4062:4121  addressList.couponLists[addressList.ids[address_]].length++ */\n      dup2\n      sload\n      dup1\n      swap3\n      swap2\n      swap1\n      tag_65\n      swap1\n      tag_55\n      jump\t// in\n    tag_65:\n      swap2\n      swap1\n      pop\n      sstore\n      pop\n        /* \"contracts/Founding Citizens NFT Sale Privileged Buyers List Storage.sol\":4244:4272  uint currentCouponListLength */\n      0x00\n        /* \"contracts/Founding Citizens NFT Sale Privileged Buyers List Storage.sol\":4275:4286  addressList */\n      0x01\n        /* \"contracts/Founding Citizens NFT Sale Privileged Buyers List Storage.sol\":4275:4298  addressList.couponLists */\n      0x03\n      add\n        /* \"contracts/Founding Citizens NFT Sale Privileged Buyers List Storage.sol\":4275:4325  addressList.couponLists[addressList.ids[address_]] */\n      0x00\n        /* \"contracts/Founding Citizens NFT Sale Privileged Buyers List Storage.sol\":4299:4310  addressList */\n      0x01\n        /* \"contracts/Founding Citizens NFT Sale Privileged Buyers List Storage.sol\":4299:4314  addressList.ids */\n      0x02\n      add\n        /* \"contracts/Founding Citizens NFT Sale Privileged Buyers List Storage.sol\":4299:4324  addressList.ids[address_] */\n      0x00\n        /* \"contracts/Founding Citizens NFT Sale Privileged Buyers List Storage.sol\":4315:4323  address_ */\n      dup8\n        /* \"contracts/Founding Citizens NFT Sale Privileged Buyers List Storage.sol\":4299:4324  addressList.ids[address_] */\n      0xffffffffffffffffffffffffffffffffffffffff\n      and\n      0xffffffffffffffffffffffffffffffffffffffff\n      and\n      dup2\n      mstore\n      0x20\n      add\n      swap1\n      dup2\n      mstore\n      0x20\n      add\n      0x00\n      keccak256\n      sload\n        /* \"contracts/Founding Citizens NFT Sale Privileged Buyers List Storage.sol\":4275:4325  addressList.couponLists[addressList.ids[address_]] */\n      dup2\n      mstore\n      0x20\n      add\n      swap1\n      dup2\n      mstore\n      0x20\n      add\n      0x00\n      keccak256\n        /* \"contracts/Founding Citizens NFT Sale Privileged Buyers List Storage.sol\":4275:4332  addressList.couponLists[addressList.ids[address_]].length */\n      0x00\n      add\n      sload\n        /* \"contracts/Founding Citizens NFT Sale Privileged Buyers List Storage.sol\":4244:4332  uint currentCouponListLength = addressList.couponLists[addressList.ids[address_]].length */\n      swap1\n      pop\n        /* \"contracts/Founding Citizens NFT Sale Privileged Buyers List Storage.sol\":4474:4486  discountRate */\n      dup3\n        /* \"contracts/Founding Citizens NFT Sale Privileged Buyers List Storage.sol\":4343:4354  addressList */\n      0x01\n        /* \"contracts/Founding Citizens NFT Sale Privileged Buyers List Storage.sol\":4343:4366  addressList.couponLists */\n      0x03\n      add\n        /* \"contracts/Founding Citizens NFT Sale Privileged Buyers List Storage.sol\":4343:4393  addressList.couponLists[addressList.ids[address_]] */\n      0x00\n        /* \"contracts/Founding Citizens NFT Sale Privileged Buyers List Storage.sol\":4367:4378  addressList */\n      0x01\n        /* \"contracts/Founding Citizens NFT Sale Privileged Buyers List Storage.sol\":4367:4382  addressList.ids */\n      0x02\n      add\n        /* \"contracts/Founding Citizens NFT Sale Privileged Buyers List Storage.sol\":4367:4392  addressList.ids[address_] */\n      0x00\n        /* \"contracts/Founding Citizens NFT Sale Privileged Buyers List Storage.sol\":4383:4391  address_ */\n      dup9\n        /* \"contracts/Founding Citizens NFT Sale Privileged Buyers List Storage.sol\":4367:4392  addressList.ids[address_] */\n      0xffffffffffffffffffffffffffffffffffffffff\n      and\n      0xffffffffffffffffffffffffffffffffffffffff\n      and\n      dup2\n      mstore\n      0x20\n      add\n      swap1\n      dup2\n      mstore\n      0x20\n      add\n      0x00\n      keccak256\n      sload\n        /* \"contracts/Founding Citizens NFT Sale Privileged Buyers List Storage.sol\":4343:4393  addressList.couponLists[addressList.ids[address_]] */\n      dup2\n      mstore\n      0x20\n      add\n      swap1\n      dup2\n      mstore\n      0x20\n      add\n      0x00\n      keccak256\n        /* \"contracts/Founding Citizens NFT Sale Privileged Buyers List Storage.sol\":4343:4415  addressList.couponLists[addressList.ids[address_]]\r... */\n      0x01\n      add\n        /* \"contracts/Founding Citizens NFT Sale Privileged Buyers List Storage.sol\":4343:4440  addressList.couponLists[addressList.ids[address_]]\r... */\n      0x00\n        /* \"contracts/Founding Citizens NFT Sale Privileged Buyers List Storage.sol\":4416:4439  currentCouponListLength */\n      dup4\n        /* \"contracts/Founding Citizens NFT Sale Privileged Buyers List Storage.sol\":4343:4440  addressList.couponLists[addressList.ids[address_]]\r... */\n      dup2\n      mstore\n      0x20\n      add\n      swap1\n      dup2\n      mstore\n      0x20\n      add\n      0x00\n      keccak256\n        /* \"contracts/Founding Citizens NFT Sale Privileged Buyers List Storage.sol\":4343:4471  addressList.couponLists[addressList.ids[address_]]\r... */\n      0x00\n      add\n        /* \"contracts/Founding Citizens NFT Sale Privileged Buyers List Storage.sol\":4343:4486  addressList.couponLists[addressList.ids[address_]]\r... */\n      dup2\n      swap1\n      sstore\n      pop\n        /* \"contracts/Founding Citizens NFT Sale Privileged Buyers List Storage.sol\":4628:4640  numberOfUses */\n      dup2\n        /* \"contracts/Founding Citizens NFT Sale Privileged Buyers List Storage.sol\":4497:4508  addressList */\n      0x01\n        /* \"contracts/Founding Citizens NFT Sale Privileged Buyers List Storage.sol\":4497:4520  addressList.couponLists */\n      0x03\n      add\n        /* \"contracts/Founding Citizens NFT Sale Privileged Buyers List Storage.sol\":4497:4547  addressList.couponLists[addressList.ids[address_]] */\n      0x00\n        /* \"contracts/Founding Citizens NFT Sale Privileged Buyers List Storage.sol\":4521:4532  addressList */\n      0x01\n        /* \"contracts/Founding Citizens NFT Sale Privileged Buyers List Storage.sol\":4521:4536  addressList.ids */\n      0x02\n      add\n        /* \"contracts/Founding Citizens NFT Sale Privileged Buyers List Storage.sol\":4521:4546  addressList.ids[address_] */\n      0x00\n        /* \"contracts/Founding Citizens NFT Sale Privileged Buyers List Storage.sol\":4537:4545  address_ */\n      dup9\n        /* \"contracts/Founding Citizens NFT Sale Privileged Buyers List Storage.sol\":4521:4546  addressList.ids[address_] */\n      0xffffffffffffffffffffffffffffffffffffffff\n      and\n      0xffffffffffffffffffffffffffffffffffffffff\n      and\n      dup2\n      mstore\n      0x20\n      add\n      swap1\n      dup2\n      mstore\n      0x20\n      add\n      0x00\n      keccak256\n      sload\n        /* \"contracts/Founding Citizens NFT Sale Privileged Buyers List Storage.sol\":4497:4547  addressList.couponLists[addressList.ids[address_]] */\n      dup2\n      mstore\n      0x20\n      add\n      swap1\n      dup2\n      mstore\n      0x20\n      add\n      0x00\n      keccak256\n        /* \"contracts/Founding Citizens NFT Sale Privileged Buyers List Storage.sol\":4497:4569  addressList.couponLists[addressList.ids[address_]].\r... */\n      0x01\n      add\n        /* \"contracts/Founding Citizens NFT Sale Privileged Buyers List Storage.sol\":4497:4594  addressList.couponLists[addressList.ids[address_]].\r... */\n      0x00\n        /* \"contracts/Founding Citizens NFT Sale Privileged Buyers List Storage.sol\":4570:4593  currentCouponListLength */\n      dup4\n        /* \"contracts/Founding Citizens NFT Sale Privileged Buyers List Storage.sol\":4497:4594  addressList.couponLists[addressList.ids[address_]].\r... */\n      dup2\n      mstore\n      0x20\n      add\n      swap1\n      dup2\n      mstore\n      0x20\n      add\n      0x00\n      keccak256\n        /* \"contracts/Founding Citizens NFT Sale Privileged Buyers List Storage.sol\":4497:4625  addressList.couponLists[addressList.ids[address_]].\r... */\n      0x01\n      add\n        /* \"contracts/Founding Citizens NFT Sale Privileged Buyers List Storage.sol\":4497:4640  addressList.couponLists[addressList.ids[address_]].\r... */\n      dup2\n      swap1\n      sstore\n      pop\n        /* \"@openzeppelin/contracts@4.4.2/access/Ownable.sol\":1318:1319  _ */\n      pop\n        /* \"contracts/Founding Citizens NFT Sale Privileged Buyers List Storage.sol\":3790:4648  function addCoupon(address address_, uint discountRate, uint numberOfUses) public onlyOwner {\r... */\n      pop\n      pop\n      pop\n      jump\t// out\n        /* \"contracts/Founding Citizens NFT Sale Privileged Buyers List Storage.sol\":3213:3782  function removeAddress(address address_) public onlyOwner {\r... */\n    tag_23:\n        /* \"@openzeppelin/contracts@4.4.2/access/Ownable.sol\":1259:1271  _msgSender() */\n      tag_67\n        /* \"@openzeppelin/contracts@4.4.2/access/Ownable.sol\":1259:1269  _msgSender */\n      tag_48\n        /* \"@openzeppelin/contracts@4.4.2/access/Ownable.sol\":1259:1271  _msgSender() */\n      jump\t// in\n    tag_67:\n        /* \"@openzeppelin/contracts@4.4.2/access/Ownable.sol\":1248:1271  owner() == _msgSender() */\n      0xffffffffffffffffffffffffffffffffffffffff\n      and\n        /* \"@openzeppelin/contracts@4.4.2/access/Ownable.sol\":1248:1255  owner() */\n      tag_68\n        /* \"@openzeppelin/contracts@4.4.2/access/Ownable.sol\":1248:1253  owner */\n      tag_27\n        /* \"@openzeppelin/contracts@4.4.2/access/Ownable.sol\":1248:1255  owner() */\n      jump\t// in\n    tag_68:\n        /* \"@openzeppelin/contracts@4.4.2/access/Ownable.sol\":1248:1271  owner() == _msgSender() */\n      0xffffffffffffffffffffffffffffffffffffffff\n      and\n      eq\n        /* \"@openzeppelin/contracts@4.4.2/access/Ownable.sol\":1240:1308  require(owner() == _msgSender(), \"Ownable: caller is not the owner\") */\n      tag_69\n      jumpi\n      mload(0x40)\n      0x08c379a000000000000000000000000000000000000000000000000000000000\n      dup2\n      mstore\n      0x04\n      add\n      tag_70\n      swap1\n      tag_52\n      jump\t// in\n    tag_70:\n      mload(0x40)\n      dup1\n      swap2\n      sub\n      swap1\n      revert\n    tag_69:\n        /* \"contracts/Founding Citizens NFT Sale Privileged Buyers List Storage.sol\":3292:3307  uint _toRemove1 */\n      0x00\n        /* \"contracts/Founding Citizens NFT Sale Privileged Buyers List Storage.sol\":3310:3321  addressList */\n      0x01\n        /* \"contracts/Founding Citizens NFT Sale Privileged Buyers List Storage.sol\":3310:3325  addressList.ids */\n      0x02\n      add\n        /* \"contracts/Founding Citizens NFT Sale Privileged Buyers List Storage.sol\":3310:3335  addressList.ids[address_] */\n      0x00\n        /* \"contracts/Founding Citizens NFT Sale Privileged Buyers List Storage.sol\":3326:3334  address_ */\n      dup4\n        /* \"contracts/Founding Citizens NFT Sale Privileged Buyers List Storage.sol\":3310:3335  addressList.ids[address_] */\n      0xffffffffffffffffffffffffffffffffffffffff\n      and\n      0xffffffffffffffffffffffffffffffffffffffff\n      and\n      dup2\n      mstore\n      0x20\n      add\n      swap1\n      dup2\n      mstore\n      0x20\n      add\n      0x00\n      keccak256\n      sload\n        /* \"contracts/Founding Citizens NFT Sale Privileged Buyers List Storage.sol\":3292:3335  uint _toRemove1 = addressList.ids[address_] */\n      swap1\n      pop\n        /* \"contracts/Founding Citizens NFT Sale Privileged Buyers List Storage.sol\":3346:3364  address _toRemove2 */\n      0x00\n        /* \"contracts/Founding Citizens NFT Sale Privileged Buyers List Storage.sol\":3367:3375  address_ */\n      dup3\n        /* \"contracts/Founding Citizens NFT Sale Privileged Buyers List Storage.sol\":3346:3375  address _toRemove2 = address_ */\n      swap1\n      pop\n        /* \"contracts/Founding Citizens NFT Sale Privileged Buyers List Storage.sol\":3388:3401  uint _toMove1 */\n      0x00\n        /* \"contracts/Founding Citizens NFT Sale Privileged Buyers List Storage.sol\":3404:3415  addressList */\n      0x01\n        /* \"contracts/Founding Citizens NFT Sale Privileged Buyers List Storage.sol\":3404:3422  addressList.length */\n      0x00\n      add\n      sload\n        /* \"contracts/Founding Citizens NFT Sale Privileged Buyers List Storage.sol\":3388:3422  uint _toMove1 = addressList.length */\n      swap1\n      pop\n        /* \"contracts/Founding Citizens NFT Sale Privileged Buyers List Storage.sol\":3433:3449  address _toMove2 */\n      0x00\n        /* \"contracts/Founding Citizens NFT Sale Privileged Buyers List Storage.sol\":3452:3463  addressList */\n      0x01\n        /* \"contracts/Founding Citizens NFT Sale Privileged Buyers List Storage.sol\":3452:3473  addressList.addresses */\n      dup1\n      add\n        /* \"contracts/Founding Citizens NFT Sale Privileged Buyers List Storage.sol\":3452:3493  addressList.addresses[addressList.length] */\n      0x00\n        /* \"contracts/Founding Citizens NFT Sale Privileged Buyers List Storage.sol\":3474:3485  addressList */\n      0x01\n        /* \"contracts/Founding Citizens NFT Sale Privileged Buyers List Storage.sol\":3474:3492  addressList.length */\n      0x00\n      add\n      sload\n        /* \"contracts/Founding Citizens NFT Sale Privileged Buyers List Storage.sol\":3452:3493  addressList.addresses[addressList.length] */\n      dup2\n      mstore\n      0x20\n      add\n      swap1\n      dup2\n      mstore\n      0x20\n      add\n      0x00\n      keccak256\n      0x00\n      swap1\n      sload\n      swap1\n      0x0100\n      exp\n      swap1\n      div\n      0xffffffffffffffffffffffffffffffffffffffff\n      and\n        /* \"contracts/Founding Citizens NFT Sale Privileged Buyers List Storage.sol\":3433:3493  address _toMove2 = addressList.addresses[addressList.length] */\n      swap1\n      pop\n        /* \"contracts/Founding Citizens NFT Sale Privileged Buyers List Storage.sol\":3542:3553  addressList */\n      0x01\n        /* \"contracts/Founding Citizens NFT Sale Privileged Buyers List Storage.sol\":3542:3563  addressList.addresses */\n      dup1\n      add\n        /* \"contracts/Founding Citizens NFT Sale Privileged Buyers List Storage.sol\":3542:3573  addressList.addresses[_toMove1] */\n      0x00\n        /* \"contracts/Founding Citizens NFT Sale Privileged Buyers List Storage.sol\":3564:3572  _toMove1 */\n      dup4\n        /* \"contracts/Founding Citizens NFT Sale Privileged Buyers List Storage.sol\":3542:3573  addressList.addresses[_toMove1] */\n      dup2\n      mstore\n      0x20\n      add\n      swap1\n      dup2\n      mstore\n      0x20\n      add\n      0x00\n      keccak256\n      0x00\n      swap1\n      sload\n      swap1\n      0x0100\n      exp\n      swap1\n      div\n      0xffffffffffffffffffffffffffffffffffffffff\n      and\n        /* \"contracts/Founding Citizens NFT Sale Privileged Buyers List Storage.sol\":3506:3517  addressList */\n      0x01\n        /* \"contracts/Founding Citizens NFT Sale Privileged Buyers List Storage.sol\":3506:3527  addressList.addresses */\n      dup1\n      add\n        /* \"contracts/Founding Citizens NFT Sale Privileged Buyers List Storage.sol\":3506:3539  addressList.addresses[_toRemove1] */\n      0x00\n        /* \"contracts/Founding Citizens NFT Sale Privileged Buyers List Storage.sol\":3528:3538  _toRemove1 */\n      dup7\n        /* \"contracts/Founding Citizens NFT Sale Privileged Buyers List Storage.sol\":3506:3539  addressList.addresses[_toRemove1] */\n      dup2\n      mstore\n      0x20\n      add\n      swap1\n      dup2\n      mstore\n      0x20\n      add\n      0x00\n      keccak256\n      0x00\n        /* \"contracts/Founding Citizens NFT Sale Privileged Buyers List Storage.sol\":3506:3573  addressList.addresses[_toRemove1] = addressList.addresses[_toMove1] */\n      0x0100\n      exp\n      dup2\n      sload\n      dup2\n      0xffffffffffffffffffffffffffffffffffffffff\n      mul\n      not\n      and\n      swap1\n      dup4\n      0xffffffffffffffffffffffffffffffffffffffff\n      and\n      mul\n      or\n      swap1\n      sstore\n      pop\n        /* \"contracts/Founding Citizens NFT Sale Privileged Buyers List Storage.sol\":3591:3602  addressList */\n      0x01\n        /* \"contracts/Founding Citizens NFT Sale Privileged Buyers List Storage.sol\":3591:3612  addressList.addresses */\n      dup1\n      add\n        /* \"contracts/Founding Citizens NFT Sale Privileged Buyers List Storage.sol\":3591:3622  addressList.addresses[_toMove1] */\n      0x00\n        /* \"contracts/Founding Citizens NFT Sale Privileged Buyers List Storage.sol\":3613:3621  _toMove1 */\n      dup4\n        /* \"contracts/Founding Citizens NFT Sale Privileged Buyers List Storage.sol\":3591:3622  addressList.addresses[_toMove1] */\n      dup2\n      mstore\n      0x20\n      add\n      swap1\n      dup2\n      mstore\n      0x20\n      add\n      0x00\n      keccak256\n      0x00\n        /* \"contracts/Founding Citizens NFT Sale Privileged Buyers List Storage.sol\":3584:3622  delete addressList.addresses[_toMove1] */\n      0x0100\n      exp\n      dup2\n      sload\n      swap1\n      0xffffffffffffffffffffffffffffffffffffffff\n      mul\n      not\n      and\n      swap1\n      sstore\n        /* \"contracts/Founding Citizens NFT Sale Privileged Buyers List Storage.sol\":3665:3676  addressList */\n      0x01\n        /* \"contracts/Founding Citizens NFT Sale Privileged Buyers List Storage.sol\":3665:3680  addressList.ids */\n      0x02\n      add\n        /* \"contracts/Founding Citizens NFT Sale Privileged Buyers List Storage.sol\":3665:3690  addressList.ids[_toMove2] */\n      0x00\n        /* \"contracts/Founding Citizens NFT Sale Privileged Buyers List Storage.sol\":3681:3689  _toMove2 */\n      dup3\n        /* \"contracts/Founding Citizens NFT Sale Privileged Buyers List Storage.sol\":3665:3690  addressList.ids[_toMove2] */\n      0xffffffffffffffffffffffffffffffffffffffff\n      and\n      0xffffffffffffffffffffffffffffffffffffffff\n      and\n      dup2\n      mstore\n      0x20\n      add\n      swap1\n      dup2\n      mstore\n      0x20\n      add\n      0x00\n      keccak256\n      sload\n        /* \"contracts/Founding Citizens NFT Sale Privileged Buyers List Storage.sol\":3635:3646  addressList */\n      0x01\n        /* \"contracts/Founding Citizens NFT Sale Privileged Buyers List Storage.sol\":3635:3650  addressList.ids */\n      0x02\n      add\n        /* \"contracts/Founding Citizens NFT Sale Privileged Buyers List Storage.sol\":3635:3662  addressList.ids[_toRemove2] */\n      0x00\n        /* \"contracts/Founding Citizens NFT Sale Privileged Buyers List Storage.sol\":3651:3661  _toRemove2 */\n      dup6\n        /* \"contracts/Founding Citizens NFT Sale Privileged Buyers List Storage.sol\":3635:3662  addressList.ids[_toRemove2] */\n      0xffffffffffffffffffffffffffffffffffffffff\n      and\n      0xffffffffffffffffffffffffffffffffffffffff\n      and\n      dup2\n      mstore\n      0x20\n      add\n      swap1\n      dup2\n      mstore\n      0x20\n      add\n      0x00\n      keccak256\n        /* \"contracts/Founding Citizens NFT Sale Privileged Buyers List Storage.sol\":3635:3690  addressList.ids[_toRemove2] = addressList.ids[_toMove2] */\n      dup2\n      swap1\n      sstore\n      pop\n        /* \"contracts/Founding Citizens NFT Sale Privileged Buyers List Storage.sol\":3708:3719  addressList */\n      0x01\n        /* \"contracts/Founding Citizens NFT Sale Privileged Buyers List Storage.sol\":3708:3723  addressList.ids */\n      0x02\n      add\n        /* \"contracts/Founding Citizens NFT Sale Privileged Buyers List Storage.sol\":3708:3733  addressList.ids[_toMove2] */\n      0x00\n        /* \"contracts/Founding Citizens NFT Sale Privileged Buyers List Storage.sol\":3724:3732  _toMove2 */\n      dup3\n        /* \"contracts/Founding Citizens NFT Sale Privileged Buyers List Storage.sol\":3708:3733  addressList.ids[_toMove2] */\n      0xffffffffffffffffffffffffffffffffffffffff\n      and\n      0xffffffffffffffffffffffffffffffffffffffff\n      and\n      dup2\n      mstore\n      0x20\n      add\n      swap1\n      dup2\n      mstore\n      0x20\n      add\n      0x00\n      keccak256\n        /* \"contracts/Founding Citizens NFT Sale Privileged Buyers List Storage.sol\":3701:3733  delete addressList.ids[_toMove2] */\n      0x00\n      swap1\n      sstore\n        /* \"contracts/Founding Citizens NFT Sale Privileged Buyers List Storage.sol\":3754:3765  addressList */\n      0x01\n        /* \"contracts/Founding Citizens NFT Sale Privileged Buyers List Storage.sol\":3754:3772  addressList.length */\n      0x00\n      add\n      0x00\n        /* \"contracts/Founding Citizens NFT Sale Privileged Buyers List Storage.sol\":3754:3774  addressList.length-- */\n      dup2\n      sload\n      dup1\n      swap3\n      swap2\n      swap1\n      tag_72\n      swap1\n      tag_73\n      jump\t// in\n    tag_72:\n      swap2\n      swap1\n      pop\n      sstore\n      pop\n        /* \"@openzeppelin/contracts@4.4.2/access/Ownable.sol\":1318:1319  _ */\n      pop\n      pop\n      pop\n      pop\n        /* \"contracts/Founding Citizens NFT Sale Privileged Buyers List Storage.sol\":3213:3782  function removeAddress(address address_) public onlyOwner {\r... */\n      pop\n      jump\t// out\n        /* \"@openzeppelin/contracts@4.4.2/access/Ownable.sol\":1668:1769  function renounceOwnership() public virtual onlyOwner {... */\n    tag_25:\n        /* \"@openzeppelin/contracts@4.4.2/access/Ownable.sol\":1259:1271  _msgSender() */\n      tag_75\n        /* \"@openzeppelin/contracts@4.4.2/access/Ownable.sol\":1259:1269  _msgSender */\n      tag_48\n        /* \"@openzeppelin/contracts@4.4.2/access/Ownable.sol\":1259:1271  _msgSender() */\n      jump\t// in\n    tag_75:\n        /* \"@openzeppelin/contracts@4.4.2/access/Ownable.sol\":1248:1271  owner() == _msgSender() */\n      0xffffffffffffffffffffffffffffffffffffffff\n      and\n        /* \"@openzeppelin/contracts@4.4.2/access/Ownable.sol\":1248:1255  owner() */\n      tag_76\n        /* \"@openzeppelin/contracts@4.4.2/access/Ownable.sol\":1248:1253  owner */\n      tag_27\n        /* \"@openzeppelin/contracts@4.4.2/access/Ownable.sol\":1248:1255  owner() */\n      jump\t// in\n    tag_76:\n        /* \"@openzeppelin/contracts@4.4.2/access/Ownable.sol\":1248:1271  owner() == _msgSender() */\n      0xffffffffffffffffffffffffffffffffffffffff\n      and\n      eq\n        /* \"@openzeppelin/contracts@4.4.2/access/Ownable.sol\":1240:1308  require(owner() == _msgSender(), \"Ownable: caller is not the owner\") */\n      tag_77\n      jumpi\n      mload(0x40)\n      0x08c379a000000000000000000000000000000000000000000000000000000000\n      dup2\n      mstore\n      0x04\n      add\n      tag_78\n      swap1\n      tag_52\n      jump\t// in\n    tag_78:\n      mload(0x40)\n      dup1\n      swap2\n      sub\n      swap1\n      revert\n    tag_77:\n        /* \"@openzeppelin/contracts@4.4.2/access/Ownable.sol\":1732:1762  _transferOwnership(address(0)) */\n      tag_80\n        /* \"@openzeppelin/contracts@4.4.2/access/Ownable.sol\":1759:1760  0 */\n      0x00\n        /* \"@openzeppelin/contracts@4.4.2/access/Ownable.sol\":1732:1750  _transferOwnership */\n      tag_81\n        /* \"@openzeppelin/contracts@4.4.2/access/Ownable.sol\":1732:1762  _transferOwnership(address(0)) */\n      jump\t// in\n    tag_80:\n        /* \"@openzeppelin/contracts@4.4.2/access/Ownable.sol\":1668:1769  function renounceOwnership() public virtual onlyOwner {... */\n      jump\t// out\n        /* \"@openzeppelin/contracts@4.4.2/access/Ownable.sol\":1036:1121  function owner() public view virtual returns (address) {... */\n    tag_27:\n        /* \"@openzeppelin/contracts@4.4.2/access/Ownable.sol\":1082:1089  address */\n      0x00\n        /* \"@openzeppelin/contracts@4.4.2/access/Ownable.sol\":1108:1114  _owner */\n      dup1\n      0x00\n      swap1\n      sload\n      swap1\n      0x0100\n      exp\n      swap1\n      div\n      0xffffffffffffffffffffffffffffffffffffffff\n      and\n        /* \"@openzeppelin/contracts@4.4.2/access/Ownable.sol\":1101:1114  return _owner */\n      swap1\n      pop\n        /* \"@openzeppelin/contracts@4.4.2/access/Ownable.sol\":1036:1121  function owner() public view virtual returns (address) {... */\n      swap1\n      jump\t// out\n        /* \"contracts/Founding Citizens NFT Sale Privileged Buyers List Storage.sol\":2433:2558  function addressExists(address address_) public view returns(bool) {\r... */\n    tag_32:\n        /* \"contracts/Founding Citizens NFT Sale Privileged Buyers List Storage.sol\":2494:2498  bool */\n      0x00\n        /* \"contracts/Founding Citizens NFT Sale Privileged Buyers List Storage.sol\":2548:2549  0 */\n      dup1\n        /* \"contracts/Founding Citizens NFT Sale Privileged Buyers List Storage.sol\":2519:2530  addressList */\n      0x01\n        /* \"contracts/Founding Citizens NFT Sale Privileged Buyers List Storage.sol\":2519:2534  addressList.ids */\n      0x02\n      add\n        /* \"contracts/Founding Citizens NFT Sale Privileged Buyers List Storage.sol\":2519:2544  addressList.ids[address_] */\n      0x00\n        /* \"contracts/Founding Citizens NFT Sale Privileged Buyers List Storage.sol\":2535:2543  address_ */\n      dup5\n        /* \"contracts/Founding Citizens NFT Sale Privileged Buyers List Storage.sol\":2519:2544  addressList.ids[address_] */\n      0xffffffffffffffffffffffffffffffffffffffff\n      and\n      0xffffffffffffffffffffffffffffffffffffffff\n      and\n      dup2\n      mstore\n      0x20\n      add\n      swap1\n      dup2\n      mstore\n      0x20\n      add\n      0x00\n      keccak256\n      sload\n        /* \"contracts/Founding Citizens NFT Sale Privileged Buyers List Storage.sol\":2519:2549  addressList.ids[address_] == 0 */\n      eq\n        /* \"contracts/Founding Citizens NFT Sale Privileged Buyers List Storage.sol\":2511:2550  return (addressList.ids[address_] == 0) */\n      swap1\n      pop\n        /* \"contracts/Founding Citizens NFT Sale Privileged Buyers List Storage.sol\":2433:2558  function addressExists(address address_) public view returns(bool) {\r... */\n      swap2\n      swap1\n      pop\n      jump\t// out\n        /* \"contracts/Founding Citizens NFT Sale Privileged Buyers List Storage.sol\":2394:2424  AddressList public addressList */\n    tag_36:\n      0x01\n      dup1\n      0x00\n      add\n      sload\n      swap1\n      pop\n      dup2\n      jump\t// out\n        /* \"@openzeppelin/contracts@4.4.2/access/Ownable.sol\":1918:2116  function transferOwnership(address newOwner) public virtual onlyOwner {... */\n    tag_41:\n        /* \"@openzeppelin/contracts@4.4.2/access/Ownable.sol\":1259:1271  _msgSender() */\n      tag_85\n        /* \"@openzeppelin/contracts@4.4.2/access/Ownable.sol\":1259:1269  _msgSender */\n      tag_48\n        /* \"@openzeppelin/contracts@4.4.2/access/Ownable.sol\":1259:1271  _msgSender() */\n      jump\t// in\n    tag_85:\n        /* \"@openzeppelin/contracts@4.4.2/access/Ownable.sol\":1248:1271  owner() == _msgSender() */\n      0xffffffffffffffffffffffffffffffffffffffff\n      and\n        /* \"@openzeppelin/contracts@4.4.2/access/Ownable.sol\":1248:1255  owner() */\n      tag_86\n        /* \"@openzeppelin/contracts@4.4.2/access/Ownable.sol\":1248:1253  owner */\n      tag_27\n        /* \"@openzeppelin/contracts@4.4.2/access/Ownable.sol\":1248:1255  owner() */\n      jump\t// in\n    tag_86:\n        /* \"@openzeppelin/contracts@4.4.2/access/Ownable.sol\":1248:1271  owner() == _msgSender() */\n      0xffffffffffffffffffffffffffffffffffffffff\n      and\n      eq\n        /* \"@openzeppelin/contracts@4.4.2/access/Ownable.sol\":1240:1308  require(owner() == _msgSender(), \"Ownable: caller is not the owner\") */\n      tag_87\n      jumpi\n      mload(0x40)\n      0x08c379a000000000000000000000000000000000000000000000000000000000\n      dup2\n      mstore\n      0x04\n      add\n      tag_88\n      swap1\n      tag_52\n      jump\t// in\n    tag_88:\n      mload(0x40)\n      dup1\n      swap2\n      sub\n      swap1\n      revert\n    tag_87:\n        /* \"@openzeppelin/contracts@4.4.2/access/Ownable.sol\":2026:2027  0 */\n      0x00\n        /* \"@openzeppelin/contracts@4.4.2/access/Ownable.sol\":2006:2028  newOwner != address(0) */\n      0xffffffffffffffffffffffffffffffffffffffff\n      and\n        /* \"@openzeppelin/contracts@4.4.2/access/Ownable.sol\":2006:2014  newOwner */\n      dup2\n        /* \"@openzeppelin/contracts@4.4.2/access/Ownable.sol\":2006:2028  newOwner != address(0) */\n      0xffffffffffffffffffffffffffffffffffffffff\n      and\n      eq\n      iszero\n        /* \"@openzeppelin/contracts@4.4.2/access/Ownable.sol\":1998:2071  require(newOwner != address(0), \"Ownable: new owner is the zero address\") */\n      tag_90\n      jumpi\n      mload(0x40)\n      0x08c379a000000000000000000000000000000000000000000000000000000000\n      dup2\n      mstore\n      0x04\n      add\n      tag_91\n      swap1\n      tag_92\n      jump\t// in\n    tag_91:\n      mload(0x40)\n      dup1\n      swap2\n      sub\n      swap1\n      revert\n    tag_90:\n        /* \"@openzeppelin/contracts@4.4.2/access/Ownable.sol\":2081:2109  _transferOwnership(newOwner) */\n      tag_93\n        /* \"@openzeppelin/contracts@4.4.2/access/Ownable.sol\":2100:2108  newOwner */\n      dup2\n        /* \"@openzeppelin/contracts@4.4.2/access/Ownable.sol\":2081:2099  _transferOwnership */\n      tag_81\n        /* \"@openzeppelin/contracts@4.4.2/access/Ownable.sol\":2081:2109  _transferOwnership(newOwner) */\n      jump\t// in\n    tag_93:\n        /* \"@openzeppelin/contracts@4.4.2/access/Ownable.sol\":1918:2116  function transferOwnership(address newOwner) public virtual onlyOwner {... */\n      pop\n      jump\t// out\n        /* \"contracts/Founding Citizens NFT Sale Privileged Buyers List Storage.sol\":2566:2726  function addressHasCoupon(address address_) public view returns(bool) {\r... */\n    tag_44:\n        /* \"contracts/Founding Citizens NFT Sale Privileged Buyers List Storage.sol\":2630:2634  bool */\n      0x00\n        /* \"contracts/Founding Citizens NFT Sale Privileged Buyers List Storage.sol\":2716:2717  0 */\n      dup1\n        /* \"contracts/Founding Citizens NFT Sale Privileged Buyers List Storage.sol\":2655:2666  addressList */\n      0x01\n        /* \"contracts/Founding Citizens NFT Sale Privileged Buyers List Storage.sol\":2655:2678  addressList.couponLists */\n      0x03\n      add\n        /* \"contracts/Founding Citizens NFT Sale Privileged Buyers List Storage.sol\":2655:2705  addressList.couponLists[addressList.ids[address_]] */\n      0x00\n        /* \"contracts/Founding Citizens NFT Sale Privileged Buyers List Storage.sol\":2679:2690  addressList */\n      0x01\n        /* \"contracts/Founding Citizens NFT Sale Privileged Buyers List Storage.sol\":2679:2694  addressList.ids */\n      0x02\n      add\n        /* \"contracts/Founding Citizens NFT Sale Privileged Buyers List Storage.sol\":2679:2704  addressList.ids[address_] */\n      0x00\n        /* \"contracts/Founding Citizens NFT Sale Privileged Buyers List Storage.sol\":2695:2703  address_ */\n      dup7\n        /* \"contracts/Founding Citizens NFT Sale Privileged Buyers List Storage.sol\":2679:2704  addressList.ids[address_] */\n      0xffffffffffffffffffffffffffffffffffffffff\n      and\n      0xffffffffffffffffffffffffffffffffffffffff\n      and\n      dup2\n      mstore\n      0x20\n      add\n      swap1\n      dup2\n      mstore\n      0x20\n      add\n      0x00\n      keccak256\n      sload\n        /* \"contracts/Founding Citizens NFT Sale Privileged Buyers List Storage.sol\":2655:2705  addressList.couponLists[addressList.ids[address_]] */\n      dup2\n      mstore\n      0x20\n      add\n      swap1\n      dup2\n      mstore\n      0x20\n      add\n      0x00\n      keccak256\n        /* \"contracts/Founding Citizens NFT Sale Privileged Buyers List Storage.sol\":2655:2712  addressList.couponLists[addressList.ids[address_]].length */\n      0x00\n      add\n      sload\n        /* \"contracts/Founding Citizens NFT Sale Privileged Buyers List Storage.sol\":2655:2717  addressList.couponLists[addressList.ids[address_]].length == 0 */\n      eq\n        /* \"contracts/Founding Citizens NFT Sale Privileged Buyers List Storage.sol\":2647:2718  return (addressList.couponLists[addressList.ids[address_]].length == 0) */\n      swap1\n      pop\n        /* \"contracts/Founding Citizens NFT Sale Privileged Buyers List Storage.sol\":2566:2726  function addressHasCoupon(address address_) public view returns(bool) {\r... */\n      swap2\n      swap1\n      pop\n      jump\t// out\n        /* \"@openzeppelin/contracts@4.4.2/utils/Context.sol\":640:736  function _msgSender() internal view virtual returns (address) {... */\n    tag_48:\n        /* \"@openzeppelin/contracts@4.4.2/utils/Context.sol\":693:700  address */\n      0x00\n        /* \"@openzeppelin/contracts@4.4.2/utils/Context.sol\":719:729  msg.sender */\n      caller\n        /* \"@openzeppelin/contracts@4.4.2/utils/Context.sol\":712:729  return msg.sender */\n      swap1\n      pop\n        /* \"@openzeppelin/contracts@4.4.2/utils/Context.sol\":640:736  function _msgSender() internal view virtual returns (address) {... */\n      swap1\n      jump\t// out\n        /* \"@openzeppelin/contracts@4.4.2/access/Ownable.sol\":2270:2457  function _transferOwnership(address newOwner) internal virtual {... */\n    tag_81:\n        /* \"@openzeppelin/contracts@4.4.2/access/Ownable.sol\":2343:2359  address oldOwner */\n      0x00\n        /* \"@openzeppelin/contracts@4.4.2/access/Ownable.sol\":2362:2368  _owner */\n      dup1\n      0x00\n      swap1\n      sload\n      swap1\n      0x0100\n      exp\n      swap1\n      div\n      0xffffffffffffffffffffffffffffffffffffffff\n      and\n        /* \"@openzeppelin/contracts@4.4.2/access/Ownable.sol\":2343:2368  address oldOwner = _owner */\n      swap1\n      pop\n        /* \"@openzeppelin/contracts@4.4.2/access/Ownable.sol\":2387:2395  newOwner */\n      dup2\n        /* \"@openzeppelin/contracts@4.4.2/access/Ownable.sol\":2378:2384  _owner */\n      0x00\n      dup1\n        /* \"@openzeppelin/contracts@4.4.2/access/Ownable.sol\":2378:2395  _owner = newOwner */\n      0x0100\n      exp\n      dup2\n      sload\n      dup2\n      0xffffffffffffffffffffffffffffffffffffffff\n      mul\n      not\n      and\n      swap1\n      dup4\n      0xffffffffffffffffffffffffffffffffffffffff\n      and\n      mul\n      or\n      swap1\n      sstore\n      pop\n        /* \"@openzeppelin/contracts@4.4.2/access/Ownable.sol\":2441:2449  newOwner */\n      dup2\n        /* \"@openzeppelin/contracts@4.4.2/access/Ownable.sol\":2410:2450  OwnershipTransferred(oldOwner, newOwner) */\n      0xffffffffffffffffffffffffffffffffffffffff\n      and\n        /* \"@openzeppelin/contracts@4.4.2/access/Ownable.sol\":2431:2439  oldOwner */\n      dup2\n        /* \"@openzeppelin/contracts@4.4.2/access/Ownable.sol\":2410:2450  OwnershipTransferred(oldOwner, newOwner) */\n      0xffffffffffffffffffffffffffffffffffffffff\n      and\n      0x8be0079c531659141344cd1fd0a4f28419497f9722a3daafe3b4186f6b6457e0\n      mload(0x40)\n      mload(0x40)\n      dup1\n      swap2\n      sub\n      swap1\n      log3\n        /* \"@openzeppelin/contracts@4.4.2/access/Ownable.sol\":2270:2457  function _transferOwnership(address newOwner) internal virtual {... */\n      pop\n      pop\n      jump\t// out\n        /* \"#utility.yul\":7:146   */\n    tag_98:\n      0x00\n        /* \"#utility.yul\":91:97   */\n      dup2\n        /* \"#utility.yul\":78:98   */\n      calldataload\n        /* \"#utility.yul\":69:98   */\n      swap1\n      pop\n        /* \"#utility.yul\":107:140   */\n      tag_100\n        /* \"#utility.yul\":134:139   */\n      dup2\n        /* \"#utility.yul\":107:140   */\n      tag_101\n      jump\t// in\n    tag_100:\n        /* \"#utility.yul\":59:146   */\n      swap3\n      swap2\n      pop\n      pop\n      jump\t// out\n        /* \"#utility.yul\":152:291   */\n    tag_102:\n      0x00\n        /* \"#utility.yul\":236:242   */\n      dup2\n        /* \"#utility.yul\":223:243   */\n      calldataload\n        /* \"#utility.yul\":214:243   */\n      swap1\n      pop\n        /* \"#utility.yul\":252:285   */\n      tag_104\n        /* \"#utility.yul\":279:284   */\n      dup2\n        /* \"#utility.yul\":252:285   */\n      tag_105\n      jump\t// in\n    tag_104:\n        /* \"#utility.yul\":204:291   */\n      swap3\n      swap2\n      pop\n      pop\n      jump\t// out\n        /* \"#utility.yul\":297:559   */\n    tag_15:\n      0x00\n        /* \"#utility.yul\":405:407   */\n      0x20\n        /* \"#utility.yul\":393:402   */\n      dup3\n        /* \"#utility.yul\":384:391   */\n      dup5\n        /* \"#utility.yul\":380:403   */\n      sub\n        /* \"#utility.yul\":376:408   */\n      slt\n        /* \"#utility.yul\":373:375   */\n      iszero\n      tag_107\n      jumpi\n        /* \"#utility.yul\":421:422   */\n      0x00\n        /* \"#utility.yul\":418:419   */\n      dup1\n        /* \"#utility.yul\":411:423   */\n      revert\n        /* \"#utility.yul\":373:375   */\n    tag_107:\n        /* \"#utility.yul\":464:465   */\n      0x00\n        /* \"#utility.yul\":489:542   */\n      tag_108\n        /* \"#utility.yul\":534:541   */\n      dup5\n        /* \"#utility.yul\":525:531   */\n      dup3\n        /* \"#utility.yul\":514:523   */\n      dup6\n        /* \"#utility.yul\":510:532   */\n      add\n        /* \"#utility.yul\":489:542   */\n      tag_98\n      jump\t// in\n    tag_108:\n        /* \"#utility.yul\":479:542   */\n      swap2\n      pop\n        /* \"#utility.yul\":435:552   */\n      pop\n        /* \"#utility.yul\":363:559   */\n      swap3\n      swap2\n      pop\n      pop\n      jump\t// out\n        /* \"#utility.yul\":565:1117   */\n    tag_19:\n      0x00\n      dup1\n      0x00\n        /* \"#utility.yul\":707:709   */\n      0x60\n        /* \"#utility.yul\":695:704   */\n      dup5\n        /* \"#utility.yul\":686:693   */\n      dup7\n        /* \"#utility.yul\":682:705   */\n      sub\n        /* \"#utility.yul\":678:710   */\n      slt\n        /* \"#utility.yul\":675:677   */\n      iszero\n      tag_110\n      jumpi\n        /* \"#utility.yul\":723:724   */\n      0x00\n        /* \"#utility.yul\":720:721   */\n      dup1\n        /* \"#utility.yul\":713:725   */\n      revert\n        /* \"#utility.yul\":675:677   */\n    tag_110:\n        /* \"#utility.yul\":766:767   */\n      0x00\n        /* \"#utility.yul\":791:844   */\n      tag_111\n        /* \"#utility.yul\":836:843   */\n      dup7\n        /* \"#utility.yul\":827:833   */\n      dup3\n        /* \"#utility.yul\":816:825   */\n      dup8\n        /* \"#utility.yul\":812:834   */\n      add\n        /* \"#utility.yul\":791:844   */\n      tag_98\n      jump\t// in\n    tag_111:\n        /* \"#utility.yul\":781:844   */\n      swap4\n      pop\n        /* \"#utility.yul\":737:854   */\n      pop\n        /* \"#utility.yul\":893:895   */\n      0x20\n        /* \"#utility.yul\":919:972   */\n      tag_112\n        /* \"#utility.yul\":964:971   */\n      dup7\n        /* \"#utility.yul\":955:961   */\n      dup3\n        /* \"#utility.yul\":944:953   */\n      dup8\n        /* \"#utility.yul\":940:962   */\n      add\n        /* \"#utility.yul\":919:972   */\n      tag_102\n      jump\t// in\n    tag_112:\n        /* \"#utility.yul\":909:972   */\n      swap3\n      pop\n        /* \"#utility.yul\":864:982   */\n      pop\n        /* \"#utility.yul\":1021:1023   */\n      0x40\n        /* \"#utility.yul\":1047:1100   */\n      tag_113\n        /* \"#utility.yul\":1092:1099   */\n      dup7\n        /* \"#utility.yul\":1083:1089   */\n      dup3\n        /* \"#utility.yul\":1072:1081   */\n      dup8\n        /* \"#utility.yul\":1068:1090   */\n      add\n        /* \"#utility.yul\":1047:1100   */\n      tag_102\n      jump\t// in\n    tag_113:\n        /* \"#utility.yul\":1037:1100   */\n      swap2\n      pop\n        /* \"#utility.yul\":992:1110   */\n      pop\n        /* \"#utility.yul\":665:1117   */\n      swap3\n      pop\n      swap3\n      pop\n      swap3\n      jump\t// out\n        /* \"#utility.yul\":1123:1241   */\n    tag_114:\n        /* \"#utility.yul\":1210:1234   */\n      tag_116\n        /* \"#utility.yul\":1228:1233   */\n      dup2\n        /* \"#utility.yul\":1210:1234   */\n      tag_117\n      jump\t// in\n    tag_116:\n        /* \"#utility.yul\":1205:1208   */\n      dup3\n        /* \"#utility.yul\":1198:1235   */\n      mstore\n        /* \"#utility.yul\":1188:1241   */\n      pop\n      pop\n      jump\t// out\n        /* \"#utility.yul\":1247:1356   */\n    tag_118:\n        /* \"#utility.yul\":1328:1349   */\n      tag_120\n        /* \"#utility.yul\":1343:1348   */\n      dup2\n        /* \"#utility.yul\":1328:1349   */\n      tag_121\n      jump\t// in\n    tag_120:\n        /* \"#utility.yul\":1323:1326   */\n      dup3\n        /* \"#utility.yul\":1316:1350   */\n      mstore\n        /* \"#utility.yul\":1306:1356   */\n      pop\n      pop\n      jump\t// out\n        /* \"#utility.yul\":1362:1728   */\n    tag_122:\n      0x00\n        /* \"#utility.yul\":1525:1592   */\n      tag_124\n        /* \"#utility.yul\":1589:1591   */\n      0x26\n        /* \"#utility.yul\":1584:1587   */\n      dup4\n        /* \"#utility.yul\":1525:1592   */\n      tag_125\n      jump\t// in\n    tag_124:\n        /* \"#utility.yul\":1518:1592   */\n      swap2\n      pop\n        /* \"#utility.yul\":1601:1694   */\n      tag_126\n        /* \"#utility.yul\":1690:1693   */\n      dup3\n        /* \"#utility.yul\":1601:1694   */\n      tag_127\n      jump\t// in\n    tag_126:\n        /* \"#utility.yul\":1719:1721   */\n      0x40\n        /* \"#utility.yul\":1714:1717   */\n      dup3\n        /* \"#utility.yul\":1710:1722   */\n      add\n        /* \"#utility.yul\":1703:1722   */\n      swap1\n      pop\n        /* \"#utility.yul\":1508:1728   */\n      swap2\n      swap1\n      pop\n      jump\t// out\n        /* \"#utility.yul\":1734:2100   */\n    tag_128:\n      0x00\n        /* \"#utility.yul\":1897:1964   */\n      tag_130\n        /* \"#utility.yul\":1961:1963   */\n      0x20\n        /* \"#utility.yul\":1956:1959   */\n      dup4\n        /* \"#utility.yul\":1897:1964   */\n      tag_125\n      jump\t// in\n    tag_130:\n        /* \"#utility.yul\":1890:1964   */\n      swap2\n      pop\n        /* \"#utility.yul\":1973:2066   */\n      tag_131\n        /* \"#utility.yul\":2062:2065   */\n      dup3\n        /* \"#utility.yul\":1973:2066   */\n      tag_132\n      jump\t// in\n    tag_131:\n        /* \"#utility.yul\":2091:2093   */\n      0x20\n        /* \"#utility.yul\":2086:2089   */\n      dup3\n        /* \"#utility.yul\":2082:2094   */\n      add\n        /* \"#utility.yul\":2075:2094   */\n      swap1\n      pop\n        /* \"#utility.yul\":1880:2100   */\n      swap2\n      swap1\n      pop\n      jump\t// out\n        /* \"#utility.yul\":2106:2224   */\n    tag_133:\n        /* \"#utility.yul\":2193:2217   */\n      tag_135\n        /* \"#utility.yul\":2211:2216   */\n      dup2\n        /* \"#utility.yul\":2193:2217   */\n      tag_136\n      jump\t// in\n    tag_135:\n        /* \"#utility.yul\":2188:2191   */\n      dup3\n        /* \"#utility.yul\":2181:2218   */\n      mstore\n        /* \"#utility.yul\":2171:2224   */\n      pop\n      pop\n      jump\t// out\n        /* \"#utility.yul\":2230:2452   */\n    tag_29:\n      0x00\n        /* \"#utility.yul\":2361:2363   */\n      0x20\n        /* \"#utility.yul\":2350:2359   */\n      dup3\n        /* \"#utility.yul\":2346:2364   */\n      add\n        /* \"#utility.yul\":2338:2364   */\n      swap1\n      pop\n        /* \"#utility.yul\":2374:2445   */\n      tag_138\n        /* \"#utility.yul\":2442:2443   */\n      0x00\n        /* \"#utility.yul\":2431:2440   */\n      dup4\n        /* \"#utility.yul\":2427:2444   */\n      add\n        /* \"#utility.yul\":2418:2424   */\n      dup5\n        /* \"#utility.yul\":2374:2445   */\n      tag_114\n      jump\t// in\n    tag_138:\n        /* \"#utility.yul\":2328:2452   */\n      swap3\n      swap2\n      pop\n      pop\n      jump\t// out\n        /* \"#utility.yul\":2458:2668   */\n    tag_34:\n      0x00\n        /* \"#utility.yul\":2583:2585   */\n      0x20\n        /* \"#utility.yul\":2572:2581   */\n      dup3\n        /* \"#utility.yul\":2568:2586   */\n      add\n        /* \"#utility.yul\":2560:2586   */\n      swap1\n      pop\n        /* \"#utility.yul\":2596:2661   */\n      tag_140\n        /* \"#utility.yul\":2658:2659   */\n      0x00\n        /* \"#utility.yul\":2647:2656   */\n      dup4\n        /* \"#utility.yul\":2643:2660   */\n      add\n        /* \"#utility.yul\":2634:2640   */\n      dup5\n        /* \"#utility.yul\":2596:2661   */\n      tag_118\n      jump\t// in\n    tag_140:\n        /* \"#utility.yul\":2550:2668   */\n      swap3\n      swap2\n      pop\n      pop\n      jump\t// out\n        /* \"#utility.yul\":2674:3093   */\n    tag_92:\n      0x00\n        /* \"#utility.yul\":2878:2880   */\n      0x20\n        /* \"#utility.yul\":2867:2876   */\n      dup3\n        /* \"#utility.yul\":2863:2881   */\n      add\n        /* \"#utility.yul\":2855:2881   */\n      swap1\n      pop\n        /* \"#utility.yul\":2927:2936   */\n      dup2\n        /* \"#utility.yul\":2921:2925   */\n      dup2\n        /* \"#utility.yul\":2917:2937   */\n      sub\n        /* \"#utility.yul\":2913:2914   */\n      0x00\n        /* \"#utility.yul\":2902:2911   */\n      dup4\n        /* \"#utility.yul\":2898:2915   */\n      add\n        /* \"#utility.yul\":2891:2938   */\n      mstore\n        /* \"#utility.yul\":2955:3086   */\n      tag_142\n        /* \"#utility.yul\":3081:3085   */\n      dup2\n        /* \"#utility.yul\":2955:3086   */\n      tag_122\n      jump\t// in\n    tag_142:\n        /* \"#utility.yul\":2947:3086   */\n      swap1\n      pop\n        /* \"#utility.yul\":2845:3093   */\n      swap2\n      swap1\n      pop\n      jump\t// out\n        /* \"#utility.yul\":3099:3518   */\n    tag_52:\n      0x00\n        /* \"#utility.yul\":3303:3305   */\n      0x20\n        /* \"#utility.yul\":3292:3301   */\n      dup3\n        /* \"#utility.yul\":3288:3306   */\n      add\n        /* \"#utility.yul\":3280:3306   */\n      swap1\n      pop\n        /* \"#utility.yul\":3352:3361   */\n      dup2\n        /* \"#utility.yul\":3346:3350   */\n      dup2\n        /* \"#utility.yul\":3342:3362   */\n      sub\n        /* \"#utility.yul\":3338:3339   */\n      0x00\n        /* \"#utility.yul\":3327:3336   */\n      dup4\n        /* \"#utility.yul\":3323:3340   */\n      add\n        /* \"#utility.yul\":3316:3363   */\n      mstore\n        /* \"#utility.yul\":3380:3511   */\n      tag_144\n        /* \"#utility.yul\":3506:3510   */\n      dup2\n        /* \"#utility.yul\":3380:3511   */\n      tag_128\n      jump\t// in\n    tag_144:\n        /* \"#utility.yul\":3372:3511   */\n      swap1\n      pop\n        /* \"#utility.yul\":3270:3518   */\n      swap2\n      swap1\n      pop\n      jump\t// out\n        /* \"#utility.yul\":3524:3746   */\n    tag_38:\n      0x00\n        /* \"#utility.yul\":3655:3657   */\n      0x20\n        /* \"#utility.yul\":3644:3653   */\n      dup3\n        /* \"#utility.yul\":3640:3658   */\n      add\n        /* \"#utility.yul\":3632:3658   */\n      swap1\n      pop\n        /* \"#utility.yul\":3668:3739   */\n      tag_146\n        /* \"#utility.yul\":3736:3737   */\n      0x00\n        /* \"#utility.yul\":3725:3734   */\n      dup4\n        /* \"#utility.yul\":3721:3738   */\n      add\n        /* \"#utility.yul\":3712:3718   */\n      dup5\n        /* \"#utility.yul\":3668:3739   */\n      tag_133\n      jump\t// in\n    tag_146:\n        /* \"#utility.yul\":3622:3746   */\n      swap3\n      swap2\n      pop\n      pop\n      jump\t// out\n        /* \"#utility.yul\":3752:3921   */\n    tag_125:\n      0x00\n        /* \"#utility.yul\":3870:3876   */\n      dup3\n        /* \"#utility.yul\":3865:3868   */\n      dup3\n        /* \"#utility.yul\":3858:3877   */\n      mstore\n        /* \"#utility.yul\":3910:3914   */\n      0x20\n        /* \"#utility.yul\":3905:3908   */\n      dup3\n        /* \"#utility.yul\":3901:3915   */\n      add\n        /* \"#utility.yul\":3886:3915   */\n      swap1\n      pop\n        /* \"#utility.yul\":3848:3921   */\n      swap3\n      swap2\n      pop\n      pop\n      jump\t// out\n        /* \"#utility.yul\":3927:4023   */\n    tag_117:\n      0x00\n        /* \"#utility.yul\":3993:4017   */\n      tag_149\n        /* \"#utility.yul\":4011:4016   */\n      dup3\n        /* \"#utility.yul\":3993:4017   */\n      tag_150\n      jump\t// in\n    tag_149:\n        /* \"#utility.yul\":3982:4017   */\n      swap1\n      pop\n        /* \"#utility.yul\":3972:4023   */\n      swap2\n      swap1\n      pop\n      jump\t// out\n        /* \"#utility.yul\":4029:4119   */\n    tag_121:\n      0x00\n        /* \"#utility.yul\":4106:4111   */\n      dup2\n        /* \"#utility.yul\":4099:4112   */\n      iszero\n        /* \"#utility.yul\":4092:4113   */\n      iszero\n        /* \"#utility.yul\":4081:4113   */\n      swap1\n      pop\n        /* \"#utility.yul\":4071:4119   */\n      swap2\n      swap1\n      pop\n      jump\t// out\n        /* \"#utility.yul\":4125:4251   */\n    tag_150:\n      0x00\n        /* \"#utility.yul\":4202:4244   */\n      0xffffffffffffffffffffffffffffffffffffffff\n        /* \"#utility.yul\":4195:4200   */\n      dup3\n        /* \"#utility.yul\":4191:4245   */\n      and\n        /* \"#utility.yul\":4180:4245   */\n      swap1\n      pop\n        /* \"#utility.yul\":4170:4251   */\n      swap2\n      swap1\n      pop\n      jump\t// out\n        /* \"#utility.yul\":4257:4334   */\n    tag_136:\n      0x00\n        /* \"#utility.yul\":4323:4328   */\n      dup2\n        /* \"#utility.yul\":4312:4328   */\n      swap1\n      pop\n        /* \"#utility.yul\":4302:4334   */\n      swap2\n      swap1\n      pop\n      jump\t// out\n        /* \"#utility.yul\":4340:4511   */\n    tag_73:\n      0x00\n        /* \"#utility.yul\":4402:4426   */\n      tag_155\n        /* \"#utility.yul\":4420:4425   */\n      dup3\n        /* \"#utility.yul\":4402:4426   */\n      tag_136\n      jump\t// in\n    tag_155:\n        /* \"#utility.yul\":4393:4426   */\n      swap2\n      pop\n        /* \"#utility.yul\":4448:4452   */\n      0x00\n        /* \"#utility.yul\":4441:4446   */\n      dup3\n        /* \"#utility.yul\":4438:4453   */\n      eq\n        /* \"#utility.yul\":4435:4437   */\n      iszero\n      tag_156\n      jumpi\n        /* \"#utility.yul\":4456:4474   */\n      tag_157\n      tag_158\n      jump\t// in\n    tag_157:\n        /* \"#utility.yul\":4435:4437   */\n    tag_156:\n        /* \"#utility.yul\":4503:4504   */\n      0x01\n        /* \"#utility.yul\":4496:4501   */\n      dup3\n        /* \"#utility.yul\":4492:4505   */\n      sub\n        /* \"#utility.yul\":4485:4505   */\n      swap1\n      pop\n        /* \"#utility.yul\":4383:4511   */\n      swap2\n      swap1\n      pop\n      jump\t// out\n        /* \"#utility.yul\":4517:4750   */\n    tag_55:\n      0x00\n        /* \"#utility.yul\":4579:4603   */\n      tag_160\n        /* \"#utility.yul\":4597:4602   */\n      dup3\n        /* \"#utility.yul\":4579:4603   */\n      tag_136\n      jump\t// in\n    tag_160:\n        /* \"#utility.yul\":4570:4603   */\n      swap2\n      pop\n        /* \"#utility.yul\":4625:4691   */\n      0xffffffffffffffffffffffffffffffffffffffffffffffffffffffffffffffff\n        /* \"#utility.yul\":4618:4623   */\n      dup3\n        /* \"#utility.yul\":4615:4692   */\n      eq\n        /* \"#utility.yul\":4612:4614   */\n      iszero\n      tag_161\n      jumpi\n        /* \"#utility.yul\":4695:4713   */\n      tag_162\n      tag_158\n      jump\t// in\n    tag_162:\n        /* \"#utility.yul\":4612:4614   */\n    tag_161:\n        /* \"#utility.yul\":4742:4743   */\n      0x01\n        /* \"#utility.yul\":4735:4740   */\n      dup3\n        /* \"#utility.yul\":4731:4744   */\n      add\n        /* \"#utility.yul\":4724:4744   */\n      swap1\n      pop\n        /* \"#utility.yul\":4560:4750   */\n      swap2\n      swap1\n      pop\n      jump\t// out\n        /* \"#utility.yul\":4756:4936   */\n    tag_158:\n        /* \"#utility.yul\":4804:4881   */\n      0x4e487b7100000000000000000000000000000000000000000000000000000000\n        /* \"#utility.yul\":4801:4802   */\n      0x00\n        /* \"#utility.yul\":4794:4882   */\n      mstore\n        /* \"#utility.yul\":4901:4905   */\n      0x11\n        /* \"#utility.yul\":4898:4899   */\n      0x04\n        /* \"#utility.yul\":4891:4906   */\n      mstore\n        /* \"#utility.yul\":4925:4929   */\n      0x24\n        /* \"#utility.yul\":4922:4923   */\n      0x00\n        /* \"#utility.yul\":4915:4930   */\n      revert\n        /* \"#utility.yul\":4942:5167   */\n    tag_127:\n        /* \"#utility.yul\":5082:5116   */\n      0x4f776e61626c653a206e6577206f776e657220697320746865207a65726f2061\n        /* \"#utility.yul\":5078:5079   */\n      0x00\n        /* \"#utility.yul\":5070:5076   */\n      dup3\n        /* \"#utility.yul\":5066:5080   */\n      add\n        /* \"#utility.yul\":5059:5117   */\n      mstore\n        /* \"#utility.yul\":5151:5159   */\n      0x6464726573730000000000000000000000000000000000000000000000000000\n        /* \"#utility.yul\":5146:5148   */\n      0x20\n        /* \"#utility.yul\":5138:5144   */\n      dup3\n        /* \"#utility.yul\":5134:5149   */\n      add\n        /* \"#utility.yul\":5127:5160   */\n      mstore\n        /* \"#utility.yul\":5048:5167   */\n      pop\n      jump\t// out\n        /* \"#utility.yul\":5173:5355   */\n    tag_132:\n        /* \"#utility.yul\":5313:5347   */\n      0x4f776e61626c653a2063616c6c6572206973206e6f7420746865206f776e6572\n        /* \"#utility.yul\":5309:5310   */\n      0x00\n        /* \"#utility.yul\":5301:5307   */\n      dup3\n        /* \"#utility.yul\":5297:5311   */\n      add\n        /* \"#utility.yul\":5290:5348   */\n      mstore\n        /* \"#utility.yul\":5279:5355   */\n      pop\n      jump\t// out\n        /* \"#utility.yul\":5361:5483   */\n    tag_101:\n        /* \"#utility.yul\":5434:5458   */\n      tag_167\n        /* \"#utility.yul\":5452:5457   */\n      dup2\n        /* \"#utility.yul\":5434:5458   */\n      tag_117\n      jump\t// in\n    tag_167:\n        /* \"#utility.yul\":5427:5432   */\n      dup2\n        /* \"#utility.yul\":5424:5459   */\n      eq\n        /* \"#utility.yul\":5414:5416   */\n      tag_168\n      jumpi\n        /* \"#utility.yul\":5473:5474   */\n      0x00\n        /* \"#utility.yul\":5470:5471   */\n      dup1\n        /* \"#utility.yul\":5463:5475   */\n      revert\n        /* \"#utility.yul\":5414:5416   */\n    tag_168:\n        /* \"#utility.yul\":5404:5483   */\n      pop\n      jump\t// out\n        /* \"#utility.yul\":5489:5611   */\n    tag_105:\n        /* \"#utility.yul\":5562:5586   */\n      tag_170\n        /* \"#utility.yul\":5580:5585   */\n      dup2\n        /* \"#utility.yul\":5562:5586   */\n      tag_136\n      jump\t// in\n    tag_170:\n        /* \"#utility.yul\":5555:5560   */\n      dup2\n        /* \"#utility.yul\":5552:5587   */\n      eq\n        /* \"#utility.yul\":5542:5544   */\n      tag_171\n      jumpi\n        /* \"#utility.yul\":5601:5602   */\n      0x00\n        /* \"#utility.yul\":5598:5599   */\n      dup1\n        /* \"#utility.yul\":5591:5603   */\n      revert\n        /* \"#utility.yul\":5542:5544   */\n    tag_171:\n        /* \"#utility.yul\":5532:5611   */\n      pop\n      jump\t// out\n\n    auxdata: 0xa264697066735822122084bab8c8b2f41fbba59af7bf075f991095318ae8c81ed686303c95232f2b65e164736f6c63430008010033\n}\n",
				"bytecode": {
					"linkReferences": {},
					"object": "608060405234801561001057600080fd5b5061002d61002261003260201b60201c565b61003a60201b60201c565b6100fe565b600033905090565b60008060009054906101000a900473ffffffffffffffffffffffffffffffffffffffff169050816000806101000a81548173ffffffffffffffffffffffffffffffffffffffff021916908373ffffffffffffffffffffffffffffffffffffffff1602179055508173ffffffffffffffffffffffffffffffffffffffff168173ffffffffffffffffffffffffffffffffffffffff167f8be0079c531659141344cd1fd0a4f28419497f9722a3daafe3b4186f6b6457e060405160405180910390a35050565b610eb58061010d6000396000f3fe608060405234801561001057600080fd5b50600436106100935760003560e01c80638da5cb5b116100665780638da5cb5b146100f6578063a502522214610114578063c1eb6dfd14610144578063f2fde38b14610162578063f76da2a81461017e57610093565b806338eada1c146100985780633edfcd2c146100b45780634ba79dfe146100d0578063715018a6146100ec575b600080fd5b6100b260048036038101906100ad9190610b62565b6101ae565b005b6100ce60048036038101906100c99190610b8b565b6102ed565b005b6100ea60048036038101906100e59190610b62565b61053f565b005b6100f4610802565b005b6100fe61088a565b60405161010b9190610c4d565b60405180910390f35b61012e60048036038101906101299190610b62565b6108b3565b60405161013b9190610c68565b60405180910390f35b61014c610901565b6040516101599190610cc3565b60405180910390f35b61017c60048036038101906101779190610b62565b61090d565b005b61019860048036038101906101939190610b62565b610a05565b6040516101a59190610c68565b60405180910390f35b6101b6610a6c565b73ffffffffffffffffffffffffffffffffffffffff166101d461088a565b73ffffffffffffffffffffffffffffffffffffffff161461022a576040517f08c379a000000000000000000000000000000000000000000000000000000000815260040161022190610ca3565b60405180910390fd5b6001600001600081548092919061024090610d61565b919050555080600180016000600160000154815260200190815260200160002060006101000a81548173ffffffffffffffffffffffffffffffffffffffff021916908373ffffffffffffffffffffffffffffffffffffffff160217905550600160000154600160020160008373ffffffffffffffffffffffffffffffffffffffff1673ffffffffffffffffffffffffffffffffffffffff1681526020019081526020016000208190555050565b6102f5610a6c565b73ffffffffffffffffffffffffffffffffffffffff1661031361088a565b73ffffffffffffffffffffffffffffffffffffffff1614610369576040517f08c379a000000000000000000000000000000000000000000000000000000000815260040161036090610ca3565b60405180910390fd5b610372836108b3565b6103805761037f836101ae565b5b60016003016000600160020160008673ffffffffffffffffffffffffffffffffffffffff1673ffffffffffffffffffffffffffffffffffffffff16815260200190815260200160002054815260200190815260200160002060000160008154809291906103ec90610d61565b9190505550600060016003016000600160020160008773ffffffffffffffffffffffffffffffffffffffff1673ffffffffffffffffffffffffffffffffffffffff1681526020019081526020016000205481526020019081526020016000206000015490508260016003016000600160020160008873ffffffffffffffffffffffffffffffffffffffff1673ffffffffffffffffffffffffffffffffffffffff1681526020019081526020016000205481526020019081526020016000206001016000838152602001908152602001600020600001819055508160016003016000600160020160008873ffffffffffffffffffffffffffffffffffffffff1673ffffffffffffffffffffffffffffffffffffffff16815260200190815260200160002054815260200190815260200160002060010160008381526020019081526020016000206001018190555050505050565b610547610a6c565b73ffffffffffffffffffffffffffffffffffffffff1661056561088a565b73ffffffffffffffffffffffffffffffffffffffff16146105bb576040517f08c379a00000000000000000000000000000000000000000000000000000000081526004016105b290610ca3565b60405180910390fd5b6000600160020160008373ffffffffffffffffffffffffffffffffffffffff1673ffffffffffffffffffffffffffffffffffffffff1681526020019081526020016000205490506000829050600060016000015490506000600180016000600160000154815260200190815260200160002060009054906101000a900473ffffffffffffffffffffffffffffffffffffffff16905060018001600083815260200190815260200160002060009054906101000a900473ffffffffffffffffffffffffffffffffffffffff1660018001600086815260200190815260200160002060006101000a81548173ffffffffffffffffffffffffffffffffffffffff021916908373ffffffffffffffffffffffffffffffffffffffff16021790555060018001600083815260200190815260200160002060006101000a81549073ffffffffffffffffffffffffffffffffffffffff0219169055600160020160008273ffffffffffffffffffffffffffffffffffffffff1673ffffffffffffffffffffffffffffffffffffffff16815260200190815260200160002054600160020160008573ffffffffffffffffffffffffffffffffffffffff1673ffffffffffffffffffffffffffffffffffffffff16815260200190815260200160002081905550600160020160008273ffffffffffffffffffffffffffffffffffffffff1673ffffffffffffffffffffffffffffffffffffffff16815260200190815260200160002060009055600160000160008154809291906107f690610d37565b91905055505050505050565b61080a610a6c565b73ffffffffffffffffffffffffffffffffffffffff1661082861088a565b73ffffffffffffffffffffffffffffffffffffffff161461087e576040517f08c379a000000000000000000000000000000000000000000000000000000000815260040161087590610ca3565b60405180910390fd5b6108886000610a74565b565b60008060009054906101000a900473ffffffffffffffffffffffffffffffffffffffff16905090565b600080600160020160008473ffffffffffffffffffffffffffffffffffffffff1673ffffffffffffffffffffffffffffffffffffffff16815260200190815260200160002054149050919050565b60018060000154905081565b610915610a6c565b73ffffffffffffffffffffffffffffffffffffffff1661093361088a565b73ffffffffffffffffffffffffffffffffffffffff1614610989576040517f08c379a000000000000000000000000000000000000000000000000000000000815260040161098090610ca3565b60405180910390fd5b600073ffffffffffffffffffffffffffffffffffffffff168173ffffffffffffffffffffffffffffffffffffffff1614156109f9576040517f08c379a00000000000000000000000000000000000000000000000000000000081526004016109f090610c83565b60405180910390fd5b610a0281610a74565b50565b60008060016003016000600160020160008673ffffffffffffffffffffffffffffffffffffffff1673ffffffffffffffffffffffffffffffffffffffff16815260200190815260200160002054815260200190815260200160002060000154149050919050565b600033905090565b60008060009054906101000a900473ffffffffffffffffffffffffffffffffffffffff169050816000806101000a81548173ffffffffffffffffffffffffffffffffffffffff021916908373ffffffffffffffffffffffffffffffffffffffff1602179055508173ffffffffffffffffffffffffffffffffffffffff168173ffffffffffffffffffffffffffffffffffffffff167f8be0079c531659141344cd1fd0a4f28419497f9722a3daafe3b4186f6b6457e060405160405180910390a35050565b600081359050610b4781610e51565b92915050565b600081359050610b5c81610e68565b92915050565b600060208284031215610b7457600080fd5b6000610b8284828501610b38565b91505092915050565b600080600060608486031215610ba057600080fd5b6000610bae86828701610b38565b9350506020610bbf86828701610b4d565b9250506040610bd086828701610b4d565b9150509250925092565b610be381610cef565b82525050565b610bf281610d01565b82525050565b6000610c05602683610cde565b9150610c1082610dd9565b604082019050919050565b6000610c28602083610cde565b9150610c3382610e28565b602082019050919050565b610c4781610d2d565b82525050565b6000602082019050610c626000830184610bda565b92915050565b6000602082019050610c7d6000830184610be9565b92915050565b60006020820190508181036000830152610c9c81610bf8565b9050919050565b60006020820190508181036000830152610cbc81610c1b565b9050919050565b6000602082019050610cd86000830184610c3e565b92915050565b600082825260208201905092915050565b6000610cfa82610d0d565b9050919050565b60008115159050919050565b600073ffffffffffffffffffffffffffffffffffffffff82169050919050565b6000819050919050565b6000610d4282610d2d565b91506000821415610d5657610d55610daa565b5b600182039050919050565b6000610d6c82610d2d565b91507fffffffffffffffffffffffffffffffffffffffffffffffffffffffffffffffff821415610d9f57610d9e610daa565b5b600182019050919050565b7f4e487b7100000000000000000000000000000000000000000000000000000000600052601160045260246000fd5b7f4f776e61626c653a206e6577206f776e657220697320746865207a65726f206160008201527f6464726573730000000000000000000000000000000000000000000000000000602082015250565b7f4f776e61626c653a2063616c6c6572206973206e6f7420746865206f776e6572600082015250565b610e5a81610cef565b8114610e6557600080fd5b50565b610e7181610d2d565b8114610e7c57600080fd5b5056fea264697066735822122084bab8c8b2f41fbba59af7bf075f991095318ae8c81ed686303c95232f2b65e164736f6c63430008010033",
					"opcodes": "PUSH1 0x80 PUSH1 0x40 MSTORE CALLVALUE DUP1 ISZERO PUSH2 0x10 JUMPI PUSH1 0x0 DUP1 REVERT JUMPDEST POP PUSH2 0x2D PUSH2 0x22 PUSH2 0x32 PUSH1 0x20 SHL PUSH1 0x20 SHR JUMP JUMPDEST PUSH2 0x3A PUSH1 0x20 SHL PUSH1 0x20 SHR JUMP JUMPDEST PUSH2 0xFE JUMP JUMPDEST PUSH1 0x0 CALLER SWAP1 POP SWAP1 JUMP JUMPDEST PUSH1 0x0 DUP1 PUSH1 0x0 SWAP1 SLOAD SWAP1 PUSH2 0x100 EXP SWAP1 DIV PUSH20 0xFFFFFFFFFFFFFFFFFFFFFFFFFFFFFFFFFFFFFFFF AND SWAP1 POP DUP2 PUSH1 0x0 DUP1 PUSH2 0x100 EXP DUP2 SLOAD DUP2 PUSH20 0xFFFFFFFFFFFFFFFFFFFFFFFFFFFFFFFFFFFFFFFF MUL NOT AND SWAP1 DUP4 PUSH20 0xFFFFFFFFFFFFFFFFFFFFFFFFFFFFFFFFFFFFFFFF AND MUL OR SWAP1 SSTORE POP DUP2 PUSH20 0xFFFFFFFFFFFFFFFFFFFFFFFFFFFFFFFFFFFFFFFF AND DUP2 PUSH20 0xFFFFFFFFFFFFFFFFFFFFFFFFFFFFFFFFFFFFFFFF AND PUSH32 0x8BE0079C531659141344CD1FD0A4F28419497F9722A3DAAFE3B4186F6B6457E0 PUSH1 0x40 MLOAD PUSH1 0x40 MLOAD DUP1 SWAP2 SUB SWAP1 LOG3 POP POP JUMP JUMPDEST PUSH2 0xEB5 DUP1 PUSH2 0x10D PUSH1 0x0 CODECOPY PUSH1 0x0 RETURN INVALID PUSH1 0x80 PUSH1 0x40 MSTORE CALLVALUE DUP1 ISZERO PUSH2 0x10 JUMPI PUSH1 0x0 DUP1 REVERT JUMPDEST POP PUSH1 0x4 CALLDATASIZE LT PUSH2 0x93 JUMPI PUSH1 0x0 CALLDATALOAD PUSH1 0xE0 SHR DUP1 PUSH4 0x8DA5CB5B GT PUSH2 0x66 JUMPI DUP1 PUSH4 0x8DA5CB5B EQ PUSH2 0xF6 JUMPI DUP1 PUSH4 0xA5025222 EQ PUSH2 0x114 JUMPI DUP1 PUSH4 0xC1EB6DFD EQ PUSH2 0x144 JUMPI DUP1 PUSH4 0xF2FDE38B EQ PUSH2 0x162 JUMPI DUP1 PUSH4 0xF76DA2A8 EQ PUSH2 0x17E JUMPI PUSH2 0x93 JUMP JUMPDEST DUP1 PUSH4 0x38EADA1C EQ PUSH2 0x98 JUMPI DUP1 PUSH4 0x3EDFCD2C EQ PUSH2 0xB4 JUMPI DUP1 PUSH4 0x4BA79DFE EQ PUSH2 0xD0 JUMPI DUP1 PUSH4 0x715018A6 EQ PUSH2 0xEC JUMPI JUMPDEST PUSH1 0x0 DUP1 REVERT JUMPDEST PUSH2 0xB2 PUSH1 0x4 DUP1 CALLDATASIZE SUB DUP2 ADD SWAP1 PUSH2 0xAD SWAP2 SWAP1 PUSH2 0xB62 JUMP JUMPDEST PUSH2 0x1AE JUMP JUMPDEST STOP JUMPDEST PUSH2 0xCE PUSH1 0x4 DUP1 CALLDATASIZE SUB DUP2 ADD SWAP1 PUSH2 0xC9 SWAP2 SWAP1 PUSH2 0xB8B JUMP JUMPDEST PUSH2 0x2ED JUMP JUMPDEST STOP JUMPDEST PUSH2 0xEA PUSH1 0x4 DUP1 CALLDATASIZE SUB DUP2 ADD SWAP1 PUSH2 0xE5 SWAP2 SWAP1 PUSH2 0xB62 JUMP JUMPDEST PUSH2 0x53F JUMP JUMPDEST STOP JUMPDEST PUSH2 0xF4 PUSH2 0x802 JUMP JUMPDEST STOP JUMPDEST PUSH2 0xFE PUSH2 0x88A JUMP JUMPDEST PUSH1 0x40 MLOAD PUSH2 0x10B SWAP2 SWAP1 PUSH2 0xC4D JUMP JUMPDEST PUSH1 0x40 MLOAD DUP1 SWAP2 SUB SWAP1 RETURN JUMPDEST PUSH2 0x12E PUSH1 0x4 DUP1 CALLDATASIZE SUB DUP2 ADD SWAP1 PUSH2 0x129 SWAP2 SWAP1 PUSH2 0xB62 JUMP JUMPDEST PUSH2 0x8B3 JUMP JUMPDEST PUSH1 0x40 MLOAD PUSH2 0x13B SWAP2 SWAP1 PUSH2 0xC68 JUMP JUMPDEST PUSH1 0x40 MLOAD DUP1 SWAP2 SUB SWAP1 RETURN JUMPDEST PUSH2 0x14C PUSH2 0x901 JUMP JUMPDEST PUSH1 0x40 MLOAD PUSH2 0x159 SWAP2 SWAP1 PUSH2 0xCC3 JUMP JUMPDEST PUSH1 0x40 MLOAD DUP1 SWAP2 SUB SWAP1 RETURN JUMPDEST PUSH2 0x17C PUSH1 0x4 DUP1 CALLDATASIZE SUB DUP2 ADD SWAP1 PUSH2 0x177 SWAP2 SWAP1 PUSH2 0xB62 JUMP JUMPDEST PUSH2 0x90D JUMP JUMPDEST STOP JUMPDEST PUSH2 0x198 PUSH1 0x4 DUP1 CALLDATASIZE SUB DUP2 ADD SWAP1 PUSH2 0x193 SWAP2 SWAP1 PUSH2 0xB62 JUMP JUMPDEST PUSH2 0xA05 JUMP JUMPDEST PUSH1 0x40 MLOAD PUSH2 0x1A5 SWAP2 SWAP1 PUSH2 0xC68 JUMP JUMPDEST PUSH1 0x40 MLOAD DUP1 SWAP2 SUB SWAP1 RETURN JUMPDEST PUSH2 0x1B6 PUSH2 0xA6C JUMP JUMPDEST PUSH20 0xFFFFFFFFFFFFFFFFFFFFFFFFFFFFFFFFFFFFFFFF AND PUSH2 0x1D4 PUSH2 0x88A JUMP JUMPDEST PUSH20 0xFFFFFFFFFFFFFFFFFFFFFFFFFFFFFFFFFFFFFFFF AND EQ PUSH2 0x22A JUMPI PUSH1 0x40 MLOAD PUSH32 0x8C379A000000000000000000000000000000000000000000000000000000000 DUP2 MSTORE PUSH1 0x4 ADD PUSH2 0x221 SWAP1 PUSH2 0xCA3 JUMP JUMPDEST PUSH1 0x40 MLOAD DUP1 SWAP2 SUB SWAP1 REVERT JUMPDEST PUSH1 0x1 PUSH1 0x0 ADD PUSH1 0x0 DUP2 SLOAD DUP1 SWAP3 SWAP2 SWAP1 PUSH2 0x240 SWAP1 PUSH2 0xD61 JUMP JUMPDEST SWAP2 SWAP1 POP SSTORE POP DUP1 PUSH1 0x1 DUP1 ADD PUSH1 0x0 PUSH1 0x1 PUSH1 0x0 ADD SLOAD DUP2 MSTORE PUSH1 0x20 ADD SWAP1 DUP2 MSTORE PUSH1 0x20 ADD PUSH1 0x0 KECCAK256 PUSH1 0x0 PUSH2 0x100 EXP DUP2 SLOAD DUP2 PUSH20 0xFFFFFFFFFFFFFFFFFFFFFFFFFFFFFFFFFFFFFFFF MUL NOT AND SWAP1 DUP4 PUSH20 0xFFFFFFFFFFFFFFFFFFFFFFFFFFFFFFFFFFFFFFFF AND MUL OR SWAP1 SSTORE POP PUSH1 0x1 PUSH1 0x0 ADD SLOAD PUSH1 0x1 PUSH1 0x2 ADD PUSH1 0x0 DUP4 PUSH20 0xFFFFFFFFFFFFFFFFFFFFFFFFFFFFFFFFFFFFFFFF AND PUSH20 0xFFFFFFFFFFFFFFFFFFFFFFFFFFFFFFFFFFFFFFFF AND DUP2 MSTORE PUSH1 0x20 ADD SWAP1 DUP2 MSTORE PUSH1 0x20 ADD PUSH1 0x0 KECCAK256 DUP2 SWAP1 SSTORE POP POP JUMP JUMPDEST PUSH2 0x2F5 PUSH2 0xA6C JUMP JUMPDEST PUSH20 0xFFFFFFFFFFFFFFFFFFFFFFFFFFFFFFFFFFFFFFFF AND PUSH2 0x313 PUSH2 0x88A JUMP JUMPDEST PUSH20 0xFFFFFFFFFFFFFFFFFFFFFFFFFFFFFFFFFFFFFFFF AND EQ PUSH2 0x369 JUMPI PUSH1 0x40 MLOAD PUSH32 0x8C379A000000000000000000000000000000000000000000000000000000000 DUP2 MSTORE PUSH1 0x4 ADD PUSH2 0x360 SWAP1 PUSH2 0xCA3 JUMP JUMPDEST PUSH1 0x40 MLOAD DUP1 SWAP2 SUB SWAP1 REVERT JUMPDEST PUSH2 0x372 DUP4 PUSH2 0x8B3 JUMP JUMPDEST PUSH2 0x380 JUMPI PUSH2 0x37F DUP4 PUSH2 0x1AE JUMP JUMPDEST JUMPDEST PUSH1 0x1 PUSH1 0x3 ADD PUSH1 0x0 PUSH1 0x1 PUSH1 0x2 ADD PUSH1 0x0 DUP7 PUSH20 0xFFFFFFFFFFFFFFFFFFFFFFFFFFFFFFFFFFFFFFFF AND PUSH20 0xFFFFFFFFFFFFFFFFFFFFFFFFFFFFFFFFFFFFFFFF AND DUP2 MSTORE PUSH1 0x20 ADD SWAP1 DUP2 MSTORE PUSH1 0x20 ADD PUSH1 0x0 KECCAK256 SLOAD DUP2 MSTORE PUSH1 0x20 ADD SWAP1 DUP2 MSTORE PUSH1 0x20 ADD PUSH1 0x0 KECCAK256 PUSH1 0x0 ADD PUSH1 0x0 DUP2 SLOAD DUP1 SWAP3 SWAP2 SWAP1 PUSH2 0x3EC SWAP1 PUSH2 0xD61 JUMP JUMPDEST SWAP2 SWAP1 POP SSTORE POP PUSH1 0x0 PUSH1 0x1 PUSH1 0x3 ADD PUSH1 0x0 PUSH1 0x1 PUSH1 0x2 ADD PUSH1 0x0 DUP8 PUSH20 0xFFFFFFFFFFFFFFFFFFFFFFFFFFFFFFFFFFFFFFFF AND PUSH20 0xFFFFFFFFFFFFFFFFFFFFFFFFFFFFFFFFFFFFFFFF AND DUP2 MSTORE PUSH1 0x20 ADD SWAP1 DUP2 MSTORE PUSH1 0x20 ADD PUSH1 0x0 KECCAK256 SLOAD DUP2 MSTORE PUSH1 0x20 ADD SWAP1 DUP2 MSTORE PUSH1 0x20 ADD PUSH1 0x0 KECCAK256 PUSH1 0x0 ADD SLOAD SWAP1 POP DUP3 PUSH1 0x1 PUSH1 0x3 ADD PUSH1 0x0 PUSH1 0x1 PUSH1 0x2 ADD PUSH1 0x0 DUP9 PUSH20 0xFFFFFFFFFFFFFFFFFFFFFFFFFFFFFFFFFFFFFFFF AND PUSH20 0xFFFFFFFFFFFFFFFFFFFFFFFFFFFFFFFFFFFFFFFF AND DUP2 MSTORE PUSH1 0x20 ADD SWAP1 DUP2 MSTORE PUSH1 0x20 ADD PUSH1 0x0 KECCAK256 SLOAD DUP2 MSTORE PUSH1 0x20 ADD SWAP1 DUP2 MSTORE PUSH1 0x20 ADD PUSH1 0x0 KECCAK256 PUSH1 0x1 ADD PUSH1 0x0 DUP4 DUP2 MSTORE PUSH1 0x20 ADD SWAP1 DUP2 MSTORE PUSH1 0x20 ADD PUSH1 0x0 KECCAK256 PUSH1 0x0 ADD DUP2 SWAP1 SSTORE POP DUP2 PUSH1 0x1 PUSH1 0x3 ADD PUSH1 0x0 PUSH1 0x1 PUSH1 0x2 ADD PUSH1 0x0 DUP9 PUSH20 0xFFFFFFFFFFFFFFFFFFFFFFFFFFFFFFFFFFFFFFFF AND PUSH20 0xFFFFFFFFFFFFFFFFFFFFFFFFFFFFFFFFFFFFFFFF AND DUP2 MSTORE PUSH1 0x20 ADD SWAP1 DUP2 MSTORE PUSH1 0x20 ADD PUSH1 0x0 KECCAK256 SLOAD DUP2 MSTORE PUSH1 0x20 ADD SWAP1 DUP2 MSTORE PUSH1 0x20 ADD PUSH1 0x0 KECCAK256 PUSH1 0x1 ADD PUSH1 0x0 DUP4 DUP2 MSTORE PUSH1 0x20 ADD SWAP1 DUP2 MSTORE PUSH1 0x20 ADD PUSH1 0x0 KECCAK256 PUSH1 0x1 ADD DUP2 SWAP1 SSTORE POP POP POP POP POP JUMP JUMPDEST PUSH2 0x547 PUSH2 0xA6C JUMP JUMPDEST PUSH20 0xFFFFFFFFFFFFFFFFFFFFFFFFFFFFFFFFFFFFFFFF AND PUSH2 0x565 PUSH2 0x88A JUMP JUMPDEST PUSH20 0xFFFFFFFFFFFFFFFFFFFFFFFFFFFFFFFFFFFFFFFF AND EQ PUSH2 0x5BB JUMPI PUSH1 0x40 MLOAD PUSH32 0x8C379A000000000000000000000000000000000000000000000000000000000 DUP2 MSTORE PUSH1 0x4 ADD PUSH2 0x5B2 SWAP1 PUSH2 0xCA3 JUMP JUMPDEST PUSH1 0x40 MLOAD DUP1 SWAP2 SUB SWAP1 REVERT JUMPDEST PUSH1 0x0 PUSH1 0x1 PUSH1 0x2 ADD PUSH1 0x0 DUP4 PUSH20 0xFFFFFFFFFFFFFFFFFFFFFFFFFFFFFFFFFFFFFFFF AND PUSH20 0xFFFFFFFFFFFFFFFFFFFFFFFFFFFFFFFFFFFFFFFF AND DUP2 MSTORE PUSH1 0x20 ADD SWAP1 DUP2 MSTORE PUSH1 0x20 ADD PUSH1 0x0 KECCAK256 SLOAD SWAP1 POP PUSH1 0x0 DUP3 SWAP1 POP PUSH1 0x0 PUSH1 0x1 PUSH1 0x0 ADD SLOAD SWAP1 POP PUSH1 0x0 PUSH1 0x1 DUP1 ADD PUSH1 0x0 PUSH1 0x1 PUSH1 0x0 ADD SLOAD DUP2 MSTORE PUSH1 0x20 ADD SWAP1 DUP2 MSTORE PUSH1 0x20 ADD PUSH1 0x0 KECCAK256 PUSH1 0x0 SWAP1 SLOAD SWAP1 PUSH2 0x100 EXP SWAP1 DIV PUSH20 0xFFFFFFFFFFFFFFFFFFFFFFFFFFFFFFFFFFFFFFFF AND SWAP1 POP PUSH1 0x1 DUP1 ADD PUSH1 0x0 DUP4 DUP2 MSTORE PUSH1 0x20 ADD SWAP1 DUP2 MSTORE PUSH1 0x20 ADD PUSH1 0x0 KECCAK256 PUSH1 0x0 SWAP1 SLOAD SWAP1 PUSH2 0x100 EXP SWAP1 DIV PUSH20 0xFFFFFFFFFFFFFFFFFFFFFFFFFFFFFFFFFFFFFFFF AND PUSH1 0x1 DUP1 ADD PUSH1 0x0 DUP7 DUP2 MSTORE PUSH1 0x20 ADD SWAP1 DUP2 MSTORE PUSH1 0x20 ADD PUSH1 0x0 KECCAK256 PUSH1 0x0 PUSH2 0x100 EXP DUP2 SLOAD DUP2 PUSH20 0xFFFFFFFFFFFFFFFFFFFFFFFFFFFFFFFFFFFFFFFF MUL NOT AND SWAP1 DUP4 PUSH20 0xFFFFFFFFFFFFFFFFFFFFFFFFFFFFFFFFFFFFFFFF AND MUL OR SWAP1 SSTORE POP PUSH1 0x1 DUP1 ADD PUSH1 0x0 DUP4 DUP2 MSTORE PUSH1 0x20 ADD SWAP1 DUP2 MSTORE PUSH1 0x20 ADD PUSH1 0x0 KECCAK256 PUSH1 0x0 PUSH2 0x100 EXP DUP2 SLOAD SWAP1 PUSH20 0xFFFFFFFFFFFFFFFFFFFFFFFFFFFFFFFFFFFFFFFF MUL NOT AND SWAP1 SSTORE PUSH1 0x1 PUSH1 0x2 ADD PUSH1 0x0 DUP3 PUSH20 0xFFFFFFFFFFFFFFFFFFFFFFFFFFFFFFFFFFFFFFFF AND PUSH20 0xFFFFFFFFFFFFFFFFFFFFFFFFFFFFFFFFFFFFFFFF AND DUP2 MSTORE PUSH1 0x20 ADD SWAP1 DUP2 MSTORE PUSH1 0x20 ADD PUSH1 0x0 KECCAK256 SLOAD PUSH1 0x1 PUSH1 0x2 ADD PUSH1 0x0 DUP6 PUSH20 0xFFFFFFFFFFFFFFFFFFFFFFFFFFFFFFFFFFFFFFFF AND PUSH20 0xFFFFFFFFFFFFFFFFFFFFFFFFFFFFFFFFFFFFFFFF AND DUP2 MSTORE PUSH1 0x20 ADD SWAP1 DUP2 MSTORE PUSH1 0x20 ADD PUSH1 0x0 KECCAK256 DUP2 SWAP1 SSTORE POP PUSH1 0x1 PUSH1 0x2 ADD PUSH1 0x0 DUP3 PUSH20 0xFFFFFFFFFFFFFFFFFFFFFFFFFFFFFFFFFFFFFFFF AND PUSH20 0xFFFFFFFFFFFFFFFFFFFFFFFFFFFFFFFFFFFFFFFF AND DUP2 MSTORE PUSH1 0x20 ADD SWAP1 DUP2 MSTORE PUSH1 0x20 ADD PUSH1 0x0 KECCAK256 PUSH1 0x0 SWAP1 SSTORE PUSH1 0x1 PUSH1 0x0 ADD PUSH1 0x0 DUP2 SLOAD DUP1 SWAP3 SWAP2 SWAP1 PUSH2 0x7F6 SWAP1 PUSH2 0xD37 JUMP JUMPDEST SWAP2 SWAP1 POP SSTORE POP POP POP POP POP POP JUMP JUMPDEST PUSH2 0x80A PUSH2 0xA6C JUMP JUMPDEST PUSH20 0xFFFFFFFFFFFFFFFFFFFFFFFFFFFFFFFFFFFFFFFF AND PUSH2 0x828 PUSH2 0x88A JUMP JUMPDEST PUSH20 0xFFFFFFFFFFFFFFFFFFFFFFFFFFFFFFFFFFFFFFFF AND EQ PUSH2 0x87E JUMPI PUSH1 0x40 MLOAD PUSH32 0x8C379A000000000000000000000000000000000000000000000000000000000 DUP2 MSTORE PUSH1 0x4 ADD PUSH2 0x875 SWAP1 PUSH2 0xCA3 JUMP JUMPDEST PUSH1 0x40 MLOAD DUP1 SWAP2 SUB SWAP1 REVERT JUMPDEST PUSH2 0x888 PUSH1 0x0 PUSH2 0xA74 JUMP JUMPDEST JUMP JUMPDEST PUSH1 0x0 DUP1 PUSH1 0x0 SWAP1 SLOAD SWAP1 PUSH2 0x100 EXP SWAP1 DIV PUSH20 0xFFFFFFFFFFFFFFFFFFFFFFFFFFFFFFFFFFFFFFFF AND SWAP1 POP SWAP1 JUMP JUMPDEST PUSH1 0x0 DUP1 PUSH1 0x1 PUSH1 0x2 ADD PUSH1 0x0 DUP5 PUSH20 0xFFFFFFFFFFFFFFFFFFFFFFFFFFFFFFFFFFFFFFFF AND PUSH20 0xFFFFFFFFFFFFFFFFFFFFFFFFFFFFFFFFFFFFFFFF AND DUP2 MSTORE PUSH1 0x20 ADD SWAP1 DUP2 MSTORE PUSH1 0x20 ADD PUSH1 0x0 KECCAK256 SLOAD EQ SWAP1 POP SWAP2 SWAP1 POP JUMP JUMPDEST PUSH1 0x1 DUP1 PUSH1 0x0 ADD SLOAD SWAP1 POP DUP2 JUMP JUMPDEST PUSH2 0x915 PUSH2 0xA6C JUMP JUMPDEST PUSH20 0xFFFFFFFFFFFFFFFFFFFFFFFFFFFFFFFFFFFFFFFF AND PUSH2 0x933 PUSH2 0x88A JUMP JUMPDEST PUSH20 0xFFFFFFFFFFFFFFFFFFFFFFFFFFFFFFFFFFFFFFFF AND EQ PUSH2 0x989 JUMPI PUSH1 0x40 MLOAD PUSH32 0x8C379A000000000000000000000000000000000000000000000000000000000 DUP2 MSTORE PUSH1 0x4 ADD PUSH2 0x980 SWAP1 PUSH2 0xCA3 JUMP JUMPDEST PUSH1 0x40 MLOAD DUP1 SWAP2 SUB SWAP1 REVERT JUMPDEST PUSH1 0x0 PUSH20 0xFFFFFFFFFFFFFFFFFFFFFFFFFFFFFFFFFFFFFFFF AND DUP2 PUSH20 0xFFFFFFFFFFFFFFFFFFFFFFFFFFFFFFFFFFFFFFFF AND EQ ISZERO PUSH2 0x9F9 JUMPI PUSH1 0x40 MLOAD PUSH32 0x8C379A000000000000000000000000000000000000000000000000000000000 DUP2 MSTORE PUSH1 0x4 ADD PUSH2 0x9F0 SWAP1 PUSH2 0xC83 JUMP JUMPDEST PUSH1 0x40 MLOAD DUP1 SWAP2 SUB SWAP1 REVERT JUMPDEST PUSH2 0xA02 DUP2 PUSH2 0xA74 JUMP JUMPDEST POP JUMP JUMPDEST PUSH1 0x0 DUP1 PUSH1 0x1 PUSH1 0x3 ADD PUSH1 0x0 PUSH1 0x1 PUSH1 0x2 ADD PUSH1 0x0 DUP7 PUSH20 0xFFFFFFFFFFFFFFFFFFFFFFFFFFFFFFFFFFFFFFFF AND PUSH20 0xFFFFFFFFFFFFFFFFFFFFFFFFFFFFFFFFFFFFFFFF AND DUP2 MSTORE PUSH1 0x20 ADD SWAP1 DUP2 MSTORE PUSH1 0x20 ADD PUSH1 0x0 KECCAK256 SLOAD DUP2 MSTORE PUSH1 0x20 ADD SWAP1 DUP2 MSTORE PUSH1 0x20 ADD PUSH1 0x0 KECCAK256 PUSH1 0x0 ADD SLOAD EQ SWAP1 POP SWAP2 SWAP1 POP JUMP JUMPDEST PUSH1 0x0 CALLER SWAP1 POP SWAP1 JUMP JUMPDEST PUSH1 0x0 DUP1 PUSH1 0x0 SWAP1 SLOAD SWAP1 PUSH2 0x100 EXP SWAP1 DIV PUSH20 0xFFFFFFFFFFFFFFFFFFFFFFFFFFFFFFFFFFFFFFFF AND SWAP1 POP DUP2 PUSH1 0x0 DUP1 PUSH2 0x100 EXP DUP2 SLOAD DUP2 PUSH20 0xFFFFFFFFFFFFFFFFFFFFFFFFFFFFFFFFFFFFFFFF MUL NOT AND SWAP1 DUP4 PUSH20 0xFFFFFFFFFFFFFFFFFFFFFFFFFFFFFFFFFFFFFFFF AND MUL OR SWAP1 SSTORE POP DUP2 PUSH20 0xFFFFFFFFFFFFFFFFFFFFFFFFFFFFFFFFFFFFFFFF AND DUP2 PUSH20 0xFFFFFFFFFFFFFFFFFFFFFFFFFFFFFFFFFFFFFFFF AND PUSH32 0x8BE0079C531659141344CD1FD0A4F28419497F9722A3DAAFE3B4186F6B6457E0 PUSH1 0x40 MLOAD PUSH1 0x40 MLOAD DUP1 SWAP2 SUB SWAP1 LOG3 POP POP JUMP JUMPDEST PUSH1 0x0 DUP2 CALLDATALOAD SWAP1 POP PUSH2 0xB47 DUP2 PUSH2 0xE51 JUMP JUMPDEST SWAP3 SWAP2 POP POP JUMP JUMPDEST PUSH1 0x0 DUP2 CALLDATALOAD SWAP1 POP PUSH2 0xB5C DUP2 PUSH2 0xE68 JUMP JUMPDEST SWAP3 SWAP2 POP POP JUMP JUMPDEST PUSH1 0x0 PUSH1 0x20 DUP3 DUP5 SUB SLT ISZERO PUSH2 0xB74 JUMPI PUSH1 0x0 DUP1 REVERT JUMPDEST PUSH1 0x0 PUSH2 0xB82 DUP5 DUP3 DUP6 ADD PUSH2 0xB38 JUMP JUMPDEST SWAP2 POP POP SWAP3 SWAP2 POP POP JUMP JUMPDEST PUSH1 0x0 DUP1 PUSH1 0x0 PUSH1 0x60 DUP5 DUP7 SUB SLT ISZERO PUSH2 0xBA0 JUMPI PUSH1 0x0 DUP1 REVERT JUMPDEST PUSH1 0x0 PUSH2 0xBAE DUP7 DUP3 DUP8 ADD PUSH2 0xB38 JUMP JUMPDEST SWAP4 POP POP PUSH1 0x20 PUSH2 0xBBF DUP7 DUP3 DUP8 ADD PUSH2 0xB4D JUMP JUMPDEST SWAP3 POP POP PUSH1 0x40 PUSH2 0xBD0 DUP7 DUP3 DUP8 ADD PUSH2 0xB4D JUMP JUMPDEST SWAP2 POP POP SWAP3 POP SWAP3 POP SWAP3 JUMP JUMPDEST PUSH2 0xBE3 DUP2 PUSH2 0xCEF JUMP JUMPDEST DUP3 MSTORE POP POP JUMP JUMPDEST PUSH2 0xBF2 DUP2 PUSH2 0xD01 JUMP JUMPDEST DUP3 MSTORE POP POP JUMP JUMPDEST PUSH1 0x0 PUSH2 0xC05 PUSH1 0x26 DUP4 PUSH2 0xCDE JUMP JUMPDEST SWAP2 POP PUSH2 0xC10 DUP3 PUSH2 0xDD9 JUMP JUMPDEST PUSH1 0x40 DUP3 ADD SWAP1 POP SWAP2 SWAP1 POP JUMP JUMPDEST PUSH1 0x0 PUSH2 0xC28 PUSH1 0x20 DUP4 PUSH2 0xCDE JUMP JUMPDEST SWAP2 POP PUSH2 0xC33 DUP3 PUSH2 0xE28 JUMP JUMPDEST PUSH1 0x20 DUP3 ADD SWAP1 POP SWAP2 SWAP1 POP JUMP JUMPDEST PUSH2 0xC47 DUP2 PUSH2 0xD2D JUMP JUMPDEST DUP3 MSTORE POP POP JUMP JUMPDEST PUSH1 0x0 PUSH1 0x20 DUP3 ADD SWAP1 POP PUSH2 0xC62 PUSH1 0x0 DUP4 ADD DUP5 PUSH2 0xBDA JUMP JUMPDEST SWAP3 SWAP2 POP POP JUMP JUMPDEST PUSH1 0x0 PUSH1 0x20 DUP3 ADD SWAP1 POP PUSH2 0xC7D PUSH1 0x0 DUP4 ADD DUP5 PUSH2 0xBE9 JUMP JUMPDEST SWAP3 SWAP2 POP POP JUMP JUMPDEST PUSH1 0x0 PUSH1 0x20 DUP3 ADD SWAP1 POP DUP2 DUP2 SUB PUSH1 0x0 DUP4 ADD MSTORE PUSH2 0xC9C DUP2 PUSH2 0xBF8 JUMP JUMPDEST SWAP1 POP SWAP2 SWAP1 POP JUMP JUMPDEST PUSH1 0x0 PUSH1 0x20 DUP3 ADD SWAP1 POP DUP2 DUP2 SUB PUSH1 0x0 DUP4 ADD MSTORE PUSH2 0xCBC DUP2 PUSH2 0xC1B JUMP JUMPDEST SWAP1 POP SWAP2 SWAP1 POP JUMP JUMPDEST PUSH1 0x0 PUSH1 0x20 DUP3 ADD SWAP1 POP PUSH2 0xCD8 PUSH1 0x0 DUP4 ADD DUP5 PUSH2 0xC3E JUMP JUMPDEST SWAP3 SWAP2 POP POP JUMP JUMPDEST PUSH1 0x0 DUP3 DUP3 MSTORE PUSH1 0x20 DUP3 ADD SWAP1 POP SWAP3 SWAP2 POP POP JUMP JUMPDEST PUSH1 0x0 PUSH2 0xCFA DUP3 PUSH2 0xD0D JUMP JUMPDEST SWAP1 POP SWAP2 SWAP1 POP JUMP JUMPDEST PUSH1 0x0 DUP2 ISZERO ISZERO SWAP1 POP SWAP2 SWAP1 POP JUMP JUMPDEST PUSH1 0x0 PUSH20 0xFFFFFFFFFFFFFFFFFFFFFFFFFFFFFFFFFFFFFFFF DUP3 AND SWAP1 POP SWAP2 SWAP1 POP JUMP JUMPDEST PUSH1 0x0 DUP2 SWAP1 POP SWAP2 SWAP1 POP JUMP JUMPDEST PUSH1 0x0 PUSH2 0xD42 DUP3 PUSH2 0xD2D JUMP JUMPDEST SWAP2 POP PUSH1 0x0 DUP3 EQ ISZERO PUSH2 0xD56 JUMPI PUSH2 0xD55 PUSH2 0xDAA JUMP JUMPDEST JUMPDEST PUSH1 0x1 DUP3 SUB SWAP1 POP SWAP2 SWAP1 POP JUMP JUMPDEST PUSH1 0x0 PUSH2 0xD6C DUP3 PUSH2 0xD2D JUMP JUMPDEST SWAP2 POP PUSH32 0xFFFFFFFFFFFFFFFFFFFFFFFFFFFFFFFFFFFFFFFFFFFFFFFFFFFFFFFFFFFFFFFF DUP3 EQ ISZERO PUSH2 0xD9F JUMPI PUSH2 0xD9E PUSH2 0xDAA JUMP JUMPDEST JUMPDEST PUSH1 0x1 DUP3 ADD SWAP1 POP SWAP2 SWAP1 POP JUMP JUMPDEST PUSH32 0x4E487B7100000000000000000000000000000000000000000000000000000000 PUSH1 0x0 MSTORE PUSH1 0x11 PUSH1 0x4 MSTORE PUSH1 0x24 PUSH1 0x0 REVERT JUMPDEST PUSH32 0x4F776E61626C653A206E6577206F776E657220697320746865207A65726F2061 PUSH1 0x0 DUP3 ADD MSTORE PUSH32 0x6464726573730000000000000000000000000000000000000000000000000000 PUSH1 0x20 DUP3 ADD MSTORE POP JUMP JUMPDEST PUSH32 0x4F776E61626C653A2063616C6C6572206973206E6F7420746865206F776E6572 PUSH1 0x0 DUP3 ADD MSTORE POP JUMP JUMPDEST PUSH2 0xE5A DUP2 PUSH2 0xCEF JUMP JUMPDEST DUP2 EQ PUSH2 0xE65 JUMPI PUSH1 0x0 DUP1 REVERT JUMPDEST POP JUMP JUMPDEST PUSH2 0xE71 DUP2 PUSH2 0xD2D JUMP JUMPDEST DUP2 EQ PUSH2 0xE7C JUMPI PUSH1 0x0 DUP1 REVERT JUMPDEST POP JUMP INVALID LOG2 PUSH5 0x6970667358 0x22 SLT KECCAK256 DUP5 0xBA 0xB8 0xC8 0xB2 DELEGATECALL 0x1F 0xBB 0xA5 SWAP11 0xF7 0xBF SMOD 0x5F SWAP10 LT SWAP6 BALANCE DUP11 0xE8 0xC8 0x1E 0xD6 DUP7 ADDRESS EXTCODECOPY SWAP6 0x23 0x2F 0x2B PUSH6 0xE164736F6C63 NUMBER STOP ADDMOD ADD STOP CALLER "
				},
				"gasEstimates": {
					"creation": {
						"codeDepositCost": "753000",
						"executionCost": "infinite",
						"totalCost": "infinite"
					},
					"external": {
						"addAddress(address)": "65035",
						"addCoupon(address,uint256,uint256)": "infinite",
						"addressExists(address)": "1581",
						"addressHasCoupon(address)": "2537",
						"addressList()": "1187",
						"owner()": "1222",
						"removeAddress(address)": "94794",
						"renounceOwnership()": "24441",
						"transferOwnership(address)": "24789"
					},
					"internal": {
						"_initList()": "infinite"
					}
				},
				"methodIdentifiers": {
					"addAddress(address)": "38eada1c",
					"addCoupon(address,uint256,uint256)": "3edfcd2c",
					"addressExists(address)": "a5025222",
					"addressHasCoupon(address)": "f76da2a8",
					"addressList()": "c1eb6dfd",
					"owner()": "8da5cb5b",
					"removeAddress(address)": "4ba79dfe",
					"renounceOwnership()": "715018a6",
					"transferOwnership(address)": "f2fde38b"
				}
			},
			"storageLayout": {
				"storage": [
					{
						"astId": 7,
						"contract": "contracts/Founding Citizens NFT Sale Privileged Buyers List Storage.sol:PrivilegedListStorage",
						"label": "_owner",
						"offset": 0,
						"slot": "0",
						"type": "t_address"
					},
					{
						"astId": 163,
						"contract": "contracts/Founding Citizens NFT Sale Privileged Buyers List Storage.sol:PrivilegedListStorage",
						"label": "addressList",
						"offset": 0,
						"slot": "1",
						"type": "t_struct(AddressList)160_storage"
					}
				],
				"types": {
					"t_address": {
						"encoding": "inplace",
						"label": "address",
						"numberOfBytes": "20"
					},
					"t_mapping(t_address,t_uint256)": {
						"encoding": "mapping",
						"key": "t_address",
						"label": "mapping(address => uint256)",
						"numberOfBytes": "32",
						"value": "t_uint256"
					},
					"t_mapping(t_uint256,t_address)": {
						"encoding": "mapping",
						"key": "t_uint256",
						"label": "mapping(uint256 => address)",
						"numberOfBytes": "32",
						"value": "t_address"
					},
					"t_mapping(t_uint256,t_struct(Coupon)136_storage)": {
						"encoding": "mapping",
						"key": "t_uint256",
						"label": "mapping(uint256 => struct PrivilegedListStorage.Coupon)",
						"numberOfBytes": "32",
						"value": "t_struct(Coupon)136_storage"
					},
					"t_mapping(t_uint256,t_struct(CouponList)144_storage)": {
						"encoding": "mapping",
						"key": "t_uint256",
						"label": "mapping(uint256 => struct PrivilegedListStorage.CouponList)",
						"numberOfBytes": "32",
						"value": "t_struct(CouponList)144_storage"
					},
					"t_struct(AddressList)160_storage": {
						"encoding": "inplace",
						"label": "struct PrivilegedListStorage.AddressList",
						"members": [
							{
								"astId": 146,
								"contract": "contracts/Founding Citizens NFT Sale Privileged Buyers List Storage.sol:PrivilegedListStorage",
								"label": "length",
								"offset": 0,
								"slot": "0",
								"type": "t_uint256"
							},
							{
								"astId": 150,
								"contract": "contracts/Founding Citizens NFT Sale Privileged Buyers List Storage.sol:PrivilegedListStorage",
								"label": "addresses",
								"offset": 0,
								"slot": "1",
								"type": "t_mapping(t_uint256,t_address)"
							},
							{
								"astId": 154,
								"contract": "contracts/Founding Citizens NFT Sale Privileged Buyers List Storage.sol:PrivilegedListStorage",
								"label": "ids",
								"offset": 0,
								"slot": "2",
								"type": "t_mapping(t_address,t_uint256)"
							},
							{
								"astId": 159,
								"contract": "contracts/Founding Citizens NFT Sale Privileged Buyers List Storage.sol:PrivilegedListStorage",
								"label": "couponLists",
								"offset": 0,
								"slot": "3",
								"type": "t_mapping(t_uint256,t_struct(CouponList)144_storage)"
							}
						],
						"numberOfBytes": "128"
					},
					"t_struct(Coupon)136_storage": {
						"encoding": "inplace",
						"label": "struct PrivilegedListStorage.Coupon",
						"members": [
							{
								"astId": 133,
								"contract": "contracts/Founding Citizens NFT Sale Privileged Buyers List Storage.sol:PrivilegedListStorage",
								"label": "discountRate",
								"offset": 0,
								"slot": "0",
								"type": "t_uint256"
							},
							{
								"astId": 135,
								"contract": "contracts/Founding Citizens NFT Sale Privileged Buyers List Storage.sol:PrivilegedListStorage",
								"label": "numberOfUses",
								"offset": 0,
								"slot": "1",
								"type": "t_uint256"
							}
						],
						"numberOfBytes": "64"
					},
					"t_struct(CouponList)144_storage": {
						"encoding": "inplace",
						"label": "struct PrivilegedListStorage.CouponList",
						"members": [
							{
								"astId": 138,
								"contract": "contracts/Founding Citizens NFT Sale Privileged Buyers List Storage.sol:PrivilegedListStorage",
								"label": "length",
								"offset": 0,
								"slot": "0",
								"type": "t_uint256"
							},
							{
								"astId": 143,
								"contract": "contracts/Founding Citizens NFT Sale Privileged Buyers List Storage.sol:PrivilegedListStorage",
								"label": "coupons",
								"offset": 0,
								"slot": "1",
								"type": "t_mapping(t_uint256,t_struct(Coupon)136_storage)"
							}
						],
						"numberOfBytes": "64"
					},
					"t_uint256": {
						"encoding": "inplace",
						"label": "uint256",
						"numberOfBytes": "32"
					}
				}
			},
			"userdoc": {
				"kind": "user",
				"methods": {},
				"version": 1
			}
		}
	}
}