{
	"contracts/Founding Citizens NFT Sale.sol": {
		"FoundingNFTSale": {
			"abi": [
				{
					"anonymous": false,
					"inputs": [
						{
							"indexed": true,
							"internalType": "address",
							"name": "previousOwner",
							"type": "address"
						},
						{
							"indexed": true,
							"internalType": "address",
							"name": "newOwner",
							"type": "address"
						}
					],
					"name": "OwnershipTransferred",
					"type": "event"
				},
				{
					"inputs": [],
					"name": "isSaleLive",
					"outputs": [
						{
							"internalType": "bool",
							"name": "",
							"type": "bool"
						}
					],
					"stateMutability": "view",
					"type": "function"
				},
				{
					"inputs": [],
					"name": "owner",
					"outputs": [
						{
							"internalType": "address",
							"name": "",
							"type": "address"
						}
					],
					"stateMutability": "view",
					"type": "function"
				},
				{
					"inputs": [
						{
							"internalType": "uint256[]",
							"name": "ids",
							"type": "uint256[]"
						},
						{
							"internalType": "string[]",
							"name": "uris",
							"type": "string[]"
						}
					],
					"name": "preLoadURIs",
					"outputs": [],
					"stateMutability": "nonpayable",
					"type": "function"
				},
				{
					"inputs": [],
					"name": "renounceOwnership",
					"outputs": [],
					"stateMutability": "nonpayable",
					"type": "function"
				},
				{
					"inputs": [
						{
							"internalType": "address",
							"name": "storageAddress",
							"type": "address"
						}
					],
					"name": "setStorageContractAddress",
					"outputs": [],
					"stateMutability": "nonpayable",
					"type": "function"
				},
				{
					"inputs": [
						{
							"internalType": "uint256",
							"name": "unixTime",
							"type": "uint256"
						}
					],
					"name": "startSale",
					"outputs": [],
					"stateMutability": "nonpayable",
					"type": "function"
				},
				{
					"inputs": [],
					"name": "storageContract",
					"outputs": [
						{
							"internalType": "address",
							"name": "",
							"type": "address"
						}
					],
					"stateMutability": "view",
					"type": "function"
				},
				{
					"inputs": [
						{
							"internalType": "address",
							"name": "newOwner",
							"type": "address"
						}
					],
					"name": "transferOwnership",
					"outputs": [],
					"stateMutability": "nonpayable",
					"type": "function"
				}
			],
			"devdoc": {
				"kind": "dev",
				"methods": {
					"owner()": {
						"details": "Returns the address of the current owner."
					},
					"renounceOwnership()": {
						"details": "Leaves the contract without owner. It will not be possible to call `onlyOwner` functions anymore. Can only be called by the current owner. NOTE: Renouncing ownership will leave the contract without an owner, thereby removing any functionality that is only available to the owner."
					},
					"transferOwnership(address)": {
						"details": "Transfers ownership of the contract to a new account (`newOwner`). Can only be called by the current owner."
					}
				},
				"version": 1
			},
			"evm": {
				"assembly": "    /* \"contracts/Founding Citizens NFT Sale.sol\":1895:2587  contract FoundingNFTSale is Ownable {\r... */\n  mstore(0x40, 0x80)\n    /* \"contracts/Founding Citizens NFT Sale.sol\":2002:2007  false */\n  0x00\n    /* \"contracts/Founding Citizens NFT Sale.sol\":1977:2007  bool public isSaleLive = false */\n  0x01\n  exp(0x0100, 0x14)\n  dup2\n  sload\n  dup2\n  0xff\n  mul\n  not\n  and\n  swap1\n  dup4\n  iszero\n  iszero\n  mul\n  or\n  swap1\n  sstore\n  pop\n    /* \"contracts/Founding Citizens NFT Sale.sol\":1895:2587  contract FoundingNFTSale is Ownable {\r... */\n  callvalue\n  dup1\n  iszero\n  tag_1\n  jumpi\n  0x00\n  dup1\n  revert\ntag_1:\n  pop\n    /* \"@openzeppelin/contracts@4.4.2/access/Ownable.sol\":921:953  _transferOwnership(_msgSender()) */\n  tag_4\n    /* \"@openzeppelin/contracts@4.4.2/access/Ownable.sol\":940:952  _msgSender() */\n  tag_5\n    /* \"@openzeppelin/contracts@4.4.2/access/Ownable.sol\":940:950  _msgSender */\n  shl(0x20, tag_6)\n    /* \"@openzeppelin/contracts@4.4.2/access/Ownable.sol\":940:952  _msgSender() */\n  0x20\n  shr\n  jump\t// in\ntag_5:\n    /* \"@openzeppelin/contracts@4.4.2/access/Ownable.sol\":921:939  _transferOwnership */\n  shl(0x20, tag_7)\n    /* \"@openzeppelin/contracts@4.4.2/access/Ownable.sol\":921:953  _transferOwnership(_msgSender()) */\n  0x20\n  shr\n  jump\t// in\ntag_4:\n    /* \"contracts/Founding Citizens NFT Sale.sol\":1895:2587  contract FoundingNFTSale is Ownable {\r... */\n  jump(tag_8)\n    /* \"@openzeppelin/contracts@4.4.2/utils/Context.sol\":640:736  function _msgSender() internal view virtual returns (address) {... */\ntag_6:\n    /* \"@openzeppelin/contracts@4.4.2/utils/Context.sol\":693:700  address */\n  0x00\n    /* \"@openzeppelin/contracts@4.4.2/utils/Context.sol\":719:729  msg.sender */\n  caller\n    /* \"@openzeppelin/contracts@4.4.2/utils/Context.sol\":712:729  return msg.sender */\n  swap1\n  pop\n    /* \"@openzeppelin/contracts@4.4.2/utils/Context.sol\":640:736  function _msgSender() internal view virtual returns (address) {... */\n  swap1\n  jump\t// out\n    /* \"@openzeppelin/contracts@4.4.2/access/Ownable.sol\":2270:2457  function _transferOwnership(address newOwner) internal virtual {... */\ntag_7:\n    /* \"@openzeppelin/contracts@4.4.2/access/Ownable.sol\":2343:2359  address oldOwner */\n  0x00\n    /* \"@openzeppelin/contracts@4.4.2/access/Ownable.sol\":2362:2368  _owner */\n  dup1\n  0x00\n  swap1\n  sload\n  swap1\n  0x0100\n  exp\n  swap1\n  div\n  0xffffffffffffffffffffffffffffffffffffffff\n  and\n    /* \"@openzeppelin/contracts@4.4.2/access/Ownable.sol\":2343:2368  address oldOwner = _owner */\n  swap1\n  pop\n    /* \"@openzeppelin/contracts@4.4.2/access/Ownable.sol\":2387:2395  newOwner */\n  dup2\n    /* \"@openzeppelin/contracts@4.4.2/access/Ownable.sol\":2378:2384  _owner */\n  0x00\n  dup1\n    /* \"@openzeppelin/contracts@4.4.2/access/Ownable.sol\":2378:2395  _owner = newOwner */\n  0x0100\n  exp\n  dup2\n  sload\n  dup2\n  0xffffffffffffffffffffffffffffffffffffffff\n  mul\n  not\n  and\n  swap1\n  dup4\n  0xffffffffffffffffffffffffffffffffffffffff\n  and\n  mul\n  or\n  swap1\n  sstore\n  pop\n    /* \"@openzeppelin/contracts@4.4.2/access/Ownable.sol\":2441:2449  newOwner */\n  dup2\n    /* \"@openzeppelin/contracts@4.4.2/access/Ownable.sol\":2410:2450  OwnershipTransferred(oldOwner, newOwner) */\n  0xffffffffffffffffffffffffffffffffffffffff\n  and\n    /* \"@openzeppelin/contracts@4.4.2/access/Ownable.sol\":2431:2439  oldOwner */\n  dup2\n    /* \"@openzeppelin/contracts@4.4.2/access/Ownable.sol\":2410:2450  OwnershipTransferred(oldOwner, newOwner) */\n  0xffffffffffffffffffffffffffffffffffffffff\n  and\n  0x8be0079c531659141344cd1fd0a4f28419497f9722a3daafe3b4186f6b6457e0\n  mload(0x40)\n  mload(0x40)\n  dup1\n  swap2\n  sub\n  swap1\n  log3\n    /* \"@openzeppelin/contracts@4.4.2/access/Ownable.sol\":2270:2457  function _transferOwnership(address newOwner) internal virtual {... */\n  pop\n  pop\n  jump\t// out\n    /* \"contracts/Founding Citizens NFT Sale.sol\":1895:2587  contract FoundingNFTSale is Ownable {\r... */\ntag_8:\n  dataSize(sub_0)\n  dup1\n  dataOffset(sub_0)\n  0x00\n  codecopy\n  0x00\n  return\nstop\n\nsub_0: assembly {\n        /* \"contracts/Founding Citizens NFT Sale.sol\":1895:2587  contract FoundingNFTSale is Ownable {\r... */\n      mstore(0x40, 0x80)\n      callvalue\n      dup1\n      iszero\n      tag_1\n      jumpi\n      0x00\n      dup1\n      revert\n    tag_1:\n      pop\n      jumpi(tag_2, lt(calldatasize, 0x04))\n      shr(0xe0, calldataload(0x00))\n      dup1\n      0x8da5cb5b\n      gt\n      tag_11\n      jumpi\n      dup1\n      0x8da5cb5b\n      eq\n      tag_7\n      jumpi\n      dup1\n      0xf121da92\n      eq\n      tag_8\n      jumpi\n      dup1\n      0xf2fde38b\n      eq\n      tag_9\n      jumpi\n      dup1\n      0xf71143ca\n      eq\n      tag_10\n      jumpi\n      jump(tag_2)\n    tag_11:\n      dup1\n      0x0e3ab61d\n      eq\n      tag_3\n      jumpi\n      dup1\n      0x11ce0267\n      eq\n      tag_4\n      jumpi\n      dup1\n      0x51f7598c\n      eq\n      tag_5\n      jumpi\n      dup1\n      0x715018a6\n      eq\n      tag_6\n      jumpi\n    tag_2:\n      0x00\n      dup1\n      revert\n        /* \"contracts/Founding Citizens NFT Sale.sol\":2515:2584  function startSale(uint unixTime) public onlyOwner {\r... */\n    tag_3:\n      tag_12\n      0x04\n      dup1\n      calldatasize\n      sub\n      dup2\n      add\n      swap1\n      tag_13\n      swap2\n      swap1\n      tag_14\n      jump\t// in\n    tag_13:\n      tag_15\n      jump\t// in\n    tag_12:\n      stop\n        /* \"contracts/Founding Citizens NFT Sale.sol\":1938:1968  address public storageContract */\n    tag_4:\n      tag_16\n      tag_17\n      jump\t// in\n    tag_16:\n      mload(0x40)\n      tag_18\n      swap2\n      swap1\n      tag_19\n      jump\t// in\n    tag_18:\n      mload(0x40)\n      dup1\n      swap2\n      sub\n      swap1\n      return\n        /* \"contracts/Founding Citizens NFT Sale.sol\":2090:2217  function setStorageContractAddress(address storageAddress) public onlyOwner {\r... */\n    tag_5:\n      tag_20\n      0x04\n      dup1\n      calldatasize\n      sub\n      dup2\n      add\n      swap1\n      tag_21\n      swap2\n      swap1\n      tag_22\n      jump\t// in\n    tag_21:\n      tag_23\n      jump\t// in\n    tag_20:\n      stop\n        /* \"@openzeppelin/contracts@4.4.2/access/Ownable.sol\":1668:1769  function renounceOwnership() public virtual onlyOwner {... */\n    tag_6:\n      tag_24\n      tag_25\n      jump\t// in\n    tag_24:\n      stop\n        /* \"@openzeppelin/contracts@4.4.2/access/Ownable.sol\":1036:1121  function owner() public view virtual returns (address) {... */\n    tag_7:\n      tag_26\n      tag_27\n      jump\t// in\n    tag_26:\n      mload(0x40)\n      tag_28\n      swap2\n      swap1\n      tag_19\n      jump\t// in\n    tag_28:\n      mload(0x40)\n      dup1\n      swap2\n      sub\n      swap1\n      return\n        /* \"contracts/Founding Citizens NFT Sale.sol\":2357:2507  function preLoadURIs(uint[] memory ids, string[] memory uris) public onlyOwner {\r... */\n    tag_8:\n      tag_29\n      0x04\n      dup1\n      calldatasize\n      sub\n      dup2\n      add\n      swap1\n      tag_30\n      swap2\n      swap1\n      tag_31\n      jump\t// in\n    tag_30:\n      tag_32\n      jump\t// in\n    tag_29:\n      stop\n        /* \"@openzeppelin/contracts@4.4.2/access/Ownable.sol\":1918:2116  function transferOwnership(address newOwner) public virtual onlyOwner {... */\n    tag_9:\n      tag_33\n      0x04\n      dup1\n      calldatasize\n      sub\n      dup2\n      add\n      swap1\n      tag_34\n      swap2\n      swap1\n      tag_22\n      jump\t// in\n    tag_34:\n      tag_35\n      jump\t// in\n    tag_33:\n      stop\n        /* \"contracts/Founding Citizens NFT Sale.sol\":1977:2007  bool public isSaleLive = false */\n    tag_10:\n      tag_36\n      tag_37\n      jump\t// in\n    tag_36:\n      mload(0x40)\n      tag_38\n      swap2\n      swap1\n      tag_39\n      jump\t// in\n    tag_38:\n      mload(0x40)\n      dup1\n      swap2\n      sub\n      swap1\n      return\n        /* \"contracts/Founding Citizens NFT Sale.sol\":2515:2584  function startSale(uint unixTime) public onlyOwner {\r... */\n    tag_15:\n        /* \"@openzeppelin/contracts@4.4.2/access/Ownable.sol\":1259:1271  _msgSender() */\n      tag_41\n        /* \"@openzeppelin/contracts@4.4.2/access/Ownable.sol\":1259:1269  _msgSender */\n      tag_42\n        /* \"@openzeppelin/contracts@4.4.2/access/Ownable.sol\":1259:1271  _msgSender() */\n      jump\t// in\n    tag_41:\n        /* \"@openzeppelin/contracts@4.4.2/access/Ownable.sol\":1248:1271  owner() == _msgSender() */\n      0xffffffffffffffffffffffffffffffffffffffff\n      and\n        /* \"@openzeppelin/contracts@4.4.2/access/Ownable.sol\":1248:1255  owner() */\n      tag_43\n        /* \"@openzeppelin/contracts@4.4.2/access/Ownable.sol\":1248:1253  owner */\n      tag_27\n        /* \"@openzeppelin/contracts@4.4.2/access/Ownable.sol\":1248:1255  owner() */\n      jump\t// in\n    tag_43:\n        /* \"@openzeppelin/contracts@4.4.2/access/Ownable.sol\":1248:1271  owner() == _msgSender() */\n      0xffffffffffffffffffffffffffffffffffffffff\n      and\n      eq\n        /* \"@openzeppelin/contracts@4.4.2/access/Ownable.sol\":1240:1308  require(owner() == _msgSender(), \"Ownable: caller is not the owner\") */\n      tag_44\n      jumpi\n      mload(0x40)\n      0x08c379a000000000000000000000000000000000000000000000000000000000\n      dup2\n      mstore\n      0x04\n      add\n      tag_45\n      swap1\n      tag_46\n      jump\t// in\n    tag_45:\n      mload(0x40)\n      dup1\n      swap2\n      sub\n      swap1\n      revert\n    tag_44:\n        /* \"contracts/Founding Citizens NFT Sale.sol\":2515:2584  function startSale(uint unixTime) public onlyOwner {\r... */\n      pop\n      jump\t// out\n        /* \"contracts/Founding Citizens NFT Sale.sol\":1938:1968  address public storageContract */\n    tag_17:\n      0x01\n      0x00\n      swap1\n      sload\n      swap1\n      0x0100\n      exp\n      swap1\n      div\n      0xffffffffffffffffffffffffffffffffffffffff\n      and\n      dup2\n      jump\t// out\n        /* \"contracts/Founding Citizens NFT Sale.sol\":2090:2217  function setStorageContractAddress(address storageAddress) public onlyOwner {\r... */\n    tag_23:\n        /* \"@openzeppelin/contracts@4.4.2/access/Ownable.sol\":1259:1271  _msgSender() */\n      tag_49\n        /* \"@openzeppelin/contracts@4.4.2/access/Ownable.sol\":1259:1269  _msgSender */\n      tag_42\n        /* \"@openzeppelin/contracts@4.4.2/access/Ownable.sol\":1259:1271  _msgSender() */\n      jump\t// in\n    tag_49:\n        /* \"@openzeppelin/contracts@4.4.2/access/Ownable.sol\":1248:1271  owner() == _msgSender() */\n      0xffffffffffffffffffffffffffffffffffffffff\n      and\n        /* \"@openzeppelin/contracts@4.4.2/access/Ownable.sol\":1248:1255  owner() */\n      tag_50\n        /* \"@openzeppelin/contracts@4.4.2/access/Ownable.sol\":1248:1253  owner */\n      tag_27\n        /* \"@openzeppelin/contracts@4.4.2/access/Ownable.sol\":1248:1255  owner() */\n      jump\t// in\n    tag_50:\n        /* \"@openzeppelin/contracts@4.4.2/access/Ownable.sol\":1248:1271  owner() == _msgSender() */\n      0xffffffffffffffffffffffffffffffffffffffff\n      and\n      eq\n        /* \"@openzeppelin/contracts@4.4.2/access/Ownable.sol\":1240:1308  require(owner() == _msgSender(), \"Ownable: caller is not the owner\") */\n      tag_51\n      jumpi\n      mload(0x40)\n      0x08c379a000000000000000000000000000000000000000000000000000000000\n      dup2\n      mstore\n      0x04\n      add\n      tag_52\n      swap1\n      tag_46\n      jump\t// in\n    tag_52:\n      mload(0x40)\n      dup1\n      swap2\n      sub\n      swap1\n      revert\n    tag_51:\n        /* \"contracts/Founding Citizens NFT Sale.sol\":2195:2209  storageAddress */\n      dup1\n        /* \"contracts/Founding Citizens NFT Sale.sol\":2177:2192  storageContract */\n      0x01\n      0x00\n        /* \"contracts/Founding Citizens NFT Sale.sol\":2177:2209  storageContract = storageAddress */\n      0x0100\n      exp\n      dup2\n      sload\n      dup2\n      0xffffffffffffffffffffffffffffffffffffffff\n      mul\n      not\n      and\n      swap1\n      dup4\n      0xffffffffffffffffffffffffffffffffffffffff\n      and\n      mul\n      or\n      swap1\n      sstore\n      pop\n        /* \"contracts/Founding Citizens NFT Sale.sol\":2090:2217  function setStorageContractAddress(address storageAddress) public onlyOwner {\r... */\n      pop\n      jump\t// out\n        /* \"@openzeppelin/contracts@4.4.2/access/Ownable.sol\":1668:1769  function renounceOwnership() public virtual onlyOwner {... */\n    tag_25:\n        /* \"@openzeppelin/contracts@4.4.2/access/Ownable.sol\":1259:1271  _msgSender() */\n      tag_55\n        /* \"@openzeppelin/contracts@4.4.2/access/Ownable.sol\":1259:1269  _msgSender */\n      tag_42\n        /* \"@openzeppelin/contracts@4.4.2/access/Ownable.sol\":1259:1271  _msgSender() */\n      jump\t// in\n    tag_55:\n        /* \"@openzeppelin/contracts@4.4.2/access/Ownable.sol\":1248:1271  owner() == _msgSender() */\n      0xffffffffffffffffffffffffffffffffffffffff\n      and\n        /* \"@openzeppelin/contracts@4.4.2/access/Ownable.sol\":1248:1255  owner() */\n      tag_56\n        /* \"@openzeppelin/contracts@4.4.2/access/Ownable.sol\":1248:1253  owner */\n      tag_27\n        /* \"@openzeppelin/contracts@4.4.2/access/Ownable.sol\":1248:1255  owner() */\n      jump\t// in\n    tag_56:\n        /* \"@openzeppelin/contracts@4.4.2/access/Ownable.sol\":1248:1271  owner() == _msgSender() */\n      0xffffffffffffffffffffffffffffffffffffffff\n      and\n      eq\n        /* \"@openzeppelin/contracts@4.4.2/access/Ownable.sol\":1240:1308  require(owner() == _msgSender(), \"Ownable: caller is not the owner\") */\n      tag_57\n      jumpi\n      mload(0x40)\n      0x08c379a000000000000000000000000000000000000000000000000000000000\n      dup2\n      mstore\n      0x04\n      add\n      tag_58\n      swap1\n      tag_46\n      jump\t// in\n    tag_58:\n      mload(0x40)\n      dup1\n      swap2\n      sub\n      swap1\n      revert\n    tag_57:\n        /* \"@openzeppelin/contracts@4.4.2/access/Ownable.sol\":1732:1762  _transferOwnership(address(0)) */\n      tag_60\n        /* \"@openzeppelin/contracts@4.4.2/access/Ownable.sol\":1759:1760  0 */\n      0x00\n        /* \"@openzeppelin/contracts@4.4.2/access/Ownable.sol\":1732:1750  _transferOwnership */\n      tag_61\n        /* \"@openzeppelin/contracts@4.4.2/access/Ownable.sol\":1732:1762  _transferOwnership(address(0)) */\n      jump\t// in\n    tag_60:\n        /* \"@openzeppelin/contracts@4.4.2/access/Ownable.sol\":1668:1769  function renounceOwnership() public virtual onlyOwner {... */\n      jump\t// out\n        /* \"@openzeppelin/contracts@4.4.2/access/Ownable.sol\":1036:1121  function owner() public view virtual returns (address) {... */\n    tag_27:\n        /* \"@openzeppelin/contracts@4.4.2/access/Ownable.sol\":1082:1089  address */\n      0x00\n        /* \"@openzeppelin/contracts@4.4.2/access/Ownable.sol\":1108:1114  _owner */\n      dup1\n      0x00\n      swap1\n      sload\n      swap1\n      0x0100\n      exp\n      swap1\n      div\n      0xffffffffffffffffffffffffffffffffffffffff\n      and\n        /* \"@openzeppelin/contracts@4.4.2/access/Ownable.sol\":1101:1114  return _owner */\n      swap1\n      pop\n        /* \"@openzeppelin/contracts@4.4.2/access/Ownable.sol\":1036:1121  function owner() public view virtual returns (address) {... */\n      swap1\n      jump\t// out\n        /* \"contracts/Founding Citizens NFT Sale.sol\":2357:2507  function preLoadURIs(uint[] memory ids, string[] memory uris) public onlyOwner {\r... */\n    tag_32:\n        /* \"@openzeppelin/contracts@4.4.2/access/Ownable.sol\":1259:1271  _msgSender() */\n      tag_64\n        /* \"@openzeppelin/contracts@4.4.2/access/Ownable.sol\":1259:1269  _msgSender */\n      tag_42\n        /* \"@openzeppelin/contracts@4.4.2/access/Ownable.sol\":1259:1271  _msgSender() */\n      jump\t// in\n    tag_64:\n        /* \"@openzeppelin/contracts@4.4.2/access/Ownable.sol\":1248:1271  owner() == _msgSender() */\n      0xffffffffffffffffffffffffffffffffffffffff\n      and\n        /* \"@openzeppelin/contracts@4.4.2/access/Ownable.sol\":1248:1255  owner() */\n      tag_65\n        /* \"@openzeppelin/contracts@4.4.2/access/Ownable.sol\":1248:1253  owner */\n      tag_27\n        /* \"@openzeppelin/contracts@4.4.2/access/Ownable.sol\":1248:1255  owner() */\n      jump\t// in\n    tag_65:\n        /* \"@openzeppelin/contracts@4.4.2/access/Ownable.sol\":1248:1271  owner() == _msgSender() */\n      0xffffffffffffffffffffffffffffffffffffffff\n      and\n      eq\n        /* \"@openzeppelin/contracts@4.4.2/access/Ownable.sol\":1240:1308  require(owner() == _msgSender(), \"Ownable: caller is not the owner\") */\n      tag_66\n      jumpi\n      mload(0x40)\n      0x08c379a000000000000000000000000000000000000000000000000000000000\n      dup2\n      mstore\n      0x04\n      add\n      tag_67\n      swap1\n      tag_46\n      jump\t// in\n    tag_67:\n      mload(0x40)\n      dup1\n      swap2\n      sub\n      swap1\n      revert\n    tag_66:\n        /* \"contracts/Founding Citizens NFT Sale.sol\":2460:2475  storageContract */\n      0x01\n      0x00\n      swap1\n      sload\n      swap1\n      0x0100\n      exp\n      swap1\n      div\n      0xffffffffffffffffffffffffffffffffffffffff\n      and\n        /* \"contracts/Founding Citizens NFT Sale.sol\":2447:2488  IMintStorage(storageContract).preLoadURIs */\n      0xffffffffffffffffffffffffffffffffffffffff\n      and\n      0xf121da92\n        /* \"contracts/Founding Citizens NFT Sale.sol\":2489:2492  ids */\n      dup4\n        /* \"contracts/Founding Citizens NFT Sale.sol\":2494:2498  uris */\n      dup4\n        /* \"contracts/Founding Citizens NFT Sale.sol\":2447:2499  IMintStorage(storageContract).preLoadURIs(ids, uris) */\n      mload(0x40)\n      dup4\n      0xffffffff\n      and\n      0xe0\n      shl\n      dup2\n      mstore\n      0x04\n      add\n      tag_69\n      swap3\n      swap2\n      swap1\n      tag_70\n      jump\t// in\n    tag_69:\n      0x00\n      mload(0x40)\n      dup1\n      dup4\n      sub\n      dup2\n      0x00\n      dup8\n      dup1\n      extcodesize\n      iszero\n      dup1\n      iszero\n      tag_71\n      jumpi\n      0x00\n      dup1\n      revert\n    tag_71:\n      pop\n      gas\n      call\n      iszero\n      dup1\n      iszero\n      tag_73\n      jumpi\n      returndatasize\n      0x00\n      dup1\n      returndatacopy\n      revert(0x00, returndatasize)\n    tag_73:\n      pop\n      pop\n      pop\n      pop\n        /* \"contracts/Founding Citizens NFT Sale.sol\":2357:2507  function preLoadURIs(uint[] memory ids, string[] memory uris) public onlyOwner {\r... */\n      pop\n      pop\n      jump\t// out\n        /* \"@openzeppelin/contracts@4.4.2/access/Ownable.sol\":1918:2116  function transferOwnership(address newOwner) public virtual onlyOwner {... */\n    tag_35:\n        /* \"@openzeppelin/contracts@4.4.2/access/Ownable.sol\":1259:1271  _msgSender() */\n      tag_75\n        /* \"@openzeppelin/contracts@4.4.2/access/Ownable.sol\":1259:1269  _msgSender */\n      tag_42\n        /* \"@openzeppelin/contracts@4.4.2/access/Ownable.sol\":1259:1271  _msgSender() */\n      jump\t// in\n    tag_75:\n        /* \"@openzeppelin/contracts@4.4.2/access/Ownable.sol\":1248:1271  owner() == _msgSender() */\n      0xffffffffffffffffffffffffffffffffffffffff\n      and\n        /* \"@openzeppelin/contracts@4.4.2/access/Ownable.sol\":1248:1255  owner() */\n      tag_76\n        /* \"@openzeppelin/contracts@4.4.2/access/Ownable.sol\":1248:1253  owner */\n      tag_27\n        /* \"@openzeppelin/contracts@4.4.2/access/Ownable.sol\":1248:1255  owner() */\n      jump\t// in\n    tag_76:\n        /* \"@openzeppelin/contracts@4.4.2/access/Ownable.sol\":1248:1271  owner() == _msgSender() */\n      0xffffffffffffffffffffffffffffffffffffffff\n      and\n      eq\n        /* \"@openzeppelin/contracts@4.4.2/access/Ownable.sol\":1240:1308  require(owner() == _msgSender(), \"Ownable: caller is not the owner\") */\n      tag_77\n      jumpi\n      mload(0x40)\n      0x08c379a000000000000000000000000000000000000000000000000000000000\n      dup2\n      mstore\n      0x04\n      add\n      tag_78\n      swap1\n      tag_46\n      jump\t// in\n    tag_78:\n      mload(0x40)\n      dup1\n      swap2\n      sub\n      swap1\n      revert\n    tag_77:\n        /* \"@openzeppelin/contracts@4.4.2/access/Ownable.sol\":2026:2027  0 */\n      0x00\n        /* \"@openzeppelin/contracts@4.4.2/access/Ownable.sol\":2006:2028  newOwner != address(0) */\n      0xffffffffffffffffffffffffffffffffffffffff\n      and\n        /* \"@openzeppelin/contracts@4.4.2/access/Ownable.sol\":2006:2014  newOwner */\n      dup2\n        /* \"@openzeppelin/contracts@4.4.2/access/Ownable.sol\":2006:2028  newOwner != address(0) */\n      0xffffffffffffffffffffffffffffffffffffffff\n      and\n      eq\n      iszero\n        /* \"@openzeppelin/contracts@4.4.2/access/Ownable.sol\":1998:2071  require(newOwner != address(0), \"Ownable: new owner is the zero address\") */\n      tag_80\n      jumpi\n      mload(0x40)\n      0x08c379a000000000000000000000000000000000000000000000000000000000\n      dup2\n      mstore\n      0x04\n      add\n      tag_81\n      swap1\n      tag_82\n      jump\t// in\n    tag_81:\n      mload(0x40)\n      dup1\n      swap2\n      sub\n      swap1\n      revert\n    tag_80:\n        /* \"@openzeppelin/contracts@4.4.2/access/Ownable.sol\":2081:2109  _transferOwnership(newOwner) */\n      tag_83\n        /* \"@openzeppelin/contracts@4.4.2/access/Ownable.sol\":2100:2108  newOwner */\n      dup2\n        /* \"@openzeppelin/contracts@4.4.2/access/Ownable.sol\":2081:2099  _transferOwnership */\n      tag_61\n        /* \"@openzeppelin/contracts@4.4.2/access/Ownable.sol\":2081:2109  _transferOwnership(newOwner) */\n      jump\t// in\n    tag_83:\n        /* \"@openzeppelin/contracts@4.4.2/access/Ownable.sol\":1918:2116  function transferOwnership(address newOwner) public virtual onlyOwner {... */\n      pop\n      jump\t// out\n        /* \"contracts/Founding Citizens NFT Sale.sol\":1977:2007  bool public isSaleLive = false */\n    tag_37:\n      0x01\n      0x14\n      swap1\n      sload\n      swap1\n      0x0100\n      exp\n      swap1\n      div\n      0xff\n      and\n      dup2\n      jump\t// out\n        /* \"@openzeppelin/contracts@4.4.2/utils/Context.sol\":640:736  function _msgSender() internal view virtual returns (address) {... */\n    tag_42:\n        /* \"@openzeppelin/contracts@4.4.2/utils/Context.sol\":693:700  address */\n      0x00\n        /* \"@openzeppelin/contracts@4.4.2/utils/Context.sol\":719:729  msg.sender */\n      caller\n        /* \"@openzeppelin/contracts@4.4.2/utils/Context.sol\":712:729  return msg.sender */\n      swap1\n      pop\n        /* \"@openzeppelin/contracts@4.4.2/utils/Context.sol\":640:736  function _msgSender() internal view virtual returns (address) {... */\n      swap1\n      jump\t// out\n        /* \"@openzeppelin/contracts@4.4.2/access/Ownable.sol\":2270:2457  function _transferOwnership(address newOwner) internal virtual {... */\n    tag_61:\n        /* \"@openzeppelin/contracts@4.4.2/access/Ownable.sol\":2343:2359  address oldOwner */\n      0x00\n        /* \"@openzeppelin/contracts@4.4.2/access/Ownable.sol\":2362:2368  _owner */\n      dup1\n      0x00\n      swap1\n      sload\n      swap1\n      0x0100\n      exp\n      swap1\n      div\n      0xffffffffffffffffffffffffffffffffffffffff\n      and\n        /* \"@openzeppelin/contracts@4.4.2/access/Ownable.sol\":2343:2368  address oldOwner = _owner */\n      swap1\n      pop\n        /* \"@openzeppelin/contracts@4.4.2/access/Ownable.sol\":2387:2395  newOwner */\n      dup2\n        /* \"@openzeppelin/contracts@4.4.2/access/Ownable.sol\":2378:2384  _owner */\n      0x00\n      dup1\n        /* \"@openzeppelin/contracts@4.4.2/access/Ownable.sol\":2378:2395  _owner = newOwner */\n      0x0100\n      exp\n      dup2\n      sload\n      dup2\n      0xffffffffffffffffffffffffffffffffffffffff\n      mul\n      not\n      and\n      swap1\n      dup4\n      0xffffffffffffffffffffffffffffffffffffffff\n      and\n      mul\n      or\n      swap1\n      sstore\n      pop\n        /* \"@openzeppelin/contracts@4.4.2/access/Ownable.sol\":2441:2449  newOwner */\n      dup2\n        /* \"@openzeppelin/contracts@4.4.2/access/Ownable.sol\":2410:2450  OwnershipTransferred(oldOwner, newOwner) */\n      0xffffffffffffffffffffffffffffffffffffffff\n      and\n        /* \"@openzeppelin/contracts@4.4.2/access/Ownable.sol\":2431:2439  oldOwner */\n      dup2\n        /* \"@openzeppelin/contracts@4.4.2/access/Ownable.sol\":2410:2450  OwnershipTransferred(oldOwner, newOwner) */\n      0xffffffffffffffffffffffffffffffffffffffff\n      and\n      0x8be0079c531659141344cd1fd0a4f28419497f9722a3daafe3b4186f6b6457e0\n      mload(0x40)\n      mload(0x40)\n      dup1\n      swap2\n      sub\n      swap1\n      log3\n        /* \"@openzeppelin/contracts@4.4.2/access/Ownable.sol\":2270:2457  function _transferOwnership(address newOwner) internal virtual {... */\n      pop\n      pop\n      jump\t// out\n        /* \"#utility.yul\":23:639   */\n    tag_87:\n      0x00\n        /* \"#utility.yul\":154:245   */\n      tag_89\n        /* \"#utility.yul\":170:244   */\n      tag_90\n        /* \"#utility.yul\":237:243   */\n      dup5\n        /* \"#utility.yul\":170:244   */\n      tag_91\n      jump\t// in\n    tag_90:\n        /* \"#utility.yul\":154:245   */\n      tag_92\n      jump\t// in\n    tag_89:\n        /* \"#utility.yul\":145:245   */\n      swap1\n      pop\n        /* \"#utility.yul\":265:270   */\n      dup1\n        /* \"#utility.yul\":293:299   */\n      dup4\n        /* \"#utility.yul\":286:291   */\n      dup3\n        /* \"#utility.yul\":279:300   */\n      mstore\n        /* \"#utility.yul\":319:323   */\n      0x20\n        /* \"#utility.yul\":312:317   */\n      dup3\n        /* \"#utility.yul\":308:324   */\n      add\n        /* \"#utility.yul\":301:324   */\n      swap1\n      pop\n        /* \"#utility.yul\":344:350   */\n      dup3\n        /* \"#utility.yul\":375:376   */\n      0x00\n        /* \"#utility.yul\":360:633   */\n    tag_93:\n        /* \"#utility.yul\":385:391   */\n      dup6\n        /* \"#utility.yul\":382:383   */\n      dup2\n        /* \"#utility.yul\":379:392   */\n      lt\n        /* \"#utility.yul\":360:633   */\n      iszero\n      tag_95\n      jumpi\n        /* \"#utility.yul\":477:480   */\n      dup2\n        /* \"#utility.yul\":464:481   */\n      calldataload\n        /* \"#utility.yul\":456:462   */\n      dup6\n        /* \"#utility.yul\":452:482   */\n      add\n        /* \"#utility.yul\":507:554   */\n      tag_96\n        /* \"#utility.yul\":550:553   */\n      dup9\n        /* \"#utility.yul\":538:548   */\n      dup3\n        /* \"#utility.yul\":507:554   */\n      tag_97\n      jump\t// in\n    tag_96:\n        /* \"#utility.yul\":502:505   */\n      dup5\n        /* \"#utility.yul\":495:555   */\n      mstore\n        /* \"#utility.yul\":584:588   */\n      0x20\n        /* \"#utility.yul\":579:582   */\n      dup5\n        /* \"#utility.yul\":575:589   */\n      add\n        /* \"#utility.yul\":568:589   */\n      swap4\n      pop\n        /* \"#utility.yul\":618:622   */\n      0x20\n        /* \"#utility.yul\":613:616   */\n      dup4\n        /* \"#utility.yul\":609:623   */\n      add\n        /* \"#utility.yul\":602:623   */\n      swap3\n      pop\n        /* \"#utility.yul\":420:633   */\n      pop\n        /* \"#utility.yul\":407:408   */\n      0x01\n        /* \"#utility.yul\":404:405   */\n      dup2\n        /* \"#utility.yul\":400:409   */\n      add\n        /* \"#utility.yul\":395:409   */\n      swap1\n      pop\n        /* \"#utility.yul\":360:633   */\n      jump(tag_93)\n    tag_95:\n        /* \"#utility.yul\":364:378   */\n      pop\n        /* \"#utility.yul\":135:639   */\n      pop\n      pop\n      swap4\n      swap3\n      pop\n      pop\n      pop\n      jump\t// out\n        /* \"#utility.yul\":662:1285   */\n    tag_98:\n      0x00\n        /* \"#utility.yul\":783:864   */\n      tag_100\n        /* \"#utility.yul\":799:863   */\n      tag_101\n        /* \"#utility.yul\":856:862   */\n      dup5\n        /* \"#utility.yul\":799:863   */\n      tag_102\n      jump\t// in\n    tag_101:\n        /* \"#utility.yul\":783:864   */\n      tag_92\n      jump\t// in\n    tag_100:\n        /* \"#utility.yul\":774:864   */\n      swap1\n      pop\n        /* \"#utility.yul\":884:889   */\n      dup1\n        /* \"#utility.yul\":912:918   */\n      dup4\n        /* \"#utility.yul\":905:910   */\n      dup3\n        /* \"#utility.yul\":898:919   */\n      mstore\n        /* \"#utility.yul\":938:942   */\n      0x20\n        /* \"#utility.yul\":931:936   */\n      dup3\n        /* \"#utility.yul\":927:943   */\n      add\n        /* \"#utility.yul\":920:943   */\n      swap1\n      pop\n        /* \"#utility.yul\":963:969   */\n      dup3\n        /* \"#utility.yul\":1013:1016   */\n      dup6\n        /* \"#utility.yul\":1005:1009   */\n      0x20\n        /* \"#utility.yul\":997:1003   */\n      dup7\n        /* \"#utility.yul\":993:1010   */\n      mul\n        /* \"#utility.yul\":988:991   */\n      dup3\n        /* \"#utility.yul\":984:1011   */\n      add\n        /* \"#utility.yul\":981:1017   */\n      gt\n        /* \"#utility.yul\":978:980   */\n      iszero\n      tag_103\n      jumpi\n        /* \"#utility.yul\":1030:1031   */\n      0x00\n        /* \"#utility.yul\":1027:1028   */\n      dup1\n        /* \"#utility.yul\":1020:1032   */\n      revert\n        /* \"#utility.yul\":978:980   */\n    tag_103:\n        /* \"#utility.yul\":1058:1059   */\n      0x00\n        /* \"#utility.yul\":1043:1279   */\n    tag_104:\n        /* \"#utility.yul\":1068:1074   */\n      dup6\n        /* \"#utility.yul\":1065:1066   */\n      dup2\n        /* \"#utility.yul\":1062:1075   */\n      lt\n        /* \"#utility.yul\":1043:1279   */\n      iszero\n      tag_106\n      jumpi\n        /* \"#utility.yul\":1135:1138   */\n      dup2\n        /* \"#utility.yul\":1163:1200   */\n      tag_107\n        /* \"#utility.yul\":1196:1199   */\n      dup9\n        /* \"#utility.yul\":1184:1194   */\n      dup3\n        /* \"#utility.yul\":1163:1200   */\n      tag_108\n      jump\t// in\n    tag_107:\n        /* \"#utility.yul\":1158:1161   */\n      dup5\n        /* \"#utility.yul\":1151:1201   */\n      mstore\n        /* \"#utility.yul\":1230:1234   */\n      0x20\n        /* \"#utility.yul\":1225:1228   */\n      dup5\n        /* \"#utility.yul\":1221:1235   */\n      add\n        /* \"#utility.yul\":1214:1235   */\n      swap4\n      pop\n        /* \"#utility.yul\":1264:1268   */\n      0x20\n        /* \"#utility.yul\":1259:1262   */\n      dup4\n        /* \"#utility.yul\":1255:1269   */\n      add\n        /* \"#utility.yul\":1248:1269   */\n      swap3\n      pop\n        /* \"#utility.yul\":1103:1279   */\n      pop\n        /* \"#utility.yul\":1090:1091   */\n      0x01\n        /* \"#utility.yul\":1087:1088   */\n      dup2\n        /* \"#utility.yul\":1083:1092   */\n      add\n        /* \"#utility.yul\":1078:1092   */\n      swap1\n      pop\n        /* \"#utility.yul\":1043:1279   */\n      jump(tag_104)\n    tag_106:\n        /* \"#utility.yul\":1047:1061   */\n      pop\n        /* \"#utility.yul\":764:1285   */\n      pop\n      pop\n      swap4\n      swap3\n      pop\n      pop\n      pop\n      jump\t// out\n        /* \"#utility.yul\":1291:1636   */\n    tag_109:\n      0x00\n        /* \"#utility.yul\":1394:1460   */\n      tag_111\n        /* \"#utility.yul\":1410:1459   */\n      tag_112\n        /* \"#utility.yul\":1452:1458   */\n      dup5\n        /* \"#utility.yul\":1410:1459   */\n      tag_113\n      jump\t// in\n    tag_112:\n        /* \"#utility.yul\":1394:1460   */\n      tag_92\n      jump\t// in\n    tag_111:\n        /* \"#utility.yul\":1385:1460   */\n      swap1\n      pop\n        /* \"#utility.yul\":1483:1489   */\n      dup3\n        /* \"#utility.yul\":1476:1481   */\n      dup2\n        /* \"#utility.yul\":1469:1490   */\n      mstore\n        /* \"#utility.yul\":1521:1525   */\n      0x20\n        /* \"#utility.yul\":1514:1519   */\n      dup2\n        /* \"#utility.yul\":1510:1526   */\n      add\n        /* \"#utility.yul\":1559:1562   */\n      dup5\n        /* \"#utility.yul\":1550:1556   */\n      dup5\n        /* \"#utility.yul\":1545:1548   */\n      dup5\n        /* \"#utility.yul\":1541:1557   */\n      add\n        /* \"#utility.yul\":1538:1563   */\n      gt\n        /* \"#utility.yul\":1535:1537   */\n      iszero\n      tag_114\n      jumpi\n        /* \"#utility.yul\":1576:1577   */\n      0x00\n        /* \"#utility.yul\":1573:1574   */\n      dup1\n        /* \"#utility.yul\":1566:1578   */\n      revert\n        /* \"#utility.yul\":1535:1537   */\n    tag_114:\n        /* \"#utility.yul\":1589:1630   */\n      tag_115\n        /* \"#utility.yul\":1623:1629   */\n      dup5\n        /* \"#utility.yul\":1618:1621   */\n      dup3\n        /* \"#utility.yul\":1613:1616   */\n      dup6\n        /* \"#utility.yul\":1589:1630   */\n      tag_116\n      jump\t// in\n    tag_115:\n        /* \"#utility.yul\":1375:1636   */\n      pop\n      swap4\n      swap3\n      pop\n      pop\n      pop\n      jump\t// out\n        /* \"#utility.yul\":1642:1781   */\n    tag_117:\n      0x00\n        /* \"#utility.yul\":1726:1732   */\n      dup2\n        /* \"#utility.yul\":1713:1733   */\n      calldataload\n        /* \"#utility.yul\":1704:1733   */\n      swap1\n      pop\n        /* \"#utility.yul\":1742:1775   */\n      tag_119\n        /* \"#utility.yul\":1769:1774   */\n      dup2\n        /* \"#utility.yul\":1742:1775   */\n      tag_120\n      jump\t// in\n    tag_119:\n        /* \"#utility.yul\":1694:1781   */\n      swap3\n      swap2\n      pop\n      pop\n      jump\t// out\n        /* \"#utility.yul\":1803:2126   */\n    tag_121:\n      0x00\n        /* \"#utility.yul\":1933:1936   */\n      dup3\n        /* \"#utility.yul\":1926:1930   */\n      0x1f\n        /* \"#utility.yul\":1918:1924   */\n      dup4\n        /* \"#utility.yul\":1914:1931   */\n      add\n        /* \"#utility.yul\":1910:1937   */\n      slt\n        /* \"#utility.yul\":1900:1902   */\n      tag_123\n      jumpi\n        /* \"#utility.yul\":1951:1952   */\n      0x00\n        /* \"#utility.yul\":1948:1949   */\n      dup1\n        /* \"#utility.yul\":1941:1953   */\n      revert\n        /* \"#utility.yul\":1900:1902   */\n    tag_123:\n        /* \"#utility.yul\":1991:1997   */\n      dup2\n        /* \"#utility.yul\":1978:1998   */\n      calldataload\n        /* \"#utility.yul\":2016:2120   */\n      tag_124\n        /* \"#utility.yul\":2116:2119   */\n      dup5\n        /* \"#utility.yul\":2108:2114   */\n      dup3\n        /* \"#utility.yul\":2101:2105   */\n      0x20\n        /* \"#utility.yul\":2093:2099   */\n      dup7\n        /* \"#utility.yul\":2089:2106   */\n      add\n        /* \"#utility.yul\":2016:2120   */\n      tag_87\n      jump\t// in\n    tag_124:\n        /* \"#utility.yul\":2007:2120   */\n      swap2\n      pop\n        /* \"#utility.yul\":1890:2126   */\n      pop\n      swap3\n      swap2\n      pop\n      pop\n      jump\t// out\n        /* \"#utility.yul\":2149:2452   */\n    tag_125:\n      0x00\n        /* \"#utility.yul\":2269:2272   */\n      dup3\n        /* \"#utility.yul\":2262:2266   */\n      0x1f\n        /* \"#utility.yul\":2254:2260   */\n      dup4\n        /* \"#utility.yul\":2250:2267   */\n      add\n        /* \"#utility.yul\":2246:2273   */\n      slt\n        /* \"#utility.yul\":2236:2238   */\n      tag_127\n      jumpi\n        /* \"#utility.yul\":2287:2288   */\n      0x00\n        /* \"#utility.yul\":2284:2285   */\n      dup1\n        /* \"#utility.yul\":2277:2289   */\n      revert\n        /* \"#utility.yul\":2236:2238   */\n    tag_127:\n        /* \"#utility.yul\":2327:2333   */\n      dup2\n        /* \"#utility.yul\":2314:2334   */\n      calldataload\n        /* \"#utility.yul\":2352:2446   */\n      tag_128\n        /* \"#utility.yul\":2442:2445   */\n      dup5\n        /* \"#utility.yul\":2434:2440   */\n      dup3\n        /* \"#utility.yul\":2427:2431   */\n      0x20\n        /* \"#utility.yul\":2419:2425   */\n      dup7\n        /* \"#utility.yul\":2415:2432   */\n      add\n        /* \"#utility.yul\":2352:2446   */\n      tag_98\n      jump\t// in\n    tag_128:\n        /* \"#utility.yul\":2343:2446   */\n      swap2\n      pop\n        /* \"#utility.yul\":2226:2452   */\n      pop\n      swap3\n      swap2\n      pop\n      pop\n      jump\t// out\n        /* \"#utility.yul\":2472:2745   */\n    tag_97:\n      0x00\n        /* \"#utility.yul\":2577:2580   */\n      dup3\n        /* \"#utility.yul\":2570:2574   */\n      0x1f\n        /* \"#utility.yul\":2562:2568   */\n      dup4\n        /* \"#utility.yul\":2558:2575   */\n      add\n        /* \"#utility.yul\":2554:2581   */\n      slt\n        /* \"#utility.yul\":2544:2546   */\n      tag_130\n      jumpi\n        /* \"#utility.yul\":2595:2596   */\n      0x00\n        /* \"#utility.yul\":2592:2593   */\n      dup1\n        /* \"#utility.yul\":2585:2597   */\n      revert\n        /* \"#utility.yul\":2544:2546   */\n    tag_130:\n        /* \"#utility.yul\":2635:2641   */\n      dup2\n        /* \"#utility.yul\":2622:2642   */\n      calldataload\n        /* \"#utility.yul\":2660:2739   */\n      tag_131\n        /* \"#utility.yul\":2735:2738   */\n      dup5\n        /* \"#utility.yul\":2727:2733   */\n      dup3\n        /* \"#utility.yul\":2720:2724   */\n      0x20\n        /* \"#utility.yul\":2712:2718   */\n      dup7\n        /* \"#utility.yul\":2708:2725   */\n      add\n        /* \"#utility.yul\":2660:2739   */\n      tag_109\n      jump\t// in\n    tag_131:\n        /* \"#utility.yul\":2651:2739   */\n      swap2\n      pop\n        /* \"#utility.yul\":2534:2745   */\n      pop\n      swap3\n      swap2\n      pop\n      pop\n      jump\t// out\n        /* \"#utility.yul\":2751:2890   */\n    tag_108:\n      0x00\n        /* \"#utility.yul\":2835:2841   */\n      dup2\n        /* \"#utility.yul\":2822:2842   */\n      calldataload\n        /* \"#utility.yul\":2813:2842   */\n      swap1\n      pop\n        /* \"#utility.yul\":2851:2884   */\n      tag_133\n        /* \"#utility.yul\":2878:2883   */\n      dup2\n        /* \"#utility.yul\":2851:2884   */\n      tag_134\n      jump\t// in\n    tag_133:\n        /* \"#utility.yul\":2803:2890   */\n      swap3\n      swap2\n      pop\n      pop\n      jump\t// out\n        /* \"#utility.yul\":2896:3158   */\n    tag_22:\n      0x00\n        /* \"#utility.yul\":3004:3006   */\n      0x20\n        /* \"#utility.yul\":2992:3001   */\n      dup3\n        /* \"#utility.yul\":2983:2990   */\n      dup5\n        /* \"#utility.yul\":2979:3002   */\n      sub\n        /* \"#utility.yul\":2975:3007   */\n      slt\n        /* \"#utility.yul\":2972:2974   */\n      iszero\n      tag_136\n      jumpi\n        /* \"#utility.yul\":3020:3021   */\n      0x00\n        /* \"#utility.yul\":3017:3018   */\n      dup1\n        /* \"#utility.yul\":3010:3022   */\n      revert\n        /* \"#utility.yul\":2972:2974   */\n    tag_136:\n        /* \"#utility.yul\":3063:3064   */\n      0x00\n        /* \"#utility.yul\":3088:3141   */\n      tag_137\n        /* \"#utility.yul\":3133:3140   */\n      dup5\n        /* \"#utility.yul\":3124:3130   */\n      dup3\n        /* \"#utility.yul\":3113:3122   */\n      dup6\n        /* \"#utility.yul\":3109:3131   */\n      add\n        /* \"#utility.yul\":3088:3141   */\n      tag_117\n      jump\t// in\n    tag_137:\n        /* \"#utility.yul\":3078:3141   */\n      swap2\n      pop\n        /* \"#utility.yul\":3034:3151   */\n      pop\n        /* \"#utility.yul\":2962:3158   */\n      swap3\n      swap2\n      pop\n      pop\n      jump\t// out\n        /* \"#utility.yul\":3164:3877   */\n    tag_31:\n      0x00\n      dup1\n        /* \"#utility.yul\":3349:3351   */\n      0x40\n        /* \"#utility.yul\":3337:3346   */\n      dup4\n        /* \"#utility.yul\":3328:3335   */\n      dup6\n        /* \"#utility.yul\":3324:3347   */\n      sub\n        /* \"#utility.yul\":3320:3352   */\n      slt\n        /* \"#utility.yul\":3317:3319   */\n      iszero\n      tag_139\n      jumpi\n        /* \"#utility.yul\":3365:3366   */\n      0x00\n        /* \"#utility.yul\":3362:3363   */\n      dup1\n        /* \"#utility.yul\":3355:3367   */\n      revert\n        /* \"#utility.yul\":3317:3319   */\n    tag_139:\n        /* \"#utility.yul\":3436:3437   */\n      0x00\n        /* \"#utility.yul\":3425:3434   */\n      dup4\n        /* \"#utility.yul\":3421:3438   */\n      add\n        /* \"#utility.yul\":3408:3439   */\n      calldataload\n        /* \"#utility.yul\":3466:3484   */\n      0xffffffffffffffff\n        /* \"#utility.yul\":3458:3464   */\n      dup2\n        /* \"#utility.yul\":3455:3485   */\n      gt\n        /* \"#utility.yul\":3452:3454   */\n      iszero\n      tag_140\n      jumpi\n        /* \"#utility.yul\":3498:3499   */\n      0x00\n        /* \"#utility.yul\":3495:3496   */\n      dup1\n        /* \"#utility.yul\":3488:3500   */\n      revert\n        /* \"#utility.yul\":3452:3454   */\n    tag_140:\n        /* \"#utility.yul\":3526:3604   */\n      tag_141\n        /* \"#utility.yul\":3596:3603   */\n      dup6\n        /* \"#utility.yul\":3587:3593   */\n      dup3\n        /* \"#utility.yul\":3576:3585   */\n      dup7\n        /* \"#utility.yul\":3572:3594   */\n      add\n        /* \"#utility.yul\":3526:3604   */\n      tag_125\n      jump\t// in\n    tag_141:\n        /* \"#utility.yul\":3516:3604   */\n      swap3\n      pop\n        /* \"#utility.yul\":3379:3614   */\n      pop\n        /* \"#utility.yul\":3681:3683   */\n      0x20\n        /* \"#utility.yul\":3670:3679   */\n      dup4\n        /* \"#utility.yul\":3666:3684   */\n      add\n        /* \"#utility.yul\":3653:3685   */\n      calldataload\n        /* \"#utility.yul\":3712:3730   */\n      0xffffffffffffffff\n        /* \"#utility.yul\":3704:3710   */\n      dup2\n        /* \"#utility.yul\":3701:3731   */\n      gt\n        /* \"#utility.yul\":3698:3700   */\n      iszero\n      tag_142\n      jumpi\n        /* \"#utility.yul\":3744:3745   */\n      0x00\n        /* \"#utility.yul\":3741:3742   */\n      dup1\n        /* \"#utility.yul\":3734:3746   */\n      revert\n        /* \"#utility.yul\":3698:3700   */\n    tag_142:\n        /* \"#utility.yul\":3772:3860   */\n      tag_143\n        /* \"#utility.yul\":3852:3859   */\n      dup6\n        /* \"#utility.yul\":3843:3849   */\n      dup3\n        /* \"#utility.yul\":3832:3841   */\n      dup7\n        /* \"#utility.yul\":3828:3850   */\n      add\n        /* \"#utility.yul\":3772:3860   */\n      tag_121\n      jump\t// in\n    tag_143:\n        /* \"#utility.yul\":3762:3860   */\n      swap2\n      pop\n        /* \"#utility.yul\":3624:3870   */\n      pop\n        /* \"#utility.yul\":3307:3877   */\n      swap3\n      pop\n      swap3\n      swap1\n      pop\n      jump\t// out\n        /* \"#utility.yul\":3883:4145   */\n    tag_14:\n      0x00\n        /* \"#utility.yul\":3991:3993   */\n      0x20\n        /* \"#utility.yul\":3979:3988   */\n      dup3\n        /* \"#utility.yul\":3970:3977   */\n      dup5\n        /* \"#utility.yul\":3966:3989   */\n      sub\n        /* \"#utility.yul\":3962:3994   */\n      slt\n        /* \"#utility.yul\":3959:3961   */\n      iszero\n      tag_145\n      jumpi\n        /* \"#utility.yul\":4007:4008   */\n      0x00\n        /* \"#utility.yul\":4004:4005   */\n      dup1\n        /* \"#utility.yul\":3997:4009   */\n      revert\n        /* \"#utility.yul\":3959:3961   */\n    tag_145:\n        /* \"#utility.yul\":4050:4051   */\n      0x00\n        /* \"#utility.yul\":4075:4128   */\n      tag_146\n        /* \"#utility.yul\":4120:4127   */\n      dup5\n        /* \"#utility.yul\":4111:4117   */\n      dup3\n        /* \"#utility.yul\":4100:4109   */\n      dup6\n        /* \"#utility.yul\":4096:4118   */\n      add\n        /* \"#utility.yul\":4075:4128   */\n      tag_108\n      jump\t// in\n    tag_146:\n        /* \"#utility.yul\":4065:4128   */\n      swap2\n      pop\n        /* \"#utility.yul\":4021:4138   */\n      pop\n        /* \"#utility.yul\":3949:4145   */\n      swap3\n      swap2\n      pop\n      pop\n      jump\t// out\n        /* \"#utility.yul\":4151:4347   */\n    tag_147:\n      0x00\n        /* \"#utility.yul\":4275:4341   */\n      tag_149\n        /* \"#utility.yul\":4337:4340   */\n      dup4\n        /* \"#utility.yul\":4329:4335   */\n      dup4\n        /* \"#utility.yul\":4275:4341   */\n      tag_150\n      jump\t// in\n    tag_149:\n        /* \"#utility.yul\":4261:4341   */\n      swap1\n      pop\n        /* \"#utility.yul\":4251:4347   */\n      swap3\n      swap2\n      pop\n      pop\n      jump\t// out\n        /* \"#utility.yul\":4353:4532   */\n    tag_151:\n      0x00\n        /* \"#utility.yul\":4443:4489   */\n      tag_153\n        /* \"#utility.yul\":4485:4488   */\n      dup4\n        /* \"#utility.yul\":4477:4483   */\n      dup4\n        /* \"#utility.yul\":4443:4489   */\n      tag_154\n      jump\t// in\n    tag_153:\n        /* \"#utility.yul\":4521:4525   */\n      0x20\n        /* \"#utility.yul\":4516:4519   */\n      dup4\n        /* \"#utility.yul\":4512:4526   */\n      add\n        /* \"#utility.yul\":4498:4526   */\n      swap1\n      pop\n        /* \"#utility.yul\":4433:4532   */\n      swap3\n      swap2\n      pop\n      pop\n      jump\t// out\n        /* \"#utility.yul\":4538:4656   */\n    tag_155:\n        /* \"#utility.yul\":4625:4649   */\n      tag_157\n        /* \"#utility.yul\":4643:4648   */\n      dup2\n        /* \"#utility.yul\":4625:4649   */\n      tag_158\n      jump\t// in\n    tag_157:\n        /* \"#utility.yul\":4620:4623   */\n      dup3\n        /* \"#utility.yul\":4613:4650   */\n      mstore\n        /* \"#utility.yul\":4603:4656   */\n      pop\n      pop\n      jump\t// out\n        /* \"#utility.yul\":4690:5681   */\n    tag_159:\n      0x00\n        /* \"#utility.yul\":4858:4922   */\n      tag_161\n        /* \"#utility.yul\":4916:4921   */\n      dup3\n        /* \"#utility.yul\":4858:4922   */\n      tag_162\n      jump\t// in\n    tag_161:\n        /* \"#utility.yul\":4938:5034   */\n      tag_163\n        /* \"#utility.yul\":5027:5033   */\n      dup2\n        /* \"#utility.yul\":5022:5025   */\n      dup6\n        /* \"#utility.yul\":4938:5034   */\n      tag_164\n      jump\t// in\n    tag_163:\n        /* \"#utility.yul\":4931:5034   */\n      swap4\n      pop\n        /* \"#utility.yul\":5060:5063   */\n      dup4\n        /* \"#utility.yul\":5105:5109   */\n      0x20\n        /* \"#utility.yul\":5097:5103   */\n      dup3\n        /* \"#utility.yul\":5093:5110   */\n      mul\n        /* \"#utility.yul\":5088:5091   */\n      dup6\n        /* \"#utility.yul\":5084:5111   */\n      add\n        /* \"#utility.yul\":5135:5201   */\n      tag_165\n        /* \"#utility.yul\":5195:5200   */\n      dup6\n        /* \"#utility.yul\":5135:5201   */\n      tag_166\n      jump\t// in\n    tag_165:\n        /* \"#utility.yul\":5224:5231   */\n      dup1\n        /* \"#utility.yul\":5255:5256   */\n      0x00\n        /* \"#utility.yul\":5240:5636   */\n    tag_167:\n        /* \"#utility.yul\":5265:5271   */\n      dup6\n        /* \"#utility.yul\":5262:5263   */\n      dup2\n        /* \"#utility.yul\":5259:5272   */\n      lt\n        /* \"#utility.yul\":5240:5636   */\n      iszero\n      tag_169\n      jumpi\n        /* \"#utility.yul\":5336:5345   */\n      dup5\n        /* \"#utility.yul\":5330:5334   */\n      dup5\n        /* \"#utility.yul\":5326:5346   */\n      sub\n        /* \"#utility.yul\":5321:5324   */\n      dup10\n        /* \"#utility.yul\":5314:5347   */\n      mstore\n        /* \"#utility.yul\":5387:5393   */\n      dup2\n        /* \"#utility.yul\":5381:5394   */\n      mload\n        /* \"#utility.yul\":5415:5499   */\n      tag_170\n        /* \"#utility.yul\":5494:5498   */\n      dup6\n        /* \"#utility.yul\":5479:5492   */\n      dup3\n        /* \"#utility.yul\":5415:5499   */\n      tag_147\n      jump\t// in\n    tag_170:\n        /* \"#utility.yul\":5407:5499   */\n      swap5\n      pop\n        /* \"#utility.yul\":5522:5592   */\n      tag_171\n        /* \"#utility.yul\":5585:5591   */\n      dup4\n        /* \"#utility.yul\":5522:5592   */\n      tag_172\n      jump\t// in\n    tag_171:\n        /* \"#utility.yul\":5512:5592   */\n      swap3\n      pop\n        /* \"#utility.yul\":5621:5625   */\n      0x20\n        /* \"#utility.yul\":5616:5619   */\n      dup11\n        /* \"#utility.yul\":5612:5626   */\n      add\n        /* \"#utility.yul\":5605:5626   */\n      swap10\n      pop\n        /* \"#utility.yul\":5300:5636   */\n      pop\n        /* \"#utility.yul\":5287:5288   */\n      0x01\n        /* \"#utility.yul\":5284:5285   */\n      dup2\n        /* \"#utility.yul\":5280:5289   */\n      add\n        /* \"#utility.yul\":5275:5289   */\n      swap1\n      pop\n        /* \"#utility.yul\":5240:5636   */\n      jump(tag_167)\n    tag_169:\n        /* \"#utility.yul\":5244:5258   */\n      pop\n        /* \"#utility.yul\":5652:5656   */\n      dup3\n        /* \"#utility.yul\":5645:5656   */\n      swap8\n      pop\n        /* \"#utility.yul\":5672:5675   */\n      dup8\n        /* \"#utility.yul\":5665:5675   */\n      swap6\n      pop\n        /* \"#utility.yul\":4834:5681   */\n      pop\n      pop\n      pop\n      pop\n      pop\n      swap3\n      swap2\n      pop\n      pop\n      jump\t// out\n        /* \"#utility.yul\":5717:6449   */\n    tag_173:\n      0x00\n        /* \"#utility.yul\":5865:5919   */\n      tag_175\n        /* \"#utility.yul\":5913:5918   */\n      dup3\n        /* \"#utility.yul\":5865:5919   */\n      tag_176\n      jump\t// in\n    tag_175:\n        /* \"#utility.yul\":5935:6021   */\n      tag_177\n        /* \"#utility.yul\":6014:6020   */\n      dup2\n        /* \"#utility.yul\":6009:6012   */\n      dup6\n        /* \"#utility.yul\":5935:6021   */\n      tag_178\n      jump\t// in\n    tag_177:\n        /* \"#utility.yul\":5928:6021   */\n      swap4\n      pop\n        /* \"#utility.yul\":6045:6101   */\n      tag_179\n        /* \"#utility.yul\":6095:6100   */\n      dup4\n        /* \"#utility.yul\":6045:6101   */\n      tag_180\n      jump\t// in\n    tag_179:\n        /* \"#utility.yul\":6124:6131   */\n      dup1\n        /* \"#utility.yul\":6155:6156   */\n      0x00\n        /* \"#utility.yul\":6140:6424   */\n    tag_181:\n        /* \"#utility.yul\":6165:6171   */\n      dup4\n        /* \"#utility.yul\":6162:6163   */\n      dup2\n        /* \"#utility.yul\":6159:6172   */\n      lt\n        /* \"#utility.yul\":6140:6424   */\n      iszero\n      tag_183\n      jumpi\n        /* \"#utility.yul\":6241:6247   */\n      dup2\n        /* \"#utility.yul\":6235:6248   */\n      mload\n        /* \"#utility.yul\":6268:6331   */\n      tag_184\n        /* \"#utility.yul\":6327:6330   */\n      dup9\n        /* \"#utility.yul\":6312:6325   */\n      dup3\n        /* \"#utility.yul\":6268:6331   */\n      tag_151\n      jump\t// in\n    tag_184:\n        /* \"#utility.yul\":6261:6331   */\n      swap8\n      pop\n        /* \"#utility.yul\":6354:6414   */\n      tag_185\n        /* \"#utility.yul\":6407:6413   */\n      dup4\n        /* \"#utility.yul\":6354:6414   */\n      tag_186\n      jump\t// in\n    tag_185:\n        /* \"#utility.yul\":6344:6414   */\n      swap3\n      pop\n        /* \"#utility.yul\":6200:6424   */\n      pop\n        /* \"#utility.yul\":6187:6188   */\n      0x01\n        /* \"#utility.yul\":6184:6185   */\n      dup2\n        /* \"#utility.yul\":6180:6189   */\n      add\n        /* \"#utility.yul\":6175:6189   */\n      swap1\n      pop\n        /* \"#utility.yul\":6140:6424   */\n      jump(tag_181)\n    tag_183:\n        /* \"#utility.yul\":6144:6158   */\n      pop\n        /* \"#utility.yul\":6440:6443   */\n      dup6\n        /* \"#utility.yul\":6433:6443   */\n      swap4\n      pop\n        /* \"#utility.yul\":5841:6449   */\n      pop\n      pop\n      pop\n      swap3\n      swap2\n      pop\n      pop\n      jump\t// out\n        /* \"#utility.yul\":6455:6564   */\n    tag_187:\n        /* \"#utility.yul\":6536:6557   */\n      tag_189\n        /* \"#utility.yul\":6551:6556   */\n      dup2\n        /* \"#utility.yul\":6536:6557   */\n      tag_190\n      jump\t// in\n    tag_189:\n        /* \"#utility.yul\":6531:6534   */\n      dup3\n        /* \"#utility.yul\":6524:6558   */\n      mstore\n        /* \"#utility.yul\":6514:6564   */\n      pop\n      pop\n      jump\t// out\n        /* \"#utility.yul\":6570:6914   */\n    tag_150:\n      0x00\n        /* \"#utility.yul\":6676:6715   */\n      tag_192\n        /* \"#utility.yul\":6709:6714   */\n      dup3\n        /* \"#utility.yul\":6676:6715   */\n      tag_193\n      jump\t// in\n    tag_192:\n        /* \"#utility.yul\":6731:6792   */\n      tag_194\n        /* \"#utility.yul\":6785:6791   */\n      dup2\n        /* \"#utility.yul\":6780:6783   */\n      dup6\n        /* \"#utility.yul\":6731:6792   */\n      tag_195\n      jump\t// in\n    tag_194:\n        /* \"#utility.yul\":6724:6792   */\n      swap4\n      pop\n        /* \"#utility.yul\":6801:6853   */\n      tag_196\n        /* \"#utility.yul\":6846:6852   */\n      dup2\n        /* \"#utility.yul\":6841:6844   */\n      dup6\n        /* \"#utility.yul\":6834:6838   */\n      0x20\n        /* \"#utility.yul\":6827:6832   */\n      dup7\n        /* \"#utility.yul\":6823:6839   */\n      add\n        /* \"#utility.yul\":6801:6853   */\n      tag_197\n      jump\t// in\n    tag_196:\n        /* \"#utility.yul\":6878:6907   */\n      tag_198\n        /* \"#utility.yul\":6900:6906   */\n      dup2\n        /* \"#utility.yul\":6878:6907   */\n      tag_199\n      jump\t// in\n    tag_198:\n        /* \"#utility.yul\":6873:6876   */\n      dup5\n        /* \"#utility.yul\":6869:6908   */\n      add\n        /* \"#utility.yul\":6862:6908   */\n      swap2\n      pop\n        /* \"#utility.yul\":6652:6914   */\n      pop\n      swap3\n      swap2\n      pop\n      pop\n      jump\t// out\n        /* \"#utility.yul\":6920:7286   */\n    tag_200:\n      0x00\n        /* \"#utility.yul\":7083:7150   */\n      tag_202\n        /* \"#utility.yul\":7147:7149   */\n      0x26\n        /* \"#utility.yul\":7142:7145   */\n      dup4\n        /* \"#utility.yul\":7083:7150   */\n      tag_203\n      jump\t// in\n    tag_202:\n        /* \"#utility.yul\":7076:7150   */\n      swap2\n      pop\n        /* \"#utility.yul\":7159:7252   */\n      tag_204\n        /* \"#utility.yul\":7248:7251   */\n      dup3\n        /* \"#utility.yul\":7159:7252   */\n      tag_205\n      jump\t// in\n    tag_204:\n        /* \"#utility.yul\":7277:7279   */\n      0x40\n        /* \"#utility.yul\":7272:7275   */\n      dup3\n        /* \"#utility.yul\":7268:7280   */\n      add\n        /* \"#utility.yul\":7261:7280   */\n      swap1\n      pop\n        /* \"#utility.yul\":7066:7286   */\n      swap2\n      swap1\n      pop\n      jump\t// out\n        /* \"#utility.yul\":7292:7658   */\n    tag_206:\n      0x00\n        /* \"#utility.yul\":7455:7522   */\n      tag_208\n        /* \"#utility.yul\":7519:7521   */\n      0x20\n        /* \"#utility.yul\":7514:7517   */\n      dup4\n        /* \"#utility.yul\":7455:7522   */\n      tag_203\n      jump\t// in\n    tag_208:\n        /* \"#utility.yul\":7448:7522   */\n      swap2\n      pop\n        /* \"#utility.yul\":7531:7624   */\n      tag_209\n        /* \"#utility.yul\":7620:7623   */\n      dup3\n        /* \"#utility.yul\":7531:7624   */\n      tag_210\n      jump\t// in\n    tag_209:\n        /* \"#utility.yul\":7649:7651   */\n      0x20\n        /* \"#utility.yul\":7644:7647   */\n      dup3\n        /* \"#utility.yul\":7640:7652   */\n      add\n        /* \"#utility.yul\":7633:7652   */\n      swap1\n      pop\n        /* \"#utility.yul\":7438:7658   */\n      swap2\n      swap1\n      pop\n      jump\t// out\n        /* \"#utility.yul\":7664:7772   */\n    tag_154:\n        /* \"#utility.yul\":7741:7765   */\n      tag_212\n        /* \"#utility.yul\":7759:7764   */\n      dup2\n        /* \"#utility.yul\":7741:7765   */\n      tag_213\n      jump\t// in\n    tag_212:\n        /* \"#utility.yul\":7736:7739   */\n      dup3\n        /* \"#utility.yul\":7729:7766   */\n      mstore\n        /* \"#utility.yul\":7719:7772   */\n      pop\n      pop\n      jump\t// out\n        /* \"#utility.yul\":7778:8000   */\n    tag_19:\n      0x00\n        /* \"#utility.yul\":7909:7911   */\n      0x20\n        /* \"#utility.yul\":7898:7907   */\n      dup3\n        /* \"#utility.yul\":7894:7912   */\n      add\n        /* \"#utility.yul\":7886:7912   */\n      swap1\n      pop\n        /* \"#utility.yul\":7922:7993   */\n      tag_215\n        /* \"#utility.yul\":7990:7991   */\n      0x00\n        /* \"#utility.yul\":7979:7988   */\n      dup4\n        /* \"#utility.yul\":7975:7992   */\n      add\n        /* \"#utility.yul\":7966:7972   */\n      dup5\n        /* \"#utility.yul\":7922:7993   */\n      tag_155\n      jump\t// in\n    tag_215:\n        /* \"#utility.yul\":7876:8000   */\n      swap3\n      swap2\n      pop\n      pop\n      jump\t// out\n        /* \"#utility.yul\":8006:8680   */\n    tag_70:\n      0x00\n        /* \"#utility.yul\":8285:8287   */\n      0x40\n        /* \"#utility.yul\":8274:8283   */\n      dup3\n        /* \"#utility.yul\":8270:8288   */\n      add\n        /* \"#utility.yul\":8262:8288   */\n      swap1\n      pop\n        /* \"#utility.yul\":8334:8343   */\n      dup2\n        /* \"#utility.yul\":8328:8332   */\n      dup2\n        /* \"#utility.yul\":8324:8344   */\n      sub\n        /* \"#utility.yul\":8320:8321   */\n      0x00\n        /* \"#utility.yul\":8309:8318   */\n      dup4\n        /* \"#utility.yul\":8305:8322   */\n      add\n        /* \"#utility.yul\":8298:8345   */\n      mstore\n        /* \"#utility.yul\":8362:8470   */\n      tag_217\n        /* \"#utility.yul\":8465:8469   */\n      dup2\n        /* \"#utility.yul\":8456:8462   */\n      dup6\n        /* \"#utility.yul\":8362:8470   */\n      tag_173\n      jump\t// in\n    tag_217:\n        /* \"#utility.yul\":8354:8470   */\n      swap1\n      pop\n        /* \"#utility.yul\":8517:8526   */\n      dup2\n        /* \"#utility.yul\":8511:8515   */\n      dup2\n        /* \"#utility.yul\":8507:8527   */\n      sub\n        /* \"#utility.yul\":8502:8504   */\n      0x20\n        /* \"#utility.yul\":8491:8500   */\n      dup4\n        /* \"#utility.yul\":8487:8505   */\n      add\n        /* \"#utility.yul\":8480:8528   */\n      mstore\n        /* \"#utility.yul\":8545:8673   */\n      tag_218\n        /* \"#utility.yul\":8668:8672   */\n      dup2\n        /* \"#utility.yul\":8659:8665   */\n      dup5\n        /* \"#utility.yul\":8545:8673   */\n      tag_159\n      jump\t// in\n    tag_218:\n        /* \"#utility.yul\":8537:8673   */\n      swap1\n      pop\n        /* \"#utility.yul\":8252:8680   */\n      swap4\n      swap3\n      pop\n      pop\n      pop\n      jump\t// out\n        /* \"#utility.yul\":8686:8896   */\n    tag_39:\n      0x00\n        /* \"#utility.yul\":8811:8813   */\n      0x20\n        /* \"#utility.yul\":8800:8809   */\n      dup3\n        /* \"#utility.yul\":8796:8814   */\n      add\n        /* \"#utility.yul\":8788:8814   */\n      swap1\n      pop\n        /* \"#utility.yul\":8824:8889   */\n      tag_220\n        /* \"#utility.yul\":8886:8887   */\n      0x00\n        /* \"#utility.yul\":8875:8884   */\n      dup4\n        /* \"#utility.yul\":8871:8888   */\n      add\n        /* \"#utility.yul\":8862:8868   */\n      dup5\n        /* \"#utility.yul\":8824:8889   */\n      tag_187\n      jump\t// in\n    tag_220:\n        /* \"#utility.yul\":8778:8896   */\n      swap3\n      swap2\n      pop\n      pop\n      jump\t// out\n        /* \"#utility.yul\":8902:9321   */\n    tag_82:\n      0x00\n        /* \"#utility.yul\":9106:9108   */\n      0x20\n        /* \"#utility.yul\":9095:9104   */\n      dup3\n        /* \"#utility.yul\":9091:9109   */\n      add\n        /* \"#utility.yul\":9083:9109   */\n      swap1\n      pop\n        /* \"#utility.yul\":9155:9164   */\n      dup2\n        /* \"#utility.yul\":9149:9153   */\n      dup2\n        /* \"#utility.yul\":9145:9165   */\n      sub\n        /* \"#utility.yul\":9141:9142   */\n      0x00\n        /* \"#utility.yul\":9130:9139   */\n      dup4\n        /* \"#utility.yul\":9126:9143   */\n      add\n        /* \"#utility.yul\":9119:9166   */\n      mstore\n        /* \"#utility.yul\":9183:9314   */\n      tag_222\n        /* \"#utility.yul\":9309:9313   */\n      dup2\n        /* \"#utility.yul\":9183:9314   */\n      tag_200\n      jump\t// in\n    tag_222:\n        /* \"#utility.yul\":9175:9314   */\n      swap1\n      pop\n        /* \"#utility.yul\":9073:9321   */\n      swap2\n      swap1\n      pop\n      jump\t// out\n        /* \"#utility.yul\":9327:9746   */\n    tag_46:\n      0x00\n        /* \"#utility.yul\":9531:9533   */\n      0x20\n        /* \"#utility.yul\":9520:9529   */\n      dup3\n        /* \"#utility.yul\":9516:9534   */\n      add\n        /* \"#utility.yul\":9508:9534   */\n      swap1\n      pop\n        /* \"#utility.yul\":9580:9589   */\n      dup2\n        /* \"#utility.yul\":9574:9578   */\n      dup2\n        /* \"#utility.yul\":9570:9590   */\n      sub\n        /* \"#utility.yul\":9566:9567   */\n      0x00\n        /* \"#utility.yul\":9555:9564   */\n      dup4\n        /* \"#utility.yul\":9551:9568   */\n      add\n        /* \"#utility.yul\":9544:9591   */\n      mstore\n        /* \"#utility.yul\":9608:9739   */\n      tag_224\n        /* \"#utility.yul\":9734:9738   */\n      dup2\n        /* \"#utility.yul\":9608:9739   */\n      tag_206\n      jump\t// in\n    tag_224:\n        /* \"#utility.yul\":9600:9739   */\n      swap1\n      pop\n        /* \"#utility.yul\":9498:9746   */\n      swap2\n      swap1\n      pop\n      jump\t// out\n        /* \"#utility.yul\":9752:9881   */\n    tag_92:\n      0x00\n        /* \"#utility.yul\":9813:9833   */\n      tag_226\n      tag_227\n      jump\t// in\n    tag_226:\n        /* \"#utility.yul\":9803:9833   */\n      swap1\n      pop\n        /* \"#utility.yul\":9842:9875   */\n      tag_228\n        /* \"#utility.yul\":9870:9874   */\n      dup3\n        /* \"#utility.yul\":9862:9868   */\n      dup3\n        /* \"#utility.yul\":9842:9875   */\n      tag_229\n      jump\t// in\n    tag_228:\n        /* \"#utility.yul\":9793:9881   */\n      swap2\n      swap1\n      pop\n      jump\t// out\n        /* \"#utility.yul\":9887:9962   */\n    tag_227:\n      0x00\n        /* \"#utility.yul\":9953:9955   */\n      0x40\n        /* \"#utility.yul\":9947:9956   */\n      mload\n        /* \"#utility.yul\":9937:9956   */\n      swap1\n      pop\n        /* \"#utility.yul\":9927:9962   */\n      swap1\n      jump\t// out\n        /* \"#utility.yul\":9968:10289   */\n    tag_91:\n      0x00\n        /* \"#utility.yul\":10145:10163   */\n      0xffffffffffffffff\n        /* \"#utility.yul\":10137:10143   */\n      dup3\n        /* \"#utility.yul\":10134:10164   */\n      gt\n        /* \"#utility.yul\":10131:10133   */\n      iszero\n      tag_232\n      jumpi\n        /* \"#utility.yul\":10167:10185   */\n      tag_233\n      tag_234\n      jump\t// in\n    tag_233:\n        /* \"#utility.yul\":10131:10133   */\n    tag_232:\n        /* \"#utility.yul\":10217:10221   */\n      0x20\n        /* \"#utility.yul\":10209:10215   */\n      dup3\n        /* \"#utility.yul\":10205:10222   */\n      mul\n        /* \"#utility.yul\":10197:10222   */\n      swap1\n      pop\n        /* \"#utility.yul\":10277:10281   */\n      0x20\n        /* \"#utility.yul\":10271:10275   */\n      dup2\n        /* \"#utility.yul\":10267:10282   */\n      add\n        /* \"#utility.yul\":10259:10282   */\n      swap1\n      pop\n        /* \"#utility.yul\":10060:10289   */\n      swap2\n      swap1\n      pop\n      jump\t// out\n        /* \"#utility.yul\":10295:10606   */\n    tag_102:\n      0x00\n        /* \"#utility.yul\":10462:10480   */\n      0xffffffffffffffff\n        /* \"#utility.yul\":10454:10460   */\n      dup3\n        /* \"#utility.yul\":10451:10481   */\n      gt\n        /* \"#utility.yul\":10448:10450   */\n      iszero\n      tag_236\n      jumpi\n        /* \"#utility.yul\":10484:10502   */\n      tag_237\n      tag_234\n      jump\t// in\n    tag_237:\n        /* \"#utility.yul\":10448:10450   */\n    tag_236:\n        /* \"#utility.yul\":10534:10538   */\n      0x20\n        /* \"#utility.yul\":10526:10532   */\n      dup3\n        /* \"#utility.yul\":10522:10539   */\n      mul\n        /* \"#utility.yul\":10514:10539   */\n      swap1\n      pop\n        /* \"#utility.yul\":10594:10598   */\n      0x20\n        /* \"#utility.yul\":10588:10592   */\n      dup2\n        /* \"#utility.yul\":10584:10599   */\n      add\n        /* \"#utility.yul\":10576:10599   */\n      swap1\n      pop\n        /* \"#utility.yul\":10377:10606   */\n      swap2\n      swap1\n      pop\n      jump\t// out\n        /* \"#utility.yul\":10612:10920   */\n    tag_113:\n      0x00\n        /* \"#utility.yul\":10764:10782   */\n      0xffffffffffffffff\n        /* \"#utility.yul\":10756:10762   */\n      dup3\n        /* \"#utility.yul\":10753:10783   */\n      gt\n        /* \"#utility.yul\":10750:10752   */\n      iszero\n      tag_239\n      jumpi\n        /* \"#utility.yul\":10786:10804   */\n      tag_240\n      tag_234\n      jump\t// in\n    tag_240:\n        /* \"#utility.yul\":10750:10752   */\n    tag_239:\n        /* \"#utility.yul\":10824:10853   */\n      tag_241\n        /* \"#utility.yul\":10846:10852   */\n      dup3\n        /* \"#utility.yul\":10824:10853   */\n      tag_199\n      jump\t// in\n    tag_241:\n        /* \"#utility.yul\":10816:10853   */\n      swap1\n      pop\n        /* \"#utility.yul\":10908:10912   */\n      0x20\n        /* \"#utility.yul\":10902:10906   */\n      dup2\n        /* \"#utility.yul\":10898:10913   */\n      add\n        /* \"#utility.yul\":10890:10913   */\n      swap1\n      pop\n        /* \"#utility.yul\":10679:10920   */\n      swap2\n      swap1\n      pop\n      jump\t// out\n        /* \"#utility.yul\":10926:11068   */\n    tag_166:\n      0x00\n        /* \"#utility.yul\":11026:11029   */\n      dup2\n        /* \"#utility.yul\":11018:11029   */\n      swap1\n      pop\n        /* \"#utility.yul\":11056:11060   */\n      0x20\n        /* \"#utility.yul\":11051:11054   */\n      dup3\n        /* \"#utility.yul\":11047:11061   */\n      add\n        /* \"#utility.yul\":11039:11061   */\n      swap1\n      pop\n        /* \"#utility.yul\":11008:11068   */\n      swap2\n      swap1\n      pop\n      jump\t// out\n        /* \"#utility.yul\":11074:11206   */\n    tag_180:\n      0x00\n        /* \"#utility.yul\":11164:11167   */\n      dup2\n        /* \"#utility.yul\":11156:11167   */\n      swap1\n      pop\n        /* \"#utility.yul\":11194:11198   */\n      0x20\n        /* \"#utility.yul\":11189:11192   */\n      dup3\n        /* \"#utility.yul\":11185:11199   */\n      add\n        /* \"#utility.yul\":11177:11199   */\n      swap1\n      pop\n        /* \"#utility.yul\":11146:11206   */\n      swap2\n      swap1\n      pop\n      jump\t// out\n        /* \"#utility.yul\":11212:11336   */\n    tag_162:\n      0x00\n        /* \"#utility.yul\":11323:11328   */\n      dup2\n        /* \"#utility.yul\":11317:11329   */\n      mload\n        /* \"#utility.yul\":11307:11329   */\n      swap1\n      pop\n        /* \"#utility.yul\":11296:11336   */\n      swap2\n      swap1\n      pop\n      jump\t// out\n        /* \"#utility.yul\":11342:11456   */\n    tag_176:\n      0x00\n        /* \"#utility.yul\":11443:11448   */\n      dup2\n        /* \"#utility.yul\":11437:11449   */\n      mload\n        /* \"#utility.yul\":11427:11449   */\n      swap1\n      pop\n        /* \"#utility.yul\":11416:11456   */\n      swap2\n      swap1\n      pop\n      jump\t// out\n        /* \"#utility.yul\":11462:11561   */\n    tag_193:\n      0x00\n        /* \"#utility.yul\":11548:11553   */\n      dup2\n        /* \"#utility.yul\":11542:11554   */\n      mload\n        /* \"#utility.yul\":11532:11554   */\n      swap1\n      pop\n        /* \"#utility.yul\":11521:11561   */\n      swap2\n      swap1\n      pop\n      jump\t// out\n        /* \"#utility.yul\":11567:11690   */\n    tag_172:\n      0x00\n        /* \"#utility.yul\":11679:11683   */\n      0x20\n        /* \"#utility.yul\":11674:11677   */\n      dup3\n        /* \"#utility.yul\":11670:11684   */\n      add\n        /* \"#utility.yul\":11662:11684   */\n      swap1\n      pop\n        /* \"#utility.yul\":11652:11690   */\n      swap2\n      swap1\n      pop\n      jump\t// out\n        /* \"#utility.yul\":11696:11809   */\n    tag_186:\n      0x00\n        /* \"#utility.yul\":11798:11802   */\n      0x20\n        /* \"#utility.yul\":11793:11796   */\n      dup3\n        /* \"#utility.yul\":11789:11803   */\n      add\n        /* \"#utility.yul\":11781:11803   */\n      swap1\n      pop\n        /* \"#utility.yul\":11771:11809   */\n      swap2\n      swap1\n      pop\n      jump\t// out\n        /* \"#utility.yul\":11815:12009   */\n    tag_164:\n      0x00\n        /* \"#utility.yul\":11958:11964   */\n      dup3\n        /* \"#utility.yul\":11953:11956   */\n      dup3\n        /* \"#utility.yul\":11946:11965   */\n      mstore\n        /* \"#utility.yul\":11998:12002   */\n      0x20\n        /* \"#utility.yul\":11993:11996   */\n      dup3\n        /* \"#utility.yul\":11989:12003   */\n      add\n        /* \"#utility.yul\":11974:12003   */\n      swap1\n      pop\n        /* \"#utility.yul\":11936:12009   */\n      swap3\n      swap2\n      pop\n      pop\n      jump\t// out\n        /* \"#utility.yul\":12015:12199   */\n    tag_178:\n      0x00\n        /* \"#utility.yul\":12148:12154   */\n      dup3\n        /* \"#utility.yul\":12143:12146   */\n      dup3\n        /* \"#utility.yul\":12136:12155   */\n      mstore\n        /* \"#utility.yul\":12188:12192   */\n      0x20\n        /* \"#utility.yul\":12183:12186   */\n      dup3\n        /* \"#utility.yul\":12179:12193   */\n      add\n        /* \"#utility.yul\":12164:12193   */\n      swap1\n      pop\n        /* \"#utility.yul\":12126:12199   */\n      swap3\n      swap2\n      pop\n      pop\n      jump\t// out\n        /* \"#utility.yul\":12205:12364   */\n    tag_195:\n      0x00\n        /* \"#utility.yul\":12313:12319   */\n      dup3\n        /* \"#utility.yul\":12308:12311   */\n      dup3\n        /* \"#utility.yul\":12301:12320   */\n      mstore\n        /* \"#utility.yul\":12353:12357   */\n      0x20\n        /* \"#utility.yul\":12348:12351   */\n      dup3\n        /* \"#utility.yul\":12344:12358   */\n      add\n        /* \"#utility.yul\":12329:12358   */\n      swap1\n      pop\n        /* \"#utility.yul\":12291:12364   */\n      swap3\n      swap2\n      pop\n      pop\n      jump\t// out\n        /* \"#utility.yul\":12370:12539   */\n    tag_203:\n      0x00\n        /* \"#utility.yul\":12488:12494   */\n      dup3\n        /* \"#utility.yul\":12483:12486   */\n      dup3\n        /* \"#utility.yul\":12476:12495   */\n      mstore\n        /* \"#utility.yul\":12528:12532   */\n      0x20\n        /* \"#utility.yul\":12523:12526   */\n      dup3\n        /* \"#utility.yul\":12519:12533   */\n      add\n        /* \"#utility.yul\":12504:12533   */\n      swap1\n      pop\n        /* \"#utility.yul\":12466:12539   */\n      swap3\n      swap2\n      pop\n      pop\n      jump\t// out\n        /* \"#utility.yul\":12545:12641   */\n    tag_158:\n      0x00\n        /* \"#utility.yul\":12611:12635   */\n      tag_254\n        /* \"#utility.yul\":12629:12634   */\n      dup3\n        /* \"#utility.yul\":12611:12635   */\n      tag_255\n      jump\t// in\n    tag_254:\n        /* \"#utility.yul\":12600:12635   */\n      swap1\n      pop\n        /* \"#utility.yul\":12590:12641   */\n      swap2\n      swap1\n      pop\n      jump\t// out\n        /* \"#utility.yul\":12647:12737   */\n    tag_190:\n      0x00\n        /* \"#utility.yul\":12724:12729   */\n      dup2\n        /* \"#utility.yul\":12717:12730   */\n      iszero\n        /* \"#utility.yul\":12710:12731   */\n      iszero\n        /* \"#utility.yul\":12699:12731   */\n      swap1\n      pop\n        /* \"#utility.yul\":12689:12737   */\n      swap2\n      swap1\n      pop\n      jump\t// out\n        /* \"#utility.yul\":12743:12869   */\n    tag_255:\n      0x00\n        /* \"#utility.yul\":12820:12862   */\n      0xffffffffffffffffffffffffffffffffffffffff\n        /* \"#utility.yul\":12813:12818   */\n      dup3\n        /* \"#utility.yul\":12809:12863   */\n      and\n        /* \"#utility.yul\":12798:12863   */\n      swap1\n      pop\n        /* \"#utility.yul\":12788:12869   */\n      swap2\n      swap1\n      pop\n      jump\t// out\n        /* \"#utility.yul\":12875:12952   */\n    tag_213:\n      0x00\n        /* \"#utility.yul\":12941:12946   */\n      dup2\n        /* \"#utility.yul\":12930:12946   */\n      swap1\n      pop\n        /* \"#utility.yul\":12920:12952   */\n      swap2\n      swap1\n      pop\n      jump\t// out\n        /* \"#utility.yul\":12958:13112   */\n    tag_116:\n        /* \"#utility.yul\":13042:13048   */\n      dup3\n        /* \"#utility.yul\":13037:13040   */\n      dup2\n        /* \"#utility.yul\":13032:13035   */\n      dup4\n        /* \"#utility.yul\":13019:13049   */\n      calldatacopy\n        /* \"#utility.yul\":13104:13105   */\n      0x00\n        /* \"#utility.yul\":13095:13101   */\n      dup4\n        /* \"#utility.yul\":13090:13093   */\n      dup4\n        /* \"#utility.yul\":13086:13102   */\n      add\n        /* \"#utility.yul\":13079:13106   */\n      mstore\n        /* \"#utility.yul\":13009:13112   */\n      pop\n      pop\n      pop\n      jump\t// out\n        /* \"#utility.yul\":13118:13425   */\n    tag_197:\n        /* \"#utility.yul\":13186:13187   */\n      0x00\n        /* \"#utility.yul\":13196:13309   */\n    tag_261:\n        /* \"#utility.yul\":13210:13216   */\n      dup4\n        /* \"#utility.yul\":13207:13208   */\n      dup2\n        /* \"#utility.yul\":13204:13217   */\n      lt\n        /* \"#utility.yul\":13196:13309   */\n      iszero\n      tag_263\n      jumpi\n        /* \"#utility.yul\":13295:13296   */\n      dup1\n        /* \"#utility.yul\":13290:13293   */\n      dup3\n        /* \"#utility.yul\":13286:13297   */\n      add\n        /* \"#utility.yul\":13280:13298   */\n      mload\n        /* \"#utility.yul\":13276:13277   */\n      dup2\n        /* \"#utility.yul\":13271:13274   */\n      dup5\n        /* \"#utility.yul\":13267:13278   */\n      add\n        /* \"#utility.yul\":13260:13299   */\n      mstore\n        /* \"#utility.yul\":13232:13234   */\n      0x20\n        /* \"#utility.yul\":13229:13230   */\n      dup2\n        /* \"#utility.yul\":13225:13235   */\n      add\n        /* \"#utility.yul\":13220:13235   */\n      swap1\n      pop\n        /* \"#utility.yul\":13196:13309   */\n      jump(tag_261)\n    tag_263:\n        /* \"#utility.yul\":13327:13333   */\n      dup4\n        /* \"#utility.yul\":13324:13325   */\n      dup2\n        /* \"#utility.yul\":13321:13334   */\n      gt\n        /* \"#utility.yul\":13318:13320   */\n      iszero\n      tag_264\n      jumpi\n        /* \"#utility.yul\":13407:13408   */\n      0x00\n        /* \"#utility.yul\":13398:13404   */\n      dup5\n        /* \"#utility.yul\":13393:13396   */\n      dup5\n        /* \"#utility.yul\":13389:13405   */\n      add\n        /* \"#utility.yul\":13382:13409   */\n      mstore\n        /* \"#utility.yul\":13318:13320   */\n    tag_264:\n        /* \"#utility.yul\":13167:13425   */\n      pop\n      pop\n      pop\n      pop\n      jump\t// out\n        /* \"#utility.yul\":13431:13712   */\n    tag_229:\n        /* \"#utility.yul\":13514:13541   */\n      tag_266\n        /* \"#utility.yul\":13536:13540   */\n      dup3\n        /* \"#utility.yul\":13514:13541   */\n      tag_199\n      jump\t// in\n    tag_266:\n        /* \"#utility.yul\":13506:13512   */\n      dup2\n        /* \"#utility.yul\":13502:13542   */\n      add\n        /* \"#utility.yul\":13644:13650   */\n      dup2\n        /* \"#utility.yul\":13632:13642   */\n      dup2\n        /* \"#utility.yul\":13629:13651   */\n      lt\n        /* \"#utility.yul\":13608:13626   */\n      0xffffffffffffffff\n        /* \"#utility.yul\":13596:13606   */\n      dup3\n        /* \"#utility.yul\":13593:13627   */\n      gt\n        /* \"#utility.yul\":13590:13652   */\n      or\n        /* \"#utility.yul\":13587:13589   */\n      iszero\n      tag_267\n      jumpi\n        /* \"#utility.yul\":13655:13673   */\n      tag_268\n      tag_234\n      jump\t// in\n    tag_268:\n        /* \"#utility.yul\":13587:13589   */\n    tag_267:\n        /* \"#utility.yul\":13695:13705   */\n      dup1\n        /* \"#utility.yul\":13691:13693   */\n      0x40\n        /* \"#utility.yul\":13684:13706   */\n      mstore\n        /* \"#utility.yul\":13474:13712   */\n      pop\n      pop\n      pop\n      jump\t// out\n        /* \"#utility.yul\":13718:13898   */\n    tag_234:\n        /* \"#utility.yul\":13766:13843   */\n      0x4e487b7100000000000000000000000000000000000000000000000000000000\n        /* \"#utility.yul\":13763:13764   */\n      0x00\n        /* \"#utility.yul\":13756:13844   */\n      mstore\n        /* \"#utility.yul\":13863:13867   */\n      0x41\n        /* \"#utility.yul\":13860:13861   */\n      0x04\n        /* \"#utility.yul\":13853:13868   */\n      mstore\n        /* \"#utility.yul\":13887:13891   */\n      0x24\n        /* \"#utility.yul\":13884:13885   */\n      0x00\n        /* \"#utility.yul\":13877:13892   */\n      revert\n        /* \"#utility.yul\":13904:14006   */\n    tag_199:\n      0x00\n        /* \"#utility.yul\":13996:13998   */\n      0x1f\n        /* \"#utility.yul\":13992:13999   */\n      not\n        /* \"#utility.yul\":13987:13989   */\n      0x1f\n        /* \"#utility.yul\":13980:13985   */\n      dup4\n        /* \"#utility.yul\":13976:13990   */\n      add\n        /* \"#utility.yul\":13972:14000   */\n      and\n        /* \"#utility.yul\":13962:14000   */\n      swap1\n      pop\n        /* \"#utility.yul\":13952:14006   */\n      swap2\n      swap1\n      pop\n      jump\t// out\n        /* \"#utility.yul\":14012:14237   */\n    tag_205:\n        /* \"#utility.yul\":14152:14186   */\n      0x4f776e61626c653a206e6577206f776e657220697320746865207a65726f2061\n        /* \"#utility.yul\":14148:14149   */\n      0x00\n        /* \"#utility.yul\":14140:14146   */\n      dup3\n        /* \"#utility.yul\":14136:14150   */\n      add\n        /* \"#utility.yul\":14129:14187   */\n      mstore\n        /* \"#utility.yul\":14221:14229   */\n      0x6464726573730000000000000000000000000000000000000000000000000000\n        /* \"#utility.yul\":14216:14218   */\n      0x20\n        /* \"#utility.yul\":14208:14214   */\n      dup3\n        /* \"#utility.yul\":14204:14219   */\n      add\n        /* \"#utility.yul\":14197:14230   */\n      mstore\n        /* \"#utility.yul\":14118:14237   */\n      pop\n      jump\t// out\n        /* \"#utility.yul\":14243:14425   */\n    tag_210:\n        /* \"#utility.yul\":14383:14417   */\n      0x4f776e61626c653a2063616c6c6572206973206e6f7420746865206f776e6572\n        /* \"#utility.yul\":14379:14380   */\n      0x00\n        /* \"#utility.yul\":14371:14377   */\n      dup3\n        /* \"#utility.yul\":14367:14381   */\n      add\n        /* \"#utility.yul\":14360:14418   */\n      mstore\n        /* \"#utility.yul\":14349:14425   */\n      pop\n      jump\t// out\n        /* \"#utility.yul\":14431:14553   */\n    tag_120:\n        /* \"#utility.yul\":14504:14528   */\n      tag_274\n        /* \"#utility.yul\":14522:14527   */\n      dup2\n        /* \"#utility.yul\":14504:14528   */\n      tag_158\n      jump\t// in\n    tag_274:\n        /* \"#utility.yul\":14497:14502   */\n      dup2\n        /* \"#utility.yul\":14494:14529   */\n      eq\n        /* \"#utility.yul\":14484:14486   */\n      tag_275\n      jumpi\n        /* \"#utility.yul\":14543:14544   */\n      0x00\n        /* \"#utility.yul\":14540:14541   */\n      dup1\n        /* \"#utility.yul\":14533:14545   */\n      revert\n        /* \"#utility.yul\":14484:14486   */\n    tag_275:\n        /* \"#utility.yul\":14474:14553   */\n      pop\n      jump\t// out\n        /* \"#utility.yul\":14559:14681   */\n    tag_134:\n        /* \"#utility.yul\":14632:14656   */\n      tag_277\n        /* \"#utility.yul\":14650:14655   */\n      dup2\n        /* \"#utility.yul\":14632:14656   */\n      tag_213\n      jump\t// in\n    tag_277:\n        /* \"#utility.yul\":14625:14630   */\n      dup2\n        /* \"#utility.yul\":14622:14657   */\n      eq\n        /* \"#utility.yul\":14612:14614   */\n      tag_278\n      jumpi\n        /* \"#utility.yul\":14671:14672   */\n      0x00\n        /* \"#utility.yul\":14668:14669   */\n      dup1\n        /* \"#utility.yul\":14661:14673   */\n      revert\n        /* \"#utility.yul\":14612:14614   */\n    tag_278:\n        /* \"#utility.yul\":14602:14681   */\n      pop\n      jump\t// out\n\n    auxdata: 0xa264697066735822122065eec90b723c0f7dad8aedf9b9cca63d397e92160fe7e0adf6e36061ba5429d264736f6c63430008010033\n}\n",
				"bytecode": {
					"linkReferences": {},
					"object": "60806040526000600160146101000a81548160ff02191690831515021790555034801561002b57600080fd5b5061004861003d61004d60201b60201c565b61005560201b60201c565b610119565b600033905090565b60008060009054906101000a900473ffffffffffffffffffffffffffffffffffffffff169050816000806101000a81548173ffffffffffffffffffffffffffffffffffffffff021916908373ffffffffffffffffffffffffffffffffffffffff1602179055508173ffffffffffffffffffffffffffffffffffffffff168173ffffffffffffffffffffffffffffffffffffffff167f8be0079c531659141344cd1fd0a4f28419497f9722a3daafe3b4186f6b6457e060405160405180910390a35050565b610e46806101286000396000f3fe608060405234801561001057600080fd5b50600436106100885760003560e01c80638da5cb5b1161005b5780638da5cb5b146100ed578063f121da921461010b578063f2fde38b14610127578063f71143ca1461014357610088565b80630e3ab61d1461008d57806311ce0267146100a957806351f7598c146100c7578063715018a6146100e3575b600080fd5b6100a760048036038101906100a291906108a1565b610161565b005b6100b16101e0565b6040516100be9190610a75565b60405180910390f35b6100e160048036038101906100dc919061080c565b610206565b005b6100eb6102c6565b005b6100f561034e565b6040516101029190610a75565b60405180910390f35b61012560048036038101906101209190610835565b610377565b005b610141600480360381019061013c919061080c565b610486565b005b61014b61057e565b6040516101589190610ac7565b60405180910390f35b610169610591565b73ffffffffffffffffffffffffffffffffffffffff1661018761034e565b73ffffffffffffffffffffffffffffffffffffffff16146101dd576040517f08c379a00000000000000000000000000000000000000000000000000000000081526004016101d490610b02565b60405180910390fd5b50565b600160009054906101000a900473ffffffffffffffffffffffffffffffffffffffff1681565b61020e610591565b73ffffffffffffffffffffffffffffffffffffffff1661022c61034e565b73ffffffffffffffffffffffffffffffffffffffff1614610282576040517f08c379a000000000000000000000000000000000000000000000000000000000815260040161027990610b02565b60405180910390fd5b80600160006101000a81548173ffffffffffffffffffffffffffffffffffffffff021916908373ffffffffffffffffffffffffffffffffffffffff16021790555050565b6102ce610591565b73ffffffffffffffffffffffffffffffffffffffff166102ec61034e565b73ffffffffffffffffffffffffffffffffffffffff1614610342576040517f08c379a000000000000000000000000000000000000000000000000000000000815260040161033990610b02565b60405180910390fd5b61034c6000610599565b565b60008060009054906101000a900473ffffffffffffffffffffffffffffffffffffffff16905090565b61037f610591565b73ffffffffffffffffffffffffffffffffffffffff1661039d61034e565b73ffffffffffffffffffffffffffffffffffffffff16146103f3576040517f08c379a00000000000000000000000000000000000000000000000000000000081526004016103ea90610b02565b60405180910390fd5b600160009054906101000a900473ffffffffffffffffffffffffffffffffffffffff1673ffffffffffffffffffffffffffffffffffffffff1663f121da9283836040518363ffffffff1660e01b8152600401610450929190610a90565b600060405180830381600087803b15801561046a57600080fd5b505af115801561047e573d6000803e3d6000fd5b505050505050565b61048e610591565b73ffffffffffffffffffffffffffffffffffffffff166104ac61034e565b73ffffffffffffffffffffffffffffffffffffffff1614610502576040517f08c379a00000000000000000000000000000000000000000000000000000000081526004016104f990610b02565b60405180910390fd5b600073ffffffffffffffffffffffffffffffffffffffff168173ffffffffffffffffffffffffffffffffffffffff161415610572576040517f08c379a000000000000000000000000000000000000000000000000000000000815260040161056990610ae2565b60405180910390fd5b61057b81610599565b50565b600160149054906101000a900460ff1681565b600033905090565b60008060009054906101000a900473ffffffffffffffffffffffffffffffffffffffff169050816000806101000a81548173ffffffffffffffffffffffffffffffffffffffff021916908373ffffffffffffffffffffffffffffffffffffffff1602179055508173ffffffffffffffffffffffffffffffffffffffff168173ffffffffffffffffffffffffffffffffffffffff167f8be0079c531659141344cd1fd0a4f28419497f9722a3daafe3b4186f6b6457e060405160405180910390a35050565b600061067061066b84610b47565b610b22565b9050808382526020820190508260005b858110156106b0578135850161069688826107cd565b845260208401935060208301925050600181019050610680565b5050509392505050565b60006106cd6106c884610b73565b610b22565b905080838252602082019050828560208602820111156106ec57600080fd5b60005b8581101561071c578161070288826107f7565b8452602084019350602083019250506001810190506106ef565b5050509392505050565b600061073961073484610b9f565b610b22565b90508281526020810184848401111561075157600080fd5b61075c848285610cb7565b509392505050565b60008135905061077381610de2565b92915050565b600082601f83011261078a57600080fd5b813561079a84826020860161065d565b91505092915050565b600082601f8301126107b457600080fd5b81356107c48482602086016106ba565b91505092915050565b600082601f8301126107de57600080fd5b81356107ee848260208601610726565b91505092915050565b60008135905061080681610df9565b92915050565b60006020828403121561081e57600080fd5b600061082c84828501610764565b91505092915050565b6000806040838503121561084857600080fd5b600083013567ffffffffffffffff81111561086257600080fd5b61086e858286016107a3565b925050602083013567ffffffffffffffff81111561088b57600080fd5b61089785828601610779565b9150509250929050565b6000602082840312156108b357600080fd5b60006108c1848285016107f7565b91505092915050565b60006108d683836109e7565b905092915050565b60006108ea8383610a66565b60208301905092915050565b6108ff81610c6f565b82525050565b600061091082610bf0565b61091a8185610c2b565b93508360208202850161092c85610bd0565b8060005b85811015610968578484038952815161094985826108ca565b945061095483610c11565b925060208a01995050600181019050610930565b50829750879550505050505092915050565b600061098582610bfb565b61098f8185610c3c565b935061099a83610be0565b8060005b838110156109cb5781516109b288826108de565b97506109bd83610c1e565b92505060018101905061099e565b5085935050505092915050565b6109e181610c81565b82525050565b60006109f282610c06565b6109fc8185610c4d565b9350610a0c818560208601610cc6565b610a1581610d59565b840191505092915050565b6000610a2d602683610c5e565b9150610a3882610d6a565b604082019050919050565b6000610a50602083610c5e565b9150610a5b82610db9565b602082019050919050565b610a6f81610cad565b82525050565b6000602082019050610a8a60008301846108f6565b92915050565b60006040820190508181036000830152610aaa818561097a565b90508181036020830152610abe8184610905565b90509392505050565b6000602082019050610adc60008301846109d8565b92915050565b60006020820190508181036000830152610afb81610a20565b9050919050565b60006020820190508181036000830152610b1b81610a43565b9050919050565b6000610b2c610b3d565b9050610b388282610cf9565b919050565b6000604051905090565b600067ffffffffffffffff821115610b6257610b61610d2a565b5b602082029050602081019050919050565b600067ffffffffffffffff821115610b8e57610b8d610d2a565b5b602082029050602081019050919050565b600067ffffffffffffffff821115610bba57610bb9610d2a565b5b610bc382610d59565b9050602081019050919050565b6000819050602082019050919050565b6000819050602082019050919050565b600081519050919050565b600081519050919050565b600081519050919050565b6000602082019050919050565b6000602082019050919050565b600082825260208201905092915050565b600082825260208201905092915050565b600082825260208201905092915050565b600082825260208201905092915050565b6000610c7a82610c8d565b9050919050565b60008115159050919050565b600073ffffffffffffffffffffffffffffffffffffffff82169050919050565b6000819050919050565b82818337600083830152505050565b60005b83811015610ce4578082015181840152602081019050610cc9565b83811115610cf3576000848401525b50505050565b610d0282610d59565b810181811067ffffffffffffffff82111715610d2157610d20610d2a565b5b80604052505050565b7f4e487b7100000000000000000000000000000000000000000000000000000000600052604160045260246000fd5b6000601f19601f8301169050919050565b7f4f776e61626c653a206e6577206f776e657220697320746865207a65726f206160008201527f6464726573730000000000000000000000000000000000000000000000000000602082015250565b7f4f776e61626c653a2063616c6c6572206973206e6f7420746865206f776e6572600082015250565b610deb81610c6f565b8114610df657600080fd5b50565b610e0281610cad565b8114610e0d57600080fd5b5056fea264697066735822122065eec90b723c0f7dad8aedf9b9cca63d397e92160fe7e0adf6e36061ba5429d264736f6c63430008010033",
					"opcodes": "PUSH1 0x80 PUSH1 0x40 MSTORE PUSH1 0x0 PUSH1 0x1 PUSH1 0x14 PUSH2 0x100 EXP DUP2 SLOAD DUP2 PUSH1 0xFF MUL NOT AND SWAP1 DUP4 ISZERO ISZERO MUL OR SWAP1 SSTORE POP CALLVALUE DUP1 ISZERO PUSH2 0x2B JUMPI PUSH1 0x0 DUP1 REVERT JUMPDEST POP PUSH2 0x48 PUSH2 0x3D PUSH2 0x4D PUSH1 0x20 SHL PUSH1 0x20 SHR JUMP JUMPDEST PUSH2 0x55 PUSH1 0x20 SHL PUSH1 0x20 SHR JUMP JUMPDEST PUSH2 0x119 JUMP JUMPDEST PUSH1 0x0 CALLER SWAP1 POP SWAP1 JUMP JUMPDEST PUSH1 0x0 DUP1 PUSH1 0x0 SWAP1 SLOAD SWAP1 PUSH2 0x100 EXP SWAP1 DIV PUSH20 0xFFFFFFFFFFFFFFFFFFFFFFFFFFFFFFFFFFFFFFFF AND SWAP1 POP DUP2 PUSH1 0x0 DUP1 PUSH2 0x100 EXP DUP2 SLOAD DUP2 PUSH20 0xFFFFFFFFFFFFFFFFFFFFFFFFFFFFFFFFFFFFFFFF MUL NOT AND SWAP1 DUP4 PUSH20 0xFFFFFFFFFFFFFFFFFFFFFFFFFFFFFFFFFFFFFFFF AND MUL OR SWAP1 SSTORE POP DUP2 PUSH20 0xFFFFFFFFFFFFFFFFFFFFFFFFFFFFFFFFFFFFFFFF AND DUP2 PUSH20 0xFFFFFFFFFFFFFFFFFFFFFFFFFFFFFFFFFFFFFFFF AND PUSH32 0x8BE0079C531659141344CD1FD0A4F28419497F9722A3DAAFE3B4186F6B6457E0 PUSH1 0x40 MLOAD PUSH1 0x40 MLOAD DUP1 SWAP2 SUB SWAP1 LOG3 POP POP JUMP JUMPDEST PUSH2 0xE46 DUP1 PUSH2 0x128 PUSH1 0x0 CODECOPY PUSH1 0x0 RETURN INVALID PUSH1 0x80 PUSH1 0x40 MSTORE CALLVALUE DUP1 ISZERO PUSH2 0x10 JUMPI PUSH1 0x0 DUP1 REVERT JUMPDEST POP PUSH1 0x4 CALLDATASIZE LT PUSH2 0x88 JUMPI PUSH1 0x0 CALLDATALOAD PUSH1 0xE0 SHR DUP1 PUSH4 0x8DA5CB5B GT PUSH2 0x5B JUMPI DUP1 PUSH4 0x8DA5CB5B EQ PUSH2 0xED JUMPI DUP1 PUSH4 0xF121DA92 EQ PUSH2 0x10B JUMPI DUP1 PUSH4 0xF2FDE38B EQ PUSH2 0x127 JUMPI DUP1 PUSH4 0xF71143CA EQ PUSH2 0x143 JUMPI PUSH2 0x88 JUMP JUMPDEST DUP1 PUSH4 0xE3AB61D EQ PUSH2 0x8D JUMPI DUP1 PUSH4 0x11CE0267 EQ PUSH2 0xA9 JUMPI DUP1 PUSH4 0x51F7598C EQ PUSH2 0xC7 JUMPI DUP1 PUSH4 0x715018A6 EQ PUSH2 0xE3 JUMPI JUMPDEST PUSH1 0x0 DUP1 REVERT JUMPDEST PUSH2 0xA7 PUSH1 0x4 DUP1 CALLDATASIZE SUB DUP2 ADD SWAP1 PUSH2 0xA2 SWAP2 SWAP1 PUSH2 0x8A1 JUMP JUMPDEST PUSH2 0x161 JUMP JUMPDEST STOP JUMPDEST PUSH2 0xB1 PUSH2 0x1E0 JUMP JUMPDEST PUSH1 0x40 MLOAD PUSH2 0xBE SWAP2 SWAP1 PUSH2 0xA75 JUMP JUMPDEST PUSH1 0x40 MLOAD DUP1 SWAP2 SUB SWAP1 RETURN JUMPDEST PUSH2 0xE1 PUSH1 0x4 DUP1 CALLDATASIZE SUB DUP2 ADD SWAP1 PUSH2 0xDC SWAP2 SWAP1 PUSH2 0x80C JUMP JUMPDEST PUSH2 0x206 JUMP JUMPDEST STOP JUMPDEST PUSH2 0xEB PUSH2 0x2C6 JUMP JUMPDEST STOP JUMPDEST PUSH2 0xF5 PUSH2 0x34E JUMP JUMPDEST PUSH1 0x40 MLOAD PUSH2 0x102 SWAP2 SWAP1 PUSH2 0xA75 JUMP JUMPDEST PUSH1 0x40 MLOAD DUP1 SWAP2 SUB SWAP1 RETURN JUMPDEST PUSH2 0x125 PUSH1 0x4 DUP1 CALLDATASIZE SUB DUP2 ADD SWAP1 PUSH2 0x120 SWAP2 SWAP1 PUSH2 0x835 JUMP JUMPDEST PUSH2 0x377 JUMP JUMPDEST STOP JUMPDEST PUSH2 0x141 PUSH1 0x4 DUP1 CALLDATASIZE SUB DUP2 ADD SWAP1 PUSH2 0x13C SWAP2 SWAP1 PUSH2 0x80C JUMP JUMPDEST PUSH2 0x486 JUMP JUMPDEST STOP JUMPDEST PUSH2 0x14B PUSH2 0x57E JUMP JUMPDEST PUSH1 0x40 MLOAD PUSH2 0x158 SWAP2 SWAP1 PUSH2 0xAC7 JUMP JUMPDEST PUSH1 0x40 MLOAD DUP1 SWAP2 SUB SWAP1 RETURN JUMPDEST PUSH2 0x169 PUSH2 0x591 JUMP JUMPDEST PUSH20 0xFFFFFFFFFFFFFFFFFFFFFFFFFFFFFFFFFFFFFFFF AND PUSH2 0x187 PUSH2 0x34E JUMP JUMPDEST PUSH20 0xFFFFFFFFFFFFFFFFFFFFFFFFFFFFFFFFFFFFFFFF AND EQ PUSH2 0x1DD JUMPI PUSH1 0x40 MLOAD PUSH32 0x8C379A000000000000000000000000000000000000000000000000000000000 DUP2 MSTORE PUSH1 0x4 ADD PUSH2 0x1D4 SWAP1 PUSH2 0xB02 JUMP JUMPDEST PUSH1 0x40 MLOAD DUP1 SWAP2 SUB SWAP1 REVERT JUMPDEST POP JUMP JUMPDEST PUSH1 0x1 PUSH1 0x0 SWAP1 SLOAD SWAP1 PUSH2 0x100 EXP SWAP1 DIV PUSH20 0xFFFFFFFFFFFFFFFFFFFFFFFFFFFFFFFFFFFFFFFF AND DUP2 JUMP JUMPDEST PUSH2 0x20E PUSH2 0x591 JUMP JUMPDEST PUSH20 0xFFFFFFFFFFFFFFFFFFFFFFFFFFFFFFFFFFFFFFFF AND PUSH2 0x22C PUSH2 0x34E JUMP JUMPDEST PUSH20 0xFFFFFFFFFFFFFFFFFFFFFFFFFFFFFFFFFFFFFFFF AND EQ PUSH2 0x282 JUMPI PUSH1 0x40 MLOAD PUSH32 0x8C379A000000000000000000000000000000000000000000000000000000000 DUP2 MSTORE PUSH1 0x4 ADD PUSH2 0x279 SWAP1 PUSH2 0xB02 JUMP JUMPDEST PUSH1 0x40 MLOAD DUP1 SWAP2 SUB SWAP1 REVERT JUMPDEST DUP1 PUSH1 0x1 PUSH1 0x0 PUSH2 0x100 EXP DUP2 SLOAD DUP2 PUSH20 0xFFFFFFFFFFFFFFFFFFFFFFFFFFFFFFFFFFFFFFFF MUL NOT AND SWAP1 DUP4 PUSH20 0xFFFFFFFFFFFFFFFFFFFFFFFFFFFFFFFFFFFFFFFF AND MUL OR SWAP1 SSTORE POP POP JUMP JUMPDEST PUSH2 0x2CE PUSH2 0x591 JUMP JUMPDEST PUSH20 0xFFFFFFFFFFFFFFFFFFFFFFFFFFFFFFFFFFFFFFFF AND PUSH2 0x2EC PUSH2 0x34E JUMP JUMPDEST PUSH20 0xFFFFFFFFFFFFFFFFFFFFFFFFFFFFFFFFFFFFFFFF AND EQ PUSH2 0x342 JUMPI PUSH1 0x40 MLOAD PUSH32 0x8C379A000000000000000000000000000000000000000000000000000000000 DUP2 MSTORE PUSH1 0x4 ADD PUSH2 0x339 SWAP1 PUSH2 0xB02 JUMP JUMPDEST PUSH1 0x40 MLOAD DUP1 SWAP2 SUB SWAP1 REVERT JUMPDEST PUSH2 0x34C PUSH1 0x0 PUSH2 0x599 JUMP JUMPDEST JUMP JUMPDEST PUSH1 0x0 DUP1 PUSH1 0x0 SWAP1 SLOAD SWAP1 PUSH2 0x100 EXP SWAP1 DIV PUSH20 0xFFFFFFFFFFFFFFFFFFFFFFFFFFFFFFFFFFFFFFFF AND SWAP1 POP SWAP1 JUMP JUMPDEST PUSH2 0x37F PUSH2 0x591 JUMP JUMPDEST PUSH20 0xFFFFFFFFFFFFFFFFFFFFFFFFFFFFFFFFFFFFFFFF AND PUSH2 0x39D PUSH2 0x34E JUMP JUMPDEST PUSH20 0xFFFFFFFFFFFFFFFFFFFFFFFFFFFFFFFFFFFFFFFF AND EQ PUSH2 0x3F3 JUMPI PUSH1 0x40 MLOAD PUSH32 0x8C379A000000000000000000000000000000000000000000000000000000000 DUP2 MSTORE PUSH1 0x4 ADD PUSH2 0x3EA SWAP1 PUSH2 0xB02 JUMP JUMPDEST PUSH1 0x40 MLOAD DUP1 SWAP2 SUB SWAP1 REVERT JUMPDEST PUSH1 0x1 PUSH1 0x0 SWAP1 SLOAD SWAP1 PUSH2 0x100 EXP SWAP1 DIV PUSH20 0xFFFFFFFFFFFFFFFFFFFFFFFFFFFFFFFFFFFFFFFF AND PUSH20 0xFFFFFFFFFFFFFFFFFFFFFFFFFFFFFFFFFFFFFFFF AND PUSH4 0xF121DA92 DUP4 DUP4 PUSH1 0x40 MLOAD DUP4 PUSH4 0xFFFFFFFF AND PUSH1 0xE0 SHL DUP2 MSTORE PUSH1 0x4 ADD PUSH2 0x450 SWAP3 SWAP2 SWAP1 PUSH2 0xA90 JUMP JUMPDEST PUSH1 0x0 PUSH1 0x40 MLOAD DUP1 DUP4 SUB DUP2 PUSH1 0x0 DUP8 DUP1 EXTCODESIZE ISZERO DUP1 ISZERO PUSH2 0x46A JUMPI PUSH1 0x0 DUP1 REVERT JUMPDEST POP GAS CALL ISZERO DUP1 ISZERO PUSH2 0x47E JUMPI RETURNDATASIZE PUSH1 0x0 DUP1 RETURNDATACOPY RETURNDATASIZE PUSH1 0x0 REVERT JUMPDEST POP POP POP POP POP POP JUMP JUMPDEST PUSH2 0x48E PUSH2 0x591 JUMP JUMPDEST PUSH20 0xFFFFFFFFFFFFFFFFFFFFFFFFFFFFFFFFFFFFFFFF AND PUSH2 0x4AC PUSH2 0x34E JUMP JUMPDEST PUSH20 0xFFFFFFFFFFFFFFFFFFFFFFFFFFFFFFFFFFFFFFFF AND EQ PUSH2 0x502 JUMPI PUSH1 0x40 MLOAD PUSH32 0x8C379A000000000000000000000000000000000000000000000000000000000 DUP2 MSTORE PUSH1 0x4 ADD PUSH2 0x4F9 SWAP1 PUSH2 0xB02 JUMP JUMPDEST PUSH1 0x40 MLOAD DUP1 SWAP2 SUB SWAP1 REVERT JUMPDEST PUSH1 0x0 PUSH20 0xFFFFFFFFFFFFFFFFFFFFFFFFFFFFFFFFFFFFFFFF AND DUP2 PUSH20 0xFFFFFFFFFFFFFFFFFFFFFFFFFFFFFFFFFFFFFFFF AND EQ ISZERO PUSH2 0x572 JUMPI PUSH1 0x40 MLOAD PUSH32 0x8C379A000000000000000000000000000000000000000000000000000000000 DUP2 MSTORE PUSH1 0x4 ADD PUSH2 0x569 SWAP1 PUSH2 0xAE2 JUMP JUMPDEST PUSH1 0x40 MLOAD DUP1 SWAP2 SUB SWAP1 REVERT JUMPDEST PUSH2 0x57B DUP2 PUSH2 0x599 JUMP JUMPDEST POP JUMP JUMPDEST PUSH1 0x1 PUSH1 0x14 SWAP1 SLOAD SWAP1 PUSH2 0x100 EXP SWAP1 DIV PUSH1 0xFF AND DUP2 JUMP JUMPDEST PUSH1 0x0 CALLER SWAP1 POP SWAP1 JUMP JUMPDEST PUSH1 0x0 DUP1 PUSH1 0x0 SWAP1 SLOAD SWAP1 PUSH2 0x100 EXP SWAP1 DIV PUSH20 0xFFFFFFFFFFFFFFFFFFFFFFFFFFFFFFFFFFFFFFFF AND SWAP1 POP DUP2 PUSH1 0x0 DUP1 PUSH2 0x100 EXP DUP2 SLOAD DUP2 PUSH20 0xFFFFFFFFFFFFFFFFFFFFFFFFFFFFFFFFFFFFFFFF MUL NOT AND SWAP1 DUP4 PUSH20 0xFFFFFFFFFFFFFFFFFFFFFFFFFFFFFFFFFFFFFFFF AND MUL OR SWAP1 SSTORE POP DUP2 PUSH20 0xFFFFFFFFFFFFFFFFFFFFFFFFFFFFFFFFFFFFFFFF AND DUP2 PUSH20 0xFFFFFFFFFFFFFFFFFFFFFFFFFFFFFFFFFFFFFFFF AND PUSH32 0x8BE0079C531659141344CD1FD0A4F28419497F9722A3DAAFE3B4186F6B6457E0 PUSH1 0x40 MLOAD PUSH1 0x40 MLOAD DUP1 SWAP2 SUB SWAP1 LOG3 POP POP JUMP JUMPDEST PUSH1 0x0 PUSH2 0x670 PUSH2 0x66B DUP5 PUSH2 0xB47 JUMP JUMPDEST PUSH2 0xB22 JUMP JUMPDEST SWAP1 POP DUP1 DUP4 DUP3 MSTORE PUSH1 0x20 DUP3 ADD SWAP1 POP DUP3 PUSH1 0x0 JUMPDEST DUP6 DUP2 LT ISZERO PUSH2 0x6B0 JUMPI DUP2 CALLDATALOAD DUP6 ADD PUSH2 0x696 DUP9 DUP3 PUSH2 0x7CD JUMP JUMPDEST DUP5 MSTORE PUSH1 0x20 DUP5 ADD SWAP4 POP PUSH1 0x20 DUP4 ADD SWAP3 POP POP PUSH1 0x1 DUP2 ADD SWAP1 POP PUSH2 0x680 JUMP JUMPDEST POP POP POP SWAP4 SWAP3 POP POP POP JUMP JUMPDEST PUSH1 0x0 PUSH2 0x6CD PUSH2 0x6C8 DUP5 PUSH2 0xB73 JUMP JUMPDEST PUSH2 0xB22 JUMP JUMPDEST SWAP1 POP DUP1 DUP4 DUP3 MSTORE PUSH1 0x20 DUP3 ADD SWAP1 POP DUP3 DUP6 PUSH1 0x20 DUP7 MUL DUP3 ADD GT ISZERO PUSH2 0x6EC JUMPI PUSH1 0x0 DUP1 REVERT JUMPDEST PUSH1 0x0 JUMPDEST DUP6 DUP2 LT ISZERO PUSH2 0x71C JUMPI DUP2 PUSH2 0x702 DUP9 DUP3 PUSH2 0x7F7 JUMP JUMPDEST DUP5 MSTORE PUSH1 0x20 DUP5 ADD SWAP4 POP PUSH1 0x20 DUP4 ADD SWAP3 POP POP PUSH1 0x1 DUP2 ADD SWAP1 POP PUSH2 0x6EF JUMP JUMPDEST POP POP POP SWAP4 SWAP3 POP POP POP JUMP JUMPDEST PUSH1 0x0 PUSH2 0x739 PUSH2 0x734 DUP5 PUSH2 0xB9F JUMP JUMPDEST PUSH2 0xB22 JUMP JUMPDEST SWAP1 POP DUP3 DUP2 MSTORE PUSH1 0x20 DUP2 ADD DUP5 DUP5 DUP5 ADD GT ISZERO PUSH2 0x751 JUMPI PUSH1 0x0 DUP1 REVERT JUMPDEST PUSH2 0x75C DUP5 DUP3 DUP6 PUSH2 0xCB7 JUMP JUMPDEST POP SWAP4 SWAP3 POP POP POP JUMP JUMPDEST PUSH1 0x0 DUP2 CALLDATALOAD SWAP1 POP PUSH2 0x773 DUP2 PUSH2 0xDE2 JUMP JUMPDEST SWAP3 SWAP2 POP POP JUMP JUMPDEST PUSH1 0x0 DUP3 PUSH1 0x1F DUP4 ADD SLT PUSH2 0x78A JUMPI PUSH1 0x0 DUP1 REVERT JUMPDEST DUP2 CALLDATALOAD PUSH2 0x79A DUP5 DUP3 PUSH1 0x20 DUP7 ADD PUSH2 0x65D JUMP JUMPDEST SWAP2 POP POP SWAP3 SWAP2 POP POP JUMP JUMPDEST PUSH1 0x0 DUP3 PUSH1 0x1F DUP4 ADD SLT PUSH2 0x7B4 JUMPI PUSH1 0x0 DUP1 REVERT JUMPDEST DUP2 CALLDATALOAD PUSH2 0x7C4 DUP5 DUP3 PUSH1 0x20 DUP7 ADD PUSH2 0x6BA JUMP JUMPDEST SWAP2 POP POP SWAP3 SWAP2 POP POP JUMP JUMPDEST PUSH1 0x0 DUP3 PUSH1 0x1F DUP4 ADD SLT PUSH2 0x7DE JUMPI PUSH1 0x0 DUP1 REVERT JUMPDEST DUP2 CALLDATALOAD PUSH2 0x7EE DUP5 DUP3 PUSH1 0x20 DUP7 ADD PUSH2 0x726 JUMP JUMPDEST SWAP2 POP POP SWAP3 SWAP2 POP POP JUMP JUMPDEST PUSH1 0x0 DUP2 CALLDATALOAD SWAP1 POP PUSH2 0x806 DUP2 PUSH2 0xDF9 JUMP JUMPDEST SWAP3 SWAP2 POP POP JUMP JUMPDEST PUSH1 0x0 PUSH1 0x20 DUP3 DUP5 SUB SLT ISZERO PUSH2 0x81E JUMPI PUSH1 0x0 DUP1 REVERT JUMPDEST PUSH1 0x0 PUSH2 0x82C DUP5 DUP3 DUP6 ADD PUSH2 0x764 JUMP JUMPDEST SWAP2 POP POP SWAP3 SWAP2 POP POP JUMP JUMPDEST PUSH1 0x0 DUP1 PUSH1 0x40 DUP4 DUP6 SUB SLT ISZERO PUSH2 0x848 JUMPI PUSH1 0x0 DUP1 REVERT JUMPDEST PUSH1 0x0 DUP4 ADD CALLDATALOAD PUSH8 0xFFFFFFFFFFFFFFFF DUP2 GT ISZERO PUSH2 0x862 JUMPI PUSH1 0x0 DUP1 REVERT JUMPDEST PUSH2 0x86E DUP6 DUP3 DUP7 ADD PUSH2 0x7A3 JUMP JUMPDEST SWAP3 POP POP PUSH1 0x20 DUP4 ADD CALLDATALOAD PUSH8 0xFFFFFFFFFFFFFFFF DUP2 GT ISZERO PUSH2 0x88B JUMPI PUSH1 0x0 DUP1 REVERT JUMPDEST PUSH2 0x897 DUP6 DUP3 DUP7 ADD PUSH2 0x779 JUMP JUMPDEST SWAP2 POP POP SWAP3 POP SWAP3 SWAP1 POP JUMP JUMPDEST PUSH1 0x0 PUSH1 0x20 DUP3 DUP5 SUB SLT ISZERO PUSH2 0x8B3 JUMPI PUSH1 0x0 DUP1 REVERT JUMPDEST PUSH1 0x0 PUSH2 0x8C1 DUP5 DUP3 DUP6 ADD PUSH2 0x7F7 JUMP JUMPDEST SWAP2 POP POP SWAP3 SWAP2 POP POP JUMP JUMPDEST PUSH1 0x0 PUSH2 0x8D6 DUP4 DUP4 PUSH2 0x9E7 JUMP JUMPDEST SWAP1 POP SWAP3 SWAP2 POP POP JUMP JUMPDEST PUSH1 0x0 PUSH2 0x8EA DUP4 DUP4 PUSH2 0xA66 JUMP JUMPDEST PUSH1 0x20 DUP4 ADD SWAP1 POP SWAP3 SWAP2 POP POP JUMP JUMPDEST PUSH2 0x8FF DUP2 PUSH2 0xC6F JUMP JUMPDEST DUP3 MSTORE POP POP JUMP JUMPDEST PUSH1 0x0 PUSH2 0x910 DUP3 PUSH2 0xBF0 JUMP JUMPDEST PUSH2 0x91A DUP2 DUP6 PUSH2 0xC2B JUMP JUMPDEST SWAP4 POP DUP4 PUSH1 0x20 DUP3 MUL DUP6 ADD PUSH2 0x92C DUP6 PUSH2 0xBD0 JUMP JUMPDEST DUP1 PUSH1 0x0 JUMPDEST DUP6 DUP2 LT ISZERO PUSH2 0x968 JUMPI DUP5 DUP5 SUB DUP10 MSTORE DUP2 MLOAD PUSH2 0x949 DUP6 DUP3 PUSH2 0x8CA JUMP JUMPDEST SWAP5 POP PUSH2 0x954 DUP4 PUSH2 0xC11 JUMP JUMPDEST SWAP3 POP PUSH1 0x20 DUP11 ADD SWAP10 POP POP PUSH1 0x1 DUP2 ADD SWAP1 POP PUSH2 0x930 JUMP JUMPDEST POP DUP3 SWAP8 POP DUP8 SWAP6 POP POP POP POP POP POP SWAP3 SWAP2 POP POP JUMP JUMPDEST PUSH1 0x0 PUSH2 0x985 DUP3 PUSH2 0xBFB JUMP JUMPDEST PUSH2 0x98F DUP2 DUP6 PUSH2 0xC3C JUMP JUMPDEST SWAP4 POP PUSH2 0x99A DUP4 PUSH2 0xBE0 JUMP JUMPDEST DUP1 PUSH1 0x0 JUMPDEST DUP4 DUP2 LT ISZERO PUSH2 0x9CB JUMPI DUP2 MLOAD PUSH2 0x9B2 DUP9 DUP3 PUSH2 0x8DE JUMP JUMPDEST SWAP8 POP PUSH2 0x9BD DUP4 PUSH2 0xC1E JUMP JUMPDEST SWAP3 POP POP PUSH1 0x1 DUP2 ADD SWAP1 POP PUSH2 0x99E JUMP JUMPDEST POP DUP6 SWAP4 POP POP POP POP SWAP3 SWAP2 POP POP JUMP JUMPDEST PUSH2 0x9E1 DUP2 PUSH2 0xC81 JUMP JUMPDEST DUP3 MSTORE POP POP JUMP JUMPDEST PUSH1 0x0 PUSH2 0x9F2 DUP3 PUSH2 0xC06 JUMP JUMPDEST PUSH2 0x9FC DUP2 DUP6 PUSH2 0xC4D JUMP JUMPDEST SWAP4 POP PUSH2 0xA0C DUP2 DUP6 PUSH1 0x20 DUP7 ADD PUSH2 0xCC6 JUMP JUMPDEST PUSH2 0xA15 DUP2 PUSH2 0xD59 JUMP JUMPDEST DUP5 ADD SWAP2 POP POP SWAP3 SWAP2 POP POP JUMP JUMPDEST PUSH1 0x0 PUSH2 0xA2D PUSH1 0x26 DUP4 PUSH2 0xC5E JUMP JUMPDEST SWAP2 POP PUSH2 0xA38 DUP3 PUSH2 0xD6A JUMP JUMPDEST PUSH1 0x40 DUP3 ADD SWAP1 POP SWAP2 SWAP1 POP JUMP JUMPDEST PUSH1 0x0 PUSH2 0xA50 PUSH1 0x20 DUP4 PUSH2 0xC5E JUMP JUMPDEST SWAP2 POP PUSH2 0xA5B DUP3 PUSH2 0xDB9 JUMP JUMPDEST PUSH1 0x20 DUP3 ADD SWAP1 POP SWAP2 SWAP1 POP JUMP JUMPDEST PUSH2 0xA6F DUP2 PUSH2 0xCAD JUMP JUMPDEST DUP3 MSTORE POP POP JUMP JUMPDEST PUSH1 0x0 PUSH1 0x20 DUP3 ADD SWAP1 POP PUSH2 0xA8A PUSH1 0x0 DUP4 ADD DUP5 PUSH2 0x8F6 JUMP JUMPDEST SWAP3 SWAP2 POP POP JUMP JUMPDEST PUSH1 0x0 PUSH1 0x40 DUP3 ADD SWAP1 POP DUP2 DUP2 SUB PUSH1 0x0 DUP4 ADD MSTORE PUSH2 0xAAA DUP2 DUP6 PUSH2 0x97A JUMP JUMPDEST SWAP1 POP DUP2 DUP2 SUB PUSH1 0x20 DUP4 ADD MSTORE PUSH2 0xABE DUP2 DUP5 PUSH2 0x905 JUMP JUMPDEST SWAP1 POP SWAP4 SWAP3 POP POP POP JUMP JUMPDEST PUSH1 0x0 PUSH1 0x20 DUP3 ADD SWAP1 POP PUSH2 0xADC PUSH1 0x0 DUP4 ADD DUP5 PUSH2 0x9D8 JUMP JUMPDEST SWAP3 SWAP2 POP POP JUMP JUMPDEST PUSH1 0x0 PUSH1 0x20 DUP3 ADD SWAP1 POP DUP2 DUP2 SUB PUSH1 0x0 DUP4 ADD MSTORE PUSH2 0xAFB DUP2 PUSH2 0xA20 JUMP JUMPDEST SWAP1 POP SWAP2 SWAP1 POP JUMP JUMPDEST PUSH1 0x0 PUSH1 0x20 DUP3 ADD SWAP1 POP DUP2 DUP2 SUB PUSH1 0x0 DUP4 ADD MSTORE PUSH2 0xB1B DUP2 PUSH2 0xA43 JUMP JUMPDEST SWAP1 POP SWAP2 SWAP1 POP JUMP JUMPDEST PUSH1 0x0 PUSH2 0xB2C PUSH2 0xB3D JUMP JUMPDEST SWAP1 POP PUSH2 0xB38 DUP3 DUP3 PUSH2 0xCF9 JUMP JUMPDEST SWAP2 SWAP1 POP JUMP JUMPDEST PUSH1 0x0 PUSH1 0x40 MLOAD SWAP1 POP SWAP1 JUMP JUMPDEST PUSH1 0x0 PUSH8 0xFFFFFFFFFFFFFFFF DUP3 GT ISZERO PUSH2 0xB62 JUMPI PUSH2 0xB61 PUSH2 0xD2A JUMP JUMPDEST JUMPDEST PUSH1 0x20 DUP3 MUL SWAP1 POP PUSH1 0x20 DUP2 ADD SWAP1 POP SWAP2 SWAP1 POP JUMP JUMPDEST PUSH1 0x0 PUSH8 0xFFFFFFFFFFFFFFFF DUP3 GT ISZERO PUSH2 0xB8E JUMPI PUSH2 0xB8D PUSH2 0xD2A JUMP JUMPDEST JUMPDEST PUSH1 0x20 DUP3 MUL SWAP1 POP PUSH1 0x20 DUP2 ADD SWAP1 POP SWAP2 SWAP1 POP JUMP JUMPDEST PUSH1 0x0 PUSH8 0xFFFFFFFFFFFFFFFF DUP3 GT ISZERO PUSH2 0xBBA JUMPI PUSH2 0xBB9 PUSH2 0xD2A JUMP JUMPDEST JUMPDEST PUSH2 0xBC3 DUP3 PUSH2 0xD59 JUMP JUMPDEST SWAP1 POP PUSH1 0x20 DUP2 ADD SWAP1 POP SWAP2 SWAP1 POP JUMP JUMPDEST PUSH1 0x0 DUP2 SWAP1 POP PUSH1 0x20 DUP3 ADD SWAP1 POP SWAP2 SWAP1 POP JUMP JUMPDEST PUSH1 0x0 DUP2 SWAP1 POP PUSH1 0x20 DUP3 ADD SWAP1 POP SWAP2 SWAP1 POP JUMP JUMPDEST PUSH1 0x0 DUP2 MLOAD SWAP1 POP SWAP2 SWAP1 POP JUMP JUMPDEST PUSH1 0x0 DUP2 MLOAD SWAP1 POP SWAP2 SWAP1 POP JUMP JUMPDEST PUSH1 0x0 DUP2 MLOAD SWAP1 POP SWAP2 SWAP1 POP JUMP JUMPDEST PUSH1 0x0 PUSH1 0x20 DUP3 ADD SWAP1 POP SWAP2 SWAP1 POP JUMP JUMPDEST PUSH1 0x0 PUSH1 0x20 DUP3 ADD SWAP1 POP SWAP2 SWAP1 POP JUMP JUMPDEST PUSH1 0x0 DUP3 DUP3 MSTORE PUSH1 0x20 DUP3 ADD SWAP1 POP SWAP3 SWAP2 POP POP JUMP JUMPDEST PUSH1 0x0 DUP3 DUP3 MSTORE PUSH1 0x20 DUP3 ADD SWAP1 POP SWAP3 SWAP2 POP POP JUMP JUMPDEST PUSH1 0x0 DUP3 DUP3 MSTORE PUSH1 0x20 DUP3 ADD SWAP1 POP SWAP3 SWAP2 POP POP JUMP JUMPDEST PUSH1 0x0 DUP3 DUP3 MSTORE PUSH1 0x20 DUP3 ADD SWAP1 POP SWAP3 SWAP2 POP POP JUMP JUMPDEST PUSH1 0x0 PUSH2 0xC7A DUP3 PUSH2 0xC8D JUMP JUMPDEST SWAP1 POP SWAP2 SWAP1 POP JUMP JUMPDEST PUSH1 0x0 DUP2 ISZERO ISZERO SWAP1 POP SWAP2 SWAP1 POP JUMP JUMPDEST PUSH1 0x0 PUSH20 0xFFFFFFFFFFFFFFFFFFFFFFFFFFFFFFFFFFFFFFFF DUP3 AND SWAP1 POP SWAP2 SWAP1 POP JUMP JUMPDEST PUSH1 0x0 DUP2 SWAP1 POP SWAP2 SWAP1 POP JUMP JUMPDEST DUP3 DUP2 DUP4 CALLDATACOPY PUSH1 0x0 DUP4 DUP4 ADD MSTORE POP POP POP JUMP JUMPDEST PUSH1 0x0 JUMPDEST DUP4 DUP2 LT ISZERO PUSH2 0xCE4 JUMPI DUP1 DUP3 ADD MLOAD DUP2 DUP5 ADD MSTORE PUSH1 0x20 DUP2 ADD SWAP1 POP PUSH2 0xCC9 JUMP JUMPDEST DUP4 DUP2 GT ISZERO PUSH2 0xCF3 JUMPI PUSH1 0x0 DUP5 DUP5 ADD MSTORE JUMPDEST POP POP POP POP JUMP JUMPDEST PUSH2 0xD02 DUP3 PUSH2 0xD59 JUMP JUMPDEST DUP2 ADD DUP2 DUP2 LT PUSH8 0xFFFFFFFFFFFFFFFF DUP3 GT OR ISZERO PUSH2 0xD21 JUMPI PUSH2 0xD20 PUSH2 0xD2A JUMP JUMPDEST JUMPDEST DUP1 PUSH1 0x40 MSTORE POP POP POP JUMP JUMPDEST PUSH32 0x4E487B7100000000000000000000000000000000000000000000000000000000 PUSH1 0x0 MSTORE PUSH1 0x41 PUSH1 0x4 MSTORE PUSH1 0x24 PUSH1 0x0 REVERT JUMPDEST PUSH1 0x0 PUSH1 0x1F NOT PUSH1 0x1F DUP4 ADD AND SWAP1 POP SWAP2 SWAP1 POP JUMP JUMPDEST PUSH32 0x4F776E61626C653A206E6577206F776E657220697320746865207A65726F2061 PUSH1 0x0 DUP3 ADD MSTORE PUSH32 0x6464726573730000000000000000000000000000000000000000000000000000 PUSH1 0x20 DUP3 ADD MSTORE POP JUMP JUMPDEST PUSH32 0x4F776E61626C653A2063616C6C6572206973206E6F7420746865206F776E6572 PUSH1 0x0 DUP3 ADD MSTORE POP JUMP JUMPDEST PUSH2 0xDEB DUP2 PUSH2 0xC6F JUMP JUMPDEST DUP2 EQ PUSH2 0xDF6 JUMPI PUSH1 0x0 DUP1 REVERT JUMPDEST POP JUMP JUMPDEST PUSH2 0xE02 DUP2 PUSH2 0xCAD JUMP JUMPDEST DUP2 EQ PUSH2 0xE0D JUMPI PUSH1 0x0 DUP1 REVERT JUMPDEST POP JUMP INVALID LOG2 PUSH5 0x6970667358 0x22 SLT KECCAK256 PUSH6 0xEEC90B723C0F PUSH30 0xAD8AEDF9B9CCA63D397E92160FE7E0ADF6E36061BA5429D264736F6C6343 STOP ADDMOD ADD STOP CALLER "
				},
				"gasEstimates": {
					"creation": {
						"codeDepositCost": "730800",
						"executionCost": "infinite",
						"totalCost": "infinite"
					},
					"external": {
						"isSaleLive()": "1287",
						"owner()": "1222",
						"preLoadURIs(uint256[],string[])": "infinite",
						"renounceOwnership()": "24441",
						"setStorageContractAddress(address)": "22307",
						"startSale(uint256)": "1634",
						"storageContract()": "1237",
						"transferOwnership(address)": "24767"
					},
					"internal": {
						"mintNextNftToAddress(address)": "infinite"
					}
				},
				"methodIdentifiers": {
					"isSaleLive()": "f71143ca",
					"owner()": "8da5cb5b",
					"preLoadURIs(uint256[],string[])": "f121da92",
					"renounceOwnership()": "715018a6",
					"setStorageContractAddress(address)": "51f7598c",
					"startSale(uint256)": "0e3ab61d",
					"storageContract()": "11ce0267",
					"transferOwnership(address)": "f2fde38b"
				}
			},
			"storageLayout": {
				"storage": [
					{
						"astId": 7,
						"contract": "contracts/Founding Citizens NFT Sale.sol:FoundingNFTSale",
						"label": "_owner",
						"offset": 0,
						"slot": "0",
						"type": "t_address"
					},
					{
						"astId": 148,
						"contract": "contracts/Founding Citizens NFT Sale.sol:FoundingNFTSale",
						"label": "storageContract",
						"offset": 0,
						"slot": "1",
						"type": "t_address"
					},
					{
						"astId": 151,
						"contract": "contracts/Founding Citizens NFT Sale.sol:FoundingNFTSale",
						"label": "isSaleLive",
						"offset": 20,
						"slot": "1",
						"type": "t_bool"
					},
					{
						"astId": 153,
						"contract": "contracts/Founding Citizens NFT Sale.sol:FoundingNFTSale",
						"label": "saleStart",
						"offset": 0,
						"slot": "2",
						"type": "t_uint256"
					},
					{
						"astId": 155,
						"contract": "contracts/Founding Citizens NFT Sale.sol:FoundingNFTSale",
						"label": "price",
						"offset": 0,
						"slot": "3",
						"type": "t_uint256"
					}
				],
				"types": {
					"t_address": {
						"encoding": "inplace",
						"label": "address",
						"numberOfBytes": "20"
					},
					"t_bool": {
						"encoding": "inplace",
						"label": "bool",
						"numberOfBytes": "1"
					},
					"t_uint256": {
						"encoding": "inplace",
						"label": "uint256",
						"numberOfBytes": "32"
					}
				}
			},
			"userdoc": {
				"kind": "user",
				"methods": {},
				"version": 1
			}
		}
	}
}