{
	"contracts/USDC Escrow Storage.sol": {
		"UsdcEscrowStorage": {
			"abi": [
				{
					"anonymous": false,
					"inputs": [
						{
							"indexed": true,
							"internalType": "bytes32",
							"name": "role",
							"type": "bytes32"
						},
						{
							"indexed": true,
							"internalType": "bytes32",
							"name": "previousAdminRole",
							"type": "bytes32"
						},
						{
							"indexed": true,
							"internalType": "bytes32",
							"name": "newAdminRole",
							"type": "bytes32"
						}
					],
					"name": "RoleAdminChanged",
					"type": "event"
				},
				{
					"anonymous": false,
					"inputs": [
						{
							"indexed": true,
							"internalType": "bytes32",
							"name": "role",
							"type": "bytes32"
						},
						{
							"indexed": true,
							"internalType": "address",
							"name": "account",
							"type": "address"
						},
						{
							"indexed": true,
							"internalType": "address",
							"name": "sender",
							"type": "address"
						}
					],
					"name": "RoleGranted",
					"type": "event"
				},
				{
					"anonymous": false,
					"inputs": [
						{
							"indexed": true,
							"internalType": "bytes32",
							"name": "role",
							"type": "bytes32"
						},
						{
							"indexed": true,
							"internalType": "address",
							"name": "account",
							"type": "address"
						},
						{
							"indexed": true,
							"internalType": "address",
							"name": "sender",
							"type": "address"
						}
					],
					"name": "RoleRevoked",
					"type": "event"
				},
				{
					"stateMutability": "payable",
					"type": "fallback"
				},
				{
					"inputs": [],
					"name": "DEFAULT_ADMIN_ROLE",
					"outputs": [
						{
							"internalType": "bytes32",
							"name": "",
							"type": "bytes32"
						}
					],
					"stateMutability": "view",
					"type": "function"
				},
				{
					"inputs": [],
					"name": "USDC_MANAGER_ROLE",
					"outputs": [
						{
							"internalType": "bytes32",
							"name": "",
							"type": "bytes32"
						}
					],
					"stateMutability": "view",
					"type": "function"
				},
				{
					"inputs": [
						{
							"internalType": "address",
							"name": "address_",
							"type": "address"
						},
						{
							"internalType": "uint256",
							"name": "amount",
							"type": "uint256"
						}
					],
					"name": "decreaseUsdcBalance",
					"outputs": [],
					"stateMutability": "nonpayable",
					"type": "function"
				},
				{
					"inputs": [
						{
							"internalType": "bytes32",
							"name": "role",
							"type": "bytes32"
						}
					],
					"name": "getRoleAdmin",
					"outputs": [
						{
							"internalType": "bytes32",
							"name": "",
							"type": "bytes32"
						}
					],
					"stateMutability": "view",
					"type": "function"
				},
				{
					"inputs": [
						{
							"internalType": "address",
							"name": "address_",
							"type": "address"
						}
					],
					"name": "getUsdcBalance",
					"outputs": [
						{
							"internalType": "uint256",
							"name": "",
							"type": "uint256"
						}
					],
					"stateMutability": "view",
					"type": "function"
				},
				{
					"inputs": [
						{
							"internalType": "bytes32",
							"name": "role",
							"type": "bytes32"
						},
						{
							"internalType": "address",
							"name": "account",
							"type": "address"
						}
					],
					"name": "grantRole",
					"outputs": [],
					"stateMutability": "nonpayable",
					"type": "function"
				},
				{
					"inputs": [
						{
							"internalType": "bytes32",
							"name": "role",
							"type": "bytes32"
						},
						{
							"internalType": "address",
							"name": "account",
							"type": "address"
						}
					],
					"name": "hasRole",
					"outputs": [
						{
							"internalType": "bool",
							"name": "",
							"type": "bool"
						}
					],
					"stateMutability": "view",
					"type": "function"
				},
				{
					"inputs": [
						{
							"internalType": "address",
							"name": "address_",
							"type": "address"
						},
						{
							"internalType": "uint256",
							"name": "amount",
							"type": "uint256"
						}
					],
					"name": "increaseUsdcBalance",
					"outputs": [],
					"stateMutability": "nonpayable",
					"type": "function"
				},
				{
					"inputs": [
						{
							"internalType": "uint256",
							"name": "amount",
							"type": "uint256"
						}
					],
					"name": "receiveUSDC",
					"outputs": [],
					"stateMutability": "nonpayable",
					"type": "function"
				},
				{
					"inputs": [
						{
							"internalType": "address",
							"name": "to",
							"type": "address"
						},
						{
							"internalType": "uint256",
							"name": "amount",
							"type": "uint256"
						}
					],
					"name": "refundUsdcTo",
					"outputs": [],
					"stateMutability": "nonpayable",
					"type": "function"
				},
				{
					"inputs": [
						{
							"internalType": "bytes32",
							"name": "role",
							"type": "bytes32"
						},
						{
							"internalType": "address",
							"name": "account",
							"type": "address"
						}
					],
					"name": "renounceRole",
					"outputs": [],
					"stateMutability": "nonpayable",
					"type": "function"
				},
				{
					"inputs": [
						{
							"internalType": "bytes32",
							"name": "role",
							"type": "bytes32"
						},
						{
							"internalType": "address",
							"name": "account",
							"type": "address"
						}
					],
					"name": "revokeRole",
					"outputs": [],
					"stateMutability": "nonpayable",
					"type": "function"
				},
				{
					"inputs": [
						{
							"internalType": "bytes4",
							"name": "interfaceId",
							"type": "bytes4"
						}
					],
					"name": "supportsInterface",
					"outputs": [
						{
							"internalType": "bool",
							"name": "",
							"type": "bool"
						}
					],
					"stateMutability": "view",
					"type": "function"
				},
				{
					"inputs": [
						{
							"internalType": "address",
							"name": "from",
							"type": "address"
						},
						{
							"internalType": "address",
							"name": "to",
							"type": "address"
						},
						{
							"internalType": "uint256",
							"name": "amount",
							"type": "uint256"
						}
					],
					"name": "transferUsdcBalance",
					"outputs": [],
					"stateMutability": "nonpayable",
					"type": "function"
				},
				{
					"inputs": [
						{
							"internalType": "address",
							"name": "",
							"type": "address"
						}
					],
					"name": "usdcBalances",
					"outputs": [
						{
							"internalType": "uint256",
							"name": "",
							"type": "uint256"
						}
					],
					"stateMutability": "view",
					"type": "function"
				},
				{
					"stateMutability": "payable",
					"type": "receive"
				}
			],
			"devdoc": {
				"kind": "dev",
				"methods": {
					"getRoleAdmin(bytes32)": {
						"details": "Returns the admin role that controls `role`. See {grantRole} and {revokeRole}. To change a role's admin, use {_setRoleAdmin}."
					},
					"grantRole(bytes32,address)": {
						"details": "Grants `role` to `account`. If `account` had not been already granted `role`, emits a {RoleGranted} event. Requirements: - the caller must have ``role``'s admin role."
					},
					"hasRole(bytes32,address)": {
						"details": "Returns `true` if `account` has been granted `role`."
					},
					"renounceRole(bytes32,address)": {
						"details": "Revokes `role` from the calling account. Roles are often managed via {grantRole} and {revokeRole}: this function's purpose is to provide a mechanism for accounts to lose their privileges if they are compromised (such as when a trusted device is misplaced). If the calling account had been revoked `role`, emits a {RoleRevoked} event. Requirements: - the caller must be `account`."
					},
					"revokeRole(bytes32,address)": {
						"details": "Revokes `role` from `account`. If `account` had been granted `role`, emits a {RoleRevoked} event. Requirements: - the caller must have ``role``'s admin role."
					},
					"supportsInterface(bytes4)": {
						"details": "See {IERC165-supportsInterface}."
					}
				},
				"version": 1
			},
			"evm": {
				"assembly": "    /* \"contracts/USDC Escrow Storage.sol\":1765:4538  contract UsdcEscrowStorage is AccessControl {\r... */\n  mstore(0x40, 0x80)\n    /* \"contracts/USDC Escrow Storage.sol\":1941:1983  0xe11A86849d99F524cAC3E7A0Ec1241828e332C62 */\n  0xe11a86849d99f524cac3e7a0ec1241828e332c62\n    /* \"contracts/USDC Escrow Storage.sol\":1991:2034  IERC20 usdcToken = IERC20(usdcTokenAddress) */\n  0x01\n  exp(0x0100, 0x00)\n  dup2\n  sload\n  dup2\n  0xffffffffffffffffffffffffffffffffffffffff\n  mul\n  not\n  and\n  swap1\n  dup4\n  0xffffffffffffffffffffffffffffffffffffffff\n  and\n  mul\n  or\n  swap1\n  sstore\n  pop\n    /* \"contracts/USDC Escrow Storage.sol\":1765:4538  contract UsdcEscrowStorage is AccessControl {\r... */\n  callvalue\n  dup1\n  iszero\n  tag_1\n  jumpi\n  0x00\n  dup1\n  revert\ntag_1:\n  pop\n  dataSize(sub_0)\n  dup1\n  dataOffset(sub_0)\n  0x00\n  codecopy\n  0x00\n  return\nstop\n\nsub_0: assembly {\n        /* \"contracts/USDC Escrow Storage.sol\":1765:4538  contract UsdcEscrowStorage is AccessControl {\r... */\n      mstore(0x40, 0x80)\n      jumpi(tag_1, lt(calldatasize, 0x04))\n      shr(0xe0, calldataload(0x00))\n      dup1\n      0x532b2913\n      gt\n      tag_18\n      jumpi\n      dup1\n      0xa99c68c5\n      gt\n      tag_19\n      jumpi\n      dup1\n      0xa99c68c5\n      eq\n      tag_14\n      jumpi\n      dup1\n      0xbf006f0e\n      eq\n      tag_15\n      jumpi\n      dup1\n      0xd547741f\n      eq\n      tag_16\n      jumpi\n      dup1\n      0xddb4acd0\n      eq\n      tag_17\n      jumpi\n      jump(tag_2)\n    tag_19:\n      dup1\n      0x532b2913\n      eq\n      tag_10\n      jumpi\n      dup1\n      0x69b49adc\n      eq\n      tag_11\n      jumpi\n      dup1\n      0x91d14854\n      eq\n      tag_12\n      jumpi\n      dup1\n      0xa217fddf\n      eq\n      tag_13\n      jumpi\n      jump(tag_2)\n    tag_18:\n      dup1\n      0x2f2ff15d\n      gt\n      tag_20\n      jumpi\n      dup1\n      0x2f2ff15d\n      eq\n      tag_6\n      jumpi\n      dup1\n      0x36568abe\n      eq\n      tag_7\n      jumpi\n      dup1\n      0x441b1a44\n      eq\n      tag_8\n      jumpi\n      dup1\n      0x45ad5350\n      eq\n      tag_9\n      jumpi\n      jump(tag_2)\n    tag_20:\n      dup1\n      0x01ffc9a7\n      eq\n      tag_3\n      jumpi\n      dup1\n      0x075060cd\n      eq\n      tag_4\n      jumpi\n      dup1\n      0x248a9ca3\n      eq\n      tag_5\n      jumpi\n      jump(tag_2)\n    tag_1:\n      jumpi(tag_2, calldatasize)\n        /* \"contracts/USDC Escrow Storage.sol\":4335:4376  revert(\"This contract only accepts USDC\") */\n      mload(0x40)\n      0x08c379a000000000000000000000000000000000000000000000000000000000\n      dup2\n      mstore\n      0x04\n      add\n      tag_23\n      swap1\n      tag_24\n      jump\t// in\n    tag_23:\n      mload(0x40)\n      dup1\n      swap2\n      sub\n      swap1\n      revert\n        /* \"contracts/USDC Escrow Storage.sol\":1765:4538  contract UsdcEscrowStorage is AccessControl {\r... */\n    tag_2:\n        /* \"contracts/USDC Escrow Storage.sol\":4431:4525  revert(\"Fallback triggered - please interact with this contract via it's available functions\") */\n      mload(0x40)\n      0x08c379a000000000000000000000000000000000000000000000000000000000\n      dup2\n      mstore\n      0x04\n      add\n      tag_27\n      swap1\n      tag_28\n      jump\t// in\n    tag_27:\n      mload(0x40)\n      dup1\n      swap2\n      sub\n      swap1\n      revert\n        /* \"@openzeppelin/contracts@4.4.2/access/AccessControl.sol\":2605:2807  function supportsInterface(bytes4 interfaceId) public view virtual override returns (bool) {... */\n    tag_3:\n      callvalue\n      dup1\n      iszero\n      tag_29\n      jumpi\n      0x00\n      dup1\n      revert\n    tag_29:\n      pop\n      tag_30\n      0x04\n      dup1\n      calldatasize\n      sub\n      dup2\n      add\n      swap1\n      tag_31\n      swap2\n      swap1\n      tag_32\n      jump\t// in\n    tag_31:\n      tag_33\n      jump\t// in\n    tag_30:\n      mload(0x40)\n      tag_34\n      swap2\n      swap1\n      tag_35\n      jump\t// in\n    tag_34:\n      mload(0x40)\n      dup1\n      swap2\n      sub\n      swap1\n      return\n        /* \"contracts/USDC Escrow Storage.sol\":1822:1896  bytes32 public constant USDC_MANAGER_ROLE = keccak256(\"USDC_MANAGER_ROLE\") */\n    tag_4:\n      callvalue\n      dup1\n      iszero\n      tag_36\n      jumpi\n      0x00\n      dup1\n      revert\n    tag_36:\n      pop\n      tag_37\n      tag_38\n      jump\t// in\n    tag_37:\n      mload(0x40)\n      tag_39\n      swap2\n      swap1\n      tag_40\n      jump\t// in\n    tag_39:\n      mload(0x40)\n      dup1\n      swap2\n      sub\n      swap1\n      return\n        /* \"@openzeppelin/contracts@4.4.2/access/AccessControl.sol\":3977:4098  function getRoleAdmin(bytes32 role) public view override returns (bytes32) {... */\n    tag_5:\n      callvalue\n      dup1\n      iszero\n      tag_41\n      jumpi\n      0x00\n      dup1\n      revert\n    tag_41:\n      pop\n      tag_42\n      0x04\n      dup1\n      calldatasize\n      sub\n      dup2\n      add\n      swap1\n      tag_43\n      swap2\n      swap1\n      tag_44\n      jump\t// in\n    tag_43:\n      tag_45\n      jump\t// in\n    tag_42:\n      mload(0x40)\n      tag_46\n      swap2\n      swap1\n      tag_40\n      jump\t// in\n    tag_46:\n      mload(0x40)\n      dup1\n      swap2\n      sub\n      swap1\n      return\n        /* \"@openzeppelin/contracts@4.4.2/access/AccessControl.sol\":4348:4493  function grantRole(bytes32 role, address account) public virtual override onlyRole(getRoleAdmin(role)) {... */\n    tag_6:\n      callvalue\n      dup1\n      iszero\n      tag_47\n      jumpi\n      0x00\n      dup1\n      revert\n    tag_47:\n      pop\n      tag_48\n      0x04\n      dup1\n      calldatasize\n      sub\n      dup2\n      add\n      swap1\n      tag_49\n      swap2\n      swap1\n      tag_50\n      jump\t// in\n    tag_49:\n      tag_51\n      jump\t// in\n    tag_48:\n      stop\n        /* \"@openzeppelin/contracts@4.4.2/access/AccessControl.sol\":5365:5579  function renounceRole(bytes32 role, address account) public virtual override {... */\n    tag_7:\n      callvalue\n      dup1\n      iszero\n      tag_52\n      jumpi\n      0x00\n      dup1\n      revert\n    tag_52:\n      pop\n      tag_53\n      0x04\n      dup1\n      calldatasize\n      sub\n      dup2\n      add\n      swap1\n      tag_54\n      swap2\n      swap1\n      tag_50\n      jump\t// in\n    tag_54:\n      tag_55\n      jump\t// in\n    tag_53:\n      stop\n        /* \"contracts/USDC Escrow Storage.sol\":2852:3216  function transferUsdcBalance(address from, address to, uint amount) public {\r... */\n    tag_8:\n      callvalue\n      dup1\n      iszero\n      tag_56\n      jumpi\n      0x00\n      dup1\n      revert\n    tag_56:\n      pop\n      tag_57\n      0x04\n      dup1\n      calldatasize\n      sub\n      dup2\n      add\n      swap1\n      tag_58\n      swap2\n      swap1\n      tag_59\n      jump\t// in\n    tag_58:\n      tag_60\n      jump\t// in\n    tag_57:\n      stop\n        /* \"contracts/USDC Escrow Storage.sol\":2554:2718  function refundUsdcTo(address to, uint amount) public {\r... */\n    tag_9:\n      callvalue\n      dup1\n      iszero\n      tag_61\n      jumpi\n      0x00\n      dup1\n      revert\n    tag_61:\n      pop\n      tag_62\n      0x04\n      dup1\n      calldatasize\n      sub\n      dup2\n      add\n      swap1\n      tag_63\n      swap2\n      swap1\n      tag_64\n      jump\t// in\n    tag_63:\n      tag_65\n      jump\t// in\n    tag_62:\n      stop\n        /* \"contracts/USDC Escrow Storage.sol\":3653:4289  function decreaseUsdcBalance(address address_, uint amount) public {\r... */\n    tag_10:\n      callvalue\n      dup1\n      iszero\n      tag_66\n      jumpi\n      0x00\n      dup1\n      revert\n    tag_66:\n      pop\n      tag_67\n      0x04\n      dup1\n      calldatasize\n      sub\n      dup2\n      add\n      swap1\n      tag_68\n      swap2\n      swap1\n      tag_64\n      jump\t// in\n    tag_68:\n      tag_69\n      jump\t// in\n    tag_67:\n      stop\n        /* \"contracts/USDC Escrow Storage.sol\":2726:2844  function getUsdcBalance(address address_) external view returns(uint) {\r... */\n    tag_11:\n      callvalue\n      dup1\n      iszero\n      tag_70\n      jumpi\n      0x00\n      dup1\n      revert\n    tag_70:\n      pop\n      tag_71\n      0x04\n      dup1\n      calldatasize\n      sub\n      dup2\n      add\n      swap1\n      tag_72\n      swap2\n      swap1\n      tag_73\n      jump\t// in\n    tag_72:\n      tag_74\n      jump\t// in\n    tag_71:\n      mload(0x40)\n      tag_75\n      swap2\n      swap1\n      tag_76\n      jump\t// in\n    tag_75:\n      mload(0x40)\n      dup1\n      swap2\n      sub\n      swap1\n      return\n        /* \"@openzeppelin/contracts@4.4.2/access/AccessControl.sol\":2894:3031  function hasRole(bytes32 role, address account) public view override returns (bool) {... */\n    tag_12:\n      callvalue\n      dup1\n      iszero\n      tag_77\n      jumpi\n      0x00\n      dup1\n      revert\n    tag_77:\n      pop\n      tag_78\n      0x04\n      dup1\n      calldatasize\n      sub\n      dup2\n      add\n      swap1\n      tag_79\n      swap2\n      swap1\n      tag_50\n      jump\t// in\n    tag_79:\n      tag_80\n      jump\t// in\n    tag_78:\n      mload(0x40)\n      tag_81\n      swap2\n      swap1\n      tag_35\n      jump\t// in\n    tag_81:\n      mload(0x40)\n      dup1\n      swap2\n      sub\n      swap1\n      return\n        /* \"@openzeppelin/contracts@4.4.2/access/AccessControl.sol\":2012:2061  bytes32 public constant DEFAULT_ADMIN_ROLE = 0x00 */\n    tag_13:\n      callvalue\n      dup1\n      iszero\n      tag_82\n      jumpi\n      0x00\n      dup1\n      revert\n    tag_82:\n      pop\n      tag_83\n      tag_84\n      jump\t// in\n    tag_83:\n      mload(0x40)\n      tag_85\n      swap2\n      swap1\n      tag_40\n      jump\t// in\n    tag_85:\n      mload(0x40)\n      dup1\n      swap2\n      sub\n      swap1\n      return\n        /* \"contracts/USDC Escrow Storage.sol\":2041:2086  mapping (address => uint) public usdcBalances */\n    tag_14:\n      callvalue\n      dup1\n      iszero\n      tag_86\n      jumpi\n      0x00\n      dup1\n      revert\n    tag_86:\n      pop\n      tag_87\n      0x04\n      dup1\n      calldatasize\n      sub\n      dup2\n      add\n      swap1\n      tag_88\n      swap2\n      swap1\n      tag_73\n      jump\t// in\n    tag_88:\n      tag_89\n      jump\t// in\n    tag_87:\n      mload(0x40)\n      tag_90\n      swap2\n      swap1\n      tag_76\n      jump\t// in\n    tag_90:\n      mload(0x40)\n      dup1\n      swap2\n      sub\n      swap1\n      return\n        /* \"contracts/USDC Escrow Storage.sol\":3224:3645  function increaseUsdcBalance(address address_, uint amount) public {\r... */\n    tag_15:\n      callvalue\n      dup1\n      iszero\n      tag_91\n      jumpi\n      0x00\n      dup1\n      revert\n    tag_91:\n      pop\n      tag_92\n      0x04\n      dup1\n      calldatasize\n      sub\n      dup2\n      add\n      swap1\n      tag_93\n      swap2\n      swap1\n      tag_64\n      jump\t// in\n    tag_93:\n      tag_94\n      jump\t// in\n    tag_92:\n      stop\n        /* \"@openzeppelin/contracts@4.4.2/access/AccessControl.sol\":4727:4874  function revokeRole(bytes32 role, address account) public virtual override onlyRole(getRoleAdmin(role)) {... */\n    tag_16:\n      callvalue\n      dup1\n      iszero\n      tag_95\n      jumpi\n      0x00\n      dup1\n      revert\n    tag_95:\n      pop\n      tag_96\n      0x04\n      dup1\n      calldatasize\n      sub\n      dup2\n      add\n      swap1\n      tag_97\n      swap2\n      swap1\n      tag_50\n      jump\t// in\n    tag_97:\n      tag_98\n      jump\t// in\n    tag_96:\n      stop\n        /* \"contracts/USDC Escrow Storage.sol\":2166:2485  function receiveUSDC(uint amount) public {\r... */\n    tag_17:\n      callvalue\n      dup1\n      iszero\n      tag_99\n      jumpi\n      0x00\n      dup1\n      revert\n    tag_99:\n      pop\n      tag_100\n      0x04\n      dup1\n      calldatasize\n      sub\n      dup2\n      add\n      swap1\n      tag_101\n      swap2\n      swap1\n      tag_102\n      jump\t// in\n    tag_101:\n      tag_103\n      jump\t// in\n    tag_100:\n      stop\n        /* \"@openzeppelin/contracts@4.4.2/access/AccessControl.sol\":2605:2807  function supportsInterface(bytes4 interfaceId) public view virtual override returns (bool) {... */\n    tag_33:\n        /* \"@openzeppelin/contracts@4.4.2/access/AccessControl.sol\":2690:2694  bool */\n      0x00\n        /* \"@openzeppelin/contracts@4.4.2/access/AccessControl.sol\":2728:2760  type(IAccessControl).interfaceId */\n      0x7965db0b00000000000000000000000000000000000000000000000000000000\n        /* \"@openzeppelin/contracts@4.4.2/access/AccessControl.sol\":2713:2760  interfaceId == type(IAccessControl).interfaceId */\n      not(0xffffffffffffffffffffffffffffffffffffffffffffffffffffffff)\n      and\n        /* \"@openzeppelin/contracts@4.4.2/access/AccessControl.sol\":2713:2724  interfaceId */\n      dup3\n        /* \"@openzeppelin/contracts@4.4.2/access/AccessControl.sol\":2713:2760  interfaceId == type(IAccessControl).interfaceId */\n      not(0xffffffffffffffffffffffffffffffffffffffffffffffffffffffff)\n      and\n      eq\n        /* \"@openzeppelin/contracts@4.4.2/access/AccessControl.sol\":2713:2800  interfaceId == type(IAccessControl).interfaceId || super.supportsInterface(interfaceId) */\n      dup1\n      tag_105\n      jumpi\n      pop\n        /* \"@openzeppelin/contracts@4.4.2/access/AccessControl.sol\":2764:2800  super.supportsInterface(interfaceId) */\n      tag_106\n        /* \"@openzeppelin/contracts@4.4.2/access/AccessControl.sol\":2788:2799  interfaceId */\n      dup3\n        /* \"@openzeppelin/contracts@4.4.2/access/AccessControl.sol\":2764:2787  super.supportsInterface */\n      tag_107\n        /* \"@openzeppelin/contracts@4.4.2/access/AccessControl.sol\":2764:2800  super.supportsInterface(interfaceId) */\n      jump\t// in\n    tag_106:\n        /* \"@openzeppelin/contracts@4.4.2/access/AccessControl.sol\":2713:2800  interfaceId == type(IAccessControl).interfaceId || super.supportsInterface(interfaceId) */\n    tag_105:\n        /* \"@openzeppelin/contracts@4.4.2/access/AccessControl.sol\":2706:2800  return interfaceId == type(IAccessControl).interfaceId || super.supportsInterface(interfaceId) */\n      swap1\n      pop\n        /* \"@openzeppelin/contracts@4.4.2/access/AccessControl.sol\":2605:2807  function supportsInterface(bytes4 interfaceId) public view virtual override returns (bool) {... */\n      swap2\n      swap1\n      pop\n      jump\t// out\n        /* \"contracts/USDC Escrow Storage.sol\":1822:1896  bytes32 public constant USDC_MANAGER_ROLE = keccak256(\"USDC_MANAGER_ROLE\") */\n    tag_38:\n        /* \"contracts/USDC Escrow Storage.sol\":1866:1896  keccak256(\"USDC_MANAGER_ROLE\") */\n      0x926813fadcea033cdc5f70af011b14bd62c55b1c6ce86dec0632b00c4eb17562\n        /* \"contracts/USDC Escrow Storage.sol\":1822:1896  bytes32 public constant USDC_MANAGER_ROLE = keccak256(\"USDC_MANAGER_ROLE\") */\n      dup2\n      jump\t// out\n        /* \"@openzeppelin/contracts@4.4.2/access/AccessControl.sol\":3977:4098  function getRoleAdmin(bytes32 role) public view override returns (bytes32) {... */\n    tag_45:\n        /* \"@openzeppelin/contracts@4.4.2/access/AccessControl.sol\":4043:4050  bytes32 */\n      0x00\n        /* \"@openzeppelin/contracts@4.4.2/access/AccessControl.sol\":4069:4075  _roles */\n      dup1\n        /* \"@openzeppelin/contracts@4.4.2/access/AccessControl.sol\":4069:4081  _roles[role] */\n      0x00\n        /* \"@openzeppelin/contracts@4.4.2/access/AccessControl.sol\":4076:4080  role */\n      dup4\n        /* \"@openzeppelin/contracts@4.4.2/access/AccessControl.sol\":4069:4081  _roles[role] */\n      dup2\n      mstore\n      0x20\n      add\n      swap1\n      dup2\n      mstore\n      0x20\n      add\n      0x00\n      keccak256\n        /* \"@openzeppelin/contracts@4.4.2/access/AccessControl.sol\":4069:4091  _roles[role].adminRole */\n      0x01\n      add\n      sload\n        /* \"@openzeppelin/contracts@4.4.2/access/AccessControl.sol\":4062:4091  return _roles[role].adminRole */\n      swap1\n      pop\n        /* \"@openzeppelin/contracts@4.4.2/access/AccessControl.sol\":3977:4098  function getRoleAdmin(bytes32 role) public view override returns (bytes32) {... */\n      swap2\n      swap1\n      pop\n      jump\t// out\n        /* \"@openzeppelin/contracts@4.4.2/access/AccessControl.sol\":4348:4493  function grantRole(bytes32 role, address account) public virtual override onlyRole(getRoleAdmin(role)) {... */\n    tag_51:\n        /* \"@openzeppelin/contracts@4.4.2/access/AccessControl.sol\":4431:4449  getRoleAdmin(role) */\n      tag_109\n        /* \"@openzeppelin/contracts@4.4.2/access/AccessControl.sol\":4444:4448  role */\n      dup3\n        /* \"@openzeppelin/contracts@4.4.2/access/AccessControl.sol\":4431:4443  getRoleAdmin */\n      tag_45\n        /* \"@openzeppelin/contracts@4.4.2/access/AccessControl.sol\":4431:4449  getRoleAdmin(role) */\n      jump\t// in\n    tag_109:\n        /* \"@openzeppelin/contracts@4.4.2/access/AccessControl.sol\":2490:2520  _checkRole(role, _msgSender()) */\n      tag_111\n        /* \"@openzeppelin/contracts@4.4.2/access/AccessControl.sol\":2501:2505  role */\n      dup2\n        /* \"@openzeppelin/contracts@4.4.2/access/AccessControl.sol\":2507:2519  _msgSender() */\n      tag_112\n        /* \"@openzeppelin/contracts@4.4.2/access/AccessControl.sol\":2507:2517  _msgSender */\n      tag_113\n        /* \"@openzeppelin/contracts@4.4.2/access/AccessControl.sol\":2507:2519  _msgSender() */\n      jump\t// in\n    tag_112:\n        /* \"@openzeppelin/contracts@4.4.2/access/AccessControl.sol\":2490:2500  _checkRole */\n      tag_114\n        /* \"@openzeppelin/contracts@4.4.2/access/AccessControl.sol\":2490:2520  _checkRole(role, _msgSender()) */\n      jump\t// in\n    tag_111:\n        /* \"@openzeppelin/contracts@4.4.2/access/AccessControl.sol\":4461:4486  _grantRole(role, account) */\n      tag_116\n        /* \"@openzeppelin/contracts@4.4.2/access/AccessControl.sol\":4472:4476  role */\n      dup4\n        /* \"@openzeppelin/contracts@4.4.2/access/AccessControl.sol\":4478:4485  account */\n      dup4\n        /* \"@openzeppelin/contracts@4.4.2/access/AccessControl.sol\":4461:4471  _grantRole */\n      tag_117\n        /* \"@openzeppelin/contracts@4.4.2/access/AccessControl.sol\":4461:4486  _grantRole(role, account) */\n      jump\t// in\n    tag_116:\n        /* \"@openzeppelin/contracts@4.4.2/access/AccessControl.sol\":4348:4493  function grantRole(bytes32 role, address account) public virtual override onlyRole(getRoleAdmin(role)) {... */\n      pop\n      pop\n      pop\n      jump\t// out\n        /* \"@openzeppelin/contracts@4.4.2/access/AccessControl.sol\":5365:5579  function renounceRole(bytes32 role, address account) public virtual override {... */\n    tag_55:\n        /* \"@openzeppelin/contracts@4.4.2/access/AccessControl.sol\":5471:5483  _msgSender() */\n      tag_119\n        /* \"@openzeppelin/contracts@4.4.2/access/AccessControl.sol\":5471:5481  _msgSender */\n      tag_113\n        /* \"@openzeppelin/contracts@4.4.2/access/AccessControl.sol\":5471:5483  _msgSender() */\n      jump\t// in\n    tag_119:\n        /* \"@openzeppelin/contracts@4.4.2/access/AccessControl.sol\":5460:5483  account == _msgSender() */\n      0xffffffffffffffffffffffffffffffffffffffff\n      and\n        /* \"@openzeppelin/contracts@4.4.2/access/AccessControl.sol\":5460:5467  account */\n      dup2\n        /* \"@openzeppelin/contracts@4.4.2/access/AccessControl.sol\":5460:5483  account == _msgSender() */\n      0xffffffffffffffffffffffffffffffffffffffff\n      and\n      eq\n        /* \"@openzeppelin/contracts@4.4.2/access/AccessControl.sol\":5452:5535  require(account == _msgSender(), \"AccessControl: can only renounce roles for self\") */\n      tag_120\n      jumpi\n      mload(0x40)\n      0x08c379a000000000000000000000000000000000000000000000000000000000\n      dup2\n      mstore\n      0x04\n      add\n      tag_121\n      swap1\n      tag_122\n      jump\t// in\n    tag_121:\n      mload(0x40)\n      dup1\n      swap2\n      sub\n      swap1\n      revert\n    tag_120:\n        /* \"@openzeppelin/contracts@4.4.2/access/AccessControl.sol\":5546:5572  _revokeRole(role, account) */\n      tag_123\n        /* \"@openzeppelin/contracts@4.4.2/access/AccessControl.sol\":5558:5562  role */\n      dup3\n        /* \"@openzeppelin/contracts@4.4.2/access/AccessControl.sol\":5564:5571  account */\n      dup3\n        /* \"@openzeppelin/contracts@4.4.2/access/AccessControl.sol\":5546:5557  _revokeRole */\n      tag_124\n        /* \"@openzeppelin/contracts@4.4.2/access/AccessControl.sol\":5546:5572  _revokeRole(role, account) */\n      jump\t// in\n    tag_123:\n        /* \"@openzeppelin/contracts@4.4.2/access/AccessControl.sol\":5365:5579  function renounceRole(bytes32 role, address account) public virtual override {... */\n      pop\n      pop\n      jump\t// out\n        /* \"contracts/USDC Escrow Storage.sol\":2852:3216  function transferUsdcBalance(address from, address to, uint amount) public {\r... */\n    tag_60:\n        /* \"contracts/USDC Escrow Storage.sol\":2960:3000  hasRole(USDC_MANAGER_ROLE, _msgSender()) */\n      tag_126\n        /* \"contracts/USDC Escrow Storage.sol\":1866:1896  keccak256(\"USDC_MANAGER_ROLE\") */\n      0x926813fadcea033cdc5f70af011b14bd62c55b1c6ce86dec0632b00c4eb17562\n        /* \"contracts/USDC Escrow Storage.sol\":2987:2999  _msgSender() */\n      tag_127\n        /* \"contracts/USDC Escrow Storage.sol\":2987:2997  _msgSender */\n      tag_113\n        /* \"contracts/USDC Escrow Storage.sol\":2987:2999  _msgSender() */\n      jump\t// in\n    tag_127:\n        /* \"contracts/USDC Escrow Storage.sol\":2960:2967  hasRole */\n      tag_80\n        /* \"contracts/USDC Escrow Storage.sol\":2960:3000  hasRole(USDC_MANAGER_ROLE, _msgSender()) */\n      jump\t// in\n    tag_126:\n        /* \"contracts/USDC Escrow Storage.sol\":2960:3059  hasRole(USDC_MANAGER_ROLE, _msgSender()) || \r... */\n      dup1\n      tag_128\n      jumpi\n      pop\n        /* \"contracts/USDC Escrow Storage.sol\":3018:3059  hasRole(DEFAULT_ADMIN_ROLE, _msgSender()) */\n      tag_129\n        /* \"@openzeppelin/contracts@4.4.2/access/AccessControl.sol\":2057:2061  0x00 */\n      0x00\n        /* \"contracts/USDC Escrow Storage.sol\":3026:3044  DEFAULT_ADMIN_ROLE */\n      dup1\n      shl\n        /* \"contracts/USDC Escrow Storage.sol\":3046:3058  _msgSender() */\n      tag_130\n        /* \"contracts/USDC Escrow Storage.sol\":3046:3056  _msgSender */\n      tag_113\n        /* \"contracts/USDC Escrow Storage.sol\":3046:3058  _msgSender() */\n      jump\t// in\n    tag_130:\n        /* \"contracts/USDC Escrow Storage.sol\":3018:3025  hasRole */\n      tag_80\n        /* \"contracts/USDC Escrow Storage.sol\":3018:3059  hasRole(DEFAULT_ADMIN_ROLE, _msgSender()) */\n      jump\t// in\n    tag_129:\n        /* \"contracts/USDC Escrow Storage.sol\":2960:3059  hasRole(USDC_MANAGER_ROLE, _msgSender()) || \r... */\n    tag_128:\n        /* \"contracts/USDC Escrow Storage.sol\":2938:3122  require(\r... */\n      tag_131\n      jumpi\n      mload(0x40)\n      0x08c379a000000000000000000000000000000000000000000000000000000000\n      dup2\n      mstore\n      0x04\n      add\n      tag_132\n      swap1\n      tag_133\n      jump\t// in\n    tag_132:\n      mload(0x40)\n      dup1\n      swap2\n      sub\n      swap1\n      revert\n    tag_131:\n        /* \"contracts/USDC Escrow Storage.sol\":3133:3166  decreaseUsdcBalance(from, amount) */\n      tag_134\n        /* \"contracts/USDC Escrow Storage.sol\":3153:3157  from */\n      dup4\n        /* \"contracts/USDC Escrow Storage.sol\":3159:3165  amount */\n      dup3\n        /* \"contracts/USDC Escrow Storage.sol\":3133:3152  decreaseUsdcBalance */\n      tag_69\n        /* \"contracts/USDC Escrow Storage.sol\":3133:3166  decreaseUsdcBalance(from, amount) */\n      jump\t// in\n    tag_134:\n        /* \"contracts/USDC Escrow Storage.sol\":3177:3208  increaseUsdcBalance(to, amount) */\n      tag_135\n        /* \"contracts/USDC Escrow Storage.sol\":3197:3199  to */\n      dup3\n        /* \"contracts/USDC Escrow Storage.sol\":3201:3207  amount */\n      dup3\n        /* \"contracts/USDC Escrow Storage.sol\":3177:3196  increaseUsdcBalance */\n      tag_94\n        /* \"contracts/USDC Escrow Storage.sol\":3177:3208  increaseUsdcBalance(to, amount) */\n      jump\t// in\n    tag_135:\n        /* \"contracts/USDC Escrow Storage.sol\":2852:3216  function transferUsdcBalance(address from, address to, uint amount) public {\r... */\n      pop\n      pop\n      pop\n      jump\t// out\n        /* \"contracts/USDC Escrow Storage.sol\":2554:2718  function refundUsdcTo(address to, uint amount) public {\r... */\n    tag_65:\n        /* \"contracts/USDC Escrow Storage.sol\":2619:2650  decreaseUsdcBalance(to, amount) */\n      tag_137\n        /* \"contracts/USDC Escrow Storage.sol\":2639:2641  to */\n      dup3\n        /* \"contracts/USDC Escrow Storage.sol\":2643:2649  amount */\n      dup3\n        /* \"contracts/USDC Escrow Storage.sol\":2619:2638  decreaseUsdcBalance */\n      tag_69\n        /* \"contracts/USDC Escrow Storage.sol\":2619:2650  decreaseUsdcBalance(to, amount) */\n      jump\t// in\n    tag_137:\n        /* \"contracts/USDC Escrow Storage.sol\":2661:2670  usdcToken */\n      0x01\n      0x00\n      swap1\n      sload\n      swap1\n      0x0100\n      exp\n      swap1\n      div\n      0xffffffffffffffffffffffffffffffffffffffff\n      and\n        /* \"contracts/USDC Escrow Storage.sol\":2661:2683  usdcToken.transferFrom */\n      0xffffffffffffffffffffffffffffffffffffffff\n      and\n      0x23b872dd\n        /* \"contracts/USDC Escrow Storage.sol\":2692:2696  this */\n      address\n        /* \"contracts/USDC Escrow Storage.sol\":2699:2701  to */\n      dup5\n        /* \"contracts/USDC Escrow Storage.sol\":2703:2709  amount */\n      dup5\n        /* \"contracts/USDC Escrow Storage.sol\":2661:2710  usdcToken.transferFrom(address(this), to, amount) */\n      mload(0x40)\n      dup5\n      0xffffffff\n      and\n      0xe0\n      shl\n      dup2\n      mstore\n      0x04\n      add\n      tag_138\n      swap4\n      swap3\n      swap2\n      swap1\n      tag_139\n      jump\t// in\n    tag_138:\n      0x20\n      mload(0x40)\n      dup1\n      dup4\n      sub\n      dup2\n      0x00\n      dup8\n      dup1\n      extcodesize\n      iszero\n      dup1\n      iszero\n      tag_140\n      jumpi\n      0x00\n      dup1\n      revert\n    tag_140:\n      pop\n      gas\n      call\n      iszero\n      dup1\n      iszero\n      tag_142\n      jumpi\n      returndatasize\n      0x00\n      dup1\n      returndatacopy\n      revert(0x00, returndatasize)\n    tag_142:\n      pop\n      pop\n      pop\n      pop\n      mload(0x40)\n      returndatasize\n      not(0x1f)\n      0x1f\n      dup3\n      add\n      and\n      dup3\n      add\n      dup1\n      0x40\n      mstore\n      pop\n      dup2\n      add\n      swap1\n      tag_143\n      swap2\n      swap1\n      tag_144\n      jump\t// in\n    tag_143:\n      pop\n        /* \"contracts/USDC Escrow Storage.sol\":2554:2718  function refundUsdcTo(address to, uint amount) public {\r... */\n      pop\n      pop\n      jump\t// out\n        /* \"contracts/USDC Escrow Storage.sol\":3653:4289  function decreaseUsdcBalance(address address_, uint amount) public {\r... */\n    tag_69:\n        /* \"contracts/USDC Escrow Storage.sol\":3753:3793  hasRole(USDC_MANAGER_ROLE, _msgSender()) */\n      tag_146\n        /* \"contracts/USDC Escrow Storage.sol\":1866:1896  keccak256(\"USDC_MANAGER_ROLE\") */\n      0x926813fadcea033cdc5f70af011b14bd62c55b1c6ce86dec0632b00c4eb17562\n        /* \"contracts/USDC Escrow Storage.sol\":3780:3792  _msgSender() */\n      tag_147\n        /* \"contracts/USDC Escrow Storage.sol\":3780:3790  _msgSender */\n      tag_113\n        /* \"contracts/USDC Escrow Storage.sol\":3780:3792  _msgSender() */\n      jump\t// in\n    tag_147:\n        /* \"contracts/USDC Escrow Storage.sol\":3753:3760  hasRole */\n      tag_80\n        /* \"contracts/USDC Escrow Storage.sol\":3753:3793  hasRole(USDC_MANAGER_ROLE, _msgSender()) */\n      jump\t// in\n    tag_146:\n        /* \"contracts/USDC Escrow Storage.sol\":3753:3852  hasRole(USDC_MANAGER_ROLE, _msgSender()) || \r... */\n      dup1\n      tag_148\n      jumpi\n      pop\n        /* \"contracts/USDC Escrow Storage.sol\":3811:3852  hasRole(DEFAULT_ADMIN_ROLE, _msgSender()) */\n      tag_149\n        /* \"@openzeppelin/contracts@4.4.2/access/AccessControl.sol\":2057:2061  0x00 */\n      0x00\n        /* \"contracts/USDC Escrow Storage.sol\":3819:3837  DEFAULT_ADMIN_ROLE */\n      dup1\n      shl\n        /* \"contracts/USDC Escrow Storage.sol\":3839:3851  _msgSender() */\n      tag_150\n        /* \"contracts/USDC Escrow Storage.sol\":3839:3849  _msgSender */\n      tag_113\n        /* \"contracts/USDC Escrow Storage.sol\":3839:3851  _msgSender() */\n      jump\t// in\n    tag_150:\n        /* \"contracts/USDC Escrow Storage.sol\":3811:3818  hasRole */\n      tag_80\n        /* \"contracts/USDC Escrow Storage.sol\":3811:3852  hasRole(DEFAULT_ADMIN_ROLE, _msgSender()) */\n      jump\t// in\n    tag_149:\n        /* \"contracts/USDC Escrow Storage.sol\":3753:3852  hasRole(USDC_MANAGER_ROLE, _msgSender()) || \r... */\n    tag_148:\n        /* \"contracts/USDC Escrow Storage.sol\":3731:3915  require(\r... */\n      tag_151\n      jumpi\n      mload(0x40)\n      0x08c379a000000000000000000000000000000000000000000000000000000000\n      dup2\n      mstore\n      0x04\n      add\n      tag_152\n      swap1\n      tag_133\n      jump\t// in\n    tag_152:\n      mload(0x40)\n      dup1\n      swap2\n      sub\n      swap1\n      revert\n    tag_151:\n        /* \"contracts/USDC Escrow Storage.sol\":3943:3944  0 */\n      0x00\n        /* \"contracts/USDC Escrow Storage.sol\":3934:3940  amount */\n      dup2\n        /* \"contracts/USDC Escrow Storage.sol\":3934:3944  amount > 0 */\n      gt\n        /* \"contracts/USDC Escrow Storage.sol\":3926:4023  require(amount > 0, \"must update the USDC balance with a (positive or negative) non-zero amount\") */\n      tag_153\n      jumpi\n      mload(0x40)\n      0x08c379a000000000000000000000000000000000000000000000000000000000\n      dup2\n      mstore\n      0x04\n      add\n      tag_154\n      swap1\n      tag_155\n      jump\t// in\n    tag_154:\n      mload(0x40)\n      dup1\n      swap2\n      sub\n      swap1\n      revert\n    tag_153:\n        /* \"contracts/USDC Escrow Storage.sol\":4052:4064  usdcBalances */\n      0x02\n        /* \"contracts/USDC Escrow Storage.sol\":4052:4074  usdcBalances[address_] */\n      0x00\n        /* \"contracts/USDC Escrow Storage.sol\":4065:4073  address_ */\n      dup4\n        /* \"contracts/USDC Escrow Storage.sol\":4052:4074  usdcBalances[address_] */\n      0xffffffffffffffffffffffffffffffffffffffff\n      and\n      0xffffffffffffffffffffffffffffffffffffffff\n      and\n      dup2\n      mstore\n      0x20\n      add\n      swap1\n      dup2\n      mstore\n      0x20\n      add\n      0x00\n      keccak256\n      sload\n        /* \"contracts/USDC Escrow Storage.sol\":4042:4048  amount */\n      dup2\n        /* \"contracts/USDC Escrow Storage.sol\":4042:4074  amount <= usdcBalances[address_] */\n      gt\n      iszero\n        /* \"contracts/USDC Escrow Storage.sol\":4150:4158  address_ */\n      dup3\n        /* \"contracts/USDC Escrow Storage.sol\":4213:4225  usdcBalances */\n      0x02\n        /* \"contracts/USDC Escrow Storage.sol\":4213:4235  usdcBalances[address_] */\n      0x00\n        /* \"contracts/USDC Escrow Storage.sol\":4226:4234  address_ */\n      dup6\n        /* \"contracts/USDC Escrow Storage.sol\":4213:4235  usdcBalances[address_] */\n      0xffffffffffffffffffffffffffffffffffffffff\n      and\n      0xffffffffffffffffffffffffffffffffffffffff\n      and\n      dup2\n      mstore\n      0x20\n      add\n      swap1\n      dup2\n      mstore\n      0x20\n      add\n      0x00\n      keccak256\n      sload\n        /* \"contracts/USDC Escrow Storage.sol\":4083:4236  abi.encodePacked(\r... */\n      add(0x20, mload(0x40))\n      tag_156\n      swap3\n      swap2\n      swap1\n      tag_157\n      jump\t// in\n    tag_156:\n      mload(0x40)\n      0x20\n      dup2\n      dup4\n      sub\n      sub\n      dup2\n      mstore\n      swap1\n      0x40\n      mstore\n        /* \"contracts/USDC Escrow Storage.sol\":4034:4238  require(amount <= usdcBalances[address_], string(abi.encodePacked(\r... */\n      swap1\n      tag_158\n      jumpi\n      mload(0x40)\n      0x08c379a000000000000000000000000000000000000000000000000000000000\n      dup2\n      mstore\n      0x04\n      add\n      tag_159\n      swap2\n      swap1\n      tag_160\n      jump\t// in\n    tag_159:\n      mload(0x40)\n      dup1\n      swap2\n      sub\n      swap1\n      revert\n    tag_158:\n      pop\n        /* \"contracts/USDC Escrow Storage.sol\":4275:4281  amount */\n      dup1\n        /* \"contracts/USDC Escrow Storage.sol\":4249:4261  usdcBalances */\n      0x02\n        /* \"contracts/USDC Escrow Storage.sol\":4249:4271  usdcBalances[address_] */\n      0x00\n        /* \"contracts/USDC Escrow Storage.sol\":4262:4270  address_ */\n      dup5\n        /* \"contracts/USDC Escrow Storage.sol\":4249:4271  usdcBalances[address_] */\n      0xffffffffffffffffffffffffffffffffffffffff\n      and\n      0xffffffffffffffffffffffffffffffffffffffff\n      and\n      dup2\n      mstore\n      0x20\n      add\n      swap1\n      dup2\n      mstore\n      0x20\n      add\n      0x00\n      keccak256\n      0x00\n        /* \"contracts/USDC Escrow Storage.sol\":4249:4281  usdcBalances[address_] -= amount */\n      dup3\n      dup3\n      sload\n      tag_161\n      swap2\n      swap1\n      tag_162\n      jump\t// in\n    tag_161:\n      swap3\n      pop\n      pop\n      dup2\n      swap1\n      sstore\n      pop\n        /* \"contracts/USDC Escrow Storage.sol\":3653:4289  function decreaseUsdcBalance(address address_, uint amount) public {\r... */\n      pop\n      pop\n      jump\t// out\n        /* \"contracts/USDC Escrow Storage.sol\":2726:2844  function getUsdcBalance(address address_) external view returns(uint) {\r... */\n    tag_74:\n        /* \"contracts/USDC Escrow Storage.sol\":2790:2794  uint */\n      0x00\n        /* \"contracts/USDC Escrow Storage.sol\":2814:2826  usdcBalances */\n      0x02\n        /* \"contracts/USDC Escrow Storage.sol\":2814:2836  usdcBalances[address_] */\n      0x00\n        /* \"contracts/USDC Escrow Storage.sol\":2827:2835  address_ */\n      dup4\n        /* \"contracts/USDC Escrow Storage.sol\":2814:2836  usdcBalances[address_] */\n      0xffffffffffffffffffffffffffffffffffffffff\n      and\n      0xffffffffffffffffffffffffffffffffffffffff\n      and\n      dup2\n      mstore\n      0x20\n      add\n      swap1\n      dup2\n      mstore\n      0x20\n      add\n      0x00\n      keccak256\n      sload\n        /* \"contracts/USDC Escrow Storage.sol\":2807:2836  return usdcBalances[address_] */\n      swap1\n      pop\n        /* \"contracts/USDC Escrow Storage.sol\":2726:2844  function getUsdcBalance(address address_) external view returns(uint) {\r... */\n      swap2\n      swap1\n      pop\n      jump\t// out\n        /* \"@openzeppelin/contracts@4.4.2/access/AccessControl.sol\":2894:3031  function hasRole(bytes32 role, address account) public view override returns (bool) {... */\n    tag_80:\n        /* \"@openzeppelin/contracts@4.4.2/access/AccessControl.sol\":2972:2976  bool */\n      0x00\n        /* \"@openzeppelin/contracts@4.4.2/access/AccessControl.sol\":2995:3001  _roles */\n      dup1\n        /* \"@openzeppelin/contracts@4.4.2/access/AccessControl.sol\":2995:3007  _roles[role] */\n      0x00\n        /* \"@openzeppelin/contracts@4.4.2/access/AccessControl.sol\":3002:3006  role */\n      dup5\n        /* \"@openzeppelin/contracts@4.4.2/access/AccessControl.sol\":2995:3007  _roles[role] */\n      dup2\n      mstore\n      0x20\n      add\n      swap1\n      dup2\n      mstore\n      0x20\n      add\n      0x00\n      keccak256\n        /* \"@openzeppelin/contracts@4.4.2/access/AccessControl.sol\":2995:3015  _roles[role].members */\n      0x00\n      add\n        /* \"@openzeppelin/contracts@4.4.2/access/AccessControl.sol\":2995:3024  _roles[role].members[account] */\n      0x00\n        /* \"@openzeppelin/contracts@4.4.2/access/AccessControl.sol\":3016:3023  account */\n      dup4\n        /* \"@openzeppelin/contracts@4.4.2/access/AccessControl.sol\":2995:3024  _roles[role].members[account] */\n      0xffffffffffffffffffffffffffffffffffffffff\n      and\n      0xffffffffffffffffffffffffffffffffffffffff\n      and\n      dup2\n      mstore\n      0x20\n      add\n      swap1\n      dup2\n      mstore\n      0x20\n      add\n      0x00\n      keccak256\n      0x00\n      swap1\n      sload\n      swap1\n      0x0100\n      exp\n      swap1\n      div\n      0xff\n      and\n        /* \"@openzeppelin/contracts@4.4.2/access/AccessControl.sol\":2988:3024  return _roles[role].members[account] */\n      swap1\n      pop\n        /* \"@openzeppelin/contracts@4.4.2/access/AccessControl.sol\":2894:3031  function hasRole(bytes32 role, address account) public view override returns (bool) {... */\n      swap3\n      swap2\n      pop\n      pop\n      jump\t// out\n        /* \"@openzeppelin/contracts@4.4.2/access/AccessControl.sol\":2012:2061  bytes32 public constant DEFAULT_ADMIN_ROLE = 0x00 */\n    tag_84:\n        /* \"@openzeppelin/contracts@4.4.2/access/AccessControl.sol\":2057:2061  0x00 */\n      0x00\n        /* \"@openzeppelin/contracts@4.4.2/access/AccessControl.sol\":2012:2061  bytes32 public constant DEFAULT_ADMIN_ROLE = 0x00 */\n      dup1\n      shl\n      dup2\n      jump\t// out\n        /* \"contracts/USDC Escrow Storage.sol\":2041:2086  mapping (address => uint) public usdcBalances */\n    tag_89:\n      mstore(0x20, 0x02)\n      dup1\n      0x00\n      mstore\n      keccak256(0x00, 0x40)\n      0x00\n      swap2\n      pop\n      swap1\n      pop\n      sload\n      dup2\n      jump\t// out\n        /* \"contracts/USDC Escrow Storage.sol\":3224:3645  function increaseUsdcBalance(address address_, uint amount) public {\r... */\n    tag_94:\n        /* \"contracts/USDC Escrow Storage.sol\":3324:3364  hasRole(USDC_MANAGER_ROLE, _msgSender()) */\n      tag_166\n        /* \"contracts/USDC Escrow Storage.sol\":1866:1896  keccak256(\"USDC_MANAGER_ROLE\") */\n      0x926813fadcea033cdc5f70af011b14bd62c55b1c6ce86dec0632b00c4eb17562\n        /* \"contracts/USDC Escrow Storage.sol\":3351:3363  _msgSender() */\n      tag_167\n        /* \"contracts/USDC Escrow Storage.sol\":3351:3361  _msgSender */\n      tag_113\n        /* \"contracts/USDC Escrow Storage.sol\":3351:3363  _msgSender() */\n      jump\t// in\n    tag_167:\n        /* \"contracts/USDC Escrow Storage.sol\":3324:3331  hasRole */\n      tag_80\n        /* \"contracts/USDC Escrow Storage.sol\":3324:3364  hasRole(USDC_MANAGER_ROLE, _msgSender()) */\n      jump\t// in\n    tag_166:\n        /* \"contracts/USDC Escrow Storage.sol\":3324:3423  hasRole(USDC_MANAGER_ROLE, _msgSender()) || \r... */\n      dup1\n      tag_168\n      jumpi\n      pop\n        /* \"contracts/USDC Escrow Storage.sol\":3382:3423  hasRole(DEFAULT_ADMIN_ROLE, _msgSender()) */\n      tag_169\n        /* \"@openzeppelin/contracts@4.4.2/access/AccessControl.sol\":2057:2061  0x00 */\n      0x00\n        /* \"contracts/USDC Escrow Storage.sol\":3390:3408  DEFAULT_ADMIN_ROLE */\n      dup1\n      shl\n        /* \"contracts/USDC Escrow Storage.sol\":3410:3422  _msgSender() */\n      tag_170\n        /* \"contracts/USDC Escrow Storage.sol\":3410:3420  _msgSender */\n      tag_113\n        /* \"contracts/USDC Escrow Storage.sol\":3410:3422  _msgSender() */\n      jump\t// in\n    tag_170:\n        /* \"contracts/USDC Escrow Storage.sol\":3382:3389  hasRole */\n      tag_80\n        /* \"contracts/USDC Escrow Storage.sol\":3382:3423  hasRole(DEFAULT_ADMIN_ROLE, _msgSender()) */\n      jump\t// in\n    tag_169:\n        /* \"contracts/USDC Escrow Storage.sol\":3324:3423  hasRole(USDC_MANAGER_ROLE, _msgSender()) || \r... */\n    tag_168:\n        /* \"contracts/USDC Escrow Storage.sol\":3302:3486  require(\r... */\n      tag_171\n      jumpi\n      mload(0x40)\n      0x08c379a000000000000000000000000000000000000000000000000000000000\n      dup2\n      mstore\n      0x04\n      add\n      tag_172\n      swap1\n      tag_133\n      jump\t// in\n    tag_172:\n      mload(0x40)\n      dup1\n      swap2\n      sub\n      swap1\n      revert\n    tag_171:\n        /* \"contracts/USDC Escrow Storage.sol\":3514:3515  0 */\n      0x00\n        /* \"contracts/USDC Escrow Storage.sol\":3505:3511  amount */\n      dup2\n        /* \"contracts/USDC Escrow Storage.sol\":3505:3515  amount > 0 */\n      gt\n        /* \"contracts/USDC Escrow Storage.sol\":3497:3594  require(amount > 0, \"must update the USDC balance with a (positive or negative) non-zero amount\") */\n      tag_173\n      jumpi\n      mload(0x40)\n      0x08c379a000000000000000000000000000000000000000000000000000000000\n      dup2\n      mstore\n      0x04\n      add\n      tag_174\n      swap1\n      tag_155\n      jump\t// in\n    tag_174:\n      mload(0x40)\n      dup1\n      swap2\n      sub\n      swap1\n      revert\n    tag_173:\n        /* \"contracts/USDC Escrow Storage.sol\":3631:3637  amount */\n      dup1\n        /* \"contracts/USDC Escrow Storage.sol\":3605:3617  usdcBalances */\n      0x02\n        /* \"contracts/USDC Escrow Storage.sol\":3605:3627  usdcBalances[address_] */\n      0x00\n        /* \"contracts/USDC Escrow Storage.sol\":3618:3626  address_ */\n      dup5\n        /* \"contracts/USDC Escrow Storage.sol\":3605:3627  usdcBalances[address_] */\n      0xffffffffffffffffffffffffffffffffffffffff\n      and\n      0xffffffffffffffffffffffffffffffffffffffff\n      and\n      dup2\n      mstore\n      0x20\n      add\n      swap1\n      dup2\n      mstore\n      0x20\n      add\n      0x00\n      keccak256\n      0x00\n        /* \"contracts/USDC Escrow Storage.sol\":3605:3637  usdcBalances[address_] += amount */\n      dup3\n      dup3\n      sload\n      tag_175\n      swap2\n      swap1\n      tag_176\n      jump\t// in\n    tag_175:\n      swap3\n      pop\n      pop\n      dup2\n      swap1\n      sstore\n      pop\n        /* \"contracts/USDC Escrow Storage.sol\":3224:3645  function increaseUsdcBalance(address address_, uint amount) public {\r... */\n      pop\n      pop\n      jump\t// out\n        /* \"@openzeppelin/contracts@4.4.2/access/AccessControl.sol\":4727:4874  function revokeRole(bytes32 role, address account) public virtual override onlyRole(getRoleAdmin(role)) {... */\n    tag_98:\n        /* \"@openzeppelin/contracts@4.4.2/access/AccessControl.sol\":4811:4829  getRoleAdmin(role) */\n      tag_177\n        /* \"@openzeppelin/contracts@4.4.2/access/AccessControl.sol\":4824:4828  role */\n      dup3\n        /* \"@openzeppelin/contracts@4.4.2/access/AccessControl.sol\":4811:4823  getRoleAdmin */\n      tag_45\n        /* \"@openzeppelin/contracts@4.4.2/access/AccessControl.sol\":4811:4829  getRoleAdmin(role) */\n      jump\t// in\n    tag_177:\n        /* \"@openzeppelin/contracts@4.4.2/access/AccessControl.sol\":2490:2520  _checkRole(role, _msgSender()) */\n      tag_179\n        /* \"@openzeppelin/contracts@4.4.2/access/AccessControl.sol\":2501:2505  role */\n      dup2\n        /* \"@openzeppelin/contracts@4.4.2/access/AccessControl.sol\":2507:2519  _msgSender() */\n      tag_180\n        /* \"@openzeppelin/contracts@4.4.2/access/AccessControl.sol\":2507:2517  _msgSender */\n      tag_113\n        /* \"@openzeppelin/contracts@4.4.2/access/AccessControl.sol\":2507:2519  _msgSender() */\n      jump\t// in\n    tag_180:\n        /* \"@openzeppelin/contracts@4.4.2/access/AccessControl.sol\":2490:2500  _checkRole */\n      tag_114\n        /* \"@openzeppelin/contracts@4.4.2/access/AccessControl.sol\":2490:2520  _checkRole(role, _msgSender()) */\n      jump\t// in\n    tag_179:\n        /* \"@openzeppelin/contracts@4.4.2/access/AccessControl.sol\":4841:4867  _revokeRole(role, account) */\n      tag_182\n        /* \"@openzeppelin/contracts@4.4.2/access/AccessControl.sol\":4853:4857  role */\n      dup4\n        /* \"@openzeppelin/contracts@4.4.2/access/AccessControl.sol\":4859:4866  account */\n      dup4\n        /* \"@openzeppelin/contracts@4.4.2/access/AccessControl.sol\":4841:4852  _revokeRole */\n      tag_124\n        /* \"@openzeppelin/contracts@4.4.2/access/AccessControl.sol\":4841:4867  _revokeRole(role, account) */\n      jump\t// in\n    tag_182:\n        /* \"@openzeppelin/contracts@4.4.2/access/AccessControl.sol\":4727:4874  function revokeRole(bytes32 role, address account) public virtual override onlyRole(getRoleAdmin(role)) {... */\n      pop\n      pop\n      pop\n      jump\t// out\n        /* \"contracts/USDC Escrow Storage.sol\":2166:2485  function receiveUSDC(uint amount) public {\r... */\n    tag_103:\n        /* \"contracts/USDC Escrow Storage.sol\":2235:2236  0 */\n      0x00\n        /* \"contracts/USDC Escrow Storage.sol\":2226:2232  amount */\n      dup2\n        /* \"contracts/USDC Escrow Storage.sol\":2226:2236  amount > 0 */\n      gt\n        /* \"contracts/USDC Escrow Storage.sol\":2218:2284  require(amount > 0, \"amount transferred must be a positive value\") */\n      tag_184\n      jumpi\n      mload(0x40)\n      0x08c379a000000000000000000000000000000000000000000000000000000000\n      dup2\n      mstore\n      0x04\n      add\n      tag_185\n      swap1\n      tag_186\n      jump\t// in\n    tag_185:\n      mload(0x40)\n      dup1\n      swap2\n      sub\n      swap1\n      revert\n    tag_184:\n        /* \"contracts/USDC Escrow Storage.sol\":2375:2384  usdcToken */\n      0x01\n      0x00\n      swap1\n      sload\n      swap1\n      0x0100\n      exp\n      swap1\n      div\n      0xffffffffffffffffffffffffffffffffffffffff\n      and\n        /* \"contracts/USDC Escrow Storage.sol\":2375:2397  usdcToken.transferFrom */\n      0xffffffffffffffffffffffffffffffffffffffff\n      and\n      0x23b872dd\n        /* \"contracts/USDC Escrow Storage.sol\":2398:2408  msg.sender */\n      caller\n        /* \"contracts/USDC Escrow Storage.sol\":2418:2422  this */\n      address\n        /* \"contracts/USDC Escrow Storage.sol\":2425:2431  amount */\n      dup5\n        /* \"contracts/USDC Escrow Storage.sol\":2375:2432  usdcToken.transferFrom(msg.sender, address(this), amount) */\n      mload(0x40)\n      dup5\n      0xffffffff\n      and\n      0xe0\n      shl\n      dup2\n      mstore\n      0x04\n      add\n      tag_187\n      swap4\n      swap3\n      swap2\n      swap1\n      tag_139\n      jump\t// in\n    tag_187:\n      0x20\n      mload(0x40)\n      dup1\n      dup4\n      sub\n      dup2\n      0x00\n      dup8\n      dup1\n      extcodesize\n      iszero\n      dup1\n      iszero\n      tag_188\n      jumpi\n      0x00\n      dup1\n      revert\n    tag_188:\n      pop\n      gas\n      call\n      iszero\n      dup1\n      iszero\n      tag_190\n      jumpi\n      returndatasize\n      0x00\n      dup1\n      returndatacopy\n      revert(0x00, returndatasize)\n    tag_190:\n      pop\n      pop\n      pop\n      pop\n      mload(0x40)\n      returndatasize\n      not(0x1f)\n      0x1f\n      dup3\n      add\n      and\n      dup3\n      add\n      dup1\n      0x40\n      mstore\n      pop\n      dup2\n      add\n      swap1\n      tag_191\n      swap2\n      swap1\n      tag_144\n      jump\t// in\n    tag_191:\n      pop\n        /* \"contracts/USDC Escrow Storage.sol\":2471:2477  amount */\n      dup1\n        /* \"contracts/USDC Escrow Storage.sol\":2443:2455  usdcBalances */\n      0x02\n        /* \"contracts/USDC Escrow Storage.sol\":2443:2467  usdcBalances[msg.sender] */\n      0x00\n        /* \"contracts/USDC Escrow Storage.sol\":2456:2466  msg.sender */\n      caller\n        /* \"contracts/USDC Escrow Storage.sol\":2443:2467  usdcBalances[msg.sender] */\n      0xffffffffffffffffffffffffffffffffffffffff\n      and\n      0xffffffffffffffffffffffffffffffffffffffff\n      and\n      dup2\n      mstore\n      0x20\n      add\n      swap1\n      dup2\n      mstore\n      0x20\n      add\n      0x00\n      keccak256\n      0x00\n        /* \"contracts/USDC Escrow Storage.sol\":2443:2477  usdcBalances[msg.sender] += amount */\n      dup3\n      dup3\n      sload\n      tag_192\n      swap2\n      swap1\n      tag_176\n      jump\t// in\n    tag_192:\n      swap3\n      pop\n      pop\n      dup2\n      swap1\n      sstore\n      pop\n        /* \"contracts/USDC Escrow Storage.sol\":2166:2485  function receiveUSDC(uint amount) public {\r... */\n      pop\n      jump\t// out\n        /* \"@openzeppelin/contracts@4.4.2/utils/introspection/ERC165.sol\":829:984  function supportsInterface(bytes4 interfaceId) public view virtual override returns (bool) {... */\n    tag_107:\n        /* \"@openzeppelin/contracts@4.4.2/utils/introspection/ERC165.sol\":914:918  bool */\n      0x00\n        /* \"@openzeppelin/contracts@4.4.2/utils/introspection/ERC165.sol\":952:977  type(IERC165).interfaceId */\n      0x01ffc9a700000000000000000000000000000000000000000000000000000000\n        /* \"@openzeppelin/contracts@4.4.2/utils/introspection/ERC165.sol\":937:977  interfaceId == type(IERC165).interfaceId */\n      not(0xffffffffffffffffffffffffffffffffffffffffffffffffffffffff)\n      and\n        /* \"@openzeppelin/contracts@4.4.2/utils/introspection/ERC165.sol\":937:948  interfaceId */\n      dup3\n        /* \"@openzeppelin/contracts@4.4.2/utils/introspection/ERC165.sol\":937:977  interfaceId == type(IERC165).interfaceId */\n      not(0xffffffffffffffffffffffffffffffffffffffffffffffffffffffff)\n      and\n      eq\n        /* \"@openzeppelin/contracts@4.4.2/utils/introspection/ERC165.sol\":930:977  return interfaceId == type(IERC165).interfaceId */\n      swap1\n      pop\n        /* \"@openzeppelin/contracts@4.4.2/utils/introspection/ERC165.sol\":829:984  function supportsInterface(bytes4 interfaceId) public view virtual override returns (bool) {... */\n      swap2\n      swap1\n      pop\n      jump\t// out\n        /* \"@openzeppelin/contracts@4.4.2/utils/Context.sol\":640:736  function _msgSender() internal view virtual returns (address) {... */\n    tag_113:\n        /* \"@openzeppelin/contracts@4.4.2/utils/Context.sol\":693:700  address */\n      0x00\n        /* \"@openzeppelin/contracts@4.4.2/utils/Context.sol\":719:729  msg.sender */\n      caller\n        /* \"@openzeppelin/contracts@4.4.2/utils/Context.sol\":712:729  return msg.sender */\n      swap1\n      pop\n        /* \"@openzeppelin/contracts@4.4.2/utils/Context.sol\":640:736  function _msgSender() internal view virtual returns (address) {... */\n      swap1\n      jump\t// out\n        /* \"@openzeppelin/contracts@4.4.2/access/AccessControl.sol\":3312:3796  function _checkRole(bytes32 role, address account) internal view {... */\n    tag_114:\n        /* \"@openzeppelin/contracts@4.4.2/access/AccessControl.sol\":3392:3414  hasRole(role, account) */\n      tag_196\n        /* \"@openzeppelin/contracts@4.4.2/access/AccessControl.sol\":3400:3404  role */\n      dup3\n        /* \"@openzeppelin/contracts@4.4.2/access/AccessControl.sol\":3406:3413  account */\n      dup3\n        /* \"@openzeppelin/contracts@4.4.2/access/AccessControl.sol\":3392:3399  hasRole */\n      tag_80\n        /* \"@openzeppelin/contracts@4.4.2/access/AccessControl.sol\":3392:3414  hasRole(role, account) */\n      jump\t// in\n    tag_196:\n        /* \"@openzeppelin/contracts@4.4.2/access/AccessControl.sol\":3387:3790  if (!hasRole(role, account)) {... */\n      tag_197\n      jumpi\n        /* \"@openzeppelin/contracts@4.4.2/access/AccessControl.sol\":3575:3616  Strings.toHexString(uint160(account), 20) */\n      tag_198\n        /* \"@openzeppelin/contracts@4.4.2/access/AccessControl.sol\":3603:3610  account */\n      dup2\n        /* \"@openzeppelin/contracts@4.4.2/access/AccessControl.sol\":3575:3616  Strings.toHexString(uint160(account), 20) */\n      0xffffffffffffffffffffffffffffffffffffffff\n      and\n        /* \"@openzeppelin/contracts@4.4.2/access/AccessControl.sol\":3613:3615  20 */\n      0x14\n        /* \"@openzeppelin/contracts@4.4.2/access/AccessControl.sol\":3575:3594  Strings.toHexString */\n      tag_199\n        /* \"@openzeppelin/contracts@4.4.2/access/AccessControl.sol\":3575:3616  Strings.toHexString(uint160(account), 20) */\n      jump\t// in\n    tag_198:\n        /* \"@openzeppelin/contracts@4.4.2/access/AccessControl.sol\":3687:3725  Strings.toHexString(uint256(role), 32) */\n      tag_200\n        /* \"@openzeppelin/contracts@4.4.2/access/AccessControl.sol\":3715:3719  role */\n      dup4\n        /* \"@openzeppelin/contracts@4.4.2/access/AccessControl.sol\":3707:3720  uint256(role) */\n      0x00\n      shr\n        /* \"@openzeppelin/contracts@4.4.2/access/AccessControl.sol\":3722:3724  32 */\n      0x20\n        /* \"@openzeppelin/contracts@4.4.2/access/AccessControl.sol\":3687:3706  Strings.toHexString */\n      tag_199\n        /* \"@openzeppelin/contracts@4.4.2/access/AccessControl.sol\":3687:3725  Strings.toHexString(uint256(role), 32) */\n      jump\t// in\n    tag_200:\n        /* \"@openzeppelin/contracts@4.4.2/access/AccessControl.sol\":3482:3747  abi.encodePacked(... */\n      add(0x20, mload(0x40))\n      tag_201\n      swap3\n      swap2\n      swap1\n      tag_202\n      jump\t// in\n    tag_201:\n      mload(0x40)\n      0x20\n      dup2\n      dup4\n      sub\n      sub\n      dup2\n      mstore\n      swap1\n      0x40\n      mstore\n        /* \"@openzeppelin/contracts@4.4.2/access/AccessControl.sol\":3430:3779  revert(... */\n      mload(0x40)\n      0x08c379a000000000000000000000000000000000000000000000000000000000\n      dup2\n      mstore\n      0x04\n      add\n      tag_203\n      swap2\n      swap1\n      tag_160\n      jump\t// in\n    tag_203:\n      mload(0x40)\n      dup1\n      swap2\n      sub\n      swap1\n      revert\n        /* \"@openzeppelin/contracts@4.4.2/access/AccessControl.sol\":3387:3790  if (!hasRole(role, account)) {... */\n    tag_197:\n        /* \"@openzeppelin/contracts@4.4.2/access/AccessControl.sol\":3312:3796  function _checkRole(bytes32 role, address account) internal view {... */\n      pop\n      pop\n      jump\t// out\n        /* \"@openzeppelin/contracts@4.4.2/access/AccessControl.sol\":6822:7055  function _grantRole(bytes32 role, address account) internal virtual {... */\n    tag_117:\n        /* \"@openzeppelin/contracts@4.4.2/access/AccessControl.sol\":6905:6927  hasRole(role, account) */\n      tag_205\n        /* \"@openzeppelin/contracts@4.4.2/access/AccessControl.sol\":6913:6917  role */\n      dup3\n        /* \"@openzeppelin/contracts@4.4.2/access/AccessControl.sol\":6919:6926  account */\n      dup3\n        /* \"@openzeppelin/contracts@4.4.2/access/AccessControl.sol\":6905:6912  hasRole */\n      tag_80\n        /* \"@openzeppelin/contracts@4.4.2/access/AccessControl.sol\":6905:6927  hasRole(role, account) */\n      jump\t// in\n    tag_205:\n        /* \"@openzeppelin/contracts@4.4.2/access/AccessControl.sol\":6900:7049  if (!hasRole(role, account)) {... */\n      tag_206\n      jumpi\n        /* \"@openzeppelin/contracts@4.4.2/access/AccessControl.sol\":6975:6979  true */\n      0x01\n        /* \"@openzeppelin/contracts@4.4.2/access/AccessControl.sol\":6943:6949  _roles */\n      0x00\n        /* \"@openzeppelin/contracts@4.4.2/access/AccessControl.sol\":6943:6955  _roles[role] */\n      dup1\n        /* \"@openzeppelin/contracts@4.4.2/access/AccessControl.sol\":6950:6954  role */\n      dup5\n        /* \"@openzeppelin/contracts@4.4.2/access/AccessControl.sol\":6943:6955  _roles[role] */\n      dup2\n      mstore\n      0x20\n      add\n      swap1\n      dup2\n      mstore\n      0x20\n      add\n      0x00\n      keccak256\n        /* \"@openzeppelin/contracts@4.4.2/access/AccessControl.sol\":6943:6963  _roles[role].members */\n      0x00\n      add\n        /* \"@openzeppelin/contracts@4.4.2/access/AccessControl.sol\":6943:6972  _roles[role].members[account] */\n      0x00\n        /* \"@openzeppelin/contracts@4.4.2/access/AccessControl.sol\":6964:6971  account */\n      dup4\n        /* \"@openzeppelin/contracts@4.4.2/access/AccessControl.sol\":6943:6972  _roles[role].members[account] */\n      0xffffffffffffffffffffffffffffffffffffffff\n      and\n      0xffffffffffffffffffffffffffffffffffffffff\n      and\n      dup2\n      mstore\n      0x20\n      add\n      swap1\n      dup2\n      mstore\n      0x20\n      add\n      0x00\n      keccak256\n      0x00\n        /* \"@openzeppelin/contracts@4.4.2/access/AccessControl.sol\":6943:6979  _roles[role].members[account] = true */\n      0x0100\n      exp\n      dup2\n      sload\n      dup2\n      0xff\n      mul\n      not\n      and\n      swap1\n      dup4\n      iszero\n      iszero\n      mul\n      or\n      swap1\n      sstore\n      pop\n        /* \"@openzeppelin/contracts@4.4.2/access/AccessControl.sol\":7025:7037  _msgSender() */\n      tag_207\n        /* \"@openzeppelin/contracts@4.4.2/access/AccessControl.sol\":7025:7035  _msgSender */\n      tag_113\n        /* \"@openzeppelin/contracts@4.4.2/access/AccessControl.sol\":7025:7037  _msgSender() */\n      jump\t// in\n    tag_207:\n        /* \"@openzeppelin/contracts@4.4.2/access/AccessControl.sol\":6998:7038  RoleGranted(role, account, _msgSender()) */\n      0xffffffffffffffffffffffffffffffffffffffff\n      and\n        /* \"@openzeppelin/contracts@4.4.2/access/AccessControl.sol\":7016:7023  account */\n      dup2\n        /* \"@openzeppelin/contracts@4.4.2/access/AccessControl.sol\":6998:7038  RoleGranted(role, account, _msgSender()) */\n      0xffffffffffffffffffffffffffffffffffffffff\n      and\n        /* \"@openzeppelin/contracts@4.4.2/access/AccessControl.sol\":7010:7014  role */\n      dup4\n        /* \"@openzeppelin/contracts@4.4.2/access/AccessControl.sol\":6998:7038  RoleGranted(role, account, _msgSender()) */\n      0x2f8788117e7eff1d82e926ec794901d17c78024a50270940304540a733656f0d\n      mload(0x40)\n      mload(0x40)\n      dup1\n      swap2\n      sub\n      swap1\n      log4\n        /* \"@openzeppelin/contracts@4.4.2/access/AccessControl.sol\":6900:7049  if (!hasRole(role, account)) {... */\n    tag_206:\n        /* \"@openzeppelin/contracts@4.4.2/access/AccessControl.sol\":6822:7055  function _grantRole(bytes32 role, address account) internal virtual {... */\n      pop\n      pop\n      jump\t// out\n        /* \"@openzeppelin/contracts@4.4.2/access/AccessControl.sol\":7180:7414  function _revokeRole(bytes32 role, address account) internal virtual {... */\n    tag_124:\n        /* \"@openzeppelin/contracts@4.4.2/access/AccessControl.sol\":7263:7285  hasRole(role, account) */\n      tag_209\n        /* \"@openzeppelin/contracts@4.4.2/access/AccessControl.sol\":7271:7275  role */\n      dup3\n        /* \"@openzeppelin/contracts@4.4.2/access/AccessControl.sol\":7277:7284  account */\n      dup3\n        /* \"@openzeppelin/contracts@4.4.2/access/AccessControl.sol\":7263:7270  hasRole */\n      tag_80\n        /* \"@openzeppelin/contracts@4.4.2/access/AccessControl.sol\":7263:7285  hasRole(role, account) */\n      jump\t// in\n    tag_209:\n        /* \"@openzeppelin/contracts@4.4.2/access/AccessControl.sol\":7259:7408  if (hasRole(role, account)) {... */\n      iszero\n      tag_210\n      jumpi\n        /* \"@openzeppelin/contracts@4.4.2/access/AccessControl.sol\":7333:7338  false */\n      0x00\n        /* \"@openzeppelin/contracts@4.4.2/access/AccessControl.sol\":7301:7307  _roles */\n      dup1\n        /* \"@openzeppelin/contracts@4.4.2/access/AccessControl.sol\":7301:7313  _roles[role] */\n      0x00\n        /* \"@openzeppelin/contracts@4.4.2/access/AccessControl.sol\":7308:7312  role */\n      dup5\n        /* \"@openzeppelin/contracts@4.4.2/access/AccessControl.sol\":7301:7313  _roles[role] */\n      dup2\n      mstore\n      0x20\n      add\n      swap1\n      dup2\n      mstore\n      0x20\n      add\n      0x00\n      keccak256\n        /* \"@openzeppelin/contracts@4.4.2/access/AccessControl.sol\":7301:7321  _roles[role].members */\n      0x00\n      add\n        /* \"@openzeppelin/contracts@4.4.2/access/AccessControl.sol\":7301:7330  _roles[role].members[account] */\n      0x00\n        /* \"@openzeppelin/contracts@4.4.2/access/AccessControl.sol\":7322:7329  account */\n      dup4\n        /* \"@openzeppelin/contracts@4.4.2/access/AccessControl.sol\":7301:7330  _roles[role].members[account] */\n      0xffffffffffffffffffffffffffffffffffffffff\n      and\n      0xffffffffffffffffffffffffffffffffffffffff\n      and\n      dup2\n      mstore\n      0x20\n      add\n      swap1\n      dup2\n      mstore\n      0x20\n      add\n      0x00\n      keccak256\n      0x00\n        /* \"@openzeppelin/contracts@4.4.2/access/AccessControl.sol\":7301:7338  _roles[role].members[account] = false */\n      0x0100\n      exp\n      dup2\n      sload\n      dup2\n      0xff\n      mul\n      not\n      and\n      swap1\n      dup4\n      iszero\n      iszero\n      mul\n      or\n      swap1\n      sstore\n      pop\n        /* \"@openzeppelin/contracts@4.4.2/access/AccessControl.sol\":7384:7396  _msgSender() */\n      tag_211\n        /* \"@openzeppelin/contracts@4.4.2/access/AccessControl.sol\":7384:7394  _msgSender */\n      tag_113\n        /* \"@openzeppelin/contracts@4.4.2/access/AccessControl.sol\":7384:7396  _msgSender() */\n      jump\t// in\n    tag_211:\n        /* \"@openzeppelin/contracts@4.4.2/access/AccessControl.sol\":7357:7397  RoleRevoked(role, account, _msgSender()) */\n      0xffffffffffffffffffffffffffffffffffffffff\n      and\n        /* \"@openzeppelin/contracts@4.4.2/access/AccessControl.sol\":7375:7382  account */\n      dup2\n        /* \"@openzeppelin/contracts@4.4.2/access/AccessControl.sol\":7357:7397  RoleRevoked(role, account, _msgSender()) */\n      0xffffffffffffffffffffffffffffffffffffffff\n      and\n        /* \"@openzeppelin/contracts@4.4.2/access/AccessControl.sol\":7369:7373  role */\n      dup4\n        /* \"@openzeppelin/contracts@4.4.2/access/AccessControl.sol\":7357:7397  RoleRevoked(role, account, _msgSender()) */\n      0xf6391f5c32d9c69d2a47ea670b442974b53935d1edc7fd64eb21e047a839171b\n      mload(0x40)\n      mload(0x40)\n      dup1\n      swap2\n      sub\n      swap1\n      log4\n        /* \"@openzeppelin/contracts@4.4.2/access/AccessControl.sol\":7259:7408  if (hasRole(role, account)) {... */\n    tag_210:\n        /* \"@openzeppelin/contracts@4.4.2/access/AccessControl.sol\":7180:7414  function _revokeRole(bytes32 role, address account) internal virtual {... */\n      pop\n      pop\n      jump\t// out\n        /* \"@openzeppelin/contracts@4.4.2/utils/Strings.sol\":1588:2029  function toHexString(uint256 value, uint256 length) internal pure returns (string memory) {... */\n    tag_199:\n        /* \"@openzeppelin/contracts@4.4.2/utils/Strings.sol\":1663:1676  string memory */\n      0x60\n        /* \"@openzeppelin/contracts@4.4.2/utils/Strings.sol\":1688:1707  bytes memory buffer */\n      0x00\n        /* \"@openzeppelin/contracts@4.4.2/utils/Strings.sol\":1733:1734  2 */\n      0x02\n        /* \"@openzeppelin/contracts@4.4.2/utils/Strings.sol\":1724:1730  length */\n      dup4\n        /* \"@openzeppelin/contracts@4.4.2/utils/Strings.sol\":1720:1721  2 */\n      0x02\n        /* \"@openzeppelin/contracts@4.4.2/utils/Strings.sol\":1720:1730  2 * length */\n      tag_213\n      swap2\n      swap1\n      tag_214\n      jump\t// in\n    tag_213:\n        /* \"@openzeppelin/contracts@4.4.2/utils/Strings.sol\":1720:1734  2 * length + 2 */\n      tag_215\n      swap2\n      swap1\n      tag_176\n      jump\t// in\n    tag_215:\n        /* \"@openzeppelin/contracts@4.4.2/utils/Strings.sol\":1710:1735  new bytes(2 * length + 2) */\n      0xffffffffffffffff\n      dup2\n      gt\n      iszero\n      tag_216\n      jumpi\n      mstore(0x00, 0x4e487b7100000000000000000000000000000000000000000000000000000000)\n      mstore(0x04, 0x41)\n      revert(0x00, 0x24)\n    tag_216:\n      mload(0x40)\n      swap1\n      dup1\n      dup3\n      mstore\n      dup1\n      0x1f\n      add\n      not(0x1f)\n      and\n      0x20\n      add\n      dup3\n      add\n      0x40\n      mstore\n      dup1\n      iszero\n      tag_217\n      jumpi\n      dup2\n      0x20\n      add\n      0x01\n      dup3\n      mul\n      dup1\n      calldatasize\n      dup4\n      calldatacopy\n      dup1\n      dup3\n      add\n      swap2\n      pop\n      pop\n      swap1\n      pop\n    tag_217:\n      pop\n        /* \"@openzeppelin/contracts@4.4.2/utils/Strings.sol\":1688:1735  bytes memory buffer = new bytes(2 * length + 2) */\n      swap1\n      pop\n        /* \"@openzeppelin/contracts@4.4.2/utils/Strings.sol\":1745:1760  buffer[0] = \"0\" */\n      0x3000000000000000000000000000000000000000000000000000000000000000\n        /* \"@openzeppelin/contracts@4.4.2/utils/Strings.sol\":1745:1751  buffer */\n      dup2\n        /* \"@openzeppelin/contracts@4.4.2/utils/Strings.sol\":1752:1753  0 */\n      0x00\n        /* \"@openzeppelin/contracts@4.4.2/utils/Strings.sol\":1745:1754  buffer[0] */\n      dup2\n      mload\n      dup2\n      lt\n      tag_218\n      jumpi\n      mstore(0x00, 0x4e487b7100000000000000000000000000000000000000000000000000000000)\n      mstore(0x04, 0x32)\n      revert(0x00, 0x24)\n    tag_218:\n      0x20\n      add\n      add\n        /* \"@openzeppelin/contracts@4.4.2/utils/Strings.sol\":1745:1760  buffer[0] = \"0\" */\n      swap1\n      not(0xffffffffffffffffffffffffffffffffffffffffffffffffffffffffffffff)\n      and\n      swap1\n      dup2\n      0x00\n      byte\n      swap1\n      mstore8\n      pop\n        /* \"@openzeppelin/contracts@4.4.2/utils/Strings.sol\":1770:1785  buffer[1] = \"x\" */\n      0x7800000000000000000000000000000000000000000000000000000000000000\n        /* \"@openzeppelin/contracts@4.4.2/utils/Strings.sol\":1770:1776  buffer */\n      dup2\n        /* \"@openzeppelin/contracts@4.4.2/utils/Strings.sol\":1777:1778  1 */\n      0x01\n        /* \"@openzeppelin/contracts@4.4.2/utils/Strings.sol\":1770:1779  buffer[1] */\n      dup2\n      mload\n      dup2\n      lt\n      tag_219\n      jumpi\n      mstore(0x00, 0x4e487b7100000000000000000000000000000000000000000000000000000000)\n      mstore(0x04, 0x32)\n      revert(0x00, 0x24)\n    tag_219:\n      0x20\n      add\n      add\n        /* \"@openzeppelin/contracts@4.4.2/utils/Strings.sol\":1770:1785  buffer[1] = \"x\" */\n      swap1\n      not(0xffffffffffffffffffffffffffffffffffffffffffffffffffffffffffffff)\n      and\n      swap1\n      dup2\n      0x00\n      byte\n      swap1\n      mstore8\n      pop\n        /* \"@openzeppelin/contracts@4.4.2/utils/Strings.sol\":1800:1809  uint256 i */\n      0x00\n        /* \"@openzeppelin/contracts@4.4.2/utils/Strings.sol\":1825:1826  1 */\n      0x01\n        /* \"@openzeppelin/contracts@4.4.2/utils/Strings.sol\":1816:1822  length */\n      dup5\n        /* \"@openzeppelin/contracts@4.4.2/utils/Strings.sol\":1812:1813  2 */\n      0x02\n        /* \"@openzeppelin/contracts@4.4.2/utils/Strings.sol\":1812:1822  2 * length */\n      tag_223\n      swap2\n      swap1\n      tag_214\n      jump\t// in\n    tag_223:\n        /* \"@openzeppelin/contracts@4.4.2/utils/Strings.sol\":1812:1826  2 * length + 1 */\n      tag_224\n      swap2\n      swap1\n      tag_176\n      jump\t// in\n    tag_224:\n        /* \"@openzeppelin/contracts@4.4.2/utils/Strings.sol\":1800:1826  uint256 i = 2 * length + 1 */\n      swap1\n      pop\n        /* \"@openzeppelin/contracts@4.4.2/utils/Strings.sol\":1795:1927  for (uint256 i = 2 * length + 1; i > 1; --i) {... */\n    tag_220:\n        /* \"@openzeppelin/contracts@4.4.2/utils/Strings.sol\":1832:1833  1 */\n      0x01\n        /* \"@openzeppelin/contracts@4.4.2/utils/Strings.sol\":1828:1829  i */\n      dup2\n        /* \"@openzeppelin/contracts@4.4.2/utils/Strings.sol\":1828:1833  i > 1 */\n      gt\n        /* \"@openzeppelin/contracts@4.4.2/utils/Strings.sol\":1795:1927  for (uint256 i = 2 * length + 1; i > 1; --i) {... */\n      iszero\n      tag_221\n      jumpi\n        /* \"@openzeppelin/contracts@4.4.2/utils/Strings.sol\":1866:1878  _HEX_SYMBOLS */\n      0x3031323334353637383961626364656600000000000000000000000000000000\n        /* \"@openzeppelin/contracts@4.4.2/utils/Strings.sol\":1887:1890  0xf */\n      0x0f\n        /* \"@openzeppelin/contracts@4.4.2/utils/Strings.sol\":1879:1884  value */\n      dup7\n        /* \"@openzeppelin/contracts@4.4.2/utils/Strings.sol\":1879:1890  value & 0xf */\n      and\n        /* \"@openzeppelin/contracts@4.4.2/utils/Strings.sol\":1866:1891  _HEX_SYMBOLS[value & 0xf] */\n      0x10\n      dup2\n      lt\n      tag_225\n      jumpi\n      mstore(0x00, 0x4e487b7100000000000000000000000000000000000000000000000000000000)\n      mstore(0x04, 0x32)\n      revert(0x00, 0x24)\n    tag_225:\n      byte\n      0xf8\n      shl\n        /* \"@openzeppelin/contracts@4.4.2/utils/Strings.sol\":1854:1860  buffer */\n      dup3\n        /* \"@openzeppelin/contracts@4.4.2/utils/Strings.sol\":1861:1862  i */\n      dup3\n        /* \"@openzeppelin/contracts@4.4.2/utils/Strings.sol\":1854:1863  buffer[i] */\n      dup2\n      mload\n      dup2\n      lt\n      tag_226\n      jumpi\n      mstore(0x00, 0x4e487b7100000000000000000000000000000000000000000000000000000000)\n      mstore(0x04, 0x32)\n      revert(0x00, 0x24)\n    tag_226:\n      0x20\n      add\n      add\n        /* \"@openzeppelin/contracts@4.4.2/utils/Strings.sol\":1854:1891  buffer[i] = _HEX_SYMBOLS[value & 0xf] */\n      swap1\n      not(0xffffffffffffffffffffffffffffffffffffffffffffffffffffffffffffff)\n      and\n      swap1\n      dup2\n      0x00\n      byte\n      swap1\n      mstore8\n      pop\n        /* \"@openzeppelin/contracts@4.4.2/utils/Strings.sol\":1915:1916  4 */\n      0x04\n        /* \"@openzeppelin/contracts@4.4.2/utils/Strings.sol\":1905:1916  value >>= 4 */\n      dup6\n      swap1\n      shr\n      swap5\n      pop\n        /* \"@openzeppelin/contracts@4.4.2/utils/Strings.sol\":1835:1838  --i */\n      dup1\n      tag_227\n      swap1\n      tag_228\n      jump\t// in\n    tag_227:\n      swap1\n      pop\n        /* \"@openzeppelin/contracts@4.4.2/utils/Strings.sol\":1795:1927  for (uint256 i = 2 * length + 1; i > 1; --i) {... */\n      jump(tag_220)\n    tag_221:\n      pop\n        /* \"@openzeppelin/contracts@4.4.2/utils/Strings.sol\":1953:1954  0 */\n      0x00\n        /* \"@openzeppelin/contracts@4.4.2/utils/Strings.sol\":1944:1949  value */\n      dup5\n        /* \"@openzeppelin/contracts@4.4.2/utils/Strings.sol\":1944:1954  value == 0 */\n      eq\n        /* \"@openzeppelin/contracts@4.4.2/utils/Strings.sol\":1936:1991  require(value == 0, \"Strings: hex length insufficient\") */\n      tag_229\n      jumpi\n      mload(0x40)\n      0x08c379a000000000000000000000000000000000000000000000000000000000\n      dup2\n      mstore\n      0x04\n      add\n      tag_230\n      swap1\n      tag_231\n      jump\t// in\n    tag_230:\n      mload(0x40)\n      dup1\n      swap2\n      sub\n      swap1\n      revert\n    tag_229:\n        /* \"@openzeppelin/contracts@4.4.2/utils/Strings.sol\":2015:2021  buffer */\n      dup1\n        /* \"@openzeppelin/contracts@4.4.2/utils/Strings.sol\":2001:2022  return string(buffer) */\n      swap2\n      pop\n      pop\n        /* \"@openzeppelin/contracts@4.4.2/utils/Strings.sol\":1588:2029  function toHexString(uint256 value, uint256 length) internal pure returns (string memory) {... */\n      swap3\n      swap2\n      pop\n      pop\n      jump\t// out\n        /* \"#utility.yul\":7:146   */\n    tag_233:\n      0x00\n        /* \"#utility.yul\":91:97   */\n      dup2\n        /* \"#utility.yul\":78:98   */\n      calldataload\n        /* \"#utility.yul\":69:98   */\n      swap1\n      pop\n        /* \"#utility.yul\":107:140   */\n      tag_235\n        /* \"#utility.yul\":134:139   */\n      dup2\n        /* \"#utility.yul\":107:140   */\n      tag_236\n      jump\t// in\n    tag_235:\n        /* \"#utility.yul\":59:146   */\n      swap3\n      swap2\n      pop\n      pop\n      jump\t// out\n        /* \"#utility.yul\":152:289   */\n    tag_237:\n      0x00\n        /* \"#utility.yul\":237:243   */\n      dup2\n        /* \"#utility.yul\":231:244   */\n      mload\n        /* \"#utility.yul\":222:244   */\n      swap1\n      pop\n        /* \"#utility.yul\":253:283   */\n      tag_239\n        /* \"#utility.yul\":277:282   */\n      dup2\n        /* \"#utility.yul\":253:283   */\n      tag_240\n      jump\t// in\n    tag_239:\n        /* \"#utility.yul\":212:289   */\n      swap3\n      swap2\n      pop\n      pop\n      jump\t// out\n        /* \"#utility.yul\":295:434   */\n    tag_241:\n      0x00\n        /* \"#utility.yul\":379:385   */\n      dup2\n        /* \"#utility.yul\":366:386   */\n      calldataload\n        /* \"#utility.yul\":357:386   */\n      swap1\n      pop\n        /* \"#utility.yul\":395:428   */\n      tag_243\n        /* \"#utility.yul\":422:427   */\n      dup2\n        /* \"#utility.yul\":395:428   */\n      tag_244\n      jump\t// in\n    tag_243:\n        /* \"#utility.yul\":347:434   */\n      swap3\n      swap2\n      pop\n      pop\n      jump\t// out\n        /* \"#utility.yul\":440:577   */\n    tag_245:\n      0x00\n        /* \"#utility.yul\":523:529   */\n      dup2\n        /* \"#utility.yul\":510:530   */\n      calldataload\n        /* \"#utility.yul\":501:530   */\n      swap1\n      pop\n        /* \"#utility.yul\":539:571   */\n      tag_247\n        /* \"#utility.yul\":565:570   */\n      dup2\n        /* \"#utility.yul\":539:571   */\n      tag_248\n      jump\t// in\n    tag_247:\n        /* \"#utility.yul\":491:577   */\n      swap3\n      swap2\n      pop\n      pop\n      jump\t// out\n        /* \"#utility.yul\":583:722   */\n    tag_249:\n      0x00\n        /* \"#utility.yul\":667:673   */\n      dup2\n        /* \"#utility.yul\":654:674   */\n      calldataload\n        /* \"#utility.yul\":645:674   */\n      swap1\n      pop\n        /* \"#utility.yul\":683:716   */\n      tag_251\n        /* \"#utility.yul\":710:715   */\n      dup2\n        /* \"#utility.yul\":683:716   */\n      tag_252\n      jump\t// in\n    tag_251:\n        /* \"#utility.yul\":635:722   */\n      swap3\n      swap2\n      pop\n      pop\n      jump\t// out\n        /* \"#utility.yul\":728:990   */\n    tag_73:\n      0x00\n        /* \"#utility.yul\":836:838   */\n      0x20\n        /* \"#utility.yul\":824:833   */\n      dup3\n        /* \"#utility.yul\":815:822   */\n      dup5\n        /* \"#utility.yul\":811:834   */\n      sub\n        /* \"#utility.yul\":807:839   */\n      slt\n        /* \"#utility.yul\":804:806   */\n      iszero\n      tag_254\n      jumpi\n        /* \"#utility.yul\":852:853   */\n      0x00\n        /* \"#utility.yul\":849:850   */\n      dup1\n        /* \"#utility.yul\":842:854   */\n      revert\n        /* \"#utility.yul\":804:806   */\n    tag_254:\n        /* \"#utility.yul\":895:896   */\n      0x00\n        /* \"#utility.yul\":920:973   */\n      tag_255\n        /* \"#utility.yul\":965:972   */\n      dup5\n        /* \"#utility.yul\":956:962   */\n      dup3\n        /* \"#utility.yul\":945:954   */\n      dup6\n        /* \"#utility.yul\":941:963   */\n      add\n        /* \"#utility.yul\":920:973   */\n      tag_233\n      jump\t// in\n    tag_255:\n        /* \"#utility.yul\":910:973   */\n      swap2\n      pop\n        /* \"#utility.yul\":866:983   */\n      pop\n        /* \"#utility.yul\":794:990   */\n      swap3\n      swap2\n      pop\n      pop\n      jump\t// out\n        /* \"#utility.yul\":996:1548   */\n    tag_59:\n      0x00\n      dup1\n      0x00\n        /* \"#utility.yul\":1138:1140   */\n      0x60\n        /* \"#utility.yul\":1126:1135   */\n      dup5\n        /* \"#utility.yul\":1117:1124   */\n      dup7\n        /* \"#utility.yul\":1113:1136   */\n      sub\n        /* \"#utility.yul\":1109:1141   */\n      slt\n        /* \"#utility.yul\":1106:1108   */\n      iszero\n      tag_257\n      jumpi\n        /* \"#utility.yul\":1154:1155   */\n      0x00\n        /* \"#utility.yul\":1151:1152   */\n      dup1\n        /* \"#utility.yul\":1144:1156   */\n      revert\n        /* \"#utility.yul\":1106:1108   */\n    tag_257:\n        /* \"#utility.yul\":1197:1198   */\n      0x00\n        /* \"#utility.yul\":1222:1275   */\n      tag_258\n        /* \"#utility.yul\":1267:1274   */\n      dup7\n        /* \"#utility.yul\":1258:1264   */\n      dup3\n        /* \"#utility.yul\":1247:1256   */\n      dup8\n        /* \"#utility.yul\":1243:1265   */\n      add\n        /* \"#utility.yul\":1222:1275   */\n      tag_233\n      jump\t// in\n    tag_258:\n        /* \"#utility.yul\":1212:1275   */\n      swap4\n      pop\n        /* \"#utility.yul\":1168:1285   */\n      pop\n        /* \"#utility.yul\":1324:1326   */\n      0x20\n        /* \"#utility.yul\":1350:1403   */\n      tag_259\n        /* \"#utility.yul\":1395:1402   */\n      dup7\n        /* \"#utility.yul\":1386:1392   */\n      dup3\n        /* \"#utility.yul\":1375:1384   */\n      dup8\n        /* \"#utility.yul\":1371:1393   */\n      add\n        /* \"#utility.yul\":1350:1403   */\n      tag_233\n      jump\t// in\n    tag_259:\n        /* \"#utility.yul\":1340:1403   */\n      swap3\n      pop\n        /* \"#utility.yul\":1295:1413   */\n      pop\n        /* \"#utility.yul\":1452:1454   */\n      0x40\n        /* \"#utility.yul\":1478:1531   */\n      tag_260\n        /* \"#utility.yul\":1523:1530   */\n      dup7\n        /* \"#utility.yul\":1514:1520   */\n      dup3\n        /* \"#utility.yul\":1503:1512   */\n      dup8\n        /* \"#utility.yul\":1499:1521   */\n      add\n        /* \"#utility.yul\":1478:1531   */\n      tag_249\n      jump\t// in\n    tag_260:\n        /* \"#utility.yul\":1468:1531   */\n      swap2\n      pop\n        /* \"#utility.yul\":1423:1541   */\n      pop\n        /* \"#utility.yul\":1096:1548   */\n      swap3\n      pop\n      swap3\n      pop\n      swap3\n      jump\t// out\n        /* \"#utility.yul\":1554:1961   */\n    tag_64:\n      0x00\n      dup1\n        /* \"#utility.yul\":1679:1681   */\n      0x40\n        /* \"#utility.yul\":1667:1676   */\n      dup4\n        /* \"#utility.yul\":1658:1665   */\n      dup6\n        /* \"#utility.yul\":1654:1677   */\n      sub\n        /* \"#utility.yul\":1650:1682   */\n      slt\n        /* \"#utility.yul\":1647:1649   */\n      iszero\n      tag_262\n      jumpi\n        /* \"#utility.yul\":1695:1696   */\n      0x00\n        /* \"#utility.yul\":1692:1693   */\n      dup1\n        /* \"#utility.yul\":1685:1697   */\n      revert\n        /* \"#utility.yul\":1647:1649   */\n    tag_262:\n        /* \"#utility.yul\":1738:1739   */\n      0x00\n        /* \"#utility.yul\":1763:1816   */\n      tag_263\n        /* \"#utility.yul\":1808:1815   */\n      dup6\n        /* \"#utility.yul\":1799:1805   */\n      dup3\n        /* \"#utility.yul\":1788:1797   */\n      dup7\n        /* \"#utility.yul\":1784:1806   */\n      add\n        /* \"#utility.yul\":1763:1816   */\n      tag_233\n      jump\t// in\n    tag_263:\n        /* \"#utility.yul\":1753:1816   */\n      swap3\n      pop\n        /* \"#utility.yul\":1709:1826   */\n      pop\n        /* \"#utility.yul\":1865:1867   */\n      0x20\n        /* \"#utility.yul\":1891:1944   */\n      tag_264\n        /* \"#utility.yul\":1936:1943   */\n      dup6\n        /* \"#utility.yul\":1927:1933   */\n      dup3\n        /* \"#utility.yul\":1916:1925   */\n      dup7\n        /* \"#utility.yul\":1912:1934   */\n      add\n        /* \"#utility.yul\":1891:1944   */\n      tag_249\n      jump\t// in\n    tag_264:\n        /* \"#utility.yul\":1881:1944   */\n      swap2\n      pop\n        /* \"#utility.yul\":1836:1954   */\n      pop\n        /* \"#utility.yul\":1637:1961   */\n      swap3\n      pop\n      swap3\n      swap1\n      pop\n      jump\t// out\n        /* \"#utility.yul\":1967:2245   */\n    tag_144:\n      0x00\n        /* \"#utility.yul\":2083:2085   */\n      0x20\n        /* \"#utility.yul\":2071:2080   */\n      dup3\n        /* \"#utility.yul\":2062:2069   */\n      dup5\n        /* \"#utility.yul\":2058:2081   */\n      sub\n        /* \"#utility.yul\":2054:2086   */\n      slt\n        /* \"#utility.yul\":2051:2053   */\n      iszero\n      tag_266\n      jumpi\n        /* \"#utility.yul\":2099:2100   */\n      0x00\n        /* \"#utility.yul\":2096:2097   */\n      dup1\n        /* \"#utility.yul\":2089:2101   */\n      revert\n        /* \"#utility.yul\":2051:2053   */\n    tag_266:\n        /* \"#utility.yul\":2142:2143   */\n      0x00\n        /* \"#utility.yul\":2167:2228   */\n      tag_267\n        /* \"#utility.yul\":2220:2227   */\n      dup5\n        /* \"#utility.yul\":2211:2217   */\n      dup3\n        /* \"#utility.yul\":2200:2209   */\n      dup6\n        /* \"#utility.yul\":2196:2218   */\n      add\n        /* \"#utility.yul\":2167:2228   */\n      tag_237\n      jump\t// in\n    tag_267:\n        /* \"#utility.yul\":2157:2228   */\n      swap2\n      pop\n        /* \"#utility.yul\":2113:2238   */\n      pop\n        /* \"#utility.yul\":2041:2245   */\n      swap3\n      swap2\n      pop\n      pop\n      jump\t// out\n        /* \"#utility.yul\":2251:2513   */\n    tag_44:\n      0x00\n        /* \"#utility.yul\":2359:2361   */\n      0x20\n        /* \"#utility.yul\":2347:2356   */\n      dup3\n        /* \"#utility.yul\":2338:2345   */\n      dup5\n        /* \"#utility.yul\":2334:2357   */\n      sub\n        /* \"#utility.yul\":2330:2362   */\n      slt\n        /* \"#utility.yul\":2327:2329   */\n      iszero\n      tag_269\n      jumpi\n        /* \"#utility.yul\":2375:2376   */\n      0x00\n        /* \"#utility.yul\":2372:2373   */\n      dup1\n        /* \"#utility.yul\":2365:2377   */\n      revert\n        /* \"#utility.yul\":2327:2329   */\n    tag_269:\n        /* \"#utility.yul\":2418:2419   */\n      0x00\n        /* \"#utility.yul\":2443:2496   */\n      tag_270\n        /* \"#utility.yul\":2488:2495   */\n      dup5\n        /* \"#utility.yul\":2479:2485   */\n      dup3\n        /* \"#utility.yul\":2468:2477   */\n      dup6\n        /* \"#utility.yul\":2464:2486   */\n      add\n        /* \"#utility.yul\":2443:2496   */\n      tag_241\n      jump\t// in\n    tag_270:\n        /* \"#utility.yul\":2433:2496   */\n      swap2\n      pop\n        /* \"#utility.yul\":2389:2506   */\n      pop\n        /* \"#utility.yul\":2317:2513   */\n      swap3\n      swap2\n      pop\n      pop\n      jump\t// out\n        /* \"#utility.yul\":2519:2926   */\n    tag_50:\n      0x00\n      dup1\n        /* \"#utility.yul\":2644:2646   */\n      0x40\n        /* \"#utility.yul\":2632:2641   */\n      dup4\n        /* \"#utility.yul\":2623:2630   */\n      dup6\n        /* \"#utility.yul\":2619:2642   */\n      sub\n        /* \"#utility.yul\":2615:2647   */\n      slt\n        /* \"#utility.yul\":2612:2614   */\n      iszero\n      tag_272\n      jumpi\n        /* \"#utility.yul\":2660:2661   */\n      0x00\n        /* \"#utility.yul\":2657:2658   */\n      dup1\n        /* \"#utility.yul\":2650:2662   */\n      revert\n        /* \"#utility.yul\":2612:2614   */\n    tag_272:\n        /* \"#utility.yul\":2703:2704   */\n      0x00\n        /* \"#utility.yul\":2728:2781   */\n      tag_273\n        /* \"#utility.yul\":2773:2780   */\n      dup6\n        /* \"#utility.yul\":2764:2770   */\n      dup3\n        /* \"#utility.yul\":2753:2762   */\n      dup7\n        /* \"#utility.yul\":2749:2771   */\n      add\n        /* \"#utility.yul\":2728:2781   */\n      tag_241\n      jump\t// in\n    tag_273:\n        /* \"#utility.yul\":2718:2781   */\n      swap3\n      pop\n        /* \"#utility.yul\":2674:2791   */\n      pop\n        /* \"#utility.yul\":2830:2832   */\n      0x20\n        /* \"#utility.yul\":2856:2909   */\n      tag_274\n        /* \"#utility.yul\":2901:2908   */\n      dup6\n        /* \"#utility.yul\":2892:2898   */\n      dup3\n        /* \"#utility.yul\":2881:2890   */\n      dup7\n        /* \"#utility.yul\":2877:2899   */\n      add\n        /* \"#utility.yul\":2856:2909   */\n      tag_233\n      jump\t// in\n    tag_274:\n        /* \"#utility.yul\":2846:2909   */\n      swap2\n      pop\n        /* \"#utility.yul\":2801:2919   */\n      pop\n        /* \"#utility.yul\":2602:2926   */\n      swap3\n      pop\n      swap3\n      swap1\n      pop\n      jump\t// out\n        /* \"#utility.yul\":2932:3192   */\n    tag_32:\n      0x00\n        /* \"#utility.yul\":3039:3041   */\n      0x20\n        /* \"#utility.yul\":3027:3036   */\n      dup3\n        /* \"#utility.yul\":3018:3025   */\n      dup5\n        /* \"#utility.yul\":3014:3037   */\n      sub\n        /* \"#utility.yul\":3010:3042   */\n      slt\n        /* \"#utility.yul\":3007:3009   */\n      iszero\n      tag_276\n      jumpi\n        /* \"#utility.yul\":3055:3056   */\n      0x00\n        /* \"#utility.yul\":3052:3053   */\n      dup1\n        /* \"#utility.yul\":3045:3057   */\n      revert\n        /* \"#utility.yul\":3007:3009   */\n    tag_276:\n        /* \"#utility.yul\":3098:3099   */\n      0x00\n        /* \"#utility.yul\":3123:3175   */\n      tag_277\n        /* \"#utility.yul\":3167:3174   */\n      dup5\n        /* \"#utility.yul\":3158:3164   */\n      dup3\n        /* \"#utility.yul\":3147:3156   */\n      dup6\n        /* \"#utility.yul\":3143:3165   */\n      add\n        /* \"#utility.yul\":3123:3175   */\n      tag_245\n      jump\t// in\n    tag_277:\n        /* \"#utility.yul\":3113:3175   */\n      swap2\n      pop\n        /* \"#utility.yul\":3069:3185   */\n      pop\n        /* \"#utility.yul\":2997:3192   */\n      swap3\n      swap2\n      pop\n      pop\n      jump\t// out\n        /* \"#utility.yul\":3198:3460   */\n    tag_102:\n      0x00\n        /* \"#utility.yul\":3306:3308   */\n      0x20\n        /* \"#utility.yul\":3294:3303   */\n      dup3\n        /* \"#utility.yul\":3285:3292   */\n      dup5\n        /* \"#utility.yul\":3281:3304   */\n      sub\n        /* \"#utility.yul\":3277:3309   */\n      slt\n        /* \"#utility.yul\":3274:3276   */\n      iszero\n      tag_279\n      jumpi\n        /* \"#utility.yul\":3322:3323   */\n      0x00\n        /* \"#utility.yul\":3319:3320   */\n      dup1\n        /* \"#utility.yul\":3312:3324   */\n      revert\n        /* \"#utility.yul\":3274:3276   */\n    tag_279:\n        /* \"#utility.yul\":3365:3366   */\n      0x00\n        /* \"#utility.yul\":3390:3443   */\n      tag_280\n        /* \"#utility.yul\":3435:3442   */\n      dup5\n        /* \"#utility.yul\":3426:3432   */\n      dup3\n        /* \"#utility.yul\":3415:3424   */\n      dup6\n        /* \"#utility.yul\":3411:3433   */\n      add\n        /* \"#utility.yul\":3390:3443   */\n      tag_249\n      jump\t// in\n    tag_280:\n        /* \"#utility.yul\":3380:3443   */\n      swap2\n      pop\n        /* \"#utility.yul\":3336:3453   */\n      pop\n        /* \"#utility.yul\":3264:3460   */\n      swap3\n      swap2\n      pop\n      pop\n      jump\t// out\n        /* \"#utility.yul\":3466:3584   */\n    tag_281:\n        /* \"#utility.yul\":3553:3577   */\n      tag_283\n        /* \"#utility.yul\":3571:3576   */\n      dup2\n        /* \"#utility.yul\":3553:3577   */\n      tag_284\n      jump\t// in\n    tag_283:\n        /* \"#utility.yul\":3548:3551   */\n      dup3\n        /* \"#utility.yul\":3541:3578   */\n      mstore\n        /* \"#utility.yul\":3531:3584   */\n      pop\n      pop\n      jump\t// out\n        /* \"#utility.yul\":3590:3747   */\n    tag_285:\n        /* \"#utility.yul\":3695:3740   */\n      tag_287\n        /* \"#utility.yul\":3715:3739   */\n      tag_288\n        /* \"#utility.yul\":3733:3738   */\n      dup3\n        /* \"#utility.yul\":3715:3739   */\n      tag_284\n      jump\t// in\n    tag_288:\n        /* \"#utility.yul\":3695:3740   */\n      tag_289\n      jump\t// in\n    tag_287:\n        /* \"#utility.yul\":3690:3693   */\n      dup3\n        /* \"#utility.yul\":3683:3741   */\n      mstore\n        /* \"#utility.yul\":3673:3747   */\n      pop\n      pop\n      jump\t// out\n        /* \"#utility.yul\":3753:3862   */\n    tag_290:\n        /* \"#utility.yul\":3834:3855   */\n      tag_292\n        /* \"#utility.yul\":3849:3854   */\n      dup2\n        /* \"#utility.yul\":3834:3855   */\n      tag_293\n      jump\t// in\n    tag_292:\n        /* \"#utility.yul\":3829:3832   */\n      dup3\n        /* \"#utility.yul\":3822:3856   */\n      mstore\n        /* \"#utility.yul\":3812:3862   */\n      pop\n      pop\n      jump\t// out\n        /* \"#utility.yul\":3868:3986   */\n    tag_294:\n        /* \"#utility.yul\":3955:3979   */\n      tag_296\n        /* \"#utility.yul\":3973:3978   */\n      dup2\n        /* \"#utility.yul\":3955:3979   */\n      tag_297\n      jump\t// in\n    tag_296:\n        /* \"#utility.yul\":3950:3953   */\n      dup3\n        /* \"#utility.yul\":3943:3980   */\n      mstore\n        /* \"#utility.yul\":3933:3986   */\n      pop\n      pop\n      jump\t// out\n        /* \"#utility.yul\":3992:4356   */\n    tag_298:\n      0x00\n        /* \"#utility.yul\":4108:4147   */\n      tag_300\n        /* \"#utility.yul\":4141:4146   */\n      dup3\n        /* \"#utility.yul\":4108:4147   */\n      tag_301\n      jump\t// in\n    tag_300:\n        /* \"#utility.yul\":4163:4234   */\n      tag_302\n        /* \"#utility.yul\":4227:4233   */\n      dup2\n        /* \"#utility.yul\":4222:4225   */\n      dup6\n        /* \"#utility.yul\":4163:4234   */\n      tag_303\n      jump\t// in\n    tag_302:\n        /* \"#utility.yul\":4156:4234   */\n      swap4\n      pop\n        /* \"#utility.yul\":4243:4295   */\n      tag_304\n        /* \"#utility.yul\":4288:4294   */\n      dup2\n        /* \"#utility.yul\":4283:4286   */\n      dup6\n        /* \"#utility.yul\":4276:4280   */\n      0x20\n        /* \"#utility.yul\":4269:4274   */\n      dup7\n        /* \"#utility.yul\":4265:4281   */\n      add\n        /* \"#utility.yul\":4243:4295   */\n      tag_305\n      jump\t// in\n    tag_304:\n        /* \"#utility.yul\":4320:4349   */\n      tag_306\n        /* \"#utility.yul\":4342:4348   */\n      dup2\n        /* \"#utility.yul\":4320:4349   */\n      tag_307\n      jump\t// in\n    tag_306:\n        /* \"#utility.yul\":4315:4318   */\n      dup5\n        /* \"#utility.yul\":4311:4350   */\n      add\n        /* \"#utility.yul\":4304:4350   */\n      swap2\n      pop\n        /* \"#utility.yul\":4084:4356   */\n      pop\n      swap3\n      swap2\n      pop\n      pop\n      jump\t// out\n        /* \"#utility.yul\":4362:4739   */\n    tag_308:\n      0x00\n        /* \"#utility.yul\":4496:4535   */\n      tag_310\n        /* \"#utility.yul\":4529:4534   */\n      dup3\n        /* \"#utility.yul\":4496:4535   */\n      tag_301\n      jump\t// in\n    tag_310:\n        /* \"#utility.yul\":4551:4640   */\n      tag_311\n        /* \"#utility.yul\":4633:4639   */\n      dup2\n        /* \"#utility.yul\":4628:4631   */\n      dup6\n        /* \"#utility.yul\":4551:4640   */\n      tag_312\n      jump\t// in\n    tag_311:\n        /* \"#utility.yul\":4544:4640   */\n      swap4\n      pop\n        /* \"#utility.yul\":4649:4701   */\n      tag_313\n        /* \"#utility.yul\":4694:4700   */\n      dup2\n        /* \"#utility.yul\":4689:4692   */\n      dup6\n        /* \"#utility.yul\":4682:4686   */\n      0x20\n        /* \"#utility.yul\":4675:4680   */\n      dup7\n        /* \"#utility.yul\":4671:4687   */\n      add\n        /* \"#utility.yul\":4649:4701   */\n      tag_305\n      jump\t// in\n    tag_313:\n        /* \"#utility.yul\":4726:4732   */\n      dup1\n        /* \"#utility.yul\":4721:4724   */\n      dup5\n        /* \"#utility.yul\":4717:4733   */\n      add\n        /* \"#utility.yul\":4710:4733   */\n      swap2\n      pop\n        /* \"#utility.yul\":4472:4739   */\n      pop\n      swap3\n      swap2\n      pop\n      pop\n      jump\t// out\n        /* \"#utility.yul\":4745:5111   */\n    tag_314:\n      0x00\n        /* \"#utility.yul\":4908:4975   */\n      tag_316\n        /* \"#utility.yul\":4972:4974   */\n      0x23\n        /* \"#utility.yul\":4967:4970   */\n      dup4\n        /* \"#utility.yul\":4908:4975   */\n      tag_303\n      jump\t// in\n    tag_316:\n        /* \"#utility.yul\":4901:4975   */\n      swap2\n      pop\n        /* \"#utility.yul\":4984:5077   */\n      tag_317\n        /* \"#utility.yul\":5073:5076   */\n      dup3\n        /* \"#utility.yul\":4984:5077   */\n      tag_318\n      jump\t// in\n    tag_317:\n        /* \"#utility.yul\":5102:5104   */\n      0x40\n        /* \"#utility.yul\":5097:5100   */\n      dup3\n        /* \"#utility.yul\":5093:5105   */\n      add\n        /* \"#utility.yul\":5086:5105   */\n      swap1\n      pop\n        /* \"#utility.yul\":4891:5111   */\n      swap2\n      swap1\n      pop\n      jump\t// out\n        /* \"#utility.yul\":5117:5483   */\n    tag_319:\n      0x00\n        /* \"#utility.yul\":5280:5347   */\n      tag_321\n        /* \"#utility.yul\":5344:5346   */\n      0x20\n        /* \"#utility.yul\":5339:5342   */\n      dup4\n        /* \"#utility.yul\":5280:5347   */\n      tag_303\n      jump\t// in\n    tag_321:\n        /* \"#utility.yul\":5273:5347   */\n      swap2\n      pop\n        /* \"#utility.yul\":5356:5449   */\n      tag_322\n        /* \"#utility.yul\":5445:5448   */\n      dup3\n        /* \"#utility.yul\":5356:5449   */\n      tag_323\n      jump\t// in\n    tag_322:\n        /* \"#utility.yul\":5474:5476   */\n      0x20\n        /* \"#utility.yul\":5469:5472   */\n      dup3\n        /* \"#utility.yul\":5465:5477   */\n      add\n        /* \"#utility.yul\":5458:5477   */\n      swap1\n      pop\n        /* \"#utility.yul\":5263:5483   */\n      swap2\n      swap1\n      pop\n      jump\t// out\n        /* \"#utility.yul\":5489:5855   */\n    tag_324:\n      0x00\n        /* \"#utility.yul\":5652:5719   */\n      tag_326\n        /* \"#utility.yul\":5716:5718   */\n      0x4a\n        /* \"#utility.yul\":5711:5714   */\n      dup4\n        /* \"#utility.yul\":5652:5719   */\n      tag_303\n      jump\t// in\n    tag_326:\n        /* \"#utility.yul\":5645:5719   */\n      swap2\n      pop\n        /* \"#utility.yul\":5728:5821   */\n      tag_327\n        /* \"#utility.yul\":5817:5820   */\n      dup3\n        /* \"#utility.yul\":5728:5821   */\n      tag_328\n      jump\t// in\n    tag_327:\n        /* \"#utility.yul\":5846:5848   */\n      0x60\n        /* \"#utility.yul\":5841:5844   */\n      dup3\n        /* \"#utility.yul\":5837:5849   */\n      add\n        /* \"#utility.yul\":5830:5849   */\n      swap1\n      pop\n        /* \"#utility.yul\":5635:5855   */\n      swap2\n      swap1\n      pop\n      jump\t// out\n        /* \"#utility.yul\":5861:6227   */\n    tag_329:\n      0x00\n        /* \"#utility.yul\":6024:6091   */\n      tag_331\n        /* \"#utility.yul\":6088:6090   */\n      0x1f\n        /* \"#utility.yul\":6083:6086   */\n      dup4\n        /* \"#utility.yul\":6024:6091   */\n      tag_303\n      jump\t// in\n    tag_331:\n        /* \"#utility.yul\":6017:6091   */\n      swap2\n      pop\n        /* \"#utility.yul\":6100:6193   */\n      tag_332\n        /* \"#utility.yul\":6189:6192   */\n      dup3\n        /* \"#utility.yul\":6100:6193   */\n      tag_333\n      jump\t// in\n    tag_332:\n        /* \"#utility.yul\":6218:6220   */\n      0x20\n        /* \"#utility.yul\":6213:6216   */\n      dup3\n        /* \"#utility.yul\":6209:6221   */\n      add\n        /* \"#utility.yul\":6202:6221   */\n      swap1\n      pop\n        /* \"#utility.yul\":6007:6227   */\n      swap2\n      swap1\n      pop\n      jump\t// out\n        /* \"#utility.yul\":6233:6635   */\n    tag_334:\n      0x00\n        /* \"#utility.yul\":6414:6499   */\n      tag_336\n        /* \"#utility.yul\":6496:6498   */\n      0x20\n        /* \"#utility.yul\":6491:6494   */\n      dup4\n        /* \"#utility.yul\":6414:6499   */\n      tag_312\n      jump\t// in\n    tag_336:\n        /* \"#utility.yul\":6407:6499   */\n      swap2\n      pop\n        /* \"#utility.yul\":6508:6601   */\n      tag_337\n        /* \"#utility.yul\":6597:6600   */\n      dup3\n        /* \"#utility.yul\":6508:6601   */\n      tag_338\n      jump\t// in\n    tag_337:\n        /* \"#utility.yul\":6626:6628   */\n      0x20\n        /* \"#utility.yul\":6621:6624   */\n      dup3\n        /* \"#utility.yul\":6617:6629   */\n      add\n        /* \"#utility.yul\":6610:6629   */\n      swap1\n      pop\n        /* \"#utility.yul\":6397:6635   */\n      swap2\n      swap1\n      pop\n      jump\t// out\n        /* \"#utility.yul\":6641:7007   */\n    tag_339:\n      0x00\n        /* \"#utility.yul\":6804:6871   */\n      tag_341\n        /* \"#utility.yul\":6868:6870   */\n      0x54\n        /* \"#utility.yul\":6863:6866   */\n      dup4\n        /* \"#utility.yul\":6804:6871   */\n      tag_303\n      jump\t// in\n    tag_341:\n        /* \"#utility.yul\":6797:6871   */\n      swap2\n      pop\n        /* \"#utility.yul\":6880:6973   */\n      tag_342\n        /* \"#utility.yul\":6969:6972   */\n      dup3\n        /* \"#utility.yul\":6880:6973   */\n      tag_343\n      jump\t// in\n    tag_342:\n        /* \"#utility.yul\":6998:7000   */\n      0x60\n        /* \"#utility.yul\":6993:6996   */\n      dup3\n        /* \"#utility.yul\":6989:7001   */\n      add\n        /* \"#utility.yul\":6982:7001   */\n      swap1\n      pop\n        /* \"#utility.yul\":6787:7007   */\n      swap2\n      swap1\n      pop\n      jump\t// out\n        /* \"#utility.yul\":7013:7415   */\n    tag_344:\n      0x00\n        /* \"#utility.yul\":7194:7279   */\n      tag_346\n        /* \"#utility.yul\":7276:7278   */\n      0x17\n        /* \"#utility.yul\":7271:7274   */\n      dup4\n        /* \"#utility.yul\":7194:7279   */\n      tag_312\n      jump\t// in\n    tag_346:\n        /* \"#utility.yul\":7187:7279   */\n      swap2\n      pop\n        /* \"#utility.yul\":7288:7381   */\n      tag_347\n        /* \"#utility.yul\":7377:7380   */\n      dup3\n        /* \"#utility.yul\":7288:7381   */\n      tag_348\n      jump\t// in\n    tag_347:\n        /* \"#utility.yul\":7406:7408   */\n      0x17\n        /* \"#utility.yul\":7401:7404   */\n      dup3\n        /* \"#utility.yul\":7397:7409   */\n      add\n        /* \"#utility.yul\":7390:7409   */\n      swap1\n      pop\n        /* \"#utility.yul\":7177:7415   */\n      swap2\n      swap1\n      pop\n      jump\t// out\n        /* \"#utility.yul\":7421:7787   */\n    tag_349:\n      0x00\n        /* \"#utility.yul\":7584:7651   */\n      tag_351\n        /* \"#utility.yul\":7648:7650   */\n      0x2b\n        /* \"#utility.yul\":7643:7646   */\n      dup4\n        /* \"#utility.yul\":7584:7651   */\n      tag_303\n      jump\t// in\n    tag_351:\n        /* \"#utility.yul\":7577:7651   */\n      swap2\n      pop\n        /* \"#utility.yul\":7660:7753   */\n      tag_352\n        /* \"#utility.yul\":7749:7752   */\n      dup3\n        /* \"#utility.yul\":7660:7753   */\n      tag_353\n      jump\t// in\n    tag_352:\n        /* \"#utility.yul\":7778:7780   */\n      0x40\n        /* \"#utility.yul\":7773:7776   */\n      dup3\n        /* \"#utility.yul\":7769:7781   */\n      add\n        /* \"#utility.yul\":7762:7781   */\n      swap1\n      pop\n        /* \"#utility.yul\":7567:7787   */\n      swap2\n      swap1\n      pop\n      jump\t// out\n        /* \"#utility.yul\":7793:8195   */\n    tag_354:\n      0x00\n        /* \"#utility.yul\":7974:8059   */\n      tag_356\n        /* \"#utility.yul\":8056:8058   */\n      0x23\n        /* \"#utility.yul\":8051:8054   */\n      dup4\n        /* \"#utility.yul\":7974:8059   */\n      tag_312\n      jump\t// in\n    tag_356:\n        /* \"#utility.yul\":7967:8059   */\n      swap2\n      pop\n        /* \"#utility.yul\":8068:8161   */\n      tag_357\n        /* \"#utility.yul\":8157:8160   */\n      dup3\n        /* \"#utility.yul\":8068:8161   */\n      tag_358\n      jump\t// in\n    tag_357:\n        /* \"#utility.yul\":8186:8188   */\n      0x23\n        /* \"#utility.yul\":8181:8184   */\n      dup3\n        /* \"#utility.yul\":8177:8189   */\n      add\n        /* \"#utility.yul\":8170:8189   */\n      swap1\n      pop\n        /* \"#utility.yul\":7957:8195   */\n      swap2\n      swap1\n      pop\n      jump\t// out\n        /* \"#utility.yul\":8201:8603   */\n    tag_359:\n      0x00\n        /* \"#utility.yul\":8382:8467   */\n      tag_361\n        /* \"#utility.yul\":8464:8466   */\n      0x11\n        /* \"#utility.yul\":8459:8462   */\n      dup4\n        /* \"#utility.yul\":8382:8467   */\n      tag_312\n      jump\t// in\n    tag_361:\n        /* \"#utility.yul\":8375:8467   */\n      swap2\n      pop\n        /* \"#utility.yul\":8476:8569   */\n      tag_362\n        /* \"#utility.yul\":8565:8568   */\n      dup3\n        /* \"#utility.yul\":8476:8569   */\n      tag_363\n      jump\t// in\n    tag_362:\n        /* \"#utility.yul\":8594:8596   */\n      0x11\n        /* \"#utility.yul\":8589:8592   */\n      dup3\n        /* \"#utility.yul\":8585:8597   */\n      add\n        /* \"#utility.yul\":8578:8597   */\n      swap1\n      pop\n        /* \"#utility.yul\":8365:8603   */\n      swap2\n      swap1\n      pop\n      jump\t// out\n        /* \"#utility.yul\":8609:8975   */\n    tag_364:\n      0x00\n        /* \"#utility.yul\":8772:8839   */\n      tag_366\n        /* \"#utility.yul\":8836:8838   */\n      0x2f\n        /* \"#utility.yul\":8831:8834   */\n      dup4\n        /* \"#utility.yul\":8772:8839   */\n      tag_303\n      jump\t// in\n    tag_366:\n        /* \"#utility.yul\":8765:8839   */\n      swap2\n      pop\n        /* \"#utility.yul\":8848:8941   */\n      tag_367\n        /* \"#utility.yul\":8937:8940   */\n      dup3\n        /* \"#utility.yul\":8848:8941   */\n      tag_368\n      jump\t// in\n    tag_367:\n        /* \"#utility.yul\":8966:8968   */\n      0x40\n        /* \"#utility.yul\":8961:8964   */\n      dup3\n        /* \"#utility.yul\":8957:8969   */\n      add\n        /* \"#utility.yul\":8950:8969   */\n      swap1\n      pop\n        /* \"#utility.yul\":8755:8975   */\n      swap2\n      swap1\n      pop\n      jump\t// out\n        /* \"#utility.yul\":8981:9099   */\n    tag_369:\n        /* \"#utility.yul\":9068:9092   */\n      tag_371\n        /* \"#utility.yul\":9086:9091   */\n      dup2\n        /* \"#utility.yul\":9068:9092   */\n      tag_372\n      jump\t// in\n    tag_371:\n        /* \"#utility.yul\":9063:9066   */\n      dup3\n        /* \"#utility.yul\":9056:9093   */\n      mstore\n        /* \"#utility.yul\":9046:9099   */\n      pop\n      pop\n      jump\t// out\n        /* \"#utility.yul\":9105:9262   */\n    tag_373:\n        /* \"#utility.yul\":9210:9255   */\n      tag_375\n        /* \"#utility.yul\":9230:9254   */\n      tag_376\n        /* \"#utility.yul\":9248:9253   */\n      dup3\n        /* \"#utility.yul\":9230:9254   */\n      tag_372\n      jump\t// in\n    tag_376:\n        /* \"#utility.yul\":9210:9255   */\n      tag_377\n      jump\t// in\n    tag_375:\n        /* \"#utility.yul\":9205:9208   */\n      dup3\n        /* \"#utility.yul\":9198:9256   */\n      mstore\n        /* \"#utility.yul\":9188:9262   */\n      pop\n      pop\n      jump\t// out\n        /* \"#utility.yul\":9268:10197   */\n    tag_157:\n      0x00\n        /* \"#utility.yul\":9632:9780   */\n      tag_379\n        /* \"#utility.yul\":9776:9779   */\n      dup3\n        /* \"#utility.yul\":9632:9780   */\n      tag_334\n      jump\t// in\n    tag_379:\n        /* \"#utility.yul\":9625:9780   */\n      swap2\n      pop\n        /* \"#utility.yul\":9790:9865   */\n      tag_380\n        /* \"#utility.yul\":9861:9864   */\n      dup3\n        /* \"#utility.yul\":9852:9858   */\n      dup6\n        /* \"#utility.yul\":9790:9865   */\n      tag_285\n      jump\t// in\n    tag_380:\n        /* \"#utility.yul\":9890:9892   */\n      0x14\n        /* \"#utility.yul\":9885:9888   */\n      dup3\n        /* \"#utility.yul\":9881:9893   */\n      add\n        /* \"#utility.yul\":9874:9893   */\n      swap2\n      pop\n        /* \"#utility.yul\":9910:10058   */\n      tag_381\n        /* \"#utility.yul\":10054:10057   */\n      dup3\n        /* \"#utility.yul\":9910:10058   */\n      tag_354\n      jump\t// in\n    tag_381:\n        /* \"#utility.yul\":9903:10058   */\n      swap2\n      pop\n        /* \"#utility.yul\":10068:10143   */\n      tag_382\n        /* \"#utility.yul\":10139:10142   */\n      dup3\n        /* \"#utility.yul\":10130:10136   */\n      dup5\n        /* \"#utility.yul\":10068:10143   */\n      tag_373\n      jump\t// in\n    tag_382:\n        /* \"#utility.yul\":10168:10170   */\n      0x20\n        /* \"#utility.yul\":10163:10166   */\n      dup3\n        /* \"#utility.yul\":10159:10171   */\n      add\n        /* \"#utility.yul\":10152:10171   */\n      swap2\n      pop\n        /* \"#utility.yul\":10188:10191   */\n      dup2\n        /* \"#utility.yul\":10181:10191   */\n      swap1\n      pop\n        /* \"#utility.yul\":9614:10197   */\n      swap4\n      swap3\n      pop\n      pop\n      pop\n      jump\t// out\n        /* \"#utility.yul\":10203:11170   */\n    tag_202:\n      0x00\n        /* \"#utility.yul\":10607:10755   */\n      tag_384\n        /* \"#utility.yul\":10751:10754   */\n      dup3\n        /* \"#utility.yul\":10607:10755   */\n      tag_344\n      jump\t// in\n    tag_384:\n        /* \"#utility.yul\":10600:10755   */\n      swap2\n      pop\n        /* \"#utility.yul\":10772:10867   */\n      tag_385\n        /* \"#utility.yul\":10863:10866   */\n      dup3\n        /* \"#utility.yul\":10854:10860   */\n      dup6\n        /* \"#utility.yul\":10772:10867   */\n      tag_308\n      jump\t// in\n    tag_385:\n        /* \"#utility.yul\":10765:10867   */\n      swap2\n      pop\n        /* \"#utility.yul\":10884:11032   */\n      tag_386\n        /* \"#utility.yul\":11028:11031   */\n      dup3\n        /* \"#utility.yul\":10884:11032   */\n      tag_359\n      jump\t// in\n    tag_386:\n        /* \"#utility.yul\":10877:11032   */\n      swap2\n      pop\n        /* \"#utility.yul\":11049:11144   */\n      tag_387\n        /* \"#utility.yul\":11140:11143   */\n      dup3\n        /* \"#utility.yul\":11131:11137   */\n      dup5\n        /* \"#utility.yul\":11049:11144   */\n      tag_308\n      jump\t// in\n    tag_387:\n        /* \"#utility.yul\":11042:11144   */\n      swap2\n      pop\n        /* \"#utility.yul\":11161:11164   */\n      dup2\n        /* \"#utility.yul\":11154:11164   */\n      swap1\n      pop\n        /* \"#utility.yul\":10589:11170   */\n      swap4\n      swap3\n      pop\n      pop\n      pop\n      jump\t// out\n        /* \"#utility.yul\":11176:11618   */\n    tag_139:\n      0x00\n        /* \"#utility.yul\":11363:11365   */\n      0x60\n        /* \"#utility.yul\":11352:11361   */\n      dup3\n        /* \"#utility.yul\":11348:11366   */\n      add\n        /* \"#utility.yul\":11340:11366   */\n      swap1\n      pop\n        /* \"#utility.yul\":11376:11447   */\n      tag_389\n        /* \"#utility.yul\":11444:11445   */\n      0x00\n        /* \"#utility.yul\":11433:11442   */\n      dup4\n        /* \"#utility.yul\":11429:11446   */\n      add\n        /* \"#utility.yul\":11420:11426   */\n      dup7\n        /* \"#utility.yul\":11376:11447   */\n      tag_281\n      jump\t// in\n    tag_389:\n        /* \"#utility.yul\":11457:11529   */\n      tag_390\n        /* \"#utility.yul\":11525:11527   */\n      0x20\n        /* \"#utility.yul\":11514:11523   */\n      dup4\n        /* \"#utility.yul\":11510:11528   */\n      add\n        /* \"#utility.yul\":11501:11507   */\n      dup6\n        /* \"#utility.yul\":11457:11529   */\n      tag_281\n      jump\t// in\n    tag_390:\n        /* \"#utility.yul\":11539:11611   */\n      tag_391\n        /* \"#utility.yul\":11607:11609   */\n      0x40\n        /* \"#utility.yul\":11596:11605   */\n      dup4\n        /* \"#utility.yul\":11592:11610   */\n      add\n        /* \"#utility.yul\":11583:11589   */\n      dup5\n        /* \"#utility.yul\":11539:11611   */\n      tag_369\n      jump\t// in\n    tag_391:\n        /* \"#utility.yul\":11330:11618   */\n      swap5\n      swap4\n      pop\n      pop\n      pop\n      pop\n      jump\t// out\n        /* \"#utility.yul\":11624:11834   */\n    tag_35:\n      0x00\n        /* \"#utility.yul\":11749:11751   */\n      0x20\n        /* \"#utility.yul\":11738:11747   */\n      dup3\n        /* \"#utility.yul\":11734:11752   */\n      add\n        /* \"#utility.yul\":11726:11752   */\n      swap1\n      pop\n        /* \"#utility.yul\":11762:11827   */\n      tag_393\n        /* \"#utility.yul\":11824:11825   */\n      0x00\n        /* \"#utility.yul\":11813:11822   */\n      dup4\n        /* \"#utility.yul\":11809:11826   */\n      add\n        /* \"#utility.yul\":11800:11806   */\n      dup5\n        /* \"#utility.yul\":11762:11827   */\n      tag_290\n      jump\t// in\n    tag_393:\n        /* \"#utility.yul\":11716:11834   */\n      swap3\n      swap2\n      pop\n      pop\n      jump\t// out\n        /* \"#utility.yul\":11840:12062   */\n    tag_40:\n      0x00\n        /* \"#utility.yul\":11971:11973   */\n      0x20\n        /* \"#utility.yul\":11960:11969   */\n      dup3\n        /* \"#utility.yul\":11956:11974   */\n      add\n        /* \"#utility.yul\":11948:11974   */\n      swap1\n      pop\n        /* \"#utility.yul\":11984:12055   */\n      tag_395\n        /* \"#utility.yul\":12052:12053   */\n      0x00\n        /* \"#utility.yul\":12041:12050   */\n      dup4\n        /* \"#utility.yul\":12037:12054   */\n      add\n        /* \"#utility.yul\":12028:12034   */\n      dup5\n        /* \"#utility.yul\":11984:12055   */\n      tag_294\n      jump\t// in\n    tag_395:\n        /* \"#utility.yul\":11938:12062   */\n      swap3\n      swap2\n      pop\n      pop\n      jump\t// out\n        /* \"#utility.yul\":12068:12381   */\n    tag_160:\n      0x00\n        /* \"#utility.yul\":12219:12221   */\n      0x20\n        /* \"#utility.yul\":12208:12217   */\n      dup3\n        /* \"#utility.yul\":12204:12222   */\n      add\n        /* \"#utility.yul\":12196:12222   */\n      swap1\n      pop\n        /* \"#utility.yul\":12268:12277   */\n      dup2\n        /* \"#utility.yul\":12262:12266   */\n      dup2\n        /* \"#utility.yul\":12258:12278   */\n      sub\n        /* \"#utility.yul\":12254:12255   */\n      0x00\n        /* \"#utility.yul\":12243:12252   */\n      dup4\n        /* \"#utility.yul\":12239:12256   */\n      add\n        /* \"#utility.yul\":12232:12279   */\n      mstore\n        /* \"#utility.yul\":12296:12374   */\n      tag_397\n        /* \"#utility.yul\":12369:12373   */\n      dup2\n        /* \"#utility.yul\":12360:12366   */\n      dup5\n        /* \"#utility.yul\":12296:12374   */\n      tag_298\n      jump\t// in\n    tag_397:\n        /* \"#utility.yul\":12288:12374   */\n      swap1\n      pop\n        /* \"#utility.yul\":12186:12381   */\n      swap3\n      swap2\n      pop\n      pop\n      jump\t// out\n        /* \"#utility.yul\":12387:12806   */\n    tag_133:\n      0x00\n        /* \"#utility.yul\":12591:12593   */\n      0x20\n        /* \"#utility.yul\":12580:12589   */\n      dup3\n        /* \"#utility.yul\":12576:12594   */\n      add\n        /* \"#utility.yul\":12568:12594   */\n      swap1\n      pop\n        /* \"#utility.yul\":12640:12649   */\n      dup2\n        /* \"#utility.yul\":12634:12638   */\n      dup2\n        /* \"#utility.yul\":12630:12650   */\n      sub\n        /* \"#utility.yul\":12626:12627   */\n      0x00\n        /* \"#utility.yul\":12615:12624   */\n      dup4\n        /* \"#utility.yul\":12611:12628   */\n      add\n        /* \"#utility.yul\":12604:12651   */\n      mstore\n        /* \"#utility.yul\":12668:12799   */\n      tag_399\n        /* \"#utility.yul\":12794:12798   */\n      dup2\n        /* \"#utility.yul\":12668:12799   */\n      tag_314\n      jump\t// in\n    tag_399:\n        /* \"#utility.yul\":12660:12799   */\n      swap1\n      pop\n        /* \"#utility.yul\":12558:12806   */\n      swap2\n      swap1\n      pop\n      jump\t// out\n        /* \"#utility.yul\":12812:13231   */\n    tag_231:\n      0x00\n        /* \"#utility.yul\":13016:13018   */\n      0x20\n        /* \"#utility.yul\":13005:13014   */\n      dup3\n        /* \"#utility.yul\":13001:13019   */\n      add\n        /* \"#utility.yul\":12993:13019   */\n      swap1\n      pop\n        /* \"#utility.yul\":13065:13074   */\n      dup2\n        /* \"#utility.yul\":13059:13063   */\n      dup2\n        /* \"#utility.yul\":13055:13075   */\n      sub\n        /* \"#utility.yul\":13051:13052   */\n      0x00\n        /* \"#utility.yul\":13040:13049   */\n      dup4\n        /* \"#utility.yul\":13036:13053   */\n      add\n        /* \"#utility.yul\":13029:13076   */\n      mstore\n        /* \"#utility.yul\":13093:13224   */\n      tag_401\n        /* \"#utility.yul\":13219:13223   */\n      dup2\n        /* \"#utility.yul\":13093:13224   */\n      tag_319\n      jump\t// in\n    tag_401:\n        /* \"#utility.yul\":13085:13224   */\n      swap1\n      pop\n        /* \"#utility.yul\":12983:13231   */\n      swap2\n      swap1\n      pop\n      jump\t// out\n        /* \"#utility.yul\":13237:13656   */\n    tag_155:\n      0x00\n        /* \"#utility.yul\":13441:13443   */\n      0x20\n        /* \"#utility.yul\":13430:13439   */\n      dup3\n        /* \"#utility.yul\":13426:13444   */\n      add\n        /* \"#utility.yul\":13418:13444   */\n      swap1\n      pop\n        /* \"#utility.yul\":13490:13499   */\n      dup2\n        /* \"#utility.yul\":13484:13488   */\n      dup2\n        /* \"#utility.yul\":13480:13500   */\n      sub\n        /* \"#utility.yul\":13476:13477   */\n      0x00\n        /* \"#utility.yul\":13465:13474   */\n      dup4\n        /* \"#utility.yul\":13461:13478   */\n      add\n        /* \"#utility.yul\":13454:13501   */\n      mstore\n        /* \"#utility.yul\":13518:13649   */\n      tag_403\n        /* \"#utility.yul\":13644:13648   */\n      dup2\n        /* \"#utility.yul\":13518:13649   */\n      tag_324\n      jump\t// in\n    tag_403:\n        /* \"#utility.yul\":13510:13649   */\n      swap1\n      pop\n        /* \"#utility.yul\":13408:13656   */\n      swap2\n      swap1\n      pop\n      jump\t// out\n        /* \"#utility.yul\":13662:14081   */\n    tag_24:\n      0x00\n        /* \"#utility.yul\":13866:13868   */\n      0x20\n        /* \"#utility.yul\":13855:13864   */\n      dup3\n        /* \"#utility.yul\":13851:13869   */\n      add\n        /* \"#utility.yul\":13843:13869   */\n      swap1\n      pop\n        /* \"#utility.yul\":13915:13924   */\n      dup2\n        /* \"#utility.yul\":13909:13913   */\n      dup2\n        /* \"#utility.yul\":13905:13925   */\n      sub\n        /* \"#utility.yul\":13901:13902   */\n      0x00\n        /* \"#utility.yul\":13890:13899   */\n      dup4\n        /* \"#utility.yul\":13886:13903   */\n      add\n        /* \"#utility.yul\":13879:13926   */\n      mstore\n        /* \"#utility.yul\":13943:14074   */\n      tag_405\n        /* \"#utility.yul\":14069:14073   */\n      dup2\n        /* \"#utility.yul\":13943:14074   */\n      tag_329\n      jump\t// in\n    tag_405:\n        /* \"#utility.yul\":13935:14074   */\n      swap1\n      pop\n        /* \"#utility.yul\":13833:14081   */\n      swap2\n      swap1\n      pop\n      jump\t// out\n        /* \"#utility.yul\":14087:14506   */\n    tag_28:\n      0x00\n        /* \"#utility.yul\":14291:14293   */\n      0x20\n        /* \"#utility.yul\":14280:14289   */\n      dup3\n        /* \"#utility.yul\":14276:14294   */\n      add\n        /* \"#utility.yul\":14268:14294   */\n      swap1\n      pop\n        /* \"#utility.yul\":14340:14349   */\n      dup2\n        /* \"#utility.yul\":14334:14338   */\n      dup2\n        /* \"#utility.yul\":14330:14350   */\n      sub\n        /* \"#utility.yul\":14326:14327   */\n      0x00\n        /* \"#utility.yul\":14315:14324   */\n      dup4\n        /* \"#utility.yul\":14311:14328   */\n      add\n        /* \"#utility.yul\":14304:14351   */\n      mstore\n        /* \"#utility.yul\":14368:14499   */\n      tag_407\n        /* \"#utility.yul\":14494:14498   */\n      dup2\n        /* \"#utility.yul\":14368:14499   */\n      tag_339\n      jump\t// in\n    tag_407:\n        /* \"#utility.yul\":14360:14499   */\n      swap1\n      pop\n        /* \"#utility.yul\":14258:14506   */\n      swap2\n      swap1\n      pop\n      jump\t// out\n        /* \"#utility.yul\":14512:14931   */\n    tag_186:\n      0x00\n        /* \"#utility.yul\":14716:14718   */\n      0x20\n        /* \"#utility.yul\":14705:14714   */\n      dup3\n        /* \"#utility.yul\":14701:14719   */\n      add\n        /* \"#utility.yul\":14693:14719   */\n      swap1\n      pop\n        /* \"#utility.yul\":14765:14774   */\n      dup2\n        /* \"#utility.yul\":14759:14763   */\n      dup2\n        /* \"#utility.yul\":14755:14775   */\n      sub\n        /* \"#utility.yul\":14751:14752   */\n      0x00\n        /* \"#utility.yul\":14740:14749   */\n      dup4\n        /* \"#utility.yul\":14736:14753   */\n      add\n        /* \"#utility.yul\":14729:14776   */\n      mstore\n        /* \"#utility.yul\":14793:14924   */\n      tag_409\n        /* \"#utility.yul\":14919:14923   */\n      dup2\n        /* \"#utility.yul\":14793:14924   */\n      tag_349\n      jump\t// in\n    tag_409:\n        /* \"#utility.yul\":14785:14924   */\n      swap1\n      pop\n        /* \"#utility.yul\":14683:14931   */\n      swap2\n      swap1\n      pop\n      jump\t// out\n        /* \"#utility.yul\":14937:15356   */\n    tag_122:\n      0x00\n        /* \"#utility.yul\":15141:15143   */\n      0x20\n        /* \"#utility.yul\":15130:15139   */\n      dup3\n        /* \"#utility.yul\":15126:15144   */\n      add\n        /* \"#utility.yul\":15118:15144   */\n      swap1\n      pop\n        /* \"#utility.yul\":15190:15199   */\n      dup2\n        /* \"#utility.yul\":15184:15188   */\n      dup2\n        /* \"#utility.yul\":15180:15200   */\n      sub\n        /* \"#utility.yul\":15176:15177   */\n      0x00\n        /* \"#utility.yul\":15165:15174   */\n      dup4\n        /* \"#utility.yul\":15161:15178   */\n      add\n        /* \"#utility.yul\":15154:15201   */\n      mstore\n        /* \"#utility.yul\":15218:15349   */\n      tag_411\n        /* \"#utility.yul\":15344:15348   */\n      dup2\n        /* \"#utility.yul\":15218:15349   */\n      tag_364\n      jump\t// in\n    tag_411:\n        /* \"#utility.yul\":15210:15349   */\n      swap1\n      pop\n        /* \"#utility.yul\":15108:15356   */\n      swap2\n      swap1\n      pop\n      jump\t// out\n        /* \"#utility.yul\":15362:15584   */\n    tag_76:\n      0x00\n        /* \"#utility.yul\":15493:15495   */\n      0x20\n        /* \"#utility.yul\":15482:15491   */\n      dup3\n        /* \"#utility.yul\":15478:15496   */\n      add\n        /* \"#utility.yul\":15470:15496   */\n      swap1\n      pop\n        /* \"#utility.yul\":15506:15577   */\n      tag_413\n        /* \"#utility.yul\":15574:15575   */\n      0x00\n        /* \"#utility.yul\":15563:15572   */\n      dup4\n        /* \"#utility.yul\":15559:15576   */\n      add\n        /* \"#utility.yul\":15550:15556   */\n      dup5\n        /* \"#utility.yul\":15506:15577   */\n      tag_369\n      jump\t// in\n    tag_413:\n        /* \"#utility.yul\":15460:15584   */\n      swap3\n      swap2\n      pop\n      pop\n      jump\t// out\n        /* \"#utility.yul\":15590:15689   */\n    tag_301:\n      0x00\n        /* \"#utility.yul\":15676:15681   */\n      dup2\n        /* \"#utility.yul\":15670:15682   */\n      mload\n        /* \"#utility.yul\":15660:15682   */\n      swap1\n      pop\n        /* \"#utility.yul\":15649:15689   */\n      swap2\n      swap1\n      pop\n      jump\t// out\n        /* \"#utility.yul\":15695:15864   */\n    tag_303:\n      0x00\n        /* \"#utility.yul\":15813:15819   */\n      dup3\n        /* \"#utility.yul\":15808:15811   */\n      dup3\n        /* \"#utility.yul\":15801:15820   */\n      mstore\n        /* \"#utility.yul\":15853:15857   */\n      0x20\n        /* \"#utility.yul\":15848:15851   */\n      dup3\n        /* \"#utility.yul\":15844:15858   */\n      add\n        /* \"#utility.yul\":15829:15858   */\n      swap1\n      pop\n        /* \"#utility.yul\":15791:15864   */\n      swap3\n      swap2\n      pop\n      pop\n      jump\t// out\n        /* \"#utility.yul\":15870:16018   */\n    tag_312:\n      0x00\n        /* \"#utility.yul\":16009:16012   */\n      dup2\n        /* \"#utility.yul\":15994:16012   */\n      swap1\n      pop\n        /* \"#utility.yul\":15984:16018   */\n      swap3\n      swap2\n      pop\n      pop\n      jump\t// out\n        /* \"#utility.yul\":16024:16329   */\n    tag_176:\n      0x00\n        /* \"#utility.yul\":16083:16103   */\n      tag_418\n        /* \"#utility.yul\":16101:16102   */\n      dup3\n        /* \"#utility.yul\":16083:16103   */\n      tag_372\n      jump\t// in\n    tag_418:\n        /* \"#utility.yul\":16078:16103   */\n      swap2\n      pop\n        /* \"#utility.yul\":16117:16137   */\n      tag_419\n        /* \"#utility.yul\":16135:16136   */\n      dup4\n        /* \"#utility.yul\":16117:16137   */\n      tag_372\n      jump\t// in\n    tag_419:\n        /* \"#utility.yul\":16112:16137   */\n      swap3\n      pop\n        /* \"#utility.yul\":16271:16272   */\n      dup3\n        /* \"#utility.yul\":16203:16269   */\n      0xffffffffffffffffffffffffffffffffffffffffffffffffffffffffffffffff\n        /* \"#utility.yul\":16199:16273   */\n      sub\n        /* \"#utility.yul\":16196:16197   */\n      dup3\n        /* \"#utility.yul\":16193:16274   */\n      gt\n        /* \"#utility.yul\":16190:16192   */\n      iszero\n      tag_420\n      jumpi\n        /* \"#utility.yul\":16277:16295   */\n      tag_421\n      tag_422\n      jump\t// in\n    tag_421:\n        /* \"#utility.yul\":16190:16192   */\n    tag_420:\n        /* \"#utility.yul\":16321:16322   */\n      dup3\n        /* \"#utility.yul\":16318:16319   */\n      dup3\n        /* \"#utility.yul\":16314:16323   */\n      add\n        /* \"#utility.yul\":16307:16323   */\n      swap1\n      pop\n        /* \"#utility.yul\":16068:16329   */\n      swap3\n      swap2\n      pop\n      pop\n      jump\t// out\n        /* \"#utility.yul\":16335:16683   */\n    tag_214:\n      0x00\n        /* \"#utility.yul\":16398:16418   */\n      tag_424\n        /* \"#utility.yul\":16416:16417   */\n      dup3\n        /* \"#utility.yul\":16398:16418   */\n      tag_372\n      jump\t// in\n    tag_424:\n        /* \"#utility.yul\":16393:16418   */\n      swap2\n      pop\n        /* \"#utility.yul\":16432:16452   */\n      tag_425\n        /* \"#utility.yul\":16450:16451   */\n      dup4\n        /* \"#utility.yul\":16432:16452   */\n      tag_372\n      jump\t// in\n    tag_425:\n        /* \"#utility.yul\":16427:16452   */\n      swap3\n      pop\n        /* \"#utility.yul\":16620:16621   */\n      dup2\n        /* \"#utility.yul\":16552:16618   */\n      0xffffffffffffffffffffffffffffffffffffffffffffffffffffffffffffffff\n        /* \"#utility.yul\":16548:16622   */\n      div\n        /* \"#utility.yul\":16545:16546   */\n      dup4\n        /* \"#utility.yul\":16542:16623   */\n      gt\n        /* \"#utility.yul\":16537:16538   */\n      dup3\n        /* \"#utility.yul\":16530:16539   */\n      iszero\n        /* \"#utility.yul\":16523:16540   */\n      iszero\n        /* \"#utility.yul\":16519:16624   */\n      and\n        /* \"#utility.yul\":16516:16518   */\n      iszero\n      tag_426\n      jumpi\n        /* \"#utility.yul\":16627:16645   */\n      tag_427\n      tag_422\n      jump\t// in\n    tag_427:\n        /* \"#utility.yul\":16516:16518   */\n    tag_426:\n        /* \"#utility.yul\":16675:16676   */\n      dup3\n        /* \"#utility.yul\":16672:16673   */\n      dup3\n        /* \"#utility.yul\":16668:16677   */\n      mul\n        /* \"#utility.yul\":16657:16677   */\n      swap1\n      pop\n        /* \"#utility.yul\":16383:16683   */\n      swap3\n      swap2\n      pop\n      pop\n      jump\t// out\n        /* \"#utility.yul\":16689:16880   */\n    tag_162:\n      0x00\n        /* \"#utility.yul\":16749:16769   */\n      tag_429\n        /* \"#utility.yul\":16767:16768   */\n      dup3\n        /* \"#utility.yul\":16749:16769   */\n      tag_372\n      jump\t// in\n    tag_429:\n        /* \"#utility.yul\":16744:16769   */\n      swap2\n      pop\n        /* \"#utility.yul\":16783:16803   */\n      tag_430\n        /* \"#utility.yul\":16801:16802   */\n      dup4\n        /* \"#utility.yul\":16783:16803   */\n      tag_372\n      jump\t// in\n    tag_430:\n        /* \"#utility.yul\":16778:16803   */\n      swap3\n      pop\n        /* \"#utility.yul\":16822:16823   */\n      dup3\n        /* \"#utility.yul\":16819:16820   */\n      dup3\n        /* \"#utility.yul\":16816:16824   */\n      lt\n        /* \"#utility.yul\":16813:16815   */\n      iszero\n      tag_431\n      jumpi\n        /* \"#utility.yul\":16827:16845   */\n      tag_432\n      tag_422\n      jump\t// in\n    tag_432:\n        /* \"#utility.yul\":16813:16815   */\n    tag_431:\n        /* \"#utility.yul\":16872:16873   */\n      dup3\n        /* \"#utility.yul\":16869:16870   */\n      dup3\n        /* \"#utility.yul\":16865:16874   */\n      sub\n        /* \"#utility.yul\":16857:16874   */\n      swap1\n      pop\n        /* \"#utility.yul\":16734:16880   */\n      swap3\n      swap2\n      pop\n      pop\n      jump\t// out\n        /* \"#utility.yul\":16886:16982   */\n    tag_284:\n      0x00\n        /* \"#utility.yul\":16952:16976   */\n      tag_434\n        /* \"#utility.yul\":16970:16975   */\n      dup3\n        /* \"#utility.yul\":16952:16976   */\n      tag_435\n      jump\t// in\n    tag_434:\n        /* \"#utility.yul\":16941:16976   */\n      swap1\n      pop\n        /* \"#utility.yul\":16931:16982   */\n      swap2\n      swap1\n      pop\n      jump\t// out\n        /* \"#utility.yul\":16988:17078   */\n    tag_293:\n      0x00\n        /* \"#utility.yul\":17065:17070   */\n      dup2\n        /* \"#utility.yul\":17058:17071   */\n      iszero\n        /* \"#utility.yul\":17051:17072   */\n      iszero\n        /* \"#utility.yul\":17040:17072   */\n      swap1\n      pop\n        /* \"#utility.yul\":17030:17078   */\n      swap2\n      swap1\n      pop\n      jump\t// out\n        /* \"#utility.yul\":17084:17161   */\n    tag_297:\n      0x00\n        /* \"#utility.yul\":17150:17155   */\n      dup2\n        /* \"#utility.yul\":17139:17155   */\n      swap1\n      pop\n        /* \"#utility.yul\":17129:17161   */\n      swap2\n      swap1\n      pop\n      jump\t// out\n        /* \"#utility.yul\":17167:17316   */\n    tag_438:\n      0x00\n        /* \"#utility.yul\":17243:17309   */\n      0xffffffff00000000000000000000000000000000000000000000000000000000\n        /* \"#utility.yul\":17236:17241   */\n      dup3\n        /* \"#utility.yul\":17232:17310   */\n      and\n        /* \"#utility.yul\":17221:17310   */\n      swap1\n      pop\n        /* \"#utility.yul\":17211:17316   */\n      swap2\n      swap1\n      pop\n      jump\t// out\n        /* \"#utility.yul\":17322:17448   */\n    tag_435:\n      0x00\n        /* \"#utility.yul\":17399:17441   */\n      0xffffffffffffffffffffffffffffffffffffffff\n        /* \"#utility.yul\":17392:17397   */\n      dup3\n        /* \"#utility.yul\":17388:17442   */\n      and\n        /* \"#utility.yul\":17377:17442   */\n      swap1\n      pop\n        /* \"#utility.yul\":17367:17448   */\n      swap2\n      swap1\n      pop\n      jump\t// out\n        /* \"#utility.yul\":17454:17531   */\n    tag_372:\n      0x00\n        /* \"#utility.yul\":17520:17525   */\n      dup2\n        /* \"#utility.yul\":17509:17525   */\n      swap1\n      pop\n        /* \"#utility.yul\":17499:17531   */\n      swap2\n      swap1\n      pop\n      jump\t// out\n        /* \"#utility.yul\":17537:17844   */\n    tag_305:\n        /* \"#utility.yul\":17605:17606   */\n      0x00\n        /* \"#utility.yul\":17615:17728   */\n    tag_443:\n        /* \"#utility.yul\":17629:17635   */\n      dup4\n        /* \"#utility.yul\":17626:17627   */\n      dup2\n        /* \"#utility.yul\":17623:17636   */\n      lt\n        /* \"#utility.yul\":17615:17728   */\n      iszero\n      tag_445\n      jumpi\n        /* \"#utility.yul\":17714:17715   */\n      dup1\n        /* \"#utility.yul\":17709:17712   */\n      dup3\n        /* \"#utility.yul\":17705:17716   */\n      add\n        /* \"#utility.yul\":17699:17717   */\n      mload\n        /* \"#utility.yul\":17695:17696   */\n      dup2\n        /* \"#utility.yul\":17690:17693   */\n      dup5\n        /* \"#utility.yul\":17686:17697   */\n      add\n        /* \"#utility.yul\":17679:17718   */\n      mstore\n        /* \"#utility.yul\":17651:17653   */\n      0x20\n        /* \"#utility.yul\":17648:17649   */\n      dup2\n        /* \"#utility.yul\":17644:17654   */\n      add\n        /* \"#utility.yul\":17639:17654   */\n      swap1\n      pop\n        /* \"#utility.yul\":17615:17728   */\n      jump(tag_443)\n    tag_445:\n        /* \"#utility.yul\":17746:17752   */\n      dup4\n        /* \"#utility.yul\":17743:17744   */\n      dup2\n        /* \"#utility.yul\":17740:17753   */\n      gt\n        /* \"#utility.yul\":17737:17739   */\n      iszero\n      tag_446\n      jumpi\n        /* \"#utility.yul\":17826:17827   */\n      0x00\n        /* \"#utility.yul\":17817:17823   */\n      dup5\n        /* \"#utility.yul\":17812:17815   */\n      dup5\n        /* \"#utility.yul\":17808:17824   */\n      add\n        /* \"#utility.yul\":17801:17828   */\n      mstore\n        /* \"#utility.yul\":17737:17739   */\n    tag_446:\n        /* \"#utility.yul\":17586:17844   */\n      pop\n      pop\n      pop\n      pop\n      jump\t// out\n        /* \"#utility.yul\":17850:18021   */\n    tag_228:\n      0x00\n        /* \"#utility.yul\":17912:17936   */\n      tag_448\n        /* \"#utility.yul\":17930:17935   */\n      dup3\n        /* \"#utility.yul\":17912:17936   */\n      tag_372\n      jump\t// in\n    tag_448:\n        /* \"#utility.yul\":17903:17936   */\n      swap2\n      pop\n        /* \"#utility.yul\":17958:17962   */\n      0x00\n        /* \"#utility.yul\":17951:17956   */\n      dup3\n        /* \"#utility.yul\":17948:17963   */\n      eq\n        /* \"#utility.yul\":17945:17947   */\n      iszero\n      tag_449\n      jumpi\n        /* \"#utility.yul\":17966:17984   */\n      tag_450\n      tag_422\n      jump\t// in\n    tag_450:\n        /* \"#utility.yul\":17945:17947   */\n    tag_449:\n        /* \"#utility.yul\":18013:18014   */\n      0x01\n        /* \"#utility.yul\":18006:18011   */\n      dup3\n        /* \"#utility.yul\":18002:18015   */\n      sub\n        /* \"#utility.yul\":17995:18015   */\n      swap1\n      pop\n        /* \"#utility.yul\":17893:18021   */\n      swap2\n      swap1\n      pop\n      jump\t// out\n        /* \"#utility.yul\":18027:18127   */\n    tag_289:\n      0x00\n        /* \"#utility.yul\":18095:18121   */\n      tag_452\n        /* \"#utility.yul\":18115:18120   */\n      dup3\n        /* \"#utility.yul\":18095:18121   */\n      tag_453\n      jump\t// in\n    tag_452:\n        /* \"#utility.yul\":18084:18121   */\n      swap1\n      pop\n        /* \"#utility.yul\":18074:18127   */\n      swap2\n      swap1\n      pop\n      jump\t// out\n        /* \"#utility.yul\":18133:18227   */\n    tag_453:\n      0x00\n        /* \"#utility.yul\":18201:18221   */\n      tag_455\n        /* \"#utility.yul\":18215:18220   */\n      dup3\n        /* \"#utility.yul\":18201:18221   */\n      tag_456\n      jump\t// in\n    tag_455:\n        /* \"#utility.yul\":18190:18221   */\n      swap1\n      pop\n        /* \"#utility.yul\":18180:18227   */\n      swap2\n      swap1\n      pop\n      jump\t// out\n        /* \"#utility.yul\":18233:18312   */\n    tag_377:\n      0x00\n        /* \"#utility.yul\":18301:18306   */\n      dup2\n        /* \"#utility.yul\":18290:18306   */\n      swap1\n      pop\n        /* \"#utility.yul\":18280:18312   */\n      swap2\n      swap1\n      pop\n      jump\t// out\n        /* \"#utility.yul\":18318:18498   */\n    tag_422:\n        /* \"#utility.yul\":18366:18443   */\n      0x4e487b7100000000000000000000000000000000000000000000000000000000\n        /* \"#utility.yul\":18363:18364   */\n      0x00\n        /* \"#utility.yul\":18356:18444   */\n      mstore\n        /* \"#utility.yul\":18463:18467   */\n      0x11\n        /* \"#utility.yul\":18460:18461   */\n      0x04\n        /* \"#utility.yul\":18453:18468   */\n      mstore\n        /* \"#utility.yul\":18487:18491   */\n      0x24\n        /* \"#utility.yul\":18484:18485   */\n      0x00\n        /* \"#utility.yul\":18477:18492   */\n      revert\n        /* \"#utility.yul\":18504:18606   */\n    tag_307:\n      0x00\n        /* \"#utility.yul\":18596:18598   */\n      0x1f\n        /* \"#utility.yul\":18592:18599   */\n      not\n        /* \"#utility.yul\":18587:18589   */\n      0x1f\n        /* \"#utility.yul\":18580:18585   */\n      dup4\n        /* \"#utility.yul\":18576:18590   */\n      add\n        /* \"#utility.yul\":18572:18600   */\n      and\n        /* \"#utility.yul\":18562:18600   */\n      swap1\n      pop\n        /* \"#utility.yul\":18552:18606   */\n      swap2\n      swap1\n      pop\n      jump\t// out\n        /* \"#utility.yul\":18612:18706   */\n    tag_456:\n      0x00\n        /* \"#utility.yul\":18693:18698   */\n      dup2\n        /* \"#utility.yul\":18689:18691   */\n      0x60\n        /* \"#utility.yul\":18685:18699   */\n      shl\n        /* \"#utility.yul\":18664:18699   */\n      swap1\n      pop\n        /* \"#utility.yul\":18654:18706   */\n      swap2\n      swap1\n      pop\n      jump\t// out\n        /* \"#utility.yul\":18712:18934   */\n    tag_318:\n        /* \"#utility.yul\":18852:18886   */\n      0x53656e646572206973206e6f742055534443204d616e61676572206f72204164\n        /* \"#utility.yul\":18848:18849   */\n      0x00\n        /* \"#utility.yul\":18840:18846   */\n      dup3\n        /* \"#utility.yul\":18836:18850   */\n      add\n        /* \"#utility.yul\":18829:18887   */\n      mstore\n        /* \"#utility.yul\":18921:18926   */\n      0x6d696e0000000000000000000000000000000000000000000000000000000000\n        /* \"#utility.yul\":18916:18918   */\n      0x20\n        /* \"#utility.yul\":18908:18914   */\n      dup3\n        /* \"#utility.yul\":18904:18919   */\n      add\n        /* \"#utility.yul\":18897:18927   */\n      mstore\n        /* \"#utility.yul\":18818:18934   */\n      pop\n      jump\t// out\n        /* \"#utility.yul\":18940:19122   */\n    tag_323:\n        /* \"#utility.yul\":19080:19114   */\n      0x537472696e67733a20686578206c656e67746820696e73756666696369656e74\n        /* \"#utility.yul\":19076:19077   */\n      0x00\n        /* \"#utility.yul\":19068:19074   */\n      dup3\n        /* \"#utility.yul\":19064:19078   */\n      add\n        /* \"#utility.yul\":19057:19115   */\n      mstore\n        /* \"#utility.yul\":19046:19122   */\n      pop\n      jump\t// out\n        /* \"#utility.yul\":19128:19426   */\n    tag_328:\n        /* \"#utility.yul\":19268:19302   */\n      0x6d757374207570646174652074686520555344432062616c616e636520776974\n        /* \"#utility.yul\":19264:19265   */\n      0x00\n        /* \"#utility.yul\":19256:19262   */\n      dup3\n        /* \"#utility.yul\":19252:19266   */\n      add\n        /* \"#utility.yul\":19245:19303   */\n      mstore\n        /* \"#utility.yul\":19337:19371   */\n      0x6820612028706f736974697665206f72206e6567617469766529206e6f6e2d7a\n        /* \"#utility.yul\":19332:19334   */\n      0x20\n        /* \"#utility.yul\":19324:19330   */\n      dup3\n        /* \"#utility.yul\":19320:19335   */\n      add\n        /* \"#utility.yul\":19313:19372   */\n      mstore\n        /* \"#utility.yul\":19406:19418   */\n      0x65726f20616d6f756e7400000000000000000000000000000000000000000000\n        /* \"#utility.yul\":19401:19403   */\n      0x40\n        /* \"#utility.yul\":19393:19399   */\n      dup3\n        /* \"#utility.yul\":19389:19404   */\n      add\n        /* \"#utility.yul\":19382:19419   */\n      mstore\n        /* \"#utility.yul\":19234:19426   */\n      pop\n      jump\t// out\n        /* \"#utility.yul\":19432:19613   */\n    tag_333:\n        /* \"#utility.yul\":19572:19605   */\n      0x5468697320636f6e7472616374206f6e6c792061636365707473205553444300\n        /* \"#utility.yul\":19568:19569   */\n      0x00\n        /* \"#utility.yul\":19560:19566   */\n      dup3\n        /* \"#utility.yul\":19556:19570   */\n      add\n        /* \"#utility.yul\":19549:19606   */\n      mstore\n        /* \"#utility.yul\":19538:19613   */\n      pop\n      jump\t// out\n        /* \"#utility.yul\":19619:19801   */\n    tag_338:\n        /* \"#utility.yul\":19759:19793   */\n      0x63616e6e6f7420646563726561736520555344432062616c616e6365206f6620\n        /* \"#utility.yul\":19755:19756   */\n      0x00\n        /* \"#utility.yul\":19747:19753   */\n      dup3\n        /* \"#utility.yul\":19743:19757   */\n      add\n        /* \"#utility.yul\":19736:19794   */\n      mstore\n        /* \"#utility.yul\":19725:19801   */\n      pop\n      jump\t// out\n        /* \"#utility.yul\":19807:20115   */\n    tag_343:\n        /* \"#utility.yul\":19947:19981   */\n      0x46616c6c6261636b20747269676765726564202d20706c6561736520696e7465\n        /* \"#utility.yul\":19943:19944   */\n      0x00\n        /* \"#utility.yul\":19935:19941   */\n      dup3\n        /* \"#utility.yul\":19931:19945   */\n      add\n        /* \"#utility.yul\":19924:19982   */\n      mstore\n        /* \"#utility.yul\":20016:20050   */\n      0x726163742077697468207468697320636f6e7472616374207669612069742773\n        /* \"#utility.yul\":20011:20013   */\n      0x20\n        /* \"#utility.yul\":20003:20009   */\n      dup3\n        /* \"#utility.yul\":19999:20014   */\n      add\n        /* \"#utility.yul\":19992:20051   */\n      mstore\n        /* \"#utility.yul\":20085:20107   */\n      0x20617661696c61626c652066756e6374696f6e73000000000000000000000000\n        /* \"#utility.yul\":20080:20082   */\n      0x40\n        /* \"#utility.yul\":20072:20078   */\n      dup3\n        /* \"#utility.yul\":20068:20083   */\n      add\n        /* \"#utility.yul\":20061:20108   */\n      mstore\n        /* \"#utility.yul\":19913:20115   */\n      pop\n      jump\t// out\n        /* \"#utility.yul\":20121:20294   */\n    tag_348:\n        /* \"#utility.yul\":20261:20286   */\n      0x416363657373436f6e74726f6c3a206163636f756e7420000000000000000000\n        /* \"#utility.yul\":20257:20258   */\n      0x00\n        /* \"#utility.yul\":20249:20255   */\n      dup3\n        /* \"#utility.yul\":20245:20259   */\n      add\n        /* \"#utility.yul\":20238:20287   */\n      mstore\n        /* \"#utility.yul\":20227:20294   */\n      pop\n      jump\t// out\n        /* \"#utility.yul\":20300:20530   */\n    tag_353:\n        /* \"#utility.yul\":20440:20474   */\n      0x616d6f756e74207472616e73666572726564206d757374206265206120706f73\n        /* \"#utility.yul\":20436:20437   */\n      0x00\n        /* \"#utility.yul\":20428:20434   */\n      dup3\n        /* \"#utility.yul\":20424:20438   */\n      add\n        /* \"#utility.yul\":20417:20475   */\n      mstore\n        /* \"#utility.yul\":20509:20522   */\n      0x69746976652076616c7565000000000000000000000000000000000000000000\n        /* \"#utility.yul\":20504:20506   */\n      0x20\n        /* \"#utility.yul\":20496:20502   */\n      dup3\n        /* \"#utility.yul\":20492:20507   */\n      add\n        /* \"#utility.yul\":20485:20523   */\n      mstore\n        /* \"#utility.yul\":20406:20530   */\n      pop\n      jump\t// out\n        /* \"#utility.yul\":20536:20758   */\n    tag_358:\n        /* \"#utility.yul\":20676:20710   */\n      0x206279206d6f7265207468616e20746865206578697374696e672062616c616e\n        /* \"#utility.yul\":20672:20673   */\n      0x00\n        /* \"#utility.yul\":20664:20670   */\n      dup3\n        /* \"#utility.yul\":20660:20674   */\n      add\n        /* \"#utility.yul\":20653:20711   */\n      mstore\n        /* \"#utility.yul\":20745:20750   */\n      0x6365200000000000000000000000000000000000000000000000000000000000\n        /* \"#utility.yul\":20740:20742   */\n      0x20\n        /* \"#utility.yul\":20732:20738   */\n      dup3\n        /* \"#utility.yul\":20728:20743   */\n      add\n        /* \"#utility.yul\":20721:20751   */\n      mstore\n        /* \"#utility.yul\":20642:20758   */\n      pop\n      jump\t// out\n        /* \"#utility.yul\":20764:20931   */\n    tag_363:\n        /* \"#utility.yul\":20904:20923   */\n      0x206973206d697373696e6720726f6c6520000000000000000000000000000000\n        /* \"#utility.yul\":20900:20901   */\n      0x00\n        /* \"#utility.yul\":20892:20898   */\n      dup3\n        /* \"#utility.yul\":20888:20902   */\n      add\n        /* \"#utility.yul\":20881:20924   */\n      mstore\n        /* \"#utility.yul\":20870:20931   */\n      pop\n      jump\t// out\n        /* \"#utility.yul\":20937:21171   */\n    tag_368:\n        /* \"#utility.yul\":21077:21111   */\n      0x416363657373436f6e74726f6c3a2063616e206f6e6c792072656e6f756e6365\n        /* \"#utility.yul\":21073:21074   */\n      0x00\n        /* \"#utility.yul\":21065:21071   */\n      dup3\n        /* \"#utility.yul\":21061:21075   */\n      add\n        /* \"#utility.yul\":21054:21112   */\n      mstore\n        /* \"#utility.yul\":21146:21163   */\n      0x20726f6c657320666f722073656c660000000000000000000000000000000000\n        /* \"#utility.yul\":21141:21143   */\n      0x20\n        /* \"#utility.yul\":21133:21139   */\n      dup3\n        /* \"#utility.yul\":21129:21144   */\n      add\n        /* \"#utility.yul\":21122:21164   */\n      mstore\n        /* \"#utility.yul\":21043:21171   */\n      pop\n      jump\t// out\n        /* \"#utility.yul\":21177:21299   */\n    tag_236:\n        /* \"#utility.yul\":21250:21274   */\n      tag_473\n        /* \"#utility.yul\":21268:21273   */\n      dup2\n        /* \"#utility.yul\":21250:21274   */\n      tag_284\n      jump\t// in\n    tag_473:\n        /* \"#utility.yul\":21243:21248   */\n      dup2\n        /* \"#utility.yul\":21240:21275   */\n      eq\n        /* \"#utility.yul\":21230:21232   */\n      tag_474\n      jumpi\n        /* \"#utility.yul\":21289:21290   */\n      0x00\n        /* \"#utility.yul\":21286:21287   */\n      dup1\n        /* \"#utility.yul\":21279:21291   */\n      revert\n        /* \"#utility.yul\":21230:21232   */\n    tag_474:\n        /* \"#utility.yul\":21220:21299   */\n      pop\n      jump\t// out\n        /* \"#utility.yul\":21305:21421   */\n    tag_240:\n        /* \"#utility.yul\":21375:21396   */\n      tag_476\n        /* \"#utility.yul\":21390:21395   */\n      dup2\n        /* \"#utility.yul\":21375:21396   */\n      tag_293\n      jump\t// in\n    tag_476:\n        /* \"#utility.yul\":21368:21373   */\n      dup2\n        /* \"#utility.yul\":21365:21397   */\n      eq\n        /* \"#utility.yul\":21355:21357   */\n      tag_477\n      jumpi\n        /* \"#utility.yul\":21411:21412   */\n      0x00\n        /* \"#utility.yul\":21408:21409   */\n      dup1\n        /* \"#utility.yul\":21401:21413   */\n      revert\n        /* \"#utility.yul\":21355:21357   */\n    tag_477:\n        /* \"#utility.yul\":21345:21421   */\n      pop\n      jump\t// out\n        /* \"#utility.yul\":21427:21549   */\n    tag_244:\n        /* \"#utility.yul\":21500:21524   */\n      tag_479\n        /* \"#utility.yul\":21518:21523   */\n      dup2\n        /* \"#utility.yul\":21500:21524   */\n      tag_297\n      jump\t// in\n    tag_479:\n        /* \"#utility.yul\":21493:21498   */\n      dup2\n        /* \"#utility.yul\":21490:21525   */\n      eq\n        /* \"#utility.yul\":21480:21482   */\n      tag_480\n      jumpi\n        /* \"#utility.yul\":21539:21540   */\n      0x00\n        /* \"#utility.yul\":21536:21537   */\n      dup1\n        /* \"#utility.yul\":21529:21541   */\n      revert\n        /* \"#utility.yul\":21480:21482   */\n    tag_480:\n        /* \"#utility.yul\":21470:21549   */\n      pop\n      jump\t// out\n        /* \"#utility.yul\":21555:21675   */\n    tag_248:\n        /* \"#utility.yul\":21627:21650   */\n      tag_482\n        /* \"#utility.yul\":21644:21649   */\n      dup2\n        /* \"#utility.yul\":21627:21650   */\n      tag_438\n      jump\t// in\n    tag_482:\n        /* \"#utility.yul\":21620:21625   */\n      dup2\n        /* \"#utility.yul\":21617:21651   */\n      eq\n        /* \"#utility.yul\":21607:21609   */\n      tag_483\n      jumpi\n        /* \"#utility.yul\":21665:21666   */\n      0x00\n        /* \"#utility.yul\":21662:21663   */\n      dup1\n        /* \"#utility.yul\":21655:21667   */\n      revert\n        /* \"#utility.yul\":21607:21609   */\n    tag_483:\n        /* \"#utility.yul\":21597:21675   */\n      pop\n      jump\t// out\n        /* \"#utility.yul\":21681:21803   */\n    tag_252:\n        /* \"#utility.yul\":21754:21778   */\n      tag_485\n        /* \"#utility.yul\":21772:21777   */\n      dup2\n        /* \"#utility.yul\":21754:21778   */\n      tag_372\n      jump\t// in\n    tag_485:\n        /* \"#utility.yul\":21747:21752   */\n      dup2\n        /* \"#utility.yul\":21744:21779   */\n      eq\n        /* \"#utility.yul\":21734:21736   */\n      tag_486\n      jumpi\n        /* \"#utility.yul\":21793:21794   */\n      0x00\n        /* \"#utility.yul\":21790:21791   */\n      dup1\n        /* \"#utility.yul\":21783:21795   */\n      revert\n        /* \"#utility.yul\":21734:21736   */\n    tag_486:\n        /* \"#utility.yul\":21724:21803   */\n      pop\n      jump\t// out\n\n    auxdata: 0xa26469706673582212206043cbeba14991e2cbd6ec264af23e41268fa285966049b17ea63e9110d5508664736f6c63430008010033\n}\n",
				"bytecode": {
					"linkReferences": {},
					"object": "608060405273e11a86849d99f524cac3e7a0ec1241828e332c62600160006101000a81548173ffffffffffffffffffffffffffffffffffffffff021916908373ffffffffffffffffffffffffffffffffffffffff16021790555034801561006557600080fd5b50611ea1806100756000396000f3fe6080604052600436106100ec5760003560e01c8063532b29131161008a578063a99c68c511610059578063a99c68c51461037e578063bf006f0e146103bb578063d547741f146103e4578063ddb4acd01461040d5761012c565b8063532b2913146102b057806369b49adc146102d957806391d1485414610316578063a217fddf146103535761012c565b80632f2ff15d116100c65780632f2ff15d1461020c57806336568abe14610235578063441b1a441461025e57806345ad5350146102875761012c565b806301ffc9a714610167578063075060cd146101a4578063248a9ca3146101cf5761012c565b3661012c576040517f08c379a000000000000000000000000000000000000000000000000000000000815260040161012390611809565b60405180910390fd5b6040517f08c379a000000000000000000000000000000000000000000000000000000000815260040161015e90611829565b60405180910390fd5b34801561017357600080fd5b5061018e600480360381019061018991906113f7565b610436565b60405161019b9190611751565b60405180910390f35b3480156101b057600080fd5b506101b96104b0565b6040516101c6919061176c565b60405180910390f35b3480156101db57600080fd5b506101f660048036038101906101f19190611392565b6104d4565b604051610203919061176c565b60405180910390f35b34801561021857600080fd5b50610233600480360381019061022e91906113bb565b6104f3565b005b34801561024157600080fd5b5061025c600480360381019061025791906113bb565b61051c565b005b34801561026a57600080fd5b50610285600480360381019061028091906112de565b61059f565b005b34801561029357600080fd5b506102ae60048036038101906102a9919061132d565b610643565b005b3480156102bc57600080fd5b506102d760048036038101906102d2919061132d565b610703565b005b3480156102e557600080fd5b5061030060048036038101906102fb91906112b5565b610911565b60405161030d9190611889565b60405180910390f35b34801561032257600080fd5b5061033d600480360381019061033891906113bb565b61095a565b60405161034a9190611751565b60405180910390f35b34801561035f57600080fd5b506103686109c4565b604051610375919061176c565b60405180910390f35b34801561038a57600080fd5b506103a560048036038101906103a091906112b5565b6109cb565b6040516103b29190611889565b60405180910390f35b3480156103c757600080fd5b506103e260048036038101906103dd919061132d565b6109e3565b005b3480156103f057600080fd5b5061040b600480360381019061040691906113bb565b610b0b565b005b34801561041957600080fd5b50610434600480360381019061042f9190611420565b610b34565b005b60007f7965db0b000000000000000000000000000000000000000000000000000000007bffffffffffffffffffffffffffffffffffffffffffffffffffffffff1916827bffffffffffffffffffffffffffffffffffffffffffffffffffffffff191614806104a957506104a882610c82565b5b9050919050565b7f926813fadcea033cdc5f70af011b14bd62c55b1c6ce86dec0632b00c4eb1756281565b6000806000838152602001908152602001600020600101549050919050565b6104fc826104d4565b61050d81610508610cec565b610cf4565b6105178383610d91565b505050565b610524610cec565b73ffffffffffffffffffffffffffffffffffffffff168173ffffffffffffffffffffffffffffffffffffffff1614610591576040517f08c379a000000000000000000000000000000000000000000000000000000000815260040161058890611869565b60405180910390fd5b61059b8282610e71565b5050565b6105d07f926813fadcea033cdc5f70af011b14bd62c55b1c6ce86dec0632b00c4eb175626105cb610cec565b61095a565b806105eb57506105ea6000801b6105e5610cec565b61095a565b5b61062a576040517f08c379a0000000000000000000000000000000000000000000000000000000008152600401610621906117a9565b60405180910390fd5b6106348382610703565b61063e82826109e3565b505050565b61064d8282610703565b600160009054906101000a900473ffffffffffffffffffffffffffffffffffffffff1673ffffffffffffffffffffffffffffffffffffffff166323b872dd3084846040518463ffffffff1660e01b81526004016106ac9392919061171a565b602060405180830381600087803b1580156106c657600080fd5b505af11580156106da573d6000803e3d6000fd5b505050506040513d601f19601f820116820180604052508101906106fe9190611369565b505050565b6107347f926813fadcea033cdc5f70af011b14bd62c55b1c6ce86dec0632b00c4eb1756261072f610cec565b61095a565b8061074f575061074e6000801b610749610cec565b61095a565b5b61078e576040517f08c379a0000000000000000000000000000000000000000000000000000000008152600401610785906117a9565b60405180910390fd5b600081116107d1576040517f08c379a00000000000000000000000000000000000000000000000000000000081526004016107c8906117e9565b60405180910390fd5b600260008373ffffffffffffffffffffffffffffffffffffffff1673ffffffffffffffffffffffffffffffffffffffff1681526020019081526020016000205481111582600260008573ffffffffffffffffffffffffffffffffffffffff1673ffffffffffffffffffffffffffffffffffffffff1681526020019081526020016000205460405160200161086692919061169e565b604051602081830303815290604052906108b6576040517f08c379a00000000000000000000000000000000000000000000000000000000081526004016108ad9190611787565b60405180910390fd5b5080600260008473ffffffffffffffffffffffffffffffffffffffff1673ffffffffffffffffffffffffffffffffffffffff1681526020019081526020016000206000828254610906919061197b565b925050819055505050565b6000600260008373ffffffffffffffffffffffffffffffffffffffff1673ffffffffffffffffffffffffffffffffffffffff168152602001908152602001600020549050919050565b600080600084815260200190815260200160002060000160008373ffffffffffffffffffffffffffffffffffffffff1673ffffffffffffffffffffffffffffffffffffffff16815260200190815260200160002060009054906101000a900460ff16905092915050565b6000801b81565b60026020528060005260406000206000915090505481565b610a147f926813fadcea033cdc5f70af011b14bd62c55b1c6ce86dec0632b00c4eb17562610a0f610cec565b61095a565b80610a2f5750610a2e6000801b610a29610cec565b61095a565b5b610a6e576040517f08c379a0000000000000000000000000000000000000000000000000000000008152600401610a65906117a9565b60405180910390fd5b60008111610ab1576040517f08c379a0000000000000000000000000000000000000000000000000000000008152600401610aa8906117e9565b60405180910390fd5b80600260008473ffffffffffffffffffffffffffffffffffffffff1673ffffffffffffffffffffffffffffffffffffffff1681526020019081526020016000206000828254610b0091906118cb565b925050819055505050565b610b14826104d4565b610b2581610b20610cec565b610cf4565b610b2f8383610e71565b505050565b60008111610b77576040517f08c379a0000000000000000000000000000000000000000000000000000000008152600401610b6e90611849565b60405180910390fd5b600160009054906101000a900473ffffffffffffffffffffffffffffffffffffffff1673ffffffffffffffffffffffffffffffffffffffff166323b872dd3330846040518463ffffffff1660e01b8152600401610bd69392919061171a565b602060405180830381600087803b158015610bf057600080fd5b505af1158015610c04573d6000803e3d6000fd5b505050506040513d601f19601f82011682018060405250810190610c289190611369565b5080600260003373ffffffffffffffffffffffffffffffffffffffff1673ffffffffffffffffffffffffffffffffffffffff1681526020019081526020016000206000828254610c7891906118cb565b9250508190555050565b60007f01ffc9a7000000000000000000000000000000000000000000000000000000007bffffffffffffffffffffffffffffffffffffffffffffffffffffffff1916827bffffffffffffffffffffffffffffffffffffffffffffffffffffffff1916149050919050565b600033905090565b610cfe828261095a565b610d8d57610d238173ffffffffffffffffffffffffffffffffffffffff166014610f52565b610d318360001c6020610f52565b604051602001610d429291906116e0565b6040516020818303038152906040526040517f08c379a0000000000000000000000000000000000000000000000000000000008152600401610d849190611787565b60405180910390fd5b5050565b610d9b828261095a565b610e6d57600160008084815260200190815260200160002060000160008373ffffffffffffffffffffffffffffffffffffffff1673ffffffffffffffffffffffffffffffffffffffff16815260200190815260200160002060006101000a81548160ff021916908315150217905550610e12610cec565b73ffffffffffffffffffffffffffffffffffffffff168173ffffffffffffffffffffffffffffffffffffffff16837f2f8788117e7eff1d82e926ec794901d17c78024a50270940304540a733656f0d60405160405180910390a45b5050565b610e7b828261095a565b15610f4e57600080600084815260200190815260200160002060000160008373ffffffffffffffffffffffffffffffffffffffff1673ffffffffffffffffffffffffffffffffffffffff16815260200190815260200160002060006101000a81548160ff021916908315150217905550610ef3610cec565b73ffffffffffffffffffffffffffffffffffffffff168173ffffffffffffffffffffffffffffffffffffffff16837ff6391f5c32d9c69d2a47ea670b442974b53935d1edc7fd64eb21e047a839171b60405160405180910390a45b5050565b606060006002836002610f659190611921565b610f6f91906118cb565b67ffffffffffffffff811115610fae577f4e487b7100000000000000000000000000000000000000000000000000000000600052604160045260246000fd5b6040519080825280601f01601f191660200182016040528015610fe05781602001600182028036833780820191505090505b5090507f30000000000000000000000000000000000000000000000000000000000000008160008151811061103e577f4e487b7100000000000000000000000000000000000000000000000000000000600052603260045260246000fd5b60200101907effffffffffffffffffffffffffffffffffffffffffffffffffffffffffffff1916908160001a9053507f7800000000000000000000000000000000000000000000000000000000000000816001815181106110c8577f4e487b7100000000000000000000000000000000000000000000000000000000600052603260045260246000fd5b60200101907effffffffffffffffffffffffffffffffffffffffffffffffffffffffffffff1916908160001a905350600060018460026111089190611921565b61111291906118cb565b90505b60018111156111fe577f3031323334353637383961626364656600000000000000000000000000000000600f86166010811061117a577f4e487b7100000000000000000000000000000000000000000000000000000000600052603260045260246000fd5b1a60f81b8282815181106111b7577f4e487b7100000000000000000000000000000000000000000000000000000000600052603260045260246000fd5b60200101907effffffffffffffffffffffffffffffffffffffffffffffffffffffffffffff1916908160001a905350600485901c9450806111f790611a60565b9050611115565b5060008414611242576040517f08c379a0000000000000000000000000000000000000000000000000000000008152600401611239906117c9565b60405180910390fd5b8091505092915050565b60008135905061125b81611df8565b92915050565b60008151905061127081611e0f565b92915050565b60008135905061128581611e26565b92915050565b60008135905061129a81611e3d565b92915050565b6000813590506112af81611e54565b92915050565b6000602082840312156112c757600080fd5b60006112d58482850161124c565b91505092915050565b6000806000606084860312156112f357600080fd5b60006113018682870161124c565b93505060206113128682870161124c565b9250506040611323868287016112a0565b9150509250925092565b6000806040838503121561134057600080fd5b600061134e8582860161124c565b925050602061135f858286016112a0565b9150509250929050565b60006020828403121561137b57600080fd5b600061138984828501611261565b91505092915050565b6000602082840312156113a457600080fd5b60006113b284828501611276565b91505092915050565b600080604083850312156113ce57600080fd5b60006113dc85828601611276565b92505060206113ed8582860161124c565b9150509250929050565b60006020828403121561140957600080fd5b60006114178482850161128b565b91505092915050565b60006020828403121561143257600080fd5b6000611440848285016112a0565b91505092915050565b611452816119af565b82525050565b611469611464826119af565b611a8a565b82525050565b611478816119c1565b82525050565b611487816119cd565b82525050565b6000611498826118a4565b6114a281856118af565b93506114b2818560208601611a2d565b6114bb81611ae7565b840191505092915050565b60006114d1826118a4565b6114db81856118c0565b93506114eb818560208601611a2d565b80840191505092915050565b60006115046023836118af565b915061150f82611b05565b604082019050919050565b60006115276020836118af565b915061153282611b54565b602082019050919050565b600061154a604a836118af565b915061155582611b7d565b606082019050919050565b600061156d601f836118af565b915061157882611bf2565b602082019050919050565b60006115906020836118c0565b915061159b82611c1b565b602082019050919050565b60006115b36054836118af565b91506115be82611c44565b606082019050919050565b60006115d66017836118c0565b91506115e182611cb9565b601782019050919050565b60006115f9602b836118af565b915061160482611ce2565b604082019050919050565b600061161c6023836118c0565b915061162782611d31565b602382019050919050565b600061163f6011836118c0565b915061164a82611d80565b601182019050919050565b6000611662602f836118af565b915061166d82611da9565b604082019050919050565b61168181611a23565b82525050565b61169861169382611a23565b611aae565b82525050565b60006116a982611583565b91506116b58285611458565b6014820191506116c48261160f565b91506116d08284611687565b6020820191508190509392505050565b60006116eb826115c9565b91506116f782856114c6565b915061170282611632565b915061170e82846114c6565b91508190509392505050565b600060608201905061172f6000830186611449565b61173c6020830185611449565b6117496040830184611678565b949350505050565b6000602082019050611766600083018461146f565b92915050565b6000602082019050611781600083018461147e565b92915050565b600060208201905081810360008301526117a1818461148d565b905092915050565b600060208201905081810360008301526117c2816114f7565b9050919050565b600060208201905081810360008301526117e28161151a565b9050919050565b600060208201905081810360008301526118028161153d565b9050919050565b6000602082019050818103600083015261182281611560565b9050919050565b60006020820190508181036000830152611842816115a6565b9050919050565b60006020820190508181036000830152611862816115ec565b9050919050565b6000602082019050818103600083015261188281611655565b9050919050565b600060208201905061189e6000830184611678565b92915050565b600081519050919050565b600082825260208201905092915050565b600081905092915050565b60006118d682611a23565b91506118e183611a23565b9250827fffffffffffffffffffffffffffffffffffffffffffffffffffffffffffffffff0382111561191657611915611ab8565b5b828201905092915050565b600061192c82611a23565b915061193783611a23565b9250817fffffffffffffffffffffffffffffffffffffffffffffffffffffffffffffffff04831182151516156119705761196f611ab8565b5b828202905092915050565b600061198682611a23565b915061199183611a23565b9250828210156119a4576119a3611ab8565b5b828203905092915050565b60006119ba82611a03565b9050919050565b60008115159050919050565b6000819050919050565b60007fffffffff0000000000000000000000000000000000000000000000000000000082169050919050565b600073ffffffffffffffffffffffffffffffffffffffff82169050919050565b6000819050919050565b60005b83811015611a4b578082015181840152602081019050611a30565b83811115611a5a576000848401525b50505050565b6000611a6b82611a23565b91506000821415611a7f57611a7e611ab8565b5b600182039050919050565b6000611a9582611a9c565b9050919050565b6000611aa782611af8565b9050919050565b6000819050919050565b7f4e487b7100000000000000000000000000000000000000000000000000000000600052601160045260246000fd5b6000601f19601f8301169050919050565b60008160601b9050919050565b7f53656e646572206973206e6f742055534443204d616e61676572206f7220416460008201527f6d696e0000000000000000000000000000000000000000000000000000000000602082015250565b7f537472696e67733a20686578206c656e67746820696e73756666696369656e74600082015250565b7f6d757374207570646174652074686520555344432062616c616e63652077697460008201527f6820612028706f736974697665206f72206e6567617469766529206e6f6e2d7a60208201527f65726f20616d6f756e7400000000000000000000000000000000000000000000604082015250565b7f5468697320636f6e7472616374206f6e6c792061636365707473205553444300600082015250565b7f63616e6e6f7420646563726561736520555344432062616c616e6365206f6620600082015250565b7f46616c6c6261636b20747269676765726564202d20706c6561736520696e746560008201527f726163742077697468207468697320636f6e747261637420766961206974277360208201527f20617661696c61626c652066756e6374696f6e73000000000000000000000000604082015250565b7f416363657373436f6e74726f6c3a206163636f756e7420000000000000000000600082015250565b7f616d6f756e74207472616e73666572726564206d757374206265206120706f7360008201527f69746976652076616c7565000000000000000000000000000000000000000000602082015250565b7f206279206d6f7265207468616e20746865206578697374696e672062616c616e60008201527f6365200000000000000000000000000000000000000000000000000000000000602082015250565b7f206973206d697373696e6720726f6c6520000000000000000000000000000000600082015250565b7f416363657373436f6e74726f6c3a2063616e206f6e6c792072656e6f756e636560008201527f20726f6c657320666f722073656c660000000000000000000000000000000000602082015250565b611e01816119af565b8114611e0c57600080fd5b50565b611e18816119c1565b8114611e2357600080fd5b50565b611e2f816119cd565b8114611e3a57600080fd5b50565b611e46816119d7565b8114611e5157600080fd5b50565b611e5d81611a23565b8114611e6857600080fd5b5056fea26469706673582212206043cbeba14991e2cbd6ec264af23e41268fa285966049b17ea63e9110d5508664736f6c63430008010033",
					"opcodes": "PUSH1 0x80 PUSH1 0x40 MSTORE PUSH20 0xE11A86849D99F524CAC3E7A0EC1241828E332C62 PUSH1 0x1 PUSH1 0x0 PUSH2 0x100 EXP DUP2 SLOAD DUP2 PUSH20 0xFFFFFFFFFFFFFFFFFFFFFFFFFFFFFFFFFFFFFFFF MUL NOT AND SWAP1 DUP4 PUSH20 0xFFFFFFFFFFFFFFFFFFFFFFFFFFFFFFFFFFFFFFFF AND MUL OR SWAP1 SSTORE POP CALLVALUE DUP1 ISZERO PUSH2 0x65 JUMPI PUSH1 0x0 DUP1 REVERT JUMPDEST POP PUSH2 0x1EA1 DUP1 PUSH2 0x75 PUSH1 0x0 CODECOPY PUSH1 0x0 RETURN INVALID PUSH1 0x80 PUSH1 0x40 MSTORE PUSH1 0x4 CALLDATASIZE LT PUSH2 0xEC JUMPI PUSH1 0x0 CALLDATALOAD PUSH1 0xE0 SHR DUP1 PUSH4 0x532B2913 GT PUSH2 0x8A JUMPI DUP1 PUSH4 0xA99C68C5 GT PUSH2 0x59 JUMPI DUP1 PUSH4 0xA99C68C5 EQ PUSH2 0x37E JUMPI DUP1 PUSH4 0xBF006F0E EQ PUSH2 0x3BB JUMPI DUP1 PUSH4 0xD547741F EQ PUSH2 0x3E4 JUMPI DUP1 PUSH4 0xDDB4ACD0 EQ PUSH2 0x40D JUMPI PUSH2 0x12C JUMP JUMPDEST DUP1 PUSH4 0x532B2913 EQ PUSH2 0x2B0 JUMPI DUP1 PUSH4 0x69B49ADC EQ PUSH2 0x2D9 JUMPI DUP1 PUSH4 0x91D14854 EQ PUSH2 0x316 JUMPI DUP1 PUSH4 0xA217FDDF EQ PUSH2 0x353 JUMPI PUSH2 0x12C JUMP JUMPDEST DUP1 PUSH4 0x2F2FF15D GT PUSH2 0xC6 JUMPI DUP1 PUSH4 0x2F2FF15D EQ PUSH2 0x20C JUMPI DUP1 PUSH4 0x36568ABE EQ PUSH2 0x235 JUMPI DUP1 PUSH4 0x441B1A44 EQ PUSH2 0x25E JUMPI DUP1 PUSH4 0x45AD5350 EQ PUSH2 0x287 JUMPI PUSH2 0x12C JUMP JUMPDEST DUP1 PUSH4 0x1FFC9A7 EQ PUSH2 0x167 JUMPI DUP1 PUSH4 0x75060CD EQ PUSH2 0x1A4 JUMPI DUP1 PUSH4 0x248A9CA3 EQ PUSH2 0x1CF JUMPI PUSH2 0x12C JUMP JUMPDEST CALLDATASIZE PUSH2 0x12C JUMPI PUSH1 0x40 MLOAD PUSH32 0x8C379A000000000000000000000000000000000000000000000000000000000 DUP2 MSTORE PUSH1 0x4 ADD PUSH2 0x123 SWAP1 PUSH2 0x1809 JUMP JUMPDEST PUSH1 0x40 MLOAD DUP1 SWAP2 SUB SWAP1 REVERT JUMPDEST PUSH1 0x40 MLOAD PUSH32 0x8C379A000000000000000000000000000000000000000000000000000000000 DUP2 MSTORE PUSH1 0x4 ADD PUSH2 0x15E SWAP1 PUSH2 0x1829 JUMP JUMPDEST PUSH1 0x40 MLOAD DUP1 SWAP2 SUB SWAP1 REVERT JUMPDEST CALLVALUE DUP1 ISZERO PUSH2 0x173 JUMPI PUSH1 0x0 DUP1 REVERT JUMPDEST POP PUSH2 0x18E PUSH1 0x4 DUP1 CALLDATASIZE SUB DUP2 ADD SWAP1 PUSH2 0x189 SWAP2 SWAP1 PUSH2 0x13F7 JUMP JUMPDEST PUSH2 0x436 JUMP JUMPDEST PUSH1 0x40 MLOAD PUSH2 0x19B SWAP2 SWAP1 PUSH2 0x1751 JUMP JUMPDEST PUSH1 0x40 MLOAD DUP1 SWAP2 SUB SWAP1 RETURN JUMPDEST CALLVALUE DUP1 ISZERO PUSH2 0x1B0 JUMPI PUSH1 0x0 DUP1 REVERT JUMPDEST POP PUSH2 0x1B9 PUSH2 0x4B0 JUMP JUMPDEST PUSH1 0x40 MLOAD PUSH2 0x1C6 SWAP2 SWAP1 PUSH2 0x176C JUMP JUMPDEST PUSH1 0x40 MLOAD DUP1 SWAP2 SUB SWAP1 RETURN JUMPDEST CALLVALUE DUP1 ISZERO PUSH2 0x1DB JUMPI PUSH1 0x0 DUP1 REVERT JUMPDEST POP PUSH2 0x1F6 PUSH1 0x4 DUP1 CALLDATASIZE SUB DUP2 ADD SWAP1 PUSH2 0x1F1 SWAP2 SWAP1 PUSH2 0x1392 JUMP JUMPDEST PUSH2 0x4D4 JUMP JUMPDEST PUSH1 0x40 MLOAD PUSH2 0x203 SWAP2 SWAP1 PUSH2 0x176C JUMP JUMPDEST PUSH1 0x40 MLOAD DUP1 SWAP2 SUB SWAP1 RETURN JUMPDEST CALLVALUE DUP1 ISZERO PUSH2 0x218 JUMPI PUSH1 0x0 DUP1 REVERT JUMPDEST POP PUSH2 0x233 PUSH1 0x4 DUP1 CALLDATASIZE SUB DUP2 ADD SWAP1 PUSH2 0x22E SWAP2 SWAP1 PUSH2 0x13BB JUMP JUMPDEST PUSH2 0x4F3 JUMP JUMPDEST STOP JUMPDEST CALLVALUE DUP1 ISZERO PUSH2 0x241 JUMPI PUSH1 0x0 DUP1 REVERT JUMPDEST POP PUSH2 0x25C PUSH1 0x4 DUP1 CALLDATASIZE SUB DUP2 ADD SWAP1 PUSH2 0x257 SWAP2 SWAP1 PUSH2 0x13BB JUMP JUMPDEST PUSH2 0x51C JUMP JUMPDEST STOP JUMPDEST CALLVALUE DUP1 ISZERO PUSH2 0x26A JUMPI PUSH1 0x0 DUP1 REVERT JUMPDEST POP PUSH2 0x285 PUSH1 0x4 DUP1 CALLDATASIZE SUB DUP2 ADD SWAP1 PUSH2 0x280 SWAP2 SWAP1 PUSH2 0x12DE JUMP JUMPDEST PUSH2 0x59F JUMP JUMPDEST STOP JUMPDEST CALLVALUE DUP1 ISZERO PUSH2 0x293 JUMPI PUSH1 0x0 DUP1 REVERT JUMPDEST POP PUSH2 0x2AE PUSH1 0x4 DUP1 CALLDATASIZE SUB DUP2 ADD SWAP1 PUSH2 0x2A9 SWAP2 SWAP1 PUSH2 0x132D JUMP JUMPDEST PUSH2 0x643 JUMP JUMPDEST STOP JUMPDEST CALLVALUE DUP1 ISZERO PUSH2 0x2BC JUMPI PUSH1 0x0 DUP1 REVERT JUMPDEST POP PUSH2 0x2D7 PUSH1 0x4 DUP1 CALLDATASIZE SUB DUP2 ADD SWAP1 PUSH2 0x2D2 SWAP2 SWAP1 PUSH2 0x132D JUMP JUMPDEST PUSH2 0x703 JUMP JUMPDEST STOP JUMPDEST CALLVALUE DUP1 ISZERO PUSH2 0x2E5 JUMPI PUSH1 0x0 DUP1 REVERT JUMPDEST POP PUSH2 0x300 PUSH1 0x4 DUP1 CALLDATASIZE SUB DUP2 ADD SWAP1 PUSH2 0x2FB SWAP2 SWAP1 PUSH2 0x12B5 JUMP JUMPDEST PUSH2 0x911 JUMP JUMPDEST PUSH1 0x40 MLOAD PUSH2 0x30D SWAP2 SWAP1 PUSH2 0x1889 JUMP JUMPDEST PUSH1 0x40 MLOAD DUP1 SWAP2 SUB SWAP1 RETURN JUMPDEST CALLVALUE DUP1 ISZERO PUSH2 0x322 JUMPI PUSH1 0x0 DUP1 REVERT JUMPDEST POP PUSH2 0x33D PUSH1 0x4 DUP1 CALLDATASIZE SUB DUP2 ADD SWAP1 PUSH2 0x338 SWAP2 SWAP1 PUSH2 0x13BB JUMP JUMPDEST PUSH2 0x95A JUMP JUMPDEST PUSH1 0x40 MLOAD PUSH2 0x34A SWAP2 SWAP1 PUSH2 0x1751 JUMP JUMPDEST PUSH1 0x40 MLOAD DUP1 SWAP2 SUB SWAP1 RETURN JUMPDEST CALLVALUE DUP1 ISZERO PUSH2 0x35F JUMPI PUSH1 0x0 DUP1 REVERT JUMPDEST POP PUSH2 0x368 PUSH2 0x9C4 JUMP JUMPDEST PUSH1 0x40 MLOAD PUSH2 0x375 SWAP2 SWAP1 PUSH2 0x176C JUMP JUMPDEST PUSH1 0x40 MLOAD DUP1 SWAP2 SUB SWAP1 RETURN JUMPDEST CALLVALUE DUP1 ISZERO PUSH2 0x38A JUMPI PUSH1 0x0 DUP1 REVERT JUMPDEST POP PUSH2 0x3A5 PUSH1 0x4 DUP1 CALLDATASIZE SUB DUP2 ADD SWAP1 PUSH2 0x3A0 SWAP2 SWAP1 PUSH2 0x12B5 JUMP JUMPDEST PUSH2 0x9CB JUMP JUMPDEST PUSH1 0x40 MLOAD PUSH2 0x3B2 SWAP2 SWAP1 PUSH2 0x1889 JUMP JUMPDEST PUSH1 0x40 MLOAD DUP1 SWAP2 SUB SWAP1 RETURN JUMPDEST CALLVALUE DUP1 ISZERO PUSH2 0x3C7 JUMPI PUSH1 0x0 DUP1 REVERT JUMPDEST POP PUSH2 0x3E2 PUSH1 0x4 DUP1 CALLDATASIZE SUB DUP2 ADD SWAP1 PUSH2 0x3DD SWAP2 SWAP1 PUSH2 0x132D JUMP JUMPDEST PUSH2 0x9E3 JUMP JUMPDEST STOP JUMPDEST CALLVALUE DUP1 ISZERO PUSH2 0x3F0 JUMPI PUSH1 0x0 DUP1 REVERT JUMPDEST POP PUSH2 0x40B PUSH1 0x4 DUP1 CALLDATASIZE SUB DUP2 ADD SWAP1 PUSH2 0x406 SWAP2 SWAP1 PUSH2 0x13BB JUMP JUMPDEST PUSH2 0xB0B JUMP JUMPDEST STOP JUMPDEST CALLVALUE DUP1 ISZERO PUSH2 0x419 JUMPI PUSH1 0x0 DUP1 REVERT JUMPDEST POP PUSH2 0x434 PUSH1 0x4 DUP1 CALLDATASIZE SUB DUP2 ADD SWAP1 PUSH2 0x42F SWAP2 SWAP1 PUSH2 0x1420 JUMP JUMPDEST PUSH2 0xB34 JUMP JUMPDEST STOP JUMPDEST PUSH1 0x0 PUSH32 0x7965DB0B00000000000000000000000000000000000000000000000000000000 PUSH28 0xFFFFFFFFFFFFFFFFFFFFFFFFFFFFFFFFFFFFFFFFFFFFFFFFFFFFFFFF NOT AND DUP3 PUSH28 0xFFFFFFFFFFFFFFFFFFFFFFFFFFFFFFFFFFFFFFFFFFFFFFFFFFFFFFFF NOT AND EQ DUP1 PUSH2 0x4A9 JUMPI POP PUSH2 0x4A8 DUP3 PUSH2 0xC82 JUMP JUMPDEST JUMPDEST SWAP1 POP SWAP2 SWAP1 POP JUMP JUMPDEST PUSH32 0x926813FADCEA033CDC5F70AF011B14BD62C55B1C6CE86DEC0632B00C4EB17562 DUP2 JUMP JUMPDEST PUSH1 0x0 DUP1 PUSH1 0x0 DUP4 DUP2 MSTORE PUSH1 0x20 ADD SWAP1 DUP2 MSTORE PUSH1 0x20 ADD PUSH1 0x0 KECCAK256 PUSH1 0x1 ADD SLOAD SWAP1 POP SWAP2 SWAP1 POP JUMP JUMPDEST PUSH2 0x4FC DUP3 PUSH2 0x4D4 JUMP JUMPDEST PUSH2 0x50D DUP2 PUSH2 0x508 PUSH2 0xCEC JUMP JUMPDEST PUSH2 0xCF4 JUMP JUMPDEST PUSH2 0x517 DUP4 DUP4 PUSH2 0xD91 JUMP JUMPDEST POP POP POP JUMP JUMPDEST PUSH2 0x524 PUSH2 0xCEC JUMP JUMPDEST PUSH20 0xFFFFFFFFFFFFFFFFFFFFFFFFFFFFFFFFFFFFFFFF AND DUP2 PUSH20 0xFFFFFFFFFFFFFFFFFFFFFFFFFFFFFFFFFFFFFFFF AND EQ PUSH2 0x591 JUMPI PUSH1 0x40 MLOAD PUSH32 0x8C379A000000000000000000000000000000000000000000000000000000000 DUP2 MSTORE PUSH1 0x4 ADD PUSH2 0x588 SWAP1 PUSH2 0x1869 JUMP JUMPDEST PUSH1 0x40 MLOAD DUP1 SWAP2 SUB SWAP1 REVERT JUMPDEST PUSH2 0x59B DUP3 DUP3 PUSH2 0xE71 JUMP JUMPDEST POP POP JUMP JUMPDEST PUSH2 0x5D0 PUSH32 0x926813FADCEA033CDC5F70AF011B14BD62C55B1C6CE86DEC0632B00C4EB17562 PUSH2 0x5CB PUSH2 0xCEC JUMP JUMPDEST PUSH2 0x95A JUMP JUMPDEST DUP1 PUSH2 0x5EB JUMPI POP PUSH2 0x5EA PUSH1 0x0 DUP1 SHL PUSH2 0x5E5 PUSH2 0xCEC JUMP JUMPDEST PUSH2 0x95A JUMP JUMPDEST JUMPDEST PUSH2 0x62A JUMPI PUSH1 0x40 MLOAD PUSH32 0x8C379A000000000000000000000000000000000000000000000000000000000 DUP2 MSTORE PUSH1 0x4 ADD PUSH2 0x621 SWAP1 PUSH2 0x17A9 JUMP JUMPDEST PUSH1 0x40 MLOAD DUP1 SWAP2 SUB SWAP1 REVERT JUMPDEST PUSH2 0x634 DUP4 DUP3 PUSH2 0x703 JUMP JUMPDEST PUSH2 0x63E DUP3 DUP3 PUSH2 0x9E3 JUMP JUMPDEST POP POP POP JUMP JUMPDEST PUSH2 0x64D DUP3 DUP3 PUSH2 0x703 JUMP JUMPDEST PUSH1 0x1 PUSH1 0x0 SWAP1 SLOAD SWAP1 PUSH2 0x100 EXP SWAP1 DIV PUSH20 0xFFFFFFFFFFFFFFFFFFFFFFFFFFFFFFFFFFFFFFFF AND PUSH20 0xFFFFFFFFFFFFFFFFFFFFFFFFFFFFFFFFFFFFFFFF AND PUSH4 0x23B872DD ADDRESS DUP5 DUP5 PUSH1 0x40 MLOAD DUP5 PUSH4 0xFFFFFFFF AND PUSH1 0xE0 SHL DUP2 MSTORE PUSH1 0x4 ADD PUSH2 0x6AC SWAP4 SWAP3 SWAP2 SWAP1 PUSH2 0x171A JUMP JUMPDEST PUSH1 0x20 PUSH1 0x40 MLOAD DUP1 DUP4 SUB DUP2 PUSH1 0x0 DUP8 DUP1 EXTCODESIZE ISZERO DUP1 ISZERO PUSH2 0x6C6 JUMPI PUSH1 0x0 DUP1 REVERT JUMPDEST POP GAS CALL ISZERO DUP1 ISZERO PUSH2 0x6DA JUMPI RETURNDATASIZE PUSH1 0x0 DUP1 RETURNDATACOPY RETURNDATASIZE PUSH1 0x0 REVERT JUMPDEST POP POP POP POP PUSH1 0x40 MLOAD RETURNDATASIZE PUSH1 0x1F NOT PUSH1 0x1F DUP3 ADD AND DUP3 ADD DUP1 PUSH1 0x40 MSTORE POP DUP2 ADD SWAP1 PUSH2 0x6FE SWAP2 SWAP1 PUSH2 0x1369 JUMP JUMPDEST POP POP POP JUMP JUMPDEST PUSH2 0x734 PUSH32 0x926813FADCEA033CDC5F70AF011B14BD62C55B1C6CE86DEC0632B00C4EB17562 PUSH2 0x72F PUSH2 0xCEC JUMP JUMPDEST PUSH2 0x95A JUMP JUMPDEST DUP1 PUSH2 0x74F JUMPI POP PUSH2 0x74E PUSH1 0x0 DUP1 SHL PUSH2 0x749 PUSH2 0xCEC JUMP JUMPDEST PUSH2 0x95A JUMP JUMPDEST JUMPDEST PUSH2 0x78E JUMPI PUSH1 0x40 MLOAD PUSH32 0x8C379A000000000000000000000000000000000000000000000000000000000 DUP2 MSTORE PUSH1 0x4 ADD PUSH2 0x785 SWAP1 PUSH2 0x17A9 JUMP JUMPDEST PUSH1 0x40 MLOAD DUP1 SWAP2 SUB SWAP1 REVERT JUMPDEST PUSH1 0x0 DUP2 GT PUSH2 0x7D1 JUMPI PUSH1 0x40 MLOAD PUSH32 0x8C379A000000000000000000000000000000000000000000000000000000000 DUP2 MSTORE PUSH1 0x4 ADD PUSH2 0x7C8 SWAP1 PUSH2 0x17E9 JUMP JUMPDEST PUSH1 0x40 MLOAD DUP1 SWAP2 SUB SWAP1 REVERT JUMPDEST PUSH1 0x2 PUSH1 0x0 DUP4 PUSH20 0xFFFFFFFFFFFFFFFFFFFFFFFFFFFFFFFFFFFFFFFF AND PUSH20 0xFFFFFFFFFFFFFFFFFFFFFFFFFFFFFFFFFFFFFFFF AND DUP2 MSTORE PUSH1 0x20 ADD SWAP1 DUP2 MSTORE PUSH1 0x20 ADD PUSH1 0x0 KECCAK256 SLOAD DUP2 GT ISZERO DUP3 PUSH1 0x2 PUSH1 0x0 DUP6 PUSH20 0xFFFFFFFFFFFFFFFFFFFFFFFFFFFFFFFFFFFFFFFF AND PUSH20 0xFFFFFFFFFFFFFFFFFFFFFFFFFFFFFFFFFFFFFFFF AND DUP2 MSTORE PUSH1 0x20 ADD SWAP1 DUP2 MSTORE PUSH1 0x20 ADD PUSH1 0x0 KECCAK256 SLOAD PUSH1 0x40 MLOAD PUSH1 0x20 ADD PUSH2 0x866 SWAP3 SWAP2 SWAP1 PUSH2 0x169E JUMP JUMPDEST PUSH1 0x40 MLOAD PUSH1 0x20 DUP2 DUP4 SUB SUB DUP2 MSTORE SWAP1 PUSH1 0x40 MSTORE SWAP1 PUSH2 0x8B6 JUMPI PUSH1 0x40 MLOAD PUSH32 0x8C379A000000000000000000000000000000000000000000000000000000000 DUP2 MSTORE PUSH1 0x4 ADD PUSH2 0x8AD SWAP2 SWAP1 PUSH2 0x1787 JUMP JUMPDEST PUSH1 0x40 MLOAD DUP1 SWAP2 SUB SWAP1 REVERT JUMPDEST POP DUP1 PUSH1 0x2 PUSH1 0x0 DUP5 PUSH20 0xFFFFFFFFFFFFFFFFFFFFFFFFFFFFFFFFFFFFFFFF AND PUSH20 0xFFFFFFFFFFFFFFFFFFFFFFFFFFFFFFFFFFFFFFFF AND DUP2 MSTORE PUSH1 0x20 ADD SWAP1 DUP2 MSTORE PUSH1 0x20 ADD PUSH1 0x0 KECCAK256 PUSH1 0x0 DUP3 DUP3 SLOAD PUSH2 0x906 SWAP2 SWAP1 PUSH2 0x197B JUMP JUMPDEST SWAP3 POP POP DUP2 SWAP1 SSTORE POP POP POP JUMP JUMPDEST PUSH1 0x0 PUSH1 0x2 PUSH1 0x0 DUP4 PUSH20 0xFFFFFFFFFFFFFFFFFFFFFFFFFFFFFFFFFFFFFFFF AND PUSH20 0xFFFFFFFFFFFFFFFFFFFFFFFFFFFFFFFFFFFFFFFF AND DUP2 MSTORE PUSH1 0x20 ADD SWAP1 DUP2 MSTORE PUSH1 0x20 ADD PUSH1 0x0 KECCAK256 SLOAD SWAP1 POP SWAP2 SWAP1 POP JUMP JUMPDEST PUSH1 0x0 DUP1 PUSH1 0x0 DUP5 DUP2 MSTORE PUSH1 0x20 ADD SWAP1 DUP2 MSTORE PUSH1 0x20 ADD PUSH1 0x0 KECCAK256 PUSH1 0x0 ADD PUSH1 0x0 DUP4 PUSH20 0xFFFFFFFFFFFFFFFFFFFFFFFFFFFFFFFFFFFFFFFF AND PUSH20 0xFFFFFFFFFFFFFFFFFFFFFFFFFFFFFFFFFFFFFFFF AND DUP2 MSTORE PUSH1 0x20 ADD SWAP1 DUP2 MSTORE PUSH1 0x20 ADD PUSH1 0x0 KECCAK256 PUSH1 0x0 SWAP1 SLOAD SWAP1 PUSH2 0x100 EXP SWAP1 DIV PUSH1 0xFF AND SWAP1 POP SWAP3 SWAP2 POP POP JUMP JUMPDEST PUSH1 0x0 DUP1 SHL DUP2 JUMP JUMPDEST PUSH1 0x2 PUSH1 0x20 MSTORE DUP1 PUSH1 0x0 MSTORE PUSH1 0x40 PUSH1 0x0 KECCAK256 PUSH1 0x0 SWAP2 POP SWAP1 POP SLOAD DUP2 JUMP JUMPDEST PUSH2 0xA14 PUSH32 0x926813FADCEA033CDC5F70AF011B14BD62C55B1C6CE86DEC0632B00C4EB17562 PUSH2 0xA0F PUSH2 0xCEC JUMP JUMPDEST PUSH2 0x95A JUMP JUMPDEST DUP1 PUSH2 0xA2F JUMPI POP PUSH2 0xA2E PUSH1 0x0 DUP1 SHL PUSH2 0xA29 PUSH2 0xCEC JUMP JUMPDEST PUSH2 0x95A JUMP JUMPDEST JUMPDEST PUSH2 0xA6E JUMPI PUSH1 0x40 MLOAD PUSH32 0x8C379A000000000000000000000000000000000000000000000000000000000 DUP2 MSTORE PUSH1 0x4 ADD PUSH2 0xA65 SWAP1 PUSH2 0x17A9 JUMP JUMPDEST PUSH1 0x40 MLOAD DUP1 SWAP2 SUB SWAP1 REVERT JUMPDEST PUSH1 0x0 DUP2 GT PUSH2 0xAB1 JUMPI PUSH1 0x40 MLOAD PUSH32 0x8C379A000000000000000000000000000000000000000000000000000000000 DUP2 MSTORE PUSH1 0x4 ADD PUSH2 0xAA8 SWAP1 PUSH2 0x17E9 JUMP JUMPDEST PUSH1 0x40 MLOAD DUP1 SWAP2 SUB SWAP1 REVERT JUMPDEST DUP1 PUSH1 0x2 PUSH1 0x0 DUP5 PUSH20 0xFFFFFFFFFFFFFFFFFFFFFFFFFFFFFFFFFFFFFFFF AND PUSH20 0xFFFFFFFFFFFFFFFFFFFFFFFFFFFFFFFFFFFFFFFF AND DUP2 MSTORE PUSH1 0x20 ADD SWAP1 DUP2 MSTORE PUSH1 0x20 ADD PUSH1 0x0 KECCAK256 PUSH1 0x0 DUP3 DUP3 SLOAD PUSH2 0xB00 SWAP2 SWAP1 PUSH2 0x18CB JUMP JUMPDEST SWAP3 POP POP DUP2 SWAP1 SSTORE POP POP POP JUMP JUMPDEST PUSH2 0xB14 DUP3 PUSH2 0x4D4 JUMP JUMPDEST PUSH2 0xB25 DUP2 PUSH2 0xB20 PUSH2 0xCEC JUMP JUMPDEST PUSH2 0xCF4 JUMP JUMPDEST PUSH2 0xB2F DUP4 DUP4 PUSH2 0xE71 JUMP JUMPDEST POP POP POP JUMP JUMPDEST PUSH1 0x0 DUP2 GT PUSH2 0xB77 JUMPI PUSH1 0x40 MLOAD PUSH32 0x8C379A000000000000000000000000000000000000000000000000000000000 DUP2 MSTORE PUSH1 0x4 ADD PUSH2 0xB6E SWAP1 PUSH2 0x1849 JUMP JUMPDEST PUSH1 0x40 MLOAD DUP1 SWAP2 SUB SWAP1 REVERT JUMPDEST PUSH1 0x1 PUSH1 0x0 SWAP1 SLOAD SWAP1 PUSH2 0x100 EXP SWAP1 DIV PUSH20 0xFFFFFFFFFFFFFFFFFFFFFFFFFFFFFFFFFFFFFFFF AND PUSH20 0xFFFFFFFFFFFFFFFFFFFFFFFFFFFFFFFFFFFFFFFF AND PUSH4 0x23B872DD CALLER ADDRESS DUP5 PUSH1 0x40 MLOAD DUP5 PUSH4 0xFFFFFFFF AND PUSH1 0xE0 SHL DUP2 MSTORE PUSH1 0x4 ADD PUSH2 0xBD6 SWAP4 SWAP3 SWAP2 SWAP1 PUSH2 0x171A JUMP JUMPDEST PUSH1 0x20 PUSH1 0x40 MLOAD DUP1 DUP4 SUB DUP2 PUSH1 0x0 DUP8 DUP1 EXTCODESIZE ISZERO DUP1 ISZERO PUSH2 0xBF0 JUMPI PUSH1 0x0 DUP1 REVERT JUMPDEST POP GAS CALL ISZERO DUP1 ISZERO PUSH2 0xC04 JUMPI RETURNDATASIZE PUSH1 0x0 DUP1 RETURNDATACOPY RETURNDATASIZE PUSH1 0x0 REVERT JUMPDEST POP POP POP POP PUSH1 0x40 MLOAD RETURNDATASIZE PUSH1 0x1F NOT PUSH1 0x1F DUP3 ADD AND DUP3 ADD DUP1 PUSH1 0x40 MSTORE POP DUP2 ADD SWAP1 PUSH2 0xC28 SWAP2 SWAP1 PUSH2 0x1369 JUMP JUMPDEST POP DUP1 PUSH1 0x2 PUSH1 0x0 CALLER PUSH20 0xFFFFFFFFFFFFFFFFFFFFFFFFFFFFFFFFFFFFFFFF AND PUSH20 0xFFFFFFFFFFFFFFFFFFFFFFFFFFFFFFFFFFFFFFFF AND DUP2 MSTORE PUSH1 0x20 ADD SWAP1 DUP2 MSTORE PUSH1 0x20 ADD PUSH1 0x0 KECCAK256 PUSH1 0x0 DUP3 DUP3 SLOAD PUSH2 0xC78 SWAP2 SWAP1 PUSH2 0x18CB JUMP JUMPDEST SWAP3 POP POP DUP2 SWAP1 SSTORE POP POP JUMP JUMPDEST PUSH1 0x0 PUSH32 0x1FFC9A700000000000000000000000000000000000000000000000000000000 PUSH28 0xFFFFFFFFFFFFFFFFFFFFFFFFFFFFFFFFFFFFFFFFFFFFFFFFFFFFFFFF NOT AND DUP3 PUSH28 0xFFFFFFFFFFFFFFFFFFFFFFFFFFFFFFFFFFFFFFFFFFFFFFFFFFFFFFFF NOT AND EQ SWAP1 POP SWAP2 SWAP1 POP JUMP JUMPDEST PUSH1 0x0 CALLER SWAP1 POP SWAP1 JUMP JUMPDEST PUSH2 0xCFE DUP3 DUP3 PUSH2 0x95A JUMP JUMPDEST PUSH2 0xD8D JUMPI PUSH2 0xD23 DUP2 PUSH20 0xFFFFFFFFFFFFFFFFFFFFFFFFFFFFFFFFFFFFFFFF AND PUSH1 0x14 PUSH2 0xF52 JUMP JUMPDEST PUSH2 0xD31 DUP4 PUSH1 0x0 SHR PUSH1 0x20 PUSH2 0xF52 JUMP JUMPDEST PUSH1 0x40 MLOAD PUSH1 0x20 ADD PUSH2 0xD42 SWAP3 SWAP2 SWAP1 PUSH2 0x16E0 JUMP JUMPDEST PUSH1 0x40 MLOAD PUSH1 0x20 DUP2 DUP4 SUB SUB DUP2 MSTORE SWAP1 PUSH1 0x40 MSTORE PUSH1 0x40 MLOAD PUSH32 0x8C379A000000000000000000000000000000000000000000000000000000000 DUP2 MSTORE PUSH1 0x4 ADD PUSH2 0xD84 SWAP2 SWAP1 PUSH2 0x1787 JUMP JUMPDEST PUSH1 0x40 MLOAD DUP1 SWAP2 SUB SWAP1 REVERT JUMPDEST POP POP JUMP JUMPDEST PUSH2 0xD9B DUP3 DUP3 PUSH2 0x95A JUMP JUMPDEST PUSH2 0xE6D JUMPI PUSH1 0x1 PUSH1 0x0 DUP1 DUP5 DUP2 MSTORE PUSH1 0x20 ADD SWAP1 DUP2 MSTORE PUSH1 0x20 ADD PUSH1 0x0 KECCAK256 PUSH1 0x0 ADD PUSH1 0x0 DUP4 PUSH20 0xFFFFFFFFFFFFFFFFFFFFFFFFFFFFFFFFFFFFFFFF AND PUSH20 0xFFFFFFFFFFFFFFFFFFFFFFFFFFFFFFFFFFFFFFFF AND DUP2 MSTORE PUSH1 0x20 ADD SWAP1 DUP2 MSTORE PUSH1 0x20 ADD PUSH1 0x0 KECCAK256 PUSH1 0x0 PUSH2 0x100 EXP DUP2 SLOAD DUP2 PUSH1 0xFF MUL NOT AND SWAP1 DUP4 ISZERO ISZERO MUL OR SWAP1 SSTORE POP PUSH2 0xE12 PUSH2 0xCEC JUMP JUMPDEST PUSH20 0xFFFFFFFFFFFFFFFFFFFFFFFFFFFFFFFFFFFFFFFF AND DUP2 PUSH20 0xFFFFFFFFFFFFFFFFFFFFFFFFFFFFFFFFFFFFFFFF AND DUP4 PUSH32 0x2F8788117E7EFF1D82E926EC794901D17C78024A50270940304540A733656F0D PUSH1 0x40 MLOAD PUSH1 0x40 MLOAD DUP1 SWAP2 SUB SWAP1 LOG4 JUMPDEST POP POP JUMP JUMPDEST PUSH2 0xE7B DUP3 DUP3 PUSH2 0x95A JUMP JUMPDEST ISZERO PUSH2 0xF4E JUMPI PUSH1 0x0 DUP1 PUSH1 0x0 DUP5 DUP2 MSTORE PUSH1 0x20 ADD SWAP1 DUP2 MSTORE PUSH1 0x20 ADD PUSH1 0x0 KECCAK256 PUSH1 0x0 ADD PUSH1 0x0 DUP4 PUSH20 0xFFFFFFFFFFFFFFFFFFFFFFFFFFFFFFFFFFFFFFFF AND PUSH20 0xFFFFFFFFFFFFFFFFFFFFFFFFFFFFFFFFFFFFFFFF AND DUP2 MSTORE PUSH1 0x20 ADD SWAP1 DUP2 MSTORE PUSH1 0x20 ADD PUSH1 0x0 KECCAK256 PUSH1 0x0 PUSH2 0x100 EXP DUP2 SLOAD DUP2 PUSH1 0xFF MUL NOT AND SWAP1 DUP4 ISZERO ISZERO MUL OR SWAP1 SSTORE POP PUSH2 0xEF3 PUSH2 0xCEC JUMP JUMPDEST PUSH20 0xFFFFFFFFFFFFFFFFFFFFFFFFFFFFFFFFFFFFFFFF AND DUP2 PUSH20 0xFFFFFFFFFFFFFFFFFFFFFFFFFFFFFFFFFFFFFFFF AND DUP4 PUSH32 0xF6391F5C32D9C69D2A47EA670B442974B53935D1EDC7FD64EB21E047A839171B PUSH1 0x40 MLOAD PUSH1 0x40 MLOAD DUP1 SWAP2 SUB SWAP1 LOG4 JUMPDEST POP POP JUMP JUMPDEST PUSH1 0x60 PUSH1 0x0 PUSH1 0x2 DUP4 PUSH1 0x2 PUSH2 0xF65 SWAP2 SWAP1 PUSH2 0x1921 JUMP JUMPDEST PUSH2 0xF6F SWAP2 SWAP1 PUSH2 0x18CB JUMP JUMPDEST PUSH8 0xFFFFFFFFFFFFFFFF DUP2 GT ISZERO PUSH2 0xFAE JUMPI PUSH32 0x4E487B7100000000000000000000000000000000000000000000000000000000 PUSH1 0x0 MSTORE PUSH1 0x41 PUSH1 0x4 MSTORE PUSH1 0x24 PUSH1 0x0 REVERT JUMPDEST PUSH1 0x40 MLOAD SWAP1 DUP1 DUP3 MSTORE DUP1 PUSH1 0x1F ADD PUSH1 0x1F NOT AND PUSH1 0x20 ADD DUP3 ADD PUSH1 0x40 MSTORE DUP1 ISZERO PUSH2 0xFE0 JUMPI DUP2 PUSH1 0x20 ADD PUSH1 0x1 DUP3 MUL DUP1 CALLDATASIZE DUP4 CALLDATACOPY DUP1 DUP3 ADD SWAP2 POP POP SWAP1 POP JUMPDEST POP SWAP1 POP PUSH32 0x3000000000000000000000000000000000000000000000000000000000000000 DUP2 PUSH1 0x0 DUP2 MLOAD DUP2 LT PUSH2 0x103E JUMPI PUSH32 0x4E487B7100000000000000000000000000000000000000000000000000000000 PUSH1 0x0 MSTORE PUSH1 0x32 PUSH1 0x4 MSTORE PUSH1 0x24 PUSH1 0x0 REVERT JUMPDEST PUSH1 0x20 ADD ADD SWAP1 PUSH31 0xFFFFFFFFFFFFFFFFFFFFFFFFFFFFFFFFFFFFFFFFFFFFFFFFFFFFFFFFFFFFFF NOT AND SWAP1 DUP2 PUSH1 0x0 BYTE SWAP1 MSTORE8 POP PUSH32 0x7800000000000000000000000000000000000000000000000000000000000000 DUP2 PUSH1 0x1 DUP2 MLOAD DUP2 LT PUSH2 0x10C8 JUMPI PUSH32 0x4E487B7100000000000000000000000000000000000000000000000000000000 PUSH1 0x0 MSTORE PUSH1 0x32 PUSH1 0x4 MSTORE PUSH1 0x24 PUSH1 0x0 REVERT JUMPDEST PUSH1 0x20 ADD ADD SWAP1 PUSH31 0xFFFFFFFFFFFFFFFFFFFFFFFFFFFFFFFFFFFFFFFFFFFFFFFFFFFFFFFFFFFFFF NOT AND SWAP1 DUP2 PUSH1 0x0 BYTE SWAP1 MSTORE8 POP PUSH1 0x0 PUSH1 0x1 DUP5 PUSH1 0x2 PUSH2 0x1108 SWAP2 SWAP1 PUSH2 0x1921 JUMP JUMPDEST PUSH2 0x1112 SWAP2 SWAP1 PUSH2 0x18CB JUMP JUMPDEST SWAP1 POP JUMPDEST PUSH1 0x1 DUP2 GT ISZERO PUSH2 0x11FE JUMPI PUSH32 0x3031323334353637383961626364656600000000000000000000000000000000 PUSH1 0xF DUP7 AND PUSH1 0x10 DUP2 LT PUSH2 0x117A JUMPI PUSH32 0x4E487B7100000000000000000000000000000000000000000000000000000000 PUSH1 0x0 MSTORE PUSH1 0x32 PUSH1 0x4 MSTORE PUSH1 0x24 PUSH1 0x0 REVERT JUMPDEST BYTE PUSH1 0xF8 SHL DUP3 DUP3 DUP2 MLOAD DUP2 LT PUSH2 0x11B7 JUMPI PUSH32 0x4E487B7100000000000000000000000000000000000000000000000000000000 PUSH1 0x0 MSTORE PUSH1 0x32 PUSH1 0x4 MSTORE PUSH1 0x24 PUSH1 0x0 REVERT JUMPDEST PUSH1 0x20 ADD ADD SWAP1 PUSH31 0xFFFFFFFFFFFFFFFFFFFFFFFFFFFFFFFFFFFFFFFFFFFFFFFFFFFFFFFFFFFFFF NOT AND SWAP1 DUP2 PUSH1 0x0 BYTE SWAP1 MSTORE8 POP PUSH1 0x4 DUP6 SWAP1 SHR SWAP5 POP DUP1 PUSH2 0x11F7 SWAP1 PUSH2 0x1A60 JUMP JUMPDEST SWAP1 POP PUSH2 0x1115 JUMP JUMPDEST POP PUSH1 0x0 DUP5 EQ PUSH2 0x1242 JUMPI PUSH1 0x40 MLOAD PUSH32 0x8C379A000000000000000000000000000000000000000000000000000000000 DUP2 MSTORE PUSH1 0x4 ADD PUSH2 0x1239 SWAP1 PUSH2 0x17C9 JUMP JUMPDEST PUSH1 0x40 MLOAD DUP1 SWAP2 SUB SWAP1 REVERT JUMPDEST DUP1 SWAP2 POP POP SWAP3 SWAP2 POP POP JUMP JUMPDEST PUSH1 0x0 DUP2 CALLDATALOAD SWAP1 POP PUSH2 0x125B DUP2 PUSH2 0x1DF8 JUMP JUMPDEST SWAP3 SWAP2 POP POP JUMP JUMPDEST PUSH1 0x0 DUP2 MLOAD SWAP1 POP PUSH2 0x1270 DUP2 PUSH2 0x1E0F JUMP JUMPDEST SWAP3 SWAP2 POP POP JUMP JUMPDEST PUSH1 0x0 DUP2 CALLDATALOAD SWAP1 POP PUSH2 0x1285 DUP2 PUSH2 0x1E26 JUMP JUMPDEST SWAP3 SWAP2 POP POP JUMP JUMPDEST PUSH1 0x0 DUP2 CALLDATALOAD SWAP1 POP PUSH2 0x129A DUP2 PUSH2 0x1E3D JUMP JUMPDEST SWAP3 SWAP2 POP POP JUMP JUMPDEST PUSH1 0x0 DUP2 CALLDATALOAD SWAP1 POP PUSH2 0x12AF DUP2 PUSH2 0x1E54 JUMP JUMPDEST SWAP3 SWAP2 POP POP JUMP JUMPDEST PUSH1 0x0 PUSH1 0x20 DUP3 DUP5 SUB SLT ISZERO PUSH2 0x12C7 JUMPI PUSH1 0x0 DUP1 REVERT JUMPDEST PUSH1 0x0 PUSH2 0x12D5 DUP5 DUP3 DUP6 ADD PUSH2 0x124C JUMP JUMPDEST SWAP2 POP POP SWAP3 SWAP2 POP POP JUMP JUMPDEST PUSH1 0x0 DUP1 PUSH1 0x0 PUSH1 0x60 DUP5 DUP7 SUB SLT ISZERO PUSH2 0x12F3 JUMPI PUSH1 0x0 DUP1 REVERT JUMPDEST PUSH1 0x0 PUSH2 0x1301 DUP7 DUP3 DUP8 ADD PUSH2 0x124C JUMP JUMPDEST SWAP4 POP POP PUSH1 0x20 PUSH2 0x1312 DUP7 DUP3 DUP8 ADD PUSH2 0x124C JUMP JUMPDEST SWAP3 POP POP PUSH1 0x40 PUSH2 0x1323 DUP7 DUP3 DUP8 ADD PUSH2 0x12A0 JUMP JUMPDEST SWAP2 POP POP SWAP3 POP SWAP3 POP SWAP3 JUMP JUMPDEST PUSH1 0x0 DUP1 PUSH1 0x40 DUP4 DUP6 SUB SLT ISZERO PUSH2 0x1340 JUMPI PUSH1 0x0 DUP1 REVERT JUMPDEST PUSH1 0x0 PUSH2 0x134E DUP6 DUP3 DUP7 ADD PUSH2 0x124C JUMP JUMPDEST SWAP3 POP POP PUSH1 0x20 PUSH2 0x135F DUP6 DUP3 DUP7 ADD PUSH2 0x12A0 JUMP JUMPDEST SWAP2 POP POP SWAP3 POP SWAP3 SWAP1 POP JUMP JUMPDEST PUSH1 0x0 PUSH1 0x20 DUP3 DUP5 SUB SLT ISZERO PUSH2 0x137B JUMPI PUSH1 0x0 DUP1 REVERT JUMPDEST PUSH1 0x0 PUSH2 0x1389 DUP5 DUP3 DUP6 ADD PUSH2 0x1261 JUMP JUMPDEST SWAP2 POP POP SWAP3 SWAP2 POP POP JUMP JUMPDEST PUSH1 0x0 PUSH1 0x20 DUP3 DUP5 SUB SLT ISZERO PUSH2 0x13A4 JUMPI PUSH1 0x0 DUP1 REVERT JUMPDEST PUSH1 0x0 PUSH2 0x13B2 DUP5 DUP3 DUP6 ADD PUSH2 0x1276 JUMP JUMPDEST SWAP2 POP POP SWAP3 SWAP2 POP POP JUMP JUMPDEST PUSH1 0x0 DUP1 PUSH1 0x40 DUP4 DUP6 SUB SLT ISZERO PUSH2 0x13CE JUMPI PUSH1 0x0 DUP1 REVERT JUMPDEST PUSH1 0x0 PUSH2 0x13DC DUP6 DUP3 DUP7 ADD PUSH2 0x1276 JUMP JUMPDEST SWAP3 POP POP PUSH1 0x20 PUSH2 0x13ED DUP6 DUP3 DUP7 ADD PUSH2 0x124C JUMP JUMPDEST SWAP2 POP POP SWAP3 POP SWAP3 SWAP1 POP JUMP JUMPDEST PUSH1 0x0 PUSH1 0x20 DUP3 DUP5 SUB SLT ISZERO PUSH2 0x1409 JUMPI PUSH1 0x0 DUP1 REVERT JUMPDEST PUSH1 0x0 PUSH2 0x1417 DUP5 DUP3 DUP6 ADD PUSH2 0x128B JUMP JUMPDEST SWAP2 POP POP SWAP3 SWAP2 POP POP JUMP JUMPDEST PUSH1 0x0 PUSH1 0x20 DUP3 DUP5 SUB SLT ISZERO PUSH2 0x1432 JUMPI PUSH1 0x0 DUP1 REVERT JUMPDEST PUSH1 0x0 PUSH2 0x1440 DUP5 DUP3 DUP6 ADD PUSH2 0x12A0 JUMP JUMPDEST SWAP2 POP POP SWAP3 SWAP2 POP POP JUMP JUMPDEST PUSH2 0x1452 DUP2 PUSH2 0x19AF JUMP JUMPDEST DUP3 MSTORE POP POP JUMP JUMPDEST PUSH2 0x1469 PUSH2 0x1464 DUP3 PUSH2 0x19AF JUMP JUMPDEST PUSH2 0x1A8A JUMP JUMPDEST DUP3 MSTORE POP POP JUMP JUMPDEST PUSH2 0x1478 DUP2 PUSH2 0x19C1 JUMP JUMPDEST DUP3 MSTORE POP POP JUMP JUMPDEST PUSH2 0x1487 DUP2 PUSH2 0x19CD JUMP JUMPDEST DUP3 MSTORE POP POP JUMP JUMPDEST PUSH1 0x0 PUSH2 0x1498 DUP3 PUSH2 0x18A4 JUMP JUMPDEST PUSH2 0x14A2 DUP2 DUP6 PUSH2 0x18AF JUMP JUMPDEST SWAP4 POP PUSH2 0x14B2 DUP2 DUP6 PUSH1 0x20 DUP7 ADD PUSH2 0x1A2D JUMP JUMPDEST PUSH2 0x14BB DUP2 PUSH2 0x1AE7 JUMP JUMPDEST DUP5 ADD SWAP2 POP POP SWAP3 SWAP2 POP POP JUMP JUMPDEST PUSH1 0x0 PUSH2 0x14D1 DUP3 PUSH2 0x18A4 JUMP JUMPDEST PUSH2 0x14DB DUP2 DUP6 PUSH2 0x18C0 JUMP JUMPDEST SWAP4 POP PUSH2 0x14EB DUP2 DUP6 PUSH1 0x20 DUP7 ADD PUSH2 0x1A2D JUMP JUMPDEST DUP1 DUP5 ADD SWAP2 POP POP SWAP3 SWAP2 POP POP JUMP JUMPDEST PUSH1 0x0 PUSH2 0x1504 PUSH1 0x23 DUP4 PUSH2 0x18AF JUMP JUMPDEST SWAP2 POP PUSH2 0x150F DUP3 PUSH2 0x1B05 JUMP JUMPDEST PUSH1 0x40 DUP3 ADD SWAP1 POP SWAP2 SWAP1 POP JUMP JUMPDEST PUSH1 0x0 PUSH2 0x1527 PUSH1 0x20 DUP4 PUSH2 0x18AF JUMP JUMPDEST SWAP2 POP PUSH2 0x1532 DUP3 PUSH2 0x1B54 JUMP JUMPDEST PUSH1 0x20 DUP3 ADD SWAP1 POP SWAP2 SWAP1 POP JUMP JUMPDEST PUSH1 0x0 PUSH2 0x154A PUSH1 0x4A DUP4 PUSH2 0x18AF JUMP JUMPDEST SWAP2 POP PUSH2 0x1555 DUP3 PUSH2 0x1B7D JUMP JUMPDEST PUSH1 0x60 DUP3 ADD SWAP1 POP SWAP2 SWAP1 POP JUMP JUMPDEST PUSH1 0x0 PUSH2 0x156D PUSH1 0x1F DUP4 PUSH2 0x18AF JUMP JUMPDEST SWAP2 POP PUSH2 0x1578 DUP3 PUSH2 0x1BF2 JUMP JUMPDEST PUSH1 0x20 DUP3 ADD SWAP1 POP SWAP2 SWAP1 POP JUMP JUMPDEST PUSH1 0x0 PUSH2 0x1590 PUSH1 0x20 DUP4 PUSH2 0x18C0 JUMP JUMPDEST SWAP2 POP PUSH2 0x159B DUP3 PUSH2 0x1C1B JUMP JUMPDEST PUSH1 0x20 DUP3 ADD SWAP1 POP SWAP2 SWAP1 POP JUMP JUMPDEST PUSH1 0x0 PUSH2 0x15B3 PUSH1 0x54 DUP4 PUSH2 0x18AF JUMP JUMPDEST SWAP2 POP PUSH2 0x15BE DUP3 PUSH2 0x1C44 JUMP JUMPDEST PUSH1 0x60 DUP3 ADD SWAP1 POP SWAP2 SWAP1 POP JUMP JUMPDEST PUSH1 0x0 PUSH2 0x15D6 PUSH1 0x17 DUP4 PUSH2 0x18C0 JUMP JUMPDEST SWAP2 POP PUSH2 0x15E1 DUP3 PUSH2 0x1CB9 JUMP JUMPDEST PUSH1 0x17 DUP3 ADD SWAP1 POP SWAP2 SWAP1 POP JUMP JUMPDEST PUSH1 0x0 PUSH2 0x15F9 PUSH1 0x2B DUP4 PUSH2 0x18AF JUMP JUMPDEST SWAP2 POP PUSH2 0x1604 DUP3 PUSH2 0x1CE2 JUMP JUMPDEST PUSH1 0x40 DUP3 ADD SWAP1 POP SWAP2 SWAP1 POP JUMP JUMPDEST PUSH1 0x0 PUSH2 0x161C PUSH1 0x23 DUP4 PUSH2 0x18C0 JUMP JUMPDEST SWAP2 POP PUSH2 0x1627 DUP3 PUSH2 0x1D31 JUMP JUMPDEST PUSH1 0x23 DUP3 ADD SWAP1 POP SWAP2 SWAP1 POP JUMP JUMPDEST PUSH1 0x0 PUSH2 0x163F PUSH1 0x11 DUP4 PUSH2 0x18C0 JUMP JUMPDEST SWAP2 POP PUSH2 0x164A DUP3 PUSH2 0x1D80 JUMP JUMPDEST PUSH1 0x11 DUP3 ADD SWAP1 POP SWAP2 SWAP1 POP JUMP JUMPDEST PUSH1 0x0 PUSH2 0x1662 PUSH1 0x2F DUP4 PUSH2 0x18AF JUMP JUMPDEST SWAP2 POP PUSH2 0x166D DUP3 PUSH2 0x1DA9 JUMP JUMPDEST PUSH1 0x40 DUP3 ADD SWAP1 POP SWAP2 SWAP1 POP JUMP JUMPDEST PUSH2 0x1681 DUP2 PUSH2 0x1A23 JUMP JUMPDEST DUP3 MSTORE POP POP JUMP JUMPDEST PUSH2 0x1698 PUSH2 0x1693 DUP3 PUSH2 0x1A23 JUMP JUMPDEST PUSH2 0x1AAE JUMP JUMPDEST DUP3 MSTORE POP POP JUMP JUMPDEST PUSH1 0x0 PUSH2 0x16A9 DUP3 PUSH2 0x1583 JUMP JUMPDEST SWAP2 POP PUSH2 0x16B5 DUP3 DUP6 PUSH2 0x1458 JUMP JUMPDEST PUSH1 0x14 DUP3 ADD SWAP2 POP PUSH2 0x16C4 DUP3 PUSH2 0x160F JUMP JUMPDEST SWAP2 POP PUSH2 0x16D0 DUP3 DUP5 PUSH2 0x1687 JUMP JUMPDEST PUSH1 0x20 DUP3 ADD SWAP2 POP DUP2 SWAP1 POP SWAP4 SWAP3 POP POP POP JUMP JUMPDEST PUSH1 0x0 PUSH2 0x16EB DUP3 PUSH2 0x15C9 JUMP JUMPDEST SWAP2 POP PUSH2 0x16F7 DUP3 DUP6 PUSH2 0x14C6 JUMP JUMPDEST SWAP2 POP PUSH2 0x1702 DUP3 PUSH2 0x1632 JUMP JUMPDEST SWAP2 POP PUSH2 0x170E DUP3 DUP5 PUSH2 0x14C6 JUMP JUMPDEST SWAP2 POP DUP2 SWAP1 POP SWAP4 SWAP3 POP POP POP JUMP JUMPDEST PUSH1 0x0 PUSH1 0x60 DUP3 ADD SWAP1 POP PUSH2 0x172F PUSH1 0x0 DUP4 ADD DUP7 PUSH2 0x1449 JUMP JUMPDEST PUSH2 0x173C PUSH1 0x20 DUP4 ADD DUP6 PUSH2 0x1449 JUMP JUMPDEST PUSH2 0x1749 PUSH1 0x40 DUP4 ADD DUP5 PUSH2 0x1678 JUMP JUMPDEST SWAP5 SWAP4 POP POP POP POP JUMP JUMPDEST PUSH1 0x0 PUSH1 0x20 DUP3 ADD SWAP1 POP PUSH2 0x1766 PUSH1 0x0 DUP4 ADD DUP5 PUSH2 0x146F JUMP JUMPDEST SWAP3 SWAP2 POP POP JUMP JUMPDEST PUSH1 0x0 PUSH1 0x20 DUP3 ADD SWAP1 POP PUSH2 0x1781 PUSH1 0x0 DUP4 ADD DUP5 PUSH2 0x147E JUMP JUMPDEST SWAP3 SWAP2 POP POP JUMP JUMPDEST PUSH1 0x0 PUSH1 0x20 DUP3 ADD SWAP1 POP DUP2 DUP2 SUB PUSH1 0x0 DUP4 ADD MSTORE PUSH2 0x17A1 DUP2 DUP5 PUSH2 0x148D JUMP JUMPDEST SWAP1 POP SWAP3 SWAP2 POP POP JUMP JUMPDEST PUSH1 0x0 PUSH1 0x20 DUP3 ADD SWAP1 POP DUP2 DUP2 SUB PUSH1 0x0 DUP4 ADD MSTORE PUSH2 0x17C2 DUP2 PUSH2 0x14F7 JUMP JUMPDEST SWAP1 POP SWAP2 SWAP1 POP JUMP JUMPDEST PUSH1 0x0 PUSH1 0x20 DUP3 ADD SWAP1 POP DUP2 DUP2 SUB PUSH1 0x0 DUP4 ADD MSTORE PUSH2 0x17E2 DUP2 PUSH2 0x151A JUMP JUMPDEST SWAP1 POP SWAP2 SWAP1 POP JUMP JUMPDEST PUSH1 0x0 PUSH1 0x20 DUP3 ADD SWAP1 POP DUP2 DUP2 SUB PUSH1 0x0 DUP4 ADD MSTORE PUSH2 0x1802 DUP2 PUSH2 0x153D JUMP JUMPDEST SWAP1 POP SWAP2 SWAP1 POP JUMP JUMPDEST PUSH1 0x0 PUSH1 0x20 DUP3 ADD SWAP1 POP DUP2 DUP2 SUB PUSH1 0x0 DUP4 ADD MSTORE PUSH2 0x1822 DUP2 PUSH2 0x1560 JUMP JUMPDEST SWAP1 POP SWAP2 SWAP1 POP JUMP JUMPDEST PUSH1 0x0 PUSH1 0x20 DUP3 ADD SWAP1 POP DUP2 DUP2 SUB PUSH1 0x0 DUP4 ADD MSTORE PUSH2 0x1842 DUP2 PUSH2 0x15A6 JUMP JUMPDEST SWAP1 POP SWAP2 SWAP1 POP JUMP JUMPDEST PUSH1 0x0 PUSH1 0x20 DUP3 ADD SWAP1 POP DUP2 DUP2 SUB PUSH1 0x0 DUP4 ADD MSTORE PUSH2 0x1862 DUP2 PUSH2 0x15EC JUMP JUMPDEST SWAP1 POP SWAP2 SWAP1 POP JUMP JUMPDEST PUSH1 0x0 PUSH1 0x20 DUP3 ADD SWAP1 POP DUP2 DUP2 SUB PUSH1 0x0 DUP4 ADD MSTORE PUSH2 0x1882 DUP2 PUSH2 0x1655 JUMP JUMPDEST SWAP1 POP SWAP2 SWAP1 POP JUMP JUMPDEST PUSH1 0x0 PUSH1 0x20 DUP3 ADD SWAP1 POP PUSH2 0x189E PUSH1 0x0 DUP4 ADD DUP5 PUSH2 0x1678 JUMP JUMPDEST SWAP3 SWAP2 POP POP JUMP JUMPDEST PUSH1 0x0 DUP2 MLOAD SWAP1 POP SWAP2 SWAP1 POP JUMP JUMPDEST PUSH1 0x0 DUP3 DUP3 MSTORE PUSH1 0x20 DUP3 ADD SWAP1 POP SWAP3 SWAP2 POP POP JUMP JUMPDEST PUSH1 0x0 DUP2 SWAP1 POP SWAP3 SWAP2 POP POP JUMP JUMPDEST PUSH1 0x0 PUSH2 0x18D6 DUP3 PUSH2 0x1A23 JUMP JUMPDEST SWAP2 POP PUSH2 0x18E1 DUP4 PUSH2 0x1A23 JUMP JUMPDEST SWAP3 POP DUP3 PUSH32 0xFFFFFFFFFFFFFFFFFFFFFFFFFFFFFFFFFFFFFFFFFFFFFFFFFFFFFFFFFFFFFFFF SUB DUP3 GT ISZERO PUSH2 0x1916 JUMPI PUSH2 0x1915 PUSH2 0x1AB8 JUMP JUMPDEST JUMPDEST DUP3 DUP3 ADD SWAP1 POP SWAP3 SWAP2 POP POP JUMP JUMPDEST PUSH1 0x0 PUSH2 0x192C DUP3 PUSH2 0x1A23 JUMP JUMPDEST SWAP2 POP PUSH2 0x1937 DUP4 PUSH2 0x1A23 JUMP JUMPDEST SWAP3 POP DUP2 PUSH32 0xFFFFFFFFFFFFFFFFFFFFFFFFFFFFFFFFFFFFFFFFFFFFFFFFFFFFFFFFFFFFFFFF DIV DUP4 GT DUP3 ISZERO ISZERO AND ISZERO PUSH2 0x1970 JUMPI PUSH2 0x196F PUSH2 0x1AB8 JUMP JUMPDEST JUMPDEST DUP3 DUP3 MUL SWAP1 POP SWAP3 SWAP2 POP POP JUMP JUMPDEST PUSH1 0x0 PUSH2 0x1986 DUP3 PUSH2 0x1A23 JUMP JUMPDEST SWAP2 POP PUSH2 0x1991 DUP4 PUSH2 0x1A23 JUMP JUMPDEST SWAP3 POP DUP3 DUP3 LT ISZERO PUSH2 0x19A4 JUMPI PUSH2 0x19A3 PUSH2 0x1AB8 JUMP JUMPDEST JUMPDEST DUP3 DUP3 SUB SWAP1 POP SWAP3 SWAP2 POP POP JUMP JUMPDEST PUSH1 0x0 PUSH2 0x19BA DUP3 PUSH2 0x1A03 JUMP JUMPDEST SWAP1 POP SWAP2 SWAP1 POP JUMP JUMPDEST PUSH1 0x0 DUP2 ISZERO ISZERO SWAP1 POP SWAP2 SWAP1 POP JUMP JUMPDEST PUSH1 0x0 DUP2 SWAP1 POP SWAP2 SWAP1 POP JUMP JUMPDEST PUSH1 0x0 PUSH32 0xFFFFFFFF00000000000000000000000000000000000000000000000000000000 DUP3 AND SWAP1 POP SWAP2 SWAP1 POP JUMP JUMPDEST PUSH1 0x0 PUSH20 0xFFFFFFFFFFFFFFFFFFFFFFFFFFFFFFFFFFFFFFFF DUP3 AND SWAP1 POP SWAP2 SWAP1 POP JUMP JUMPDEST PUSH1 0x0 DUP2 SWAP1 POP SWAP2 SWAP1 POP JUMP JUMPDEST PUSH1 0x0 JUMPDEST DUP4 DUP2 LT ISZERO PUSH2 0x1A4B JUMPI DUP1 DUP3 ADD MLOAD DUP2 DUP5 ADD MSTORE PUSH1 0x20 DUP2 ADD SWAP1 POP PUSH2 0x1A30 JUMP JUMPDEST DUP4 DUP2 GT ISZERO PUSH2 0x1A5A JUMPI PUSH1 0x0 DUP5 DUP5 ADD MSTORE JUMPDEST POP POP POP POP JUMP JUMPDEST PUSH1 0x0 PUSH2 0x1A6B DUP3 PUSH2 0x1A23 JUMP JUMPDEST SWAP2 POP PUSH1 0x0 DUP3 EQ ISZERO PUSH2 0x1A7F JUMPI PUSH2 0x1A7E PUSH2 0x1AB8 JUMP JUMPDEST JUMPDEST PUSH1 0x1 DUP3 SUB SWAP1 POP SWAP2 SWAP1 POP JUMP JUMPDEST PUSH1 0x0 PUSH2 0x1A95 DUP3 PUSH2 0x1A9C JUMP JUMPDEST SWAP1 POP SWAP2 SWAP1 POP JUMP JUMPDEST PUSH1 0x0 PUSH2 0x1AA7 DUP3 PUSH2 0x1AF8 JUMP JUMPDEST SWAP1 POP SWAP2 SWAP1 POP JUMP JUMPDEST PUSH1 0x0 DUP2 SWAP1 POP SWAP2 SWAP1 POP JUMP JUMPDEST PUSH32 0x4E487B7100000000000000000000000000000000000000000000000000000000 PUSH1 0x0 MSTORE PUSH1 0x11 PUSH1 0x4 MSTORE PUSH1 0x24 PUSH1 0x0 REVERT JUMPDEST PUSH1 0x0 PUSH1 0x1F NOT PUSH1 0x1F DUP4 ADD AND SWAP1 POP SWAP2 SWAP1 POP JUMP JUMPDEST PUSH1 0x0 DUP2 PUSH1 0x60 SHL SWAP1 POP SWAP2 SWAP1 POP JUMP JUMPDEST PUSH32 0x53656E646572206973206E6F742055534443204D616E61676572206F72204164 PUSH1 0x0 DUP3 ADD MSTORE PUSH32 0x6D696E0000000000000000000000000000000000000000000000000000000000 PUSH1 0x20 DUP3 ADD MSTORE POP JUMP JUMPDEST PUSH32 0x537472696E67733A20686578206C656E67746820696E73756666696369656E74 PUSH1 0x0 DUP3 ADD MSTORE POP JUMP JUMPDEST PUSH32 0x6D757374207570646174652074686520555344432062616C616E636520776974 PUSH1 0x0 DUP3 ADD MSTORE PUSH32 0x6820612028706F736974697665206F72206E6567617469766529206E6F6E2D7A PUSH1 0x20 DUP3 ADD MSTORE PUSH32 0x65726F20616D6F756E7400000000000000000000000000000000000000000000 PUSH1 0x40 DUP3 ADD MSTORE POP JUMP JUMPDEST PUSH32 0x5468697320636F6E7472616374206F6E6C792061636365707473205553444300 PUSH1 0x0 DUP3 ADD MSTORE POP JUMP JUMPDEST PUSH32 0x63616E6E6F7420646563726561736520555344432062616C616E6365206F6620 PUSH1 0x0 DUP3 ADD MSTORE POP JUMP JUMPDEST PUSH32 0x46616C6C6261636B20747269676765726564202D20706C6561736520696E7465 PUSH1 0x0 DUP3 ADD MSTORE PUSH32 0x726163742077697468207468697320636F6E7472616374207669612069742773 PUSH1 0x20 DUP3 ADD MSTORE PUSH32 0x20617661696C61626C652066756E6374696F6E73000000000000000000000000 PUSH1 0x40 DUP3 ADD MSTORE POP JUMP JUMPDEST PUSH32 0x416363657373436F6E74726F6C3A206163636F756E7420000000000000000000 PUSH1 0x0 DUP3 ADD MSTORE POP JUMP JUMPDEST PUSH32 0x616D6F756E74207472616E73666572726564206D757374206265206120706F73 PUSH1 0x0 DUP3 ADD MSTORE PUSH32 0x69746976652076616C7565000000000000000000000000000000000000000000 PUSH1 0x20 DUP3 ADD MSTORE POP JUMP JUMPDEST PUSH32 0x206279206D6F7265207468616E20746865206578697374696E672062616C616E PUSH1 0x0 DUP3 ADD MSTORE PUSH32 0x6365200000000000000000000000000000000000000000000000000000000000 PUSH1 0x20 DUP3 ADD MSTORE POP JUMP JUMPDEST PUSH32 0x206973206D697373696E6720726F6C6520000000000000000000000000000000 PUSH1 0x0 DUP3 ADD MSTORE POP JUMP JUMPDEST PUSH32 0x416363657373436F6E74726F6C3A2063616E206F6E6C792072656E6F756E6365 PUSH1 0x0 DUP3 ADD MSTORE PUSH32 0x20726F6C657320666F722073656C660000000000000000000000000000000000 PUSH1 0x20 DUP3 ADD MSTORE POP JUMP JUMPDEST PUSH2 0x1E01 DUP2 PUSH2 0x19AF JUMP JUMPDEST DUP2 EQ PUSH2 0x1E0C JUMPI PUSH1 0x0 DUP1 REVERT JUMPDEST POP JUMP JUMPDEST PUSH2 0x1E18 DUP2 PUSH2 0x19C1 JUMP JUMPDEST DUP2 EQ PUSH2 0x1E23 JUMPI PUSH1 0x0 DUP1 REVERT JUMPDEST POP JUMP JUMPDEST PUSH2 0x1E2F DUP2 PUSH2 0x19CD JUMP JUMPDEST DUP2 EQ PUSH2 0x1E3A JUMPI PUSH1 0x0 DUP1 REVERT JUMPDEST POP JUMP JUMPDEST PUSH2 0x1E46 DUP2 PUSH2 0x19D7 JUMP JUMPDEST DUP2 EQ PUSH2 0x1E51 JUMPI PUSH1 0x0 DUP1 REVERT JUMPDEST POP JUMP JUMPDEST PUSH2 0x1E5D DUP2 PUSH2 0x1A23 JUMP JUMPDEST DUP2 EQ PUSH2 0x1E68 JUMPI PUSH1 0x0 DUP1 REVERT JUMPDEST POP JUMP INVALID LOG2 PUSH5 0x6970667358 0x22 SLT KECCAK256 PUSH1 0x43 0xCB 0xEB LOG1 0x49 SWAP2 0xE2 0xCB 0xD6 0xEC 0x26 0x4A CALLCODE RETURNDATACOPY COINBASE 0x26 DUP16 LOG2 DUP6 SWAP7 PUSH1 0x49 0xB1 PUSH31 0xA63E9110D5508664736F6C6343000801003300000000000000000000000000 "
				},
				"gasEstimates": {
					"creation": {
						"codeDepositCost": "1568200",
						"executionCost": "22512",
						"totalCost": "1590712"
					},
					"external": {
						"": "510",
						"DEFAULT_ADMIN_ROLE()": "424",
						"USDC_MANAGER_ROLE()": "375",
						"decreaseUsdcBalance(address,uint256)": "infinite",
						"getRoleAdmin(bytes32)": "infinite",
						"getUsdcBalance(address)": "1586",
						"grantRole(bytes32,address)": "infinite",
						"hasRole(bytes32,address)": "1907",
						"increaseUsdcBalance(address,uint256)": "infinite",
						"receiveUSDC(uint256)": "infinite",
						"refundUsdcTo(address,uint256)": "infinite",
						"renounceRole(bytes32,address)": "infinite",
						"revokeRole(bytes32,address)": "infinite",
						"supportsInterface(bytes4)": "751",
						"transferUsdcBalance(address,address,uint256)": "infinite",
						"usdcBalances(address)": "1536"
					}
				},
				"methodIdentifiers": {
					"DEFAULT_ADMIN_ROLE()": "a217fddf",
					"USDC_MANAGER_ROLE()": "075060cd",
					"decreaseUsdcBalance(address,uint256)": "532b2913",
					"getRoleAdmin(bytes32)": "248a9ca3",
					"getUsdcBalance(address)": "69b49adc",
					"grantRole(bytes32,address)": "2f2ff15d",
					"hasRole(bytes32,address)": "91d14854",
					"increaseUsdcBalance(address,uint256)": "bf006f0e",
					"receiveUSDC(uint256)": "ddb4acd0",
					"refundUsdcTo(address,uint256)": "45ad5350",
					"renounceRole(bytes32,address)": "36568abe",
					"revokeRole(bytes32,address)": "d547741f",
					"supportsInterface(bytes4)": "01ffc9a7",
					"transferUsdcBalance(address,address,uint256)": "441b1a44",
					"usdcBalances(address)": "a99c68c5"
				}
			},
			"storageLayout": {
				"storage": [
					{
						"astId": 24,
						"contract": "contracts/USDC Escrow Storage.sol:UsdcEscrowStorage",
						"label": "_roles",
						"offset": 0,
						"slot": "0",
						"type": "t_mapping(t_bytes32,t_struct(RoleData)19_storage)"
					},
					{
						"astId": 743,
						"contract": "contracts/USDC Escrow Storage.sol:UsdcEscrowStorage",
						"label": "usdcToken",
						"offset": 0,
						"slot": "1",
						"type": "t_contract(IERC20)462"
					},
					{
						"astId": 747,
						"contract": "contracts/USDC Escrow Storage.sol:UsdcEscrowStorage",
						"label": "usdcBalances",
						"offset": 0,
						"slot": "2",
						"type": "t_mapping(t_address,t_uint256)"
					}
				],
				"types": {
					"t_address": {
						"encoding": "inplace",
						"label": "address",
						"numberOfBytes": "20"
					},
					"t_bool": {
						"encoding": "inplace",
						"label": "bool",
						"numberOfBytes": "1"
					},
					"t_bytes32": {
						"encoding": "inplace",
						"label": "bytes32",
						"numberOfBytes": "32"
					},
					"t_contract(IERC20)462": {
						"encoding": "inplace",
						"label": "contract IERC20",
						"numberOfBytes": "20"
					},
					"t_mapping(t_address,t_bool)": {
						"encoding": "mapping",
						"key": "t_address",
						"label": "mapping(address => bool)",
						"numberOfBytes": "32",
						"value": "t_bool"
					},
					"t_mapping(t_address,t_uint256)": {
						"encoding": "mapping",
						"key": "t_address",
						"label": "mapping(address => uint256)",
						"numberOfBytes": "32",
						"value": "t_uint256"
					},
					"t_mapping(t_bytes32,t_struct(RoleData)19_storage)": {
						"encoding": "mapping",
						"key": "t_bytes32",
						"label": "mapping(bytes32 => struct AccessControl.RoleData)",
						"numberOfBytes": "32",
						"value": "t_struct(RoleData)19_storage"
					},
					"t_struct(RoleData)19_storage": {
						"encoding": "inplace",
						"label": "struct AccessControl.RoleData",
						"members": [
							{
								"astId": 16,
								"contract": "contracts/USDC Escrow Storage.sol:UsdcEscrowStorage",
								"label": "members",
								"offset": 0,
								"slot": "0",
								"type": "t_mapping(t_address,t_bool)"
							},
							{
								"astId": 18,
								"contract": "contracts/USDC Escrow Storage.sol:UsdcEscrowStorage",
								"label": "adminRole",
								"offset": 0,
								"slot": "1",
								"type": "t_bytes32"
							}
						],
						"numberOfBytes": "64"
					},
					"t_uint256": {
						"encoding": "inplace",
						"label": "uint256",
						"numberOfBytes": "32"
					}
				}
			},
			"userdoc": {
				"kind": "user",
				"methods": {},
				"version": 1
			}
		}
	}
}