{
	"data": {
		"bytecode": {
			"linkReferences": {},
			"object": "60806040526370dc49006005556370dc4964600655620f4240600a620000269190620000aa565b600755620f424060016200003b9190620000aa565b60085560405180606001604052806127108152602001428152602001600015158152506009600082015181600001556020820151816001015560408201518160020160006101000a81548160ff0219169083151502179055505050348015620000a357600080fd5b5062000144565b6000620000b7826200010b565b9150620000c4836200010b565b9250817fffffffffffffffffffffffffffffffffffffffffffffffffffffffffffffffff04831182151516156200010057620000ff62000115565b5b828202905092915050565b6000819050919050565b7f4e487b7100000000000000000000000000000000000000000000000000000000600052601160045260246000fd5b612f6780620001546000396000f3fe608060405234801561001057600080fd5b50600436106101da5760003560e01c8063944044a111610104578063c0463711116100a2578063d547741f11610071578063d547741f1461050f578063dd8134ac1461052b578063f121da9214610547578063f715dfca14610563576101da565b8063c046371114610497578063c5dae48f146104b7578063c5f956af146104d5578063ccb98ffc146104f3576101da565b8063ab6c0306116100de578063ab6c030614610425578063b5e33f7614610455578063bebe217314610471578063bff29cee1461048d576101da565b8063944044a1146103cd578063a217fddf146103e9578063a77f0c4814610407576101da565b80634c9b73da1161017c578063682d07d91161014b578063682d07d91461034357806368fc01a2146103615780638c83faeb1461037f57806391d148541461039d576101da565b80634c9b73da146102cf5780634e0ddff9146102eb578063551b42a8146103075780635ce7e72114610325576101da565b80632f2ff15d116101b85780632f2ff15d1461024957806336568abe14610265578063432c7c5d146102815780634c0f38c2146102b1576101da565b806301ffc9a7146101df578063248a9ca31461020f57806326116d471461023f575b600080fd5b6101f960048036038101906101f49190611f05565b61056d565b60405161020691906124b4565b60405180910390f35b61022960048036038101906102249190611ea0565b6105e7565b60405161023691906124cf565b60405180910390f35b610247610606565b005b610263600480360381019061025e9190611ec9565b610794565b005b61027f600480360381019061027a9190611ec9565b6107bd565b005b61029b60048036038101906102969190611dcf565b610840565b6040516102a8919061267d565b60405180910390f35b6102b961085c565b6040516102c6919061267d565b60405180910390f35b6102e960048036038101906102e49190611f2e565b610903565b005b61030560048036038101906103009190611f2e565b610926565b005b61030f610ac6565b60405161031c91906124cf565b60405180910390f35b61032d610aea565b60405161033a9190612505565b60405180910390f35b61034b610b10565b60405161035891906124cf565b60405180910390f35b610369610b34565b604051610376919061267d565b60405180910390f35b610387610bdb565b60405161039491906124ea565b60405180910390f35b6103b760048036038101906103b29190611ec9565b610c01565b6040516103c491906124b4565b60405180910390f35b6103e760048036038101906103e29190611f2e565b610c6b565b005b6103f1610d00565b6040516103fe91906124cf565b60405180910390f35b61040f610d07565b60405161041c91906124cf565b60405180910390f35b61043f600480360381019061043a9190611dcf565b610d2b565b60405161044c919061267d565b60405180910390f35b61046f600480360381019061046a9190611da6565b610ebc565b005b61048b60048036038101906104869190611da6565b610f16565b005b610495610f70565b005b61049f610f8e565b6040516104ae93929190612698565b60405180910390f35b6104bf610fb3565b6040516104cc9190612520565b60405180910390f35b6104dd610fd9565b6040516104ea9190612439565b60405180910390f35b61050d60048036038101906105089190611f2e565b610fff565b005b61052960048036038101906105249190611ec9565b611094565b005b61054560048036038101906105409190611da6565b6110bd565b005b610561600480360381019061055c9190611e0b565b611117565b005b61056b611235565b005b60007f7965db0b000000000000000000000000000000000000000000000000000000007bffffffffffffffffffffffffffffffffffffffffffffffffffffffff1916827bffffffffffffffffffffffffffffffffffffffffffffffffffffffff191614806105e057506105df8261139d565b5b9050919050565b6000806000838152602001908152602001600020600101549050919050565b61060e611407565b61063f7fbd1d99152bdba889f82a18def1423aac13658b88b6ea933ffd0b3a6a1dd5cff961063a6114ff565b610c01565b8061065a57506106596000801b6106546114ff565b610c01565b5b610699576040517f08c379a00000000000000000000000000000000000000000000000000000000081526004016106909061263d565b60405180910390fd5b600654421180156106ba5750600960020160009054906101000a900460ff16155b6106f9576040517f08c379a00000000000000000000000000000000000000000000000000000000081526004016106f09061257d565b60405180910390fd5b60006001610705610b34565b61070f9190612908565b61071761085c565b6107219190612908565b905060008111610766576040517f08c379a000000000000000000000000000000000000000000000000000000000815260040161075d906125fd565b60405180910390fd5b610791600460009054906101000a900473ffffffffffffffffffffffffffffffffffffffff16611507565b50565b61079d826105e7565b6107ae816107a96114ff565b611597565b6107b88383611634565b505050565b6107c56114ff565b73ffffffffffffffffffffffffffffffffffffffff168173ffffffffffffffffffffffffffffffffffffffff1614610832576040517f08c379a00000000000000000000000000000000000000000000000000000000081526004016108299061265d565b60405180910390fd5b61083c8282611714565b5050565b600061084a611407565b6108548383610d2b565b905092915050565b6000600160009054906101000a900473ffffffffffffffffffffffffffffffffffffffff1673ffffffffffffffffffffffffffffffffffffffff16634c0f38c26040518163ffffffff1660e01b815260040160206040518083038186803b1580156108c657600080fd5b505afa1580156108da573d6000803e3d6000fd5b505050506040513d601f19601f820116820180604052508101906108fe9190611f57565b905090565b61090b611407565b60006109173383610d2b565b9050610922816117f5565b5050565b61092e611407565b61095f7fbd1d99152bdba889f82a18def1423aac13658b88b6ea933ffd0b3a6a1dd5cff961095a6114ff565b610c01565b8061097a57506109796000801b6109746114ff565b610c01565b5b6109b9576040517f08c379a00000000000000000000000000000000000000000000000000000000081526004016109b09061263d565b60405180910390fd5b600654421180156109da5750600960020160009054906101000a900460ff16155b610a19576040517f08c379a0000000000000000000000000000000000000000000000000000000008152600401610a109061257d565b60405180910390fd5b60006001610a25610b34565b610a2f9190612908565b610a3761085c565b610a419190612908565b9050610a4d8183611890565b90505b6000811115610a9757610a84600460009054906101000a900473ffffffffffffffffffffffffffffffffffffffff16611507565b8080610a8f90612a68565b915050610a50565b610ac2600460009054906101000a900473ffffffffffffffffffffffffffffffffffffffff16611507565b5050565b7f988301af8238f779281a300de031815cd01b48e9f1ae47a0f91ed6584213624a81565b600260009054906101000a900473ffffffffffffffffffffffffffffffffffffffff1681565b7fa70a2d8710fed9f014c8c2af50c7c2f6b25748ae4cded822e03b7beed44cf3a881565b6000600160009054906101000a900473ffffffffffffffffffffffffffffffffffffffff1673ffffffffffffffffffffffffffffffffffffffff166368fc01a26040518163ffffffff1660e01b815260040160206040518083038186803b158015610b9e57600080fd5b505afa158015610bb2573d6000803e3d6000fd5b505050506040513d601f19601f82011682018060405250810190610bd69190611f57565b905090565b600160009054906101000a900473ffffffffffffffffffffffffffffffffffffffff1681565b600080600084815260200190815260200160002060000160008373ffffffffffffffffffffffffffffffffffffffff1673ffffffffffffffffffffffffffffffffffffffff16815260200190815260200160002060009054906101000a900460ff16905092915050565b610c9c7f988301af8238f779281a300de031815cd01b48e9f1ae47a0f91ed6584213624a610c976114ff565b610c01565b80610cb75750610cb66000801b610cb16114ff565b610c01565b5b610cf6576040517f08c379a0000000000000000000000000000000000000000000000000000000008152600401610ced906125bd565b60405180910390fd5b8060058190555050565b6000801b81565b7fbd1d99152bdba889f82a18def1423aac13658b88b6ea933ffd0b3a6a1dd5cff981565b60004260096001015414610d74576040517f08c379a0000000000000000000000000000000000000000000000000000000008152600401610d6b9061259d565b60405180910390fd5b600260009054906101000a900473ffffffffffffffffffffffffffffffffffffffff1673ffffffffffffffffffffffffffffffffffffffff16632080179d84846040518363ffffffff1660e01b8152600401610dd1929190612454565b60206040518083038186803b158015610de957600080fd5b505afa158015610dfd573d6000803e3d6000fd5b505050506040513d601f19601f82011682018060405250810190610e219190611e77565b8383604051602001610e349291906123b2565b60405160208183030381529060405290610e84576040517f08c379a0000000000000000000000000000000000000000000000000000000008152600401610e7b919061253b565b60405180910390fd5b506000826064610e949190612908565b6064600960000154610ea6919061287d565b610eb091906128ae565b90508091505092915050565b6000801b610ed181610ecc6114ff565b611597565b81600260006101000a81548173ffffffffffffffffffffffffffffffffffffffff021916908373ffffffffffffffffffffffffffffffffffffffff1602179055505050565b6000801b610f2b81610f266114ff565b611597565b81600360006101000a81548173ffffffffffffffffffffffffffffffffffffffff021916908373ffffffffffffffffffffffffffffffffffffffff1602179055505050565b610f78611407565b60006009600001549050610f8b816117f5565b50565b60098060000154908060010154908060020160009054906101000a900460ff16905083565b600360009054906101000a900473ffffffffffffffffffffffffffffffffffffffff1681565b600460009054906101000a900473ffffffffffffffffffffffffffffffffffffffff1681565b6110307f988301af8238f779281a300de031815cd01b48e9f1ae47a0f91ed6584213624a61102b6114ff565b610c01565b8061104b575061104a6000801b6110456114ff565b610c01565b5b61108a576040517f08c379a0000000000000000000000000000000000000000000000000000000008152600401611081906125bd565b60405180910390fd5b8060068190555050565b61109d826105e7565b6110ae816110a96114ff565b611597565b6110b88383611714565b505050565b6000801b6110d2816110cd6114ff565b611597565b81600160006101000a81548173ffffffffffffffffffffffffffffffffffffffff021916908373ffffffffffffffffffffffffffffffffffffffff1602179055505050565b6111487fa70a2d8710fed9f014c8c2af50c7c2f6b25748ae4cded822e03b7beed44cf3a86111436114ff565b610c01565b8061116357506111626000801b61115d6114ff565b610c01565b5b6111a2576040517f08c379a0000000000000000000000000000000000000000000000000000000008152600401611199906125dd565b60405180910390fd5b600160009054906101000a900473ffffffffffffffffffffffffffffffffffffffff1673ffffffffffffffffffffffffffffffffffffffff1663f121da9283836040518363ffffffff1660e01b81526004016111ff92919061247d565b600060405180830381600087803b15801561121957600080fd5b505af115801561122d573d6000803e3d6000fd5b505050505050565b61123d611407565b61126e7fbd1d99152bdba889f82a18def1423aac13658b88b6ea933ffd0b3a6a1dd5cff96112696114ff565b610c01565b8061128957506112886000801b6112836114ff565b610c01565b5b6112c8576040517f08c379a00000000000000000000000000000000000000000000000000000000081526004016112bf9061263d565b60405180910390fd5b600654421180156112e95750600960020160009054906101000a900460ff16155b611328576040517f08c379a000000000000000000000000000000000000000000000000000000000815260040161131f9061257d565b60405180910390fd5b60006001611334610b34565b61133e9190612908565b61134661085c565b6113509190612908565b90505b600081111561139a57611387600460009054906101000a900473ffffffffffffffffffffffffffffffffffffffff16611507565b808061139290612a68565b915050611353565b50565b60007f01ffc9a7000000000000000000000000000000000000000000000000000000007bffffffffffffffffffffffffffffffffffffffffffffffffffffffff1916827bffffffffffffffffffffffffffffffffffffffffffffffffffffffff1916149050919050565b600654600554111561144e576040517f08c379a00000000000000000000000000000000000000000000000000000000081526004016114459061261d565b60405180910390fd5b620f4240600161145e91906128ae565b603c6005544261146e9190612908565b611478919061287d565b61148291906128ae565b60075461148f9190612908565b6009600001819055504260096001018190555060055442101580156114b657506006544211155b156114de576001600960020160006101000a81548160ff0219169083151502179055506114fd565b6000600960020160006101000a81548160ff0219169083151502179055505b565b600033905090565b600160009054906101000a900473ffffffffffffffffffffffffffffffffffffffff1673ffffffffffffffffffffffffffffffffffffffff166355676590826040518263ffffffff1660e01b81526004016115629190612439565b600060405180830381600087803b15801561157c57600080fd5b505af1158015611590573d6000803e3d6000fd5b5050505050565b6115a18282610c01565b611630576115c68173ffffffffffffffffffffffffffffffffffffffff1660146118a9565b6115d48360001c60206118a9565b6040516020016115e59291906123ff565b6040516020818303038152906040526040517f08c379a0000000000000000000000000000000000000000000000000000000008152600401611627919061253b565b60405180910390fd5b5050565b61163e8282610c01565b61171057600160008084815260200190815260200160002060000160008373ffffffffffffffffffffffffffffffffffffffff1673ffffffffffffffffffffffffffffffffffffffff16815260200190815260200160002060006101000a81548160ff0219169083151502179055506116b56114ff565b73ffffffffffffffffffffffffffffffffffffffff168173ffffffffffffffffffffffffffffffffffffffff16837f2f8788117e7eff1d82e926ec794901d17c78024a50270940304540a733656f0d60405160405180910390a45b5050565b61171e8282610c01565b156117f157600080600084815260200190815260200160002060000160008373ffffffffffffffffffffffffffffffffffffffff1673ffffffffffffffffffffffffffffffffffffffff16815260200190815260200160002060006101000a81548160ff0219169083151502179055506117966114ff565b73ffffffffffffffffffffffffffffffffffffffff168173ffffffffffffffffffffffffffffffffffffffff16837ff6391f5c32d9c69d2a47ea670b442974b53935d1edc7fd64eb21e047a839171b60405160405180910390a45b5050565b600360009054906101000a900473ffffffffffffffffffffffffffffffffffffffff1673ffffffffffffffffffffffffffffffffffffffff1663532b291333836040518363ffffffff1660e01b8152600401611852929190612454565b600060405180830381600087803b15801561186c57600080fd5b505af1158015611880573d6000803e3d6000fd5b5050505061188d33611507565b50565b600081831061189f57816118a1565b825b905092915050565b6060600060028360026118bc91906128ae565b6118c69190612827565b67ffffffffffffffff811115611905577f4e487b7100000000000000000000000000000000000000000000000000000000600052604160045260246000fd5b6040519080825280601f01601f1916602001820160405280156119375781602001600182028036833780820191505090505b5090507f300000000000000000000000000000000000000000000000000000000000000081600081518110611995577f4e487b7100000000000000000000000000000000000000000000000000000000600052603260045260246000fd5b60200101907effffffffffffffffffffffffffffffffffffffffffffffffffffffffffffff1916908160001a9053507f780000000000000000000000000000000000000000000000000000000000000081600181518110611a1f577f4e487b7100000000000000000000000000000000000000000000000000000000600052603260045260246000fd5b60200101907effffffffffffffffffffffffffffffffffffffffffffffffffffffffffffff1916908160001a90535060006001846002611a5f91906128ae565b611a699190612827565b90505b6001811115611b55577f3031323334353637383961626364656600000000000000000000000000000000600f861660108110611ad1577f4e487b7100000000000000000000000000000000000000000000000000000000600052603260045260246000fd5b1a60f81b828281518110611b0e577f4e487b7100000000000000000000000000000000000000000000000000000000600052603260045260246000fd5b60200101907effffffffffffffffffffffffffffffffffffffffffffffffffffffffffffff1916908160001a905350600485901c945080611b4e90612a68565b9050611a6c565b5060008414611b99576040517f08c379a0000000000000000000000000000000000000000000000000000000008152600401611b909061255d565b60405180910390fd5b8091505092915050565b6000611bb6611bb1846126f4565b6126cf565b9050808382526020820190508260005b85811015611bf65781358501611bdc8882611d52565b845260208401935060208301925050600181019050611bc6565b5050509392505050565b6000611c13611c0e84612720565b6126cf565b90508083825260208201905082856020860282011115611c3257600080fd5b60005b85811015611c625781611c488882611d7c565b845260208401935060208301925050600181019050611c35565b5050509392505050565b6000611c7f611c7a8461274c565b6126cf565b905082815260208101848484011115611c9757600080fd5b611ca2848285612a26565b509392505050565b600081359050611cb981612ebe565b92915050565b600082601f830112611cd057600080fd5b8135611ce0848260208601611ba3565b91505092915050565b600082601f830112611cfa57600080fd5b8135611d0a848260208601611c00565b91505092915050565b600081519050611d2281612ed5565b92915050565b600081359050611d3781612eec565b92915050565b600081359050611d4c81612f03565b92915050565b600082601f830112611d6357600080fd5b8135611d73848260208601611c6c565b91505092915050565b600081359050611d8b81612f1a565b92915050565b600081519050611da081612f1a565b92915050565b600060208284031215611db857600080fd5b6000611dc684828501611caa565b91505092915050565b60008060408385031215611de257600080fd5b6000611df085828601611caa565b9250506020611e0185828601611d7c565b9150509250929050565b60008060408385031215611e1e57600080fd5b600083013567ffffffffffffffff811115611e3857600080fd5b611e4485828601611ce9565b925050602083013567ffffffffffffffff811115611e6157600080fd5b611e6d85828601611cbf565b9150509250929050565b600060208284031215611e8957600080fd5b6000611e9784828501611d13565b91505092915050565b600060208284031215611eb257600080fd5b6000611ec084828501611d28565b91505092915050565b60008060408385031215611edc57600080fd5b6000611eea85828601611d28565b9250506020611efb85828601611caa565b9150509250929050565b600060208284031215611f1757600080fd5b6000611f2584828501611d3d565b91505092915050565b600060208284031215611f4057600080fd5b6000611f4e84828501611d7c565b91505092915050565b600060208284031215611f6957600080fd5b6000611f7784828501611d91565b91505092915050565b6000611f8c83836120f0565b905092915050565b6000611fa0838361237d565b60208301905092915050565b611fb58161293c565b82525050565b611fcc611fc78261293c565b612ac3565b82525050565b6000611fdd8261279d565b611fe781856127d8565b935083602082028501611ff98561277d565b8060005b8581101561203557848403895281516120168582611f80565b9450612021836127be565b925060208a01995050600181019050611ffd565b50829750879550505050505092915050565b6000612052826127a8565b61205c81856127e9565b93506120678361278d565b8060005b8381101561209857815161207f8882611f94565b975061208a836127cb565b92505060018101905061206b565b5085935050505092915050565b6120ae8161294e565b82525050565b6120bd8161295a565b82525050565b6120cc816129ba565b82525050565b6120db816129de565b82525050565b6120ea81612a02565b82525050565b60006120fb826127b3565b61210581856127fa565b9350612115818560208601612a35565b61211e81612b7e565b840191505092915050565b6000612134826127b3565b61213e818561280b565b935061214e818560208601612a35565b61215781612b7e565b840191505092915050565b600061216d826127b3565b612177818561281c565b9350612187818560208601612a35565b80840191505092915050565b60006121a060208361280b565b91506121ab82612b9c565b602082019050919050565b60006121c360088361281c565b91506121ce82612bc5565b600882019050919050565b60006121e660368361280b565b91506121f182612bee565b604082019050919050565b6000612209601b8361280b565b915061221482612c3d565b602082019050919050565b600061222c60238361280b565b915061223782612c66565b604082019050919050565b600061224f60228361280b565b915061225a82612cb5565b604082019050919050565b600061227260018361281c565b915061227d82612d04565b600182019050919050565b600061229560308361281c565b91506122a082612d2d565b603082019050919050565b60006122b860168361280b565b91506122c382612d7c565b602082019050919050565b60006122db601f8361280b565b91506122e682612da5565b602082019050919050565b60006122fe60278361280b565b915061230982612dce565b604082019050919050565b600061232160178361281c565b915061232c82612e1d565b601782019050919050565b600061234460118361281c565b915061234f82612e46565b601182019050919050565b6000612367602f8361280b565b915061237282612e6f565b604082019050919050565b612386816129b0565b82525050565b612395816129b0565b82525050565b6123ac6123a7826129b0565b612ae7565b82525050565b60006123bd826121b6565b91506123c98285611fbb565b6014820191506123d882612288565b91506123e4828461239b565b6020820191506123f382612265565b91508190509392505050565b600061240a82612314565b91506124168285612162565b915061242182612337565b915061242d8284612162565b91508190509392505050565b600060208201905061244e6000830184611fac565b92915050565b60006040820190506124696000830185611fac565b612476602083018461238c565b9392505050565b600060408201905081810360008301526124978185612047565b905081810360208301526124ab8184611fd2565b90509392505050565b60006020820190506124c960008301846120a5565b92915050565b60006020820190506124e460008301846120b4565b92915050565b60006020820190506124ff60008301846120c3565b92915050565b600060208201905061251a60008301846120d2565b92915050565b600060208201905061253560008301846120e1565b92915050565b600060208201905081810360008301526125558184612129565b905092915050565b6000602082019050818103600083015261257681612193565b9050919050565b60006020820190508181036000830152612596816121d9565b9050919050565b600060208201905081810360008301526125b6816121fc565b9050919050565b600060208201905081810360008301526125d68161221f565b9050919050565b600060208201905081810360008301526125f681612242565b9050919050565b60006020820190508181036000830152612616816122ab565b9050919050565b60006020820190508181036000830152612636816122ce565b9050919050565b60006020820190508181036000830152612656816122f1565b9050919050565b600060208201905081810360008301526126768161235a565b9050919050565b6000602082019050612692600083018461238c565b92915050565b60006060820190506126ad600083018661238c565b6126ba602083018561238c565b6126c760408301846120a5565b949350505050565b60006126d96126ea565b90506126e58282612a92565b919050565b6000604051905090565b600067ffffffffffffffff82111561270f5761270e612b4f565b5b602082029050602081019050919050565b600067ffffffffffffffff82111561273b5761273a612b4f565b5b602082029050602081019050919050565b600067ffffffffffffffff82111561276757612766612b4f565b5b61277082612b7e565b9050602081019050919050565b6000819050602082019050919050565b6000819050602082019050919050565b600081519050919050565b600081519050919050565b600081519050919050565b6000602082019050919050565b6000602082019050919050565b600082825260208201905092915050565b600082825260208201905092915050565b600082825260208201905092915050565b600082825260208201905092915050565b600081905092915050565b6000612832826129b0565b915061283d836129b0565b9250827fffffffffffffffffffffffffffffffffffffffffffffffffffffffffffffffff0382111561287257612871612af1565b5b828201905092915050565b6000612888826129b0565b9150612893836129b0565b9250826128a3576128a2612b20565b5b828204905092915050565b60006128b9826129b0565b91506128c4836129b0565b9250817fffffffffffffffffffffffffffffffffffffffffffffffffffffffffffffffff04831182151516156128fd576128fc612af1565b5b828202905092915050565b6000612913826129b0565b915061291e836129b0565b92508282101561293157612930612af1565b5b828203905092915050565b600061294782612990565b9050919050565b60008115159050919050565b6000819050919050565b60007fffffffff0000000000000000000000000000000000000000000000000000000082169050919050565b600073ffffffffffffffffffffffffffffffffffffffff82169050919050565b6000819050919050565b60006129c5826129cc565b9050919050565b60006129d782612990565b9050919050565b60006129e9826129f0565b9050919050565b60006129fb82612990565b9050919050565b6000612a0d82612a14565b9050919050565b6000612a1f82612990565b9050919050565b82818337600083830152505050565b60005b83811015612a53578082015181840152602081019050612a38565b83811115612a62576000848401525b50505050565b6000612a73826129b0565b91506000821415612a8757612a86612af1565b5b600182039050919050565b612a9b82612b7e565b810181811067ffffffffffffffff82111715612aba57612ab9612b4f565b5b80604052505050565b6000612ace82612ad5565b9050919050565b6000612ae082612b8f565b9050919050565b6000819050919050565b7f4e487b7100000000000000000000000000000000000000000000000000000000600052601160045260246000fd5b7f4e487b7100000000000000000000000000000000000000000000000000000000600052601260045260246000fd5b7f4e487b7100000000000000000000000000000000000000000000000000000000600052604160045260246000fd5b6000601f19601f8301169050919050565b60008160601b9050919050565b7f537472696e67733a20686578206c656e67746820696e73756666696369656e74600082015250565b7f4164647265737320000000000000000000000000000000000000000000000000600082015250565b7f43616e6e6f74206d696e7420746f20747265617375727920616464726573732060008201527f756e74696c2073616c652069732066696e697368656400000000000000000000602082015250565b7f74696d657374616d70206973206e6f742075702d746f2d646174650000000000600082015250565b7f53656e646572206973206e6f742053616c65204d616e61676572206f7220416460008201527f6d696e0000000000000000000000000000000000000000000000000000000000602082015250565b7f53656e646572206973206e6f7420555249204d616e61676572206f722041646d60008201527f696e000000000000000000000000000000000000000000000000000000000000602082015250565b7f2500000000000000000000000000000000000000000000000000000000000000600082015250565b7f20646f6573206e6f742068617665206120636f75706f6e20776974682061206460008201527f6973636f756e742072617465206f662000000000000000000000000000000000602082015250565b7f4e6f20746f6b656e73206c65667420746f206d696e7400000000000000000000600082015250565b7f737461727454696d65206973206c61746572207468616e20656e6454696d6500600082015250565b7f53656e646572206973206e6f7420506f73742d53616c65204d696e746572206f60008201527f722041646d696e00000000000000000000000000000000000000000000000000602082015250565b7f416363657373436f6e74726f6c3a206163636f756e7420000000000000000000600082015250565b7f206973206d697373696e6720726f6c6520000000000000000000000000000000600082015250565b7f416363657373436f6e74726f6c3a2063616e206f6e6c792072656e6f756e636560008201527f20726f6c657320666f722073656c660000000000000000000000000000000000602082015250565b612ec78161293c565b8114612ed257600080fd5b50565b612ede8161294e565b8114612ee957600080fd5b50565b612ef58161295a565b8114612f0057600080fd5b50565b612f0c81612964565b8114612f1757600080fd5b50565b612f23816129b0565b8114612f2e57600080fd5b5056fea26469706673582212205f8d8cbbc1effe2f3c09b068e435ff9a31646650902a6f72b668e1addc44013d64736f6c63430008010033",
			"opcodes": "PUSH1 0x80 PUSH1 0x40 MSTORE PUSH4 0x70DC4900 PUSH1 0x5 SSTORE PUSH4 0x70DC4964 PUSH1 0x6 SSTORE PUSH3 0xF4240 PUSH1 0xA PUSH3 0x26 SWAP2 SWAP1 PUSH3 0xAA JUMP JUMPDEST PUSH1 0x7 SSTORE PUSH3 0xF4240 PUSH1 0x1 PUSH3 0x3B SWAP2 SWAP1 PUSH3 0xAA JUMP JUMPDEST PUSH1 0x8 SSTORE PUSH1 0x40 MLOAD DUP1 PUSH1 0x60 ADD PUSH1 0x40 MSTORE DUP1 PUSH2 0x2710 DUP2 MSTORE PUSH1 0x20 ADD TIMESTAMP DUP2 MSTORE PUSH1 0x20 ADD PUSH1 0x0 ISZERO ISZERO DUP2 MSTORE POP PUSH1 0x9 PUSH1 0x0 DUP3 ADD MLOAD DUP2 PUSH1 0x0 ADD SSTORE PUSH1 0x20 DUP3 ADD MLOAD DUP2 PUSH1 0x1 ADD SSTORE PUSH1 0x40 DUP3 ADD MLOAD DUP2 PUSH1 0x2 ADD PUSH1 0x0 PUSH2 0x100 EXP DUP2 SLOAD DUP2 PUSH1 0xFF MUL NOT AND SWAP1 DUP4 ISZERO ISZERO MUL OR SWAP1 SSTORE POP POP POP CALLVALUE DUP1 ISZERO PUSH3 0xA3 JUMPI PUSH1 0x0 DUP1 REVERT JUMPDEST POP PUSH3 0x144 JUMP JUMPDEST PUSH1 0x0 PUSH3 0xB7 DUP3 PUSH3 0x10B JUMP JUMPDEST SWAP2 POP PUSH3 0xC4 DUP4 PUSH3 0x10B JUMP JUMPDEST SWAP3 POP DUP2 PUSH32 0xFFFFFFFFFFFFFFFFFFFFFFFFFFFFFFFFFFFFFFFFFFFFFFFFFFFFFFFFFFFFFFFF DIV DUP4 GT DUP3 ISZERO ISZERO AND ISZERO PUSH3 0x100 JUMPI PUSH3 0xFF PUSH3 0x115 JUMP JUMPDEST JUMPDEST DUP3 DUP3 MUL SWAP1 POP SWAP3 SWAP2 POP POP JUMP JUMPDEST PUSH1 0x0 DUP2 SWAP1 POP SWAP2 SWAP1 POP JUMP JUMPDEST PUSH32 0x4E487B7100000000000000000000000000000000000000000000000000000000 PUSH1 0x0 MSTORE PUSH1 0x11 PUSH1 0x4 MSTORE PUSH1 0x24 PUSH1 0x0 REVERT JUMPDEST PUSH2 0x2F67 DUP1 PUSH3 0x154 PUSH1 0x0 CODECOPY PUSH1 0x0 RETURN INVALID PUSH1 0x80 PUSH1 0x40 MSTORE CALLVALUE DUP1 ISZERO PUSH2 0x10 JUMPI PUSH1 0x0 DUP1 REVERT JUMPDEST POP PUSH1 0x4 CALLDATASIZE LT PUSH2 0x1DA JUMPI PUSH1 0x0 CALLDATALOAD PUSH1 0xE0 SHR DUP1 PUSH4 0x944044A1 GT PUSH2 0x104 JUMPI DUP1 PUSH4 0xC0463711 GT PUSH2 0xA2 JUMPI DUP1 PUSH4 0xD547741F GT PUSH2 0x71 JUMPI DUP1 PUSH4 0xD547741F EQ PUSH2 0x50F JUMPI DUP1 PUSH4 0xDD8134AC EQ PUSH2 0x52B JUMPI DUP1 PUSH4 0xF121DA92 EQ PUSH2 0x547 JUMPI DUP1 PUSH4 0xF715DFCA EQ PUSH2 0x563 JUMPI PUSH2 0x1DA JUMP JUMPDEST DUP1 PUSH4 0xC0463711 EQ PUSH2 0x497 JUMPI DUP1 PUSH4 0xC5DAE48F EQ PUSH2 0x4B7 JUMPI DUP1 PUSH4 0xC5F956AF EQ PUSH2 0x4D5 JUMPI DUP1 PUSH4 0xCCB98FFC EQ PUSH2 0x4F3 JUMPI PUSH2 0x1DA JUMP JUMPDEST DUP1 PUSH4 0xAB6C0306 GT PUSH2 0xDE JUMPI DUP1 PUSH4 0xAB6C0306 EQ PUSH2 0x425 JUMPI DUP1 PUSH4 0xB5E33F76 EQ PUSH2 0x455 JUMPI DUP1 PUSH4 0xBEBE2173 EQ PUSH2 0x471 JUMPI DUP1 PUSH4 0xBFF29CEE EQ PUSH2 0x48D JUMPI PUSH2 0x1DA JUMP JUMPDEST DUP1 PUSH4 0x944044A1 EQ PUSH2 0x3CD JUMPI DUP1 PUSH4 0xA217FDDF EQ PUSH2 0x3E9 JUMPI DUP1 PUSH4 0xA77F0C48 EQ PUSH2 0x407 JUMPI PUSH2 0x1DA JUMP JUMPDEST DUP1 PUSH4 0x4C9B73DA GT PUSH2 0x17C JUMPI DUP1 PUSH4 0x682D07D9 GT PUSH2 0x14B JUMPI DUP1 PUSH4 0x682D07D9 EQ PUSH2 0x343 JUMPI DUP1 PUSH4 0x68FC01A2 EQ PUSH2 0x361 JUMPI DUP1 PUSH4 0x8C83FAEB EQ PUSH2 0x37F JUMPI DUP1 PUSH4 0x91D14854 EQ PUSH2 0x39D JUMPI PUSH2 0x1DA JUMP JUMPDEST DUP1 PUSH4 0x4C9B73DA EQ PUSH2 0x2CF JUMPI DUP1 PUSH4 0x4E0DDFF9 EQ PUSH2 0x2EB JUMPI DUP1 PUSH4 0x551B42A8 EQ PUSH2 0x307 JUMPI DUP1 PUSH4 0x5CE7E721 EQ PUSH2 0x325 JUMPI PUSH2 0x1DA JUMP JUMPDEST DUP1 PUSH4 0x2F2FF15D GT PUSH2 0x1B8 JUMPI DUP1 PUSH4 0x2F2FF15D EQ PUSH2 0x249 JUMPI DUP1 PUSH4 0x36568ABE EQ PUSH2 0x265 JUMPI DUP1 PUSH4 0x432C7C5D EQ PUSH2 0x281 JUMPI DUP1 PUSH4 0x4C0F38C2 EQ PUSH2 0x2B1 JUMPI PUSH2 0x1DA JUMP JUMPDEST DUP1 PUSH4 0x1FFC9A7 EQ PUSH2 0x1DF JUMPI DUP1 PUSH4 0x248A9CA3 EQ PUSH2 0x20F JUMPI DUP1 PUSH4 0x26116D47 EQ PUSH2 0x23F JUMPI JUMPDEST PUSH1 0x0 DUP1 REVERT JUMPDEST PUSH2 0x1F9 PUSH1 0x4 DUP1 CALLDATASIZE SUB DUP2 ADD SWAP1 PUSH2 0x1F4 SWAP2 SWAP1 PUSH2 0x1F05 JUMP JUMPDEST PUSH2 0x56D JUMP JUMPDEST PUSH1 0x40 MLOAD PUSH2 0x206 SWAP2 SWAP1 PUSH2 0x24B4 JUMP JUMPDEST PUSH1 0x40 MLOAD DUP1 SWAP2 SUB SWAP1 RETURN JUMPDEST PUSH2 0x229 PUSH1 0x4 DUP1 CALLDATASIZE SUB DUP2 ADD SWAP1 PUSH2 0x224 SWAP2 SWAP1 PUSH2 0x1EA0 JUMP JUMPDEST PUSH2 0x5E7 JUMP JUMPDEST PUSH1 0x40 MLOAD PUSH2 0x236 SWAP2 SWAP1 PUSH2 0x24CF JUMP JUMPDEST PUSH1 0x40 MLOAD DUP1 SWAP2 SUB SWAP1 RETURN JUMPDEST PUSH2 0x247 PUSH2 0x606 JUMP JUMPDEST STOP JUMPDEST PUSH2 0x263 PUSH1 0x4 DUP1 CALLDATASIZE SUB DUP2 ADD SWAP1 PUSH2 0x25E SWAP2 SWAP1 PUSH2 0x1EC9 JUMP JUMPDEST PUSH2 0x794 JUMP JUMPDEST STOP JUMPDEST PUSH2 0x27F PUSH1 0x4 DUP1 CALLDATASIZE SUB DUP2 ADD SWAP1 PUSH2 0x27A SWAP2 SWAP1 PUSH2 0x1EC9 JUMP JUMPDEST PUSH2 0x7BD JUMP JUMPDEST STOP JUMPDEST PUSH2 0x29B PUSH1 0x4 DUP1 CALLDATASIZE SUB DUP2 ADD SWAP1 PUSH2 0x296 SWAP2 SWAP1 PUSH2 0x1DCF JUMP JUMPDEST PUSH2 0x840 JUMP JUMPDEST PUSH1 0x40 MLOAD PUSH2 0x2A8 SWAP2 SWAP1 PUSH2 0x267D JUMP JUMPDEST PUSH1 0x40 MLOAD DUP1 SWAP2 SUB SWAP1 RETURN JUMPDEST PUSH2 0x2B9 PUSH2 0x85C JUMP JUMPDEST PUSH1 0x40 MLOAD PUSH2 0x2C6 SWAP2 SWAP1 PUSH2 0x267D JUMP JUMPDEST PUSH1 0x40 MLOAD DUP1 SWAP2 SUB SWAP1 RETURN JUMPDEST PUSH2 0x2E9 PUSH1 0x4 DUP1 CALLDATASIZE SUB DUP2 ADD SWAP1 PUSH2 0x2E4 SWAP2 SWAP1 PUSH2 0x1F2E JUMP JUMPDEST PUSH2 0x903 JUMP JUMPDEST STOP JUMPDEST PUSH2 0x305 PUSH1 0x4 DUP1 CALLDATASIZE SUB DUP2 ADD SWAP1 PUSH2 0x300 SWAP2 SWAP1 PUSH2 0x1F2E JUMP JUMPDEST PUSH2 0x926 JUMP JUMPDEST STOP JUMPDEST PUSH2 0x30F PUSH2 0xAC6 JUMP JUMPDEST PUSH1 0x40 MLOAD PUSH2 0x31C SWAP2 SWAP1 PUSH2 0x24CF JUMP JUMPDEST PUSH1 0x40 MLOAD DUP1 SWAP2 SUB SWAP1 RETURN JUMPDEST PUSH2 0x32D PUSH2 0xAEA JUMP JUMPDEST PUSH1 0x40 MLOAD PUSH2 0x33A SWAP2 SWAP1 PUSH2 0x2505 JUMP JUMPDEST PUSH1 0x40 MLOAD DUP1 SWAP2 SUB SWAP1 RETURN JUMPDEST PUSH2 0x34B PUSH2 0xB10 JUMP JUMPDEST PUSH1 0x40 MLOAD PUSH2 0x358 SWAP2 SWAP1 PUSH2 0x24CF JUMP JUMPDEST PUSH1 0x40 MLOAD DUP1 SWAP2 SUB SWAP1 RETURN JUMPDEST PUSH2 0x369 PUSH2 0xB34 JUMP JUMPDEST PUSH1 0x40 MLOAD PUSH2 0x376 SWAP2 SWAP1 PUSH2 0x267D JUMP JUMPDEST PUSH1 0x40 MLOAD DUP1 SWAP2 SUB SWAP1 RETURN JUMPDEST PUSH2 0x387 PUSH2 0xBDB JUMP JUMPDEST PUSH1 0x40 MLOAD PUSH2 0x394 SWAP2 SWAP1 PUSH2 0x24EA JUMP JUMPDEST PUSH1 0x40 MLOAD DUP1 SWAP2 SUB SWAP1 RETURN JUMPDEST PUSH2 0x3B7 PUSH1 0x4 DUP1 CALLDATASIZE SUB DUP2 ADD SWAP1 PUSH2 0x3B2 SWAP2 SWAP1 PUSH2 0x1EC9 JUMP JUMPDEST PUSH2 0xC01 JUMP JUMPDEST PUSH1 0x40 MLOAD PUSH2 0x3C4 SWAP2 SWAP1 PUSH2 0x24B4 JUMP JUMPDEST PUSH1 0x40 MLOAD DUP1 SWAP2 SUB SWAP1 RETURN JUMPDEST PUSH2 0x3E7 PUSH1 0x4 DUP1 CALLDATASIZE SUB DUP2 ADD SWAP1 PUSH2 0x3E2 SWAP2 SWAP1 PUSH2 0x1F2E JUMP JUMPDEST PUSH2 0xC6B JUMP JUMPDEST STOP JUMPDEST PUSH2 0x3F1 PUSH2 0xD00 JUMP JUMPDEST PUSH1 0x40 MLOAD PUSH2 0x3FE SWAP2 SWAP1 PUSH2 0x24CF JUMP JUMPDEST PUSH1 0x40 MLOAD DUP1 SWAP2 SUB SWAP1 RETURN JUMPDEST PUSH2 0x40F PUSH2 0xD07 JUMP JUMPDEST PUSH1 0x40 MLOAD PUSH2 0x41C SWAP2 SWAP1 PUSH2 0x24CF JUMP JUMPDEST PUSH1 0x40 MLOAD DUP1 SWAP2 SUB SWAP1 RETURN JUMPDEST PUSH2 0x43F PUSH1 0x4 DUP1 CALLDATASIZE SUB DUP2 ADD SWAP1 PUSH2 0x43A SWAP2 SWAP1 PUSH2 0x1DCF JUMP JUMPDEST PUSH2 0xD2B JUMP JUMPDEST PUSH1 0x40 MLOAD PUSH2 0x44C SWAP2 SWAP1 PUSH2 0x267D JUMP JUMPDEST PUSH1 0x40 MLOAD DUP1 SWAP2 SUB SWAP1 RETURN JUMPDEST PUSH2 0x46F PUSH1 0x4 DUP1 CALLDATASIZE SUB DUP2 ADD SWAP1 PUSH2 0x46A SWAP2 SWAP1 PUSH2 0x1DA6 JUMP JUMPDEST PUSH2 0xEBC JUMP JUMPDEST STOP JUMPDEST PUSH2 0x48B PUSH1 0x4 DUP1 CALLDATASIZE SUB DUP2 ADD SWAP1 PUSH2 0x486 SWAP2 SWAP1 PUSH2 0x1DA6 JUMP JUMPDEST PUSH2 0xF16 JUMP JUMPDEST STOP JUMPDEST PUSH2 0x495 PUSH2 0xF70 JUMP JUMPDEST STOP JUMPDEST PUSH2 0x49F PUSH2 0xF8E JUMP JUMPDEST PUSH1 0x40 MLOAD PUSH2 0x4AE SWAP4 SWAP3 SWAP2 SWAP1 PUSH2 0x2698 JUMP JUMPDEST PUSH1 0x40 MLOAD DUP1 SWAP2 SUB SWAP1 RETURN JUMPDEST PUSH2 0x4BF PUSH2 0xFB3 JUMP JUMPDEST PUSH1 0x40 MLOAD PUSH2 0x4CC SWAP2 SWAP1 PUSH2 0x2520 JUMP JUMPDEST PUSH1 0x40 MLOAD DUP1 SWAP2 SUB SWAP1 RETURN JUMPDEST PUSH2 0x4DD PUSH2 0xFD9 JUMP JUMPDEST PUSH1 0x40 MLOAD PUSH2 0x4EA SWAP2 SWAP1 PUSH2 0x2439 JUMP JUMPDEST PUSH1 0x40 MLOAD DUP1 SWAP2 SUB SWAP1 RETURN JUMPDEST PUSH2 0x50D PUSH1 0x4 DUP1 CALLDATASIZE SUB DUP2 ADD SWAP1 PUSH2 0x508 SWAP2 SWAP1 PUSH2 0x1F2E JUMP JUMPDEST PUSH2 0xFFF JUMP JUMPDEST STOP JUMPDEST PUSH2 0x529 PUSH1 0x4 DUP1 CALLDATASIZE SUB DUP2 ADD SWAP1 PUSH2 0x524 SWAP2 SWAP1 PUSH2 0x1EC9 JUMP JUMPDEST PUSH2 0x1094 JUMP JUMPDEST STOP JUMPDEST PUSH2 0x545 PUSH1 0x4 DUP1 CALLDATASIZE SUB DUP2 ADD SWAP1 PUSH2 0x540 SWAP2 SWAP1 PUSH2 0x1DA6 JUMP JUMPDEST PUSH2 0x10BD JUMP JUMPDEST STOP JUMPDEST PUSH2 0x561 PUSH1 0x4 DUP1 CALLDATASIZE SUB DUP2 ADD SWAP1 PUSH2 0x55C SWAP2 SWAP1 PUSH2 0x1E0B JUMP JUMPDEST PUSH2 0x1117 JUMP JUMPDEST STOP JUMPDEST PUSH2 0x56B PUSH2 0x1235 JUMP JUMPDEST STOP JUMPDEST PUSH1 0x0 PUSH32 0x7965DB0B00000000000000000000000000000000000000000000000000000000 PUSH28 0xFFFFFFFFFFFFFFFFFFFFFFFFFFFFFFFFFFFFFFFFFFFFFFFFFFFFFFFF NOT AND DUP3 PUSH28 0xFFFFFFFFFFFFFFFFFFFFFFFFFFFFFFFFFFFFFFFFFFFFFFFFFFFFFFFF NOT AND EQ DUP1 PUSH2 0x5E0 JUMPI POP PUSH2 0x5DF DUP3 PUSH2 0x139D JUMP JUMPDEST JUMPDEST SWAP1 POP SWAP2 SWAP1 POP JUMP JUMPDEST PUSH1 0x0 DUP1 PUSH1 0x0 DUP4 DUP2 MSTORE PUSH1 0x20 ADD SWAP1 DUP2 MSTORE PUSH1 0x20 ADD PUSH1 0x0 KECCAK256 PUSH1 0x1 ADD SLOAD SWAP1 POP SWAP2 SWAP1 POP JUMP JUMPDEST PUSH2 0x60E PUSH2 0x1407 JUMP JUMPDEST PUSH2 0x63F PUSH32 0xBD1D99152BDBA889F82A18DEF1423AAC13658B88B6EA933FFD0B3A6A1DD5CFF9 PUSH2 0x63A PUSH2 0x14FF JUMP JUMPDEST PUSH2 0xC01 JUMP JUMPDEST DUP1 PUSH2 0x65A JUMPI POP PUSH2 0x659 PUSH1 0x0 DUP1 SHL PUSH2 0x654 PUSH2 0x14FF JUMP JUMPDEST PUSH2 0xC01 JUMP JUMPDEST JUMPDEST PUSH2 0x699 JUMPI PUSH1 0x40 MLOAD PUSH32 0x8C379A000000000000000000000000000000000000000000000000000000000 DUP2 MSTORE PUSH1 0x4 ADD PUSH2 0x690 SWAP1 PUSH2 0x263D JUMP JUMPDEST PUSH1 0x40 MLOAD DUP1 SWAP2 SUB SWAP1 REVERT JUMPDEST PUSH1 0x6 SLOAD TIMESTAMP GT DUP1 ISZERO PUSH2 0x6BA JUMPI POP PUSH1 0x9 PUSH1 0x2 ADD PUSH1 0x0 SWAP1 SLOAD SWAP1 PUSH2 0x100 EXP SWAP1 DIV PUSH1 0xFF AND ISZERO JUMPDEST PUSH2 0x6F9 JUMPI PUSH1 0x40 MLOAD PUSH32 0x8C379A000000000000000000000000000000000000000000000000000000000 DUP2 MSTORE PUSH1 0x4 ADD PUSH2 0x6F0 SWAP1 PUSH2 0x257D JUMP JUMPDEST PUSH1 0x40 MLOAD DUP1 SWAP2 SUB SWAP1 REVERT JUMPDEST PUSH1 0x0 PUSH1 0x1 PUSH2 0x705 PUSH2 0xB34 JUMP JUMPDEST PUSH2 0x70F SWAP2 SWAP1 PUSH2 0x2908 JUMP JUMPDEST PUSH2 0x717 PUSH2 0x85C JUMP JUMPDEST PUSH2 0x721 SWAP2 SWAP1 PUSH2 0x2908 JUMP JUMPDEST SWAP1 POP PUSH1 0x0 DUP2 GT PUSH2 0x766 JUMPI PUSH1 0x40 MLOAD PUSH32 0x8C379A000000000000000000000000000000000000000000000000000000000 DUP2 MSTORE PUSH1 0x4 ADD PUSH2 0x75D SWAP1 PUSH2 0x25FD JUMP JUMPDEST PUSH1 0x40 MLOAD DUP1 SWAP2 SUB SWAP1 REVERT JUMPDEST PUSH2 0x791 PUSH1 0x4 PUSH1 0x0 SWAP1 SLOAD SWAP1 PUSH2 0x100 EXP SWAP1 DIV PUSH20 0xFFFFFFFFFFFFFFFFFFFFFFFFFFFFFFFFFFFFFFFF AND PUSH2 0x1507 JUMP JUMPDEST POP JUMP JUMPDEST PUSH2 0x79D DUP3 PUSH2 0x5E7 JUMP JUMPDEST PUSH2 0x7AE DUP2 PUSH2 0x7A9 PUSH2 0x14FF JUMP JUMPDEST PUSH2 0x1597 JUMP JUMPDEST PUSH2 0x7B8 DUP4 DUP4 PUSH2 0x1634 JUMP JUMPDEST POP POP POP JUMP JUMPDEST PUSH2 0x7C5 PUSH2 0x14FF JUMP JUMPDEST PUSH20 0xFFFFFFFFFFFFFFFFFFFFFFFFFFFFFFFFFFFFFFFF AND DUP2 PUSH20 0xFFFFFFFFFFFFFFFFFFFFFFFFFFFFFFFFFFFFFFFF AND EQ PUSH2 0x832 JUMPI PUSH1 0x40 MLOAD PUSH32 0x8C379A000000000000000000000000000000000000000000000000000000000 DUP2 MSTORE PUSH1 0x4 ADD PUSH2 0x829 SWAP1 PUSH2 0x265D JUMP JUMPDEST PUSH1 0x40 MLOAD DUP1 SWAP2 SUB SWAP1 REVERT JUMPDEST PUSH2 0x83C DUP3 DUP3 PUSH2 0x1714 JUMP JUMPDEST POP POP JUMP JUMPDEST PUSH1 0x0 PUSH2 0x84A PUSH2 0x1407 JUMP JUMPDEST PUSH2 0x854 DUP4 DUP4 PUSH2 0xD2B JUMP JUMPDEST SWAP1 POP SWAP3 SWAP2 POP POP JUMP JUMPDEST PUSH1 0x0 PUSH1 0x1 PUSH1 0x0 SWAP1 SLOAD SWAP1 PUSH2 0x100 EXP SWAP1 DIV PUSH20 0xFFFFFFFFFFFFFFFFFFFFFFFFFFFFFFFFFFFFFFFF AND PUSH20 0xFFFFFFFFFFFFFFFFFFFFFFFFFFFFFFFFFFFFFFFF AND PUSH4 0x4C0F38C2 PUSH1 0x40 MLOAD DUP2 PUSH4 0xFFFFFFFF AND PUSH1 0xE0 SHL DUP2 MSTORE PUSH1 0x4 ADD PUSH1 0x20 PUSH1 0x40 MLOAD DUP1 DUP4 SUB DUP2 DUP7 DUP1 EXTCODESIZE ISZERO DUP1 ISZERO PUSH2 0x8C6 JUMPI PUSH1 0x0 DUP1 REVERT JUMPDEST POP GAS STATICCALL ISZERO DUP1 ISZERO PUSH2 0x8DA JUMPI RETURNDATASIZE PUSH1 0x0 DUP1 RETURNDATACOPY RETURNDATASIZE PUSH1 0x0 REVERT JUMPDEST POP POP POP POP PUSH1 0x40 MLOAD RETURNDATASIZE PUSH1 0x1F NOT PUSH1 0x1F DUP3 ADD AND DUP3 ADD DUP1 PUSH1 0x40 MSTORE POP DUP2 ADD SWAP1 PUSH2 0x8FE SWAP2 SWAP1 PUSH2 0x1F57 JUMP JUMPDEST SWAP1 POP SWAP1 JUMP JUMPDEST PUSH2 0x90B PUSH2 0x1407 JUMP JUMPDEST PUSH1 0x0 PUSH2 0x917 CALLER DUP4 PUSH2 0xD2B JUMP JUMPDEST SWAP1 POP PUSH2 0x922 DUP2 PUSH2 0x17F5 JUMP JUMPDEST POP POP JUMP JUMPDEST PUSH2 0x92E PUSH2 0x1407 JUMP JUMPDEST PUSH2 0x95F PUSH32 0xBD1D99152BDBA889F82A18DEF1423AAC13658B88B6EA933FFD0B3A6A1DD5CFF9 PUSH2 0x95A PUSH2 0x14FF JUMP JUMPDEST PUSH2 0xC01 JUMP JUMPDEST DUP1 PUSH2 0x97A JUMPI POP PUSH2 0x979 PUSH1 0x0 DUP1 SHL PUSH2 0x974 PUSH2 0x14FF JUMP JUMPDEST PUSH2 0xC01 JUMP JUMPDEST JUMPDEST PUSH2 0x9B9 JUMPI PUSH1 0x40 MLOAD PUSH32 0x8C379A000000000000000000000000000000000000000000000000000000000 DUP2 MSTORE PUSH1 0x4 ADD PUSH2 0x9B0 SWAP1 PUSH2 0x263D JUMP JUMPDEST PUSH1 0x40 MLOAD DUP1 SWAP2 SUB SWAP1 REVERT JUMPDEST PUSH1 0x6 SLOAD TIMESTAMP GT DUP1 ISZERO PUSH2 0x9DA JUMPI POP PUSH1 0x9 PUSH1 0x2 ADD PUSH1 0x0 SWAP1 SLOAD SWAP1 PUSH2 0x100 EXP SWAP1 DIV PUSH1 0xFF AND ISZERO JUMPDEST PUSH2 0xA19 JUMPI PUSH1 0x40 MLOAD PUSH32 0x8C379A000000000000000000000000000000000000000000000000000000000 DUP2 MSTORE PUSH1 0x4 ADD PUSH2 0xA10 SWAP1 PUSH2 0x257D JUMP JUMPDEST PUSH1 0x40 MLOAD DUP1 SWAP2 SUB SWAP1 REVERT JUMPDEST PUSH1 0x0 PUSH1 0x1 PUSH2 0xA25 PUSH2 0xB34 JUMP JUMPDEST PUSH2 0xA2F SWAP2 SWAP1 PUSH2 0x2908 JUMP JUMPDEST PUSH2 0xA37 PUSH2 0x85C JUMP JUMPDEST PUSH2 0xA41 SWAP2 SWAP1 PUSH2 0x2908 JUMP JUMPDEST SWAP1 POP PUSH2 0xA4D DUP2 DUP4 PUSH2 0x1890 JUMP JUMPDEST SWAP1 POP JUMPDEST PUSH1 0x0 DUP2 GT ISZERO PUSH2 0xA97 JUMPI PUSH2 0xA84 PUSH1 0x4 PUSH1 0x0 SWAP1 SLOAD SWAP1 PUSH2 0x100 EXP SWAP1 DIV PUSH20 0xFFFFFFFFFFFFFFFFFFFFFFFFFFFFFFFFFFFFFFFF AND PUSH2 0x1507 JUMP JUMPDEST DUP1 DUP1 PUSH2 0xA8F SWAP1 PUSH2 0x2A68 JUMP JUMPDEST SWAP2 POP POP PUSH2 0xA50 JUMP JUMPDEST PUSH2 0xAC2 PUSH1 0x4 PUSH1 0x0 SWAP1 SLOAD SWAP1 PUSH2 0x100 EXP SWAP1 DIV PUSH20 0xFFFFFFFFFFFFFFFFFFFFFFFFFFFFFFFFFFFFFFFF AND PUSH2 0x1507 JUMP JUMPDEST POP POP JUMP JUMPDEST PUSH32 0x988301AF8238F779281A300DE031815CD01B48E9F1AE47A0F91ED6584213624A DUP2 JUMP JUMPDEST PUSH1 0x2 PUSH1 0x0 SWAP1 SLOAD SWAP1 PUSH2 0x100 EXP SWAP1 DIV PUSH20 0xFFFFFFFFFFFFFFFFFFFFFFFFFFFFFFFFFFFFFFFF AND DUP2 JUMP JUMPDEST PUSH32 0xA70A2D8710FED9F014C8C2AF50C7C2F6B25748AE4CDED822E03B7BEED44CF3A8 DUP2 JUMP JUMPDEST PUSH1 0x0 PUSH1 0x1 PUSH1 0x0 SWAP1 SLOAD SWAP1 PUSH2 0x100 EXP SWAP1 DIV PUSH20 0xFFFFFFFFFFFFFFFFFFFFFFFFFFFFFFFFFFFFFFFF AND PUSH20 0xFFFFFFFFFFFFFFFFFFFFFFFFFFFFFFFFFFFFFFFF AND PUSH4 0x68FC01A2 PUSH1 0x40 MLOAD DUP2 PUSH4 0xFFFFFFFF AND PUSH1 0xE0 SHL DUP2 MSTORE PUSH1 0x4 ADD PUSH1 0x20 PUSH1 0x40 MLOAD DUP1 DUP4 SUB DUP2 DUP7 DUP1 EXTCODESIZE ISZERO DUP1 ISZERO PUSH2 0xB9E JUMPI PUSH1 0x0 DUP1 REVERT JUMPDEST POP GAS STATICCALL ISZERO DUP1 ISZERO PUSH2 0xBB2 JUMPI RETURNDATASIZE PUSH1 0x0 DUP1 RETURNDATACOPY RETURNDATASIZE PUSH1 0x0 REVERT JUMPDEST POP POP POP POP PUSH1 0x40 MLOAD RETURNDATASIZE PUSH1 0x1F NOT PUSH1 0x1F DUP3 ADD AND DUP3 ADD DUP1 PUSH1 0x40 MSTORE POP DUP2 ADD SWAP1 PUSH2 0xBD6 SWAP2 SWAP1 PUSH2 0x1F57 JUMP JUMPDEST SWAP1 POP SWAP1 JUMP JUMPDEST PUSH1 0x1 PUSH1 0x0 SWAP1 SLOAD SWAP1 PUSH2 0x100 EXP SWAP1 DIV PUSH20 0xFFFFFFFFFFFFFFFFFFFFFFFFFFFFFFFFFFFFFFFF AND DUP2 JUMP JUMPDEST PUSH1 0x0 DUP1 PUSH1 0x0 DUP5 DUP2 MSTORE PUSH1 0x20 ADD SWAP1 DUP2 MSTORE PUSH1 0x20 ADD PUSH1 0x0 KECCAK256 PUSH1 0x0 ADD PUSH1 0x0 DUP4 PUSH20 0xFFFFFFFFFFFFFFFFFFFFFFFFFFFFFFFFFFFFFFFF AND PUSH20 0xFFFFFFFFFFFFFFFFFFFFFFFFFFFFFFFFFFFFFFFF AND DUP2 MSTORE PUSH1 0x20 ADD SWAP1 DUP2 MSTORE PUSH1 0x20 ADD PUSH1 0x0 KECCAK256 PUSH1 0x0 SWAP1 SLOAD SWAP1 PUSH2 0x100 EXP SWAP1 DIV PUSH1 0xFF AND SWAP1 POP SWAP3 SWAP2 POP POP JUMP JUMPDEST PUSH2 0xC9C PUSH32 0x988301AF8238F779281A300DE031815CD01B48E9F1AE47A0F91ED6584213624A PUSH2 0xC97 PUSH2 0x14FF JUMP JUMPDEST PUSH2 0xC01 JUMP JUMPDEST DUP1 PUSH2 0xCB7 JUMPI POP PUSH2 0xCB6 PUSH1 0x0 DUP1 SHL PUSH2 0xCB1 PUSH2 0x14FF JUMP JUMPDEST PUSH2 0xC01 JUMP JUMPDEST JUMPDEST PUSH2 0xCF6 JUMPI PUSH1 0x40 MLOAD PUSH32 0x8C379A000000000000000000000000000000000000000000000000000000000 DUP2 MSTORE PUSH1 0x4 ADD PUSH2 0xCED SWAP1 PUSH2 0x25BD JUMP JUMPDEST PUSH1 0x40 MLOAD DUP1 SWAP2 SUB SWAP1 REVERT JUMPDEST DUP1 PUSH1 0x5 DUP2 SWAP1 SSTORE POP POP JUMP JUMPDEST PUSH1 0x0 DUP1 SHL DUP2 JUMP JUMPDEST PUSH32 0xBD1D99152BDBA889F82A18DEF1423AAC13658B88B6EA933FFD0B3A6A1DD5CFF9 DUP2 JUMP JUMPDEST PUSH1 0x0 TIMESTAMP PUSH1 0x9 PUSH1 0x1 ADD SLOAD EQ PUSH2 0xD74 JUMPI PUSH1 0x40 MLOAD PUSH32 0x8C379A000000000000000000000000000000000000000000000000000000000 DUP2 MSTORE PUSH1 0x4 ADD PUSH2 0xD6B SWAP1 PUSH2 0x259D JUMP JUMPDEST PUSH1 0x40 MLOAD DUP1 SWAP2 SUB SWAP1 REVERT JUMPDEST PUSH1 0x2 PUSH1 0x0 SWAP1 SLOAD SWAP1 PUSH2 0x100 EXP SWAP1 DIV PUSH20 0xFFFFFFFFFFFFFFFFFFFFFFFFFFFFFFFFFFFFFFFF AND PUSH20 0xFFFFFFFFFFFFFFFFFFFFFFFFFFFFFFFFFFFFFFFF AND PUSH4 0x2080179D DUP5 DUP5 PUSH1 0x40 MLOAD DUP4 PUSH4 0xFFFFFFFF AND PUSH1 0xE0 SHL DUP2 MSTORE PUSH1 0x4 ADD PUSH2 0xDD1 SWAP3 SWAP2 SWAP1 PUSH2 0x2454 JUMP JUMPDEST PUSH1 0x20 PUSH1 0x40 MLOAD DUP1 DUP4 SUB DUP2 DUP7 DUP1 EXTCODESIZE ISZERO DUP1 ISZERO PUSH2 0xDE9 JUMPI PUSH1 0x0 DUP1 REVERT JUMPDEST POP GAS STATICCALL ISZERO DUP1 ISZERO PUSH2 0xDFD JUMPI RETURNDATASIZE PUSH1 0x0 DUP1 RETURNDATACOPY RETURNDATASIZE PUSH1 0x0 REVERT JUMPDEST POP POP POP POP PUSH1 0x40 MLOAD RETURNDATASIZE PUSH1 0x1F NOT PUSH1 0x1F DUP3 ADD AND DUP3 ADD DUP1 PUSH1 0x40 MSTORE POP DUP2 ADD SWAP1 PUSH2 0xE21 SWAP2 SWAP1 PUSH2 0x1E77 JUMP JUMPDEST DUP4 DUP4 PUSH1 0x40 MLOAD PUSH1 0x20 ADD PUSH2 0xE34 SWAP3 SWAP2 SWAP1 PUSH2 0x23B2 JUMP JUMPDEST PUSH1 0x40 MLOAD PUSH1 0x20 DUP2 DUP4 SUB SUB DUP2 MSTORE SWAP1 PUSH1 0x40 MSTORE SWAP1 PUSH2 0xE84 JUMPI PUSH1 0x40 MLOAD PUSH32 0x8C379A000000000000000000000000000000000000000000000000000000000 DUP2 MSTORE PUSH1 0x4 ADD PUSH2 0xE7B SWAP2 SWAP1 PUSH2 0x253B JUMP JUMPDEST PUSH1 0x40 MLOAD DUP1 SWAP2 SUB SWAP1 REVERT JUMPDEST POP PUSH1 0x0 DUP3 PUSH1 0x64 PUSH2 0xE94 SWAP2 SWAP1 PUSH2 0x2908 JUMP JUMPDEST PUSH1 0x64 PUSH1 0x9 PUSH1 0x0 ADD SLOAD PUSH2 0xEA6 SWAP2 SWAP1 PUSH2 0x287D JUMP JUMPDEST PUSH2 0xEB0 SWAP2 SWAP1 PUSH2 0x28AE JUMP JUMPDEST SWAP1 POP DUP1 SWAP2 POP POP SWAP3 SWAP2 POP POP JUMP JUMPDEST PUSH1 0x0 DUP1 SHL PUSH2 0xED1 DUP2 PUSH2 0xECC PUSH2 0x14FF JUMP JUMPDEST PUSH2 0x1597 JUMP JUMPDEST DUP2 PUSH1 0x2 PUSH1 0x0 PUSH2 0x100 EXP DUP2 SLOAD DUP2 PUSH20 0xFFFFFFFFFFFFFFFFFFFFFFFFFFFFFFFFFFFFFFFF MUL NOT AND SWAP1 DUP4 PUSH20 0xFFFFFFFFFFFFFFFFFFFFFFFFFFFFFFFFFFFFFFFF AND MUL OR SWAP1 SSTORE POP POP POP JUMP JUMPDEST PUSH1 0x0 DUP1 SHL PUSH2 0xF2B DUP2 PUSH2 0xF26 PUSH2 0x14FF JUMP JUMPDEST PUSH2 0x1597 JUMP JUMPDEST DUP2 PUSH1 0x3 PUSH1 0x0 PUSH2 0x100 EXP DUP2 SLOAD DUP2 PUSH20 0xFFFFFFFFFFFFFFFFFFFFFFFFFFFFFFFFFFFFFFFF MUL NOT AND SWAP1 DUP4 PUSH20 0xFFFFFFFFFFFFFFFFFFFFFFFFFFFFFFFFFFFFFFFF AND MUL OR SWAP1 SSTORE POP POP POP JUMP JUMPDEST PUSH2 0xF78 PUSH2 0x1407 JUMP JUMPDEST PUSH1 0x0 PUSH1 0x9 PUSH1 0x0 ADD SLOAD SWAP1 POP PUSH2 0xF8B DUP2 PUSH2 0x17F5 JUMP JUMPDEST POP JUMP JUMPDEST PUSH1 0x9 DUP1 PUSH1 0x0 ADD SLOAD SWAP1 DUP1 PUSH1 0x1 ADD SLOAD SWAP1 DUP1 PUSH1 0x2 ADD PUSH1 0x0 SWAP1 SLOAD SWAP1 PUSH2 0x100 EXP SWAP1 DIV PUSH1 0xFF AND SWAP1 POP DUP4 JUMP JUMPDEST PUSH1 0x3 PUSH1 0x0 SWAP1 SLOAD SWAP1 PUSH2 0x100 EXP SWAP1 DIV PUSH20 0xFFFFFFFFFFFFFFFFFFFFFFFFFFFFFFFFFFFFFFFF AND DUP2 JUMP JUMPDEST PUSH1 0x4 PUSH1 0x0 SWAP1 SLOAD SWAP1 PUSH2 0x100 EXP SWAP1 DIV PUSH20 0xFFFFFFFFFFFFFFFFFFFFFFFFFFFFFFFFFFFFFFFF AND DUP2 JUMP JUMPDEST PUSH2 0x1030 PUSH32 0x988301AF8238F779281A300DE031815CD01B48E9F1AE47A0F91ED6584213624A PUSH2 0x102B PUSH2 0x14FF JUMP JUMPDEST PUSH2 0xC01 JUMP JUMPDEST DUP1 PUSH2 0x104B JUMPI POP PUSH2 0x104A PUSH1 0x0 DUP1 SHL PUSH2 0x1045 PUSH2 0x14FF JUMP JUMPDEST PUSH2 0xC01 JUMP JUMPDEST JUMPDEST PUSH2 0x108A JUMPI PUSH1 0x40 MLOAD PUSH32 0x8C379A000000000000000000000000000000000000000000000000000000000 DUP2 MSTORE PUSH1 0x4 ADD PUSH2 0x1081 SWAP1 PUSH2 0x25BD JUMP JUMPDEST PUSH1 0x40 MLOAD DUP1 SWAP2 SUB SWAP1 REVERT JUMPDEST DUP1 PUSH1 0x6 DUP2 SWAP1 SSTORE POP POP JUMP JUMPDEST PUSH2 0x109D DUP3 PUSH2 0x5E7 JUMP JUMPDEST PUSH2 0x10AE DUP2 PUSH2 0x10A9 PUSH2 0x14FF JUMP JUMPDEST PUSH2 0x1597 JUMP JUMPDEST PUSH2 0x10B8 DUP4 DUP4 PUSH2 0x1714 JUMP JUMPDEST POP POP POP JUMP JUMPDEST PUSH1 0x0 DUP1 SHL PUSH2 0x10D2 DUP2 PUSH2 0x10CD PUSH2 0x14FF JUMP JUMPDEST PUSH2 0x1597 JUMP JUMPDEST DUP2 PUSH1 0x1 PUSH1 0x0 PUSH2 0x100 EXP DUP2 SLOAD DUP2 PUSH20 0xFFFFFFFFFFFFFFFFFFFFFFFFFFFFFFFFFFFFFFFF MUL NOT AND SWAP1 DUP4 PUSH20 0xFFFFFFFFFFFFFFFFFFFFFFFFFFFFFFFFFFFFFFFF AND MUL OR SWAP1 SSTORE POP POP POP JUMP JUMPDEST PUSH2 0x1148 PUSH32 0xA70A2D8710FED9F014C8C2AF50C7C2F6B25748AE4CDED822E03B7BEED44CF3A8 PUSH2 0x1143 PUSH2 0x14FF JUMP JUMPDEST PUSH2 0xC01 JUMP JUMPDEST DUP1 PUSH2 0x1163 JUMPI POP PUSH2 0x1162 PUSH1 0x0 DUP1 SHL PUSH2 0x115D PUSH2 0x14FF JUMP JUMPDEST PUSH2 0xC01 JUMP JUMPDEST JUMPDEST PUSH2 0x11A2 JUMPI PUSH1 0x40 MLOAD PUSH32 0x8C379A000000000000000000000000000000000000000000000000000000000 DUP2 MSTORE PUSH1 0x4 ADD PUSH2 0x1199 SWAP1 PUSH2 0x25DD JUMP JUMPDEST PUSH1 0x40 MLOAD DUP1 SWAP2 SUB SWAP1 REVERT JUMPDEST PUSH1 0x1 PUSH1 0x0 SWAP1 SLOAD SWAP1 PUSH2 0x100 EXP SWAP1 DIV PUSH20 0xFFFFFFFFFFFFFFFFFFFFFFFFFFFFFFFFFFFFFFFF AND PUSH20 0xFFFFFFFFFFFFFFFFFFFFFFFFFFFFFFFFFFFFFFFF AND PUSH4 0xF121DA92 DUP4 DUP4 PUSH1 0x40 MLOAD DUP4 PUSH4 0xFFFFFFFF AND PUSH1 0xE0 SHL DUP2 MSTORE PUSH1 0x4 ADD PUSH2 0x11FF SWAP3 SWAP2 SWAP1 PUSH2 0x247D JUMP JUMPDEST PUSH1 0x0 PUSH1 0x40 MLOAD DUP1 DUP4 SUB DUP2 PUSH1 0x0 DUP8 DUP1 EXTCODESIZE ISZERO DUP1 ISZERO PUSH2 0x1219 JUMPI PUSH1 0x0 DUP1 REVERT JUMPDEST POP GAS CALL ISZERO DUP1 ISZERO PUSH2 0x122D JUMPI RETURNDATASIZE PUSH1 0x0 DUP1 RETURNDATACOPY RETURNDATASIZE PUSH1 0x0 REVERT JUMPDEST POP POP POP POP POP POP JUMP JUMPDEST PUSH2 0x123D PUSH2 0x1407 JUMP JUMPDEST PUSH2 0x126E PUSH32 0xBD1D99152BDBA889F82A18DEF1423AAC13658B88B6EA933FFD0B3A6A1DD5CFF9 PUSH2 0x1269 PUSH2 0x14FF JUMP JUMPDEST PUSH2 0xC01 JUMP JUMPDEST DUP1 PUSH2 0x1289 JUMPI POP PUSH2 0x1288 PUSH1 0x0 DUP1 SHL PUSH2 0x1283 PUSH2 0x14FF JUMP JUMPDEST PUSH2 0xC01 JUMP JUMPDEST JUMPDEST PUSH2 0x12C8 JUMPI PUSH1 0x40 MLOAD PUSH32 0x8C379A000000000000000000000000000000000000000000000000000000000 DUP2 MSTORE PUSH1 0x4 ADD PUSH2 0x12BF SWAP1 PUSH2 0x263D JUMP JUMPDEST PUSH1 0x40 MLOAD DUP1 SWAP2 SUB SWAP1 REVERT JUMPDEST PUSH1 0x6 SLOAD TIMESTAMP GT DUP1 ISZERO PUSH2 0x12E9 JUMPI POP PUSH1 0x9 PUSH1 0x2 ADD PUSH1 0x0 SWAP1 SLOAD SWAP1 PUSH2 0x100 EXP SWAP1 DIV PUSH1 0xFF AND ISZERO JUMPDEST PUSH2 0x1328 JUMPI PUSH1 0x40 MLOAD PUSH32 0x8C379A000000000000000000000000000000000000000000000000000000000 DUP2 MSTORE PUSH1 0x4 ADD PUSH2 0x131F SWAP1 PUSH2 0x257D JUMP JUMPDEST PUSH1 0x40 MLOAD DUP1 SWAP2 SUB SWAP1 REVERT JUMPDEST PUSH1 0x0 PUSH1 0x1 PUSH2 0x1334 PUSH2 0xB34 JUMP JUMPDEST PUSH2 0x133E SWAP2 SWAP1 PUSH2 0x2908 JUMP JUMPDEST PUSH2 0x1346 PUSH2 0x85C JUMP JUMPDEST PUSH2 0x1350 SWAP2 SWAP1 PUSH2 0x2908 JUMP JUMPDEST SWAP1 POP JUMPDEST PUSH1 0x0 DUP2 GT ISZERO PUSH2 0x139A JUMPI PUSH2 0x1387 PUSH1 0x4 PUSH1 0x0 SWAP1 SLOAD SWAP1 PUSH2 0x100 EXP SWAP1 DIV PUSH20 0xFFFFFFFFFFFFFFFFFFFFFFFFFFFFFFFFFFFFFFFF AND PUSH2 0x1507 JUMP JUMPDEST DUP1 DUP1 PUSH2 0x1392 SWAP1 PUSH2 0x2A68 JUMP JUMPDEST SWAP2 POP POP PUSH2 0x1353 JUMP JUMPDEST POP JUMP JUMPDEST PUSH1 0x0 PUSH32 0x1FFC9A700000000000000000000000000000000000000000000000000000000 PUSH28 0xFFFFFFFFFFFFFFFFFFFFFFFFFFFFFFFFFFFFFFFFFFFFFFFFFFFFFFFF NOT AND DUP3 PUSH28 0xFFFFFFFFFFFFFFFFFFFFFFFFFFFFFFFFFFFFFFFFFFFFFFFFFFFFFFFF NOT AND EQ SWAP1 POP SWAP2 SWAP1 POP JUMP JUMPDEST PUSH1 0x6 SLOAD PUSH1 0x5 SLOAD GT ISZERO PUSH2 0x144E JUMPI PUSH1 0x40 MLOAD PUSH32 0x8C379A000000000000000000000000000000000000000000000000000000000 DUP2 MSTORE PUSH1 0x4 ADD PUSH2 0x1445 SWAP1 PUSH2 0x261D JUMP JUMPDEST PUSH1 0x40 MLOAD DUP1 SWAP2 SUB SWAP1 REVERT JUMPDEST PUSH3 0xF4240 PUSH1 0x1 PUSH2 0x145E SWAP2 SWAP1 PUSH2 0x28AE JUMP JUMPDEST PUSH1 0x3C PUSH1 0x5 SLOAD TIMESTAMP PUSH2 0x146E SWAP2 SWAP1 PUSH2 0x2908 JUMP JUMPDEST PUSH2 0x1478 SWAP2 SWAP1 PUSH2 0x287D JUMP JUMPDEST PUSH2 0x1482 SWAP2 SWAP1 PUSH2 0x28AE JUMP JUMPDEST PUSH1 0x7 SLOAD PUSH2 0x148F SWAP2 SWAP1 PUSH2 0x2908 JUMP JUMPDEST PUSH1 0x9 PUSH1 0x0 ADD DUP2 SWAP1 SSTORE POP TIMESTAMP PUSH1 0x9 PUSH1 0x1 ADD DUP2 SWAP1 SSTORE POP PUSH1 0x5 SLOAD TIMESTAMP LT ISZERO DUP1 ISZERO PUSH2 0x14B6 JUMPI POP PUSH1 0x6 SLOAD TIMESTAMP GT ISZERO JUMPDEST ISZERO PUSH2 0x14DE JUMPI PUSH1 0x1 PUSH1 0x9 PUSH1 0x2 ADD PUSH1 0x0 PUSH2 0x100 EXP DUP2 SLOAD DUP2 PUSH1 0xFF MUL NOT AND SWAP1 DUP4 ISZERO ISZERO MUL OR SWAP1 SSTORE POP PUSH2 0x14FD JUMP JUMPDEST PUSH1 0x0 PUSH1 0x9 PUSH1 0x2 ADD PUSH1 0x0 PUSH2 0x100 EXP DUP2 SLOAD DUP2 PUSH1 0xFF MUL NOT AND SWAP1 DUP4 ISZERO ISZERO MUL OR SWAP1 SSTORE POP JUMPDEST JUMP JUMPDEST PUSH1 0x0 CALLER SWAP1 POP SWAP1 JUMP JUMPDEST PUSH1 0x1 PUSH1 0x0 SWAP1 SLOAD SWAP1 PUSH2 0x100 EXP SWAP1 DIV PUSH20 0xFFFFFFFFFFFFFFFFFFFFFFFFFFFFFFFFFFFFFFFF AND PUSH20 0xFFFFFFFFFFFFFFFFFFFFFFFFFFFFFFFFFFFFFFFF AND PUSH4 0x55676590 DUP3 PUSH1 0x40 MLOAD DUP3 PUSH4 0xFFFFFFFF AND PUSH1 0xE0 SHL DUP2 MSTORE PUSH1 0x4 ADD PUSH2 0x1562 SWAP2 SWAP1 PUSH2 0x2439 JUMP JUMPDEST PUSH1 0x0 PUSH1 0x40 MLOAD DUP1 DUP4 SUB DUP2 PUSH1 0x0 DUP8 DUP1 EXTCODESIZE ISZERO DUP1 ISZERO PUSH2 0x157C JUMPI PUSH1 0x0 DUP1 REVERT JUMPDEST POP GAS CALL ISZERO DUP1 ISZERO PUSH2 0x1590 JUMPI RETURNDATASIZE PUSH1 0x0 DUP1 RETURNDATACOPY RETURNDATASIZE PUSH1 0x0 REVERT JUMPDEST POP POP POP POP POP JUMP JUMPDEST PUSH2 0x15A1 DUP3 DUP3 PUSH2 0xC01 JUMP JUMPDEST PUSH2 0x1630 JUMPI PUSH2 0x15C6 DUP2 PUSH20 0xFFFFFFFFFFFFFFFFFFFFFFFFFFFFFFFFFFFFFFFF AND PUSH1 0x14 PUSH2 0x18A9 JUMP JUMPDEST PUSH2 0x15D4 DUP4 PUSH1 0x0 SHR PUSH1 0x20 PUSH2 0x18A9 JUMP JUMPDEST PUSH1 0x40 MLOAD PUSH1 0x20 ADD PUSH2 0x15E5 SWAP3 SWAP2 SWAP1 PUSH2 0x23FF JUMP JUMPDEST PUSH1 0x40 MLOAD PUSH1 0x20 DUP2 DUP4 SUB SUB DUP2 MSTORE SWAP1 PUSH1 0x40 MSTORE PUSH1 0x40 MLOAD PUSH32 0x8C379A000000000000000000000000000000000000000000000000000000000 DUP2 MSTORE PUSH1 0x4 ADD PUSH2 0x1627 SWAP2 SWAP1 PUSH2 0x253B JUMP JUMPDEST PUSH1 0x40 MLOAD DUP1 SWAP2 SUB SWAP1 REVERT JUMPDEST POP POP JUMP JUMPDEST PUSH2 0x163E DUP3 DUP3 PUSH2 0xC01 JUMP JUMPDEST PUSH2 0x1710 JUMPI PUSH1 0x1 PUSH1 0x0 DUP1 DUP5 DUP2 MSTORE PUSH1 0x20 ADD SWAP1 DUP2 MSTORE PUSH1 0x20 ADD PUSH1 0x0 KECCAK256 PUSH1 0x0 ADD PUSH1 0x0 DUP4 PUSH20 0xFFFFFFFFFFFFFFFFFFFFFFFFFFFFFFFFFFFFFFFF AND PUSH20 0xFFFFFFFFFFFFFFFFFFFFFFFFFFFFFFFFFFFFFFFF AND DUP2 MSTORE PUSH1 0x20 ADD SWAP1 DUP2 MSTORE PUSH1 0x20 ADD PUSH1 0x0 KECCAK256 PUSH1 0x0 PUSH2 0x100 EXP DUP2 SLOAD DUP2 PUSH1 0xFF MUL NOT AND SWAP1 DUP4 ISZERO ISZERO MUL OR SWAP1 SSTORE POP PUSH2 0x16B5 PUSH2 0x14FF JUMP JUMPDEST PUSH20 0xFFFFFFFFFFFFFFFFFFFFFFFFFFFFFFFFFFFFFFFF AND DUP2 PUSH20 0xFFFFFFFFFFFFFFFFFFFFFFFFFFFFFFFFFFFFFFFF AND DUP4 PUSH32 0x2F8788117E7EFF1D82E926EC794901D17C78024A50270940304540A733656F0D PUSH1 0x40 MLOAD PUSH1 0x40 MLOAD DUP1 SWAP2 SUB SWAP1 LOG4 JUMPDEST POP POP JUMP JUMPDEST PUSH2 0x171E DUP3 DUP3 PUSH2 0xC01 JUMP JUMPDEST ISZERO PUSH2 0x17F1 JUMPI PUSH1 0x0 DUP1 PUSH1 0x0 DUP5 DUP2 MSTORE PUSH1 0x20 ADD SWAP1 DUP2 MSTORE PUSH1 0x20 ADD PUSH1 0x0 KECCAK256 PUSH1 0x0 ADD PUSH1 0x0 DUP4 PUSH20 0xFFFFFFFFFFFFFFFFFFFFFFFFFFFFFFFFFFFFFFFF AND PUSH20 0xFFFFFFFFFFFFFFFFFFFFFFFFFFFFFFFFFFFFFFFF AND DUP2 MSTORE PUSH1 0x20 ADD SWAP1 DUP2 MSTORE PUSH1 0x20 ADD PUSH1 0x0 KECCAK256 PUSH1 0x0 PUSH2 0x100 EXP DUP2 SLOAD DUP2 PUSH1 0xFF MUL NOT AND SWAP1 DUP4 ISZERO ISZERO MUL OR SWAP1 SSTORE POP PUSH2 0x1796 PUSH2 0x14FF JUMP JUMPDEST PUSH20 0xFFFFFFFFFFFFFFFFFFFFFFFFFFFFFFFFFFFFFFFF AND DUP2 PUSH20 0xFFFFFFFFFFFFFFFFFFFFFFFFFFFFFFFFFFFFFFFF AND DUP4 PUSH32 0xF6391F5C32D9C69D2A47EA670B442974B53935D1EDC7FD64EB21E047A839171B PUSH1 0x40 MLOAD PUSH1 0x40 MLOAD DUP1 SWAP2 SUB SWAP1 LOG4 JUMPDEST POP POP JUMP JUMPDEST PUSH1 0x3 PUSH1 0x0 SWAP1 SLOAD SWAP1 PUSH2 0x100 EXP SWAP1 DIV PUSH20 0xFFFFFFFFFFFFFFFFFFFFFFFFFFFFFFFFFFFFFFFF AND PUSH20 0xFFFFFFFFFFFFFFFFFFFFFFFFFFFFFFFFFFFFFFFF AND PUSH4 0x532B2913 CALLER DUP4 PUSH1 0x40 MLOAD DUP4 PUSH4 0xFFFFFFFF AND PUSH1 0xE0 SHL DUP2 MSTORE PUSH1 0x4 ADD PUSH2 0x1852 SWAP3 SWAP2 SWAP1 PUSH2 0x2454 JUMP JUMPDEST PUSH1 0x0 PUSH1 0x40 MLOAD DUP1 DUP4 SUB DUP2 PUSH1 0x0 DUP8 DUP1 EXTCODESIZE ISZERO DUP1 ISZERO PUSH2 0x186C JUMPI PUSH1 0x0 DUP1 REVERT JUMPDEST POP GAS CALL ISZERO DUP1 ISZERO PUSH2 0x1880 JUMPI RETURNDATASIZE PUSH1 0x0 DUP1 RETURNDATACOPY RETURNDATASIZE PUSH1 0x0 REVERT JUMPDEST POP POP POP POP PUSH2 0x188D CALLER PUSH2 0x1507 JUMP JUMPDEST POP JUMP JUMPDEST PUSH1 0x0 DUP2 DUP4 LT PUSH2 0x189F JUMPI DUP2 PUSH2 0x18A1 JUMP JUMPDEST DUP3 JUMPDEST SWAP1 POP SWAP3 SWAP2 POP POP JUMP JUMPDEST PUSH1 0x60 PUSH1 0x0 PUSH1 0x2 DUP4 PUSH1 0x2 PUSH2 0x18BC SWAP2 SWAP1 PUSH2 0x28AE JUMP JUMPDEST PUSH2 0x18C6 SWAP2 SWAP1 PUSH2 0x2827 JUMP JUMPDEST PUSH8 0xFFFFFFFFFFFFFFFF DUP2 GT ISZERO PUSH2 0x1905 JUMPI PUSH32 0x4E487B7100000000000000000000000000000000000000000000000000000000 PUSH1 0x0 MSTORE PUSH1 0x41 PUSH1 0x4 MSTORE PUSH1 0x24 PUSH1 0x0 REVERT JUMPDEST PUSH1 0x40 MLOAD SWAP1 DUP1 DUP3 MSTORE DUP1 PUSH1 0x1F ADD PUSH1 0x1F NOT AND PUSH1 0x20 ADD DUP3 ADD PUSH1 0x40 MSTORE DUP1 ISZERO PUSH2 0x1937 JUMPI DUP2 PUSH1 0x20 ADD PUSH1 0x1 DUP3 MUL DUP1 CALLDATASIZE DUP4 CALLDATACOPY DUP1 DUP3 ADD SWAP2 POP POP SWAP1 POP JUMPDEST POP SWAP1 POP PUSH32 0x3000000000000000000000000000000000000000000000000000000000000000 DUP2 PUSH1 0x0 DUP2 MLOAD DUP2 LT PUSH2 0x1995 JUMPI PUSH32 0x4E487B7100000000000000000000000000000000000000000000000000000000 PUSH1 0x0 MSTORE PUSH1 0x32 PUSH1 0x4 MSTORE PUSH1 0x24 PUSH1 0x0 REVERT JUMPDEST PUSH1 0x20 ADD ADD SWAP1 PUSH31 0xFFFFFFFFFFFFFFFFFFFFFFFFFFFFFFFFFFFFFFFFFFFFFFFFFFFFFFFFFFFFFF NOT AND SWAP1 DUP2 PUSH1 0x0 BYTE SWAP1 MSTORE8 POP PUSH32 0x7800000000000000000000000000000000000000000000000000000000000000 DUP2 PUSH1 0x1 DUP2 MLOAD DUP2 LT PUSH2 0x1A1F JUMPI PUSH32 0x4E487B7100000000000000000000000000000000000000000000000000000000 PUSH1 0x0 MSTORE PUSH1 0x32 PUSH1 0x4 MSTORE PUSH1 0x24 PUSH1 0x0 REVERT JUMPDEST PUSH1 0x20 ADD ADD SWAP1 PUSH31 0xFFFFFFFFFFFFFFFFFFFFFFFFFFFFFFFFFFFFFFFFFFFFFFFFFFFFFFFFFFFFFF NOT AND SWAP1 DUP2 PUSH1 0x0 BYTE SWAP1 MSTORE8 POP PUSH1 0x0 PUSH1 0x1 DUP5 PUSH1 0x2 PUSH2 0x1A5F SWAP2 SWAP1 PUSH2 0x28AE JUMP JUMPDEST PUSH2 0x1A69 SWAP2 SWAP1 PUSH2 0x2827 JUMP JUMPDEST SWAP1 POP JUMPDEST PUSH1 0x1 DUP2 GT ISZERO PUSH2 0x1B55 JUMPI PUSH32 0x3031323334353637383961626364656600000000000000000000000000000000 PUSH1 0xF DUP7 AND PUSH1 0x10 DUP2 LT PUSH2 0x1AD1 JUMPI PUSH32 0x4E487B7100000000000000000000000000000000000000000000000000000000 PUSH1 0x0 MSTORE PUSH1 0x32 PUSH1 0x4 MSTORE PUSH1 0x24 PUSH1 0x0 REVERT JUMPDEST BYTE PUSH1 0xF8 SHL DUP3 DUP3 DUP2 MLOAD DUP2 LT PUSH2 0x1B0E JUMPI PUSH32 0x4E487B7100000000000000000000000000000000000000000000000000000000 PUSH1 0x0 MSTORE PUSH1 0x32 PUSH1 0x4 MSTORE PUSH1 0x24 PUSH1 0x0 REVERT JUMPDEST PUSH1 0x20 ADD ADD SWAP1 PUSH31 0xFFFFFFFFFFFFFFFFFFFFFFFFFFFFFFFFFFFFFFFFFFFFFFFFFFFFFFFFFFFFFF NOT AND SWAP1 DUP2 PUSH1 0x0 BYTE SWAP1 MSTORE8 POP PUSH1 0x4 DUP6 SWAP1 SHR SWAP5 POP DUP1 PUSH2 0x1B4E SWAP1 PUSH2 0x2A68 JUMP JUMPDEST SWAP1 POP PUSH2 0x1A6C JUMP JUMPDEST POP PUSH1 0x0 DUP5 EQ PUSH2 0x1B99 JUMPI PUSH1 0x40 MLOAD PUSH32 0x8C379A000000000000000000000000000000000000000000000000000000000 DUP2 MSTORE PUSH1 0x4 ADD PUSH2 0x1B90 SWAP1 PUSH2 0x255D JUMP JUMPDEST PUSH1 0x40 MLOAD DUP1 SWAP2 SUB SWAP1 REVERT JUMPDEST DUP1 SWAP2 POP POP SWAP3 SWAP2 POP POP JUMP JUMPDEST PUSH1 0x0 PUSH2 0x1BB6 PUSH2 0x1BB1 DUP5 PUSH2 0x26F4 JUMP JUMPDEST PUSH2 0x26CF JUMP JUMPDEST SWAP1 POP DUP1 DUP4 DUP3 MSTORE PUSH1 0x20 DUP3 ADD SWAP1 POP DUP3 PUSH1 0x0 JUMPDEST DUP6 DUP2 LT ISZERO PUSH2 0x1BF6 JUMPI DUP2 CALLDATALOAD DUP6 ADD PUSH2 0x1BDC DUP9 DUP3 PUSH2 0x1D52 JUMP JUMPDEST DUP5 MSTORE PUSH1 0x20 DUP5 ADD SWAP4 POP PUSH1 0x20 DUP4 ADD SWAP3 POP POP PUSH1 0x1 DUP2 ADD SWAP1 POP PUSH2 0x1BC6 JUMP JUMPDEST POP POP POP SWAP4 SWAP3 POP POP POP JUMP JUMPDEST PUSH1 0x0 PUSH2 0x1C13 PUSH2 0x1C0E DUP5 PUSH2 0x2720 JUMP JUMPDEST PUSH2 0x26CF JUMP JUMPDEST SWAP1 POP DUP1 DUP4 DUP3 MSTORE PUSH1 0x20 DUP3 ADD SWAP1 POP DUP3 DUP6 PUSH1 0x20 DUP7 MUL DUP3 ADD GT ISZERO PUSH2 0x1C32 JUMPI PUSH1 0x0 DUP1 REVERT JUMPDEST PUSH1 0x0 JUMPDEST DUP6 DUP2 LT ISZERO PUSH2 0x1C62 JUMPI DUP2 PUSH2 0x1C48 DUP9 DUP3 PUSH2 0x1D7C JUMP JUMPDEST DUP5 MSTORE PUSH1 0x20 DUP5 ADD SWAP4 POP PUSH1 0x20 DUP4 ADD SWAP3 POP POP PUSH1 0x1 DUP2 ADD SWAP1 POP PUSH2 0x1C35 JUMP JUMPDEST POP POP POP SWAP4 SWAP3 POP POP POP JUMP JUMPDEST PUSH1 0x0 PUSH2 0x1C7F PUSH2 0x1C7A DUP5 PUSH2 0x274C JUMP JUMPDEST PUSH2 0x26CF JUMP JUMPDEST SWAP1 POP DUP3 DUP2 MSTORE PUSH1 0x20 DUP2 ADD DUP5 DUP5 DUP5 ADD GT ISZERO PUSH2 0x1C97 JUMPI PUSH1 0x0 DUP1 REVERT JUMPDEST PUSH2 0x1CA2 DUP5 DUP3 DUP6 PUSH2 0x2A26 JUMP JUMPDEST POP SWAP4 SWAP3 POP POP POP JUMP JUMPDEST PUSH1 0x0 DUP2 CALLDATALOAD SWAP1 POP PUSH2 0x1CB9 DUP2 PUSH2 0x2EBE JUMP JUMPDEST SWAP3 SWAP2 POP POP JUMP JUMPDEST PUSH1 0x0 DUP3 PUSH1 0x1F DUP4 ADD SLT PUSH2 0x1CD0 JUMPI PUSH1 0x0 DUP1 REVERT JUMPDEST DUP2 CALLDATALOAD PUSH2 0x1CE0 DUP5 DUP3 PUSH1 0x20 DUP7 ADD PUSH2 0x1BA3 JUMP JUMPDEST SWAP2 POP POP SWAP3 SWAP2 POP POP JUMP JUMPDEST PUSH1 0x0 DUP3 PUSH1 0x1F DUP4 ADD SLT PUSH2 0x1CFA JUMPI PUSH1 0x0 DUP1 REVERT JUMPDEST DUP2 CALLDATALOAD PUSH2 0x1D0A DUP5 DUP3 PUSH1 0x20 DUP7 ADD PUSH2 0x1C00 JUMP JUMPDEST SWAP2 POP POP SWAP3 SWAP2 POP POP JUMP JUMPDEST PUSH1 0x0 DUP2 MLOAD SWAP1 POP PUSH2 0x1D22 DUP2 PUSH2 0x2ED5 JUMP JUMPDEST SWAP3 SWAP2 POP POP JUMP JUMPDEST PUSH1 0x0 DUP2 CALLDATALOAD SWAP1 POP PUSH2 0x1D37 DUP2 PUSH2 0x2EEC JUMP JUMPDEST SWAP3 SWAP2 POP POP JUMP JUMPDEST PUSH1 0x0 DUP2 CALLDATALOAD SWAP1 POP PUSH2 0x1D4C DUP2 PUSH2 0x2F03 JUMP JUMPDEST SWAP3 SWAP2 POP POP JUMP JUMPDEST PUSH1 0x0 DUP3 PUSH1 0x1F DUP4 ADD SLT PUSH2 0x1D63 JUMPI PUSH1 0x0 DUP1 REVERT JUMPDEST DUP2 CALLDATALOAD PUSH2 0x1D73 DUP5 DUP3 PUSH1 0x20 DUP7 ADD PUSH2 0x1C6C JUMP JUMPDEST SWAP2 POP POP SWAP3 SWAP2 POP POP JUMP JUMPDEST PUSH1 0x0 DUP2 CALLDATALOAD SWAP1 POP PUSH2 0x1D8B DUP2 PUSH2 0x2F1A JUMP JUMPDEST SWAP3 SWAP2 POP POP JUMP JUMPDEST PUSH1 0x0 DUP2 MLOAD SWAP1 POP PUSH2 0x1DA0 DUP2 PUSH2 0x2F1A JUMP JUMPDEST SWAP3 SWAP2 POP POP JUMP JUMPDEST PUSH1 0x0 PUSH1 0x20 DUP3 DUP5 SUB SLT ISZERO PUSH2 0x1DB8 JUMPI PUSH1 0x0 DUP1 REVERT JUMPDEST PUSH1 0x0 PUSH2 0x1DC6 DUP5 DUP3 DUP6 ADD PUSH2 0x1CAA JUMP JUMPDEST SWAP2 POP POP SWAP3 SWAP2 POP POP JUMP JUMPDEST PUSH1 0x0 DUP1 PUSH1 0x40 DUP4 DUP6 SUB SLT ISZERO PUSH2 0x1DE2 JUMPI PUSH1 0x0 DUP1 REVERT JUMPDEST PUSH1 0x0 PUSH2 0x1DF0 DUP6 DUP3 DUP7 ADD PUSH2 0x1CAA JUMP JUMPDEST SWAP3 POP POP PUSH1 0x20 PUSH2 0x1E01 DUP6 DUP3 DUP7 ADD PUSH2 0x1D7C JUMP JUMPDEST SWAP2 POP POP SWAP3 POP SWAP3 SWAP1 POP JUMP JUMPDEST PUSH1 0x0 DUP1 PUSH1 0x40 DUP4 DUP6 SUB SLT ISZERO PUSH2 0x1E1E JUMPI PUSH1 0x0 DUP1 REVERT JUMPDEST PUSH1 0x0 DUP4 ADD CALLDATALOAD PUSH8 0xFFFFFFFFFFFFFFFF DUP2 GT ISZERO PUSH2 0x1E38 JUMPI PUSH1 0x0 DUP1 REVERT JUMPDEST PUSH2 0x1E44 DUP6 DUP3 DUP7 ADD PUSH2 0x1CE9 JUMP JUMPDEST SWAP3 POP POP PUSH1 0x20 DUP4 ADD CALLDATALOAD PUSH8 0xFFFFFFFFFFFFFFFF DUP2 GT ISZERO PUSH2 0x1E61 JUMPI PUSH1 0x0 DUP1 REVERT JUMPDEST PUSH2 0x1E6D DUP6 DUP3 DUP7 ADD PUSH2 0x1CBF JUMP JUMPDEST SWAP2 POP POP SWAP3 POP SWAP3 SWAP1 POP JUMP JUMPDEST PUSH1 0x0 PUSH1 0x20 DUP3 DUP5 SUB SLT ISZERO PUSH2 0x1E89 JUMPI PUSH1 0x0 DUP1 REVERT JUMPDEST PUSH1 0x0 PUSH2 0x1E97 DUP5 DUP3 DUP6 ADD PUSH2 0x1D13 JUMP JUMPDEST SWAP2 POP POP SWAP3 SWAP2 POP POP JUMP JUMPDEST PUSH1 0x0 PUSH1 0x20 DUP3 DUP5 SUB SLT ISZERO PUSH2 0x1EB2 JUMPI PUSH1 0x0 DUP1 REVERT JUMPDEST PUSH1 0x0 PUSH2 0x1EC0 DUP5 DUP3 DUP6 ADD PUSH2 0x1D28 JUMP JUMPDEST SWAP2 POP POP SWAP3 SWAP2 POP POP JUMP JUMPDEST PUSH1 0x0 DUP1 PUSH1 0x40 DUP4 DUP6 SUB SLT ISZERO PUSH2 0x1EDC JUMPI PUSH1 0x0 DUP1 REVERT JUMPDEST PUSH1 0x0 PUSH2 0x1EEA DUP6 DUP3 DUP7 ADD PUSH2 0x1D28 JUMP JUMPDEST SWAP3 POP POP PUSH1 0x20 PUSH2 0x1EFB DUP6 DUP3 DUP7 ADD PUSH2 0x1CAA JUMP JUMPDEST SWAP2 POP POP SWAP3 POP SWAP3 SWAP1 POP JUMP JUMPDEST PUSH1 0x0 PUSH1 0x20 DUP3 DUP5 SUB SLT ISZERO PUSH2 0x1F17 JUMPI PUSH1 0x0 DUP1 REVERT JUMPDEST PUSH1 0x0 PUSH2 0x1F25 DUP5 DUP3 DUP6 ADD PUSH2 0x1D3D JUMP JUMPDEST SWAP2 POP POP SWAP3 SWAP2 POP POP JUMP JUMPDEST PUSH1 0x0 PUSH1 0x20 DUP3 DUP5 SUB SLT ISZERO PUSH2 0x1F40 JUMPI PUSH1 0x0 DUP1 REVERT JUMPDEST PUSH1 0x0 PUSH2 0x1F4E DUP5 DUP3 DUP6 ADD PUSH2 0x1D7C JUMP JUMPDEST SWAP2 POP POP SWAP3 SWAP2 POP POP JUMP JUMPDEST PUSH1 0x0 PUSH1 0x20 DUP3 DUP5 SUB SLT ISZERO PUSH2 0x1F69 JUMPI PUSH1 0x0 DUP1 REVERT JUMPDEST PUSH1 0x0 PUSH2 0x1F77 DUP5 DUP3 DUP6 ADD PUSH2 0x1D91 JUMP JUMPDEST SWAP2 POP POP SWAP3 SWAP2 POP POP JUMP JUMPDEST PUSH1 0x0 PUSH2 0x1F8C DUP4 DUP4 PUSH2 0x20F0 JUMP JUMPDEST SWAP1 POP SWAP3 SWAP2 POP POP JUMP JUMPDEST PUSH1 0x0 PUSH2 0x1FA0 DUP4 DUP4 PUSH2 0x237D JUMP JUMPDEST PUSH1 0x20 DUP4 ADD SWAP1 POP SWAP3 SWAP2 POP POP JUMP JUMPDEST PUSH2 0x1FB5 DUP2 PUSH2 0x293C JUMP JUMPDEST DUP3 MSTORE POP POP JUMP JUMPDEST PUSH2 0x1FCC PUSH2 0x1FC7 DUP3 PUSH2 0x293C JUMP JUMPDEST PUSH2 0x2AC3 JUMP JUMPDEST DUP3 MSTORE POP POP JUMP JUMPDEST PUSH1 0x0 PUSH2 0x1FDD DUP3 PUSH2 0x279D JUMP JUMPDEST PUSH2 0x1FE7 DUP2 DUP6 PUSH2 0x27D8 JUMP JUMPDEST SWAP4 POP DUP4 PUSH1 0x20 DUP3 MUL DUP6 ADD PUSH2 0x1FF9 DUP6 PUSH2 0x277D JUMP JUMPDEST DUP1 PUSH1 0x0 JUMPDEST DUP6 DUP2 LT ISZERO PUSH2 0x2035 JUMPI DUP5 DUP5 SUB DUP10 MSTORE DUP2 MLOAD PUSH2 0x2016 DUP6 DUP3 PUSH2 0x1F80 JUMP JUMPDEST SWAP5 POP PUSH2 0x2021 DUP4 PUSH2 0x27BE JUMP JUMPDEST SWAP3 POP PUSH1 0x20 DUP11 ADD SWAP10 POP POP PUSH1 0x1 DUP2 ADD SWAP1 POP PUSH2 0x1FFD JUMP JUMPDEST POP DUP3 SWAP8 POP DUP8 SWAP6 POP POP POP POP POP POP SWAP3 SWAP2 POP POP JUMP JUMPDEST PUSH1 0x0 PUSH2 0x2052 DUP3 PUSH2 0x27A8 JUMP JUMPDEST PUSH2 0x205C DUP2 DUP6 PUSH2 0x27E9 JUMP JUMPDEST SWAP4 POP PUSH2 0x2067 DUP4 PUSH2 0x278D JUMP JUMPDEST DUP1 PUSH1 0x0 JUMPDEST DUP4 DUP2 LT ISZERO PUSH2 0x2098 JUMPI DUP2 MLOAD PUSH2 0x207F DUP9 DUP3 PUSH2 0x1F94 JUMP JUMPDEST SWAP8 POP PUSH2 0x208A DUP4 PUSH2 0x27CB JUMP JUMPDEST SWAP3 POP POP PUSH1 0x1 DUP2 ADD SWAP1 POP PUSH2 0x206B JUMP JUMPDEST POP DUP6 SWAP4 POP POP POP POP SWAP3 SWAP2 POP POP JUMP JUMPDEST PUSH2 0x20AE DUP2 PUSH2 0x294E JUMP JUMPDEST DUP3 MSTORE POP POP JUMP JUMPDEST PUSH2 0x20BD DUP2 PUSH2 0x295A JUMP JUMPDEST DUP3 MSTORE POP POP JUMP JUMPDEST PUSH2 0x20CC DUP2 PUSH2 0x29BA JUMP JUMPDEST DUP3 MSTORE POP POP JUMP JUMPDEST PUSH2 0x20DB DUP2 PUSH2 0x29DE JUMP JUMPDEST DUP3 MSTORE POP POP JUMP JUMPDEST PUSH2 0x20EA DUP2 PUSH2 0x2A02 JUMP JUMPDEST DUP3 MSTORE POP POP JUMP JUMPDEST PUSH1 0x0 PUSH2 0x20FB DUP3 PUSH2 0x27B3 JUMP JUMPDEST PUSH2 0x2105 DUP2 DUP6 PUSH2 0x27FA JUMP JUMPDEST SWAP4 POP PUSH2 0x2115 DUP2 DUP6 PUSH1 0x20 DUP7 ADD PUSH2 0x2A35 JUMP JUMPDEST PUSH2 0x211E DUP2 PUSH2 0x2B7E JUMP JUMPDEST DUP5 ADD SWAP2 POP POP SWAP3 SWAP2 POP POP JUMP JUMPDEST PUSH1 0x0 PUSH2 0x2134 DUP3 PUSH2 0x27B3 JUMP JUMPDEST PUSH2 0x213E DUP2 DUP6 PUSH2 0x280B JUMP JUMPDEST SWAP4 POP PUSH2 0x214E DUP2 DUP6 PUSH1 0x20 DUP7 ADD PUSH2 0x2A35 JUMP JUMPDEST PUSH2 0x2157 DUP2 PUSH2 0x2B7E JUMP JUMPDEST DUP5 ADD SWAP2 POP POP SWAP3 SWAP2 POP POP JUMP JUMPDEST PUSH1 0x0 PUSH2 0x216D DUP3 PUSH2 0x27B3 JUMP JUMPDEST PUSH2 0x2177 DUP2 DUP6 PUSH2 0x281C JUMP JUMPDEST SWAP4 POP PUSH2 0x2187 DUP2 DUP6 PUSH1 0x20 DUP7 ADD PUSH2 0x2A35 JUMP JUMPDEST DUP1 DUP5 ADD SWAP2 POP POP SWAP3 SWAP2 POP POP JUMP JUMPDEST PUSH1 0x0 PUSH2 0x21A0 PUSH1 0x20 DUP4 PUSH2 0x280B JUMP JUMPDEST SWAP2 POP PUSH2 0x21AB DUP3 PUSH2 0x2B9C JUMP JUMPDEST PUSH1 0x20 DUP3 ADD SWAP1 POP SWAP2 SWAP1 POP JUMP JUMPDEST PUSH1 0x0 PUSH2 0x21C3 PUSH1 0x8 DUP4 PUSH2 0x281C JUMP JUMPDEST SWAP2 POP PUSH2 0x21CE DUP3 PUSH2 0x2BC5 JUMP JUMPDEST PUSH1 0x8 DUP3 ADD SWAP1 POP SWAP2 SWAP1 POP JUMP JUMPDEST PUSH1 0x0 PUSH2 0x21E6 PUSH1 0x36 DUP4 PUSH2 0x280B JUMP JUMPDEST SWAP2 POP PUSH2 0x21F1 DUP3 PUSH2 0x2BEE JUMP JUMPDEST PUSH1 0x40 DUP3 ADD SWAP1 POP SWAP2 SWAP1 POP JUMP JUMPDEST PUSH1 0x0 PUSH2 0x2209 PUSH1 0x1B DUP4 PUSH2 0x280B JUMP JUMPDEST SWAP2 POP PUSH2 0x2214 DUP3 PUSH2 0x2C3D JUMP JUMPDEST PUSH1 0x20 DUP3 ADD SWAP1 POP SWAP2 SWAP1 POP JUMP JUMPDEST PUSH1 0x0 PUSH2 0x222C PUSH1 0x23 DUP4 PUSH2 0x280B JUMP JUMPDEST SWAP2 POP PUSH2 0x2237 DUP3 PUSH2 0x2C66 JUMP JUMPDEST PUSH1 0x40 DUP3 ADD SWAP1 POP SWAP2 SWAP1 POP JUMP JUMPDEST PUSH1 0x0 PUSH2 0x224F PUSH1 0x22 DUP4 PUSH2 0x280B JUMP JUMPDEST SWAP2 POP PUSH2 0x225A DUP3 PUSH2 0x2CB5 JUMP JUMPDEST PUSH1 0x40 DUP3 ADD SWAP1 POP SWAP2 SWAP1 POP JUMP JUMPDEST PUSH1 0x0 PUSH2 0x2272 PUSH1 0x1 DUP4 PUSH2 0x281C JUMP JUMPDEST SWAP2 POP PUSH2 0x227D DUP3 PUSH2 0x2D04 JUMP JUMPDEST PUSH1 0x1 DUP3 ADD SWAP1 POP SWAP2 SWAP1 POP JUMP JUMPDEST PUSH1 0x0 PUSH2 0x2295 PUSH1 0x30 DUP4 PUSH2 0x281C JUMP JUMPDEST SWAP2 POP PUSH2 0x22A0 DUP3 PUSH2 0x2D2D JUMP JUMPDEST PUSH1 0x30 DUP3 ADD SWAP1 POP SWAP2 SWAP1 POP JUMP JUMPDEST PUSH1 0x0 PUSH2 0x22B8 PUSH1 0x16 DUP4 PUSH2 0x280B JUMP JUMPDEST SWAP2 POP PUSH2 0x22C3 DUP3 PUSH2 0x2D7C JUMP JUMPDEST PUSH1 0x20 DUP3 ADD SWAP1 POP SWAP2 SWAP1 POP JUMP JUMPDEST PUSH1 0x0 PUSH2 0x22DB PUSH1 0x1F DUP4 PUSH2 0x280B JUMP JUMPDEST SWAP2 POP PUSH2 0x22E6 DUP3 PUSH2 0x2DA5 JUMP JUMPDEST PUSH1 0x20 DUP3 ADD SWAP1 POP SWAP2 SWAP1 POP JUMP JUMPDEST PUSH1 0x0 PUSH2 0x22FE PUSH1 0x27 DUP4 PUSH2 0x280B JUMP JUMPDEST SWAP2 POP PUSH2 0x2309 DUP3 PUSH2 0x2DCE JUMP JUMPDEST PUSH1 0x40 DUP3 ADD SWAP1 POP SWAP2 SWAP1 POP JUMP JUMPDEST PUSH1 0x0 PUSH2 0x2321 PUSH1 0x17 DUP4 PUSH2 0x281C JUMP JUMPDEST SWAP2 POP PUSH2 0x232C DUP3 PUSH2 0x2E1D JUMP JUMPDEST PUSH1 0x17 DUP3 ADD SWAP1 POP SWAP2 SWAP1 POP JUMP JUMPDEST PUSH1 0x0 PUSH2 0x2344 PUSH1 0x11 DUP4 PUSH2 0x281C JUMP JUMPDEST SWAP2 POP PUSH2 0x234F DUP3 PUSH2 0x2E46 JUMP JUMPDEST PUSH1 0x11 DUP3 ADD SWAP1 POP SWAP2 SWAP1 POP JUMP JUMPDEST PUSH1 0x0 PUSH2 0x2367 PUSH1 0x2F DUP4 PUSH2 0x280B JUMP JUMPDEST SWAP2 POP PUSH2 0x2372 DUP3 PUSH2 0x2E6F JUMP JUMPDEST PUSH1 0x40 DUP3 ADD SWAP1 POP SWAP2 SWAP1 POP JUMP JUMPDEST PUSH2 0x2386 DUP2 PUSH2 0x29B0 JUMP JUMPDEST DUP3 MSTORE POP POP JUMP JUMPDEST PUSH2 0x2395 DUP2 PUSH2 0x29B0 JUMP JUMPDEST DUP3 MSTORE POP POP JUMP JUMPDEST PUSH2 0x23AC PUSH2 0x23A7 DUP3 PUSH2 0x29B0 JUMP JUMPDEST PUSH2 0x2AE7 JUMP JUMPDEST DUP3 MSTORE POP POP JUMP JUMPDEST PUSH1 0x0 PUSH2 0x23BD DUP3 PUSH2 0x21B6 JUMP JUMPDEST SWAP2 POP PUSH2 0x23C9 DUP3 DUP6 PUSH2 0x1FBB JUMP JUMPDEST PUSH1 0x14 DUP3 ADD SWAP2 POP PUSH2 0x23D8 DUP3 PUSH2 0x2288 JUMP JUMPDEST SWAP2 POP PUSH2 0x23E4 DUP3 DUP5 PUSH2 0x239B JUMP JUMPDEST PUSH1 0x20 DUP3 ADD SWAP2 POP PUSH2 0x23F3 DUP3 PUSH2 0x2265 JUMP JUMPDEST SWAP2 POP DUP2 SWAP1 POP SWAP4 SWAP3 POP POP POP JUMP JUMPDEST PUSH1 0x0 PUSH2 0x240A DUP3 PUSH2 0x2314 JUMP JUMPDEST SWAP2 POP PUSH2 0x2416 DUP3 DUP6 PUSH2 0x2162 JUMP JUMPDEST SWAP2 POP PUSH2 0x2421 DUP3 PUSH2 0x2337 JUMP JUMPDEST SWAP2 POP PUSH2 0x242D DUP3 DUP5 PUSH2 0x2162 JUMP JUMPDEST SWAP2 POP DUP2 SWAP1 POP SWAP4 SWAP3 POP POP POP JUMP JUMPDEST PUSH1 0x0 PUSH1 0x20 DUP3 ADD SWAP1 POP PUSH2 0x244E PUSH1 0x0 DUP4 ADD DUP5 PUSH2 0x1FAC JUMP JUMPDEST SWAP3 SWAP2 POP POP JUMP JUMPDEST PUSH1 0x0 PUSH1 0x40 DUP3 ADD SWAP1 POP PUSH2 0x2469 PUSH1 0x0 DUP4 ADD DUP6 PUSH2 0x1FAC JUMP JUMPDEST PUSH2 0x2476 PUSH1 0x20 DUP4 ADD DUP5 PUSH2 0x238C JUMP JUMPDEST SWAP4 SWAP3 POP POP POP JUMP JUMPDEST PUSH1 0x0 PUSH1 0x40 DUP3 ADD SWAP1 POP DUP2 DUP2 SUB PUSH1 0x0 DUP4 ADD MSTORE PUSH2 0x2497 DUP2 DUP6 PUSH2 0x2047 JUMP JUMPDEST SWAP1 POP DUP2 DUP2 SUB PUSH1 0x20 DUP4 ADD MSTORE PUSH2 0x24AB DUP2 DUP5 PUSH2 0x1FD2 JUMP JUMPDEST SWAP1 POP SWAP4 SWAP3 POP POP POP JUMP JUMPDEST PUSH1 0x0 PUSH1 0x20 DUP3 ADD SWAP1 POP PUSH2 0x24C9 PUSH1 0x0 DUP4 ADD DUP5 PUSH2 0x20A5 JUMP JUMPDEST SWAP3 SWAP2 POP POP JUMP JUMPDEST PUSH1 0x0 PUSH1 0x20 DUP3 ADD SWAP1 POP PUSH2 0x24E4 PUSH1 0x0 DUP4 ADD DUP5 PUSH2 0x20B4 JUMP JUMPDEST SWAP3 SWAP2 POP POP JUMP JUMPDEST PUSH1 0x0 PUSH1 0x20 DUP3 ADD SWAP1 POP PUSH2 0x24FF PUSH1 0x0 DUP4 ADD DUP5 PUSH2 0x20C3 JUMP JUMPDEST SWAP3 SWAP2 POP POP JUMP JUMPDEST PUSH1 0x0 PUSH1 0x20 DUP3 ADD SWAP1 POP PUSH2 0x251A PUSH1 0x0 DUP4 ADD DUP5 PUSH2 0x20D2 JUMP JUMPDEST SWAP3 SWAP2 POP POP JUMP JUMPDEST PUSH1 0x0 PUSH1 0x20 DUP3 ADD SWAP1 POP PUSH2 0x2535 PUSH1 0x0 DUP4 ADD DUP5 PUSH2 0x20E1 JUMP JUMPDEST SWAP3 SWAP2 POP POP JUMP JUMPDEST PUSH1 0x0 PUSH1 0x20 DUP3 ADD SWAP1 POP DUP2 DUP2 SUB PUSH1 0x0 DUP4 ADD MSTORE PUSH2 0x2555 DUP2 DUP5 PUSH2 0x2129 JUMP JUMPDEST SWAP1 POP SWAP3 SWAP2 POP POP JUMP JUMPDEST PUSH1 0x0 PUSH1 0x20 DUP3 ADD SWAP1 POP DUP2 DUP2 SUB PUSH1 0x0 DUP4 ADD MSTORE PUSH2 0x2576 DUP2 PUSH2 0x2193 JUMP JUMPDEST SWAP1 POP SWAP2 SWAP1 POP JUMP JUMPDEST PUSH1 0x0 PUSH1 0x20 DUP3 ADD SWAP1 POP DUP2 DUP2 SUB PUSH1 0x0 DUP4 ADD MSTORE PUSH2 0x2596 DUP2 PUSH2 0x21D9 JUMP JUMPDEST SWAP1 POP SWAP2 SWAP1 POP JUMP JUMPDEST PUSH1 0x0 PUSH1 0x20 DUP3 ADD SWAP1 POP DUP2 DUP2 SUB PUSH1 0x0 DUP4 ADD MSTORE PUSH2 0x25B6 DUP2 PUSH2 0x21FC JUMP JUMPDEST SWAP1 POP SWAP2 SWAP1 POP JUMP JUMPDEST PUSH1 0x0 PUSH1 0x20 DUP3 ADD SWAP1 POP DUP2 DUP2 SUB PUSH1 0x0 DUP4 ADD MSTORE PUSH2 0x25D6 DUP2 PUSH2 0x221F JUMP JUMPDEST SWAP1 POP SWAP2 SWAP1 POP JUMP JUMPDEST PUSH1 0x0 PUSH1 0x20 DUP3 ADD SWAP1 POP DUP2 DUP2 SUB PUSH1 0x0 DUP4 ADD MSTORE PUSH2 0x25F6 DUP2 PUSH2 0x2242 JUMP JUMPDEST SWAP1 POP SWAP2 SWAP1 POP JUMP JUMPDEST PUSH1 0x0 PUSH1 0x20 DUP3 ADD SWAP1 POP DUP2 DUP2 SUB PUSH1 0x0 DUP4 ADD MSTORE PUSH2 0x2616 DUP2 PUSH2 0x22AB JUMP JUMPDEST SWAP1 POP SWAP2 SWAP1 POP JUMP JUMPDEST PUSH1 0x0 PUSH1 0x20 DUP3 ADD SWAP1 POP DUP2 DUP2 SUB PUSH1 0x0 DUP4 ADD MSTORE PUSH2 0x2636 DUP2 PUSH2 0x22CE JUMP JUMPDEST SWAP1 POP SWAP2 SWAP1 POP JUMP JUMPDEST PUSH1 0x0 PUSH1 0x20 DUP3 ADD SWAP1 POP DUP2 DUP2 SUB PUSH1 0x0 DUP4 ADD MSTORE PUSH2 0x2656 DUP2 PUSH2 0x22F1 JUMP JUMPDEST SWAP1 POP SWAP2 SWAP1 POP JUMP JUMPDEST PUSH1 0x0 PUSH1 0x20 DUP3 ADD SWAP1 POP DUP2 DUP2 SUB PUSH1 0x0 DUP4 ADD MSTORE PUSH2 0x2676 DUP2 PUSH2 0x235A JUMP JUMPDEST SWAP1 POP SWAP2 SWAP1 POP JUMP JUMPDEST PUSH1 0x0 PUSH1 0x20 DUP3 ADD SWAP1 POP PUSH2 0x2692 PUSH1 0x0 DUP4 ADD DUP5 PUSH2 0x238C JUMP JUMPDEST SWAP3 SWAP2 POP POP JUMP JUMPDEST PUSH1 0x0 PUSH1 0x60 DUP3 ADD SWAP1 POP PUSH2 0x26AD PUSH1 0x0 DUP4 ADD DUP7 PUSH2 0x238C JUMP JUMPDEST PUSH2 0x26BA PUSH1 0x20 DUP4 ADD DUP6 PUSH2 0x238C JUMP JUMPDEST PUSH2 0x26C7 PUSH1 0x40 DUP4 ADD DUP5 PUSH2 0x20A5 JUMP JUMPDEST SWAP5 SWAP4 POP POP POP POP JUMP JUMPDEST PUSH1 0x0 PUSH2 0x26D9 PUSH2 0x26EA JUMP JUMPDEST SWAP1 POP PUSH2 0x26E5 DUP3 DUP3 PUSH2 0x2A92 JUMP JUMPDEST SWAP2 SWAP1 POP JUMP JUMPDEST PUSH1 0x0 PUSH1 0x40 MLOAD SWAP1 POP SWAP1 JUMP JUMPDEST PUSH1 0x0 PUSH8 0xFFFFFFFFFFFFFFFF DUP3 GT ISZERO PUSH2 0x270F JUMPI PUSH2 0x270E PUSH2 0x2B4F JUMP JUMPDEST JUMPDEST PUSH1 0x20 DUP3 MUL SWAP1 POP PUSH1 0x20 DUP2 ADD SWAP1 POP SWAP2 SWAP1 POP JUMP JUMPDEST PUSH1 0x0 PUSH8 0xFFFFFFFFFFFFFFFF DUP3 GT ISZERO PUSH2 0x273B JUMPI PUSH2 0x273A PUSH2 0x2B4F JUMP JUMPDEST JUMPDEST PUSH1 0x20 DUP3 MUL SWAP1 POP PUSH1 0x20 DUP2 ADD SWAP1 POP SWAP2 SWAP1 POP JUMP JUMPDEST PUSH1 0x0 PUSH8 0xFFFFFFFFFFFFFFFF DUP3 GT ISZERO PUSH2 0x2767 JUMPI PUSH2 0x2766 PUSH2 0x2B4F JUMP JUMPDEST JUMPDEST PUSH2 0x2770 DUP3 PUSH2 0x2B7E JUMP JUMPDEST SWAP1 POP PUSH1 0x20 DUP2 ADD SWAP1 POP SWAP2 SWAP1 POP JUMP JUMPDEST PUSH1 0x0 DUP2 SWAP1 POP PUSH1 0x20 DUP3 ADD SWAP1 POP SWAP2 SWAP1 POP JUMP JUMPDEST PUSH1 0x0 DUP2 SWAP1 POP PUSH1 0x20 DUP3 ADD SWAP1 POP SWAP2 SWAP1 POP JUMP JUMPDEST PUSH1 0x0 DUP2 MLOAD SWAP1 POP SWAP2 SWAP1 POP JUMP JUMPDEST PUSH1 0x0 DUP2 MLOAD SWAP1 POP SWAP2 SWAP1 POP JUMP JUMPDEST PUSH1 0x0 DUP2 MLOAD SWAP1 POP SWAP2 SWAP1 POP JUMP JUMPDEST PUSH1 0x0 PUSH1 0x20 DUP3 ADD SWAP1 POP SWAP2 SWAP1 POP JUMP JUMPDEST PUSH1 0x0 PUSH1 0x20 DUP3 ADD SWAP1 POP SWAP2 SWAP1 POP JUMP JUMPDEST PUSH1 0x0 DUP3 DUP3 MSTORE PUSH1 0x20 DUP3 ADD SWAP1 POP SWAP3 SWAP2 POP POP JUMP JUMPDEST PUSH1 0x0 DUP3 DUP3 MSTORE PUSH1 0x20 DUP3 ADD SWAP1 POP SWAP3 SWAP2 POP POP JUMP JUMPDEST PUSH1 0x0 DUP3 DUP3 MSTORE PUSH1 0x20 DUP3 ADD SWAP1 POP SWAP3 SWAP2 POP POP JUMP JUMPDEST PUSH1 0x0 DUP3 DUP3 MSTORE PUSH1 0x20 DUP3 ADD SWAP1 POP SWAP3 SWAP2 POP POP JUMP JUMPDEST PUSH1 0x0 DUP2 SWAP1 POP SWAP3 SWAP2 POP POP JUMP JUMPDEST PUSH1 0x0 PUSH2 0x2832 DUP3 PUSH2 0x29B0 JUMP JUMPDEST SWAP2 POP PUSH2 0x283D DUP4 PUSH2 0x29B0 JUMP JUMPDEST SWAP3 POP DUP3 PUSH32 0xFFFFFFFFFFFFFFFFFFFFFFFFFFFFFFFFFFFFFFFFFFFFFFFFFFFFFFFFFFFFFFFF SUB DUP3 GT ISZERO PUSH2 0x2872 JUMPI PUSH2 0x2871 PUSH2 0x2AF1 JUMP JUMPDEST JUMPDEST DUP3 DUP3 ADD SWAP1 POP SWAP3 SWAP2 POP POP JUMP JUMPDEST PUSH1 0x0 PUSH2 0x2888 DUP3 PUSH2 0x29B0 JUMP JUMPDEST SWAP2 POP PUSH2 0x2893 DUP4 PUSH2 0x29B0 JUMP JUMPDEST SWAP3 POP DUP3 PUSH2 0x28A3 JUMPI PUSH2 0x28A2 PUSH2 0x2B20 JUMP JUMPDEST JUMPDEST DUP3 DUP3 DIV SWAP1 POP SWAP3 SWAP2 POP POP JUMP JUMPDEST PUSH1 0x0 PUSH2 0x28B9 DUP3 PUSH2 0x29B0 JUMP JUMPDEST SWAP2 POP PUSH2 0x28C4 DUP4 PUSH2 0x29B0 JUMP JUMPDEST SWAP3 POP DUP2 PUSH32 0xFFFFFFFFFFFFFFFFFFFFFFFFFFFFFFFFFFFFFFFFFFFFFFFFFFFFFFFFFFFFFFFF DIV DUP4 GT DUP3 ISZERO ISZERO AND ISZERO PUSH2 0x28FD JUMPI PUSH2 0x28FC PUSH2 0x2AF1 JUMP JUMPDEST JUMPDEST DUP3 DUP3 MUL SWAP1 POP SWAP3 SWAP2 POP POP JUMP JUMPDEST PUSH1 0x0 PUSH2 0x2913 DUP3 PUSH2 0x29B0 JUMP JUMPDEST SWAP2 POP PUSH2 0x291E DUP4 PUSH2 0x29B0 JUMP JUMPDEST SWAP3 POP DUP3 DUP3 LT ISZERO PUSH2 0x2931 JUMPI PUSH2 0x2930 PUSH2 0x2AF1 JUMP JUMPDEST JUMPDEST DUP3 DUP3 SUB SWAP1 POP SWAP3 SWAP2 POP POP JUMP JUMPDEST PUSH1 0x0 PUSH2 0x2947 DUP3 PUSH2 0x2990 JUMP JUMPDEST SWAP1 POP SWAP2 SWAP1 POP JUMP JUMPDEST PUSH1 0x0 DUP2 ISZERO ISZERO SWAP1 POP SWAP2 SWAP1 POP JUMP JUMPDEST PUSH1 0x0 DUP2 SWAP1 POP SWAP2 SWAP1 POP JUMP JUMPDEST PUSH1 0x0 PUSH32 0xFFFFFFFF00000000000000000000000000000000000000000000000000000000 DUP3 AND SWAP1 POP SWAP2 SWAP1 POP JUMP JUMPDEST PUSH1 0x0 PUSH20 0xFFFFFFFFFFFFFFFFFFFFFFFFFFFFFFFFFFFFFFFF DUP3 AND SWAP1 POP SWAP2 SWAP1 POP JUMP JUMPDEST PUSH1 0x0 DUP2 SWAP1 POP SWAP2 SWAP1 POP JUMP JUMPDEST PUSH1 0x0 PUSH2 0x29C5 DUP3 PUSH2 0x29CC JUMP JUMPDEST SWAP1 POP SWAP2 SWAP1 POP JUMP JUMPDEST PUSH1 0x0 PUSH2 0x29D7 DUP3 PUSH2 0x2990 JUMP JUMPDEST SWAP1 POP SWAP2 SWAP1 POP JUMP JUMPDEST PUSH1 0x0 PUSH2 0x29E9 DUP3 PUSH2 0x29F0 JUMP JUMPDEST SWAP1 POP SWAP2 SWAP1 POP JUMP JUMPDEST PUSH1 0x0 PUSH2 0x29FB DUP3 PUSH2 0x2990 JUMP JUMPDEST SWAP1 POP SWAP2 SWAP1 POP JUMP JUMPDEST PUSH1 0x0 PUSH2 0x2A0D DUP3 PUSH2 0x2A14 JUMP JUMPDEST SWAP1 POP SWAP2 SWAP1 POP JUMP JUMPDEST PUSH1 0x0 PUSH2 0x2A1F DUP3 PUSH2 0x2990 JUMP JUMPDEST SWAP1 POP SWAP2 SWAP1 POP JUMP JUMPDEST DUP3 DUP2 DUP4 CALLDATACOPY PUSH1 0x0 DUP4 DUP4 ADD MSTORE POP POP POP JUMP JUMPDEST PUSH1 0x0 JUMPDEST DUP4 DUP2 LT ISZERO PUSH2 0x2A53 JUMPI DUP1 DUP3 ADD MLOAD DUP2 DUP5 ADD MSTORE PUSH1 0x20 DUP2 ADD SWAP1 POP PUSH2 0x2A38 JUMP JUMPDEST DUP4 DUP2 GT ISZERO PUSH2 0x2A62 JUMPI PUSH1 0x0 DUP5 DUP5 ADD MSTORE JUMPDEST POP POP POP POP JUMP JUMPDEST PUSH1 0x0 PUSH2 0x2A73 DUP3 PUSH2 0x29B0 JUMP JUMPDEST SWAP2 POP PUSH1 0x0 DUP3 EQ ISZERO PUSH2 0x2A87 JUMPI PUSH2 0x2A86 PUSH2 0x2AF1 JUMP JUMPDEST JUMPDEST PUSH1 0x1 DUP3 SUB SWAP1 POP SWAP2 SWAP1 POP JUMP JUMPDEST PUSH2 0x2A9B DUP3 PUSH2 0x2B7E JUMP JUMPDEST DUP2 ADD DUP2 DUP2 LT PUSH8 0xFFFFFFFFFFFFFFFF DUP3 GT OR ISZERO PUSH2 0x2ABA JUMPI PUSH2 0x2AB9 PUSH2 0x2B4F JUMP JUMPDEST JUMPDEST DUP1 PUSH1 0x40 MSTORE POP POP POP JUMP JUMPDEST PUSH1 0x0 PUSH2 0x2ACE DUP3 PUSH2 0x2AD5 JUMP JUMPDEST SWAP1 POP SWAP2 SWAP1 POP JUMP JUMPDEST PUSH1 0x0 PUSH2 0x2AE0 DUP3 PUSH2 0x2B8F JUMP JUMPDEST SWAP1 POP SWAP2 SWAP1 POP JUMP JUMPDEST PUSH1 0x0 DUP2 SWAP1 POP SWAP2 SWAP1 POP JUMP JUMPDEST PUSH32 0x4E487B7100000000000000000000000000000000000000000000000000000000 PUSH1 0x0 MSTORE PUSH1 0x11 PUSH1 0x4 MSTORE PUSH1 0x24 PUSH1 0x0 REVERT JUMPDEST PUSH32 0x4E487B7100000000000000000000000000000000000000000000000000000000 PUSH1 0x0 MSTORE PUSH1 0x12 PUSH1 0x4 MSTORE PUSH1 0x24 PUSH1 0x0 REVERT JUMPDEST PUSH32 0x4E487B7100000000000000000000000000000000000000000000000000000000 PUSH1 0x0 MSTORE PUSH1 0x41 PUSH1 0x4 MSTORE PUSH1 0x24 PUSH1 0x0 REVERT JUMPDEST PUSH1 0x0 PUSH1 0x1F NOT PUSH1 0x1F DUP4 ADD AND SWAP1 POP SWAP2 SWAP1 POP JUMP JUMPDEST PUSH1 0x0 DUP2 PUSH1 0x60 SHL SWAP1 POP SWAP2 SWAP1 POP JUMP JUMPDEST PUSH32 0x537472696E67733A20686578206C656E67746820696E73756666696369656E74 PUSH1 0x0 DUP3 ADD MSTORE POP JUMP JUMPDEST PUSH32 0x4164647265737320000000000000000000000000000000000000000000000000 PUSH1 0x0 DUP3 ADD MSTORE POP JUMP JUMPDEST PUSH32 0x43616E6E6F74206D696E7420746F207472656173757279206164647265737320 PUSH1 0x0 DUP3 ADD MSTORE PUSH32 0x756E74696C2073616C652069732066696E697368656400000000000000000000 PUSH1 0x20 DUP3 ADD MSTORE POP JUMP JUMPDEST PUSH32 0x74696D657374616D70206973206E6F742075702D746F2D646174650000000000 PUSH1 0x0 DUP3 ADD MSTORE POP JUMP JUMPDEST PUSH32 0x53656E646572206973206E6F742053616C65204D616E61676572206F72204164 PUSH1 0x0 DUP3 ADD MSTORE PUSH32 0x6D696E0000000000000000000000000000000000000000000000000000000000 PUSH1 0x20 DUP3 ADD MSTORE POP JUMP JUMPDEST PUSH32 0x53656E646572206973206E6F7420555249204D616E61676572206F722041646D PUSH1 0x0 DUP3 ADD MSTORE PUSH32 0x696E000000000000000000000000000000000000000000000000000000000000 PUSH1 0x20 DUP3 ADD MSTORE POP JUMP JUMPDEST PUSH32 0x2500000000000000000000000000000000000000000000000000000000000000 PUSH1 0x0 DUP3 ADD MSTORE POP JUMP JUMPDEST PUSH32 0x20646F6573206E6F742068617665206120636F75706F6E207769746820612064 PUSH1 0x0 DUP3 ADD MSTORE PUSH32 0x6973636F756E742072617465206F662000000000000000000000000000000000 PUSH1 0x20 DUP3 ADD MSTORE POP JUMP JUMPDEST PUSH32 0x4E6F20746F6B656E73206C65667420746F206D696E7400000000000000000000 PUSH1 0x0 DUP3 ADD MSTORE POP JUMP JUMPDEST PUSH32 0x737461727454696D65206973206C61746572207468616E20656E6454696D6500 PUSH1 0x0 DUP3 ADD MSTORE POP JUMP JUMPDEST PUSH32 0x53656E646572206973206E6F7420506F73742D53616C65204D696E746572206F PUSH1 0x0 DUP3 ADD MSTORE PUSH32 0x722041646D696E00000000000000000000000000000000000000000000000000 PUSH1 0x20 DUP3 ADD MSTORE POP JUMP JUMPDEST PUSH32 0x416363657373436F6E74726F6C3A206163636F756E7420000000000000000000 PUSH1 0x0 DUP3 ADD MSTORE POP JUMP JUMPDEST PUSH32 0x206973206D697373696E6720726F6C6520000000000000000000000000000000 PUSH1 0x0 DUP3 ADD MSTORE POP JUMP JUMPDEST PUSH32 0x416363657373436F6E74726F6C3A2063616E206F6E6C792072656E6F756E6365 PUSH1 0x0 DUP3 ADD MSTORE PUSH32 0x20726F6C657320666F722073656C660000000000000000000000000000000000 PUSH1 0x20 DUP3 ADD MSTORE POP JUMP JUMPDEST PUSH2 0x2EC7 DUP2 PUSH2 0x293C JUMP JUMPDEST DUP2 EQ PUSH2 0x2ED2 JUMPI PUSH1 0x0 DUP1 REVERT JUMPDEST POP JUMP JUMPDEST PUSH2 0x2EDE DUP2 PUSH2 0x294E JUMP JUMPDEST DUP2 EQ PUSH2 0x2EE9 JUMPI PUSH1 0x0 DUP1 REVERT JUMPDEST POP JUMP JUMPDEST PUSH2 0x2EF5 DUP2 PUSH2 0x295A JUMP JUMPDEST DUP2 EQ PUSH2 0x2F00 JUMPI PUSH1 0x0 DUP1 REVERT JUMPDEST POP JUMP JUMPDEST PUSH2 0x2F0C DUP2 PUSH2 0x2964 JUMP JUMPDEST DUP2 EQ PUSH2 0x2F17 JUMPI PUSH1 0x0 DUP1 REVERT JUMPDEST POP JUMP JUMPDEST PUSH2 0x2F23 DUP2 PUSH2 0x29B0 JUMP JUMPDEST DUP2 EQ PUSH2 0x2F2E JUMPI PUSH1 0x0 DUP1 REVERT JUMPDEST POP JUMP INVALID LOG2 PUSH5 0x6970667358 0x22 SLT KECCAK256 0x5F DUP14 DUP13 0xBB 0xC1 0xEF INVALID 0x2F EXTCODECOPY MULMOD 0xB0 PUSH9 0xE435FF9A3164665090 0x2A PUSH16 0x72B668E1ADDC44013D64736F6C634300 ADDMOD ADD STOP CALLER "
		},
		"gasEstimates": {
			"creation": {
				"codeDepositCost": "2427000",
				"executionCost": "infinite",
				"totalCost": "infinite"
			},
			"external": {
				"DEFAULT_ADMIN_ROLE()": "403",
				"ERC1155storageContract()": "1346",
				"POST_SALE_MINTER_ROLE()": "419",
				"SALE_MANAGER_ROLE()": "419",
				"URI_MANAGER_ROLE()": "374",
				"buyNFT()": "infinite",
				"buyNftWithDiscount(uint256)": "infinite",
				"calculateCustomPrice(address,uint256)": "infinite",
				"getMaxSupply()": "infinite",
				"getNextUnusedToken()": "infinite",
				"getRoleAdmin(bytes32)": "infinite",
				"grantRole(bytes32,address)": "infinite",
				"hasRole(bytes32,address)": "1951",
				"lastUpdate()": "infinite",
				"mintNextManyToTreasuryAddress(uint256)": "infinite",
				"mintNextToTreasuryAddress()": "infinite",
				"mintRemainderToTreasuryAddress()": "infinite",
				"preLoadURIs(uint256[],string[])": "infinite",
				"privilgedBuyerList()": "1369",
				"renounceRole(bytes32,address)": "infinite",
				"revokeRole(bytes32,address)": "infinite",
				"setERC1155StorageContractAddress(address)": "infinite",
				"setEndTime(uint256)": "infinite",
				"setPrivilegedBuyersListContractAddress(address)": "infinite",
				"setUsdcEscrowContractAddress(address)": "infinite",
				"setstartTime(uint256)": "infinite",
				"supportsInterface(bytes4)": "774",
				"treasuryAddress()": "1303",
				"updateAndCalculateCustomPrice(address,uint256)": "infinite",
				"usdcEscrowStorageContract()": "1324"
			},
			"internal": {
				"_buyNFT(uint256)": "infinite",
				"mintNextNftToAddress(address)": "infinite",
				"updateState()": "infinite"
			}
		},
		"methodIdentifiers": {
			"DEFAULT_ADMIN_ROLE()": "a217fddf",
			"ERC1155storageContract()": "8c83faeb",
			"POST_SALE_MINTER_ROLE()": "a77f0c48",
			"SALE_MANAGER_ROLE()": "551b42a8",
			"URI_MANAGER_ROLE()": "682d07d9",
			"buyNFT()": "bff29cee",
			"buyNftWithDiscount(uint256)": "4c9b73da",
			"calculateCustomPrice(address,uint256)": "ab6c0306",
			"getMaxSupply()": "4c0f38c2",
			"getNextUnusedToken()": "68fc01a2",
			"getRoleAdmin(bytes32)": "248a9ca3",
			"grantRole(bytes32,address)": "2f2ff15d",
			"hasRole(bytes32,address)": "91d14854",
			"lastUpdate()": "c0463711",
			"mintNextManyToTreasuryAddress(uint256)": "4e0ddff9",
			"mintNextToTreasuryAddress()": "26116d47",
			"mintRemainderToTreasuryAddress()": "f715dfca",
			"preLoadURIs(uint256[],string[])": "f121da92",
			"privilgedBuyerList()": "5ce7e721",
			"renounceRole(bytes32,address)": "36568abe",
			"revokeRole(bytes32,address)": "d547741f",
			"setERC1155StorageContractAddress(address)": "dd8134ac",
			"setEndTime(uint256)": "ccb98ffc",
			"setPrivilegedBuyersListContractAddress(address)": "b5e33f76",
			"setUsdcEscrowContractAddress(address)": "bebe2173",
			"setstartTime(uint256)": "944044a1",
			"supportsInterface(bytes4)": "01ffc9a7",
			"treasuryAddress()": "c5f956af",
			"updateAndCalculateCustomPrice(address,uint256)": "432c7c5d",
			"usdcEscrowStorageContract()": "c5dae48f"
		}
	},
	"abi": [
		{
			"inputs": [],
			"stateMutability": "nonpayable",
			"type": "constructor"
		},
		{
			"anonymous": false,
			"inputs": [
				{
					"indexed": true,
					"internalType": "bytes32",
					"name": "role",
					"type": "bytes32"
				},
				{
					"indexed": true,
					"internalType": "bytes32",
					"name": "previousAdminRole",
					"type": "bytes32"
				},
				{
					"indexed": true,
					"internalType": "bytes32",
					"name": "newAdminRole",
					"type": "bytes32"
				}
			],
			"name": "RoleAdminChanged",
			"type": "event"
		},
		{
			"anonymous": false,
			"inputs": [
				{
					"indexed": true,
					"internalType": "bytes32",
					"name": "role",
					"type": "bytes32"
				},
				{
					"indexed": true,
					"internalType": "address",
					"name": "account",
					"type": "address"
				},
				{
					"indexed": true,
					"internalType": "address",
					"name": "sender",
					"type": "address"
				}
			],
			"name": "RoleGranted",
			"type": "event"
		},
		{
			"anonymous": false,
			"inputs": [
				{
					"indexed": true,
					"internalType": "bytes32",
					"name": "role",
					"type": "bytes32"
				},
				{
					"indexed": true,
					"internalType": "address",
					"name": "account",
					"type": "address"
				},
				{
					"indexed": true,
					"internalType": "address",
					"name": "sender",
					"type": "address"
				}
			],
			"name": "RoleRevoked",
			"type": "event"
		},
		{
			"inputs": [],
			"name": "DEFAULT_ADMIN_ROLE",
			"outputs": [
				{
					"internalType": "bytes32",
					"name": "",
					"type": "bytes32"
				}
			],
			"stateMutability": "view",
			"type": "function"
		},
		{
			"inputs": [],
			"name": "ERC1155storageContract",
			"outputs": [
				{
					"internalType": "contract IMintStorage",
					"name": "",
					"type": "address"
				}
			],
			"stateMutability": "view",
			"type": "function"
		},
		{
			"inputs": [],
			"name": "POST_SALE_MINTER_ROLE",
			"outputs": [
				{
					"internalType": "bytes32",
					"name": "",
					"type": "bytes32"
				}
			],
			"stateMutability": "view",
			"type": "function"
		},
		{
			"inputs": [],
			"name": "SALE_MANAGER_ROLE",
			"outputs": [
				{
					"internalType": "bytes32",
					"name": "",
					"type": "bytes32"
				}
			],
			"stateMutability": "view",
			"type": "function"
		},
		{
			"inputs": [],
			"name": "URI_MANAGER_ROLE",
			"outputs": [
				{
					"internalType": "bytes32",
					"name": "",
					"type": "bytes32"
				}
			],
			"stateMutability": "view",
			"type": "function"
		},
		{
			"inputs": [],
			"name": "buyNFT",
			"outputs": [],
			"stateMutability": "nonpayable",
			"type": "function"
		},
		{
			"inputs": [
				{
					"internalType": "uint256",
					"name": "discountRate",
					"type": "uint256"
				}
			],
			"name": "buyNftWithDiscount",
			"outputs": [],
			"stateMutability": "nonpayable",
			"type": "function"
		},
		{
			"inputs": [
				{
					"internalType": "address",
					"name": "prospectiveBuyer",
					"type": "address"
				},
				{
					"internalType": "uint256",
					"name": "discountRate",
					"type": "uint256"
				}
			],
			"name": "calculateCustomPrice",
			"outputs": [
				{
					"internalType": "uint256",
					"name": "",
					"type": "uint256"
				}
			],
			"stateMutability": "view",
			"type": "function"
		},
		{
			"inputs": [],
			"name": "getMaxSupply",
			"outputs": [
				{
					"internalType": "uint256",
					"name": "",
					"type": "uint256"
				}
			],
			"stateMutability": "view",
			"type": "function"
		},
		{
			"inputs": [],
			"name": "getNextUnusedToken",
			"outputs": [
				{
					"internalType": "uint256",
					"name": "",
					"type": "uint256"
				}
			],
			"stateMutability": "view",
			"type": "function"
		},
		{
			"inputs": [
				{
					"internalType": "bytes32",
					"name": "role",
					"type": "bytes32"
				}
			],
			"name": "getRoleAdmin",
			"outputs": [
				{
					"internalType": "bytes32",
					"name": "",
					"type": "bytes32"
				}
			],
			"stateMutability": "view",
			"type": "function"
		},
		{
			"inputs": [
				{
					"internalType": "bytes32",
					"name": "role",
					"type": "bytes32"
				},
				{
					"internalType": "address",
					"name": "account",
					"type": "address"
				}
			],
			"name": "grantRole",
			"outputs": [],
			"stateMutability": "nonpayable",
			"type": "function"
		},
		{
			"inputs": [
				{
					"internalType": "bytes32",
					"name": "role",
					"type": "bytes32"
				},
				{
					"internalType": "address",
					"name": "account",
					"type": "address"
				}
			],
			"name": "hasRole",
			"outputs": [
				{
					"internalType": "bool",
					"name": "",
					"type": "bool"
				}
			],
			"stateMutability": "view",
			"type": "function"
		},
		{
			"inputs": [],
			"name": "lastUpdate",
			"outputs": [
				{
					"internalType": "uint256",
					"name": "price",
					"type": "uint256"
				},
				{
					"internalType": "uint256",
					"name": "time",
					"type": "uint256"
				},
				{
					"internalType": "bool",
					"name": "saleIsLive",
					"type": "bool"
				}
			],
			"stateMutability": "view",
			"type": "function"
		},
		{
			"inputs": [
				{
					"internalType": "uint256",
					"name": "numberToMint",
					"type": "uint256"
				}
			],
			"name": "mintNextManyToTreasuryAddress",
			"outputs": [],
			"stateMutability": "nonpayable",
			"type": "function"
		},
		{
			"inputs": [],
			"name": "mintNextToTreasuryAddress",
			"outputs": [],
			"stateMutability": "nonpayable",
			"type": "function"
		},
		{
			"inputs": [],
			"name": "mintRemainderToTreasuryAddress",
			"outputs": [],
			"stateMutability": "nonpayable",
			"type": "function"
		},
		{
			"inputs": [
				{
					"internalType": "uint256[]",
					"name": "ids",
					"type": "uint256[]"
				},
				{
					"internalType": "string[]",
					"name": "uris",
					"type": "string[]"
				}
			],
			"name": "preLoadURIs",
			"outputs": [],
			"stateMutability": "nonpayable",
			"type": "function"
		},
		{
			"inputs": [],
			"name": "privilgedBuyerList",
			"outputs": [
				{
					"internalType": "contract IPrivilegedListStorage",
					"name": "",
					"type": "address"
				}
			],
			"stateMutability": "view",
			"type": "function"
		},
		{
			"inputs": [
				{
					"internalType": "bytes32",
					"name": "role",
					"type": "bytes32"
				},
				{
					"internalType": "address",
					"name": "account",
					"type": "address"
				}
			],
			"name": "renounceRole",
			"outputs": [],
			"stateMutability": "nonpayable",
			"type": "function"
		},
		{
			"inputs": [
				{
					"internalType": "bytes32",
					"name": "role",
					"type": "bytes32"
				},
				{
					"internalType": "address",
					"name": "account",
					"type": "address"
				}
			],
			"name": "revokeRole",
			"outputs": [],
			"stateMutability": "nonpayable",
			"type": "function"
		},
		{
			"inputs": [
				{
					"internalType": "address",
					"name": "storageAddress",
					"type": "address"
				}
			],
			"name": "setERC1155StorageContractAddress",
			"outputs": [],
			"stateMutability": "nonpayable",
			"type": "function"
		},
		{
			"inputs": [
				{
					"internalType": "uint256",
					"name": "unixTime",
					"type": "uint256"
				}
			],
			"name": "setEndTime",
			"outputs": [],
			"stateMutability": "nonpayable",
			"type": "function"
		},
		{
			"inputs": [
				{
					"internalType": "address",
					"name": "storageAddress",
					"type": "address"
				}
			],
			"name": "setPrivilegedBuyersListContractAddress",
			"outputs": [],
			"stateMutability": "nonpayable",
			"type": "function"
		},
		{
			"inputs": [
				{
					"internalType": "address",
					"name": "storageAddress",
					"type": "address"
				}
			],
			"name": "setUsdcEscrowContractAddress",
			"outputs": [],
			"stateMutability": "nonpayable",
			"type": "function"
		},
		{
			"inputs": [
				{
					"internalType": "uint256",
					"name": "unixTime",
					"type": "uint256"
				}
			],
			"name": "setstartTime",
			"outputs": [],
			"stateMutability": "nonpayable",
			"type": "function"
		},
		{
			"inputs": [
				{
					"internalType": "bytes4",
					"name": "interfaceId",
					"type": "bytes4"
				}
			],
			"name": "supportsInterface",
			"outputs": [
				{
					"internalType": "bool",
					"name": "",
					"type": "bool"
				}
			],
			"stateMutability": "view",
			"type": "function"
		},
		{
			"inputs": [],
			"name": "treasuryAddress",
			"outputs": [
				{
					"internalType": "address",
					"name": "",
					"type": "address"
				}
			],
			"stateMutability": "view",
			"type": "function"
		},
		{
			"inputs": [
				{
					"internalType": "address",
					"name": "prospectiveBuyer",
					"type": "address"
				},
				{
					"internalType": "uint256",
					"name": "discountRate",
					"type": "uint256"
				}
			],
			"name": "updateAndCalculateCustomPrice",
			"outputs": [
				{
					"internalType": "uint256",
					"name": "",
					"type": "uint256"
				}
			],
			"stateMutability": "nonpayable",
			"type": "function"
		},
		{
			"inputs": [],
			"name": "usdcEscrowStorageContract",
			"outputs": [
				{
					"internalType": "contract IUsdcStorage",
					"name": "",
					"type": "address"
				}
			],
			"stateMutability": "view",
			"type": "function"
		}
	]
}