{
	"data": {
		"bytecode": {
			"linkReferences": {},
			"object": "608060405230600b60006101000a81548173ffffffffffffffffffffffffffffffffffffffff021916908373ffffffffffffffffffffffffffffffffffffffff1602179055506001600d553480156200005757600080fd5b5060405180606001604052806029815260200162005cf66029913962000083816200014660201b60201c565b50620000a4620000986200016260201b60201c565b6200016a60201b60201c565b6040518060400160405280601e81526020017f4d6574616e6f696120466f756e64696e6720436974697a656e73204e46540000815250600e9080519060200190620000f192919062000230565b506040518060400160405280600781526020017f4d4653204e465400000000000000000000000000000000000000000000000000815250600f90805190602001906200013f92919062000230565b5062000345565b80600290805190602001906200015e92919062000230565b5050565b600033905090565b6000600660009054906101000a900473ffffffffffffffffffffffffffffffffffffffff16905081600660006101000a81548173ffffffffffffffffffffffffffffffffffffffff021916908373ffffffffffffffffffffffffffffffffffffffff1602179055508173ffffffffffffffffffffffffffffffffffffffff168173ffffffffffffffffffffffffffffffffffffffff167f8be0079c531659141344cd1fd0a4f28419497f9722a3daafe3b4186f6b6457e060405160405180910390a35050565b8280546200023e90620002e0565b90600052602060002090601f016020900481019282620002625760008555620002ae565b82601f106200027d57805160ff1916838001178555620002ae565b82800160010185558215620002ae579182015b82811115620002ad57825182559160200191906001019062000290565b5b509050620002bd9190620002c1565b5090565b5b80821115620002dc576000816000905550600101620002c2565b5090565b60006002820490506001821680620002f957607f821691505b6020821081141562000310576200030f62000316565b5b50919050565b7f4e487b7100000000000000000000000000000000000000000000000000000000600052602260045260246000fd5b6159a180620003556000396000f3fe608060405234801561001057600080fd5b50600436106102315760003560e01c80635567659011610130578063bd85b039116100b8578063e85eaaff1161007c578063e85eaaff146106b4578063e985e9c5146106d0578063f121da9214610700578063f242432a1461071c578063f2fde38b1461073857610231565b8063bd85b039146105fc578063c53dfdac1461062c578063cebdbea71461065c578063d5abeb011461068c578063dd1e1656146106aa57610231565b80636d3cc82d116100ff5780636d3cc82d1461057e578063715018a61461059a5780638da5cb5b146105a457806395d89b41146105c2578063a22cb465146105e057610231565b806355676590146104f657806368f9dbe11461051257806368fc01a2146105425780636959c35c1461056057610231565b806333e06e7c116101be5780634c0f38c2116101825780634c0f38c21461042c5780634e1273f41461044a5780634f558e791461047a57806351486f73146104aa578063535435fe146104c657610231565b806333e06e7c14610386578063378dc3dc146103a25780633a2aa22b146103c05780633a7f8bdb146103de5780633d88cf3d146103fc57610231565b806315fda1941161020557806315fda194146102e457806318160ddd1461030057806329cb05311461031e5780632e8e98361461033a5780632eb2c2d61461036a57610231565b8062fdd58e1461023657806301ffc9a71461026657806306fdde03146102965780630e89341c146102b4575b600080fd5b610250600480360381019061024b9190613d06565b610754565b60405161025d9190614b23565b60405180910390f35b610280600480360381019061027b9190613e1a565b61081d565b60405161028d9190614797565b60405180910390f35b61029e6108ff565b6040516102ab91906147b2565b60405180910390f35b6102ce60048036038101906102c99190613f14565b61098d565b6040516102db91906147b2565b60405180910390f35b6102fe60048036038101906102f99190613f79565b610a32565b005b610308610abe565b6040516103159190614b23565b60405180910390f35b61033860048036038101906103339190613e6c565b610ac4565b005b610354600480360381019061034f9190613f14565b610b4e565b6040516103619190614797565b60405180910390f35b610384600480360381019061037f9190613b7c565b610b6e565b005b6103a0600480360381019061039b9190613e6c565b610c0f565b005b6103aa610c9b565b6040516103b79190614b23565b60405180910390f35b6103c8610ca0565b6040516103d5919061471c565b60405180910390f35b6103e6610cb2565b6040516103f39190614b23565b60405180910390f35b61041660048036038101906104119190613e6c565b610cb8565b6040516104239190614797565b60405180910390f35b610434610cca565b6040516104419190614b23565b60405180910390f35b610464600480360381019061045f9190613d42565b610cd3565b604051610471919061473e565b60405180910390f35b610494600480360381019061048f9190613f14565b610e84565b6040516104a19190614797565b60405180910390f35b6104c460048036038101906104bf9190613ead565b610e98565b005b6104e060048036038101906104db9190613f14565b610f14565b6040516104ed9190614797565b60405180910390f35b610510600480360381019061050b9190613b17565b610f52565b005b61052c60048036038101906105279190613e6c565b611102565b604051610539919061473e565b60405180910390f35b61054a611116565b6040516105579190614b23565b60405180910390f35b610568611120565b604051610575919061463f565b60405180910390f35b61059860048036038101906105939190613f14565b611146565b005b6105a26111ce565b005b6105ac611256565b6040516105b9919061463f565b60405180910390f35b6105ca611280565b6040516105d791906147b2565b60405180910390f35b6105fa60048036038101906105f59190613cca565b61130e565b005b61061660048036038101906106119190613f14565b611324565b6040516106239190614b23565b60405180910390f35b61064660048036038101906106419190613f79565b611341565b6040516106539190614797565b60405180910390f35b61067660048036038101906106719190613f3d565b611384565b604051610683919061471c565b60405180910390f35b6106946113b1565b6040516106a19190614b23565b60405180910390f35b6106b26113b6565b005b6106ce60048036038101906106c99190613f79565b61144f565b005b6106ea60048036038101906106e59190613b40565b6114db565b6040516106f79190614797565b60405180910390f35b61071a60048036038101906107159190613dae565b61156f565b005b61073660048036038101906107319190613c3b565b6116ec565b005b610752600480360381019061074d9190613b17565b61178d565b005b60008073ffffffffffffffffffffffffffffffffffffffff168373ffffffffffffffffffffffffffffffffffffffff1614156107c5576040517f08c379a00000000000000000000000000000000000000000000000000000000081526004016107bc90614883565b60405180910390fd5b60008083815260200190815260200160002060008473ffffffffffffffffffffffffffffffffffffffff1673ffffffffffffffffffffffffffffffffffffffff16815260200190815260200160002054905092915050565b60007fd9b67a26000000000000000000000000000000000000000000000000000000007bffffffffffffffffffffffffffffffffffffffffffffffffffffffff1916827bffffffffffffffffffffffffffffffffffffffffffffffffffffffff191614806108e857507f0e89341c000000000000000000000000000000000000000000000000000000007bffffffffffffffffffffffffffffffffffffffffffffffffffffffff1916827bffffffffffffffffffffffffffffffffffffffffffffffffffffffff1916145b806108f857506108f782611885565b5b9050919050565b600e805461090c90614e78565b80601f016020809104026020016040519081016040528092919081815260200182805461093890614e78565b80156109855780601f1061095a57610100808354040283529160200191610985565b820191906000526020600020905b81548152906001019060200180831161096857829003601f168201915b505050505081565b60606004600083815260200190815260200160002080546109ad90614e78565b80601f01602080910402602001604051908101604052809291908181526020018280546109d990614e78565b8015610a265780601f106109fb57610100808354040283529160200191610a26565b820191906000526020600020905b815481529060010190602001808311610a0957829003601f168201915b50505050509050919050565b610a3a6118ef565b73ffffffffffffffffffffffffffffffffffffffff16610a58611256565b73ffffffffffffffffffffffffffffffffffffffff1614610aae576040517f08c379a0000000000000000000000000000000000000000000000000000000008152600401610aa5906149c3565b60405180910390fd5b610aba828260006118f7565b5050565b600c5481565b610acc6118ef565b73ffffffffffffffffffffffffffffffffffffffff16610aea611256565b73ffffffffffffffffffffffffffffffffffffffff1614610b40576040517f08c379a0000000000000000000000000000000000000000000000000000000008152600401610b37906149c3565b60405180910390fd5b610b4b816001611926565b50565b60056020528060005260406000206000915054906101000a900460ff1681565b610b766118ef565b73ffffffffffffffffffffffffffffffffffffffff168573ffffffffffffffffffffffffffffffffffffffff161480610bbc5750610bbb85610bb66118ef565b6114db565b5b610bfb576040517f08c379a0000000000000000000000000000000000000000000000000000000008152600401610bf290614923565b60405180910390fd5b610c0885858585856119fb565b5050505050565b610c176118ef565b73ffffffffffffffffffffffffffffffffffffffff16610c35611256565b73ffffffffffffffffffffffffffffffffffffffff1614610c8b576040517f08c379a0000000000000000000000000000000000000000000000000000000008152600401610c82906149c3565b60405180910390fd5b610c9860008260016118f7565b50565b600a81565b6060610cad600080611d5b565b905090565b600d5481565b6000610cc382611e8b565b9050919050565b6000600a905090565b60608151835114610d19576040517f08c379a0000000000000000000000000000000000000000000000000000000008152600401610d1090614a83565b60405180910390fd5b6000835167ffffffffffffffff811115610d5c577f4e487b7100000000000000000000000000000000000000000000000000000000600052604160045260246000fd5b604051908082528060200260200182016040528015610d8a5781602001602082028036833780820191505090505b50905060005b8451811015610e7957610e23858281518110610dd5577f4e487b7100000000000000000000000000000000000000000000000000000000600052603260045260246000fd5b6020026020010151858381518110610e16577f4e487b7100000000000000000000000000000000000000000000000000000000600052603260045260246000fd5b6020026020010151610754565b828281518110610e5c577f4e487b7100000000000000000000000000000000000000000000000000000000600052603260045260246000fd5b60200260200101818152505080610e7290614edb565b9050610d90565b508091505092915050565b600080610e9083611324565b119050919050565b610ea28184611341565b81604051602001610eb39190614814565b60405160208183030381529060405290610f03576040517f08c379a0000000000000000000000000000000000000000000000000000000008152600401610efa91906147b2565b60405180910390fd5b50610f0f838383611e9f565b505050565b60006001610f2183611324565b148015610f4b57506005600083815260200190815260200160002060009054906101000a900460ff165b9050919050565b610f5a6118ef565b73ffffffffffffffffffffffffffffffffffffffff16610f78611256565b73ffffffffffffffffffffffffffffffffffffffff1614610fce576040517f08c379a0000000000000000000000000000000000000000000000000000000008152600401610fc5906149c3565b60405180910390fd5b600d546001610fdc82610e84565b1561101c576040517f08c379a000000000000000000000000000000000000000000000000000000000815260040161101390614ae3565b60405180910390fd5b600d548210611039576001826110329190614d38565b600d819055505b80600c600082825461104b9190614d38565b92505081905550600a600d541115600a60405160200161106b91906145e6565b604051602081830303815290604052906110bb576040517f08c379a00000000000000000000000000000000000000000000000000000000081526004016110b291906147b2565b60405180910390fd5b506110e583600d546001604051806020016040528060008152506110e0600d5461098d565b611ff8565b600d60008154809291906110f890614edb565b9190505550505050565b606061110f82600161212d565b9050919050565b6000600d54905090565b600b60009054906101000a900473ffffffffffffffffffffffffffffffffffffffff1681565b61114e6118ef565b73ffffffffffffffffffffffffffffffffffffffff1661116c611256565b73ffffffffffffffffffffffffffffffffffffffff16146111c2576040517f08c379a00000000000000000000000000000000000000000000000000000000081526004016111b9906149c3565b60405180910390fd5b6111cb816122db565b50565b6111d66118ef565b73ffffffffffffffffffffffffffffffffffffffff166111f4611256565b73ffffffffffffffffffffffffffffffffffffffff161461124a576040517f08c379a0000000000000000000000000000000000000000000000000000000008152600401611241906149c3565b60405180910390fd5b611254600061237f565b565b6000600660009054906101000a900473ffffffffffffffffffffffffffffffffffffffff16905090565b600f805461128d90614e78565b80601f01602080910402602001604051908101604052809291908181526020018280546112b990614e78565b80156113065780601f106112db57610100808354040283529160200191611306565b820191906000526020600020905b8154815290600101906020018083116112e957829003601f168201915b505050505081565b6113206113196118ef565b8383612445565b5050565b600060036000838152602001908152602001600020549050919050565b600061134d83836125b2565b6113615761135a82611e8b565b905061137e565b61136b8383612608565b8061137b575061137a82611e8b565b5b90505b92915050565b6060600083141561139e57611397610ca0565b90506113ab565b6113a88383611d5b565b90505b92915050565b600a81565b6113be6118ef565b73ffffffffffffffffffffffffffffffffffffffff166113dc611256565b73ffffffffffffffffffffffffffffffffffffffff1614611432576040517f08c379a0000000000000000000000000000000000000000000000000000000008152600401611429906149c3565b60405180910390fd5b6000600660146101000a81548160ff021916908315150217905550565b6114576118ef565b73ffffffffffffffffffffffffffffffffffffffff16611475611256565b73ffffffffffffffffffffffffffffffffffffffff16146114cb576040517f08c379a00000000000000000000000000000000000000000000000000000000081526004016114c2906149c3565b60405180910390fd5b6114d7828260016118f7565b5050565b6000600160008473ffffffffffffffffffffffffffffffffffffffff1673ffffffffffffffffffffffffffffffffffffffff16815260200190815260200160002060008373ffffffffffffffffffffffffffffffffffffffff1673ffffffffffffffffffffffffffffffffffffffff16815260200190815260200160002060009054906101000a900460ff16905092915050565b6115776118ef565b73ffffffffffffffffffffffffffffffffffffffff16611595611256565b73ffffffffffffffffffffffffffffffffffffffff16146115eb576040517f08c379a00000000000000000000000000000000000000000000000000000000081526004016115e2906149c3565b60405180910390fd5b60005b82518110156116e7576000838281518110611632577f4e487b7100000000000000000000000000000000000000000000000000000000600052603260045260246000fd5b602002602001015190506000838381518110611677577f4e487b7100000000000000000000000000000000000000000000000000000000600052603260045260246000fd5b6020026020010151905061168a82610e84565b156116ca576040517f08c379a00000000000000000000000000000000000000000000000000000000081526004016116c190614a43565b60405180910390fd5b6116d48282612622565b5050806116e090614edb565b90506115ee565b505050565b6116f46118ef565b73ffffffffffffffffffffffffffffffffffffffff168573ffffffffffffffffffffffffffffffffffffffff16148061173a5750611739856117346118ef565b6114db565b5b611779576040517f08c379a0000000000000000000000000000000000000000000000000000000008152600401611770906148e3565b60405180910390fd5b611786858585858561264e565b5050505050565b6117956118ef565b73ffffffffffffffffffffffffffffffffffffffff166117b3611256565b73ffffffffffffffffffffffffffffffffffffffff1614611809576040517f08c379a0000000000000000000000000000000000000000000000000000000008152600401611800906149c3565b60405180910390fd5b600073ffffffffffffffffffffffffffffffffffffffff168173ffffffffffffffffffffffffffffffffffffffff161415611879576040517f08c379a0000000000000000000000000000000000000000000000000000000008152600401611870906148a3565b60405180910390fd5b6118828161237f565b50565b60007f01ffc9a7000000000000000000000000000000000000000000000000000000007bffffffffffffffffffffffffffffffffffffffffffffffffffffffff1916827bffffffffffffffffffffffffffffffffffffffffffffffffffffffff1916149050919050565b600033905090565b61190183836125b2565b611915576119108383836128d0565b611921565b6119208383836129f7565b5b505050565b60005b60076002018360405161193c91906145cf565b9081526020016040518091039020805490508110156119f657600060076002018460405161196a91906145cf565b908152602001604051809103902082815481106119b0577f4e487b7100000000000000000000000000000000000000000000000000000000600052603260045260246000fd5b9060005260206000200154905082806119d157506119cf816001612a4a565b155b156119e2576119e1816000612a64565b5b5080806119ee90614edb565b915050611929565b505050565b8151835114611a3f576040517f08c379a0000000000000000000000000000000000000000000000000000000008152600401611a3690614aa3565b60405180910390fd5b600073ffffffffffffffffffffffffffffffffffffffff168473ffffffffffffffffffffffffffffffffffffffff161415611aaf576040517f08c379a0000000000000000000000000000000000000000000000000000000008152600401611aa690614903565b60405180910390fd5b6000611ab96118ef565b9050611ac9818787878787612b12565b60005b8451811015611cc6576000858281518110611b10577f4e487b7100000000000000000000000000000000000000000000000000000000600052603260045260246000fd5b602002602001015190506000858381518110611b55577f4e487b7100000000000000000000000000000000000000000000000000000000600052603260045260246000fd5b60200260200101519050600080600084815260200190815260200160002060008b73ffffffffffffffffffffffffffffffffffffffff1673ffffffffffffffffffffffffffffffffffffffff16815260200190815260200160002054905081811015611bf6576040517f08c379a0000000000000000000000000000000000000000000000000000000008152600401611bed90614983565b60405180910390fd5b81810360008085815260200190815260200160002060008c73ffffffffffffffffffffffffffffffffffffffff1673ffffffffffffffffffffffffffffffffffffffff168152602001908152602001600020819055508160008085815260200190815260200160002060008b73ffffffffffffffffffffffffffffffffffffffff1673ffffffffffffffffffffffffffffffffffffffff1681526020019081526020016000206000828254611cab9190614d38565b9250508190555050505080611cbf90614edb565b9050611acc565b508473ffffffffffffffffffffffffffffffffffffffff168673ffffffffffffffffffffffffffffffffffffffff168273ffffffffffffffffffffffffffffffffffffffff167f4a39dc06d4c0dbc64b70af90fd698a233a518aa5d07e595d983b8c0526c8f7fb8787604051611d3d929190614760565b60405180910390a4611d53818787878787612d24565b505050505050565b6060808215611d7257611d6f600080611d5b565b90505b60008151905060005b6007600301600087815260200190815260200160002080549050811015611e7f576000600760030160008881526020019081526020016000208281548110611dec577f4e487b7100000000000000000000000000000000000000000000000000000000600052603260045260246000fd5b906000526020600020015490506000611e06826000612f0b565b9050806060015115611e6a578060400151858581518110611e50577f4e487b7100000000000000000000000000000000000000000000000000000000600052603260045260246000fd5b60200260200101819052508380611e6690614edb565b9450505b50508080611e7790614edb565b915050611d7b565b50819250505092915050565b6000611e98600083612608565b9050919050565b611ea76118ef565b73ffffffffffffffffffffffffffffffffffffffff168273ffffffffffffffffffffffffffffffffffffffff161480611eed5750611eec82611ee76118ef565b6114db565b5b611f2c576040517f08c379a0000000000000000000000000000000000000000000000000000000008152600401611f2390614943565b60405180910390fd5b611f3581610f14565b611f74576040517f08c379a0000000000000000000000000000000000000000000000000000000008152600401611f6b906149a3565b60405180910390fd5b6000611f808383610754565b90506001811483604051602001611f979190614842565b60405160208183030381529060405290611fe7576040517f08c379a0000000000000000000000000000000000000000000000000000000008152600401611fde91906147b2565b60405180910390fd5b50611ff28285612622565b50505050565b836005600082815260200190815260200160002060009054906101000a900460ff161561205a576040517f08c379a000000000000000000000000000000000000000000000000000000000815260040161205190614b03565b60405180910390fd5b61206385610e84565b156120a3576040517f08c379a000000000000000000000000000000000000000000000000000000000815260040161209a90614a03565b60405180910390fd5b6120ad8583611341565b856040516020016120be9190614814565b6040516020818303038152906040529061210e576040517f08c379a000000000000000000000000000000000000000000000000000000000815260040161210591906147b2565b60405180910390fd5b506121198583612622565b6121258686868661307d565b505050505050565b60608082801561214457506121436000856125b2565b5b801561215d57506121586000856001613213565b606001515b156121ab5760008160008151811061219e577f4e487b7100000000000000000000000000000000000000000000000000000000600052603260045260246000fd5b6020026020010181815250505b60008151905060005b6007600201866040516121c791906145cf565b9081526020016040518091039020805490508110156122cf5760006007600201876040516121f591906145cf565b9081526020016040518091039020828154811061223b577f4e487b7100000000000000000000000000000000000000000000000000000000600052603260045260246000fd5b906000526020600020015490506000612255826000612f0b565b90508060600151156122ba57806020015185858151811061229f577f4e487b7100000000000000000000000000000000000000000000000000000000600052603260045260246000fd5b60200260200101818152505083806122b690614edb565b9450505b505080806122c790614edb565b9150506121b4565b50819250505092915050565b60005b600760030160008381526020019081526020016000208054905081101561237b57600060076003016000848152602001908152602001600020828154811061234f577f4e487b7100000000000000000000000000000000000000000000000000000000600052603260045260246000fd5b90600052602060002001549050612367816000612a64565b50808061237390614edb565b9150506122de565b5050565b6000600660009054906101000a900473ffffffffffffffffffffffffffffffffffffffff16905081600660006101000a81548173ffffffffffffffffffffffffffffffffffffffff021916908373ffffffffffffffffffffffffffffffffffffffff1602179055508173ffffffffffffffffffffffffffffffffffffffff168173ffffffffffffffffffffffffffffffffffffffff167f8be0079c531659141344cd1fd0a4f28419497f9722a3daafe3b4186f6b6457e060405160405180910390a35050565b8173ffffffffffffffffffffffffffffffffffffffff168373ffffffffffffffffffffffffffffffffffffffff1614156124b4576040517f08c379a00000000000000000000000000000000000000000000000000000000081526004016124ab90614a63565b60405180910390fd5b80600160008573ffffffffffffffffffffffffffffffffffffffff1673ffffffffffffffffffffffffffffffffffffffff16815260200190815260200160002060008473ffffffffffffffffffffffffffffffffffffffff1673ffffffffffffffffffffffffffffffffffffffff16815260200190815260200160002060006101000a81548160ff0219169083151502179055508173ffffffffffffffffffffffffffffffffffffffff168373ffffffffffffffffffffffffffffffffffffffff167f17307eab39ab6107e8899845ad3d59bd9653f200f220920489ca2b5937696c31836040516125a59190614797565b60405180910390a3505050565b6000806007600101600085856040516020016125cf929190614617565b6040516020818303038152906040528051906020012081526020019081526020016000205490506125ff81613272565b91505092915050565b600061261683836000613213565b60600151905092915050565b8060046000848152602001908152602001600020908051906020019061264992919061375e565b505050565b600073ffffffffffffffffffffffffffffffffffffffff168473ffffffffffffffffffffffffffffffffffffffff1614156126be576040517f08c379a00000000000000000000000000000000000000000000000000000000081526004016126b590614903565b60405180910390fd5b60006126c86118ef565b90506126e88187876126d98861327f565b6126e28861327f565b87612b12565b600080600086815260200190815260200160002060008873ffffffffffffffffffffffffffffffffffffffff1673ffffffffffffffffffffffffffffffffffffffff1681526020019081526020016000205490508381101561277f576040517f08c379a000000000000000000000000000000000000000000000000000000000815260040161277690614983565b60405180910390fd5b83810360008087815260200190815260200160002060008973ffffffffffffffffffffffffffffffffffffffff1673ffffffffffffffffffffffffffffffffffffffff168152602001908152602001600020819055508360008087815260200190815260200160002060008873ffffffffffffffffffffffffffffffffffffffff1673ffffffffffffffffffffffffffffffffffffffff16815260200190815260200160002060008282546128349190614d38565b925050819055508573ffffffffffffffffffffffffffffffffffffffff168773ffffffffffffffffffffffffffffffffffffffff168373ffffffffffffffffffffffffffffffffffffffff167fc3d58168c5ae7397731d063d5bbf3d657854427343f4c083240f7aacaa2d0f6288886040516128b1929190614b3e565b60405180910390a46128c7828888888888613345565b50505050505050565b6128da83836125b2565b1561291a576040517f08c379a000000000000000000000000000000000000000000000000000000000815260040161291190614a23565b60405180910390fd5b600061292784848461352c565b905080600760010160008686604051602001612944929190614617565b60405160208183030381529060405280519060200120815260200190815260200160002081905550600760030160008581526020019081526020016000208190806001815401808255809150506001900390600052602060002001600090919091909150556007600201836040516129bc91906145cf565b908152602001604051809103902081908060018154018082558091505060019003906000526020600020016000909190919091505550505050565b6000600760010160008585604051602001612a13929190614617565b604051602081830303815290604052805190602001208152602001908152602001600020549050612a448183612a64565b50505050565b600080612a578484612f0b565b6020015114905092915050565b6000821415612aa8576040517f08c379a0000000000000000000000000000000000000000000000000000000008152600401612a9f906148c3565b60405180910390fd5b8060076000018381548110612ae6577f4e487b7100000000000000000000000000000000000000000000000000000000600052603260045260246000fd5b906000526020600020906004020160030160006101000a81548160ff0219169083151502179055505050565b612b20868686868686613743565b600073ffffffffffffffffffffffffffffffffffffffff168573ffffffffffffffffffffffffffffffffffffffff161415612c1e5760005b8351811015612c1c57828181518110612b9a577f4e487b7100000000000000000000000000000000000000000000000000000000600052603260045260246000fd5b602002602001015160036000868481518110612bdf577f4e487b7100000000000000000000000000000000000000000000000000000000600052603260045260246000fd5b602002602001015181526020019081526020016000206000828254612c049190614d38565b9250508190555080612c1590614edb565b9050612b58565b505b600073ffffffffffffffffffffffffffffffffffffffff168473ffffffffffffffffffffffffffffffffffffffff161415612d1c5760005b8351811015612d1a57828181518110612c98577f4e487b7100000000000000000000000000000000000000000000000000000000600052603260045260246000fd5b602002602001015160036000868481518110612cdd577f4e487b7100000000000000000000000000000000000000000000000000000000600052603260045260246000fd5b602002602001015181526020019081526020016000206000828254612d029190614d8e565b9250508190555080612d1390614edb565b9050612c56565b505b505050505050565b612d438473ffffffffffffffffffffffffffffffffffffffff1661374b565b15612f03578373ffffffffffffffffffffffffffffffffffffffff1663bc197c8187878686866040518663ffffffff1660e01b8152600401612d8995949392919061465a565b602060405180830381600087803b158015612da357600080fd5b505af1925050508015612dd457506040513d601f19601f82011682018060405250810190612dd19190613e43565b60015b612e7a57612de0614fbb565b806308c379a01415612e3d5750612df5615879565b80612e005750612e3f565b806040517f08c379a0000000000000000000000000000000000000000000000000000000008152600401612e3491906147b2565b60405180910390fd5b505b6040517f08c379a0000000000000000000000000000000000000000000000000000000008152600401612e71906147d4565b60405180910390fd5b63bc197c8160e01b7bffffffffffffffffffffffffffffffffffffffffffffffffffffffff1916817bffffffffffffffffffffffffffffffffffffffffffffffffffffffff191614612f01576040517f08c379a0000000000000000000000000000000000000000000000000000000008152600401612ef8906147f4565b60405180910390fd5b505b505050505050565b612f136137e4565b8115612f5e576000831415612f5d576040517f08c379a0000000000000000000000000000000000000000000000000000000008152600401612f5490614963565b60405180910390fd5b5b60076000018381548110612f9b577f4e487b7100000000000000000000000000000000000000000000000000000000600052603260045260246000fd5b90600052602060002090600402016040518060800160405290816000820154815260200160018201548152602001600282018054612fd890614e78565b80601f016020809104026020016040519081016040528092919081815260200182805461300490614e78565b80156130515780601f1061302657610100808354040283529160200191613051565b820191906000526020600020905b81548152906001019060200180831161303457829003601f168201915b505050505081526020016003820160009054906101000a900460ff161515151581525050905092915050565b600073ffffffffffffffffffffffffffffffffffffffff168473ffffffffffffffffffffffffffffffffffffffff1614156130ed576040517f08c379a00000000000000000000000000000000000000000000000000000000081526004016130e490614ac3565b60405180910390fd5b60006130f76118ef565b9050613118816000876131098861327f565b6131128861327f565b87612b12565b8260008086815260200190815260200160002060008773ffffffffffffffffffffffffffffffffffffffff1673ffffffffffffffffffffffffffffffffffffffff16815260200190815260200160002060008282546131779190614d38565b925050819055508473ffffffffffffffffffffffffffffffffffffffff16600073ffffffffffffffffffffffffffffffffffffffff168273ffffffffffffffffffffffffffffffffffffffff167fc3d58168c5ae7397731d063d5bbf3d657854427343f4c083240f7aacaa2d0f6287876040516131f5929190614b3e565b60405180910390a461320c81600087878787613345565b5050505050565b61321b6137e4565b6000600760010160008686604051602001613237929190614617565b6040516020818303038152906040528051906020012081526020019081526020016000205490506132688184612f0b565b9150509392505050565b6000808214159050919050565b60606000600167ffffffffffffffff8111156132c4577f4e487b7100000000000000000000000000000000000000000000000000000000600052604160045260246000fd5b6040519080825280602002602001820160405280156132f25781602001602082028036833780820191505090505b5090508281600081518110613330577f4e487b7100000000000000000000000000000000000000000000000000000000600052603260045260246000fd5b60200260200101818152505080915050919050565b6133648473ffffffffffffffffffffffffffffffffffffffff1661374b565b15613524578373ffffffffffffffffffffffffffffffffffffffff1663f23a6e6187878686866040518663ffffffff1660e01b81526004016133aa9594939291906146c2565b602060405180830381600087803b1580156133c457600080fd5b505af19250505080156133f557506040513d601f19601f820116820180604052508101906133f29190613e43565b60015b61349b57613401614fbb565b806308c379a0141561345e5750613416615879565b806134215750613460565b806040517f08c379a000000000000000000000000000000000000000000000000000000000815260040161345591906147b2565b60405180910390fd5b505b6040517f08c379a0000000000000000000000000000000000000000000000000000000008152600401613492906147d4565b60405180910390fd5b63f23a6e6160e01b7bffffffffffffffffffffffffffffffffffffffffffffffffffffffff1916817bffffffffffffffffffffffffffffffffffffffffffffffffffffffff191614613522576040517f08c379a0000000000000000000000000000000000000000000000000000000008152600401613519906147f4565b60405180910390fd5b505b505050505050565b600080600760000180549050141561361457604051806080016040528060008152602001600081526020016040518060200160405280600081525081526020016000151581525060076000016000815481106135b1577f4e487b7100000000000000000000000000000000000000000000000000000000600052603260045260246000fd5b9060005260206000209060040201600082015181600001556020820151816001015560408201518160020190805190602001906135ef92919061375e565b5060608201518160030160006101000a81548160ff0219169083151502179055509050505b6040518060200160405280600081525080519060200120838051906020012014613673576040517f08c379a000000000000000000000000000000000000000000000000000000000815260040161366a906149e3565b60405180910390fd5b600060405180608001604052806007600001805490508152602001868152602001858152602001841515815250905060076000018190806001815401808255809150506001900390600052602060002090600402016000909190919091506000820151816000015560208201518160010155604082015181600201908051906020019061370192919061375e565b5060608201518160030160006101000a81548160ff021916908315150217905550505060016007600001805490506137399190614d8e565b9150509392505050565b505050505050565b600080823b905060008111915050919050565b82805461376a90614e78565b90600052602060002090601f01602090048101928261378c57600085556137d3565b82601f106137a557805160ff19168380011785556137d3565b828001600101855582156137d3579182015b828111156137d25782518255916020019190600101906137b7565b5b5090506137e0919061380e565b5090565b60405180608001604052806000815260200160008152602001606081526020016000151581525090565b5b8082111561382757600081600090555060010161380f565b5090565b600061383e61383984614b8c565b614b67565b9050808382526020820190508285602086028201111561385d57600080fd5b60005b8581101561388d578161387388826139dc565b845260208401935060208301925050600181019050613860565b5050509392505050565b60006138aa6138a584614bb8565b614b67565b9050808382526020820190508260005b858110156138ea57813585016138d08882613ad8565b8452602084019350602083019250506001810190506138ba565b5050509392505050565b600061390761390284614be4565b614b67565b9050808382526020820190508285602086028201111561392657600080fd5b60005b85811015613956578161393c8882613b02565b845260208401935060208301925050600181019050613929565b5050509392505050565b600061397361396e84614c10565b614b67565b90508281526020810184848401111561398b57600080fd5b613996848285614e36565b509392505050565b60006139b16139ac84614c41565b614b67565b9050828152602081018484840111156139c957600080fd5b6139d4848285614e36565b509392505050565b6000813590506139eb8161590f565b92915050565b600082601f830112613a0257600080fd5b8135613a1284826020860161382b565b91505092915050565b600082601f830112613a2c57600080fd5b8135613a3c848260208601613897565b91505092915050565b600082601f830112613a5657600080fd5b8135613a668482602086016138f4565b91505092915050565b600081359050613a7e81615926565b92915050565b600081359050613a938161593d565b92915050565b600081519050613aa88161593d565b92915050565b600082601f830112613abf57600080fd5b8135613acf848260208601613960565b91505092915050565b600082601f830112613ae957600080fd5b8135613af984826020860161399e565b91505092915050565b600081359050613b1181615954565b92915050565b600060208284031215613b2957600080fd5b6000613b37848285016139dc565b91505092915050565b60008060408385031215613b5357600080fd5b6000613b61858286016139dc565b9250506020613b72858286016139dc565b9150509250929050565b600080600080600060a08688031215613b9457600080fd5b6000613ba2888289016139dc565b9550506020613bb3888289016139dc565b945050604086013567ffffffffffffffff811115613bd057600080fd5b613bdc88828901613a45565b935050606086013567ffffffffffffffff811115613bf957600080fd5b613c0588828901613a45565b925050608086013567ffffffffffffffff811115613c2257600080fd5b613c2e88828901613aae565b9150509295509295909350565b600080600080600060a08688031215613c5357600080fd5b6000613c61888289016139dc565b9550506020613c72888289016139dc565b9450506040613c8388828901613b02565b9350506060613c9488828901613b02565b925050608086013567ffffffffffffffff811115613cb157600080fd5b613cbd88828901613aae565b9150509295509295909350565b60008060408385031215613cdd57600080fd5b6000613ceb858286016139dc565b9250506020613cfc85828601613a6f565b9150509250929050565b60008060408385031215613d1957600080fd5b6000613d27858286016139dc565b9250506020613d3885828601613b02565b9150509250929050565b60008060408385031215613d5557600080fd5b600083013567ffffffffffffffff811115613d6f57600080fd5b613d7b858286016139f1565b925050602083013567ffffffffffffffff811115613d9857600080fd5b613da485828601613a45565b9150509250929050565b60008060408385031215613dc157600080fd5b600083013567ffffffffffffffff811115613ddb57600080fd5b613de785828601613a45565b925050602083013567ffffffffffffffff811115613e0457600080fd5b613e1085828601613a1b565b9150509250929050565b600060208284031215613e2c57600080fd5b6000613e3a84828501613a84565b91505092915050565b600060208284031215613e5557600080fd5b6000613e6384828501613a99565b91505092915050565b600060208284031215613e7e57600080fd5b600082013567ffffffffffffffff811115613e9857600080fd5b613ea484828501613ad8565b91505092915050565b600080600060608486031215613ec257600080fd5b600084013567ffffffffffffffff811115613edc57600080fd5b613ee886828701613ad8565b9350506020613ef9868287016139dc565b9250506040613f0a86828701613b02565b9150509250925092565b600060208284031215613f2657600080fd5b6000613f3484828501613b02565b91505092915050565b60008060408385031215613f5057600080fd5b6000613f5e85828601613b02565b9250506020613f6f85828601613a6f565b9150509250929050565b60008060408385031215613f8c57600080fd5b6000613f9a85828601613b02565b925050602083013567ffffffffffffffff811115613fb757600080fd5b613fc385828601613ad8565b9150509250929050565b6000613fd98383614123565b905092915050565b6000613fed838361459a565b60208301905092915050565b61400281614dc2565b82525050565b600061401382614c92565b61401d8185614cd8565b93508360208202850161402f85614c72565b8060005b8581101561406b578484038952815161404c8582613fcd565b945061405783614cbe565b925060208a01995050600181019050614033565b50829750879550505050505092915050565b600061408882614c9d565b6140928185614ce9565b935061409d83614c82565b8060005b838110156140ce5781516140b58882613fe1565b97506140c083614ccb565b9250506001810190506140a1565b5085935050505092915050565b6140e481614dd4565b82525050565b60006140f582614ca8565b6140ff8185614cfa565b935061410f818560208601614e45565b61411881614fdd565b840191505092915050565b600061412e82614cb3565b6141388185614d0b565b9350614148818560208601614e45565b61415181614fdd565b840191505092915050565b600061416782614cb3565b6141718185614d1c565b9350614181818560208601614e45565b61418a81614fdd565b840191505092915050565b60006141a082614cb3565b6141aa8185614d2d565b93506141ba818560208601614e45565b80840191505092915050565b60006141d3603483614d1c565b91506141de82614ffb565b604082019050919050565b60006141f6602883614d1c565b91506142018261504a565b604082019050919050565b6000614219602c83614d1c565b915061422482615099565b604082019050919050565b600061423c602383614d2d565b9150614247826150e8565b602382019050919050565b600061425f602d83614d1c565b915061426a82615137565b604082019050919050565b6000614282602b83614d1c565b915061428d82615186565b604082019050919050565b60006142a5602683614d1c565b91506142b0826151d5565b604082019050919050565b60006142c8601d83614d1c565b91506142d382615224565b602082019050919050565b60006142eb602983614d1c565b91506142f68261524d565b604082019050919050565b600061430e602583614d1c565b91506143198261529c565b604082019050919050565b6000614331601683614d1c565b915061433c826152eb565b602082019050919050565b6000614354603283614d1c565b915061435f82615314565b604082019050919050565b6000614377604183614d1c565b915061438282615363565b606082019050919050565b600061439a602183614d1c565b91506143a5826153d8565b604082019050919050565b60006143bd602a83614d1c565b91506143c882615427565b604082019050919050565b60006143e0603983614d1c565b91506143eb82615476565b604082019050919050565b6000614403602083614d1c565b915061440e826154c5565b602082019050919050565b6000614426602083614d1c565b9150614431826154ee565b602082019050919050565b6000614449603483614d1c565b915061445482615517565b604082019050919050565b600061446c600883614d2d565b915061447782615566565b600882019050919050565b600061448f603d83614d1c565b915061449a8261558f565b604082019050919050565b60006144b2602483614d1c565b91506144bd826155de565b604082019050919050565b60006144d5602983614d1c565b91506144e08261562d565b604082019050919050565b60006144f8602983614d1c565b91506145038261567c565b604082019050919050565b600061451b602883614d1c565b9150614526826156cb565b604082019050919050565b600061453e602183614d1c565b91506145498261571a565b604082019050919050565b600061456160a183614d1c565b915061456c82615769565b60c082019050919050565b6000614584601583614d1c565b915061458f82615850565b602082019050919050565b6145a381614e2c565b82525050565b6145b281614e2c565b82525050565b6145c96145c482614e2c565b614f24565b82525050565b60006145db8284614195565b915081905092915050565b60006145f18261422f565b91506145fd82846145b8565b60208201915061460c8261445f565b915081905092915050565b600061462382856145b8565b6020820191506146338284614195565b91508190509392505050565b60006020820190506146546000830184613ff9565b92915050565b600060a08201905061466f6000830188613ff9565b61467c6020830187613ff9565b818103604083015261468e818661407d565b905081810360608301526146a2818561407d565b905081810360808301526146b681846140ea565b90509695505050505050565b600060a0820190506146d76000830188613ff9565b6146e46020830187613ff9565b6146f160408301866145a9565b6146fe60608301856145a9565b818103608083015261471081846140ea565b90509695505050505050565b600060208201905081810360008301526147368184614008565b905092915050565b60006020820190508181036000830152614758818461407d565b905092915050565b6000604082019050818103600083015261477a818561407d565b9050818103602083015261478e818461407d565b90509392505050565b60006020820190506147ac60008301846140db565b92915050565b600060208201905081810360008301526147cc818461415c565b905092915050565b600060208201905081810360008301526147ed816141c6565b9050919050565b6000602082019050818103600083015261480d816141e9565b9050919050565b6000604082019050818103600083015261482d8161420c565b905061483c60208301846145a9565b92915050565b6000606082019050818103600083015261485b81614252565b905061486a6020830184613ff9565b818103604083015261487b81614324565b905092915050565b6000602082019050818103600083015261489c81614275565b9050919050565b600060208201905081810360008301526148bc81614298565b9050919050565b600060208201905081810360008301526148dc816142bb565b9050919050565b600060208201905081810360008301526148fc816142de565b9050919050565b6000602082019050818103600083015261491c81614301565b9050919050565b6000602082019050818103600083015261493c81614347565b9050919050565b6000602082019050818103600083015261495c8161436a565b9050919050565b6000602082019050818103600083015261497c8161438d565b9050919050565b6000602082019050818103600083015261499c816143b0565b9050919050565b600060208201905081810360008301526149bc816143d3565b9050919050565b600060208201905081810360008301526149dc816143f6565b9050919050565b600060208201905081810360008301526149fc81614419565b9050919050565b60006020820190508181036000830152614a1c8161443c565b9050919050565b60006020820190508181036000830152614a3c81614482565b9050919050565b60006020820190508181036000830152614a5c816144a5565b9050919050565b60006020820190508181036000830152614a7c816144c8565b9050919050565b60006020820190508181036000830152614a9c816144eb565b9050919050565b60006020820190508181036000830152614abc8161450e565b9050919050565b60006020820190508181036000830152614adc81614531565b9050919050565b60006020820190508181036000830152614afc81614554565b9050919050565b60006020820190508181036000830152614b1c81614577565b9050919050565b6000602082019050614b3860008301846145a9565b92915050565b6000604082019050614b5360008301856145a9565b614b6060208301846145a9565b9392505050565b6000614b71614b82565b9050614b7d8282614eaa565b919050565b6000604051905090565b600067ffffffffffffffff821115614ba757614ba6614f8c565b5b602082029050602081019050919050565b600067ffffffffffffffff821115614bd357614bd2614f8c565b5b602082029050602081019050919050565b600067ffffffffffffffff821115614bff57614bfe614f8c565b5b602082029050602081019050919050565b600067ffffffffffffffff821115614c2b57614c2a614f8c565b5b614c3482614fdd565b9050602081019050919050565b600067ffffffffffffffff821115614c5c57614c5b614f8c565b5b614c6582614fdd565b9050602081019050919050565b6000819050602082019050919050565b6000819050602082019050919050565b600081519050919050565b600081519050919050565b600081519050919050565b600081519050919050565b6000602082019050919050565b6000602082019050919050565b600082825260208201905092915050565b600082825260208201905092915050565b600082825260208201905092915050565b600082825260208201905092915050565b600082825260208201905092915050565b600081905092915050565b6000614d4382614e2c565b9150614d4e83614e2c565b9250827fffffffffffffffffffffffffffffffffffffffffffffffffffffffffffffffff03821115614d8357614d82614f2e565b5b828201905092915050565b6000614d9982614e2c565b9150614da483614e2c565b925082821015614db757614db6614f2e565b5b828203905092915050565b6000614dcd82614e0c565b9050919050565b60008115159050919050565b60007fffffffff0000000000000000000000000000000000000000000000000000000082169050919050565b600073ffffffffffffffffffffffffffffffffffffffff82169050919050565b6000819050919050565b82818337600083830152505050565b60005b83811015614e63578082015181840152602081019050614e48565b83811115614e72576000848401525b50505050565b60006002820490506001821680614e9057607f821691505b60208210811415614ea457614ea3614f5d565b5b50919050565b614eb382614fdd565b810181811067ffffffffffffffff82111715614ed257614ed1614f8c565b5b80604052505050565b6000614ee682614e2c565b91507fffffffffffffffffffffffffffffffffffffffffffffffffffffffffffffffff821415614f1957614f18614f2e565b5b600182019050919050565b6000819050919050565b7f4e487b7100000000000000000000000000000000000000000000000000000000600052601160045260246000fd5b7f4e487b7100000000000000000000000000000000000000000000000000000000600052602260045260246000fd5b7f4e487b7100000000000000000000000000000000000000000000000000000000600052604160045260246000fd5b600060033d1115614fda5760046000803e614fd7600051614fee565b90505b90565b6000601f19601f8301169050919050565b60008160e01c9050919050565b7f455243313135353a207472616e7366657220746f206e6f6e204552433131353560008201527f526563656976657220696d706c656d656e746572000000000000000000000000602082015250565b7f455243313135353a204552433131353552656365697665722072656a6563746560008201527f6420746f6b656e73000000000000000000000000000000000000000000000000602082015250565b7f476976656e206d65746164617461206973206e6f7420617070726f766564206660008201527f6f7220746f6b656e206964200000000000000000000000000000000000000000602082015250565b7f43616e6e6f74206d696e74206d6f7265207468616e203c6d6178537570706c7960008201527f3e20280000000000000000000000000000000000000000000000000000000000602082015250565b7f455243313135354d756c74695552495f557365725570677261646561626c653a60008201527f20676976656e206f776e65722000000000000000000000000000000000000000602082015250565b7f455243313135353a2062616c616e636520717565727920666f7220746865207a60008201527f65726f2061646472657373000000000000000000000000000000000000000000602082015250565b7f4f776e61626c653a206e6577206f776e657220697320746865207a65726f206160008201527f6464726573730000000000000000000000000000000000000000000000000000602082015250565b7f43616e6e6f742065646974205f73746174652e656e74726965735b305d000000600082015250565b7f455243313135353a2063616c6c6572206973206e6f74206f776e6572206e6f7260008201527f20617070726f7665640000000000000000000000000000000000000000000000602082015250565b7f455243313135353a207472616e7366657220746f20746865207a65726f20616460008201527f6472657373000000000000000000000000000000000000000000000000000000602082015250565b7f20646f6573206e6f74206f776e2074686973204e465400000000000000000000600082015250565b7f455243313135353a207472616e736665722063616c6c6572206973206e6f742060008201527f6f776e6572206e6f7220617070726f7665640000000000000000000000000000602082015250565b7f455243313135354d756c74695552495f557365725570677261646561626c653a60008201527f2063616c6c6572206973206e6f74206f776e6572206e6f7220617070726f766560208201527f6400000000000000000000000000000000000000000000000000000000000000604082015250565b7f43616e6e6f74207265747269657665205f73746174652e656e74726965735b3060008201527f5d00000000000000000000000000000000000000000000000000000000000000602082015250565b7f455243313135353a20696e73756666696369656e742062616c616e636520666f60008201527f72207472616e7366657200000000000000000000000000000000000000000000602082015250565b7f43616e206f6e6c79206368616e676520555249206f6e206120746f6b656e207460008201527f686174206973207065726d616e656e746c7920756e6971756500000000000000602082015250565b7f4f776e61626c653a2063616c6c6572206973206e6f7420746865206f776e6572600082015250565b7f43616e6e6f74206d616b6520656e747279207769746820656d70747920555249600082015250565b7f43616e6e6f74206368616e6765206d65746164617461206f662065786973746960008201527f6e6720746f6b656e20766961206d696e74696e67000000000000000000000000602082015250565b7f2920746f6b656e73000000000000000000000000000000000000000000000000600082015250565b7f4c313a205f6d616b65456e7472793a20656e7472792077697468206d6174636860008201527f696e6720696420616e642075726920616c726561647920657869737473000000602082015250565b7f43616e6e6f74206368616e67652055524920666f72206578697374696e67207460008201527f6f6b656e00000000000000000000000000000000000000000000000000000000602082015250565b7f455243313135353a2073657474696e6720617070726f76616c2073746174757360008201527f20666f722073656c660000000000000000000000000000000000000000000000602082015250565b7f455243313135353a206163636f756e747320616e6420696473206c656e67746860008201527f206d69736d617463680000000000000000000000000000000000000000000000602082015250565b7f455243313135353a2069647320616e6420616d6f756e7473206c656e6774682060008201527f6d69736d61746368000000000000000000000000000000000000000000000000602082015250565b7f455243313135353a206d696e7420746f20746865207a65726f2061646472657360008201527f7300000000000000000000000000000000000000000000000000000000000000602082015250565b7f596f75206861766520747269656420746f2063616c6c2061206d696e7420667560008201527f6e6374696f6e206f6e20616e206578697374696e6720746f6b656e207768696c60208201527f652070726f766964696e672061206e6577206d65746164617461205552492e2060408201527f506c656173652063616c6c2074686520636f727265706f6e64696e672066756e60608201527f6374696f6e20776974686f757420555249206173206120706172616d6574657260808201527f2e0000000000000000000000000000000000000000000000000000000000000060a082015250565b7f546f6b656e206973206e6f6e2d6d696e7461626c650000000000000000000000600082015250565b600060443d10156158895761590c565b615891614b82565b60043d036004823e80513d602482011167ffffffffffffffff821117156158b957505061590c565b808201805167ffffffffffffffff8111156158d7575050505061590c565b80602083010160043d0385018111156158f457505050505061590c565b61590382602001850186614eaa565b82955050505050505b90565b61591881614dc2565b811461592357600080fd5b50565b61592f81614dd4565b811461593a57600080fd5b50565b61594681614de0565b811461595157600080fd5b50565b61595d81614e2c565b811461596857600080fd5b5056fea2646970667358221220ed9a646b950cbb81c2fe8216dccafb38fc5fe41d1b8a28bfcf45a989b27c9bfb64736f6c63430008010033555249206e6f74206170706c696361626c653a205573696e6720455243313135354d756c7469555249",
			"opcodes": "PUSH1 0x80 PUSH1 0x40 MSTORE ADDRESS PUSH1 0xB PUSH1 0x0 PUSH2 0x100 EXP DUP2 SLOAD DUP2 PUSH20 0xFFFFFFFFFFFFFFFFFFFFFFFFFFFFFFFFFFFFFFFF MUL NOT AND SWAP1 DUP4 PUSH20 0xFFFFFFFFFFFFFFFFFFFFFFFFFFFFFFFFFFFFFFFF AND MUL OR SWAP1 SSTORE POP PUSH1 0x1 PUSH1 0xD SSTORE CALLVALUE DUP1 ISZERO PUSH3 0x57 JUMPI PUSH1 0x0 DUP1 REVERT JUMPDEST POP PUSH1 0x40 MLOAD DUP1 PUSH1 0x60 ADD PUSH1 0x40 MSTORE DUP1 PUSH1 0x29 DUP2 MSTORE PUSH1 0x20 ADD PUSH3 0x5CF6 PUSH1 0x29 SWAP2 CODECOPY PUSH3 0x83 DUP2 PUSH3 0x146 PUSH1 0x20 SHL PUSH1 0x20 SHR JUMP JUMPDEST POP PUSH3 0xA4 PUSH3 0x98 PUSH3 0x162 PUSH1 0x20 SHL PUSH1 0x20 SHR JUMP JUMPDEST PUSH3 0x16A PUSH1 0x20 SHL PUSH1 0x20 SHR JUMP JUMPDEST PUSH1 0x40 MLOAD DUP1 PUSH1 0x40 ADD PUSH1 0x40 MSTORE DUP1 PUSH1 0x1E DUP2 MSTORE PUSH1 0x20 ADD PUSH32 0x4D6574616E6F696120466F756E64696E6720436974697A656E73204E46540000 DUP2 MSTORE POP PUSH1 0xE SWAP1 DUP1 MLOAD SWAP1 PUSH1 0x20 ADD SWAP1 PUSH3 0xF1 SWAP3 SWAP2 SWAP1 PUSH3 0x230 JUMP JUMPDEST POP PUSH1 0x40 MLOAD DUP1 PUSH1 0x40 ADD PUSH1 0x40 MSTORE DUP1 PUSH1 0x7 DUP2 MSTORE PUSH1 0x20 ADD PUSH32 0x4D4653204E465400000000000000000000000000000000000000000000000000 DUP2 MSTORE POP PUSH1 0xF SWAP1 DUP1 MLOAD SWAP1 PUSH1 0x20 ADD SWAP1 PUSH3 0x13F SWAP3 SWAP2 SWAP1 PUSH3 0x230 JUMP JUMPDEST POP PUSH3 0x345 JUMP JUMPDEST DUP1 PUSH1 0x2 SWAP1 DUP1 MLOAD SWAP1 PUSH1 0x20 ADD SWAP1 PUSH3 0x15E SWAP3 SWAP2 SWAP1 PUSH3 0x230 JUMP JUMPDEST POP POP JUMP JUMPDEST PUSH1 0x0 CALLER SWAP1 POP SWAP1 JUMP JUMPDEST PUSH1 0x0 PUSH1 0x6 PUSH1 0x0 SWAP1 SLOAD SWAP1 PUSH2 0x100 EXP SWAP1 DIV PUSH20 0xFFFFFFFFFFFFFFFFFFFFFFFFFFFFFFFFFFFFFFFF AND SWAP1 POP DUP2 PUSH1 0x6 PUSH1 0x0 PUSH2 0x100 EXP DUP2 SLOAD DUP2 PUSH20 0xFFFFFFFFFFFFFFFFFFFFFFFFFFFFFFFFFFFFFFFF MUL NOT AND SWAP1 DUP4 PUSH20 0xFFFFFFFFFFFFFFFFFFFFFFFFFFFFFFFFFFFFFFFF AND MUL OR SWAP1 SSTORE POP DUP2 PUSH20 0xFFFFFFFFFFFFFFFFFFFFFFFFFFFFFFFFFFFFFFFF AND DUP2 PUSH20 0xFFFFFFFFFFFFFFFFFFFFFFFFFFFFFFFFFFFFFFFF AND PUSH32 0x8BE0079C531659141344CD1FD0A4F28419497F9722A3DAAFE3B4186F6B6457E0 PUSH1 0x40 MLOAD PUSH1 0x40 MLOAD DUP1 SWAP2 SUB SWAP1 LOG3 POP POP JUMP JUMPDEST DUP3 DUP1 SLOAD PUSH3 0x23E SWAP1 PUSH3 0x2E0 JUMP JUMPDEST SWAP1 PUSH1 0x0 MSTORE PUSH1 0x20 PUSH1 0x0 KECCAK256 SWAP1 PUSH1 0x1F ADD PUSH1 0x20 SWAP1 DIV DUP2 ADD SWAP3 DUP3 PUSH3 0x262 JUMPI PUSH1 0x0 DUP6 SSTORE PUSH3 0x2AE JUMP JUMPDEST DUP3 PUSH1 0x1F LT PUSH3 0x27D JUMPI DUP1 MLOAD PUSH1 0xFF NOT AND DUP4 DUP1 ADD OR DUP6 SSTORE PUSH3 0x2AE JUMP JUMPDEST DUP3 DUP1 ADD PUSH1 0x1 ADD DUP6 SSTORE DUP3 ISZERO PUSH3 0x2AE JUMPI SWAP2 DUP3 ADD JUMPDEST DUP3 DUP2 GT ISZERO PUSH3 0x2AD JUMPI DUP3 MLOAD DUP3 SSTORE SWAP2 PUSH1 0x20 ADD SWAP2 SWAP1 PUSH1 0x1 ADD SWAP1 PUSH3 0x290 JUMP JUMPDEST JUMPDEST POP SWAP1 POP PUSH3 0x2BD SWAP2 SWAP1 PUSH3 0x2C1 JUMP JUMPDEST POP SWAP1 JUMP JUMPDEST JUMPDEST DUP1 DUP3 GT ISZERO PUSH3 0x2DC JUMPI PUSH1 0x0 DUP2 PUSH1 0x0 SWAP1 SSTORE POP PUSH1 0x1 ADD PUSH3 0x2C2 JUMP JUMPDEST POP SWAP1 JUMP JUMPDEST PUSH1 0x0 PUSH1 0x2 DUP3 DIV SWAP1 POP PUSH1 0x1 DUP3 AND DUP1 PUSH3 0x2F9 JUMPI PUSH1 0x7F DUP3 AND SWAP2 POP JUMPDEST PUSH1 0x20 DUP3 LT DUP2 EQ ISZERO PUSH3 0x310 JUMPI PUSH3 0x30F PUSH3 0x316 JUMP JUMPDEST JUMPDEST POP SWAP2 SWAP1 POP JUMP JUMPDEST PUSH32 0x4E487B7100000000000000000000000000000000000000000000000000000000 PUSH1 0x0 MSTORE PUSH1 0x22 PUSH1 0x4 MSTORE PUSH1 0x24 PUSH1 0x0 REVERT JUMPDEST PUSH2 0x59A1 DUP1 PUSH3 0x355 PUSH1 0x0 CODECOPY PUSH1 0x0 RETURN INVALID PUSH1 0x80 PUSH1 0x40 MSTORE CALLVALUE DUP1 ISZERO PUSH2 0x10 JUMPI PUSH1 0x0 DUP1 REVERT JUMPDEST POP PUSH1 0x4 CALLDATASIZE LT PUSH2 0x231 JUMPI PUSH1 0x0 CALLDATALOAD PUSH1 0xE0 SHR DUP1 PUSH4 0x55676590 GT PUSH2 0x130 JUMPI DUP1 PUSH4 0xBD85B039 GT PUSH2 0xB8 JUMPI DUP1 PUSH4 0xE85EAAFF GT PUSH2 0x7C JUMPI DUP1 PUSH4 0xE85EAAFF EQ PUSH2 0x6B4 JUMPI DUP1 PUSH4 0xE985E9C5 EQ PUSH2 0x6D0 JUMPI DUP1 PUSH4 0xF121DA92 EQ PUSH2 0x700 JUMPI DUP1 PUSH4 0xF242432A EQ PUSH2 0x71C JUMPI DUP1 PUSH4 0xF2FDE38B EQ PUSH2 0x738 JUMPI PUSH2 0x231 JUMP JUMPDEST DUP1 PUSH4 0xBD85B039 EQ PUSH2 0x5FC JUMPI DUP1 PUSH4 0xC53DFDAC EQ PUSH2 0x62C JUMPI DUP1 PUSH4 0xCEBDBEA7 EQ PUSH2 0x65C JUMPI DUP1 PUSH4 0xD5ABEB01 EQ PUSH2 0x68C JUMPI DUP1 PUSH4 0xDD1E1656 EQ PUSH2 0x6AA JUMPI PUSH2 0x231 JUMP JUMPDEST DUP1 PUSH4 0x6D3CC82D GT PUSH2 0xFF JUMPI DUP1 PUSH4 0x6D3CC82D EQ PUSH2 0x57E JUMPI DUP1 PUSH4 0x715018A6 EQ PUSH2 0x59A JUMPI DUP1 PUSH4 0x8DA5CB5B EQ PUSH2 0x5A4 JUMPI DUP1 PUSH4 0x95D89B41 EQ PUSH2 0x5C2 JUMPI DUP1 PUSH4 0xA22CB465 EQ PUSH2 0x5E0 JUMPI PUSH2 0x231 JUMP JUMPDEST DUP1 PUSH4 0x55676590 EQ PUSH2 0x4F6 JUMPI DUP1 PUSH4 0x68F9DBE1 EQ PUSH2 0x512 JUMPI DUP1 PUSH4 0x68FC01A2 EQ PUSH2 0x542 JUMPI DUP1 PUSH4 0x6959C35C EQ PUSH2 0x560 JUMPI PUSH2 0x231 JUMP JUMPDEST DUP1 PUSH4 0x33E06E7C GT PUSH2 0x1BE JUMPI DUP1 PUSH4 0x4C0F38C2 GT PUSH2 0x182 JUMPI DUP1 PUSH4 0x4C0F38C2 EQ PUSH2 0x42C JUMPI DUP1 PUSH4 0x4E1273F4 EQ PUSH2 0x44A JUMPI DUP1 PUSH4 0x4F558E79 EQ PUSH2 0x47A JUMPI DUP1 PUSH4 0x51486F73 EQ PUSH2 0x4AA JUMPI DUP1 PUSH4 0x535435FE EQ PUSH2 0x4C6 JUMPI PUSH2 0x231 JUMP JUMPDEST DUP1 PUSH4 0x33E06E7C EQ PUSH2 0x386 JUMPI DUP1 PUSH4 0x378DC3DC EQ PUSH2 0x3A2 JUMPI DUP1 PUSH4 0x3A2AA22B EQ PUSH2 0x3C0 JUMPI DUP1 PUSH4 0x3A7F8BDB EQ PUSH2 0x3DE JUMPI DUP1 PUSH4 0x3D88CF3D EQ PUSH2 0x3FC JUMPI PUSH2 0x231 JUMP JUMPDEST DUP1 PUSH4 0x15FDA194 GT PUSH2 0x205 JUMPI DUP1 PUSH4 0x15FDA194 EQ PUSH2 0x2E4 JUMPI DUP1 PUSH4 0x18160DDD EQ PUSH2 0x300 JUMPI DUP1 PUSH4 0x29CB0531 EQ PUSH2 0x31E JUMPI DUP1 PUSH4 0x2E8E9836 EQ PUSH2 0x33A JUMPI DUP1 PUSH4 0x2EB2C2D6 EQ PUSH2 0x36A JUMPI PUSH2 0x231 JUMP JUMPDEST DUP1 PUSH3 0xFDD58E EQ PUSH2 0x236 JUMPI DUP1 PUSH4 0x1FFC9A7 EQ PUSH2 0x266 JUMPI DUP1 PUSH4 0x6FDDE03 EQ PUSH2 0x296 JUMPI DUP1 PUSH4 0xE89341C EQ PUSH2 0x2B4 JUMPI JUMPDEST PUSH1 0x0 DUP1 REVERT JUMPDEST PUSH2 0x250 PUSH1 0x4 DUP1 CALLDATASIZE SUB DUP2 ADD SWAP1 PUSH2 0x24B SWAP2 SWAP1 PUSH2 0x3D06 JUMP JUMPDEST PUSH2 0x754 JUMP JUMPDEST PUSH1 0x40 MLOAD PUSH2 0x25D SWAP2 SWAP1 PUSH2 0x4B23 JUMP JUMPDEST PUSH1 0x40 MLOAD DUP1 SWAP2 SUB SWAP1 RETURN JUMPDEST PUSH2 0x280 PUSH1 0x4 DUP1 CALLDATASIZE SUB DUP2 ADD SWAP1 PUSH2 0x27B SWAP2 SWAP1 PUSH2 0x3E1A JUMP JUMPDEST PUSH2 0x81D JUMP JUMPDEST PUSH1 0x40 MLOAD PUSH2 0x28D SWAP2 SWAP1 PUSH2 0x4797 JUMP JUMPDEST PUSH1 0x40 MLOAD DUP1 SWAP2 SUB SWAP1 RETURN JUMPDEST PUSH2 0x29E PUSH2 0x8FF JUMP JUMPDEST PUSH1 0x40 MLOAD PUSH2 0x2AB SWAP2 SWAP1 PUSH2 0x47B2 JUMP JUMPDEST PUSH1 0x40 MLOAD DUP1 SWAP2 SUB SWAP1 RETURN JUMPDEST PUSH2 0x2CE PUSH1 0x4 DUP1 CALLDATASIZE SUB DUP2 ADD SWAP1 PUSH2 0x2C9 SWAP2 SWAP1 PUSH2 0x3F14 JUMP JUMPDEST PUSH2 0x98D JUMP JUMPDEST PUSH1 0x40 MLOAD PUSH2 0x2DB SWAP2 SWAP1 PUSH2 0x47B2 JUMP JUMPDEST PUSH1 0x40 MLOAD DUP1 SWAP2 SUB SWAP1 RETURN JUMPDEST PUSH2 0x2FE PUSH1 0x4 DUP1 CALLDATASIZE SUB DUP2 ADD SWAP1 PUSH2 0x2F9 SWAP2 SWAP1 PUSH2 0x3F79 JUMP JUMPDEST PUSH2 0xA32 JUMP JUMPDEST STOP JUMPDEST PUSH2 0x308 PUSH2 0xABE JUMP JUMPDEST PUSH1 0x40 MLOAD PUSH2 0x315 SWAP2 SWAP1 PUSH2 0x4B23 JUMP JUMPDEST PUSH1 0x40 MLOAD DUP1 SWAP2 SUB SWAP1 RETURN JUMPDEST PUSH2 0x338 PUSH1 0x4 DUP1 CALLDATASIZE SUB DUP2 ADD SWAP1 PUSH2 0x333 SWAP2 SWAP1 PUSH2 0x3E6C JUMP JUMPDEST PUSH2 0xAC4 JUMP JUMPDEST STOP JUMPDEST PUSH2 0x354 PUSH1 0x4 DUP1 CALLDATASIZE SUB DUP2 ADD SWAP1 PUSH2 0x34F SWAP2 SWAP1 PUSH2 0x3F14 JUMP JUMPDEST PUSH2 0xB4E JUMP JUMPDEST PUSH1 0x40 MLOAD PUSH2 0x361 SWAP2 SWAP1 PUSH2 0x4797 JUMP JUMPDEST PUSH1 0x40 MLOAD DUP1 SWAP2 SUB SWAP1 RETURN JUMPDEST PUSH2 0x384 PUSH1 0x4 DUP1 CALLDATASIZE SUB DUP2 ADD SWAP1 PUSH2 0x37F SWAP2 SWAP1 PUSH2 0x3B7C JUMP JUMPDEST PUSH2 0xB6E JUMP JUMPDEST STOP JUMPDEST PUSH2 0x3A0 PUSH1 0x4 DUP1 CALLDATASIZE SUB DUP2 ADD SWAP1 PUSH2 0x39B SWAP2 SWAP1 PUSH2 0x3E6C JUMP JUMPDEST PUSH2 0xC0F JUMP JUMPDEST STOP JUMPDEST PUSH2 0x3AA PUSH2 0xC9B JUMP JUMPDEST PUSH1 0x40 MLOAD PUSH2 0x3B7 SWAP2 SWAP1 PUSH2 0x4B23 JUMP JUMPDEST PUSH1 0x40 MLOAD DUP1 SWAP2 SUB SWAP1 RETURN JUMPDEST PUSH2 0x3C8 PUSH2 0xCA0 JUMP JUMPDEST PUSH1 0x40 MLOAD PUSH2 0x3D5 SWAP2 SWAP1 PUSH2 0x471C JUMP JUMPDEST PUSH1 0x40 MLOAD DUP1 SWAP2 SUB SWAP1 RETURN JUMPDEST PUSH2 0x3E6 PUSH2 0xCB2 JUMP JUMPDEST PUSH1 0x40 MLOAD PUSH2 0x3F3 SWAP2 SWAP1 PUSH2 0x4B23 JUMP JUMPDEST PUSH1 0x40 MLOAD DUP1 SWAP2 SUB SWAP1 RETURN JUMPDEST PUSH2 0x416 PUSH1 0x4 DUP1 CALLDATASIZE SUB DUP2 ADD SWAP1 PUSH2 0x411 SWAP2 SWAP1 PUSH2 0x3E6C JUMP JUMPDEST PUSH2 0xCB8 JUMP JUMPDEST PUSH1 0x40 MLOAD PUSH2 0x423 SWAP2 SWAP1 PUSH2 0x4797 JUMP JUMPDEST PUSH1 0x40 MLOAD DUP1 SWAP2 SUB SWAP1 RETURN JUMPDEST PUSH2 0x434 PUSH2 0xCCA JUMP JUMPDEST PUSH1 0x40 MLOAD PUSH2 0x441 SWAP2 SWAP1 PUSH2 0x4B23 JUMP JUMPDEST PUSH1 0x40 MLOAD DUP1 SWAP2 SUB SWAP1 RETURN JUMPDEST PUSH2 0x464 PUSH1 0x4 DUP1 CALLDATASIZE SUB DUP2 ADD SWAP1 PUSH2 0x45F SWAP2 SWAP1 PUSH2 0x3D42 JUMP JUMPDEST PUSH2 0xCD3 JUMP JUMPDEST PUSH1 0x40 MLOAD PUSH2 0x471 SWAP2 SWAP1 PUSH2 0x473E JUMP JUMPDEST PUSH1 0x40 MLOAD DUP1 SWAP2 SUB SWAP1 RETURN JUMPDEST PUSH2 0x494 PUSH1 0x4 DUP1 CALLDATASIZE SUB DUP2 ADD SWAP1 PUSH2 0x48F SWAP2 SWAP1 PUSH2 0x3F14 JUMP JUMPDEST PUSH2 0xE84 JUMP JUMPDEST PUSH1 0x40 MLOAD PUSH2 0x4A1 SWAP2 SWAP1 PUSH2 0x4797 JUMP JUMPDEST PUSH1 0x40 MLOAD DUP1 SWAP2 SUB SWAP1 RETURN JUMPDEST PUSH2 0x4C4 PUSH1 0x4 DUP1 CALLDATASIZE SUB DUP2 ADD SWAP1 PUSH2 0x4BF SWAP2 SWAP1 PUSH2 0x3EAD JUMP JUMPDEST PUSH2 0xE98 JUMP JUMPDEST STOP JUMPDEST PUSH2 0x4E0 PUSH1 0x4 DUP1 CALLDATASIZE SUB DUP2 ADD SWAP1 PUSH2 0x4DB SWAP2 SWAP1 PUSH2 0x3F14 JUMP JUMPDEST PUSH2 0xF14 JUMP JUMPDEST PUSH1 0x40 MLOAD PUSH2 0x4ED SWAP2 SWAP1 PUSH2 0x4797 JUMP JUMPDEST PUSH1 0x40 MLOAD DUP1 SWAP2 SUB SWAP1 RETURN JUMPDEST PUSH2 0x510 PUSH1 0x4 DUP1 CALLDATASIZE SUB DUP2 ADD SWAP1 PUSH2 0x50B SWAP2 SWAP1 PUSH2 0x3B17 JUMP JUMPDEST PUSH2 0xF52 JUMP JUMPDEST STOP JUMPDEST PUSH2 0x52C PUSH1 0x4 DUP1 CALLDATASIZE SUB DUP2 ADD SWAP1 PUSH2 0x527 SWAP2 SWAP1 PUSH2 0x3E6C JUMP JUMPDEST PUSH2 0x1102 JUMP JUMPDEST PUSH1 0x40 MLOAD PUSH2 0x539 SWAP2 SWAP1 PUSH2 0x473E JUMP JUMPDEST PUSH1 0x40 MLOAD DUP1 SWAP2 SUB SWAP1 RETURN JUMPDEST PUSH2 0x54A PUSH2 0x1116 JUMP JUMPDEST PUSH1 0x40 MLOAD PUSH2 0x557 SWAP2 SWAP1 PUSH2 0x4B23 JUMP JUMPDEST PUSH1 0x40 MLOAD DUP1 SWAP2 SUB SWAP1 RETURN JUMPDEST PUSH2 0x568 PUSH2 0x1120 JUMP JUMPDEST PUSH1 0x40 MLOAD PUSH2 0x575 SWAP2 SWAP1 PUSH2 0x463F JUMP JUMPDEST PUSH1 0x40 MLOAD DUP1 SWAP2 SUB SWAP1 RETURN JUMPDEST PUSH2 0x598 PUSH1 0x4 DUP1 CALLDATASIZE SUB DUP2 ADD SWAP1 PUSH2 0x593 SWAP2 SWAP1 PUSH2 0x3F14 JUMP JUMPDEST PUSH2 0x1146 JUMP JUMPDEST STOP JUMPDEST PUSH2 0x5A2 PUSH2 0x11CE JUMP JUMPDEST STOP JUMPDEST PUSH2 0x5AC PUSH2 0x1256 JUMP JUMPDEST PUSH1 0x40 MLOAD PUSH2 0x5B9 SWAP2 SWAP1 PUSH2 0x463F JUMP JUMPDEST PUSH1 0x40 MLOAD DUP1 SWAP2 SUB SWAP1 RETURN JUMPDEST PUSH2 0x5CA PUSH2 0x1280 JUMP JUMPDEST PUSH1 0x40 MLOAD PUSH2 0x5D7 SWAP2 SWAP1 PUSH2 0x47B2 JUMP JUMPDEST PUSH1 0x40 MLOAD DUP1 SWAP2 SUB SWAP1 RETURN JUMPDEST PUSH2 0x5FA PUSH1 0x4 DUP1 CALLDATASIZE SUB DUP2 ADD SWAP1 PUSH2 0x5F5 SWAP2 SWAP1 PUSH2 0x3CCA JUMP JUMPDEST PUSH2 0x130E JUMP JUMPDEST STOP JUMPDEST PUSH2 0x616 PUSH1 0x4 DUP1 CALLDATASIZE SUB DUP2 ADD SWAP1 PUSH2 0x611 SWAP2 SWAP1 PUSH2 0x3F14 JUMP JUMPDEST PUSH2 0x1324 JUMP JUMPDEST PUSH1 0x40 MLOAD PUSH2 0x623 SWAP2 SWAP1 PUSH2 0x4B23 JUMP JUMPDEST PUSH1 0x40 MLOAD DUP1 SWAP2 SUB SWAP1 RETURN JUMPDEST PUSH2 0x646 PUSH1 0x4 DUP1 CALLDATASIZE SUB DUP2 ADD SWAP1 PUSH2 0x641 SWAP2 SWAP1 PUSH2 0x3F79 JUMP JUMPDEST PUSH2 0x1341 JUMP JUMPDEST PUSH1 0x40 MLOAD PUSH2 0x653 SWAP2 SWAP1 PUSH2 0x4797 JUMP JUMPDEST PUSH1 0x40 MLOAD DUP1 SWAP2 SUB SWAP1 RETURN JUMPDEST PUSH2 0x676 PUSH1 0x4 DUP1 CALLDATASIZE SUB DUP2 ADD SWAP1 PUSH2 0x671 SWAP2 SWAP1 PUSH2 0x3F3D JUMP JUMPDEST PUSH2 0x1384 JUMP JUMPDEST PUSH1 0x40 MLOAD PUSH2 0x683 SWAP2 SWAP1 PUSH2 0x471C JUMP JUMPDEST PUSH1 0x40 MLOAD DUP1 SWAP2 SUB SWAP1 RETURN JUMPDEST PUSH2 0x694 PUSH2 0x13B1 JUMP JUMPDEST PUSH1 0x40 MLOAD PUSH2 0x6A1 SWAP2 SWAP1 PUSH2 0x4B23 JUMP JUMPDEST PUSH1 0x40 MLOAD DUP1 SWAP2 SUB SWAP1 RETURN JUMPDEST PUSH2 0x6B2 PUSH2 0x13B6 JUMP JUMPDEST STOP JUMPDEST PUSH2 0x6CE PUSH1 0x4 DUP1 CALLDATASIZE SUB DUP2 ADD SWAP1 PUSH2 0x6C9 SWAP2 SWAP1 PUSH2 0x3F79 JUMP JUMPDEST PUSH2 0x144F JUMP JUMPDEST STOP JUMPDEST PUSH2 0x6EA PUSH1 0x4 DUP1 CALLDATASIZE SUB DUP2 ADD SWAP1 PUSH2 0x6E5 SWAP2 SWAP1 PUSH2 0x3B40 JUMP JUMPDEST PUSH2 0x14DB JUMP JUMPDEST PUSH1 0x40 MLOAD PUSH2 0x6F7 SWAP2 SWAP1 PUSH2 0x4797 JUMP JUMPDEST PUSH1 0x40 MLOAD DUP1 SWAP2 SUB SWAP1 RETURN JUMPDEST PUSH2 0x71A PUSH1 0x4 DUP1 CALLDATASIZE SUB DUP2 ADD SWAP1 PUSH2 0x715 SWAP2 SWAP1 PUSH2 0x3DAE JUMP JUMPDEST PUSH2 0x156F JUMP JUMPDEST STOP JUMPDEST PUSH2 0x736 PUSH1 0x4 DUP1 CALLDATASIZE SUB DUP2 ADD SWAP1 PUSH2 0x731 SWAP2 SWAP1 PUSH2 0x3C3B JUMP JUMPDEST PUSH2 0x16EC JUMP JUMPDEST STOP JUMPDEST PUSH2 0x752 PUSH1 0x4 DUP1 CALLDATASIZE SUB DUP2 ADD SWAP1 PUSH2 0x74D SWAP2 SWAP1 PUSH2 0x3B17 JUMP JUMPDEST PUSH2 0x178D JUMP JUMPDEST STOP JUMPDEST PUSH1 0x0 DUP1 PUSH20 0xFFFFFFFFFFFFFFFFFFFFFFFFFFFFFFFFFFFFFFFF AND DUP4 PUSH20 0xFFFFFFFFFFFFFFFFFFFFFFFFFFFFFFFFFFFFFFFF AND EQ ISZERO PUSH2 0x7C5 JUMPI PUSH1 0x40 MLOAD PUSH32 0x8C379A000000000000000000000000000000000000000000000000000000000 DUP2 MSTORE PUSH1 0x4 ADD PUSH2 0x7BC SWAP1 PUSH2 0x4883 JUMP JUMPDEST PUSH1 0x40 MLOAD DUP1 SWAP2 SUB SWAP1 REVERT JUMPDEST PUSH1 0x0 DUP1 DUP4 DUP2 MSTORE PUSH1 0x20 ADD SWAP1 DUP2 MSTORE PUSH1 0x20 ADD PUSH1 0x0 KECCAK256 PUSH1 0x0 DUP5 PUSH20 0xFFFFFFFFFFFFFFFFFFFFFFFFFFFFFFFFFFFFFFFF AND PUSH20 0xFFFFFFFFFFFFFFFFFFFFFFFFFFFFFFFFFFFFFFFF AND DUP2 MSTORE PUSH1 0x20 ADD SWAP1 DUP2 MSTORE PUSH1 0x20 ADD PUSH1 0x0 KECCAK256 SLOAD SWAP1 POP SWAP3 SWAP2 POP POP JUMP JUMPDEST PUSH1 0x0 PUSH32 0xD9B67A2600000000000000000000000000000000000000000000000000000000 PUSH28 0xFFFFFFFFFFFFFFFFFFFFFFFFFFFFFFFFFFFFFFFFFFFFFFFFFFFFFFFF NOT AND DUP3 PUSH28 0xFFFFFFFFFFFFFFFFFFFFFFFFFFFFFFFFFFFFFFFFFFFFFFFFFFFFFFFF NOT AND EQ DUP1 PUSH2 0x8E8 JUMPI POP PUSH32 0xE89341C00000000000000000000000000000000000000000000000000000000 PUSH28 0xFFFFFFFFFFFFFFFFFFFFFFFFFFFFFFFFFFFFFFFFFFFFFFFFFFFFFFFF NOT AND DUP3 PUSH28 0xFFFFFFFFFFFFFFFFFFFFFFFFFFFFFFFFFFFFFFFFFFFFFFFFFFFFFFFF NOT AND EQ JUMPDEST DUP1 PUSH2 0x8F8 JUMPI POP PUSH2 0x8F7 DUP3 PUSH2 0x1885 JUMP JUMPDEST JUMPDEST SWAP1 POP SWAP2 SWAP1 POP JUMP JUMPDEST PUSH1 0xE DUP1 SLOAD PUSH2 0x90C SWAP1 PUSH2 0x4E78 JUMP JUMPDEST DUP1 PUSH1 0x1F ADD PUSH1 0x20 DUP1 SWAP2 DIV MUL PUSH1 0x20 ADD PUSH1 0x40 MLOAD SWAP1 DUP2 ADD PUSH1 0x40 MSTORE DUP1 SWAP3 SWAP2 SWAP1 DUP2 DUP2 MSTORE PUSH1 0x20 ADD DUP3 DUP1 SLOAD PUSH2 0x938 SWAP1 PUSH2 0x4E78 JUMP JUMPDEST DUP1 ISZERO PUSH2 0x985 JUMPI DUP1 PUSH1 0x1F LT PUSH2 0x95A JUMPI PUSH2 0x100 DUP1 DUP4 SLOAD DIV MUL DUP4 MSTORE SWAP2 PUSH1 0x20 ADD SWAP2 PUSH2 0x985 JUMP JUMPDEST DUP3 ADD SWAP2 SWAP1 PUSH1 0x0 MSTORE PUSH1 0x20 PUSH1 0x0 KECCAK256 SWAP1 JUMPDEST DUP2 SLOAD DUP2 MSTORE SWAP1 PUSH1 0x1 ADD SWAP1 PUSH1 0x20 ADD DUP1 DUP4 GT PUSH2 0x968 JUMPI DUP3 SWAP1 SUB PUSH1 0x1F AND DUP3 ADD SWAP2 JUMPDEST POP POP POP POP POP DUP2 JUMP JUMPDEST PUSH1 0x60 PUSH1 0x4 PUSH1 0x0 DUP4 DUP2 MSTORE PUSH1 0x20 ADD SWAP1 DUP2 MSTORE PUSH1 0x20 ADD PUSH1 0x0 KECCAK256 DUP1 SLOAD PUSH2 0x9AD SWAP1 PUSH2 0x4E78 JUMP JUMPDEST DUP1 PUSH1 0x1F ADD PUSH1 0x20 DUP1 SWAP2 DIV MUL PUSH1 0x20 ADD PUSH1 0x40 MLOAD SWAP1 DUP2 ADD PUSH1 0x40 MSTORE DUP1 SWAP3 SWAP2 SWAP1 DUP2 DUP2 MSTORE PUSH1 0x20 ADD DUP3 DUP1 SLOAD PUSH2 0x9D9 SWAP1 PUSH2 0x4E78 JUMP JUMPDEST DUP1 ISZERO PUSH2 0xA26 JUMPI DUP1 PUSH1 0x1F LT PUSH2 0x9FB JUMPI PUSH2 0x100 DUP1 DUP4 SLOAD DIV MUL DUP4 MSTORE SWAP2 PUSH1 0x20 ADD SWAP2 PUSH2 0xA26 JUMP JUMPDEST DUP3 ADD SWAP2 SWAP1 PUSH1 0x0 MSTORE PUSH1 0x20 PUSH1 0x0 KECCAK256 SWAP1 JUMPDEST DUP2 SLOAD DUP2 MSTORE SWAP1 PUSH1 0x1 ADD SWAP1 PUSH1 0x20 ADD DUP1 DUP4 GT PUSH2 0xA09 JUMPI DUP3 SWAP1 SUB PUSH1 0x1F AND DUP3 ADD SWAP2 JUMPDEST POP POP POP POP POP SWAP1 POP SWAP2 SWAP1 POP JUMP JUMPDEST PUSH2 0xA3A PUSH2 0x18EF JUMP JUMPDEST PUSH20 0xFFFFFFFFFFFFFFFFFFFFFFFFFFFFFFFFFFFFFFFF AND PUSH2 0xA58 PUSH2 0x1256 JUMP JUMPDEST PUSH20 0xFFFFFFFFFFFFFFFFFFFFFFFFFFFFFFFFFFFFFFFF AND EQ PUSH2 0xAAE JUMPI PUSH1 0x40 MLOAD PUSH32 0x8C379A000000000000000000000000000000000000000000000000000000000 DUP2 MSTORE PUSH1 0x4 ADD PUSH2 0xAA5 SWAP1 PUSH2 0x49C3 JUMP JUMPDEST PUSH1 0x40 MLOAD DUP1 SWAP2 SUB SWAP1 REVERT JUMPDEST PUSH2 0xABA DUP3 DUP3 PUSH1 0x0 PUSH2 0x18F7 JUMP JUMPDEST POP POP JUMP JUMPDEST PUSH1 0xC SLOAD DUP2 JUMP JUMPDEST PUSH2 0xACC PUSH2 0x18EF JUMP JUMPDEST PUSH20 0xFFFFFFFFFFFFFFFFFFFFFFFFFFFFFFFFFFFFFFFF AND PUSH2 0xAEA PUSH2 0x1256 JUMP JUMPDEST PUSH20 0xFFFFFFFFFFFFFFFFFFFFFFFFFFFFFFFFFFFFFFFF AND EQ PUSH2 0xB40 JUMPI PUSH1 0x40 MLOAD PUSH32 0x8C379A000000000000000000000000000000000000000000000000000000000 DUP2 MSTORE PUSH1 0x4 ADD PUSH2 0xB37 SWAP1 PUSH2 0x49C3 JUMP JUMPDEST PUSH1 0x40 MLOAD DUP1 SWAP2 SUB SWAP1 REVERT JUMPDEST PUSH2 0xB4B DUP2 PUSH1 0x1 PUSH2 0x1926 JUMP JUMPDEST POP JUMP JUMPDEST PUSH1 0x5 PUSH1 0x20 MSTORE DUP1 PUSH1 0x0 MSTORE PUSH1 0x40 PUSH1 0x0 KECCAK256 PUSH1 0x0 SWAP2 POP SLOAD SWAP1 PUSH2 0x100 EXP SWAP1 DIV PUSH1 0xFF AND DUP2 JUMP JUMPDEST PUSH2 0xB76 PUSH2 0x18EF JUMP JUMPDEST PUSH20 0xFFFFFFFFFFFFFFFFFFFFFFFFFFFFFFFFFFFFFFFF AND DUP6 PUSH20 0xFFFFFFFFFFFFFFFFFFFFFFFFFFFFFFFFFFFFFFFF AND EQ DUP1 PUSH2 0xBBC JUMPI POP PUSH2 0xBBB DUP6 PUSH2 0xBB6 PUSH2 0x18EF JUMP JUMPDEST PUSH2 0x14DB JUMP JUMPDEST JUMPDEST PUSH2 0xBFB JUMPI PUSH1 0x40 MLOAD PUSH32 0x8C379A000000000000000000000000000000000000000000000000000000000 DUP2 MSTORE PUSH1 0x4 ADD PUSH2 0xBF2 SWAP1 PUSH2 0x4923 JUMP JUMPDEST PUSH1 0x40 MLOAD DUP1 SWAP2 SUB SWAP1 REVERT JUMPDEST PUSH2 0xC08 DUP6 DUP6 DUP6 DUP6 DUP6 PUSH2 0x19FB JUMP JUMPDEST POP POP POP POP POP JUMP JUMPDEST PUSH2 0xC17 PUSH2 0x18EF JUMP JUMPDEST PUSH20 0xFFFFFFFFFFFFFFFFFFFFFFFFFFFFFFFFFFFFFFFF AND PUSH2 0xC35 PUSH2 0x1256 JUMP JUMPDEST PUSH20 0xFFFFFFFFFFFFFFFFFFFFFFFFFFFFFFFFFFFFFFFF AND EQ PUSH2 0xC8B JUMPI PUSH1 0x40 MLOAD PUSH32 0x8C379A000000000000000000000000000000000000000000000000000000000 DUP2 MSTORE PUSH1 0x4 ADD PUSH2 0xC82 SWAP1 PUSH2 0x49C3 JUMP JUMPDEST PUSH1 0x40 MLOAD DUP1 SWAP2 SUB SWAP1 REVERT JUMPDEST PUSH2 0xC98 PUSH1 0x0 DUP3 PUSH1 0x1 PUSH2 0x18F7 JUMP JUMPDEST POP JUMP JUMPDEST PUSH1 0xA DUP2 JUMP JUMPDEST PUSH1 0x60 PUSH2 0xCAD PUSH1 0x0 DUP1 PUSH2 0x1D5B JUMP JUMPDEST SWAP1 POP SWAP1 JUMP JUMPDEST PUSH1 0xD SLOAD DUP2 JUMP JUMPDEST PUSH1 0x0 PUSH2 0xCC3 DUP3 PUSH2 0x1E8B JUMP JUMPDEST SWAP1 POP SWAP2 SWAP1 POP JUMP JUMPDEST PUSH1 0x0 PUSH1 0xA SWAP1 POP SWAP1 JUMP JUMPDEST PUSH1 0x60 DUP2 MLOAD DUP4 MLOAD EQ PUSH2 0xD19 JUMPI PUSH1 0x40 MLOAD PUSH32 0x8C379A000000000000000000000000000000000000000000000000000000000 DUP2 MSTORE PUSH1 0x4 ADD PUSH2 0xD10 SWAP1 PUSH2 0x4A83 JUMP JUMPDEST PUSH1 0x40 MLOAD DUP1 SWAP2 SUB SWAP1 REVERT JUMPDEST PUSH1 0x0 DUP4 MLOAD PUSH8 0xFFFFFFFFFFFFFFFF DUP2 GT ISZERO PUSH2 0xD5C JUMPI PUSH32 0x4E487B7100000000000000000000000000000000000000000000000000000000 PUSH1 0x0 MSTORE PUSH1 0x41 PUSH1 0x4 MSTORE PUSH1 0x24 PUSH1 0x0 REVERT JUMPDEST PUSH1 0x40 MLOAD SWAP1 DUP1 DUP3 MSTORE DUP1 PUSH1 0x20 MUL PUSH1 0x20 ADD DUP3 ADD PUSH1 0x40 MSTORE DUP1 ISZERO PUSH2 0xD8A JUMPI DUP2 PUSH1 0x20 ADD PUSH1 0x20 DUP3 MUL DUP1 CALLDATASIZE DUP4 CALLDATACOPY DUP1 DUP3 ADD SWAP2 POP POP SWAP1 POP JUMPDEST POP SWAP1 POP PUSH1 0x0 JUMPDEST DUP5 MLOAD DUP2 LT ISZERO PUSH2 0xE79 JUMPI PUSH2 0xE23 DUP6 DUP3 DUP2 MLOAD DUP2 LT PUSH2 0xDD5 JUMPI PUSH32 0x4E487B7100000000000000000000000000000000000000000000000000000000 PUSH1 0x0 MSTORE PUSH1 0x32 PUSH1 0x4 MSTORE PUSH1 0x24 PUSH1 0x0 REVERT JUMPDEST PUSH1 0x20 MUL PUSH1 0x20 ADD ADD MLOAD DUP6 DUP4 DUP2 MLOAD DUP2 LT PUSH2 0xE16 JUMPI PUSH32 0x4E487B7100000000000000000000000000000000000000000000000000000000 PUSH1 0x0 MSTORE PUSH1 0x32 PUSH1 0x4 MSTORE PUSH1 0x24 PUSH1 0x0 REVERT JUMPDEST PUSH1 0x20 MUL PUSH1 0x20 ADD ADD MLOAD PUSH2 0x754 JUMP JUMPDEST DUP3 DUP3 DUP2 MLOAD DUP2 LT PUSH2 0xE5C JUMPI PUSH32 0x4E487B7100000000000000000000000000000000000000000000000000000000 PUSH1 0x0 MSTORE PUSH1 0x32 PUSH1 0x4 MSTORE PUSH1 0x24 PUSH1 0x0 REVERT JUMPDEST PUSH1 0x20 MUL PUSH1 0x20 ADD ADD DUP2 DUP2 MSTORE POP POP DUP1 PUSH2 0xE72 SWAP1 PUSH2 0x4EDB JUMP JUMPDEST SWAP1 POP PUSH2 0xD90 JUMP JUMPDEST POP DUP1 SWAP2 POP POP SWAP3 SWAP2 POP POP JUMP JUMPDEST PUSH1 0x0 DUP1 PUSH2 0xE90 DUP4 PUSH2 0x1324 JUMP JUMPDEST GT SWAP1 POP SWAP2 SWAP1 POP JUMP JUMPDEST PUSH2 0xEA2 DUP2 DUP5 PUSH2 0x1341 JUMP JUMPDEST DUP2 PUSH1 0x40 MLOAD PUSH1 0x20 ADD PUSH2 0xEB3 SWAP2 SWAP1 PUSH2 0x4814 JUMP JUMPDEST PUSH1 0x40 MLOAD PUSH1 0x20 DUP2 DUP4 SUB SUB DUP2 MSTORE SWAP1 PUSH1 0x40 MSTORE SWAP1 PUSH2 0xF03 JUMPI PUSH1 0x40 MLOAD PUSH32 0x8C379A000000000000000000000000000000000000000000000000000000000 DUP2 MSTORE PUSH1 0x4 ADD PUSH2 0xEFA SWAP2 SWAP1 PUSH2 0x47B2 JUMP JUMPDEST PUSH1 0x40 MLOAD DUP1 SWAP2 SUB SWAP1 REVERT JUMPDEST POP PUSH2 0xF0F DUP4 DUP4 DUP4 PUSH2 0x1E9F JUMP JUMPDEST POP POP POP JUMP JUMPDEST PUSH1 0x0 PUSH1 0x1 PUSH2 0xF21 DUP4 PUSH2 0x1324 JUMP JUMPDEST EQ DUP1 ISZERO PUSH2 0xF4B JUMPI POP PUSH1 0x5 PUSH1 0x0 DUP4 DUP2 MSTORE PUSH1 0x20 ADD SWAP1 DUP2 MSTORE PUSH1 0x20 ADD PUSH1 0x0 KECCAK256 PUSH1 0x0 SWAP1 SLOAD SWAP1 PUSH2 0x100 EXP SWAP1 DIV PUSH1 0xFF AND JUMPDEST SWAP1 POP SWAP2 SWAP1 POP JUMP JUMPDEST PUSH2 0xF5A PUSH2 0x18EF JUMP JUMPDEST PUSH20 0xFFFFFFFFFFFFFFFFFFFFFFFFFFFFFFFFFFFFFFFF AND PUSH2 0xF78 PUSH2 0x1256 JUMP JUMPDEST PUSH20 0xFFFFFFFFFFFFFFFFFFFFFFFFFFFFFFFFFFFFFFFF AND EQ PUSH2 0xFCE JUMPI PUSH1 0x40 MLOAD PUSH32 0x8C379A000000000000000000000000000000000000000000000000000000000 DUP2 MSTORE PUSH1 0x4 ADD PUSH2 0xFC5 SWAP1 PUSH2 0x49C3 JUMP JUMPDEST PUSH1 0x40 MLOAD DUP1 SWAP2 SUB SWAP1 REVERT JUMPDEST PUSH1 0xD SLOAD PUSH1 0x1 PUSH2 0xFDC DUP3 PUSH2 0xE84 JUMP JUMPDEST ISZERO PUSH2 0x101C JUMPI PUSH1 0x40 MLOAD PUSH32 0x8C379A000000000000000000000000000000000000000000000000000000000 DUP2 MSTORE PUSH1 0x4 ADD PUSH2 0x1013 SWAP1 PUSH2 0x4AE3 JUMP JUMPDEST PUSH1 0x40 MLOAD DUP1 SWAP2 SUB SWAP1 REVERT JUMPDEST PUSH1 0xD SLOAD DUP3 LT PUSH2 0x1039 JUMPI PUSH1 0x1 DUP3 PUSH2 0x1032 SWAP2 SWAP1 PUSH2 0x4D38 JUMP JUMPDEST PUSH1 0xD DUP2 SWAP1 SSTORE POP JUMPDEST DUP1 PUSH1 0xC PUSH1 0x0 DUP3 DUP3 SLOAD PUSH2 0x104B SWAP2 SWAP1 PUSH2 0x4D38 JUMP JUMPDEST SWAP3 POP POP DUP2 SWAP1 SSTORE POP PUSH1 0xA PUSH1 0xD SLOAD GT ISZERO PUSH1 0xA PUSH1 0x40 MLOAD PUSH1 0x20 ADD PUSH2 0x106B SWAP2 SWAP1 PUSH2 0x45E6 JUMP JUMPDEST PUSH1 0x40 MLOAD PUSH1 0x20 DUP2 DUP4 SUB SUB DUP2 MSTORE SWAP1 PUSH1 0x40 MSTORE SWAP1 PUSH2 0x10BB JUMPI PUSH1 0x40 MLOAD PUSH32 0x8C379A000000000000000000000000000000000000000000000000000000000 DUP2 MSTORE PUSH1 0x4 ADD PUSH2 0x10B2 SWAP2 SWAP1 PUSH2 0x47B2 JUMP JUMPDEST PUSH1 0x40 MLOAD DUP1 SWAP2 SUB SWAP1 REVERT JUMPDEST POP PUSH2 0x10E5 DUP4 PUSH1 0xD SLOAD PUSH1 0x1 PUSH1 0x40 MLOAD DUP1 PUSH1 0x20 ADD PUSH1 0x40 MSTORE DUP1 PUSH1 0x0 DUP2 MSTORE POP PUSH2 0x10E0 PUSH1 0xD SLOAD PUSH2 0x98D JUMP JUMPDEST PUSH2 0x1FF8 JUMP JUMPDEST PUSH1 0xD PUSH1 0x0 DUP2 SLOAD DUP1 SWAP3 SWAP2 SWAP1 PUSH2 0x10F8 SWAP1 PUSH2 0x4EDB JUMP JUMPDEST SWAP2 SWAP1 POP SSTORE POP POP POP POP JUMP JUMPDEST PUSH1 0x60 PUSH2 0x110F DUP3 PUSH1 0x1 PUSH2 0x212D JUMP JUMPDEST SWAP1 POP SWAP2 SWAP1 POP JUMP JUMPDEST PUSH1 0x0 PUSH1 0xD SLOAD SWAP1 POP SWAP1 JUMP JUMPDEST PUSH1 0xB PUSH1 0x0 SWAP1 SLOAD SWAP1 PUSH2 0x100 EXP SWAP1 DIV PUSH20 0xFFFFFFFFFFFFFFFFFFFFFFFFFFFFFFFFFFFFFFFF AND DUP2 JUMP JUMPDEST PUSH2 0x114E PUSH2 0x18EF JUMP JUMPDEST PUSH20 0xFFFFFFFFFFFFFFFFFFFFFFFFFFFFFFFFFFFFFFFF AND PUSH2 0x116C PUSH2 0x1256 JUMP JUMPDEST PUSH20 0xFFFFFFFFFFFFFFFFFFFFFFFFFFFFFFFFFFFFFFFF AND EQ PUSH2 0x11C2 JUMPI PUSH1 0x40 MLOAD PUSH32 0x8C379A000000000000000000000000000000000000000000000000000000000 DUP2 MSTORE PUSH1 0x4 ADD PUSH2 0x11B9 SWAP1 PUSH2 0x49C3 JUMP JUMPDEST PUSH1 0x40 MLOAD DUP1 SWAP2 SUB SWAP1 REVERT JUMPDEST PUSH2 0x11CB DUP2 PUSH2 0x22DB JUMP JUMPDEST POP JUMP JUMPDEST PUSH2 0x11D6 PUSH2 0x18EF JUMP JUMPDEST PUSH20 0xFFFFFFFFFFFFFFFFFFFFFFFFFFFFFFFFFFFFFFFF AND PUSH2 0x11F4 PUSH2 0x1256 JUMP JUMPDEST PUSH20 0xFFFFFFFFFFFFFFFFFFFFFFFFFFFFFFFFFFFFFFFF AND EQ PUSH2 0x124A JUMPI PUSH1 0x40 MLOAD PUSH32 0x8C379A000000000000000000000000000000000000000000000000000000000 DUP2 MSTORE PUSH1 0x4 ADD PUSH2 0x1241 SWAP1 PUSH2 0x49C3 JUMP JUMPDEST PUSH1 0x40 MLOAD DUP1 SWAP2 SUB SWAP1 REVERT JUMPDEST PUSH2 0x1254 PUSH1 0x0 PUSH2 0x237F JUMP JUMPDEST JUMP JUMPDEST PUSH1 0x0 PUSH1 0x6 PUSH1 0x0 SWAP1 SLOAD SWAP1 PUSH2 0x100 EXP SWAP1 DIV PUSH20 0xFFFFFFFFFFFFFFFFFFFFFFFFFFFFFFFFFFFFFFFF AND SWAP1 POP SWAP1 JUMP JUMPDEST PUSH1 0xF DUP1 SLOAD PUSH2 0x128D SWAP1 PUSH2 0x4E78 JUMP JUMPDEST DUP1 PUSH1 0x1F ADD PUSH1 0x20 DUP1 SWAP2 DIV MUL PUSH1 0x20 ADD PUSH1 0x40 MLOAD SWAP1 DUP2 ADD PUSH1 0x40 MSTORE DUP1 SWAP3 SWAP2 SWAP1 DUP2 DUP2 MSTORE PUSH1 0x20 ADD DUP3 DUP1 SLOAD PUSH2 0x12B9 SWAP1 PUSH2 0x4E78 JUMP JUMPDEST DUP1 ISZERO PUSH2 0x1306 JUMPI DUP1 PUSH1 0x1F LT PUSH2 0x12DB JUMPI PUSH2 0x100 DUP1 DUP4 SLOAD DIV MUL DUP4 MSTORE SWAP2 PUSH1 0x20 ADD SWAP2 PUSH2 0x1306 JUMP JUMPDEST DUP3 ADD SWAP2 SWAP1 PUSH1 0x0 MSTORE PUSH1 0x20 PUSH1 0x0 KECCAK256 SWAP1 JUMPDEST DUP2 SLOAD DUP2 MSTORE SWAP1 PUSH1 0x1 ADD SWAP1 PUSH1 0x20 ADD DUP1 DUP4 GT PUSH2 0x12E9 JUMPI DUP3 SWAP1 SUB PUSH1 0x1F AND DUP3 ADD SWAP2 JUMPDEST POP POP POP POP POP DUP2 JUMP JUMPDEST PUSH2 0x1320 PUSH2 0x1319 PUSH2 0x18EF JUMP JUMPDEST DUP4 DUP4 PUSH2 0x2445 JUMP JUMPDEST POP POP JUMP JUMPDEST PUSH1 0x0 PUSH1 0x3 PUSH1 0x0 DUP4 DUP2 MSTORE PUSH1 0x20 ADD SWAP1 DUP2 MSTORE PUSH1 0x20 ADD PUSH1 0x0 KECCAK256 SLOAD SWAP1 POP SWAP2 SWAP1 POP JUMP JUMPDEST PUSH1 0x0 PUSH2 0x134D DUP4 DUP4 PUSH2 0x25B2 JUMP JUMPDEST PUSH2 0x1361 JUMPI PUSH2 0x135A DUP3 PUSH2 0x1E8B JUMP JUMPDEST SWAP1 POP PUSH2 0x137E JUMP JUMPDEST PUSH2 0x136B DUP4 DUP4 PUSH2 0x2608 JUMP JUMPDEST DUP1 PUSH2 0x137B JUMPI POP PUSH2 0x137A DUP3 PUSH2 0x1E8B JUMP JUMPDEST JUMPDEST SWAP1 POP JUMPDEST SWAP3 SWAP2 POP POP JUMP JUMPDEST PUSH1 0x60 PUSH1 0x0 DUP4 EQ ISZERO PUSH2 0x139E JUMPI PUSH2 0x1397 PUSH2 0xCA0 JUMP JUMPDEST SWAP1 POP PUSH2 0x13AB JUMP JUMPDEST PUSH2 0x13A8 DUP4 DUP4 PUSH2 0x1D5B JUMP JUMPDEST SWAP1 POP JUMPDEST SWAP3 SWAP2 POP POP JUMP JUMPDEST PUSH1 0xA DUP2 JUMP JUMPDEST PUSH2 0x13BE PUSH2 0x18EF JUMP JUMPDEST PUSH20 0xFFFFFFFFFFFFFFFFFFFFFFFFFFFFFFFFFFFFFFFF AND PUSH2 0x13DC PUSH2 0x1256 JUMP JUMPDEST PUSH20 0xFFFFFFFFFFFFFFFFFFFFFFFFFFFFFFFFFFFFFFFF AND EQ PUSH2 0x1432 JUMPI PUSH1 0x40 MLOAD PUSH32 0x8C379A000000000000000000000000000000000000000000000000000000000 DUP2 MSTORE PUSH1 0x4 ADD PUSH2 0x1429 SWAP1 PUSH2 0x49C3 JUMP JUMPDEST PUSH1 0x40 MLOAD DUP1 SWAP2 SUB SWAP1 REVERT JUMPDEST PUSH1 0x0 PUSH1 0x6 PUSH1 0x14 PUSH2 0x100 EXP DUP2 SLOAD DUP2 PUSH1 0xFF MUL NOT AND SWAP1 DUP4 ISZERO ISZERO MUL OR SWAP1 SSTORE POP JUMP JUMPDEST PUSH2 0x1457 PUSH2 0x18EF JUMP JUMPDEST PUSH20 0xFFFFFFFFFFFFFFFFFFFFFFFFFFFFFFFFFFFFFFFF AND PUSH2 0x1475 PUSH2 0x1256 JUMP JUMPDEST PUSH20 0xFFFFFFFFFFFFFFFFFFFFFFFFFFFFFFFFFFFFFFFF AND EQ PUSH2 0x14CB JUMPI PUSH1 0x40 MLOAD PUSH32 0x8C379A000000000000000000000000000000000000000000000000000000000 DUP2 MSTORE PUSH1 0x4 ADD PUSH2 0x14C2 SWAP1 PUSH2 0x49C3 JUMP JUMPDEST PUSH1 0x40 MLOAD DUP1 SWAP2 SUB SWAP1 REVERT JUMPDEST PUSH2 0x14D7 DUP3 DUP3 PUSH1 0x1 PUSH2 0x18F7 JUMP JUMPDEST POP POP JUMP JUMPDEST PUSH1 0x0 PUSH1 0x1 PUSH1 0x0 DUP5 PUSH20 0xFFFFFFFFFFFFFFFFFFFFFFFFFFFFFFFFFFFFFFFF AND PUSH20 0xFFFFFFFFFFFFFFFFFFFFFFFFFFFFFFFFFFFFFFFF AND DUP2 MSTORE PUSH1 0x20 ADD SWAP1 DUP2 MSTORE PUSH1 0x20 ADD PUSH1 0x0 KECCAK256 PUSH1 0x0 DUP4 PUSH20 0xFFFFFFFFFFFFFFFFFFFFFFFFFFFFFFFFFFFFFFFF AND PUSH20 0xFFFFFFFFFFFFFFFFFFFFFFFFFFFFFFFFFFFFFFFF AND DUP2 MSTORE PUSH1 0x20 ADD SWAP1 DUP2 MSTORE PUSH1 0x20 ADD PUSH1 0x0 KECCAK256 PUSH1 0x0 SWAP1 SLOAD SWAP1 PUSH2 0x100 EXP SWAP1 DIV PUSH1 0xFF AND SWAP1 POP SWAP3 SWAP2 POP POP JUMP JUMPDEST PUSH2 0x1577 PUSH2 0x18EF JUMP JUMPDEST PUSH20 0xFFFFFFFFFFFFFFFFFFFFFFFFFFFFFFFFFFFFFFFF AND PUSH2 0x1595 PUSH2 0x1256 JUMP JUMPDEST PUSH20 0xFFFFFFFFFFFFFFFFFFFFFFFFFFFFFFFFFFFFFFFF AND EQ PUSH2 0x15EB JUMPI PUSH1 0x40 MLOAD PUSH32 0x8C379A000000000000000000000000000000000000000000000000000000000 DUP2 MSTORE PUSH1 0x4 ADD PUSH2 0x15E2 SWAP1 PUSH2 0x49C3 JUMP JUMPDEST PUSH1 0x40 MLOAD DUP1 SWAP2 SUB SWAP1 REVERT JUMPDEST PUSH1 0x0 JUMPDEST DUP3 MLOAD DUP2 LT ISZERO PUSH2 0x16E7 JUMPI PUSH1 0x0 DUP4 DUP3 DUP2 MLOAD DUP2 LT PUSH2 0x1632 JUMPI PUSH32 0x4E487B7100000000000000000000000000000000000000000000000000000000 PUSH1 0x0 MSTORE PUSH1 0x32 PUSH1 0x4 MSTORE PUSH1 0x24 PUSH1 0x0 REVERT JUMPDEST PUSH1 0x20 MUL PUSH1 0x20 ADD ADD MLOAD SWAP1 POP PUSH1 0x0 DUP4 DUP4 DUP2 MLOAD DUP2 LT PUSH2 0x1677 JUMPI PUSH32 0x4E487B7100000000000000000000000000000000000000000000000000000000 PUSH1 0x0 MSTORE PUSH1 0x32 PUSH1 0x4 MSTORE PUSH1 0x24 PUSH1 0x0 REVERT JUMPDEST PUSH1 0x20 MUL PUSH1 0x20 ADD ADD MLOAD SWAP1 POP PUSH2 0x168A DUP3 PUSH2 0xE84 JUMP JUMPDEST ISZERO PUSH2 0x16CA JUMPI PUSH1 0x40 MLOAD PUSH32 0x8C379A000000000000000000000000000000000000000000000000000000000 DUP2 MSTORE PUSH1 0x4 ADD PUSH2 0x16C1 SWAP1 PUSH2 0x4A43 JUMP JUMPDEST PUSH1 0x40 MLOAD DUP1 SWAP2 SUB SWAP1 REVERT JUMPDEST PUSH2 0x16D4 DUP3 DUP3 PUSH2 0x2622 JUMP JUMPDEST POP POP DUP1 PUSH2 0x16E0 SWAP1 PUSH2 0x4EDB JUMP JUMPDEST SWAP1 POP PUSH2 0x15EE JUMP JUMPDEST POP POP POP JUMP JUMPDEST PUSH2 0x16F4 PUSH2 0x18EF JUMP JUMPDEST PUSH20 0xFFFFFFFFFFFFFFFFFFFFFFFFFFFFFFFFFFFFFFFF AND DUP6 PUSH20 0xFFFFFFFFFFFFFFFFFFFFFFFFFFFFFFFFFFFFFFFF AND EQ DUP1 PUSH2 0x173A JUMPI POP PUSH2 0x1739 DUP6 PUSH2 0x1734 PUSH2 0x18EF JUMP JUMPDEST PUSH2 0x14DB JUMP JUMPDEST JUMPDEST PUSH2 0x1779 JUMPI PUSH1 0x40 MLOAD PUSH32 0x8C379A000000000000000000000000000000000000000000000000000000000 DUP2 MSTORE PUSH1 0x4 ADD PUSH2 0x1770 SWAP1 PUSH2 0x48E3 JUMP JUMPDEST PUSH1 0x40 MLOAD DUP1 SWAP2 SUB SWAP1 REVERT JUMPDEST PUSH2 0x1786 DUP6 DUP6 DUP6 DUP6 DUP6 PUSH2 0x264E JUMP JUMPDEST POP POP POP POP POP JUMP JUMPDEST PUSH2 0x1795 PUSH2 0x18EF JUMP JUMPDEST PUSH20 0xFFFFFFFFFFFFFFFFFFFFFFFFFFFFFFFFFFFFFFFF AND PUSH2 0x17B3 PUSH2 0x1256 JUMP JUMPDEST PUSH20 0xFFFFFFFFFFFFFFFFFFFFFFFFFFFFFFFFFFFFFFFF AND EQ PUSH2 0x1809 JUMPI PUSH1 0x40 MLOAD PUSH32 0x8C379A000000000000000000000000000000000000000000000000000000000 DUP2 MSTORE PUSH1 0x4 ADD PUSH2 0x1800 SWAP1 PUSH2 0x49C3 JUMP JUMPDEST PUSH1 0x40 MLOAD DUP1 SWAP2 SUB SWAP1 REVERT JUMPDEST PUSH1 0x0 PUSH20 0xFFFFFFFFFFFFFFFFFFFFFFFFFFFFFFFFFFFFFFFF AND DUP2 PUSH20 0xFFFFFFFFFFFFFFFFFFFFFFFFFFFFFFFFFFFFFFFF AND EQ ISZERO PUSH2 0x1879 JUMPI PUSH1 0x40 MLOAD PUSH32 0x8C379A000000000000000000000000000000000000000000000000000000000 DUP2 MSTORE PUSH1 0x4 ADD PUSH2 0x1870 SWAP1 PUSH2 0x48A3 JUMP JUMPDEST PUSH1 0x40 MLOAD DUP1 SWAP2 SUB SWAP1 REVERT JUMPDEST PUSH2 0x1882 DUP2 PUSH2 0x237F JUMP JUMPDEST POP JUMP JUMPDEST PUSH1 0x0 PUSH32 0x1FFC9A700000000000000000000000000000000000000000000000000000000 PUSH28 0xFFFFFFFFFFFFFFFFFFFFFFFFFFFFFFFFFFFFFFFFFFFFFFFFFFFFFFFF NOT AND DUP3 PUSH28 0xFFFFFFFFFFFFFFFFFFFFFFFFFFFFFFFFFFFFFFFFFFFFFFFFFFFFFFFF NOT AND EQ SWAP1 POP SWAP2 SWAP1 POP JUMP JUMPDEST PUSH1 0x0 CALLER SWAP1 POP SWAP1 JUMP JUMPDEST PUSH2 0x1901 DUP4 DUP4 PUSH2 0x25B2 JUMP JUMPDEST PUSH2 0x1915 JUMPI PUSH2 0x1910 DUP4 DUP4 DUP4 PUSH2 0x28D0 JUMP JUMPDEST PUSH2 0x1921 JUMP JUMPDEST PUSH2 0x1920 DUP4 DUP4 DUP4 PUSH2 0x29F7 JUMP JUMPDEST JUMPDEST POP POP POP JUMP JUMPDEST PUSH1 0x0 JUMPDEST PUSH1 0x7 PUSH1 0x2 ADD DUP4 PUSH1 0x40 MLOAD PUSH2 0x193C SWAP2 SWAP1 PUSH2 0x45CF JUMP JUMPDEST SWAP1 DUP2 MSTORE PUSH1 0x20 ADD PUSH1 0x40 MLOAD DUP1 SWAP2 SUB SWAP1 KECCAK256 DUP1 SLOAD SWAP1 POP DUP2 LT ISZERO PUSH2 0x19F6 JUMPI PUSH1 0x0 PUSH1 0x7 PUSH1 0x2 ADD DUP5 PUSH1 0x40 MLOAD PUSH2 0x196A SWAP2 SWAP1 PUSH2 0x45CF JUMP JUMPDEST SWAP1 DUP2 MSTORE PUSH1 0x20 ADD PUSH1 0x40 MLOAD DUP1 SWAP2 SUB SWAP1 KECCAK256 DUP3 DUP2 SLOAD DUP2 LT PUSH2 0x19B0 JUMPI PUSH32 0x4E487B7100000000000000000000000000000000000000000000000000000000 PUSH1 0x0 MSTORE PUSH1 0x32 PUSH1 0x4 MSTORE PUSH1 0x24 PUSH1 0x0 REVERT JUMPDEST SWAP1 PUSH1 0x0 MSTORE PUSH1 0x20 PUSH1 0x0 KECCAK256 ADD SLOAD SWAP1 POP DUP3 DUP1 PUSH2 0x19D1 JUMPI POP PUSH2 0x19CF DUP2 PUSH1 0x1 PUSH2 0x2A4A JUMP JUMPDEST ISZERO JUMPDEST ISZERO PUSH2 0x19E2 JUMPI PUSH2 0x19E1 DUP2 PUSH1 0x0 PUSH2 0x2A64 JUMP JUMPDEST JUMPDEST POP DUP1 DUP1 PUSH2 0x19EE SWAP1 PUSH2 0x4EDB JUMP JUMPDEST SWAP2 POP POP PUSH2 0x1929 JUMP JUMPDEST POP POP POP JUMP JUMPDEST DUP2 MLOAD DUP4 MLOAD EQ PUSH2 0x1A3F JUMPI PUSH1 0x40 MLOAD PUSH32 0x8C379A000000000000000000000000000000000000000000000000000000000 DUP2 MSTORE PUSH1 0x4 ADD PUSH2 0x1A36 SWAP1 PUSH2 0x4AA3 JUMP JUMPDEST PUSH1 0x40 MLOAD DUP1 SWAP2 SUB SWAP1 REVERT JUMPDEST PUSH1 0x0 PUSH20 0xFFFFFFFFFFFFFFFFFFFFFFFFFFFFFFFFFFFFFFFF AND DUP5 PUSH20 0xFFFFFFFFFFFFFFFFFFFFFFFFFFFFFFFFFFFFFFFF AND EQ ISZERO PUSH2 0x1AAF JUMPI PUSH1 0x40 MLOAD PUSH32 0x8C379A000000000000000000000000000000000000000000000000000000000 DUP2 MSTORE PUSH1 0x4 ADD PUSH2 0x1AA6 SWAP1 PUSH2 0x4903 JUMP JUMPDEST PUSH1 0x40 MLOAD DUP1 SWAP2 SUB SWAP1 REVERT JUMPDEST PUSH1 0x0 PUSH2 0x1AB9 PUSH2 0x18EF JUMP JUMPDEST SWAP1 POP PUSH2 0x1AC9 DUP2 DUP8 DUP8 DUP8 DUP8 DUP8 PUSH2 0x2B12 JUMP JUMPDEST PUSH1 0x0 JUMPDEST DUP5 MLOAD DUP2 LT ISZERO PUSH2 0x1CC6 JUMPI PUSH1 0x0 DUP6 DUP3 DUP2 MLOAD DUP2 LT PUSH2 0x1B10 JUMPI PUSH32 0x4E487B7100000000000000000000000000000000000000000000000000000000 PUSH1 0x0 MSTORE PUSH1 0x32 PUSH1 0x4 MSTORE PUSH1 0x24 PUSH1 0x0 REVERT JUMPDEST PUSH1 0x20 MUL PUSH1 0x20 ADD ADD MLOAD SWAP1 POP PUSH1 0x0 DUP6 DUP4 DUP2 MLOAD DUP2 LT PUSH2 0x1B55 JUMPI PUSH32 0x4E487B7100000000000000000000000000000000000000000000000000000000 PUSH1 0x0 MSTORE PUSH1 0x32 PUSH1 0x4 MSTORE PUSH1 0x24 PUSH1 0x0 REVERT JUMPDEST PUSH1 0x20 MUL PUSH1 0x20 ADD ADD MLOAD SWAP1 POP PUSH1 0x0 DUP1 PUSH1 0x0 DUP5 DUP2 MSTORE PUSH1 0x20 ADD SWAP1 DUP2 MSTORE PUSH1 0x20 ADD PUSH1 0x0 KECCAK256 PUSH1 0x0 DUP12 PUSH20 0xFFFFFFFFFFFFFFFFFFFFFFFFFFFFFFFFFFFFFFFF AND PUSH20 0xFFFFFFFFFFFFFFFFFFFFFFFFFFFFFFFFFFFFFFFF AND DUP2 MSTORE PUSH1 0x20 ADD SWAP1 DUP2 MSTORE PUSH1 0x20 ADD PUSH1 0x0 KECCAK256 SLOAD SWAP1 POP DUP2 DUP2 LT ISZERO PUSH2 0x1BF6 JUMPI PUSH1 0x40 MLOAD PUSH32 0x8C379A000000000000000000000000000000000000000000000000000000000 DUP2 MSTORE PUSH1 0x4 ADD PUSH2 0x1BED SWAP1 PUSH2 0x4983 JUMP JUMPDEST PUSH1 0x40 MLOAD DUP1 SWAP2 SUB SWAP1 REVERT JUMPDEST DUP2 DUP2 SUB PUSH1 0x0 DUP1 DUP6 DUP2 MSTORE PUSH1 0x20 ADD SWAP1 DUP2 MSTORE PUSH1 0x20 ADD PUSH1 0x0 KECCAK256 PUSH1 0x0 DUP13 PUSH20 0xFFFFFFFFFFFFFFFFFFFFFFFFFFFFFFFFFFFFFFFF AND PUSH20 0xFFFFFFFFFFFFFFFFFFFFFFFFFFFFFFFFFFFFFFFF AND DUP2 MSTORE PUSH1 0x20 ADD SWAP1 DUP2 MSTORE PUSH1 0x20 ADD PUSH1 0x0 KECCAK256 DUP2 SWAP1 SSTORE POP DUP2 PUSH1 0x0 DUP1 DUP6 DUP2 MSTORE PUSH1 0x20 ADD SWAP1 DUP2 MSTORE PUSH1 0x20 ADD PUSH1 0x0 KECCAK256 PUSH1 0x0 DUP12 PUSH20 0xFFFFFFFFFFFFFFFFFFFFFFFFFFFFFFFFFFFFFFFF AND PUSH20 0xFFFFFFFFFFFFFFFFFFFFFFFFFFFFFFFFFFFFFFFF AND DUP2 MSTORE PUSH1 0x20 ADD SWAP1 DUP2 MSTORE PUSH1 0x20 ADD PUSH1 0x0 KECCAK256 PUSH1 0x0 DUP3 DUP3 SLOAD PUSH2 0x1CAB SWAP2 SWAP1 PUSH2 0x4D38 JUMP JUMPDEST SWAP3 POP POP DUP2 SWAP1 SSTORE POP POP POP POP DUP1 PUSH2 0x1CBF SWAP1 PUSH2 0x4EDB JUMP JUMPDEST SWAP1 POP PUSH2 0x1ACC JUMP JUMPDEST POP DUP5 PUSH20 0xFFFFFFFFFFFFFFFFFFFFFFFFFFFFFFFFFFFFFFFF AND DUP7 PUSH20 0xFFFFFFFFFFFFFFFFFFFFFFFFFFFFFFFFFFFFFFFF AND DUP3 PUSH20 0xFFFFFFFFFFFFFFFFFFFFFFFFFFFFFFFFFFFFFFFF AND PUSH32 0x4A39DC06D4C0DBC64B70AF90FD698A233A518AA5D07E595D983B8C0526C8F7FB DUP8 DUP8 PUSH1 0x40 MLOAD PUSH2 0x1D3D SWAP3 SWAP2 SWAP1 PUSH2 0x4760 JUMP JUMPDEST PUSH1 0x40 MLOAD DUP1 SWAP2 SUB SWAP1 LOG4 PUSH2 0x1D53 DUP2 DUP8 DUP8 DUP8 DUP8 DUP8 PUSH2 0x2D24 JUMP JUMPDEST POP POP POP POP POP POP JUMP JUMPDEST PUSH1 0x60 DUP1 DUP3 ISZERO PUSH2 0x1D72 JUMPI PUSH2 0x1D6F PUSH1 0x0 DUP1 PUSH2 0x1D5B JUMP JUMPDEST SWAP1 POP JUMPDEST PUSH1 0x0 DUP2 MLOAD SWAP1 POP PUSH1 0x0 JUMPDEST PUSH1 0x7 PUSH1 0x3 ADD PUSH1 0x0 DUP8 DUP2 MSTORE PUSH1 0x20 ADD SWAP1 DUP2 MSTORE PUSH1 0x20 ADD PUSH1 0x0 KECCAK256 DUP1 SLOAD SWAP1 POP DUP2 LT ISZERO PUSH2 0x1E7F JUMPI PUSH1 0x0 PUSH1 0x7 PUSH1 0x3 ADD PUSH1 0x0 DUP9 DUP2 MSTORE PUSH1 0x20 ADD SWAP1 DUP2 MSTORE PUSH1 0x20 ADD PUSH1 0x0 KECCAK256 DUP3 DUP2 SLOAD DUP2 LT PUSH2 0x1DEC JUMPI PUSH32 0x4E487B7100000000000000000000000000000000000000000000000000000000 PUSH1 0x0 MSTORE PUSH1 0x32 PUSH1 0x4 MSTORE PUSH1 0x24 PUSH1 0x0 REVERT JUMPDEST SWAP1 PUSH1 0x0 MSTORE PUSH1 0x20 PUSH1 0x0 KECCAK256 ADD SLOAD SWAP1 POP PUSH1 0x0 PUSH2 0x1E06 DUP3 PUSH1 0x0 PUSH2 0x2F0B JUMP JUMPDEST SWAP1 POP DUP1 PUSH1 0x60 ADD MLOAD ISZERO PUSH2 0x1E6A JUMPI DUP1 PUSH1 0x40 ADD MLOAD DUP6 DUP6 DUP2 MLOAD DUP2 LT PUSH2 0x1E50 JUMPI PUSH32 0x4E487B7100000000000000000000000000000000000000000000000000000000 PUSH1 0x0 MSTORE PUSH1 0x32 PUSH1 0x4 MSTORE PUSH1 0x24 PUSH1 0x0 REVERT JUMPDEST PUSH1 0x20 MUL PUSH1 0x20 ADD ADD DUP2 SWAP1 MSTORE POP DUP4 DUP1 PUSH2 0x1E66 SWAP1 PUSH2 0x4EDB JUMP JUMPDEST SWAP5 POP POP JUMPDEST POP POP DUP1 DUP1 PUSH2 0x1E77 SWAP1 PUSH2 0x4EDB JUMP JUMPDEST SWAP2 POP POP PUSH2 0x1D7B JUMP JUMPDEST POP DUP2 SWAP3 POP POP POP SWAP3 SWAP2 POP POP JUMP JUMPDEST PUSH1 0x0 PUSH2 0x1E98 PUSH1 0x0 DUP4 PUSH2 0x2608 JUMP JUMPDEST SWAP1 POP SWAP2 SWAP1 POP JUMP JUMPDEST PUSH2 0x1EA7 PUSH2 0x18EF JUMP JUMPDEST PUSH20 0xFFFFFFFFFFFFFFFFFFFFFFFFFFFFFFFFFFFFFFFF AND DUP3 PUSH20 0xFFFFFFFFFFFFFFFFFFFFFFFFFFFFFFFFFFFFFFFF AND EQ DUP1 PUSH2 0x1EED JUMPI POP PUSH2 0x1EEC DUP3 PUSH2 0x1EE7 PUSH2 0x18EF JUMP JUMPDEST PUSH2 0x14DB JUMP JUMPDEST JUMPDEST PUSH2 0x1F2C JUMPI PUSH1 0x40 MLOAD PUSH32 0x8C379A000000000000000000000000000000000000000000000000000000000 DUP2 MSTORE PUSH1 0x4 ADD PUSH2 0x1F23 SWAP1 PUSH2 0x4943 JUMP JUMPDEST PUSH1 0x40 MLOAD DUP1 SWAP2 SUB SWAP1 REVERT JUMPDEST PUSH2 0x1F35 DUP2 PUSH2 0xF14 JUMP JUMPDEST PUSH2 0x1F74 JUMPI PUSH1 0x40 MLOAD PUSH32 0x8C379A000000000000000000000000000000000000000000000000000000000 DUP2 MSTORE PUSH1 0x4 ADD PUSH2 0x1F6B SWAP1 PUSH2 0x49A3 JUMP JUMPDEST PUSH1 0x40 MLOAD DUP1 SWAP2 SUB SWAP1 REVERT JUMPDEST PUSH1 0x0 PUSH2 0x1F80 DUP4 DUP4 PUSH2 0x754 JUMP JUMPDEST SWAP1 POP PUSH1 0x1 DUP2 EQ DUP4 PUSH1 0x40 MLOAD PUSH1 0x20 ADD PUSH2 0x1F97 SWAP2 SWAP1 PUSH2 0x4842 JUMP JUMPDEST PUSH1 0x40 MLOAD PUSH1 0x20 DUP2 DUP4 SUB SUB DUP2 MSTORE SWAP1 PUSH1 0x40 MSTORE SWAP1 PUSH2 0x1FE7 JUMPI PUSH1 0x40 MLOAD PUSH32 0x8C379A000000000000000000000000000000000000000000000000000000000 DUP2 MSTORE PUSH1 0x4 ADD PUSH2 0x1FDE SWAP2 SWAP1 PUSH2 0x47B2 JUMP JUMPDEST PUSH1 0x40 MLOAD DUP1 SWAP2 SUB SWAP1 REVERT JUMPDEST POP PUSH2 0x1FF2 DUP3 DUP6 PUSH2 0x2622 JUMP JUMPDEST POP POP POP POP JUMP JUMPDEST DUP4 PUSH1 0x5 PUSH1 0x0 DUP3 DUP2 MSTORE PUSH1 0x20 ADD SWAP1 DUP2 MSTORE PUSH1 0x20 ADD PUSH1 0x0 KECCAK256 PUSH1 0x0 SWAP1 SLOAD SWAP1 PUSH2 0x100 EXP SWAP1 DIV PUSH1 0xFF AND ISZERO PUSH2 0x205A JUMPI PUSH1 0x40 MLOAD PUSH32 0x8C379A000000000000000000000000000000000000000000000000000000000 DUP2 MSTORE PUSH1 0x4 ADD PUSH2 0x2051 SWAP1 PUSH2 0x4B03 JUMP JUMPDEST PUSH1 0x40 MLOAD DUP1 SWAP2 SUB SWAP1 REVERT JUMPDEST PUSH2 0x2063 DUP6 PUSH2 0xE84 JUMP JUMPDEST ISZERO PUSH2 0x20A3 JUMPI PUSH1 0x40 MLOAD PUSH32 0x8C379A000000000000000000000000000000000000000000000000000000000 DUP2 MSTORE PUSH1 0x4 ADD PUSH2 0x209A SWAP1 PUSH2 0x4A03 JUMP JUMPDEST PUSH1 0x40 MLOAD DUP1 SWAP2 SUB SWAP1 REVERT JUMPDEST PUSH2 0x20AD DUP6 DUP4 PUSH2 0x1341 JUMP JUMPDEST DUP6 PUSH1 0x40 MLOAD PUSH1 0x20 ADD PUSH2 0x20BE SWAP2 SWAP1 PUSH2 0x4814 JUMP JUMPDEST PUSH1 0x40 MLOAD PUSH1 0x20 DUP2 DUP4 SUB SUB DUP2 MSTORE SWAP1 PUSH1 0x40 MSTORE SWAP1 PUSH2 0x210E JUMPI PUSH1 0x40 MLOAD PUSH32 0x8C379A000000000000000000000000000000000000000000000000000000000 DUP2 MSTORE PUSH1 0x4 ADD PUSH2 0x2105 SWAP2 SWAP1 PUSH2 0x47B2 JUMP JUMPDEST PUSH1 0x40 MLOAD DUP1 SWAP2 SUB SWAP1 REVERT JUMPDEST POP PUSH2 0x2119 DUP6 DUP4 PUSH2 0x2622 JUMP JUMPDEST PUSH2 0x2125 DUP7 DUP7 DUP7 DUP7 PUSH2 0x307D JUMP JUMPDEST POP POP POP POP POP POP JUMP JUMPDEST PUSH1 0x60 DUP1 DUP3 DUP1 ISZERO PUSH2 0x2144 JUMPI POP PUSH2 0x2143 PUSH1 0x0 DUP6 PUSH2 0x25B2 JUMP JUMPDEST JUMPDEST DUP1 ISZERO PUSH2 0x215D JUMPI POP PUSH2 0x2158 PUSH1 0x0 DUP6 PUSH1 0x1 PUSH2 0x3213 JUMP JUMPDEST PUSH1 0x60 ADD MLOAD JUMPDEST ISZERO PUSH2 0x21AB JUMPI PUSH1 0x0 DUP2 PUSH1 0x0 DUP2 MLOAD DUP2 LT PUSH2 0x219E JUMPI PUSH32 0x4E487B7100000000000000000000000000000000000000000000000000000000 PUSH1 0x0 MSTORE PUSH1 0x32 PUSH1 0x4 MSTORE PUSH1 0x24 PUSH1 0x0 REVERT JUMPDEST PUSH1 0x20 MUL PUSH1 0x20 ADD ADD DUP2 DUP2 MSTORE POP POP JUMPDEST PUSH1 0x0 DUP2 MLOAD SWAP1 POP PUSH1 0x0 JUMPDEST PUSH1 0x7 PUSH1 0x2 ADD DUP7 PUSH1 0x40 MLOAD PUSH2 0x21C7 SWAP2 SWAP1 PUSH2 0x45CF JUMP JUMPDEST SWAP1 DUP2 MSTORE PUSH1 0x20 ADD PUSH1 0x40 MLOAD DUP1 SWAP2 SUB SWAP1 KECCAK256 DUP1 SLOAD SWAP1 POP DUP2 LT ISZERO PUSH2 0x22CF JUMPI PUSH1 0x0 PUSH1 0x7 PUSH1 0x2 ADD DUP8 PUSH1 0x40 MLOAD PUSH2 0x21F5 SWAP2 SWAP1 PUSH2 0x45CF JUMP JUMPDEST SWAP1 DUP2 MSTORE PUSH1 0x20 ADD PUSH1 0x40 MLOAD DUP1 SWAP2 SUB SWAP1 KECCAK256 DUP3 DUP2 SLOAD DUP2 LT PUSH2 0x223B JUMPI PUSH32 0x4E487B7100000000000000000000000000000000000000000000000000000000 PUSH1 0x0 MSTORE PUSH1 0x32 PUSH1 0x4 MSTORE PUSH1 0x24 PUSH1 0x0 REVERT JUMPDEST SWAP1 PUSH1 0x0 MSTORE PUSH1 0x20 PUSH1 0x0 KECCAK256 ADD SLOAD SWAP1 POP PUSH1 0x0 PUSH2 0x2255 DUP3 PUSH1 0x0 PUSH2 0x2F0B JUMP JUMPDEST SWAP1 POP DUP1 PUSH1 0x60 ADD MLOAD ISZERO PUSH2 0x22BA JUMPI DUP1 PUSH1 0x20 ADD MLOAD DUP6 DUP6 DUP2 MLOAD DUP2 LT PUSH2 0x229F JUMPI PUSH32 0x4E487B7100000000000000000000000000000000000000000000000000000000 PUSH1 0x0 MSTORE PUSH1 0x32 PUSH1 0x4 MSTORE PUSH1 0x24 PUSH1 0x0 REVERT JUMPDEST PUSH1 0x20 MUL PUSH1 0x20 ADD ADD DUP2 DUP2 MSTORE POP POP DUP4 DUP1 PUSH2 0x22B6 SWAP1 PUSH2 0x4EDB JUMP JUMPDEST SWAP5 POP POP JUMPDEST POP POP DUP1 DUP1 PUSH2 0x22C7 SWAP1 PUSH2 0x4EDB JUMP JUMPDEST SWAP2 POP POP PUSH2 0x21B4 JUMP JUMPDEST POP DUP2 SWAP3 POP POP POP SWAP3 SWAP2 POP POP JUMP JUMPDEST PUSH1 0x0 JUMPDEST PUSH1 0x7 PUSH1 0x3 ADD PUSH1 0x0 DUP4 DUP2 MSTORE PUSH1 0x20 ADD SWAP1 DUP2 MSTORE PUSH1 0x20 ADD PUSH1 0x0 KECCAK256 DUP1 SLOAD SWAP1 POP DUP2 LT ISZERO PUSH2 0x237B JUMPI PUSH1 0x0 PUSH1 0x7 PUSH1 0x3 ADD PUSH1 0x0 DUP5 DUP2 MSTORE PUSH1 0x20 ADD SWAP1 DUP2 MSTORE PUSH1 0x20 ADD PUSH1 0x0 KECCAK256 DUP3 DUP2 SLOAD DUP2 LT PUSH2 0x234F JUMPI PUSH32 0x4E487B7100000000000000000000000000000000000000000000000000000000 PUSH1 0x0 MSTORE PUSH1 0x32 PUSH1 0x4 MSTORE PUSH1 0x24 PUSH1 0x0 REVERT JUMPDEST SWAP1 PUSH1 0x0 MSTORE PUSH1 0x20 PUSH1 0x0 KECCAK256 ADD SLOAD SWAP1 POP PUSH2 0x2367 DUP2 PUSH1 0x0 PUSH2 0x2A64 JUMP JUMPDEST POP DUP1 DUP1 PUSH2 0x2373 SWAP1 PUSH2 0x4EDB JUMP JUMPDEST SWAP2 POP POP PUSH2 0x22DE JUMP JUMPDEST POP POP JUMP JUMPDEST PUSH1 0x0 PUSH1 0x6 PUSH1 0x0 SWAP1 SLOAD SWAP1 PUSH2 0x100 EXP SWAP1 DIV PUSH20 0xFFFFFFFFFFFFFFFFFFFFFFFFFFFFFFFFFFFFFFFF AND SWAP1 POP DUP2 PUSH1 0x6 PUSH1 0x0 PUSH2 0x100 EXP DUP2 SLOAD DUP2 PUSH20 0xFFFFFFFFFFFFFFFFFFFFFFFFFFFFFFFFFFFFFFFF MUL NOT AND SWAP1 DUP4 PUSH20 0xFFFFFFFFFFFFFFFFFFFFFFFFFFFFFFFFFFFFFFFF AND MUL OR SWAP1 SSTORE POP DUP2 PUSH20 0xFFFFFFFFFFFFFFFFFFFFFFFFFFFFFFFFFFFFFFFF AND DUP2 PUSH20 0xFFFFFFFFFFFFFFFFFFFFFFFFFFFFFFFFFFFFFFFF AND PUSH32 0x8BE0079C531659141344CD1FD0A4F28419497F9722A3DAAFE3B4186F6B6457E0 PUSH1 0x40 MLOAD PUSH1 0x40 MLOAD DUP1 SWAP2 SUB SWAP1 LOG3 POP POP JUMP JUMPDEST DUP2 PUSH20 0xFFFFFFFFFFFFFFFFFFFFFFFFFFFFFFFFFFFFFFFF AND DUP4 PUSH20 0xFFFFFFFFFFFFFFFFFFFFFFFFFFFFFFFFFFFFFFFF AND EQ ISZERO PUSH2 0x24B4 JUMPI PUSH1 0x40 MLOAD PUSH32 0x8C379A000000000000000000000000000000000000000000000000000000000 DUP2 MSTORE PUSH1 0x4 ADD PUSH2 0x24AB SWAP1 PUSH2 0x4A63 JUMP JUMPDEST PUSH1 0x40 MLOAD DUP1 SWAP2 SUB SWAP1 REVERT JUMPDEST DUP1 PUSH1 0x1 PUSH1 0x0 DUP6 PUSH20 0xFFFFFFFFFFFFFFFFFFFFFFFFFFFFFFFFFFFFFFFF AND PUSH20 0xFFFFFFFFFFFFFFFFFFFFFFFFFFFFFFFFFFFFFFFF AND DUP2 MSTORE PUSH1 0x20 ADD SWAP1 DUP2 MSTORE PUSH1 0x20 ADD PUSH1 0x0 KECCAK256 PUSH1 0x0 DUP5 PUSH20 0xFFFFFFFFFFFFFFFFFFFFFFFFFFFFFFFFFFFFFFFF AND PUSH20 0xFFFFFFFFFFFFFFFFFFFFFFFFFFFFFFFFFFFFFFFF AND DUP2 MSTORE PUSH1 0x20 ADD SWAP1 DUP2 MSTORE PUSH1 0x20 ADD PUSH1 0x0 KECCAK256 PUSH1 0x0 PUSH2 0x100 EXP DUP2 SLOAD DUP2 PUSH1 0xFF MUL NOT AND SWAP1 DUP4 ISZERO ISZERO MUL OR SWAP1 SSTORE POP DUP2 PUSH20 0xFFFFFFFFFFFFFFFFFFFFFFFFFFFFFFFFFFFFFFFF AND DUP4 PUSH20 0xFFFFFFFFFFFFFFFFFFFFFFFFFFFFFFFFFFFFFFFF AND PUSH32 0x17307EAB39AB6107E8899845AD3D59BD9653F200F220920489CA2B5937696C31 DUP4 PUSH1 0x40 MLOAD PUSH2 0x25A5 SWAP2 SWAP1 PUSH2 0x4797 JUMP JUMPDEST PUSH1 0x40 MLOAD DUP1 SWAP2 SUB SWAP1 LOG3 POP POP POP JUMP JUMPDEST PUSH1 0x0 DUP1 PUSH1 0x7 PUSH1 0x1 ADD PUSH1 0x0 DUP6 DUP6 PUSH1 0x40 MLOAD PUSH1 0x20 ADD PUSH2 0x25CF SWAP3 SWAP2 SWAP1 PUSH2 0x4617 JUMP JUMPDEST PUSH1 0x40 MLOAD PUSH1 0x20 DUP2 DUP4 SUB SUB DUP2 MSTORE SWAP1 PUSH1 0x40 MSTORE DUP1 MLOAD SWAP1 PUSH1 0x20 ADD KECCAK256 DUP2 MSTORE PUSH1 0x20 ADD SWAP1 DUP2 MSTORE PUSH1 0x20 ADD PUSH1 0x0 KECCAK256 SLOAD SWAP1 POP PUSH2 0x25FF DUP2 PUSH2 0x3272 JUMP JUMPDEST SWAP2 POP POP SWAP3 SWAP2 POP POP JUMP JUMPDEST PUSH1 0x0 PUSH2 0x2616 DUP4 DUP4 PUSH1 0x0 PUSH2 0x3213 JUMP JUMPDEST PUSH1 0x60 ADD MLOAD SWAP1 POP SWAP3 SWAP2 POP POP JUMP JUMPDEST DUP1 PUSH1 0x4 PUSH1 0x0 DUP5 DUP2 MSTORE PUSH1 0x20 ADD SWAP1 DUP2 MSTORE PUSH1 0x20 ADD PUSH1 0x0 KECCAK256 SWAP1 DUP1 MLOAD SWAP1 PUSH1 0x20 ADD SWAP1 PUSH2 0x2649 SWAP3 SWAP2 SWAP1 PUSH2 0x375E JUMP JUMPDEST POP POP POP JUMP JUMPDEST PUSH1 0x0 PUSH20 0xFFFFFFFFFFFFFFFFFFFFFFFFFFFFFFFFFFFFFFFF AND DUP5 PUSH20 0xFFFFFFFFFFFFFFFFFFFFFFFFFFFFFFFFFFFFFFFF AND EQ ISZERO PUSH2 0x26BE JUMPI PUSH1 0x40 MLOAD PUSH32 0x8C379A000000000000000000000000000000000000000000000000000000000 DUP2 MSTORE PUSH1 0x4 ADD PUSH2 0x26B5 SWAP1 PUSH2 0x4903 JUMP JUMPDEST PUSH1 0x40 MLOAD DUP1 SWAP2 SUB SWAP1 REVERT JUMPDEST PUSH1 0x0 PUSH2 0x26C8 PUSH2 0x18EF JUMP JUMPDEST SWAP1 POP PUSH2 0x26E8 DUP2 DUP8 DUP8 PUSH2 0x26D9 DUP9 PUSH2 0x327F JUMP JUMPDEST PUSH2 0x26E2 DUP9 PUSH2 0x327F JUMP JUMPDEST DUP8 PUSH2 0x2B12 JUMP JUMPDEST PUSH1 0x0 DUP1 PUSH1 0x0 DUP7 DUP2 MSTORE PUSH1 0x20 ADD SWAP1 DUP2 MSTORE PUSH1 0x20 ADD PUSH1 0x0 KECCAK256 PUSH1 0x0 DUP9 PUSH20 0xFFFFFFFFFFFFFFFFFFFFFFFFFFFFFFFFFFFFFFFF AND PUSH20 0xFFFFFFFFFFFFFFFFFFFFFFFFFFFFFFFFFFFFFFFF AND DUP2 MSTORE PUSH1 0x20 ADD SWAP1 DUP2 MSTORE PUSH1 0x20 ADD PUSH1 0x0 KECCAK256 SLOAD SWAP1 POP DUP4 DUP2 LT ISZERO PUSH2 0x277F JUMPI PUSH1 0x40 MLOAD PUSH32 0x8C379A000000000000000000000000000000000000000000000000000000000 DUP2 MSTORE PUSH1 0x4 ADD PUSH2 0x2776 SWAP1 PUSH2 0x4983 JUMP JUMPDEST PUSH1 0x40 MLOAD DUP1 SWAP2 SUB SWAP1 REVERT JUMPDEST DUP4 DUP2 SUB PUSH1 0x0 DUP1 DUP8 DUP2 MSTORE PUSH1 0x20 ADD SWAP1 DUP2 MSTORE PUSH1 0x20 ADD PUSH1 0x0 KECCAK256 PUSH1 0x0 DUP10 PUSH20 0xFFFFFFFFFFFFFFFFFFFFFFFFFFFFFFFFFFFFFFFF AND PUSH20 0xFFFFFFFFFFFFFFFFFFFFFFFFFFFFFFFFFFFFFFFF AND DUP2 MSTORE PUSH1 0x20 ADD SWAP1 DUP2 MSTORE PUSH1 0x20 ADD PUSH1 0x0 KECCAK256 DUP2 SWAP1 SSTORE POP DUP4 PUSH1 0x0 DUP1 DUP8 DUP2 MSTORE PUSH1 0x20 ADD SWAP1 DUP2 MSTORE PUSH1 0x20 ADD PUSH1 0x0 KECCAK256 PUSH1 0x0 DUP9 PUSH20 0xFFFFFFFFFFFFFFFFFFFFFFFFFFFFFFFFFFFFFFFF AND PUSH20 0xFFFFFFFFFFFFFFFFFFFFFFFFFFFFFFFFFFFFFFFF AND DUP2 MSTORE PUSH1 0x20 ADD SWAP1 DUP2 MSTORE PUSH1 0x20 ADD PUSH1 0x0 KECCAK256 PUSH1 0x0 DUP3 DUP3 SLOAD PUSH2 0x2834 SWAP2 SWAP1 PUSH2 0x4D38 JUMP JUMPDEST SWAP3 POP POP DUP2 SWAP1 SSTORE POP DUP6 PUSH20 0xFFFFFFFFFFFFFFFFFFFFFFFFFFFFFFFFFFFFFFFF AND DUP8 PUSH20 0xFFFFFFFFFFFFFFFFFFFFFFFFFFFFFFFFFFFFFFFF AND DUP4 PUSH20 0xFFFFFFFFFFFFFFFFFFFFFFFFFFFFFFFFFFFFFFFF AND PUSH32 0xC3D58168C5AE7397731D063D5BBF3D657854427343F4C083240F7AACAA2D0F62 DUP9 DUP9 PUSH1 0x40 MLOAD PUSH2 0x28B1 SWAP3 SWAP2 SWAP1 PUSH2 0x4B3E JUMP JUMPDEST PUSH1 0x40 MLOAD DUP1 SWAP2 SUB SWAP1 LOG4 PUSH2 0x28C7 DUP3 DUP9 DUP9 DUP9 DUP9 DUP9 PUSH2 0x3345 JUMP JUMPDEST POP POP POP POP POP POP POP JUMP JUMPDEST PUSH2 0x28DA DUP4 DUP4 PUSH2 0x25B2 JUMP JUMPDEST ISZERO PUSH2 0x291A JUMPI PUSH1 0x40 MLOAD PUSH32 0x8C379A000000000000000000000000000000000000000000000000000000000 DUP2 MSTORE PUSH1 0x4 ADD PUSH2 0x2911 SWAP1 PUSH2 0x4A23 JUMP JUMPDEST PUSH1 0x40 MLOAD DUP1 SWAP2 SUB SWAP1 REVERT JUMPDEST PUSH1 0x0 PUSH2 0x2927 DUP5 DUP5 DUP5 PUSH2 0x352C JUMP JUMPDEST SWAP1 POP DUP1 PUSH1 0x7 PUSH1 0x1 ADD PUSH1 0x0 DUP7 DUP7 PUSH1 0x40 MLOAD PUSH1 0x20 ADD PUSH2 0x2944 SWAP3 SWAP2 SWAP1 PUSH2 0x4617 JUMP JUMPDEST PUSH1 0x40 MLOAD PUSH1 0x20 DUP2 DUP4 SUB SUB DUP2 MSTORE SWAP1 PUSH1 0x40 MSTORE DUP1 MLOAD SWAP1 PUSH1 0x20 ADD KECCAK256 DUP2 MSTORE PUSH1 0x20 ADD SWAP1 DUP2 MSTORE PUSH1 0x20 ADD PUSH1 0x0 KECCAK256 DUP2 SWAP1 SSTORE POP PUSH1 0x7 PUSH1 0x3 ADD PUSH1 0x0 DUP6 DUP2 MSTORE PUSH1 0x20 ADD SWAP1 DUP2 MSTORE PUSH1 0x20 ADD PUSH1 0x0 KECCAK256 DUP2 SWAP1 DUP1 PUSH1 0x1 DUP2 SLOAD ADD DUP1 DUP3 SSTORE DUP1 SWAP2 POP POP PUSH1 0x1 SWAP1 SUB SWAP1 PUSH1 0x0 MSTORE PUSH1 0x20 PUSH1 0x0 KECCAK256 ADD PUSH1 0x0 SWAP1 SWAP2 SWAP1 SWAP2 SWAP1 SWAP2 POP SSTORE PUSH1 0x7 PUSH1 0x2 ADD DUP4 PUSH1 0x40 MLOAD PUSH2 0x29BC SWAP2 SWAP1 PUSH2 0x45CF JUMP JUMPDEST SWAP1 DUP2 MSTORE PUSH1 0x20 ADD PUSH1 0x40 MLOAD DUP1 SWAP2 SUB SWAP1 KECCAK256 DUP2 SWAP1 DUP1 PUSH1 0x1 DUP2 SLOAD ADD DUP1 DUP3 SSTORE DUP1 SWAP2 POP POP PUSH1 0x1 SWAP1 SUB SWAP1 PUSH1 0x0 MSTORE PUSH1 0x20 PUSH1 0x0 KECCAK256 ADD PUSH1 0x0 SWAP1 SWAP2 SWAP1 SWAP2 SWAP1 SWAP2 POP SSTORE POP POP POP POP JUMP JUMPDEST PUSH1 0x0 PUSH1 0x7 PUSH1 0x1 ADD PUSH1 0x0 DUP6 DUP6 PUSH1 0x40 MLOAD PUSH1 0x20 ADD PUSH2 0x2A13 SWAP3 SWAP2 SWAP1 PUSH2 0x4617 JUMP JUMPDEST PUSH1 0x40 MLOAD PUSH1 0x20 DUP2 DUP4 SUB SUB DUP2 MSTORE SWAP1 PUSH1 0x40 MSTORE DUP1 MLOAD SWAP1 PUSH1 0x20 ADD KECCAK256 DUP2 MSTORE PUSH1 0x20 ADD SWAP1 DUP2 MSTORE PUSH1 0x20 ADD PUSH1 0x0 KECCAK256 SLOAD SWAP1 POP PUSH2 0x2A44 DUP2 DUP4 PUSH2 0x2A64 JUMP JUMPDEST POP POP POP POP JUMP JUMPDEST PUSH1 0x0 DUP1 PUSH2 0x2A57 DUP5 DUP5 PUSH2 0x2F0B JUMP JUMPDEST PUSH1 0x20 ADD MLOAD EQ SWAP1 POP SWAP3 SWAP2 POP POP JUMP JUMPDEST PUSH1 0x0 DUP3 EQ ISZERO PUSH2 0x2AA8 JUMPI PUSH1 0x40 MLOAD PUSH32 0x8C379A000000000000000000000000000000000000000000000000000000000 DUP2 MSTORE PUSH1 0x4 ADD PUSH2 0x2A9F SWAP1 PUSH2 0x48C3 JUMP JUMPDEST PUSH1 0x40 MLOAD DUP1 SWAP2 SUB SWAP1 REVERT JUMPDEST DUP1 PUSH1 0x7 PUSH1 0x0 ADD DUP4 DUP2 SLOAD DUP2 LT PUSH2 0x2AE6 JUMPI PUSH32 0x4E487B7100000000000000000000000000000000000000000000000000000000 PUSH1 0x0 MSTORE PUSH1 0x32 PUSH1 0x4 MSTORE PUSH1 0x24 PUSH1 0x0 REVERT JUMPDEST SWAP1 PUSH1 0x0 MSTORE PUSH1 0x20 PUSH1 0x0 KECCAK256 SWAP1 PUSH1 0x4 MUL ADD PUSH1 0x3 ADD PUSH1 0x0 PUSH2 0x100 EXP DUP2 SLOAD DUP2 PUSH1 0xFF MUL NOT AND SWAP1 DUP4 ISZERO ISZERO MUL OR SWAP1 SSTORE POP POP POP JUMP JUMPDEST PUSH2 0x2B20 DUP7 DUP7 DUP7 DUP7 DUP7 DUP7 PUSH2 0x3743 JUMP JUMPDEST PUSH1 0x0 PUSH20 0xFFFFFFFFFFFFFFFFFFFFFFFFFFFFFFFFFFFFFFFF AND DUP6 PUSH20 0xFFFFFFFFFFFFFFFFFFFFFFFFFFFFFFFFFFFFFFFF AND EQ ISZERO PUSH2 0x2C1E JUMPI PUSH1 0x0 JUMPDEST DUP4 MLOAD DUP2 LT ISZERO PUSH2 0x2C1C JUMPI DUP3 DUP2 DUP2 MLOAD DUP2 LT PUSH2 0x2B9A JUMPI PUSH32 0x4E487B7100000000000000000000000000000000000000000000000000000000 PUSH1 0x0 MSTORE PUSH1 0x32 PUSH1 0x4 MSTORE PUSH1 0x24 PUSH1 0x0 REVERT JUMPDEST PUSH1 0x20 MUL PUSH1 0x20 ADD ADD MLOAD PUSH1 0x3 PUSH1 0x0 DUP7 DUP5 DUP2 MLOAD DUP2 LT PUSH2 0x2BDF JUMPI PUSH32 0x4E487B7100000000000000000000000000000000000000000000000000000000 PUSH1 0x0 MSTORE PUSH1 0x32 PUSH1 0x4 MSTORE PUSH1 0x24 PUSH1 0x0 REVERT JUMPDEST PUSH1 0x20 MUL PUSH1 0x20 ADD ADD MLOAD DUP2 MSTORE PUSH1 0x20 ADD SWAP1 DUP2 MSTORE PUSH1 0x20 ADD PUSH1 0x0 KECCAK256 PUSH1 0x0 DUP3 DUP3 SLOAD PUSH2 0x2C04 SWAP2 SWAP1 PUSH2 0x4D38 JUMP JUMPDEST SWAP3 POP POP DUP2 SWAP1 SSTORE POP DUP1 PUSH2 0x2C15 SWAP1 PUSH2 0x4EDB JUMP JUMPDEST SWAP1 POP PUSH2 0x2B58 JUMP JUMPDEST POP JUMPDEST PUSH1 0x0 PUSH20 0xFFFFFFFFFFFFFFFFFFFFFFFFFFFFFFFFFFFFFFFF AND DUP5 PUSH20 0xFFFFFFFFFFFFFFFFFFFFFFFFFFFFFFFFFFFFFFFF AND EQ ISZERO PUSH2 0x2D1C JUMPI PUSH1 0x0 JUMPDEST DUP4 MLOAD DUP2 LT ISZERO PUSH2 0x2D1A JUMPI DUP3 DUP2 DUP2 MLOAD DUP2 LT PUSH2 0x2C98 JUMPI PUSH32 0x4E487B7100000000000000000000000000000000000000000000000000000000 PUSH1 0x0 MSTORE PUSH1 0x32 PUSH1 0x4 MSTORE PUSH1 0x24 PUSH1 0x0 REVERT JUMPDEST PUSH1 0x20 MUL PUSH1 0x20 ADD ADD MLOAD PUSH1 0x3 PUSH1 0x0 DUP7 DUP5 DUP2 MLOAD DUP2 LT PUSH2 0x2CDD JUMPI PUSH32 0x4E487B7100000000000000000000000000000000000000000000000000000000 PUSH1 0x0 MSTORE PUSH1 0x32 PUSH1 0x4 MSTORE PUSH1 0x24 PUSH1 0x0 REVERT JUMPDEST PUSH1 0x20 MUL PUSH1 0x20 ADD ADD MLOAD DUP2 MSTORE PUSH1 0x20 ADD SWAP1 DUP2 MSTORE PUSH1 0x20 ADD PUSH1 0x0 KECCAK256 PUSH1 0x0 DUP3 DUP3 SLOAD PUSH2 0x2D02 SWAP2 SWAP1 PUSH2 0x4D8E JUMP JUMPDEST SWAP3 POP POP DUP2 SWAP1 SSTORE POP DUP1 PUSH2 0x2D13 SWAP1 PUSH2 0x4EDB JUMP JUMPDEST SWAP1 POP PUSH2 0x2C56 JUMP JUMPDEST POP JUMPDEST POP POP POP POP POP POP JUMP JUMPDEST PUSH2 0x2D43 DUP5 PUSH20 0xFFFFFFFFFFFFFFFFFFFFFFFFFFFFFFFFFFFFFFFF AND PUSH2 0x374B JUMP JUMPDEST ISZERO PUSH2 0x2F03 JUMPI DUP4 PUSH20 0xFFFFFFFFFFFFFFFFFFFFFFFFFFFFFFFFFFFFFFFF AND PUSH4 0xBC197C81 DUP8 DUP8 DUP7 DUP7 DUP7 PUSH1 0x40 MLOAD DUP7 PUSH4 0xFFFFFFFF AND PUSH1 0xE0 SHL DUP2 MSTORE PUSH1 0x4 ADD PUSH2 0x2D89 SWAP6 SWAP5 SWAP4 SWAP3 SWAP2 SWAP1 PUSH2 0x465A JUMP JUMPDEST PUSH1 0x20 PUSH1 0x40 MLOAD DUP1 DUP4 SUB DUP2 PUSH1 0x0 DUP8 DUP1 EXTCODESIZE ISZERO DUP1 ISZERO PUSH2 0x2DA3 JUMPI PUSH1 0x0 DUP1 REVERT JUMPDEST POP GAS CALL SWAP3 POP POP POP DUP1 ISZERO PUSH2 0x2DD4 JUMPI POP PUSH1 0x40 MLOAD RETURNDATASIZE PUSH1 0x1F NOT PUSH1 0x1F DUP3 ADD AND DUP3 ADD DUP1 PUSH1 0x40 MSTORE POP DUP2 ADD SWAP1 PUSH2 0x2DD1 SWAP2 SWAP1 PUSH2 0x3E43 JUMP JUMPDEST PUSH1 0x1 JUMPDEST PUSH2 0x2E7A JUMPI PUSH2 0x2DE0 PUSH2 0x4FBB JUMP JUMPDEST DUP1 PUSH4 0x8C379A0 EQ ISZERO PUSH2 0x2E3D JUMPI POP PUSH2 0x2DF5 PUSH2 0x5879 JUMP JUMPDEST DUP1 PUSH2 0x2E00 JUMPI POP PUSH2 0x2E3F JUMP JUMPDEST DUP1 PUSH1 0x40 MLOAD PUSH32 0x8C379A000000000000000000000000000000000000000000000000000000000 DUP2 MSTORE PUSH1 0x4 ADD PUSH2 0x2E34 SWAP2 SWAP1 PUSH2 0x47B2 JUMP JUMPDEST PUSH1 0x40 MLOAD DUP1 SWAP2 SUB SWAP1 REVERT JUMPDEST POP JUMPDEST PUSH1 0x40 MLOAD PUSH32 0x8C379A000000000000000000000000000000000000000000000000000000000 DUP2 MSTORE PUSH1 0x4 ADD PUSH2 0x2E71 SWAP1 PUSH2 0x47D4 JUMP JUMPDEST PUSH1 0x40 MLOAD DUP1 SWAP2 SUB SWAP1 REVERT JUMPDEST PUSH4 0xBC197C81 PUSH1 0xE0 SHL PUSH28 0xFFFFFFFFFFFFFFFFFFFFFFFFFFFFFFFFFFFFFFFFFFFFFFFFFFFFFFFF NOT AND DUP2 PUSH28 0xFFFFFFFFFFFFFFFFFFFFFFFFFFFFFFFFFFFFFFFFFFFFFFFFFFFFFFFF NOT AND EQ PUSH2 0x2F01 JUMPI PUSH1 0x40 MLOAD PUSH32 0x8C379A000000000000000000000000000000000000000000000000000000000 DUP2 MSTORE PUSH1 0x4 ADD PUSH2 0x2EF8 SWAP1 PUSH2 0x47F4 JUMP JUMPDEST PUSH1 0x40 MLOAD DUP1 SWAP2 SUB SWAP1 REVERT JUMPDEST POP JUMPDEST POP POP POP POP POP POP JUMP JUMPDEST PUSH2 0x2F13 PUSH2 0x37E4 JUMP JUMPDEST DUP2 ISZERO PUSH2 0x2F5E JUMPI PUSH1 0x0 DUP4 EQ ISZERO PUSH2 0x2F5D JUMPI PUSH1 0x40 MLOAD PUSH32 0x8C379A000000000000000000000000000000000000000000000000000000000 DUP2 MSTORE PUSH1 0x4 ADD PUSH2 0x2F54 SWAP1 PUSH2 0x4963 JUMP JUMPDEST PUSH1 0x40 MLOAD DUP1 SWAP2 SUB SWAP1 REVERT JUMPDEST JUMPDEST PUSH1 0x7 PUSH1 0x0 ADD DUP4 DUP2 SLOAD DUP2 LT PUSH2 0x2F9B JUMPI PUSH32 0x4E487B7100000000000000000000000000000000000000000000000000000000 PUSH1 0x0 MSTORE PUSH1 0x32 PUSH1 0x4 MSTORE PUSH1 0x24 PUSH1 0x0 REVERT JUMPDEST SWAP1 PUSH1 0x0 MSTORE PUSH1 0x20 PUSH1 0x0 KECCAK256 SWAP1 PUSH1 0x4 MUL ADD PUSH1 0x40 MLOAD DUP1 PUSH1 0x80 ADD PUSH1 0x40 MSTORE SWAP1 DUP2 PUSH1 0x0 DUP3 ADD SLOAD DUP2 MSTORE PUSH1 0x20 ADD PUSH1 0x1 DUP3 ADD SLOAD DUP2 MSTORE PUSH1 0x20 ADD PUSH1 0x2 DUP3 ADD DUP1 SLOAD PUSH2 0x2FD8 SWAP1 PUSH2 0x4E78 JUMP JUMPDEST DUP1 PUSH1 0x1F ADD PUSH1 0x20 DUP1 SWAP2 DIV MUL PUSH1 0x20 ADD PUSH1 0x40 MLOAD SWAP1 DUP2 ADD PUSH1 0x40 MSTORE DUP1 SWAP3 SWAP2 SWAP1 DUP2 DUP2 MSTORE PUSH1 0x20 ADD DUP3 DUP1 SLOAD PUSH2 0x3004 SWAP1 PUSH2 0x4E78 JUMP JUMPDEST DUP1 ISZERO PUSH2 0x3051 JUMPI DUP1 PUSH1 0x1F LT PUSH2 0x3026 JUMPI PUSH2 0x100 DUP1 DUP4 SLOAD DIV MUL DUP4 MSTORE SWAP2 PUSH1 0x20 ADD SWAP2 PUSH2 0x3051 JUMP JUMPDEST DUP3 ADD SWAP2 SWAP1 PUSH1 0x0 MSTORE PUSH1 0x20 PUSH1 0x0 KECCAK256 SWAP1 JUMPDEST DUP2 SLOAD DUP2 MSTORE SWAP1 PUSH1 0x1 ADD SWAP1 PUSH1 0x20 ADD DUP1 DUP4 GT PUSH2 0x3034 JUMPI DUP3 SWAP1 SUB PUSH1 0x1F AND DUP3 ADD SWAP2 JUMPDEST POP POP POP POP POP DUP2 MSTORE PUSH1 0x20 ADD PUSH1 0x3 DUP3 ADD PUSH1 0x0 SWAP1 SLOAD SWAP1 PUSH2 0x100 EXP SWAP1 DIV PUSH1 0xFF AND ISZERO ISZERO ISZERO ISZERO DUP2 MSTORE POP POP SWAP1 POP SWAP3 SWAP2 POP POP JUMP JUMPDEST PUSH1 0x0 PUSH20 0xFFFFFFFFFFFFFFFFFFFFFFFFFFFFFFFFFFFFFFFF AND DUP5 PUSH20 0xFFFFFFFFFFFFFFFFFFFFFFFFFFFFFFFFFFFFFFFF AND EQ ISZERO PUSH2 0x30ED JUMPI PUSH1 0x40 MLOAD PUSH32 0x8C379A000000000000000000000000000000000000000000000000000000000 DUP2 MSTORE PUSH1 0x4 ADD PUSH2 0x30E4 SWAP1 PUSH2 0x4AC3 JUMP JUMPDEST PUSH1 0x40 MLOAD DUP1 SWAP2 SUB SWAP1 REVERT JUMPDEST PUSH1 0x0 PUSH2 0x30F7 PUSH2 0x18EF JUMP JUMPDEST SWAP1 POP PUSH2 0x3118 DUP2 PUSH1 0x0 DUP8 PUSH2 0x3109 DUP9 PUSH2 0x327F JUMP JUMPDEST PUSH2 0x3112 DUP9 PUSH2 0x327F JUMP JUMPDEST DUP8 PUSH2 0x2B12 JUMP JUMPDEST DUP3 PUSH1 0x0 DUP1 DUP7 DUP2 MSTORE PUSH1 0x20 ADD SWAP1 DUP2 MSTORE PUSH1 0x20 ADD PUSH1 0x0 KECCAK256 PUSH1 0x0 DUP8 PUSH20 0xFFFFFFFFFFFFFFFFFFFFFFFFFFFFFFFFFFFFFFFF AND PUSH20 0xFFFFFFFFFFFFFFFFFFFFFFFFFFFFFFFFFFFFFFFF AND DUP2 MSTORE PUSH1 0x20 ADD SWAP1 DUP2 MSTORE PUSH1 0x20 ADD PUSH1 0x0 KECCAK256 PUSH1 0x0 DUP3 DUP3 SLOAD PUSH2 0x3177 SWAP2 SWAP1 PUSH2 0x4D38 JUMP JUMPDEST SWAP3 POP POP DUP2 SWAP1 SSTORE POP DUP5 PUSH20 0xFFFFFFFFFFFFFFFFFFFFFFFFFFFFFFFFFFFFFFFF AND PUSH1 0x0 PUSH20 0xFFFFFFFFFFFFFFFFFFFFFFFFFFFFFFFFFFFFFFFF AND DUP3 PUSH20 0xFFFFFFFFFFFFFFFFFFFFFFFFFFFFFFFFFFFFFFFF AND PUSH32 0xC3D58168C5AE7397731D063D5BBF3D657854427343F4C083240F7AACAA2D0F62 DUP8 DUP8 PUSH1 0x40 MLOAD PUSH2 0x31F5 SWAP3 SWAP2 SWAP1 PUSH2 0x4B3E JUMP JUMPDEST PUSH1 0x40 MLOAD DUP1 SWAP2 SUB SWAP1 LOG4 PUSH2 0x320C DUP2 PUSH1 0x0 DUP8 DUP8 DUP8 DUP8 PUSH2 0x3345 JUMP JUMPDEST POP POP POP POP POP JUMP JUMPDEST PUSH2 0x321B PUSH2 0x37E4 JUMP JUMPDEST PUSH1 0x0 PUSH1 0x7 PUSH1 0x1 ADD PUSH1 0x0 DUP7 DUP7 PUSH1 0x40 MLOAD PUSH1 0x20 ADD PUSH2 0x3237 SWAP3 SWAP2 SWAP1 PUSH2 0x4617 JUMP JUMPDEST PUSH1 0x40 MLOAD PUSH1 0x20 DUP2 DUP4 SUB SUB DUP2 MSTORE SWAP1 PUSH1 0x40 MSTORE DUP1 MLOAD SWAP1 PUSH1 0x20 ADD KECCAK256 DUP2 MSTORE PUSH1 0x20 ADD SWAP1 DUP2 MSTORE PUSH1 0x20 ADD PUSH1 0x0 KECCAK256 SLOAD SWAP1 POP PUSH2 0x3268 DUP2 DUP5 PUSH2 0x2F0B JUMP JUMPDEST SWAP2 POP POP SWAP4 SWAP3 POP POP POP JUMP JUMPDEST PUSH1 0x0 DUP1 DUP3 EQ ISZERO SWAP1 POP SWAP2 SWAP1 POP JUMP JUMPDEST PUSH1 0x60 PUSH1 0x0 PUSH1 0x1 PUSH8 0xFFFFFFFFFFFFFFFF DUP2 GT ISZERO PUSH2 0x32C4 JUMPI PUSH32 0x4E487B7100000000000000000000000000000000000000000000000000000000 PUSH1 0x0 MSTORE PUSH1 0x41 PUSH1 0x4 MSTORE PUSH1 0x24 PUSH1 0x0 REVERT JUMPDEST PUSH1 0x40 MLOAD SWAP1 DUP1 DUP3 MSTORE DUP1 PUSH1 0x20 MUL PUSH1 0x20 ADD DUP3 ADD PUSH1 0x40 MSTORE DUP1 ISZERO PUSH2 0x32F2 JUMPI DUP2 PUSH1 0x20 ADD PUSH1 0x20 DUP3 MUL DUP1 CALLDATASIZE DUP4 CALLDATACOPY DUP1 DUP3 ADD SWAP2 POP POP SWAP1 POP JUMPDEST POP SWAP1 POP DUP3 DUP2 PUSH1 0x0 DUP2 MLOAD DUP2 LT PUSH2 0x3330 JUMPI PUSH32 0x4E487B7100000000000000000000000000000000000000000000000000000000 PUSH1 0x0 MSTORE PUSH1 0x32 PUSH1 0x4 MSTORE PUSH1 0x24 PUSH1 0x0 REVERT JUMPDEST PUSH1 0x20 MUL PUSH1 0x20 ADD ADD DUP2 DUP2 MSTORE POP POP DUP1 SWAP2 POP POP SWAP2 SWAP1 POP JUMP JUMPDEST PUSH2 0x3364 DUP5 PUSH20 0xFFFFFFFFFFFFFFFFFFFFFFFFFFFFFFFFFFFFFFFF AND PUSH2 0x374B JUMP JUMPDEST ISZERO PUSH2 0x3524 JUMPI DUP4 PUSH20 0xFFFFFFFFFFFFFFFFFFFFFFFFFFFFFFFFFFFFFFFF AND PUSH4 0xF23A6E61 DUP8 DUP8 DUP7 DUP7 DUP7 PUSH1 0x40 MLOAD DUP7 PUSH4 0xFFFFFFFF AND PUSH1 0xE0 SHL DUP2 MSTORE PUSH1 0x4 ADD PUSH2 0x33AA SWAP6 SWAP5 SWAP4 SWAP3 SWAP2 SWAP1 PUSH2 0x46C2 JUMP JUMPDEST PUSH1 0x20 PUSH1 0x40 MLOAD DUP1 DUP4 SUB DUP2 PUSH1 0x0 DUP8 DUP1 EXTCODESIZE ISZERO DUP1 ISZERO PUSH2 0x33C4 JUMPI PUSH1 0x0 DUP1 REVERT JUMPDEST POP GAS CALL SWAP3 POP POP POP DUP1 ISZERO PUSH2 0x33F5 JUMPI POP PUSH1 0x40 MLOAD RETURNDATASIZE PUSH1 0x1F NOT PUSH1 0x1F DUP3 ADD AND DUP3 ADD DUP1 PUSH1 0x40 MSTORE POP DUP2 ADD SWAP1 PUSH2 0x33F2 SWAP2 SWAP1 PUSH2 0x3E43 JUMP JUMPDEST PUSH1 0x1 JUMPDEST PUSH2 0x349B JUMPI PUSH2 0x3401 PUSH2 0x4FBB JUMP JUMPDEST DUP1 PUSH4 0x8C379A0 EQ ISZERO PUSH2 0x345E JUMPI POP PUSH2 0x3416 PUSH2 0x5879 JUMP JUMPDEST DUP1 PUSH2 0x3421 JUMPI POP PUSH2 0x3460 JUMP JUMPDEST DUP1 PUSH1 0x40 MLOAD PUSH32 0x8C379A000000000000000000000000000000000000000000000000000000000 DUP2 MSTORE PUSH1 0x4 ADD PUSH2 0x3455 SWAP2 SWAP1 PUSH2 0x47B2 JUMP JUMPDEST PUSH1 0x40 MLOAD DUP1 SWAP2 SUB SWAP1 REVERT JUMPDEST POP JUMPDEST PUSH1 0x40 MLOAD PUSH32 0x8C379A000000000000000000000000000000000000000000000000000000000 DUP2 MSTORE PUSH1 0x4 ADD PUSH2 0x3492 SWAP1 PUSH2 0x47D4 JUMP JUMPDEST PUSH1 0x40 MLOAD DUP1 SWAP2 SUB SWAP1 REVERT JUMPDEST PUSH4 0xF23A6E61 PUSH1 0xE0 SHL PUSH28 0xFFFFFFFFFFFFFFFFFFFFFFFFFFFFFFFFFFFFFFFFFFFFFFFFFFFFFFFF NOT AND DUP2 PUSH28 0xFFFFFFFFFFFFFFFFFFFFFFFFFFFFFFFFFFFFFFFFFFFFFFFFFFFFFFFF NOT AND EQ PUSH2 0x3522 JUMPI PUSH1 0x40 MLOAD PUSH32 0x8C379A000000000000000000000000000000000000000000000000000000000 DUP2 MSTORE PUSH1 0x4 ADD PUSH2 0x3519 SWAP1 PUSH2 0x47F4 JUMP JUMPDEST PUSH1 0x40 MLOAD DUP1 SWAP2 SUB SWAP1 REVERT JUMPDEST POP JUMPDEST POP POP POP POP POP POP JUMP JUMPDEST PUSH1 0x0 DUP1 PUSH1 0x7 PUSH1 0x0 ADD DUP1 SLOAD SWAP1 POP EQ ISZERO PUSH2 0x3614 JUMPI PUSH1 0x40 MLOAD DUP1 PUSH1 0x80 ADD PUSH1 0x40 MSTORE DUP1 PUSH1 0x0 DUP2 MSTORE PUSH1 0x20 ADD PUSH1 0x0 DUP2 MSTORE PUSH1 0x20 ADD PUSH1 0x40 MLOAD DUP1 PUSH1 0x20 ADD PUSH1 0x40 MSTORE DUP1 PUSH1 0x0 DUP2 MSTORE POP DUP2 MSTORE PUSH1 0x20 ADD PUSH1 0x0 ISZERO ISZERO DUP2 MSTORE POP PUSH1 0x7 PUSH1 0x0 ADD PUSH1 0x0 DUP2 SLOAD DUP2 LT PUSH2 0x35B1 JUMPI PUSH32 0x4E487B7100000000000000000000000000000000000000000000000000000000 PUSH1 0x0 MSTORE PUSH1 0x32 PUSH1 0x4 MSTORE PUSH1 0x24 PUSH1 0x0 REVERT JUMPDEST SWAP1 PUSH1 0x0 MSTORE PUSH1 0x20 PUSH1 0x0 KECCAK256 SWAP1 PUSH1 0x4 MUL ADD PUSH1 0x0 DUP3 ADD MLOAD DUP2 PUSH1 0x0 ADD SSTORE PUSH1 0x20 DUP3 ADD MLOAD DUP2 PUSH1 0x1 ADD SSTORE PUSH1 0x40 DUP3 ADD MLOAD DUP2 PUSH1 0x2 ADD SWAP1 DUP1 MLOAD SWAP1 PUSH1 0x20 ADD SWAP1 PUSH2 0x35EF SWAP3 SWAP2 SWAP1 PUSH2 0x375E JUMP JUMPDEST POP PUSH1 0x60 DUP3 ADD MLOAD DUP2 PUSH1 0x3 ADD PUSH1 0x0 PUSH2 0x100 EXP DUP2 SLOAD DUP2 PUSH1 0xFF MUL NOT AND SWAP1 DUP4 ISZERO ISZERO MUL OR SWAP1 SSTORE POP SWAP1 POP POP JUMPDEST PUSH1 0x40 MLOAD DUP1 PUSH1 0x20 ADD PUSH1 0x40 MSTORE DUP1 PUSH1 0x0 DUP2 MSTORE POP DUP1 MLOAD SWAP1 PUSH1 0x20 ADD KECCAK256 DUP4 DUP1 MLOAD SWAP1 PUSH1 0x20 ADD KECCAK256 EQ PUSH2 0x3673 JUMPI PUSH1 0x40 MLOAD PUSH32 0x8C379A000000000000000000000000000000000000000000000000000000000 DUP2 MSTORE PUSH1 0x4 ADD PUSH2 0x366A SWAP1 PUSH2 0x49E3 JUMP JUMPDEST PUSH1 0x40 MLOAD DUP1 SWAP2 SUB SWAP1 REVERT JUMPDEST PUSH1 0x0 PUSH1 0x40 MLOAD DUP1 PUSH1 0x80 ADD PUSH1 0x40 MSTORE DUP1 PUSH1 0x7 PUSH1 0x0 ADD DUP1 SLOAD SWAP1 POP DUP2 MSTORE PUSH1 0x20 ADD DUP7 DUP2 MSTORE PUSH1 0x20 ADD DUP6 DUP2 MSTORE PUSH1 0x20 ADD DUP5 ISZERO ISZERO DUP2 MSTORE POP SWAP1 POP PUSH1 0x7 PUSH1 0x0 ADD DUP2 SWAP1 DUP1 PUSH1 0x1 DUP2 SLOAD ADD DUP1 DUP3 SSTORE DUP1 SWAP2 POP POP PUSH1 0x1 SWAP1 SUB SWAP1 PUSH1 0x0 MSTORE PUSH1 0x20 PUSH1 0x0 KECCAK256 SWAP1 PUSH1 0x4 MUL ADD PUSH1 0x0 SWAP1 SWAP2 SWAP1 SWAP2 SWAP1 SWAP2 POP PUSH1 0x0 DUP3 ADD MLOAD DUP2 PUSH1 0x0 ADD SSTORE PUSH1 0x20 DUP3 ADD MLOAD DUP2 PUSH1 0x1 ADD SSTORE PUSH1 0x40 DUP3 ADD MLOAD DUP2 PUSH1 0x2 ADD SWAP1 DUP1 MLOAD SWAP1 PUSH1 0x20 ADD SWAP1 PUSH2 0x3701 SWAP3 SWAP2 SWAP1 PUSH2 0x375E JUMP JUMPDEST POP PUSH1 0x60 DUP3 ADD MLOAD DUP2 PUSH1 0x3 ADD PUSH1 0x0 PUSH2 0x100 EXP DUP2 SLOAD DUP2 PUSH1 0xFF MUL NOT AND SWAP1 DUP4 ISZERO ISZERO MUL OR SWAP1 SSTORE POP POP POP PUSH1 0x1 PUSH1 0x7 PUSH1 0x0 ADD DUP1 SLOAD SWAP1 POP PUSH2 0x3739 SWAP2 SWAP1 PUSH2 0x4D8E JUMP JUMPDEST SWAP2 POP POP SWAP4 SWAP3 POP POP POP JUMP JUMPDEST POP POP POP POP POP POP JUMP JUMPDEST PUSH1 0x0 DUP1 DUP3 EXTCODESIZE SWAP1 POP PUSH1 0x0 DUP2 GT SWAP2 POP POP SWAP2 SWAP1 POP JUMP JUMPDEST DUP3 DUP1 SLOAD PUSH2 0x376A SWAP1 PUSH2 0x4E78 JUMP JUMPDEST SWAP1 PUSH1 0x0 MSTORE PUSH1 0x20 PUSH1 0x0 KECCAK256 SWAP1 PUSH1 0x1F ADD PUSH1 0x20 SWAP1 DIV DUP2 ADD SWAP3 DUP3 PUSH2 0x378C JUMPI PUSH1 0x0 DUP6 SSTORE PUSH2 0x37D3 JUMP JUMPDEST DUP3 PUSH1 0x1F LT PUSH2 0x37A5 JUMPI DUP1 MLOAD PUSH1 0xFF NOT AND DUP4 DUP1 ADD OR DUP6 SSTORE PUSH2 0x37D3 JUMP JUMPDEST DUP3 DUP1 ADD PUSH1 0x1 ADD DUP6 SSTORE DUP3 ISZERO PUSH2 0x37D3 JUMPI SWAP2 DUP3 ADD JUMPDEST DUP3 DUP2 GT ISZERO PUSH2 0x37D2 JUMPI DUP3 MLOAD DUP3 SSTORE SWAP2 PUSH1 0x20 ADD SWAP2 SWAP1 PUSH1 0x1 ADD SWAP1 PUSH2 0x37B7 JUMP JUMPDEST JUMPDEST POP SWAP1 POP PUSH2 0x37E0 SWAP2 SWAP1 PUSH2 0x380E JUMP JUMPDEST POP SWAP1 JUMP JUMPDEST PUSH1 0x40 MLOAD DUP1 PUSH1 0x80 ADD PUSH1 0x40 MSTORE DUP1 PUSH1 0x0 DUP2 MSTORE PUSH1 0x20 ADD PUSH1 0x0 DUP2 MSTORE PUSH1 0x20 ADD PUSH1 0x60 DUP2 MSTORE PUSH1 0x20 ADD PUSH1 0x0 ISZERO ISZERO DUP2 MSTORE POP SWAP1 JUMP JUMPDEST JUMPDEST DUP1 DUP3 GT ISZERO PUSH2 0x3827 JUMPI PUSH1 0x0 DUP2 PUSH1 0x0 SWAP1 SSTORE POP PUSH1 0x1 ADD PUSH2 0x380F JUMP JUMPDEST POP SWAP1 JUMP JUMPDEST PUSH1 0x0 PUSH2 0x383E PUSH2 0x3839 DUP5 PUSH2 0x4B8C JUMP JUMPDEST PUSH2 0x4B67 JUMP JUMPDEST SWAP1 POP DUP1 DUP4 DUP3 MSTORE PUSH1 0x20 DUP3 ADD SWAP1 POP DUP3 DUP6 PUSH1 0x20 DUP7 MUL DUP3 ADD GT ISZERO PUSH2 0x385D JUMPI PUSH1 0x0 DUP1 REVERT JUMPDEST PUSH1 0x0 JUMPDEST DUP6 DUP2 LT ISZERO PUSH2 0x388D JUMPI DUP2 PUSH2 0x3873 DUP9 DUP3 PUSH2 0x39DC JUMP JUMPDEST DUP5 MSTORE PUSH1 0x20 DUP5 ADD SWAP4 POP PUSH1 0x20 DUP4 ADD SWAP3 POP POP PUSH1 0x1 DUP2 ADD SWAP1 POP PUSH2 0x3860 JUMP JUMPDEST POP POP POP SWAP4 SWAP3 POP POP POP JUMP JUMPDEST PUSH1 0x0 PUSH2 0x38AA PUSH2 0x38A5 DUP5 PUSH2 0x4BB8 JUMP JUMPDEST PUSH2 0x4B67 JUMP JUMPDEST SWAP1 POP DUP1 DUP4 DUP3 MSTORE PUSH1 0x20 DUP3 ADD SWAP1 POP DUP3 PUSH1 0x0 JUMPDEST DUP6 DUP2 LT ISZERO PUSH2 0x38EA JUMPI DUP2 CALLDATALOAD DUP6 ADD PUSH2 0x38D0 DUP9 DUP3 PUSH2 0x3AD8 JUMP JUMPDEST DUP5 MSTORE PUSH1 0x20 DUP5 ADD SWAP4 POP PUSH1 0x20 DUP4 ADD SWAP3 POP POP PUSH1 0x1 DUP2 ADD SWAP1 POP PUSH2 0x38BA JUMP JUMPDEST POP POP POP SWAP4 SWAP3 POP POP POP JUMP JUMPDEST PUSH1 0x0 PUSH2 0x3907 PUSH2 0x3902 DUP5 PUSH2 0x4BE4 JUMP JUMPDEST PUSH2 0x4B67 JUMP JUMPDEST SWAP1 POP DUP1 DUP4 DUP3 MSTORE PUSH1 0x20 DUP3 ADD SWAP1 POP DUP3 DUP6 PUSH1 0x20 DUP7 MUL DUP3 ADD GT ISZERO PUSH2 0x3926 JUMPI PUSH1 0x0 DUP1 REVERT JUMPDEST PUSH1 0x0 JUMPDEST DUP6 DUP2 LT ISZERO PUSH2 0x3956 JUMPI DUP2 PUSH2 0x393C DUP9 DUP3 PUSH2 0x3B02 JUMP JUMPDEST DUP5 MSTORE PUSH1 0x20 DUP5 ADD SWAP4 POP PUSH1 0x20 DUP4 ADD SWAP3 POP POP PUSH1 0x1 DUP2 ADD SWAP1 POP PUSH2 0x3929 JUMP JUMPDEST POP POP POP SWAP4 SWAP3 POP POP POP JUMP JUMPDEST PUSH1 0x0 PUSH2 0x3973 PUSH2 0x396E DUP5 PUSH2 0x4C10 JUMP JUMPDEST PUSH2 0x4B67 JUMP JUMPDEST SWAP1 POP DUP3 DUP2 MSTORE PUSH1 0x20 DUP2 ADD DUP5 DUP5 DUP5 ADD GT ISZERO PUSH2 0x398B JUMPI PUSH1 0x0 DUP1 REVERT JUMPDEST PUSH2 0x3996 DUP5 DUP3 DUP6 PUSH2 0x4E36 JUMP JUMPDEST POP SWAP4 SWAP3 POP POP POP JUMP JUMPDEST PUSH1 0x0 PUSH2 0x39B1 PUSH2 0x39AC DUP5 PUSH2 0x4C41 JUMP JUMPDEST PUSH2 0x4B67 JUMP JUMPDEST SWAP1 POP DUP3 DUP2 MSTORE PUSH1 0x20 DUP2 ADD DUP5 DUP5 DUP5 ADD GT ISZERO PUSH2 0x39C9 JUMPI PUSH1 0x0 DUP1 REVERT JUMPDEST PUSH2 0x39D4 DUP5 DUP3 DUP6 PUSH2 0x4E36 JUMP JUMPDEST POP SWAP4 SWAP3 POP POP POP JUMP JUMPDEST PUSH1 0x0 DUP2 CALLDATALOAD SWAP1 POP PUSH2 0x39EB DUP2 PUSH2 0x590F JUMP JUMPDEST SWAP3 SWAP2 POP POP JUMP JUMPDEST PUSH1 0x0 DUP3 PUSH1 0x1F DUP4 ADD SLT PUSH2 0x3A02 JUMPI PUSH1 0x0 DUP1 REVERT JUMPDEST DUP2 CALLDATALOAD PUSH2 0x3A12 DUP5 DUP3 PUSH1 0x20 DUP7 ADD PUSH2 0x382B JUMP JUMPDEST SWAP2 POP POP SWAP3 SWAP2 POP POP JUMP JUMPDEST PUSH1 0x0 DUP3 PUSH1 0x1F DUP4 ADD SLT PUSH2 0x3A2C JUMPI PUSH1 0x0 DUP1 REVERT JUMPDEST DUP2 CALLDATALOAD PUSH2 0x3A3C DUP5 DUP3 PUSH1 0x20 DUP7 ADD PUSH2 0x3897 JUMP JUMPDEST SWAP2 POP POP SWAP3 SWAP2 POP POP JUMP JUMPDEST PUSH1 0x0 DUP3 PUSH1 0x1F DUP4 ADD SLT PUSH2 0x3A56 JUMPI PUSH1 0x0 DUP1 REVERT JUMPDEST DUP2 CALLDATALOAD PUSH2 0x3A66 DUP5 DUP3 PUSH1 0x20 DUP7 ADD PUSH2 0x38F4 JUMP JUMPDEST SWAP2 POP POP SWAP3 SWAP2 POP POP JUMP JUMPDEST PUSH1 0x0 DUP2 CALLDATALOAD SWAP1 POP PUSH2 0x3A7E DUP2 PUSH2 0x5926 JUMP JUMPDEST SWAP3 SWAP2 POP POP JUMP JUMPDEST PUSH1 0x0 DUP2 CALLDATALOAD SWAP1 POP PUSH2 0x3A93 DUP2 PUSH2 0x593D JUMP JUMPDEST SWAP3 SWAP2 POP POP JUMP JUMPDEST PUSH1 0x0 DUP2 MLOAD SWAP1 POP PUSH2 0x3AA8 DUP2 PUSH2 0x593D JUMP JUMPDEST SWAP3 SWAP2 POP POP JUMP JUMPDEST PUSH1 0x0 DUP3 PUSH1 0x1F DUP4 ADD SLT PUSH2 0x3ABF JUMPI PUSH1 0x0 DUP1 REVERT JUMPDEST DUP2 CALLDATALOAD PUSH2 0x3ACF DUP5 DUP3 PUSH1 0x20 DUP7 ADD PUSH2 0x3960 JUMP JUMPDEST SWAP2 POP POP SWAP3 SWAP2 POP POP JUMP JUMPDEST PUSH1 0x0 DUP3 PUSH1 0x1F DUP4 ADD SLT PUSH2 0x3AE9 JUMPI PUSH1 0x0 DUP1 REVERT JUMPDEST DUP2 CALLDATALOAD PUSH2 0x3AF9 DUP5 DUP3 PUSH1 0x20 DUP7 ADD PUSH2 0x399E JUMP JUMPDEST SWAP2 POP POP SWAP3 SWAP2 POP POP JUMP JUMPDEST PUSH1 0x0 DUP2 CALLDATALOAD SWAP1 POP PUSH2 0x3B11 DUP2 PUSH2 0x5954 JUMP JUMPDEST SWAP3 SWAP2 POP POP JUMP JUMPDEST PUSH1 0x0 PUSH1 0x20 DUP3 DUP5 SUB SLT ISZERO PUSH2 0x3B29 JUMPI PUSH1 0x0 DUP1 REVERT JUMPDEST PUSH1 0x0 PUSH2 0x3B37 DUP5 DUP3 DUP6 ADD PUSH2 0x39DC JUMP JUMPDEST SWAP2 POP POP SWAP3 SWAP2 POP POP JUMP JUMPDEST PUSH1 0x0 DUP1 PUSH1 0x40 DUP4 DUP6 SUB SLT ISZERO PUSH2 0x3B53 JUMPI PUSH1 0x0 DUP1 REVERT JUMPDEST PUSH1 0x0 PUSH2 0x3B61 DUP6 DUP3 DUP7 ADD PUSH2 0x39DC JUMP JUMPDEST SWAP3 POP POP PUSH1 0x20 PUSH2 0x3B72 DUP6 DUP3 DUP7 ADD PUSH2 0x39DC JUMP JUMPDEST SWAP2 POP POP SWAP3 POP SWAP3 SWAP1 POP JUMP JUMPDEST PUSH1 0x0 DUP1 PUSH1 0x0 DUP1 PUSH1 0x0 PUSH1 0xA0 DUP7 DUP9 SUB SLT ISZERO PUSH2 0x3B94 JUMPI PUSH1 0x0 DUP1 REVERT JUMPDEST PUSH1 0x0 PUSH2 0x3BA2 DUP9 DUP3 DUP10 ADD PUSH2 0x39DC JUMP JUMPDEST SWAP6 POP POP PUSH1 0x20 PUSH2 0x3BB3 DUP9 DUP3 DUP10 ADD PUSH2 0x39DC JUMP JUMPDEST SWAP5 POP POP PUSH1 0x40 DUP7 ADD CALLDATALOAD PUSH8 0xFFFFFFFFFFFFFFFF DUP2 GT ISZERO PUSH2 0x3BD0 JUMPI PUSH1 0x0 DUP1 REVERT JUMPDEST PUSH2 0x3BDC DUP9 DUP3 DUP10 ADD PUSH2 0x3A45 JUMP JUMPDEST SWAP4 POP POP PUSH1 0x60 DUP7 ADD CALLDATALOAD PUSH8 0xFFFFFFFFFFFFFFFF DUP2 GT ISZERO PUSH2 0x3BF9 JUMPI PUSH1 0x0 DUP1 REVERT JUMPDEST PUSH2 0x3C05 DUP9 DUP3 DUP10 ADD PUSH2 0x3A45 JUMP JUMPDEST SWAP3 POP POP PUSH1 0x80 DUP7 ADD CALLDATALOAD PUSH8 0xFFFFFFFFFFFFFFFF DUP2 GT ISZERO PUSH2 0x3C22 JUMPI PUSH1 0x0 DUP1 REVERT JUMPDEST PUSH2 0x3C2E DUP9 DUP3 DUP10 ADD PUSH2 0x3AAE JUMP JUMPDEST SWAP2 POP POP SWAP3 SWAP6 POP SWAP3 SWAP6 SWAP1 SWAP4 POP JUMP JUMPDEST PUSH1 0x0 DUP1 PUSH1 0x0 DUP1 PUSH1 0x0 PUSH1 0xA0 DUP7 DUP9 SUB SLT ISZERO PUSH2 0x3C53 JUMPI PUSH1 0x0 DUP1 REVERT JUMPDEST PUSH1 0x0 PUSH2 0x3C61 DUP9 DUP3 DUP10 ADD PUSH2 0x39DC JUMP JUMPDEST SWAP6 POP POP PUSH1 0x20 PUSH2 0x3C72 DUP9 DUP3 DUP10 ADD PUSH2 0x39DC JUMP JUMPDEST SWAP5 POP POP PUSH1 0x40 PUSH2 0x3C83 DUP9 DUP3 DUP10 ADD PUSH2 0x3B02 JUMP JUMPDEST SWAP4 POP POP PUSH1 0x60 PUSH2 0x3C94 DUP9 DUP3 DUP10 ADD PUSH2 0x3B02 JUMP JUMPDEST SWAP3 POP POP PUSH1 0x80 DUP7 ADD CALLDATALOAD PUSH8 0xFFFFFFFFFFFFFFFF DUP2 GT ISZERO PUSH2 0x3CB1 JUMPI PUSH1 0x0 DUP1 REVERT JUMPDEST PUSH2 0x3CBD DUP9 DUP3 DUP10 ADD PUSH2 0x3AAE JUMP JUMPDEST SWAP2 POP POP SWAP3 SWAP6 POP SWAP3 SWAP6 SWAP1 SWAP4 POP JUMP JUMPDEST PUSH1 0x0 DUP1 PUSH1 0x40 DUP4 DUP6 SUB SLT ISZERO PUSH2 0x3CDD JUMPI PUSH1 0x0 DUP1 REVERT JUMPDEST PUSH1 0x0 PUSH2 0x3CEB DUP6 DUP3 DUP7 ADD PUSH2 0x39DC JUMP JUMPDEST SWAP3 POP POP PUSH1 0x20 PUSH2 0x3CFC DUP6 DUP3 DUP7 ADD PUSH2 0x3A6F JUMP JUMPDEST SWAP2 POP POP SWAP3 POP SWAP3 SWAP1 POP JUMP JUMPDEST PUSH1 0x0 DUP1 PUSH1 0x40 DUP4 DUP6 SUB SLT ISZERO PUSH2 0x3D19 JUMPI PUSH1 0x0 DUP1 REVERT JUMPDEST PUSH1 0x0 PUSH2 0x3D27 DUP6 DUP3 DUP7 ADD PUSH2 0x39DC JUMP JUMPDEST SWAP3 POP POP PUSH1 0x20 PUSH2 0x3D38 DUP6 DUP3 DUP7 ADD PUSH2 0x3B02 JUMP JUMPDEST SWAP2 POP POP SWAP3 POP SWAP3 SWAP1 POP JUMP JUMPDEST PUSH1 0x0 DUP1 PUSH1 0x40 DUP4 DUP6 SUB SLT ISZERO PUSH2 0x3D55 JUMPI PUSH1 0x0 DUP1 REVERT JUMPDEST PUSH1 0x0 DUP4 ADD CALLDATALOAD PUSH8 0xFFFFFFFFFFFFFFFF DUP2 GT ISZERO PUSH2 0x3D6F JUMPI PUSH1 0x0 DUP1 REVERT JUMPDEST PUSH2 0x3D7B DUP6 DUP3 DUP7 ADD PUSH2 0x39F1 JUMP JUMPDEST SWAP3 POP POP PUSH1 0x20 DUP4 ADD CALLDATALOAD PUSH8 0xFFFFFFFFFFFFFFFF DUP2 GT ISZERO PUSH2 0x3D98 JUMPI PUSH1 0x0 DUP1 REVERT JUMPDEST PUSH2 0x3DA4 DUP6 DUP3 DUP7 ADD PUSH2 0x3A45 JUMP JUMPDEST SWAP2 POP POP SWAP3 POP SWAP3 SWAP1 POP JUMP JUMPDEST PUSH1 0x0 DUP1 PUSH1 0x40 DUP4 DUP6 SUB SLT ISZERO PUSH2 0x3DC1 JUMPI PUSH1 0x0 DUP1 REVERT JUMPDEST PUSH1 0x0 DUP4 ADD CALLDATALOAD PUSH8 0xFFFFFFFFFFFFFFFF DUP2 GT ISZERO PUSH2 0x3DDB JUMPI PUSH1 0x0 DUP1 REVERT JUMPDEST PUSH2 0x3DE7 DUP6 DUP3 DUP7 ADD PUSH2 0x3A45 JUMP JUMPDEST SWAP3 POP POP PUSH1 0x20 DUP4 ADD CALLDATALOAD PUSH8 0xFFFFFFFFFFFFFFFF DUP2 GT ISZERO PUSH2 0x3E04 JUMPI PUSH1 0x0 DUP1 REVERT JUMPDEST PUSH2 0x3E10 DUP6 DUP3 DUP7 ADD PUSH2 0x3A1B JUMP JUMPDEST SWAP2 POP POP SWAP3 POP SWAP3 SWAP1 POP JUMP JUMPDEST PUSH1 0x0 PUSH1 0x20 DUP3 DUP5 SUB SLT ISZERO PUSH2 0x3E2C JUMPI PUSH1 0x0 DUP1 REVERT JUMPDEST PUSH1 0x0 PUSH2 0x3E3A DUP5 DUP3 DUP6 ADD PUSH2 0x3A84 JUMP JUMPDEST SWAP2 POP POP SWAP3 SWAP2 POP POP JUMP JUMPDEST PUSH1 0x0 PUSH1 0x20 DUP3 DUP5 SUB SLT ISZERO PUSH2 0x3E55 JUMPI PUSH1 0x0 DUP1 REVERT JUMPDEST PUSH1 0x0 PUSH2 0x3E63 DUP5 DUP3 DUP6 ADD PUSH2 0x3A99 JUMP JUMPDEST SWAP2 POP POP SWAP3 SWAP2 POP POP JUMP JUMPDEST PUSH1 0x0 PUSH1 0x20 DUP3 DUP5 SUB SLT ISZERO PUSH2 0x3E7E JUMPI PUSH1 0x0 DUP1 REVERT JUMPDEST PUSH1 0x0 DUP3 ADD CALLDATALOAD PUSH8 0xFFFFFFFFFFFFFFFF DUP2 GT ISZERO PUSH2 0x3E98 JUMPI PUSH1 0x0 DUP1 REVERT JUMPDEST PUSH2 0x3EA4 DUP5 DUP3 DUP6 ADD PUSH2 0x3AD8 JUMP JUMPDEST SWAP2 POP POP SWAP3 SWAP2 POP POP JUMP JUMPDEST PUSH1 0x0 DUP1 PUSH1 0x0 PUSH1 0x60 DUP5 DUP7 SUB SLT ISZERO PUSH2 0x3EC2 JUMPI PUSH1 0x0 DUP1 REVERT JUMPDEST PUSH1 0x0 DUP5 ADD CALLDATALOAD PUSH8 0xFFFFFFFFFFFFFFFF DUP2 GT ISZERO PUSH2 0x3EDC JUMPI PUSH1 0x0 DUP1 REVERT JUMPDEST PUSH2 0x3EE8 DUP7 DUP3 DUP8 ADD PUSH2 0x3AD8 JUMP JUMPDEST SWAP4 POP POP PUSH1 0x20 PUSH2 0x3EF9 DUP7 DUP3 DUP8 ADD PUSH2 0x39DC JUMP JUMPDEST SWAP3 POP POP PUSH1 0x40 PUSH2 0x3F0A DUP7 DUP3 DUP8 ADD PUSH2 0x3B02 JUMP JUMPDEST SWAP2 POP POP SWAP3 POP SWAP3 POP SWAP3 JUMP JUMPDEST PUSH1 0x0 PUSH1 0x20 DUP3 DUP5 SUB SLT ISZERO PUSH2 0x3F26 JUMPI PUSH1 0x0 DUP1 REVERT JUMPDEST PUSH1 0x0 PUSH2 0x3F34 DUP5 DUP3 DUP6 ADD PUSH2 0x3B02 JUMP JUMPDEST SWAP2 POP POP SWAP3 SWAP2 POP POP JUMP JUMPDEST PUSH1 0x0 DUP1 PUSH1 0x40 DUP4 DUP6 SUB SLT ISZERO PUSH2 0x3F50 JUMPI PUSH1 0x0 DUP1 REVERT JUMPDEST PUSH1 0x0 PUSH2 0x3F5E DUP6 DUP3 DUP7 ADD PUSH2 0x3B02 JUMP JUMPDEST SWAP3 POP POP PUSH1 0x20 PUSH2 0x3F6F DUP6 DUP3 DUP7 ADD PUSH2 0x3A6F JUMP JUMPDEST SWAP2 POP POP SWAP3 POP SWAP3 SWAP1 POP JUMP JUMPDEST PUSH1 0x0 DUP1 PUSH1 0x40 DUP4 DUP6 SUB SLT ISZERO PUSH2 0x3F8C JUMPI PUSH1 0x0 DUP1 REVERT JUMPDEST PUSH1 0x0 PUSH2 0x3F9A DUP6 DUP3 DUP7 ADD PUSH2 0x3B02 JUMP JUMPDEST SWAP3 POP POP PUSH1 0x20 DUP4 ADD CALLDATALOAD PUSH8 0xFFFFFFFFFFFFFFFF DUP2 GT ISZERO PUSH2 0x3FB7 JUMPI PUSH1 0x0 DUP1 REVERT JUMPDEST PUSH2 0x3FC3 DUP6 DUP3 DUP7 ADD PUSH2 0x3AD8 JUMP JUMPDEST SWAP2 POP POP SWAP3 POP SWAP3 SWAP1 POP JUMP JUMPDEST PUSH1 0x0 PUSH2 0x3FD9 DUP4 DUP4 PUSH2 0x4123 JUMP JUMPDEST SWAP1 POP SWAP3 SWAP2 POP POP JUMP JUMPDEST PUSH1 0x0 PUSH2 0x3FED DUP4 DUP4 PUSH2 0x459A JUMP JUMPDEST PUSH1 0x20 DUP4 ADD SWAP1 POP SWAP3 SWAP2 POP POP JUMP JUMPDEST PUSH2 0x4002 DUP2 PUSH2 0x4DC2 JUMP JUMPDEST DUP3 MSTORE POP POP JUMP JUMPDEST PUSH1 0x0 PUSH2 0x4013 DUP3 PUSH2 0x4C92 JUMP JUMPDEST PUSH2 0x401D DUP2 DUP6 PUSH2 0x4CD8 JUMP JUMPDEST SWAP4 POP DUP4 PUSH1 0x20 DUP3 MUL DUP6 ADD PUSH2 0x402F DUP6 PUSH2 0x4C72 JUMP JUMPDEST DUP1 PUSH1 0x0 JUMPDEST DUP6 DUP2 LT ISZERO PUSH2 0x406B JUMPI DUP5 DUP5 SUB DUP10 MSTORE DUP2 MLOAD PUSH2 0x404C DUP6 DUP3 PUSH2 0x3FCD JUMP JUMPDEST SWAP5 POP PUSH2 0x4057 DUP4 PUSH2 0x4CBE JUMP JUMPDEST SWAP3 POP PUSH1 0x20 DUP11 ADD SWAP10 POP POP PUSH1 0x1 DUP2 ADD SWAP1 POP PUSH2 0x4033 JUMP JUMPDEST POP DUP3 SWAP8 POP DUP8 SWAP6 POP POP POP POP POP POP SWAP3 SWAP2 POP POP JUMP JUMPDEST PUSH1 0x0 PUSH2 0x4088 DUP3 PUSH2 0x4C9D JUMP JUMPDEST PUSH2 0x4092 DUP2 DUP6 PUSH2 0x4CE9 JUMP JUMPDEST SWAP4 POP PUSH2 0x409D DUP4 PUSH2 0x4C82 JUMP JUMPDEST DUP1 PUSH1 0x0 JUMPDEST DUP4 DUP2 LT ISZERO PUSH2 0x40CE JUMPI DUP2 MLOAD PUSH2 0x40B5 DUP9 DUP3 PUSH2 0x3FE1 JUMP JUMPDEST SWAP8 POP PUSH2 0x40C0 DUP4 PUSH2 0x4CCB JUMP JUMPDEST SWAP3 POP POP PUSH1 0x1 DUP2 ADD SWAP1 POP PUSH2 0x40A1 JUMP JUMPDEST POP DUP6 SWAP4 POP POP POP POP SWAP3 SWAP2 POP POP JUMP JUMPDEST PUSH2 0x40E4 DUP2 PUSH2 0x4DD4 JUMP JUMPDEST DUP3 MSTORE POP POP JUMP JUMPDEST PUSH1 0x0 PUSH2 0x40F5 DUP3 PUSH2 0x4CA8 JUMP JUMPDEST PUSH2 0x40FF DUP2 DUP6 PUSH2 0x4CFA JUMP JUMPDEST SWAP4 POP PUSH2 0x410F DUP2 DUP6 PUSH1 0x20 DUP7 ADD PUSH2 0x4E45 JUMP JUMPDEST PUSH2 0x4118 DUP2 PUSH2 0x4FDD JUMP JUMPDEST DUP5 ADD SWAP2 POP POP SWAP3 SWAP2 POP POP JUMP JUMPDEST PUSH1 0x0 PUSH2 0x412E DUP3 PUSH2 0x4CB3 JUMP JUMPDEST PUSH2 0x4138 DUP2 DUP6 PUSH2 0x4D0B JUMP JUMPDEST SWAP4 POP PUSH2 0x4148 DUP2 DUP6 PUSH1 0x20 DUP7 ADD PUSH2 0x4E45 JUMP JUMPDEST PUSH2 0x4151 DUP2 PUSH2 0x4FDD JUMP JUMPDEST DUP5 ADD SWAP2 POP POP SWAP3 SWAP2 POP POP JUMP JUMPDEST PUSH1 0x0 PUSH2 0x4167 DUP3 PUSH2 0x4CB3 JUMP JUMPDEST PUSH2 0x4171 DUP2 DUP6 PUSH2 0x4D1C JUMP JUMPDEST SWAP4 POP PUSH2 0x4181 DUP2 DUP6 PUSH1 0x20 DUP7 ADD PUSH2 0x4E45 JUMP JUMPDEST PUSH2 0x418A DUP2 PUSH2 0x4FDD JUMP JUMPDEST DUP5 ADD SWAP2 POP POP SWAP3 SWAP2 POP POP JUMP JUMPDEST PUSH1 0x0 PUSH2 0x41A0 DUP3 PUSH2 0x4CB3 JUMP JUMPDEST PUSH2 0x41AA DUP2 DUP6 PUSH2 0x4D2D JUMP JUMPDEST SWAP4 POP PUSH2 0x41BA DUP2 DUP6 PUSH1 0x20 DUP7 ADD PUSH2 0x4E45 JUMP JUMPDEST DUP1 DUP5 ADD SWAP2 POP POP SWAP3 SWAP2 POP POP JUMP JUMPDEST PUSH1 0x0 PUSH2 0x41D3 PUSH1 0x34 DUP4 PUSH2 0x4D1C JUMP JUMPDEST SWAP2 POP PUSH2 0x41DE DUP3 PUSH2 0x4FFB JUMP JUMPDEST PUSH1 0x40 DUP3 ADD SWAP1 POP SWAP2 SWAP1 POP JUMP JUMPDEST PUSH1 0x0 PUSH2 0x41F6 PUSH1 0x28 DUP4 PUSH2 0x4D1C JUMP JUMPDEST SWAP2 POP PUSH2 0x4201 DUP3 PUSH2 0x504A JUMP JUMPDEST PUSH1 0x40 DUP3 ADD SWAP1 POP SWAP2 SWAP1 POP JUMP JUMPDEST PUSH1 0x0 PUSH2 0x4219 PUSH1 0x2C DUP4 PUSH2 0x4D1C JUMP JUMPDEST SWAP2 POP PUSH2 0x4224 DUP3 PUSH2 0x5099 JUMP JUMPDEST PUSH1 0x40 DUP3 ADD SWAP1 POP SWAP2 SWAP1 POP JUMP JUMPDEST PUSH1 0x0 PUSH2 0x423C PUSH1 0x23 DUP4 PUSH2 0x4D2D JUMP JUMPDEST SWAP2 POP PUSH2 0x4247 DUP3 PUSH2 0x50E8 JUMP JUMPDEST PUSH1 0x23 DUP3 ADD SWAP1 POP SWAP2 SWAP1 POP JUMP JUMPDEST PUSH1 0x0 PUSH2 0x425F PUSH1 0x2D DUP4 PUSH2 0x4D1C JUMP JUMPDEST SWAP2 POP PUSH2 0x426A DUP3 PUSH2 0x5137 JUMP JUMPDEST PUSH1 0x40 DUP3 ADD SWAP1 POP SWAP2 SWAP1 POP JUMP JUMPDEST PUSH1 0x0 PUSH2 0x4282 PUSH1 0x2B DUP4 PUSH2 0x4D1C JUMP JUMPDEST SWAP2 POP PUSH2 0x428D DUP3 PUSH2 0x5186 JUMP JUMPDEST PUSH1 0x40 DUP3 ADD SWAP1 POP SWAP2 SWAP1 POP JUMP JUMPDEST PUSH1 0x0 PUSH2 0x42A5 PUSH1 0x26 DUP4 PUSH2 0x4D1C JUMP JUMPDEST SWAP2 POP PUSH2 0x42B0 DUP3 PUSH2 0x51D5 JUMP JUMPDEST PUSH1 0x40 DUP3 ADD SWAP1 POP SWAP2 SWAP1 POP JUMP JUMPDEST PUSH1 0x0 PUSH2 0x42C8 PUSH1 0x1D DUP4 PUSH2 0x4D1C JUMP JUMPDEST SWAP2 POP PUSH2 0x42D3 DUP3 PUSH2 0x5224 JUMP JUMPDEST PUSH1 0x20 DUP3 ADD SWAP1 POP SWAP2 SWAP1 POP JUMP JUMPDEST PUSH1 0x0 PUSH2 0x42EB PUSH1 0x29 DUP4 PUSH2 0x4D1C JUMP JUMPDEST SWAP2 POP PUSH2 0x42F6 DUP3 PUSH2 0x524D JUMP JUMPDEST PUSH1 0x40 DUP3 ADD SWAP1 POP SWAP2 SWAP1 POP JUMP JUMPDEST PUSH1 0x0 PUSH2 0x430E PUSH1 0x25 DUP4 PUSH2 0x4D1C JUMP JUMPDEST SWAP2 POP PUSH2 0x4319 DUP3 PUSH2 0x529C JUMP JUMPDEST PUSH1 0x40 DUP3 ADD SWAP1 POP SWAP2 SWAP1 POP JUMP JUMPDEST PUSH1 0x0 PUSH2 0x4331 PUSH1 0x16 DUP4 PUSH2 0x4D1C JUMP JUMPDEST SWAP2 POP PUSH2 0x433C DUP3 PUSH2 0x52EB JUMP JUMPDEST PUSH1 0x20 DUP3 ADD SWAP1 POP SWAP2 SWAP1 POP JUMP JUMPDEST PUSH1 0x0 PUSH2 0x4354 PUSH1 0x32 DUP4 PUSH2 0x4D1C JUMP JUMPDEST SWAP2 POP PUSH2 0x435F DUP3 PUSH2 0x5314 JUMP JUMPDEST PUSH1 0x40 DUP3 ADD SWAP1 POP SWAP2 SWAP1 POP JUMP JUMPDEST PUSH1 0x0 PUSH2 0x4377 PUSH1 0x41 DUP4 PUSH2 0x4D1C JUMP JUMPDEST SWAP2 POP PUSH2 0x4382 DUP3 PUSH2 0x5363 JUMP JUMPDEST PUSH1 0x60 DUP3 ADD SWAP1 POP SWAP2 SWAP1 POP JUMP JUMPDEST PUSH1 0x0 PUSH2 0x439A PUSH1 0x21 DUP4 PUSH2 0x4D1C JUMP JUMPDEST SWAP2 POP PUSH2 0x43A5 DUP3 PUSH2 0x53D8 JUMP JUMPDEST PUSH1 0x40 DUP3 ADD SWAP1 POP SWAP2 SWAP1 POP JUMP JUMPDEST PUSH1 0x0 PUSH2 0x43BD PUSH1 0x2A DUP4 PUSH2 0x4D1C JUMP JUMPDEST SWAP2 POP PUSH2 0x43C8 DUP3 PUSH2 0x5427 JUMP JUMPDEST PUSH1 0x40 DUP3 ADD SWAP1 POP SWAP2 SWAP1 POP JUMP JUMPDEST PUSH1 0x0 PUSH2 0x43E0 PUSH1 0x39 DUP4 PUSH2 0x4D1C JUMP JUMPDEST SWAP2 POP PUSH2 0x43EB DUP3 PUSH2 0x5476 JUMP JUMPDEST PUSH1 0x40 DUP3 ADD SWAP1 POP SWAP2 SWAP1 POP JUMP JUMPDEST PUSH1 0x0 PUSH2 0x4403 PUSH1 0x20 DUP4 PUSH2 0x4D1C JUMP JUMPDEST SWAP2 POP PUSH2 0x440E DUP3 PUSH2 0x54C5 JUMP JUMPDEST PUSH1 0x20 DUP3 ADD SWAP1 POP SWAP2 SWAP1 POP JUMP JUMPDEST PUSH1 0x0 PUSH2 0x4426 PUSH1 0x20 DUP4 PUSH2 0x4D1C JUMP JUMPDEST SWAP2 POP PUSH2 0x4431 DUP3 PUSH2 0x54EE JUMP JUMPDEST PUSH1 0x20 DUP3 ADD SWAP1 POP SWAP2 SWAP1 POP JUMP JUMPDEST PUSH1 0x0 PUSH2 0x4449 PUSH1 0x34 DUP4 PUSH2 0x4D1C JUMP JUMPDEST SWAP2 POP PUSH2 0x4454 DUP3 PUSH2 0x5517 JUMP JUMPDEST PUSH1 0x40 DUP3 ADD SWAP1 POP SWAP2 SWAP1 POP JUMP JUMPDEST PUSH1 0x0 PUSH2 0x446C PUSH1 0x8 DUP4 PUSH2 0x4D2D JUMP JUMPDEST SWAP2 POP PUSH2 0x4477 DUP3 PUSH2 0x5566 JUMP JUMPDEST PUSH1 0x8 DUP3 ADD SWAP1 POP SWAP2 SWAP1 POP JUMP JUMPDEST PUSH1 0x0 PUSH2 0x448F PUSH1 0x3D DUP4 PUSH2 0x4D1C JUMP JUMPDEST SWAP2 POP PUSH2 0x449A DUP3 PUSH2 0x558F JUMP JUMPDEST PUSH1 0x40 DUP3 ADD SWAP1 POP SWAP2 SWAP1 POP JUMP JUMPDEST PUSH1 0x0 PUSH2 0x44B2 PUSH1 0x24 DUP4 PUSH2 0x4D1C JUMP JUMPDEST SWAP2 POP PUSH2 0x44BD DUP3 PUSH2 0x55DE JUMP JUMPDEST PUSH1 0x40 DUP3 ADD SWAP1 POP SWAP2 SWAP1 POP JUMP JUMPDEST PUSH1 0x0 PUSH2 0x44D5 PUSH1 0x29 DUP4 PUSH2 0x4D1C JUMP JUMPDEST SWAP2 POP PUSH2 0x44E0 DUP3 PUSH2 0x562D JUMP JUMPDEST PUSH1 0x40 DUP3 ADD SWAP1 POP SWAP2 SWAP1 POP JUMP JUMPDEST PUSH1 0x0 PUSH2 0x44F8 PUSH1 0x29 DUP4 PUSH2 0x4D1C JUMP JUMPDEST SWAP2 POP PUSH2 0x4503 DUP3 PUSH2 0x567C JUMP JUMPDEST PUSH1 0x40 DUP3 ADD SWAP1 POP SWAP2 SWAP1 POP JUMP JUMPDEST PUSH1 0x0 PUSH2 0x451B PUSH1 0x28 DUP4 PUSH2 0x4D1C JUMP JUMPDEST SWAP2 POP PUSH2 0x4526 DUP3 PUSH2 0x56CB JUMP JUMPDEST PUSH1 0x40 DUP3 ADD SWAP1 POP SWAP2 SWAP1 POP JUMP JUMPDEST PUSH1 0x0 PUSH2 0x453E PUSH1 0x21 DUP4 PUSH2 0x4D1C JUMP JUMPDEST SWAP2 POP PUSH2 0x4549 DUP3 PUSH2 0x571A JUMP JUMPDEST PUSH1 0x40 DUP3 ADD SWAP1 POP SWAP2 SWAP1 POP JUMP JUMPDEST PUSH1 0x0 PUSH2 0x4561 PUSH1 0xA1 DUP4 PUSH2 0x4D1C JUMP JUMPDEST SWAP2 POP PUSH2 0x456C DUP3 PUSH2 0x5769 JUMP JUMPDEST PUSH1 0xC0 DUP3 ADD SWAP1 POP SWAP2 SWAP1 POP JUMP JUMPDEST PUSH1 0x0 PUSH2 0x4584 PUSH1 0x15 DUP4 PUSH2 0x4D1C JUMP JUMPDEST SWAP2 POP PUSH2 0x458F DUP3 PUSH2 0x5850 JUMP JUMPDEST PUSH1 0x20 DUP3 ADD SWAP1 POP SWAP2 SWAP1 POP JUMP JUMPDEST PUSH2 0x45A3 DUP2 PUSH2 0x4E2C JUMP JUMPDEST DUP3 MSTORE POP POP JUMP JUMPDEST PUSH2 0x45B2 DUP2 PUSH2 0x4E2C JUMP JUMPDEST DUP3 MSTORE POP POP JUMP JUMPDEST PUSH2 0x45C9 PUSH2 0x45C4 DUP3 PUSH2 0x4E2C JUMP JUMPDEST PUSH2 0x4F24 JUMP JUMPDEST DUP3 MSTORE POP POP JUMP JUMPDEST PUSH1 0x0 PUSH2 0x45DB DUP3 DUP5 PUSH2 0x4195 JUMP JUMPDEST SWAP2 POP DUP2 SWAP1 POP SWAP3 SWAP2 POP POP JUMP JUMPDEST PUSH1 0x0 PUSH2 0x45F1 DUP3 PUSH2 0x422F JUMP JUMPDEST SWAP2 POP PUSH2 0x45FD DUP3 DUP5 PUSH2 0x45B8 JUMP JUMPDEST PUSH1 0x20 DUP3 ADD SWAP2 POP PUSH2 0x460C DUP3 PUSH2 0x445F JUMP JUMPDEST SWAP2 POP DUP2 SWAP1 POP SWAP3 SWAP2 POP POP JUMP JUMPDEST PUSH1 0x0 PUSH2 0x4623 DUP3 DUP6 PUSH2 0x45B8 JUMP JUMPDEST PUSH1 0x20 DUP3 ADD SWAP2 POP PUSH2 0x4633 DUP3 DUP5 PUSH2 0x4195 JUMP JUMPDEST SWAP2 POP DUP2 SWAP1 POP SWAP4 SWAP3 POP POP POP JUMP JUMPDEST PUSH1 0x0 PUSH1 0x20 DUP3 ADD SWAP1 POP PUSH2 0x4654 PUSH1 0x0 DUP4 ADD DUP5 PUSH2 0x3FF9 JUMP JUMPDEST SWAP3 SWAP2 POP POP JUMP JUMPDEST PUSH1 0x0 PUSH1 0xA0 DUP3 ADD SWAP1 POP PUSH2 0x466F PUSH1 0x0 DUP4 ADD DUP9 PUSH2 0x3FF9 JUMP JUMPDEST PUSH2 0x467C PUSH1 0x20 DUP4 ADD DUP8 PUSH2 0x3FF9 JUMP JUMPDEST DUP2 DUP2 SUB PUSH1 0x40 DUP4 ADD MSTORE PUSH2 0x468E DUP2 DUP7 PUSH2 0x407D JUMP JUMPDEST SWAP1 POP DUP2 DUP2 SUB PUSH1 0x60 DUP4 ADD MSTORE PUSH2 0x46A2 DUP2 DUP6 PUSH2 0x407D JUMP JUMPDEST SWAP1 POP DUP2 DUP2 SUB PUSH1 0x80 DUP4 ADD MSTORE PUSH2 0x46B6 DUP2 DUP5 PUSH2 0x40EA JUMP JUMPDEST SWAP1 POP SWAP7 SWAP6 POP POP POP POP POP POP JUMP JUMPDEST PUSH1 0x0 PUSH1 0xA0 DUP3 ADD SWAP1 POP PUSH2 0x46D7 PUSH1 0x0 DUP4 ADD DUP9 PUSH2 0x3FF9 JUMP JUMPDEST PUSH2 0x46E4 PUSH1 0x20 DUP4 ADD DUP8 PUSH2 0x3FF9 JUMP JUMPDEST PUSH2 0x46F1 PUSH1 0x40 DUP4 ADD DUP7 PUSH2 0x45A9 JUMP JUMPDEST PUSH2 0x46FE PUSH1 0x60 DUP4 ADD DUP6 PUSH2 0x45A9 JUMP JUMPDEST DUP2 DUP2 SUB PUSH1 0x80 DUP4 ADD MSTORE PUSH2 0x4710 DUP2 DUP5 PUSH2 0x40EA JUMP JUMPDEST SWAP1 POP SWAP7 SWAP6 POP POP POP POP POP POP JUMP JUMPDEST PUSH1 0x0 PUSH1 0x20 DUP3 ADD SWAP1 POP DUP2 DUP2 SUB PUSH1 0x0 DUP4 ADD MSTORE PUSH2 0x4736 DUP2 DUP5 PUSH2 0x4008 JUMP JUMPDEST SWAP1 POP SWAP3 SWAP2 POP POP JUMP JUMPDEST PUSH1 0x0 PUSH1 0x20 DUP3 ADD SWAP1 POP DUP2 DUP2 SUB PUSH1 0x0 DUP4 ADD MSTORE PUSH2 0x4758 DUP2 DUP5 PUSH2 0x407D JUMP JUMPDEST SWAP1 POP SWAP3 SWAP2 POP POP JUMP JUMPDEST PUSH1 0x0 PUSH1 0x40 DUP3 ADD SWAP1 POP DUP2 DUP2 SUB PUSH1 0x0 DUP4 ADD MSTORE PUSH2 0x477A DUP2 DUP6 PUSH2 0x407D JUMP JUMPDEST SWAP1 POP DUP2 DUP2 SUB PUSH1 0x20 DUP4 ADD MSTORE PUSH2 0x478E DUP2 DUP5 PUSH2 0x407D JUMP JUMPDEST SWAP1 POP SWAP4 SWAP3 POP POP POP JUMP JUMPDEST PUSH1 0x0 PUSH1 0x20 DUP3 ADD SWAP1 POP PUSH2 0x47AC PUSH1 0x0 DUP4 ADD DUP5 PUSH2 0x40DB JUMP JUMPDEST SWAP3 SWAP2 POP POP JUMP JUMPDEST PUSH1 0x0 PUSH1 0x20 DUP3 ADD SWAP1 POP DUP2 DUP2 SUB PUSH1 0x0 DUP4 ADD MSTORE PUSH2 0x47CC DUP2 DUP5 PUSH2 0x415C JUMP JUMPDEST SWAP1 POP SWAP3 SWAP2 POP POP JUMP JUMPDEST PUSH1 0x0 PUSH1 0x20 DUP3 ADD SWAP1 POP DUP2 DUP2 SUB PUSH1 0x0 DUP4 ADD MSTORE PUSH2 0x47ED DUP2 PUSH2 0x41C6 JUMP JUMPDEST SWAP1 POP SWAP2 SWAP1 POP JUMP JUMPDEST PUSH1 0x0 PUSH1 0x20 DUP3 ADD SWAP1 POP DUP2 DUP2 SUB PUSH1 0x0 DUP4 ADD MSTORE PUSH2 0x480D DUP2 PUSH2 0x41E9 JUMP JUMPDEST SWAP1 POP SWAP2 SWAP1 POP JUMP JUMPDEST PUSH1 0x0 PUSH1 0x40 DUP3 ADD SWAP1 POP DUP2 DUP2 SUB PUSH1 0x0 DUP4 ADD MSTORE PUSH2 0x482D DUP2 PUSH2 0x420C JUMP JUMPDEST SWAP1 POP PUSH2 0x483C PUSH1 0x20 DUP4 ADD DUP5 PUSH2 0x45A9 JUMP JUMPDEST SWAP3 SWAP2 POP POP JUMP JUMPDEST PUSH1 0x0 PUSH1 0x60 DUP3 ADD SWAP1 POP DUP2 DUP2 SUB PUSH1 0x0 DUP4 ADD MSTORE PUSH2 0x485B DUP2 PUSH2 0x4252 JUMP JUMPDEST SWAP1 POP PUSH2 0x486A PUSH1 0x20 DUP4 ADD DUP5 PUSH2 0x3FF9 JUMP JUMPDEST DUP2 DUP2 SUB PUSH1 0x40 DUP4 ADD MSTORE PUSH2 0x487B DUP2 PUSH2 0x4324 JUMP JUMPDEST SWAP1 POP SWAP3 SWAP2 POP POP JUMP JUMPDEST PUSH1 0x0 PUSH1 0x20 DUP3 ADD SWAP1 POP DUP2 DUP2 SUB PUSH1 0x0 DUP4 ADD MSTORE PUSH2 0x489C DUP2 PUSH2 0x4275 JUMP JUMPDEST SWAP1 POP SWAP2 SWAP1 POP JUMP JUMPDEST PUSH1 0x0 PUSH1 0x20 DUP3 ADD SWAP1 POP DUP2 DUP2 SUB PUSH1 0x0 DUP4 ADD MSTORE PUSH2 0x48BC DUP2 PUSH2 0x4298 JUMP JUMPDEST SWAP1 POP SWAP2 SWAP1 POP JUMP JUMPDEST PUSH1 0x0 PUSH1 0x20 DUP3 ADD SWAP1 POP DUP2 DUP2 SUB PUSH1 0x0 DUP4 ADD MSTORE PUSH2 0x48DC DUP2 PUSH2 0x42BB JUMP JUMPDEST SWAP1 POP SWAP2 SWAP1 POP JUMP JUMPDEST PUSH1 0x0 PUSH1 0x20 DUP3 ADD SWAP1 POP DUP2 DUP2 SUB PUSH1 0x0 DUP4 ADD MSTORE PUSH2 0x48FC DUP2 PUSH2 0x42DE JUMP JUMPDEST SWAP1 POP SWAP2 SWAP1 POP JUMP JUMPDEST PUSH1 0x0 PUSH1 0x20 DUP3 ADD SWAP1 POP DUP2 DUP2 SUB PUSH1 0x0 DUP4 ADD MSTORE PUSH2 0x491C DUP2 PUSH2 0x4301 JUMP JUMPDEST SWAP1 POP SWAP2 SWAP1 POP JUMP JUMPDEST PUSH1 0x0 PUSH1 0x20 DUP3 ADD SWAP1 POP DUP2 DUP2 SUB PUSH1 0x0 DUP4 ADD MSTORE PUSH2 0x493C DUP2 PUSH2 0x4347 JUMP JUMPDEST SWAP1 POP SWAP2 SWAP1 POP JUMP JUMPDEST PUSH1 0x0 PUSH1 0x20 DUP3 ADD SWAP1 POP DUP2 DUP2 SUB PUSH1 0x0 DUP4 ADD MSTORE PUSH2 0x495C DUP2 PUSH2 0x436A JUMP JUMPDEST SWAP1 POP SWAP2 SWAP1 POP JUMP JUMPDEST PUSH1 0x0 PUSH1 0x20 DUP3 ADD SWAP1 POP DUP2 DUP2 SUB PUSH1 0x0 DUP4 ADD MSTORE PUSH2 0x497C DUP2 PUSH2 0x438D JUMP JUMPDEST SWAP1 POP SWAP2 SWAP1 POP JUMP JUMPDEST PUSH1 0x0 PUSH1 0x20 DUP3 ADD SWAP1 POP DUP2 DUP2 SUB PUSH1 0x0 DUP4 ADD MSTORE PUSH2 0x499C DUP2 PUSH2 0x43B0 JUMP JUMPDEST SWAP1 POP SWAP2 SWAP1 POP JUMP JUMPDEST PUSH1 0x0 PUSH1 0x20 DUP3 ADD SWAP1 POP DUP2 DUP2 SUB PUSH1 0x0 DUP4 ADD MSTORE PUSH2 0x49BC DUP2 PUSH2 0x43D3 JUMP JUMPDEST SWAP1 POP SWAP2 SWAP1 POP JUMP JUMPDEST PUSH1 0x0 PUSH1 0x20 DUP3 ADD SWAP1 POP DUP2 DUP2 SUB PUSH1 0x0 DUP4 ADD MSTORE PUSH2 0x49DC DUP2 PUSH2 0x43F6 JUMP JUMPDEST SWAP1 POP SWAP2 SWAP1 POP JUMP JUMPDEST PUSH1 0x0 PUSH1 0x20 DUP3 ADD SWAP1 POP DUP2 DUP2 SUB PUSH1 0x0 DUP4 ADD MSTORE PUSH2 0x49FC DUP2 PUSH2 0x4419 JUMP JUMPDEST SWAP1 POP SWAP2 SWAP1 POP JUMP JUMPDEST PUSH1 0x0 PUSH1 0x20 DUP3 ADD SWAP1 POP DUP2 DUP2 SUB PUSH1 0x0 DUP4 ADD MSTORE PUSH2 0x4A1C DUP2 PUSH2 0x443C JUMP JUMPDEST SWAP1 POP SWAP2 SWAP1 POP JUMP JUMPDEST PUSH1 0x0 PUSH1 0x20 DUP3 ADD SWAP1 POP DUP2 DUP2 SUB PUSH1 0x0 DUP4 ADD MSTORE PUSH2 0x4A3C DUP2 PUSH2 0x4482 JUMP JUMPDEST SWAP1 POP SWAP2 SWAP1 POP JUMP JUMPDEST PUSH1 0x0 PUSH1 0x20 DUP3 ADD SWAP1 POP DUP2 DUP2 SUB PUSH1 0x0 DUP4 ADD MSTORE PUSH2 0x4A5C DUP2 PUSH2 0x44A5 JUMP JUMPDEST SWAP1 POP SWAP2 SWAP1 POP JUMP JUMPDEST PUSH1 0x0 PUSH1 0x20 DUP3 ADD SWAP1 POP DUP2 DUP2 SUB PUSH1 0x0 DUP4 ADD MSTORE PUSH2 0x4A7C DUP2 PUSH2 0x44C8 JUMP JUMPDEST SWAP1 POP SWAP2 SWAP1 POP JUMP JUMPDEST PUSH1 0x0 PUSH1 0x20 DUP3 ADD SWAP1 POP DUP2 DUP2 SUB PUSH1 0x0 DUP4 ADD MSTORE PUSH2 0x4A9C DUP2 PUSH2 0x44EB JUMP JUMPDEST SWAP1 POP SWAP2 SWAP1 POP JUMP JUMPDEST PUSH1 0x0 PUSH1 0x20 DUP3 ADD SWAP1 POP DUP2 DUP2 SUB PUSH1 0x0 DUP4 ADD MSTORE PUSH2 0x4ABC DUP2 PUSH2 0x450E JUMP JUMPDEST SWAP1 POP SWAP2 SWAP1 POP JUMP JUMPDEST PUSH1 0x0 PUSH1 0x20 DUP3 ADD SWAP1 POP DUP2 DUP2 SUB PUSH1 0x0 DUP4 ADD MSTORE PUSH2 0x4ADC DUP2 PUSH2 0x4531 JUMP JUMPDEST SWAP1 POP SWAP2 SWAP1 POP JUMP JUMPDEST PUSH1 0x0 PUSH1 0x20 DUP3 ADD SWAP1 POP DUP2 DUP2 SUB PUSH1 0x0 DUP4 ADD MSTORE PUSH2 0x4AFC DUP2 PUSH2 0x4554 JUMP JUMPDEST SWAP1 POP SWAP2 SWAP1 POP JUMP JUMPDEST PUSH1 0x0 PUSH1 0x20 DUP3 ADD SWAP1 POP DUP2 DUP2 SUB PUSH1 0x0 DUP4 ADD MSTORE PUSH2 0x4B1C DUP2 PUSH2 0x4577 JUMP JUMPDEST SWAP1 POP SWAP2 SWAP1 POP JUMP JUMPDEST PUSH1 0x0 PUSH1 0x20 DUP3 ADD SWAP1 POP PUSH2 0x4B38 PUSH1 0x0 DUP4 ADD DUP5 PUSH2 0x45A9 JUMP JUMPDEST SWAP3 SWAP2 POP POP JUMP JUMPDEST PUSH1 0x0 PUSH1 0x40 DUP3 ADD SWAP1 POP PUSH2 0x4B53 PUSH1 0x0 DUP4 ADD DUP6 PUSH2 0x45A9 JUMP JUMPDEST PUSH2 0x4B60 PUSH1 0x20 DUP4 ADD DUP5 PUSH2 0x45A9 JUMP JUMPDEST SWAP4 SWAP3 POP POP POP JUMP JUMPDEST PUSH1 0x0 PUSH2 0x4B71 PUSH2 0x4B82 JUMP JUMPDEST SWAP1 POP PUSH2 0x4B7D DUP3 DUP3 PUSH2 0x4EAA JUMP JUMPDEST SWAP2 SWAP1 POP JUMP JUMPDEST PUSH1 0x0 PUSH1 0x40 MLOAD SWAP1 POP SWAP1 JUMP JUMPDEST PUSH1 0x0 PUSH8 0xFFFFFFFFFFFFFFFF DUP3 GT ISZERO PUSH2 0x4BA7 JUMPI PUSH2 0x4BA6 PUSH2 0x4F8C JUMP JUMPDEST JUMPDEST PUSH1 0x20 DUP3 MUL SWAP1 POP PUSH1 0x20 DUP2 ADD SWAP1 POP SWAP2 SWAP1 POP JUMP JUMPDEST PUSH1 0x0 PUSH8 0xFFFFFFFFFFFFFFFF DUP3 GT ISZERO PUSH2 0x4BD3 JUMPI PUSH2 0x4BD2 PUSH2 0x4F8C JUMP JUMPDEST JUMPDEST PUSH1 0x20 DUP3 MUL SWAP1 POP PUSH1 0x20 DUP2 ADD SWAP1 POP SWAP2 SWAP1 POP JUMP JUMPDEST PUSH1 0x0 PUSH8 0xFFFFFFFFFFFFFFFF DUP3 GT ISZERO PUSH2 0x4BFF JUMPI PUSH2 0x4BFE PUSH2 0x4F8C JUMP JUMPDEST JUMPDEST PUSH1 0x20 DUP3 MUL SWAP1 POP PUSH1 0x20 DUP2 ADD SWAP1 POP SWAP2 SWAP1 POP JUMP JUMPDEST PUSH1 0x0 PUSH8 0xFFFFFFFFFFFFFFFF DUP3 GT ISZERO PUSH2 0x4C2B JUMPI PUSH2 0x4C2A PUSH2 0x4F8C JUMP JUMPDEST JUMPDEST PUSH2 0x4C34 DUP3 PUSH2 0x4FDD JUMP JUMPDEST SWAP1 POP PUSH1 0x20 DUP2 ADD SWAP1 POP SWAP2 SWAP1 POP JUMP JUMPDEST PUSH1 0x0 PUSH8 0xFFFFFFFFFFFFFFFF DUP3 GT ISZERO PUSH2 0x4C5C JUMPI PUSH2 0x4C5B PUSH2 0x4F8C JUMP JUMPDEST JUMPDEST PUSH2 0x4C65 DUP3 PUSH2 0x4FDD JUMP JUMPDEST SWAP1 POP PUSH1 0x20 DUP2 ADD SWAP1 POP SWAP2 SWAP1 POP JUMP JUMPDEST PUSH1 0x0 DUP2 SWAP1 POP PUSH1 0x20 DUP3 ADD SWAP1 POP SWAP2 SWAP1 POP JUMP JUMPDEST PUSH1 0x0 DUP2 SWAP1 POP PUSH1 0x20 DUP3 ADD SWAP1 POP SWAP2 SWAP1 POP JUMP JUMPDEST PUSH1 0x0 DUP2 MLOAD SWAP1 POP SWAP2 SWAP1 POP JUMP JUMPDEST PUSH1 0x0 DUP2 MLOAD SWAP1 POP SWAP2 SWAP1 POP JUMP JUMPDEST PUSH1 0x0 DUP2 MLOAD SWAP1 POP SWAP2 SWAP1 POP JUMP JUMPDEST PUSH1 0x0 DUP2 MLOAD SWAP1 POP SWAP2 SWAP1 POP JUMP JUMPDEST PUSH1 0x0 PUSH1 0x20 DUP3 ADD SWAP1 POP SWAP2 SWAP1 POP JUMP JUMPDEST PUSH1 0x0 PUSH1 0x20 DUP3 ADD SWAP1 POP SWAP2 SWAP1 POP JUMP JUMPDEST PUSH1 0x0 DUP3 DUP3 MSTORE PUSH1 0x20 DUP3 ADD SWAP1 POP SWAP3 SWAP2 POP POP JUMP JUMPDEST PUSH1 0x0 DUP3 DUP3 MSTORE PUSH1 0x20 DUP3 ADD SWAP1 POP SWAP3 SWAP2 POP POP JUMP JUMPDEST PUSH1 0x0 DUP3 DUP3 MSTORE PUSH1 0x20 DUP3 ADD SWAP1 POP SWAP3 SWAP2 POP POP JUMP JUMPDEST PUSH1 0x0 DUP3 DUP3 MSTORE PUSH1 0x20 DUP3 ADD SWAP1 POP SWAP3 SWAP2 POP POP JUMP JUMPDEST PUSH1 0x0 DUP3 DUP3 MSTORE PUSH1 0x20 DUP3 ADD SWAP1 POP SWAP3 SWAP2 POP POP JUMP JUMPDEST PUSH1 0x0 DUP2 SWAP1 POP SWAP3 SWAP2 POP POP JUMP JUMPDEST PUSH1 0x0 PUSH2 0x4D43 DUP3 PUSH2 0x4E2C JUMP JUMPDEST SWAP2 POP PUSH2 0x4D4E DUP4 PUSH2 0x4E2C JUMP JUMPDEST SWAP3 POP DUP3 PUSH32 0xFFFFFFFFFFFFFFFFFFFFFFFFFFFFFFFFFFFFFFFFFFFFFFFFFFFFFFFFFFFFFFFF SUB DUP3 GT ISZERO PUSH2 0x4D83 JUMPI PUSH2 0x4D82 PUSH2 0x4F2E JUMP JUMPDEST JUMPDEST DUP3 DUP3 ADD SWAP1 POP SWAP3 SWAP2 POP POP JUMP JUMPDEST PUSH1 0x0 PUSH2 0x4D99 DUP3 PUSH2 0x4E2C JUMP JUMPDEST SWAP2 POP PUSH2 0x4DA4 DUP4 PUSH2 0x4E2C JUMP JUMPDEST SWAP3 POP DUP3 DUP3 LT ISZERO PUSH2 0x4DB7 JUMPI PUSH2 0x4DB6 PUSH2 0x4F2E JUMP JUMPDEST JUMPDEST DUP3 DUP3 SUB SWAP1 POP SWAP3 SWAP2 POP POP JUMP JUMPDEST PUSH1 0x0 PUSH2 0x4DCD DUP3 PUSH2 0x4E0C JUMP JUMPDEST SWAP1 POP SWAP2 SWAP1 POP JUMP JUMPDEST PUSH1 0x0 DUP2 ISZERO ISZERO SWAP1 POP SWAP2 SWAP1 POP JUMP JUMPDEST PUSH1 0x0 PUSH32 0xFFFFFFFF00000000000000000000000000000000000000000000000000000000 DUP3 AND SWAP1 POP SWAP2 SWAP1 POP JUMP JUMPDEST PUSH1 0x0 PUSH20 0xFFFFFFFFFFFFFFFFFFFFFFFFFFFFFFFFFFFFFFFF DUP3 AND SWAP1 POP SWAP2 SWAP1 POP JUMP JUMPDEST PUSH1 0x0 DUP2 SWAP1 POP SWAP2 SWAP1 POP JUMP JUMPDEST DUP3 DUP2 DUP4 CALLDATACOPY PUSH1 0x0 DUP4 DUP4 ADD MSTORE POP POP POP JUMP JUMPDEST PUSH1 0x0 JUMPDEST DUP4 DUP2 LT ISZERO PUSH2 0x4E63 JUMPI DUP1 DUP3 ADD MLOAD DUP2 DUP5 ADD MSTORE PUSH1 0x20 DUP2 ADD SWAP1 POP PUSH2 0x4E48 JUMP JUMPDEST DUP4 DUP2 GT ISZERO PUSH2 0x4E72 JUMPI PUSH1 0x0 DUP5 DUP5 ADD MSTORE JUMPDEST POP POP POP POP JUMP JUMPDEST PUSH1 0x0 PUSH1 0x2 DUP3 DIV SWAP1 POP PUSH1 0x1 DUP3 AND DUP1 PUSH2 0x4E90 JUMPI PUSH1 0x7F DUP3 AND SWAP2 POP JUMPDEST PUSH1 0x20 DUP3 LT DUP2 EQ ISZERO PUSH2 0x4EA4 JUMPI PUSH2 0x4EA3 PUSH2 0x4F5D JUMP JUMPDEST JUMPDEST POP SWAP2 SWAP1 POP JUMP JUMPDEST PUSH2 0x4EB3 DUP3 PUSH2 0x4FDD JUMP JUMPDEST DUP2 ADD DUP2 DUP2 LT PUSH8 0xFFFFFFFFFFFFFFFF DUP3 GT OR ISZERO PUSH2 0x4ED2 JUMPI PUSH2 0x4ED1 PUSH2 0x4F8C JUMP JUMPDEST JUMPDEST DUP1 PUSH1 0x40 MSTORE POP POP POP JUMP JUMPDEST PUSH1 0x0 PUSH2 0x4EE6 DUP3 PUSH2 0x4E2C JUMP JUMPDEST SWAP2 POP PUSH32 0xFFFFFFFFFFFFFFFFFFFFFFFFFFFFFFFFFFFFFFFFFFFFFFFFFFFFFFFFFFFFFFFF DUP3 EQ ISZERO PUSH2 0x4F19 JUMPI PUSH2 0x4F18 PUSH2 0x4F2E JUMP JUMPDEST JUMPDEST PUSH1 0x1 DUP3 ADD SWAP1 POP SWAP2 SWAP1 POP JUMP JUMPDEST PUSH1 0x0 DUP2 SWAP1 POP SWAP2 SWAP1 POP JUMP JUMPDEST PUSH32 0x4E487B7100000000000000000000000000000000000000000000000000000000 PUSH1 0x0 MSTORE PUSH1 0x11 PUSH1 0x4 MSTORE PUSH1 0x24 PUSH1 0x0 REVERT JUMPDEST PUSH32 0x4E487B7100000000000000000000000000000000000000000000000000000000 PUSH1 0x0 MSTORE PUSH1 0x22 PUSH1 0x4 MSTORE PUSH1 0x24 PUSH1 0x0 REVERT JUMPDEST PUSH32 0x4E487B7100000000000000000000000000000000000000000000000000000000 PUSH1 0x0 MSTORE PUSH1 0x41 PUSH1 0x4 MSTORE PUSH1 0x24 PUSH1 0x0 REVERT JUMPDEST PUSH1 0x0 PUSH1 0x3 RETURNDATASIZE GT ISZERO PUSH2 0x4FDA JUMPI PUSH1 0x4 PUSH1 0x0 DUP1 RETURNDATACOPY PUSH2 0x4FD7 PUSH1 0x0 MLOAD PUSH2 0x4FEE JUMP JUMPDEST SWAP1 POP JUMPDEST SWAP1 JUMP JUMPDEST PUSH1 0x0 PUSH1 0x1F NOT PUSH1 0x1F DUP4 ADD AND SWAP1 POP SWAP2 SWAP1 POP JUMP JUMPDEST PUSH1 0x0 DUP2 PUSH1 0xE0 SHR SWAP1 POP SWAP2 SWAP1 POP JUMP JUMPDEST PUSH32 0x455243313135353A207472616E7366657220746F206E6F6E2045524331313535 PUSH1 0x0 DUP3 ADD MSTORE PUSH32 0x526563656976657220696D706C656D656E746572000000000000000000000000 PUSH1 0x20 DUP3 ADD MSTORE POP JUMP JUMPDEST PUSH32 0x455243313135353A204552433131353552656365697665722072656A65637465 PUSH1 0x0 DUP3 ADD MSTORE PUSH32 0x6420746F6B656E73000000000000000000000000000000000000000000000000 PUSH1 0x20 DUP3 ADD MSTORE POP JUMP JUMPDEST PUSH32 0x476976656E206D65746164617461206973206E6F7420617070726F7665642066 PUSH1 0x0 DUP3 ADD MSTORE PUSH32 0x6F7220746F6B656E206964200000000000000000000000000000000000000000 PUSH1 0x20 DUP3 ADD MSTORE POP JUMP JUMPDEST PUSH32 0x43616E6E6F74206D696E74206D6F7265207468616E203C6D6178537570706C79 PUSH1 0x0 DUP3 ADD MSTORE PUSH32 0x3E20280000000000000000000000000000000000000000000000000000000000 PUSH1 0x20 DUP3 ADD MSTORE POP JUMP JUMPDEST PUSH32 0x455243313135354D756C74695552495F557365725570677261646561626C653A PUSH1 0x0 DUP3 ADD MSTORE PUSH32 0x20676976656E206F776E65722000000000000000000000000000000000000000 PUSH1 0x20 DUP3 ADD MSTORE POP JUMP JUMPDEST PUSH32 0x455243313135353A2062616C616E636520717565727920666F7220746865207A PUSH1 0x0 DUP3 ADD MSTORE PUSH32 0x65726F2061646472657373000000000000000000000000000000000000000000 PUSH1 0x20 DUP3 ADD MSTORE POP JUMP JUMPDEST PUSH32 0x4F776E61626C653A206E6577206F776E657220697320746865207A65726F2061 PUSH1 0x0 DUP3 ADD MSTORE PUSH32 0x6464726573730000000000000000000000000000000000000000000000000000 PUSH1 0x20 DUP3 ADD MSTORE POP JUMP JUMPDEST PUSH32 0x43616E6E6F742065646974205F73746174652E656E74726965735B305D000000 PUSH1 0x0 DUP3 ADD MSTORE POP JUMP JUMPDEST PUSH32 0x455243313135353A2063616C6C6572206973206E6F74206F776E6572206E6F72 PUSH1 0x0 DUP3 ADD MSTORE PUSH32 0x20617070726F7665640000000000000000000000000000000000000000000000 PUSH1 0x20 DUP3 ADD MSTORE POP JUMP JUMPDEST PUSH32 0x455243313135353A207472616E7366657220746F20746865207A65726F206164 PUSH1 0x0 DUP3 ADD MSTORE PUSH32 0x6472657373000000000000000000000000000000000000000000000000000000 PUSH1 0x20 DUP3 ADD MSTORE POP JUMP JUMPDEST PUSH32 0x20646F6573206E6F74206F776E2074686973204E465400000000000000000000 PUSH1 0x0 DUP3 ADD MSTORE POP JUMP JUMPDEST PUSH32 0x455243313135353A207472616E736665722063616C6C6572206973206E6F7420 PUSH1 0x0 DUP3 ADD MSTORE PUSH32 0x6F776E6572206E6F7220617070726F7665640000000000000000000000000000 PUSH1 0x20 DUP3 ADD MSTORE POP JUMP JUMPDEST PUSH32 0x455243313135354D756C74695552495F557365725570677261646561626C653A PUSH1 0x0 DUP3 ADD MSTORE PUSH32 0x2063616C6C6572206973206E6F74206F776E6572206E6F7220617070726F7665 PUSH1 0x20 DUP3 ADD MSTORE PUSH32 0x6400000000000000000000000000000000000000000000000000000000000000 PUSH1 0x40 DUP3 ADD MSTORE POP JUMP JUMPDEST PUSH32 0x43616E6E6F74207265747269657665205F73746174652E656E74726965735B30 PUSH1 0x0 DUP3 ADD MSTORE PUSH32 0x5D00000000000000000000000000000000000000000000000000000000000000 PUSH1 0x20 DUP3 ADD MSTORE POP JUMP JUMPDEST PUSH32 0x455243313135353A20696E73756666696369656E742062616C616E636520666F PUSH1 0x0 DUP3 ADD MSTORE PUSH32 0x72207472616E7366657200000000000000000000000000000000000000000000 PUSH1 0x20 DUP3 ADD MSTORE POP JUMP JUMPDEST PUSH32 0x43616E206F6E6C79206368616E676520555249206F6E206120746F6B656E2074 PUSH1 0x0 DUP3 ADD MSTORE PUSH32 0x686174206973207065726D616E656E746C7920756E6971756500000000000000 PUSH1 0x20 DUP3 ADD MSTORE POP JUMP JUMPDEST PUSH32 0x4F776E61626C653A2063616C6C6572206973206E6F7420746865206F776E6572 PUSH1 0x0 DUP3 ADD MSTORE POP JUMP JUMPDEST PUSH32 0x43616E6E6F74206D616B6520656E747279207769746820656D70747920555249 PUSH1 0x0 DUP3 ADD MSTORE POP JUMP JUMPDEST PUSH32 0x43616E6E6F74206368616E6765206D65746164617461206F6620657869737469 PUSH1 0x0 DUP3 ADD MSTORE PUSH32 0x6E6720746F6B656E20766961206D696E74696E67000000000000000000000000 PUSH1 0x20 DUP3 ADD MSTORE POP JUMP JUMPDEST PUSH32 0x2920746F6B656E73000000000000000000000000000000000000000000000000 PUSH1 0x0 DUP3 ADD MSTORE POP JUMP JUMPDEST PUSH32 0x4C313A205F6D616B65456E7472793A20656E7472792077697468206D61746368 PUSH1 0x0 DUP3 ADD MSTORE PUSH32 0x696E6720696420616E642075726920616C726561647920657869737473000000 PUSH1 0x20 DUP3 ADD MSTORE POP JUMP JUMPDEST PUSH32 0x43616E6E6F74206368616E67652055524920666F72206578697374696E672074 PUSH1 0x0 DUP3 ADD MSTORE PUSH32 0x6F6B656E00000000000000000000000000000000000000000000000000000000 PUSH1 0x20 DUP3 ADD MSTORE POP JUMP JUMPDEST PUSH32 0x455243313135353A2073657474696E6720617070726F76616C20737461747573 PUSH1 0x0 DUP3 ADD MSTORE PUSH32 0x20666F722073656C660000000000000000000000000000000000000000000000 PUSH1 0x20 DUP3 ADD MSTORE POP JUMP JUMPDEST PUSH32 0x455243313135353A206163636F756E747320616E6420696473206C656E677468 PUSH1 0x0 DUP3 ADD MSTORE PUSH32 0x206D69736D617463680000000000000000000000000000000000000000000000 PUSH1 0x20 DUP3 ADD MSTORE POP JUMP JUMPDEST PUSH32 0x455243313135353A2069647320616E6420616D6F756E7473206C656E67746820 PUSH1 0x0 DUP3 ADD MSTORE PUSH32 0x6D69736D61746368000000000000000000000000000000000000000000000000 PUSH1 0x20 DUP3 ADD MSTORE POP JUMP JUMPDEST PUSH32 0x455243313135353A206D696E7420746F20746865207A65726F20616464726573 PUSH1 0x0 DUP3 ADD MSTORE PUSH32 0x7300000000000000000000000000000000000000000000000000000000000000 PUSH1 0x20 DUP3 ADD MSTORE POP JUMP JUMPDEST PUSH32 0x596F75206861766520747269656420746F2063616C6C2061206D696E74206675 PUSH1 0x0 DUP3 ADD MSTORE PUSH32 0x6E6374696F6E206F6E20616E206578697374696E6720746F6B656E207768696C PUSH1 0x20 DUP3 ADD MSTORE PUSH32 0x652070726F766964696E672061206E6577206D65746164617461205552492E20 PUSH1 0x40 DUP3 ADD MSTORE PUSH32 0x506C656173652063616C6C2074686520636F727265706F6E64696E672066756E PUSH1 0x60 DUP3 ADD MSTORE PUSH32 0x6374696F6E20776974686F757420555249206173206120706172616D65746572 PUSH1 0x80 DUP3 ADD MSTORE PUSH32 0x2E00000000000000000000000000000000000000000000000000000000000000 PUSH1 0xA0 DUP3 ADD MSTORE POP JUMP JUMPDEST PUSH32 0x546F6B656E206973206E6F6E2D6D696E7461626C650000000000000000000000 PUSH1 0x0 DUP3 ADD MSTORE POP JUMP JUMPDEST PUSH1 0x0 PUSH1 0x44 RETURNDATASIZE LT ISZERO PUSH2 0x5889 JUMPI PUSH2 0x590C JUMP JUMPDEST PUSH2 0x5891 PUSH2 0x4B82 JUMP JUMPDEST PUSH1 0x4 RETURNDATASIZE SUB PUSH1 0x4 DUP3 RETURNDATACOPY DUP1 MLOAD RETURNDATASIZE PUSH1 0x24 DUP3 ADD GT PUSH8 0xFFFFFFFFFFFFFFFF DUP3 GT OR ISZERO PUSH2 0x58B9 JUMPI POP POP PUSH2 0x590C JUMP JUMPDEST DUP1 DUP3 ADD DUP1 MLOAD PUSH8 0xFFFFFFFFFFFFFFFF DUP2 GT ISZERO PUSH2 0x58D7 JUMPI POP POP POP POP PUSH2 0x590C JUMP JUMPDEST DUP1 PUSH1 0x20 DUP4 ADD ADD PUSH1 0x4 RETURNDATASIZE SUB DUP6 ADD DUP2 GT ISZERO PUSH2 0x58F4 JUMPI POP POP POP POP POP PUSH2 0x590C JUMP JUMPDEST PUSH2 0x5903 DUP3 PUSH1 0x20 ADD DUP6 ADD DUP7 PUSH2 0x4EAA JUMP JUMPDEST DUP3 SWAP6 POP POP POP POP POP POP JUMPDEST SWAP1 JUMP JUMPDEST PUSH2 0x5918 DUP2 PUSH2 0x4DC2 JUMP JUMPDEST DUP2 EQ PUSH2 0x5923 JUMPI PUSH1 0x0 DUP1 REVERT JUMPDEST POP JUMP JUMPDEST PUSH2 0x592F DUP2 PUSH2 0x4DD4 JUMP JUMPDEST DUP2 EQ PUSH2 0x593A JUMPI PUSH1 0x0 DUP1 REVERT JUMPDEST POP JUMP JUMPDEST PUSH2 0x5946 DUP2 PUSH2 0x4DE0 JUMP JUMPDEST DUP2 EQ PUSH2 0x5951 JUMPI PUSH1 0x0 DUP1 REVERT JUMPDEST POP JUMP JUMPDEST PUSH2 0x595D DUP2 PUSH2 0x4E2C JUMP JUMPDEST DUP2 EQ PUSH2 0x5968 JUMPI PUSH1 0x0 DUP1 REVERT JUMPDEST POP JUMP INVALID LOG2 PUSH5 0x6970667358 0x22 SLT KECCAK256 0xED SWAP11 PUSH5 0x6B950CBB81 0xC2 INVALID DUP3 AND 0xDC 0xCA 0xFB CODESIZE 0xFC 0x5F 0xE4 SAR SHL DUP11 0x28 0xBF 0xCF GASLIMIT 0xA9 DUP10 0xB2 PUSH29 0x9BFB64736F6C63430008010033555249206E6F74206170706C69636162 PUSH13 0x653A205573696E672045524331 BALANCE CALLDATALOAD CALLDATALOAD 0x4D PUSH22 0x6C746955524900000000000000000000000000000000 "
		},
		"gasEstimates": {
			"creation": {
				"codeDepositCost": "4589000",
				"executionCost": "infinite",
				"totalCost": "infinite"
			},
			"external": {
				"approveMetadatForAll(string)": "infinite",
				"approveMetadatForId(uint256,string)": "infinite",
				"balanceOf(address,uint256)": "infinite",
				"balanceOfBatch(address[],uint256[])": "infinite",
				"cannotMintMore(uint256)": "1608",
				"exists(uint256)": "1624",
				"extrasHolder()": "1326",
				"getAllApprovedIdsForMetadata(string)": "infinite",
				"getAllApprovedMetadatasForId(uint256,bool)": "infinite",
				"getAllGloballyApprovedMetadata()": "infinite",
				"getMaxSupply()": "382",
				"getNextUnusedToken()": "1227",
				"initialSupply()": "397",
				"isApprovedForAll(address,address)": "infinite",
				"isMetadataApprovedForAll(string)": "infinite",
				"isMetadataApprovedForId(uint256,string)": "infinite",
				"isPermanentlyUnique(uint256)": "2607",
				"makeApprovedUriListsAppendOnly()": "22134",
				"maxSupply()": "440",
				"mintNextNftToAddress(address)": "infinite",
				"name()": "infinite",
				"nextUnusedToken()": "1241",
				"owner()": "1311",
				"preLoadURIs(uint256[],string[])": "infinite",
				"renounceOwnership()": "24441",
				"safeBatchTransferFrom(address,address,uint256[],uint256[],bytes)": "infinite",
				"safeTransferFrom(address,address,uint256,uint256,bytes)": "infinite",
				"safeUpdateURI(string,address,uint256)": "infinite",
				"setApprovalForAll(address,bool)": "infinite",
				"supportsInterface(bytes4)": "842",
				"symbol()": "infinite",
				"totalSupply()": "1197",
				"totalSupply(uint256)": "infinite",
				"transferOwnership(address)": "24855",
				"unapproveAllMetadataForId(uint256)": "infinite",
				"unapproveMetadatForId(uint256,string)": "infinite",
				"unapproveMetadataForAll(string)": "infinite",
				"uri(uint256)": "infinite"
			}
		},
		"methodIdentifiers": {
			"approveMetadatForAll(string)": "33e06e7c",
			"approveMetadatForId(uint256,string)": "e85eaaff",
			"balanceOf(address,uint256)": "00fdd58e",
			"balanceOfBatch(address[],uint256[])": "4e1273f4",
			"cannotMintMore(uint256)": "2e8e9836",
			"exists(uint256)": "4f558e79",
			"extrasHolder()": "6959c35c",
			"getAllApprovedIdsForMetadata(string)": "68f9dbe1",
			"getAllApprovedMetadatasForId(uint256,bool)": "cebdbea7",
			"getAllGloballyApprovedMetadata()": "3a2aa22b",
			"getMaxSupply()": "4c0f38c2",
			"getNextUnusedToken()": "68fc01a2",
			"initialSupply()": "378dc3dc",
			"isApprovedForAll(address,address)": "e985e9c5",
			"isMetadataApprovedForAll(string)": "3d88cf3d",
			"isMetadataApprovedForId(uint256,string)": "c53dfdac",
			"isPermanentlyUnique(uint256)": "535435fe",
			"makeApprovedUriListsAppendOnly()": "dd1e1656",
			"maxSupply()": "d5abeb01",
			"mintNextNftToAddress(address)": "55676590",
			"name()": "06fdde03",
			"nextUnusedToken()": "3a7f8bdb",
			"owner()": "8da5cb5b",
			"preLoadURIs(uint256[],string[])": "f121da92",
			"renounceOwnership()": "715018a6",
			"safeBatchTransferFrom(address,address,uint256[],uint256[],bytes)": "2eb2c2d6",
			"safeTransferFrom(address,address,uint256,uint256,bytes)": "f242432a",
			"safeUpdateURI(string,address,uint256)": "51486f73",
			"setApprovalForAll(address,bool)": "a22cb465",
			"supportsInterface(bytes4)": "01ffc9a7",
			"symbol()": "95d89b41",
			"totalSupply()": "18160ddd",
			"totalSupply(uint256)": "bd85b039",
			"transferOwnership(address)": "f2fde38b",
			"unapproveAllMetadataForId(uint256)": "6d3cc82d",
			"unapproveMetadatForId(uint256,string)": "15fda194",
			"unapproveMetadataForAll(string)": "29cb0531",
			"uri(uint256)": "0e89341c"
		}
	},
	"abi": [
		{
			"inputs": [],
			"stateMutability": "nonpayable",
			"type": "constructor"
		},
		{
			"anonymous": false,
			"inputs": [
				{
					"indexed": true,
					"internalType": "address",
					"name": "account",
					"type": "address"
				},
				{
					"indexed": true,
					"internalType": "address",
					"name": "operator",
					"type": "address"
				},
				{
					"indexed": false,
					"internalType": "bool",
					"name": "approved",
					"type": "bool"
				}
			],
			"name": "ApprovalForAll",
			"type": "event"
		},
		{
			"anonymous": false,
			"inputs": [
				{
					"indexed": true,
					"internalType": "address",
					"name": "previousOwner",
					"type": "address"
				},
				{
					"indexed": true,
					"internalType": "address",
					"name": "newOwner",
					"type": "address"
				}
			],
			"name": "OwnershipTransferred",
			"type": "event"
		},
		{
			"anonymous": false,
			"inputs": [
				{
					"indexed": true,
					"internalType": "address",
					"name": "operator",
					"type": "address"
				},
				{
					"indexed": true,
					"internalType": "address",
					"name": "from",
					"type": "address"
				},
				{
					"indexed": true,
					"internalType": "address",
					"name": "to",
					"type": "address"
				},
				{
					"indexed": false,
					"internalType": "uint256[]",
					"name": "ids",
					"type": "uint256[]"
				},
				{
					"indexed": false,
					"internalType": "uint256[]",
					"name": "values",
					"type": "uint256[]"
				}
			],
			"name": "TransferBatch",
			"type": "event"
		},
		{
			"anonymous": false,
			"inputs": [
				{
					"indexed": true,
					"internalType": "address",
					"name": "operator",
					"type": "address"
				},
				{
					"indexed": true,
					"internalType": "address",
					"name": "from",
					"type": "address"
				},
				{
					"indexed": true,
					"internalType": "address",
					"name": "to",
					"type": "address"
				},
				{
					"indexed": false,
					"internalType": "uint256",
					"name": "id",
					"type": "uint256"
				},
				{
					"indexed": false,
					"internalType": "uint256",
					"name": "value",
					"type": "uint256"
				}
			],
			"name": "TransferSingle",
			"type": "event"
		},
		{
			"anonymous": false,
			"inputs": [
				{
					"indexed": false,
					"internalType": "string",
					"name": "value",
					"type": "string"
				},
				{
					"indexed": true,
					"internalType": "uint256",
					"name": "id",
					"type": "uint256"
				}
			],
			"name": "URI",
			"type": "event"
		},
		{
			"inputs": [
				{
					"internalType": "string",
					"name": "metadata_uri",
					"type": "string"
				}
			],
			"name": "approveMetadatForAll",
			"outputs": [],
			"stateMutability": "nonpayable",
			"type": "function"
		},
		{
			"inputs": [
				{
					"internalType": "uint256",
					"name": "id",
					"type": "uint256"
				},
				{
					"internalType": "string",
					"name": "metadata_uri",
					"type": "string"
				}
			],
			"name": "approveMetadatForId",
			"outputs": [],
			"stateMutability": "nonpayable",
			"type": "function"
		},
		{
			"inputs": [
				{
					"internalType": "address",
					"name": "account",
					"type": "address"
				},
				{
					"internalType": "uint256",
					"name": "id",
					"type": "uint256"
				}
			],
			"name": "balanceOf",
			"outputs": [
				{
					"internalType": "uint256",
					"name": "",
					"type": "uint256"
				}
			],
			"stateMutability": "view",
			"type": "function"
		},
		{
			"inputs": [
				{
					"internalType": "address[]",
					"name": "accounts",
					"type": "address[]"
				},
				{
					"internalType": "uint256[]",
					"name": "ids",
					"type": "uint256[]"
				}
			],
			"name": "balanceOfBatch",
			"outputs": [
				{
					"internalType": "uint256[]",
					"name": "",
					"type": "uint256[]"
				}
			],
			"stateMutability": "view",
			"type": "function"
		},
		{
			"inputs": [
				{
					"internalType": "uint256",
					"name": "",
					"type": "uint256"
				}
			],
			"name": "cannotMintMore",
			"outputs": [
				{
					"internalType": "bool",
					"name": "",
					"type": "bool"
				}
			],
			"stateMutability": "view",
			"type": "function"
		},
		{
			"inputs": [
				{
					"internalType": "uint256",
					"name": "id",
					"type": "uint256"
				}
			],
			"name": "exists",
			"outputs": [
				{
					"internalType": "bool",
					"name": "",
					"type": "bool"
				}
			],
			"stateMutability": "view",
			"type": "function"
		},
		{
			"inputs": [],
			"name": "extrasHolder",
			"outputs": [
				{
					"internalType": "address",
					"name": "",
					"type": "address"
				}
			],
			"stateMutability": "view",
			"type": "function"
		},
		{
			"inputs": [
				{
					"internalType": "string",
					"name": "metadata_uri",
					"type": "string"
				}
			],
			"name": "getAllApprovedIdsForMetadata",
			"outputs": [
				{
					"internalType": "uint256[]",
					"name": "",
					"type": "uint256[]"
				}
			],
			"stateMutability": "view",
			"type": "function"
		},
		{
			"inputs": [
				{
					"internalType": "uint256",
					"name": "id",
					"type": "uint256"
				},
				{
					"internalType": "bool",
					"name": "includeGloballyApproved",
					"type": "bool"
				}
			],
			"name": "getAllApprovedMetadatasForId",
			"outputs": [
				{
					"internalType": "string[]",
					"name": "",
					"type": "string[]"
				}
			],
			"stateMutability": "view",
			"type": "function"
		},
		{
			"inputs": [],
			"name": "getAllGloballyApprovedMetadata",
			"outputs": [
				{
					"internalType": "string[]",
					"name": "",
					"type": "string[]"
				}
			],
			"stateMutability": "view",
			"type": "function"
		},
		{
			"inputs": [],
			"name": "getMaxSupply",
			"outputs": [
				{
					"internalType": "uint256",
					"name": "",
					"type": "uint256"
				}
			],
			"stateMutability": "pure",
			"type": "function"
		},
		{
			"inputs": [],
			"name": "getNextUnusedToken",
			"outputs": [
				{
					"internalType": "uint256",
					"name": "",
					"type": "uint256"
				}
			],
			"stateMutability": "view",
			"type": "function"
		},
		{
			"inputs": [],
			"name": "initialSupply",
			"outputs": [
				{
					"internalType": "uint256",
					"name": "",
					"type": "uint256"
				}
			],
			"stateMutability": "view",
			"type": "function"
		},
		{
			"inputs": [
				{
					"internalType": "address",
					"name": "account",
					"type": "address"
				},
				{
					"internalType": "address",
					"name": "operator",
					"type": "address"
				}
			],
			"name": "isApprovedForAll",
			"outputs": [
				{
					"internalType": "bool",
					"name": "",
					"type": "bool"
				}
			],
			"stateMutability": "view",
			"type": "function"
		},
		{
			"inputs": [
				{
					"internalType": "string",
					"name": "metadata_uri",
					"type": "string"
				}
			],
			"name": "isMetadataApprovedForAll",
			"outputs": [
				{
					"internalType": "bool",
					"name": "",
					"type": "bool"
				}
			],
			"stateMutability": "view",
			"type": "function"
		},
		{
			"inputs": [
				{
					"internalType": "uint256",
					"name": "id",
					"type": "uint256"
				},
				{
					"internalType": "string",
					"name": "metadata_uri",
					"type": "string"
				}
			],
			"name": "isMetadataApprovedForId",
			"outputs": [
				{
					"internalType": "bool",
					"name": "",
					"type": "bool"
				}
			],
			"stateMutability": "view",
			"type": "function"
		},
		{
			"inputs": [
				{
					"internalType": "uint256",
					"name": "id",
					"type": "uint256"
				}
			],
			"name": "isPermanentlyUnique",
			"outputs": [
				{
					"internalType": "bool",
					"name": "",
					"type": "bool"
				}
			],
			"stateMutability": "view",
			"type": "function"
		},
		{
			"inputs": [],
			"name": "makeApprovedUriListsAppendOnly",
			"outputs": [],
			"stateMutability": "nonpayable",
			"type": "function"
		},
		{
			"inputs": [],
			"name": "maxSupply",
			"outputs": [
				{
					"internalType": "uint256",
					"name": "",
					"type": "uint256"
				}
			],
			"stateMutability": "view",
			"type": "function"
		},
		{
			"inputs": [
				{
					"internalType": "address",
					"name": "to",
					"type": "address"
				}
			],
			"name": "mintNextNftToAddress",
			"outputs": [],
			"stateMutability": "nonpayable",
			"type": "function"
		},
		{
			"inputs": [],
			"name": "name",
			"outputs": [
				{
					"internalType": "string",
					"name": "",
					"type": "string"
				}
			],
			"stateMutability": "view",
			"type": "function"
		},
		{
			"inputs": [],
			"name": "nextUnusedToken",
			"outputs": [
				{
					"internalType": "uint256",
					"name": "",
					"type": "uint256"
				}
			],
			"stateMutability": "view",
			"type": "function"
		},
		{
			"inputs": [],
			"name": "owner",
			"outputs": [
				{
					"internalType": "address",
					"name": "",
					"type": "address"
				}
			],
			"stateMutability": "view",
			"type": "function"
		},
		{
			"inputs": [
				{
					"internalType": "uint256[]",
					"name": "ids",
					"type": "uint256[]"
				},
				{
					"internalType": "string[]",
					"name": "uris",
					"type": "string[]"
				}
			],
			"name": "preLoadURIs",
			"outputs": [],
			"stateMutability": "nonpayable",
			"type": "function"
		},
		{
			"inputs": [],
			"name": "renounceOwnership",
			"outputs": [],
			"stateMutability": "nonpayable",
			"type": "function"
		},
		{
			"inputs": [
				{
					"internalType": "address",
					"name": "from",
					"type": "address"
				},
				{
					"internalType": "address",
					"name": "to",
					"type": "address"
				},
				{
					"internalType": "uint256[]",
					"name": "ids",
					"type": "uint256[]"
				},
				{
					"internalType": "uint256[]",
					"name": "amounts",
					"type": "uint256[]"
				},
				{
					"internalType": "bytes",
					"name": "data",
					"type": "bytes"
				}
			],
			"name": "safeBatchTransferFrom",
			"outputs": [],
			"stateMutability": "nonpayable",
			"type": "function"
		},
		{
			"inputs": [
				{
					"internalType": "address",
					"name": "from",
					"type": "address"
				},
				{
					"internalType": "address",
					"name": "to",
					"type": "address"
				},
				{
					"internalType": "uint256",
					"name": "id",
					"type": "uint256"
				},
				{
					"internalType": "uint256",
					"name": "amount",
					"type": "uint256"
				},
				{
					"internalType": "bytes",
					"name": "data",
					"type": "bytes"
				}
			],
			"name": "safeTransferFrom",
			"outputs": [],
			"stateMutability": "nonpayable",
			"type": "function"
		},
		{
			"inputs": [
				{
					"internalType": "string",
					"name": "newuri",
					"type": "string"
				},
				{
					"internalType": "address",
					"name": "owner",
					"type": "address"
				},
				{
					"internalType": "uint256",
					"name": "id",
					"type": "uint256"
				}
			],
			"name": "safeUpdateURI",
			"outputs": [],
			"stateMutability": "nonpayable",
			"type": "function"
		},
		{
			"inputs": [
				{
					"internalType": "address",
					"name": "operator",
					"type": "address"
				},
				{
					"internalType": "bool",
					"name": "approved",
					"type": "bool"
				}
			],
			"name": "setApprovalForAll",
			"outputs": [],
			"stateMutability": "nonpayable",
			"type": "function"
		},
		{
			"inputs": [
				{
					"internalType": "bytes4",
					"name": "interfaceId",
					"type": "bytes4"
				}
			],
			"name": "supportsInterface",
			"outputs": [
				{
					"internalType": "bool",
					"name": "",
					"type": "bool"
				}
			],
			"stateMutability": "view",
			"type": "function"
		},
		{
			"inputs": [],
			"name": "symbol",
			"outputs": [
				{
					"internalType": "string",
					"name": "",
					"type": "string"
				}
			],
			"stateMutability": "view",
			"type": "function"
		},
		{
			"inputs": [],
			"name": "totalSupply",
			"outputs": [
				{
					"internalType": "uint256",
					"name": "",
					"type": "uint256"
				}
			],
			"stateMutability": "view",
			"type": "function"
		},
		{
			"inputs": [
				{
					"internalType": "uint256",
					"name": "id",
					"type": "uint256"
				}
			],
			"name": "totalSupply",
			"outputs": [
				{
					"internalType": "uint256",
					"name": "",
					"type": "uint256"
				}
			],
			"stateMutability": "view",
			"type": "function"
		},
		{
			"inputs": [
				{
					"internalType": "address",
					"name": "newOwner",
					"type": "address"
				}
			],
			"name": "transferOwnership",
			"outputs": [],
			"stateMutability": "nonpayable",
			"type": "function"
		},
		{
			"inputs": [
				{
					"internalType": "uint256",
					"name": "id",
					"type": "uint256"
				}
			],
			"name": "unapproveAllMetadataForId",
			"outputs": [],
			"stateMutability": "nonpayable",
			"type": "function"
		},
		{
			"inputs": [
				{
					"internalType": "uint256",
					"name": "id",
					"type": "uint256"
				},
				{
					"internalType": "string",
					"name": "metadata_uri",
					"type": "string"
				}
			],
			"name": "unapproveMetadatForId",
			"outputs": [],
			"stateMutability": "nonpayable",
			"type": "function"
		},
		{
			"inputs": [
				{
					"internalType": "string",
					"name": "metadata_uri",
					"type": "string"
				}
			],
			"name": "unapproveMetadataForAll",
			"outputs": [],
			"stateMutability": "nonpayable",
			"type": "function"
		},
		{
			"inputs": [
				{
					"internalType": "uint256",
					"name": "id",
					"type": "uint256"
				}
			],
			"name": "uri",
			"outputs": [
				{
					"internalType": "string",
					"name": "",
					"type": "string"
				}
			],
			"stateMutability": "view",
			"type": "function"
		}
	]
}