{
	"data": {
		"bytecode": {
			"linkReferences": {},
			"object": "60806040526370dc49006005556370dc4964600655620f4240600a620000269190620000aa565b600755620f424060016200003b9190620000aa565b60085560405180606001604052806127108152602001428152602001600015158152506009600082015181600001556020820151816001015560408201518160020160006101000a81548160ff0219169083151502179055505050348015620000a357600080fd5b5062000144565b6000620000b7826200010b565b9150620000c4836200010b565b9250817fffffffffffffffffffffffffffffffffffffffffffffffffffffffffffffffff04831182151516156200010057620000ff62000115565b5b828202905092915050565b6000819050919050565b7f4e487b7100000000000000000000000000000000000000000000000000000000600052601160045260246000fd5b612e6580620001546000396000f3fe608060405234801561001057600080fd5b50600436106101c45760003560e01c80638c83faeb116100f9578063c046371111610097578063ccb98ffc11610071578063ccb98ffc146104c1578063d547741f146104dd578063f121da92146104f9578063f715dfca14610515576101c4565b8063c046371114610465578063c5dae48f14610485578063c5f956af146104a3576101c4565b8063a217fddf116100d3578063a217fddf146103ef578063a77f0c481461040d578063ab6c03061461042b578063bff29cee1461045b576101c4565b80638c83faeb1461038557806391d14854146103a3578063944044a1146103d3576101c4565b80634c9b73da11610166578063551b42a811610140578063551b42a81461030d5780635ce7e7211461032b578063682d07d91461034957806368fc01a214610367576101c4565b80634c9b73da146102b95780634e0ddff9146102d557806351f7598c146102f1576101c4565b80632f2ff15d116101a25780632f2ff15d1461023357806336568abe1461024f578063432c7c5d1461026b5780634c0f38c21461029b576101c4565b806301ffc9a7146101c9578063248a9ca3146101f957806326116d4714610229575b600080fd5b6101e360048036038101906101de9190611e03565b61051f565b6040516101f091906123b2565b60405180910390f35b610213600480360381019061020e9190611d9e565b610599565b60405161022091906123cd565b60405180910390f35b6102316105b8565b005b61024d60048036038101906102489190611dc7565b610746565b005b61026960048036038101906102649190611dc7565b61076f565b005b61028560048036038101906102809190611ccd565b6107f2565b604051610292919061257b565b60405180910390f35b6102a361080e565b6040516102b0919061257b565b60405180910390f35b6102d360048036038101906102ce9190611e2c565b6108b5565b005b6102ef60048036038101906102ea9190611e2c565b6108d8565b005b61030b60048036038101906103069190611ca4565b610a78565b005b610315610ad2565b60405161032291906123cd565b60405180910390f35b610333610af6565b6040516103409190612403565b60405180910390f35b610351610b1c565b60405161035e91906123cd565b60405180910390f35b61036f610b40565b60405161037c919061257b565b60405180910390f35b61038d610be7565b60405161039a91906123e8565b60405180910390f35b6103bd60048036038101906103b89190611dc7565b610c0d565b6040516103ca91906123b2565b60405180910390f35b6103ed60048036038101906103e89190611e2c565b610c77565b005b6103f7610d0c565b60405161040491906123cd565b60405180910390f35b610415610d13565b60405161042291906123cd565b60405180910390f35b61044560048036038101906104409190611ccd565b610d37565b604051610452919061257b565b60405180910390f35b610463610ec8565b005b61046d610ee6565b60405161047c93929190612596565b60405180910390f35b61048d610f0b565b60405161049a919061241e565b60405180910390f35b6104ab610f31565b6040516104b89190612337565b60405180910390f35b6104db60048036038101906104d69190611e2c565b610f57565b005b6104f760048036038101906104f29190611dc7565b610fec565b005b610513600480360381019061050e9190611d09565b611015565b005b61051d611133565b005b60007f7965db0b000000000000000000000000000000000000000000000000000000007bffffffffffffffffffffffffffffffffffffffffffffffffffffffff1916827bffffffffffffffffffffffffffffffffffffffffffffffffffffffff1916148061059257506105918261129b565b5b9050919050565b6000806000838152602001908152602001600020600101549050919050565b6105c0611305565b6105f17fbd1d99152bdba889f82a18def1423aac13658b88b6ea933ffd0b3a6a1dd5cff96105ec6113fd565b610c0d565b8061060c575061060b6000801b6106066113fd565b610c0d565b5b61064b576040517f08c379a00000000000000000000000000000000000000000000000000000000081526004016106429061253b565b60405180910390fd5b6006544211801561066c5750600960020160009054906101000a900460ff16155b6106ab576040517f08c379a00000000000000000000000000000000000000000000000000000000081526004016106a29061247b565b60405180910390fd5b600060016106b7610b40565b6106c19190612806565b6106c961080e565b6106d39190612806565b905060008111610718576040517f08c379a000000000000000000000000000000000000000000000000000000000815260040161070f906124fb565b60405180910390fd5b610743600460009054906101000a900473ffffffffffffffffffffffffffffffffffffffff16611405565b50565b61074f82610599565b6107608161075b6113fd565b611495565b61076a8383611532565b505050565b6107776113fd565b73ffffffffffffffffffffffffffffffffffffffff168173ffffffffffffffffffffffffffffffffffffffff16146107e4576040517f08c379a00000000000000000000000000000000000000000000000000000000081526004016107db9061255b565b60405180910390fd5b6107ee8282611612565b5050565b60006107fc611305565b6108068383610d37565b905092915050565b6000600160009054906101000a900473ffffffffffffffffffffffffffffffffffffffff1673ffffffffffffffffffffffffffffffffffffffff16634c0f38c26040518163ffffffff1660e01b815260040160206040518083038186803b15801561087857600080fd5b505afa15801561088c573d6000803e3d6000fd5b505050506040513d601f19601f820116820180604052508101906108b09190611e55565b905090565b6108bd611305565b60006108c93383610d37565b90506108d4816116f3565b5050565b6108e0611305565b6109117fbd1d99152bdba889f82a18def1423aac13658b88b6ea933ffd0b3a6a1dd5cff961090c6113fd565b610c0d565b8061092c575061092b6000801b6109266113fd565b610c0d565b5b61096b576040517f08c379a00000000000000000000000000000000000000000000000000000000081526004016109629061253b565b60405180910390fd5b6006544211801561098c5750600960020160009054906101000a900460ff16155b6109cb576040517f08c379a00000000000000000000000000000000000000000000000000000000081526004016109c29061247b565b60405180910390fd5b600060016109d7610b40565b6109e19190612806565b6109e961080e565b6109f39190612806565b90506109ff818361178e565b90505b6000811115610a4957610a36600460009054906101000a900473ffffffffffffffffffffffffffffffffffffffff16611405565b8080610a4190612966565b915050610a02565b610a74600460009054906101000a900473ffffffffffffffffffffffffffffffffffffffff16611405565b5050565b6000801b610a8d81610a886113fd565b611495565b81600160006101000a81548173ffffffffffffffffffffffffffffffffffffffff021916908373ffffffffffffffffffffffffffffffffffffffff1602179055505050565b7f988301af8238f779281a300de031815cd01b48e9f1ae47a0f91ed6584213624a81565b600260009054906101000a900473ffffffffffffffffffffffffffffffffffffffff1681565b7fa70a2d8710fed9f014c8c2af50c7c2f6b25748ae4cded822e03b7beed44cf3a881565b6000600160009054906101000a900473ffffffffffffffffffffffffffffffffffffffff1673ffffffffffffffffffffffffffffffffffffffff166368fc01a26040518163ffffffff1660e01b815260040160206040518083038186803b158015610baa57600080fd5b505afa158015610bbe573d6000803e3d6000fd5b505050506040513d601f19601f82011682018060405250810190610be29190611e55565b905090565b600160009054906101000a900473ffffffffffffffffffffffffffffffffffffffff1681565b600080600084815260200190815260200160002060000160008373ffffffffffffffffffffffffffffffffffffffff1673ffffffffffffffffffffffffffffffffffffffff16815260200190815260200160002060009054906101000a900460ff16905092915050565b610ca87f988301af8238f779281a300de031815cd01b48e9f1ae47a0f91ed6584213624a610ca36113fd565b610c0d565b80610cc35750610cc26000801b610cbd6113fd565b610c0d565b5b610d02576040517f08c379a0000000000000000000000000000000000000000000000000000000008152600401610cf9906124bb565b60405180910390fd5b8060058190555050565b6000801b81565b7fbd1d99152bdba889f82a18def1423aac13658b88b6ea933ffd0b3a6a1dd5cff981565b60004260096001015414610d80576040517f08c379a0000000000000000000000000000000000000000000000000000000008152600401610d779061249b565b60405180910390fd5b600260009054906101000a900473ffffffffffffffffffffffffffffffffffffffff1673ffffffffffffffffffffffffffffffffffffffff16632080179d84846040518363ffffffff1660e01b8152600401610ddd929190612352565b60206040518083038186803b158015610df557600080fd5b505afa158015610e09573d6000803e3d6000fd5b505050506040513d601f19601f82011682018060405250810190610e2d9190611d75565b8383604051602001610e409291906122b0565b60405160208183030381529060405290610e90576040517f08c379a0000000000000000000000000000000000000000000000000000000008152600401610e879190612439565b60405180910390fd5b506000826064610ea09190612806565b6064600960000154610eb2919061277b565b610ebc91906127ac565b90508091505092915050565b610ed0611305565b60006009600001549050610ee3816116f3565b50565b60098060000154908060010154908060020160009054906101000a900460ff16905083565b600360009054906101000a900473ffffffffffffffffffffffffffffffffffffffff1681565b600460009054906101000a900473ffffffffffffffffffffffffffffffffffffffff1681565b610f887f988301af8238f779281a300de031815cd01b48e9f1ae47a0f91ed6584213624a610f836113fd565b610c0d565b80610fa35750610fa26000801b610f9d6113fd565b610c0d565b5b610fe2576040517f08c379a0000000000000000000000000000000000000000000000000000000008152600401610fd9906124bb565b60405180910390fd5b8060068190555050565b610ff582610599565b611006816110016113fd565b611495565b6110108383611612565b505050565b6110467fa70a2d8710fed9f014c8c2af50c7c2f6b25748ae4cded822e03b7beed44cf3a86110416113fd565b610c0d565b8061106157506110606000801b61105b6113fd565b610c0d565b5b6110a0576040517f08c379a0000000000000000000000000000000000000000000000000000000008152600401611097906124db565b60405180910390fd5b600160009054906101000a900473ffffffffffffffffffffffffffffffffffffffff1673ffffffffffffffffffffffffffffffffffffffff1663f121da9283836040518363ffffffff1660e01b81526004016110fd92919061237b565b600060405180830381600087803b15801561111757600080fd5b505af115801561112b573d6000803e3d6000fd5b505050505050565b61113b611305565b61116c7fbd1d99152bdba889f82a18def1423aac13658b88b6ea933ffd0b3a6a1dd5cff96111676113fd565b610c0d565b8061118757506111866000801b6111816113fd565b610c0d565b5b6111c6576040517f08c379a00000000000000000000000000000000000000000000000000000000081526004016111bd9061253b565b60405180910390fd5b600654421180156111e75750600960020160009054906101000a900460ff16155b611226576040517f08c379a000000000000000000000000000000000000000000000000000000000815260040161121d9061247b565b60405180910390fd5b60006001611232610b40565b61123c9190612806565b61124461080e565b61124e9190612806565b90505b600081111561129857611285600460009054906101000a900473ffffffffffffffffffffffffffffffffffffffff16611405565b808061129090612966565b915050611251565b50565b60007f01ffc9a7000000000000000000000000000000000000000000000000000000007bffffffffffffffffffffffffffffffffffffffffffffffffffffffff1916827bffffffffffffffffffffffffffffffffffffffffffffffffffffffff1916149050919050565b600654600554111561134c576040517f08c379a00000000000000000000000000000000000000000000000000000000081526004016113439061251b565b60405180910390fd5b620f4240600161135c91906127ac565b603c6005544261136c9190612806565b611376919061277b565b61138091906127ac565b60075461138d9190612806565b6009600001819055504260096001018190555060055442101580156113b457506006544211155b156113dc576001600960020160006101000a81548160ff0219169083151502179055506113fb565b6000600960020160006101000a81548160ff0219169083151502179055505b565b600033905090565b600160009054906101000a900473ffffffffffffffffffffffffffffffffffffffff1673ffffffffffffffffffffffffffffffffffffffff166355676590826040518263ffffffff1660e01b81526004016114609190612337565b600060405180830381600087803b15801561147a57600080fd5b505af115801561148e573d6000803e3d6000fd5b5050505050565b61149f8282610c0d565b61152e576114c48173ffffffffffffffffffffffffffffffffffffffff1660146117a7565b6114d28360001c60206117a7565b6040516020016114e39291906122fd565b6040516020818303038152906040526040517f08c379a00000000000000000000000000000000000000000000000000000000081526004016115259190612439565b60405180910390fd5b5050565b61153c8282610c0d565b61160e57600160008084815260200190815260200160002060000160008373ffffffffffffffffffffffffffffffffffffffff1673ffffffffffffffffffffffffffffffffffffffff16815260200190815260200160002060006101000a81548160ff0219169083151502179055506115b36113fd565b73ffffffffffffffffffffffffffffffffffffffff168173ffffffffffffffffffffffffffffffffffffffff16837f2f8788117e7eff1d82e926ec794901d17c78024a50270940304540a733656f0d60405160405180910390a45b5050565b61161c8282610c0d565b156116ef57600080600084815260200190815260200160002060000160008373ffffffffffffffffffffffffffffffffffffffff1673ffffffffffffffffffffffffffffffffffffffff16815260200190815260200160002060006101000a81548160ff0219169083151502179055506116946113fd565b73ffffffffffffffffffffffffffffffffffffffff168173ffffffffffffffffffffffffffffffffffffffff16837ff6391f5c32d9c69d2a47ea670b442974b53935d1edc7fd64eb21e047a839171b60405160405180910390a45b5050565b600360009054906101000a900473ffffffffffffffffffffffffffffffffffffffff1673ffffffffffffffffffffffffffffffffffffffff1663532b291333836040518363ffffffff1660e01b8152600401611750929190612352565b600060405180830381600087803b15801561176a57600080fd5b505af115801561177e573d6000803e3d6000fd5b5050505061178b33611405565b50565b600081831061179d578161179f565b825b905092915050565b6060600060028360026117ba91906127ac565b6117c49190612725565b67ffffffffffffffff811115611803577f4e487b7100000000000000000000000000000000000000000000000000000000600052604160045260246000fd5b6040519080825280601f01601f1916602001820160405280156118355781602001600182028036833780820191505090505b5090507f300000000000000000000000000000000000000000000000000000000000000081600081518110611893577f4e487b7100000000000000000000000000000000000000000000000000000000600052603260045260246000fd5b60200101907effffffffffffffffffffffffffffffffffffffffffffffffffffffffffffff1916908160001a9053507f78000000000000000000000000000000000000000000000000000000000000008160018151811061191d577f4e487b7100000000000000000000000000000000000000000000000000000000600052603260045260246000fd5b60200101907effffffffffffffffffffffffffffffffffffffffffffffffffffffffffffff1916908160001a9053506000600184600261195d91906127ac565b6119679190612725565b90505b6001811115611a53577f3031323334353637383961626364656600000000000000000000000000000000600f8616601081106119cf577f4e487b7100000000000000000000000000000000000000000000000000000000600052603260045260246000fd5b1a60f81b828281518110611a0c577f4e487b7100000000000000000000000000000000000000000000000000000000600052603260045260246000fd5b60200101907effffffffffffffffffffffffffffffffffffffffffffffffffffffffffffff1916908160001a905350600485901c945080611a4c90612966565b905061196a565b5060008414611a97576040517f08c379a0000000000000000000000000000000000000000000000000000000008152600401611a8e9061245b565b60405180910390fd5b8091505092915050565b6000611ab4611aaf846125f2565b6125cd565b9050808382526020820190508260005b85811015611af45781358501611ada8882611c50565b845260208401935060208301925050600181019050611ac4565b5050509392505050565b6000611b11611b0c8461261e565b6125cd565b90508083825260208201905082856020860282011115611b3057600080fd5b60005b85811015611b605781611b468882611c7a565b845260208401935060208301925050600181019050611b33565b5050509392505050565b6000611b7d611b788461264a565b6125cd565b905082815260208101848484011115611b9557600080fd5b611ba0848285612924565b509392505050565b600081359050611bb781612dbc565b92915050565b600082601f830112611bce57600080fd5b8135611bde848260208601611aa1565b91505092915050565b600082601f830112611bf857600080fd5b8135611c08848260208601611afe565b91505092915050565b600081519050611c2081612dd3565b92915050565b600081359050611c3581612dea565b92915050565b600081359050611c4a81612e01565b92915050565b600082601f830112611c6157600080fd5b8135611c71848260208601611b6a565b91505092915050565b600081359050611c8981612e18565b92915050565b600081519050611c9e81612e18565b92915050565b600060208284031215611cb657600080fd5b6000611cc484828501611ba8565b91505092915050565b60008060408385031215611ce057600080fd5b6000611cee85828601611ba8565b9250506020611cff85828601611c7a565b9150509250929050565b60008060408385031215611d1c57600080fd5b600083013567ffffffffffffffff811115611d3657600080fd5b611d4285828601611be7565b925050602083013567ffffffffffffffff811115611d5f57600080fd5b611d6b85828601611bbd565b9150509250929050565b600060208284031215611d8757600080fd5b6000611d9584828501611c11565b91505092915050565b600060208284031215611db057600080fd5b6000611dbe84828501611c26565b91505092915050565b60008060408385031215611dda57600080fd5b6000611de885828601611c26565b9250506020611df985828601611ba8565b9150509250929050565b600060208284031215611e1557600080fd5b6000611e2384828501611c3b565b91505092915050565b600060208284031215611e3e57600080fd5b6000611e4c84828501611c7a565b91505092915050565b600060208284031215611e6757600080fd5b6000611e7584828501611c8f565b91505092915050565b6000611e8a8383611fee565b905092915050565b6000611e9e838361227b565b60208301905092915050565b611eb38161283a565b82525050565b611eca611ec58261283a565b6129c1565b82525050565b6000611edb8261269b565b611ee581856126d6565b935083602082028501611ef78561267b565b8060005b85811015611f335784840389528151611f148582611e7e565b9450611f1f836126bc565b925060208a01995050600181019050611efb565b50829750879550505050505092915050565b6000611f50826126a6565b611f5a81856126e7565b9350611f658361268b565b8060005b83811015611f96578151611f7d8882611e92565b9750611f88836126c9565b925050600181019050611f69565b5085935050505092915050565b611fac8161284c565b82525050565b611fbb81612858565b82525050565b611fca816128b8565b82525050565b611fd9816128dc565b82525050565b611fe881612900565b82525050565b6000611ff9826126b1565b61200381856126f8565b9350612013818560208601612933565b61201c81612a7c565b840191505092915050565b6000612032826126b1565b61203c8185612709565b935061204c818560208601612933565b61205581612a7c565b840191505092915050565b600061206b826126b1565b612075818561271a565b9350612085818560208601612933565b80840191505092915050565b600061209e602083612709565b91506120a982612a9a565b602082019050919050565b60006120c160088361271a565b91506120cc82612ac3565b600882019050919050565b60006120e4603683612709565b91506120ef82612aec565b604082019050919050565b6000612107601b83612709565b915061211282612b3b565b602082019050919050565b600061212a602383612709565b915061213582612b64565b604082019050919050565b600061214d602283612709565b915061215882612bb3565b604082019050919050565b600061217060018361271a565b915061217b82612c02565b600182019050919050565b600061219360308361271a565b915061219e82612c2b565b603082019050919050565b60006121b6601683612709565b91506121c182612c7a565b602082019050919050565b60006121d9601f83612709565b91506121e482612ca3565b602082019050919050565b60006121fc602783612709565b915061220782612ccc565b604082019050919050565b600061221f60178361271a565b915061222a82612d1b565b601782019050919050565b600061224260118361271a565b915061224d82612d44565b601182019050919050565b6000612265602f83612709565b915061227082612d6d565b604082019050919050565b612284816128ae565b82525050565b612293816128ae565b82525050565b6122aa6122a5826128ae565b6129e5565b82525050565b60006122bb826120b4565b91506122c78285611eb9565b6014820191506122d682612186565b91506122e28284612299565b6020820191506122f182612163565b91508190509392505050565b600061230882612212565b91506123148285612060565b915061231f82612235565b915061232b8284612060565b91508190509392505050565b600060208201905061234c6000830184611eaa565b92915050565b60006040820190506123676000830185611eaa565b612374602083018461228a565b9392505050565b600060408201905081810360008301526123958185611f45565b905081810360208301526123a98184611ed0565b90509392505050565b60006020820190506123c76000830184611fa3565b92915050565b60006020820190506123e26000830184611fb2565b92915050565b60006020820190506123fd6000830184611fc1565b92915050565b60006020820190506124186000830184611fd0565b92915050565b60006020820190506124336000830184611fdf565b92915050565b600060208201905081810360008301526124538184612027565b905092915050565b6000602082019050818103600083015261247481612091565b9050919050565b60006020820190508181036000830152612494816120d7565b9050919050565b600060208201905081810360008301526124b4816120fa565b9050919050565b600060208201905081810360008301526124d48161211d565b9050919050565b600060208201905081810360008301526124f481612140565b9050919050565b60006020820190508181036000830152612514816121a9565b9050919050565b60006020820190508181036000830152612534816121cc565b9050919050565b60006020820190508181036000830152612554816121ef565b9050919050565b6000602082019050818103600083015261257481612258565b9050919050565b6000602082019050612590600083018461228a565b92915050565b60006060820190506125ab600083018661228a565b6125b8602083018561228a565b6125c56040830184611fa3565b949350505050565b60006125d76125e8565b90506125e38282612990565b919050565b6000604051905090565b600067ffffffffffffffff82111561260d5761260c612a4d565b5b602082029050602081019050919050565b600067ffffffffffffffff82111561263957612638612a4d565b5b602082029050602081019050919050565b600067ffffffffffffffff82111561266557612664612a4d565b5b61266e82612a7c565b9050602081019050919050565b6000819050602082019050919050565b6000819050602082019050919050565b600081519050919050565b600081519050919050565b600081519050919050565b6000602082019050919050565b6000602082019050919050565b600082825260208201905092915050565b600082825260208201905092915050565b600082825260208201905092915050565b600082825260208201905092915050565b600081905092915050565b6000612730826128ae565b915061273b836128ae565b9250827fffffffffffffffffffffffffffffffffffffffffffffffffffffffffffffffff038211156127705761276f6129ef565b5b828201905092915050565b6000612786826128ae565b9150612791836128ae565b9250826127a1576127a0612a1e565b5b828204905092915050565b60006127b7826128ae565b91506127c2836128ae565b9250817fffffffffffffffffffffffffffffffffffffffffffffffffffffffffffffffff04831182151516156127fb576127fa6129ef565b5b828202905092915050565b6000612811826128ae565b915061281c836128ae565b92508282101561282f5761282e6129ef565b5b828203905092915050565b60006128458261288e565b9050919050565b60008115159050919050565b6000819050919050565b60007fffffffff0000000000000000000000000000000000000000000000000000000082169050919050565b600073ffffffffffffffffffffffffffffffffffffffff82169050919050565b6000819050919050565b60006128c3826128ca565b9050919050565b60006128d58261288e565b9050919050565b60006128e7826128ee565b9050919050565b60006128f98261288e565b9050919050565b600061290b82612912565b9050919050565b600061291d8261288e565b9050919050565b82818337600083830152505050565b60005b83811015612951578082015181840152602081019050612936565b83811115612960576000848401525b50505050565b6000612971826128ae565b91506000821415612985576129846129ef565b5b600182039050919050565b61299982612a7c565b810181811067ffffffffffffffff821117156129b8576129b7612a4d565b5b80604052505050565b60006129cc826129d3565b9050919050565b60006129de82612a8d565b9050919050565b6000819050919050565b7f4e487b7100000000000000000000000000000000000000000000000000000000600052601160045260246000fd5b7f4e487b7100000000000000000000000000000000000000000000000000000000600052601260045260246000fd5b7f4e487b7100000000000000000000000000000000000000000000000000000000600052604160045260246000fd5b6000601f19601f8301169050919050565b60008160601b9050919050565b7f537472696e67733a20686578206c656e67746820696e73756666696369656e74600082015250565b7f4164647265737320000000000000000000000000000000000000000000000000600082015250565b7f43616e6e6f74206d696e7420746f20747265617375727920616464726573732060008201527f756e74696c2073616c652069732066696e697368656400000000000000000000602082015250565b7f74696d657374616d70206973206e6f742075702d746f2d646174650000000000600082015250565b7f53656e646572206973206e6f742053616c65204d616e61676572206f7220416460008201527f6d696e0000000000000000000000000000000000000000000000000000000000602082015250565b7f53656e646572206973206e6f7420555249204d616e61676572206f722041646d60008201527f696e000000000000000000000000000000000000000000000000000000000000602082015250565b7f2500000000000000000000000000000000000000000000000000000000000000600082015250565b7f20646f6573206e6f742068617665206120636f75706f6e20776974682061206460008201527f6973636f756e742072617465206f662000000000000000000000000000000000602082015250565b7f4e6f20746f6b656e73206c65667420746f206d696e7400000000000000000000600082015250565b7f737461727454696d65206973206c61746572207468616e20656e6454696d6500600082015250565b7f53656e646572206973206e6f7420506f73742d53616c65204d696e746572206f60008201527f722041646d696e00000000000000000000000000000000000000000000000000602082015250565b7f416363657373436f6e74726f6c3a206163636f756e7420000000000000000000600082015250565b7f206973206d697373696e6720726f6c6520000000000000000000000000000000600082015250565b7f416363657373436f6e74726f6c3a2063616e206f6e6c792072656e6f756e636560008201527f20726f6c657320666f722073656c660000000000000000000000000000000000602082015250565b612dc58161283a565b8114612dd057600080fd5b50565b612ddc8161284c565b8114612de757600080fd5b50565b612df381612858565b8114612dfe57600080fd5b50565b612e0a81612862565b8114612e1557600080fd5b50565b612e21816128ae565b8114612e2c57600080fd5b5056fea26469706673582212208e8dd4db6d5153364bfa7953bfc67276c234b4b69996e49b00a26c230e15cd1164736f6c63430008010033",
			"opcodes": "PUSH1 0x80 PUSH1 0x40 MSTORE PUSH4 0x70DC4900 PUSH1 0x5 SSTORE PUSH4 0x70DC4964 PUSH1 0x6 SSTORE PUSH3 0xF4240 PUSH1 0xA PUSH3 0x26 SWAP2 SWAP1 PUSH3 0xAA JUMP JUMPDEST PUSH1 0x7 SSTORE PUSH3 0xF4240 PUSH1 0x1 PUSH3 0x3B SWAP2 SWAP1 PUSH3 0xAA JUMP JUMPDEST PUSH1 0x8 SSTORE PUSH1 0x40 MLOAD DUP1 PUSH1 0x60 ADD PUSH1 0x40 MSTORE DUP1 PUSH2 0x2710 DUP2 MSTORE PUSH1 0x20 ADD TIMESTAMP DUP2 MSTORE PUSH1 0x20 ADD PUSH1 0x0 ISZERO ISZERO DUP2 MSTORE POP PUSH1 0x9 PUSH1 0x0 DUP3 ADD MLOAD DUP2 PUSH1 0x0 ADD SSTORE PUSH1 0x20 DUP3 ADD MLOAD DUP2 PUSH1 0x1 ADD SSTORE PUSH1 0x40 DUP3 ADD MLOAD DUP2 PUSH1 0x2 ADD PUSH1 0x0 PUSH2 0x100 EXP DUP2 SLOAD DUP2 PUSH1 0xFF MUL NOT AND SWAP1 DUP4 ISZERO ISZERO MUL OR SWAP1 SSTORE POP POP POP CALLVALUE DUP1 ISZERO PUSH3 0xA3 JUMPI PUSH1 0x0 DUP1 REVERT JUMPDEST POP PUSH3 0x144 JUMP JUMPDEST PUSH1 0x0 PUSH3 0xB7 DUP3 PUSH3 0x10B JUMP JUMPDEST SWAP2 POP PUSH3 0xC4 DUP4 PUSH3 0x10B JUMP JUMPDEST SWAP3 POP DUP2 PUSH32 0xFFFFFFFFFFFFFFFFFFFFFFFFFFFFFFFFFFFFFFFFFFFFFFFFFFFFFFFFFFFFFFFF DIV DUP4 GT DUP3 ISZERO ISZERO AND ISZERO PUSH3 0x100 JUMPI PUSH3 0xFF PUSH3 0x115 JUMP JUMPDEST JUMPDEST DUP3 DUP3 MUL SWAP1 POP SWAP3 SWAP2 POP POP JUMP JUMPDEST PUSH1 0x0 DUP2 SWAP1 POP SWAP2 SWAP1 POP JUMP JUMPDEST PUSH32 0x4E487B7100000000000000000000000000000000000000000000000000000000 PUSH1 0x0 MSTORE PUSH1 0x11 PUSH1 0x4 MSTORE PUSH1 0x24 PUSH1 0x0 REVERT JUMPDEST PUSH2 0x2E65 DUP1 PUSH3 0x154 PUSH1 0x0 CODECOPY PUSH1 0x0 RETURN INVALID PUSH1 0x80 PUSH1 0x40 MSTORE CALLVALUE DUP1 ISZERO PUSH2 0x10 JUMPI PUSH1 0x0 DUP1 REVERT JUMPDEST POP PUSH1 0x4 CALLDATASIZE LT PUSH2 0x1C4 JUMPI PUSH1 0x0 CALLDATALOAD PUSH1 0xE0 SHR DUP1 PUSH4 0x8C83FAEB GT PUSH2 0xF9 JUMPI DUP1 PUSH4 0xC0463711 GT PUSH2 0x97 JUMPI DUP1 PUSH4 0xCCB98FFC GT PUSH2 0x71 JUMPI DUP1 PUSH4 0xCCB98FFC EQ PUSH2 0x4C1 JUMPI DUP1 PUSH4 0xD547741F EQ PUSH2 0x4DD JUMPI DUP1 PUSH4 0xF121DA92 EQ PUSH2 0x4F9 JUMPI DUP1 PUSH4 0xF715DFCA EQ PUSH2 0x515 JUMPI PUSH2 0x1C4 JUMP JUMPDEST DUP1 PUSH4 0xC0463711 EQ PUSH2 0x465 JUMPI DUP1 PUSH4 0xC5DAE48F EQ PUSH2 0x485 JUMPI DUP1 PUSH4 0xC5F956AF EQ PUSH2 0x4A3 JUMPI PUSH2 0x1C4 JUMP JUMPDEST DUP1 PUSH4 0xA217FDDF GT PUSH2 0xD3 JUMPI DUP1 PUSH4 0xA217FDDF EQ PUSH2 0x3EF JUMPI DUP1 PUSH4 0xA77F0C48 EQ PUSH2 0x40D JUMPI DUP1 PUSH4 0xAB6C0306 EQ PUSH2 0x42B JUMPI DUP1 PUSH4 0xBFF29CEE EQ PUSH2 0x45B JUMPI PUSH2 0x1C4 JUMP JUMPDEST DUP1 PUSH4 0x8C83FAEB EQ PUSH2 0x385 JUMPI DUP1 PUSH4 0x91D14854 EQ PUSH2 0x3A3 JUMPI DUP1 PUSH4 0x944044A1 EQ PUSH2 0x3D3 JUMPI PUSH2 0x1C4 JUMP JUMPDEST DUP1 PUSH4 0x4C9B73DA GT PUSH2 0x166 JUMPI DUP1 PUSH4 0x551B42A8 GT PUSH2 0x140 JUMPI DUP1 PUSH4 0x551B42A8 EQ PUSH2 0x30D JUMPI DUP1 PUSH4 0x5CE7E721 EQ PUSH2 0x32B JUMPI DUP1 PUSH4 0x682D07D9 EQ PUSH2 0x349 JUMPI DUP1 PUSH4 0x68FC01A2 EQ PUSH2 0x367 JUMPI PUSH2 0x1C4 JUMP JUMPDEST DUP1 PUSH4 0x4C9B73DA EQ PUSH2 0x2B9 JUMPI DUP1 PUSH4 0x4E0DDFF9 EQ PUSH2 0x2D5 JUMPI DUP1 PUSH4 0x51F7598C EQ PUSH2 0x2F1 JUMPI PUSH2 0x1C4 JUMP JUMPDEST DUP1 PUSH4 0x2F2FF15D GT PUSH2 0x1A2 JUMPI DUP1 PUSH4 0x2F2FF15D EQ PUSH2 0x233 JUMPI DUP1 PUSH4 0x36568ABE EQ PUSH2 0x24F JUMPI DUP1 PUSH4 0x432C7C5D EQ PUSH2 0x26B JUMPI DUP1 PUSH4 0x4C0F38C2 EQ PUSH2 0x29B JUMPI PUSH2 0x1C4 JUMP JUMPDEST DUP1 PUSH4 0x1FFC9A7 EQ PUSH2 0x1C9 JUMPI DUP1 PUSH4 0x248A9CA3 EQ PUSH2 0x1F9 JUMPI DUP1 PUSH4 0x26116D47 EQ PUSH2 0x229 JUMPI JUMPDEST PUSH1 0x0 DUP1 REVERT JUMPDEST PUSH2 0x1E3 PUSH1 0x4 DUP1 CALLDATASIZE SUB DUP2 ADD SWAP1 PUSH2 0x1DE SWAP2 SWAP1 PUSH2 0x1E03 JUMP JUMPDEST PUSH2 0x51F JUMP JUMPDEST PUSH1 0x40 MLOAD PUSH2 0x1F0 SWAP2 SWAP1 PUSH2 0x23B2 JUMP JUMPDEST PUSH1 0x40 MLOAD DUP1 SWAP2 SUB SWAP1 RETURN JUMPDEST PUSH2 0x213 PUSH1 0x4 DUP1 CALLDATASIZE SUB DUP2 ADD SWAP1 PUSH2 0x20E SWAP2 SWAP1 PUSH2 0x1D9E JUMP JUMPDEST PUSH2 0x599 JUMP JUMPDEST PUSH1 0x40 MLOAD PUSH2 0x220 SWAP2 SWAP1 PUSH2 0x23CD JUMP JUMPDEST PUSH1 0x40 MLOAD DUP1 SWAP2 SUB SWAP1 RETURN JUMPDEST PUSH2 0x231 PUSH2 0x5B8 JUMP JUMPDEST STOP JUMPDEST PUSH2 0x24D PUSH1 0x4 DUP1 CALLDATASIZE SUB DUP2 ADD SWAP1 PUSH2 0x248 SWAP2 SWAP1 PUSH2 0x1DC7 JUMP JUMPDEST PUSH2 0x746 JUMP JUMPDEST STOP JUMPDEST PUSH2 0x269 PUSH1 0x4 DUP1 CALLDATASIZE SUB DUP2 ADD SWAP1 PUSH2 0x264 SWAP2 SWAP1 PUSH2 0x1DC7 JUMP JUMPDEST PUSH2 0x76F JUMP JUMPDEST STOP JUMPDEST PUSH2 0x285 PUSH1 0x4 DUP1 CALLDATASIZE SUB DUP2 ADD SWAP1 PUSH2 0x280 SWAP2 SWAP1 PUSH2 0x1CCD JUMP JUMPDEST PUSH2 0x7F2 JUMP JUMPDEST PUSH1 0x40 MLOAD PUSH2 0x292 SWAP2 SWAP1 PUSH2 0x257B JUMP JUMPDEST PUSH1 0x40 MLOAD DUP1 SWAP2 SUB SWAP1 RETURN JUMPDEST PUSH2 0x2A3 PUSH2 0x80E JUMP JUMPDEST PUSH1 0x40 MLOAD PUSH2 0x2B0 SWAP2 SWAP1 PUSH2 0x257B JUMP JUMPDEST PUSH1 0x40 MLOAD DUP1 SWAP2 SUB SWAP1 RETURN JUMPDEST PUSH2 0x2D3 PUSH1 0x4 DUP1 CALLDATASIZE SUB DUP2 ADD SWAP1 PUSH2 0x2CE SWAP2 SWAP1 PUSH2 0x1E2C JUMP JUMPDEST PUSH2 0x8B5 JUMP JUMPDEST STOP JUMPDEST PUSH2 0x2EF PUSH1 0x4 DUP1 CALLDATASIZE SUB DUP2 ADD SWAP1 PUSH2 0x2EA SWAP2 SWAP1 PUSH2 0x1E2C JUMP JUMPDEST PUSH2 0x8D8 JUMP JUMPDEST STOP JUMPDEST PUSH2 0x30B PUSH1 0x4 DUP1 CALLDATASIZE SUB DUP2 ADD SWAP1 PUSH2 0x306 SWAP2 SWAP1 PUSH2 0x1CA4 JUMP JUMPDEST PUSH2 0xA78 JUMP JUMPDEST STOP JUMPDEST PUSH2 0x315 PUSH2 0xAD2 JUMP JUMPDEST PUSH1 0x40 MLOAD PUSH2 0x322 SWAP2 SWAP1 PUSH2 0x23CD JUMP JUMPDEST PUSH1 0x40 MLOAD DUP1 SWAP2 SUB SWAP1 RETURN JUMPDEST PUSH2 0x333 PUSH2 0xAF6 JUMP JUMPDEST PUSH1 0x40 MLOAD PUSH2 0x340 SWAP2 SWAP1 PUSH2 0x2403 JUMP JUMPDEST PUSH1 0x40 MLOAD DUP1 SWAP2 SUB SWAP1 RETURN JUMPDEST PUSH2 0x351 PUSH2 0xB1C JUMP JUMPDEST PUSH1 0x40 MLOAD PUSH2 0x35E SWAP2 SWAP1 PUSH2 0x23CD JUMP JUMPDEST PUSH1 0x40 MLOAD DUP1 SWAP2 SUB SWAP1 RETURN JUMPDEST PUSH2 0x36F PUSH2 0xB40 JUMP JUMPDEST PUSH1 0x40 MLOAD PUSH2 0x37C SWAP2 SWAP1 PUSH2 0x257B JUMP JUMPDEST PUSH1 0x40 MLOAD DUP1 SWAP2 SUB SWAP1 RETURN JUMPDEST PUSH2 0x38D PUSH2 0xBE7 JUMP JUMPDEST PUSH1 0x40 MLOAD PUSH2 0x39A SWAP2 SWAP1 PUSH2 0x23E8 JUMP JUMPDEST PUSH1 0x40 MLOAD DUP1 SWAP2 SUB SWAP1 RETURN JUMPDEST PUSH2 0x3BD PUSH1 0x4 DUP1 CALLDATASIZE SUB DUP2 ADD SWAP1 PUSH2 0x3B8 SWAP2 SWAP1 PUSH2 0x1DC7 JUMP JUMPDEST PUSH2 0xC0D JUMP JUMPDEST PUSH1 0x40 MLOAD PUSH2 0x3CA SWAP2 SWAP1 PUSH2 0x23B2 JUMP JUMPDEST PUSH1 0x40 MLOAD DUP1 SWAP2 SUB SWAP1 RETURN JUMPDEST PUSH2 0x3ED PUSH1 0x4 DUP1 CALLDATASIZE SUB DUP2 ADD SWAP1 PUSH2 0x3E8 SWAP2 SWAP1 PUSH2 0x1E2C JUMP JUMPDEST PUSH2 0xC77 JUMP JUMPDEST STOP JUMPDEST PUSH2 0x3F7 PUSH2 0xD0C JUMP JUMPDEST PUSH1 0x40 MLOAD PUSH2 0x404 SWAP2 SWAP1 PUSH2 0x23CD JUMP JUMPDEST PUSH1 0x40 MLOAD DUP1 SWAP2 SUB SWAP1 RETURN JUMPDEST PUSH2 0x415 PUSH2 0xD13 JUMP JUMPDEST PUSH1 0x40 MLOAD PUSH2 0x422 SWAP2 SWAP1 PUSH2 0x23CD JUMP JUMPDEST PUSH1 0x40 MLOAD DUP1 SWAP2 SUB SWAP1 RETURN JUMPDEST PUSH2 0x445 PUSH1 0x4 DUP1 CALLDATASIZE SUB DUP2 ADD SWAP1 PUSH2 0x440 SWAP2 SWAP1 PUSH2 0x1CCD JUMP JUMPDEST PUSH2 0xD37 JUMP JUMPDEST PUSH1 0x40 MLOAD PUSH2 0x452 SWAP2 SWAP1 PUSH2 0x257B JUMP JUMPDEST PUSH1 0x40 MLOAD DUP1 SWAP2 SUB SWAP1 RETURN JUMPDEST PUSH2 0x463 PUSH2 0xEC8 JUMP JUMPDEST STOP JUMPDEST PUSH2 0x46D PUSH2 0xEE6 JUMP JUMPDEST PUSH1 0x40 MLOAD PUSH2 0x47C SWAP4 SWAP3 SWAP2 SWAP1 PUSH2 0x2596 JUMP JUMPDEST PUSH1 0x40 MLOAD DUP1 SWAP2 SUB SWAP1 RETURN JUMPDEST PUSH2 0x48D PUSH2 0xF0B JUMP JUMPDEST PUSH1 0x40 MLOAD PUSH2 0x49A SWAP2 SWAP1 PUSH2 0x241E JUMP JUMPDEST PUSH1 0x40 MLOAD DUP1 SWAP2 SUB SWAP1 RETURN JUMPDEST PUSH2 0x4AB PUSH2 0xF31 JUMP JUMPDEST PUSH1 0x40 MLOAD PUSH2 0x4B8 SWAP2 SWAP1 PUSH2 0x2337 JUMP JUMPDEST PUSH1 0x40 MLOAD DUP1 SWAP2 SUB SWAP1 RETURN JUMPDEST PUSH2 0x4DB PUSH1 0x4 DUP1 CALLDATASIZE SUB DUP2 ADD SWAP1 PUSH2 0x4D6 SWAP2 SWAP1 PUSH2 0x1E2C JUMP JUMPDEST PUSH2 0xF57 JUMP JUMPDEST STOP JUMPDEST PUSH2 0x4F7 PUSH1 0x4 DUP1 CALLDATASIZE SUB DUP2 ADD SWAP1 PUSH2 0x4F2 SWAP2 SWAP1 PUSH2 0x1DC7 JUMP JUMPDEST PUSH2 0xFEC JUMP JUMPDEST STOP JUMPDEST PUSH2 0x513 PUSH1 0x4 DUP1 CALLDATASIZE SUB DUP2 ADD SWAP1 PUSH2 0x50E SWAP2 SWAP1 PUSH2 0x1D09 JUMP JUMPDEST PUSH2 0x1015 JUMP JUMPDEST STOP JUMPDEST PUSH2 0x51D PUSH2 0x1133 JUMP JUMPDEST STOP JUMPDEST PUSH1 0x0 PUSH32 0x7965DB0B00000000000000000000000000000000000000000000000000000000 PUSH28 0xFFFFFFFFFFFFFFFFFFFFFFFFFFFFFFFFFFFFFFFFFFFFFFFFFFFFFFFF NOT AND DUP3 PUSH28 0xFFFFFFFFFFFFFFFFFFFFFFFFFFFFFFFFFFFFFFFFFFFFFFFFFFFFFFFF NOT AND EQ DUP1 PUSH2 0x592 JUMPI POP PUSH2 0x591 DUP3 PUSH2 0x129B JUMP JUMPDEST JUMPDEST SWAP1 POP SWAP2 SWAP1 POP JUMP JUMPDEST PUSH1 0x0 DUP1 PUSH1 0x0 DUP4 DUP2 MSTORE PUSH1 0x20 ADD SWAP1 DUP2 MSTORE PUSH1 0x20 ADD PUSH1 0x0 KECCAK256 PUSH1 0x1 ADD SLOAD SWAP1 POP SWAP2 SWAP1 POP JUMP JUMPDEST PUSH2 0x5C0 PUSH2 0x1305 JUMP JUMPDEST PUSH2 0x5F1 PUSH32 0xBD1D99152BDBA889F82A18DEF1423AAC13658B88B6EA933FFD0B3A6A1DD5CFF9 PUSH2 0x5EC PUSH2 0x13FD JUMP JUMPDEST PUSH2 0xC0D JUMP JUMPDEST DUP1 PUSH2 0x60C JUMPI POP PUSH2 0x60B PUSH1 0x0 DUP1 SHL PUSH2 0x606 PUSH2 0x13FD JUMP JUMPDEST PUSH2 0xC0D JUMP JUMPDEST JUMPDEST PUSH2 0x64B JUMPI PUSH1 0x40 MLOAD PUSH32 0x8C379A000000000000000000000000000000000000000000000000000000000 DUP2 MSTORE PUSH1 0x4 ADD PUSH2 0x642 SWAP1 PUSH2 0x253B JUMP JUMPDEST PUSH1 0x40 MLOAD DUP1 SWAP2 SUB SWAP1 REVERT JUMPDEST PUSH1 0x6 SLOAD TIMESTAMP GT DUP1 ISZERO PUSH2 0x66C JUMPI POP PUSH1 0x9 PUSH1 0x2 ADD PUSH1 0x0 SWAP1 SLOAD SWAP1 PUSH2 0x100 EXP SWAP1 DIV PUSH1 0xFF AND ISZERO JUMPDEST PUSH2 0x6AB JUMPI PUSH1 0x40 MLOAD PUSH32 0x8C379A000000000000000000000000000000000000000000000000000000000 DUP2 MSTORE PUSH1 0x4 ADD PUSH2 0x6A2 SWAP1 PUSH2 0x247B JUMP JUMPDEST PUSH1 0x40 MLOAD DUP1 SWAP2 SUB SWAP1 REVERT JUMPDEST PUSH1 0x0 PUSH1 0x1 PUSH2 0x6B7 PUSH2 0xB40 JUMP JUMPDEST PUSH2 0x6C1 SWAP2 SWAP1 PUSH2 0x2806 JUMP JUMPDEST PUSH2 0x6C9 PUSH2 0x80E JUMP JUMPDEST PUSH2 0x6D3 SWAP2 SWAP1 PUSH2 0x2806 JUMP JUMPDEST SWAP1 POP PUSH1 0x0 DUP2 GT PUSH2 0x718 JUMPI PUSH1 0x40 MLOAD PUSH32 0x8C379A000000000000000000000000000000000000000000000000000000000 DUP2 MSTORE PUSH1 0x4 ADD PUSH2 0x70F SWAP1 PUSH2 0x24FB JUMP JUMPDEST PUSH1 0x40 MLOAD DUP1 SWAP2 SUB SWAP1 REVERT JUMPDEST PUSH2 0x743 PUSH1 0x4 PUSH1 0x0 SWAP1 SLOAD SWAP1 PUSH2 0x100 EXP SWAP1 DIV PUSH20 0xFFFFFFFFFFFFFFFFFFFFFFFFFFFFFFFFFFFFFFFF AND PUSH2 0x1405 JUMP JUMPDEST POP JUMP JUMPDEST PUSH2 0x74F DUP3 PUSH2 0x599 JUMP JUMPDEST PUSH2 0x760 DUP2 PUSH2 0x75B PUSH2 0x13FD JUMP JUMPDEST PUSH2 0x1495 JUMP JUMPDEST PUSH2 0x76A DUP4 DUP4 PUSH2 0x1532 JUMP JUMPDEST POP POP POP JUMP JUMPDEST PUSH2 0x777 PUSH2 0x13FD JUMP JUMPDEST PUSH20 0xFFFFFFFFFFFFFFFFFFFFFFFFFFFFFFFFFFFFFFFF AND DUP2 PUSH20 0xFFFFFFFFFFFFFFFFFFFFFFFFFFFFFFFFFFFFFFFF AND EQ PUSH2 0x7E4 JUMPI PUSH1 0x40 MLOAD PUSH32 0x8C379A000000000000000000000000000000000000000000000000000000000 DUP2 MSTORE PUSH1 0x4 ADD PUSH2 0x7DB SWAP1 PUSH2 0x255B JUMP JUMPDEST PUSH1 0x40 MLOAD DUP1 SWAP2 SUB SWAP1 REVERT JUMPDEST PUSH2 0x7EE DUP3 DUP3 PUSH2 0x1612 JUMP JUMPDEST POP POP JUMP JUMPDEST PUSH1 0x0 PUSH2 0x7FC PUSH2 0x1305 JUMP JUMPDEST PUSH2 0x806 DUP4 DUP4 PUSH2 0xD37 JUMP JUMPDEST SWAP1 POP SWAP3 SWAP2 POP POP JUMP JUMPDEST PUSH1 0x0 PUSH1 0x1 PUSH1 0x0 SWAP1 SLOAD SWAP1 PUSH2 0x100 EXP SWAP1 DIV PUSH20 0xFFFFFFFFFFFFFFFFFFFFFFFFFFFFFFFFFFFFFFFF AND PUSH20 0xFFFFFFFFFFFFFFFFFFFFFFFFFFFFFFFFFFFFFFFF AND PUSH4 0x4C0F38C2 PUSH1 0x40 MLOAD DUP2 PUSH4 0xFFFFFFFF AND PUSH1 0xE0 SHL DUP2 MSTORE PUSH1 0x4 ADD PUSH1 0x20 PUSH1 0x40 MLOAD DUP1 DUP4 SUB DUP2 DUP7 DUP1 EXTCODESIZE ISZERO DUP1 ISZERO PUSH2 0x878 JUMPI PUSH1 0x0 DUP1 REVERT JUMPDEST POP GAS STATICCALL ISZERO DUP1 ISZERO PUSH2 0x88C JUMPI RETURNDATASIZE PUSH1 0x0 DUP1 RETURNDATACOPY RETURNDATASIZE PUSH1 0x0 REVERT JUMPDEST POP POP POP POP PUSH1 0x40 MLOAD RETURNDATASIZE PUSH1 0x1F NOT PUSH1 0x1F DUP3 ADD AND DUP3 ADD DUP1 PUSH1 0x40 MSTORE POP DUP2 ADD SWAP1 PUSH2 0x8B0 SWAP2 SWAP1 PUSH2 0x1E55 JUMP JUMPDEST SWAP1 POP SWAP1 JUMP JUMPDEST PUSH2 0x8BD PUSH2 0x1305 JUMP JUMPDEST PUSH1 0x0 PUSH2 0x8C9 CALLER DUP4 PUSH2 0xD37 JUMP JUMPDEST SWAP1 POP PUSH2 0x8D4 DUP2 PUSH2 0x16F3 JUMP JUMPDEST POP POP JUMP JUMPDEST PUSH2 0x8E0 PUSH2 0x1305 JUMP JUMPDEST PUSH2 0x911 PUSH32 0xBD1D99152BDBA889F82A18DEF1423AAC13658B88B6EA933FFD0B3A6A1DD5CFF9 PUSH2 0x90C PUSH2 0x13FD JUMP JUMPDEST PUSH2 0xC0D JUMP JUMPDEST DUP1 PUSH2 0x92C JUMPI POP PUSH2 0x92B PUSH1 0x0 DUP1 SHL PUSH2 0x926 PUSH2 0x13FD JUMP JUMPDEST PUSH2 0xC0D JUMP JUMPDEST JUMPDEST PUSH2 0x96B JUMPI PUSH1 0x40 MLOAD PUSH32 0x8C379A000000000000000000000000000000000000000000000000000000000 DUP2 MSTORE PUSH1 0x4 ADD PUSH2 0x962 SWAP1 PUSH2 0x253B JUMP JUMPDEST PUSH1 0x40 MLOAD DUP1 SWAP2 SUB SWAP1 REVERT JUMPDEST PUSH1 0x6 SLOAD TIMESTAMP GT DUP1 ISZERO PUSH2 0x98C JUMPI POP PUSH1 0x9 PUSH1 0x2 ADD PUSH1 0x0 SWAP1 SLOAD SWAP1 PUSH2 0x100 EXP SWAP1 DIV PUSH1 0xFF AND ISZERO JUMPDEST PUSH2 0x9CB JUMPI PUSH1 0x40 MLOAD PUSH32 0x8C379A000000000000000000000000000000000000000000000000000000000 DUP2 MSTORE PUSH1 0x4 ADD PUSH2 0x9C2 SWAP1 PUSH2 0x247B JUMP JUMPDEST PUSH1 0x40 MLOAD DUP1 SWAP2 SUB SWAP1 REVERT JUMPDEST PUSH1 0x0 PUSH1 0x1 PUSH2 0x9D7 PUSH2 0xB40 JUMP JUMPDEST PUSH2 0x9E1 SWAP2 SWAP1 PUSH2 0x2806 JUMP JUMPDEST PUSH2 0x9E9 PUSH2 0x80E JUMP JUMPDEST PUSH2 0x9F3 SWAP2 SWAP1 PUSH2 0x2806 JUMP JUMPDEST SWAP1 POP PUSH2 0x9FF DUP2 DUP4 PUSH2 0x178E JUMP JUMPDEST SWAP1 POP JUMPDEST PUSH1 0x0 DUP2 GT ISZERO PUSH2 0xA49 JUMPI PUSH2 0xA36 PUSH1 0x4 PUSH1 0x0 SWAP1 SLOAD SWAP1 PUSH2 0x100 EXP SWAP1 DIV PUSH20 0xFFFFFFFFFFFFFFFFFFFFFFFFFFFFFFFFFFFFFFFF AND PUSH2 0x1405 JUMP JUMPDEST DUP1 DUP1 PUSH2 0xA41 SWAP1 PUSH2 0x2966 JUMP JUMPDEST SWAP2 POP POP PUSH2 0xA02 JUMP JUMPDEST PUSH2 0xA74 PUSH1 0x4 PUSH1 0x0 SWAP1 SLOAD SWAP1 PUSH2 0x100 EXP SWAP1 DIV PUSH20 0xFFFFFFFFFFFFFFFFFFFFFFFFFFFFFFFFFFFFFFFF AND PUSH2 0x1405 JUMP JUMPDEST POP POP JUMP JUMPDEST PUSH1 0x0 DUP1 SHL PUSH2 0xA8D DUP2 PUSH2 0xA88 PUSH2 0x13FD JUMP JUMPDEST PUSH2 0x1495 JUMP JUMPDEST DUP2 PUSH1 0x1 PUSH1 0x0 PUSH2 0x100 EXP DUP2 SLOAD DUP2 PUSH20 0xFFFFFFFFFFFFFFFFFFFFFFFFFFFFFFFFFFFFFFFF MUL NOT AND SWAP1 DUP4 PUSH20 0xFFFFFFFFFFFFFFFFFFFFFFFFFFFFFFFFFFFFFFFF AND MUL OR SWAP1 SSTORE POP POP POP JUMP JUMPDEST PUSH32 0x988301AF8238F779281A300DE031815CD01B48E9F1AE47A0F91ED6584213624A DUP2 JUMP JUMPDEST PUSH1 0x2 PUSH1 0x0 SWAP1 SLOAD SWAP1 PUSH2 0x100 EXP SWAP1 DIV PUSH20 0xFFFFFFFFFFFFFFFFFFFFFFFFFFFFFFFFFFFFFFFF AND DUP2 JUMP JUMPDEST PUSH32 0xA70A2D8710FED9F014C8C2AF50C7C2F6B25748AE4CDED822E03B7BEED44CF3A8 DUP2 JUMP JUMPDEST PUSH1 0x0 PUSH1 0x1 PUSH1 0x0 SWAP1 SLOAD SWAP1 PUSH2 0x100 EXP SWAP1 DIV PUSH20 0xFFFFFFFFFFFFFFFFFFFFFFFFFFFFFFFFFFFFFFFF AND PUSH20 0xFFFFFFFFFFFFFFFFFFFFFFFFFFFFFFFFFFFFFFFF AND PUSH4 0x68FC01A2 PUSH1 0x40 MLOAD DUP2 PUSH4 0xFFFFFFFF AND PUSH1 0xE0 SHL DUP2 MSTORE PUSH1 0x4 ADD PUSH1 0x20 PUSH1 0x40 MLOAD DUP1 DUP4 SUB DUP2 DUP7 DUP1 EXTCODESIZE ISZERO DUP1 ISZERO PUSH2 0xBAA JUMPI PUSH1 0x0 DUP1 REVERT JUMPDEST POP GAS STATICCALL ISZERO DUP1 ISZERO PUSH2 0xBBE JUMPI RETURNDATASIZE PUSH1 0x0 DUP1 RETURNDATACOPY RETURNDATASIZE PUSH1 0x0 REVERT JUMPDEST POP POP POP POP PUSH1 0x40 MLOAD RETURNDATASIZE PUSH1 0x1F NOT PUSH1 0x1F DUP3 ADD AND DUP3 ADD DUP1 PUSH1 0x40 MSTORE POP DUP2 ADD SWAP1 PUSH2 0xBE2 SWAP2 SWAP1 PUSH2 0x1E55 JUMP JUMPDEST SWAP1 POP SWAP1 JUMP JUMPDEST PUSH1 0x1 PUSH1 0x0 SWAP1 SLOAD SWAP1 PUSH2 0x100 EXP SWAP1 DIV PUSH20 0xFFFFFFFFFFFFFFFFFFFFFFFFFFFFFFFFFFFFFFFF AND DUP2 JUMP JUMPDEST PUSH1 0x0 DUP1 PUSH1 0x0 DUP5 DUP2 MSTORE PUSH1 0x20 ADD SWAP1 DUP2 MSTORE PUSH1 0x20 ADD PUSH1 0x0 KECCAK256 PUSH1 0x0 ADD PUSH1 0x0 DUP4 PUSH20 0xFFFFFFFFFFFFFFFFFFFFFFFFFFFFFFFFFFFFFFFF AND PUSH20 0xFFFFFFFFFFFFFFFFFFFFFFFFFFFFFFFFFFFFFFFF AND DUP2 MSTORE PUSH1 0x20 ADD SWAP1 DUP2 MSTORE PUSH1 0x20 ADD PUSH1 0x0 KECCAK256 PUSH1 0x0 SWAP1 SLOAD SWAP1 PUSH2 0x100 EXP SWAP1 DIV PUSH1 0xFF AND SWAP1 POP SWAP3 SWAP2 POP POP JUMP JUMPDEST PUSH2 0xCA8 PUSH32 0x988301AF8238F779281A300DE031815CD01B48E9F1AE47A0F91ED6584213624A PUSH2 0xCA3 PUSH2 0x13FD JUMP JUMPDEST PUSH2 0xC0D JUMP JUMPDEST DUP1 PUSH2 0xCC3 JUMPI POP PUSH2 0xCC2 PUSH1 0x0 DUP1 SHL PUSH2 0xCBD PUSH2 0x13FD JUMP JUMPDEST PUSH2 0xC0D JUMP JUMPDEST JUMPDEST PUSH2 0xD02 JUMPI PUSH1 0x40 MLOAD PUSH32 0x8C379A000000000000000000000000000000000000000000000000000000000 DUP2 MSTORE PUSH1 0x4 ADD PUSH2 0xCF9 SWAP1 PUSH2 0x24BB JUMP JUMPDEST PUSH1 0x40 MLOAD DUP1 SWAP2 SUB SWAP1 REVERT JUMPDEST DUP1 PUSH1 0x5 DUP2 SWAP1 SSTORE POP POP JUMP JUMPDEST PUSH1 0x0 DUP1 SHL DUP2 JUMP JUMPDEST PUSH32 0xBD1D99152BDBA889F82A18DEF1423AAC13658B88B6EA933FFD0B3A6A1DD5CFF9 DUP2 JUMP JUMPDEST PUSH1 0x0 TIMESTAMP PUSH1 0x9 PUSH1 0x1 ADD SLOAD EQ PUSH2 0xD80 JUMPI PUSH1 0x40 MLOAD PUSH32 0x8C379A000000000000000000000000000000000000000000000000000000000 DUP2 MSTORE PUSH1 0x4 ADD PUSH2 0xD77 SWAP1 PUSH2 0x249B JUMP JUMPDEST PUSH1 0x40 MLOAD DUP1 SWAP2 SUB SWAP1 REVERT JUMPDEST PUSH1 0x2 PUSH1 0x0 SWAP1 SLOAD SWAP1 PUSH2 0x100 EXP SWAP1 DIV PUSH20 0xFFFFFFFFFFFFFFFFFFFFFFFFFFFFFFFFFFFFFFFF AND PUSH20 0xFFFFFFFFFFFFFFFFFFFFFFFFFFFFFFFFFFFFFFFF AND PUSH4 0x2080179D DUP5 DUP5 PUSH1 0x40 MLOAD DUP4 PUSH4 0xFFFFFFFF AND PUSH1 0xE0 SHL DUP2 MSTORE PUSH1 0x4 ADD PUSH2 0xDDD SWAP3 SWAP2 SWAP1 PUSH2 0x2352 JUMP JUMPDEST PUSH1 0x20 PUSH1 0x40 MLOAD DUP1 DUP4 SUB DUP2 DUP7 DUP1 EXTCODESIZE ISZERO DUP1 ISZERO PUSH2 0xDF5 JUMPI PUSH1 0x0 DUP1 REVERT JUMPDEST POP GAS STATICCALL ISZERO DUP1 ISZERO PUSH2 0xE09 JUMPI RETURNDATASIZE PUSH1 0x0 DUP1 RETURNDATACOPY RETURNDATASIZE PUSH1 0x0 REVERT JUMPDEST POP POP POP POP PUSH1 0x40 MLOAD RETURNDATASIZE PUSH1 0x1F NOT PUSH1 0x1F DUP3 ADD AND DUP3 ADD DUP1 PUSH1 0x40 MSTORE POP DUP2 ADD SWAP1 PUSH2 0xE2D SWAP2 SWAP1 PUSH2 0x1D75 JUMP JUMPDEST DUP4 DUP4 PUSH1 0x40 MLOAD PUSH1 0x20 ADD PUSH2 0xE40 SWAP3 SWAP2 SWAP1 PUSH2 0x22B0 JUMP JUMPDEST PUSH1 0x40 MLOAD PUSH1 0x20 DUP2 DUP4 SUB SUB DUP2 MSTORE SWAP1 PUSH1 0x40 MSTORE SWAP1 PUSH2 0xE90 JUMPI PUSH1 0x40 MLOAD PUSH32 0x8C379A000000000000000000000000000000000000000000000000000000000 DUP2 MSTORE PUSH1 0x4 ADD PUSH2 0xE87 SWAP2 SWAP1 PUSH2 0x2439 JUMP JUMPDEST PUSH1 0x40 MLOAD DUP1 SWAP2 SUB SWAP1 REVERT JUMPDEST POP PUSH1 0x0 DUP3 PUSH1 0x64 PUSH2 0xEA0 SWAP2 SWAP1 PUSH2 0x2806 JUMP JUMPDEST PUSH1 0x64 PUSH1 0x9 PUSH1 0x0 ADD SLOAD PUSH2 0xEB2 SWAP2 SWAP1 PUSH2 0x277B JUMP JUMPDEST PUSH2 0xEBC SWAP2 SWAP1 PUSH2 0x27AC JUMP JUMPDEST SWAP1 POP DUP1 SWAP2 POP POP SWAP3 SWAP2 POP POP JUMP JUMPDEST PUSH2 0xED0 PUSH2 0x1305 JUMP JUMPDEST PUSH1 0x0 PUSH1 0x9 PUSH1 0x0 ADD SLOAD SWAP1 POP PUSH2 0xEE3 DUP2 PUSH2 0x16F3 JUMP JUMPDEST POP JUMP JUMPDEST PUSH1 0x9 DUP1 PUSH1 0x0 ADD SLOAD SWAP1 DUP1 PUSH1 0x1 ADD SLOAD SWAP1 DUP1 PUSH1 0x2 ADD PUSH1 0x0 SWAP1 SLOAD SWAP1 PUSH2 0x100 EXP SWAP1 DIV PUSH1 0xFF AND SWAP1 POP DUP4 JUMP JUMPDEST PUSH1 0x3 PUSH1 0x0 SWAP1 SLOAD SWAP1 PUSH2 0x100 EXP SWAP1 DIV PUSH20 0xFFFFFFFFFFFFFFFFFFFFFFFFFFFFFFFFFFFFFFFF AND DUP2 JUMP JUMPDEST PUSH1 0x4 PUSH1 0x0 SWAP1 SLOAD SWAP1 PUSH2 0x100 EXP SWAP1 DIV PUSH20 0xFFFFFFFFFFFFFFFFFFFFFFFFFFFFFFFFFFFFFFFF AND DUP2 JUMP JUMPDEST PUSH2 0xF88 PUSH32 0x988301AF8238F779281A300DE031815CD01B48E9F1AE47A0F91ED6584213624A PUSH2 0xF83 PUSH2 0x13FD JUMP JUMPDEST PUSH2 0xC0D JUMP JUMPDEST DUP1 PUSH2 0xFA3 JUMPI POP PUSH2 0xFA2 PUSH1 0x0 DUP1 SHL PUSH2 0xF9D PUSH2 0x13FD JUMP JUMPDEST PUSH2 0xC0D JUMP JUMPDEST JUMPDEST PUSH2 0xFE2 JUMPI PUSH1 0x40 MLOAD PUSH32 0x8C379A000000000000000000000000000000000000000000000000000000000 DUP2 MSTORE PUSH1 0x4 ADD PUSH2 0xFD9 SWAP1 PUSH2 0x24BB JUMP JUMPDEST PUSH1 0x40 MLOAD DUP1 SWAP2 SUB SWAP1 REVERT JUMPDEST DUP1 PUSH1 0x6 DUP2 SWAP1 SSTORE POP POP JUMP JUMPDEST PUSH2 0xFF5 DUP3 PUSH2 0x599 JUMP JUMPDEST PUSH2 0x1006 DUP2 PUSH2 0x1001 PUSH2 0x13FD JUMP JUMPDEST PUSH2 0x1495 JUMP JUMPDEST PUSH2 0x1010 DUP4 DUP4 PUSH2 0x1612 JUMP JUMPDEST POP POP POP JUMP JUMPDEST PUSH2 0x1046 PUSH32 0xA70A2D8710FED9F014C8C2AF50C7C2F6B25748AE4CDED822E03B7BEED44CF3A8 PUSH2 0x1041 PUSH2 0x13FD JUMP JUMPDEST PUSH2 0xC0D JUMP JUMPDEST DUP1 PUSH2 0x1061 JUMPI POP PUSH2 0x1060 PUSH1 0x0 DUP1 SHL PUSH2 0x105B PUSH2 0x13FD JUMP JUMPDEST PUSH2 0xC0D JUMP JUMPDEST JUMPDEST PUSH2 0x10A0 JUMPI PUSH1 0x40 MLOAD PUSH32 0x8C379A000000000000000000000000000000000000000000000000000000000 DUP2 MSTORE PUSH1 0x4 ADD PUSH2 0x1097 SWAP1 PUSH2 0x24DB JUMP JUMPDEST PUSH1 0x40 MLOAD DUP1 SWAP2 SUB SWAP1 REVERT JUMPDEST PUSH1 0x1 PUSH1 0x0 SWAP1 SLOAD SWAP1 PUSH2 0x100 EXP SWAP1 DIV PUSH20 0xFFFFFFFFFFFFFFFFFFFFFFFFFFFFFFFFFFFFFFFF AND PUSH20 0xFFFFFFFFFFFFFFFFFFFFFFFFFFFFFFFFFFFFFFFF AND PUSH4 0xF121DA92 DUP4 DUP4 PUSH1 0x40 MLOAD DUP4 PUSH4 0xFFFFFFFF AND PUSH1 0xE0 SHL DUP2 MSTORE PUSH1 0x4 ADD PUSH2 0x10FD SWAP3 SWAP2 SWAP1 PUSH2 0x237B JUMP JUMPDEST PUSH1 0x0 PUSH1 0x40 MLOAD DUP1 DUP4 SUB DUP2 PUSH1 0x0 DUP8 DUP1 EXTCODESIZE ISZERO DUP1 ISZERO PUSH2 0x1117 JUMPI PUSH1 0x0 DUP1 REVERT JUMPDEST POP GAS CALL ISZERO DUP1 ISZERO PUSH2 0x112B JUMPI RETURNDATASIZE PUSH1 0x0 DUP1 RETURNDATACOPY RETURNDATASIZE PUSH1 0x0 REVERT JUMPDEST POP POP POP POP POP POP JUMP JUMPDEST PUSH2 0x113B PUSH2 0x1305 JUMP JUMPDEST PUSH2 0x116C PUSH32 0xBD1D99152BDBA889F82A18DEF1423AAC13658B88B6EA933FFD0B3A6A1DD5CFF9 PUSH2 0x1167 PUSH2 0x13FD JUMP JUMPDEST PUSH2 0xC0D JUMP JUMPDEST DUP1 PUSH2 0x1187 JUMPI POP PUSH2 0x1186 PUSH1 0x0 DUP1 SHL PUSH2 0x1181 PUSH2 0x13FD JUMP JUMPDEST PUSH2 0xC0D JUMP JUMPDEST JUMPDEST PUSH2 0x11C6 JUMPI PUSH1 0x40 MLOAD PUSH32 0x8C379A000000000000000000000000000000000000000000000000000000000 DUP2 MSTORE PUSH1 0x4 ADD PUSH2 0x11BD SWAP1 PUSH2 0x253B JUMP JUMPDEST PUSH1 0x40 MLOAD DUP1 SWAP2 SUB SWAP1 REVERT JUMPDEST PUSH1 0x6 SLOAD TIMESTAMP GT DUP1 ISZERO PUSH2 0x11E7 JUMPI POP PUSH1 0x9 PUSH1 0x2 ADD PUSH1 0x0 SWAP1 SLOAD SWAP1 PUSH2 0x100 EXP SWAP1 DIV PUSH1 0xFF AND ISZERO JUMPDEST PUSH2 0x1226 JUMPI PUSH1 0x40 MLOAD PUSH32 0x8C379A000000000000000000000000000000000000000000000000000000000 DUP2 MSTORE PUSH1 0x4 ADD PUSH2 0x121D SWAP1 PUSH2 0x247B JUMP JUMPDEST PUSH1 0x40 MLOAD DUP1 SWAP2 SUB SWAP1 REVERT JUMPDEST PUSH1 0x0 PUSH1 0x1 PUSH2 0x1232 PUSH2 0xB40 JUMP JUMPDEST PUSH2 0x123C SWAP2 SWAP1 PUSH2 0x2806 JUMP JUMPDEST PUSH2 0x1244 PUSH2 0x80E JUMP JUMPDEST PUSH2 0x124E SWAP2 SWAP1 PUSH2 0x2806 JUMP JUMPDEST SWAP1 POP JUMPDEST PUSH1 0x0 DUP2 GT ISZERO PUSH2 0x1298 JUMPI PUSH2 0x1285 PUSH1 0x4 PUSH1 0x0 SWAP1 SLOAD SWAP1 PUSH2 0x100 EXP SWAP1 DIV PUSH20 0xFFFFFFFFFFFFFFFFFFFFFFFFFFFFFFFFFFFFFFFF AND PUSH2 0x1405 JUMP JUMPDEST DUP1 DUP1 PUSH2 0x1290 SWAP1 PUSH2 0x2966 JUMP JUMPDEST SWAP2 POP POP PUSH2 0x1251 JUMP JUMPDEST POP JUMP JUMPDEST PUSH1 0x0 PUSH32 0x1FFC9A700000000000000000000000000000000000000000000000000000000 PUSH28 0xFFFFFFFFFFFFFFFFFFFFFFFFFFFFFFFFFFFFFFFFFFFFFFFFFFFFFFFF NOT AND DUP3 PUSH28 0xFFFFFFFFFFFFFFFFFFFFFFFFFFFFFFFFFFFFFFFFFFFFFFFFFFFFFFFF NOT AND EQ SWAP1 POP SWAP2 SWAP1 POP JUMP JUMPDEST PUSH1 0x6 SLOAD PUSH1 0x5 SLOAD GT ISZERO PUSH2 0x134C JUMPI PUSH1 0x40 MLOAD PUSH32 0x8C379A000000000000000000000000000000000000000000000000000000000 DUP2 MSTORE PUSH1 0x4 ADD PUSH2 0x1343 SWAP1 PUSH2 0x251B JUMP JUMPDEST PUSH1 0x40 MLOAD DUP1 SWAP2 SUB SWAP1 REVERT JUMPDEST PUSH3 0xF4240 PUSH1 0x1 PUSH2 0x135C SWAP2 SWAP1 PUSH2 0x27AC JUMP JUMPDEST PUSH1 0x3C PUSH1 0x5 SLOAD TIMESTAMP PUSH2 0x136C SWAP2 SWAP1 PUSH2 0x2806 JUMP JUMPDEST PUSH2 0x1376 SWAP2 SWAP1 PUSH2 0x277B JUMP JUMPDEST PUSH2 0x1380 SWAP2 SWAP1 PUSH2 0x27AC JUMP JUMPDEST PUSH1 0x7 SLOAD PUSH2 0x138D SWAP2 SWAP1 PUSH2 0x2806 JUMP JUMPDEST PUSH1 0x9 PUSH1 0x0 ADD DUP2 SWAP1 SSTORE POP TIMESTAMP PUSH1 0x9 PUSH1 0x1 ADD DUP2 SWAP1 SSTORE POP PUSH1 0x5 SLOAD TIMESTAMP LT ISZERO DUP1 ISZERO PUSH2 0x13B4 JUMPI POP PUSH1 0x6 SLOAD TIMESTAMP GT ISZERO JUMPDEST ISZERO PUSH2 0x13DC JUMPI PUSH1 0x1 PUSH1 0x9 PUSH1 0x2 ADD PUSH1 0x0 PUSH2 0x100 EXP DUP2 SLOAD DUP2 PUSH1 0xFF MUL NOT AND SWAP1 DUP4 ISZERO ISZERO MUL OR SWAP1 SSTORE POP PUSH2 0x13FB JUMP JUMPDEST PUSH1 0x0 PUSH1 0x9 PUSH1 0x2 ADD PUSH1 0x0 PUSH2 0x100 EXP DUP2 SLOAD DUP2 PUSH1 0xFF MUL NOT AND SWAP1 DUP4 ISZERO ISZERO MUL OR SWAP1 SSTORE POP JUMPDEST JUMP JUMPDEST PUSH1 0x0 CALLER SWAP1 POP SWAP1 JUMP JUMPDEST PUSH1 0x1 PUSH1 0x0 SWAP1 SLOAD SWAP1 PUSH2 0x100 EXP SWAP1 DIV PUSH20 0xFFFFFFFFFFFFFFFFFFFFFFFFFFFFFFFFFFFFFFFF AND PUSH20 0xFFFFFFFFFFFFFFFFFFFFFFFFFFFFFFFFFFFFFFFF AND PUSH4 0x55676590 DUP3 PUSH1 0x40 MLOAD DUP3 PUSH4 0xFFFFFFFF AND PUSH1 0xE0 SHL DUP2 MSTORE PUSH1 0x4 ADD PUSH2 0x1460 SWAP2 SWAP1 PUSH2 0x2337 JUMP JUMPDEST PUSH1 0x0 PUSH1 0x40 MLOAD DUP1 DUP4 SUB DUP2 PUSH1 0x0 DUP8 DUP1 EXTCODESIZE ISZERO DUP1 ISZERO PUSH2 0x147A JUMPI PUSH1 0x0 DUP1 REVERT JUMPDEST POP GAS CALL ISZERO DUP1 ISZERO PUSH2 0x148E JUMPI RETURNDATASIZE PUSH1 0x0 DUP1 RETURNDATACOPY RETURNDATASIZE PUSH1 0x0 REVERT JUMPDEST POP POP POP POP POP JUMP JUMPDEST PUSH2 0x149F DUP3 DUP3 PUSH2 0xC0D JUMP JUMPDEST PUSH2 0x152E JUMPI PUSH2 0x14C4 DUP2 PUSH20 0xFFFFFFFFFFFFFFFFFFFFFFFFFFFFFFFFFFFFFFFF AND PUSH1 0x14 PUSH2 0x17A7 JUMP JUMPDEST PUSH2 0x14D2 DUP4 PUSH1 0x0 SHR PUSH1 0x20 PUSH2 0x17A7 JUMP JUMPDEST PUSH1 0x40 MLOAD PUSH1 0x20 ADD PUSH2 0x14E3 SWAP3 SWAP2 SWAP1 PUSH2 0x22FD JUMP JUMPDEST PUSH1 0x40 MLOAD PUSH1 0x20 DUP2 DUP4 SUB SUB DUP2 MSTORE SWAP1 PUSH1 0x40 MSTORE PUSH1 0x40 MLOAD PUSH32 0x8C379A000000000000000000000000000000000000000000000000000000000 DUP2 MSTORE PUSH1 0x4 ADD PUSH2 0x1525 SWAP2 SWAP1 PUSH2 0x2439 JUMP JUMPDEST PUSH1 0x40 MLOAD DUP1 SWAP2 SUB SWAP1 REVERT JUMPDEST POP POP JUMP JUMPDEST PUSH2 0x153C DUP3 DUP3 PUSH2 0xC0D JUMP JUMPDEST PUSH2 0x160E JUMPI PUSH1 0x1 PUSH1 0x0 DUP1 DUP5 DUP2 MSTORE PUSH1 0x20 ADD SWAP1 DUP2 MSTORE PUSH1 0x20 ADD PUSH1 0x0 KECCAK256 PUSH1 0x0 ADD PUSH1 0x0 DUP4 PUSH20 0xFFFFFFFFFFFFFFFFFFFFFFFFFFFFFFFFFFFFFFFF AND PUSH20 0xFFFFFFFFFFFFFFFFFFFFFFFFFFFFFFFFFFFFFFFF AND DUP2 MSTORE PUSH1 0x20 ADD SWAP1 DUP2 MSTORE PUSH1 0x20 ADD PUSH1 0x0 KECCAK256 PUSH1 0x0 PUSH2 0x100 EXP DUP2 SLOAD DUP2 PUSH1 0xFF MUL NOT AND SWAP1 DUP4 ISZERO ISZERO MUL OR SWAP1 SSTORE POP PUSH2 0x15B3 PUSH2 0x13FD JUMP JUMPDEST PUSH20 0xFFFFFFFFFFFFFFFFFFFFFFFFFFFFFFFFFFFFFFFF AND DUP2 PUSH20 0xFFFFFFFFFFFFFFFFFFFFFFFFFFFFFFFFFFFFFFFF AND DUP4 PUSH32 0x2F8788117E7EFF1D82E926EC794901D17C78024A50270940304540A733656F0D PUSH1 0x40 MLOAD PUSH1 0x40 MLOAD DUP1 SWAP2 SUB SWAP1 LOG4 JUMPDEST POP POP JUMP JUMPDEST PUSH2 0x161C DUP3 DUP3 PUSH2 0xC0D JUMP JUMPDEST ISZERO PUSH2 0x16EF JUMPI PUSH1 0x0 DUP1 PUSH1 0x0 DUP5 DUP2 MSTORE PUSH1 0x20 ADD SWAP1 DUP2 MSTORE PUSH1 0x20 ADD PUSH1 0x0 KECCAK256 PUSH1 0x0 ADD PUSH1 0x0 DUP4 PUSH20 0xFFFFFFFFFFFFFFFFFFFFFFFFFFFFFFFFFFFFFFFF AND PUSH20 0xFFFFFFFFFFFFFFFFFFFFFFFFFFFFFFFFFFFFFFFF AND DUP2 MSTORE PUSH1 0x20 ADD SWAP1 DUP2 MSTORE PUSH1 0x20 ADD PUSH1 0x0 KECCAK256 PUSH1 0x0 PUSH2 0x100 EXP DUP2 SLOAD DUP2 PUSH1 0xFF MUL NOT AND SWAP1 DUP4 ISZERO ISZERO MUL OR SWAP1 SSTORE POP PUSH2 0x1694 PUSH2 0x13FD JUMP JUMPDEST PUSH20 0xFFFFFFFFFFFFFFFFFFFFFFFFFFFFFFFFFFFFFFFF AND DUP2 PUSH20 0xFFFFFFFFFFFFFFFFFFFFFFFFFFFFFFFFFFFFFFFF AND DUP4 PUSH32 0xF6391F5C32D9C69D2A47EA670B442974B53935D1EDC7FD64EB21E047A839171B PUSH1 0x40 MLOAD PUSH1 0x40 MLOAD DUP1 SWAP2 SUB SWAP1 LOG4 JUMPDEST POP POP JUMP JUMPDEST PUSH1 0x3 PUSH1 0x0 SWAP1 SLOAD SWAP1 PUSH2 0x100 EXP SWAP1 DIV PUSH20 0xFFFFFFFFFFFFFFFFFFFFFFFFFFFFFFFFFFFFFFFF AND PUSH20 0xFFFFFFFFFFFFFFFFFFFFFFFFFFFFFFFFFFFFFFFF AND PUSH4 0x532B2913 CALLER DUP4 PUSH1 0x40 MLOAD DUP4 PUSH4 0xFFFFFFFF AND PUSH1 0xE0 SHL DUP2 MSTORE PUSH1 0x4 ADD PUSH2 0x1750 SWAP3 SWAP2 SWAP1 PUSH2 0x2352 JUMP JUMPDEST PUSH1 0x0 PUSH1 0x40 MLOAD DUP1 DUP4 SUB DUP2 PUSH1 0x0 DUP8 DUP1 EXTCODESIZE ISZERO DUP1 ISZERO PUSH2 0x176A JUMPI PUSH1 0x0 DUP1 REVERT JUMPDEST POP GAS CALL ISZERO DUP1 ISZERO PUSH2 0x177E JUMPI RETURNDATASIZE PUSH1 0x0 DUP1 RETURNDATACOPY RETURNDATASIZE PUSH1 0x0 REVERT JUMPDEST POP POP POP POP PUSH2 0x178B CALLER PUSH2 0x1405 JUMP JUMPDEST POP JUMP JUMPDEST PUSH1 0x0 DUP2 DUP4 LT PUSH2 0x179D JUMPI DUP2 PUSH2 0x179F JUMP JUMPDEST DUP3 JUMPDEST SWAP1 POP SWAP3 SWAP2 POP POP JUMP JUMPDEST PUSH1 0x60 PUSH1 0x0 PUSH1 0x2 DUP4 PUSH1 0x2 PUSH2 0x17BA SWAP2 SWAP1 PUSH2 0x27AC JUMP JUMPDEST PUSH2 0x17C4 SWAP2 SWAP1 PUSH2 0x2725 JUMP JUMPDEST PUSH8 0xFFFFFFFFFFFFFFFF DUP2 GT ISZERO PUSH2 0x1803 JUMPI PUSH32 0x4E487B7100000000000000000000000000000000000000000000000000000000 PUSH1 0x0 MSTORE PUSH1 0x41 PUSH1 0x4 MSTORE PUSH1 0x24 PUSH1 0x0 REVERT JUMPDEST PUSH1 0x40 MLOAD SWAP1 DUP1 DUP3 MSTORE DUP1 PUSH1 0x1F ADD PUSH1 0x1F NOT AND PUSH1 0x20 ADD DUP3 ADD PUSH1 0x40 MSTORE DUP1 ISZERO PUSH2 0x1835 JUMPI DUP2 PUSH1 0x20 ADD PUSH1 0x1 DUP3 MUL DUP1 CALLDATASIZE DUP4 CALLDATACOPY DUP1 DUP3 ADD SWAP2 POP POP SWAP1 POP JUMPDEST POP SWAP1 POP PUSH32 0x3000000000000000000000000000000000000000000000000000000000000000 DUP2 PUSH1 0x0 DUP2 MLOAD DUP2 LT PUSH2 0x1893 JUMPI PUSH32 0x4E487B7100000000000000000000000000000000000000000000000000000000 PUSH1 0x0 MSTORE PUSH1 0x32 PUSH1 0x4 MSTORE PUSH1 0x24 PUSH1 0x0 REVERT JUMPDEST PUSH1 0x20 ADD ADD SWAP1 PUSH31 0xFFFFFFFFFFFFFFFFFFFFFFFFFFFFFFFFFFFFFFFFFFFFFFFFFFFFFFFFFFFFFF NOT AND SWAP1 DUP2 PUSH1 0x0 BYTE SWAP1 MSTORE8 POP PUSH32 0x7800000000000000000000000000000000000000000000000000000000000000 DUP2 PUSH1 0x1 DUP2 MLOAD DUP2 LT PUSH2 0x191D JUMPI PUSH32 0x4E487B7100000000000000000000000000000000000000000000000000000000 PUSH1 0x0 MSTORE PUSH1 0x32 PUSH1 0x4 MSTORE PUSH1 0x24 PUSH1 0x0 REVERT JUMPDEST PUSH1 0x20 ADD ADD SWAP1 PUSH31 0xFFFFFFFFFFFFFFFFFFFFFFFFFFFFFFFFFFFFFFFFFFFFFFFFFFFFFFFFFFFFFF NOT AND SWAP1 DUP2 PUSH1 0x0 BYTE SWAP1 MSTORE8 POP PUSH1 0x0 PUSH1 0x1 DUP5 PUSH1 0x2 PUSH2 0x195D SWAP2 SWAP1 PUSH2 0x27AC JUMP JUMPDEST PUSH2 0x1967 SWAP2 SWAP1 PUSH2 0x2725 JUMP JUMPDEST SWAP1 POP JUMPDEST PUSH1 0x1 DUP2 GT ISZERO PUSH2 0x1A53 JUMPI PUSH32 0x3031323334353637383961626364656600000000000000000000000000000000 PUSH1 0xF DUP7 AND PUSH1 0x10 DUP2 LT PUSH2 0x19CF JUMPI PUSH32 0x4E487B7100000000000000000000000000000000000000000000000000000000 PUSH1 0x0 MSTORE PUSH1 0x32 PUSH1 0x4 MSTORE PUSH1 0x24 PUSH1 0x0 REVERT JUMPDEST BYTE PUSH1 0xF8 SHL DUP3 DUP3 DUP2 MLOAD DUP2 LT PUSH2 0x1A0C JUMPI PUSH32 0x4E487B7100000000000000000000000000000000000000000000000000000000 PUSH1 0x0 MSTORE PUSH1 0x32 PUSH1 0x4 MSTORE PUSH1 0x24 PUSH1 0x0 REVERT JUMPDEST PUSH1 0x20 ADD ADD SWAP1 PUSH31 0xFFFFFFFFFFFFFFFFFFFFFFFFFFFFFFFFFFFFFFFFFFFFFFFFFFFFFFFFFFFFFF NOT AND SWAP1 DUP2 PUSH1 0x0 BYTE SWAP1 MSTORE8 POP PUSH1 0x4 DUP6 SWAP1 SHR SWAP5 POP DUP1 PUSH2 0x1A4C SWAP1 PUSH2 0x2966 JUMP JUMPDEST SWAP1 POP PUSH2 0x196A JUMP JUMPDEST POP PUSH1 0x0 DUP5 EQ PUSH2 0x1A97 JUMPI PUSH1 0x40 MLOAD PUSH32 0x8C379A000000000000000000000000000000000000000000000000000000000 DUP2 MSTORE PUSH1 0x4 ADD PUSH2 0x1A8E SWAP1 PUSH2 0x245B JUMP JUMPDEST PUSH1 0x40 MLOAD DUP1 SWAP2 SUB SWAP1 REVERT JUMPDEST DUP1 SWAP2 POP POP SWAP3 SWAP2 POP POP JUMP JUMPDEST PUSH1 0x0 PUSH2 0x1AB4 PUSH2 0x1AAF DUP5 PUSH2 0x25F2 JUMP JUMPDEST PUSH2 0x25CD JUMP JUMPDEST SWAP1 POP DUP1 DUP4 DUP3 MSTORE PUSH1 0x20 DUP3 ADD SWAP1 POP DUP3 PUSH1 0x0 JUMPDEST DUP6 DUP2 LT ISZERO PUSH2 0x1AF4 JUMPI DUP2 CALLDATALOAD DUP6 ADD PUSH2 0x1ADA DUP9 DUP3 PUSH2 0x1C50 JUMP JUMPDEST DUP5 MSTORE PUSH1 0x20 DUP5 ADD SWAP4 POP PUSH1 0x20 DUP4 ADD SWAP3 POP POP PUSH1 0x1 DUP2 ADD SWAP1 POP PUSH2 0x1AC4 JUMP JUMPDEST POP POP POP SWAP4 SWAP3 POP POP POP JUMP JUMPDEST PUSH1 0x0 PUSH2 0x1B11 PUSH2 0x1B0C DUP5 PUSH2 0x261E JUMP JUMPDEST PUSH2 0x25CD JUMP JUMPDEST SWAP1 POP DUP1 DUP4 DUP3 MSTORE PUSH1 0x20 DUP3 ADD SWAP1 POP DUP3 DUP6 PUSH1 0x20 DUP7 MUL DUP3 ADD GT ISZERO PUSH2 0x1B30 JUMPI PUSH1 0x0 DUP1 REVERT JUMPDEST PUSH1 0x0 JUMPDEST DUP6 DUP2 LT ISZERO PUSH2 0x1B60 JUMPI DUP2 PUSH2 0x1B46 DUP9 DUP3 PUSH2 0x1C7A JUMP JUMPDEST DUP5 MSTORE PUSH1 0x20 DUP5 ADD SWAP4 POP PUSH1 0x20 DUP4 ADD SWAP3 POP POP PUSH1 0x1 DUP2 ADD SWAP1 POP PUSH2 0x1B33 JUMP JUMPDEST POP POP POP SWAP4 SWAP3 POP POP POP JUMP JUMPDEST PUSH1 0x0 PUSH2 0x1B7D PUSH2 0x1B78 DUP5 PUSH2 0x264A JUMP JUMPDEST PUSH2 0x25CD JUMP JUMPDEST SWAP1 POP DUP3 DUP2 MSTORE PUSH1 0x20 DUP2 ADD DUP5 DUP5 DUP5 ADD GT ISZERO PUSH2 0x1B95 JUMPI PUSH1 0x0 DUP1 REVERT JUMPDEST PUSH2 0x1BA0 DUP5 DUP3 DUP6 PUSH2 0x2924 JUMP JUMPDEST POP SWAP4 SWAP3 POP POP POP JUMP JUMPDEST PUSH1 0x0 DUP2 CALLDATALOAD SWAP1 POP PUSH2 0x1BB7 DUP2 PUSH2 0x2DBC JUMP JUMPDEST SWAP3 SWAP2 POP POP JUMP JUMPDEST PUSH1 0x0 DUP3 PUSH1 0x1F DUP4 ADD SLT PUSH2 0x1BCE JUMPI PUSH1 0x0 DUP1 REVERT JUMPDEST DUP2 CALLDATALOAD PUSH2 0x1BDE DUP5 DUP3 PUSH1 0x20 DUP7 ADD PUSH2 0x1AA1 JUMP JUMPDEST SWAP2 POP POP SWAP3 SWAP2 POP POP JUMP JUMPDEST PUSH1 0x0 DUP3 PUSH1 0x1F DUP4 ADD SLT PUSH2 0x1BF8 JUMPI PUSH1 0x0 DUP1 REVERT JUMPDEST DUP2 CALLDATALOAD PUSH2 0x1C08 DUP5 DUP3 PUSH1 0x20 DUP7 ADD PUSH2 0x1AFE JUMP JUMPDEST SWAP2 POP POP SWAP3 SWAP2 POP POP JUMP JUMPDEST PUSH1 0x0 DUP2 MLOAD SWAP1 POP PUSH2 0x1C20 DUP2 PUSH2 0x2DD3 JUMP JUMPDEST SWAP3 SWAP2 POP POP JUMP JUMPDEST PUSH1 0x0 DUP2 CALLDATALOAD SWAP1 POP PUSH2 0x1C35 DUP2 PUSH2 0x2DEA JUMP JUMPDEST SWAP3 SWAP2 POP POP JUMP JUMPDEST PUSH1 0x0 DUP2 CALLDATALOAD SWAP1 POP PUSH2 0x1C4A DUP2 PUSH2 0x2E01 JUMP JUMPDEST SWAP3 SWAP2 POP POP JUMP JUMPDEST PUSH1 0x0 DUP3 PUSH1 0x1F DUP4 ADD SLT PUSH2 0x1C61 JUMPI PUSH1 0x0 DUP1 REVERT JUMPDEST DUP2 CALLDATALOAD PUSH2 0x1C71 DUP5 DUP3 PUSH1 0x20 DUP7 ADD PUSH2 0x1B6A JUMP JUMPDEST SWAP2 POP POP SWAP3 SWAP2 POP POP JUMP JUMPDEST PUSH1 0x0 DUP2 CALLDATALOAD SWAP1 POP PUSH2 0x1C89 DUP2 PUSH2 0x2E18 JUMP JUMPDEST SWAP3 SWAP2 POP POP JUMP JUMPDEST PUSH1 0x0 DUP2 MLOAD SWAP1 POP PUSH2 0x1C9E DUP2 PUSH2 0x2E18 JUMP JUMPDEST SWAP3 SWAP2 POP POP JUMP JUMPDEST PUSH1 0x0 PUSH1 0x20 DUP3 DUP5 SUB SLT ISZERO PUSH2 0x1CB6 JUMPI PUSH1 0x0 DUP1 REVERT JUMPDEST PUSH1 0x0 PUSH2 0x1CC4 DUP5 DUP3 DUP6 ADD PUSH2 0x1BA8 JUMP JUMPDEST SWAP2 POP POP SWAP3 SWAP2 POP POP JUMP JUMPDEST PUSH1 0x0 DUP1 PUSH1 0x40 DUP4 DUP6 SUB SLT ISZERO PUSH2 0x1CE0 JUMPI PUSH1 0x0 DUP1 REVERT JUMPDEST PUSH1 0x0 PUSH2 0x1CEE DUP6 DUP3 DUP7 ADD PUSH2 0x1BA8 JUMP JUMPDEST SWAP3 POP POP PUSH1 0x20 PUSH2 0x1CFF DUP6 DUP3 DUP7 ADD PUSH2 0x1C7A JUMP JUMPDEST SWAP2 POP POP SWAP3 POP SWAP3 SWAP1 POP JUMP JUMPDEST PUSH1 0x0 DUP1 PUSH1 0x40 DUP4 DUP6 SUB SLT ISZERO PUSH2 0x1D1C JUMPI PUSH1 0x0 DUP1 REVERT JUMPDEST PUSH1 0x0 DUP4 ADD CALLDATALOAD PUSH8 0xFFFFFFFFFFFFFFFF DUP2 GT ISZERO PUSH2 0x1D36 JUMPI PUSH1 0x0 DUP1 REVERT JUMPDEST PUSH2 0x1D42 DUP6 DUP3 DUP7 ADD PUSH2 0x1BE7 JUMP JUMPDEST SWAP3 POP POP PUSH1 0x20 DUP4 ADD CALLDATALOAD PUSH8 0xFFFFFFFFFFFFFFFF DUP2 GT ISZERO PUSH2 0x1D5F JUMPI PUSH1 0x0 DUP1 REVERT JUMPDEST PUSH2 0x1D6B DUP6 DUP3 DUP7 ADD PUSH2 0x1BBD JUMP JUMPDEST SWAP2 POP POP SWAP3 POP SWAP3 SWAP1 POP JUMP JUMPDEST PUSH1 0x0 PUSH1 0x20 DUP3 DUP5 SUB SLT ISZERO PUSH2 0x1D87 JUMPI PUSH1 0x0 DUP1 REVERT JUMPDEST PUSH1 0x0 PUSH2 0x1D95 DUP5 DUP3 DUP6 ADD PUSH2 0x1C11 JUMP JUMPDEST SWAP2 POP POP SWAP3 SWAP2 POP POP JUMP JUMPDEST PUSH1 0x0 PUSH1 0x20 DUP3 DUP5 SUB SLT ISZERO PUSH2 0x1DB0 JUMPI PUSH1 0x0 DUP1 REVERT JUMPDEST PUSH1 0x0 PUSH2 0x1DBE DUP5 DUP3 DUP6 ADD PUSH2 0x1C26 JUMP JUMPDEST SWAP2 POP POP SWAP3 SWAP2 POP POP JUMP JUMPDEST PUSH1 0x0 DUP1 PUSH1 0x40 DUP4 DUP6 SUB SLT ISZERO PUSH2 0x1DDA JUMPI PUSH1 0x0 DUP1 REVERT JUMPDEST PUSH1 0x0 PUSH2 0x1DE8 DUP6 DUP3 DUP7 ADD PUSH2 0x1C26 JUMP JUMPDEST SWAP3 POP POP PUSH1 0x20 PUSH2 0x1DF9 DUP6 DUP3 DUP7 ADD PUSH2 0x1BA8 JUMP JUMPDEST SWAP2 POP POP SWAP3 POP SWAP3 SWAP1 POP JUMP JUMPDEST PUSH1 0x0 PUSH1 0x20 DUP3 DUP5 SUB SLT ISZERO PUSH2 0x1E15 JUMPI PUSH1 0x0 DUP1 REVERT JUMPDEST PUSH1 0x0 PUSH2 0x1E23 DUP5 DUP3 DUP6 ADD PUSH2 0x1C3B JUMP JUMPDEST SWAP2 POP POP SWAP3 SWAP2 POP POP JUMP JUMPDEST PUSH1 0x0 PUSH1 0x20 DUP3 DUP5 SUB SLT ISZERO PUSH2 0x1E3E JUMPI PUSH1 0x0 DUP1 REVERT JUMPDEST PUSH1 0x0 PUSH2 0x1E4C DUP5 DUP3 DUP6 ADD PUSH2 0x1C7A JUMP JUMPDEST SWAP2 POP POP SWAP3 SWAP2 POP POP JUMP JUMPDEST PUSH1 0x0 PUSH1 0x20 DUP3 DUP5 SUB SLT ISZERO PUSH2 0x1E67 JUMPI PUSH1 0x0 DUP1 REVERT JUMPDEST PUSH1 0x0 PUSH2 0x1E75 DUP5 DUP3 DUP6 ADD PUSH2 0x1C8F JUMP JUMPDEST SWAP2 POP POP SWAP3 SWAP2 POP POP JUMP JUMPDEST PUSH1 0x0 PUSH2 0x1E8A DUP4 DUP4 PUSH2 0x1FEE JUMP JUMPDEST SWAP1 POP SWAP3 SWAP2 POP POP JUMP JUMPDEST PUSH1 0x0 PUSH2 0x1E9E DUP4 DUP4 PUSH2 0x227B JUMP JUMPDEST PUSH1 0x20 DUP4 ADD SWAP1 POP SWAP3 SWAP2 POP POP JUMP JUMPDEST PUSH2 0x1EB3 DUP2 PUSH2 0x283A JUMP JUMPDEST DUP3 MSTORE POP POP JUMP JUMPDEST PUSH2 0x1ECA PUSH2 0x1EC5 DUP3 PUSH2 0x283A JUMP JUMPDEST PUSH2 0x29C1 JUMP JUMPDEST DUP3 MSTORE POP POP JUMP JUMPDEST PUSH1 0x0 PUSH2 0x1EDB DUP3 PUSH2 0x269B JUMP JUMPDEST PUSH2 0x1EE5 DUP2 DUP6 PUSH2 0x26D6 JUMP JUMPDEST SWAP4 POP DUP4 PUSH1 0x20 DUP3 MUL DUP6 ADD PUSH2 0x1EF7 DUP6 PUSH2 0x267B JUMP JUMPDEST DUP1 PUSH1 0x0 JUMPDEST DUP6 DUP2 LT ISZERO PUSH2 0x1F33 JUMPI DUP5 DUP5 SUB DUP10 MSTORE DUP2 MLOAD PUSH2 0x1F14 DUP6 DUP3 PUSH2 0x1E7E JUMP JUMPDEST SWAP5 POP PUSH2 0x1F1F DUP4 PUSH2 0x26BC JUMP JUMPDEST SWAP3 POP PUSH1 0x20 DUP11 ADD SWAP10 POP POP PUSH1 0x1 DUP2 ADD SWAP1 POP PUSH2 0x1EFB JUMP JUMPDEST POP DUP3 SWAP8 POP DUP8 SWAP6 POP POP POP POP POP POP SWAP3 SWAP2 POP POP JUMP JUMPDEST PUSH1 0x0 PUSH2 0x1F50 DUP3 PUSH2 0x26A6 JUMP JUMPDEST PUSH2 0x1F5A DUP2 DUP6 PUSH2 0x26E7 JUMP JUMPDEST SWAP4 POP PUSH2 0x1F65 DUP4 PUSH2 0x268B JUMP JUMPDEST DUP1 PUSH1 0x0 JUMPDEST DUP4 DUP2 LT ISZERO PUSH2 0x1F96 JUMPI DUP2 MLOAD PUSH2 0x1F7D DUP9 DUP3 PUSH2 0x1E92 JUMP JUMPDEST SWAP8 POP PUSH2 0x1F88 DUP4 PUSH2 0x26C9 JUMP JUMPDEST SWAP3 POP POP PUSH1 0x1 DUP2 ADD SWAP1 POP PUSH2 0x1F69 JUMP JUMPDEST POP DUP6 SWAP4 POP POP POP POP SWAP3 SWAP2 POP POP JUMP JUMPDEST PUSH2 0x1FAC DUP2 PUSH2 0x284C JUMP JUMPDEST DUP3 MSTORE POP POP JUMP JUMPDEST PUSH2 0x1FBB DUP2 PUSH2 0x2858 JUMP JUMPDEST DUP3 MSTORE POP POP JUMP JUMPDEST PUSH2 0x1FCA DUP2 PUSH2 0x28B8 JUMP JUMPDEST DUP3 MSTORE POP POP JUMP JUMPDEST PUSH2 0x1FD9 DUP2 PUSH2 0x28DC JUMP JUMPDEST DUP3 MSTORE POP POP JUMP JUMPDEST PUSH2 0x1FE8 DUP2 PUSH2 0x2900 JUMP JUMPDEST DUP3 MSTORE POP POP JUMP JUMPDEST PUSH1 0x0 PUSH2 0x1FF9 DUP3 PUSH2 0x26B1 JUMP JUMPDEST PUSH2 0x2003 DUP2 DUP6 PUSH2 0x26F8 JUMP JUMPDEST SWAP4 POP PUSH2 0x2013 DUP2 DUP6 PUSH1 0x20 DUP7 ADD PUSH2 0x2933 JUMP JUMPDEST PUSH2 0x201C DUP2 PUSH2 0x2A7C JUMP JUMPDEST DUP5 ADD SWAP2 POP POP SWAP3 SWAP2 POP POP JUMP JUMPDEST PUSH1 0x0 PUSH2 0x2032 DUP3 PUSH2 0x26B1 JUMP JUMPDEST PUSH2 0x203C DUP2 DUP6 PUSH2 0x2709 JUMP JUMPDEST SWAP4 POP PUSH2 0x204C DUP2 DUP6 PUSH1 0x20 DUP7 ADD PUSH2 0x2933 JUMP JUMPDEST PUSH2 0x2055 DUP2 PUSH2 0x2A7C JUMP JUMPDEST DUP5 ADD SWAP2 POP POP SWAP3 SWAP2 POP POP JUMP JUMPDEST PUSH1 0x0 PUSH2 0x206B DUP3 PUSH2 0x26B1 JUMP JUMPDEST PUSH2 0x2075 DUP2 DUP6 PUSH2 0x271A JUMP JUMPDEST SWAP4 POP PUSH2 0x2085 DUP2 DUP6 PUSH1 0x20 DUP7 ADD PUSH2 0x2933 JUMP JUMPDEST DUP1 DUP5 ADD SWAP2 POP POP SWAP3 SWAP2 POP POP JUMP JUMPDEST PUSH1 0x0 PUSH2 0x209E PUSH1 0x20 DUP4 PUSH2 0x2709 JUMP JUMPDEST SWAP2 POP PUSH2 0x20A9 DUP3 PUSH2 0x2A9A JUMP JUMPDEST PUSH1 0x20 DUP3 ADD SWAP1 POP SWAP2 SWAP1 POP JUMP JUMPDEST PUSH1 0x0 PUSH2 0x20C1 PUSH1 0x8 DUP4 PUSH2 0x271A JUMP JUMPDEST SWAP2 POP PUSH2 0x20CC DUP3 PUSH2 0x2AC3 JUMP JUMPDEST PUSH1 0x8 DUP3 ADD SWAP1 POP SWAP2 SWAP1 POP JUMP JUMPDEST PUSH1 0x0 PUSH2 0x20E4 PUSH1 0x36 DUP4 PUSH2 0x2709 JUMP JUMPDEST SWAP2 POP PUSH2 0x20EF DUP3 PUSH2 0x2AEC JUMP JUMPDEST PUSH1 0x40 DUP3 ADD SWAP1 POP SWAP2 SWAP1 POP JUMP JUMPDEST PUSH1 0x0 PUSH2 0x2107 PUSH1 0x1B DUP4 PUSH2 0x2709 JUMP JUMPDEST SWAP2 POP PUSH2 0x2112 DUP3 PUSH2 0x2B3B JUMP JUMPDEST PUSH1 0x20 DUP3 ADD SWAP1 POP SWAP2 SWAP1 POP JUMP JUMPDEST PUSH1 0x0 PUSH2 0x212A PUSH1 0x23 DUP4 PUSH2 0x2709 JUMP JUMPDEST SWAP2 POP PUSH2 0x2135 DUP3 PUSH2 0x2B64 JUMP JUMPDEST PUSH1 0x40 DUP3 ADD SWAP1 POP SWAP2 SWAP1 POP JUMP JUMPDEST PUSH1 0x0 PUSH2 0x214D PUSH1 0x22 DUP4 PUSH2 0x2709 JUMP JUMPDEST SWAP2 POP PUSH2 0x2158 DUP3 PUSH2 0x2BB3 JUMP JUMPDEST PUSH1 0x40 DUP3 ADD SWAP1 POP SWAP2 SWAP1 POP JUMP JUMPDEST PUSH1 0x0 PUSH2 0x2170 PUSH1 0x1 DUP4 PUSH2 0x271A JUMP JUMPDEST SWAP2 POP PUSH2 0x217B DUP3 PUSH2 0x2C02 JUMP JUMPDEST PUSH1 0x1 DUP3 ADD SWAP1 POP SWAP2 SWAP1 POP JUMP JUMPDEST PUSH1 0x0 PUSH2 0x2193 PUSH1 0x30 DUP4 PUSH2 0x271A JUMP JUMPDEST SWAP2 POP PUSH2 0x219E DUP3 PUSH2 0x2C2B JUMP JUMPDEST PUSH1 0x30 DUP3 ADD SWAP1 POP SWAP2 SWAP1 POP JUMP JUMPDEST PUSH1 0x0 PUSH2 0x21B6 PUSH1 0x16 DUP4 PUSH2 0x2709 JUMP JUMPDEST SWAP2 POP PUSH2 0x21C1 DUP3 PUSH2 0x2C7A JUMP JUMPDEST PUSH1 0x20 DUP3 ADD SWAP1 POP SWAP2 SWAP1 POP JUMP JUMPDEST PUSH1 0x0 PUSH2 0x21D9 PUSH1 0x1F DUP4 PUSH2 0x2709 JUMP JUMPDEST SWAP2 POP PUSH2 0x21E4 DUP3 PUSH2 0x2CA3 JUMP JUMPDEST PUSH1 0x20 DUP3 ADD SWAP1 POP SWAP2 SWAP1 POP JUMP JUMPDEST PUSH1 0x0 PUSH2 0x21FC PUSH1 0x27 DUP4 PUSH2 0x2709 JUMP JUMPDEST SWAP2 POP PUSH2 0x2207 DUP3 PUSH2 0x2CCC JUMP JUMPDEST PUSH1 0x40 DUP3 ADD SWAP1 POP SWAP2 SWAP1 POP JUMP JUMPDEST PUSH1 0x0 PUSH2 0x221F PUSH1 0x17 DUP4 PUSH2 0x271A JUMP JUMPDEST SWAP2 POP PUSH2 0x222A DUP3 PUSH2 0x2D1B JUMP JUMPDEST PUSH1 0x17 DUP3 ADD SWAP1 POP SWAP2 SWAP1 POP JUMP JUMPDEST PUSH1 0x0 PUSH2 0x2242 PUSH1 0x11 DUP4 PUSH2 0x271A JUMP JUMPDEST SWAP2 POP PUSH2 0x224D DUP3 PUSH2 0x2D44 JUMP JUMPDEST PUSH1 0x11 DUP3 ADD SWAP1 POP SWAP2 SWAP1 POP JUMP JUMPDEST PUSH1 0x0 PUSH2 0x2265 PUSH1 0x2F DUP4 PUSH2 0x2709 JUMP JUMPDEST SWAP2 POP PUSH2 0x2270 DUP3 PUSH2 0x2D6D JUMP JUMPDEST PUSH1 0x40 DUP3 ADD SWAP1 POP SWAP2 SWAP1 POP JUMP JUMPDEST PUSH2 0x2284 DUP2 PUSH2 0x28AE JUMP JUMPDEST DUP3 MSTORE POP POP JUMP JUMPDEST PUSH2 0x2293 DUP2 PUSH2 0x28AE JUMP JUMPDEST DUP3 MSTORE POP POP JUMP JUMPDEST PUSH2 0x22AA PUSH2 0x22A5 DUP3 PUSH2 0x28AE JUMP JUMPDEST PUSH2 0x29E5 JUMP JUMPDEST DUP3 MSTORE POP POP JUMP JUMPDEST PUSH1 0x0 PUSH2 0x22BB DUP3 PUSH2 0x20B4 JUMP JUMPDEST SWAP2 POP PUSH2 0x22C7 DUP3 DUP6 PUSH2 0x1EB9 JUMP JUMPDEST PUSH1 0x14 DUP3 ADD SWAP2 POP PUSH2 0x22D6 DUP3 PUSH2 0x2186 JUMP JUMPDEST SWAP2 POP PUSH2 0x22E2 DUP3 DUP5 PUSH2 0x2299 JUMP JUMPDEST PUSH1 0x20 DUP3 ADD SWAP2 POP PUSH2 0x22F1 DUP3 PUSH2 0x2163 JUMP JUMPDEST SWAP2 POP DUP2 SWAP1 POP SWAP4 SWAP3 POP POP POP JUMP JUMPDEST PUSH1 0x0 PUSH2 0x2308 DUP3 PUSH2 0x2212 JUMP JUMPDEST SWAP2 POP PUSH2 0x2314 DUP3 DUP6 PUSH2 0x2060 JUMP JUMPDEST SWAP2 POP PUSH2 0x231F DUP3 PUSH2 0x2235 JUMP JUMPDEST SWAP2 POP PUSH2 0x232B DUP3 DUP5 PUSH2 0x2060 JUMP JUMPDEST SWAP2 POP DUP2 SWAP1 POP SWAP4 SWAP3 POP POP POP JUMP JUMPDEST PUSH1 0x0 PUSH1 0x20 DUP3 ADD SWAP1 POP PUSH2 0x234C PUSH1 0x0 DUP4 ADD DUP5 PUSH2 0x1EAA JUMP JUMPDEST SWAP3 SWAP2 POP POP JUMP JUMPDEST PUSH1 0x0 PUSH1 0x40 DUP3 ADD SWAP1 POP PUSH2 0x2367 PUSH1 0x0 DUP4 ADD DUP6 PUSH2 0x1EAA JUMP JUMPDEST PUSH2 0x2374 PUSH1 0x20 DUP4 ADD DUP5 PUSH2 0x228A JUMP JUMPDEST SWAP4 SWAP3 POP POP POP JUMP JUMPDEST PUSH1 0x0 PUSH1 0x40 DUP3 ADD SWAP1 POP DUP2 DUP2 SUB PUSH1 0x0 DUP4 ADD MSTORE PUSH2 0x2395 DUP2 DUP6 PUSH2 0x1F45 JUMP JUMPDEST SWAP1 POP DUP2 DUP2 SUB PUSH1 0x20 DUP4 ADD MSTORE PUSH2 0x23A9 DUP2 DUP5 PUSH2 0x1ED0 JUMP JUMPDEST SWAP1 POP SWAP4 SWAP3 POP POP POP JUMP JUMPDEST PUSH1 0x0 PUSH1 0x20 DUP3 ADD SWAP1 POP PUSH2 0x23C7 PUSH1 0x0 DUP4 ADD DUP5 PUSH2 0x1FA3 JUMP JUMPDEST SWAP3 SWAP2 POP POP JUMP JUMPDEST PUSH1 0x0 PUSH1 0x20 DUP3 ADD SWAP1 POP PUSH2 0x23E2 PUSH1 0x0 DUP4 ADD DUP5 PUSH2 0x1FB2 JUMP JUMPDEST SWAP3 SWAP2 POP POP JUMP JUMPDEST PUSH1 0x0 PUSH1 0x20 DUP3 ADD SWAP1 POP PUSH2 0x23FD PUSH1 0x0 DUP4 ADD DUP5 PUSH2 0x1FC1 JUMP JUMPDEST SWAP3 SWAP2 POP POP JUMP JUMPDEST PUSH1 0x0 PUSH1 0x20 DUP3 ADD SWAP1 POP PUSH2 0x2418 PUSH1 0x0 DUP4 ADD DUP5 PUSH2 0x1FD0 JUMP JUMPDEST SWAP3 SWAP2 POP POP JUMP JUMPDEST PUSH1 0x0 PUSH1 0x20 DUP3 ADD SWAP1 POP PUSH2 0x2433 PUSH1 0x0 DUP4 ADD DUP5 PUSH2 0x1FDF JUMP JUMPDEST SWAP3 SWAP2 POP POP JUMP JUMPDEST PUSH1 0x0 PUSH1 0x20 DUP3 ADD SWAP1 POP DUP2 DUP2 SUB PUSH1 0x0 DUP4 ADD MSTORE PUSH2 0x2453 DUP2 DUP5 PUSH2 0x2027 JUMP JUMPDEST SWAP1 POP SWAP3 SWAP2 POP POP JUMP JUMPDEST PUSH1 0x0 PUSH1 0x20 DUP3 ADD SWAP1 POP DUP2 DUP2 SUB PUSH1 0x0 DUP4 ADD MSTORE PUSH2 0x2474 DUP2 PUSH2 0x2091 JUMP JUMPDEST SWAP1 POP SWAP2 SWAP1 POP JUMP JUMPDEST PUSH1 0x0 PUSH1 0x20 DUP3 ADD SWAP1 POP DUP2 DUP2 SUB PUSH1 0x0 DUP4 ADD MSTORE PUSH2 0x2494 DUP2 PUSH2 0x20D7 JUMP JUMPDEST SWAP1 POP SWAP2 SWAP1 POP JUMP JUMPDEST PUSH1 0x0 PUSH1 0x20 DUP3 ADD SWAP1 POP DUP2 DUP2 SUB PUSH1 0x0 DUP4 ADD MSTORE PUSH2 0x24B4 DUP2 PUSH2 0x20FA JUMP JUMPDEST SWAP1 POP SWAP2 SWAP1 POP JUMP JUMPDEST PUSH1 0x0 PUSH1 0x20 DUP3 ADD SWAP1 POP DUP2 DUP2 SUB PUSH1 0x0 DUP4 ADD MSTORE PUSH2 0x24D4 DUP2 PUSH2 0x211D JUMP JUMPDEST SWAP1 POP SWAP2 SWAP1 POP JUMP JUMPDEST PUSH1 0x0 PUSH1 0x20 DUP3 ADD SWAP1 POP DUP2 DUP2 SUB PUSH1 0x0 DUP4 ADD MSTORE PUSH2 0x24F4 DUP2 PUSH2 0x2140 JUMP JUMPDEST SWAP1 POP SWAP2 SWAP1 POP JUMP JUMPDEST PUSH1 0x0 PUSH1 0x20 DUP3 ADD SWAP1 POP DUP2 DUP2 SUB PUSH1 0x0 DUP4 ADD MSTORE PUSH2 0x2514 DUP2 PUSH2 0x21A9 JUMP JUMPDEST SWAP1 POP SWAP2 SWAP1 POP JUMP JUMPDEST PUSH1 0x0 PUSH1 0x20 DUP3 ADD SWAP1 POP DUP2 DUP2 SUB PUSH1 0x0 DUP4 ADD MSTORE PUSH2 0x2534 DUP2 PUSH2 0x21CC JUMP JUMPDEST SWAP1 POP SWAP2 SWAP1 POP JUMP JUMPDEST PUSH1 0x0 PUSH1 0x20 DUP3 ADD SWAP1 POP DUP2 DUP2 SUB PUSH1 0x0 DUP4 ADD MSTORE PUSH2 0x2554 DUP2 PUSH2 0x21EF JUMP JUMPDEST SWAP1 POP SWAP2 SWAP1 POP JUMP JUMPDEST PUSH1 0x0 PUSH1 0x20 DUP3 ADD SWAP1 POP DUP2 DUP2 SUB PUSH1 0x0 DUP4 ADD MSTORE PUSH2 0x2574 DUP2 PUSH2 0x2258 JUMP JUMPDEST SWAP1 POP SWAP2 SWAP1 POP JUMP JUMPDEST PUSH1 0x0 PUSH1 0x20 DUP3 ADD SWAP1 POP PUSH2 0x2590 PUSH1 0x0 DUP4 ADD DUP5 PUSH2 0x228A JUMP JUMPDEST SWAP3 SWAP2 POP POP JUMP JUMPDEST PUSH1 0x0 PUSH1 0x60 DUP3 ADD SWAP1 POP PUSH2 0x25AB PUSH1 0x0 DUP4 ADD DUP7 PUSH2 0x228A JUMP JUMPDEST PUSH2 0x25B8 PUSH1 0x20 DUP4 ADD DUP6 PUSH2 0x228A JUMP JUMPDEST PUSH2 0x25C5 PUSH1 0x40 DUP4 ADD DUP5 PUSH2 0x1FA3 JUMP JUMPDEST SWAP5 SWAP4 POP POP POP POP JUMP JUMPDEST PUSH1 0x0 PUSH2 0x25D7 PUSH2 0x25E8 JUMP JUMPDEST SWAP1 POP PUSH2 0x25E3 DUP3 DUP3 PUSH2 0x2990 JUMP JUMPDEST SWAP2 SWAP1 POP JUMP JUMPDEST PUSH1 0x0 PUSH1 0x40 MLOAD SWAP1 POP SWAP1 JUMP JUMPDEST PUSH1 0x0 PUSH8 0xFFFFFFFFFFFFFFFF DUP3 GT ISZERO PUSH2 0x260D JUMPI PUSH2 0x260C PUSH2 0x2A4D JUMP JUMPDEST JUMPDEST PUSH1 0x20 DUP3 MUL SWAP1 POP PUSH1 0x20 DUP2 ADD SWAP1 POP SWAP2 SWAP1 POP JUMP JUMPDEST PUSH1 0x0 PUSH8 0xFFFFFFFFFFFFFFFF DUP3 GT ISZERO PUSH2 0x2639 JUMPI PUSH2 0x2638 PUSH2 0x2A4D JUMP JUMPDEST JUMPDEST PUSH1 0x20 DUP3 MUL SWAP1 POP PUSH1 0x20 DUP2 ADD SWAP1 POP SWAP2 SWAP1 POP JUMP JUMPDEST PUSH1 0x0 PUSH8 0xFFFFFFFFFFFFFFFF DUP3 GT ISZERO PUSH2 0x2665 JUMPI PUSH2 0x2664 PUSH2 0x2A4D JUMP JUMPDEST JUMPDEST PUSH2 0x266E DUP3 PUSH2 0x2A7C JUMP JUMPDEST SWAP1 POP PUSH1 0x20 DUP2 ADD SWAP1 POP SWAP2 SWAP1 POP JUMP JUMPDEST PUSH1 0x0 DUP2 SWAP1 POP PUSH1 0x20 DUP3 ADD SWAP1 POP SWAP2 SWAP1 POP JUMP JUMPDEST PUSH1 0x0 DUP2 SWAP1 POP PUSH1 0x20 DUP3 ADD SWAP1 POP SWAP2 SWAP1 POP JUMP JUMPDEST PUSH1 0x0 DUP2 MLOAD SWAP1 POP SWAP2 SWAP1 POP JUMP JUMPDEST PUSH1 0x0 DUP2 MLOAD SWAP1 POP SWAP2 SWAP1 POP JUMP JUMPDEST PUSH1 0x0 DUP2 MLOAD SWAP1 POP SWAP2 SWAP1 POP JUMP JUMPDEST PUSH1 0x0 PUSH1 0x20 DUP3 ADD SWAP1 POP SWAP2 SWAP1 POP JUMP JUMPDEST PUSH1 0x0 PUSH1 0x20 DUP3 ADD SWAP1 POP SWAP2 SWAP1 POP JUMP JUMPDEST PUSH1 0x0 DUP3 DUP3 MSTORE PUSH1 0x20 DUP3 ADD SWAP1 POP SWAP3 SWAP2 POP POP JUMP JUMPDEST PUSH1 0x0 DUP3 DUP3 MSTORE PUSH1 0x20 DUP3 ADD SWAP1 POP SWAP3 SWAP2 POP POP JUMP JUMPDEST PUSH1 0x0 DUP3 DUP3 MSTORE PUSH1 0x20 DUP3 ADD SWAP1 POP SWAP3 SWAP2 POP POP JUMP JUMPDEST PUSH1 0x0 DUP3 DUP3 MSTORE PUSH1 0x20 DUP3 ADD SWAP1 POP SWAP3 SWAP2 POP POP JUMP JUMPDEST PUSH1 0x0 DUP2 SWAP1 POP SWAP3 SWAP2 POP POP JUMP JUMPDEST PUSH1 0x0 PUSH2 0x2730 DUP3 PUSH2 0x28AE JUMP JUMPDEST SWAP2 POP PUSH2 0x273B DUP4 PUSH2 0x28AE JUMP JUMPDEST SWAP3 POP DUP3 PUSH32 0xFFFFFFFFFFFFFFFFFFFFFFFFFFFFFFFFFFFFFFFFFFFFFFFFFFFFFFFFFFFFFFFF SUB DUP3 GT ISZERO PUSH2 0x2770 JUMPI PUSH2 0x276F PUSH2 0x29EF JUMP JUMPDEST JUMPDEST DUP3 DUP3 ADD SWAP1 POP SWAP3 SWAP2 POP POP JUMP JUMPDEST PUSH1 0x0 PUSH2 0x2786 DUP3 PUSH2 0x28AE JUMP JUMPDEST SWAP2 POP PUSH2 0x2791 DUP4 PUSH2 0x28AE JUMP JUMPDEST SWAP3 POP DUP3 PUSH2 0x27A1 JUMPI PUSH2 0x27A0 PUSH2 0x2A1E JUMP JUMPDEST JUMPDEST DUP3 DUP3 DIV SWAP1 POP SWAP3 SWAP2 POP POP JUMP JUMPDEST PUSH1 0x0 PUSH2 0x27B7 DUP3 PUSH2 0x28AE JUMP JUMPDEST SWAP2 POP PUSH2 0x27C2 DUP4 PUSH2 0x28AE JUMP JUMPDEST SWAP3 POP DUP2 PUSH32 0xFFFFFFFFFFFFFFFFFFFFFFFFFFFFFFFFFFFFFFFFFFFFFFFFFFFFFFFFFFFFFFFF DIV DUP4 GT DUP3 ISZERO ISZERO AND ISZERO PUSH2 0x27FB JUMPI PUSH2 0x27FA PUSH2 0x29EF JUMP JUMPDEST JUMPDEST DUP3 DUP3 MUL SWAP1 POP SWAP3 SWAP2 POP POP JUMP JUMPDEST PUSH1 0x0 PUSH2 0x2811 DUP3 PUSH2 0x28AE JUMP JUMPDEST SWAP2 POP PUSH2 0x281C DUP4 PUSH2 0x28AE JUMP JUMPDEST SWAP3 POP DUP3 DUP3 LT ISZERO PUSH2 0x282F JUMPI PUSH2 0x282E PUSH2 0x29EF JUMP JUMPDEST JUMPDEST DUP3 DUP3 SUB SWAP1 POP SWAP3 SWAP2 POP POP JUMP JUMPDEST PUSH1 0x0 PUSH2 0x2845 DUP3 PUSH2 0x288E JUMP JUMPDEST SWAP1 POP SWAP2 SWAP1 POP JUMP JUMPDEST PUSH1 0x0 DUP2 ISZERO ISZERO SWAP1 POP SWAP2 SWAP1 POP JUMP JUMPDEST PUSH1 0x0 DUP2 SWAP1 POP SWAP2 SWAP1 POP JUMP JUMPDEST PUSH1 0x0 PUSH32 0xFFFFFFFF00000000000000000000000000000000000000000000000000000000 DUP3 AND SWAP1 POP SWAP2 SWAP1 POP JUMP JUMPDEST PUSH1 0x0 PUSH20 0xFFFFFFFFFFFFFFFFFFFFFFFFFFFFFFFFFFFFFFFF DUP3 AND SWAP1 POP SWAP2 SWAP1 POP JUMP JUMPDEST PUSH1 0x0 DUP2 SWAP1 POP SWAP2 SWAP1 POP JUMP JUMPDEST PUSH1 0x0 PUSH2 0x28C3 DUP3 PUSH2 0x28CA JUMP JUMPDEST SWAP1 POP SWAP2 SWAP1 POP JUMP JUMPDEST PUSH1 0x0 PUSH2 0x28D5 DUP3 PUSH2 0x288E JUMP JUMPDEST SWAP1 POP SWAP2 SWAP1 POP JUMP JUMPDEST PUSH1 0x0 PUSH2 0x28E7 DUP3 PUSH2 0x28EE JUMP JUMPDEST SWAP1 POP SWAP2 SWAP1 POP JUMP JUMPDEST PUSH1 0x0 PUSH2 0x28F9 DUP3 PUSH2 0x288E JUMP JUMPDEST SWAP1 POP SWAP2 SWAP1 POP JUMP JUMPDEST PUSH1 0x0 PUSH2 0x290B DUP3 PUSH2 0x2912 JUMP JUMPDEST SWAP1 POP SWAP2 SWAP1 POP JUMP JUMPDEST PUSH1 0x0 PUSH2 0x291D DUP3 PUSH2 0x288E JUMP JUMPDEST SWAP1 POP SWAP2 SWAP1 POP JUMP JUMPDEST DUP3 DUP2 DUP4 CALLDATACOPY PUSH1 0x0 DUP4 DUP4 ADD MSTORE POP POP POP JUMP JUMPDEST PUSH1 0x0 JUMPDEST DUP4 DUP2 LT ISZERO PUSH2 0x2951 JUMPI DUP1 DUP3 ADD MLOAD DUP2 DUP5 ADD MSTORE PUSH1 0x20 DUP2 ADD SWAP1 POP PUSH2 0x2936 JUMP JUMPDEST DUP4 DUP2 GT ISZERO PUSH2 0x2960 JUMPI PUSH1 0x0 DUP5 DUP5 ADD MSTORE JUMPDEST POP POP POP POP JUMP JUMPDEST PUSH1 0x0 PUSH2 0x2971 DUP3 PUSH2 0x28AE JUMP JUMPDEST SWAP2 POP PUSH1 0x0 DUP3 EQ ISZERO PUSH2 0x2985 JUMPI PUSH2 0x2984 PUSH2 0x29EF JUMP JUMPDEST JUMPDEST PUSH1 0x1 DUP3 SUB SWAP1 POP SWAP2 SWAP1 POP JUMP JUMPDEST PUSH2 0x2999 DUP3 PUSH2 0x2A7C JUMP JUMPDEST DUP2 ADD DUP2 DUP2 LT PUSH8 0xFFFFFFFFFFFFFFFF DUP3 GT OR ISZERO PUSH2 0x29B8 JUMPI PUSH2 0x29B7 PUSH2 0x2A4D JUMP JUMPDEST JUMPDEST DUP1 PUSH1 0x40 MSTORE POP POP POP JUMP JUMPDEST PUSH1 0x0 PUSH2 0x29CC DUP3 PUSH2 0x29D3 JUMP JUMPDEST SWAP1 POP SWAP2 SWAP1 POP JUMP JUMPDEST PUSH1 0x0 PUSH2 0x29DE DUP3 PUSH2 0x2A8D JUMP JUMPDEST SWAP1 POP SWAP2 SWAP1 POP JUMP JUMPDEST PUSH1 0x0 DUP2 SWAP1 POP SWAP2 SWAP1 POP JUMP JUMPDEST PUSH32 0x4E487B7100000000000000000000000000000000000000000000000000000000 PUSH1 0x0 MSTORE PUSH1 0x11 PUSH1 0x4 MSTORE PUSH1 0x24 PUSH1 0x0 REVERT JUMPDEST PUSH32 0x4E487B7100000000000000000000000000000000000000000000000000000000 PUSH1 0x0 MSTORE PUSH1 0x12 PUSH1 0x4 MSTORE PUSH1 0x24 PUSH1 0x0 REVERT JUMPDEST PUSH32 0x4E487B7100000000000000000000000000000000000000000000000000000000 PUSH1 0x0 MSTORE PUSH1 0x41 PUSH1 0x4 MSTORE PUSH1 0x24 PUSH1 0x0 REVERT JUMPDEST PUSH1 0x0 PUSH1 0x1F NOT PUSH1 0x1F DUP4 ADD AND SWAP1 POP SWAP2 SWAP1 POP JUMP JUMPDEST PUSH1 0x0 DUP2 PUSH1 0x60 SHL SWAP1 POP SWAP2 SWAP1 POP JUMP JUMPDEST PUSH32 0x537472696E67733A20686578206C656E67746820696E73756666696369656E74 PUSH1 0x0 DUP3 ADD MSTORE POP JUMP JUMPDEST PUSH32 0x4164647265737320000000000000000000000000000000000000000000000000 PUSH1 0x0 DUP3 ADD MSTORE POP JUMP JUMPDEST PUSH32 0x43616E6E6F74206D696E7420746F207472656173757279206164647265737320 PUSH1 0x0 DUP3 ADD MSTORE PUSH32 0x756E74696C2073616C652069732066696E697368656400000000000000000000 PUSH1 0x20 DUP3 ADD MSTORE POP JUMP JUMPDEST PUSH32 0x74696D657374616D70206973206E6F742075702D746F2D646174650000000000 PUSH1 0x0 DUP3 ADD MSTORE POP JUMP JUMPDEST PUSH32 0x53656E646572206973206E6F742053616C65204D616E61676572206F72204164 PUSH1 0x0 DUP3 ADD MSTORE PUSH32 0x6D696E0000000000000000000000000000000000000000000000000000000000 PUSH1 0x20 DUP3 ADD MSTORE POP JUMP JUMPDEST PUSH32 0x53656E646572206973206E6F7420555249204D616E61676572206F722041646D PUSH1 0x0 DUP3 ADD MSTORE PUSH32 0x696E000000000000000000000000000000000000000000000000000000000000 PUSH1 0x20 DUP3 ADD MSTORE POP JUMP JUMPDEST PUSH32 0x2500000000000000000000000000000000000000000000000000000000000000 PUSH1 0x0 DUP3 ADD MSTORE POP JUMP JUMPDEST PUSH32 0x20646F6573206E6F742068617665206120636F75706F6E207769746820612064 PUSH1 0x0 DUP3 ADD MSTORE PUSH32 0x6973636F756E742072617465206F662000000000000000000000000000000000 PUSH1 0x20 DUP3 ADD MSTORE POP JUMP JUMPDEST PUSH32 0x4E6F20746F6B656E73206C65667420746F206D696E7400000000000000000000 PUSH1 0x0 DUP3 ADD MSTORE POP JUMP JUMPDEST PUSH32 0x737461727454696D65206973206C61746572207468616E20656E6454696D6500 PUSH1 0x0 DUP3 ADD MSTORE POP JUMP JUMPDEST PUSH32 0x53656E646572206973206E6F7420506F73742D53616C65204D696E746572206F PUSH1 0x0 DUP3 ADD MSTORE PUSH32 0x722041646D696E00000000000000000000000000000000000000000000000000 PUSH1 0x20 DUP3 ADD MSTORE POP JUMP JUMPDEST PUSH32 0x416363657373436F6E74726F6C3A206163636F756E7420000000000000000000 PUSH1 0x0 DUP3 ADD MSTORE POP JUMP JUMPDEST PUSH32 0x206973206D697373696E6720726F6C6520000000000000000000000000000000 PUSH1 0x0 DUP3 ADD MSTORE POP JUMP JUMPDEST PUSH32 0x416363657373436F6E74726F6C3A2063616E206F6E6C792072656E6F756E6365 PUSH1 0x0 DUP3 ADD MSTORE PUSH32 0x20726F6C657320666F722073656C660000000000000000000000000000000000 PUSH1 0x20 DUP3 ADD MSTORE POP JUMP JUMPDEST PUSH2 0x2DC5 DUP2 PUSH2 0x283A JUMP JUMPDEST DUP2 EQ PUSH2 0x2DD0 JUMPI PUSH1 0x0 DUP1 REVERT JUMPDEST POP JUMP JUMPDEST PUSH2 0x2DDC DUP2 PUSH2 0x284C JUMP JUMPDEST DUP2 EQ PUSH2 0x2DE7 JUMPI PUSH1 0x0 DUP1 REVERT JUMPDEST POP JUMP JUMPDEST PUSH2 0x2DF3 DUP2 PUSH2 0x2858 JUMP JUMPDEST DUP2 EQ PUSH2 0x2DFE JUMPI PUSH1 0x0 DUP1 REVERT JUMPDEST POP JUMP JUMPDEST PUSH2 0x2E0A DUP2 PUSH2 0x2862 JUMP JUMPDEST DUP2 EQ PUSH2 0x2E15 JUMPI PUSH1 0x0 DUP1 REVERT JUMPDEST POP JUMP JUMPDEST PUSH2 0x2E21 DUP2 PUSH2 0x28AE JUMP JUMPDEST DUP2 EQ PUSH2 0x2E2C JUMPI PUSH1 0x0 DUP1 REVERT JUMPDEST POP JUMP INVALID LOG2 PUSH5 0x6970667358 0x22 SLT KECCAK256 DUP15 DUP14 0xD4 0xDB PUSH14 0x5153364BFA7953BFC67276C234B4 0xB6 SWAP10 SWAP7 0xE4 SWAP12 STOP LOG2 PUSH13 0x230E15CD1164736F6C63430008 ADD STOP CALLER "
		},
		"gasEstimates": {
			"creation": {
				"codeDepositCost": "2375400",
				"executionCost": "infinite",
				"totalCost": "infinite"
			},
			"external": {
				"DEFAULT_ADMIN_ROLE()": "380",
				"ERC1155storageContract()": "1303",
				"POST_SALE_MINTER_ROLE()": "396",
				"SALE_MANAGER_ROLE()": "374",
				"URI_MANAGER_ROLE()": "418",
				"buyNFT()": "infinite",
				"buyNftWithDiscount(uint256)": "infinite",
				"calculateCustomPrice(address,uint256)": "infinite",
				"getMaxSupply()": "infinite",
				"getNextUnusedToken()": "infinite",
				"getRoleAdmin(bytes32)": "infinite",
				"grantRole(bytes32,address)": "infinite",
				"hasRole(bytes32,address)": "1908",
				"lastUpdate()": "infinite",
				"mintNextManyToTreasuryAddress(uint256)": "infinite",
				"mintNextToTreasuryAddress()": "infinite",
				"mintRemainderToTreasuryAddress()": "infinite",
				"preLoadURIs(uint256[],string[])": "infinite",
				"privilgedBuyerList()": "1324",
				"renounceRole(bytes32,address)": "infinite",
				"revokeRole(bytes32,address)": "infinite",
				"setEndTime(uint256)": "infinite",
				"setStorageContractAddress(address)": "infinite",
				"setstartTime(uint256)": "infinite",
				"supportsInterface(bytes4)": "774",
				"treasuryAddress()": "1303",
				"updateAndCalculateCustomPrice(address,uint256)": "infinite",
				"usdcEscrowStorageContract()": "1324"
			},
			"internal": {
				"_buyNFT(uint256)": "infinite",
				"mintNextNftToAddress(address)": "infinite",
				"updateState()": "infinite"
			}
		},
		"methodIdentifiers": {
			"DEFAULT_ADMIN_ROLE()": "a217fddf",
			"ERC1155storageContract()": "8c83faeb",
			"POST_SALE_MINTER_ROLE()": "a77f0c48",
			"SALE_MANAGER_ROLE()": "551b42a8",
			"URI_MANAGER_ROLE()": "682d07d9",
			"buyNFT()": "bff29cee",
			"buyNftWithDiscount(uint256)": "4c9b73da",
			"calculateCustomPrice(address,uint256)": "ab6c0306",
			"getMaxSupply()": "4c0f38c2",
			"getNextUnusedToken()": "68fc01a2",
			"getRoleAdmin(bytes32)": "248a9ca3",
			"grantRole(bytes32,address)": "2f2ff15d",
			"hasRole(bytes32,address)": "91d14854",
			"lastUpdate()": "c0463711",
			"mintNextManyToTreasuryAddress(uint256)": "4e0ddff9",
			"mintNextToTreasuryAddress()": "26116d47",
			"mintRemainderToTreasuryAddress()": "f715dfca",
			"preLoadURIs(uint256[],string[])": "f121da92",
			"privilgedBuyerList()": "5ce7e721",
			"renounceRole(bytes32,address)": "36568abe",
			"revokeRole(bytes32,address)": "d547741f",
			"setEndTime(uint256)": "ccb98ffc",
			"setStorageContractAddress(address)": "51f7598c",
			"setstartTime(uint256)": "944044a1",
			"supportsInterface(bytes4)": "01ffc9a7",
			"treasuryAddress()": "c5f956af",
			"updateAndCalculateCustomPrice(address,uint256)": "432c7c5d",
			"usdcEscrowStorageContract()": "c5dae48f"
		}
	},
	"abi": [
		{
			"inputs": [],
			"stateMutability": "nonpayable",
			"type": "constructor"
		},
		{
			"anonymous": false,
			"inputs": [
				{
					"indexed": true,
					"internalType": "bytes32",
					"name": "role",
					"type": "bytes32"
				},
				{
					"indexed": true,
					"internalType": "bytes32",
					"name": "previousAdminRole",
					"type": "bytes32"
				},
				{
					"indexed": true,
					"internalType": "bytes32",
					"name": "newAdminRole",
					"type": "bytes32"
				}
			],
			"name": "RoleAdminChanged",
			"type": "event"
		},
		{
			"anonymous": false,
			"inputs": [
				{
					"indexed": true,
					"internalType": "bytes32",
					"name": "role",
					"type": "bytes32"
				},
				{
					"indexed": true,
					"internalType": "address",
					"name": "account",
					"type": "address"
				},
				{
					"indexed": true,
					"internalType": "address",
					"name": "sender",
					"type": "address"
				}
			],
			"name": "RoleGranted",
			"type": "event"
		},
		{
			"anonymous": false,
			"inputs": [
				{
					"indexed": true,
					"internalType": "bytes32",
					"name": "role",
					"type": "bytes32"
				},
				{
					"indexed": true,
					"internalType": "address",
					"name": "account",
					"type": "address"
				},
				{
					"indexed": true,
					"internalType": "address",
					"name": "sender",
					"type": "address"
				}
			],
			"name": "RoleRevoked",
			"type": "event"
		},
		{
			"inputs": [],
			"name": "DEFAULT_ADMIN_ROLE",
			"outputs": [
				{
					"internalType": "bytes32",
					"name": "",
					"type": "bytes32"
				}
			],
			"stateMutability": "view",
			"type": "function"
		},
		{
			"inputs": [],
			"name": "ERC1155storageContract",
			"outputs": [
				{
					"internalType": "contract IMintStorage",
					"name": "",
					"type": "address"
				}
			],
			"stateMutability": "view",
			"type": "function"
		},
		{
			"inputs": [],
			"name": "POST_SALE_MINTER_ROLE",
			"outputs": [
				{
					"internalType": "bytes32",
					"name": "",
					"type": "bytes32"
				}
			],
			"stateMutability": "view",
			"type": "function"
		},
		{
			"inputs": [],
			"name": "SALE_MANAGER_ROLE",
			"outputs": [
				{
					"internalType": "bytes32",
					"name": "",
					"type": "bytes32"
				}
			],
			"stateMutability": "view",
			"type": "function"
		},
		{
			"inputs": [],
			"name": "URI_MANAGER_ROLE",
			"outputs": [
				{
					"internalType": "bytes32",
					"name": "",
					"type": "bytes32"
				}
			],
			"stateMutability": "view",
			"type": "function"
		},
		{
			"inputs": [],
			"name": "buyNFT",
			"outputs": [],
			"stateMutability": "nonpayable",
			"type": "function"
		},
		{
			"inputs": [
				{
					"internalType": "uint256",
					"name": "discountRate",
					"type": "uint256"
				}
			],
			"name": "buyNftWithDiscount",
			"outputs": [],
			"stateMutability": "nonpayable",
			"type": "function"
		},
		{
			"inputs": [
				{
					"internalType": "address",
					"name": "prospectiveBuyer",
					"type": "address"
				},
				{
					"internalType": "uint256",
					"name": "discountRate",
					"type": "uint256"
				}
			],
			"name": "calculateCustomPrice",
			"outputs": [
				{
					"internalType": "uint256",
					"name": "",
					"type": "uint256"
				}
			],
			"stateMutability": "view",
			"type": "function"
		},
		{
			"inputs": [],
			"name": "getMaxSupply",
			"outputs": [
				{
					"internalType": "uint256",
					"name": "",
					"type": "uint256"
				}
			],
			"stateMutability": "view",
			"type": "function"
		},
		{
			"inputs": [],
			"name": "getNextUnusedToken",
			"outputs": [
				{
					"internalType": "uint256",
					"name": "",
					"type": "uint256"
				}
			],
			"stateMutability": "view",
			"type": "function"
		},
		{
			"inputs": [
				{
					"internalType": "bytes32",
					"name": "role",
					"type": "bytes32"
				}
			],
			"name": "getRoleAdmin",
			"outputs": [
				{
					"internalType": "bytes32",
					"name": "",
					"type": "bytes32"
				}
			],
			"stateMutability": "view",
			"type": "function"
		},
		{
			"inputs": [
				{
					"internalType": "bytes32",
					"name": "role",
					"type": "bytes32"
				},
				{
					"internalType": "address",
					"name": "account",
					"type": "address"
				}
			],
			"name": "grantRole",
			"outputs": [],
			"stateMutability": "nonpayable",
			"type": "function"
		},
		{
			"inputs": [
				{
					"internalType": "bytes32",
					"name": "role",
					"type": "bytes32"
				},
				{
					"internalType": "address",
					"name": "account",
					"type": "address"
				}
			],
			"name": "hasRole",
			"outputs": [
				{
					"internalType": "bool",
					"name": "",
					"type": "bool"
				}
			],
			"stateMutability": "view",
			"type": "function"
		},
		{
			"inputs": [],
			"name": "lastUpdate",
			"outputs": [
				{
					"internalType": "uint256",
					"name": "price",
					"type": "uint256"
				},
				{
					"internalType": "uint256",
					"name": "time",
					"type": "uint256"
				},
				{
					"internalType": "bool",
					"name": "saleIsLive",
					"type": "bool"
				}
			],
			"stateMutability": "view",
			"type": "function"
		},
		{
			"inputs": [
				{
					"internalType": "uint256",
					"name": "numberToMint",
					"type": "uint256"
				}
			],
			"name": "mintNextManyToTreasuryAddress",
			"outputs": [],
			"stateMutability": "nonpayable",
			"type": "function"
		},
		{
			"inputs": [],
			"name": "mintNextToTreasuryAddress",
			"outputs": [],
			"stateMutability": "nonpayable",
			"type": "function"
		},
		{
			"inputs": [],
			"name": "mintRemainderToTreasuryAddress",
			"outputs": [],
			"stateMutability": "nonpayable",
			"type": "function"
		},
		{
			"inputs": [
				{
					"internalType": "uint256[]",
					"name": "ids",
					"type": "uint256[]"
				},
				{
					"internalType": "string[]",
					"name": "uris",
					"type": "string[]"
				}
			],
			"name": "preLoadURIs",
			"outputs": [],
			"stateMutability": "nonpayable",
			"type": "function"
		},
		{
			"inputs": [],
			"name": "privilgedBuyerList",
			"outputs": [
				{
					"internalType": "contract IPrivilegedListStorage",
					"name": "",
					"type": "address"
				}
			],
			"stateMutability": "view",
			"type": "function"
		},
		{
			"inputs": [
				{
					"internalType": "bytes32",
					"name": "role",
					"type": "bytes32"
				},
				{
					"internalType": "address",
					"name": "account",
					"type": "address"
				}
			],
			"name": "renounceRole",
			"outputs": [],
			"stateMutability": "nonpayable",
			"type": "function"
		},
		{
			"inputs": [
				{
					"internalType": "bytes32",
					"name": "role",
					"type": "bytes32"
				},
				{
					"internalType": "address",
					"name": "account",
					"type": "address"
				}
			],
			"name": "revokeRole",
			"outputs": [],
			"stateMutability": "nonpayable",
			"type": "function"
		},
		{
			"inputs": [
				{
					"internalType": "uint256",
					"name": "unixTime",
					"type": "uint256"
				}
			],
			"name": "setEndTime",
			"outputs": [],
			"stateMutability": "nonpayable",
			"type": "function"
		},
		{
			"inputs": [
				{
					"internalType": "address",
					"name": "storageAddress",
					"type": "address"
				}
			],
			"name": "setStorageContractAddress",
			"outputs": [],
			"stateMutability": "nonpayable",
			"type": "function"
		},
		{
			"inputs": [
				{
					"internalType": "uint256",
					"name": "unixTime",
					"type": "uint256"
				}
			],
			"name": "setstartTime",
			"outputs": [],
			"stateMutability": "nonpayable",
			"type": "function"
		},
		{
			"inputs": [
				{
					"internalType": "bytes4",
					"name": "interfaceId",
					"type": "bytes4"
				}
			],
			"name": "supportsInterface",
			"outputs": [
				{
					"internalType": "bool",
					"name": "",
					"type": "bool"
				}
			],
			"stateMutability": "view",
			"type": "function"
		},
		{
			"inputs": [],
			"name": "treasuryAddress",
			"outputs": [
				{
					"internalType": "address",
					"name": "",
					"type": "address"
				}
			],
			"stateMutability": "view",
			"type": "function"
		},
		{
			"inputs": [
				{
					"internalType": "address",
					"name": "prospectiveBuyer",
					"type": "address"
				},
				{
					"internalType": "uint256",
					"name": "discountRate",
					"type": "uint256"
				}
			],
			"name": "updateAndCalculateCustomPrice",
			"outputs": [
				{
					"internalType": "uint256",
					"name": "",
					"type": "uint256"
				}
			],
			"stateMutability": "nonpayable",
			"type": "function"
		},
		{
			"inputs": [],
			"name": "usdcEscrowStorageContract",
			"outputs": [
				{
					"internalType": "contract IUsdcStorage",
					"name": "",
					"type": "address"
				}
			],
			"stateMutability": "view",
			"type": "function"
		}
	]
}