{
	"data": {
		"bytecode": {
			"linkReferences": {},
			"object": "608060405234801561001057600080fd5b50612a83806100206000396000f3fe608060405234801561001057600080fd5b50600436106101375760003560e01c8063682d07d9116100b8578063b5a92ce51161007c578063b5a92ce51461034c578063c53dfdac1461036a578063cebdbea71461039a578063d547741f146103ca578063dd1e1656146103e6578063e85eaaff146103f057610137565b8063682d07d91461029457806368f9dbe1146102b25780636d3cc82d146102e257806391d14854146102fe578063a217fddf1461032e57610137565b80632f2ff15d116100ff5780632f2ff15d146101f257806333e06e7c1461020e57806336568abe1461022a5780633a2aa22b146102465780633d88cf3d1461026457610137565b806301ffc9a71461013c57806315fda1941461016c578063248a9ca314610188578063263d336c146101b857806329cb0531146101d6575b600080fd5b61015660048036038101906101519190611d9c565b61040c565b604051610163919061229d565b60405180910390f35b61018660048036038101906101819190611e6b565b610486565b005b6101a2600480360381019061019d9190611d37565b610521565b6040516101af91906122b8565b60405180910390f35b6101c0610540565b6040516101cd91906122b8565b60405180910390f35b6101f060048036038101906101eb9190611dc5565b610564565b005b61020c60048036038101906102079190611d60565b6105fd565b005b61022860048036038101906102239190611dc5565b610626565b005b610244600480360381019061023f9190611d60565b6106f9565b005b61024e61077c565b60405161025b9190612259565b60405180910390f35b61027e60048036038101906102799190611dc5565b61078e565b60405161028b919061229d565b60405180910390f35b61029c6107a2565b6040516102a991906122b8565b60405180910390f35b6102cc60048036038101906102c79190611dc5565b6107c6565b6040516102d9919061227b565b60405180910390f35b6102fc60048036038101906102f79190611e06565b6107da565b005b61031860048036038101906103139190611d60565b610871565b604051610325919061229d565b60405180910390f35b6103366108db565b60405161034391906122b8565b60405180910390f35b6103546108e2565b60405161036191906122b8565b60405180910390f35b610384600480360381019061037f9190611e6b565b610906565b604051610391919061229d565b60405180910390f35b6103b460048036038101906103af9190611e2f565b61094d565b6040516103c19190612259565b60405180910390f35b6103e460048036038101906103df9190611d60565b61097d565b005b6103ee6109a6565b005b61040a60048036038101906104059190611e6b565b6109d9565b005b60007f7965db0b000000000000000000000000000000000000000000000000000000007bffffffffffffffffffffffffffffffffffffffffffffffffffffffff1916827bffffffffffffffffffffffffffffffffffffffffffffffffffffffff1916148061047f575061047e82610aac565b5b9050919050565b6104b77fa70a2d8710fed9f014c8c2af50c7c2f6b25748ae4cded822e03b7beed44cf3a86104b2610b16565b610871565b806104d257506104d16000801b6104cc610b16565b610871565b5b610511576040517f08c379a000000000000000000000000000000000000000000000000000000000815260040161050890612315565b60405180910390fd5b61051d82826000610b1e565b5050565b6000806000838152602001908152602001600020600101549050919050565b7fad8e13ade6b5588e1a6049d70c1678b839105f007c5f6fb969ad8b1456160eac81565b6105957fa70a2d8710fed9f014c8c2af50c7c2f6b25748ae4cded822e03b7beed44cf3a8610590610b16565b610871565b806105b057506105af6000801b6105aa610b16565b610871565b5b6105ef576040517f08c379a00000000000000000000000000000000000000000000000000000000081526004016105e690612315565b60405180910390fd5b6105fa816001610b4d565b50565b61060682610521565b61061781610612610b16565b610c20565b6106218383610cbd565b505050565b6106577fa70a2d8710fed9f014c8c2af50c7c2f6b25748ae4cded822e03b7beed44cf3a8610652610b16565b610871565b8061068f575061068e7f59d7ee6b6a4d6cc1ade519e325968bd1178816ffd1a273fac3229469856403d2610689610b16565b610871565b5b806106aa57506106a96000801b6106a4610b16565b610871565b5b6106e9576040517f08c379a00000000000000000000000000000000000000000000000000000000081526004016106e090612315565b60405180910390fd5b6106f66000826001610b1e565b50565b610701610b16565b73ffffffffffffffffffffffffffffffffffffffff168173ffffffffffffffffffffffffffffffffffffffff161461076e576040517f08c379a0000000000000000000000000000000000000000000000000000000008152600401610765906123b5565b60405180910390fd5b6107788282610d9d565b5050565b6060610789600080610e7e565b905090565b600061079b600083610fae565b9050919050565b7fa70a2d8710fed9f014c8c2af50c7c2f6b25748ae4cded822e03b7beed44cf3a881565b60606107d3826001610fc8565b9050919050565b61080b7fa70a2d8710fed9f014c8c2af50c7c2f6b25748ae4cded822e03b7beed44cf3a8610806610b16565b610871565b8061082657506108256000801b610820610b16565b610871565b5b610865576040517f08c379a000000000000000000000000000000000000000000000000000000000815260040161085c90612315565b60405180910390fd5b61086e81611174565b50565b600080600084815260200190815260200160002060000160008373ffffffffffffffffffffffffffffffffffffffff1673ffffffffffffffffffffffffffffffffffffffff16815260200190815260200160002060009054906101000a900460ff16905092915050565b6000801b81565b7f59d7ee6b6a4d6cc1ade519e325968bd1178816ffd1a273fac3229469856403d281565b60006109128383611218565b61092857610921600083610fae565b9050610947565b6109328383610fae565b806109445750610943600083610fae565b5b90505b92915050565b6060600083141561096a57610963600080610e7e565b9050610977565b6109748383610e7e565b90505b92915050565b61098682610521565b61099781610992610b16565b610c20565b6109a18383610d9d565b505050565b6000801b6109bb816109b6610b16565b610c20565b6000600160006101000a81548160ff02191690831515021790555050565b610a0a7fa70a2d8710fed9f014c8c2af50c7c2f6b25748ae4cded822e03b7beed44cf3a8610a05610b16565b610871565b80610a425750610a417f59d7ee6b6a4d6cc1ade519e325968bd1178816ffd1a273fac3229469856403d2610a3c610b16565b610871565b5b80610a5d5750610a5c6000801b610a57610b16565b610871565b5b610a9c576040517f08c379a0000000000000000000000000000000000000000000000000000000008152600401610a9390612315565b60405180910390fd5b610aa882826001610b1e565b5050565b60007f01ffc9a7000000000000000000000000000000000000000000000000000000007bffffffffffffffffffffffffffffffffffffffffffffffffffffffff1916827bffffffffffffffffffffffffffffffffffffffffffffffffffffffff1916149050919050565b600033905090565b610b288383611218565b610b3c57610b3783838361126e565b610b48565b610b47838383611394565b5b505050565b60005b6002800183604051610b6291906121e0565b908152602001604051809103902080549050811015610c1b5760006002800184604051610b8f91906121e0565b90815260200160405180910390208281548110610bd5577f4e487b7100000000000000000000000000000000000000000000000000000000600052603260045260246000fd5b906000526020600020015490508280610bf65750610bf48160016113e7565b155b15610c0757610c06816000611401565b5b508080610c1390612706565b915050610b50565b505050565b610c2a8282610871565b610cb957610c4f8173ffffffffffffffffffffffffffffffffffffffff1660146114af565b610c5d8360001c60206114af565b604051602001610c6e9291906121f7565b6040516020818303038152906040526040517f08c379a0000000000000000000000000000000000000000000000000000000008152600401610cb091906122d3565b60405180910390fd5b5050565b610cc78282610871565b610d9957600160008084815260200190815260200160002060000160008373ffffffffffffffffffffffffffffffffffffffff1673ffffffffffffffffffffffffffffffffffffffff16815260200190815260200160002060006101000a81548160ff021916908315150217905550610d3e610b16565b73ffffffffffffffffffffffffffffffffffffffff168173ffffffffffffffffffffffffffffffffffffffff16837f2f8788117e7eff1d82e926ec794901d17c78024a50270940304540a733656f0d60405160405180910390a45b5050565b610da78282610871565b15610e7a57600080600084815260200190815260200160002060000160008373ffffffffffffffffffffffffffffffffffffffff1673ffffffffffffffffffffffffffffffffffffffff16815260200190815260200160002060006101000a81548160ff021916908315150217905550610e1f610b16565b73ffffffffffffffffffffffffffffffffffffffff168173ffffffffffffffffffffffffffffffffffffffff16837ff6391f5c32d9c69d2a47ea670b442974b53935d1edc7fd64eb21e047a839171b60405160405180910390a45b5050565b6060808215610e9557610e92600080610e7e565b90505b60008151905060005b6002600301600087815260200190815260200160002080549050811015610fa2576000600260030160008881526020019081526020016000208281548110610f0f577f4e487b7100000000000000000000000000000000000000000000000000000000600052603260045260246000fd5b906000526020600020015490506000610f298260006117a9565b9050806060015115610f8d578060400151858581518110610f73577f4e487b7100000000000000000000000000000000000000000000000000000000600052603260045260246000fd5b60200260200101819052508380610f8990612706565b9450505b50508080610f9a90612706565b915050610e9e565b50819250505092915050565b6000610fbc8383600061191b565b60600151905092915050565b606080828015610fdf5750610fde600085611218565b5b8015610ff85750610ff3600085600161191b565b606001515b1561104657600081600081518110611039577f4e487b7100000000000000000000000000000000000000000000000000000000600052603260045260246000fd5b6020026020010181815250505b60008151905060005b600280018660405161106191906121e0565b908152602001604051809103902080549050811015611168576000600280018760405161108e91906121e0565b908152602001604051809103902082815481106110d4577f4e487b7100000000000000000000000000000000000000000000000000000000600052603260045260246000fd5b9060005260206000200154905060006110ee8260006117a9565b9050806060015115611153578060200151858581518110611138577f4e487b7100000000000000000000000000000000000000000000000000000000600052603260045260246000fd5b602002602001018181525050838061114f90612706565b9450505b5050808061116090612706565b91505061104f565b50819250505092915050565b60005b60026003016000838152602001908152602001600020805490508110156112145760006002600301600084815260200190815260200160002082815481106111e8577f4e487b7100000000000000000000000000000000000000000000000000000000600052603260045260246000fd5b90600052602060002001549050611200816000611401565b50808061120c90612706565b915050611177565b5050565b600080600260010160008585604051602001611235929190612231565b6040516020818303038152906040528051906020012081526020019081526020016000205490506112658161197a565b91505092915050565b6112788383611218565b156112b8576040517f08c379a00000000000000000000000000000000000000000000000000000000081526004016112af90612395565b60405180910390fd5b60006112c5848484611987565b9050806002600101600086866040516020016112e2929190612231565b6040516020818303038152906040528051906020012081526020019081526020016000208190555060026003016000858152602001908152602001600020819080600181540180825580915050600190039060005260206000200160009091909190915055600280018360405161135991906121e0565b908152602001604051809103902081908060018154018082558091505060019003906000526020600020016000909190919091505550505050565b60006002600101600085856040516020016113b0929190612231565b6040516020818303038152906040528051906020012081526020019081526020016000205490506113e18183611401565b50505050565b6000806113f484846117a9565b6020015114905092915050565b6000821415611445576040517f08c379a000000000000000000000000000000000000000000000000000000000815260040161143c90612355565b60405180910390fd5b8060026000018381548110611483577f4e487b7100000000000000000000000000000000000000000000000000000000600052603260045260246000fd5b906000526020600020906004020160030160006101000a81548160ff0219169083151502179055505050565b6060600060028360026114c2919061252b565b6114cc91906124d5565b67ffffffffffffffff81111561150b577f4e487b7100000000000000000000000000000000000000000000000000000000600052604160045260246000fd5b6040519080825280601f01601f19166020018201604052801561153d5781602001600182028036833780820191505090505b5090507f30000000000000000000000000000000000000000000000000000000000000008160008151811061159b577f4e487b7100000000000000000000000000000000000000000000000000000000600052603260045260246000fd5b60200101907effffffffffffffffffffffffffffffffffffffffffffffffffffffffffffff1916908160001a9053507f780000000000000000000000000000000000000000000000000000000000000081600181518110611625577f4e487b7100000000000000000000000000000000000000000000000000000000600052603260045260246000fd5b60200101907effffffffffffffffffffffffffffffffffffffffffffffffffffffffffffff1916908160001a90535060006001846002611665919061252b565b61166f91906124d5565b90505b600181111561175b577f3031323334353637383961626364656600000000000000000000000000000000600f8616601081106116d7577f4e487b7100000000000000000000000000000000000000000000000000000000600052603260045260246000fd5b1a60f81b828281518110611714577f4e487b7100000000000000000000000000000000000000000000000000000000600052603260045260246000fd5b60200101907effffffffffffffffffffffffffffffffffffffffffffffffffffffffffffff1916908160001a905350600485901c94508061175490612679565b9050611672565b506000841461179f576040517f08c379a0000000000000000000000000000000000000000000000000000000008152600401611796906122f5565b60405180910390fd5b8091505092915050565b6117b1611b99565b81156117fc5760008314156117fb576040517f08c379a00000000000000000000000000000000000000000000000000000000081526004016117f290612375565b60405180910390fd5b5b60026000018381548110611839577f4e487b7100000000000000000000000000000000000000000000000000000000600052603260045260246000fd5b90600052602060002090600402016040518060800160405290816000820154815260200160018201548152602001600282018054611876906126a3565b80601f01602080910402602001604051908101604052809291908181526020018280546118a2906126a3565b80156118ef5780601f106118c4576101008083540402835291602001916118ef565b820191906000526020600020905b8154815290600101906020018083116118d257829003601f168201915b505050505081526020016003820160009054906101000a900460ff161515151581525050905092915050565b611923611b99565b600060026001016000868660405160200161193f929190612231565b60405160208183030381529060405280519060200120815260200190815260200160002054905061197081846117a9565b9150509392505050565b6000808214159050919050565b6000806002600001805490501415611a6f5760405180608001604052806000815260200160008152602001604051806020016040528060008152508152602001600015158152506002600001600081548110611a0c577f4e487b7100000000000000000000000000000000000000000000000000000000600052603260045260246000fd5b906000526020600020906004020160008201518160000155602082015181600101556040820151816002019080519060200190611a4a929190611bc3565b5060608201518160030160006101000a81548160ff0219169083151502179055509050505b604051806020016040528060008152508051906020012083805190602001201415611acf576040517f08c379a0000000000000000000000000000000000000000000000000000000008152600401611ac690612335565b60405180910390fd5b600260000160405180608001604052806002600001805490508152602001868152602001858152602001841515815250908060018154018082558091505060019003906000526020600020906004020160009091909190915060008201518160000155602082015181600101556040820151816002019080519060200190611b58929190611bc3565b5060608201518160030160006101000a81548160ff02191690831515021790555050506001600260000180549050611b909190612585565b90509392505050565b60405180608001604052806000815260200160008152602001606081526020016000151581525090565b828054611bcf906126a3565b90600052602060002090601f016020900481019282611bf15760008555611c38565b82601f10611c0a57805160ff1916838001178555611c38565b82800160010185558215611c38579182015b82811115611c37578251825591602001919060010190611c1c565b5b509050611c459190611c49565b5090565b5b80821115611c62576000816000905550600101611c4a565b5090565b6000611c79611c74846123fa565b6123d5565b905082815260208101848484011115611c9157600080fd5b611c9c848285612637565b509392505050565b600081359050611cb3816129da565b92915050565b600081359050611cc8816129f1565b92915050565b600081359050611cdd81612a08565b92915050565b600081359050611cf281612a1f565b92915050565b600082601f830112611d0957600080fd5b8135611d19848260208601611c66565b91505092915050565b600081359050611d3181612a36565b92915050565b600060208284031215611d4957600080fd5b6000611d5784828501611cce565b91505092915050565b60008060408385031215611d7357600080fd5b6000611d8185828601611cce565b9250506020611d9285828601611ca4565b9150509250929050565b600060208284031215611dae57600080fd5b6000611dbc84828501611ce3565b91505092915050565b600060208284031215611dd757600080fd5b600082013567ffffffffffffffff811115611df157600080fd5b611dfd84828501611cf8565b91505092915050565b600060208284031215611e1857600080fd5b6000611e2684828501611d22565b91505092915050565b60008060408385031215611e4257600080fd5b6000611e5085828601611d22565b9250506020611e6185828601611cb9565b9150509250929050565b60008060408385031215611e7e57600080fd5b6000611e8c85828601611d22565b925050602083013567ffffffffffffffff811115611ea957600080fd5b611eb585828601611cf8565b9150509250929050565b6000611ecb8383611fdc565b905092915050565b6000611edf83836121ba565b60208301905092915050565b6000611ef68261244b565b611f008185612486565b935083602082028501611f128561242b565b8060005b85811015611f4e5784840389528151611f2f8582611ebf565b9450611f3a8361246c565b925060208a01995050600181019050611f16565b50829750879550505050505092915050565b6000611f6b82612456565b611f758185612497565b9350611f808361243b565b8060005b83811015611fb1578151611f988882611ed3565b9750611fa383612479565b925050600181019050611f84565b5085935050505092915050565b611fc7816125cb565b82525050565b611fd6816125d7565b82525050565b6000611fe782612461565b611ff181856124a8565b9350612001818560208601612646565b61200a816127e6565b840191505092915050565b600061202082612461565b61202a81856124b9565b935061203a818560208601612646565b612043816127e6565b840191505092915050565b600061205982612461565b61206381856124ca565b9350612073818560208601612646565b80840191505092915050565b600061208c6020836124b9565b9150612097826127f7565b602082019050919050565b60006120af6022836124b9565b91506120ba82612820565b604082019050919050565b60006120d26014836124b9565b91506120dd8261286f565b602082019050919050565b60006120f56014836124b9565b915061210082612898565b602082019050919050565b60006121186014836124b9565b9150612123826128c1565b602082019050919050565b600061213b603d836124b9565b9150612146826128ea565b604082019050919050565b600061215e6017836124ca565b915061216982612939565b601782019050919050565b60006121816011836124ca565b915061218c82612962565b601182019050919050565b60006121a4602f836124b9565b91506121af8261298b565b604082019050919050565b6121c38161262d565b82525050565b6121da6121d58261262d565b61274f565b82525050565b60006121ec828461204e565b915081905092915050565b600061220282612151565b915061220e828561204e565b915061221982612174565b9150612225828461204e565b91508190509392505050565b600061223d82856121c9565b60208201915061224d828461204e565b91508190509392505050565b600060208201905081810360008301526122738184611eeb565b905092915050565b600060208201905081810360008301526122958184611f60565b905092915050565b60006020820190506122b26000830184611fbe565b92915050565b60006020820190506122cd6000830184611fcd565b92915050565b600060208201905081810360008301526122ed8184612015565b905092915050565b6000602082019050818103600083015261230e8161207f565b9050919050565b6000602082019050818103600083015261232e816120a2565b9050919050565b6000602082019050818103600083015261234e816120c5565b9050919050565b6000602082019050818103600083015261236e816120e8565b9050919050565b6000602082019050818103600083015261238e8161210b565b9050919050565b600060208201905081810360008301526123ae8161212e565b9050919050565b600060208201905081810360008301526123ce81612197565b9050919050565b60006123df6123f0565b90506123eb82826126d5565b919050565b6000604051905090565b600067ffffffffffffffff821115612415576124146127b7565b5b61241e826127e6565b9050602081019050919050565b6000819050602082019050919050565b6000819050602082019050919050565b600081519050919050565b600081519050919050565b600081519050919050565b6000602082019050919050565b6000602082019050919050565b600082825260208201905092915050565b600082825260208201905092915050565b600082825260208201905092915050565b600082825260208201905092915050565b600081905092915050565b60006124e08261262d565b91506124eb8361262d565b9250827fffffffffffffffffffffffffffffffffffffffffffffffffffffffffffffffff038211156125205761251f612759565b5b828201905092915050565b60006125368261262d565b91506125418361262d565b9250817fffffffffffffffffffffffffffffffffffffffffffffffffffffffffffffffff048311821515161561257a57612579612759565b5b828202905092915050565b60006125908261262d565b915061259b8361262d565b9250828210156125ae576125ad612759565b5b828203905092915050565b60006125c48261260d565b9050919050565b60008115159050919050565b6000819050919050565b60007fffffffff0000000000000000000000000000000000000000000000000000000082169050919050565b600073ffffffffffffffffffffffffffffffffffffffff82169050919050565b6000819050919050565b82818337600083830152505050565b60005b83811015612664578082015181840152602081019050612649565b83811115612673576000848401525b50505050565b60006126848261262d565b9150600082141561269857612697612759565b5b600182039050919050565b600060028204905060018216806126bb57607f821691505b602082108114156126cf576126ce612788565b5b50919050565b6126de826127e6565b810181811067ffffffffffffffff821117156126fd576126fc6127b7565b5b80604052505050565b60006127118261262d565b91507fffffffffffffffffffffffffffffffffffffffffffffffffffffffffffffffff82141561274457612743612759565b5b600182019050919050565b6000819050919050565b7f4e487b7100000000000000000000000000000000000000000000000000000000600052601160045260246000fd5b7f4e487b7100000000000000000000000000000000000000000000000000000000600052602260045260246000fd5b7f4e487b7100000000000000000000000000000000000000000000000000000000600052604160045260246000fd5b6000601f19601f8301169050919050565b7f537472696e67733a20686578206c656e67746820696e73756666696369656e74600082015250565b7f53656e646572206973206e6f7420555249204d616e61676572206f722041646d60008201527f696e000000000000000000000000000000000000000000000000000000000000602082015250565b7f4d6f64657261746564557269733a204552522031000000000000000000000000600082015250565b7f4d6f64657261746564557269733a204552522032000000000000000000000000600082015250565b7f4d6f64657261746564557269733a204552522033000000000000000000000000600082015250565b7f4c313a205f6d616b65456e7472793a20656e7472792077697468206d6174636860008201527f696e6720696420616e642075726920616c726561647920657869737473000000602082015250565b7f416363657373436f6e74726f6c3a206163636f756e7420000000000000000000600082015250565b7f206973206d697373696e6720726f6c6520000000000000000000000000000000600082015250565b7f416363657373436f6e74726f6c3a2063616e206f6e6c792072656e6f756e636560008201527f20726f6c657320666f722073656c660000000000000000000000000000000000602082015250565b6129e3816125b9565b81146129ee57600080fd5b50565b6129fa816125cb565b8114612a0557600080fd5b50565b612a11816125d7565b8114612a1c57600080fd5b50565b612a28816125e1565b8114612a3357600080fd5b50565b612a3f8161262d565b8114612a4a57600080fd5b5056fea26469706673582212200507672c587a638d4ddb0e67feeff1d60e4f351d07a239be6203f0a9e12bc21b64736f6c63430008010033",
			"opcodes": "PUSH1 0x80 PUSH1 0x40 MSTORE CALLVALUE DUP1 ISZERO PUSH2 0x10 JUMPI PUSH1 0x0 DUP1 REVERT JUMPDEST POP PUSH2 0x2A83 DUP1 PUSH2 0x20 PUSH1 0x0 CODECOPY PUSH1 0x0 RETURN INVALID PUSH1 0x80 PUSH1 0x40 MSTORE CALLVALUE DUP1 ISZERO PUSH2 0x10 JUMPI PUSH1 0x0 DUP1 REVERT JUMPDEST POP PUSH1 0x4 CALLDATASIZE LT PUSH2 0x137 JUMPI PUSH1 0x0 CALLDATALOAD PUSH1 0xE0 SHR DUP1 PUSH4 0x682D07D9 GT PUSH2 0xB8 JUMPI DUP1 PUSH4 0xB5A92CE5 GT PUSH2 0x7C JUMPI DUP1 PUSH4 0xB5A92CE5 EQ PUSH2 0x34C JUMPI DUP1 PUSH4 0xC53DFDAC EQ PUSH2 0x36A JUMPI DUP1 PUSH4 0xCEBDBEA7 EQ PUSH2 0x39A JUMPI DUP1 PUSH4 0xD547741F EQ PUSH2 0x3CA JUMPI DUP1 PUSH4 0xDD1E1656 EQ PUSH2 0x3E6 JUMPI DUP1 PUSH4 0xE85EAAFF EQ PUSH2 0x3F0 JUMPI PUSH2 0x137 JUMP JUMPDEST DUP1 PUSH4 0x682D07D9 EQ PUSH2 0x294 JUMPI DUP1 PUSH4 0x68F9DBE1 EQ PUSH2 0x2B2 JUMPI DUP1 PUSH4 0x6D3CC82D EQ PUSH2 0x2E2 JUMPI DUP1 PUSH4 0x91D14854 EQ PUSH2 0x2FE JUMPI DUP1 PUSH4 0xA217FDDF EQ PUSH2 0x32E JUMPI PUSH2 0x137 JUMP JUMPDEST DUP1 PUSH4 0x2F2FF15D GT PUSH2 0xFF JUMPI DUP1 PUSH4 0x2F2FF15D EQ PUSH2 0x1F2 JUMPI DUP1 PUSH4 0x33E06E7C EQ PUSH2 0x20E JUMPI DUP1 PUSH4 0x36568ABE EQ PUSH2 0x22A JUMPI DUP1 PUSH4 0x3A2AA22B EQ PUSH2 0x246 JUMPI DUP1 PUSH4 0x3D88CF3D EQ PUSH2 0x264 JUMPI PUSH2 0x137 JUMP JUMPDEST DUP1 PUSH4 0x1FFC9A7 EQ PUSH2 0x13C JUMPI DUP1 PUSH4 0x15FDA194 EQ PUSH2 0x16C JUMPI DUP1 PUSH4 0x248A9CA3 EQ PUSH2 0x188 JUMPI DUP1 PUSH4 0x263D336C EQ PUSH2 0x1B8 JUMPI DUP1 PUSH4 0x29CB0531 EQ PUSH2 0x1D6 JUMPI JUMPDEST PUSH1 0x0 DUP1 REVERT JUMPDEST PUSH2 0x156 PUSH1 0x4 DUP1 CALLDATASIZE SUB DUP2 ADD SWAP1 PUSH2 0x151 SWAP2 SWAP1 PUSH2 0x1D9C JUMP JUMPDEST PUSH2 0x40C JUMP JUMPDEST PUSH1 0x40 MLOAD PUSH2 0x163 SWAP2 SWAP1 PUSH2 0x229D JUMP JUMPDEST PUSH1 0x40 MLOAD DUP1 SWAP2 SUB SWAP1 RETURN JUMPDEST PUSH2 0x186 PUSH1 0x4 DUP1 CALLDATASIZE SUB DUP2 ADD SWAP1 PUSH2 0x181 SWAP2 SWAP1 PUSH2 0x1E6B JUMP JUMPDEST PUSH2 0x486 JUMP JUMPDEST STOP JUMPDEST PUSH2 0x1A2 PUSH1 0x4 DUP1 CALLDATASIZE SUB DUP2 ADD SWAP1 PUSH2 0x19D SWAP2 SWAP1 PUSH2 0x1D37 JUMP JUMPDEST PUSH2 0x521 JUMP JUMPDEST PUSH1 0x40 MLOAD PUSH2 0x1AF SWAP2 SWAP1 PUSH2 0x22B8 JUMP JUMPDEST PUSH1 0x40 MLOAD DUP1 SWAP2 SUB SWAP1 RETURN JUMPDEST PUSH2 0x1C0 PUSH2 0x540 JUMP JUMPDEST PUSH1 0x40 MLOAD PUSH2 0x1CD SWAP2 SWAP1 PUSH2 0x22B8 JUMP JUMPDEST PUSH1 0x40 MLOAD DUP1 SWAP2 SUB SWAP1 RETURN JUMPDEST PUSH2 0x1F0 PUSH1 0x4 DUP1 CALLDATASIZE SUB DUP2 ADD SWAP1 PUSH2 0x1EB SWAP2 SWAP1 PUSH2 0x1DC5 JUMP JUMPDEST PUSH2 0x564 JUMP JUMPDEST STOP JUMPDEST PUSH2 0x20C PUSH1 0x4 DUP1 CALLDATASIZE SUB DUP2 ADD SWAP1 PUSH2 0x207 SWAP2 SWAP1 PUSH2 0x1D60 JUMP JUMPDEST PUSH2 0x5FD JUMP JUMPDEST STOP JUMPDEST PUSH2 0x228 PUSH1 0x4 DUP1 CALLDATASIZE SUB DUP2 ADD SWAP1 PUSH2 0x223 SWAP2 SWAP1 PUSH2 0x1DC5 JUMP JUMPDEST PUSH2 0x626 JUMP JUMPDEST STOP JUMPDEST PUSH2 0x244 PUSH1 0x4 DUP1 CALLDATASIZE SUB DUP2 ADD SWAP1 PUSH2 0x23F SWAP2 SWAP1 PUSH2 0x1D60 JUMP JUMPDEST PUSH2 0x6F9 JUMP JUMPDEST STOP JUMPDEST PUSH2 0x24E PUSH2 0x77C JUMP JUMPDEST PUSH1 0x40 MLOAD PUSH2 0x25B SWAP2 SWAP1 PUSH2 0x2259 JUMP JUMPDEST PUSH1 0x40 MLOAD DUP1 SWAP2 SUB SWAP1 RETURN JUMPDEST PUSH2 0x27E PUSH1 0x4 DUP1 CALLDATASIZE SUB DUP2 ADD SWAP1 PUSH2 0x279 SWAP2 SWAP1 PUSH2 0x1DC5 JUMP JUMPDEST PUSH2 0x78E JUMP JUMPDEST PUSH1 0x40 MLOAD PUSH2 0x28B SWAP2 SWAP1 PUSH2 0x229D JUMP JUMPDEST PUSH1 0x40 MLOAD DUP1 SWAP2 SUB SWAP1 RETURN JUMPDEST PUSH2 0x29C PUSH2 0x7A2 JUMP JUMPDEST PUSH1 0x40 MLOAD PUSH2 0x2A9 SWAP2 SWAP1 PUSH2 0x22B8 JUMP JUMPDEST PUSH1 0x40 MLOAD DUP1 SWAP2 SUB SWAP1 RETURN JUMPDEST PUSH2 0x2CC PUSH1 0x4 DUP1 CALLDATASIZE SUB DUP2 ADD SWAP1 PUSH2 0x2C7 SWAP2 SWAP1 PUSH2 0x1DC5 JUMP JUMPDEST PUSH2 0x7C6 JUMP JUMPDEST PUSH1 0x40 MLOAD PUSH2 0x2D9 SWAP2 SWAP1 PUSH2 0x227B JUMP JUMPDEST PUSH1 0x40 MLOAD DUP1 SWAP2 SUB SWAP1 RETURN JUMPDEST PUSH2 0x2FC PUSH1 0x4 DUP1 CALLDATASIZE SUB DUP2 ADD SWAP1 PUSH2 0x2F7 SWAP2 SWAP1 PUSH2 0x1E06 JUMP JUMPDEST PUSH2 0x7DA JUMP JUMPDEST STOP JUMPDEST PUSH2 0x318 PUSH1 0x4 DUP1 CALLDATASIZE SUB DUP2 ADD SWAP1 PUSH2 0x313 SWAP2 SWAP1 PUSH2 0x1D60 JUMP JUMPDEST PUSH2 0x871 JUMP JUMPDEST PUSH1 0x40 MLOAD PUSH2 0x325 SWAP2 SWAP1 PUSH2 0x229D JUMP JUMPDEST PUSH1 0x40 MLOAD DUP1 SWAP2 SUB SWAP1 RETURN JUMPDEST PUSH2 0x336 PUSH2 0x8DB JUMP JUMPDEST PUSH1 0x40 MLOAD PUSH2 0x343 SWAP2 SWAP1 PUSH2 0x22B8 JUMP JUMPDEST PUSH1 0x40 MLOAD DUP1 SWAP2 SUB SWAP1 RETURN JUMPDEST PUSH2 0x354 PUSH2 0x8E2 JUMP JUMPDEST PUSH1 0x40 MLOAD PUSH2 0x361 SWAP2 SWAP1 PUSH2 0x22B8 JUMP JUMPDEST PUSH1 0x40 MLOAD DUP1 SWAP2 SUB SWAP1 RETURN JUMPDEST PUSH2 0x384 PUSH1 0x4 DUP1 CALLDATASIZE SUB DUP2 ADD SWAP1 PUSH2 0x37F SWAP2 SWAP1 PUSH2 0x1E6B JUMP JUMPDEST PUSH2 0x906 JUMP JUMPDEST PUSH1 0x40 MLOAD PUSH2 0x391 SWAP2 SWAP1 PUSH2 0x229D JUMP JUMPDEST PUSH1 0x40 MLOAD DUP1 SWAP2 SUB SWAP1 RETURN JUMPDEST PUSH2 0x3B4 PUSH1 0x4 DUP1 CALLDATASIZE SUB DUP2 ADD SWAP1 PUSH2 0x3AF SWAP2 SWAP1 PUSH2 0x1E2F JUMP JUMPDEST PUSH2 0x94D JUMP JUMPDEST PUSH1 0x40 MLOAD PUSH2 0x3C1 SWAP2 SWAP1 PUSH2 0x2259 JUMP JUMPDEST PUSH1 0x40 MLOAD DUP1 SWAP2 SUB SWAP1 RETURN JUMPDEST PUSH2 0x3E4 PUSH1 0x4 DUP1 CALLDATASIZE SUB DUP2 ADD SWAP1 PUSH2 0x3DF SWAP2 SWAP1 PUSH2 0x1D60 JUMP JUMPDEST PUSH2 0x97D JUMP JUMPDEST STOP JUMPDEST PUSH2 0x3EE PUSH2 0x9A6 JUMP JUMPDEST STOP JUMPDEST PUSH2 0x40A PUSH1 0x4 DUP1 CALLDATASIZE SUB DUP2 ADD SWAP1 PUSH2 0x405 SWAP2 SWAP1 PUSH2 0x1E6B JUMP JUMPDEST PUSH2 0x9D9 JUMP JUMPDEST STOP JUMPDEST PUSH1 0x0 PUSH32 0x7965DB0B00000000000000000000000000000000000000000000000000000000 PUSH28 0xFFFFFFFFFFFFFFFFFFFFFFFFFFFFFFFFFFFFFFFFFFFFFFFFFFFFFFFF NOT AND DUP3 PUSH28 0xFFFFFFFFFFFFFFFFFFFFFFFFFFFFFFFFFFFFFFFFFFFFFFFFFFFFFFFF NOT AND EQ DUP1 PUSH2 0x47F JUMPI POP PUSH2 0x47E DUP3 PUSH2 0xAAC JUMP JUMPDEST JUMPDEST SWAP1 POP SWAP2 SWAP1 POP JUMP JUMPDEST PUSH2 0x4B7 PUSH32 0xA70A2D8710FED9F014C8C2AF50C7C2F6B25748AE4CDED822E03B7BEED44CF3A8 PUSH2 0x4B2 PUSH2 0xB16 JUMP JUMPDEST PUSH2 0x871 JUMP JUMPDEST DUP1 PUSH2 0x4D2 JUMPI POP PUSH2 0x4D1 PUSH1 0x0 DUP1 SHL PUSH2 0x4CC PUSH2 0xB16 JUMP JUMPDEST PUSH2 0x871 JUMP JUMPDEST JUMPDEST PUSH2 0x511 JUMPI PUSH1 0x40 MLOAD PUSH32 0x8C379A000000000000000000000000000000000000000000000000000000000 DUP2 MSTORE PUSH1 0x4 ADD PUSH2 0x508 SWAP1 PUSH2 0x2315 JUMP JUMPDEST PUSH1 0x40 MLOAD DUP1 SWAP2 SUB SWAP1 REVERT JUMPDEST PUSH2 0x51D DUP3 DUP3 PUSH1 0x0 PUSH2 0xB1E JUMP JUMPDEST POP POP JUMP JUMPDEST PUSH1 0x0 DUP1 PUSH1 0x0 DUP4 DUP2 MSTORE PUSH1 0x20 ADD SWAP1 DUP2 MSTORE PUSH1 0x20 ADD PUSH1 0x0 KECCAK256 PUSH1 0x1 ADD SLOAD SWAP1 POP SWAP2 SWAP1 POP JUMP JUMPDEST PUSH32 0xAD8E13ADE6B5588E1A6049D70C1678B839105F007C5F6FB969AD8B1456160EAC DUP2 JUMP JUMPDEST PUSH2 0x595 PUSH32 0xA70A2D8710FED9F014C8C2AF50C7C2F6B25748AE4CDED822E03B7BEED44CF3A8 PUSH2 0x590 PUSH2 0xB16 JUMP JUMPDEST PUSH2 0x871 JUMP JUMPDEST DUP1 PUSH2 0x5B0 JUMPI POP PUSH2 0x5AF PUSH1 0x0 DUP1 SHL PUSH2 0x5AA PUSH2 0xB16 JUMP JUMPDEST PUSH2 0x871 JUMP JUMPDEST JUMPDEST PUSH2 0x5EF JUMPI PUSH1 0x40 MLOAD PUSH32 0x8C379A000000000000000000000000000000000000000000000000000000000 DUP2 MSTORE PUSH1 0x4 ADD PUSH2 0x5E6 SWAP1 PUSH2 0x2315 JUMP JUMPDEST PUSH1 0x40 MLOAD DUP1 SWAP2 SUB SWAP1 REVERT JUMPDEST PUSH2 0x5FA DUP2 PUSH1 0x1 PUSH2 0xB4D JUMP JUMPDEST POP JUMP JUMPDEST PUSH2 0x606 DUP3 PUSH2 0x521 JUMP JUMPDEST PUSH2 0x617 DUP2 PUSH2 0x612 PUSH2 0xB16 JUMP JUMPDEST PUSH2 0xC20 JUMP JUMPDEST PUSH2 0x621 DUP4 DUP4 PUSH2 0xCBD JUMP JUMPDEST POP POP POP JUMP JUMPDEST PUSH2 0x657 PUSH32 0xA70A2D8710FED9F014C8C2AF50C7C2F6B25748AE4CDED822E03B7BEED44CF3A8 PUSH2 0x652 PUSH2 0xB16 JUMP JUMPDEST PUSH2 0x871 JUMP JUMPDEST DUP1 PUSH2 0x68F JUMPI POP PUSH2 0x68E PUSH32 0x59D7EE6B6A4D6CC1ADE519E325968BD1178816FFD1A273FAC3229469856403D2 PUSH2 0x689 PUSH2 0xB16 JUMP JUMPDEST PUSH2 0x871 JUMP JUMPDEST JUMPDEST DUP1 PUSH2 0x6AA JUMPI POP PUSH2 0x6A9 PUSH1 0x0 DUP1 SHL PUSH2 0x6A4 PUSH2 0xB16 JUMP JUMPDEST PUSH2 0x871 JUMP JUMPDEST JUMPDEST PUSH2 0x6E9 JUMPI PUSH1 0x40 MLOAD PUSH32 0x8C379A000000000000000000000000000000000000000000000000000000000 DUP2 MSTORE PUSH1 0x4 ADD PUSH2 0x6E0 SWAP1 PUSH2 0x2315 JUMP JUMPDEST PUSH1 0x40 MLOAD DUP1 SWAP2 SUB SWAP1 REVERT JUMPDEST PUSH2 0x6F6 PUSH1 0x0 DUP3 PUSH1 0x1 PUSH2 0xB1E JUMP JUMPDEST POP JUMP JUMPDEST PUSH2 0x701 PUSH2 0xB16 JUMP JUMPDEST PUSH20 0xFFFFFFFFFFFFFFFFFFFFFFFFFFFFFFFFFFFFFFFF AND DUP2 PUSH20 0xFFFFFFFFFFFFFFFFFFFFFFFFFFFFFFFFFFFFFFFF AND EQ PUSH2 0x76E JUMPI PUSH1 0x40 MLOAD PUSH32 0x8C379A000000000000000000000000000000000000000000000000000000000 DUP2 MSTORE PUSH1 0x4 ADD PUSH2 0x765 SWAP1 PUSH2 0x23B5 JUMP JUMPDEST PUSH1 0x40 MLOAD DUP1 SWAP2 SUB SWAP1 REVERT JUMPDEST PUSH2 0x778 DUP3 DUP3 PUSH2 0xD9D JUMP JUMPDEST POP POP JUMP JUMPDEST PUSH1 0x60 PUSH2 0x789 PUSH1 0x0 DUP1 PUSH2 0xE7E JUMP JUMPDEST SWAP1 POP SWAP1 JUMP JUMPDEST PUSH1 0x0 PUSH2 0x79B PUSH1 0x0 DUP4 PUSH2 0xFAE JUMP JUMPDEST SWAP1 POP SWAP2 SWAP1 POP JUMP JUMPDEST PUSH32 0xA70A2D8710FED9F014C8C2AF50C7C2F6B25748AE4CDED822E03B7BEED44CF3A8 DUP2 JUMP JUMPDEST PUSH1 0x60 PUSH2 0x7D3 DUP3 PUSH1 0x1 PUSH2 0xFC8 JUMP JUMPDEST SWAP1 POP SWAP2 SWAP1 POP JUMP JUMPDEST PUSH2 0x80B PUSH32 0xA70A2D8710FED9F014C8C2AF50C7C2F6B25748AE4CDED822E03B7BEED44CF3A8 PUSH2 0x806 PUSH2 0xB16 JUMP JUMPDEST PUSH2 0x871 JUMP JUMPDEST DUP1 PUSH2 0x826 JUMPI POP PUSH2 0x825 PUSH1 0x0 DUP1 SHL PUSH2 0x820 PUSH2 0xB16 JUMP JUMPDEST PUSH2 0x871 JUMP JUMPDEST JUMPDEST PUSH2 0x865 JUMPI PUSH1 0x40 MLOAD PUSH32 0x8C379A000000000000000000000000000000000000000000000000000000000 DUP2 MSTORE PUSH1 0x4 ADD PUSH2 0x85C SWAP1 PUSH2 0x2315 JUMP JUMPDEST PUSH1 0x40 MLOAD DUP1 SWAP2 SUB SWAP1 REVERT JUMPDEST PUSH2 0x86E DUP2 PUSH2 0x1174 JUMP JUMPDEST POP JUMP JUMPDEST PUSH1 0x0 DUP1 PUSH1 0x0 DUP5 DUP2 MSTORE PUSH1 0x20 ADD SWAP1 DUP2 MSTORE PUSH1 0x20 ADD PUSH1 0x0 KECCAK256 PUSH1 0x0 ADD PUSH1 0x0 DUP4 PUSH20 0xFFFFFFFFFFFFFFFFFFFFFFFFFFFFFFFFFFFFFFFF AND PUSH20 0xFFFFFFFFFFFFFFFFFFFFFFFFFFFFFFFFFFFFFFFF AND DUP2 MSTORE PUSH1 0x20 ADD SWAP1 DUP2 MSTORE PUSH1 0x20 ADD PUSH1 0x0 KECCAK256 PUSH1 0x0 SWAP1 SLOAD SWAP1 PUSH2 0x100 EXP SWAP1 DIV PUSH1 0xFF AND SWAP1 POP SWAP3 SWAP2 POP POP JUMP JUMPDEST PUSH1 0x0 DUP1 SHL DUP2 JUMP JUMPDEST PUSH32 0x59D7EE6B6A4D6CC1ADE519E325968BD1178816FFD1A273FAC3229469856403D2 DUP2 JUMP JUMPDEST PUSH1 0x0 PUSH2 0x912 DUP4 DUP4 PUSH2 0x1218 JUMP JUMPDEST PUSH2 0x928 JUMPI PUSH2 0x921 PUSH1 0x0 DUP4 PUSH2 0xFAE JUMP JUMPDEST SWAP1 POP PUSH2 0x947 JUMP JUMPDEST PUSH2 0x932 DUP4 DUP4 PUSH2 0xFAE JUMP JUMPDEST DUP1 PUSH2 0x944 JUMPI POP PUSH2 0x943 PUSH1 0x0 DUP4 PUSH2 0xFAE JUMP JUMPDEST JUMPDEST SWAP1 POP JUMPDEST SWAP3 SWAP2 POP POP JUMP JUMPDEST PUSH1 0x60 PUSH1 0x0 DUP4 EQ ISZERO PUSH2 0x96A JUMPI PUSH2 0x963 PUSH1 0x0 DUP1 PUSH2 0xE7E JUMP JUMPDEST SWAP1 POP PUSH2 0x977 JUMP JUMPDEST PUSH2 0x974 DUP4 DUP4 PUSH2 0xE7E JUMP JUMPDEST SWAP1 POP JUMPDEST SWAP3 SWAP2 POP POP JUMP JUMPDEST PUSH2 0x986 DUP3 PUSH2 0x521 JUMP JUMPDEST PUSH2 0x997 DUP2 PUSH2 0x992 PUSH2 0xB16 JUMP JUMPDEST PUSH2 0xC20 JUMP JUMPDEST PUSH2 0x9A1 DUP4 DUP4 PUSH2 0xD9D JUMP JUMPDEST POP POP POP JUMP JUMPDEST PUSH1 0x0 DUP1 SHL PUSH2 0x9BB DUP2 PUSH2 0x9B6 PUSH2 0xB16 JUMP JUMPDEST PUSH2 0xC20 JUMP JUMPDEST PUSH1 0x0 PUSH1 0x1 PUSH1 0x0 PUSH2 0x100 EXP DUP2 SLOAD DUP2 PUSH1 0xFF MUL NOT AND SWAP1 DUP4 ISZERO ISZERO MUL OR SWAP1 SSTORE POP POP JUMP JUMPDEST PUSH2 0xA0A PUSH32 0xA70A2D8710FED9F014C8C2AF50C7C2F6B25748AE4CDED822E03B7BEED44CF3A8 PUSH2 0xA05 PUSH2 0xB16 JUMP JUMPDEST PUSH2 0x871 JUMP JUMPDEST DUP1 PUSH2 0xA42 JUMPI POP PUSH2 0xA41 PUSH32 0x59D7EE6B6A4D6CC1ADE519E325968BD1178816FFD1A273FAC3229469856403D2 PUSH2 0xA3C PUSH2 0xB16 JUMP JUMPDEST PUSH2 0x871 JUMP JUMPDEST JUMPDEST DUP1 PUSH2 0xA5D JUMPI POP PUSH2 0xA5C PUSH1 0x0 DUP1 SHL PUSH2 0xA57 PUSH2 0xB16 JUMP JUMPDEST PUSH2 0x871 JUMP JUMPDEST JUMPDEST PUSH2 0xA9C JUMPI PUSH1 0x40 MLOAD PUSH32 0x8C379A000000000000000000000000000000000000000000000000000000000 DUP2 MSTORE PUSH1 0x4 ADD PUSH2 0xA93 SWAP1 PUSH2 0x2315 JUMP JUMPDEST PUSH1 0x40 MLOAD DUP1 SWAP2 SUB SWAP1 REVERT JUMPDEST PUSH2 0xAA8 DUP3 DUP3 PUSH1 0x1 PUSH2 0xB1E JUMP JUMPDEST POP POP JUMP JUMPDEST PUSH1 0x0 PUSH32 0x1FFC9A700000000000000000000000000000000000000000000000000000000 PUSH28 0xFFFFFFFFFFFFFFFFFFFFFFFFFFFFFFFFFFFFFFFFFFFFFFFFFFFFFFFF NOT AND DUP3 PUSH28 0xFFFFFFFFFFFFFFFFFFFFFFFFFFFFFFFFFFFFFFFFFFFFFFFFFFFFFFFF NOT AND EQ SWAP1 POP SWAP2 SWAP1 POP JUMP JUMPDEST PUSH1 0x0 CALLER SWAP1 POP SWAP1 JUMP JUMPDEST PUSH2 0xB28 DUP4 DUP4 PUSH2 0x1218 JUMP JUMPDEST PUSH2 0xB3C JUMPI PUSH2 0xB37 DUP4 DUP4 DUP4 PUSH2 0x126E JUMP JUMPDEST PUSH2 0xB48 JUMP JUMPDEST PUSH2 0xB47 DUP4 DUP4 DUP4 PUSH2 0x1394 JUMP JUMPDEST JUMPDEST POP POP POP JUMP JUMPDEST PUSH1 0x0 JUMPDEST PUSH1 0x2 DUP1 ADD DUP4 PUSH1 0x40 MLOAD PUSH2 0xB62 SWAP2 SWAP1 PUSH2 0x21E0 JUMP JUMPDEST SWAP1 DUP2 MSTORE PUSH1 0x20 ADD PUSH1 0x40 MLOAD DUP1 SWAP2 SUB SWAP1 KECCAK256 DUP1 SLOAD SWAP1 POP DUP2 LT ISZERO PUSH2 0xC1B JUMPI PUSH1 0x0 PUSH1 0x2 DUP1 ADD DUP5 PUSH1 0x40 MLOAD PUSH2 0xB8F SWAP2 SWAP1 PUSH2 0x21E0 JUMP JUMPDEST SWAP1 DUP2 MSTORE PUSH1 0x20 ADD PUSH1 0x40 MLOAD DUP1 SWAP2 SUB SWAP1 KECCAK256 DUP3 DUP2 SLOAD DUP2 LT PUSH2 0xBD5 JUMPI PUSH32 0x4E487B7100000000000000000000000000000000000000000000000000000000 PUSH1 0x0 MSTORE PUSH1 0x32 PUSH1 0x4 MSTORE PUSH1 0x24 PUSH1 0x0 REVERT JUMPDEST SWAP1 PUSH1 0x0 MSTORE PUSH1 0x20 PUSH1 0x0 KECCAK256 ADD SLOAD SWAP1 POP DUP3 DUP1 PUSH2 0xBF6 JUMPI POP PUSH2 0xBF4 DUP2 PUSH1 0x1 PUSH2 0x13E7 JUMP JUMPDEST ISZERO JUMPDEST ISZERO PUSH2 0xC07 JUMPI PUSH2 0xC06 DUP2 PUSH1 0x0 PUSH2 0x1401 JUMP JUMPDEST JUMPDEST POP DUP1 DUP1 PUSH2 0xC13 SWAP1 PUSH2 0x2706 JUMP JUMPDEST SWAP2 POP POP PUSH2 0xB50 JUMP JUMPDEST POP POP POP JUMP JUMPDEST PUSH2 0xC2A DUP3 DUP3 PUSH2 0x871 JUMP JUMPDEST PUSH2 0xCB9 JUMPI PUSH2 0xC4F DUP2 PUSH20 0xFFFFFFFFFFFFFFFFFFFFFFFFFFFFFFFFFFFFFFFF AND PUSH1 0x14 PUSH2 0x14AF JUMP JUMPDEST PUSH2 0xC5D DUP4 PUSH1 0x0 SHR PUSH1 0x20 PUSH2 0x14AF JUMP JUMPDEST PUSH1 0x40 MLOAD PUSH1 0x20 ADD PUSH2 0xC6E SWAP3 SWAP2 SWAP1 PUSH2 0x21F7 JUMP JUMPDEST PUSH1 0x40 MLOAD PUSH1 0x20 DUP2 DUP4 SUB SUB DUP2 MSTORE SWAP1 PUSH1 0x40 MSTORE PUSH1 0x40 MLOAD PUSH32 0x8C379A000000000000000000000000000000000000000000000000000000000 DUP2 MSTORE PUSH1 0x4 ADD PUSH2 0xCB0 SWAP2 SWAP1 PUSH2 0x22D3 JUMP JUMPDEST PUSH1 0x40 MLOAD DUP1 SWAP2 SUB SWAP1 REVERT JUMPDEST POP POP JUMP JUMPDEST PUSH2 0xCC7 DUP3 DUP3 PUSH2 0x871 JUMP JUMPDEST PUSH2 0xD99 JUMPI PUSH1 0x1 PUSH1 0x0 DUP1 DUP5 DUP2 MSTORE PUSH1 0x20 ADD SWAP1 DUP2 MSTORE PUSH1 0x20 ADD PUSH1 0x0 KECCAK256 PUSH1 0x0 ADD PUSH1 0x0 DUP4 PUSH20 0xFFFFFFFFFFFFFFFFFFFFFFFFFFFFFFFFFFFFFFFF AND PUSH20 0xFFFFFFFFFFFFFFFFFFFFFFFFFFFFFFFFFFFFFFFF AND DUP2 MSTORE PUSH1 0x20 ADD SWAP1 DUP2 MSTORE PUSH1 0x20 ADD PUSH1 0x0 KECCAK256 PUSH1 0x0 PUSH2 0x100 EXP DUP2 SLOAD DUP2 PUSH1 0xFF MUL NOT AND SWAP1 DUP4 ISZERO ISZERO MUL OR SWAP1 SSTORE POP PUSH2 0xD3E PUSH2 0xB16 JUMP JUMPDEST PUSH20 0xFFFFFFFFFFFFFFFFFFFFFFFFFFFFFFFFFFFFFFFF AND DUP2 PUSH20 0xFFFFFFFFFFFFFFFFFFFFFFFFFFFFFFFFFFFFFFFF AND DUP4 PUSH32 0x2F8788117E7EFF1D82E926EC794901D17C78024A50270940304540A733656F0D PUSH1 0x40 MLOAD PUSH1 0x40 MLOAD DUP1 SWAP2 SUB SWAP1 LOG4 JUMPDEST POP POP JUMP JUMPDEST PUSH2 0xDA7 DUP3 DUP3 PUSH2 0x871 JUMP JUMPDEST ISZERO PUSH2 0xE7A JUMPI PUSH1 0x0 DUP1 PUSH1 0x0 DUP5 DUP2 MSTORE PUSH1 0x20 ADD SWAP1 DUP2 MSTORE PUSH1 0x20 ADD PUSH1 0x0 KECCAK256 PUSH1 0x0 ADD PUSH1 0x0 DUP4 PUSH20 0xFFFFFFFFFFFFFFFFFFFFFFFFFFFFFFFFFFFFFFFF AND PUSH20 0xFFFFFFFFFFFFFFFFFFFFFFFFFFFFFFFFFFFFFFFF AND DUP2 MSTORE PUSH1 0x20 ADD SWAP1 DUP2 MSTORE PUSH1 0x20 ADD PUSH1 0x0 KECCAK256 PUSH1 0x0 PUSH2 0x100 EXP DUP2 SLOAD DUP2 PUSH1 0xFF MUL NOT AND SWAP1 DUP4 ISZERO ISZERO MUL OR SWAP1 SSTORE POP PUSH2 0xE1F PUSH2 0xB16 JUMP JUMPDEST PUSH20 0xFFFFFFFFFFFFFFFFFFFFFFFFFFFFFFFFFFFFFFFF AND DUP2 PUSH20 0xFFFFFFFFFFFFFFFFFFFFFFFFFFFFFFFFFFFFFFFF AND DUP4 PUSH32 0xF6391F5C32D9C69D2A47EA670B442974B53935D1EDC7FD64EB21E047A839171B PUSH1 0x40 MLOAD PUSH1 0x40 MLOAD DUP1 SWAP2 SUB SWAP1 LOG4 JUMPDEST POP POP JUMP JUMPDEST PUSH1 0x60 DUP1 DUP3 ISZERO PUSH2 0xE95 JUMPI PUSH2 0xE92 PUSH1 0x0 DUP1 PUSH2 0xE7E JUMP JUMPDEST SWAP1 POP JUMPDEST PUSH1 0x0 DUP2 MLOAD SWAP1 POP PUSH1 0x0 JUMPDEST PUSH1 0x2 PUSH1 0x3 ADD PUSH1 0x0 DUP8 DUP2 MSTORE PUSH1 0x20 ADD SWAP1 DUP2 MSTORE PUSH1 0x20 ADD PUSH1 0x0 KECCAK256 DUP1 SLOAD SWAP1 POP DUP2 LT ISZERO PUSH2 0xFA2 JUMPI PUSH1 0x0 PUSH1 0x2 PUSH1 0x3 ADD PUSH1 0x0 DUP9 DUP2 MSTORE PUSH1 0x20 ADD SWAP1 DUP2 MSTORE PUSH1 0x20 ADD PUSH1 0x0 KECCAK256 DUP3 DUP2 SLOAD DUP2 LT PUSH2 0xF0F JUMPI PUSH32 0x4E487B7100000000000000000000000000000000000000000000000000000000 PUSH1 0x0 MSTORE PUSH1 0x32 PUSH1 0x4 MSTORE PUSH1 0x24 PUSH1 0x0 REVERT JUMPDEST SWAP1 PUSH1 0x0 MSTORE PUSH1 0x20 PUSH1 0x0 KECCAK256 ADD SLOAD SWAP1 POP PUSH1 0x0 PUSH2 0xF29 DUP3 PUSH1 0x0 PUSH2 0x17A9 JUMP JUMPDEST SWAP1 POP DUP1 PUSH1 0x60 ADD MLOAD ISZERO PUSH2 0xF8D JUMPI DUP1 PUSH1 0x40 ADD MLOAD DUP6 DUP6 DUP2 MLOAD DUP2 LT PUSH2 0xF73 JUMPI PUSH32 0x4E487B7100000000000000000000000000000000000000000000000000000000 PUSH1 0x0 MSTORE PUSH1 0x32 PUSH1 0x4 MSTORE PUSH1 0x24 PUSH1 0x0 REVERT JUMPDEST PUSH1 0x20 MUL PUSH1 0x20 ADD ADD DUP2 SWAP1 MSTORE POP DUP4 DUP1 PUSH2 0xF89 SWAP1 PUSH2 0x2706 JUMP JUMPDEST SWAP5 POP POP JUMPDEST POP POP DUP1 DUP1 PUSH2 0xF9A SWAP1 PUSH2 0x2706 JUMP JUMPDEST SWAP2 POP POP PUSH2 0xE9E JUMP JUMPDEST POP DUP2 SWAP3 POP POP POP SWAP3 SWAP2 POP POP JUMP JUMPDEST PUSH1 0x0 PUSH2 0xFBC DUP4 DUP4 PUSH1 0x0 PUSH2 0x191B JUMP JUMPDEST PUSH1 0x60 ADD MLOAD SWAP1 POP SWAP3 SWAP2 POP POP JUMP JUMPDEST PUSH1 0x60 DUP1 DUP3 DUP1 ISZERO PUSH2 0xFDF JUMPI POP PUSH2 0xFDE PUSH1 0x0 DUP6 PUSH2 0x1218 JUMP JUMPDEST JUMPDEST DUP1 ISZERO PUSH2 0xFF8 JUMPI POP PUSH2 0xFF3 PUSH1 0x0 DUP6 PUSH1 0x1 PUSH2 0x191B JUMP JUMPDEST PUSH1 0x60 ADD MLOAD JUMPDEST ISZERO PUSH2 0x1046 JUMPI PUSH1 0x0 DUP2 PUSH1 0x0 DUP2 MLOAD DUP2 LT PUSH2 0x1039 JUMPI PUSH32 0x4E487B7100000000000000000000000000000000000000000000000000000000 PUSH1 0x0 MSTORE PUSH1 0x32 PUSH1 0x4 MSTORE PUSH1 0x24 PUSH1 0x0 REVERT JUMPDEST PUSH1 0x20 MUL PUSH1 0x20 ADD ADD DUP2 DUP2 MSTORE POP POP JUMPDEST PUSH1 0x0 DUP2 MLOAD SWAP1 POP PUSH1 0x0 JUMPDEST PUSH1 0x2 DUP1 ADD DUP7 PUSH1 0x40 MLOAD PUSH2 0x1061 SWAP2 SWAP1 PUSH2 0x21E0 JUMP JUMPDEST SWAP1 DUP2 MSTORE PUSH1 0x20 ADD PUSH1 0x40 MLOAD DUP1 SWAP2 SUB SWAP1 KECCAK256 DUP1 SLOAD SWAP1 POP DUP2 LT ISZERO PUSH2 0x1168 JUMPI PUSH1 0x0 PUSH1 0x2 DUP1 ADD DUP8 PUSH1 0x40 MLOAD PUSH2 0x108E SWAP2 SWAP1 PUSH2 0x21E0 JUMP JUMPDEST SWAP1 DUP2 MSTORE PUSH1 0x20 ADD PUSH1 0x40 MLOAD DUP1 SWAP2 SUB SWAP1 KECCAK256 DUP3 DUP2 SLOAD DUP2 LT PUSH2 0x10D4 JUMPI PUSH32 0x4E487B7100000000000000000000000000000000000000000000000000000000 PUSH1 0x0 MSTORE PUSH1 0x32 PUSH1 0x4 MSTORE PUSH1 0x24 PUSH1 0x0 REVERT JUMPDEST SWAP1 PUSH1 0x0 MSTORE PUSH1 0x20 PUSH1 0x0 KECCAK256 ADD SLOAD SWAP1 POP PUSH1 0x0 PUSH2 0x10EE DUP3 PUSH1 0x0 PUSH2 0x17A9 JUMP JUMPDEST SWAP1 POP DUP1 PUSH1 0x60 ADD MLOAD ISZERO PUSH2 0x1153 JUMPI DUP1 PUSH1 0x20 ADD MLOAD DUP6 DUP6 DUP2 MLOAD DUP2 LT PUSH2 0x1138 JUMPI PUSH32 0x4E487B7100000000000000000000000000000000000000000000000000000000 PUSH1 0x0 MSTORE PUSH1 0x32 PUSH1 0x4 MSTORE PUSH1 0x24 PUSH1 0x0 REVERT JUMPDEST PUSH1 0x20 MUL PUSH1 0x20 ADD ADD DUP2 DUP2 MSTORE POP POP DUP4 DUP1 PUSH2 0x114F SWAP1 PUSH2 0x2706 JUMP JUMPDEST SWAP5 POP POP JUMPDEST POP POP DUP1 DUP1 PUSH2 0x1160 SWAP1 PUSH2 0x2706 JUMP JUMPDEST SWAP2 POP POP PUSH2 0x104F JUMP JUMPDEST POP DUP2 SWAP3 POP POP POP SWAP3 SWAP2 POP POP JUMP JUMPDEST PUSH1 0x0 JUMPDEST PUSH1 0x2 PUSH1 0x3 ADD PUSH1 0x0 DUP4 DUP2 MSTORE PUSH1 0x20 ADD SWAP1 DUP2 MSTORE PUSH1 0x20 ADD PUSH1 0x0 KECCAK256 DUP1 SLOAD SWAP1 POP DUP2 LT ISZERO PUSH2 0x1214 JUMPI PUSH1 0x0 PUSH1 0x2 PUSH1 0x3 ADD PUSH1 0x0 DUP5 DUP2 MSTORE PUSH1 0x20 ADD SWAP1 DUP2 MSTORE PUSH1 0x20 ADD PUSH1 0x0 KECCAK256 DUP3 DUP2 SLOAD DUP2 LT PUSH2 0x11E8 JUMPI PUSH32 0x4E487B7100000000000000000000000000000000000000000000000000000000 PUSH1 0x0 MSTORE PUSH1 0x32 PUSH1 0x4 MSTORE PUSH1 0x24 PUSH1 0x0 REVERT JUMPDEST SWAP1 PUSH1 0x0 MSTORE PUSH1 0x20 PUSH1 0x0 KECCAK256 ADD SLOAD SWAP1 POP PUSH2 0x1200 DUP2 PUSH1 0x0 PUSH2 0x1401 JUMP JUMPDEST POP DUP1 DUP1 PUSH2 0x120C SWAP1 PUSH2 0x2706 JUMP JUMPDEST SWAP2 POP POP PUSH2 0x1177 JUMP JUMPDEST POP POP JUMP JUMPDEST PUSH1 0x0 DUP1 PUSH1 0x2 PUSH1 0x1 ADD PUSH1 0x0 DUP6 DUP6 PUSH1 0x40 MLOAD PUSH1 0x20 ADD PUSH2 0x1235 SWAP3 SWAP2 SWAP1 PUSH2 0x2231 JUMP JUMPDEST PUSH1 0x40 MLOAD PUSH1 0x20 DUP2 DUP4 SUB SUB DUP2 MSTORE SWAP1 PUSH1 0x40 MSTORE DUP1 MLOAD SWAP1 PUSH1 0x20 ADD KECCAK256 DUP2 MSTORE PUSH1 0x20 ADD SWAP1 DUP2 MSTORE PUSH1 0x20 ADD PUSH1 0x0 KECCAK256 SLOAD SWAP1 POP PUSH2 0x1265 DUP2 PUSH2 0x197A JUMP JUMPDEST SWAP2 POP POP SWAP3 SWAP2 POP POP JUMP JUMPDEST PUSH2 0x1278 DUP4 DUP4 PUSH2 0x1218 JUMP JUMPDEST ISZERO PUSH2 0x12B8 JUMPI PUSH1 0x40 MLOAD PUSH32 0x8C379A000000000000000000000000000000000000000000000000000000000 DUP2 MSTORE PUSH1 0x4 ADD PUSH2 0x12AF SWAP1 PUSH2 0x2395 JUMP JUMPDEST PUSH1 0x40 MLOAD DUP1 SWAP2 SUB SWAP1 REVERT JUMPDEST PUSH1 0x0 PUSH2 0x12C5 DUP5 DUP5 DUP5 PUSH2 0x1987 JUMP JUMPDEST SWAP1 POP DUP1 PUSH1 0x2 PUSH1 0x1 ADD PUSH1 0x0 DUP7 DUP7 PUSH1 0x40 MLOAD PUSH1 0x20 ADD PUSH2 0x12E2 SWAP3 SWAP2 SWAP1 PUSH2 0x2231 JUMP JUMPDEST PUSH1 0x40 MLOAD PUSH1 0x20 DUP2 DUP4 SUB SUB DUP2 MSTORE SWAP1 PUSH1 0x40 MSTORE DUP1 MLOAD SWAP1 PUSH1 0x20 ADD KECCAK256 DUP2 MSTORE PUSH1 0x20 ADD SWAP1 DUP2 MSTORE PUSH1 0x20 ADD PUSH1 0x0 KECCAK256 DUP2 SWAP1 SSTORE POP PUSH1 0x2 PUSH1 0x3 ADD PUSH1 0x0 DUP6 DUP2 MSTORE PUSH1 0x20 ADD SWAP1 DUP2 MSTORE PUSH1 0x20 ADD PUSH1 0x0 KECCAK256 DUP2 SWAP1 DUP1 PUSH1 0x1 DUP2 SLOAD ADD DUP1 DUP3 SSTORE DUP1 SWAP2 POP POP PUSH1 0x1 SWAP1 SUB SWAP1 PUSH1 0x0 MSTORE PUSH1 0x20 PUSH1 0x0 KECCAK256 ADD PUSH1 0x0 SWAP1 SWAP2 SWAP1 SWAP2 SWAP1 SWAP2 POP SSTORE PUSH1 0x2 DUP1 ADD DUP4 PUSH1 0x40 MLOAD PUSH2 0x1359 SWAP2 SWAP1 PUSH2 0x21E0 JUMP JUMPDEST SWAP1 DUP2 MSTORE PUSH1 0x20 ADD PUSH1 0x40 MLOAD DUP1 SWAP2 SUB SWAP1 KECCAK256 DUP2 SWAP1 DUP1 PUSH1 0x1 DUP2 SLOAD ADD DUP1 DUP3 SSTORE DUP1 SWAP2 POP POP PUSH1 0x1 SWAP1 SUB SWAP1 PUSH1 0x0 MSTORE PUSH1 0x20 PUSH1 0x0 KECCAK256 ADD PUSH1 0x0 SWAP1 SWAP2 SWAP1 SWAP2 SWAP1 SWAP2 POP SSTORE POP POP POP POP JUMP JUMPDEST PUSH1 0x0 PUSH1 0x2 PUSH1 0x1 ADD PUSH1 0x0 DUP6 DUP6 PUSH1 0x40 MLOAD PUSH1 0x20 ADD PUSH2 0x13B0 SWAP3 SWAP2 SWAP1 PUSH2 0x2231 JUMP JUMPDEST PUSH1 0x40 MLOAD PUSH1 0x20 DUP2 DUP4 SUB SUB DUP2 MSTORE SWAP1 PUSH1 0x40 MSTORE DUP1 MLOAD SWAP1 PUSH1 0x20 ADD KECCAK256 DUP2 MSTORE PUSH1 0x20 ADD SWAP1 DUP2 MSTORE PUSH1 0x20 ADD PUSH1 0x0 KECCAK256 SLOAD SWAP1 POP PUSH2 0x13E1 DUP2 DUP4 PUSH2 0x1401 JUMP JUMPDEST POP POP POP POP JUMP JUMPDEST PUSH1 0x0 DUP1 PUSH2 0x13F4 DUP5 DUP5 PUSH2 0x17A9 JUMP JUMPDEST PUSH1 0x20 ADD MLOAD EQ SWAP1 POP SWAP3 SWAP2 POP POP JUMP JUMPDEST PUSH1 0x0 DUP3 EQ ISZERO PUSH2 0x1445 JUMPI PUSH1 0x40 MLOAD PUSH32 0x8C379A000000000000000000000000000000000000000000000000000000000 DUP2 MSTORE PUSH1 0x4 ADD PUSH2 0x143C SWAP1 PUSH2 0x2355 JUMP JUMPDEST PUSH1 0x40 MLOAD DUP1 SWAP2 SUB SWAP1 REVERT JUMPDEST DUP1 PUSH1 0x2 PUSH1 0x0 ADD DUP4 DUP2 SLOAD DUP2 LT PUSH2 0x1483 JUMPI PUSH32 0x4E487B7100000000000000000000000000000000000000000000000000000000 PUSH1 0x0 MSTORE PUSH1 0x32 PUSH1 0x4 MSTORE PUSH1 0x24 PUSH1 0x0 REVERT JUMPDEST SWAP1 PUSH1 0x0 MSTORE PUSH1 0x20 PUSH1 0x0 KECCAK256 SWAP1 PUSH1 0x4 MUL ADD PUSH1 0x3 ADD PUSH1 0x0 PUSH2 0x100 EXP DUP2 SLOAD DUP2 PUSH1 0xFF MUL NOT AND SWAP1 DUP4 ISZERO ISZERO MUL OR SWAP1 SSTORE POP POP POP JUMP JUMPDEST PUSH1 0x60 PUSH1 0x0 PUSH1 0x2 DUP4 PUSH1 0x2 PUSH2 0x14C2 SWAP2 SWAP1 PUSH2 0x252B JUMP JUMPDEST PUSH2 0x14CC SWAP2 SWAP1 PUSH2 0x24D5 JUMP JUMPDEST PUSH8 0xFFFFFFFFFFFFFFFF DUP2 GT ISZERO PUSH2 0x150B JUMPI PUSH32 0x4E487B7100000000000000000000000000000000000000000000000000000000 PUSH1 0x0 MSTORE PUSH1 0x41 PUSH1 0x4 MSTORE PUSH1 0x24 PUSH1 0x0 REVERT JUMPDEST PUSH1 0x40 MLOAD SWAP1 DUP1 DUP3 MSTORE DUP1 PUSH1 0x1F ADD PUSH1 0x1F NOT AND PUSH1 0x20 ADD DUP3 ADD PUSH1 0x40 MSTORE DUP1 ISZERO PUSH2 0x153D JUMPI DUP2 PUSH1 0x20 ADD PUSH1 0x1 DUP3 MUL DUP1 CALLDATASIZE DUP4 CALLDATACOPY DUP1 DUP3 ADD SWAP2 POP POP SWAP1 POP JUMPDEST POP SWAP1 POP PUSH32 0x3000000000000000000000000000000000000000000000000000000000000000 DUP2 PUSH1 0x0 DUP2 MLOAD DUP2 LT PUSH2 0x159B JUMPI PUSH32 0x4E487B7100000000000000000000000000000000000000000000000000000000 PUSH1 0x0 MSTORE PUSH1 0x32 PUSH1 0x4 MSTORE PUSH1 0x24 PUSH1 0x0 REVERT JUMPDEST PUSH1 0x20 ADD ADD SWAP1 PUSH31 0xFFFFFFFFFFFFFFFFFFFFFFFFFFFFFFFFFFFFFFFFFFFFFFFFFFFFFFFFFFFFFF NOT AND SWAP1 DUP2 PUSH1 0x0 BYTE SWAP1 MSTORE8 POP PUSH32 0x7800000000000000000000000000000000000000000000000000000000000000 DUP2 PUSH1 0x1 DUP2 MLOAD DUP2 LT PUSH2 0x1625 JUMPI PUSH32 0x4E487B7100000000000000000000000000000000000000000000000000000000 PUSH1 0x0 MSTORE PUSH1 0x32 PUSH1 0x4 MSTORE PUSH1 0x24 PUSH1 0x0 REVERT JUMPDEST PUSH1 0x20 ADD ADD SWAP1 PUSH31 0xFFFFFFFFFFFFFFFFFFFFFFFFFFFFFFFFFFFFFFFFFFFFFFFFFFFFFFFFFFFFFF NOT AND SWAP1 DUP2 PUSH1 0x0 BYTE SWAP1 MSTORE8 POP PUSH1 0x0 PUSH1 0x1 DUP5 PUSH1 0x2 PUSH2 0x1665 SWAP2 SWAP1 PUSH2 0x252B JUMP JUMPDEST PUSH2 0x166F SWAP2 SWAP1 PUSH2 0x24D5 JUMP JUMPDEST SWAP1 POP JUMPDEST PUSH1 0x1 DUP2 GT ISZERO PUSH2 0x175B JUMPI PUSH32 0x3031323334353637383961626364656600000000000000000000000000000000 PUSH1 0xF DUP7 AND PUSH1 0x10 DUP2 LT PUSH2 0x16D7 JUMPI PUSH32 0x4E487B7100000000000000000000000000000000000000000000000000000000 PUSH1 0x0 MSTORE PUSH1 0x32 PUSH1 0x4 MSTORE PUSH1 0x24 PUSH1 0x0 REVERT JUMPDEST BYTE PUSH1 0xF8 SHL DUP3 DUP3 DUP2 MLOAD DUP2 LT PUSH2 0x1714 JUMPI PUSH32 0x4E487B7100000000000000000000000000000000000000000000000000000000 PUSH1 0x0 MSTORE PUSH1 0x32 PUSH1 0x4 MSTORE PUSH1 0x24 PUSH1 0x0 REVERT JUMPDEST PUSH1 0x20 ADD ADD SWAP1 PUSH31 0xFFFFFFFFFFFFFFFFFFFFFFFFFFFFFFFFFFFFFFFFFFFFFFFFFFFFFFFFFFFFFF NOT AND SWAP1 DUP2 PUSH1 0x0 BYTE SWAP1 MSTORE8 POP PUSH1 0x4 DUP6 SWAP1 SHR SWAP5 POP DUP1 PUSH2 0x1754 SWAP1 PUSH2 0x2679 JUMP JUMPDEST SWAP1 POP PUSH2 0x1672 JUMP JUMPDEST POP PUSH1 0x0 DUP5 EQ PUSH2 0x179F JUMPI PUSH1 0x40 MLOAD PUSH32 0x8C379A000000000000000000000000000000000000000000000000000000000 DUP2 MSTORE PUSH1 0x4 ADD PUSH2 0x1796 SWAP1 PUSH2 0x22F5 JUMP JUMPDEST PUSH1 0x40 MLOAD DUP1 SWAP2 SUB SWAP1 REVERT JUMPDEST DUP1 SWAP2 POP POP SWAP3 SWAP2 POP POP JUMP JUMPDEST PUSH2 0x17B1 PUSH2 0x1B99 JUMP JUMPDEST DUP2 ISZERO PUSH2 0x17FC JUMPI PUSH1 0x0 DUP4 EQ ISZERO PUSH2 0x17FB JUMPI PUSH1 0x40 MLOAD PUSH32 0x8C379A000000000000000000000000000000000000000000000000000000000 DUP2 MSTORE PUSH1 0x4 ADD PUSH2 0x17F2 SWAP1 PUSH2 0x2375 JUMP JUMPDEST PUSH1 0x40 MLOAD DUP1 SWAP2 SUB SWAP1 REVERT JUMPDEST JUMPDEST PUSH1 0x2 PUSH1 0x0 ADD DUP4 DUP2 SLOAD DUP2 LT PUSH2 0x1839 JUMPI PUSH32 0x4E487B7100000000000000000000000000000000000000000000000000000000 PUSH1 0x0 MSTORE PUSH1 0x32 PUSH1 0x4 MSTORE PUSH1 0x24 PUSH1 0x0 REVERT JUMPDEST SWAP1 PUSH1 0x0 MSTORE PUSH1 0x20 PUSH1 0x0 KECCAK256 SWAP1 PUSH1 0x4 MUL ADD PUSH1 0x40 MLOAD DUP1 PUSH1 0x80 ADD PUSH1 0x40 MSTORE SWAP1 DUP2 PUSH1 0x0 DUP3 ADD SLOAD DUP2 MSTORE PUSH1 0x20 ADD PUSH1 0x1 DUP3 ADD SLOAD DUP2 MSTORE PUSH1 0x20 ADD PUSH1 0x2 DUP3 ADD DUP1 SLOAD PUSH2 0x1876 SWAP1 PUSH2 0x26A3 JUMP JUMPDEST DUP1 PUSH1 0x1F ADD PUSH1 0x20 DUP1 SWAP2 DIV MUL PUSH1 0x20 ADD PUSH1 0x40 MLOAD SWAP1 DUP2 ADD PUSH1 0x40 MSTORE DUP1 SWAP3 SWAP2 SWAP1 DUP2 DUP2 MSTORE PUSH1 0x20 ADD DUP3 DUP1 SLOAD PUSH2 0x18A2 SWAP1 PUSH2 0x26A3 JUMP JUMPDEST DUP1 ISZERO PUSH2 0x18EF JUMPI DUP1 PUSH1 0x1F LT PUSH2 0x18C4 JUMPI PUSH2 0x100 DUP1 DUP4 SLOAD DIV MUL DUP4 MSTORE SWAP2 PUSH1 0x20 ADD SWAP2 PUSH2 0x18EF JUMP JUMPDEST DUP3 ADD SWAP2 SWAP1 PUSH1 0x0 MSTORE PUSH1 0x20 PUSH1 0x0 KECCAK256 SWAP1 JUMPDEST DUP2 SLOAD DUP2 MSTORE SWAP1 PUSH1 0x1 ADD SWAP1 PUSH1 0x20 ADD DUP1 DUP4 GT PUSH2 0x18D2 JUMPI DUP3 SWAP1 SUB PUSH1 0x1F AND DUP3 ADD SWAP2 JUMPDEST POP POP POP POP POP DUP2 MSTORE PUSH1 0x20 ADD PUSH1 0x3 DUP3 ADD PUSH1 0x0 SWAP1 SLOAD SWAP1 PUSH2 0x100 EXP SWAP1 DIV PUSH1 0xFF AND ISZERO ISZERO ISZERO ISZERO DUP2 MSTORE POP POP SWAP1 POP SWAP3 SWAP2 POP POP JUMP JUMPDEST PUSH2 0x1923 PUSH2 0x1B99 JUMP JUMPDEST PUSH1 0x0 PUSH1 0x2 PUSH1 0x1 ADD PUSH1 0x0 DUP7 DUP7 PUSH1 0x40 MLOAD PUSH1 0x20 ADD PUSH2 0x193F SWAP3 SWAP2 SWAP1 PUSH2 0x2231 JUMP JUMPDEST PUSH1 0x40 MLOAD PUSH1 0x20 DUP2 DUP4 SUB SUB DUP2 MSTORE SWAP1 PUSH1 0x40 MSTORE DUP1 MLOAD SWAP1 PUSH1 0x20 ADD KECCAK256 DUP2 MSTORE PUSH1 0x20 ADD SWAP1 DUP2 MSTORE PUSH1 0x20 ADD PUSH1 0x0 KECCAK256 SLOAD SWAP1 POP PUSH2 0x1970 DUP2 DUP5 PUSH2 0x17A9 JUMP JUMPDEST SWAP2 POP POP SWAP4 SWAP3 POP POP POP JUMP JUMPDEST PUSH1 0x0 DUP1 DUP3 EQ ISZERO SWAP1 POP SWAP2 SWAP1 POP JUMP JUMPDEST PUSH1 0x0 DUP1 PUSH1 0x2 PUSH1 0x0 ADD DUP1 SLOAD SWAP1 POP EQ ISZERO PUSH2 0x1A6F JUMPI PUSH1 0x40 MLOAD DUP1 PUSH1 0x80 ADD PUSH1 0x40 MSTORE DUP1 PUSH1 0x0 DUP2 MSTORE PUSH1 0x20 ADD PUSH1 0x0 DUP2 MSTORE PUSH1 0x20 ADD PUSH1 0x40 MLOAD DUP1 PUSH1 0x20 ADD PUSH1 0x40 MSTORE DUP1 PUSH1 0x0 DUP2 MSTORE POP DUP2 MSTORE PUSH1 0x20 ADD PUSH1 0x0 ISZERO ISZERO DUP2 MSTORE POP PUSH1 0x2 PUSH1 0x0 ADD PUSH1 0x0 DUP2 SLOAD DUP2 LT PUSH2 0x1A0C JUMPI PUSH32 0x4E487B7100000000000000000000000000000000000000000000000000000000 PUSH1 0x0 MSTORE PUSH1 0x32 PUSH1 0x4 MSTORE PUSH1 0x24 PUSH1 0x0 REVERT JUMPDEST SWAP1 PUSH1 0x0 MSTORE PUSH1 0x20 PUSH1 0x0 KECCAK256 SWAP1 PUSH1 0x4 MUL ADD PUSH1 0x0 DUP3 ADD MLOAD DUP2 PUSH1 0x0 ADD SSTORE PUSH1 0x20 DUP3 ADD MLOAD DUP2 PUSH1 0x1 ADD SSTORE PUSH1 0x40 DUP3 ADD MLOAD DUP2 PUSH1 0x2 ADD SWAP1 DUP1 MLOAD SWAP1 PUSH1 0x20 ADD SWAP1 PUSH2 0x1A4A SWAP3 SWAP2 SWAP1 PUSH2 0x1BC3 JUMP JUMPDEST POP PUSH1 0x60 DUP3 ADD MLOAD DUP2 PUSH1 0x3 ADD PUSH1 0x0 PUSH2 0x100 EXP DUP2 SLOAD DUP2 PUSH1 0xFF MUL NOT AND SWAP1 DUP4 ISZERO ISZERO MUL OR SWAP1 SSTORE POP SWAP1 POP POP JUMPDEST PUSH1 0x40 MLOAD DUP1 PUSH1 0x20 ADD PUSH1 0x40 MSTORE DUP1 PUSH1 0x0 DUP2 MSTORE POP DUP1 MLOAD SWAP1 PUSH1 0x20 ADD KECCAK256 DUP4 DUP1 MLOAD SWAP1 PUSH1 0x20 ADD KECCAK256 EQ ISZERO PUSH2 0x1ACF JUMPI PUSH1 0x40 MLOAD PUSH32 0x8C379A000000000000000000000000000000000000000000000000000000000 DUP2 MSTORE PUSH1 0x4 ADD PUSH2 0x1AC6 SWAP1 PUSH2 0x2335 JUMP JUMPDEST PUSH1 0x40 MLOAD DUP1 SWAP2 SUB SWAP1 REVERT JUMPDEST PUSH1 0x2 PUSH1 0x0 ADD PUSH1 0x40 MLOAD DUP1 PUSH1 0x80 ADD PUSH1 0x40 MSTORE DUP1 PUSH1 0x2 PUSH1 0x0 ADD DUP1 SLOAD SWAP1 POP DUP2 MSTORE PUSH1 0x20 ADD DUP7 DUP2 MSTORE PUSH1 0x20 ADD DUP6 DUP2 MSTORE PUSH1 0x20 ADD DUP5 ISZERO ISZERO DUP2 MSTORE POP SWAP1 DUP1 PUSH1 0x1 DUP2 SLOAD ADD DUP1 DUP3 SSTORE DUP1 SWAP2 POP POP PUSH1 0x1 SWAP1 SUB SWAP1 PUSH1 0x0 MSTORE PUSH1 0x20 PUSH1 0x0 KECCAK256 SWAP1 PUSH1 0x4 MUL ADD PUSH1 0x0 SWAP1 SWAP2 SWAP1 SWAP2 SWAP1 SWAP2 POP PUSH1 0x0 DUP3 ADD MLOAD DUP2 PUSH1 0x0 ADD SSTORE PUSH1 0x20 DUP3 ADD MLOAD DUP2 PUSH1 0x1 ADD SSTORE PUSH1 0x40 DUP3 ADD MLOAD DUP2 PUSH1 0x2 ADD SWAP1 DUP1 MLOAD SWAP1 PUSH1 0x20 ADD SWAP1 PUSH2 0x1B58 SWAP3 SWAP2 SWAP1 PUSH2 0x1BC3 JUMP JUMPDEST POP PUSH1 0x60 DUP3 ADD MLOAD DUP2 PUSH1 0x3 ADD PUSH1 0x0 PUSH2 0x100 EXP DUP2 SLOAD DUP2 PUSH1 0xFF MUL NOT AND SWAP1 DUP4 ISZERO ISZERO MUL OR SWAP1 SSTORE POP POP POP PUSH1 0x1 PUSH1 0x2 PUSH1 0x0 ADD DUP1 SLOAD SWAP1 POP PUSH2 0x1B90 SWAP2 SWAP1 PUSH2 0x2585 JUMP JUMPDEST SWAP1 POP SWAP4 SWAP3 POP POP POP JUMP JUMPDEST PUSH1 0x40 MLOAD DUP1 PUSH1 0x80 ADD PUSH1 0x40 MSTORE DUP1 PUSH1 0x0 DUP2 MSTORE PUSH1 0x20 ADD PUSH1 0x0 DUP2 MSTORE PUSH1 0x20 ADD PUSH1 0x60 DUP2 MSTORE PUSH1 0x20 ADD PUSH1 0x0 ISZERO ISZERO DUP2 MSTORE POP SWAP1 JUMP JUMPDEST DUP3 DUP1 SLOAD PUSH2 0x1BCF SWAP1 PUSH2 0x26A3 JUMP JUMPDEST SWAP1 PUSH1 0x0 MSTORE PUSH1 0x20 PUSH1 0x0 KECCAK256 SWAP1 PUSH1 0x1F ADD PUSH1 0x20 SWAP1 DIV DUP2 ADD SWAP3 DUP3 PUSH2 0x1BF1 JUMPI PUSH1 0x0 DUP6 SSTORE PUSH2 0x1C38 JUMP JUMPDEST DUP3 PUSH1 0x1F LT PUSH2 0x1C0A JUMPI DUP1 MLOAD PUSH1 0xFF NOT AND DUP4 DUP1 ADD OR DUP6 SSTORE PUSH2 0x1C38 JUMP JUMPDEST DUP3 DUP1 ADD PUSH1 0x1 ADD DUP6 SSTORE DUP3 ISZERO PUSH2 0x1C38 JUMPI SWAP2 DUP3 ADD JUMPDEST DUP3 DUP2 GT ISZERO PUSH2 0x1C37 JUMPI DUP3 MLOAD DUP3 SSTORE SWAP2 PUSH1 0x20 ADD SWAP2 SWAP1 PUSH1 0x1 ADD SWAP1 PUSH2 0x1C1C JUMP JUMPDEST JUMPDEST POP SWAP1 POP PUSH2 0x1C45 SWAP2 SWAP1 PUSH2 0x1C49 JUMP JUMPDEST POP SWAP1 JUMP JUMPDEST JUMPDEST DUP1 DUP3 GT ISZERO PUSH2 0x1C62 JUMPI PUSH1 0x0 DUP2 PUSH1 0x0 SWAP1 SSTORE POP PUSH1 0x1 ADD PUSH2 0x1C4A JUMP JUMPDEST POP SWAP1 JUMP JUMPDEST PUSH1 0x0 PUSH2 0x1C79 PUSH2 0x1C74 DUP5 PUSH2 0x23FA JUMP JUMPDEST PUSH2 0x23D5 JUMP JUMPDEST SWAP1 POP DUP3 DUP2 MSTORE PUSH1 0x20 DUP2 ADD DUP5 DUP5 DUP5 ADD GT ISZERO PUSH2 0x1C91 JUMPI PUSH1 0x0 DUP1 REVERT JUMPDEST PUSH2 0x1C9C DUP5 DUP3 DUP6 PUSH2 0x2637 JUMP JUMPDEST POP SWAP4 SWAP3 POP POP POP JUMP JUMPDEST PUSH1 0x0 DUP2 CALLDATALOAD SWAP1 POP PUSH2 0x1CB3 DUP2 PUSH2 0x29DA JUMP JUMPDEST SWAP3 SWAP2 POP POP JUMP JUMPDEST PUSH1 0x0 DUP2 CALLDATALOAD SWAP1 POP PUSH2 0x1CC8 DUP2 PUSH2 0x29F1 JUMP JUMPDEST SWAP3 SWAP2 POP POP JUMP JUMPDEST PUSH1 0x0 DUP2 CALLDATALOAD SWAP1 POP PUSH2 0x1CDD DUP2 PUSH2 0x2A08 JUMP JUMPDEST SWAP3 SWAP2 POP POP JUMP JUMPDEST PUSH1 0x0 DUP2 CALLDATALOAD SWAP1 POP PUSH2 0x1CF2 DUP2 PUSH2 0x2A1F JUMP JUMPDEST SWAP3 SWAP2 POP POP JUMP JUMPDEST PUSH1 0x0 DUP3 PUSH1 0x1F DUP4 ADD SLT PUSH2 0x1D09 JUMPI PUSH1 0x0 DUP1 REVERT JUMPDEST DUP2 CALLDATALOAD PUSH2 0x1D19 DUP5 DUP3 PUSH1 0x20 DUP7 ADD PUSH2 0x1C66 JUMP JUMPDEST SWAP2 POP POP SWAP3 SWAP2 POP POP JUMP JUMPDEST PUSH1 0x0 DUP2 CALLDATALOAD SWAP1 POP PUSH2 0x1D31 DUP2 PUSH2 0x2A36 JUMP JUMPDEST SWAP3 SWAP2 POP POP JUMP JUMPDEST PUSH1 0x0 PUSH1 0x20 DUP3 DUP5 SUB SLT ISZERO PUSH2 0x1D49 JUMPI PUSH1 0x0 DUP1 REVERT JUMPDEST PUSH1 0x0 PUSH2 0x1D57 DUP5 DUP3 DUP6 ADD PUSH2 0x1CCE JUMP JUMPDEST SWAP2 POP POP SWAP3 SWAP2 POP POP JUMP JUMPDEST PUSH1 0x0 DUP1 PUSH1 0x40 DUP4 DUP6 SUB SLT ISZERO PUSH2 0x1D73 JUMPI PUSH1 0x0 DUP1 REVERT JUMPDEST PUSH1 0x0 PUSH2 0x1D81 DUP6 DUP3 DUP7 ADD PUSH2 0x1CCE JUMP JUMPDEST SWAP3 POP POP PUSH1 0x20 PUSH2 0x1D92 DUP6 DUP3 DUP7 ADD PUSH2 0x1CA4 JUMP JUMPDEST SWAP2 POP POP SWAP3 POP SWAP3 SWAP1 POP JUMP JUMPDEST PUSH1 0x0 PUSH1 0x20 DUP3 DUP5 SUB SLT ISZERO PUSH2 0x1DAE JUMPI PUSH1 0x0 DUP1 REVERT JUMPDEST PUSH1 0x0 PUSH2 0x1DBC DUP5 DUP3 DUP6 ADD PUSH2 0x1CE3 JUMP JUMPDEST SWAP2 POP POP SWAP3 SWAP2 POP POP JUMP JUMPDEST PUSH1 0x0 PUSH1 0x20 DUP3 DUP5 SUB SLT ISZERO PUSH2 0x1DD7 JUMPI PUSH1 0x0 DUP1 REVERT JUMPDEST PUSH1 0x0 DUP3 ADD CALLDATALOAD PUSH8 0xFFFFFFFFFFFFFFFF DUP2 GT ISZERO PUSH2 0x1DF1 JUMPI PUSH1 0x0 DUP1 REVERT JUMPDEST PUSH2 0x1DFD DUP5 DUP3 DUP6 ADD PUSH2 0x1CF8 JUMP JUMPDEST SWAP2 POP POP SWAP3 SWAP2 POP POP JUMP JUMPDEST PUSH1 0x0 PUSH1 0x20 DUP3 DUP5 SUB SLT ISZERO PUSH2 0x1E18 JUMPI PUSH1 0x0 DUP1 REVERT JUMPDEST PUSH1 0x0 PUSH2 0x1E26 DUP5 DUP3 DUP6 ADD PUSH2 0x1D22 JUMP JUMPDEST SWAP2 POP POP SWAP3 SWAP2 POP POP JUMP JUMPDEST PUSH1 0x0 DUP1 PUSH1 0x40 DUP4 DUP6 SUB SLT ISZERO PUSH2 0x1E42 JUMPI PUSH1 0x0 DUP1 REVERT JUMPDEST PUSH1 0x0 PUSH2 0x1E50 DUP6 DUP3 DUP7 ADD PUSH2 0x1D22 JUMP JUMPDEST SWAP3 POP POP PUSH1 0x20 PUSH2 0x1E61 DUP6 DUP3 DUP7 ADD PUSH2 0x1CB9 JUMP JUMPDEST SWAP2 POP POP SWAP3 POP SWAP3 SWAP1 POP JUMP JUMPDEST PUSH1 0x0 DUP1 PUSH1 0x40 DUP4 DUP6 SUB SLT ISZERO PUSH2 0x1E7E JUMPI PUSH1 0x0 DUP1 REVERT JUMPDEST PUSH1 0x0 PUSH2 0x1E8C DUP6 DUP3 DUP7 ADD PUSH2 0x1D22 JUMP JUMPDEST SWAP3 POP POP PUSH1 0x20 DUP4 ADD CALLDATALOAD PUSH8 0xFFFFFFFFFFFFFFFF DUP2 GT ISZERO PUSH2 0x1EA9 JUMPI PUSH1 0x0 DUP1 REVERT JUMPDEST PUSH2 0x1EB5 DUP6 DUP3 DUP7 ADD PUSH2 0x1CF8 JUMP JUMPDEST SWAP2 POP POP SWAP3 POP SWAP3 SWAP1 POP JUMP JUMPDEST PUSH1 0x0 PUSH2 0x1ECB DUP4 DUP4 PUSH2 0x1FDC JUMP JUMPDEST SWAP1 POP SWAP3 SWAP2 POP POP JUMP JUMPDEST PUSH1 0x0 PUSH2 0x1EDF DUP4 DUP4 PUSH2 0x21BA JUMP JUMPDEST PUSH1 0x20 DUP4 ADD SWAP1 POP SWAP3 SWAP2 POP POP JUMP JUMPDEST PUSH1 0x0 PUSH2 0x1EF6 DUP3 PUSH2 0x244B JUMP JUMPDEST PUSH2 0x1F00 DUP2 DUP6 PUSH2 0x2486 JUMP JUMPDEST SWAP4 POP DUP4 PUSH1 0x20 DUP3 MUL DUP6 ADD PUSH2 0x1F12 DUP6 PUSH2 0x242B JUMP JUMPDEST DUP1 PUSH1 0x0 JUMPDEST DUP6 DUP2 LT ISZERO PUSH2 0x1F4E JUMPI DUP5 DUP5 SUB DUP10 MSTORE DUP2 MLOAD PUSH2 0x1F2F DUP6 DUP3 PUSH2 0x1EBF JUMP JUMPDEST SWAP5 POP PUSH2 0x1F3A DUP4 PUSH2 0x246C JUMP JUMPDEST SWAP3 POP PUSH1 0x20 DUP11 ADD SWAP10 POP POP PUSH1 0x1 DUP2 ADD SWAP1 POP PUSH2 0x1F16 JUMP JUMPDEST POP DUP3 SWAP8 POP DUP8 SWAP6 POP POP POP POP POP POP SWAP3 SWAP2 POP POP JUMP JUMPDEST PUSH1 0x0 PUSH2 0x1F6B DUP3 PUSH2 0x2456 JUMP JUMPDEST PUSH2 0x1F75 DUP2 DUP6 PUSH2 0x2497 JUMP JUMPDEST SWAP4 POP PUSH2 0x1F80 DUP4 PUSH2 0x243B JUMP JUMPDEST DUP1 PUSH1 0x0 JUMPDEST DUP4 DUP2 LT ISZERO PUSH2 0x1FB1 JUMPI DUP2 MLOAD PUSH2 0x1F98 DUP9 DUP3 PUSH2 0x1ED3 JUMP JUMPDEST SWAP8 POP PUSH2 0x1FA3 DUP4 PUSH2 0x2479 JUMP JUMPDEST SWAP3 POP POP PUSH1 0x1 DUP2 ADD SWAP1 POP PUSH2 0x1F84 JUMP JUMPDEST POP DUP6 SWAP4 POP POP POP POP SWAP3 SWAP2 POP POP JUMP JUMPDEST PUSH2 0x1FC7 DUP2 PUSH2 0x25CB JUMP JUMPDEST DUP3 MSTORE POP POP JUMP JUMPDEST PUSH2 0x1FD6 DUP2 PUSH2 0x25D7 JUMP JUMPDEST DUP3 MSTORE POP POP JUMP JUMPDEST PUSH1 0x0 PUSH2 0x1FE7 DUP3 PUSH2 0x2461 JUMP JUMPDEST PUSH2 0x1FF1 DUP2 DUP6 PUSH2 0x24A8 JUMP JUMPDEST SWAP4 POP PUSH2 0x2001 DUP2 DUP6 PUSH1 0x20 DUP7 ADD PUSH2 0x2646 JUMP JUMPDEST PUSH2 0x200A DUP2 PUSH2 0x27E6 JUMP JUMPDEST DUP5 ADD SWAP2 POP POP SWAP3 SWAP2 POP POP JUMP JUMPDEST PUSH1 0x0 PUSH2 0x2020 DUP3 PUSH2 0x2461 JUMP JUMPDEST PUSH2 0x202A DUP2 DUP6 PUSH2 0x24B9 JUMP JUMPDEST SWAP4 POP PUSH2 0x203A DUP2 DUP6 PUSH1 0x20 DUP7 ADD PUSH2 0x2646 JUMP JUMPDEST PUSH2 0x2043 DUP2 PUSH2 0x27E6 JUMP JUMPDEST DUP5 ADD SWAP2 POP POP SWAP3 SWAP2 POP POP JUMP JUMPDEST PUSH1 0x0 PUSH2 0x2059 DUP3 PUSH2 0x2461 JUMP JUMPDEST PUSH2 0x2063 DUP2 DUP6 PUSH2 0x24CA JUMP JUMPDEST SWAP4 POP PUSH2 0x2073 DUP2 DUP6 PUSH1 0x20 DUP7 ADD PUSH2 0x2646 JUMP JUMPDEST DUP1 DUP5 ADD SWAP2 POP POP SWAP3 SWAP2 POP POP JUMP JUMPDEST PUSH1 0x0 PUSH2 0x208C PUSH1 0x20 DUP4 PUSH2 0x24B9 JUMP JUMPDEST SWAP2 POP PUSH2 0x2097 DUP3 PUSH2 0x27F7 JUMP JUMPDEST PUSH1 0x20 DUP3 ADD SWAP1 POP SWAP2 SWAP1 POP JUMP JUMPDEST PUSH1 0x0 PUSH2 0x20AF PUSH1 0x22 DUP4 PUSH2 0x24B9 JUMP JUMPDEST SWAP2 POP PUSH2 0x20BA DUP3 PUSH2 0x2820 JUMP JUMPDEST PUSH1 0x40 DUP3 ADD SWAP1 POP SWAP2 SWAP1 POP JUMP JUMPDEST PUSH1 0x0 PUSH2 0x20D2 PUSH1 0x14 DUP4 PUSH2 0x24B9 JUMP JUMPDEST SWAP2 POP PUSH2 0x20DD DUP3 PUSH2 0x286F JUMP JUMPDEST PUSH1 0x20 DUP3 ADD SWAP1 POP SWAP2 SWAP1 POP JUMP JUMPDEST PUSH1 0x0 PUSH2 0x20F5 PUSH1 0x14 DUP4 PUSH2 0x24B9 JUMP JUMPDEST SWAP2 POP PUSH2 0x2100 DUP3 PUSH2 0x2898 JUMP JUMPDEST PUSH1 0x20 DUP3 ADD SWAP1 POP SWAP2 SWAP1 POP JUMP JUMPDEST PUSH1 0x0 PUSH2 0x2118 PUSH1 0x14 DUP4 PUSH2 0x24B9 JUMP JUMPDEST SWAP2 POP PUSH2 0x2123 DUP3 PUSH2 0x28C1 JUMP JUMPDEST PUSH1 0x20 DUP3 ADD SWAP1 POP SWAP2 SWAP1 POP JUMP JUMPDEST PUSH1 0x0 PUSH2 0x213B PUSH1 0x3D DUP4 PUSH2 0x24B9 JUMP JUMPDEST SWAP2 POP PUSH2 0x2146 DUP3 PUSH2 0x28EA JUMP JUMPDEST PUSH1 0x40 DUP3 ADD SWAP1 POP SWAP2 SWAP1 POP JUMP JUMPDEST PUSH1 0x0 PUSH2 0x215E PUSH1 0x17 DUP4 PUSH2 0x24CA JUMP JUMPDEST SWAP2 POP PUSH2 0x2169 DUP3 PUSH2 0x2939 JUMP JUMPDEST PUSH1 0x17 DUP3 ADD SWAP1 POP SWAP2 SWAP1 POP JUMP JUMPDEST PUSH1 0x0 PUSH2 0x2181 PUSH1 0x11 DUP4 PUSH2 0x24CA JUMP JUMPDEST SWAP2 POP PUSH2 0x218C DUP3 PUSH2 0x2962 JUMP JUMPDEST PUSH1 0x11 DUP3 ADD SWAP1 POP SWAP2 SWAP1 POP JUMP JUMPDEST PUSH1 0x0 PUSH2 0x21A4 PUSH1 0x2F DUP4 PUSH2 0x24B9 JUMP JUMPDEST SWAP2 POP PUSH2 0x21AF DUP3 PUSH2 0x298B JUMP JUMPDEST PUSH1 0x40 DUP3 ADD SWAP1 POP SWAP2 SWAP1 POP JUMP JUMPDEST PUSH2 0x21C3 DUP2 PUSH2 0x262D JUMP JUMPDEST DUP3 MSTORE POP POP JUMP JUMPDEST PUSH2 0x21DA PUSH2 0x21D5 DUP3 PUSH2 0x262D JUMP JUMPDEST PUSH2 0x274F JUMP JUMPDEST DUP3 MSTORE POP POP JUMP JUMPDEST PUSH1 0x0 PUSH2 0x21EC DUP3 DUP5 PUSH2 0x204E JUMP JUMPDEST SWAP2 POP DUP2 SWAP1 POP SWAP3 SWAP2 POP POP JUMP JUMPDEST PUSH1 0x0 PUSH2 0x2202 DUP3 PUSH2 0x2151 JUMP JUMPDEST SWAP2 POP PUSH2 0x220E DUP3 DUP6 PUSH2 0x204E JUMP JUMPDEST SWAP2 POP PUSH2 0x2219 DUP3 PUSH2 0x2174 JUMP JUMPDEST SWAP2 POP PUSH2 0x2225 DUP3 DUP5 PUSH2 0x204E JUMP JUMPDEST SWAP2 POP DUP2 SWAP1 POP SWAP4 SWAP3 POP POP POP JUMP JUMPDEST PUSH1 0x0 PUSH2 0x223D DUP3 DUP6 PUSH2 0x21C9 JUMP JUMPDEST PUSH1 0x20 DUP3 ADD SWAP2 POP PUSH2 0x224D DUP3 DUP5 PUSH2 0x204E JUMP JUMPDEST SWAP2 POP DUP2 SWAP1 POP SWAP4 SWAP3 POP POP POP JUMP JUMPDEST PUSH1 0x0 PUSH1 0x20 DUP3 ADD SWAP1 POP DUP2 DUP2 SUB PUSH1 0x0 DUP4 ADD MSTORE PUSH2 0x2273 DUP2 DUP5 PUSH2 0x1EEB JUMP JUMPDEST SWAP1 POP SWAP3 SWAP2 POP POP JUMP JUMPDEST PUSH1 0x0 PUSH1 0x20 DUP3 ADD SWAP1 POP DUP2 DUP2 SUB PUSH1 0x0 DUP4 ADD MSTORE PUSH2 0x2295 DUP2 DUP5 PUSH2 0x1F60 JUMP JUMPDEST SWAP1 POP SWAP3 SWAP2 POP POP JUMP JUMPDEST PUSH1 0x0 PUSH1 0x20 DUP3 ADD SWAP1 POP PUSH2 0x22B2 PUSH1 0x0 DUP4 ADD DUP5 PUSH2 0x1FBE JUMP JUMPDEST SWAP3 SWAP2 POP POP JUMP JUMPDEST PUSH1 0x0 PUSH1 0x20 DUP3 ADD SWAP1 POP PUSH2 0x22CD PUSH1 0x0 DUP4 ADD DUP5 PUSH2 0x1FCD JUMP JUMPDEST SWAP3 SWAP2 POP POP JUMP JUMPDEST PUSH1 0x0 PUSH1 0x20 DUP3 ADD SWAP1 POP DUP2 DUP2 SUB PUSH1 0x0 DUP4 ADD MSTORE PUSH2 0x22ED DUP2 DUP5 PUSH2 0x2015 JUMP JUMPDEST SWAP1 POP SWAP3 SWAP2 POP POP JUMP JUMPDEST PUSH1 0x0 PUSH1 0x20 DUP3 ADD SWAP1 POP DUP2 DUP2 SUB PUSH1 0x0 DUP4 ADD MSTORE PUSH2 0x230E DUP2 PUSH2 0x207F JUMP JUMPDEST SWAP1 POP SWAP2 SWAP1 POP JUMP JUMPDEST PUSH1 0x0 PUSH1 0x20 DUP3 ADD SWAP1 POP DUP2 DUP2 SUB PUSH1 0x0 DUP4 ADD MSTORE PUSH2 0x232E DUP2 PUSH2 0x20A2 JUMP JUMPDEST SWAP1 POP SWAP2 SWAP1 POP JUMP JUMPDEST PUSH1 0x0 PUSH1 0x20 DUP3 ADD SWAP1 POP DUP2 DUP2 SUB PUSH1 0x0 DUP4 ADD MSTORE PUSH2 0x234E DUP2 PUSH2 0x20C5 JUMP JUMPDEST SWAP1 POP SWAP2 SWAP1 POP JUMP JUMPDEST PUSH1 0x0 PUSH1 0x20 DUP3 ADD SWAP1 POP DUP2 DUP2 SUB PUSH1 0x0 DUP4 ADD MSTORE PUSH2 0x236E DUP2 PUSH2 0x20E8 JUMP JUMPDEST SWAP1 POP SWAP2 SWAP1 POP JUMP JUMPDEST PUSH1 0x0 PUSH1 0x20 DUP3 ADD SWAP1 POP DUP2 DUP2 SUB PUSH1 0x0 DUP4 ADD MSTORE PUSH2 0x238E DUP2 PUSH2 0x210B JUMP JUMPDEST SWAP1 POP SWAP2 SWAP1 POP JUMP JUMPDEST PUSH1 0x0 PUSH1 0x20 DUP3 ADD SWAP1 POP DUP2 DUP2 SUB PUSH1 0x0 DUP4 ADD MSTORE PUSH2 0x23AE DUP2 PUSH2 0x212E JUMP JUMPDEST SWAP1 POP SWAP2 SWAP1 POP JUMP JUMPDEST PUSH1 0x0 PUSH1 0x20 DUP3 ADD SWAP1 POP DUP2 DUP2 SUB PUSH1 0x0 DUP4 ADD MSTORE PUSH2 0x23CE DUP2 PUSH2 0x2197 JUMP JUMPDEST SWAP1 POP SWAP2 SWAP1 POP JUMP JUMPDEST PUSH1 0x0 PUSH2 0x23DF PUSH2 0x23F0 JUMP JUMPDEST SWAP1 POP PUSH2 0x23EB DUP3 DUP3 PUSH2 0x26D5 JUMP JUMPDEST SWAP2 SWAP1 POP JUMP JUMPDEST PUSH1 0x0 PUSH1 0x40 MLOAD SWAP1 POP SWAP1 JUMP JUMPDEST PUSH1 0x0 PUSH8 0xFFFFFFFFFFFFFFFF DUP3 GT ISZERO PUSH2 0x2415 JUMPI PUSH2 0x2414 PUSH2 0x27B7 JUMP JUMPDEST JUMPDEST PUSH2 0x241E DUP3 PUSH2 0x27E6 JUMP JUMPDEST SWAP1 POP PUSH1 0x20 DUP2 ADD SWAP1 POP SWAP2 SWAP1 POP JUMP JUMPDEST PUSH1 0x0 DUP2 SWAP1 POP PUSH1 0x20 DUP3 ADD SWAP1 POP SWAP2 SWAP1 POP JUMP JUMPDEST PUSH1 0x0 DUP2 SWAP1 POP PUSH1 0x20 DUP3 ADD SWAP1 POP SWAP2 SWAP1 POP JUMP JUMPDEST PUSH1 0x0 DUP2 MLOAD SWAP1 POP SWAP2 SWAP1 POP JUMP JUMPDEST PUSH1 0x0 DUP2 MLOAD SWAP1 POP SWAP2 SWAP1 POP JUMP JUMPDEST PUSH1 0x0 DUP2 MLOAD SWAP1 POP SWAP2 SWAP1 POP JUMP JUMPDEST PUSH1 0x0 PUSH1 0x20 DUP3 ADD SWAP1 POP SWAP2 SWAP1 POP JUMP JUMPDEST PUSH1 0x0 PUSH1 0x20 DUP3 ADD SWAP1 POP SWAP2 SWAP1 POP JUMP JUMPDEST PUSH1 0x0 DUP3 DUP3 MSTORE PUSH1 0x20 DUP3 ADD SWAP1 POP SWAP3 SWAP2 POP POP JUMP JUMPDEST PUSH1 0x0 DUP3 DUP3 MSTORE PUSH1 0x20 DUP3 ADD SWAP1 POP SWAP3 SWAP2 POP POP JUMP JUMPDEST PUSH1 0x0 DUP3 DUP3 MSTORE PUSH1 0x20 DUP3 ADD SWAP1 POP SWAP3 SWAP2 POP POP JUMP JUMPDEST PUSH1 0x0 DUP3 DUP3 MSTORE PUSH1 0x20 DUP3 ADD SWAP1 POP SWAP3 SWAP2 POP POP JUMP JUMPDEST PUSH1 0x0 DUP2 SWAP1 POP SWAP3 SWAP2 POP POP JUMP JUMPDEST PUSH1 0x0 PUSH2 0x24E0 DUP3 PUSH2 0x262D JUMP JUMPDEST SWAP2 POP PUSH2 0x24EB DUP4 PUSH2 0x262D JUMP JUMPDEST SWAP3 POP DUP3 PUSH32 0xFFFFFFFFFFFFFFFFFFFFFFFFFFFFFFFFFFFFFFFFFFFFFFFFFFFFFFFFFFFFFFFF SUB DUP3 GT ISZERO PUSH2 0x2520 JUMPI PUSH2 0x251F PUSH2 0x2759 JUMP JUMPDEST JUMPDEST DUP3 DUP3 ADD SWAP1 POP SWAP3 SWAP2 POP POP JUMP JUMPDEST PUSH1 0x0 PUSH2 0x2536 DUP3 PUSH2 0x262D JUMP JUMPDEST SWAP2 POP PUSH2 0x2541 DUP4 PUSH2 0x262D JUMP JUMPDEST SWAP3 POP DUP2 PUSH32 0xFFFFFFFFFFFFFFFFFFFFFFFFFFFFFFFFFFFFFFFFFFFFFFFFFFFFFFFFFFFFFFFF DIV DUP4 GT DUP3 ISZERO ISZERO AND ISZERO PUSH2 0x257A JUMPI PUSH2 0x2579 PUSH2 0x2759 JUMP JUMPDEST JUMPDEST DUP3 DUP3 MUL SWAP1 POP SWAP3 SWAP2 POP POP JUMP JUMPDEST PUSH1 0x0 PUSH2 0x2590 DUP3 PUSH2 0x262D JUMP JUMPDEST SWAP2 POP PUSH2 0x259B DUP4 PUSH2 0x262D JUMP JUMPDEST SWAP3 POP DUP3 DUP3 LT ISZERO PUSH2 0x25AE JUMPI PUSH2 0x25AD PUSH2 0x2759 JUMP JUMPDEST JUMPDEST DUP3 DUP3 SUB SWAP1 POP SWAP3 SWAP2 POP POP JUMP JUMPDEST PUSH1 0x0 PUSH2 0x25C4 DUP3 PUSH2 0x260D JUMP JUMPDEST SWAP1 POP SWAP2 SWAP1 POP JUMP JUMPDEST PUSH1 0x0 DUP2 ISZERO ISZERO SWAP1 POP SWAP2 SWAP1 POP JUMP JUMPDEST PUSH1 0x0 DUP2 SWAP1 POP SWAP2 SWAP1 POP JUMP JUMPDEST PUSH1 0x0 PUSH32 0xFFFFFFFF00000000000000000000000000000000000000000000000000000000 DUP3 AND SWAP1 POP SWAP2 SWAP1 POP JUMP JUMPDEST PUSH1 0x0 PUSH20 0xFFFFFFFFFFFFFFFFFFFFFFFFFFFFFFFFFFFFFFFF DUP3 AND SWAP1 POP SWAP2 SWAP1 POP JUMP JUMPDEST PUSH1 0x0 DUP2 SWAP1 POP SWAP2 SWAP1 POP JUMP JUMPDEST DUP3 DUP2 DUP4 CALLDATACOPY PUSH1 0x0 DUP4 DUP4 ADD MSTORE POP POP POP JUMP JUMPDEST PUSH1 0x0 JUMPDEST DUP4 DUP2 LT ISZERO PUSH2 0x2664 JUMPI DUP1 DUP3 ADD MLOAD DUP2 DUP5 ADD MSTORE PUSH1 0x20 DUP2 ADD SWAP1 POP PUSH2 0x2649 JUMP JUMPDEST DUP4 DUP2 GT ISZERO PUSH2 0x2673 JUMPI PUSH1 0x0 DUP5 DUP5 ADD MSTORE JUMPDEST POP POP POP POP JUMP JUMPDEST PUSH1 0x0 PUSH2 0x2684 DUP3 PUSH2 0x262D JUMP JUMPDEST SWAP2 POP PUSH1 0x0 DUP3 EQ ISZERO PUSH2 0x2698 JUMPI PUSH2 0x2697 PUSH2 0x2759 JUMP JUMPDEST JUMPDEST PUSH1 0x1 DUP3 SUB SWAP1 POP SWAP2 SWAP1 POP JUMP JUMPDEST PUSH1 0x0 PUSH1 0x2 DUP3 DIV SWAP1 POP PUSH1 0x1 DUP3 AND DUP1 PUSH2 0x26BB JUMPI PUSH1 0x7F DUP3 AND SWAP2 POP JUMPDEST PUSH1 0x20 DUP3 LT DUP2 EQ ISZERO PUSH2 0x26CF JUMPI PUSH2 0x26CE PUSH2 0x2788 JUMP JUMPDEST JUMPDEST POP SWAP2 SWAP1 POP JUMP JUMPDEST PUSH2 0x26DE DUP3 PUSH2 0x27E6 JUMP JUMPDEST DUP2 ADD DUP2 DUP2 LT PUSH8 0xFFFFFFFFFFFFFFFF DUP3 GT OR ISZERO PUSH2 0x26FD JUMPI PUSH2 0x26FC PUSH2 0x27B7 JUMP JUMPDEST JUMPDEST DUP1 PUSH1 0x40 MSTORE POP POP POP JUMP JUMPDEST PUSH1 0x0 PUSH2 0x2711 DUP3 PUSH2 0x262D JUMP JUMPDEST SWAP2 POP PUSH32 0xFFFFFFFFFFFFFFFFFFFFFFFFFFFFFFFFFFFFFFFFFFFFFFFFFFFFFFFFFFFFFFFF DUP3 EQ ISZERO PUSH2 0x2744 JUMPI PUSH2 0x2743 PUSH2 0x2759 JUMP JUMPDEST JUMPDEST PUSH1 0x1 DUP3 ADD SWAP1 POP SWAP2 SWAP1 POP JUMP JUMPDEST PUSH1 0x0 DUP2 SWAP1 POP SWAP2 SWAP1 POP JUMP JUMPDEST PUSH32 0x4E487B7100000000000000000000000000000000000000000000000000000000 PUSH1 0x0 MSTORE PUSH1 0x11 PUSH1 0x4 MSTORE PUSH1 0x24 PUSH1 0x0 REVERT JUMPDEST PUSH32 0x4E487B7100000000000000000000000000000000000000000000000000000000 PUSH1 0x0 MSTORE PUSH1 0x22 PUSH1 0x4 MSTORE PUSH1 0x24 PUSH1 0x0 REVERT JUMPDEST PUSH32 0x4E487B7100000000000000000000000000000000000000000000000000000000 PUSH1 0x0 MSTORE PUSH1 0x41 PUSH1 0x4 MSTORE PUSH1 0x24 PUSH1 0x0 REVERT JUMPDEST PUSH1 0x0 PUSH1 0x1F NOT PUSH1 0x1F DUP4 ADD AND SWAP1 POP SWAP2 SWAP1 POP JUMP JUMPDEST PUSH32 0x537472696E67733A20686578206C656E67746820696E73756666696369656E74 PUSH1 0x0 DUP3 ADD MSTORE POP JUMP JUMPDEST PUSH32 0x53656E646572206973206E6F7420555249204D616E61676572206F722041646D PUSH1 0x0 DUP3 ADD MSTORE PUSH32 0x696E000000000000000000000000000000000000000000000000000000000000 PUSH1 0x20 DUP3 ADD MSTORE POP JUMP JUMPDEST PUSH32 0x4D6F64657261746564557269733A204552522031000000000000000000000000 PUSH1 0x0 DUP3 ADD MSTORE POP JUMP JUMPDEST PUSH32 0x4D6F64657261746564557269733A204552522032000000000000000000000000 PUSH1 0x0 DUP3 ADD MSTORE POP JUMP JUMPDEST PUSH32 0x4D6F64657261746564557269733A204552522033000000000000000000000000 PUSH1 0x0 DUP3 ADD MSTORE POP JUMP JUMPDEST PUSH32 0x4C313A205F6D616B65456E7472793A20656E7472792077697468206D61746368 PUSH1 0x0 DUP3 ADD MSTORE PUSH32 0x696E6720696420616E642075726920616C726561647920657869737473000000 PUSH1 0x20 DUP3 ADD MSTORE POP JUMP JUMPDEST PUSH32 0x416363657373436F6E74726F6C3A206163636F756E7420000000000000000000 PUSH1 0x0 DUP3 ADD MSTORE POP JUMP JUMPDEST PUSH32 0x206973206D697373696E6720726F6C6520000000000000000000000000000000 PUSH1 0x0 DUP3 ADD MSTORE POP JUMP JUMPDEST PUSH32 0x416363657373436F6E74726F6C3A2063616E206F6E6C792072656E6F756E6365 PUSH1 0x0 DUP3 ADD MSTORE PUSH32 0x20726F6C657320666F722073656C660000000000000000000000000000000000 PUSH1 0x20 DUP3 ADD MSTORE POP JUMP JUMPDEST PUSH2 0x29E3 DUP2 PUSH2 0x25B9 JUMP JUMPDEST DUP2 EQ PUSH2 0x29EE JUMPI PUSH1 0x0 DUP1 REVERT JUMPDEST POP JUMP JUMPDEST PUSH2 0x29FA DUP2 PUSH2 0x25CB JUMP JUMPDEST DUP2 EQ PUSH2 0x2A05 JUMPI PUSH1 0x0 DUP1 REVERT JUMPDEST POP JUMP JUMPDEST PUSH2 0x2A11 DUP2 PUSH2 0x25D7 JUMP JUMPDEST DUP2 EQ PUSH2 0x2A1C JUMPI PUSH1 0x0 DUP1 REVERT JUMPDEST POP JUMP JUMPDEST PUSH2 0x2A28 DUP2 PUSH2 0x25E1 JUMP JUMPDEST DUP2 EQ PUSH2 0x2A33 JUMPI PUSH1 0x0 DUP1 REVERT JUMPDEST POP JUMP JUMPDEST PUSH2 0x2A3F DUP2 PUSH2 0x262D JUMP JUMPDEST DUP2 EQ PUSH2 0x2A4A JUMPI PUSH1 0x0 DUP1 REVERT JUMPDEST POP JUMP INVALID LOG2 PUSH5 0x6970667358 0x22 SLT KECCAK256 SDIV SMOD PUSH8 0x2C587A638D4DDB0E PUSH8 0xFEEFF1D60E4F351D SMOD LOG2 CODECOPY 0xBE PUSH3 0x3F0A9 0xE1 0x2B 0xC2 SHL PUSH5 0x736F6C6343 STOP ADDMOD ADD STOP CALLER "
		},
		"gasEstimates": {
			"creation": {
				"codeDepositCost": "2176600",
				"executionCost": "2324",
				"totalCost": "2178924"
			},
			"external": {
				"COUPON_USER_ROLE()": "419",
				"DEFAULT_ADMIN_ROLE()": "446",
				"URI_ADDER_ROLE()": "351",
				"URI_MANAGER_ROLE()": "352",
				"approveMetadatForAll(string)": "infinite",
				"approveMetadatForId(uint256,string)": "infinite",
				"getAllApprovedIdsForMetadata(string)": "infinite",
				"getAllApprovedMetadatasForId(uint256,bool)": "infinite",
				"getAllGloballyApprovedMetadata()": "infinite",
				"getRoleAdmin(bytes32)": "infinite",
				"grantRole(bytes32,address)": "infinite",
				"hasRole(bytes32,address)": "1929",
				"isMetadataApprovedForAll(string)": "infinite",
				"isMetadataApprovedForId(uint256,string)": "infinite",
				"makeApprovedUriListsAppendOnly()": "infinite",
				"renounceRole(bytes32,address)": "infinite",
				"revokeRole(bytes32,address)": "infinite",
				"supportsInterface(bytes4)": "751",
				"unapproveAllMetadataForId(uint256)": "infinite",
				"unapproveMetadatForId(uint256,string)": "infinite",
				"unapproveMetadataForAll(string)": "infinite"
			},
			"internal": {
				"__entryExists(uint256)": "37",
				"__entryIsGlobal(uint256,bool)": "infinite",
				"__getEntry(uint256,bool)": "infinite",
				"__makeEntry(uint256,string memory,bool)": "infinite",
				"__updateEntry(uint256,bool)": "infinite",
				"_entryExists(uint256,string memory)": "infinite",
				"_entryIsGlobal(uint256,string memory,bool)": "infinite",
				"_getAllApprovedIdsFromUri(string memory,bool)": "infinite",
				"_getAllApprovedUrisFromId(uint256,bool)": "infinite",
				"_getEntry(uint256,string memory,bool)": "infinite",
				"_isIdUriPairApproved(uint256,string memory)": "infinite",
				"_makeEntry(uint256,string memory,bool)": "infinite",
				"_setIdUriPairApproval(uint256,string memory,bool)": "infinite",
				"_unapproveAllUrisForId(uint256)": "infinite",
				"_unapproveUriForAllIds(string memory,bool)": "infinite",
				"_updateEntry(uint256,string memory,bool)": "infinite"
			}
		},
		"methodIdentifiers": {
			"COUPON_USER_ROLE()": "263d336c",
			"DEFAULT_ADMIN_ROLE()": "a217fddf",
			"URI_ADDER_ROLE()": "b5a92ce5",
			"URI_MANAGER_ROLE()": "682d07d9",
			"approveMetadatForAll(string)": "33e06e7c",
			"approveMetadatForId(uint256,string)": "e85eaaff",
			"getAllApprovedIdsForMetadata(string)": "68f9dbe1",
			"getAllApprovedMetadatasForId(uint256,bool)": "cebdbea7",
			"getAllGloballyApprovedMetadata()": "3a2aa22b",
			"getRoleAdmin(bytes32)": "248a9ca3",
			"grantRole(bytes32,address)": "2f2ff15d",
			"hasRole(bytes32,address)": "91d14854",
			"isMetadataApprovedForAll(string)": "3d88cf3d",
			"isMetadataApprovedForId(uint256,string)": "c53dfdac",
			"makeApprovedUriListsAppendOnly()": "dd1e1656",
			"renounceRole(bytes32,address)": "36568abe",
			"revokeRole(bytes32,address)": "d547741f",
			"supportsInterface(bytes4)": "01ffc9a7",
			"unapproveAllMetadataForId(uint256)": "6d3cc82d",
			"unapproveMetadatForId(uint256,string)": "15fda194",
			"unapproveMetadataForAll(string)": "29cb0531"
		}
	},
	"abi": [
		{
			"anonymous": false,
			"inputs": [
				{
					"indexed": true,
					"internalType": "bytes32",
					"name": "role",
					"type": "bytes32"
				},
				{
					"indexed": true,
					"internalType": "bytes32",
					"name": "previousAdminRole",
					"type": "bytes32"
				},
				{
					"indexed": true,
					"internalType": "bytes32",
					"name": "newAdminRole",
					"type": "bytes32"
				}
			],
			"name": "RoleAdminChanged",
			"type": "event"
		},
		{
			"anonymous": false,
			"inputs": [
				{
					"indexed": true,
					"internalType": "bytes32",
					"name": "role",
					"type": "bytes32"
				},
				{
					"indexed": true,
					"internalType": "address",
					"name": "account",
					"type": "address"
				},
				{
					"indexed": true,
					"internalType": "address",
					"name": "sender",
					"type": "address"
				}
			],
			"name": "RoleGranted",
			"type": "event"
		},
		{
			"anonymous": false,
			"inputs": [
				{
					"indexed": true,
					"internalType": "bytes32",
					"name": "role",
					"type": "bytes32"
				},
				{
					"indexed": true,
					"internalType": "address",
					"name": "account",
					"type": "address"
				},
				{
					"indexed": true,
					"internalType": "address",
					"name": "sender",
					"type": "address"
				}
			],
			"name": "RoleRevoked",
			"type": "event"
		},
		{
			"inputs": [],
			"name": "COUPON_USER_ROLE",
			"outputs": [
				{
					"internalType": "bytes32",
					"name": "",
					"type": "bytes32"
				}
			],
			"stateMutability": "view",
			"type": "function"
		},
		{
			"inputs": [],
			"name": "DEFAULT_ADMIN_ROLE",
			"outputs": [
				{
					"internalType": "bytes32",
					"name": "",
					"type": "bytes32"
				}
			],
			"stateMutability": "view",
			"type": "function"
		},
		{
			"inputs": [],
			"name": "URI_ADDER_ROLE",
			"outputs": [
				{
					"internalType": "bytes32",
					"name": "",
					"type": "bytes32"
				}
			],
			"stateMutability": "view",
			"type": "function"
		},
		{
			"inputs": [],
			"name": "URI_MANAGER_ROLE",
			"outputs": [
				{
					"internalType": "bytes32",
					"name": "",
					"type": "bytes32"
				}
			],
			"stateMutability": "view",
			"type": "function"
		},
		{
			"inputs": [
				{
					"internalType": "string",
					"name": "metadata_uri",
					"type": "string"
				}
			],
			"name": "approveMetadatForAll",
			"outputs": [],
			"stateMutability": "nonpayable",
			"type": "function"
		},
		{
			"inputs": [
				{
					"internalType": "uint256",
					"name": "id",
					"type": "uint256"
				},
				{
					"internalType": "string",
					"name": "metadata_uri",
					"type": "string"
				}
			],
			"name": "approveMetadatForId",
			"outputs": [],
			"stateMutability": "nonpayable",
			"type": "function"
		},
		{
			"inputs": [
				{
					"internalType": "string",
					"name": "metadata_uri",
					"type": "string"
				}
			],
			"name": "getAllApprovedIdsForMetadata",
			"outputs": [
				{
					"internalType": "uint256[]",
					"name": "",
					"type": "uint256[]"
				}
			],
			"stateMutability": "view",
			"type": "function"
		},
		{
			"inputs": [
				{
					"internalType": "uint256",
					"name": "id",
					"type": "uint256"
				},
				{
					"internalType": "bool",
					"name": "includeGloballyApproved",
					"type": "bool"
				}
			],
			"name": "getAllApprovedMetadatasForId",
			"outputs": [
				{
					"internalType": "string[]",
					"name": "",
					"type": "string[]"
				}
			],
			"stateMutability": "view",
			"type": "function"
		},
		{
			"inputs": [],
			"name": "getAllGloballyApprovedMetadata",
			"outputs": [
				{
					"internalType": "string[]",
					"name": "",
					"type": "string[]"
				}
			],
			"stateMutability": "view",
			"type": "function"
		},
		{
			"inputs": [
				{
					"internalType": "bytes32",
					"name": "role",
					"type": "bytes32"
				}
			],
			"name": "getRoleAdmin",
			"outputs": [
				{
					"internalType": "bytes32",
					"name": "",
					"type": "bytes32"
				}
			],
			"stateMutability": "view",
			"type": "function"
		},
		{
			"inputs": [
				{
					"internalType": "bytes32",
					"name": "role",
					"type": "bytes32"
				},
				{
					"internalType": "address",
					"name": "account",
					"type": "address"
				}
			],
			"name": "grantRole",
			"outputs": [],
			"stateMutability": "nonpayable",
			"type": "function"
		},
		{
			"inputs": [
				{
					"internalType": "bytes32",
					"name": "role",
					"type": "bytes32"
				},
				{
					"internalType": "address",
					"name": "account",
					"type": "address"
				}
			],
			"name": "hasRole",
			"outputs": [
				{
					"internalType": "bool",
					"name": "",
					"type": "bool"
				}
			],
			"stateMutability": "view",
			"type": "function"
		},
		{
			"inputs": [
				{
					"internalType": "string",
					"name": "metadata_uri",
					"type": "string"
				}
			],
			"name": "isMetadataApprovedForAll",
			"outputs": [
				{
					"internalType": "bool",
					"name": "",
					"type": "bool"
				}
			],
			"stateMutability": "view",
			"type": "function"
		},
		{
			"inputs": [
				{
					"internalType": "uint256",
					"name": "id",
					"type": "uint256"
				},
				{
					"internalType": "string",
					"name": "metadata_uri",
					"type": "string"
				}
			],
			"name": "isMetadataApprovedForId",
			"outputs": [
				{
					"internalType": "bool",
					"name": "",
					"type": "bool"
				}
			],
			"stateMutability": "view",
			"type": "function"
		},
		{
			"inputs": [],
			"name": "makeApprovedUriListsAppendOnly",
			"outputs": [],
			"stateMutability": "nonpayable",
			"type": "function"
		},
		{
			"inputs": [
				{
					"internalType": "bytes32",
					"name": "role",
					"type": "bytes32"
				},
				{
					"internalType": "address",
					"name": "account",
					"type": "address"
				}
			],
			"name": "renounceRole",
			"outputs": [],
			"stateMutability": "nonpayable",
			"type": "function"
		},
		{
			"inputs": [
				{
					"internalType": "bytes32",
					"name": "role",
					"type": "bytes32"
				},
				{
					"internalType": "address",
					"name": "account",
					"type": "address"
				}
			],
			"name": "revokeRole",
			"outputs": [],
			"stateMutability": "nonpayable",
			"type": "function"
		},
		{
			"inputs": [
				{
					"internalType": "bytes4",
					"name": "interfaceId",
					"type": "bytes4"
				}
			],
			"name": "supportsInterface",
			"outputs": [
				{
					"internalType": "bool",
					"name": "",
					"type": "bool"
				}
			],
			"stateMutability": "view",
			"type": "function"
		},
		{
			"inputs": [
				{
					"internalType": "uint256",
					"name": "id",
					"type": "uint256"
				}
			],
			"name": "unapproveAllMetadataForId",
			"outputs": [],
			"stateMutability": "nonpayable",
			"type": "function"
		},
		{
			"inputs": [
				{
					"internalType": "uint256",
					"name": "id",
					"type": "uint256"
				},
				{
					"internalType": "string",
					"name": "metadata_uri",
					"type": "string"
				}
			],
			"name": "unapproveMetadatForId",
			"outputs": [],
			"stateMutability": "nonpayable",
			"type": "function"
		},
		{
			"inputs": [
				{
					"internalType": "string",
					"name": "metadata_uri",
					"type": "string"
				}
			],
			"name": "unapproveMetadataForAll",
			"outputs": [],
			"stateMutability": "nonpayable",
			"type": "function"
		}
	]
}