{
	"data": {
		"bytecode": {
			"linkReferences": {},
			"object": "608060405234801561001057600080fd5b50612378806100206000396000f3fe608060405234801561001057600080fd5b50600436106101425760003560e01c8063838324d9116100b8578063c18ab7a21161007c578063c18ab7a214610387578063c1eb6dfd146103a3578063d547741f146103c1578063d94fe832146103dd578063e5bf7ffc1461040d578063f76da2a81461042957610142565b8063838324d9146102bb57806391d14854146102eb578063a217fddf1461031b578063a41dd6e614610339578063a50252221461035757610142565b806336568abe1161010a57806336568abe1461021157806338eada1c1461022d5780633c25c06b146102495780633edfcd2c146102655780634ba79dfe146102815780635c3ed7ec1461029d57610142565b806301ffc9a7146101475780632080179d14610177578063248a9ca3146101a7578063263d336c146101d75780632f2ff15d146101f5575b600080fd5b610161600480360381019061015c9190611a27565b610459565b60405161016e9190611c99565b60405180910390f35b610191600480360381019061018c9190611937565b6104d3565b60405161019e9190611c99565b60405180910390f35b6101c160048036038101906101bc91906119c2565b610551565b6040516101ce9190611cb4565b60405180910390f35b6101df610570565b6040516101ec9190611cb4565b60405180910390f35b61020f600480360381019061020a91906119eb565b610594565b005b61022b600480360381019061022691906119eb565b6105bd565b005b6102476004803603810190610242919061190e565b610640565b005b610263600480360381019061025e9190611937565b6107fe565b005b61027f600480360381019061027a9190611973565b6108d1565b005b61029b6004803603810190610296919061190e565b610a33565b005b6102a5610ccb565b6040516102b29190611cb4565b60405180910390f35b6102d560048036038101906102d0919061190e565b610cef565b6040516102e29190611db1565b60405180910390f35b610305600480360381019061030091906119eb565b610d1a565b6040516103129190611c99565b60405180910390f35b610323610d84565b6040516103309190611cb4565b60405180910390f35b610341610d8b565b60405161034e9190611cb4565b60405180910390f35b610371600480360381019061036c919061190e565b610daf565b60405161037e9190611c99565b60405180910390f35b6103a1600480360381019061039c9190611973565b610dc3565b005b6103ab610eff565b6040516103b89190611db1565b60405180910390f35b6103db60048036038101906103d691906119eb565b610f0b565b005b6103f760048036038101906103f2919061190e565b610f34565b6040516104049190611db1565b60405180910390f35b61042760048036038101906104229190611937565b610f80565b005b610443600480360381019061043e919061190e565b61114e565b6040516104509190611c99565b60405180910390f35b60007f7965db0b000000000000000000000000000000000000000000000000000000007bffffffffffffffffffffffffffffffffffffffffffffffffffffffff1916827bffffffffffffffffffffffffffffffffffffffffffffffffffffffff191614806104cc57506104cb8261117b565b5b9050919050565b600080600090505b6104e484610cef565b8110156105455782600160030160006104fc87610f34565b8152602001908152602001600020600101600083815260200190815260200160002060000154141561053257600191505061054b565b808061053d90611fb2565b9150506104db565b50600090505b92915050565b6000806000838152602001908152602001600020600101549050919050565b7fad8e13ade6b5588e1a6049d70c1678b839105f007c5f6fb969ad8b1456160eac81565b61059d82610551565b6105ae816105a96111e5565b6111ed565b6105b8838361128a565b505050565b6105c56111e5565b73ffffffffffffffffffffffffffffffffffffffff168173ffffffffffffffffffffffffffffffffffffffff1614610632576040517f08c379a000000000000000000000000000000000000000000000000000000000815260040161062990611d91565b60405180910390fd5b61063c828261136a565b5050565b6106717f94a986c75919e983aad44b3aa6d84ebcaddf91749edf743e3a487d1a49949a7561066c6111e5565b610d1a565b806106a957506106a87f3ec4e68565b7b1587aaccbcf2b5911e829e236602dc6d0fe89c50e09bdd019b46106a36111e5565b610d1a565b5b806106e157506106e07fad8e13ade6b5588e1a6049d70c1678b839105f007c5f6fb969ad8b1456160eac6106db6111e5565b610d1a565b5b806106fc57506106fb6000801b6106f66111e5565b610d1a565b5b61073b576040517f08c379a000000000000000000000000000000000000000000000000000000000815260040161073290611d51565b60405180910390fd5b6001600001600081548092919061075190611fb2565b919050555080600180016000600160000154815260200190815260200160002060006101000a81548173ffffffffffffffffffffffffffffffffffffffff021916908373ffffffffffffffffffffffffffffffffffffffff160217905550600160000154600160020160008373ffffffffffffffffffffffffffffffffffffffff1673ffffffffffffffffffffffffffffffffffffffff1681526020019081526020016000208190555050565b61082f7f3ec4e68565b7b1587aaccbcf2b5911e829e236602dc6d0fe89c50e09bdd019b461082a6111e5565b610d1a565b8061086757506108667fad8e13ade6b5588e1a6049d70c1678b839105f007c5f6fb969ad8b1456160eac6108616111e5565b610d1a565b5b8061088257506108816000801b61087c6111e5565b610d1a565b5b6108c1576040517f08c379a00000000000000000000000000000000000000000000000000000000081526004016108b890611d71565b60405180910390fd5b6108cd82826001610dc3565b5050565b6109027f3ec4e68565b7b1587aaccbcf2b5911e829e236602dc6d0fe89c50e09bdd019b46108fd6111e5565b610d1a565b8061091d575061091c6000801b6109176111e5565b610d1a565b5b61095c576040517f08c379a000000000000000000000000000000000000000000000000000000000815260040161095390611d31565b60405180910390fd5b61096583610daf565b6109735761097283610640565b5b6001600301600061098385610f34565b815260200190815260200160002060000160008154809291906109a590611fb2565b919050555081600160030160006109bb86610f34565b815260200190815260200160002060010160006109d786610cef565b81526020019081526020016000206000018190555080600160030160006109fd86610f34565b81526020019081526020016000206001016000610a1986610cef565b815260200190815260200160002060010181905550505050565b610a647f94a986c75919e983aad44b3aa6d84ebcaddf91749edf743e3a487d1a49949a75610a5f6111e5565b610d1a565b80610a7f5750610a7e6000801b610a796111e5565b610d1a565b5b610abe576040517f08c379a0000000000000000000000000000000000000000000000000000000008152600401610ab590611d11565b60405180910390fd5b6000610ac982610f34565b90506000829050600060016000015490506000600180016000600160000154815260200190815260200160002060009054906101000a900473ffffffffffffffffffffffffffffffffffffffff16905060018001600083815260200190815260200160002060009054906101000a900473ffffffffffffffffffffffffffffffffffffffff1660018001600086815260200190815260200160002060006101000a81548173ffffffffffffffffffffffffffffffffffffffff021916908373ffffffffffffffffffffffffffffffffffffffff16021790555060018001600083815260200190815260200160002060006101000a81549073ffffffffffffffffffffffffffffffffffffffff0219169055600160020160008273ffffffffffffffffffffffffffffffffffffffff1673ffffffffffffffffffffffffffffffffffffffff16815260200190815260200160002054600160020160008573ffffffffffffffffffffffffffffffffffffffff1673ffffffffffffffffffffffffffffffffffffffff16815260200190815260200160002081905550600160020160008273ffffffffffffffffffffffffffffffffffffffff1673ffffffffffffffffffffffffffffffffffffffff1681526020019081526020016000206000905560016000016000815480929190610cbf90611f88565b91905055505050505050565b7f94a986c75919e983aad44b3aa6d84ebcaddf91749edf743e3a487d1a49949a7581565b600060016003016000610d0184610f34565b8152602001908152602001600020600001549050919050565b600080600084815260200190815260200160002060000160008373ffffffffffffffffffffffffffffffffffffffff1673ffffffffffffffffffffffffffffffffffffffff16815260200190815260200160002060009054906101000a900460ff16905092915050565b6000801b81565b7f3ec4e68565b7b1587aaccbcf2b5911e829e236602dc6d0fe89c50e09bdd019b481565b600080610dbb83610f34565b149050919050565b610df47f3ec4e68565b7b1587aaccbcf2b5911e829e236602dc6d0fe89c50e09bdd019b4610def6111e5565b610d1a565b80610e2c5750610e2b7fad8e13ade6b5588e1a6049d70c1678b839105f007c5f6fb969ad8b1456160eac610e266111e5565b610d1a565b5b80610e475750610e466000801b610e416111e5565b610d1a565b5b610e86576040517f08c379a0000000000000000000000000000000000000000000000000000000008152600401610e7d90611d71565b60405180910390fd5b60005b610e9284610cef565b811015610ef9578260016003016000610eaa87610f34565b81526020019081526020016000206001016000838152602001908152602001600020600001541415610ee657610ee184828461144b565b610ef9565b8080610ef190611fb2565b915050610e89565b50505050565b60018060000154905081565b610f1482610551565b610f2581610f206111e5565b6111ed565b610f2f838361136a565b505050565b6000600160020160008373ffffffffffffffffffffffffffffffffffffffff1673ffffffffffffffffffffffffffffffffffffffff168152602001908152602001600020549050919050565b610fb17f3ec4e68565b7b1587aaccbcf2b5911e829e236602dc6d0fe89c50e09bdd019b4610fac6111e5565b610d1a565b80610fe95750610fe87fad8e13ade6b5588e1a6049d70c1678b839105f007c5f6fb969ad8b1456160eac610fe36111e5565b610d1a565b5b8061100457506110036000801b610ffe6111e5565b610d1a565b5b611043576040517f08c379a000000000000000000000000000000000000000000000000000000000815260040161103a90611d71565b60405180910390fd5b6001600301600061105384610f34565b8152602001908152602001600020600101600061106f84610cef565b81526020019081526020016000206001600301600061108d85610f34565b815260200190815260200160002060010160008381526020019081526020016000206000820154816000015560018201548160010155905050600160030160006110d684610f34565b815260200190815260200160002060010160006110f284610cef565b8152602001908152602001600020600080820160009055600182016000905550506001600301600061112384610f34565b8152602001908152602001600020600001600081548092919061114590611f88565b91905055505050565b6000806001600301600061116185610f34565b815260200190815260200160002060000154149050919050565b60007f01ffc9a7000000000000000000000000000000000000000000000000000000007bffffffffffffffffffffffffffffffffffffffffffffffffffffffff1916827bffffffffffffffffffffffffffffffffffffffffffffffffffffffff1916149050919050565b600033905090565b6111f78282610d1a565b6112865761121c8173ffffffffffffffffffffffffffffffffffffffff1660146115c0565b61122a8360001c60206115c0565b60405160200161123b929190611c39565b6040516020818303038152906040526040517f08c379a000000000000000000000000000000000000000000000000000000000815260040161127d9190611ccf565b60405180910390fd5b5050565b6112948282610d1a565b61136657600160008084815260200190815260200160002060000160008373ffffffffffffffffffffffffffffffffffffffff1673ffffffffffffffffffffffffffffffffffffffff16815260200190815260200160002060006101000a81548160ff02191690831515021790555061130b6111e5565b73ffffffffffffffffffffffffffffffffffffffff168173ffffffffffffffffffffffffffffffffffffffff16837f2f8788117e7eff1d82e926ec794901d17c78024a50270940304540a733656f0d60405160405180910390a45b5050565b6113748282610d1a565b1561144757600080600084815260200190815260200160002060000160008373ffffffffffffffffffffffffffffffffffffffff1673ffffffffffffffffffffffffffffffffffffffff16815260200190815260200160002060006101000a81548160ff0219169083151502179055506113ec6111e5565b73ffffffffffffffffffffffffffffffffffffffff168173ffffffffffffffffffffffffffffffffffffffff16837ff6391f5c32d9c69d2a47ea670b442974b53935d1edc7fd64eb21e047a839171b60405160405180910390a45b5050565b6000816001600301600061145e87610f34565b81526020019081526020016000206001016000858152602001908152602001600020600101541015905060006001600301600061149a87610f34565b81526020019081526020016000206001016000858152602001908152602001600020600101546040516020016114d09190611c73565b6040516020818303038152906040529050818190611524576040517f08c379a000000000000000000000000000000000000000000000000000000000815260040161151b9190611ccf565b60405180910390fd5b50826001600301600061153688610f34565b81526020019081526020016000206001016000868152602001908152602001600020600101600082825461156a9190611ea3565b9250508190555060006001600301600061158388610f34565b8152602001908152602001600020600101600086815260200190815260200160002060010154116115b9576115b88585610f80565b5b5050505050565b6060600060028360026115d39190611e49565b6115dd9190611df3565b67ffffffffffffffff81111561161c577f4e487b7100000000000000000000000000000000000000000000000000000000600052604160045260246000fd5b6040519080825280601f01601f19166020018201604052801561164e5781602001600182028036833780820191505090505b5090507f3000000000000000000000000000000000000000000000000000000000000000816000815181106116ac577f4e487b7100000000000000000000000000000000000000000000000000000000600052603260045260246000fd5b60200101907effffffffffffffffffffffffffffffffffffffffffffffffffffffffffffff1916908160001a9053507f780000000000000000000000000000000000000000000000000000000000000081600181518110611736577f4e487b7100000000000000000000000000000000000000000000000000000000600052603260045260246000fd5b60200101907effffffffffffffffffffffffffffffffffffffffffffffffffffffffffffff1916908160001a905350600060018460026117769190611e49565b6117809190611df3565b90505b600181111561186c577f3031323334353637383961626364656600000000000000000000000000000000600f8616601081106117e8577f4e487b7100000000000000000000000000000000000000000000000000000000600052603260045260246000fd5b1a60f81b828281518110611825577f4e487b7100000000000000000000000000000000000000000000000000000000600052603260045260246000fd5b60200101907effffffffffffffffffffffffffffffffffffffffffffffffffffffffffffff1916908160001a905350600485901c94508061186590611f88565b9050611783565b50600084146118b0576040517f08c379a00000000000000000000000000000000000000000000000000000000081526004016118a790611cf1565b60405180910390fd5b8091505092915050565b6000813590506118c9816122e6565b92915050565b6000813590506118de816122fd565b92915050565b6000813590506118f381612314565b92915050565b6000813590506119088161232b565b92915050565b60006020828403121561192057600080fd5b600061192e848285016118ba565b91505092915050565b6000806040838503121561194a57600080fd5b6000611958858286016118ba565b9250506020611969858286016118f9565b9150509250929050565b60008060006060848603121561198857600080fd5b6000611996868287016118ba565b93505060206119a7868287016118f9565b92505060406119b8868287016118f9565b9150509250925092565b6000602082840312156119d457600080fd5b60006119e2848285016118cf565b91505092915050565b600080604083850312156119fe57600080fd5b6000611a0c858286016118cf565b9250506020611a1d858286016118ba565b9150509250929050565b600060208284031215611a3957600080fd5b6000611a47848285016118e4565b91505092915050565b611a5981611ee9565b82525050565b611a6881611ef5565b82525050565b6000611a7982611dcc565b611a838185611dd7565b9350611a93818560208601611f55565b611a9c81612034565b840191505092915050565b6000611ab282611dcc565b611abc8185611de8565b9350611acc818560208601611f55565b80840191505092915050565b6000611ae5602083611dd7565b9150611af082612045565b602082019050919050565b6000611b08602683611dd7565b9150611b138261206e565b604082019050919050565b6000611b2b602583611dd7565b9150611b36826120bd565b604082019050919050565b6000611b4e605383611dd7565b9150611b598261210c565b606082019050919050565b6000611b71603383611dd7565b9150611b7c82612181565b604082019050919050565b6000611b94601783611de8565b9150611b9f826121d0565b601782019050919050565b6000611bb7604b83611de8565b9150611bc2826121f9565b604b82019050919050565b6000611bda601183611de8565b9150611be58261226e565b601182019050919050565b6000611bfd602f83611dd7565b9150611c0882612297565b604082019050919050565b611c1c81611f4b565b82525050565b611c33611c2e82611f4b565b611ffb565b82525050565b6000611c4482611b87565b9150611c508285611aa7565b9150611c5b82611bcd565b9150611c678284611aa7565b91508190509392505050565b6000611c7e82611baa565b9150611c8a8284611c22565b60208201915081905092915050565b6000602082019050611cae6000830184611a50565b92915050565b6000602082019050611cc96000830184611a5f565b92915050565b60006020820190508181036000830152611ce98184611a6e565b905092915050565b60006020820190508181036000830152611d0a81611ad8565b9050919050565b60006020820190508181036000830152611d2a81611afb565b9050919050565b60006020820190508181036000830152611d4a81611b1e565b9050919050565b60006020820190508181036000830152611d6a81611b41565b9050919050565b60006020820190508181036000830152611d8a81611b64565b9050919050565b60006020820190508181036000830152611daa81611bf0565b9050919050565b6000602082019050611dc66000830184611c13565b92915050565b600081519050919050565b600082825260208201905092915050565b600081905092915050565b6000611dfe82611f4b565b9150611e0983611f4b565b9250827fffffffffffffffffffffffffffffffffffffffffffffffffffffffffffffffff03821115611e3e57611e3d612005565b5b828201905092915050565b6000611e5482611f4b565b9150611e5f83611f4b565b9250817fffffffffffffffffffffffffffffffffffffffffffffffffffffffffffffffff0483118215151615611e9857611e97612005565b5b828202905092915050565b6000611eae82611f4b565b9150611eb983611f4b565b925082821015611ecc57611ecb612005565b5b828203905092915050565b6000611ee282611f2b565b9050919050565b60008115159050919050565b6000819050919050565b60007fffffffff0000000000000000000000000000000000000000000000000000000082169050919050565b600073ffffffffffffffffffffffffffffffffffffffff82169050919050565b6000819050919050565b60005b83811015611f73578082015181840152602081019050611f58565b83811115611f82576000848401525b50505050565b6000611f9382611f4b565b91506000821415611fa757611fa6612005565b5b600182039050919050565b6000611fbd82611f4b565b91507fffffffffffffffffffffffffffffffffffffffffffffffffffffffffffffffff821415611ff057611fef612005565b5b600182019050919050565b6000819050919050565b7f4e487b7100000000000000000000000000000000000000000000000000000000600052601160045260246000fd5b6000601f19601f8301169050919050565b7f537472696e67733a20686578206c656e67746820696e73756666696369656e74600082015250565b7f53656e646572206973206e6f742041646472657373204d616e61676572206f7260008201527f2041646d696e0000000000000000000000000000000000000000000000000000602082015250565b7f53656e646572206973206e6f7420436f75706f6e204d616e61676572206f722060008201527f41646d696e000000000000000000000000000000000000000000000000000000602082015250565b7f53656e646572206973206e6f7420417070726f76656420526f6c653a2041646460008201527f72657373204d616e616765722c20436f75706f6e204d616e616765722c20436f60208201527f75706f6e20557365722c206f722041646d696e00000000000000000000000000604082015250565b7f53656e646572206973206e6f7420436f75706f6e204d616e616765722c20436f60008201527f75706f6e20557365722c206f722041646d696e00000000000000000000000000602082015250565b7f416363657373436f6e74726f6c3a206163636f756e7420000000000000000000600082015250565b7f43616e6e6f742072656475636520636f75706f6e2075736573206279206d6f7260008201527f65207468616e20746865206e756d626572206f66207573657320666f7220746860208201527f697320636f75706f6e3a20000000000000000000000000000000000000000000604082015250565b7f206973206d697373696e6720726f6c6520000000000000000000000000000000600082015250565b7f416363657373436f6e74726f6c3a2063616e206f6e6c792072656e6f756e636560008201527f20726f6c657320666f722073656c660000000000000000000000000000000000602082015250565b6122ef81611ed7565b81146122fa57600080fd5b50565b61230681611ef5565b811461231157600080fd5b50565b61231d81611eff565b811461232857600080fd5b50565b61233481611f4b565b811461233f57600080fd5b5056fea264697066735822122028c713ba6591844d92671493770fc8fa2f70a02d259a9d1e78e9797245b665c264736f6c63430008010033",
			"opcodes": "PUSH1 0x80 PUSH1 0x40 MSTORE CALLVALUE DUP1 ISZERO PUSH2 0x10 JUMPI PUSH1 0x0 DUP1 REVERT JUMPDEST POP PUSH2 0x2378 DUP1 PUSH2 0x20 PUSH1 0x0 CODECOPY PUSH1 0x0 RETURN INVALID PUSH1 0x80 PUSH1 0x40 MSTORE CALLVALUE DUP1 ISZERO PUSH2 0x10 JUMPI PUSH1 0x0 DUP1 REVERT JUMPDEST POP PUSH1 0x4 CALLDATASIZE LT PUSH2 0x142 JUMPI PUSH1 0x0 CALLDATALOAD PUSH1 0xE0 SHR DUP1 PUSH4 0x838324D9 GT PUSH2 0xB8 JUMPI DUP1 PUSH4 0xC18AB7A2 GT PUSH2 0x7C JUMPI DUP1 PUSH4 0xC18AB7A2 EQ PUSH2 0x387 JUMPI DUP1 PUSH4 0xC1EB6DFD EQ PUSH2 0x3A3 JUMPI DUP1 PUSH4 0xD547741F EQ PUSH2 0x3C1 JUMPI DUP1 PUSH4 0xD94FE832 EQ PUSH2 0x3DD JUMPI DUP1 PUSH4 0xE5BF7FFC EQ PUSH2 0x40D JUMPI DUP1 PUSH4 0xF76DA2A8 EQ PUSH2 0x429 JUMPI PUSH2 0x142 JUMP JUMPDEST DUP1 PUSH4 0x838324D9 EQ PUSH2 0x2BB JUMPI DUP1 PUSH4 0x91D14854 EQ PUSH2 0x2EB JUMPI DUP1 PUSH4 0xA217FDDF EQ PUSH2 0x31B JUMPI DUP1 PUSH4 0xA41DD6E6 EQ PUSH2 0x339 JUMPI DUP1 PUSH4 0xA5025222 EQ PUSH2 0x357 JUMPI PUSH2 0x142 JUMP JUMPDEST DUP1 PUSH4 0x36568ABE GT PUSH2 0x10A JUMPI DUP1 PUSH4 0x36568ABE EQ PUSH2 0x211 JUMPI DUP1 PUSH4 0x38EADA1C EQ PUSH2 0x22D JUMPI DUP1 PUSH4 0x3C25C06B EQ PUSH2 0x249 JUMPI DUP1 PUSH4 0x3EDFCD2C EQ PUSH2 0x265 JUMPI DUP1 PUSH4 0x4BA79DFE EQ PUSH2 0x281 JUMPI DUP1 PUSH4 0x5C3ED7EC EQ PUSH2 0x29D JUMPI PUSH2 0x142 JUMP JUMPDEST DUP1 PUSH4 0x1FFC9A7 EQ PUSH2 0x147 JUMPI DUP1 PUSH4 0x2080179D EQ PUSH2 0x177 JUMPI DUP1 PUSH4 0x248A9CA3 EQ PUSH2 0x1A7 JUMPI DUP1 PUSH4 0x263D336C EQ PUSH2 0x1D7 JUMPI DUP1 PUSH4 0x2F2FF15D EQ PUSH2 0x1F5 JUMPI JUMPDEST PUSH1 0x0 DUP1 REVERT JUMPDEST PUSH2 0x161 PUSH1 0x4 DUP1 CALLDATASIZE SUB DUP2 ADD SWAP1 PUSH2 0x15C SWAP2 SWAP1 PUSH2 0x1A27 JUMP JUMPDEST PUSH2 0x459 JUMP JUMPDEST PUSH1 0x40 MLOAD PUSH2 0x16E SWAP2 SWAP1 PUSH2 0x1C99 JUMP JUMPDEST PUSH1 0x40 MLOAD DUP1 SWAP2 SUB SWAP1 RETURN JUMPDEST PUSH2 0x191 PUSH1 0x4 DUP1 CALLDATASIZE SUB DUP2 ADD SWAP1 PUSH2 0x18C SWAP2 SWAP1 PUSH2 0x1937 JUMP JUMPDEST PUSH2 0x4D3 JUMP JUMPDEST PUSH1 0x40 MLOAD PUSH2 0x19E SWAP2 SWAP1 PUSH2 0x1C99 JUMP JUMPDEST PUSH1 0x40 MLOAD DUP1 SWAP2 SUB SWAP1 RETURN JUMPDEST PUSH2 0x1C1 PUSH1 0x4 DUP1 CALLDATASIZE SUB DUP2 ADD SWAP1 PUSH2 0x1BC SWAP2 SWAP1 PUSH2 0x19C2 JUMP JUMPDEST PUSH2 0x551 JUMP JUMPDEST PUSH1 0x40 MLOAD PUSH2 0x1CE SWAP2 SWAP1 PUSH2 0x1CB4 JUMP JUMPDEST PUSH1 0x40 MLOAD DUP1 SWAP2 SUB SWAP1 RETURN JUMPDEST PUSH2 0x1DF PUSH2 0x570 JUMP JUMPDEST PUSH1 0x40 MLOAD PUSH2 0x1EC SWAP2 SWAP1 PUSH2 0x1CB4 JUMP JUMPDEST PUSH1 0x40 MLOAD DUP1 SWAP2 SUB SWAP1 RETURN JUMPDEST PUSH2 0x20F PUSH1 0x4 DUP1 CALLDATASIZE SUB DUP2 ADD SWAP1 PUSH2 0x20A SWAP2 SWAP1 PUSH2 0x19EB JUMP JUMPDEST PUSH2 0x594 JUMP JUMPDEST STOP JUMPDEST PUSH2 0x22B PUSH1 0x4 DUP1 CALLDATASIZE SUB DUP2 ADD SWAP1 PUSH2 0x226 SWAP2 SWAP1 PUSH2 0x19EB JUMP JUMPDEST PUSH2 0x5BD JUMP JUMPDEST STOP JUMPDEST PUSH2 0x247 PUSH1 0x4 DUP1 CALLDATASIZE SUB DUP2 ADD SWAP1 PUSH2 0x242 SWAP2 SWAP1 PUSH2 0x190E JUMP JUMPDEST PUSH2 0x640 JUMP JUMPDEST STOP JUMPDEST PUSH2 0x263 PUSH1 0x4 DUP1 CALLDATASIZE SUB DUP2 ADD SWAP1 PUSH2 0x25E SWAP2 SWAP1 PUSH2 0x1937 JUMP JUMPDEST PUSH2 0x7FE JUMP JUMPDEST STOP JUMPDEST PUSH2 0x27F PUSH1 0x4 DUP1 CALLDATASIZE SUB DUP2 ADD SWAP1 PUSH2 0x27A SWAP2 SWAP1 PUSH2 0x1973 JUMP JUMPDEST PUSH2 0x8D1 JUMP JUMPDEST STOP JUMPDEST PUSH2 0x29B PUSH1 0x4 DUP1 CALLDATASIZE SUB DUP2 ADD SWAP1 PUSH2 0x296 SWAP2 SWAP1 PUSH2 0x190E JUMP JUMPDEST PUSH2 0xA33 JUMP JUMPDEST STOP JUMPDEST PUSH2 0x2A5 PUSH2 0xCCB JUMP JUMPDEST PUSH1 0x40 MLOAD PUSH2 0x2B2 SWAP2 SWAP1 PUSH2 0x1CB4 JUMP JUMPDEST PUSH1 0x40 MLOAD DUP1 SWAP2 SUB SWAP1 RETURN JUMPDEST PUSH2 0x2D5 PUSH1 0x4 DUP1 CALLDATASIZE SUB DUP2 ADD SWAP1 PUSH2 0x2D0 SWAP2 SWAP1 PUSH2 0x190E JUMP JUMPDEST PUSH2 0xCEF JUMP JUMPDEST PUSH1 0x40 MLOAD PUSH2 0x2E2 SWAP2 SWAP1 PUSH2 0x1DB1 JUMP JUMPDEST PUSH1 0x40 MLOAD DUP1 SWAP2 SUB SWAP1 RETURN JUMPDEST PUSH2 0x305 PUSH1 0x4 DUP1 CALLDATASIZE SUB DUP2 ADD SWAP1 PUSH2 0x300 SWAP2 SWAP1 PUSH2 0x19EB JUMP JUMPDEST PUSH2 0xD1A JUMP JUMPDEST PUSH1 0x40 MLOAD PUSH2 0x312 SWAP2 SWAP1 PUSH2 0x1C99 JUMP JUMPDEST PUSH1 0x40 MLOAD DUP1 SWAP2 SUB SWAP1 RETURN JUMPDEST PUSH2 0x323 PUSH2 0xD84 JUMP JUMPDEST PUSH1 0x40 MLOAD PUSH2 0x330 SWAP2 SWAP1 PUSH2 0x1CB4 JUMP JUMPDEST PUSH1 0x40 MLOAD DUP1 SWAP2 SUB SWAP1 RETURN JUMPDEST PUSH2 0x341 PUSH2 0xD8B JUMP JUMPDEST PUSH1 0x40 MLOAD PUSH2 0x34E SWAP2 SWAP1 PUSH2 0x1CB4 JUMP JUMPDEST PUSH1 0x40 MLOAD DUP1 SWAP2 SUB SWAP1 RETURN JUMPDEST PUSH2 0x371 PUSH1 0x4 DUP1 CALLDATASIZE SUB DUP2 ADD SWAP1 PUSH2 0x36C SWAP2 SWAP1 PUSH2 0x190E JUMP JUMPDEST PUSH2 0xDAF JUMP JUMPDEST PUSH1 0x40 MLOAD PUSH2 0x37E SWAP2 SWAP1 PUSH2 0x1C99 JUMP JUMPDEST PUSH1 0x40 MLOAD DUP1 SWAP2 SUB SWAP1 RETURN JUMPDEST PUSH2 0x3A1 PUSH1 0x4 DUP1 CALLDATASIZE SUB DUP2 ADD SWAP1 PUSH2 0x39C SWAP2 SWAP1 PUSH2 0x1973 JUMP JUMPDEST PUSH2 0xDC3 JUMP JUMPDEST STOP JUMPDEST PUSH2 0x3AB PUSH2 0xEFF JUMP JUMPDEST PUSH1 0x40 MLOAD PUSH2 0x3B8 SWAP2 SWAP1 PUSH2 0x1DB1 JUMP JUMPDEST PUSH1 0x40 MLOAD DUP1 SWAP2 SUB SWAP1 RETURN JUMPDEST PUSH2 0x3DB PUSH1 0x4 DUP1 CALLDATASIZE SUB DUP2 ADD SWAP1 PUSH2 0x3D6 SWAP2 SWAP1 PUSH2 0x19EB JUMP JUMPDEST PUSH2 0xF0B JUMP JUMPDEST STOP JUMPDEST PUSH2 0x3F7 PUSH1 0x4 DUP1 CALLDATASIZE SUB DUP2 ADD SWAP1 PUSH2 0x3F2 SWAP2 SWAP1 PUSH2 0x190E JUMP JUMPDEST PUSH2 0xF34 JUMP JUMPDEST PUSH1 0x40 MLOAD PUSH2 0x404 SWAP2 SWAP1 PUSH2 0x1DB1 JUMP JUMPDEST PUSH1 0x40 MLOAD DUP1 SWAP2 SUB SWAP1 RETURN JUMPDEST PUSH2 0x427 PUSH1 0x4 DUP1 CALLDATASIZE SUB DUP2 ADD SWAP1 PUSH2 0x422 SWAP2 SWAP1 PUSH2 0x1937 JUMP JUMPDEST PUSH2 0xF80 JUMP JUMPDEST STOP JUMPDEST PUSH2 0x443 PUSH1 0x4 DUP1 CALLDATASIZE SUB DUP2 ADD SWAP1 PUSH2 0x43E SWAP2 SWAP1 PUSH2 0x190E JUMP JUMPDEST PUSH2 0x114E JUMP JUMPDEST PUSH1 0x40 MLOAD PUSH2 0x450 SWAP2 SWAP1 PUSH2 0x1C99 JUMP JUMPDEST PUSH1 0x40 MLOAD DUP1 SWAP2 SUB SWAP1 RETURN JUMPDEST PUSH1 0x0 PUSH32 0x7965DB0B00000000000000000000000000000000000000000000000000000000 PUSH28 0xFFFFFFFFFFFFFFFFFFFFFFFFFFFFFFFFFFFFFFFFFFFFFFFFFFFFFFFF NOT AND DUP3 PUSH28 0xFFFFFFFFFFFFFFFFFFFFFFFFFFFFFFFFFFFFFFFFFFFFFFFFFFFFFFFF NOT AND EQ DUP1 PUSH2 0x4CC JUMPI POP PUSH2 0x4CB DUP3 PUSH2 0x117B JUMP JUMPDEST JUMPDEST SWAP1 POP SWAP2 SWAP1 POP JUMP JUMPDEST PUSH1 0x0 DUP1 PUSH1 0x0 SWAP1 POP JUMPDEST PUSH2 0x4E4 DUP5 PUSH2 0xCEF JUMP JUMPDEST DUP2 LT ISZERO PUSH2 0x545 JUMPI DUP3 PUSH1 0x1 PUSH1 0x3 ADD PUSH1 0x0 PUSH2 0x4FC DUP8 PUSH2 0xF34 JUMP JUMPDEST DUP2 MSTORE PUSH1 0x20 ADD SWAP1 DUP2 MSTORE PUSH1 0x20 ADD PUSH1 0x0 KECCAK256 PUSH1 0x1 ADD PUSH1 0x0 DUP4 DUP2 MSTORE PUSH1 0x20 ADD SWAP1 DUP2 MSTORE PUSH1 0x20 ADD PUSH1 0x0 KECCAK256 PUSH1 0x0 ADD SLOAD EQ ISZERO PUSH2 0x532 JUMPI PUSH1 0x1 SWAP2 POP POP PUSH2 0x54B JUMP JUMPDEST DUP1 DUP1 PUSH2 0x53D SWAP1 PUSH2 0x1FB2 JUMP JUMPDEST SWAP2 POP POP PUSH2 0x4DB JUMP JUMPDEST POP PUSH1 0x0 SWAP1 POP JUMPDEST SWAP3 SWAP2 POP POP JUMP JUMPDEST PUSH1 0x0 DUP1 PUSH1 0x0 DUP4 DUP2 MSTORE PUSH1 0x20 ADD SWAP1 DUP2 MSTORE PUSH1 0x20 ADD PUSH1 0x0 KECCAK256 PUSH1 0x1 ADD SLOAD SWAP1 POP SWAP2 SWAP1 POP JUMP JUMPDEST PUSH32 0xAD8E13ADE6B5588E1A6049D70C1678B839105F007C5F6FB969AD8B1456160EAC DUP2 JUMP JUMPDEST PUSH2 0x59D DUP3 PUSH2 0x551 JUMP JUMPDEST PUSH2 0x5AE DUP2 PUSH2 0x5A9 PUSH2 0x11E5 JUMP JUMPDEST PUSH2 0x11ED JUMP JUMPDEST PUSH2 0x5B8 DUP4 DUP4 PUSH2 0x128A JUMP JUMPDEST POP POP POP JUMP JUMPDEST PUSH2 0x5C5 PUSH2 0x11E5 JUMP JUMPDEST PUSH20 0xFFFFFFFFFFFFFFFFFFFFFFFFFFFFFFFFFFFFFFFF AND DUP2 PUSH20 0xFFFFFFFFFFFFFFFFFFFFFFFFFFFFFFFFFFFFFFFF AND EQ PUSH2 0x632 JUMPI PUSH1 0x40 MLOAD PUSH32 0x8C379A000000000000000000000000000000000000000000000000000000000 DUP2 MSTORE PUSH1 0x4 ADD PUSH2 0x629 SWAP1 PUSH2 0x1D91 JUMP JUMPDEST PUSH1 0x40 MLOAD DUP1 SWAP2 SUB SWAP1 REVERT JUMPDEST PUSH2 0x63C DUP3 DUP3 PUSH2 0x136A JUMP JUMPDEST POP POP JUMP JUMPDEST PUSH2 0x671 PUSH32 0x94A986C75919E983AAD44B3AA6D84EBCADDF91749EDF743E3A487D1A49949A75 PUSH2 0x66C PUSH2 0x11E5 JUMP JUMPDEST PUSH2 0xD1A JUMP JUMPDEST DUP1 PUSH2 0x6A9 JUMPI POP PUSH2 0x6A8 PUSH32 0x3EC4E68565B7B1587AACCBCF2B5911E829E236602DC6D0FE89C50E09BDD019B4 PUSH2 0x6A3 PUSH2 0x11E5 JUMP JUMPDEST PUSH2 0xD1A JUMP JUMPDEST JUMPDEST DUP1 PUSH2 0x6E1 JUMPI POP PUSH2 0x6E0 PUSH32 0xAD8E13ADE6B5588E1A6049D70C1678B839105F007C5F6FB969AD8B1456160EAC PUSH2 0x6DB PUSH2 0x11E5 JUMP JUMPDEST PUSH2 0xD1A JUMP JUMPDEST JUMPDEST DUP1 PUSH2 0x6FC JUMPI POP PUSH2 0x6FB PUSH1 0x0 DUP1 SHL PUSH2 0x6F6 PUSH2 0x11E5 JUMP JUMPDEST PUSH2 0xD1A JUMP JUMPDEST JUMPDEST PUSH2 0x73B JUMPI PUSH1 0x40 MLOAD PUSH32 0x8C379A000000000000000000000000000000000000000000000000000000000 DUP2 MSTORE PUSH1 0x4 ADD PUSH2 0x732 SWAP1 PUSH2 0x1D51 JUMP JUMPDEST PUSH1 0x40 MLOAD DUP1 SWAP2 SUB SWAP1 REVERT JUMPDEST PUSH1 0x1 PUSH1 0x0 ADD PUSH1 0x0 DUP2 SLOAD DUP1 SWAP3 SWAP2 SWAP1 PUSH2 0x751 SWAP1 PUSH2 0x1FB2 JUMP JUMPDEST SWAP2 SWAP1 POP SSTORE POP DUP1 PUSH1 0x1 DUP1 ADD PUSH1 0x0 PUSH1 0x1 PUSH1 0x0 ADD SLOAD DUP2 MSTORE PUSH1 0x20 ADD SWAP1 DUP2 MSTORE PUSH1 0x20 ADD PUSH1 0x0 KECCAK256 PUSH1 0x0 PUSH2 0x100 EXP DUP2 SLOAD DUP2 PUSH20 0xFFFFFFFFFFFFFFFFFFFFFFFFFFFFFFFFFFFFFFFF MUL NOT AND SWAP1 DUP4 PUSH20 0xFFFFFFFFFFFFFFFFFFFFFFFFFFFFFFFFFFFFFFFF AND MUL OR SWAP1 SSTORE POP PUSH1 0x1 PUSH1 0x0 ADD SLOAD PUSH1 0x1 PUSH1 0x2 ADD PUSH1 0x0 DUP4 PUSH20 0xFFFFFFFFFFFFFFFFFFFFFFFFFFFFFFFFFFFFFFFF AND PUSH20 0xFFFFFFFFFFFFFFFFFFFFFFFFFFFFFFFFFFFFFFFF AND DUP2 MSTORE PUSH1 0x20 ADD SWAP1 DUP2 MSTORE PUSH1 0x20 ADD PUSH1 0x0 KECCAK256 DUP2 SWAP1 SSTORE POP POP JUMP JUMPDEST PUSH2 0x82F PUSH32 0x3EC4E68565B7B1587AACCBCF2B5911E829E236602DC6D0FE89C50E09BDD019B4 PUSH2 0x82A PUSH2 0x11E5 JUMP JUMPDEST PUSH2 0xD1A JUMP JUMPDEST DUP1 PUSH2 0x867 JUMPI POP PUSH2 0x866 PUSH32 0xAD8E13ADE6B5588E1A6049D70C1678B839105F007C5F6FB969AD8B1456160EAC PUSH2 0x861 PUSH2 0x11E5 JUMP JUMPDEST PUSH2 0xD1A JUMP JUMPDEST JUMPDEST DUP1 PUSH2 0x882 JUMPI POP PUSH2 0x881 PUSH1 0x0 DUP1 SHL PUSH2 0x87C PUSH2 0x11E5 JUMP JUMPDEST PUSH2 0xD1A JUMP JUMPDEST JUMPDEST PUSH2 0x8C1 JUMPI PUSH1 0x40 MLOAD PUSH32 0x8C379A000000000000000000000000000000000000000000000000000000000 DUP2 MSTORE PUSH1 0x4 ADD PUSH2 0x8B8 SWAP1 PUSH2 0x1D71 JUMP JUMPDEST PUSH1 0x40 MLOAD DUP1 SWAP2 SUB SWAP1 REVERT JUMPDEST PUSH2 0x8CD DUP3 DUP3 PUSH1 0x1 PUSH2 0xDC3 JUMP JUMPDEST POP POP JUMP JUMPDEST PUSH2 0x902 PUSH32 0x3EC4E68565B7B1587AACCBCF2B5911E829E236602DC6D0FE89C50E09BDD019B4 PUSH2 0x8FD PUSH2 0x11E5 JUMP JUMPDEST PUSH2 0xD1A JUMP JUMPDEST DUP1 PUSH2 0x91D JUMPI POP PUSH2 0x91C PUSH1 0x0 DUP1 SHL PUSH2 0x917 PUSH2 0x11E5 JUMP JUMPDEST PUSH2 0xD1A JUMP JUMPDEST JUMPDEST PUSH2 0x95C JUMPI PUSH1 0x40 MLOAD PUSH32 0x8C379A000000000000000000000000000000000000000000000000000000000 DUP2 MSTORE PUSH1 0x4 ADD PUSH2 0x953 SWAP1 PUSH2 0x1D31 JUMP JUMPDEST PUSH1 0x40 MLOAD DUP1 SWAP2 SUB SWAP1 REVERT JUMPDEST PUSH2 0x965 DUP4 PUSH2 0xDAF JUMP JUMPDEST PUSH2 0x973 JUMPI PUSH2 0x972 DUP4 PUSH2 0x640 JUMP JUMPDEST JUMPDEST PUSH1 0x1 PUSH1 0x3 ADD PUSH1 0x0 PUSH2 0x983 DUP6 PUSH2 0xF34 JUMP JUMPDEST DUP2 MSTORE PUSH1 0x20 ADD SWAP1 DUP2 MSTORE PUSH1 0x20 ADD PUSH1 0x0 KECCAK256 PUSH1 0x0 ADD PUSH1 0x0 DUP2 SLOAD DUP1 SWAP3 SWAP2 SWAP1 PUSH2 0x9A5 SWAP1 PUSH2 0x1FB2 JUMP JUMPDEST SWAP2 SWAP1 POP SSTORE POP DUP2 PUSH1 0x1 PUSH1 0x3 ADD PUSH1 0x0 PUSH2 0x9BB DUP7 PUSH2 0xF34 JUMP JUMPDEST DUP2 MSTORE PUSH1 0x20 ADD SWAP1 DUP2 MSTORE PUSH1 0x20 ADD PUSH1 0x0 KECCAK256 PUSH1 0x1 ADD PUSH1 0x0 PUSH2 0x9D7 DUP7 PUSH2 0xCEF JUMP JUMPDEST DUP2 MSTORE PUSH1 0x20 ADD SWAP1 DUP2 MSTORE PUSH1 0x20 ADD PUSH1 0x0 KECCAK256 PUSH1 0x0 ADD DUP2 SWAP1 SSTORE POP DUP1 PUSH1 0x1 PUSH1 0x3 ADD PUSH1 0x0 PUSH2 0x9FD DUP7 PUSH2 0xF34 JUMP JUMPDEST DUP2 MSTORE PUSH1 0x20 ADD SWAP1 DUP2 MSTORE PUSH1 0x20 ADD PUSH1 0x0 KECCAK256 PUSH1 0x1 ADD PUSH1 0x0 PUSH2 0xA19 DUP7 PUSH2 0xCEF JUMP JUMPDEST DUP2 MSTORE PUSH1 0x20 ADD SWAP1 DUP2 MSTORE PUSH1 0x20 ADD PUSH1 0x0 KECCAK256 PUSH1 0x1 ADD DUP2 SWAP1 SSTORE POP POP POP POP JUMP JUMPDEST PUSH2 0xA64 PUSH32 0x94A986C75919E983AAD44B3AA6D84EBCADDF91749EDF743E3A487D1A49949A75 PUSH2 0xA5F PUSH2 0x11E5 JUMP JUMPDEST PUSH2 0xD1A JUMP JUMPDEST DUP1 PUSH2 0xA7F JUMPI POP PUSH2 0xA7E PUSH1 0x0 DUP1 SHL PUSH2 0xA79 PUSH2 0x11E5 JUMP JUMPDEST PUSH2 0xD1A JUMP JUMPDEST JUMPDEST PUSH2 0xABE JUMPI PUSH1 0x40 MLOAD PUSH32 0x8C379A000000000000000000000000000000000000000000000000000000000 DUP2 MSTORE PUSH1 0x4 ADD PUSH2 0xAB5 SWAP1 PUSH2 0x1D11 JUMP JUMPDEST PUSH1 0x40 MLOAD DUP1 SWAP2 SUB SWAP1 REVERT JUMPDEST PUSH1 0x0 PUSH2 0xAC9 DUP3 PUSH2 0xF34 JUMP JUMPDEST SWAP1 POP PUSH1 0x0 DUP3 SWAP1 POP PUSH1 0x0 PUSH1 0x1 PUSH1 0x0 ADD SLOAD SWAP1 POP PUSH1 0x0 PUSH1 0x1 DUP1 ADD PUSH1 0x0 PUSH1 0x1 PUSH1 0x0 ADD SLOAD DUP2 MSTORE PUSH1 0x20 ADD SWAP1 DUP2 MSTORE PUSH1 0x20 ADD PUSH1 0x0 KECCAK256 PUSH1 0x0 SWAP1 SLOAD SWAP1 PUSH2 0x100 EXP SWAP1 DIV PUSH20 0xFFFFFFFFFFFFFFFFFFFFFFFFFFFFFFFFFFFFFFFF AND SWAP1 POP PUSH1 0x1 DUP1 ADD PUSH1 0x0 DUP4 DUP2 MSTORE PUSH1 0x20 ADD SWAP1 DUP2 MSTORE PUSH1 0x20 ADD PUSH1 0x0 KECCAK256 PUSH1 0x0 SWAP1 SLOAD SWAP1 PUSH2 0x100 EXP SWAP1 DIV PUSH20 0xFFFFFFFFFFFFFFFFFFFFFFFFFFFFFFFFFFFFFFFF AND PUSH1 0x1 DUP1 ADD PUSH1 0x0 DUP7 DUP2 MSTORE PUSH1 0x20 ADD SWAP1 DUP2 MSTORE PUSH1 0x20 ADD PUSH1 0x0 KECCAK256 PUSH1 0x0 PUSH2 0x100 EXP DUP2 SLOAD DUP2 PUSH20 0xFFFFFFFFFFFFFFFFFFFFFFFFFFFFFFFFFFFFFFFF MUL NOT AND SWAP1 DUP4 PUSH20 0xFFFFFFFFFFFFFFFFFFFFFFFFFFFFFFFFFFFFFFFF AND MUL OR SWAP1 SSTORE POP PUSH1 0x1 DUP1 ADD PUSH1 0x0 DUP4 DUP2 MSTORE PUSH1 0x20 ADD SWAP1 DUP2 MSTORE PUSH1 0x20 ADD PUSH1 0x0 KECCAK256 PUSH1 0x0 PUSH2 0x100 EXP DUP2 SLOAD SWAP1 PUSH20 0xFFFFFFFFFFFFFFFFFFFFFFFFFFFFFFFFFFFFFFFF MUL NOT AND SWAP1 SSTORE PUSH1 0x1 PUSH1 0x2 ADD PUSH1 0x0 DUP3 PUSH20 0xFFFFFFFFFFFFFFFFFFFFFFFFFFFFFFFFFFFFFFFF AND PUSH20 0xFFFFFFFFFFFFFFFFFFFFFFFFFFFFFFFFFFFFFFFF AND DUP2 MSTORE PUSH1 0x20 ADD SWAP1 DUP2 MSTORE PUSH1 0x20 ADD PUSH1 0x0 KECCAK256 SLOAD PUSH1 0x1 PUSH1 0x2 ADD PUSH1 0x0 DUP6 PUSH20 0xFFFFFFFFFFFFFFFFFFFFFFFFFFFFFFFFFFFFFFFF AND PUSH20 0xFFFFFFFFFFFFFFFFFFFFFFFFFFFFFFFFFFFFFFFF AND DUP2 MSTORE PUSH1 0x20 ADD SWAP1 DUP2 MSTORE PUSH1 0x20 ADD PUSH1 0x0 KECCAK256 DUP2 SWAP1 SSTORE POP PUSH1 0x1 PUSH1 0x2 ADD PUSH1 0x0 DUP3 PUSH20 0xFFFFFFFFFFFFFFFFFFFFFFFFFFFFFFFFFFFFFFFF AND PUSH20 0xFFFFFFFFFFFFFFFFFFFFFFFFFFFFFFFFFFFFFFFF AND DUP2 MSTORE PUSH1 0x20 ADD SWAP1 DUP2 MSTORE PUSH1 0x20 ADD PUSH1 0x0 KECCAK256 PUSH1 0x0 SWAP1 SSTORE PUSH1 0x1 PUSH1 0x0 ADD PUSH1 0x0 DUP2 SLOAD DUP1 SWAP3 SWAP2 SWAP1 PUSH2 0xCBF SWAP1 PUSH2 0x1F88 JUMP JUMPDEST SWAP2 SWAP1 POP SSTORE POP POP POP POP POP POP JUMP JUMPDEST PUSH32 0x94A986C75919E983AAD44B3AA6D84EBCADDF91749EDF743E3A487D1A49949A75 DUP2 JUMP JUMPDEST PUSH1 0x0 PUSH1 0x1 PUSH1 0x3 ADD PUSH1 0x0 PUSH2 0xD01 DUP5 PUSH2 0xF34 JUMP JUMPDEST DUP2 MSTORE PUSH1 0x20 ADD SWAP1 DUP2 MSTORE PUSH1 0x20 ADD PUSH1 0x0 KECCAK256 PUSH1 0x0 ADD SLOAD SWAP1 POP SWAP2 SWAP1 POP JUMP JUMPDEST PUSH1 0x0 DUP1 PUSH1 0x0 DUP5 DUP2 MSTORE PUSH1 0x20 ADD SWAP1 DUP2 MSTORE PUSH1 0x20 ADD PUSH1 0x0 KECCAK256 PUSH1 0x0 ADD PUSH1 0x0 DUP4 PUSH20 0xFFFFFFFFFFFFFFFFFFFFFFFFFFFFFFFFFFFFFFFF AND PUSH20 0xFFFFFFFFFFFFFFFFFFFFFFFFFFFFFFFFFFFFFFFF AND DUP2 MSTORE PUSH1 0x20 ADD SWAP1 DUP2 MSTORE PUSH1 0x20 ADD PUSH1 0x0 KECCAK256 PUSH1 0x0 SWAP1 SLOAD SWAP1 PUSH2 0x100 EXP SWAP1 DIV PUSH1 0xFF AND SWAP1 POP SWAP3 SWAP2 POP POP JUMP JUMPDEST PUSH1 0x0 DUP1 SHL DUP2 JUMP JUMPDEST PUSH32 0x3EC4E68565B7B1587AACCBCF2B5911E829E236602DC6D0FE89C50E09BDD019B4 DUP2 JUMP JUMPDEST PUSH1 0x0 DUP1 PUSH2 0xDBB DUP4 PUSH2 0xF34 JUMP JUMPDEST EQ SWAP1 POP SWAP2 SWAP1 POP JUMP JUMPDEST PUSH2 0xDF4 PUSH32 0x3EC4E68565B7B1587AACCBCF2B5911E829E236602DC6D0FE89C50E09BDD019B4 PUSH2 0xDEF PUSH2 0x11E5 JUMP JUMPDEST PUSH2 0xD1A JUMP JUMPDEST DUP1 PUSH2 0xE2C JUMPI POP PUSH2 0xE2B PUSH32 0xAD8E13ADE6B5588E1A6049D70C1678B839105F007C5F6FB969AD8B1456160EAC PUSH2 0xE26 PUSH2 0x11E5 JUMP JUMPDEST PUSH2 0xD1A JUMP JUMPDEST JUMPDEST DUP1 PUSH2 0xE47 JUMPI POP PUSH2 0xE46 PUSH1 0x0 DUP1 SHL PUSH2 0xE41 PUSH2 0x11E5 JUMP JUMPDEST PUSH2 0xD1A JUMP JUMPDEST JUMPDEST PUSH2 0xE86 JUMPI PUSH1 0x40 MLOAD PUSH32 0x8C379A000000000000000000000000000000000000000000000000000000000 DUP2 MSTORE PUSH1 0x4 ADD PUSH2 0xE7D SWAP1 PUSH2 0x1D71 JUMP JUMPDEST PUSH1 0x40 MLOAD DUP1 SWAP2 SUB SWAP1 REVERT JUMPDEST PUSH1 0x0 JUMPDEST PUSH2 0xE92 DUP5 PUSH2 0xCEF JUMP JUMPDEST DUP2 LT ISZERO PUSH2 0xEF9 JUMPI DUP3 PUSH1 0x1 PUSH1 0x3 ADD PUSH1 0x0 PUSH2 0xEAA DUP8 PUSH2 0xF34 JUMP JUMPDEST DUP2 MSTORE PUSH1 0x20 ADD SWAP1 DUP2 MSTORE PUSH1 0x20 ADD PUSH1 0x0 KECCAK256 PUSH1 0x1 ADD PUSH1 0x0 DUP4 DUP2 MSTORE PUSH1 0x20 ADD SWAP1 DUP2 MSTORE PUSH1 0x20 ADD PUSH1 0x0 KECCAK256 PUSH1 0x0 ADD SLOAD EQ ISZERO PUSH2 0xEE6 JUMPI PUSH2 0xEE1 DUP5 DUP3 DUP5 PUSH2 0x144B JUMP JUMPDEST PUSH2 0xEF9 JUMP JUMPDEST DUP1 DUP1 PUSH2 0xEF1 SWAP1 PUSH2 0x1FB2 JUMP JUMPDEST SWAP2 POP POP PUSH2 0xE89 JUMP JUMPDEST POP POP POP POP JUMP JUMPDEST PUSH1 0x1 DUP1 PUSH1 0x0 ADD SLOAD SWAP1 POP DUP2 JUMP JUMPDEST PUSH2 0xF14 DUP3 PUSH2 0x551 JUMP JUMPDEST PUSH2 0xF25 DUP2 PUSH2 0xF20 PUSH2 0x11E5 JUMP JUMPDEST PUSH2 0x11ED JUMP JUMPDEST PUSH2 0xF2F DUP4 DUP4 PUSH2 0x136A JUMP JUMPDEST POP POP POP JUMP JUMPDEST PUSH1 0x0 PUSH1 0x1 PUSH1 0x2 ADD PUSH1 0x0 DUP4 PUSH20 0xFFFFFFFFFFFFFFFFFFFFFFFFFFFFFFFFFFFFFFFF AND PUSH20 0xFFFFFFFFFFFFFFFFFFFFFFFFFFFFFFFFFFFFFFFF AND DUP2 MSTORE PUSH1 0x20 ADD SWAP1 DUP2 MSTORE PUSH1 0x20 ADD PUSH1 0x0 KECCAK256 SLOAD SWAP1 POP SWAP2 SWAP1 POP JUMP JUMPDEST PUSH2 0xFB1 PUSH32 0x3EC4E68565B7B1587AACCBCF2B5911E829E236602DC6D0FE89C50E09BDD019B4 PUSH2 0xFAC PUSH2 0x11E5 JUMP JUMPDEST PUSH2 0xD1A JUMP JUMPDEST DUP1 PUSH2 0xFE9 JUMPI POP PUSH2 0xFE8 PUSH32 0xAD8E13ADE6B5588E1A6049D70C1678B839105F007C5F6FB969AD8B1456160EAC PUSH2 0xFE3 PUSH2 0x11E5 JUMP JUMPDEST PUSH2 0xD1A JUMP JUMPDEST JUMPDEST DUP1 PUSH2 0x1004 JUMPI POP PUSH2 0x1003 PUSH1 0x0 DUP1 SHL PUSH2 0xFFE PUSH2 0x11E5 JUMP JUMPDEST PUSH2 0xD1A JUMP JUMPDEST JUMPDEST PUSH2 0x1043 JUMPI PUSH1 0x40 MLOAD PUSH32 0x8C379A000000000000000000000000000000000000000000000000000000000 DUP2 MSTORE PUSH1 0x4 ADD PUSH2 0x103A SWAP1 PUSH2 0x1D71 JUMP JUMPDEST PUSH1 0x40 MLOAD DUP1 SWAP2 SUB SWAP1 REVERT JUMPDEST PUSH1 0x1 PUSH1 0x3 ADD PUSH1 0x0 PUSH2 0x1053 DUP5 PUSH2 0xF34 JUMP JUMPDEST DUP2 MSTORE PUSH1 0x20 ADD SWAP1 DUP2 MSTORE PUSH1 0x20 ADD PUSH1 0x0 KECCAK256 PUSH1 0x1 ADD PUSH1 0x0 PUSH2 0x106F DUP5 PUSH2 0xCEF JUMP JUMPDEST DUP2 MSTORE PUSH1 0x20 ADD SWAP1 DUP2 MSTORE PUSH1 0x20 ADD PUSH1 0x0 KECCAK256 PUSH1 0x1 PUSH1 0x3 ADD PUSH1 0x0 PUSH2 0x108D DUP6 PUSH2 0xF34 JUMP JUMPDEST DUP2 MSTORE PUSH1 0x20 ADD SWAP1 DUP2 MSTORE PUSH1 0x20 ADD PUSH1 0x0 KECCAK256 PUSH1 0x1 ADD PUSH1 0x0 DUP4 DUP2 MSTORE PUSH1 0x20 ADD SWAP1 DUP2 MSTORE PUSH1 0x20 ADD PUSH1 0x0 KECCAK256 PUSH1 0x0 DUP3 ADD SLOAD DUP2 PUSH1 0x0 ADD SSTORE PUSH1 0x1 DUP3 ADD SLOAD DUP2 PUSH1 0x1 ADD SSTORE SWAP1 POP POP PUSH1 0x1 PUSH1 0x3 ADD PUSH1 0x0 PUSH2 0x10D6 DUP5 PUSH2 0xF34 JUMP JUMPDEST DUP2 MSTORE PUSH1 0x20 ADD SWAP1 DUP2 MSTORE PUSH1 0x20 ADD PUSH1 0x0 KECCAK256 PUSH1 0x1 ADD PUSH1 0x0 PUSH2 0x10F2 DUP5 PUSH2 0xCEF JUMP JUMPDEST DUP2 MSTORE PUSH1 0x20 ADD SWAP1 DUP2 MSTORE PUSH1 0x20 ADD PUSH1 0x0 KECCAK256 PUSH1 0x0 DUP1 DUP3 ADD PUSH1 0x0 SWAP1 SSTORE PUSH1 0x1 DUP3 ADD PUSH1 0x0 SWAP1 SSTORE POP POP PUSH1 0x1 PUSH1 0x3 ADD PUSH1 0x0 PUSH2 0x1123 DUP5 PUSH2 0xF34 JUMP JUMPDEST DUP2 MSTORE PUSH1 0x20 ADD SWAP1 DUP2 MSTORE PUSH1 0x20 ADD PUSH1 0x0 KECCAK256 PUSH1 0x0 ADD PUSH1 0x0 DUP2 SLOAD DUP1 SWAP3 SWAP2 SWAP1 PUSH2 0x1145 SWAP1 PUSH2 0x1F88 JUMP JUMPDEST SWAP2 SWAP1 POP SSTORE POP POP POP JUMP JUMPDEST PUSH1 0x0 DUP1 PUSH1 0x1 PUSH1 0x3 ADD PUSH1 0x0 PUSH2 0x1161 DUP6 PUSH2 0xF34 JUMP JUMPDEST DUP2 MSTORE PUSH1 0x20 ADD SWAP1 DUP2 MSTORE PUSH1 0x20 ADD PUSH1 0x0 KECCAK256 PUSH1 0x0 ADD SLOAD EQ SWAP1 POP SWAP2 SWAP1 POP JUMP JUMPDEST PUSH1 0x0 PUSH32 0x1FFC9A700000000000000000000000000000000000000000000000000000000 PUSH28 0xFFFFFFFFFFFFFFFFFFFFFFFFFFFFFFFFFFFFFFFFFFFFFFFFFFFFFFFF NOT AND DUP3 PUSH28 0xFFFFFFFFFFFFFFFFFFFFFFFFFFFFFFFFFFFFFFFFFFFFFFFFFFFFFFFF NOT AND EQ SWAP1 POP SWAP2 SWAP1 POP JUMP JUMPDEST PUSH1 0x0 CALLER SWAP1 POP SWAP1 JUMP JUMPDEST PUSH2 0x11F7 DUP3 DUP3 PUSH2 0xD1A JUMP JUMPDEST PUSH2 0x1286 JUMPI PUSH2 0x121C DUP2 PUSH20 0xFFFFFFFFFFFFFFFFFFFFFFFFFFFFFFFFFFFFFFFF AND PUSH1 0x14 PUSH2 0x15C0 JUMP JUMPDEST PUSH2 0x122A DUP4 PUSH1 0x0 SHR PUSH1 0x20 PUSH2 0x15C0 JUMP JUMPDEST PUSH1 0x40 MLOAD PUSH1 0x20 ADD PUSH2 0x123B SWAP3 SWAP2 SWAP1 PUSH2 0x1C39 JUMP JUMPDEST PUSH1 0x40 MLOAD PUSH1 0x20 DUP2 DUP4 SUB SUB DUP2 MSTORE SWAP1 PUSH1 0x40 MSTORE PUSH1 0x40 MLOAD PUSH32 0x8C379A000000000000000000000000000000000000000000000000000000000 DUP2 MSTORE PUSH1 0x4 ADD PUSH2 0x127D SWAP2 SWAP1 PUSH2 0x1CCF JUMP JUMPDEST PUSH1 0x40 MLOAD DUP1 SWAP2 SUB SWAP1 REVERT JUMPDEST POP POP JUMP JUMPDEST PUSH2 0x1294 DUP3 DUP3 PUSH2 0xD1A JUMP JUMPDEST PUSH2 0x1366 JUMPI PUSH1 0x1 PUSH1 0x0 DUP1 DUP5 DUP2 MSTORE PUSH1 0x20 ADD SWAP1 DUP2 MSTORE PUSH1 0x20 ADD PUSH1 0x0 KECCAK256 PUSH1 0x0 ADD PUSH1 0x0 DUP4 PUSH20 0xFFFFFFFFFFFFFFFFFFFFFFFFFFFFFFFFFFFFFFFF AND PUSH20 0xFFFFFFFFFFFFFFFFFFFFFFFFFFFFFFFFFFFFFFFF AND DUP2 MSTORE PUSH1 0x20 ADD SWAP1 DUP2 MSTORE PUSH1 0x20 ADD PUSH1 0x0 KECCAK256 PUSH1 0x0 PUSH2 0x100 EXP DUP2 SLOAD DUP2 PUSH1 0xFF MUL NOT AND SWAP1 DUP4 ISZERO ISZERO MUL OR SWAP1 SSTORE POP PUSH2 0x130B PUSH2 0x11E5 JUMP JUMPDEST PUSH20 0xFFFFFFFFFFFFFFFFFFFFFFFFFFFFFFFFFFFFFFFF AND DUP2 PUSH20 0xFFFFFFFFFFFFFFFFFFFFFFFFFFFFFFFFFFFFFFFF AND DUP4 PUSH32 0x2F8788117E7EFF1D82E926EC794901D17C78024A50270940304540A733656F0D PUSH1 0x40 MLOAD PUSH1 0x40 MLOAD DUP1 SWAP2 SUB SWAP1 LOG4 JUMPDEST POP POP JUMP JUMPDEST PUSH2 0x1374 DUP3 DUP3 PUSH2 0xD1A JUMP JUMPDEST ISZERO PUSH2 0x1447 JUMPI PUSH1 0x0 DUP1 PUSH1 0x0 DUP5 DUP2 MSTORE PUSH1 0x20 ADD SWAP1 DUP2 MSTORE PUSH1 0x20 ADD PUSH1 0x0 KECCAK256 PUSH1 0x0 ADD PUSH1 0x0 DUP4 PUSH20 0xFFFFFFFFFFFFFFFFFFFFFFFFFFFFFFFFFFFFFFFF AND PUSH20 0xFFFFFFFFFFFFFFFFFFFFFFFFFFFFFFFFFFFFFFFF AND DUP2 MSTORE PUSH1 0x20 ADD SWAP1 DUP2 MSTORE PUSH1 0x20 ADD PUSH1 0x0 KECCAK256 PUSH1 0x0 PUSH2 0x100 EXP DUP2 SLOAD DUP2 PUSH1 0xFF MUL NOT AND SWAP1 DUP4 ISZERO ISZERO MUL OR SWAP1 SSTORE POP PUSH2 0x13EC PUSH2 0x11E5 JUMP JUMPDEST PUSH20 0xFFFFFFFFFFFFFFFFFFFFFFFFFFFFFFFFFFFFFFFF AND DUP2 PUSH20 0xFFFFFFFFFFFFFFFFFFFFFFFFFFFFFFFFFFFFFFFF AND DUP4 PUSH32 0xF6391F5C32D9C69D2A47EA670B442974B53935D1EDC7FD64EB21E047A839171B PUSH1 0x40 MLOAD PUSH1 0x40 MLOAD DUP1 SWAP2 SUB SWAP1 LOG4 JUMPDEST POP POP JUMP JUMPDEST PUSH1 0x0 DUP2 PUSH1 0x1 PUSH1 0x3 ADD PUSH1 0x0 PUSH2 0x145E DUP8 PUSH2 0xF34 JUMP JUMPDEST DUP2 MSTORE PUSH1 0x20 ADD SWAP1 DUP2 MSTORE PUSH1 0x20 ADD PUSH1 0x0 KECCAK256 PUSH1 0x1 ADD PUSH1 0x0 DUP6 DUP2 MSTORE PUSH1 0x20 ADD SWAP1 DUP2 MSTORE PUSH1 0x20 ADD PUSH1 0x0 KECCAK256 PUSH1 0x1 ADD SLOAD LT ISZERO SWAP1 POP PUSH1 0x0 PUSH1 0x1 PUSH1 0x3 ADD PUSH1 0x0 PUSH2 0x149A DUP8 PUSH2 0xF34 JUMP JUMPDEST DUP2 MSTORE PUSH1 0x20 ADD SWAP1 DUP2 MSTORE PUSH1 0x20 ADD PUSH1 0x0 KECCAK256 PUSH1 0x1 ADD PUSH1 0x0 DUP6 DUP2 MSTORE PUSH1 0x20 ADD SWAP1 DUP2 MSTORE PUSH1 0x20 ADD PUSH1 0x0 KECCAK256 PUSH1 0x1 ADD SLOAD PUSH1 0x40 MLOAD PUSH1 0x20 ADD PUSH2 0x14D0 SWAP2 SWAP1 PUSH2 0x1C73 JUMP JUMPDEST PUSH1 0x40 MLOAD PUSH1 0x20 DUP2 DUP4 SUB SUB DUP2 MSTORE SWAP1 PUSH1 0x40 MSTORE SWAP1 POP DUP2 DUP2 SWAP1 PUSH2 0x1524 JUMPI PUSH1 0x40 MLOAD PUSH32 0x8C379A000000000000000000000000000000000000000000000000000000000 DUP2 MSTORE PUSH1 0x4 ADD PUSH2 0x151B SWAP2 SWAP1 PUSH2 0x1CCF JUMP JUMPDEST PUSH1 0x40 MLOAD DUP1 SWAP2 SUB SWAP1 REVERT JUMPDEST POP DUP3 PUSH1 0x1 PUSH1 0x3 ADD PUSH1 0x0 PUSH2 0x1536 DUP9 PUSH2 0xF34 JUMP JUMPDEST DUP2 MSTORE PUSH1 0x20 ADD SWAP1 DUP2 MSTORE PUSH1 0x20 ADD PUSH1 0x0 KECCAK256 PUSH1 0x1 ADD PUSH1 0x0 DUP7 DUP2 MSTORE PUSH1 0x20 ADD SWAP1 DUP2 MSTORE PUSH1 0x20 ADD PUSH1 0x0 KECCAK256 PUSH1 0x1 ADD PUSH1 0x0 DUP3 DUP3 SLOAD PUSH2 0x156A SWAP2 SWAP1 PUSH2 0x1EA3 JUMP JUMPDEST SWAP3 POP POP DUP2 SWAP1 SSTORE POP PUSH1 0x0 PUSH1 0x1 PUSH1 0x3 ADD PUSH1 0x0 PUSH2 0x1583 DUP9 PUSH2 0xF34 JUMP JUMPDEST DUP2 MSTORE PUSH1 0x20 ADD SWAP1 DUP2 MSTORE PUSH1 0x20 ADD PUSH1 0x0 KECCAK256 PUSH1 0x1 ADD PUSH1 0x0 DUP7 DUP2 MSTORE PUSH1 0x20 ADD SWAP1 DUP2 MSTORE PUSH1 0x20 ADD PUSH1 0x0 KECCAK256 PUSH1 0x1 ADD SLOAD GT PUSH2 0x15B9 JUMPI PUSH2 0x15B8 DUP6 DUP6 PUSH2 0xF80 JUMP JUMPDEST JUMPDEST POP POP POP POP POP JUMP JUMPDEST PUSH1 0x60 PUSH1 0x0 PUSH1 0x2 DUP4 PUSH1 0x2 PUSH2 0x15D3 SWAP2 SWAP1 PUSH2 0x1E49 JUMP JUMPDEST PUSH2 0x15DD SWAP2 SWAP1 PUSH2 0x1DF3 JUMP JUMPDEST PUSH8 0xFFFFFFFFFFFFFFFF DUP2 GT ISZERO PUSH2 0x161C JUMPI PUSH32 0x4E487B7100000000000000000000000000000000000000000000000000000000 PUSH1 0x0 MSTORE PUSH1 0x41 PUSH1 0x4 MSTORE PUSH1 0x24 PUSH1 0x0 REVERT JUMPDEST PUSH1 0x40 MLOAD SWAP1 DUP1 DUP3 MSTORE DUP1 PUSH1 0x1F ADD PUSH1 0x1F NOT AND PUSH1 0x20 ADD DUP3 ADD PUSH1 0x40 MSTORE DUP1 ISZERO PUSH2 0x164E JUMPI DUP2 PUSH1 0x20 ADD PUSH1 0x1 DUP3 MUL DUP1 CALLDATASIZE DUP4 CALLDATACOPY DUP1 DUP3 ADD SWAP2 POP POP SWAP1 POP JUMPDEST POP SWAP1 POP PUSH32 0x3000000000000000000000000000000000000000000000000000000000000000 DUP2 PUSH1 0x0 DUP2 MLOAD DUP2 LT PUSH2 0x16AC JUMPI PUSH32 0x4E487B7100000000000000000000000000000000000000000000000000000000 PUSH1 0x0 MSTORE PUSH1 0x32 PUSH1 0x4 MSTORE PUSH1 0x24 PUSH1 0x0 REVERT JUMPDEST PUSH1 0x20 ADD ADD SWAP1 PUSH31 0xFFFFFFFFFFFFFFFFFFFFFFFFFFFFFFFFFFFFFFFFFFFFFFFFFFFFFFFFFFFFFF NOT AND SWAP1 DUP2 PUSH1 0x0 BYTE SWAP1 MSTORE8 POP PUSH32 0x7800000000000000000000000000000000000000000000000000000000000000 DUP2 PUSH1 0x1 DUP2 MLOAD DUP2 LT PUSH2 0x1736 JUMPI PUSH32 0x4E487B7100000000000000000000000000000000000000000000000000000000 PUSH1 0x0 MSTORE PUSH1 0x32 PUSH1 0x4 MSTORE PUSH1 0x24 PUSH1 0x0 REVERT JUMPDEST PUSH1 0x20 ADD ADD SWAP1 PUSH31 0xFFFFFFFFFFFFFFFFFFFFFFFFFFFFFFFFFFFFFFFFFFFFFFFFFFFFFFFFFFFFFF NOT AND SWAP1 DUP2 PUSH1 0x0 BYTE SWAP1 MSTORE8 POP PUSH1 0x0 PUSH1 0x1 DUP5 PUSH1 0x2 PUSH2 0x1776 SWAP2 SWAP1 PUSH2 0x1E49 JUMP JUMPDEST PUSH2 0x1780 SWAP2 SWAP1 PUSH2 0x1DF3 JUMP JUMPDEST SWAP1 POP JUMPDEST PUSH1 0x1 DUP2 GT ISZERO PUSH2 0x186C JUMPI PUSH32 0x3031323334353637383961626364656600000000000000000000000000000000 PUSH1 0xF DUP7 AND PUSH1 0x10 DUP2 LT PUSH2 0x17E8 JUMPI PUSH32 0x4E487B7100000000000000000000000000000000000000000000000000000000 PUSH1 0x0 MSTORE PUSH1 0x32 PUSH1 0x4 MSTORE PUSH1 0x24 PUSH1 0x0 REVERT JUMPDEST BYTE PUSH1 0xF8 SHL DUP3 DUP3 DUP2 MLOAD DUP2 LT PUSH2 0x1825 JUMPI PUSH32 0x4E487B7100000000000000000000000000000000000000000000000000000000 PUSH1 0x0 MSTORE PUSH1 0x32 PUSH1 0x4 MSTORE PUSH1 0x24 PUSH1 0x0 REVERT JUMPDEST PUSH1 0x20 ADD ADD SWAP1 PUSH31 0xFFFFFFFFFFFFFFFFFFFFFFFFFFFFFFFFFFFFFFFFFFFFFFFFFFFFFFFFFFFFFF NOT AND SWAP1 DUP2 PUSH1 0x0 BYTE SWAP1 MSTORE8 POP PUSH1 0x4 DUP6 SWAP1 SHR SWAP5 POP DUP1 PUSH2 0x1865 SWAP1 PUSH2 0x1F88 JUMP JUMPDEST SWAP1 POP PUSH2 0x1783 JUMP JUMPDEST POP PUSH1 0x0 DUP5 EQ PUSH2 0x18B0 JUMPI PUSH1 0x40 MLOAD PUSH32 0x8C379A000000000000000000000000000000000000000000000000000000000 DUP2 MSTORE PUSH1 0x4 ADD PUSH2 0x18A7 SWAP1 PUSH2 0x1CF1 JUMP JUMPDEST PUSH1 0x40 MLOAD DUP1 SWAP2 SUB SWAP1 REVERT JUMPDEST DUP1 SWAP2 POP POP SWAP3 SWAP2 POP POP JUMP JUMPDEST PUSH1 0x0 DUP2 CALLDATALOAD SWAP1 POP PUSH2 0x18C9 DUP2 PUSH2 0x22E6 JUMP JUMPDEST SWAP3 SWAP2 POP POP JUMP JUMPDEST PUSH1 0x0 DUP2 CALLDATALOAD SWAP1 POP PUSH2 0x18DE DUP2 PUSH2 0x22FD JUMP JUMPDEST SWAP3 SWAP2 POP POP JUMP JUMPDEST PUSH1 0x0 DUP2 CALLDATALOAD SWAP1 POP PUSH2 0x18F3 DUP2 PUSH2 0x2314 JUMP JUMPDEST SWAP3 SWAP2 POP POP JUMP JUMPDEST PUSH1 0x0 DUP2 CALLDATALOAD SWAP1 POP PUSH2 0x1908 DUP2 PUSH2 0x232B JUMP JUMPDEST SWAP3 SWAP2 POP POP JUMP JUMPDEST PUSH1 0x0 PUSH1 0x20 DUP3 DUP5 SUB SLT ISZERO PUSH2 0x1920 JUMPI PUSH1 0x0 DUP1 REVERT JUMPDEST PUSH1 0x0 PUSH2 0x192E DUP5 DUP3 DUP6 ADD PUSH2 0x18BA JUMP JUMPDEST SWAP2 POP POP SWAP3 SWAP2 POP POP JUMP JUMPDEST PUSH1 0x0 DUP1 PUSH1 0x40 DUP4 DUP6 SUB SLT ISZERO PUSH2 0x194A JUMPI PUSH1 0x0 DUP1 REVERT JUMPDEST PUSH1 0x0 PUSH2 0x1958 DUP6 DUP3 DUP7 ADD PUSH2 0x18BA JUMP JUMPDEST SWAP3 POP POP PUSH1 0x20 PUSH2 0x1969 DUP6 DUP3 DUP7 ADD PUSH2 0x18F9 JUMP JUMPDEST SWAP2 POP POP SWAP3 POP SWAP3 SWAP1 POP JUMP JUMPDEST PUSH1 0x0 DUP1 PUSH1 0x0 PUSH1 0x60 DUP5 DUP7 SUB SLT ISZERO PUSH2 0x1988 JUMPI PUSH1 0x0 DUP1 REVERT JUMPDEST PUSH1 0x0 PUSH2 0x1996 DUP7 DUP3 DUP8 ADD PUSH2 0x18BA JUMP JUMPDEST SWAP4 POP POP PUSH1 0x20 PUSH2 0x19A7 DUP7 DUP3 DUP8 ADD PUSH2 0x18F9 JUMP JUMPDEST SWAP3 POP POP PUSH1 0x40 PUSH2 0x19B8 DUP7 DUP3 DUP8 ADD PUSH2 0x18F9 JUMP JUMPDEST SWAP2 POP POP SWAP3 POP SWAP3 POP SWAP3 JUMP JUMPDEST PUSH1 0x0 PUSH1 0x20 DUP3 DUP5 SUB SLT ISZERO PUSH2 0x19D4 JUMPI PUSH1 0x0 DUP1 REVERT JUMPDEST PUSH1 0x0 PUSH2 0x19E2 DUP5 DUP3 DUP6 ADD PUSH2 0x18CF JUMP JUMPDEST SWAP2 POP POP SWAP3 SWAP2 POP POP JUMP JUMPDEST PUSH1 0x0 DUP1 PUSH1 0x40 DUP4 DUP6 SUB SLT ISZERO PUSH2 0x19FE JUMPI PUSH1 0x0 DUP1 REVERT JUMPDEST PUSH1 0x0 PUSH2 0x1A0C DUP6 DUP3 DUP7 ADD PUSH2 0x18CF JUMP JUMPDEST SWAP3 POP POP PUSH1 0x20 PUSH2 0x1A1D DUP6 DUP3 DUP7 ADD PUSH2 0x18BA JUMP JUMPDEST SWAP2 POP POP SWAP3 POP SWAP3 SWAP1 POP JUMP JUMPDEST PUSH1 0x0 PUSH1 0x20 DUP3 DUP5 SUB SLT ISZERO PUSH2 0x1A39 JUMPI PUSH1 0x0 DUP1 REVERT JUMPDEST PUSH1 0x0 PUSH2 0x1A47 DUP5 DUP3 DUP6 ADD PUSH2 0x18E4 JUMP JUMPDEST SWAP2 POP POP SWAP3 SWAP2 POP POP JUMP JUMPDEST PUSH2 0x1A59 DUP2 PUSH2 0x1EE9 JUMP JUMPDEST DUP3 MSTORE POP POP JUMP JUMPDEST PUSH2 0x1A68 DUP2 PUSH2 0x1EF5 JUMP JUMPDEST DUP3 MSTORE POP POP JUMP JUMPDEST PUSH1 0x0 PUSH2 0x1A79 DUP3 PUSH2 0x1DCC JUMP JUMPDEST PUSH2 0x1A83 DUP2 DUP6 PUSH2 0x1DD7 JUMP JUMPDEST SWAP4 POP PUSH2 0x1A93 DUP2 DUP6 PUSH1 0x20 DUP7 ADD PUSH2 0x1F55 JUMP JUMPDEST PUSH2 0x1A9C DUP2 PUSH2 0x2034 JUMP JUMPDEST DUP5 ADD SWAP2 POP POP SWAP3 SWAP2 POP POP JUMP JUMPDEST PUSH1 0x0 PUSH2 0x1AB2 DUP3 PUSH2 0x1DCC JUMP JUMPDEST PUSH2 0x1ABC DUP2 DUP6 PUSH2 0x1DE8 JUMP JUMPDEST SWAP4 POP PUSH2 0x1ACC DUP2 DUP6 PUSH1 0x20 DUP7 ADD PUSH2 0x1F55 JUMP JUMPDEST DUP1 DUP5 ADD SWAP2 POP POP SWAP3 SWAP2 POP POP JUMP JUMPDEST PUSH1 0x0 PUSH2 0x1AE5 PUSH1 0x20 DUP4 PUSH2 0x1DD7 JUMP JUMPDEST SWAP2 POP PUSH2 0x1AF0 DUP3 PUSH2 0x2045 JUMP JUMPDEST PUSH1 0x20 DUP3 ADD SWAP1 POP SWAP2 SWAP1 POP JUMP JUMPDEST PUSH1 0x0 PUSH2 0x1B08 PUSH1 0x26 DUP4 PUSH2 0x1DD7 JUMP JUMPDEST SWAP2 POP PUSH2 0x1B13 DUP3 PUSH2 0x206E JUMP JUMPDEST PUSH1 0x40 DUP3 ADD SWAP1 POP SWAP2 SWAP1 POP JUMP JUMPDEST PUSH1 0x0 PUSH2 0x1B2B PUSH1 0x25 DUP4 PUSH2 0x1DD7 JUMP JUMPDEST SWAP2 POP PUSH2 0x1B36 DUP3 PUSH2 0x20BD JUMP JUMPDEST PUSH1 0x40 DUP3 ADD SWAP1 POP SWAP2 SWAP1 POP JUMP JUMPDEST PUSH1 0x0 PUSH2 0x1B4E PUSH1 0x53 DUP4 PUSH2 0x1DD7 JUMP JUMPDEST SWAP2 POP PUSH2 0x1B59 DUP3 PUSH2 0x210C JUMP JUMPDEST PUSH1 0x60 DUP3 ADD SWAP1 POP SWAP2 SWAP1 POP JUMP JUMPDEST PUSH1 0x0 PUSH2 0x1B71 PUSH1 0x33 DUP4 PUSH2 0x1DD7 JUMP JUMPDEST SWAP2 POP PUSH2 0x1B7C DUP3 PUSH2 0x2181 JUMP JUMPDEST PUSH1 0x40 DUP3 ADD SWAP1 POP SWAP2 SWAP1 POP JUMP JUMPDEST PUSH1 0x0 PUSH2 0x1B94 PUSH1 0x17 DUP4 PUSH2 0x1DE8 JUMP JUMPDEST SWAP2 POP PUSH2 0x1B9F DUP3 PUSH2 0x21D0 JUMP JUMPDEST PUSH1 0x17 DUP3 ADD SWAP1 POP SWAP2 SWAP1 POP JUMP JUMPDEST PUSH1 0x0 PUSH2 0x1BB7 PUSH1 0x4B DUP4 PUSH2 0x1DE8 JUMP JUMPDEST SWAP2 POP PUSH2 0x1BC2 DUP3 PUSH2 0x21F9 JUMP JUMPDEST PUSH1 0x4B DUP3 ADD SWAP1 POP SWAP2 SWAP1 POP JUMP JUMPDEST PUSH1 0x0 PUSH2 0x1BDA PUSH1 0x11 DUP4 PUSH2 0x1DE8 JUMP JUMPDEST SWAP2 POP PUSH2 0x1BE5 DUP3 PUSH2 0x226E JUMP JUMPDEST PUSH1 0x11 DUP3 ADD SWAP1 POP SWAP2 SWAP1 POP JUMP JUMPDEST PUSH1 0x0 PUSH2 0x1BFD PUSH1 0x2F DUP4 PUSH2 0x1DD7 JUMP JUMPDEST SWAP2 POP PUSH2 0x1C08 DUP3 PUSH2 0x2297 JUMP JUMPDEST PUSH1 0x40 DUP3 ADD SWAP1 POP SWAP2 SWAP1 POP JUMP JUMPDEST PUSH2 0x1C1C DUP2 PUSH2 0x1F4B JUMP JUMPDEST DUP3 MSTORE POP POP JUMP JUMPDEST PUSH2 0x1C33 PUSH2 0x1C2E DUP3 PUSH2 0x1F4B JUMP JUMPDEST PUSH2 0x1FFB JUMP JUMPDEST DUP3 MSTORE POP POP JUMP JUMPDEST PUSH1 0x0 PUSH2 0x1C44 DUP3 PUSH2 0x1B87 JUMP JUMPDEST SWAP2 POP PUSH2 0x1C50 DUP3 DUP6 PUSH2 0x1AA7 JUMP JUMPDEST SWAP2 POP PUSH2 0x1C5B DUP3 PUSH2 0x1BCD JUMP JUMPDEST SWAP2 POP PUSH2 0x1C67 DUP3 DUP5 PUSH2 0x1AA7 JUMP JUMPDEST SWAP2 POP DUP2 SWAP1 POP SWAP4 SWAP3 POP POP POP JUMP JUMPDEST PUSH1 0x0 PUSH2 0x1C7E DUP3 PUSH2 0x1BAA JUMP JUMPDEST SWAP2 POP PUSH2 0x1C8A DUP3 DUP5 PUSH2 0x1C22 JUMP JUMPDEST PUSH1 0x20 DUP3 ADD SWAP2 POP DUP2 SWAP1 POP SWAP3 SWAP2 POP POP JUMP JUMPDEST PUSH1 0x0 PUSH1 0x20 DUP3 ADD SWAP1 POP PUSH2 0x1CAE PUSH1 0x0 DUP4 ADD DUP5 PUSH2 0x1A50 JUMP JUMPDEST SWAP3 SWAP2 POP POP JUMP JUMPDEST PUSH1 0x0 PUSH1 0x20 DUP3 ADD SWAP1 POP PUSH2 0x1CC9 PUSH1 0x0 DUP4 ADD DUP5 PUSH2 0x1A5F JUMP JUMPDEST SWAP3 SWAP2 POP POP JUMP JUMPDEST PUSH1 0x0 PUSH1 0x20 DUP3 ADD SWAP1 POP DUP2 DUP2 SUB PUSH1 0x0 DUP4 ADD MSTORE PUSH2 0x1CE9 DUP2 DUP5 PUSH2 0x1A6E JUMP JUMPDEST SWAP1 POP SWAP3 SWAP2 POP POP JUMP JUMPDEST PUSH1 0x0 PUSH1 0x20 DUP3 ADD SWAP1 POP DUP2 DUP2 SUB PUSH1 0x0 DUP4 ADD MSTORE PUSH2 0x1D0A DUP2 PUSH2 0x1AD8 JUMP JUMPDEST SWAP1 POP SWAP2 SWAP1 POP JUMP JUMPDEST PUSH1 0x0 PUSH1 0x20 DUP3 ADD SWAP1 POP DUP2 DUP2 SUB PUSH1 0x0 DUP4 ADD MSTORE PUSH2 0x1D2A DUP2 PUSH2 0x1AFB JUMP JUMPDEST SWAP1 POP SWAP2 SWAP1 POP JUMP JUMPDEST PUSH1 0x0 PUSH1 0x20 DUP3 ADD SWAP1 POP DUP2 DUP2 SUB PUSH1 0x0 DUP4 ADD MSTORE PUSH2 0x1D4A DUP2 PUSH2 0x1B1E JUMP JUMPDEST SWAP1 POP SWAP2 SWAP1 POP JUMP JUMPDEST PUSH1 0x0 PUSH1 0x20 DUP3 ADD SWAP1 POP DUP2 DUP2 SUB PUSH1 0x0 DUP4 ADD MSTORE PUSH2 0x1D6A DUP2 PUSH2 0x1B41 JUMP JUMPDEST SWAP1 POP SWAP2 SWAP1 POP JUMP JUMPDEST PUSH1 0x0 PUSH1 0x20 DUP3 ADD SWAP1 POP DUP2 DUP2 SUB PUSH1 0x0 DUP4 ADD MSTORE PUSH2 0x1D8A DUP2 PUSH2 0x1B64 JUMP JUMPDEST SWAP1 POP SWAP2 SWAP1 POP JUMP JUMPDEST PUSH1 0x0 PUSH1 0x20 DUP3 ADD SWAP1 POP DUP2 DUP2 SUB PUSH1 0x0 DUP4 ADD MSTORE PUSH2 0x1DAA DUP2 PUSH2 0x1BF0 JUMP JUMPDEST SWAP1 POP SWAP2 SWAP1 POP JUMP JUMPDEST PUSH1 0x0 PUSH1 0x20 DUP3 ADD SWAP1 POP PUSH2 0x1DC6 PUSH1 0x0 DUP4 ADD DUP5 PUSH2 0x1C13 JUMP JUMPDEST SWAP3 SWAP2 POP POP JUMP JUMPDEST PUSH1 0x0 DUP2 MLOAD SWAP1 POP SWAP2 SWAP1 POP JUMP JUMPDEST PUSH1 0x0 DUP3 DUP3 MSTORE PUSH1 0x20 DUP3 ADD SWAP1 POP SWAP3 SWAP2 POP POP JUMP JUMPDEST PUSH1 0x0 DUP2 SWAP1 POP SWAP3 SWAP2 POP POP JUMP JUMPDEST PUSH1 0x0 PUSH2 0x1DFE DUP3 PUSH2 0x1F4B JUMP JUMPDEST SWAP2 POP PUSH2 0x1E09 DUP4 PUSH2 0x1F4B JUMP JUMPDEST SWAP3 POP DUP3 PUSH32 0xFFFFFFFFFFFFFFFFFFFFFFFFFFFFFFFFFFFFFFFFFFFFFFFFFFFFFFFFFFFFFFFF SUB DUP3 GT ISZERO PUSH2 0x1E3E JUMPI PUSH2 0x1E3D PUSH2 0x2005 JUMP JUMPDEST JUMPDEST DUP3 DUP3 ADD SWAP1 POP SWAP3 SWAP2 POP POP JUMP JUMPDEST PUSH1 0x0 PUSH2 0x1E54 DUP3 PUSH2 0x1F4B JUMP JUMPDEST SWAP2 POP PUSH2 0x1E5F DUP4 PUSH2 0x1F4B JUMP JUMPDEST SWAP3 POP DUP2 PUSH32 0xFFFFFFFFFFFFFFFFFFFFFFFFFFFFFFFFFFFFFFFFFFFFFFFFFFFFFFFFFFFFFFFF DIV DUP4 GT DUP3 ISZERO ISZERO AND ISZERO PUSH2 0x1E98 JUMPI PUSH2 0x1E97 PUSH2 0x2005 JUMP JUMPDEST JUMPDEST DUP3 DUP3 MUL SWAP1 POP SWAP3 SWAP2 POP POP JUMP JUMPDEST PUSH1 0x0 PUSH2 0x1EAE DUP3 PUSH2 0x1F4B JUMP JUMPDEST SWAP2 POP PUSH2 0x1EB9 DUP4 PUSH2 0x1F4B JUMP JUMPDEST SWAP3 POP DUP3 DUP3 LT ISZERO PUSH2 0x1ECC JUMPI PUSH2 0x1ECB PUSH2 0x2005 JUMP JUMPDEST JUMPDEST DUP3 DUP3 SUB SWAP1 POP SWAP3 SWAP2 POP POP JUMP JUMPDEST PUSH1 0x0 PUSH2 0x1EE2 DUP3 PUSH2 0x1F2B JUMP JUMPDEST SWAP1 POP SWAP2 SWAP1 POP JUMP JUMPDEST PUSH1 0x0 DUP2 ISZERO ISZERO SWAP1 POP SWAP2 SWAP1 POP JUMP JUMPDEST PUSH1 0x0 DUP2 SWAP1 POP SWAP2 SWAP1 POP JUMP JUMPDEST PUSH1 0x0 PUSH32 0xFFFFFFFF00000000000000000000000000000000000000000000000000000000 DUP3 AND SWAP1 POP SWAP2 SWAP1 POP JUMP JUMPDEST PUSH1 0x0 PUSH20 0xFFFFFFFFFFFFFFFFFFFFFFFFFFFFFFFFFFFFFFFF DUP3 AND SWAP1 POP SWAP2 SWAP1 POP JUMP JUMPDEST PUSH1 0x0 DUP2 SWAP1 POP SWAP2 SWAP1 POP JUMP JUMPDEST PUSH1 0x0 JUMPDEST DUP4 DUP2 LT ISZERO PUSH2 0x1F73 JUMPI DUP1 DUP3 ADD MLOAD DUP2 DUP5 ADD MSTORE PUSH1 0x20 DUP2 ADD SWAP1 POP PUSH2 0x1F58 JUMP JUMPDEST DUP4 DUP2 GT ISZERO PUSH2 0x1F82 JUMPI PUSH1 0x0 DUP5 DUP5 ADD MSTORE JUMPDEST POP POP POP POP JUMP JUMPDEST PUSH1 0x0 PUSH2 0x1F93 DUP3 PUSH2 0x1F4B JUMP JUMPDEST SWAP2 POP PUSH1 0x0 DUP3 EQ ISZERO PUSH2 0x1FA7 JUMPI PUSH2 0x1FA6 PUSH2 0x2005 JUMP JUMPDEST JUMPDEST PUSH1 0x1 DUP3 SUB SWAP1 POP SWAP2 SWAP1 POP JUMP JUMPDEST PUSH1 0x0 PUSH2 0x1FBD DUP3 PUSH2 0x1F4B JUMP JUMPDEST SWAP2 POP PUSH32 0xFFFFFFFFFFFFFFFFFFFFFFFFFFFFFFFFFFFFFFFFFFFFFFFFFFFFFFFFFFFFFFFF DUP3 EQ ISZERO PUSH2 0x1FF0 JUMPI PUSH2 0x1FEF PUSH2 0x2005 JUMP JUMPDEST JUMPDEST PUSH1 0x1 DUP3 ADD SWAP1 POP SWAP2 SWAP1 POP JUMP JUMPDEST PUSH1 0x0 DUP2 SWAP1 POP SWAP2 SWAP1 POP JUMP JUMPDEST PUSH32 0x4E487B7100000000000000000000000000000000000000000000000000000000 PUSH1 0x0 MSTORE PUSH1 0x11 PUSH1 0x4 MSTORE PUSH1 0x24 PUSH1 0x0 REVERT JUMPDEST PUSH1 0x0 PUSH1 0x1F NOT PUSH1 0x1F DUP4 ADD AND SWAP1 POP SWAP2 SWAP1 POP JUMP JUMPDEST PUSH32 0x537472696E67733A20686578206C656E67746820696E73756666696369656E74 PUSH1 0x0 DUP3 ADD MSTORE POP JUMP JUMPDEST PUSH32 0x53656E646572206973206E6F742041646472657373204D616E61676572206F72 PUSH1 0x0 DUP3 ADD MSTORE PUSH32 0x2041646D696E0000000000000000000000000000000000000000000000000000 PUSH1 0x20 DUP3 ADD MSTORE POP JUMP JUMPDEST PUSH32 0x53656E646572206973206E6F7420436F75706F6E204D616E61676572206F7220 PUSH1 0x0 DUP3 ADD MSTORE PUSH32 0x41646D696E000000000000000000000000000000000000000000000000000000 PUSH1 0x20 DUP3 ADD MSTORE POP JUMP JUMPDEST PUSH32 0x53656E646572206973206E6F7420417070726F76656420526F6C653A20416464 PUSH1 0x0 DUP3 ADD MSTORE PUSH32 0x72657373204D616E616765722C20436F75706F6E204D616E616765722C20436F PUSH1 0x20 DUP3 ADD MSTORE PUSH32 0x75706F6E20557365722C206F722041646D696E00000000000000000000000000 PUSH1 0x40 DUP3 ADD MSTORE POP JUMP JUMPDEST PUSH32 0x53656E646572206973206E6F7420436F75706F6E204D616E616765722C20436F PUSH1 0x0 DUP3 ADD MSTORE PUSH32 0x75706F6E20557365722C206F722041646D696E00000000000000000000000000 PUSH1 0x20 DUP3 ADD MSTORE POP JUMP JUMPDEST PUSH32 0x416363657373436F6E74726F6C3A206163636F756E7420000000000000000000 PUSH1 0x0 DUP3 ADD MSTORE POP JUMP JUMPDEST PUSH32 0x43616E6E6F742072656475636520636F75706F6E2075736573206279206D6F72 PUSH1 0x0 DUP3 ADD MSTORE PUSH32 0x65207468616E20746865206E756D626572206F66207573657320666F72207468 PUSH1 0x20 DUP3 ADD MSTORE PUSH32 0x697320636F75706F6E3A20000000000000000000000000000000000000000000 PUSH1 0x40 DUP3 ADD MSTORE POP JUMP JUMPDEST PUSH32 0x206973206D697373696E6720726F6C6520000000000000000000000000000000 PUSH1 0x0 DUP3 ADD MSTORE POP JUMP JUMPDEST PUSH32 0x416363657373436F6E74726F6C3A2063616E206F6E6C792072656E6F756E6365 PUSH1 0x0 DUP3 ADD MSTORE PUSH32 0x20726F6C657320666F722073656C660000000000000000000000000000000000 PUSH1 0x20 DUP3 ADD MSTORE POP JUMP JUMPDEST PUSH2 0x22EF DUP2 PUSH2 0x1ED7 JUMP JUMPDEST DUP2 EQ PUSH2 0x22FA JUMPI PUSH1 0x0 DUP1 REVERT JUMPDEST POP JUMP JUMPDEST PUSH2 0x2306 DUP2 PUSH2 0x1EF5 JUMP JUMPDEST DUP2 EQ PUSH2 0x2311 JUMPI PUSH1 0x0 DUP1 REVERT JUMPDEST POP JUMP JUMPDEST PUSH2 0x231D DUP2 PUSH2 0x1EFF JUMP JUMPDEST DUP2 EQ PUSH2 0x2328 JUMPI PUSH1 0x0 DUP1 REVERT JUMPDEST POP JUMP JUMPDEST PUSH2 0x2334 DUP2 PUSH2 0x1F4B JUMP JUMPDEST DUP2 EQ PUSH2 0x233F JUMPI PUSH1 0x0 DUP1 REVERT JUMPDEST POP JUMP INVALID LOG2 PUSH5 0x6970667358 0x22 SLT KECCAK256 0x28 0xC7 SGT 0xBA PUSH6 0x91844D926714 SWAP4 PUSH24 0xFC8FA2F70A02D259A9D1E78E9797245B665C264736F6C63 NUMBER STOP ADDMOD ADD STOP CALLER "
		},
		"gasEstimates": {
			"creation": {
				"codeDepositCost": "1816000",
				"executionCost": "1912",
				"totalCost": "1817912"
			},
			"external": {
				"ADDRESS_MANAGER_ROLE()": "462",
				"COUPON_MANAGER_ROLE()": "418",
				"COUPON_USER_ROLE()": "419",
				"DEFAULT_ADMIN_ROLE()": "402",
				"addAddress(address)": "infinite",
				"addCoupon(address,uint256,uint256)": "infinite",
				"addressExists(address)": "1713",
				"addressHasCoupon(address)": "2624",
				"addressHasCoupon(address,uint256)": "infinite",
				"addressList()": "1187",
				"couponListLength(address)": "2503",
				"getRoleAdmin(bytes32)": "infinite",
				"grantRole(bytes32,address)": "infinite",
				"hasRole(bytes32,address)": "1885",
				"idOf(address)": "1635",
				"reduceCouponUses(address,uint256,uint256)": "infinite",
				"removeAddress(address)": "infinite",
				"removeCoupon(address,uint256)": "infinite",
				"renounceRole(bytes32,address)": "infinite",
				"revokeRole(bytes32,address)": "infinite",
				"supportsInterface(bytes4)": "751",
				"useCoupon(address,uint256)": "infinite"
			},
			"internal": {
				"_initList()": "infinite",
				"_reduceCouponUses(address,uint256,uint256)": "infinite"
			}
		},
		"methodIdentifiers": {
			"ADDRESS_MANAGER_ROLE()": "5c3ed7ec",
			"COUPON_MANAGER_ROLE()": "a41dd6e6",
			"COUPON_USER_ROLE()": "263d336c",
			"DEFAULT_ADMIN_ROLE()": "a217fddf",
			"addAddress(address)": "38eada1c",
			"addCoupon(address,uint256,uint256)": "3edfcd2c",
			"addressExists(address)": "a5025222",
			"addressHasCoupon(address)": "f76da2a8",
			"addressHasCoupon(address,uint256)": "2080179d",
			"addressList()": "c1eb6dfd",
			"couponListLength(address)": "838324d9",
			"getRoleAdmin(bytes32)": "248a9ca3",
			"grantRole(bytes32,address)": "2f2ff15d",
			"hasRole(bytes32,address)": "91d14854",
			"idOf(address)": "d94fe832",
			"reduceCouponUses(address,uint256,uint256)": "c18ab7a2",
			"removeAddress(address)": "4ba79dfe",
			"removeCoupon(address,uint256)": "e5bf7ffc",
			"renounceRole(bytes32,address)": "36568abe",
			"revokeRole(bytes32,address)": "d547741f",
			"supportsInterface(bytes4)": "01ffc9a7",
			"useCoupon(address,uint256)": "3c25c06b"
		}
	},
	"abi": [
		{
			"anonymous": false,
			"inputs": [
				{
					"indexed": true,
					"internalType": "bytes32",
					"name": "role",
					"type": "bytes32"
				},
				{
					"indexed": true,
					"internalType": "bytes32",
					"name": "previousAdminRole",
					"type": "bytes32"
				},
				{
					"indexed": true,
					"internalType": "bytes32",
					"name": "newAdminRole",
					"type": "bytes32"
				}
			],
			"name": "RoleAdminChanged",
			"type": "event"
		},
		{
			"anonymous": false,
			"inputs": [
				{
					"indexed": true,
					"internalType": "bytes32",
					"name": "role",
					"type": "bytes32"
				},
				{
					"indexed": true,
					"internalType": "address",
					"name": "account",
					"type": "address"
				},
				{
					"indexed": true,
					"internalType": "address",
					"name": "sender",
					"type": "address"
				}
			],
			"name": "RoleGranted",
			"type": "event"
		},
		{
			"anonymous": false,
			"inputs": [
				{
					"indexed": true,
					"internalType": "bytes32",
					"name": "role",
					"type": "bytes32"
				},
				{
					"indexed": true,
					"internalType": "address",
					"name": "account",
					"type": "address"
				},
				{
					"indexed": true,
					"internalType": "address",
					"name": "sender",
					"type": "address"
				}
			],
			"name": "RoleRevoked",
			"type": "event"
		},
		{
			"inputs": [],
			"name": "ADDRESS_MANAGER_ROLE",
			"outputs": [
				{
					"internalType": "bytes32",
					"name": "",
					"type": "bytes32"
				}
			],
			"stateMutability": "view",
			"type": "function"
		},
		{
			"inputs": [],
			"name": "COUPON_MANAGER_ROLE",
			"outputs": [
				{
					"internalType": "bytes32",
					"name": "",
					"type": "bytes32"
				}
			],
			"stateMutability": "view",
			"type": "function"
		},
		{
			"inputs": [],
			"name": "COUPON_USER_ROLE",
			"outputs": [
				{
					"internalType": "bytes32",
					"name": "",
					"type": "bytes32"
				}
			],
			"stateMutability": "view",
			"type": "function"
		},
		{
			"inputs": [],
			"name": "DEFAULT_ADMIN_ROLE",
			"outputs": [
				{
					"internalType": "bytes32",
					"name": "",
					"type": "bytes32"
				}
			],
			"stateMutability": "view",
			"type": "function"
		},
		{
			"inputs": [
				{
					"internalType": "address",
					"name": "address_",
					"type": "address"
				}
			],
			"name": "addAddress",
			"outputs": [],
			"stateMutability": "nonpayable",
			"type": "function"
		},
		{
			"inputs": [
				{
					"internalType": "address",
					"name": "address_",
					"type": "address"
				},
				{
					"internalType": "uint256",
					"name": "discountRate",
					"type": "uint256"
				},
				{
					"internalType": "uint256",
					"name": "numberOfUses",
					"type": "uint256"
				}
			],
			"name": "addCoupon",
			"outputs": [],
			"stateMutability": "nonpayable",
			"type": "function"
		},
		{
			"inputs": [
				{
					"internalType": "address",
					"name": "address_",
					"type": "address"
				}
			],
			"name": "addressExists",
			"outputs": [
				{
					"internalType": "bool",
					"name": "",
					"type": "bool"
				}
			],
			"stateMutability": "view",
			"type": "function"
		},
		{
			"inputs": [
				{
					"internalType": "address",
					"name": "address_",
					"type": "address"
				},
				{
					"internalType": "uint256",
					"name": "discountRate",
					"type": "uint256"
				}
			],
			"name": "addressHasCoupon",
			"outputs": [
				{
					"internalType": "bool",
					"name": "",
					"type": "bool"
				}
			],
			"stateMutability": "view",
			"type": "function"
		},
		{
			"inputs": [
				{
					"internalType": "address",
					"name": "address_",
					"type": "address"
				}
			],
			"name": "addressHasCoupon",
			"outputs": [
				{
					"internalType": "bool",
					"name": "",
					"type": "bool"
				}
			],
			"stateMutability": "view",
			"type": "function"
		},
		{
			"inputs": [],
			"name": "addressList",
			"outputs": [
				{
					"internalType": "uint256",
					"name": "length",
					"type": "uint256"
				}
			],
			"stateMutability": "view",
			"type": "function"
		},
		{
			"inputs": [
				{
					"internalType": "address",
					"name": "address_",
					"type": "address"
				}
			],
			"name": "couponListLength",
			"outputs": [
				{
					"internalType": "uint256",
					"name": "",
					"type": "uint256"
				}
			],
			"stateMutability": "view",
			"type": "function"
		},
		{
			"inputs": [
				{
					"internalType": "bytes32",
					"name": "role",
					"type": "bytes32"
				}
			],
			"name": "getRoleAdmin",
			"outputs": [
				{
					"internalType": "bytes32",
					"name": "",
					"type": "bytes32"
				}
			],
			"stateMutability": "view",
			"type": "function"
		},
		{
			"inputs": [
				{
					"internalType": "bytes32",
					"name": "role",
					"type": "bytes32"
				},
				{
					"internalType": "address",
					"name": "account",
					"type": "address"
				}
			],
			"name": "grantRole",
			"outputs": [],
			"stateMutability": "nonpayable",
			"type": "function"
		},
		{
			"inputs": [
				{
					"internalType": "bytes32",
					"name": "role",
					"type": "bytes32"
				},
				{
					"internalType": "address",
					"name": "account",
					"type": "address"
				}
			],
			"name": "hasRole",
			"outputs": [
				{
					"internalType": "bool",
					"name": "",
					"type": "bool"
				}
			],
			"stateMutability": "view",
			"type": "function"
		},
		{
			"inputs": [
				{
					"internalType": "address",
					"name": "address_",
					"type": "address"
				}
			],
			"name": "idOf",
			"outputs": [
				{
					"internalType": "uint256",
					"name": "",
					"type": "uint256"
				}
			],
			"stateMutability": "view",
			"type": "function"
		},
		{
			"inputs": [
				{
					"internalType": "address",
					"name": "address_",
					"type": "address"
				},
				{
					"internalType": "uint256",
					"name": "discountRate",
					"type": "uint256"
				},
				{
					"internalType": "uint256",
					"name": "numberOfUses",
					"type": "uint256"
				}
			],
			"name": "reduceCouponUses",
			"outputs": [],
			"stateMutability": "nonpayable",
			"type": "function"
		},
		{
			"inputs": [
				{
					"internalType": "address",
					"name": "address_",
					"type": "address"
				}
			],
			"name": "removeAddress",
			"outputs": [],
			"stateMutability": "nonpayable",
			"type": "function"
		},
		{
			"inputs": [
				{
					"internalType": "address",
					"name": "address_",
					"type": "address"
				},
				{
					"internalType": "uint256",
					"name": "id",
					"type": "uint256"
				}
			],
			"name": "removeCoupon",
			"outputs": [],
			"stateMutability": "nonpayable",
			"type": "function"
		},
		{
			"inputs": [
				{
					"internalType": "bytes32",
					"name": "role",
					"type": "bytes32"
				},
				{
					"internalType": "address",
					"name": "account",
					"type": "address"
				}
			],
			"name": "renounceRole",
			"outputs": [],
			"stateMutability": "nonpayable",
			"type": "function"
		},
		{
			"inputs": [
				{
					"internalType": "bytes32",
					"name": "role",
					"type": "bytes32"
				},
				{
					"internalType": "address",
					"name": "account",
					"type": "address"
				}
			],
			"name": "revokeRole",
			"outputs": [],
			"stateMutability": "nonpayable",
			"type": "function"
		},
		{
			"inputs": [
				{
					"internalType": "bytes4",
					"name": "interfaceId",
					"type": "bytes4"
				}
			],
			"name": "supportsInterface",
			"outputs": [
				{
					"internalType": "bool",
					"name": "",
					"type": "bool"
				}
			],
			"stateMutability": "view",
			"type": "function"
		},
		{
			"inputs": [
				{
					"internalType": "address",
					"name": "address_",
					"type": "address"
				},
				{
					"internalType": "uint256",
					"name": "discountRate",
					"type": "uint256"
				}
			],
			"name": "useCoupon",
			"outputs": [],
			"stateMutability": "nonpayable",
			"type": "function"
		}
	]
}