{
	"data": {
		"bytecode": {
			"linkReferences": {},
			"object": "608060405234801561001057600080fd5b5061002d61002261003260201b60201c565b61003a60201b60201c565b6100fe565b600033905090565b60008060009054906101000a900473ffffffffffffffffffffffffffffffffffffffff169050816000806101000a81548173ffffffffffffffffffffffffffffffffffffffff021916908373ffffffffffffffffffffffffffffffffffffffff1602179055508173ffffffffffffffffffffffffffffffffffffffff168173ffffffffffffffffffffffffffffffffffffffff167f8be0079c531659141344cd1fd0a4f28419497f9722a3daafe3b4186f6b6457e060405160405180910390a35050565b6115c48061010d6000396000f3fe608060405234801561001057600080fd5b50600436106100f55760003560e01c80638da5cb5b11610097578063d94fe83211610066578063d94fe8321461025c578063e5bf7ffc1461028c578063f2fde38b146102a8578063f76da2a8146102c4576100f5565b80638da5cb5b146101d4578063a5025222146101f2578063c18ab7a214610222578063c1eb6dfd1461023e576100f5565b80633edfcd2c116100d35780633edfcd2c146101625780634ba79dfe1461017e578063715018a61461019a578063838324d9146101a4576100f5565b80632080179d146100fa57806338eada1c1461012a5780633c25c06b14610146575b600080fd5b610114600480360381019061010f9190611096565b6102f4565b6040516101219190611248565b60405180910390f35b610144600480360381019061013f919061106d565b610372565b005b610160600480360381019061015b9190611096565b6104b1565b005b61017c600480360381019061017791906110d2565b61053d565b005b6101986004803603810190610193919061106d565b610690565b005b6101a2610919565b005b6101be60048036038101906101b9919061106d565b6109a1565b6040516101cb91906112c5565b60405180910390f35b6101dc6109cc565b6040516101e9919061122d565b60405180910390f35b61020c6004803603810190610207919061106d565b6109f5565b6040516102199190611248565b60405180910390f35b61023c600480360381019061023791906110d2565b610a09565b005b610246610afe565b60405161025391906112c5565b60405180910390f35b6102766004803603810190610271919061106d565b610b0a565b60405161028391906112c5565b60405180910390f35b6102a660048036038101906102a19190611096565b610b56565b005b6102c260048036038101906102bd919061106d565b610cdd565b005b6102de60048036038101906102d9919061106d565b610dd5565b6040516102eb9190611248565b60405180910390f35b600080600090505b610305846109a1565b81101561036657826001600301600061031d87610b0a565b8152602001908152602001600020600101600083815260200190815260200160002060000154141561035357600191505061036c565b808061035e906113e0565b9150506102fc565b50600090505b92915050565b61037a610e02565b73ffffffffffffffffffffffffffffffffffffffff166103986109cc565b73ffffffffffffffffffffffffffffffffffffffff16146103ee576040517f08c379a00000000000000000000000000000000000000000000000000000000081526004016103e5906112a5565b60405180910390fd5b60016000016000815480929190610404906113e0565b919050555080600180016000600160000154815260200190815260200160002060006101000a81548173ffffffffffffffffffffffffffffffffffffffff021916908373ffffffffffffffffffffffffffffffffffffffff160217905550600160000154600160020160008373ffffffffffffffffffffffffffffffffffffffff1673ffffffffffffffffffffffffffffffffffffffff1681526020019081526020016000208190555050565b6104b9610e02565b73ffffffffffffffffffffffffffffffffffffffff166104d76109cc565b73ffffffffffffffffffffffffffffffffffffffff161461052d576040517f08c379a0000000000000000000000000000000000000000000000000000000008152600401610524906112a5565b60405180910390fd5b61053982826001610a09565b5050565b610545610e02565b73ffffffffffffffffffffffffffffffffffffffff166105636109cc565b73ffffffffffffffffffffffffffffffffffffffff16146105b9576040517f08c379a00000000000000000000000000000000000000000000000000000000081526004016105b0906112a5565b60405180910390fd5b6105c2836109f5565b6105d0576105cf83610372565b5b600160030160006105e085610b0a565b81526020019081526020016000206000016000815480929190610602906113e0565b9190505550816001600301600061061886610b0a565b81526020019081526020016000206001016000610634866109a1565b815260200190815260200160002060000181905550806001600301600061065a86610b0a565b81526020019081526020016000206001016000610676866109a1565b815260200190815260200160002060010181905550505050565b610698610e02565b73ffffffffffffffffffffffffffffffffffffffff166106b66109cc565b73ffffffffffffffffffffffffffffffffffffffff161461070c576040517f08c379a0000000000000000000000000000000000000000000000000000000008152600401610703906112a5565b60405180910390fd5b600061071782610b0a565b90506000829050600060016000015490506000600180016000600160000154815260200190815260200160002060009054906101000a900473ffffffffffffffffffffffffffffffffffffffff16905060018001600083815260200190815260200160002060009054906101000a900473ffffffffffffffffffffffffffffffffffffffff1660018001600086815260200190815260200160002060006101000a81548173ffffffffffffffffffffffffffffffffffffffff021916908373ffffffffffffffffffffffffffffffffffffffff16021790555060018001600083815260200190815260200160002060006101000a81549073ffffffffffffffffffffffffffffffffffffffff0219169055600160020160008273ffffffffffffffffffffffffffffffffffffffff1673ffffffffffffffffffffffffffffffffffffffff16815260200190815260200160002054600160020160008573ffffffffffffffffffffffffffffffffffffffff1673ffffffffffffffffffffffffffffffffffffffff16815260200190815260200160002081905550600160020160008273ffffffffffffffffffffffffffffffffffffffff1673ffffffffffffffffffffffffffffffffffffffff168152602001908152602001600020600090556001600001600081548092919061090d906113b6565b91905055505050505050565b610921610e02565b73ffffffffffffffffffffffffffffffffffffffff1661093f6109cc565b73ffffffffffffffffffffffffffffffffffffffff1614610995576040517f08c379a000000000000000000000000000000000000000000000000000000000815260040161098c906112a5565b60405180910390fd5b61099f6000610e0a565b565b6000600160030160006109b384610b0a565b8152602001908152602001600020600001549050919050565b60008060009054906101000a900473ffffffffffffffffffffffffffffffffffffffff16905090565b600080610a0183610b0a565b149050919050565b610a11610e02565b73ffffffffffffffffffffffffffffffffffffffff16610a2f6109cc565b73ffffffffffffffffffffffffffffffffffffffff1614610a85576040517f08c379a0000000000000000000000000000000000000000000000000000000008152600401610a7c906112a5565b60405180910390fd5b60005b610a91846109a1565b811015610af8578260016003016000610aa987610b0a565b81526020019081526020016000206001016000838152602001908152602001600020600001541415610ae557610ae0848284610ece565b610af8565b8080610af0906113e0565b915050610a88565b50505050565b60018060000154905081565b6000600160020160008373ffffffffffffffffffffffffffffffffffffffff1673ffffffffffffffffffffffffffffffffffffffff168152602001908152602001600020549050919050565b610b5e610e02565b73ffffffffffffffffffffffffffffffffffffffff16610b7c6109cc565b73ffffffffffffffffffffffffffffffffffffffff1614610bd2576040517f08c379a0000000000000000000000000000000000000000000000000000000008152600401610bc9906112a5565b60405180910390fd5b60016003016000610be284610b0a565b81526020019081526020016000206001016000610bfe846109a1565b815260200190815260200160002060016003016000610c1c85610b0a565b81526020019081526020016000206001016000838152602001908152602001600020600082015481600001556001820154816001015590505060016003016000610c6584610b0a565b81526020019081526020016000206001016000610c81846109a1565b81526020019081526020016000206000808201600090556001820160009055505060016003016000610cb284610b0a565b81526020019081526020016000206000016000815480929190610cd4906113b6565b91905055505050565b610ce5610e02565b73ffffffffffffffffffffffffffffffffffffffff16610d036109cc565b73ffffffffffffffffffffffffffffffffffffffff1614610d59576040517f08c379a0000000000000000000000000000000000000000000000000000000008152600401610d50906112a5565b60405180910390fd5b600073ffffffffffffffffffffffffffffffffffffffff168173ffffffffffffffffffffffffffffffffffffffff161415610dc9576040517f08c379a0000000000000000000000000000000000000000000000000000000008152600401610dc090611285565b60405180910390fd5b610dd281610e0a565b50565b60008060016003016000610de885610b0a565b815260200190815260200160002060000154149050919050565b600033905090565b60008060009054906101000a900473ffffffffffffffffffffffffffffffffffffffff169050816000806101000a81548173ffffffffffffffffffffffffffffffffffffffff021916908373ffffffffffffffffffffffffffffffffffffffff1602179055508173ffffffffffffffffffffffffffffffffffffffff168173ffffffffffffffffffffffffffffffffffffffff167f8be0079c531659141344cd1fd0a4f28419497f9722a3daafe3b4186f6b6457e060405160405180910390a35050565b60008160016003016000610ee187610b0a565b815260200190815260200160002060010160008581526020019081526020016000206001015410159050600060016003016000610f1d87610b0a565b8152602001908152602001600020600101600085815260200190815260200160002060010154604051602001610f539190611207565b6040516020818303038152906040529050818190610fa7576040517f08c379a0000000000000000000000000000000000000000000000000000000008152600401610f9e9190611263565b60405180910390fd5b508260016003016000610fb988610b0a565b815260200190815260200160002060010160008681526020019081526020016000206001016000828254610fed9190611307565b9250508190555060006001600301600061100688610b0a565b81526020019081526020016000206001016000868152602001908152602001600020600101541161103c5761103b8585610b56565b5b5050505050565b60008135905061105281611560565b92915050565b60008135905061106781611577565b92915050565b60006020828403121561107f57600080fd5b600061108d84828501611043565b91505092915050565b600080604083850312156110a957600080fd5b60006110b785828601611043565b92505060206110c885828601611058565b9150509250929050565b6000806000606084860312156110e757600080fd5b60006110f586828701611043565b935050602061110686828701611058565b925050604061111786828701611058565b9150509250925092565b61112a8161133b565b82525050565b6111398161134d565b82525050565b600061114a826112e0565b61115481856112eb565b9350611164818560208601611383565b61116d81611462565b840191505092915050565b60006111856026836112eb565b915061119082611473565b604082019050919050565b60006111a86020836112eb565b91506111b3826114c2565b602082019050919050565b60006111cb604b836112fc565b91506111d6826114eb565b604b82019050919050565b6111ea81611379565b82525050565b6112016111fc82611379565b611429565b82525050565b6000611212826111be565b915061121e82846111f0565b60208201915081905092915050565b60006020820190506112426000830184611121565b92915050565b600060208201905061125d6000830184611130565b92915050565b6000602082019050818103600083015261127d818461113f565b905092915050565b6000602082019050818103600083015261129e81611178565b9050919050565b600060208201905081810360008301526112be8161119b565b9050919050565b60006020820190506112da60008301846111e1565b92915050565b600081519050919050565b600082825260208201905092915050565b600081905092915050565b600061131282611379565b915061131d83611379565b9250828210156113305761132f611433565b5b828203905092915050565b600061134682611359565b9050919050565b60008115159050919050565b600073ffffffffffffffffffffffffffffffffffffffff82169050919050565b6000819050919050565b60005b838110156113a1578082015181840152602081019050611386565b838111156113b0576000848401525b50505050565b60006113c182611379565b915060008214156113d5576113d4611433565b5b600182039050919050565b60006113eb82611379565b91507fffffffffffffffffffffffffffffffffffffffffffffffffffffffffffffffff82141561141e5761141d611433565b5b600182019050919050565b6000819050919050565b7f4e487b7100000000000000000000000000000000000000000000000000000000600052601160045260246000fd5b6000601f19601f8301169050919050565b7f4f776e61626c653a206e6577206f776e657220697320746865207a65726f206160008201527f6464726573730000000000000000000000000000000000000000000000000000602082015250565b7f4f776e61626c653a2063616c6c6572206973206e6f7420746865206f776e6572600082015250565b7f43616e6e6f742072656475636520636f75706f6e2075736573206279206d6f7260008201527f65207468616e20746865206e756d626572206f66207573657320666f7220746860208201527f697320636f75706f6e3a20000000000000000000000000000000000000000000604082015250565b6115698161133b565b811461157457600080fd5b50565b61158081611379565b811461158b57600080fd5b5056fea26469706673582212203106cd074c0435e92ef7098fbc5148ad780bf8cc13f3617b86990f0af7a6e55164736f6c63430008010033",
			"opcodes": "PUSH1 0x80 PUSH1 0x40 MSTORE CALLVALUE DUP1 ISZERO PUSH2 0x10 JUMPI PUSH1 0x0 DUP1 REVERT JUMPDEST POP PUSH2 0x2D PUSH2 0x22 PUSH2 0x32 PUSH1 0x20 SHL PUSH1 0x20 SHR JUMP JUMPDEST PUSH2 0x3A PUSH1 0x20 SHL PUSH1 0x20 SHR JUMP JUMPDEST PUSH2 0xFE JUMP JUMPDEST PUSH1 0x0 CALLER SWAP1 POP SWAP1 JUMP JUMPDEST PUSH1 0x0 DUP1 PUSH1 0x0 SWAP1 SLOAD SWAP1 PUSH2 0x100 EXP SWAP1 DIV PUSH20 0xFFFFFFFFFFFFFFFFFFFFFFFFFFFFFFFFFFFFFFFF AND SWAP1 POP DUP2 PUSH1 0x0 DUP1 PUSH2 0x100 EXP DUP2 SLOAD DUP2 PUSH20 0xFFFFFFFFFFFFFFFFFFFFFFFFFFFFFFFFFFFFFFFF MUL NOT AND SWAP1 DUP4 PUSH20 0xFFFFFFFFFFFFFFFFFFFFFFFFFFFFFFFFFFFFFFFF AND MUL OR SWAP1 SSTORE POP DUP2 PUSH20 0xFFFFFFFFFFFFFFFFFFFFFFFFFFFFFFFFFFFFFFFF AND DUP2 PUSH20 0xFFFFFFFFFFFFFFFFFFFFFFFFFFFFFFFFFFFFFFFF AND PUSH32 0x8BE0079C531659141344CD1FD0A4F28419497F9722A3DAAFE3B4186F6B6457E0 PUSH1 0x40 MLOAD PUSH1 0x40 MLOAD DUP1 SWAP2 SUB SWAP1 LOG3 POP POP JUMP JUMPDEST PUSH2 0x15C4 DUP1 PUSH2 0x10D PUSH1 0x0 CODECOPY PUSH1 0x0 RETURN INVALID PUSH1 0x80 PUSH1 0x40 MSTORE CALLVALUE DUP1 ISZERO PUSH2 0x10 JUMPI PUSH1 0x0 DUP1 REVERT JUMPDEST POP PUSH1 0x4 CALLDATASIZE LT PUSH2 0xF5 JUMPI PUSH1 0x0 CALLDATALOAD PUSH1 0xE0 SHR DUP1 PUSH4 0x8DA5CB5B GT PUSH2 0x97 JUMPI DUP1 PUSH4 0xD94FE832 GT PUSH2 0x66 JUMPI DUP1 PUSH4 0xD94FE832 EQ PUSH2 0x25C JUMPI DUP1 PUSH4 0xE5BF7FFC EQ PUSH2 0x28C JUMPI DUP1 PUSH4 0xF2FDE38B EQ PUSH2 0x2A8 JUMPI DUP1 PUSH4 0xF76DA2A8 EQ PUSH2 0x2C4 JUMPI PUSH2 0xF5 JUMP JUMPDEST DUP1 PUSH4 0x8DA5CB5B EQ PUSH2 0x1D4 JUMPI DUP1 PUSH4 0xA5025222 EQ PUSH2 0x1F2 JUMPI DUP1 PUSH4 0xC18AB7A2 EQ PUSH2 0x222 JUMPI DUP1 PUSH4 0xC1EB6DFD EQ PUSH2 0x23E JUMPI PUSH2 0xF5 JUMP JUMPDEST DUP1 PUSH4 0x3EDFCD2C GT PUSH2 0xD3 JUMPI DUP1 PUSH4 0x3EDFCD2C EQ PUSH2 0x162 JUMPI DUP1 PUSH4 0x4BA79DFE EQ PUSH2 0x17E JUMPI DUP1 PUSH4 0x715018A6 EQ PUSH2 0x19A JUMPI DUP1 PUSH4 0x838324D9 EQ PUSH2 0x1A4 JUMPI PUSH2 0xF5 JUMP JUMPDEST DUP1 PUSH4 0x2080179D EQ PUSH2 0xFA JUMPI DUP1 PUSH4 0x38EADA1C EQ PUSH2 0x12A JUMPI DUP1 PUSH4 0x3C25C06B EQ PUSH2 0x146 JUMPI JUMPDEST PUSH1 0x0 DUP1 REVERT JUMPDEST PUSH2 0x114 PUSH1 0x4 DUP1 CALLDATASIZE SUB DUP2 ADD SWAP1 PUSH2 0x10F SWAP2 SWAP1 PUSH2 0x1096 JUMP JUMPDEST PUSH2 0x2F4 JUMP JUMPDEST PUSH1 0x40 MLOAD PUSH2 0x121 SWAP2 SWAP1 PUSH2 0x1248 JUMP JUMPDEST PUSH1 0x40 MLOAD DUP1 SWAP2 SUB SWAP1 RETURN JUMPDEST PUSH2 0x144 PUSH1 0x4 DUP1 CALLDATASIZE SUB DUP2 ADD SWAP1 PUSH2 0x13F SWAP2 SWAP1 PUSH2 0x106D JUMP JUMPDEST PUSH2 0x372 JUMP JUMPDEST STOP JUMPDEST PUSH2 0x160 PUSH1 0x4 DUP1 CALLDATASIZE SUB DUP2 ADD SWAP1 PUSH2 0x15B SWAP2 SWAP1 PUSH2 0x1096 JUMP JUMPDEST PUSH2 0x4B1 JUMP JUMPDEST STOP JUMPDEST PUSH2 0x17C PUSH1 0x4 DUP1 CALLDATASIZE SUB DUP2 ADD SWAP1 PUSH2 0x177 SWAP2 SWAP1 PUSH2 0x10D2 JUMP JUMPDEST PUSH2 0x53D JUMP JUMPDEST STOP JUMPDEST PUSH2 0x198 PUSH1 0x4 DUP1 CALLDATASIZE SUB DUP2 ADD SWAP1 PUSH2 0x193 SWAP2 SWAP1 PUSH2 0x106D JUMP JUMPDEST PUSH2 0x690 JUMP JUMPDEST STOP JUMPDEST PUSH2 0x1A2 PUSH2 0x919 JUMP JUMPDEST STOP JUMPDEST PUSH2 0x1BE PUSH1 0x4 DUP1 CALLDATASIZE SUB DUP2 ADD SWAP1 PUSH2 0x1B9 SWAP2 SWAP1 PUSH2 0x106D JUMP JUMPDEST PUSH2 0x9A1 JUMP JUMPDEST PUSH1 0x40 MLOAD PUSH2 0x1CB SWAP2 SWAP1 PUSH2 0x12C5 JUMP JUMPDEST PUSH1 0x40 MLOAD DUP1 SWAP2 SUB SWAP1 RETURN JUMPDEST PUSH2 0x1DC PUSH2 0x9CC JUMP JUMPDEST PUSH1 0x40 MLOAD PUSH2 0x1E9 SWAP2 SWAP1 PUSH2 0x122D JUMP JUMPDEST PUSH1 0x40 MLOAD DUP1 SWAP2 SUB SWAP1 RETURN JUMPDEST PUSH2 0x20C PUSH1 0x4 DUP1 CALLDATASIZE SUB DUP2 ADD SWAP1 PUSH2 0x207 SWAP2 SWAP1 PUSH2 0x106D JUMP JUMPDEST PUSH2 0x9F5 JUMP JUMPDEST PUSH1 0x40 MLOAD PUSH2 0x219 SWAP2 SWAP1 PUSH2 0x1248 JUMP JUMPDEST PUSH1 0x40 MLOAD DUP1 SWAP2 SUB SWAP1 RETURN JUMPDEST PUSH2 0x23C PUSH1 0x4 DUP1 CALLDATASIZE SUB DUP2 ADD SWAP1 PUSH2 0x237 SWAP2 SWAP1 PUSH2 0x10D2 JUMP JUMPDEST PUSH2 0xA09 JUMP JUMPDEST STOP JUMPDEST PUSH2 0x246 PUSH2 0xAFE JUMP JUMPDEST PUSH1 0x40 MLOAD PUSH2 0x253 SWAP2 SWAP1 PUSH2 0x12C5 JUMP JUMPDEST PUSH1 0x40 MLOAD DUP1 SWAP2 SUB SWAP1 RETURN JUMPDEST PUSH2 0x276 PUSH1 0x4 DUP1 CALLDATASIZE SUB DUP2 ADD SWAP1 PUSH2 0x271 SWAP2 SWAP1 PUSH2 0x106D JUMP JUMPDEST PUSH2 0xB0A JUMP JUMPDEST PUSH1 0x40 MLOAD PUSH2 0x283 SWAP2 SWAP1 PUSH2 0x12C5 JUMP JUMPDEST PUSH1 0x40 MLOAD DUP1 SWAP2 SUB SWAP1 RETURN JUMPDEST PUSH2 0x2A6 PUSH1 0x4 DUP1 CALLDATASIZE SUB DUP2 ADD SWAP1 PUSH2 0x2A1 SWAP2 SWAP1 PUSH2 0x1096 JUMP JUMPDEST PUSH2 0xB56 JUMP JUMPDEST STOP JUMPDEST PUSH2 0x2C2 PUSH1 0x4 DUP1 CALLDATASIZE SUB DUP2 ADD SWAP1 PUSH2 0x2BD SWAP2 SWAP1 PUSH2 0x106D JUMP JUMPDEST PUSH2 0xCDD JUMP JUMPDEST STOP JUMPDEST PUSH2 0x2DE PUSH1 0x4 DUP1 CALLDATASIZE SUB DUP2 ADD SWAP1 PUSH2 0x2D9 SWAP2 SWAP1 PUSH2 0x106D JUMP JUMPDEST PUSH2 0xDD5 JUMP JUMPDEST PUSH1 0x40 MLOAD PUSH2 0x2EB SWAP2 SWAP1 PUSH2 0x1248 JUMP JUMPDEST PUSH1 0x40 MLOAD DUP1 SWAP2 SUB SWAP1 RETURN JUMPDEST PUSH1 0x0 DUP1 PUSH1 0x0 SWAP1 POP JUMPDEST PUSH2 0x305 DUP5 PUSH2 0x9A1 JUMP JUMPDEST DUP2 LT ISZERO PUSH2 0x366 JUMPI DUP3 PUSH1 0x1 PUSH1 0x3 ADD PUSH1 0x0 PUSH2 0x31D DUP8 PUSH2 0xB0A JUMP JUMPDEST DUP2 MSTORE PUSH1 0x20 ADD SWAP1 DUP2 MSTORE PUSH1 0x20 ADD PUSH1 0x0 KECCAK256 PUSH1 0x1 ADD PUSH1 0x0 DUP4 DUP2 MSTORE PUSH1 0x20 ADD SWAP1 DUP2 MSTORE PUSH1 0x20 ADD PUSH1 0x0 KECCAK256 PUSH1 0x0 ADD SLOAD EQ ISZERO PUSH2 0x353 JUMPI PUSH1 0x1 SWAP2 POP POP PUSH2 0x36C JUMP JUMPDEST DUP1 DUP1 PUSH2 0x35E SWAP1 PUSH2 0x13E0 JUMP JUMPDEST SWAP2 POP POP PUSH2 0x2FC JUMP JUMPDEST POP PUSH1 0x0 SWAP1 POP JUMPDEST SWAP3 SWAP2 POP POP JUMP JUMPDEST PUSH2 0x37A PUSH2 0xE02 JUMP JUMPDEST PUSH20 0xFFFFFFFFFFFFFFFFFFFFFFFFFFFFFFFFFFFFFFFF AND PUSH2 0x398 PUSH2 0x9CC JUMP JUMPDEST PUSH20 0xFFFFFFFFFFFFFFFFFFFFFFFFFFFFFFFFFFFFFFFF AND EQ PUSH2 0x3EE JUMPI PUSH1 0x40 MLOAD PUSH32 0x8C379A000000000000000000000000000000000000000000000000000000000 DUP2 MSTORE PUSH1 0x4 ADD PUSH2 0x3E5 SWAP1 PUSH2 0x12A5 JUMP JUMPDEST PUSH1 0x40 MLOAD DUP1 SWAP2 SUB SWAP1 REVERT JUMPDEST PUSH1 0x1 PUSH1 0x0 ADD PUSH1 0x0 DUP2 SLOAD DUP1 SWAP3 SWAP2 SWAP1 PUSH2 0x404 SWAP1 PUSH2 0x13E0 JUMP JUMPDEST SWAP2 SWAP1 POP SSTORE POP DUP1 PUSH1 0x1 DUP1 ADD PUSH1 0x0 PUSH1 0x1 PUSH1 0x0 ADD SLOAD DUP2 MSTORE PUSH1 0x20 ADD SWAP1 DUP2 MSTORE PUSH1 0x20 ADD PUSH1 0x0 KECCAK256 PUSH1 0x0 PUSH2 0x100 EXP DUP2 SLOAD DUP2 PUSH20 0xFFFFFFFFFFFFFFFFFFFFFFFFFFFFFFFFFFFFFFFF MUL NOT AND SWAP1 DUP4 PUSH20 0xFFFFFFFFFFFFFFFFFFFFFFFFFFFFFFFFFFFFFFFF AND MUL OR SWAP1 SSTORE POP PUSH1 0x1 PUSH1 0x0 ADD SLOAD PUSH1 0x1 PUSH1 0x2 ADD PUSH1 0x0 DUP4 PUSH20 0xFFFFFFFFFFFFFFFFFFFFFFFFFFFFFFFFFFFFFFFF AND PUSH20 0xFFFFFFFFFFFFFFFFFFFFFFFFFFFFFFFFFFFFFFFF AND DUP2 MSTORE PUSH1 0x20 ADD SWAP1 DUP2 MSTORE PUSH1 0x20 ADD PUSH1 0x0 KECCAK256 DUP2 SWAP1 SSTORE POP POP JUMP JUMPDEST PUSH2 0x4B9 PUSH2 0xE02 JUMP JUMPDEST PUSH20 0xFFFFFFFFFFFFFFFFFFFFFFFFFFFFFFFFFFFFFFFF AND PUSH2 0x4D7 PUSH2 0x9CC JUMP JUMPDEST PUSH20 0xFFFFFFFFFFFFFFFFFFFFFFFFFFFFFFFFFFFFFFFF AND EQ PUSH2 0x52D JUMPI PUSH1 0x40 MLOAD PUSH32 0x8C379A000000000000000000000000000000000000000000000000000000000 DUP2 MSTORE PUSH1 0x4 ADD PUSH2 0x524 SWAP1 PUSH2 0x12A5 JUMP JUMPDEST PUSH1 0x40 MLOAD DUP1 SWAP2 SUB SWAP1 REVERT JUMPDEST PUSH2 0x539 DUP3 DUP3 PUSH1 0x1 PUSH2 0xA09 JUMP JUMPDEST POP POP JUMP JUMPDEST PUSH2 0x545 PUSH2 0xE02 JUMP JUMPDEST PUSH20 0xFFFFFFFFFFFFFFFFFFFFFFFFFFFFFFFFFFFFFFFF AND PUSH2 0x563 PUSH2 0x9CC JUMP JUMPDEST PUSH20 0xFFFFFFFFFFFFFFFFFFFFFFFFFFFFFFFFFFFFFFFF AND EQ PUSH2 0x5B9 JUMPI PUSH1 0x40 MLOAD PUSH32 0x8C379A000000000000000000000000000000000000000000000000000000000 DUP2 MSTORE PUSH1 0x4 ADD PUSH2 0x5B0 SWAP1 PUSH2 0x12A5 JUMP JUMPDEST PUSH1 0x40 MLOAD DUP1 SWAP2 SUB SWAP1 REVERT JUMPDEST PUSH2 0x5C2 DUP4 PUSH2 0x9F5 JUMP JUMPDEST PUSH2 0x5D0 JUMPI PUSH2 0x5CF DUP4 PUSH2 0x372 JUMP JUMPDEST JUMPDEST PUSH1 0x1 PUSH1 0x3 ADD PUSH1 0x0 PUSH2 0x5E0 DUP6 PUSH2 0xB0A JUMP JUMPDEST DUP2 MSTORE PUSH1 0x20 ADD SWAP1 DUP2 MSTORE PUSH1 0x20 ADD PUSH1 0x0 KECCAK256 PUSH1 0x0 ADD PUSH1 0x0 DUP2 SLOAD DUP1 SWAP3 SWAP2 SWAP1 PUSH2 0x602 SWAP1 PUSH2 0x13E0 JUMP JUMPDEST SWAP2 SWAP1 POP SSTORE POP DUP2 PUSH1 0x1 PUSH1 0x3 ADD PUSH1 0x0 PUSH2 0x618 DUP7 PUSH2 0xB0A JUMP JUMPDEST DUP2 MSTORE PUSH1 0x20 ADD SWAP1 DUP2 MSTORE PUSH1 0x20 ADD PUSH1 0x0 KECCAK256 PUSH1 0x1 ADD PUSH1 0x0 PUSH2 0x634 DUP7 PUSH2 0x9A1 JUMP JUMPDEST DUP2 MSTORE PUSH1 0x20 ADD SWAP1 DUP2 MSTORE PUSH1 0x20 ADD PUSH1 0x0 KECCAK256 PUSH1 0x0 ADD DUP2 SWAP1 SSTORE POP DUP1 PUSH1 0x1 PUSH1 0x3 ADD PUSH1 0x0 PUSH2 0x65A DUP7 PUSH2 0xB0A JUMP JUMPDEST DUP2 MSTORE PUSH1 0x20 ADD SWAP1 DUP2 MSTORE PUSH1 0x20 ADD PUSH1 0x0 KECCAK256 PUSH1 0x1 ADD PUSH1 0x0 PUSH2 0x676 DUP7 PUSH2 0x9A1 JUMP JUMPDEST DUP2 MSTORE PUSH1 0x20 ADD SWAP1 DUP2 MSTORE PUSH1 0x20 ADD PUSH1 0x0 KECCAK256 PUSH1 0x1 ADD DUP2 SWAP1 SSTORE POP POP POP POP JUMP JUMPDEST PUSH2 0x698 PUSH2 0xE02 JUMP JUMPDEST PUSH20 0xFFFFFFFFFFFFFFFFFFFFFFFFFFFFFFFFFFFFFFFF AND PUSH2 0x6B6 PUSH2 0x9CC JUMP JUMPDEST PUSH20 0xFFFFFFFFFFFFFFFFFFFFFFFFFFFFFFFFFFFFFFFF AND EQ PUSH2 0x70C JUMPI PUSH1 0x40 MLOAD PUSH32 0x8C379A000000000000000000000000000000000000000000000000000000000 DUP2 MSTORE PUSH1 0x4 ADD PUSH2 0x703 SWAP1 PUSH2 0x12A5 JUMP JUMPDEST PUSH1 0x40 MLOAD DUP1 SWAP2 SUB SWAP1 REVERT JUMPDEST PUSH1 0x0 PUSH2 0x717 DUP3 PUSH2 0xB0A JUMP JUMPDEST SWAP1 POP PUSH1 0x0 DUP3 SWAP1 POP PUSH1 0x0 PUSH1 0x1 PUSH1 0x0 ADD SLOAD SWAP1 POP PUSH1 0x0 PUSH1 0x1 DUP1 ADD PUSH1 0x0 PUSH1 0x1 PUSH1 0x0 ADD SLOAD DUP2 MSTORE PUSH1 0x20 ADD SWAP1 DUP2 MSTORE PUSH1 0x20 ADD PUSH1 0x0 KECCAK256 PUSH1 0x0 SWAP1 SLOAD SWAP1 PUSH2 0x100 EXP SWAP1 DIV PUSH20 0xFFFFFFFFFFFFFFFFFFFFFFFFFFFFFFFFFFFFFFFF AND SWAP1 POP PUSH1 0x1 DUP1 ADD PUSH1 0x0 DUP4 DUP2 MSTORE PUSH1 0x20 ADD SWAP1 DUP2 MSTORE PUSH1 0x20 ADD PUSH1 0x0 KECCAK256 PUSH1 0x0 SWAP1 SLOAD SWAP1 PUSH2 0x100 EXP SWAP1 DIV PUSH20 0xFFFFFFFFFFFFFFFFFFFFFFFFFFFFFFFFFFFFFFFF AND PUSH1 0x1 DUP1 ADD PUSH1 0x0 DUP7 DUP2 MSTORE PUSH1 0x20 ADD SWAP1 DUP2 MSTORE PUSH1 0x20 ADD PUSH1 0x0 KECCAK256 PUSH1 0x0 PUSH2 0x100 EXP DUP2 SLOAD DUP2 PUSH20 0xFFFFFFFFFFFFFFFFFFFFFFFFFFFFFFFFFFFFFFFF MUL NOT AND SWAP1 DUP4 PUSH20 0xFFFFFFFFFFFFFFFFFFFFFFFFFFFFFFFFFFFFFFFF AND MUL OR SWAP1 SSTORE POP PUSH1 0x1 DUP1 ADD PUSH1 0x0 DUP4 DUP2 MSTORE PUSH1 0x20 ADD SWAP1 DUP2 MSTORE PUSH1 0x20 ADD PUSH1 0x0 KECCAK256 PUSH1 0x0 PUSH2 0x100 EXP DUP2 SLOAD SWAP1 PUSH20 0xFFFFFFFFFFFFFFFFFFFFFFFFFFFFFFFFFFFFFFFF MUL NOT AND SWAP1 SSTORE PUSH1 0x1 PUSH1 0x2 ADD PUSH1 0x0 DUP3 PUSH20 0xFFFFFFFFFFFFFFFFFFFFFFFFFFFFFFFFFFFFFFFF AND PUSH20 0xFFFFFFFFFFFFFFFFFFFFFFFFFFFFFFFFFFFFFFFF AND DUP2 MSTORE PUSH1 0x20 ADD SWAP1 DUP2 MSTORE PUSH1 0x20 ADD PUSH1 0x0 KECCAK256 SLOAD PUSH1 0x1 PUSH1 0x2 ADD PUSH1 0x0 DUP6 PUSH20 0xFFFFFFFFFFFFFFFFFFFFFFFFFFFFFFFFFFFFFFFF AND PUSH20 0xFFFFFFFFFFFFFFFFFFFFFFFFFFFFFFFFFFFFFFFF AND DUP2 MSTORE PUSH1 0x20 ADD SWAP1 DUP2 MSTORE PUSH1 0x20 ADD PUSH1 0x0 KECCAK256 DUP2 SWAP1 SSTORE POP PUSH1 0x1 PUSH1 0x2 ADD PUSH1 0x0 DUP3 PUSH20 0xFFFFFFFFFFFFFFFFFFFFFFFFFFFFFFFFFFFFFFFF AND PUSH20 0xFFFFFFFFFFFFFFFFFFFFFFFFFFFFFFFFFFFFFFFF AND DUP2 MSTORE PUSH1 0x20 ADD SWAP1 DUP2 MSTORE PUSH1 0x20 ADD PUSH1 0x0 KECCAK256 PUSH1 0x0 SWAP1 SSTORE PUSH1 0x1 PUSH1 0x0 ADD PUSH1 0x0 DUP2 SLOAD DUP1 SWAP3 SWAP2 SWAP1 PUSH2 0x90D SWAP1 PUSH2 0x13B6 JUMP JUMPDEST SWAP2 SWAP1 POP SSTORE POP POP POP POP POP POP JUMP JUMPDEST PUSH2 0x921 PUSH2 0xE02 JUMP JUMPDEST PUSH20 0xFFFFFFFFFFFFFFFFFFFFFFFFFFFFFFFFFFFFFFFF AND PUSH2 0x93F PUSH2 0x9CC JUMP JUMPDEST PUSH20 0xFFFFFFFFFFFFFFFFFFFFFFFFFFFFFFFFFFFFFFFF AND EQ PUSH2 0x995 JUMPI PUSH1 0x40 MLOAD PUSH32 0x8C379A000000000000000000000000000000000000000000000000000000000 DUP2 MSTORE PUSH1 0x4 ADD PUSH2 0x98C SWAP1 PUSH2 0x12A5 JUMP JUMPDEST PUSH1 0x40 MLOAD DUP1 SWAP2 SUB SWAP1 REVERT JUMPDEST PUSH2 0x99F PUSH1 0x0 PUSH2 0xE0A JUMP JUMPDEST JUMP JUMPDEST PUSH1 0x0 PUSH1 0x1 PUSH1 0x3 ADD PUSH1 0x0 PUSH2 0x9B3 DUP5 PUSH2 0xB0A JUMP JUMPDEST DUP2 MSTORE PUSH1 0x20 ADD SWAP1 DUP2 MSTORE PUSH1 0x20 ADD PUSH1 0x0 KECCAK256 PUSH1 0x0 ADD SLOAD SWAP1 POP SWAP2 SWAP1 POP JUMP JUMPDEST PUSH1 0x0 DUP1 PUSH1 0x0 SWAP1 SLOAD SWAP1 PUSH2 0x100 EXP SWAP1 DIV PUSH20 0xFFFFFFFFFFFFFFFFFFFFFFFFFFFFFFFFFFFFFFFF AND SWAP1 POP SWAP1 JUMP JUMPDEST PUSH1 0x0 DUP1 PUSH2 0xA01 DUP4 PUSH2 0xB0A JUMP JUMPDEST EQ SWAP1 POP SWAP2 SWAP1 POP JUMP JUMPDEST PUSH2 0xA11 PUSH2 0xE02 JUMP JUMPDEST PUSH20 0xFFFFFFFFFFFFFFFFFFFFFFFFFFFFFFFFFFFFFFFF AND PUSH2 0xA2F PUSH2 0x9CC JUMP JUMPDEST PUSH20 0xFFFFFFFFFFFFFFFFFFFFFFFFFFFFFFFFFFFFFFFF AND EQ PUSH2 0xA85 JUMPI PUSH1 0x40 MLOAD PUSH32 0x8C379A000000000000000000000000000000000000000000000000000000000 DUP2 MSTORE PUSH1 0x4 ADD PUSH2 0xA7C SWAP1 PUSH2 0x12A5 JUMP JUMPDEST PUSH1 0x40 MLOAD DUP1 SWAP2 SUB SWAP1 REVERT JUMPDEST PUSH1 0x0 JUMPDEST PUSH2 0xA91 DUP5 PUSH2 0x9A1 JUMP JUMPDEST DUP2 LT ISZERO PUSH2 0xAF8 JUMPI DUP3 PUSH1 0x1 PUSH1 0x3 ADD PUSH1 0x0 PUSH2 0xAA9 DUP8 PUSH2 0xB0A JUMP JUMPDEST DUP2 MSTORE PUSH1 0x20 ADD SWAP1 DUP2 MSTORE PUSH1 0x20 ADD PUSH1 0x0 KECCAK256 PUSH1 0x1 ADD PUSH1 0x0 DUP4 DUP2 MSTORE PUSH1 0x20 ADD SWAP1 DUP2 MSTORE PUSH1 0x20 ADD PUSH1 0x0 KECCAK256 PUSH1 0x0 ADD SLOAD EQ ISZERO PUSH2 0xAE5 JUMPI PUSH2 0xAE0 DUP5 DUP3 DUP5 PUSH2 0xECE JUMP JUMPDEST PUSH2 0xAF8 JUMP JUMPDEST DUP1 DUP1 PUSH2 0xAF0 SWAP1 PUSH2 0x13E0 JUMP JUMPDEST SWAP2 POP POP PUSH2 0xA88 JUMP JUMPDEST POP POP POP POP JUMP JUMPDEST PUSH1 0x1 DUP1 PUSH1 0x0 ADD SLOAD SWAP1 POP DUP2 JUMP JUMPDEST PUSH1 0x0 PUSH1 0x1 PUSH1 0x2 ADD PUSH1 0x0 DUP4 PUSH20 0xFFFFFFFFFFFFFFFFFFFFFFFFFFFFFFFFFFFFFFFF AND PUSH20 0xFFFFFFFFFFFFFFFFFFFFFFFFFFFFFFFFFFFFFFFF AND DUP2 MSTORE PUSH1 0x20 ADD SWAP1 DUP2 MSTORE PUSH1 0x20 ADD PUSH1 0x0 KECCAK256 SLOAD SWAP1 POP SWAP2 SWAP1 POP JUMP JUMPDEST PUSH2 0xB5E PUSH2 0xE02 JUMP JUMPDEST PUSH20 0xFFFFFFFFFFFFFFFFFFFFFFFFFFFFFFFFFFFFFFFF AND PUSH2 0xB7C PUSH2 0x9CC JUMP JUMPDEST PUSH20 0xFFFFFFFFFFFFFFFFFFFFFFFFFFFFFFFFFFFFFFFF AND EQ PUSH2 0xBD2 JUMPI PUSH1 0x40 MLOAD PUSH32 0x8C379A000000000000000000000000000000000000000000000000000000000 DUP2 MSTORE PUSH1 0x4 ADD PUSH2 0xBC9 SWAP1 PUSH2 0x12A5 JUMP JUMPDEST PUSH1 0x40 MLOAD DUP1 SWAP2 SUB SWAP1 REVERT JUMPDEST PUSH1 0x1 PUSH1 0x3 ADD PUSH1 0x0 PUSH2 0xBE2 DUP5 PUSH2 0xB0A JUMP JUMPDEST DUP2 MSTORE PUSH1 0x20 ADD SWAP1 DUP2 MSTORE PUSH1 0x20 ADD PUSH1 0x0 KECCAK256 PUSH1 0x1 ADD PUSH1 0x0 PUSH2 0xBFE DUP5 PUSH2 0x9A1 JUMP JUMPDEST DUP2 MSTORE PUSH1 0x20 ADD SWAP1 DUP2 MSTORE PUSH1 0x20 ADD PUSH1 0x0 KECCAK256 PUSH1 0x1 PUSH1 0x3 ADD PUSH1 0x0 PUSH2 0xC1C DUP6 PUSH2 0xB0A JUMP JUMPDEST DUP2 MSTORE PUSH1 0x20 ADD SWAP1 DUP2 MSTORE PUSH1 0x20 ADD PUSH1 0x0 KECCAK256 PUSH1 0x1 ADD PUSH1 0x0 DUP4 DUP2 MSTORE PUSH1 0x20 ADD SWAP1 DUP2 MSTORE PUSH1 0x20 ADD PUSH1 0x0 KECCAK256 PUSH1 0x0 DUP3 ADD SLOAD DUP2 PUSH1 0x0 ADD SSTORE PUSH1 0x1 DUP3 ADD SLOAD DUP2 PUSH1 0x1 ADD SSTORE SWAP1 POP POP PUSH1 0x1 PUSH1 0x3 ADD PUSH1 0x0 PUSH2 0xC65 DUP5 PUSH2 0xB0A JUMP JUMPDEST DUP2 MSTORE PUSH1 0x20 ADD SWAP1 DUP2 MSTORE PUSH1 0x20 ADD PUSH1 0x0 KECCAK256 PUSH1 0x1 ADD PUSH1 0x0 PUSH2 0xC81 DUP5 PUSH2 0x9A1 JUMP JUMPDEST DUP2 MSTORE PUSH1 0x20 ADD SWAP1 DUP2 MSTORE PUSH1 0x20 ADD PUSH1 0x0 KECCAK256 PUSH1 0x0 DUP1 DUP3 ADD PUSH1 0x0 SWAP1 SSTORE PUSH1 0x1 DUP3 ADD PUSH1 0x0 SWAP1 SSTORE POP POP PUSH1 0x1 PUSH1 0x3 ADD PUSH1 0x0 PUSH2 0xCB2 DUP5 PUSH2 0xB0A JUMP JUMPDEST DUP2 MSTORE PUSH1 0x20 ADD SWAP1 DUP2 MSTORE PUSH1 0x20 ADD PUSH1 0x0 KECCAK256 PUSH1 0x0 ADD PUSH1 0x0 DUP2 SLOAD DUP1 SWAP3 SWAP2 SWAP1 PUSH2 0xCD4 SWAP1 PUSH2 0x13B6 JUMP JUMPDEST SWAP2 SWAP1 POP SSTORE POP POP POP JUMP JUMPDEST PUSH2 0xCE5 PUSH2 0xE02 JUMP JUMPDEST PUSH20 0xFFFFFFFFFFFFFFFFFFFFFFFFFFFFFFFFFFFFFFFF AND PUSH2 0xD03 PUSH2 0x9CC JUMP JUMPDEST PUSH20 0xFFFFFFFFFFFFFFFFFFFFFFFFFFFFFFFFFFFFFFFF AND EQ PUSH2 0xD59 JUMPI PUSH1 0x40 MLOAD PUSH32 0x8C379A000000000000000000000000000000000000000000000000000000000 DUP2 MSTORE PUSH1 0x4 ADD PUSH2 0xD50 SWAP1 PUSH2 0x12A5 JUMP JUMPDEST PUSH1 0x40 MLOAD DUP1 SWAP2 SUB SWAP1 REVERT JUMPDEST PUSH1 0x0 PUSH20 0xFFFFFFFFFFFFFFFFFFFFFFFFFFFFFFFFFFFFFFFF AND DUP2 PUSH20 0xFFFFFFFFFFFFFFFFFFFFFFFFFFFFFFFFFFFFFFFF AND EQ ISZERO PUSH2 0xDC9 JUMPI PUSH1 0x40 MLOAD PUSH32 0x8C379A000000000000000000000000000000000000000000000000000000000 DUP2 MSTORE PUSH1 0x4 ADD PUSH2 0xDC0 SWAP1 PUSH2 0x1285 JUMP JUMPDEST PUSH1 0x40 MLOAD DUP1 SWAP2 SUB SWAP1 REVERT JUMPDEST PUSH2 0xDD2 DUP2 PUSH2 0xE0A JUMP JUMPDEST POP JUMP JUMPDEST PUSH1 0x0 DUP1 PUSH1 0x1 PUSH1 0x3 ADD PUSH1 0x0 PUSH2 0xDE8 DUP6 PUSH2 0xB0A JUMP JUMPDEST DUP2 MSTORE PUSH1 0x20 ADD SWAP1 DUP2 MSTORE PUSH1 0x20 ADD PUSH1 0x0 KECCAK256 PUSH1 0x0 ADD SLOAD EQ SWAP1 POP SWAP2 SWAP1 POP JUMP JUMPDEST PUSH1 0x0 CALLER SWAP1 POP SWAP1 JUMP JUMPDEST PUSH1 0x0 DUP1 PUSH1 0x0 SWAP1 SLOAD SWAP1 PUSH2 0x100 EXP SWAP1 DIV PUSH20 0xFFFFFFFFFFFFFFFFFFFFFFFFFFFFFFFFFFFFFFFF AND SWAP1 POP DUP2 PUSH1 0x0 DUP1 PUSH2 0x100 EXP DUP2 SLOAD DUP2 PUSH20 0xFFFFFFFFFFFFFFFFFFFFFFFFFFFFFFFFFFFFFFFF MUL NOT AND SWAP1 DUP4 PUSH20 0xFFFFFFFFFFFFFFFFFFFFFFFFFFFFFFFFFFFFFFFF AND MUL OR SWAP1 SSTORE POP DUP2 PUSH20 0xFFFFFFFFFFFFFFFFFFFFFFFFFFFFFFFFFFFFFFFF AND DUP2 PUSH20 0xFFFFFFFFFFFFFFFFFFFFFFFFFFFFFFFFFFFFFFFF AND PUSH32 0x8BE0079C531659141344CD1FD0A4F28419497F9722A3DAAFE3B4186F6B6457E0 PUSH1 0x40 MLOAD PUSH1 0x40 MLOAD DUP1 SWAP2 SUB SWAP1 LOG3 POP POP JUMP JUMPDEST PUSH1 0x0 DUP2 PUSH1 0x1 PUSH1 0x3 ADD PUSH1 0x0 PUSH2 0xEE1 DUP8 PUSH2 0xB0A JUMP JUMPDEST DUP2 MSTORE PUSH1 0x20 ADD SWAP1 DUP2 MSTORE PUSH1 0x20 ADD PUSH1 0x0 KECCAK256 PUSH1 0x1 ADD PUSH1 0x0 DUP6 DUP2 MSTORE PUSH1 0x20 ADD SWAP1 DUP2 MSTORE PUSH1 0x20 ADD PUSH1 0x0 KECCAK256 PUSH1 0x1 ADD SLOAD LT ISZERO SWAP1 POP PUSH1 0x0 PUSH1 0x1 PUSH1 0x3 ADD PUSH1 0x0 PUSH2 0xF1D DUP8 PUSH2 0xB0A JUMP JUMPDEST DUP2 MSTORE PUSH1 0x20 ADD SWAP1 DUP2 MSTORE PUSH1 0x20 ADD PUSH1 0x0 KECCAK256 PUSH1 0x1 ADD PUSH1 0x0 DUP6 DUP2 MSTORE PUSH1 0x20 ADD SWAP1 DUP2 MSTORE PUSH1 0x20 ADD PUSH1 0x0 KECCAK256 PUSH1 0x1 ADD SLOAD PUSH1 0x40 MLOAD PUSH1 0x20 ADD PUSH2 0xF53 SWAP2 SWAP1 PUSH2 0x1207 JUMP JUMPDEST PUSH1 0x40 MLOAD PUSH1 0x20 DUP2 DUP4 SUB SUB DUP2 MSTORE SWAP1 PUSH1 0x40 MSTORE SWAP1 POP DUP2 DUP2 SWAP1 PUSH2 0xFA7 JUMPI PUSH1 0x40 MLOAD PUSH32 0x8C379A000000000000000000000000000000000000000000000000000000000 DUP2 MSTORE PUSH1 0x4 ADD PUSH2 0xF9E SWAP2 SWAP1 PUSH2 0x1263 JUMP JUMPDEST PUSH1 0x40 MLOAD DUP1 SWAP2 SUB SWAP1 REVERT JUMPDEST POP DUP3 PUSH1 0x1 PUSH1 0x3 ADD PUSH1 0x0 PUSH2 0xFB9 DUP9 PUSH2 0xB0A JUMP JUMPDEST DUP2 MSTORE PUSH1 0x20 ADD SWAP1 DUP2 MSTORE PUSH1 0x20 ADD PUSH1 0x0 KECCAK256 PUSH1 0x1 ADD PUSH1 0x0 DUP7 DUP2 MSTORE PUSH1 0x20 ADD SWAP1 DUP2 MSTORE PUSH1 0x20 ADD PUSH1 0x0 KECCAK256 PUSH1 0x1 ADD PUSH1 0x0 DUP3 DUP3 SLOAD PUSH2 0xFED SWAP2 SWAP1 PUSH2 0x1307 JUMP JUMPDEST SWAP3 POP POP DUP2 SWAP1 SSTORE POP PUSH1 0x0 PUSH1 0x1 PUSH1 0x3 ADD PUSH1 0x0 PUSH2 0x1006 DUP9 PUSH2 0xB0A JUMP JUMPDEST DUP2 MSTORE PUSH1 0x20 ADD SWAP1 DUP2 MSTORE PUSH1 0x20 ADD PUSH1 0x0 KECCAK256 PUSH1 0x1 ADD PUSH1 0x0 DUP7 DUP2 MSTORE PUSH1 0x20 ADD SWAP1 DUP2 MSTORE PUSH1 0x20 ADD PUSH1 0x0 KECCAK256 PUSH1 0x1 ADD SLOAD GT PUSH2 0x103C JUMPI PUSH2 0x103B DUP6 DUP6 PUSH2 0xB56 JUMP JUMPDEST JUMPDEST POP POP POP POP POP JUMP JUMPDEST PUSH1 0x0 DUP2 CALLDATALOAD SWAP1 POP PUSH2 0x1052 DUP2 PUSH2 0x1560 JUMP JUMPDEST SWAP3 SWAP2 POP POP JUMP JUMPDEST PUSH1 0x0 DUP2 CALLDATALOAD SWAP1 POP PUSH2 0x1067 DUP2 PUSH2 0x1577 JUMP JUMPDEST SWAP3 SWAP2 POP POP JUMP JUMPDEST PUSH1 0x0 PUSH1 0x20 DUP3 DUP5 SUB SLT ISZERO PUSH2 0x107F JUMPI PUSH1 0x0 DUP1 REVERT JUMPDEST PUSH1 0x0 PUSH2 0x108D DUP5 DUP3 DUP6 ADD PUSH2 0x1043 JUMP JUMPDEST SWAP2 POP POP SWAP3 SWAP2 POP POP JUMP JUMPDEST PUSH1 0x0 DUP1 PUSH1 0x40 DUP4 DUP6 SUB SLT ISZERO PUSH2 0x10A9 JUMPI PUSH1 0x0 DUP1 REVERT JUMPDEST PUSH1 0x0 PUSH2 0x10B7 DUP6 DUP3 DUP7 ADD PUSH2 0x1043 JUMP JUMPDEST SWAP3 POP POP PUSH1 0x20 PUSH2 0x10C8 DUP6 DUP3 DUP7 ADD PUSH2 0x1058 JUMP JUMPDEST SWAP2 POP POP SWAP3 POP SWAP3 SWAP1 POP JUMP JUMPDEST PUSH1 0x0 DUP1 PUSH1 0x0 PUSH1 0x60 DUP5 DUP7 SUB SLT ISZERO PUSH2 0x10E7 JUMPI PUSH1 0x0 DUP1 REVERT JUMPDEST PUSH1 0x0 PUSH2 0x10F5 DUP7 DUP3 DUP8 ADD PUSH2 0x1043 JUMP JUMPDEST SWAP4 POP POP PUSH1 0x20 PUSH2 0x1106 DUP7 DUP3 DUP8 ADD PUSH2 0x1058 JUMP JUMPDEST SWAP3 POP POP PUSH1 0x40 PUSH2 0x1117 DUP7 DUP3 DUP8 ADD PUSH2 0x1058 JUMP JUMPDEST SWAP2 POP POP SWAP3 POP SWAP3 POP SWAP3 JUMP JUMPDEST PUSH2 0x112A DUP2 PUSH2 0x133B JUMP JUMPDEST DUP3 MSTORE POP POP JUMP JUMPDEST PUSH2 0x1139 DUP2 PUSH2 0x134D JUMP JUMPDEST DUP3 MSTORE POP POP JUMP JUMPDEST PUSH1 0x0 PUSH2 0x114A DUP3 PUSH2 0x12E0 JUMP JUMPDEST PUSH2 0x1154 DUP2 DUP6 PUSH2 0x12EB JUMP JUMPDEST SWAP4 POP PUSH2 0x1164 DUP2 DUP6 PUSH1 0x20 DUP7 ADD PUSH2 0x1383 JUMP JUMPDEST PUSH2 0x116D DUP2 PUSH2 0x1462 JUMP JUMPDEST DUP5 ADD SWAP2 POP POP SWAP3 SWAP2 POP POP JUMP JUMPDEST PUSH1 0x0 PUSH2 0x1185 PUSH1 0x26 DUP4 PUSH2 0x12EB JUMP JUMPDEST SWAP2 POP PUSH2 0x1190 DUP3 PUSH2 0x1473 JUMP JUMPDEST PUSH1 0x40 DUP3 ADD SWAP1 POP SWAP2 SWAP1 POP JUMP JUMPDEST PUSH1 0x0 PUSH2 0x11A8 PUSH1 0x20 DUP4 PUSH2 0x12EB JUMP JUMPDEST SWAP2 POP PUSH2 0x11B3 DUP3 PUSH2 0x14C2 JUMP JUMPDEST PUSH1 0x20 DUP3 ADD SWAP1 POP SWAP2 SWAP1 POP JUMP JUMPDEST PUSH1 0x0 PUSH2 0x11CB PUSH1 0x4B DUP4 PUSH2 0x12FC JUMP JUMPDEST SWAP2 POP PUSH2 0x11D6 DUP3 PUSH2 0x14EB JUMP JUMPDEST PUSH1 0x4B DUP3 ADD SWAP1 POP SWAP2 SWAP1 POP JUMP JUMPDEST PUSH2 0x11EA DUP2 PUSH2 0x1379 JUMP JUMPDEST DUP3 MSTORE POP POP JUMP JUMPDEST PUSH2 0x1201 PUSH2 0x11FC DUP3 PUSH2 0x1379 JUMP JUMPDEST PUSH2 0x1429 JUMP JUMPDEST DUP3 MSTORE POP POP JUMP JUMPDEST PUSH1 0x0 PUSH2 0x1212 DUP3 PUSH2 0x11BE JUMP JUMPDEST SWAP2 POP PUSH2 0x121E DUP3 DUP5 PUSH2 0x11F0 JUMP JUMPDEST PUSH1 0x20 DUP3 ADD SWAP2 POP DUP2 SWAP1 POP SWAP3 SWAP2 POP POP JUMP JUMPDEST PUSH1 0x0 PUSH1 0x20 DUP3 ADD SWAP1 POP PUSH2 0x1242 PUSH1 0x0 DUP4 ADD DUP5 PUSH2 0x1121 JUMP JUMPDEST SWAP3 SWAP2 POP POP JUMP JUMPDEST PUSH1 0x0 PUSH1 0x20 DUP3 ADD SWAP1 POP PUSH2 0x125D PUSH1 0x0 DUP4 ADD DUP5 PUSH2 0x1130 JUMP JUMPDEST SWAP3 SWAP2 POP POP JUMP JUMPDEST PUSH1 0x0 PUSH1 0x20 DUP3 ADD SWAP1 POP DUP2 DUP2 SUB PUSH1 0x0 DUP4 ADD MSTORE PUSH2 0x127D DUP2 DUP5 PUSH2 0x113F JUMP JUMPDEST SWAP1 POP SWAP3 SWAP2 POP POP JUMP JUMPDEST PUSH1 0x0 PUSH1 0x20 DUP3 ADD SWAP1 POP DUP2 DUP2 SUB PUSH1 0x0 DUP4 ADD MSTORE PUSH2 0x129E DUP2 PUSH2 0x1178 JUMP JUMPDEST SWAP1 POP SWAP2 SWAP1 POP JUMP JUMPDEST PUSH1 0x0 PUSH1 0x20 DUP3 ADD SWAP1 POP DUP2 DUP2 SUB PUSH1 0x0 DUP4 ADD MSTORE PUSH2 0x12BE DUP2 PUSH2 0x119B JUMP JUMPDEST SWAP1 POP SWAP2 SWAP1 POP JUMP JUMPDEST PUSH1 0x0 PUSH1 0x20 DUP3 ADD SWAP1 POP PUSH2 0x12DA PUSH1 0x0 DUP4 ADD DUP5 PUSH2 0x11E1 JUMP JUMPDEST SWAP3 SWAP2 POP POP JUMP JUMPDEST PUSH1 0x0 DUP2 MLOAD SWAP1 POP SWAP2 SWAP1 POP JUMP JUMPDEST PUSH1 0x0 DUP3 DUP3 MSTORE PUSH1 0x20 DUP3 ADD SWAP1 POP SWAP3 SWAP2 POP POP JUMP JUMPDEST PUSH1 0x0 DUP2 SWAP1 POP SWAP3 SWAP2 POP POP JUMP JUMPDEST PUSH1 0x0 PUSH2 0x1312 DUP3 PUSH2 0x1379 JUMP JUMPDEST SWAP2 POP PUSH2 0x131D DUP4 PUSH2 0x1379 JUMP JUMPDEST SWAP3 POP DUP3 DUP3 LT ISZERO PUSH2 0x1330 JUMPI PUSH2 0x132F PUSH2 0x1433 JUMP JUMPDEST JUMPDEST DUP3 DUP3 SUB SWAP1 POP SWAP3 SWAP2 POP POP JUMP JUMPDEST PUSH1 0x0 PUSH2 0x1346 DUP3 PUSH2 0x1359 JUMP JUMPDEST SWAP1 POP SWAP2 SWAP1 POP JUMP JUMPDEST PUSH1 0x0 DUP2 ISZERO ISZERO SWAP1 POP SWAP2 SWAP1 POP JUMP JUMPDEST PUSH1 0x0 PUSH20 0xFFFFFFFFFFFFFFFFFFFFFFFFFFFFFFFFFFFFFFFF DUP3 AND SWAP1 POP SWAP2 SWAP1 POP JUMP JUMPDEST PUSH1 0x0 DUP2 SWAP1 POP SWAP2 SWAP1 POP JUMP JUMPDEST PUSH1 0x0 JUMPDEST DUP4 DUP2 LT ISZERO PUSH2 0x13A1 JUMPI DUP1 DUP3 ADD MLOAD DUP2 DUP5 ADD MSTORE PUSH1 0x20 DUP2 ADD SWAP1 POP PUSH2 0x1386 JUMP JUMPDEST DUP4 DUP2 GT ISZERO PUSH2 0x13B0 JUMPI PUSH1 0x0 DUP5 DUP5 ADD MSTORE JUMPDEST POP POP POP POP JUMP JUMPDEST PUSH1 0x0 PUSH2 0x13C1 DUP3 PUSH2 0x1379 JUMP JUMPDEST SWAP2 POP PUSH1 0x0 DUP3 EQ ISZERO PUSH2 0x13D5 JUMPI PUSH2 0x13D4 PUSH2 0x1433 JUMP JUMPDEST JUMPDEST PUSH1 0x1 DUP3 SUB SWAP1 POP SWAP2 SWAP1 POP JUMP JUMPDEST PUSH1 0x0 PUSH2 0x13EB DUP3 PUSH2 0x1379 JUMP JUMPDEST SWAP2 POP PUSH32 0xFFFFFFFFFFFFFFFFFFFFFFFFFFFFFFFFFFFFFFFFFFFFFFFFFFFFFFFFFFFFFFFF DUP3 EQ ISZERO PUSH2 0x141E JUMPI PUSH2 0x141D PUSH2 0x1433 JUMP JUMPDEST JUMPDEST PUSH1 0x1 DUP3 ADD SWAP1 POP SWAP2 SWAP1 POP JUMP JUMPDEST PUSH1 0x0 DUP2 SWAP1 POP SWAP2 SWAP1 POP JUMP JUMPDEST PUSH32 0x4E487B7100000000000000000000000000000000000000000000000000000000 PUSH1 0x0 MSTORE PUSH1 0x11 PUSH1 0x4 MSTORE PUSH1 0x24 PUSH1 0x0 REVERT JUMPDEST PUSH1 0x0 PUSH1 0x1F NOT PUSH1 0x1F DUP4 ADD AND SWAP1 POP SWAP2 SWAP1 POP JUMP JUMPDEST PUSH32 0x4F776E61626C653A206E6577206F776E657220697320746865207A65726F2061 PUSH1 0x0 DUP3 ADD MSTORE PUSH32 0x6464726573730000000000000000000000000000000000000000000000000000 PUSH1 0x20 DUP3 ADD MSTORE POP JUMP JUMPDEST PUSH32 0x4F776E61626C653A2063616C6C6572206973206E6F7420746865206F776E6572 PUSH1 0x0 DUP3 ADD MSTORE POP JUMP JUMPDEST PUSH32 0x43616E6E6F742072656475636520636F75706F6E2075736573206279206D6F72 PUSH1 0x0 DUP3 ADD MSTORE PUSH32 0x65207468616E20746865206E756D626572206F66207573657320666F72207468 PUSH1 0x20 DUP3 ADD MSTORE PUSH32 0x697320636F75706F6E3A20000000000000000000000000000000000000000000 PUSH1 0x40 DUP3 ADD MSTORE POP JUMP JUMPDEST PUSH2 0x1569 DUP2 PUSH2 0x133B JUMP JUMPDEST DUP2 EQ PUSH2 0x1574 JUMPI PUSH1 0x0 DUP1 REVERT JUMPDEST POP JUMP JUMPDEST PUSH2 0x1580 DUP2 PUSH2 0x1379 JUMP JUMPDEST DUP2 EQ PUSH2 0x158B JUMPI PUSH1 0x0 DUP1 REVERT JUMPDEST POP JUMP INVALID LOG2 PUSH5 0x6970667358 0x22 SLT KECCAK256 BALANCE MOD 0xCD SMOD 0x4C DIV CALLDATALOAD 0xE9 0x2E 0xF7 MULMOD DUP16 0xBC MLOAD 0x48 0xAD PUSH25 0xBF8CC13F3617B86990F0AF7A6E55164736F6C634300080100 CALLER "
		},
		"gasEstimates": {
			"creation": {
				"codeDepositCost": "1114400",
				"executionCost": "infinite",
				"totalCost": "infinite"
			},
			"external": {
				"addAddress(address)": "65080",
				"addCoupon(address,uint256,uint256)": "infinite",
				"addressExists(address)": "1647",
				"addressHasCoupon(address)": "2580",
				"addressHasCoupon(address,uint256)": "infinite",
				"addressList()": "1232",
				"couponListLength(address)": "2569",
				"idOf(address)": "1569",
				"owner()": "1245",
				"reduceCouponUses(address,uint256,uint256)": "infinite",
				"removeAddress(address)": "94837",
				"removeCoupon(address,uint256)": "infinite",
				"renounceOwnership()": "24441",
				"transferOwnership(address)": "24789",
				"useCoupon(address,uint256)": "infinite"
			},
			"internal": {
				"_initList()": "infinite",
				"_reduceCouponUses(address,uint256,uint256)": "infinite"
			}
		},
		"methodIdentifiers": {
			"addAddress(address)": "38eada1c",
			"addCoupon(address,uint256,uint256)": "3edfcd2c",
			"addressExists(address)": "a5025222",
			"addressHasCoupon(address)": "f76da2a8",
			"addressHasCoupon(address,uint256)": "2080179d",
			"addressList()": "c1eb6dfd",
			"couponListLength(address)": "838324d9",
			"idOf(address)": "d94fe832",
			"owner()": "8da5cb5b",
			"reduceCouponUses(address,uint256,uint256)": "c18ab7a2",
			"removeAddress(address)": "4ba79dfe",
			"removeCoupon(address,uint256)": "e5bf7ffc",
			"renounceOwnership()": "715018a6",
			"transferOwnership(address)": "f2fde38b",
			"useCoupon(address,uint256)": "3c25c06b"
		}
	},
	"abi": [
		{
			"anonymous": false,
			"inputs": [
				{
					"indexed": true,
					"internalType": "address",
					"name": "previousOwner",
					"type": "address"
				},
				{
					"indexed": true,
					"internalType": "address",
					"name": "newOwner",
					"type": "address"
				}
			],
			"name": "OwnershipTransferred",
			"type": "event"
		},
		{
			"inputs": [
				{
					"internalType": "address",
					"name": "address_",
					"type": "address"
				}
			],
			"name": "addAddress",
			"outputs": [],
			"stateMutability": "nonpayable",
			"type": "function"
		},
		{
			"inputs": [
				{
					"internalType": "address",
					"name": "address_",
					"type": "address"
				},
				{
					"internalType": "uint256",
					"name": "discountRate",
					"type": "uint256"
				},
				{
					"internalType": "uint256",
					"name": "numberOfUses",
					"type": "uint256"
				}
			],
			"name": "addCoupon",
			"outputs": [],
			"stateMutability": "nonpayable",
			"type": "function"
		},
		{
			"inputs": [
				{
					"internalType": "address",
					"name": "address_",
					"type": "address"
				}
			],
			"name": "addressExists",
			"outputs": [
				{
					"internalType": "bool",
					"name": "",
					"type": "bool"
				}
			],
			"stateMutability": "view",
			"type": "function"
		},
		{
			"inputs": [
				{
					"internalType": "address",
					"name": "address_",
					"type": "address"
				},
				{
					"internalType": "uint256",
					"name": "discountRate",
					"type": "uint256"
				}
			],
			"name": "addressHasCoupon",
			"outputs": [
				{
					"internalType": "bool",
					"name": "",
					"type": "bool"
				}
			],
			"stateMutability": "view",
			"type": "function"
		},
		{
			"inputs": [
				{
					"internalType": "address",
					"name": "address_",
					"type": "address"
				}
			],
			"name": "addressHasCoupon",
			"outputs": [
				{
					"internalType": "bool",
					"name": "",
					"type": "bool"
				}
			],
			"stateMutability": "view",
			"type": "function"
		},
		{
			"inputs": [],
			"name": "addressList",
			"outputs": [
				{
					"internalType": "uint256",
					"name": "length",
					"type": "uint256"
				}
			],
			"stateMutability": "view",
			"type": "function"
		},
		{
			"inputs": [
				{
					"internalType": "address",
					"name": "address_",
					"type": "address"
				}
			],
			"name": "couponListLength",
			"outputs": [
				{
					"internalType": "uint256",
					"name": "",
					"type": "uint256"
				}
			],
			"stateMutability": "view",
			"type": "function"
		},
		{
			"inputs": [
				{
					"internalType": "address",
					"name": "address_",
					"type": "address"
				}
			],
			"name": "idOf",
			"outputs": [
				{
					"internalType": "uint256",
					"name": "",
					"type": "uint256"
				}
			],
			"stateMutability": "view",
			"type": "function"
		},
		{
			"inputs": [],
			"name": "owner",
			"outputs": [
				{
					"internalType": "address",
					"name": "",
					"type": "address"
				}
			],
			"stateMutability": "view",
			"type": "function"
		},
		{
			"inputs": [
				{
					"internalType": "address",
					"name": "address_",
					"type": "address"
				},
				{
					"internalType": "uint256",
					"name": "discountRate",
					"type": "uint256"
				},
				{
					"internalType": "uint256",
					"name": "numberOfUses",
					"type": "uint256"
				}
			],
			"name": "reduceCouponUses",
			"outputs": [],
			"stateMutability": "nonpayable",
			"type": "function"
		},
		{
			"inputs": [
				{
					"internalType": "address",
					"name": "address_",
					"type": "address"
				}
			],
			"name": "removeAddress",
			"outputs": [],
			"stateMutability": "nonpayable",
			"type": "function"
		},
		{
			"inputs": [
				{
					"internalType": "address",
					"name": "address_",
					"type": "address"
				},
				{
					"internalType": "uint256",
					"name": "id",
					"type": "uint256"
				}
			],
			"name": "removeCoupon",
			"outputs": [],
			"stateMutability": "nonpayable",
			"type": "function"
		},
		{
			"inputs": [],
			"name": "renounceOwnership",
			"outputs": [],
			"stateMutability": "nonpayable",
			"type": "function"
		},
		{
			"inputs": [
				{
					"internalType": "address",
					"name": "newOwner",
					"type": "address"
				}
			],
			"name": "transferOwnership",
			"outputs": [],
			"stateMutability": "nonpayable",
			"type": "function"
		},
		{
			"inputs": [
				{
					"internalType": "address",
					"name": "address_",
					"type": "address"
				},
				{
					"internalType": "uint256",
					"name": "discountRate",
					"type": "uint256"
				}
			],
			"name": "useCoupon",
			"outputs": [],
			"stateMutability": "nonpayable",
			"type": "function"
		}
	]
}